{
	"Filiera-Token-SmartContract/contracts/Actor/Consumer-smart-contract/inventory/ConsumerInventoryStorage.sol": {
		"ConsumerBuyerInventoryStorage": {
			"abi": [
				{
					"inputs": [],
					"stateMutability": "nonpayable",
					"type": "constructor"
				},
				{
					"inputs": [
						{
							"internalType": "address",
							"name": "_walletConsumerBuyer",
							"type": "address"
						},
						{
							"internalType": "address",
							"name": "_walletRetailer",
							"type": "address"
						},
						{
							"internalType": "uint256",
							"name": "_id",
							"type": "uint256"
						},
						{
							"internalType": "uint256",
							"name": "_price",
							"type": "uint256"
						},
						{
							"internalType": "uint256",
							"name": "_weight",
							"type": "uint256"
						}
					],
					"name": "addCheesePiece",
					"outputs": [
						{
							"internalType": "uint256",
							"name": "id_CheesePiece_Acquistato",
							"type": "uint256"
						},
						{
							"internalType": "uint256",
							"name": "price",
							"type": "uint256"
						},
						{
							"internalType": "uint256",
							"name": "weight",
							"type": "uint256"
						}
					],
					"stateMutability": "nonpayable",
					"type": "function"
				},
				{
					"inputs": [
						{
							"internalType": "address",
							"name": "walletConsumerBuyer",
							"type": "address"
						},
						{
							"internalType": "uint256",
							"name": "_id_CheesePieceAcquistato",
							"type": "uint256"
						}
					],
					"name": "getCheesePiece",
					"outputs": [
						{
							"internalType": "uint256",
							"name": "",
							"type": "uint256"
						},
						{
							"internalType": "address",
							"name": "",
							"type": "address"
						},
						{
							"internalType": "uint256",
							"name": "",
							"type": "uint256"
						},
						{
							"internalType": "uint256",
							"name": "",
							"type": "uint256"
						}
					],
					"stateMutability": "view",
					"type": "function"
				},
				{
					"inputs": [
						{
							"internalType": "address",
							"name": "walletConsumerBuyer",
							"type": "address"
						},
						{
							"internalType": "uint256",
							"name": "_id",
							"type": "uint256"
						}
					],
					"name": "getPrice",
					"outputs": [
						{
							"internalType": "uint256",
							"name": "",
							"type": "uint256"
						}
					],
					"stateMutability": "view",
					"type": "function"
				},
				{
					"inputs": [
						{
							"internalType": "address",
							"name": "walletConsumerBuyer",
							"type": "address"
						},
						{
							"internalType": "uint256",
							"name": "_id",
							"type": "uint256"
						}
					],
					"name": "getWeight",
					"outputs": [
						{
							"internalType": "uint256",
							"name": "",
							"type": "uint256"
						}
					],
					"stateMutability": "view",
					"type": "function"
				},
				{
					"inputs": [
						{
							"internalType": "address",
							"name": "walletConsumerBuyer",
							"type": "address"
						},
						{
							"internalType": "uint256",
							"name": "_id_CheesePieceAcquistato",
							"type": "uint256"
						}
					],
					"name": "isCheesePiecePresent",
					"outputs": [
						{
							"internalType": "bool",
							"name": "",
							"type": "bool"
						}
					],
					"stateMutability": "view",
					"type": "function"
				}
			],
			"devdoc": {
				"kind": "dev",
				"methods": {},
				"version": 1
			},
			"evm": {
				"assembly": "    /* \"Filiera-Token-SmartContract/contracts/Actor/Consumer-smart-contract/inventory/ConsumerInventoryStorage.sol\":135:3022  contract ConsumerBuyerInventoryStorage {... */\n  mstore(0x40, 0x80)\n    /* \"Filiera-Token-SmartContract/contracts/Actor/Consumer-smart-contract/inventory/ConsumerInventoryStorage.sol\":280:342  constructor() {... */\n  callvalue\n  dup1\n  iszero\n  tag_1\n  jumpi\n  0x00\n  dup1\n  revert\ntag_1:\n  pop\n    /* \"Filiera-Token-SmartContract/contracts/Actor/Consumer-smart-contract/inventory/ConsumerInventoryStorage.sol\":324:334  msg.sender */\n  caller\n    /* \"Filiera-Token-SmartContract/contracts/Actor/Consumer-smart-contract/inventory/ConsumerInventoryStorage.sol\":305:321  consumerBuyerOrg */\n  0x00\n  dup1\n    /* \"Filiera-Token-SmartContract/contracts/Actor/Consumer-smart-contract/inventory/ConsumerInventoryStorage.sol\":305:334  consumerBuyerOrg = msg.sender */\n  0x0100\n  exp\n  dup2\n  sload\n  dup2\n  0xffffffffffffffffffffffffffffffffffffffff\n  mul\n  not\n  and\n  swap1\n  dup4\n  0xffffffffffffffffffffffffffffffffffffffff\n  and\n  mul\n  or\n  swap1\n  sstore\n  pop\n    /* \"Filiera-Token-SmartContract/contracts/Actor/Consumer-smart-contract/inventory/ConsumerInventoryStorage.sol\":135:3022  contract ConsumerBuyerInventoryStorage {... */\n  dataSize(sub_0)\n  dup1\n  dataOffset(sub_0)\n  0x00\n  codecopy\n  0x00\n  return\nstop\n\nsub_0: assembly {\n        /* \"Filiera-Token-SmartContract/contracts/Actor/Consumer-smart-contract/inventory/ConsumerInventoryStorage.sol\":135:3022  contract ConsumerBuyerInventoryStorage {... */\n      mstore(0x40, 0x80)\n      callvalue\n      dup1\n      iszero\n      tag_1\n      jumpi\n      0x00\n      dup1\n      revert\n    tag_1:\n      pop\n      jumpi(tag_2, lt(calldatasize, 0x04))\n      shr(0xe0, calldataload(0x00))\n      dup1\n      0x0b7aa473\n      eq\n      tag_3\n      jumpi\n      dup1\n      0x210744cf\n      eq\n      tag_4\n      jumpi\n      dup1\n      0x449e815d\n      eq\n      tag_5\n      jumpi\n      dup1\n      0x9bc7c21c\n      eq\n      tag_6\n      jumpi\n      dup1\n      0xafd47d3e\n      eq\n      tag_7\n      jumpi\n    tag_2:\n      0x00\n      dup1\n      revert\n        /* \"Filiera-Token-SmartContract/contracts/Actor/Consumer-smart-contract/inventory/ConsumerInventoryStorage.sol\":1905:2274  function getCheesePiece(address walletConsumerBuyer, uint256 _id_CheesePieceAcquistato) external view returns (uint256, address, uint256, uint256) {... */\n    tag_3:\n      tag_8\n      0x04\n      dup1\n      calldatasize\n      sub\n      dup2\n      add\n      swap1\n      tag_9\n      swap2\n      swap1\n      tag_10\n      jump\t// in\n    tag_9:\n      tag_11\n      jump\t// in\n    tag_8:\n      mload(0x40)\n      tag_12\n      swap5\n      swap4\n      swap3\n      swap2\n      swap1\n      tag_13\n      jump\t// in\n    tag_12:\n      mload(0x40)\n      dup1\n      swap2\n      sub\n      swap1\n      return\n        /* \"Filiera-Token-SmartContract/contracts/Actor/Consumer-smart-contract/inventory/ConsumerInventoryStorage.sol\":840:1897  function addCheesePiece(... */\n    tag_4:\n      tag_14\n      0x04\n      dup1\n      calldatasize\n      sub\n      dup2\n      add\n      swap1\n      tag_15\n      swap2\n      swap1\n      tag_16\n      jump\t// in\n    tag_15:\n      tag_17\n      jump\t// in\n    tag_14:\n      mload(0x40)\n      tag_18\n      swap4\n      swap3\n      swap2\n      swap1\n      tag_19\n      jump\t// in\n    tag_18:\n      mload(0x40)\n      dup1\n      swap2\n      sub\n      swap1\n      return\n        /* \"Filiera-Token-SmartContract/contracts/Actor/Consumer-smart-contract/inventory/ConsumerInventoryStorage.sol\":2846:3017  function getPrice(address walletConsumerBuyer, uint256 _id) external view returns (uint256) {... */\n    tag_5:\n      tag_20\n      0x04\n      dup1\n      calldatasize\n      sub\n      dup2\n      add\n      swap1\n      tag_21\n      swap2\n      swap1\n      tag_10\n      jump\t// in\n    tag_21:\n      tag_22\n      jump\t// in\n    tag_20:\n      mload(0x40)\n      tag_23\n      swap2\n      swap1\n      tag_24\n      jump\t// in\n    tag_23:\n      mload(0x40)\n      dup1\n      swap2\n      sub\n      swap1\n      return\n        /* \"Filiera-Token-SmartContract/contracts/Actor/Consumer-smart-contract/inventory/ConsumerInventoryStorage.sol\":2282:2643  function isCheesePiecePresent(address walletConsumerBuyer, uint256 _id_CheesePieceAcquistato) external view returns(bool) {... */\n    tag_6:\n      tag_25\n      0x04\n      dup1\n      calldatasize\n      sub\n      dup2\n      add\n      swap1\n      tag_26\n      swap2\n      swap1\n      tag_10\n      jump\t// in\n    tag_26:\n      tag_27\n      jump\t// in\n    tag_25:\n      mload(0x40)\n      tag_28\n      swap2\n      swap1\n      tag_29\n      jump\t// in\n    tag_28:\n      mload(0x40)\n      dup1\n      swap2\n      sub\n      swap1\n      return\n        /* \"Filiera-Token-SmartContract/contracts/Actor/Consumer-smart-contract/inventory/ConsumerInventoryStorage.sol\":2665:2838  function getWeight(address walletConsumerBuyer, uint256 _id) external view returns (uint256) {... */\n    tag_7:\n      tag_30\n      0x04\n      dup1\n      calldatasize\n      sub\n      dup2\n      add\n      swap1\n      tag_31\n      swap2\n      swap1\n      tag_10\n      jump\t// in\n    tag_31:\n      tag_32\n      jump\t// in\n    tag_30:\n      mload(0x40)\n      tag_33\n      swap2\n      swap1\n      tag_24\n      jump\t// in\n    tag_33:\n      mload(0x40)\n      dup1\n      swap2\n      sub\n      swap1\n      return\n        /* \"Filiera-Token-SmartContract/contracts/Actor/Consumer-smart-contract/inventory/ConsumerInventoryStorage.sol\":1905:2274  function getCheesePiece(address walletConsumerBuyer, uint256 _id_CheesePieceAcquistato) external view returns (uint256, address, uint256, uint256) {... */\n    tag_11:\n        /* \"Filiera-Token-SmartContract/contracts/Actor/Consumer-smart-contract/inventory/ConsumerInventoryStorage.sol\":2016:2023  uint256 */\n      0x00\n        /* \"Filiera-Token-SmartContract/contracts/Actor/Consumer-smart-contract/inventory/ConsumerInventoryStorage.sol\":2025:2032  address */\n      dup1\n        /* \"Filiera-Token-SmartContract/contracts/Actor/Consumer-smart-contract/inventory/ConsumerInventoryStorage.sol\":2034:2041  uint256 */\n      0x00\n        /* \"Filiera-Token-SmartContract/contracts/Actor/Consumer-smart-contract/inventory/ConsumerInventoryStorage.sol\":2043:2050  uint256 */\n      dup1\n        /* \"Filiera-Token-SmartContract/contracts/Actor/Consumer-smart-contract/inventory/ConsumerInventoryStorage.sol\":2063:2093  CheesePiece memory cheesePiece */\n      0x00\n        /* \"Filiera-Token-SmartContract/contracts/Actor/Consumer-smart-contract/inventory/ConsumerInventoryStorage.sol\":2096:2117  purchasedCheesePieces */\n      0x01\n        /* \"Filiera-Token-SmartContract/contracts/Actor/Consumer-smart-contract/inventory/ConsumerInventoryStorage.sol\":2096:2138  purchasedCheesePieces[walletConsumerBuyer] */\n      0x00\n        /* \"Filiera-Token-SmartContract/contracts/Actor/Consumer-smart-contract/inventory/ConsumerInventoryStorage.sol\":2118:2137  walletConsumerBuyer */\n      dup9\n        /* \"Filiera-Token-SmartContract/contracts/Actor/Consumer-smart-contract/inventory/ConsumerInventoryStorage.sol\":2096:2138  purchasedCheesePieces[walletConsumerBuyer] */\n      0xffffffffffffffffffffffffffffffffffffffff\n      and\n      0xffffffffffffffffffffffffffffffffffffffff\n      and\n      dup2\n      mstore\n      0x20\n      add\n      swap1\n      dup2\n      mstore\n      0x20\n      add\n      0x00\n      keccak256\n        /* \"Filiera-Token-SmartContract/contracts/Actor/Consumer-smart-contract/inventory/ConsumerInventoryStorage.sol\":2096:2165  purchasedCheesePieces[walletConsumerBuyer][_id_CheesePieceAcquistato] */\n      0x00\n        /* \"Filiera-Token-SmartContract/contracts/Actor/Consumer-smart-contract/inventory/ConsumerInventoryStorage.sol\":2139:2164  _id_CheesePieceAcquistato */\n      dup8\n        /* \"Filiera-Token-SmartContract/contracts/Actor/Consumer-smart-contract/inventory/ConsumerInventoryStorage.sol\":2096:2165  purchasedCheesePieces[walletConsumerBuyer][_id_CheesePieceAcquistato] */\n      dup2\n      mstore\n      0x20\n      add\n      swap1\n      dup2\n      mstore\n      0x20\n      add\n      0x00\n      keccak256\n        /* \"Filiera-Token-SmartContract/contracts/Actor/Consumer-smart-contract/inventory/ConsumerInventoryStorage.sol\":2063:2165  CheesePiece memory cheesePiece = purchasedCheesePieces[walletConsumerBuyer][_id_CheesePieceAcquistato] */\n      mload(0x40)\n      dup1\n      0x80\n      add\n      0x40\n      mstore\n      swap1\n      dup2\n      0x00\n      dup3\n      add\n      sload\n      dup2\n      mstore\n      0x20\n      add\n      0x01\n      dup3\n      add\n      0x00\n      swap1\n      sload\n      swap1\n      0x0100\n      exp\n      swap1\n      div\n      0xffffffffffffffffffffffffffffffffffffffff\n      and\n      0xffffffffffffffffffffffffffffffffffffffff\n      and\n      0xffffffffffffffffffffffffffffffffffffffff\n      and\n      dup2\n      mstore\n      0x20\n      add\n      0x02\n      dup3\n      add\n      sload\n      dup2\n      mstore\n      0x20\n      add\n      0x03\n      dup3\n      add\n      sload\n      dup2\n      mstore\n      pop\n      pop\n      swap1\n      pop\n        /* \"Filiera-Token-SmartContract/contracts/Actor/Consumer-smart-contract/inventory/ConsumerInventoryStorage.sol\":2184:2195  cheesePiece */\n      dup1\n        /* \"Filiera-Token-SmartContract/contracts/Actor/Consumer-smart-contract/inventory/ConsumerInventoryStorage.sol\":2184:2198  cheesePiece.id */\n      0x00\n      add\n      mload\n        /* \"Filiera-Token-SmartContract/contracts/Actor/Consumer-smart-contract/inventory/ConsumerInventoryStorage.sol\":2200:2211  cheesePiece */\n      dup2\n        /* \"Filiera-Token-SmartContract/contracts/Actor/Consumer-smart-contract/inventory/ConsumerInventoryStorage.sol\":2200:2226  cheesePiece.walletRetailer */\n      0x20\n      add\n      mload\n        /* \"Filiera-Token-SmartContract/contracts/Actor/Consumer-smart-contract/inventory/ConsumerInventoryStorage.sol\":2228:2239  cheesePiece */\n      dup3\n        /* \"Filiera-Token-SmartContract/contracts/Actor/Consumer-smart-contract/inventory/ConsumerInventoryStorage.sol\":2228:2245  cheesePiece.price */\n      0x40\n      add\n      mload\n        /* \"Filiera-Token-SmartContract/contracts/Actor/Consumer-smart-contract/inventory/ConsumerInventoryStorage.sol\":2247:2258  cheesePiece */\n      dup4\n        /* \"Filiera-Token-SmartContract/contracts/Actor/Consumer-smart-contract/inventory/ConsumerInventoryStorage.sol\":2247:2265  cheesePiece.weight */\n      0x60\n      add\n      mload\n        /* \"Filiera-Token-SmartContract/contracts/Actor/Consumer-smart-contract/inventory/ConsumerInventoryStorage.sol\":2176:2266  return (cheesePiece.id, cheesePiece.walletRetailer, cheesePiece.price, cheesePiece.weight) */\n      swap5\n      pop\n      swap5\n      pop\n      swap5\n      pop\n      swap5\n      pop\n      pop\n        /* \"Filiera-Token-SmartContract/contracts/Actor/Consumer-smart-contract/inventory/ConsumerInventoryStorage.sol\":1905:2274  function getCheesePiece(address walletConsumerBuyer, uint256 _id_CheesePieceAcquistato) external view returns (uint256, address, uint256, uint256) {... */\n      swap3\n      swap6\n      swap2\n      swap5\n      pop\n      swap3\n      pop\n      jump\t// out\n        /* \"Filiera-Token-SmartContract/contracts/Actor/Consumer-smart-contract/inventory/ConsumerInventoryStorage.sol\":840:1897  function addCheesePiece(... */\n    tag_17:\n        /* \"Filiera-Token-SmartContract/contracts/Actor/Consumer-smart-contract/inventory/ConsumerInventoryStorage.sol\":1073:1106  uint256 id_CheesePiece_Acquistato */\n      0x00\n        /* \"Filiera-Token-SmartContract/contracts/Actor/Consumer-smart-contract/inventory/ConsumerInventoryStorage.sol\":1108:1121  uint256 price */\n      dup1\n        /* \"Filiera-Token-SmartContract/contracts/Actor/Consumer-smart-contract/inventory/ConsumerInventoryStorage.sol\":1123:1137  uint256 weight */\n      0x00\n        /* \"Filiera-Token-SmartContract/contracts/Actor/Consumer-smart-contract/inventory/ConsumerInventoryStorage.sol\":1152:1190  CheesePiece storage cheesePieceControl */\n      dup1\n        /* \"Filiera-Token-SmartContract/contracts/Actor/Consumer-smart-contract/inventory/ConsumerInventoryStorage.sol\":1193:1214  purchasedCheesePieces */\n      0x01\n        /* \"Filiera-Token-SmartContract/contracts/Actor/Consumer-smart-contract/inventory/ConsumerInventoryStorage.sol\":1193:1236  purchasedCheesePieces[_walletConsumerBuyer] */\n      0x00\n        /* \"Filiera-Token-SmartContract/contracts/Actor/Consumer-smart-contract/inventory/ConsumerInventoryStorage.sol\":1215:1235  _walletConsumerBuyer */\n      dup11\n        /* \"Filiera-Token-SmartContract/contracts/Actor/Consumer-smart-contract/inventory/ConsumerInventoryStorage.sol\":1193:1236  purchasedCheesePieces[_walletConsumerBuyer] */\n      0xffffffffffffffffffffffffffffffffffffffff\n      and\n      0xffffffffffffffffffffffffffffffffffffffff\n      and\n      dup2\n      mstore\n      0x20\n      add\n      swap1\n      dup2\n      mstore\n      0x20\n      add\n      0x00\n      keccak256\n        /* \"Filiera-Token-SmartContract/contracts/Actor/Consumer-smart-contract/inventory/ConsumerInventoryStorage.sol\":1193:1241  purchasedCheesePieces[_walletConsumerBuyer][_id] */\n      0x00\n        /* \"Filiera-Token-SmartContract/contracts/Actor/Consumer-smart-contract/inventory/ConsumerInventoryStorage.sol\":1237:1240  _id */\n      dup9\n        /* \"Filiera-Token-SmartContract/contracts/Actor/Consumer-smart-contract/inventory/ConsumerInventoryStorage.sol\":1193:1241  purchasedCheesePieces[_walletConsumerBuyer][_id] */\n      dup2\n      mstore\n      0x20\n      add\n      swap1\n      dup2\n      mstore\n      0x20\n      add\n      0x00\n      keccak256\n        /* \"Filiera-Token-SmartContract/contracts/Actor/Consumer-smart-contract/inventory/ConsumerInventoryStorage.sol\":1152:1241  CheesePiece storage cheesePieceControl = purchasedCheesePieces[_walletConsumerBuyer][_id] */\n      swap1\n      pop\n        /* \"Filiera-Token-SmartContract/contracts/Actor/Consumer-smart-contract/inventory/ConsumerInventoryStorage.sol\":1285:1286  0 */\n      0x00\n        /* \"Filiera-Token-SmartContract/contracts/Actor/Consumer-smart-contract/inventory/ConsumerInventoryStorage.sol\":1260:1278  cheesePieceControl */\n      dup2\n        /* \"Filiera-Token-SmartContract/contracts/Actor/Consumer-smart-contract/inventory/ConsumerInventoryStorage.sol\":1260:1281  cheesePieceControl.id */\n      0x00\n      add\n      sload\n        /* \"Filiera-Token-SmartContract/contracts/Actor/Consumer-smart-contract/inventory/ConsumerInventoryStorage.sol\":1260:1286  cheesePieceControl.id == 0 */\n      eq\n        /* \"Filiera-Token-SmartContract/contracts/Actor/Consumer-smart-contract/inventory/ConsumerInventoryStorage.sol\":1252:1317  require(cheesePieceControl.id == 0, \"CheesePiece gia' presente!\") */\n      tag_36\n      jumpi\n      mload(0x40)\n      0x08c379a000000000000000000000000000000000000000000000000000000000\n      dup2\n      mstore\n      0x04\n      add\n      tag_37\n      swap1\n      tag_38\n      jump\t// in\n    tag_37:\n      mload(0x40)\n      dup1\n      swap2\n      sub\n      swap1\n      revert\n    tag_36:\n        /* \"Filiera-Token-SmartContract/contracts/Actor/Consumer-smart-contract/inventory/ConsumerInventoryStorage.sol\":1368:1398  CheesePiece memory cheesePiece */\n      0x00\n        /* \"Filiera-Token-SmartContract/contracts/Actor/Consumer-smart-contract/inventory/ConsumerInventoryStorage.sol\":1401:1551  CheesePiece({... */\n      mload(0x40)\n      dup1\n      0x80\n      add\n      0x40\n      mstore\n      dup1\n        /* \"Filiera-Token-SmartContract/contracts/Actor/Consumer-smart-contract/inventory/ConsumerInventoryStorage.sol\":1432:1435  _id */\n      dup10\n        /* \"Filiera-Token-SmartContract/contracts/Actor/Consumer-smart-contract/inventory/ConsumerInventoryStorage.sol\":1401:1551  CheesePiece({... */\n      dup2\n      mstore\n      0x20\n      add\n        /* \"Filiera-Token-SmartContract/contracts/Actor/Consumer-smart-contract/inventory/ConsumerInventoryStorage.sol\":1466:1481  _walletRetailer */\n      dup11\n        /* \"Filiera-Token-SmartContract/contracts/Actor/Consumer-smart-contract/inventory/ConsumerInventoryStorage.sol\":1401:1551  CheesePiece({... */\n      0xffffffffffffffffffffffffffffffffffffffff\n      and\n      dup2\n      mstore\n      0x20\n      add\n        /* \"Filiera-Token-SmartContract/contracts/Actor/Consumer-smart-contract/inventory/ConsumerInventoryStorage.sol\":1503:1509  _price */\n      dup9\n        /* \"Filiera-Token-SmartContract/contracts/Actor/Consumer-smart-contract/inventory/ConsumerInventoryStorage.sol\":1401:1551  CheesePiece({... */\n      dup2\n      mstore\n      0x20\n      add\n        /* \"Filiera-Token-SmartContract/contracts/Actor/Consumer-smart-contract/inventory/ConsumerInventoryStorage.sol\":1532:1539  _weight */\n      dup8\n        /* \"Filiera-Token-SmartContract/contracts/Actor/Consumer-smart-contract/inventory/ConsumerInventoryStorage.sol\":1401:1551  CheesePiece({... */\n      dup2\n      mstore\n      pop\n        /* \"Filiera-Token-SmartContract/contracts/Actor/Consumer-smart-contract/inventory/ConsumerInventoryStorage.sol\":1368:1551  CheesePiece memory cheesePiece = CheesePiece({... */\n      swap1\n      pop\n        /* \"Filiera-Token-SmartContract/contracts/Actor/Consumer-smart-contract/inventory/ConsumerInventoryStorage.sol\":1692:1703  cheesePiece */\n      dup1\n        /* \"Filiera-Token-SmartContract/contracts/Actor/Consumer-smart-contract/inventory/ConsumerInventoryStorage.sol\":1641:1662  purchasedCheesePieces */\n      0x01\n        /* \"Filiera-Token-SmartContract/contracts/Actor/Consumer-smart-contract/inventory/ConsumerInventoryStorage.sol\":1641:1684  purchasedCheesePieces[_walletConsumerBuyer] */\n      0x00\n        /* \"Filiera-Token-SmartContract/contracts/Actor/Consumer-smart-contract/inventory/ConsumerInventoryStorage.sol\":1663:1683  _walletConsumerBuyer */\n      dup13\n        /* \"Filiera-Token-SmartContract/contracts/Actor/Consumer-smart-contract/inventory/ConsumerInventoryStorage.sol\":1641:1684  purchasedCheesePieces[_walletConsumerBuyer] */\n      0xffffffffffffffffffffffffffffffffffffffff\n      and\n      0xffffffffffffffffffffffffffffffffffffffff\n      and\n      dup2\n      mstore\n      0x20\n      add\n      swap1\n      dup2\n      mstore\n      0x20\n      add\n      0x00\n      keccak256\n        /* \"Filiera-Token-SmartContract/contracts/Actor/Consumer-smart-contract/inventory/ConsumerInventoryStorage.sol\":1641:1689  purchasedCheesePieces[_walletConsumerBuyer][_id] */\n      0x00\n        /* \"Filiera-Token-SmartContract/contracts/Actor/Consumer-smart-contract/inventory/ConsumerInventoryStorage.sol\":1685:1688  _id */\n      dup11\n        /* \"Filiera-Token-SmartContract/contracts/Actor/Consumer-smart-contract/inventory/ConsumerInventoryStorage.sol\":1641:1689  purchasedCheesePieces[_walletConsumerBuyer][_id] */\n      dup2\n      mstore\n      0x20\n      add\n      swap1\n      dup2\n      mstore\n      0x20\n      add\n      0x00\n      keccak256\n        /* \"Filiera-Token-SmartContract/contracts/Actor/Consumer-smart-contract/inventory/ConsumerInventoryStorage.sol\":1641:1703  purchasedCheesePieces[_walletConsumerBuyer][_id] = cheesePiece */\n      0x00\n      dup3\n      add\n      mload\n      dup2\n      0x00\n      add\n      sstore\n      0x20\n      dup3\n      add\n      mload\n      dup2\n      0x01\n      add\n      exp(0x0100, 0x00)\n      dup2\n      sload\n      dup2\n      0xffffffffffffffffffffffffffffffffffffffff\n      mul\n      not\n      and\n      swap1\n      dup4\n      0xffffffffffffffffffffffffffffffffffffffff\n      and\n      mul\n      or\n      swap1\n      sstore\n      pop\n      0x40\n      dup3\n      add\n      mload\n      dup2\n      0x02\n      add\n      sstore\n      0x60\n      dup3\n      add\n      mload\n      dup2\n      0x03\n      add\n      sstore\n      swap1\n      pop\n      pop\n        /* \"Filiera-Token-SmartContract/contracts/Actor/Consumer-smart-contract/inventory/ConsumerInventoryStorage.sol\":1724:1745  purchasedCheesePieces */\n      0x01\n        /* \"Filiera-Token-SmartContract/contracts/Actor/Consumer-smart-contract/inventory/ConsumerInventoryStorage.sol\":1724:1767  purchasedCheesePieces[_walletConsumerBuyer] */\n      0x00\n        /* \"Filiera-Token-SmartContract/contracts/Actor/Consumer-smart-contract/inventory/ConsumerInventoryStorage.sol\":1746:1766  _walletConsumerBuyer */\n      dup12\n        /* \"Filiera-Token-SmartContract/contracts/Actor/Consumer-smart-contract/inventory/ConsumerInventoryStorage.sol\":1724:1767  purchasedCheesePieces[_walletConsumerBuyer] */\n      0xffffffffffffffffffffffffffffffffffffffff\n      and\n      0xffffffffffffffffffffffffffffffffffffffff\n      and\n      dup2\n      mstore\n      0x20\n      add\n      swap1\n      dup2\n      mstore\n      0x20\n      add\n      0x00\n      keccak256\n        /* \"Filiera-Token-SmartContract/contracts/Actor/Consumer-smart-contract/inventory/ConsumerInventoryStorage.sol\":1724:1772  purchasedCheesePieces[_walletConsumerBuyer][_id] */\n      0x00\n        /* \"Filiera-Token-SmartContract/contracts/Actor/Consumer-smart-contract/inventory/ConsumerInventoryStorage.sol\":1768:1771  _id */\n      dup10\n        /* \"Filiera-Token-SmartContract/contracts/Actor/Consumer-smart-contract/inventory/ConsumerInventoryStorage.sol\":1724:1772  purchasedCheesePieces[_walletConsumerBuyer][_id] */\n      dup2\n      mstore\n      0x20\n      add\n      swap1\n      dup2\n      mstore\n      0x20\n      add\n      0x00\n      keccak256\n        /* \"Filiera-Token-SmartContract/contracts/Actor/Consumer-smart-contract/inventory/ConsumerInventoryStorage.sol\":1724:1775  purchasedCheesePieces[_walletConsumerBuyer][_id].id */\n      0x00\n      add\n      sload\n        /* \"Filiera-Token-SmartContract/contracts/Actor/Consumer-smart-contract/inventory/ConsumerInventoryStorage.sol\":1777:1798  purchasedCheesePieces */\n      0x01\n        /* \"Filiera-Token-SmartContract/contracts/Actor/Consumer-smart-contract/inventory/ConsumerInventoryStorage.sol\":1777:1820  purchasedCheesePieces[_walletConsumerBuyer] */\n      0x00\n        /* \"Filiera-Token-SmartContract/contracts/Actor/Consumer-smart-contract/inventory/ConsumerInventoryStorage.sol\":1799:1819  _walletConsumerBuyer */\n      dup13\n        /* \"Filiera-Token-SmartContract/contracts/Actor/Consumer-smart-contract/inventory/ConsumerInventoryStorage.sol\":1777:1820  purchasedCheesePieces[_walletConsumerBuyer] */\n      0xffffffffffffffffffffffffffffffffffffffff\n      and\n      0xffffffffffffffffffffffffffffffffffffffff\n      and\n      dup2\n      mstore\n      0x20\n      add\n      swap1\n      dup2\n      mstore\n      0x20\n      add\n      0x00\n      keccak256\n        /* \"Filiera-Token-SmartContract/contracts/Actor/Consumer-smart-contract/inventory/ConsumerInventoryStorage.sol\":1777:1825  purchasedCheesePieces[_walletConsumerBuyer][_id] */\n      0x00\n        /* \"Filiera-Token-SmartContract/contracts/Actor/Consumer-smart-contract/inventory/ConsumerInventoryStorage.sol\":1821:1824  _id */\n      dup11\n        /* \"Filiera-Token-SmartContract/contracts/Actor/Consumer-smart-contract/inventory/ConsumerInventoryStorage.sol\":1777:1825  purchasedCheesePieces[_walletConsumerBuyer][_id] */\n      dup2\n      mstore\n      0x20\n      add\n      swap1\n      dup2\n      mstore\n      0x20\n      add\n      0x00\n      keccak256\n        /* \"Filiera-Token-SmartContract/contracts/Actor/Consumer-smart-contract/inventory/ConsumerInventoryStorage.sol\":1777:1831  purchasedCheesePieces[_walletConsumerBuyer][_id].price */\n      0x02\n      add\n      sload\n        /* \"Filiera-Token-SmartContract/contracts/Actor/Consumer-smart-contract/inventory/ConsumerInventoryStorage.sol\":1833:1854  purchasedCheesePieces */\n      0x01\n        /* \"Filiera-Token-SmartContract/contracts/Actor/Consumer-smart-contract/inventory/ConsumerInventoryStorage.sol\":1833:1876  purchasedCheesePieces[_walletConsumerBuyer] */\n      0x00\n        /* \"Filiera-Token-SmartContract/contracts/Actor/Consumer-smart-contract/inventory/ConsumerInventoryStorage.sol\":1855:1875  _walletConsumerBuyer */\n      dup14\n        /* \"Filiera-Token-SmartContract/contracts/Actor/Consumer-smart-contract/inventory/ConsumerInventoryStorage.sol\":1833:1876  purchasedCheesePieces[_walletConsumerBuyer] */\n      0xffffffffffffffffffffffffffffffffffffffff\n      and\n      0xffffffffffffffffffffffffffffffffffffffff\n      and\n      dup2\n      mstore\n      0x20\n      add\n      swap1\n      dup2\n      mstore\n      0x20\n      add\n      0x00\n      keccak256\n        /* \"Filiera-Token-SmartContract/contracts/Actor/Consumer-smart-contract/inventory/ConsumerInventoryStorage.sol\":1833:1881  purchasedCheesePieces[_walletConsumerBuyer][_id] */\n      0x00\n        /* \"Filiera-Token-SmartContract/contracts/Actor/Consumer-smart-contract/inventory/ConsumerInventoryStorage.sol\":1877:1880  _id */\n      dup12\n        /* \"Filiera-Token-SmartContract/contracts/Actor/Consumer-smart-contract/inventory/ConsumerInventoryStorage.sol\":1833:1881  purchasedCheesePieces[_walletConsumerBuyer][_id] */\n      dup2\n      mstore\n      0x20\n      add\n      swap1\n      dup2\n      mstore\n      0x20\n      add\n      0x00\n      keccak256\n        /* \"Filiera-Token-SmartContract/contracts/Actor/Consumer-smart-contract/inventory/ConsumerInventoryStorage.sol\":1833:1888  purchasedCheesePieces[_walletConsumerBuyer][_id].weight */\n      0x03\n      add\n      sload\n        /* \"Filiera-Token-SmartContract/contracts/Actor/Consumer-smart-contract/inventory/ConsumerInventoryStorage.sol\":1716:1889  return (purchasedCheesePieces[_walletConsumerBuyer][_id].id, purchasedCheesePieces[_walletConsumerBuyer][_id].price, purchasedCheesePieces[_walletConsumerBuyer][_id].weight) */\n      swap5\n      pop\n      swap5\n      pop\n      swap5\n      pop\n      pop\n      pop\n        /* \"Filiera-Token-SmartContract/contracts/Actor/Consumer-smart-contract/inventory/ConsumerInventoryStorage.sol\":840:1897  function addCheesePiece(... */\n      swap6\n      pop\n      swap6\n      pop\n      swap6\n      swap3\n      pop\n      pop\n      pop\n      jump\t// out\n        /* \"Filiera-Token-SmartContract/contracts/Actor/Consumer-smart-contract/inventory/ConsumerInventoryStorage.sol\":2846:3017  function getPrice(address walletConsumerBuyer, uint256 _id) external view returns (uint256) {... */\n    tag_22:\n        /* \"Filiera-Token-SmartContract/contracts/Actor/Consumer-smart-contract/inventory/ConsumerInventoryStorage.sol\":2929:2936  uint256 */\n      0x00\n        /* \"Filiera-Token-SmartContract/contracts/Actor/Consumer-smart-contract/inventory/ConsumerInventoryStorage.sol\":2956:2977  purchasedCheesePieces */\n      0x01\n        /* \"Filiera-Token-SmartContract/contracts/Actor/Consumer-smart-contract/inventory/ConsumerInventoryStorage.sol\":2956:2998  purchasedCheesePieces[walletConsumerBuyer] */\n      0x00\n        /* \"Filiera-Token-SmartContract/contracts/Actor/Consumer-smart-contract/inventory/ConsumerInventoryStorage.sol\":2978:2997  walletConsumerBuyer */\n      dup5\n        /* \"Filiera-Token-SmartContract/contracts/Actor/Consumer-smart-contract/inventory/ConsumerInventoryStorage.sol\":2956:2998  purchasedCheesePieces[walletConsumerBuyer] */\n      0xffffffffffffffffffffffffffffffffffffffff\n      and\n      0xffffffffffffffffffffffffffffffffffffffff\n      and\n      dup2\n      mstore\n      0x20\n      add\n      swap1\n      dup2\n      mstore\n      0x20\n      add\n      0x00\n      keccak256\n        /* \"Filiera-Token-SmartContract/contracts/Actor/Consumer-smart-contract/inventory/ConsumerInventoryStorage.sol\":2956:3003  purchasedCheesePieces[walletConsumerBuyer][_id] */\n      0x00\n        /* \"Filiera-Token-SmartContract/contracts/Actor/Consumer-smart-contract/inventory/ConsumerInventoryStorage.sol\":2999:3002  _id */\n      dup4\n        /* \"Filiera-Token-SmartContract/contracts/Actor/Consumer-smart-contract/inventory/ConsumerInventoryStorage.sol\":2956:3003  purchasedCheesePieces[walletConsumerBuyer][_id] */\n      dup2\n      mstore\n      0x20\n      add\n      swap1\n      dup2\n      mstore\n      0x20\n      add\n      0x00\n      keccak256\n        /* \"Filiera-Token-SmartContract/contracts/Actor/Consumer-smart-contract/inventory/ConsumerInventoryStorage.sol\":2956:3009  purchasedCheesePieces[walletConsumerBuyer][_id].price */\n      0x02\n      add\n      sload\n        /* \"Filiera-Token-SmartContract/contracts/Actor/Consumer-smart-contract/inventory/ConsumerInventoryStorage.sol\":2949:3009  return purchasedCheesePieces[walletConsumerBuyer][_id].price */\n      swap1\n      pop\n        /* \"Filiera-Token-SmartContract/contracts/Actor/Consumer-smart-contract/inventory/ConsumerInventoryStorage.sol\":2846:3017  function getPrice(address walletConsumerBuyer, uint256 _id) external view returns (uint256) {... */\n      swap3\n      swap2\n      pop\n      pop\n      jump\t// out\n        /* \"Filiera-Token-SmartContract/contracts/Actor/Consumer-smart-contract/inventory/ConsumerInventoryStorage.sol\":2282:2643  function isCheesePiecePresent(address walletConsumerBuyer, uint256 _id_CheesePieceAcquistato) external view returns(bool) {... */\n    tag_27:\n        /* \"Filiera-Token-SmartContract/contracts/Actor/Consumer-smart-contract/inventory/ConsumerInventoryStorage.sol\":2398:2402  bool */\n      0x00\n        /* \"Filiera-Token-SmartContract/contracts/Actor/Consumer-smart-contract/inventory/ConsumerInventoryStorage.sol\":2452:2453  0 */\n      dup1\n        /* \"Filiera-Token-SmartContract/contracts/Actor/Consumer-smart-contract/inventory/ConsumerInventoryStorage.sol\":2423:2448  _id_CheesePieceAcquistato */\n      dup3\n        /* \"Filiera-Token-SmartContract/contracts/Actor/Consumer-smart-contract/inventory/ConsumerInventoryStorage.sol\":2423:2453  _id_CheesePieceAcquistato != 0 */\n      eq\n      iszero\n        /* \"Filiera-Token-SmartContract/contracts/Actor/Consumer-smart-contract/inventory/ConsumerInventoryStorage.sol\":2423:2486  _id_CheesePieceAcquistato != 0 && _id_CheesePieceAcquistato > 0 */\n      dup1\n      iszero\n      tag_41\n      jumpi\n      pop\n        /* \"Filiera-Token-SmartContract/contracts/Actor/Consumer-smart-contract/inventory/ConsumerInventoryStorage.sol\":2485:2486  0 */\n      0x00\n        /* \"Filiera-Token-SmartContract/contracts/Actor/Consumer-smart-contract/inventory/ConsumerInventoryStorage.sol\":2457:2482  _id_CheesePieceAcquistato */\n      dup3\n        /* \"Filiera-Token-SmartContract/contracts/Actor/Consumer-smart-contract/inventory/ConsumerInventoryStorage.sol\":2457:2486  _id_CheesePieceAcquistato > 0 */\n      gt\n        /* \"Filiera-Token-SmartContract/contracts/Actor/Consumer-smart-contract/inventory/ConsumerInventoryStorage.sol\":2423:2486  _id_CheesePieceAcquistato != 0 && _id_CheesePieceAcquistato > 0 */\n    tag_41:\n        /* \"Filiera-Token-SmartContract/contracts/Actor/Consumer-smart-contract/inventory/ConsumerInventoryStorage.sol\":2415:2516  require(_id_CheesePieceAcquistato != 0 && _id_CheesePieceAcquistato > 0, \"ID CheesePiece Not Valid!\") */\n      tag_42\n      jumpi\n      mload(0x40)\n      0x08c379a000000000000000000000000000000000000000000000000000000000\n      dup2\n      mstore\n      0x04\n      add\n      tag_43\n      swap1\n      tag_44\n      jump\t// in\n    tag_43:\n      mload(0x40)\n      dup1\n      swap2\n      sub\n      swap1\n      revert\n    tag_42:\n        /* \"Filiera-Token-SmartContract/contracts/Actor/Consumer-smart-contract/inventory/ConsumerInventoryStorage.sol\":2610:2635  _id_CheesePieceAcquistato */\n      dup2\n        /* \"Filiera-Token-SmartContract/contracts/Actor/Consumer-smart-contract/inventory/ConsumerInventoryStorage.sol\":2534:2555  purchasedCheesePieces */\n      0x01\n        /* \"Filiera-Token-SmartContract/contracts/Actor/Consumer-smart-contract/inventory/ConsumerInventoryStorage.sol\":2534:2576  purchasedCheesePieces[walletConsumerBuyer] */\n      0x00\n        /* \"Filiera-Token-SmartContract/contracts/Actor/Consumer-smart-contract/inventory/ConsumerInventoryStorage.sol\":2556:2575  walletConsumerBuyer */\n      dup6\n        /* \"Filiera-Token-SmartContract/contracts/Actor/Consumer-smart-contract/inventory/ConsumerInventoryStorage.sol\":2534:2576  purchasedCheesePieces[walletConsumerBuyer] */\n      0xffffffffffffffffffffffffffffffffffffffff\n      and\n      0xffffffffffffffffffffffffffffffffffffffff\n      and\n      dup2\n      mstore\n      0x20\n      add\n      swap1\n      dup2\n      mstore\n      0x20\n      add\n      0x00\n      keccak256\n        /* \"Filiera-Token-SmartContract/contracts/Actor/Consumer-smart-contract/inventory/ConsumerInventoryStorage.sol\":2534:2603  purchasedCheesePieces[walletConsumerBuyer][_id_CheesePieceAcquistato] */\n      0x00\n        /* \"Filiera-Token-SmartContract/contracts/Actor/Consumer-smart-contract/inventory/ConsumerInventoryStorage.sol\":2577:2602  _id_CheesePieceAcquistato */\n      dup5\n        /* \"Filiera-Token-SmartContract/contracts/Actor/Consumer-smart-contract/inventory/ConsumerInventoryStorage.sol\":2534:2603  purchasedCheesePieces[walletConsumerBuyer][_id_CheesePieceAcquistato] */\n      dup2\n      mstore\n      0x20\n      add\n      swap1\n      dup2\n      mstore\n      0x20\n      add\n      0x00\n      keccak256\n        /* \"Filiera-Token-SmartContract/contracts/Actor/Consumer-smart-contract/inventory/ConsumerInventoryStorage.sol\":2534:2606  purchasedCheesePieces[walletConsumerBuyer][_id_CheesePieceAcquistato].id */\n      0x00\n      add\n      sload\n        /* \"Filiera-Token-SmartContract/contracts/Actor/Consumer-smart-contract/inventory/ConsumerInventoryStorage.sol\":2534:2635  purchasedCheesePieces[walletConsumerBuyer][_id_CheesePieceAcquistato].id == _id_CheesePieceAcquistato */\n      eq\n        /* \"Filiera-Token-SmartContract/contracts/Actor/Consumer-smart-contract/inventory/ConsumerInventoryStorage.sol\":2527:2635  return purchasedCheesePieces[walletConsumerBuyer][_id_CheesePieceAcquistato].id == _id_CheesePieceAcquistato */\n      swap1\n      pop\n        /* \"Filiera-Token-SmartContract/contracts/Actor/Consumer-smart-contract/inventory/ConsumerInventoryStorage.sol\":2282:2643  function isCheesePiecePresent(address walletConsumerBuyer, uint256 _id_CheesePieceAcquistato) external view returns(bool) {... */\n      swap3\n      swap2\n      pop\n      pop\n      jump\t// out\n        /* \"Filiera-Token-SmartContract/contracts/Actor/Consumer-smart-contract/inventory/ConsumerInventoryStorage.sol\":2665:2838  function getWeight(address walletConsumerBuyer, uint256 _id) external view returns (uint256) {... */\n    tag_32:\n        /* \"Filiera-Token-SmartContract/contracts/Actor/Consumer-smart-contract/inventory/ConsumerInventoryStorage.sol\":2749:2756  uint256 */\n      0x00\n        /* \"Filiera-Token-SmartContract/contracts/Actor/Consumer-smart-contract/inventory/ConsumerInventoryStorage.sol\":2776:2797  purchasedCheesePieces */\n      0x01\n        /* \"Filiera-Token-SmartContract/contracts/Actor/Consumer-smart-contract/inventory/ConsumerInventoryStorage.sol\":2776:2818  purchasedCheesePieces[walletConsumerBuyer] */\n      0x00\n        /* \"Filiera-Token-SmartContract/contracts/Actor/Consumer-smart-contract/inventory/ConsumerInventoryStorage.sol\":2798:2817  walletConsumerBuyer */\n      dup5\n        /* \"Filiera-Token-SmartContract/contracts/Actor/Consumer-smart-contract/inventory/ConsumerInventoryStorage.sol\":2776:2818  purchasedCheesePieces[walletConsumerBuyer] */\n      0xffffffffffffffffffffffffffffffffffffffff\n      and\n      0xffffffffffffffffffffffffffffffffffffffff\n      and\n      dup2\n      mstore\n      0x20\n      add\n      swap1\n      dup2\n      mstore\n      0x20\n      add\n      0x00\n      keccak256\n        /* \"Filiera-Token-SmartContract/contracts/Actor/Consumer-smart-contract/inventory/ConsumerInventoryStorage.sol\":2776:2823  purchasedCheesePieces[walletConsumerBuyer][_id] */\n      0x00\n        /* \"Filiera-Token-SmartContract/contracts/Actor/Consumer-smart-contract/inventory/ConsumerInventoryStorage.sol\":2819:2822  _id */\n      dup4\n        /* \"Filiera-Token-SmartContract/contracts/Actor/Consumer-smart-contract/inventory/ConsumerInventoryStorage.sol\":2776:2823  purchasedCheesePieces[walletConsumerBuyer][_id] */\n      dup2\n      mstore\n      0x20\n      add\n      swap1\n      dup2\n      mstore\n      0x20\n      add\n      0x00\n      keccak256\n        /* \"Filiera-Token-SmartContract/contracts/Actor/Consumer-smart-contract/inventory/ConsumerInventoryStorage.sol\":2776:2830  purchasedCheesePieces[walletConsumerBuyer][_id].weight */\n      0x03\n      add\n      sload\n        /* \"Filiera-Token-SmartContract/contracts/Actor/Consumer-smart-contract/inventory/ConsumerInventoryStorage.sol\":2769:2830  return purchasedCheesePieces[walletConsumerBuyer][_id].weight */\n      swap1\n      pop\n        /* \"Filiera-Token-SmartContract/contracts/Actor/Consumer-smart-contract/inventory/ConsumerInventoryStorage.sol\":2665:2838  function getWeight(address walletConsumerBuyer, uint256 _id) external view returns (uint256) {... */\n      swap3\n      swap2\n      pop\n      pop\n      jump\t// out\n        /* \"#utility.yul\":88:205   */\n    tag_47:\n        /* \"#utility.yul\":197:198   */\n      0x00\n        /* \"#utility.yul\":194:195   */\n      dup1\n        /* \"#utility.yul\":187:199   */\n      revert\n        /* \"#utility.yul\":334:460   */\n    tag_49:\n        /* \"#utility.yul\":371:378   */\n      0x00\n        /* \"#utility.yul\":411:453   */\n      0xffffffffffffffffffffffffffffffffffffffff\n        /* \"#utility.yul\":404:409   */\n      dup3\n        /* \"#utility.yul\":400:454   */\n      and\n        /* \"#utility.yul\":389:454   */\n      swap1\n      pop\n        /* \"#utility.yul\":334:460   */\n      swap2\n      swap1\n      pop\n      jump\t// out\n        /* \"#utility.yul\":466:562   */\n    tag_50:\n        /* \"#utility.yul\":503:510   */\n      0x00\n        /* \"#utility.yul\":532:556   */\n      tag_71\n        /* \"#utility.yul\":550:555   */\n      dup3\n        /* \"#utility.yul\":532:556   */\n      tag_49\n      jump\t// in\n    tag_71:\n        /* \"#utility.yul\":521:556   */\n      swap1\n      pop\n        /* \"#utility.yul\":466:562   */\n      swap2\n      swap1\n      pop\n      jump\t// out\n        /* \"#utility.yul\":568:690   */\n    tag_51:\n        /* \"#utility.yul\":641:665   */\n      tag_73\n        /* \"#utility.yul\":659:664   */\n      dup2\n        /* \"#utility.yul\":641:665   */\n      tag_50\n      jump\t// in\n    tag_73:\n        /* \"#utility.yul\":634:639   */\n      dup2\n        /* \"#utility.yul\":631:666   */\n      eq\n        /* \"#utility.yul\":621:684   */\n      tag_74\n      jumpi\n        /* \"#utility.yul\":680:681   */\n      0x00\n        /* \"#utility.yul\":677:678   */\n      dup1\n        /* \"#utility.yul\":670:682   */\n      revert\n        /* \"#utility.yul\":621:684   */\n    tag_74:\n        /* \"#utility.yul\":568:690   */\n      pop\n      jump\t// out\n        /* \"#utility.yul\":696:835   */\n    tag_52:\n        /* \"#utility.yul\":742:747   */\n      0x00\n        /* \"#utility.yul\":780:786   */\n      dup2\n        /* \"#utility.yul\":767:787   */\n      calldataload\n        /* \"#utility.yul\":758:787   */\n      swap1\n      pop\n        /* \"#utility.yul\":796:829   */\n      tag_76\n        /* \"#utility.yul\":823:828   */\n      dup2\n        /* \"#utility.yul\":796:829   */\n      tag_51\n      jump\t// in\n    tag_76:\n        /* \"#utility.yul\":696:835   */\n      swap3\n      swap2\n      pop\n      pop\n      jump\t// out\n        /* \"#utility.yul\":841:918   */\n    tag_53:\n        /* \"#utility.yul\":878:885   */\n      0x00\n        /* \"#utility.yul\":907:912   */\n      dup2\n        /* \"#utility.yul\":896:912   */\n      swap1\n      pop\n        /* \"#utility.yul\":841:918   */\n      swap2\n      swap1\n      pop\n      jump\t// out\n        /* \"#utility.yul\":924:1046   */\n    tag_54:\n        /* \"#utility.yul\":997:1021   */\n      tag_79\n        /* \"#utility.yul\":1015:1020   */\n      dup2\n        /* \"#utility.yul\":997:1021   */\n      tag_53\n      jump\t// in\n    tag_79:\n        /* \"#utility.yul\":990:995   */\n      dup2\n        /* \"#utility.yul\":987:1022   */\n      eq\n        /* \"#utility.yul\":977:1040   */\n      tag_80\n      jumpi\n        /* \"#utility.yul\":1036:1037   */\n      0x00\n        /* \"#utility.yul\":1033:1034   */\n      dup1\n        /* \"#utility.yul\":1026:1038   */\n      revert\n        /* \"#utility.yul\":977:1040   */\n    tag_80:\n        /* \"#utility.yul\":924:1046   */\n      pop\n      jump\t// out\n        /* \"#utility.yul\":1052:1191   */\n    tag_55:\n        /* \"#utility.yul\":1098:1103   */\n      0x00\n        /* \"#utility.yul\":1136:1142   */\n      dup2\n        /* \"#utility.yul\":1123:1143   */\n      calldataload\n        /* \"#utility.yul\":1114:1143   */\n      swap1\n      pop\n        /* \"#utility.yul\":1152:1185   */\n      tag_82\n        /* \"#utility.yul\":1179:1184   */\n      dup2\n        /* \"#utility.yul\":1152:1185   */\n      tag_54\n      jump\t// in\n    tag_82:\n        /* \"#utility.yul\":1052:1191   */\n      swap3\n      swap2\n      pop\n      pop\n      jump\t// out\n        /* \"#utility.yul\":1197:1671   */\n    tag_10:\n        /* \"#utility.yul\":1265:1271   */\n      0x00\n        /* \"#utility.yul\":1273:1279   */\n      dup1\n        /* \"#utility.yul\":1322:1324   */\n      0x40\n        /* \"#utility.yul\":1310:1319   */\n      dup4\n        /* \"#utility.yul\":1301:1308   */\n      dup6\n        /* \"#utility.yul\":1297:1320   */\n      sub\n        /* \"#utility.yul\":1293:1325   */\n      slt\n        /* \"#utility.yul\":1290:1409   */\n      iszero\n      tag_84\n      jumpi\n        /* \"#utility.yul\":1328:1407   */\n      tag_85\n      tag_47\n      jump\t// in\n    tag_85:\n        /* \"#utility.yul\":1290:1409   */\n    tag_84:\n        /* \"#utility.yul\":1448:1449   */\n      0x00\n        /* \"#utility.yul\":1473:1526   */\n      tag_86\n        /* \"#utility.yul\":1518:1525   */\n      dup6\n        /* \"#utility.yul\":1509:1515   */\n      dup3\n        /* \"#utility.yul\":1498:1507   */\n      dup7\n        /* \"#utility.yul\":1494:1516   */\n      add\n        /* \"#utility.yul\":1473:1526   */\n      tag_52\n      jump\t// in\n    tag_86:\n        /* \"#utility.yul\":1463:1526   */\n      swap3\n      pop\n        /* \"#utility.yul\":1419:1536   */\n      pop\n        /* \"#utility.yul\":1575:1577   */\n      0x20\n        /* \"#utility.yul\":1601:1654   */\n      tag_87\n        /* \"#utility.yul\":1646:1653   */\n      dup6\n        /* \"#utility.yul\":1637:1643   */\n      dup3\n        /* \"#utility.yul\":1626:1635   */\n      dup7\n        /* \"#utility.yul\":1622:1644   */\n      add\n        /* \"#utility.yul\":1601:1654   */\n      tag_55\n      jump\t// in\n    tag_87:\n        /* \"#utility.yul\":1591:1654   */\n      swap2\n      pop\n        /* \"#utility.yul\":1546:1664   */\n      pop\n        /* \"#utility.yul\":1197:1671   */\n      swap3\n      pop\n      swap3\n      swap1\n      pop\n      jump\t// out\n        /* \"#utility.yul\":1677:1795   */\n    tag_56:\n        /* \"#utility.yul\":1764:1788   */\n      tag_89\n        /* \"#utility.yul\":1782:1787   */\n      dup2\n        /* \"#utility.yul\":1764:1788   */\n      tag_53\n      jump\t// in\n    tag_89:\n        /* \"#utility.yul\":1759:1762   */\n      dup3\n        /* \"#utility.yul\":1752:1789   */\n      mstore\n        /* \"#utility.yul\":1677:1795   */\n      pop\n      pop\n      jump\t// out\n        /* \"#utility.yul\":1801:1919   */\n    tag_57:\n        /* \"#utility.yul\":1888:1912   */\n      tag_91\n        /* \"#utility.yul\":1906:1911   */\n      dup2\n        /* \"#utility.yul\":1888:1912   */\n      tag_50\n      jump\t// in\n    tag_91:\n        /* \"#utility.yul\":1883:1886   */\n      dup3\n        /* \"#utility.yul\":1876:1913   */\n      mstore\n        /* \"#utility.yul\":1801:1919   */\n      pop\n      pop\n      jump\t// out\n        /* \"#utility.yul\":1925:2478   */\n    tag_13:\n        /* \"#utility.yul\":2102:2106   */\n      0x00\n        /* \"#utility.yul\":2140:2143   */\n      0x80\n        /* \"#utility.yul\":2129:2138   */\n      dup3\n        /* \"#utility.yul\":2125:2144   */\n      add\n        /* \"#utility.yul\":2117:2144   */\n      swap1\n      pop\n        /* \"#utility.yul\":2154:2225   */\n      tag_93\n        /* \"#utility.yul\":2222:2223   */\n      0x00\n        /* \"#utility.yul\":2211:2220   */\n      dup4\n        /* \"#utility.yul\":2207:2224   */\n      add\n        /* \"#utility.yul\":2198:2204   */\n      dup8\n        /* \"#utility.yul\":2154:2225   */\n      tag_56\n      jump\t// in\n    tag_93:\n        /* \"#utility.yul\":2235:2307   */\n      tag_94\n        /* \"#utility.yul\":2303:2305   */\n      0x20\n        /* \"#utility.yul\":2292:2301   */\n      dup4\n        /* \"#utility.yul\":2288:2306   */\n      add\n        /* \"#utility.yul\":2279:2285   */\n      dup7\n        /* \"#utility.yul\":2235:2307   */\n      tag_57\n      jump\t// in\n    tag_94:\n        /* \"#utility.yul\":2317:2389   */\n      tag_95\n        /* \"#utility.yul\":2385:2387   */\n      0x40\n        /* \"#utility.yul\":2374:2383   */\n      dup4\n        /* \"#utility.yul\":2370:2388   */\n      add\n        /* \"#utility.yul\":2361:2367   */\n      dup6\n        /* \"#utility.yul\":2317:2389   */\n      tag_56\n      jump\t// in\n    tag_95:\n        /* \"#utility.yul\":2399:2471   */\n      tag_96\n        /* \"#utility.yul\":2467:2469   */\n      0x60\n        /* \"#utility.yul\":2456:2465   */\n      dup4\n        /* \"#utility.yul\":2452:2470   */\n      add\n        /* \"#utility.yul\":2443:2449   */\n      dup5\n        /* \"#utility.yul\":2399:2471   */\n      tag_56\n      jump\t// in\n    tag_96:\n        /* \"#utility.yul\":1925:2478   */\n      swap6\n      swap5\n      pop\n      pop\n      pop\n      pop\n      pop\n      jump\t// out\n        /* \"#utility.yul\":2484:3395   */\n    tag_16:\n        /* \"#utility.yul\":2579:2585   */\n      0x00\n        /* \"#utility.yul\":2587:2593   */\n      dup1\n        /* \"#utility.yul\":2595:2601   */\n      0x00\n        /* \"#utility.yul\":2603:2609   */\n      dup1\n        /* \"#utility.yul\":2611:2617   */\n      0x00\n        /* \"#utility.yul\":2660:2663   */\n      0xa0\n        /* \"#utility.yul\":2648:2657   */\n      dup7\n        /* \"#utility.yul\":2639:2646   */\n      dup9\n        /* \"#utility.yul\":2635:2658   */\n      sub\n        /* \"#utility.yul\":2631:2664   */\n      slt\n        /* \"#utility.yul\":2628:2748   */\n      iszero\n      tag_98\n      jumpi\n        /* \"#utility.yul\":2667:2746   */\n      tag_99\n      tag_47\n      jump\t// in\n    tag_99:\n        /* \"#utility.yul\":2628:2748   */\n    tag_98:\n        /* \"#utility.yul\":2787:2788   */\n      0x00\n        /* \"#utility.yul\":2812:2865   */\n      tag_100\n        /* \"#utility.yul\":2857:2864   */\n      dup9\n        /* \"#utility.yul\":2848:2854   */\n      dup3\n        /* \"#utility.yul\":2837:2846   */\n      dup10\n        /* \"#utility.yul\":2833:2855   */\n      add\n        /* \"#utility.yul\":2812:2865   */\n      tag_52\n      jump\t// in\n    tag_100:\n        /* \"#utility.yul\":2802:2865   */\n      swap6\n      pop\n        /* \"#utility.yul\":2758:2875   */\n      pop\n        /* \"#utility.yul\":2914:2916   */\n      0x20\n        /* \"#utility.yul\":2940:2993   */\n      tag_101\n        /* \"#utility.yul\":2985:2992   */\n      dup9\n        /* \"#utility.yul\":2976:2982   */\n      dup3\n        /* \"#utility.yul\":2965:2974   */\n      dup10\n        /* \"#utility.yul\":2961:2983   */\n      add\n        /* \"#utility.yul\":2940:2993   */\n      tag_52\n      jump\t// in\n    tag_101:\n        /* \"#utility.yul\":2930:2993   */\n      swap5\n      pop\n        /* \"#utility.yul\":2885:3003   */\n      pop\n        /* \"#utility.yul\":3042:3044   */\n      0x40\n        /* \"#utility.yul\":3068:3121   */\n      tag_102\n        /* \"#utility.yul\":3113:3120   */\n      dup9\n        /* \"#utility.yul\":3104:3110   */\n      dup3\n        /* \"#utility.yul\":3093:3102   */\n      dup10\n        /* \"#utility.yul\":3089:3111   */\n      add\n        /* \"#utility.yul\":3068:3121   */\n      tag_55\n      jump\t// in\n    tag_102:\n        /* \"#utility.yul\":3058:3121   */\n      swap4\n      pop\n        /* \"#utility.yul\":3013:3131   */\n      pop\n        /* \"#utility.yul\":3170:3172   */\n      0x60\n        /* \"#utility.yul\":3196:3249   */\n      tag_103\n        /* \"#utility.yul\":3241:3248   */\n      dup9\n        /* \"#utility.yul\":3232:3238   */\n      dup3\n        /* \"#utility.yul\":3221:3230   */\n      dup10\n        /* \"#utility.yul\":3217:3239   */\n      add\n        /* \"#utility.yul\":3196:3249   */\n      tag_55\n      jump\t// in\n    tag_103:\n        /* \"#utility.yul\":3186:3249   */\n      swap3\n      pop\n        /* \"#utility.yul\":3141:3259   */\n      pop\n        /* \"#utility.yul\":3298:3301   */\n      0x80\n        /* \"#utility.yul\":3325:3378   */\n      tag_104\n        /* \"#utility.yul\":3370:3377   */\n      dup9\n        /* \"#utility.yul\":3361:3367   */\n      dup3\n        /* \"#utility.yul\":3350:3359   */\n      dup10\n        /* \"#utility.yul\":3346:3368   */\n      add\n        /* \"#utility.yul\":3325:3378   */\n      tag_55\n      jump\t// in\n    tag_104:\n        /* \"#utility.yul\":3315:3378   */\n      swap2\n      pop\n        /* \"#utility.yul\":3269:3388   */\n      pop\n        /* \"#utility.yul\":2484:3395   */\n      swap3\n      swap6\n      pop\n      swap3\n      swap6\n      swap1\n      swap4\n      pop\n      jump\t// out\n        /* \"#utility.yul\":3401:3843   */\n    tag_19:\n        /* \"#utility.yul\":3550:3554   */\n      0x00\n        /* \"#utility.yul\":3588:3590   */\n      0x60\n        /* \"#utility.yul\":3577:3586   */\n      dup3\n        /* \"#utility.yul\":3573:3591   */\n      add\n        /* \"#utility.yul\":3565:3591   */\n      swap1\n      pop\n        /* \"#utility.yul\":3601:3672   */\n      tag_106\n        /* \"#utility.yul\":3669:3670   */\n      0x00\n        /* \"#utility.yul\":3658:3667   */\n      dup4\n        /* \"#utility.yul\":3654:3671   */\n      add\n        /* \"#utility.yul\":3645:3651   */\n      dup7\n        /* \"#utility.yul\":3601:3672   */\n      tag_56\n      jump\t// in\n    tag_106:\n        /* \"#utility.yul\":3682:3754   */\n      tag_107\n        /* \"#utility.yul\":3750:3752   */\n      0x20\n        /* \"#utility.yul\":3739:3748   */\n      dup4\n        /* \"#utility.yul\":3735:3753   */\n      add\n        /* \"#utility.yul\":3726:3732   */\n      dup6\n        /* \"#utility.yul\":3682:3754   */\n      tag_56\n      jump\t// in\n    tag_107:\n        /* \"#utility.yul\":3764:3836   */\n      tag_108\n        /* \"#utility.yul\":3832:3834   */\n      0x40\n        /* \"#utility.yul\":3821:3830   */\n      dup4\n        /* \"#utility.yul\":3817:3835   */\n      add\n        /* \"#utility.yul\":3808:3814   */\n      dup5\n        /* \"#utility.yul\":3764:3836   */\n      tag_56\n      jump\t// in\n    tag_108:\n        /* \"#utility.yul\":3401:3843   */\n      swap5\n      swap4\n      pop\n      pop\n      pop\n      pop\n      jump\t// out\n        /* \"#utility.yul\":3849:4071   */\n    tag_24:\n        /* \"#utility.yul\":3942:3946   */\n      0x00\n        /* \"#utility.yul\":3980:3982   */\n      0x20\n        /* \"#utility.yul\":3969:3978   */\n      dup3\n        /* \"#utility.yul\":3965:3983   */\n      add\n        /* \"#utility.yul\":3957:3983   */\n      swap1\n      pop\n        /* \"#utility.yul\":3993:4064   */\n      tag_110\n        /* \"#utility.yul\":4061:4062   */\n      0x00\n        /* \"#utility.yul\":4050:4059   */\n      dup4\n        /* \"#utility.yul\":4046:4063   */\n      add\n        /* \"#utility.yul\":4037:4043   */\n      dup5\n        /* \"#utility.yul\":3993:4064   */\n      tag_56\n      jump\t// in\n    tag_110:\n        /* \"#utility.yul\":3849:4071   */\n      swap3\n      swap2\n      pop\n      pop\n      jump\t// out\n        /* \"#utility.yul\":4077:4167   */\n    tag_58:\n        /* \"#utility.yul\":4111:4118   */\n      0x00\n        /* \"#utility.yul\":4154:4159   */\n      dup2\n        /* \"#utility.yul\":4147:4160   */\n      iszero\n        /* \"#utility.yul\":4140:4161   */\n      iszero\n        /* \"#utility.yul\":4129:4161   */\n      swap1\n      pop\n        /* \"#utility.yul\":4077:4167   */\n      swap2\n      swap1\n      pop\n      jump\t// out\n        /* \"#utility.yul\":4173:4282   */\n    tag_59:\n        /* \"#utility.yul\":4254:4275   */\n      tag_113\n        /* \"#utility.yul\":4269:4274   */\n      dup2\n        /* \"#utility.yul\":4254:4275   */\n      tag_58\n      jump\t// in\n    tag_113:\n        /* \"#utility.yul\":4249:4252   */\n      dup3\n        /* \"#utility.yul\":4242:4276   */\n      mstore\n        /* \"#utility.yul\":4173:4282   */\n      pop\n      pop\n      jump\t// out\n        /* \"#utility.yul\":4288:4498   */\n    tag_29:\n        /* \"#utility.yul\":4375:4379   */\n      0x00\n        /* \"#utility.yul\":4413:4415   */\n      0x20\n        /* \"#utility.yul\":4402:4411   */\n      dup3\n        /* \"#utility.yul\":4398:4416   */\n      add\n        /* \"#utility.yul\":4390:4416   */\n      swap1\n      pop\n        /* \"#utility.yul\":4426:4491   */\n      tag_115\n        /* \"#utility.yul\":4488:4489   */\n      0x00\n        /* \"#utility.yul\":4477:4486   */\n      dup4\n        /* \"#utility.yul\":4473:4490   */\n      add\n        /* \"#utility.yul\":4464:4470   */\n      dup5\n        /* \"#utility.yul\":4426:4491   */\n      tag_59\n      jump\t// in\n    tag_115:\n        /* \"#utility.yul\":4288:4498   */\n      swap3\n      swap2\n      pop\n      pop\n      jump\t// out\n        /* \"#utility.yul\":4504:4673   */\n    tag_60:\n        /* \"#utility.yul\":4588:4599   */\n      0x00\n        /* \"#utility.yul\":4622:4628   */\n      dup3\n        /* \"#utility.yul\":4617:4620   */\n      dup3\n        /* \"#utility.yul\":4610:4629   */\n      mstore\n        /* \"#utility.yul\":4662:4666   */\n      0x20\n        /* \"#utility.yul\":4657:4660   */\n      dup3\n        /* \"#utility.yul\":4653:4667   */\n      add\n        /* \"#utility.yul\":4638:4667   */\n      swap1\n      pop\n        /* \"#utility.yul\":4504:4673   */\n      swap3\n      swap2\n      pop\n      pop\n      jump\t// out\n        /* \"#utility.yul\":4679:4855   */\n    tag_61:\n        /* \"#utility.yul\":4819:4847   */\n      0x436865657365506965636520676961272070726573656e746521000000000000\n        /* \"#utility.yul\":4815:4816   */\n      0x00\n        /* \"#utility.yul\":4807:4813   */\n      dup3\n        /* \"#utility.yul\":4803:4817   */\n      add\n        /* \"#utility.yul\":4796:4848   */\n      mstore\n        /* \"#utility.yul\":4679:4855   */\n      pop\n      jump\t// out\n        /* \"#utility.yul\":4861:5227   */\n    tag_62:\n        /* \"#utility.yul\":5003:5006   */\n      0x00\n        /* \"#utility.yul\":5024:5091   */\n      tag_119\n        /* \"#utility.yul\":5088:5090   */\n      0x1a\n        /* \"#utility.yul\":5083:5086   */\n      dup4\n        /* \"#utility.yul\":5024:5091   */\n      tag_60\n      jump\t// in\n    tag_119:\n        /* \"#utility.yul\":5017:5091   */\n      swap2\n      pop\n        /* \"#utility.yul\":5100:5193   */\n      tag_120\n        /* \"#utility.yul\":5189:5192   */\n      dup3\n        /* \"#utility.yul\":5100:5193   */\n      tag_61\n      jump\t// in\n    tag_120:\n        /* \"#utility.yul\":5218:5220   */\n      0x20\n        /* \"#utility.yul\":5213:5216   */\n      dup3\n        /* \"#utility.yul\":5209:5221   */\n      add\n        /* \"#utility.yul\":5202:5221   */\n      swap1\n      pop\n        /* \"#utility.yul\":4861:5227   */\n      swap2\n      swap1\n      pop\n      jump\t// out\n        /* \"#utility.yul\":5233:5652   */\n    tag_38:\n        /* \"#utility.yul\":5399:5403   */\n      0x00\n        /* \"#utility.yul\":5437:5439   */\n      0x20\n        /* \"#utility.yul\":5426:5435   */\n      dup3\n        /* \"#utility.yul\":5422:5440   */\n      add\n        /* \"#utility.yul\":5414:5440   */\n      swap1\n      pop\n        /* \"#utility.yul\":5486:5495   */\n      dup2\n        /* \"#utility.yul\":5480:5484   */\n      dup2\n        /* \"#utility.yul\":5476:5496   */\n      sub\n        /* \"#utility.yul\":5472:5473   */\n      0x00\n        /* \"#utility.yul\":5461:5470   */\n      dup4\n        /* \"#utility.yul\":5457:5474   */\n      add\n        /* \"#utility.yul\":5450:5497   */\n      mstore\n        /* \"#utility.yul\":5514:5645   */\n      tag_122\n        /* \"#utility.yul\":5640:5644   */\n      dup2\n        /* \"#utility.yul\":5514:5645   */\n      tag_62\n      jump\t// in\n    tag_122:\n        /* \"#utility.yul\":5506:5645   */\n      swap1\n      pop\n        /* \"#utility.yul\":5233:5652   */\n      swap2\n      swap1\n      pop\n      jump\t// out\n        /* \"#utility.yul\":5658:5833   */\n    tag_63:\n        /* \"#utility.yul\":5798:5825   */\n      0x4944204368656573655069656365204e6f742056616c69642100000000000000\n        /* \"#utility.yul\":5794:5795   */\n      0x00\n        /* \"#utility.yul\":5786:5792   */\n      dup3\n        /* \"#utility.yul\":5782:5796   */\n      add\n        /* \"#utility.yul\":5775:5826   */\n      mstore\n        /* \"#utility.yul\":5658:5833   */\n      pop\n      jump\t// out\n        /* \"#utility.yul\":5839:6205   */\n    tag_64:\n        /* \"#utility.yul\":5981:5984   */\n      0x00\n        /* \"#utility.yul\":6002:6069   */\n      tag_125\n        /* \"#utility.yul\":6066:6068   */\n      0x19\n        /* \"#utility.yul\":6061:6064   */\n      dup4\n        /* \"#utility.yul\":6002:6069   */\n      tag_60\n      jump\t// in\n    tag_125:\n        /* \"#utility.yul\":5995:6069   */\n      swap2\n      pop\n        /* \"#utility.yul\":6078:6171   */\n      tag_126\n        /* \"#utility.yul\":6167:6170   */\n      dup3\n        /* \"#utility.yul\":6078:6171   */\n      tag_63\n      jump\t// in\n    tag_126:\n        /* \"#utility.yul\":6196:6198   */\n      0x20\n        /* \"#utility.yul\":6191:6194   */\n      dup3\n        /* \"#utility.yul\":6187:6199   */\n      add\n        /* \"#utility.yul\":6180:6199   */\n      swap1\n      pop\n        /* \"#utility.yul\":5839:6205   */\n      swap2\n      swap1\n      pop\n      jump\t// out\n        /* \"#utility.yul\":6211:6630   */\n    tag_44:\n        /* \"#utility.yul\":6377:6381   */\n      0x00\n        /* \"#utility.yul\":6415:6417   */\n      0x20\n        /* \"#utility.yul\":6404:6413   */\n      dup3\n        /* \"#utility.yul\":6400:6418   */\n      add\n        /* \"#utility.yul\":6392:6418   */\n      swap1\n      pop\n        /* \"#utility.yul\":6464:6473   */\n      dup2\n        /* \"#utility.yul\":6458:6462   */\n      dup2\n        /* \"#utility.yul\":6454:6474   */\n      sub\n        /* \"#utility.yul\":6450:6451   */\n      0x00\n        /* \"#utility.yul\":6439:6448   */\n      dup4\n        /* \"#utility.yul\":6435:6452   */\n      add\n        /* \"#utility.yul\":6428:6475   */\n      mstore\n        /* \"#utility.yul\":6492:6623   */\n      tag_128\n        /* \"#utility.yul\":6618:6622   */\n      dup2\n        /* \"#utility.yul\":6492:6623   */\n      tag_64\n      jump\t// in\n    tag_128:\n        /* \"#utility.yul\":6484:6623   */\n      swap1\n      pop\n        /* \"#utility.yul\":6211:6630   */\n      swap2\n      swap1\n      pop\n      jump\t// out\n\n    auxdata: 0xa2646970667358221220ff229fe58ee13c6366168eb314c8f4379d5ee9920c1dd1817768be7dc0fa17d764736f6c63430008160033\n}\n",
				"bytecode": {
					"linkReferences": {},
					"object": "608060405234801561000f575f80fd5b50335f806101000a81548173ffffffffffffffffffffffffffffffffffffffff021916908373ffffffffffffffffffffffffffffffffffffffff1602179055506109608061005c5f395ff3fe608060405234801561000f575f80fd5b5060043610610055575f3560e01c80630b7aa47314610059578063210744cf1461008c578063449e815d146100be5780639bc7c21c146100ee578063afd47d3e1461011e575b5f80fd5b610073600480360381019061006e91906106b3565b61014e565b604051610083949392919061070f565b60405180910390f35b6100a660048036038101906100a19190610752565b610243565b6040516100b5939291906107c9565b60405180910390f35b6100d860048036038101906100d391906106b3565b6104c8565b6040516100e591906107fe565b60405180910390f35b610108600480360381019061010391906106b3565b610521565b6040516101159190610831565b60405180910390f35b610138600480360381019061013391906106b3565b6105c9565b60405161014591906107fe565b60405180910390f35b5f805f805f60015f8873ffffffffffffffffffffffffffffffffffffffff1673ffffffffffffffffffffffffffffffffffffffff1681526020019081526020015f205f8781526020019081526020015f206040518060800160405290815f8201548152602001600182015f9054906101000a900473ffffffffffffffffffffffffffffffffffffffff1673ffffffffffffffffffffffffffffffffffffffff1673ffffffffffffffffffffffffffffffffffffffff168152602001600282015481526020016003820154815250509050805f015181602001518260400151836060015194509450945094505092959194509250565b5f805f8060015f8a73ffffffffffffffffffffffffffffffffffffffff1673ffffffffffffffffffffffffffffffffffffffff1681526020019081526020015f205f8881526020019081526020015f2090505f815f0154146102da576040517f08c379a00000000000000000000000000000000000000000000000000000000081526004016102d1906108a4565b60405180910390fd5b5f60405180608001604052808981526020018a73ffffffffffffffffffffffffffffffffffffffff1681526020018881526020018781525090508060015f8c73ffffffffffffffffffffffffffffffffffffffff1673ffffffffffffffffffffffffffffffffffffffff1681526020019081526020015f205f8a81526020019081526020015f205f820151815f01556020820151816001015f6101000a81548173ffffffffffffffffffffffffffffffffffffffff021916908373ffffffffffffffffffffffffffffffffffffffff160217905550604082015181600201556060820151816003015590505060015f8b73ffffffffffffffffffffffffffffffffffffffff1673ffffffffffffffffffffffffffffffffffffffff1681526020019081526020015f205f8981526020019081526020015f205f015460015f8c73ffffffffffffffffffffffffffffffffffffffff1673ffffffffffffffffffffffffffffffffffffffff1681526020019081526020015f205f8a81526020019081526020015f206002015460015f8d73ffffffffffffffffffffffffffffffffffffffff1673ffffffffffffffffffffffffffffffffffffffff1681526020019081526020015f205f8b81526020019081526020015f20600301549450945094505050955095509592505050565b5f60015f8473ffffffffffffffffffffffffffffffffffffffff1673ffffffffffffffffffffffffffffffffffffffff1681526020019081526020015f205f8381526020019081526020015f2060020154905092915050565b5f80821415801561053157505f82115b610570576040517f08c379a00000000000000000000000000000000000000000000000000000000081526004016105679061090c565b60405180910390fd5b8160015f8573ffffffffffffffffffffffffffffffffffffffff1673ffffffffffffffffffffffffffffffffffffffff1681526020019081526020015f205f8481526020019081526020015f205f015414905092915050565b5f60015f8473ffffffffffffffffffffffffffffffffffffffff1673ffffffffffffffffffffffffffffffffffffffff1681526020019081526020015f205f8381526020019081526020015f2060030154905092915050565b5f80fd5b5f73ffffffffffffffffffffffffffffffffffffffff82169050919050565b5f61064f82610626565b9050919050565b61065f81610645565b8114610669575f80fd5b50565b5f8135905061067a81610656565b92915050565b5f819050919050565b61069281610680565b811461069c575f80fd5b50565b5f813590506106ad81610689565b92915050565b5f80604083850312156106c9576106c8610622565b5b5f6106d68582860161066c565b92505060206106e78582860161069f565b9150509250929050565b6106fa81610680565b82525050565b61070981610645565b82525050565b5f6080820190506107225f8301876106f1565b61072f6020830186610700565b61073c60408301856106f1565b61074960608301846106f1565b95945050505050565b5f805f805f60a0868803121561076b5761076a610622565b5b5f6107788882890161066c565b95505060206107898882890161066c565b945050604061079a8882890161069f565b93505060606107ab8882890161069f565b92505060806107bc8882890161069f565b9150509295509295909350565b5f6060820190506107dc5f8301866106f1565b6107e960208301856106f1565b6107f660408301846106f1565b949350505050565b5f6020820190506108115f8301846106f1565b92915050565b5f8115159050919050565b61082b81610817565b82525050565b5f6020820190506108445f830184610822565b92915050565b5f82825260208201905092915050565b7f436865657365506965636520676961272070726573656e7465210000000000005f82015250565b5f61088e601a8361084a565b91506108998261085a565b602082019050919050565b5f6020820190508181035f8301526108bb81610882565b9050919050565b7f4944204368656573655069656365204e6f742056616c696421000000000000005f82015250565b5f6108f660198361084a565b9150610901826108c2565b602082019050919050565b5f6020820190508181035f830152610923816108ea565b905091905056fea2646970667358221220ff229fe58ee13c6366168eb314c8f4379d5ee9920c1dd1817768be7dc0fa17d764736f6c63430008160033",
					"opcodes": "PUSH1 0x80 PUSH1 0x40 MSTORE CALLVALUE DUP1 ISZERO PUSH2 0xF JUMPI PUSH0 DUP1 REVERT JUMPDEST POP CALLER PUSH0 DUP1 PUSH2 0x100 EXP DUP2 SLOAD DUP2 PUSH20 0xFFFFFFFFFFFFFFFFFFFFFFFFFFFFFFFFFFFFFFFF MUL NOT AND SWAP1 DUP4 PUSH20 0xFFFFFFFFFFFFFFFFFFFFFFFFFFFFFFFFFFFFFFFF AND MUL OR SWAP1 SSTORE POP PUSH2 0x960 DUP1 PUSH2 0x5C PUSH0 CODECOPY PUSH0 RETURN INVALID PUSH1 0x80 PUSH1 0x40 MSTORE CALLVALUE DUP1 ISZERO PUSH2 0xF JUMPI PUSH0 DUP1 REVERT JUMPDEST POP PUSH1 0x4 CALLDATASIZE LT PUSH2 0x55 JUMPI PUSH0 CALLDATALOAD PUSH1 0xE0 SHR DUP1 PUSH4 0xB7AA473 EQ PUSH2 0x59 JUMPI DUP1 PUSH4 0x210744CF EQ PUSH2 0x8C JUMPI DUP1 PUSH4 0x449E815D EQ PUSH2 0xBE JUMPI DUP1 PUSH4 0x9BC7C21C EQ PUSH2 0xEE JUMPI DUP1 PUSH4 0xAFD47D3E EQ PUSH2 0x11E JUMPI JUMPDEST PUSH0 DUP1 REVERT JUMPDEST PUSH2 0x73 PUSH1 0x4 DUP1 CALLDATASIZE SUB DUP2 ADD SWAP1 PUSH2 0x6E SWAP2 SWAP1 PUSH2 0x6B3 JUMP JUMPDEST PUSH2 0x14E JUMP JUMPDEST PUSH1 0x40 MLOAD PUSH2 0x83 SWAP5 SWAP4 SWAP3 SWAP2 SWAP1 PUSH2 0x70F JUMP JUMPDEST PUSH1 0x40 MLOAD DUP1 SWAP2 SUB SWAP1 RETURN JUMPDEST PUSH2 0xA6 PUSH1 0x4 DUP1 CALLDATASIZE SUB DUP2 ADD SWAP1 PUSH2 0xA1 SWAP2 SWAP1 PUSH2 0x752 JUMP JUMPDEST PUSH2 0x243 JUMP JUMPDEST PUSH1 0x40 MLOAD PUSH2 0xB5 SWAP4 SWAP3 SWAP2 SWAP1 PUSH2 0x7C9 JUMP JUMPDEST PUSH1 0x40 MLOAD DUP1 SWAP2 SUB SWAP1 RETURN JUMPDEST PUSH2 0xD8 PUSH1 0x4 DUP1 CALLDATASIZE SUB DUP2 ADD SWAP1 PUSH2 0xD3 SWAP2 SWAP1 PUSH2 0x6B3 JUMP JUMPDEST PUSH2 0x4C8 JUMP JUMPDEST PUSH1 0x40 MLOAD PUSH2 0xE5 SWAP2 SWAP1 PUSH2 0x7FE JUMP JUMPDEST PUSH1 0x40 MLOAD DUP1 SWAP2 SUB SWAP1 RETURN JUMPDEST PUSH2 0x108 PUSH1 0x4 DUP1 CALLDATASIZE SUB DUP2 ADD SWAP1 PUSH2 0x103 SWAP2 SWAP1 PUSH2 0x6B3 JUMP JUMPDEST PUSH2 0x521 JUMP JUMPDEST PUSH1 0x40 MLOAD PUSH2 0x115 SWAP2 SWAP1 PUSH2 0x831 JUMP JUMPDEST PUSH1 0x40 MLOAD DUP1 SWAP2 SUB SWAP1 RETURN JUMPDEST PUSH2 0x138 PUSH1 0x4 DUP1 CALLDATASIZE SUB DUP2 ADD SWAP1 PUSH2 0x133 SWAP2 SWAP1 PUSH2 0x6B3 JUMP JUMPDEST PUSH2 0x5C9 JUMP JUMPDEST PUSH1 0x40 MLOAD PUSH2 0x145 SWAP2 SWAP1 PUSH2 0x7FE JUMP JUMPDEST PUSH1 0x40 MLOAD DUP1 SWAP2 SUB SWAP1 RETURN JUMPDEST PUSH0 DUP1 PUSH0 DUP1 PUSH0 PUSH1 0x1 PUSH0 DUP9 PUSH20 0xFFFFFFFFFFFFFFFFFFFFFFFFFFFFFFFFFFFFFFFF AND PUSH20 0xFFFFFFFFFFFFFFFFFFFFFFFFFFFFFFFFFFFFFFFF AND DUP2 MSTORE PUSH1 0x20 ADD SWAP1 DUP2 MSTORE PUSH1 0x20 ADD PUSH0 KECCAK256 PUSH0 DUP8 DUP2 MSTORE PUSH1 0x20 ADD SWAP1 DUP2 MSTORE PUSH1 0x20 ADD PUSH0 KECCAK256 PUSH1 0x40 MLOAD DUP1 PUSH1 0x80 ADD PUSH1 0x40 MSTORE SWAP1 DUP2 PUSH0 DUP3 ADD SLOAD DUP2 MSTORE PUSH1 0x20 ADD PUSH1 0x1 DUP3 ADD PUSH0 SWAP1 SLOAD SWAP1 PUSH2 0x100 EXP SWAP1 DIV PUSH20 0xFFFFFFFFFFFFFFFFFFFFFFFFFFFFFFFFFFFFFFFF AND PUSH20 0xFFFFFFFFFFFFFFFFFFFFFFFFFFFFFFFFFFFFFFFF AND PUSH20 0xFFFFFFFFFFFFFFFFFFFFFFFFFFFFFFFFFFFFFFFF AND DUP2 MSTORE PUSH1 0x20 ADD PUSH1 0x2 DUP3 ADD SLOAD DUP2 MSTORE PUSH1 0x20 ADD PUSH1 0x3 DUP3 ADD SLOAD DUP2 MSTORE POP POP SWAP1 POP DUP1 PUSH0 ADD MLOAD DUP2 PUSH1 0x20 ADD MLOAD DUP3 PUSH1 0x40 ADD MLOAD DUP4 PUSH1 0x60 ADD MLOAD SWAP5 POP SWAP5 POP SWAP5 POP SWAP5 POP POP SWAP3 SWAP6 SWAP2 SWAP5 POP SWAP3 POP JUMP JUMPDEST PUSH0 DUP1 PUSH0 DUP1 PUSH1 0x1 PUSH0 DUP11 PUSH20 0xFFFFFFFFFFFFFFFFFFFFFFFFFFFFFFFFFFFFFFFF AND PUSH20 0xFFFFFFFFFFFFFFFFFFFFFFFFFFFFFFFFFFFFFFFF AND DUP2 MSTORE PUSH1 0x20 ADD SWAP1 DUP2 MSTORE PUSH1 0x20 ADD PUSH0 KECCAK256 PUSH0 DUP9 DUP2 MSTORE PUSH1 0x20 ADD SWAP1 DUP2 MSTORE PUSH1 0x20 ADD PUSH0 KECCAK256 SWAP1 POP PUSH0 DUP2 PUSH0 ADD SLOAD EQ PUSH2 0x2DA JUMPI PUSH1 0x40 MLOAD PUSH32 0x8C379A000000000000000000000000000000000000000000000000000000000 DUP2 MSTORE PUSH1 0x4 ADD PUSH2 0x2D1 SWAP1 PUSH2 0x8A4 JUMP JUMPDEST PUSH1 0x40 MLOAD DUP1 SWAP2 SUB SWAP1 REVERT JUMPDEST PUSH0 PUSH1 0x40 MLOAD DUP1 PUSH1 0x80 ADD PUSH1 0x40 MSTORE DUP1 DUP10 DUP2 MSTORE PUSH1 0x20 ADD DUP11 PUSH20 0xFFFFFFFFFFFFFFFFFFFFFFFFFFFFFFFFFFFFFFFF AND DUP2 MSTORE PUSH1 0x20 ADD DUP9 DUP2 MSTORE PUSH1 0x20 ADD DUP8 DUP2 MSTORE POP SWAP1 POP DUP1 PUSH1 0x1 PUSH0 DUP13 PUSH20 0xFFFFFFFFFFFFFFFFFFFFFFFFFFFFFFFFFFFFFFFF AND PUSH20 0xFFFFFFFFFFFFFFFFFFFFFFFFFFFFFFFFFFFFFFFF AND DUP2 MSTORE PUSH1 0x20 ADD SWAP1 DUP2 MSTORE PUSH1 0x20 ADD PUSH0 KECCAK256 PUSH0 DUP11 DUP2 MSTORE PUSH1 0x20 ADD SWAP1 DUP2 MSTORE PUSH1 0x20 ADD PUSH0 KECCAK256 PUSH0 DUP3 ADD MLOAD DUP2 PUSH0 ADD SSTORE PUSH1 0x20 DUP3 ADD MLOAD DUP2 PUSH1 0x1 ADD PUSH0 PUSH2 0x100 EXP DUP2 SLOAD DUP2 PUSH20 0xFFFFFFFFFFFFFFFFFFFFFFFFFFFFFFFFFFFFFFFF MUL NOT AND SWAP1 DUP4 PUSH20 0xFFFFFFFFFFFFFFFFFFFFFFFFFFFFFFFFFFFFFFFF AND MUL OR SWAP1 SSTORE POP PUSH1 0x40 DUP3 ADD MLOAD DUP2 PUSH1 0x2 ADD SSTORE PUSH1 0x60 DUP3 ADD MLOAD DUP2 PUSH1 0x3 ADD SSTORE SWAP1 POP POP PUSH1 0x1 PUSH0 DUP12 PUSH20 0xFFFFFFFFFFFFFFFFFFFFFFFFFFFFFFFFFFFFFFFF AND PUSH20 0xFFFFFFFFFFFFFFFFFFFFFFFFFFFFFFFFFFFFFFFF AND DUP2 MSTORE PUSH1 0x20 ADD SWAP1 DUP2 MSTORE PUSH1 0x20 ADD PUSH0 KECCAK256 PUSH0 DUP10 DUP2 MSTORE PUSH1 0x20 ADD SWAP1 DUP2 MSTORE PUSH1 0x20 ADD PUSH0 KECCAK256 PUSH0 ADD SLOAD PUSH1 0x1 PUSH0 DUP13 PUSH20 0xFFFFFFFFFFFFFFFFFFFFFFFFFFFFFFFFFFFFFFFF AND PUSH20 0xFFFFFFFFFFFFFFFFFFFFFFFFFFFFFFFFFFFFFFFF AND DUP2 MSTORE PUSH1 0x20 ADD SWAP1 DUP2 MSTORE PUSH1 0x20 ADD PUSH0 KECCAK256 PUSH0 DUP11 DUP2 MSTORE PUSH1 0x20 ADD SWAP1 DUP2 MSTORE PUSH1 0x20 ADD PUSH0 KECCAK256 PUSH1 0x2 ADD SLOAD PUSH1 0x1 PUSH0 DUP14 PUSH20 0xFFFFFFFFFFFFFFFFFFFFFFFFFFFFFFFFFFFFFFFF AND PUSH20 0xFFFFFFFFFFFFFFFFFFFFFFFFFFFFFFFFFFFFFFFF AND DUP2 MSTORE PUSH1 0x20 ADD SWAP1 DUP2 MSTORE PUSH1 0x20 ADD PUSH0 KECCAK256 PUSH0 DUP12 DUP2 MSTORE PUSH1 0x20 ADD SWAP1 DUP2 MSTORE PUSH1 0x20 ADD PUSH0 KECCAK256 PUSH1 0x3 ADD SLOAD SWAP5 POP SWAP5 POP SWAP5 POP POP POP SWAP6 POP SWAP6 POP SWAP6 SWAP3 POP POP POP JUMP JUMPDEST PUSH0 PUSH1 0x1 PUSH0 DUP5 PUSH20 0xFFFFFFFFFFFFFFFFFFFFFFFFFFFFFFFFFFFFFFFF AND PUSH20 0xFFFFFFFFFFFFFFFFFFFFFFFFFFFFFFFFFFFFFFFF AND DUP2 MSTORE PUSH1 0x20 ADD SWAP1 DUP2 MSTORE PUSH1 0x20 ADD PUSH0 KECCAK256 PUSH0 DUP4 DUP2 MSTORE PUSH1 0x20 ADD SWAP1 DUP2 MSTORE PUSH1 0x20 ADD PUSH0 KECCAK256 PUSH1 0x2 ADD SLOAD SWAP1 POP SWAP3 SWAP2 POP POP JUMP JUMPDEST PUSH0 DUP1 DUP3 EQ ISZERO DUP1 ISZERO PUSH2 0x531 JUMPI POP PUSH0 DUP3 GT JUMPDEST PUSH2 0x570 JUMPI PUSH1 0x40 MLOAD PUSH32 0x8C379A000000000000000000000000000000000000000000000000000000000 DUP2 MSTORE PUSH1 0x4 ADD PUSH2 0x567 SWAP1 PUSH2 0x90C JUMP JUMPDEST PUSH1 0x40 MLOAD DUP1 SWAP2 SUB SWAP1 REVERT JUMPDEST DUP2 PUSH1 0x1 PUSH0 DUP6 PUSH20 0xFFFFFFFFFFFFFFFFFFFFFFFFFFFFFFFFFFFFFFFF AND PUSH20 0xFFFFFFFFFFFFFFFFFFFFFFFFFFFFFFFFFFFFFFFF AND DUP2 MSTORE PUSH1 0x20 ADD SWAP1 DUP2 MSTORE PUSH1 0x20 ADD PUSH0 KECCAK256 PUSH0 DUP5 DUP2 MSTORE PUSH1 0x20 ADD SWAP1 DUP2 MSTORE PUSH1 0x20 ADD PUSH0 KECCAK256 PUSH0 ADD SLOAD EQ SWAP1 POP SWAP3 SWAP2 POP POP JUMP JUMPDEST PUSH0 PUSH1 0x1 PUSH0 DUP5 PUSH20 0xFFFFFFFFFFFFFFFFFFFFFFFFFFFFFFFFFFFFFFFF AND PUSH20 0xFFFFFFFFFFFFFFFFFFFFFFFFFFFFFFFFFFFFFFFF AND DUP2 MSTORE PUSH1 0x20 ADD SWAP1 DUP2 MSTORE PUSH1 0x20 ADD PUSH0 KECCAK256 PUSH0 DUP4 DUP2 MSTORE PUSH1 0x20 ADD SWAP1 DUP2 MSTORE PUSH1 0x20 ADD PUSH0 KECCAK256 PUSH1 0x3 ADD SLOAD SWAP1 POP SWAP3 SWAP2 POP POP JUMP JUMPDEST PUSH0 DUP1 REVERT JUMPDEST PUSH0 PUSH20 0xFFFFFFFFFFFFFFFFFFFFFFFFFFFFFFFFFFFFFFFF DUP3 AND SWAP1 POP SWAP2 SWAP1 POP JUMP JUMPDEST PUSH0 PUSH2 0x64F DUP3 PUSH2 0x626 JUMP JUMPDEST SWAP1 POP SWAP2 SWAP1 POP JUMP JUMPDEST PUSH2 0x65F DUP2 PUSH2 0x645 JUMP JUMPDEST DUP2 EQ PUSH2 0x669 JUMPI PUSH0 DUP1 REVERT JUMPDEST POP JUMP JUMPDEST PUSH0 DUP2 CALLDATALOAD SWAP1 POP PUSH2 0x67A DUP2 PUSH2 0x656 JUMP JUMPDEST SWAP3 SWAP2 POP POP JUMP JUMPDEST PUSH0 DUP2 SWAP1 POP SWAP2 SWAP1 POP JUMP JUMPDEST PUSH2 0x692 DUP2 PUSH2 0x680 JUMP JUMPDEST DUP2 EQ PUSH2 0x69C JUMPI PUSH0 DUP1 REVERT JUMPDEST POP JUMP JUMPDEST PUSH0 DUP2 CALLDATALOAD SWAP1 POP PUSH2 0x6AD DUP2 PUSH2 0x689 JUMP JUMPDEST SWAP3 SWAP2 POP POP JUMP JUMPDEST PUSH0 DUP1 PUSH1 0x40 DUP4 DUP6 SUB SLT ISZERO PUSH2 0x6C9 JUMPI PUSH2 0x6C8 PUSH2 0x622 JUMP JUMPDEST JUMPDEST PUSH0 PUSH2 0x6D6 DUP6 DUP3 DUP7 ADD PUSH2 0x66C JUMP JUMPDEST SWAP3 POP POP PUSH1 0x20 PUSH2 0x6E7 DUP6 DUP3 DUP7 ADD PUSH2 0x69F JUMP JUMPDEST SWAP2 POP POP SWAP3 POP SWAP3 SWAP1 POP JUMP JUMPDEST PUSH2 0x6FA DUP2 PUSH2 0x680 JUMP JUMPDEST DUP3 MSTORE POP POP JUMP JUMPDEST PUSH2 0x709 DUP2 PUSH2 0x645 JUMP JUMPDEST DUP3 MSTORE POP POP JUMP JUMPDEST PUSH0 PUSH1 0x80 DUP3 ADD SWAP1 POP PUSH2 0x722 PUSH0 DUP4 ADD DUP8 PUSH2 0x6F1 JUMP JUMPDEST PUSH2 0x72F PUSH1 0x20 DUP4 ADD DUP7 PUSH2 0x700 JUMP JUMPDEST PUSH2 0x73C PUSH1 0x40 DUP4 ADD DUP6 PUSH2 0x6F1 JUMP JUMPDEST PUSH2 0x749 PUSH1 0x60 DUP4 ADD DUP5 PUSH2 0x6F1 JUMP JUMPDEST SWAP6 SWAP5 POP POP POP POP POP JUMP JUMPDEST PUSH0 DUP1 PUSH0 DUP1 PUSH0 PUSH1 0xA0 DUP7 DUP9 SUB SLT ISZERO PUSH2 0x76B JUMPI PUSH2 0x76A PUSH2 0x622 JUMP JUMPDEST JUMPDEST PUSH0 PUSH2 0x778 DUP9 DUP3 DUP10 ADD PUSH2 0x66C JUMP JUMPDEST SWAP6 POP POP PUSH1 0x20 PUSH2 0x789 DUP9 DUP3 DUP10 ADD PUSH2 0x66C JUMP JUMPDEST SWAP5 POP POP PUSH1 0x40 PUSH2 0x79A DUP9 DUP3 DUP10 ADD PUSH2 0x69F JUMP JUMPDEST SWAP4 POP POP PUSH1 0x60 PUSH2 0x7AB DUP9 DUP3 DUP10 ADD PUSH2 0x69F JUMP JUMPDEST SWAP3 POP POP PUSH1 0x80 PUSH2 0x7BC DUP9 DUP3 DUP10 ADD PUSH2 0x69F JUMP JUMPDEST SWAP2 POP POP SWAP3 SWAP6 POP SWAP3 SWAP6 SWAP1 SWAP4 POP JUMP JUMPDEST PUSH0 PUSH1 0x60 DUP3 ADD SWAP1 POP PUSH2 0x7DC PUSH0 DUP4 ADD DUP7 PUSH2 0x6F1 JUMP JUMPDEST PUSH2 0x7E9 PUSH1 0x20 DUP4 ADD DUP6 PUSH2 0x6F1 JUMP JUMPDEST PUSH2 0x7F6 PUSH1 0x40 DUP4 ADD DUP5 PUSH2 0x6F1 JUMP JUMPDEST SWAP5 SWAP4 POP POP POP POP JUMP JUMPDEST PUSH0 PUSH1 0x20 DUP3 ADD SWAP1 POP PUSH2 0x811 PUSH0 DUP4 ADD DUP5 PUSH2 0x6F1 JUMP JUMPDEST SWAP3 SWAP2 POP POP JUMP JUMPDEST PUSH0 DUP2 ISZERO ISZERO SWAP1 POP SWAP2 SWAP1 POP JUMP JUMPDEST PUSH2 0x82B DUP2 PUSH2 0x817 JUMP JUMPDEST DUP3 MSTORE POP POP JUMP JUMPDEST PUSH0 PUSH1 0x20 DUP3 ADD SWAP1 POP PUSH2 0x844 PUSH0 DUP4 ADD DUP5 PUSH2 0x822 JUMP JUMPDEST SWAP3 SWAP2 POP POP JUMP JUMPDEST PUSH0 DUP3 DUP3 MSTORE PUSH1 0x20 DUP3 ADD SWAP1 POP SWAP3 SWAP2 POP POP JUMP JUMPDEST PUSH32 0x436865657365506965636520676961272070726573656E746521000000000000 PUSH0 DUP3 ADD MSTORE POP JUMP JUMPDEST PUSH0 PUSH2 0x88E PUSH1 0x1A DUP4 PUSH2 0x84A JUMP JUMPDEST SWAP2 POP PUSH2 0x899 DUP3 PUSH2 0x85A JUMP JUMPDEST PUSH1 0x20 DUP3 ADD SWAP1 POP SWAP2 SWAP1 POP JUMP JUMPDEST PUSH0 PUSH1 0x20 DUP3 ADD SWAP1 POP DUP2 DUP2 SUB PUSH0 DUP4 ADD MSTORE PUSH2 0x8BB DUP2 PUSH2 0x882 JUMP JUMPDEST SWAP1 POP SWAP2 SWAP1 POP JUMP JUMPDEST PUSH32 0x4944204368656573655069656365204E6F742056616C69642100000000000000 PUSH0 DUP3 ADD MSTORE POP JUMP JUMPDEST PUSH0 PUSH2 0x8F6 PUSH1 0x19 DUP4 PUSH2 0x84A JUMP JUMPDEST SWAP2 POP PUSH2 0x901 DUP3 PUSH2 0x8C2 JUMP JUMPDEST PUSH1 0x20 DUP3 ADD SWAP1 POP SWAP2 SWAP1 POP JUMP JUMPDEST PUSH0 PUSH1 0x20 DUP3 ADD SWAP1 POP DUP2 DUP2 SUB PUSH0 DUP4 ADD MSTORE PUSH2 0x923 DUP2 PUSH2 0x8EA JUMP JUMPDEST SWAP1 POP SWAP2 SWAP1 POP JUMP INVALID LOG2 PUSH5 0x6970667358 0x22 SLT KECCAK256 SELFDESTRUCT 0x22 SWAP16 0xE5 DUP15 0xE1 EXTCODECOPY PUSH4 0x66168EB3 EQ 0xC8 DELEGATECALL CALLDATACOPY SWAP14 0x5E 0xE9 SWAP3 0xC SAR 0xD1 DUP2 PUSH24 0x68BE7DC0FA17D764736F6C63430008160033000000000000 "
				},
				"gasEstimates": {
					"creation": {
						"codeDepositCost": "480000",
						"executionCost": "24774",
						"totalCost": "504774"
					},
					"external": {
						"addCheesePiece(address,address,uint256,uint256,uint256)": "infinite",
						"getCheesePiece(address,uint256)": "infinite",
						"getPrice(address,uint256)": "infinite",
						"getWeight(address,uint256)": "infinite",
						"isCheesePiecePresent(address,uint256)": "3193"
					}
				},
				"methodIdentifiers": {
					"addCheesePiece(address,address,uint256,uint256,uint256)": "210744cf",
					"getCheesePiece(address,uint256)": "0b7aa473",
					"getPrice(address,uint256)": "449e815d",
					"getWeight(address,uint256)": "afd47d3e",
					"isCheesePiecePresent(address,uint256)": "9bc7c21c"
				}
			},
			"storageLayout": {
				"storage": [
					{
						"astId": 3,
						"contract": "Filiera-Token-SmartContract/contracts/Actor/Consumer-smart-contract/inventory/ConsumerInventoryStorage.sol:ConsumerBuyerInventoryStorage",
						"label": "consumerBuyerOrg",
						"offset": 0,
						"slot": "0",
						"type": "t_address"
					},
					{
						"astId": 28,
						"contract": "Filiera-Token-SmartContract/contracts/Actor/Consumer-smart-contract/inventory/ConsumerInventoryStorage.sol:ConsumerBuyerInventoryStorage",
						"label": "purchasedCheesePieces",
						"offset": 0,
						"slot": "1",
						"type": "t_mapping(t_address,t_mapping(t_uint256,t_struct(CheesePiece)21_storage))"
					}
				],
				"types": {
					"t_address": {
						"encoding": "inplace",
						"label": "address",
						"numberOfBytes": "20"
					},
					"t_mapping(t_address,t_mapping(t_uint256,t_struct(CheesePiece)21_storage))": {
						"encoding": "mapping",
						"key": "t_address",
						"label": "mapping(address => mapping(uint256 => struct ConsumerBuyerInventoryStorage.CheesePiece))",
						"numberOfBytes": "32",
						"value": "t_mapping(t_uint256,t_struct(CheesePiece)21_storage)"
					},
					"t_mapping(t_uint256,t_struct(CheesePiece)21_storage)": {
						"encoding": "mapping",
						"key": "t_uint256",
						"label": "mapping(uint256 => struct ConsumerBuyerInventoryStorage.CheesePiece)",
						"numberOfBytes": "32",
						"value": "t_struct(CheesePiece)21_storage"
					},
					"t_struct(CheesePiece)21_storage": {
						"encoding": "inplace",
						"label": "struct ConsumerBuyerInventoryStorage.CheesePiece",
						"members": [
							{
								"astId": 14,
								"contract": "Filiera-Token-SmartContract/contracts/Actor/Consumer-smart-contract/inventory/ConsumerInventoryStorage.sol:ConsumerBuyerInventoryStorage",
								"label": "id",
								"offset": 0,
								"slot": "0",
								"type": "t_uint256"
							},
							{
								"astId": 16,
								"contract": "Filiera-Token-SmartContract/contracts/Actor/Consumer-smart-contract/inventory/ConsumerInventoryStorage.sol:ConsumerBuyerInventoryStorage",
								"label": "walletRetailer",
								"offset": 0,
								"slot": "1",
								"type": "t_address"
							},
							{
								"astId": 18,
								"contract": "Filiera-Token-SmartContract/contracts/Actor/Consumer-smart-contract/inventory/ConsumerInventoryStorage.sol:ConsumerBuyerInventoryStorage",
								"label": "price",
								"offset": 0,
								"slot": "2",
								"type": "t_uint256"
							},
							{
								"astId": 20,
								"contract": "Filiera-Token-SmartContract/contracts/Actor/Consumer-smart-contract/inventory/ConsumerInventoryStorage.sol:ConsumerBuyerInventoryStorage",
								"label": "weight",
								"offset": 0,
								"slot": "3",
								"type": "t_uint256"
							}
						],
						"numberOfBytes": "128"
					},
					"t_uint256": {
						"encoding": "inplace",
						"label": "uint256",
						"numberOfBytes": "32"
					}
				}
			},
			"userdoc": {
				"kind": "user",
				"methods": {},
				"version": 1
			}
		}
	}
}