{
	"contracts/Actor/Consumer-smart-contract/inventory/ConsumerInventoryStorage.sol": {
		"ConsumerInventoryStorage": {
			"abi": [
				{
					"inputs": [],
					"stateMutability": "nonpayable",
					"type": "constructor"
				},
				{
					"inputs": [
						{
							"internalType": "address",
							"name": "_walletRetailer",
							"type": "address"
						},
						{
							"internalType": "address",
							"name": "_walletConsumer",
							"type": "address"
						},
						{
							"internalType": "uint256",
							"name": "_quantity",
							"type": "uint256"
						},
						{
							"internalType": "uint256",
							"name": "_price",
							"type": "uint256"
						}
					],
					"name": "addCheesePiece",
					"outputs": [],
					"stateMutability": "nonpayable",
					"type": "function"
				},
				{
					"inputs": [
						{
							"internalType": "address",
							"name": "walletConsumer",
							"type": "address"
						},
						{
							"internalType": "uint256",
							"name": "_id",
							"type": "uint256"
						}
					],
					"name": "deleteCheesePiece",
					"outputs": [
						{
							"internalType": "bool",
							"name": "value",
							"type": "bool"
						}
					],
					"stateMutability": "nonpayable",
					"type": "function"
				},
				{
					"inputs": [
						{
							"internalType": "address",
							"name": "walletConsumer",
							"type": "address"
						},
						{
							"internalType": "uint256",
							"name": "_id",
							"type": "uint256"
						}
					],
					"name": "getCheesePiece",
					"outputs": [
						{
							"internalType": "uint256",
							"name": "",
							"type": "uint256"
						},
						{
							"internalType": "uint256",
							"name": "",
							"type": "uint256"
						},
						{
							"internalType": "uint256",
							"name": "",
							"type": "uint256"
						}
					],
					"stateMutability": "view",
					"type": "function"
				}
			],
			"devdoc": {
				"kind": "dev",
				"methods": {},
				"version": 1
			},
			"evm": {
				"assembly": "    /* \"contracts/Actor/Consumer-smart-contract/inventory/ConsumerInventoryStorage.sol\":60:2677  contract ConsumerInventoryStorage {... */\n  mstore(0x40, 0x80)\n    /* \"contracts/Actor/Consumer-smart-contract/inventory/ConsumerInventoryStorage.sol\":197:253  constructor(){... */\n  callvalue\n  dup1\n  iszero\n  tag_1\n  jumpi\n  0x00\n  dup1\n  revert\ntag_1:\n  pop\n    /* \"contracts/Actor/Consumer-smart-contract/inventory/ConsumerInventoryStorage.sol\":235:245  msg.sender */\n  caller\n    /* \"contracts/Actor/Consumer-smart-contract/inventory/ConsumerInventoryStorage.sol\":221:232  ConsumerOrg */\n  0x00\n  dup1\n    /* \"contracts/Actor/Consumer-smart-contract/inventory/ConsumerInventoryStorage.sol\":221:245  ConsumerOrg = msg.sender */\n  0x0100\n  exp\n  dup2\n  sload\n  dup2\n  0xffffffffffffffffffffffffffffffffffffffff\n  mul\n  not\n  and\n  swap1\n  dup4\n  0xffffffffffffffffffffffffffffffffffffffff\n  and\n  mul\n  or\n  swap1\n  sstore\n  pop\n    /* \"contracts/Actor/Consumer-smart-contract/inventory/ConsumerInventoryStorage.sol\":60:2677  contract ConsumerInventoryStorage {... */\n  dataSize(sub_0)\n  dup1\n  dataOffset(sub_0)\n  0x00\n  codecopy\n  0x00\n  return\nstop\n\nsub_0: assembly {\n        /* \"contracts/Actor/Consumer-smart-contract/inventory/ConsumerInventoryStorage.sol\":60:2677  contract ConsumerInventoryStorage {... */\n      mstore(0x40, 0x80)\n      callvalue\n      dup1\n      iszero\n      tag_1\n      jumpi\n      0x00\n      dup1\n      revert\n    tag_1:\n      pop\n      jumpi(tag_2, lt(calldatasize, 0x04))\n      shr(0xe0, calldataload(0x00))\n      dup1\n      0x0b7aa473\n      eq\n      tag_3\n      jumpi\n      dup1\n      0x348b4c5a\n      eq\n      tag_4\n      jumpi\n      dup1\n      0xba694bd2\n      eq\n      tag_5\n      jumpi\n    tag_2:\n      0x00\n      dup1\n      revert\n        /* \"contracts/Actor/Consumer-smart-contract/inventory/ConsumerInventoryStorage.sol\":1410:1795  function getCheesePiece(address walletConsumer, uint256 _id) external view returns (uint256, uint256, uint256) {... */\n    tag_3:\n      tag_6\n      0x04\n      dup1\n      calldatasize\n      sub\n      dup2\n      add\n      swap1\n      tag_7\n      swap2\n      swap1\n      tag_8\n      jump\t// in\n    tag_7:\n      tag_9\n      jump\t// in\n    tag_6:\n      mload(0x40)\n      tag_10\n      swap4\n      swap3\n      swap2\n      swap1\n      tag_11\n      jump\t// in\n    tag_10:\n      mload(0x40)\n      dup1\n      swap2\n      sub\n      swap1\n      return\n        /* \"contracts/Actor/Consumer-smart-contract/inventory/ConsumerInventoryStorage.sol\":1803:2674  function deleteCheesePiece(address walletConsumer, uint256 _id) external returns(bool value) {... */\n    tag_4:\n      tag_12\n      0x04\n      dup1\n      calldatasize\n      sub\n      dup2\n      add\n      swap1\n      tag_13\n      swap2\n      swap1\n      tag_8\n      jump\t// in\n    tag_13:\n      tag_14\n      jump\t// in\n    tag_12:\n      mload(0x40)\n      tag_15\n      swap2\n      swap1\n      tag_16\n      jump\t// in\n    tag_15:\n      mload(0x40)\n      dup1\n      swap2\n      sub\n      swap1\n      return\n        /* \"contracts/Actor/Consumer-smart-contract/inventory/ConsumerInventoryStorage.sol\":541:1362  function addCheesePiece(address _walletRetailer,address _walletConsumer, uint256 _quantity, uint256 _price) external {... */\n    tag_5:\n      tag_17\n      0x04\n      dup1\n      calldatasize\n      sub\n      dup2\n      add\n      swap1\n      tag_18\n      swap2\n      swap1\n      tag_19\n      jump\t// in\n    tag_18:\n      tag_20\n      jump\t// in\n    tag_17:\n      stop\n        /* \"contracts/Actor/Consumer-smart-contract/inventory/ConsumerInventoryStorage.sol\":1410:1795  function getCheesePiece(address walletConsumer, uint256 _id) external view returns (uint256, uint256, uint256) {... */\n    tag_9:\n        /* \"contracts/Actor/Consumer-smart-contract/inventory/ConsumerInventoryStorage.sol\":1494:1501  uint256 */\n      0x00\n        /* \"contracts/Actor/Consumer-smart-contract/inventory/ConsumerInventoryStorage.sol\":1503:1510  uint256 */\n      dup1\n        /* \"contracts/Actor/Consumer-smart-contract/inventory/ConsumerInventoryStorage.sol\":1512:1519  uint256 */\n      0x00\n        /* \"contracts/Actor/Consumer-smart-contract/inventory/ConsumerInventoryStorage.sol\":1583:1586  _id */\n      dup4\n        /* \"contracts/Actor/Consumer-smart-contract/inventory/ConsumerInventoryStorage.sol\":1543:1555  cheesePieces */\n      0x01\n        /* \"contracts/Actor/Consumer-smart-contract/inventory/ConsumerInventoryStorage.sol\":1543:1571  cheesePieces[walletConsumer] */\n      0x00\n        /* \"contracts/Actor/Consumer-smart-contract/inventory/ConsumerInventoryStorage.sol\":1556:1570  walletConsumer */\n      dup8\n        /* \"contracts/Actor/Consumer-smart-contract/inventory/ConsumerInventoryStorage.sol\":1543:1571  cheesePieces[walletConsumer] */\n      0xffffffffffffffffffffffffffffffffffffffff\n      and\n      0xffffffffffffffffffffffffffffffffffffffff\n      and\n      dup2\n      mstore\n      0x20\n      add\n      swap1\n      dup2\n      mstore\n      0x20\n      add\n      0x00\n      keccak256\n        /* \"contracts/Actor/Consumer-smart-contract/inventory/ConsumerInventoryStorage.sol\":1543:1576  cheesePieces[walletConsumer][_id] */\n      0x00\n        /* \"contracts/Actor/Consumer-smart-contract/inventory/ConsumerInventoryStorage.sol\":1572:1575  _id */\n      dup7\n        /* \"contracts/Actor/Consumer-smart-contract/inventory/ConsumerInventoryStorage.sol\":1543:1576  cheesePieces[walletConsumer][_id] */\n      dup2\n      mstore\n      0x20\n      add\n      swap1\n      dup2\n      mstore\n      0x20\n      add\n      0x00\n      keccak256\n        /* \"contracts/Actor/Consumer-smart-contract/inventory/ConsumerInventoryStorage.sol\":1543:1579  cheesePieces[walletConsumer][_id].id */\n      0x00\n      add\n      sload\n        /* \"contracts/Actor/Consumer-smart-contract/inventory/ConsumerInventoryStorage.sol\":1543:1586  cheesePieces[walletConsumer][_id].id == _id */\n      eq\n        /* \"contracts/Actor/Consumer-smart-contract/inventory/ConsumerInventoryStorage.sol\":1534:1621  require( cheesePieces[walletConsumer][_id].id == _id, \"Partita di Latte non presente!\") */\n      tag_22\n      jumpi\n      mload(0x40)\n      0x08c379a000000000000000000000000000000000000000000000000000000000\n      dup2\n      mstore\n      0x04\n      add\n      tag_23\n      swap1\n      tag_24\n      jump\t// in\n    tag_23:\n      mload(0x40)\n      dup1\n      swap2\n      sub\n      swap1\n      revert\n    tag_22:\n        /* \"contracts/Actor/Consumer-smart-contract/inventory/ConsumerInventoryStorage.sol\":1634:1664  CheesePiece memory cheesePiece */\n      0x00\n        /* \"contracts/Actor/Consumer-smart-contract/inventory/ConsumerInventoryStorage.sol\":1667:1679  cheesePieces */\n      0x01\n        /* \"contracts/Actor/Consumer-smart-contract/inventory/ConsumerInventoryStorage.sol\":1667:1695  cheesePieces[walletConsumer] */\n      0x00\n        /* \"contracts/Actor/Consumer-smart-contract/inventory/ConsumerInventoryStorage.sol\":1680:1694  walletConsumer */\n      dup8\n        /* \"contracts/Actor/Consumer-smart-contract/inventory/ConsumerInventoryStorage.sol\":1667:1695  cheesePieces[walletConsumer] */\n      0xffffffffffffffffffffffffffffffffffffffff\n      and\n      0xffffffffffffffffffffffffffffffffffffffff\n      and\n      dup2\n      mstore\n      0x20\n      add\n      swap1\n      dup2\n      mstore\n      0x20\n      add\n      0x00\n      keccak256\n        /* \"contracts/Actor/Consumer-smart-contract/inventory/ConsumerInventoryStorage.sol\":1667:1700  cheesePieces[walletConsumer][_id] */\n      0x00\n        /* \"contracts/Actor/Consumer-smart-contract/inventory/ConsumerInventoryStorage.sol\":1696:1699  _id */\n      dup7\n        /* \"contracts/Actor/Consumer-smart-contract/inventory/ConsumerInventoryStorage.sol\":1667:1700  cheesePieces[walletConsumer][_id] */\n      dup2\n      mstore\n      0x20\n      add\n      swap1\n      dup2\n      mstore\n      0x20\n      add\n      0x00\n      keccak256\n        /* \"contracts/Actor/Consumer-smart-contract/inventory/ConsumerInventoryStorage.sol\":1634:1700  CheesePiece memory cheesePiece = cheesePieces[walletConsumer][_id] */\n      mload(0x40)\n      dup1\n      0x80\n      add\n      0x40\n      mstore\n      swap1\n      dup2\n      0x00\n      dup3\n      add\n      sload\n      dup2\n      mstore\n      0x20\n      add\n      0x01\n      dup3\n      add\n      sload\n      dup2\n      mstore\n      0x20\n      add\n      0x02\n      dup3\n      add\n      sload\n      dup2\n      mstore\n      0x20\n      add\n      0x03\n      dup3\n      add\n      0x00\n      swap1\n      sload\n      swap1\n      0x0100\n      exp\n      swap1\n      div\n      0xffffffffffffffffffffffffffffffffffffffff\n      and\n      0xffffffffffffffffffffffffffffffffffffffff\n      and\n      0xffffffffffffffffffffffffffffffffffffffff\n      and\n      dup2\n      mstore\n      pop\n      pop\n      swap1\n      pop\n        /* \"contracts/Actor/Consumer-smart-contract/inventory/ConsumerInventoryStorage.sol\":1721:1732  cheesePiece */\n      dup1\n        /* \"contracts/Actor/Consumer-smart-contract/inventory/ConsumerInventoryStorage.sol\":1721:1735  cheesePiece.id */\n      0x00\n      add\n      mload\n        /* \"contracts/Actor/Consumer-smart-contract/inventory/ConsumerInventoryStorage.sol\":1737:1748  cheesePiece */\n      dup2\n        /* \"contracts/Actor/Consumer-smart-contract/inventory/ConsumerInventoryStorage.sol\":1737:1762  cheesePiece.quantityTotal */\n      0x20\n      add\n      mload\n        /* \"contracts/Actor/Consumer-smart-contract/inventory/ConsumerInventoryStorage.sol\":1764:1775  cheesePiece */\n      dup3\n        /* \"contracts/Actor/Consumer-smart-contract/inventory/ConsumerInventoryStorage.sol\":1764:1786  cheesePiece.pricePerKg */\n      0x40\n      add\n      mload\n        /* \"contracts/Actor/Consumer-smart-contract/inventory/ConsumerInventoryStorage.sol\":1713:1787  return (cheesePiece.id, cheesePiece.quantityTotal, cheesePiece.pricePerKg) */\n      swap4\n      pop\n      swap4\n      pop\n      swap4\n      pop\n      pop\n        /* \"contracts/Actor/Consumer-smart-contract/inventory/ConsumerInventoryStorage.sol\":1410:1795  function getCheesePiece(address walletConsumer, uint256 _id) external view returns (uint256, uint256, uint256) {... */\n      swap3\n      pop\n      swap3\n      pop\n      swap3\n      jump\t// out\n        /* \"contracts/Actor/Consumer-smart-contract/inventory/ConsumerInventoryStorage.sol\":1803:2674  function deleteCheesePiece(address walletConsumer, uint256 _id) external returns(bool value) {... */\n    tag_14:\n        /* \"contracts/Actor/Consumer-smart-contract/inventory/ConsumerInventoryStorage.sol\":1884:1894  bool value */\n      0x00\n        /* \"contracts/Actor/Consumer-smart-contract/inventory/ConsumerInventoryStorage.sol\":1957:1958  0 */\n      dup1\n        /* \"contracts/Actor/Consumer-smart-contract/inventory/ConsumerInventoryStorage.sol\":1917:1929  cheesePieces */\n      0x01\n        /* \"contracts/Actor/Consumer-smart-contract/inventory/ConsumerInventoryStorage.sol\":1917:1945  cheesePieces[walletConsumer] */\n      0x00\n        /* \"contracts/Actor/Consumer-smart-contract/inventory/ConsumerInventoryStorage.sol\":1930:1944  walletConsumer */\n      dup6\n        /* \"contracts/Actor/Consumer-smart-contract/inventory/ConsumerInventoryStorage.sol\":1917:1945  cheesePieces[walletConsumer] */\n      0xffffffffffffffffffffffffffffffffffffffff\n      and\n      0xffffffffffffffffffffffffffffffffffffffff\n      and\n      dup2\n      mstore\n      0x20\n      add\n      swap1\n      dup2\n      mstore\n      0x20\n      add\n      0x00\n      keccak256\n        /* \"contracts/Actor/Consumer-smart-contract/inventory/ConsumerInventoryStorage.sol\":1917:1950  cheesePieces[walletConsumer][_id] */\n      0x00\n        /* \"contracts/Actor/Consumer-smart-contract/inventory/ConsumerInventoryStorage.sol\":1946:1949  _id */\n      dup5\n        /* \"contracts/Actor/Consumer-smart-contract/inventory/ConsumerInventoryStorage.sol\":1917:1950  cheesePieces[walletConsumer][_id] */\n      dup2\n      mstore\n      0x20\n      add\n      swap1\n      dup2\n      mstore\n      0x20\n      add\n      0x00\n      keccak256\n        /* \"contracts/Actor/Consumer-smart-contract/inventory/ConsumerInventoryStorage.sol\":1917:1953  cheesePieces[walletConsumer][_id].id */\n      0x00\n      add\n      sload\n        /* \"contracts/Actor/Consumer-smart-contract/inventory/ConsumerInventoryStorage.sol\":1917:1958  cheesePieces[walletConsumer][_id].id != 0 */\n      sub\n        /* \"contracts/Actor/Consumer-smart-contract/inventory/ConsumerInventoryStorage.sol\":1909:1993  require(cheesePieces[walletConsumer][_id].id != 0, \"Partita di Latte non presente!\") */\n      tag_26\n      jumpi\n      mload(0x40)\n      0x08c379a000000000000000000000000000000000000000000000000000000000\n      dup2\n      mstore\n      0x04\n      add\n      tag_27\n      swap1\n      tag_24\n      jump\t// in\n    tag_27:\n      mload(0x40)\n      dup1\n      swap2\n      sub\n      swap1\n      revert\n    tag_26:\n        /* \"contracts/Actor/Consumer-smart-contract/inventory/ConsumerInventoryStorage.sol\":2006:2029  uint256 lastIdMilkBatch */\n      0x00\n        /* \"contracts/Actor/Consumer-smart-contract/inventory/ConsumerInventoryStorage.sol\":2081:2093  cheesePieces */\n      0x01\n        /* \"contracts/Actor/Consumer-smart-contract/inventory/ConsumerInventoryStorage.sol\":2081:2109  cheesePieces[walletConsumer] */\n      0x00\n        /* \"contracts/Actor/Consumer-smart-contract/inventory/ConsumerInventoryStorage.sol\":2094:2108  walletConsumer */\n      dup6\n        /* \"contracts/Actor/Consumer-smart-contract/inventory/ConsumerInventoryStorage.sol\":2081:2109  cheesePieces[walletConsumer] */\n      0xffffffffffffffffffffffffffffffffffffffff\n      and\n      0xffffffffffffffffffffffffffffffffffffffff\n      and\n      dup2\n      mstore\n      0x20\n      add\n      swap1\n      dup2\n      mstore\n      0x20\n      add\n      0x00\n      keccak256\n        /* \"contracts/Actor/Consumer-smart-contract/inventory/ConsumerInventoryStorage.sol\":2081:2114  cheesePieces[walletConsumer][_id] */\n      0x00\n        /* \"contracts/Actor/Consumer-smart-contract/inventory/ConsumerInventoryStorage.sol\":2110:2113  _id */\n      dup5\n        /* \"contracts/Actor/Consumer-smart-contract/inventory/ConsumerInventoryStorage.sol\":2081:2114  cheesePieces[walletConsumer][_id] */\n      dup2\n      mstore\n      0x20\n      add\n      swap1\n      dup2\n      mstore\n      0x20\n      add\n      0x00\n      keccak256\n        /* \"contracts/Actor/Consumer-smart-contract/inventory/ConsumerInventoryStorage.sol\":2081:2128  cheesePieces[walletConsumer][_id].quantityTotal */\n      0x01\n      add\n      sload\n        /* \"contracts/Actor/Consumer-smart-contract/inventory/ConsumerInventoryStorage.sol\":2143:2155  cheesePieces */\n      0x01\n        /* \"contracts/Actor/Consumer-smart-contract/inventory/ConsumerInventoryStorage.sol\":2143:2171  cheesePieces[walletConsumer] */\n      0x00\n        /* \"contracts/Actor/Consumer-smart-contract/inventory/ConsumerInventoryStorage.sol\":2156:2170  walletConsumer */\n      dup7\n        /* \"contracts/Actor/Consumer-smart-contract/inventory/ConsumerInventoryStorage.sol\":2143:2171  cheesePieces[walletConsumer] */\n      0xffffffffffffffffffffffffffffffffffffffff\n      and\n      0xffffffffffffffffffffffffffffffffffffffff\n      and\n      dup2\n      mstore\n      0x20\n      add\n      swap1\n      dup2\n      mstore\n      0x20\n      add\n      0x00\n      keccak256\n        /* \"contracts/Actor/Consumer-smart-contract/inventory/ConsumerInventoryStorage.sol\":2143:2176  cheesePieces[walletConsumer][_id] */\n      0x00\n        /* \"contracts/Actor/Consumer-smart-contract/inventory/ConsumerInventoryStorage.sol\":2172:2175  _id */\n      dup6\n        /* \"contracts/Actor/Consumer-smart-contract/inventory/ConsumerInventoryStorage.sol\":2143:2176  cheesePieces[walletConsumer][_id] */\n      dup2\n      mstore\n      0x20\n      add\n      swap1\n      dup2\n      mstore\n      0x20\n      add\n      0x00\n      keccak256\n        /* \"contracts/Actor/Consumer-smart-contract/inventory/ConsumerInventoryStorage.sol\":2143:2187  cheesePieces[walletConsumer][_id].pricePerKg */\n      0x02\n      add\n      sload\n        /* \"contracts/Actor/Consumer-smart-contract/inventory/ConsumerInventoryStorage.sol\":2202:2214  cheesePieces */\n      0x01\n        /* \"contracts/Actor/Consumer-smart-contract/inventory/ConsumerInventoryStorage.sol\":2202:2230  cheesePieces[walletConsumer] */\n      0x00\n        /* \"contracts/Actor/Consumer-smart-contract/inventory/ConsumerInventoryStorage.sol\":2215:2229  walletConsumer */\n      dup8\n        /* \"contracts/Actor/Consumer-smart-contract/inventory/ConsumerInventoryStorage.sol\":2202:2230  cheesePieces[walletConsumer] */\n      0xffffffffffffffffffffffffffffffffffffffff\n      and\n      0xffffffffffffffffffffffffffffffffffffffff\n      and\n      dup2\n      mstore\n      0x20\n      add\n      swap1\n      dup2\n      mstore\n      0x20\n      add\n      0x00\n      keccak256\n        /* \"contracts/Actor/Consumer-smart-contract/inventory/ConsumerInventoryStorage.sol\":2202:2235  cheesePieces[walletConsumer][_id] */\n      0x00\n        /* \"contracts/Actor/Consumer-smart-contract/inventory/ConsumerInventoryStorage.sol\":2231:2234  _id */\n      dup7\n        /* \"contracts/Actor/Consumer-smart-contract/inventory/ConsumerInventoryStorage.sol\":2202:2235  cheesePieces[walletConsumer][_id] */\n      dup2\n      mstore\n      0x20\n      add\n      swap1\n      dup2\n      mstore\n      0x20\n      add\n      0x00\n      keccak256\n        /* \"contracts/Actor/Consumer-smart-contract/inventory/ConsumerInventoryStorage.sol\":2202:2250  cheesePieces[walletConsumer][_id].walletRetailer */\n      0x03\n      add\n      0x00\n      swap1\n      sload\n      swap1\n      0x0100\n      exp\n      swap1\n      div\n      0xffffffffffffffffffffffffffffffffffffffff\n      and\n        /* \"contracts/Actor/Consumer-smart-contract/inventory/ConsumerInventoryStorage.sol\":2265:2279  walletConsumer */\n      dup7\n        /* \"contracts/Actor/Consumer-smart-contract/inventory/ConsumerInventoryStorage.sol\":2050:2290  abi.encodePacked(... */\n      add(0x20, mload(0x40))\n      tag_28\n      swap5\n      swap4\n      swap3\n      swap2\n      swap1\n      tag_29\n      jump\t// in\n    tag_28:\n      mload(0x40)\n      0x20\n      dup2\n      dup4\n      sub\n      sub\n      dup2\n      mstore\n      swap1\n      0x40\n      mstore\n        /* \"contracts/Actor/Consumer-smart-contract/inventory/ConsumerInventoryStorage.sol\":2040:2291  keccak256(abi.encodePacked(... */\n      dup1\n      mload\n      swap1\n      0x20\n      add\n      keccak256\n        /* \"contracts/Actor/Consumer-smart-contract/inventory/ConsumerInventoryStorage.sol\":2032:2292  uint256(keccak256(abi.encodePacked(... */\n      0x00\n      shr\n        /* \"contracts/Actor/Consumer-smart-contract/inventory/ConsumerInventoryStorage.sol\":2006:2292  uint256 lastIdMilkBatch = uint256(keccak256(abi.encodePacked(... */\n      swap1\n      pop\n        /* \"contracts/Actor/Consumer-smart-contract/inventory/ConsumerInventoryStorage.sol\":2353:2368  lastIdMilkBatch */\n      dup1\n        /* \"contracts/Actor/Consumer-smart-contract/inventory/ConsumerInventoryStorage.sol\":2313:2325  cheesePieces */\n      0x01\n        /* \"contracts/Actor/Consumer-smart-contract/inventory/ConsumerInventoryStorage.sol\":2313:2341  cheesePieces[walletConsumer] */\n      0x00\n        /* \"contracts/Actor/Consumer-smart-contract/inventory/ConsumerInventoryStorage.sol\":2326:2340  walletConsumer */\n      dup7\n        /* \"contracts/Actor/Consumer-smart-contract/inventory/ConsumerInventoryStorage.sol\":2313:2341  cheesePieces[walletConsumer] */\n      0xffffffffffffffffffffffffffffffffffffffff\n      and\n      0xffffffffffffffffffffffffffffffffffffffff\n      and\n      dup2\n      mstore\n      0x20\n      add\n      swap1\n      dup2\n      mstore\n      0x20\n      add\n      0x00\n      keccak256\n        /* \"contracts/Actor/Consumer-smart-contract/inventory/ConsumerInventoryStorage.sol\":2313:2346  cheesePieces[walletConsumer][_id] */\n      0x00\n        /* \"contracts/Actor/Consumer-smart-contract/inventory/ConsumerInventoryStorage.sol\":2342:2345  _id */\n      dup6\n        /* \"contracts/Actor/Consumer-smart-contract/inventory/ConsumerInventoryStorage.sol\":2313:2346  cheesePieces[walletConsumer][_id] */\n      dup2\n      mstore\n      0x20\n      add\n      swap1\n      dup2\n      mstore\n      0x20\n      add\n      0x00\n      keccak256\n        /* \"contracts/Actor/Consumer-smart-contract/inventory/ConsumerInventoryStorage.sol\":2313:2349  cheesePieces[walletConsumer][_id].id */\n      0x00\n      add\n      sload\n        /* \"contracts/Actor/Consumer-smart-contract/inventory/ConsumerInventoryStorage.sol\":2313:2368  cheesePieces[walletConsumer][_id].id == lastIdMilkBatch */\n      eq\n        /* \"contracts/Actor/Consumer-smart-contract/inventory/ConsumerInventoryStorage.sol\":2305:2396  require(cheesePieces[walletConsumer][_id].id == lastIdMilkBatch, \"Utente non Autorizzato!\") */\n      tag_30\n      jumpi\n      mload(0x40)\n      0x08c379a000000000000000000000000000000000000000000000000000000000\n      dup2\n      mstore\n      0x04\n      add\n      tag_31\n      swap1\n      tag_32\n      jump\t// in\n    tag_31:\n      mload(0x40)\n      dup1\n      swap2\n      sub\n      swap1\n      revert\n    tag_30:\n        /* \"contracts/Actor/Consumer-smart-contract/inventory/ConsumerInventoryStorage.sol\":2449:2461  cheesePieces */\n      0x01\n        /* \"contracts/Actor/Consumer-smart-contract/inventory/ConsumerInventoryStorage.sol\":2449:2477  cheesePieces[walletConsumer] */\n      0x00\n        /* \"contracts/Actor/Consumer-smart-contract/inventory/ConsumerInventoryStorage.sol\":2462:2476  walletConsumer */\n      dup6\n        /* \"contracts/Actor/Consumer-smart-contract/inventory/ConsumerInventoryStorage.sol\":2449:2477  cheesePieces[walletConsumer] */\n      0xffffffffffffffffffffffffffffffffffffffff\n      and\n      0xffffffffffffffffffffffffffffffffffffffff\n      and\n      dup2\n      mstore\n      0x20\n      add\n      swap1\n      dup2\n      mstore\n      0x20\n      add\n      0x00\n      keccak256\n        /* \"contracts/Actor/Consumer-smart-contract/inventory/ConsumerInventoryStorage.sol\":2449:2482  cheesePieces[walletConsumer][_id] */\n      0x00\n        /* \"contracts/Actor/Consumer-smart-contract/inventory/ConsumerInventoryStorage.sol\":2478:2481  _id */\n      dup5\n        /* \"contracts/Actor/Consumer-smart-contract/inventory/ConsumerInventoryStorage.sol\":2449:2482  cheesePieces[walletConsumer][_id] */\n      dup2\n      mstore\n      0x20\n      add\n      swap1\n      dup2\n      mstore\n      0x20\n      add\n      0x00\n      keccak256\n      0x00\n        /* \"contracts/Actor/Consumer-smart-contract/inventory/ConsumerInventoryStorage.sol\":2442:2482  delete cheesePieces[walletConsumer][_id] */\n      dup1\n      dup3\n      add\n      0x00\n      swap1\n      sstore\n      0x01\n      dup3\n      add\n      0x00\n      swap1\n      sstore\n      0x02\n      dup3\n      add\n      0x00\n      swap1\n      sstore\n      0x03\n      dup3\n      add\n      exp(0x0100, 0x00)\n      dup2\n      sload\n      swap1\n      0xffffffffffffffffffffffffffffffffffffffff\n      mul\n      not\n      and\n      swap1\n      sstore\n      pop\n      pop\n        /* \"contracts/Actor/Consumer-smart-contract/inventory/ConsumerInventoryStorage.sol\":2583:2584  0 */\n      0x00\n        /* \"contracts/Actor/Consumer-smart-contract/inventory/ConsumerInventoryStorage.sol\":2542:2554  cheesePieces */\n      0x01\n        /* \"contracts/Actor/Consumer-smart-contract/inventory/ConsumerInventoryStorage.sol\":2542:2570  cheesePieces[walletConsumer] */\n      0x00\n        /* \"contracts/Actor/Consumer-smart-contract/inventory/ConsumerInventoryStorage.sol\":2555:2569  walletConsumer */\n      dup7\n        /* \"contracts/Actor/Consumer-smart-contract/inventory/ConsumerInventoryStorage.sol\":2542:2570  cheesePieces[walletConsumer] */\n      0xffffffffffffffffffffffffffffffffffffffff\n      and\n      0xffffffffffffffffffffffffffffffffffffffff\n      and\n      dup2\n      mstore\n      0x20\n      add\n      swap1\n      dup2\n      mstore\n      0x20\n      add\n      0x00\n      keccak256\n        /* \"contracts/Actor/Consumer-smart-contract/inventory/ConsumerInventoryStorage.sol\":2542:2575  cheesePieces[walletConsumer][_id] */\n      0x00\n        /* \"contracts/Actor/Consumer-smart-contract/inventory/ConsumerInventoryStorage.sol\":2571:2574  _id */\n      dup6\n        /* \"contracts/Actor/Consumer-smart-contract/inventory/ConsumerInventoryStorage.sol\":2542:2575  cheesePieces[walletConsumer][_id] */\n      dup2\n      mstore\n      0x20\n      add\n      swap1\n      dup2\n      mstore\n      0x20\n      add\n      0x00\n      keccak256\n        /* \"contracts/Actor/Consumer-smart-contract/inventory/ConsumerInventoryStorage.sol\":2542:2578  cheesePieces[walletConsumer][_id].id */\n      0x00\n      add\n      sload\n        /* \"contracts/Actor/Consumer-smart-contract/inventory/ConsumerInventoryStorage.sol\":2542:2584  cheesePieces[walletConsumer][_id].id  == 0 */\n      sub\n        /* \"contracts/Actor/Consumer-smart-contract/inventory/ConsumerInventoryStorage.sol\":2539:2667  if(cheesePieces[walletConsumer][_id].id  == 0){... */\n      tag_33\n      jumpi\n        /* \"contracts/Actor/Consumer-smart-contract/inventory/ConsumerInventoryStorage.sol\":2607:2611  true */\n      0x01\n        /* \"contracts/Actor/Consumer-smart-contract/inventory/ConsumerInventoryStorage.sol\":2600:2611  return true */\n      swap2\n      pop\n      pop\n      jump(tag_25)\n        /* \"contracts/Actor/Consumer-smart-contract/inventory/ConsumerInventoryStorage.sol\":2539:2667  if(cheesePieces[walletConsumer][_id].id  == 0){... */\n    tag_33:\n        /* \"contracts/Actor/Consumer-smart-contract/inventory/ConsumerInventoryStorage.sol\":2650:2655  false */\n      0x00\n        /* \"contracts/Actor/Consumer-smart-contract/inventory/ConsumerInventoryStorage.sol\":2643:2655  return false */\n      swap2\n      pop\n      pop\n        /* \"contracts/Actor/Consumer-smart-contract/inventory/ConsumerInventoryStorage.sol\":1803:2674  function deleteCheesePiece(address walletConsumer, uint256 _id) external returns(bool value) {... */\n    tag_25:\n      swap3\n      swap2\n      pop\n      pop\n      jump\t// out\n        /* \"contracts/Actor/Consumer-smart-contract/inventory/ConsumerInventoryStorage.sol\":541:1362  function addCheesePiece(address _walletRetailer,address _walletConsumer, uint256 _quantity, uint256 _price) external {... */\n    tag_20:\n        /* \"contracts/Actor/Consumer-smart-contract/inventory/ConsumerInventoryStorage.sol\":702:713  uint256 _id */\n      0x00\n        /* \"contracts/Actor/Consumer-smart-contract/inventory/ConsumerInventoryStorage.sol\":765:774  _quantity */\n      dup3\n        /* \"contracts/Actor/Consumer-smart-contract/inventory/ConsumerInventoryStorage.sol\":789:795  _price */\n      dup3\n        /* \"contracts/Actor/Consumer-smart-contract/inventory/ConsumerInventoryStorage.sol\":810:825  _walletConsumer */\n      dup6\n        /* \"contracts/Actor/Consumer-smart-contract/inventory/ConsumerInventoryStorage.sol\":840:855  _walletRetailer */\n      dup8\n        /* \"contracts/Actor/Consumer-smart-contract/inventory/ConsumerInventoryStorage.sol\":734:866  abi.encodePacked(... */\n      add(0x20, mload(0x40))\n      tag_36\n      swap5\n      swap4\n      swap3\n      swap2\n      swap1\n      tag_29\n      jump\t// in\n    tag_36:\n      mload(0x40)\n      0x20\n      dup2\n      dup4\n      sub\n      sub\n      dup2\n      mstore\n      swap1\n      0x40\n      mstore\n        /* \"contracts/Actor/Consumer-smart-contract/inventory/ConsumerInventoryStorage.sol\":724:867  keccak256(abi.encodePacked(... */\n      dup1\n      mload\n      swap1\n      0x20\n      add\n      keccak256\n        /* \"contracts/Actor/Consumer-smart-contract/inventory/ConsumerInventoryStorage.sol\":716:868  uint256(keccak256(abi.encodePacked(... */\n      0x00\n      shr\n        /* \"contracts/Actor/Consumer-smart-contract/inventory/ConsumerInventoryStorage.sol\":702:868  uint256 _id = uint256(keccak256(abi.encodePacked(... */\n      swap1\n      pop\n        /* \"contracts/Actor/Consumer-smart-contract/inventory/ConsumerInventoryStorage.sol\":931:932  0 */\n      0x00\n        /* \"contracts/Actor/Consumer-smart-contract/inventory/ConsumerInventoryStorage.sol\":890:902  cheesePieces */\n      0x01\n        /* \"contracts/Actor/Consumer-smart-contract/inventory/ConsumerInventoryStorage.sol\":890:919  cheesePieces[_walletConsumer] */\n      0x00\n        /* \"contracts/Actor/Consumer-smart-contract/inventory/ConsumerInventoryStorage.sol\":903:918  _walletConsumer */\n      dup7\n        /* \"contracts/Actor/Consumer-smart-contract/inventory/ConsumerInventoryStorage.sol\":890:919  cheesePieces[_walletConsumer] */\n      0xffffffffffffffffffffffffffffffffffffffff\n      and\n      0xffffffffffffffffffffffffffffffffffffffff\n      and\n      dup2\n      mstore\n      0x20\n      add\n      swap1\n      dup2\n      mstore\n      0x20\n      add\n      0x00\n      keccak256\n        /* \"contracts/Actor/Consumer-smart-contract/inventory/ConsumerInventoryStorage.sol\":890:924  cheesePieces[_walletConsumer][_id] */\n      0x00\n        /* \"contracts/Actor/Consumer-smart-contract/inventory/ConsumerInventoryStorage.sol\":920:923  _id */\n      dup4\n        /* \"contracts/Actor/Consumer-smart-contract/inventory/ConsumerInventoryStorage.sol\":890:924  cheesePieces[_walletConsumer][_id] */\n      dup2\n      mstore\n      0x20\n      add\n      swap1\n      dup2\n      mstore\n      0x20\n      add\n      0x00\n      keccak256\n        /* \"contracts/Actor/Consumer-smart-contract/inventory/ConsumerInventoryStorage.sol\":890:927  cheesePieces[_walletConsumer][_id].id */\n      0x00\n      add\n      sload\n        /* \"contracts/Actor/Consumer-smart-contract/inventory/ConsumerInventoryStorage.sol\":890:932  cheesePieces[_walletConsumer][_id].id == 0 */\n      eq\n        /* \"contracts/Actor/Consumer-smart-contract/inventory/ConsumerInventoryStorage.sol\":881:970  require( cheesePieces[_walletConsumer][_id].id == 0, \"Pezzo di Formaggio gia' presente!\") */\n      tag_37\n      jumpi\n      mload(0x40)\n      0x08c379a000000000000000000000000000000000000000000000000000000000\n      dup2\n      mstore\n      0x04\n      add\n      tag_38\n      swap1\n      tag_39\n      jump\t// in\n    tag_38:\n      mload(0x40)\n      dup1\n      swap2\n      sub\n      swap1\n      revert\n    tag_37:\n        /* \"contracts/Actor/Consumer-smart-contract/inventory/ConsumerInventoryStorage.sol\":1026:1056  CheesePiece memory cheesePiece */\n      0x00\n        /* \"contracts/Actor/Consumer-smart-contract/inventory/ConsumerInventoryStorage.sol\":1059:1222  CheesePiece({... */\n      mload(0x40)\n      dup1\n      0x80\n      add\n      0x40\n      mstore\n      dup1\n        /* \"contracts/Actor/Consumer-smart-contract/inventory/ConsumerInventoryStorage.sol\":1090:1093  _id */\n      dup4\n        /* \"contracts/Actor/Consumer-smart-contract/inventory/ConsumerInventoryStorage.sol\":1059:1222  CheesePiece({... */\n      dup2\n      mstore\n      0x20\n      add\n        /* \"contracts/Actor/Consumer-smart-contract/inventory/ConsumerInventoryStorage.sol\":1123:1132  _quantity */\n      dup6\n        /* \"contracts/Actor/Consumer-smart-contract/inventory/ConsumerInventoryStorage.sol\":1059:1222  CheesePiece({... */\n      dup2\n      mstore\n      0x20\n      add\n        /* \"contracts/Actor/Consumer-smart-contract/inventory/ConsumerInventoryStorage.sol\":1159:1165  _price */\n      dup5\n        /* \"contracts/Actor/Consumer-smart-contract/inventory/ConsumerInventoryStorage.sol\":1059:1222  CheesePiece({... */\n      dup2\n      mstore\n      0x20\n      add\n        /* \"contracts/Actor/Consumer-smart-contract/inventory/ConsumerInventoryStorage.sol\":1195:1210  _walletRetailer */\n      dup8\n        /* \"contracts/Actor/Consumer-smart-contract/inventory/ConsumerInventoryStorage.sol\":1059:1222  CheesePiece({... */\n      0xffffffffffffffffffffffffffffffffffffffff\n      and\n      dup2\n      mstore\n      pop\n        /* \"contracts/Actor/Consumer-smart-contract/inventory/ConsumerInventoryStorage.sol\":1026:1222  CheesePiece memory cheesePiece = CheesePiece({... */\n      swap1\n      pop\n        /* \"contracts/Actor/Consumer-smart-contract/inventory/ConsumerInventoryStorage.sol\":1343:1354  cheesePiece */\n      dup1\n        /* \"contracts/Actor/Consumer-smart-contract/inventory/ConsumerInventoryStorage.sol\":1306:1318  cheesePieces */\n      0x01\n        /* \"contracts/Actor/Consumer-smart-contract/inventory/ConsumerInventoryStorage.sol\":1306:1335  cheesePieces[_walletConsumer] */\n      0x00\n        /* \"contracts/Actor/Consumer-smart-contract/inventory/ConsumerInventoryStorage.sol\":1319:1334  _walletConsumer */\n      dup8\n        /* \"contracts/Actor/Consumer-smart-contract/inventory/ConsumerInventoryStorage.sol\":1306:1335  cheesePieces[_walletConsumer] */\n      0xffffffffffffffffffffffffffffffffffffffff\n      and\n      0xffffffffffffffffffffffffffffffffffffffff\n      and\n      dup2\n      mstore\n      0x20\n      add\n      swap1\n      dup2\n      mstore\n      0x20\n      add\n      0x00\n      keccak256\n        /* \"contracts/Actor/Consumer-smart-contract/inventory/ConsumerInventoryStorage.sol\":1306:1340  cheesePieces[_walletConsumer][_id] */\n      0x00\n        /* \"contracts/Actor/Consumer-smart-contract/inventory/ConsumerInventoryStorage.sol\":1336:1339  _id */\n      dup5\n        /* \"contracts/Actor/Consumer-smart-contract/inventory/ConsumerInventoryStorage.sol\":1306:1340  cheesePieces[_walletConsumer][_id] */\n      dup2\n      mstore\n      0x20\n      add\n      swap1\n      dup2\n      mstore\n      0x20\n      add\n      0x00\n      keccak256\n        /* \"contracts/Actor/Consumer-smart-contract/inventory/ConsumerInventoryStorage.sol\":1306:1354  cheesePieces[_walletConsumer][_id] = cheesePiece */\n      0x00\n      dup3\n      add\n      mload\n      dup2\n      0x00\n      add\n      sstore\n      0x20\n      dup3\n      add\n      mload\n      dup2\n      0x01\n      add\n      sstore\n      0x40\n      dup3\n      add\n      mload\n      dup2\n      0x02\n      add\n      sstore\n      0x60\n      dup3\n      add\n      mload\n      dup2\n      0x03\n      add\n      exp(0x0100, 0x00)\n      dup2\n      sload\n      dup2\n      0xffffffffffffffffffffffffffffffffffffffff\n      mul\n      not\n      and\n      swap1\n      dup4\n      0xffffffffffffffffffffffffffffffffffffffff\n      and\n      mul\n      or\n      swap1\n      sstore\n      pop\n      swap1\n      pop\n      pop\n        /* \"contracts/Actor/Consumer-smart-contract/inventory/ConsumerInventoryStorage.sol\":658:1362  {... */\n      pop\n      pop\n        /* \"contracts/Actor/Consumer-smart-contract/inventory/ConsumerInventoryStorage.sol\":541:1362  function addCheesePiece(address _walletRetailer,address _walletConsumer, uint256 _quantity, uint256 _price) external {... */\n      pop\n      pop\n      pop\n      pop\n      jump\t// out\n        /* \"#utility.yul\":88:205   */\n    tag_41:\n        /* \"#utility.yul\":197:198   */\n      0x00\n        /* \"#utility.yul\":194:195   */\n      dup1\n        /* \"#utility.yul\":187:199   */\n      revert\n        /* \"#utility.yul\":334:460   */\n    tag_43:\n        /* \"#utility.yul\":371:378   */\n      0x00\n        /* \"#utility.yul\":411:453   */\n      0xffffffffffffffffffffffffffffffffffffffff\n        /* \"#utility.yul\":404:409   */\n      dup3\n        /* \"#utility.yul\":400:454   */\n      and\n        /* \"#utility.yul\":389:454   */\n      swap1\n      pop\n        /* \"#utility.yul\":334:460   */\n      swap2\n      swap1\n      pop\n      jump\t// out\n        /* \"#utility.yul\":466:562   */\n    tag_44:\n        /* \"#utility.yul\":503:510   */\n      0x00\n        /* \"#utility.yul\":532:556   */\n      tag_72\n        /* \"#utility.yul\":550:555   */\n      dup3\n        /* \"#utility.yul\":532:556   */\n      tag_43\n      jump\t// in\n    tag_72:\n        /* \"#utility.yul\":521:556   */\n      swap1\n      pop\n        /* \"#utility.yul\":466:562   */\n      swap2\n      swap1\n      pop\n      jump\t// out\n        /* \"#utility.yul\":568:690   */\n    tag_45:\n        /* \"#utility.yul\":641:665   */\n      tag_74\n        /* \"#utility.yul\":659:664   */\n      dup2\n        /* \"#utility.yul\":641:665   */\n      tag_44\n      jump\t// in\n    tag_74:\n        /* \"#utility.yul\":634:639   */\n      dup2\n        /* \"#utility.yul\":631:666   */\n      eq\n        /* \"#utility.yul\":621:684   */\n      tag_75\n      jumpi\n        /* \"#utility.yul\":680:681   */\n      0x00\n        /* \"#utility.yul\":677:678   */\n      dup1\n        /* \"#utility.yul\":670:682   */\n      revert\n        /* \"#utility.yul\":621:684   */\n    tag_75:\n        /* \"#utility.yul\":568:690   */\n      pop\n      jump\t// out\n        /* \"#utility.yul\":696:835   */\n    tag_46:\n        /* \"#utility.yul\":742:747   */\n      0x00\n        /* \"#utility.yul\":780:786   */\n      dup2\n        /* \"#utility.yul\":767:787   */\n      calldataload\n        /* \"#utility.yul\":758:787   */\n      swap1\n      pop\n        /* \"#utility.yul\":796:829   */\n      tag_77\n        /* \"#utility.yul\":823:828   */\n      dup2\n        /* \"#utility.yul\":796:829   */\n      tag_45\n      jump\t// in\n    tag_77:\n        /* \"#utility.yul\":696:835   */\n      swap3\n      swap2\n      pop\n      pop\n      jump\t// out\n        /* \"#utility.yul\":841:918   */\n    tag_47:\n        /* \"#utility.yul\":878:885   */\n      0x00\n        /* \"#utility.yul\":907:912   */\n      dup2\n        /* \"#utility.yul\":896:912   */\n      swap1\n      pop\n        /* \"#utility.yul\":841:918   */\n      swap2\n      swap1\n      pop\n      jump\t// out\n        /* \"#utility.yul\":924:1046   */\n    tag_48:\n        /* \"#utility.yul\":997:1021   */\n      tag_80\n        /* \"#utility.yul\":1015:1020   */\n      dup2\n        /* \"#utility.yul\":997:1021   */\n      tag_47\n      jump\t// in\n    tag_80:\n        /* \"#utility.yul\":990:995   */\n      dup2\n        /* \"#utility.yul\":987:1022   */\n      eq\n        /* \"#utility.yul\":977:1040   */\n      tag_81\n      jumpi\n        /* \"#utility.yul\":1036:1037   */\n      0x00\n        /* \"#utility.yul\":1033:1034   */\n      dup1\n        /* \"#utility.yul\":1026:1038   */\n      revert\n        /* \"#utility.yul\":977:1040   */\n    tag_81:\n        /* \"#utility.yul\":924:1046   */\n      pop\n      jump\t// out\n        /* \"#utility.yul\":1052:1191   */\n    tag_49:\n        /* \"#utility.yul\":1098:1103   */\n      0x00\n        /* \"#utility.yul\":1136:1142   */\n      dup2\n        /* \"#utility.yul\":1123:1143   */\n      calldataload\n        /* \"#utility.yul\":1114:1143   */\n      swap1\n      pop\n        /* \"#utility.yul\":1152:1185   */\n      tag_83\n        /* \"#utility.yul\":1179:1184   */\n      dup2\n        /* \"#utility.yul\":1152:1185   */\n      tag_48\n      jump\t// in\n    tag_83:\n        /* \"#utility.yul\":1052:1191   */\n      swap3\n      swap2\n      pop\n      pop\n      jump\t// out\n        /* \"#utility.yul\":1197:1671   */\n    tag_8:\n        /* \"#utility.yul\":1265:1271   */\n      0x00\n        /* \"#utility.yul\":1273:1279   */\n      dup1\n        /* \"#utility.yul\":1322:1324   */\n      0x40\n        /* \"#utility.yul\":1310:1319   */\n      dup4\n        /* \"#utility.yul\":1301:1308   */\n      dup6\n        /* \"#utility.yul\":1297:1320   */\n      sub\n        /* \"#utility.yul\":1293:1325   */\n      slt\n        /* \"#utility.yul\":1290:1409   */\n      iszero\n      tag_85\n      jumpi\n        /* \"#utility.yul\":1328:1407   */\n      tag_86\n      tag_41\n      jump\t// in\n    tag_86:\n        /* \"#utility.yul\":1290:1409   */\n    tag_85:\n        /* \"#utility.yul\":1448:1449   */\n      0x00\n        /* \"#utility.yul\":1473:1526   */\n      tag_87\n        /* \"#utility.yul\":1518:1525   */\n      dup6\n        /* \"#utility.yul\":1509:1515   */\n      dup3\n        /* \"#utility.yul\":1498:1507   */\n      dup7\n        /* \"#utility.yul\":1494:1516   */\n      add\n        /* \"#utility.yul\":1473:1526   */\n      tag_46\n      jump\t// in\n    tag_87:\n        /* \"#utility.yul\":1463:1526   */\n      swap3\n      pop\n        /* \"#utility.yul\":1419:1536   */\n      pop\n        /* \"#utility.yul\":1575:1577   */\n      0x20\n        /* \"#utility.yul\":1601:1654   */\n      tag_88\n        /* \"#utility.yul\":1646:1653   */\n      dup6\n        /* \"#utility.yul\":1637:1643   */\n      dup3\n        /* \"#utility.yul\":1626:1635   */\n      dup7\n        /* \"#utility.yul\":1622:1644   */\n      add\n        /* \"#utility.yul\":1601:1654   */\n      tag_49\n      jump\t// in\n    tag_88:\n        /* \"#utility.yul\":1591:1654   */\n      swap2\n      pop\n        /* \"#utility.yul\":1546:1664   */\n      pop\n        /* \"#utility.yul\":1197:1671   */\n      swap3\n      pop\n      swap3\n      swap1\n      pop\n      jump\t// out\n        /* \"#utility.yul\":1677:1795   */\n    tag_50:\n        /* \"#utility.yul\":1764:1788   */\n      tag_90\n        /* \"#utility.yul\":1782:1787   */\n      dup2\n        /* \"#utility.yul\":1764:1788   */\n      tag_47\n      jump\t// in\n    tag_90:\n        /* \"#utility.yul\":1759:1762   */\n      dup3\n        /* \"#utility.yul\":1752:1789   */\n      mstore\n        /* \"#utility.yul\":1677:1795   */\n      pop\n      pop\n      jump\t// out\n        /* \"#utility.yul\":1801:2243   */\n    tag_11:\n        /* \"#utility.yul\":1950:1954   */\n      0x00\n        /* \"#utility.yul\":1988:1990   */\n      0x60\n        /* \"#utility.yul\":1977:1986   */\n      dup3\n        /* \"#utility.yul\":1973:1991   */\n      add\n        /* \"#utility.yul\":1965:1991   */\n      swap1\n      pop\n        /* \"#utility.yul\":2001:2072   */\n      tag_92\n        /* \"#utility.yul\":2069:2070   */\n      0x00\n        /* \"#utility.yul\":2058:2067   */\n      dup4\n        /* \"#utility.yul\":2054:2071   */\n      add\n        /* \"#utility.yul\":2045:2051   */\n      dup7\n        /* \"#utility.yul\":2001:2072   */\n      tag_50\n      jump\t// in\n    tag_92:\n        /* \"#utility.yul\":2082:2154   */\n      tag_93\n        /* \"#utility.yul\":2150:2152   */\n      0x20\n        /* \"#utility.yul\":2139:2148   */\n      dup4\n        /* \"#utility.yul\":2135:2153   */\n      add\n        /* \"#utility.yul\":2126:2132   */\n      dup6\n        /* \"#utility.yul\":2082:2154   */\n      tag_50\n      jump\t// in\n    tag_93:\n        /* \"#utility.yul\":2164:2236   */\n      tag_94\n        /* \"#utility.yul\":2232:2234   */\n      0x40\n        /* \"#utility.yul\":2221:2230   */\n      dup4\n        /* \"#utility.yul\":2217:2235   */\n      add\n        /* \"#utility.yul\":2208:2214   */\n      dup5\n        /* \"#utility.yul\":2164:2236   */\n      tag_50\n      jump\t// in\n    tag_94:\n        /* \"#utility.yul\":1801:2243   */\n      swap5\n      swap4\n      pop\n      pop\n      pop\n      pop\n      jump\t// out\n        /* \"#utility.yul\":2249:2339   */\n    tag_51:\n        /* \"#utility.yul\":2283:2290   */\n      0x00\n        /* \"#utility.yul\":2326:2331   */\n      dup2\n        /* \"#utility.yul\":2319:2332   */\n      iszero\n        /* \"#utility.yul\":2312:2333   */\n      iszero\n        /* \"#utility.yul\":2301:2333   */\n      swap1\n      pop\n        /* \"#utility.yul\":2249:2339   */\n      swap2\n      swap1\n      pop\n      jump\t// out\n        /* \"#utility.yul\":2345:2454   */\n    tag_52:\n        /* \"#utility.yul\":2426:2447   */\n      tag_97\n        /* \"#utility.yul\":2441:2446   */\n      dup2\n        /* \"#utility.yul\":2426:2447   */\n      tag_51\n      jump\t// in\n    tag_97:\n        /* \"#utility.yul\":2421:2424   */\n      dup3\n        /* \"#utility.yul\":2414:2448   */\n      mstore\n        /* \"#utility.yul\":2345:2454   */\n      pop\n      pop\n      jump\t// out\n        /* \"#utility.yul\":2460:2670   */\n    tag_16:\n        /* \"#utility.yul\":2547:2551   */\n      0x00\n        /* \"#utility.yul\":2585:2587   */\n      0x20\n        /* \"#utility.yul\":2574:2583   */\n      dup3\n        /* \"#utility.yul\":2570:2588   */\n      add\n        /* \"#utility.yul\":2562:2588   */\n      swap1\n      pop\n        /* \"#utility.yul\":2598:2663   */\n      tag_99\n        /* \"#utility.yul\":2660:2661   */\n      0x00\n        /* \"#utility.yul\":2649:2658   */\n      dup4\n        /* \"#utility.yul\":2645:2662   */\n      add\n        /* \"#utility.yul\":2636:2642   */\n      dup5\n        /* \"#utility.yul\":2598:2663   */\n      tag_52\n      jump\t// in\n    tag_99:\n        /* \"#utility.yul\":2460:2670   */\n      swap3\n      swap2\n      pop\n      pop\n      jump\t// out\n        /* \"#utility.yul\":2676:3441   */\n    tag_19:\n        /* \"#utility.yul\":2762:2768   */\n      0x00\n        /* \"#utility.yul\":2770:2776   */\n      dup1\n        /* \"#utility.yul\":2778:2784   */\n      0x00\n        /* \"#utility.yul\":2786:2792   */\n      dup1\n        /* \"#utility.yul\":2835:2838   */\n      0x80\n        /* \"#utility.yul\":2823:2832   */\n      dup6\n        /* \"#utility.yul\":2814:2821   */\n      dup8\n        /* \"#utility.yul\":2810:2833   */\n      sub\n        /* \"#utility.yul\":2806:2839   */\n      slt\n        /* \"#utility.yul\":2803:2923   */\n      iszero\n      tag_101\n      jumpi\n        /* \"#utility.yul\":2842:2921   */\n      tag_102\n      tag_41\n      jump\t// in\n    tag_102:\n        /* \"#utility.yul\":2803:2923   */\n    tag_101:\n        /* \"#utility.yul\":2962:2963   */\n      0x00\n        /* \"#utility.yul\":2987:3040   */\n      tag_103\n        /* \"#utility.yul\":3032:3039   */\n      dup8\n        /* \"#utility.yul\":3023:3029   */\n      dup3\n        /* \"#utility.yul\":3012:3021   */\n      dup9\n        /* \"#utility.yul\":3008:3030   */\n      add\n        /* \"#utility.yul\":2987:3040   */\n      tag_46\n      jump\t// in\n    tag_103:\n        /* \"#utility.yul\":2977:3040   */\n      swap5\n      pop\n        /* \"#utility.yul\":2933:3050   */\n      pop\n        /* \"#utility.yul\":3089:3091   */\n      0x20\n        /* \"#utility.yul\":3115:3168   */\n      tag_104\n        /* \"#utility.yul\":3160:3167   */\n      dup8\n        /* \"#utility.yul\":3151:3157   */\n      dup3\n        /* \"#utility.yul\":3140:3149   */\n      dup9\n        /* \"#utility.yul\":3136:3158   */\n      add\n        /* \"#utility.yul\":3115:3168   */\n      tag_46\n      jump\t// in\n    tag_104:\n        /* \"#utility.yul\":3105:3168   */\n      swap4\n      pop\n        /* \"#utility.yul\":3060:3178   */\n      pop\n        /* \"#utility.yul\":3217:3219   */\n      0x40\n        /* \"#utility.yul\":3243:3296   */\n      tag_105\n        /* \"#utility.yul\":3288:3295   */\n      dup8\n        /* \"#utility.yul\":3279:3285   */\n      dup3\n        /* \"#utility.yul\":3268:3277   */\n      dup9\n        /* \"#utility.yul\":3264:3286   */\n      add\n        /* \"#utility.yul\":3243:3296   */\n      tag_49\n      jump\t// in\n    tag_105:\n        /* \"#utility.yul\":3233:3296   */\n      swap3\n      pop\n        /* \"#utility.yul\":3188:3306   */\n      pop\n        /* \"#utility.yul\":3345:3347   */\n      0x60\n        /* \"#utility.yul\":3371:3424   */\n      tag_106\n        /* \"#utility.yul\":3416:3423   */\n      dup8\n        /* \"#utility.yul\":3407:3413   */\n      dup3\n        /* \"#utility.yul\":3396:3405   */\n      dup9\n        /* \"#utility.yul\":3392:3414   */\n      add\n        /* \"#utility.yul\":3371:3424   */\n      tag_49\n      jump\t// in\n    tag_106:\n        /* \"#utility.yul\":3361:3424   */\n      swap2\n      pop\n        /* \"#utility.yul\":3316:3434   */\n      pop\n        /* \"#utility.yul\":2676:3441   */\n      swap3\n      swap6\n      swap2\n      swap5\n      pop\n      swap3\n      pop\n      jump\t// out\n        /* \"#utility.yul\":3447:3616   */\n    tag_53:\n        /* \"#utility.yul\":3531:3542   */\n      0x00\n        /* \"#utility.yul\":3565:3571   */\n      dup3\n        /* \"#utility.yul\":3560:3563   */\n      dup3\n        /* \"#utility.yul\":3553:3572   */\n      mstore\n        /* \"#utility.yul\":3605:3609   */\n      0x20\n        /* \"#utility.yul\":3600:3603   */\n      dup3\n        /* \"#utility.yul\":3596:3610   */\n      add\n        /* \"#utility.yul\":3581:3610   */\n      swap1\n      pop\n        /* \"#utility.yul\":3447:3616   */\n      swap3\n      swap2\n      pop\n      pop\n      jump\t// out\n        /* \"#utility.yul\":3622:3802   */\n    tag_54:\n        /* \"#utility.yul\":3762:3794   */\n      0x50617274697461206469204c61747465206e6f6e2070726573656e7465210000\n        /* \"#utility.yul\":3758:3759   */\n      0x00\n        /* \"#utility.yul\":3750:3756   */\n      dup3\n        /* \"#utility.yul\":3746:3760   */\n      add\n        /* \"#utility.yul\":3739:3795   */\n      mstore\n        /* \"#utility.yul\":3622:3802   */\n      pop\n      jump\t// out\n        /* \"#utility.yul\":3808:4174   */\n    tag_55:\n        /* \"#utility.yul\":3950:3953   */\n      0x00\n        /* \"#utility.yul\":3971:4038   */\n      tag_110\n        /* \"#utility.yul\":4035:4037   */\n      0x1e\n        /* \"#utility.yul\":4030:4033   */\n      dup4\n        /* \"#utility.yul\":3971:4038   */\n      tag_53\n      jump\t// in\n    tag_110:\n        /* \"#utility.yul\":3964:4038   */\n      swap2\n      pop\n        /* \"#utility.yul\":4047:4140   */\n      tag_111\n        /* \"#utility.yul\":4136:4139   */\n      dup3\n        /* \"#utility.yul\":4047:4140   */\n      tag_54\n      jump\t// in\n    tag_111:\n        /* \"#utility.yul\":4165:4167   */\n      0x20\n        /* \"#utility.yul\":4160:4163   */\n      dup3\n        /* \"#utility.yul\":4156:4168   */\n      add\n        /* \"#utility.yul\":4149:4168   */\n      swap1\n      pop\n        /* \"#utility.yul\":3808:4174   */\n      swap2\n      swap1\n      pop\n      jump\t// out\n        /* \"#utility.yul\":4180:4599   */\n    tag_24:\n        /* \"#utility.yul\":4346:4350   */\n      0x00\n        /* \"#utility.yul\":4384:4386   */\n      0x20\n        /* \"#utility.yul\":4373:4382   */\n      dup3\n        /* \"#utility.yul\":4369:4387   */\n      add\n        /* \"#utility.yul\":4361:4387   */\n      swap1\n      pop\n        /* \"#utility.yul\":4433:4442   */\n      dup2\n        /* \"#utility.yul\":4427:4431   */\n      dup2\n        /* \"#utility.yul\":4423:4443   */\n      sub\n        /* \"#utility.yul\":4419:4420   */\n      0x00\n        /* \"#utility.yul\":4408:4417   */\n      dup4\n        /* \"#utility.yul\":4404:4421   */\n      add\n        /* \"#utility.yul\":4397:4444   */\n      mstore\n        /* \"#utility.yul\":4461:4592   */\n      tag_113\n        /* \"#utility.yul\":4587:4591   */\n      dup2\n        /* \"#utility.yul\":4461:4592   */\n      tag_55\n      jump\t// in\n    tag_113:\n        /* \"#utility.yul\":4453:4592   */\n      swap1\n      pop\n        /* \"#utility.yul\":4180:4599   */\n      swap2\n      swap1\n      pop\n      jump\t// out\n        /* \"#utility.yul\":4605:4684   */\n    tag_56:\n        /* \"#utility.yul\":4644:4651   */\n      0x00\n        /* \"#utility.yul\":4673:4678   */\n      dup2\n        /* \"#utility.yul\":4662:4678   */\n      swap1\n      pop\n        /* \"#utility.yul\":4605:4684   */\n      swap2\n      swap1\n      pop\n      jump\t// out\n        /* \"#utility.yul\":4690:4847   */\n    tag_57:\n        /* \"#utility.yul\":4795:4840   */\n      tag_116\n        /* \"#utility.yul\":4815:4839   */\n      tag_117\n        /* \"#utility.yul\":4833:4838   */\n      dup3\n        /* \"#utility.yul\":4815:4839   */\n      tag_47\n      jump\t// in\n    tag_117:\n        /* \"#utility.yul\":4795:4840   */\n      tag_56\n      jump\t// in\n    tag_116:\n        /* \"#utility.yul\":4790:4793   */\n      dup3\n        /* \"#utility.yul\":4783:4841   */\n      mstore\n        /* \"#utility.yul\":4690:4847   */\n      pop\n      pop\n      jump\t// out\n        /* \"#utility.yul\":4853:4947   */\n    tag_58:\n        /* \"#utility.yul\":4886:4894   */\n      0x00\n        /* \"#utility.yul\":4934:4939   */\n      dup2\n        /* \"#utility.yul\":4930:4932   */\n      0x60\n        /* \"#utility.yul\":4926:4940   */\n      shl\n        /* \"#utility.yul\":4905:4940   */\n      swap1\n      pop\n        /* \"#utility.yul\":4853:4947   */\n      swap2\n      swap1\n      pop\n      jump\t// out\n        /* \"#utility.yul\":4953:5047   */\n    tag_59:\n        /* \"#utility.yul\":4992:4999   */\n      0x00\n        /* \"#utility.yul\":5021:5041   */\n      tag_120\n        /* \"#utility.yul\":5035:5040   */\n      dup3\n        /* \"#utility.yul\":5021:5041   */\n      tag_58\n      jump\t// in\n    tag_120:\n        /* \"#utility.yul\":5010:5041   */\n      swap1\n      pop\n        /* \"#utility.yul\":4953:5047   */\n      swap2\n      swap1\n      pop\n      jump\t// out\n        /* \"#utility.yul\":5053:5153   */\n    tag_60:\n        /* \"#utility.yul\":5092:5099   */\n      0x00\n        /* \"#utility.yul\":5121:5147   */\n      tag_122\n        /* \"#utility.yul\":5141:5146   */\n      dup3\n        /* \"#utility.yul\":5121:5147   */\n      tag_59\n      jump\t// in\n    tag_122:\n        /* \"#utility.yul\":5110:5147   */\n      swap1\n      pop\n        /* \"#utility.yul\":5053:5153   */\n      swap2\n      swap1\n      pop\n      jump\t// out\n        /* \"#utility.yul\":5159:5316   */\n    tag_61:\n        /* \"#utility.yul\":5264:5309   */\n      tag_124\n        /* \"#utility.yul\":5284:5308   */\n      tag_125\n        /* \"#utility.yul\":5302:5307   */\n      dup3\n        /* \"#utility.yul\":5284:5308   */\n      tag_44\n      jump\t// in\n    tag_125:\n        /* \"#utility.yul\":5264:5309   */\n      tag_60\n      jump\t// in\n    tag_124:\n        /* \"#utility.yul\":5259:5262   */\n      dup3\n        /* \"#utility.yul\":5252:5310   */\n      mstore\n        /* \"#utility.yul\":5159:5316   */\n      pop\n      pop\n      jump\t// out\n        /* \"#utility.yul\":5322:6001   */\n    tag_29:\n        /* \"#utility.yul\":5518:5521   */\n      0x00\n        /* \"#utility.yul\":5533:5608   */\n      tag_127\n        /* \"#utility.yul\":5604:5607   */\n      dup3\n        /* \"#utility.yul\":5595:5601   */\n      dup8\n        /* \"#utility.yul\":5533:5608   */\n      tag_57\n      jump\t// in\n    tag_127:\n        /* \"#utility.yul\":5633:5635   */\n      0x20\n        /* \"#utility.yul\":5628:5631   */\n      dup3\n        /* \"#utility.yul\":5624:5636   */\n      add\n        /* \"#utility.yul\":5617:5636   */\n      swap2\n      pop\n        /* \"#utility.yul\":5646:5721   */\n      tag_128\n        /* \"#utility.yul\":5717:5720   */\n      dup3\n        /* \"#utility.yul\":5708:5714   */\n      dup7\n        /* \"#utility.yul\":5646:5721   */\n      tag_57\n      jump\t// in\n    tag_128:\n        /* \"#utility.yul\":5746:5748   */\n      0x20\n        /* \"#utility.yul\":5741:5744   */\n      dup3\n        /* \"#utility.yul\":5737:5749   */\n      add\n        /* \"#utility.yul\":5730:5749   */\n      swap2\n      pop\n        /* \"#utility.yul\":5759:5834   */\n      tag_129\n        /* \"#utility.yul\":5830:5833   */\n      dup3\n        /* \"#utility.yul\":5821:5827   */\n      dup6\n        /* \"#utility.yul\":5759:5834   */\n      tag_61\n      jump\t// in\n    tag_129:\n        /* \"#utility.yul\":5859:5861   */\n      0x14\n        /* \"#utility.yul\":5854:5857   */\n      dup3\n        /* \"#utility.yul\":5850:5862   */\n      add\n        /* \"#utility.yul\":5843:5862   */\n      swap2\n      pop\n        /* \"#utility.yul\":5872:5947   */\n      tag_130\n        /* \"#utility.yul\":5943:5946   */\n      dup3\n        /* \"#utility.yul\":5934:5940   */\n      dup5\n        /* \"#utility.yul\":5872:5947   */\n      tag_61\n      jump\t// in\n    tag_130:\n        /* \"#utility.yul\":5972:5974   */\n      0x14\n        /* \"#utility.yul\":5967:5970   */\n      dup3\n        /* \"#utility.yul\":5963:5975   */\n      add\n        /* \"#utility.yul\":5956:5975   */\n      swap2\n      pop\n        /* \"#utility.yul\":5992:5995   */\n      dup2\n        /* \"#utility.yul\":5985:5995   */\n      swap1\n      pop\n        /* \"#utility.yul\":5322:6001   */\n      swap6\n      swap5\n      pop\n      pop\n      pop\n      pop\n      pop\n      jump\t// out\n        /* \"#utility.yul\":6007:6180   */\n    tag_62:\n        /* \"#utility.yul\":6147:6172   */\n      0x5574656e7465206e6f6e204175746f72697a7a61746f21000000000000000000\n        /* \"#utility.yul\":6143:6144   */\n      0x00\n        /* \"#utility.yul\":6135:6141   */\n      dup3\n        /* \"#utility.yul\":6131:6145   */\n      add\n        /* \"#utility.yul\":6124:6173   */\n      mstore\n        /* \"#utility.yul\":6007:6180   */\n      pop\n      jump\t// out\n        /* \"#utility.yul\":6186:6552   */\n    tag_63:\n        /* \"#utility.yul\":6328:6331   */\n      0x00\n        /* \"#utility.yul\":6349:6416   */\n      tag_133\n        /* \"#utility.yul\":6413:6415   */\n      0x17\n        /* \"#utility.yul\":6408:6411   */\n      dup4\n        /* \"#utility.yul\":6349:6416   */\n      tag_53\n      jump\t// in\n    tag_133:\n        /* \"#utility.yul\":6342:6416   */\n      swap2\n      pop\n        /* \"#utility.yul\":6425:6518   */\n      tag_134\n        /* \"#utility.yul\":6514:6517   */\n      dup3\n        /* \"#utility.yul\":6425:6518   */\n      tag_62\n      jump\t// in\n    tag_134:\n        /* \"#utility.yul\":6543:6545   */\n      0x20\n        /* \"#utility.yul\":6538:6541   */\n      dup3\n        /* \"#utility.yul\":6534:6546   */\n      add\n        /* \"#utility.yul\":6527:6546   */\n      swap1\n      pop\n        /* \"#utility.yul\":6186:6552   */\n      swap2\n      swap1\n      pop\n      jump\t// out\n        /* \"#utility.yul\":6558:6977   */\n    tag_32:\n        /* \"#utility.yul\":6724:6728   */\n      0x00\n        /* \"#utility.yul\":6762:6764   */\n      0x20\n        /* \"#utility.yul\":6751:6760   */\n      dup3\n        /* \"#utility.yul\":6747:6765   */\n      add\n        /* \"#utility.yul\":6739:6765   */\n      swap1\n      pop\n        /* \"#utility.yul\":6811:6820   */\n      dup2\n        /* \"#utility.yul\":6805:6809   */\n      dup2\n        /* \"#utility.yul\":6801:6821   */\n      sub\n        /* \"#utility.yul\":6797:6798   */\n      0x00\n        /* \"#utility.yul\":6786:6795   */\n      dup4\n        /* \"#utility.yul\":6782:6799   */\n      add\n        /* \"#utility.yul\":6775:6822   */\n      mstore\n        /* \"#utility.yul\":6839:6970   */\n      tag_136\n        /* \"#utility.yul\":6965:6969   */\n      dup2\n        /* \"#utility.yul\":6839:6970   */\n      tag_63\n      jump\t// in\n    tag_136:\n        /* \"#utility.yul\":6831:6970   */\n      swap1\n      pop\n        /* \"#utility.yul\":6558:6977   */\n      swap2\n      swap1\n      pop\n      jump\t// out\n        /* \"#utility.yul\":6983:7203   */\n    tag_64:\n        /* \"#utility.yul\":7123:7157   */\n      0x50657a7a6f20646920466f726d616767696f20676961272070726573656e7465\n        /* \"#utility.yul\":7119:7120   */\n      0x00\n        /* \"#utility.yul\":7111:7117   */\n      dup3\n        /* \"#utility.yul\":7107:7121   */\n      add\n        /* \"#utility.yul\":7100:7158   */\n      mstore\n        /* \"#utility.yul\":7192:7195   */\n      0x2100000000000000000000000000000000000000000000000000000000000000\n        /* \"#utility.yul\":7187:7189   */\n      0x20\n        /* \"#utility.yul\":7179:7185   */\n      dup3\n        /* \"#utility.yul\":7175:7190   */\n      add\n        /* \"#utility.yul\":7168:7196   */\n      mstore\n        /* \"#utility.yul\":6983:7203   */\n      pop\n      jump\t// out\n        /* \"#utility.yul\":7209:7575   */\n    tag_65:\n        /* \"#utility.yul\":7351:7354   */\n      0x00\n        /* \"#utility.yul\":7372:7439   */\n      tag_139\n        /* \"#utility.yul\":7436:7438   */\n      0x21\n        /* \"#utility.yul\":7431:7434   */\n      dup4\n        /* \"#utility.yul\":7372:7439   */\n      tag_53\n      jump\t// in\n    tag_139:\n        /* \"#utility.yul\":7365:7439   */\n      swap2\n      pop\n        /* \"#utility.yul\":7448:7541   */\n      tag_140\n        /* \"#utility.yul\":7537:7540   */\n      dup3\n        /* \"#utility.yul\":7448:7541   */\n      tag_64\n      jump\t// in\n    tag_140:\n        /* \"#utility.yul\":7566:7568   */\n      0x40\n        /* \"#utility.yul\":7561:7564   */\n      dup3\n        /* \"#utility.yul\":7557:7569   */\n      add\n        /* \"#utility.yul\":7550:7569   */\n      swap1\n      pop\n        /* \"#utility.yul\":7209:7575   */\n      swap2\n      swap1\n      pop\n      jump\t// out\n        /* \"#utility.yul\":7581:8000   */\n    tag_39:\n        /* \"#utility.yul\":7747:7751   */\n      0x00\n        /* \"#utility.yul\":7785:7787   */\n      0x20\n        /* \"#utility.yul\":7774:7783   */\n      dup3\n        /* \"#utility.yul\":7770:7788   */\n      add\n        /* \"#utility.yul\":7762:7788   */\n      swap1\n      pop\n        /* \"#utility.yul\":7834:7843   */\n      dup2\n        /* \"#utility.yul\":7828:7832   */\n      dup2\n        /* \"#utility.yul\":7824:7844   */\n      sub\n        /* \"#utility.yul\":7820:7821   */\n      0x00\n        /* \"#utility.yul\":7809:7818   */\n      dup4\n        /* \"#utility.yul\":7805:7822   */\n      add\n        /* \"#utility.yul\":7798:7845   */\n      mstore\n        /* \"#utility.yul\":7862:7993   */\n      tag_142\n        /* \"#utility.yul\":7988:7992   */\n      dup2\n        /* \"#utility.yul\":7862:7993   */\n      tag_65\n      jump\t// in\n    tag_142:\n        /* \"#utility.yul\":7854:7993   */\n      swap1\n      pop\n        /* \"#utility.yul\":7581:8000   */\n      swap2\n      swap1\n      pop\n      jump\t// out\n\n    auxdata: 0xa26469706673582212209923497d5b4fa6025262dd2b03135a4db1f9e18bf735b4fa3f40400eef05cc0b64736f6c63430008160033\n}\n",
				"bytecode": {
					"linkReferences": {},
					"object": "608060405234801561000f575f80fd5b50335f806101000a81548173ffffffffffffffffffffffffffffffffffffffff021916908373ffffffffffffffffffffffffffffffffffffffff160217905550610b448061005c5f395ff3fe608060405234801561000f575f80fd5b506004361061003f575f3560e01c80630b7aa47314610043578063348b4c5a14610075578063ba694bd2146100a5575b5f80fd5b61005d600480360381019061005891906107d5565b6100c1565b60405161006c93929190610822565b60405180910390f35b61008f600480360381019061008a91906107d5565b61023c565b60405161009c9190610871565b60405180910390f35b6100bf60048036038101906100ba919061088a565b61058e565b005b5f805f8360015f8773ffffffffffffffffffffffffffffffffffffffff1673ffffffffffffffffffffffffffffffffffffffff1681526020019081526020015f205f8681526020019081526020015f205f015414610154576040517f08c379a000000000000000000000000000000000000000000000000000000000815260040161014b90610948565b60405180910390fd5b5f60015f8773ffffffffffffffffffffffffffffffffffffffff1673ffffffffffffffffffffffffffffffffffffffff1681526020019081526020015f205f8681526020019081526020015f206040518060800160405290815f82015481526020016001820154815260200160028201548152602001600382015f9054906101000a900473ffffffffffffffffffffffffffffffffffffffff1673ffffffffffffffffffffffffffffffffffffffff1673ffffffffffffffffffffffffffffffffffffffff16815250509050805f015181602001518260400151935093509350509250925092565b5f8060015f8573ffffffffffffffffffffffffffffffffffffffff1673ffffffffffffffffffffffffffffffffffffffff1681526020019081526020015f205f8481526020019081526020015f205f0154036102cd576040517f08c379a00000000000000000000000000000000000000000000000000000000081526004016102c490610948565b60405180910390fd5b5f60015f8573ffffffffffffffffffffffffffffffffffffffff1673ffffffffffffffffffffffffffffffffffffffff1681526020019081526020015f205f8481526020019081526020015f206001015460015f8673ffffffffffffffffffffffffffffffffffffffff1673ffffffffffffffffffffffffffffffffffffffff1681526020019081526020015f205f8581526020019081526020015f206002015460015f8773ffffffffffffffffffffffffffffffffffffffff1673ffffffffffffffffffffffffffffffffffffffff1681526020019081526020015f205f8681526020019081526020015f206003015f9054906101000a900473ffffffffffffffffffffffffffffffffffffffff16866040516020016103f194939291906109cb565b604051602081830303815290604052805190602001205f1c90508060015f8673ffffffffffffffffffffffffffffffffffffffff1673ffffffffffffffffffffffffffffffffffffffff1681526020019081526020015f205f8581526020019081526020015f205f01541461049b576040517f08c379a000000000000000000000000000000000000000000000000000000000815260040161049290610a62565b60405180910390fd5b60015f8573ffffffffffffffffffffffffffffffffffffffff1673ffffffffffffffffffffffffffffffffffffffff1681526020019081526020015f205f8481526020019081526020015f205f8082015f9055600182015f9055600282015f9055600382015f6101000a81549073ffffffffffffffffffffffffffffffffffffffff021916905550505f60015f8673ffffffffffffffffffffffffffffffffffffffff1673ffffffffffffffffffffffffffffffffffffffff1681526020019081526020015f205f8581526020019081526020015f205f015403610583576001915050610588565b5f9150505b92915050565b5f828285876040516020016105a694939291906109cb565b604051602081830303815290604052805190602001205f1c90505f60015f8673ffffffffffffffffffffffffffffffffffffffff1673ffffffffffffffffffffffffffffffffffffffff1681526020019081526020015f205f8381526020019081526020015f205f015414610650576040517f08c379a000000000000000000000000000000000000000000000000000000000815260040161064790610af0565b60405180910390fd5b5f60405180608001604052808381526020018581526020018481526020018773ffffffffffffffffffffffffffffffffffffffff1681525090508060015f8773ffffffffffffffffffffffffffffffffffffffff1673ffffffffffffffffffffffffffffffffffffffff1681526020019081526020015f205f8481526020019081526020015f205f820151815f015560208201518160010155604082015181600201556060820151816003015f6101000a81548173ffffffffffffffffffffffffffffffffffffffff021916908373ffffffffffffffffffffffffffffffffffffffff160217905550905050505050505050565b5f80fd5b5f73ffffffffffffffffffffffffffffffffffffffff82169050919050565b5f61077182610748565b9050919050565b61078181610767565b811461078b575f80fd5b50565b5f8135905061079c81610778565b92915050565b5f819050919050565b6107b4816107a2565b81146107be575f80fd5b50565b5f813590506107cf816107ab565b92915050565b5f80604083850312156107eb576107ea610744565b5b5f6107f88582860161078e565b9250506020610809858286016107c1565b9150509250929050565b61081c816107a2565b82525050565b5f6060820190506108355f830186610813565b6108426020830185610813565b61084f6040830184610813565b949350505050565b5f8115159050919050565b61086b81610857565b82525050565b5f6020820190506108845f830184610862565b92915050565b5f805f80608085870312156108a2576108a1610744565b5b5f6108af8782880161078e565b94505060206108c08782880161078e565b93505060406108d1878288016107c1565b92505060606108e2878288016107c1565b91505092959194509250565b5f82825260208201905092915050565b7f50617274697461206469204c61747465206e6f6e2070726573656e74652100005f82015250565b5f610932601e836108ee565b915061093d826108fe565b602082019050919050565b5f6020820190508181035f83015261095f81610926565b9050919050565b5f819050919050565b61098061097b826107a2565b610966565b82525050565b5f8160601b9050919050565b5f61099c82610986565b9050919050565b5f6109ad82610992565b9050919050565b6109c56109c082610767565b6109a3565b82525050565b5f6109d6828761096f565b6020820191506109e6828661096f565b6020820191506109f682856109b4565b601482019150610a0682846109b4565b60148201915081905095945050505050565b7f5574656e7465206e6f6e204175746f72697a7a61746f210000000000000000005f82015250565b5f610a4c6017836108ee565b9150610a5782610a18565b602082019050919050565b5f6020820190508181035f830152610a7981610a40565b9050919050565b7f50657a7a6f20646920466f726d616767696f20676961272070726573656e74655f8201527f2100000000000000000000000000000000000000000000000000000000000000602082015250565b5f610ada6021836108ee565b9150610ae582610a80565b604082019050919050565b5f6020820190508181035f830152610b0781610ace565b905091905056fea26469706673582212209923497d5b4fa6025262dd2b03135a4db1f9e18bf735b4fa3f40400eef05cc0b64736f6c63430008160033",
					"opcodes": "PUSH1 0x80 PUSH1 0x40 MSTORE CALLVALUE DUP1 ISZERO PUSH2 0xF JUMPI PUSH0 DUP1 REVERT JUMPDEST POP CALLER PUSH0 DUP1 PUSH2 0x100 EXP DUP2 SLOAD DUP2 PUSH20 0xFFFFFFFFFFFFFFFFFFFFFFFFFFFFFFFFFFFFFFFF MUL NOT AND SWAP1 DUP4 PUSH20 0xFFFFFFFFFFFFFFFFFFFFFFFFFFFFFFFFFFFFFFFF AND MUL OR SWAP1 SSTORE POP PUSH2 0xB44 DUP1 PUSH2 0x5C PUSH0 CODECOPY PUSH0 RETURN INVALID PUSH1 0x80 PUSH1 0x40 MSTORE CALLVALUE DUP1 ISZERO PUSH2 0xF JUMPI PUSH0 DUP1 REVERT JUMPDEST POP PUSH1 0x4 CALLDATASIZE LT PUSH2 0x3F JUMPI PUSH0 CALLDATALOAD PUSH1 0xE0 SHR DUP1 PUSH4 0xB7AA473 EQ PUSH2 0x43 JUMPI DUP1 PUSH4 0x348B4C5A EQ PUSH2 0x75 JUMPI DUP1 PUSH4 0xBA694BD2 EQ PUSH2 0xA5 JUMPI JUMPDEST PUSH0 DUP1 REVERT JUMPDEST PUSH2 0x5D PUSH1 0x4 DUP1 CALLDATASIZE SUB DUP2 ADD SWAP1 PUSH2 0x58 SWAP2 SWAP1 PUSH2 0x7D5 JUMP JUMPDEST PUSH2 0xC1 JUMP JUMPDEST PUSH1 0x40 MLOAD PUSH2 0x6C SWAP4 SWAP3 SWAP2 SWAP1 PUSH2 0x822 JUMP JUMPDEST PUSH1 0x40 MLOAD DUP1 SWAP2 SUB SWAP1 RETURN JUMPDEST PUSH2 0x8F PUSH1 0x4 DUP1 CALLDATASIZE SUB DUP2 ADD SWAP1 PUSH2 0x8A SWAP2 SWAP1 PUSH2 0x7D5 JUMP JUMPDEST PUSH2 0x23C JUMP JUMPDEST PUSH1 0x40 MLOAD PUSH2 0x9C SWAP2 SWAP1 PUSH2 0x871 JUMP JUMPDEST PUSH1 0x40 MLOAD DUP1 SWAP2 SUB SWAP1 RETURN JUMPDEST PUSH2 0xBF PUSH1 0x4 DUP1 CALLDATASIZE SUB DUP2 ADD SWAP1 PUSH2 0xBA SWAP2 SWAP1 PUSH2 0x88A JUMP JUMPDEST PUSH2 0x58E JUMP JUMPDEST STOP JUMPDEST PUSH0 DUP1 PUSH0 DUP4 PUSH1 0x1 PUSH0 DUP8 PUSH20 0xFFFFFFFFFFFFFFFFFFFFFFFFFFFFFFFFFFFFFFFF AND PUSH20 0xFFFFFFFFFFFFFFFFFFFFFFFFFFFFFFFFFFFFFFFF AND DUP2 MSTORE PUSH1 0x20 ADD SWAP1 DUP2 MSTORE PUSH1 0x20 ADD PUSH0 KECCAK256 PUSH0 DUP7 DUP2 MSTORE PUSH1 0x20 ADD SWAP1 DUP2 MSTORE PUSH1 0x20 ADD PUSH0 KECCAK256 PUSH0 ADD SLOAD EQ PUSH2 0x154 JUMPI PUSH1 0x40 MLOAD PUSH32 0x8C379A000000000000000000000000000000000000000000000000000000000 DUP2 MSTORE PUSH1 0x4 ADD PUSH2 0x14B SWAP1 PUSH2 0x948 JUMP JUMPDEST PUSH1 0x40 MLOAD DUP1 SWAP2 SUB SWAP1 REVERT JUMPDEST PUSH0 PUSH1 0x1 PUSH0 DUP8 PUSH20 0xFFFFFFFFFFFFFFFFFFFFFFFFFFFFFFFFFFFFFFFF AND PUSH20 0xFFFFFFFFFFFFFFFFFFFFFFFFFFFFFFFFFFFFFFFF AND DUP2 MSTORE PUSH1 0x20 ADD SWAP1 DUP2 MSTORE PUSH1 0x20 ADD PUSH0 KECCAK256 PUSH0 DUP7 DUP2 MSTORE PUSH1 0x20 ADD SWAP1 DUP2 MSTORE PUSH1 0x20 ADD PUSH0 KECCAK256 PUSH1 0x40 MLOAD DUP1 PUSH1 0x80 ADD PUSH1 0x40 MSTORE SWAP1 DUP2 PUSH0 DUP3 ADD SLOAD DUP2 MSTORE PUSH1 0x20 ADD PUSH1 0x1 DUP3 ADD SLOAD DUP2 MSTORE PUSH1 0x20 ADD PUSH1 0x2 DUP3 ADD SLOAD DUP2 MSTORE PUSH1 0x20 ADD PUSH1 0x3 DUP3 ADD PUSH0 SWAP1 SLOAD SWAP1 PUSH2 0x100 EXP SWAP1 DIV PUSH20 0xFFFFFFFFFFFFFFFFFFFFFFFFFFFFFFFFFFFFFFFF AND PUSH20 0xFFFFFFFFFFFFFFFFFFFFFFFFFFFFFFFFFFFFFFFF AND PUSH20 0xFFFFFFFFFFFFFFFFFFFFFFFFFFFFFFFFFFFFFFFF AND DUP2 MSTORE POP POP SWAP1 POP DUP1 PUSH0 ADD MLOAD DUP2 PUSH1 0x20 ADD MLOAD DUP3 PUSH1 0x40 ADD MLOAD SWAP4 POP SWAP4 POP SWAP4 POP POP SWAP3 POP SWAP3 POP SWAP3 JUMP JUMPDEST PUSH0 DUP1 PUSH1 0x1 PUSH0 DUP6 PUSH20 0xFFFFFFFFFFFFFFFFFFFFFFFFFFFFFFFFFFFFFFFF AND PUSH20 0xFFFFFFFFFFFFFFFFFFFFFFFFFFFFFFFFFFFFFFFF AND DUP2 MSTORE PUSH1 0x20 ADD SWAP1 DUP2 MSTORE PUSH1 0x20 ADD PUSH0 KECCAK256 PUSH0 DUP5 DUP2 MSTORE PUSH1 0x20 ADD SWAP1 DUP2 MSTORE PUSH1 0x20 ADD PUSH0 KECCAK256 PUSH0 ADD SLOAD SUB PUSH2 0x2CD JUMPI PUSH1 0x40 MLOAD PUSH32 0x8C379A000000000000000000000000000000000000000000000000000000000 DUP2 MSTORE PUSH1 0x4 ADD PUSH2 0x2C4 SWAP1 PUSH2 0x948 JUMP JUMPDEST PUSH1 0x40 MLOAD DUP1 SWAP2 SUB SWAP1 REVERT JUMPDEST PUSH0 PUSH1 0x1 PUSH0 DUP6 PUSH20 0xFFFFFFFFFFFFFFFFFFFFFFFFFFFFFFFFFFFFFFFF AND PUSH20 0xFFFFFFFFFFFFFFFFFFFFFFFFFFFFFFFFFFFFFFFF AND DUP2 MSTORE PUSH1 0x20 ADD SWAP1 DUP2 MSTORE PUSH1 0x20 ADD PUSH0 KECCAK256 PUSH0 DUP5 DUP2 MSTORE PUSH1 0x20 ADD SWAP1 DUP2 MSTORE PUSH1 0x20 ADD PUSH0 KECCAK256 PUSH1 0x1 ADD SLOAD PUSH1 0x1 PUSH0 DUP7 PUSH20 0xFFFFFFFFFFFFFFFFFFFFFFFFFFFFFFFFFFFFFFFF AND PUSH20 0xFFFFFFFFFFFFFFFFFFFFFFFFFFFFFFFFFFFFFFFF AND DUP2 MSTORE PUSH1 0x20 ADD SWAP1 DUP2 MSTORE PUSH1 0x20 ADD PUSH0 KECCAK256 PUSH0 DUP6 DUP2 MSTORE PUSH1 0x20 ADD SWAP1 DUP2 MSTORE PUSH1 0x20 ADD PUSH0 KECCAK256 PUSH1 0x2 ADD SLOAD PUSH1 0x1 PUSH0 DUP8 PUSH20 0xFFFFFFFFFFFFFFFFFFFFFFFFFFFFFFFFFFFFFFFF AND PUSH20 0xFFFFFFFFFFFFFFFFFFFFFFFFFFFFFFFFFFFFFFFF AND DUP2 MSTORE PUSH1 0x20 ADD SWAP1 DUP2 MSTORE PUSH1 0x20 ADD PUSH0 KECCAK256 PUSH0 DUP7 DUP2 MSTORE PUSH1 0x20 ADD SWAP1 DUP2 MSTORE PUSH1 0x20 ADD PUSH0 KECCAK256 PUSH1 0x3 ADD PUSH0 SWAP1 SLOAD SWAP1 PUSH2 0x100 EXP SWAP1 DIV PUSH20 0xFFFFFFFFFFFFFFFFFFFFFFFFFFFFFFFFFFFFFFFF AND DUP7 PUSH1 0x40 MLOAD PUSH1 0x20 ADD PUSH2 0x3F1 SWAP5 SWAP4 SWAP3 SWAP2 SWAP1 PUSH2 0x9CB JUMP JUMPDEST PUSH1 0x40 MLOAD PUSH1 0x20 DUP2 DUP4 SUB SUB DUP2 MSTORE SWAP1 PUSH1 0x40 MSTORE DUP1 MLOAD SWAP1 PUSH1 0x20 ADD KECCAK256 PUSH0 SHR SWAP1 POP DUP1 PUSH1 0x1 PUSH0 DUP7 PUSH20 0xFFFFFFFFFFFFFFFFFFFFFFFFFFFFFFFFFFFFFFFF AND PUSH20 0xFFFFFFFFFFFFFFFFFFFFFFFFFFFFFFFFFFFFFFFF AND DUP2 MSTORE PUSH1 0x20 ADD SWAP1 DUP2 MSTORE PUSH1 0x20 ADD PUSH0 KECCAK256 PUSH0 DUP6 DUP2 MSTORE PUSH1 0x20 ADD SWAP1 DUP2 MSTORE PUSH1 0x20 ADD PUSH0 KECCAK256 PUSH0 ADD SLOAD EQ PUSH2 0x49B JUMPI PUSH1 0x40 MLOAD PUSH32 0x8C379A000000000000000000000000000000000000000000000000000000000 DUP2 MSTORE PUSH1 0x4 ADD PUSH2 0x492 SWAP1 PUSH2 0xA62 JUMP JUMPDEST PUSH1 0x40 MLOAD DUP1 SWAP2 SUB SWAP1 REVERT JUMPDEST PUSH1 0x1 PUSH0 DUP6 PUSH20 0xFFFFFFFFFFFFFFFFFFFFFFFFFFFFFFFFFFFFFFFF AND PUSH20 0xFFFFFFFFFFFFFFFFFFFFFFFFFFFFFFFFFFFFFFFF AND DUP2 MSTORE PUSH1 0x20 ADD SWAP1 DUP2 MSTORE PUSH1 0x20 ADD PUSH0 KECCAK256 PUSH0 DUP5 DUP2 MSTORE PUSH1 0x20 ADD SWAP1 DUP2 MSTORE PUSH1 0x20 ADD PUSH0 KECCAK256 PUSH0 DUP1 DUP3 ADD PUSH0 SWAP1 SSTORE PUSH1 0x1 DUP3 ADD PUSH0 SWAP1 SSTORE PUSH1 0x2 DUP3 ADD PUSH0 SWAP1 SSTORE PUSH1 0x3 DUP3 ADD PUSH0 PUSH2 0x100 EXP DUP2 SLOAD SWAP1 PUSH20 0xFFFFFFFFFFFFFFFFFFFFFFFFFFFFFFFFFFFFFFFF MUL NOT AND SWAP1 SSTORE POP POP PUSH0 PUSH1 0x1 PUSH0 DUP7 PUSH20 0xFFFFFFFFFFFFFFFFFFFFFFFFFFFFFFFFFFFFFFFF AND PUSH20 0xFFFFFFFFFFFFFFFFFFFFFFFFFFFFFFFFFFFFFFFF AND DUP2 MSTORE PUSH1 0x20 ADD SWAP1 DUP2 MSTORE PUSH1 0x20 ADD PUSH0 KECCAK256 PUSH0 DUP6 DUP2 MSTORE PUSH1 0x20 ADD SWAP1 DUP2 MSTORE PUSH1 0x20 ADD PUSH0 KECCAK256 PUSH0 ADD SLOAD SUB PUSH2 0x583 JUMPI PUSH1 0x1 SWAP2 POP POP PUSH2 0x588 JUMP JUMPDEST PUSH0 SWAP2 POP POP JUMPDEST SWAP3 SWAP2 POP POP JUMP JUMPDEST PUSH0 DUP3 DUP3 DUP6 DUP8 PUSH1 0x40 MLOAD PUSH1 0x20 ADD PUSH2 0x5A6 SWAP5 SWAP4 SWAP3 SWAP2 SWAP1 PUSH2 0x9CB JUMP JUMPDEST PUSH1 0x40 MLOAD PUSH1 0x20 DUP2 DUP4 SUB SUB DUP2 MSTORE SWAP1 PUSH1 0x40 MSTORE DUP1 MLOAD SWAP1 PUSH1 0x20 ADD KECCAK256 PUSH0 SHR SWAP1 POP PUSH0 PUSH1 0x1 PUSH0 DUP7 PUSH20 0xFFFFFFFFFFFFFFFFFFFFFFFFFFFFFFFFFFFFFFFF AND PUSH20 0xFFFFFFFFFFFFFFFFFFFFFFFFFFFFFFFFFFFFFFFF AND DUP2 MSTORE PUSH1 0x20 ADD SWAP1 DUP2 MSTORE PUSH1 0x20 ADD PUSH0 KECCAK256 PUSH0 DUP4 DUP2 MSTORE PUSH1 0x20 ADD SWAP1 DUP2 MSTORE PUSH1 0x20 ADD PUSH0 KECCAK256 PUSH0 ADD SLOAD EQ PUSH2 0x650 JUMPI PUSH1 0x40 MLOAD PUSH32 0x8C379A000000000000000000000000000000000000000000000000000000000 DUP2 MSTORE PUSH1 0x4 ADD PUSH2 0x647 SWAP1 PUSH2 0xAF0 JUMP JUMPDEST PUSH1 0x40 MLOAD DUP1 SWAP2 SUB SWAP1 REVERT JUMPDEST PUSH0 PUSH1 0x40 MLOAD DUP1 PUSH1 0x80 ADD PUSH1 0x40 MSTORE DUP1 DUP4 DUP2 MSTORE PUSH1 0x20 ADD DUP6 DUP2 MSTORE PUSH1 0x20 ADD DUP5 DUP2 MSTORE PUSH1 0x20 ADD DUP8 PUSH20 0xFFFFFFFFFFFFFFFFFFFFFFFFFFFFFFFFFFFFFFFF AND DUP2 MSTORE POP SWAP1 POP DUP1 PUSH1 0x1 PUSH0 DUP8 PUSH20 0xFFFFFFFFFFFFFFFFFFFFFFFFFFFFFFFFFFFFFFFF AND PUSH20 0xFFFFFFFFFFFFFFFFFFFFFFFFFFFFFFFFFFFFFFFF AND DUP2 MSTORE PUSH1 0x20 ADD SWAP1 DUP2 MSTORE PUSH1 0x20 ADD PUSH0 KECCAK256 PUSH0 DUP5 DUP2 MSTORE PUSH1 0x20 ADD SWAP1 DUP2 MSTORE PUSH1 0x20 ADD PUSH0 KECCAK256 PUSH0 DUP3 ADD MLOAD DUP2 PUSH0 ADD SSTORE PUSH1 0x20 DUP3 ADD MLOAD DUP2 PUSH1 0x1 ADD SSTORE PUSH1 0x40 DUP3 ADD MLOAD DUP2 PUSH1 0x2 ADD SSTORE PUSH1 0x60 DUP3 ADD MLOAD DUP2 PUSH1 0x3 ADD PUSH0 PUSH2 0x100 EXP DUP2 SLOAD DUP2 PUSH20 0xFFFFFFFFFFFFFFFFFFFFFFFFFFFFFFFFFFFFFFFF MUL NOT AND SWAP1 DUP4 PUSH20 0xFFFFFFFFFFFFFFFFFFFFFFFFFFFFFFFFFFFFFFFF AND MUL OR SWAP1 SSTORE POP SWAP1 POP POP POP POP POP POP POP POP JUMP JUMPDEST PUSH0 DUP1 REVERT JUMPDEST PUSH0 PUSH20 0xFFFFFFFFFFFFFFFFFFFFFFFFFFFFFFFFFFFFFFFF DUP3 AND SWAP1 POP SWAP2 SWAP1 POP JUMP JUMPDEST PUSH0 PUSH2 0x771 DUP3 PUSH2 0x748 JUMP JUMPDEST SWAP1 POP SWAP2 SWAP1 POP JUMP JUMPDEST PUSH2 0x781 DUP2 PUSH2 0x767 JUMP JUMPDEST DUP2 EQ PUSH2 0x78B JUMPI PUSH0 DUP1 REVERT JUMPDEST POP JUMP JUMPDEST PUSH0 DUP2 CALLDATALOAD SWAP1 POP PUSH2 0x79C DUP2 PUSH2 0x778 JUMP JUMPDEST SWAP3 SWAP2 POP POP JUMP JUMPDEST PUSH0 DUP2 SWAP1 POP SWAP2 SWAP1 POP JUMP JUMPDEST PUSH2 0x7B4 DUP2 PUSH2 0x7A2 JUMP JUMPDEST DUP2 EQ PUSH2 0x7BE JUMPI PUSH0 DUP1 REVERT JUMPDEST POP JUMP JUMPDEST PUSH0 DUP2 CALLDATALOAD SWAP1 POP PUSH2 0x7CF DUP2 PUSH2 0x7AB JUMP JUMPDEST SWAP3 SWAP2 POP POP JUMP JUMPDEST PUSH0 DUP1 PUSH1 0x40 DUP4 DUP6 SUB SLT ISZERO PUSH2 0x7EB JUMPI PUSH2 0x7EA PUSH2 0x744 JUMP JUMPDEST JUMPDEST PUSH0 PUSH2 0x7F8 DUP6 DUP3 DUP7 ADD PUSH2 0x78E JUMP JUMPDEST SWAP3 POP POP PUSH1 0x20 PUSH2 0x809 DUP6 DUP3 DUP7 ADD PUSH2 0x7C1 JUMP JUMPDEST SWAP2 POP POP SWAP3 POP SWAP3 SWAP1 POP JUMP JUMPDEST PUSH2 0x81C DUP2 PUSH2 0x7A2 JUMP JUMPDEST DUP3 MSTORE POP POP JUMP JUMPDEST PUSH0 PUSH1 0x60 DUP3 ADD SWAP1 POP PUSH2 0x835 PUSH0 DUP4 ADD DUP7 PUSH2 0x813 JUMP JUMPDEST PUSH2 0x842 PUSH1 0x20 DUP4 ADD DUP6 PUSH2 0x813 JUMP JUMPDEST PUSH2 0x84F PUSH1 0x40 DUP4 ADD DUP5 PUSH2 0x813 JUMP JUMPDEST SWAP5 SWAP4 POP POP POP POP JUMP JUMPDEST PUSH0 DUP2 ISZERO ISZERO SWAP1 POP SWAP2 SWAP1 POP JUMP JUMPDEST PUSH2 0x86B DUP2 PUSH2 0x857 JUMP JUMPDEST DUP3 MSTORE POP POP JUMP JUMPDEST PUSH0 PUSH1 0x20 DUP3 ADD SWAP1 POP PUSH2 0x884 PUSH0 DUP4 ADD DUP5 PUSH2 0x862 JUMP JUMPDEST SWAP3 SWAP2 POP POP JUMP JUMPDEST PUSH0 DUP1 PUSH0 DUP1 PUSH1 0x80 DUP6 DUP8 SUB SLT ISZERO PUSH2 0x8A2 JUMPI PUSH2 0x8A1 PUSH2 0x744 JUMP JUMPDEST JUMPDEST PUSH0 PUSH2 0x8AF DUP8 DUP3 DUP9 ADD PUSH2 0x78E JUMP JUMPDEST SWAP5 POP POP PUSH1 0x20 PUSH2 0x8C0 DUP8 DUP3 DUP9 ADD PUSH2 0x78E JUMP JUMPDEST SWAP4 POP POP PUSH1 0x40 PUSH2 0x8D1 DUP8 DUP3 DUP9 ADD PUSH2 0x7C1 JUMP JUMPDEST SWAP3 POP POP PUSH1 0x60 PUSH2 0x8E2 DUP8 DUP3 DUP9 ADD PUSH2 0x7C1 JUMP JUMPDEST SWAP2 POP POP SWAP3 SWAP6 SWAP2 SWAP5 POP SWAP3 POP JUMP JUMPDEST PUSH0 DUP3 DUP3 MSTORE PUSH1 0x20 DUP3 ADD SWAP1 POP SWAP3 SWAP2 POP POP JUMP JUMPDEST PUSH32 0x50617274697461206469204C61747465206E6F6E2070726573656E7465210000 PUSH0 DUP3 ADD MSTORE POP JUMP JUMPDEST PUSH0 PUSH2 0x932 PUSH1 0x1E DUP4 PUSH2 0x8EE JUMP JUMPDEST SWAP2 POP PUSH2 0x93D DUP3 PUSH2 0x8FE JUMP JUMPDEST PUSH1 0x20 DUP3 ADD SWAP1 POP SWAP2 SWAP1 POP JUMP JUMPDEST PUSH0 PUSH1 0x20 DUP3 ADD SWAP1 POP DUP2 DUP2 SUB PUSH0 DUP4 ADD MSTORE PUSH2 0x95F DUP2 PUSH2 0x926 JUMP JUMPDEST SWAP1 POP SWAP2 SWAP1 POP JUMP JUMPDEST PUSH0 DUP2 SWAP1 POP SWAP2 SWAP1 POP JUMP JUMPDEST PUSH2 0x980 PUSH2 0x97B DUP3 PUSH2 0x7A2 JUMP JUMPDEST PUSH2 0x966 JUMP JUMPDEST DUP3 MSTORE POP POP JUMP JUMPDEST PUSH0 DUP2 PUSH1 0x60 SHL SWAP1 POP SWAP2 SWAP1 POP JUMP JUMPDEST PUSH0 PUSH2 0x99C DUP3 PUSH2 0x986 JUMP JUMPDEST SWAP1 POP SWAP2 SWAP1 POP JUMP JUMPDEST PUSH0 PUSH2 0x9AD DUP3 PUSH2 0x992 JUMP JUMPDEST SWAP1 POP SWAP2 SWAP1 POP JUMP JUMPDEST PUSH2 0x9C5 PUSH2 0x9C0 DUP3 PUSH2 0x767 JUMP JUMPDEST PUSH2 0x9A3 JUMP JUMPDEST DUP3 MSTORE POP POP JUMP JUMPDEST PUSH0 PUSH2 0x9D6 DUP3 DUP8 PUSH2 0x96F JUMP JUMPDEST PUSH1 0x20 DUP3 ADD SWAP2 POP PUSH2 0x9E6 DUP3 DUP7 PUSH2 0x96F JUMP JUMPDEST PUSH1 0x20 DUP3 ADD SWAP2 POP PUSH2 0x9F6 DUP3 DUP6 PUSH2 0x9B4 JUMP JUMPDEST PUSH1 0x14 DUP3 ADD SWAP2 POP PUSH2 0xA06 DUP3 DUP5 PUSH2 0x9B4 JUMP JUMPDEST PUSH1 0x14 DUP3 ADD SWAP2 POP DUP2 SWAP1 POP SWAP6 SWAP5 POP POP POP POP POP JUMP JUMPDEST PUSH32 0x5574656E7465206E6F6E204175746F72697A7A61746F21000000000000000000 PUSH0 DUP3 ADD MSTORE POP JUMP JUMPDEST PUSH0 PUSH2 0xA4C PUSH1 0x17 DUP4 PUSH2 0x8EE JUMP JUMPDEST SWAP2 POP PUSH2 0xA57 DUP3 PUSH2 0xA18 JUMP JUMPDEST PUSH1 0x20 DUP3 ADD SWAP1 POP SWAP2 SWAP1 POP JUMP JUMPDEST PUSH0 PUSH1 0x20 DUP3 ADD SWAP1 POP DUP2 DUP2 SUB PUSH0 DUP4 ADD MSTORE PUSH2 0xA79 DUP2 PUSH2 0xA40 JUMP JUMPDEST SWAP1 POP SWAP2 SWAP1 POP JUMP JUMPDEST PUSH32 0x50657A7A6F20646920466F726D616767696F20676961272070726573656E7465 PUSH0 DUP3 ADD MSTORE PUSH32 0x2100000000000000000000000000000000000000000000000000000000000000 PUSH1 0x20 DUP3 ADD MSTORE POP JUMP JUMPDEST PUSH0 PUSH2 0xADA PUSH1 0x21 DUP4 PUSH2 0x8EE JUMP JUMPDEST SWAP2 POP PUSH2 0xAE5 DUP3 PUSH2 0xA80 JUMP JUMPDEST PUSH1 0x40 DUP3 ADD SWAP1 POP SWAP2 SWAP1 POP JUMP JUMPDEST PUSH0 PUSH1 0x20 DUP3 ADD SWAP1 POP DUP2 DUP2 SUB PUSH0 DUP4 ADD MSTORE PUSH2 0xB07 DUP2 PUSH2 0xACE JUMP JUMPDEST SWAP1 POP SWAP2 SWAP1 POP JUMP INVALID LOG2 PUSH5 0x6970667358 0x22 SLT KECCAK256 SWAP10 0x23 0x49 PUSH30 0x5B4FA6025262DD2B03135A4DB1F9E18BF735B4FA3F40400EEF05CC0B6473 PUSH16 0x6C634300081600330000000000000000 "
				},
				"gasEstimates": {
					"creation": {
						"codeDepositCost": "576800",
						"executionCost": "24876",
						"totalCost": "601676"
					},
					"external": {
						"addCheesePiece(address,address,uint256,uint256)": "infinite",
						"deleteCheesePiece(address,uint256)": "infinite",
						"getCheesePiece(address,uint256)": "infinite"
					}
				},
				"methodIdentifiers": {
					"addCheesePiece(address,address,uint256,uint256)": "ba694bd2",
					"deleteCheesePiece(address,uint256)": "348b4c5a",
					"getCheesePiece(address,uint256)": "0b7aa473"
				}
			},
			"storageLayout": {
				"storage": [
					{
						"astId": 3,
						"contract": "contracts/Actor/Consumer-smart-contract/inventory/ConsumerInventoryStorage.sol:ConsumerInventoryStorage",
						"label": "ConsumerOrg",
						"offset": 0,
						"slot": "0",
						"type": "t_address"
					},
					{
						"astId": 28,
						"contract": "contracts/Actor/Consumer-smart-contract/inventory/ConsumerInventoryStorage.sol:ConsumerInventoryStorage",
						"label": "cheesePieces",
						"offset": 0,
						"slot": "1",
						"type": "t_mapping(t_address,t_mapping(t_uint256,t_struct(CheesePiece)21_storage))"
					}
				],
				"types": {
					"t_address": {
						"encoding": "inplace",
						"label": "address",
						"numberOfBytes": "20"
					},
					"t_mapping(t_address,t_mapping(t_uint256,t_struct(CheesePiece)21_storage))": {
						"encoding": "mapping",
						"key": "t_address",
						"label": "mapping(address => mapping(uint256 => struct ConsumerInventoryStorage.CheesePiece))",
						"numberOfBytes": "32",
						"value": "t_mapping(t_uint256,t_struct(CheesePiece)21_storage)"
					},
					"t_mapping(t_uint256,t_struct(CheesePiece)21_storage)": {
						"encoding": "mapping",
						"key": "t_uint256",
						"label": "mapping(uint256 => struct ConsumerInventoryStorage.CheesePiece)",
						"numberOfBytes": "32",
						"value": "t_struct(CheesePiece)21_storage"
					},
					"t_struct(CheesePiece)21_storage": {
						"encoding": "inplace",
						"label": "struct ConsumerInventoryStorage.CheesePiece",
						"members": [
							{
								"astId": 14,
								"contract": "contracts/Actor/Consumer-smart-contract/inventory/ConsumerInventoryStorage.sol:ConsumerInventoryStorage",
								"label": "id",
								"offset": 0,
								"slot": "0",
								"type": "t_uint256"
							},
							{
								"astId": 16,
								"contract": "contracts/Actor/Consumer-smart-contract/inventory/ConsumerInventoryStorage.sol:ConsumerInventoryStorage",
								"label": "quantityTotal",
								"offset": 0,
								"slot": "1",
								"type": "t_uint256"
							},
							{
								"astId": 18,
								"contract": "contracts/Actor/Consumer-smart-contract/inventory/ConsumerInventoryStorage.sol:ConsumerInventoryStorage",
								"label": "pricePerKg",
								"offset": 0,
								"slot": "2",
								"type": "t_uint256"
							},
							{
								"astId": 20,
								"contract": "contracts/Actor/Consumer-smart-contract/inventory/ConsumerInventoryStorage.sol:ConsumerInventoryStorage",
								"label": "walletRetailer",
								"offset": 0,
								"slot": "3",
								"type": "t_address"
							}
						],
						"numberOfBytes": "128"
					},
					"t_uint256": {
						"encoding": "inplace",
						"label": "uint256",
						"numberOfBytes": "32"
					}
				}
			},
			"userdoc": {
				"kind": "user",
				"methods": {},
				"version": 1
			}
		}
	}
}