{
	"contracts/Actor/Consumer-smart-contract/inventory/ConsumerInventoryService.sol": {
		"ConsumerInventoryService": {
			"abi": [
				{
					"inputs": [
						{
							"internalType": "address",
							"name": "_consumerInventoryStorage",
							"type": "address"
						}
					],
					"stateMutability": "nonpayable",
					"type": "constructor"
				},
				{
					"anonymous": false,
					"inputs": [
						{
							"indexed": true,
							"internalType": "address",
							"name": "userAddress",
							"type": "address"
						},
						{
							"indexed": false,
							"internalType": "string",
							"name": "message",
							"type": "string"
						},
						{
							"indexed": false,
							"internalType": "string",
							"name": "dop",
							"type": "string"
						},
						{
							"indexed": false,
							"internalType": "uint256",
							"name": "quantity",
							"type": "uint256"
						},
						{
							"indexed": false,
							"internalType": "uint256",
							"name": "price",
							"type": "uint256"
						}
					],
					"name": "CheesePieceAdded",
					"type": "event"
				},
				{
					"anonymous": false,
					"inputs": [
						{
							"indexed": true,
							"internalType": "address",
							"name": "userAddress",
							"type": "address"
						},
						{
							"indexed": true,
							"internalType": "uint256",
							"name": "id",
							"type": "uint256"
						},
						{
							"indexed": false,
							"internalType": "string",
							"name": "message",
							"type": "string"
						}
					],
					"name": "CheesePieceDeleted",
					"type": "event"
				},
				{
					"inputs": [
						{
							"internalType": "address",
							"name": "walletRetailer",
							"type": "address"
						},
						{
							"internalType": "string",
							"name": "_dop",
							"type": "string"
						},
						{
							"internalType": "uint256",
							"name": "_quantity",
							"type": "uint256"
						},
						{
							"internalType": "uint256",
							"name": "_price",
							"type": "uint256"
						}
					],
					"name": "addCheesePiece",
					"outputs": [],
					"stateMutability": "nonpayable",
					"type": "function"
				},
				{
					"inputs": [
						{
							"internalType": "uint256",
							"name": "_id",
							"type": "uint256"
						}
					],
					"name": "deleteCheesePiece",
					"outputs": [
						{
							"internalType": "bool",
							"name": "value",
							"type": "bool"
						}
					],
					"stateMutability": "nonpayable",
					"type": "function"
				},
				{
					"inputs": [
						{
							"internalType": "uint256",
							"name": "_id",
							"type": "uint256"
						}
					],
					"name": "getCheesePiece",
					"outputs": [
						{
							"internalType": "uint256",
							"name": "",
							"type": "uint256"
						},
						{
							"internalType": "string",
							"name": "",
							"type": "string"
						},
						{
							"internalType": "uint256",
							"name": "",
							"type": "uint256"
						},
						{
							"internalType": "uint256",
							"name": "",
							"type": "uint256"
						},
						{
							"internalType": "uint256",
							"name": "",
							"type": "uint256"
						}
					],
					"stateMutability": "view",
					"type": "function"
				}
			],
			"devdoc": {
				"kind": "dev",
				"methods": {},
				"version": 1
			},
			"evm": {
				"assembly": "    /* \"contracts/Actor/Consumer-smart-contract/inventory/ConsumerInventoryService.sol\":106:2235  contract ConsumerInventoryService {... */\n  mstore(0x40, 0x80)\n    /* \"contracts/Actor/Consumer-smart-contract/inventory/ConsumerInventoryService.sol\":309:487  constructor(address _consumerInventoryStorage){... */\n  callvalue\n  dup1\n  iszero\n  tag_1\n  jumpi\n  0x00\n  dup1\n  revert\ntag_1:\n  pop\n  mload(0x40)\n  sub(codesize, bytecodeSize)\n  dup1\n  bytecodeSize\n  dup4\n  codecopy\n  dup2\n  dup2\n  add\n  0x40\n  mstore\n  dup2\n  add\n  swap1\n  tag_2\n  swap2\n  swap1\n  tag_3\n  jump\t// in\ntag_2:\n    /* \"contracts/Actor/Consumer-smart-contract/inventory/ConsumerInventoryService.sol\":380:390  msg.sender */\n  caller\n    /* \"contracts/Actor/Consumer-smart-contract/inventory/ConsumerInventoryService.sol\":366:377  ConsumerOrg */\n  0x00\n  dup1\n    /* \"contracts/Actor/Consumer-smart-contract/inventory/ConsumerInventoryService.sol\":366:390  ConsumerOrg = msg.sender */\n  0x0100\n  exp\n  dup2\n  sload\n  dup2\n  0xffffffffffffffffffffffffffffffffffffffff\n  mul\n  not\n  and\n  swap1\n  dup4\n  0xffffffffffffffffffffffffffffffffffffffff\n  and\n  mul\n  or\n  swap1\n  sstore\n  pop\n    /* \"contracts/Actor/Consumer-smart-contract/inventory/ConsumerInventoryService.sol\":453:478  _consumerInventoryStorage */\n  dup1\n    /* \"contracts/Actor/Consumer-smart-contract/inventory/ConsumerInventoryService.sol\":401:425  consumerInventoryStorage */\n  0x01\n  0x00\n    /* \"contracts/Actor/Consumer-smart-contract/inventory/ConsumerInventoryService.sol\":401:479  consumerInventoryStorage = ConsumerInventoryStorage(_consumerInventoryStorage) */\n  0x0100\n  exp\n  dup2\n  sload\n  dup2\n  0xffffffffffffffffffffffffffffffffffffffff\n  mul\n  not\n  and\n  swap1\n  dup4\n  0xffffffffffffffffffffffffffffffffffffffff\n  and\n  mul\n  or\n  swap1\n  sstore\n  pop\n    /* \"contracts/Actor/Consumer-smart-contract/inventory/ConsumerInventoryService.sol\":309:487  constructor(address _consumerInventoryStorage){... */\n  pop\n    /* \"contracts/Actor/Consumer-smart-contract/inventory/ConsumerInventoryService.sol\":106:2235  contract ConsumerInventoryService {... */\n  jump(tag_6)\n    /* \"#utility.yul\":88:205   */\ntag_8:\n    /* \"#utility.yul\":197:198   */\n  0x00\n    /* \"#utility.yul\":194:195   */\n  dup1\n    /* \"#utility.yul\":187:199   */\n  revert\n    /* \"#utility.yul\":334:460   */\ntag_10:\n    /* \"#utility.yul\":371:378   */\n  0x00\n    /* \"#utility.yul\":411:453   */\n  0xffffffffffffffffffffffffffffffffffffffff\n    /* \"#utility.yul\":404:409   */\n  dup3\n    /* \"#utility.yul\":400:454   */\n  and\n    /* \"#utility.yul\":389:454   */\n  swap1\n  pop\n    /* \"#utility.yul\":334:460   */\n  swap2\n  swap1\n  pop\n  jump\t// out\n    /* \"#utility.yul\":466:562   */\ntag_11:\n    /* \"#utility.yul\":503:510   */\n  0x00\n    /* \"#utility.yul\":532:556   */\n  tag_20\n    /* \"#utility.yul\":550:555   */\n  dup3\n    /* \"#utility.yul\":532:556   */\n  tag_10\n  jump\t// in\ntag_20:\n    /* \"#utility.yul\":521:556   */\n  swap1\n  pop\n    /* \"#utility.yul\":466:562   */\n  swap2\n  swap1\n  pop\n  jump\t// out\n    /* \"#utility.yul\":568:690   */\ntag_12:\n    /* \"#utility.yul\":641:665   */\n  tag_22\n    /* \"#utility.yul\":659:664   */\n  dup2\n    /* \"#utility.yul\":641:665   */\n  tag_11\n  jump\t// in\ntag_22:\n    /* \"#utility.yul\":634:639   */\n  dup2\n    /* \"#utility.yul\":631:666   */\n  eq\n    /* \"#utility.yul\":621:684   */\n  tag_23\n  jumpi\n    /* \"#utility.yul\":680:681   */\n  0x00\n    /* \"#utility.yul\":677:678   */\n  dup1\n    /* \"#utility.yul\":670:682   */\n  revert\n    /* \"#utility.yul\":621:684   */\ntag_23:\n    /* \"#utility.yul\":568:690   */\n  pop\n  jump\t// out\n    /* \"#utility.yul\":696:839   */\ntag_13:\n    /* \"#utility.yul\":753:758   */\n  0x00\n    /* \"#utility.yul\":784:790   */\n  dup2\n    /* \"#utility.yul\":778:791   */\n  mload\n    /* \"#utility.yul\":769:791   */\n  swap1\n  pop\n    /* \"#utility.yul\":800:833   */\n  tag_25\n    /* \"#utility.yul\":827:832   */\n  dup2\n    /* \"#utility.yul\":800:833   */\n  tag_12\n  jump\t// in\ntag_25:\n    /* \"#utility.yul\":696:839   */\n  swap3\n  swap2\n  pop\n  pop\n  jump\t// out\n    /* \"#utility.yul\":845:1196   */\ntag_3:\n    /* \"#utility.yul\":915:921   */\n  0x00\n    /* \"#utility.yul\":964:966   */\n  0x20\n    /* \"#utility.yul\":952:961   */\n  dup3\n    /* \"#utility.yul\":943:950   */\n  dup5\n    /* \"#utility.yul\":939:962   */\n  sub\n    /* \"#utility.yul\":935:967   */\n  slt\n    /* \"#utility.yul\":932:1051   */\n  iszero\n  tag_27\n  jumpi\n    /* \"#utility.yul\":970:1049   */\n  tag_28\n  tag_8\n  jump\t// in\ntag_28:\n    /* \"#utility.yul\":932:1051   */\ntag_27:\n    /* \"#utility.yul\":1090:1091   */\n  0x00\n    /* \"#utility.yul\":1115:1179   */\n  tag_29\n    /* \"#utility.yul\":1171:1178   */\n  dup5\n    /* \"#utility.yul\":1162:1168   */\n  dup3\n    /* \"#utility.yul\":1151:1160   */\n  dup6\n    /* \"#utility.yul\":1147:1169   */\n  add\n    /* \"#utility.yul\":1115:1179   */\n  tag_13\n  jump\t// in\ntag_29:\n    /* \"#utility.yul\":1105:1179   */\n  swap2\n  pop\n    /* \"#utility.yul\":1061:1189   */\n  pop\n    /* \"#utility.yul\":845:1196   */\n  swap3\n  swap2\n  pop\n  pop\n  jump\t// out\n    /* \"contracts/Actor/Consumer-smart-contract/inventory/ConsumerInventoryService.sol\":106:2235  contract ConsumerInventoryService {... */\ntag_6:\n  dataSize(sub_0)\n  dup1\n  dataOffset(sub_0)\n  0x00\n  codecopy\n  0x00\n  return\nstop\n\nsub_0: assembly {\n        /* \"contracts/Actor/Consumer-smart-contract/inventory/ConsumerInventoryService.sol\":106:2235  contract ConsumerInventoryService {... */\n      mstore(0x40, 0x80)\n      callvalue\n      dup1\n      iszero\n      tag_1\n      jumpi\n      0x00\n      dup1\n      revert\n    tag_1:\n      pop\n      jumpi(tag_2, lt(calldatasize, 0x04))\n      shr(0xe0, calldataload(0x00))\n      dup1\n      0x618943d8\n      eq\n      tag_3\n      jumpi\n      dup1\n      0xb3b95f15\n      eq\n      tag_4\n      jumpi\n      dup1\n      0xcf4dfd89\n      eq\n      tag_5\n      jumpi\n    tag_2:\n      0x00\n      dup1\n      revert\n        /* \"contracts/Actor/Consumer-smart-contract/inventory/ConsumerInventoryService.sol\":779:1363  function addCheesePiece(address walletRetailer, string memory _dop, uint256 _quantity, uint256 _price) external {... */\n    tag_3:\n      tag_6\n      0x04\n      dup1\n      calldatasize\n      sub\n      dup2\n      add\n      swap1\n      tag_7\n      swap2\n      swap1\n      tag_8\n      jump\t// in\n    tag_7:\n      tag_9\n      jump\t// in\n    tag_6:\n      stop\n        /* \"contracts/Actor/Consumer-smart-contract/inventory/ConsumerInventoryService.sol\":1411:1690  function getCheesePiece(uint256 _id) external view returns (uint256, string memory, uint256, uint256, uint256) {... */\n    tag_4:\n      tag_10\n      0x04\n      dup1\n      calldatasize\n      sub\n      dup2\n      add\n      swap1\n      tag_11\n      swap2\n      swap1\n      tag_12\n      jump\t// in\n    tag_11:\n      tag_13\n      jump\t// in\n    tag_10:\n      mload(0x40)\n      tag_14\n      swap6\n      swap5\n      swap4\n      swap3\n      swap2\n      swap1\n      tag_15\n      jump\t// in\n    tag_14:\n      mload(0x40)\n      dup1\n      swap2\n      sub\n      swap1\n      return\n        /* \"contracts/Actor/Consumer-smart-contract/inventory/ConsumerInventoryService.sol\":1818:2232  function deleteCheesePiece(uint256 _id) external returns(bool value) {... */\n    tag_5:\n      tag_16\n      0x04\n      dup1\n      calldatasize\n      sub\n      dup2\n      add\n      swap1\n      tag_17\n      swap2\n      swap1\n      tag_12\n      jump\t// in\n    tag_17:\n      tag_18\n      jump\t// in\n    tag_16:\n      mload(0x40)\n      tag_19\n      swap2\n      swap1\n      tag_20\n      jump\t// in\n    tag_19:\n      mload(0x40)\n      dup1\n      swap2\n      sub\n      swap1\n      return\n        /* \"contracts/Actor/Consumer-smart-contract/inventory/ConsumerInventoryService.sol\":779:1363  function addCheesePiece(address walletRetailer, string memory _dop, uint256 _quantity, uint256 _price) external {... */\n    tag_9:\n        /* \"contracts/Actor/Consumer-smart-contract/inventory/ConsumerInventoryService.sol\":902:924  address walletConsumer */\n      0x00\n        /* \"contracts/Actor/Consumer-smart-contract/inventory/ConsumerInventoryService.sol\":927:937  msg.sender */\n      caller\n        /* \"contracts/Actor/Consumer-smart-contract/inventory/ConsumerInventoryService.sol\":902:937  address walletConsumer = msg.sender */\n      swap1\n      pop\n        /* \"contracts/Actor/Consumer-smart-contract/inventory/ConsumerInventoryService.sol\":1042:1053  ConsumerOrg */\n      0x00\n      dup1\n      sload\n      swap1\n      0x0100\n      exp\n      swap1\n      div\n      0xffffffffffffffffffffffffffffffffffffffff\n      and\n        /* \"contracts/Actor/Consumer-smart-contract/inventory/ConsumerInventoryService.sol\":1024:1053  walletConsumer != ConsumerOrg */\n      0xffffffffffffffffffffffffffffffffffffffff\n      and\n        /* \"contracts/Actor/Consumer-smart-contract/inventory/ConsumerInventoryService.sol\":1024:1038  walletConsumer */\n      dup2\n        /* \"contracts/Actor/Consumer-smart-contract/inventory/ConsumerInventoryService.sol\":1024:1053  walletConsumer != ConsumerOrg */\n      0xffffffffffffffffffffffffffffffffffffffff\n      and\n      sub\n        /* \"contracts/Actor/Consumer-smart-contract/inventory/ConsumerInventoryService.sol\":1016:1076  require(walletConsumer != ConsumerOrg,\"Address non Valido!\") */\n      tag_22\n      jumpi\n      mload(0x40)\n      0x08c379a000000000000000000000000000000000000000000000000000000000\n      dup2\n      mstore\n      0x04\n      add\n      tag_23\n      swap1\n      tag_24\n      jump\t// in\n    tag_23:\n      mload(0x40)\n      dup1\n      swap2\n      sub\n      swap1\n      revert\n    tag_22:\n        /* \"contracts/Actor/Consumer-smart-contract/inventory/ConsumerInventoryService.sol\":1124:1148  consumerInventoryStorage */\n      0x01\n      0x00\n      swap1\n      sload\n      swap1\n      0x0100\n      exp\n      swap1\n      div\n      0xffffffffffffffffffffffffffffffffffffffff\n      and\n        /* \"contracts/Actor/Consumer-smart-contract/inventory/ConsumerInventoryService.sol\":1124:1163  consumerInventoryStorage.addCheesePiece */\n      0xffffffffffffffffffffffffffffffffffffffff\n      and\n      0xba694bd2\n        /* \"contracts/Actor/Consumer-smart-contract/inventory/ConsumerInventoryService.sol\":1164:1178  walletConsumer */\n      dup3\n        /* \"contracts/Actor/Consumer-smart-contract/inventory/ConsumerInventoryService.sol\":1180:1194  walletRetailer */\n      dup8\n        /* \"contracts/Actor/Consumer-smart-contract/inventory/ConsumerInventoryService.sol\":1196:1205  _quantity */\n      dup7\n        /* \"contracts/Actor/Consumer-smart-contract/inventory/ConsumerInventoryService.sol\":1207:1213  _price */\n      dup7\n        /* \"contracts/Actor/Consumer-smart-contract/inventory/ConsumerInventoryService.sol\":1124:1214  consumerInventoryStorage.addCheesePiece(walletConsumer, walletRetailer, _quantity, _price) */\n      mload(0x40)\n      dup6\n      0xffffffff\n      and\n      0xe0\n      shl\n      dup2\n      mstore\n      0x04\n      add\n      tag_25\n      swap5\n      swap4\n      swap3\n      swap2\n      swap1\n      tag_26\n      jump\t// in\n    tag_25:\n      0x00\n      mload(0x40)\n      dup1\n      dup4\n      sub\n      dup2\n      0x00\n      dup8\n      dup1\n      extcodesize\n      iszero\n      dup1\n      iszero\n      tag_27\n      jumpi\n      0x00\n      dup1\n      revert\n    tag_27:\n      pop\n      gas\n      call\n      iszero\n      dup1\n      iszero\n      tag_29\n      jumpi\n      returndatasize\n      0x00\n      dup1\n      returndatacopy\n      revert(0x00, returndatasize)\n    tag_29:\n      pop\n      pop\n      pop\n      pop\n        /* \"contracts/Actor/Consumer-smart-contract/inventory/ConsumerInventoryService.sol\":1282:1296  walletConsumer */\n      dup1\n        /* \"contracts/Actor/Consumer-smart-contract/inventory/ConsumerInventoryService.sol\":1265:1355  CheesePieceAdded(walletConsumer, \"Pezzo di formaggio inserito !\", _dop, _quantity, _price) */\n      0xffffffffffffffffffffffffffffffffffffffff\n      and\n      0x221b0a4a1588d290749a1bf4e55cb6c2e002e5163307d8ac84d2b1a871a175fd\n        /* \"contracts/Actor/Consumer-smart-contract/inventory/ConsumerInventoryService.sol\":1331:1335  _dop */\n      dup6\n        /* \"contracts/Actor/Consumer-smart-contract/inventory/ConsumerInventoryService.sol\":1337:1346  _quantity */\n      dup6\n        /* \"contracts/Actor/Consumer-smart-contract/inventory/ConsumerInventoryService.sol\":1348:1354  _price */\n      dup6\n        /* \"contracts/Actor/Consumer-smart-contract/inventory/ConsumerInventoryService.sol\":1265:1355  CheesePieceAdded(walletConsumer, \"Pezzo di formaggio inserito !\", _dop, _quantity, _price) */\n      mload(0x40)\n      tag_30\n      swap4\n      swap3\n      swap2\n      swap1\n      tag_31\n      jump\t// in\n    tag_30:\n      mload(0x40)\n      dup1\n      swap2\n      sub\n      swap1\n      log2\n        /* \"contracts/Actor/Consumer-smart-contract/inventory/ConsumerInventoryService.sol\":891:1363  {... */\n      pop\n        /* \"contracts/Actor/Consumer-smart-contract/inventory/ConsumerInventoryService.sol\":779:1363  function addCheesePiece(address walletRetailer, string memory _dop, uint256 _quantity, uint256 _price) external {... */\n      pop\n      pop\n      pop\n      pop\n      jump\t// out\n        /* \"contracts/Actor/Consumer-smart-contract/inventory/ConsumerInventoryService.sol\":1411:1690  function getCheesePiece(uint256 _id) external view returns (uint256, string memory, uint256, uint256, uint256) {... */\n    tag_13:\n        /* \"contracts/Actor/Consumer-smart-contract/inventory/ConsumerInventoryService.sol\":1471:1478  uint256 */\n      0x00\n        /* \"contracts/Actor/Consumer-smart-contract/inventory/ConsumerInventoryService.sol\":1480:1493  string memory */\n      0x60\n        /* \"contracts/Actor/Consumer-smart-contract/inventory/ConsumerInventoryService.sol\":1495:1502  uint256 */\n      0x00\n        /* \"contracts/Actor/Consumer-smart-contract/inventory/ConsumerInventoryService.sol\":1504:1511  uint256 */\n      dup1\n        /* \"contracts/Actor/Consumer-smart-contract/inventory/ConsumerInventoryService.sol\":1513:1520  uint256 */\n      0x00\n        /* \"contracts/Actor/Consumer-smart-contract/inventory/ConsumerInventoryService.sol\":1566:1588  address walletConsumer */\n      dup1\n        /* \"contracts/Actor/Consumer-smart-contract/inventory/ConsumerInventoryService.sol\":1591:1601  msg.sender */\n      caller\n        /* \"contracts/Actor/Consumer-smart-contract/inventory/ConsumerInventoryService.sol\":1566:1601  address walletConsumer = msg.sender */\n      swap1\n      pop\n        /* \"contracts/Actor/Consumer-smart-contract/inventory/ConsumerInventoryService.sol\":1522:1690  {... */\n      pop\n        /* \"contracts/Actor/Consumer-smart-contract/inventory/ConsumerInventoryService.sol\":1411:1690  function getCheesePiece(uint256 _id) external view returns (uint256, string memory, uint256, uint256, uint256) {... */\n      swap2\n      swap4\n      swap6\n      swap1\n      swap3\n      swap5\n      pop\n      jump\t// out\n        /* \"contracts/Actor/Consumer-smart-contract/inventory/ConsumerInventoryService.sol\":1818:2232  function deleteCheesePiece(uint256 _id) external returns(bool value) {... */\n    tag_18:\n        /* \"contracts/Actor/Consumer-smart-contract/inventory/ConsumerInventoryService.sol\":1875:1885  bool value */\n      0x00\n        /* \"contracts/Actor/Consumer-smart-contract/inventory/ConsumerInventoryService.sol\":1931:1953  address walletConsumer */\n      dup1\n        /* \"contracts/Actor/Consumer-smart-contract/inventory/ConsumerInventoryService.sol\":1956:1966  msg.sender */\n      caller\n        /* \"contracts/Actor/Consumer-smart-contract/inventory/ConsumerInventoryService.sol\":1931:1966  address walletConsumer = msg.sender */\n      swap1\n      pop\n        /* \"contracts/Actor/Consumer-smart-contract/inventory/ConsumerInventoryService.sol\":1982:2006  consumerInventoryStorage */\n      0x01\n      0x00\n      swap1\n      sload\n      swap1\n      0x0100\n      exp\n      swap1\n      div\n      0xffffffffffffffffffffffffffffffffffffffff\n      and\n        /* \"contracts/Actor/Consumer-smart-contract/inventory/ConsumerInventoryService.sol\":1982:2024  consumerInventoryStorage.deleteCheesePiece */\n      0xffffffffffffffffffffffffffffffffffffffff\n      and\n      0x348b4c5a\n        /* \"contracts/Actor/Consumer-smart-contract/inventory/ConsumerInventoryService.sol\":2025:2039  walletConsumer */\n      dup3\n        /* \"contracts/Actor/Consumer-smart-contract/inventory/ConsumerInventoryService.sol\":2040:2043  _id */\n      dup6\n        /* \"contracts/Actor/Consumer-smart-contract/inventory/ConsumerInventoryService.sol\":1982:2044  consumerInventoryStorage.deleteCheesePiece(walletConsumer,_id) */\n      mload(0x40)\n      dup4\n      0xffffffff\n      and\n      0xe0\n      shl\n      dup2\n      mstore\n      0x04\n      add\n      tag_34\n      swap3\n      swap2\n      swap1\n      tag_35\n      jump\t// in\n    tag_34:\n      0x20\n      mload(0x40)\n      dup1\n      dup4\n      sub\n      dup2\n      0x00\n      dup8\n      gas\n      call\n      iszero\n      dup1\n      iszero\n      tag_37\n      jumpi\n      returndatasize\n      0x00\n      dup1\n      returndatacopy\n      revert(0x00, returndatasize)\n    tag_37:\n      pop\n      pop\n      pop\n      pop\n      mload(0x40)\n      returndatasize\n      not(0x1f)\n      0x1f\n      dup3\n      add\n      and\n      dup3\n      add\n      dup1\n      0x40\n      mstore\n      pop\n      dup2\n      add\n      swap1\n      tag_38\n      swap2\n      swap1\n      tag_39\n      jump\t// in\n    tag_38:\n        /* \"contracts/Actor/Consumer-smart-contract/inventory/ConsumerInventoryService.sol\":1979:2225  if(consumerInventoryStorage.deleteCheesePiece(walletConsumer,_id)){... */\n      iszero\n      tag_40\n      jumpi\n        /* \"contracts/Actor/Consumer-smart-contract/inventory/ConsumerInventoryService.sol\":2099:2102  _id */\n      dup3\n        /* \"contracts/Actor/Consumer-smart-contract/inventory/ConsumerInventoryService.sol\":2084:2098  walletConsumer */\n      dup2\n        /* \"contracts/Actor/Consumer-smart-contract/inventory/ConsumerInventoryService.sol\":2065:2143  CheesePieceDeleted(walletConsumer,_id,\"Pezzo di Formaggio e' stato eleminato\") */\n      0xffffffffffffffffffffffffffffffffffffffff\n      and\n      0xf1ddf4a841ff1ac53ffb214ad50cdd64aaf2e2bcbdad4fe073445d52fad07bc3\n      mload(0x40)\n      tag_41\n      swap1\n      tag_42\n      jump\t// in\n    tag_41:\n      mload(0x40)\n      dup1\n      swap2\n      sub\n      swap1\n      log3\n        /* \"contracts/Actor/Consumer-smart-contract/inventory/ConsumerInventoryService.sol\":2165:2169  true */\n      0x01\n        /* \"contracts/Actor/Consumer-smart-contract/inventory/ConsumerInventoryService.sol\":2158:2169  return true */\n      swap2\n      pop\n      pop\n      jump(tag_33)\n        /* \"contracts/Actor/Consumer-smart-contract/inventory/ConsumerInventoryService.sol\":1979:2225  if(consumerInventoryStorage.deleteCheesePiece(walletConsumer,_id)){... */\n    tag_40:\n        /* \"contracts/Actor/Consumer-smart-contract/inventory/ConsumerInventoryService.sol\":2208:2213  false */\n      0x00\n        /* \"contracts/Actor/Consumer-smart-contract/inventory/ConsumerInventoryService.sol\":2201:2213  return false */\n      swap2\n      pop\n      pop\n        /* \"contracts/Actor/Consumer-smart-contract/inventory/ConsumerInventoryService.sol\":1818:2232  function deleteCheesePiece(uint256 _id) external returns(bool value) {... */\n    tag_33:\n      swap2\n      swap1\n      pop\n      jump\t// out\n        /* \"#utility.yul\":7:82   */\n    tag_44:\n        /* \"#utility.yul\":40:46   */\n      0x00\n        /* \"#utility.yul\":73:75   */\n      0x40\n        /* \"#utility.yul\":67:76   */\n      mload\n        /* \"#utility.yul\":57:76   */\n      swap1\n      pop\n        /* \"#utility.yul\":7:82   */\n      swap1\n      jump\t// out\n        /* \"#utility.yul\":88:205   */\n    tag_45:\n        /* \"#utility.yul\":197:198   */\n      0x00\n        /* \"#utility.yul\":194:195   */\n      dup1\n        /* \"#utility.yul\":187:199   */\n      revert\n        /* \"#utility.yul\":211:328   */\n    tag_46:\n        /* \"#utility.yul\":320:321   */\n      0x00\n        /* \"#utility.yul\":317:318   */\n      dup1\n        /* \"#utility.yul\":310:322   */\n      revert\n        /* \"#utility.yul\":334:460   */\n    tag_47:\n        /* \"#utility.yul\":371:378   */\n      0x00\n        /* \"#utility.yul\":411:453   */\n      0xffffffffffffffffffffffffffffffffffffffff\n        /* \"#utility.yul\":404:409   */\n      dup3\n        /* \"#utility.yul\":400:454   */\n      and\n        /* \"#utility.yul\":389:454   */\n      swap1\n      pop\n        /* \"#utility.yul\":334:460   */\n      swap2\n      swap1\n      pop\n      jump\t// out\n        /* \"#utility.yul\":466:562   */\n    tag_48:\n        /* \"#utility.yul\":503:510   */\n      0x00\n        /* \"#utility.yul\":532:556   */\n      tag_86\n        /* \"#utility.yul\":550:555   */\n      dup3\n        /* \"#utility.yul\":532:556   */\n      tag_47\n      jump\t// in\n    tag_86:\n        /* \"#utility.yul\":521:556   */\n      swap1\n      pop\n        /* \"#utility.yul\":466:562   */\n      swap2\n      swap1\n      pop\n      jump\t// out\n        /* \"#utility.yul\":568:690   */\n    tag_49:\n        /* \"#utility.yul\":641:665   */\n      tag_88\n        /* \"#utility.yul\":659:664   */\n      dup2\n        /* \"#utility.yul\":641:665   */\n      tag_48\n      jump\t// in\n    tag_88:\n        /* \"#utility.yul\":634:639   */\n      dup2\n        /* \"#utility.yul\":631:666   */\n      eq\n        /* \"#utility.yul\":621:684   */\n      tag_89\n      jumpi\n        /* \"#utility.yul\":680:681   */\n      0x00\n        /* \"#utility.yul\":677:678   */\n      dup1\n        /* \"#utility.yul\":670:682   */\n      revert\n        /* \"#utility.yul\":621:684   */\n    tag_89:\n        /* \"#utility.yul\":568:690   */\n      pop\n      jump\t// out\n        /* \"#utility.yul\":696:835   */\n    tag_50:\n        /* \"#utility.yul\":742:747   */\n      0x00\n        /* \"#utility.yul\":780:786   */\n      dup2\n        /* \"#utility.yul\":767:787   */\n      calldataload\n        /* \"#utility.yul\":758:787   */\n      swap1\n      pop\n        /* \"#utility.yul\":796:829   */\n      tag_91\n        /* \"#utility.yul\":823:828   */\n      dup2\n        /* \"#utility.yul\":796:829   */\n      tag_49\n      jump\t// in\n    tag_91:\n        /* \"#utility.yul\":696:835   */\n      swap3\n      swap2\n      pop\n      pop\n      jump\t// out\n        /* \"#utility.yul\":841:958   */\n    tag_51:\n        /* \"#utility.yul\":950:951   */\n      0x00\n        /* \"#utility.yul\":947:948   */\n      dup1\n        /* \"#utility.yul\":940:952   */\n      revert\n        /* \"#utility.yul\":964:1081   */\n    tag_52:\n        /* \"#utility.yul\":1073:1074   */\n      0x00\n        /* \"#utility.yul\":1070:1071   */\n      dup1\n        /* \"#utility.yul\":1063:1075   */\n      revert\n        /* \"#utility.yul\":1087:1189   */\n    tag_53:\n        /* \"#utility.yul\":1128:1134   */\n      0x00\n        /* \"#utility.yul\":1179:1181   */\n      0x1f\n        /* \"#utility.yul\":1175:1182   */\n      not\n        /* \"#utility.yul\":1170:1172   */\n      0x1f\n        /* \"#utility.yul\":1163:1168   */\n      dup4\n        /* \"#utility.yul\":1159:1173   */\n      add\n        /* \"#utility.yul\":1155:1183   */\n      and\n        /* \"#utility.yul\":1145:1183   */\n      swap1\n      pop\n        /* \"#utility.yul\":1087:1189   */\n      swap2\n      swap1\n      pop\n      jump\t// out\n        /* \"#utility.yul\":1195:1375   */\n    tag_54:\n        /* \"#utility.yul\":1243:1320   */\n      0x4e487b7100000000000000000000000000000000000000000000000000000000\n        /* \"#utility.yul\":1240:1241   */\n      0x00\n        /* \"#utility.yul\":1233:1321   */\n      mstore\n        /* \"#utility.yul\":1340:1344   */\n      0x41\n        /* \"#utility.yul\":1337:1338   */\n      0x04\n        /* \"#utility.yul\":1330:1345   */\n      mstore\n        /* \"#utility.yul\":1364:1368   */\n      0x24\n        /* \"#utility.yul\":1361:1362   */\n      0x00\n        /* \"#utility.yul\":1354:1369   */\n      revert\n        /* \"#utility.yul\":1381:1662   */\n    tag_55:\n        /* \"#utility.yul\":1464:1491   */\n      tag_97\n        /* \"#utility.yul\":1486:1490   */\n      dup3\n        /* \"#utility.yul\":1464:1491   */\n      tag_53\n      jump\t// in\n    tag_97:\n        /* \"#utility.yul\":1456:1462   */\n      dup2\n        /* \"#utility.yul\":1452:1492   */\n      add\n        /* \"#utility.yul\":1594:1600   */\n      dup2\n        /* \"#utility.yul\":1582:1592   */\n      dup2\n        /* \"#utility.yul\":1579:1601   */\n      lt\n        /* \"#utility.yul\":1558:1576   */\n      0xffffffffffffffff\n        /* \"#utility.yul\":1546:1556   */\n      dup3\n        /* \"#utility.yul\":1543:1577   */\n      gt\n        /* \"#utility.yul\":1540:1602   */\n      or\n        /* \"#utility.yul\":1537:1625   */\n      iszero\n      tag_98\n      jumpi\n        /* \"#utility.yul\":1605:1623   */\n      tag_99\n      tag_54\n      jump\t// in\n    tag_99:\n        /* \"#utility.yul\":1537:1625   */\n    tag_98:\n        /* \"#utility.yul\":1645:1655   */\n      dup1\n        /* \"#utility.yul\":1641:1643   */\n      0x40\n        /* \"#utility.yul\":1634:1656   */\n      mstore\n        /* \"#utility.yul\":1424:1662   */\n      pop\n        /* \"#utility.yul\":1381:1662   */\n      pop\n      pop\n      jump\t// out\n        /* \"#utility.yul\":1668:1797   */\n    tag_56:\n        /* \"#utility.yul\":1702:1708   */\n      0x00\n        /* \"#utility.yul\":1729:1749   */\n      tag_101\n      tag_44\n      jump\t// in\n    tag_101:\n        /* \"#utility.yul\":1719:1749   */\n      swap1\n      pop\n        /* \"#utility.yul\":1758:1791   */\n      tag_102\n        /* \"#utility.yul\":1786:1790   */\n      dup3\n        /* \"#utility.yul\":1778:1784   */\n      dup3\n        /* \"#utility.yul\":1758:1791   */\n      tag_55\n      jump\t// in\n    tag_102:\n        /* \"#utility.yul\":1668:1797   */\n      swap2\n      swap1\n      pop\n      jump\t// out\n        /* \"#utility.yul\":1803:2111   */\n    tag_57:\n        /* \"#utility.yul\":1865:1869   */\n      0x00\n        /* \"#utility.yul\":1955:1973   */\n      0xffffffffffffffff\n        /* \"#utility.yul\":1947:1953   */\n      dup3\n        /* \"#utility.yul\":1944:1974   */\n      gt\n        /* \"#utility.yul\":1941:1997   */\n      iszero\n      tag_104\n      jumpi\n        /* \"#utility.yul\":1977:1995   */\n      tag_105\n      tag_54\n      jump\t// in\n    tag_105:\n        /* \"#utility.yul\":1941:1997   */\n    tag_104:\n        /* \"#utility.yul\":2015:2044   */\n      tag_106\n        /* \"#utility.yul\":2037:2043   */\n      dup3\n        /* \"#utility.yul\":2015:2044   */\n      tag_53\n      jump\t// in\n    tag_106:\n        /* \"#utility.yul\":2007:2044   */\n      swap1\n      pop\n        /* \"#utility.yul\":2099:2103   */\n      0x20\n        /* \"#utility.yul\":2093:2097   */\n      dup2\n        /* \"#utility.yul\":2089:2104   */\n      add\n        /* \"#utility.yul\":2081:2104   */\n      swap1\n      pop\n        /* \"#utility.yul\":1803:2111   */\n      swap2\n      swap1\n      pop\n      jump\t// out\n        /* \"#utility.yul\":2117:2263   */\n    tag_58:\n        /* \"#utility.yul\":2214:2220   */\n      dup3\n        /* \"#utility.yul\":2209:2212   */\n      dup2\n        /* \"#utility.yul\":2204:2207   */\n      dup4\n        /* \"#utility.yul\":2191:2221   */\n      calldatacopy\n        /* \"#utility.yul\":2255:2256   */\n      0x00\n        /* \"#utility.yul\":2246:2252   */\n      dup4\n        /* \"#utility.yul\":2241:2244   */\n      dup4\n        /* \"#utility.yul\":2237:2253   */\n      add\n        /* \"#utility.yul\":2230:2257   */\n      mstore\n        /* \"#utility.yul\":2117:2263   */\n      pop\n      pop\n      pop\n      jump\t// out\n        /* \"#utility.yul\":2269:2694   */\n    tag_59:\n        /* \"#utility.yul\":2347:2352   */\n      0x00\n        /* \"#utility.yul\":2372:2438   */\n      tag_109\n        /* \"#utility.yul\":2388:2437   */\n      tag_110\n        /* \"#utility.yul\":2430:2436   */\n      dup5\n        /* \"#utility.yul\":2388:2437   */\n      tag_57\n      jump\t// in\n    tag_110:\n        /* \"#utility.yul\":2372:2438   */\n      tag_56\n      jump\t// in\n    tag_109:\n        /* \"#utility.yul\":2363:2438   */\n      swap1\n      pop\n        /* \"#utility.yul\":2461:2467   */\n      dup3\n        /* \"#utility.yul\":2454:2459   */\n      dup2\n        /* \"#utility.yul\":2447:2468   */\n      mstore\n        /* \"#utility.yul\":2499:2503   */\n      0x20\n        /* \"#utility.yul\":2492:2497   */\n      dup2\n        /* \"#utility.yul\":2488:2504   */\n      add\n        /* \"#utility.yul\":2537:2540   */\n      dup5\n        /* \"#utility.yul\":2528:2534   */\n      dup5\n        /* \"#utility.yul\":2523:2526   */\n      dup5\n        /* \"#utility.yul\":2519:2535   */\n      add\n        /* \"#utility.yul\":2516:2541   */\n      gt\n        /* \"#utility.yul\":2513:2625   */\n      iszero\n      tag_111\n      jumpi\n        /* \"#utility.yul\":2544:2623   */\n      tag_112\n      tag_52\n      jump\t// in\n    tag_112:\n        /* \"#utility.yul\":2513:2625   */\n    tag_111:\n        /* \"#utility.yul\":2634:2688   */\n      tag_113\n        /* \"#utility.yul\":2681:2687   */\n      dup5\n        /* \"#utility.yul\":2676:2679   */\n      dup3\n        /* \"#utility.yul\":2671:2674   */\n      dup6\n        /* \"#utility.yul\":2634:2688   */\n      tag_58\n      jump\t// in\n    tag_113:\n        /* \"#utility.yul\":2353:2694   */\n      pop\n        /* \"#utility.yul\":2269:2694   */\n      swap4\n      swap3\n      pop\n      pop\n      pop\n      jump\t// out\n        /* \"#utility.yul\":2714:3054   */\n    tag_60:\n        /* \"#utility.yul\":2770:2775   */\n      0x00\n        /* \"#utility.yul\":2819:2822   */\n      dup3\n        /* \"#utility.yul\":2812:2816   */\n      0x1f\n        /* \"#utility.yul\":2804:2810   */\n      dup4\n        /* \"#utility.yul\":2800:2817   */\n      add\n        /* \"#utility.yul\":2796:2823   */\n      slt\n        /* \"#utility.yul\":2786:2908   */\n      tag_115\n      jumpi\n        /* \"#utility.yul\":2827:2906   */\n      tag_116\n      tag_51\n      jump\t// in\n    tag_116:\n        /* \"#utility.yul\":2786:2908   */\n    tag_115:\n        /* \"#utility.yul\":2944:2950   */\n      dup2\n        /* \"#utility.yul\":2931:2951   */\n      calldataload\n        /* \"#utility.yul\":2969:3048   */\n      tag_117\n        /* \"#utility.yul\":3044:3047   */\n      dup5\n        /* \"#utility.yul\":3036:3042   */\n      dup3\n        /* \"#utility.yul\":3029:3033   */\n      0x20\n        /* \"#utility.yul\":3021:3027   */\n      dup7\n        /* \"#utility.yul\":3017:3034   */\n      add\n        /* \"#utility.yul\":2969:3048   */\n      tag_59\n      jump\t// in\n    tag_117:\n        /* \"#utility.yul\":2960:3048   */\n      swap2\n      pop\n        /* \"#utility.yul\":2776:3054   */\n      pop\n        /* \"#utility.yul\":2714:3054   */\n      swap3\n      swap2\n      pop\n      pop\n      jump\t// out\n        /* \"#utility.yul\":3060:3137   */\n    tag_61:\n        /* \"#utility.yul\":3097:3104   */\n      0x00\n        /* \"#utility.yul\":3126:3131   */\n      dup2\n        /* \"#utility.yul\":3115:3131   */\n      swap1\n      pop\n        /* \"#utility.yul\":3060:3137   */\n      swap2\n      swap1\n      pop\n      jump\t// out\n        /* \"#utility.yul\":3143:3265   */\n    tag_62:\n        /* \"#utility.yul\":3216:3240   */\n      tag_120\n        /* \"#utility.yul\":3234:3239   */\n      dup2\n        /* \"#utility.yul\":3216:3240   */\n      tag_61\n      jump\t// in\n    tag_120:\n        /* \"#utility.yul\":3209:3214   */\n      dup2\n        /* \"#utility.yul\":3206:3241   */\n      eq\n        /* \"#utility.yul\":3196:3259   */\n      tag_121\n      jumpi\n        /* \"#utility.yul\":3255:3256   */\n      0x00\n        /* \"#utility.yul\":3252:3253   */\n      dup1\n        /* \"#utility.yul\":3245:3257   */\n      revert\n        /* \"#utility.yul\":3196:3259   */\n    tag_121:\n        /* \"#utility.yul\":3143:3265   */\n      pop\n      jump\t// out\n        /* \"#utility.yul\":3271:3410   */\n    tag_63:\n        /* \"#utility.yul\":3317:3322   */\n      0x00\n        /* \"#utility.yul\":3355:3361   */\n      dup2\n        /* \"#utility.yul\":3342:3362   */\n      calldataload\n        /* \"#utility.yul\":3333:3362   */\n      swap1\n      pop\n        /* \"#utility.yul\":3371:3404   */\n      tag_123\n        /* \"#utility.yul\":3398:3403   */\n      dup2\n        /* \"#utility.yul\":3371:3404   */\n      tag_62\n      jump\t// in\n    tag_123:\n        /* \"#utility.yul\":3271:3410   */\n      swap3\n      swap2\n      pop\n      pop\n      jump\t// out\n        /* \"#utility.yul\":3416:4361   */\n    tag_8:\n        /* \"#utility.yul\":3512:3518   */\n      0x00\n        /* \"#utility.yul\":3520:3526   */\n      dup1\n        /* \"#utility.yul\":3528:3534   */\n      0x00\n        /* \"#utility.yul\":3536:3542   */\n      dup1\n        /* \"#utility.yul\":3585:3588   */\n      0x80\n        /* \"#utility.yul\":3573:3582   */\n      dup6\n        /* \"#utility.yul\":3564:3571   */\n      dup8\n        /* \"#utility.yul\":3560:3583   */\n      sub\n        /* \"#utility.yul\":3556:3589   */\n      slt\n        /* \"#utility.yul\":3553:3673   */\n      iszero\n      tag_125\n      jumpi\n        /* \"#utility.yul\":3592:3671   */\n      tag_126\n      tag_45\n      jump\t// in\n    tag_126:\n        /* \"#utility.yul\":3553:3673   */\n    tag_125:\n        /* \"#utility.yul\":3712:3713   */\n      0x00\n        /* \"#utility.yul\":3737:3790   */\n      tag_127\n        /* \"#utility.yul\":3782:3789   */\n      dup8\n        /* \"#utility.yul\":3773:3779   */\n      dup3\n        /* \"#utility.yul\":3762:3771   */\n      dup9\n        /* \"#utility.yul\":3758:3780   */\n      add\n        /* \"#utility.yul\":3737:3790   */\n      tag_50\n      jump\t// in\n    tag_127:\n        /* \"#utility.yul\":3727:3790   */\n      swap5\n      pop\n        /* \"#utility.yul\":3683:3800   */\n      pop\n        /* \"#utility.yul\":3867:3869   */\n      0x20\n        /* \"#utility.yul\":3856:3865   */\n      dup6\n        /* \"#utility.yul\":3852:3870   */\n      add\n        /* \"#utility.yul\":3839:3871   */\n      calldataload\n        /* \"#utility.yul\":3898:3916   */\n      0xffffffffffffffff\n        /* \"#utility.yul\":3890:3896   */\n      dup2\n        /* \"#utility.yul\":3887:3917   */\n      gt\n        /* \"#utility.yul\":3884:4001   */\n      iszero\n      tag_128\n      jumpi\n        /* \"#utility.yul\":3920:3999   */\n      tag_129\n      tag_46\n      jump\t// in\n    tag_129:\n        /* \"#utility.yul\":3884:4001   */\n    tag_128:\n        /* \"#utility.yul\":4025:4088   */\n      tag_130\n        /* \"#utility.yul\":4080:4087   */\n      dup8\n        /* \"#utility.yul\":4071:4077   */\n      dup3\n        /* \"#utility.yul\":4060:4069   */\n      dup9\n        /* \"#utility.yul\":4056:4078   */\n      add\n        /* \"#utility.yul\":4025:4088   */\n      tag_60\n      jump\t// in\n    tag_130:\n        /* \"#utility.yul\":4015:4088   */\n      swap4\n      pop\n        /* \"#utility.yul\":3810:4098   */\n      pop\n        /* \"#utility.yul\":4137:4139   */\n      0x40\n        /* \"#utility.yul\":4163:4216   */\n      tag_131\n        /* \"#utility.yul\":4208:4215   */\n      dup8\n        /* \"#utility.yul\":4199:4205   */\n      dup3\n        /* \"#utility.yul\":4188:4197   */\n      dup9\n        /* \"#utility.yul\":4184:4206   */\n      add\n        /* \"#utility.yul\":4163:4216   */\n      tag_63\n      jump\t// in\n    tag_131:\n        /* \"#utility.yul\":4153:4216   */\n      swap3\n      pop\n        /* \"#utility.yul\":4108:4226   */\n      pop\n        /* \"#utility.yul\":4265:4267   */\n      0x60\n        /* \"#utility.yul\":4291:4344   */\n      tag_132\n        /* \"#utility.yul\":4336:4343   */\n      dup8\n        /* \"#utility.yul\":4327:4333   */\n      dup3\n        /* \"#utility.yul\":4316:4325   */\n      dup9\n        /* \"#utility.yul\":4312:4334   */\n      add\n        /* \"#utility.yul\":4291:4344   */\n      tag_63\n      jump\t// in\n    tag_132:\n        /* \"#utility.yul\":4281:4344   */\n      swap2\n      pop\n        /* \"#utility.yul\":4236:4354   */\n      pop\n        /* \"#utility.yul\":3416:4361   */\n      swap3\n      swap6\n      swap2\n      swap5\n      pop\n      swap3\n      pop\n      jump\t// out\n        /* \"#utility.yul\":4367:4696   */\n    tag_12:\n        /* \"#utility.yul\":4426:4432   */\n      0x00\n        /* \"#utility.yul\":4475:4477   */\n      0x20\n        /* \"#utility.yul\":4463:4472   */\n      dup3\n        /* \"#utility.yul\":4454:4461   */\n      dup5\n        /* \"#utility.yul\":4450:4473   */\n      sub\n        /* \"#utility.yul\":4446:4478   */\n      slt\n        /* \"#utility.yul\":4443:4562   */\n      iszero\n      tag_134\n      jumpi\n        /* \"#utility.yul\":4481:4560   */\n      tag_135\n      tag_45\n      jump\t// in\n    tag_135:\n        /* \"#utility.yul\":4443:4562   */\n    tag_134:\n        /* \"#utility.yul\":4601:4602   */\n      0x00\n        /* \"#utility.yul\":4626:4679   */\n      tag_136\n        /* \"#utility.yul\":4671:4678   */\n      dup5\n        /* \"#utility.yul\":4662:4668   */\n      dup3\n        /* \"#utility.yul\":4651:4660   */\n      dup6\n        /* \"#utility.yul\":4647:4669   */\n      add\n        /* \"#utility.yul\":4626:4679   */\n      tag_63\n      jump\t// in\n    tag_136:\n        /* \"#utility.yul\":4616:4679   */\n      swap2\n      pop\n        /* \"#utility.yul\":4572:4689   */\n      pop\n        /* \"#utility.yul\":4367:4696   */\n      swap3\n      swap2\n      pop\n      pop\n      jump\t// out\n        /* \"#utility.yul\":4702:4820   */\n    tag_64:\n        /* \"#utility.yul\":4789:4813   */\n      tag_138\n        /* \"#utility.yul\":4807:4812   */\n      dup2\n        /* \"#utility.yul\":4789:4813   */\n      tag_61\n      jump\t// in\n    tag_138:\n        /* \"#utility.yul\":4784:4787   */\n      dup3\n        /* \"#utility.yul\":4777:4814   */\n      mstore\n        /* \"#utility.yul\":4702:4820   */\n      pop\n      pop\n      jump\t// out\n        /* \"#utility.yul\":4826:4925   */\n    tag_65:\n        /* \"#utility.yul\":4878:4884   */\n      0x00\n        /* \"#utility.yul\":4912:4917   */\n      dup2\n        /* \"#utility.yul\":4906:4918   */\n      mload\n        /* \"#utility.yul\":4896:4918   */\n      swap1\n      pop\n        /* \"#utility.yul\":4826:4925   */\n      swap2\n      swap1\n      pop\n      jump\t// out\n        /* \"#utility.yul\":4931:5100   */\n    tag_66:\n        /* \"#utility.yul\":5015:5026   */\n      0x00\n        /* \"#utility.yul\":5049:5055   */\n      dup3\n        /* \"#utility.yul\":5044:5047   */\n      dup3\n        /* \"#utility.yul\":5037:5056   */\n      mstore\n        /* \"#utility.yul\":5089:5093   */\n      0x20\n        /* \"#utility.yul\":5084:5087   */\n      dup3\n        /* \"#utility.yul\":5080:5094   */\n      add\n        /* \"#utility.yul\":5065:5094   */\n      swap1\n      pop\n        /* \"#utility.yul\":4931:5100   */\n      swap3\n      swap2\n      pop\n      pop\n      jump\t// out\n        /* \"#utility.yul\":5106:5352   */\n    tag_67:\n        /* \"#utility.yul\":5187:5188   */\n      0x00\n        /* \"#utility.yul\":5197:5310   */\n    tag_142:\n        /* \"#utility.yul\":5211:5217   */\n      dup4\n        /* \"#utility.yul\":5208:5209   */\n      dup2\n        /* \"#utility.yul\":5205:5218   */\n      lt\n        /* \"#utility.yul\":5197:5310   */\n      iszero\n      tag_144\n      jumpi\n        /* \"#utility.yul\":5296:5297   */\n      dup1\n        /* \"#utility.yul\":5291:5294   */\n      dup3\n        /* \"#utility.yul\":5287:5298   */\n      add\n        /* \"#utility.yul\":5281:5299   */\n      mload\n        /* \"#utility.yul\":5277:5278   */\n      dup2\n        /* \"#utility.yul\":5272:5275   */\n      dup5\n        /* \"#utility.yul\":5268:5279   */\n      add\n        /* \"#utility.yul\":5261:5300   */\n      mstore\n        /* \"#utility.yul\":5233:5235   */\n      0x20\n        /* \"#utility.yul\":5230:5231   */\n      dup2\n        /* \"#utility.yul\":5226:5236   */\n      add\n        /* \"#utility.yul\":5221:5236   */\n      swap1\n      pop\n        /* \"#utility.yul\":5197:5310   */\n      jump(tag_142)\n    tag_144:\n        /* \"#utility.yul\":5344:5345   */\n      0x00\n        /* \"#utility.yul\":5335:5341   */\n      dup5\n        /* \"#utility.yul\":5330:5333   */\n      dup5\n        /* \"#utility.yul\":5326:5342   */\n      add\n        /* \"#utility.yul\":5319:5346   */\n      mstore\n        /* \"#utility.yul\":5168:5352   */\n      pop\n        /* \"#utility.yul\":5106:5352   */\n      pop\n      pop\n      pop\n      jump\t// out\n        /* \"#utility.yul\":5358:5735   */\n    tag_68:\n        /* \"#utility.yul\":5446:5449   */\n      0x00\n        /* \"#utility.yul\":5474:5513   */\n      tag_146\n        /* \"#utility.yul\":5507:5512   */\n      dup3\n        /* \"#utility.yul\":5474:5513   */\n      tag_65\n      jump\t// in\n    tag_146:\n        /* \"#utility.yul\":5529:5600   */\n      tag_147\n        /* \"#utility.yul\":5593:5599   */\n      dup2\n        /* \"#utility.yul\":5588:5591   */\n      dup6\n        /* \"#utility.yul\":5529:5600   */\n      tag_66\n      jump\t// in\n    tag_147:\n        /* \"#utility.yul\":5522:5600   */\n      swap4\n      pop\n        /* \"#utility.yul\":5609:5674   */\n      tag_148\n        /* \"#utility.yul\":5667:5673   */\n      dup2\n        /* \"#utility.yul\":5662:5665   */\n      dup6\n        /* \"#utility.yul\":5655:5659   */\n      0x20\n        /* \"#utility.yul\":5648:5653   */\n      dup7\n        /* \"#utility.yul\":5644:5660   */\n      add\n        /* \"#utility.yul\":5609:5674   */\n      tag_67\n      jump\t// in\n    tag_148:\n        /* \"#utility.yul\":5699:5728   */\n      tag_149\n        /* \"#utility.yul\":5721:5727   */\n      dup2\n        /* \"#utility.yul\":5699:5728   */\n      tag_53\n      jump\t// in\n    tag_149:\n        /* \"#utility.yul\":5694:5697   */\n      dup5\n        /* \"#utility.yul\":5690:5729   */\n      add\n        /* \"#utility.yul\":5683:5729   */\n      swap2\n      pop\n        /* \"#utility.yul\":5450:5735   */\n      pop\n        /* \"#utility.yul\":5358:5735   */\n      swap3\n      swap2\n      pop\n      pop\n      jump\t// out\n        /* \"#utility.yul\":5741:6496   */\n    tag_15:\n        /* \"#utility.yul\":5966:5970   */\n      0x00\n        /* \"#utility.yul\":6004:6007   */\n      0xa0\n        /* \"#utility.yul\":5993:6002   */\n      dup3\n        /* \"#utility.yul\":5989:6008   */\n      add\n        /* \"#utility.yul\":5981:6008   */\n      swap1\n      pop\n        /* \"#utility.yul\":6018:6089   */\n      tag_151\n        /* \"#utility.yul\":6086:6087   */\n      0x00\n        /* \"#utility.yul\":6075:6084   */\n      dup4\n        /* \"#utility.yul\":6071:6088   */\n      add\n        /* \"#utility.yul\":6062:6068   */\n      dup9\n        /* \"#utility.yul\":6018:6089   */\n      tag_64\n      jump\t// in\n    tag_151:\n        /* \"#utility.yul\":6136:6145   */\n      dup2\n        /* \"#utility.yul\":6130:6134   */\n      dup2\n        /* \"#utility.yul\":6126:6146   */\n      sub\n        /* \"#utility.yul\":6121:6123   */\n      0x20\n        /* \"#utility.yul\":6110:6119   */\n      dup4\n        /* \"#utility.yul\":6106:6124   */\n      add\n        /* \"#utility.yul\":6099:6147   */\n      mstore\n        /* \"#utility.yul\":6164:6242   */\n      tag_152\n        /* \"#utility.yul\":6237:6241   */\n      dup2\n        /* \"#utility.yul\":6228:6234   */\n      dup8\n        /* \"#utility.yul\":6164:6242   */\n      tag_68\n      jump\t// in\n    tag_152:\n        /* \"#utility.yul\":6156:6242   */\n      swap1\n      pop\n        /* \"#utility.yul\":6252:6324   */\n      tag_153\n        /* \"#utility.yul\":6320:6322   */\n      0x40\n        /* \"#utility.yul\":6309:6318   */\n      dup4\n        /* \"#utility.yul\":6305:6323   */\n      add\n        /* \"#utility.yul\":6296:6302   */\n      dup7\n        /* \"#utility.yul\":6252:6324   */\n      tag_64\n      jump\t// in\n    tag_153:\n        /* \"#utility.yul\":6334:6406   */\n      tag_154\n        /* \"#utility.yul\":6402:6404   */\n      0x60\n        /* \"#utility.yul\":6391:6400   */\n      dup4\n        /* \"#utility.yul\":6387:6405   */\n      add\n        /* \"#utility.yul\":6378:6384   */\n      dup6\n        /* \"#utility.yul\":6334:6406   */\n      tag_64\n      jump\t// in\n    tag_154:\n        /* \"#utility.yul\":6416:6489   */\n      tag_155\n        /* \"#utility.yul\":6484:6487   */\n      0x80\n        /* \"#utility.yul\":6473:6482   */\n      dup4\n        /* \"#utility.yul\":6469:6488   */\n      add\n        /* \"#utility.yul\":6460:6466   */\n      dup5\n        /* \"#utility.yul\":6416:6489   */\n      tag_64\n      jump\t// in\n    tag_155:\n        /* \"#utility.yul\":5741:6496   */\n      swap7\n      swap6\n      pop\n      pop\n      pop\n      pop\n      pop\n      pop\n      jump\t// out\n        /* \"#utility.yul\":6502:6592   */\n    tag_69:\n        /* \"#utility.yul\":6536:6543   */\n      0x00\n        /* \"#utility.yul\":6579:6584   */\n      dup2\n        /* \"#utility.yul\":6572:6585   */\n      iszero\n        /* \"#utility.yul\":6565:6586   */\n      iszero\n        /* \"#utility.yul\":6554:6586   */\n      swap1\n      pop\n        /* \"#utility.yul\":6502:6592   */\n      swap2\n      swap1\n      pop\n      jump\t// out\n        /* \"#utility.yul\":6598:6707   */\n    tag_70:\n        /* \"#utility.yul\":6679:6700   */\n      tag_158\n        /* \"#utility.yul\":6694:6699   */\n      dup2\n        /* \"#utility.yul\":6679:6700   */\n      tag_69\n      jump\t// in\n    tag_158:\n        /* \"#utility.yul\":6674:6677   */\n      dup3\n        /* \"#utility.yul\":6667:6701   */\n      mstore\n        /* \"#utility.yul\":6598:6707   */\n      pop\n      pop\n      jump\t// out\n        /* \"#utility.yul\":6713:6923   */\n    tag_20:\n        /* \"#utility.yul\":6800:6804   */\n      0x00\n        /* \"#utility.yul\":6838:6840   */\n      0x20\n        /* \"#utility.yul\":6827:6836   */\n      dup3\n        /* \"#utility.yul\":6823:6841   */\n      add\n        /* \"#utility.yul\":6815:6841   */\n      swap1\n      pop\n        /* \"#utility.yul\":6851:6916   */\n      tag_160\n        /* \"#utility.yul\":6913:6914   */\n      0x00\n        /* \"#utility.yul\":6902:6911   */\n      dup4\n        /* \"#utility.yul\":6898:6915   */\n      add\n        /* \"#utility.yul\":6889:6895   */\n      dup5\n        /* \"#utility.yul\":6851:6916   */\n      tag_70\n      jump\t// in\n    tag_160:\n        /* \"#utility.yul\":6713:6923   */\n      swap3\n      swap2\n      pop\n      pop\n      jump\t// out\n        /* \"#utility.yul\":6929:7098   */\n    tag_71:\n        /* \"#utility.yul\":7069:7090   */\n      0x41646472657373206e6f6e2056616c69646f2100000000000000000000000000\n        /* \"#utility.yul\":7065:7066   */\n      0x00\n        /* \"#utility.yul\":7057:7063   */\n      dup3\n        /* \"#utility.yul\":7053:7067   */\n      add\n        /* \"#utility.yul\":7046:7091   */\n      mstore\n        /* \"#utility.yul\":6929:7098   */\n      pop\n      jump\t// out\n        /* \"#utility.yul\":7104:7470   */\n    tag_72:\n        /* \"#utility.yul\":7246:7249   */\n      0x00\n        /* \"#utility.yul\":7267:7334   */\n      tag_163\n        /* \"#utility.yul\":7331:7333   */\n      0x13\n        /* \"#utility.yul\":7326:7329   */\n      dup4\n        /* \"#utility.yul\":7267:7334   */\n      tag_66\n      jump\t// in\n    tag_163:\n        /* \"#utility.yul\":7260:7334   */\n      swap2\n      pop\n        /* \"#utility.yul\":7343:7436   */\n      tag_164\n        /* \"#utility.yul\":7432:7435   */\n      dup3\n        /* \"#utility.yul\":7343:7436   */\n      tag_71\n      jump\t// in\n    tag_164:\n        /* \"#utility.yul\":7461:7463   */\n      0x20\n        /* \"#utility.yul\":7456:7459   */\n      dup3\n        /* \"#utility.yul\":7452:7464   */\n      add\n        /* \"#utility.yul\":7445:7464   */\n      swap1\n      pop\n        /* \"#utility.yul\":7104:7470   */\n      swap2\n      swap1\n      pop\n      jump\t// out\n        /* \"#utility.yul\":7476:7895   */\n    tag_24:\n        /* \"#utility.yul\":7642:7646   */\n      0x00\n        /* \"#utility.yul\":7680:7682   */\n      0x20\n        /* \"#utility.yul\":7669:7678   */\n      dup3\n        /* \"#utility.yul\":7665:7683   */\n      add\n        /* \"#utility.yul\":7657:7683   */\n      swap1\n      pop\n        /* \"#utility.yul\":7729:7738   */\n      dup2\n        /* \"#utility.yul\":7723:7727   */\n      dup2\n        /* \"#utility.yul\":7719:7739   */\n      sub\n        /* \"#utility.yul\":7715:7716   */\n      0x00\n        /* \"#utility.yul\":7704:7713   */\n      dup4\n        /* \"#utility.yul\":7700:7717   */\n      add\n        /* \"#utility.yul\":7693:7740   */\n      mstore\n        /* \"#utility.yul\":7757:7888   */\n      tag_166\n        /* \"#utility.yul\":7883:7887   */\n      dup2\n        /* \"#utility.yul\":7757:7888   */\n      tag_72\n      jump\t// in\n    tag_166:\n        /* \"#utility.yul\":7749:7888   */\n      swap1\n      pop\n        /* \"#utility.yul\":7476:7895   */\n      swap2\n      swap1\n      pop\n      jump\t// out\n        /* \"#utility.yul\":7901:8019   */\n    tag_73:\n        /* \"#utility.yul\":7988:8012   */\n      tag_168\n        /* \"#utility.yul\":8006:8011   */\n      dup2\n        /* \"#utility.yul\":7988:8012   */\n      tag_48\n      jump\t// in\n    tag_168:\n        /* \"#utility.yul\":7983:7986   */\n      dup3\n        /* \"#utility.yul\":7976:8013   */\n      mstore\n        /* \"#utility.yul\":7901:8019   */\n      pop\n      pop\n      jump\t// out\n        /* \"#utility.yul\":8025:8578   */\n    tag_26:\n        /* \"#utility.yul\":8202:8206   */\n      0x00\n        /* \"#utility.yul\":8240:8243   */\n      0x80\n        /* \"#utility.yul\":8229:8238   */\n      dup3\n        /* \"#utility.yul\":8225:8244   */\n      add\n        /* \"#utility.yul\":8217:8244   */\n      swap1\n      pop\n        /* \"#utility.yul\":8254:8325   */\n      tag_170\n        /* \"#utility.yul\":8322:8323   */\n      0x00\n        /* \"#utility.yul\":8311:8320   */\n      dup4\n        /* \"#utility.yul\":8307:8324   */\n      add\n        /* \"#utility.yul\":8298:8304   */\n      dup8\n        /* \"#utility.yul\":8254:8325   */\n      tag_73\n      jump\t// in\n    tag_170:\n        /* \"#utility.yul\":8335:8407   */\n      tag_171\n        /* \"#utility.yul\":8403:8405   */\n      0x20\n        /* \"#utility.yul\":8392:8401   */\n      dup4\n        /* \"#utility.yul\":8388:8406   */\n      add\n        /* \"#utility.yul\":8379:8385   */\n      dup7\n        /* \"#utility.yul\":8335:8407   */\n      tag_73\n      jump\t// in\n    tag_171:\n        /* \"#utility.yul\":8417:8489   */\n      tag_172\n        /* \"#utility.yul\":8485:8487   */\n      0x40\n        /* \"#utility.yul\":8474:8483   */\n      dup4\n        /* \"#utility.yul\":8470:8488   */\n      add\n        /* \"#utility.yul\":8461:8467   */\n      dup6\n        /* \"#utility.yul\":8417:8489   */\n      tag_64\n      jump\t// in\n    tag_172:\n        /* \"#utility.yul\":8499:8571   */\n      tag_173\n        /* \"#utility.yul\":8567:8569   */\n      0x60\n        /* \"#utility.yul\":8556:8565   */\n      dup4\n        /* \"#utility.yul\":8552:8570   */\n      add\n        /* \"#utility.yul\":8543:8549   */\n      dup5\n        /* \"#utility.yul\":8499:8571   */\n      tag_64\n      jump\t// in\n    tag_173:\n        /* \"#utility.yul\":8025:8578   */\n      swap6\n      swap5\n      pop\n      pop\n      pop\n      pop\n      pop\n      jump\t// out\n        /* \"#utility.yul\":8584:8763   */\n    tag_74:\n        /* \"#utility.yul\":8724:8755   */\n      0x50657a7a6f20646920666f726d616767696f20696e73657269746f2021000000\n        /* \"#utility.yul\":8720:8721   */\n      0x00\n        /* \"#utility.yul\":8712:8718   */\n      dup3\n        /* \"#utility.yul\":8708:8722   */\n      add\n        /* \"#utility.yul\":8701:8756   */\n      mstore\n        /* \"#utility.yul\":8584:8763   */\n      pop\n      jump\t// out\n        /* \"#utility.yul\":8769:9135   */\n    tag_75:\n        /* \"#utility.yul\":8911:8914   */\n      0x00\n        /* \"#utility.yul\":8932:8999   */\n      tag_176\n        /* \"#utility.yul\":8996:8998   */\n      0x1d\n        /* \"#utility.yul\":8991:8994   */\n      dup4\n        /* \"#utility.yul\":8932:8999   */\n      tag_66\n      jump\t// in\n    tag_176:\n        /* \"#utility.yul\":8925:8999   */\n      swap2\n      pop\n        /* \"#utility.yul\":9008:9101   */\n      tag_177\n        /* \"#utility.yul\":9097:9100   */\n      dup3\n        /* \"#utility.yul\":9008:9101   */\n      tag_74\n      jump\t// in\n    tag_177:\n        /* \"#utility.yul\":9126:9128   */\n      0x20\n        /* \"#utility.yul\":9121:9124   */\n      dup3\n        /* \"#utility.yul\":9117:9129   */\n      add\n        /* \"#utility.yul\":9110:9129   */\n      swap1\n      pop\n        /* \"#utility.yul\":8769:9135   */\n      swap2\n      swap1\n      pop\n      jump\t// out\n        /* \"#utility.yul\":9141:9982   */\n    tag_31:\n        /* \"#utility.yul\":9411:9415   */\n      0x00\n        /* \"#utility.yul\":9449:9452   */\n      0x80\n        /* \"#utility.yul\":9438:9447   */\n      dup3\n        /* \"#utility.yul\":9434:9453   */\n      add\n        /* \"#utility.yul\":9426:9453   */\n      swap1\n      pop\n        /* \"#utility.yul\":9499:9508   */\n      dup2\n        /* \"#utility.yul\":9493:9497   */\n      dup2\n        /* \"#utility.yul\":9489:9509   */\n      sub\n        /* \"#utility.yul\":9485:9486   */\n      0x00\n        /* \"#utility.yul\":9474:9483   */\n      dup4\n        /* \"#utility.yul\":9470:9487   */\n      add\n        /* \"#utility.yul\":9463:9510   */\n      mstore\n        /* \"#utility.yul\":9527:9658   */\n      tag_179\n        /* \"#utility.yul\":9653:9657   */\n      dup2\n        /* \"#utility.yul\":9527:9658   */\n      tag_75\n      jump\t// in\n    tag_179:\n        /* \"#utility.yul\":9519:9658   */\n      swap1\n      pop\n        /* \"#utility.yul\":9705:9714   */\n      dup2\n        /* \"#utility.yul\":9699:9703   */\n      dup2\n        /* \"#utility.yul\":9695:9715   */\n      sub\n        /* \"#utility.yul\":9690:9692   */\n      0x20\n        /* \"#utility.yul\":9679:9688   */\n      dup4\n        /* \"#utility.yul\":9675:9693   */\n      add\n        /* \"#utility.yul\":9668:9716   */\n      mstore\n        /* \"#utility.yul\":9733:9811   */\n      tag_180\n        /* \"#utility.yul\":9806:9810   */\n      dup2\n        /* \"#utility.yul\":9797:9803   */\n      dup7\n        /* \"#utility.yul\":9733:9811   */\n      tag_68\n      jump\t// in\n    tag_180:\n        /* \"#utility.yul\":9725:9811   */\n      swap1\n      pop\n        /* \"#utility.yul\":9821:9893   */\n      tag_181\n        /* \"#utility.yul\":9889:9891   */\n      0x40\n        /* \"#utility.yul\":9878:9887   */\n      dup4\n        /* \"#utility.yul\":9874:9892   */\n      add\n        /* \"#utility.yul\":9865:9871   */\n      dup6\n        /* \"#utility.yul\":9821:9893   */\n      tag_64\n      jump\t// in\n    tag_181:\n        /* \"#utility.yul\":9903:9975   */\n      tag_182\n        /* \"#utility.yul\":9971:9973   */\n      0x60\n        /* \"#utility.yul\":9960:9969   */\n      dup4\n        /* \"#utility.yul\":9956:9974   */\n      add\n        /* \"#utility.yul\":9947:9953   */\n      dup5\n        /* \"#utility.yul\":9903:9975   */\n      tag_64\n      jump\t// in\n    tag_182:\n        /* \"#utility.yul\":9141:9982   */\n      swap5\n      swap4\n      pop\n      pop\n      pop\n      pop\n      jump\t// out\n        /* \"#utility.yul\":9988:10320   */\n    tag_35:\n        /* \"#utility.yul\":10109:10113   */\n      0x00\n        /* \"#utility.yul\":10147:10149   */\n      0x40\n        /* \"#utility.yul\":10136:10145   */\n      dup3\n        /* \"#utility.yul\":10132:10150   */\n      add\n        /* \"#utility.yul\":10124:10150   */\n      swap1\n      pop\n        /* \"#utility.yul\":10160:10231   */\n      tag_184\n        /* \"#utility.yul\":10228:10229   */\n      0x00\n        /* \"#utility.yul\":10217:10226   */\n      dup4\n        /* \"#utility.yul\":10213:10230   */\n      add\n        /* \"#utility.yul\":10204:10210   */\n      dup6\n        /* \"#utility.yul\":10160:10231   */\n      tag_73\n      jump\t// in\n    tag_184:\n        /* \"#utility.yul\":10241:10313   */\n      tag_185\n        /* \"#utility.yul\":10309:10311   */\n      0x20\n        /* \"#utility.yul\":10298:10307   */\n      dup4\n        /* \"#utility.yul\":10294:10312   */\n      add\n        /* \"#utility.yul\":10285:10291   */\n      dup5\n        /* \"#utility.yul\":10241:10313   */\n      tag_64\n      jump\t// in\n    tag_185:\n        /* \"#utility.yul\":9988:10320   */\n      swap4\n      swap3\n      pop\n      pop\n      pop\n      jump\t// out\n        /* \"#utility.yul\":10326:10442   */\n    tag_76:\n        /* \"#utility.yul\":10396:10417   */\n      tag_187\n        /* \"#utility.yul\":10411:10416   */\n      dup2\n        /* \"#utility.yul\":10396:10417   */\n      tag_69\n      jump\t// in\n    tag_187:\n        /* \"#utility.yul\":10389:10394   */\n      dup2\n        /* \"#utility.yul\":10386:10418   */\n      eq\n        /* \"#utility.yul\":10376:10436   */\n      tag_188\n      jumpi\n        /* \"#utility.yul\":10432:10433   */\n      0x00\n        /* \"#utility.yul\":10429:10430   */\n      dup1\n        /* \"#utility.yul\":10422:10434   */\n      revert\n        /* \"#utility.yul\":10376:10436   */\n    tag_188:\n        /* \"#utility.yul\":10326:10442   */\n      pop\n      jump\t// out\n        /* \"#utility.yul\":10448:10585   */\n    tag_77:\n        /* \"#utility.yul\":10502:10507   */\n      0x00\n        /* \"#utility.yul\":10533:10539   */\n      dup2\n        /* \"#utility.yul\":10527:10540   */\n      mload\n        /* \"#utility.yul\":10518:10540   */\n      swap1\n      pop\n        /* \"#utility.yul\":10549:10579   */\n      tag_190\n        /* \"#utility.yul\":10573:10578   */\n      dup2\n        /* \"#utility.yul\":10549:10579   */\n      tag_76\n      jump\t// in\n    tag_190:\n        /* \"#utility.yul\":10448:10585   */\n      swap3\n      swap2\n      pop\n      pop\n      jump\t// out\n        /* \"#utility.yul\":10591:10936   */\n    tag_39:\n        /* \"#utility.yul\":10658:10664   */\n      0x00\n        /* \"#utility.yul\":10707:10709   */\n      0x20\n        /* \"#utility.yul\":10695:10704   */\n      dup3\n        /* \"#utility.yul\":10686:10693   */\n      dup5\n        /* \"#utility.yul\":10682:10705   */\n      sub\n        /* \"#utility.yul\":10678:10710   */\n      slt\n        /* \"#utility.yul\":10675:10794   */\n      iszero\n      tag_192\n      jumpi\n        /* \"#utility.yul\":10713:10792   */\n      tag_193\n      tag_45\n      jump\t// in\n    tag_193:\n        /* \"#utility.yul\":10675:10794   */\n    tag_192:\n        /* \"#utility.yul\":10833:10834   */\n      0x00\n        /* \"#utility.yul\":10858:10919   */\n      tag_194\n        /* \"#utility.yul\":10911:10918   */\n      dup5\n        /* \"#utility.yul\":10902:10908   */\n      dup3\n        /* \"#utility.yul\":10891:10900   */\n      dup6\n        /* \"#utility.yul\":10887:10909   */\n      add\n        /* \"#utility.yul\":10858:10919   */\n      tag_77\n      jump\t// in\n    tag_194:\n        /* \"#utility.yul\":10848:10919   */\n      swap2\n      pop\n        /* \"#utility.yul\":10804:10929   */\n      pop\n        /* \"#utility.yul\":10591:10936   */\n      swap3\n      swap2\n      pop\n      pop\n      jump\t// out\n        /* \"#utility.yul\":10942:11166   */\n    tag_78:\n        /* \"#utility.yul\":11082:11116   */\n      0x50657a7a6f20646920466f726d616767696f20652720737461746f20656c656d\n        /* \"#utility.yul\":11078:11079   */\n      0x00\n        /* \"#utility.yul\":11070:11076   */\n      dup3\n        /* \"#utility.yul\":11066:11080   */\n      add\n        /* \"#utility.yul\":11059:11117   */\n      mstore\n        /* \"#utility.yul\":11151:11158   */\n      0x696e61746f000000000000000000000000000000000000000000000000000000\n        /* \"#utility.yul\":11146:11148   */\n      0x20\n        /* \"#utility.yul\":11138:11144   */\n      dup3\n        /* \"#utility.yul\":11134:11149   */\n      add\n        /* \"#utility.yul\":11127:11159   */\n      mstore\n        /* \"#utility.yul\":10942:11166   */\n      pop\n      jump\t// out\n        /* \"#utility.yul\":11172:11538   */\n    tag_79:\n        /* \"#utility.yul\":11314:11317   */\n      0x00\n        /* \"#utility.yul\":11335:11402   */\n      tag_197\n        /* \"#utility.yul\":11399:11401   */\n      0x25\n        /* \"#utility.yul\":11394:11397   */\n      dup4\n        /* \"#utility.yul\":11335:11402   */\n      tag_66\n      jump\t// in\n    tag_197:\n        /* \"#utility.yul\":11328:11402   */\n      swap2\n      pop\n        /* \"#utility.yul\":11411:11504   */\n      tag_198\n        /* \"#utility.yul\":11500:11503   */\n      dup3\n        /* \"#utility.yul\":11411:11504   */\n      tag_78\n      jump\t// in\n    tag_198:\n        /* \"#utility.yul\":11529:11531   */\n      0x40\n        /* \"#utility.yul\":11524:11527   */\n      dup3\n        /* \"#utility.yul\":11520:11532   */\n      add\n        /* \"#utility.yul\":11513:11532   */\n      swap1\n      pop\n        /* \"#utility.yul\":11172:11538   */\n      swap2\n      swap1\n      pop\n      jump\t// out\n        /* \"#utility.yul\":11544:11963   */\n    tag_42:\n        /* \"#utility.yul\":11710:11714   */\n      0x00\n        /* \"#utility.yul\":11748:11750   */\n      0x20\n        /* \"#utility.yul\":11737:11746   */\n      dup3\n        /* \"#utility.yul\":11733:11751   */\n      add\n        /* \"#utility.yul\":11725:11751   */\n      swap1\n      pop\n        /* \"#utility.yul\":11797:11806   */\n      dup2\n        /* \"#utility.yul\":11791:11795   */\n      dup2\n        /* \"#utility.yul\":11787:11807   */\n      sub\n        /* \"#utility.yul\":11783:11784   */\n      0x00\n        /* \"#utility.yul\":11772:11781   */\n      dup4\n        /* \"#utility.yul\":11768:11785   */\n      add\n        /* \"#utility.yul\":11761:11808   */\n      mstore\n        /* \"#utility.yul\":11825:11956   */\n      tag_200\n        /* \"#utility.yul\":11951:11955   */\n      dup2\n        /* \"#utility.yul\":11825:11956   */\n      tag_79\n      jump\t// in\n    tag_200:\n        /* \"#utility.yul\":11817:11956   */\n      swap1\n      pop\n        /* \"#utility.yul\":11544:11963   */\n      swap2\n      swap1\n      pop\n      jump\t// out\n\n    auxdata: 0xa264697066735822122047df485e899dc4754d49a9694df9b1092741a94f622f35ac23a84658a82e32af64736f6c63430008160033\n}\n",
				"bytecode": {
					"linkReferences": {},
					"object": "608060405234801561000f575f80fd5b50604051610acd380380610acd83398181016040528101906100319190610114565b335f806101000a81548173ffffffffffffffffffffffffffffffffffffffff021916908373ffffffffffffffffffffffffffffffffffffffff1602179055508060015f6101000a81548173ffffffffffffffffffffffffffffffffffffffff021916908373ffffffffffffffffffffffffffffffffffffffff1602179055505061013f565b5f80fd5b5f73ffffffffffffffffffffffffffffffffffffffff82169050919050565b5f6100e3826100ba565b9050919050565b6100f3816100d9565b81146100fd575f80fd5b50565b5f8151905061010e816100ea565b92915050565b5f60208284031215610129576101286100b6565b5b5f61013684828501610100565b91505092915050565b6109818061014c5f395ff3fe608060405234801561000f575f80fd5b506004361061003f575f3560e01c8063618943d814610043578063b3b95f151461005f578063cf4dfd8914610093575b5f80fd5b61005d6004803603810190610058919061052f565b6100c3565b005b610079600480360381019061007491906105af565b61023a565b60405161008a959493929190610663565b60405180910390f35b6100ad60048036038101906100a891906105af565b61024e565b6040516100ba91906106d5565b60405180910390f35b5f3390505f8054906101000a900473ffffffffffffffffffffffffffffffffffffffff1673ffffffffffffffffffffffffffffffffffffffff168173ffffffffffffffffffffffffffffffffffffffff1603610154576040517f08c379a000000000000000000000000000000000000000000000000000000000815260040161014b90610738565b60405180910390fd5b60015f9054906101000a900473ffffffffffffffffffffffffffffffffffffffff1673ffffffffffffffffffffffffffffffffffffffff1663ba694bd2828786866040518563ffffffff1660e01b81526004016101b49493929190610765565b5f604051808303815f87803b1580156101cb575f80fd5b505af11580156101dd573d5f803e3d5ffd5b505050508073ffffffffffffffffffffffffffffffffffffffff167f221b0a4a1588d290749a1bf4e55cb6c2e002e5163307d8ac84d2b1a871a175fd85858560405161022b939291906107f2565b60405180910390a25050505050565b5f60605f805f803390505091939590929450565b5f8033905060015f9054906101000a900473ffffffffffffffffffffffffffffffffffffffff1673ffffffffffffffffffffffffffffffffffffffff1663348b4c5a82856040518363ffffffff1660e01b81526004016102af929190610841565b6020604051808303815f875af11580156102cb573d5f803e3d5ffd5b505050506040513d601f19601f820116820180604052508101906102ef9190610892565b1561034b57828173ffffffffffffffffffffffffffffffffffffffff167ff1ddf4a841ff1ac53ffb214ad50cdd64aaf2e2bcbdad4fe073445d52fad07bc36040516103399061092d565b60405180910390a36001915050610350565b5f9150505b919050565b5f604051905090565b5f80fd5b5f80fd5b5f73ffffffffffffffffffffffffffffffffffffffff82169050919050565b5f61038f82610366565b9050919050565b61039f81610385565b81146103a9575f80fd5b50565b5f813590506103ba81610396565b92915050565b5f80fd5b5f80fd5b5f601f19601f8301169050919050565b7f4e487b71000000000000000000000000000000000000000000000000000000005f52604160045260245ffd5b61040e826103c8565b810181811067ffffffffffffffff8211171561042d5761042c6103d8565b5b80604052505050565b5f61043f610355565b905061044b8282610405565b919050565b5f67ffffffffffffffff82111561046a576104696103d8565b5b610473826103c8565b9050602081019050919050565b828183375f83830152505050565b5f6104a061049b84610450565b610436565b9050828152602081018484840111156104bc576104bb6103c4565b5b6104c7848285610480565b509392505050565b5f82601f8301126104e3576104e26103c0565b5b81356104f384826020860161048e565b91505092915050565b5f819050919050565b61050e816104fc565b8114610518575f80fd5b50565b5f8135905061052981610505565b92915050565b5f805f80608085870312156105475761054661035e565b5b5f610554878288016103ac565b945050602085013567ffffffffffffffff81111561057557610574610362565b5b610581878288016104cf565b93505060406105928782880161051b565b92505060606105a38782880161051b565b91505092959194509250565b5f602082840312156105c4576105c361035e565b5b5f6105d18482850161051b565b91505092915050565b6105e3816104fc565b82525050565b5f81519050919050565b5f82825260208201905092915050565b5f5b83811015610620578082015181840152602081019050610605565b5f8484015250505050565b5f610635826105e9565b61063f81856105f3565b935061064f818560208601610603565b610658816103c8565b840191505092915050565b5f60a0820190506106765f8301886105da565b8181036020830152610688818761062b565b905061069760408301866105da565b6106a460608301856105da565b6106b160808301846105da565b9695505050505050565b5f8115159050919050565b6106cf816106bb565b82525050565b5f6020820190506106e85f8301846106c6565b92915050565b7f41646472657373206e6f6e2056616c69646f21000000000000000000000000005f82015250565b5f6107226013836105f3565b915061072d826106ee565b602082019050919050565b5f6020820190508181035f83015261074f81610716565b9050919050565b61075f81610385565b82525050565b5f6080820190506107785f830187610756565b6107856020830186610756565b61079260408301856105da565b61079f60608301846105da565b95945050505050565b7f50657a7a6f20646920666f726d616767696f20696e73657269746f20210000005f82015250565b5f6107dc601d836105f3565b91506107e7826107a8565b602082019050919050565b5f6080820190508181035f830152610809816107d0565b9050818103602083015261081d818661062b565b905061082c60408301856105da565b61083960608301846105da565b949350505050565b5f6040820190506108545f830185610756565b61086160208301846105da565b9392505050565b610871816106bb565b811461087b575f80fd5b50565b5f8151905061088c81610868565b92915050565b5f602082840312156108a7576108a661035e565b5b5f6108b48482850161087e565b91505092915050565b7f50657a7a6f20646920466f726d616767696f20652720737461746f20656c656d5f8201527f696e61746f000000000000000000000000000000000000000000000000000000602082015250565b5f6109176025836105f3565b9150610922826108bd565b604082019050919050565b5f6020820190508181035f8301526109448161090b565b905091905056fea264697066735822122047df485e899dc4754d49a9694df9b1092741a94f622f35ac23a84658a82e32af64736f6c63430008160033",
					"opcodes": "PUSH1 0x80 PUSH1 0x40 MSTORE CALLVALUE DUP1 ISZERO PUSH2 0xF JUMPI PUSH0 DUP1 REVERT JUMPDEST POP PUSH1 0x40 MLOAD PUSH2 0xACD CODESIZE SUB DUP1 PUSH2 0xACD DUP4 CODECOPY DUP2 DUP2 ADD PUSH1 0x40 MSTORE DUP2 ADD SWAP1 PUSH2 0x31 SWAP2 SWAP1 PUSH2 0x114 JUMP JUMPDEST CALLER PUSH0 DUP1 PUSH2 0x100 EXP DUP2 SLOAD DUP2 PUSH20 0xFFFFFFFFFFFFFFFFFFFFFFFFFFFFFFFFFFFFFFFF MUL NOT AND SWAP1 DUP4 PUSH20 0xFFFFFFFFFFFFFFFFFFFFFFFFFFFFFFFFFFFFFFFF AND MUL OR SWAP1 SSTORE POP DUP1 PUSH1 0x1 PUSH0 PUSH2 0x100 EXP DUP2 SLOAD DUP2 PUSH20 0xFFFFFFFFFFFFFFFFFFFFFFFFFFFFFFFFFFFFFFFF MUL NOT AND SWAP1 DUP4 PUSH20 0xFFFFFFFFFFFFFFFFFFFFFFFFFFFFFFFFFFFFFFFF AND MUL OR SWAP1 SSTORE POP POP PUSH2 0x13F JUMP JUMPDEST PUSH0 DUP1 REVERT JUMPDEST PUSH0 PUSH20 0xFFFFFFFFFFFFFFFFFFFFFFFFFFFFFFFFFFFFFFFF DUP3 AND SWAP1 POP SWAP2 SWAP1 POP JUMP JUMPDEST PUSH0 PUSH2 0xE3 DUP3 PUSH2 0xBA JUMP JUMPDEST SWAP1 POP SWAP2 SWAP1 POP JUMP JUMPDEST PUSH2 0xF3 DUP2 PUSH2 0xD9 JUMP JUMPDEST DUP2 EQ PUSH2 0xFD JUMPI PUSH0 DUP1 REVERT JUMPDEST POP JUMP JUMPDEST PUSH0 DUP2 MLOAD SWAP1 POP PUSH2 0x10E DUP2 PUSH2 0xEA JUMP JUMPDEST SWAP3 SWAP2 POP POP JUMP JUMPDEST PUSH0 PUSH1 0x20 DUP3 DUP5 SUB SLT ISZERO PUSH2 0x129 JUMPI PUSH2 0x128 PUSH2 0xB6 JUMP JUMPDEST JUMPDEST PUSH0 PUSH2 0x136 DUP5 DUP3 DUP6 ADD PUSH2 0x100 JUMP JUMPDEST SWAP2 POP POP SWAP3 SWAP2 POP POP JUMP JUMPDEST PUSH2 0x981 DUP1 PUSH2 0x14C PUSH0 CODECOPY PUSH0 RETURN INVALID PUSH1 0x80 PUSH1 0x40 MSTORE CALLVALUE DUP1 ISZERO PUSH2 0xF JUMPI PUSH0 DUP1 REVERT JUMPDEST POP PUSH1 0x4 CALLDATASIZE LT PUSH2 0x3F JUMPI PUSH0 CALLDATALOAD PUSH1 0xE0 SHR DUP1 PUSH4 0x618943D8 EQ PUSH2 0x43 JUMPI DUP1 PUSH4 0xB3B95F15 EQ PUSH2 0x5F JUMPI DUP1 PUSH4 0xCF4DFD89 EQ PUSH2 0x93 JUMPI JUMPDEST PUSH0 DUP1 REVERT JUMPDEST PUSH2 0x5D PUSH1 0x4 DUP1 CALLDATASIZE SUB DUP2 ADD SWAP1 PUSH2 0x58 SWAP2 SWAP1 PUSH2 0x52F JUMP JUMPDEST PUSH2 0xC3 JUMP JUMPDEST STOP JUMPDEST PUSH2 0x79 PUSH1 0x4 DUP1 CALLDATASIZE SUB DUP2 ADD SWAP1 PUSH2 0x74 SWAP2 SWAP1 PUSH2 0x5AF JUMP JUMPDEST PUSH2 0x23A JUMP JUMPDEST PUSH1 0x40 MLOAD PUSH2 0x8A SWAP6 SWAP5 SWAP4 SWAP3 SWAP2 SWAP1 PUSH2 0x663 JUMP JUMPDEST PUSH1 0x40 MLOAD DUP1 SWAP2 SUB SWAP1 RETURN JUMPDEST PUSH2 0xAD PUSH1 0x4 DUP1 CALLDATASIZE SUB DUP2 ADD SWAP1 PUSH2 0xA8 SWAP2 SWAP1 PUSH2 0x5AF JUMP JUMPDEST PUSH2 0x24E JUMP JUMPDEST PUSH1 0x40 MLOAD PUSH2 0xBA SWAP2 SWAP1 PUSH2 0x6D5 JUMP JUMPDEST PUSH1 0x40 MLOAD DUP1 SWAP2 SUB SWAP1 RETURN JUMPDEST PUSH0 CALLER SWAP1 POP PUSH0 DUP1 SLOAD SWAP1 PUSH2 0x100 EXP SWAP1 DIV PUSH20 0xFFFFFFFFFFFFFFFFFFFFFFFFFFFFFFFFFFFFFFFF AND PUSH20 0xFFFFFFFFFFFFFFFFFFFFFFFFFFFFFFFFFFFFFFFF AND DUP2 PUSH20 0xFFFFFFFFFFFFFFFFFFFFFFFFFFFFFFFFFFFFFFFF AND SUB PUSH2 0x154 JUMPI PUSH1 0x40 MLOAD PUSH32 0x8C379A000000000000000000000000000000000000000000000000000000000 DUP2 MSTORE PUSH1 0x4 ADD PUSH2 0x14B SWAP1 PUSH2 0x738 JUMP JUMPDEST PUSH1 0x40 MLOAD DUP1 SWAP2 SUB SWAP1 REVERT JUMPDEST PUSH1 0x1 PUSH0 SWAP1 SLOAD SWAP1 PUSH2 0x100 EXP SWAP1 DIV PUSH20 0xFFFFFFFFFFFFFFFFFFFFFFFFFFFFFFFFFFFFFFFF AND PUSH20 0xFFFFFFFFFFFFFFFFFFFFFFFFFFFFFFFFFFFFFFFF AND PUSH4 0xBA694BD2 DUP3 DUP8 DUP7 DUP7 PUSH1 0x40 MLOAD DUP6 PUSH4 0xFFFFFFFF AND PUSH1 0xE0 SHL DUP2 MSTORE PUSH1 0x4 ADD PUSH2 0x1B4 SWAP5 SWAP4 SWAP3 SWAP2 SWAP1 PUSH2 0x765 JUMP JUMPDEST PUSH0 PUSH1 0x40 MLOAD DUP1 DUP4 SUB DUP2 PUSH0 DUP8 DUP1 EXTCODESIZE ISZERO DUP1 ISZERO PUSH2 0x1CB JUMPI PUSH0 DUP1 REVERT JUMPDEST POP GAS CALL ISZERO DUP1 ISZERO PUSH2 0x1DD JUMPI RETURNDATASIZE PUSH0 DUP1 RETURNDATACOPY RETURNDATASIZE PUSH0 REVERT JUMPDEST POP POP POP POP DUP1 PUSH20 0xFFFFFFFFFFFFFFFFFFFFFFFFFFFFFFFFFFFFFFFF AND PUSH32 0x221B0A4A1588D290749A1BF4E55CB6C2E002E5163307D8AC84D2B1A871A175FD DUP6 DUP6 DUP6 PUSH1 0x40 MLOAD PUSH2 0x22B SWAP4 SWAP3 SWAP2 SWAP1 PUSH2 0x7F2 JUMP JUMPDEST PUSH1 0x40 MLOAD DUP1 SWAP2 SUB SWAP1 LOG2 POP POP POP POP POP JUMP JUMPDEST PUSH0 PUSH1 0x60 PUSH0 DUP1 PUSH0 DUP1 CALLER SWAP1 POP POP SWAP2 SWAP4 SWAP6 SWAP1 SWAP3 SWAP5 POP JUMP JUMPDEST PUSH0 DUP1 CALLER SWAP1 POP PUSH1 0x1 PUSH0 SWAP1 SLOAD SWAP1 PUSH2 0x100 EXP SWAP1 DIV PUSH20 0xFFFFFFFFFFFFFFFFFFFFFFFFFFFFFFFFFFFFFFFF AND PUSH20 0xFFFFFFFFFFFFFFFFFFFFFFFFFFFFFFFFFFFFFFFF AND PUSH4 0x348B4C5A DUP3 DUP6 PUSH1 0x40 MLOAD DUP4 PUSH4 0xFFFFFFFF AND PUSH1 0xE0 SHL DUP2 MSTORE PUSH1 0x4 ADD PUSH2 0x2AF SWAP3 SWAP2 SWAP1 PUSH2 0x841 JUMP JUMPDEST PUSH1 0x20 PUSH1 0x40 MLOAD DUP1 DUP4 SUB DUP2 PUSH0 DUP8 GAS CALL ISZERO DUP1 ISZERO PUSH2 0x2CB JUMPI RETURNDATASIZE PUSH0 DUP1 RETURNDATACOPY RETURNDATASIZE PUSH0 REVERT JUMPDEST POP POP POP POP PUSH1 0x40 MLOAD RETURNDATASIZE PUSH1 0x1F NOT PUSH1 0x1F DUP3 ADD AND DUP3 ADD DUP1 PUSH1 0x40 MSTORE POP DUP2 ADD SWAP1 PUSH2 0x2EF SWAP2 SWAP1 PUSH2 0x892 JUMP JUMPDEST ISZERO PUSH2 0x34B JUMPI DUP3 DUP2 PUSH20 0xFFFFFFFFFFFFFFFFFFFFFFFFFFFFFFFFFFFFFFFF AND PUSH32 0xF1DDF4A841FF1AC53FFB214AD50CDD64AAF2E2BCBDAD4FE073445D52FAD07BC3 PUSH1 0x40 MLOAD PUSH2 0x339 SWAP1 PUSH2 0x92D JUMP JUMPDEST PUSH1 0x40 MLOAD DUP1 SWAP2 SUB SWAP1 LOG3 PUSH1 0x1 SWAP2 POP POP PUSH2 0x350 JUMP JUMPDEST PUSH0 SWAP2 POP POP JUMPDEST SWAP2 SWAP1 POP JUMP JUMPDEST PUSH0 PUSH1 0x40 MLOAD SWAP1 POP SWAP1 JUMP JUMPDEST PUSH0 DUP1 REVERT JUMPDEST PUSH0 DUP1 REVERT JUMPDEST PUSH0 PUSH20 0xFFFFFFFFFFFFFFFFFFFFFFFFFFFFFFFFFFFFFFFF DUP3 AND SWAP1 POP SWAP2 SWAP1 POP JUMP JUMPDEST PUSH0 PUSH2 0x38F DUP3 PUSH2 0x366 JUMP JUMPDEST SWAP1 POP SWAP2 SWAP1 POP JUMP JUMPDEST PUSH2 0x39F DUP2 PUSH2 0x385 JUMP JUMPDEST DUP2 EQ PUSH2 0x3A9 JUMPI PUSH0 DUP1 REVERT JUMPDEST POP JUMP JUMPDEST PUSH0 DUP2 CALLDATALOAD SWAP1 POP PUSH2 0x3BA DUP2 PUSH2 0x396 JUMP JUMPDEST SWAP3 SWAP2 POP POP JUMP JUMPDEST PUSH0 DUP1 REVERT JUMPDEST PUSH0 DUP1 REVERT JUMPDEST PUSH0 PUSH1 0x1F NOT PUSH1 0x1F DUP4 ADD AND SWAP1 POP SWAP2 SWAP1 POP JUMP JUMPDEST PUSH32 0x4E487B7100000000000000000000000000000000000000000000000000000000 PUSH0 MSTORE PUSH1 0x41 PUSH1 0x4 MSTORE PUSH1 0x24 PUSH0 REVERT JUMPDEST PUSH2 0x40E DUP3 PUSH2 0x3C8 JUMP JUMPDEST DUP2 ADD DUP2 DUP2 LT PUSH8 0xFFFFFFFFFFFFFFFF DUP3 GT OR ISZERO PUSH2 0x42D JUMPI PUSH2 0x42C PUSH2 0x3D8 JUMP JUMPDEST JUMPDEST DUP1 PUSH1 0x40 MSTORE POP POP POP JUMP JUMPDEST PUSH0 PUSH2 0x43F PUSH2 0x355 JUMP JUMPDEST SWAP1 POP PUSH2 0x44B DUP3 DUP3 PUSH2 0x405 JUMP JUMPDEST SWAP2 SWAP1 POP JUMP JUMPDEST PUSH0 PUSH8 0xFFFFFFFFFFFFFFFF DUP3 GT ISZERO PUSH2 0x46A JUMPI PUSH2 0x469 PUSH2 0x3D8 JUMP JUMPDEST JUMPDEST PUSH2 0x473 DUP3 PUSH2 0x3C8 JUMP JUMPDEST SWAP1 POP PUSH1 0x20 DUP2 ADD SWAP1 POP SWAP2 SWAP1 POP JUMP JUMPDEST DUP3 DUP2 DUP4 CALLDATACOPY PUSH0 DUP4 DUP4 ADD MSTORE POP POP POP JUMP JUMPDEST PUSH0 PUSH2 0x4A0 PUSH2 0x49B DUP5 PUSH2 0x450 JUMP JUMPDEST PUSH2 0x436 JUMP JUMPDEST SWAP1 POP DUP3 DUP2 MSTORE PUSH1 0x20 DUP2 ADD DUP5 DUP5 DUP5 ADD GT ISZERO PUSH2 0x4BC JUMPI PUSH2 0x4BB PUSH2 0x3C4 JUMP JUMPDEST JUMPDEST PUSH2 0x4C7 DUP5 DUP3 DUP6 PUSH2 0x480 JUMP JUMPDEST POP SWAP4 SWAP3 POP POP POP JUMP JUMPDEST PUSH0 DUP3 PUSH1 0x1F DUP4 ADD SLT PUSH2 0x4E3 JUMPI PUSH2 0x4E2 PUSH2 0x3C0 JUMP JUMPDEST JUMPDEST DUP2 CALLDATALOAD PUSH2 0x4F3 DUP5 DUP3 PUSH1 0x20 DUP7 ADD PUSH2 0x48E JUMP JUMPDEST SWAP2 POP POP SWAP3 SWAP2 POP POP JUMP JUMPDEST PUSH0 DUP2 SWAP1 POP SWAP2 SWAP1 POP JUMP JUMPDEST PUSH2 0x50E DUP2 PUSH2 0x4FC JUMP JUMPDEST DUP2 EQ PUSH2 0x518 JUMPI PUSH0 DUP1 REVERT JUMPDEST POP JUMP JUMPDEST PUSH0 DUP2 CALLDATALOAD SWAP1 POP PUSH2 0x529 DUP2 PUSH2 0x505 JUMP JUMPDEST SWAP3 SWAP2 POP POP JUMP JUMPDEST PUSH0 DUP1 PUSH0 DUP1 PUSH1 0x80 DUP6 DUP8 SUB SLT ISZERO PUSH2 0x547 JUMPI PUSH2 0x546 PUSH2 0x35E JUMP JUMPDEST JUMPDEST PUSH0 PUSH2 0x554 DUP8 DUP3 DUP9 ADD PUSH2 0x3AC JUMP JUMPDEST SWAP5 POP POP PUSH1 0x20 DUP6 ADD CALLDATALOAD PUSH8 0xFFFFFFFFFFFFFFFF DUP2 GT ISZERO PUSH2 0x575 JUMPI PUSH2 0x574 PUSH2 0x362 JUMP JUMPDEST JUMPDEST PUSH2 0x581 DUP8 DUP3 DUP9 ADD PUSH2 0x4CF JUMP JUMPDEST SWAP4 POP POP PUSH1 0x40 PUSH2 0x592 DUP8 DUP3 DUP9 ADD PUSH2 0x51B JUMP JUMPDEST SWAP3 POP POP PUSH1 0x60 PUSH2 0x5A3 DUP8 DUP3 DUP9 ADD PUSH2 0x51B JUMP JUMPDEST SWAP2 POP POP SWAP3 SWAP6 SWAP2 SWAP5 POP SWAP3 POP JUMP JUMPDEST PUSH0 PUSH1 0x20 DUP3 DUP5 SUB SLT ISZERO PUSH2 0x5C4 JUMPI PUSH2 0x5C3 PUSH2 0x35E JUMP JUMPDEST JUMPDEST PUSH0 PUSH2 0x5D1 DUP5 DUP3 DUP6 ADD PUSH2 0x51B JUMP JUMPDEST SWAP2 POP POP SWAP3 SWAP2 POP POP JUMP JUMPDEST PUSH2 0x5E3 DUP2 PUSH2 0x4FC JUMP JUMPDEST DUP3 MSTORE POP POP JUMP JUMPDEST PUSH0 DUP2 MLOAD SWAP1 POP SWAP2 SWAP1 POP JUMP JUMPDEST PUSH0 DUP3 DUP3 MSTORE PUSH1 0x20 DUP3 ADD SWAP1 POP SWAP3 SWAP2 POP POP JUMP JUMPDEST PUSH0 JUMPDEST DUP4 DUP2 LT ISZERO PUSH2 0x620 JUMPI DUP1 DUP3 ADD MLOAD DUP2 DUP5 ADD MSTORE PUSH1 0x20 DUP2 ADD SWAP1 POP PUSH2 0x605 JUMP JUMPDEST PUSH0 DUP5 DUP5 ADD MSTORE POP POP POP POP JUMP JUMPDEST PUSH0 PUSH2 0x635 DUP3 PUSH2 0x5E9 JUMP JUMPDEST PUSH2 0x63F DUP2 DUP6 PUSH2 0x5F3 JUMP JUMPDEST SWAP4 POP PUSH2 0x64F DUP2 DUP6 PUSH1 0x20 DUP7 ADD PUSH2 0x603 JUMP JUMPDEST PUSH2 0x658 DUP2 PUSH2 0x3C8 JUMP JUMPDEST DUP5 ADD SWAP2 POP POP SWAP3 SWAP2 POP POP JUMP JUMPDEST PUSH0 PUSH1 0xA0 DUP3 ADD SWAP1 POP PUSH2 0x676 PUSH0 DUP4 ADD DUP9 PUSH2 0x5DA JUMP JUMPDEST DUP2 DUP2 SUB PUSH1 0x20 DUP4 ADD MSTORE PUSH2 0x688 DUP2 DUP8 PUSH2 0x62B JUMP JUMPDEST SWAP1 POP PUSH2 0x697 PUSH1 0x40 DUP4 ADD DUP7 PUSH2 0x5DA JUMP JUMPDEST PUSH2 0x6A4 PUSH1 0x60 DUP4 ADD DUP6 PUSH2 0x5DA JUMP JUMPDEST PUSH2 0x6B1 PUSH1 0x80 DUP4 ADD DUP5 PUSH2 0x5DA JUMP JUMPDEST SWAP7 SWAP6 POP POP POP POP POP POP JUMP JUMPDEST PUSH0 DUP2 ISZERO ISZERO SWAP1 POP SWAP2 SWAP1 POP JUMP JUMPDEST PUSH2 0x6CF DUP2 PUSH2 0x6BB JUMP JUMPDEST DUP3 MSTORE POP POP JUMP JUMPDEST PUSH0 PUSH1 0x20 DUP3 ADD SWAP1 POP PUSH2 0x6E8 PUSH0 DUP4 ADD DUP5 PUSH2 0x6C6 JUMP JUMPDEST SWAP3 SWAP2 POP POP JUMP JUMPDEST PUSH32 0x41646472657373206E6F6E2056616C69646F2100000000000000000000000000 PUSH0 DUP3 ADD MSTORE POP JUMP JUMPDEST PUSH0 PUSH2 0x722 PUSH1 0x13 DUP4 PUSH2 0x5F3 JUMP JUMPDEST SWAP2 POP PUSH2 0x72D DUP3 PUSH2 0x6EE JUMP JUMPDEST PUSH1 0x20 DUP3 ADD SWAP1 POP SWAP2 SWAP1 POP JUMP JUMPDEST PUSH0 PUSH1 0x20 DUP3 ADD SWAP1 POP DUP2 DUP2 SUB PUSH0 DUP4 ADD MSTORE PUSH2 0x74F DUP2 PUSH2 0x716 JUMP JUMPDEST SWAP1 POP SWAP2 SWAP1 POP JUMP JUMPDEST PUSH2 0x75F DUP2 PUSH2 0x385 JUMP JUMPDEST DUP3 MSTORE POP POP JUMP JUMPDEST PUSH0 PUSH1 0x80 DUP3 ADD SWAP1 POP PUSH2 0x778 PUSH0 DUP4 ADD DUP8 PUSH2 0x756 JUMP JUMPDEST PUSH2 0x785 PUSH1 0x20 DUP4 ADD DUP7 PUSH2 0x756 JUMP JUMPDEST PUSH2 0x792 PUSH1 0x40 DUP4 ADD DUP6 PUSH2 0x5DA JUMP JUMPDEST PUSH2 0x79F PUSH1 0x60 DUP4 ADD DUP5 PUSH2 0x5DA JUMP JUMPDEST SWAP6 SWAP5 POP POP POP POP POP JUMP JUMPDEST PUSH32 0x50657A7A6F20646920666F726D616767696F20696E73657269746F2021000000 PUSH0 DUP3 ADD MSTORE POP JUMP JUMPDEST PUSH0 PUSH2 0x7DC PUSH1 0x1D DUP4 PUSH2 0x5F3 JUMP JUMPDEST SWAP2 POP PUSH2 0x7E7 DUP3 PUSH2 0x7A8 JUMP JUMPDEST PUSH1 0x20 DUP3 ADD SWAP1 POP SWAP2 SWAP1 POP JUMP JUMPDEST PUSH0 PUSH1 0x80 DUP3 ADD SWAP1 POP DUP2 DUP2 SUB PUSH0 DUP4 ADD MSTORE PUSH2 0x809 DUP2 PUSH2 0x7D0 JUMP JUMPDEST SWAP1 POP DUP2 DUP2 SUB PUSH1 0x20 DUP4 ADD MSTORE PUSH2 0x81D DUP2 DUP7 PUSH2 0x62B JUMP JUMPDEST SWAP1 POP PUSH2 0x82C PUSH1 0x40 DUP4 ADD DUP6 PUSH2 0x5DA JUMP JUMPDEST PUSH2 0x839 PUSH1 0x60 DUP4 ADD DUP5 PUSH2 0x5DA JUMP JUMPDEST SWAP5 SWAP4 POP POP POP POP JUMP JUMPDEST PUSH0 PUSH1 0x40 DUP3 ADD SWAP1 POP PUSH2 0x854 PUSH0 DUP4 ADD DUP6 PUSH2 0x756 JUMP JUMPDEST PUSH2 0x861 PUSH1 0x20 DUP4 ADD DUP5 PUSH2 0x5DA JUMP JUMPDEST SWAP4 SWAP3 POP POP POP JUMP JUMPDEST PUSH2 0x871 DUP2 PUSH2 0x6BB JUMP JUMPDEST DUP2 EQ PUSH2 0x87B JUMPI PUSH0 DUP1 REVERT JUMPDEST POP JUMP JUMPDEST PUSH0 DUP2 MLOAD SWAP1 POP PUSH2 0x88C DUP2 PUSH2 0x868 JUMP JUMPDEST SWAP3 SWAP2 POP POP JUMP JUMPDEST PUSH0 PUSH1 0x20 DUP3 DUP5 SUB SLT ISZERO PUSH2 0x8A7 JUMPI PUSH2 0x8A6 PUSH2 0x35E JUMP JUMPDEST JUMPDEST PUSH0 PUSH2 0x8B4 DUP5 DUP3 DUP6 ADD PUSH2 0x87E JUMP JUMPDEST SWAP2 POP POP SWAP3 SWAP2 POP POP JUMP JUMPDEST PUSH32 0x50657A7A6F20646920466F726D616767696F20652720737461746F20656C656D PUSH0 DUP3 ADD MSTORE PUSH32 0x696E61746F000000000000000000000000000000000000000000000000000000 PUSH1 0x20 DUP3 ADD MSTORE POP JUMP JUMPDEST PUSH0 PUSH2 0x917 PUSH1 0x25 DUP4 PUSH2 0x5F3 JUMP JUMPDEST SWAP2 POP PUSH2 0x922 DUP3 PUSH2 0x8BD JUMP JUMPDEST PUSH1 0x40 DUP3 ADD SWAP1 POP SWAP2 SWAP1 POP JUMP JUMPDEST PUSH0 PUSH1 0x20 DUP3 ADD SWAP1 POP DUP2 DUP2 SUB PUSH0 DUP4 ADD MSTORE PUSH2 0x944 DUP2 PUSH2 0x90B JUMP JUMPDEST SWAP1 POP SWAP2 SWAP1 POP JUMP INVALID LOG2 PUSH5 0x6970667358 0x22 SLT KECCAK256 SELFBALANCE 0xDF BASEFEE 0x5E DUP10 SWAP14 0xC4 PUSH22 0x4D49A9694DF9B1092741A94F622F35AC23A84658A82E ORIGIN 0xAF PUSH5 0x736F6C6343 STOP ADDMOD AND STOP CALLER "
				},
				"gasEstimates": {
					"creation": {
						"codeDepositCost": "486600",
						"executionCost": "infinite",
						"totalCost": "infinite"
					},
					"external": {
						"addCheesePiece(address,string,uint256,uint256)": "infinite",
						"deleteCheesePiece(uint256)": "infinite",
						"getCheesePiece(uint256)": "infinite"
					}
				},
				"methodIdentifiers": {
					"addCheesePiece(address,string,uint256,uint256)": "618943d8",
					"deleteCheesePiece(uint256)": "cf4dfd89",
					"getCheesePiece(uint256)": "b3b95f15"
				}
			},
			"storageLayout": {
				"storage": [
					{
						"astId": 4,
						"contract": "contracts/Actor/Consumer-smart-contract/inventory/ConsumerInventoryService.sol:ConsumerInventoryService",
						"label": "ConsumerOrg",
						"offset": 0,
						"slot": "0",
						"type": "t_address"
					},
					{
						"astId": 7,
						"contract": "contracts/Actor/Consumer-smart-contract/inventory/ConsumerInventoryService.sol:ConsumerInventoryService",
						"label": "consumerInventoryStorage",
						"offset": 0,
						"slot": "1",
						"type": "t_contract(ConsumerInventoryStorage)354"
					}
				],
				"types": {
					"t_address": {
						"encoding": "inplace",
						"label": "address",
						"numberOfBytes": "20"
					},
					"t_contract(ConsumerInventoryStorage)354": {
						"encoding": "inplace",
						"label": "contract ConsumerInventoryStorage",
						"numberOfBytes": "20"
					}
				}
			},
			"userdoc": {
				"kind": "user",
				"methods": {},
				"version": 1
			}
		}
	}
}