{
	"contracts/Actor/MilkHub-smart-contract/inventory/MilkHubInventoryStorage.sol": {
		"MilkHubInventoryStorage": {
			"abi": [
				{
					"inputs": [],
					"stateMutability": "nonpayable",
					"type": "constructor"
				},
				{
					"inputs": [
						{
							"internalType": "address",
							"name": "walletMilkHub",
							"type": "address"
						},
						{
							"internalType": "string",
							"name": "expirationDate",
							"type": "string"
						},
						{
							"internalType": "uint256",
							"name": "quantity",
							"type": "uint256"
						},
						{
							"internalType": "uint256",
							"name": "price",
							"type": "uint256"
						}
					],
					"name": "addMilkBatch",
					"outputs": [
						{
							"internalType": "uint256",
							"name": "",
							"type": "uint256"
						},
						{
							"internalType": "string",
							"name": "",
							"type": "string"
						},
						{
							"internalType": "uint256",
							"name": "",
							"type": "uint256"
						},
						{
							"internalType": "uint256",
							"name": "",
							"type": "uint256"
						}
					],
					"stateMutability": "nonpayable",
					"type": "function"
				},
				{
					"inputs": [
						{
							"internalType": "address",
							"name": "ownerMilkBatch",
							"type": "address"
						},
						{
							"internalType": "uint256",
							"name": "idMilkBatch",
							"type": "uint256"
						},
						{
							"internalType": "uint256",
							"name": "quantityToBuy",
							"type": "uint256"
						}
					],
					"name": "checkProduct",
					"outputs": [
						{
							"internalType": "bool",
							"name": "",
							"type": "bool"
						}
					],
					"stateMutability": "view",
					"type": "function"
				},
				{
					"inputs": [
						{
							"internalType": "address",
							"name": "walletMilkHub",
							"type": "address"
						},
						{
							"internalType": "uint256",
							"name": "id",
							"type": "uint256"
						}
					],
					"name": "deleteMilkBatch",
					"outputs": [
						{
							"internalType": "bool",
							"name": "value",
							"type": "bool"
						}
					],
					"stateMutability": "nonpayable",
					"type": "function"
				},
				{
					"inputs": [
						{
							"internalType": "address",
							"name": "walletMilkHub",
							"type": "address"
						},
						{
							"internalType": "uint256",
							"name": "id",
							"type": "uint256"
						}
					],
					"name": "getExpirationDate",
					"outputs": [
						{
							"internalType": "string",
							"name": "",
							"type": "string"
						}
					],
					"stateMutability": "view",
					"type": "function"
				},
				{
					"inputs": [],
					"name": "getGlobalMilkBatchIds",
					"outputs": [
						{
							"internalType": "uint256[]",
							"name": "",
							"type": "uint256[]"
						}
					],
					"stateMutability": "view",
					"type": "function"
				},
				{
					"inputs": [
						{
							"internalType": "address",
							"name": "walletMilkHub",
							"type": "address"
						},
						{
							"internalType": "uint256",
							"name": "id",
							"type": "uint256"
						}
					],
					"name": "getMilkBatch",
					"outputs": [
						{
							"internalType": "uint256",
							"name": "",
							"type": "uint256"
						},
						{
							"internalType": "string",
							"name": "",
							"type": "string"
						},
						{
							"internalType": "uint256",
							"name": "",
							"type": "uint256"
						},
						{
							"internalType": "uint256",
							"name": "",
							"type": "uint256"
						}
					],
					"stateMutability": "view",
					"type": "function"
				},
				{
					"inputs": [
						{
							"internalType": "address",
							"name": "walletMilkHub",
							"type": "address"
						},
						{
							"internalType": "uint256",
							"name": "id",
							"type": "uint256"
						}
					],
					"name": "getPrice",
					"outputs": [
						{
							"internalType": "uint256",
							"name": "",
							"type": "uint256"
						}
					],
					"stateMutability": "view",
					"type": "function"
				},
				{
					"inputs": [
						{
							"internalType": "address",
							"name": "walletMilkHub",
							"type": "address"
						},
						{
							"internalType": "uint256",
							"name": "id",
							"type": "uint256"
						}
					],
					"name": "getQuantity",
					"outputs": [
						{
							"internalType": "uint256",
							"name": "",
							"type": "uint256"
						}
					],
					"stateMutability": "view",
					"type": "function"
				},
				{
					"inputs": [
						{
							"internalType": "address",
							"name": "walletMilkHub",
							"type": "address"
						}
					],
					"name": "getUserMilkBatchIds",
					"outputs": [
						{
							"internalType": "uint256[]",
							"name": "",
							"type": "uint256[]"
						}
					],
					"stateMutability": "view",
					"type": "function"
				},
				{
					"inputs": [
						{
							"internalType": "address",
							"name": "walletMilkHub",
							"type": "address"
						},
						{
							"internalType": "uint256",
							"name": "id",
							"type": "uint256"
						}
					],
					"name": "isMilkBatchPresent",
					"outputs": [
						{
							"internalType": "bool",
							"name": "",
							"type": "bool"
						}
					],
					"stateMutability": "view",
					"type": "function"
				},
				{
					"inputs": [
						{
							"internalType": "address",
							"name": "walletMilkHub",
							"type": "address"
						},
						{
							"internalType": "uint256",
							"name": "id",
							"type": "uint256"
						},
						{
							"internalType": "uint256",
							"name": "newQuantity",
							"type": "uint256"
						}
					],
					"name": "updateQuantity",
					"outputs": [],
					"stateMutability": "nonpayable",
					"type": "function"
				}
			],
			"devdoc": {
				"kind": "dev",
				"methods": {},
				"version": 1
			},
			"evm": {
				"assembly": "    /* \"contracts/Actor/MilkHub-smart-contract/inventory/MilkHubInventoryStorage.sol\":60:6762  contract MilkHubInventoryStorage {... */\n  mstore(0x40, 0x80)\n    /* \"contracts/Actor/MilkHub-smart-contract/inventory/MilkHubInventoryStorage.sol\":195:250  constructor(){... */\n  callvalue\n  dup1\n  iszero\n  tag_1\n  jumpi\n  0x00\n  dup1\n  revert\ntag_1:\n  pop\n    /* \"contracts/Actor/MilkHub-smart-contract/inventory/MilkHubInventoryStorage.sol\":232:242  msg.sender */\n  caller\n    /* \"contracts/Actor/MilkHub-smart-contract/inventory/MilkHubInventoryStorage.sol\":219:229  MilkHubOrg */\n  0x00\n  dup1\n    /* \"contracts/Actor/MilkHub-smart-contract/inventory/MilkHubInventoryStorage.sol\":219:242  MilkHubOrg = msg.sender */\n  0x0100\n  exp\n  dup2\n  sload\n  dup2\n  0xffffffffffffffffffffffffffffffffffffffff\n  mul\n  not\n  and\n  swap1\n  dup4\n  0xffffffffffffffffffffffffffffffffffffffff\n  and\n  mul\n  or\n  swap1\n  sstore\n  pop\n    /* \"contracts/Actor/MilkHub-smart-contract/inventory/MilkHubInventoryStorage.sol\":60:6762  contract MilkHubInventoryStorage {... */\n  dataSize(sub_0)\n  dup1\n  dataOffset(sub_0)\n  0x00\n  codecopy\n  0x00\n  return\nstop\n\nsub_0: assembly {\n        /* \"contracts/Actor/MilkHub-smart-contract/inventory/MilkHubInventoryStorage.sol\":60:6762  contract MilkHubInventoryStorage {... */\n      mstore(0x40, 0x80)\n      callvalue\n      dup1\n      iszero\n      tag_1\n      jumpi\n      0x00\n      dup1\n      revert\n    tag_1:\n      pop\n      jumpi(tag_2, lt(calldatasize, 0x04))\n      shr(0xe0, calldataload(0x00))\n      dup1\n      0x8317679f\n      gt\n      tag_14\n      jumpi\n      dup1\n      0x8317679f\n      eq\n      tag_8\n      jumpi\n      dup1\n      0x87abc216\n      eq\n      tag_9\n      jumpi\n      dup1\n      0x9f2b6898\n      eq\n      tag_10\n      jumpi\n      dup1\n      0xad9c10a1\n      eq\n      tag_11\n      jumpi\n      dup1\n      0xce4fcf23\n      eq\n      tag_12\n      jumpi\n      dup1\n      0xf2492078\n      eq\n      tag_13\n      jumpi\n      jump(tag_2)\n    tag_14:\n      dup1\n      0x02d805f6\n      eq\n      tag_3\n      jumpi\n      dup1\n      0x1d49cc62\n      eq\n      tag_4\n      jumpi\n      dup1\n      0x1e073fcf\n      eq\n      tag_5\n      jumpi\n      dup1\n      0x449e815d\n      eq\n      tag_6\n      jumpi\n      dup1\n      0x7950814d\n      eq\n      tag_7\n      jumpi\n    tag_2:\n      0x00\n      dup1\n      revert\n        /* \"contracts/Actor/MilkHub-smart-contract/inventory/MilkHubInventoryStorage.sol\":4427:4644  function isMilkBatchPresent(address walletMilkHub, uint256 id)external view returns(bool){... */\n    tag_3:\n      tag_15\n      0x04\n      dup1\n      calldatasize\n      sub\n      dup2\n      add\n      swap1\n      tag_16\n      swap2\n      swap1\n      tag_17\n      jump\t// in\n    tag_16:\n      tag_18\n      jump\t// in\n    tag_15:\n      mload(0x40)\n      tag_19\n      swap2\n      swap1\n      tag_20\n      jump\t// in\n    tag_19:\n      mload(0x40)\n      dup1\n      swap2\n      sub\n      swap1\n      return\n        /* \"contracts/Actor/MilkHub-smart-contract/inventory/MilkHubInventoryStorage.sol\":2801:2949  function getUserMilkBatchIds(address walletMilkHub)external view returns (uint256[] memory){... */\n    tag_4:\n      tag_21\n      0x04\n      dup1\n      calldatasize\n      sub\n      dup2\n      add\n      swap1\n      tag_22\n      swap2\n      swap1\n      tag_23\n      jump\t// in\n    tag_22:\n      tag_24\n      jump\t// in\n    tag_21:\n      mload(0x40)\n      tag_25\n      swap2\n      swap1\n      tag_26\n      jump\t// in\n    tag_25:\n      mload(0x40)\n      dup1\n      swap2\n      sub\n      swap1\n      return\n        /* \"contracts/Actor/MilkHub-smart-contract/inventory/MilkHubInventoryStorage.sol\":5042:5255  function getQuantity(address walletMilkHub, uint256 id) external view returns(uint256) {... */\n    tag_5:\n      tag_27\n      0x04\n      dup1\n      calldatasize\n      sub\n      dup2\n      add\n      swap1\n      tag_28\n      swap2\n      swap1\n      tag_17\n      jump\t// in\n    tag_28:\n      tag_29\n      jump\t// in\n    tag_27:\n      mload(0x40)\n      tag_30\n      swap2\n      swap1\n      tag_31\n      jump\t// in\n    tag_30:\n      mload(0x40)\n      dup1\n      swap2\n      sub\n      swap1\n      return\n        /* \"contracts/Actor/MilkHub-smart-contract/inventory/MilkHubInventoryStorage.sol\":5263:5478  function getPrice(address walletMilkHub, uint256 id) external view returns(uint256) {... */\n    tag_6:\n      tag_32\n      0x04\n      dup1\n      calldatasize\n      sub\n      dup2\n      add\n      swap1\n      tag_33\n      swap2\n      swap1\n      tag_17\n      jump\t// in\n    tag_33:\n      tag_34\n      jump\t// in\n    tag_32:\n      mload(0x40)\n      tag_35\n      swap2\n      swap1\n      tag_31\n      jump\t// in\n    tag_35:\n      mload(0x40)\n      dup1\n      swap2\n      sub\n      swap1\n      return\n        /* \"contracts/Actor/MilkHub-smart-contract/inventory/MilkHubInventoryStorage.sol\":2957:3071  function getGlobalMilkBatchIds()external view returns(uint256[]memory){... */\n    tag_7:\n      tag_36\n      tag_37\n      jump\t// in\n    tag_36:\n      mload(0x40)\n      tag_38\n      swap2\n      swap1\n      tag_26\n      jump\t// in\n    tag_38:\n      mload(0x40)\n      dup1\n      swap2\n      sub\n      swap1\n      return\n        /* \"contracts/Actor/MilkHub-smart-contract/inventory/MilkHubInventoryStorage.sol\":997:2289  function addMilkBatch(address walletMilkHub, string memory expirationDate, uint256 quantity, uint256 price) external returns (uint256,string memory, uint256, uint256) {... */\n    tag_8:\n      tag_39\n      0x04\n      dup1\n      calldatasize\n      sub\n      dup2\n      add\n      swap1\n      tag_40\n      swap2\n      swap1\n      tag_41\n      jump\t// in\n    tag_40:\n      tag_42\n      jump\t// in\n    tag_39:\n      mload(0x40)\n      tag_43\n      swap5\n      swap4\n      swap3\n      swap2\n      swap1\n      tag_44\n      jump\t// in\n    tag_43:\n      mload(0x40)\n      dup1\n      swap2\n      sub\n      swap1\n      return\n        /* \"contracts/Actor/MilkHub-smart-contract/inventory/MilkHubInventoryStorage.sol\":3675:4126  function checkProduct(address ownerMilkBatch, uint256 idMilkBatch, uint256 quantityToBuy) external view  returns (bool){... */\n    tag_9:\n      tag_45\n      0x04\n      dup1\n      calldatasize\n      sub\n      dup2\n      add\n      swap1\n      tag_46\n      swap2\n      swap1\n      tag_47\n      jump\t// in\n    tag_46:\n      tag_48\n      jump\t// in\n    tag_45:\n      mload(0x40)\n      tag_49\n      swap2\n      swap1\n      tag_20\n      jump\t// in\n    tag_49:\n      mload(0x40)\n      dup1\n      swap2\n      sub\n      swap1\n      return\n        /* \"contracts/Actor/MilkHub-smart-contract/inventory/MilkHubInventoryStorage.sol\":4805:5034  function getExpirationDate(address walletMilkHub, uint256 id) external view returns(string memory) {... */\n    tag_10:\n      tag_50\n      0x04\n      dup1\n      calldatasize\n      sub\n      dup2\n      add\n      swap1\n      tag_51\n      swap2\n      swap1\n      tag_17\n      jump\t// in\n    tag_51:\n      tag_52\n      jump\t// in\n    tag_50:\n      mload(0x40)\n      tag_53\n      swap2\n      swap1\n      tag_54\n      jump\t// in\n    tag_53:\n      mload(0x40)\n      dup1\n      swap2\n      sub\n      swap1\n      return\n        /* \"contracts/Actor/MilkHub-smart-contract/inventory/MilkHubInventoryStorage.sol\":3195:3661  function deleteMilkBatch(address walletMilkHub, uint256 id) external returns(bool value) {... */\n    tag_11:\n      tag_55\n      0x04\n      dup1\n      calldatasize\n      sub\n      dup2\n      add\n      swap1\n      tag_56\n      swap2\n      swap1\n      tag_17\n      jump\t// in\n    tag_56:\n      tag_57\n      jump\t// in\n    tag_55:\n      mload(0x40)\n      tag_58\n      swap2\n      swap1\n      tag_20\n      jump\t// in\n    tag_58:\n      mload(0x40)\n      dup1\n      swap2\n      sub\n      swap1\n      return\n        /* \"contracts/Actor/MilkHub-smart-contract/inventory/MilkHubInventoryStorage.sol\":2327:2695  function getMilkBatch(address walletMilkHub, uint256 id) external view returns (uint256, string memory, uint256, uint256) {... */\n    tag_12:\n      tag_59\n      0x04\n      dup1\n      calldatasize\n      sub\n      dup2\n      add\n      swap1\n      tag_60\n      swap2\n      swap1\n      tag_17\n      jump\t// in\n    tag_60:\n      tag_61\n      jump\t// in\n    tag_59:\n      mload(0x40)\n      tag_62\n      swap5\n      swap4\n      swap3\n      swap2\n      swap1\n      tag_44\n      jump\t// in\n    tag_62:\n      mload(0x40)\n      dup1\n      swap2\n      sub\n      swap1\n      return\n        /* \"contracts/Actor/MilkHub-smart-contract/inventory/MilkHubInventoryStorage.sol\":6585:6757  function updateQuantity(address walletMilkHub, uint256 id, uint256 newQuantity) external  {... */\n    tag_13:\n      tag_63\n      0x04\n      dup1\n      calldatasize\n      sub\n      dup2\n      add\n      swap1\n      tag_64\n      swap2\n      swap1\n      tag_47\n      jump\t// in\n    tag_64:\n      tag_65\n      jump\t// in\n    tag_63:\n      stop\n        /* \"contracts/Actor/MilkHub-smart-contract/inventory/MilkHubInventoryStorage.sol\":4427:4644  function isMilkBatchPresent(address walletMilkHub, uint256 id)external view returns(bool){... */\n    tag_18:\n        /* \"contracts/Actor/MilkHub-smart-contract/inventory/MilkHubInventoryStorage.sol\":4511:4515  bool */\n      0x00\n        /* \"contracts/Actor/MilkHub-smart-contract/inventory/MilkHubInventoryStorage.sol\":4541:4542  0 */\n      dup1\n        /* \"contracts/Actor/MilkHub-smart-contract/inventory/MilkHubInventoryStorage.sol\":4536:4538  id */\n      dup3\n        /* \"contracts/Actor/MilkHub-smart-contract/inventory/MilkHubInventoryStorage.sol\":4536:4542  id !=0 */\n      eq\n      iszero\n        /* \"contracts/Actor/MilkHub-smart-contract/inventory/MilkHubInventoryStorage.sol\":4536:4550  id !=0 && id>0 */\n      dup1\n      iszero\n      tag_67\n      jumpi\n      pop\n        /* \"contracts/Actor/MilkHub-smart-contract/inventory/MilkHubInventoryStorage.sol\":4549:4550  0 */\n      0x00\n        /* \"contracts/Actor/MilkHub-smart-contract/inventory/MilkHubInventoryStorage.sol\":4546:4548  id */\n      dup3\n        /* \"contracts/Actor/MilkHub-smart-contract/inventory/MilkHubInventoryStorage.sol\":4546:4550  id>0 */\n      gt\n        /* \"contracts/Actor/MilkHub-smart-contract/inventory/MilkHubInventoryStorage.sol\":4536:4550  id !=0 && id>0 */\n    tag_67:\n        /* \"contracts/Actor/MilkHub-smart-contract/inventory/MilkHubInventoryStorage.sol\":4527:4577  require( id !=0 && id>0,\"ID MilkBatch Not Valid!\") */\n      tag_68\n      jumpi\n      mload(0x40)\n      0x08c379a000000000000000000000000000000000000000000000000000000000\n      dup2\n      mstore\n      0x04\n      add\n      tag_69\n      swap1\n      tag_70\n      jump\t// in\n    tag_69:\n      mload(0x40)\n      dup1\n      swap2\n      sub\n      swap1\n      revert\n    tag_68:\n        /* \"contracts/Actor/MilkHub-smart-contract/inventory/MilkHubInventoryStorage.sol\":4634:4636  id */\n      dup2\n        /* \"contracts/Actor/MilkHub-smart-contract/inventory/MilkHubInventoryStorage.sol\":4597:4608  milkBatches */\n      0x01\n        /* \"contracts/Actor/MilkHub-smart-contract/inventory/MilkHubInventoryStorage.sol\":4597:4623  milkBatches[walletMilkHub] */\n      0x00\n        /* \"contracts/Actor/MilkHub-smart-contract/inventory/MilkHubInventoryStorage.sol\":4609:4622  walletMilkHub */\n      dup6\n        /* \"contracts/Actor/MilkHub-smart-contract/inventory/MilkHubInventoryStorage.sol\":4597:4623  milkBatches[walletMilkHub] */\n      0xffffffffffffffffffffffffffffffffffffffff\n      and\n      0xffffffffffffffffffffffffffffffffffffffff\n      and\n      dup2\n      mstore\n      0x20\n      add\n      swap1\n      dup2\n      mstore\n      0x20\n      add\n      0x00\n      keccak256\n        /* \"contracts/Actor/MilkHub-smart-contract/inventory/MilkHubInventoryStorage.sol\":4597:4627  milkBatches[walletMilkHub][id] */\n      0x00\n        /* \"contracts/Actor/MilkHub-smart-contract/inventory/MilkHubInventoryStorage.sol\":4624:4626  id */\n      dup5\n        /* \"contracts/Actor/MilkHub-smart-contract/inventory/MilkHubInventoryStorage.sol\":4597:4627  milkBatches[walletMilkHub][id] */\n      dup2\n      mstore\n      0x20\n      add\n      swap1\n      dup2\n      mstore\n      0x20\n      add\n      0x00\n      keccak256\n        /* \"contracts/Actor/MilkHub-smart-contract/inventory/MilkHubInventoryStorage.sol\":4597:4630  milkBatches[walletMilkHub][id].id */\n      0x00\n      add\n      sload\n        /* \"contracts/Actor/MilkHub-smart-contract/inventory/MilkHubInventoryStorage.sol\":4597:4636  milkBatches[walletMilkHub][id].id == id */\n      eq\n        /* \"contracts/Actor/MilkHub-smart-contract/inventory/MilkHubInventoryStorage.sol\":4590:4636  return milkBatches[walletMilkHub][id].id == id */\n      swap1\n      pop\n        /* \"contracts/Actor/MilkHub-smart-contract/inventory/MilkHubInventoryStorage.sol\":4427:4644  function isMilkBatchPresent(address walletMilkHub, uint256 id)external view returns(bool){... */\n      swap3\n      swap2\n      pop\n      pop\n      jump\t// out\n        /* \"contracts/Actor/MilkHub-smart-contract/inventory/MilkHubInventoryStorage.sol\":2801:2949  function getUserMilkBatchIds(address walletMilkHub)external view returns (uint256[] memory){... */\n    tag_24:\n        /* \"contracts/Actor/MilkHub-smart-contract/inventory/MilkHubInventoryStorage.sol\":2875:2891  uint256[] memory */\n      0x60\n        /* \"contracts/Actor/MilkHub-smart-contract/inventory/MilkHubInventoryStorage.sol\":2910:2926  userMilkBatchIds */\n      0x02\n        /* \"contracts/Actor/MilkHub-smart-contract/inventory/MilkHubInventoryStorage.sol\":2910:2941  userMilkBatchIds[walletMilkHub] */\n      0x00\n        /* \"contracts/Actor/MilkHub-smart-contract/inventory/MilkHubInventoryStorage.sol\":2927:2940  walletMilkHub */\n      dup4\n        /* \"contracts/Actor/MilkHub-smart-contract/inventory/MilkHubInventoryStorage.sol\":2910:2941  userMilkBatchIds[walletMilkHub] */\n      0xffffffffffffffffffffffffffffffffffffffff\n      and\n      0xffffffffffffffffffffffffffffffffffffffff\n      and\n      dup2\n      mstore\n      0x20\n      add\n      swap1\n      dup2\n      mstore\n      0x20\n      add\n      0x00\n      keccak256\n        /* \"contracts/Actor/MilkHub-smart-contract/inventory/MilkHubInventoryStorage.sol\":2903:2941  return userMilkBatchIds[walletMilkHub] */\n      dup1\n      sload\n      dup1\n      0x20\n      mul\n      0x20\n      add\n      mload(0x40)\n      swap1\n      dup2\n      add\n      0x40\n      mstore\n      dup1\n      swap3\n      swap2\n      swap1\n      dup2\n      dup2\n      mstore\n      0x20\n      add\n      dup3\n      dup1\n      sload\n      dup1\n      iszero\n      tag_72\n      jumpi\n      0x20\n      mul\n      dup3\n      add\n      swap2\n      swap1\n      0x00\n      mstore\n      keccak256(0x00, 0x20)\n      swap1\n    tag_73:\n      dup2\n      sload\n      dup2\n      mstore\n      0x20\n      add\n      swap1\n      0x01\n      add\n      swap1\n      dup1\n      dup4\n      gt\n      tag_73\n      jumpi\n    tag_72:\n      pop\n      pop\n      pop\n      pop\n      pop\n      swap1\n      pop\n        /* \"contracts/Actor/MilkHub-smart-contract/inventory/MilkHubInventoryStorage.sol\":2801:2949  function getUserMilkBatchIds(address walletMilkHub)external view returns (uint256[] memory){... */\n      swap2\n      swap1\n      pop\n      jump\t// out\n        /* \"contracts/Actor/MilkHub-smart-contract/inventory/MilkHubInventoryStorage.sol\":5042:5255  function getQuantity(address walletMilkHub, uint256 id) external view returns(uint256) {... */\n    tag_29:\n        /* \"contracts/Actor/MilkHub-smart-contract/inventory/MilkHubInventoryStorage.sol\":5120:5127  uint256 */\n      0x00\n        /* \"contracts/Actor/MilkHub-smart-contract/inventory/MilkHubInventoryStorage.sol\":5142:5168  MilkBatch memory milkBatch */\n      dup1\n        /* \"contracts/Actor/MilkHub-smart-contract/inventory/MilkHubInventoryStorage.sol\":5171:5182  milkBatches */\n      0x01\n        /* \"contracts/Actor/MilkHub-smart-contract/inventory/MilkHubInventoryStorage.sol\":5171:5197  milkBatches[walletMilkHub] */\n      0x00\n        /* \"contracts/Actor/MilkHub-smart-contract/inventory/MilkHubInventoryStorage.sol\":5183:5196  walletMilkHub */\n      dup6\n        /* \"contracts/Actor/MilkHub-smart-contract/inventory/MilkHubInventoryStorage.sol\":5171:5197  milkBatches[walletMilkHub] */\n      0xffffffffffffffffffffffffffffffffffffffff\n      and\n      0xffffffffffffffffffffffffffffffffffffffff\n      and\n      dup2\n      mstore\n      0x20\n      add\n      swap1\n      dup2\n      mstore\n      0x20\n      add\n      0x00\n      keccak256\n        /* \"contracts/Actor/MilkHub-smart-contract/inventory/MilkHubInventoryStorage.sol\":5171:5201  milkBatches[walletMilkHub][id] */\n      0x00\n        /* \"contracts/Actor/MilkHub-smart-contract/inventory/MilkHubInventoryStorage.sol\":5198:5200  id */\n      dup5\n        /* \"contracts/Actor/MilkHub-smart-contract/inventory/MilkHubInventoryStorage.sol\":5171:5201  milkBatches[walletMilkHub][id] */\n      dup2\n      mstore\n      0x20\n      add\n      swap1\n      dup2\n      mstore\n      0x20\n      add\n      0x00\n      keccak256\n        /* \"contracts/Actor/MilkHub-smart-contract/inventory/MilkHubInventoryStorage.sol\":5142:5201  MilkBatch memory milkBatch = milkBatches[walletMilkHub][id] */\n      mload(0x40)\n      dup1\n      0x80\n      add\n      0x40\n      mstore\n      swap1\n      dup2\n      0x00\n      dup3\n      add\n      sload\n      dup2\n      mstore\n      0x20\n      add\n      0x01\n      dup3\n      add\n      dup1\n      sload\n      tag_75\n      swap1\n      tag_76\n      jump\t// in\n    tag_75:\n      dup1\n      0x1f\n      add\n      0x20\n      dup1\n      swap2\n      div\n      mul\n      0x20\n      add\n      mload(0x40)\n      swap1\n      dup2\n      add\n      0x40\n      mstore\n      dup1\n      swap3\n      swap2\n      swap1\n      dup2\n      dup2\n      mstore\n      0x20\n      add\n      dup3\n      dup1\n      sload\n      tag_77\n      swap1\n      tag_76\n      jump\t// in\n    tag_77:\n      dup1\n      iszero\n      tag_78\n      jumpi\n      dup1\n      0x1f\n      lt\n      tag_79\n      jumpi\n      0x0100\n      dup1\n      dup4\n      sload\n      div\n      mul\n      dup4\n      mstore\n      swap2\n      0x20\n      add\n      swap2\n      jump(tag_78)\n    tag_79:\n      dup3\n      add\n      swap2\n      swap1\n      0x00\n      mstore\n      keccak256(0x00, 0x20)\n      swap1\n    tag_80:\n      dup2\n      sload\n      dup2\n      mstore\n      swap1\n      0x01\n      add\n      swap1\n      0x20\n      add\n      dup1\n      dup4\n      gt\n      tag_80\n      jumpi\n      dup3\n      swap1\n      sub\n      0x1f\n      and\n      dup3\n      add\n      swap2\n    tag_78:\n      pop\n      pop\n      pop\n      pop\n      pop\n      dup2\n      mstore\n      0x20\n      add\n      0x02\n      dup3\n      add\n      sload\n      dup2\n      mstore\n      0x20\n      add\n      0x03\n      dup3\n      add\n      sload\n      dup2\n      mstore\n      pop\n      pop\n      swap1\n      pop\n        /* \"contracts/Actor/MilkHub-smart-contract/inventory/MilkHubInventoryStorage.sol\":5221:5230  milkBatch */\n      dup1\n        /* \"contracts/Actor/MilkHub-smart-contract/inventory/MilkHubInventoryStorage.sol\":5221:5239  milkBatch.quantity */\n      0x40\n      add\n      mload\n        /* \"contracts/Actor/MilkHub-smart-contract/inventory/MilkHubInventoryStorage.sol\":5214:5239  return milkBatch.quantity */\n      swap2\n      pop\n      pop\n        /* \"contracts/Actor/MilkHub-smart-contract/inventory/MilkHubInventoryStorage.sol\":5042:5255  function getQuantity(address walletMilkHub, uint256 id) external view returns(uint256) {... */\n      swap3\n      swap2\n      pop\n      pop\n      jump\t// out\n        /* \"contracts/Actor/MilkHub-smart-contract/inventory/MilkHubInventoryStorage.sol\":5263:5478  function getPrice(address walletMilkHub, uint256 id) external view returns(uint256) {... */\n    tag_34:\n        /* \"contracts/Actor/MilkHub-smart-contract/inventory/MilkHubInventoryStorage.sol\":5338:5345  uint256 */\n      0x00\n        /* \"contracts/Actor/MilkHub-smart-contract/inventory/MilkHubInventoryStorage.sol\":5360:5386  MilkBatch memory milkBatch */\n      dup1\n        /* \"contracts/Actor/MilkHub-smart-contract/inventory/MilkHubInventoryStorage.sol\":5389:5400  milkBatches */\n      0x01\n        /* \"contracts/Actor/MilkHub-smart-contract/inventory/MilkHubInventoryStorage.sol\":5389:5415  milkBatches[walletMilkHub] */\n      0x00\n        /* \"contracts/Actor/MilkHub-smart-contract/inventory/MilkHubInventoryStorage.sol\":5401:5414  walletMilkHub */\n      dup6\n        /* \"contracts/Actor/MilkHub-smart-contract/inventory/MilkHubInventoryStorage.sol\":5389:5415  milkBatches[walletMilkHub] */\n      0xffffffffffffffffffffffffffffffffffffffff\n      and\n      0xffffffffffffffffffffffffffffffffffffffff\n      and\n      dup2\n      mstore\n      0x20\n      add\n      swap1\n      dup2\n      mstore\n      0x20\n      add\n      0x00\n      keccak256\n        /* \"contracts/Actor/MilkHub-smart-contract/inventory/MilkHubInventoryStorage.sol\":5389:5419  milkBatches[walletMilkHub][id] */\n      0x00\n        /* \"contracts/Actor/MilkHub-smart-contract/inventory/MilkHubInventoryStorage.sol\":5416:5418  id */\n      dup5\n        /* \"contracts/Actor/MilkHub-smart-contract/inventory/MilkHubInventoryStorage.sol\":5389:5419  milkBatches[walletMilkHub][id] */\n      dup2\n      mstore\n      0x20\n      add\n      swap1\n      dup2\n      mstore\n      0x20\n      add\n      0x00\n      keccak256\n        /* \"contracts/Actor/MilkHub-smart-contract/inventory/MilkHubInventoryStorage.sol\":5360:5419  MilkBatch memory milkBatch = milkBatches[walletMilkHub][id] */\n      mload(0x40)\n      dup1\n      0x80\n      add\n      0x40\n      mstore\n      swap1\n      dup2\n      0x00\n      dup3\n      add\n      sload\n      dup2\n      mstore\n      0x20\n      add\n      0x01\n      dup3\n      add\n      dup1\n      sload\n      tag_82\n      swap1\n      tag_76\n      jump\t// in\n    tag_82:\n      dup1\n      0x1f\n      add\n      0x20\n      dup1\n      swap2\n      div\n      mul\n      0x20\n      add\n      mload(0x40)\n      swap1\n      dup2\n      add\n      0x40\n      mstore\n      dup1\n      swap3\n      swap2\n      swap1\n      dup2\n      dup2\n      mstore\n      0x20\n      add\n      dup3\n      dup1\n      sload\n      tag_83\n      swap1\n      tag_76\n      jump\t// in\n    tag_83:\n      dup1\n      iszero\n      tag_84\n      jumpi\n      dup1\n      0x1f\n      lt\n      tag_85\n      jumpi\n      0x0100\n      dup1\n      dup4\n      sload\n      div\n      mul\n      dup4\n      mstore\n      swap2\n      0x20\n      add\n      swap2\n      jump(tag_84)\n    tag_85:\n      dup3\n      add\n      swap2\n      swap1\n      0x00\n      mstore\n      keccak256(0x00, 0x20)\n      swap1\n    tag_86:\n      dup2\n      sload\n      dup2\n      mstore\n      swap1\n      0x01\n      add\n      swap1\n      0x20\n      add\n      dup1\n      dup4\n      gt\n      tag_86\n      jumpi\n      dup3\n      swap1\n      sub\n      0x1f\n      and\n      dup3\n      add\n      swap2\n    tag_84:\n      pop\n      pop\n      pop\n      pop\n      pop\n      dup2\n      mstore\n      0x20\n      add\n      0x02\n      dup3\n      add\n      sload\n      dup2\n      mstore\n      0x20\n      add\n      0x03\n      dup3\n      add\n      sload\n      dup2\n      mstore\n      pop\n      pop\n      swap1\n      pop\n        /* \"contracts/Actor/MilkHub-smart-contract/inventory/MilkHubInventoryStorage.sol\":5447:5456  milkBatch */\n      dup1\n        /* \"contracts/Actor/MilkHub-smart-contract/inventory/MilkHubInventoryStorage.sol\":5447:5462  milkBatch.price */\n      0x60\n      add\n      mload\n        /* \"contracts/Actor/MilkHub-smart-contract/inventory/MilkHubInventoryStorage.sol\":5440:5462  return milkBatch.price */\n      swap2\n      pop\n      pop\n        /* \"contracts/Actor/MilkHub-smart-contract/inventory/MilkHubInventoryStorage.sol\":5263:5478  function getPrice(address walletMilkHub, uint256 id) external view returns(uint256) {... */\n      swap3\n      swap2\n      pop\n      pop\n      jump\t// out\n        /* \"contracts/Actor/MilkHub-smart-contract/inventory/MilkHubInventoryStorage.sol\":2957:3071  function getGlobalMilkBatchIds()external view returns(uint256[]memory){... */\n    tag_37:\n        /* \"contracts/Actor/MilkHub-smart-contract/inventory/MilkHubInventoryStorage.sol\":3011:3026  uint256[]memory */\n      0x60\n        /* \"contracts/Actor/MilkHub-smart-contract/inventory/MilkHubInventoryStorage.sol\":3045:3063  globalMilkBatchIds */\n      0x03\n        /* \"contracts/Actor/MilkHub-smart-contract/inventory/MilkHubInventoryStorage.sol\":3038:3063  return globalMilkBatchIds */\n      dup1\n      sload\n      dup1\n      0x20\n      mul\n      0x20\n      add\n      mload(0x40)\n      swap1\n      dup2\n      add\n      0x40\n      mstore\n      dup1\n      swap3\n      swap2\n      swap1\n      dup2\n      dup2\n      mstore\n      0x20\n      add\n      dup3\n      dup1\n      sload\n      dup1\n      iszero\n      tag_88\n      jumpi\n      0x20\n      mul\n      dup3\n      add\n      swap2\n      swap1\n      0x00\n      mstore\n      keccak256(0x00, 0x20)\n      swap1\n    tag_89:\n      dup2\n      sload\n      dup2\n      mstore\n      0x20\n      add\n      swap1\n      0x01\n      add\n      swap1\n      dup1\n      dup4\n      gt\n      tag_89\n      jumpi\n    tag_88:\n      pop\n      pop\n      pop\n      pop\n      pop\n      swap1\n      pop\n        /* \"contracts/Actor/MilkHub-smart-contract/inventory/MilkHubInventoryStorage.sol\":2957:3071  function getGlobalMilkBatchIds()external view returns(uint256[]memory){... */\n      swap1\n      jump\t// out\n        /* \"contracts/Actor/MilkHub-smart-contract/inventory/MilkHubInventoryStorage.sol\":997:2289  function addMilkBatch(address walletMilkHub, string memory expirationDate, uint256 quantity, uint256 price) external returns (uint256,string memory, uint256, uint256) {... */\n    tag_42:\n        /* \"contracts/Actor/MilkHub-smart-contract/inventory/MilkHubInventoryStorage.sol\":1123:1130  uint256 */\n      0x00\n        /* \"contracts/Actor/MilkHub-smart-contract/inventory/MilkHubInventoryStorage.sol\":1131:1144  string memory */\n      0x60\n        /* \"contracts/Actor/MilkHub-smart-contract/inventory/MilkHubInventoryStorage.sol\":1146:1153  uint256 */\n      0x00\n        /* \"contracts/Actor/MilkHub-smart-contract/inventory/MilkHubInventoryStorage.sol\":1155:1162  uint256 */\n      dup1\n        /* \"contracts/Actor/MilkHub-smart-contract/inventory/MilkHubInventoryStorage.sol\":1218:1228  uint256 id */\n      0x00\n        /* \"contracts/Actor/MilkHub-smart-contract/inventory/MilkHubInventoryStorage.sol\":1280:1294  expirationDate */\n      dup8\n        /* \"contracts/Actor/MilkHub-smart-contract/inventory/MilkHubInventoryStorage.sol\":1309:1317  quantity */\n      dup8\n        /* \"contracts/Actor/MilkHub-smart-contract/inventory/MilkHubInventoryStorage.sol\":1332:1337  price */\n      dup8\n        /* \"contracts/Actor/MilkHub-smart-contract/inventory/MilkHubInventoryStorage.sol\":1352:1365  walletMilkHub */\n      dup12\n        /* \"contracts/Actor/MilkHub-smart-contract/inventory/MilkHubInventoryStorage.sol\":1380:1395  block.timestamp */\n      timestamp\n        /* \"contracts/Actor/MilkHub-smart-contract/inventory/MilkHubInventoryStorage.sol\":1249:1406  abi.encodePacked(... */\n      add(0x20, mload(0x40))\n      tag_91\n      swap6\n      swap5\n      swap4\n      swap3\n      swap2\n      swap1\n      tag_92\n      jump\t// in\n    tag_91:\n      mload(0x40)\n      0x20\n      dup2\n      dup4\n      sub\n      sub\n      dup2\n      mstore\n      swap1\n      0x40\n      mstore\n        /* \"contracts/Actor/MilkHub-smart-contract/inventory/MilkHubInventoryStorage.sol\":1239:1407  keccak256(abi.encodePacked(... */\n      dup1\n      mload\n      swap1\n      0x20\n      add\n      keccak256\n        /* \"contracts/Actor/MilkHub-smart-contract/inventory/MilkHubInventoryStorage.sol\":1231:1408  uint256(keccak256(abi.encodePacked(... */\n      0x00\n      shr\n        /* \"contracts/Actor/MilkHub-smart-contract/inventory/MilkHubInventoryStorage.sol\":1218:1408  uint256 id = uint256(keccak256(abi.encodePacked(... */\n      swap1\n      pop\n        /* \"contracts/Actor/MilkHub-smart-contract/inventory/MilkHubInventoryStorage.sol\":1464:1490  MilkBatch memory milkBatch */\n      0x00\n        /* \"contracts/Actor/MilkHub-smart-contract/inventory/MilkHubInventoryStorage.sol\":1493:1641  MilkBatch({... */\n      mload(0x40)\n      dup1\n      0x80\n      add\n      0x40\n      mstore\n      dup1\n        /* \"contracts/Actor/MilkHub-smart-contract/inventory/MilkHubInventoryStorage.sol\":1522:1524  id */\n      dup4\n        /* \"contracts/Actor/MilkHub-smart-contract/inventory/MilkHubInventoryStorage.sol\":1493:1641  MilkBatch({... */\n      dup2\n      mstore\n      0x20\n      add\n        /* \"contracts/Actor/MilkHub-smart-contract/inventory/MilkHubInventoryStorage.sol\":1555:1569  expirationDate */\n      dup11\n        /* \"contracts/Actor/MilkHub-smart-contract/inventory/MilkHubInventoryStorage.sol\":1493:1641  MilkBatch({... */\n      dup2\n      mstore\n      0x20\n      add\n        /* \"contracts/Actor/MilkHub-smart-contract/inventory/MilkHubInventoryStorage.sol\":1594:1602  quantity */\n      dup10\n        /* \"contracts/Actor/MilkHub-smart-contract/inventory/MilkHubInventoryStorage.sol\":1493:1641  MilkBatch({... */\n      dup2\n      mstore\n      0x20\n      add\n        /* \"contracts/Actor/MilkHub-smart-contract/inventory/MilkHubInventoryStorage.sol\":1624:1629  price */\n      dup9\n        /* \"contracts/Actor/MilkHub-smart-contract/inventory/MilkHubInventoryStorage.sol\":1493:1641  MilkBatch({... */\n      dup2\n      mstore\n      pop\n        /* \"contracts/Actor/MilkHub-smart-contract/inventory/MilkHubInventoryStorage.sol\":1464:1641  MilkBatch memory milkBatch = MilkBatch({... */\n      swap1\n      pop\n        /* \"contracts/Actor/MilkHub-smart-contract/inventory/MilkHubInventoryStorage.sol\":1723:1741  globalMilkBatchIds */\n      0x03\n        /* \"contracts/Actor/MilkHub-smart-contract/inventory/MilkHubInventoryStorage.sol\":1747:1749  id */\n      dup3\n        /* \"contracts/Actor/MilkHub-smart-contract/inventory/MilkHubInventoryStorage.sol\":1723:1750  globalMilkBatchIds.push(id) */\n      swap1\n      dup1\n      0x01\n      dup2\n      sload\n      add\n      dup1\n      dup3\n      sstore\n      dup1\n      swap2\n      pop\n      pop\n      0x01\n      swap1\n      sub\n      swap1\n      0x00\n      mstore\n      keccak256(0x00, 0x20)\n      add\n      0x00\n      swap1\n      swap2\n      swap1\n      swap2\n      swap1\n      swap2\n      pop\n      sstore\n        /* \"contracts/Actor/MilkHub-smart-contract/inventory/MilkHubInventoryStorage.sol\":1841:1857  userMilkBatchIds */\n      0x02\n        /* \"contracts/Actor/MilkHub-smart-contract/inventory/MilkHubInventoryStorage.sol\":1841:1872  userMilkBatchIds[walletMilkHub] */\n      0x00\n        /* \"contracts/Actor/MilkHub-smart-contract/inventory/MilkHubInventoryStorage.sol\":1858:1871  walletMilkHub */\n      dup12\n        /* \"contracts/Actor/MilkHub-smart-contract/inventory/MilkHubInventoryStorage.sol\":1841:1872  userMilkBatchIds[walletMilkHub] */\n      0xffffffffffffffffffffffffffffffffffffffff\n      and\n      0xffffffffffffffffffffffffffffffffffffffff\n      and\n      dup2\n      mstore\n      0x20\n      add\n      swap1\n      dup2\n      mstore\n      0x20\n      add\n      0x00\n      keccak256\n        /* \"contracts/Actor/MilkHub-smart-contract/inventory/MilkHubInventoryStorage.sol\":1878:1880  id */\n      dup3\n        /* \"contracts/Actor/MilkHub-smart-contract/inventory/MilkHubInventoryStorage.sol\":1841:1881  userMilkBatchIds[walletMilkHub].push(id) */\n      swap1\n      dup1\n      0x01\n      dup2\n      sload\n      add\n      dup1\n      dup3\n      sstore\n      dup1\n      swap2\n      pop\n      pop\n      0x01\n      swap1\n      sub\n      swap1\n      0x00\n      mstore\n      keccak256(0x00, 0x20)\n      add\n      0x00\n      swap1\n      swap2\n      swap1\n      swap2\n      swap1\n      swap2\n      pop\n      sstore\n        /* \"contracts/Actor/MilkHub-smart-contract/inventory/MilkHubInventoryStorage.sol\":1998:2007  milkBatch */\n      dup1\n        /* \"contracts/Actor/MilkHub-smart-contract/inventory/MilkHubInventoryStorage.sol\":1965:1976  milkBatches */\n      0x01\n        /* \"contracts/Actor/MilkHub-smart-contract/inventory/MilkHubInventoryStorage.sol\":1965:1991  milkBatches[walletMilkHub] */\n      0x00\n        /* \"contracts/Actor/MilkHub-smart-contract/inventory/MilkHubInventoryStorage.sol\":1977:1990  walletMilkHub */\n      dup13\n        /* \"contracts/Actor/MilkHub-smart-contract/inventory/MilkHubInventoryStorage.sol\":1965:1991  milkBatches[walletMilkHub] */\n      0xffffffffffffffffffffffffffffffffffffffff\n      and\n      0xffffffffffffffffffffffffffffffffffffffff\n      and\n      dup2\n      mstore\n      0x20\n      add\n      swap1\n      dup2\n      mstore\n      0x20\n      add\n      0x00\n      keccak256\n        /* \"contracts/Actor/MilkHub-smart-contract/inventory/MilkHubInventoryStorage.sol\":1965:1995  milkBatches[walletMilkHub][id] */\n      0x00\n        /* \"contracts/Actor/MilkHub-smart-contract/inventory/MilkHubInventoryStorage.sol\":1992:1994  id */\n      dup5\n        /* \"contracts/Actor/MilkHub-smart-contract/inventory/MilkHubInventoryStorage.sol\":1965:1995  milkBatches[walletMilkHub][id] */\n      dup2\n      mstore\n      0x20\n      add\n      swap1\n      dup2\n      mstore\n      0x20\n      add\n      0x00\n      keccak256\n        /* \"contracts/Actor/MilkHub-smart-contract/inventory/MilkHubInventoryStorage.sol\":1965:2007  milkBatches[walletMilkHub][id] = milkBatch */\n      0x00\n      dup3\n      add\n      mload\n      dup2\n      0x00\n      add\n      sstore\n      0x20\n      dup3\n      add\n      mload\n      dup2\n      0x01\n      add\n      swap1\n      dup2\n      tag_95\n      swap2\n      swap1\n      tag_96\n      jump\t// in\n    tag_95:\n      pop\n      0x40\n      dup3\n      add\n      mload\n      dup2\n      0x02\n      add\n      sstore\n      0x60\n      dup3\n      add\n      mload\n      dup2\n      0x03\n      add\n      sstore\n      swap1\n      pop\n      pop\n        /* \"contracts/Actor/MilkHub-smart-contract/inventory/MilkHubInventoryStorage.sol\":2054:2065  milkBatches */\n      0x01\n        /* \"contracts/Actor/MilkHub-smart-contract/inventory/MilkHubInventoryStorage.sol\":2054:2080  milkBatches[walletMilkHub] */\n      0x00\n        /* \"contracts/Actor/MilkHub-smart-contract/inventory/MilkHubInventoryStorage.sol\":2066:2079  walletMilkHub */\n      dup12\n        /* \"contracts/Actor/MilkHub-smart-contract/inventory/MilkHubInventoryStorage.sol\":2054:2080  milkBatches[walletMilkHub] */\n      0xffffffffffffffffffffffffffffffffffffffff\n      and\n      0xffffffffffffffffffffffffffffffffffffffff\n      and\n      dup2\n      mstore\n      0x20\n      add\n      swap1\n      dup2\n      mstore\n      0x20\n      add\n      0x00\n      keccak256\n        /* \"contracts/Actor/MilkHub-smart-contract/inventory/MilkHubInventoryStorage.sol\":2054:2084  milkBatches[walletMilkHub][id] */\n      0x00\n        /* \"contracts/Actor/MilkHub-smart-contract/inventory/MilkHubInventoryStorage.sol\":2081:2083  id */\n      dup4\n        /* \"contracts/Actor/MilkHub-smart-contract/inventory/MilkHubInventoryStorage.sol\":2054:2084  milkBatches[walletMilkHub][id] */\n      dup2\n      mstore\n      0x20\n      add\n      swap1\n      dup2\n      mstore\n      0x20\n      add\n      0x00\n      keccak256\n        /* \"contracts/Actor/MilkHub-smart-contract/inventory/MilkHubInventoryStorage.sol\":2054:2087  milkBatches[walletMilkHub][id].id */\n      0x00\n      add\n      sload\n        /* \"contracts/Actor/MilkHub-smart-contract/inventory/MilkHubInventoryStorage.sol\":2106:2117  milkBatches */\n      0x01\n        /* \"contracts/Actor/MilkHub-smart-contract/inventory/MilkHubInventoryStorage.sol\":2106:2132  milkBatches[walletMilkHub] */\n      0x00\n        /* \"contracts/Actor/MilkHub-smart-contract/inventory/MilkHubInventoryStorage.sol\":2118:2131  walletMilkHub */\n      dup13\n        /* \"contracts/Actor/MilkHub-smart-contract/inventory/MilkHubInventoryStorage.sol\":2106:2132  milkBatches[walletMilkHub] */\n      0xffffffffffffffffffffffffffffffffffffffff\n      and\n      0xffffffffffffffffffffffffffffffffffffffff\n      and\n      dup2\n      mstore\n      0x20\n      add\n      swap1\n      dup2\n      mstore\n      0x20\n      add\n      0x00\n      keccak256\n        /* \"contracts/Actor/MilkHub-smart-contract/inventory/MilkHubInventoryStorage.sol\":2106:2136  milkBatches[walletMilkHub][id] */\n      0x00\n        /* \"contracts/Actor/MilkHub-smart-contract/inventory/MilkHubInventoryStorage.sol\":2133:2135  id */\n      dup5\n        /* \"contracts/Actor/MilkHub-smart-contract/inventory/MilkHubInventoryStorage.sol\":2106:2136  milkBatches[walletMilkHub][id] */\n      dup2\n      mstore\n      0x20\n      add\n      swap1\n      dup2\n      mstore\n      0x20\n      add\n      0x00\n      keccak256\n        /* \"contracts/Actor/MilkHub-smart-contract/inventory/MilkHubInventoryStorage.sol\":2106:2151  milkBatches[walletMilkHub][id].expirationDate */\n      0x01\n      add\n        /* \"contracts/Actor/MilkHub-smart-contract/inventory/MilkHubInventoryStorage.sol\":2170:2181  milkBatches */\n      0x01\n        /* \"contracts/Actor/MilkHub-smart-contract/inventory/MilkHubInventoryStorage.sol\":2170:2196  milkBatches[walletMilkHub] */\n      0x00\n        /* \"contracts/Actor/MilkHub-smart-contract/inventory/MilkHubInventoryStorage.sol\":2182:2195  walletMilkHub */\n      dup14\n        /* \"contracts/Actor/MilkHub-smart-contract/inventory/MilkHubInventoryStorage.sol\":2170:2196  milkBatches[walletMilkHub] */\n      0xffffffffffffffffffffffffffffffffffffffff\n      and\n      0xffffffffffffffffffffffffffffffffffffffff\n      and\n      dup2\n      mstore\n      0x20\n      add\n      swap1\n      dup2\n      mstore\n      0x20\n      add\n      0x00\n      keccak256\n        /* \"contracts/Actor/MilkHub-smart-contract/inventory/MilkHubInventoryStorage.sol\":2170:2200  milkBatches[walletMilkHub][id] */\n      0x00\n        /* \"contracts/Actor/MilkHub-smart-contract/inventory/MilkHubInventoryStorage.sol\":2197:2199  id */\n      dup6\n        /* \"contracts/Actor/MilkHub-smart-contract/inventory/MilkHubInventoryStorage.sol\":2170:2200  milkBatches[walletMilkHub][id] */\n      dup2\n      mstore\n      0x20\n      add\n      swap1\n      dup2\n      mstore\n      0x20\n      add\n      0x00\n      keccak256\n        /* \"contracts/Actor/MilkHub-smart-contract/inventory/MilkHubInventoryStorage.sol\":2170:2209  milkBatches[walletMilkHub][id].quantity */\n      0x02\n      add\n      sload\n        /* \"contracts/Actor/MilkHub-smart-contract/inventory/MilkHubInventoryStorage.sol\":2228:2239  milkBatches */\n      0x01\n        /* \"contracts/Actor/MilkHub-smart-contract/inventory/MilkHubInventoryStorage.sol\":2228:2254  milkBatches[walletMilkHub] */\n      0x00\n        /* \"contracts/Actor/MilkHub-smart-contract/inventory/MilkHubInventoryStorage.sol\":2240:2253  walletMilkHub */\n      dup15\n        /* \"contracts/Actor/MilkHub-smart-contract/inventory/MilkHubInventoryStorage.sol\":2228:2254  milkBatches[walletMilkHub] */\n      0xffffffffffffffffffffffffffffffffffffffff\n      and\n      0xffffffffffffffffffffffffffffffffffffffff\n      and\n      dup2\n      mstore\n      0x20\n      add\n      swap1\n      dup2\n      mstore\n      0x20\n      add\n      0x00\n      keccak256\n        /* \"contracts/Actor/MilkHub-smart-contract/inventory/MilkHubInventoryStorage.sol\":2228:2258  milkBatches[walletMilkHub][id] */\n      0x00\n        /* \"contracts/Actor/MilkHub-smart-contract/inventory/MilkHubInventoryStorage.sol\":2255:2257  id */\n      dup7\n        /* \"contracts/Actor/MilkHub-smart-contract/inventory/MilkHubInventoryStorage.sol\":2228:2258  milkBatches[walletMilkHub][id] */\n      dup2\n      mstore\n      0x20\n      add\n      swap1\n      dup2\n      mstore\n      0x20\n      add\n      0x00\n      keccak256\n        /* \"contracts/Actor/MilkHub-smart-contract/inventory/MilkHubInventoryStorage.sol\":2228:2264  milkBatches[walletMilkHub][id].price */\n      0x03\n      add\n      sload\n        /* \"contracts/Actor/MilkHub-smart-contract/inventory/MilkHubInventoryStorage.sol\":2028:2281  return (... */\n      dup3\n      dup1\n      sload\n      tag_97\n      swap1\n      tag_76\n      jump\t// in\n    tag_97:\n      dup1\n      0x1f\n      add\n      0x20\n      dup1\n      swap2\n      div\n      mul\n      0x20\n      add\n      mload(0x40)\n      swap1\n      dup2\n      add\n      0x40\n      mstore\n      dup1\n      swap3\n      swap2\n      swap1\n      dup2\n      dup2\n      mstore\n      0x20\n      add\n      dup3\n      dup1\n      sload\n      tag_98\n      swap1\n      tag_76\n      jump\t// in\n    tag_98:\n      dup1\n      iszero\n      tag_99\n      jumpi\n      dup1\n      0x1f\n      lt\n      tag_100\n      jumpi\n      0x0100\n      dup1\n      dup4\n      sload\n      div\n      mul\n      dup4\n      mstore\n      swap2\n      0x20\n      add\n      swap2\n      jump(tag_99)\n    tag_100:\n      dup3\n      add\n      swap2\n      swap1\n      0x00\n      mstore\n      keccak256(0x00, 0x20)\n      swap1\n    tag_101:\n      dup2\n      sload\n      dup2\n      mstore\n      swap1\n      0x01\n      add\n      swap1\n      0x20\n      add\n      dup1\n      dup4\n      gt\n      tag_101\n      jumpi\n      dup3\n      swap1\n      sub\n      0x1f\n      and\n      dup3\n      add\n      swap2\n    tag_99:\n      pop\n      pop\n      pop\n      pop\n      pop\n      swap3\n      pop\n      swap6\n      pop\n      swap6\n      pop\n      swap6\n      pop\n      swap6\n      pop\n      pop\n      pop\n        /* \"contracts/Actor/MilkHub-smart-contract/inventory/MilkHubInventoryStorage.sol\":997:2289  function addMilkBatch(address walletMilkHub, string memory expirationDate, uint256 quantity, uint256 price) external returns (uint256,string memory, uint256, uint256) {... */\n      swap5\n      pop\n      swap5\n      pop\n      swap5\n      pop\n      swap5\n      swap1\n      pop\n      jump\t// out\n        /* \"contracts/Actor/MilkHub-smart-contract/inventory/MilkHubInventoryStorage.sol\":3675:4126  function checkProduct(address ownerMilkBatch, uint256 idMilkBatch, uint256 quantityToBuy) external view  returns (bool){... */\n    tag_48:\n        /* \"contracts/Actor/MilkHub-smart-contract/inventory/MilkHubInventoryStorage.sol\":3789:3793  bool */\n      0x00\n        /* \"contracts/Actor/MilkHub-smart-contract/inventory/MilkHubInventoryStorage.sol\":3866:3877  idMilkBatch */\n      dup3\n        /* \"contracts/Actor/MilkHub-smart-contract/inventory/MilkHubInventoryStorage.sol\":3819:3830  milkBatches */\n      0x01\n        /* \"contracts/Actor/MilkHub-smart-contract/inventory/MilkHubInventoryStorage.sol\":3819:3846  milkBatches[ownerMilkBatch] */\n      0x00\n        /* \"contracts/Actor/MilkHub-smart-contract/inventory/MilkHubInventoryStorage.sol\":3831:3845  ownerMilkBatch */\n      dup7\n        /* \"contracts/Actor/MilkHub-smart-contract/inventory/MilkHubInventoryStorage.sol\":3819:3846  milkBatches[ownerMilkBatch] */\n      0xffffffffffffffffffffffffffffffffffffffff\n      and\n      0xffffffffffffffffffffffffffffffffffffffff\n      and\n      dup2\n      mstore\n      0x20\n      add\n      swap1\n      dup2\n      mstore\n      0x20\n      add\n      0x00\n      keccak256\n        /* \"contracts/Actor/MilkHub-smart-contract/inventory/MilkHubInventoryStorage.sol\":3819:3859  milkBatches[ownerMilkBatch][idMilkBatch] */\n      0x00\n        /* \"contracts/Actor/MilkHub-smart-contract/inventory/MilkHubInventoryStorage.sol\":3847:3858  idMilkBatch */\n      dup6\n        /* \"contracts/Actor/MilkHub-smart-contract/inventory/MilkHubInventoryStorage.sol\":3819:3859  milkBatches[ownerMilkBatch][idMilkBatch] */\n      dup2\n      mstore\n      0x20\n      add\n      swap1\n      dup2\n      mstore\n      0x20\n      add\n      0x00\n      keccak256\n        /* \"contracts/Actor/MilkHub-smart-contract/inventory/MilkHubInventoryStorage.sol\":3819:3862  milkBatches[ownerMilkBatch][idMilkBatch].id */\n      0x00\n      add\n      sload\n        /* \"contracts/Actor/MilkHub-smart-contract/inventory/MilkHubInventoryStorage.sol\":3819:3877  milkBatches[ownerMilkBatch][idMilkBatch].id == idMilkBatch */\n      eq\n        /* \"contracts/Actor/MilkHub-smart-contract/inventory/MilkHubInventoryStorage.sol\":3811:3903  require(milkBatches[ownerMilkBatch][idMilkBatch].id == idMilkBatch, \"Product non presente!\") */\n      tag_103\n      jumpi\n      mload(0x40)\n      0x08c379a000000000000000000000000000000000000000000000000000000000\n      dup2\n      mstore\n      0x04\n      add\n      tag_104\n      swap1\n      tag_105\n      jump\t// in\n    tag_104:\n      mload(0x40)\n      dup1\n      swap2\n      sub\n      swap1\n      revert\n    tag_103:\n        /* \"contracts/Actor/MilkHub-smart-contract/inventory/MilkHubInventoryStorage.sol\":3920:3950  MilkBatch storage milkBatchObj */\n      0x00\n        /* \"contracts/Actor/MilkHub-smart-contract/inventory/MilkHubInventoryStorage.sol\":3953:3964  milkBatches */\n      0x01\n        /* \"contracts/Actor/MilkHub-smart-contract/inventory/MilkHubInventoryStorage.sol\":3953:3980  milkBatches[ownerMilkBatch] */\n      0x00\n        /* \"contracts/Actor/MilkHub-smart-contract/inventory/MilkHubInventoryStorage.sol\":3965:3979  ownerMilkBatch */\n      dup7\n        /* \"contracts/Actor/MilkHub-smart-contract/inventory/MilkHubInventoryStorage.sol\":3953:3980  milkBatches[ownerMilkBatch] */\n      0xffffffffffffffffffffffffffffffffffffffff\n      and\n      0xffffffffffffffffffffffffffffffffffffffff\n      and\n      dup2\n      mstore\n      0x20\n      add\n      swap1\n      dup2\n      mstore\n      0x20\n      add\n      0x00\n      keccak256\n        /* \"contracts/Actor/MilkHub-smart-contract/inventory/MilkHubInventoryStorage.sol\":3953:3993  milkBatches[ownerMilkBatch][idMilkBatch] */\n      0x00\n        /* \"contracts/Actor/MilkHub-smart-contract/inventory/MilkHubInventoryStorage.sol\":3981:3992  idMilkBatch */\n      dup6\n        /* \"contracts/Actor/MilkHub-smart-contract/inventory/MilkHubInventoryStorage.sol\":3953:3993  milkBatches[ownerMilkBatch][idMilkBatch] */\n      dup2\n      mstore\n      0x20\n      add\n      swap1\n      dup2\n      mstore\n      0x20\n      add\n      0x00\n      keccak256\n        /* \"contracts/Actor/MilkHub-smart-contract/inventory/MilkHubInventoryStorage.sol\":3920:3993  MilkBatch storage milkBatchObj = milkBatches[ownerMilkBatch][idMilkBatch] */\n      swap1\n      pop\n        /* \"contracts/Actor/MilkHub-smart-contract/inventory/MilkHubInventoryStorage.sol\":4055:4068  quantityToBuy */\n      dup3\n        /* \"contracts/Actor/MilkHub-smart-contract/inventory/MilkHubInventoryStorage.sol\":4030:4042  milkBatchObj */\n      dup2\n        /* \"contracts/Actor/MilkHub-smart-contract/inventory/MilkHubInventoryStorage.sol\":4030:4051  milkBatchObj.quantity */\n      0x02\n      add\n      sload\n        /* \"contracts/Actor/MilkHub-smart-contract/inventory/MilkHubInventoryStorage.sol\":4030:4068  milkBatchObj.quantity >= quantityToBuy */\n      lt\n      iszero\n        /* \"contracts/Actor/MilkHub-smart-contract/inventory/MilkHubInventoryStorage.sol\":4022:4092  require(milkBatchObj.quantity >= quantityToBuy, \"Quantity not Valid!\") */\n      tag_106\n      jumpi\n      mload(0x40)\n      0x08c379a000000000000000000000000000000000000000000000000000000000\n      dup2\n      mstore\n      0x04\n      add\n      tag_107\n      swap1\n      tag_108\n      jump\t// in\n    tag_107:\n      mload(0x40)\n      dup1\n      swap2\n      sub\n      swap1\n      revert\n    tag_106:\n        /* \"contracts/Actor/MilkHub-smart-contract/inventory/MilkHubInventoryStorage.sol\":4114:4118  true */\n      0x01\n        /* \"contracts/Actor/MilkHub-smart-contract/inventory/MilkHubInventoryStorage.sol\":4107:4118  return true */\n      swap2\n      pop\n      pop\n        /* \"contracts/Actor/MilkHub-smart-contract/inventory/MilkHubInventoryStorage.sol\":3675:4126  function checkProduct(address ownerMilkBatch, uint256 idMilkBatch, uint256 quantityToBuy) external view  returns (bool){... */\n      swap4\n      swap3\n      pop\n      pop\n      pop\n      jump\t// out\n        /* \"contracts/Actor/MilkHub-smart-contract/inventory/MilkHubInventoryStorage.sol\":4805:5034  function getExpirationDate(address walletMilkHub, uint256 id) external view returns(string memory) {... */\n    tag_52:\n        /* \"contracts/Actor/MilkHub-smart-contract/inventory/MilkHubInventoryStorage.sol\":4889:4902  string memory */\n      0x60\n        /* \"contracts/Actor/MilkHub-smart-contract/inventory/MilkHubInventoryStorage.sol\":4917:4943  MilkBatch memory milkBatch */\n      0x00\n        /* \"contracts/Actor/MilkHub-smart-contract/inventory/MilkHubInventoryStorage.sol\":4946:4957  milkBatches */\n      0x01\n        /* \"contracts/Actor/MilkHub-smart-contract/inventory/MilkHubInventoryStorage.sol\":4946:4972  milkBatches[walletMilkHub] */\n      0x00\n        /* \"contracts/Actor/MilkHub-smart-contract/inventory/MilkHubInventoryStorage.sol\":4958:4971  walletMilkHub */\n      dup6\n        /* \"contracts/Actor/MilkHub-smart-contract/inventory/MilkHubInventoryStorage.sol\":4946:4972  milkBatches[walletMilkHub] */\n      0xffffffffffffffffffffffffffffffffffffffff\n      and\n      0xffffffffffffffffffffffffffffffffffffffff\n      and\n      dup2\n      mstore\n      0x20\n      add\n      swap1\n      dup2\n      mstore\n      0x20\n      add\n      0x00\n      keccak256\n        /* \"contracts/Actor/MilkHub-smart-contract/inventory/MilkHubInventoryStorage.sol\":4946:4976  milkBatches[walletMilkHub][id] */\n      0x00\n        /* \"contracts/Actor/MilkHub-smart-contract/inventory/MilkHubInventoryStorage.sol\":4973:4975  id */\n      dup5\n        /* \"contracts/Actor/MilkHub-smart-contract/inventory/MilkHubInventoryStorage.sol\":4946:4976  milkBatches[walletMilkHub][id] */\n      dup2\n      mstore\n      0x20\n      add\n      swap1\n      dup2\n      mstore\n      0x20\n      add\n      0x00\n      keccak256\n        /* \"contracts/Actor/MilkHub-smart-contract/inventory/MilkHubInventoryStorage.sol\":4917:4976  MilkBatch memory milkBatch = milkBatches[walletMilkHub][id] */\n      mload(0x40)\n      dup1\n      0x80\n      add\n      0x40\n      mstore\n      swap1\n      dup2\n      0x00\n      dup3\n      add\n      sload\n      dup2\n      mstore\n      0x20\n      add\n      0x01\n      dup3\n      add\n      dup1\n      sload\n      tag_110\n      swap1\n      tag_76\n      jump\t// in\n    tag_110:\n      dup1\n      0x1f\n      add\n      0x20\n      dup1\n      swap2\n      div\n      mul\n      0x20\n      add\n      mload(0x40)\n      swap1\n      dup2\n      add\n      0x40\n      mstore\n      dup1\n      swap3\n      swap2\n      swap1\n      dup2\n      dup2\n      mstore\n      0x20\n      add\n      dup3\n      dup1\n      sload\n      tag_111\n      swap1\n      tag_76\n      jump\t// in\n    tag_111:\n      dup1\n      iszero\n      tag_112\n      jumpi\n      dup1\n      0x1f\n      lt\n      tag_113\n      jumpi\n      0x0100\n      dup1\n      dup4\n      sload\n      div\n      mul\n      dup4\n      mstore\n      swap2\n      0x20\n      add\n      swap2\n      jump(tag_112)\n    tag_113:\n      dup3\n      add\n      swap2\n      swap1\n      0x00\n      mstore\n      keccak256(0x00, 0x20)\n      swap1\n    tag_114:\n      dup2\n      sload\n      dup2\n      mstore\n      swap1\n      0x01\n      add\n      swap1\n      0x20\n      add\n      dup1\n      dup4\n      gt\n      tag_114\n      jumpi\n      dup3\n      swap1\n      sub\n      0x1f\n      and\n      dup3\n      add\n      swap2\n    tag_112:\n      pop\n      pop\n      pop\n      pop\n      pop\n      dup2\n      mstore\n      0x20\n      add\n      0x02\n      dup3\n      add\n      sload\n      dup2\n      mstore\n      0x20\n      add\n      0x03\n      dup3\n      add\n      sload\n      dup2\n      mstore\n      pop\n      pop\n      swap1\n      pop\n        /* \"contracts/Actor/MilkHub-smart-contract/inventory/MilkHubInventoryStorage.sol\":4994:5003  milkBatch */\n      dup1\n        /* \"contracts/Actor/MilkHub-smart-contract/inventory/MilkHubInventoryStorage.sol\":4994:5018  milkBatch.expirationDate */\n      0x20\n      add\n      mload\n        /* \"contracts/Actor/MilkHub-smart-contract/inventory/MilkHubInventoryStorage.sol\":4987:5018  return milkBatch.expirationDate */\n      swap2\n      pop\n      pop\n        /* \"contracts/Actor/MilkHub-smart-contract/inventory/MilkHubInventoryStorage.sol\":4805:5034  function getExpirationDate(address walletMilkHub, uint256 id) external view returns(string memory) {... */\n      swap3\n      swap2\n      pop\n      pop\n      jump\t// out\n        /* \"contracts/Actor/MilkHub-smart-contract/inventory/MilkHubInventoryStorage.sol\":3195:3661  function deleteMilkBatch(address walletMilkHub, uint256 id) external returns(bool value) {... */\n    tag_57:\n        /* \"contracts/Actor/MilkHub-smart-contract/inventory/MilkHubInventoryStorage.sol\":3272:3282  bool value */\n      0x00\n        /* \"contracts/Actor/MilkHub-smart-contract/inventory/MilkHubInventoryStorage.sol\":3339:3350  milkBatches */\n      0x01\n        /* \"contracts/Actor/MilkHub-smart-contract/inventory/MilkHubInventoryStorage.sol\":3339:3365  milkBatches[walletMilkHub] */\n      0x00\n        /* \"contracts/Actor/MilkHub-smart-contract/inventory/MilkHubInventoryStorage.sol\":3351:3364  walletMilkHub */\n      dup5\n        /* \"contracts/Actor/MilkHub-smart-contract/inventory/MilkHubInventoryStorage.sol\":3339:3365  milkBatches[walletMilkHub] */\n      0xffffffffffffffffffffffffffffffffffffffff\n      and\n      0xffffffffffffffffffffffffffffffffffffffff\n      and\n      dup2\n      mstore\n      0x20\n      add\n      swap1\n      dup2\n      mstore\n      0x20\n      add\n      0x00\n      keccak256\n        /* \"contracts/Actor/MilkHub-smart-contract/inventory/MilkHubInventoryStorage.sol\":3339:3369  milkBatches[walletMilkHub][id] */\n      0x00\n        /* \"contracts/Actor/MilkHub-smart-contract/inventory/MilkHubInventoryStorage.sol\":3366:3368  id */\n      dup4\n        /* \"contracts/Actor/MilkHub-smart-contract/inventory/MilkHubInventoryStorage.sol\":3339:3369  milkBatches[walletMilkHub][id] */\n      dup2\n      mstore\n      0x20\n      add\n      swap1\n      dup2\n      mstore\n      0x20\n      add\n      0x00\n      keccak256\n      0x00\n        /* \"contracts/Actor/MilkHub-smart-contract/inventory/MilkHubInventoryStorage.sol\":3332:3369  delete milkBatches[walletMilkHub][id] */\n      dup1\n      dup3\n      add\n      0x00\n      swap1\n      sstore\n      0x01\n      dup3\n      add\n      0x00\n      tag_116\n      swap2\n      swap1\n      tag_117\n      jump\t// in\n    tag_116:\n      0x02\n      dup3\n      add\n      0x00\n      swap1\n      sstore\n      0x03\n      dup3\n      add\n      0x00\n      swap1\n      sstore\n      pop\n      pop\n        /* \"contracts/Actor/MilkHub-smart-contract/inventory/MilkHubInventoryStorage.sol\":3479:3480  0 */\n      0x00\n        /* \"contracts/Actor/MilkHub-smart-contract/inventory/MilkHubInventoryStorage.sol\":3441:3452  milkBatches */\n      0x01\n        /* \"contracts/Actor/MilkHub-smart-contract/inventory/MilkHubInventoryStorage.sol\":3441:3467  milkBatches[walletMilkHub] */\n      0x00\n        /* \"contracts/Actor/MilkHub-smart-contract/inventory/MilkHubInventoryStorage.sol\":3453:3466  walletMilkHub */\n      dup6\n        /* \"contracts/Actor/MilkHub-smart-contract/inventory/MilkHubInventoryStorage.sol\":3441:3467  milkBatches[walletMilkHub] */\n      0xffffffffffffffffffffffffffffffffffffffff\n      and\n      0xffffffffffffffffffffffffffffffffffffffff\n      and\n      dup2\n      mstore\n      0x20\n      add\n      swap1\n      dup2\n      mstore\n      0x20\n      add\n      0x00\n      keccak256\n        /* \"contracts/Actor/MilkHub-smart-contract/inventory/MilkHubInventoryStorage.sol\":3441:3471  milkBatches[walletMilkHub][id] */\n      0x00\n        /* \"contracts/Actor/MilkHub-smart-contract/inventory/MilkHubInventoryStorage.sol\":3468:3470  id */\n      dup5\n        /* \"contracts/Actor/MilkHub-smart-contract/inventory/MilkHubInventoryStorage.sol\":3441:3471  milkBatches[walletMilkHub][id] */\n      dup2\n      mstore\n      0x20\n      add\n      swap1\n      dup2\n      mstore\n      0x20\n      add\n      0x00\n      keccak256\n        /* \"contracts/Actor/MilkHub-smart-contract/inventory/MilkHubInventoryStorage.sol\":3441:3474  milkBatches[walletMilkHub][id].id */\n      0x00\n      add\n      sload\n        /* \"contracts/Actor/MilkHub-smart-contract/inventory/MilkHubInventoryStorage.sol\":3441:3480  milkBatches[walletMilkHub][id].id  == 0 */\n      eq\n        /* \"contracts/Actor/MilkHub-smart-contract/inventory/MilkHubInventoryStorage.sol\":3441:3513  milkBatches[walletMilkHub][id].id  == 0 && deleteMilkBatchIdFromList(id) */\n      dup1\n      iszero\n      tag_118\n      jumpi\n      pop\n        /* \"contracts/Actor/MilkHub-smart-contract/inventory/MilkHubInventoryStorage.sol\":3484:3513  deleteMilkBatchIdFromList(id) */\n      tag_119\n        /* \"contracts/Actor/MilkHub-smart-contract/inventory/MilkHubInventoryStorage.sol\":3510:3512  id */\n      dup3\n        /* \"contracts/Actor/MilkHub-smart-contract/inventory/MilkHubInventoryStorage.sol\":3484:3509  deleteMilkBatchIdFromList */\n      tag_120\n        /* \"contracts/Actor/MilkHub-smart-contract/inventory/MilkHubInventoryStorage.sol\":3484:3513  deleteMilkBatchIdFromList(id) */\n      jump\t// in\n    tag_119:\n        /* \"contracts/Actor/MilkHub-smart-contract/inventory/MilkHubInventoryStorage.sol\":3441:3513  milkBatches[walletMilkHub][id].id  == 0 && deleteMilkBatchIdFromList(id) */\n    tag_118:\n        /* \"contracts/Actor/MilkHub-smart-contract/inventory/MilkHubInventoryStorage.sol\":3441:3570  milkBatches[walletMilkHub][id].id  == 0 && deleteMilkBatchIdFromList(id) && deleteMilkBatchIdFromListSingleUser(id,walletMilkHub) */\n      dup1\n      iszero\n      tag_121\n      jumpi\n      pop\n        /* \"contracts/Actor/MilkHub-smart-contract/inventory/MilkHubInventoryStorage.sol\":3517:3570  deleteMilkBatchIdFromListSingleUser(id,walletMilkHub) */\n      tag_122\n        /* \"contracts/Actor/MilkHub-smart-contract/inventory/MilkHubInventoryStorage.sol\":3553:3555  id */\n      dup3\n        /* \"contracts/Actor/MilkHub-smart-contract/inventory/MilkHubInventoryStorage.sol\":3556:3569  walletMilkHub */\n      dup5\n        /* \"contracts/Actor/MilkHub-smart-contract/inventory/MilkHubInventoryStorage.sol\":3517:3552  deleteMilkBatchIdFromListSingleUser */\n      tag_123\n        /* \"contracts/Actor/MilkHub-smart-contract/inventory/MilkHubInventoryStorage.sol\":3517:3570  deleteMilkBatchIdFromListSingleUser(id,walletMilkHub) */\n      jump\t// in\n    tag_122:\n        /* \"contracts/Actor/MilkHub-smart-contract/inventory/MilkHubInventoryStorage.sol\":3441:3570  milkBatches[walletMilkHub][id].id  == 0 && deleteMilkBatchIdFromList(id) && deleteMilkBatchIdFromListSingleUser(id,walletMilkHub) */\n    tag_121:\n        /* \"contracts/Actor/MilkHub-smart-contract/inventory/MilkHubInventoryStorage.sol\":3438:3654  if(milkBatches[walletMilkHub][id].id  == 0 && deleteMilkBatchIdFromList(id) && deleteMilkBatchIdFromListSingleUser(id,walletMilkHub) ){... */\n      iszero\n      tag_124\n      jumpi\n        /* \"contracts/Actor/MilkHub-smart-contract/inventory/MilkHubInventoryStorage.sol\":3594:3598  true */\n      0x01\n        /* \"contracts/Actor/MilkHub-smart-contract/inventory/MilkHubInventoryStorage.sol\":3587:3598  return true */\n      swap1\n      pop\n      jump(tag_115)\n        /* \"contracts/Actor/MilkHub-smart-contract/inventory/MilkHubInventoryStorage.sol\":3438:3654  if(milkBatches[walletMilkHub][id].id  == 0 && deleteMilkBatchIdFromList(id) && deleteMilkBatchIdFromListSingleUser(id,walletMilkHub) ){... */\n    tag_124:\n        /* \"contracts/Actor/MilkHub-smart-contract/inventory/MilkHubInventoryStorage.sol\":3637:3642  false */\n      0x00\n        /* \"contracts/Actor/MilkHub-smart-contract/inventory/MilkHubInventoryStorage.sol\":3630:3642  return false */\n      swap1\n      pop\n        /* \"contracts/Actor/MilkHub-smart-contract/inventory/MilkHubInventoryStorage.sol\":3195:3661  function deleteMilkBatch(address walletMilkHub, uint256 id) external returns(bool value) {... */\n    tag_115:\n      swap3\n      swap2\n      pop\n      pop\n      jump\t// out\n        /* \"contracts/Actor/MilkHub-smart-contract/inventory/MilkHubInventoryStorage.sol\":2327:2695  function getMilkBatch(address walletMilkHub, uint256 id) external view returns (uint256, string memory, uint256, uint256) {... */\n    tag_61:\n        /* \"contracts/Actor/MilkHub-smart-contract/inventory/MilkHubInventoryStorage.sol\":2407:2414  uint256 */\n      0x00\n        /* \"contracts/Actor/MilkHub-smart-contract/inventory/MilkHubInventoryStorage.sol\":2416:2429  string memory */\n      0x60\n        /* \"contracts/Actor/MilkHub-smart-contract/inventory/MilkHubInventoryStorage.sol\":2431:2438  uint256 */\n      0x00\n        /* \"contracts/Actor/MilkHub-smart-contract/inventory/MilkHubInventoryStorage.sol\":2440:2447  uint256 */\n      dup1\n        /* \"contracts/Actor/MilkHub-smart-contract/inventory/MilkHubInventoryStorage.sol\":2462:2488  MilkBatch memory milkBatch */\n      0x00\n        /* \"contracts/Actor/MilkHub-smart-contract/inventory/MilkHubInventoryStorage.sol\":2491:2502  milkBatches */\n      0x01\n        /* \"contracts/Actor/MilkHub-smart-contract/inventory/MilkHubInventoryStorage.sol\":2491:2517  milkBatches[walletMilkHub] */\n      0x00\n        /* \"contracts/Actor/MilkHub-smart-contract/inventory/MilkHubInventoryStorage.sol\":2503:2516  walletMilkHub */\n      dup9\n        /* \"contracts/Actor/MilkHub-smart-contract/inventory/MilkHubInventoryStorage.sol\":2491:2517  milkBatches[walletMilkHub] */\n      0xffffffffffffffffffffffffffffffffffffffff\n      and\n      0xffffffffffffffffffffffffffffffffffffffff\n      and\n      dup2\n      mstore\n      0x20\n      add\n      swap1\n      dup2\n      mstore\n      0x20\n      add\n      0x00\n      keccak256\n        /* \"contracts/Actor/MilkHub-smart-contract/inventory/MilkHubInventoryStorage.sol\":2491:2521  milkBatches[walletMilkHub][id] */\n      0x00\n        /* \"contracts/Actor/MilkHub-smart-contract/inventory/MilkHubInventoryStorage.sol\":2518:2520  id */\n      dup8\n        /* \"contracts/Actor/MilkHub-smart-contract/inventory/MilkHubInventoryStorage.sol\":2491:2521  milkBatches[walletMilkHub][id] */\n      dup2\n      mstore\n      0x20\n      add\n      swap1\n      dup2\n      mstore\n      0x20\n      add\n      0x00\n      keccak256\n        /* \"contracts/Actor/MilkHub-smart-contract/inventory/MilkHubInventoryStorage.sol\":2462:2521  MilkBatch memory milkBatch = milkBatches[walletMilkHub][id] */\n      mload(0x40)\n      dup1\n      0x80\n      add\n      0x40\n      mstore\n      swap1\n      dup2\n      0x00\n      dup3\n      add\n      sload\n      dup2\n      mstore\n      0x20\n      add\n      0x01\n      dup3\n      add\n      dup1\n      sload\n      tag_127\n      swap1\n      tag_76\n      jump\t// in\n    tag_127:\n      dup1\n      0x1f\n      add\n      0x20\n      dup1\n      swap2\n      div\n      mul\n      0x20\n      add\n      mload(0x40)\n      swap1\n      dup2\n      add\n      0x40\n      mstore\n      dup1\n      swap3\n      swap2\n      swap1\n      dup2\n      dup2\n      mstore\n      0x20\n      add\n      dup3\n      dup1\n      sload\n      tag_128\n      swap1\n      tag_76\n      jump\t// in\n    tag_128:\n      dup1\n      iszero\n      tag_129\n      jumpi\n      dup1\n      0x1f\n      lt\n      tag_130\n      jumpi\n      0x0100\n      dup1\n      dup4\n      sload\n      div\n      mul\n      dup4\n      mstore\n      swap2\n      0x20\n      add\n      swap2\n      jump(tag_129)\n    tag_130:\n      dup3\n      add\n      swap2\n      swap1\n      0x00\n      mstore\n      keccak256(0x00, 0x20)\n      swap1\n    tag_131:\n      dup2\n      sload\n      dup2\n      mstore\n      swap1\n      0x01\n      add\n      swap1\n      0x20\n      add\n      dup1\n      dup4\n      gt\n      tag_131\n      jumpi\n      dup3\n      swap1\n      sub\n      0x1f\n      and\n      dup3\n      add\n      swap2\n    tag_129:\n      pop\n      pop\n      pop\n      pop\n      pop\n      dup2\n      mstore\n      0x20\n      add\n      0x02\n      dup3\n      add\n      sload\n      dup2\n      mstore\n      0x20\n      add\n      0x03\n      dup3\n      add\n      sload\n      dup2\n      mstore\n      pop\n      pop\n      swap1\n      pop\n        /* \"contracts/Actor/MilkHub-smart-contract/inventory/MilkHubInventoryStorage.sol\":2556:2565  milkBatch */\n      dup1\n        /* \"contracts/Actor/MilkHub-smart-contract/inventory/MilkHubInventoryStorage.sol\":2556:2568  milkBatch.id */\n      0x00\n      add\n      mload\n        /* \"contracts/Actor/MilkHub-smart-contract/inventory/MilkHubInventoryStorage.sol\":2583:2592  milkBatch */\n      dup2\n        /* \"contracts/Actor/MilkHub-smart-contract/inventory/MilkHubInventoryStorage.sol\":2583:2607  milkBatch.expirationDate */\n      0x20\n      add\n      mload\n        /* \"contracts/Actor/MilkHub-smart-contract/inventory/MilkHubInventoryStorage.sol\":2622:2631  milkBatch */\n      dup3\n        /* \"contracts/Actor/MilkHub-smart-contract/inventory/MilkHubInventoryStorage.sol\":2622:2640  milkBatch.quantity */\n      0x40\n      add\n      mload\n        /* \"contracts/Actor/MilkHub-smart-contract/inventory/MilkHubInventoryStorage.sol\":2655:2664  milkBatch */\n      dup4\n        /* \"contracts/Actor/MilkHub-smart-contract/inventory/MilkHubInventoryStorage.sol\":2655:2670  milkBatch.price */\n      0x60\n      add\n      mload\n        /* \"contracts/Actor/MilkHub-smart-contract/inventory/MilkHubInventoryStorage.sol\":2534:2685  return (... */\n      swap5\n      pop\n      swap5\n      pop\n      swap5\n      pop\n      swap5\n      pop\n      pop\n        /* \"contracts/Actor/MilkHub-smart-contract/inventory/MilkHubInventoryStorage.sol\":2327:2695  function getMilkBatch(address walletMilkHub, uint256 id) external view returns (uint256, string memory, uint256, uint256) {... */\n      swap3\n      swap6\n      swap2\n      swap5\n      pop\n      swap3\n      pop\n      jump\t// out\n        /* \"contracts/Actor/MilkHub-smart-contract/inventory/MilkHubInventoryStorage.sol\":6585:6757  function updateQuantity(address walletMilkHub, uint256 id, uint256 newQuantity) external  {... */\n    tag_65:\n        /* \"contracts/Actor/MilkHub-smart-contract/inventory/MilkHubInventoryStorage.sol\":6738:6749  newQuantity */\n      dup1\n        /* \"contracts/Actor/MilkHub-smart-contract/inventory/MilkHubInventoryStorage.sol\":6696:6707  milkBatches */\n      0x01\n        /* \"contracts/Actor/MilkHub-smart-contract/inventory/MilkHubInventoryStorage.sol\":6696:6722  milkBatches[walletMilkHub] */\n      0x00\n        /* \"contracts/Actor/MilkHub-smart-contract/inventory/MilkHubInventoryStorage.sol\":6708:6721  walletMilkHub */\n      dup6\n        /* \"contracts/Actor/MilkHub-smart-contract/inventory/MilkHubInventoryStorage.sol\":6696:6722  milkBatches[walletMilkHub] */\n      0xffffffffffffffffffffffffffffffffffffffff\n      and\n      0xffffffffffffffffffffffffffffffffffffffff\n      and\n      dup2\n      mstore\n      0x20\n      add\n      swap1\n      dup2\n      mstore\n      0x20\n      add\n      0x00\n      keccak256\n        /* \"contracts/Actor/MilkHub-smart-contract/inventory/MilkHubInventoryStorage.sol\":6696:6726  milkBatches[walletMilkHub][id] */\n      0x00\n        /* \"contracts/Actor/MilkHub-smart-contract/inventory/MilkHubInventoryStorage.sol\":6723:6725  id */\n      dup5\n        /* \"contracts/Actor/MilkHub-smart-contract/inventory/MilkHubInventoryStorage.sol\":6696:6726  milkBatches[walletMilkHub][id] */\n      dup2\n      mstore\n      0x20\n      add\n      swap1\n      dup2\n      mstore\n      0x20\n      add\n      0x00\n      keccak256\n        /* \"contracts/Actor/MilkHub-smart-contract/inventory/MilkHubInventoryStorage.sol\":6696:6735  milkBatches[walletMilkHub][id].quantity */\n      0x02\n      add\n        /* \"contracts/Actor/MilkHub-smart-contract/inventory/MilkHubInventoryStorage.sol\":6696:6749  milkBatches[walletMilkHub][id].quantity = newQuantity */\n      dup2\n      swap1\n      sstore\n      pop\n        /* \"contracts/Actor/MilkHub-smart-contract/inventory/MilkHubInventoryStorage.sol\":6585:6757  function updateQuantity(address walletMilkHub, uint256 id, uint256 newQuantity) external  {... */\n      pop\n      pop\n      pop\n      jump\t// out\n        /* \"contracts/Actor/MilkHub-smart-contract/inventory/MilkHubInventoryStorage.sol\":5650:5941  function deleteMilkBatchIdFromList(uint256 id ) internal returns (bool) {... */\n    tag_120:\n        /* \"contracts/Actor/MilkHub-smart-contract/inventory/MilkHubInventoryStorage.sol\":5716:5720  bool */\n      0x00\n        /* \"contracts/Actor/MilkHub-smart-contract/inventory/MilkHubInventoryStorage.sol\":5737:5746  uint256 i */\n      dup1\n        /* \"contracts/Actor/MilkHub-smart-contract/inventory/MilkHubInventoryStorage.sol\":5747:5748  0 */\n      0x00\n        /* \"contracts/Actor/MilkHub-smart-contract/inventory/MilkHubInventoryStorage.sol\":5737:5748  uint256 i=0 */\n      swap1\n      pop\n        /* \"contracts/Actor/MilkHub-smart-contract/inventory/MilkHubInventoryStorage.sol\":5733:5908  for(uint256 i=0; ; i++){... */\n    tag_134:\n        /* \"contracts/Actor/MilkHub-smart-contract/inventory/MilkHubInventoryStorage.sol\":5799:5801  id */\n      dup3\n        /* \"contracts/Actor/MilkHub-smart-contract/inventory/MilkHubInventoryStorage.sol\":5774:5792  globalMilkBatchIds */\n      0x03\n        /* \"contracts/Actor/MilkHub-smart-contract/inventory/MilkHubInventoryStorage.sol\":5793:5794  i */\n      dup3\n        /* \"contracts/Actor/MilkHub-smart-contract/inventory/MilkHubInventoryStorage.sol\":5774:5795  globalMilkBatchIds[i] */\n      dup2\n      sload\n      dup2\n      lt\n      tag_137\n      jumpi\n      tag_138\n      tag_139\n      jump\t// in\n    tag_138:\n    tag_137:\n      swap1\n      0x00\n      mstore\n      keccak256(0x00, 0x20)\n      add\n      sload\n        /* \"contracts/Actor/MilkHub-smart-contract/inventory/MilkHubInventoryStorage.sol\":5774:5801  globalMilkBatchIds[i] == id */\n      sub\n        /* \"contracts/Actor/MilkHub-smart-contract/inventory/MilkHubInventoryStorage.sol\":5771:5897  if(globalMilkBatchIds[i] == id ){... */\n      tag_141\n      jumpi\n        /* \"contracts/Actor/MilkHub-smart-contract/inventory/MilkHubInventoryStorage.sol\":5830:5848  globalMilkBatchIds */\n      0x03\n        /* \"contracts/Actor/MilkHub-smart-contract/inventory/MilkHubInventoryStorage.sol\":5849:5850  i */\n      dup2\n        /* \"contracts/Actor/MilkHub-smart-contract/inventory/MilkHubInventoryStorage.sol\":5830:5851  globalMilkBatchIds[i] */\n      dup2\n      sload\n      dup2\n      lt\n      tag_142\n      jumpi\n      tag_143\n      tag_139\n      jump\t// in\n    tag_143:\n    tag_142:\n      swap1\n      0x00\n      mstore\n      keccak256(0x00, 0x20)\n      add\n        /* \"contracts/Actor/MilkHub-smart-contract/inventory/MilkHubInventoryStorage.sol\":5822:5851  delete  globalMilkBatchIds[i] */\n      0x00\n      swap1\n      sstore\n        /* \"contracts/Actor/MilkHub-smart-contract/inventory/MilkHubInventoryStorage.sol\":5877:5881  true */\n      0x01\n        /* \"contracts/Actor/MilkHub-smart-contract/inventory/MilkHubInventoryStorage.sol\":5870:5881  return true */\n      swap2\n      pop\n      pop\n      jump(tag_133)\n        /* \"contracts/Actor/MilkHub-smart-contract/inventory/MilkHubInventoryStorage.sol\":5771:5897  if(globalMilkBatchIds[i] == id ){... */\n    tag_141:\n        /* \"contracts/Actor/MilkHub-smart-contract/inventory/MilkHubInventoryStorage.sol\":5752:5755  i++ */\n      dup1\n      dup1\n      tag_145\n      swap1\n      tag_146\n      jump\t// in\n    tag_145:\n      swap2\n      pop\n      pop\n        /* \"contracts/Actor/MilkHub-smart-contract/inventory/MilkHubInventoryStorage.sol\":5733:5908  for(uint256 i=0; ; i++){... */\n      jump(tag_134)\n        /* \"contracts/Actor/MilkHub-smart-contract/inventory/MilkHubInventoryStorage.sol\":5650:5941  function deleteMilkBatchIdFromList(uint256 id ) internal returns (bool) {... */\n    tag_133:\n      swap2\n      swap1\n      pop\n      jump\t// out\n        /* \"contracts/Actor/MilkHub-smart-contract/inventory/MilkHubInventoryStorage.sol\":5949:6346  function deleteMilkBatchIdFromListSingleUser(uint256 id, address walletMilkHub)internal returns(bool){... */\n    tag_123:\n        /* \"contracts/Actor/MilkHub-smart-contract/inventory/MilkHubInventoryStorage.sol\":6045:6049  bool */\n      0x00\n        /* \"contracts/Actor/MilkHub-smart-contract/inventory/MilkHubInventoryStorage.sol\":6061:6070  bool flag */\n      dup1\n        /* \"contracts/Actor/MilkHub-smart-contract/inventory/MilkHubInventoryStorage.sol\":6073:6078  false */\n      0x00\n        /* \"contracts/Actor/MilkHub-smart-contract/inventory/MilkHubInventoryStorage.sol\":6061:6078  bool flag = false */\n      swap1\n      pop\n        /* \"contracts/Actor/MilkHub-smart-contract/inventory/MilkHubInventoryStorage.sol\":6093:6102  uint256 j */\n      0x00\n        /* \"contracts/Actor/MilkHub-smart-contract/inventory/MilkHubInventoryStorage.sol\":6089:6317  for(uint256 j=0; ;j++){... */\n    tag_148:\n        /* \"contracts/Actor/MilkHub-smart-contract/inventory/MilkHubInventoryStorage.sol\":6167:6169  id */\n      dup5\n        /* \"contracts/Actor/MilkHub-smart-contract/inventory/MilkHubInventoryStorage.sol\":6129:6145  userMilkBatchIds */\n      0x02\n        /* \"contracts/Actor/MilkHub-smart-contract/inventory/MilkHubInventoryStorage.sol\":6129:6160  userMilkBatchIds[walletMilkHub] */\n      0x00\n        /* \"contracts/Actor/MilkHub-smart-contract/inventory/MilkHubInventoryStorage.sol\":6146:6159  walletMilkHub */\n      dup7\n        /* \"contracts/Actor/MilkHub-smart-contract/inventory/MilkHubInventoryStorage.sol\":6129:6160  userMilkBatchIds[walletMilkHub] */\n      0xffffffffffffffffffffffffffffffffffffffff\n      and\n      0xffffffffffffffffffffffffffffffffffffffff\n      and\n      dup2\n      mstore\n      0x20\n      add\n      swap1\n      dup2\n      mstore\n      0x20\n      add\n      0x00\n      keccak256\n        /* \"contracts/Actor/MilkHub-smart-contract/inventory/MilkHubInventoryStorage.sol\":6161:6162  j */\n      dup3\n        /* \"contracts/Actor/MilkHub-smart-contract/inventory/MilkHubInventoryStorage.sol\":6129:6163  userMilkBatchIds[walletMilkHub][j] */\n      dup2\n      sload\n      dup2\n      lt\n      tag_151\n      jumpi\n      tag_152\n      tag_139\n      jump\t// in\n    tag_152:\n    tag_151:\n      swap1\n      0x00\n      mstore\n      keccak256(0x00, 0x20)\n      add\n      sload\n        /* \"contracts/Actor/MilkHub-smart-contract/inventory/MilkHubInventoryStorage.sol\":6129:6169  userMilkBatchIds[walletMilkHub][j] == id */\n      sub\n        /* \"contracts/Actor/MilkHub-smart-contract/inventory/MilkHubInventoryStorage.sol\":6126:6306  if(userMilkBatchIds[walletMilkHub][j] == id){... */\n      tag_154\n      jumpi\n        /* \"contracts/Actor/MilkHub-smart-contract/inventory/MilkHubInventoryStorage.sol\":6196:6212  userMilkBatchIds */\n      0x02\n        /* \"contracts/Actor/MilkHub-smart-contract/inventory/MilkHubInventoryStorage.sol\":6196:6227  userMilkBatchIds[walletMilkHub] */\n      0x00\n        /* \"contracts/Actor/MilkHub-smart-contract/inventory/MilkHubInventoryStorage.sol\":6213:6226  walletMilkHub */\n      dup6\n        /* \"contracts/Actor/MilkHub-smart-contract/inventory/MilkHubInventoryStorage.sol\":6196:6227  userMilkBatchIds[walletMilkHub] */\n      0xffffffffffffffffffffffffffffffffffffffff\n      and\n      0xffffffffffffffffffffffffffffffffffffffff\n      and\n      dup2\n      mstore\n      0x20\n      add\n      swap1\n      dup2\n      mstore\n      0x20\n      add\n      0x00\n      keccak256\n        /* \"contracts/Actor/MilkHub-smart-contract/inventory/MilkHubInventoryStorage.sol\":6228:6229  j */\n      dup2\n        /* \"contracts/Actor/MilkHub-smart-contract/inventory/MilkHubInventoryStorage.sol\":6196:6230  userMilkBatchIds[walletMilkHub][j] */\n      dup2\n      sload\n      dup2\n      lt\n      tag_155\n      jumpi\n      tag_156\n      tag_139\n      jump\t// in\n    tag_156:\n    tag_155:\n      swap1\n      0x00\n      mstore\n      keccak256(0x00, 0x20)\n      add\n        /* \"contracts/Actor/MilkHub-smart-contract/inventory/MilkHubInventoryStorage.sol\":6189:6230  delete userMilkBatchIds[walletMilkHub][j] */\n      0x00\n      swap1\n      sstore\n        /* \"contracts/Actor/MilkHub-smart-contract/inventory/MilkHubInventoryStorage.sol\":6256:6260  true */\n      0x01\n        /* \"contracts/Actor/MilkHub-smart-contract/inventory/MilkHubInventoryStorage.sol\":6249:6260  flag = true */\n      swap2\n      pop\n        /* \"contracts/Actor/MilkHub-smart-contract/inventory/MilkHubInventoryStorage.sol\":6286:6290  flag */\n      dup2\n        /* \"contracts/Actor/MilkHub-smart-contract/inventory/MilkHubInventoryStorage.sol\":6279:6290  return flag */\n      swap3\n      pop\n      pop\n      pop\n      jump(tag_147)\n        /* \"contracts/Actor/MilkHub-smart-contract/inventory/MilkHubInventoryStorage.sol\":6126:6306  if(userMilkBatchIds[walletMilkHub][j] == id){... */\n    tag_154:\n        /* \"contracts/Actor/MilkHub-smart-contract/inventory/MilkHubInventoryStorage.sol\":6107:6110  j++ */\n      dup1\n      dup1\n      tag_158\n      swap1\n      tag_146\n      jump\t// in\n    tag_158:\n      swap2\n      pop\n      pop\n        /* \"contracts/Actor/MilkHub-smart-contract/inventory/MilkHubInventoryStorage.sol\":6089:6317  for(uint256 j=0; ;j++){... */\n      jump(tag_148)\n        /* \"contracts/Actor/MilkHub-smart-contract/inventory/MilkHubInventoryStorage.sol\":5949:6346  function deleteMilkBatchIdFromListSingleUser(uint256 id, address walletMilkHub)internal returns(bool){... */\n    tag_147:\n      swap3\n      swap2\n      pop\n      pop\n      jump\t// out\n    tag_117:\n      pop\n      dup1\n      sload\n      tag_159\n      swap1\n      tag_76\n      jump\t// in\n    tag_159:\n      0x00\n      dup3\n      sstore\n      dup1\n      0x1f\n      lt\n      tag_161\n      jumpi\n      pop\n      jump(tag_160)\n    tag_161:\n      0x1f\n      add\n      0x20\n      swap1\n      div\n      swap1\n      0x00\n      mstore\n      keccak256(0x00, 0x20)\n      swap1\n      dup2\n      add\n      swap1\n      tag_162\n      swap2\n      swap1\n      tag_163\n      jump\t// in\n    tag_162:\n    tag_160:\n      pop\n      jump\t// out\n    tag_163:\n    tag_164:\n      dup1\n      dup3\n      gt\n      iszero\n      tag_165\n      jumpi\n      0x00\n      dup2\n      0x00\n      swap1\n      sstore\n      pop\n      0x01\n      add\n      jump(tag_164)\n    tag_165:\n      pop\n      swap1\n      jump\t// out\n        /* \"#utility.yul\":7:82   */\n    tag_166:\n        /* \"#utility.yul\":40:46   */\n      0x00\n        /* \"#utility.yul\":73:75   */\n      0x40\n        /* \"#utility.yul\":67:76   */\n      mload\n        /* \"#utility.yul\":57:76   */\n      swap1\n      pop\n        /* \"#utility.yul\":7:82   */\n      swap1\n      jump\t// out\n        /* \"#utility.yul\":88:205   */\n    tag_167:\n        /* \"#utility.yul\":197:198   */\n      0x00\n        /* \"#utility.yul\":194:195   */\n      dup1\n        /* \"#utility.yul\":187:199   */\n      revert\n        /* \"#utility.yul\":211:328   */\n    tag_168:\n        /* \"#utility.yul\":320:321   */\n      0x00\n        /* \"#utility.yul\":317:318   */\n      dup1\n        /* \"#utility.yul\":310:322   */\n      revert\n        /* \"#utility.yul\":334:460   */\n    tag_169:\n        /* \"#utility.yul\":371:378   */\n      0x00\n        /* \"#utility.yul\":411:453   */\n      0xffffffffffffffffffffffffffffffffffffffff\n        /* \"#utility.yul\":404:409   */\n      dup3\n        /* \"#utility.yul\":400:454   */\n      and\n        /* \"#utility.yul\":389:454   */\n      swap1\n      pop\n        /* \"#utility.yul\":334:460   */\n      swap2\n      swap1\n      pop\n      jump\t// out\n        /* \"#utility.yul\":466:562   */\n    tag_170:\n        /* \"#utility.yul\":503:510   */\n      0x00\n        /* \"#utility.yul\":532:556   */\n      tag_237\n        /* \"#utility.yul\":550:555   */\n      dup3\n        /* \"#utility.yul\":532:556   */\n      tag_169\n      jump\t// in\n    tag_237:\n        /* \"#utility.yul\":521:556   */\n      swap1\n      pop\n        /* \"#utility.yul\":466:562   */\n      swap2\n      swap1\n      pop\n      jump\t// out\n        /* \"#utility.yul\":568:690   */\n    tag_171:\n        /* \"#utility.yul\":641:665   */\n      tag_239\n        /* \"#utility.yul\":659:664   */\n      dup2\n        /* \"#utility.yul\":641:665   */\n      tag_170\n      jump\t// in\n    tag_239:\n        /* \"#utility.yul\":634:639   */\n      dup2\n        /* \"#utility.yul\":631:666   */\n      eq\n        /* \"#utility.yul\":621:684   */\n      tag_240\n      jumpi\n        /* \"#utility.yul\":680:681   */\n      0x00\n        /* \"#utility.yul\":677:678   */\n      dup1\n        /* \"#utility.yul\":670:682   */\n      revert\n        /* \"#utility.yul\":621:684   */\n    tag_240:\n        /* \"#utility.yul\":568:690   */\n      pop\n      jump\t// out\n        /* \"#utility.yul\":696:835   */\n    tag_172:\n        /* \"#utility.yul\":742:747   */\n      0x00\n        /* \"#utility.yul\":780:786   */\n      dup2\n        /* \"#utility.yul\":767:787   */\n      calldataload\n        /* \"#utility.yul\":758:787   */\n      swap1\n      pop\n        /* \"#utility.yul\":796:829   */\n      tag_242\n        /* \"#utility.yul\":823:828   */\n      dup2\n        /* \"#utility.yul\":796:829   */\n      tag_171\n      jump\t// in\n    tag_242:\n        /* \"#utility.yul\":696:835   */\n      swap3\n      swap2\n      pop\n      pop\n      jump\t// out\n        /* \"#utility.yul\":841:918   */\n    tag_173:\n        /* \"#utility.yul\":878:885   */\n      0x00\n        /* \"#utility.yul\":907:912   */\n      dup2\n        /* \"#utility.yul\":896:912   */\n      swap1\n      pop\n        /* \"#utility.yul\":841:918   */\n      swap2\n      swap1\n      pop\n      jump\t// out\n        /* \"#utility.yul\":924:1046   */\n    tag_174:\n        /* \"#utility.yul\":997:1021   */\n      tag_245\n        /* \"#utility.yul\":1015:1020   */\n      dup2\n        /* \"#utility.yul\":997:1021   */\n      tag_173\n      jump\t// in\n    tag_245:\n        /* \"#utility.yul\":990:995   */\n      dup2\n        /* \"#utility.yul\":987:1022   */\n      eq\n        /* \"#utility.yul\":977:1040   */\n      tag_246\n      jumpi\n        /* \"#utility.yul\":1036:1037   */\n      0x00\n        /* \"#utility.yul\":1033:1034   */\n      dup1\n        /* \"#utility.yul\":1026:1038   */\n      revert\n        /* \"#utility.yul\":977:1040   */\n    tag_246:\n        /* \"#utility.yul\":924:1046   */\n      pop\n      jump\t// out\n        /* \"#utility.yul\":1052:1191   */\n    tag_175:\n        /* \"#utility.yul\":1098:1103   */\n      0x00\n        /* \"#utility.yul\":1136:1142   */\n      dup2\n        /* \"#utility.yul\":1123:1143   */\n      calldataload\n        /* \"#utility.yul\":1114:1143   */\n      swap1\n      pop\n        /* \"#utility.yul\":1152:1185   */\n      tag_248\n        /* \"#utility.yul\":1179:1184   */\n      dup2\n        /* \"#utility.yul\":1152:1185   */\n      tag_174\n      jump\t// in\n    tag_248:\n        /* \"#utility.yul\":1052:1191   */\n      swap3\n      swap2\n      pop\n      pop\n      jump\t// out\n        /* \"#utility.yul\":1197:1671   */\n    tag_17:\n        /* \"#utility.yul\":1265:1271   */\n      0x00\n        /* \"#utility.yul\":1273:1279   */\n      dup1\n        /* \"#utility.yul\":1322:1324   */\n      0x40\n        /* \"#utility.yul\":1310:1319   */\n      dup4\n        /* \"#utility.yul\":1301:1308   */\n      dup6\n        /* \"#utility.yul\":1297:1320   */\n      sub\n        /* \"#utility.yul\":1293:1325   */\n      slt\n        /* \"#utility.yul\":1290:1409   */\n      iszero\n      tag_250\n      jumpi\n        /* \"#utility.yul\":1328:1407   */\n      tag_251\n      tag_167\n      jump\t// in\n    tag_251:\n        /* \"#utility.yul\":1290:1409   */\n    tag_250:\n        /* \"#utility.yul\":1448:1449   */\n      0x00\n        /* \"#utility.yul\":1473:1526   */\n      tag_252\n        /* \"#utility.yul\":1518:1525   */\n      dup6\n        /* \"#utility.yul\":1509:1515   */\n      dup3\n        /* \"#utility.yul\":1498:1507   */\n      dup7\n        /* \"#utility.yul\":1494:1516   */\n      add\n        /* \"#utility.yul\":1473:1526   */\n      tag_172\n      jump\t// in\n    tag_252:\n        /* \"#utility.yul\":1463:1526   */\n      swap3\n      pop\n        /* \"#utility.yul\":1419:1536   */\n      pop\n        /* \"#utility.yul\":1575:1577   */\n      0x20\n        /* \"#utility.yul\":1601:1654   */\n      tag_253\n        /* \"#utility.yul\":1646:1653   */\n      dup6\n        /* \"#utility.yul\":1637:1643   */\n      dup3\n        /* \"#utility.yul\":1626:1635   */\n      dup7\n        /* \"#utility.yul\":1622:1644   */\n      add\n        /* \"#utility.yul\":1601:1654   */\n      tag_175\n      jump\t// in\n    tag_253:\n        /* \"#utility.yul\":1591:1654   */\n      swap2\n      pop\n        /* \"#utility.yul\":1546:1664   */\n      pop\n        /* \"#utility.yul\":1197:1671   */\n      swap3\n      pop\n      swap3\n      swap1\n      pop\n      jump\t// out\n        /* \"#utility.yul\":1677:1767   */\n    tag_176:\n        /* \"#utility.yul\":1711:1718   */\n      0x00\n        /* \"#utility.yul\":1754:1759   */\n      dup2\n        /* \"#utility.yul\":1747:1760   */\n      iszero\n        /* \"#utility.yul\":1740:1761   */\n      iszero\n        /* \"#utility.yul\":1729:1761   */\n      swap1\n      pop\n        /* \"#utility.yul\":1677:1767   */\n      swap2\n      swap1\n      pop\n      jump\t// out\n        /* \"#utility.yul\":1773:1882   */\n    tag_177:\n        /* \"#utility.yul\":1854:1875   */\n      tag_256\n        /* \"#utility.yul\":1869:1874   */\n      dup2\n        /* \"#utility.yul\":1854:1875   */\n      tag_176\n      jump\t// in\n    tag_256:\n        /* \"#utility.yul\":1849:1852   */\n      dup3\n        /* \"#utility.yul\":1842:1876   */\n      mstore\n        /* \"#utility.yul\":1773:1882   */\n      pop\n      pop\n      jump\t// out\n        /* \"#utility.yul\":1888:2098   */\n    tag_20:\n        /* \"#utility.yul\":1975:1979   */\n      0x00\n        /* \"#utility.yul\":2013:2015   */\n      0x20\n        /* \"#utility.yul\":2002:2011   */\n      dup3\n        /* \"#utility.yul\":1998:2016   */\n      add\n        /* \"#utility.yul\":1990:2016   */\n      swap1\n      pop\n        /* \"#utility.yul\":2026:2091   */\n      tag_258\n        /* \"#utility.yul\":2088:2089   */\n      0x00\n        /* \"#utility.yul\":2077:2086   */\n      dup4\n        /* \"#utility.yul\":2073:2090   */\n      add\n        /* \"#utility.yul\":2064:2070   */\n      dup5\n        /* \"#utility.yul\":2026:2091   */\n      tag_177\n      jump\t// in\n    tag_258:\n        /* \"#utility.yul\":1888:2098   */\n      swap3\n      swap2\n      pop\n      pop\n      jump\t// out\n        /* \"#utility.yul\":2104:2433   */\n    tag_23:\n        /* \"#utility.yul\":2163:2169   */\n      0x00\n        /* \"#utility.yul\":2212:2214   */\n      0x20\n        /* \"#utility.yul\":2200:2209   */\n      dup3\n        /* \"#utility.yul\":2191:2198   */\n      dup5\n        /* \"#utility.yul\":2187:2210   */\n      sub\n        /* \"#utility.yul\":2183:2215   */\n      slt\n        /* \"#utility.yul\":2180:2299   */\n      iszero\n      tag_260\n      jumpi\n        /* \"#utility.yul\":2218:2297   */\n      tag_261\n      tag_167\n      jump\t// in\n    tag_261:\n        /* \"#utility.yul\":2180:2299   */\n    tag_260:\n        /* \"#utility.yul\":2338:2339   */\n      0x00\n        /* \"#utility.yul\":2363:2416   */\n      tag_262\n        /* \"#utility.yul\":2408:2415   */\n      dup5\n        /* \"#utility.yul\":2399:2405   */\n      dup3\n        /* \"#utility.yul\":2388:2397   */\n      dup6\n        /* \"#utility.yul\":2384:2406   */\n      add\n        /* \"#utility.yul\":2363:2416   */\n      tag_172\n      jump\t// in\n    tag_262:\n        /* \"#utility.yul\":2353:2416   */\n      swap2\n      pop\n        /* \"#utility.yul\":2309:2426   */\n      pop\n        /* \"#utility.yul\":2104:2433   */\n      swap3\n      swap2\n      pop\n      pop\n      jump\t// out\n        /* \"#utility.yul\":2439:2553   */\n    tag_178:\n        /* \"#utility.yul\":2506:2512   */\n      0x00\n        /* \"#utility.yul\":2540:2545   */\n      dup2\n        /* \"#utility.yul\":2534:2546   */\n      mload\n        /* \"#utility.yul\":2524:2546   */\n      swap1\n      pop\n        /* \"#utility.yul\":2439:2553   */\n      swap2\n      swap1\n      pop\n      jump\t// out\n        /* \"#utility.yul\":2559:2743   */\n    tag_179:\n        /* \"#utility.yul\":2658:2669   */\n      0x00\n        /* \"#utility.yul\":2692:2698   */\n      dup3\n        /* \"#utility.yul\":2687:2690   */\n      dup3\n        /* \"#utility.yul\":2680:2699   */\n      mstore\n        /* \"#utility.yul\":2732:2736   */\n      0x20\n        /* \"#utility.yul\":2727:2730   */\n      dup3\n        /* \"#utility.yul\":2723:2737   */\n      add\n        /* \"#utility.yul\":2708:2737   */\n      swap1\n      pop\n        /* \"#utility.yul\":2559:2743   */\n      swap3\n      swap2\n      pop\n      pop\n      jump\t// out\n        /* \"#utility.yul\":2749:2881   */\n    tag_180:\n        /* \"#utility.yul\":2816:2820   */\n      0x00\n        /* \"#utility.yul\":2839:2842   */\n      dup2\n        /* \"#utility.yul\":2831:2842   */\n      swap1\n      pop\n        /* \"#utility.yul\":2869:2873   */\n      0x20\n        /* \"#utility.yul\":2864:2867   */\n      dup3\n        /* \"#utility.yul\":2860:2874   */\n      add\n        /* \"#utility.yul\":2852:2874   */\n      swap1\n      pop\n        /* \"#utility.yul\":2749:2881   */\n      swap2\n      swap1\n      pop\n      jump\t// out\n        /* \"#utility.yul\":2887:2995   */\n    tag_181:\n        /* \"#utility.yul\":2964:2988   */\n      tag_267\n        /* \"#utility.yul\":2982:2987   */\n      dup2\n        /* \"#utility.yul\":2964:2988   */\n      tag_173\n      jump\t// in\n    tag_267:\n        /* \"#utility.yul\":2959:2962   */\n      dup3\n        /* \"#utility.yul\":2952:2989   */\n      mstore\n        /* \"#utility.yul\":2887:2995   */\n      pop\n      pop\n      jump\t// out\n        /* \"#utility.yul\":3001:3180   */\n    tag_182:\n        /* \"#utility.yul\":3070:3080   */\n      0x00\n        /* \"#utility.yul\":3091:3137   */\n      tag_269\n        /* \"#utility.yul\":3133:3136   */\n      dup4\n        /* \"#utility.yul\":3125:3131   */\n      dup4\n        /* \"#utility.yul\":3091:3137   */\n      tag_181\n      jump\t// in\n    tag_269:\n        /* \"#utility.yul\":3169:3173   */\n      0x20\n        /* \"#utility.yul\":3164:3167   */\n      dup4\n        /* \"#utility.yul\":3160:3174   */\n      add\n        /* \"#utility.yul\":3146:3174   */\n      swap1\n      pop\n        /* \"#utility.yul\":3001:3180   */\n      swap3\n      swap2\n      pop\n      pop\n      jump\t// out\n        /* \"#utility.yul\":3186:3299   */\n    tag_183:\n        /* \"#utility.yul\":3256:3260   */\n      0x00\n        /* \"#utility.yul\":3288:3292   */\n      0x20\n        /* \"#utility.yul\":3283:3286   */\n      dup3\n        /* \"#utility.yul\":3279:3293   */\n      add\n        /* \"#utility.yul\":3271:3293   */\n      swap1\n      pop\n        /* \"#utility.yul\":3186:3299   */\n      swap2\n      swap1\n      pop\n      jump\t// out\n        /* \"#utility.yul\":3335:4067   */\n    tag_184:\n        /* \"#utility.yul\":3454:3457   */\n      0x00\n        /* \"#utility.yul\":3483:3537   */\n      tag_272\n        /* \"#utility.yul\":3531:3536   */\n      dup3\n        /* \"#utility.yul\":3483:3537   */\n      tag_178\n      jump\t// in\n    tag_272:\n        /* \"#utility.yul\":3553:3639   */\n      tag_273\n        /* \"#utility.yul\":3632:3638   */\n      dup2\n        /* \"#utility.yul\":3627:3630   */\n      dup6\n        /* \"#utility.yul\":3553:3639   */\n      tag_179\n      jump\t// in\n    tag_273:\n        /* \"#utility.yul\":3546:3639   */\n      swap4\n      pop\n        /* \"#utility.yul\":3663:3719   */\n      tag_274\n        /* \"#utility.yul\":3713:3718   */\n      dup4\n        /* \"#utility.yul\":3663:3719   */\n      tag_180\n      jump\t// in\n    tag_274:\n        /* \"#utility.yul\":3742:3749   */\n      dup1\n        /* \"#utility.yul\":3773:3774   */\n      0x00\n        /* \"#utility.yul\":3758:4042   */\n    tag_275:\n        /* \"#utility.yul\":3783:3789   */\n      dup4\n        /* \"#utility.yul\":3780:3781   */\n      dup2\n        /* \"#utility.yul\":3777:3790   */\n      lt\n        /* \"#utility.yul\":3758:4042   */\n      iszero\n      tag_277\n      jumpi\n        /* \"#utility.yul\":3859:3865   */\n      dup2\n        /* \"#utility.yul\":3853:3866   */\n      mload\n        /* \"#utility.yul\":3886:3949   */\n      tag_278\n        /* \"#utility.yul\":3945:3948   */\n      dup9\n        /* \"#utility.yul\":3930:3943   */\n      dup3\n        /* \"#utility.yul\":3886:3949   */\n      tag_182\n      jump\t// in\n    tag_278:\n        /* \"#utility.yul\":3879:3949   */\n      swap8\n      pop\n        /* \"#utility.yul\":3972:4032   */\n      tag_279\n        /* \"#utility.yul\":4025:4031   */\n      dup4\n        /* \"#utility.yul\":3972:4032   */\n      tag_183\n      jump\t// in\n    tag_279:\n        /* \"#utility.yul\":3962:4032   */\n      swap3\n      pop\n        /* \"#utility.yul\":3818:4042   */\n      pop\n        /* \"#utility.yul\":3805:3806   */\n      0x01\n        /* \"#utility.yul\":3802:3803   */\n      dup2\n        /* \"#utility.yul\":3798:3807   */\n      add\n        /* \"#utility.yul\":3793:3807   */\n      swap1\n      pop\n        /* \"#utility.yul\":3758:4042   */\n      jump(tag_275)\n    tag_277:\n        /* \"#utility.yul\":3762:3776   */\n      pop\n        /* \"#utility.yul\":4058:4061   */\n      dup6\n        /* \"#utility.yul\":4051:4061   */\n      swap4\n      pop\n        /* \"#utility.yul\":3459:4067   */\n      pop\n      pop\n      pop\n        /* \"#utility.yul\":3335:4067   */\n      swap3\n      swap2\n      pop\n      pop\n      jump\t// out\n        /* \"#utility.yul\":4073:4446   */\n    tag_26:\n        /* \"#utility.yul\":4216:4220   */\n      0x00\n        /* \"#utility.yul\":4254:4256   */\n      0x20\n        /* \"#utility.yul\":4243:4252   */\n      dup3\n        /* \"#utility.yul\":4239:4257   */\n      add\n        /* \"#utility.yul\":4231:4257   */\n      swap1\n      pop\n        /* \"#utility.yul\":4303:4312   */\n      dup2\n        /* \"#utility.yul\":4297:4301   */\n      dup2\n        /* \"#utility.yul\":4293:4313   */\n      sub\n        /* \"#utility.yul\":4289:4290   */\n      0x00\n        /* \"#utility.yul\":4278:4287   */\n      dup4\n        /* \"#utility.yul\":4274:4291   */\n      add\n        /* \"#utility.yul\":4267:4314   */\n      mstore\n        /* \"#utility.yul\":4331:4439   */\n      tag_281\n        /* \"#utility.yul\":4434:4438   */\n      dup2\n        /* \"#utility.yul\":4425:4431   */\n      dup5\n        /* \"#utility.yul\":4331:4439   */\n      tag_184\n      jump\t// in\n    tag_281:\n        /* \"#utility.yul\":4323:4439   */\n      swap1\n      pop\n        /* \"#utility.yul\":4073:4446   */\n      swap3\n      swap2\n      pop\n      pop\n      jump\t// out\n        /* \"#utility.yul\":4452:4570   */\n    tag_185:\n        /* \"#utility.yul\":4539:4563   */\n      tag_283\n        /* \"#utility.yul\":4557:4562   */\n      dup2\n        /* \"#utility.yul\":4539:4563   */\n      tag_173\n      jump\t// in\n    tag_283:\n        /* \"#utility.yul\":4534:4537   */\n      dup3\n        /* \"#utility.yul\":4527:4564   */\n      mstore\n        /* \"#utility.yul\":4452:4570   */\n      pop\n      pop\n      jump\t// out\n        /* \"#utility.yul\":4576:4798   */\n    tag_31:\n        /* \"#utility.yul\":4669:4673   */\n      0x00\n        /* \"#utility.yul\":4707:4709   */\n      0x20\n        /* \"#utility.yul\":4696:4705   */\n      dup3\n        /* \"#utility.yul\":4692:4710   */\n      add\n        /* \"#utility.yul\":4684:4710   */\n      swap1\n      pop\n        /* \"#utility.yul\":4720:4791   */\n      tag_285\n        /* \"#utility.yul\":4788:4789   */\n      0x00\n        /* \"#utility.yul\":4777:4786   */\n      dup4\n        /* \"#utility.yul\":4773:4790   */\n      add\n        /* \"#utility.yul\":4764:4770   */\n      dup5\n        /* \"#utility.yul\":4720:4791   */\n      tag_185\n      jump\t// in\n    tag_285:\n        /* \"#utility.yul\":4576:4798   */\n      swap3\n      swap2\n      pop\n      pop\n      jump\t// out\n        /* \"#utility.yul\":4804:4921   */\n    tag_186:\n        /* \"#utility.yul\":4913:4914   */\n      0x00\n        /* \"#utility.yul\":4910:4911   */\n      dup1\n        /* \"#utility.yul\":4903:4915   */\n      revert\n        /* \"#utility.yul\":4927:5044   */\n    tag_187:\n        /* \"#utility.yul\":5036:5037   */\n      0x00\n        /* \"#utility.yul\":5033:5034   */\n      dup1\n        /* \"#utility.yul\":5026:5038   */\n      revert\n        /* \"#utility.yul\":5050:5152   */\n    tag_188:\n        /* \"#utility.yul\":5091:5097   */\n      0x00\n        /* \"#utility.yul\":5142:5144   */\n      0x1f\n        /* \"#utility.yul\":5138:5145   */\n      not\n        /* \"#utility.yul\":5133:5135   */\n      0x1f\n        /* \"#utility.yul\":5126:5131   */\n      dup4\n        /* \"#utility.yul\":5122:5136   */\n      add\n        /* \"#utility.yul\":5118:5146   */\n      and\n        /* \"#utility.yul\":5108:5146   */\n      swap1\n      pop\n        /* \"#utility.yul\":5050:5152   */\n      swap2\n      swap1\n      pop\n      jump\t// out\n        /* \"#utility.yul\":5158:5338   */\n    tag_189:\n        /* \"#utility.yul\":5206:5283   */\n      0x4e487b7100000000000000000000000000000000000000000000000000000000\n        /* \"#utility.yul\":5203:5204   */\n      0x00\n        /* \"#utility.yul\":5196:5284   */\n      mstore\n        /* \"#utility.yul\":5303:5307   */\n      0x41\n        /* \"#utility.yul\":5300:5301   */\n      0x04\n        /* \"#utility.yul\":5293:5308   */\n      mstore\n        /* \"#utility.yul\":5327:5331   */\n      0x24\n        /* \"#utility.yul\":5324:5325   */\n      0x00\n        /* \"#utility.yul\":5317:5332   */\n      revert\n        /* \"#utility.yul\":5344:5625   */\n    tag_190:\n        /* \"#utility.yul\":5427:5454   */\n      tag_291\n        /* \"#utility.yul\":5449:5453   */\n      dup3\n        /* \"#utility.yul\":5427:5454   */\n      tag_188\n      jump\t// in\n    tag_291:\n        /* \"#utility.yul\":5419:5425   */\n      dup2\n        /* \"#utility.yul\":5415:5455   */\n      add\n        /* \"#utility.yul\":5557:5563   */\n      dup2\n        /* \"#utility.yul\":5545:5555   */\n      dup2\n        /* \"#utility.yul\":5542:5564   */\n      lt\n        /* \"#utility.yul\":5521:5539   */\n      0xffffffffffffffff\n        /* \"#utility.yul\":5509:5519   */\n      dup3\n        /* \"#utility.yul\":5506:5540   */\n      gt\n        /* \"#utility.yul\":5503:5565   */\n      or\n        /* \"#utility.yul\":5500:5588   */\n      iszero\n      tag_292\n      jumpi\n        /* \"#utility.yul\":5568:5586   */\n      tag_293\n      tag_189\n      jump\t// in\n    tag_293:\n        /* \"#utility.yul\":5500:5588   */\n    tag_292:\n        /* \"#utility.yul\":5608:5618   */\n      dup1\n        /* \"#utility.yul\":5604:5606   */\n      0x40\n        /* \"#utility.yul\":5597:5619   */\n      mstore\n        /* \"#utility.yul\":5387:5625   */\n      pop\n        /* \"#utility.yul\":5344:5625   */\n      pop\n      pop\n      jump\t// out\n        /* \"#utility.yul\":5631:5760   */\n    tag_191:\n        /* \"#utility.yul\":5665:5671   */\n      0x00\n        /* \"#utility.yul\":5692:5712   */\n      tag_295\n      tag_166\n      jump\t// in\n    tag_295:\n        /* \"#utility.yul\":5682:5712   */\n      swap1\n      pop\n        /* \"#utility.yul\":5721:5754   */\n      tag_296\n        /* \"#utility.yul\":5749:5753   */\n      dup3\n        /* \"#utility.yul\":5741:5747   */\n      dup3\n        /* \"#utility.yul\":5721:5754   */\n      tag_190\n      jump\t// in\n    tag_296:\n        /* \"#utility.yul\":5631:5760   */\n      swap2\n      swap1\n      pop\n      jump\t// out\n        /* \"#utility.yul\":5766:6074   */\n    tag_192:\n        /* \"#utility.yul\":5828:5832   */\n      0x00\n        /* \"#utility.yul\":5918:5936   */\n      0xffffffffffffffff\n        /* \"#utility.yul\":5910:5916   */\n      dup3\n        /* \"#utility.yul\":5907:5937   */\n      gt\n        /* \"#utility.yul\":5904:5960   */\n      iszero\n      tag_298\n      jumpi\n        /* \"#utility.yul\":5940:5958   */\n      tag_299\n      tag_189\n      jump\t// in\n    tag_299:\n        /* \"#utility.yul\":5904:5960   */\n    tag_298:\n        /* \"#utility.yul\":5978:6007   */\n      tag_300\n        /* \"#utility.yul\":6000:6006   */\n      dup3\n        /* \"#utility.yul\":5978:6007   */\n      tag_188\n      jump\t// in\n    tag_300:\n        /* \"#utility.yul\":5970:6007   */\n      swap1\n      pop\n        /* \"#utility.yul\":6062:6066   */\n      0x20\n        /* \"#utility.yul\":6056:6060   */\n      dup2\n        /* \"#utility.yul\":6052:6067   */\n      add\n        /* \"#utility.yul\":6044:6067   */\n      swap1\n      pop\n        /* \"#utility.yul\":5766:6074   */\n      swap2\n      swap1\n      pop\n      jump\t// out\n        /* \"#utility.yul\":6080:6226   */\n    tag_193:\n        /* \"#utility.yul\":6177:6183   */\n      dup3\n        /* \"#utility.yul\":6172:6175   */\n      dup2\n        /* \"#utility.yul\":6167:6170   */\n      dup4\n        /* \"#utility.yul\":6154:6184   */\n      calldatacopy\n        /* \"#utility.yul\":6218:6219   */\n      0x00\n        /* \"#utility.yul\":6209:6215   */\n      dup4\n        /* \"#utility.yul\":6204:6207   */\n      dup4\n        /* \"#utility.yul\":6200:6216   */\n      add\n        /* \"#utility.yul\":6193:6220   */\n      mstore\n        /* \"#utility.yul\":6080:6226   */\n      pop\n      pop\n      pop\n      jump\t// out\n        /* \"#utility.yul\":6232:6657   */\n    tag_194:\n        /* \"#utility.yul\":6310:6315   */\n      0x00\n        /* \"#utility.yul\":6335:6401   */\n      tag_303\n        /* \"#utility.yul\":6351:6400   */\n      tag_304\n        /* \"#utility.yul\":6393:6399   */\n      dup5\n        /* \"#utility.yul\":6351:6400   */\n      tag_192\n      jump\t// in\n    tag_304:\n        /* \"#utility.yul\":6335:6401   */\n      tag_191\n      jump\t// in\n    tag_303:\n        /* \"#utility.yul\":6326:6401   */\n      swap1\n      pop\n        /* \"#utility.yul\":6424:6430   */\n      dup3\n        /* \"#utility.yul\":6417:6422   */\n      dup2\n        /* \"#utility.yul\":6410:6431   */\n      mstore\n        /* \"#utility.yul\":6462:6466   */\n      0x20\n        /* \"#utility.yul\":6455:6460   */\n      dup2\n        /* \"#utility.yul\":6451:6467   */\n      add\n        /* \"#utility.yul\":6500:6503   */\n      dup5\n        /* \"#utility.yul\":6491:6497   */\n      dup5\n        /* \"#utility.yul\":6486:6489   */\n      dup5\n        /* \"#utility.yul\":6482:6498   */\n      add\n        /* \"#utility.yul\":6479:6504   */\n      gt\n        /* \"#utility.yul\":6476:6588   */\n      iszero\n      tag_305\n      jumpi\n        /* \"#utility.yul\":6507:6586   */\n      tag_306\n      tag_187\n      jump\t// in\n    tag_306:\n        /* \"#utility.yul\":6476:6588   */\n    tag_305:\n        /* \"#utility.yul\":6597:6651   */\n      tag_307\n        /* \"#utility.yul\":6644:6650   */\n      dup5\n        /* \"#utility.yul\":6639:6642   */\n      dup3\n        /* \"#utility.yul\":6634:6637   */\n      dup6\n        /* \"#utility.yul\":6597:6651   */\n      tag_193\n      jump\t// in\n    tag_307:\n        /* \"#utility.yul\":6316:6657   */\n      pop\n        /* \"#utility.yul\":6232:6657   */\n      swap4\n      swap3\n      pop\n      pop\n      pop\n      jump\t// out\n        /* \"#utility.yul\":6677:7017   */\n    tag_195:\n        /* \"#utility.yul\":6733:6738   */\n      0x00\n        /* \"#utility.yul\":6782:6785   */\n      dup3\n        /* \"#utility.yul\":6775:6779   */\n      0x1f\n        /* \"#utility.yul\":6767:6773   */\n      dup4\n        /* \"#utility.yul\":6763:6780   */\n      add\n        /* \"#utility.yul\":6759:6786   */\n      slt\n        /* \"#utility.yul\":6749:6871   */\n      tag_309\n      jumpi\n        /* \"#utility.yul\":6790:6869   */\n      tag_310\n      tag_186\n      jump\t// in\n    tag_310:\n        /* \"#utility.yul\":6749:6871   */\n    tag_309:\n        /* \"#utility.yul\":6907:6913   */\n      dup2\n        /* \"#utility.yul\":6894:6914   */\n      calldataload\n        /* \"#utility.yul\":6932:7011   */\n      tag_311\n        /* \"#utility.yul\":7007:7010   */\n      dup5\n        /* \"#utility.yul\":6999:7005   */\n      dup3\n        /* \"#utility.yul\":6992:6996   */\n      0x20\n        /* \"#utility.yul\":6984:6990   */\n      dup7\n        /* \"#utility.yul\":6980:6997   */\n      add\n        /* \"#utility.yul\":6932:7011   */\n      tag_194\n      jump\t// in\n    tag_311:\n        /* \"#utility.yul\":6923:7011   */\n      swap2\n      pop\n        /* \"#utility.yul\":6739:7017   */\n      pop\n        /* \"#utility.yul\":6677:7017   */\n      swap3\n      swap2\n      pop\n      pop\n      jump\t// out\n        /* \"#utility.yul\":7023:7968   */\n    tag_41:\n        /* \"#utility.yul\":7119:7125   */\n      0x00\n        /* \"#utility.yul\":7127:7133   */\n      dup1\n        /* \"#utility.yul\":7135:7141   */\n      0x00\n        /* \"#utility.yul\":7143:7149   */\n      dup1\n        /* \"#utility.yul\":7192:7195   */\n      0x80\n        /* \"#utility.yul\":7180:7189   */\n      dup6\n        /* \"#utility.yul\":7171:7178   */\n      dup8\n        /* \"#utility.yul\":7167:7190   */\n      sub\n        /* \"#utility.yul\":7163:7196   */\n      slt\n        /* \"#utility.yul\":7160:7280   */\n      iszero\n      tag_313\n      jumpi\n        /* \"#utility.yul\":7199:7278   */\n      tag_314\n      tag_167\n      jump\t// in\n    tag_314:\n        /* \"#utility.yul\":7160:7280   */\n    tag_313:\n        /* \"#utility.yul\":7319:7320   */\n      0x00\n        /* \"#utility.yul\":7344:7397   */\n      tag_315\n        /* \"#utility.yul\":7389:7396   */\n      dup8\n        /* \"#utility.yul\":7380:7386   */\n      dup3\n        /* \"#utility.yul\":7369:7378   */\n      dup9\n        /* \"#utility.yul\":7365:7387   */\n      add\n        /* \"#utility.yul\":7344:7397   */\n      tag_172\n      jump\t// in\n    tag_315:\n        /* \"#utility.yul\":7334:7397   */\n      swap5\n      pop\n        /* \"#utility.yul\":7290:7407   */\n      pop\n        /* \"#utility.yul\":7474:7476   */\n      0x20\n        /* \"#utility.yul\":7463:7472   */\n      dup6\n        /* \"#utility.yul\":7459:7477   */\n      add\n        /* \"#utility.yul\":7446:7478   */\n      calldataload\n        /* \"#utility.yul\":7505:7523   */\n      0xffffffffffffffff\n        /* \"#utility.yul\":7497:7503   */\n      dup2\n        /* \"#utility.yul\":7494:7524   */\n      gt\n        /* \"#utility.yul\":7491:7608   */\n      iszero\n      tag_316\n      jumpi\n        /* \"#utility.yul\":7527:7606   */\n      tag_317\n      tag_168\n      jump\t// in\n    tag_317:\n        /* \"#utility.yul\":7491:7608   */\n    tag_316:\n        /* \"#utility.yul\":7632:7695   */\n      tag_318\n        /* \"#utility.yul\":7687:7694   */\n      dup8\n        /* \"#utility.yul\":7678:7684   */\n      dup3\n        /* \"#utility.yul\":7667:7676   */\n      dup9\n        /* \"#utility.yul\":7663:7685   */\n      add\n        /* \"#utility.yul\":7632:7695   */\n      tag_195\n      jump\t// in\n    tag_318:\n        /* \"#utility.yul\":7622:7695   */\n      swap4\n      pop\n        /* \"#utility.yul\":7417:7705   */\n      pop\n        /* \"#utility.yul\":7744:7746   */\n      0x40\n        /* \"#utility.yul\":7770:7823   */\n      tag_319\n        /* \"#utility.yul\":7815:7822   */\n      dup8\n        /* \"#utility.yul\":7806:7812   */\n      dup3\n        /* \"#utility.yul\":7795:7804   */\n      dup9\n        /* \"#utility.yul\":7791:7813   */\n      add\n        /* \"#utility.yul\":7770:7823   */\n      tag_175\n      jump\t// in\n    tag_319:\n        /* \"#utility.yul\":7760:7823   */\n      swap3\n      pop\n        /* \"#utility.yul\":7715:7833   */\n      pop\n        /* \"#utility.yul\":7872:7874   */\n      0x60\n        /* \"#utility.yul\":7898:7951   */\n      tag_320\n        /* \"#utility.yul\":7943:7950   */\n      dup8\n        /* \"#utility.yul\":7934:7940   */\n      dup3\n        /* \"#utility.yul\":7923:7932   */\n      dup9\n        /* \"#utility.yul\":7919:7941   */\n      add\n        /* \"#utility.yul\":7898:7951   */\n      tag_175\n      jump\t// in\n    tag_320:\n        /* \"#utility.yul\":7888:7951   */\n      swap2\n      pop\n        /* \"#utility.yul\":7843:7961   */\n      pop\n        /* \"#utility.yul\":7023:7968   */\n      swap3\n      swap6\n      swap2\n      swap5\n      pop\n      swap3\n      pop\n      jump\t// out\n        /* \"#utility.yul\":7974:8073   */\n    tag_196:\n        /* \"#utility.yul\":8026:8032   */\n      0x00\n        /* \"#utility.yul\":8060:8065   */\n      dup2\n        /* \"#utility.yul\":8054:8066   */\n      mload\n        /* \"#utility.yul\":8044:8066   */\n      swap1\n      pop\n        /* \"#utility.yul\":7974:8073   */\n      swap2\n      swap1\n      pop\n      jump\t// out\n        /* \"#utility.yul\":8079:8248   */\n    tag_197:\n        /* \"#utility.yul\":8163:8174   */\n      0x00\n        /* \"#utility.yul\":8197:8203   */\n      dup3\n        /* \"#utility.yul\":8192:8195   */\n      dup3\n        /* \"#utility.yul\":8185:8204   */\n      mstore\n        /* \"#utility.yul\":8237:8241   */\n      0x20\n        /* \"#utility.yul\":8232:8235   */\n      dup3\n        /* \"#utility.yul\":8228:8242   */\n      add\n        /* \"#utility.yul\":8213:8242   */\n      swap1\n      pop\n        /* \"#utility.yul\":8079:8248   */\n      swap3\n      swap2\n      pop\n      pop\n      jump\t// out\n        /* \"#utility.yul\":8254:8500   */\n    tag_198:\n        /* \"#utility.yul\":8335:8336   */\n      0x00\n        /* \"#utility.yul\":8345:8458   */\n    tag_324:\n        /* \"#utility.yul\":8359:8365   */\n      dup4\n        /* \"#utility.yul\":8356:8357   */\n      dup2\n        /* \"#utility.yul\":8353:8366   */\n      lt\n        /* \"#utility.yul\":8345:8458   */\n      iszero\n      tag_326\n      jumpi\n        /* \"#utility.yul\":8444:8445   */\n      dup1\n        /* \"#utility.yul\":8439:8442   */\n      dup3\n        /* \"#utility.yul\":8435:8446   */\n      add\n        /* \"#utility.yul\":8429:8447   */\n      mload\n        /* \"#utility.yul\":8425:8426   */\n      dup2\n        /* \"#utility.yul\":8420:8423   */\n      dup5\n        /* \"#utility.yul\":8416:8427   */\n      add\n        /* \"#utility.yul\":8409:8448   */\n      mstore\n        /* \"#utility.yul\":8381:8383   */\n      0x20\n        /* \"#utility.yul\":8378:8379   */\n      dup2\n        /* \"#utility.yul\":8374:8384   */\n      add\n        /* \"#utility.yul\":8369:8384   */\n      swap1\n      pop\n        /* \"#utility.yul\":8345:8458   */\n      jump(tag_324)\n    tag_326:\n        /* \"#utility.yul\":8492:8493   */\n      0x00\n        /* \"#utility.yul\":8483:8489   */\n      dup5\n        /* \"#utility.yul\":8478:8481   */\n      dup5\n        /* \"#utility.yul\":8474:8490   */\n      add\n        /* \"#utility.yul\":8467:8494   */\n      mstore\n        /* \"#utility.yul\":8316:8500   */\n      pop\n        /* \"#utility.yul\":8254:8500   */\n      pop\n      pop\n      pop\n      jump\t// out\n        /* \"#utility.yul\":8506:8883   */\n    tag_199:\n        /* \"#utility.yul\":8594:8597   */\n      0x00\n        /* \"#utility.yul\":8622:8661   */\n      tag_328\n        /* \"#utility.yul\":8655:8660   */\n      dup3\n        /* \"#utility.yul\":8622:8661   */\n      tag_196\n      jump\t// in\n    tag_328:\n        /* \"#utility.yul\":8677:8748   */\n      tag_329\n        /* \"#utility.yul\":8741:8747   */\n      dup2\n        /* \"#utility.yul\":8736:8739   */\n      dup6\n        /* \"#utility.yul\":8677:8748   */\n      tag_197\n      jump\t// in\n    tag_329:\n        /* \"#utility.yul\":8670:8748   */\n      swap4\n      pop\n        /* \"#utility.yul\":8757:8822   */\n      tag_330\n        /* \"#utility.yul\":8815:8821   */\n      dup2\n        /* \"#utility.yul\":8810:8813   */\n      dup6\n        /* \"#utility.yul\":8803:8807   */\n      0x20\n        /* \"#utility.yul\":8796:8801   */\n      dup7\n        /* \"#utility.yul\":8792:8808   */\n      add\n        /* \"#utility.yul\":8757:8822   */\n      tag_198\n      jump\t// in\n    tag_330:\n        /* \"#utility.yul\":8847:8876   */\n      tag_331\n        /* \"#utility.yul\":8869:8875   */\n      dup2\n        /* \"#utility.yul\":8847:8876   */\n      tag_188\n      jump\t// in\n    tag_331:\n        /* \"#utility.yul\":8842:8845   */\n      dup5\n        /* \"#utility.yul\":8838:8877   */\n      add\n        /* \"#utility.yul\":8831:8877   */\n      swap2\n      pop\n        /* \"#utility.yul\":8598:8883   */\n      pop\n        /* \"#utility.yul\":8506:8883   */\n      swap3\n      swap2\n      pop\n      pop\n      jump\t// out\n        /* \"#utility.yul\":8889:9533   */\n    tag_44:\n        /* \"#utility.yul\":9086:9090   */\n      0x00\n        /* \"#utility.yul\":9124:9127   */\n      0x80\n        /* \"#utility.yul\":9113:9122   */\n      dup3\n        /* \"#utility.yul\":9109:9128   */\n      add\n        /* \"#utility.yul\":9101:9128   */\n      swap1\n      pop\n        /* \"#utility.yul\":9138:9209   */\n      tag_333\n        /* \"#utility.yul\":9206:9207   */\n      0x00\n        /* \"#utility.yul\":9195:9204   */\n      dup4\n        /* \"#utility.yul\":9191:9208   */\n      add\n        /* \"#utility.yul\":9182:9188   */\n      dup8\n        /* \"#utility.yul\":9138:9209   */\n      tag_185\n      jump\t// in\n    tag_333:\n        /* \"#utility.yul\":9256:9265   */\n      dup2\n        /* \"#utility.yul\":9250:9254   */\n      dup2\n        /* \"#utility.yul\":9246:9266   */\n      sub\n        /* \"#utility.yul\":9241:9243   */\n      0x20\n        /* \"#utility.yul\":9230:9239   */\n      dup4\n        /* \"#utility.yul\":9226:9244   */\n      add\n        /* \"#utility.yul\":9219:9267   */\n      mstore\n        /* \"#utility.yul\":9284:9362   */\n      tag_334\n        /* \"#utility.yul\":9357:9361   */\n      dup2\n        /* \"#utility.yul\":9348:9354   */\n      dup7\n        /* \"#utility.yul\":9284:9362   */\n      tag_199\n      jump\t// in\n    tag_334:\n        /* \"#utility.yul\":9276:9362   */\n      swap1\n      pop\n        /* \"#utility.yul\":9372:9444   */\n      tag_335\n        /* \"#utility.yul\":9440:9442   */\n      0x40\n        /* \"#utility.yul\":9429:9438   */\n      dup4\n        /* \"#utility.yul\":9425:9443   */\n      add\n        /* \"#utility.yul\":9416:9422   */\n      dup6\n        /* \"#utility.yul\":9372:9444   */\n      tag_185\n      jump\t// in\n    tag_335:\n        /* \"#utility.yul\":9454:9526   */\n      tag_336\n        /* \"#utility.yul\":9522:9524   */\n      0x60\n        /* \"#utility.yul\":9511:9520   */\n      dup4\n        /* \"#utility.yul\":9507:9525   */\n      add\n        /* \"#utility.yul\":9498:9504   */\n      dup5\n        /* \"#utility.yul\":9454:9526   */\n      tag_185\n      jump\t// in\n    tag_336:\n        /* \"#utility.yul\":8889:9533   */\n      swap6\n      swap5\n      pop\n      pop\n      pop\n      pop\n      pop\n      jump\t// out\n        /* \"#utility.yul\":9539:10158   */\n    tag_47:\n        /* \"#utility.yul\":9616:9622   */\n      0x00\n        /* \"#utility.yul\":9624:9630   */\n      dup1\n        /* \"#utility.yul\":9632:9638   */\n      0x00\n        /* \"#utility.yul\":9681:9683   */\n      0x60\n        /* \"#utility.yul\":9669:9678   */\n      dup5\n        /* \"#utility.yul\":9660:9667   */\n      dup7\n        /* \"#utility.yul\":9656:9679   */\n      sub\n        /* \"#utility.yul\":9652:9684   */\n      slt\n        /* \"#utility.yul\":9649:9768   */\n      iszero\n      tag_338\n      jumpi\n        /* \"#utility.yul\":9687:9766   */\n      tag_339\n      tag_167\n      jump\t// in\n    tag_339:\n        /* \"#utility.yul\":9649:9768   */\n    tag_338:\n        /* \"#utility.yul\":9807:9808   */\n      0x00\n        /* \"#utility.yul\":9832:9885   */\n      tag_340\n        /* \"#utility.yul\":9877:9884   */\n      dup7\n        /* \"#utility.yul\":9868:9874   */\n      dup3\n        /* \"#utility.yul\":9857:9866   */\n      dup8\n        /* \"#utility.yul\":9853:9875   */\n      add\n        /* \"#utility.yul\":9832:9885   */\n      tag_172\n      jump\t// in\n    tag_340:\n        /* \"#utility.yul\":9822:9885   */\n      swap4\n      pop\n        /* \"#utility.yul\":9778:9895   */\n      pop\n        /* \"#utility.yul\":9934:9936   */\n      0x20\n        /* \"#utility.yul\":9960:10013   */\n      tag_341\n        /* \"#utility.yul\":10005:10012   */\n      dup7\n        /* \"#utility.yul\":9996:10002   */\n      dup3\n        /* \"#utility.yul\":9985:9994   */\n      dup8\n        /* \"#utility.yul\":9981:10003   */\n      add\n        /* \"#utility.yul\":9960:10013   */\n      tag_175\n      jump\t// in\n    tag_341:\n        /* \"#utility.yul\":9950:10013   */\n      swap3\n      pop\n        /* \"#utility.yul\":9905:10023   */\n      pop\n        /* \"#utility.yul\":10062:10064   */\n      0x40\n        /* \"#utility.yul\":10088:10141   */\n      tag_342\n        /* \"#utility.yul\":10133:10140   */\n      dup7\n        /* \"#utility.yul\":10124:10130   */\n      dup3\n        /* \"#utility.yul\":10113:10122   */\n      dup8\n        /* \"#utility.yul\":10109:10131   */\n      add\n        /* \"#utility.yul\":10088:10141   */\n      tag_175\n      jump\t// in\n    tag_342:\n        /* \"#utility.yul\":10078:10141   */\n      swap2\n      pop\n        /* \"#utility.yul\":10033:10151   */\n      pop\n        /* \"#utility.yul\":9539:10158   */\n      swap3\n      pop\n      swap3\n      pop\n      swap3\n      jump\t// out\n        /* \"#utility.yul\":10164:10477   */\n    tag_54:\n        /* \"#utility.yul\":10277:10281   */\n      0x00\n        /* \"#utility.yul\":10315:10317   */\n      0x20\n        /* \"#utility.yul\":10304:10313   */\n      dup3\n        /* \"#utility.yul\":10300:10318   */\n      add\n        /* \"#utility.yul\":10292:10318   */\n      swap1\n      pop\n        /* \"#utility.yul\":10364:10373   */\n      dup2\n        /* \"#utility.yul\":10358:10362   */\n      dup2\n        /* \"#utility.yul\":10354:10374   */\n      sub\n        /* \"#utility.yul\":10350:10351   */\n      0x00\n        /* \"#utility.yul\":10339:10348   */\n      dup4\n        /* \"#utility.yul\":10335:10352   */\n      add\n        /* \"#utility.yul\":10328:10375   */\n      mstore\n        /* \"#utility.yul\":10392:10470   */\n      tag_344\n        /* \"#utility.yul\":10465:10469   */\n      dup2\n        /* \"#utility.yul\":10456:10462   */\n      dup5\n        /* \"#utility.yul\":10392:10470   */\n      tag_199\n      jump\t// in\n    tag_344:\n        /* \"#utility.yul\":10384:10470   */\n      swap1\n      pop\n        /* \"#utility.yul\":10164:10477   */\n      swap3\n      swap2\n      pop\n      pop\n      jump\t// out\n        /* \"#utility.yul\":10483:10656   */\n    tag_200:\n        /* \"#utility.yul\":10623:10648   */\n      0x4944204d696c6b4261746368204e6f742056616c696421000000000000000000\n        /* \"#utility.yul\":10619:10620   */\n      0x00\n        /* \"#utility.yul\":10611:10617   */\n      dup3\n        /* \"#utility.yul\":10607:10621   */\n      add\n        /* \"#utility.yul\":10600:10649   */\n      mstore\n        /* \"#utility.yul\":10483:10656   */\n      pop\n      jump\t// out\n        /* \"#utility.yul\":10662:11028   */\n    tag_201:\n        /* \"#utility.yul\":10804:10807   */\n      0x00\n        /* \"#utility.yul\":10825:10892   */\n      tag_347\n        /* \"#utility.yul\":10889:10891   */\n      0x17\n        /* \"#utility.yul\":10884:10887   */\n      dup4\n        /* \"#utility.yul\":10825:10892   */\n      tag_197\n      jump\t// in\n    tag_347:\n        /* \"#utility.yul\":10818:10892   */\n      swap2\n      pop\n        /* \"#utility.yul\":10901:10994   */\n      tag_348\n        /* \"#utility.yul\":10990:10993   */\n      dup3\n        /* \"#utility.yul\":10901:10994   */\n      tag_200\n      jump\t// in\n    tag_348:\n        /* \"#utility.yul\":11019:11021   */\n      0x20\n        /* \"#utility.yul\":11014:11017   */\n      dup3\n        /* \"#utility.yul\":11010:11022   */\n      add\n        /* \"#utility.yul\":11003:11022   */\n      swap1\n      pop\n        /* \"#utility.yul\":10662:11028   */\n      swap2\n      swap1\n      pop\n      jump\t// out\n        /* \"#utility.yul\":11034:11453   */\n    tag_70:\n        /* \"#utility.yul\":11200:11204   */\n      0x00\n        /* \"#utility.yul\":11238:11240   */\n      0x20\n        /* \"#utility.yul\":11227:11236   */\n      dup3\n        /* \"#utility.yul\":11223:11241   */\n      add\n        /* \"#utility.yul\":11215:11241   */\n      swap1\n      pop\n        /* \"#utility.yul\":11287:11296   */\n      dup2\n        /* \"#utility.yul\":11281:11285   */\n      dup2\n        /* \"#utility.yul\":11277:11297   */\n      sub\n        /* \"#utility.yul\":11273:11274   */\n      0x00\n        /* \"#utility.yul\":11262:11271   */\n      dup4\n        /* \"#utility.yul\":11258:11275   */\n      add\n        /* \"#utility.yul\":11251:11298   */\n      mstore\n        /* \"#utility.yul\":11315:11446   */\n      tag_350\n        /* \"#utility.yul\":11441:11445   */\n      dup2\n        /* \"#utility.yul\":11315:11446   */\n      tag_201\n      jump\t// in\n    tag_350:\n        /* \"#utility.yul\":11307:11446   */\n      swap1\n      pop\n        /* \"#utility.yul\":11034:11453   */\n      swap2\n      swap1\n      pop\n      jump\t// out\n        /* \"#utility.yul\":11459:11639   */\n    tag_202:\n        /* \"#utility.yul\":11507:11584   */\n      0x4e487b7100000000000000000000000000000000000000000000000000000000\n        /* \"#utility.yul\":11504:11505   */\n      0x00\n        /* \"#utility.yul\":11497:11585   */\n      mstore\n        /* \"#utility.yul\":11604:11608   */\n      0x22\n        /* \"#utility.yul\":11601:11602   */\n      0x04\n        /* \"#utility.yul\":11594:11609   */\n      mstore\n        /* \"#utility.yul\":11628:11632   */\n      0x24\n        /* \"#utility.yul\":11625:11626   */\n      0x00\n        /* \"#utility.yul\":11618:11633   */\n      revert\n        /* \"#utility.yul\":11645:11965   */\n    tag_76:\n        /* \"#utility.yul\":11689:11695   */\n      0x00\n        /* \"#utility.yul\":11726:11727   */\n      0x02\n        /* \"#utility.yul\":11720:11724   */\n      dup3\n        /* \"#utility.yul\":11716:11728   */\n      div\n        /* \"#utility.yul\":11706:11728   */\n      swap1\n      pop\n        /* \"#utility.yul\":11773:11774   */\n      0x01\n        /* \"#utility.yul\":11767:11771   */\n      dup3\n        /* \"#utility.yul\":11763:11775   */\n      and\n        /* \"#utility.yul\":11794:11812   */\n      dup1\n        /* \"#utility.yul\":11784:11865   */\n      tag_353\n      jumpi\n        /* \"#utility.yul\":11850:11854   */\n      0x7f\n        /* \"#utility.yul\":11842:11848   */\n      dup3\n        /* \"#utility.yul\":11838:11855   */\n      and\n        /* \"#utility.yul\":11828:11855   */\n      swap2\n      pop\n        /* \"#utility.yul\":11784:11865   */\n    tag_353:\n        /* \"#utility.yul\":11912:11914   */\n      0x20\n        /* \"#utility.yul\":11904:11910   */\n      dup3\n        /* \"#utility.yul\":11901:11915   */\n      lt\n        /* \"#utility.yul\":11881:11899   */\n      dup2\n        /* \"#utility.yul\":11878:11916   */\n      sub\n        /* \"#utility.yul\":11875:11959   */\n      tag_354\n      jumpi\n        /* \"#utility.yul\":11931:11949   */\n      tag_355\n      tag_202\n      jump\t// in\n    tag_355:\n        /* \"#utility.yul\":11875:11959   */\n    tag_354:\n        /* \"#utility.yul\":11696:11965   */\n      pop\n        /* \"#utility.yul\":11645:11965   */\n      swap2\n      swap1\n      pop\n      jump\t// out\n        /* \"#utility.yul\":11971:12119   */\n    tag_203:\n        /* \"#utility.yul\":12073:12084   */\n      0x00\n        /* \"#utility.yul\":12110:12113   */\n      dup2\n        /* \"#utility.yul\":12095:12113   */\n      swap1\n      pop\n        /* \"#utility.yul\":11971:12119   */\n      swap3\n      swap2\n      pop\n      pop\n      jump\t// out\n        /* \"#utility.yul\":12125:12515   */\n    tag_204:\n        /* \"#utility.yul\":12231:12234   */\n      0x00\n        /* \"#utility.yul\":12259:12298   */\n      tag_358\n        /* \"#utility.yul\":12292:12297   */\n      dup3\n        /* \"#utility.yul\":12259:12298   */\n      tag_196\n      jump\t// in\n    tag_358:\n        /* \"#utility.yul\":12314:12403   */\n      tag_359\n        /* \"#utility.yul\":12396:12402   */\n      dup2\n        /* \"#utility.yul\":12391:12394   */\n      dup6\n        /* \"#utility.yul\":12314:12403   */\n      tag_203\n      jump\t// in\n    tag_359:\n        /* \"#utility.yul\":12307:12403   */\n      swap4\n      pop\n        /* \"#utility.yul\":12412:12477   */\n      tag_360\n        /* \"#utility.yul\":12470:12476   */\n      dup2\n        /* \"#utility.yul\":12465:12468   */\n      dup6\n        /* \"#utility.yul\":12458:12462   */\n      0x20\n        /* \"#utility.yul\":12451:12456   */\n      dup7\n        /* \"#utility.yul\":12447:12463   */\n      add\n        /* \"#utility.yul\":12412:12477   */\n      tag_198\n      jump\t// in\n    tag_360:\n        /* \"#utility.yul\":12502:12508   */\n      dup1\n        /* \"#utility.yul\":12497:12500   */\n      dup5\n        /* \"#utility.yul\":12493:12509   */\n      add\n        /* \"#utility.yul\":12486:12509   */\n      swap2\n      pop\n        /* \"#utility.yul\":12235:12515   */\n      pop\n        /* \"#utility.yul\":12125:12515   */\n      swap3\n      swap2\n      pop\n      pop\n      jump\t// out\n        /* \"#utility.yul\":12521:12600   */\n    tag_205:\n        /* \"#utility.yul\":12560:12567   */\n      0x00\n        /* \"#utility.yul\":12589:12594   */\n      dup2\n        /* \"#utility.yul\":12578:12594   */\n      swap1\n      pop\n        /* \"#utility.yul\":12521:12600   */\n      swap2\n      swap1\n      pop\n      jump\t// out\n        /* \"#utility.yul\":12606:12763   */\n    tag_206:\n        /* \"#utility.yul\":12711:12756   */\n      tag_363\n        /* \"#utility.yul\":12731:12755   */\n      tag_364\n        /* \"#utility.yul\":12749:12754   */\n      dup3\n        /* \"#utility.yul\":12731:12755   */\n      tag_173\n      jump\t// in\n    tag_364:\n        /* \"#utility.yul\":12711:12756   */\n      tag_205\n      jump\t// in\n    tag_363:\n        /* \"#utility.yul\":12706:12709   */\n      dup3\n        /* \"#utility.yul\":12699:12757   */\n      mstore\n        /* \"#utility.yul\":12606:12763   */\n      pop\n      pop\n      jump\t// out\n        /* \"#utility.yul\":12769:12863   */\n    tag_207:\n        /* \"#utility.yul\":12802:12810   */\n      0x00\n        /* \"#utility.yul\":12850:12855   */\n      dup2\n        /* \"#utility.yul\":12846:12848   */\n      0x60\n        /* \"#utility.yul\":12842:12856   */\n      shl\n        /* \"#utility.yul\":12821:12856   */\n      swap1\n      pop\n        /* \"#utility.yul\":12769:12863   */\n      swap2\n      swap1\n      pop\n      jump\t// out\n        /* \"#utility.yul\":12869:12963   */\n    tag_208:\n        /* \"#utility.yul\":12908:12915   */\n      0x00\n        /* \"#utility.yul\":12937:12957   */\n      tag_367\n        /* \"#utility.yul\":12951:12956   */\n      dup3\n        /* \"#utility.yul\":12937:12957   */\n      tag_207\n      jump\t// in\n    tag_367:\n        /* \"#utility.yul\":12926:12957   */\n      swap1\n      pop\n        /* \"#utility.yul\":12869:12963   */\n      swap2\n      swap1\n      pop\n      jump\t// out\n        /* \"#utility.yul\":12969:13069   */\n    tag_209:\n        /* \"#utility.yul\":13008:13015   */\n      0x00\n        /* \"#utility.yul\":13037:13063   */\n      tag_369\n        /* \"#utility.yul\":13057:13062   */\n      dup3\n        /* \"#utility.yul\":13037:13063   */\n      tag_208\n      jump\t// in\n    tag_369:\n        /* \"#utility.yul\":13026:13063   */\n      swap1\n      pop\n        /* \"#utility.yul\":12969:13069   */\n      swap2\n      swap1\n      pop\n      jump\t// out\n        /* \"#utility.yul\":13075:13232   */\n    tag_210:\n        /* \"#utility.yul\":13180:13225   */\n      tag_371\n        /* \"#utility.yul\":13200:13224   */\n      tag_372\n        /* \"#utility.yul\":13218:13223   */\n      dup3\n        /* \"#utility.yul\":13200:13224   */\n      tag_170\n      jump\t// in\n    tag_372:\n        /* \"#utility.yul\":13180:13225   */\n      tag_209\n      jump\t// in\n    tag_371:\n        /* \"#utility.yul\":13175:13178   */\n      dup3\n        /* \"#utility.yul\":13168:13226   */\n      mstore\n        /* \"#utility.yul\":13075:13232   */\n      pop\n      pop\n      jump\t// out\n        /* \"#utility.yul\":13238:14077   */\n    tag_92:\n        /* \"#utility.yul\":13482:13485   */\n      0x00\n        /* \"#utility.yul\":13504:13599   */\n      tag_374\n        /* \"#utility.yul\":13595:13598   */\n      dup3\n        /* \"#utility.yul\":13586:13592   */\n      dup9\n        /* \"#utility.yul\":13504:13599   */\n      tag_204\n      jump\t// in\n    tag_374:\n        /* \"#utility.yul\":13497:13599   */\n      swap2\n      pop\n        /* \"#utility.yul\":13609:13684   */\n      tag_375\n        /* \"#utility.yul\":13680:13683   */\n      dup3\n        /* \"#utility.yul\":13671:13677   */\n      dup8\n        /* \"#utility.yul\":13609:13684   */\n      tag_206\n      jump\t// in\n    tag_375:\n        /* \"#utility.yul\":13709:13711   */\n      0x20\n        /* \"#utility.yul\":13704:13707   */\n      dup3\n        /* \"#utility.yul\":13700:13712   */\n      add\n        /* \"#utility.yul\":13693:13712   */\n      swap2\n      pop\n        /* \"#utility.yul\":13722:13797   */\n      tag_376\n        /* \"#utility.yul\":13793:13796   */\n      dup3\n        /* \"#utility.yul\":13784:13790   */\n      dup7\n        /* \"#utility.yul\":13722:13797   */\n      tag_206\n      jump\t// in\n    tag_376:\n        /* \"#utility.yul\":13822:13824   */\n      0x20\n        /* \"#utility.yul\":13817:13820   */\n      dup3\n        /* \"#utility.yul\":13813:13825   */\n      add\n        /* \"#utility.yul\":13806:13825   */\n      swap2\n      pop\n        /* \"#utility.yul\":13835:13910   */\n      tag_377\n        /* \"#utility.yul\":13906:13909   */\n      dup3\n        /* \"#utility.yul\":13897:13903   */\n      dup6\n        /* \"#utility.yul\":13835:13910   */\n      tag_210\n      jump\t// in\n    tag_377:\n        /* \"#utility.yul\":13935:13937   */\n      0x14\n        /* \"#utility.yul\":13930:13933   */\n      dup3\n        /* \"#utility.yul\":13926:13938   */\n      add\n        /* \"#utility.yul\":13919:13938   */\n      swap2\n      pop\n        /* \"#utility.yul\":13948:14023   */\n      tag_378\n        /* \"#utility.yul\":14019:14022   */\n      dup3\n        /* \"#utility.yul\":14010:14016   */\n      dup5\n        /* \"#utility.yul\":13948:14023   */\n      tag_206\n      jump\t// in\n    tag_378:\n        /* \"#utility.yul\":14048:14050   */\n      0x20\n        /* \"#utility.yul\":14043:14046   */\n      dup3\n        /* \"#utility.yul\":14039:14051   */\n      add\n        /* \"#utility.yul\":14032:14051   */\n      swap2\n      pop\n        /* \"#utility.yul\":14068:14071   */\n      dup2\n        /* \"#utility.yul\":14061:14071   */\n      swap1\n      pop\n        /* \"#utility.yul\":13238:14077   */\n      swap7\n      swap6\n      pop\n      pop\n      pop\n      pop\n      pop\n      pop\n      jump\t// out\n        /* \"#utility.yul\":14083:14224   */\n    tag_211:\n        /* \"#utility.yul\":14132:14136   */\n      0x00\n        /* \"#utility.yul\":14155:14158   */\n      dup2\n        /* \"#utility.yul\":14147:14158   */\n      swap1\n      pop\n        /* \"#utility.yul\":14178:14181   */\n      dup2\n        /* \"#utility.yul\":14175:14176   */\n      0x00\n        /* \"#utility.yul\":14168:14182   */\n      mstore\n        /* \"#utility.yul\":14212:14216   */\n      0x20\n        /* \"#utility.yul\":14209:14210   */\n      0x00\n        /* \"#utility.yul\":14199:14217   */\n      keccak256\n        /* \"#utility.yul\":14191:14217   */\n      swap1\n      pop\n        /* \"#utility.yul\":14083:14224   */\n      swap2\n      swap1\n      pop\n      jump\t// out\n        /* \"#utility.yul\":14230:14323   */\n    tag_212:\n        /* \"#utility.yul\":14267:14273   */\n      0x00\n        /* \"#utility.yul\":14314:14316   */\n      0x20\n        /* \"#utility.yul\":14309:14311   */\n      0x1f\n        /* \"#utility.yul\":14302:14307   */\n      dup4\n        /* \"#utility.yul\":14298:14312   */\n      add\n        /* \"#utility.yul\":14294:14317   */\n      div\n        /* \"#utility.yul\":14284:14317   */\n      swap1\n      pop\n        /* \"#utility.yul\":14230:14323   */\n      swap2\n      swap1\n      pop\n      jump\t// out\n        /* \"#utility.yul\":14329:14436   */\n    tag_213:\n        /* \"#utility.yul\":14373:14381   */\n      0x00\n        /* \"#utility.yul\":14423:14428   */\n      dup3\n        /* \"#utility.yul\":14417:14421   */\n      dup3\n        /* \"#utility.yul\":14413:14429   */\n      shl\n        /* \"#utility.yul\":14392:14429   */\n      swap1\n      pop\n        /* \"#utility.yul\":14329:14436   */\n      swap3\n      swap2\n      pop\n      pop\n      jump\t// out\n        /* \"#utility.yul\":14442:14835   */\n    tag_214:\n        /* \"#utility.yul\":14511:14517   */\n      0x00\n        /* \"#utility.yul\":14561:14562   */\n      0x08\n        /* \"#utility.yul\":14549:14559   */\n      dup4\n        /* \"#utility.yul\":14545:14563   */\n      mul\n        /* \"#utility.yul\":14584:14681   */\n      tag_383\n        /* \"#utility.yul\":14614:14680   */\n      0xffffffffffffffffffffffffffffffffffffffffffffffffffffffffffffffff\n        /* \"#utility.yul\":14603:14612   */\n      dup3\n        /* \"#utility.yul\":14584:14681   */\n      tag_213\n      jump\t// in\n    tag_383:\n        /* \"#utility.yul\":14702:14741   */\n      tag_384\n        /* \"#utility.yul\":14732:14740   */\n      dup7\n        /* \"#utility.yul\":14721:14730   */\n      dup4\n        /* \"#utility.yul\":14702:14741   */\n      tag_213\n      jump\t// in\n    tag_384:\n        /* \"#utility.yul\":14690:14741   */\n      swap6\n      pop\n        /* \"#utility.yul\":14774:14778   */\n      dup1\n        /* \"#utility.yul\":14770:14779   */\n      not\n        /* \"#utility.yul\":14763:14768   */\n      dup5\n        /* \"#utility.yul\":14759:14780   */\n      and\n        /* \"#utility.yul\":14750:14780   */\n      swap4\n      pop\n        /* \"#utility.yul\":14823:14827   */\n      dup1\n        /* \"#utility.yul\":14813:14821   */\n      dup7\n        /* \"#utility.yul\":14809:14828   */\n      and\n        /* \"#utility.yul\":14802:14807   */\n      dup5\n        /* \"#utility.yul\":14799:14829   */\n      or\n        /* \"#utility.yul\":14789:14829   */\n      swap3\n      pop\n        /* \"#utility.yul\":14518:14835   */\n      pop\n      pop\n        /* \"#utility.yul\":14442:14835   */\n      swap4\n      swap3\n      pop\n      pop\n      pop\n      jump\t// out\n        /* \"#utility.yul\":14841:14901   */\n    tag_215:\n        /* \"#utility.yul\":14869:14872   */\n      0x00\n        /* \"#utility.yul\":14890:14895   */\n      dup2\n        /* \"#utility.yul\":14883:14895   */\n      swap1\n      pop\n        /* \"#utility.yul\":14841:14901   */\n      swap2\n      swap1\n      pop\n      jump\t// out\n        /* \"#utility.yul\":14907:15049   */\n    tag_216:\n        /* \"#utility.yul\":14957:14966   */\n      0x00\n        /* \"#utility.yul\":14990:15043   */\n      tag_387\n        /* \"#utility.yul\":15008:15042   */\n      tag_388\n        /* \"#utility.yul\":15017:15041   */\n      tag_389\n        /* \"#utility.yul\":15035:15040   */\n      dup5\n        /* \"#utility.yul\":15017:15041   */\n      tag_173\n      jump\t// in\n    tag_389:\n        /* \"#utility.yul\":15008:15042   */\n      tag_215\n      jump\t// in\n    tag_388:\n        /* \"#utility.yul\":14990:15043   */\n      tag_173\n      jump\t// in\n    tag_387:\n        /* \"#utility.yul\":14977:15043   */\n      swap1\n      pop\n        /* \"#utility.yul\":14907:15049   */\n      swap2\n      swap1\n      pop\n      jump\t// out\n        /* \"#utility.yul\":15055:15130   */\n    tag_217:\n        /* \"#utility.yul\":15098:15101   */\n      0x00\n        /* \"#utility.yul\":15119:15124   */\n      dup2\n        /* \"#utility.yul\":15112:15124   */\n      swap1\n      pop\n        /* \"#utility.yul\":15055:15130   */\n      swap2\n      swap1\n      pop\n      jump\t// out\n        /* \"#utility.yul\":15136:15405   */\n    tag_218:\n        /* \"#utility.yul\":15246:15285   */\n      tag_392\n        /* \"#utility.yul\":15277:15284   */\n      dup4\n        /* \"#utility.yul\":15246:15285   */\n      tag_216\n      jump\t// in\n    tag_392:\n        /* \"#utility.yul\":15307:15398   */\n      tag_393\n        /* \"#utility.yul\":15356:15397   */\n      tag_394\n        /* \"#utility.yul\":15380:15396   */\n      dup3\n        /* \"#utility.yul\":15356:15397   */\n      tag_217\n      jump\t// in\n    tag_394:\n        /* \"#utility.yul\":15348:15354   */\n      dup5\n        /* \"#utility.yul\":15341:15345   */\n      dup5\n        /* \"#utility.yul\":15335:15346   */\n      sload\n        /* \"#utility.yul\":15307:15398   */\n      tag_214\n      jump\t// in\n    tag_393:\n        /* \"#utility.yul\":15301:15305   */\n      dup3\n        /* \"#utility.yul\":15294:15399   */\n      sstore\n        /* \"#utility.yul\":15212:15405   */\n      pop\n        /* \"#utility.yul\":15136:15405   */\n      pop\n      pop\n      pop\n      jump\t// out\n        /* \"#utility.yul\":15411:15484   */\n    tag_219:\n        /* \"#utility.yul\":15456:15459   */\n      0x00\n        /* \"#utility.yul\":15411:15484   */\n      swap1\n      jump\t// out\n        /* \"#utility.yul\":15490:15679   */\n    tag_220:\n        /* \"#utility.yul\":15567:15599   */\n      tag_397\n      tag_219\n      jump\t// in\n    tag_397:\n        /* \"#utility.yul\":15608:15673   */\n      tag_398\n        /* \"#utility.yul\":15666:15672   */\n      dup2\n        /* \"#utility.yul\":15658:15664   */\n      dup5\n        /* \"#utility.yul\":15652:15656   */\n      dup5\n        /* \"#utility.yul\":15608:15673   */\n      tag_218\n      jump\t// in\n    tag_398:\n        /* \"#utility.yul\":15543:15679   */\n      pop\n        /* \"#utility.yul\":15490:15679   */\n      pop\n      pop\n      jump\t// out\n        /* \"#utility.yul\":15685:15871   */\n    tag_221:\n        /* \"#utility.yul\":15745:15865   */\n    tag_400:\n        /* \"#utility.yul\":15762:15765   */\n      dup2\n        /* \"#utility.yul\":15755:15760   */\n      dup2\n        /* \"#utility.yul\":15752:15766   */\n      lt\n        /* \"#utility.yul\":15745:15865   */\n      iszero\n      tag_402\n      jumpi\n        /* \"#utility.yul\":15816:15855   */\n      tag_403\n        /* \"#utility.yul\":15853:15854   */\n      0x00\n        /* \"#utility.yul\":15846:15851   */\n      dup3\n        /* \"#utility.yul\":15816:15855   */\n      tag_220\n      jump\t// in\n    tag_403:\n        /* \"#utility.yul\":15789:15790   */\n      0x01\n        /* \"#utility.yul\":15782:15787   */\n      dup2\n        /* \"#utility.yul\":15778:15791   */\n      add\n        /* \"#utility.yul\":15769:15791   */\n      swap1\n      pop\n        /* \"#utility.yul\":15745:15865   */\n      jump(tag_400)\n    tag_402:\n        /* \"#utility.yul\":15685:15871   */\n      pop\n      pop\n      jump\t// out\n        /* \"#utility.yul\":15877:16420   */\n    tag_222:\n        /* \"#utility.yul\":15978:15980   */\n      0x1f\n        /* \"#utility.yul\":15973:15976   */\n      dup3\n        /* \"#utility.yul\":15970:15981   */\n      gt\n        /* \"#utility.yul\":15967:16413   */\n      iszero\n      tag_405\n      jumpi\n        /* \"#utility.yul\":16012:16050   */\n      tag_406\n        /* \"#utility.yul\":16044:16049   */\n      dup2\n        /* \"#utility.yul\":16012:16050   */\n      tag_211\n      jump\t// in\n    tag_406:\n        /* \"#utility.yul\":16096:16125   */\n      tag_407\n        /* \"#utility.yul\":16114:16124   */\n      dup5\n        /* \"#utility.yul\":16096:16125   */\n      tag_212\n      jump\t// in\n    tag_407:\n        /* \"#utility.yul\":16086:16094   */\n      dup2\n        /* \"#utility.yul\":16082:16126   */\n      add\n        /* \"#utility.yul\":16279:16281   */\n      0x20\n        /* \"#utility.yul\":16267:16277   */\n      dup6\n        /* \"#utility.yul\":16264:16282   */\n      lt\n        /* \"#utility.yul\":16261:16310   */\n      iszero\n      tag_408\n      jumpi\n        /* \"#utility.yul\":16300:16308   */\n      dup2\n        /* \"#utility.yul\":16285:16308   */\n      swap1\n      pop\n        /* \"#utility.yul\":16261:16310   */\n    tag_408:\n        /* \"#utility.yul\":16323:16403   */\n      tag_409\n        /* \"#utility.yul\":16379:16401   */\n      tag_410\n        /* \"#utility.yul\":16397:16400   */\n      dup6\n        /* \"#utility.yul\":16379:16401   */\n      tag_212\n      jump\t// in\n    tag_410:\n        /* \"#utility.yul\":16369:16377   */\n      dup4\n        /* \"#utility.yul\":16365:16402   */\n      add\n        /* \"#utility.yul\":16352:16363   */\n      dup3\n        /* \"#utility.yul\":16323:16403   */\n      tag_221\n      jump\t// in\n    tag_409:\n        /* \"#utility.yul\":15982:16413   */\n      pop\n      pop\n        /* \"#utility.yul\":15967:16413   */\n    tag_405:\n        /* \"#utility.yul\":15877:16420   */\n      pop\n      pop\n      pop\n      jump\t// out\n        /* \"#utility.yul\":16426:16543   */\n    tag_223:\n        /* \"#utility.yul\":16480:16488   */\n      0x00\n        /* \"#utility.yul\":16530:16535   */\n      dup3\n        /* \"#utility.yul\":16524:16528   */\n      dup3\n        /* \"#utility.yul\":16520:16536   */\n      shr\n        /* \"#utility.yul\":16499:16536   */\n      swap1\n      pop\n        /* \"#utility.yul\":16426:16543   */\n      swap3\n      swap2\n      pop\n      pop\n      jump\t// out\n        /* \"#utility.yul\":16549:16718   */\n    tag_224:\n        /* \"#utility.yul\":16593:16599   */\n      0x00\n        /* \"#utility.yul\":16626:16677   */\n      tag_413\n        /* \"#utility.yul\":16674:16675   */\n      0x00\n        /* \"#utility.yul\":16670:16676   */\n      not\n        /* \"#utility.yul\":16662:16667   */\n      dup5\n        /* \"#utility.yul\":16659:16660   */\n      0x08\n        /* \"#utility.yul\":16655:16668   */\n      mul\n        /* \"#utility.yul\":16626:16677   */\n      tag_223\n      jump\t// in\n    tag_413:\n        /* \"#utility.yul\":16622:16678   */\n      not\n        /* \"#utility.yul\":16707:16711   */\n      dup1\n        /* \"#utility.yul\":16701:16705   */\n      dup4\n        /* \"#utility.yul\":16697:16712   */\n      and\n        /* \"#utility.yul\":16687:16712   */\n      swap2\n      pop\n        /* \"#utility.yul\":16600:16718   */\n      pop\n        /* \"#utility.yul\":16549:16718   */\n      swap3\n      swap2\n      pop\n      pop\n      jump\t// out\n        /* \"#utility.yul\":16723:17018   */\n    tag_225:\n        /* \"#utility.yul\":16799:16803   */\n      0x00\n        /* \"#utility.yul\":16945:16974   */\n      tag_415\n        /* \"#utility.yul\":16970:16973   */\n      dup4\n        /* \"#utility.yul\":16964:16968   */\n      dup4\n        /* \"#utility.yul\":16945:16974   */\n      tag_224\n      jump\t// in\n    tag_415:\n        /* \"#utility.yul\":16937:16974   */\n      swap2\n      pop\n        /* \"#utility.yul\":17007:17010   */\n      dup3\n        /* \"#utility.yul\":17004:17005   */\n      0x02\n        /* \"#utility.yul\":17000:17011   */\n      mul\n        /* \"#utility.yul\":16994:16998   */\n      dup3\n        /* \"#utility.yul\":16991:17012   */\n      or\n        /* \"#utility.yul\":16983:17012   */\n      swap1\n      pop\n        /* \"#utility.yul\":16723:17018   */\n      swap3\n      swap2\n      pop\n      pop\n      jump\t// out\n        /* \"#utility.yul\":17023:18418   */\n    tag_96:\n        /* \"#utility.yul\":17140:17177   */\n      tag_417\n        /* \"#utility.yul\":17173:17176   */\n      dup3\n        /* \"#utility.yul\":17140:17177   */\n      tag_196\n      jump\t// in\n    tag_417:\n        /* \"#utility.yul\":17242:17260   */\n      0xffffffffffffffff\n        /* \"#utility.yul\":17234:17240   */\n      dup2\n        /* \"#utility.yul\":17231:17261   */\n      gt\n        /* \"#utility.yul\":17228:17284   */\n      iszero\n      tag_418\n      jumpi\n        /* \"#utility.yul\":17264:17282   */\n      tag_419\n      tag_189\n      jump\t// in\n    tag_419:\n        /* \"#utility.yul\":17228:17284   */\n    tag_418:\n        /* \"#utility.yul\":17308:17346   */\n      tag_420\n        /* \"#utility.yul\":17340:17344   */\n      dup3\n        /* \"#utility.yul\":17334:17345   */\n      sload\n        /* \"#utility.yul\":17308:17346   */\n      tag_76\n      jump\t// in\n    tag_420:\n        /* \"#utility.yul\":17393:17460   */\n      tag_421\n        /* \"#utility.yul\":17453:17459   */\n      dup3\n        /* \"#utility.yul\":17445:17451   */\n      dup3\n        /* \"#utility.yul\":17439:17443   */\n      dup6\n        /* \"#utility.yul\":17393:17460   */\n      tag_222\n      jump\t// in\n    tag_421:\n        /* \"#utility.yul\":17487:17488   */\n      0x00\n        /* \"#utility.yul\":17511:17515   */\n      0x20\n        /* \"#utility.yul\":17498:17515   */\n      swap1\n      pop\n        /* \"#utility.yul\":17543:17545   */\n      0x1f\n        /* \"#utility.yul\":17535:17541   */\n      dup4\n        /* \"#utility.yul\":17532:17546   */\n      gt\n        /* \"#utility.yul\":17560:17561   */\n      0x01\n        /* \"#utility.yul\":17555:18173   */\n      dup2\n      eq\n      tag_423\n      jumpi\n        /* \"#utility.yul\":18217:18218   */\n      0x00\n        /* \"#utility.yul\":18234:18240   */\n      dup5\n        /* \"#utility.yul\":18231:18308   */\n      iszero\n      tag_424\n      jumpi\n        /* \"#utility.yul\":18283:18292   */\n      dup3\n        /* \"#utility.yul\":18278:18281   */\n      dup8\n        /* \"#utility.yul\":18274:18293   */\n      add\n        /* \"#utility.yul\":18268:18294   */\n      mload\n        /* \"#utility.yul\":18259:18294   */\n      swap1\n      pop\n        /* \"#utility.yul\":18231:18308   */\n    tag_424:\n        /* \"#utility.yul\":18334:18401   */\n      tag_425\n        /* \"#utility.yul\":18394:18400   */\n      dup6\n        /* \"#utility.yul\":18387:18392   */\n      dup3\n        /* \"#utility.yul\":18334:18401   */\n      tag_225\n      jump\t// in\n    tag_425:\n        /* \"#utility.yul\":18328:18332   */\n      dup7\n        /* \"#utility.yul\":18321:18402   */\n      sstore\n        /* \"#utility.yul\":18190:18412   */\n      pop\n        /* \"#utility.yul\":17525:18412   */\n      jump(tag_422)\n        /* \"#utility.yul\":17555:18173   */\n    tag_423:\n        /* \"#utility.yul\":17607:17611   */\n      0x1f\n        /* \"#utility.yul\":17603:17612   */\n      not\n        /* \"#utility.yul\":17595:17601   */\n      dup5\n        /* \"#utility.yul\":17591:17613   */\n      and\n        /* \"#utility.yul\":17641:17678   */\n      tag_426\n        /* \"#utility.yul\":17673:17677   */\n      dup7\n        /* \"#utility.yul\":17641:17678   */\n      tag_211\n      jump\t// in\n    tag_426:\n        /* \"#utility.yul\":17700:17701   */\n      0x00\n        /* \"#utility.yul\":17714:17922   */\n    tag_427:\n        /* \"#utility.yul\":17728:17735   */\n      dup3\n        /* \"#utility.yul\":17725:17726   */\n      dup2\n        /* \"#utility.yul\":17722:17736   */\n      lt\n        /* \"#utility.yul\":17714:17922   */\n      iszero\n      tag_429\n      jumpi\n        /* \"#utility.yul\":17807:17816   */\n      dup5\n        /* \"#utility.yul\":17802:17805   */\n      dup10\n        /* \"#utility.yul\":17798:17817   */\n      add\n        /* \"#utility.yul\":17792:17818   */\n      mload\n        /* \"#utility.yul\":17784:17790   */\n      dup3\n        /* \"#utility.yul\":17777:17819   */\n      sstore\n        /* \"#utility.yul\":17858:17859   */\n      0x01\n        /* \"#utility.yul\":17850:17856   */\n      dup3\n        /* \"#utility.yul\":17846:17860   */\n      add\n        /* \"#utility.yul\":17836:17860   */\n      swap2\n      pop\n        /* \"#utility.yul\":17905:17907   */\n      0x20\n        /* \"#utility.yul\":17894:17903   */\n      dup6\n        /* \"#utility.yul\":17890:17908   */\n      add\n        /* \"#utility.yul\":17877:17908   */\n      swap5\n      pop\n        /* \"#utility.yul\":17751:17755   */\n      0x20\n        /* \"#utility.yul\":17748:17749   */\n      dup2\n        /* \"#utility.yul\":17744:17756   */\n      add\n        /* \"#utility.yul\":17739:17756   */\n      swap1\n      pop\n        /* \"#utility.yul\":17714:17922   */\n      jump(tag_427)\n    tag_429:\n        /* \"#utility.yul\":17950:17956   */\n      dup7\n        /* \"#utility.yul\":17941:17948   */\n      dup4\n        /* \"#utility.yul\":17938:17957   */\n      lt\n        /* \"#utility.yul\":17935:18114   */\n      iszero\n      tag_430\n      jumpi\n        /* \"#utility.yul\":18008:18017   */\n      dup5\n        /* \"#utility.yul\":18003:18006   */\n      dup10\n        /* \"#utility.yul\":17999:18018   */\n      add\n        /* \"#utility.yul\":17993:18019   */\n      mload\n        /* \"#utility.yul\":18051:18099   */\n      tag_431\n        /* \"#utility.yul\":18093:18097   */\n      0x1f\n        /* \"#utility.yul\":18085:18091   */\n      dup10\n        /* \"#utility.yul\":18081:18098   */\n      and\n        /* \"#utility.yul\":18070:18079   */\n      dup3\n        /* \"#utility.yul\":18051:18099   */\n      tag_224\n      jump\t// in\n    tag_431:\n        /* \"#utility.yul\":18043:18049   */\n      dup4\n        /* \"#utility.yul\":18036:18100   */\n      sstore\n        /* \"#utility.yul\":17958:18114   */\n      pop\n        /* \"#utility.yul\":17935:18114   */\n    tag_430:\n        /* \"#utility.yul\":18160:18161   */\n      0x01\n        /* \"#utility.yul\":18156:18157   */\n      0x02\n        /* \"#utility.yul\":18148:18154   */\n      dup9\n        /* \"#utility.yul\":18144:18158   */\n      mul\n        /* \"#utility.yul\":18140:18162   */\n      add\n        /* \"#utility.yul\":18134:18138   */\n      dup9\n        /* \"#utility.yul\":18127:18163   */\n      sstore\n        /* \"#utility.yul\":17562:18173   */\n      pop\n      pop\n      pop\n        /* \"#utility.yul\":17525:18412   */\n    tag_422:\n      pop\n        /* \"#utility.yul\":17115:18418   */\n      pop\n      pop\n      pop\n        /* \"#utility.yul\":17023:18418   */\n      pop\n      pop\n      jump\t// out\n        /* \"#utility.yul\":18424:18595   */\n    tag_226:\n        /* \"#utility.yul\":18564:18587   */\n      0x50726f64756374206e6f6e2070726573656e7465210000000000000000000000\n        /* \"#utility.yul\":18560:18561   */\n      0x00\n        /* \"#utility.yul\":18552:18558   */\n      dup3\n        /* \"#utility.yul\":18548:18562   */\n      add\n        /* \"#utility.yul\":18541:18588   */\n      mstore\n        /* \"#utility.yul\":18424:18595   */\n      pop\n      jump\t// out\n        /* \"#utility.yul\":18601:18967   */\n    tag_227:\n        /* \"#utility.yul\":18743:18746   */\n      0x00\n        /* \"#utility.yul\":18764:18831   */\n      tag_434\n        /* \"#utility.yul\":18828:18830   */\n      0x15\n        /* \"#utility.yul\":18823:18826   */\n      dup4\n        /* \"#utility.yul\":18764:18831   */\n      tag_197\n      jump\t// in\n    tag_434:\n        /* \"#utility.yul\":18757:18831   */\n      swap2\n      pop\n        /* \"#utility.yul\":18840:18933   */\n      tag_435\n        /* \"#utility.yul\":18929:18932   */\n      dup3\n        /* \"#utility.yul\":18840:18933   */\n      tag_226\n      jump\t// in\n    tag_435:\n        /* \"#utility.yul\":18958:18960   */\n      0x20\n        /* \"#utility.yul\":18953:18956   */\n      dup3\n        /* \"#utility.yul\":18949:18961   */\n      add\n        /* \"#utility.yul\":18942:18961   */\n      swap1\n      pop\n        /* \"#utility.yul\":18601:18967   */\n      swap2\n      swap1\n      pop\n      jump\t// out\n        /* \"#utility.yul\":18973:19392   */\n    tag_105:\n        /* \"#utility.yul\":19139:19143   */\n      0x00\n        /* \"#utility.yul\":19177:19179   */\n      0x20\n        /* \"#utility.yul\":19166:19175   */\n      dup3\n        /* \"#utility.yul\":19162:19180   */\n      add\n        /* \"#utility.yul\":19154:19180   */\n      swap1\n      pop\n        /* \"#utility.yul\":19226:19235   */\n      dup2\n        /* \"#utility.yul\":19220:19224   */\n      dup2\n        /* \"#utility.yul\":19216:19236   */\n      sub\n        /* \"#utility.yul\":19212:19213   */\n      0x00\n        /* \"#utility.yul\":19201:19210   */\n      dup4\n        /* \"#utility.yul\":19197:19214   */\n      add\n        /* \"#utility.yul\":19190:19237   */\n      mstore\n        /* \"#utility.yul\":19254:19385   */\n      tag_437\n        /* \"#utility.yul\":19380:19384   */\n      dup2\n        /* \"#utility.yul\":19254:19385   */\n      tag_227\n      jump\t// in\n    tag_437:\n        /* \"#utility.yul\":19246:19385   */\n      swap1\n      pop\n        /* \"#utility.yul\":18973:19392   */\n      swap2\n      swap1\n      pop\n      jump\t// out\n        /* \"#utility.yul\":19398:19567   */\n    tag_228:\n        /* \"#utility.yul\":19538:19559   */\n      0x5175616e74697479206e6f742056616c69642100000000000000000000000000\n        /* \"#utility.yul\":19534:19535   */\n      0x00\n        /* \"#utility.yul\":19526:19532   */\n      dup3\n        /* \"#utility.yul\":19522:19536   */\n      add\n        /* \"#utility.yul\":19515:19560   */\n      mstore\n        /* \"#utility.yul\":19398:19567   */\n      pop\n      jump\t// out\n        /* \"#utility.yul\":19573:19939   */\n    tag_229:\n        /* \"#utility.yul\":19715:19718   */\n      0x00\n        /* \"#utility.yul\":19736:19803   */\n      tag_440\n        /* \"#utility.yul\":19800:19802   */\n      0x13\n        /* \"#utility.yul\":19795:19798   */\n      dup4\n        /* \"#utility.yul\":19736:19803   */\n      tag_197\n      jump\t// in\n    tag_440:\n        /* \"#utility.yul\":19729:19803   */\n      swap2\n      pop\n        /* \"#utility.yul\":19812:19905   */\n      tag_441\n        /* \"#utility.yul\":19901:19904   */\n      dup3\n        /* \"#utility.yul\":19812:19905   */\n      tag_228\n      jump\t// in\n    tag_441:\n        /* \"#utility.yul\":19930:19932   */\n      0x20\n        /* \"#utility.yul\":19925:19928   */\n      dup3\n        /* \"#utility.yul\":19921:19933   */\n      add\n        /* \"#utility.yul\":19914:19933   */\n      swap1\n      pop\n        /* \"#utility.yul\":19573:19939   */\n      swap2\n      swap1\n      pop\n      jump\t// out\n        /* \"#utility.yul\":19945:20364   */\n    tag_108:\n        /* \"#utility.yul\":20111:20115   */\n      0x00\n        /* \"#utility.yul\":20149:20151   */\n      0x20\n        /* \"#utility.yul\":20138:20147   */\n      dup3\n        /* \"#utility.yul\":20134:20152   */\n      add\n        /* \"#utility.yul\":20126:20152   */\n      swap1\n      pop\n        /* \"#utility.yul\":20198:20207   */\n      dup2\n        /* \"#utility.yul\":20192:20196   */\n      dup2\n        /* \"#utility.yul\":20188:20208   */\n      sub\n        /* \"#utility.yul\":20184:20185   */\n      0x00\n        /* \"#utility.yul\":20173:20182   */\n      dup4\n        /* \"#utility.yul\":20169:20186   */\n      add\n        /* \"#utility.yul\":20162:20209   */\n      mstore\n        /* \"#utility.yul\":20226:20357   */\n      tag_443\n        /* \"#utility.yul\":20352:20356   */\n      dup2\n        /* \"#utility.yul\":20226:20357   */\n      tag_229\n      jump\t// in\n    tag_443:\n        /* \"#utility.yul\":20218:20357   */\n      swap1\n      pop\n        /* \"#utility.yul\":19945:20364   */\n      swap2\n      swap1\n      pop\n      jump\t// out\n        /* \"#utility.yul\":20370:20550   */\n    tag_139:\n        /* \"#utility.yul\":20418:20495   */\n      0x4e487b7100000000000000000000000000000000000000000000000000000000\n        /* \"#utility.yul\":20415:20416   */\n      0x00\n        /* \"#utility.yul\":20408:20496   */\n      mstore\n        /* \"#utility.yul\":20515:20519   */\n      0x32\n        /* \"#utility.yul\":20512:20513   */\n      0x04\n        /* \"#utility.yul\":20505:20520   */\n      mstore\n        /* \"#utility.yul\":20539:20543   */\n      0x24\n        /* \"#utility.yul\":20536:20537   */\n      0x00\n        /* \"#utility.yul\":20529:20544   */\n      revert\n        /* \"#utility.yul\":20556:20736   */\n    tag_230:\n        /* \"#utility.yul\":20604:20681   */\n      0x4e487b7100000000000000000000000000000000000000000000000000000000\n        /* \"#utility.yul\":20601:20602   */\n      0x00\n        /* \"#utility.yul\":20594:20682   */\n      mstore\n        /* \"#utility.yul\":20701:20705   */\n      0x11\n        /* \"#utility.yul\":20698:20699   */\n      0x04\n        /* \"#utility.yul\":20691:20706   */\n      mstore\n        /* \"#utility.yul\":20725:20729   */\n      0x24\n        /* \"#utility.yul\":20722:20723   */\n      0x00\n        /* \"#utility.yul\":20715:20730   */\n      revert\n        /* \"#utility.yul\":20742:20975   */\n    tag_146:\n        /* \"#utility.yul\":20781:20784   */\n      0x00\n        /* \"#utility.yul\":20804:20828   */\n      tag_447\n        /* \"#utility.yul\":20822:20827   */\n      dup3\n        /* \"#utility.yul\":20804:20828   */\n      tag_173\n      jump\t// in\n    tag_447:\n        /* \"#utility.yul\":20795:20828   */\n      swap2\n      pop\n        /* \"#utility.yul\":20850:20916   */\n      0xffffffffffffffffffffffffffffffffffffffffffffffffffffffffffffffff\n        /* \"#utility.yul\":20843:20848   */\n      dup3\n        /* \"#utility.yul\":20840:20917   */\n      sub\n        /* \"#utility.yul\":20837:20940   */\n      tag_448\n      jumpi\n        /* \"#utility.yul\":20920:20938   */\n      tag_449\n      tag_230\n      jump\t// in\n    tag_449:\n        /* \"#utility.yul\":20837:20940   */\n    tag_448:\n        /* \"#utility.yul\":20967:20968   */\n      0x01\n        /* \"#utility.yul\":20960:20965   */\n      dup3\n        /* \"#utility.yul\":20956:20969   */\n      add\n        /* \"#utility.yul\":20949:20969   */\n      swap1\n      pop\n        /* \"#utility.yul\":20742:20975   */\n      swap2\n      swap1\n      pop\n      jump\t// out\n\n    auxdata: 0xa2646970667358221220a1bef840a28fa0567f583a6cd5adbedd88845e22c36b055b21adf2aee45ac83764736f6c63430008160033\n}\n",
				"bytecode": {
					"linkReferences": {},
					"object": "608060405234801561000f575f80fd5b50335f806101000a81548173ffffffffffffffffffffffffffffffffffffffff021916908373ffffffffffffffffffffffffffffffffffffffff160217905550611b108061005c5f395ff3fe608060405234801561000f575f80fd5b50600436106100a7575f3560e01c80638317679f1161006f5780638317679f1461018957806387abc216146101bc5780639f2b6898146101ec578063ad9c10a11461021c578063ce4fcf231461024c578063f24920781461027f576100a7565b806302d805f6146100ab5780631d49cc62146100db5780631e073fcf1461010b578063449e815d1461013b5780637950814d1461016b575b5f80fd5b6100c560048036038101906100c091906110b4565b61029b565b6040516100d2919061110c565b60405180910390f35b6100f560048036038101906100f09190611125565b610343565b6040516101029190611207565b60405180910390f35b610125600480360381019061012091906110b4565b6103d6565b6040516101329190611236565b60405180910390f35b610155600480360381019061015091906110b4565b6104ec565b6040516101629190611236565b60405180910390f35b610173610602565b6040516101809190611207565b60405180910390f35b6101a3600480360381019061019e919061138b565b610658565b6040516101b39493929190611485565b60405180910390f35b6101d660048036038101906101d191906114cf565b61099b565b6040516101e3919061110c565b60405180910390f35b610206600480360381019061020191906110b4565b610ace565b604051610213919061151f565b60405180910390f35b610236600480360381019061023191906110b4565b610be5565b604051610243919061110c565b60405180910390f35b610266600480360381019061026191906110b4565b610ce4565b6040516102769493929190611485565b60405180910390f35b610299600480360381019061029491906114cf565b610e15565b005b5f8082141580156102ab57505f82115b6102ea576040517f08c379a00000000000000000000000000000000000000000000000000000000081526004016102e190611589565b60405180910390fd5b8160015f8573ffffffffffffffffffffffffffffffffffffffff1673ffffffffffffffffffffffffffffffffffffffff1681526020019081526020015f205f8481526020019081526020015f205f015414905092915050565b606060025f8373ffffffffffffffffffffffffffffffffffffffff1673ffffffffffffffffffffffffffffffffffffffff1681526020019081526020015f208054806020026020016040519081016040528092919081815260200182805480156103ca57602002820191905f5260205f20905b8154815260200190600101908083116103b6575b50505050509050919050565b5f8060015f8573ffffffffffffffffffffffffffffffffffffffff1673ffffffffffffffffffffffffffffffffffffffff1681526020019081526020015f205f8481526020019081526020015f206040518060800160405290815f8201548152602001600182018054610448906115d4565b80601f0160208091040260200160405190810160405280929190818152602001828054610474906115d4565b80156104bf5780601f10610496576101008083540402835291602001916104bf565b820191905f5260205f20905b8154815290600101906020018083116104a257829003601f168201915b50505050508152602001600282015481526020016003820154815250509050806040015191505092915050565b5f8060015f8573ffffffffffffffffffffffffffffffffffffffff1673ffffffffffffffffffffffffffffffffffffffff1681526020019081526020015f205f8481526020019081526020015f206040518060800160405290815f820154815260200160018201805461055e906115d4565b80601f016020809104026020016040519081016040528092919081815260200182805461058a906115d4565b80156105d55780601f106105ac576101008083540402835291602001916105d5565b820191905f5260205f20905b8154815290600101906020018083116105b857829003601f168201915b50505050508152602001600282015481526020016003820154815250509050806060015191505092915050565b6060600380548060200260200160405190810160405280929190818152602001828054801561064e57602002820191905f5260205f20905b81548152602001906001019080831161063a575b5050505050905090565b5f60605f805f8787878b426040516020016106779594939291906116a3565b604051602081830303815290604052805190602001205f1c90505f60405180608001604052808381526020018a8152602001898152602001888152509050600382908060018154018082558091505060019003905f5260205f20015f909190919091505560025f8b73ffffffffffffffffffffffffffffffffffffffff1673ffffffffffffffffffffffffffffffffffffffff1681526020019081526020015f2082908060018154018082558091505060019003905f5260205f20015f90919091909150558060015f8c73ffffffffffffffffffffffffffffffffffffffff1673ffffffffffffffffffffffffffffffffffffffff1681526020019081526020015f205f8481526020019081526020015f205f820151815f015560208201518160010190816107a6919061189a565b50604082015181600201556060820151816003015590505060015f8b73ffffffffffffffffffffffffffffffffffffffff1673ffffffffffffffffffffffffffffffffffffffff1681526020019081526020015f205f8381526020019081526020015f205f015460015f8c73ffffffffffffffffffffffffffffffffffffffff1673ffffffffffffffffffffffffffffffffffffffff1681526020019081526020015f205f8481526020019081526020015f2060010160015f8d73ffffffffffffffffffffffffffffffffffffffff1673ffffffffffffffffffffffffffffffffffffffff1681526020019081526020015f205f8581526020019081526020015f206002015460015f8e73ffffffffffffffffffffffffffffffffffffffff1673ffffffffffffffffffffffffffffffffffffffff1681526020019081526020015f205f8681526020019081526020015f2060030154828054610908906115d4565b80601f0160208091040260200160405190810160405280929190818152602001828054610934906115d4565b801561097f5780601f106109565761010080835404028352916020019161097f565b820191905f5260205f20905b81548152906001019060200180831161096257829003601f168201915b5050505050925095509550955095505050945094509450949050565b5f8260015f8673ffffffffffffffffffffffffffffffffffffffff1673ffffffffffffffffffffffffffffffffffffffff1681526020019081526020015f205f8581526020019081526020015f205f015414610a2c576040517f08c379a0000000000000000000000000000000000000000000000000000000008152600401610a23906119b3565b60405180910390fd5b5f60015f8673ffffffffffffffffffffffffffffffffffffffff1673ffffffffffffffffffffffffffffffffffffffff1681526020019081526020015f205f8581526020019081526020015f2090508281600201541015610ac2576040517f08c379a0000000000000000000000000000000000000000000000000000000008152600401610ab990611a1b565b60405180910390fd5b60019150509392505050565b60605f60015f8573ffffffffffffffffffffffffffffffffffffffff1673ffffffffffffffffffffffffffffffffffffffff1681526020019081526020015f205f8481526020019081526020015f206040518060800160405290815f8201548152602001600182018054610b41906115d4565b80601f0160208091040260200160405190810160405280929190818152602001828054610b6d906115d4565b8015610bb85780601f10610b8f57610100808354040283529160200191610bb8565b820191905f5260205f20905b815481529060010190602001808311610b9b57829003601f168201915b50505050508152602001600282015481526020016003820154815250509050806020015191505092915050565b5f60015f8473ffffffffffffffffffffffffffffffffffffffff1673ffffffffffffffffffffffffffffffffffffffff1681526020019081526020015f205f8381526020019081526020015f205f8082015f9055600182015f610c489190610fbe565b600282015f9055600382015f905550505f60015f8573ffffffffffffffffffffffffffffffffffffffff1673ffffffffffffffffffffffffffffffffffffffff1681526020019081526020015f205f8481526020019081526020015f205f0154148015610cba5750610cb982610e6e565b5b8015610ccc5750610ccb8284610ed8565b5b15610cda5760019050610cde565b5f90505b92915050565b5f60605f805f60015f8873ffffffffffffffffffffffffffffffffffffffff1673ffffffffffffffffffffffffffffffffffffffff1681526020019081526020015f205f8781526020019081526020015f206040518060800160405290815f8201548152602001600182018054610d5a906115d4565b80601f0160208091040260200160405190810160405280929190818152602001828054610d86906115d4565b8015610dd15780601f10610da857610100808354040283529160200191610dd1565b820191905f5260205f20905b815481529060010190602001808311610db457829003601f168201915b50505050508152602001600282015481526020016003820154815250509050805f015181602001518260400151836060015194509450945094505092959194509250565b8060015f8573ffffffffffffffffffffffffffffffffffffffff1673ffffffffffffffffffffffffffffffffffffffff1681526020019081526020015f205f8481526020019081526020015f2060020181905550505050565b5f805f90505b8260038281548110610e8957610e88611a39565b5b905f5260205f20015403610ec05760038181548110610eab57610eaa611a39565b5b905f5260205f20015f90556001915050610ed3565b8080610ecb90611a93565b915050610e74565b919050565b5f805f90505f5b8460025f8673ffffffffffffffffffffffffffffffffffffffff1673ffffffffffffffffffffffffffffffffffffffff1681526020019081526020015f208281548110610f2f57610f2e611a39565b5b905f5260205f20015403610fa55760025f8573ffffffffffffffffffffffffffffffffffffffff1673ffffffffffffffffffffffffffffffffffffffff1681526020019081526020015f208181548110610f8c57610f8b611a39565b5b905f5260205f20015f9055600191508192505050610fb8565b8080610fb090611a93565b915050610edf565b92915050565b508054610fca906115d4565b5f825580601f10610fdb5750610ff8565b601f0160209004905f5260205f2090810190610ff79190610ffb565b5b50565b5b80821115611012575f815f905550600101610ffc565b5090565b5f604051905090565b5f80fd5b5f80fd5b5f73ffffffffffffffffffffffffffffffffffffffff82169050919050565b5f61105082611027565b9050919050565b61106081611046565b811461106a575f80fd5b50565b5f8135905061107b81611057565b92915050565b5f819050919050565b61109381611081565b811461109d575f80fd5b50565b5f813590506110ae8161108a565b92915050565b5f80604083850312156110ca576110c961101f565b5b5f6110d78582860161106d565b92505060206110e8858286016110a0565b9150509250929050565b5f8115159050919050565b611106816110f2565b82525050565b5f60208201905061111f5f8301846110fd565b92915050565b5f6020828403121561113a5761113961101f565b5b5f6111478482850161106d565b91505092915050565b5f81519050919050565b5f82825260208201905092915050565b5f819050602082019050919050565b61118281611081565b82525050565b5f6111938383611179565b60208301905092915050565b5f602082019050919050565b5f6111b582611150565b6111bf818561115a565b93506111ca8361116a565b805f5b838110156111fa5781516111e18882611188565b97506111ec8361119f565b9250506001810190506111cd565b5085935050505092915050565b5f6020820190508181035f83015261121f81846111ab565b905092915050565b61123081611081565b82525050565b5f6020820190506112495f830184611227565b92915050565b5f80fd5b5f80fd5b5f601f19601f8301169050919050565b7f4e487b71000000000000000000000000000000000000000000000000000000005f52604160045260245ffd5b61129d82611257565b810181811067ffffffffffffffff821117156112bc576112bb611267565b5b80604052505050565b5f6112ce611016565b90506112da8282611294565b919050565b5f67ffffffffffffffff8211156112f9576112f8611267565b5b61130282611257565b9050602081019050919050565b828183375f83830152505050565b5f61132f61132a846112df565b6112c5565b90508281526020810184848401111561134b5761134a611253565b5b61135684828561130f565b509392505050565b5f82601f8301126113725761137161124f565b5b813561138284826020860161131d565b91505092915050565b5f805f80608085870312156113a3576113a261101f565b5b5f6113b08782880161106d565b945050602085013567ffffffffffffffff8111156113d1576113d0611023565b5b6113dd8782880161135e565b93505060406113ee878288016110a0565b92505060606113ff878288016110a0565b91505092959194509250565b5f81519050919050565b5f82825260208201905092915050565b5f5b83811015611442578082015181840152602081019050611427565b5f8484015250505050565b5f6114578261140b565b6114618185611415565b9350611471818560208601611425565b61147a81611257565b840191505092915050565b5f6080820190506114985f830187611227565b81810360208301526114aa818661144d565b90506114b96040830185611227565b6114c66060830184611227565b95945050505050565b5f805f606084860312156114e6576114e561101f565b5b5f6114f38682870161106d565b9350506020611504868287016110a0565b9250506040611515868287016110a0565b9150509250925092565b5f6020820190508181035f830152611537818461144d565b905092915050565b7f4944204d696c6b4261746368204e6f742056616c6964210000000000000000005f82015250565b5f611573601783611415565b915061157e8261153f565b602082019050919050565b5f6020820190508181035f8301526115a081611567565b9050919050565b7f4e487b71000000000000000000000000000000000000000000000000000000005f52602260045260245ffd5b5f60028204905060018216806115eb57607f821691505b6020821081036115fe576115fd6115a7565b5b50919050565b5f81905092915050565b5f6116188261140b565b6116228185611604565b9350611632818560208601611425565b80840191505092915050565b5f819050919050565b61165861165382611081565b61163e565b82525050565b5f8160601b9050919050565b5f6116748261165e565b9050919050565b5f6116858261166a565b9050919050565b61169d61169882611046565b61167b565b82525050565b5f6116ae828861160e565b91506116ba8287611647565b6020820191506116ca8286611647565b6020820191506116da828561168c565b6014820191506116ea8284611647565b6020820191508190509695505050505050565b5f819050815f5260205f209050919050565b5f6020601f8301049050919050565b5f82821b905092915050565b5f600883026117597fffffffffffffffffffffffffffffffffffffffffffffffffffffffffffffffff8261171e565b611763868361171e565b95508019841693508086168417925050509392505050565b5f819050919050565b5f61179e61179961179484611081565b61177b565b611081565b9050919050565b5f819050919050565b6117b783611784565b6117cb6117c3826117a5565b84845461172a565b825550505050565b5f90565b6117df6117d3565b6117ea8184846117ae565b505050565b5b8181101561180d576118025f826117d7565b6001810190506117f0565b5050565b601f82111561185257611823816116fd565b61182c8461170f565b8101602085101561183b578190505b61184f6118478561170f565b8301826117ef565b50505b505050565b5f82821c905092915050565b5f6118725f1984600802611857565b1980831691505092915050565b5f61188a8383611863565b9150826002028217905092915050565b6118a38261140b565b67ffffffffffffffff8111156118bc576118bb611267565b5b6118c682546115d4565b6118d1828285611811565b5f60209050601f831160018114611902575f84156118f0578287015190505b6118fa858261187f565b865550611961565b601f198416611910866116fd565b5f5b8281101561193757848901518255600182019150602085019450602081019050611912565b868310156119545784890151611950601f891682611863565b8355505b6001600288020188555050505b505050505050565b7f50726f64756374206e6f6e2070726573656e74652100000000000000000000005f82015250565b5f61199d601583611415565b91506119a882611969565b602082019050919050565b5f6020820190508181035f8301526119ca81611991565b9050919050565b7f5175616e74697479206e6f742056616c696421000000000000000000000000005f82015250565b5f611a05601383611415565b9150611a10826119d1565b602082019050919050565b5f6020820190508181035f830152611a32816119f9565b9050919050565b7f4e487b71000000000000000000000000000000000000000000000000000000005f52603260045260245ffd5b7f4e487b71000000000000000000000000000000000000000000000000000000005f52601160045260245ffd5b5f611a9d82611081565b91507fffffffffffffffffffffffffffffffffffffffffffffffffffffffffffffffff8203611acf57611ace611a66565b5b60018201905091905056fea2646970667358221220a1bef840a28fa0567f583a6cd5adbedd88845e22c36b055b21adf2aee45ac83764736f6c63430008160033",
					"opcodes": "PUSH1 0x80 PUSH1 0x40 MSTORE CALLVALUE DUP1 ISZERO PUSH2 0xF JUMPI PUSH0 DUP1 REVERT JUMPDEST POP CALLER PUSH0 DUP1 PUSH2 0x100 EXP DUP2 SLOAD DUP2 PUSH20 0xFFFFFFFFFFFFFFFFFFFFFFFFFFFFFFFFFFFFFFFF MUL NOT AND SWAP1 DUP4 PUSH20 0xFFFFFFFFFFFFFFFFFFFFFFFFFFFFFFFFFFFFFFFF AND MUL OR SWAP1 SSTORE POP PUSH2 0x1B10 DUP1 PUSH2 0x5C PUSH0 CODECOPY PUSH0 RETURN INVALID PUSH1 0x80 PUSH1 0x40 MSTORE CALLVALUE DUP1 ISZERO PUSH2 0xF JUMPI PUSH0 DUP1 REVERT JUMPDEST POP PUSH1 0x4 CALLDATASIZE LT PUSH2 0xA7 JUMPI PUSH0 CALLDATALOAD PUSH1 0xE0 SHR DUP1 PUSH4 0x8317679F GT PUSH2 0x6F JUMPI DUP1 PUSH4 0x8317679F EQ PUSH2 0x189 JUMPI DUP1 PUSH4 0x87ABC216 EQ PUSH2 0x1BC JUMPI DUP1 PUSH4 0x9F2B6898 EQ PUSH2 0x1EC JUMPI DUP1 PUSH4 0xAD9C10A1 EQ PUSH2 0x21C JUMPI DUP1 PUSH4 0xCE4FCF23 EQ PUSH2 0x24C JUMPI DUP1 PUSH4 0xF2492078 EQ PUSH2 0x27F JUMPI PUSH2 0xA7 JUMP JUMPDEST DUP1 PUSH4 0x2D805F6 EQ PUSH2 0xAB JUMPI DUP1 PUSH4 0x1D49CC62 EQ PUSH2 0xDB JUMPI DUP1 PUSH4 0x1E073FCF EQ PUSH2 0x10B JUMPI DUP1 PUSH4 0x449E815D EQ PUSH2 0x13B JUMPI DUP1 PUSH4 0x7950814D EQ PUSH2 0x16B JUMPI JUMPDEST PUSH0 DUP1 REVERT JUMPDEST PUSH2 0xC5 PUSH1 0x4 DUP1 CALLDATASIZE SUB DUP2 ADD SWAP1 PUSH2 0xC0 SWAP2 SWAP1 PUSH2 0x10B4 JUMP JUMPDEST PUSH2 0x29B JUMP JUMPDEST PUSH1 0x40 MLOAD PUSH2 0xD2 SWAP2 SWAP1 PUSH2 0x110C JUMP JUMPDEST PUSH1 0x40 MLOAD DUP1 SWAP2 SUB SWAP1 RETURN JUMPDEST PUSH2 0xF5 PUSH1 0x4 DUP1 CALLDATASIZE SUB DUP2 ADD SWAP1 PUSH2 0xF0 SWAP2 SWAP1 PUSH2 0x1125 JUMP JUMPDEST PUSH2 0x343 JUMP JUMPDEST PUSH1 0x40 MLOAD PUSH2 0x102 SWAP2 SWAP1 PUSH2 0x1207 JUMP JUMPDEST PUSH1 0x40 MLOAD DUP1 SWAP2 SUB SWAP1 RETURN JUMPDEST PUSH2 0x125 PUSH1 0x4 DUP1 CALLDATASIZE SUB DUP2 ADD SWAP1 PUSH2 0x120 SWAP2 SWAP1 PUSH2 0x10B4 JUMP JUMPDEST PUSH2 0x3D6 JUMP JUMPDEST PUSH1 0x40 MLOAD PUSH2 0x132 SWAP2 SWAP1 PUSH2 0x1236 JUMP JUMPDEST PUSH1 0x40 MLOAD DUP1 SWAP2 SUB SWAP1 RETURN JUMPDEST PUSH2 0x155 PUSH1 0x4 DUP1 CALLDATASIZE SUB DUP2 ADD SWAP1 PUSH2 0x150 SWAP2 SWAP1 PUSH2 0x10B4 JUMP JUMPDEST PUSH2 0x4EC JUMP JUMPDEST PUSH1 0x40 MLOAD PUSH2 0x162 SWAP2 SWAP1 PUSH2 0x1236 JUMP JUMPDEST PUSH1 0x40 MLOAD DUP1 SWAP2 SUB SWAP1 RETURN JUMPDEST PUSH2 0x173 PUSH2 0x602 JUMP JUMPDEST PUSH1 0x40 MLOAD PUSH2 0x180 SWAP2 SWAP1 PUSH2 0x1207 JUMP JUMPDEST PUSH1 0x40 MLOAD DUP1 SWAP2 SUB SWAP1 RETURN JUMPDEST PUSH2 0x1A3 PUSH1 0x4 DUP1 CALLDATASIZE SUB DUP2 ADD SWAP1 PUSH2 0x19E SWAP2 SWAP1 PUSH2 0x138B JUMP JUMPDEST PUSH2 0x658 JUMP JUMPDEST PUSH1 0x40 MLOAD PUSH2 0x1B3 SWAP5 SWAP4 SWAP3 SWAP2 SWAP1 PUSH2 0x1485 JUMP JUMPDEST PUSH1 0x40 MLOAD DUP1 SWAP2 SUB SWAP1 RETURN JUMPDEST PUSH2 0x1D6 PUSH1 0x4 DUP1 CALLDATASIZE SUB DUP2 ADD SWAP1 PUSH2 0x1D1 SWAP2 SWAP1 PUSH2 0x14CF JUMP JUMPDEST PUSH2 0x99B JUMP JUMPDEST PUSH1 0x40 MLOAD PUSH2 0x1E3 SWAP2 SWAP1 PUSH2 0x110C JUMP JUMPDEST PUSH1 0x40 MLOAD DUP1 SWAP2 SUB SWAP1 RETURN JUMPDEST PUSH2 0x206 PUSH1 0x4 DUP1 CALLDATASIZE SUB DUP2 ADD SWAP1 PUSH2 0x201 SWAP2 SWAP1 PUSH2 0x10B4 JUMP JUMPDEST PUSH2 0xACE JUMP JUMPDEST PUSH1 0x40 MLOAD PUSH2 0x213 SWAP2 SWAP1 PUSH2 0x151F JUMP JUMPDEST PUSH1 0x40 MLOAD DUP1 SWAP2 SUB SWAP1 RETURN JUMPDEST PUSH2 0x236 PUSH1 0x4 DUP1 CALLDATASIZE SUB DUP2 ADD SWAP1 PUSH2 0x231 SWAP2 SWAP1 PUSH2 0x10B4 JUMP JUMPDEST PUSH2 0xBE5 JUMP JUMPDEST PUSH1 0x40 MLOAD PUSH2 0x243 SWAP2 SWAP1 PUSH2 0x110C JUMP JUMPDEST PUSH1 0x40 MLOAD DUP1 SWAP2 SUB SWAP1 RETURN JUMPDEST PUSH2 0x266 PUSH1 0x4 DUP1 CALLDATASIZE SUB DUP2 ADD SWAP1 PUSH2 0x261 SWAP2 SWAP1 PUSH2 0x10B4 JUMP JUMPDEST PUSH2 0xCE4 JUMP JUMPDEST PUSH1 0x40 MLOAD PUSH2 0x276 SWAP5 SWAP4 SWAP3 SWAP2 SWAP1 PUSH2 0x1485 JUMP JUMPDEST PUSH1 0x40 MLOAD DUP1 SWAP2 SUB SWAP1 RETURN JUMPDEST PUSH2 0x299 PUSH1 0x4 DUP1 CALLDATASIZE SUB DUP2 ADD SWAP1 PUSH2 0x294 SWAP2 SWAP1 PUSH2 0x14CF JUMP JUMPDEST PUSH2 0xE15 JUMP JUMPDEST STOP JUMPDEST PUSH0 DUP1 DUP3 EQ ISZERO DUP1 ISZERO PUSH2 0x2AB JUMPI POP PUSH0 DUP3 GT JUMPDEST PUSH2 0x2EA JUMPI PUSH1 0x40 MLOAD PUSH32 0x8C379A000000000000000000000000000000000000000000000000000000000 DUP2 MSTORE PUSH1 0x4 ADD PUSH2 0x2E1 SWAP1 PUSH2 0x1589 JUMP JUMPDEST PUSH1 0x40 MLOAD DUP1 SWAP2 SUB SWAP1 REVERT JUMPDEST DUP2 PUSH1 0x1 PUSH0 DUP6 PUSH20 0xFFFFFFFFFFFFFFFFFFFFFFFFFFFFFFFFFFFFFFFF AND PUSH20 0xFFFFFFFFFFFFFFFFFFFFFFFFFFFFFFFFFFFFFFFF AND DUP2 MSTORE PUSH1 0x20 ADD SWAP1 DUP2 MSTORE PUSH1 0x20 ADD PUSH0 KECCAK256 PUSH0 DUP5 DUP2 MSTORE PUSH1 0x20 ADD SWAP1 DUP2 MSTORE PUSH1 0x20 ADD PUSH0 KECCAK256 PUSH0 ADD SLOAD EQ SWAP1 POP SWAP3 SWAP2 POP POP JUMP JUMPDEST PUSH1 0x60 PUSH1 0x2 PUSH0 DUP4 PUSH20 0xFFFFFFFFFFFFFFFFFFFFFFFFFFFFFFFFFFFFFFFF AND PUSH20 0xFFFFFFFFFFFFFFFFFFFFFFFFFFFFFFFFFFFFFFFF AND DUP2 MSTORE PUSH1 0x20 ADD SWAP1 DUP2 MSTORE PUSH1 0x20 ADD PUSH0 KECCAK256 DUP1 SLOAD DUP1 PUSH1 0x20 MUL PUSH1 0x20 ADD PUSH1 0x40 MLOAD SWAP1 DUP2 ADD PUSH1 0x40 MSTORE DUP1 SWAP3 SWAP2 SWAP1 DUP2 DUP2 MSTORE PUSH1 0x20 ADD DUP3 DUP1 SLOAD DUP1 ISZERO PUSH2 0x3CA JUMPI PUSH1 0x20 MUL DUP3 ADD SWAP2 SWAP1 PUSH0 MSTORE PUSH1 0x20 PUSH0 KECCAK256 SWAP1 JUMPDEST DUP2 SLOAD DUP2 MSTORE PUSH1 0x20 ADD SWAP1 PUSH1 0x1 ADD SWAP1 DUP1 DUP4 GT PUSH2 0x3B6 JUMPI JUMPDEST POP POP POP POP POP SWAP1 POP SWAP2 SWAP1 POP JUMP JUMPDEST PUSH0 DUP1 PUSH1 0x1 PUSH0 DUP6 PUSH20 0xFFFFFFFFFFFFFFFFFFFFFFFFFFFFFFFFFFFFFFFF AND PUSH20 0xFFFFFFFFFFFFFFFFFFFFFFFFFFFFFFFFFFFFFFFF AND DUP2 MSTORE PUSH1 0x20 ADD SWAP1 DUP2 MSTORE PUSH1 0x20 ADD PUSH0 KECCAK256 PUSH0 DUP5 DUP2 MSTORE PUSH1 0x20 ADD SWAP1 DUP2 MSTORE PUSH1 0x20 ADD PUSH0 KECCAK256 PUSH1 0x40 MLOAD DUP1 PUSH1 0x80 ADD PUSH1 0x40 MSTORE SWAP1 DUP2 PUSH0 DUP3 ADD SLOAD DUP2 MSTORE PUSH1 0x20 ADD PUSH1 0x1 DUP3 ADD DUP1 SLOAD PUSH2 0x448 SWAP1 PUSH2 0x15D4 JUMP JUMPDEST DUP1 PUSH1 0x1F ADD PUSH1 0x20 DUP1 SWAP2 DIV MUL PUSH1 0x20 ADD PUSH1 0x40 MLOAD SWAP1 DUP2 ADD PUSH1 0x40 MSTORE DUP1 SWAP3 SWAP2 SWAP1 DUP2 DUP2 MSTORE PUSH1 0x20 ADD DUP3 DUP1 SLOAD PUSH2 0x474 SWAP1 PUSH2 0x15D4 JUMP JUMPDEST DUP1 ISZERO PUSH2 0x4BF JUMPI DUP1 PUSH1 0x1F LT PUSH2 0x496 JUMPI PUSH2 0x100 DUP1 DUP4 SLOAD DIV MUL DUP4 MSTORE SWAP2 PUSH1 0x20 ADD SWAP2 PUSH2 0x4BF JUMP JUMPDEST DUP3 ADD SWAP2 SWAP1 PUSH0 MSTORE PUSH1 0x20 PUSH0 KECCAK256 SWAP1 JUMPDEST DUP2 SLOAD DUP2 MSTORE SWAP1 PUSH1 0x1 ADD SWAP1 PUSH1 0x20 ADD DUP1 DUP4 GT PUSH2 0x4A2 JUMPI DUP3 SWAP1 SUB PUSH1 0x1F AND DUP3 ADD SWAP2 JUMPDEST POP POP POP POP POP DUP2 MSTORE PUSH1 0x20 ADD PUSH1 0x2 DUP3 ADD SLOAD DUP2 MSTORE PUSH1 0x20 ADD PUSH1 0x3 DUP3 ADD SLOAD DUP2 MSTORE POP POP SWAP1 POP DUP1 PUSH1 0x40 ADD MLOAD SWAP2 POP POP SWAP3 SWAP2 POP POP JUMP JUMPDEST PUSH0 DUP1 PUSH1 0x1 PUSH0 DUP6 PUSH20 0xFFFFFFFFFFFFFFFFFFFFFFFFFFFFFFFFFFFFFFFF AND PUSH20 0xFFFFFFFFFFFFFFFFFFFFFFFFFFFFFFFFFFFFFFFF AND DUP2 MSTORE PUSH1 0x20 ADD SWAP1 DUP2 MSTORE PUSH1 0x20 ADD PUSH0 KECCAK256 PUSH0 DUP5 DUP2 MSTORE PUSH1 0x20 ADD SWAP1 DUP2 MSTORE PUSH1 0x20 ADD PUSH0 KECCAK256 PUSH1 0x40 MLOAD DUP1 PUSH1 0x80 ADD PUSH1 0x40 MSTORE SWAP1 DUP2 PUSH0 DUP3 ADD SLOAD DUP2 MSTORE PUSH1 0x20 ADD PUSH1 0x1 DUP3 ADD DUP1 SLOAD PUSH2 0x55E SWAP1 PUSH2 0x15D4 JUMP JUMPDEST DUP1 PUSH1 0x1F ADD PUSH1 0x20 DUP1 SWAP2 DIV MUL PUSH1 0x20 ADD PUSH1 0x40 MLOAD SWAP1 DUP2 ADD PUSH1 0x40 MSTORE DUP1 SWAP3 SWAP2 SWAP1 DUP2 DUP2 MSTORE PUSH1 0x20 ADD DUP3 DUP1 SLOAD PUSH2 0x58A SWAP1 PUSH2 0x15D4 JUMP JUMPDEST DUP1 ISZERO PUSH2 0x5D5 JUMPI DUP1 PUSH1 0x1F LT PUSH2 0x5AC JUMPI PUSH2 0x100 DUP1 DUP4 SLOAD DIV MUL DUP4 MSTORE SWAP2 PUSH1 0x20 ADD SWAP2 PUSH2 0x5D5 JUMP JUMPDEST DUP3 ADD SWAP2 SWAP1 PUSH0 MSTORE PUSH1 0x20 PUSH0 KECCAK256 SWAP1 JUMPDEST DUP2 SLOAD DUP2 MSTORE SWAP1 PUSH1 0x1 ADD SWAP1 PUSH1 0x20 ADD DUP1 DUP4 GT PUSH2 0x5B8 JUMPI DUP3 SWAP1 SUB PUSH1 0x1F AND DUP3 ADD SWAP2 JUMPDEST POP POP POP POP POP DUP2 MSTORE PUSH1 0x20 ADD PUSH1 0x2 DUP3 ADD SLOAD DUP2 MSTORE PUSH1 0x20 ADD PUSH1 0x3 DUP3 ADD SLOAD DUP2 MSTORE POP POP SWAP1 POP DUP1 PUSH1 0x60 ADD MLOAD SWAP2 POP POP SWAP3 SWAP2 POP POP JUMP JUMPDEST PUSH1 0x60 PUSH1 0x3 DUP1 SLOAD DUP1 PUSH1 0x20 MUL PUSH1 0x20 ADD PUSH1 0x40 MLOAD SWAP1 DUP2 ADD PUSH1 0x40 MSTORE DUP1 SWAP3 SWAP2 SWAP1 DUP2 DUP2 MSTORE PUSH1 0x20 ADD DUP3 DUP1 SLOAD DUP1 ISZERO PUSH2 0x64E JUMPI PUSH1 0x20 MUL DUP3 ADD SWAP2 SWAP1 PUSH0 MSTORE PUSH1 0x20 PUSH0 KECCAK256 SWAP1 JUMPDEST DUP2 SLOAD DUP2 MSTORE PUSH1 0x20 ADD SWAP1 PUSH1 0x1 ADD SWAP1 DUP1 DUP4 GT PUSH2 0x63A JUMPI JUMPDEST POP POP POP POP POP SWAP1 POP SWAP1 JUMP JUMPDEST PUSH0 PUSH1 0x60 PUSH0 DUP1 PUSH0 DUP8 DUP8 DUP8 DUP12 TIMESTAMP PUSH1 0x40 MLOAD PUSH1 0x20 ADD PUSH2 0x677 SWAP6 SWAP5 SWAP4 SWAP3 SWAP2 SWAP1 PUSH2 0x16A3 JUMP JUMPDEST PUSH1 0x40 MLOAD PUSH1 0x20 DUP2 DUP4 SUB SUB DUP2 MSTORE SWAP1 PUSH1 0x40 MSTORE DUP1 MLOAD SWAP1 PUSH1 0x20 ADD KECCAK256 PUSH0 SHR SWAP1 POP PUSH0 PUSH1 0x40 MLOAD DUP1 PUSH1 0x80 ADD PUSH1 0x40 MSTORE DUP1 DUP4 DUP2 MSTORE PUSH1 0x20 ADD DUP11 DUP2 MSTORE PUSH1 0x20 ADD DUP10 DUP2 MSTORE PUSH1 0x20 ADD DUP9 DUP2 MSTORE POP SWAP1 POP PUSH1 0x3 DUP3 SWAP1 DUP1 PUSH1 0x1 DUP2 SLOAD ADD DUP1 DUP3 SSTORE DUP1 SWAP2 POP POP PUSH1 0x1 SWAP1 SUB SWAP1 PUSH0 MSTORE PUSH1 0x20 PUSH0 KECCAK256 ADD PUSH0 SWAP1 SWAP2 SWAP1 SWAP2 SWAP1 SWAP2 POP SSTORE PUSH1 0x2 PUSH0 DUP12 PUSH20 0xFFFFFFFFFFFFFFFFFFFFFFFFFFFFFFFFFFFFFFFF AND PUSH20 0xFFFFFFFFFFFFFFFFFFFFFFFFFFFFFFFFFFFFFFFF AND DUP2 MSTORE PUSH1 0x20 ADD SWAP1 DUP2 MSTORE PUSH1 0x20 ADD PUSH0 KECCAK256 DUP3 SWAP1 DUP1 PUSH1 0x1 DUP2 SLOAD ADD DUP1 DUP3 SSTORE DUP1 SWAP2 POP POP PUSH1 0x1 SWAP1 SUB SWAP1 PUSH0 MSTORE PUSH1 0x20 PUSH0 KECCAK256 ADD PUSH0 SWAP1 SWAP2 SWAP1 SWAP2 SWAP1 SWAP2 POP SSTORE DUP1 PUSH1 0x1 PUSH0 DUP13 PUSH20 0xFFFFFFFFFFFFFFFFFFFFFFFFFFFFFFFFFFFFFFFF AND PUSH20 0xFFFFFFFFFFFFFFFFFFFFFFFFFFFFFFFFFFFFFFFF AND DUP2 MSTORE PUSH1 0x20 ADD SWAP1 DUP2 MSTORE PUSH1 0x20 ADD PUSH0 KECCAK256 PUSH0 DUP5 DUP2 MSTORE PUSH1 0x20 ADD SWAP1 DUP2 MSTORE PUSH1 0x20 ADD PUSH0 KECCAK256 PUSH0 DUP3 ADD MLOAD DUP2 PUSH0 ADD SSTORE PUSH1 0x20 DUP3 ADD MLOAD DUP2 PUSH1 0x1 ADD SWAP1 DUP2 PUSH2 0x7A6 SWAP2 SWAP1 PUSH2 0x189A JUMP JUMPDEST POP PUSH1 0x40 DUP3 ADD MLOAD DUP2 PUSH1 0x2 ADD SSTORE PUSH1 0x60 DUP3 ADD MLOAD DUP2 PUSH1 0x3 ADD SSTORE SWAP1 POP POP PUSH1 0x1 PUSH0 DUP12 PUSH20 0xFFFFFFFFFFFFFFFFFFFFFFFFFFFFFFFFFFFFFFFF AND PUSH20 0xFFFFFFFFFFFFFFFFFFFFFFFFFFFFFFFFFFFFFFFF AND DUP2 MSTORE PUSH1 0x20 ADD SWAP1 DUP2 MSTORE PUSH1 0x20 ADD PUSH0 KECCAK256 PUSH0 DUP4 DUP2 MSTORE PUSH1 0x20 ADD SWAP1 DUP2 MSTORE PUSH1 0x20 ADD PUSH0 KECCAK256 PUSH0 ADD SLOAD PUSH1 0x1 PUSH0 DUP13 PUSH20 0xFFFFFFFFFFFFFFFFFFFFFFFFFFFFFFFFFFFFFFFF AND PUSH20 0xFFFFFFFFFFFFFFFFFFFFFFFFFFFFFFFFFFFFFFFF AND DUP2 MSTORE PUSH1 0x20 ADD SWAP1 DUP2 MSTORE PUSH1 0x20 ADD PUSH0 KECCAK256 PUSH0 DUP5 DUP2 MSTORE PUSH1 0x20 ADD SWAP1 DUP2 MSTORE PUSH1 0x20 ADD PUSH0 KECCAK256 PUSH1 0x1 ADD PUSH1 0x1 PUSH0 DUP14 PUSH20 0xFFFFFFFFFFFFFFFFFFFFFFFFFFFFFFFFFFFFFFFF AND PUSH20 0xFFFFFFFFFFFFFFFFFFFFFFFFFFFFFFFFFFFFFFFF AND DUP2 MSTORE PUSH1 0x20 ADD SWAP1 DUP2 MSTORE PUSH1 0x20 ADD PUSH0 KECCAK256 PUSH0 DUP6 DUP2 MSTORE PUSH1 0x20 ADD SWAP1 DUP2 MSTORE PUSH1 0x20 ADD PUSH0 KECCAK256 PUSH1 0x2 ADD SLOAD PUSH1 0x1 PUSH0 DUP15 PUSH20 0xFFFFFFFFFFFFFFFFFFFFFFFFFFFFFFFFFFFFFFFF AND PUSH20 0xFFFFFFFFFFFFFFFFFFFFFFFFFFFFFFFFFFFFFFFF AND DUP2 MSTORE PUSH1 0x20 ADD SWAP1 DUP2 MSTORE PUSH1 0x20 ADD PUSH0 KECCAK256 PUSH0 DUP7 DUP2 MSTORE PUSH1 0x20 ADD SWAP1 DUP2 MSTORE PUSH1 0x20 ADD PUSH0 KECCAK256 PUSH1 0x3 ADD SLOAD DUP3 DUP1 SLOAD PUSH2 0x908 SWAP1 PUSH2 0x15D4 JUMP JUMPDEST DUP1 PUSH1 0x1F ADD PUSH1 0x20 DUP1 SWAP2 DIV MUL PUSH1 0x20 ADD PUSH1 0x40 MLOAD SWAP1 DUP2 ADD PUSH1 0x40 MSTORE DUP1 SWAP3 SWAP2 SWAP1 DUP2 DUP2 MSTORE PUSH1 0x20 ADD DUP3 DUP1 SLOAD PUSH2 0x934 SWAP1 PUSH2 0x15D4 JUMP JUMPDEST DUP1 ISZERO PUSH2 0x97F JUMPI DUP1 PUSH1 0x1F LT PUSH2 0x956 JUMPI PUSH2 0x100 DUP1 DUP4 SLOAD DIV MUL DUP4 MSTORE SWAP2 PUSH1 0x20 ADD SWAP2 PUSH2 0x97F JUMP JUMPDEST DUP3 ADD SWAP2 SWAP1 PUSH0 MSTORE PUSH1 0x20 PUSH0 KECCAK256 SWAP1 JUMPDEST DUP2 SLOAD DUP2 MSTORE SWAP1 PUSH1 0x1 ADD SWAP1 PUSH1 0x20 ADD DUP1 DUP4 GT PUSH2 0x962 JUMPI DUP3 SWAP1 SUB PUSH1 0x1F AND DUP3 ADD SWAP2 JUMPDEST POP POP POP POP POP SWAP3 POP SWAP6 POP SWAP6 POP SWAP6 POP SWAP6 POP POP POP SWAP5 POP SWAP5 POP SWAP5 POP SWAP5 SWAP1 POP JUMP JUMPDEST PUSH0 DUP3 PUSH1 0x1 PUSH0 DUP7 PUSH20 0xFFFFFFFFFFFFFFFFFFFFFFFFFFFFFFFFFFFFFFFF AND PUSH20 0xFFFFFFFFFFFFFFFFFFFFFFFFFFFFFFFFFFFFFFFF AND DUP2 MSTORE PUSH1 0x20 ADD SWAP1 DUP2 MSTORE PUSH1 0x20 ADD PUSH0 KECCAK256 PUSH0 DUP6 DUP2 MSTORE PUSH1 0x20 ADD SWAP1 DUP2 MSTORE PUSH1 0x20 ADD PUSH0 KECCAK256 PUSH0 ADD SLOAD EQ PUSH2 0xA2C JUMPI PUSH1 0x40 MLOAD PUSH32 0x8C379A000000000000000000000000000000000000000000000000000000000 DUP2 MSTORE PUSH1 0x4 ADD PUSH2 0xA23 SWAP1 PUSH2 0x19B3 JUMP JUMPDEST PUSH1 0x40 MLOAD DUP1 SWAP2 SUB SWAP1 REVERT JUMPDEST PUSH0 PUSH1 0x1 PUSH0 DUP7 PUSH20 0xFFFFFFFFFFFFFFFFFFFFFFFFFFFFFFFFFFFFFFFF AND PUSH20 0xFFFFFFFFFFFFFFFFFFFFFFFFFFFFFFFFFFFFFFFF AND DUP2 MSTORE PUSH1 0x20 ADD SWAP1 DUP2 MSTORE PUSH1 0x20 ADD PUSH0 KECCAK256 PUSH0 DUP6 DUP2 MSTORE PUSH1 0x20 ADD SWAP1 DUP2 MSTORE PUSH1 0x20 ADD PUSH0 KECCAK256 SWAP1 POP DUP3 DUP2 PUSH1 0x2 ADD SLOAD LT ISZERO PUSH2 0xAC2 JUMPI PUSH1 0x40 MLOAD PUSH32 0x8C379A000000000000000000000000000000000000000000000000000000000 DUP2 MSTORE PUSH1 0x4 ADD PUSH2 0xAB9 SWAP1 PUSH2 0x1A1B JUMP JUMPDEST PUSH1 0x40 MLOAD DUP1 SWAP2 SUB SWAP1 REVERT JUMPDEST PUSH1 0x1 SWAP2 POP POP SWAP4 SWAP3 POP POP POP JUMP JUMPDEST PUSH1 0x60 PUSH0 PUSH1 0x1 PUSH0 DUP6 PUSH20 0xFFFFFFFFFFFFFFFFFFFFFFFFFFFFFFFFFFFFFFFF AND PUSH20 0xFFFFFFFFFFFFFFFFFFFFFFFFFFFFFFFFFFFFFFFF AND DUP2 MSTORE PUSH1 0x20 ADD SWAP1 DUP2 MSTORE PUSH1 0x20 ADD PUSH0 KECCAK256 PUSH0 DUP5 DUP2 MSTORE PUSH1 0x20 ADD SWAP1 DUP2 MSTORE PUSH1 0x20 ADD PUSH0 KECCAK256 PUSH1 0x40 MLOAD DUP1 PUSH1 0x80 ADD PUSH1 0x40 MSTORE SWAP1 DUP2 PUSH0 DUP3 ADD SLOAD DUP2 MSTORE PUSH1 0x20 ADD PUSH1 0x1 DUP3 ADD DUP1 SLOAD PUSH2 0xB41 SWAP1 PUSH2 0x15D4 JUMP JUMPDEST DUP1 PUSH1 0x1F ADD PUSH1 0x20 DUP1 SWAP2 DIV MUL PUSH1 0x20 ADD PUSH1 0x40 MLOAD SWAP1 DUP2 ADD PUSH1 0x40 MSTORE DUP1 SWAP3 SWAP2 SWAP1 DUP2 DUP2 MSTORE PUSH1 0x20 ADD DUP3 DUP1 SLOAD PUSH2 0xB6D SWAP1 PUSH2 0x15D4 JUMP JUMPDEST DUP1 ISZERO PUSH2 0xBB8 JUMPI DUP1 PUSH1 0x1F LT PUSH2 0xB8F JUMPI PUSH2 0x100 DUP1 DUP4 SLOAD DIV MUL DUP4 MSTORE SWAP2 PUSH1 0x20 ADD SWAP2 PUSH2 0xBB8 JUMP JUMPDEST DUP3 ADD SWAP2 SWAP1 PUSH0 MSTORE PUSH1 0x20 PUSH0 KECCAK256 SWAP1 JUMPDEST DUP2 SLOAD DUP2 MSTORE SWAP1 PUSH1 0x1 ADD SWAP1 PUSH1 0x20 ADD DUP1 DUP4 GT PUSH2 0xB9B JUMPI DUP3 SWAP1 SUB PUSH1 0x1F AND DUP3 ADD SWAP2 JUMPDEST POP POP POP POP POP DUP2 MSTORE PUSH1 0x20 ADD PUSH1 0x2 DUP3 ADD SLOAD DUP2 MSTORE PUSH1 0x20 ADD PUSH1 0x3 DUP3 ADD SLOAD DUP2 MSTORE POP POP SWAP1 POP DUP1 PUSH1 0x20 ADD MLOAD SWAP2 POP POP SWAP3 SWAP2 POP POP JUMP JUMPDEST PUSH0 PUSH1 0x1 PUSH0 DUP5 PUSH20 0xFFFFFFFFFFFFFFFFFFFFFFFFFFFFFFFFFFFFFFFF AND PUSH20 0xFFFFFFFFFFFFFFFFFFFFFFFFFFFFFFFFFFFFFFFF AND DUP2 MSTORE PUSH1 0x20 ADD SWAP1 DUP2 MSTORE PUSH1 0x20 ADD PUSH0 KECCAK256 PUSH0 DUP4 DUP2 MSTORE PUSH1 0x20 ADD SWAP1 DUP2 MSTORE PUSH1 0x20 ADD PUSH0 KECCAK256 PUSH0 DUP1 DUP3 ADD PUSH0 SWAP1 SSTORE PUSH1 0x1 DUP3 ADD PUSH0 PUSH2 0xC48 SWAP2 SWAP1 PUSH2 0xFBE JUMP JUMPDEST PUSH1 0x2 DUP3 ADD PUSH0 SWAP1 SSTORE PUSH1 0x3 DUP3 ADD PUSH0 SWAP1 SSTORE POP POP PUSH0 PUSH1 0x1 PUSH0 DUP6 PUSH20 0xFFFFFFFFFFFFFFFFFFFFFFFFFFFFFFFFFFFFFFFF AND PUSH20 0xFFFFFFFFFFFFFFFFFFFFFFFFFFFFFFFFFFFFFFFF AND DUP2 MSTORE PUSH1 0x20 ADD SWAP1 DUP2 MSTORE PUSH1 0x20 ADD PUSH0 KECCAK256 PUSH0 DUP5 DUP2 MSTORE PUSH1 0x20 ADD SWAP1 DUP2 MSTORE PUSH1 0x20 ADD PUSH0 KECCAK256 PUSH0 ADD SLOAD EQ DUP1 ISZERO PUSH2 0xCBA JUMPI POP PUSH2 0xCB9 DUP3 PUSH2 0xE6E JUMP JUMPDEST JUMPDEST DUP1 ISZERO PUSH2 0xCCC JUMPI POP PUSH2 0xCCB DUP3 DUP5 PUSH2 0xED8 JUMP JUMPDEST JUMPDEST ISZERO PUSH2 0xCDA JUMPI PUSH1 0x1 SWAP1 POP PUSH2 0xCDE JUMP JUMPDEST PUSH0 SWAP1 POP JUMPDEST SWAP3 SWAP2 POP POP JUMP JUMPDEST PUSH0 PUSH1 0x60 PUSH0 DUP1 PUSH0 PUSH1 0x1 PUSH0 DUP9 PUSH20 0xFFFFFFFFFFFFFFFFFFFFFFFFFFFFFFFFFFFFFFFF AND PUSH20 0xFFFFFFFFFFFFFFFFFFFFFFFFFFFFFFFFFFFFFFFF AND DUP2 MSTORE PUSH1 0x20 ADD SWAP1 DUP2 MSTORE PUSH1 0x20 ADD PUSH0 KECCAK256 PUSH0 DUP8 DUP2 MSTORE PUSH1 0x20 ADD SWAP1 DUP2 MSTORE PUSH1 0x20 ADD PUSH0 KECCAK256 PUSH1 0x40 MLOAD DUP1 PUSH1 0x80 ADD PUSH1 0x40 MSTORE SWAP1 DUP2 PUSH0 DUP3 ADD SLOAD DUP2 MSTORE PUSH1 0x20 ADD PUSH1 0x1 DUP3 ADD DUP1 SLOAD PUSH2 0xD5A SWAP1 PUSH2 0x15D4 JUMP JUMPDEST DUP1 PUSH1 0x1F ADD PUSH1 0x20 DUP1 SWAP2 DIV MUL PUSH1 0x20 ADD PUSH1 0x40 MLOAD SWAP1 DUP2 ADD PUSH1 0x40 MSTORE DUP1 SWAP3 SWAP2 SWAP1 DUP2 DUP2 MSTORE PUSH1 0x20 ADD DUP3 DUP1 SLOAD PUSH2 0xD86 SWAP1 PUSH2 0x15D4 JUMP JUMPDEST DUP1 ISZERO PUSH2 0xDD1 JUMPI DUP1 PUSH1 0x1F LT PUSH2 0xDA8 JUMPI PUSH2 0x100 DUP1 DUP4 SLOAD DIV MUL DUP4 MSTORE SWAP2 PUSH1 0x20 ADD SWAP2 PUSH2 0xDD1 JUMP JUMPDEST DUP3 ADD SWAP2 SWAP1 PUSH0 MSTORE PUSH1 0x20 PUSH0 KECCAK256 SWAP1 JUMPDEST DUP2 SLOAD DUP2 MSTORE SWAP1 PUSH1 0x1 ADD SWAP1 PUSH1 0x20 ADD DUP1 DUP4 GT PUSH2 0xDB4 JUMPI DUP3 SWAP1 SUB PUSH1 0x1F AND DUP3 ADD SWAP2 JUMPDEST POP POP POP POP POP DUP2 MSTORE PUSH1 0x20 ADD PUSH1 0x2 DUP3 ADD SLOAD DUP2 MSTORE PUSH1 0x20 ADD PUSH1 0x3 DUP3 ADD SLOAD DUP2 MSTORE POP POP SWAP1 POP DUP1 PUSH0 ADD MLOAD DUP2 PUSH1 0x20 ADD MLOAD DUP3 PUSH1 0x40 ADD MLOAD DUP4 PUSH1 0x60 ADD MLOAD SWAP5 POP SWAP5 POP SWAP5 POP SWAP5 POP POP SWAP3 SWAP6 SWAP2 SWAP5 POP SWAP3 POP JUMP JUMPDEST DUP1 PUSH1 0x1 PUSH0 DUP6 PUSH20 0xFFFFFFFFFFFFFFFFFFFFFFFFFFFFFFFFFFFFFFFF AND PUSH20 0xFFFFFFFFFFFFFFFFFFFFFFFFFFFFFFFFFFFFFFFF AND DUP2 MSTORE PUSH1 0x20 ADD SWAP1 DUP2 MSTORE PUSH1 0x20 ADD PUSH0 KECCAK256 PUSH0 DUP5 DUP2 MSTORE PUSH1 0x20 ADD SWAP1 DUP2 MSTORE PUSH1 0x20 ADD PUSH0 KECCAK256 PUSH1 0x2 ADD DUP2 SWAP1 SSTORE POP POP POP POP JUMP JUMPDEST PUSH0 DUP1 PUSH0 SWAP1 POP JUMPDEST DUP3 PUSH1 0x3 DUP3 DUP2 SLOAD DUP2 LT PUSH2 0xE89 JUMPI PUSH2 0xE88 PUSH2 0x1A39 JUMP JUMPDEST JUMPDEST SWAP1 PUSH0 MSTORE PUSH1 0x20 PUSH0 KECCAK256 ADD SLOAD SUB PUSH2 0xEC0 JUMPI PUSH1 0x3 DUP2 DUP2 SLOAD DUP2 LT PUSH2 0xEAB JUMPI PUSH2 0xEAA PUSH2 0x1A39 JUMP JUMPDEST JUMPDEST SWAP1 PUSH0 MSTORE PUSH1 0x20 PUSH0 KECCAK256 ADD PUSH0 SWAP1 SSTORE PUSH1 0x1 SWAP2 POP POP PUSH2 0xED3 JUMP JUMPDEST DUP1 DUP1 PUSH2 0xECB SWAP1 PUSH2 0x1A93 JUMP JUMPDEST SWAP2 POP POP PUSH2 0xE74 JUMP JUMPDEST SWAP2 SWAP1 POP JUMP JUMPDEST PUSH0 DUP1 PUSH0 SWAP1 POP PUSH0 JUMPDEST DUP5 PUSH1 0x2 PUSH0 DUP7 PUSH20 0xFFFFFFFFFFFFFFFFFFFFFFFFFFFFFFFFFFFFFFFF AND PUSH20 0xFFFFFFFFFFFFFFFFFFFFFFFFFFFFFFFFFFFFFFFF AND DUP2 MSTORE PUSH1 0x20 ADD SWAP1 DUP2 MSTORE PUSH1 0x20 ADD PUSH0 KECCAK256 DUP3 DUP2 SLOAD DUP2 LT PUSH2 0xF2F JUMPI PUSH2 0xF2E PUSH2 0x1A39 JUMP JUMPDEST JUMPDEST SWAP1 PUSH0 MSTORE PUSH1 0x20 PUSH0 KECCAK256 ADD SLOAD SUB PUSH2 0xFA5 JUMPI PUSH1 0x2 PUSH0 DUP6 PUSH20 0xFFFFFFFFFFFFFFFFFFFFFFFFFFFFFFFFFFFFFFFF AND PUSH20 0xFFFFFFFFFFFFFFFFFFFFFFFFFFFFFFFFFFFFFFFF AND DUP2 MSTORE PUSH1 0x20 ADD SWAP1 DUP2 MSTORE PUSH1 0x20 ADD PUSH0 KECCAK256 DUP2 DUP2 SLOAD DUP2 LT PUSH2 0xF8C JUMPI PUSH2 0xF8B PUSH2 0x1A39 JUMP JUMPDEST JUMPDEST SWAP1 PUSH0 MSTORE PUSH1 0x20 PUSH0 KECCAK256 ADD PUSH0 SWAP1 SSTORE PUSH1 0x1 SWAP2 POP DUP2 SWAP3 POP POP POP PUSH2 0xFB8 JUMP JUMPDEST DUP1 DUP1 PUSH2 0xFB0 SWAP1 PUSH2 0x1A93 JUMP JUMPDEST SWAP2 POP POP PUSH2 0xEDF JUMP JUMPDEST SWAP3 SWAP2 POP POP JUMP JUMPDEST POP DUP1 SLOAD PUSH2 0xFCA SWAP1 PUSH2 0x15D4 JUMP JUMPDEST PUSH0 DUP3 SSTORE DUP1 PUSH1 0x1F LT PUSH2 0xFDB JUMPI POP PUSH2 0xFF8 JUMP JUMPDEST PUSH1 0x1F ADD PUSH1 0x20 SWAP1 DIV SWAP1 PUSH0 MSTORE PUSH1 0x20 PUSH0 KECCAK256 SWAP1 DUP2 ADD SWAP1 PUSH2 0xFF7 SWAP2 SWAP1 PUSH2 0xFFB JUMP JUMPDEST JUMPDEST POP JUMP JUMPDEST JUMPDEST DUP1 DUP3 GT ISZERO PUSH2 0x1012 JUMPI PUSH0 DUP2 PUSH0 SWAP1 SSTORE POP PUSH1 0x1 ADD PUSH2 0xFFC JUMP JUMPDEST POP SWAP1 JUMP JUMPDEST PUSH0 PUSH1 0x40 MLOAD SWAP1 POP SWAP1 JUMP JUMPDEST PUSH0 DUP1 REVERT JUMPDEST PUSH0 DUP1 REVERT JUMPDEST PUSH0 PUSH20 0xFFFFFFFFFFFFFFFFFFFFFFFFFFFFFFFFFFFFFFFF DUP3 AND SWAP1 POP SWAP2 SWAP1 POP JUMP JUMPDEST PUSH0 PUSH2 0x1050 DUP3 PUSH2 0x1027 JUMP JUMPDEST SWAP1 POP SWAP2 SWAP1 POP JUMP JUMPDEST PUSH2 0x1060 DUP2 PUSH2 0x1046 JUMP JUMPDEST DUP2 EQ PUSH2 0x106A JUMPI PUSH0 DUP1 REVERT JUMPDEST POP JUMP JUMPDEST PUSH0 DUP2 CALLDATALOAD SWAP1 POP PUSH2 0x107B DUP2 PUSH2 0x1057 JUMP JUMPDEST SWAP3 SWAP2 POP POP JUMP JUMPDEST PUSH0 DUP2 SWAP1 POP SWAP2 SWAP1 POP JUMP JUMPDEST PUSH2 0x1093 DUP2 PUSH2 0x1081 JUMP JUMPDEST DUP2 EQ PUSH2 0x109D JUMPI PUSH0 DUP1 REVERT JUMPDEST POP JUMP JUMPDEST PUSH0 DUP2 CALLDATALOAD SWAP1 POP PUSH2 0x10AE DUP2 PUSH2 0x108A JUMP JUMPDEST SWAP3 SWAP2 POP POP JUMP JUMPDEST PUSH0 DUP1 PUSH1 0x40 DUP4 DUP6 SUB SLT ISZERO PUSH2 0x10CA JUMPI PUSH2 0x10C9 PUSH2 0x101F JUMP JUMPDEST JUMPDEST PUSH0 PUSH2 0x10D7 DUP6 DUP3 DUP7 ADD PUSH2 0x106D JUMP JUMPDEST SWAP3 POP POP PUSH1 0x20 PUSH2 0x10E8 DUP6 DUP3 DUP7 ADD PUSH2 0x10A0 JUMP JUMPDEST SWAP2 POP POP SWAP3 POP SWAP3 SWAP1 POP JUMP JUMPDEST PUSH0 DUP2 ISZERO ISZERO SWAP1 POP SWAP2 SWAP1 POP JUMP JUMPDEST PUSH2 0x1106 DUP2 PUSH2 0x10F2 JUMP JUMPDEST DUP3 MSTORE POP POP JUMP JUMPDEST PUSH0 PUSH1 0x20 DUP3 ADD SWAP1 POP PUSH2 0x111F PUSH0 DUP4 ADD DUP5 PUSH2 0x10FD JUMP JUMPDEST SWAP3 SWAP2 POP POP JUMP JUMPDEST PUSH0 PUSH1 0x20 DUP3 DUP5 SUB SLT ISZERO PUSH2 0x113A JUMPI PUSH2 0x1139 PUSH2 0x101F JUMP JUMPDEST JUMPDEST PUSH0 PUSH2 0x1147 DUP5 DUP3 DUP6 ADD PUSH2 0x106D JUMP JUMPDEST SWAP2 POP POP SWAP3 SWAP2 POP POP JUMP JUMPDEST PUSH0 DUP2 MLOAD SWAP1 POP SWAP2 SWAP1 POP JUMP JUMPDEST PUSH0 DUP3 DUP3 MSTORE PUSH1 0x20 DUP3 ADD SWAP1 POP SWAP3 SWAP2 POP POP JUMP JUMPDEST PUSH0 DUP2 SWAP1 POP PUSH1 0x20 DUP3 ADD SWAP1 POP SWAP2 SWAP1 POP JUMP JUMPDEST PUSH2 0x1182 DUP2 PUSH2 0x1081 JUMP JUMPDEST DUP3 MSTORE POP POP JUMP JUMPDEST PUSH0 PUSH2 0x1193 DUP4 DUP4 PUSH2 0x1179 JUMP JUMPDEST PUSH1 0x20 DUP4 ADD SWAP1 POP SWAP3 SWAP2 POP POP JUMP JUMPDEST PUSH0 PUSH1 0x20 DUP3 ADD SWAP1 POP SWAP2 SWAP1 POP JUMP JUMPDEST PUSH0 PUSH2 0x11B5 DUP3 PUSH2 0x1150 JUMP JUMPDEST PUSH2 0x11BF DUP2 DUP6 PUSH2 0x115A JUMP JUMPDEST SWAP4 POP PUSH2 0x11CA DUP4 PUSH2 0x116A JUMP JUMPDEST DUP1 PUSH0 JUMPDEST DUP4 DUP2 LT ISZERO PUSH2 0x11FA JUMPI DUP2 MLOAD PUSH2 0x11E1 DUP9 DUP3 PUSH2 0x1188 JUMP JUMPDEST SWAP8 POP PUSH2 0x11EC DUP4 PUSH2 0x119F JUMP JUMPDEST SWAP3 POP POP PUSH1 0x1 DUP2 ADD SWAP1 POP PUSH2 0x11CD JUMP JUMPDEST POP DUP6 SWAP4 POP POP POP POP SWAP3 SWAP2 POP POP JUMP JUMPDEST PUSH0 PUSH1 0x20 DUP3 ADD SWAP1 POP DUP2 DUP2 SUB PUSH0 DUP4 ADD MSTORE PUSH2 0x121F DUP2 DUP5 PUSH2 0x11AB JUMP JUMPDEST SWAP1 POP SWAP3 SWAP2 POP POP JUMP JUMPDEST PUSH2 0x1230 DUP2 PUSH2 0x1081 JUMP JUMPDEST DUP3 MSTORE POP POP JUMP JUMPDEST PUSH0 PUSH1 0x20 DUP3 ADD SWAP1 POP PUSH2 0x1249 PUSH0 DUP4 ADD DUP5 PUSH2 0x1227 JUMP JUMPDEST SWAP3 SWAP2 POP POP JUMP JUMPDEST PUSH0 DUP1 REVERT JUMPDEST PUSH0 DUP1 REVERT JUMPDEST PUSH0 PUSH1 0x1F NOT PUSH1 0x1F DUP4 ADD AND SWAP1 POP SWAP2 SWAP1 POP JUMP JUMPDEST PUSH32 0x4E487B7100000000000000000000000000000000000000000000000000000000 PUSH0 MSTORE PUSH1 0x41 PUSH1 0x4 MSTORE PUSH1 0x24 PUSH0 REVERT JUMPDEST PUSH2 0x129D DUP3 PUSH2 0x1257 JUMP JUMPDEST DUP2 ADD DUP2 DUP2 LT PUSH8 0xFFFFFFFFFFFFFFFF DUP3 GT OR ISZERO PUSH2 0x12BC JUMPI PUSH2 0x12BB PUSH2 0x1267 JUMP JUMPDEST JUMPDEST DUP1 PUSH1 0x40 MSTORE POP POP POP JUMP JUMPDEST PUSH0 PUSH2 0x12CE PUSH2 0x1016 JUMP JUMPDEST SWAP1 POP PUSH2 0x12DA DUP3 DUP3 PUSH2 0x1294 JUMP JUMPDEST SWAP2 SWAP1 POP JUMP JUMPDEST PUSH0 PUSH8 0xFFFFFFFFFFFFFFFF DUP3 GT ISZERO PUSH2 0x12F9 JUMPI PUSH2 0x12F8 PUSH2 0x1267 JUMP JUMPDEST JUMPDEST PUSH2 0x1302 DUP3 PUSH2 0x1257 JUMP JUMPDEST SWAP1 POP PUSH1 0x20 DUP2 ADD SWAP1 POP SWAP2 SWAP1 POP JUMP JUMPDEST DUP3 DUP2 DUP4 CALLDATACOPY PUSH0 DUP4 DUP4 ADD MSTORE POP POP POP JUMP JUMPDEST PUSH0 PUSH2 0x132F PUSH2 0x132A DUP5 PUSH2 0x12DF JUMP JUMPDEST PUSH2 0x12C5 JUMP JUMPDEST SWAP1 POP DUP3 DUP2 MSTORE PUSH1 0x20 DUP2 ADD DUP5 DUP5 DUP5 ADD GT ISZERO PUSH2 0x134B JUMPI PUSH2 0x134A PUSH2 0x1253 JUMP JUMPDEST JUMPDEST PUSH2 0x1356 DUP5 DUP3 DUP6 PUSH2 0x130F JUMP JUMPDEST POP SWAP4 SWAP3 POP POP POP JUMP JUMPDEST PUSH0 DUP3 PUSH1 0x1F DUP4 ADD SLT PUSH2 0x1372 JUMPI PUSH2 0x1371 PUSH2 0x124F JUMP JUMPDEST JUMPDEST DUP2 CALLDATALOAD PUSH2 0x1382 DUP5 DUP3 PUSH1 0x20 DUP7 ADD PUSH2 0x131D JUMP JUMPDEST SWAP2 POP POP SWAP3 SWAP2 POP POP JUMP JUMPDEST PUSH0 DUP1 PUSH0 DUP1 PUSH1 0x80 DUP6 DUP8 SUB SLT ISZERO PUSH2 0x13A3 JUMPI PUSH2 0x13A2 PUSH2 0x101F JUMP JUMPDEST JUMPDEST PUSH0 PUSH2 0x13B0 DUP8 DUP3 DUP9 ADD PUSH2 0x106D JUMP JUMPDEST SWAP5 POP POP PUSH1 0x20 DUP6 ADD CALLDATALOAD PUSH8 0xFFFFFFFFFFFFFFFF DUP2 GT ISZERO PUSH2 0x13D1 JUMPI PUSH2 0x13D0 PUSH2 0x1023 JUMP JUMPDEST JUMPDEST PUSH2 0x13DD DUP8 DUP3 DUP9 ADD PUSH2 0x135E JUMP JUMPDEST SWAP4 POP POP PUSH1 0x40 PUSH2 0x13EE DUP8 DUP3 DUP9 ADD PUSH2 0x10A0 JUMP JUMPDEST SWAP3 POP POP PUSH1 0x60 PUSH2 0x13FF DUP8 DUP3 DUP9 ADD PUSH2 0x10A0 JUMP JUMPDEST SWAP2 POP POP SWAP3 SWAP6 SWAP2 SWAP5 POP SWAP3 POP JUMP JUMPDEST PUSH0 DUP2 MLOAD SWAP1 POP SWAP2 SWAP1 POP JUMP JUMPDEST PUSH0 DUP3 DUP3 MSTORE PUSH1 0x20 DUP3 ADD SWAP1 POP SWAP3 SWAP2 POP POP JUMP JUMPDEST PUSH0 JUMPDEST DUP4 DUP2 LT ISZERO PUSH2 0x1442 JUMPI DUP1 DUP3 ADD MLOAD DUP2 DUP5 ADD MSTORE PUSH1 0x20 DUP2 ADD SWAP1 POP PUSH2 0x1427 JUMP JUMPDEST PUSH0 DUP5 DUP5 ADD MSTORE POP POP POP POP JUMP JUMPDEST PUSH0 PUSH2 0x1457 DUP3 PUSH2 0x140B JUMP JUMPDEST PUSH2 0x1461 DUP2 DUP6 PUSH2 0x1415 JUMP JUMPDEST SWAP4 POP PUSH2 0x1471 DUP2 DUP6 PUSH1 0x20 DUP7 ADD PUSH2 0x1425 JUMP JUMPDEST PUSH2 0x147A DUP2 PUSH2 0x1257 JUMP JUMPDEST DUP5 ADD SWAP2 POP POP SWAP3 SWAP2 POP POP JUMP JUMPDEST PUSH0 PUSH1 0x80 DUP3 ADD SWAP1 POP PUSH2 0x1498 PUSH0 DUP4 ADD DUP8 PUSH2 0x1227 JUMP JUMPDEST DUP2 DUP2 SUB PUSH1 0x20 DUP4 ADD MSTORE PUSH2 0x14AA DUP2 DUP7 PUSH2 0x144D JUMP JUMPDEST SWAP1 POP PUSH2 0x14B9 PUSH1 0x40 DUP4 ADD DUP6 PUSH2 0x1227 JUMP JUMPDEST PUSH2 0x14C6 PUSH1 0x60 DUP4 ADD DUP5 PUSH2 0x1227 JUMP JUMPDEST SWAP6 SWAP5 POP POP POP POP POP JUMP JUMPDEST PUSH0 DUP1 PUSH0 PUSH1 0x60 DUP5 DUP7 SUB SLT ISZERO PUSH2 0x14E6 JUMPI PUSH2 0x14E5 PUSH2 0x101F JUMP JUMPDEST JUMPDEST PUSH0 PUSH2 0x14F3 DUP7 DUP3 DUP8 ADD PUSH2 0x106D JUMP JUMPDEST SWAP4 POP POP PUSH1 0x20 PUSH2 0x1504 DUP7 DUP3 DUP8 ADD PUSH2 0x10A0 JUMP JUMPDEST SWAP3 POP POP PUSH1 0x40 PUSH2 0x1515 DUP7 DUP3 DUP8 ADD PUSH2 0x10A0 JUMP JUMPDEST SWAP2 POP POP SWAP3 POP SWAP3 POP SWAP3 JUMP JUMPDEST PUSH0 PUSH1 0x20 DUP3 ADD SWAP1 POP DUP2 DUP2 SUB PUSH0 DUP4 ADD MSTORE PUSH2 0x1537 DUP2 DUP5 PUSH2 0x144D JUMP JUMPDEST SWAP1 POP SWAP3 SWAP2 POP POP JUMP JUMPDEST PUSH32 0x4944204D696C6B4261746368204E6F742056616C696421000000000000000000 PUSH0 DUP3 ADD MSTORE POP JUMP JUMPDEST PUSH0 PUSH2 0x1573 PUSH1 0x17 DUP4 PUSH2 0x1415 JUMP JUMPDEST SWAP2 POP PUSH2 0x157E DUP3 PUSH2 0x153F JUMP JUMPDEST PUSH1 0x20 DUP3 ADD SWAP1 POP SWAP2 SWAP1 POP JUMP JUMPDEST PUSH0 PUSH1 0x20 DUP3 ADD SWAP1 POP DUP2 DUP2 SUB PUSH0 DUP4 ADD MSTORE PUSH2 0x15A0 DUP2 PUSH2 0x1567 JUMP JUMPDEST SWAP1 POP SWAP2 SWAP1 POP JUMP JUMPDEST PUSH32 0x4E487B7100000000000000000000000000000000000000000000000000000000 PUSH0 MSTORE PUSH1 0x22 PUSH1 0x4 MSTORE PUSH1 0x24 PUSH0 REVERT JUMPDEST PUSH0 PUSH1 0x2 DUP3 DIV SWAP1 POP PUSH1 0x1 DUP3 AND DUP1 PUSH2 0x15EB JUMPI PUSH1 0x7F DUP3 AND SWAP2 POP JUMPDEST PUSH1 0x20 DUP3 LT DUP2 SUB PUSH2 0x15FE JUMPI PUSH2 0x15FD PUSH2 0x15A7 JUMP JUMPDEST JUMPDEST POP SWAP2 SWAP1 POP JUMP JUMPDEST PUSH0 DUP2 SWAP1 POP SWAP3 SWAP2 POP POP JUMP JUMPDEST PUSH0 PUSH2 0x1618 DUP3 PUSH2 0x140B JUMP JUMPDEST PUSH2 0x1622 DUP2 DUP6 PUSH2 0x1604 JUMP JUMPDEST SWAP4 POP PUSH2 0x1632 DUP2 DUP6 PUSH1 0x20 DUP7 ADD PUSH2 0x1425 JUMP JUMPDEST DUP1 DUP5 ADD SWAP2 POP POP SWAP3 SWAP2 POP POP JUMP JUMPDEST PUSH0 DUP2 SWAP1 POP SWAP2 SWAP1 POP JUMP JUMPDEST PUSH2 0x1658 PUSH2 0x1653 DUP3 PUSH2 0x1081 JUMP JUMPDEST PUSH2 0x163E JUMP JUMPDEST DUP3 MSTORE POP POP JUMP JUMPDEST PUSH0 DUP2 PUSH1 0x60 SHL SWAP1 POP SWAP2 SWAP1 POP JUMP JUMPDEST PUSH0 PUSH2 0x1674 DUP3 PUSH2 0x165E JUMP JUMPDEST SWAP1 POP SWAP2 SWAP1 POP JUMP JUMPDEST PUSH0 PUSH2 0x1685 DUP3 PUSH2 0x166A JUMP JUMPDEST SWAP1 POP SWAP2 SWAP1 POP JUMP JUMPDEST PUSH2 0x169D PUSH2 0x1698 DUP3 PUSH2 0x1046 JUMP JUMPDEST PUSH2 0x167B JUMP JUMPDEST DUP3 MSTORE POP POP JUMP JUMPDEST PUSH0 PUSH2 0x16AE DUP3 DUP9 PUSH2 0x160E JUMP JUMPDEST SWAP2 POP PUSH2 0x16BA DUP3 DUP8 PUSH2 0x1647 JUMP JUMPDEST PUSH1 0x20 DUP3 ADD SWAP2 POP PUSH2 0x16CA DUP3 DUP7 PUSH2 0x1647 JUMP JUMPDEST PUSH1 0x20 DUP3 ADD SWAP2 POP PUSH2 0x16DA DUP3 DUP6 PUSH2 0x168C JUMP JUMPDEST PUSH1 0x14 DUP3 ADD SWAP2 POP PUSH2 0x16EA DUP3 DUP5 PUSH2 0x1647 JUMP JUMPDEST PUSH1 0x20 DUP3 ADD SWAP2 POP DUP2 SWAP1 POP SWAP7 SWAP6 POP POP POP POP POP POP JUMP JUMPDEST PUSH0 DUP2 SWAP1 POP DUP2 PUSH0 MSTORE PUSH1 0x20 PUSH0 KECCAK256 SWAP1 POP SWAP2 SWAP1 POP JUMP JUMPDEST PUSH0 PUSH1 0x20 PUSH1 0x1F DUP4 ADD DIV SWAP1 POP SWAP2 SWAP1 POP JUMP JUMPDEST PUSH0 DUP3 DUP3 SHL SWAP1 POP SWAP3 SWAP2 POP POP JUMP JUMPDEST PUSH0 PUSH1 0x8 DUP4 MUL PUSH2 0x1759 PUSH32 0xFFFFFFFFFFFFFFFFFFFFFFFFFFFFFFFFFFFFFFFFFFFFFFFFFFFFFFFFFFFFFFFF DUP3 PUSH2 0x171E JUMP JUMPDEST PUSH2 0x1763 DUP7 DUP4 PUSH2 0x171E JUMP JUMPDEST SWAP6 POP DUP1 NOT DUP5 AND SWAP4 POP DUP1 DUP7 AND DUP5 OR SWAP3 POP POP POP SWAP4 SWAP3 POP POP POP JUMP JUMPDEST PUSH0 DUP2 SWAP1 POP SWAP2 SWAP1 POP JUMP JUMPDEST PUSH0 PUSH2 0x179E PUSH2 0x1799 PUSH2 0x1794 DUP5 PUSH2 0x1081 JUMP JUMPDEST PUSH2 0x177B JUMP JUMPDEST PUSH2 0x1081 JUMP JUMPDEST SWAP1 POP SWAP2 SWAP1 POP JUMP JUMPDEST PUSH0 DUP2 SWAP1 POP SWAP2 SWAP1 POP JUMP JUMPDEST PUSH2 0x17B7 DUP4 PUSH2 0x1784 JUMP JUMPDEST PUSH2 0x17CB PUSH2 0x17C3 DUP3 PUSH2 0x17A5 JUMP JUMPDEST DUP5 DUP5 SLOAD PUSH2 0x172A JUMP JUMPDEST DUP3 SSTORE POP POP POP POP JUMP JUMPDEST PUSH0 SWAP1 JUMP JUMPDEST PUSH2 0x17DF PUSH2 0x17D3 JUMP JUMPDEST PUSH2 0x17EA DUP2 DUP5 DUP5 PUSH2 0x17AE JUMP JUMPDEST POP POP POP JUMP JUMPDEST JUMPDEST DUP2 DUP2 LT ISZERO PUSH2 0x180D JUMPI PUSH2 0x1802 PUSH0 DUP3 PUSH2 0x17D7 JUMP JUMPDEST PUSH1 0x1 DUP2 ADD SWAP1 POP PUSH2 0x17F0 JUMP JUMPDEST POP POP JUMP JUMPDEST PUSH1 0x1F DUP3 GT ISZERO PUSH2 0x1852 JUMPI PUSH2 0x1823 DUP2 PUSH2 0x16FD JUMP JUMPDEST PUSH2 0x182C DUP5 PUSH2 0x170F JUMP JUMPDEST DUP2 ADD PUSH1 0x20 DUP6 LT ISZERO PUSH2 0x183B JUMPI DUP2 SWAP1 POP JUMPDEST PUSH2 0x184F PUSH2 0x1847 DUP6 PUSH2 0x170F JUMP JUMPDEST DUP4 ADD DUP3 PUSH2 0x17EF JUMP JUMPDEST POP POP JUMPDEST POP POP POP JUMP JUMPDEST PUSH0 DUP3 DUP3 SHR SWAP1 POP SWAP3 SWAP2 POP POP JUMP JUMPDEST PUSH0 PUSH2 0x1872 PUSH0 NOT DUP5 PUSH1 0x8 MUL PUSH2 0x1857 JUMP JUMPDEST NOT DUP1 DUP4 AND SWAP2 POP POP SWAP3 SWAP2 POP POP JUMP JUMPDEST PUSH0 PUSH2 0x188A DUP4 DUP4 PUSH2 0x1863 JUMP JUMPDEST SWAP2 POP DUP3 PUSH1 0x2 MUL DUP3 OR SWAP1 POP SWAP3 SWAP2 POP POP JUMP JUMPDEST PUSH2 0x18A3 DUP3 PUSH2 0x140B JUMP JUMPDEST PUSH8 0xFFFFFFFFFFFFFFFF DUP2 GT ISZERO PUSH2 0x18BC JUMPI PUSH2 0x18BB PUSH2 0x1267 JUMP JUMPDEST JUMPDEST PUSH2 0x18C6 DUP3 SLOAD PUSH2 0x15D4 JUMP JUMPDEST PUSH2 0x18D1 DUP3 DUP3 DUP6 PUSH2 0x1811 JUMP JUMPDEST PUSH0 PUSH1 0x20 SWAP1 POP PUSH1 0x1F DUP4 GT PUSH1 0x1 DUP2 EQ PUSH2 0x1902 JUMPI PUSH0 DUP5 ISZERO PUSH2 0x18F0 JUMPI DUP3 DUP8 ADD MLOAD SWAP1 POP JUMPDEST PUSH2 0x18FA DUP6 DUP3 PUSH2 0x187F JUMP JUMPDEST DUP7 SSTORE POP PUSH2 0x1961 JUMP JUMPDEST PUSH1 0x1F NOT DUP5 AND PUSH2 0x1910 DUP7 PUSH2 0x16FD JUMP JUMPDEST PUSH0 JUMPDEST DUP3 DUP2 LT ISZERO PUSH2 0x1937 JUMPI DUP5 DUP10 ADD MLOAD DUP3 SSTORE PUSH1 0x1 DUP3 ADD SWAP2 POP PUSH1 0x20 DUP6 ADD SWAP5 POP PUSH1 0x20 DUP2 ADD SWAP1 POP PUSH2 0x1912 JUMP JUMPDEST DUP7 DUP4 LT ISZERO PUSH2 0x1954 JUMPI DUP5 DUP10 ADD MLOAD PUSH2 0x1950 PUSH1 0x1F DUP10 AND DUP3 PUSH2 0x1863 JUMP JUMPDEST DUP4 SSTORE POP JUMPDEST PUSH1 0x1 PUSH1 0x2 DUP9 MUL ADD DUP9 SSTORE POP POP POP JUMPDEST POP POP POP POP POP POP JUMP JUMPDEST PUSH32 0x50726F64756374206E6F6E2070726573656E7465210000000000000000000000 PUSH0 DUP3 ADD MSTORE POP JUMP JUMPDEST PUSH0 PUSH2 0x199D PUSH1 0x15 DUP4 PUSH2 0x1415 JUMP JUMPDEST SWAP2 POP PUSH2 0x19A8 DUP3 PUSH2 0x1969 JUMP JUMPDEST PUSH1 0x20 DUP3 ADD SWAP1 POP SWAP2 SWAP1 POP JUMP JUMPDEST PUSH0 PUSH1 0x20 DUP3 ADD SWAP1 POP DUP2 DUP2 SUB PUSH0 DUP4 ADD MSTORE PUSH2 0x19CA DUP2 PUSH2 0x1991 JUMP JUMPDEST SWAP1 POP SWAP2 SWAP1 POP JUMP JUMPDEST PUSH32 0x5175616E74697479206E6F742056616C69642100000000000000000000000000 PUSH0 DUP3 ADD MSTORE POP JUMP JUMPDEST PUSH0 PUSH2 0x1A05 PUSH1 0x13 DUP4 PUSH2 0x1415 JUMP JUMPDEST SWAP2 POP PUSH2 0x1A10 DUP3 PUSH2 0x19D1 JUMP JUMPDEST PUSH1 0x20 DUP3 ADD SWAP1 POP SWAP2 SWAP1 POP JUMP JUMPDEST PUSH0 PUSH1 0x20 DUP3 ADD SWAP1 POP DUP2 DUP2 SUB PUSH0 DUP4 ADD MSTORE PUSH2 0x1A32 DUP2 PUSH2 0x19F9 JUMP JUMPDEST SWAP1 POP SWAP2 SWAP1 POP JUMP JUMPDEST PUSH32 0x4E487B7100000000000000000000000000000000000000000000000000000000 PUSH0 MSTORE PUSH1 0x32 PUSH1 0x4 MSTORE PUSH1 0x24 PUSH0 REVERT JUMPDEST PUSH32 0x4E487B7100000000000000000000000000000000000000000000000000000000 PUSH0 MSTORE PUSH1 0x11 PUSH1 0x4 MSTORE PUSH1 0x24 PUSH0 REVERT JUMPDEST PUSH0 PUSH2 0x1A9D DUP3 PUSH2 0x1081 JUMP JUMPDEST SWAP2 POP PUSH32 0xFFFFFFFFFFFFFFFFFFFFFFFFFFFFFFFFFFFFFFFFFFFFFFFFFFFFFFFFFFFFFFFF DUP3 SUB PUSH2 0x1ACF JUMPI PUSH2 0x1ACE PUSH2 0x1A66 JUMP JUMPDEST JUMPDEST PUSH1 0x1 DUP3 ADD SWAP1 POP SWAP2 SWAP1 POP JUMP INVALID LOG2 PUSH5 0x6970667358 0x22 SLT KECCAK256 LOG1 0xBE 0xF8 BLOCKHASH LOG2 DUP16 LOG0 JUMP PUSH32 0x583A6CD5ADBEDD88845E22C36B055B21ADF2AEE45AC83764736F6C6343000816 STOP CALLER "
				},
				"gasEstimates": {
					"creation": {
						"codeDepositCost": "1385600",
						"executionCost": "25707",
						"totalCost": "1411307"
					},
					"external": {
						"addMilkBatch(address,string,uint256,uint256)": "infinite",
						"checkProduct(address,uint256,uint256)": "infinite",
						"deleteMilkBatch(address,uint256)": "infinite",
						"getExpirationDate(address,uint256)": "infinite",
						"getGlobalMilkBatchIds()": "infinite",
						"getMilkBatch(address,uint256)": "infinite",
						"getPrice(address,uint256)": "infinite",
						"getQuantity(address,uint256)": "infinite",
						"getUserMilkBatchIds(address)": "infinite",
						"isMilkBatchPresent(address,uint256)": "3150",
						"updateQuantity(address,uint256,uint256)": "infinite"
					},
					"internal": {
						"deleteMilkBatchIdFromList(uint256)": "infinite",
						"deleteMilkBatchIdFromListSingleUser(uint256,address)": "infinite"
					}
				},
				"methodIdentifiers": {
					"addMilkBatch(address,string,uint256,uint256)": "8317679f",
					"checkProduct(address,uint256,uint256)": "87abc216",
					"deleteMilkBatch(address,uint256)": "ad9c10a1",
					"getExpirationDate(address,uint256)": "9f2b6898",
					"getGlobalMilkBatchIds()": "7950814d",
					"getMilkBatch(address,uint256)": "ce4fcf23",
					"getPrice(address,uint256)": "449e815d",
					"getQuantity(address,uint256)": "1e073fcf",
					"getUserMilkBatchIds(address)": "1d49cc62",
					"isMilkBatchPresent(address,uint256)": "02d805f6",
					"updateQuantity(address,uint256,uint256)": "f2492078"
				}
			},
			"storageLayout": {
				"storage": [
					{
						"astId": 3,
						"contract": "contracts/Actor/MilkHub-smart-contract/inventory/MilkHubInventoryStorage.sol:MilkHubInventoryStorage",
						"label": "MilkHubOrg",
						"offset": 0,
						"slot": "0",
						"type": "t_address"
					},
					{
						"astId": 29,
						"contract": "contracts/Actor/MilkHub-smart-contract/inventory/MilkHubInventoryStorage.sol:MilkHubInventoryStorage",
						"label": "milkBatches",
						"offset": 0,
						"slot": "1",
						"type": "t_mapping(t_address,t_mapping(t_uint256,t_struct(MilkBatch)21_storage))"
					},
					{
						"astId": 34,
						"contract": "contracts/Actor/MilkHub-smart-contract/inventory/MilkHubInventoryStorage.sol:MilkHubInventoryStorage",
						"label": "userMilkBatchIds",
						"offset": 0,
						"slot": "2",
						"type": "t_mapping(t_address,t_array(t_uint256)dyn_storage)"
					},
					{
						"astId": 37,
						"contract": "contracts/Actor/MilkHub-smart-contract/inventory/MilkHubInventoryStorage.sol:MilkHubInventoryStorage",
						"label": "globalMilkBatchIds",
						"offset": 0,
						"slot": "3",
						"type": "t_array(t_uint256)dyn_storage"
					}
				],
				"types": {
					"t_address": {
						"encoding": "inplace",
						"label": "address",
						"numberOfBytes": "20"
					},
					"t_array(t_uint256)dyn_storage": {
						"base": "t_uint256",
						"encoding": "dynamic_array",
						"label": "uint256[]",
						"numberOfBytes": "32"
					},
					"t_mapping(t_address,t_array(t_uint256)dyn_storage)": {
						"encoding": "mapping",
						"key": "t_address",
						"label": "mapping(address => uint256[])",
						"numberOfBytes": "32",
						"value": "t_array(t_uint256)dyn_storage"
					},
					"t_mapping(t_address,t_mapping(t_uint256,t_struct(MilkBatch)21_storage))": {
						"encoding": "mapping",
						"key": "t_address",
						"label": "mapping(address => mapping(uint256 => struct MilkHubInventoryStorage.MilkBatch))",
						"numberOfBytes": "32",
						"value": "t_mapping(t_uint256,t_struct(MilkBatch)21_storage)"
					},
					"t_mapping(t_uint256,t_struct(MilkBatch)21_storage)": {
						"encoding": "mapping",
						"key": "t_uint256",
						"label": "mapping(uint256 => struct MilkHubInventoryStorage.MilkBatch)",
						"numberOfBytes": "32",
						"value": "t_struct(MilkBatch)21_storage"
					},
					"t_string_storage": {
						"encoding": "bytes",
						"label": "string",
						"numberOfBytes": "32"
					},
					"t_struct(MilkBatch)21_storage": {
						"encoding": "inplace",
						"label": "struct MilkHubInventoryStorage.MilkBatch",
						"members": [
							{
								"astId": 14,
								"contract": "contracts/Actor/MilkHub-smart-contract/inventory/MilkHubInventoryStorage.sol:MilkHubInventoryStorage",
								"label": "id",
								"offset": 0,
								"slot": "0",
								"type": "t_uint256"
							},
							{
								"astId": 16,
								"contract": "contracts/Actor/MilkHub-smart-contract/inventory/MilkHubInventoryStorage.sol:MilkHubInventoryStorage",
								"label": "expirationDate",
								"offset": 0,
								"slot": "1",
								"type": "t_string_storage"
							},
							{
								"astId": 18,
								"contract": "contracts/Actor/MilkHub-smart-contract/inventory/MilkHubInventoryStorage.sol:MilkHubInventoryStorage",
								"label": "quantity",
								"offset": 0,
								"slot": "2",
								"type": "t_uint256"
							},
							{
								"astId": 20,
								"contract": "contracts/Actor/MilkHub-smart-contract/inventory/MilkHubInventoryStorage.sol:MilkHubInventoryStorage",
								"label": "price",
								"offset": 0,
								"slot": "3",
								"type": "t_uint256"
							}
						],
						"numberOfBytes": "128"
					},
					"t_uint256": {
						"encoding": "inplace",
						"label": "uint256",
						"numberOfBytes": "32"
					}
				}
			},
			"userdoc": {
				"kind": "user",
				"methods": {
					"isMilkBatchPresent(address,uint256)": {
						"notice": "- Funzione isMilkBatchPresent() funzione per verificare che il MilkBatch è presente  - Verifica tramite id e address del walletMilkHub se il Prodotto è presente  - ritorna TRUE se il confronto è vero  - ritorna FALSE se non è presente "
					}
				},
				"version": 1
			}
		}
	}
}