{
	"contracts/Actor/MilkHub-smart-contract/inventory/MilkHubInventoryStorage.sol": {
		"MilkHubInventoryStorage": {
			"abi": [
				{
					"inputs": [],
					"stateMutability": "nonpayable",
					"type": "constructor"
				},
				{
					"inputs": [
						{
							"internalType": "address",
							"name": "walletMilkHub",
							"type": "address"
						},
						{
							"internalType": "string",
							"name": "_scadenza",
							"type": "string"
						},
						{
							"internalType": "uint256",
							"name": "_quantity",
							"type": "uint256"
						},
						{
							"internalType": "uint256",
							"name": "_price",
							"type": "uint256"
						}
					],
					"name": "addMilkBatch",
					"outputs": [
						{
							"internalType": "uint256",
							"name": "",
							"type": "uint256"
						},
						{
							"internalType": "string",
							"name": "",
							"type": "string"
						},
						{
							"internalType": "uint256",
							"name": "",
							"type": "uint256"
						},
						{
							"internalType": "uint256",
							"name": "",
							"type": "uint256"
						}
					],
					"stateMutability": "nonpayable",
					"type": "function"
				},
				{
					"inputs": [
						{
							"internalType": "address",
							"name": "ownerMilkBatch",
							"type": "address"
						},
						{
							"internalType": "uint256",
							"name": "_id_MilkBatch",
							"type": "uint256"
						},
						{
							"internalType": "uint256",
							"name": "quantityToBuy",
							"type": "uint256"
						}
					],
					"name": "checkProduct",
					"outputs": [
						{
							"internalType": "bool",
							"name": "",
							"type": "bool"
						}
					],
					"stateMutability": "view",
					"type": "function"
				},
				{
					"inputs": [
						{
							"internalType": "address",
							"name": "walletMilkHub",
							"type": "address"
						},
						{
							"internalType": "uint256",
							"name": "_id",
							"type": "uint256"
						}
					],
					"name": "deleteMilkBatch",
					"outputs": [
						{
							"internalType": "bool",
							"name": "value",
							"type": "bool"
						}
					],
					"stateMutability": "nonpayable",
					"type": "function"
				},
				{
					"inputs": [
						{
							"internalType": "address[]",
							"name": "milkHubListaddress",
							"type": "address[]"
						}
					],
					"name": "getAllMilkBatchList",
					"outputs": [
						{
							"components": [
								{
									"internalType": "uint256",
									"name": "id",
									"type": "uint256"
								},
								{
									"internalType": "string",
									"name": "scadenza",
									"type": "string"
								},
								{
									"internalType": "uint256",
									"name": "quantity",
									"type": "uint256"
								},
								{
									"internalType": "uint256",
									"name": "price",
									"type": "uint256"
								}
							],
							"internalType": "struct MilkHubInventoryStorage.MilkBatch[]",
							"name": "",
							"type": "tuple[]"
						}
					],
					"stateMutability": "view",
					"type": "function"
				},
				{
					"inputs": [
						{
							"internalType": "address",
							"name": "walletMilkHub",
							"type": "address"
						},
						{
							"internalType": "uint256",
							"name": "_id",
							"type": "uint256"
						}
					],
					"name": "getExpirationDate",
					"outputs": [
						{
							"internalType": "string",
							"name": "",
							"type": "string"
						}
					],
					"stateMutability": "view",
					"type": "function"
				},
				{
					"inputs": [
						{
							"internalType": "address",
							"name": "walletMilkHub",
							"type": "address"
						},
						{
							"internalType": "uint256",
							"name": "_id",
							"type": "uint256"
						}
					],
					"name": "getMilkBatch",
					"outputs": [
						{
							"internalType": "uint256",
							"name": "",
							"type": "uint256"
						},
						{
							"internalType": "string",
							"name": "",
							"type": "string"
						},
						{
							"internalType": "uint256",
							"name": "",
							"type": "uint256"
						},
						{
							"internalType": "uint256",
							"name": "",
							"type": "uint256"
						}
					],
					"stateMutability": "view",
					"type": "function"
				},
				{
					"inputs": [
						{
							"internalType": "address",
							"name": "walletMilkHub",
							"type": "address"
						}
					],
					"name": "getMilkBatchListByMilkHub",
					"outputs": [
						{
							"components": [
								{
									"internalType": "uint256",
									"name": "id",
									"type": "uint256"
								},
								{
									"internalType": "string",
									"name": "scadenza",
									"type": "string"
								},
								{
									"internalType": "uint256",
									"name": "quantity",
									"type": "uint256"
								},
								{
									"internalType": "uint256",
									"name": "price",
									"type": "uint256"
								}
							],
							"internalType": "struct MilkHubInventoryStorage.MilkBatch[]",
							"name": "",
							"type": "tuple[]"
						}
					],
					"stateMutability": "view",
					"type": "function"
				},
				{
					"inputs": [
						{
							"internalType": "address",
							"name": "walletMilkHub",
							"type": "address"
						},
						{
							"internalType": "uint256",
							"name": "_id",
							"type": "uint256"
						}
					],
					"name": "getPrice",
					"outputs": [
						{
							"internalType": "uint256",
							"name": "",
							"type": "uint256"
						}
					],
					"stateMutability": "view",
					"type": "function"
				},
				{
					"inputs": [
						{
							"internalType": "address",
							"name": "walletMilkHub",
							"type": "address"
						},
						{
							"internalType": "uint256",
							"name": "_id",
							"type": "uint256"
						}
					],
					"name": "getQuantity",
					"outputs": [
						{
							"internalType": "uint256",
							"name": "",
							"type": "uint256"
						}
					],
					"stateMutability": "view",
					"type": "function"
				},
				{
					"inputs": [
						{
							"internalType": "address",
							"name": "walletMilkHub",
							"type": "address"
						},
						{
							"internalType": "uint256",
							"name": "_id",
							"type": "uint256"
						}
					],
					"name": "isMilkBatchPresent",
					"outputs": [
						{
							"internalType": "bool",
							"name": "",
							"type": "bool"
						}
					],
					"stateMutability": "view",
					"type": "function"
				},
				{
					"inputs": [
						{
							"internalType": "address",
							"name": "walletMilkHub",
							"type": "address"
						},
						{
							"internalType": "uint256",
							"name": "_id",
							"type": "uint256"
						},
						{
							"internalType": "uint256",
							"name": "_newQuantity",
							"type": "uint256"
						}
					],
					"name": "updateQuantity",
					"outputs": [],
					"stateMutability": "nonpayable",
					"type": "function"
				}
			],
			"devdoc": {
				"kind": "dev",
				"methods": {},
				"version": 1
			},
			"evm": {
				"assembly": "    /* \"contracts/Actor/MilkHub-smart-contract/inventory/MilkHubInventoryStorage.sol\":60:7025  contract MilkHubInventoryStorage {... */\n  mstore(0x40, 0x80)\n    /* \"contracts/Actor/MilkHub-smart-contract/inventory/MilkHubInventoryStorage.sol\":195:250  constructor(){... */\n  callvalue\n  dup1\n  iszero\n  tag_1\n  jumpi\n  0x00\n  dup1\n  revert\ntag_1:\n  pop\n    /* \"contracts/Actor/MilkHub-smart-contract/inventory/MilkHubInventoryStorage.sol\":232:242  msg.sender */\n  caller\n    /* \"contracts/Actor/MilkHub-smart-contract/inventory/MilkHubInventoryStorage.sol\":219:229  MilkHubOrg */\n  0x00\n  dup1\n    /* \"contracts/Actor/MilkHub-smart-contract/inventory/MilkHubInventoryStorage.sol\":219:242  MilkHubOrg = msg.sender */\n  0x0100\n  exp\n  dup2\n  sload\n  dup2\n  0xffffffffffffffffffffffffffffffffffffffff\n  mul\n  not\n  and\n  swap1\n  dup4\n  0xffffffffffffffffffffffffffffffffffffffff\n  and\n  mul\n  or\n  swap1\n  sstore\n  pop\n    /* \"contracts/Actor/MilkHub-smart-contract/inventory/MilkHubInventoryStorage.sol\":60:7025  contract MilkHubInventoryStorage {... */\n  dataSize(sub_0)\n  dup1\n  dataOffset(sub_0)\n  0x00\n  codecopy\n  0x00\n  return\nstop\n\nsub_0: assembly {\n        /* \"contracts/Actor/MilkHub-smart-contract/inventory/MilkHubInventoryStorage.sol\":60:7025  contract MilkHubInventoryStorage {... */\n      mstore(0x40, 0x80)\n      callvalue\n      dup1\n      iszero\n      tag_1\n      jumpi\n      0x00\n      dup1\n      revert\n    tag_1:\n      pop\n      jumpi(tag_2, lt(calldatasize, 0x04))\n      shr(0xe0, calldataload(0x00))\n      dup1\n      0x9f2b6898\n      gt\n      tag_14\n      jumpi\n      dup1\n      0x9f2b6898\n      eq\n      tag_8\n      jumpi\n      dup1\n      0xad9c10a1\n      eq\n      tag_9\n      jumpi\n      dup1\n      0xce4fcf23\n      eq\n      tag_10\n      jumpi\n      dup1\n      0xd1f2c4a2\n      eq\n      tag_11\n      jumpi\n      dup1\n      0xd5aa1784\n      eq\n      tag_12\n      jumpi\n      dup1\n      0xf2492078\n      eq\n      tag_13\n      jumpi\n      jump(tag_2)\n    tag_14:\n      dup1\n      0x02d805f6\n      eq\n      tag_3\n      jumpi\n      dup1\n      0x1e073fcf\n      eq\n      tag_4\n      jumpi\n      dup1\n      0x449e815d\n      eq\n      tag_5\n      jumpi\n      dup1\n      0x8317679f\n      eq\n      tag_6\n      jumpi\n      dup1\n      0x87abc216\n      eq\n      tag_7\n      jumpi\n    tag_2:\n      0x00\n      dup1\n      revert\n        /* \"contracts/Actor/MilkHub-smart-contract/inventory/MilkHubInventoryStorage.sol\":4994:5216  function isMilkBatchPresent(address walletMilkHub, uint256 _id)external view returns(bool){... */\n    tag_3:\n      tag_15\n      0x04\n      dup1\n      calldatasize\n      sub\n      dup2\n      add\n      swap1\n      tag_16\n      swap2\n      swap1\n      tag_17\n      jump\t// in\n    tag_16:\n      tag_18\n      jump\t// in\n    tag_15:\n      mload(0x40)\n      tag_19\n      swap2\n      swap1\n      tag_20\n      jump\t// in\n    tag_19:\n      mload(0x40)\n      dup1\n      swap2\n      sub\n      swap1\n      return\n        /* \"contracts/Actor/MilkHub-smart-contract/inventory/MilkHubInventoryStorage.sol\":5610:5825  function getQuantity(address walletMilkHub, uint256 _id) external view returns(uint256) {... */\n    tag_4:\n      tag_21\n      0x04\n      dup1\n      calldatasize\n      sub\n      dup2\n      add\n      swap1\n      tag_22\n      swap2\n      swap1\n      tag_17\n      jump\t// in\n    tag_22:\n      tag_23\n      jump\t// in\n    tag_21:\n      mload(0x40)\n      tag_24\n      swap2\n      swap1\n      tag_25\n      jump\t// in\n    tag_24:\n      mload(0x40)\n      dup1\n      swap2\n      sub\n      swap1\n      return\n        /* \"contracts/Actor/MilkHub-smart-contract/inventory/MilkHubInventoryStorage.sol\":5833:6050  function getPrice(address walletMilkHub, uint256 _id) external view returns(uint256) {... */\n    tag_5:\n      tag_26\n      0x04\n      dup1\n      calldatasize\n      sub\n      dup2\n      add\n      swap1\n      tag_27\n      swap2\n      swap1\n      tag_17\n      jump\t// in\n    tag_27:\n      tag_28\n      jump\t// in\n    tag_26:\n      mload(0x40)\n      tag_29\n      swap2\n      swap1\n      tag_25\n      jump\t// in\n    tag_29:\n      mload(0x40)\n      dup1\n      swap2\n      sub\n      swap1\n      return\n        /* \"contracts/Actor/MilkHub-smart-contract/inventory/MilkHubInventoryStorage.sol\":832:1947  function addMilkBatch(address walletMilkHub, string memory _scadenza, uint256 _quantity, uint256 _price) external returns (uint256,string memory, uint256, uint256) {... */\n    tag_6:\n      tag_30\n      0x04\n      dup1\n      calldatasize\n      sub\n      dup2\n      add\n      swap1\n      tag_31\n      swap2\n      swap1\n      tag_32\n      jump\t// in\n    tag_31:\n      tag_33\n      jump\t// in\n    tag_30:\n      mload(0x40)\n      tag_34\n      swap5\n      swap4\n      swap3\n      swap2\n      swap1\n      tag_35\n      jump\t// in\n    tag_34:\n      mload(0x40)\n      dup1\n      swap2\n      sub\n      swap1\n      return\n        /* \"contracts/Actor/MilkHub-smart-contract/inventory/MilkHubInventoryStorage.sol\":4233:4692  function checkProduct(address ownerMilkBatch, uint256 _id_MilkBatch, uint256 quantityToBuy) external view  returns (bool){... */\n    tag_7:\n      tag_36\n      0x04\n      dup1\n      calldatasize\n      sub\n      dup2\n      add\n      swap1\n      tag_37\n      swap2\n      swap1\n      tag_38\n      jump\t// in\n    tag_37:\n      tag_39\n      jump\t// in\n    tag_36:\n      mload(0x40)\n      tag_40\n      swap2\n      swap1\n      tag_20\n      jump\t// in\n    tag_40:\n      mload(0x40)\n      dup1\n      swap2\n      sub\n      swap1\n      return\n        /* \"contracts/Actor/MilkHub-smart-contract/inventory/MilkHubInventoryStorage.sol\":5377:5602  function getExpirationDate(address walletMilkHub, uint256 _id) external view returns(string memory) {... */\n    tag_8:\n      tag_41\n      0x04\n      dup1\n      calldatasize\n      sub\n      dup2\n      add\n      swap1\n      tag_42\n      swap2\n      swap1\n      tag_17\n      jump\t// in\n    tag_42:\n      tag_43\n      jump\t// in\n    tag_41:\n      mload(0x40)\n      tag_44\n      swap2\n      swap1\n      tag_45\n      jump\t// in\n    tag_44:\n      mload(0x40)\n      dup1\n      swap2\n      sub\n      swap1\n      return\n        /* \"contracts/Actor/MilkHub-smart-contract/inventory/MilkHubInventoryStorage.sol\":2406:2818  function deleteMilkBatch(address walletMilkHub, uint256 _id) external returns(bool value) {... */\n    tag_9:\n      tag_46\n      0x04\n      dup1\n      calldatasize\n      sub\n      dup2\n      add\n      swap1\n      tag_47\n      swap2\n      swap1\n      tag_17\n      jump\t// in\n    tag_47:\n      tag_48\n      jump\t// in\n    tag_46:\n      mload(0x40)\n      tag_49\n      swap2\n      swap1\n      tag_20\n      jump\t// in\n    tag_49:\n      mload(0x40)\n      dup1\n      swap2\n      sub\n      swap1\n      return\n        /* \"contracts/Actor/MilkHub-smart-contract/inventory/MilkHubInventoryStorage.sol\":1985:2282  function getMilkBatch(address walletMilkHub, uint256 _id) external view returns (uint256, string memory, uint256, uint256) {... */\n    tag_10:\n      tag_50\n      0x04\n      dup1\n      calldatasize\n      sub\n      dup2\n      add\n      swap1\n      tag_51\n      swap2\n      swap1\n      tag_17\n      jump\t// in\n    tag_51:\n      tag_52\n      jump\t// in\n    tag_50:\n      mload(0x40)\n      tag_53\n      swap5\n      swap4\n      swap3\n      swap2\n      swap1\n      tag_35\n      jump\t// in\n    tag_53:\n      mload(0x40)\n      dup1\n      swap2\n      sub\n      swap1\n      return\n        /* \"contracts/Actor/MilkHub-smart-contract/inventory/MilkHubInventoryStorage.sol\":2826:3474  function getMilkBatchListByMilkHub(address walletMilkHub) external view  returns (MilkBatch[] memory){... */\n    tag_11:\n      tag_54\n      0x04\n      dup1\n      calldatasize\n      sub\n      dup2\n      add\n      swap1\n      tag_55\n      swap2\n      swap1\n      tag_56\n      jump\t// in\n    tag_55:\n      tag_57\n      jump\t// in\n    tag_54:\n      mload(0x40)\n      tag_58\n      swap2\n      swap1\n      tag_59\n      jump\t// in\n    tag_58:\n      mload(0x40)\n      dup1\n      swap2\n      sub\n      swap1\n      return\n        /* \"contracts/Actor/MilkHub-smart-contract/inventory/MilkHubInventoryStorage.sol\":3484:4219  function getAllMilkBatchList(address[] memory milkHubListaddress)external view returns (MilkBatch[]memory){... */\n    tag_12:\n      tag_60\n      0x04\n      dup1\n      calldatasize\n      sub\n      dup2\n      add\n      swap1\n      tag_61\n      swap2\n      swap1\n      tag_62\n      jump\t// in\n    tag_61:\n      tag_63\n      jump\t// in\n    tag_60:\n      mload(0x40)\n      tag_64\n      swap2\n      swap1\n      tag_59\n      jump\t// in\n    tag_64:\n      mload(0x40)\n      dup1\n      swap2\n      sub\n      swap1\n      return\n        /* \"contracts/Actor/MilkHub-smart-contract/inventory/MilkHubInventoryStorage.sol\":6844:7020  function updateQuantity(address walletMilkHub, uint256 _id, uint256 _newQuantity) external  {... */\n    tag_13:\n      tag_65\n      0x04\n      dup1\n      calldatasize\n      sub\n      dup2\n      add\n      swap1\n      tag_66\n      swap2\n      swap1\n      tag_38\n      jump\t// in\n    tag_66:\n      tag_67\n      jump\t// in\n    tag_65:\n      stop\n        /* \"contracts/Actor/MilkHub-smart-contract/inventory/MilkHubInventoryStorage.sol\":4994:5216  function isMilkBatchPresent(address walletMilkHub, uint256 _id)external view returns(bool){... */\n    tag_18:\n        /* \"contracts/Actor/MilkHub-smart-contract/inventory/MilkHubInventoryStorage.sol\":5079:5083  bool */\n      0x00\n        /* \"contracts/Actor/MilkHub-smart-contract/inventory/MilkHubInventoryStorage.sol\":5110:5111  0 */\n      dup1\n        /* \"contracts/Actor/MilkHub-smart-contract/inventory/MilkHubInventoryStorage.sol\":5104:5107  _id */\n      dup3\n        /* \"contracts/Actor/MilkHub-smart-contract/inventory/MilkHubInventoryStorage.sol\":5104:5111  _id !=0 */\n      eq\n      iszero\n        /* \"contracts/Actor/MilkHub-smart-contract/inventory/MilkHubInventoryStorage.sol\":5104:5120  _id !=0 && _id>0 */\n      dup1\n      iszero\n      tag_69\n      jumpi\n      pop\n        /* \"contracts/Actor/MilkHub-smart-contract/inventory/MilkHubInventoryStorage.sol\":5119:5120  0 */\n      0x00\n        /* \"contracts/Actor/MilkHub-smart-contract/inventory/MilkHubInventoryStorage.sol\":5115:5118  _id */\n      dup3\n        /* \"contracts/Actor/MilkHub-smart-contract/inventory/MilkHubInventoryStorage.sol\":5115:5120  _id>0 */\n      gt\n        /* \"contracts/Actor/MilkHub-smart-contract/inventory/MilkHubInventoryStorage.sol\":5104:5120  _id !=0 && _id>0 */\n    tag_69:\n        /* \"contracts/Actor/MilkHub-smart-contract/inventory/MilkHubInventoryStorage.sol\":5095:5147  require( _id !=0 && _id>0,\"ID MilkBatch Not Valid!\") */\n      tag_70\n      jumpi\n      mload(0x40)\n      0x08c379a000000000000000000000000000000000000000000000000000000000\n      dup2\n      mstore\n      0x04\n      add\n      tag_71\n      swap1\n      tag_72\n      jump\t// in\n    tag_71:\n      mload(0x40)\n      dup1\n      swap2\n      sub\n      swap1\n      revert\n    tag_70:\n        /* \"contracts/Actor/MilkHub-smart-contract/inventory/MilkHubInventoryStorage.sol\":5205:5208  _id */\n      dup2\n        /* \"contracts/Actor/MilkHub-smart-contract/inventory/MilkHubInventoryStorage.sol\":5167:5178  milkBatches */\n      0x01\n        /* \"contracts/Actor/MilkHub-smart-contract/inventory/MilkHubInventoryStorage.sol\":5167:5193  milkBatches[walletMilkHub] */\n      0x00\n        /* \"contracts/Actor/MilkHub-smart-contract/inventory/MilkHubInventoryStorage.sol\":5179:5192  walletMilkHub */\n      dup6\n        /* \"contracts/Actor/MilkHub-smart-contract/inventory/MilkHubInventoryStorage.sol\":5167:5193  milkBatches[walletMilkHub] */\n      0xffffffffffffffffffffffffffffffffffffffff\n      and\n      0xffffffffffffffffffffffffffffffffffffffff\n      and\n      dup2\n      mstore\n      0x20\n      add\n      swap1\n      dup2\n      mstore\n      0x20\n      add\n      0x00\n      keccak256\n        /* \"contracts/Actor/MilkHub-smart-contract/inventory/MilkHubInventoryStorage.sol\":5167:5198  milkBatches[walletMilkHub][_id] */\n      0x00\n        /* \"contracts/Actor/MilkHub-smart-contract/inventory/MilkHubInventoryStorage.sol\":5194:5197  _id */\n      dup5\n        /* \"contracts/Actor/MilkHub-smart-contract/inventory/MilkHubInventoryStorage.sol\":5167:5198  milkBatches[walletMilkHub][_id] */\n      dup2\n      mstore\n      0x20\n      add\n      swap1\n      dup2\n      mstore\n      0x20\n      add\n      0x00\n      keccak256\n        /* \"contracts/Actor/MilkHub-smart-contract/inventory/MilkHubInventoryStorage.sol\":5167:5201  milkBatches[walletMilkHub][_id].id */\n      0x00\n      add\n      sload\n        /* \"contracts/Actor/MilkHub-smart-contract/inventory/MilkHubInventoryStorage.sol\":5167:5208  milkBatches[walletMilkHub][_id].id == _id */\n      eq\n        /* \"contracts/Actor/MilkHub-smart-contract/inventory/MilkHubInventoryStorage.sol\":5160:5208  return milkBatches[walletMilkHub][_id].id == _id */\n      swap1\n      pop\n        /* \"contracts/Actor/MilkHub-smart-contract/inventory/MilkHubInventoryStorage.sol\":4994:5216  function isMilkBatchPresent(address walletMilkHub, uint256 _id)external view returns(bool){... */\n      swap3\n      swap2\n      pop\n      pop\n      jump\t// out\n        /* \"contracts/Actor/MilkHub-smart-contract/inventory/MilkHubInventoryStorage.sol\":5610:5825  function getQuantity(address walletMilkHub, uint256 _id) external view returns(uint256) {... */\n    tag_23:\n        /* \"contracts/Actor/MilkHub-smart-contract/inventory/MilkHubInventoryStorage.sol\":5689:5696  uint256 */\n      0x00\n        /* \"contracts/Actor/MilkHub-smart-contract/inventory/MilkHubInventoryStorage.sol\":5711:5737  MilkBatch memory milkBatch */\n      dup1\n        /* \"contracts/Actor/MilkHub-smart-contract/inventory/MilkHubInventoryStorage.sol\":5740:5751  milkBatches */\n      0x01\n        /* \"contracts/Actor/MilkHub-smart-contract/inventory/MilkHubInventoryStorage.sol\":5740:5766  milkBatches[walletMilkHub] */\n      0x00\n        /* \"contracts/Actor/MilkHub-smart-contract/inventory/MilkHubInventoryStorage.sol\":5752:5765  walletMilkHub */\n      dup6\n        /* \"contracts/Actor/MilkHub-smart-contract/inventory/MilkHubInventoryStorage.sol\":5740:5766  milkBatches[walletMilkHub] */\n      0xffffffffffffffffffffffffffffffffffffffff\n      and\n      0xffffffffffffffffffffffffffffffffffffffff\n      and\n      dup2\n      mstore\n      0x20\n      add\n      swap1\n      dup2\n      mstore\n      0x20\n      add\n      0x00\n      keccak256\n        /* \"contracts/Actor/MilkHub-smart-contract/inventory/MilkHubInventoryStorage.sol\":5740:5771  milkBatches[walletMilkHub][_id] */\n      0x00\n        /* \"contracts/Actor/MilkHub-smart-contract/inventory/MilkHubInventoryStorage.sol\":5767:5770  _id */\n      dup5\n        /* \"contracts/Actor/MilkHub-smart-contract/inventory/MilkHubInventoryStorage.sol\":5740:5771  milkBatches[walletMilkHub][_id] */\n      dup2\n      mstore\n      0x20\n      add\n      swap1\n      dup2\n      mstore\n      0x20\n      add\n      0x00\n      keccak256\n        /* \"contracts/Actor/MilkHub-smart-contract/inventory/MilkHubInventoryStorage.sol\":5711:5771  MilkBatch memory milkBatch = milkBatches[walletMilkHub][_id] */\n      mload(0x40)\n      dup1\n      0x80\n      add\n      0x40\n      mstore\n      swap1\n      dup2\n      0x00\n      dup3\n      add\n      sload\n      dup2\n      mstore\n      0x20\n      add\n      0x01\n      dup3\n      add\n      dup1\n      sload\n      tag_74\n      swap1\n      tag_75\n      jump\t// in\n    tag_74:\n      dup1\n      0x1f\n      add\n      0x20\n      dup1\n      swap2\n      div\n      mul\n      0x20\n      add\n      mload(0x40)\n      swap1\n      dup2\n      add\n      0x40\n      mstore\n      dup1\n      swap3\n      swap2\n      swap1\n      dup2\n      dup2\n      mstore\n      0x20\n      add\n      dup3\n      dup1\n      sload\n      tag_76\n      swap1\n      tag_75\n      jump\t// in\n    tag_76:\n      dup1\n      iszero\n      tag_77\n      jumpi\n      dup1\n      0x1f\n      lt\n      tag_78\n      jumpi\n      0x0100\n      dup1\n      dup4\n      sload\n      div\n      mul\n      dup4\n      mstore\n      swap2\n      0x20\n      add\n      swap2\n      jump(tag_77)\n    tag_78:\n      dup3\n      add\n      swap2\n      swap1\n      0x00\n      mstore\n      keccak256(0x00, 0x20)\n      swap1\n    tag_79:\n      dup2\n      sload\n      dup2\n      mstore\n      swap1\n      0x01\n      add\n      swap1\n      0x20\n      add\n      dup1\n      dup4\n      gt\n      tag_79\n      jumpi\n      dup3\n      swap1\n      sub\n      0x1f\n      and\n      dup3\n      add\n      swap2\n    tag_77:\n      pop\n      pop\n      pop\n      pop\n      pop\n      dup2\n      mstore\n      0x20\n      add\n      0x02\n      dup3\n      add\n      sload\n      dup2\n      mstore\n      0x20\n      add\n      0x03\n      dup3\n      add\n      sload\n      dup2\n      mstore\n      pop\n      pop\n      swap1\n      pop\n        /* \"contracts/Actor/MilkHub-smart-contract/inventory/MilkHubInventoryStorage.sol\":5791:5800  milkBatch */\n      dup1\n        /* \"contracts/Actor/MilkHub-smart-contract/inventory/MilkHubInventoryStorage.sol\":5791:5809  milkBatch.quantity */\n      0x40\n      add\n      mload\n        /* \"contracts/Actor/MilkHub-smart-contract/inventory/MilkHubInventoryStorage.sol\":5784:5809  return milkBatch.quantity */\n      swap2\n      pop\n      pop\n        /* \"contracts/Actor/MilkHub-smart-contract/inventory/MilkHubInventoryStorage.sol\":5610:5825  function getQuantity(address walletMilkHub, uint256 _id) external view returns(uint256) {... */\n      swap3\n      swap2\n      pop\n      pop\n      jump\t// out\n        /* \"contracts/Actor/MilkHub-smart-contract/inventory/MilkHubInventoryStorage.sol\":5833:6050  function getPrice(address walletMilkHub, uint256 _id) external view returns(uint256) {... */\n    tag_28:\n        /* \"contracts/Actor/MilkHub-smart-contract/inventory/MilkHubInventoryStorage.sol\":5909:5916  uint256 */\n      0x00\n        /* \"contracts/Actor/MilkHub-smart-contract/inventory/MilkHubInventoryStorage.sol\":5931:5957  MilkBatch memory milkBatch */\n      dup1\n        /* \"contracts/Actor/MilkHub-smart-contract/inventory/MilkHubInventoryStorage.sol\":5960:5971  milkBatches */\n      0x01\n        /* \"contracts/Actor/MilkHub-smart-contract/inventory/MilkHubInventoryStorage.sol\":5960:5986  milkBatches[walletMilkHub] */\n      0x00\n        /* \"contracts/Actor/MilkHub-smart-contract/inventory/MilkHubInventoryStorage.sol\":5972:5985  walletMilkHub */\n      dup6\n        /* \"contracts/Actor/MilkHub-smart-contract/inventory/MilkHubInventoryStorage.sol\":5960:5986  milkBatches[walletMilkHub] */\n      0xffffffffffffffffffffffffffffffffffffffff\n      and\n      0xffffffffffffffffffffffffffffffffffffffff\n      and\n      dup2\n      mstore\n      0x20\n      add\n      swap1\n      dup2\n      mstore\n      0x20\n      add\n      0x00\n      keccak256\n        /* \"contracts/Actor/MilkHub-smart-contract/inventory/MilkHubInventoryStorage.sol\":5960:5991  milkBatches[walletMilkHub][_id] */\n      0x00\n        /* \"contracts/Actor/MilkHub-smart-contract/inventory/MilkHubInventoryStorage.sol\":5987:5990  _id */\n      dup5\n        /* \"contracts/Actor/MilkHub-smart-contract/inventory/MilkHubInventoryStorage.sol\":5960:5991  milkBatches[walletMilkHub][_id] */\n      dup2\n      mstore\n      0x20\n      add\n      swap1\n      dup2\n      mstore\n      0x20\n      add\n      0x00\n      keccak256\n        /* \"contracts/Actor/MilkHub-smart-contract/inventory/MilkHubInventoryStorage.sol\":5931:5991  MilkBatch memory milkBatch = milkBatches[walletMilkHub][_id] */\n      mload(0x40)\n      dup1\n      0x80\n      add\n      0x40\n      mstore\n      swap1\n      dup2\n      0x00\n      dup3\n      add\n      sload\n      dup2\n      mstore\n      0x20\n      add\n      0x01\n      dup3\n      add\n      dup1\n      sload\n      tag_81\n      swap1\n      tag_75\n      jump\t// in\n    tag_81:\n      dup1\n      0x1f\n      add\n      0x20\n      dup1\n      swap2\n      div\n      mul\n      0x20\n      add\n      mload(0x40)\n      swap1\n      dup2\n      add\n      0x40\n      mstore\n      dup1\n      swap3\n      swap2\n      swap1\n      dup2\n      dup2\n      mstore\n      0x20\n      add\n      dup3\n      dup1\n      sload\n      tag_82\n      swap1\n      tag_75\n      jump\t// in\n    tag_82:\n      dup1\n      iszero\n      tag_83\n      jumpi\n      dup1\n      0x1f\n      lt\n      tag_84\n      jumpi\n      0x0100\n      dup1\n      dup4\n      sload\n      div\n      mul\n      dup4\n      mstore\n      swap2\n      0x20\n      add\n      swap2\n      jump(tag_83)\n    tag_84:\n      dup3\n      add\n      swap2\n      swap1\n      0x00\n      mstore\n      keccak256(0x00, 0x20)\n      swap1\n    tag_85:\n      dup2\n      sload\n      dup2\n      mstore\n      swap1\n      0x01\n      add\n      swap1\n      0x20\n      add\n      dup1\n      dup4\n      gt\n      tag_85\n      jumpi\n      dup3\n      swap1\n      sub\n      0x1f\n      and\n      dup3\n      add\n      swap2\n    tag_83:\n      pop\n      pop\n      pop\n      pop\n      pop\n      dup2\n      mstore\n      0x20\n      add\n      0x02\n      dup3\n      add\n      sload\n      dup2\n      mstore\n      0x20\n      add\n      0x03\n      dup3\n      add\n      sload\n      dup2\n      mstore\n      pop\n      pop\n      swap1\n      pop\n        /* \"contracts/Actor/MilkHub-smart-contract/inventory/MilkHubInventoryStorage.sol\":6019:6028  milkBatch */\n      dup1\n        /* \"contracts/Actor/MilkHub-smart-contract/inventory/MilkHubInventoryStorage.sol\":6019:6034  milkBatch.price */\n      0x60\n      add\n      mload\n        /* \"contracts/Actor/MilkHub-smart-contract/inventory/MilkHubInventoryStorage.sol\":6012:6034  return milkBatch.price */\n      swap2\n      pop\n      pop\n        /* \"contracts/Actor/MilkHub-smart-contract/inventory/MilkHubInventoryStorage.sol\":5833:6050  function getPrice(address walletMilkHub, uint256 _id) external view returns(uint256) {... */\n      swap3\n      swap2\n      pop\n      pop\n      jump\t// out\n        /* \"contracts/Actor/MilkHub-smart-contract/inventory/MilkHubInventoryStorage.sol\":832:1947  function addMilkBatch(address walletMilkHub, string memory _scadenza, uint256 _quantity, uint256 _price) external returns (uint256,string memory, uint256, uint256) {... */\n    tag_33:\n        /* \"contracts/Actor/MilkHub-smart-contract/inventory/MilkHubInventoryStorage.sol\":955:962  uint256 */\n      0x00\n        /* \"contracts/Actor/MilkHub-smart-contract/inventory/MilkHubInventoryStorage.sol\":963:976  string memory */\n      0x60\n        /* \"contracts/Actor/MilkHub-smart-contract/inventory/MilkHubInventoryStorage.sol\":978:985  uint256 */\n      0x00\n        /* \"contracts/Actor/MilkHub-smart-contract/inventory/MilkHubInventoryStorage.sol\":987:994  uint256 */\n      dup1\n        /* \"contracts/Actor/MilkHub-smart-contract/inventory/MilkHubInventoryStorage.sol\":1050:1061  uint256 _id */\n      0x00\n        /* \"contracts/Actor/MilkHub-smart-contract/inventory/MilkHubInventoryStorage.sol\":1113:1122  _scadenza */\n      dup8\n        /* \"contracts/Actor/MilkHub-smart-contract/inventory/MilkHubInventoryStorage.sol\":1137:1146  _quantity */\n      dup8\n        /* \"contracts/Actor/MilkHub-smart-contract/inventory/MilkHubInventoryStorage.sol\":1161:1167  _price */\n      dup8\n        /* \"contracts/Actor/MilkHub-smart-contract/inventory/MilkHubInventoryStorage.sol\":1182:1195  walletMilkHub */\n      dup12\n        /* \"contracts/Actor/MilkHub-smart-contract/inventory/MilkHubInventoryStorage.sol\":1210:1225  block.timestamp */\n      timestamp\n        /* \"contracts/Actor/MilkHub-smart-contract/inventory/MilkHubInventoryStorage.sol\":1082:1236  abi.encodePacked(... */\n      add(0x20, mload(0x40))\n      tag_87\n      swap6\n      swap5\n      swap4\n      swap3\n      swap2\n      swap1\n      tag_88\n      jump\t// in\n    tag_87:\n      mload(0x40)\n      0x20\n      dup2\n      dup4\n      sub\n      sub\n      dup2\n      mstore\n      swap1\n      0x40\n      mstore\n        /* \"contracts/Actor/MilkHub-smart-contract/inventory/MilkHubInventoryStorage.sol\":1072:1237  keccak256(abi.encodePacked(... */\n      dup1\n      mload\n      swap1\n      0x20\n      add\n      keccak256\n        /* \"contracts/Actor/MilkHub-smart-contract/inventory/MilkHubInventoryStorage.sol\":1064:1238  uint256(keccak256(abi.encodePacked(... */\n      0x00\n      shr\n        /* \"contracts/Actor/MilkHub-smart-contract/inventory/MilkHubInventoryStorage.sol\":1050:1238  uint256 _id = uint256(keccak256(abi.encodePacked(... */\n      swap1\n      pop\n        /* \"contracts/Actor/MilkHub-smart-contract/inventory/MilkHubInventoryStorage.sol\":1294:1320  MilkBatch memory milkBatch */\n      0x00\n        /* \"contracts/Actor/MilkHub-smart-contract/inventory/MilkHubInventoryStorage.sol\":1323:1463  MilkBatch({... */\n      mload(0x40)\n      dup1\n      0x80\n      add\n      0x40\n      mstore\n      dup1\n        /* \"contracts/Actor/MilkHub-smart-contract/inventory/MilkHubInventoryStorage.sol\":1352:1355  _id */\n      dup4\n        /* \"contracts/Actor/MilkHub-smart-contract/inventory/MilkHubInventoryStorage.sol\":1323:1463  MilkBatch({... */\n      dup2\n      mstore\n      0x20\n      add\n        /* \"contracts/Actor/MilkHub-smart-contract/inventory/MilkHubInventoryStorage.sol\":1380:1389  _scadenza */\n      dup11\n        /* \"contracts/Actor/MilkHub-smart-contract/inventory/MilkHubInventoryStorage.sol\":1323:1463  MilkBatch({... */\n      dup2\n      mstore\n      0x20\n      add\n        /* \"contracts/Actor/MilkHub-smart-contract/inventory/MilkHubInventoryStorage.sol\":1414:1423  _quantity */\n      dup10\n        /* \"contracts/Actor/MilkHub-smart-contract/inventory/MilkHubInventoryStorage.sol\":1323:1463  MilkBatch({... */\n      dup2\n      mstore\n      0x20\n      add\n        /* \"contracts/Actor/MilkHub-smart-contract/inventory/MilkHubInventoryStorage.sol\":1445:1451  _price */\n      dup9\n        /* \"contracts/Actor/MilkHub-smart-contract/inventory/MilkHubInventoryStorage.sol\":1323:1463  MilkBatch({... */\n      dup2\n      mstore\n      pop\n        /* \"contracts/Actor/MilkHub-smart-contract/inventory/MilkHubInventoryStorage.sol\":1294:1463  MilkBatch memory milkBatch = MilkBatch({... */\n      swap1\n      pop\n        /* \"contracts/Actor/MilkHub-smart-contract/inventory/MilkHubInventoryStorage.sol\":1515:1530  milkBatchIdList */\n      0x02\n        /* \"contracts/Actor/MilkHub-smart-contract/inventory/MilkHubInventoryStorage.sol\":1536:1539  _id */\n      dup3\n        /* \"contracts/Actor/MilkHub-smart-contract/inventory/MilkHubInventoryStorage.sol\":1515:1540  milkBatchIdList.push(_id) */\n      swap1\n      dup1\n      0x01\n      dup2\n      sload\n      add\n      dup1\n      dup3\n      sstore\n      dup1\n      swap2\n      pop\n      pop\n      0x01\n      swap1\n      sub\n      swap1\n      0x00\n      mstore\n      keccak256(0x00, 0x20)\n      add\n      0x00\n      swap1\n      swap2\n      swap1\n      swap2\n      swap1\n      swap2\n      pop\n      sstore\n        /* \"contracts/Actor/MilkHub-smart-contract/inventory/MilkHubInventoryStorage.sol\":1658:1667  milkBatch */\n      dup1\n        /* \"contracts/Actor/MilkHub-smart-contract/inventory/MilkHubInventoryStorage.sol\":1624:1635  milkBatches */\n      0x01\n        /* \"contracts/Actor/MilkHub-smart-contract/inventory/MilkHubInventoryStorage.sol\":1624:1650  milkBatches[walletMilkHub] */\n      0x00\n        /* \"contracts/Actor/MilkHub-smart-contract/inventory/MilkHubInventoryStorage.sol\":1636:1649  walletMilkHub */\n      dup13\n        /* \"contracts/Actor/MilkHub-smart-contract/inventory/MilkHubInventoryStorage.sol\":1624:1650  milkBatches[walletMilkHub] */\n      0xffffffffffffffffffffffffffffffffffffffff\n      and\n      0xffffffffffffffffffffffffffffffffffffffff\n      and\n      dup2\n      mstore\n      0x20\n      add\n      swap1\n      dup2\n      mstore\n      0x20\n      add\n      0x00\n      keccak256\n        /* \"contracts/Actor/MilkHub-smart-contract/inventory/MilkHubInventoryStorage.sol\":1624:1655  milkBatches[walletMilkHub][_id] */\n      0x00\n        /* \"contracts/Actor/MilkHub-smart-contract/inventory/MilkHubInventoryStorage.sol\":1651:1654  _id */\n      dup5\n        /* \"contracts/Actor/MilkHub-smart-contract/inventory/MilkHubInventoryStorage.sol\":1624:1655  milkBatches[walletMilkHub][_id] */\n      dup2\n      mstore\n      0x20\n      add\n      swap1\n      dup2\n      mstore\n      0x20\n      add\n      0x00\n      keccak256\n        /* \"contracts/Actor/MilkHub-smart-contract/inventory/MilkHubInventoryStorage.sol\":1624:1667  milkBatches[walletMilkHub][_id] = milkBatch */\n      0x00\n      dup3\n      add\n      mload\n      dup2\n      0x00\n      add\n      sstore\n      0x20\n      dup3\n      add\n      mload\n      dup2\n      0x01\n      add\n      swap1\n      dup2\n      tag_90\n      swap2\n      swap1\n      tag_91\n      jump\t// in\n    tag_90:\n      pop\n      0x40\n      dup3\n      add\n      mload\n      dup2\n      0x02\n      add\n      sstore\n      0x60\n      dup3\n      add\n      mload\n      dup2\n      0x03\n      add\n      sstore\n      swap1\n      pop\n      pop\n        /* \"contracts/Actor/MilkHub-smart-contract/inventory/MilkHubInventoryStorage.sol\":1714:1725  milkBatches */\n      0x01\n        /* \"contracts/Actor/MilkHub-smart-contract/inventory/MilkHubInventoryStorage.sol\":1714:1740  milkBatches[walletMilkHub] */\n      0x00\n        /* \"contracts/Actor/MilkHub-smart-contract/inventory/MilkHubInventoryStorage.sol\":1726:1739  walletMilkHub */\n      dup12\n        /* \"contracts/Actor/MilkHub-smart-contract/inventory/MilkHubInventoryStorage.sol\":1714:1740  milkBatches[walletMilkHub] */\n      0xffffffffffffffffffffffffffffffffffffffff\n      and\n      0xffffffffffffffffffffffffffffffffffffffff\n      and\n      dup2\n      mstore\n      0x20\n      add\n      swap1\n      dup2\n      mstore\n      0x20\n      add\n      0x00\n      keccak256\n        /* \"contracts/Actor/MilkHub-smart-contract/inventory/MilkHubInventoryStorage.sol\":1714:1745  milkBatches[walletMilkHub][_id] */\n      0x00\n        /* \"contracts/Actor/MilkHub-smart-contract/inventory/MilkHubInventoryStorage.sol\":1741:1744  _id */\n      dup4\n        /* \"contracts/Actor/MilkHub-smart-contract/inventory/MilkHubInventoryStorage.sol\":1714:1745  milkBatches[walletMilkHub][_id] */\n      dup2\n      mstore\n      0x20\n      add\n      swap1\n      dup2\n      mstore\n      0x20\n      add\n      0x00\n      keccak256\n        /* \"contracts/Actor/MilkHub-smart-contract/inventory/MilkHubInventoryStorage.sol\":1714:1748  milkBatches[walletMilkHub][_id].id */\n      0x00\n      add\n      sload\n        /* \"contracts/Actor/MilkHub-smart-contract/inventory/MilkHubInventoryStorage.sol\":1767:1778  milkBatches */\n      0x01\n        /* \"contracts/Actor/MilkHub-smart-contract/inventory/MilkHubInventoryStorage.sol\":1767:1793  milkBatches[walletMilkHub] */\n      0x00\n        /* \"contracts/Actor/MilkHub-smart-contract/inventory/MilkHubInventoryStorage.sol\":1779:1792  walletMilkHub */\n      dup13\n        /* \"contracts/Actor/MilkHub-smart-contract/inventory/MilkHubInventoryStorage.sol\":1767:1793  milkBatches[walletMilkHub] */\n      0xffffffffffffffffffffffffffffffffffffffff\n      and\n      0xffffffffffffffffffffffffffffffffffffffff\n      and\n      dup2\n      mstore\n      0x20\n      add\n      swap1\n      dup2\n      mstore\n      0x20\n      add\n      0x00\n      keccak256\n        /* \"contracts/Actor/MilkHub-smart-contract/inventory/MilkHubInventoryStorage.sol\":1767:1798  milkBatches[walletMilkHub][_id] */\n      0x00\n        /* \"contracts/Actor/MilkHub-smart-contract/inventory/MilkHubInventoryStorage.sol\":1794:1797  _id */\n      dup5\n        /* \"contracts/Actor/MilkHub-smart-contract/inventory/MilkHubInventoryStorage.sol\":1767:1798  milkBatches[walletMilkHub][_id] */\n      dup2\n      mstore\n      0x20\n      add\n      swap1\n      dup2\n      mstore\n      0x20\n      add\n      0x00\n      keccak256\n        /* \"contracts/Actor/MilkHub-smart-contract/inventory/MilkHubInventoryStorage.sol\":1767:1807  milkBatches[walletMilkHub][_id].scadenza */\n      0x01\n      add\n        /* \"contracts/Actor/MilkHub-smart-contract/inventory/MilkHubInventoryStorage.sol\":1826:1837  milkBatches */\n      0x01\n        /* \"contracts/Actor/MilkHub-smart-contract/inventory/MilkHubInventoryStorage.sol\":1826:1852  milkBatches[walletMilkHub] */\n      0x00\n        /* \"contracts/Actor/MilkHub-smart-contract/inventory/MilkHubInventoryStorage.sol\":1838:1851  walletMilkHub */\n      dup14\n        /* \"contracts/Actor/MilkHub-smart-contract/inventory/MilkHubInventoryStorage.sol\":1826:1852  milkBatches[walletMilkHub] */\n      0xffffffffffffffffffffffffffffffffffffffff\n      and\n      0xffffffffffffffffffffffffffffffffffffffff\n      and\n      dup2\n      mstore\n      0x20\n      add\n      swap1\n      dup2\n      mstore\n      0x20\n      add\n      0x00\n      keccak256\n        /* \"contracts/Actor/MilkHub-smart-contract/inventory/MilkHubInventoryStorage.sol\":1826:1857  milkBatches[walletMilkHub][_id] */\n      0x00\n        /* \"contracts/Actor/MilkHub-smart-contract/inventory/MilkHubInventoryStorage.sol\":1853:1856  _id */\n      dup6\n        /* \"contracts/Actor/MilkHub-smart-contract/inventory/MilkHubInventoryStorage.sol\":1826:1857  milkBatches[walletMilkHub][_id] */\n      dup2\n      mstore\n      0x20\n      add\n      swap1\n      dup2\n      mstore\n      0x20\n      add\n      0x00\n      keccak256\n        /* \"contracts/Actor/MilkHub-smart-contract/inventory/MilkHubInventoryStorage.sol\":1826:1866  milkBatches[walletMilkHub][_id].quantity */\n      0x02\n      add\n      sload\n        /* \"contracts/Actor/MilkHub-smart-contract/inventory/MilkHubInventoryStorage.sol\":1885:1896  milkBatches */\n      0x01\n        /* \"contracts/Actor/MilkHub-smart-contract/inventory/MilkHubInventoryStorage.sol\":1885:1911  milkBatches[walletMilkHub] */\n      0x00\n        /* \"contracts/Actor/MilkHub-smart-contract/inventory/MilkHubInventoryStorage.sol\":1897:1910  walletMilkHub */\n      dup15\n        /* \"contracts/Actor/MilkHub-smart-contract/inventory/MilkHubInventoryStorage.sol\":1885:1911  milkBatches[walletMilkHub] */\n      0xffffffffffffffffffffffffffffffffffffffff\n      and\n      0xffffffffffffffffffffffffffffffffffffffff\n      and\n      dup2\n      mstore\n      0x20\n      add\n      swap1\n      dup2\n      mstore\n      0x20\n      add\n      0x00\n      keccak256\n        /* \"contracts/Actor/MilkHub-smart-contract/inventory/MilkHubInventoryStorage.sol\":1885:1916  milkBatches[walletMilkHub][_id] */\n      0x00\n        /* \"contracts/Actor/MilkHub-smart-contract/inventory/MilkHubInventoryStorage.sol\":1912:1915  _id */\n      dup7\n        /* \"contracts/Actor/MilkHub-smart-contract/inventory/MilkHubInventoryStorage.sol\":1885:1916  milkBatches[walletMilkHub][_id] */\n      dup2\n      mstore\n      0x20\n      add\n      swap1\n      dup2\n      mstore\n      0x20\n      add\n      0x00\n      keccak256\n        /* \"contracts/Actor/MilkHub-smart-contract/inventory/MilkHubInventoryStorage.sol\":1885:1922  milkBatches[walletMilkHub][_id].price */\n      0x03\n      add\n      sload\n        /* \"contracts/Actor/MilkHub-smart-contract/inventory/MilkHubInventoryStorage.sol\":1688:1939  return (... */\n      dup3\n      dup1\n      sload\n      tag_92\n      swap1\n      tag_75\n      jump\t// in\n    tag_92:\n      dup1\n      0x1f\n      add\n      0x20\n      dup1\n      swap2\n      div\n      mul\n      0x20\n      add\n      mload(0x40)\n      swap1\n      dup2\n      add\n      0x40\n      mstore\n      dup1\n      swap3\n      swap2\n      swap1\n      dup2\n      dup2\n      mstore\n      0x20\n      add\n      dup3\n      dup1\n      sload\n      tag_93\n      swap1\n      tag_75\n      jump\t// in\n    tag_93:\n      dup1\n      iszero\n      tag_94\n      jumpi\n      dup1\n      0x1f\n      lt\n      tag_95\n      jumpi\n      0x0100\n      dup1\n      dup4\n      sload\n      div\n      mul\n      dup4\n      mstore\n      swap2\n      0x20\n      add\n      swap2\n      jump(tag_94)\n    tag_95:\n      dup3\n      add\n      swap2\n      swap1\n      0x00\n      mstore\n      keccak256(0x00, 0x20)\n      swap1\n    tag_96:\n      dup2\n      sload\n      dup2\n      mstore\n      swap1\n      0x01\n      add\n      swap1\n      0x20\n      add\n      dup1\n      dup4\n      gt\n      tag_96\n      jumpi\n      dup3\n      swap1\n      sub\n      0x1f\n      and\n      dup3\n      add\n      swap2\n    tag_94:\n      pop\n      pop\n      pop\n      pop\n      pop\n      swap3\n      pop\n      swap6\n      pop\n      swap6\n      pop\n      swap6\n      pop\n      swap6\n      pop\n      pop\n      pop\n        /* \"contracts/Actor/MilkHub-smart-contract/inventory/MilkHubInventoryStorage.sol\":832:1947  function addMilkBatch(address walletMilkHub, string memory _scadenza, uint256 _quantity, uint256 _price) external returns (uint256,string memory, uint256, uint256) {... */\n      swap5\n      pop\n      swap5\n      pop\n      swap5\n      pop\n      swap5\n      swap1\n      pop\n      jump\t// out\n        /* \"contracts/Actor/MilkHub-smart-contract/inventory/MilkHubInventoryStorage.sol\":4233:4692  function checkProduct(address ownerMilkBatch, uint256 _id_MilkBatch, uint256 quantityToBuy) external view  returns (bool){... */\n    tag_39:\n        /* \"contracts/Actor/MilkHub-smart-contract/inventory/MilkHubInventoryStorage.sol\":4349:4353  bool */\n      0x00\n        /* \"contracts/Actor/MilkHub-smart-contract/inventory/MilkHubInventoryStorage.sol\":4428:4441  _id_MilkBatch */\n      dup3\n        /* \"contracts/Actor/MilkHub-smart-contract/inventory/MilkHubInventoryStorage.sol\":4379:4390  milkBatches */\n      0x01\n        /* \"contracts/Actor/MilkHub-smart-contract/inventory/MilkHubInventoryStorage.sol\":4379:4406  milkBatches[ownerMilkBatch] */\n      0x00\n        /* \"contracts/Actor/MilkHub-smart-contract/inventory/MilkHubInventoryStorage.sol\":4391:4405  ownerMilkBatch */\n      dup7\n        /* \"contracts/Actor/MilkHub-smart-contract/inventory/MilkHubInventoryStorage.sol\":4379:4406  milkBatches[ownerMilkBatch] */\n      0xffffffffffffffffffffffffffffffffffffffff\n      and\n      0xffffffffffffffffffffffffffffffffffffffff\n      and\n      dup2\n      mstore\n      0x20\n      add\n      swap1\n      dup2\n      mstore\n      0x20\n      add\n      0x00\n      keccak256\n        /* \"contracts/Actor/MilkHub-smart-contract/inventory/MilkHubInventoryStorage.sol\":4379:4421  milkBatches[ownerMilkBatch][_id_MilkBatch] */\n      0x00\n        /* \"contracts/Actor/MilkHub-smart-contract/inventory/MilkHubInventoryStorage.sol\":4407:4420  _id_MilkBatch */\n      dup6\n        /* \"contracts/Actor/MilkHub-smart-contract/inventory/MilkHubInventoryStorage.sol\":4379:4421  milkBatches[ownerMilkBatch][_id_MilkBatch] */\n      dup2\n      mstore\n      0x20\n      add\n      swap1\n      dup2\n      mstore\n      0x20\n      add\n      0x00\n      keccak256\n        /* \"contracts/Actor/MilkHub-smart-contract/inventory/MilkHubInventoryStorage.sol\":4379:4424  milkBatches[ownerMilkBatch][_id_MilkBatch].id */\n      0x00\n      add\n      sload\n        /* \"contracts/Actor/MilkHub-smart-contract/inventory/MilkHubInventoryStorage.sol\":4379:4441  milkBatches[ownerMilkBatch][_id_MilkBatch].id == _id_MilkBatch */\n      eq\n        /* \"contracts/Actor/MilkHub-smart-contract/inventory/MilkHubInventoryStorage.sol\":4371:4467  require(milkBatches[ownerMilkBatch][_id_MilkBatch].id == _id_MilkBatch, \"Product non presente!\") */\n      tag_98\n      jumpi\n      mload(0x40)\n      0x08c379a000000000000000000000000000000000000000000000000000000000\n      dup2\n      mstore\n      0x04\n      add\n      tag_99\n      swap1\n      tag_100\n      jump\t// in\n    tag_99:\n      mload(0x40)\n      dup1\n      swap2\n      sub\n      swap1\n      revert\n    tag_98:\n        /* \"contracts/Actor/MilkHub-smart-contract/inventory/MilkHubInventoryStorage.sol\":4484:4514  MilkBatch storage milkBatchObj */\n      0x00\n        /* \"contracts/Actor/MilkHub-smart-contract/inventory/MilkHubInventoryStorage.sol\":4517:4528  milkBatches */\n      0x01\n        /* \"contracts/Actor/MilkHub-smart-contract/inventory/MilkHubInventoryStorage.sol\":4517:4544  milkBatches[ownerMilkBatch] */\n      0x00\n        /* \"contracts/Actor/MilkHub-smart-contract/inventory/MilkHubInventoryStorage.sol\":4529:4543  ownerMilkBatch */\n      dup7\n        /* \"contracts/Actor/MilkHub-smart-contract/inventory/MilkHubInventoryStorage.sol\":4517:4544  milkBatches[ownerMilkBatch] */\n      0xffffffffffffffffffffffffffffffffffffffff\n      and\n      0xffffffffffffffffffffffffffffffffffffffff\n      and\n      dup2\n      mstore\n      0x20\n      add\n      swap1\n      dup2\n      mstore\n      0x20\n      add\n      0x00\n      keccak256\n        /* \"contracts/Actor/MilkHub-smart-contract/inventory/MilkHubInventoryStorage.sol\":4517:4559  milkBatches[ownerMilkBatch][_id_MilkBatch] */\n      0x00\n        /* \"contracts/Actor/MilkHub-smart-contract/inventory/MilkHubInventoryStorage.sol\":4545:4558  _id_MilkBatch */\n      dup6\n        /* \"contracts/Actor/MilkHub-smart-contract/inventory/MilkHubInventoryStorage.sol\":4517:4559  milkBatches[ownerMilkBatch][_id_MilkBatch] */\n      dup2\n      mstore\n      0x20\n      add\n      swap1\n      dup2\n      mstore\n      0x20\n      add\n      0x00\n      keccak256\n        /* \"contracts/Actor/MilkHub-smart-contract/inventory/MilkHubInventoryStorage.sol\":4484:4559  MilkBatch storage milkBatchObj = milkBatches[ownerMilkBatch][_id_MilkBatch] */\n      swap1\n      pop\n        /* \"contracts/Actor/MilkHub-smart-contract/inventory/MilkHubInventoryStorage.sol\":4621:4634  quantityToBuy */\n      dup3\n        /* \"contracts/Actor/MilkHub-smart-contract/inventory/MilkHubInventoryStorage.sol\":4596:4608  milkBatchObj */\n      dup2\n        /* \"contracts/Actor/MilkHub-smart-contract/inventory/MilkHubInventoryStorage.sol\":4596:4617  milkBatchObj.quantity */\n      0x02\n      add\n      sload\n        /* \"contracts/Actor/MilkHub-smart-contract/inventory/MilkHubInventoryStorage.sol\":4596:4634  milkBatchObj.quantity >= quantityToBuy */\n      lt\n      iszero\n        /* \"contracts/Actor/MilkHub-smart-contract/inventory/MilkHubInventoryStorage.sol\":4588:4658  require(milkBatchObj.quantity >= quantityToBuy, \"Quantity not Valid!\") */\n      tag_101\n      jumpi\n      mload(0x40)\n      0x08c379a000000000000000000000000000000000000000000000000000000000\n      dup2\n      mstore\n      0x04\n      add\n      tag_102\n      swap1\n      tag_103\n      jump\t// in\n    tag_102:\n      mload(0x40)\n      dup1\n      swap2\n      sub\n      swap1\n      revert\n    tag_101:\n        /* \"contracts/Actor/MilkHub-smart-contract/inventory/MilkHubInventoryStorage.sol\":4680:4684  true */\n      0x01\n        /* \"contracts/Actor/MilkHub-smart-contract/inventory/MilkHubInventoryStorage.sol\":4673:4684  return true */\n      swap2\n      pop\n      pop\n        /* \"contracts/Actor/MilkHub-smart-contract/inventory/MilkHubInventoryStorage.sol\":4233:4692  function checkProduct(address ownerMilkBatch, uint256 _id_MilkBatch, uint256 quantityToBuy) external view  returns (bool){... */\n      swap4\n      swap3\n      pop\n      pop\n      pop\n      jump\t// out\n        /* \"contracts/Actor/MilkHub-smart-contract/inventory/MilkHubInventoryStorage.sol\":5377:5602  function getExpirationDate(address walletMilkHub, uint256 _id) external view returns(string memory) {... */\n    tag_43:\n        /* \"contracts/Actor/MilkHub-smart-contract/inventory/MilkHubInventoryStorage.sol\":5462:5475  string memory */\n      0x60\n        /* \"contracts/Actor/MilkHub-smart-contract/inventory/MilkHubInventoryStorage.sol\":5490:5516  MilkBatch memory milkBatch */\n      0x00\n        /* \"contracts/Actor/MilkHub-smart-contract/inventory/MilkHubInventoryStorage.sol\":5519:5530  milkBatches */\n      0x01\n        /* \"contracts/Actor/MilkHub-smart-contract/inventory/MilkHubInventoryStorage.sol\":5519:5545  milkBatches[walletMilkHub] */\n      0x00\n        /* \"contracts/Actor/MilkHub-smart-contract/inventory/MilkHubInventoryStorage.sol\":5531:5544  walletMilkHub */\n      dup6\n        /* \"contracts/Actor/MilkHub-smart-contract/inventory/MilkHubInventoryStorage.sol\":5519:5545  milkBatches[walletMilkHub] */\n      0xffffffffffffffffffffffffffffffffffffffff\n      and\n      0xffffffffffffffffffffffffffffffffffffffff\n      and\n      dup2\n      mstore\n      0x20\n      add\n      swap1\n      dup2\n      mstore\n      0x20\n      add\n      0x00\n      keccak256\n        /* \"contracts/Actor/MilkHub-smart-contract/inventory/MilkHubInventoryStorage.sol\":5519:5550  milkBatches[walletMilkHub][_id] */\n      0x00\n        /* \"contracts/Actor/MilkHub-smart-contract/inventory/MilkHubInventoryStorage.sol\":5546:5549  _id */\n      dup5\n        /* \"contracts/Actor/MilkHub-smart-contract/inventory/MilkHubInventoryStorage.sol\":5519:5550  milkBatches[walletMilkHub][_id] */\n      dup2\n      mstore\n      0x20\n      add\n      swap1\n      dup2\n      mstore\n      0x20\n      add\n      0x00\n      keccak256\n        /* \"contracts/Actor/MilkHub-smart-contract/inventory/MilkHubInventoryStorage.sol\":5490:5550  MilkBatch memory milkBatch = milkBatches[walletMilkHub][_id] */\n      mload(0x40)\n      dup1\n      0x80\n      add\n      0x40\n      mstore\n      swap1\n      dup2\n      0x00\n      dup3\n      add\n      sload\n      dup2\n      mstore\n      0x20\n      add\n      0x01\n      dup3\n      add\n      dup1\n      sload\n      tag_105\n      swap1\n      tag_75\n      jump\t// in\n    tag_105:\n      dup1\n      0x1f\n      add\n      0x20\n      dup1\n      swap2\n      div\n      mul\n      0x20\n      add\n      mload(0x40)\n      swap1\n      dup2\n      add\n      0x40\n      mstore\n      dup1\n      swap3\n      swap2\n      swap1\n      dup2\n      dup2\n      mstore\n      0x20\n      add\n      dup3\n      dup1\n      sload\n      tag_106\n      swap1\n      tag_75\n      jump\t// in\n    tag_106:\n      dup1\n      iszero\n      tag_107\n      jumpi\n      dup1\n      0x1f\n      lt\n      tag_108\n      jumpi\n      0x0100\n      dup1\n      dup4\n      sload\n      div\n      mul\n      dup4\n      mstore\n      swap2\n      0x20\n      add\n      swap2\n      jump(tag_107)\n    tag_108:\n      dup3\n      add\n      swap2\n      swap1\n      0x00\n      mstore\n      keccak256(0x00, 0x20)\n      swap1\n    tag_109:\n      dup2\n      sload\n      dup2\n      mstore\n      swap1\n      0x01\n      add\n      swap1\n      0x20\n      add\n      dup1\n      dup4\n      gt\n      tag_109\n      jumpi\n      dup3\n      swap1\n      sub\n      0x1f\n      and\n      dup3\n      add\n      swap2\n    tag_107:\n      pop\n      pop\n      pop\n      pop\n      pop\n      dup2\n      mstore\n      0x20\n      add\n      0x02\n      dup3\n      add\n      sload\n      dup2\n      mstore\n      0x20\n      add\n      0x03\n      dup3\n      add\n      sload\n      dup2\n      mstore\n      pop\n      pop\n      swap1\n      pop\n        /* \"contracts/Actor/MilkHub-smart-contract/inventory/MilkHubInventoryStorage.sol\":5568:5577  milkBatch */\n      dup1\n        /* \"contracts/Actor/MilkHub-smart-contract/inventory/MilkHubInventoryStorage.sol\":5568:5586  milkBatch.scadenza */\n      0x20\n      add\n      mload\n        /* \"contracts/Actor/MilkHub-smart-contract/inventory/MilkHubInventoryStorage.sol\":5561:5586  return milkBatch.scadenza */\n      swap2\n      pop\n      pop\n        /* \"contracts/Actor/MilkHub-smart-contract/inventory/MilkHubInventoryStorage.sol\":5377:5602  function getExpirationDate(address walletMilkHub, uint256 _id) external view returns(string memory) {... */\n      swap3\n      swap2\n      pop\n      pop\n      jump\t// out\n        /* \"contracts/Actor/MilkHub-smart-contract/inventory/MilkHubInventoryStorage.sol\":2406:2818  function deleteMilkBatch(address walletMilkHub, uint256 _id) external returns(bool value) {... */\n    tag_48:\n        /* \"contracts/Actor/MilkHub-smart-contract/inventory/MilkHubInventoryStorage.sol\":2484:2494  bool value */\n      0x00\n        /* \"contracts/Actor/MilkHub-smart-contract/inventory/MilkHubInventoryStorage.sol\":2551:2562  milkBatches */\n      0x01\n        /* \"contracts/Actor/MilkHub-smart-contract/inventory/MilkHubInventoryStorage.sol\":2551:2577  milkBatches[walletMilkHub] */\n      0x00\n        /* \"contracts/Actor/MilkHub-smart-contract/inventory/MilkHubInventoryStorage.sol\":2563:2576  walletMilkHub */\n      dup5\n        /* \"contracts/Actor/MilkHub-smart-contract/inventory/MilkHubInventoryStorage.sol\":2551:2577  milkBatches[walletMilkHub] */\n      0xffffffffffffffffffffffffffffffffffffffff\n      and\n      0xffffffffffffffffffffffffffffffffffffffff\n      and\n      dup2\n      mstore\n      0x20\n      add\n      swap1\n      dup2\n      mstore\n      0x20\n      add\n      0x00\n      keccak256\n        /* \"contracts/Actor/MilkHub-smart-contract/inventory/MilkHubInventoryStorage.sol\":2551:2582  milkBatches[walletMilkHub][_id] */\n      0x00\n        /* \"contracts/Actor/MilkHub-smart-contract/inventory/MilkHubInventoryStorage.sol\":2578:2581  _id */\n      dup4\n        /* \"contracts/Actor/MilkHub-smart-contract/inventory/MilkHubInventoryStorage.sol\":2551:2582  milkBatches[walletMilkHub][_id] */\n      dup2\n      mstore\n      0x20\n      add\n      swap1\n      dup2\n      mstore\n      0x20\n      add\n      0x00\n      keccak256\n      0x00\n        /* \"contracts/Actor/MilkHub-smart-contract/inventory/MilkHubInventoryStorage.sol\":2544:2582  delete milkBatches[walletMilkHub][_id] */\n      dup1\n      dup3\n      add\n      0x00\n      swap1\n      sstore\n      0x01\n      dup3\n      add\n      0x00\n      tag_111\n      swap2\n      swap1\n      tag_112\n      jump\t// in\n    tag_111:\n      0x02\n      dup3\n      add\n      0x00\n      swap1\n      sstore\n      0x03\n      dup3\n      add\n      0x00\n      swap1\n      sstore\n      pop\n      pop\n        /* \"contracts/Actor/MilkHub-smart-contract/inventory/MilkHubInventoryStorage.sol\":2693:2694  0 */\n      0x00\n        /* \"contracts/Actor/MilkHub-smart-contract/inventory/MilkHubInventoryStorage.sol\":2654:2665  milkBatches */\n      0x01\n        /* \"contracts/Actor/MilkHub-smart-contract/inventory/MilkHubInventoryStorage.sol\":2654:2680  milkBatches[walletMilkHub] */\n      0x00\n        /* \"contracts/Actor/MilkHub-smart-contract/inventory/MilkHubInventoryStorage.sol\":2666:2679  walletMilkHub */\n      dup6\n        /* \"contracts/Actor/MilkHub-smart-contract/inventory/MilkHubInventoryStorage.sol\":2654:2680  milkBatches[walletMilkHub] */\n      0xffffffffffffffffffffffffffffffffffffffff\n      and\n      0xffffffffffffffffffffffffffffffffffffffff\n      and\n      dup2\n      mstore\n      0x20\n      add\n      swap1\n      dup2\n      mstore\n      0x20\n      add\n      0x00\n      keccak256\n        /* \"contracts/Actor/MilkHub-smart-contract/inventory/MilkHubInventoryStorage.sol\":2654:2685  milkBatches[walletMilkHub][_id] */\n      0x00\n        /* \"contracts/Actor/MilkHub-smart-contract/inventory/MilkHubInventoryStorage.sol\":2681:2684  _id */\n      dup5\n        /* \"contracts/Actor/MilkHub-smart-contract/inventory/MilkHubInventoryStorage.sol\":2654:2685  milkBatches[walletMilkHub][_id] */\n      dup2\n      mstore\n      0x20\n      add\n      swap1\n      dup2\n      mstore\n      0x20\n      add\n      0x00\n      keccak256\n        /* \"contracts/Actor/MilkHub-smart-contract/inventory/MilkHubInventoryStorage.sol\":2654:2688  milkBatches[walletMilkHub][_id].id */\n      0x00\n      add\n      sload\n        /* \"contracts/Actor/MilkHub-smart-contract/inventory/MilkHubInventoryStorage.sol\":2654:2694  milkBatches[walletMilkHub][_id].id  == 0 */\n      eq\n        /* \"contracts/Actor/MilkHub-smart-contract/inventory/MilkHubInventoryStorage.sol\":2654:2728  milkBatches[walletMilkHub][_id].id  == 0 && deleteMilkBatchIdFromList(_id) */\n      dup1\n      iszero\n      tag_113\n      jumpi\n      pop\n        /* \"contracts/Actor/MilkHub-smart-contract/inventory/MilkHubInventoryStorage.sol\":2698:2728  deleteMilkBatchIdFromList(_id) */\n      tag_114\n        /* \"contracts/Actor/MilkHub-smart-contract/inventory/MilkHubInventoryStorage.sol\":2724:2727  _id */\n      dup3\n        /* \"contracts/Actor/MilkHub-smart-contract/inventory/MilkHubInventoryStorage.sol\":2698:2723  deleteMilkBatchIdFromList */\n      tag_115\n        /* \"contracts/Actor/MilkHub-smart-contract/inventory/MilkHubInventoryStorage.sol\":2698:2728  deleteMilkBatchIdFromList(_id) */\n      jump\t// in\n    tag_114:\n        /* \"contracts/Actor/MilkHub-smart-contract/inventory/MilkHubInventoryStorage.sol\":2654:2728  milkBatches[walletMilkHub][_id].id  == 0 && deleteMilkBatchIdFromList(_id) */\n    tag_113:\n        /* \"contracts/Actor/MilkHub-smart-contract/inventory/MilkHubInventoryStorage.sol\":2651:2811  if(milkBatches[walletMilkHub][_id].id  == 0 && deleteMilkBatchIdFromList(_id)){... */\n      iszero\n      tag_116\n      jumpi\n        /* \"contracts/Actor/MilkHub-smart-contract/inventory/MilkHubInventoryStorage.sol\":2751:2755  true */\n      0x01\n        /* \"contracts/Actor/MilkHub-smart-contract/inventory/MilkHubInventoryStorage.sol\":2744:2755  return true */\n      swap1\n      pop\n      jump(tag_110)\n        /* \"contracts/Actor/MilkHub-smart-contract/inventory/MilkHubInventoryStorage.sol\":2651:2811  if(milkBatches[walletMilkHub][_id].id  == 0 && deleteMilkBatchIdFromList(_id)){... */\n    tag_116:\n        /* \"contracts/Actor/MilkHub-smart-contract/inventory/MilkHubInventoryStorage.sol\":2794:2799  false */\n      0x00\n        /* \"contracts/Actor/MilkHub-smart-contract/inventory/MilkHubInventoryStorage.sol\":2787:2799  return false */\n      swap1\n      pop\n        /* \"contracts/Actor/MilkHub-smart-contract/inventory/MilkHubInventoryStorage.sol\":2406:2818  function deleteMilkBatch(address walletMilkHub, uint256 _id) external returns(bool value) {... */\n    tag_110:\n      swap3\n      swap2\n      pop\n      pop\n      jump\t// out\n        /* \"contracts/Actor/MilkHub-smart-contract/inventory/MilkHubInventoryStorage.sol\":1985:2282  function getMilkBatch(address walletMilkHub, uint256 _id) external view returns (uint256, string memory, uint256, uint256) {... */\n    tag_52:\n        /* \"contracts/Actor/MilkHub-smart-contract/inventory/MilkHubInventoryStorage.sol\":2066:2073  uint256 */\n      0x00\n        /* \"contracts/Actor/MilkHub-smart-contract/inventory/MilkHubInventoryStorage.sol\":2075:2088  string memory */\n      0x60\n        /* \"contracts/Actor/MilkHub-smart-contract/inventory/MilkHubInventoryStorage.sol\":2090:2097  uint256 */\n      0x00\n        /* \"contracts/Actor/MilkHub-smart-contract/inventory/MilkHubInventoryStorage.sol\":2099:2106  uint256 */\n      dup1\n        /* \"contracts/Actor/MilkHub-smart-contract/inventory/MilkHubInventoryStorage.sol\":2121:2147  MilkBatch memory milkBatch */\n      0x00\n        /* \"contracts/Actor/MilkHub-smart-contract/inventory/MilkHubInventoryStorage.sol\":2150:2161  milkBatches */\n      0x01\n        /* \"contracts/Actor/MilkHub-smart-contract/inventory/MilkHubInventoryStorage.sol\":2150:2176  milkBatches[walletMilkHub] */\n      0x00\n        /* \"contracts/Actor/MilkHub-smart-contract/inventory/MilkHubInventoryStorage.sol\":2162:2175  walletMilkHub */\n      dup9\n        /* \"contracts/Actor/MilkHub-smart-contract/inventory/MilkHubInventoryStorage.sol\":2150:2176  milkBatches[walletMilkHub] */\n      0xffffffffffffffffffffffffffffffffffffffff\n      and\n      0xffffffffffffffffffffffffffffffffffffffff\n      and\n      dup2\n      mstore\n      0x20\n      add\n      swap1\n      dup2\n      mstore\n      0x20\n      add\n      0x00\n      keccak256\n        /* \"contracts/Actor/MilkHub-smart-contract/inventory/MilkHubInventoryStorage.sol\":2150:2181  milkBatches[walletMilkHub][_id] */\n      0x00\n        /* \"contracts/Actor/MilkHub-smart-contract/inventory/MilkHubInventoryStorage.sol\":2177:2180  _id */\n      dup8\n        /* \"contracts/Actor/MilkHub-smart-contract/inventory/MilkHubInventoryStorage.sol\":2150:2181  milkBatches[walletMilkHub][_id] */\n      dup2\n      mstore\n      0x20\n      add\n      swap1\n      dup2\n      mstore\n      0x20\n      add\n      0x00\n      keccak256\n        /* \"contracts/Actor/MilkHub-smart-contract/inventory/MilkHubInventoryStorage.sol\":2121:2181  MilkBatch memory milkBatch = milkBatches[walletMilkHub][_id] */\n      mload(0x40)\n      dup1\n      0x80\n      add\n      0x40\n      mstore\n      swap1\n      dup2\n      0x00\n      dup3\n      add\n      sload\n      dup2\n      mstore\n      0x20\n      add\n      0x01\n      dup3\n      add\n      dup1\n      sload\n      tag_119\n      swap1\n      tag_75\n      jump\t// in\n    tag_119:\n      dup1\n      0x1f\n      add\n      0x20\n      dup1\n      swap2\n      div\n      mul\n      0x20\n      add\n      mload(0x40)\n      swap1\n      dup2\n      add\n      0x40\n      mstore\n      dup1\n      swap3\n      swap2\n      swap1\n      dup2\n      dup2\n      mstore\n      0x20\n      add\n      dup3\n      dup1\n      sload\n      tag_120\n      swap1\n      tag_75\n      jump\t// in\n    tag_120:\n      dup1\n      iszero\n      tag_121\n      jumpi\n      dup1\n      0x1f\n      lt\n      tag_122\n      jumpi\n      0x0100\n      dup1\n      dup4\n      sload\n      div\n      mul\n      dup4\n      mstore\n      swap2\n      0x20\n      add\n      swap2\n      jump(tag_121)\n    tag_122:\n      dup3\n      add\n      swap2\n      swap1\n      0x00\n      mstore\n      keccak256(0x00, 0x20)\n      swap1\n    tag_123:\n      dup2\n      sload\n      dup2\n      mstore\n      swap1\n      0x01\n      add\n      swap1\n      0x20\n      add\n      dup1\n      dup4\n      gt\n      tag_123\n      jumpi\n      dup3\n      swap1\n      sub\n      0x1f\n      and\n      dup3\n      add\n      swap2\n    tag_121:\n      pop\n      pop\n      pop\n      pop\n      pop\n      dup2\n      mstore\n      0x20\n      add\n      0x02\n      dup3\n      add\n      sload\n      dup2\n      mstore\n      0x20\n      add\n      0x03\n      dup3\n      add\n      sload\n      dup2\n      mstore\n      pop\n      pop\n      swap1\n      pop\n        /* \"contracts/Actor/MilkHub-smart-contract/inventory/MilkHubInventoryStorage.sol\":2202:2211  milkBatch */\n      dup1\n        /* \"contracts/Actor/MilkHub-smart-contract/inventory/MilkHubInventoryStorage.sol\":2202:2214  milkBatch.id */\n      0x00\n      add\n      mload\n        /* \"contracts/Actor/MilkHub-smart-contract/inventory/MilkHubInventoryStorage.sol\":2216:2225  milkBatch */\n      dup2\n        /* \"contracts/Actor/MilkHub-smart-contract/inventory/MilkHubInventoryStorage.sol\":2216:2234  milkBatch.scadenza */\n      0x20\n      add\n      mload\n        /* \"contracts/Actor/MilkHub-smart-contract/inventory/MilkHubInventoryStorage.sol\":2236:2245  milkBatch */\n      dup3\n        /* \"contracts/Actor/MilkHub-smart-contract/inventory/MilkHubInventoryStorage.sol\":2236:2254  milkBatch.quantity */\n      0x40\n      add\n      mload\n        /* \"contracts/Actor/MilkHub-smart-contract/inventory/MilkHubInventoryStorage.sol\":2256:2265  milkBatch */\n      dup4\n        /* \"contracts/Actor/MilkHub-smart-contract/inventory/MilkHubInventoryStorage.sol\":2256:2271  milkBatch.price */\n      0x60\n      add\n      mload\n        /* \"contracts/Actor/MilkHub-smart-contract/inventory/MilkHubInventoryStorage.sol\":2194:2272  return (milkBatch.id, milkBatch.scadenza, milkBatch.quantity, milkBatch.price) */\n      swap5\n      pop\n      swap5\n      pop\n      swap5\n      pop\n      swap5\n      pop\n      pop\n        /* \"contracts/Actor/MilkHub-smart-contract/inventory/MilkHubInventoryStorage.sol\":1985:2282  function getMilkBatch(address walletMilkHub, uint256 _id) external view returns (uint256, string memory, uint256, uint256) {... */\n      swap3\n      swap6\n      swap2\n      swap5\n      pop\n      swap3\n      pop\n      jump\t// out\n        /* \"contracts/Actor/MilkHub-smart-contract/inventory/MilkHubInventoryStorage.sol\":2826:3474  function getMilkBatchListByMilkHub(address walletMilkHub) external view  returns (MilkBatch[] memory){... */\n    tag_57:\n        /* \"contracts/Actor/MilkHub-smart-contract/inventory/MilkHubInventoryStorage.sol\":2908:2926  MilkBatch[] memory */\n      0x60\n        /* \"contracts/Actor/MilkHub-smart-contract/inventory/MilkHubInventoryStorage.sol\":2938:2973  MilkBatch [ ] memory  milkBatchList */\n      0x00\n        /* \"contracts/Actor/MilkHub-smart-contract/inventory/MilkHubInventoryStorage.sol\":2993:3008  milkBatchIdList */\n      0x02\n        /* \"contracts/Actor/MilkHub-smart-contract/inventory/MilkHubInventoryStorage.sol\":2993:3015  milkBatchIdList.length */\n      dup1\n      sload\n      swap1\n      pop\n        /* \"contracts/Actor/MilkHub-smart-contract/inventory/MilkHubInventoryStorage.sol\":2977:3016  new MilkBatch[](milkBatchIdList.length) */\n      0xffffffffffffffff\n      dup2\n      gt\n      iszero\n      tag_125\n      jumpi\n      tag_126\n      tag_127\n      jump\t// in\n    tag_126:\n    tag_125:\n      mload(0x40)\n      swap1\n      dup1\n      dup3\n      mstore\n      dup1\n      0x20\n      mul\n      0x20\n      add\n      dup3\n      add\n      0x40\n      mstore\n      dup1\n      iszero\n      tag_128\n      jumpi\n      dup2\n      0x20\n      add\n    tag_129:\n      tag_130\n      tag_131\n      jump\t// in\n    tag_130:\n      dup2\n      mstore\n      0x20\n      add\n      swap1\n      0x01\n      swap1\n      sub\n      swap1\n      dup2\n      tag_129\n      jumpi\n      swap1\n      pop\n    tag_128:\n      pop\n        /* \"contracts/Actor/MilkHub-smart-contract/inventory/MilkHubInventoryStorage.sol\":2938:3016  MilkBatch [ ] memory  milkBatchList  = new MilkBatch[](milkBatchIdList.length) */\n      swap1\n      pop\n        /* \"contracts/Actor/MilkHub-smart-contract/inventory/MilkHubInventoryStorage.sol\":3034:3043  uint256 i */\n      0x00\n        /* \"contracts/Actor/MilkHub-smart-contract/inventory/MilkHubInventoryStorage.sol\":3029:3436  for (uint256 i=0; i<milkBatchIdList.length; i++){... */\n    tag_132:\n        /* \"contracts/Actor/MilkHub-smart-contract/inventory/MilkHubInventoryStorage.sol\":3049:3064  milkBatchIdList */\n      0x02\n        /* \"contracts/Actor/MilkHub-smart-contract/inventory/MilkHubInventoryStorage.sol\":3049:3071  milkBatchIdList.length */\n      dup1\n      sload\n      swap1\n      pop\n        /* \"contracts/Actor/MilkHub-smart-contract/inventory/MilkHubInventoryStorage.sol\":3047:3048  i */\n      dup2\n        /* \"contracts/Actor/MilkHub-smart-contract/inventory/MilkHubInventoryStorage.sol\":3047:3071  i<milkBatchIdList.length */\n      lt\n        /* \"contracts/Actor/MilkHub-smart-contract/inventory/MilkHubInventoryStorage.sol\":3029:3436  for (uint256 i=0; i<milkBatchIdList.length; i++){... */\n      iszero\n      tag_133\n      jumpi\n        /* \"contracts/Actor/MilkHub-smart-contract/inventory/MilkHubInventoryStorage.sol\":3098:3109  uint256 _id */\n      0x00\n        /* \"contracts/Actor/MilkHub-smart-contract/inventory/MilkHubInventoryStorage.sol\":3112:3127  milkBatchIdList */\n      0x02\n        /* \"contracts/Actor/MilkHub-smart-contract/inventory/MilkHubInventoryStorage.sol\":3128:3129  i */\n      dup3\n        /* \"contracts/Actor/MilkHub-smart-contract/inventory/MilkHubInventoryStorage.sol\":3112:3130  milkBatchIdList[i] */\n      dup2\n      sload\n      dup2\n      lt\n      tag_135\n      jumpi\n      tag_136\n      tag_137\n      jump\t// in\n    tag_136:\n    tag_135:\n      swap1\n      0x00\n      mstore\n      keccak256(0x00, 0x20)\n      add\n      sload\n        /* \"contracts/Actor/MilkHub-smart-contract/inventory/MilkHubInventoryStorage.sol\":3098:3130  uint256 _id = milkBatchIdList[i] */\n      swap1\n      pop\n        /* \"contracts/Actor/MilkHub-smart-contract/inventory/MilkHubInventoryStorage.sol\":3190:3191  0 */\n      0x00\n        /* \"contracts/Actor/MilkHub-smart-contract/inventory/MilkHubInventoryStorage.sol\":3152:3163  milkBatches */\n      0x01\n        /* \"contracts/Actor/MilkHub-smart-contract/inventory/MilkHubInventoryStorage.sol\":3152:3178  milkBatches[walletMilkHub] */\n      0x00\n        /* \"contracts/Actor/MilkHub-smart-contract/inventory/MilkHubInventoryStorage.sol\":3164:3177  walletMilkHub */\n      dup8\n        /* \"contracts/Actor/MilkHub-smart-contract/inventory/MilkHubInventoryStorage.sol\":3152:3178  milkBatches[walletMilkHub] */\n      0xffffffffffffffffffffffffffffffffffffffff\n      and\n      0xffffffffffffffffffffffffffffffffffffffff\n      and\n      dup2\n      mstore\n      0x20\n      add\n      swap1\n      dup2\n      mstore\n      0x20\n      add\n      0x00\n      keccak256\n        /* \"contracts/Actor/MilkHub-smart-contract/inventory/MilkHubInventoryStorage.sol\":3152:3183  milkBatches[walletMilkHub][_id] */\n      0x00\n        /* \"contracts/Actor/MilkHub-smart-contract/inventory/MilkHubInventoryStorage.sol\":3179:3182  _id */\n      dup4\n        /* \"contracts/Actor/MilkHub-smart-contract/inventory/MilkHubInventoryStorage.sol\":3152:3183  milkBatches[walletMilkHub][_id] */\n      dup2\n      mstore\n      0x20\n      add\n      swap1\n      dup2\n      mstore\n      0x20\n      add\n      0x00\n      keccak256\n        /* \"contracts/Actor/MilkHub-smart-contract/inventory/MilkHubInventoryStorage.sol\":3152:3186  milkBatches[walletMilkHub][_id].id */\n      0x00\n      add\n      sload\n        /* \"contracts/Actor/MilkHub-smart-contract/inventory/MilkHubInventoryStorage.sol\":3152:3191  milkBatches[walletMilkHub][_id].id != 0 */\n      eq\n        /* \"contracts/Actor/MilkHub-smart-contract/inventory/MilkHubInventoryStorage.sol\":3149:3424  if(milkBatches[walletMilkHub][_id].id != 0){... */\n      tag_139\n      jumpi\n        /* \"contracts/Actor/MilkHub-smart-contract/inventory/MilkHubInventoryStorage.sol\":3284:3315  MilkBatch storage new_milkbatch */\n      0x00\n        /* \"contracts/Actor/MilkHub-smart-contract/inventory/MilkHubInventoryStorage.sol\":3318:3329  milkBatches */\n      0x01\n        /* \"contracts/Actor/MilkHub-smart-contract/inventory/MilkHubInventoryStorage.sol\":3318:3344  milkBatches[walletMilkHub] */\n      0x00\n        /* \"contracts/Actor/MilkHub-smart-contract/inventory/MilkHubInventoryStorage.sol\":3330:3343  walletMilkHub */\n      dup8\n        /* \"contracts/Actor/MilkHub-smart-contract/inventory/MilkHubInventoryStorage.sol\":3318:3344  milkBatches[walletMilkHub] */\n      0xffffffffffffffffffffffffffffffffffffffff\n      and\n      0xffffffffffffffffffffffffffffffffffffffff\n      and\n      dup2\n      mstore\n      0x20\n      add\n      swap1\n      dup2\n      mstore\n      0x20\n      add\n      0x00\n      keccak256\n        /* \"contracts/Actor/MilkHub-smart-contract/inventory/MilkHubInventoryStorage.sol\":3318:3349  milkBatches[walletMilkHub][_id] */\n      0x00\n        /* \"contracts/Actor/MilkHub-smart-contract/inventory/MilkHubInventoryStorage.sol\":3345:3348  _id */\n      dup4\n        /* \"contracts/Actor/MilkHub-smart-contract/inventory/MilkHubInventoryStorage.sol\":3318:3349  milkBatches[walletMilkHub][_id] */\n      dup2\n      mstore\n      0x20\n      add\n      swap1\n      dup2\n      mstore\n      0x20\n      add\n      0x00\n      keccak256\n        /* \"contracts/Actor/MilkHub-smart-contract/inventory/MilkHubInventoryStorage.sol\":3284:3349  MilkBatch storage new_milkbatch = milkBatches[walletMilkHub][_id] */\n      swap1\n      pop\n        /* \"contracts/Actor/MilkHub-smart-contract/inventory/MilkHubInventoryStorage.sol\":3391:3404  new_milkbatch */\n      dup1\n        /* \"contracts/Actor/MilkHub-smart-contract/inventory/MilkHubInventoryStorage.sol\":3372:3404  milkBatchList[i] = new_milkbatch */\n      mload(0x40)\n      dup1\n      0x80\n      add\n      0x40\n      mstore\n      swap1\n      dup2\n      0x00\n      dup3\n      add\n      sload\n      dup2\n      mstore\n      0x20\n      add\n      0x01\n      dup3\n      add\n      dup1\n      sload\n      tag_140\n      swap1\n      tag_75\n      jump\t// in\n    tag_140:\n      dup1\n      0x1f\n      add\n      0x20\n      dup1\n      swap2\n      div\n      mul\n      0x20\n      add\n      mload(0x40)\n      swap1\n      dup2\n      add\n      0x40\n      mstore\n      dup1\n      swap3\n      swap2\n      swap1\n      dup2\n      dup2\n      mstore\n      0x20\n      add\n      dup3\n      dup1\n      sload\n      tag_141\n      swap1\n      tag_75\n      jump\t// in\n    tag_141:\n      dup1\n      iszero\n      tag_142\n      jumpi\n      dup1\n      0x1f\n      lt\n      tag_143\n      jumpi\n      0x0100\n      dup1\n      dup4\n      sload\n      div\n      mul\n      dup4\n      mstore\n      swap2\n      0x20\n      add\n      swap2\n      jump(tag_142)\n    tag_143:\n      dup3\n      add\n      swap2\n      swap1\n      0x00\n      mstore\n      keccak256(0x00, 0x20)\n      swap1\n    tag_144:\n      dup2\n      sload\n      dup2\n      mstore\n      swap1\n      0x01\n      add\n      swap1\n      0x20\n      add\n      dup1\n      dup4\n      gt\n      tag_144\n      jumpi\n      dup3\n      swap1\n      sub\n      0x1f\n      and\n      dup3\n      add\n      swap2\n    tag_142:\n      pop\n      pop\n      pop\n      pop\n      pop\n      dup2\n      mstore\n      0x20\n      add\n      0x02\n      dup3\n      add\n      sload\n      dup2\n      mstore\n      0x20\n      add\n      0x03\n      dup3\n      add\n      sload\n      dup2\n      mstore\n      pop\n      pop\n        /* \"contracts/Actor/MilkHub-smart-contract/inventory/MilkHubInventoryStorage.sol\":3372:3385  milkBatchList */\n      dup5\n        /* \"contracts/Actor/MilkHub-smart-contract/inventory/MilkHubInventoryStorage.sol\":3386:3387  i */\n      dup5\n        /* \"contracts/Actor/MilkHub-smart-contract/inventory/MilkHubInventoryStorage.sol\":3372:3388  milkBatchList[i] */\n      dup2\n      mload\n      dup2\n      lt\n      tag_145\n      jumpi\n      tag_146\n      tag_137\n      jump\t// in\n    tag_146:\n    tag_145:\n      0x20\n      mul\n      0x20\n      add\n      add\n        /* \"contracts/Actor/MilkHub-smart-contract/inventory/MilkHubInventoryStorage.sol\":3372:3404  milkBatchList[i] = new_milkbatch */\n      dup2\n      swap1\n      mstore\n      pop\n        /* \"contracts/Actor/MilkHub-smart-contract/inventory/MilkHubInventoryStorage.sol\":3192:3424  {... */\n      pop\n        /* \"contracts/Actor/MilkHub-smart-contract/inventory/MilkHubInventoryStorage.sol\":3149:3424  if(milkBatches[walletMilkHub][_id].id != 0){... */\n    tag_139:\n        /* \"contracts/Actor/MilkHub-smart-contract/inventory/MilkHubInventoryStorage.sol\":3077:3436  {... */\n      pop\n        /* \"contracts/Actor/MilkHub-smart-contract/inventory/MilkHubInventoryStorage.sol\":3073:3076  i++ */\n      dup1\n      dup1\n      0x01\n      add\n      swap2\n      pop\n      pop\n        /* \"contracts/Actor/MilkHub-smart-contract/inventory/MilkHubInventoryStorage.sol\":3029:3436  for (uint256 i=0; i<milkBatchIdList.length; i++){... */\n      jump(tag_132)\n    tag_133:\n      pop\n        /* \"contracts/Actor/MilkHub-smart-contract/inventory/MilkHubInventoryStorage.sol\":3453:3466  milkBatchList */\n      dup1\n        /* \"contracts/Actor/MilkHub-smart-contract/inventory/MilkHubInventoryStorage.sol\":3446:3466  return milkBatchList */\n      swap2\n      pop\n      pop\n        /* \"contracts/Actor/MilkHub-smart-contract/inventory/MilkHubInventoryStorage.sol\":2826:3474  function getMilkBatchListByMilkHub(address walletMilkHub) external view  returns (MilkBatch[] memory){... */\n      swap2\n      swap1\n      pop\n      jump\t// out\n        /* \"contracts/Actor/MilkHub-smart-contract/inventory/MilkHubInventoryStorage.sol\":3484:4219  function getAllMilkBatchList(address[] memory milkHubListaddress)external view returns (MilkBatch[]memory){... */\n    tag_63:\n        /* \"contracts/Actor/MilkHub-smart-contract/inventory/MilkHubInventoryStorage.sol\":3572:3589  MilkBatch[]memory */\n      0x60\n        /* \"contracts/Actor/MilkHub-smart-contract/inventory/MilkHubInventoryStorage.sol\":3611:3646  MilkBatch [ ] memory  milkBatchList */\n      0x00\n        /* \"contracts/Actor/MilkHub-smart-contract/inventory/MilkHubInventoryStorage.sol\":3666:3681  milkBatchIdList */\n      0x02\n        /* \"contracts/Actor/MilkHub-smart-contract/inventory/MilkHubInventoryStorage.sol\":3666:3688  milkBatchIdList.length */\n      dup1\n      sload\n      swap1\n      pop\n        /* \"contracts/Actor/MilkHub-smart-contract/inventory/MilkHubInventoryStorage.sol\":3650:3689  new MilkBatch[](milkBatchIdList.length) */\n      0xffffffffffffffff\n      dup2\n      gt\n      iszero\n      tag_148\n      jumpi\n      tag_149\n      tag_127\n      jump\t// in\n    tag_149:\n    tag_148:\n      mload(0x40)\n      swap1\n      dup1\n      dup3\n      mstore\n      dup1\n      0x20\n      mul\n      0x20\n      add\n      dup3\n      add\n      0x40\n      mstore\n      dup1\n      iszero\n      tag_150\n      jumpi\n      dup2\n      0x20\n      add\n    tag_151:\n      tag_152\n      tag_131\n      jump\t// in\n    tag_152:\n      dup2\n      mstore\n      0x20\n      add\n      swap1\n      0x01\n      swap1\n      sub\n      swap1\n      dup2\n      tag_151\n      jumpi\n      swap1\n      pop\n    tag_150:\n      pop\n        /* \"contracts/Actor/MilkHub-smart-contract/inventory/MilkHubInventoryStorage.sol\":3611:3689  MilkBatch [ ] memory  milkBatchList  = new MilkBatch[](milkBatchIdList.length) */\n      swap1\n      pop\n        /* \"contracts/Actor/MilkHub-smart-contract/inventory/MilkHubInventoryStorage.sol\":3710:3719  uint256 t */\n      0x00\n        /* \"contracts/Actor/MilkHub-smart-contract/inventory/MilkHubInventoryStorage.sol\":3741:3750  uint256 i */\n      dup1\n        /* \"contracts/Actor/MilkHub-smart-contract/inventory/MilkHubInventoryStorage.sol\":3737:4179  for(uint256 i = 0; i<milkHubListaddress.length; i++){... */\n    tag_153:\n        /* \"contracts/Actor/MilkHub-smart-contract/inventory/MilkHubInventoryStorage.sol\":3758:3776  milkHubListaddress */\n      dup5\n        /* \"contracts/Actor/MilkHub-smart-contract/inventory/MilkHubInventoryStorage.sol\":3758:3783  milkHubListaddress.length */\n      mload\n        /* \"contracts/Actor/MilkHub-smart-contract/inventory/MilkHubInventoryStorage.sol\":3756:3757  i */\n      dup2\n        /* \"contracts/Actor/MilkHub-smart-contract/inventory/MilkHubInventoryStorage.sol\":3756:3783  i<milkHubListaddress.length */\n      lt\n        /* \"contracts/Actor/MilkHub-smart-contract/inventory/MilkHubInventoryStorage.sol\":3737:4179  for(uint256 i = 0; i<milkHubListaddress.length; i++){... */\n      iszero\n      tag_154\n      jumpi\n        /* \"contracts/Actor/MilkHub-smart-contract/inventory/MilkHubInventoryStorage.sol\":3818:3860  MilkBatch [ ] memory milkBatchListFromUser */\n      0x00\n        /* \"contracts/Actor/MilkHub-smart-contract/inventory/MilkHubInventoryStorage.sol\":3863:3867  this */\n      address\n        /* \"contracts/Actor/MilkHub-smart-contract/inventory/MilkHubInventoryStorage.sol\":3863:3893  this.getMilkBatchListByMilkHub */\n      0xffffffffffffffffffffffffffffffffffffffff\n      and\n      0xd1f2c4a2\n        /* \"contracts/Actor/MilkHub-smart-contract/inventory/MilkHubInventoryStorage.sol\":3894:3912  milkHubListaddress */\n      dup8\n        /* \"contracts/Actor/MilkHub-smart-contract/inventory/MilkHubInventoryStorage.sol\":3913:3914  i */\n      dup5\n        /* \"contracts/Actor/MilkHub-smart-contract/inventory/MilkHubInventoryStorage.sol\":3894:3915  milkHubListaddress[i] */\n      dup2\n      mload\n      dup2\n      lt\n      tag_156\n      jumpi\n      tag_157\n      tag_137\n      jump\t// in\n    tag_157:\n    tag_156:\n      0x20\n      mul\n      0x20\n      add\n      add\n      mload\n        /* \"contracts/Actor/MilkHub-smart-contract/inventory/MilkHubInventoryStorage.sol\":3863:3916  this.getMilkBatchListByMilkHub(milkHubListaddress[i]) */\n      mload(0x40)\n      dup3\n      0xffffffff\n      and\n      0xe0\n      shl\n      dup2\n      mstore\n      0x04\n      add\n      tag_158\n      swap2\n      swap1\n      tag_159\n      jump\t// in\n    tag_158:\n      0x00\n      mload(0x40)\n      dup1\n      dup4\n      sub\n      dup2\n      dup7\n      gas\n      staticcall\n      iszero\n      dup1\n      iszero\n      tag_161\n      jumpi\n      returndatasize\n      0x00\n      dup1\n      returndatacopy\n      revert(0x00, returndatasize)\n    tag_161:\n      pop\n      pop\n      pop\n      pop\n      mload(0x40)\n      returndatasize\n      0x00\n      dup3\n      returndatacopy\n      returndatasize\n      not(0x1f)\n      0x1f\n      dup3\n      add\n      and\n      dup3\n      add\n      dup1\n      0x40\n      mstore\n      pop\n      dup2\n      add\n      swap1\n      tag_162\n      swap2\n      swap1\n      tag_163\n      jump\t// in\n    tag_162:\n        /* \"contracts/Actor/MilkHub-smart-contract/inventory/MilkHubInventoryStorage.sol\":3818:3916  MilkBatch [ ] memory milkBatchListFromUser = this.getMilkBatchListByMilkHub(milkHubListaddress[i]) */\n      swap1\n      pop\n        /* \"contracts/Actor/MilkHub-smart-contract/inventory/MilkHubInventoryStorage.sol\":3949:3958  uint256 j */\n      0x00\n        /* \"contracts/Actor/MilkHub-smart-contract/inventory/MilkHubInventoryStorage.sol\":3945:4168  for(uint256 j=0; j< milkBatchListFromUser.length; j++){... */\n    tag_164:\n        /* \"contracts/Actor/MilkHub-smart-contract/inventory/MilkHubInventoryStorage.sol\":3965:3986  milkBatchListFromUser */\n      dup2\n        /* \"contracts/Actor/MilkHub-smart-contract/inventory/MilkHubInventoryStorage.sol\":3965:3993  milkBatchListFromUser.length */\n      mload\n        /* \"contracts/Actor/MilkHub-smart-contract/inventory/MilkHubInventoryStorage.sol\":3962:3963  j */\n      dup2\n        /* \"contracts/Actor/MilkHub-smart-contract/inventory/MilkHubInventoryStorage.sol\":3962:3993  j< milkBatchListFromUser.length */\n      lt\n        /* \"contracts/Actor/MilkHub-smart-contract/inventory/MilkHubInventoryStorage.sol\":3945:4168  for(uint256 j=0; j< milkBatchListFromUser.length; j++){... */\n      iszero\n      tag_165\n      jumpi\n        /* \"contracts/Actor/MilkHub-smart-contract/inventory/MilkHubInventoryStorage.sol\":4018:4048  MilkBatch memory new_milkbatch */\n      0x00\n        /* \"contracts/Actor/MilkHub-smart-contract/inventory/MilkHubInventoryStorage.sol\":4051:4072  milkBatchListFromUser */\n      dup3\n        /* \"contracts/Actor/MilkHub-smart-contract/inventory/MilkHubInventoryStorage.sol\":4073:4074  j */\n      dup3\n        /* \"contracts/Actor/MilkHub-smart-contract/inventory/MilkHubInventoryStorage.sol\":4051:4075  milkBatchListFromUser[j] */\n      dup2\n      mload\n      dup2\n      lt\n      tag_167\n      jumpi\n      tag_168\n      tag_137\n      jump\t// in\n    tag_168:\n    tag_167:\n      0x20\n      mul\n      0x20\n      add\n      add\n      mload\n        /* \"contracts/Actor/MilkHub-smart-contract/inventory/MilkHubInventoryStorage.sol\":4018:4075  MilkBatch memory new_milkbatch = milkBatchListFromUser[j] */\n      swap1\n      pop\n        /* \"contracts/Actor/MilkHub-smart-contract/inventory/MilkHubInventoryStorage.sol\":4113:4126  new_milkbatch */\n      dup1\n        /* \"contracts/Actor/MilkHub-smart-contract/inventory/MilkHubInventoryStorage.sol\":4094:4107  milkBatchList */\n      dup7\n        /* \"contracts/Actor/MilkHub-smart-contract/inventory/MilkHubInventoryStorage.sol\":4108:4109  t */\n      dup7\n        /* \"contracts/Actor/MilkHub-smart-contract/inventory/MilkHubInventoryStorage.sol\":4094:4110  milkBatchList[t] */\n      dup2\n      mload\n      dup2\n      lt\n      tag_169\n      jumpi\n      tag_170\n      tag_137\n      jump\t// in\n    tag_170:\n    tag_169:\n      0x20\n      mul\n      0x20\n      add\n      add\n        /* \"contracts/Actor/MilkHub-smart-contract/inventory/MilkHubInventoryStorage.sol\":4094:4126  milkBatchList[t] = new_milkbatch */\n      dup2\n      swap1\n      mstore\n      pop\n        /* \"contracts/Actor/MilkHub-smart-contract/inventory/MilkHubInventoryStorage.sol\":4151:4152  1 */\n      0x01\n        /* \"contracts/Actor/MilkHub-smart-contract/inventory/MilkHubInventoryStorage.sol\":4149:4150  t */\n      dup6\n        /* \"contracts/Actor/MilkHub-smart-contract/inventory/MilkHubInventoryStorage.sol\":4149:4152  t+1 */\n      tag_171\n      swap2\n      swap1\n      tag_172\n      jump\t// in\n    tag_171:\n        /* \"contracts/Actor/MilkHub-smart-contract/inventory/MilkHubInventoryStorage.sol\":4145:4152  t = t+1 */\n      swap5\n      pop\n        /* \"contracts/Actor/MilkHub-smart-contract/inventory/MilkHubInventoryStorage.sol\":3999:4168  {... */\n      pop\n        /* \"contracts/Actor/MilkHub-smart-contract/inventory/MilkHubInventoryStorage.sol\":3995:3998  j++ */\n      dup1\n      dup1\n      0x01\n      add\n      swap2\n      pop\n      pop\n        /* \"contracts/Actor/MilkHub-smart-contract/inventory/MilkHubInventoryStorage.sol\":3945:4168  for(uint256 j=0; j< milkBatchListFromUser.length; j++){... */\n      jump(tag_164)\n    tag_165:\n      pop\n        /* \"contracts/Actor/MilkHub-smart-contract/inventory/MilkHubInventoryStorage.sol\":3789:4179  {... */\n      pop\n        /* \"contracts/Actor/MilkHub-smart-contract/inventory/MilkHubInventoryStorage.sol\":3785:3788  i++ */\n      dup1\n      dup1\n      0x01\n      add\n      swap2\n      pop\n      pop\n        /* \"contracts/Actor/MilkHub-smart-contract/inventory/MilkHubInventoryStorage.sol\":3737:4179  for(uint256 i = 0; i<milkHubListaddress.length; i++){... */\n      jump(tag_153)\n    tag_154:\n      pop\n        /* \"contracts/Actor/MilkHub-smart-contract/inventory/MilkHubInventoryStorage.sol\":4196:4209  milkBatchList */\n      dup2\n        /* \"contracts/Actor/MilkHub-smart-contract/inventory/MilkHubInventoryStorage.sol\":4189:4209  return milkBatchList */\n      swap3\n      pop\n      pop\n      pop\n        /* \"contracts/Actor/MilkHub-smart-contract/inventory/MilkHubInventoryStorage.sol\":3484:4219  function getAllMilkBatchList(address[] memory milkHubListaddress)external view returns (MilkBatch[]memory){... */\n      swap2\n      swap1\n      pop\n      jump\t// out\n        /* \"contracts/Actor/MilkHub-smart-contract/inventory/MilkHubInventoryStorage.sol\":6844:7020  function updateQuantity(address walletMilkHub, uint256 _id, uint256 _newQuantity) external  {... */\n    tag_67:\n        /* \"contracts/Actor/MilkHub-smart-contract/inventory/MilkHubInventoryStorage.sol\":7000:7012  _newQuantity */\n      dup1\n        /* \"contracts/Actor/MilkHub-smart-contract/inventory/MilkHubInventoryStorage.sol\":6957:6968  milkBatches */\n      0x01\n        /* \"contracts/Actor/MilkHub-smart-contract/inventory/MilkHubInventoryStorage.sol\":6957:6983  milkBatches[walletMilkHub] */\n      0x00\n        /* \"contracts/Actor/MilkHub-smart-contract/inventory/MilkHubInventoryStorage.sol\":6969:6982  walletMilkHub */\n      dup6\n        /* \"contracts/Actor/MilkHub-smart-contract/inventory/MilkHubInventoryStorage.sol\":6957:6983  milkBatches[walletMilkHub] */\n      0xffffffffffffffffffffffffffffffffffffffff\n      and\n      0xffffffffffffffffffffffffffffffffffffffff\n      and\n      dup2\n      mstore\n      0x20\n      add\n      swap1\n      dup2\n      mstore\n      0x20\n      add\n      0x00\n      keccak256\n        /* \"contracts/Actor/MilkHub-smart-contract/inventory/MilkHubInventoryStorage.sol\":6957:6988  milkBatches[walletMilkHub][_id] */\n      0x00\n        /* \"contracts/Actor/MilkHub-smart-contract/inventory/MilkHubInventoryStorage.sol\":6984:6987  _id */\n      dup5\n        /* \"contracts/Actor/MilkHub-smart-contract/inventory/MilkHubInventoryStorage.sol\":6957:6988  milkBatches[walletMilkHub][_id] */\n      dup2\n      mstore\n      0x20\n      add\n      swap1\n      dup2\n      mstore\n      0x20\n      add\n      0x00\n      keccak256\n        /* \"contracts/Actor/MilkHub-smart-contract/inventory/MilkHubInventoryStorage.sol\":6957:6997  milkBatches[walletMilkHub][_id].quantity */\n      0x02\n      add\n        /* \"contracts/Actor/MilkHub-smart-contract/inventory/MilkHubInventoryStorage.sol\":6957:7012  milkBatches[walletMilkHub][_id].quantity = _newQuantity */\n      dup2\n      swap1\n      sstore\n      pop\n        /* \"contracts/Actor/MilkHub-smart-contract/inventory/MilkHubInventoryStorage.sol\":6844:7020  function updateQuantity(address walletMilkHub, uint256 _id, uint256 _newQuantity) external  {... */\n      pop\n      pop\n      pop\n      jump\t// out\n        /* \"contracts/Actor/MilkHub-smart-contract/inventory/MilkHubInventoryStorage.sol\":6324:6605  function deleteMilkBatchIdFromList(uint256 _id)internal returns (bool) {... */\n    tag_115:\n        /* \"contracts/Actor/MilkHub-smart-contract/inventory/MilkHubInventoryStorage.sol\":6389:6393  bool */\n      0x00\n        /* \"contracts/Actor/MilkHub-smart-contract/inventory/MilkHubInventoryStorage.sol\":6410:6419  uint256 i */\n      dup1\n        /* \"contracts/Actor/MilkHub-smart-contract/inventory/MilkHubInventoryStorage.sol\":6420:6421  0 */\n      0x00\n        /* \"contracts/Actor/MilkHub-smart-contract/inventory/MilkHubInventoryStorage.sol\":6410:6421  uint256 i=0 */\n      swap1\n      pop\n        /* \"contracts/Actor/MilkHub-smart-contract/inventory/MilkHubInventoryStorage.sol\":6406:6575  for(uint256 i=0; ; i++){... */\n    tag_175:\n        /* \"contracts/Actor/MilkHub-smart-contract/inventory/MilkHubInventoryStorage.sol\":6469:6472  _id */\n      dup3\n        /* \"contracts/Actor/MilkHub-smart-contract/inventory/MilkHubInventoryStorage.sol\":6447:6462  milkBatchIdList */\n      0x02\n        /* \"contracts/Actor/MilkHub-smart-contract/inventory/MilkHubInventoryStorage.sol\":6463:6464  i */\n      dup3\n        /* \"contracts/Actor/MilkHub-smart-contract/inventory/MilkHubInventoryStorage.sol\":6447:6465  milkBatchIdList[i] */\n      dup2\n      sload\n      dup2\n      lt\n      tag_178\n      jumpi\n      tag_179\n      tag_137\n      jump\t// in\n    tag_179:\n    tag_178:\n      swap1\n      0x00\n      mstore\n      keccak256(0x00, 0x20)\n      add\n      sload\n        /* \"contracts/Actor/MilkHub-smart-contract/inventory/MilkHubInventoryStorage.sol\":6447:6472  milkBatchIdList[i] == _id */\n      sub\n        /* \"contracts/Actor/MilkHub-smart-contract/inventory/MilkHubInventoryStorage.sol\":6444:6564  if(milkBatchIdList[i] == _id){... */\n      tag_181\n      jumpi\n        /* \"contracts/Actor/MilkHub-smart-contract/inventory/MilkHubInventoryStorage.sol\":6500:6515  milkBatchIdList */\n      0x02\n        /* \"contracts/Actor/MilkHub-smart-contract/inventory/MilkHubInventoryStorage.sol\":6516:6517  i */\n      dup2\n        /* \"contracts/Actor/MilkHub-smart-contract/inventory/MilkHubInventoryStorage.sol\":6500:6518  milkBatchIdList[i] */\n      dup2\n      sload\n      dup2\n      lt\n      tag_182\n      jumpi\n      tag_183\n      tag_137\n      jump\t// in\n    tag_183:\n    tag_182:\n      swap1\n      0x00\n      mstore\n      keccak256(0x00, 0x20)\n      add\n        /* \"contracts/Actor/MilkHub-smart-contract/inventory/MilkHubInventoryStorage.sol\":6492:6518  delete  milkBatchIdList[i] */\n      0x00\n      swap1\n      sstore\n        /* \"contracts/Actor/MilkHub-smart-contract/inventory/MilkHubInventoryStorage.sol\":6544:6548  true */\n      0x01\n        /* \"contracts/Actor/MilkHub-smart-contract/inventory/MilkHubInventoryStorage.sol\":6537:6548  return true */\n      swap2\n      pop\n      pop\n      jump(tag_174)\n        /* \"contracts/Actor/MilkHub-smart-contract/inventory/MilkHubInventoryStorage.sol\":6444:6564  if(milkBatchIdList[i] == _id){... */\n    tag_181:\n        /* \"contracts/Actor/MilkHub-smart-contract/inventory/MilkHubInventoryStorage.sol\":6425:6428  i++ */\n      dup1\n      dup1\n      tag_185\n      swap1\n      tag_186\n      jump\t// in\n    tag_185:\n      swap2\n      pop\n      pop\n        /* \"contracts/Actor/MilkHub-smart-contract/inventory/MilkHubInventoryStorage.sol\":6406:6575  for(uint256 i=0; ; i++){... */\n      jump(tag_175)\n        /* \"contracts/Actor/MilkHub-smart-contract/inventory/MilkHubInventoryStorage.sol\":6324:6605  function deleteMilkBatchIdFromList(uint256 _id)internal returns (bool) {... */\n    tag_174:\n      swap2\n      swap1\n      pop\n      jump\t// out\n    tag_112:\n      pop\n      dup1\n      sload\n      tag_187\n      swap1\n      tag_75\n      jump\t// in\n    tag_187:\n      0x00\n      dup3\n      sstore\n      dup1\n      0x1f\n      lt\n      tag_189\n      jumpi\n      pop\n      jump(tag_188)\n    tag_189:\n      0x1f\n      add\n      0x20\n      swap1\n      div\n      swap1\n      0x00\n      mstore\n      keccak256(0x00, 0x20)\n      swap1\n      dup2\n      add\n      swap1\n      tag_190\n      swap2\n      swap1\n      tag_191\n      jump\t// in\n    tag_190:\n    tag_188:\n      pop\n      jump\t// out\n    tag_131:\n      mload(0x40)\n      dup1\n      0x80\n      add\n      0x40\n      mstore\n      dup1\n      0x00\n      dup2\n      mstore\n      0x20\n      add\n      0x60\n      dup2\n      mstore\n      0x20\n      add\n      0x00\n      dup2\n      mstore\n      0x20\n      add\n      0x00\n      dup2\n      mstore\n      pop\n      swap1\n      jump\t// out\n    tag_191:\n    tag_192:\n      dup1\n      dup3\n      gt\n      iszero\n      tag_193\n      jumpi\n      0x00\n      dup2\n      0x00\n      swap1\n      sstore\n      pop\n      0x01\n      add\n      jump(tag_192)\n    tag_193:\n      pop\n      swap1\n      jump\t// out\n        /* \"#utility.yul\":7:82   */\n    tag_194:\n        /* \"#utility.yul\":40:46   */\n      0x00\n        /* \"#utility.yul\":73:75   */\n      0x40\n        /* \"#utility.yul\":67:76   */\n      mload\n        /* \"#utility.yul\":57:76   */\n      swap1\n      pop\n        /* \"#utility.yul\":7:82   */\n      swap1\n      jump\t// out\n        /* \"#utility.yul\":88:205   */\n    tag_195:\n        /* \"#utility.yul\":197:198   */\n      0x00\n        /* \"#utility.yul\":194:195   */\n      dup1\n        /* \"#utility.yul\":187:199   */\n      revert\n        /* \"#utility.yul\":211:328   */\n    tag_196:\n        /* \"#utility.yul\":320:321   */\n      0x00\n        /* \"#utility.yul\":317:318   */\n      dup1\n        /* \"#utility.yul\":310:322   */\n      revert\n        /* \"#utility.yul\":334:460   */\n    tag_197:\n        /* \"#utility.yul\":371:378   */\n      0x00\n        /* \"#utility.yul\":411:453   */\n      0xffffffffffffffffffffffffffffffffffffffff\n        /* \"#utility.yul\":404:409   */\n      dup3\n        /* \"#utility.yul\":400:454   */\n      and\n        /* \"#utility.yul\":389:454   */\n      swap1\n      pop\n        /* \"#utility.yul\":334:460   */\n      swap2\n      swap1\n      pop\n      jump\t// out\n        /* \"#utility.yul\":466:562   */\n    tag_198:\n        /* \"#utility.yul\":503:510   */\n      0x00\n        /* \"#utility.yul\":532:556   */\n      tag_281\n        /* \"#utility.yul\":550:555   */\n      dup3\n        /* \"#utility.yul\":532:556   */\n      tag_197\n      jump\t// in\n    tag_281:\n        /* \"#utility.yul\":521:556   */\n      swap1\n      pop\n        /* \"#utility.yul\":466:562   */\n      swap2\n      swap1\n      pop\n      jump\t// out\n        /* \"#utility.yul\":568:690   */\n    tag_199:\n        /* \"#utility.yul\":641:665   */\n      tag_283\n        /* \"#utility.yul\":659:664   */\n      dup2\n        /* \"#utility.yul\":641:665   */\n      tag_198\n      jump\t// in\n    tag_283:\n        /* \"#utility.yul\":634:639   */\n      dup2\n        /* \"#utility.yul\":631:666   */\n      eq\n        /* \"#utility.yul\":621:684   */\n      tag_284\n      jumpi\n        /* \"#utility.yul\":680:681   */\n      0x00\n        /* \"#utility.yul\":677:678   */\n      dup1\n        /* \"#utility.yul\":670:682   */\n      revert\n        /* \"#utility.yul\":621:684   */\n    tag_284:\n        /* \"#utility.yul\":568:690   */\n      pop\n      jump\t// out\n        /* \"#utility.yul\":696:835   */\n    tag_200:\n        /* \"#utility.yul\":742:747   */\n      0x00\n        /* \"#utility.yul\":780:786   */\n      dup2\n        /* \"#utility.yul\":767:787   */\n      calldataload\n        /* \"#utility.yul\":758:787   */\n      swap1\n      pop\n        /* \"#utility.yul\":796:829   */\n      tag_286\n        /* \"#utility.yul\":823:828   */\n      dup2\n        /* \"#utility.yul\":796:829   */\n      tag_199\n      jump\t// in\n    tag_286:\n        /* \"#utility.yul\":696:835   */\n      swap3\n      swap2\n      pop\n      pop\n      jump\t// out\n        /* \"#utility.yul\":841:918   */\n    tag_201:\n        /* \"#utility.yul\":878:885   */\n      0x00\n        /* \"#utility.yul\":907:912   */\n      dup2\n        /* \"#utility.yul\":896:912   */\n      swap1\n      pop\n        /* \"#utility.yul\":841:918   */\n      swap2\n      swap1\n      pop\n      jump\t// out\n        /* \"#utility.yul\":924:1046   */\n    tag_202:\n        /* \"#utility.yul\":997:1021   */\n      tag_289\n        /* \"#utility.yul\":1015:1020   */\n      dup2\n        /* \"#utility.yul\":997:1021   */\n      tag_201\n      jump\t// in\n    tag_289:\n        /* \"#utility.yul\":990:995   */\n      dup2\n        /* \"#utility.yul\":987:1022   */\n      eq\n        /* \"#utility.yul\":977:1040   */\n      tag_290\n      jumpi\n        /* \"#utility.yul\":1036:1037   */\n      0x00\n        /* \"#utility.yul\":1033:1034   */\n      dup1\n        /* \"#utility.yul\":1026:1038   */\n      revert\n        /* \"#utility.yul\":977:1040   */\n    tag_290:\n        /* \"#utility.yul\":924:1046   */\n      pop\n      jump\t// out\n        /* \"#utility.yul\":1052:1191   */\n    tag_203:\n        /* \"#utility.yul\":1098:1103   */\n      0x00\n        /* \"#utility.yul\":1136:1142   */\n      dup2\n        /* \"#utility.yul\":1123:1143   */\n      calldataload\n        /* \"#utility.yul\":1114:1143   */\n      swap1\n      pop\n        /* \"#utility.yul\":1152:1185   */\n      tag_292\n        /* \"#utility.yul\":1179:1184   */\n      dup2\n        /* \"#utility.yul\":1152:1185   */\n      tag_202\n      jump\t// in\n    tag_292:\n        /* \"#utility.yul\":1052:1191   */\n      swap3\n      swap2\n      pop\n      pop\n      jump\t// out\n        /* \"#utility.yul\":1197:1671   */\n    tag_17:\n        /* \"#utility.yul\":1265:1271   */\n      0x00\n        /* \"#utility.yul\":1273:1279   */\n      dup1\n        /* \"#utility.yul\":1322:1324   */\n      0x40\n        /* \"#utility.yul\":1310:1319   */\n      dup4\n        /* \"#utility.yul\":1301:1308   */\n      dup6\n        /* \"#utility.yul\":1297:1320   */\n      sub\n        /* \"#utility.yul\":1293:1325   */\n      slt\n        /* \"#utility.yul\":1290:1409   */\n      iszero\n      tag_294\n      jumpi\n        /* \"#utility.yul\":1328:1407   */\n      tag_295\n      tag_195\n      jump\t// in\n    tag_295:\n        /* \"#utility.yul\":1290:1409   */\n    tag_294:\n        /* \"#utility.yul\":1448:1449   */\n      0x00\n        /* \"#utility.yul\":1473:1526   */\n      tag_296\n        /* \"#utility.yul\":1518:1525   */\n      dup6\n        /* \"#utility.yul\":1509:1515   */\n      dup3\n        /* \"#utility.yul\":1498:1507   */\n      dup7\n        /* \"#utility.yul\":1494:1516   */\n      add\n        /* \"#utility.yul\":1473:1526   */\n      tag_200\n      jump\t// in\n    tag_296:\n        /* \"#utility.yul\":1463:1526   */\n      swap3\n      pop\n        /* \"#utility.yul\":1419:1536   */\n      pop\n        /* \"#utility.yul\":1575:1577   */\n      0x20\n        /* \"#utility.yul\":1601:1654   */\n      tag_297\n        /* \"#utility.yul\":1646:1653   */\n      dup6\n        /* \"#utility.yul\":1637:1643   */\n      dup3\n        /* \"#utility.yul\":1626:1635   */\n      dup7\n        /* \"#utility.yul\":1622:1644   */\n      add\n        /* \"#utility.yul\":1601:1654   */\n      tag_203\n      jump\t// in\n    tag_297:\n        /* \"#utility.yul\":1591:1654   */\n      swap2\n      pop\n        /* \"#utility.yul\":1546:1664   */\n      pop\n        /* \"#utility.yul\":1197:1671   */\n      swap3\n      pop\n      swap3\n      swap1\n      pop\n      jump\t// out\n        /* \"#utility.yul\":1677:1767   */\n    tag_204:\n        /* \"#utility.yul\":1711:1718   */\n      0x00\n        /* \"#utility.yul\":1754:1759   */\n      dup2\n        /* \"#utility.yul\":1747:1760   */\n      iszero\n        /* \"#utility.yul\":1740:1761   */\n      iszero\n        /* \"#utility.yul\":1729:1761   */\n      swap1\n      pop\n        /* \"#utility.yul\":1677:1767   */\n      swap2\n      swap1\n      pop\n      jump\t// out\n        /* \"#utility.yul\":1773:1882   */\n    tag_205:\n        /* \"#utility.yul\":1854:1875   */\n      tag_300\n        /* \"#utility.yul\":1869:1874   */\n      dup2\n        /* \"#utility.yul\":1854:1875   */\n      tag_204\n      jump\t// in\n    tag_300:\n        /* \"#utility.yul\":1849:1852   */\n      dup3\n        /* \"#utility.yul\":1842:1876   */\n      mstore\n        /* \"#utility.yul\":1773:1882   */\n      pop\n      pop\n      jump\t// out\n        /* \"#utility.yul\":1888:2098   */\n    tag_20:\n        /* \"#utility.yul\":1975:1979   */\n      0x00\n        /* \"#utility.yul\":2013:2015   */\n      0x20\n        /* \"#utility.yul\":2002:2011   */\n      dup3\n        /* \"#utility.yul\":1998:2016   */\n      add\n        /* \"#utility.yul\":1990:2016   */\n      swap1\n      pop\n        /* \"#utility.yul\":2026:2091   */\n      tag_302\n        /* \"#utility.yul\":2088:2089   */\n      0x00\n        /* \"#utility.yul\":2077:2086   */\n      dup4\n        /* \"#utility.yul\":2073:2090   */\n      add\n        /* \"#utility.yul\":2064:2070   */\n      dup5\n        /* \"#utility.yul\":2026:2091   */\n      tag_205\n      jump\t// in\n    tag_302:\n        /* \"#utility.yul\":1888:2098   */\n      swap3\n      swap2\n      pop\n      pop\n      jump\t// out\n        /* \"#utility.yul\":2104:2222   */\n    tag_206:\n        /* \"#utility.yul\":2191:2215   */\n      tag_304\n        /* \"#utility.yul\":2209:2214   */\n      dup2\n        /* \"#utility.yul\":2191:2215   */\n      tag_201\n      jump\t// in\n    tag_304:\n        /* \"#utility.yul\":2186:2189   */\n      dup3\n        /* \"#utility.yul\":2179:2216   */\n      mstore\n        /* \"#utility.yul\":2104:2222   */\n      pop\n      pop\n      jump\t// out\n        /* \"#utility.yul\":2228:2450   */\n    tag_25:\n        /* \"#utility.yul\":2321:2325   */\n      0x00\n        /* \"#utility.yul\":2359:2361   */\n      0x20\n        /* \"#utility.yul\":2348:2357   */\n      dup3\n        /* \"#utility.yul\":2344:2362   */\n      add\n        /* \"#utility.yul\":2336:2362   */\n      swap1\n      pop\n        /* \"#utility.yul\":2372:2443   */\n      tag_306\n        /* \"#utility.yul\":2440:2441   */\n      0x00\n        /* \"#utility.yul\":2429:2438   */\n      dup4\n        /* \"#utility.yul\":2425:2442   */\n      add\n        /* \"#utility.yul\":2416:2422   */\n      dup5\n        /* \"#utility.yul\":2372:2443   */\n      tag_206\n      jump\t// in\n    tag_306:\n        /* \"#utility.yul\":2228:2450   */\n      swap3\n      swap2\n      pop\n      pop\n      jump\t// out\n        /* \"#utility.yul\":2456:2573   */\n    tag_207:\n        /* \"#utility.yul\":2565:2566   */\n      0x00\n        /* \"#utility.yul\":2562:2563   */\n      dup1\n        /* \"#utility.yul\":2555:2567   */\n      revert\n        /* \"#utility.yul\":2579:2696   */\n    tag_208:\n        /* \"#utility.yul\":2688:2689   */\n      0x00\n        /* \"#utility.yul\":2685:2686   */\n      dup1\n        /* \"#utility.yul\":2678:2690   */\n      revert\n        /* \"#utility.yul\":2702:2804   */\n    tag_209:\n        /* \"#utility.yul\":2743:2749   */\n      0x00\n        /* \"#utility.yul\":2794:2796   */\n      0x1f\n        /* \"#utility.yul\":2790:2797   */\n      not\n        /* \"#utility.yul\":2785:2787   */\n      0x1f\n        /* \"#utility.yul\":2778:2783   */\n      dup4\n        /* \"#utility.yul\":2774:2788   */\n      add\n        /* \"#utility.yul\":2770:2798   */\n      and\n        /* \"#utility.yul\":2760:2798   */\n      swap1\n      pop\n        /* \"#utility.yul\":2702:2804   */\n      swap2\n      swap1\n      pop\n      jump\t// out\n        /* \"#utility.yul\":2810:2990   */\n    tag_127:\n        /* \"#utility.yul\":2858:2935   */\n      0x4e487b7100000000000000000000000000000000000000000000000000000000\n        /* \"#utility.yul\":2855:2856   */\n      0x00\n        /* \"#utility.yul\":2848:2936   */\n      mstore\n        /* \"#utility.yul\":2955:2959   */\n      0x41\n        /* \"#utility.yul\":2952:2953   */\n      0x04\n        /* \"#utility.yul\":2945:2960   */\n      mstore\n        /* \"#utility.yul\":2979:2983   */\n      0x24\n        /* \"#utility.yul\":2976:2977   */\n      0x00\n        /* \"#utility.yul\":2969:2984   */\n      revert\n        /* \"#utility.yul\":2996:3277   */\n    tag_210:\n        /* \"#utility.yul\":3079:3106   */\n      tag_312\n        /* \"#utility.yul\":3101:3105   */\n      dup3\n        /* \"#utility.yul\":3079:3106   */\n      tag_209\n      jump\t// in\n    tag_312:\n        /* \"#utility.yul\":3071:3077   */\n      dup2\n        /* \"#utility.yul\":3067:3107   */\n      add\n        /* \"#utility.yul\":3209:3215   */\n      dup2\n        /* \"#utility.yul\":3197:3207   */\n      dup2\n        /* \"#utility.yul\":3194:3216   */\n      lt\n        /* \"#utility.yul\":3173:3191   */\n      0xffffffffffffffff\n        /* \"#utility.yul\":3161:3171   */\n      dup3\n        /* \"#utility.yul\":3158:3192   */\n      gt\n        /* \"#utility.yul\":3155:3217   */\n      or\n        /* \"#utility.yul\":3152:3240   */\n      iszero\n      tag_313\n      jumpi\n        /* \"#utility.yul\":3220:3238   */\n      tag_314\n      tag_127\n      jump\t// in\n    tag_314:\n        /* \"#utility.yul\":3152:3240   */\n    tag_313:\n        /* \"#utility.yul\":3260:3270   */\n      dup1\n        /* \"#utility.yul\":3256:3258   */\n      0x40\n        /* \"#utility.yul\":3249:3271   */\n      mstore\n        /* \"#utility.yul\":3039:3277   */\n      pop\n        /* \"#utility.yul\":2996:3277   */\n      pop\n      pop\n      jump\t// out\n        /* \"#utility.yul\":3283:3412   */\n    tag_211:\n        /* \"#utility.yul\":3317:3323   */\n      0x00\n        /* \"#utility.yul\":3344:3364   */\n      tag_316\n      tag_194\n      jump\t// in\n    tag_316:\n        /* \"#utility.yul\":3334:3364   */\n      swap1\n      pop\n        /* \"#utility.yul\":3373:3406   */\n      tag_317\n        /* \"#utility.yul\":3401:3405   */\n      dup3\n        /* \"#utility.yul\":3393:3399   */\n      dup3\n        /* \"#utility.yul\":3373:3406   */\n      tag_210\n      jump\t// in\n    tag_317:\n        /* \"#utility.yul\":3283:3412   */\n      swap2\n      swap1\n      pop\n      jump\t// out\n        /* \"#utility.yul\":3418:3726   */\n    tag_212:\n        /* \"#utility.yul\":3480:3484   */\n      0x00\n        /* \"#utility.yul\":3570:3588   */\n      0xffffffffffffffff\n        /* \"#utility.yul\":3562:3568   */\n      dup3\n        /* \"#utility.yul\":3559:3589   */\n      gt\n        /* \"#utility.yul\":3556:3612   */\n      iszero\n      tag_319\n      jumpi\n        /* \"#utility.yul\":3592:3610   */\n      tag_320\n      tag_127\n      jump\t// in\n    tag_320:\n        /* \"#utility.yul\":3556:3612   */\n    tag_319:\n        /* \"#utility.yul\":3630:3659   */\n      tag_321\n        /* \"#utility.yul\":3652:3658   */\n      dup3\n        /* \"#utility.yul\":3630:3659   */\n      tag_209\n      jump\t// in\n    tag_321:\n        /* \"#utility.yul\":3622:3659   */\n      swap1\n      pop\n        /* \"#utility.yul\":3714:3718   */\n      0x20\n        /* \"#utility.yul\":3708:3712   */\n      dup2\n        /* \"#utility.yul\":3704:3719   */\n      add\n        /* \"#utility.yul\":3696:3719   */\n      swap1\n      pop\n        /* \"#utility.yul\":3418:3726   */\n      swap2\n      swap1\n      pop\n      jump\t// out\n        /* \"#utility.yul\":3732:3878   */\n    tag_213:\n        /* \"#utility.yul\":3829:3835   */\n      dup3\n        /* \"#utility.yul\":3824:3827   */\n      dup2\n        /* \"#utility.yul\":3819:3822   */\n      dup4\n        /* \"#utility.yul\":3806:3836   */\n      calldatacopy\n        /* \"#utility.yul\":3870:3871   */\n      0x00\n        /* \"#utility.yul\":3861:3867   */\n      dup4\n        /* \"#utility.yul\":3856:3859   */\n      dup4\n        /* \"#utility.yul\":3852:3868   */\n      add\n        /* \"#utility.yul\":3845:3872   */\n      mstore\n        /* \"#utility.yul\":3732:3878   */\n      pop\n      pop\n      pop\n      jump\t// out\n        /* \"#utility.yul\":3884:4309   */\n    tag_214:\n        /* \"#utility.yul\":3962:3967   */\n      0x00\n        /* \"#utility.yul\":3987:4053   */\n      tag_324\n        /* \"#utility.yul\":4003:4052   */\n      tag_325\n        /* \"#utility.yul\":4045:4051   */\n      dup5\n        /* \"#utility.yul\":4003:4052   */\n      tag_212\n      jump\t// in\n    tag_325:\n        /* \"#utility.yul\":3987:4053   */\n      tag_211\n      jump\t// in\n    tag_324:\n        /* \"#utility.yul\":3978:4053   */\n      swap1\n      pop\n        /* \"#utility.yul\":4076:4082   */\n      dup3\n        /* \"#utility.yul\":4069:4074   */\n      dup2\n        /* \"#utility.yul\":4062:4083   */\n      mstore\n        /* \"#utility.yul\":4114:4118   */\n      0x20\n        /* \"#utility.yul\":4107:4112   */\n      dup2\n        /* \"#utility.yul\":4103:4119   */\n      add\n        /* \"#utility.yul\":4152:4155   */\n      dup5\n        /* \"#utility.yul\":4143:4149   */\n      dup5\n        /* \"#utility.yul\":4138:4141   */\n      dup5\n        /* \"#utility.yul\":4134:4150   */\n      add\n        /* \"#utility.yul\":4131:4156   */\n      gt\n        /* \"#utility.yul\":4128:4240   */\n      iszero\n      tag_326\n      jumpi\n        /* \"#utility.yul\":4159:4238   */\n      tag_327\n      tag_208\n      jump\t// in\n    tag_327:\n        /* \"#utility.yul\":4128:4240   */\n    tag_326:\n        /* \"#utility.yul\":4249:4303   */\n      tag_328\n        /* \"#utility.yul\":4296:4302   */\n      dup5\n        /* \"#utility.yul\":4291:4294   */\n      dup3\n        /* \"#utility.yul\":4286:4289   */\n      dup6\n        /* \"#utility.yul\":4249:4303   */\n      tag_213\n      jump\t// in\n    tag_328:\n        /* \"#utility.yul\":3968:4309   */\n      pop\n        /* \"#utility.yul\":3884:4309   */\n      swap4\n      swap3\n      pop\n      pop\n      pop\n      jump\t// out\n        /* \"#utility.yul\":4329:4669   */\n    tag_215:\n        /* \"#utility.yul\":4385:4390   */\n      0x00\n        /* \"#utility.yul\":4434:4437   */\n      dup3\n        /* \"#utility.yul\":4427:4431   */\n      0x1f\n        /* \"#utility.yul\":4419:4425   */\n      dup4\n        /* \"#utility.yul\":4415:4432   */\n      add\n        /* \"#utility.yul\":4411:4438   */\n      slt\n        /* \"#utility.yul\":4401:4523   */\n      tag_330\n      jumpi\n        /* \"#utility.yul\":4442:4521   */\n      tag_331\n      tag_207\n      jump\t// in\n    tag_331:\n        /* \"#utility.yul\":4401:4523   */\n    tag_330:\n        /* \"#utility.yul\":4559:4565   */\n      dup2\n        /* \"#utility.yul\":4546:4566   */\n      calldataload\n        /* \"#utility.yul\":4584:4663   */\n      tag_332\n        /* \"#utility.yul\":4659:4662   */\n      dup5\n        /* \"#utility.yul\":4651:4657   */\n      dup3\n        /* \"#utility.yul\":4644:4648   */\n      0x20\n        /* \"#utility.yul\":4636:4642   */\n      dup7\n        /* \"#utility.yul\":4632:4649   */\n      add\n        /* \"#utility.yul\":4584:4663   */\n      tag_214\n      jump\t// in\n    tag_332:\n        /* \"#utility.yul\":4575:4663   */\n      swap2\n      pop\n        /* \"#utility.yul\":4391:4669   */\n      pop\n        /* \"#utility.yul\":4329:4669   */\n      swap3\n      swap2\n      pop\n      pop\n      jump\t// out\n        /* \"#utility.yul\":4675:5620   */\n    tag_32:\n        /* \"#utility.yul\":4771:4777   */\n      0x00\n        /* \"#utility.yul\":4779:4785   */\n      dup1\n        /* \"#utility.yul\":4787:4793   */\n      0x00\n        /* \"#utility.yul\":4795:4801   */\n      dup1\n        /* \"#utility.yul\":4844:4847   */\n      0x80\n        /* \"#utility.yul\":4832:4841   */\n      dup6\n        /* \"#utility.yul\":4823:4830   */\n      dup8\n        /* \"#utility.yul\":4819:4842   */\n      sub\n        /* \"#utility.yul\":4815:4848   */\n      slt\n        /* \"#utility.yul\":4812:4932   */\n      iszero\n      tag_334\n      jumpi\n        /* \"#utility.yul\":4851:4930   */\n      tag_335\n      tag_195\n      jump\t// in\n    tag_335:\n        /* \"#utility.yul\":4812:4932   */\n    tag_334:\n        /* \"#utility.yul\":4971:4972   */\n      0x00\n        /* \"#utility.yul\":4996:5049   */\n      tag_336\n        /* \"#utility.yul\":5041:5048   */\n      dup8\n        /* \"#utility.yul\":5032:5038   */\n      dup3\n        /* \"#utility.yul\":5021:5030   */\n      dup9\n        /* \"#utility.yul\":5017:5039   */\n      add\n        /* \"#utility.yul\":4996:5049   */\n      tag_200\n      jump\t// in\n    tag_336:\n        /* \"#utility.yul\":4986:5049   */\n      swap5\n      pop\n        /* \"#utility.yul\":4942:5059   */\n      pop\n        /* \"#utility.yul\":5126:5128   */\n      0x20\n        /* \"#utility.yul\":5115:5124   */\n      dup6\n        /* \"#utility.yul\":5111:5129   */\n      add\n        /* \"#utility.yul\":5098:5130   */\n      calldataload\n        /* \"#utility.yul\":5157:5175   */\n      0xffffffffffffffff\n        /* \"#utility.yul\":5149:5155   */\n      dup2\n        /* \"#utility.yul\":5146:5176   */\n      gt\n        /* \"#utility.yul\":5143:5260   */\n      iszero\n      tag_337\n      jumpi\n        /* \"#utility.yul\":5179:5258   */\n      tag_338\n      tag_196\n      jump\t// in\n    tag_338:\n        /* \"#utility.yul\":5143:5260   */\n    tag_337:\n        /* \"#utility.yul\":5284:5347   */\n      tag_339\n        /* \"#utility.yul\":5339:5346   */\n      dup8\n        /* \"#utility.yul\":5330:5336   */\n      dup3\n        /* \"#utility.yul\":5319:5328   */\n      dup9\n        /* \"#utility.yul\":5315:5337   */\n      add\n        /* \"#utility.yul\":5284:5347   */\n      tag_215\n      jump\t// in\n    tag_339:\n        /* \"#utility.yul\":5274:5347   */\n      swap4\n      pop\n        /* \"#utility.yul\":5069:5357   */\n      pop\n        /* \"#utility.yul\":5396:5398   */\n      0x40\n        /* \"#utility.yul\":5422:5475   */\n      tag_340\n        /* \"#utility.yul\":5467:5474   */\n      dup8\n        /* \"#utility.yul\":5458:5464   */\n      dup3\n        /* \"#utility.yul\":5447:5456   */\n      dup9\n        /* \"#utility.yul\":5443:5465   */\n      add\n        /* \"#utility.yul\":5422:5475   */\n      tag_203\n      jump\t// in\n    tag_340:\n        /* \"#utility.yul\":5412:5475   */\n      swap3\n      pop\n        /* \"#utility.yul\":5367:5485   */\n      pop\n        /* \"#utility.yul\":5524:5526   */\n      0x60\n        /* \"#utility.yul\":5550:5603   */\n      tag_341\n        /* \"#utility.yul\":5595:5602   */\n      dup8\n        /* \"#utility.yul\":5586:5592   */\n      dup3\n        /* \"#utility.yul\":5575:5584   */\n      dup9\n        /* \"#utility.yul\":5571:5593   */\n      add\n        /* \"#utility.yul\":5550:5603   */\n      tag_203\n      jump\t// in\n    tag_341:\n        /* \"#utility.yul\":5540:5603   */\n      swap2\n      pop\n        /* \"#utility.yul\":5495:5613   */\n      pop\n        /* \"#utility.yul\":4675:5620   */\n      swap3\n      swap6\n      swap2\n      swap5\n      pop\n      swap3\n      pop\n      jump\t// out\n        /* \"#utility.yul\":5626:5725   */\n    tag_216:\n        /* \"#utility.yul\":5678:5684   */\n      0x00\n        /* \"#utility.yul\":5712:5717   */\n      dup2\n        /* \"#utility.yul\":5706:5718   */\n      mload\n        /* \"#utility.yul\":5696:5718   */\n      swap1\n      pop\n        /* \"#utility.yul\":5626:5725   */\n      swap2\n      swap1\n      pop\n      jump\t// out\n        /* \"#utility.yul\":5731:5900   */\n    tag_217:\n        /* \"#utility.yul\":5815:5826   */\n      0x00\n        /* \"#utility.yul\":5849:5855   */\n      dup3\n        /* \"#utility.yul\":5844:5847   */\n      dup3\n        /* \"#utility.yul\":5837:5856   */\n      mstore\n        /* \"#utility.yul\":5889:5893   */\n      0x20\n        /* \"#utility.yul\":5884:5887   */\n      dup3\n        /* \"#utility.yul\":5880:5894   */\n      add\n        /* \"#utility.yul\":5865:5894   */\n      swap1\n      pop\n        /* \"#utility.yul\":5731:5900   */\n      swap3\n      swap2\n      pop\n      pop\n      jump\t// out\n        /* \"#utility.yul\":5906:6152   */\n    tag_218:\n        /* \"#utility.yul\":5987:5988   */\n      0x00\n        /* \"#utility.yul\":5997:6110   */\n    tag_345:\n        /* \"#utility.yul\":6011:6017   */\n      dup4\n        /* \"#utility.yul\":6008:6009   */\n      dup2\n        /* \"#utility.yul\":6005:6018   */\n      lt\n        /* \"#utility.yul\":5997:6110   */\n      iszero\n      tag_347\n      jumpi\n        /* \"#utility.yul\":6096:6097   */\n      dup1\n        /* \"#utility.yul\":6091:6094   */\n      dup3\n        /* \"#utility.yul\":6087:6098   */\n      add\n        /* \"#utility.yul\":6081:6099   */\n      mload\n        /* \"#utility.yul\":6077:6078   */\n      dup2\n        /* \"#utility.yul\":6072:6075   */\n      dup5\n        /* \"#utility.yul\":6068:6079   */\n      add\n        /* \"#utility.yul\":6061:6100   */\n      mstore\n        /* \"#utility.yul\":6033:6035   */\n      0x20\n        /* \"#utility.yul\":6030:6031   */\n      dup2\n        /* \"#utility.yul\":6026:6036   */\n      add\n        /* \"#utility.yul\":6021:6036   */\n      swap1\n      pop\n        /* \"#utility.yul\":5997:6110   */\n      jump(tag_345)\n    tag_347:\n        /* \"#utility.yul\":6144:6145   */\n      0x00\n        /* \"#utility.yul\":6135:6141   */\n      dup5\n        /* \"#utility.yul\":6130:6133   */\n      dup5\n        /* \"#utility.yul\":6126:6142   */\n      add\n        /* \"#utility.yul\":6119:6146   */\n      mstore\n        /* \"#utility.yul\":5968:6152   */\n      pop\n        /* \"#utility.yul\":5906:6152   */\n      pop\n      pop\n      pop\n      jump\t// out\n        /* \"#utility.yul\":6158:6535   */\n    tag_219:\n        /* \"#utility.yul\":6246:6249   */\n      0x00\n        /* \"#utility.yul\":6274:6313   */\n      tag_349\n        /* \"#utility.yul\":6307:6312   */\n      dup3\n        /* \"#utility.yul\":6274:6313   */\n      tag_216\n      jump\t// in\n    tag_349:\n        /* \"#utility.yul\":6329:6400   */\n      tag_350\n        /* \"#utility.yul\":6393:6399   */\n      dup2\n        /* \"#utility.yul\":6388:6391   */\n      dup6\n        /* \"#utility.yul\":6329:6400   */\n      tag_217\n      jump\t// in\n    tag_350:\n        /* \"#utility.yul\":6322:6400   */\n      swap4\n      pop\n        /* \"#utility.yul\":6409:6474   */\n      tag_351\n        /* \"#utility.yul\":6467:6473   */\n      dup2\n        /* \"#utility.yul\":6462:6465   */\n      dup6\n        /* \"#utility.yul\":6455:6459   */\n      0x20\n        /* \"#utility.yul\":6448:6453   */\n      dup7\n        /* \"#utility.yul\":6444:6460   */\n      add\n        /* \"#utility.yul\":6409:6474   */\n      tag_218\n      jump\t// in\n    tag_351:\n        /* \"#utility.yul\":6499:6528   */\n      tag_352\n        /* \"#utility.yul\":6521:6527   */\n      dup2\n        /* \"#utility.yul\":6499:6528   */\n      tag_209\n      jump\t// in\n    tag_352:\n        /* \"#utility.yul\":6494:6497   */\n      dup5\n        /* \"#utility.yul\":6490:6529   */\n      add\n        /* \"#utility.yul\":6483:6529   */\n      swap2\n      pop\n        /* \"#utility.yul\":6250:6535   */\n      pop\n        /* \"#utility.yul\":6158:6535   */\n      swap3\n      swap2\n      pop\n      pop\n      jump\t// out\n        /* \"#utility.yul\":6541:7185   */\n    tag_35:\n        /* \"#utility.yul\":6738:6742   */\n      0x00\n        /* \"#utility.yul\":6776:6779   */\n      0x80\n        /* \"#utility.yul\":6765:6774   */\n      dup3\n        /* \"#utility.yul\":6761:6780   */\n      add\n        /* \"#utility.yul\":6753:6780   */\n      swap1\n      pop\n        /* \"#utility.yul\":6790:6861   */\n      tag_354\n        /* \"#utility.yul\":6858:6859   */\n      0x00\n        /* \"#utility.yul\":6847:6856   */\n      dup4\n        /* \"#utility.yul\":6843:6860   */\n      add\n        /* \"#utility.yul\":6834:6840   */\n      dup8\n        /* \"#utility.yul\":6790:6861   */\n      tag_206\n      jump\t// in\n    tag_354:\n        /* \"#utility.yul\":6908:6917   */\n      dup2\n        /* \"#utility.yul\":6902:6906   */\n      dup2\n        /* \"#utility.yul\":6898:6918   */\n      sub\n        /* \"#utility.yul\":6893:6895   */\n      0x20\n        /* \"#utility.yul\":6882:6891   */\n      dup4\n        /* \"#utility.yul\":6878:6896   */\n      add\n        /* \"#utility.yul\":6871:6919   */\n      mstore\n        /* \"#utility.yul\":6936:7014   */\n      tag_355\n        /* \"#utility.yul\":7009:7013   */\n      dup2\n        /* \"#utility.yul\":7000:7006   */\n      dup7\n        /* \"#utility.yul\":6936:7014   */\n      tag_219\n      jump\t// in\n    tag_355:\n        /* \"#utility.yul\":6928:7014   */\n      swap1\n      pop\n        /* \"#utility.yul\":7024:7096   */\n      tag_356\n        /* \"#utility.yul\":7092:7094   */\n      0x40\n        /* \"#utility.yul\":7081:7090   */\n      dup4\n        /* \"#utility.yul\":7077:7095   */\n      add\n        /* \"#utility.yul\":7068:7074   */\n      dup6\n        /* \"#utility.yul\":7024:7096   */\n      tag_206\n      jump\t// in\n    tag_356:\n        /* \"#utility.yul\":7106:7178   */\n      tag_357\n        /* \"#utility.yul\":7174:7176   */\n      0x60\n        /* \"#utility.yul\":7163:7172   */\n      dup4\n        /* \"#utility.yul\":7159:7177   */\n      add\n        /* \"#utility.yul\":7150:7156   */\n      dup5\n        /* \"#utility.yul\":7106:7178   */\n      tag_206\n      jump\t// in\n    tag_357:\n        /* \"#utility.yul\":6541:7185   */\n      swap6\n      swap5\n      pop\n      pop\n      pop\n      pop\n      pop\n      jump\t// out\n        /* \"#utility.yul\":7191:7810   */\n    tag_38:\n        /* \"#utility.yul\":7268:7274   */\n      0x00\n        /* \"#utility.yul\":7276:7282   */\n      dup1\n        /* \"#utility.yul\":7284:7290   */\n      0x00\n        /* \"#utility.yul\":7333:7335   */\n      0x60\n        /* \"#utility.yul\":7321:7330   */\n      dup5\n        /* \"#utility.yul\":7312:7319   */\n      dup7\n        /* \"#utility.yul\":7308:7331   */\n      sub\n        /* \"#utility.yul\":7304:7336   */\n      slt\n        /* \"#utility.yul\":7301:7420   */\n      iszero\n      tag_359\n      jumpi\n        /* \"#utility.yul\":7339:7418   */\n      tag_360\n      tag_195\n      jump\t// in\n    tag_360:\n        /* \"#utility.yul\":7301:7420   */\n    tag_359:\n        /* \"#utility.yul\":7459:7460   */\n      0x00\n        /* \"#utility.yul\":7484:7537   */\n      tag_361\n        /* \"#utility.yul\":7529:7536   */\n      dup7\n        /* \"#utility.yul\":7520:7526   */\n      dup3\n        /* \"#utility.yul\":7509:7518   */\n      dup8\n        /* \"#utility.yul\":7505:7527   */\n      add\n        /* \"#utility.yul\":7484:7537   */\n      tag_200\n      jump\t// in\n    tag_361:\n        /* \"#utility.yul\":7474:7537   */\n      swap4\n      pop\n        /* \"#utility.yul\":7430:7547   */\n      pop\n        /* \"#utility.yul\":7586:7588   */\n      0x20\n        /* \"#utility.yul\":7612:7665   */\n      tag_362\n        /* \"#utility.yul\":7657:7664   */\n      dup7\n        /* \"#utility.yul\":7648:7654   */\n      dup3\n        /* \"#utility.yul\":7637:7646   */\n      dup8\n        /* \"#utility.yul\":7633:7655   */\n      add\n        /* \"#utility.yul\":7612:7665   */\n      tag_203\n      jump\t// in\n    tag_362:\n        /* \"#utility.yul\":7602:7665   */\n      swap3\n      pop\n        /* \"#utility.yul\":7557:7675   */\n      pop\n        /* \"#utility.yul\":7714:7716   */\n      0x40\n        /* \"#utility.yul\":7740:7793   */\n      tag_363\n        /* \"#utility.yul\":7785:7792   */\n      dup7\n        /* \"#utility.yul\":7776:7782   */\n      dup3\n        /* \"#utility.yul\":7765:7774   */\n      dup8\n        /* \"#utility.yul\":7761:7783   */\n      add\n        /* \"#utility.yul\":7740:7793   */\n      tag_203\n      jump\t// in\n    tag_363:\n        /* \"#utility.yul\":7730:7793   */\n      swap2\n      pop\n        /* \"#utility.yul\":7685:7803   */\n      pop\n        /* \"#utility.yul\":7191:7810   */\n      swap3\n      pop\n      swap3\n      pop\n      swap3\n      jump\t// out\n        /* \"#utility.yul\":7816:8129   */\n    tag_45:\n        /* \"#utility.yul\":7929:7933   */\n      0x00\n        /* \"#utility.yul\":7967:7969   */\n      0x20\n        /* \"#utility.yul\":7956:7965   */\n      dup3\n        /* \"#utility.yul\":7952:7970   */\n      add\n        /* \"#utility.yul\":7944:7970   */\n      swap1\n      pop\n        /* \"#utility.yul\":8016:8025   */\n      dup2\n        /* \"#utility.yul\":8010:8014   */\n      dup2\n        /* \"#utility.yul\":8006:8026   */\n      sub\n        /* \"#utility.yul\":8002:8003   */\n      0x00\n        /* \"#utility.yul\":7991:8000   */\n      dup4\n        /* \"#utility.yul\":7987:8004   */\n      add\n        /* \"#utility.yul\":7980:8027   */\n      mstore\n        /* \"#utility.yul\":8044:8122   */\n      tag_365\n        /* \"#utility.yul\":8117:8121   */\n      dup2\n        /* \"#utility.yul\":8108:8114   */\n      dup5\n        /* \"#utility.yul\":8044:8122   */\n      tag_219\n      jump\t// in\n    tag_365:\n        /* \"#utility.yul\":8036:8122   */\n      swap1\n      pop\n        /* \"#utility.yul\":7816:8129   */\n      swap3\n      swap2\n      pop\n      pop\n      jump\t// out\n        /* \"#utility.yul\":8135:8464   */\n    tag_56:\n        /* \"#utility.yul\":8194:8200   */\n      0x00\n        /* \"#utility.yul\":8243:8245   */\n      0x20\n        /* \"#utility.yul\":8231:8240   */\n      dup3\n        /* \"#utility.yul\":8222:8229   */\n      dup5\n        /* \"#utility.yul\":8218:8241   */\n      sub\n        /* \"#utility.yul\":8214:8246   */\n      slt\n        /* \"#utility.yul\":8211:8330   */\n      iszero\n      tag_367\n      jumpi\n        /* \"#utility.yul\":8249:8328   */\n      tag_368\n      tag_195\n      jump\t// in\n    tag_368:\n        /* \"#utility.yul\":8211:8330   */\n    tag_367:\n        /* \"#utility.yul\":8369:8370   */\n      0x00\n        /* \"#utility.yul\":8394:8447   */\n      tag_369\n        /* \"#utility.yul\":8439:8446   */\n      dup5\n        /* \"#utility.yul\":8430:8436   */\n      dup3\n        /* \"#utility.yul\":8419:8428   */\n      dup6\n        /* \"#utility.yul\":8415:8437   */\n      add\n        /* \"#utility.yul\":8394:8447   */\n      tag_200\n      jump\t// in\n    tag_369:\n        /* \"#utility.yul\":8384:8447   */\n      swap2\n      pop\n        /* \"#utility.yul\":8340:8457   */\n      pop\n        /* \"#utility.yul\":8135:8464   */\n      swap3\n      swap2\n      pop\n      pop\n      jump\t// out\n        /* \"#utility.yul\":8470:8609   */\n    tag_220:\n        /* \"#utility.yul\":8562:8568   */\n      0x00\n        /* \"#utility.yul\":8596:8601   */\n      dup2\n        /* \"#utility.yul\":8590:8602   */\n      mload\n        /* \"#utility.yul\":8580:8602   */\n      swap1\n      pop\n        /* \"#utility.yul\":8470:8609   */\n      swap2\n      swap1\n      pop\n      jump\t// out\n        /* \"#utility.yul\":8615:8824   */\n    tag_221:\n        /* \"#utility.yul\":8739:8750   */\n      0x00\n        /* \"#utility.yul\":8773:8779   */\n      dup3\n        /* \"#utility.yul\":8768:8771   */\n      dup3\n        /* \"#utility.yul\":8761:8780   */\n      mstore\n        /* \"#utility.yul\":8813:8817   */\n      0x20\n        /* \"#utility.yul\":8808:8811   */\n      dup3\n        /* \"#utility.yul\":8804:8818   */\n      add\n        /* \"#utility.yul\":8789:8818   */\n      swap1\n      pop\n        /* \"#utility.yul\":8615:8824   */\n      swap3\n      swap2\n      pop\n      pop\n      jump\t// out\n        /* \"#utility.yul\":8830:8987   */\n    tag_222:\n        /* \"#utility.yul\":8922:8926   */\n      0x00\n        /* \"#utility.yul\":8945:8948   */\n      dup2\n        /* \"#utility.yul\":8937:8948   */\n      swap1\n      pop\n        /* \"#utility.yul\":8975:8979   */\n      0x20\n        /* \"#utility.yul\":8970:8973   */\n      dup3\n        /* \"#utility.yul\":8966:8980   */\n      add\n        /* \"#utility.yul\":8958:8980   */\n      swap1\n      pop\n        /* \"#utility.yul\":8830:8987   */\n      swap2\n      swap1\n      pop\n      jump\t// out\n        /* \"#utility.yul\":8993:9101   */\n    tag_223:\n        /* \"#utility.yul\":9070:9094   */\n      tag_374\n        /* \"#utility.yul\":9088:9093   */\n      dup2\n        /* \"#utility.yul\":9070:9094   */\n      tag_201\n      jump\t// in\n    tag_374:\n        /* \"#utility.yul\":9065:9068   */\n      dup3\n        /* \"#utility.yul\":9058:9095   */\n      mstore\n        /* \"#utility.yul\":8993:9101   */\n      pop\n      pop\n      jump\t// out\n        /* \"#utility.yul\":9107:9266   */\n    tag_224:\n        /* \"#utility.yul\":9181:9192   */\n      0x00\n        /* \"#utility.yul\":9215:9221   */\n      dup3\n        /* \"#utility.yul\":9210:9213   */\n      dup3\n        /* \"#utility.yul\":9203:9222   */\n      mstore\n        /* \"#utility.yul\":9255:9259   */\n      0x20\n        /* \"#utility.yul\":9250:9253   */\n      dup3\n        /* \"#utility.yul\":9246:9260   */\n      add\n        /* \"#utility.yul\":9231:9260   */\n      swap1\n      pop\n        /* \"#utility.yul\":9107:9266   */\n      swap3\n      swap2\n      pop\n      pop\n      jump\t// out\n        /* \"#utility.yul\":9272:9629   */\n    tag_225:\n        /* \"#utility.yul\":9350:9353   */\n      0x00\n        /* \"#utility.yul\":9378:9417   */\n      tag_377\n        /* \"#utility.yul\":9411:9416   */\n      dup3\n        /* \"#utility.yul\":9378:9417   */\n      tag_216\n      jump\t// in\n    tag_377:\n        /* \"#utility.yul\":9433:9494   */\n      tag_378\n        /* \"#utility.yul\":9487:9493   */\n      dup2\n        /* \"#utility.yul\":9482:9485   */\n      dup6\n        /* \"#utility.yul\":9433:9494   */\n      tag_224\n      jump\t// in\n    tag_378:\n        /* \"#utility.yul\":9426:9494   */\n      swap4\n      pop\n        /* \"#utility.yul\":9503:9568   */\n      tag_379\n        /* \"#utility.yul\":9561:9567   */\n      dup2\n        /* \"#utility.yul\":9556:9559   */\n      dup6\n        /* \"#utility.yul\":9549:9553   */\n      0x20\n        /* \"#utility.yul\":9542:9547   */\n      dup7\n        /* \"#utility.yul\":9538:9554   */\n      add\n        /* \"#utility.yul\":9503:9568   */\n      tag_218\n      jump\t// in\n    tag_379:\n        /* \"#utility.yul\":9593:9622   */\n      tag_380\n        /* \"#utility.yul\":9615:9621   */\n      dup2\n        /* \"#utility.yul\":9593:9622   */\n      tag_209\n      jump\t// in\n    tag_380:\n        /* \"#utility.yul\":9588:9591   */\n      dup5\n        /* \"#utility.yul\":9584:9623   */\n      add\n        /* \"#utility.yul\":9577:9623   */\n      swap2\n      pop\n        /* \"#utility.yul\":9354:9629   */\n      pop\n        /* \"#utility.yul\":9272:9629   */\n      swap3\n      swap2\n      pop\n      pop\n      jump\t// out\n        /* \"#utility.yul\":9727:10678   */\n    tag_226:\n        /* \"#utility.yul\":9836:9839   */\n      0x00\n        /* \"#utility.yul\":9872:9876   */\n      0x80\n        /* \"#utility.yul\":9867:9870   */\n      dup4\n        /* \"#utility.yul\":9863:9877   */\n      add\n        /* \"#utility.yul\":9957:9961   */\n      0x00\n        /* \"#utility.yul\":9950:9955   */\n      dup4\n        /* \"#utility.yul\":9946:9962   */\n      add\n        /* \"#utility.yul\":9940:9963   */\n      mload\n        /* \"#utility.yul\":9976:10039   */\n      tag_382\n        /* \"#utility.yul\":10033:10037   */\n      0x00\n        /* \"#utility.yul\":10028:10031   */\n      dup7\n        /* \"#utility.yul\":10024:10038   */\n      add\n        /* \"#utility.yul\":10010:10022   */\n      dup3\n        /* \"#utility.yul\":9976:10039   */\n      tag_223\n      jump\t// in\n    tag_382:\n        /* \"#utility.yul\":9887:10049   */\n      pop\n        /* \"#utility.yul\":10135:10139   */\n      0x20\n        /* \"#utility.yul\":10128:10133   */\n      dup4\n        /* \"#utility.yul\":10124:10140   */\n      add\n        /* \"#utility.yul\":10118:10141   */\n      mload\n        /* \"#utility.yul\":10188:10191   */\n      dup5\n        /* \"#utility.yul\":10182:10186   */\n      dup3\n        /* \"#utility.yul\":10178:10192   */\n      sub\n        /* \"#utility.yul\":10171:10175   */\n      0x20\n        /* \"#utility.yul\":10166:10169   */\n      dup7\n        /* \"#utility.yul\":10162:10176   */\n      add\n        /* \"#utility.yul\":10155:10193   */\n      mstore\n        /* \"#utility.yul\":10214:10287   */\n      tag_383\n        /* \"#utility.yul\":10282:10286   */\n      dup3\n        /* \"#utility.yul\":10268:10280   */\n      dup3\n        /* \"#utility.yul\":10214:10287   */\n      tag_225\n      jump\t// in\n    tag_383:\n        /* \"#utility.yul\":10206:10287   */\n      swap2\n      pop\n        /* \"#utility.yul\":10059:10298   */\n      pop\n        /* \"#utility.yul\":10384:10388   */\n      0x40\n        /* \"#utility.yul\":10377:10382   */\n      dup4\n        /* \"#utility.yul\":10373:10389   */\n      add\n        /* \"#utility.yul\":10367:10390   */\n      mload\n        /* \"#utility.yul\":10403:10466   */\n      tag_384\n        /* \"#utility.yul\":10460:10464   */\n      0x40\n        /* \"#utility.yul\":10455:10458   */\n      dup7\n        /* \"#utility.yul\":10451:10465   */\n      add\n        /* \"#utility.yul\":10437:10449   */\n      dup3\n        /* \"#utility.yul\":10403:10466   */\n      tag_223\n      jump\t// in\n    tag_384:\n        /* \"#utility.yul\":10308:10476   */\n      pop\n        /* \"#utility.yul\":10559:10563   */\n      0x60\n        /* \"#utility.yul\":10552:10557   */\n      dup4\n        /* \"#utility.yul\":10548:10564   */\n      add\n        /* \"#utility.yul\":10542:10565   */\n      mload\n        /* \"#utility.yul\":10578:10641   */\n      tag_385\n        /* \"#utility.yul\":10635:10639   */\n      0x60\n        /* \"#utility.yul\":10630:10633   */\n      dup7\n        /* \"#utility.yul\":10626:10640   */\n      add\n        /* \"#utility.yul\":10612:10624   */\n      dup3\n        /* \"#utility.yul\":10578:10641   */\n      tag_223\n      jump\t// in\n    tag_385:\n        /* \"#utility.yul\":10486:10651   */\n      pop\n        /* \"#utility.yul\":10668:10672   */\n      dup1\n        /* \"#utility.yul\":10661:10672   */\n      swap2\n      pop\n        /* \"#utility.yul\":9841:10678   */\n      pop\n        /* \"#utility.yul\":9727:10678   */\n      swap3\n      swap2\n      pop\n      pop\n      jump\t// out\n        /* \"#utility.yul\":10684:10940   */\n    tag_227:\n        /* \"#utility.yul\":10803:10813   */\n      0x00\n        /* \"#utility.yul\":10838:10934   */\n      tag_387\n        /* \"#utility.yul\":10930:10933   */\n      dup4\n        /* \"#utility.yul\":10922:10928   */\n      dup4\n        /* \"#utility.yul\":10838:10934   */\n      tag_226\n      jump\t// in\n    tag_387:\n        /* \"#utility.yul\":10824:10934   */\n      swap1\n      pop\n        /* \"#utility.yul\":10684:10940   */\n      swap3\n      swap2\n      pop\n      pop\n      jump\t// out\n        /* \"#utility.yul\":10946:11084   */\n    tag_228:\n        /* \"#utility.yul\":11041:11045   */\n      0x00\n        /* \"#utility.yul\":11073:11077   */\n      0x20\n        /* \"#utility.yul\":11068:11071   */\n      dup3\n        /* \"#utility.yul\":11064:11078   */\n      add\n        /* \"#utility.yul\":11056:11078   */\n      swap1\n      pop\n        /* \"#utility.yul\":10946:11084   */\n      swap2\n      swap1\n      pop\n      jump\t// out\n        /* \"#utility.yul\":11186:12297   */\n    tag_229:\n        /* \"#utility.yul\":11355:11358   */\n      0x00\n        /* \"#utility.yul\":11384:11463   */\n      tag_390\n        /* \"#utility.yul\":11457:11462   */\n      dup3\n        /* \"#utility.yul\":11384:11463   */\n      tag_220\n      jump\t// in\n    tag_390:\n        /* \"#utility.yul\":11479:11590   */\n      tag_391\n        /* \"#utility.yul\":11583:11589   */\n      dup2\n        /* \"#utility.yul\":11578:11581   */\n      dup6\n        /* \"#utility.yul\":11479:11590   */\n      tag_221\n      jump\t// in\n    tag_391:\n        /* \"#utility.yul\":11472:11590   */\n      swap4\n      pop\n        /* \"#utility.yul\":11616:11619   */\n      dup4\n        /* \"#utility.yul\":11661:11665   */\n      0x20\n        /* \"#utility.yul\":11653:11659   */\n      dup3\n        /* \"#utility.yul\":11649:11666   */\n      mul\n        /* \"#utility.yul\":11644:11647   */\n      dup6\n        /* \"#utility.yul\":11640:11667   */\n      add\n        /* \"#utility.yul\":11691:11772   */\n      tag_392\n        /* \"#utility.yul\":11766:11771   */\n      dup6\n        /* \"#utility.yul\":11691:11772   */\n      tag_222\n      jump\t// in\n    tag_392:\n        /* \"#utility.yul\":11795:11802   */\n      dup1\n        /* \"#utility.yul\":11826:11827   */\n      0x00\n        /* \"#utility.yul\":11811:12252   */\n    tag_393:\n        /* \"#utility.yul\":11836:11842   */\n      dup6\n        /* \"#utility.yul\":11833:11834   */\n      dup2\n        /* \"#utility.yul\":11830:11843   */\n      lt\n        /* \"#utility.yul\":11811:12252   */\n      iszero\n      tag_395\n      jumpi\n        /* \"#utility.yul\":11907:11916   */\n      dup5\n        /* \"#utility.yul\":11901:11905   */\n      dup5\n        /* \"#utility.yul\":11897:11917   */\n      sub\n        /* \"#utility.yul\":11892:11895   */\n      dup10\n        /* \"#utility.yul\":11885:11918   */\n      mstore\n        /* \"#utility.yul\":11958:11964   */\n      dup2\n        /* \"#utility.yul\":11952:11965   */\n      mload\n        /* \"#utility.yul\":11986:12100   */\n      tag_396\n        /* \"#utility.yul\":12095:12099   */\n      dup6\n        /* \"#utility.yul\":12080:12093   */\n      dup3\n        /* \"#utility.yul\":11986:12100   */\n      tag_227\n      jump\t// in\n    tag_396:\n        /* \"#utility.yul\":11978:12100   */\n      swap5\n      pop\n        /* \"#utility.yul\":12123:12208   */\n      tag_397\n        /* \"#utility.yul\":12201:12207   */\n      dup4\n        /* \"#utility.yul\":12123:12208   */\n      tag_228\n      jump\t// in\n    tag_397:\n        /* \"#utility.yul\":12113:12208   */\n      swap3\n      pop\n        /* \"#utility.yul\":12237:12241   */\n      0x20\n        /* \"#utility.yul\":12232:12235   */\n      dup11\n        /* \"#utility.yul\":12228:12242   */\n      add\n        /* \"#utility.yul\":12221:12242   */\n      swap10\n      pop\n        /* \"#utility.yul\":11871:12252   */\n      pop\n        /* \"#utility.yul\":11858:11859   */\n      0x01\n        /* \"#utility.yul\":11855:11856   */\n      dup2\n        /* \"#utility.yul\":11851:11860   */\n      add\n        /* \"#utility.yul\":11846:11860   */\n      swap1\n      pop\n        /* \"#utility.yul\":11811:12252   */\n      jump(tag_393)\n    tag_395:\n        /* \"#utility.yul\":11815:11829   */\n      pop\n        /* \"#utility.yul\":12268:12272   */\n      dup3\n        /* \"#utility.yul\":12261:12272   */\n      swap8\n      pop\n        /* \"#utility.yul\":12288:12291   */\n      dup8\n        /* \"#utility.yul\":12281:12291   */\n      swap6\n      pop\n        /* \"#utility.yul\":11360:12297   */\n      pop\n      pop\n      pop\n      pop\n      pop\n        /* \"#utility.yul\":11186:12297   */\n      swap3\n      swap2\n      pop\n      pop\n      jump\t// out\n        /* \"#utility.yul\":12303:12776   */\n    tag_59:\n        /* \"#utility.yul\":12496:12500   */\n      0x00\n        /* \"#utility.yul\":12534:12536   */\n      0x20\n        /* \"#utility.yul\":12523:12532   */\n      dup3\n        /* \"#utility.yul\":12519:12537   */\n      add\n        /* \"#utility.yul\":12511:12537   */\n      swap1\n      pop\n        /* \"#utility.yul\":12583:12592   */\n      dup2\n        /* \"#utility.yul\":12577:12581   */\n      dup2\n        /* \"#utility.yul\":12573:12593   */\n      sub\n        /* \"#utility.yul\":12569:12570   */\n      0x00\n        /* \"#utility.yul\":12558:12567   */\n      dup4\n        /* \"#utility.yul\":12554:12571   */\n      add\n        /* \"#utility.yul\":12547:12594   */\n      mstore\n        /* \"#utility.yul\":12611:12769   */\n      tag_399\n        /* \"#utility.yul\":12764:12768   */\n      dup2\n        /* \"#utility.yul\":12755:12761   */\n      dup5\n        /* \"#utility.yul\":12611:12769   */\n      tag_229\n      jump\t// in\n    tag_399:\n        /* \"#utility.yul\":12603:12769   */\n      swap1\n      pop\n        /* \"#utility.yul\":12303:12776   */\n      swap3\n      swap2\n      pop\n      pop\n      jump\t// out\n        /* \"#utility.yul\":12782:13093   */\n    tag_230:\n        /* \"#utility.yul\":12859:12863   */\n      0x00\n        /* \"#utility.yul\":12949:12967   */\n      0xffffffffffffffff\n        /* \"#utility.yul\":12941:12947   */\n      dup3\n        /* \"#utility.yul\":12938:12968   */\n      gt\n        /* \"#utility.yul\":12935:12991   */\n      iszero\n      tag_401\n      jumpi\n        /* \"#utility.yul\":12971:12989   */\n      tag_402\n      tag_127\n      jump\t// in\n    tag_402:\n        /* \"#utility.yul\":12935:12991   */\n    tag_401:\n        /* \"#utility.yul\":13021:13025   */\n      0x20\n        /* \"#utility.yul\":13013:13019   */\n      dup3\n        /* \"#utility.yul\":13009:13026   */\n      mul\n        /* \"#utility.yul\":13001:13026   */\n      swap1\n      pop\n        /* \"#utility.yul\":13081:13085   */\n      0x20\n        /* \"#utility.yul\":13075:13079   */\n      dup2\n        /* \"#utility.yul\":13071:13086   */\n      add\n        /* \"#utility.yul\":13063:13086   */\n      swap1\n      pop\n        /* \"#utility.yul\":12782:13093   */\n      swap2\n      swap1\n      pop\n      jump\t// out\n        /* \"#utility.yul\":13099:13216   */\n    tag_231:\n        /* \"#utility.yul\":13208:13209   */\n      0x00\n        /* \"#utility.yul\":13205:13206   */\n      dup1\n        /* \"#utility.yul\":13198:13210   */\n      revert\n        /* \"#utility.yul\":13239:13949   */\n    tag_232:\n        /* \"#utility.yul\":13335:13340   */\n      0x00\n        /* \"#utility.yul\":13360:13441   */\n      tag_405\n        /* \"#utility.yul\":13376:13440   */\n      tag_406\n        /* \"#utility.yul\":13433:13439   */\n      dup5\n        /* \"#utility.yul\":13376:13440   */\n      tag_230\n      jump\t// in\n    tag_406:\n        /* \"#utility.yul\":13360:13441   */\n      tag_211\n      jump\t// in\n    tag_405:\n        /* \"#utility.yul\":13351:13441   */\n      swap1\n      pop\n        /* \"#utility.yul\":13461:13466   */\n      dup1\n        /* \"#utility.yul\":13490:13496   */\n      dup4\n        /* \"#utility.yul\":13483:13488   */\n      dup3\n        /* \"#utility.yul\":13476:13497   */\n      mstore\n        /* \"#utility.yul\":13524:13528   */\n      0x20\n        /* \"#utility.yul\":13517:13522   */\n      dup3\n        /* \"#utility.yul\":13513:13529   */\n      add\n        /* \"#utility.yul\":13506:13529   */\n      swap1\n      pop\n        /* \"#utility.yul\":13577:13581   */\n      0x20\n        /* \"#utility.yul\":13569:13575   */\n      dup5\n        /* \"#utility.yul\":13565:13582   */\n      mul\n        /* \"#utility.yul\":13557:13563   */\n      dup4\n        /* \"#utility.yul\":13553:13583   */\n      add\n        /* \"#utility.yul\":13606:13609   */\n      dup6\n        /* \"#utility.yul\":13598:13604   */\n      dup2\n        /* \"#utility.yul\":13595:13610   */\n      gt\n        /* \"#utility.yul\":13592:13714   */\n      iszero\n      tag_407\n      jumpi\n        /* \"#utility.yul\":13625:13704   */\n      tag_408\n      tag_231\n      jump\t// in\n    tag_408:\n        /* \"#utility.yul\":13592:13714   */\n    tag_407:\n        /* \"#utility.yul\":13740:13746   */\n      dup4\n        /* \"#utility.yul\":13723:13943   */\n    tag_409:\n        /* \"#utility.yul\":13757:13763   */\n      dup2\n        /* \"#utility.yul\":13752:13755   */\n      dup2\n        /* \"#utility.yul\":13749:13764   */\n      lt\n        /* \"#utility.yul\":13723:13943   */\n      iszero\n      tag_411\n      jumpi\n        /* \"#utility.yul\":13832:13835   */\n      dup1\n        /* \"#utility.yul\":13861:13898   */\n      tag_412\n        /* \"#utility.yul\":13894:13897   */\n      dup9\n        /* \"#utility.yul\":13882:13892   */\n      dup3\n        /* \"#utility.yul\":13861:13898   */\n      tag_200\n      jump\t// in\n    tag_412:\n        /* \"#utility.yul\":13856:13859   */\n      dup5\n        /* \"#utility.yul\":13849:13899   */\n      mstore\n        /* \"#utility.yul\":13928:13932   */\n      0x20\n        /* \"#utility.yul\":13923:13926   */\n      dup5\n        /* \"#utility.yul\":13919:13933   */\n      add\n        /* \"#utility.yul\":13912:13933   */\n      swap4\n      pop\n        /* \"#utility.yul\":13799:13943   */\n      pop\n        /* \"#utility.yul\":13783:13787   */\n      0x20\n        /* \"#utility.yul\":13778:13781   */\n      dup2\n        /* \"#utility.yul\":13774:13788   */\n      add\n        /* \"#utility.yul\":13767:13788   */\n      swap1\n      pop\n        /* \"#utility.yul\":13723:13943   */\n      jump(tag_409)\n    tag_411:\n        /* \"#utility.yul\":13727:13748   */\n      pop\n        /* \"#utility.yul\":13341:13949   */\n      pop\n      pop\n        /* \"#utility.yul\":13239:13949   */\n      swap4\n      swap3\n      pop\n      pop\n      pop\n      jump\t// out\n        /* \"#utility.yul\":13972:14342   */\n    tag_233:\n        /* \"#utility.yul\":14043:14048   */\n      0x00\n        /* \"#utility.yul\":14092:14095   */\n      dup3\n        /* \"#utility.yul\":14085:14089   */\n      0x1f\n        /* \"#utility.yul\":14077:14083   */\n      dup4\n        /* \"#utility.yul\":14073:14090   */\n      add\n        /* \"#utility.yul\":14069:14096   */\n      slt\n        /* \"#utility.yul\":14059:14181   */\n      tag_414\n      jumpi\n        /* \"#utility.yul\":14100:14179   */\n      tag_415\n      tag_207\n      jump\t// in\n    tag_415:\n        /* \"#utility.yul\":14059:14181   */\n    tag_414:\n        /* \"#utility.yul\":14217:14223   */\n      dup2\n        /* \"#utility.yul\":14204:14224   */\n      calldataload\n        /* \"#utility.yul\":14242:14336   */\n      tag_416\n        /* \"#utility.yul\":14332:14335   */\n      dup5\n        /* \"#utility.yul\":14324:14330   */\n      dup3\n        /* \"#utility.yul\":14317:14321   */\n      0x20\n        /* \"#utility.yul\":14309:14315   */\n      dup7\n        /* \"#utility.yul\":14305:14322   */\n      add\n        /* \"#utility.yul\":14242:14336   */\n      tag_232\n      jump\t// in\n    tag_416:\n        /* \"#utility.yul\":14233:14336   */\n      swap2\n      pop\n        /* \"#utility.yul\":14049:14342   */\n      pop\n        /* \"#utility.yul\":13972:14342   */\n      swap3\n      swap2\n      pop\n      pop\n      jump\t// out\n        /* \"#utility.yul\":14348:14887   */\n    tag_62:\n        /* \"#utility.yul\":14432:14438   */\n      0x00\n        /* \"#utility.yul\":14481:14483   */\n      0x20\n        /* \"#utility.yul\":14469:14478   */\n      dup3\n        /* \"#utility.yul\":14460:14467   */\n      dup5\n        /* \"#utility.yul\":14456:14479   */\n      sub\n        /* \"#utility.yul\":14452:14484   */\n      slt\n        /* \"#utility.yul\":14449:14568   */\n      iszero\n      tag_418\n      jumpi\n        /* \"#utility.yul\":14487:14566   */\n      tag_419\n      tag_195\n      jump\t// in\n    tag_419:\n        /* \"#utility.yul\":14449:14568   */\n    tag_418:\n        /* \"#utility.yul\":14635:14636   */\n      0x00\n        /* \"#utility.yul\":14624:14633   */\n      dup3\n        /* \"#utility.yul\":14620:14637   */\n      add\n        /* \"#utility.yul\":14607:14638   */\n      calldataload\n        /* \"#utility.yul\":14665:14683   */\n      0xffffffffffffffff\n        /* \"#utility.yul\":14657:14663   */\n      dup2\n        /* \"#utility.yul\":14654:14684   */\n      gt\n        /* \"#utility.yul\":14651:14768   */\n      iszero\n      tag_420\n      jumpi\n        /* \"#utility.yul\":14687:14766   */\n      tag_421\n      tag_196\n      jump\t// in\n    tag_421:\n        /* \"#utility.yul\":14651:14768   */\n    tag_420:\n        /* \"#utility.yul\":14792:14870   */\n      tag_422\n        /* \"#utility.yul\":14862:14869   */\n      dup5\n        /* \"#utility.yul\":14853:14859   */\n      dup3\n        /* \"#utility.yul\":14842:14851   */\n      dup6\n        /* \"#utility.yul\":14838:14860   */\n      add\n        /* \"#utility.yul\":14792:14870   */\n      tag_233\n      jump\t// in\n    tag_422:\n        /* \"#utility.yul\":14782:14870   */\n      swap2\n      pop\n        /* \"#utility.yul\":14578:14880   */\n      pop\n        /* \"#utility.yul\":14348:14887   */\n      swap3\n      swap2\n      pop\n      pop\n      jump\t// out\n        /* \"#utility.yul\":14893:15066   */\n    tag_234:\n        /* \"#utility.yul\":15033:15058   */\n      0x4944204d696c6b4261746368204e6f742056616c696421000000000000000000\n        /* \"#utility.yul\":15029:15030   */\n      0x00\n        /* \"#utility.yul\":15021:15027   */\n      dup3\n        /* \"#utility.yul\":15017:15031   */\n      add\n        /* \"#utility.yul\":15010:15059   */\n      mstore\n        /* \"#utility.yul\":14893:15066   */\n      pop\n      jump\t// out\n        /* \"#utility.yul\":15072:15438   */\n    tag_235:\n        /* \"#utility.yul\":15214:15217   */\n      0x00\n        /* \"#utility.yul\":15235:15302   */\n      tag_425\n        /* \"#utility.yul\":15299:15301   */\n      0x17\n        /* \"#utility.yul\":15294:15297   */\n      dup4\n        /* \"#utility.yul\":15235:15302   */\n      tag_217\n      jump\t// in\n    tag_425:\n        /* \"#utility.yul\":15228:15302   */\n      swap2\n      pop\n        /* \"#utility.yul\":15311:15404   */\n      tag_426\n        /* \"#utility.yul\":15400:15403   */\n      dup3\n        /* \"#utility.yul\":15311:15404   */\n      tag_234\n      jump\t// in\n    tag_426:\n        /* \"#utility.yul\":15429:15431   */\n      0x20\n        /* \"#utility.yul\":15424:15427   */\n      dup3\n        /* \"#utility.yul\":15420:15432   */\n      add\n        /* \"#utility.yul\":15413:15432   */\n      swap1\n      pop\n        /* \"#utility.yul\":15072:15438   */\n      swap2\n      swap1\n      pop\n      jump\t// out\n        /* \"#utility.yul\":15444:15863   */\n    tag_72:\n        /* \"#utility.yul\":15610:15614   */\n      0x00\n        /* \"#utility.yul\":15648:15650   */\n      0x20\n        /* \"#utility.yul\":15637:15646   */\n      dup3\n        /* \"#utility.yul\":15633:15651   */\n      add\n        /* \"#utility.yul\":15625:15651   */\n      swap1\n      pop\n        /* \"#utility.yul\":15697:15706   */\n      dup2\n        /* \"#utility.yul\":15691:15695   */\n      dup2\n        /* \"#utility.yul\":15687:15707   */\n      sub\n        /* \"#utility.yul\":15683:15684   */\n      0x00\n        /* \"#utility.yul\":15672:15681   */\n      dup4\n        /* \"#utility.yul\":15668:15685   */\n      add\n        /* \"#utility.yul\":15661:15708   */\n      mstore\n        /* \"#utility.yul\":15725:15856   */\n      tag_428\n        /* \"#utility.yul\":15851:15855   */\n      dup2\n        /* \"#utility.yul\":15725:15856   */\n      tag_235\n      jump\t// in\n    tag_428:\n        /* \"#utility.yul\":15717:15856   */\n      swap1\n      pop\n        /* \"#utility.yul\":15444:15863   */\n      swap2\n      swap1\n      pop\n      jump\t// out\n        /* \"#utility.yul\":15869:16049   */\n    tag_236:\n        /* \"#utility.yul\":15917:15994   */\n      0x4e487b7100000000000000000000000000000000000000000000000000000000\n        /* \"#utility.yul\":15914:15915   */\n      0x00\n        /* \"#utility.yul\":15907:15995   */\n      mstore\n        /* \"#utility.yul\":16014:16018   */\n      0x22\n        /* \"#utility.yul\":16011:16012   */\n      0x04\n        /* \"#utility.yul\":16004:16019   */\n      mstore\n        /* \"#utility.yul\":16038:16042   */\n      0x24\n        /* \"#utility.yul\":16035:16036   */\n      0x00\n        /* \"#utility.yul\":16028:16043   */\n      revert\n        /* \"#utility.yul\":16055:16375   */\n    tag_75:\n        /* \"#utility.yul\":16099:16105   */\n      0x00\n        /* \"#utility.yul\":16136:16137   */\n      0x02\n        /* \"#utility.yul\":16130:16134   */\n      dup3\n        /* \"#utility.yul\":16126:16138   */\n      div\n        /* \"#utility.yul\":16116:16138   */\n      swap1\n      pop\n        /* \"#utility.yul\":16183:16184   */\n      0x01\n        /* \"#utility.yul\":16177:16181   */\n      dup3\n        /* \"#utility.yul\":16173:16185   */\n      and\n        /* \"#utility.yul\":16204:16222   */\n      dup1\n        /* \"#utility.yul\":16194:16275   */\n      tag_431\n      jumpi\n        /* \"#utility.yul\":16260:16264   */\n      0x7f\n        /* \"#utility.yul\":16252:16258   */\n      dup3\n        /* \"#utility.yul\":16248:16265   */\n      and\n        /* \"#utility.yul\":16238:16265   */\n      swap2\n      pop\n        /* \"#utility.yul\":16194:16275   */\n    tag_431:\n        /* \"#utility.yul\":16322:16324   */\n      0x20\n        /* \"#utility.yul\":16314:16320   */\n      dup3\n        /* \"#utility.yul\":16311:16325   */\n      lt\n        /* \"#utility.yul\":16291:16309   */\n      dup2\n        /* \"#utility.yul\":16288:16326   */\n      sub\n        /* \"#utility.yul\":16285:16369   */\n      tag_432\n      jumpi\n        /* \"#utility.yul\":16341:16359   */\n      tag_433\n      tag_236\n      jump\t// in\n    tag_433:\n        /* \"#utility.yul\":16285:16369   */\n    tag_432:\n        /* \"#utility.yul\":16106:16375   */\n      pop\n        /* \"#utility.yul\":16055:16375   */\n      swap2\n      swap1\n      pop\n      jump\t// out\n        /* \"#utility.yul\":16381:16529   */\n    tag_237:\n        /* \"#utility.yul\":16483:16494   */\n      0x00\n        /* \"#utility.yul\":16520:16523   */\n      dup2\n        /* \"#utility.yul\":16505:16523   */\n      swap1\n      pop\n        /* \"#utility.yul\":16381:16529   */\n      swap3\n      swap2\n      pop\n      pop\n      jump\t// out\n        /* \"#utility.yul\":16535:16925   */\n    tag_238:\n        /* \"#utility.yul\":16641:16644   */\n      0x00\n        /* \"#utility.yul\":16669:16708   */\n      tag_436\n        /* \"#utility.yul\":16702:16707   */\n      dup3\n        /* \"#utility.yul\":16669:16708   */\n      tag_216\n      jump\t// in\n    tag_436:\n        /* \"#utility.yul\":16724:16813   */\n      tag_437\n        /* \"#utility.yul\":16806:16812   */\n      dup2\n        /* \"#utility.yul\":16801:16804   */\n      dup6\n        /* \"#utility.yul\":16724:16813   */\n      tag_237\n      jump\t// in\n    tag_437:\n        /* \"#utility.yul\":16717:16813   */\n      swap4\n      pop\n        /* \"#utility.yul\":16822:16887   */\n      tag_438\n        /* \"#utility.yul\":16880:16886   */\n      dup2\n        /* \"#utility.yul\":16875:16878   */\n      dup6\n        /* \"#utility.yul\":16868:16872   */\n      0x20\n        /* \"#utility.yul\":16861:16866   */\n      dup7\n        /* \"#utility.yul\":16857:16873   */\n      add\n        /* \"#utility.yul\":16822:16887   */\n      tag_218\n      jump\t// in\n    tag_438:\n        /* \"#utility.yul\":16912:16918   */\n      dup1\n        /* \"#utility.yul\":16907:16910   */\n      dup5\n        /* \"#utility.yul\":16903:16919   */\n      add\n        /* \"#utility.yul\":16896:16919   */\n      swap2\n      pop\n        /* \"#utility.yul\":16645:16925   */\n      pop\n        /* \"#utility.yul\":16535:16925   */\n      swap3\n      swap2\n      pop\n      pop\n      jump\t// out\n        /* \"#utility.yul\":16931:17010   */\n    tag_239:\n        /* \"#utility.yul\":16970:16977   */\n      0x00\n        /* \"#utility.yul\":16999:17004   */\n      dup2\n        /* \"#utility.yul\":16988:17004   */\n      swap1\n      pop\n        /* \"#utility.yul\":16931:17010   */\n      swap2\n      swap1\n      pop\n      jump\t// out\n        /* \"#utility.yul\":17016:17173   */\n    tag_240:\n        /* \"#utility.yul\":17121:17166   */\n      tag_441\n        /* \"#utility.yul\":17141:17165   */\n      tag_442\n        /* \"#utility.yul\":17159:17164   */\n      dup3\n        /* \"#utility.yul\":17141:17165   */\n      tag_201\n      jump\t// in\n    tag_442:\n        /* \"#utility.yul\":17121:17166   */\n      tag_239\n      jump\t// in\n    tag_441:\n        /* \"#utility.yul\":17116:17119   */\n      dup3\n        /* \"#utility.yul\":17109:17167   */\n      mstore\n        /* \"#utility.yul\":17016:17173   */\n      pop\n      pop\n      jump\t// out\n        /* \"#utility.yul\":17179:17273   */\n    tag_241:\n        /* \"#utility.yul\":17212:17220   */\n      0x00\n        /* \"#utility.yul\":17260:17265   */\n      dup2\n        /* \"#utility.yul\":17256:17258   */\n      0x60\n        /* \"#utility.yul\":17252:17266   */\n      shl\n        /* \"#utility.yul\":17231:17266   */\n      swap1\n      pop\n        /* \"#utility.yul\":17179:17273   */\n      swap2\n      swap1\n      pop\n      jump\t// out\n        /* \"#utility.yul\":17279:17373   */\n    tag_242:\n        /* \"#utility.yul\":17318:17325   */\n      0x00\n        /* \"#utility.yul\":17347:17367   */\n      tag_445\n        /* \"#utility.yul\":17361:17366   */\n      dup3\n        /* \"#utility.yul\":17347:17367   */\n      tag_241\n      jump\t// in\n    tag_445:\n        /* \"#utility.yul\":17336:17367   */\n      swap1\n      pop\n        /* \"#utility.yul\":17279:17373   */\n      swap2\n      swap1\n      pop\n      jump\t// out\n        /* \"#utility.yul\":17379:17479   */\n    tag_243:\n        /* \"#utility.yul\":17418:17425   */\n      0x00\n        /* \"#utility.yul\":17447:17473   */\n      tag_447\n        /* \"#utility.yul\":17467:17472   */\n      dup3\n        /* \"#utility.yul\":17447:17473   */\n      tag_242\n      jump\t// in\n    tag_447:\n        /* \"#utility.yul\":17436:17473   */\n      swap1\n      pop\n        /* \"#utility.yul\":17379:17479   */\n      swap2\n      swap1\n      pop\n      jump\t// out\n        /* \"#utility.yul\":17485:17642   */\n    tag_244:\n        /* \"#utility.yul\":17590:17635   */\n      tag_449\n        /* \"#utility.yul\":17610:17634   */\n      tag_450\n        /* \"#utility.yul\":17628:17633   */\n      dup3\n        /* \"#utility.yul\":17610:17634   */\n      tag_198\n      jump\t// in\n    tag_450:\n        /* \"#utility.yul\":17590:17635   */\n      tag_243\n      jump\t// in\n    tag_449:\n        /* \"#utility.yul\":17585:17588   */\n      dup3\n        /* \"#utility.yul\":17578:17636   */\n      mstore\n        /* \"#utility.yul\":17485:17642   */\n      pop\n      pop\n      jump\t// out\n        /* \"#utility.yul\":17648:18487   */\n    tag_88:\n        /* \"#utility.yul\":17892:17895   */\n      0x00\n        /* \"#utility.yul\":17914:18009   */\n      tag_452\n        /* \"#utility.yul\":18005:18008   */\n      dup3\n        /* \"#utility.yul\":17996:18002   */\n      dup9\n        /* \"#utility.yul\":17914:18009   */\n      tag_238\n      jump\t// in\n    tag_452:\n        /* \"#utility.yul\":17907:18009   */\n      swap2\n      pop\n        /* \"#utility.yul\":18019:18094   */\n      tag_453\n        /* \"#utility.yul\":18090:18093   */\n      dup3\n        /* \"#utility.yul\":18081:18087   */\n      dup8\n        /* \"#utility.yul\":18019:18094   */\n      tag_240\n      jump\t// in\n    tag_453:\n        /* \"#utility.yul\":18119:18121   */\n      0x20\n        /* \"#utility.yul\":18114:18117   */\n      dup3\n        /* \"#utility.yul\":18110:18122   */\n      add\n        /* \"#utility.yul\":18103:18122   */\n      swap2\n      pop\n        /* \"#utility.yul\":18132:18207   */\n      tag_454\n        /* \"#utility.yul\":18203:18206   */\n      dup3\n        /* \"#utility.yul\":18194:18200   */\n      dup7\n        /* \"#utility.yul\":18132:18207   */\n      tag_240\n      jump\t// in\n    tag_454:\n        /* \"#utility.yul\":18232:18234   */\n      0x20\n        /* \"#utility.yul\":18227:18230   */\n      dup3\n        /* \"#utility.yul\":18223:18235   */\n      add\n        /* \"#utility.yul\":18216:18235   */\n      swap2\n      pop\n        /* \"#utility.yul\":18245:18320   */\n      tag_455\n        /* \"#utility.yul\":18316:18319   */\n      dup3\n        /* \"#utility.yul\":18307:18313   */\n      dup6\n        /* \"#utility.yul\":18245:18320   */\n      tag_244\n      jump\t// in\n    tag_455:\n        /* \"#utility.yul\":18345:18347   */\n      0x14\n        /* \"#utility.yul\":18340:18343   */\n      dup3\n        /* \"#utility.yul\":18336:18348   */\n      add\n        /* \"#utility.yul\":18329:18348   */\n      swap2\n      pop\n        /* \"#utility.yul\":18358:18433   */\n      tag_456\n        /* \"#utility.yul\":18429:18432   */\n      dup3\n        /* \"#utility.yul\":18420:18426   */\n      dup5\n        /* \"#utility.yul\":18358:18433   */\n      tag_240\n      jump\t// in\n    tag_456:\n        /* \"#utility.yul\":18458:18460   */\n      0x20\n        /* \"#utility.yul\":18453:18456   */\n      dup3\n        /* \"#utility.yul\":18449:18461   */\n      add\n        /* \"#utility.yul\":18442:18461   */\n      swap2\n      pop\n        /* \"#utility.yul\":18478:18481   */\n      dup2\n        /* \"#utility.yul\":18471:18481   */\n      swap1\n      pop\n        /* \"#utility.yul\":17648:18487   */\n      swap7\n      swap6\n      pop\n      pop\n      pop\n      pop\n      pop\n      pop\n      jump\t// out\n        /* \"#utility.yul\":18493:18634   */\n    tag_245:\n        /* \"#utility.yul\":18542:18546   */\n      0x00\n        /* \"#utility.yul\":18565:18568   */\n      dup2\n        /* \"#utility.yul\":18557:18568   */\n      swap1\n      pop\n        /* \"#utility.yul\":18588:18591   */\n      dup2\n        /* \"#utility.yul\":18585:18586   */\n      0x00\n        /* \"#utility.yul\":18578:18592   */\n      mstore\n        /* \"#utility.yul\":18622:18626   */\n      0x20\n        /* \"#utility.yul\":18619:18620   */\n      0x00\n        /* \"#utility.yul\":18609:18627   */\n      keccak256\n        /* \"#utility.yul\":18601:18627   */\n      swap1\n      pop\n        /* \"#utility.yul\":18493:18634   */\n      swap2\n      swap1\n      pop\n      jump\t// out\n        /* \"#utility.yul\":18640:18733   */\n    tag_246:\n        /* \"#utility.yul\":18677:18683   */\n      0x00\n        /* \"#utility.yul\":18724:18726   */\n      0x20\n        /* \"#utility.yul\":18719:18721   */\n      0x1f\n        /* \"#utility.yul\":18712:18717   */\n      dup4\n        /* \"#utility.yul\":18708:18722   */\n      add\n        /* \"#utility.yul\":18704:18727   */\n      div\n        /* \"#utility.yul\":18694:18727   */\n      swap1\n      pop\n        /* \"#utility.yul\":18640:18733   */\n      swap2\n      swap1\n      pop\n      jump\t// out\n        /* \"#utility.yul\":18739:18846   */\n    tag_247:\n        /* \"#utility.yul\":18783:18791   */\n      0x00\n        /* \"#utility.yul\":18833:18838   */\n      dup3\n        /* \"#utility.yul\":18827:18831   */\n      dup3\n        /* \"#utility.yul\":18823:18839   */\n      shl\n        /* \"#utility.yul\":18802:18839   */\n      swap1\n      pop\n        /* \"#utility.yul\":18739:18846   */\n      swap3\n      swap2\n      pop\n      pop\n      jump\t// out\n        /* \"#utility.yul\":18852:19245   */\n    tag_248:\n        /* \"#utility.yul\":18921:18927   */\n      0x00\n        /* \"#utility.yul\":18971:18972   */\n      0x08\n        /* \"#utility.yul\":18959:18969   */\n      dup4\n        /* \"#utility.yul\":18955:18973   */\n      mul\n        /* \"#utility.yul\":18994:19091   */\n      tag_461\n        /* \"#utility.yul\":19024:19090   */\n      0xffffffffffffffffffffffffffffffffffffffffffffffffffffffffffffffff\n        /* \"#utility.yul\":19013:19022   */\n      dup3\n        /* \"#utility.yul\":18994:19091   */\n      tag_247\n      jump\t// in\n    tag_461:\n        /* \"#utility.yul\":19112:19151   */\n      tag_462\n        /* \"#utility.yul\":19142:19150   */\n      dup7\n        /* \"#utility.yul\":19131:19140   */\n      dup4\n        /* \"#utility.yul\":19112:19151   */\n      tag_247\n      jump\t// in\n    tag_462:\n        /* \"#utility.yul\":19100:19151   */\n      swap6\n      pop\n        /* \"#utility.yul\":19184:19188   */\n      dup1\n        /* \"#utility.yul\":19180:19189   */\n      not\n        /* \"#utility.yul\":19173:19178   */\n      dup5\n        /* \"#utility.yul\":19169:19190   */\n      and\n        /* \"#utility.yul\":19160:19190   */\n      swap4\n      pop\n        /* \"#utility.yul\":19233:19237   */\n      dup1\n        /* \"#utility.yul\":19223:19231   */\n      dup7\n        /* \"#utility.yul\":19219:19238   */\n      and\n        /* \"#utility.yul\":19212:19217   */\n      dup5\n        /* \"#utility.yul\":19209:19239   */\n      or\n        /* \"#utility.yul\":19199:19239   */\n      swap3\n      pop\n        /* \"#utility.yul\":18928:19245   */\n      pop\n      pop\n        /* \"#utility.yul\":18852:19245   */\n      swap4\n      swap3\n      pop\n      pop\n      pop\n      jump\t// out\n        /* \"#utility.yul\":19251:19311   */\n    tag_249:\n        /* \"#utility.yul\":19279:19282   */\n      0x00\n        /* \"#utility.yul\":19300:19305   */\n      dup2\n        /* \"#utility.yul\":19293:19305   */\n      swap1\n      pop\n        /* \"#utility.yul\":19251:19311   */\n      swap2\n      swap1\n      pop\n      jump\t// out\n        /* \"#utility.yul\":19317:19459   */\n    tag_250:\n        /* \"#utility.yul\":19367:19376   */\n      0x00\n        /* \"#utility.yul\":19400:19453   */\n      tag_465\n        /* \"#utility.yul\":19418:19452   */\n      tag_466\n        /* \"#utility.yul\":19427:19451   */\n      tag_467\n        /* \"#utility.yul\":19445:19450   */\n      dup5\n        /* \"#utility.yul\":19427:19451   */\n      tag_201\n      jump\t// in\n    tag_467:\n        /* \"#utility.yul\":19418:19452   */\n      tag_249\n      jump\t// in\n    tag_466:\n        /* \"#utility.yul\":19400:19453   */\n      tag_201\n      jump\t// in\n    tag_465:\n        /* \"#utility.yul\":19387:19453   */\n      swap1\n      pop\n        /* \"#utility.yul\":19317:19459   */\n      swap2\n      swap1\n      pop\n      jump\t// out\n        /* \"#utility.yul\":19465:19540   */\n    tag_251:\n        /* \"#utility.yul\":19508:19511   */\n      0x00\n        /* \"#utility.yul\":19529:19534   */\n      dup2\n        /* \"#utility.yul\":19522:19534   */\n      swap1\n      pop\n        /* \"#utility.yul\":19465:19540   */\n      swap2\n      swap1\n      pop\n      jump\t// out\n        /* \"#utility.yul\":19546:19815   */\n    tag_252:\n        /* \"#utility.yul\":19656:19695   */\n      tag_470\n        /* \"#utility.yul\":19687:19694   */\n      dup4\n        /* \"#utility.yul\":19656:19695   */\n      tag_250\n      jump\t// in\n    tag_470:\n        /* \"#utility.yul\":19717:19808   */\n      tag_471\n        /* \"#utility.yul\":19766:19807   */\n      tag_472\n        /* \"#utility.yul\":19790:19806   */\n      dup3\n        /* \"#utility.yul\":19766:19807   */\n      tag_251\n      jump\t// in\n    tag_472:\n        /* \"#utility.yul\":19758:19764   */\n      dup5\n        /* \"#utility.yul\":19751:19755   */\n      dup5\n        /* \"#utility.yul\":19745:19756   */\n      sload\n        /* \"#utility.yul\":19717:19808   */\n      tag_248\n      jump\t// in\n    tag_471:\n        /* \"#utility.yul\":19711:19715   */\n      dup3\n        /* \"#utility.yul\":19704:19809   */\n      sstore\n        /* \"#utility.yul\":19622:19815   */\n      pop\n        /* \"#utility.yul\":19546:19815   */\n      pop\n      pop\n      pop\n      jump\t// out\n        /* \"#utility.yul\":19821:19894   */\n    tag_253:\n        /* \"#utility.yul\":19866:19869   */\n      0x00\n        /* \"#utility.yul\":19821:19894   */\n      swap1\n      jump\t// out\n        /* \"#utility.yul\":19900:20089   */\n    tag_254:\n        /* \"#utility.yul\":19977:20009   */\n      tag_475\n      tag_253\n      jump\t// in\n    tag_475:\n        /* \"#utility.yul\":20018:20083   */\n      tag_476\n        /* \"#utility.yul\":20076:20082   */\n      dup2\n        /* \"#utility.yul\":20068:20074   */\n      dup5\n        /* \"#utility.yul\":20062:20066   */\n      dup5\n        /* \"#utility.yul\":20018:20083   */\n      tag_252\n      jump\t// in\n    tag_476:\n        /* \"#utility.yul\":19953:20089   */\n      pop\n        /* \"#utility.yul\":19900:20089   */\n      pop\n      pop\n      jump\t// out\n        /* \"#utility.yul\":20095:20281   */\n    tag_255:\n        /* \"#utility.yul\":20155:20275   */\n    tag_478:\n        /* \"#utility.yul\":20172:20175   */\n      dup2\n        /* \"#utility.yul\":20165:20170   */\n      dup2\n        /* \"#utility.yul\":20162:20176   */\n      lt\n        /* \"#utility.yul\":20155:20275   */\n      iszero\n      tag_480\n      jumpi\n        /* \"#utility.yul\":20226:20265   */\n      tag_481\n        /* \"#utility.yul\":20263:20264   */\n      0x00\n        /* \"#utility.yul\":20256:20261   */\n      dup3\n        /* \"#utility.yul\":20226:20265   */\n      tag_254\n      jump\t// in\n    tag_481:\n        /* \"#utility.yul\":20199:20200   */\n      0x01\n        /* \"#utility.yul\":20192:20197   */\n      dup2\n        /* \"#utility.yul\":20188:20201   */\n      add\n        /* \"#utility.yul\":20179:20201   */\n      swap1\n      pop\n        /* \"#utility.yul\":20155:20275   */\n      jump(tag_478)\n    tag_480:\n        /* \"#utility.yul\":20095:20281   */\n      pop\n      pop\n      jump\t// out\n        /* \"#utility.yul\":20287:20830   */\n    tag_256:\n        /* \"#utility.yul\":20388:20390   */\n      0x1f\n        /* \"#utility.yul\":20383:20386   */\n      dup3\n        /* \"#utility.yul\":20380:20391   */\n      gt\n        /* \"#utility.yul\":20377:20823   */\n      iszero\n      tag_483\n      jumpi\n        /* \"#utility.yul\":20422:20460   */\n      tag_484\n        /* \"#utility.yul\":20454:20459   */\n      dup2\n        /* \"#utility.yul\":20422:20460   */\n      tag_245\n      jump\t// in\n    tag_484:\n        /* \"#utility.yul\":20506:20535   */\n      tag_485\n        /* \"#utility.yul\":20524:20534   */\n      dup5\n        /* \"#utility.yul\":20506:20535   */\n      tag_246\n      jump\t// in\n    tag_485:\n        /* \"#utility.yul\":20496:20504   */\n      dup2\n        /* \"#utility.yul\":20492:20536   */\n      add\n        /* \"#utility.yul\":20689:20691   */\n      0x20\n        /* \"#utility.yul\":20677:20687   */\n      dup6\n        /* \"#utility.yul\":20674:20692   */\n      lt\n        /* \"#utility.yul\":20671:20720   */\n      iszero\n      tag_486\n      jumpi\n        /* \"#utility.yul\":20710:20718   */\n      dup2\n        /* \"#utility.yul\":20695:20718   */\n      swap1\n      pop\n        /* \"#utility.yul\":20671:20720   */\n    tag_486:\n        /* \"#utility.yul\":20733:20813   */\n      tag_487\n        /* \"#utility.yul\":20789:20811   */\n      tag_488\n        /* \"#utility.yul\":20807:20810   */\n      dup6\n        /* \"#utility.yul\":20789:20811   */\n      tag_246\n      jump\t// in\n    tag_488:\n        /* \"#utility.yul\":20779:20787   */\n      dup4\n        /* \"#utility.yul\":20775:20812   */\n      add\n        /* \"#utility.yul\":20762:20773   */\n      dup3\n        /* \"#utility.yul\":20733:20813   */\n      tag_255\n      jump\t// in\n    tag_487:\n        /* \"#utility.yul\":20392:20823   */\n      pop\n      pop\n        /* \"#utility.yul\":20377:20823   */\n    tag_483:\n        /* \"#utility.yul\":20287:20830   */\n      pop\n      pop\n      pop\n      jump\t// out\n        /* \"#utility.yul\":20836:20953   */\n    tag_257:\n        /* \"#utility.yul\":20890:20898   */\n      0x00\n        /* \"#utility.yul\":20940:20945   */\n      dup3\n        /* \"#utility.yul\":20934:20938   */\n      dup3\n        /* \"#utility.yul\":20930:20946   */\n      shr\n        /* \"#utility.yul\":20909:20946   */\n      swap1\n      pop\n        /* \"#utility.yul\":20836:20953   */\n      swap3\n      swap2\n      pop\n      pop\n      jump\t// out\n        /* \"#utility.yul\":20959:21128   */\n    tag_258:\n        /* \"#utility.yul\":21003:21009   */\n      0x00\n        /* \"#utility.yul\":21036:21087   */\n      tag_491\n        /* \"#utility.yul\":21084:21085   */\n      0x00\n        /* \"#utility.yul\":21080:21086   */\n      not\n        /* \"#utility.yul\":21072:21077   */\n      dup5\n        /* \"#utility.yul\":21069:21070   */\n      0x08\n        /* \"#utility.yul\":21065:21078   */\n      mul\n        /* \"#utility.yul\":21036:21087   */\n      tag_257\n      jump\t// in\n    tag_491:\n        /* \"#utility.yul\":21032:21088   */\n      not\n        /* \"#utility.yul\":21117:21121   */\n      dup1\n        /* \"#utility.yul\":21111:21115   */\n      dup4\n        /* \"#utility.yul\":21107:21122   */\n      and\n        /* \"#utility.yul\":21097:21122   */\n      swap2\n      pop\n        /* \"#utility.yul\":21010:21128   */\n      pop\n        /* \"#utility.yul\":20959:21128   */\n      swap3\n      swap2\n      pop\n      pop\n      jump\t// out\n        /* \"#utility.yul\":21133:21428   */\n    tag_259:\n        /* \"#utility.yul\":21209:21213   */\n      0x00\n        /* \"#utility.yul\":21355:21384   */\n      tag_493\n        /* \"#utility.yul\":21380:21383   */\n      dup4\n        /* \"#utility.yul\":21374:21378   */\n      dup4\n        /* \"#utility.yul\":21355:21384   */\n      tag_258\n      jump\t// in\n    tag_493:\n        /* \"#utility.yul\":21347:21384   */\n      swap2\n      pop\n        /* \"#utility.yul\":21417:21420   */\n      dup3\n        /* \"#utility.yul\":21414:21415   */\n      0x02\n        /* \"#utility.yul\":21410:21421   */\n      mul\n        /* \"#utility.yul\":21404:21408   */\n      dup3\n        /* \"#utility.yul\":21401:21422   */\n      or\n        /* \"#utility.yul\":21393:21422   */\n      swap1\n      pop\n        /* \"#utility.yul\":21133:21428   */\n      swap3\n      swap2\n      pop\n      pop\n      jump\t// out\n        /* \"#utility.yul\":21433:22828   */\n    tag_91:\n        /* \"#utility.yul\":21550:21587   */\n      tag_495\n        /* \"#utility.yul\":21583:21586   */\n      dup3\n        /* \"#utility.yul\":21550:21587   */\n      tag_216\n      jump\t// in\n    tag_495:\n        /* \"#utility.yul\":21652:21670   */\n      0xffffffffffffffff\n        /* \"#utility.yul\":21644:21650   */\n      dup2\n        /* \"#utility.yul\":21641:21671   */\n      gt\n        /* \"#utility.yul\":21638:21694   */\n      iszero\n      tag_496\n      jumpi\n        /* \"#utility.yul\":21674:21692   */\n      tag_497\n      tag_127\n      jump\t// in\n    tag_497:\n        /* \"#utility.yul\":21638:21694   */\n    tag_496:\n        /* \"#utility.yul\":21718:21756   */\n      tag_498\n        /* \"#utility.yul\":21750:21754   */\n      dup3\n        /* \"#utility.yul\":21744:21755   */\n      sload\n        /* \"#utility.yul\":21718:21756   */\n      tag_75\n      jump\t// in\n    tag_498:\n        /* \"#utility.yul\":21803:21870   */\n      tag_499\n        /* \"#utility.yul\":21863:21869   */\n      dup3\n        /* \"#utility.yul\":21855:21861   */\n      dup3\n        /* \"#utility.yul\":21849:21853   */\n      dup6\n        /* \"#utility.yul\":21803:21870   */\n      tag_256\n      jump\t// in\n    tag_499:\n        /* \"#utility.yul\":21897:21898   */\n      0x00\n        /* \"#utility.yul\":21921:21925   */\n      0x20\n        /* \"#utility.yul\":21908:21925   */\n      swap1\n      pop\n        /* \"#utility.yul\":21953:21955   */\n      0x1f\n        /* \"#utility.yul\":21945:21951   */\n      dup4\n        /* \"#utility.yul\":21942:21956   */\n      gt\n        /* \"#utility.yul\":21970:21971   */\n      0x01\n        /* \"#utility.yul\":21965:22583   */\n      dup2\n      eq\n      tag_501\n      jumpi\n        /* \"#utility.yul\":22627:22628   */\n      0x00\n        /* \"#utility.yul\":22644:22650   */\n      dup5\n        /* \"#utility.yul\":22641:22718   */\n      iszero\n      tag_502\n      jumpi\n        /* \"#utility.yul\":22693:22702   */\n      dup3\n        /* \"#utility.yul\":22688:22691   */\n      dup8\n        /* \"#utility.yul\":22684:22703   */\n      add\n        /* \"#utility.yul\":22678:22704   */\n      mload\n        /* \"#utility.yul\":22669:22704   */\n      swap1\n      pop\n        /* \"#utility.yul\":22641:22718   */\n    tag_502:\n        /* \"#utility.yul\":22744:22811   */\n      tag_503\n        /* \"#utility.yul\":22804:22810   */\n      dup6\n        /* \"#utility.yul\":22797:22802   */\n      dup3\n        /* \"#utility.yul\":22744:22811   */\n      tag_259\n      jump\t// in\n    tag_503:\n        /* \"#utility.yul\":22738:22742   */\n      dup7\n        /* \"#utility.yul\":22731:22812   */\n      sstore\n        /* \"#utility.yul\":22600:22822   */\n      pop\n        /* \"#utility.yul\":21935:22822   */\n      jump(tag_500)\n        /* \"#utility.yul\":21965:22583   */\n    tag_501:\n        /* \"#utility.yul\":22017:22021   */\n      0x1f\n        /* \"#utility.yul\":22013:22022   */\n      not\n        /* \"#utility.yul\":22005:22011   */\n      dup5\n        /* \"#utility.yul\":22001:22023   */\n      and\n        /* \"#utility.yul\":22051:22088   */\n      tag_504\n        /* \"#utility.yul\":22083:22087   */\n      dup7\n        /* \"#utility.yul\":22051:22088   */\n      tag_245\n      jump\t// in\n    tag_504:\n        /* \"#utility.yul\":22110:22111   */\n      0x00\n        /* \"#utility.yul\":22124:22332   */\n    tag_505:\n        /* \"#utility.yul\":22138:22145   */\n      dup3\n        /* \"#utility.yul\":22135:22136   */\n      dup2\n        /* \"#utility.yul\":22132:22146   */\n      lt\n        /* \"#utility.yul\":22124:22332   */\n      iszero\n      tag_507\n      jumpi\n        /* \"#utility.yul\":22217:22226   */\n      dup5\n        /* \"#utility.yul\":22212:22215   */\n      dup10\n        /* \"#utility.yul\":22208:22227   */\n      add\n        /* \"#utility.yul\":22202:22228   */\n      mload\n        /* \"#utility.yul\":22194:22200   */\n      dup3\n        /* \"#utility.yul\":22187:22229   */\n      sstore\n        /* \"#utility.yul\":22268:22269   */\n      0x01\n        /* \"#utility.yul\":22260:22266   */\n      dup3\n        /* \"#utility.yul\":22256:22270   */\n      add\n        /* \"#utility.yul\":22246:22270   */\n      swap2\n      pop\n        /* \"#utility.yul\":22315:22317   */\n      0x20\n        /* \"#utility.yul\":22304:22313   */\n      dup6\n        /* \"#utility.yul\":22300:22318   */\n      add\n        /* \"#utility.yul\":22287:22318   */\n      swap5\n      pop\n        /* \"#utility.yul\":22161:22165   */\n      0x20\n        /* \"#utility.yul\":22158:22159   */\n      dup2\n        /* \"#utility.yul\":22154:22166   */\n      add\n        /* \"#utility.yul\":22149:22166   */\n      swap1\n      pop\n        /* \"#utility.yul\":22124:22332   */\n      jump(tag_505)\n    tag_507:\n        /* \"#utility.yul\":22360:22366   */\n      dup7\n        /* \"#utility.yul\":22351:22358   */\n      dup4\n        /* \"#utility.yul\":22348:22367   */\n      lt\n        /* \"#utility.yul\":22345:22524   */\n      iszero\n      tag_508\n      jumpi\n        /* \"#utility.yul\":22418:22427   */\n      dup5\n        /* \"#utility.yul\":22413:22416   */\n      dup10\n        /* \"#utility.yul\":22409:22428   */\n      add\n        /* \"#utility.yul\":22403:22429   */\n      mload\n        /* \"#utility.yul\":22461:22509   */\n      tag_509\n        /* \"#utility.yul\":22503:22507   */\n      0x1f\n        /* \"#utility.yul\":22495:22501   */\n      dup10\n        /* \"#utility.yul\":22491:22508   */\n      and\n        /* \"#utility.yul\":22480:22489   */\n      dup3\n        /* \"#utility.yul\":22461:22509   */\n      tag_258\n      jump\t// in\n    tag_509:\n        /* \"#utility.yul\":22453:22459   */\n      dup4\n        /* \"#utility.yul\":22446:22510   */\n      sstore\n        /* \"#utility.yul\":22368:22524   */\n      pop\n        /* \"#utility.yul\":22345:22524   */\n    tag_508:\n        /* \"#utility.yul\":22570:22571   */\n      0x01\n        /* \"#utility.yul\":22566:22567   */\n      0x02\n        /* \"#utility.yul\":22558:22564   */\n      dup9\n        /* \"#utility.yul\":22554:22568   */\n      mul\n        /* \"#utility.yul\":22550:22572   */\n      add\n        /* \"#utility.yul\":22544:22548   */\n      dup9\n        /* \"#utility.yul\":22537:22573   */\n      sstore\n        /* \"#utility.yul\":21972:22583   */\n      pop\n      pop\n      pop\n        /* \"#utility.yul\":21935:22822   */\n    tag_500:\n      pop\n        /* \"#utility.yul\":21525:22828   */\n      pop\n      pop\n      pop\n        /* \"#utility.yul\":21433:22828   */\n      pop\n      pop\n      jump\t// out\n        /* \"#utility.yul\":22834:23005   */\n    tag_260:\n        /* \"#utility.yul\":22974:22997   */\n      0x50726f64756374206e6f6e2070726573656e7465210000000000000000000000\n        /* \"#utility.yul\":22970:22971   */\n      0x00\n        /* \"#utility.yul\":22962:22968   */\n      dup3\n        /* \"#utility.yul\":22958:22972   */\n      add\n        /* \"#utility.yul\":22951:22998   */\n      mstore\n        /* \"#utility.yul\":22834:23005   */\n      pop\n      jump\t// out\n        /* \"#utility.yul\":23011:23377   */\n    tag_261:\n        /* \"#utility.yul\":23153:23156   */\n      0x00\n        /* \"#utility.yul\":23174:23241   */\n      tag_512\n        /* \"#utility.yul\":23238:23240   */\n      0x15\n        /* \"#utility.yul\":23233:23236   */\n      dup4\n        /* \"#utility.yul\":23174:23241   */\n      tag_217\n      jump\t// in\n    tag_512:\n        /* \"#utility.yul\":23167:23241   */\n      swap2\n      pop\n        /* \"#utility.yul\":23250:23343   */\n      tag_513\n        /* \"#utility.yul\":23339:23342   */\n      dup3\n        /* \"#utility.yul\":23250:23343   */\n      tag_260\n      jump\t// in\n    tag_513:\n        /* \"#utility.yul\":23368:23370   */\n      0x20\n        /* \"#utility.yul\":23363:23366   */\n      dup3\n        /* \"#utility.yul\":23359:23371   */\n      add\n        /* \"#utility.yul\":23352:23371   */\n      swap1\n      pop\n        /* \"#utility.yul\":23011:23377   */\n      swap2\n      swap1\n      pop\n      jump\t// out\n        /* \"#utility.yul\":23383:23802   */\n    tag_100:\n        /* \"#utility.yul\":23549:23553   */\n      0x00\n        /* \"#utility.yul\":23587:23589   */\n      0x20\n        /* \"#utility.yul\":23576:23585   */\n      dup3\n        /* \"#utility.yul\":23572:23590   */\n      add\n        /* \"#utility.yul\":23564:23590   */\n      swap1\n      pop\n        /* \"#utility.yul\":23636:23645   */\n      dup2\n        /* \"#utility.yul\":23630:23634   */\n      dup2\n        /* \"#utility.yul\":23626:23646   */\n      sub\n        /* \"#utility.yul\":23622:23623   */\n      0x00\n        /* \"#utility.yul\":23611:23620   */\n      dup4\n        /* \"#utility.yul\":23607:23624   */\n      add\n        /* \"#utility.yul\":23600:23647   */\n      mstore\n        /* \"#utility.yul\":23664:23795   */\n      tag_515\n        /* \"#utility.yul\":23790:23794   */\n      dup2\n        /* \"#utility.yul\":23664:23795   */\n      tag_261\n      jump\t// in\n    tag_515:\n        /* \"#utility.yul\":23656:23795   */\n      swap1\n      pop\n        /* \"#utility.yul\":23383:23802   */\n      swap2\n      swap1\n      pop\n      jump\t// out\n        /* \"#utility.yul\":23808:23977   */\n    tag_262:\n        /* \"#utility.yul\":23948:23969   */\n      0x5175616e74697479206e6f742056616c69642100000000000000000000000000\n        /* \"#utility.yul\":23944:23945   */\n      0x00\n        /* \"#utility.yul\":23936:23942   */\n      dup3\n        /* \"#utility.yul\":23932:23946   */\n      add\n        /* \"#utility.yul\":23925:23970   */\n      mstore\n        /* \"#utility.yul\":23808:23977   */\n      pop\n      jump\t// out\n        /* \"#utility.yul\":23983:24349   */\n    tag_263:\n        /* \"#utility.yul\":24125:24128   */\n      0x00\n        /* \"#utility.yul\":24146:24213   */\n      tag_518\n        /* \"#utility.yul\":24210:24212   */\n      0x13\n        /* \"#utility.yul\":24205:24208   */\n      dup4\n        /* \"#utility.yul\":24146:24213   */\n      tag_217\n      jump\t// in\n    tag_518:\n        /* \"#utility.yul\":24139:24213   */\n      swap2\n      pop\n        /* \"#utility.yul\":24222:24315   */\n      tag_519\n        /* \"#utility.yul\":24311:24314   */\n      dup3\n        /* \"#utility.yul\":24222:24315   */\n      tag_262\n      jump\t// in\n    tag_519:\n        /* \"#utility.yul\":24340:24342   */\n      0x20\n        /* \"#utility.yul\":24335:24338   */\n      dup3\n        /* \"#utility.yul\":24331:24343   */\n      add\n        /* \"#utility.yul\":24324:24343   */\n      swap1\n      pop\n        /* \"#utility.yul\":23983:24349   */\n      swap2\n      swap1\n      pop\n      jump\t// out\n        /* \"#utility.yul\":24355:24774   */\n    tag_103:\n        /* \"#utility.yul\":24521:24525   */\n      0x00\n        /* \"#utility.yul\":24559:24561   */\n      0x20\n        /* \"#utility.yul\":24548:24557   */\n      dup3\n        /* \"#utility.yul\":24544:24562   */\n      add\n        /* \"#utility.yul\":24536:24562   */\n      swap1\n      pop\n        /* \"#utility.yul\":24608:24617   */\n      dup2\n        /* \"#utility.yul\":24602:24606   */\n      dup2\n        /* \"#utility.yul\":24598:24618   */\n      sub\n        /* \"#utility.yul\":24594:24595   */\n      0x00\n        /* \"#utility.yul\":24583:24592   */\n      dup4\n        /* \"#utility.yul\":24579:24596   */\n      add\n        /* \"#utility.yul\":24572:24619   */\n      mstore\n        /* \"#utility.yul\":24636:24767   */\n      tag_521\n        /* \"#utility.yul\":24762:24766   */\n      dup2\n        /* \"#utility.yul\":24636:24767   */\n      tag_263\n      jump\t// in\n    tag_521:\n        /* \"#utility.yul\":24628:24767   */\n      swap1\n      pop\n        /* \"#utility.yul\":24355:24774   */\n      swap2\n      swap1\n      pop\n      jump\t// out\n        /* \"#utility.yul\":24780:24960   */\n    tag_137:\n        /* \"#utility.yul\":24828:24905   */\n      0x4e487b7100000000000000000000000000000000000000000000000000000000\n        /* \"#utility.yul\":24825:24826   */\n      0x00\n        /* \"#utility.yul\":24818:24906   */\n      mstore\n        /* \"#utility.yul\":24925:24929   */\n      0x32\n        /* \"#utility.yul\":24922:24923   */\n      0x04\n        /* \"#utility.yul\":24915:24930   */\n      mstore\n        /* \"#utility.yul\":24949:24953   */\n      0x24\n        /* \"#utility.yul\":24946:24947   */\n      0x00\n        /* \"#utility.yul\":24939:24954   */\n      revert\n        /* \"#utility.yul\":24966:25084   */\n    tag_264:\n        /* \"#utility.yul\":25053:25077   */\n      tag_524\n        /* \"#utility.yul\":25071:25076   */\n      dup2\n        /* \"#utility.yul\":25053:25077   */\n      tag_198\n      jump\t// in\n    tag_524:\n        /* \"#utility.yul\":25048:25051   */\n      dup3\n        /* \"#utility.yul\":25041:25078   */\n      mstore\n        /* \"#utility.yul\":24966:25084   */\n      pop\n      pop\n      jump\t// out\n        /* \"#utility.yul\":25090:25312   */\n    tag_159:\n        /* \"#utility.yul\":25183:25187   */\n      0x00\n        /* \"#utility.yul\":25221:25223   */\n      0x20\n        /* \"#utility.yul\":25210:25219   */\n      dup3\n        /* \"#utility.yul\":25206:25224   */\n      add\n        /* \"#utility.yul\":25198:25224   */\n      swap1\n      pop\n        /* \"#utility.yul\":25234:25305   */\n      tag_526\n        /* \"#utility.yul\":25302:25303   */\n      0x00\n        /* \"#utility.yul\":25291:25300   */\n      dup4\n        /* \"#utility.yul\":25287:25304   */\n      add\n        /* \"#utility.yul\":25278:25284   */\n      dup5\n        /* \"#utility.yul\":25234:25305   */\n      tag_264\n      jump\t// in\n    tag_526:\n        /* \"#utility.yul\":25090:25312   */\n      swap3\n      swap2\n      pop\n      pop\n      jump\t// out\n        /* \"#utility.yul\":25318:25654   */\n    tag_265:\n        /* \"#utility.yul\":25420:25424   */\n      0x00\n        /* \"#utility.yul\":25510:25528   */\n      0xffffffffffffffff\n        /* \"#utility.yul\":25502:25508   */\n      dup3\n        /* \"#utility.yul\":25499:25529   */\n      gt\n        /* \"#utility.yul\":25496:25552   */\n      iszero\n      tag_528\n      jumpi\n        /* \"#utility.yul\":25532:25550   */\n      tag_529\n      tag_127\n      jump\t// in\n    tag_529:\n        /* \"#utility.yul\":25496:25552   */\n    tag_528:\n        /* \"#utility.yul\":25582:25586   */\n      0x20\n        /* \"#utility.yul\":25574:25580   */\n      dup3\n        /* \"#utility.yul\":25570:25587   */\n      mul\n        /* \"#utility.yul\":25562:25587   */\n      swap1\n      pop\n        /* \"#utility.yul\":25642:25646   */\n      0x20\n        /* \"#utility.yul\":25636:25640   */\n      dup2\n        /* \"#utility.yul\":25632:25647   */\n      add\n        /* \"#utility.yul\":25624:25647   */\n      swap1\n      pop\n        /* \"#utility.yul\":25318:25654   */\n      swap2\n      swap1\n      pop\n      jump\t// out\n        /* \"#utility.yul\":25660:25777   */\n    tag_266:\n        /* \"#utility.yul\":25769:25770   */\n      0x00\n        /* \"#utility.yul\":25766:25767   */\n      dup1\n        /* \"#utility.yul\":25759:25771   */\n      revert\n        /* \"#utility.yul\":25783:25900   */\n    tag_267:\n        /* \"#utility.yul\":25892:25893   */\n      0x00\n        /* \"#utility.yul\":25889:25890   */\n      dup1\n        /* \"#utility.yul\":25882:25894   */\n      revert\n        /* \"#utility.yul\":25906:26049   */\n    tag_268:\n        /* \"#utility.yul\":25963:25968   */\n      0x00\n        /* \"#utility.yul\":25994:26000   */\n      dup2\n        /* \"#utility.yul\":25988:26001   */\n      mload\n        /* \"#utility.yul\":25979:26001   */\n      swap1\n      pop\n        /* \"#utility.yul\":26010:26043   */\n      tag_533\n        /* \"#utility.yul\":26037:26042   */\n      dup2\n        /* \"#utility.yul\":26010:26043   */\n      tag_202\n      jump\t// in\n    tag_533:\n        /* \"#utility.yul\":25906:26049   */\n      swap3\n      swap2\n      pop\n      pop\n      jump\t// out\n        /* \"#utility.yul\":26055:26489   */\n    tag_269:\n        /* \"#utility.yul\":26144:26149   */\n      0x00\n        /* \"#utility.yul\":26169:26235   */\n      tag_535\n        /* \"#utility.yul\":26185:26234   */\n      tag_536\n        /* \"#utility.yul\":26227:26233   */\n      dup5\n        /* \"#utility.yul\":26185:26234   */\n      tag_212\n      jump\t// in\n    tag_536:\n        /* \"#utility.yul\":26169:26235   */\n      tag_211\n      jump\t// in\n    tag_535:\n        /* \"#utility.yul\":26160:26235   */\n      swap1\n      pop\n        /* \"#utility.yul\":26258:26264   */\n      dup3\n        /* \"#utility.yul\":26251:26256   */\n      dup2\n        /* \"#utility.yul\":26244:26265   */\n      mstore\n        /* \"#utility.yul\":26296:26300   */\n      0x20\n        /* \"#utility.yul\":26289:26294   */\n      dup2\n        /* \"#utility.yul\":26285:26301   */\n      add\n        /* \"#utility.yul\":26334:26337   */\n      dup5\n        /* \"#utility.yul\":26325:26331   */\n      dup5\n        /* \"#utility.yul\":26320:26323   */\n      dup5\n        /* \"#utility.yul\":26316:26332   */\n      add\n        /* \"#utility.yul\":26313:26338   */\n      gt\n        /* \"#utility.yul\":26310:26422   */\n      iszero\n      tag_537\n      jumpi\n        /* \"#utility.yul\":26341:26420   */\n      tag_538\n      tag_208\n      jump\t// in\n    tag_538:\n        /* \"#utility.yul\":26310:26422   */\n    tag_537:\n        /* \"#utility.yul\":26431:26483   */\n      tag_539\n        /* \"#utility.yul\":26476:26482   */\n      dup5\n        /* \"#utility.yul\":26471:26474   */\n      dup3\n        /* \"#utility.yul\":26466:26469   */\n      dup6\n        /* \"#utility.yul\":26431:26483   */\n      tag_218\n      jump\t// in\n    tag_539:\n        /* \"#utility.yul\":26150:26489   */\n      pop\n        /* \"#utility.yul\":26055:26489   */\n      swap4\n      swap3\n      pop\n      pop\n      pop\n      jump\t// out\n        /* \"#utility.yul\":26509:26864   */\n    tag_270:\n        /* \"#utility.yul\":26576:26581   */\n      0x00\n        /* \"#utility.yul\":26625:26628   */\n      dup3\n        /* \"#utility.yul\":26618:26622   */\n      0x1f\n        /* \"#utility.yul\":26610:26616   */\n      dup4\n        /* \"#utility.yul\":26606:26623   */\n      add\n        /* \"#utility.yul\":26602:26629   */\n      slt\n        /* \"#utility.yul\":26592:26714   */\n      tag_541\n      jumpi\n        /* \"#utility.yul\":26633:26712   */\n      tag_542\n      tag_207\n      jump\t// in\n    tag_542:\n        /* \"#utility.yul\":26592:26714   */\n    tag_541:\n        /* \"#utility.yul\":26743:26749   */\n      dup2\n        /* \"#utility.yul\":26737:26750   */\n      mload\n        /* \"#utility.yul\":26768:26858   */\n      tag_543\n        /* \"#utility.yul\":26854:26857   */\n      dup5\n        /* \"#utility.yul\":26846:26852   */\n      dup3\n        /* \"#utility.yul\":26839:26843   */\n      0x20\n        /* \"#utility.yul\":26831:26837   */\n      dup7\n        /* \"#utility.yul\":26827:26844   */\n      add\n        /* \"#utility.yul\":26768:26858   */\n      tag_269\n      jump\t// in\n    tag_543:\n        /* \"#utility.yul\":26759:26858   */\n      swap2\n      pop\n        /* \"#utility.yul\":26582:26864   */\n      pop\n        /* \"#utility.yul\":26509:26864   */\n      swap3\n      swap2\n      pop\n      pop\n      jump\t// out\n        /* \"#utility.yul\":26918:28039   */\n    tag_271:\n        /* \"#utility.yul\":27003:27008   */\n      0x00\n        /* \"#utility.yul\":27047:27051   */\n      0x80\n        /* \"#utility.yul\":27035:27044   */\n      dup3\n        /* \"#utility.yul\":27030:27033   */\n      dup5\n        /* \"#utility.yul\":27026:27045   */\n      sub\n        /* \"#utility.yul\":27022:27052   */\n      slt\n        /* \"#utility.yul\":27019:27136   */\n      iszero\n      tag_545\n      jumpi\n        /* \"#utility.yul\":27055:27134   */\n      tag_546\n      tag_266\n      jump\t// in\n    tag_546:\n        /* \"#utility.yul\":27019:27136   */\n    tag_545:\n        /* \"#utility.yul\":27154:27175   */\n      tag_547\n        /* \"#utility.yul\":27170:27174   */\n      0x80\n        /* \"#utility.yul\":27154:27175   */\n      tag_211\n      jump\t// in\n    tag_547:\n        /* \"#utility.yul\":27145:27175   */\n      swap1\n      pop\n        /* \"#utility.yul\":27232:27233   */\n      0x00\n        /* \"#utility.yul\":27272:27332   */\n      tag_548\n        /* \"#utility.yul\":27328:27331   */\n      dup5\n        /* \"#utility.yul\":27319:27325   */\n      dup3\n        /* \"#utility.yul\":27308:27317   */\n      dup6\n        /* \"#utility.yul\":27304:27326   */\n      add\n        /* \"#utility.yul\":27272:27332   */\n      tag_268\n      jump\t// in\n    tag_548:\n        /* \"#utility.yul\":27265:27269   */\n      0x00\n        /* \"#utility.yul\":27258:27263   */\n      dup4\n        /* \"#utility.yul\":27254:27270   */\n      add\n        /* \"#utility.yul\":27247:27333   */\n      mstore\n        /* \"#utility.yul\":27185:27344   */\n      pop\n        /* \"#utility.yul\":27428:27430   */\n      0x20\n        /* \"#utility.yul\":27417:27426   */\n      dup3\n        /* \"#utility.yul\":27413:27431   */\n      add\n        /* \"#utility.yul\":27407:27432   */\n      mload\n        /* \"#utility.yul\":27459:27477   */\n      0xffffffffffffffff\n        /* \"#utility.yul\":27451:27457   */\n      dup2\n        /* \"#utility.yul\":27448:27478   */\n      gt\n        /* \"#utility.yul\":27445:27562   */\n      iszero\n      tag_549\n      jumpi\n        /* \"#utility.yul\":27481:27560   */\n      tag_550\n      tag_267\n      jump\t// in\n    tag_550:\n        /* \"#utility.yul\":27445:27562   */\n    tag_549:\n        /* \"#utility.yul\":27601:27671   */\n      tag_551\n        /* \"#utility.yul\":27667:27670   */\n      dup5\n        /* \"#utility.yul\":27658:27664   */\n      dup3\n        /* \"#utility.yul\":27647:27656   */\n      dup6\n        /* \"#utility.yul\":27643:27665   */\n      add\n        /* \"#utility.yul\":27601:27671   */\n      tag_270\n      jump\t// in\n    tag_551:\n        /* \"#utility.yul\":27594:27598   */\n      0x20\n        /* \"#utility.yul\":27587:27592   */\n      dup4\n        /* \"#utility.yul\":27583:27599   */\n      add\n        /* \"#utility.yul\":27576:27672   */\n      mstore\n        /* \"#utility.yul\":27354:27683   */\n      pop\n        /* \"#utility.yul\":27746:27748   */\n      0x40\n        /* \"#utility.yul\":27787:27847   */\n      tag_552\n        /* \"#utility.yul\":27843:27846   */\n      dup5\n        /* \"#utility.yul\":27834:27840   */\n      dup3\n        /* \"#utility.yul\":27823:27832   */\n      dup6\n        /* \"#utility.yul\":27819:27841   */\n      add\n        /* \"#utility.yul\":27787:27847   */\n      tag_268\n      jump\t// in\n    tag_552:\n        /* \"#utility.yul\":27780:27784   */\n      0x40\n        /* \"#utility.yul\":27773:27778   */\n      dup4\n        /* \"#utility.yul\":27769:27785   */\n      add\n        /* \"#utility.yul\":27762:27848   */\n      mstore\n        /* \"#utility.yul\":27693:27859   */\n      pop\n        /* \"#utility.yul\":27919:27921   */\n      0x60\n        /* \"#utility.yul\":27960:28020   */\n      tag_553\n        /* \"#utility.yul\":28016:28019   */\n      dup5\n        /* \"#utility.yul\":28007:28013   */\n      dup3\n        /* \"#utility.yul\":27996:28005   */\n      dup6\n        /* \"#utility.yul\":27992:28014   */\n      add\n        /* \"#utility.yul\":27960:28020   */\n      tag_268\n      jump\t// in\n    tag_553:\n        /* \"#utility.yul\":27953:27957   */\n      0x60\n        /* \"#utility.yul\":27946:27951   */\n      dup4\n        /* \"#utility.yul\":27942:27958   */\n      add\n        /* \"#utility.yul\":27935:28021   */\n      mstore\n        /* \"#utility.yul\":27869:28032   */\n      pop\n        /* \"#utility.yul\":26918:28039   */\n      swap3\n      swap2\n      pop\n      pop\n      jump\t// out\n        /* \"#utility.yul\":28095:29100   */\n    tag_272:\n        /* \"#utility.yul\":28227:28232   */\n      0x00\n        /* \"#utility.yul\":28252:28358   */\n      tag_555\n        /* \"#utility.yul\":28268:28357   */\n      tag_556\n        /* \"#utility.yul\":28350:28356   */\n      dup5\n        /* \"#utility.yul\":28268:28357   */\n      tag_265\n      jump\t// in\n    tag_556:\n        /* \"#utility.yul\":28252:28358   */\n      tag_211\n      jump\t// in\n    tag_555:\n        /* \"#utility.yul\":28243:28358   */\n      swap1\n      pop\n        /* \"#utility.yul\":28378:28383   */\n      dup1\n        /* \"#utility.yul\":28407:28413   */\n      dup4\n        /* \"#utility.yul\":28400:28405   */\n      dup3\n        /* \"#utility.yul\":28393:28414   */\n      mstore\n        /* \"#utility.yul\":28441:28445   */\n      0x20\n        /* \"#utility.yul\":28434:28439   */\n      dup3\n        /* \"#utility.yul\":28430:28446   */\n      add\n        /* \"#utility.yul\":28423:28446   */\n      swap1\n      pop\n        /* \"#utility.yul\":28494:28498   */\n      0x20\n        /* \"#utility.yul\":28486:28492   */\n      dup5\n        /* \"#utility.yul\":28482:28499   */\n      mul\n        /* \"#utility.yul\":28474:28480   */\n      dup4\n        /* \"#utility.yul\":28470:28500   */\n      add\n        /* \"#utility.yul\":28523:28526   */\n      dup6\n        /* \"#utility.yul\":28515:28521   */\n      dup2\n        /* \"#utility.yul\":28512:28527   */\n      gt\n        /* \"#utility.yul\":28509:28631   */\n      iszero\n      tag_557\n      jumpi\n        /* \"#utility.yul\":28542:28621   */\n      tag_558\n      tag_231\n      jump\t// in\n    tag_558:\n        /* \"#utility.yul\":28509:28631   */\n    tag_557:\n        /* \"#utility.yul\":28657:28663   */\n      dup4\n        /* \"#utility.yul\":28640:29094   */\n    tag_559:\n        /* \"#utility.yul\":28674:28680   */\n      dup2\n        /* \"#utility.yul\":28669:28672   */\n      dup2\n        /* \"#utility.yul\":28666:28681   */\n      lt\n        /* \"#utility.yul\":28640:29094   */\n      iszero\n      tag_561\n      jumpi\n        /* \"#utility.yul\":28756:28759   */\n      dup1\n        /* \"#utility.yul\":28750:28760   */\n      mload\n        /* \"#utility.yul\":28792:28810   */\n      0xffffffffffffffff\n        /* \"#utility.yul\":28779:28790   */\n      dup2\n        /* \"#utility.yul\":28776:28811   */\n      gt\n        /* \"#utility.yul\":28773:28895   */\n      iszero\n      tag_562\n      jumpi\n        /* \"#utility.yul\":28814:28893   */\n      tag_563\n      tag_207\n      jump\t// in\n    tag_563:\n        /* \"#utility.yul\":28773:28895   */\n    tag_562:\n        /* \"#utility.yul\":28938:28949   */\n      dup1\n        /* \"#utility.yul\":28930:28936   */\n      dup7\n        /* \"#utility.yul\":28926:28950   */\n      add\n        /* \"#utility.yul\":28976:29049   */\n      tag_564\n        /* \"#utility.yul\":29045:29048   */\n      dup10\n        /* \"#utility.yul\":29033:29043   */\n      dup3\n        /* \"#utility.yul\":28976:29049   */\n      tag_271\n      jump\t// in\n    tag_564:\n        /* \"#utility.yul\":28971:28974   */\n      dup6\n        /* \"#utility.yul\":28964:29050   */\n      mstore\n        /* \"#utility.yul\":29079:29083   */\n      0x20\n        /* \"#utility.yul\":29074:29077   */\n      dup6\n        /* \"#utility.yul\":29070:29084   */\n      add\n        /* \"#utility.yul\":29063:29084   */\n      swap5\n      pop\n        /* \"#utility.yul\":28716:29094   */\n      pop\n      pop\n        /* \"#utility.yul\":28700:28704   */\n      0x20\n        /* \"#utility.yul\":28695:28698   */\n      dup2\n        /* \"#utility.yul\":28691:28705   */\n      add\n        /* \"#utility.yul\":28684:28705   */\n      swap1\n      pop\n        /* \"#utility.yul\":28640:29094   */\n      jump(tag_559)\n    tag_561:\n        /* \"#utility.yul\":28644:28665   */\n      pop\n        /* \"#utility.yul\":28233:29100   */\n      pop\n      pop\n        /* \"#utility.yul\":28095:29100   */\n      swap4\n      swap3\n      pop\n      pop\n      pop\n      jump\t// out\n        /* \"#utility.yul\":29156:29591   */\n    tag_273:\n        /* \"#utility.yul\":29263:29268   */\n      0x00\n        /* \"#utility.yul\":29312:29315   */\n      dup3\n        /* \"#utility.yul\":29305:29309   */\n      0x1f\n        /* \"#utility.yul\":29297:29303   */\n      dup4\n        /* \"#utility.yul\":29293:29310   */\n      add\n        /* \"#utility.yul\":29289:29316   */\n      slt\n        /* \"#utility.yul\":29279:29401   */\n      tag_566\n      jumpi\n        /* \"#utility.yul\":29320:29399   */\n      tag_567\n      tag_207\n      jump\t// in\n    tag_567:\n        /* \"#utility.yul\":29279:29401   */\n    tag_566:\n        /* \"#utility.yul\":29430:29436   */\n      dup2\n        /* \"#utility.yul\":29424:29437   */\n      mload\n        /* \"#utility.yul\":29455:29585   */\n      tag_568\n        /* \"#utility.yul\":29581:29584   */\n      dup5\n        /* \"#utility.yul\":29573:29579   */\n      dup3\n        /* \"#utility.yul\":29566:29570   */\n      0x20\n        /* \"#utility.yul\":29558:29564   */\n      dup7\n        /* \"#utility.yul\":29554:29571   */\n      add\n        /* \"#utility.yul\":29455:29585   */\n      tag_272\n      jump\t// in\n    tag_568:\n        /* \"#utility.yul\":29446:29585   */\n      swap2\n      pop\n        /* \"#utility.yul\":29269:29591   */\n      pop\n        /* \"#utility.yul\":29156:29591   */\n      swap3\n      swap2\n      pop\n      pop\n      jump\t// out\n        /* \"#utility.yul\":29597:30201   */\n    tag_163:\n        /* \"#utility.yul\":29717:29723   */\n      0x00\n        /* \"#utility.yul\":29766:29768   */\n      0x20\n        /* \"#utility.yul\":29754:29763   */\n      dup3\n        /* \"#utility.yul\":29745:29752   */\n      dup5\n        /* \"#utility.yul\":29741:29764   */\n      sub\n        /* \"#utility.yul\":29737:29769   */\n      slt\n        /* \"#utility.yul\":29734:29853   */\n      iszero\n      tag_570\n      jumpi\n        /* \"#utility.yul\":29772:29851   */\n      tag_571\n      tag_195\n      jump\t// in\n    tag_571:\n        /* \"#utility.yul\":29734:29853   */\n    tag_570:\n        /* \"#utility.yul\":29913:29914   */\n      0x00\n        /* \"#utility.yul\":29902:29911   */\n      dup3\n        /* \"#utility.yul\":29898:29915   */\n      add\n        /* \"#utility.yul\":29892:29916   */\n      mload\n        /* \"#utility.yul\":29943:29961   */\n      0xffffffffffffffff\n        /* \"#utility.yul\":29935:29941   */\n      dup2\n        /* \"#utility.yul\":29932:29962   */\n      gt\n        /* \"#utility.yul\":29929:30046   */\n      iszero\n      tag_572\n      jumpi\n        /* \"#utility.yul\":29965:30044   */\n      tag_573\n      tag_196\n      jump\t// in\n    tag_573:\n        /* \"#utility.yul\":29929:30046   */\n    tag_572:\n        /* \"#utility.yul\":30070:30184   */\n      tag_574\n        /* \"#utility.yul\":30176:30183   */\n      dup5\n        /* \"#utility.yul\":30167:30173   */\n      dup3\n        /* \"#utility.yul\":30156:30165   */\n      dup6\n        /* \"#utility.yul\":30152:30174   */\n      add\n        /* \"#utility.yul\":30070:30184   */\n      tag_273\n      jump\t// in\n    tag_574:\n        /* \"#utility.yul\":30060:30184   */\n      swap2\n      pop\n        /* \"#utility.yul\":29863:30194   */\n      pop\n        /* \"#utility.yul\":29597:30201   */\n      swap3\n      swap2\n      pop\n      pop\n      jump\t// out\n        /* \"#utility.yul\":30207:30387   */\n    tag_274:\n        /* \"#utility.yul\":30255:30332   */\n      0x4e487b7100000000000000000000000000000000000000000000000000000000\n        /* \"#utility.yul\":30252:30253   */\n      0x00\n        /* \"#utility.yul\":30245:30333   */\n      mstore\n        /* \"#utility.yul\":30352:30356   */\n      0x11\n        /* \"#utility.yul\":30349:30350   */\n      0x04\n        /* \"#utility.yul\":30342:30357   */\n      mstore\n        /* \"#utility.yul\":30376:30380   */\n      0x24\n        /* \"#utility.yul\":30373:30374   */\n      0x00\n        /* \"#utility.yul\":30366:30381   */\n      revert\n        /* \"#utility.yul\":30393:30584   */\n    tag_172:\n        /* \"#utility.yul\":30433:30436   */\n      0x00\n        /* \"#utility.yul\":30452:30472   */\n      tag_577\n        /* \"#utility.yul\":30470:30471   */\n      dup3\n        /* \"#utility.yul\":30452:30472   */\n      tag_201\n      jump\t// in\n    tag_577:\n        /* \"#utility.yul\":30447:30472   */\n      swap2\n      pop\n        /* \"#utility.yul\":30486:30506   */\n      tag_578\n        /* \"#utility.yul\":30504:30505   */\n      dup4\n        /* \"#utility.yul\":30486:30506   */\n      tag_201\n      jump\t// in\n    tag_578:\n        /* \"#utility.yul\":30481:30506   */\n      swap3\n      pop\n        /* \"#utility.yul\":30529:30530   */\n      dup3\n        /* \"#utility.yul\":30526:30527   */\n      dup3\n        /* \"#utility.yul\":30522:30531   */\n      add\n        /* \"#utility.yul\":30515:30531   */\n      swap1\n      pop\n        /* \"#utility.yul\":30550:30553   */\n      dup1\n        /* \"#utility.yul\":30547:30548   */\n      dup3\n        /* \"#utility.yul\":30544:30554   */\n      gt\n        /* \"#utility.yul\":30541:30577   */\n      iszero\n      tag_579\n      jumpi\n        /* \"#utility.yul\":30557:30575   */\n      tag_580\n      tag_274\n      jump\t// in\n    tag_580:\n        /* \"#utility.yul\":30541:30577   */\n    tag_579:\n        /* \"#utility.yul\":30393:30584   */\n      swap3\n      swap2\n      pop\n      pop\n      jump\t// out\n        /* \"#utility.yul\":30590:30823   */\n    tag_186:\n        /* \"#utility.yul\":30629:30632   */\n      0x00\n        /* \"#utility.yul\":30652:30676   */\n      tag_582\n        /* \"#utility.yul\":30670:30675   */\n      dup3\n        /* \"#utility.yul\":30652:30676   */\n      tag_201\n      jump\t// in\n    tag_582:\n        /* \"#utility.yul\":30643:30676   */\n      swap2\n      pop\n        /* \"#utility.yul\":30698:30764   */\n      0xffffffffffffffffffffffffffffffffffffffffffffffffffffffffffffffff\n        /* \"#utility.yul\":30691:30696   */\n      dup3\n        /* \"#utility.yul\":30688:30765   */\n      sub\n        /* \"#utility.yul\":30685:30788   */\n      tag_583\n      jumpi\n        /* \"#utility.yul\":30768:30786   */\n      tag_584\n      tag_274\n      jump\t// in\n    tag_584:\n        /* \"#utility.yul\":30685:30788   */\n    tag_583:\n        /* \"#utility.yul\":30815:30816   */\n      0x01\n        /* \"#utility.yul\":30808:30813   */\n      dup3\n        /* \"#utility.yul\":30804:30817   */\n      add\n        /* \"#utility.yul\":30797:30817   */\n      swap1\n      pop\n        /* \"#utility.yul\":30590:30823   */\n      swap2\n      swap1\n      pop\n      jump\t// out\n\n    auxdata: 0xa2646970667358221220427cfd6c0a214b1e1d766664bf3dfc6daec1d9c57b4ccdb11cfccc616c83d96f64736f6c63430008160033\n}\n",
				"bytecode": {
					"linkReferences": {},
					"object": "608060405234801561000f575f80fd5b50335f806101000a81548173ffffffffffffffffffffffffffffffffffffffff021916908373ffffffffffffffffffffffffffffffffffffffff1602179055506121098061005c5f395ff3fe608060405234801561000f575f80fd5b50600436106100a7575f3560e01c80639f2b68981161006f5780639f2b68981461019e578063ad9c10a1146101ce578063ce4fcf23146101fe578063d1f2c4a214610231578063d5aa178414610261578063f249207814610291576100a7565b806302d805f6146100ab5780631e073fcf146100db578063449e815d1461010b5780638317679f1461013b57806387abc2161461016e575b5f80fd5b6100c560048036038101906100c0919061124c565b6102ad565b6040516100d291906112a4565b60405180910390f35b6100f560048036038101906100f0919061124c565b610355565b60405161010291906112cc565b60405180910390f35b6101256004803603810190610120919061124c565b61046b565b60405161013291906112cc565b60405180910390f35b61015560048036038101906101509190611421565b610581565b604051610165949392919061151b565b60405180910390f35b61018860048036038101906101839190611565565b610863565b60405161019591906112a4565b60405180910390f35b6101b860048036038101906101b3919061124c565b610996565b6040516101c591906115b5565b60405180910390f35b6101e860048036038101906101e3919061124c565b610aad565b6040516101f591906112a4565b60405180910390f35b6102186004803603810190610213919061124c565b610b9a565b604051610228949392919061151b565b60405180910390f35b61024b600480360381019061024691906115d5565b610ccb565b6040516102589190611772565b60405180910390f35b61027b60048036038101906102769190611856565b610eed565b6040516102889190611772565b60405180910390f35b6102ab60048036038101906102a69190611565565b61106e565b005b5f8082141580156102bd57505f82115b6102fc576040517f08c379a00000000000000000000000000000000000000000000000000000000081526004016102f3906118e7565b60405180910390fd5b8160015f8573ffffffffffffffffffffffffffffffffffffffff1673ffffffffffffffffffffffffffffffffffffffff1681526020019081526020015f205f8481526020019081526020015f205f015414905092915050565b5f8060015f8573ffffffffffffffffffffffffffffffffffffffff1673ffffffffffffffffffffffffffffffffffffffff1681526020019081526020015f205f8481526020019081526020015f206040518060800160405290815f82015481526020016001820180546103c790611932565b80601f01602080910402602001604051908101604052809291908181526020018280546103f390611932565b801561043e5780601f106104155761010080835404028352916020019161043e565b820191905f5260205f20905b81548152906001019060200180831161042157829003601f168201915b50505050508152602001600282015481526020016003820154815250509050806040015191505092915050565b5f8060015f8573ffffffffffffffffffffffffffffffffffffffff1673ffffffffffffffffffffffffffffffffffffffff1681526020019081526020015f205f8481526020019081526020015f206040518060800160405290815f82015481526020016001820180546104dd90611932565b80601f016020809104026020016040519081016040528092919081815260200182805461050990611932565b80156105545780601f1061052b57610100808354040283529160200191610554565b820191905f5260205f20905b81548152906001019060200180831161053757829003601f168201915b50505050508152602001600282015481526020016003820154815250509050806060015191505092915050565b5f60605f805f8787878b426040516020016105a0959493929190611a01565b604051602081830303815290604052805190602001205f1c90505f60405180608001604052808381526020018a8152602001898152602001888152509050600282908060018154018082558091505060019003905f5260205f20015f90919091909150558060015f8c73ffffffffffffffffffffffffffffffffffffffff1673ffffffffffffffffffffffffffffffffffffffff1681526020019081526020015f205f8481526020019081526020015f205f820151815f0155602082015181600101908161066e9190611bf8565b50604082015181600201556060820151816003015590505060015f8b73ffffffffffffffffffffffffffffffffffffffff1673ffffffffffffffffffffffffffffffffffffffff1681526020019081526020015f205f8381526020019081526020015f205f015460015f8c73ffffffffffffffffffffffffffffffffffffffff1673ffffffffffffffffffffffffffffffffffffffff1681526020019081526020015f205f8481526020019081526020015f2060010160015f8d73ffffffffffffffffffffffffffffffffffffffff1673ffffffffffffffffffffffffffffffffffffffff1681526020019081526020015f205f8581526020019081526020015f206002015460015f8e73ffffffffffffffffffffffffffffffffffffffff1673ffffffffffffffffffffffffffffffffffffffff1681526020019081526020015f205f8681526020019081526020015f20600301548280546107d090611932565b80601f01602080910402602001604051908101604052809291908181526020018280546107fc90611932565b80156108475780601f1061081e57610100808354040283529160200191610847565b820191905f5260205f20905b81548152906001019060200180831161082a57829003601f168201915b5050505050925095509550955095505050945094509450949050565b5f8260015f8673ffffffffffffffffffffffffffffffffffffffff1673ffffffffffffffffffffffffffffffffffffffff1681526020019081526020015f205f8581526020019081526020015f205f0154146108f4576040517f08c379a00000000000000000000000000000000000000000000000000000000081526004016108eb90611d11565b60405180910390fd5b5f60015f8673ffffffffffffffffffffffffffffffffffffffff1673ffffffffffffffffffffffffffffffffffffffff1681526020019081526020015f205f8581526020019081526020015f209050828160020154101561098a576040517f08c379a000000000000000000000000000000000000000000000000000000000815260040161098190611d79565b60405180910390fd5b60019150509392505050565b60605f60015f8573ffffffffffffffffffffffffffffffffffffffff1673ffffffffffffffffffffffffffffffffffffffff1681526020019081526020015f205f8481526020019081526020015f206040518060800160405290815f8201548152602001600182018054610a0990611932565b80601f0160208091040260200160405190810160405280929190818152602001828054610a3590611932565b8015610a805780601f10610a5757610100808354040283529160200191610a80565b820191905f5260205f20905b815481529060010190602001808311610a6357829003601f168201915b50505050508152602001600282015481526020016003820154815250509050806020015191505092915050565b5f60015f8473ffffffffffffffffffffffffffffffffffffffff1673ffffffffffffffffffffffffffffffffffffffff1681526020019081526020015f205f8381526020019081526020015f205f8082015f9055600182015f610b109190611131565b600282015f9055600382015f905550505f60015f8573ffffffffffffffffffffffffffffffffffffffff1673ffffffffffffffffffffffffffffffffffffffff1681526020019081526020015f205f8481526020019081526020015f205f0154148015610b825750610b81826110c7565b5b15610b905760019050610b94565b5f90505b92915050565b5f60605f805f60015f8873ffffffffffffffffffffffffffffffffffffffff1673ffffffffffffffffffffffffffffffffffffffff1681526020019081526020015f205f8781526020019081526020015f206040518060800160405290815f8201548152602001600182018054610c1090611932565b80601f0160208091040260200160405190810160405280929190818152602001828054610c3c90611932565b8015610c875780601f10610c5e57610100808354040283529160200191610c87565b820191905f5260205f20905b815481529060010190602001808311610c6a57829003601f168201915b50505050508152602001600282015481526020016003820154815250509050805f015181602001518260400151836060015194509450945094505092959194509250565b60605f60028054905067ffffffffffffffff811115610ced57610cec6112fd565b5b604051908082528060200260200182016040528015610d2657816020015b610d1361116e565b815260200190600190039081610d0b5790505b5090505f5b600280549050811015610ee3575f60028281548110610d4d57610d4c611d97565b5b905f5260205f20015490505f60015f8773ffffffffffffffffffffffffffffffffffffffff1673ffffffffffffffffffffffffffffffffffffffff1681526020019081526020015f205f8381526020019081526020015f205f015414610ed5575f60015f8773ffffffffffffffffffffffffffffffffffffffff1673ffffffffffffffffffffffffffffffffffffffff1681526020019081526020015f205f8381526020019081526020015f209050806040518060800160405290815f8201548152602001600182018054610e2190611932565b80601f0160208091040260200160405190810160405280929190818152602001828054610e4d90611932565b8015610e985780601f10610e6f57610100808354040283529160200191610e98565b820191905f5260205f20905b815481529060010190602001808311610e7b57829003601f168201915b5050505050815260200160028201548152602001600382015481525050848481518110610ec857610ec7611d97565b5b6020026020010181905250505b508080600101915050610d2b565b5080915050919050565b60605f60028054905067ffffffffffffffff811115610f0f57610f0e6112fd565b5b604051908082528060200260200182016040528015610f4857816020015b610f3561116e565b815260200190600190039081610f2d5790505b5090505f805b8451811015611063575f3073ffffffffffffffffffffffffffffffffffffffff1663d1f2c4a2878481518110610f8757610f86611d97565b5b60200260200101516040518263ffffffff1660e01b8152600401610fab9190611dd3565b5f60405180830381865afa158015610fc5573d5f803e3d5ffd5b505050506040513d5f823e3d601f19601f82011682018060405250810190610fed9190611fe5565b90505f5b8151811015611054575f82828151811061100e5761100d611d97565b5b602002602001015190508086868151811061102c5761102b611d97565b5b60200260200101819052506001856110449190612059565b9450508080600101915050610ff1565b50508080600101915050610f4e565b508192505050919050565b8060015f8573ffffffffffffffffffffffffffffffffffffffff1673ffffffffffffffffffffffffffffffffffffffff1681526020019081526020015f205f8481526020019081526020015f2060020181905550505050565b5f805f90505b82600282815481106110e2576110e1611d97565b5b905f5260205f20015403611119576002818154811061110457611103611d97565b5b905f5260205f20015f9055600191505061112c565b80806111249061208c565b9150506110cd565b919050565b50805461113d90611932565b5f825580601f1061114e575061116b565b601f0160209004905f5260205f209081019061116a9190611193565b5b50565b60405180608001604052805f8152602001606081526020015f81526020015f81525090565b5b808211156111aa575f815f905550600101611194565b5090565b5f604051905090565b5f80fd5b5f80fd5b5f73ffffffffffffffffffffffffffffffffffffffff82169050919050565b5f6111e8826111bf565b9050919050565b6111f8816111de565b8114611202575f80fd5b50565b5f81359050611213816111ef565b92915050565b5f819050919050565b61122b81611219565b8114611235575f80fd5b50565b5f8135905061124681611222565b92915050565b5f8060408385031215611262576112616111b7565b5b5f61126f85828601611205565b925050602061128085828601611238565b9150509250929050565b5f8115159050919050565b61129e8161128a565b82525050565b5f6020820190506112b75f830184611295565b92915050565b6112c681611219565b82525050565b5f6020820190506112df5f8301846112bd565b92915050565b5f80fd5b5f80fd5b5f601f19601f8301169050919050565b7f4e487b71000000000000000000000000000000000000000000000000000000005f52604160045260245ffd5b611333826112ed565b810181811067ffffffffffffffff82111715611352576113516112fd565b5b80604052505050565b5f6113646111ae565b9050611370828261132a565b919050565b5f67ffffffffffffffff82111561138f5761138e6112fd565b5b611398826112ed565b9050602081019050919050565b828183375f83830152505050565b5f6113c56113c084611375565b61135b565b9050828152602081018484840111156113e1576113e06112e9565b5b6113ec8482856113a5565b509392505050565b5f82601f830112611408576114076112e5565b5b81356114188482602086016113b3565b91505092915050565b5f805f8060808587031215611439576114386111b7565b5b5f61144687828801611205565b945050602085013567ffffffffffffffff811115611467576114666111bb565b5b611473878288016113f4565b935050604061148487828801611238565b925050606061149587828801611238565b91505092959194509250565b5f81519050919050565b5f82825260208201905092915050565b5f5b838110156114d85780820151818401526020810190506114bd565b5f8484015250505050565b5f6114ed826114a1565b6114f781856114ab565b93506115078185602086016114bb565b611510816112ed565b840191505092915050565b5f60808201905061152e5f8301876112bd565b818103602083015261154081866114e3565b905061154f60408301856112bd565b61155c60608301846112bd565b95945050505050565b5f805f6060848603121561157c5761157b6111b7565b5b5f61158986828701611205565b935050602061159a86828701611238565b92505060406115ab86828701611238565b9150509250925092565b5f6020820190508181035f8301526115cd81846114e3565b905092915050565b5f602082840312156115ea576115e96111b7565b5b5f6115f784828501611205565b91505092915050565b5f81519050919050565b5f82825260208201905092915050565b5f819050602082019050919050565b61163281611219565b82525050565b5f82825260208201905092915050565b5f611652826114a1565b61165c8185611638565b935061166c8185602086016114bb565b611675816112ed565b840191505092915050565b5f608083015f8301516116955f860182611629565b50602083015184820360208601526116ad8282611648565b91505060408301516116c26040860182611629565b5060608301516116d56060860182611629565b508091505092915050565b5f6116eb8383611680565b905092915050565b5f602082019050919050565b5f61170982611600565b611713818561160a565b9350836020820285016117258561161a565b805f5b85811015611760578484038952815161174185826116e0565b945061174c836116f3565b925060208a01995050600181019050611728565b50829750879550505050505092915050565b5f6020820190508181035f83015261178a81846116ff565b905092915050565b5f67ffffffffffffffff8211156117ac576117ab6112fd565b5b602082029050602081019050919050565b5f80fd5b5f6117d36117ce84611792565b61135b565b905080838252602082019050602084028301858111156117f6576117f56117bd565b5b835b8181101561181f578061180b8882611205565b8452602084019350506020810190506117f8565b5050509392505050565b5f82601f83011261183d5761183c6112e5565b5b813561184d8482602086016117c1565b91505092915050565b5f6020828403121561186b5761186a6111b7565b5b5f82013567ffffffffffffffff811115611888576118876111bb565b5b61189484828501611829565b91505092915050565b7f4944204d696c6b4261746368204e6f742056616c6964210000000000000000005f82015250565b5f6118d16017836114ab565b91506118dc8261189d565b602082019050919050565b5f6020820190508181035f8301526118fe816118c5565b9050919050565b7f4e487b71000000000000000000000000000000000000000000000000000000005f52602260045260245ffd5b5f600282049050600182168061194957607f821691505b60208210810361195c5761195b611905565b5b50919050565b5f81905092915050565b5f611976826114a1565b6119808185611962565b93506119908185602086016114bb565b80840191505092915050565b5f819050919050565b6119b66119b182611219565b61199c565b82525050565b5f8160601b9050919050565b5f6119d2826119bc565b9050919050565b5f6119e3826119c8565b9050919050565b6119fb6119f6826111de565b6119d9565b82525050565b5f611a0c828861196c565b9150611a1882876119a5565b602082019150611a2882866119a5565b602082019150611a3882856119ea565b601482019150611a4882846119a5565b6020820191508190509695505050505050565b5f819050815f5260205f209050919050565b5f6020601f8301049050919050565b5f82821b905092915050565b5f60088302611ab77fffffffffffffffffffffffffffffffffffffffffffffffffffffffffffffffff82611a7c565b611ac18683611a7c565b95508019841693508086168417925050509392505050565b5f819050919050565b5f611afc611af7611af284611219565b611ad9565b611219565b9050919050565b5f819050919050565b611b1583611ae2565b611b29611b2182611b03565b848454611a88565b825550505050565b5f90565b611b3d611b31565b611b48818484611b0c565b505050565b5b81811015611b6b57611b605f82611b35565b600181019050611b4e565b5050565b601f821115611bb057611b8181611a5b565b611b8a84611a6d565b81016020851015611b99578190505b611bad611ba585611a6d565b830182611b4d565b50505b505050565b5f82821c905092915050565b5f611bd05f1984600802611bb5565b1980831691505092915050565b5f611be88383611bc1565b9150826002028217905092915050565b611c01826114a1565b67ffffffffffffffff811115611c1a57611c196112fd565b5b611c248254611932565b611c2f828285611b6f565b5f60209050601f831160018114611c60575f8415611c4e578287015190505b611c588582611bdd565b865550611cbf565b601f198416611c6e86611a5b565b5f5b82811015611c9557848901518255600182019150602085019450602081019050611c70565b86831015611cb25784890151611cae601f891682611bc1565b8355505b6001600288020188555050505b505050505050565b7f50726f64756374206e6f6e2070726573656e74652100000000000000000000005f82015250565b5f611cfb6015836114ab565b9150611d0682611cc7565b602082019050919050565b5f6020820190508181035f830152611d2881611cef565b9050919050565b7f5175616e74697479206e6f742056616c696421000000000000000000000000005f82015250565b5f611d636013836114ab565b9150611d6e82611d2f565b602082019050919050565b5f6020820190508181035f830152611d9081611d57565b9050919050565b7f4e487b71000000000000000000000000000000000000000000000000000000005f52603260045260245ffd5b611dcd816111de565b82525050565b5f602082019050611de65f830184611dc4565b92915050565b5f67ffffffffffffffff821115611e0657611e056112fd565b5b602082029050602081019050919050565b5f80fd5b5f80fd5b5f81519050611e2d81611222565b92915050565b5f611e45611e4084611375565b61135b565b905082815260208101848484011115611e6157611e606112e9565b5b611e6c8482856114bb565b509392505050565b5f82601f830112611e8857611e876112e5565b5b8151611e98848260208601611e33565b91505092915050565b5f60808284031215611eb657611eb5611e17565b5b611ec0608061135b565b90505f611ecf84828501611e1f565b5f83015250602082015167ffffffffffffffff811115611ef257611ef1611e1b565b5b611efe84828501611e74565b6020830152506040611f1284828501611e1f565b6040830152506060611f2684828501611e1f565b60608301525092915050565b5f611f44611f3f84611dec565b61135b565b90508083825260208201905060208402830185811115611f6757611f666117bd565b5b835b81811015611fae57805167ffffffffffffffff811115611f8c57611f8b6112e5565b5b808601611f998982611ea1565b85526020850194505050602081019050611f69565b5050509392505050565b5f82601f830112611fcc57611fcb6112e5565b5b8151611fdc848260208601611f32565b91505092915050565b5f60208284031215611ffa57611ff96111b7565b5b5f82015167ffffffffffffffff811115612017576120166111bb565b5b61202384828501611fb8565b91505092915050565b7f4e487b71000000000000000000000000000000000000000000000000000000005f52601160045260245ffd5b5f61206382611219565b915061206e83611219565b92508282019050808211156120865761208561202c565b5b92915050565b5f61209682611219565b91507fffffffffffffffffffffffffffffffffffffffffffffffffffffffffffffffff82036120c8576120c761202c565b5b60018201905091905056fea2646970667358221220427cfd6c0a214b1e1d766664bf3dfc6daec1d9c57b4ccdb11cfccc616c83d96f64736f6c63430008160033",
					"opcodes": "PUSH1 0x80 PUSH1 0x40 MSTORE CALLVALUE DUP1 ISZERO PUSH2 0xF JUMPI PUSH0 DUP1 REVERT JUMPDEST POP CALLER PUSH0 DUP1 PUSH2 0x100 EXP DUP2 SLOAD DUP2 PUSH20 0xFFFFFFFFFFFFFFFFFFFFFFFFFFFFFFFFFFFFFFFF MUL NOT AND SWAP1 DUP4 PUSH20 0xFFFFFFFFFFFFFFFFFFFFFFFFFFFFFFFFFFFFFFFF AND MUL OR SWAP1 SSTORE POP PUSH2 0x2109 DUP1 PUSH2 0x5C PUSH0 CODECOPY PUSH0 RETURN INVALID PUSH1 0x80 PUSH1 0x40 MSTORE CALLVALUE DUP1 ISZERO PUSH2 0xF JUMPI PUSH0 DUP1 REVERT JUMPDEST POP PUSH1 0x4 CALLDATASIZE LT PUSH2 0xA7 JUMPI PUSH0 CALLDATALOAD PUSH1 0xE0 SHR DUP1 PUSH4 0x9F2B6898 GT PUSH2 0x6F JUMPI DUP1 PUSH4 0x9F2B6898 EQ PUSH2 0x19E JUMPI DUP1 PUSH4 0xAD9C10A1 EQ PUSH2 0x1CE JUMPI DUP1 PUSH4 0xCE4FCF23 EQ PUSH2 0x1FE JUMPI DUP1 PUSH4 0xD1F2C4A2 EQ PUSH2 0x231 JUMPI DUP1 PUSH4 0xD5AA1784 EQ PUSH2 0x261 JUMPI DUP1 PUSH4 0xF2492078 EQ PUSH2 0x291 JUMPI PUSH2 0xA7 JUMP JUMPDEST DUP1 PUSH4 0x2D805F6 EQ PUSH2 0xAB JUMPI DUP1 PUSH4 0x1E073FCF EQ PUSH2 0xDB JUMPI DUP1 PUSH4 0x449E815D EQ PUSH2 0x10B JUMPI DUP1 PUSH4 0x8317679F EQ PUSH2 0x13B JUMPI DUP1 PUSH4 0x87ABC216 EQ PUSH2 0x16E JUMPI JUMPDEST PUSH0 DUP1 REVERT JUMPDEST PUSH2 0xC5 PUSH1 0x4 DUP1 CALLDATASIZE SUB DUP2 ADD SWAP1 PUSH2 0xC0 SWAP2 SWAP1 PUSH2 0x124C JUMP JUMPDEST PUSH2 0x2AD JUMP JUMPDEST PUSH1 0x40 MLOAD PUSH2 0xD2 SWAP2 SWAP1 PUSH2 0x12A4 JUMP JUMPDEST PUSH1 0x40 MLOAD DUP1 SWAP2 SUB SWAP1 RETURN JUMPDEST PUSH2 0xF5 PUSH1 0x4 DUP1 CALLDATASIZE SUB DUP2 ADD SWAP1 PUSH2 0xF0 SWAP2 SWAP1 PUSH2 0x124C JUMP JUMPDEST PUSH2 0x355 JUMP JUMPDEST PUSH1 0x40 MLOAD PUSH2 0x102 SWAP2 SWAP1 PUSH2 0x12CC JUMP JUMPDEST PUSH1 0x40 MLOAD DUP1 SWAP2 SUB SWAP1 RETURN JUMPDEST PUSH2 0x125 PUSH1 0x4 DUP1 CALLDATASIZE SUB DUP2 ADD SWAP1 PUSH2 0x120 SWAP2 SWAP1 PUSH2 0x124C JUMP JUMPDEST PUSH2 0x46B JUMP JUMPDEST PUSH1 0x40 MLOAD PUSH2 0x132 SWAP2 SWAP1 PUSH2 0x12CC JUMP JUMPDEST PUSH1 0x40 MLOAD DUP1 SWAP2 SUB SWAP1 RETURN JUMPDEST PUSH2 0x155 PUSH1 0x4 DUP1 CALLDATASIZE SUB DUP2 ADD SWAP1 PUSH2 0x150 SWAP2 SWAP1 PUSH2 0x1421 JUMP JUMPDEST PUSH2 0x581 JUMP JUMPDEST PUSH1 0x40 MLOAD PUSH2 0x165 SWAP5 SWAP4 SWAP3 SWAP2 SWAP1 PUSH2 0x151B JUMP JUMPDEST PUSH1 0x40 MLOAD DUP1 SWAP2 SUB SWAP1 RETURN JUMPDEST PUSH2 0x188 PUSH1 0x4 DUP1 CALLDATASIZE SUB DUP2 ADD SWAP1 PUSH2 0x183 SWAP2 SWAP1 PUSH2 0x1565 JUMP JUMPDEST PUSH2 0x863 JUMP JUMPDEST PUSH1 0x40 MLOAD PUSH2 0x195 SWAP2 SWAP1 PUSH2 0x12A4 JUMP JUMPDEST PUSH1 0x40 MLOAD DUP1 SWAP2 SUB SWAP1 RETURN JUMPDEST PUSH2 0x1B8 PUSH1 0x4 DUP1 CALLDATASIZE SUB DUP2 ADD SWAP1 PUSH2 0x1B3 SWAP2 SWAP1 PUSH2 0x124C JUMP JUMPDEST PUSH2 0x996 JUMP JUMPDEST PUSH1 0x40 MLOAD PUSH2 0x1C5 SWAP2 SWAP1 PUSH2 0x15B5 JUMP JUMPDEST PUSH1 0x40 MLOAD DUP1 SWAP2 SUB SWAP1 RETURN JUMPDEST PUSH2 0x1E8 PUSH1 0x4 DUP1 CALLDATASIZE SUB DUP2 ADD SWAP1 PUSH2 0x1E3 SWAP2 SWAP1 PUSH2 0x124C JUMP JUMPDEST PUSH2 0xAAD JUMP JUMPDEST PUSH1 0x40 MLOAD PUSH2 0x1F5 SWAP2 SWAP1 PUSH2 0x12A4 JUMP JUMPDEST PUSH1 0x40 MLOAD DUP1 SWAP2 SUB SWAP1 RETURN JUMPDEST PUSH2 0x218 PUSH1 0x4 DUP1 CALLDATASIZE SUB DUP2 ADD SWAP1 PUSH2 0x213 SWAP2 SWAP1 PUSH2 0x124C JUMP JUMPDEST PUSH2 0xB9A JUMP JUMPDEST PUSH1 0x40 MLOAD PUSH2 0x228 SWAP5 SWAP4 SWAP3 SWAP2 SWAP1 PUSH2 0x151B JUMP JUMPDEST PUSH1 0x40 MLOAD DUP1 SWAP2 SUB SWAP1 RETURN JUMPDEST PUSH2 0x24B PUSH1 0x4 DUP1 CALLDATASIZE SUB DUP2 ADD SWAP1 PUSH2 0x246 SWAP2 SWAP1 PUSH2 0x15D5 JUMP JUMPDEST PUSH2 0xCCB JUMP JUMPDEST PUSH1 0x40 MLOAD PUSH2 0x258 SWAP2 SWAP1 PUSH2 0x1772 JUMP JUMPDEST PUSH1 0x40 MLOAD DUP1 SWAP2 SUB SWAP1 RETURN JUMPDEST PUSH2 0x27B PUSH1 0x4 DUP1 CALLDATASIZE SUB DUP2 ADD SWAP1 PUSH2 0x276 SWAP2 SWAP1 PUSH2 0x1856 JUMP JUMPDEST PUSH2 0xEED JUMP JUMPDEST PUSH1 0x40 MLOAD PUSH2 0x288 SWAP2 SWAP1 PUSH2 0x1772 JUMP JUMPDEST PUSH1 0x40 MLOAD DUP1 SWAP2 SUB SWAP1 RETURN JUMPDEST PUSH2 0x2AB PUSH1 0x4 DUP1 CALLDATASIZE SUB DUP2 ADD SWAP1 PUSH2 0x2A6 SWAP2 SWAP1 PUSH2 0x1565 JUMP JUMPDEST PUSH2 0x106E JUMP JUMPDEST STOP JUMPDEST PUSH0 DUP1 DUP3 EQ ISZERO DUP1 ISZERO PUSH2 0x2BD JUMPI POP PUSH0 DUP3 GT JUMPDEST PUSH2 0x2FC JUMPI PUSH1 0x40 MLOAD PUSH32 0x8C379A000000000000000000000000000000000000000000000000000000000 DUP2 MSTORE PUSH1 0x4 ADD PUSH2 0x2F3 SWAP1 PUSH2 0x18E7 JUMP JUMPDEST PUSH1 0x40 MLOAD DUP1 SWAP2 SUB SWAP1 REVERT JUMPDEST DUP2 PUSH1 0x1 PUSH0 DUP6 PUSH20 0xFFFFFFFFFFFFFFFFFFFFFFFFFFFFFFFFFFFFFFFF AND PUSH20 0xFFFFFFFFFFFFFFFFFFFFFFFFFFFFFFFFFFFFFFFF AND DUP2 MSTORE PUSH1 0x20 ADD SWAP1 DUP2 MSTORE PUSH1 0x20 ADD PUSH0 KECCAK256 PUSH0 DUP5 DUP2 MSTORE PUSH1 0x20 ADD SWAP1 DUP2 MSTORE PUSH1 0x20 ADD PUSH0 KECCAK256 PUSH0 ADD SLOAD EQ SWAP1 POP SWAP3 SWAP2 POP POP JUMP JUMPDEST PUSH0 DUP1 PUSH1 0x1 PUSH0 DUP6 PUSH20 0xFFFFFFFFFFFFFFFFFFFFFFFFFFFFFFFFFFFFFFFF AND PUSH20 0xFFFFFFFFFFFFFFFFFFFFFFFFFFFFFFFFFFFFFFFF AND DUP2 MSTORE PUSH1 0x20 ADD SWAP1 DUP2 MSTORE PUSH1 0x20 ADD PUSH0 KECCAK256 PUSH0 DUP5 DUP2 MSTORE PUSH1 0x20 ADD SWAP1 DUP2 MSTORE PUSH1 0x20 ADD PUSH0 KECCAK256 PUSH1 0x40 MLOAD DUP1 PUSH1 0x80 ADD PUSH1 0x40 MSTORE SWAP1 DUP2 PUSH0 DUP3 ADD SLOAD DUP2 MSTORE PUSH1 0x20 ADD PUSH1 0x1 DUP3 ADD DUP1 SLOAD PUSH2 0x3C7 SWAP1 PUSH2 0x1932 JUMP JUMPDEST DUP1 PUSH1 0x1F ADD PUSH1 0x20 DUP1 SWAP2 DIV MUL PUSH1 0x20 ADD PUSH1 0x40 MLOAD SWAP1 DUP2 ADD PUSH1 0x40 MSTORE DUP1 SWAP3 SWAP2 SWAP1 DUP2 DUP2 MSTORE PUSH1 0x20 ADD DUP3 DUP1 SLOAD PUSH2 0x3F3 SWAP1 PUSH2 0x1932 JUMP JUMPDEST DUP1 ISZERO PUSH2 0x43E JUMPI DUP1 PUSH1 0x1F LT PUSH2 0x415 JUMPI PUSH2 0x100 DUP1 DUP4 SLOAD DIV MUL DUP4 MSTORE SWAP2 PUSH1 0x20 ADD SWAP2 PUSH2 0x43E JUMP JUMPDEST DUP3 ADD SWAP2 SWAP1 PUSH0 MSTORE PUSH1 0x20 PUSH0 KECCAK256 SWAP1 JUMPDEST DUP2 SLOAD DUP2 MSTORE SWAP1 PUSH1 0x1 ADD SWAP1 PUSH1 0x20 ADD DUP1 DUP4 GT PUSH2 0x421 JUMPI DUP3 SWAP1 SUB PUSH1 0x1F AND DUP3 ADD SWAP2 JUMPDEST POP POP POP POP POP DUP2 MSTORE PUSH1 0x20 ADD PUSH1 0x2 DUP3 ADD SLOAD DUP2 MSTORE PUSH1 0x20 ADD PUSH1 0x3 DUP3 ADD SLOAD DUP2 MSTORE POP POP SWAP1 POP DUP1 PUSH1 0x40 ADD MLOAD SWAP2 POP POP SWAP3 SWAP2 POP POP JUMP JUMPDEST PUSH0 DUP1 PUSH1 0x1 PUSH0 DUP6 PUSH20 0xFFFFFFFFFFFFFFFFFFFFFFFFFFFFFFFFFFFFFFFF AND PUSH20 0xFFFFFFFFFFFFFFFFFFFFFFFFFFFFFFFFFFFFFFFF AND DUP2 MSTORE PUSH1 0x20 ADD SWAP1 DUP2 MSTORE PUSH1 0x20 ADD PUSH0 KECCAK256 PUSH0 DUP5 DUP2 MSTORE PUSH1 0x20 ADD SWAP1 DUP2 MSTORE PUSH1 0x20 ADD PUSH0 KECCAK256 PUSH1 0x40 MLOAD DUP1 PUSH1 0x80 ADD PUSH1 0x40 MSTORE SWAP1 DUP2 PUSH0 DUP3 ADD SLOAD DUP2 MSTORE PUSH1 0x20 ADD PUSH1 0x1 DUP3 ADD DUP1 SLOAD PUSH2 0x4DD SWAP1 PUSH2 0x1932 JUMP JUMPDEST DUP1 PUSH1 0x1F ADD PUSH1 0x20 DUP1 SWAP2 DIV MUL PUSH1 0x20 ADD PUSH1 0x40 MLOAD SWAP1 DUP2 ADD PUSH1 0x40 MSTORE DUP1 SWAP3 SWAP2 SWAP1 DUP2 DUP2 MSTORE PUSH1 0x20 ADD DUP3 DUP1 SLOAD PUSH2 0x509 SWAP1 PUSH2 0x1932 JUMP JUMPDEST DUP1 ISZERO PUSH2 0x554 JUMPI DUP1 PUSH1 0x1F LT PUSH2 0x52B JUMPI PUSH2 0x100 DUP1 DUP4 SLOAD DIV MUL DUP4 MSTORE SWAP2 PUSH1 0x20 ADD SWAP2 PUSH2 0x554 JUMP JUMPDEST DUP3 ADD SWAP2 SWAP1 PUSH0 MSTORE PUSH1 0x20 PUSH0 KECCAK256 SWAP1 JUMPDEST DUP2 SLOAD DUP2 MSTORE SWAP1 PUSH1 0x1 ADD SWAP1 PUSH1 0x20 ADD DUP1 DUP4 GT PUSH2 0x537 JUMPI DUP3 SWAP1 SUB PUSH1 0x1F AND DUP3 ADD SWAP2 JUMPDEST POP POP POP POP POP DUP2 MSTORE PUSH1 0x20 ADD PUSH1 0x2 DUP3 ADD SLOAD DUP2 MSTORE PUSH1 0x20 ADD PUSH1 0x3 DUP3 ADD SLOAD DUP2 MSTORE POP POP SWAP1 POP DUP1 PUSH1 0x60 ADD MLOAD SWAP2 POP POP SWAP3 SWAP2 POP POP JUMP JUMPDEST PUSH0 PUSH1 0x60 PUSH0 DUP1 PUSH0 DUP8 DUP8 DUP8 DUP12 TIMESTAMP PUSH1 0x40 MLOAD PUSH1 0x20 ADD PUSH2 0x5A0 SWAP6 SWAP5 SWAP4 SWAP3 SWAP2 SWAP1 PUSH2 0x1A01 JUMP JUMPDEST PUSH1 0x40 MLOAD PUSH1 0x20 DUP2 DUP4 SUB SUB DUP2 MSTORE SWAP1 PUSH1 0x40 MSTORE DUP1 MLOAD SWAP1 PUSH1 0x20 ADD KECCAK256 PUSH0 SHR SWAP1 POP PUSH0 PUSH1 0x40 MLOAD DUP1 PUSH1 0x80 ADD PUSH1 0x40 MSTORE DUP1 DUP4 DUP2 MSTORE PUSH1 0x20 ADD DUP11 DUP2 MSTORE PUSH1 0x20 ADD DUP10 DUP2 MSTORE PUSH1 0x20 ADD DUP9 DUP2 MSTORE POP SWAP1 POP PUSH1 0x2 DUP3 SWAP1 DUP1 PUSH1 0x1 DUP2 SLOAD ADD DUP1 DUP3 SSTORE DUP1 SWAP2 POP POP PUSH1 0x1 SWAP1 SUB SWAP1 PUSH0 MSTORE PUSH1 0x20 PUSH0 KECCAK256 ADD PUSH0 SWAP1 SWAP2 SWAP1 SWAP2 SWAP1 SWAP2 POP SSTORE DUP1 PUSH1 0x1 PUSH0 DUP13 PUSH20 0xFFFFFFFFFFFFFFFFFFFFFFFFFFFFFFFFFFFFFFFF AND PUSH20 0xFFFFFFFFFFFFFFFFFFFFFFFFFFFFFFFFFFFFFFFF AND DUP2 MSTORE PUSH1 0x20 ADD SWAP1 DUP2 MSTORE PUSH1 0x20 ADD PUSH0 KECCAK256 PUSH0 DUP5 DUP2 MSTORE PUSH1 0x20 ADD SWAP1 DUP2 MSTORE PUSH1 0x20 ADD PUSH0 KECCAK256 PUSH0 DUP3 ADD MLOAD DUP2 PUSH0 ADD SSTORE PUSH1 0x20 DUP3 ADD MLOAD DUP2 PUSH1 0x1 ADD SWAP1 DUP2 PUSH2 0x66E SWAP2 SWAP1 PUSH2 0x1BF8 JUMP JUMPDEST POP PUSH1 0x40 DUP3 ADD MLOAD DUP2 PUSH1 0x2 ADD SSTORE PUSH1 0x60 DUP3 ADD MLOAD DUP2 PUSH1 0x3 ADD SSTORE SWAP1 POP POP PUSH1 0x1 PUSH0 DUP12 PUSH20 0xFFFFFFFFFFFFFFFFFFFFFFFFFFFFFFFFFFFFFFFF AND PUSH20 0xFFFFFFFFFFFFFFFFFFFFFFFFFFFFFFFFFFFFFFFF AND DUP2 MSTORE PUSH1 0x20 ADD SWAP1 DUP2 MSTORE PUSH1 0x20 ADD PUSH0 KECCAK256 PUSH0 DUP4 DUP2 MSTORE PUSH1 0x20 ADD SWAP1 DUP2 MSTORE PUSH1 0x20 ADD PUSH0 KECCAK256 PUSH0 ADD SLOAD PUSH1 0x1 PUSH0 DUP13 PUSH20 0xFFFFFFFFFFFFFFFFFFFFFFFFFFFFFFFFFFFFFFFF AND PUSH20 0xFFFFFFFFFFFFFFFFFFFFFFFFFFFFFFFFFFFFFFFF AND DUP2 MSTORE PUSH1 0x20 ADD SWAP1 DUP2 MSTORE PUSH1 0x20 ADD PUSH0 KECCAK256 PUSH0 DUP5 DUP2 MSTORE PUSH1 0x20 ADD SWAP1 DUP2 MSTORE PUSH1 0x20 ADD PUSH0 KECCAK256 PUSH1 0x1 ADD PUSH1 0x1 PUSH0 DUP14 PUSH20 0xFFFFFFFFFFFFFFFFFFFFFFFFFFFFFFFFFFFFFFFF AND PUSH20 0xFFFFFFFFFFFFFFFFFFFFFFFFFFFFFFFFFFFFFFFF AND DUP2 MSTORE PUSH1 0x20 ADD SWAP1 DUP2 MSTORE PUSH1 0x20 ADD PUSH0 KECCAK256 PUSH0 DUP6 DUP2 MSTORE PUSH1 0x20 ADD SWAP1 DUP2 MSTORE PUSH1 0x20 ADD PUSH0 KECCAK256 PUSH1 0x2 ADD SLOAD PUSH1 0x1 PUSH0 DUP15 PUSH20 0xFFFFFFFFFFFFFFFFFFFFFFFFFFFFFFFFFFFFFFFF AND PUSH20 0xFFFFFFFFFFFFFFFFFFFFFFFFFFFFFFFFFFFFFFFF AND DUP2 MSTORE PUSH1 0x20 ADD SWAP1 DUP2 MSTORE PUSH1 0x20 ADD PUSH0 KECCAK256 PUSH0 DUP7 DUP2 MSTORE PUSH1 0x20 ADD SWAP1 DUP2 MSTORE PUSH1 0x20 ADD PUSH0 KECCAK256 PUSH1 0x3 ADD SLOAD DUP3 DUP1 SLOAD PUSH2 0x7D0 SWAP1 PUSH2 0x1932 JUMP JUMPDEST DUP1 PUSH1 0x1F ADD PUSH1 0x20 DUP1 SWAP2 DIV MUL PUSH1 0x20 ADD PUSH1 0x40 MLOAD SWAP1 DUP2 ADD PUSH1 0x40 MSTORE DUP1 SWAP3 SWAP2 SWAP1 DUP2 DUP2 MSTORE PUSH1 0x20 ADD DUP3 DUP1 SLOAD PUSH2 0x7FC SWAP1 PUSH2 0x1932 JUMP JUMPDEST DUP1 ISZERO PUSH2 0x847 JUMPI DUP1 PUSH1 0x1F LT PUSH2 0x81E JUMPI PUSH2 0x100 DUP1 DUP4 SLOAD DIV MUL DUP4 MSTORE SWAP2 PUSH1 0x20 ADD SWAP2 PUSH2 0x847 JUMP JUMPDEST DUP3 ADD SWAP2 SWAP1 PUSH0 MSTORE PUSH1 0x20 PUSH0 KECCAK256 SWAP1 JUMPDEST DUP2 SLOAD DUP2 MSTORE SWAP1 PUSH1 0x1 ADD SWAP1 PUSH1 0x20 ADD DUP1 DUP4 GT PUSH2 0x82A JUMPI DUP3 SWAP1 SUB PUSH1 0x1F AND DUP3 ADD SWAP2 JUMPDEST POP POP POP POP POP SWAP3 POP SWAP6 POP SWAP6 POP SWAP6 POP SWAP6 POP POP POP SWAP5 POP SWAP5 POP SWAP5 POP SWAP5 SWAP1 POP JUMP JUMPDEST PUSH0 DUP3 PUSH1 0x1 PUSH0 DUP7 PUSH20 0xFFFFFFFFFFFFFFFFFFFFFFFFFFFFFFFFFFFFFFFF AND PUSH20 0xFFFFFFFFFFFFFFFFFFFFFFFFFFFFFFFFFFFFFFFF AND DUP2 MSTORE PUSH1 0x20 ADD SWAP1 DUP2 MSTORE PUSH1 0x20 ADD PUSH0 KECCAK256 PUSH0 DUP6 DUP2 MSTORE PUSH1 0x20 ADD SWAP1 DUP2 MSTORE PUSH1 0x20 ADD PUSH0 KECCAK256 PUSH0 ADD SLOAD EQ PUSH2 0x8F4 JUMPI PUSH1 0x40 MLOAD PUSH32 0x8C379A000000000000000000000000000000000000000000000000000000000 DUP2 MSTORE PUSH1 0x4 ADD PUSH2 0x8EB SWAP1 PUSH2 0x1D11 JUMP JUMPDEST PUSH1 0x40 MLOAD DUP1 SWAP2 SUB SWAP1 REVERT JUMPDEST PUSH0 PUSH1 0x1 PUSH0 DUP7 PUSH20 0xFFFFFFFFFFFFFFFFFFFFFFFFFFFFFFFFFFFFFFFF AND PUSH20 0xFFFFFFFFFFFFFFFFFFFFFFFFFFFFFFFFFFFFFFFF AND DUP2 MSTORE PUSH1 0x20 ADD SWAP1 DUP2 MSTORE PUSH1 0x20 ADD PUSH0 KECCAK256 PUSH0 DUP6 DUP2 MSTORE PUSH1 0x20 ADD SWAP1 DUP2 MSTORE PUSH1 0x20 ADD PUSH0 KECCAK256 SWAP1 POP DUP3 DUP2 PUSH1 0x2 ADD SLOAD LT ISZERO PUSH2 0x98A JUMPI PUSH1 0x40 MLOAD PUSH32 0x8C379A000000000000000000000000000000000000000000000000000000000 DUP2 MSTORE PUSH1 0x4 ADD PUSH2 0x981 SWAP1 PUSH2 0x1D79 JUMP JUMPDEST PUSH1 0x40 MLOAD DUP1 SWAP2 SUB SWAP1 REVERT JUMPDEST PUSH1 0x1 SWAP2 POP POP SWAP4 SWAP3 POP POP POP JUMP JUMPDEST PUSH1 0x60 PUSH0 PUSH1 0x1 PUSH0 DUP6 PUSH20 0xFFFFFFFFFFFFFFFFFFFFFFFFFFFFFFFFFFFFFFFF AND PUSH20 0xFFFFFFFFFFFFFFFFFFFFFFFFFFFFFFFFFFFFFFFF AND DUP2 MSTORE PUSH1 0x20 ADD SWAP1 DUP2 MSTORE PUSH1 0x20 ADD PUSH0 KECCAK256 PUSH0 DUP5 DUP2 MSTORE PUSH1 0x20 ADD SWAP1 DUP2 MSTORE PUSH1 0x20 ADD PUSH0 KECCAK256 PUSH1 0x40 MLOAD DUP1 PUSH1 0x80 ADD PUSH1 0x40 MSTORE SWAP1 DUP2 PUSH0 DUP3 ADD SLOAD DUP2 MSTORE PUSH1 0x20 ADD PUSH1 0x1 DUP3 ADD DUP1 SLOAD PUSH2 0xA09 SWAP1 PUSH2 0x1932 JUMP JUMPDEST DUP1 PUSH1 0x1F ADD PUSH1 0x20 DUP1 SWAP2 DIV MUL PUSH1 0x20 ADD PUSH1 0x40 MLOAD SWAP1 DUP2 ADD PUSH1 0x40 MSTORE DUP1 SWAP3 SWAP2 SWAP1 DUP2 DUP2 MSTORE PUSH1 0x20 ADD DUP3 DUP1 SLOAD PUSH2 0xA35 SWAP1 PUSH2 0x1932 JUMP JUMPDEST DUP1 ISZERO PUSH2 0xA80 JUMPI DUP1 PUSH1 0x1F LT PUSH2 0xA57 JUMPI PUSH2 0x100 DUP1 DUP4 SLOAD DIV MUL DUP4 MSTORE SWAP2 PUSH1 0x20 ADD SWAP2 PUSH2 0xA80 JUMP JUMPDEST DUP3 ADD SWAP2 SWAP1 PUSH0 MSTORE PUSH1 0x20 PUSH0 KECCAK256 SWAP1 JUMPDEST DUP2 SLOAD DUP2 MSTORE SWAP1 PUSH1 0x1 ADD SWAP1 PUSH1 0x20 ADD DUP1 DUP4 GT PUSH2 0xA63 JUMPI DUP3 SWAP1 SUB PUSH1 0x1F AND DUP3 ADD SWAP2 JUMPDEST POP POP POP POP POP DUP2 MSTORE PUSH1 0x20 ADD PUSH1 0x2 DUP3 ADD SLOAD DUP2 MSTORE PUSH1 0x20 ADD PUSH1 0x3 DUP3 ADD SLOAD DUP2 MSTORE POP POP SWAP1 POP DUP1 PUSH1 0x20 ADD MLOAD SWAP2 POP POP SWAP3 SWAP2 POP POP JUMP JUMPDEST PUSH0 PUSH1 0x1 PUSH0 DUP5 PUSH20 0xFFFFFFFFFFFFFFFFFFFFFFFFFFFFFFFFFFFFFFFF AND PUSH20 0xFFFFFFFFFFFFFFFFFFFFFFFFFFFFFFFFFFFFFFFF AND DUP2 MSTORE PUSH1 0x20 ADD SWAP1 DUP2 MSTORE PUSH1 0x20 ADD PUSH0 KECCAK256 PUSH0 DUP4 DUP2 MSTORE PUSH1 0x20 ADD SWAP1 DUP2 MSTORE PUSH1 0x20 ADD PUSH0 KECCAK256 PUSH0 DUP1 DUP3 ADD PUSH0 SWAP1 SSTORE PUSH1 0x1 DUP3 ADD PUSH0 PUSH2 0xB10 SWAP2 SWAP1 PUSH2 0x1131 JUMP JUMPDEST PUSH1 0x2 DUP3 ADD PUSH0 SWAP1 SSTORE PUSH1 0x3 DUP3 ADD PUSH0 SWAP1 SSTORE POP POP PUSH0 PUSH1 0x1 PUSH0 DUP6 PUSH20 0xFFFFFFFFFFFFFFFFFFFFFFFFFFFFFFFFFFFFFFFF AND PUSH20 0xFFFFFFFFFFFFFFFFFFFFFFFFFFFFFFFFFFFFFFFF AND DUP2 MSTORE PUSH1 0x20 ADD SWAP1 DUP2 MSTORE PUSH1 0x20 ADD PUSH0 KECCAK256 PUSH0 DUP5 DUP2 MSTORE PUSH1 0x20 ADD SWAP1 DUP2 MSTORE PUSH1 0x20 ADD PUSH0 KECCAK256 PUSH0 ADD SLOAD EQ DUP1 ISZERO PUSH2 0xB82 JUMPI POP PUSH2 0xB81 DUP3 PUSH2 0x10C7 JUMP JUMPDEST JUMPDEST ISZERO PUSH2 0xB90 JUMPI PUSH1 0x1 SWAP1 POP PUSH2 0xB94 JUMP JUMPDEST PUSH0 SWAP1 POP JUMPDEST SWAP3 SWAP2 POP POP JUMP JUMPDEST PUSH0 PUSH1 0x60 PUSH0 DUP1 PUSH0 PUSH1 0x1 PUSH0 DUP9 PUSH20 0xFFFFFFFFFFFFFFFFFFFFFFFFFFFFFFFFFFFFFFFF AND PUSH20 0xFFFFFFFFFFFFFFFFFFFFFFFFFFFFFFFFFFFFFFFF AND DUP2 MSTORE PUSH1 0x20 ADD SWAP1 DUP2 MSTORE PUSH1 0x20 ADD PUSH0 KECCAK256 PUSH0 DUP8 DUP2 MSTORE PUSH1 0x20 ADD SWAP1 DUP2 MSTORE PUSH1 0x20 ADD PUSH0 KECCAK256 PUSH1 0x40 MLOAD DUP1 PUSH1 0x80 ADD PUSH1 0x40 MSTORE SWAP1 DUP2 PUSH0 DUP3 ADD SLOAD DUP2 MSTORE PUSH1 0x20 ADD PUSH1 0x1 DUP3 ADD DUP1 SLOAD PUSH2 0xC10 SWAP1 PUSH2 0x1932 JUMP JUMPDEST DUP1 PUSH1 0x1F ADD PUSH1 0x20 DUP1 SWAP2 DIV MUL PUSH1 0x20 ADD PUSH1 0x40 MLOAD SWAP1 DUP2 ADD PUSH1 0x40 MSTORE DUP1 SWAP3 SWAP2 SWAP1 DUP2 DUP2 MSTORE PUSH1 0x20 ADD DUP3 DUP1 SLOAD PUSH2 0xC3C SWAP1 PUSH2 0x1932 JUMP JUMPDEST DUP1 ISZERO PUSH2 0xC87 JUMPI DUP1 PUSH1 0x1F LT PUSH2 0xC5E JUMPI PUSH2 0x100 DUP1 DUP4 SLOAD DIV MUL DUP4 MSTORE SWAP2 PUSH1 0x20 ADD SWAP2 PUSH2 0xC87 JUMP JUMPDEST DUP3 ADD SWAP2 SWAP1 PUSH0 MSTORE PUSH1 0x20 PUSH0 KECCAK256 SWAP1 JUMPDEST DUP2 SLOAD DUP2 MSTORE SWAP1 PUSH1 0x1 ADD SWAP1 PUSH1 0x20 ADD DUP1 DUP4 GT PUSH2 0xC6A JUMPI DUP3 SWAP1 SUB PUSH1 0x1F AND DUP3 ADD SWAP2 JUMPDEST POP POP POP POP POP DUP2 MSTORE PUSH1 0x20 ADD PUSH1 0x2 DUP3 ADD SLOAD DUP2 MSTORE PUSH1 0x20 ADD PUSH1 0x3 DUP3 ADD SLOAD DUP2 MSTORE POP POP SWAP1 POP DUP1 PUSH0 ADD MLOAD DUP2 PUSH1 0x20 ADD MLOAD DUP3 PUSH1 0x40 ADD MLOAD DUP4 PUSH1 0x60 ADD MLOAD SWAP5 POP SWAP5 POP SWAP5 POP SWAP5 POP POP SWAP3 SWAP6 SWAP2 SWAP5 POP SWAP3 POP JUMP JUMPDEST PUSH1 0x60 PUSH0 PUSH1 0x2 DUP1 SLOAD SWAP1 POP PUSH8 0xFFFFFFFFFFFFFFFF DUP2 GT ISZERO PUSH2 0xCED JUMPI PUSH2 0xCEC PUSH2 0x12FD JUMP JUMPDEST JUMPDEST PUSH1 0x40 MLOAD SWAP1 DUP1 DUP3 MSTORE DUP1 PUSH1 0x20 MUL PUSH1 0x20 ADD DUP3 ADD PUSH1 0x40 MSTORE DUP1 ISZERO PUSH2 0xD26 JUMPI DUP2 PUSH1 0x20 ADD JUMPDEST PUSH2 0xD13 PUSH2 0x116E JUMP JUMPDEST DUP2 MSTORE PUSH1 0x20 ADD SWAP1 PUSH1 0x1 SWAP1 SUB SWAP1 DUP2 PUSH2 0xD0B JUMPI SWAP1 POP JUMPDEST POP SWAP1 POP PUSH0 JUMPDEST PUSH1 0x2 DUP1 SLOAD SWAP1 POP DUP2 LT ISZERO PUSH2 0xEE3 JUMPI PUSH0 PUSH1 0x2 DUP3 DUP2 SLOAD DUP2 LT PUSH2 0xD4D JUMPI PUSH2 0xD4C PUSH2 0x1D97 JUMP JUMPDEST JUMPDEST SWAP1 PUSH0 MSTORE PUSH1 0x20 PUSH0 KECCAK256 ADD SLOAD SWAP1 POP PUSH0 PUSH1 0x1 PUSH0 DUP8 PUSH20 0xFFFFFFFFFFFFFFFFFFFFFFFFFFFFFFFFFFFFFFFF AND PUSH20 0xFFFFFFFFFFFFFFFFFFFFFFFFFFFFFFFFFFFFFFFF AND DUP2 MSTORE PUSH1 0x20 ADD SWAP1 DUP2 MSTORE PUSH1 0x20 ADD PUSH0 KECCAK256 PUSH0 DUP4 DUP2 MSTORE PUSH1 0x20 ADD SWAP1 DUP2 MSTORE PUSH1 0x20 ADD PUSH0 KECCAK256 PUSH0 ADD SLOAD EQ PUSH2 0xED5 JUMPI PUSH0 PUSH1 0x1 PUSH0 DUP8 PUSH20 0xFFFFFFFFFFFFFFFFFFFFFFFFFFFFFFFFFFFFFFFF AND PUSH20 0xFFFFFFFFFFFFFFFFFFFFFFFFFFFFFFFFFFFFFFFF AND DUP2 MSTORE PUSH1 0x20 ADD SWAP1 DUP2 MSTORE PUSH1 0x20 ADD PUSH0 KECCAK256 PUSH0 DUP4 DUP2 MSTORE PUSH1 0x20 ADD SWAP1 DUP2 MSTORE PUSH1 0x20 ADD PUSH0 KECCAK256 SWAP1 POP DUP1 PUSH1 0x40 MLOAD DUP1 PUSH1 0x80 ADD PUSH1 0x40 MSTORE SWAP1 DUP2 PUSH0 DUP3 ADD SLOAD DUP2 MSTORE PUSH1 0x20 ADD PUSH1 0x1 DUP3 ADD DUP1 SLOAD PUSH2 0xE21 SWAP1 PUSH2 0x1932 JUMP JUMPDEST DUP1 PUSH1 0x1F ADD PUSH1 0x20 DUP1 SWAP2 DIV MUL PUSH1 0x20 ADD PUSH1 0x40 MLOAD SWAP1 DUP2 ADD PUSH1 0x40 MSTORE DUP1 SWAP3 SWAP2 SWAP1 DUP2 DUP2 MSTORE PUSH1 0x20 ADD DUP3 DUP1 SLOAD PUSH2 0xE4D SWAP1 PUSH2 0x1932 JUMP JUMPDEST DUP1 ISZERO PUSH2 0xE98 JUMPI DUP1 PUSH1 0x1F LT PUSH2 0xE6F JUMPI PUSH2 0x100 DUP1 DUP4 SLOAD DIV MUL DUP4 MSTORE SWAP2 PUSH1 0x20 ADD SWAP2 PUSH2 0xE98 JUMP JUMPDEST DUP3 ADD SWAP2 SWAP1 PUSH0 MSTORE PUSH1 0x20 PUSH0 KECCAK256 SWAP1 JUMPDEST DUP2 SLOAD DUP2 MSTORE SWAP1 PUSH1 0x1 ADD SWAP1 PUSH1 0x20 ADD DUP1 DUP4 GT PUSH2 0xE7B JUMPI DUP3 SWAP1 SUB PUSH1 0x1F AND DUP3 ADD SWAP2 JUMPDEST POP POP POP POP POP DUP2 MSTORE PUSH1 0x20 ADD PUSH1 0x2 DUP3 ADD SLOAD DUP2 MSTORE PUSH1 0x20 ADD PUSH1 0x3 DUP3 ADD SLOAD DUP2 MSTORE POP POP DUP5 DUP5 DUP2 MLOAD DUP2 LT PUSH2 0xEC8 JUMPI PUSH2 0xEC7 PUSH2 0x1D97 JUMP JUMPDEST JUMPDEST PUSH1 0x20 MUL PUSH1 0x20 ADD ADD DUP2 SWAP1 MSTORE POP POP JUMPDEST POP DUP1 DUP1 PUSH1 0x1 ADD SWAP2 POP POP PUSH2 0xD2B JUMP JUMPDEST POP DUP1 SWAP2 POP POP SWAP2 SWAP1 POP JUMP JUMPDEST PUSH1 0x60 PUSH0 PUSH1 0x2 DUP1 SLOAD SWAP1 POP PUSH8 0xFFFFFFFFFFFFFFFF DUP2 GT ISZERO PUSH2 0xF0F JUMPI PUSH2 0xF0E PUSH2 0x12FD JUMP JUMPDEST JUMPDEST PUSH1 0x40 MLOAD SWAP1 DUP1 DUP3 MSTORE DUP1 PUSH1 0x20 MUL PUSH1 0x20 ADD DUP3 ADD PUSH1 0x40 MSTORE DUP1 ISZERO PUSH2 0xF48 JUMPI DUP2 PUSH1 0x20 ADD JUMPDEST PUSH2 0xF35 PUSH2 0x116E JUMP JUMPDEST DUP2 MSTORE PUSH1 0x20 ADD SWAP1 PUSH1 0x1 SWAP1 SUB SWAP1 DUP2 PUSH2 0xF2D JUMPI SWAP1 POP JUMPDEST POP SWAP1 POP PUSH0 DUP1 JUMPDEST DUP5 MLOAD DUP2 LT ISZERO PUSH2 0x1063 JUMPI PUSH0 ADDRESS PUSH20 0xFFFFFFFFFFFFFFFFFFFFFFFFFFFFFFFFFFFFFFFF AND PUSH4 0xD1F2C4A2 DUP8 DUP5 DUP2 MLOAD DUP2 LT PUSH2 0xF87 JUMPI PUSH2 0xF86 PUSH2 0x1D97 JUMP JUMPDEST JUMPDEST PUSH1 0x20 MUL PUSH1 0x20 ADD ADD MLOAD PUSH1 0x40 MLOAD DUP3 PUSH4 0xFFFFFFFF AND PUSH1 0xE0 SHL DUP2 MSTORE PUSH1 0x4 ADD PUSH2 0xFAB SWAP2 SWAP1 PUSH2 0x1DD3 JUMP JUMPDEST PUSH0 PUSH1 0x40 MLOAD DUP1 DUP4 SUB DUP2 DUP7 GAS STATICCALL ISZERO DUP1 ISZERO PUSH2 0xFC5 JUMPI RETURNDATASIZE PUSH0 DUP1 RETURNDATACOPY RETURNDATASIZE PUSH0 REVERT JUMPDEST POP POP POP POP PUSH1 0x40 MLOAD RETURNDATASIZE PUSH0 DUP3 RETURNDATACOPY RETURNDATASIZE PUSH1 0x1F NOT PUSH1 0x1F DUP3 ADD AND DUP3 ADD DUP1 PUSH1 0x40 MSTORE POP DUP2 ADD SWAP1 PUSH2 0xFED SWAP2 SWAP1 PUSH2 0x1FE5 JUMP JUMPDEST SWAP1 POP PUSH0 JUMPDEST DUP2 MLOAD DUP2 LT ISZERO PUSH2 0x1054 JUMPI PUSH0 DUP3 DUP3 DUP2 MLOAD DUP2 LT PUSH2 0x100E JUMPI PUSH2 0x100D PUSH2 0x1D97 JUMP JUMPDEST JUMPDEST PUSH1 0x20 MUL PUSH1 0x20 ADD ADD MLOAD SWAP1 POP DUP1 DUP7 DUP7 DUP2 MLOAD DUP2 LT PUSH2 0x102C JUMPI PUSH2 0x102B PUSH2 0x1D97 JUMP JUMPDEST JUMPDEST PUSH1 0x20 MUL PUSH1 0x20 ADD ADD DUP2 SWAP1 MSTORE POP PUSH1 0x1 DUP6 PUSH2 0x1044 SWAP2 SWAP1 PUSH2 0x2059 JUMP JUMPDEST SWAP5 POP POP DUP1 DUP1 PUSH1 0x1 ADD SWAP2 POP POP PUSH2 0xFF1 JUMP JUMPDEST POP POP DUP1 DUP1 PUSH1 0x1 ADD SWAP2 POP POP PUSH2 0xF4E JUMP JUMPDEST POP DUP2 SWAP3 POP POP POP SWAP2 SWAP1 POP JUMP JUMPDEST DUP1 PUSH1 0x1 PUSH0 DUP6 PUSH20 0xFFFFFFFFFFFFFFFFFFFFFFFFFFFFFFFFFFFFFFFF AND PUSH20 0xFFFFFFFFFFFFFFFFFFFFFFFFFFFFFFFFFFFFFFFF AND DUP2 MSTORE PUSH1 0x20 ADD SWAP1 DUP2 MSTORE PUSH1 0x20 ADD PUSH0 KECCAK256 PUSH0 DUP5 DUP2 MSTORE PUSH1 0x20 ADD SWAP1 DUP2 MSTORE PUSH1 0x20 ADD PUSH0 KECCAK256 PUSH1 0x2 ADD DUP2 SWAP1 SSTORE POP POP POP POP JUMP JUMPDEST PUSH0 DUP1 PUSH0 SWAP1 POP JUMPDEST DUP3 PUSH1 0x2 DUP3 DUP2 SLOAD DUP2 LT PUSH2 0x10E2 JUMPI PUSH2 0x10E1 PUSH2 0x1D97 JUMP JUMPDEST JUMPDEST SWAP1 PUSH0 MSTORE PUSH1 0x20 PUSH0 KECCAK256 ADD SLOAD SUB PUSH2 0x1119 JUMPI PUSH1 0x2 DUP2 DUP2 SLOAD DUP2 LT PUSH2 0x1104 JUMPI PUSH2 0x1103 PUSH2 0x1D97 JUMP JUMPDEST JUMPDEST SWAP1 PUSH0 MSTORE PUSH1 0x20 PUSH0 KECCAK256 ADD PUSH0 SWAP1 SSTORE PUSH1 0x1 SWAP2 POP POP PUSH2 0x112C JUMP JUMPDEST DUP1 DUP1 PUSH2 0x1124 SWAP1 PUSH2 0x208C JUMP JUMPDEST SWAP2 POP POP PUSH2 0x10CD JUMP JUMPDEST SWAP2 SWAP1 POP JUMP JUMPDEST POP DUP1 SLOAD PUSH2 0x113D SWAP1 PUSH2 0x1932 JUMP JUMPDEST PUSH0 DUP3 SSTORE DUP1 PUSH1 0x1F LT PUSH2 0x114E JUMPI POP PUSH2 0x116B JUMP JUMPDEST PUSH1 0x1F ADD PUSH1 0x20 SWAP1 DIV SWAP1 PUSH0 MSTORE PUSH1 0x20 PUSH0 KECCAK256 SWAP1 DUP2 ADD SWAP1 PUSH2 0x116A SWAP2 SWAP1 PUSH2 0x1193 JUMP JUMPDEST JUMPDEST POP JUMP JUMPDEST PUSH1 0x40 MLOAD DUP1 PUSH1 0x80 ADD PUSH1 0x40 MSTORE DUP1 PUSH0 DUP2 MSTORE PUSH1 0x20 ADD PUSH1 0x60 DUP2 MSTORE PUSH1 0x20 ADD PUSH0 DUP2 MSTORE PUSH1 0x20 ADD PUSH0 DUP2 MSTORE POP SWAP1 JUMP JUMPDEST JUMPDEST DUP1 DUP3 GT ISZERO PUSH2 0x11AA JUMPI PUSH0 DUP2 PUSH0 SWAP1 SSTORE POP PUSH1 0x1 ADD PUSH2 0x1194 JUMP JUMPDEST POP SWAP1 JUMP JUMPDEST PUSH0 PUSH1 0x40 MLOAD SWAP1 POP SWAP1 JUMP JUMPDEST PUSH0 DUP1 REVERT JUMPDEST PUSH0 DUP1 REVERT JUMPDEST PUSH0 PUSH20 0xFFFFFFFFFFFFFFFFFFFFFFFFFFFFFFFFFFFFFFFF DUP3 AND SWAP1 POP SWAP2 SWAP1 POP JUMP JUMPDEST PUSH0 PUSH2 0x11E8 DUP3 PUSH2 0x11BF JUMP JUMPDEST SWAP1 POP SWAP2 SWAP1 POP JUMP JUMPDEST PUSH2 0x11F8 DUP2 PUSH2 0x11DE JUMP JUMPDEST DUP2 EQ PUSH2 0x1202 JUMPI PUSH0 DUP1 REVERT JUMPDEST POP JUMP JUMPDEST PUSH0 DUP2 CALLDATALOAD SWAP1 POP PUSH2 0x1213 DUP2 PUSH2 0x11EF JUMP JUMPDEST SWAP3 SWAP2 POP POP JUMP JUMPDEST PUSH0 DUP2 SWAP1 POP SWAP2 SWAP1 POP JUMP JUMPDEST PUSH2 0x122B DUP2 PUSH2 0x1219 JUMP JUMPDEST DUP2 EQ PUSH2 0x1235 JUMPI PUSH0 DUP1 REVERT JUMPDEST POP JUMP JUMPDEST PUSH0 DUP2 CALLDATALOAD SWAP1 POP PUSH2 0x1246 DUP2 PUSH2 0x1222 JUMP JUMPDEST SWAP3 SWAP2 POP POP JUMP JUMPDEST PUSH0 DUP1 PUSH1 0x40 DUP4 DUP6 SUB SLT ISZERO PUSH2 0x1262 JUMPI PUSH2 0x1261 PUSH2 0x11B7 JUMP JUMPDEST JUMPDEST PUSH0 PUSH2 0x126F DUP6 DUP3 DUP7 ADD PUSH2 0x1205 JUMP JUMPDEST SWAP3 POP POP PUSH1 0x20 PUSH2 0x1280 DUP6 DUP3 DUP7 ADD PUSH2 0x1238 JUMP JUMPDEST SWAP2 POP POP SWAP3 POP SWAP3 SWAP1 POP JUMP JUMPDEST PUSH0 DUP2 ISZERO ISZERO SWAP1 POP SWAP2 SWAP1 POP JUMP JUMPDEST PUSH2 0x129E DUP2 PUSH2 0x128A JUMP JUMPDEST DUP3 MSTORE POP POP JUMP JUMPDEST PUSH0 PUSH1 0x20 DUP3 ADD SWAP1 POP PUSH2 0x12B7 PUSH0 DUP4 ADD DUP5 PUSH2 0x1295 JUMP JUMPDEST SWAP3 SWAP2 POP POP JUMP JUMPDEST PUSH2 0x12C6 DUP2 PUSH2 0x1219 JUMP JUMPDEST DUP3 MSTORE POP POP JUMP JUMPDEST PUSH0 PUSH1 0x20 DUP3 ADD SWAP1 POP PUSH2 0x12DF PUSH0 DUP4 ADD DUP5 PUSH2 0x12BD JUMP JUMPDEST SWAP3 SWAP2 POP POP JUMP JUMPDEST PUSH0 DUP1 REVERT JUMPDEST PUSH0 DUP1 REVERT JUMPDEST PUSH0 PUSH1 0x1F NOT PUSH1 0x1F DUP4 ADD AND SWAP1 POP SWAP2 SWAP1 POP JUMP JUMPDEST PUSH32 0x4E487B7100000000000000000000000000000000000000000000000000000000 PUSH0 MSTORE PUSH1 0x41 PUSH1 0x4 MSTORE PUSH1 0x24 PUSH0 REVERT JUMPDEST PUSH2 0x1333 DUP3 PUSH2 0x12ED JUMP JUMPDEST DUP2 ADD DUP2 DUP2 LT PUSH8 0xFFFFFFFFFFFFFFFF DUP3 GT OR ISZERO PUSH2 0x1352 JUMPI PUSH2 0x1351 PUSH2 0x12FD JUMP JUMPDEST JUMPDEST DUP1 PUSH1 0x40 MSTORE POP POP POP JUMP JUMPDEST PUSH0 PUSH2 0x1364 PUSH2 0x11AE JUMP JUMPDEST SWAP1 POP PUSH2 0x1370 DUP3 DUP3 PUSH2 0x132A JUMP JUMPDEST SWAP2 SWAP1 POP JUMP JUMPDEST PUSH0 PUSH8 0xFFFFFFFFFFFFFFFF DUP3 GT ISZERO PUSH2 0x138F JUMPI PUSH2 0x138E PUSH2 0x12FD JUMP JUMPDEST JUMPDEST PUSH2 0x1398 DUP3 PUSH2 0x12ED JUMP JUMPDEST SWAP1 POP PUSH1 0x20 DUP2 ADD SWAP1 POP SWAP2 SWAP1 POP JUMP JUMPDEST DUP3 DUP2 DUP4 CALLDATACOPY PUSH0 DUP4 DUP4 ADD MSTORE POP POP POP JUMP JUMPDEST PUSH0 PUSH2 0x13C5 PUSH2 0x13C0 DUP5 PUSH2 0x1375 JUMP JUMPDEST PUSH2 0x135B JUMP JUMPDEST SWAP1 POP DUP3 DUP2 MSTORE PUSH1 0x20 DUP2 ADD DUP5 DUP5 DUP5 ADD GT ISZERO PUSH2 0x13E1 JUMPI PUSH2 0x13E0 PUSH2 0x12E9 JUMP JUMPDEST JUMPDEST PUSH2 0x13EC DUP5 DUP3 DUP6 PUSH2 0x13A5 JUMP JUMPDEST POP SWAP4 SWAP3 POP POP POP JUMP JUMPDEST PUSH0 DUP3 PUSH1 0x1F DUP4 ADD SLT PUSH2 0x1408 JUMPI PUSH2 0x1407 PUSH2 0x12E5 JUMP JUMPDEST JUMPDEST DUP2 CALLDATALOAD PUSH2 0x1418 DUP5 DUP3 PUSH1 0x20 DUP7 ADD PUSH2 0x13B3 JUMP JUMPDEST SWAP2 POP POP SWAP3 SWAP2 POP POP JUMP JUMPDEST PUSH0 DUP1 PUSH0 DUP1 PUSH1 0x80 DUP6 DUP8 SUB SLT ISZERO PUSH2 0x1439 JUMPI PUSH2 0x1438 PUSH2 0x11B7 JUMP JUMPDEST JUMPDEST PUSH0 PUSH2 0x1446 DUP8 DUP3 DUP9 ADD PUSH2 0x1205 JUMP JUMPDEST SWAP5 POP POP PUSH1 0x20 DUP6 ADD CALLDATALOAD PUSH8 0xFFFFFFFFFFFFFFFF DUP2 GT ISZERO PUSH2 0x1467 JUMPI PUSH2 0x1466 PUSH2 0x11BB JUMP JUMPDEST JUMPDEST PUSH2 0x1473 DUP8 DUP3 DUP9 ADD PUSH2 0x13F4 JUMP JUMPDEST SWAP4 POP POP PUSH1 0x40 PUSH2 0x1484 DUP8 DUP3 DUP9 ADD PUSH2 0x1238 JUMP JUMPDEST SWAP3 POP POP PUSH1 0x60 PUSH2 0x1495 DUP8 DUP3 DUP9 ADD PUSH2 0x1238 JUMP JUMPDEST SWAP2 POP POP SWAP3 SWAP6 SWAP2 SWAP5 POP SWAP3 POP JUMP JUMPDEST PUSH0 DUP2 MLOAD SWAP1 POP SWAP2 SWAP1 POP JUMP JUMPDEST PUSH0 DUP3 DUP3 MSTORE PUSH1 0x20 DUP3 ADD SWAP1 POP SWAP3 SWAP2 POP POP JUMP JUMPDEST PUSH0 JUMPDEST DUP4 DUP2 LT ISZERO PUSH2 0x14D8 JUMPI DUP1 DUP3 ADD MLOAD DUP2 DUP5 ADD MSTORE PUSH1 0x20 DUP2 ADD SWAP1 POP PUSH2 0x14BD JUMP JUMPDEST PUSH0 DUP5 DUP5 ADD MSTORE POP POP POP POP JUMP JUMPDEST PUSH0 PUSH2 0x14ED DUP3 PUSH2 0x14A1 JUMP JUMPDEST PUSH2 0x14F7 DUP2 DUP6 PUSH2 0x14AB JUMP JUMPDEST SWAP4 POP PUSH2 0x1507 DUP2 DUP6 PUSH1 0x20 DUP7 ADD PUSH2 0x14BB JUMP JUMPDEST PUSH2 0x1510 DUP2 PUSH2 0x12ED JUMP JUMPDEST DUP5 ADD SWAP2 POP POP SWAP3 SWAP2 POP POP JUMP JUMPDEST PUSH0 PUSH1 0x80 DUP3 ADD SWAP1 POP PUSH2 0x152E PUSH0 DUP4 ADD DUP8 PUSH2 0x12BD JUMP JUMPDEST DUP2 DUP2 SUB PUSH1 0x20 DUP4 ADD MSTORE PUSH2 0x1540 DUP2 DUP7 PUSH2 0x14E3 JUMP JUMPDEST SWAP1 POP PUSH2 0x154F PUSH1 0x40 DUP4 ADD DUP6 PUSH2 0x12BD JUMP JUMPDEST PUSH2 0x155C PUSH1 0x60 DUP4 ADD DUP5 PUSH2 0x12BD JUMP JUMPDEST SWAP6 SWAP5 POP POP POP POP POP JUMP JUMPDEST PUSH0 DUP1 PUSH0 PUSH1 0x60 DUP5 DUP7 SUB SLT ISZERO PUSH2 0x157C JUMPI PUSH2 0x157B PUSH2 0x11B7 JUMP JUMPDEST JUMPDEST PUSH0 PUSH2 0x1589 DUP7 DUP3 DUP8 ADD PUSH2 0x1205 JUMP JUMPDEST SWAP4 POP POP PUSH1 0x20 PUSH2 0x159A DUP7 DUP3 DUP8 ADD PUSH2 0x1238 JUMP JUMPDEST SWAP3 POP POP PUSH1 0x40 PUSH2 0x15AB DUP7 DUP3 DUP8 ADD PUSH2 0x1238 JUMP JUMPDEST SWAP2 POP POP SWAP3 POP SWAP3 POP SWAP3 JUMP JUMPDEST PUSH0 PUSH1 0x20 DUP3 ADD SWAP1 POP DUP2 DUP2 SUB PUSH0 DUP4 ADD MSTORE PUSH2 0x15CD DUP2 DUP5 PUSH2 0x14E3 JUMP JUMPDEST SWAP1 POP SWAP3 SWAP2 POP POP JUMP JUMPDEST PUSH0 PUSH1 0x20 DUP3 DUP5 SUB SLT ISZERO PUSH2 0x15EA JUMPI PUSH2 0x15E9 PUSH2 0x11B7 JUMP JUMPDEST JUMPDEST PUSH0 PUSH2 0x15F7 DUP5 DUP3 DUP6 ADD PUSH2 0x1205 JUMP JUMPDEST SWAP2 POP POP SWAP3 SWAP2 POP POP JUMP JUMPDEST PUSH0 DUP2 MLOAD SWAP1 POP SWAP2 SWAP1 POP JUMP JUMPDEST PUSH0 DUP3 DUP3 MSTORE PUSH1 0x20 DUP3 ADD SWAP1 POP SWAP3 SWAP2 POP POP JUMP JUMPDEST PUSH0 DUP2 SWAP1 POP PUSH1 0x20 DUP3 ADD SWAP1 POP SWAP2 SWAP1 POP JUMP JUMPDEST PUSH2 0x1632 DUP2 PUSH2 0x1219 JUMP JUMPDEST DUP3 MSTORE POP POP JUMP JUMPDEST PUSH0 DUP3 DUP3 MSTORE PUSH1 0x20 DUP3 ADD SWAP1 POP SWAP3 SWAP2 POP POP JUMP JUMPDEST PUSH0 PUSH2 0x1652 DUP3 PUSH2 0x14A1 JUMP JUMPDEST PUSH2 0x165C DUP2 DUP6 PUSH2 0x1638 JUMP JUMPDEST SWAP4 POP PUSH2 0x166C DUP2 DUP6 PUSH1 0x20 DUP7 ADD PUSH2 0x14BB JUMP JUMPDEST PUSH2 0x1675 DUP2 PUSH2 0x12ED JUMP JUMPDEST DUP5 ADD SWAP2 POP POP SWAP3 SWAP2 POP POP JUMP JUMPDEST PUSH0 PUSH1 0x80 DUP4 ADD PUSH0 DUP4 ADD MLOAD PUSH2 0x1695 PUSH0 DUP7 ADD DUP3 PUSH2 0x1629 JUMP JUMPDEST POP PUSH1 0x20 DUP4 ADD MLOAD DUP5 DUP3 SUB PUSH1 0x20 DUP7 ADD MSTORE PUSH2 0x16AD DUP3 DUP3 PUSH2 0x1648 JUMP JUMPDEST SWAP2 POP POP PUSH1 0x40 DUP4 ADD MLOAD PUSH2 0x16C2 PUSH1 0x40 DUP7 ADD DUP3 PUSH2 0x1629 JUMP JUMPDEST POP PUSH1 0x60 DUP4 ADD MLOAD PUSH2 0x16D5 PUSH1 0x60 DUP7 ADD DUP3 PUSH2 0x1629 JUMP JUMPDEST POP DUP1 SWAP2 POP POP SWAP3 SWAP2 POP POP JUMP JUMPDEST PUSH0 PUSH2 0x16EB DUP4 DUP4 PUSH2 0x1680 JUMP JUMPDEST SWAP1 POP SWAP3 SWAP2 POP POP JUMP JUMPDEST PUSH0 PUSH1 0x20 DUP3 ADD SWAP1 POP SWAP2 SWAP1 POP JUMP JUMPDEST PUSH0 PUSH2 0x1709 DUP3 PUSH2 0x1600 JUMP JUMPDEST PUSH2 0x1713 DUP2 DUP6 PUSH2 0x160A JUMP JUMPDEST SWAP4 POP DUP4 PUSH1 0x20 DUP3 MUL DUP6 ADD PUSH2 0x1725 DUP6 PUSH2 0x161A JUMP JUMPDEST DUP1 PUSH0 JUMPDEST DUP6 DUP2 LT ISZERO PUSH2 0x1760 JUMPI DUP5 DUP5 SUB DUP10 MSTORE DUP2 MLOAD PUSH2 0x1741 DUP6 DUP3 PUSH2 0x16E0 JUMP JUMPDEST SWAP5 POP PUSH2 0x174C DUP4 PUSH2 0x16F3 JUMP JUMPDEST SWAP3 POP PUSH1 0x20 DUP11 ADD SWAP10 POP POP PUSH1 0x1 DUP2 ADD SWAP1 POP PUSH2 0x1728 JUMP JUMPDEST POP DUP3 SWAP8 POP DUP8 SWAP6 POP POP POP POP POP POP SWAP3 SWAP2 POP POP JUMP JUMPDEST PUSH0 PUSH1 0x20 DUP3 ADD SWAP1 POP DUP2 DUP2 SUB PUSH0 DUP4 ADD MSTORE PUSH2 0x178A DUP2 DUP5 PUSH2 0x16FF JUMP JUMPDEST SWAP1 POP SWAP3 SWAP2 POP POP JUMP JUMPDEST PUSH0 PUSH8 0xFFFFFFFFFFFFFFFF DUP3 GT ISZERO PUSH2 0x17AC JUMPI PUSH2 0x17AB PUSH2 0x12FD JUMP JUMPDEST JUMPDEST PUSH1 0x20 DUP3 MUL SWAP1 POP PUSH1 0x20 DUP2 ADD SWAP1 POP SWAP2 SWAP1 POP JUMP JUMPDEST PUSH0 DUP1 REVERT JUMPDEST PUSH0 PUSH2 0x17D3 PUSH2 0x17CE DUP5 PUSH2 0x1792 JUMP JUMPDEST PUSH2 0x135B JUMP JUMPDEST SWAP1 POP DUP1 DUP4 DUP3 MSTORE PUSH1 0x20 DUP3 ADD SWAP1 POP PUSH1 0x20 DUP5 MUL DUP4 ADD DUP6 DUP2 GT ISZERO PUSH2 0x17F6 JUMPI PUSH2 0x17F5 PUSH2 0x17BD JUMP JUMPDEST JUMPDEST DUP4 JUMPDEST DUP2 DUP2 LT ISZERO PUSH2 0x181F JUMPI DUP1 PUSH2 0x180B DUP9 DUP3 PUSH2 0x1205 JUMP JUMPDEST DUP5 MSTORE PUSH1 0x20 DUP5 ADD SWAP4 POP POP PUSH1 0x20 DUP2 ADD SWAP1 POP PUSH2 0x17F8 JUMP JUMPDEST POP POP POP SWAP4 SWAP3 POP POP POP JUMP JUMPDEST PUSH0 DUP3 PUSH1 0x1F DUP4 ADD SLT PUSH2 0x183D JUMPI PUSH2 0x183C PUSH2 0x12E5 JUMP JUMPDEST JUMPDEST DUP2 CALLDATALOAD PUSH2 0x184D DUP5 DUP3 PUSH1 0x20 DUP7 ADD PUSH2 0x17C1 JUMP JUMPDEST SWAP2 POP POP SWAP3 SWAP2 POP POP JUMP JUMPDEST PUSH0 PUSH1 0x20 DUP3 DUP5 SUB SLT ISZERO PUSH2 0x186B JUMPI PUSH2 0x186A PUSH2 0x11B7 JUMP JUMPDEST JUMPDEST PUSH0 DUP3 ADD CALLDATALOAD PUSH8 0xFFFFFFFFFFFFFFFF DUP2 GT ISZERO PUSH2 0x1888 JUMPI PUSH2 0x1887 PUSH2 0x11BB JUMP JUMPDEST JUMPDEST PUSH2 0x1894 DUP5 DUP3 DUP6 ADD PUSH2 0x1829 JUMP JUMPDEST SWAP2 POP POP SWAP3 SWAP2 POP POP JUMP JUMPDEST PUSH32 0x4944204D696C6B4261746368204E6F742056616C696421000000000000000000 PUSH0 DUP3 ADD MSTORE POP JUMP JUMPDEST PUSH0 PUSH2 0x18D1 PUSH1 0x17 DUP4 PUSH2 0x14AB JUMP JUMPDEST SWAP2 POP PUSH2 0x18DC DUP3 PUSH2 0x189D JUMP JUMPDEST PUSH1 0x20 DUP3 ADD SWAP1 POP SWAP2 SWAP1 POP JUMP JUMPDEST PUSH0 PUSH1 0x20 DUP3 ADD SWAP1 POP DUP2 DUP2 SUB PUSH0 DUP4 ADD MSTORE PUSH2 0x18FE DUP2 PUSH2 0x18C5 JUMP JUMPDEST SWAP1 POP SWAP2 SWAP1 POP JUMP JUMPDEST PUSH32 0x4E487B7100000000000000000000000000000000000000000000000000000000 PUSH0 MSTORE PUSH1 0x22 PUSH1 0x4 MSTORE PUSH1 0x24 PUSH0 REVERT JUMPDEST PUSH0 PUSH1 0x2 DUP3 DIV SWAP1 POP PUSH1 0x1 DUP3 AND DUP1 PUSH2 0x1949 JUMPI PUSH1 0x7F DUP3 AND SWAP2 POP JUMPDEST PUSH1 0x20 DUP3 LT DUP2 SUB PUSH2 0x195C JUMPI PUSH2 0x195B PUSH2 0x1905 JUMP JUMPDEST JUMPDEST POP SWAP2 SWAP1 POP JUMP JUMPDEST PUSH0 DUP2 SWAP1 POP SWAP3 SWAP2 POP POP JUMP JUMPDEST PUSH0 PUSH2 0x1976 DUP3 PUSH2 0x14A1 JUMP JUMPDEST PUSH2 0x1980 DUP2 DUP6 PUSH2 0x1962 JUMP JUMPDEST SWAP4 POP PUSH2 0x1990 DUP2 DUP6 PUSH1 0x20 DUP7 ADD PUSH2 0x14BB JUMP JUMPDEST DUP1 DUP5 ADD SWAP2 POP POP SWAP3 SWAP2 POP POP JUMP JUMPDEST PUSH0 DUP2 SWAP1 POP SWAP2 SWAP1 POP JUMP JUMPDEST PUSH2 0x19B6 PUSH2 0x19B1 DUP3 PUSH2 0x1219 JUMP JUMPDEST PUSH2 0x199C JUMP JUMPDEST DUP3 MSTORE POP POP JUMP JUMPDEST PUSH0 DUP2 PUSH1 0x60 SHL SWAP1 POP SWAP2 SWAP1 POP JUMP JUMPDEST PUSH0 PUSH2 0x19D2 DUP3 PUSH2 0x19BC JUMP JUMPDEST SWAP1 POP SWAP2 SWAP1 POP JUMP JUMPDEST PUSH0 PUSH2 0x19E3 DUP3 PUSH2 0x19C8 JUMP JUMPDEST SWAP1 POP SWAP2 SWAP1 POP JUMP JUMPDEST PUSH2 0x19FB PUSH2 0x19F6 DUP3 PUSH2 0x11DE JUMP JUMPDEST PUSH2 0x19D9 JUMP JUMPDEST DUP3 MSTORE POP POP JUMP JUMPDEST PUSH0 PUSH2 0x1A0C DUP3 DUP9 PUSH2 0x196C JUMP JUMPDEST SWAP2 POP PUSH2 0x1A18 DUP3 DUP8 PUSH2 0x19A5 JUMP JUMPDEST PUSH1 0x20 DUP3 ADD SWAP2 POP PUSH2 0x1A28 DUP3 DUP7 PUSH2 0x19A5 JUMP JUMPDEST PUSH1 0x20 DUP3 ADD SWAP2 POP PUSH2 0x1A38 DUP3 DUP6 PUSH2 0x19EA JUMP JUMPDEST PUSH1 0x14 DUP3 ADD SWAP2 POP PUSH2 0x1A48 DUP3 DUP5 PUSH2 0x19A5 JUMP JUMPDEST PUSH1 0x20 DUP3 ADD SWAP2 POP DUP2 SWAP1 POP SWAP7 SWAP6 POP POP POP POP POP POP JUMP JUMPDEST PUSH0 DUP2 SWAP1 POP DUP2 PUSH0 MSTORE PUSH1 0x20 PUSH0 KECCAK256 SWAP1 POP SWAP2 SWAP1 POP JUMP JUMPDEST PUSH0 PUSH1 0x20 PUSH1 0x1F DUP4 ADD DIV SWAP1 POP SWAP2 SWAP1 POP JUMP JUMPDEST PUSH0 DUP3 DUP3 SHL SWAP1 POP SWAP3 SWAP2 POP POP JUMP JUMPDEST PUSH0 PUSH1 0x8 DUP4 MUL PUSH2 0x1AB7 PUSH32 0xFFFFFFFFFFFFFFFFFFFFFFFFFFFFFFFFFFFFFFFFFFFFFFFFFFFFFFFFFFFFFFFF DUP3 PUSH2 0x1A7C JUMP JUMPDEST PUSH2 0x1AC1 DUP7 DUP4 PUSH2 0x1A7C JUMP JUMPDEST SWAP6 POP DUP1 NOT DUP5 AND SWAP4 POP DUP1 DUP7 AND DUP5 OR SWAP3 POP POP POP SWAP4 SWAP3 POP POP POP JUMP JUMPDEST PUSH0 DUP2 SWAP1 POP SWAP2 SWAP1 POP JUMP JUMPDEST PUSH0 PUSH2 0x1AFC PUSH2 0x1AF7 PUSH2 0x1AF2 DUP5 PUSH2 0x1219 JUMP JUMPDEST PUSH2 0x1AD9 JUMP JUMPDEST PUSH2 0x1219 JUMP JUMPDEST SWAP1 POP SWAP2 SWAP1 POP JUMP JUMPDEST PUSH0 DUP2 SWAP1 POP SWAP2 SWAP1 POP JUMP JUMPDEST PUSH2 0x1B15 DUP4 PUSH2 0x1AE2 JUMP JUMPDEST PUSH2 0x1B29 PUSH2 0x1B21 DUP3 PUSH2 0x1B03 JUMP JUMPDEST DUP5 DUP5 SLOAD PUSH2 0x1A88 JUMP JUMPDEST DUP3 SSTORE POP POP POP POP JUMP JUMPDEST PUSH0 SWAP1 JUMP JUMPDEST PUSH2 0x1B3D PUSH2 0x1B31 JUMP JUMPDEST PUSH2 0x1B48 DUP2 DUP5 DUP5 PUSH2 0x1B0C JUMP JUMPDEST POP POP POP JUMP JUMPDEST JUMPDEST DUP2 DUP2 LT ISZERO PUSH2 0x1B6B JUMPI PUSH2 0x1B60 PUSH0 DUP3 PUSH2 0x1B35 JUMP JUMPDEST PUSH1 0x1 DUP2 ADD SWAP1 POP PUSH2 0x1B4E JUMP JUMPDEST POP POP JUMP JUMPDEST PUSH1 0x1F DUP3 GT ISZERO PUSH2 0x1BB0 JUMPI PUSH2 0x1B81 DUP2 PUSH2 0x1A5B JUMP JUMPDEST PUSH2 0x1B8A DUP5 PUSH2 0x1A6D JUMP JUMPDEST DUP2 ADD PUSH1 0x20 DUP6 LT ISZERO PUSH2 0x1B99 JUMPI DUP2 SWAP1 POP JUMPDEST PUSH2 0x1BAD PUSH2 0x1BA5 DUP6 PUSH2 0x1A6D JUMP JUMPDEST DUP4 ADD DUP3 PUSH2 0x1B4D JUMP JUMPDEST POP POP JUMPDEST POP POP POP JUMP JUMPDEST PUSH0 DUP3 DUP3 SHR SWAP1 POP SWAP3 SWAP2 POP POP JUMP JUMPDEST PUSH0 PUSH2 0x1BD0 PUSH0 NOT DUP5 PUSH1 0x8 MUL PUSH2 0x1BB5 JUMP JUMPDEST NOT DUP1 DUP4 AND SWAP2 POP POP SWAP3 SWAP2 POP POP JUMP JUMPDEST PUSH0 PUSH2 0x1BE8 DUP4 DUP4 PUSH2 0x1BC1 JUMP JUMPDEST SWAP2 POP DUP3 PUSH1 0x2 MUL DUP3 OR SWAP1 POP SWAP3 SWAP2 POP POP JUMP JUMPDEST PUSH2 0x1C01 DUP3 PUSH2 0x14A1 JUMP JUMPDEST PUSH8 0xFFFFFFFFFFFFFFFF DUP2 GT ISZERO PUSH2 0x1C1A JUMPI PUSH2 0x1C19 PUSH2 0x12FD JUMP JUMPDEST JUMPDEST PUSH2 0x1C24 DUP3 SLOAD PUSH2 0x1932 JUMP JUMPDEST PUSH2 0x1C2F DUP3 DUP3 DUP6 PUSH2 0x1B6F JUMP JUMPDEST PUSH0 PUSH1 0x20 SWAP1 POP PUSH1 0x1F DUP4 GT PUSH1 0x1 DUP2 EQ PUSH2 0x1C60 JUMPI PUSH0 DUP5 ISZERO PUSH2 0x1C4E JUMPI DUP3 DUP8 ADD MLOAD SWAP1 POP JUMPDEST PUSH2 0x1C58 DUP6 DUP3 PUSH2 0x1BDD JUMP JUMPDEST DUP7 SSTORE POP PUSH2 0x1CBF JUMP JUMPDEST PUSH1 0x1F NOT DUP5 AND PUSH2 0x1C6E DUP7 PUSH2 0x1A5B JUMP JUMPDEST PUSH0 JUMPDEST DUP3 DUP2 LT ISZERO PUSH2 0x1C95 JUMPI DUP5 DUP10 ADD MLOAD DUP3 SSTORE PUSH1 0x1 DUP3 ADD SWAP2 POP PUSH1 0x20 DUP6 ADD SWAP5 POP PUSH1 0x20 DUP2 ADD SWAP1 POP PUSH2 0x1C70 JUMP JUMPDEST DUP7 DUP4 LT ISZERO PUSH2 0x1CB2 JUMPI DUP5 DUP10 ADD MLOAD PUSH2 0x1CAE PUSH1 0x1F DUP10 AND DUP3 PUSH2 0x1BC1 JUMP JUMPDEST DUP4 SSTORE POP JUMPDEST PUSH1 0x1 PUSH1 0x2 DUP9 MUL ADD DUP9 SSTORE POP POP POP JUMPDEST POP POP POP POP POP POP JUMP JUMPDEST PUSH32 0x50726F64756374206E6F6E2070726573656E7465210000000000000000000000 PUSH0 DUP3 ADD MSTORE POP JUMP JUMPDEST PUSH0 PUSH2 0x1CFB PUSH1 0x15 DUP4 PUSH2 0x14AB JUMP JUMPDEST SWAP2 POP PUSH2 0x1D06 DUP3 PUSH2 0x1CC7 JUMP JUMPDEST PUSH1 0x20 DUP3 ADD SWAP1 POP SWAP2 SWAP1 POP JUMP JUMPDEST PUSH0 PUSH1 0x20 DUP3 ADD SWAP1 POP DUP2 DUP2 SUB PUSH0 DUP4 ADD MSTORE PUSH2 0x1D28 DUP2 PUSH2 0x1CEF JUMP JUMPDEST SWAP1 POP SWAP2 SWAP1 POP JUMP JUMPDEST PUSH32 0x5175616E74697479206E6F742056616C69642100000000000000000000000000 PUSH0 DUP3 ADD MSTORE POP JUMP JUMPDEST PUSH0 PUSH2 0x1D63 PUSH1 0x13 DUP4 PUSH2 0x14AB JUMP JUMPDEST SWAP2 POP PUSH2 0x1D6E DUP3 PUSH2 0x1D2F JUMP JUMPDEST PUSH1 0x20 DUP3 ADD SWAP1 POP SWAP2 SWAP1 POP JUMP JUMPDEST PUSH0 PUSH1 0x20 DUP3 ADD SWAP1 POP DUP2 DUP2 SUB PUSH0 DUP4 ADD MSTORE PUSH2 0x1D90 DUP2 PUSH2 0x1D57 JUMP JUMPDEST SWAP1 POP SWAP2 SWAP1 POP JUMP JUMPDEST PUSH32 0x4E487B7100000000000000000000000000000000000000000000000000000000 PUSH0 MSTORE PUSH1 0x32 PUSH1 0x4 MSTORE PUSH1 0x24 PUSH0 REVERT JUMPDEST PUSH2 0x1DCD DUP2 PUSH2 0x11DE JUMP JUMPDEST DUP3 MSTORE POP POP JUMP JUMPDEST PUSH0 PUSH1 0x20 DUP3 ADD SWAP1 POP PUSH2 0x1DE6 PUSH0 DUP4 ADD DUP5 PUSH2 0x1DC4 JUMP JUMPDEST SWAP3 SWAP2 POP POP JUMP JUMPDEST PUSH0 PUSH8 0xFFFFFFFFFFFFFFFF DUP3 GT ISZERO PUSH2 0x1E06 JUMPI PUSH2 0x1E05 PUSH2 0x12FD JUMP JUMPDEST JUMPDEST PUSH1 0x20 DUP3 MUL SWAP1 POP PUSH1 0x20 DUP2 ADD SWAP1 POP SWAP2 SWAP1 POP JUMP JUMPDEST PUSH0 DUP1 REVERT JUMPDEST PUSH0 DUP1 REVERT JUMPDEST PUSH0 DUP2 MLOAD SWAP1 POP PUSH2 0x1E2D DUP2 PUSH2 0x1222 JUMP JUMPDEST SWAP3 SWAP2 POP POP JUMP JUMPDEST PUSH0 PUSH2 0x1E45 PUSH2 0x1E40 DUP5 PUSH2 0x1375 JUMP JUMPDEST PUSH2 0x135B JUMP JUMPDEST SWAP1 POP DUP3 DUP2 MSTORE PUSH1 0x20 DUP2 ADD DUP5 DUP5 DUP5 ADD GT ISZERO PUSH2 0x1E61 JUMPI PUSH2 0x1E60 PUSH2 0x12E9 JUMP JUMPDEST JUMPDEST PUSH2 0x1E6C DUP5 DUP3 DUP6 PUSH2 0x14BB JUMP JUMPDEST POP SWAP4 SWAP3 POP POP POP JUMP JUMPDEST PUSH0 DUP3 PUSH1 0x1F DUP4 ADD SLT PUSH2 0x1E88 JUMPI PUSH2 0x1E87 PUSH2 0x12E5 JUMP JUMPDEST JUMPDEST DUP2 MLOAD PUSH2 0x1E98 DUP5 DUP3 PUSH1 0x20 DUP7 ADD PUSH2 0x1E33 JUMP JUMPDEST SWAP2 POP POP SWAP3 SWAP2 POP POP JUMP JUMPDEST PUSH0 PUSH1 0x80 DUP3 DUP5 SUB SLT ISZERO PUSH2 0x1EB6 JUMPI PUSH2 0x1EB5 PUSH2 0x1E17 JUMP JUMPDEST JUMPDEST PUSH2 0x1EC0 PUSH1 0x80 PUSH2 0x135B JUMP JUMPDEST SWAP1 POP PUSH0 PUSH2 0x1ECF DUP5 DUP3 DUP6 ADD PUSH2 0x1E1F JUMP JUMPDEST PUSH0 DUP4 ADD MSTORE POP PUSH1 0x20 DUP3 ADD MLOAD PUSH8 0xFFFFFFFFFFFFFFFF DUP2 GT ISZERO PUSH2 0x1EF2 JUMPI PUSH2 0x1EF1 PUSH2 0x1E1B JUMP JUMPDEST JUMPDEST PUSH2 0x1EFE DUP5 DUP3 DUP6 ADD PUSH2 0x1E74 JUMP JUMPDEST PUSH1 0x20 DUP4 ADD MSTORE POP PUSH1 0x40 PUSH2 0x1F12 DUP5 DUP3 DUP6 ADD PUSH2 0x1E1F JUMP JUMPDEST PUSH1 0x40 DUP4 ADD MSTORE POP PUSH1 0x60 PUSH2 0x1F26 DUP5 DUP3 DUP6 ADD PUSH2 0x1E1F JUMP JUMPDEST PUSH1 0x60 DUP4 ADD MSTORE POP SWAP3 SWAP2 POP POP JUMP JUMPDEST PUSH0 PUSH2 0x1F44 PUSH2 0x1F3F DUP5 PUSH2 0x1DEC JUMP JUMPDEST PUSH2 0x135B JUMP JUMPDEST SWAP1 POP DUP1 DUP4 DUP3 MSTORE PUSH1 0x20 DUP3 ADD SWAP1 POP PUSH1 0x20 DUP5 MUL DUP4 ADD DUP6 DUP2 GT ISZERO PUSH2 0x1F67 JUMPI PUSH2 0x1F66 PUSH2 0x17BD JUMP JUMPDEST JUMPDEST DUP4 JUMPDEST DUP2 DUP2 LT ISZERO PUSH2 0x1FAE JUMPI DUP1 MLOAD PUSH8 0xFFFFFFFFFFFFFFFF DUP2 GT ISZERO PUSH2 0x1F8C JUMPI PUSH2 0x1F8B PUSH2 0x12E5 JUMP JUMPDEST JUMPDEST DUP1 DUP7 ADD PUSH2 0x1F99 DUP10 DUP3 PUSH2 0x1EA1 JUMP JUMPDEST DUP6 MSTORE PUSH1 0x20 DUP6 ADD SWAP5 POP POP POP PUSH1 0x20 DUP2 ADD SWAP1 POP PUSH2 0x1F69 JUMP JUMPDEST POP POP POP SWAP4 SWAP3 POP POP POP JUMP JUMPDEST PUSH0 DUP3 PUSH1 0x1F DUP4 ADD SLT PUSH2 0x1FCC JUMPI PUSH2 0x1FCB PUSH2 0x12E5 JUMP JUMPDEST JUMPDEST DUP2 MLOAD PUSH2 0x1FDC DUP5 DUP3 PUSH1 0x20 DUP7 ADD PUSH2 0x1F32 JUMP JUMPDEST SWAP2 POP POP SWAP3 SWAP2 POP POP JUMP JUMPDEST PUSH0 PUSH1 0x20 DUP3 DUP5 SUB SLT ISZERO PUSH2 0x1FFA JUMPI PUSH2 0x1FF9 PUSH2 0x11B7 JUMP JUMPDEST JUMPDEST PUSH0 DUP3 ADD MLOAD PUSH8 0xFFFFFFFFFFFFFFFF DUP2 GT ISZERO PUSH2 0x2017 JUMPI PUSH2 0x2016 PUSH2 0x11BB JUMP JUMPDEST JUMPDEST PUSH2 0x2023 DUP5 DUP3 DUP6 ADD PUSH2 0x1FB8 JUMP JUMPDEST SWAP2 POP POP SWAP3 SWAP2 POP POP JUMP JUMPDEST PUSH32 0x4E487B7100000000000000000000000000000000000000000000000000000000 PUSH0 MSTORE PUSH1 0x11 PUSH1 0x4 MSTORE PUSH1 0x24 PUSH0 REVERT JUMPDEST PUSH0 PUSH2 0x2063 DUP3 PUSH2 0x1219 JUMP JUMPDEST SWAP2 POP PUSH2 0x206E DUP4 PUSH2 0x1219 JUMP JUMPDEST SWAP3 POP DUP3 DUP3 ADD SWAP1 POP DUP1 DUP3 GT ISZERO PUSH2 0x2086 JUMPI PUSH2 0x2085 PUSH2 0x202C JUMP JUMPDEST JUMPDEST SWAP3 SWAP2 POP POP JUMP JUMPDEST PUSH0 PUSH2 0x2096 DUP3 PUSH2 0x1219 JUMP JUMPDEST SWAP2 POP PUSH32 0xFFFFFFFFFFFFFFFFFFFFFFFFFFFFFFFFFFFFFFFFFFFFFFFFFFFFFFFFFFFFFFFF DUP3 SUB PUSH2 0x20C8 JUMPI PUSH2 0x20C7 PUSH2 0x202C JUMP JUMPDEST JUMPDEST PUSH1 0x1 DUP3 ADD SWAP1 POP SWAP2 SWAP1 POP JUMP INVALID LOG2 PUSH5 0x6970667358 0x22 SLT KECCAK256 TIMESTAMP PUSH29 0xFD6C0A214B1E1D766664BF3DFC6DAEC1D9C57B4CCDB11CFCCC616C83D9 PUSH16 0x64736F6C634300081600330000000000 "
				},
				"gasEstimates": {
					"creation": {
						"codeDepositCost": "1691400",
						"executionCost": "26041",
						"totalCost": "1717441"
					},
					"external": {
						"addMilkBatch(address,string,uint256,uint256)": "infinite",
						"checkProduct(address,uint256,uint256)": "infinite",
						"deleteMilkBatch(address,uint256)": "infinite",
						"getAllMilkBatchList(address[])": "infinite",
						"getExpirationDate(address,uint256)": "infinite",
						"getMilkBatch(address,uint256)": "infinite",
						"getMilkBatchListByMilkHub(address)": "infinite",
						"getPrice(address,uint256)": "infinite",
						"getQuantity(address,uint256)": "infinite",
						"isMilkBatchPresent(address,uint256)": "3150",
						"updateQuantity(address,uint256,uint256)": "infinite"
					},
					"internal": {
						"deleteMilkBatchIdFromList(uint256)": "infinite",
						"getLenghtList()": "infinite"
					}
				},
				"methodIdentifiers": {
					"addMilkBatch(address,string,uint256,uint256)": "8317679f",
					"checkProduct(address,uint256,uint256)": "87abc216",
					"deleteMilkBatch(address,uint256)": "ad9c10a1",
					"getAllMilkBatchList(address[])": "d5aa1784",
					"getExpirationDate(address,uint256)": "9f2b6898",
					"getMilkBatch(address,uint256)": "ce4fcf23",
					"getMilkBatchListByMilkHub(address)": "d1f2c4a2",
					"getPrice(address,uint256)": "449e815d",
					"getQuantity(address,uint256)": "1e073fcf",
					"isMilkBatchPresent(address,uint256)": "02d805f6",
					"updateQuantity(address,uint256,uint256)": "f2492078"
				}
			},
			"storageLayout": {
				"storage": [
					{
						"astId": 3,
						"contract": "contracts/Actor/MilkHub-smart-contract/inventory/MilkHubInventoryStorage.sol:MilkHubInventoryStorage",
						"label": "MilkHubOrg",
						"offset": 0,
						"slot": "0",
						"type": "t_address"
					},
					{
						"astId": 29,
						"contract": "contracts/Actor/MilkHub-smart-contract/inventory/MilkHubInventoryStorage.sol:MilkHubInventoryStorage",
						"label": "milkBatches",
						"offset": 0,
						"slot": "1",
						"type": "t_mapping(t_address,t_mapping(t_uint256,t_struct(MilkBatch)21_storage))"
					},
					{
						"astId": 32,
						"contract": "contracts/Actor/MilkHub-smart-contract/inventory/MilkHubInventoryStorage.sol:MilkHubInventoryStorage",
						"label": "milkBatchIdList",
						"offset": 0,
						"slot": "2",
						"type": "t_array(t_uint256)dyn_storage"
					}
				],
				"types": {
					"t_address": {
						"encoding": "inplace",
						"label": "address",
						"numberOfBytes": "20"
					},
					"t_array(t_uint256)dyn_storage": {
						"base": "t_uint256",
						"encoding": "dynamic_array",
						"label": "uint256[]",
						"numberOfBytes": "32"
					},
					"t_mapping(t_address,t_mapping(t_uint256,t_struct(MilkBatch)21_storage))": {
						"encoding": "mapping",
						"key": "t_address",
						"label": "mapping(address => mapping(uint256 => struct MilkHubInventoryStorage.MilkBatch))",
						"numberOfBytes": "32",
						"value": "t_mapping(t_uint256,t_struct(MilkBatch)21_storage)"
					},
					"t_mapping(t_uint256,t_struct(MilkBatch)21_storage)": {
						"encoding": "mapping",
						"key": "t_uint256",
						"label": "mapping(uint256 => struct MilkHubInventoryStorage.MilkBatch)",
						"numberOfBytes": "32",
						"value": "t_struct(MilkBatch)21_storage"
					},
					"t_string_storage": {
						"encoding": "bytes",
						"label": "string",
						"numberOfBytes": "32"
					},
					"t_struct(MilkBatch)21_storage": {
						"encoding": "inplace",
						"label": "struct MilkHubInventoryStorage.MilkBatch",
						"members": [
							{
								"astId": 14,
								"contract": "contracts/Actor/MilkHub-smart-contract/inventory/MilkHubInventoryStorage.sol:MilkHubInventoryStorage",
								"label": "id",
								"offset": 0,
								"slot": "0",
								"type": "t_uint256"
							},
							{
								"astId": 16,
								"contract": "contracts/Actor/MilkHub-smart-contract/inventory/MilkHubInventoryStorage.sol:MilkHubInventoryStorage",
								"label": "scadenza",
								"offset": 0,
								"slot": "1",
								"type": "t_string_storage"
							},
							{
								"astId": 18,
								"contract": "contracts/Actor/MilkHub-smart-contract/inventory/MilkHubInventoryStorage.sol:MilkHubInventoryStorage",
								"label": "quantity",
								"offset": 0,
								"slot": "2",
								"type": "t_uint256"
							},
							{
								"astId": 20,
								"contract": "contracts/Actor/MilkHub-smart-contract/inventory/MilkHubInventoryStorage.sol:MilkHubInventoryStorage",
								"label": "price",
								"offset": 0,
								"slot": "3",
								"type": "t_uint256"
							}
						],
						"numberOfBytes": "128"
					},
					"t_uint256": {
						"encoding": "inplace",
						"label": "uint256",
						"numberOfBytes": "32"
					}
				}
			},
			"userdoc": {
				"kind": "user",
				"methods": {
					"isMilkBatchPresent(address,uint256)": {
						"notice": "- Funzione isMilkBatchPresent() funzione per verificare che il MilkBatch è presente  - Verifica tramite _id e address del walletMilkHub se il Prodotto è presente  - ritorna TRUE se il confronto è vero  - ritorna FALSE se non è presente "
					}
				},
				"version": 1
			}
		}
	}
}