{
	"contracts/Actor/Retailer-smart-contract/RetailerStorage.sol": {
		"RetailerStorage": {
			"abi": [
				{
					"inputs": [],
					"stateMutability": "nonpayable",
					"type": "constructor"
				},
				{
					"inputs": [
						{
							"internalType": "string",
							"name": "_fullName",
							"type": "string"
						},
						{
							"internalType": "string",
							"name": "_password",
							"type": "string"
						},
						{
							"internalType": "string",
							"name": "_email",
							"type": "string"
						},
						{
							"internalType": "address",
							"name": "walletRetailer",
							"type": "address"
						}
					],
					"name": "addUser",
					"outputs": [],
					"stateMutability": "nonpayable",
					"type": "function"
				},
				{
					"inputs": [
						{
							"internalType": "address",
							"name": "walletRetailer",
							"type": "address"
						}
					],
					"name": "deleteUser",
					"outputs": [
						{
							"internalType": "bool",
							"name": "",
							"type": "bool"
						}
					],
					"stateMutability": "nonpayable",
					"type": "function"
				},
				{
					"inputs": [
						{
							"internalType": "address",
							"name": "walletRetailer",
							"type": "address"
						},
						{
							"internalType": "uint256",
							"name": "_id",
							"type": "uint256"
						}
					],
					"name": "getBalance",
					"outputs": [
						{
							"internalType": "uint256",
							"name": "",
							"type": "uint256"
						}
					],
					"stateMutability": "view",
					"type": "function"
				},
				{
					"inputs": [
						{
							"internalType": "address",
							"name": "walletRetailer",
							"type": "address"
						},
						{
							"internalType": "uint256",
							"name": "_id",
							"type": "uint256"
						}
					],
					"name": "getEmail",
					"outputs": [
						{
							"internalType": "string",
							"name": "",
							"type": "string"
						}
					],
					"stateMutability": "view",
					"type": "function"
				},
				{
					"inputs": [
						{
							"internalType": "address",
							"name": "walletRetailer",
							"type": "address"
						},
						{
							"internalType": "uint256",
							"name": "_id",
							"type": "uint256"
						}
					],
					"name": "getFullName",
					"outputs": [
						{
							"internalType": "string",
							"name": "",
							"type": "string"
						}
					],
					"stateMutability": "view",
					"type": "function"
				},
				{
					"inputs": [
						{
							"internalType": "address",
							"name": "walletRetailer",
							"type": "address"
						}
					],
					"name": "getId",
					"outputs": [
						{
							"internalType": "uint256",
							"name": "",
							"type": "uint256"
						}
					],
					"stateMutability": "view",
					"type": "function"
				},
				{
					"inputs": [],
					"name": "getListAddressRetailer",
					"outputs": [
						{
							"internalType": "address[]",
							"name": "",
							"type": "address[]"
						}
					],
					"stateMutability": "view",
					"type": "function"
				},
				{
					"inputs": [
						{
							"internalType": "address",
							"name": "walletRetailer",
							"type": "address"
						}
					],
					"name": "getUser",
					"outputs": [
						{
							"internalType": "uint256",
							"name": "",
							"type": "uint256"
						},
						{
							"internalType": "string",
							"name": "",
							"type": "string"
						},
						{
							"internalType": "string",
							"name": "",
							"type": "string"
						},
						{
							"internalType": "string",
							"name": "",
							"type": "string"
						},
						{
							"internalType": "uint256",
							"name": "",
							"type": "uint256"
						}
					],
					"stateMutability": "view",
					"type": "function"
				},
				{
					"inputs": [
						{
							"internalType": "address",
							"name": "walletRetailer",
							"type": "address"
						}
					],
					"name": "isUserPresent",
					"outputs": [
						{
							"internalType": "bool",
							"name": "",
							"type": "bool"
						}
					],
					"stateMutability": "view",
					"type": "function"
				},
				{
					"inputs": [
						{
							"internalType": "address",
							"name": "walletRetailer",
							"type": "address"
						},
						{
							"internalType": "string",
							"name": "_email",
							"type": "string"
						},
						{
							"internalType": "string",
							"name": "_password",
							"type": "string"
						}
					],
					"name": "loginUser",
					"outputs": [
						{
							"internalType": "bool",
							"name": "",
							"type": "bool"
						}
					],
					"stateMutability": "view",
					"type": "function"
				},
				{
					"inputs": [
						{
							"internalType": "address",
							"name": "walletRetailer",
							"type": "address"
						},
						{
							"internalType": "uint256",
							"name": "balance",
							"type": "uint256"
						}
					],
					"name": "updateBalance",
					"outputs": [],
					"stateMutability": "nonpayable",
					"type": "function"
				}
			],
			"devdoc": {
				"kind": "dev",
				"methods": {},
				"version": 1
			},
			"evm": {
				"assembly": "    /* \"contracts/Actor/Retailer-smart-contract/RetailerStorage.sol\":104:6295  contract RetailerStorage is IUserStorageInterface {... */\n  mstore(0x40, 0x80)\n    /* \"contracts/Actor/Retailer-smart-contract/RetailerStorage.sol\":258:314  constructor(){... */\n  callvalue\n  dup1\n  iszero\n  tag_1\n  jumpi\n  0x00\n  dup1\n  revert\ntag_1:\n  pop\n    /* \"contracts/Actor/Retailer-smart-contract/RetailerStorage.sol\":296:306  msg.sender */\n  caller\n    /* \"contracts/Actor/Retailer-smart-contract/RetailerStorage.sol\":282:293  RetailerOrg */\n  0x00\n  dup1\n    /* \"contracts/Actor/Retailer-smart-contract/RetailerStorage.sol\":282:306  RetailerOrg = msg.sender */\n  0x0100\n  exp\n  dup2\n  sload\n  dup2\n  0xffffffffffffffffffffffffffffffffffffffff\n  mul\n  not\n  and\n  swap1\n  dup4\n  0xffffffffffffffffffffffffffffffffffffffff\n  and\n  mul\n  or\n  swap1\n  sstore\n  pop\n    /* \"contracts/Actor/Retailer-smart-contract/RetailerStorage.sol\":104:6295  contract RetailerStorage is IUserStorageInterface {... */\n  dataSize(sub_0)\n  dup1\n  dataOffset(sub_0)\n  0x00\n  codecopy\n  0x00\n  return\nstop\n\nsub_0: assembly {\n        /* \"contracts/Actor/Retailer-smart-contract/RetailerStorage.sol\":104:6295  contract RetailerStorage is IUserStorageInterface {... */\n      mstore(0x40, 0x80)\n      callvalue\n      dup1\n      iszero\n      tag_1\n      jumpi\n      0x00\n      dup1\n      revert\n    tag_1:\n      pop\n      jumpi(tag_2, lt(calldatasize, 0x04))\n      shr(0xe0, calldataload(0x00))\n      dup1\n      0x6e44cd42\n      gt\n      tag_14\n      jumpi\n      dup1\n      0x6e44cd42\n      eq\n      tag_8\n      jumpi\n      dup1\n      0x6f77926b\n      eq\n      tag_9\n      jumpi\n      dup1\n      0xa5578807\n      eq\n      tag_10\n      jumpi\n      dup1\n      0xb48ff0f1\n      eq\n      tag_11\n      jumpi\n      dup1\n      0xe0b1cccb\n      eq\n      tag_12\n      jumpi\n      dup1\n      0xecca4073\n      eq\n      tag_13\n      jumpi\n      jump(tag_2)\n    tag_14:\n      dup1\n      0x0586510d\n      eq\n      tag_3\n      jumpi\n      dup1\n      0x06f22b04\n      eq\n      tag_4\n      jumpi\n      dup1\n      0x2b04e840\n      eq\n      tag_5\n      jumpi\n      dup1\n      0x5c60f226\n      eq\n      tag_6\n      jumpi\n      dup1\n      0x65f68c89\n      eq\n      tag_7\n      jumpi\n    tag_2:\n      0x00\n      dup1\n      revert\n        /* \"contracts/Actor/Retailer-smart-contract/RetailerStorage.sol\":5905:6019  function getListAddressRetailer() external view returns (address [] memory){  ... */\n    tag_3:\n      tag_15\n      tag_16\n      jump\t// in\n    tag_15:\n      mload(0x40)\n      tag_17\n      swap2\n      swap1\n      tag_18\n      jump\t// in\n    tag_17:\n      mload(0x40)\n      dup1\n      swap2\n      sub\n      swap1\n      return\n        /* \"contracts/Actor/Retailer-smart-contract/RetailerStorage.sol\":2322:2767  function loginUser(address walletRetailer, string memory _email, string memory _password) external view returns(bool){... */\n    tag_4:\n      tag_19\n      0x04\n      dup1\n      calldatasize\n      sub\n      dup2\n      add\n      swap1\n      tag_20\n      swap2\n      swap1\n      tag_21\n      jump\t// in\n    tag_20:\n      tag_22\n      jump\t// in\n    tag_19:\n      mload(0x40)\n      tag_23\n      swap2\n      swap1\n      tag_24\n      jump\t// in\n    tag_23:\n      mload(0x40)\n      dup1\n      swap2\n      sub\n      swap1\n      return\n        /* \"contracts/Actor/Retailer-smart-contract/RetailerStorage.sol\":4983:5249  function getBalance(address walletRetailer, uint256 _id) external view  returns(uint256){... */\n    tag_5:\n      tag_25\n      0x04\n      dup1\n      calldatasize\n      sub\n      dup2\n      add\n      swap1\n      tag_26\n      swap2\n      swap1\n      tag_27\n      jump\t// in\n    tag_26:\n      tag_28\n      jump\t// in\n    tag_25:\n      mload(0x40)\n      tag_29\n      swap2\n      swap1\n      tag_30\n      jump\t// in\n    tag_29:\n      mload(0x40)\n      dup1\n      swap2\n      sub\n      swap1\n      return\n        /* \"contracts/Actor/Retailer-smart-contract/RetailerStorage.sol\":2852:3144  function deleteUser(address walletRetailer) external returns(bool){... */\n    tag_6:\n      tag_31\n      0x04\n      dup1\n      calldatasize\n      sub\n      dup2\n      add\n      swap1\n      tag_32\n      swap2\n      swap1\n      tag_33\n      jump\t// in\n    tag_32:\n      tag_34\n      jump\t// in\n    tag_31:\n      mload(0x40)\n      tag_35\n      swap2\n      swap1\n      tag_24\n      jump\t// in\n    tag_35:\n      mload(0x40)\n      dup1\n      swap2\n      sub\n      swap1\n      return\n        /* \"contracts/Actor/Retailer-smart-contract/RetailerStorage.sol\":3879:4049  function getId(address walletRetailer) external view  returns(uint256){... */\n    tag_7:\n      tag_36\n      0x04\n      dup1\n      calldatasize\n      sub\n      dup2\n      add\n      swap1\n      tag_37\n      swap2\n      swap1\n      tag_33\n      jump\t// in\n    tag_37:\n      tag_38\n      jump\t// in\n    tag_36:\n      mload(0x40)\n      tag_39\n      swap2\n      swap1\n      tag_30\n      jump\t// in\n    tag_39:\n      mload(0x40)\n      dup1\n      swap2\n      sub\n      swap1\n      return\n        /* \"contracts/Actor/Retailer-smart-contract/RetailerStorage.sol\":4181:4462  function getFullName(address walletRetailer, uint256 _id) external view  returns(string memory){... */\n    tag_8:\n      tag_40\n      0x04\n      dup1\n      calldatasize\n      sub\n      dup2\n      add\n      swap1\n      tag_41\n      swap2\n      swap1\n      tag_27\n      jump\t// in\n    tag_41:\n      tag_42\n      jump\t// in\n    tag_40:\n      mload(0x40)\n      tag_43\n      swap2\n      swap1\n      tag_44\n      jump\t// in\n    tag_43:\n      mload(0x40)\n      dup1\n      swap2\n      sub\n      swap1\n      return\n        /* \"contracts/Actor/Retailer-smart-contract/RetailerStorage.sol\":5417:5843  function getUser(address walletRetailer) external view returns (uint256, string memory, string memory, string memory, uint256) {... */\n    tag_9:\n      tag_45\n      0x04\n      dup1\n      calldatasize\n      sub\n      dup2\n      add\n      swap1\n      tag_46\n      swap2\n      swap1\n      tag_33\n      jump\t// in\n    tag_46:\n      tag_47\n      jump\t// in\n    tag_45:\n      mload(0x40)\n      tag_48\n      swap6\n      swap5\n      swap4\n      swap3\n      swap2\n      swap1\n      tag_49\n      jump\t// in\n    tag_48:\n      mload(0x40)\n      dup1\n      swap2\n      sub\n      swap1\n      return\n        /* \"contracts/Actor/Retailer-smart-contract/RetailerStorage.sol\":3485:3618  function isUserPresent(address walletRetailer) external view returns(bool){... */\n    tag_10:\n      tag_50\n      0x04\n      dup1\n      calldatasize\n      sub\n      dup2\n      add\n      swap1\n      tag_51\n      swap2\n      swap1\n      tag_33\n      jump\t// in\n    tag_51:\n      tag_52\n      jump\t// in\n    tag_50:\n      mload(0x40)\n      tag_53\n      swap2\n      swap1\n      tag_24\n      jump\t// in\n    tag_53:\n      mload(0x40)\n      dup1\n      swap2\n      sub\n      swap1\n      return\n        /* \"contracts/Actor/Retailer-smart-contract/RetailerStorage.sol\":880:2062  function addUser(string memory _fullName, string memory _password,string memory _email, address walletRetailer) external {... */\n    tag_11:\n      tag_54\n      0x04\n      dup1\n      calldatasize\n      sub\n      dup2\n      add\n      swap1\n      tag_55\n      swap2\n      swap1\n      tag_56\n      jump\t// in\n    tag_55:\n      tag_57\n      jump\t// in\n    tag_54:\n      stop\n        /* \"contracts/Actor/Retailer-smart-contract/RetailerStorage.sol\":6128:6290  function updateBalance(address walletRetailer, uint256 balance) external{... */\n    tag_12:\n      tag_58\n      0x04\n      dup1\n      calldatasize\n      sub\n      dup2\n      add\n      swap1\n      tag_59\n      swap2\n      swap1\n      tag_27\n      jump\t// in\n    tag_59:\n      tag_60\n      jump\t// in\n    tag_58:\n      stop\n        /* \"contracts/Actor/Retailer-smart-contract/RetailerStorage.sol\":4589:4853  function getEmail(address walletRetailer, uint256 _id) external view  returns(string memory){... */\n    tag_13:\n      tag_61\n      0x04\n      dup1\n      calldatasize\n      sub\n      dup2\n      add\n      swap1\n      tag_62\n      swap2\n      swap1\n      tag_27\n      jump\t// in\n    tag_62:\n      tag_63\n      jump\t// in\n    tag_61:\n      mload(0x40)\n      tag_64\n      swap2\n      swap1\n      tag_44\n      jump\t// in\n    tag_64:\n      mload(0x40)\n      dup1\n      swap2\n      sub\n      swap1\n      return\n        /* \"contracts/Actor/Retailer-smart-contract/RetailerStorage.sol\":5905:6019  function getListAddressRetailer() external view returns (address [] memory){  ... */\n    tag_16:\n        /* \"contracts/Actor/Retailer-smart-contract/RetailerStorage.sol\":5962:5979  address [] memory */\n      0x60\n        /* \"contracts/Actor/Retailer-smart-contract/RetailerStorage.sol\":6000:6011  addressList */\n      0x02\n        /* \"contracts/Actor/Retailer-smart-contract/RetailerStorage.sol\":5993:6011  return addressList */\n      dup1\n      sload\n      dup1\n      0x20\n      mul\n      0x20\n      add\n      mload(0x40)\n      swap1\n      dup2\n      add\n      0x40\n      mstore\n      dup1\n      swap3\n      swap2\n      swap1\n      dup2\n      dup2\n      mstore\n      0x20\n      add\n      dup3\n      dup1\n      sload\n      dup1\n      iszero\n      tag_66\n      jumpi\n      0x20\n      mul\n      dup3\n      add\n      swap2\n      swap1\n      0x00\n      mstore\n      keccak256(0x00, 0x20)\n      swap1\n    tag_67:\n      dup2\n      0x00\n      swap1\n      sload\n      swap1\n      0x0100\n      exp\n      swap1\n      div\n      0xffffffffffffffffffffffffffffffffffffffff\n      and\n      0xffffffffffffffffffffffffffffffffffffffff\n      and\n      dup2\n      mstore\n      0x20\n      add\n      swap1\n      0x01\n      add\n      swap1\n      dup1\n      dup4\n      gt\n      tag_67\n      jumpi\n    tag_66:\n      pop\n      pop\n      pop\n      pop\n      pop\n      swap1\n      pop\n        /* \"contracts/Actor/Retailer-smart-contract/RetailerStorage.sol\":5905:6019  function getListAddressRetailer() external view returns (address [] memory){  ... */\n      swap1\n      jump\t// out\n        /* \"contracts/Actor/Retailer-smart-contract/RetailerStorage.sol\":2322:2767  function loginUser(address walletRetailer, string memory _email, string memory _password) external view returns(bool){... */\n    tag_22:\n        /* \"contracts/Actor/Retailer-smart-contract/RetailerStorage.sol\":2434:2438  bool */\n      0x00\n        /* \"contracts/Actor/Retailer-smart-contract/RetailerStorage.sol\":2486:2511  Retailer storage retailer */\n      dup1\n        /* \"contracts/Actor/Retailer-smart-contract/RetailerStorage.sol\":2514:2523  retailers */\n      0x01\n        /* \"contracts/Actor/Retailer-smart-contract/RetailerStorage.sol\":2514:2539  retailers[walletRetailer] */\n      0x00\n        /* \"contracts/Actor/Retailer-smart-contract/RetailerStorage.sol\":2524:2538  walletRetailer */\n      dup7\n        /* \"contracts/Actor/Retailer-smart-contract/RetailerStorage.sol\":2514:2539  retailers[walletRetailer] */\n      0xffffffffffffffffffffffffffffffffffffffff\n      and\n      0xffffffffffffffffffffffffffffffffffffffff\n      and\n      dup2\n      mstore\n      0x20\n      add\n      swap1\n      dup2\n      mstore\n      0x20\n      add\n      0x00\n      keccak256\n        /* \"contracts/Actor/Retailer-smart-contract/RetailerStorage.sol\":2486:2539  Retailer storage retailer = retailers[walletRetailer] */\n      swap1\n      pop\n        /* \"contracts/Actor/Retailer-smart-contract/RetailerStorage.sol\":2713:2759  ripemd160(abi.encodePacked(_email, _password)) */\n      0x03\n        /* \"contracts/Actor/Retailer-smart-contract/RetailerStorage.sol\":2740:2746  _email */\n      dup5\n        /* \"contracts/Actor/Retailer-smart-contract/RetailerStorage.sol\":2748:2757  _password */\n      dup5\n        /* \"contracts/Actor/Retailer-smart-contract/RetailerStorage.sol\":2723:2758  abi.encodePacked(_email, _password) */\n      add(0x20, mload(0x40))\n      tag_69\n      swap3\n      swap2\n      swap1\n      tag_70\n      jump\t// in\n    tag_69:\n      mload(0x40)\n      0x20\n      dup2\n      dup4\n      sub\n      sub\n      dup2\n      mstore\n      swap1\n      0x40\n      mstore\n        /* \"contracts/Actor/Retailer-smart-contract/RetailerStorage.sol\":2713:2759  ripemd160(abi.encodePacked(_email, _password)) */\n      mload(0x40)\n      tag_71\n      swap2\n      swap1\n      tag_72\n      jump\t// in\n    tag_71:\n      0x20\n      mload(0x40)\n      dup1\n      dup4\n      sub\n      dup2\n      dup6\n      gas\n      staticcall\n      iszero\n      dup1\n      iszero\n      tag_74\n      jumpi\n      returndatasize\n      0x00\n      dup1\n      returndatacopy\n      revert(0x00, returndatasize)\n    tag_74:\n      pop\n      pop\n      pop\n      shl(0x60, mload(mload(0x40)))\n        /* \"contracts/Actor/Retailer-smart-contract/RetailerStorage.sol\":2647:2759  ripemd160(abi.encodePacked(retailer.email, retailer.password)) == ripemd160(abi.encodePacked(_email, _password)) */\n      not(0xffffffffffffffffffffffff)\n      and\n        /* \"contracts/Actor/Retailer-smart-contract/RetailerStorage.sol\":2647:2709  ripemd160(abi.encodePacked(retailer.email, retailer.password)) */\n      0x03\n        /* \"contracts/Actor/Retailer-smart-contract/RetailerStorage.sol\":2674:2682  retailer */\n      dup3\n        /* \"contracts/Actor/Retailer-smart-contract/RetailerStorage.sol\":2674:2688  retailer.email */\n      0x03\n      add\n        /* \"contracts/Actor/Retailer-smart-contract/RetailerStorage.sol\":2690:2698  retailer */\n      dup4\n        /* \"contracts/Actor/Retailer-smart-contract/RetailerStorage.sol\":2690:2707  retailer.password */\n      0x02\n      add\n        /* \"contracts/Actor/Retailer-smart-contract/RetailerStorage.sol\":2657:2708  abi.encodePacked(retailer.email, retailer.password) */\n      add(0x20, mload(0x40))\n      tag_75\n      swap3\n      swap2\n      swap1\n      tag_76\n      jump\t// in\n    tag_75:\n      mload(0x40)\n      0x20\n      dup2\n      dup4\n      sub\n      sub\n      dup2\n      mstore\n      swap1\n      0x40\n      mstore\n        /* \"contracts/Actor/Retailer-smart-contract/RetailerStorage.sol\":2647:2709  ripemd160(abi.encodePacked(retailer.email, retailer.password)) */\n      mload(0x40)\n      tag_77\n      swap2\n      swap1\n      tag_72\n      jump\t// in\n    tag_77:\n      0x20\n      mload(0x40)\n      dup1\n      dup4\n      sub\n      dup2\n      dup6\n      gas\n      staticcall\n      iszero\n      dup1\n      iszero\n      tag_79\n      jumpi\n      returndatasize\n      0x00\n      dup1\n      returndatacopy\n      revert(0x00, returndatasize)\n    tag_79:\n      pop\n      pop\n      pop\n      shl(0x60, mload(mload(0x40)))\n        /* \"contracts/Actor/Retailer-smart-contract/RetailerStorage.sol\":2647:2759  ripemd160(abi.encodePacked(retailer.email, retailer.password)) == ripemd160(abi.encodePacked(_email, _password)) */\n      not(0xffffffffffffffffffffffff)\n      and\n      eq\n        /* \"contracts/Actor/Retailer-smart-contract/RetailerStorage.sol\":2640:2759  return ripemd160(abi.encodePacked(retailer.email, retailer.password)) == ripemd160(abi.encodePacked(_email, _password)) */\n      swap2\n      pop\n      pop\n        /* \"contracts/Actor/Retailer-smart-contract/RetailerStorage.sol\":2322:2767  function loginUser(address walletRetailer, string memory _email, string memory _password) external view returns(bool){... */\n      swap4\n      swap3\n      pop\n      pop\n      pop\n      jump\t// out\n        /* \"contracts/Actor/Retailer-smart-contract/RetailerStorage.sol\":4983:5249  function getBalance(address walletRetailer, uint256 _id) external view  returns(uint256){... */\n    tag_28:\n        /* \"contracts/Actor/Retailer-smart-contract/RetailerStorage.sol\":5063:5070  uint256 */\n      0x00\n        /* \"contracts/Actor/Retailer-smart-contract/RetailerStorage.sol\":5122:5125  _id */\n      dup2\n        /* \"contracts/Actor/Retailer-smart-contract/RetailerStorage.sol\":5090:5099  retailers */\n      0x01\n        /* \"contracts/Actor/Retailer-smart-contract/RetailerStorage.sol\":5090:5115  retailers[walletRetailer] */\n      0x00\n        /* \"contracts/Actor/Retailer-smart-contract/RetailerStorage.sol\":5100:5114  walletRetailer */\n      dup6\n        /* \"contracts/Actor/Retailer-smart-contract/RetailerStorage.sol\":5090:5115  retailers[walletRetailer] */\n      0xffffffffffffffffffffffffffffffffffffffff\n      and\n      0xffffffffffffffffffffffffffffffffffffffff\n      and\n      dup2\n      mstore\n      0x20\n      add\n      swap1\n      dup2\n      mstore\n      0x20\n      add\n      0x00\n      keccak256\n        /* \"contracts/Actor/Retailer-smart-contract/RetailerStorage.sol\":5090:5118  retailers[walletRetailer].id */\n      0x00\n      add\n      sload\n        /* \"contracts/Actor/Retailer-smart-contract/RetailerStorage.sol\":5090:5125  retailers[walletRetailer].id == _id */\n      eq\n        /* \"contracts/Actor/Retailer-smart-contract/RetailerStorage.sol\":5082:5142  require(retailers[walletRetailer].id == _id,\"ID not Valid!\") */\n      tag_81\n      jumpi\n      mload(0x40)\n      0x08c379a000000000000000000000000000000000000000000000000000000000\n      dup2\n      mstore\n      0x04\n      add\n      tag_82\n      swap1\n      tag_83\n      jump\t// in\n    tag_82:\n      mload(0x40)\n      dup1\n      swap2\n      sub\n      swap1\n      revert\n    tag_81:\n        /* \"contracts/Actor/Retailer-smart-contract/RetailerStorage.sol\":5155:5179  Retailer memory retailer */\n      0x00\n        /* \"contracts/Actor/Retailer-smart-contract/RetailerStorage.sol\":5182:5191  retailers */\n      0x01\n        /* \"contracts/Actor/Retailer-smart-contract/RetailerStorage.sol\":5182:5207  retailers[walletRetailer] */\n      0x00\n        /* \"contracts/Actor/Retailer-smart-contract/RetailerStorage.sol\":5192:5206  walletRetailer */\n      dup6\n        /* \"contracts/Actor/Retailer-smart-contract/RetailerStorage.sol\":5182:5207  retailers[walletRetailer] */\n      0xffffffffffffffffffffffffffffffffffffffff\n      and\n      0xffffffffffffffffffffffffffffffffffffffff\n      and\n      dup2\n      mstore\n      0x20\n      add\n      swap1\n      dup2\n      mstore\n      0x20\n      add\n      0x00\n      keccak256\n        /* \"contracts/Actor/Retailer-smart-contract/RetailerStorage.sol\":5155:5207  Retailer memory retailer = retailers[walletRetailer] */\n      mload(0x40)\n      dup1\n      0xa0\n      add\n      0x40\n      mstore\n      swap1\n      dup2\n      0x00\n      dup3\n      add\n      sload\n      dup2\n      mstore\n      0x20\n      add\n      0x01\n      dup3\n      add\n      dup1\n      sload\n      tag_84\n      swap1\n      tag_85\n      jump\t// in\n    tag_84:\n      dup1\n      0x1f\n      add\n      0x20\n      dup1\n      swap2\n      div\n      mul\n      0x20\n      add\n      mload(0x40)\n      swap1\n      dup2\n      add\n      0x40\n      mstore\n      dup1\n      swap3\n      swap2\n      swap1\n      dup2\n      dup2\n      mstore\n      0x20\n      add\n      dup3\n      dup1\n      sload\n      tag_86\n      swap1\n      tag_85\n      jump\t// in\n    tag_86:\n      dup1\n      iszero\n      tag_87\n      jumpi\n      dup1\n      0x1f\n      lt\n      tag_88\n      jumpi\n      0x0100\n      dup1\n      dup4\n      sload\n      div\n      mul\n      dup4\n      mstore\n      swap2\n      0x20\n      add\n      swap2\n      jump(tag_87)\n    tag_88:\n      dup3\n      add\n      swap2\n      swap1\n      0x00\n      mstore\n      keccak256(0x00, 0x20)\n      swap1\n    tag_89:\n      dup2\n      sload\n      dup2\n      mstore\n      swap1\n      0x01\n      add\n      swap1\n      0x20\n      add\n      dup1\n      dup4\n      gt\n      tag_89\n      jumpi\n      dup3\n      swap1\n      sub\n      0x1f\n      and\n      dup3\n      add\n      swap2\n    tag_87:\n      pop\n      pop\n      pop\n      pop\n      pop\n      dup2\n      mstore\n      0x20\n      add\n      0x02\n      dup3\n      add\n      dup1\n      sload\n      tag_90\n      swap1\n      tag_85\n      jump\t// in\n    tag_90:\n      dup1\n      0x1f\n      add\n      0x20\n      dup1\n      swap2\n      div\n      mul\n      0x20\n      add\n      mload(0x40)\n      swap1\n      dup2\n      add\n      0x40\n      mstore\n      dup1\n      swap3\n      swap2\n      swap1\n      dup2\n      dup2\n      mstore\n      0x20\n      add\n      dup3\n      dup1\n      sload\n      tag_91\n      swap1\n      tag_85\n      jump\t// in\n    tag_91:\n      dup1\n      iszero\n      tag_92\n      jumpi\n      dup1\n      0x1f\n      lt\n      tag_93\n      jumpi\n      0x0100\n      dup1\n      dup4\n      sload\n      div\n      mul\n      dup4\n      mstore\n      swap2\n      0x20\n      add\n      swap2\n      jump(tag_92)\n    tag_93:\n      dup3\n      add\n      swap2\n      swap1\n      0x00\n      mstore\n      keccak256(0x00, 0x20)\n      swap1\n    tag_94:\n      dup2\n      sload\n      dup2\n      mstore\n      swap1\n      0x01\n      add\n      swap1\n      0x20\n      add\n      dup1\n      dup4\n      gt\n      tag_94\n      jumpi\n      dup3\n      swap1\n      sub\n      0x1f\n      and\n      dup3\n      add\n      swap2\n    tag_92:\n      pop\n      pop\n      pop\n      pop\n      pop\n      dup2\n      mstore\n      0x20\n      add\n      0x03\n      dup3\n      add\n      dup1\n      sload\n      tag_95\n      swap1\n      tag_85\n      jump\t// in\n    tag_95:\n      dup1\n      0x1f\n      add\n      0x20\n      dup1\n      swap2\n      div\n      mul\n      0x20\n      add\n      mload(0x40)\n      swap1\n      dup2\n      add\n      0x40\n      mstore\n      dup1\n      swap3\n      swap2\n      swap1\n      dup2\n      dup2\n      mstore\n      0x20\n      add\n      dup3\n      dup1\n      sload\n      tag_96\n      swap1\n      tag_85\n      jump\t// in\n    tag_96:\n      dup1\n      iszero\n      tag_97\n      jumpi\n      dup1\n      0x1f\n      lt\n      tag_98\n      jumpi\n      0x0100\n      dup1\n      dup4\n      sload\n      div\n      mul\n      dup4\n      mstore\n      swap2\n      0x20\n      add\n      swap2\n      jump(tag_97)\n    tag_98:\n      dup3\n      add\n      swap2\n      swap1\n      0x00\n      mstore\n      keccak256(0x00, 0x20)\n      swap1\n    tag_99:\n      dup2\n      sload\n      dup2\n      mstore\n      swap1\n      0x01\n      add\n      swap1\n      0x20\n      add\n      dup1\n      dup4\n      gt\n      tag_99\n      jumpi\n      dup3\n      swap1\n      sub\n      0x1f\n      and\n      dup3\n      add\n      swap2\n    tag_97:\n      pop\n      pop\n      pop\n      pop\n      pop\n      dup2\n      mstore\n      0x20\n      add\n      0x04\n      dup3\n      add\n      sload\n      dup2\n      mstore\n      pop\n      pop\n      swap1\n      pop\n        /* \"contracts/Actor/Retailer-smart-contract/RetailerStorage.sol\":5225:5233  retailer */\n      dup1\n        /* \"contracts/Actor/Retailer-smart-contract/RetailerStorage.sol\":5225:5241  retailer.balance */\n      0x80\n      add\n      mload\n        /* \"contracts/Actor/Retailer-smart-contract/RetailerStorage.sol\":5218:5241  return retailer.balance */\n      swap2\n      pop\n      pop\n        /* \"contracts/Actor/Retailer-smart-contract/RetailerStorage.sol\":4983:5249  function getBalance(address walletRetailer, uint256 _id) external view  returns(uint256){... */\n      swap3\n      swap2\n      pop\n      pop\n      jump\t// out\n        /* \"contracts/Actor/Retailer-smart-contract/RetailerStorage.sol\":2852:3144  function deleteUser(address walletRetailer) external returns(bool){... */\n    tag_34:\n        /* \"contracts/Actor/Retailer-smart-contract/RetailerStorage.sol\":2913:2917  bool */\n      0x00\n        /* \"contracts/Actor/Retailer-smart-contract/RetailerStorage.sol\":2938:2947  retailers */\n      0x01\n        /* \"contracts/Actor/Retailer-smart-contract/RetailerStorage.sol\":2938:2963  retailers[walletRetailer] */\n      0x00\n        /* \"contracts/Actor/Retailer-smart-contract/RetailerStorage.sol\":2948:2962  walletRetailer */\n      dup4\n        /* \"contracts/Actor/Retailer-smart-contract/RetailerStorage.sol\":2938:2963  retailers[walletRetailer] */\n      0xffffffffffffffffffffffffffffffffffffffff\n      and\n      0xffffffffffffffffffffffffffffffffffffffff\n      and\n      dup2\n      mstore\n      0x20\n      add\n      swap1\n      dup2\n      mstore\n      0x20\n      add\n      0x00\n      keccak256\n      0x00\n        /* \"contracts/Actor/Retailer-smart-contract/RetailerStorage.sol\":2931:2963  delete retailers[walletRetailer] */\n      dup1\n      dup3\n      add\n      0x00\n      swap1\n      sstore\n      0x01\n      dup3\n      add\n      0x00\n      tag_101\n      swap2\n      swap1\n      tag_102\n      jump\t// in\n    tag_101:\n      0x02\n      dup3\n      add\n      0x00\n      tag_103\n      swap2\n      swap1\n      tag_102\n      jump\t// in\n    tag_103:\n      0x03\n      dup3\n      add\n      0x00\n      tag_104\n      swap2\n      swap1\n      tag_102\n      jump\t// in\n    tag_104:\n      0x04\n      dup3\n      add\n      0x00\n      swap1\n      sstore\n      pop\n      pop\n        /* \"contracts/Actor/Retailer-smart-contract/RetailerStorage.sol\":3011:3012  0 */\n      0x00\n        /* \"contracts/Actor/Retailer-smart-contract/RetailerStorage.sol\":2979:2988  retailers */\n      0x01\n        /* \"contracts/Actor/Retailer-smart-contract/RetailerStorage.sol\":2979:3004  retailers[walletRetailer] */\n      0x00\n        /* \"contracts/Actor/Retailer-smart-contract/RetailerStorage.sol\":2989:3003  walletRetailer */\n      dup5\n        /* \"contracts/Actor/Retailer-smart-contract/RetailerStorage.sol\":2979:3004  retailers[walletRetailer] */\n      0xffffffffffffffffffffffffffffffffffffffff\n      and\n      0xffffffffffffffffffffffffffffffffffffffff\n      and\n      dup2\n      mstore\n      0x20\n      add\n      swap1\n      dup2\n      mstore\n      0x20\n      add\n      0x00\n      keccak256\n        /* \"contracts/Actor/Retailer-smart-contract/RetailerStorage.sol\":2979:3007  retailers[walletRetailer].id */\n      0x00\n      add\n      sload\n        /* \"contracts/Actor/Retailer-smart-contract/RetailerStorage.sol\":2979:3012  retailers[walletRetailer].id == 0 */\n      eq\n        /* \"contracts/Actor/Retailer-smart-contract/RetailerStorage.sol\":2979:3054  retailers[walletRetailer].id == 0 && deleteRetailerFromList(walletRetailer) */\n      dup1\n      iszero\n      tag_105\n      jumpi\n      pop\n        /* \"contracts/Actor/Retailer-smart-contract/RetailerStorage.sol\":3016:3054  deleteRetailerFromList(walletRetailer) */\n      tag_106\n        /* \"contracts/Actor/Retailer-smart-contract/RetailerStorage.sol\":3039:3053  walletRetailer */\n      dup3\n        /* \"contracts/Actor/Retailer-smart-contract/RetailerStorage.sol\":3016:3038  deleteRetailerFromList */\n      tag_107\n        /* \"contracts/Actor/Retailer-smart-contract/RetailerStorage.sol\":3016:3054  deleteRetailerFromList(walletRetailer) */\n      jump\t// in\n    tag_106:\n        /* \"contracts/Actor/Retailer-smart-contract/RetailerStorage.sol\":2979:3054  retailers[walletRetailer].id == 0 && deleteRetailerFromList(walletRetailer) */\n    tag_105:\n        /* \"contracts/Actor/Retailer-smart-contract/RetailerStorage.sol\":2976:3137  if(retailers[walletRetailer].id == 0 && deleteRetailerFromList(walletRetailer)){... */\n      iszero\n      tag_108\n      jumpi\n        /* \"contracts/Actor/Retailer-smart-contract/RetailerStorage.sol\":3077:3081  true */\n      0x01\n        /* \"contracts/Actor/Retailer-smart-contract/RetailerStorage.sol\":3070:3081  return true */\n      swap1\n      pop\n      jump(tag_100)\n        /* \"contracts/Actor/Retailer-smart-contract/RetailerStorage.sol\":2976:3137  if(retailers[walletRetailer].id == 0 && deleteRetailerFromList(walletRetailer)){... */\n    tag_108:\n        /* \"contracts/Actor/Retailer-smart-contract/RetailerStorage.sol\":3120:3125  false */\n      0x00\n        /* \"contracts/Actor/Retailer-smart-contract/RetailerStorage.sol\":3113:3125  return false */\n      swap1\n      pop\n        /* \"contracts/Actor/Retailer-smart-contract/RetailerStorage.sol\":2852:3144  function deleteUser(address walletRetailer) external returns(bool){... */\n    tag_100:\n      swap2\n      swap1\n      pop\n      jump\t// out\n        /* \"contracts/Actor/Retailer-smart-contract/RetailerStorage.sol\":3879:4049  function getId(address walletRetailer) external view  returns(uint256){... */\n    tag_38:\n        /* \"contracts/Actor/Retailer-smart-contract/RetailerStorage.sol\":3941:3948  uint256 */\n      0x00\n        /* \"contracts/Actor/Retailer-smart-contract/RetailerStorage.sol\":3960:3984  Retailer memory retailer */\n      dup1\n        /* \"contracts/Actor/Retailer-smart-contract/RetailerStorage.sol\":3987:3996  retailers */\n      0x01\n        /* \"contracts/Actor/Retailer-smart-contract/RetailerStorage.sol\":3987:4012  retailers[walletRetailer] */\n      0x00\n        /* \"contracts/Actor/Retailer-smart-contract/RetailerStorage.sol\":3997:4011  walletRetailer */\n      dup5\n        /* \"contracts/Actor/Retailer-smart-contract/RetailerStorage.sol\":3987:4012  retailers[walletRetailer] */\n      0xffffffffffffffffffffffffffffffffffffffff\n      and\n      0xffffffffffffffffffffffffffffffffffffffff\n      and\n      dup2\n      mstore\n      0x20\n      add\n      swap1\n      dup2\n      mstore\n      0x20\n      add\n      0x00\n      keccak256\n        /* \"contracts/Actor/Retailer-smart-contract/RetailerStorage.sol\":3960:4012  Retailer memory retailer = retailers[walletRetailer] */\n      mload(0x40)\n      dup1\n      0xa0\n      add\n      0x40\n      mstore\n      swap1\n      dup2\n      0x00\n      dup3\n      add\n      sload\n      dup2\n      mstore\n      0x20\n      add\n      0x01\n      dup3\n      add\n      dup1\n      sload\n      tag_111\n      swap1\n      tag_85\n      jump\t// in\n    tag_111:\n      dup1\n      0x1f\n      add\n      0x20\n      dup1\n      swap2\n      div\n      mul\n      0x20\n      add\n      mload(0x40)\n      swap1\n      dup2\n      add\n      0x40\n      mstore\n      dup1\n      swap3\n      swap2\n      swap1\n      dup2\n      dup2\n      mstore\n      0x20\n      add\n      dup3\n      dup1\n      sload\n      tag_112\n      swap1\n      tag_85\n      jump\t// in\n    tag_112:\n      dup1\n      iszero\n      tag_113\n      jumpi\n      dup1\n      0x1f\n      lt\n      tag_114\n      jumpi\n      0x0100\n      dup1\n      dup4\n      sload\n      div\n      mul\n      dup4\n      mstore\n      swap2\n      0x20\n      add\n      swap2\n      jump(tag_113)\n    tag_114:\n      dup3\n      add\n      swap2\n      swap1\n      0x00\n      mstore\n      keccak256(0x00, 0x20)\n      swap1\n    tag_115:\n      dup2\n      sload\n      dup2\n      mstore\n      swap1\n      0x01\n      add\n      swap1\n      0x20\n      add\n      dup1\n      dup4\n      gt\n      tag_115\n      jumpi\n      dup3\n      swap1\n      sub\n      0x1f\n      and\n      dup3\n      add\n      swap2\n    tag_113:\n      pop\n      pop\n      pop\n      pop\n      pop\n      dup2\n      mstore\n      0x20\n      add\n      0x02\n      dup3\n      add\n      dup1\n      sload\n      tag_116\n      swap1\n      tag_85\n      jump\t// in\n    tag_116:\n      dup1\n      0x1f\n      add\n      0x20\n      dup1\n      swap2\n      div\n      mul\n      0x20\n      add\n      mload(0x40)\n      swap1\n      dup2\n      add\n      0x40\n      mstore\n      dup1\n      swap3\n      swap2\n      swap1\n      dup2\n      dup2\n      mstore\n      0x20\n      add\n      dup3\n      dup1\n      sload\n      tag_117\n      swap1\n      tag_85\n      jump\t// in\n    tag_117:\n      dup1\n      iszero\n      tag_118\n      jumpi\n      dup1\n      0x1f\n      lt\n      tag_119\n      jumpi\n      0x0100\n      dup1\n      dup4\n      sload\n      div\n      mul\n      dup4\n      mstore\n      swap2\n      0x20\n      add\n      swap2\n      jump(tag_118)\n    tag_119:\n      dup3\n      add\n      swap2\n      swap1\n      0x00\n      mstore\n      keccak256(0x00, 0x20)\n      swap1\n    tag_120:\n      dup2\n      sload\n      dup2\n      mstore\n      swap1\n      0x01\n      add\n      swap1\n      0x20\n      add\n      dup1\n      dup4\n      gt\n      tag_120\n      jumpi\n      dup3\n      swap1\n      sub\n      0x1f\n      and\n      dup3\n      add\n      swap2\n    tag_118:\n      pop\n      pop\n      pop\n      pop\n      pop\n      dup2\n      mstore\n      0x20\n      add\n      0x03\n      dup3\n      add\n      dup1\n      sload\n      tag_121\n      swap1\n      tag_85\n      jump\t// in\n    tag_121:\n      dup1\n      0x1f\n      add\n      0x20\n      dup1\n      swap2\n      div\n      mul\n      0x20\n      add\n      mload(0x40)\n      swap1\n      dup2\n      add\n      0x40\n      mstore\n      dup1\n      swap3\n      swap2\n      swap1\n      dup2\n      dup2\n      mstore\n      0x20\n      add\n      dup3\n      dup1\n      sload\n      tag_122\n      swap1\n      tag_85\n      jump\t// in\n    tag_122:\n      dup1\n      iszero\n      tag_123\n      jumpi\n      dup1\n      0x1f\n      lt\n      tag_124\n      jumpi\n      0x0100\n      dup1\n      dup4\n      sload\n      div\n      mul\n      dup4\n      mstore\n      swap2\n      0x20\n      add\n      swap2\n      jump(tag_123)\n    tag_124:\n      dup3\n      add\n      swap2\n      swap1\n      0x00\n      mstore\n      keccak256(0x00, 0x20)\n      swap1\n    tag_125:\n      dup2\n      sload\n      dup2\n      mstore\n      swap1\n      0x01\n      add\n      swap1\n      0x20\n      add\n      dup1\n      dup4\n      gt\n      tag_125\n      jumpi\n      dup3\n      swap1\n      sub\n      0x1f\n      and\n      dup3\n      add\n      swap2\n    tag_123:\n      pop\n      pop\n      pop\n      pop\n      pop\n      dup2\n      mstore\n      0x20\n      add\n      0x04\n      dup3\n      add\n      sload\n      dup2\n      mstore\n      pop\n      pop\n      swap1\n      pop\n        /* \"contracts/Actor/Retailer-smart-contract/RetailerStorage.sol\":4030:4038  retailer */\n      dup1\n        /* \"contracts/Actor/Retailer-smart-contract/RetailerStorage.sol\":4030:4041  retailer.id */\n      0x00\n      add\n      mload\n        /* \"contracts/Actor/Retailer-smart-contract/RetailerStorage.sol\":4023:4041  return retailer.id */\n      swap2\n      pop\n      pop\n        /* \"contracts/Actor/Retailer-smart-contract/RetailerStorage.sol\":3879:4049  function getId(address walletRetailer) external view  returns(uint256){... */\n      swap2\n      swap1\n      pop\n      jump\t// out\n        /* \"contracts/Actor/Retailer-smart-contract/RetailerStorage.sol\":4181:4462  function getFullName(address walletRetailer, uint256 _id) external view  returns(string memory){... */\n    tag_42:\n        /* \"contracts/Actor/Retailer-smart-contract/RetailerStorage.sol\":4262:4275  string memory */\n      0x60\n        /* \"contracts/Actor/Retailer-smart-contract/RetailerStorage.sol\":4326:4329  _id */\n      dup2\n        /* \"contracts/Actor/Retailer-smart-contract/RetailerStorage.sol\":4295:4304  retailers */\n      0x01\n        /* \"contracts/Actor/Retailer-smart-contract/RetailerStorage.sol\":4295:4320  retailers[walletRetailer] */\n      0x00\n        /* \"contracts/Actor/Retailer-smart-contract/RetailerStorage.sol\":4305:4319  walletRetailer */\n      dup6\n        /* \"contracts/Actor/Retailer-smart-contract/RetailerStorage.sol\":4295:4320  retailers[walletRetailer] */\n      0xffffffffffffffffffffffffffffffffffffffff\n      and\n      0xffffffffffffffffffffffffffffffffffffffff\n      and\n      dup2\n      mstore\n      0x20\n      add\n      swap1\n      dup2\n      mstore\n      0x20\n      add\n      0x00\n      keccak256\n        /* \"contracts/Actor/Retailer-smart-contract/RetailerStorage.sol\":4295:4323  retailers[walletRetailer].id */\n      0x00\n      add\n      sload\n        /* \"contracts/Actor/Retailer-smart-contract/RetailerStorage.sol\":4295:4329  retailers[walletRetailer].id ==_id */\n      eq\n        /* \"contracts/Actor/Retailer-smart-contract/RetailerStorage.sol\":4287:4346  require(retailers[walletRetailer].id ==_id,\"ID not Valid!\") */\n      tag_127\n      jumpi\n      mload(0x40)\n      0x08c379a000000000000000000000000000000000000000000000000000000000\n      dup2\n      mstore\n      0x04\n      add\n      tag_128\n      swap1\n      tag_83\n      jump\t// in\n    tag_128:\n      mload(0x40)\n      dup1\n      swap2\n      sub\n      swap1\n      revert\n    tag_127:\n        /* \"contracts/Actor/Retailer-smart-contract/RetailerStorage.sol\":4367:4391  Retailer memory retailer */\n      0x00\n        /* \"contracts/Actor/Retailer-smart-contract/RetailerStorage.sol\":4394:4403  retailers */\n      0x01\n        /* \"contracts/Actor/Retailer-smart-contract/RetailerStorage.sol\":4394:4419  retailers[walletRetailer] */\n      0x00\n        /* \"contracts/Actor/Retailer-smart-contract/RetailerStorage.sol\":4404:4418  walletRetailer */\n      dup6\n        /* \"contracts/Actor/Retailer-smart-contract/RetailerStorage.sol\":4394:4419  retailers[walletRetailer] */\n      0xffffffffffffffffffffffffffffffffffffffff\n      and\n      0xffffffffffffffffffffffffffffffffffffffff\n      and\n      dup2\n      mstore\n      0x20\n      add\n      swap1\n      dup2\n      mstore\n      0x20\n      add\n      0x00\n      keccak256\n        /* \"contracts/Actor/Retailer-smart-contract/RetailerStorage.sol\":4367:4419  Retailer memory retailer = retailers[walletRetailer] */\n      mload(0x40)\n      dup1\n      0xa0\n      add\n      0x40\n      mstore\n      swap1\n      dup2\n      0x00\n      dup3\n      add\n      sload\n      dup2\n      mstore\n      0x20\n      add\n      0x01\n      dup3\n      add\n      dup1\n      sload\n      tag_129\n      swap1\n      tag_85\n      jump\t// in\n    tag_129:\n      dup1\n      0x1f\n      add\n      0x20\n      dup1\n      swap2\n      div\n      mul\n      0x20\n      add\n      mload(0x40)\n      swap1\n      dup2\n      add\n      0x40\n      mstore\n      dup1\n      swap3\n      swap2\n      swap1\n      dup2\n      dup2\n      mstore\n      0x20\n      add\n      dup3\n      dup1\n      sload\n      tag_130\n      swap1\n      tag_85\n      jump\t// in\n    tag_130:\n      dup1\n      iszero\n      tag_131\n      jumpi\n      dup1\n      0x1f\n      lt\n      tag_132\n      jumpi\n      0x0100\n      dup1\n      dup4\n      sload\n      div\n      mul\n      dup4\n      mstore\n      swap2\n      0x20\n      add\n      swap2\n      jump(tag_131)\n    tag_132:\n      dup3\n      add\n      swap2\n      swap1\n      0x00\n      mstore\n      keccak256(0x00, 0x20)\n      swap1\n    tag_133:\n      dup2\n      sload\n      dup2\n      mstore\n      swap1\n      0x01\n      add\n      swap1\n      0x20\n      add\n      dup1\n      dup4\n      gt\n      tag_133\n      jumpi\n      dup3\n      swap1\n      sub\n      0x1f\n      and\n      dup3\n      add\n      swap2\n    tag_131:\n      pop\n      pop\n      pop\n      pop\n      pop\n      dup2\n      mstore\n      0x20\n      add\n      0x02\n      dup3\n      add\n      dup1\n      sload\n      tag_134\n      swap1\n      tag_85\n      jump\t// in\n    tag_134:\n      dup1\n      0x1f\n      add\n      0x20\n      dup1\n      swap2\n      div\n      mul\n      0x20\n      add\n      mload(0x40)\n      swap1\n      dup2\n      add\n      0x40\n      mstore\n      dup1\n      swap3\n      swap2\n      swap1\n      dup2\n      dup2\n      mstore\n      0x20\n      add\n      dup3\n      dup1\n      sload\n      tag_135\n      swap1\n      tag_85\n      jump\t// in\n    tag_135:\n      dup1\n      iszero\n      tag_136\n      jumpi\n      dup1\n      0x1f\n      lt\n      tag_137\n      jumpi\n      0x0100\n      dup1\n      dup4\n      sload\n      div\n      mul\n      dup4\n      mstore\n      swap2\n      0x20\n      add\n      swap2\n      jump(tag_136)\n    tag_137:\n      dup3\n      add\n      swap2\n      swap1\n      0x00\n      mstore\n      keccak256(0x00, 0x20)\n      swap1\n    tag_138:\n      dup2\n      sload\n      dup2\n      mstore\n      swap1\n      0x01\n      add\n      swap1\n      0x20\n      add\n      dup1\n      dup4\n      gt\n      tag_138\n      jumpi\n      dup3\n      swap1\n      sub\n      0x1f\n      and\n      dup3\n      add\n      swap2\n    tag_136:\n      pop\n      pop\n      pop\n      pop\n      pop\n      dup2\n      mstore\n      0x20\n      add\n      0x03\n      dup3\n      add\n      dup1\n      sload\n      tag_139\n      swap1\n      tag_85\n      jump\t// in\n    tag_139:\n      dup1\n      0x1f\n      add\n      0x20\n      dup1\n      swap2\n      div\n      mul\n      0x20\n      add\n      mload(0x40)\n      swap1\n      dup2\n      add\n      0x40\n      mstore\n      dup1\n      swap3\n      swap2\n      swap1\n      dup2\n      dup2\n      mstore\n      0x20\n      add\n      dup3\n      dup1\n      sload\n      tag_140\n      swap1\n      tag_85\n      jump\t// in\n    tag_140:\n      dup1\n      iszero\n      tag_141\n      jumpi\n      dup1\n      0x1f\n      lt\n      tag_142\n      jumpi\n      0x0100\n      dup1\n      dup4\n      sload\n      div\n      mul\n      dup4\n      mstore\n      swap2\n      0x20\n      add\n      swap2\n      jump(tag_141)\n    tag_142:\n      dup3\n      add\n      swap2\n      swap1\n      0x00\n      mstore\n      keccak256(0x00, 0x20)\n      swap1\n    tag_143:\n      dup2\n      sload\n      dup2\n      mstore\n      swap1\n      0x01\n      add\n      swap1\n      0x20\n      add\n      dup1\n      dup4\n      gt\n      tag_143\n      jumpi\n      dup3\n      swap1\n      sub\n      0x1f\n      and\n      dup3\n      add\n      swap2\n    tag_141:\n      pop\n      pop\n      pop\n      pop\n      pop\n      dup2\n      mstore\n      0x20\n      add\n      0x04\n      dup3\n      add\n      sload\n      dup2\n      mstore\n      pop\n      pop\n      swap1\n      pop\n        /* \"contracts/Actor/Retailer-smart-contract/RetailerStorage.sol\":4437:4445  retailer */\n      dup1\n        /* \"contracts/Actor/Retailer-smart-contract/RetailerStorage.sol\":4437:4454  retailer.fullName */\n      0x20\n      add\n      mload\n        /* \"contracts/Actor/Retailer-smart-contract/RetailerStorage.sol\":4430:4454  return retailer.fullName */\n      swap2\n      pop\n      pop\n        /* \"contracts/Actor/Retailer-smart-contract/RetailerStorage.sol\":4181:4462  function getFullName(address walletRetailer, uint256 _id) external view  returns(string memory){... */\n      swap3\n      swap2\n      pop\n      pop\n      jump\t// out\n        /* \"contracts/Actor/Retailer-smart-contract/RetailerStorage.sol\":5417:5843  function getUser(address walletRetailer) external view returns (uint256, string memory, string memory, string memory, uint256) {... */\n    tag_47:\n        /* \"contracts/Actor/Retailer-smart-contract/RetailerStorage.sol\":5481:5488  uint256 */\n      0x00\n        /* \"contracts/Actor/Retailer-smart-contract/RetailerStorage.sol\":5490:5503  string memory */\n      0x60\n        /* \"contracts/Actor/Retailer-smart-contract/RetailerStorage.sol\":5505:5518  string memory */\n      dup1\n        /* \"contracts/Actor/Retailer-smart-contract/RetailerStorage.sol\":5520:5533  string memory */\n      0x60\n        /* \"contracts/Actor/Retailer-smart-contract/RetailerStorage.sol\":5535:5542  uint256 */\n      0x00\n        /* \"contracts/Actor/Retailer-smart-contract/RetailerStorage.sol\":5557:5581  Retailer memory retailer */\n      dup1\n        /* \"contracts/Actor/Retailer-smart-contract/RetailerStorage.sol\":5584:5593  retailers */\n      0x01\n        /* \"contracts/Actor/Retailer-smart-contract/RetailerStorage.sol\":5584:5609  retailers[walletRetailer] */\n      0x00\n        /* \"contracts/Actor/Retailer-smart-contract/RetailerStorage.sol\":5594:5608  walletRetailer */\n      dup9\n        /* \"contracts/Actor/Retailer-smart-contract/RetailerStorage.sol\":5584:5609  retailers[walletRetailer] */\n      0xffffffffffffffffffffffffffffffffffffffff\n      and\n      0xffffffffffffffffffffffffffffffffffffffff\n      and\n      dup2\n      mstore\n      0x20\n      add\n      swap1\n      dup2\n      mstore\n      0x20\n      add\n      0x00\n      keccak256\n        /* \"contracts/Actor/Retailer-smart-contract/RetailerStorage.sol\":5557:5609  Retailer memory retailer = retailers[walletRetailer] */\n      mload(0x40)\n      dup1\n      0xa0\n      add\n      0x40\n      mstore\n      swap1\n      dup2\n      0x00\n      dup3\n      add\n      sload\n      dup2\n      mstore\n      0x20\n      add\n      0x01\n      dup3\n      add\n      dup1\n      sload\n      tag_145\n      swap1\n      tag_85\n      jump\t// in\n    tag_145:\n      dup1\n      0x1f\n      add\n      0x20\n      dup1\n      swap2\n      div\n      mul\n      0x20\n      add\n      mload(0x40)\n      swap1\n      dup2\n      add\n      0x40\n      mstore\n      dup1\n      swap3\n      swap2\n      swap1\n      dup2\n      dup2\n      mstore\n      0x20\n      add\n      dup3\n      dup1\n      sload\n      tag_146\n      swap1\n      tag_85\n      jump\t// in\n    tag_146:\n      dup1\n      iszero\n      tag_147\n      jumpi\n      dup1\n      0x1f\n      lt\n      tag_148\n      jumpi\n      0x0100\n      dup1\n      dup4\n      sload\n      div\n      mul\n      dup4\n      mstore\n      swap2\n      0x20\n      add\n      swap2\n      jump(tag_147)\n    tag_148:\n      dup3\n      add\n      swap2\n      swap1\n      0x00\n      mstore\n      keccak256(0x00, 0x20)\n      swap1\n    tag_149:\n      dup2\n      sload\n      dup2\n      mstore\n      swap1\n      0x01\n      add\n      swap1\n      0x20\n      add\n      dup1\n      dup4\n      gt\n      tag_149\n      jumpi\n      dup3\n      swap1\n      sub\n      0x1f\n      and\n      dup3\n      add\n      swap2\n    tag_147:\n      pop\n      pop\n      pop\n      pop\n      pop\n      dup2\n      mstore\n      0x20\n      add\n      0x02\n      dup3\n      add\n      dup1\n      sload\n      tag_150\n      swap1\n      tag_85\n      jump\t// in\n    tag_150:\n      dup1\n      0x1f\n      add\n      0x20\n      dup1\n      swap2\n      div\n      mul\n      0x20\n      add\n      mload(0x40)\n      swap1\n      dup2\n      add\n      0x40\n      mstore\n      dup1\n      swap3\n      swap2\n      swap1\n      dup2\n      dup2\n      mstore\n      0x20\n      add\n      dup3\n      dup1\n      sload\n      tag_151\n      swap1\n      tag_85\n      jump\t// in\n    tag_151:\n      dup1\n      iszero\n      tag_152\n      jumpi\n      dup1\n      0x1f\n      lt\n      tag_153\n      jumpi\n      0x0100\n      dup1\n      dup4\n      sload\n      div\n      mul\n      dup4\n      mstore\n      swap2\n      0x20\n      add\n      swap2\n      jump(tag_152)\n    tag_153:\n      dup3\n      add\n      swap2\n      swap1\n      0x00\n      mstore\n      keccak256(0x00, 0x20)\n      swap1\n    tag_154:\n      dup2\n      sload\n      dup2\n      mstore\n      swap1\n      0x01\n      add\n      swap1\n      0x20\n      add\n      dup1\n      dup4\n      gt\n      tag_154\n      jumpi\n      dup3\n      swap1\n      sub\n      0x1f\n      and\n      dup3\n      add\n      swap2\n    tag_152:\n      pop\n      pop\n      pop\n      pop\n      pop\n      dup2\n      mstore\n      0x20\n      add\n      0x03\n      dup3\n      add\n      dup1\n      sload\n      tag_155\n      swap1\n      tag_85\n      jump\t// in\n    tag_155:\n      dup1\n      0x1f\n      add\n      0x20\n      dup1\n      swap2\n      div\n      mul\n      0x20\n      add\n      mload(0x40)\n      swap1\n      dup2\n      add\n      0x40\n      mstore\n      dup1\n      swap3\n      swap2\n      swap1\n      dup2\n      dup2\n      mstore\n      0x20\n      add\n      dup3\n      dup1\n      sload\n      tag_156\n      swap1\n      tag_85\n      jump\t// in\n    tag_156:\n      dup1\n      iszero\n      tag_157\n      jumpi\n      dup1\n      0x1f\n      lt\n      tag_158\n      jumpi\n      0x0100\n      dup1\n      dup4\n      sload\n      div\n      mul\n      dup4\n      mstore\n      swap2\n      0x20\n      add\n      swap2\n      jump(tag_157)\n    tag_158:\n      dup3\n      add\n      swap2\n      swap1\n      0x00\n      mstore\n      keccak256(0x00, 0x20)\n      swap1\n    tag_159:\n      dup2\n      sload\n      dup2\n      mstore\n      swap1\n      0x01\n      add\n      swap1\n      0x20\n      add\n      dup1\n      dup4\n      gt\n      tag_159\n      jumpi\n      dup3\n      swap1\n      sub\n      0x1f\n      and\n      dup3\n      add\n      swap2\n    tag_157:\n      pop\n      pop\n      pop\n      pop\n      pop\n      dup2\n      mstore\n      0x20\n      add\n      0x04\n      dup3\n      add\n      sload\n      dup2\n      mstore\n      pop\n      pop\n      swap1\n      pop\n        /* \"contracts/Actor/Retailer-smart-contract/RetailerStorage.sol\":5691:5699  retailer */\n      dup1\n        /* \"contracts/Actor/Retailer-smart-contract/RetailerStorage.sol\":5691:5702  retailer.id */\n      0x00\n      add\n      mload\n        /* \"contracts/Actor/Retailer-smart-contract/RetailerStorage.sol\":5714:5722  retailer */\n      dup2\n        /* \"contracts/Actor/Retailer-smart-contract/RetailerStorage.sol\":5714:5731  retailer.fullName */\n      0x20\n      add\n      mload\n        /* \"contracts/Actor/Retailer-smart-contract/RetailerStorage.sol\":5744:5752  retailer */\n      dup3\n        /* \"contracts/Actor/Retailer-smart-contract/RetailerStorage.sol\":5744:5761  retailer.password */\n      0x40\n      add\n      mload\n        /* \"contracts/Actor/Retailer-smart-contract/RetailerStorage.sol\":5775:5783  retailer */\n      dup4\n        /* \"contracts/Actor/Retailer-smart-contract/RetailerStorage.sol\":5775:5789  retailer.email */\n      0x60\n      add\n      mload\n        /* \"contracts/Actor/Retailer-smart-contract/RetailerStorage.sol\":5804:5812  retailer */\n      dup5\n        /* \"contracts/Actor/Retailer-smart-contract/RetailerStorage.sol\":5804:5820  retailer.balance */\n      0x80\n      add\n      mload\n        /* \"contracts/Actor/Retailer-smart-contract/RetailerStorage.sol\":5669:5835  return (... */\n      swap6\n      pop\n      swap6\n      pop\n      swap6\n      pop\n      swap6\n      pop\n      swap6\n      pop\n      pop\n        /* \"contracts/Actor/Retailer-smart-contract/RetailerStorage.sol\":5417:5843  function getUser(address walletRetailer) external view returns (uint256, string memory, string memory, string memory, uint256) {... */\n      swap2\n      swap4\n      swap6\n      swap1\n      swap3\n      swap5\n      pop\n      jump\t// out\n        /* \"contracts/Actor/Retailer-smart-contract/RetailerStorage.sol\":3485:3618  function isUserPresent(address walletRetailer) external view returns(bool){... */\n    tag_52:\n        /* \"contracts/Actor/Retailer-smart-contract/RetailerStorage.sol\":3554:3558  bool */\n      0x00\n        /* \"contracts/Actor/Retailer-smart-contract/RetailerStorage.sol\":3609:3610  0 */\n      dup1\n        /* \"contracts/Actor/Retailer-smart-contract/RetailerStorage.sol\":3579:3588  retailers */\n      0x01\n        /* \"contracts/Actor/Retailer-smart-contract/RetailerStorage.sol\":3579:3604  retailers[walletRetailer] */\n      0x00\n        /* \"contracts/Actor/Retailer-smart-contract/RetailerStorage.sol\":3589:3603  walletRetailer */\n      dup5\n        /* \"contracts/Actor/Retailer-smart-contract/RetailerStorage.sol\":3579:3604  retailers[walletRetailer] */\n      0xffffffffffffffffffffffffffffffffffffffff\n      and\n      0xffffffffffffffffffffffffffffffffffffffff\n      and\n      dup2\n      mstore\n      0x20\n      add\n      swap1\n      dup2\n      mstore\n      0x20\n      add\n      0x00\n      keccak256\n        /* \"contracts/Actor/Retailer-smart-contract/RetailerStorage.sol\":3579:3607  retailers[walletRetailer].id */\n      0x00\n      add\n      sload\n        /* \"contracts/Actor/Retailer-smart-contract/RetailerStorage.sol\":3579:3610  retailers[walletRetailer].id!=0 */\n      eq\n      iszero\n        /* \"contracts/Actor/Retailer-smart-contract/RetailerStorage.sol\":3572:3610  return retailers[walletRetailer].id!=0 */\n      swap1\n      pop\n        /* \"contracts/Actor/Retailer-smart-contract/RetailerStorage.sol\":3485:3618  function isUserPresent(address walletRetailer) external view returns(bool){... */\n      swap2\n      swap1\n      pop\n      jump\t// out\n        /* \"contracts/Actor/Retailer-smart-contract/RetailerStorage.sol\":880:2062  function addUser(string memory _fullName, string memory _password,string memory _email, address walletRetailer) external {... */\n    tag_57:\n        /* \"contracts/Actor/Retailer-smart-contract/RetailerStorage.sol\":1088:1102  bytes32 idHash */\n      0x00\n        /* \"contracts/Actor/Retailer-smart-contract/RetailerStorage.sol\":1105:1178  ripemd160(abi.encodePacked(_fullName, _password, _email, walletRetailer)) */\n      0x03\n        /* \"contracts/Actor/Retailer-smart-contract/RetailerStorage.sol\":1132:1141  _fullName */\n      dup6\n        /* \"contracts/Actor/Retailer-smart-contract/RetailerStorage.sol\":1143:1152  _password */\n      dup6\n        /* \"contracts/Actor/Retailer-smart-contract/RetailerStorage.sol\":1154:1160  _email */\n      dup6\n        /* \"contracts/Actor/Retailer-smart-contract/RetailerStorage.sol\":1162:1176  walletRetailer */\n      dup6\n        /* \"contracts/Actor/Retailer-smart-contract/RetailerStorage.sol\":1115:1177  abi.encodePacked(_fullName, _password, _email, walletRetailer) */\n      add(0x20, mload(0x40))\n      tag_162\n      swap5\n      swap4\n      swap3\n      swap2\n      swap1\n      tag_163\n      jump\t// in\n    tag_162:\n      mload(0x40)\n      0x20\n      dup2\n      dup4\n      sub\n      sub\n      dup2\n      mstore\n      swap1\n      0x40\n      mstore\n        /* \"contracts/Actor/Retailer-smart-contract/RetailerStorage.sol\":1105:1178  ripemd160(abi.encodePacked(_fullName, _password, _email, walletRetailer)) */\n      mload(0x40)\n      tag_164\n      swap2\n      swap1\n      tag_72\n      jump\t// in\n    tag_164:\n      0x20\n      mload(0x40)\n      dup1\n      dup4\n      sub\n      dup2\n      dup6\n      gas\n      staticcall\n      iszero\n      dup1\n      iszero\n      tag_166\n      jumpi\n      returndatasize\n      0x00\n      dup1\n      returndatacopy\n      revert(0x00, returndatasize)\n    tag_166:\n      pop\n      pop\n      pop\n      shl(0x60, mload(mload(0x40)))\n        /* \"contracts/Actor/Retailer-smart-contract/RetailerStorage.sol\":1088:1178  bytes32 idHash = ripemd160(abi.encodePacked(_fullName, _password, _email, walletRetailer)) */\n      not(0xffffffffffffffffffffffff)\n      and\n      swap1\n      pop\n        /* \"contracts/Actor/Retailer-smart-contract/RetailerStorage.sol\":1219:1241  uint256 lastIdRetailer */\n      0x00\n        /* \"contracts/Actor/Retailer-smart-contract/RetailerStorage.sol\":1252:1258  idHash */\n      dup2\n        /* \"contracts/Actor/Retailer-smart-contract/RetailerStorage.sol\":1244:1259  uint256(idHash) */\n      0x00\n      shr\n        /* \"contracts/Actor/Retailer-smart-contract/RetailerStorage.sol\":1219:1259  uint256 lastIdRetailer = uint256(idHash) */\n      swap1\n      pop\n        /* \"contracts/Actor/Retailer-smart-contract/RetailerStorage.sol\":1312:1313  0 */\n      0x00\n        /* \"contracts/Actor/Retailer-smart-contract/RetailerStorage.sol\":1280:1289  retailers */\n      0x01\n        /* \"contracts/Actor/Retailer-smart-contract/RetailerStorage.sol\":1280:1305  retailers[walletRetailer] */\n      0x00\n        /* \"contracts/Actor/Retailer-smart-contract/RetailerStorage.sol\":1290:1304  walletRetailer */\n      dup6\n        /* \"contracts/Actor/Retailer-smart-contract/RetailerStorage.sol\":1280:1305  retailers[walletRetailer] */\n      0xffffffffffffffffffffffffffffffffffffffff\n      and\n      0xffffffffffffffffffffffffffffffffffffffff\n      and\n      dup2\n      mstore\n      0x20\n      add\n      swap1\n      dup2\n      mstore\n      0x20\n      add\n      0x00\n      keccak256\n        /* \"contracts/Actor/Retailer-smart-contract/RetailerStorage.sol\":1280:1308  retailers[walletRetailer].id */\n      0x00\n      add\n      sload\n        /* \"contracts/Actor/Retailer-smart-contract/RetailerStorage.sol\":1280:1313  retailers[walletRetailer].id == 0 */\n      eq\n        /* \"contracts/Actor/Retailer-smart-contract/RetailerStorage.sol\":1272:1345  require(retailers[walletRetailer].id == 0, \"Retailer already registered\") */\n      tag_167\n      jumpi\n      mload(0x40)\n      0x08c379a000000000000000000000000000000000000000000000000000000000\n      dup2\n      mstore\n      0x04\n      add\n      tag_168\n      swap1\n      tag_169\n      jump\t// in\n    tag_168:\n      mload(0x40)\n      dup1\n      swap2\n      sub\n      swap1\n      revert\n    tag_167:\n        /* \"contracts/Actor/Retailer-smart-contract/RetailerStorage.sol\":1390:1391  0 */\n      0x00\n        /* \"contracts/Actor/Retailer-smart-contract/RetailerStorage.sol\":1370:1379  _fullName */\n      dup7\n        /* \"contracts/Actor/Retailer-smart-contract/RetailerStorage.sol\":1364:1387  bytes(_fullName).length */\n      mload\n        /* \"contracts/Actor/Retailer-smart-contract/RetailerStorage.sol\":1364:1391  bytes(_fullName).length > 0 */\n      gt\n        /* \"contracts/Actor/Retailer-smart-contract/RetailerStorage.sol\":1356:1421  require(bytes(_fullName).length > 0, \"Full name cannot be empty\") */\n      tag_170\n      jumpi\n      mload(0x40)\n      0x08c379a000000000000000000000000000000000000000000000000000000000\n      dup2\n      mstore\n      0x04\n      add\n      tag_171\n      swap1\n      tag_172\n      jump\t// in\n    tag_171:\n      mload(0x40)\n      dup1\n      swap2\n      sub\n      swap1\n      revert\n    tag_170:\n        /* \"contracts/Actor/Retailer-smart-contract/RetailerStorage.sol\":1466:1467  0 */\n      0x00\n        /* \"contracts/Actor/Retailer-smart-contract/RetailerStorage.sol\":1446:1455  _password */\n      dup6\n        /* \"contracts/Actor/Retailer-smart-contract/RetailerStorage.sol\":1440:1463  bytes(_password).length */\n      mload\n        /* \"contracts/Actor/Retailer-smart-contract/RetailerStorage.sol\":1440:1467  bytes(_password).length > 0 */\n      gt\n        /* \"contracts/Actor/Retailer-smart-contract/RetailerStorage.sol\":1432:1496  require(bytes(_password).length > 0, \"Password cannot be empty\") */\n      tag_173\n      jumpi\n      mload(0x40)\n      0x08c379a000000000000000000000000000000000000000000000000000000000\n      dup2\n      mstore\n      0x04\n      add\n      tag_174\n      swap1\n      tag_175\n      jump\t// in\n    tag_174:\n      mload(0x40)\n      dup1\n      swap2\n      sub\n      swap1\n      revert\n    tag_173:\n        /* \"contracts/Actor/Retailer-smart-contract/RetailerStorage.sol\":1538:1539  0 */\n      0x00\n        /* \"contracts/Actor/Retailer-smart-contract/RetailerStorage.sol\":1521:1527  _email */\n      dup5\n        /* \"contracts/Actor/Retailer-smart-contract/RetailerStorage.sol\":1515:1535  bytes(_email).length */\n      mload\n        /* \"contracts/Actor/Retailer-smart-contract/RetailerStorage.sol\":1515:1539  bytes(_email).length > 0 */\n      gt\n        /* \"contracts/Actor/Retailer-smart-contract/RetailerStorage.sol\":1507:1565  require(bytes(_email).length > 0, \"Email cannot be empty\") */\n      tag_176\n      jumpi\n      mload(0x40)\n      0x08c379a000000000000000000000000000000000000000000000000000000000\n      dup2\n      mstore\n      0x04\n      add\n      tag_177\n      swap1\n      tag_178\n      jump\t// in\n    tag_177:\n      mload(0x40)\n      dup1\n      swap2\n      sub\n      swap1\n      revert\n    tag_176:\n        /* \"contracts/Actor/Retailer-smart-contract/RetailerStorage.sol\":1641:1668  Retailer memory newRetailer */\n      0x00\n        /* \"contracts/Actor/Retailer-smart-contract/RetailerStorage.sol\":1671:1848  Retailer({... */\n      mload(0x40)\n      dup1\n      0xa0\n      add\n      0x40\n      mstore\n      dup1\n        /* \"contracts/Actor/Retailer-smart-contract/RetailerStorage.sol\":1699:1713  lastIdRetailer */\n      dup4\n        /* \"contracts/Actor/Retailer-smart-contract/RetailerStorage.sol\":1671:1848  Retailer({... */\n      dup2\n      mstore\n      0x20\n      add\n        /* \"contracts/Actor/Retailer-smart-contract/RetailerStorage.sol\":1738:1747  _fullName */\n      dup9\n        /* \"contracts/Actor/Retailer-smart-contract/RetailerStorage.sol\":1671:1848  Retailer({... */\n      dup2\n      mstore\n      0x20\n      add\n        /* \"contracts/Actor/Retailer-smart-contract/RetailerStorage.sol\":1772:1781  _password */\n      dup8\n        /* \"contracts/Actor/Retailer-smart-contract/RetailerStorage.sol\":1671:1848  Retailer({... */\n      dup2\n      mstore\n      0x20\n      add\n        /* \"contracts/Actor/Retailer-smart-contract/RetailerStorage.sol\":1803:1809  _email */\n      dup7\n        /* \"contracts/Actor/Retailer-smart-contract/RetailerStorage.sol\":1671:1848  Retailer({... */\n      dup2\n      mstore\n      0x20\n      add\n        /* \"contracts/Actor/Retailer-smart-contract/RetailerStorage.sol\":1833:1836  100 */\n      0x64\n        /* \"contracts/Actor/Retailer-smart-contract/RetailerStorage.sol\":1671:1848  Retailer({... */\n      dup2\n      mstore\n      pop\n        /* \"contracts/Actor/Retailer-smart-contract/RetailerStorage.sol\":1641:1848  Retailer memory newRetailer = Retailer({... */\n      swap1\n      pop\n        /* \"contracts/Actor/Retailer-smart-contract/RetailerStorage.sol\":1892:1903  addressList */\n      0x02\n        /* \"contracts/Actor/Retailer-smart-contract/RetailerStorage.sol\":1909:1923  walletRetailer */\n      dup5\n        /* \"contracts/Actor/Retailer-smart-contract/RetailerStorage.sol\":1892:1924  addressList.push(walletRetailer) */\n      swap1\n      dup1\n      0x01\n      dup2\n      sload\n      add\n      dup1\n      dup3\n      sstore\n      dup1\n      swap2\n      pop\n      pop\n      0x01\n      swap1\n      sub\n      swap1\n      0x00\n      mstore\n      keccak256(0x00, 0x20)\n      add\n      0x00\n      swap1\n      swap2\n      swap1\n      swap2\n      swap1\n      swap2\n      0x0100\n      exp\n      dup2\n      sload\n      dup2\n      0xffffffffffffffffffffffffffffffffffffffff\n      mul\n      not\n      and\n      swap1\n      dup4\n      0xffffffffffffffffffffffffffffffffffffffff\n      and\n      mul\n      or\n      swap1\n      sstore\n      pop\n        /* \"contracts/Actor/Retailer-smart-contract/RetailerStorage.sol\":2043:2054  newRetailer */\n      dup1\n        /* \"contracts/Actor/Retailer-smart-contract/RetailerStorage.sol\":2015:2024  retailers */\n      0x01\n        /* \"contracts/Actor/Retailer-smart-contract/RetailerStorage.sol\":2015:2040  retailers[walletRetailer] */\n      0x00\n        /* \"contracts/Actor/Retailer-smart-contract/RetailerStorage.sol\":2025:2039  walletRetailer */\n      dup7\n        /* \"contracts/Actor/Retailer-smart-contract/RetailerStorage.sol\":2015:2040  retailers[walletRetailer] */\n      0xffffffffffffffffffffffffffffffffffffffff\n      and\n      0xffffffffffffffffffffffffffffffffffffffff\n      and\n      dup2\n      mstore\n      0x20\n      add\n      swap1\n      dup2\n      mstore\n      0x20\n      add\n      0x00\n      keccak256\n        /* \"contracts/Actor/Retailer-smart-contract/RetailerStorage.sol\":2015:2054  retailers[walletRetailer] = newRetailer */\n      0x00\n      dup3\n      add\n      mload\n      dup2\n      0x00\n      add\n      sstore\n      0x20\n      dup3\n      add\n      mload\n      dup2\n      0x01\n      add\n      swap1\n      dup2\n      tag_180\n      swap2\n      swap1\n      tag_181\n      jump\t// in\n    tag_180:\n      pop\n      0x40\n      dup3\n      add\n      mload\n      dup2\n      0x02\n      add\n      swap1\n      dup2\n      tag_182\n      swap2\n      swap1\n      tag_181\n      jump\t// in\n    tag_182:\n      pop\n      0x60\n      dup3\n      add\n      mload\n      dup2\n      0x03\n      add\n      swap1\n      dup2\n      tag_183\n      swap2\n      swap1\n      tag_181\n      jump\t// in\n    tag_183:\n      pop\n      0x80\n      dup3\n      add\n      mload\n      dup2\n      0x04\n      add\n      sstore\n      swap1\n      pop\n      pop\n        /* \"contracts/Actor/Retailer-smart-contract/RetailerStorage.sol\":1001:2062  {... */\n      pop\n      pop\n      pop\n        /* \"contracts/Actor/Retailer-smart-contract/RetailerStorage.sol\":880:2062  function addUser(string memory _fullName, string memory _password,string memory _email, address walletRetailer) external {... */\n      pop\n      pop\n      pop\n      pop\n      jump\t// out\n        /* \"contracts/Actor/Retailer-smart-contract/RetailerStorage.sol\":6128:6290  function updateBalance(address walletRetailer, uint256 balance) external{... */\n    tag_60:\n        /* \"contracts/Actor/Retailer-smart-contract/RetailerStorage.sol\":6275:6282  balance */\n      dup1\n        /* \"contracts/Actor/Retailer-smart-contract/RetailerStorage.sol\":6239:6248  retailers */\n      0x01\n        /* \"contracts/Actor/Retailer-smart-contract/RetailerStorage.sol\":6239:6264  retailers[walletRetailer] */\n      0x00\n        /* \"contracts/Actor/Retailer-smart-contract/RetailerStorage.sol\":6249:6263  walletRetailer */\n      dup5\n        /* \"contracts/Actor/Retailer-smart-contract/RetailerStorage.sol\":6239:6264  retailers[walletRetailer] */\n      0xffffffffffffffffffffffffffffffffffffffff\n      and\n      0xffffffffffffffffffffffffffffffffffffffff\n      and\n      dup2\n      mstore\n      0x20\n      add\n      swap1\n      dup2\n      mstore\n      0x20\n      add\n      0x00\n      keccak256\n        /* \"contracts/Actor/Retailer-smart-contract/RetailerStorage.sol\":6239:6272  retailers[walletRetailer].balance */\n      0x04\n      add\n        /* \"contracts/Actor/Retailer-smart-contract/RetailerStorage.sol\":6239:6282  retailers[walletRetailer].balance = balance */\n      dup2\n      swap1\n      sstore\n      pop\n        /* \"contracts/Actor/Retailer-smart-contract/RetailerStorage.sol\":6128:6290  function updateBalance(address walletRetailer, uint256 balance) external{... */\n      pop\n      pop\n      jump\t// out\n        /* \"contracts/Actor/Retailer-smart-contract/RetailerStorage.sol\":4589:4853  function getEmail(address walletRetailer, uint256 _id) external view  returns(string memory){... */\n    tag_63:\n        /* \"contracts/Actor/Retailer-smart-contract/RetailerStorage.sol\":4667:4680  string memory */\n      0x60\n        /* \"contracts/Actor/Retailer-smart-contract/RetailerStorage.sol\":4730:4733  _id */\n      dup2\n        /* \"contracts/Actor/Retailer-smart-contract/RetailerStorage.sol\":4700:4709  retailers */\n      0x01\n        /* \"contracts/Actor/Retailer-smart-contract/RetailerStorage.sol\":4700:4725  retailers[walletRetailer] */\n      0x00\n        /* \"contracts/Actor/Retailer-smart-contract/RetailerStorage.sol\":4710:4724  walletRetailer */\n      dup6\n        /* \"contracts/Actor/Retailer-smart-contract/RetailerStorage.sol\":4700:4725  retailers[walletRetailer] */\n      0xffffffffffffffffffffffffffffffffffffffff\n      and\n      0xffffffffffffffffffffffffffffffffffffffff\n      and\n      dup2\n      mstore\n      0x20\n      add\n      swap1\n      dup2\n      mstore\n      0x20\n      add\n      0x00\n      keccak256\n        /* \"contracts/Actor/Retailer-smart-contract/RetailerStorage.sol\":4700:4728  retailers[walletRetailer].id */\n      0x00\n      add\n      sload\n        /* \"contracts/Actor/Retailer-smart-contract/RetailerStorage.sol\":4700:4733  retailers[walletRetailer].id==_id */\n      eq\n        /* \"contracts/Actor/Retailer-smart-contract/RetailerStorage.sol\":4692:4750  require(retailers[walletRetailer].id==_id,\"ID not Valid!\") */\n      tag_186\n      jumpi\n      mload(0x40)\n      0x08c379a000000000000000000000000000000000000000000000000000000000\n      dup2\n      mstore\n      0x04\n      add\n      tag_187\n      swap1\n      tag_83\n      jump\t// in\n    tag_187:\n      mload(0x40)\n      dup1\n      swap2\n      sub\n      swap1\n      revert\n    tag_186:\n        /* \"contracts/Actor/Retailer-smart-contract/RetailerStorage.sol\":4761:4785  Retailer memory retailer */\n      0x00\n        /* \"contracts/Actor/Retailer-smart-contract/RetailerStorage.sol\":4788:4797  retailers */\n      0x01\n        /* \"contracts/Actor/Retailer-smart-contract/RetailerStorage.sol\":4788:4813  retailers[walletRetailer] */\n      0x00\n        /* \"contracts/Actor/Retailer-smart-contract/RetailerStorage.sol\":4798:4812  walletRetailer */\n      dup6\n        /* \"contracts/Actor/Retailer-smart-contract/RetailerStorage.sol\":4788:4813  retailers[walletRetailer] */\n      0xffffffffffffffffffffffffffffffffffffffff\n      and\n      0xffffffffffffffffffffffffffffffffffffffff\n      and\n      dup2\n      mstore\n      0x20\n      add\n      swap1\n      dup2\n      mstore\n      0x20\n      add\n      0x00\n      keccak256\n        /* \"contracts/Actor/Retailer-smart-contract/RetailerStorage.sol\":4761:4813  Retailer memory retailer = retailers[walletRetailer] */\n      mload(0x40)\n      dup1\n      0xa0\n      add\n      0x40\n      mstore\n      swap1\n      dup2\n      0x00\n      dup3\n      add\n      sload\n      dup2\n      mstore\n      0x20\n      add\n      0x01\n      dup3\n      add\n      dup1\n      sload\n      tag_188\n      swap1\n      tag_85\n      jump\t// in\n    tag_188:\n      dup1\n      0x1f\n      add\n      0x20\n      dup1\n      swap2\n      div\n      mul\n      0x20\n      add\n      mload(0x40)\n      swap1\n      dup2\n      add\n      0x40\n      mstore\n      dup1\n      swap3\n      swap2\n      swap1\n      dup2\n      dup2\n      mstore\n      0x20\n      add\n      dup3\n      dup1\n      sload\n      tag_189\n      swap1\n      tag_85\n      jump\t// in\n    tag_189:\n      dup1\n      iszero\n      tag_190\n      jumpi\n      dup1\n      0x1f\n      lt\n      tag_191\n      jumpi\n      0x0100\n      dup1\n      dup4\n      sload\n      div\n      mul\n      dup4\n      mstore\n      swap2\n      0x20\n      add\n      swap2\n      jump(tag_190)\n    tag_191:\n      dup3\n      add\n      swap2\n      swap1\n      0x00\n      mstore\n      keccak256(0x00, 0x20)\n      swap1\n    tag_192:\n      dup2\n      sload\n      dup2\n      mstore\n      swap1\n      0x01\n      add\n      swap1\n      0x20\n      add\n      dup1\n      dup4\n      gt\n      tag_192\n      jumpi\n      dup3\n      swap1\n      sub\n      0x1f\n      and\n      dup3\n      add\n      swap2\n    tag_190:\n      pop\n      pop\n      pop\n      pop\n      pop\n      dup2\n      mstore\n      0x20\n      add\n      0x02\n      dup3\n      add\n      dup1\n      sload\n      tag_193\n      swap1\n      tag_85\n      jump\t// in\n    tag_193:\n      dup1\n      0x1f\n      add\n      0x20\n      dup1\n      swap2\n      div\n      mul\n      0x20\n      add\n      mload(0x40)\n      swap1\n      dup2\n      add\n      0x40\n      mstore\n      dup1\n      swap3\n      swap2\n      swap1\n      dup2\n      dup2\n      mstore\n      0x20\n      add\n      dup3\n      dup1\n      sload\n      tag_194\n      swap1\n      tag_85\n      jump\t// in\n    tag_194:\n      dup1\n      iszero\n      tag_195\n      jumpi\n      dup1\n      0x1f\n      lt\n      tag_196\n      jumpi\n      0x0100\n      dup1\n      dup4\n      sload\n      div\n      mul\n      dup4\n      mstore\n      swap2\n      0x20\n      add\n      swap2\n      jump(tag_195)\n    tag_196:\n      dup3\n      add\n      swap2\n      swap1\n      0x00\n      mstore\n      keccak256(0x00, 0x20)\n      swap1\n    tag_197:\n      dup2\n      sload\n      dup2\n      mstore\n      swap1\n      0x01\n      add\n      swap1\n      0x20\n      add\n      dup1\n      dup4\n      gt\n      tag_197\n      jumpi\n      dup3\n      swap1\n      sub\n      0x1f\n      and\n      dup3\n      add\n      swap2\n    tag_195:\n      pop\n      pop\n      pop\n      pop\n      pop\n      dup2\n      mstore\n      0x20\n      add\n      0x03\n      dup3\n      add\n      dup1\n      sload\n      tag_198\n      swap1\n      tag_85\n      jump\t// in\n    tag_198:\n      dup1\n      0x1f\n      add\n      0x20\n      dup1\n      swap2\n      div\n      mul\n      0x20\n      add\n      mload(0x40)\n      swap1\n      dup2\n      add\n      0x40\n      mstore\n      dup1\n      swap3\n      swap2\n      swap1\n      dup2\n      dup2\n      mstore\n      0x20\n      add\n      dup3\n      dup1\n      sload\n      tag_199\n      swap1\n      tag_85\n      jump\t// in\n    tag_199:\n      dup1\n      iszero\n      tag_200\n      jumpi\n      dup1\n      0x1f\n      lt\n      tag_201\n      jumpi\n      0x0100\n      dup1\n      dup4\n      sload\n      div\n      mul\n      dup4\n      mstore\n      swap2\n      0x20\n      add\n      swap2\n      jump(tag_200)\n    tag_201:\n      dup3\n      add\n      swap2\n      swap1\n      0x00\n      mstore\n      keccak256(0x00, 0x20)\n      swap1\n    tag_202:\n      dup2\n      sload\n      dup2\n      mstore\n      swap1\n      0x01\n      add\n      swap1\n      0x20\n      add\n      dup1\n      dup4\n      gt\n      tag_202\n      jumpi\n      dup3\n      swap1\n      sub\n      0x1f\n      and\n      dup3\n      add\n      swap2\n    tag_200:\n      pop\n      pop\n      pop\n      pop\n      pop\n      dup2\n      mstore\n      0x20\n      add\n      0x04\n      dup3\n      add\n      sload\n      dup2\n      mstore\n      pop\n      pop\n      swap1\n      pop\n        /* \"contracts/Actor/Retailer-smart-contract/RetailerStorage.sol\":4831:4839  retailer */\n      dup1\n        /* \"contracts/Actor/Retailer-smart-contract/RetailerStorage.sol\":4831:4845  retailer.email */\n      0x60\n      add\n      mload\n        /* \"contracts/Actor/Retailer-smart-contract/RetailerStorage.sol\":4824:4845  return retailer.email */\n      swap2\n      pop\n      pop\n        /* \"contracts/Actor/Retailer-smart-contract/RetailerStorage.sol\":4589:4853  function getEmail(address walletRetailer, uint256 _id) external view  returns(string memory){... */\n      swap3\n      swap2\n      pop\n      pop\n      jump\t// out\n        /* \"contracts/Actor/Retailer-smart-contract/RetailerStorage.sol\":3152:3444  function deleteRetailerFromList(address walletRetailer)internal returns (bool) {... */\n    tag_107:\n        /* \"contracts/Actor/Retailer-smart-contract/RetailerStorage.sol\":3225:3229  bool */\n      0x00\n        /* \"contracts/Actor/Retailer-smart-contract/RetailerStorage.sol\":3246:3255  uint256 i */\n      dup1\n        /* \"contracts/Actor/Retailer-smart-contract/RetailerStorage.sol\":3256:3257  0 */\n      0x00\n        /* \"contracts/Actor/Retailer-smart-contract/RetailerStorage.sol\":3246:3257  uint256 i=0 */\n      swap1\n      pop\n        /* \"contracts/Actor/Retailer-smart-contract/RetailerStorage.sol\":3242:3414  for(uint256 i=0; ; i++){... */\n    tag_204:\n        /* \"contracts/Actor/Retailer-smart-contract/RetailerStorage.sol\":3301:3315  walletRetailer */\n      dup3\n        /* \"contracts/Actor/Retailer-smart-contract/RetailerStorage.sol\":3283:3315  addressList[i] == walletRetailer */\n      0xffffffffffffffffffffffffffffffffffffffff\n      and\n        /* \"contracts/Actor/Retailer-smart-contract/RetailerStorage.sol\":3283:3294  addressList */\n      0x02\n        /* \"contracts/Actor/Retailer-smart-contract/RetailerStorage.sol\":3295:3296  i */\n      dup3\n        /* \"contracts/Actor/Retailer-smart-contract/RetailerStorage.sol\":3283:3297  addressList[i] */\n      dup2\n      sload\n      dup2\n      lt\n      tag_207\n      jumpi\n      tag_208\n      tag_209\n      jump\t// in\n    tag_208:\n    tag_207:\n      swap1\n      0x00\n      mstore\n      keccak256(0x00, 0x20)\n      add\n      0x00\n      swap1\n      sload\n      swap1\n      0x0100\n      exp\n      swap1\n      div\n      0xffffffffffffffffffffffffffffffffffffffff\n      and\n        /* \"contracts/Actor/Retailer-smart-contract/RetailerStorage.sol\":3283:3315  addressList[i] == walletRetailer */\n      0xffffffffffffffffffffffffffffffffffffffff\n      and\n      sub\n        /* \"contracts/Actor/Retailer-smart-contract/RetailerStorage.sol\":3280:3403  if(addressList[i] == walletRetailer){... */\n      tag_211\n      jumpi\n        /* \"contracts/Actor/Retailer-smart-contract/RetailerStorage.sol\":3343:3354  addressList */\n      0x02\n        /* \"contracts/Actor/Retailer-smart-contract/RetailerStorage.sol\":3355:3356  i */\n      dup2\n        /* \"contracts/Actor/Retailer-smart-contract/RetailerStorage.sol\":3343:3357  addressList[i] */\n      dup2\n      sload\n      dup2\n      lt\n      tag_212\n      jumpi\n      tag_213\n      tag_209\n      jump\t// in\n    tag_213:\n    tag_212:\n      swap1\n      0x00\n      mstore\n      keccak256(0x00, 0x20)\n      add\n      0x00\n        /* \"contracts/Actor/Retailer-smart-contract/RetailerStorage.sol\":3335:3357  delete  addressList[i] */\n      0x0100\n      exp\n      dup2\n      sload\n      swap1\n      0xffffffffffffffffffffffffffffffffffffffff\n      mul\n      not\n      and\n      swap1\n      sstore\n        /* \"contracts/Actor/Retailer-smart-contract/RetailerStorage.sol\":3383:3387  true */\n      0x01\n        /* \"contracts/Actor/Retailer-smart-contract/RetailerStorage.sol\":3376:3387  return true */\n      swap2\n      pop\n      pop\n      jump(tag_203)\n        /* \"contracts/Actor/Retailer-smart-contract/RetailerStorage.sol\":3280:3403  if(addressList[i] == walletRetailer){... */\n    tag_211:\n        /* \"contracts/Actor/Retailer-smart-contract/RetailerStorage.sol\":3261:3264  i++ */\n      dup1\n      dup1\n      tag_215\n      swap1\n      tag_216\n      jump\t// in\n    tag_215:\n      swap2\n      pop\n      pop\n        /* \"contracts/Actor/Retailer-smart-contract/RetailerStorage.sol\":3242:3414  for(uint256 i=0; ; i++){... */\n      jump(tag_204)\n        /* \"contracts/Actor/Retailer-smart-contract/RetailerStorage.sol\":3152:3444  function deleteRetailerFromList(address walletRetailer)internal returns (bool) {... */\n    tag_203:\n      swap2\n      swap1\n      pop\n      jump\t// out\n    tag_102:\n      pop\n      dup1\n      sload\n      tag_217\n      swap1\n      tag_85\n      jump\t// in\n    tag_217:\n      0x00\n      dup3\n      sstore\n      dup1\n      0x1f\n      lt\n      tag_219\n      jumpi\n      pop\n      jump(tag_218)\n    tag_219:\n      0x1f\n      add\n      0x20\n      swap1\n      div\n      swap1\n      0x00\n      mstore\n      keccak256(0x00, 0x20)\n      swap1\n      dup2\n      add\n      swap1\n      tag_220\n      swap2\n      swap1\n      tag_221\n      jump\t// in\n    tag_220:\n    tag_218:\n      pop\n      jump\t// out\n    tag_221:\n    tag_222:\n      dup1\n      dup3\n      gt\n      iszero\n      tag_223\n      jumpi\n      0x00\n      dup2\n      0x00\n      swap1\n      sstore\n      pop\n      0x01\n      add\n      jump(tag_222)\n    tag_223:\n      pop\n      swap1\n      jump\t// out\n        /* \"#utility.yul\":7:121   */\n    tag_224:\n        /* \"#utility.yul\":74:80   */\n      0x00\n        /* \"#utility.yul\":108:113   */\n      dup2\n        /* \"#utility.yul\":102:114   */\n      mload\n        /* \"#utility.yul\":92:114   */\n      swap1\n      pop\n        /* \"#utility.yul\":7:121   */\n      swap2\n      swap1\n      pop\n      jump\t// out\n        /* \"#utility.yul\":127:311   */\n    tag_225:\n        /* \"#utility.yul\":226:237   */\n      0x00\n        /* \"#utility.yul\":260:266   */\n      dup3\n        /* \"#utility.yul\":255:258   */\n      dup3\n        /* \"#utility.yul\":248:267   */\n      mstore\n        /* \"#utility.yul\":300:304   */\n      0x20\n        /* \"#utility.yul\":295:298   */\n      dup3\n        /* \"#utility.yul\":291:305   */\n      add\n        /* \"#utility.yul\":276:305   */\n      swap1\n      pop\n        /* \"#utility.yul\":127:311   */\n      swap3\n      swap2\n      pop\n      pop\n      jump\t// out\n        /* \"#utility.yul\":317:449   */\n    tag_226:\n        /* \"#utility.yul\":384:388   */\n      0x00\n        /* \"#utility.yul\":407:410   */\n      dup2\n        /* \"#utility.yul\":399:410   */\n      swap1\n      pop\n        /* \"#utility.yul\":437:441   */\n      0x20\n        /* \"#utility.yul\":432:435   */\n      dup3\n        /* \"#utility.yul\":428:442   */\n      add\n        /* \"#utility.yul\":420:442   */\n      swap1\n      pop\n        /* \"#utility.yul\":317:449   */\n      swap2\n      swap1\n      pop\n      jump\t// out\n        /* \"#utility.yul\":455:581   */\n    tag_227:\n        /* \"#utility.yul\":492:499   */\n      0x00\n        /* \"#utility.yul\":532:574   */\n      0xffffffffffffffffffffffffffffffffffffffff\n        /* \"#utility.yul\":525:530   */\n      dup3\n        /* \"#utility.yul\":521:575   */\n      and\n        /* \"#utility.yul\":510:575   */\n      swap1\n      pop\n        /* \"#utility.yul\":455:581   */\n      swap2\n      swap1\n      pop\n      jump\t// out\n        /* \"#utility.yul\":587:683   */\n    tag_228:\n        /* \"#utility.yul\":624:631   */\n      0x00\n        /* \"#utility.yul\":653:677   */\n      tag_301\n        /* \"#utility.yul\":671:676   */\n      dup3\n        /* \"#utility.yul\":653:677   */\n      tag_227\n      jump\t// in\n    tag_301:\n        /* \"#utility.yul\":642:677   */\n      swap1\n      pop\n        /* \"#utility.yul\":587:683   */\n      swap2\n      swap1\n      pop\n      jump\t// out\n        /* \"#utility.yul\":689:797   */\n    tag_229:\n        /* \"#utility.yul\":766:790   */\n      tag_303\n        /* \"#utility.yul\":784:789   */\n      dup2\n        /* \"#utility.yul\":766:790   */\n      tag_228\n      jump\t// in\n    tag_303:\n        /* \"#utility.yul\":761:764   */\n      dup3\n        /* \"#utility.yul\":754:791   */\n      mstore\n        /* \"#utility.yul\":689:797   */\n      pop\n      pop\n      jump\t// out\n        /* \"#utility.yul\":803:982   */\n    tag_230:\n        /* \"#utility.yul\":872:882   */\n      0x00\n        /* \"#utility.yul\":893:939   */\n      tag_305\n        /* \"#utility.yul\":935:938   */\n      dup4\n        /* \"#utility.yul\":927:933   */\n      dup4\n        /* \"#utility.yul\":893:939   */\n      tag_229\n      jump\t// in\n    tag_305:\n        /* \"#utility.yul\":971:975   */\n      0x20\n        /* \"#utility.yul\":966:969   */\n      dup4\n        /* \"#utility.yul\":962:976   */\n      add\n        /* \"#utility.yul\":948:976   */\n      swap1\n      pop\n        /* \"#utility.yul\":803:982   */\n      swap3\n      swap2\n      pop\n      pop\n      jump\t// out\n        /* \"#utility.yul\":988:1101   */\n    tag_231:\n        /* \"#utility.yul\":1058:1062   */\n      0x00\n        /* \"#utility.yul\":1090:1094   */\n      0x20\n        /* \"#utility.yul\":1085:1088   */\n      dup3\n        /* \"#utility.yul\":1081:1095   */\n      add\n        /* \"#utility.yul\":1073:1095   */\n      swap1\n      pop\n        /* \"#utility.yul\":988:1101   */\n      swap2\n      swap1\n      pop\n      jump\t// out\n        /* \"#utility.yul\":1137:1869   */\n    tag_232:\n        /* \"#utility.yul\":1256:1259   */\n      0x00\n        /* \"#utility.yul\":1285:1339   */\n      tag_308\n        /* \"#utility.yul\":1333:1338   */\n      dup3\n        /* \"#utility.yul\":1285:1339   */\n      tag_224\n      jump\t// in\n    tag_308:\n        /* \"#utility.yul\":1355:1441   */\n      tag_309\n        /* \"#utility.yul\":1434:1440   */\n      dup2\n        /* \"#utility.yul\":1429:1432   */\n      dup6\n        /* \"#utility.yul\":1355:1441   */\n      tag_225\n      jump\t// in\n    tag_309:\n        /* \"#utility.yul\":1348:1441   */\n      swap4\n      pop\n        /* \"#utility.yul\":1465:1521   */\n      tag_310\n        /* \"#utility.yul\":1515:1520   */\n      dup4\n        /* \"#utility.yul\":1465:1521   */\n      tag_226\n      jump\t// in\n    tag_310:\n        /* \"#utility.yul\":1544:1551   */\n      dup1\n        /* \"#utility.yul\":1575:1576   */\n      0x00\n        /* \"#utility.yul\":1560:1844   */\n    tag_311:\n        /* \"#utility.yul\":1585:1591   */\n      dup4\n        /* \"#utility.yul\":1582:1583   */\n      dup2\n        /* \"#utility.yul\":1579:1592   */\n      lt\n        /* \"#utility.yul\":1560:1844   */\n      iszero\n      tag_313\n      jumpi\n        /* \"#utility.yul\":1661:1667   */\n      dup2\n        /* \"#utility.yul\":1655:1668   */\n      mload\n        /* \"#utility.yul\":1688:1751   */\n      tag_314\n        /* \"#utility.yul\":1747:1750   */\n      dup9\n        /* \"#utility.yul\":1732:1745   */\n      dup3\n        /* \"#utility.yul\":1688:1751   */\n      tag_230\n      jump\t// in\n    tag_314:\n        /* \"#utility.yul\":1681:1751   */\n      swap8\n      pop\n        /* \"#utility.yul\":1774:1834   */\n      tag_315\n        /* \"#utility.yul\":1827:1833   */\n      dup4\n        /* \"#utility.yul\":1774:1834   */\n      tag_231\n      jump\t// in\n    tag_315:\n        /* \"#utility.yul\":1764:1834   */\n      swap3\n      pop\n        /* \"#utility.yul\":1620:1844   */\n      pop\n        /* \"#utility.yul\":1607:1608   */\n      0x01\n        /* \"#utility.yul\":1604:1605   */\n      dup2\n        /* \"#utility.yul\":1600:1609   */\n      add\n        /* \"#utility.yul\":1595:1609   */\n      swap1\n      pop\n        /* \"#utility.yul\":1560:1844   */\n      jump(tag_311)\n    tag_313:\n        /* \"#utility.yul\":1564:1578   */\n      pop\n        /* \"#utility.yul\":1860:1863   */\n      dup6\n        /* \"#utility.yul\":1853:1863   */\n      swap4\n      pop\n        /* \"#utility.yul\":1261:1869   */\n      pop\n      pop\n      pop\n        /* \"#utility.yul\":1137:1869   */\n      swap3\n      swap2\n      pop\n      pop\n      jump\t// out\n        /* \"#utility.yul\":1875:2248   */\n    tag_18:\n        /* \"#utility.yul\":2018:2022   */\n      0x00\n        /* \"#utility.yul\":2056:2058   */\n      0x20\n        /* \"#utility.yul\":2045:2054   */\n      dup3\n        /* \"#utility.yul\":2041:2059   */\n      add\n        /* \"#utility.yul\":2033:2059   */\n      swap1\n      pop\n        /* \"#utility.yul\":2105:2114   */\n      dup2\n        /* \"#utility.yul\":2099:2103   */\n      dup2\n        /* \"#utility.yul\":2095:2115   */\n      sub\n        /* \"#utility.yul\":2091:2092   */\n      0x00\n        /* \"#utility.yul\":2080:2089   */\n      dup4\n        /* \"#utility.yul\":2076:2093   */\n      add\n        /* \"#utility.yul\":2069:2116   */\n      mstore\n        /* \"#utility.yul\":2133:2241   */\n      tag_317\n        /* \"#utility.yul\":2236:2240   */\n      dup2\n        /* \"#utility.yul\":2227:2233   */\n      dup5\n        /* \"#utility.yul\":2133:2241   */\n      tag_232\n      jump\t// in\n    tag_317:\n        /* \"#utility.yul\":2125:2241   */\n      swap1\n      pop\n        /* \"#utility.yul\":1875:2248   */\n      swap3\n      swap2\n      pop\n      pop\n      jump\t// out\n        /* \"#utility.yul\":2254:2329   */\n    tag_233:\n        /* \"#utility.yul\":2287:2293   */\n      0x00\n        /* \"#utility.yul\":2320:2322   */\n      0x40\n        /* \"#utility.yul\":2314:2323   */\n      mload\n        /* \"#utility.yul\":2304:2323   */\n      swap1\n      pop\n        /* \"#utility.yul\":2254:2329   */\n      swap1\n      jump\t// out\n        /* \"#utility.yul\":2335:2452   */\n    tag_234:\n        /* \"#utility.yul\":2444:2445   */\n      0x00\n        /* \"#utility.yul\":2441:2442   */\n      dup1\n        /* \"#utility.yul\":2434:2446   */\n      revert\n        /* \"#utility.yul\":2458:2575   */\n    tag_235:\n        /* \"#utility.yul\":2567:2568   */\n      0x00\n        /* \"#utility.yul\":2564:2565   */\n      dup1\n        /* \"#utility.yul\":2557:2569   */\n      revert\n        /* \"#utility.yul\":2581:2703   */\n    tag_236:\n        /* \"#utility.yul\":2654:2678   */\n      tag_322\n        /* \"#utility.yul\":2672:2677   */\n      dup2\n        /* \"#utility.yul\":2654:2678   */\n      tag_228\n      jump\t// in\n    tag_322:\n        /* \"#utility.yul\":2647:2652   */\n      dup2\n        /* \"#utility.yul\":2644:2679   */\n      eq\n        /* \"#utility.yul\":2634:2697   */\n      tag_323\n      jumpi\n        /* \"#utility.yul\":2693:2694   */\n      0x00\n        /* \"#utility.yul\":2690:2691   */\n      dup1\n        /* \"#utility.yul\":2683:2695   */\n      revert\n        /* \"#utility.yul\":2634:2697   */\n    tag_323:\n        /* \"#utility.yul\":2581:2703   */\n      pop\n      jump\t// out\n        /* \"#utility.yul\":2709:2848   */\n    tag_237:\n        /* \"#utility.yul\":2755:2760   */\n      0x00\n        /* \"#utility.yul\":2793:2799   */\n      dup2\n        /* \"#utility.yul\":2780:2800   */\n      calldataload\n        /* \"#utility.yul\":2771:2800   */\n      swap1\n      pop\n        /* \"#utility.yul\":2809:2842   */\n      tag_325\n        /* \"#utility.yul\":2836:2841   */\n      dup2\n        /* \"#utility.yul\":2809:2842   */\n      tag_236\n      jump\t// in\n    tag_325:\n        /* \"#utility.yul\":2709:2848   */\n      swap3\n      swap2\n      pop\n      pop\n      jump\t// out\n        /* \"#utility.yul\":2854:2971   */\n    tag_238:\n        /* \"#utility.yul\":2963:2964   */\n      0x00\n        /* \"#utility.yul\":2960:2961   */\n      dup1\n        /* \"#utility.yul\":2953:2965   */\n      revert\n        /* \"#utility.yul\":2977:3094   */\n    tag_239:\n        /* \"#utility.yul\":3086:3087   */\n      0x00\n        /* \"#utility.yul\":3083:3084   */\n      dup1\n        /* \"#utility.yul\":3076:3088   */\n      revert\n        /* \"#utility.yul\":3100:3202   */\n    tag_240:\n        /* \"#utility.yul\":3141:3147   */\n      0x00\n        /* \"#utility.yul\":3192:3194   */\n      0x1f\n        /* \"#utility.yul\":3188:3195   */\n      not\n        /* \"#utility.yul\":3183:3185   */\n      0x1f\n        /* \"#utility.yul\":3176:3181   */\n      dup4\n        /* \"#utility.yul\":3172:3186   */\n      add\n        /* \"#utility.yul\":3168:3196   */\n      and\n        /* \"#utility.yul\":3158:3196   */\n      swap1\n      pop\n        /* \"#utility.yul\":3100:3202   */\n      swap2\n      swap1\n      pop\n      jump\t// out\n        /* \"#utility.yul\":3208:3388   */\n    tag_241:\n        /* \"#utility.yul\":3256:3333   */\n      0x4e487b7100000000000000000000000000000000000000000000000000000000\n        /* \"#utility.yul\":3253:3254   */\n      0x00\n        /* \"#utility.yul\":3246:3334   */\n      mstore\n        /* \"#utility.yul\":3353:3357   */\n      0x41\n        /* \"#utility.yul\":3350:3351   */\n      0x04\n        /* \"#utility.yul\":3343:3358   */\n      mstore\n        /* \"#utility.yul\":3377:3381   */\n      0x24\n        /* \"#utility.yul\":3374:3375   */\n      0x00\n        /* \"#utility.yul\":3367:3382   */\n      revert\n        /* \"#utility.yul\":3394:3675   */\n    tag_242:\n        /* \"#utility.yul\":3477:3504   */\n      tag_331\n        /* \"#utility.yul\":3499:3503   */\n      dup3\n        /* \"#utility.yul\":3477:3504   */\n      tag_240\n      jump\t// in\n    tag_331:\n        /* \"#utility.yul\":3469:3475   */\n      dup2\n        /* \"#utility.yul\":3465:3505   */\n      add\n        /* \"#utility.yul\":3607:3613   */\n      dup2\n        /* \"#utility.yul\":3595:3605   */\n      dup2\n        /* \"#utility.yul\":3592:3614   */\n      lt\n        /* \"#utility.yul\":3571:3589   */\n      0xffffffffffffffff\n        /* \"#utility.yul\":3559:3569   */\n      dup3\n        /* \"#utility.yul\":3556:3590   */\n      gt\n        /* \"#utility.yul\":3553:3615   */\n      or\n        /* \"#utility.yul\":3550:3638   */\n      iszero\n      tag_332\n      jumpi\n        /* \"#utility.yul\":3618:3636   */\n      tag_333\n      tag_241\n      jump\t// in\n    tag_333:\n        /* \"#utility.yul\":3550:3638   */\n    tag_332:\n        /* \"#utility.yul\":3658:3668   */\n      dup1\n        /* \"#utility.yul\":3654:3656   */\n      0x40\n        /* \"#utility.yul\":3647:3669   */\n      mstore\n        /* \"#utility.yul\":3437:3675   */\n      pop\n        /* \"#utility.yul\":3394:3675   */\n      pop\n      pop\n      jump\t// out\n        /* \"#utility.yul\":3681:3810   */\n    tag_243:\n        /* \"#utility.yul\":3715:3721   */\n      0x00\n        /* \"#utility.yul\":3742:3762   */\n      tag_335\n      tag_233\n      jump\t// in\n    tag_335:\n        /* \"#utility.yul\":3732:3762   */\n      swap1\n      pop\n        /* \"#utility.yul\":3771:3804   */\n      tag_336\n        /* \"#utility.yul\":3799:3803   */\n      dup3\n        /* \"#utility.yul\":3791:3797   */\n      dup3\n        /* \"#utility.yul\":3771:3804   */\n      tag_242\n      jump\t// in\n    tag_336:\n        /* \"#utility.yul\":3681:3810   */\n      swap2\n      swap1\n      pop\n      jump\t// out\n        /* \"#utility.yul\":3816:4124   */\n    tag_244:\n        /* \"#utility.yul\":3878:3882   */\n      0x00\n        /* \"#utility.yul\":3968:3986   */\n      0xffffffffffffffff\n        /* \"#utility.yul\":3960:3966   */\n      dup3\n        /* \"#utility.yul\":3957:3987   */\n      gt\n        /* \"#utility.yul\":3954:4010   */\n      iszero\n      tag_338\n      jumpi\n        /* \"#utility.yul\":3990:4008   */\n      tag_339\n      tag_241\n      jump\t// in\n    tag_339:\n        /* \"#utility.yul\":3954:4010   */\n    tag_338:\n        /* \"#utility.yul\":4028:4057   */\n      tag_340\n        /* \"#utility.yul\":4050:4056   */\n      dup3\n        /* \"#utility.yul\":4028:4057   */\n      tag_240\n      jump\t// in\n    tag_340:\n        /* \"#utility.yul\":4020:4057   */\n      swap1\n      pop\n        /* \"#utility.yul\":4112:4116   */\n      0x20\n        /* \"#utility.yul\":4106:4110   */\n      dup2\n        /* \"#utility.yul\":4102:4117   */\n      add\n        /* \"#utility.yul\":4094:4117   */\n      swap1\n      pop\n        /* \"#utility.yul\":3816:4124   */\n      swap2\n      swap1\n      pop\n      jump\t// out\n        /* \"#utility.yul\":4130:4276   */\n    tag_245:\n        /* \"#utility.yul\":4227:4233   */\n      dup3\n        /* \"#utility.yul\":4222:4225   */\n      dup2\n        /* \"#utility.yul\":4217:4220   */\n      dup4\n        /* \"#utility.yul\":4204:4234   */\n      calldatacopy\n        /* \"#utility.yul\":4268:4269   */\n      0x00\n        /* \"#utility.yul\":4259:4265   */\n      dup4\n        /* \"#utility.yul\":4254:4257   */\n      dup4\n        /* \"#utility.yul\":4250:4266   */\n      add\n        /* \"#utility.yul\":4243:4270   */\n      mstore\n        /* \"#utility.yul\":4130:4276   */\n      pop\n      pop\n      pop\n      jump\t// out\n        /* \"#utility.yul\":4282:4707   */\n    tag_246:\n        /* \"#utility.yul\":4360:4365   */\n      0x00\n        /* \"#utility.yul\":4385:4451   */\n      tag_343\n        /* \"#utility.yul\":4401:4450   */\n      tag_344\n        /* \"#utility.yul\":4443:4449   */\n      dup5\n        /* \"#utility.yul\":4401:4450   */\n      tag_244\n      jump\t// in\n    tag_344:\n        /* \"#utility.yul\":4385:4451   */\n      tag_243\n      jump\t// in\n    tag_343:\n        /* \"#utility.yul\":4376:4451   */\n      swap1\n      pop\n        /* \"#utility.yul\":4474:4480   */\n      dup3\n        /* \"#utility.yul\":4467:4472   */\n      dup2\n        /* \"#utility.yul\":4460:4481   */\n      mstore\n        /* \"#utility.yul\":4512:4516   */\n      0x20\n        /* \"#utility.yul\":4505:4510   */\n      dup2\n        /* \"#utility.yul\":4501:4517   */\n      add\n        /* \"#utility.yul\":4550:4553   */\n      dup5\n        /* \"#utility.yul\":4541:4547   */\n      dup5\n        /* \"#utility.yul\":4536:4539   */\n      dup5\n        /* \"#utility.yul\":4532:4548   */\n      add\n        /* \"#utility.yul\":4529:4554   */\n      gt\n        /* \"#utility.yul\":4526:4638   */\n      iszero\n      tag_345\n      jumpi\n        /* \"#utility.yul\":4557:4636   */\n      tag_346\n      tag_239\n      jump\t// in\n    tag_346:\n        /* \"#utility.yul\":4526:4638   */\n    tag_345:\n        /* \"#utility.yul\":4647:4701   */\n      tag_347\n        /* \"#utility.yul\":4694:4700   */\n      dup5\n        /* \"#utility.yul\":4689:4692   */\n      dup3\n        /* \"#utility.yul\":4684:4687   */\n      dup6\n        /* \"#utility.yul\":4647:4701   */\n      tag_245\n      jump\t// in\n    tag_347:\n        /* \"#utility.yul\":4366:4707   */\n      pop\n        /* \"#utility.yul\":4282:4707   */\n      swap4\n      swap3\n      pop\n      pop\n      pop\n      jump\t// out\n        /* \"#utility.yul\":4727:5067   */\n    tag_247:\n        /* \"#utility.yul\":4783:4788   */\n      0x00\n        /* \"#utility.yul\":4832:4835   */\n      dup3\n        /* \"#utility.yul\":4825:4829   */\n      0x1f\n        /* \"#utility.yul\":4817:4823   */\n      dup4\n        /* \"#utility.yul\":4813:4830   */\n      add\n        /* \"#utility.yul\":4809:4836   */\n      slt\n        /* \"#utility.yul\":4799:4921   */\n      tag_349\n      jumpi\n        /* \"#utility.yul\":4840:4919   */\n      tag_350\n      tag_238\n      jump\t// in\n    tag_350:\n        /* \"#utility.yul\":4799:4921   */\n    tag_349:\n        /* \"#utility.yul\":4957:4963   */\n      dup2\n        /* \"#utility.yul\":4944:4964   */\n      calldataload\n        /* \"#utility.yul\":4982:5061   */\n      tag_351\n        /* \"#utility.yul\":5057:5060   */\n      dup5\n        /* \"#utility.yul\":5049:5055   */\n      dup3\n        /* \"#utility.yul\":5042:5046   */\n      0x20\n        /* \"#utility.yul\":5034:5040   */\n      dup7\n        /* \"#utility.yul\":5030:5047   */\n      add\n        /* \"#utility.yul\":4982:5061   */\n      tag_246\n      jump\t// in\n    tag_351:\n        /* \"#utility.yul\":4973:5061   */\n      swap2\n      pop\n        /* \"#utility.yul\":4789:5067   */\n      pop\n        /* \"#utility.yul\":4727:5067   */\n      swap3\n      swap2\n      pop\n      pop\n      jump\t// out\n        /* \"#utility.yul\":5073:6052   */\n    tag_21:\n        /* \"#utility.yul\":5170:5176   */\n      0x00\n        /* \"#utility.yul\":5178:5184   */\n      dup1\n        /* \"#utility.yul\":5186:5192   */\n      0x00\n        /* \"#utility.yul\":5235:5237   */\n      0x60\n        /* \"#utility.yul\":5223:5232   */\n      dup5\n        /* \"#utility.yul\":5214:5221   */\n      dup7\n        /* \"#utility.yul\":5210:5233   */\n      sub\n        /* \"#utility.yul\":5206:5238   */\n      slt\n        /* \"#utility.yul\":5203:5322   */\n      iszero\n      tag_353\n      jumpi\n        /* \"#utility.yul\":5241:5320   */\n      tag_354\n      tag_234\n      jump\t// in\n    tag_354:\n        /* \"#utility.yul\":5203:5322   */\n    tag_353:\n        /* \"#utility.yul\":5361:5362   */\n      0x00\n        /* \"#utility.yul\":5386:5439   */\n      tag_355\n        /* \"#utility.yul\":5431:5438   */\n      dup7\n        /* \"#utility.yul\":5422:5428   */\n      dup3\n        /* \"#utility.yul\":5411:5420   */\n      dup8\n        /* \"#utility.yul\":5407:5429   */\n      add\n        /* \"#utility.yul\":5386:5439   */\n      tag_237\n      jump\t// in\n    tag_355:\n        /* \"#utility.yul\":5376:5439   */\n      swap4\n      pop\n        /* \"#utility.yul\":5332:5449   */\n      pop\n        /* \"#utility.yul\":5516:5518   */\n      0x20\n        /* \"#utility.yul\":5505:5514   */\n      dup5\n        /* \"#utility.yul\":5501:5519   */\n      add\n        /* \"#utility.yul\":5488:5520   */\n      calldataload\n        /* \"#utility.yul\":5547:5565   */\n      0xffffffffffffffff\n        /* \"#utility.yul\":5539:5545   */\n      dup2\n        /* \"#utility.yul\":5536:5566   */\n      gt\n        /* \"#utility.yul\":5533:5650   */\n      iszero\n      tag_356\n      jumpi\n        /* \"#utility.yul\":5569:5648   */\n      tag_357\n      tag_235\n      jump\t// in\n    tag_357:\n        /* \"#utility.yul\":5533:5650   */\n    tag_356:\n        /* \"#utility.yul\":5674:5737   */\n      tag_358\n        /* \"#utility.yul\":5729:5736   */\n      dup7\n        /* \"#utility.yul\":5720:5726   */\n      dup3\n        /* \"#utility.yul\":5709:5718   */\n      dup8\n        /* \"#utility.yul\":5705:5727   */\n      add\n        /* \"#utility.yul\":5674:5737   */\n      tag_247\n      jump\t// in\n    tag_358:\n        /* \"#utility.yul\":5664:5737   */\n      swap3\n      pop\n        /* \"#utility.yul\":5459:5747   */\n      pop\n        /* \"#utility.yul\":5814:5816   */\n      0x40\n        /* \"#utility.yul\":5803:5812   */\n      dup5\n        /* \"#utility.yul\":5799:5817   */\n      add\n        /* \"#utility.yul\":5786:5818   */\n      calldataload\n        /* \"#utility.yul\":5845:5863   */\n      0xffffffffffffffff\n        /* \"#utility.yul\":5837:5843   */\n      dup2\n        /* \"#utility.yul\":5834:5864   */\n      gt\n        /* \"#utility.yul\":5831:5948   */\n      iszero\n      tag_359\n      jumpi\n        /* \"#utility.yul\":5867:5946   */\n      tag_360\n      tag_235\n      jump\t// in\n    tag_360:\n        /* \"#utility.yul\":5831:5948   */\n    tag_359:\n        /* \"#utility.yul\":5972:6035   */\n      tag_361\n        /* \"#utility.yul\":6027:6034   */\n      dup7\n        /* \"#utility.yul\":6018:6024   */\n      dup3\n        /* \"#utility.yul\":6007:6016   */\n      dup8\n        /* \"#utility.yul\":6003:6025   */\n      add\n        /* \"#utility.yul\":5972:6035   */\n      tag_247\n      jump\t// in\n    tag_361:\n        /* \"#utility.yul\":5962:6035   */\n      swap2\n      pop\n        /* \"#utility.yul\":5757:6045   */\n      pop\n        /* \"#utility.yul\":5073:6052   */\n      swap3\n      pop\n      swap3\n      pop\n      swap3\n      jump\t// out\n        /* \"#utility.yul\":6058:6148   */\n    tag_248:\n        /* \"#utility.yul\":6092:6099   */\n      0x00\n        /* \"#utility.yul\":6135:6140   */\n      dup2\n        /* \"#utility.yul\":6128:6141   */\n      iszero\n        /* \"#utility.yul\":6121:6142   */\n      iszero\n        /* \"#utility.yul\":6110:6142   */\n      swap1\n      pop\n        /* \"#utility.yul\":6058:6148   */\n      swap2\n      swap1\n      pop\n      jump\t// out\n        /* \"#utility.yul\":6154:6263   */\n    tag_249:\n        /* \"#utility.yul\":6235:6256   */\n      tag_364\n        /* \"#utility.yul\":6250:6255   */\n      dup2\n        /* \"#utility.yul\":6235:6256   */\n      tag_248\n      jump\t// in\n    tag_364:\n        /* \"#utility.yul\":6230:6233   */\n      dup3\n        /* \"#utility.yul\":6223:6257   */\n      mstore\n        /* \"#utility.yul\":6154:6263   */\n      pop\n      pop\n      jump\t// out\n        /* \"#utility.yul\":6269:6479   */\n    tag_24:\n        /* \"#utility.yul\":6356:6360   */\n      0x00\n        /* \"#utility.yul\":6394:6396   */\n      0x20\n        /* \"#utility.yul\":6383:6392   */\n      dup3\n        /* \"#utility.yul\":6379:6397   */\n      add\n        /* \"#utility.yul\":6371:6397   */\n      swap1\n      pop\n        /* \"#utility.yul\":6407:6472   */\n      tag_366\n        /* \"#utility.yul\":6469:6470   */\n      0x00\n        /* \"#utility.yul\":6458:6467   */\n      dup4\n        /* \"#utility.yul\":6454:6471   */\n      add\n        /* \"#utility.yul\":6445:6451   */\n      dup5\n        /* \"#utility.yul\":6407:6472   */\n      tag_249\n      jump\t// in\n    tag_366:\n        /* \"#utility.yul\":6269:6479   */\n      swap3\n      swap2\n      pop\n      pop\n      jump\t// out\n        /* \"#utility.yul\":6485:6562   */\n    tag_250:\n        /* \"#utility.yul\":6522:6529   */\n      0x00\n        /* \"#utility.yul\":6551:6556   */\n      dup2\n        /* \"#utility.yul\":6540:6556   */\n      swap1\n      pop\n        /* \"#utility.yul\":6485:6562   */\n      swap2\n      swap1\n      pop\n      jump\t// out\n        /* \"#utility.yul\":6568:6690   */\n    tag_251:\n        /* \"#utility.yul\":6641:6665   */\n      tag_369\n        /* \"#utility.yul\":6659:6664   */\n      dup2\n        /* \"#utility.yul\":6641:6665   */\n      tag_250\n      jump\t// in\n    tag_369:\n        /* \"#utility.yul\":6634:6639   */\n      dup2\n        /* \"#utility.yul\":6631:6666   */\n      eq\n        /* \"#utility.yul\":6621:6684   */\n      tag_370\n      jumpi\n        /* \"#utility.yul\":6680:6681   */\n      0x00\n        /* \"#utility.yul\":6677:6678   */\n      dup1\n        /* \"#utility.yul\":6670:6682   */\n      revert\n        /* \"#utility.yul\":6621:6684   */\n    tag_370:\n        /* \"#utility.yul\":6568:6690   */\n      pop\n      jump\t// out\n        /* \"#utility.yul\":6696:6835   */\n    tag_252:\n        /* \"#utility.yul\":6742:6747   */\n      0x00\n        /* \"#utility.yul\":6780:6786   */\n      dup2\n        /* \"#utility.yul\":6767:6787   */\n      calldataload\n        /* \"#utility.yul\":6758:6787   */\n      swap1\n      pop\n        /* \"#utility.yul\":6796:6829   */\n      tag_372\n        /* \"#utility.yul\":6823:6828   */\n      dup2\n        /* \"#utility.yul\":6796:6829   */\n      tag_251\n      jump\t// in\n    tag_372:\n        /* \"#utility.yul\":6696:6835   */\n      swap3\n      swap2\n      pop\n      pop\n      jump\t// out\n        /* \"#utility.yul\":6841:7315   */\n    tag_27:\n        /* \"#utility.yul\":6909:6915   */\n      0x00\n        /* \"#utility.yul\":6917:6923   */\n      dup1\n        /* \"#utility.yul\":6966:6968   */\n      0x40\n        /* \"#utility.yul\":6954:6963   */\n      dup4\n        /* \"#utility.yul\":6945:6952   */\n      dup6\n        /* \"#utility.yul\":6941:6964   */\n      sub\n        /* \"#utility.yul\":6937:6969   */\n      slt\n        /* \"#utility.yul\":6934:7053   */\n      iszero\n      tag_374\n      jumpi\n        /* \"#utility.yul\":6972:7051   */\n      tag_375\n      tag_234\n      jump\t// in\n    tag_375:\n        /* \"#utility.yul\":6934:7053   */\n    tag_374:\n        /* \"#utility.yul\":7092:7093   */\n      0x00\n        /* \"#utility.yul\":7117:7170   */\n      tag_376\n        /* \"#utility.yul\":7162:7169   */\n      dup6\n        /* \"#utility.yul\":7153:7159   */\n      dup3\n        /* \"#utility.yul\":7142:7151   */\n      dup7\n        /* \"#utility.yul\":7138:7160   */\n      add\n        /* \"#utility.yul\":7117:7170   */\n      tag_237\n      jump\t// in\n    tag_376:\n        /* \"#utility.yul\":7107:7170   */\n      swap3\n      pop\n        /* \"#utility.yul\":7063:7180   */\n      pop\n        /* \"#utility.yul\":7219:7221   */\n      0x20\n        /* \"#utility.yul\":7245:7298   */\n      tag_377\n        /* \"#utility.yul\":7290:7297   */\n      dup6\n        /* \"#utility.yul\":7281:7287   */\n      dup3\n        /* \"#utility.yul\":7270:7279   */\n      dup7\n        /* \"#utility.yul\":7266:7288   */\n      add\n        /* \"#utility.yul\":7245:7298   */\n      tag_252\n      jump\t// in\n    tag_377:\n        /* \"#utility.yul\":7235:7298   */\n      swap2\n      pop\n        /* \"#utility.yul\":7190:7308   */\n      pop\n        /* \"#utility.yul\":6841:7315   */\n      swap3\n      pop\n      swap3\n      swap1\n      pop\n      jump\t// out\n        /* \"#utility.yul\":7321:7439   */\n    tag_253:\n        /* \"#utility.yul\":7408:7432   */\n      tag_379\n        /* \"#utility.yul\":7426:7431   */\n      dup2\n        /* \"#utility.yul\":7408:7432   */\n      tag_250\n      jump\t// in\n    tag_379:\n        /* \"#utility.yul\":7403:7406   */\n      dup3\n        /* \"#utility.yul\":7396:7433   */\n      mstore\n        /* \"#utility.yul\":7321:7439   */\n      pop\n      pop\n      jump\t// out\n        /* \"#utility.yul\":7445:7667   */\n    tag_30:\n        /* \"#utility.yul\":7538:7542   */\n      0x00\n        /* \"#utility.yul\":7576:7578   */\n      0x20\n        /* \"#utility.yul\":7565:7574   */\n      dup3\n        /* \"#utility.yul\":7561:7579   */\n      add\n        /* \"#utility.yul\":7553:7579   */\n      swap1\n      pop\n        /* \"#utility.yul\":7589:7660   */\n      tag_381\n        /* \"#utility.yul\":7657:7658   */\n      0x00\n        /* \"#utility.yul\":7646:7655   */\n      dup4\n        /* \"#utility.yul\":7642:7659   */\n      add\n        /* \"#utility.yul\":7633:7639   */\n      dup5\n        /* \"#utility.yul\":7589:7660   */\n      tag_253\n      jump\t// in\n    tag_381:\n        /* \"#utility.yul\":7445:7667   */\n      swap3\n      swap2\n      pop\n      pop\n      jump\t// out\n        /* \"#utility.yul\":7673:8002   */\n    tag_33:\n        /* \"#utility.yul\":7732:7738   */\n      0x00\n        /* \"#utility.yul\":7781:7783   */\n      0x20\n        /* \"#utility.yul\":7769:7778   */\n      dup3\n        /* \"#utility.yul\":7760:7767   */\n      dup5\n        /* \"#utility.yul\":7756:7779   */\n      sub\n        /* \"#utility.yul\":7752:7784   */\n      slt\n        /* \"#utility.yul\":7749:7868   */\n      iszero\n      tag_383\n      jumpi\n        /* \"#utility.yul\":7787:7866   */\n      tag_384\n      tag_234\n      jump\t// in\n    tag_384:\n        /* \"#utility.yul\":7749:7868   */\n    tag_383:\n        /* \"#utility.yul\":7907:7908   */\n      0x00\n        /* \"#utility.yul\":7932:7985   */\n      tag_385\n        /* \"#utility.yul\":7977:7984   */\n      dup5\n        /* \"#utility.yul\":7968:7974   */\n      dup3\n        /* \"#utility.yul\":7957:7966   */\n      dup6\n        /* \"#utility.yul\":7953:7975   */\n      add\n        /* \"#utility.yul\":7932:7985   */\n      tag_237\n      jump\t// in\n    tag_385:\n        /* \"#utility.yul\":7922:7985   */\n      swap2\n      pop\n        /* \"#utility.yul\":7878:7995   */\n      pop\n        /* \"#utility.yul\":7673:8002   */\n      swap3\n      swap2\n      pop\n      pop\n      jump\t// out\n        /* \"#utility.yul\":8008:8107   */\n    tag_254:\n        /* \"#utility.yul\":8060:8066   */\n      0x00\n        /* \"#utility.yul\":8094:8099   */\n      dup2\n        /* \"#utility.yul\":8088:8100   */\n      mload\n        /* \"#utility.yul\":8078:8100   */\n      swap1\n      pop\n        /* \"#utility.yul\":8008:8107   */\n      swap2\n      swap1\n      pop\n      jump\t// out\n        /* \"#utility.yul\":8113:8282   */\n    tag_255:\n        /* \"#utility.yul\":8197:8208   */\n      0x00\n        /* \"#utility.yul\":8231:8237   */\n      dup3\n        /* \"#utility.yul\":8226:8229   */\n      dup3\n        /* \"#utility.yul\":8219:8238   */\n      mstore\n        /* \"#utility.yul\":8271:8275   */\n      0x20\n        /* \"#utility.yul\":8266:8269   */\n      dup3\n        /* \"#utility.yul\":8262:8276   */\n      add\n        /* \"#utility.yul\":8247:8276   */\n      swap1\n      pop\n        /* \"#utility.yul\":8113:8282   */\n      swap3\n      swap2\n      pop\n      pop\n      jump\t// out\n        /* \"#utility.yul\":8288:8534   */\n    tag_256:\n        /* \"#utility.yul\":8369:8370   */\n      0x00\n        /* \"#utility.yul\":8379:8492   */\n    tag_389:\n        /* \"#utility.yul\":8393:8399   */\n      dup4\n        /* \"#utility.yul\":8390:8391   */\n      dup2\n        /* \"#utility.yul\":8387:8400   */\n      lt\n        /* \"#utility.yul\":8379:8492   */\n      iszero\n      tag_391\n      jumpi\n        /* \"#utility.yul\":8478:8479   */\n      dup1\n        /* \"#utility.yul\":8473:8476   */\n      dup3\n        /* \"#utility.yul\":8469:8480   */\n      add\n        /* \"#utility.yul\":8463:8481   */\n      mload\n        /* \"#utility.yul\":8459:8460   */\n      dup2\n        /* \"#utility.yul\":8454:8457   */\n      dup5\n        /* \"#utility.yul\":8450:8461   */\n      add\n        /* \"#utility.yul\":8443:8482   */\n      mstore\n        /* \"#utility.yul\":8415:8417   */\n      0x20\n        /* \"#utility.yul\":8412:8413   */\n      dup2\n        /* \"#utility.yul\":8408:8418   */\n      add\n        /* \"#utility.yul\":8403:8418   */\n      swap1\n      pop\n        /* \"#utility.yul\":8379:8492   */\n      jump(tag_389)\n    tag_391:\n        /* \"#utility.yul\":8526:8527   */\n      0x00\n        /* \"#utility.yul\":8517:8523   */\n      dup5\n        /* \"#utility.yul\":8512:8515   */\n      dup5\n        /* \"#utility.yul\":8508:8524   */\n      add\n        /* \"#utility.yul\":8501:8528   */\n      mstore\n        /* \"#utility.yul\":8350:8534   */\n      pop\n        /* \"#utility.yul\":8288:8534   */\n      pop\n      pop\n      pop\n      jump\t// out\n        /* \"#utility.yul\":8540:8917   */\n    tag_257:\n        /* \"#utility.yul\":8628:8631   */\n      0x00\n        /* \"#utility.yul\":8656:8695   */\n      tag_393\n        /* \"#utility.yul\":8689:8694   */\n      dup3\n        /* \"#utility.yul\":8656:8695   */\n      tag_254\n      jump\t// in\n    tag_393:\n        /* \"#utility.yul\":8711:8782   */\n      tag_394\n        /* \"#utility.yul\":8775:8781   */\n      dup2\n        /* \"#utility.yul\":8770:8773   */\n      dup6\n        /* \"#utility.yul\":8711:8782   */\n      tag_255\n      jump\t// in\n    tag_394:\n        /* \"#utility.yul\":8704:8782   */\n      swap4\n      pop\n        /* \"#utility.yul\":8791:8856   */\n      tag_395\n        /* \"#utility.yul\":8849:8855   */\n      dup2\n        /* \"#utility.yul\":8844:8847   */\n      dup6\n        /* \"#utility.yul\":8837:8841   */\n      0x20\n        /* \"#utility.yul\":8830:8835   */\n      dup7\n        /* \"#utility.yul\":8826:8842   */\n      add\n        /* \"#utility.yul\":8791:8856   */\n      tag_256\n      jump\t// in\n    tag_395:\n        /* \"#utility.yul\":8881:8910   */\n      tag_396\n        /* \"#utility.yul\":8903:8909   */\n      dup2\n        /* \"#utility.yul\":8881:8910   */\n      tag_240\n      jump\t// in\n    tag_396:\n        /* \"#utility.yul\":8876:8879   */\n      dup5\n        /* \"#utility.yul\":8872:8911   */\n      add\n        /* \"#utility.yul\":8865:8911   */\n      swap2\n      pop\n        /* \"#utility.yul\":8632:8917   */\n      pop\n        /* \"#utility.yul\":8540:8917   */\n      swap3\n      swap2\n      pop\n      pop\n      jump\t// out\n        /* \"#utility.yul\":8923:9236   */\n    tag_44:\n        /* \"#utility.yul\":9036:9040   */\n      0x00\n        /* \"#utility.yul\":9074:9076   */\n      0x20\n        /* \"#utility.yul\":9063:9072   */\n      dup3\n        /* \"#utility.yul\":9059:9077   */\n      add\n        /* \"#utility.yul\":9051:9077   */\n      swap1\n      pop\n        /* \"#utility.yul\":9123:9132   */\n      dup2\n        /* \"#utility.yul\":9117:9121   */\n      dup2\n        /* \"#utility.yul\":9113:9133   */\n      sub\n        /* \"#utility.yul\":9109:9110   */\n      0x00\n        /* \"#utility.yul\":9098:9107   */\n      dup4\n        /* \"#utility.yul\":9094:9111   */\n      add\n        /* \"#utility.yul\":9087:9134   */\n      mstore\n        /* \"#utility.yul\":9151:9229   */\n      tag_398\n        /* \"#utility.yul\":9224:9228   */\n      dup2\n        /* \"#utility.yul\":9215:9221   */\n      dup5\n        /* \"#utility.yul\":9151:9229   */\n      tag_257\n      jump\t// in\n    tag_398:\n        /* \"#utility.yul\":9143:9229   */\n      swap1\n      pop\n        /* \"#utility.yul\":8923:9236   */\n      swap3\n      swap2\n      pop\n      pop\n      jump\t// out\n        /* \"#utility.yul\":9242:10179   */\n    tag_49:\n        /* \"#utility.yul\":9507:9511   */\n      0x00\n        /* \"#utility.yul\":9545:9548   */\n      0xa0\n        /* \"#utility.yul\":9534:9543   */\n      dup3\n        /* \"#utility.yul\":9530:9549   */\n      add\n        /* \"#utility.yul\":9522:9549   */\n      swap1\n      pop\n        /* \"#utility.yul\":9559:9630   */\n      tag_400\n        /* \"#utility.yul\":9627:9628   */\n      0x00\n        /* \"#utility.yul\":9616:9625   */\n      dup4\n        /* \"#utility.yul\":9612:9629   */\n      add\n        /* \"#utility.yul\":9603:9609   */\n      dup9\n        /* \"#utility.yul\":9559:9630   */\n      tag_253\n      jump\t// in\n    tag_400:\n        /* \"#utility.yul\":9677:9686   */\n      dup2\n        /* \"#utility.yul\":9671:9675   */\n      dup2\n        /* \"#utility.yul\":9667:9687   */\n      sub\n        /* \"#utility.yul\":9662:9664   */\n      0x20\n        /* \"#utility.yul\":9651:9660   */\n      dup4\n        /* \"#utility.yul\":9647:9665   */\n      add\n        /* \"#utility.yul\":9640:9688   */\n      mstore\n        /* \"#utility.yul\":9705:9783   */\n      tag_401\n        /* \"#utility.yul\":9778:9782   */\n      dup2\n        /* \"#utility.yul\":9769:9775   */\n      dup8\n        /* \"#utility.yul\":9705:9783   */\n      tag_257\n      jump\t// in\n    tag_401:\n        /* \"#utility.yul\":9697:9783   */\n      swap1\n      pop\n        /* \"#utility.yul\":9830:9839   */\n      dup2\n        /* \"#utility.yul\":9824:9828   */\n      dup2\n        /* \"#utility.yul\":9820:9840   */\n      sub\n        /* \"#utility.yul\":9815:9817   */\n      0x40\n        /* \"#utility.yul\":9804:9813   */\n      dup4\n        /* \"#utility.yul\":9800:9818   */\n      add\n        /* \"#utility.yul\":9793:9841   */\n      mstore\n        /* \"#utility.yul\":9858:9936   */\n      tag_402\n        /* \"#utility.yul\":9931:9935   */\n      dup2\n        /* \"#utility.yul\":9922:9928   */\n      dup7\n        /* \"#utility.yul\":9858:9936   */\n      tag_257\n      jump\t// in\n    tag_402:\n        /* \"#utility.yul\":9850:9936   */\n      swap1\n      pop\n        /* \"#utility.yul\":9983:9992   */\n      dup2\n        /* \"#utility.yul\":9977:9981   */\n      dup2\n        /* \"#utility.yul\":9973:9993   */\n      sub\n        /* \"#utility.yul\":9968:9970   */\n      0x60\n        /* \"#utility.yul\":9957:9966   */\n      dup4\n        /* \"#utility.yul\":9953:9971   */\n      add\n        /* \"#utility.yul\":9946:9994   */\n      mstore\n        /* \"#utility.yul\":10011:10089   */\n      tag_403\n        /* \"#utility.yul\":10084:10088   */\n      dup2\n        /* \"#utility.yul\":10075:10081   */\n      dup6\n        /* \"#utility.yul\":10011:10089   */\n      tag_257\n      jump\t// in\n    tag_403:\n        /* \"#utility.yul\":10003:10089   */\n      swap1\n      pop\n        /* \"#utility.yul\":10099:10172   */\n      tag_404\n        /* \"#utility.yul\":10167:10170   */\n      0x80\n        /* \"#utility.yul\":10156:10165   */\n      dup4\n        /* \"#utility.yul\":10152:10171   */\n      add\n        /* \"#utility.yul\":10143:10149   */\n      dup5\n        /* \"#utility.yul\":10099:10172   */\n      tag_253\n      jump\t// in\n    tag_404:\n        /* \"#utility.yul\":9242:10179   */\n      swap7\n      swap6\n      pop\n      pop\n      pop\n      pop\n      pop\n      pop\n      jump\t// out\n        /* \"#utility.yul\":10185:11490   */\n    tag_56:\n        /* \"#utility.yul\":10301:10307   */\n      0x00\n        /* \"#utility.yul\":10309:10315   */\n      dup1\n        /* \"#utility.yul\":10317:10323   */\n      0x00\n        /* \"#utility.yul\":10325:10331   */\n      dup1\n        /* \"#utility.yul\":10374:10377   */\n      0x80\n        /* \"#utility.yul\":10362:10371   */\n      dup6\n        /* \"#utility.yul\":10353:10360   */\n      dup8\n        /* \"#utility.yul\":10349:10372   */\n      sub\n        /* \"#utility.yul\":10345:10378   */\n      slt\n        /* \"#utility.yul\":10342:10462   */\n      iszero\n      tag_406\n      jumpi\n        /* \"#utility.yul\":10381:10460   */\n      tag_407\n      tag_234\n      jump\t// in\n    tag_407:\n        /* \"#utility.yul\":10342:10462   */\n    tag_406:\n        /* \"#utility.yul\":10529:10530   */\n      0x00\n        /* \"#utility.yul\":10518:10527   */\n      dup6\n        /* \"#utility.yul\":10514:10531   */\n      add\n        /* \"#utility.yul\":10501:10532   */\n      calldataload\n        /* \"#utility.yul\":10559:10577   */\n      0xffffffffffffffff\n        /* \"#utility.yul\":10551:10557   */\n      dup2\n        /* \"#utility.yul\":10548:10578   */\n      gt\n        /* \"#utility.yul\":10545:10662   */\n      iszero\n      tag_408\n      jumpi\n        /* \"#utility.yul\":10581:10660   */\n      tag_409\n      tag_235\n      jump\t// in\n    tag_409:\n        /* \"#utility.yul\":10545:10662   */\n    tag_408:\n        /* \"#utility.yul\":10686:10749   */\n      tag_410\n        /* \"#utility.yul\":10741:10748   */\n      dup8\n        /* \"#utility.yul\":10732:10738   */\n      dup3\n        /* \"#utility.yul\":10721:10730   */\n      dup9\n        /* \"#utility.yul\":10717:10739   */\n      add\n        /* \"#utility.yul\":10686:10749   */\n      tag_247\n      jump\t// in\n    tag_410:\n        /* \"#utility.yul\":10676:10749   */\n      swap5\n      pop\n        /* \"#utility.yul\":10472:10759   */\n      pop\n        /* \"#utility.yul\":10826:10828   */\n      0x20\n        /* \"#utility.yul\":10815:10824   */\n      dup6\n        /* \"#utility.yul\":10811:10829   */\n      add\n        /* \"#utility.yul\":10798:10830   */\n      calldataload\n        /* \"#utility.yul\":10857:10875   */\n      0xffffffffffffffff\n        /* \"#utility.yul\":10849:10855   */\n      dup2\n        /* \"#utility.yul\":10846:10876   */\n      gt\n        /* \"#utility.yul\":10843:10960   */\n      iszero\n      tag_411\n      jumpi\n        /* \"#utility.yul\":10879:10958   */\n      tag_412\n      tag_235\n      jump\t// in\n    tag_412:\n        /* \"#utility.yul\":10843:10960   */\n    tag_411:\n        /* \"#utility.yul\":10984:11047   */\n      tag_413\n        /* \"#utility.yul\":11039:11046   */\n      dup8\n        /* \"#utility.yul\":11030:11036   */\n      dup3\n        /* \"#utility.yul\":11019:11028   */\n      dup9\n        /* \"#utility.yul\":11015:11037   */\n      add\n        /* \"#utility.yul\":10984:11047   */\n      tag_247\n      jump\t// in\n    tag_413:\n        /* \"#utility.yul\":10974:11047   */\n      swap4\n      pop\n        /* \"#utility.yul\":10769:11057   */\n      pop\n        /* \"#utility.yul\":11124:11126   */\n      0x40\n        /* \"#utility.yul\":11113:11122   */\n      dup6\n        /* \"#utility.yul\":11109:11127   */\n      add\n        /* \"#utility.yul\":11096:11128   */\n      calldataload\n        /* \"#utility.yul\":11155:11173   */\n      0xffffffffffffffff\n        /* \"#utility.yul\":11147:11153   */\n      dup2\n        /* \"#utility.yul\":11144:11174   */\n      gt\n        /* \"#utility.yul\":11141:11258   */\n      iszero\n      tag_414\n      jumpi\n        /* \"#utility.yul\":11177:11256   */\n      tag_415\n      tag_235\n      jump\t// in\n    tag_415:\n        /* \"#utility.yul\":11141:11258   */\n    tag_414:\n        /* \"#utility.yul\":11282:11345   */\n      tag_416\n        /* \"#utility.yul\":11337:11344   */\n      dup8\n        /* \"#utility.yul\":11328:11334   */\n      dup3\n        /* \"#utility.yul\":11317:11326   */\n      dup9\n        /* \"#utility.yul\":11313:11335   */\n      add\n        /* \"#utility.yul\":11282:11345   */\n      tag_247\n      jump\t// in\n    tag_416:\n        /* \"#utility.yul\":11272:11345   */\n      swap3\n      pop\n        /* \"#utility.yul\":11067:11355   */\n      pop\n        /* \"#utility.yul\":11394:11396   */\n      0x60\n        /* \"#utility.yul\":11420:11473   */\n      tag_417\n        /* \"#utility.yul\":11465:11472   */\n      dup8\n        /* \"#utility.yul\":11456:11462   */\n      dup3\n        /* \"#utility.yul\":11445:11454   */\n      dup9\n        /* \"#utility.yul\":11441:11463   */\n      add\n        /* \"#utility.yul\":11420:11473   */\n      tag_237\n      jump\t// in\n    tag_417:\n        /* \"#utility.yul\":11410:11473   */\n      swap2\n      pop\n        /* \"#utility.yul\":11365:11483   */\n      pop\n        /* \"#utility.yul\":10185:11490   */\n      swap3\n      swap6\n      swap2\n      swap5\n      pop\n      swap3\n      pop\n      jump\t// out\n        /* \"#utility.yul\":11496:11644   */\n    tag_258:\n        /* \"#utility.yul\":11598:11609   */\n      0x00\n        /* \"#utility.yul\":11635:11638   */\n      dup2\n        /* \"#utility.yul\":11620:11638   */\n      swap1\n      pop\n        /* \"#utility.yul\":11496:11644   */\n      swap3\n      swap2\n      pop\n      pop\n      jump\t// out\n        /* \"#utility.yul\":11650:12040   */\n    tag_259:\n        /* \"#utility.yul\":11756:11759   */\n      0x00\n        /* \"#utility.yul\":11784:11823   */\n      tag_420\n        /* \"#utility.yul\":11817:11822   */\n      dup3\n        /* \"#utility.yul\":11784:11823   */\n      tag_254\n      jump\t// in\n    tag_420:\n        /* \"#utility.yul\":11839:11928   */\n      tag_421\n        /* \"#utility.yul\":11921:11927   */\n      dup2\n        /* \"#utility.yul\":11916:11919   */\n      dup6\n        /* \"#utility.yul\":11839:11928   */\n      tag_258\n      jump\t// in\n    tag_421:\n        /* \"#utility.yul\":11832:11928   */\n      swap4\n      pop\n        /* \"#utility.yul\":11937:12002   */\n      tag_422\n        /* \"#utility.yul\":11995:12001   */\n      dup2\n        /* \"#utility.yul\":11990:11993   */\n      dup6\n        /* \"#utility.yul\":11983:11987   */\n      0x20\n        /* \"#utility.yul\":11976:11981   */\n      dup7\n        /* \"#utility.yul\":11972:11988   */\n      add\n        /* \"#utility.yul\":11937:12002   */\n      tag_256\n      jump\t// in\n    tag_422:\n        /* \"#utility.yul\":12027:12033   */\n      dup1\n        /* \"#utility.yul\":12022:12025   */\n      dup5\n        /* \"#utility.yul\":12018:12034   */\n      add\n        /* \"#utility.yul\":12011:12034   */\n      swap2\n      pop\n        /* \"#utility.yul\":11760:12040   */\n      pop\n        /* \"#utility.yul\":11650:12040   */\n      swap3\n      swap2\n      pop\n      pop\n      jump\t// out\n        /* \"#utility.yul\":12046:12481   */\n    tag_70:\n        /* \"#utility.yul\":12226:12229   */\n      0x00\n        /* \"#utility.yul\":12248:12343   */\n      tag_424\n        /* \"#utility.yul\":12339:12342   */\n      dup3\n        /* \"#utility.yul\":12330:12336   */\n      dup6\n        /* \"#utility.yul\":12248:12343   */\n      tag_259\n      jump\t// in\n    tag_424:\n        /* \"#utility.yul\":12241:12343   */\n      swap2\n      pop\n        /* \"#utility.yul\":12360:12455   */\n      tag_425\n        /* \"#utility.yul\":12451:12454   */\n      dup3\n        /* \"#utility.yul\":12442:12448   */\n      dup5\n        /* \"#utility.yul\":12360:12455   */\n      tag_259\n      jump\t// in\n    tag_425:\n        /* \"#utility.yul\":12353:12455   */\n      swap2\n      pop\n        /* \"#utility.yul\":12472:12475   */\n      dup2\n        /* \"#utility.yul\":12465:12475   */\n      swap1\n      pop\n        /* \"#utility.yul\":12046:12481   */\n      swap4\n      swap3\n      pop\n      pop\n      pop\n      jump\t// out\n        /* \"#utility.yul\":12487:12585   */\n    tag_260:\n        /* \"#utility.yul\":12538:12544   */\n      0x00\n        /* \"#utility.yul\":12572:12577   */\n      dup2\n        /* \"#utility.yul\":12566:12578   */\n      mload\n        /* \"#utility.yul\":12556:12578   */\n      swap1\n      pop\n        /* \"#utility.yul\":12487:12585   */\n      swap2\n      swap1\n      pop\n      jump\t// out\n        /* \"#utility.yul\":12591:12738   */\n    tag_261:\n        /* \"#utility.yul\":12692:12703   */\n      0x00\n        /* \"#utility.yul\":12729:12732   */\n      dup2\n        /* \"#utility.yul\":12714:12732   */\n      swap1\n      pop\n        /* \"#utility.yul\":12591:12738   */\n      swap3\n      swap2\n      pop\n      pop\n      jump\t// out\n        /* \"#utility.yul\":12744:13130   */\n    tag_262:\n        /* \"#utility.yul\":12848:12851   */\n      0x00\n        /* \"#utility.yul\":12876:12914   */\n      tag_429\n        /* \"#utility.yul\":12908:12913   */\n      dup3\n        /* \"#utility.yul\":12876:12914   */\n      tag_260\n      jump\t// in\n    tag_429:\n        /* \"#utility.yul\":12930:13018   */\n      tag_430\n        /* \"#utility.yul\":13011:13017   */\n      dup2\n        /* \"#utility.yul\":13006:13009   */\n      dup6\n        /* \"#utility.yul\":12930:13018   */\n      tag_261\n      jump\t// in\n    tag_430:\n        /* \"#utility.yul\":12923:13018   */\n      swap4\n      pop\n        /* \"#utility.yul\":13027:13092   */\n      tag_431\n        /* \"#utility.yul\":13085:13091   */\n      dup2\n        /* \"#utility.yul\":13080:13083   */\n      dup6\n        /* \"#utility.yul\":13073:13077   */\n      0x20\n        /* \"#utility.yul\":13066:13071   */\n      dup7\n        /* \"#utility.yul\":13062:13078   */\n      add\n        /* \"#utility.yul\":13027:13092   */\n      tag_256\n      jump\t// in\n    tag_431:\n        /* \"#utility.yul\":13117:13123   */\n      dup1\n        /* \"#utility.yul\":13112:13115   */\n      dup5\n        /* \"#utility.yul\":13108:13124   */\n      add\n        /* \"#utility.yul\":13101:13124   */\n      swap2\n      pop\n        /* \"#utility.yul\":12852:13130   */\n      pop\n        /* \"#utility.yul\":12744:13130   */\n      swap3\n      swap2\n      pop\n      pop\n      jump\t// out\n        /* \"#utility.yul\":13136:13407   */\n    tag_72:\n        /* \"#utility.yul\":13266:13269   */\n      0x00\n        /* \"#utility.yul\":13288:13381   */\n      tag_433\n        /* \"#utility.yul\":13377:13380   */\n      dup3\n        /* \"#utility.yul\":13368:13374   */\n      dup5\n        /* \"#utility.yul\":13288:13381   */\n      tag_262\n      jump\t// in\n    tag_433:\n        /* \"#utility.yul\":13281:13381   */\n      swap2\n      pop\n        /* \"#utility.yul\":13398:13401   */\n      dup2\n        /* \"#utility.yul\":13391:13401   */\n      swap1\n      pop\n        /* \"#utility.yul\":13136:13407   */\n      swap3\n      swap2\n      pop\n      pop\n      jump\t// out\n        /* \"#utility.yul\":13413:13593   */\n    tag_263:\n        /* \"#utility.yul\":13461:13538   */\n      0x4e487b7100000000000000000000000000000000000000000000000000000000\n        /* \"#utility.yul\":13458:13459   */\n      0x00\n        /* \"#utility.yul\":13451:13539   */\n      mstore\n        /* \"#utility.yul\":13558:13562   */\n      0x22\n        /* \"#utility.yul\":13555:13556   */\n      0x04\n        /* \"#utility.yul\":13548:13563   */\n      mstore\n        /* \"#utility.yul\":13582:13586   */\n      0x24\n        /* \"#utility.yul\":13579:13580   */\n      0x00\n        /* \"#utility.yul\":13572:13587   */\n      revert\n        /* \"#utility.yul\":13599:13919   */\n    tag_85:\n        /* \"#utility.yul\":13643:13649   */\n      0x00\n        /* \"#utility.yul\":13680:13681   */\n      0x02\n        /* \"#utility.yul\":13674:13678   */\n      dup3\n        /* \"#utility.yul\":13670:13682   */\n      div\n        /* \"#utility.yul\":13660:13682   */\n      swap1\n      pop\n        /* \"#utility.yul\":13727:13728   */\n      0x01\n        /* \"#utility.yul\":13721:13725   */\n      dup3\n        /* \"#utility.yul\":13717:13729   */\n      and\n        /* \"#utility.yul\":13748:13766   */\n      dup1\n        /* \"#utility.yul\":13738:13819   */\n      tag_436\n      jumpi\n        /* \"#utility.yul\":13804:13808   */\n      0x7f\n        /* \"#utility.yul\":13796:13802   */\n      dup3\n        /* \"#utility.yul\":13792:13809   */\n      and\n        /* \"#utility.yul\":13782:13809   */\n      swap2\n      pop\n        /* \"#utility.yul\":13738:13819   */\n    tag_436:\n        /* \"#utility.yul\":13866:13868   */\n      0x20\n        /* \"#utility.yul\":13858:13864   */\n      dup3\n        /* \"#utility.yul\":13855:13869   */\n      lt\n        /* \"#utility.yul\":13835:13853   */\n      dup2\n        /* \"#utility.yul\":13832:13870   */\n      sub\n        /* \"#utility.yul\":13829:13913   */\n      tag_437\n      jumpi\n        /* \"#utility.yul\":13885:13903   */\n      tag_438\n      tag_263\n      jump\t// in\n    tag_438:\n        /* \"#utility.yul\":13829:13913   */\n    tag_437:\n        /* \"#utility.yul\":13650:13919   */\n      pop\n        /* \"#utility.yul\":13599:13919   */\n      swap2\n      swap1\n      pop\n      jump\t// out\n        /* \"#utility.yul\":13925:14066   */\n    tag_264:\n        /* \"#utility.yul\":13974:13978   */\n      0x00\n        /* \"#utility.yul\":13997:14000   */\n      dup2\n        /* \"#utility.yul\":13989:14000   */\n      swap1\n      pop\n        /* \"#utility.yul\":14020:14023   */\n      dup2\n        /* \"#utility.yul\":14017:14018   */\n      0x00\n        /* \"#utility.yul\":14010:14024   */\n      mstore\n        /* \"#utility.yul\":14054:14058   */\n      0x20\n        /* \"#utility.yul\":14051:14052   */\n      0x00\n        /* \"#utility.yul\":14041:14059   */\n      keccak256\n        /* \"#utility.yul\":14033:14059   */\n      swap1\n      pop\n        /* \"#utility.yul\":13925:14066   */\n      swap2\n      swap1\n      pop\n      jump\t// out\n        /* \"#utility.yul\":14096:14970   */\n    tag_265:\n        /* \"#utility.yul\":14199:14202   */\n      0x00\n        /* \"#utility.yul\":14236:14241   */\n      dup2\n        /* \"#utility.yul\":14230:14242   */\n      sload\n        /* \"#utility.yul\":14265:14301   */\n      tag_441\n        /* \"#utility.yul\":14291:14300   */\n      dup2\n        /* \"#utility.yul\":14265:14301   */\n      tag_85\n      jump\t// in\n    tag_441:\n        /* \"#utility.yul\":14317:14406   */\n      tag_442\n        /* \"#utility.yul\":14399:14405   */\n      dup2\n        /* \"#utility.yul\":14394:14397   */\n      dup7\n        /* \"#utility.yul\":14317:14406   */\n      tag_258\n      jump\t// in\n    tag_442:\n        /* \"#utility.yul\":14310:14406   */\n      swap5\n      pop\n        /* \"#utility.yul\":14437:14438   */\n      0x01\n        /* \"#utility.yul\":14426:14435   */\n      dup3\n        /* \"#utility.yul\":14422:14439   */\n      and\n        /* \"#utility.yul\":14453:14454   */\n      0x00\n        /* \"#utility.yul\":14448:14614   */\n      dup2\n      eq\n      tag_444\n      jumpi\n        /* \"#utility.yul\":14628:14629   */\n      0x01\n        /* \"#utility.yul\":14623:14964   */\n      dup2\n      eq\n      tag_445\n      jumpi\n        /* \"#utility.yul\":14415:14964   */\n      jump(tag_443)\n        /* \"#utility.yul\":14448:14614   */\n    tag_444:\n        /* \"#utility.yul\":14532:14536   */\n      0xff\n        /* \"#utility.yul\":14528:14537   */\n      not\n        /* \"#utility.yul\":14517:14526   */\n      dup4\n        /* \"#utility.yul\":14513:14538   */\n      and\n        /* \"#utility.yul\":14508:14511   */\n      dup7\n        /* \"#utility.yul\":14501:14539   */\n      mstore\n        /* \"#utility.yul\":14594:14600   */\n      dup2\n        /* \"#utility.yul\":14587:14601   */\n      iszero\n        /* \"#utility.yul\":14580:14602   */\n      iszero\n        /* \"#utility.yul\":14572:14578   */\n      dup3\n        /* \"#utility.yul\":14568:14603   */\n      mul\n        /* \"#utility.yul\":14563:14566   */\n      dup7\n        /* \"#utility.yul\":14559:14604   */\n      add\n        /* \"#utility.yul\":14552:14604   */\n      swap4\n      pop\n        /* \"#utility.yul\":14448:14614   */\n      jump(tag_443)\n        /* \"#utility.yul\":14623:14964   */\n    tag_445:\n        /* \"#utility.yul\":14690:14728   */\n      tag_446\n        /* \"#utility.yul\":14722:14727   */\n      dup6\n        /* \"#utility.yul\":14690:14728   */\n      tag_264\n      jump\t// in\n    tag_446:\n        /* \"#utility.yul\":14750:14751   */\n      0x00\n        /* \"#utility.yul\":14764:14918   */\n    tag_447:\n        /* \"#utility.yul\":14778:14784   */\n      dup4\n        /* \"#utility.yul\":14775:14776   */\n      dup2\n        /* \"#utility.yul\":14772:14785   */\n      lt\n        /* \"#utility.yul\":14764:14918   */\n      iszero\n      tag_449\n      jumpi\n        /* \"#utility.yul\":14852:14859   */\n      dup2\n        /* \"#utility.yul\":14846:14860   */\n      sload\n        /* \"#utility.yul\":14842:14843   */\n      dup2\n        /* \"#utility.yul\":14837:14840   */\n      dup10\n        /* \"#utility.yul\":14833:14844   */\n      add\n        /* \"#utility.yul\":14826:14861   */\n      mstore\n        /* \"#utility.yul\":14902:14903   */\n      0x01\n        /* \"#utility.yul\":14893:14900   */\n      dup3\n        /* \"#utility.yul\":14889:14904   */\n      add\n        /* \"#utility.yul\":14878:14904   */\n      swap2\n      pop\n        /* \"#utility.yul\":14800:14804   */\n      0x20\n        /* \"#utility.yul\":14797:14798   */\n      dup2\n        /* \"#utility.yul\":14793:14805   */\n      add\n        /* \"#utility.yul\":14788:14805   */\n      swap1\n      pop\n        /* \"#utility.yul\":14764:14918   */\n      jump(tag_447)\n    tag_449:\n        /* \"#utility.yul\":14947:14953   */\n      dup4\n        /* \"#utility.yul\":14942:14945   */\n      dup9\n        /* \"#utility.yul\":14938:14954   */\n      add\n        /* \"#utility.yul\":14931:14954   */\n      swap6\n      pop\n        /* \"#utility.yul\":14630:14964   */\n      pop\n      pop\n        /* \"#utility.yul\":14415:14964   */\n    tag_443:\n      pop\n        /* \"#utility.yul\":14203:14970   */\n      pop\n      pop\n        /* \"#utility.yul\":14096:14970   */\n      swap3\n      swap2\n      pop\n      pop\n      jump\t// out\n        /* \"#utility.yul\":14976:15399   */\n    tag_76:\n        /* \"#utility.yul\":15150:15153   */\n      0x00\n        /* \"#utility.yul\":15172:15264   */\n      tag_451\n        /* \"#utility.yul\":15260:15263   */\n      dup3\n        /* \"#utility.yul\":15251:15257   */\n      dup6\n        /* \"#utility.yul\":15172:15264   */\n      tag_265\n      jump\t// in\n    tag_451:\n        /* \"#utility.yul\":15165:15264   */\n      swap2\n      pop\n        /* \"#utility.yul\":15281:15373   */\n      tag_452\n        /* \"#utility.yul\":15369:15372   */\n      dup3\n        /* \"#utility.yul\":15360:15366   */\n      dup5\n        /* \"#utility.yul\":15281:15373   */\n      tag_265\n      jump\t// in\n    tag_452:\n        /* \"#utility.yul\":15274:15373   */\n      swap2\n      pop\n        /* \"#utility.yul\":15390:15393   */\n      dup2\n        /* \"#utility.yul\":15383:15393   */\n      swap1\n      pop\n        /* \"#utility.yul\":14976:15399   */\n      swap4\n      swap3\n      pop\n      pop\n      pop\n      jump\t// out\n        /* \"#utility.yul\":15405:15568   */\n    tag_266:\n        /* \"#utility.yul\":15545:15560   */\n      0x4944206e6f742056616c69642100000000000000000000000000000000000000\n        /* \"#utility.yul\":15541:15542   */\n      0x00\n        /* \"#utility.yul\":15533:15539   */\n      dup3\n        /* \"#utility.yul\":15529:15543   */\n      add\n        /* \"#utility.yul\":15522:15561   */\n      mstore\n        /* \"#utility.yul\":15405:15568   */\n      pop\n      jump\t// out\n        /* \"#utility.yul\":15574:15940   */\n    tag_267:\n        /* \"#utility.yul\":15716:15719   */\n      0x00\n        /* \"#utility.yul\":15737:15804   */\n      tag_455\n        /* \"#utility.yul\":15801:15803   */\n      0x0d\n        /* \"#utility.yul\":15796:15799   */\n      dup4\n        /* \"#utility.yul\":15737:15804   */\n      tag_255\n      jump\t// in\n    tag_455:\n        /* \"#utility.yul\":15730:15804   */\n      swap2\n      pop\n        /* \"#utility.yul\":15813:15906   */\n      tag_456\n        /* \"#utility.yul\":15902:15905   */\n      dup3\n        /* \"#utility.yul\":15813:15906   */\n      tag_266\n      jump\t// in\n    tag_456:\n        /* \"#utility.yul\":15931:15933   */\n      0x20\n        /* \"#utility.yul\":15926:15929   */\n      dup3\n        /* \"#utility.yul\":15922:15934   */\n      add\n        /* \"#utility.yul\":15915:15934   */\n      swap1\n      pop\n        /* \"#utility.yul\":15574:15940   */\n      swap2\n      swap1\n      pop\n      jump\t// out\n        /* \"#utility.yul\":15946:16365   */\n    tag_83:\n        /* \"#utility.yul\":16112:16116   */\n      0x00\n        /* \"#utility.yul\":16150:16152   */\n      0x20\n        /* \"#utility.yul\":16139:16148   */\n      dup3\n        /* \"#utility.yul\":16135:16153   */\n      add\n        /* \"#utility.yul\":16127:16153   */\n      swap1\n      pop\n        /* \"#utility.yul\":16199:16208   */\n      dup2\n        /* \"#utility.yul\":16193:16197   */\n      dup2\n        /* \"#utility.yul\":16189:16209   */\n      sub\n        /* \"#utility.yul\":16185:16186   */\n      0x00\n        /* \"#utility.yul\":16174:16183   */\n      dup4\n        /* \"#utility.yul\":16170:16187   */\n      add\n        /* \"#utility.yul\":16163:16210   */\n      mstore\n        /* \"#utility.yul\":16227:16358   */\n      tag_458\n        /* \"#utility.yul\":16353:16357   */\n      dup2\n        /* \"#utility.yul\":16227:16358   */\n      tag_267\n      jump\t// in\n    tag_458:\n        /* \"#utility.yul\":16219:16358   */\n      swap1\n      pop\n        /* \"#utility.yul\":15946:16365   */\n      swap2\n      swap1\n      pop\n      jump\t// out\n        /* \"#utility.yul\":16371:16465   */\n    tag_268:\n        /* \"#utility.yul\":16404:16412   */\n      0x00\n        /* \"#utility.yul\":16452:16457   */\n      dup2\n        /* \"#utility.yul\":16448:16450   */\n      0x60\n        /* \"#utility.yul\":16444:16458   */\n      shl\n        /* \"#utility.yul\":16423:16458   */\n      swap1\n      pop\n        /* \"#utility.yul\":16371:16465   */\n      swap2\n      swap1\n      pop\n      jump\t// out\n        /* \"#utility.yul\":16471:16565   */\n    tag_269:\n        /* \"#utility.yul\":16510:16517   */\n      0x00\n        /* \"#utility.yul\":16539:16559   */\n      tag_461\n        /* \"#utility.yul\":16553:16558   */\n      dup3\n        /* \"#utility.yul\":16539:16559   */\n      tag_268\n      jump\t// in\n    tag_461:\n        /* \"#utility.yul\":16528:16559   */\n      swap1\n      pop\n        /* \"#utility.yul\":16471:16565   */\n      swap2\n      swap1\n      pop\n      jump\t// out\n        /* \"#utility.yul\":16571:16671   */\n    tag_270:\n        /* \"#utility.yul\":16610:16617   */\n      0x00\n        /* \"#utility.yul\":16639:16665   */\n      tag_463\n        /* \"#utility.yul\":16659:16664   */\n      dup3\n        /* \"#utility.yul\":16639:16665   */\n      tag_269\n      jump\t// in\n    tag_463:\n        /* \"#utility.yul\":16628:16665   */\n      swap1\n      pop\n        /* \"#utility.yul\":16571:16671   */\n      swap2\n      swap1\n      pop\n      jump\t// out\n        /* \"#utility.yul\":16677:16834   */\n    tag_271:\n        /* \"#utility.yul\":16782:16827   */\n      tag_465\n        /* \"#utility.yul\":16802:16826   */\n      tag_466\n        /* \"#utility.yul\":16820:16825   */\n      dup3\n        /* \"#utility.yul\":16802:16826   */\n      tag_228\n      jump\t// in\n    tag_466:\n        /* \"#utility.yul\":16782:16827   */\n      tag_270\n      jump\t// in\n    tag_465:\n        /* \"#utility.yul\":16777:16780   */\n      dup3\n        /* \"#utility.yul\":16770:16828   */\n      mstore\n        /* \"#utility.yul\":16677:16834   */\n      pop\n      pop\n      jump\t// out\n        /* \"#utility.yul\":16840:17576   */\n    tag_163:\n        /* \"#utility.yul\":17096:17099   */\n      0x00\n        /* \"#utility.yul\":17118:17213   */\n      tag_468\n        /* \"#utility.yul\":17209:17212   */\n      dup3\n        /* \"#utility.yul\":17200:17206   */\n      dup8\n        /* \"#utility.yul\":17118:17213   */\n      tag_259\n      jump\t// in\n    tag_468:\n        /* \"#utility.yul\":17111:17213   */\n      swap2\n      pop\n        /* \"#utility.yul\":17230:17325   */\n      tag_469\n        /* \"#utility.yul\":17321:17324   */\n      dup3\n        /* \"#utility.yul\":17312:17318   */\n      dup7\n        /* \"#utility.yul\":17230:17325   */\n      tag_259\n      jump\t// in\n    tag_469:\n        /* \"#utility.yul\":17223:17325   */\n      swap2\n      pop\n        /* \"#utility.yul\":17342:17437   */\n      tag_470\n        /* \"#utility.yul\":17433:17436   */\n      dup3\n        /* \"#utility.yul\":17424:17430   */\n      dup6\n        /* \"#utility.yul\":17342:17437   */\n      tag_259\n      jump\t// in\n    tag_470:\n        /* \"#utility.yul\":17335:17437   */\n      swap2\n      pop\n        /* \"#utility.yul\":17447:17522   */\n      tag_471\n        /* \"#utility.yul\":17518:17521   */\n      dup3\n        /* \"#utility.yul\":17509:17515   */\n      dup5\n        /* \"#utility.yul\":17447:17522   */\n      tag_271\n      jump\t// in\n    tag_471:\n        /* \"#utility.yul\":17547:17549   */\n      0x14\n        /* \"#utility.yul\":17542:17545   */\n      dup3\n        /* \"#utility.yul\":17538:17550   */\n      add\n        /* \"#utility.yul\":17531:17550   */\n      swap2\n      pop\n        /* \"#utility.yul\":17567:17570   */\n      dup2\n        /* \"#utility.yul\":17560:17570   */\n      swap1\n      pop\n        /* \"#utility.yul\":16840:17576   */\n      swap6\n      swap5\n      pop\n      pop\n      pop\n      pop\n      pop\n      jump\t// out\n        /* \"#utility.yul\":17582:17759   */\n    tag_272:\n        /* \"#utility.yul\":17722:17751   */\n      0x52657461696c657220616c726561647920726567697374657265640000000000\n        /* \"#utility.yul\":17718:17719   */\n      0x00\n        /* \"#utility.yul\":17710:17716   */\n      dup3\n        /* \"#utility.yul\":17706:17720   */\n      add\n        /* \"#utility.yul\":17699:17752   */\n      mstore\n        /* \"#utility.yul\":17582:17759   */\n      pop\n      jump\t// out\n        /* \"#utility.yul\":17765:18131   */\n    tag_273:\n        /* \"#utility.yul\":17907:17910   */\n      0x00\n        /* \"#utility.yul\":17928:17995   */\n      tag_474\n        /* \"#utility.yul\":17992:17994   */\n      0x1b\n        /* \"#utility.yul\":17987:17990   */\n      dup4\n        /* \"#utility.yul\":17928:17995   */\n      tag_255\n      jump\t// in\n    tag_474:\n        /* \"#utility.yul\":17921:17995   */\n      swap2\n      pop\n        /* \"#utility.yul\":18004:18097   */\n      tag_475\n        /* \"#utility.yul\":18093:18096   */\n      dup3\n        /* \"#utility.yul\":18004:18097   */\n      tag_272\n      jump\t// in\n    tag_475:\n        /* \"#utility.yul\":18122:18124   */\n      0x20\n        /* \"#utility.yul\":18117:18120   */\n      dup3\n        /* \"#utility.yul\":18113:18125   */\n      add\n        /* \"#utility.yul\":18106:18125   */\n      swap1\n      pop\n        /* \"#utility.yul\":17765:18131   */\n      swap2\n      swap1\n      pop\n      jump\t// out\n        /* \"#utility.yul\":18137:18556   */\n    tag_169:\n        /* \"#utility.yul\":18303:18307   */\n      0x00\n        /* \"#utility.yul\":18341:18343   */\n      0x20\n        /* \"#utility.yul\":18330:18339   */\n      dup3\n        /* \"#utility.yul\":18326:18344   */\n      add\n        /* \"#utility.yul\":18318:18344   */\n      swap1\n      pop\n        /* \"#utility.yul\":18390:18399   */\n      dup2\n        /* \"#utility.yul\":18384:18388   */\n      dup2\n        /* \"#utility.yul\":18380:18400   */\n      sub\n        /* \"#utility.yul\":18376:18377   */\n      0x00\n        /* \"#utility.yul\":18365:18374   */\n      dup4\n        /* \"#utility.yul\":18361:18378   */\n      add\n        /* \"#utility.yul\":18354:18401   */\n      mstore\n        /* \"#utility.yul\":18418:18549   */\n      tag_477\n        /* \"#utility.yul\":18544:18548   */\n      dup2\n        /* \"#utility.yul\":18418:18549   */\n      tag_273\n      jump\t// in\n    tag_477:\n        /* \"#utility.yul\":18410:18549   */\n      swap1\n      pop\n        /* \"#utility.yul\":18137:18556   */\n      swap2\n      swap1\n      pop\n      jump\t// out\n        /* \"#utility.yul\":18562:18737   */\n    tag_274:\n        /* \"#utility.yul\":18702:18729   */\n      0x46756c6c206e616d652063616e6e6f7420626520656d70747900000000000000\n        /* \"#utility.yul\":18698:18699   */\n      0x00\n        /* \"#utility.yul\":18690:18696   */\n      dup3\n        /* \"#utility.yul\":18686:18700   */\n      add\n        /* \"#utility.yul\":18679:18730   */\n      mstore\n        /* \"#utility.yul\":18562:18737   */\n      pop\n      jump\t// out\n        /* \"#utility.yul\":18743:19109   */\n    tag_275:\n        /* \"#utility.yul\":18885:18888   */\n      0x00\n        /* \"#utility.yul\":18906:18973   */\n      tag_480\n        /* \"#utility.yul\":18970:18972   */\n      0x19\n        /* \"#utility.yul\":18965:18968   */\n      dup4\n        /* \"#utility.yul\":18906:18973   */\n      tag_255\n      jump\t// in\n    tag_480:\n        /* \"#utility.yul\":18899:18973   */\n      swap2\n      pop\n        /* \"#utility.yul\":18982:19075   */\n      tag_481\n        /* \"#utility.yul\":19071:19074   */\n      dup3\n        /* \"#utility.yul\":18982:19075   */\n      tag_274\n      jump\t// in\n    tag_481:\n        /* \"#utility.yul\":19100:19102   */\n      0x20\n        /* \"#utility.yul\":19095:19098   */\n      dup3\n        /* \"#utility.yul\":19091:19103   */\n      add\n        /* \"#utility.yul\":19084:19103   */\n      swap1\n      pop\n        /* \"#utility.yul\":18743:19109   */\n      swap2\n      swap1\n      pop\n      jump\t// out\n        /* \"#utility.yul\":19115:19534   */\n    tag_172:\n        /* \"#utility.yul\":19281:19285   */\n      0x00\n        /* \"#utility.yul\":19319:19321   */\n      0x20\n        /* \"#utility.yul\":19308:19317   */\n      dup3\n        /* \"#utility.yul\":19304:19322   */\n      add\n        /* \"#utility.yul\":19296:19322   */\n      swap1\n      pop\n        /* \"#utility.yul\":19368:19377   */\n      dup2\n        /* \"#utility.yul\":19362:19366   */\n      dup2\n        /* \"#utility.yul\":19358:19378   */\n      sub\n        /* \"#utility.yul\":19354:19355   */\n      0x00\n        /* \"#utility.yul\":19343:19352   */\n      dup4\n        /* \"#utility.yul\":19339:19356   */\n      add\n        /* \"#utility.yul\":19332:19379   */\n      mstore\n        /* \"#utility.yul\":19396:19527   */\n      tag_483\n        /* \"#utility.yul\":19522:19526   */\n      dup2\n        /* \"#utility.yul\":19396:19527   */\n      tag_275\n      jump\t// in\n    tag_483:\n        /* \"#utility.yul\":19388:19527   */\n      swap1\n      pop\n        /* \"#utility.yul\":19115:19534   */\n      swap2\n      swap1\n      pop\n      jump\t// out\n        /* \"#utility.yul\":19540:19714   */\n    tag_276:\n        /* \"#utility.yul\":19680:19706   */\n      0x50617373776f72642063616e6e6f7420626520656d7074790000000000000000\n        /* \"#utility.yul\":19676:19677   */\n      0x00\n        /* \"#utility.yul\":19668:19674   */\n      dup3\n        /* \"#utility.yul\":19664:19678   */\n      add\n        /* \"#utility.yul\":19657:19707   */\n      mstore\n        /* \"#utility.yul\":19540:19714   */\n      pop\n      jump\t// out\n        /* \"#utility.yul\":19720:20086   */\n    tag_277:\n        /* \"#utility.yul\":19862:19865   */\n      0x00\n        /* \"#utility.yul\":19883:19950   */\n      tag_486\n        /* \"#utility.yul\":19947:19949   */\n      0x18\n        /* \"#utility.yul\":19942:19945   */\n      dup4\n        /* \"#utility.yul\":19883:19950   */\n      tag_255\n      jump\t// in\n    tag_486:\n        /* \"#utility.yul\":19876:19950   */\n      swap2\n      pop\n        /* \"#utility.yul\":19959:20052   */\n      tag_487\n        /* \"#utility.yul\":20048:20051   */\n      dup3\n        /* \"#utility.yul\":19959:20052   */\n      tag_276\n      jump\t// in\n    tag_487:\n        /* \"#utility.yul\":20077:20079   */\n      0x20\n        /* \"#utility.yul\":20072:20075   */\n      dup3\n        /* \"#utility.yul\":20068:20080   */\n      add\n        /* \"#utility.yul\":20061:20080   */\n      swap1\n      pop\n        /* \"#utility.yul\":19720:20086   */\n      swap2\n      swap1\n      pop\n      jump\t// out\n        /* \"#utility.yul\":20092:20511   */\n    tag_175:\n        /* \"#utility.yul\":20258:20262   */\n      0x00\n        /* \"#utility.yul\":20296:20298   */\n      0x20\n        /* \"#utility.yul\":20285:20294   */\n      dup3\n        /* \"#utility.yul\":20281:20299   */\n      add\n        /* \"#utility.yul\":20273:20299   */\n      swap1\n      pop\n        /* \"#utility.yul\":20345:20354   */\n      dup2\n        /* \"#utility.yul\":20339:20343   */\n      dup2\n        /* \"#utility.yul\":20335:20355   */\n      sub\n        /* \"#utility.yul\":20331:20332   */\n      0x00\n        /* \"#utility.yul\":20320:20329   */\n      dup4\n        /* \"#utility.yul\":20316:20333   */\n      add\n        /* \"#utility.yul\":20309:20356   */\n      mstore\n        /* \"#utility.yul\":20373:20504   */\n      tag_489\n        /* \"#utility.yul\":20499:20503   */\n      dup2\n        /* \"#utility.yul\":20373:20504   */\n      tag_277\n      jump\t// in\n    tag_489:\n        /* \"#utility.yul\":20365:20504   */\n      swap1\n      pop\n        /* \"#utility.yul\":20092:20511   */\n      swap2\n      swap1\n      pop\n      jump\t// out\n        /* \"#utility.yul\":20517:20688   */\n    tag_278:\n        /* \"#utility.yul\":20657:20680   */\n      0x456d61696c2063616e6e6f7420626520656d7074790000000000000000000000\n        /* \"#utility.yul\":20653:20654   */\n      0x00\n        /* \"#utility.yul\":20645:20651   */\n      dup3\n        /* \"#utility.yul\":20641:20655   */\n      add\n        /* \"#utility.yul\":20634:20681   */\n      mstore\n        /* \"#utility.yul\":20517:20688   */\n      pop\n      jump\t// out\n        /* \"#utility.yul\":20694:21060   */\n    tag_279:\n        /* \"#utility.yul\":20836:20839   */\n      0x00\n        /* \"#utility.yul\":20857:20924   */\n      tag_492\n        /* \"#utility.yul\":20921:20923   */\n      0x15\n        /* \"#utility.yul\":20916:20919   */\n      dup4\n        /* \"#utility.yul\":20857:20924   */\n      tag_255\n      jump\t// in\n    tag_492:\n        /* \"#utility.yul\":20850:20924   */\n      swap2\n      pop\n        /* \"#utility.yul\":20933:21026   */\n      tag_493\n        /* \"#utility.yul\":21022:21025   */\n      dup3\n        /* \"#utility.yul\":20933:21026   */\n      tag_278\n      jump\t// in\n    tag_493:\n        /* \"#utility.yul\":21051:21053   */\n      0x20\n        /* \"#utility.yul\":21046:21049   */\n      dup3\n        /* \"#utility.yul\":21042:21054   */\n      add\n        /* \"#utility.yul\":21035:21054   */\n      swap1\n      pop\n        /* \"#utility.yul\":20694:21060   */\n      swap2\n      swap1\n      pop\n      jump\t// out\n        /* \"#utility.yul\":21066:21485   */\n    tag_178:\n        /* \"#utility.yul\":21232:21236   */\n      0x00\n        /* \"#utility.yul\":21270:21272   */\n      0x20\n        /* \"#utility.yul\":21259:21268   */\n      dup3\n        /* \"#utility.yul\":21255:21273   */\n      add\n        /* \"#utility.yul\":21247:21273   */\n      swap1\n      pop\n        /* \"#utility.yul\":21319:21328   */\n      dup2\n        /* \"#utility.yul\":21313:21317   */\n      dup2\n        /* \"#utility.yul\":21309:21329   */\n      sub\n        /* \"#utility.yul\":21305:21306   */\n      0x00\n        /* \"#utility.yul\":21294:21303   */\n      dup4\n        /* \"#utility.yul\":21290:21307   */\n      add\n        /* \"#utility.yul\":21283:21330   */\n      mstore\n        /* \"#utility.yul\":21347:21478   */\n      tag_495\n        /* \"#utility.yul\":21473:21477   */\n      dup2\n        /* \"#utility.yul\":21347:21478   */\n      tag_279\n      jump\t// in\n    tag_495:\n        /* \"#utility.yul\":21339:21478   */\n      swap1\n      pop\n        /* \"#utility.yul\":21066:21485   */\n      swap2\n      swap1\n      pop\n      jump\t// out\n        /* \"#utility.yul\":21491:21584   */\n    tag_280:\n        /* \"#utility.yul\":21528:21534   */\n      0x00\n        /* \"#utility.yul\":21575:21577   */\n      0x20\n        /* \"#utility.yul\":21570:21572   */\n      0x1f\n        /* \"#utility.yul\":21563:21568   */\n      dup4\n        /* \"#utility.yul\":21559:21573   */\n      add\n        /* \"#utility.yul\":21555:21578   */\n      div\n        /* \"#utility.yul\":21545:21578   */\n      swap1\n      pop\n        /* \"#utility.yul\":21491:21584   */\n      swap2\n      swap1\n      pop\n      jump\t// out\n        /* \"#utility.yul\":21590:21697   */\n    tag_281:\n        /* \"#utility.yul\":21634:21642   */\n      0x00\n        /* \"#utility.yul\":21684:21689   */\n      dup3\n        /* \"#utility.yul\":21678:21682   */\n      dup3\n        /* \"#utility.yul\":21674:21690   */\n      shl\n        /* \"#utility.yul\":21653:21690   */\n      swap1\n      pop\n        /* \"#utility.yul\":21590:21697   */\n      swap3\n      swap2\n      pop\n      pop\n      jump\t// out\n        /* \"#utility.yul\":21703:22096   */\n    tag_282:\n        /* \"#utility.yul\":21772:21778   */\n      0x00\n        /* \"#utility.yul\":21822:21823   */\n      0x08\n        /* \"#utility.yul\":21810:21820   */\n      dup4\n        /* \"#utility.yul\":21806:21824   */\n      mul\n        /* \"#utility.yul\":21845:21942   */\n      tag_499\n        /* \"#utility.yul\":21875:21941   */\n      0xffffffffffffffffffffffffffffffffffffffffffffffffffffffffffffffff\n        /* \"#utility.yul\":21864:21873   */\n      dup3\n        /* \"#utility.yul\":21845:21942   */\n      tag_281\n      jump\t// in\n    tag_499:\n        /* \"#utility.yul\":21963:22002   */\n      tag_500\n        /* \"#utility.yul\":21993:22001   */\n      dup7\n        /* \"#utility.yul\":21982:21991   */\n      dup4\n        /* \"#utility.yul\":21963:22002   */\n      tag_281\n      jump\t// in\n    tag_500:\n        /* \"#utility.yul\":21951:22002   */\n      swap6\n      pop\n        /* \"#utility.yul\":22035:22039   */\n      dup1\n        /* \"#utility.yul\":22031:22040   */\n      not\n        /* \"#utility.yul\":22024:22029   */\n      dup5\n        /* \"#utility.yul\":22020:22041   */\n      and\n        /* \"#utility.yul\":22011:22041   */\n      swap4\n      pop\n        /* \"#utility.yul\":22084:22088   */\n      dup1\n        /* \"#utility.yul\":22074:22082   */\n      dup7\n        /* \"#utility.yul\":22070:22089   */\n      and\n        /* \"#utility.yul\":22063:22068   */\n      dup5\n        /* \"#utility.yul\":22060:22090   */\n      or\n        /* \"#utility.yul\":22050:22090   */\n      swap3\n      pop\n        /* \"#utility.yul\":21779:22096   */\n      pop\n      pop\n        /* \"#utility.yul\":21703:22096   */\n      swap4\n      swap3\n      pop\n      pop\n      pop\n      jump\t// out\n        /* \"#utility.yul\":22102:22162   */\n    tag_283:\n        /* \"#utility.yul\":22130:22133   */\n      0x00\n        /* \"#utility.yul\":22151:22156   */\n      dup2\n        /* \"#utility.yul\":22144:22156   */\n      swap1\n      pop\n        /* \"#utility.yul\":22102:22162   */\n      swap2\n      swap1\n      pop\n      jump\t// out\n        /* \"#utility.yul\":22168:22310   */\n    tag_284:\n        /* \"#utility.yul\":22218:22227   */\n      0x00\n        /* \"#utility.yul\":22251:22304   */\n      tag_503\n        /* \"#utility.yul\":22269:22303   */\n      tag_504\n        /* \"#utility.yul\":22278:22302   */\n      tag_505\n        /* \"#utility.yul\":22296:22301   */\n      dup5\n        /* \"#utility.yul\":22278:22302   */\n      tag_250\n      jump\t// in\n    tag_505:\n        /* \"#utility.yul\":22269:22303   */\n      tag_283\n      jump\t// in\n    tag_504:\n        /* \"#utility.yul\":22251:22304   */\n      tag_250\n      jump\t// in\n    tag_503:\n        /* \"#utility.yul\":22238:22304   */\n      swap1\n      pop\n        /* \"#utility.yul\":22168:22310   */\n      swap2\n      swap1\n      pop\n      jump\t// out\n        /* \"#utility.yul\":22316:22391   */\n    tag_285:\n        /* \"#utility.yul\":22359:22362   */\n      0x00\n        /* \"#utility.yul\":22380:22385   */\n      dup2\n        /* \"#utility.yul\":22373:22385   */\n      swap1\n      pop\n        /* \"#utility.yul\":22316:22391   */\n      swap2\n      swap1\n      pop\n      jump\t// out\n        /* \"#utility.yul\":22397:22666   */\n    tag_286:\n        /* \"#utility.yul\":22507:22546   */\n      tag_508\n        /* \"#utility.yul\":22538:22545   */\n      dup4\n        /* \"#utility.yul\":22507:22546   */\n      tag_284\n      jump\t// in\n    tag_508:\n        /* \"#utility.yul\":22568:22659   */\n      tag_509\n        /* \"#utility.yul\":22617:22658   */\n      tag_510\n        /* \"#utility.yul\":22641:22657   */\n      dup3\n        /* \"#utility.yul\":22617:22658   */\n      tag_285\n      jump\t// in\n    tag_510:\n        /* \"#utility.yul\":22609:22615   */\n      dup5\n        /* \"#utility.yul\":22602:22606   */\n      dup5\n        /* \"#utility.yul\":22596:22607   */\n      sload\n        /* \"#utility.yul\":22568:22659   */\n      tag_282\n      jump\t// in\n    tag_509:\n        /* \"#utility.yul\":22562:22566   */\n      dup3\n        /* \"#utility.yul\":22555:22660   */\n      sstore\n        /* \"#utility.yul\":22473:22666   */\n      pop\n        /* \"#utility.yul\":22397:22666   */\n      pop\n      pop\n      pop\n      jump\t// out\n        /* \"#utility.yul\":22672:22745   */\n    tag_287:\n        /* \"#utility.yul\":22717:22720   */\n      0x00\n        /* \"#utility.yul\":22672:22745   */\n      swap1\n      jump\t// out\n        /* \"#utility.yul\":22751:22940   */\n    tag_288:\n        /* \"#utility.yul\":22828:22860   */\n      tag_513\n      tag_287\n      jump\t// in\n    tag_513:\n        /* \"#utility.yul\":22869:22934   */\n      tag_514\n        /* \"#utility.yul\":22927:22933   */\n      dup2\n        /* \"#utility.yul\":22919:22925   */\n      dup5\n        /* \"#utility.yul\":22913:22917   */\n      dup5\n        /* \"#utility.yul\":22869:22934   */\n      tag_286\n      jump\t// in\n    tag_514:\n        /* \"#utility.yul\":22804:22940   */\n      pop\n        /* \"#utility.yul\":22751:22940   */\n      pop\n      pop\n      jump\t// out\n        /* \"#utility.yul\":22946:23132   */\n    tag_289:\n        /* \"#utility.yul\":23006:23126   */\n    tag_516:\n        /* \"#utility.yul\":23023:23026   */\n      dup2\n        /* \"#utility.yul\":23016:23021   */\n      dup2\n        /* \"#utility.yul\":23013:23027   */\n      lt\n        /* \"#utility.yul\":23006:23126   */\n      iszero\n      tag_518\n      jumpi\n        /* \"#utility.yul\":23077:23116   */\n      tag_519\n        /* \"#utility.yul\":23114:23115   */\n      0x00\n        /* \"#utility.yul\":23107:23112   */\n      dup3\n        /* \"#utility.yul\":23077:23116   */\n      tag_288\n      jump\t// in\n    tag_519:\n        /* \"#utility.yul\":23050:23051   */\n      0x01\n        /* \"#utility.yul\":23043:23048   */\n      dup2\n        /* \"#utility.yul\":23039:23052   */\n      add\n        /* \"#utility.yul\":23030:23052   */\n      swap1\n      pop\n        /* \"#utility.yul\":23006:23126   */\n      jump(tag_516)\n    tag_518:\n        /* \"#utility.yul\":22946:23132   */\n      pop\n      pop\n      jump\t// out\n        /* \"#utility.yul\":23138:23681   */\n    tag_290:\n        /* \"#utility.yul\":23239:23241   */\n      0x1f\n        /* \"#utility.yul\":23234:23237   */\n      dup3\n        /* \"#utility.yul\":23231:23242   */\n      gt\n        /* \"#utility.yul\":23228:23674   */\n      iszero\n      tag_521\n      jumpi\n        /* \"#utility.yul\":23273:23311   */\n      tag_522\n        /* \"#utility.yul\":23305:23310   */\n      dup2\n        /* \"#utility.yul\":23273:23311   */\n      tag_264\n      jump\t// in\n    tag_522:\n        /* \"#utility.yul\":23357:23386   */\n      tag_523\n        /* \"#utility.yul\":23375:23385   */\n      dup5\n        /* \"#utility.yul\":23357:23386   */\n      tag_280\n      jump\t// in\n    tag_523:\n        /* \"#utility.yul\":23347:23355   */\n      dup2\n        /* \"#utility.yul\":23343:23387   */\n      add\n        /* \"#utility.yul\":23540:23542   */\n      0x20\n        /* \"#utility.yul\":23528:23538   */\n      dup6\n        /* \"#utility.yul\":23525:23543   */\n      lt\n        /* \"#utility.yul\":23522:23571   */\n      iszero\n      tag_524\n      jumpi\n        /* \"#utility.yul\":23561:23569   */\n      dup2\n        /* \"#utility.yul\":23546:23569   */\n      swap1\n      pop\n        /* \"#utility.yul\":23522:23571   */\n    tag_524:\n        /* \"#utility.yul\":23584:23664   */\n      tag_525\n        /* \"#utility.yul\":23640:23662   */\n      tag_526\n        /* \"#utility.yul\":23658:23661   */\n      dup6\n        /* \"#utility.yul\":23640:23662   */\n      tag_280\n      jump\t// in\n    tag_526:\n        /* \"#utility.yul\":23630:23638   */\n      dup4\n        /* \"#utility.yul\":23626:23663   */\n      add\n        /* \"#utility.yul\":23613:23624   */\n      dup3\n        /* \"#utility.yul\":23584:23664   */\n      tag_289\n      jump\t// in\n    tag_525:\n        /* \"#utility.yul\":23243:23674   */\n      pop\n      pop\n        /* \"#utility.yul\":23228:23674   */\n    tag_521:\n        /* \"#utility.yul\":23138:23681   */\n      pop\n      pop\n      pop\n      jump\t// out\n        /* \"#utility.yul\":23687:23804   */\n    tag_291:\n        /* \"#utility.yul\":23741:23749   */\n      0x00\n        /* \"#utility.yul\":23791:23796   */\n      dup3\n        /* \"#utility.yul\":23785:23789   */\n      dup3\n        /* \"#utility.yul\":23781:23797   */\n      shr\n        /* \"#utility.yul\":23760:23797   */\n      swap1\n      pop\n        /* \"#utility.yul\":23687:23804   */\n      swap3\n      swap2\n      pop\n      pop\n      jump\t// out\n        /* \"#utility.yul\":23810:23979   */\n    tag_292:\n        /* \"#utility.yul\":23854:23860   */\n      0x00\n        /* \"#utility.yul\":23887:23938   */\n      tag_529\n        /* \"#utility.yul\":23935:23936   */\n      0x00\n        /* \"#utility.yul\":23931:23937   */\n      not\n        /* \"#utility.yul\":23923:23928   */\n      dup5\n        /* \"#utility.yul\":23920:23921   */\n      0x08\n        /* \"#utility.yul\":23916:23929   */\n      mul\n        /* \"#utility.yul\":23887:23938   */\n      tag_291\n      jump\t// in\n    tag_529:\n        /* \"#utility.yul\":23883:23939   */\n      not\n        /* \"#utility.yul\":23968:23972   */\n      dup1\n        /* \"#utility.yul\":23962:23966   */\n      dup4\n        /* \"#utility.yul\":23958:23973   */\n      and\n        /* \"#utility.yul\":23948:23973   */\n      swap2\n      pop\n        /* \"#utility.yul\":23861:23979   */\n      pop\n        /* \"#utility.yul\":23810:23979   */\n      swap3\n      swap2\n      pop\n      pop\n      jump\t// out\n        /* \"#utility.yul\":23984:24279   */\n    tag_293:\n        /* \"#utility.yul\":24060:24064   */\n      0x00\n        /* \"#utility.yul\":24206:24235   */\n      tag_531\n        /* \"#utility.yul\":24231:24234   */\n      dup4\n        /* \"#utility.yul\":24225:24229   */\n      dup4\n        /* \"#utility.yul\":24206:24235   */\n      tag_292\n      jump\t// in\n    tag_531:\n        /* \"#utility.yul\":24198:24235   */\n      swap2\n      pop\n        /* \"#utility.yul\":24268:24271   */\n      dup3\n        /* \"#utility.yul\":24265:24266   */\n      0x02\n        /* \"#utility.yul\":24261:24272   */\n      mul\n        /* \"#utility.yul\":24255:24259   */\n      dup3\n        /* \"#utility.yul\":24252:24273   */\n      or\n        /* \"#utility.yul\":24244:24273   */\n      swap1\n      pop\n        /* \"#utility.yul\":23984:24279   */\n      swap3\n      swap2\n      pop\n      pop\n      jump\t// out\n        /* \"#utility.yul\":24284:25679   */\n    tag_181:\n        /* \"#utility.yul\":24401:24438   */\n      tag_533\n        /* \"#utility.yul\":24434:24437   */\n      dup3\n        /* \"#utility.yul\":24401:24438   */\n      tag_254\n      jump\t// in\n    tag_533:\n        /* \"#utility.yul\":24503:24521   */\n      0xffffffffffffffff\n        /* \"#utility.yul\":24495:24501   */\n      dup2\n        /* \"#utility.yul\":24492:24522   */\n      gt\n        /* \"#utility.yul\":24489:24545   */\n      iszero\n      tag_534\n      jumpi\n        /* \"#utility.yul\":24525:24543   */\n      tag_535\n      tag_241\n      jump\t// in\n    tag_535:\n        /* \"#utility.yul\":24489:24545   */\n    tag_534:\n        /* \"#utility.yul\":24569:24607   */\n      tag_536\n        /* \"#utility.yul\":24601:24605   */\n      dup3\n        /* \"#utility.yul\":24595:24606   */\n      sload\n        /* \"#utility.yul\":24569:24607   */\n      tag_85\n      jump\t// in\n    tag_536:\n        /* \"#utility.yul\":24654:24721   */\n      tag_537\n        /* \"#utility.yul\":24714:24720   */\n      dup3\n        /* \"#utility.yul\":24706:24712   */\n      dup3\n        /* \"#utility.yul\":24700:24704   */\n      dup6\n        /* \"#utility.yul\":24654:24721   */\n      tag_290\n      jump\t// in\n    tag_537:\n        /* \"#utility.yul\":24748:24749   */\n      0x00\n        /* \"#utility.yul\":24772:24776   */\n      0x20\n        /* \"#utility.yul\":24759:24776   */\n      swap1\n      pop\n        /* \"#utility.yul\":24804:24806   */\n      0x1f\n        /* \"#utility.yul\":24796:24802   */\n      dup4\n        /* \"#utility.yul\":24793:24807   */\n      gt\n        /* \"#utility.yul\":24821:24822   */\n      0x01\n        /* \"#utility.yul\":24816:25434   */\n      dup2\n      eq\n      tag_539\n      jumpi\n        /* \"#utility.yul\":25478:25479   */\n      0x00\n        /* \"#utility.yul\":25495:25501   */\n      dup5\n        /* \"#utility.yul\":25492:25569   */\n      iszero\n      tag_540\n      jumpi\n        /* \"#utility.yul\":25544:25553   */\n      dup3\n        /* \"#utility.yul\":25539:25542   */\n      dup8\n        /* \"#utility.yul\":25535:25554   */\n      add\n        /* \"#utility.yul\":25529:25555   */\n      mload\n        /* \"#utility.yul\":25520:25555   */\n      swap1\n      pop\n        /* \"#utility.yul\":25492:25569   */\n    tag_540:\n        /* \"#utility.yul\":25595:25662   */\n      tag_541\n        /* \"#utility.yul\":25655:25661   */\n      dup6\n        /* \"#utility.yul\":25648:25653   */\n      dup3\n        /* \"#utility.yul\":25595:25662   */\n      tag_293\n      jump\t// in\n    tag_541:\n        /* \"#utility.yul\":25589:25593   */\n      dup7\n        /* \"#utility.yul\":25582:25663   */\n      sstore\n        /* \"#utility.yul\":25451:25673   */\n      pop\n        /* \"#utility.yul\":24786:25673   */\n      jump(tag_538)\n        /* \"#utility.yul\":24816:25434   */\n    tag_539:\n        /* \"#utility.yul\":24868:24872   */\n      0x1f\n        /* \"#utility.yul\":24864:24873   */\n      not\n        /* \"#utility.yul\":24856:24862   */\n      dup5\n        /* \"#utility.yul\":24852:24874   */\n      and\n        /* \"#utility.yul\":24902:24939   */\n      tag_542\n        /* \"#utility.yul\":24934:24938   */\n      dup7\n        /* \"#utility.yul\":24902:24939   */\n      tag_264\n      jump\t// in\n    tag_542:\n        /* \"#utility.yul\":24961:24962   */\n      0x00\n        /* \"#utility.yul\":24975:25183   */\n    tag_543:\n        /* \"#utility.yul\":24989:24996   */\n      dup3\n        /* \"#utility.yul\":24986:24987   */\n      dup2\n        /* \"#utility.yul\":24983:24997   */\n      lt\n        /* \"#utility.yul\":24975:25183   */\n      iszero\n      tag_545\n      jumpi\n        /* \"#utility.yul\":25068:25077   */\n      dup5\n        /* \"#utility.yul\":25063:25066   */\n      dup10\n        /* \"#utility.yul\":25059:25078   */\n      add\n        /* \"#utility.yul\":25053:25079   */\n      mload\n        /* \"#utility.yul\":25045:25051   */\n      dup3\n        /* \"#utility.yul\":25038:25080   */\n      sstore\n        /* \"#utility.yul\":25119:25120   */\n      0x01\n        /* \"#utility.yul\":25111:25117   */\n      dup3\n        /* \"#utility.yul\":25107:25121   */\n      add\n        /* \"#utility.yul\":25097:25121   */\n      swap2\n      pop\n        /* \"#utility.yul\":25166:25168   */\n      0x20\n        /* \"#utility.yul\":25155:25164   */\n      dup6\n        /* \"#utility.yul\":25151:25169   */\n      add\n        /* \"#utility.yul\":25138:25169   */\n      swap5\n      pop\n        /* \"#utility.yul\":25012:25016   */\n      0x20\n        /* \"#utility.yul\":25009:25010   */\n      dup2\n        /* \"#utility.yul\":25005:25017   */\n      add\n        /* \"#utility.yul\":25000:25017   */\n      swap1\n      pop\n        /* \"#utility.yul\":24975:25183   */\n      jump(tag_543)\n    tag_545:\n        /* \"#utility.yul\":25211:25217   */\n      dup7\n        /* \"#utility.yul\":25202:25209   */\n      dup4\n        /* \"#utility.yul\":25199:25218   */\n      lt\n        /* \"#utility.yul\":25196:25375   */\n      iszero\n      tag_546\n      jumpi\n        /* \"#utility.yul\":25269:25278   */\n      dup5\n        /* \"#utility.yul\":25264:25267   */\n      dup10\n        /* \"#utility.yul\":25260:25279   */\n      add\n        /* \"#utility.yul\":25254:25280   */\n      mload\n        /* \"#utility.yul\":25312:25360   */\n      tag_547\n        /* \"#utility.yul\":25354:25358   */\n      0x1f\n        /* \"#utility.yul\":25346:25352   */\n      dup10\n        /* \"#utility.yul\":25342:25359   */\n      and\n        /* \"#utility.yul\":25331:25340   */\n      dup3\n        /* \"#utility.yul\":25312:25360   */\n      tag_292\n      jump\t// in\n    tag_547:\n        /* \"#utility.yul\":25304:25310   */\n      dup4\n        /* \"#utility.yul\":25297:25361   */\n      sstore\n        /* \"#utility.yul\":25219:25375   */\n      pop\n        /* \"#utility.yul\":25196:25375   */\n    tag_546:\n        /* \"#utility.yul\":25421:25422   */\n      0x01\n        /* \"#utility.yul\":25417:25418   */\n      0x02\n        /* \"#utility.yul\":25409:25415   */\n      dup9\n        /* \"#utility.yul\":25405:25419   */\n      mul\n        /* \"#utility.yul\":25401:25423   */\n      add\n        /* \"#utility.yul\":25395:25399   */\n      dup9\n        /* \"#utility.yul\":25388:25424   */\n      sstore\n        /* \"#utility.yul\":24823:25434   */\n      pop\n      pop\n      pop\n        /* \"#utility.yul\":24786:25673   */\n    tag_538:\n      pop\n        /* \"#utility.yul\":24376:25679   */\n      pop\n      pop\n      pop\n        /* \"#utility.yul\":24284:25679   */\n      pop\n      pop\n      jump\t// out\n        /* \"#utility.yul\":25685:25865   */\n    tag_209:\n        /* \"#utility.yul\":25733:25810   */\n      0x4e487b7100000000000000000000000000000000000000000000000000000000\n        /* \"#utility.yul\":25730:25731   */\n      0x00\n        /* \"#utility.yul\":25723:25811   */\n      mstore\n        /* \"#utility.yul\":25830:25834   */\n      0x32\n        /* \"#utility.yul\":25827:25828   */\n      0x04\n        /* \"#utility.yul\":25820:25835   */\n      mstore\n        /* \"#utility.yul\":25854:25858   */\n      0x24\n        /* \"#utility.yul\":25851:25852   */\n      0x00\n        /* \"#utility.yul\":25844:25859   */\n      revert\n        /* \"#utility.yul\":25871:26051   */\n    tag_294:\n        /* \"#utility.yul\":25919:25996   */\n      0x4e487b7100000000000000000000000000000000000000000000000000000000\n        /* \"#utility.yul\":25916:25917   */\n      0x00\n        /* \"#utility.yul\":25909:25997   */\n      mstore\n        /* \"#utility.yul\":26016:26020   */\n      0x11\n        /* \"#utility.yul\":26013:26014   */\n      0x04\n        /* \"#utility.yul\":26006:26021   */\n      mstore\n        /* \"#utility.yul\":26040:26044   */\n      0x24\n        /* \"#utility.yul\":26037:26038   */\n      0x00\n        /* \"#utility.yul\":26030:26045   */\n      revert\n        /* \"#utility.yul\":26057:26290   */\n    tag_216:\n        /* \"#utility.yul\":26096:26099   */\n      0x00\n        /* \"#utility.yul\":26119:26143   */\n      tag_551\n        /* \"#utility.yul\":26137:26142   */\n      dup3\n        /* \"#utility.yul\":26119:26143   */\n      tag_250\n      jump\t// in\n    tag_551:\n        /* \"#utility.yul\":26110:26143   */\n      swap2\n      pop\n        /* \"#utility.yul\":26165:26231   */\n      0xffffffffffffffffffffffffffffffffffffffffffffffffffffffffffffffff\n        /* \"#utility.yul\":26158:26163   */\n      dup3\n        /* \"#utility.yul\":26155:26232   */\n      sub\n        /* \"#utility.yul\":26152:26255   */\n      tag_552\n      jumpi\n        /* \"#utility.yul\":26235:26253   */\n      tag_553\n      tag_294\n      jump\t// in\n    tag_553:\n        /* \"#utility.yul\":26152:26255   */\n    tag_552:\n        /* \"#utility.yul\":26282:26283   */\n      0x01\n        /* \"#utility.yul\":26275:26280   */\n      dup3\n        /* \"#utility.yul\":26271:26284   */\n      add\n        /* \"#utility.yul\":26264:26284   */\n      swap1\n      pop\n        /* \"#utility.yul\":26057:26290   */\n      swap2\n      swap1\n      pop\n      jump\t// out\n\n    auxdata: 0xa26469706673582212204d953592cc70dbe1d20e5c8616b8ab27bf61f5ad84651e2468e5eefb5b098e2e64736f6c63430008160033\n}\n",
				"bytecode": {
					"linkReferences": {},
					"object": "608060405234801561000f575f80fd5b50335f806101000a81548173ffffffffffffffffffffffffffffffffffffffff021916908373ffffffffffffffffffffffffffffffffffffffff16021790555061232b8061005c5f395ff3fe608060405234801561000f575f80fd5b50600436106100a7575f3560e01c80636e44cd421161006f5780636e44cd42146101895780636f77926b146101b9578063a5578807146101ed578063b48ff0f11461021d578063e0b1cccb14610239578063ecca407314610255576100a7565b80630586510d146100ab57806306f22b04146100c95780632b04e840146100f95780635c60f2261461012957806365f68c8914610159575b5f80fd5b6100b3610285565b6040516100c091906116d5565b60405180910390f35b6100e360048036038101906100de919061186c565b610310565b6040516100f0919061190e565b60405180910390f35b610113600480360381019061010e919061195a565b61042c565b60405161012091906119a7565b60405180910390f35b610143600480360381019061013e91906119c0565b6106ca565b604051610150919061190e565b60405180910390f35b610173600480360381019061016e91906119c0565b6107af565b60405161018091906119a7565b60405180910390f35b6101a3600480360381019061019e919061195a565b6109ca565b6040516101b09190611a65565b60405180910390f35b6101d360048036038101906101ce91906119c0565b610c69565b6040516101e4959493929190611a85565b60405180910390f35b610207600480360381019061020291906119c0565b610eaa565b604051610214919061190e565b60405180910390f35b61023760048036038101906102329190611aeb565b610ef5565b005b610253600480360381019061024e919061195a565b6111da565b005b61026f600480360381019061026a919061195a565b611223565b60405161027c9190611a65565b60405180910390f35b6060600280548060200260200160405190810160405280929190818152602001828054801561030657602002820191905f5260205f20905b815f9054906101000a900473ffffffffffffffffffffffffffffffffffffffff1673ffffffffffffffffffffffffffffffffffffffff16815260200190600101908083116102bd575b5050505050905090565b5f8060015f8673ffffffffffffffffffffffffffffffffffffffff1673ffffffffffffffffffffffffffffffffffffffff1681526020019081526020015f20905060038484604051602001610366929190611bdd565b6040516020818303038152906040526040516103829190611c44565b602060405180830381855afa15801561039d573d5f803e3d5ffd5b5050506040515160601b6bffffffffffffffffffffffff1916600382600301836002016040516020016103d1929190611d49565b6040516020818303038152906040526040516103ed9190611c44565b602060405180830381855afa158015610408573d5f803e3d5ffd5b5050506040515160601b6bffffffffffffffffffffffff1916149150509392505050565b5f8160015f8573ffffffffffffffffffffffffffffffffffffffff1673ffffffffffffffffffffffffffffffffffffffff1681526020019081526020015f205f0154146104ae576040517f08c379a00000000000000000000000000000000000000000000000000000000081526004016104a590611db6565b60405180910390fd5b5f60015f8573ffffffffffffffffffffffffffffffffffffffff1673ffffffffffffffffffffffffffffffffffffffff1681526020019081526020015f206040518060a00160405290815f820154815260200160018201805461051090611c87565b80601f016020809104026020016040519081016040528092919081815260200182805461053c90611c87565b80156105875780601f1061055e57610100808354040283529160200191610587565b820191905f5260205f20905b81548152906001019060200180831161056a57829003601f168201915b505050505081526020016002820180546105a090611c87565b80601f01602080910402602001604051908101604052809291908181526020018280546105cc90611c87565b80156106175780601f106105ee57610100808354040283529160200191610617565b820191905f5260205f20905b8154815290600101906020018083116105fa57829003601f168201915b5050505050815260200160038201805461063090611c87565b80601f016020809104026020016040519081016040528092919081815260200182805461065c90611c87565b80156106a75780601f1061067e576101008083540402835291602001916106a7565b820191905f5260205f20905b81548152906001019060200180831161068a57829003601f168201915b505050505081526020016004820154815250509050806080015191505092915050565b5f60015f8373ffffffffffffffffffffffffffffffffffffffff1673ffffffffffffffffffffffffffffffffffffffff1681526020019081526020015f205f8082015f9055600182015f61071e9190611596565b600282015f61072d9190611596565b600382015f61073c9190611596565b600482015f905550505f60015f8473ffffffffffffffffffffffffffffffffffffffff1673ffffffffffffffffffffffffffffffffffffffff1681526020019081526020015f205f01541480156107985750610797826114c2565b5b156107a657600190506107aa565b5f90505b919050565b5f8060015f8473ffffffffffffffffffffffffffffffffffffffff1673ffffffffffffffffffffffffffffffffffffffff1681526020019081526020015f206040518060a00160405290815f820154815260200160018201805461081290611c87565b80601f016020809104026020016040519081016040528092919081815260200182805461083e90611c87565b80156108895780601f1061086057610100808354040283529160200191610889565b820191905f5260205f20905b81548152906001019060200180831161086c57829003601f168201915b505050505081526020016002820180546108a290611c87565b80601f01602080910402602001604051908101604052809291908181526020018280546108ce90611c87565b80156109195780601f106108f057610100808354040283529160200191610919565b820191905f5260205f20905b8154815290600101906020018083116108fc57829003601f168201915b5050505050815260200160038201805461093290611c87565b80601f016020809104026020016040519081016040528092919081815260200182805461095e90611c87565b80156109a95780601f10610980576101008083540402835291602001916109a9565b820191905f5260205f20905b81548152906001019060200180831161098c57829003601f168201915b505050505081526020016004820154815250509050805f0151915050919050565b60608160015f8573ffffffffffffffffffffffffffffffffffffffff1673ffffffffffffffffffffffffffffffffffffffff1681526020019081526020015f205f015414610a4d576040517f08c379a0000000000000000000000000000000000000000000000000000000008152600401610a4490611db6565b60405180910390fd5b5f60015f8573ffffffffffffffffffffffffffffffffffffffff1673ffffffffffffffffffffffffffffffffffffffff1681526020019081526020015f206040518060a00160405290815f8201548152602001600182018054610aaf90611c87565b80601f0160208091040260200160405190810160405280929190818152602001828054610adb90611c87565b8015610b265780601f10610afd57610100808354040283529160200191610b26565b820191905f5260205f20905b815481529060010190602001808311610b0957829003601f168201915b50505050508152602001600282018054610b3f90611c87565b80601f0160208091040260200160405190810160405280929190818152602001828054610b6b90611c87565b8015610bb65780601f10610b8d57610100808354040283529160200191610bb6565b820191905f5260205f20905b815481529060010190602001808311610b9957829003601f168201915b50505050508152602001600382018054610bcf90611c87565b80601f0160208091040260200160405190810160405280929190818152602001828054610bfb90611c87565b8015610c465780601f10610c1d57610100808354040283529160200191610c46565b820191905f5260205f20905b815481529060010190602001808311610c2957829003601f168201915b505050505081526020016004820154815250509050806020015191505092915050565b5f60608060605f8060015f8873ffffffffffffffffffffffffffffffffffffffff1673ffffffffffffffffffffffffffffffffffffffff1681526020019081526020015f206040518060a00160405290815f8201548152602001600182018054610cd290611c87565b80601f0160208091040260200160405190810160405280929190818152602001828054610cfe90611c87565b8015610d495780601f10610d2057610100808354040283529160200191610d49565b820191905f5260205f20905b815481529060010190602001808311610d2c57829003601f168201915b50505050508152602001600282018054610d6290611c87565b80601f0160208091040260200160405190810160405280929190818152602001828054610d8e90611c87565b8015610dd95780601f10610db057610100808354040283529160200191610dd9565b820191905f5260205f20905b815481529060010190602001808311610dbc57829003601f168201915b50505050508152602001600382018054610df290611c87565b80601f0160208091040260200160405190810160405280929190818152602001828054610e1e90611c87565b8015610e695780601f10610e4057610100808354040283529160200191610e69565b820191905f5260205f20905b815481529060010190602001808311610e4c57829003601f168201915b505050505081526020016004820154815250509050805f01518160200151826040015183606001518460800151955095509550955095505091939590929450565b5f8060015f8473ffffffffffffffffffffffffffffffffffffffff1673ffffffffffffffffffffffffffffffffffffffff1681526020019081526020015f205f015414159050919050565b5f600385858585604051602001610f0f9493929190611e19565b604051602081830303815290604052604051610f2b9190611c44565b602060405180830381855afa158015610f46573d5f803e3d5ffd5b5050506040515160601b6bffffffffffffffffffffffff191690505f815f1c90505f60015f8573ffffffffffffffffffffffffffffffffffffffff1673ffffffffffffffffffffffffffffffffffffffff1681526020019081526020015f205f015414610fe8576040517f08c379a0000000000000000000000000000000000000000000000000000000008152600401610fdf90611ea4565b60405180910390fd5b5f86511161102b576040517f08c379a000000000000000000000000000000000000000000000000000000000815260040161102290611f0c565b60405180910390fd5b5f85511161106e576040517f08c379a000000000000000000000000000000000000000000000000000000000815260040161106590611f74565b60405180910390fd5b5f8451116110b1576040517f08c379a00000000000000000000000000000000000000000000000000000000081526004016110a890611fdc565b60405180910390fd5b5f6040518060a0016040528083815260200188815260200187815260200186815260200160648152509050600284908060018154018082558091505060019003905f5260205f20015f9091909190916101000a81548173ffffffffffffffffffffffffffffffffffffffff021916908373ffffffffffffffffffffffffffffffffffffffff1602179055508060015f8673ffffffffffffffffffffffffffffffffffffffff1673ffffffffffffffffffffffffffffffffffffffff1681526020019081526020015f205f820151815f015560208201518160010190816111979190612185565b5060408201518160020190816111ad9190612185565b5060608201518160030190816111c39190612185565b506080820151816004015590505050505050505050565b8060015f8473ffffffffffffffffffffffffffffffffffffffff1673ffffffffffffffffffffffffffffffffffffffff1681526020019081526020015f20600401819055505050565b60608160015f8573ffffffffffffffffffffffffffffffffffffffff1673ffffffffffffffffffffffffffffffffffffffff1681526020019081526020015f205f0154146112a6576040517f08c379a000000000000000000000000000000000000000000000000000000000815260040161129d90611db6565b60405180910390fd5b5f60015f8573ffffffffffffffffffffffffffffffffffffffff1673ffffffffffffffffffffffffffffffffffffffff1681526020019081526020015f206040518060a00160405290815f820154815260200160018201805461130890611c87565b80601f016020809104026020016040519081016040528092919081815260200182805461133490611c87565b801561137f5780601f106113565761010080835404028352916020019161137f565b820191905f5260205f20905b81548152906001019060200180831161136257829003601f168201915b5050505050815260200160028201805461139890611c87565b80601f01602080910402602001604051908101604052809291908181526020018280546113c490611c87565b801561140f5780601f106113e65761010080835404028352916020019161140f565b820191905f5260205f20905b8154815290600101906020018083116113f257829003601f168201915b5050505050815260200160038201805461142890611c87565b80601f016020809104026020016040519081016040528092919081815260200182805461145490611c87565b801561149f5780601f106114765761010080835404028352916020019161149f565b820191905f5260205f20905b81548152906001019060200180831161148257829003601f168201915b505050505081526020016004820154815250509050806060015191505092915050565b5f805f90505b8273ffffffffffffffffffffffffffffffffffffffff16600282815481106114f3576114f2612254565b5b905f5260205f20015f9054906101000a900473ffffffffffffffffffffffffffffffffffffffff1673ffffffffffffffffffffffffffffffffffffffff160361157e576002818154811061154a57611549612254565b5b905f5260205f20015f6101000a81549073ffffffffffffffffffffffffffffffffffffffff02191690556001915050611591565b8080611589906122ae565b9150506114c8565b919050565b5080546115a290611c87565b5f825580601f106115b357506115d0565b601f0160209004905f5260205f20908101906115cf91906115d3565b5b50565b5b808211156115ea575f815f9055506001016115d4565b5090565b5f81519050919050565b5f82825260208201905092915050565b5f819050602082019050919050565b5f73ffffffffffffffffffffffffffffffffffffffff82169050919050565b5f61164082611617565b9050919050565b61165081611636565b82525050565b5f6116618383611647565b60208301905092915050565b5f602082019050919050565b5f611683826115ee565b61168d81856115f8565b935061169883611608565b805f5b838110156116c85781516116af8882611656565b97506116ba8361166d565b92505060018101905061169b565b5085935050505092915050565b5f6020820190508181035f8301526116ed8184611679565b905092915050565b5f604051905090565b5f80fd5b5f80fd5b61170f81611636565b8114611719575f80fd5b50565b5f8135905061172a81611706565b92915050565b5f80fd5b5f80fd5b5f601f19601f8301169050919050565b7f4e487b71000000000000000000000000000000000000000000000000000000005f52604160045260245ffd5b61177e82611738565b810181811067ffffffffffffffff8211171561179d5761179c611748565b5b80604052505050565b5f6117af6116f5565b90506117bb8282611775565b919050565b5f67ffffffffffffffff8211156117da576117d9611748565b5b6117e382611738565b9050602081019050919050565b828183375f83830152505050565b5f61181061180b846117c0565b6117a6565b90508281526020810184848401111561182c5761182b611734565b5b6118378482856117f0565b509392505050565b5f82601f83011261185357611852611730565b5b81356118638482602086016117fe565b91505092915050565b5f805f60608486031215611883576118826116fe565b5b5f6118908682870161171c565b935050602084013567ffffffffffffffff8111156118b1576118b0611702565b5b6118bd8682870161183f565b925050604084013567ffffffffffffffff8111156118de576118dd611702565b5b6118ea8682870161183f565b9150509250925092565b5f8115159050919050565b611908816118f4565b82525050565b5f6020820190506119215f8301846118ff565b92915050565b5f819050919050565b61193981611927565b8114611943575f80fd5b50565b5f8135905061195481611930565b92915050565b5f80604083850312156119705761196f6116fe565b5b5f61197d8582860161171c565b925050602061198e85828601611946565b9150509250929050565b6119a181611927565b82525050565b5f6020820190506119ba5f830184611998565b92915050565b5f602082840312156119d5576119d46116fe565b5b5f6119e28482850161171c565b91505092915050565b5f81519050919050565b5f82825260208201905092915050565b5f5b83811015611a22578082015181840152602081019050611a07565b5f8484015250505050565b5f611a37826119eb565b611a4181856119f5565b9350611a51818560208601611a05565b611a5a81611738565b840191505092915050565b5f6020820190508181035f830152611a7d8184611a2d565b905092915050565b5f60a082019050611a985f830188611998565b8181036020830152611aaa8187611a2d565b90508181036040830152611abe8186611a2d565b90508181036060830152611ad28185611a2d565b9050611ae16080830184611998565b9695505050505050565b5f805f8060808587031215611b0357611b026116fe565b5b5f85013567ffffffffffffffff811115611b2057611b1f611702565b5b611b2c8782880161183f565b945050602085013567ffffffffffffffff811115611b4d57611b4c611702565b5b611b598782880161183f565b935050604085013567ffffffffffffffff811115611b7a57611b79611702565b5b611b868782880161183f565b9250506060611b978782880161171c565b91505092959194509250565b5f81905092915050565b5f611bb7826119eb565b611bc18185611ba3565b9350611bd1818560208601611a05565b80840191505092915050565b5f611be88285611bad565b9150611bf48284611bad565b91508190509392505050565b5f81519050919050565b5f81905092915050565b5f611c1e82611c00565b611c288185611c0a565b9350611c38818560208601611a05565b80840191505092915050565b5f611c4f8284611c14565b915081905092915050565b7f4e487b71000000000000000000000000000000000000000000000000000000005f52602260045260245ffd5b5f6002820490506001821680611c9e57607f821691505b602082108103611cb157611cb0611c5a565b5b50919050565b5f819050815f5260205f209050919050565b5f8154611cd581611c87565b611cdf8186611ba3565b9450600182165f8114611cf95760018114611d0e57611d40565b60ff1983168652811515820286019350611d40565b611d1785611cb7565b5f5b83811015611d3857815481890152600182019150602081019050611d19565b838801955050505b50505092915050565b5f611d548285611cc9565b9150611d608284611cc9565b91508190509392505050565b7f4944206e6f742056616c696421000000000000000000000000000000000000005f82015250565b5f611da0600d836119f5565b9150611dab82611d6c565b602082019050919050565b5f6020820190508181035f830152611dcd81611d94565b9050919050565b5f8160601b9050919050565b5f611dea82611dd4565b9050919050565b5f611dfb82611de0565b9050919050565b611e13611e0e82611636565b611df1565b82525050565b5f611e248287611bad565b9150611e308286611bad565b9150611e3c8285611bad565b9150611e488284611e02565b60148201915081905095945050505050565b7f52657461696c657220616c7265616479207265676973746572656400000000005f82015250565b5f611e8e601b836119f5565b9150611e9982611e5a565b602082019050919050565b5f6020820190508181035f830152611ebb81611e82565b9050919050565b7f46756c6c206e616d652063616e6e6f7420626520656d707479000000000000005f82015250565b5f611ef66019836119f5565b9150611f0182611ec2565b602082019050919050565b5f6020820190508181035f830152611f2381611eea565b9050919050565b7f50617373776f72642063616e6e6f7420626520656d70747900000000000000005f82015250565b5f611f5e6018836119f5565b9150611f6982611f2a565b602082019050919050565b5f6020820190508181035f830152611f8b81611f52565b9050919050565b7f456d61696c2063616e6e6f7420626520656d70747900000000000000000000005f82015250565b5f611fc66015836119f5565b9150611fd182611f92565b602082019050919050565b5f6020820190508181035f830152611ff381611fba565b9050919050565b5f6020601f8301049050919050565b5f82821b905092915050565b5f600883026120447fffffffffffffffffffffffffffffffffffffffffffffffffffffffffffffffff82612009565b61204e8683612009565b95508019841693508086168417925050509392505050565b5f819050919050565b5f61208961208461207f84611927565b612066565b611927565b9050919050565b5f819050919050565b6120a28361206f565b6120b66120ae82612090565b848454612015565b825550505050565b5f90565b6120ca6120be565b6120d5818484612099565b505050565b5b818110156120f8576120ed5f826120c2565b6001810190506120db565b5050565b601f82111561213d5761210e81611cb7565b61211784611ffa565b81016020851015612126578190505b61213a61213285611ffa565b8301826120da565b50505b505050565b5f82821c905092915050565b5f61215d5f1984600802612142565b1980831691505092915050565b5f612175838361214e565b9150826002028217905092915050565b61218e826119eb565b67ffffffffffffffff8111156121a7576121a6611748565b5b6121b18254611c87565b6121bc8282856120fc565b5f60209050601f8311600181146121ed575f84156121db578287015190505b6121e5858261216a565b86555061224c565b601f1984166121fb86611cb7565b5f5b82811015612222578489015182556001820191506020850194506020810190506121fd565b8683101561223f578489015161223b601f89168261214e565b8355505b6001600288020188555050505b505050505050565b7f4e487b71000000000000000000000000000000000000000000000000000000005f52603260045260245ffd5b7f4e487b71000000000000000000000000000000000000000000000000000000005f52601160045260245ffd5b5f6122b882611927565b91507fffffffffffffffffffffffffffffffffffffffffffffffffffffffffffffffff82036122ea576122e9612281565b5b60018201905091905056fea26469706673582212204d953592cc70dbe1d20e5c8616b8ab27bf61f5ad84651e2468e5eefb5b098e2e64736f6c63430008160033",
					"opcodes": "PUSH1 0x80 PUSH1 0x40 MSTORE CALLVALUE DUP1 ISZERO PUSH2 0xF JUMPI PUSH0 DUP1 REVERT JUMPDEST POP CALLER PUSH0 DUP1 PUSH2 0x100 EXP DUP2 SLOAD DUP2 PUSH20 0xFFFFFFFFFFFFFFFFFFFFFFFFFFFFFFFFFFFFFFFF MUL NOT AND SWAP1 DUP4 PUSH20 0xFFFFFFFFFFFFFFFFFFFFFFFFFFFFFFFFFFFFFFFF AND MUL OR SWAP1 SSTORE POP PUSH2 0x232B DUP1 PUSH2 0x5C PUSH0 CODECOPY PUSH0 RETURN INVALID PUSH1 0x80 PUSH1 0x40 MSTORE CALLVALUE DUP1 ISZERO PUSH2 0xF JUMPI PUSH0 DUP1 REVERT JUMPDEST POP PUSH1 0x4 CALLDATASIZE LT PUSH2 0xA7 JUMPI PUSH0 CALLDATALOAD PUSH1 0xE0 SHR DUP1 PUSH4 0x6E44CD42 GT PUSH2 0x6F JUMPI DUP1 PUSH4 0x6E44CD42 EQ PUSH2 0x189 JUMPI DUP1 PUSH4 0x6F77926B EQ PUSH2 0x1B9 JUMPI DUP1 PUSH4 0xA5578807 EQ PUSH2 0x1ED JUMPI DUP1 PUSH4 0xB48FF0F1 EQ PUSH2 0x21D JUMPI DUP1 PUSH4 0xE0B1CCCB EQ PUSH2 0x239 JUMPI DUP1 PUSH4 0xECCA4073 EQ PUSH2 0x255 JUMPI PUSH2 0xA7 JUMP JUMPDEST DUP1 PUSH4 0x586510D EQ PUSH2 0xAB JUMPI DUP1 PUSH4 0x6F22B04 EQ PUSH2 0xC9 JUMPI DUP1 PUSH4 0x2B04E840 EQ PUSH2 0xF9 JUMPI DUP1 PUSH4 0x5C60F226 EQ PUSH2 0x129 JUMPI DUP1 PUSH4 0x65F68C89 EQ PUSH2 0x159 JUMPI JUMPDEST PUSH0 DUP1 REVERT JUMPDEST PUSH2 0xB3 PUSH2 0x285 JUMP JUMPDEST PUSH1 0x40 MLOAD PUSH2 0xC0 SWAP2 SWAP1 PUSH2 0x16D5 JUMP JUMPDEST PUSH1 0x40 MLOAD DUP1 SWAP2 SUB SWAP1 RETURN JUMPDEST PUSH2 0xE3 PUSH1 0x4 DUP1 CALLDATASIZE SUB DUP2 ADD SWAP1 PUSH2 0xDE SWAP2 SWAP1 PUSH2 0x186C JUMP JUMPDEST PUSH2 0x310 JUMP JUMPDEST PUSH1 0x40 MLOAD PUSH2 0xF0 SWAP2 SWAP1 PUSH2 0x190E JUMP JUMPDEST PUSH1 0x40 MLOAD DUP1 SWAP2 SUB SWAP1 RETURN JUMPDEST PUSH2 0x113 PUSH1 0x4 DUP1 CALLDATASIZE SUB DUP2 ADD SWAP1 PUSH2 0x10E SWAP2 SWAP1 PUSH2 0x195A JUMP JUMPDEST PUSH2 0x42C JUMP JUMPDEST PUSH1 0x40 MLOAD PUSH2 0x120 SWAP2 SWAP1 PUSH2 0x19A7 JUMP JUMPDEST PUSH1 0x40 MLOAD DUP1 SWAP2 SUB SWAP1 RETURN JUMPDEST PUSH2 0x143 PUSH1 0x4 DUP1 CALLDATASIZE SUB DUP2 ADD SWAP1 PUSH2 0x13E SWAP2 SWAP1 PUSH2 0x19C0 JUMP JUMPDEST PUSH2 0x6CA JUMP JUMPDEST PUSH1 0x40 MLOAD PUSH2 0x150 SWAP2 SWAP1 PUSH2 0x190E JUMP JUMPDEST PUSH1 0x40 MLOAD DUP1 SWAP2 SUB SWAP1 RETURN JUMPDEST PUSH2 0x173 PUSH1 0x4 DUP1 CALLDATASIZE SUB DUP2 ADD SWAP1 PUSH2 0x16E SWAP2 SWAP1 PUSH2 0x19C0 JUMP JUMPDEST PUSH2 0x7AF JUMP JUMPDEST PUSH1 0x40 MLOAD PUSH2 0x180 SWAP2 SWAP1 PUSH2 0x19A7 JUMP JUMPDEST PUSH1 0x40 MLOAD DUP1 SWAP2 SUB SWAP1 RETURN JUMPDEST PUSH2 0x1A3 PUSH1 0x4 DUP1 CALLDATASIZE SUB DUP2 ADD SWAP1 PUSH2 0x19E SWAP2 SWAP1 PUSH2 0x195A JUMP JUMPDEST PUSH2 0x9CA JUMP JUMPDEST PUSH1 0x40 MLOAD PUSH2 0x1B0 SWAP2 SWAP1 PUSH2 0x1A65 JUMP JUMPDEST PUSH1 0x40 MLOAD DUP1 SWAP2 SUB SWAP1 RETURN JUMPDEST PUSH2 0x1D3 PUSH1 0x4 DUP1 CALLDATASIZE SUB DUP2 ADD SWAP1 PUSH2 0x1CE SWAP2 SWAP1 PUSH2 0x19C0 JUMP JUMPDEST PUSH2 0xC69 JUMP JUMPDEST PUSH1 0x40 MLOAD PUSH2 0x1E4 SWAP6 SWAP5 SWAP4 SWAP3 SWAP2 SWAP1 PUSH2 0x1A85 JUMP JUMPDEST PUSH1 0x40 MLOAD DUP1 SWAP2 SUB SWAP1 RETURN JUMPDEST PUSH2 0x207 PUSH1 0x4 DUP1 CALLDATASIZE SUB DUP2 ADD SWAP1 PUSH2 0x202 SWAP2 SWAP1 PUSH2 0x19C0 JUMP JUMPDEST PUSH2 0xEAA JUMP JUMPDEST PUSH1 0x40 MLOAD PUSH2 0x214 SWAP2 SWAP1 PUSH2 0x190E JUMP JUMPDEST PUSH1 0x40 MLOAD DUP1 SWAP2 SUB SWAP1 RETURN JUMPDEST PUSH2 0x237 PUSH1 0x4 DUP1 CALLDATASIZE SUB DUP2 ADD SWAP1 PUSH2 0x232 SWAP2 SWAP1 PUSH2 0x1AEB JUMP JUMPDEST PUSH2 0xEF5 JUMP JUMPDEST STOP JUMPDEST PUSH2 0x253 PUSH1 0x4 DUP1 CALLDATASIZE SUB DUP2 ADD SWAP1 PUSH2 0x24E SWAP2 SWAP1 PUSH2 0x195A JUMP JUMPDEST PUSH2 0x11DA JUMP JUMPDEST STOP JUMPDEST PUSH2 0x26F PUSH1 0x4 DUP1 CALLDATASIZE SUB DUP2 ADD SWAP1 PUSH2 0x26A SWAP2 SWAP1 PUSH2 0x195A JUMP JUMPDEST PUSH2 0x1223 JUMP JUMPDEST PUSH1 0x40 MLOAD PUSH2 0x27C SWAP2 SWAP1 PUSH2 0x1A65 JUMP JUMPDEST PUSH1 0x40 MLOAD DUP1 SWAP2 SUB SWAP1 RETURN JUMPDEST PUSH1 0x60 PUSH1 0x2 DUP1 SLOAD DUP1 PUSH1 0x20 MUL PUSH1 0x20 ADD PUSH1 0x40 MLOAD SWAP1 DUP2 ADD PUSH1 0x40 MSTORE DUP1 SWAP3 SWAP2 SWAP1 DUP2 DUP2 MSTORE PUSH1 0x20 ADD DUP3 DUP1 SLOAD DUP1 ISZERO PUSH2 0x306 JUMPI PUSH1 0x20 MUL DUP3 ADD SWAP2 SWAP1 PUSH0 MSTORE PUSH1 0x20 PUSH0 KECCAK256 SWAP1 JUMPDEST DUP2 PUSH0 SWAP1 SLOAD SWAP1 PUSH2 0x100 EXP SWAP1 DIV PUSH20 0xFFFFFFFFFFFFFFFFFFFFFFFFFFFFFFFFFFFFFFFF AND PUSH20 0xFFFFFFFFFFFFFFFFFFFFFFFFFFFFFFFFFFFFFFFF AND DUP2 MSTORE PUSH1 0x20 ADD SWAP1 PUSH1 0x1 ADD SWAP1 DUP1 DUP4 GT PUSH2 0x2BD JUMPI JUMPDEST POP POP POP POP POP SWAP1 POP SWAP1 JUMP JUMPDEST PUSH0 DUP1 PUSH1 0x1 PUSH0 DUP7 PUSH20 0xFFFFFFFFFFFFFFFFFFFFFFFFFFFFFFFFFFFFFFFF AND PUSH20 0xFFFFFFFFFFFFFFFFFFFFFFFFFFFFFFFFFFFFFFFF AND DUP2 MSTORE PUSH1 0x20 ADD SWAP1 DUP2 MSTORE PUSH1 0x20 ADD PUSH0 KECCAK256 SWAP1 POP PUSH1 0x3 DUP5 DUP5 PUSH1 0x40 MLOAD PUSH1 0x20 ADD PUSH2 0x366 SWAP3 SWAP2 SWAP1 PUSH2 0x1BDD JUMP JUMPDEST PUSH1 0x40 MLOAD PUSH1 0x20 DUP2 DUP4 SUB SUB DUP2 MSTORE SWAP1 PUSH1 0x40 MSTORE PUSH1 0x40 MLOAD PUSH2 0x382 SWAP2 SWAP1 PUSH2 0x1C44 JUMP JUMPDEST PUSH1 0x20 PUSH1 0x40 MLOAD DUP1 DUP4 SUB DUP2 DUP6 GAS STATICCALL ISZERO DUP1 ISZERO PUSH2 0x39D JUMPI RETURNDATASIZE PUSH0 DUP1 RETURNDATACOPY RETURNDATASIZE PUSH0 REVERT JUMPDEST POP POP POP PUSH1 0x40 MLOAD MLOAD PUSH1 0x60 SHL PUSH12 0xFFFFFFFFFFFFFFFFFFFFFFFF NOT AND PUSH1 0x3 DUP3 PUSH1 0x3 ADD DUP4 PUSH1 0x2 ADD PUSH1 0x40 MLOAD PUSH1 0x20 ADD PUSH2 0x3D1 SWAP3 SWAP2 SWAP1 PUSH2 0x1D49 JUMP JUMPDEST PUSH1 0x40 MLOAD PUSH1 0x20 DUP2 DUP4 SUB SUB DUP2 MSTORE SWAP1 PUSH1 0x40 MSTORE PUSH1 0x40 MLOAD PUSH2 0x3ED SWAP2 SWAP1 PUSH2 0x1C44 JUMP JUMPDEST PUSH1 0x20 PUSH1 0x40 MLOAD DUP1 DUP4 SUB DUP2 DUP6 GAS STATICCALL ISZERO DUP1 ISZERO PUSH2 0x408 JUMPI RETURNDATASIZE PUSH0 DUP1 RETURNDATACOPY RETURNDATASIZE PUSH0 REVERT JUMPDEST POP POP POP PUSH1 0x40 MLOAD MLOAD PUSH1 0x60 SHL PUSH12 0xFFFFFFFFFFFFFFFFFFFFFFFF NOT AND EQ SWAP2 POP POP SWAP4 SWAP3 POP POP POP JUMP JUMPDEST PUSH0 DUP2 PUSH1 0x1 PUSH0 DUP6 PUSH20 0xFFFFFFFFFFFFFFFFFFFFFFFFFFFFFFFFFFFFFFFF AND PUSH20 0xFFFFFFFFFFFFFFFFFFFFFFFFFFFFFFFFFFFFFFFF AND DUP2 MSTORE PUSH1 0x20 ADD SWAP1 DUP2 MSTORE PUSH1 0x20 ADD PUSH0 KECCAK256 PUSH0 ADD SLOAD EQ PUSH2 0x4AE JUMPI PUSH1 0x40 MLOAD PUSH32 0x8C379A000000000000000000000000000000000000000000000000000000000 DUP2 MSTORE PUSH1 0x4 ADD PUSH2 0x4A5 SWAP1 PUSH2 0x1DB6 JUMP JUMPDEST PUSH1 0x40 MLOAD DUP1 SWAP2 SUB SWAP1 REVERT JUMPDEST PUSH0 PUSH1 0x1 PUSH0 DUP6 PUSH20 0xFFFFFFFFFFFFFFFFFFFFFFFFFFFFFFFFFFFFFFFF AND PUSH20 0xFFFFFFFFFFFFFFFFFFFFFFFFFFFFFFFFFFFFFFFF AND DUP2 MSTORE PUSH1 0x20 ADD SWAP1 DUP2 MSTORE PUSH1 0x20 ADD PUSH0 KECCAK256 PUSH1 0x40 MLOAD DUP1 PUSH1 0xA0 ADD PUSH1 0x40 MSTORE SWAP1 DUP2 PUSH0 DUP3 ADD SLOAD DUP2 MSTORE PUSH1 0x20 ADD PUSH1 0x1 DUP3 ADD DUP1 SLOAD PUSH2 0x510 SWAP1 PUSH2 0x1C87 JUMP JUMPDEST DUP1 PUSH1 0x1F ADD PUSH1 0x20 DUP1 SWAP2 DIV MUL PUSH1 0x20 ADD PUSH1 0x40 MLOAD SWAP1 DUP2 ADD PUSH1 0x40 MSTORE DUP1 SWAP3 SWAP2 SWAP1 DUP2 DUP2 MSTORE PUSH1 0x20 ADD DUP3 DUP1 SLOAD PUSH2 0x53C SWAP1 PUSH2 0x1C87 JUMP JUMPDEST DUP1 ISZERO PUSH2 0x587 JUMPI DUP1 PUSH1 0x1F LT PUSH2 0x55E JUMPI PUSH2 0x100 DUP1 DUP4 SLOAD DIV MUL DUP4 MSTORE SWAP2 PUSH1 0x20 ADD SWAP2 PUSH2 0x587 JUMP JUMPDEST DUP3 ADD SWAP2 SWAP1 PUSH0 MSTORE PUSH1 0x20 PUSH0 KECCAK256 SWAP1 JUMPDEST DUP2 SLOAD DUP2 MSTORE SWAP1 PUSH1 0x1 ADD SWAP1 PUSH1 0x20 ADD DUP1 DUP4 GT PUSH2 0x56A JUMPI DUP3 SWAP1 SUB PUSH1 0x1F AND DUP3 ADD SWAP2 JUMPDEST POP POP POP POP POP DUP2 MSTORE PUSH1 0x20 ADD PUSH1 0x2 DUP3 ADD DUP1 SLOAD PUSH2 0x5A0 SWAP1 PUSH2 0x1C87 JUMP JUMPDEST DUP1 PUSH1 0x1F ADD PUSH1 0x20 DUP1 SWAP2 DIV MUL PUSH1 0x20 ADD PUSH1 0x40 MLOAD SWAP1 DUP2 ADD PUSH1 0x40 MSTORE DUP1 SWAP3 SWAP2 SWAP1 DUP2 DUP2 MSTORE PUSH1 0x20 ADD DUP3 DUP1 SLOAD PUSH2 0x5CC SWAP1 PUSH2 0x1C87 JUMP JUMPDEST DUP1 ISZERO PUSH2 0x617 JUMPI DUP1 PUSH1 0x1F LT PUSH2 0x5EE JUMPI PUSH2 0x100 DUP1 DUP4 SLOAD DIV MUL DUP4 MSTORE SWAP2 PUSH1 0x20 ADD SWAP2 PUSH2 0x617 JUMP JUMPDEST DUP3 ADD SWAP2 SWAP1 PUSH0 MSTORE PUSH1 0x20 PUSH0 KECCAK256 SWAP1 JUMPDEST DUP2 SLOAD DUP2 MSTORE SWAP1 PUSH1 0x1 ADD SWAP1 PUSH1 0x20 ADD DUP1 DUP4 GT PUSH2 0x5FA JUMPI DUP3 SWAP1 SUB PUSH1 0x1F AND DUP3 ADD SWAP2 JUMPDEST POP POP POP POP POP DUP2 MSTORE PUSH1 0x20 ADD PUSH1 0x3 DUP3 ADD DUP1 SLOAD PUSH2 0x630 SWAP1 PUSH2 0x1C87 JUMP JUMPDEST DUP1 PUSH1 0x1F ADD PUSH1 0x20 DUP1 SWAP2 DIV MUL PUSH1 0x20 ADD PUSH1 0x40 MLOAD SWAP1 DUP2 ADD PUSH1 0x40 MSTORE DUP1 SWAP3 SWAP2 SWAP1 DUP2 DUP2 MSTORE PUSH1 0x20 ADD DUP3 DUP1 SLOAD PUSH2 0x65C SWAP1 PUSH2 0x1C87 JUMP JUMPDEST DUP1 ISZERO PUSH2 0x6A7 JUMPI DUP1 PUSH1 0x1F LT PUSH2 0x67E JUMPI PUSH2 0x100 DUP1 DUP4 SLOAD DIV MUL DUP4 MSTORE SWAP2 PUSH1 0x20 ADD SWAP2 PUSH2 0x6A7 JUMP JUMPDEST DUP3 ADD SWAP2 SWAP1 PUSH0 MSTORE PUSH1 0x20 PUSH0 KECCAK256 SWAP1 JUMPDEST DUP2 SLOAD DUP2 MSTORE SWAP1 PUSH1 0x1 ADD SWAP1 PUSH1 0x20 ADD DUP1 DUP4 GT PUSH2 0x68A JUMPI DUP3 SWAP1 SUB PUSH1 0x1F AND DUP3 ADD SWAP2 JUMPDEST POP POP POP POP POP DUP2 MSTORE PUSH1 0x20 ADD PUSH1 0x4 DUP3 ADD SLOAD DUP2 MSTORE POP POP SWAP1 POP DUP1 PUSH1 0x80 ADD MLOAD SWAP2 POP POP SWAP3 SWAP2 POP POP JUMP JUMPDEST PUSH0 PUSH1 0x1 PUSH0 DUP4 PUSH20 0xFFFFFFFFFFFFFFFFFFFFFFFFFFFFFFFFFFFFFFFF AND PUSH20 0xFFFFFFFFFFFFFFFFFFFFFFFFFFFFFFFFFFFFFFFF AND DUP2 MSTORE PUSH1 0x20 ADD SWAP1 DUP2 MSTORE PUSH1 0x20 ADD PUSH0 KECCAK256 PUSH0 DUP1 DUP3 ADD PUSH0 SWAP1 SSTORE PUSH1 0x1 DUP3 ADD PUSH0 PUSH2 0x71E SWAP2 SWAP1 PUSH2 0x1596 JUMP JUMPDEST PUSH1 0x2 DUP3 ADD PUSH0 PUSH2 0x72D SWAP2 SWAP1 PUSH2 0x1596 JUMP JUMPDEST PUSH1 0x3 DUP3 ADD PUSH0 PUSH2 0x73C SWAP2 SWAP1 PUSH2 0x1596 JUMP JUMPDEST PUSH1 0x4 DUP3 ADD PUSH0 SWAP1 SSTORE POP POP PUSH0 PUSH1 0x1 PUSH0 DUP5 PUSH20 0xFFFFFFFFFFFFFFFFFFFFFFFFFFFFFFFFFFFFFFFF AND PUSH20 0xFFFFFFFFFFFFFFFFFFFFFFFFFFFFFFFFFFFFFFFF AND DUP2 MSTORE PUSH1 0x20 ADD SWAP1 DUP2 MSTORE PUSH1 0x20 ADD PUSH0 KECCAK256 PUSH0 ADD SLOAD EQ DUP1 ISZERO PUSH2 0x798 JUMPI POP PUSH2 0x797 DUP3 PUSH2 0x14C2 JUMP JUMPDEST JUMPDEST ISZERO PUSH2 0x7A6 JUMPI PUSH1 0x1 SWAP1 POP PUSH2 0x7AA JUMP JUMPDEST PUSH0 SWAP1 POP JUMPDEST SWAP2 SWAP1 POP JUMP JUMPDEST PUSH0 DUP1 PUSH1 0x1 PUSH0 DUP5 PUSH20 0xFFFFFFFFFFFFFFFFFFFFFFFFFFFFFFFFFFFFFFFF AND PUSH20 0xFFFFFFFFFFFFFFFFFFFFFFFFFFFFFFFFFFFFFFFF AND DUP2 MSTORE PUSH1 0x20 ADD SWAP1 DUP2 MSTORE PUSH1 0x20 ADD PUSH0 KECCAK256 PUSH1 0x40 MLOAD DUP1 PUSH1 0xA0 ADD PUSH1 0x40 MSTORE SWAP1 DUP2 PUSH0 DUP3 ADD SLOAD DUP2 MSTORE PUSH1 0x20 ADD PUSH1 0x1 DUP3 ADD DUP1 SLOAD PUSH2 0x812 SWAP1 PUSH2 0x1C87 JUMP JUMPDEST DUP1 PUSH1 0x1F ADD PUSH1 0x20 DUP1 SWAP2 DIV MUL PUSH1 0x20 ADD PUSH1 0x40 MLOAD SWAP1 DUP2 ADD PUSH1 0x40 MSTORE DUP1 SWAP3 SWAP2 SWAP1 DUP2 DUP2 MSTORE PUSH1 0x20 ADD DUP3 DUP1 SLOAD PUSH2 0x83E SWAP1 PUSH2 0x1C87 JUMP JUMPDEST DUP1 ISZERO PUSH2 0x889 JUMPI DUP1 PUSH1 0x1F LT PUSH2 0x860 JUMPI PUSH2 0x100 DUP1 DUP4 SLOAD DIV MUL DUP4 MSTORE SWAP2 PUSH1 0x20 ADD SWAP2 PUSH2 0x889 JUMP JUMPDEST DUP3 ADD SWAP2 SWAP1 PUSH0 MSTORE PUSH1 0x20 PUSH0 KECCAK256 SWAP1 JUMPDEST DUP2 SLOAD DUP2 MSTORE SWAP1 PUSH1 0x1 ADD SWAP1 PUSH1 0x20 ADD DUP1 DUP4 GT PUSH2 0x86C JUMPI DUP3 SWAP1 SUB PUSH1 0x1F AND DUP3 ADD SWAP2 JUMPDEST POP POP POP POP POP DUP2 MSTORE PUSH1 0x20 ADD PUSH1 0x2 DUP3 ADD DUP1 SLOAD PUSH2 0x8A2 SWAP1 PUSH2 0x1C87 JUMP JUMPDEST DUP1 PUSH1 0x1F ADD PUSH1 0x20 DUP1 SWAP2 DIV MUL PUSH1 0x20 ADD PUSH1 0x40 MLOAD SWAP1 DUP2 ADD PUSH1 0x40 MSTORE DUP1 SWAP3 SWAP2 SWAP1 DUP2 DUP2 MSTORE PUSH1 0x20 ADD DUP3 DUP1 SLOAD PUSH2 0x8CE SWAP1 PUSH2 0x1C87 JUMP JUMPDEST DUP1 ISZERO PUSH2 0x919 JUMPI DUP1 PUSH1 0x1F LT PUSH2 0x8F0 JUMPI PUSH2 0x100 DUP1 DUP4 SLOAD DIV MUL DUP4 MSTORE SWAP2 PUSH1 0x20 ADD SWAP2 PUSH2 0x919 JUMP JUMPDEST DUP3 ADD SWAP2 SWAP1 PUSH0 MSTORE PUSH1 0x20 PUSH0 KECCAK256 SWAP1 JUMPDEST DUP2 SLOAD DUP2 MSTORE SWAP1 PUSH1 0x1 ADD SWAP1 PUSH1 0x20 ADD DUP1 DUP4 GT PUSH2 0x8FC JUMPI DUP3 SWAP1 SUB PUSH1 0x1F AND DUP3 ADD SWAP2 JUMPDEST POP POP POP POP POP DUP2 MSTORE PUSH1 0x20 ADD PUSH1 0x3 DUP3 ADD DUP1 SLOAD PUSH2 0x932 SWAP1 PUSH2 0x1C87 JUMP JUMPDEST DUP1 PUSH1 0x1F ADD PUSH1 0x20 DUP1 SWAP2 DIV MUL PUSH1 0x20 ADD PUSH1 0x40 MLOAD SWAP1 DUP2 ADD PUSH1 0x40 MSTORE DUP1 SWAP3 SWAP2 SWAP1 DUP2 DUP2 MSTORE PUSH1 0x20 ADD DUP3 DUP1 SLOAD PUSH2 0x95E SWAP1 PUSH2 0x1C87 JUMP JUMPDEST DUP1 ISZERO PUSH2 0x9A9 JUMPI DUP1 PUSH1 0x1F LT PUSH2 0x980 JUMPI PUSH2 0x100 DUP1 DUP4 SLOAD DIV MUL DUP4 MSTORE SWAP2 PUSH1 0x20 ADD SWAP2 PUSH2 0x9A9 JUMP JUMPDEST DUP3 ADD SWAP2 SWAP1 PUSH0 MSTORE PUSH1 0x20 PUSH0 KECCAK256 SWAP1 JUMPDEST DUP2 SLOAD DUP2 MSTORE SWAP1 PUSH1 0x1 ADD SWAP1 PUSH1 0x20 ADD DUP1 DUP4 GT PUSH2 0x98C JUMPI DUP3 SWAP1 SUB PUSH1 0x1F AND DUP3 ADD SWAP2 JUMPDEST POP POP POP POP POP DUP2 MSTORE PUSH1 0x20 ADD PUSH1 0x4 DUP3 ADD SLOAD DUP2 MSTORE POP POP SWAP1 POP DUP1 PUSH0 ADD MLOAD SWAP2 POP POP SWAP2 SWAP1 POP JUMP JUMPDEST PUSH1 0x60 DUP2 PUSH1 0x1 PUSH0 DUP6 PUSH20 0xFFFFFFFFFFFFFFFFFFFFFFFFFFFFFFFFFFFFFFFF AND PUSH20 0xFFFFFFFFFFFFFFFFFFFFFFFFFFFFFFFFFFFFFFFF AND DUP2 MSTORE PUSH1 0x20 ADD SWAP1 DUP2 MSTORE PUSH1 0x20 ADD PUSH0 KECCAK256 PUSH0 ADD SLOAD EQ PUSH2 0xA4D JUMPI PUSH1 0x40 MLOAD PUSH32 0x8C379A000000000000000000000000000000000000000000000000000000000 DUP2 MSTORE PUSH1 0x4 ADD PUSH2 0xA44 SWAP1 PUSH2 0x1DB6 JUMP JUMPDEST PUSH1 0x40 MLOAD DUP1 SWAP2 SUB SWAP1 REVERT JUMPDEST PUSH0 PUSH1 0x1 PUSH0 DUP6 PUSH20 0xFFFFFFFFFFFFFFFFFFFFFFFFFFFFFFFFFFFFFFFF AND PUSH20 0xFFFFFFFFFFFFFFFFFFFFFFFFFFFFFFFFFFFFFFFF AND DUP2 MSTORE PUSH1 0x20 ADD SWAP1 DUP2 MSTORE PUSH1 0x20 ADD PUSH0 KECCAK256 PUSH1 0x40 MLOAD DUP1 PUSH1 0xA0 ADD PUSH1 0x40 MSTORE SWAP1 DUP2 PUSH0 DUP3 ADD SLOAD DUP2 MSTORE PUSH1 0x20 ADD PUSH1 0x1 DUP3 ADD DUP1 SLOAD PUSH2 0xAAF SWAP1 PUSH2 0x1C87 JUMP JUMPDEST DUP1 PUSH1 0x1F ADD PUSH1 0x20 DUP1 SWAP2 DIV MUL PUSH1 0x20 ADD PUSH1 0x40 MLOAD SWAP1 DUP2 ADD PUSH1 0x40 MSTORE DUP1 SWAP3 SWAP2 SWAP1 DUP2 DUP2 MSTORE PUSH1 0x20 ADD DUP3 DUP1 SLOAD PUSH2 0xADB SWAP1 PUSH2 0x1C87 JUMP JUMPDEST DUP1 ISZERO PUSH2 0xB26 JUMPI DUP1 PUSH1 0x1F LT PUSH2 0xAFD JUMPI PUSH2 0x100 DUP1 DUP4 SLOAD DIV MUL DUP4 MSTORE SWAP2 PUSH1 0x20 ADD SWAP2 PUSH2 0xB26 JUMP JUMPDEST DUP3 ADD SWAP2 SWAP1 PUSH0 MSTORE PUSH1 0x20 PUSH0 KECCAK256 SWAP1 JUMPDEST DUP2 SLOAD DUP2 MSTORE SWAP1 PUSH1 0x1 ADD SWAP1 PUSH1 0x20 ADD DUP1 DUP4 GT PUSH2 0xB09 JUMPI DUP3 SWAP1 SUB PUSH1 0x1F AND DUP3 ADD SWAP2 JUMPDEST POP POP POP POP POP DUP2 MSTORE PUSH1 0x20 ADD PUSH1 0x2 DUP3 ADD DUP1 SLOAD PUSH2 0xB3F SWAP1 PUSH2 0x1C87 JUMP JUMPDEST DUP1 PUSH1 0x1F ADD PUSH1 0x20 DUP1 SWAP2 DIV MUL PUSH1 0x20 ADD PUSH1 0x40 MLOAD SWAP1 DUP2 ADD PUSH1 0x40 MSTORE DUP1 SWAP3 SWAP2 SWAP1 DUP2 DUP2 MSTORE PUSH1 0x20 ADD DUP3 DUP1 SLOAD PUSH2 0xB6B SWAP1 PUSH2 0x1C87 JUMP JUMPDEST DUP1 ISZERO PUSH2 0xBB6 JUMPI DUP1 PUSH1 0x1F LT PUSH2 0xB8D JUMPI PUSH2 0x100 DUP1 DUP4 SLOAD DIV MUL DUP4 MSTORE SWAP2 PUSH1 0x20 ADD SWAP2 PUSH2 0xBB6 JUMP JUMPDEST DUP3 ADD SWAP2 SWAP1 PUSH0 MSTORE PUSH1 0x20 PUSH0 KECCAK256 SWAP1 JUMPDEST DUP2 SLOAD DUP2 MSTORE SWAP1 PUSH1 0x1 ADD SWAP1 PUSH1 0x20 ADD DUP1 DUP4 GT PUSH2 0xB99 JUMPI DUP3 SWAP1 SUB PUSH1 0x1F AND DUP3 ADD SWAP2 JUMPDEST POP POP POP POP POP DUP2 MSTORE PUSH1 0x20 ADD PUSH1 0x3 DUP3 ADD DUP1 SLOAD PUSH2 0xBCF SWAP1 PUSH2 0x1C87 JUMP JUMPDEST DUP1 PUSH1 0x1F ADD PUSH1 0x20 DUP1 SWAP2 DIV MUL PUSH1 0x20 ADD PUSH1 0x40 MLOAD SWAP1 DUP2 ADD PUSH1 0x40 MSTORE DUP1 SWAP3 SWAP2 SWAP1 DUP2 DUP2 MSTORE PUSH1 0x20 ADD DUP3 DUP1 SLOAD PUSH2 0xBFB SWAP1 PUSH2 0x1C87 JUMP JUMPDEST DUP1 ISZERO PUSH2 0xC46 JUMPI DUP1 PUSH1 0x1F LT PUSH2 0xC1D JUMPI PUSH2 0x100 DUP1 DUP4 SLOAD DIV MUL DUP4 MSTORE SWAP2 PUSH1 0x20 ADD SWAP2 PUSH2 0xC46 JUMP JUMPDEST DUP3 ADD SWAP2 SWAP1 PUSH0 MSTORE PUSH1 0x20 PUSH0 KECCAK256 SWAP1 JUMPDEST DUP2 SLOAD DUP2 MSTORE SWAP1 PUSH1 0x1 ADD SWAP1 PUSH1 0x20 ADD DUP1 DUP4 GT PUSH2 0xC29 JUMPI DUP3 SWAP1 SUB PUSH1 0x1F AND DUP3 ADD SWAP2 JUMPDEST POP POP POP POP POP DUP2 MSTORE PUSH1 0x20 ADD PUSH1 0x4 DUP3 ADD SLOAD DUP2 MSTORE POP POP SWAP1 POP DUP1 PUSH1 0x20 ADD MLOAD SWAP2 POP POP SWAP3 SWAP2 POP POP JUMP JUMPDEST PUSH0 PUSH1 0x60 DUP1 PUSH1 0x60 PUSH0 DUP1 PUSH1 0x1 PUSH0 DUP9 PUSH20 0xFFFFFFFFFFFFFFFFFFFFFFFFFFFFFFFFFFFFFFFF AND PUSH20 0xFFFFFFFFFFFFFFFFFFFFFFFFFFFFFFFFFFFFFFFF AND DUP2 MSTORE PUSH1 0x20 ADD SWAP1 DUP2 MSTORE PUSH1 0x20 ADD PUSH0 KECCAK256 PUSH1 0x40 MLOAD DUP1 PUSH1 0xA0 ADD PUSH1 0x40 MSTORE SWAP1 DUP2 PUSH0 DUP3 ADD SLOAD DUP2 MSTORE PUSH1 0x20 ADD PUSH1 0x1 DUP3 ADD DUP1 SLOAD PUSH2 0xCD2 SWAP1 PUSH2 0x1C87 JUMP JUMPDEST DUP1 PUSH1 0x1F ADD PUSH1 0x20 DUP1 SWAP2 DIV MUL PUSH1 0x20 ADD PUSH1 0x40 MLOAD SWAP1 DUP2 ADD PUSH1 0x40 MSTORE DUP1 SWAP3 SWAP2 SWAP1 DUP2 DUP2 MSTORE PUSH1 0x20 ADD DUP3 DUP1 SLOAD PUSH2 0xCFE SWAP1 PUSH2 0x1C87 JUMP JUMPDEST DUP1 ISZERO PUSH2 0xD49 JUMPI DUP1 PUSH1 0x1F LT PUSH2 0xD20 JUMPI PUSH2 0x100 DUP1 DUP4 SLOAD DIV MUL DUP4 MSTORE SWAP2 PUSH1 0x20 ADD SWAP2 PUSH2 0xD49 JUMP JUMPDEST DUP3 ADD SWAP2 SWAP1 PUSH0 MSTORE PUSH1 0x20 PUSH0 KECCAK256 SWAP1 JUMPDEST DUP2 SLOAD DUP2 MSTORE SWAP1 PUSH1 0x1 ADD SWAP1 PUSH1 0x20 ADD DUP1 DUP4 GT PUSH2 0xD2C JUMPI DUP3 SWAP1 SUB PUSH1 0x1F AND DUP3 ADD SWAP2 JUMPDEST POP POP POP POP POP DUP2 MSTORE PUSH1 0x20 ADD PUSH1 0x2 DUP3 ADD DUP1 SLOAD PUSH2 0xD62 SWAP1 PUSH2 0x1C87 JUMP JUMPDEST DUP1 PUSH1 0x1F ADD PUSH1 0x20 DUP1 SWAP2 DIV MUL PUSH1 0x20 ADD PUSH1 0x40 MLOAD SWAP1 DUP2 ADD PUSH1 0x40 MSTORE DUP1 SWAP3 SWAP2 SWAP1 DUP2 DUP2 MSTORE PUSH1 0x20 ADD DUP3 DUP1 SLOAD PUSH2 0xD8E SWAP1 PUSH2 0x1C87 JUMP JUMPDEST DUP1 ISZERO PUSH2 0xDD9 JUMPI DUP1 PUSH1 0x1F LT PUSH2 0xDB0 JUMPI PUSH2 0x100 DUP1 DUP4 SLOAD DIV MUL DUP4 MSTORE SWAP2 PUSH1 0x20 ADD SWAP2 PUSH2 0xDD9 JUMP JUMPDEST DUP3 ADD SWAP2 SWAP1 PUSH0 MSTORE PUSH1 0x20 PUSH0 KECCAK256 SWAP1 JUMPDEST DUP2 SLOAD DUP2 MSTORE SWAP1 PUSH1 0x1 ADD SWAP1 PUSH1 0x20 ADD DUP1 DUP4 GT PUSH2 0xDBC JUMPI DUP3 SWAP1 SUB PUSH1 0x1F AND DUP3 ADD SWAP2 JUMPDEST POP POP POP POP POP DUP2 MSTORE PUSH1 0x20 ADD PUSH1 0x3 DUP3 ADD DUP1 SLOAD PUSH2 0xDF2 SWAP1 PUSH2 0x1C87 JUMP JUMPDEST DUP1 PUSH1 0x1F ADD PUSH1 0x20 DUP1 SWAP2 DIV MUL PUSH1 0x20 ADD PUSH1 0x40 MLOAD SWAP1 DUP2 ADD PUSH1 0x40 MSTORE DUP1 SWAP3 SWAP2 SWAP1 DUP2 DUP2 MSTORE PUSH1 0x20 ADD DUP3 DUP1 SLOAD PUSH2 0xE1E SWAP1 PUSH2 0x1C87 JUMP JUMPDEST DUP1 ISZERO PUSH2 0xE69 JUMPI DUP1 PUSH1 0x1F LT PUSH2 0xE40 JUMPI PUSH2 0x100 DUP1 DUP4 SLOAD DIV MUL DUP4 MSTORE SWAP2 PUSH1 0x20 ADD SWAP2 PUSH2 0xE69 JUMP JUMPDEST DUP3 ADD SWAP2 SWAP1 PUSH0 MSTORE PUSH1 0x20 PUSH0 KECCAK256 SWAP1 JUMPDEST DUP2 SLOAD DUP2 MSTORE SWAP1 PUSH1 0x1 ADD SWAP1 PUSH1 0x20 ADD DUP1 DUP4 GT PUSH2 0xE4C JUMPI DUP3 SWAP1 SUB PUSH1 0x1F AND DUP3 ADD SWAP2 JUMPDEST POP POP POP POP POP DUP2 MSTORE PUSH1 0x20 ADD PUSH1 0x4 DUP3 ADD SLOAD DUP2 MSTORE POP POP SWAP1 POP DUP1 PUSH0 ADD MLOAD DUP2 PUSH1 0x20 ADD MLOAD DUP3 PUSH1 0x40 ADD MLOAD DUP4 PUSH1 0x60 ADD MLOAD DUP5 PUSH1 0x80 ADD MLOAD SWAP6 POP SWAP6 POP SWAP6 POP SWAP6 POP SWAP6 POP POP SWAP2 SWAP4 SWAP6 SWAP1 SWAP3 SWAP5 POP JUMP JUMPDEST PUSH0 DUP1 PUSH1 0x1 PUSH0 DUP5 PUSH20 0xFFFFFFFFFFFFFFFFFFFFFFFFFFFFFFFFFFFFFFFF AND PUSH20 0xFFFFFFFFFFFFFFFFFFFFFFFFFFFFFFFFFFFFFFFF AND DUP2 MSTORE PUSH1 0x20 ADD SWAP1 DUP2 MSTORE PUSH1 0x20 ADD PUSH0 KECCAK256 PUSH0 ADD SLOAD EQ ISZERO SWAP1 POP SWAP2 SWAP1 POP JUMP JUMPDEST PUSH0 PUSH1 0x3 DUP6 DUP6 DUP6 DUP6 PUSH1 0x40 MLOAD PUSH1 0x20 ADD PUSH2 0xF0F SWAP5 SWAP4 SWAP3 SWAP2 SWAP1 PUSH2 0x1E19 JUMP JUMPDEST PUSH1 0x40 MLOAD PUSH1 0x20 DUP2 DUP4 SUB SUB DUP2 MSTORE SWAP1 PUSH1 0x40 MSTORE PUSH1 0x40 MLOAD PUSH2 0xF2B SWAP2 SWAP1 PUSH2 0x1C44 JUMP JUMPDEST PUSH1 0x20 PUSH1 0x40 MLOAD DUP1 DUP4 SUB DUP2 DUP6 GAS STATICCALL ISZERO DUP1 ISZERO PUSH2 0xF46 JUMPI RETURNDATASIZE PUSH0 DUP1 RETURNDATACOPY RETURNDATASIZE PUSH0 REVERT JUMPDEST POP POP POP PUSH1 0x40 MLOAD MLOAD PUSH1 0x60 SHL PUSH12 0xFFFFFFFFFFFFFFFFFFFFFFFF NOT AND SWAP1 POP PUSH0 DUP2 PUSH0 SHR SWAP1 POP PUSH0 PUSH1 0x1 PUSH0 DUP6 PUSH20 0xFFFFFFFFFFFFFFFFFFFFFFFFFFFFFFFFFFFFFFFF AND PUSH20 0xFFFFFFFFFFFFFFFFFFFFFFFFFFFFFFFFFFFFFFFF AND DUP2 MSTORE PUSH1 0x20 ADD SWAP1 DUP2 MSTORE PUSH1 0x20 ADD PUSH0 KECCAK256 PUSH0 ADD SLOAD EQ PUSH2 0xFE8 JUMPI PUSH1 0x40 MLOAD PUSH32 0x8C379A000000000000000000000000000000000000000000000000000000000 DUP2 MSTORE PUSH1 0x4 ADD PUSH2 0xFDF SWAP1 PUSH2 0x1EA4 JUMP JUMPDEST PUSH1 0x40 MLOAD DUP1 SWAP2 SUB SWAP1 REVERT JUMPDEST PUSH0 DUP7 MLOAD GT PUSH2 0x102B JUMPI PUSH1 0x40 MLOAD PUSH32 0x8C379A000000000000000000000000000000000000000000000000000000000 DUP2 MSTORE PUSH1 0x4 ADD PUSH2 0x1022 SWAP1 PUSH2 0x1F0C JUMP JUMPDEST PUSH1 0x40 MLOAD DUP1 SWAP2 SUB SWAP1 REVERT JUMPDEST PUSH0 DUP6 MLOAD GT PUSH2 0x106E JUMPI PUSH1 0x40 MLOAD PUSH32 0x8C379A000000000000000000000000000000000000000000000000000000000 DUP2 MSTORE PUSH1 0x4 ADD PUSH2 0x1065 SWAP1 PUSH2 0x1F74 JUMP JUMPDEST PUSH1 0x40 MLOAD DUP1 SWAP2 SUB SWAP1 REVERT JUMPDEST PUSH0 DUP5 MLOAD GT PUSH2 0x10B1 JUMPI PUSH1 0x40 MLOAD PUSH32 0x8C379A000000000000000000000000000000000000000000000000000000000 DUP2 MSTORE PUSH1 0x4 ADD PUSH2 0x10A8 SWAP1 PUSH2 0x1FDC JUMP JUMPDEST PUSH1 0x40 MLOAD DUP1 SWAP2 SUB SWAP1 REVERT JUMPDEST PUSH0 PUSH1 0x40 MLOAD DUP1 PUSH1 0xA0 ADD PUSH1 0x40 MSTORE DUP1 DUP4 DUP2 MSTORE PUSH1 0x20 ADD DUP9 DUP2 MSTORE PUSH1 0x20 ADD DUP8 DUP2 MSTORE PUSH1 0x20 ADD DUP7 DUP2 MSTORE PUSH1 0x20 ADD PUSH1 0x64 DUP2 MSTORE POP SWAP1 POP PUSH1 0x2 DUP5 SWAP1 DUP1 PUSH1 0x1 DUP2 SLOAD ADD DUP1 DUP3 SSTORE DUP1 SWAP2 POP POP PUSH1 0x1 SWAP1 SUB SWAP1 PUSH0 MSTORE PUSH1 0x20 PUSH0 KECCAK256 ADD PUSH0 SWAP1 SWAP2 SWAP1 SWAP2 SWAP1 SWAP2 PUSH2 0x100 EXP DUP2 SLOAD DUP2 PUSH20 0xFFFFFFFFFFFFFFFFFFFFFFFFFFFFFFFFFFFFFFFF MUL NOT AND SWAP1 DUP4 PUSH20 0xFFFFFFFFFFFFFFFFFFFFFFFFFFFFFFFFFFFFFFFF AND MUL OR SWAP1 SSTORE POP DUP1 PUSH1 0x1 PUSH0 DUP7 PUSH20 0xFFFFFFFFFFFFFFFFFFFFFFFFFFFFFFFFFFFFFFFF AND PUSH20 0xFFFFFFFFFFFFFFFFFFFFFFFFFFFFFFFFFFFFFFFF AND DUP2 MSTORE PUSH1 0x20 ADD SWAP1 DUP2 MSTORE PUSH1 0x20 ADD PUSH0 KECCAK256 PUSH0 DUP3 ADD MLOAD DUP2 PUSH0 ADD SSTORE PUSH1 0x20 DUP3 ADD MLOAD DUP2 PUSH1 0x1 ADD SWAP1 DUP2 PUSH2 0x1197 SWAP2 SWAP1 PUSH2 0x2185 JUMP JUMPDEST POP PUSH1 0x40 DUP3 ADD MLOAD DUP2 PUSH1 0x2 ADD SWAP1 DUP2 PUSH2 0x11AD SWAP2 SWAP1 PUSH2 0x2185 JUMP JUMPDEST POP PUSH1 0x60 DUP3 ADD MLOAD DUP2 PUSH1 0x3 ADD SWAP1 DUP2 PUSH2 0x11C3 SWAP2 SWAP1 PUSH2 0x2185 JUMP JUMPDEST POP PUSH1 0x80 DUP3 ADD MLOAD DUP2 PUSH1 0x4 ADD SSTORE SWAP1 POP POP POP POP POP POP POP POP POP JUMP JUMPDEST DUP1 PUSH1 0x1 PUSH0 DUP5 PUSH20 0xFFFFFFFFFFFFFFFFFFFFFFFFFFFFFFFFFFFFFFFF AND PUSH20 0xFFFFFFFFFFFFFFFFFFFFFFFFFFFFFFFFFFFFFFFF AND DUP2 MSTORE PUSH1 0x20 ADD SWAP1 DUP2 MSTORE PUSH1 0x20 ADD PUSH0 KECCAK256 PUSH1 0x4 ADD DUP2 SWAP1 SSTORE POP POP POP JUMP JUMPDEST PUSH1 0x60 DUP2 PUSH1 0x1 PUSH0 DUP6 PUSH20 0xFFFFFFFFFFFFFFFFFFFFFFFFFFFFFFFFFFFFFFFF AND PUSH20 0xFFFFFFFFFFFFFFFFFFFFFFFFFFFFFFFFFFFFFFFF AND DUP2 MSTORE PUSH1 0x20 ADD SWAP1 DUP2 MSTORE PUSH1 0x20 ADD PUSH0 KECCAK256 PUSH0 ADD SLOAD EQ PUSH2 0x12A6 JUMPI PUSH1 0x40 MLOAD PUSH32 0x8C379A000000000000000000000000000000000000000000000000000000000 DUP2 MSTORE PUSH1 0x4 ADD PUSH2 0x129D SWAP1 PUSH2 0x1DB6 JUMP JUMPDEST PUSH1 0x40 MLOAD DUP1 SWAP2 SUB SWAP1 REVERT JUMPDEST PUSH0 PUSH1 0x1 PUSH0 DUP6 PUSH20 0xFFFFFFFFFFFFFFFFFFFFFFFFFFFFFFFFFFFFFFFF AND PUSH20 0xFFFFFFFFFFFFFFFFFFFFFFFFFFFFFFFFFFFFFFFF AND DUP2 MSTORE PUSH1 0x20 ADD SWAP1 DUP2 MSTORE PUSH1 0x20 ADD PUSH0 KECCAK256 PUSH1 0x40 MLOAD DUP1 PUSH1 0xA0 ADD PUSH1 0x40 MSTORE SWAP1 DUP2 PUSH0 DUP3 ADD SLOAD DUP2 MSTORE PUSH1 0x20 ADD PUSH1 0x1 DUP3 ADD DUP1 SLOAD PUSH2 0x1308 SWAP1 PUSH2 0x1C87 JUMP JUMPDEST DUP1 PUSH1 0x1F ADD PUSH1 0x20 DUP1 SWAP2 DIV MUL PUSH1 0x20 ADD PUSH1 0x40 MLOAD SWAP1 DUP2 ADD PUSH1 0x40 MSTORE DUP1 SWAP3 SWAP2 SWAP1 DUP2 DUP2 MSTORE PUSH1 0x20 ADD DUP3 DUP1 SLOAD PUSH2 0x1334 SWAP1 PUSH2 0x1C87 JUMP JUMPDEST DUP1 ISZERO PUSH2 0x137F JUMPI DUP1 PUSH1 0x1F LT PUSH2 0x1356 JUMPI PUSH2 0x100 DUP1 DUP4 SLOAD DIV MUL DUP4 MSTORE SWAP2 PUSH1 0x20 ADD SWAP2 PUSH2 0x137F JUMP JUMPDEST DUP3 ADD SWAP2 SWAP1 PUSH0 MSTORE PUSH1 0x20 PUSH0 KECCAK256 SWAP1 JUMPDEST DUP2 SLOAD DUP2 MSTORE SWAP1 PUSH1 0x1 ADD SWAP1 PUSH1 0x20 ADD DUP1 DUP4 GT PUSH2 0x1362 JUMPI DUP3 SWAP1 SUB PUSH1 0x1F AND DUP3 ADD SWAP2 JUMPDEST POP POP POP POP POP DUP2 MSTORE PUSH1 0x20 ADD PUSH1 0x2 DUP3 ADD DUP1 SLOAD PUSH2 0x1398 SWAP1 PUSH2 0x1C87 JUMP JUMPDEST DUP1 PUSH1 0x1F ADD PUSH1 0x20 DUP1 SWAP2 DIV MUL PUSH1 0x20 ADD PUSH1 0x40 MLOAD SWAP1 DUP2 ADD PUSH1 0x40 MSTORE DUP1 SWAP3 SWAP2 SWAP1 DUP2 DUP2 MSTORE PUSH1 0x20 ADD DUP3 DUP1 SLOAD PUSH2 0x13C4 SWAP1 PUSH2 0x1C87 JUMP JUMPDEST DUP1 ISZERO PUSH2 0x140F JUMPI DUP1 PUSH1 0x1F LT PUSH2 0x13E6 JUMPI PUSH2 0x100 DUP1 DUP4 SLOAD DIV MUL DUP4 MSTORE SWAP2 PUSH1 0x20 ADD SWAP2 PUSH2 0x140F JUMP JUMPDEST DUP3 ADD SWAP2 SWAP1 PUSH0 MSTORE PUSH1 0x20 PUSH0 KECCAK256 SWAP1 JUMPDEST DUP2 SLOAD DUP2 MSTORE SWAP1 PUSH1 0x1 ADD SWAP1 PUSH1 0x20 ADD DUP1 DUP4 GT PUSH2 0x13F2 JUMPI DUP3 SWAP1 SUB PUSH1 0x1F AND DUP3 ADD SWAP2 JUMPDEST POP POP POP POP POP DUP2 MSTORE PUSH1 0x20 ADD PUSH1 0x3 DUP3 ADD DUP1 SLOAD PUSH2 0x1428 SWAP1 PUSH2 0x1C87 JUMP JUMPDEST DUP1 PUSH1 0x1F ADD PUSH1 0x20 DUP1 SWAP2 DIV MUL PUSH1 0x20 ADD PUSH1 0x40 MLOAD SWAP1 DUP2 ADD PUSH1 0x40 MSTORE DUP1 SWAP3 SWAP2 SWAP1 DUP2 DUP2 MSTORE PUSH1 0x20 ADD DUP3 DUP1 SLOAD PUSH2 0x1454 SWAP1 PUSH2 0x1C87 JUMP JUMPDEST DUP1 ISZERO PUSH2 0x149F JUMPI DUP1 PUSH1 0x1F LT PUSH2 0x1476 JUMPI PUSH2 0x100 DUP1 DUP4 SLOAD DIV MUL DUP4 MSTORE SWAP2 PUSH1 0x20 ADD SWAP2 PUSH2 0x149F JUMP JUMPDEST DUP3 ADD SWAP2 SWAP1 PUSH0 MSTORE PUSH1 0x20 PUSH0 KECCAK256 SWAP1 JUMPDEST DUP2 SLOAD DUP2 MSTORE SWAP1 PUSH1 0x1 ADD SWAP1 PUSH1 0x20 ADD DUP1 DUP4 GT PUSH2 0x1482 JUMPI DUP3 SWAP1 SUB PUSH1 0x1F AND DUP3 ADD SWAP2 JUMPDEST POP POP POP POP POP DUP2 MSTORE PUSH1 0x20 ADD PUSH1 0x4 DUP3 ADD SLOAD DUP2 MSTORE POP POP SWAP1 POP DUP1 PUSH1 0x60 ADD MLOAD SWAP2 POP POP SWAP3 SWAP2 POP POP JUMP JUMPDEST PUSH0 DUP1 PUSH0 SWAP1 POP JUMPDEST DUP3 PUSH20 0xFFFFFFFFFFFFFFFFFFFFFFFFFFFFFFFFFFFFFFFF AND PUSH1 0x2 DUP3 DUP2 SLOAD DUP2 LT PUSH2 0x14F3 JUMPI PUSH2 0x14F2 PUSH2 0x2254 JUMP JUMPDEST JUMPDEST SWAP1 PUSH0 MSTORE PUSH1 0x20 PUSH0 KECCAK256 ADD PUSH0 SWAP1 SLOAD SWAP1 PUSH2 0x100 EXP SWAP1 DIV PUSH20 0xFFFFFFFFFFFFFFFFFFFFFFFFFFFFFFFFFFFFFFFF AND PUSH20 0xFFFFFFFFFFFFFFFFFFFFFFFFFFFFFFFFFFFFFFFF AND SUB PUSH2 0x157E JUMPI PUSH1 0x2 DUP2 DUP2 SLOAD DUP2 LT PUSH2 0x154A JUMPI PUSH2 0x1549 PUSH2 0x2254 JUMP JUMPDEST JUMPDEST SWAP1 PUSH0 MSTORE PUSH1 0x20 PUSH0 KECCAK256 ADD PUSH0 PUSH2 0x100 EXP DUP2 SLOAD SWAP1 PUSH20 0xFFFFFFFFFFFFFFFFFFFFFFFFFFFFFFFFFFFFFFFF MUL NOT AND SWAP1 SSTORE PUSH1 0x1 SWAP2 POP POP PUSH2 0x1591 JUMP JUMPDEST DUP1 DUP1 PUSH2 0x1589 SWAP1 PUSH2 0x22AE JUMP JUMPDEST SWAP2 POP POP PUSH2 0x14C8 JUMP JUMPDEST SWAP2 SWAP1 POP JUMP JUMPDEST POP DUP1 SLOAD PUSH2 0x15A2 SWAP1 PUSH2 0x1C87 JUMP JUMPDEST PUSH0 DUP3 SSTORE DUP1 PUSH1 0x1F LT PUSH2 0x15B3 JUMPI POP PUSH2 0x15D0 JUMP JUMPDEST PUSH1 0x1F ADD PUSH1 0x20 SWAP1 DIV SWAP1 PUSH0 MSTORE PUSH1 0x20 PUSH0 KECCAK256 SWAP1 DUP2 ADD SWAP1 PUSH2 0x15CF SWAP2 SWAP1 PUSH2 0x15D3 JUMP JUMPDEST JUMPDEST POP JUMP JUMPDEST JUMPDEST DUP1 DUP3 GT ISZERO PUSH2 0x15EA JUMPI PUSH0 DUP2 PUSH0 SWAP1 SSTORE POP PUSH1 0x1 ADD PUSH2 0x15D4 JUMP JUMPDEST POP SWAP1 JUMP JUMPDEST PUSH0 DUP2 MLOAD SWAP1 POP SWAP2 SWAP1 POP JUMP JUMPDEST PUSH0 DUP3 DUP3 MSTORE PUSH1 0x20 DUP3 ADD SWAP1 POP SWAP3 SWAP2 POP POP JUMP JUMPDEST PUSH0 DUP2 SWAP1 POP PUSH1 0x20 DUP3 ADD SWAP1 POP SWAP2 SWAP1 POP JUMP JUMPDEST PUSH0 PUSH20 0xFFFFFFFFFFFFFFFFFFFFFFFFFFFFFFFFFFFFFFFF DUP3 AND SWAP1 POP SWAP2 SWAP1 POP JUMP JUMPDEST PUSH0 PUSH2 0x1640 DUP3 PUSH2 0x1617 JUMP JUMPDEST SWAP1 POP SWAP2 SWAP1 POP JUMP JUMPDEST PUSH2 0x1650 DUP2 PUSH2 0x1636 JUMP JUMPDEST DUP3 MSTORE POP POP JUMP JUMPDEST PUSH0 PUSH2 0x1661 DUP4 DUP4 PUSH2 0x1647 JUMP JUMPDEST PUSH1 0x20 DUP4 ADD SWAP1 POP SWAP3 SWAP2 POP POP JUMP JUMPDEST PUSH0 PUSH1 0x20 DUP3 ADD SWAP1 POP SWAP2 SWAP1 POP JUMP JUMPDEST PUSH0 PUSH2 0x1683 DUP3 PUSH2 0x15EE JUMP JUMPDEST PUSH2 0x168D DUP2 DUP6 PUSH2 0x15F8 JUMP JUMPDEST SWAP4 POP PUSH2 0x1698 DUP4 PUSH2 0x1608 JUMP JUMPDEST DUP1 PUSH0 JUMPDEST DUP4 DUP2 LT ISZERO PUSH2 0x16C8 JUMPI DUP2 MLOAD PUSH2 0x16AF DUP9 DUP3 PUSH2 0x1656 JUMP JUMPDEST SWAP8 POP PUSH2 0x16BA DUP4 PUSH2 0x166D JUMP JUMPDEST SWAP3 POP POP PUSH1 0x1 DUP2 ADD SWAP1 POP PUSH2 0x169B JUMP JUMPDEST POP DUP6 SWAP4 POP POP POP POP SWAP3 SWAP2 POP POP JUMP JUMPDEST PUSH0 PUSH1 0x20 DUP3 ADD SWAP1 POP DUP2 DUP2 SUB PUSH0 DUP4 ADD MSTORE PUSH2 0x16ED DUP2 DUP5 PUSH2 0x1679 JUMP JUMPDEST SWAP1 POP SWAP3 SWAP2 POP POP JUMP JUMPDEST PUSH0 PUSH1 0x40 MLOAD SWAP1 POP SWAP1 JUMP JUMPDEST PUSH0 DUP1 REVERT JUMPDEST PUSH0 DUP1 REVERT JUMPDEST PUSH2 0x170F DUP2 PUSH2 0x1636 JUMP JUMPDEST DUP2 EQ PUSH2 0x1719 JUMPI PUSH0 DUP1 REVERT JUMPDEST POP JUMP JUMPDEST PUSH0 DUP2 CALLDATALOAD SWAP1 POP PUSH2 0x172A DUP2 PUSH2 0x1706 JUMP JUMPDEST SWAP3 SWAP2 POP POP JUMP JUMPDEST PUSH0 DUP1 REVERT JUMPDEST PUSH0 DUP1 REVERT JUMPDEST PUSH0 PUSH1 0x1F NOT PUSH1 0x1F DUP4 ADD AND SWAP1 POP SWAP2 SWAP1 POP JUMP JUMPDEST PUSH32 0x4E487B7100000000000000000000000000000000000000000000000000000000 PUSH0 MSTORE PUSH1 0x41 PUSH1 0x4 MSTORE PUSH1 0x24 PUSH0 REVERT JUMPDEST PUSH2 0x177E DUP3 PUSH2 0x1738 JUMP JUMPDEST DUP2 ADD DUP2 DUP2 LT PUSH8 0xFFFFFFFFFFFFFFFF DUP3 GT OR ISZERO PUSH2 0x179D JUMPI PUSH2 0x179C PUSH2 0x1748 JUMP JUMPDEST JUMPDEST DUP1 PUSH1 0x40 MSTORE POP POP POP JUMP JUMPDEST PUSH0 PUSH2 0x17AF PUSH2 0x16F5 JUMP JUMPDEST SWAP1 POP PUSH2 0x17BB DUP3 DUP3 PUSH2 0x1775 JUMP JUMPDEST SWAP2 SWAP1 POP JUMP JUMPDEST PUSH0 PUSH8 0xFFFFFFFFFFFFFFFF DUP3 GT ISZERO PUSH2 0x17DA JUMPI PUSH2 0x17D9 PUSH2 0x1748 JUMP JUMPDEST JUMPDEST PUSH2 0x17E3 DUP3 PUSH2 0x1738 JUMP JUMPDEST SWAP1 POP PUSH1 0x20 DUP2 ADD SWAP1 POP SWAP2 SWAP1 POP JUMP JUMPDEST DUP3 DUP2 DUP4 CALLDATACOPY PUSH0 DUP4 DUP4 ADD MSTORE POP POP POP JUMP JUMPDEST PUSH0 PUSH2 0x1810 PUSH2 0x180B DUP5 PUSH2 0x17C0 JUMP JUMPDEST PUSH2 0x17A6 JUMP JUMPDEST SWAP1 POP DUP3 DUP2 MSTORE PUSH1 0x20 DUP2 ADD DUP5 DUP5 DUP5 ADD GT ISZERO PUSH2 0x182C JUMPI PUSH2 0x182B PUSH2 0x1734 JUMP JUMPDEST JUMPDEST PUSH2 0x1837 DUP5 DUP3 DUP6 PUSH2 0x17F0 JUMP JUMPDEST POP SWAP4 SWAP3 POP POP POP JUMP JUMPDEST PUSH0 DUP3 PUSH1 0x1F DUP4 ADD SLT PUSH2 0x1853 JUMPI PUSH2 0x1852 PUSH2 0x1730 JUMP JUMPDEST JUMPDEST DUP2 CALLDATALOAD PUSH2 0x1863 DUP5 DUP3 PUSH1 0x20 DUP7 ADD PUSH2 0x17FE JUMP JUMPDEST SWAP2 POP POP SWAP3 SWAP2 POP POP JUMP JUMPDEST PUSH0 DUP1 PUSH0 PUSH1 0x60 DUP5 DUP7 SUB SLT ISZERO PUSH2 0x1883 JUMPI PUSH2 0x1882 PUSH2 0x16FE JUMP JUMPDEST JUMPDEST PUSH0 PUSH2 0x1890 DUP7 DUP3 DUP8 ADD PUSH2 0x171C JUMP JUMPDEST SWAP4 POP POP PUSH1 0x20 DUP5 ADD CALLDATALOAD PUSH8 0xFFFFFFFFFFFFFFFF DUP2 GT ISZERO PUSH2 0x18B1 JUMPI PUSH2 0x18B0 PUSH2 0x1702 JUMP JUMPDEST JUMPDEST PUSH2 0x18BD DUP7 DUP3 DUP8 ADD PUSH2 0x183F JUMP JUMPDEST SWAP3 POP POP PUSH1 0x40 DUP5 ADD CALLDATALOAD PUSH8 0xFFFFFFFFFFFFFFFF DUP2 GT ISZERO PUSH2 0x18DE JUMPI PUSH2 0x18DD PUSH2 0x1702 JUMP JUMPDEST JUMPDEST PUSH2 0x18EA DUP7 DUP3 DUP8 ADD PUSH2 0x183F JUMP JUMPDEST SWAP2 POP POP SWAP3 POP SWAP3 POP SWAP3 JUMP JUMPDEST PUSH0 DUP2 ISZERO ISZERO SWAP1 POP SWAP2 SWAP1 POP JUMP JUMPDEST PUSH2 0x1908 DUP2 PUSH2 0x18F4 JUMP JUMPDEST DUP3 MSTORE POP POP JUMP JUMPDEST PUSH0 PUSH1 0x20 DUP3 ADD SWAP1 POP PUSH2 0x1921 PUSH0 DUP4 ADD DUP5 PUSH2 0x18FF JUMP JUMPDEST SWAP3 SWAP2 POP POP JUMP JUMPDEST PUSH0 DUP2 SWAP1 POP SWAP2 SWAP1 POP JUMP JUMPDEST PUSH2 0x1939 DUP2 PUSH2 0x1927 JUMP JUMPDEST DUP2 EQ PUSH2 0x1943 JUMPI PUSH0 DUP1 REVERT JUMPDEST POP JUMP JUMPDEST PUSH0 DUP2 CALLDATALOAD SWAP1 POP PUSH2 0x1954 DUP2 PUSH2 0x1930 JUMP JUMPDEST SWAP3 SWAP2 POP POP JUMP JUMPDEST PUSH0 DUP1 PUSH1 0x40 DUP4 DUP6 SUB SLT ISZERO PUSH2 0x1970 JUMPI PUSH2 0x196F PUSH2 0x16FE JUMP JUMPDEST JUMPDEST PUSH0 PUSH2 0x197D DUP6 DUP3 DUP7 ADD PUSH2 0x171C JUMP JUMPDEST SWAP3 POP POP PUSH1 0x20 PUSH2 0x198E DUP6 DUP3 DUP7 ADD PUSH2 0x1946 JUMP JUMPDEST SWAP2 POP POP SWAP3 POP SWAP3 SWAP1 POP JUMP JUMPDEST PUSH2 0x19A1 DUP2 PUSH2 0x1927 JUMP JUMPDEST DUP3 MSTORE POP POP JUMP JUMPDEST PUSH0 PUSH1 0x20 DUP3 ADD SWAP1 POP PUSH2 0x19BA PUSH0 DUP4 ADD DUP5 PUSH2 0x1998 JUMP JUMPDEST SWAP3 SWAP2 POP POP JUMP JUMPDEST PUSH0 PUSH1 0x20 DUP3 DUP5 SUB SLT ISZERO PUSH2 0x19D5 JUMPI PUSH2 0x19D4 PUSH2 0x16FE JUMP JUMPDEST JUMPDEST PUSH0 PUSH2 0x19E2 DUP5 DUP3 DUP6 ADD PUSH2 0x171C JUMP JUMPDEST SWAP2 POP POP SWAP3 SWAP2 POP POP JUMP JUMPDEST PUSH0 DUP2 MLOAD SWAP1 POP SWAP2 SWAP1 POP JUMP JUMPDEST PUSH0 DUP3 DUP3 MSTORE PUSH1 0x20 DUP3 ADD SWAP1 POP SWAP3 SWAP2 POP POP JUMP JUMPDEST PUSH0 JUMPDEST DUP4 DUP2 LT ISZERO PUSH2 0x1A22 JUMPI DUP1 DUP3 ADD MLOAD DUP2 DUP5 ADD MSTORE PUSH1 0x20 DUP2 ADD SWAP1 POP PUSH2 0x1A07 JUMP JUMPDEST PUSH0 DUP5 DUP5 ADD MSTORE POP POP POP POP JUMP JUMPDEST PUSH0 PUSH2 0x1A37 DUP3 PUSH2 0x19EB JUMP JUMPDEST PUSH2 0x1A41 DUP2 DUP6 PUSH2 0x19F5 JUMP JUMPDEST SWAP4 POP PUSH2 0x1A51 DUP2 DUP6 PUSH1 0x20 DUP7 ADD PUSH2 0x1A05 JUMP JUMPDEST PUSH2 0x1A5A DUP2 PUSH2 0x1738 JUMP JUMPDEST DUP5 ADD SWAP2 POP POP SWAP3 SWAP2 POP POP JUMP JUMPDEST PUSH0 PUSH1 0x20 DUP3 ADD SWAP1 POP DUP2 DUP2 SUB PUSH0 DUP4 ADD MSTORE PUSH2 0x1A7D DUP2 DUP5 PUSH2 0x1A2D JUMP JUMPDEST SWAP1 POP SWAP3 SWAP2 POP POP JUMP JUMPDEST PUSH0 PUSH1 0xA0 DUP3 ADD SWAP1 POP PUSH2 0x1A98 PUSH0 DUP4 ADD DUP9 PUSH2 0x1998 JUMP JUMPDEST DUP2 DUP2 SUB PUSH1 0x20 DUP4 ADD MSTORE PUSH2 0x1AAA DUP2 DUP8 PUSH2 0x1A2D JUMP JUMPDEST SWAP1 POP DUP2 DUP2 SUB PUSH1 0x40 DUP4 ADD MSTORE PUSH2 0x1ABE DUP2 DUP7 PUSH2 0x1A2D JUMP JUMPDEST SWAP1 POP DUP2 DUP2 SUB PUSH1 0x60 DUP4 ADD MSTORE PUSH2 0x1AD2 DUP2 DUP6 PUSH2 0x1A2D JUMP JUMPDEST SWAP1 POP PUSH2 0x1AE1 PUSH1 0x80 DUP4 ADD DUP5 PUSH2 0x1998 JUMP JUMPDEST SWAP7 SWAP6 POP POP POP POP POP POP JUMP JUMPDEST PUSH0 DUP1 PUSH0 DUP1 PUSH1 0x80 DUP6 DUP8 SUB SLT ISZERO PUSH2 0x1B03 JUMPI PUSH2 0x1B02 PUSH2 0x16FE JUMP JUMPDEST JUMPDEST PUSH0 DUP6 ADD CALLDATALOAD PUSH8 0xFFFFFFFFFFFFFFFF DUP2 GT ISZERO PUSH2 0x1B20 JUMPI PUSH2 0x1B1F PUSH2 0x1702 JUMP JUMPDEST JUMPDEST PUSH2 0x1B2C DUP8 DUP3 DUP9 ADD PUSH2 0x183F JUMP JUMPDEST SWAP5 POP POP PUSH1 0x20 DUP6 ADD CALLDATALOAD PUSH8 0xFFFFFFFFFFFFFFFF DUP2 GT ISZERO PUSH2 0x1B4D JUMPI PUSH2 0x1B4C PUSH2 0x1702 JUMP JUMPDEST JUMPDEST PUSH2 0x1B59 DUP8 DUP3 DUP9 ADD PUSH2 0x183F JUMP JUMPDEST SWAP4 POP POP PUSH1 0x40 DUP6 ADD CALLDATALOAD PUSH8 0xFFFFFFFFFFFFFFFF DUP2 GT ISZERO PUSH2 0x1B7A JUMPI PUSH2 0x1B79 PUSH2 0x1702 JUMP JUMPDEST JUMPDEST PUSH2 0x1B86 DUP8 DUP3 DUP9 ADD PUSH2 0x183F JUMP JUMPDEST SWAP3 POP POP PUSH1 0x60 PUSH2 0x1B97 DUP8 DUP3 DUP9 ADD PUSH2 0x171C JUMP JUMPDEST SWAP2 POP POP SWAP3 SWAP6 SWAP2 SWAP5 POP SWAP3 POP JUMP JUMPDEST PUSH0 DUP2 SWAP1 POP SWAP3 SWAP2 POP POP JUMP JUMPDEST PUSH0 PUSH2 0x1BB7 DUP3 PUSH2 0x19EB JUMP JUMPDEST PUSH2 0x1BC1 DUP2 DUP6 PUSH2 0x1BA3 JUMP JUMPDEST SWAP4 POP PUSH2 0x1BD1 DUP2 DUP6 PUSH1 0x20 DUP7 ADD PUSH2 0x1A05 JUMP JUMPDEST DUP1 DUP5 ADD SWAP2 POP POP SWAP3 SWAP2 POP POP JUMP JUMPDEST PUSH0 PUSH2 0x1BE8 DUP3 DUP6 PUSH2 0x1BAD JUMP JUMPDEST SWAP2 POP PUSH2 0x1BF4 DUP3 DUP5 PUSH2 0x1BAD JUMP JUMPDEST SWAP2 POP DUP2 SWAP1 POP SWAP4 SWAP3 POP POP POP JUMP JUMPDEST PUSH0 DUP2 MLOAD SWAP1 POP SWAP2 SWAP1 POP JUMP JUMPDEST PUSH0 DUP2 SWAP1 POP SWAP3 SWAP2 POP POP JUMP JUMPDEST PUSH0 PUSH2 0x1C1E DUP3 PUSH2 0x1C00 JUMP JUMPDEST PUSH2 0x1C28 DUP2 DUP6 PUSH2 0x1C0A JUMP JUMPDEST SWAP4 POP PUSH2 0x1C38 DUP2 DUP6 PUSH1 0x20 DUP7 ADD PUSH2 0x1A05 JUMP JUMPDEST DUP1 DUP5 ADD SWAP2 POP POP SWAP3 SWAP2 POP POP JUMP JUMPDEST PUSH0 PUSH2 0x1C4F DUP3 DUP5 PUSH2 0x1C14 JUMP JUMPDEST SWAP2 POP DUP2 SWAP1 POP SWAP3 SWAP2 POP POP JUMP JUMPDEST PUSH32 0x4E487B7100000000000000000000000000000000000000000000000000000000 PUSH0 MSTORE PUSH1 0x22 PUSH1 0x4 MSTORE PUSH1 0x24 PUSH0 REVERT JUMPDEST PUSH0 PUSH1 0x2 DUP3 DIV SWAP1 POP PUSH1 0x1 DUP3 AND DUP1 PUSH2 0x1C9E JUMPI PUSH1 0x7F DUP3 AND SWAP2 POP JUMPDEST PUSH1 0x20 DUP3 LT DUP2 SUB PUSH2 0x1CB1 JUMPI PUSH2 0x1CB0 PUSH2 0x1C5A JUMP JUMPDEST JUMPDEST POP SWAP2 SWAP1 POP JUMP JUMPDEST PUSH0 DUP2 SWAP1 POP DUP2 PUSH0 MSTORE PUSH1 0x20 PUSH0 KECCAK256 SWAP1 POP SWAP2 SWAP1 POP JUMP JUMPDEST PUSH0 DUP2 SLOAD PUSH2 0x1CD5 DUP2 PUSH2 0x1C87 JUMP JUMPDEST PUSH2 0x1CDF DUP2 DUP7 PUSH2 0x1BA3 JUMP JUMPDEST SWAP5 POP PUSH1 0x1 DUP3 AND PUSH0 DUP2 EQ PUSH2 0x1CF9 JUMPI PUSH1 0x1 DUP2 EQ PUSH2 0x1D0E JUMPI PUSH2 0x1D40 JUMP JUMPDEST PUSH1 0xFF NOT DUP4 AND DUP7 MSTORE DUP2 ISZERO ISZERO DUP3 MUL DUP7 ADD SWAP4 POP PUSH2 0x1D40 JUMP JUMPDEST PUSH2 0x1D17 DUP6 PUSH2 0x1CB7 JUMP JUMPDEST PUSH0 JUMPDEST DUP4 DUP2 LT ISZERO PUSH2 0x1D38 JUMPI DUP2 SLOAD DUP2 DUP10 ADD MSTORE PUSH1 0x1 DUP3 ADD SWAP2 POP PUSH1 0x20 DUP2 ADD SWAP1 POP PUSH2 0x1D19 JUMP JUMPDEST DUP4 DUP9 ADD SWAP6 POP POP POP JUMPDEST POP POP POP SWAP3 SWAP2 POP POP JUMP JUMPDEST PUSH0 PUSH2 0x1D54 DUP3 DUP6 PUSH2 0x1CC9 JUMP JUMPDEST SWAP2 POP PUSH2 0x1D60 DUP3 DUP5 PUSH2 0x1CC9 JUMP JUMPDEST SWAP2 POP DUP2 SWAP1 POP SWAP4 SWAP3 POP POP POP JUMP JUMPDEST PUSH32 0x4944206E6F742056616C69642100000000000000000000000000000000000000 PUSH0 DUP3 ADD MSTORE POP JUMP JUMPDEST PUSH0 PUSH2 0x1DA0 PUSH1 0xD DUP4 PUSH2 0x19F5 JUMP JUMPDEST SWAP2 POP PUSH2 0x1DAB DUP3 PUSH2 0x1D6C JUMP JUMPDEST PUSH1 0x20 DUP3 ADD SWAP1 POP SWAP2 SWAP1 POP JUMP JUMPDEST PUSH0 PUSH1 0x20 DUP3 ADD SWAP1 POP DUP2 DUP2 SUB PUSH0 DUP4 ADD MSTORE PUSH2 0x1DCD DUP2 PUSH2 0x1D94 JUMP JUMPDEST SWAP1 POP SWAP2 SWAP1 POP JUMP JUMPDEST PUSH0 DUP2 PUSH1 0x60 SHL SWAP1 POP SWAP2 SWAP1 POP JUMP JUMPDEST PUSH0 PUSH2 0x1DEA DUP3 PUSH2 0x1DD4 JUMP JUMPDEST SWAP1 POP SWAP2 SWAP1 POP JUMP JUMPDEST PUSH0 PUSH2 0x1DFB DUP3 PUSH2 0x1DE0 JUMP JUMPDEST SWAP1 POP SWAP2 SWAP1 POP JUMP JUMPDEST PUSH2 0x1E13 PUSH2 0x1E0E DUP3 PUSH2 0x1636 JUMP JUMPDEST PUSH2 0x1DF1 JUMP JUMPDEST DUP3 MSTORE POP POP JUMP JUMPDEST PUSH0 PUSH2 0x1E24 DUP3 DUP8 PUSH2 0x1BAD JUMP JUMPDEST SWAP2 POP PUSH2 0x1E30 DUP3 DUP7 PUSH2 0x1BAD JUMP JUMPDEST SWAP2 POP PUSH2 0x1E3C DUP3 DUP6 PUSH2 0x1BAD JUMP JUMPDEST SWAP2 POP PUSH2 0x1E48 DUP3 DUP5 PUSH2 0x1E02 JUMP JUMPDEST PUSH1 0x14 DUP3 ADD SWAP2 POP DUP2 SWAP1 POP SWAP6 SWAP5 POP POP POP POP POP JUMP JUMPDEST PUSH32 0x52657461696C657220616C726561647920726567697374657265640000000000 PUSH0 DUP3 ADD MSTORE POP JUMP JUMPDEST PUSH0 PUSH2 0x1E8E PUSH1 0x1B DUP4 PUSH2 0x19F5 JUMP JUMPDEST SWAP2 POP PUSH2 0x1E99 DUP3 PUSH2 0x1E5A JUMP JUMPDEST PUSH1 0x20 DUP3 ADD SWAP1 POP SWAP2 SWAP1 POP JUMP JUMPDEST PUSH0 PUSH1 0x20 DUP3 ADD SWAP1 POP DUP2 DUP2 SUB PUSH0 DUP4 ADD MSTORE PUSH2 0x1EBB DUP2 PUSH2 0x1E82 JUMP JUMPDEST SWAP1 POP SWAP2 SWAP1 POP JUMP JUMPDEST PUSH32 0x46756C6C206E616D652063616E6E6F7420626520656D70747900000000000000 PUSH0 DUP3 ADD MSTORE POP JUMP JUMPDEST PUSH0 PUSH2 0x1EF6 PUSH1 0x19 DUP4 PUSH2 0x19F5 JUMP JUMPDEST SWAP2 POP PUSH2 0x1F01 DUP3 PUSH2 0x1EC2 JUMP JUMPDEST PUSH1 0x20 DUP3 ADD SWAP1 POP SWAP2 SWAP1 POP JUMP JUMPDEST PUSH0 PUSH1 0x20 DUP3 ADD SWAP1 POP DUP2 DUP2 SUB PUSH0 DUP4 ADD MSTORE PUSH2 0x1F23 DUP2 PUSH2 0x1EEA JUMP JUMPDEST SWAP1 POP SWAP2 SWAP1 POP JUMP JUMPDEST PUSH32 0x50617373776F72642063616E6E6F7420626520656D7074790000000000000000 PUSH0 DUP3 ADD MSTORE POP JUMP JUMPDEST PUSH0 PUSH2 0x1F5E PUSH1 0x18 DUP4 PUSH2 0x19F5 JUMP JUMPDEST SWAP2 POP PUSH2 0x1F69 DUP3 PUSH2 0x1F2A JUMP JUMPDEST PUSH1 0x20 DUP3 ADD SWAP1 POP SWAP2 SWAP1 POP JUMP JUMPDEST PUSH0 PUSH1 0x20 DUP3 ADD SWAP1 POP DUP2 DUP2 SUB PUSH0 DUP4 ADD MSTORE PUSH2 0x1F8B DUP2 PUSH2 0x1F52 JUMP JUMPDEST SWAP1 POP SWAP2 SWAP1 POP JUMP JUMPDEST PUSH32 0x456D61696C2063616E6E6F7420626520656D7074790000000000000000000000 PUSH0 DUP3 ADD MSTORE POP JUMP JUMPDEST PUSH0 PUSH2 0x1FC6 PUSH1 0x15 DUP4 PUSH2 0x19F5 JUMP JUMPDEST SWAP2 POP PUSH2 0x1FD1 DUP3 PUSH2 0x1F92 JUMP JUMPDEST PUSH1 0x20 DUP3 ADD SWAP1 POP SWAP2 SWAP1 POP JUMP JUMPDEST PUSH0 PUSH1 0x20 DUP3 ADD SWAP1 POP DUP2 DUP2 SUB PUSH0 DUP4 ADD MSTORE PUSH2 0x1FF3 DUP2 PUSH2 0x1FBA JUMP JUMPDEST SWAP1 POP SWAP2 SWAP1 POP JUMP JUMPDEST PUSH0 PUSH1 0x20 PUSH1 0x1F DUP4 ADD DIV SWAP1 POP SWAP2 SWAP1 POP JUMP JUMPDEST PUSH0 DUP3 DUP3 SHL SWAP1 POP SWAP3 SWAP2 POP POP JUMP JUMPDEST PUSH0 PUSH1 0x8 DUP4 MUL PUSH2 0x2044 PUSH32 0xFFFFFFFFFFFFFFFFFFFFFFFFFFFFFFFFFFFFFFFFFFFFFFFFFFFFFFFFFFFFFFFF DUP3 PUSH2 0x2009 JUMP JUMPDEST PUSH2 0x204E DUP7 DUP4 PUSH2 0x2009 JUMP JUMPDEST SWAP6 POP DUP1 NOT DUP5 AND SWAP4 POP DUP1 DUP7 AND DUP5 OR SWAP3 POP POP POP SWAP4 SWAP3 POP POP POP JUMP JUMPDEST PUSH0 DUP2 SWAP1 POP SWAP2 SWAP1 POP JUMP JUMPDEST PUSH0 PUSH2 0x2089 PUSH2 0x2084 PUSH2 0x207F DUP5 PUSH2 0x1927 JUMP JUMPDEST PUSH2 0x2066 JUMP JUMPDEST PUSH2 0x1927 JUMP JUMPDEST SWAP1 POP SWAP2 SWAP1 POP JUMP JUMPDEST PUSH0 DUP2 SWAP1 POP SWAP2 SWAP1 POP JUMP JUMPDEST PUSH2 0x20A2 DUP4 PUSH2 0x206F JUMP JUMPDEST PUSH2 0x20B6 PUSH2 0x20AE DUP3 PUSH2 0x2090 JUMP JUMPDEST DUP5 DUP5 SLOAD PUSH2 0x2015 JUMP JUMPDEST DUP3 SSTORE POP POP POP POP JUMP JUMPDEST PUSH0 SWAP1 JUMP JUMPDEST PUSH2 0x20CA PUSH2 0x20BE JUMP JUMPDEST PUSH2 0x20D5 DUP2 DUP5 DUP5 PUSH2 0x2099 JUMP JUMPDEST POP POP POP JUMP JUMPDEST JUMPDEST DUP2 DUP2 LT ISZERO PUSH2 0x20F8 JUMPI PUSH2 0x20ED PUSH0 DUP3 PUSH2 0x20C2 JUMP JUMPDEST PUSH1 0x1 DUP2 ADD SWAP1 POP PUSH2 0x20DB JUMP JUMPDEST POP POP JUMP JUMPDEST PUSH1 0x1F DUP3 GT ISZERO PUSH2 0x213D JUMPI PUSH2 0x210E DUP2 PUSH2 0x1CB7 JUMP JUMPDEST PUSH2 0x2117 DUP5 PUSH2 0x1FFA JUMP JUMPDEST DUP2 ADD PUSH1 0x20 DUP6 LT ISZERO PUSH2 0x2126 JUMPI DUP2 SWAP1 POP JUMPDEST PUSH2 0x213A PUSH2 0x2132 DUP6 PUSH2 0x1FFA JUMP JUMPDEST DUP4 ADD DUP3 PUSH2 0x20DA JUMP JUMPDEST POP POP JUMPDEST POP POP POP JUMP JUMPDEST PUSH0 DUP3 DUP3 SHR SWAP1 POP SWAP3 SWAP2 POP POP JUMP JUMPDEST PUSH0 PUSH2 0x215D PUSH0 NOT DUP5 PUSH1 0x8 MUL PUSH2 0x2142 JUMP JUMPDEST NOT DUP1 DUP4 AND SWAP2 POP POP SWAP3 SWAP2 POP POP JUMP JUMPDEST PUSH0 PUSH2 0x2175 DUP4 DUP4 PUSH2 0x214E JUMP JUMPDEST SWAP2 POP DUP3 PUSH1 0x2 MUL DUP3 OR SWAP1 POP SWAP3 SWAP2 POP POP JUMP JUMPDEST PUSH2 0x218E DUP3 PUSH2 0x19EB JUMP JUMPDEST PUSH8 0xFFFFFFFFFFFFFFFF DUP2 GT ISZERO PUSH2 0x21A7 JUMPI PUSH2 0x21A6 PUSH2 0x1748 JUMP JUMPDEST JUMPDEST PUSH2 0x21B1 DUP3 SLOAD PUSH2 0x1C87 JUMP JUMPDEST PUSH2 0x21BC DUP3 DUP3 DUP6 PUSH2 0x20FC JUMP JUMPDEST PUSH0 PUSH1 0x20 SWAP1 POP PUSH1 0x1F DUP4 GT PUSH1 0x1 DUP2 EQ PUSH2 0x21ED JUMPI PUSH0 DUP5 ISZERO PUSH2 0x21DB JUMPI DUP3 DUP8 ADD MLOAD SWAP1 POP JUMPDEST PUSH2 0x21E5 DUP6 DUP3 PUSH2 0x216A JUMP JUMPDEST DUP7 SSTORE POP PUSH2 0x224C JUMP JUMPDEST PUSH1 0x1F NOT DUP5 AND PUSH2 0x21FB DUP7 PUSH2 0x1CB7 JUMP JUMPDEST PUSH0 JUMPDEST DUP3 DUP2 LT ISZERO PUSH2 0x2222 JUMPI DUP5 DUP10 ADD MLOAD DUP3 SSTORE PUSH1 0x1 DUP3 ADD SWAP2 POP PUSH1 0x20 DUP6 ADD SWAP5 POP PUSH1 0x20 DUP2 ADD SWAP1 POP PUSH2 0x21FD JUMP JUMPDEST DUP7 DUP4 LT ISZERO PUSH2 0x223F JUMPI DUP5 DUP10 ADD MLOAD PUSH2 0x223B PUSH1 0x1F DUP10 AND DUP3 PUSH2 0x214E JUMP JUMPDEST DUP4 SSTORE POP JUMPDEST PUSH1 0x1 PUSH1 0x2 DUP9 MUL ADD DUP9 SSTORE POP POP POP JUMPDEST POP POP POP POP POP POP JUMP JUMPDEST PUSH32 0x4E487B7100000000000000000000000000000000000000000000000000000000 PUSH0 MSTORE PUSH1 0x32 PUSH1 0x4 MSTORE PUSH1 0x24 PUSH0 REVERT JUMPDEST PUSH32 0x4E487B7100000000000000000000000000000000000000000000000000000000 PUSH0 MSTORE PUSH1 0x11 PUSH1 0x4 MSTORE PUSH1 0x24 PUSH0 REVERT JUMPDEST PUSH0 PUSH2 0x22B8 DUP3 PUSH2 0x1927 JUMP JUMPDEST SWAP2 POP PUSH32 0xFFFFFFFFFFFFFFFFFFFFFFFFFFFFFFFFFFFFFFFFFFFFFFFFFFFFFFFFFFFFFFFF DUP3 SUB PUSH2 0x22EA JUMPI PUSH2 0x22E9 PUSH2 0x2281 JUMP JUMPDEST JUMPDEST PUSH1 0x1 DUP3 ADD SWAP1 POP SWAP2 SWAP1 POP JUMP INVALID LOG2 PUSH5 0x6970667358 0x22 SLT KECCAK256 0x4D SWAP6 CALLDATALOAD SWAP3 0xCC PUSH17 0xDBE1D20E5C8616B8AB27BF61F5AD84651E 0x24 PUSH9 0xE5EEFB5B098E2E6473 PUSH16 0x6C634300081600330000000000000000 "
				},
				"gasEstimates": {
					"creation": {
						"codeDepositCost": "1800600",
						"executionCost": "26161",
						"totalCost": "1826761"
					},
					"external": {
						"addUser(string,string,string,address)": "infinite",
						"deleteUser(address)": "infinite",
						"getBalance(address,uint256)": "infinite",
						"getEmail(address,uint256)": "infinite",
						"getFullName(address,uint256)": "infinite",
						"getId(address)": "infinite",
						"getListAddressRetailer()": "infinite",
						"getUser(address)": "infinite",
						"isUserPresent(address)": "2893",
						"loginUser(address,string,string)": "infinite",
						"updateBalance(address,uint256)": "22916"
					},
					"internal": {
						"deleteRetailerFromList(address)": "infinite"
					}
				},
				"methodIdentifiers": {
					"addUser(string,string,string,address)": "b48ff0f1",
					"deleteUser(address)": "5c60f226",
					"getBalance(address,uint256)": "2b04e840",
					"getEmail(address,uint256)": "ecca4073",
					"getFullName(address,uint256)": "6e44cd42",
					"getId(address)": "65f68c89",
					"getListAddressRetailer()": "0586510d",
					"getUser(address)": "6f77926b",
					"isUserPresent(address)": "a5578807",
					"loginUser(address,string,string)": "06f22b04",
					"updateBalance(address,uint256)": "e0b1cccb"
				}
			},
			"storageLayout": {
				"storage": [
					{
						"astId": 42,
						"contract": "contracts/Actor/Retailer-smart-contract/RetailerStorage.sol:RetailerStorage",
						"label": "RetailerOrg",
						"offset": 0,
						"slot": "0",
						"type": "t_address"
					},
					{
						"astId": 67,
						"contract": "contracts/Actor/Retailer-smart-contract/RetailerStorage.sol:RetailerStorage",
						"label": "retailers",
						"offset": 0,
						"slot": "1",
						"type": "t_mapping(t_address,t_struct(Retailer)62_storage)"
					},
					{
						"astId": 70,
						"contract": "contracts/Actor/Retailer-smart-contract/RetailerStorage.sol:RetailerStorage",
						"label": "addressList",
						"offset": 0,
						"slot": "2",
						"type": "t_array(t_address)dyn_storage"
					}
				],
				"types": {
					"t_address": {
						"encoding": "inplace",
						"label": "address",
						"numberOfBytes": "20"
					},
					"t_array(t_address)dyn_storage": {
						"base": "t_address",
						"encoding": "dynamic_array",
						"label": "address[]",
						"numberOfBytes": "32"
					},
					"t_mapping(t_address,t_struct(Retailer)62_storage)": {
						"encoding": "mapping",
						"key": "t_address",
						"label": "mapping(address => struct RetailerStorage.Retailer)",
						"numberOfBytes": "32",
						"value": "t_struct(Retailer)62_storage"
					},
					"t_string_storage": {
						"encoding": "bytes",
						"label": "string",
						"numberOfBytes": "32"
					},
					"t_struct(Retailer)62_storage": {
						"encoding": "inplace",
						"label": "struct RetailerStorage.Retailer",
						"members": [
							{
								"astId": 53,
								"contract": "contracts/Actor/Retailer-smart-contract/RetailerStorage.sol:RetailerStorage",
								"label": "id",
								"offset": 0,
								"slot": "0",
								"type": "t_uint256"
							},
							{
								"astId": 55,
								"contract": "contracts/Actor/Retailer-smart-contract/RetailerStorage.sol:RetailerStorage",
								"label": "fullName",
								"offset": 0,
								"slot": "1",
								"type": "t_string_storage"
							},
							{
								"astId": 57,
								"contract": "contracts/Actor/Retailer-smart-contract/RetailerStorage.sol:RetailerStorage",
								"label": "password",
								"offset": 0,
								"slot": "2",
								"type": "t_string_storage"
							},
							{
								"astId": 59,
								"contract": "contracts/Actor/Retailer-smart-contract/RetailerStorage.sol:RetailerStorage",
								"label": "email",
								"offset": 0,
								"slot": "3",
								"type": "t_string_storage"
							},
							{
								"astId": 61,
								"contract": "contracts/Actor/Retailer-smart-contract/RetailerStorage.sol:RetailerStorage",
								"label": "balance",
								"offset": 0,
								"slot": "4",
								"type": "t_uint256"
							}
						],
						"numberOfBytes": "160"
					},
					"t_uint256": {
						"encoding": "inplace",
						"label": "uint256",
						"numberOfBytes": "32"
					}
				}
			},
			"userdoc": {
				"kind": "user",
				"methods": {
					"addUser(string,string,string,address)": {
						"notice": "addUser() effettuiamo la registrazione dell'utente Retailer "
					},
					"getBalance(address,uint256)": {
						"notice": "- Funzione getBalance() attraverso l'address del Retailer riusciamo a recuperare il suo Balance"
					},
					"getEmail(address,uint256)": {
						"notice": "- Funzione getEmail() attraverso l'address del Retailer riusciamo a recuperare la sua Email "
					},
					"getFullName(address,uint256)": {
						"notice": "- Funzione getFullName() attraverso l'address del Retailer riusciamo a recuperare il suo FullName"
					},
					"getId(address)": {
						"notice": "- Funzione getId() attraverso l'address del Retailer riusciamo a recuperare il suo ID"
					},
					"getListAddressRetailer()": {
						"notice": "Ritorna la Lista degli address"
					},
					"getUser(address)": {
						"notice": "getUser(walletRetailer) :  Retailer visualizza le sue informazioni principali - email, password , fullName , balance "
					},
					"loginUser(address,string,string)": {
						"notice": "LoginUser() effettua il login dell'utente  La comparazione Hash tra (email e password) di input e quelli salvati return true se la comparazione è vera, La comparazione è falsa se l'hashing non risulta valido"
					}
				},
				"version": 1
			}
		}
	}
}