{
	"Filiera-Token-Smart-Contract/contracts/Actor/Retailer-smart-contract/inventory/RetailerInventoryStorage.sol": {
		"RetailerInventoryStorage": {
			"abi": [
				{
					"inputs": [],
					"stateMutability": "nonpayable",
					"type": "constructor"
				},
				{
					"inputs": [
						{
							"internalType": "address",
							"name": "walletRetailer",
							"type": "address"
						},
						{
							"internalType": "uint256",
							"name": "_id_CheeseBlock",
							"type": "uint256"
						},
						{
							"internalType": "uint256",
							"name": "_price",
							"type": "uint256"
						},
						{
							"internalType": "uint256",
							"name": "_weight",
							"type": "uint256"
						}
					],
					"name": "addCheesePiece",
					"outputs": [
						{
							"internalType": "uint256",
							"name": "",
							"type": "uint256"
						},
						{
							"internalType": "uint256",
							"name": "",
							"type": "uint256"
						},
						{
							"internalType": "uint256",
							"name": "",
							"type": "uint256"
						}
					],
					"stateMutability": "nonpayable",
					"type": "function"
				},
				{
					"inputs": [
						{
							"internalType": "address",
							"name": "walletRetailer",
							"type": "address"
						},
						{
							"internalType": "uint256",
							"name": "_id",
							"type": "uint256"
						}
					],
					"name": "deleteCheesePiece",
					"outputs": [
						{
							"internalType": "bool",
							"name": "value",
							"type": "bool"
						}
					],
					"stateMutability": "nonpayable",
					"type": "function"
				},
				{
					"inputs": [
						{
							"internalType": "address[]",
							"name": "retailerListAddress",
							"type": "address[]"
						}
					],
					"name": "getAllCheesePieceList",
					"outputs": [
						{
							"components": [
								{
									"internalType": "uint256",
									"name": "id",
									"type": "uint256"
								},
								{
									"internalType": "uint256",
									"name": "price",
									"type": "uint256"
								},
								{
									"internalType": "uint256",
									"name": "weight",
									"type": "uint256"
								}
							],
							"internalType": "struct RetailerInventoryStorage.CheesePiece[]",
							"name": "",
							"type": "tuple[]"
						}
					],
					"stateMutability": "view",
					"type": "function"
				},
				{
					"inputs": [
						{
							"internalType": "address",
							"name": "walletRetailer",
							"type": "address"
						},
						{
							"internalType": "uint256",
							"name": "_id",
							"type": "uint256"
						}
					],
					"name": "getCheesePiece",
					"outputs": [
						{
							"internalType": "uint256",
							"name": "",
							"type": "uint256"
						},
						{
							"internalType": "uint256",
							"name": "",
							"type": "uint256"
						},
						{
							"internalType": "uint256",
							"name": "",
							"type": "uint256"
						}
					],
					"stateMutability": "view",
					"type": "function"
				},
				{
					"inputs": [
						{
							"internalType": "address",
							"name": "walletRetailer",
							"type": "address"
						}
					],
					"name": "getCheesePieceListPurchasedByRetailer",
					"outputs": [
						{
							"components": [
								{
									"internalType": "uint256",
									"name": "id",
									"type": "uint256"
								},
								{
									"internalType": "uint256",
									"name": "price",
									"type": "uint256"
								},
								{
									"internalType": "uint256",
									"name": "weight",
									"type": "uint256"
								}
							],
							"internalType": "struct RetailerInventoryStorage.CheesePiece[]",
							"name": "",
							"type": "tuple[]"
						}
					],
					"stateMutability": "view",
					"type": "function"
				},
				{
					"inputs": [
						{
							"internalType": "address",
							"name": "walletRetailer",
							"type": "address"
						},
						{
							"internalType": "uint256",
							"name": "_id",
							"type": "uint256"
						}
					],
					"name": "getPrice",
					"outputs": [
						{
							"internalType": "uint256",
							"name": "",
							"type": "uint256"
						}
					],
					"stateMutability": "view",
					"type": "function"
				},
				{
					"inputs": [
						{
							"internalType": "address",
							"name": "walletRetailer",
							"type": "address"
						},
						{
							"internalType": "uint256",
							"name": "_id",
							"type": "uint256"
						}
					],
					"name": "getWeight",
					"outputs": [
						{
							"internalType": "uint256",
							"name": "",
							"type": "uint256"
						}
					],
					"stateMutability": "view",
					"type": "function"
				},
				{
					"inputs": [
						{
							"internalType": "address",
							"name": "walletRetailer",
							"type": "address"
						},
						{
							"internalType": "uint256",
							"name": "_id_CheesePiece",
							"type": "uint256"
						}
					],
					"name": "isCheesePiecePresent",
					"outputs": [
						{
							"internalType": "bool",
							"name": "",
							"type": "bool"
						}
					],
					"stateMutability": "view",
					"type": "function"
				},
				{
					"inputs": [
						{
							"internalType": "address",
							"name": "walletRetailer",
							"type": "address"
						},
						{
							"internalType": "uint256",
							"name": "_id_Cheese",
							"type": "uint256"
						},
						{
							"internalType": "uint256",
							"name": "_newQuantity",
							"type": "uint256"
						}
					],
					"name": "updateWeight",
					"outputs": [],
					"stateMutability": "nonpayable",
					"type": "function"
				}
			],
			"devdoc": {
				"kind": "dev",
				"methods": {},
				"version": 1
			},
			"evm": {
				"assembly": "    /* \"Filiera-Token-Smart-Contract/contracts/Actor/Retailer-smart-contract/inventory/RetailerInventoryStorage.sol\":60:5999  contract RetailerInventoryStorage {... */\n  mstore(0x40, 0x80)\n    /* \"Filiera-Token-Smart-Contract/contracts/Actor/Retailer-smart-contract/inventory/RetailerInventoryStorage.sol\":194:251  constructor() {... */\n  callvalue\n  dup1\n  iszero\n  tag_1\n  jumpi\n  0x00\n  dup1\n  revert\ntag_1:\n  pop\n    /* \"Filiera-Token-Smart-Contract/contracts/Actor/Retailer-smart-contract/inventory/RetailerInventoryStorage.sol\":233:243  msg.sender */\n  caller\n    /* \"Filiera-Token-Smart-Contract/contracts/Actor/Retailer-smart-contract/inventory/RetailerInventoryStorage.sol\":219:230  retailerOrg */\n  0x00\n  dup1\n    /* \"Filiera-Token-Smart-Contract/contracts/Actor/Retailer-smart-contract/inventory/RetailerInventoryStorage.sol\":219:243  retailerOrg = msg.sender */\n  0x0100\n  exp\n  dup2\n  sload\n  dup2\n  0xffffffffffffffffffffffffffffffffffffffff\n  mul\n  not\n  and\n  swap1\n  dup4\n  0xffffffffffffffffffffffffffffffffffffffff\n  and\n  mul\n  or\n  swap1\n  sstore\n  pop\n    /* \"Filiera-Token-Smart-Contract/contracts/Actor/Retailer-smart-contract/inventory/RetailerInventoryStorage.sol\":60:5999  contract RetailerInventoryStorage {... */\n  dataSize(sub_0)\n  dup1\n  dataOffset(sub_0)\n  0x00\n  codecopy\n  0x00\n  return\nstop\n\nsub_0: assembly {\n        /* \"Filiera-Token-Smart-Contract/contracts/Actor/Retailer-smart-contract/inventory/RetailerInventoryStorage.sol\":60:5999  contract RetailerInventoryStorage {... */\n      mstore(0x40, 0x80)\n      callvalue\n      dup1\n      iszero\n      tag_1\n      jumpi\n      0x00\n      dup1\n      revert\n    tag_1:\n      pop\n      jumpi(tag_2, lt(calldatasize, 0x04))\n      shr(0xe0, calldataload(0x00))\n      dup1\n      0x5e523adb\n      gt\n      tag_12\n      jumpi\n      dup1\n      0x5e523adb\n      eq\n      tag_7\n      jumpi\n      dup1\n      0x814ffa2a\n      eq\n      tag_8\n      jumpi\n      dup1\n      0x9bc7c21c\n      eq\n      tag_9\n      jumpi\n      dup1\n      0xafd47d3e\n      eq\n      tag_10\n      jumpi\n      dup1\n      0xe8593823\n      eq\n      tag_11\n      jumpi\n      jump(tag_2)\n    tag_12:\n      dup1\n      0x0b7aa473\n      eq\n      tag_3\n      jumpi\n      dup1\n      0x348b4c5a\n      eq\n      tag_4\n      jumpi\n      dup1\n      0x449e815d\n      eq\n      tag_5\n      jumpi\n      dup1\n      0x5a52c657\n      eq\n      tag_6\n      jumpi\n    tag_2:\n      0x00\n      dup1\n      revert\n        /* \"Filiera-Token-Smart-Contract/contracts/Actor/Retailer-smart-contract/inventory/RetailerInventoryStorage.sol\":1619:1892  function getCheesePiece(address walletRetailer, uint256 _id) external view returns (uint256, uint256, uint256) {... */\n    tag_3:\n      tag_13\n      0x04\n      dup1\n      calldatasize\n      sub\n      dup2\n      add\n      swap1\n      tag_14\n      swap2\n      swap1\n      tag_15\n      jump\t// in\n    tag_14:\n      tag_16\n      jump\t// in\n    tag_13:\n      mload(0x40)\n      tag_17\n      swap4\n      swap3\n      swap2\n      swap1\n      tag_18\n      jump\t// in\n    tag_17:\n      mload(0x40)\n      dup1\n      swap2\n      sub\n      swap1\n      return\n        /* \"Filiera-Token-Smart-Contract/contracts/Actor/Retailer-smart-contract/inventory/RetailerInventoryStorage.sol\":1932:2309  function deleteCheesePiece(address walletRetailer, uint256 _id) external returns (bool value) {... */\n    tag_4:\n      tag_19\n      0x04\n      dup1\n      calldatasize\n      sub\n      dup2\n      add\n      swap1\n      tag_20\n      swap2\n      swap1\n      tag_15\n      jump\t// in\n    tag_20:\n      tag_21\n      jump\t// in\n    tag_19:\n      mload(0x40)\n      tag_22\n      swap2\n      swap1\n      tag_23\n      jump\t// in\n    tag_22:\n      mload(0x40)\n      dup1\n      swap2\n      sub\n      swap1\n      return\n        /* \"Filiera-Token-Smart-Contract/contracts/Actor/Retailer-smart-contract/inventory/RetailerInventoryStorage.sol\":3862:4071  function getPrice(address walletRetailer, uint256 _id) external view returns (uint256) {... */\n    tag_5:\n      tag_24\n      0x04\n      dup1\n      calldatasize\n      sub\n      dup2\n      add\n      swap1\n      tag_25\n      swap2\n      swap1\n      tag_15\n      jump\t// in\n    tag_25:\n      tag_26\n      jump\t// in\n    tag_24:\n      mload(0x40)\n      tag_27\n      swap2\n      swap1\n      tag_28\n      jump\t// in\n    tag_27:\n      mload(0x40)\n      dup1\n      swap2\n      sub\n      swap1\n      return\n        /* \"Filiera-Token-Smart-Contract/contracts/Actor/Retailer-smart-contract/inventory/RetailerInventoryStorage.sol\":688:1611  function addCheesePiece(... */\n    tag_6:\n      tag_29\n      0x04\n      dup1\n      calldatasize\n      sub\n      dup2\n      add\n      swap1\n      tag_30\n      swap2\n      swap1\n      tag_31\n      jump\t// in\n    tag_30:\n      tag_32\n      jump\t// in\n    tag_29:\n      mload(0x40)\n      tag_33\n      swap4\n      swap3\n      swap2\n      swap1\n      tag_18\n      jump\t// in\n    tag_33:\n      mload(0x40)\n      dup1\n      swap2\n      sub\n      swap1\n      return\n        /* \"Filiera-Token-Smart-Contract/contracts/Actor/Retailer-smart-contract/inventory/RetailerInventoryStorage.sol\":2925:3336  function updateWeight(... */\n    tag_7:\n      tag_34\n      0x04\n      dup1\n      calldatasize\n      sub\n      dup2\n      add\n      swap1\n      tag_35\n      swap2\n      swap1\n      tag_36\n      jump\t// in\n    tag_35:\n      tag_37\n      jump\t// in\n    tag_34:\n      stop\n        /* \"Filiera-Token-Smart-Contract/contracts/Actor/Retailer-smart-contract/inventory/RetailerInventoryStorage.sol\":4415:5182  function getCheesePieceListPurchasedByRetailer(address walletRetailer) external view returns (CheesePiece[] memory) {... */\n    tag_8:\n      tag_38\n      0x04\n      dup1\n      calldatasize\n      sub\n      dup2\n      add\n      swap1\n      tag_39\n      swap2\n      swap1\n      tag_40\n      jump\t// in\n    tag_39:\n      tag_41\n      jump\t// in\n    tag_38:\n      mload(0x40)\n      tag_42\n      swap2\n      swap1\n      tag_43\n      jump\t// in\n    tag_42:\n      mload(0x40)\n      dup1\n      swap2\n      sub\n      swap1\n      return\n        /* \"Filiera-Token-Smart-Contract/contracts/Actor/Retailer-smart-contract/inventory/RetailerInventoryStorage.sol\":2371:2669  function isCheesePiecePresent(address walletRetailer, uint256 _id_CheesePiece) external view returns (bool) {... */\n    tag_9:\n      tag_44\n      0x04\n      dup1\n      calldatasize\n      sub\n      dup2\n      add\n      swap1\n      tag_45\n      swap2\n      swap1\n      tag_15\n      jump\t// in\n    tag_45:\n      tag_46\n      jump\t// in\n    tag_44:\n      mload(0x40)\n      tag_47\n      swap2\n      swap1\n      tag_23\n      jump\t// in\n    tag_47:\n      mload(0x40)\n      dup1\n      swap2\n      sub\n      swap1\n      return\n        /* \"Filiera-Token-Smart-Contract/contracts/Actor/Retailer-smart-contract/inventory/RetailerInventoryStorage.sol\":4079:4290  function getWeight(address walletRetailer, uint256 _id) external view returns (uint256) {... */\n    tag_10:\n      tag_48\n      0x04\n      dup1\n      calldatasize\n      sub\n      dup2\n      add\n      swap1\n      tag_49\n      swap2\n      swap1\n      tag_15\n      jump\t// in\n    tag_49:\n      tag_50\n      jump\t// in\n    tag_48:\n      mload(0x40)\n      tag_51\n      swap2\n      swap1\n      tag_28\n      jump\t// in\n    tag_51:\n      mload(0x40)\n      dup1\n      swap2\n      sub\n      swap1\n      return\n        /* \"Filiera-Token-Smart-Contract/contracts/Actor/Retailer-smart-contract/inventory/RetailerInventoryStorage.sol\":5190:5992  function getAllCheesePieceList(address[] memory retailerListAddress) external view returns (CheesePiece[] memory) {... */\n    tag_11:\n      tag_52\n      0x04\n      dup1\n      calldatasize\n      sub\n      dup2\n      add\n      swap1\n      tag_53\n      swap2\n      swap1\n      tag_54\n      jump\t// in\n    tag_53:\n      tag_55\n      jump\t// in\n    tag_52:\n      mload(0x40)\n      tag_56\n      swap2\n      swap1\n      tag_43\n      jump\t// in\n    tag_56:\n      mload(0x40)\n      dup1\n      swap2\n      sub\n      swap1\n      return\n        /* \"Filiera-Token-Smart-Contract/contracts/Actor/Retailer-smart-contract/inventory/RetailerInventoryStorage.sol\":1619:1892  function getCheesePiece(address walletRetailer, uint256 _id) external view returns (uint256, uint256, uint256) {... */\n    tag_16:\n        /* \"Filiera-Token-Smart-Contract/contracts/Actor/Retailer-smart-contract/inventory/RetailerInventoryStorage.sol\":1703:1710  uint256 */\n      0x00\n        /* \"Filiera-Token-Smart-Contract/contracts/Actor/Retailer-smart-contract/inventory/RetailerInventoryStorage.sol\":1712:1719  uint256 */\n      dup1\n        /* \"Filiera-Token-Smart-Contract/contracts/Actor/Retailer-smart-contract/inventory/RetailerInventoryStorage.sol\":1721:1728  uint256 */\n      0x00\n        /* \"Filiera-Token-Smart-Contract/contracts/Actor/Retailer-smart-contract/inventory/RetailerInventoryStorage.sol\":1743:1773  CheesePiece memory cheesePiece */\n      dup1\n        /* \"Filiera-Token-Smart-Contract/contracts/Actor/Retailer-smart-contract/inventory/RetailerInventoryStorage.sol\":1776:1788  cheesePieces */\n      0x01\n        /* \"Filiera-Token-Smart-Contract/contracts/Actor/Retailer-smart-contract/inventory/RetailerInventoryStorage.sol\":1776:1804  cheesePieces[walletRetailer] */\n      0x00\n        /* \"Filiera-Token-Smart-Contract/contracts/Actor/Retailer-smart-contract/inventory/RetailerInventoryStorage.sol\":1789:1803  walletRetailer */\n      dup8\n        /* \"Filiera-Token-Smart-Contract/contracts/Actor/Retailer-smart-contract/inventory/RetailerInventoryStorage.sol\":1776:1804  cheesePieces[walletRetailer] */\n      0xffffffffffffffffffffffffffffffffffffffff\n      and\n      0xffffffffffffffffffffffffffffffffffffffff\n      and\n      dup2\n      mstore\n      0x20\n      add\n      swap1\n      dup2\n      mstore\n      0x20\n      add\n      0x00\n      keccak256\n        /* \"Filiera-Token-Smart-Contract/contracts/Actor/Retailer-smart-contract/inventory/RetailerInventoryStorage.sol\":1776:1809  cheesePieces[walletRetailer][_id] */\n      0x00\n        /* \"Filiera-Token-Smart-Contract/contracts/Actor/Retailer-smart-contract/inventory/RetailerInventoryStorage.sol\":1805:1808  _id */\n      dup7\n        /* \"Filiera-Token-Smart-Contract/contracts/Actor/Retailer-smart-contract/inventory/RetailerInventoryStorage.sol\":1776:1809  cheesePieces[walletRetailer][_id] */\n      dup2\n      mstore\n      0x20\n      add\n      swap1\n      dup2\n      mstore\n      0x20\n      add\n      0x00\n      keccak256\n        /* \"Filiera-Token-Smart-Contract/contracts/Actor/Retailer-smart-contract/inventory/RetailerInventoryStorage.sol\":1743:1809  CheesePiece memory cheesePiece = cheesePieces[walletRetailer][_id] */\n      mload(0x40)\n      dup1\n      0x60\n      add\n      0x40\n      mstore\n      swap1\n      dup2\n      0x00\n      dup3\n      add\n      sload\n      dup2\n      mstore\n      0x20\n      add\n      0x01\n      dup3\n      add\n      sload\n      dup2\n      mstore\n      0x20\n      add\n      0x02\n      dup3\n      add\n      sload\n      dup2\n      mstore\n      pop\n      pop\n      swap1\n      pop\n        /* \"Filiera-Token-Smart-Contract/contracts/Actor/Retailer-smart-contract/inventory/RetailerInventoryStorage.sol\":1830:1841  cheesePiece */\n      dup1\n        /* \"Filiera-Token-Smart-Contract/contracts/Actor/Retailer-smart-contract/inventory/RetailerInventoryStorage.sol\":1830:1844  cheesePiece.id */\n      0x00\n      add\n      mload\n        /* \"Filiera-Token-Smart-Contract/contracts/Actor/Retailer-smart-contract/inventory/RetailerInventoryStorage.sol\":1846:1857  cheesePiece */\n      dup2\n        /* \"Filiera-Token-Smart-Contract/contracts/Actor/Retailer-smart-contract/inventory/RetailerInventoryStorage.sol\":1846:1863  cheesePiece.price */\n      0x20\n      add\n      mload\n        /* \"Filiera-Token-Smart-Contract/contracts/Actor/Retailer-smart-contract/inventory/RetailerInventoryStorage.sol\":1865:1876  cheesePiece */\n      dup3\n        /* \"Filiera-Token-Smart-Contract/contracts/Actor/Retailer-smart-contract/inventory/RetailerInventoryStorage.sol\":1865:1883  cheesePiece.weight */\n      0x40\n      add\n      mload\n        /* \"Filiera-Token-Smart-Contract/contracts/Actor/Retailer-smart-contract/inventory/RetailerInventoryStorage.sol\":1822:1884  return (cheesePiece.id, cheesePiece.price, cheesePiece.weight) */\n      swap4\n      pop\n      swap4\n      pop\n      swap4\n      pop\n      pop\n        /* \"Filiera-Token-Smart-Contract/contracts/Actor/Retailer-smart-contract/inventory/RetailerInventoryStorage.sol\":1619:1892  function getCheesePiece(address walletRetailer, uint256 _id) external view returns (uint256, uint256, uint256) {... */\n      swap3\n      pop\n      swap3\n      pop\n      swap3\n      jump\t// out\n        /* \"Filiera-Token-Smart-Contract/contracts/Actor/Retailer-smart-contract/inventory/RetailerInventoryStorage.sol\":1932:2309  function deleteCheesePiece(address walletRetailer, uint256 _id) external returns (bool value) {... */\n    tag_21:\n        /* \"Filiera-Token-Smart-Contract/contracts/Actor/Retailer-smart-contract/inventory/RetailerInventoryStorage.sol\":2014:2024  bool value */\n      0x00\n        /* \"Filiera-Token-Smart-Contract/contracts/Actor/Retailer-smart-contract/inventory/RetailerInventoryStorage.sol\":2046:2058  cheesePieces */\n      0x01\n        /* \"Filiera-Token-Smart-Contract/contracts/Actor/Retailer-smart-contract/inventory/RetailerInventoryStorage.sol\":2046:2074  cheesePieces[walletRetailer] */\n      0x00\n        /* \"Filiera-Token-Smart-Contract/contracts/Actor/Retailer-smart-contract/inventory/RetailerInventoryStorage.sol\":2059:2073  walletRetailer */\n      dup5\n        /* \"Filiera-Token-Smart-Contract/contracts/Actor/Retailer-smart-contract/inventory/RetailerInventoryStorage.sol\":2046:2074  cheesePieces[walletRetailer] */\n      0xffffffffffffffffffffffffffffffffffffffff\n      and\n      0xffffffffffffffffffffffffffffffffffffffff\n      and\n      dup2\n      mstore\n      0x20\n      add\n      swap1\n      dup2\n      mstore\n      0x20\n      add\n      0x00\n      keccak256\n        /* \"Filiera-Token-Smart-Contract/contracts/Actor/Retailer-smart-contract/inventory/RetailerInventoryStorage.sol\":2046:2079  cheesePieces[walletRetailer][_id] */\n      0x00\n        /* \"Filiera-Token-Smart-Contract/contracts/Actor/Retailer-smart-contract/inventory/RetailerInventoryStorage.sol\":2075:2078  _id */\n      dup4\n        /* \"Filiera-Token-Smart-Contract/contracts/Actor/Retailer-smart-contract/inventory/RetailerInventoryStorage.sol\":2046:2079  cheesePieces[walletRetailer][_id] */\n      dup2\n      mstore\n      0x20\n      add\n      swap1\n      dup2\n      mstore\n      0x20\n      add\n      0x00\n      keccak256\n      0x00\n        /* \"Filiera-Token-Smart-Contract/contracts/Actor/Retailer-smart-contract/inventory/RetailerInventoryStorage.sol\":2039:2079  delete cheesePieces[walletRetailer][_id] */\n      dup1\n      dup3\n      add\n      0x00\n      swap1\n      sstore\n      0x01\n      dup3\n      add\n      0x00\n      swap1\n      sstore\n      0x02\n      dup3\n      add\n      0x00\n      swap1\n      sstore\n      pop\n      pop\n        /* \"Filiera-Token-Smart-Contract/contracts/Actor/Retailer-smart-contract/inventory/RetailerInventoryStorage.sol\":2180:2181  0 */\n      0x00\n        /* \"Filiera-Token-Smart-Contract/contracts/Actor/Retailer-smart-contract/inventory/RetailerInventoryStorage.sol\":2140:2152  cheesePieces */\n      0x01\n        /* \"Filiera-Token-Smart-Contract/contracts/Actor/Retailer-smart-contract/inventory/RetailerInventoryStorage.sol\":2140:2168  cheesePieces[walletRetailer] */\n      0x00\n        /* \"Filiera-Token-Smart-Contract/contracts/Actor/Retailer-smart-contract/inventory/RetailerInventoryStorage.sol\":2153:2167  walletRetailer */\n      dup6\n        /* \"Filiera-Token-Smart-Contract/contracts/Actor/Retailer-smart-contract/inventory/RetailerInventoryStorage.sol\":2140:2168  cheesePieces[walletRetailer] */\n      0xffffffffffffffffffffffffffffffffffffffff\n      and\n      0xffffffffffffffffffffffffffffffffffffffff\n      and\n      dup2\n      mstore\n      0x20\n      add\n      swap1\n      dup2\n      mstore\n      0x20\n      add\n      0x00\n      keccak256\n        /* \"Filiera-Token-Smart-Contract/contracts/Actor/Retailer-smart-contract/inventory/RetailerInventoryStorage.sol\":2140:2173  cheesePieces[walletRetailer][_id] */\n      0x00\n        /* \"Filiera-Token-Smart-Contract/contracts/Actor/Retailer-smart-contract/inventory/RetailerInventoryStorage.sol\":2169:2172  _id */\n      dup5\n        /* \"Filiera-Token-Smart-Contract/contracts/Actor/Retailer-smart-contract/inventory/RetailerInventoryStorage.sol\":2140:2173  cheesePieces[walletRetailer][_id] */\n      dup2\n      mstore\n      0x20\n      add\n      swap1\n      dup2\n      mstore\n      0x20\n      add\n      0x00\n      keccak256\n        /* \"Filiera-Token-Smart-Contract/contracts/Actor/Retailer-smart-contract/inventory/RetailerInventoryStorage.sol\":2140:2176  cheesePieces[walletRetailer][_id].id */\n      0x00\n      add\n      sload\n        /* \"Filiera-Token-Smart-Contract/contracts/Actor/Retailer-smart-contract/inventory/RetailerInventoryStorage.sol\":2140:2181  cheesePieces[walletRetailer][_id].id == 0 */\n      eq\n        /* \"Filiera-Token-Smart-Contract/contracts/Actor/Retailer-smart-contract/inventory/RetailerInventoryStorage.sol\":2140:2217  cheesePieces[walletRetailer][_id].id == 0 && deleteCheesePieceIdFromList(_id) */\n      dup1\n      iszero\n      tag_59\n      jumpi\n      pop\n        /* \"Filiera-Token-Smart-Contract/contracts/Actor/Retailer-smart-contract/inventory/RetailerInventoryStorage.sol\":2185:2217  deleteCheesePieceIdFromList(_id) */\n      tag_60\n        /* \"Filiera-Token-Smart-Contract/contracts/Actor/Retailer-smart-contract/inventory/RetailerInventoryStorage.sol\":2213:2216  _id */\n      dup3\n        /* \"Filiera-Token-Smart-Contract/contracts/Actor/Retailer-smart-contract/inventory/RetailerInventoryStorage.sol\":2185:2212  deleteCheesePieceIdFromList */\n      tag_61\n        /* \"Filiera-Token-Smart-Contract/contracts/Actor/Retailer-smart-contract/inventory/RetailerInventoryStorage.sol\":2185:2217  deleteCheesePieceIdFromList(_id) */\n      jump\t// in\n    tag_60:\n        /* \"Filiera-Token-Smart-Contract/contracts/Actor/Retailer-smart-contract/inventory/RetailerInventoryStorage.sol\":2140:2217  cheesePieces[walletRetailer][_id].id == 0 && deleteCheesePieceIdFromList(_id) */\n    tag_59:\n        /* \"Filiera-Token-Smart-Contract/contracts/Actor/Retailer-smart-contract/inventory/RetailerInventoryStorage.sol\":2136:2302  if (cheesePieces[walletRetailer][_id].id == 0 && deleteCheesePieceIdFromList(_id)) {... */\n      iszero\n      tag_62\n      jumpi\n        /* \"Filiera-Token-Smart-Contract/contracts/Actor/Retailer-smart-contract/inventory/RetailerInventoryStorage.sol\":2241:2245  true */\n      0x01\n        /* \"Filiera-Token-Smart-Contract/contracts/Actor/Retailer-smart-contract/inventory/RetailerInventoryStorage.sol\":2234:2245  return true */\n      swap1\n      pop\n      jump(tag_58)\n        /* \"Filiera-Token-Smart-Contract/contracts/Actor/Retailer-smart-contract/inventory/RetailerInventoryStorage.sol\":2136:2302  if (cheesePieces[walletRetailer][_id].id == 0 && deleteCheesePieceIdFromList(_id)) {... */\n    tag_62:\n        /* \"Filiera-Token-Smart-Contract/contracts/Actor/Retailer-smart-contract/inventory/RetailerInventoryStorage.sol\":2285:2290  false */\n      0x00\n        /* \"Filiera-Token-Smart-Contract/contracts/Actor/Retailer-smart-contract/inventory/RetailerInventoryStorage.sol\":2278:2290  return false */\n      swap1\n      pop\n        /* \"Filiera-Token-Smart-Contract/contracts/Actor/Retailer-smart-contract/inventory/RetailerInventoryStorage.sol\":1932:2309  function deleteCheesePiece(address walletRetailer, uint256 _id) external returns (bool value) {... */\n    tag_58:\n      swap3\n      swap2\n      pop\n      pop\n      jump\t// out\n        /* \"Filiera-Token-Smart-Contract/contracts/Actor/Retailer-smart-contract/inventory/RetailerInventoryStorage.sol\":3862:4071  function getPrice(address walletRetailer, uint256 _id) external view returns (uint256) {... */\n    tag_26:\n        /* \"Filiera-Token-Smart-Contract/contracts/Actor/Retailer-smart-contract/inventory/RetailerInventoryStorage.sol\":3940:3947  uint256 */\n      0x00\n        /* \"Filiera-Token-Smart-Contract/contracts/Actor/Retailer-smart-contract/inventory/RetailerInventoryStorage.sol\":3962:3992  CheesePiece memory cheesePiece */\n      dup1\n        /* \"Filiera-Token-Smart-Contract/contracts/Actor/Retailer-smart-contract/inventory/RetailerInventoryStorage.sol\":3995:4007  cheesePieces */\n      0x01\n        /* \"Filiera-Token-Smart-Contract/contracts/Actor/Retailer-smart-contract/inventory/RetailerInventoryStorage.sol\":3995:4023  cheesePieces[walletRetailer] */\n      0x00\n        /* \"Filiera-Token-Smart-Contract/contracts/Actor/Retailer-smart-contract/inventory/RetailerInventoryStorage.sol\":4008:4022  walletRetailer */\n      dup6\n        /* \"Filiera-Token-Smart-Contract/contracts/Actor/Retailer-smart-contract/inventory/RetailerInventoryStorage.sol\":3995:4023  cheesePieces[walletRetailer] */\n      0xffffffffffffffffffffffffffffffffffffffff\n      and\n      0xffffffffffffffffffffffffffffffffffffffff\n      and\n      dup2\n      mstore\n      0x20\n      add\n      swap1\n      dup2\n      mstore\n      0x20\n      add\n      0x00\n      keccak256\n        /* \"Filiera-Token-Smart-Contract/contracts/Actor/Retailer-smart-contract/inventory/RetailerInventoryStorage.sol\":3995:4028  cheesePieces[walletRetailer][_id] */\n      0x00\n        /* \"Filiera-Token-Smart-Contract/contracts/Actor/Retailer-smart-contract/inventory/RetailerInventoryStorage.sol\":4024:4027  _id */\n      dup5\n        /* \"Filiera-Token-Smart-Contract/contracts/Actor/Retailer-smart-contract/inventory/RetailerInventoryStorage.sol\":3995:4028  cheesePieces[walletRetailer][_id] */\n      dup2\n      mstore\n      0x20\n      add\n      swap1\n      dup2\n      mstore\n      0x20\n      add\n      0x00\n      keccak256\n        /* \"Filiera-Token-Smart-Contract/contracts/Actor/Retailer-smart-contract/inventory/RetailerInventoryStorage.sol\":3962:4028  CheesePiece memory cheesePiece = cheesePieces[walletRetailer][_id] */\n      mload(0x40)\n      dup1\n      0x60\n      add\n      0x40\n      mstore\n      swap1\n      dup2\n      0x00\n      dup3\n      add\n      sload\n      dup2\n      mstore\n      0x20\n      add\n      0x01\n      dup3\n      add\n      sload\n      dup2\n      mstore\n      0x20\n      add\n      0x02\n      dup3\n      add\n      sload\n      dup2\n      mstore\n      pop\n      pop\n      swap1\n      pop\n        /* \"Filiera-Token-Smart-Contract/contracts/Actor/Retailer-smart-contract/inventory/RetailerInventoryStorage.sol\":4046:4057  cheesePiece */\n      dup1\n        /* \"Filiera-Token-Smart-Contract/contracts/Actor/Retailer-smart-contract/inventory/RetailerInventoryStorage.sol\":4046:4063  cheesePiece.price */\n      0x20\n      add\n      mload\n        /* \"Filiera-Token-Smart-Contract/contracts/Actor/Retailer-smart-contract/inventory/RetailerInventoryStorage.sol\":4039:4063  return cheesePiece.price */\n      swap2\n      pop\n      pop\n        /* \"Filiera-Token-Smart-Contract/contracts/Actor/Retailer-smart-contract/inventory/RetailerInventoryStorage.sol\":3862:4071  function getPrice(address walletRetailer, uint256 _id) external view returns (uint256) {... */\n      swap3\n      swap2\n      pop\n      pop\n      jump\t// out\n        /* \"Filiera-Token-Smart-Contract/contracts/Actor/Retailer-smart-contract/inventory/RetailerInventoryStorage.sol\":688:1611  function addCheesePiece(... */\n    tag_32:\n        /* \"Filiera-Token-Smart-Contract/contracts/Actor/Retailer-smart-contract/inventory/RetailerInventoryStorage.sol\":855:862  uint256 */\n      0x00\n        /* \"Filiera-Token-Smart-Contract/contracts/Actor/Retailer-smart-contract/inventory/RetailerInventoryStorage.sol\":864:871  uint256 */\n      dup1\n        /* \"Filiera-Token-Smart-Contract/contracts/Actor/Retailer-smart-contract/inventory/RetailerInventoryStorage.sol\":873:880  uint256 */\n      0x00\n        /* \"Filiera-Token-Smart-Contract/contracts/Actor/Retailer-smart-contract/inventory/RetailerInventoryStorage.sol\":895:906  uint256 _id */\n      dup1\n        /* \"Filiera-Token-Smart-Contract/contracts/Actor/Retailer-smart-contract/inventory/RetailerInventoryStorage.sol\":958:973  _id_CheeseBlock */\n      dup7\n        /* \"Filiera-Token-Smart-Contract/contracts/Actor/Retailer-smart-contract/inventory/RetailerInventoryStorage.sol\":988:994  _price */\n      dup7\n        /* \"Filiera-Token-Smart-Contract/contracts/Actor/Retailer-smart-contract/inventory/RetailerInventoryStorage.sol\":1009:1016  _weight */\n      dup7\n        /* \"Filiera-Token-Smart-Contract/contracts/Actor/Retailer-smart-contract/inventory/RetailerInventoryStorage.sol\":1031:1045  walletRetailer */\n      dup11\n        /* \"Filiera-Token-Smart-Contract/contracts/Actor/Retailer-smart-contract/inventory/RetailerInventoryStorage.sol\":1060:1075  block.timestamp */\n      timestamp\n        /* \"Filiera-Token-Smart-Contract/contracts/Actor/Retailer-smart-contract/inventory/RetailerInventoryStorage.sol\":927:1086  abi.encodePacked(... */\n      add(0x20, mload(0x40))\n      tag_66\n      swap6\n      swap5\n      swap4\n      swap3\n      swap2\n      swap1\n      tag_67\n      jump\t// in\n    tag_66:\n      mload(0x40)\n      0x20\n      dup2\n      dup4\n      sub\n      sub\n      dup2\n      mstore\n      swap1\n      0x40\n      mstore\n        /* \"Filiera-Token-Smart-Contract/contracts/Actor/Retailer-smart-contract/inventory/RetailerInventoryStorage.sol\":917:1087  keccak256(abi.encodePacked(... */\n      dup1\n      mload\n      swap1\n      0x20\n      add\n      keccak256\n        /* \"Filiera-Token-Smart-Contract/contracts/Actor/Retailer-smart-contract/inventory/RetailerInventoryStorage.sol\":909:1088  uint256(keccak256(abi.encodePacked(... */\n      0x00\n      shr\n        /* \"Filiera-Token-Smart-Contract/contracts/Actor/Retailer-smart-contract/inventory/RetailerInventoryStorage.sol\":895:1088  uint256 _id = uint256(keccak256(abi.encodePacked(... */\n      swap1\n      pop\n        /* \"Filiera-Token-Smart-Contract/contracts/Actor/Retailer-smart-contract/inventory/RetailerInventoryStorage.sol\":1146:1176  CheesePiece memory cheesePiece */\n      0x00\n        /* \"Filiera-Token-Smart-Contract/contracts/Actor/Retailer-smart-contract/inventory/RetailerInventoryStorage.sol\":1179:1283  CheesePiece({... */\n      mload(0x40)\n      dup1\n      0x60\n      add\n      0x40\n      mstore\n      dup1\n        /* \"Filiera-Token-Smart-Contract/contracts/Actor/Retailer-smart-contract/inventory/RetailerInventoryStorage.sol\":1210:1213  _id */\n      dup4\n        /* \"Filiera-Token-Smart-Contract/contracts/Actor/Retailer-smart-contract/inventory/RetailerInventoryStorage.sol\":1179:1283  CheesePiece({... */\n      dup2\n      mstore\n      0x20\n      add\n        /* \"Filiera-Token-Smart-Contract/contracts/Actor/Retailer-smart-contract/inventory/RetailerInventoryStorage.sol\":1235:1241  _price */\n      dup9\n        /* \"Filiera-Token-Smart-Contract/contracts/Actor/Retailer-smart-contract/inventory/RetailerInventoryStorage.sol\":1179:1283  CheesePiece({... */\n      dup2\n      mstore\n      0x20\n      add\n        /* \"Filiera-Token-Smart-Contract/contracts/Actor/Retailer-smart-contract/inventory/RetailerInventoryStorage.sol\":1264:1271  _weight */\n      dup8\n        /* \"Filiera-Token-Smart-Contract/contracts/Actor/Retailer-smart-contract/inventory/RetailerInventoryStorage.sol\":1179:1283  CheesePiece({... */\n      dup2\n      mstore\n      pop\n        /* \"Filiera-Token-Smart-Contract/contracts/Actor/Retailer-smart-contract/inventory/RetailerInventoryStorage.sol\":1146:1283  CheesePiece memory cheesePiece = CheesePiece({... */\n      swap1\n      pop\n        /* \"Filiera-Token-Smart-Contract/contracts/Actor/Retailer-smart-contract/inventory/RetailerInventoryStorage.sol\":1357:1383  cheesePieceIdPurchasedList */\n      0x02\n        /* \"Filiera-Token-Smart-Contract/contracts/Actor/Retailer-smart-contract/inventory/RetailerInventoryStorage.sol\":1389:1392  _id */\n      dup3\n        /* \"Filiera-Token-Smart-Contract/contracts/Actor/Retailer-smart-contract/inventory/RetailerInventoryStorage.sol\":1357:1393  cheesePieceIdPurchasedList.push(_id) */\n      swap1\n      dup1\n      0x01\n      dup2\n      sload\n      add\n      dup1\n      dup3\n      sstore\n      dup1\n      swap2\n      pop\n      pop\n      0x01\n      swap1\n      sub\n      swap1\n      0x00\n      mstore\n      keccak256(0x00, 0x20)\n      add\n      0x00\n      swap1\n      swap2\n      swap1\n      swap2\n      swap1\n      swap2\n      pop\n      sstore\n        /* \"Filiera-Token-Smart-Contract/contracts/Actor/Retailer-smart-contract/inventory/RetailerInventoryStorage.sol\":1517:1528  cheesePiece */\n      dup1\n        /* \"Filiera-Token-Smart-Contract/contracts/Actor/Retailer-smart-contract/inventory/RetailerInventoryStorage.sol\":1481:1493  cheesePieces */\n      0x01\n        /* \"Filiera-Token-Smart-Contract/contracts/Actor/Retailer-smart-contract/inventory/RetailerInventoryStorage.sol\":1481:1509  cheesePieces[walletRetailer] */\n      0x00\n        /* \"Filiera-Token-Smart-Contract/contracts/Actor/Retailer-smart-contract/inventory/RetailerInventoryStorage.sol\":1494:1508  walletRetailer */\n      dup12\n        /* \"Filiera-Token-Smart-Contract/contracts/Actor/Retailer-smart-contract/inventory/RetailerInventoryStorage.sol\":1481:1509  cheesePieces[walletRetailer] */\n      0xffffffffffffffffffffffffffffffffffffffff\n      and\n      0xffffffffffffffffffffffffffffffffffffffff\n      and\n      dup2\n      mstore\n      0x20\n      add\n      swap1\n      dup2\n      mstore\n      0x20\n      add\n      0x00\n      keccak256\n        /* \"Filiera-Token-Smart-Contract/contracts/Actor/Retailer-smart-contract/inventory/RetailerInventoryStorage.sol\":1481:1514  cheesePieces[walletRetailer][_id] */\n      0x00\n        /* \"Filiera-Token-Smart-Contract/contracts/Actor/Retailer-smart-contract/inventory/RetailerInventoryStorage.sol\":1510:1513  _id */\n      dup5\n        /* \"Filiera-Token-Smart-Contract/contracts/Actor/Retailer-smart-contract/inventory/RetailerInventoryStorage.sol\":1481:1514  cheesePieces[walletRetailer][_id] */\n      dup2\n      mstore\n      0x20\n      add\n      swap1\n      dup2\n      mstore\n      0x20\n      add\n      0x00\n      keccak256\n        /* \"Filiera-Token-Smart-Contract/contracts/Actor/Retailer-smart-contract/inventory/RetailerInventoryStorage.sol\":1481:1528  cheesePieces[walletRetailer][_id] = cheesePiece */\n      0x00\n      dup3\n      add\n      mload\n      dup2\n      0x00\n      add\n      sstore\n      0x20\n      dup3\n      add\n      mload\n      dup2\n      0x01\n      add\n      sstore\n      0x40\n      dup3\n      add\n      mload\n      dup2\n      0x02\n      add\n      sstore\n      swap1\n      pop\n      pop\n        /* \"Filiera-Token-Smart-Contract/contracts/Actor/Retailer-smart-contract/inventory/RetailerInventoryStorage.sol\":1549:1560  cheesePiece */\n      dup1\n        /* \"Filiera-Token-Smart-Contract/contracts/Actor/Retailer-smart-contract/inventory/RetailerInventoryStorage.sol\":1549:1563  cheesePiece.id */\n      0x00\n      add\n      mload\n        /* \"Filiera-Token-Smart-Contract/contracts/Actor/Retailer-smart-contract/inventory/RetailerInventoryStorage.sol\":1565:1576  cheesePiece */\n      dup2\n        /* \"Filiera-Token-Smart-Contract/contracts/Actor/Retailer-smart-contract/inventory/RetailerInventoryStorage.sol\":1565:1582  cheesePiece.price */\n      0x20\n      add\n      mload\n        /* \"Filiera-Token-Smart-Contract/contracts/Actor/Retailer-smart-contract/inventory/RetailerInventoryStorage.sol\":1584:1595  cheesePiece */\n      dup3\n        /* \"Filiera-Token-Smart-Contract/contracts/Actor/Retailer-smart-contract/inventory/RetailerInventoryStorage.sol\":1584:1602  cheesePiece.weight */\n      0x40\n      add\n      mload\n        /* \"Filiera-Token-Smart-Contract/contracts/Actor/Retailer-smart-contract/inventory/RetailerInventoryStorage.sol\":1541:1603  return (cheesePiece.id, cheesePiece.price, cheesePiece.weight) */\n      swap5\n      pop\n      swap5\n      pop\n      swap5\n      pop\n      pop\n      pop\n        /* \"Filiera-Token-Smart-Contract/contracts/Actor/Retailer-smart-contract/inventory/RetailerInventoryStorage.sol\":688:1611  function addCheesePiece(... */\n      swap5\n      pop\n      swap5\n      pop\n      swap5\n      swap2\n      pop\n      pop\n      jump\t// out\n        /* \"Filiera-Token-Smart-Contract/contracts/Actor/Retailer-smart-contract/inventory/RetailerInventoryStorage.sol\":2925:3336  function updateWeight(... */\n    tag_37:\n        /* \"Filiera-Token-Smart-Contract/contracts/Actor/Retailer-smart-contract/inventory/RetailerInventoryStorage.sol\":3139:3151  cheesePieces */\n      0x01\n        /* \"Filiera-Token-Smart-Contract/contracts/Actor/Retailer-smart-contract/inventory/RetailerInventoryStorage.sol\":3139:3167  cheesePieces[walletRetailer] */\n      0x00\n        /* \"Filiera-Token-Smart-Contract/contracts/Actor/Retailer-smart-contract/inventory/RetailerInventoryStorage.sol\":3152:3166  walletRetailer */\n      dup5\n        /* \"Filiera-Token-Smart-Contract/contracts/Actor/Retailer-smart-contract/inventory/RetailerInventoryStorage.sol\":3139:3167  cheesePieces[walletRetailer] */\n      0xffffffffffffffffffffffffffffffffffffffff\n      and\n      0xffffffffffffffffffffffffffffffffffffffff\n      and\n      dup2\n      mstore\n      0x20\n      add\n      swap1\n      dup2\n      mstore\n      0x20\n      add\n      0x00\n      keccak256\n        /* \"Filiera-Token-Smart-Contract/contracts/Actor/Retailer-smart-contract/inventory/RetailerInventoryStorage.sol\":3139:3179  cheesePieces[walletRetailer][_id_Cheese] */\n      0x00\n        /* \"Filiera-Token-Smart-Contract/contracts/Actor/Retailer-smart-contract/inventory/RetailerInventoryStorage.sol\":3168:3178  _id_Cheese */\n      dup4\n        /* \"Filiera-Token-Smart-Contract/contracts/Actor/Retailer-smart-contract/inventory/RetailerInventoryStorage.sol\":3139:3179  cheesePieces[walletRetailer][_id_Cheese] */\n      dup2\n      mstore\n      0x20\n      add\n      swap1\n      dup2\n      mstore\n      0x20\n      add\n      0x00\n      keccak256\n        /* \"Filiera-Token-Smart-Contract/contracts/Actor/Retailer-smart-contract/inventory/RetailerInventoryStorage.sol\":3139:3186  cheesePieces[walletRetailer][_id_Cheese].weight */\n      0x02\n      add\n      sload\n        /* \"Filiera-Token-Smart-Contract/contracts/Actor/Retailer-smart-contract/inventory/RetailerInventoryStorage.sol\":3125:3137  _newQuantity */\n      dup2\n        /* \"Filiera-Token-Smart-Contract/contracts/Actor/Retailer-smart-contract/inventory/RetailerInventoryStorage.sol\":3125:3186  _newQuantity<=cheesePieces[walletRetailer][_id_Cheese].weight */\n      gt\n      iszero\n        /* \"Filiera-Token-Smart-Contract/contracts/Actor/Retailer-smart-contract/inventory/RetailerInventoryStorage.sol\":3117:3253  require(_newQuantity<=cheesePieces[walletRetailer][_id_Cheese].weight,\"Controllo della Quantita' da utilizzare non andata a buon fine!\") */\n      tag_70\n      jumpi\n      mload(0x40)\n      0x08c379a000000000000000000000000000000000000000000000000000000000\n      dup2\n      mstore\n      0x04\n      add\n      tag_71\n      swap1\n      tag_72\n      jump\t// in\n    tag_71:\n      mload(0x40)\n      dup1\n      swap2\n      sub\n      swap1\n      revert\n    tag_70:\n        /* \"Filiera-Token-Smart-Contract/contracts/Actor/Retailer-smart-contract/inventory/RetailerInventoryStorage.sol\":3316:3328  _newQuantity */\n      dup1\n        /* \"Filiera-Token-Smart-Contract/contracts/Actor/Retailer-smart-contract/inventory/RetailerInventoryStorage.sol\":3266:3278  cheesePieces */\n      0x01\n        /* \"Filiera-Token-Smart-Contract/contracts/Actor/Retailer-smart-contract/inventory/RetailerInventoryStorage.sol\":3266:3294  cheesePieces[walletRetailer] */\n      0x00\n        /* \"Filiera-Token-Smart-Contract/contracts/Actor/Retailer-smart-contract/inventory/RetailerInventoryStorage.sol\":3279:3293  walletRetailer */\n      dup6\n        /* \"Filiera-Token-Smart-Contract/contracts/Actor/Retailer-smart-contract/inventory/RetailerInventoryStorage.sol\":3266:3294  cheesePieces[walletRetailer] */\n      0xffffffffffffffffffffffffffffffffffffffff\n      and\n      0xffffffffffffffffffffffffffffffffffffffff\n      and\n      dup2\n      mstore\n      0x20\n      add\n      swap1\n      dup2\n      mstore\n      0x20\n      add\n      0x00\n      keccak256\n        /* \"Filiera-Token-Smart-Contract/contracts/Actor/Retailer-smart-contract/inventory/RetailerInventoryStorage.sol\":3266:3306  cheesePieces[walletRetailer][_id_Cheese] */\n      0x00\n        /* \"Filiera-Token-Smart-Contract/contracts/Actor/Retailer-smart-contract/inventory/RetailerInventoryStorage.sol\":3295:3305  _id_Cheese */\n      dup5\n        /* \"Filiera-Token-Smart-Contract/contracts/Actor/Retailer-smart-contract/inventory/RetailerInventoryStorage.sol\":3266:3306  cheesePieces[walletRetailer][_id_Cheese] */\n      dup2\n      mstore\n      0x20\n      add\n      swap1\n      dup2\n      mstore\n      0x20\n      add\n      0x00\n      keccak256\n        /* \"Filiera-Token-Smart-Contract/contracts/Actor/Retailer-smart-contract/inventory/RetailerInventoryStorage.sol\":3266:3313  cheesePieces[walletRetailer][_id_Cheese].weight */\n      0x02\n      add\n        /* \"Filiera-Token-Smart-Contract/contracts/Actor/Retailer-smart-contract/inventory/RetailerInventoryStorage.sol\":3266:3328  cheesePieces[walletRetailer][_id_Cheese].weight = _newQuantity */\n      dup2\n      swap1\n      sstore\n      pop\n        /* \"Filiera-Token-Smart-Contract/contracts/Actor/Retailer-smart-contract/inventory/RetailerInventoryStorage.sol\":2925:3336  function updateWeight(... */\n      pop\n      pop\n      pop\n      jump\t// out\n        /* \"Filiera-Token-Smart-Contract/contracts/Actor/Retailer-smart-contract/inventory/RetailerInventoryStorage.sol\":4415:5182  function getCheesePieceListPurchasedByRetailer(address walletRetailer) external view returns (CheesePiece[] memory) {... */\n    tag_41:\n        /* \"Filiera-Token-Smart-Contract/contracts/Actor/Retailer-smart-contract/inventory/RetailerInventoryStorage.sol\":4509:4529  CheesePiece[] memory */\n      0x60\n        /* \"Filiera-Token-Smart-Contract/contracts/Actor/Retailer-smart-contract/inventory/RetailerInventoryStorage.sol\":4542:4590  CheesePiece [ ] memory  cheesePiecePurchasedList */\n      0x00\n        /* \"Filiera-Token-Smart-Contract/contracts/Actor/Retailer-smart-contract/inventory/RetailerInventoryStorage.sol\":4612:4638  cheesePieceIdPurchasedList */\n      0x02\n        /* \"Filiera-Token-Smart-Contract/contracts/Actor/Retailer-smart-contract/inventory/RetailerInventoryStorage.sol\":4612:4645  cheesePieceIdPurchasedList.length */\n      dup1\n      sload\n      swap1\n      pop\n        /* \"Filiera-Token-Smart-Contract/contracts/Actor/Retailer-smart-contract/inventory/RetailerInventoryStorage.sol\":4594:4646  new CheesePiece[](cheesePieceIdPurchasedList.length) */\n      0xffffffffffffffff\n      dup2\n      gt\n      iszero\n      tag_74\n      jumpi\n      tag_75\n      tag_76\n      jump\t// in\n    tag_75:\n    tag_74:\n      mload(0x40)\n      swap1\n      dup1\n      dup3\n      mstore\n      dup1\n      0x20\n      mul\n      0x20\n      add\n      dup3\n      add\n      0x40\n      mstore\n      dup1\n      iszero\n      tag_77\n      jumpi\n      dup2\n      0x20\n      add\n    tag_78:\n      tag_79\n      tag_80\n      jump\t// in\n    tag_79:\n      dup2\n      mstore\n      0x20\n      add\n      swap1\n      0x01\n      swap1\n      sub\n      swap1\n      dup2\n      tag_78\n      jumpi\n      swap1\n      pop\n    tag_77:\n      pop\n        /* \"Filiera-Token-Smart-Contract/contracts/Actor/Retailer-smart-contract/inventory/RetailerInventoryStorage.sol\":4542:4646  CheesePiece [ ] memory  cheesePiecePurchasedList  = new CheesePiece[](cheesePieceIdPurchasedList.length) */\n      swap1\n      pop\n        /* \"Filiera-Token-Smart-Contract/contracts/Actor/Retailer-smart-contract/inventory/RetailerInventoryStorage.sol\":4672:4681  uint256 i */\n      0x00\n        /* \"Filiera-Token-Smart-Contract/contracts/Actor/Retailer-smart-contract/inventory/RetailerInventoryStorage.sol\":4667:5131  for (uint256 i=0; i<cheesePieceIdPurchasedList.length; i++){... */\n    tag_81:\n        /* \"Filiera-Token-Smart-Contract/contracts/Actor/Retailer-smart-contract/inventory/RetailerInventoryStorage.sol\":4687:4713  cheesePieceIdPurchasedList */\n      0x02\n        /* \"Filiera-Token-Smart-Contract/contracts/Actor/Retailer-smart-contract/inventory/RetailerInventoryStorage.sol\":4687:4720  cheesePieceIdPurchasedList.length */\n      dup1\n      sload\n      swap1\n      pop\n        /* \"Filiera-Token-Smart-Contract/contracts/Actor/Retailer-smart-contract/inventory/RetailerInventoryStorage.sol\":4685:4686  i */\n      dup2\n        /* \"Filiera-Token-Smart-Contract/contracts/Actor/Retailer-smart-contract/inventory/RetailerInventoryStorage.sol\":4685:4720  i<cheesePieceIdPurchasedList.length */\n      lt\n        /* \"Filiera-Token-Smart-Contract/contracts/Actor/Retailer-smart-contract/inventory/RetailerInventoryStorage.sol\":4667:5131  for (uint256 i=0; i<cheesePieceIdPurchasedList.length; i++){... */\n      iszero\n      tag_82\n      jumpi\n        /* \"Filiera-Token-Smart-Contract/contracts/Actor/Retailer-smart-contract/inventory/RetailerInventoryStorage.sol\":4747:4758  uint256 _id */\n      0x00\n        /* \"Filiera-Token-Smart-Contract/contracts/Actor/Retailer-smart-contract/inventory/RetailerInventoryStorage.sol\":4761:4787  cheesePieceIdPurchasedList */\n      0x02\n        /* \"Filiera-Token-Smart-Contract/contracts/Actor/Retailer-smart-contract/inventory/RetailerInventoryStorage.sol\":4788:4789  i */\n      dup3\n        /* \"Filiera-Token-Smart-Contract/contracts/Actor/Retailer-smart-contract/inventory/RetailerInventoryStorage.sol\":4761:4790  cheesePieceIdPurchasedList[i] */\n      dup2\n      sload\n      dup2\n      lt\n      tag_84\n      jumpi\n      tag_85\n      tag_86\n      jump\t// in\n    tag_85:\n    tag_84:\n      swap1\n      0x00\n      mstore\n      keccak256(0x00, 0x20)\n      add\n      sload\n        /* \"Filiera-Token-Smart-Contract/contracts/Actor/Retailer-smart-contract/inventory/RetailerInventoryStorage.sol\":4747:4790  uint256 _id = cheesePieceIdPurchasedList[i] */\n      swap1\n      pop\n        /* \"Filiera-Token-Smart-Contract/contracts/Actor/Retailer-smart-contract/inventory/RetailerInventoryStorage.sol\":4852:4853  0 */\n      0x00\n        /* \"Filiera-Token-Smart-Contract/contracts/Actor/Retailer-smart-contract/inventory/RetailerInventoryStorage.sol\":4812:4824  cheesePieces */\n      0x01\n        /* \"Filiera-Token-Smart-Contract/contracts/Actor/Retailer-smart-contract/inventory/RetailerInventoryStorage.sol\":4812:4840  cheesePieces[walletRetailer] */\n      0x00\n        /* \"Filiera-Token-Smart-Contract/contracts/Actor/Retailer-smart-contract/inventory/RetailerInventoryStorage.sol\":4825:4839  walletRetailer */\n      dup8\n        /* \"Filiera-Token-Smart-Contract/contracts/Actor/Retailer-smart-contract/inventory/RetailerInventoryStorage.sol\":4812:4840  cheesePieces[walletRetailer] */\n      0xffffffffffffffffffffffffffffffffffffffff\n      and\n      0xffffffffffffffffffffffffffffffffffffffff\n      and\n      dup2\n      mstore\n      0x20\n      add\n      swap1\n      dup2\n      mstore\n      0x20\n      add\n      0x00\n      keccak256\n        /* \"Filiera-Token-Smart-Contract/contracts/Actor/Retailer-smart-contract/inventory/RetailerInventoryStorage.sol\":4812:4845  cheesePieces[walletRetailer][_id] */\n      0x00\n        /* \"Filiera-Token-Smart-Contract/contracts/Actor/Retailer-smart-contract/inventory/RetailerInventoryStorage.sol\":4841:4844  _id */\n      dup4\n        /* \"Filiera-Token-Smart-Contract/contracts/Actor/Retailer-smart-contract/inventory/RetailerInventoryStorage.sol\":4812:4845  cheesePieces[walletRetailer][_id] */\n      dup2\n      mstore\n      0x20\n      add\n      swap1\n      dup2\n      mstore\n      0x20\n      add\n      0x00\n      keccak256\n        /* \"Filiera-Token-Smart-Contract/contracts/Actor/Retailer-smart-contract/inventory/RetailerInventoryStorage.sol\":4812:4848  cheesePieces[walletRetailer][_id].id */\n      0x00\n      add\n      sload\n        /* \"Filiera-Token-Smart-Contract/contracts/Actor/Retailer-smart-contract/inventory/RetailerInventoryStorage.sol\":4812:4853  cheesePieces[walletRetailer][_id].id != 0 */\n      eq\n        /* \"Filiera-Token-Smart-Contract/contracts/Actor/Retailer-smart-contract/inventory/RetailerInventoryStorage.sol\":4809:5119  if(cheesePieces[walletRetailer][_id].id != 0){... */\n      tag_88\n      jumpi\n        /* \"Filiera-Token-Smart-Contract/contracts/Actor/Retailer-smart-contract/inventory/RetailerInventoryStorage.sol\":4946:4988  CheesePiece storage new_milkbatchPurchased */\n      0x00\n        /* \"Filiera-Token-Smart-Contract/contracts/Actor/Retailer-smart-contract/inventory/RetailerInventoryStorage.sol\":4991:5003  cheesePieces */\n      0x01\n        /* \"Filiera-Token-Smart-Contract/contracts/Actor/Retailer-smart-contract/inventory/RetailerInventoryStorage.sol\":4991:5019  cheesePieces[walletRetailer] */\n      0x00\n        /* \"Filiera-Token-Smart-Contract/contracts/Actor/Retailer-smart-contract/inventory/RetailerInventoryStorage.sol\":5004:5018  walletRetailer */\n      dup8\n        /* \"Filiera-Token-Smart-Contract/contracts/Actor/Retailer-smart-contract/inventory/RetailerInventoryStorage.sol\":4991:5019  cheesePieces[walletRetailer] */\n      0xffffffffffffffffffffffffffffffffffffffff\n      and\n      0xffffffffffffffffffffffffffffffffffffffff\n      and\n      dup2\n      mstore\n      0x20\n      add\n      swap1\n      dup2\n      mstore\n      0x20\n      add\n      0x00\n      keccak256\n        /* \"Filiera-Token-Smart-Contract/contracts/Actor/Retailer-smart-contract/inventory/RetailerInventoryStorage.sol\":4991:5024  cheesePieces[walletRetailer][_id] */\n      0x00\n        /* \"Filiera-Token-Smart-Contract/contracts/Actor/Retailer-smart-contract/inventory/RetailerInventoryStorage.sol\":5020:5023  _id */\n      dup4\n        /* \"Filiera-Token-Smart-Contract/contracts/Actor/Retailer-smart-contract/inventory/RetailerInventoryStorage.sol\":4991:5024  cheesePieces[walletRetailer][_id] */\n      dup2\n      mstore\n      0x20\n      add\n      swap1\n      dup2\n      mstore\n      0x20\n      add\n      0x00\n      keccak256\n        /* \"Filiera-Token-Smart-Contract/contracts/Actor/Retailer-smart-contract/inventory/RetailerInventoryStorage.sol\":4946:5024  CheesePiece storage new_milkbatchPurchased = cheesePieces[walletRetailer][_id] */\n      swap1\n      pop\n        /* \"Filiera-Token-Smart-Contract/contracts/Actor/Retailer-smart-contract/inventory/RetailerInventoryStorage.sol\":5077:5099  new_milkbatchPurchased */\n      dup1\n        /* \"Filiera-Token-Smart-Contract/contracts/Actor/Retailer-smart-contract/inventory/RetailerInventoryStorage.sol\":5047:5099  cheesePiecePurchasedList[i] = new_milkbatchPurchased */\n      mload(0x40)\n      dup1\n      0x60\n      add\n      0x40\n      mstore\n      swap1\n      dup2\n      0x00\n      dup3\n      add\n      sload\n      dup2\n      mstore\n      0x20\n      add\n      0x01\n      dup3\n      add\n      sload\n      dup2\n      mstore\n      0x20\n      add\n      0x02\n      dup3\n      add\n      sload\n      dup2\n      mstore\n      pop\n      pop\n        /* \"Filiera-Token-Smart-Contract/contracts/Actor/Retailer-smart-contract/inventory/RetailerInventoryStorage.sol\":5047:5071  cheesePiecePurchasedList */\n      dup5\n        /* \"Filiera-Token-Smart-Contract/contracts/Actor/Retailer-smart-contract/inventory/RetailerInventoryStorage.sol\":5072:5073  i */\n      dup5\n        /* \"Filiera-Token-Smart-Contract/contracts/Actor/Retailer-smart-contract/inventory/RetailerInventoryStorage.sol\":5047:5074  cheesePiecePurchasedList[i] */\n      dup2\n      mload\n      dup2\n      lt\n      tag_89\n      jumpi\n      tag_90\n      tag_86\n      jump\t// in\n    tag_90:\n    tag_89:\n      0x20\n      mul\n      0x20\n      add\n      add\n        /* \"Filiera-Token-Smart-Contract/contracts/Actor/Retailer-smart-contract/inventory/RetailerInventoryStorage.sol\":5047:5099  cheesePiecePurchasedList[i] = new_milkbatchPurchased */\n      dup2\n      swap1\n      mstore\n      pop\n        /* \"Filiera-Token-Smart-Contract/contracts/Actor/Retailer-smart-contract/inventory/RetailerInventoryStorage.sol\":4854:5119  {... */\n      pop\n        /* \"Filiera-Token-Smart-Contract/contracts/Actor/Retailer-smart-contract/inventory/RetailerInventoryStorage.sol\":4809:5119  if(cheesePieces[walletRetailer][_id].id != 0){... */\n    tag_88:\n        /* \"Filiera-Token-Smart-Contract/contracts/Actor/Retailer-smart-contract/inventory/RetailerInventoryStorage.sol\":4726:5131  {... */\n      pop\n        /* \"Filiera-Token-Smart-Contract/contracts/Actor/Retailer-smart-contract/inventory/RetailerInventoryStorage.sol\":4722:4725  i++ */\n      dup1\n      dup1\n      0x01\n      add\n      swap2\n      pop\n      pop\n        /* \"Filiera-Token-Smart-Contract/contracts/Actor/Retailer-smart-contract/inventory/RetailerInventoryStorage.sol\":4667:5131  for (uint256 i=0; i<cheesePieceIdPurchasedList.length; i++){... */\n      jump(tag_81)\n    tag_82:\n      pop\n        /* \"Filiera-Token-Smart-Contract/contracts/Actor/Retailer-smart-contract/inventory/RetailerInventoryStorage.sol\":5150:5174  cheesePiecePurchasedList */\n      dup1\n        /* \"Filiera-Token-Smart-Contract/contracts/Actor/Retailer-smart-contract/inventory/RetailerInventoryStorage.sol\":5143:5174  return cheesePiecePurchasedList */\n      swap2\n      pop\n      pop\n        /* \"Filiera-Token-Smart-Contract/contracts/Actor/Retailer-smart-contract/inventory/RetailerInventoryStorage.sol\":4415:5182  function getCheesePieceListPurchasedByRetailer(address walletRetailer) external view returns (CheesePiece[] memory) {... */\n      swap2\n      swap1\n      pop\n      jump\t// out\n        /* \"Filiera-Token-Smart-Contract/contracts/Actor/Retailer-smart-contract/inventory/RetailerInventoryStorage.sol\":2371:2669  function isCheesePiecePresent(address walletRetailer, uint256 _id_CheesePiece) external view returns (bool) {... */\n    tag_46:\n        /* \"Filiera-Token-Smart-Contract/contracts/Actor/Retailer-smart-contract/inventory/RetailerInventoryStorage.sol\":2473:2477  bool */\n      0x00\n        /* \"Filiera-Token-Smart-Contract/contracts/Actor/Retailer-smart-contract/inventory/RetailerInventoryStorage.sol\":2519:2520  0 */\n      dup1\n        /* \"Filiera-Token-Smart-Contract/contracts/Actor/Retailer-smart-contract/inventory/RetailerInventoryStorage.sol\":2500:2515  _id_CheesePiece */\n      dup3\n        /* \"Filiera-Token-Smart-Contract/contracts/Actor/Retailer-smart-contract/inventory/RetailerInventoryStorage.sol\":2500:2520  _id_CheesePiece != 0 */\n      eq\n      iszero\n        /* \"Filiera-Token-Smart-Contract/contracts/Actor/Retailer-smart-contract/inventory/RetailerInventoryStorage.sol\":2500:2543  _id_CheesePiece != 0 && _id_CheesePiece > 0 */\n      dup1\n      iszero\n      tag_92\n      jumpi\n      pop\n        /* \"Filiera-Token-Smart-Contract/contracts/Actor/Retailer-smart-contract/inventory/RetailerInventoryStorage.sol\":2542:2543  0 */\n      0x00\n        /* \"Filiera-Token-Smart-Contract/contracts/Actor/Retailer-smart-contract/inventory/RetailerInventoryStorage.sol\":2524:2539  _id_CheesePiece */\n      dup3\n        /* \"Filiera-Token-Smart-Contract/contracts/Actor/Retailer-smart-contract/inventory/RetailerInventoryStorage.sol\":2524:2543  _id_CheesePiece > 0 */\n      gt\n        /* \"Filiera-Token-Smart-Contract/contracts/Actor/Retailer-smart-contract/inventory/RetailerInventoryStorage.sol\":2500:2543  _id_CheesePiece != 0 && _id_CheesePiece > 0 */\n    tag_92:\n        /* \"Filiera-Token-Smart-Contract/contracts/Actor/Retailer-smart-contract/inventory/RetailerInventoryStorage.sol\":2492:2574  require(_id_CheesePiece != 0 && _id_CheesePiece > 0, \"ID CheesePiece Non Valido!\") */\n      tag_93\n      jumpi\n      mload(0x40)\n      0x08c379a000000000000000000000000000000000000000000000000000000000\n      dup2\n      mstore\n      0x04\n      add\n      tag_94\n      swap1\n      tag_95\n      jump\t// in\n    tag_94:\n      mload(0x40)\n      dup1\n      swap2\n      sub\n      swap1\n      revert\n    tag_93:\n        /* \"Filiera-Token-Smart-Contract/contracts/Actor/Retailer-smart-contract/inventory/RetailerInventoryStorage.sol\":2646:2661  _id_CheesePiece */\n      dup2\n        /* \"Filiera-Token-Smart-Contract/contracts/Actor/Retailer-smart-contract/inventory/RetailerInventoryStorage.sol\":2594:2606  cheesePieces */\n      0x01\n        /* \"Filiera-Token-Smart-Contract/contracts/Actor/Retailer-smart-contract/inventory/RetailerInventoryStorage.sol\":2594:2622  cheesePieces[walletRetailer] */\n      0x00\n        /* \"Filiera-Token-Smart-Contract/contracts/Actor/Retailer-smart-contract/inventory/RetailerInventoryStorage.sol\":2607:2621  walletRetailer */\n      dup6\n        /* \"Filiera-Token-Smart-Contract/contracts/Actor/Retailer-smart-contract/inventory/RetailerInventoryStorage.sol\":2594:2622  cheesePieces[walletRetailer] */\n      0xffffffffffffffffffffffffffffffffffffffff\n      and\n      0xffffffffffffffffffffffffffffffffffffffff\n      and\n      dup2\n      mstore\n      0x20\n      add\n      swap1\n      dup2\n      mstore\n      0x20\n      add\n      0x00\n      keccak256\n        /* \"Filiera-Token-Smart-Contract/contracts/Actor/Retailer-smart-contract/inventory/RetailerInventoryStorage.sol\":2594:2639  cheesePieces[walletRetailer][_id_CheesePiece] */\n      0x00\n        /* \"Filiera-Token-Smart-Contract/contracts/Actor/Retailer-smart-contract/inventory/RetailerInventoryStorage.sol\":2623:2638  _id_CheesePiece */\n      dup5\n        /* \"Filiera-Token-Smart-Contract/contracts/Actor/Retailer-smart-contract/inventory/RetailerInventoryStorage.sol\":2594:2639  cheesePieces[walletRetailer][_id_CheesePiece] */\n      dup2\n      mstore\n      0x20\n      add\n      swap1\n      dup2\n      mstore\n      0x20\n      add\n      0x00\n      keccak256\n        /* \"Filiera-Token-Smart-Contract/contracts/Actor/Retailer-smart-contract/inventory/RetailerInventoryStorage.sol\":2594:2642  cheesePieces[walletRetailer][_id_CheesePiece].id */\n      0x00\n      add\n      sload\n        /* \"Filiera-Token-Smart-Contract/contracts/Actor/Retailer-smart-contract/inventory/RetailerInventoryStorage.sol\":2594:2661  cheesePieces[walletRetailer][_id_CheesePiece].id == _id_CheesePiece */\n      eq\n        /* \"Filiera-Token-Smart-Contract/contracts/Actor/Retailer-smart-contract/inventory/RetailerInventoryStorage.sol\":2587:2661  return cheesePieces[walletRetailer][_id_CheesePiece].id == _id_CheesePiece */\n      swap1\n      pop\n        /* \"Filiera-Token-Smart-Contract/contracts/Actor/Retailer-smart-contract/inventory/RetailerInventoryStorage.sol\":2371:2669  function isCheesePiecePresent(address walletRetailer, uint256 _id_CheesePiece) external view returns (bool) {... */\n      swap3\n      swap2\n      pop\n      pop\n      jump\t// out\n        /* \"Filiera-Token-Smart-Contract/contracts/Actor/Retailer-smart-contract/inventory/RetailerInventoryStorage.sol\":4079:4290  function getWeight(address walletRetailer, uint256 _id) external view returns (uint256) {... */\n    tag_50:\n        /* \"Filiera-Token-Smart-Contract/contracts/Actor/Retailer-smart-contract/inventory/RetailerInventoryStorage.sol\":4158:4165  uint256 */\n      0x00\n        /* \"Filiera-Token-Smart-Contract/contracts/Actor/Retailer-smart-contract/inventory/RetailerInventoryStorage.sol\":4180:4210  CheesePiece memory cheesePiece */\n      dup1\n        /* \"Filiera-Token-Smart-Contract/contracts/Actor/Retailer-smart-contract/inventory/RetailerInventoryStorage.sol\":4213:4225  cheesePieces */\n      0x01\n        /* \"Filiera-Token-Smart-Contract/contracts/Actor/Retailer-smart-contract/inventory/RetailerInventoryStorage.sol\":4213:4241  cheesePieces[walletRetailer] */\n      0x00\n        /* \"Filiera-Token-Smart-Contract/contracts/Actor/Retailer-smart-contract/inventory/RetailerInventoryStorage.sol\":4226:4240  walletRetailer */\n      dup6\n        /* \"Filiera-Token-Smart-Contract/contracts/Actor/Retailer-smart-contract/inventory/RetailerInventoryStorage.sol\":4213:4241  cheesePieces[walletRetailer] */\n      0xffffffffffffffffffffffffffffffffffffffff\n      and\n      0xffffffffffffffffffffffffffffffffffffffff\n      and\n      dup2\n      mstore\n      0x20\n      add\n      swap1\n      dup2\n      mstore\n      0x20\n      add\n      0x00\n      keccak256\n        /* \"Filiera-Token-Smart-Contract/contracts/Actor/Retailer-smart-contract/inventory/RetailerInventoryStorage.sol\":4213:4246  cheesePieces[walletRetailer][_id] */\n      0x00\n        /* \"Filiera-Token-Smart-Contract/contracts/Actor/Retailer-smart-contract/inventory/RetailerInventoryStorage.sol\":4242:4245  _id */\n      dup5\n        /* \"Filiera-Token-Smart-Contract/contracts/Actor/Retailer-smart-contract/inventory/RetailerInventoryStorage.sol\":4213:4246  cheesePieces[walletRetailer][_id] */\n      dup2\n      mstore\n      0x20\n      add\n      swap1\n      dup2\n      mstore\n      0x20\n      add\n      0x00\n      keccak256\n        /* \"Filiera-Token-Smart-Contract/contracts/Actor/Retailer-smart-contract/inventory/RetailerInventoryStorage.sol\":4180:4246  CheesePiece memory cheesePiece = cheesePieces[walletRetailer][_id] */\n      mload(0x40)\n      dup1\n      0x60\n      add\n      0x40\n      mstore\n      swap1\n      dup2\n      0x00\n      dup3\n      add\n      sload\n      dup2\n      mstore\n      0x20\n      add\n      0x01\n      dup3\n      add\n      sload\n      dup2\n      mstore\n      0x20\n      add\n      0x02\n      dup3\n      add\n      sload\n      dup2\n      mstore\n      pop\n      pop\n      swap1\n      pop\n        /* \"Filiera-Token-Smart-Contract/contracts/Actor/Retailer-smart-contract/inventory/RetailerInventoryStorage.sol\":4264:4275  cheesePiece */\n      dup1\n        /* \"Filiera-Token-Smart-Contract/contracts/Actor/Retailer-smart-contract/inventory/RetailerInventoryStorage.sol\":4264:4282  cheesePiece.weight */\n      0x40\n      add\n      mload\n        /* \"Filiera-Token-Smart-Contract/contracts/Actor/Retailer-smart-contract/inventory/RetailerInventoryStorage.sol\":4257:4282  return cheesePiece.weight */\n      swap2\n      pop\n      pop\n        /* \"Filiera-Token-Smart-Contract/contracts/Actor/Retailer-smart-contract/inventory/RetailerInventoryStorage.sol\":4079:4290  function getWeight(address walletRetailer, uint256 _id) external view returns (uint256) {... */\n      swap3\n      swap2\n      pop\n      pop\n      jump\t// out\n        /* \"Filiera-Token-Smart-Contract/contracts/Actor/Retailer-smart-contract/inventory/RetailerInventoryStorage.sol\":5190:5992  function getAllCheesePieceList(address[] memory retailerListAddress) external view returns (CheesePiece[] memory) {... */\n    tag_55:\n        /* \"Filiera-Token-Smart-Contract/contracts/Actor/Retailer-smart-contract/inventory/RetailerInventoryStorage.sol\":5282:5302  CheesePiece[] memory */\n      0x60\n        /* \"Filiera-Token-Smart-Contract/contracts/Actor/Retailer-smart-contract/inventory/RetailerInventoryStorage.sol\":5325:5361  CheesePiece[] memory cheesePieceList */\n      0x00\n        /* \"Filiera-Token-Smart-Contract/contracts/Actor/Retailer-smart-contract/inventory/RetailerInventoryStorage.sol\":5382:5408  cheesePieceIdPurchasedList */\n      0x02\n        /* \"Filiera-Token-Smart-Contract/contracts/Actor/Retailer-smart-contract/inventory/RetailerInventoryStorage.sol\":5382:5415  cheesePieceIdPurchasedList.length */\n      dup1\n      sload\n      swap1\n      pop\n        /* \"Filiera-Token-Smart-Contract/contracts/Actor/Retailer-smart-contract/inventory/RetailerInventoryStorage.sol\":5364:5416  new CheesePiece[](cheesePieceIdPurchasedList.length) */\n      0xffffffffffffffff\n      dup2\n      gt\n      iszero\n      tag_98\n      jumpi\n      tag_99\n      tag_76\n      jump\t// in\n    tag_99:\n    tag_98:\n      mload(0x40)\n      swap1\n      dup1\n      dup3\n      mstore\n      dup1\n      0x20\n      mul\n      0x20\n      add\n      dup3\n      add\n      0x40\n      mstore\n      dup1\n      iszero\n      tag_100\n      jumpi\n      dup2\n      0x20\n      add\n    tag_101:\n      tag_102\n      tag_80\n      jump\t// in\n    tag_102:\n      dup2\n      mstore\n      0x20\n      add\n      swap1\n      0x01\n      swap1\n      sub\n      swap1\n      dup2\n      tag_101\n      jumpi\n      swap1\n      pop\n    tag_100:\n      pop\n        /* \"Filiera-Token-Smart-Contract/contracts/Actor/Retailer-smart-contract/inventory/RetailerInventoryStorage.sol\":5325:5416  CheesePiece[] memory cheesePieceList = new CheesePiece[](cheesePieceIdPurchasedList.length) */\n      swap1\n      pop\n        /* \"Filiera-Token-Smart-Contract/contracts/Actor/Retailer-smart-contract/inventory/RetailerInventoryStorage.sol\":5441:5450  uint256 t */\n      0x00\n        /* \"Filiera-Token-Smart-Contract/contracts/Actor/Retailer-smart-contract/inventory/RetailerInventoryStorage.sol\":5471:5480  uint256 i */\n      dup1\n        /* \"Filiera-Token-Smart-Contract/contracts/Actor/Retailer-smart-contract/inventory/RetailerInventoryStorage.sol\":5467:5950  for(uint256 i = 0; i < retailerListAddress.length; i++) {... */\n    tag_103:\n        /* \"Filiera-Token-Smart-Contract/contracts/Actor/Retailer-smart-contract/inventory/RetailerInventoryStorage.sol\":5490:5509  retailerListAddress */\n      dup5\n        /* \"Filiera-Token-Smart-Contract/contracts/Actor/Retailer-smart-contract/inventory/RetailerInventoryStorage.sol\":5490:5516  retailerListAddress.length */\n      mload\n        /* \"Filiera-Token-Smart-Contract/contracts/Actor/Retailer-smart-contract/inventory/RetailerInventoryStorage.sol\":5486:5487  i */\n      dup2\n        /* \"Filiera-Token-Smart-Contract/contracts/Actor/Retailer-smart-contract/inventory/RetailerInventoryStorage.sol\":5486:5516  i < retailerListAddress.length */\n      lt\n        /* \"Filiera-Token-Smart-Contract/contracts/Actor/Retailer-smart-contract/inventory/RetailerInventoryStorage.sol\":5467:5950  for(uint256 i = 0; i < retailerListAddress.length; i++) {... */\n      iszero\n      tag_104\n      jumpi\n        /* \"Filiera-Token-Smart-Contract/contracts/Actor/Retailer-smart-contract/inventory/RetailerInventoryStorage.sol\":5552:5596  CheesePiece[] memory cheesePieceListFromUser */\n      0x00\n        /* \"Filiera-Token-Smart-Contract/contracts/Actor/Retailer-smart-contract/inventory/RetailerInventoryStorage.sol\":5599:5603  this */\n      address\n        /* \"Filiera-Token-Smart-Contract/contracts/Actor/Retailer-smart-contract/inventory/RetailerInventoryStorage.sol\":5599:5641  this.getCheesePieceListPurchasedByRetailer */\n      0xffffffffffffffffffffffffffffffffffffffff\n      and\n      0x814ffa2a\n        /* \"Filiera-Token-Smart-Contract/contracts/Actor/Retailer-smart-contract/inventory/RetailerInventoryStorage.sol\":5642:5661  retailerListAddress */\n      dup8\n        /* \"Filiera-Token-Smart-Contract/contracts/Actor/Retailer-smart-contract/inventory/RetailerInventoryStorage.sol\":5662:5663  i */\n      dup5\n        /* \"Filiera-Token-Smart-Contract/contracts/Actor/Retailer-smart-contract/inventory/RetailerInventoryStorage.sol\":5642:5664  retailerListAddress[i] */\n      dup2\n      mload\n      dup2\n      lt\n      tag_106\n      jumpi\n      tag_107\n      tag_86\n      jump\t// in\n    tag_107:\n    tag_106:\n      0x20\n      mul\n      0x20\n      add\n      add\n      mload\n        /* \"Filiera-Token-Smart-Contract/contracts/Actor/Retailer-smart-contract/inventory/RetailerInventoryStorage.sol\":5599:5665  this.getCheesePieceListPurchasedByRetailer(retailerListAddress[i]) */\n      mload(0x40)\n      dup3\n      0xffffffff\n      and\n      0xe0\n      shl\n      dup2\n      mstore\n      0x04\n      add\n      tag_108\n      swap2\n      swap1\n      tag_109\n      jump\t// in\n    tag_108:\n      0x00\n      mload(0x40)\n      dup1\n      dup4\n      sub\n      dup2\n      dup7\n      gas\n      staticcall\n      iszero\n      dup1\n      iszero\n      tag_111\n      jumpi\n      returndatasize\n      0x00\n      dup1\n      returndatacopy\n      revert(0x00, returndatasize)\n    tag_111:\n      pop\n      pop\n      pop\n      pop\n      mload(0x40)\n      returndatasize\n      0x00\n      dup3\n      returndatacopy\n      returndatasize\n      not(0x1f)\n      0x1f\n      dup3\n      add\n      and\n      dup3\n      add\n      dup1\n      0x40\n      mstore\n      pop\n      dup2\n      add\n      swap1\n      tag_112\n      swap2\n      swap1\n      tag_113\n      jump\t// in\n    tag_112:\n        /* \"Filiera-Token-Smart-Contract/contracts/Actor/Retailer-smart-contract/inventory/RetailerInventoryStorage.sol\":5552:5665  CheesePiece[] memory cheesePieceListFromUser = this.getCheesePieceListPurchasedByRetailer(retailerListAddress[i]) */\n      swap1\n      pop\n        /* \"Filiera-Token-Smart-Contract/contracts/Actor/Retailer-smart-contract/inventory/RetailerInventoryStorage.sol\":5702:5711  uint256 j */\n      0x00\n        /* \"Filiera-Token-Smart-Contract/contracts/Actor/Retailer-smart-contract/inventory/RetailerInventoryStorage.sol\":5698:5939  for(uint256 j = 0; j < cheesePieceListFromUser.length; j++) {... */\n    tag_114:\n        /* \"Filiera-Token-Smart-Contract/contracts/Actor/Retailer-smart-contract/inventory/RetailerInventoryStorage.sol\":5721:5744  cheesePieceListFromUser */\n      dup2\n        /* \"Filiera-Token-Smart-Contract/contracts/Actor/Retailer-smart-contract/inventory/RetailerInventoryStorage.sol\":5721:5751  cheesePieceListFromUser.length */\n      mload\n        /* \"Filiera-Token-Smart-Contract/contracts/Actor/Retailer-smart-contract/inventory/RetailerInventoryStorage.sol\":5717:5718  j */\n      dup2\n        /* \"Filiera-Token-Smart-Contract/contracts/Actor/Retailer-smart-contract/inventory/RetailerInventoryStorage.sol\":5717:5751  j < cheesePieceListFromUser.length */\n      lt\n        /* \"Filiera-Token-Smart-Contract/contracts/Actor/Retailer-smart-contract/inventory/RetailerInventoryStorage.sol\":5698:5939  for(uint256 j = 0; j < cheesePieceListFromUser.length; j++) {... */\n      iszero\n      tag_115\n      jumpi\n        /* \"Filiera-Token-Smart-Contract/contracts/Actor/Retailer-smart-contract/inventory/RetailerInventoryStorage.sol\":5777:5811  CheesePiece memory new_cheesePiece */\n      0x00\n        /* \"Filiera-Token-Smart-Contract/contracts/Actor/Retailer-smart-contract/inventory/RetailerInventoryStorage.sol\":5814:5837  cheesePieceListFromUser */\n      dup3\n        /* \"Filiera-Token-Smart-Contract/contracts/Actor/Retailer-smart-contract/inventory/RetailerInventoryStorage.sol\":5838:5839  j */\n      dup3\n        /* \"Filiera-Token-Smart-Contract/contracts/Actor/Retailer-smart-contract/inventory/RetailerInventoryStorage.sol\":5814:5840  cheesePieceListFromUser[j] */\n      dup2\n      mload\n      dup2\n      lt\n      tag_117\n      jumpi\n      tag_118\n      tag_86\n      jump\t// in\n    tag_118:\n    tag_117:\n      0x20\n      mul\n      0x20\n      add\n      add\n      mload\n        /* \"Filiera-Token-Smart-Contract/contracts/Actor/Retailer-smart-contract/inventory/RetailerInventoryStorage.sol\":5777:5840  CheesePiece memory new_cheesePiece = cheesePieceListFromUser[j] */\n      swap1\n      pop\n        /* \"Filiera-Token-Smart-Contract/contracts/Actor/Retailer-smart-contract/inventory/RetailerInventoryStorage.sol\":5880:5895  new_cheesePiece */\n      dup1\n        /* \"Filiera-Token-Smart-Contract/contracts/Actor/Retailer-smart-contract/inventory/RetailerInventoryStorage.sol\":5859:5874  cheesePieceList */\n      dup7\n        /* \"Filiera-Token-Smart-Contract/contracts/Actor/Retailer-smart-contract/inventory/RetailerInventoryStorage.sol\":5875:5876  t */\n      dup7\n        /* \"Filiera-Token-Smart-Contract/contracts/Actor/Retailer-smart-contract/inventory/RetailerInventoryStorage.sol\":5859:5877  cheesePieceList[t] */\n      dup2\n      mload\n      dup2\n      lt\n      tag_119\n      jumpi\n      tag_120\n      tag_86\n      jump\t// in\n    tag_120:\n    tag_119:\n      0x20\n      mul\n      0x20\n      add\n      add\n        /* \"Filiera-Token-Smart-Contract/contracts/Actor/Retailer-smart-contract/inventory/RetailerInventoryStorage.sol\":5859:5895  cheesePieceList[t] = new_cheesePiece */\n      dup2\n      swap1\n      mstore\n      pop\n        /* \"Filiera-Token-Smart-Contract/contracts/Actor/Retailer-smart-contract/inventory/RetailerInventoryStorage.sol\":5922:5923  1 */\n      0x01\n        /* \"Filiera-Token-Smart-Contract/contracts/Actor/Retailer-smart-contract/inventory/RetailerInventoryStorage.sol\":5918:5919  t */\n      dup6\n        /* \"Filiera-Token-Smart-Contract/contracts/Actor/Retailer-smart-contract/inventory/RetailerInventoryStorage.sol\":5918:5923  t + 1 */\n      tag_121\n      swap2\n      swap1\n      tag_122\n      jump\t// in\n    tag_121:\n        /* \"Filiera-Token-Smart-Contract/contracts/Actor/Retailer-smart-contract/inventory/RetailerInventoryStorage.sol\":5914:5923  t = t + 1 */\n      swap5\n      pop\n        /* \"Filiera-Token-Smart-Contract/contracts/Actor/Retailer-smart-contract/inventory/RetailerInventoryStorage.sol\":5758:5939  {... */\n      pop\n        /* \"Filiera-Token-Smart-Contract/contracts/Actor/Retailer-smart-contract/inventory/RetailerInventoryStorage.sol\":5753:5756  j++ */\n      dup1\n      dup1\n      0x01\n      add\n      swap2\n      pop\n      pop\n        /* \"Filiera-Token-Smart-Contract/contracts/Actor/Retailer-smart-contract/inventory/RetailerInventoryStorage.sol\":5698:5939  for(uint256 j = 0; j < cheesePieceListFromUser.length; j++) {... */\n      jump(tag_114)\n    tag_115:\n      pop\n        /* \"Filiera-Token-Smart-Contract/contracts/Actor/Retailer-smart-contract/inventory/RetailerInventoryStorage.sol\":5523:5950  {... */\n      pop\n        /* \"Filiera-Token-Smart-Contract/contracts/Actor/Retailer-smart-contract/inventory/RetailerInventoryStorage.sol\":5518:5521  i++ */\n      dup1\n      dup1\n      0x01\n      add\n      swap2\n      pop\n      pop\n        /* \"Filiera-Token-Smart-Contract/contracts/Actor/Retailer-smart-contract/inventory/RetailerInventoryStorage.sol\":5467:5950  for(uint256 i = 0; i < retailerListAddress.length; i++) {... */\n      jump(tag_103)\n    tag_104:\n      pop\n        /* \"Filiera-Token-Smart-Contract/contracts/Actor/Retailer-smart-contract/inventory/RetailerInventoryStorage.sol\":5969:5984  cheesePieceList */\n      dup2\n        /* \"Filiera-Token-Smart-Contract/contracts/Actor/Retailer-smart-contract/inventory/RetailerInventoryStorage.sol\":5962:5984  return cheesePieceList */\n      swap3\n      pop\n      pop\n      pop\n        /* \"Filiera-Token-Smart-Contract/contracts/Actor/Retailer-smart-contract/inventory/RetailerInventoryStorage.sol\":5190:5992  function getAllCheesePieceList(address[] memory retailerListAddress) external view returns (CheesePiece[] memory) {... */\n      swap2\n      swap1\n      pop\n      jump\t// out\n        /* \"Filiera-Token-Smart-Contract/contracts/Actor/Retailer-smart-contract/inventory/RetailerInventoryStorage.sol\":3344:3692  function deleteCheesePieceIdFromList(uint256 _id) internal returns (bool) {... */\n    tag_61:\n        /* \"Filiera-Token-Smart-Contract/contracts/Actor/Retailer-smart-contract/inventory/RetailerInventoryStorage.sol\":3412:3416  bool */\n      0x00\n        /* \"Filiera-Token-Smart-Contract/contracts/Actor/Retailer-smart-contract/inventory/RetailerInventoryStorage.sol\":3434:3443  uint256 i */\n      dup1\n        /* \"Filiera-Token-Smart-Contract/contracts/Actor/Retailer-smart-contract/inventory/RetailerInventoryStorage.sol\":3446:3447  0 */\n      0x00\n        /* \"Filiera-Token-Smart-Contract/contracts/Actor/Retailer-smart-contract/inventory/RetailerInventoryStorage.sol\":3434:3447  uint256 i = 0 */\n      swap1\n      pop\n        /* \"Filiera-Token-Smart-Contract/contracts/Actor/Retailer-smart-contract/inventory/RetailerInventoryStorage.sol\":3429:3662  for (uint256 i = 0; i < cheesePieceIdPurchasedList.length; i++) {... */\n    tag_124:\n        /* \"Filiera-Token-Smart-Contract/contracts/Actor/Retailer-smart-contract/inventory/RetailerInventoryStorage.sol\":3453:3479  cheesePieceIdPurchasedList */\n      0x02\n        /* \"Filiera-Token-Smart-Contract/contracts/Actor/Retailer-smart-contract/inventory/RetailerInventoryStorage.sol\":3453:3486  cheesePieceIdPurchasedList.length */\n      dup1\n      sload\n      swap1\n      pop\n        /* \"Filiera-Token-Smart-Contract/contracts/Actor/Retailer-smart-contract/inventory/RetailerInventoryStorage.sol\":3449:3450  i */\n      dup2\n        /* \"Filiera-Token-Smart-Contract/contracts/Actor/Retailer-smart-contract/inventory/RetailerInventoryStorage.sol\":3449:3486  i < cheesePieceIdPurchasedList.length */\n      lt\n        /* \"Filiera-Token-Smart-Contract/contracts/Actor/Retailer-smart-contract/inventory/RetailerInventoryStorage.sol\":3429:3662  for (uint256 i = 0; i < cheesePieceIdPurchasedList.length; i++) {... */\n      iszero\n      tag_125\n      jumpi\n        /* \"Filiera-Token-Smart-Contract/contracts/Actor/Retailer-smart-contract/inventory/RetailerInventoryStorage.sol\":3545:3548  _id */\n      dup3\n        /* \"Filiera-Token-Smart-Contract/contracts/Actor/Retailer-smart-contract/inventory/RetailerInventoryStorage.sol\":3512:3538  cheesePieceIdPurchasedList */\n      0x02\n        /* \"Filiera-Token-Smart-Contract/contracts/Actor/Retailer-smart-contract/inventory/RetailerInventoryStorage.sol\":3539:3540  i */\n      dup3\n        /* \"Filiera-Token-Smart-Contract/contracts/Actor/Retailer-smart-contract/inventory/RetailerInventoryStorage.sol\":3512:3541  cheesePieceIdPurchasedList[i] */\n      dup2\n      sload\n      dup2\n      lt\n      tag_127\n      jumpi\n      tag_128\n      tag_86\n      jump\t// in\n    tag_128:\n    tag_127:\n      swap1\n      0x00\n      mstore\n      keccak256(0x00, 0x20)\n      add\n      sload\n        /* \"Filiera-Token-Smart-Contract/contracts/Actor/Retailer-smart-contract/inventory/RetailerInventoryStorage.sol\":3512:3548  cheesePieceIdPurchasedList[i] == _id */\n      sub\n        /* \"Filiera-Token-Smart-Contract/contracts/Actor/Retailer-smart-contract/inventory/RetailerInventoryStorage.sol\":3508:3651  if (cheesePieceIdPurchasedList[i] == _id) {... */\n      tag_130\n      jumpi\n        /* \"Filiera-Token-Smart-Contract/contracts/Actor/Retailer-smart-contract/inventory/RetailerInventoryStorage.sol\":3576:3602  cheesePieceIdPurchasedList */\n      0x02\n        /* \"Filiera-Token-Smart-Contract/contracts/Actor/Retailer-smart-contract/inventory/RetailerInventoryStorage.sol\":3603:3604  i */\n      dup2\n        /* \"Filiera-Token-Smart-Contract/contracts/Actor/Retailer-smart-contract/inventory/RetailerInventoryStorage.sol\":3576:3605  cheesePieceIdPurchasedList[i] */\n      dup2\n      sload\n      dup2\n      lt\n      tag_131\n      jumpi\n      tag_132\n      tag_86\n      jump\t// in\n    tag_132:\n    tag_131:\n      swap1\n      0x00\n      mstore\n      keccak256(0x00, 0x20)\n      add\n        /* \"Filiera-Token-Smart-Contract/contracts/Actor/Retailer-smart-contract/inventory/RetailerInventoryStorage.sol\":3569:3605  delete cheesePieceIdPurchasedList[i] */\n      0x00\n      swap1\n      sstore\n        /* \"Filiera-Token-Smart-Contract/contracts/Actor/Retailer-smart-contract/inventory/RetailerInventoryStorage.sol\":3631:3635  true */\n      0x01\n        /* \"Filiera-Token-Smart-Contract/contracts/Actor/Retailer-smart-contract/inventory/RetailerInventoryStorage.sol\":3624:3635  return true */\n      swap2\n      pop\n      pop\n      jump(tag_123)\n        /* \"Filiera-Token-Smart-Contract/contracts/Actor/Retailer-smart-contract/inventory/RetailerInventoryStorage.sol\":3508:3651  if (cheesePieceIdPurchasedList[i] == _id) {... */\n    tag_130:\n        /* \"Filiera-Token-Smart-Contract/contracts/Actor/Retailer-smart-contract/inventory/RetailerInventoryStorage.sol\":3488:3491  i++ */\n      dup1\n      dup1\n      0x01\n      add\n      swap2\n      pop\n      pop\n        /* \"Filiera-Token-Smart-Contract/contracts/Actor/Retailer-smart-contract/inventory/RetailerInventoryStorage.sol\":3429:3662  for (uint256 i = 0; i < cheesePieceIdPurchasedList.length; i++) {... */\n      jump(tag_124)\n    tag_125:\n      pop\n        /* \"Filiera-Token-Smart-Contract/contracts/Actor/Retailer-smart-contract/inventory/RetailerInventoryStorage.sol\":3679:3684  false */\n      0x00\n        /* \"Filiera-Token-Smart-Contract/contracts/Actor/Retailer-smart-contract/inventory/RetailerInventoryStorage.sol\":3672:3684  return false */\n      swap1\n      pop\n        /* \"Filiera-Token-Smart-Contract/contracts/Actor/Retailer-smart-contract/inventory/RetailerInventoryStorage.sol\":3344:3692  function deleteCheesePieceIdFromList(uint256 _id) internal returns (bool) {... */\n    tag_123:\n      swap2\n      swap1\n      pop\n      jump\t// out\n    tag_80:\n      mload(0x40)\n      dup1\n      0x60\n      add\n      0x40\n      mstore\n      dup1\n      0x00\n      dup2\n      mstore\n      0x20\n      add\n      0x00\n      dup2\n      mstore\n      0x20\n      add\n      0x00\n      dup2\n      mstore\n      pop\n      swap1\n      jump\t// out\n        /* \"#utility.yul\":7:82   */\n    tag_134:\n        /* \"#utility.yul\":40:46   */\n      0x00\n        /* \"#utility.yul\":73:75   */\n      0x40\n        /* \"#utility.yul\":67:76   */\n      mload\n        /* \"#utility.yul\":57:76   */\n      swap1\n      pop\n        /* \"#utility.yul\":7:82   */\n      swap1\n      jump\t// out\n        /* \"#utility.yul\":88:205   */\n    tag_135:\n        /* \"#utility.yul\":197:198   */\n      0x00\n        /* \"#utility.yul\":194:195   */\n      dup1\n        /* \"#utility.yul\":187:199   */\n      revert\n        /* \"#utility.yul\":211:328   */\n    tag_136:\n        /* \"#utility.yul\":320:321   */\n      0x00\n        /* \"#utility.yul\":317:318   */\n      dup1\n        /* \"#utility.yul\":310:322   */\n      revert\n        /* \"#utility.yul\":334:460   */\n    tag_137:\n        /* \"#utility.yul\":371:378   */\n      0x00\n        /* \"#utility.yul\":411:453   */\n      0xffffffffffffffffffffffffffffffffffffffff\n        /* \"#utility.yul\":404:409   */\n      dup3\n        /* \"#utility.yul\":400:454   */\n      and\n        /* \"#utility.yul\":389:454   */\n      swap1\n      pop\n        /* \"#utility.yul\":334:460   */\n      swap2\n      swap1\n      pop\n      jump\t// out\n        /* \"#utility.yul\":466:562   */\n    tag_138:\n        /* \"#utility.yul\":503:510   */\n      0x00\n        /* \"#utility.yul\":532:556   */\n      tag_189\n        /* \"#utility.yul\":550:555   */\n      dup3\n        /* \"#utility.yul\":532:556   */\n      tag_137\n      jump\t// in\n    tag_189:\n        /* \"#utility.yul\":521:556   */\n      swap1\n      pop\n        /* \"#utility.yul\":466:562   */\n      swap2\n      swap1\n      pop\n      jump\t// out\n        /* \"#utility.yul\":568:690   */\n    tag_139:\n        /* \"#utility.yul\":641:665   */\n      tag_191\n        /* \"#utility.yul\":659:664   */\n      dup2\n        /* \"#utility.yul\":641:665   */\n      tag_138\n      jump\t// in\n    tag_191:\n        /* \"#utility.yul\":634:639   */\n      dup2\n        /* \"#utility.yul\":631:666   */\n      eq\n        /* \"#utility.yul\":621:684   */\n      tag_192\n      jumpi\n        /* \"#utility.yul\":680:681   */\n      0x00\n        /* \"#utility.yul\":677:678   */\n      dup1\n        /* \"#utility.yul\":670:682   */\n      revert\n        /* \"#utility.yul\":621:684   */\n    tag_192:\n        /* \"#utility.yul\":568:690   */\n      pop\n      jump\t// out\n        /* \"#utility.yul\":696:835   */\n    tag_140:\n        /* \"#utility.yul\":742:747   */\n      0x00\n        /* \"#utility.yul\":780:786   */\n      dup2\n        /* \"#utility.yul\":767:787   */\n      calldataload\n        /* \"#utility.yul\":758:787   */\n      swap1\n      pop\n        /* \"#utility.yul\":796:829   */\n      tag_194\n        /* \"#utility.yul\":823:828   */\n      dup2\n        /* \"#utility.yul\":796:829   */\n      tag_139\n      jump\t// in\n    tag_194:\n        /* \"#utility.yul\":696:835   */\n      swap3\n      swap2\n      pop\n      pop\n      jump\t// out\n        /* \"#utility.yul\":841:918   */\n    tag_141:\n        /* \"#utility.yul\":878:885   */\n      0x00\n        /* \"#utility.yul\":907:912   */\n      dup2\n        /* \"#utility.yul\":896:912   */\n      swap1\n      pop\n        /* \"#utility.yul\":841:918   */\n      swap2\n      swap1\n      pop\n      jump\t// out\n        /* \"#utility.yul\":924:1046   */\n    tag_142:\n        /* \"#utility.yul\":997:1021   */\n      tag_197\n        /* \"#utility.yul\":1015:1020   */\n      dup2\n        /* \"#utility.yul\":997:1021   */\n      tag_141\n      jump\t// in\n    tag_197:\n        /* \"#utility.yul\":990:995   */\n      dup2\n        /* \"#utility.yul\":987:1022   */\n      eq\n        /* \"#utility.yul\":977:1040   */\n      tag_198\n      jumpi\n        /* \"#utility.yul\":1036:1037   */\n      0x00\n        /* \"#utility.yul\":1033:1034   */\n      dup1\n        /* \"#utility.yul\":1026:1038   */\n      revert\n        /* \"#utility.yul\":977:1040   */\n    tag_198:\n        /* \"#utility.yul\":924:1046   */\n      pop\n      jump\t// out\n        /* \"#utility.yul\":1052:1191   */\n    tag_143:\n        /* \"#utility.yul\":1098:1103   */\n      0x00\n        /* \"#utility.yul\":1136:1142   */\n      dup2\n        /* \"#utility.yul\":1123:1143   */\n      calldataload\n        /* \"#utility.yul\":1114:1143   */\n      swap1\n      pop\n        /* \"#utility.yul\":1152:1185   */\n      tag_200\n        /* \"#utility.yul\":1179:1184   */\n      dup2\n        /* \"#utility.yul\":1152:1185   */\n      tag_142\n      jump\t// in\n    tag_200:\n        /* \"#utility.yul\":1052:1191   */\n      swap3\n      swap2\n      pop\n      pop\n      jump\t// out\n        /* \"#utility.yul\":1197:1671   */\n    tag_15:\n        /* \"#utility.yul\":1265:1271   */\n      0x00\n        /* \"#utility.yul\":1273:1279   */\n      dup1\n        /* \"#utility.yul\":1322:1324   */\n      0x40\n        /* \"#utility.yul\":1310:1319   */\n      dup4\n        /* \"#utility.yul\":1301:1308   */\n      dup6\n        /* \"#utility.yul\":1297:1320   */\n      sub\n        /* \"#utility.yul\":1293:1325   */\n      slt\n        /* \"#utility.yul\":1290:1409   */\n      iszero\n      tag_202\n      jumpi\n        /* \"#utility.yul\":1328:1407   */\n      tag_203\n      tag_135\n      jump\t// in\n    tag_203:\n        /* \"#utility.yul\":1290:1409   */\n    tag_202:\n        /* \"#utility.yul\":1448:1449   */\n      0x00\n        /* \"#utility.yul\":1473:1526   */\n      tag_204\n        /* \"#utility.yul\":1518:1525   */\n      dup6\n        /* \"#utility.yul\":1509:1515   */\n      dup3\n        /* \"#utility.yul\":1498:1507   */\n      dup7\n        /* \"#utility.yul\":1494:1516   */\n      add\n        /* \"#utility.yul\":1473:1526   */\n      tag_140\n      jump\t// in\n    tag_204:\n        /* \"#utility.yul\":1463:1526   */\n      swap3\n      pop\n        /* \"#utility.yul\":1419:1536   */\n      pop\n        /* \"#utility.yul\":1575:1577   */\n      0x20\n        /* \"#utility.yul\":1601:1654   */\n      tag_205\n        /* \"#utility.yul\":1646:1653   */\n      dup6\n        /* \"#utility.yul\":1637:1643   */\n      dup3\n        /* \"#utility.yul\":1626:1635   */\n      dup7\n        /* \"#utility.yul\":1622:1644   */\n      add\n        /* \"#utility.yul\":1601:1654   */\n      tag_143\n      jump\t// in\n    tag_205:\n        /* \"#utility.yul\":1591:1654   */\n      swap2\n      pop\n        /* \"#utility.yul\":1546:1664   */\n      pop\n        /* \"#utility.yul\":1197:1671   */\n      swap3\n      pop\n      swap3\n      swap1\n      pop\n      jump\t// out\n        /* \"#utility.yul\":1677:1795   */\n    tag_144:\n        /* \"#utility.yul\":1764:1788   */\n      tag_207\n        /* \"#utility.yul\":1782:1787   */\n      dup2\n        /* \"#utility.yul\":1764:1788   */\n      tag_141\n      jump\t// in\n    tag_207:\n        /* \"#utility.yul\":1759:1762   */\n      dup3\n        /* \"#utility.yul\":1752:1789   */\n      mstore\n        /* \"#utility.yul\":1677:1795   */\n      pop\n      pop\n      jump\t// out\n        /* \"#utility.yul\":1801:2243   */\n    tag_18:\n        /* \"#utility.yul\":1950:1954   */\n      0x00\n        /* \"#utility.yul\":1988:1990   */\n      0x60\n        /* \"#utility.yul\":1977:1986   */\n      dup3\n        /* \"#utility.yul\":1973:1991   */\n      add\n        /* \"#utility.yul\":1965:1991   */\n      swap1\n      pop\n        /* \"#utility.yul\":2001:2072   */\n      tag_209\n        /* \"#utility.yul\":2069:2070   */\n      0x00\n        /* \"#utility.yul\":2058:2067   */\n      dup4\n        /* \"#utility.yul\":2054:2071   */\n      add\n        /* \"#utility.yul\":2045:2051   */\n      dup7\n        /* \"#utility.yul\":2001:2072   */\n      tag_144\n      jump\t// in\n    tag_209:\n        /* \"#utility.yul\":2082:2154   */\n      tag_210\n        /* \"#utility.yul\":2150:2152   */\n      0x20\n        /* \"#utility.yul\":2139:2148   */\n      dup4\n        /* \"#utility.yul\":2135:2153   */\n      add\n        /* \"#utility.yul\":2126:2132   */\n      dup6\n        /* \"#utility.yul\":2082:2154   */\n      tag_144\n      jump\t// in\n    tag_210:\n        /* \"#utility.yul\":2164:2236   */\n      tag_211\n        /* \"#utility.yul\":2232:2234   */\n      0x40\n        /* \"#utility.yul\":2221:2230   */\n      dup4\n        /* \"#utility.yul\":2217:2235   */\n      add\n        /* \"#utility.yul\":2208:2214   */\n      dup5\n        /* \"#utility.yul\":2164:2236   */\n      tag_144\n      jump\t// in\n    tag_211:\n        /* \"#utility.yul\":1801:2243   */\n      swap5\n      swap4\n      pop\n      pop\n      pop\n      pop\n      jump\t// out\n        /* \"#utility.yul\":2249:2339   */\n    tag_145:\n        /* \"#utility.yul\":2283:2290   */\n      0x00\n        /* \"#utility.yul\":2326:2331   */\n      dup2\n        /* \"#utility.yul\":2319:2332   */\n      iszero\n        /* \"#utility.yul\":2312:2333   */\n      iszero\n        /* \"#utility.yul\":2301:2333   */\n      swap1\n      pop\n        /* \"#utility.yul\":2249:2339   */\n      swap2\n      swap1\n      pop\n      jump\t// out\n        /* \"#utility.yul\":2345:2454   */\n    tag_146:\n        /* \"#utility.yul\":2426:2447   */\n      tag_214\n        /* \"#utility.yul\":2441:2446   */\n      dup2\n        /* \"#utility.yul\":2426:2447   */\n      tag_145\n      jump\t// in\n    tag_214:\n        /* \"#utility.yul\":2421:2424   */\n      dup3\n        /* \"#utility.yul\":2414:2448   */\n      mstore\n        /* \"#utility.yul\":2345:2454   */\n      pop\n      pop\n      jump\t// out\n        /* \"#utility.yul\":2460:2670   */\n    tag_23:\n        /* \"#utility.yul\":2547:2551   */\n      0x00\n        /* \"#utility.yul\":2585:2587   */\n      0x20\n        /* \"#utility.yul\":2574:2583   */\n      dup3\n        /* \"#utility.yul\":2570:2588   */\n      add\n        /* \"#utility.yul\":2562:2588   */\n      swap1\n      pop\n        /* \"#utility.yul\":2598:2663   */\n      tag_216\n        /* \"#utility.yul\":2660:2661   */\n      0x00\n        /* \"#utility.yul\":2649:2658   */\n      dup4\n        /* \"#utility.yul\":2645:2662   */\n      add\n        /* \"#utility.yul\":2636:2642   */\n      dup5\n        /* \"#utility.yul\":2598:2663   */\n      tag_146\n      jump\t// in\n    tag_216:\n        /* \"#utility.yul\":2460:2670   */\n      swap3\n      swap2\n      pop\n      pop\n      jump\t// out\n        /* \"#utility.yul\":2676:2898   */\n    tag_28:\n        /* \"#utility.yul\":2769:2773   */\n      0x00\n        /* \"#utility.yul\":2807:2809   */\n      0x20\n        /* \"#utility.yul\":2796:2805   */\n      dup3\n        /* \"#utility.yul\":2792:2810   */\n      add\n        /* \"#utility.yul\":2784:2810   */\n      swap1\n      pop\n        /* \"#utility.yul\":2820:2891   */\n      tag_218\n        /* \"#utility.yul\":2888:2889   */\n      0x00\n        /* \"#utility.yul\":2877:2886   */\n      dup4\n        /* \"#utility.yul\":2873:2890   */\n      add\n        /* \"#utility.yul\":2864:2870   */\n      dup5\n        /* \"#utility.yul\":2820:2891   */\n      tag_144\n      jump\t// in\n    tag_218:\n        /* \"#utility.yul\":2676:2898   */\n      swap3\n      swap2\n      pop\n      pop\n      jump\t// out\n        /* \"#utility.yul\":2904:3669   */\n    tag_31:\n        /* \"#utility.yul\":2990:2996   */\n      0x00\n        /* \"#utility.yul\":2998:3004   */\n      dup1\n        /* \"#utility.yul\":3006:3012   */\n      0x00\n        /* \"#utility.yul\":3014:3020   */\n      dup1\n        /* \"#utility.yul\":3063:3066   */\n      0x80\n        /* \"#utility.yul\":3051:3060   */\n      dup6\n        /* \"#utility.yul\":3042:3049   */\n      dup8\n        /* \"#utility.yul\":3038:3061   */\n      sub\n        /* \"#utility.yul\":3034:3067   */\n      slt\n        /* \"#utility.yul\":3031:3151   */\n      iszero\n      tag_220\n      jumpi\n        /* \"#utility.yul\":3070:3149   */\n      tag_221\n      tag_135\n      jump\t// in\n    tag_221:\n        /* \"#utility.yul\":3031:3151   */\n    tag_220:\n        /* \"#utility.yul\":3190:3191   */\n      0x00\n        /* \"#utility.yul\":3215:3268   */\n      tag_222\n        /* \"#utility.yul\":3260:3267   */\n      dup8\n        /* \"#utility.yul\":3251:3257   */\n      dup3\n        /* \"#utility.yul\":3240:3249   */\n      dup9\n        /* \"#utility.yul\":3236:3258   */\n      add\n        /* \"#utility.yul\":3215:3268   */\n      tag_140\n      jump\t// in\n    tag_222:\n        /* \"#utility.yul\":3205:3268   */\n      swap5\n      pop\n        /* \"#utility.yul\":3161:3278   */\n      pop\n        /* \"#utility.yul\":3317:3319   */\n      0x20\n        /* \"#utility.yul\":3343:3396   */\n      tag_223\n        /* \"#utility.yul\":3388:3395   */\n      dup8\n        /* \"#utility.yul\":3379:3385   */\n      dup3\n        /* \"#utility.yul\":3368:3377   */\n      dup9\n        /* \"#utility.yul\":3364:3386   */\n      add\n        /* \"#utility.yul\":3343:3396   */\n      tag_143\n      jump\t// in\n    tag_223:\n        /* \"#utility.yul\":3333:3396   */\n      swap4\n      pop\n        /* \"#utility.yul\":3288:3406   */\n      pop\n        /* \"#utility.yul\":3445:3447   */\n      0x40\n        /* \"#utility.yul\":3471:3524   */\n      tag_224\n        /* \"#utility.yul\":3516:3523   */\n      dup8\n        /* \"#utility.yul\":3507:3513   */\n      dup3\n        /* \"#utility.yul\":3496:3505   */\n      dup9\n        /* \"#utility.yul\":3492:3514   */\n      add\n        /* \"#utility.yul\":3471:3524   */\n      tag_143\n      jump\t// in\n    tag_224:\n        /* \"#utility.yul\":3461:3524   */\n      swap3\n      pop\n        /* \"#utility.yul\":3416:3534   */\n      pop\n        /* \"#utility.yul\":3573:3575   */\n      0x60\n        /* \"#utility.yul\":3599:3652   */\n      tag_225\n        /* \"#utility.yul\":3644:3651   */\n      dup8\n        /* \"#utility.yul\":3635:3641   */\n      dup3\n        /* \"#utility.yul\":3624:3633   */\n      dup9\n        /* \"#utility.yul\":3620:3642   */\n      add\n        /* \"#utility.yul\":3599:3652   */\n      tag_143\n      jump\t// in\n    tag_225:\n        /* \"#utility.yul\":3589:3652   */\n      swap2\n      pop\n        /* \"#utility.yul\":3544:3662   */\n      pop\n        /* \"#utility.yul\":2904:3669   */\n      swap3\n      swap6\n      swap2\n      swap5\n      pop\n      swap3\n      pop\n      jump\t// out\n        /* \"#utility.yul\":3675:4294   */\n    tag_36:\n        /* \"#utility.yul\":3752:3758   */\n      0x00\n        /* \"#utility.yul\":3760:3766   */\n      dup1\n        /* \"#utility.yul\":3768:3774   */\n      0x00\n        /* \"#utility.yul\":3817:3819   */\n      0x60\n        /* \"#utility.yul\":3805:3814   */\n      dup5\n        /* \"#utility.yul\":3796:3803   */\n      dup7\n        /* \"#utility.yul\":3792:3815   */\n      sub\n        /* \"#utility.yul\":3788:3820   */\n      slt\n        /* \"#utility.yul\":3785:3904   */\n      iszero\n      tag_227\n      jumpi\n        /* \"#utility.yul\":3823:3902   */\n      tag_228\n      tag_135\n      jump\t// in\n    tag_228:\n        /* \"#utility.yul\":3785:3904   */\n    tag_227:\n        /* \"#utility.yul\":3943:3944   */\n      0x00\n        /* \"#utility.yul\":3968:4021   */\n      tag_229\n        /* \"#utility.yul\":4013:4020   */\n      dup7\n        /* \"#utility.yul\":4004:4010   */\n      dup3\n        /* \"#utility.yul\":3993:4002   */\n      dup8\n        /* \"#utility.yul\":3989:4011   */\n      add\n        /* \"#utility.yul\":3968:4021   */\n      tag_140\n      jump\t// in\n    tag_229:\n        /* \"#utility.yul\":3958:4021   */\n      swap4\n      pop\n        /* \"#utility.yul\":3914:4031   */\n      pop\n        /* \"#utility.yul\":4070:4072   */\n      0x20\n        /* \"#utility.yul\":4096:4149   */\n      tag_230\n        /* \"#utility.yul\":4141:4148   */\n      dup7\n        /* \"#utility.yul\":4132:4138   */\n      dup3\n        /* \"#utility.yul\":4121:4130   */\n      dup8\n        /* \"#utility.yul\":4117:4139   */\n      add\n        /* \"#utility.yul\":4096:4149   */\n      tag_143\n      jump\t// in\n    tag_230:\n        /* \"#utility.yul\":4086:4149   */\n      swap3\n      pop\n        /* \"#utility.yul\":4041:4159   */\n      pop\n        /* \"#utility.yul\":4198:4200   */\n      0x40\n        /* \"#utility.yul\":4224:4277   */\n      tag_231\n        /* \"#utility.yul\":4269:4276   */\n      dup7\n        /* \"#utility.yul\":4260:4266   */\n      dup3\n        /* \"#utility.yul\":4249:4258   */\n      dup8\n        /* \"#utility.yul\":4245:4267   */\n      add\n        /* \"#utility.yul\":4224:4277   */\n      tag_143\n      jump\t// in\n    tag_231:\n        /* \"#utility.yul\":4214:4277   */\n      swap2\n      pop\n        /* \"#utility.yul\":4169:4287   */\n      pop\n        /* \"#utility.yul\":3675:4294   */\n      swap3\n      pop\n      swap3\n      pop\n      swap3\n      jump\t// out\n        /* \"#utility.yul\":4300:4629   */\n    tag_40:\n        /* \"#utility.yul\":4359:4365   */\n      0x00\n        /* \"#utility.yul\":4408:4410   */\n      0x20\n        /* \"#utility.yul\":4396:4405   */\n      dup3\n        /* \"#utility.yul\":4387:4394   */\n      dup5\n        /* \"#utility.yul\":4383:4406   */\n      sub\n        /* \"#utility.yul\":4379:4411   */\n      slt\n        /* \"#utility.yul\":4376:4495   */\n      iszero\n      tag_233\n      jumpi\n        /* \"#utility.yul\":4414:4493   */\n      tag_234\n      tag_135\n      jump\t// in\n    tag_234:\n        /* \"#utility.yul\":4376:4495   */\n    tag_233:\n        /* \"#utility.yul\":4534:4535   */\n      0x00\n        /* \"#utility.yul\":4559:4612   */\n      tag_235\n        /* \"#utility.yul\":4604:4611   */\n      dup5\n        /* \"#utility.yul\":4595:4601   */\n      dup3\n        /* \"#utility.yul\":4584:4593   */\n      dup6\n        /* \"#utility.yul\":4580:4602   */\n      add\n        /* \"#utility.yul\":4559:4612   */\n      tag_140\n      jump\t// in\n    tag_235:\n        /* \"#utility.yul\":4549:4612   */\n      swap2\n      pop\n        /* \"#utility.yul\":4505:4622   */\n      pop\n        /* \"#utility.yul\":4300:4629   */\n      swap3\n      swap2\n      pop\n      pop\n      jump\t// out\n        /* \"#utility.yul\":4635:4776   */\n    tag_147:\n        /* \"#utility.yul\":4729:4735   */\n      0x00\n        /* \"#utility.yul\":4763:4768   */\n      dup2\n        /* \"#utility.yul\":4757:4769   */\n      mload\n        /* \"#utility.yul\":4747:4769   */\n      swap1\n      pop\n        /* \"#utility.yul\":4635:4776   */\n      swap2\n      swap1\n      pop\n      jump\t// out\n        /* \"#utility.yul\":4782:4993   */\n    tag_148:\n        /* \"#utility.yul\":4908:4919   */\n      0x00\n        /* \"#utility.yul\":4942:4948   */\n      dup3\n        /* \"#utility.yul\":4937:4940   */\n      dup3\n        /* \"#utility.yul\":4930:4949   */\n      mstore\n        /* \"#utility.yul\":4982:4986   */\n      0x20\n        /* \"#utility.yul\":4977:4980   */\n      dup3\n        /* \"#utility.yul\":4973:4987   */\n      add\n        /* \"#utility.yul\":4958:4987   */\n      swap1\n      pop\n        /* \"#utility.yul\":4782:4993   */\n      swap3\n      swap2\n      pop\n      pop\n      jump\t// out\n        /* \"#utility.yul\":4999:5158   */\n    tag_149:\n        /* \"#utility.yul\":5093:5097   */\n      0x00\n        /* \"#utility.yul\":5116:5119   */\n      dup2\n        /* \"#utility.yul\":5108:5119   */\n      swap1\n      pop\n        /* \"#utility.yul\":5146:5150   */\n      0x20\n        /* \"#utility.yul\":5141:5144   */\n      dup3\n        /* \"#utility.yul\":5137:5151   */\n      add\n        /* \"#utility.yul\":5129:5151   */\n      swap1\n      pop\n        /* \"#utility.yul\":4999:5158   */\n      swap2\n      swap1\n      pop\n      jump\t// out\n        /* \"#utility.yul\":5164:5272   */\n    tag_150:\n        /* \"#utility.yul\":5241:5265   */\n      tag_240\n        /* \"#utility.yul\":5259:5264   */\n      dup2\n        /* \"#utility.yul\":5241:5265   */\n      tag_141\n      jump\t// in\n    tag_240:\n        /* \"#utility.yul\":5236:5239   */\n      dup3\n        /* \"#utility.yul\":5229:5266   */\n      mstore\n        /* \"#utility.yul\":5164:5272   */\n      pop\n      pop\n      jump\t// out\n        /* \"#utility.yul\":5376:6052   */\n    tag_151:\n        /* \"#utility.yul\":5517:5521   */\n      0x60\n        /* \"#utility.yul\":5512:5515   */\n      dup3\n        /* \"#utility.yul\":5508:5522   */\n      add\n        /* \"#utility.yul\":5602:5606   */\n      0x00\n        /* \"#utility.yul\":5595:5600   */\n      dup3\n        /* \"#utility.yul\":5591:5607   */\n      add\n        /* \"#utility.yul\":5585:5608   */\n      mload\n        /* \"#utility.yul\":5621:5684   */\n      tag_242\n        /* \"#utility.yul\":5678:5682   */\n      0x00\n        /* \"#utility.yul\":5673:5676   */\n      dup6\n        /* \"#utility.yul\":5669:5683   */\n      add\n        /* \"#utility.yul\":5655:5667   */\n      dup3\n        /* \"#utility.yul\":5621:5684   */\n      tag_150\n      jump\t// in\n    tag_242:\n        /* \"#utility.yul\":5532:5694   */\n      pop\n        /* \"#utility.yul\":5777:5781   */\n      0x20\n        /* \"#utility.yul\":5770:5775   */\n      dup3\n        /* \"#utility.yul\":5766:5782   */\n      add\n        /* \"#utility.yul\":5760:5783   */\n      mload\n        /* \"#utility.yul\":5796:5859   */\n      tag_243\n        /* \"#utility.yul\":5853:5857   */\n      0x20\n        /* \"#utility.yul\":5848:5851   */\n      dup6\n        /* \"#utility.yul\":5844:5858   */\n      add\n        /* \"#utility.yul\":5830:5842   */\n      dup3\n        /* \"#utility.yul\":5796:5859   */\n      tag_150\n      jump\t// in\n    tag_243:\n        /* \"#utility.yul\":5704:5869   */\n      pop\n        /* \"#utility.yul\":5953:5957   */\n      0x40\n        /* \"#utility.yul\":5946:5951   */\n      dup3\n        /* \"#utility.yul\":5942:5958   */\n      add\n        /* \"#utility.yul\":5936:5959   */\n      mload\n        /* \"#utility.yul\":5972:6035   */\n      tag_244\n        /* \"#utility.yul\":6029:6033   */\n      0x40\n        /* \"#utility.yul\":6024:6027   */\n      dup6\n        /* \"#utility.yul\":6020:6034   */\n      add\n        /* \"#utility.yul\":6006:6018   */\n      dup3\n        /* \"#utility.yul\":5972:6035   */\n      tag_150\n      jump\t// in\n    tag_244:\n        /* \"#utility.yul\":5879:6045   */\n      pop\n        /* \"#utility.yul\":5486:6052   */\n      pop\n        /* \"#utility.yul\":5376:6052   */\n      pop\n      pop\n      jump\t// out\n        /* \"#utility.yul\":6058:6345   */\n    tag_152:\n        /* \"#utility.yul\":6181:6191   */\n      0x00\n        /* \"#utility.yul\":6202:6302   */\n      tag_246\n        /* \"#utility.yul\":6298:6301   */\n      dup4\n        /* \"#utility.yul\":6290:6296   */\n      dup4\n        /* \"#utility.yul\":6202:6302   */\n      tag_151\n      jump\t// in\n    tag_246:\n        /* \"#utility.yul\":6334:6338   */\n      0x60\n        /* \"#utility.yul\":6329:6332   */\n      dup4\n        /* \"#utility.yul\":6325:6339   */\n      add\n        /* \"#utility.yul\":6311:6339   */\n      swap1\n      pop\n        /* \"#utility.yul\":6058:6345   */\n      swap3\n      swap2\n      pop\n      pop\n      jump\t// out\n        /* \"#utility.yul\":6351:6491   */\n    tag_153:\n        /* \"#utility.yul\":6448:6452   */\n      0x00\n        /* \"#utility.yul\":6480:6484   */\n      0x20\n        /* \"#utility.yul\":6475:6478   */\n      dup3\n        /* \"#utility.yul\":6471:6485   */\n      add\n        /* \"#utility.yul\":6463:6485   */\n      swap1\n      pop\n        /* \"#utility.yul\":6351:6491   */\n      swap2\n      swap1\n      pop\n      jump\t// out\n        /* \"#utility.yul\":6599:7547   */\n    tag_154:\n        /* \"#utility.yul\":6772:6775   */\n      0x00\n        /* \"#utility.yul\":6801:6882   */\n      tag_249\n        /* \"#utility.yul\":6876:6881   */\n      dup3\n        /* \"#utility.yul\":6801:6882   */\n      tag_147\n      jump\t// in\n    tag_249:\n        /* \"#utility.yul\":6898:7011   */\n      tag_250\n        /* \"#utility.yul\":7004:7010   */\n      dup2\n        /* \"#utility.yul\":6999:7002   */\n      dup6\n        /* \"#utility.yul\":6898:7011   */\n      tag_148\n      jump\t// in\n    tag_250:\n        /* \"#utility.yul\":6891:7011   */\n      swap4\n      pop\n        /* \"#utility.yul\":7035:7118   */\n      tag_251\n        /* \"#utility.yul\":7112:7117   */\n      dup4\n        /* \"#utility.yul\":7035:7118   */\n      tag_149\n      jump\t// in\n    tag_251:\n        /* \"#utility.yul\":7141:7148   */\n      dup1\n        /* \"#utility.yul\":7172:7173   */\n      0x00\n        /* \"#utility.yul\":7157:7522   */\n    tag_252:\n        /* \"#utility.yul\":7182:7188   */\n      dup4\n        /* \"#utility.yul\":7179:7180   */\n      dup2\n        /* \"#utility.yul\":7176:7189   */\n      lt\n        /* \"#utility.yul\":7157:7522   */\n      iszero\n      tag_254\n      jumpi\n        /* \"#utility.yul\":7258:7264   */\n      dup2\n        /* \"#utility.yul\":7252:7265   */\n      mload\n        /* \"#utility.yul\":7285:7402   */\n      tag_255\n        /* \"#utility.yul\":7398:7401   */\n      dup9\n        /* \"#utility.yul\":7383:7396   */\n      dup3\n        /* \"#utility.yul\":7285:7402   */\n      tag_152\n      jump\t// in\n    tag_255:\n        /* \"#utility.yul\":7278:7402   */\n      swap8\n      pop\n        /* \"#utility.yul\":7425:7512   */\n      tag_256\n        /* \"#utility.yul\":7505:7511   */\n      dup4\n        /* \"#utility.yul\":7425:7512   */\n      tag_153\n      jump\t// in\n    tag_256:\n        /* \"#utility.yul\":7415:7512   */\n      swap3\n      pop\n        /* \"#utility.yul\":7217:7522   */\n      pop\n        /* \"#utility.yul\":7204:7205   */\n      0x01\n        /* \"#utility.yul\":7201:7202   */\n      dup2\n        /* \"#utility.yul\":7197:7206   */\n      add\n        /* \"#utility.yul\":7192:7206   */\n      swap1\n      pop\n        /* \"#utility.yul\":7157:7522   */\n      jump(tag_252)\n    tag_254:\n        /* \"#utility.yul\":7161:7175   */\n      pop\n        /* \"#utility.yul\":7538:7541   */\n      dup6\n        /* \"#utility.yul\":7531:7541   */\n      swap4\n      pop\n        /* \"#utility.yul\":6777:7547   */\n      pop\n      pop\n      pop\n        /* \"#utility.yul\":6599:7547   */\n      swap3\n      swap2\n      pop\n      pop\n      jump\t// out\n        /* \"#utility.yul\":7553:8034   */\n    tag_43:\n        /* \"#utility.yul\":7750:7754   */\n      0x00\n        /* \"#utility.yul\":7788:7790   */\n      0x20\n        /* \"#utility.yul\":7777:7786   */\n      dup3\n        /* \"#utility.yul\":7773:7791   */\n      add\n        /* \"#utility.yul\":7765:7791   */\n      swap1\n      pop\n        /* \"#utility.yul\":7837:7846   */\n      dup2\n        /* \"#utility.yul\":7831:7835   */\n      dup2\n        /* \"#utility.yul\":7827:7847   */\n      sub\n        /* \"#utility.yul\":7823:7824   */\n      0x00\n        /* \"#utility.yul\":7812:7821   */\n      dup4\n        /* \"#utility.yul\":7808:7825   */\n      add\n        /* \"#utility.yul\":7801:7848   */\n      mstore\n        /* \"#utility.yul\":7865:8027   */\n      tag_258\n        /* \"#utility.yul\":8022:8026   */\n      dup2\n        /* \"#utility.yul\":8013:8019   */\n      dup5\n        /* \"#utility.yul\":7865:8027   */\n      tag_154\n      jump\t// in\n    tag_258:\n        /* \"#utility.yul\":7857:8027   */\n      swap1\n      pop\n        /* \"#utility.yul\":7553:8034   */\n      swap3\n      swap2\n      pop\n      pop\n      jump\t// out\n        /* \"#utility.yul\":8040:8157   */\n    tag_155:\n        /* \"#utility.yul\":8149:8150   */\n      0x00\n        /* \"#utility.yul\":8146:8147   */\n      dup1\n        /* \"#utility.yul\":8139:8151   */\n      revert\n        /* \"#utility.yul\":8163:8265   */\n    tag_156:\n        /* \"#utility.yul\":8204:8210   */\n      0x00\n        /* \"#utility.yul\":8255:8257   */\n      0x1f\n        /* \"#utility.yul\":8251:8258   */\n      not\n        /* \"#utility.yul\":8246:8248   */\n      0x1f\n        /* \"#utility.yul\":8239:8244   */\n      dup4\n        /* \"#utility.yul\":8235:8249   */\n      add\n        /* \"#utility.yul\":8231:8259   */\n      and\n        /* \"#utility.yul\":8221:8259   */\n      swap1\n      pop\n        /* \"#utility.yul\":8163:8265   */\n      swap2\n      swap1\n      pop\n      jump\t// out\n        /* \"#utility.yul\":8271:8451   */\n    tag_76:\n        /* \"#utility.yul\":8319:8396   */\n      0x4e487b7100000000000000000000000000000000000000000000000000000000\n        /* \"#utility.yul\":8316:8317   */\n      0x00\n        /* \"#utility.yul\":8309:8397   */\n      mstore\n        /* \"#utility.yul\":8416:8420   */\n      0x41\n        /* \"#utility.yul\":8413:8414   */\n      0x04\n        /* \"#utility.yul\":8406:8421   */\n      mstore\n        /* \"#utility.yul\":8440:8444   */\n      0x24\n        /* \"#utility.yul\":8437:8438   */\n      0x00\n        /* \"#utility.yul\":8430:8445   */\n      revert\n        /* \"#utility.yul\":8457:8738   */\n    tag_157:\n        /* \"#utility.yul\":8540:8567   */\n      tag_263\n        /* \"#utility.yul\":8562:8566   */\n      dup3\n        /* \"#utility.yul\":8540:8567   */\n      tag_156\n      jump\t// in\n    tag_263:\n        /* \"#utility.yul\":8532:8538   */\n      dup2\n        /* \"#utility.yul\":8528:8568   */\n      add\n        /* \"#utility.yul\":8670:8676   */\n      dup2\n        /* \"#utility.yul\":8658:8668   */\n      dup2\n        /* \"#utility.yul\":8655:8677   */\n      lt\n        /* \"#utility.yul\":8634:8652   */\n      0xffffffffffffffff\n        /* \"#utility.yul\":8622:8632   */\n      dup3\n        /* \"#utility.yul\":8619:8653   */\n      gt\n        /* \"#utility.yul\":8616:8678   */\n      or\n        /* \"#utility.yul\":8613:8701   */\n      iszero\n      tag_264\n      jumpi\n        /* \"#utility.yul\":8681:8699   */\n      tag_265\n      tag_76\n      jump\t// in\n    tag_265:\n        /* \"#utility.yul\":8613:8701   */\n    tag_264:\n        /* \"#utility.yul\":8721:8731   */\n      dup1\n        /* \"#utility.yul\":8717:8719   */\n      0x40\n        /* \"#utility.yul\":8710:8732   */\n      mstore\n        /* \"#utility.yul\":8500:8738   */\n      pop\n        /* \"#utility.yul\":8457:8738   */\n      pop\n      pop\n      jump\t// out\n        /* \"#utility.yul\":8744:8873   */\n    tag_158:\n        /* \"#utility.yul\":8778:8784   */\n      0x00\n        /* \"#utility.yul\":8805:8825   */\n      tag_267\n      tag_134\n      jump\t// in\n    tag_267:\n        /* \"#utility.yul\":8795:8825   */\n      swap1\n      pop\n        /* \"#utility.yul\":8834:8867   */\n      tag_268\n        /* \"#utility.yul\":8862:8866   */\n      dup3\n        /* \"#utility.yul\":8854:8860   */\n      dup3\n        /* \"#utility.yul\":8834:8867   */\n      tag_157\n      jump\t// in\n    tag_268:\n        /* \"#utility.yul\":8744:8873   */\n      swap2\n      swap1\n      pop\n      jump\t// out\n        /* \"#utility.yul\":8879:9190   */\n    tag_159:\n        /* \"#utility.yul\":8956:8960   */\n      0x00\n        /* \"#utility.yul\":9046:9064   */\n      0xffffffffffffffff\n        /* \"#utility.yul\":9038:9044   */\n      dup3\n        /* \"#utility.yul\":9035:9065   */\n      gt\n        /* \"#utility.yul\":9032:9088   */\n      iszero\n      tag_270\n      jumpi\n        /* \"#utility.yul\":9068:9086   */\n      tag_271\n      tag_76\n      jump\t// in\n    tag_271:\n        /* \"#utility.yul\":9032:9088   */\n    tag_270:\n        /* \"#utility.yul\":9118:9122   */\n      0x20\n        /* \"#utility.yul\":9110:9116   */\n      dup3\n        /* \"#utility.yul\":9106:9123   */\n      mul\n        /* \"#utility.yul\":9098:9123   */\n      swap1\n      pop\n        /* \"#utility.yul\":9178:9182   */\n      0x20\n        /* \"#utility.yul\":9172:9176   */\n      dup2\n        /* \"#utility.yul\":9168:9183   */\n      add\n        /* \"#utility.yul\":9160:9183   */\n      swap1\n      pop\n        /* \"#utility.yul\":8879:9190   */\n      swap2\n      swap1\n      pop\n      jump\t// out\n        /* \"#utility.yul\":9196:9313   */\n    tag_160:\n        /* \"#utility.yul\":9305:9306   */\n      0x00\n        /* \"#utility.yul\":9302:9303   */\n      dup1\n        /* \"#utility.yul\":9295:9307   */\n      revert\n        /* \"#utility.yul\":9336:10046   */\n    tag_161:\n        /* \"#utility.yul\":9432:9437   */\n      0x00\n        /* \"#utility.yul\":9457:9538   */\n      tag_274\n        /* \"#utility.yul\":9473:9537   */\n      tag_275\n        /* \"#utility.yul\":9530:9536   */\n      dup5\n        /* \"#utility.yul\":9473:9537   */\n      tag_159\n      jump\t// in\n    tag_275:\n        /* \"#utility.yul\":9457:9538   */\n      tag_158\n      jump\t// in\n    tag_274:\n        /* \"#utility.yul\":9448:9538   */\n      swap1\n      pop\n        /* \"#utility.yul\":9558:9563   */\n      dup1\n        /* \"#utility.yul\":9587:9593   */\n      dup4\n        /* \"#utility.yul\":9580:9585   */\n      dup3\n        /* \"#utility.yul\":9573:9594   */\n      mstore\n        /* \"#utility.yul\":9621:9625   */\n      0x20\n        /* \"#utility.yul\":9614:9619   */\n      dup3\n        /* \"#utility.yul\":9610:9626   */\n      add\n        /* \"#utility.yul\":9603:9626   */\n      swap1\n      pop\n        /* \"#utility.yul\":9674:9678   */\n      0x20\n        /* \"#utility.yul\":9666:9672   */\n      dup5\n        /* \"#utility.yul\":9662:9679   */\n      mul\n        /* \"#utility.yul\":9654:9660   */\n      dup4\n        /* \"#utility.yul\":9650:9680   */\n      add\n        /* \"#utility.yul\":9703:9706   */\n      dup6\n        /* \"#utility.yul\":9695:9701   */\n      dup2\n        /* \"#utility.yul\":9692:9707   */\n      gt\n        /* \"#utility.yul\":9689:9811   */\n      iszero\n      tag_276\n      jumpi\n        /* \"#utility.yul\":9722:9801   */\n      tag_277\n      tag_160\n      jump\t// in\n    tag_277:\n        /* \"#utility.yul\":9689:9811   */\n    tag_276:\n        /* \"#utility.yul\":9837:9843   */\n      dup4\n        /* \"#utility.yul\":9820:10040   */\n    tag_278:\n        /* \"#utility.yul\":9854:9860   */\n      dup2\n        /* \"#utility.yul\":9849:9852   */\n      dup2\n        /* \"#utility.yul\":9846:9861   */\n      lt\n        /* \"#utility.yul\":9820:10040   */\n      iszero\n      tag_280\n      jumpi\n        /* \"#utility.yul\":9929:9932   */\n      dup1\n        /* \"#utility.yul\":9958:9995   */\n      tag_281\n        /* \"#utility.yul\":9991:9994   */\n      dup9\n        /* \"#utility.yul\":9979:9989   */\n      dup3\n        /* \"#utility.yul\":9958:9995   */\n      tag_140\n      jump\t// in\n    tag_281:\n        /* \"#utility.yul\":9953:9956   */\n      dup5\n        /* \"#utility.yul\":9946:9996   */\n      mstore\n        /* \"#utility.yul\":10025:10029   */\n      0x20\n        /* \"#utility.yul\":10020:10023   */\n      dup5\n        /* \"#utility.yul\":10016:10030   */\n      add\n        /* \"#utility.yul\":10009:10030   */\n      swap4\n      pop\n        /* \"#utility.yul\":9896:10040   */\n      pop\n        /* \"#utility.yul\":9880:9884   */\n      0x20\n        /* \"#utility.yul\":9875:9878   */\n      dup2\n        /* \"#utility.yul\":9871:9885   */\n      add\n        /* \"#utility.yul\":9864:9885   */\n      swap1\n      pop\n        /* \"#utility.yul\":9820:10040   */\n      jump(tag_278)\n    tag_280:\n        /* \"#utility.yul\":9824:9845   */\n      pop\n        /* \"#utility.yul\":9438:10046   */\n      pop\n      pop\n        /* \"#utility.yul\":9336:10046   */\n      swap4\n      swap3\n      pop\n      pop\n      pop\n      jump\t// out\n        /* \"#utility.yul\":10069:10439   */\n    tag_162:\n        /* \"#utility.yul\":10140:10145   */\n      0x00\n        /* \"#utility.yul\":10189:10192   */\n      dup3\n        /* \"#utility.yul\":10182:10186   */\n      0x1f\n        /* \"#utility.yul\":10174:10180   */\n      dup4\n        /* \"#utility.yul\":10170:10187   */\n      add\n        /* \"#utility.yul\":10166:10193   */\n      slt\n        /* \"#utility.yul\":10156:10278   */\n      tag_283\n      jumpi\n        /* \"#utility.yul\":10197:10276   */\n      tag_284\n      tag_155\n      jump\t// in\n    tag_284:\n        /* \"#utility.yul\":10156:10278   */\n    tag_283:\n        /* \"#utility.yul\":10314:10320   */\n      dup2\n        /* \"#utility.yul\":10301:10321   */\n      calldataload\n        /* \"#utility.yul\":10339:10433   */\n      tag_285\n        /* \"#utility.yul\":10429:10432   */\n      dup5\n        /* \"#utility.yul\":10421:10427   */\n      dup3\n        /* \"#utility.yul\":10414:10418   */\n      0x20\n        /* \"#utility.yul\":10406:10412   */\n      dup7\n        /* \"#utility.yul\":10402:10419   */\n      add\n        /* \"#utility.yul\":10339:10433   */\n      tag_161\n      jump\t// in\n    tag_285:\n        /* \"#utility.yul\":10330:10433   */\n      swap2\n      pop\n        /* \"#utility.yul\":10146:10439   */\n      pop\n        /* \"#utility.yul\":10069:10439   */\n      swap3\n      swap2\n      pop\n      pop\n      jump\t// out\n        /* \"#utility.yul\":10445:10984   */\n    tag_54:\n        /* \"#utility.yul\":10529:10535   */\n      0x00\n        /* \"#utility.yul\":10578:10580   */\n      0x20\n        /* \"#utility.yul\":10566:10575   */\n      dup3\n        /* \"#utility.yul\":10557:10564   */\n      dup5\n        /* \"#utility.yul\":10553:10576   */\n      sub\n        /* \"#utility.yul\":10549:10581   */\n      slt\n        /* \"#utility.yul\":10546:10665   */\n      iszero\n      tag_287\n      jumpi\n        /* \"#utility.yul\":10584:10663   */\n      tag_288\n      tag_135\n      jump\t// in\n    tag_288:\n        /* \"#utility.yul\":10546:10665   */\n    tag_287:\n        /* \"#utility.yul\":10732:10733   */\n      0x00\n        /* \"#utility.yul\":10721:10730   */\n      dup3\n        /* \"#utility.yul\":10717:10734   */\n      add\n        /* \"#utility.yul\":10704:10735   */\n      calldataload\n        /* \"#utility.yul\":10762:10780   */\n      0xffffffffffffffff\n        /* \"#utility.yul\":10754:10760   */\n      dup2\n        /* \"#utility.yul\":10751:10781   */\n      gt\n        /* \"#utility.yul\":10748:10865   */\n      iszero\n      tag_289\n      jumpi\n        /* \"#utility.yul\":10784:10863   */\n      tag_290\n      tag_136\n      jump\t// in\n    tag_290:\n        /* \"#utility.yul\":10748:10865   */\n    tag_289:\n        /* \"#utility.yul\":10889:10967   */\n      tag_291\n        /* \"#utility.yul\":10959:10966   */\n      dup5\n        /* \"#utility.yul\":10950:10956   */\n      dup3\n        /* \"#utility.yul\":10939:10948   */\n      dup6\n        /* \"#utility.yul\":10935:10957   */\n      add\n        /* \"#utility.yul\":10889:10967   */\n      tag_162\n      jump\t// in\n    tag_291:\n        /* \"#utility.yul\":10879:10967   */\n      swap2\n      pop\n        /* \"#utility.yul\":10675:10977   */\n      pop\n        /* \"#utility.yul\":10445:10984   */\n      swap3\n      swap2\n      pop\n      pop\n      jump\t// out\n        /* \"#utility.yul\":10990:11069   */\n    tag_163:\n        /* \"#utility.yul\":11029:11036   */\n      0x00\n        /* \"#utility.yul\":11058:11063   */\n      dup2\n        /* \"#utility.yul\":11047:11063   */\n      swap1\n      pop\n        /* \"#utility.yul\":10990:11069   */\n      swap2\n      swap1\n      pop\n      jump\t// out\n        /* \"#utility.yul\":11075:11232   */\n    tag_164:\n        /* \"#utility.yul\":11180:11225   */\n      tag_294\n        /* \"#utility.yul\":11200:11224   */\n      tag_295\n        /* \"#utility.yul\":11218:11223   */\n      dup3\n        /* \"#utility.yul\":11200:11224   */\n      tag_141\n      jump\t// in\n    tag_295:\n        /* \"#utility.yul\":11180:11225   */\n      tag_163\n      jump\t// in\n    tag_294:\n        /* \"#utility.yul\":11175:11178   */\n      dup3\n        /* \"#utility.yul\":11168:11226   */\n      mstore\n        /* \"#utility.yul\":11075:11232   */\n      pop\n      pop\n      jump\t// out\n        /* \"#utility.yul\":11238:11332   */\n    tag_165:\n        /* \"#utility.yul\":11271:11279   */\n      0x00\n        /* \"#utility.yul\":11319:11324   */\n      dup2\n        /* \"#utility.yul\":11315:11317   */\n      0x60\n        /* \"#utility.yul\":11311:11325   */\n      shl\n        /* \"#utility.yul\":11290:11325   */\n      swap1\n      pop\n        /* \"#utility.yul\":11238:11332   */\n      swap2\n      swap1\n      pop\n      jump\t// out\n        /* \"#utility.yul\":11338:11432   */\n    tag_166:\n        /* \"#utility.yul\":11377:11384   */\n      0x00\n        /* \"#utility.yul\":11406:11426   */\n      tag_298\n        /* \"#utility.yul\":11420:11425   */\n      dup3\n        /* \"#utility.yul\":11406:11426   */\n      tag_165\n      jump\t// in\n    tag_298:\n        /* \"#utility.yul\":11395:11426   */\n      swap1\n      pop\n        /* \"#utility.yul\":11338:11432   */\n      swap2\n      swap1\n      pop\n      jump\t// out\n        /* \"#utility.yul\":11438:11538   */\n    tag_167:\n        /* \"#utility.yul\":11477:11484   */\n      0x00\n        /* \"#utility.yul\":11506:11532   */\n      tag_300\n        /* \"#utility.yul\":11526:11531   */\n      dup3\n        /* \"#utility.yul\":11506:11532   */\n      tag_166\n      jump\t// in\n    tag_300:\n        /* \"#utility.yul\":11495:11532   */\n      swap1\n      pop\n        /* \"#utility.yul\":11438:11538   */\n      swap2\n      swap1\n      pop\n      jump\t// out\n        /* \"#utility.yul\":11544:11701   */\n    tag_168:\n        /* \"#utility.yul\":11649:11694   */\n      tag_302\n        /* \"#utility.yul\":11669:11693   */\n      tag_303\n        /* \"#utility.yul\":11687:11692   */\n      dup3\n        /* \"#utility.yul\":11669:11693   */\n      tag_138\n      jump\t// in\n    tag_303:\n        /* \"#utility.yul\":11649:11694   */\n      tag_167\n      jump\t// in\n    tag_302:\n        /* \"#utility.yul\":11644:11647   */\n      dup3\n        /* \"#utility.yul\":11637:11695   */\n      mstore\n        /* \"#utility.yul\":11544:11701   */\n      pop\n      pop\n      jump\t// out\n        /* \"#utility.yul\":11707:12527   */\n    tag_67:\n        /* \"#utility.yul\":11931:11934   */\n      0x00\n        /* \"#utility.yul\":11946:12021   */\n      tag_305\n        /* \"#utility.yul\":12017:12020   */\n      dup3\n        /* \"#utility.yul\":12008:12014   */\n      dup9\n        /* \"#utility.yul\":11946:12021   */\n      tag_164\n      jump\t// in\n    tag_305:\n        /* \"#utility.yul\":12046:12048   */\n      0x20\n        /* \"#utility.yul\":12041:12044   */\n      dup3\n        /* \"#utility.yul\":12037:12049   */\n      add\n        /* \"#utility.yul\":12030:12049   */\n      swap2\n      pop\n        /* \"#utility.yul\":12059:12134   */\n      tag_306\n        /* \"#utility.yul\":12130:12133   */\n      dup3\n        /* \"#utility.yul\":12121:12127   */\n      dup8\n        /* \"#utility.yul\":12059:12134   */\n      tag_164\n      jump\t// in\n    tag_306:\n        /* \"#utility.yul\":12159:12161   */\n      0x20\n        /* \"#utility.yul\":12154:12157   */\n      dup3\n        /* \"#utility.yul\":12150:12162   */\n      add\n        /* \"#utility.yul\":12143:12162   */\n      swap2\n      pop\n        /* \"#utility.yul\":12172:12247   */\n      tag_307\n        /* \"#utility.yul\":12243:12246   */\n      dup3\n        /* \"#utility.yul\":12234:12240   */\n      dup7\n        /* \"#utility.yul\":12172:12247   */\n      tag_164\n      jump\t// in\n    tag_307:\n        /* \"#utility.yul\":12272:12274   */\n      0x20\n        /* \"#utility.yul\":12267:12270   */\n      dup3\n        /* \"#utility.yul\":12263:12275   */\n      add\n        /* \"#utility.yul\":12256:12275   */\n      swap2\n      pop\n        /* \"#utility.yul\":12285:12360   */\n      tag_308\n        /* \"#utility.yul\":12356:12359   */\n      dup3\n        /* \"#utility.yul\":12347:12353   */\n      dup6\n        /* \"#utility.yul\":12285:12360   */\n      tag_168\n      jump\t// in\n    tag_308:\n        /* \"#utility.yul\":12385:12387   */\n      0x14\n        /* \"#utility.yul\":12380:12383   */\n      dup3\n        /* \"#utility.yul\":12376:12388   */\n      add\n        /* \"#utility.yul\":12369:12388   */\n      swap2\n      pop\n        /* \"#utility.yul\":12398:12473   */\n      tag_309\n        /* \"#utility.yul\":12469:12472   */\n      dup3\n        /* \"#utility.yul\":12460:12466   */\n      dup5\n        /* \"#utility.yul\":12398:12473   */\n      tag_164\n      jump\t// in\n    tag_309:\n        /* \"#utility.yul\":12498:12500   */\n      0x20\n        /* \"#utility.yul\":12493:12496   */\n      dup3\n        /* \"#utility.yul\":12489:12501   */\n      add\n        /* \"#utility.yul\":12482:12501   */\n      swap2\n      pop\n        /* \"#utility.yul\":12518:12521   */\n      dup2\n        /* \"#utility.yul\":12511:12521   */\n      swap1\n      pop\n        /* \"#utility.yul\":11707:12527   */\n      swap7\n      swap6\n      pop\n      pop\n      pop\n      pop\n      pop\n      pop\n      jump\t// out\n        /* \"#utility.yul\":12533:12702   */\n    tag_169:\n        /* \"#utility.yul\":12617:12628   */\n      0x00\n        /* \"#utility.yul\":12651:12657   */\n      dup3\n        /* \"#utility.yul\":12646:12649   */\n      dup3\n        /* \"#utility.yul\":12639:12658   */\n      mstore\n        /* \"#utility.yul\":12691:12695   */\n      0x20\n        /* \"#utility.yul\":12686:12689   */\n      dup3\n        /* \"#utility.yul\":12682:12696   */\n      add\n        /* \"#utility.yul\":12667:12696   */\n      swap1\n      pop\n        /* \"#utility.yul\":12533:12702   */\n      swap3\n      swap2\n      pop\n      pop\n      jump\t// out\n        /* \"#utility.yul\":12708:12958   */\n    tag_170:\n        /* \"#utility.yul\":12848:12882   */\n      0x436f6e74726f6c6c6f2064656c6c61205175616e746974612720646120757469\n        /* \"#utility.yul\":12844:12845   */\n      0x00\n        /* \"#utility.yul\":12836:12842   */\n      dup3\n        /* \"#utility.yul\":12832:12846   */\n      add\n        /* \"#utility.yul\":12825:12883   */\n      mstore\n        /* \"#utility.yul\":12917:12950   */\n      0x6c697a7a617265206e6f6e20616e6461746120612062756f6e2066696e652100\n        /* \"#utility.yul\":12912:12914   */\n      0x20\n        /* \"#utility.yul\":12904:12910   */\n      dup3\n        /* \"#utility.yul\":12900:12915   */\n      add\n        /* \"#utility.yul\":12893:12951   */\n      mstore\n        /* \"#utility.yul\":12708:12958   */\n      pop\n      jump\t// out\n        /* \"#utility.yul\":12964:13330   */\n    tag_171:\n        /* \"#utility.yul\":13106:13109   */\n      0x00\n        /* \"#utility.yul\":13127:13194   */\n      tag_313\n        /* \"#utility.yul\":13191:13193   */\n      0x3f\n        /* \"#utility.yul\":13186:13189   */\n      dup4\n        /* \"#utility.yul\":13127:13194   */\n      tag_169\n      jump\t// in\n    tag_313:\n        /* \"#utility.yul\":13120:13194   */\n      swap2\n      pop\n        /* \"#utility.yul\":13203:13296   */\n      tag_314\n        /* \"#utility.yul\":13292:13295   */\n      dup3\n        /* \"#utility.yul\":13203:13296   */\n      tag_170\n      jump\t// in\n    tag_314:\n        /* \"#utility.yul\":13321:13323   */\n      0x40\n        /* \"#utility.yul\":13316:13319   */\n      dup3\n        /* \"#utility.yul\":13312:13324   */\n      add\n        /* \"#utility.yul\":13305:13324   */\n      swap1\n      pop\n        /* \"#utility.yul\":12964:13330   */\n      swap2\n      swap1\n      pop\n      jump\t// out\n        /* \"#utility.yul\":13336:13755   */\n    tag_72:\n        /* \"#utility.yul\":13502:13506   */\n      0x00\n        /* \"#utility.yul\":13540:13542   */\n      0x20\n        /* \"#utility.yul\":13529:13538   */\n      dup3\n        /* \"#utility.yul\":13525:13543   */\n      add\n        /* \"#utility.yul\":13517:13543   */\n      swap1\n      pop\n        /* \"#utility.yul\":13589:13598   */\n      dup2\n        /* \"#utility.yul\":13583:13587   */\n      dup2\n        /* \"#utility.yul\":13579:13599   */\n      sub\n        /* \"#utility.yul\":13575:13576   */\n      0x00\n        /* \"#utility.yul\":13564:13573   */\n      dup4\n        /* \"#utility.yul\":13560:13577   */\n      add\n        /* \"#utility.yul\":13553:13600   */\n      mstore\n        /* \"#utility.yul\":13617:13748   */\n      tag_316\n        /* \"#utility.yul\":13743:13747   */\n      dup2\n        /* \"#utility.yul\":13617:13748   */\n      tag_171\n      jump\t// in\n    tag_316:\n        /* \"#utility.yul\":13609:13748   */\n      swap1\n      pop\n        /* \"#utility.yul\":13336:13755   */\n      swap2\n      swap1\n      pop\n      jump\t// out\n        /* \"#utility.yul\":13761:13941   */\n    tag_86:\n        /* \"#utility.yul\":13809:13886   */\n      0x4e487b7100000000000000000000000000000000000000000000000000000000\n        /* \"#utility.yul\":13806:13807   */\n      0x00\n        /* \"#utility.yul\":13799:13887   */\n      mstore\n        /* \"#utility.yul\":13906:13910   */\n      0x32\n        /* \"#utility.yul\":13903:13904   */\n      0x04\n        /* \"#utility.yul\":13896:13911   */\n      mstore\n        /* \"#utility.yul\":13930:13934   */\n      0x24\n        /* \"#utility.yul\":13927:13928   */\n      0x00\n        /* \"#utility.yul\":13920:13935   */\n      revert\n        /* \"#utility.yul\":13947:14123   */\n    tag_172:\n        /* \"#utility.yul\":14087:14115   */\n      0x4944204368656573655069656365204e6f6e2056616c69646f21000000000000\n        /* \"#utility.yul\":14083:14084   */\n      0x00\n        /* \"#utility.yul\":14075:14081   */\n      dup3\n        /* \"#utility.yul\":14071:14085   */\n      add\n        /* \"#utility.yul\":14064:14116   */\n      mstore\n        /* \"#utility.yul\":13947:14123   */\n      pop\n      jump\t// out\n        /* \"#utility.yul\":14129:14495   */\n    tag_173:\n        /* \"#utility.yul\":14271:14274   */\n      0x00\n        /* \"#utility.yul\":14292:14359   */\n      tag_320\n        /* \"#utility.yul\":14356:14358   */\n      0x1a\n        /* \"#utility.yul\":14351:14354   */\n      dup4\n        /* \"#utility.yul\":14292:14359   */\n      tag_169\n      jump\t// in\n    tag_320:\n        /* \"#utility.yul\":14285:14359   */\n      swap2\n      pop\n        /* \"#utility.yul\":14368:14461   */\n      tag_321\n        /* \"#utility.yul\":14457:14460   */\n      dup3\n        /* \"#utility.yul\":14368:14461   */\n      tag_172\n      jump\t// in\n    tag_321:\n        /* \"#utility.yul\":14486:14488   */\n      0x20\n        /* \"#utility.yul\":14481:14484   */\n      dup3\n        /* \"#utility.yul\":14477:14489   */\n      add\n        /* \"#utility.yul\":14470:14489   */\n      swap1\n      pop\n        /* \"#utility.yul\":14129:14495   */\n      swap2\n      swap1\n      pop\n      jump\t// out\n        /* \"#utility.yul\":14501:14920   */\n    tag_95:\n        /* \"#utility.yul\":14667:14671   */\n      0x00\n        /* \"#utility.yul\":14705:14707   */\n      0x20\n        /* \"#utility.yul\":14694:14703   */\n      dup3\n        /* \"#utility.yul\":14690:14708   */\n      add\n        /* \"#utility.yul\":14682:14708   */\n      swap1\n      pop\n        /* \"#utility.yul\":14754:14763   */\n      dup2\n        /* \"#utility.yul\":14748:14752   */\n      dup2\n        /* \"#utility.yul\":14744:14764   */\n      sub\n        /* \"#utility.yul\":14740:14741   */\n      0x00\n        /* \"#utility.yul\":14729:14738   */\n      dup4\n        /* \"#utility.yul\":14725:14742   */\n      add\n        /* \"#utility.yul\":14718:14765   */\n      mstore\n        /* \"#utility.yul\":14782:14913   */\n      tag_323\n        /* \"#utility.yul\":14908:14912   */\n      dup2\n        /* \"#utility.yul\":14782:14913   */\n      tag_173\n      jump\t// in\n    tag_323:\n        /* \"#utility.yul\":14774:14913   */\n      swap1\n      pop\n        /* \"#utility.yul\":14501:14920   */\n      swap2\n      swap1\n      pop\n      jump\t// out\n        /* \"#utility.yul\":14926:15044   */\n    tag_174:\n        /* \"#utility.yul\":15013:15037   */\n      tag_325\n        /* \"#utility.yul\":15031:15036   */\n      dup2\n        /* \"#utility.yul\":15013:15037   */\n      tag_138\n      jump\t// in\n    tag_325:\n        /* \"#utility.yul\":15008:15011   */\n      dup3\n        /* \"#utility.yul\":15001:15038   */\n      mstore\n        /* \"#utility.yul\":14926:15044   */\n      pop\n      pop\n      jump\t// out\n        /* \"#utility.yul\":15050:15272   */\n    tag_109:\n        /* \"#utility.yul\":15143:15147   */\n      0x00\n        /* \"#utility.yul\":15181:15183   */\n      0x20\n        /* \"#utility.yul\":15170:15179   */\n      dup3\n        /* \"#utility.yul\":15166:15184   */\n      add\n        /* \"#utility.yul\":15158:15184   */\n      swap1\n      pop\n        /* \"#utility.yul\":15194:15265   */\n      tag_327\n        /* \"#utility.yul\":15262:15263   */\n      0x00\n        /* \"#utility.yul\":15251:15260   */\n      dup4\n        /* \"#utility.yul\":15247:15264   */\n      add\n        /* \"#utility.yul\":15238:15244   */\n      dup5\n        /* \"#utility.yul\":15194:15265   */\n      tag_174\n      jump\t// in\n    tag_327:\n        /* \"#utility.yul\":15050:15272   */\n      swap3\n      swap2\n      pop\n      pop\n      jump\t// out\n        /* \"#utility.yul\":15278:15616   */\n    tag_175:\n        /* \"#utility.yul\":15382:15386   */\n      0x00\n        /* \"#utility.yul\":15472:15490   */\n      0xffffffffffffffff\n        /* \"#utility.yul\":15464:15470   */\n      dup3\n        /* \"#utility.yul\":15461:15491   */\n      gt\n        /* \"#utility.yul\":15458:15514   */\n      iszero\n      tag_329\n      jumpi\n        /* \"#utility.yul\":15494:15512   */\n      tag_330\n      tag_76\n      jump\t// in\n    tag_330:\n        /* \"#utility.yul\":15458:15514   */\n    tag_329:\n        /* \"#utility.yul\":15544:15548   */\n      0x20\n        /* \"#utility.yul\":15536:15542   */\n      dup3\n        /* \"#utility.yul\":15532:15549   */\n      mul\n        /* \"#utility.yul\":15524:15549   */\n      swap1\n      pop\n        /* \"#utility.yul\":15604:15608   */\n      0x20\n        /* \"#utility.yul\":15598:15602   */\n      dup2\n        /* \"#utility.yul\":15594:15609   */\n      add\n        /* \"#utility.yul\":15586:15609   */\n      swap1\n      pop\n        /* \"#utility.yul\":15278:15616   */\n      swap2\n      swap1\n      pop\n      jump\t// out\n        /* \"#utility.yul\":15622:15739   */\n    tag_176:\n        /* \"#utility.yul\":15731:15732   */\n      0x00\n        /* \"#utility.yul\":15728:15729   */\n      dup1\n        /* \"#utility.yul\":15721:15733   */\n      revert\n        /* \"#utility.yul\":15868:16011   */\n    tag_178:\n        /* \"#utility.yul\":15925:15930   */\n      0x00\n        /* \"#utility.yul\":15956:15962   */\n      dup2\n        /* \"#utility.yul\":15950:15963   */\n      mload\n        /* \"#utility.yul\":15941:15963   */\n      swap1\n      pop\n        /* \"#utility.yul\":15972:16005   */\n      tag_334\n        /* \"#utility.yul\":15999:16004   */\n      dup2\n        /* \"#utility.yul\":15972:16005   */\n      tag_142\n      jump\t// in\n    tag_334:\n        /* \"#utility.yul\":15868:16011   */\n      swap3\n      swap2\n      pop\n      pop\n      jump\t// out\n        /* \"#utility.yul\":16068:16850   */\n    tag_179:\n        /* \"#utility.yul\":16155:16160   */\n      0x00\n        /* \"#utility.yul\":16199:16203   */\n      0x60\n        /* \"#utility.yul\":16187:16196   */\n      dup3\n        /* \"#utility.yul\":16182:16185   */\n      dup5\n        /* \"#utility.yul\":16178:16197   */\n      sub\n        /* \"#utility.yul\":16174:16204   */\n      slt\n        /* \"#utility.yul\":16171:16288   */\n      iszero\n      tag_336\n      jumpi\n        /* \"#utility.yul\":16207:16286   */\n      tag_337\n      tag_176\n      jump\t// in\n    tag_337:\n        /* \"#utility.yul\":16171:16288   */\n    tag_336:\n        /* \"#utility.yul\":16306:16327   */\n      tag_338\n        /* \"#utility.yul\":16322:16326   */\n      0x60\n        /* \"#utility.yul\":16306:16327   */\n      tag_158\n      jump\t// in\n    tag_338:\n        /* \"#utility.yul\":16297:16327   */\n      swap1\n      pop\n        /* \"#utility.yul\":16384:16385   */\n      0x00\n        /* \"#utility.yul\":16424:16484   */\n      tag_339\n        /* \"#utility.yul\":16480:16483   */\n      dup5\n        /* \"#utility.yul\":16471:16477   */\n      dup3\n        /* \"#utility.yul\":16460:16469   */\n      dup6\n        /* \"#utility.yul\":16456:16478   */\n      add\n        /* \"#utility.yul\":16424:16484   */\n      tag_178\n      jump\t// in\n    tag_339:\n        /* \"#utility.yul\":16417:16421   */\n      0x00\n        /* \"#utility.yul\":16410:16415   */\n      dup4\n        /* \"#utility.yul\":16406:16422   */\n      add\n        /* \"#utility.yul\":16399:16485   */\n      mstore\n        /* \"#utility.yul\":16337:16496   */\n      pop\n        /* \"#utility.yul\":16556:16558   */\n      0x20\n        /* \"#utility.yul\":16597:16657   */\n      tag_340\n        /* \"#utility.yul\":16653:16656   */\n      dup5\n        /* \"#utility.yul\":16644:16650   */\n      dup3\n        /* \"#utility.yul\":16633:16642   */\n      dup6\n        /* \"#utility.yul\":16629:16651   */\n      add\n        /* \"#utility.yul\":16597:16657   */\n      tag_178\n      jump\t// in\n    tag_340:\n        /* \"#utility.yul\":16590:16594   */\n      0x20\n        /* \"#utility.yul\":16583:16588   */\n      dup4\n        /* \"#utility.yul\":16579:16595   */\n      add\n        /* \"#utility.yul\":16572:16658   */\n      mstore\n        /* \"#utility.yul\":16506:16669   */\n      pop\n        /* \"#utility.yul\":16730:16732   */\n      0x40\n        /* \"#utility.yul\":16771:16831   */\n      tag_341\n        /* \"#utility.yul\":16827:16830   */\n      dup5\n        /* \"#utility.yul\":16818:16824   */\n      dup3\n        /* \"#utility.yul\":16807:16816   */\n      dup6\n        /* \"#utility.yul\":16803:16825   */\n      add\n        /* \"#utility.yul\":16771:16831   */\n      tag_178\n      jump\t// in\n    tag_341:\n        /* \"#utility.yul\":16764:16768   */\n      0x40\n        /* \"#utility.yul\":16757:16762   */\n      dup4\n        /* \"#utility.yul\":16753:16769   */\n      add\n        /* \"#utility.yul\":16746:16832   */\n      mstore\n        /* \"#utility.yul\":16679:16843   */\n      pop\n        /* \"#utility.yul\":16068:16850   */\n      swap3\n      swap2\n      pop\n      pop\n      jump\t// out\n        /* \"#utility.yul\":16909:17722   */\n    tag_180:\n        /* \"#utility.yul\":17043:17048   */\n      0x00\n        /* \"#utility.yul\":17068:17176   */\n      tag_343\n        /* \"#utility.yul\":17084:17175   */\n      tag_344\n        /* \"#utility.yul\":17168:17174   */\n      dup5\n        /* \"#utility.yul\":17084:17175   */\n      tag_175\n      jump\t// in\n    tag_344:\n        /* \"#utility.yul\":17068:17176   */\n      tag_158\n      jump\t// in\n    tag_343:\n        /* \"#utility.yul\":17059:17176   */\n      swap1\n      pop\n        /* \"#utility.yul\":17196:17201   */\n      dup1\n        /* \"#utility.yul\":17225:17231   */\n      dup4\n        /* \"#utility.yul\":17218:17223   */\n      dup3\n        /* \"#utility.yul\":17211:17232   */\n      mstore\n        /* \"#utility.yul\":17259:17263   */\n      0x20\n        /* \"#utility.yul\":17252:17257   */\n      dup3\n        /* \"#utility.yul\":17248:17264   */\n      add\n        /* \"#utility.yul\":17241:17264   */\n      swap1\n      pop\n        /* \"#utility.yul\":17312:17316   */\n      0x60\n        /* \"#utility.yul\":17304:17310   */\n      dup5\n        /* \"#utility.yul\":17300:17317   */\n      mul\n        /* \"#utility.yul\":17292:17298   */\n      dup4\n        /* \"#utility.yul\":17288:17318   */\n      add\n        /* \"#utility.yul\":17341:17344   */\n      dup6\n        /* \"#utility.yul\":17333:17339   */\n      dup2\n        /* \"#utility.yul\":17330:17345   */\n      gt\n        /* \"#utility.yul\":17327:17449   */\n      iszero\n      tag_345\n      jumpi\n        /* \"#utility.yul\":17360:17439   */\n      tag_346\n      tag_160\n      jump\t// in\n    tag_346:\n        /* \"#utility.yul\":17327:17449   */\n    tag_345:\n        /* \"#utility.yul\":17475:17481   */\n      dup4\n        /* \"#utility.yul\":17458:17716   */\n    tag_347:\n        /* \"#utility.yul\":17492:17498   */\n      dup2\n        /* \"#utility.yul\":17487:17490   */\n      dup2\n        /* \"#utility.yul\":17484:17499   */\n      lt\n        /* \"#utility.yul\":17458:17716   */\n      iszero\n      tag_349\n      jumpi\n        /* \"#utility.yul\":17567:17570   */\n      dup1\n        /* \"#utility.yul\":17596:17671   */\n      tag_350\n        /* \"#utility.yul\":17667:17670   */\n      dup9\n        /* \"#utility.yul\":17655:17665   */\n      dup3\n        /* \"#utility.yul\":17596:17671   */\n      tag_179\n      jump\t// in\n    tag_350:\n        /* \"#utility.yul\":17591:17594   */\n      dup5\n        /* \"#utility.yul\":17584:17672   */\n      mstore\n        /* \"#utility.yul\":17701:17705   */\n      0x20\n        /* \"#utility.yul\":17696:17699   */\n      dup5\n        /* \"#utility.yul\":17692:17706   */\n      add\n        /* \"#utility.yul\":17685:17706   */\n      swap4\n      pop\n        /* \"#utility.yul\":17534:17716   */\n      pop\n        /* \"#utility.yul\":17518:17522   */\n      0x60\n        /* \"#utility.yul\":17513:17516   */\n      dup2\n        /* \"#utility.yul\":17509:17523   */\n      add\n        /* \"#utility.yul\":17502:17523   */\n      swap1\n      pop\n        /* \"#utility.yul\":17458:17716   */\n      jump(tag_347)\n    tag_349:\n        /* \"#utility.yul\":17462:17483   */\n      pop\n        /* \"#utility.yul\":17049:17722   */\n      pop\n      pop\n        /* \"#utility.yul\":16909:17722   */\n      swap4\n      swap3\n      pop\n      pop\n      pop\n      jump\t// out\n        /* \"#utility.yul\":17781:18220   */\n    tag_181:\n        /* \"#utility.yul\":17890:17895   */\n      0x00\n        /* \"#utility.yul\":17939:17942   */\n      dup3\n        /* \"#utility.yul\":17932:17936   */\n      0x1f\n        /* \"#utility.yul\":17924:17930   */\n      dup4\n        /* \"#utility.yul\":17920:17937   */\n      add\n        /* \"#utility.yul\":17916:17943   */\n      slt\n        /* \"#utility.yul\":17906:18028   */\n      tag_352\n      jumpi\n        /* \"#utility.yul\":17947:18026   */\n      tag_353\n      tag_155\n      jump\t// in\n    tag_353:\n        /* \"#utility.yul\":17906:18028   */\n    tag_352:\n        /* \"#utility.yul\":18057:18063   */\n      dup2\n        /* \"#utility.yul\":18051:18064   */\n      mload\n        /* \"#utility.yul\":18082:18214   */\n      tag_354\n        /* \"#utility.yul\":18210:18213   */\n      dup5\n        /* \"#utility.yul\":18202:18208   */\n      dup3\n        /* \"#utility.yul\":18195:18199   */\n      0x20\n        /* \"#utility.yul\":18187:18193   */\n      dup7\n        /* \"#utility.yul\":18183:18200   */\n      add\n        /* \"#utility.yul\":18082:18214   */\n      tag_180\n      jump\t// in\n    tag_354:\n        /* \"#utility.yul\":18073:18214   */\n      swap2\n      pop\n        /* \"#utility.yul\":17896:18220   */\n      pop\n        /* \"#utility.yul\":17781:18220   */\n      swap3\n      swap2\n      pop\n      pop\n      jump\t// out\n        /* \"#utility.yul\":18226:18834   */\n    tag_113:\n        /* \"#utility.yul\":18348:18354   */\n      0x00\n        /* \"#utility.yul\":18397:18399   */\n      0x20\n        /* \"#utility.yul\":18385:18394   */\n      dup3\n        /* \"#utility.yul\":18376:18383   */\n      dup5\n        /* \"#utility.yul\":18372:18395   */\n      sub\n        /* \"#utility.yul\":18368:18400   */\n      slt\n        /* \"#utility.yul\":18365:18484   */\n      iszero\n      tag_356\n      jumpi\n        /* \"#utility.yul\":18403:18482   */\n      tag_357\n      tag_135\n      jump\t// in\n    tag_357:\n        /* \"#utility.yul\":18365:18484   */\n    tag_356:\n        /* \"#utility.yul\":18544:18545   */\n      0x00\n        /* \"#utility.yul\":18533:18542   */\n      dup3\n        /* \"#utility.yul\":18529:18546   */\n      add\n        /* \"#utility.yul\":18523:18547   */\n      mload\n        /* \"#utility.yul\":18574:18592   */\n      0xffffffffffffffff\n        /* \"#utility.yul\":18566:18572   */\n      dup2\n        /* \"#utility.yul\":18563:18593   */\n      gt\n        /* \"#utility.yul\":18560:18677   */\n      iszero\n      tag_358\n      jumpi\n        /* \"#utility.yul\":18596:18675   */\n      tag_359\n      tag_136\n      jump\t// in\n    tag_359:\n        /* \"#utility.yul\":18560:18677   */\n    tag_358:\n        /* \"#utility.yul\":18701:18817   */\n      tag_360\n        /* \"#utility.yul\":18809:18816   */\n      dup5\n        /* \"#utility.yul\":18800:18806   */\n      dup3\n        /* \"#utility.yul\":18789:18798   */\n      dup6\n        /* \"#utility.yul\":18785:18807   */\n      add\n        /* \"#utility.yul\":18701:18817   */\n      tag_181\n      jump\t// in\n    tag_360:\n        /* \"#utility.yul\":18691:18817   */\n      swap2\n      pop\n        /* \"#utility.yul\":18494:18827   */\n      pop\n        /* \"#utility.yul\":18226:18834   */\n      swap3\n      swap2\n      pop\n      pop\n      jump\t// out\n        /* \"#utility.yul\":18840:19020   */\n    tag_182:\n        /* \"#utility.yul\":18888:18965   */\n      0x4e487b7100000000000000000000000000000000000000000000000000000000\n        /* \"#utility.yul\":18885:18886   */\n      0x00\n        /* \"#utility.yul\":18878:18966   */\n      mstore\n        /* \"#utility.yul\":18985:18989   */\n      0x11\n        /* \"#utility.yul\":18982:18983   */\n      0x04\n        /* \"#utility.yul\":18975:18990   */\n      mstore\n        /* \"#utility.yul\":19009:19013   */\n      0x24\n        /* \"#utility.yul\":19006:19007   */\n      0x00\n        /* \"#utility.yul\":18999:19014   */\n      revert\n        /* \"#utility.yul\":19026:19217   */\n    tag_122:\n        /* \"#utility.yul\":19066:19069   */\n      0x00\n        /* \"#utility.yul\":19085:19105   */\n      tag_363\n        /* \"#utility.yul\":19103:19104   */\n      dup3\n        /* \"#utility.yul\":19085:19105   */\n      tag_141\n      jump\t// in\n    tag_363:\n        /* \"#utility.yul\":19080:19105   */\n      swap2\n      pop\n        /* \"#utility.yul\":19119:19139   */\n      tag_364\n        /* \"#utility.yul\":19137:19138   */\n      dup4\n        /* \"#utility.yul\":19119:19139   */\n      tag_141\n      jump\t// in\n    tag_364:\n        /* \"#utility.yul\":19114:19139   */\n      swap3\n      pop\n        /* \"#utility.yul\":19162:19163   */\n      dup3\n        /* \"#utility.yul\":19159:19160   */\n      dup3\n        /* \"#utility.yul\":19155:19164   */\n      add\n        /* \"#utility.yul\":19148:19164   */\n      swap1\n      pop\n        /* \"#utility.yul\":19183:19186   */\n      dup1\n        /* \"#utility.yul\":19180:19181   */\n      dup3\n        /* \"#utility.yul\":19177:19187   */\n      gt\n        /* \"#utility.yul\":19174:19210   */\n      iszero\n      tag_365\n      jumpi\n        /* \"#utility.yul\":19190:19208   */\n      tag_366\n      tag_182\n      jump\t// in\n    tag_366:\n        /* \"#utility.yul\":19174:19210   */\n    tag_365:\n        /* \"#utility.yul\":19026:19217   */\n      swap3\n      swap2\n      pop\n      pop\n      jump\t// out\n\n    auxdata: 0xa26469706673582212201c3c420a959a3ab70246dd479802fb4aadef50bd36b66fd833360046187f4bfb64736f6c63430008160033\n}\n",
				"bytecode": {
					"linkReferences": {},
					"object": "608060405234801561000f575f80fd5b50335f806101000a81548173ffffffffffffffffffffffffffffffffffffffff021916908373ffffffffffffffffffffffffffffffffffffffff1602179055506114238061005c5f395ff3fe608060405234801561000f575f80fd5b5060043610610091575f3560e01c80635e523adb116100645780635e523adb14610159578063814ffa2a146101755780639bc7c21c146101a5578063afd47d3e146101d5578063e85938231461020557610091565b80630b7aa47314610095578063348b4c5a146100c7578063449e815d146100f75780635a52c65714610127575b5f80fd5b6100af60048036038101906100aa9190610b94565b610235565b6040516100be93929190610be1565b60405180910390f35b6100e160048036038101906100dc9190610b94565b6102cb565b6040516100ee9190610c30565b60405180910390f35b610111600480360381019061010c9190610b94565b6103a9565b60405161011e9190610c49565b60405180910390f35b610141600480360381019061013c9190610c62565b61042f565b60405161015093929190610be1565b60405180910390f35b610173600480360381019061016e9190610cc6565b610536565b005b61018f600480360381019061018a9190610d16565b610621565b60405161019c9190610e38565b60405180910390f35b6101bf60048036038101906101ba9190610b94565b6107b3565b6040516101cc9190610c30565b60405180910390f35b6101ef60048036038101906101ea9190610b94565b61085b565b6040516101fc9190610c49565b60405180910390f35b61021f600480360381019061021a9190610fa8565b6108e1565b60405161022c9190610e38565b60405180910390f35b5f805f8060015f8773ffffffffffffffffffffffffffffffffffffffff1673ffffffffffffffffffffffffffffffffffffffff1681526020019081526020015f205f8681526020019081526020015f206040518060600160405290815f8201548152602001600182015481526020016002820154815250509050805f015181602001518260400151935093509350509250925092565b5f60015f8473ffffffffffffffffffffffffffffffffffffffff1673ffffffffffffffffffffffffffffffffffffffff1681526020019081526020015f205f8381526020019081526020015f205f8082015f9055600182015f9055600282015f905550505f60015f8573ffffffffffffffffffffffffffffffffffffffff1673ffffffffffffffffffffffffffffffffffffffff1681526020019081526020015f205f8481526020019081526020015f205f0154148015610391575061039082610a62565b5b1561039f57600190506103a3565b5f90505b92915050565b5f8060015f8573ffffffffffffffffffffffffffffffffffffffff1673ffffffffffffffffffffffffffffffffffffffff1681526020019081526020015f205f8481526020019081526020015f206040518060600160405290815f8201548152602001600182015481526020016002820154815250509050806020015191505092915050565b5f805f808686868a4260405160200161044c959493929190611054565b604051602081830303815290604052805190602001205f1c90505f6040518060600160405280838152602001888152602001878152509050600282908060018154018082558091505060019003905f5260205f20015f90919091909150558060015f8b73ffffffffffffffffffffffffffffffffffffffff1673ffffffffffffffffffffffffffffffffffffffff1681526020019081526020015f205f8481526020019081526020015f205f820151815f01556020820151816001015560408201518160020155905050805f01518160200151826040015194509450945050509450945094915050565b60015f8473ffffffffffffffffffffffffffffffffffffffff1673ffffffffffffffffffffffffffffffffffffffff1681526020019081526020015f205f8381526020019081526020015f20600201548111156105c8576040517f08c379a00000000000000000000000000000000000000000000000000000000081526004016105bf90611132565b60405180910390fd5b8060015f8573ffffffffffffffffffffffffffffffffffffffff1673ffffffffffffffffffffffffffffffffffffffff1681526020019081526020015f205f8481526020019081526020015f2060020181905550505050565b60605f60028054905067ffffffffffffffff81111561064357610642610e6c565b5b60405190808252806020026020018201604052801561067c57816020015b610669610ad8565b8152602001906001900390816106615790505b5090505f5b6002805490508110156107a9575f600282815481106106a3576106a2611150565b5b905f5260205f20015490505f60015f8773ffffffffffffffffffffffffffffffffffffffff1673ffffffffffffffffffffffffffffffffffffffff1681526020019081526020015f205f8381526020019081526020015f205f01541461079b575f60015f8773ffffffffffffffffffffffffffffffffffffffff1673ffffffffffffffffffffffffffffffffffffffff1681526020019081526020015f205f8381526020019081526020015f209050806040518060600160405290815f82015481526020016001820154815260200160028201548152505084848151811061078e5761078d611150565b5b6020026020010181905250505b508080600101915050610681565b5080915050919050565b5f8082141580156107c357505f82115b610802576040517f08c379a00000000000000000000000000000000000000000000000000000000081526004016107f9906111c7565b60405180910390fd5b8160015f8573ffffffffffffffffffffffffffffffffffffffff1673ffffffffffffffffffffffffffffffffffffffff1681526020019081526020015f205f8481526020019081526020015f205f015414905092915050565b5f8060015f8573ffffffffffffffffffffffffffffffffffffffff1673ffffffffffffffffffffffffffffffffffffffff1681526020019081526020015f205f8481526020019081526020015f206040518060600160405290815f8201548152602001600182015481526020016002820154815250509050806040015191505092915050565b60605f60028054905067ffffffffffffffff81111561090357610902610e6c565b5b60405190808252806020026020018201604052801561093c57816020015b610929610ad8565b8152602001906001900390816109215790505b5090505f805b8451811015610a57575f3073ffffffffffffffffffffffffffffffffffffffff1663814ffa2a87848151811061097b5761097a611150565b5b60200260200101516040518263ffffffff1660e01b815260040161099f91906111f4565b5f60405180830381865afa1580156109b9573d5f803e3d5ffd5b505050506040513d5f823e3d601f19601f820116820180604052508101906109e19190611346565b90505f5b8151811015610a48575f828281518110610a0257610a01611150565b5b6020026020010151905080868681518110610a2057610a1f611150565b5b6020026020010181905250600185610a3891906113ba565b94505080806001019150506109e5565b50508080600101915050610942565b508192505050919050565b5f805f90505b600280549050811015610ace578260028281548110610a8a57610a89611150565b5b905f5260205f20015403610ac15760028181548110610aac57610aab611150565b5b905f5260205f20015f90556001915050610ad3565b8080600101915050610a68565b505f90505b919050565b60405180606001604052805f81526020015f81526020015f81525090565b5f604051905090565b5f80fd5b5f80fd5b5f73ffffffffffffffffffffffffffffffffffffffff82169050919050565b5f610b3082610b07565b9050919050565b610b4081610b26565b8114610b4a575f80fd5b50565b5f81359050610b5b81610b37565b92915050565b5f819050919050565b610b7381610b61565b8114610b7d575f80fd5b50565b5f81359050610b8e81610b6a565b92915050565b5f8060408385031215610baa57610ba9610aff565b5b5f610bb785828601610b4d565b9250506020610bc885828601610b80565b9150509250929050565b610bdb81610b61565b82525050565b5f606082019050610bf45f830186610bd2565b610c016020830185610bd2565b610c0e6040830184610bd2565b949350505050565b5f8115159050919050565b610c2a81610c16565b82525050565b5f602082019050610c435f830184610c21565b92915050565b5f602082019050610c5c5f830184610bd2565b92915050565b5f805f8060808587031215610c7a57610c79610aff565b5b5f610c8787828801610b4d565b9450506020610c9887828801610b80565b9350506040610ca987828801610b80565b9250506060610cba87828801610b80565b91505092959194509250565b5f805f60608486031215610cdd57610cdc610aff565b5b5f610cea86828701610b4d565b9350506020610cfb86828701610b80565b9250506040610d0c86828701610b80565b9150509250925092565b5f60208284031215610d2b57610d2a610aff565b5b5f610d3884828501610b4d565b91505092915050565b5f81519050919050565b5f82825260208201905092915050565b5f819050602082019050919050565b610d7381610b61565b82525050565b606082015f820151610d8d5f850182610d6a565b506020820151610da06020850182610d6a565b506040820151610db36040850182610d6a565b50505050565b5f610dc48383610d79565b60608301905092915050565b5f602082019050919050565b5f610de682610d41565b610df08185610d4b565b9350610dfb83610d5b565b805f5b83811015610e2b578151610e128882610db9565b9750610e1d83610dd0565b925050600181019050610dfe565b5085935050505092915050565b5f6020820190508181035f830152610e508184610ddc565b905092915050565b5f80fd5b5f601f19601f8301169050919050565b7f4e487b71000000000000000000000000000000000000000000000000000000005f52604160045260245ffd5b610ea282610e5c565b810181811067ffffffffffffffff82111715610ec157610ec0610e6c565b5b80604052505050565b5f610ed3610af6565b9050610edf8282610e99565b919050565b5f67ffffffffffffffff821115610efe57610efd610e6c565b5b602082029050602081019050919050565b5f80fd5b5f610f25610f2084610ee4565b610eca565b90508083825260208201905060208402830185811115610f4857610f47610f0f565b5b835b81811015610f715780610f5d8882610b4d565b845260208401935050602081019050610f4a565b5050509392505050565b5f82601f830112610f8f57610f8e610e58565b5b8135610f9f848260208601610f13565b91505092915050565b5f60208284031215610fbd57610fbc610aff565b5b5f82013567ffffffffffffffff811115610fda57610fd9610b03565b5b610fe684828501610f7b565b91505092915050565b5f819050919050565b61100961100482610b61565b610fef565b82525050565b5f8160601b9050919050565b5f6110258261100f565b9050919050565b5f6110368261101b565b9050919050565b61104e61104982610b26565b61102c565b82525050565b5f61105f8288610ff8565b60208201915061106f8287610ff8565b60208201915061107f8286610ff8565b60208201915061108f828561103d565b60148201915061109f8284610ff8565b6020820191508190509695505050505050565b5f82825260208201905092915050565b7f436f6e74726f6c6c6f2064656c6c61205175616e7469746127206461207574695f8201527f6c697a7a617265206e6f6e20616e6461746120612062756f6e2066696e652100602082015250565b5f61111c603f836110b2565b9150611127826110c2565b604082019050919050565b5f6020820190508181035f83015261114981611110565b9050919050565b7f4e487b71000000000000000000000000000000000000000000000000000000005f52603260045260245ffd5b7f4944204368656573655069656365204e6f6e2056616c69646f210000000000005f82015250565b5f6111b1601a836110b2565b91506111bc8261117d565b602082019050919050565b5f6020820190508181035f8301526111de816111a5565b9050919050565b6111ee81610b26565b82525050565b5f6020820190506112075f8301846111e5565b92915050565b5f67ffffffffffffffff82111561122757611226610e6c565b5b602082029050602081019050919050565b5f80fd5b5f8151905061124a81610b6a565b92915050565b5f6060828403121561126557611264611238565b5b61126f6060610eca565b90505f61127e8482850161123c565b5f8301525060206112918482850161123c565b60208301525060406112a58482850161123c565b60408301525092915050565b5f6112c36112be8461120d565b610eca565b905080838252602082019050606084028301858111156112e6576112e5610f0f565b5b835b8181101561130f57806112fb8882611250565b8452602084019350506060810190506112e8565b5050509392505050565b5f82601f83011261132d5761132c610e58565b5b815161133d8482602086016112b1565b91505092915050565b5f6020828403121561135b5761135a610aff565b5b5f82015167ffffffffffffffff81111561137857611377610b03565b5b61138484828501611319565b91505092915050565b7f4e487b71000000000000000000000000000000000000000000000000000000005f52601160045260245ffd5b5f6113c482610b61565b91506113cf83610b61565b92508282019050808211156113e7576113e661138d565b5b9291505056fea26469706673582212201c3c420a959a3ab70246dd479802fb4aadef50bd36b66fd833360046187f4bfb64736f6c63430008160033",
					"opcodes": "PUSH1 0x80 PUSH1 0x40 MSTORE CALLVALUE DUP1 ISZERO PUSH2 0xF JUMPI PUSH0 DUP1 REVERT JUMPDEST POP CALLER PUSH0 DUP1 PUSH2 0x100 EXP DUP2 SLOAD DUP2 PUSH20 0xFFFFFFFFFFFFFFFFFFFFFFFFFFFFFFFFFFFFFFFF MUL NOT AND SWAP1 DUP4 PUSH20 0xFFFFFFFFFFFFFFFFFFFFFFFFFFFFFFFFFFFFFFFF AND MUL OR SWAP1 SSTORE POP PUSH2 0x1423 DUP1 PUSH2 0x5C PUSH0 CODECOPY PUSH0 RETURN INVALID PUSH1 0x80 PUSH1 0x40 MSTORE CALLVALUE DUP1 ISZERO PUSH2 0xF JUMPI PUSH0 DUP1 REVERT JUMPDEST POP PUSH1 0x4 CALLDATASIZE LT PUSH2 0x91 JUMPI PUSH0 CALLDATALOAD PUSH1 0xE0 SHR DUP1 PUSH4 0x5E523ADB GT PUSH2 0x64 JUMPI DUP1 PUSH4 0x5E523ADB EQ PUSH2 0x159 JUMPI DUP1 PUSH4 0x814FFA2A EQ PUSH2 0x175 JUMPI DUP1 PUSH4 0x9BC7C21C EQ PUSH2 0x1A5 JUMPI DUP1 PUSH4 0xAFD47D3E EQ PUSH2 0x1D5 JUMPI DUP1 PUSH4 0xE8593823 EQ PUSH2 0x205 JUMPI PUSH2 0x91 JUMP JUMPDEST DUP1 PUSH4 0xB7AA473 EQ PUSH2 0x95 JUMPI DUP1 PUSH4 0x348B4C5A EQ PUSH2 0xC7 JUMPI DUP1 PUSH4 0x449E815D EQ PUSH2 0xF7 JUMPI DUP1 PUSH4 0x5A52C657 EQ PUSH2 0x127 JUMPI JUMPDEST PUSH0 DUP1 REVERT JUMPDEST PUSH2 0xAF PUSH1 0x4 DUP1 CALLDATASIZE SUB DUP2 ADD SWAP1 PUSH2 0xAA SWAP2 SWAP1 PUSH2 0xB94 JUMP JUMPDEST PUSH2 0x235 JUMP JUMPDEST PUSH1 0x40 MLOAD PUSH2 0xBE SWAP4 SWAP3 SWAP2 SWAP1 PUSH2 0xBE1 JUMP JUMPDEST PUSH1 0x40 MLOAD DUP1 SWAP2 SUB SWAP1 RETURN JUMPDEST PUSH2 0xE1 PUSH1 0x4 DUP1 CALLDATASIZE SUB DUP2 ADD SWAP1 PUSH2 0xDC SWAP2 SWAP1 PUSH2 0xB94 JUMP JUMPDEST PUSH2 0x2CB JUMP JUMPDEST PUSH1 0x40 MLOAD PUSH2 0xEE SWAP2 SWAP1 PUSH2 0xC30 JUMP JUMPDEST PUSH1 0x40 MLOAD DUP1 SWAP2 SUB SWAP1 RETURN JUMPDEST PUSH2 0x111 PUSH1 0x4 DUP1 CALLDATASIZE SUB DUP2 ADD SWAP1 PUSH2 0x10C SWAP2 SWAP1 PUSH2 0xB94 JUMP JUMPDEST PUSH2 0x3A9 JUMP JUMPDEST PUSH1 0x40 MLOAD PUSH2 0x11E SWAP2 SWAP1 PUSH2 0xC49 JUMP JUMPDEST PUSH1 0x40 MLOAD DUP1 SWAP2 SUB SWAP1 RETURN JUMPDEST PUSH2 0x141 PUSH1 0x4 DUP1 CALLDATASIZE SUB DUP2 ADD SWAP1 PUSH2 0x13C SWAP2 SWAP1 PUSH2 0xC62 JUMP JUMPDEST PUSH2 0x42F JUMP JUMPDEST PUSH1 0x40 MLOAD PUSH2 0x150 SWAP4 SWAP3 SWAP2 SWAP1 PUSH2 0xBE1 JUMP JUMPDEST PUSH1 0x40 MLOAD DUP1 SWAP2 SUB SWAP1 RETURN JUMPDEST PUSH2 0x173 PUSH1 0x4 DUP1 CALLDATASIZE SUB DUP2 ADD SWAP1 PUSH2 0x16E SWAP2 SWAP1 PUSH2 0xCC6 JUMP JUMPDEST PUSH2 0x536 JUMP JUMPDEST STOP JUMPDEST PUSH2 0x18F PUSH1 0x4 DUP1 CALLDATASIZE SUB DUP2 ADD SWAP1 PUSH2 0x18A SWAP2 SWAP1 PUSH2 0xD16 JUMP JUMPDEST PUSH2 0x621 JUMP JUMPDEST PUSH1 0x40 MLOAD PUSH2 0x19C SWAP2 SWAP1 PUSH2 0xE38 JUMP JUMPDEST PUSH1 0x40 MLOAD DUP1 SWAP2 SUB SWAP1 RETURN JUMPDEST PUSH2 0x1BF PUSH1 0x4 DUP1 CALLDATASIZE SUB DUP2 ADD SWAP1 PUSH2 0x1BA SWAP2 SWAP1 PUSH2 0xB94 JUMP JUMPDEST PUSH2 0x7B3 JUMP JUMPDEST PUSH1 0x40 MLOAD PUSH2 0x1CC SWAP2 SWAP1 PUSH2 0xC30 JUMP JUMPDEST PUSH1 0x40 MLOAD DUP1 SWAP2 SUB SWAP1 RETURN JUMPDEST PUSH2 0x1EF PUSH1 0x4 DUP1 CALLDATASIZE SUB DUP2 ADD SWAP1 PUSH2 0x1EA SWAP2 SWAP1 PUSH2 0xB94 JUMP JUMPDEST PUSH2 0x85B JUMP JUMPDEST PUSH1 0x40 MLOAD PUSH2 0x1FC SWAP2 SWAP1 PUSH2 0xC49 JUMP JUMPDEST PUSH1 0x40 MLOAD DUP1 SWAP2 SUB SWAP1 RETURN JUMPDEST PUSH2 0x21F PUSH1 0x4 DUP1 CALLDATASIZE SUB DUP2 ADD SWAP1 PUSH2 0x21A SWAP2 SWAP1 PUSH2 0xFA8 JUMP JUMPDEST PUSH2 0x8E1 JUMP JUMPDEST PUSH1 0x40 MLOAD PUSH2 0x22C SWAP2 SWAP1 PUSH2 0xE38 JUMP JUMPDEST PUSH1 0x40 MLOAD DUP1 SWAP2 SUB SWAP1 RETURN JUMPDEST PUSH0 DUP1 PUSH0 DUP1 PUSH1 0x1 PUSH0 DUP8 PUSH20 0xFFFFFFFFFFFFFFFFFFFFFFFFFFFFFFFFFFFFFFFF AND PUSH20 0xFFFFFFFFFFFFFFFFFFFFFFFFFFFFFFFFFFFFFFFF AND DUP2 MSTORE PUSH1 0x20 ADD SWAP1 DUP2 MSTORE PUSH1 0x20 ADD PUSH0 KECCAK256 PUSH0 DUP7 DUP2 MSTORE PUSH1 0x20 ADD SWAP1 DUP2 MSTORE PUSH1 0x20 ADD PUSH0 KECCAK256 PUSH1 0x40 MLOAD DUP1 PUSH1 0x60 ADD PUSH1 0x40 MSTORE SWAP1 DUP2 PUSH0 DUP3 ADD SLOAD DUP2 MSTORE PUSH1 0x20 ADD PUSH1 0x1 DUP3 ADD SLOAD DUP2 MSTORE PUSH1 0x20 ADD PUSH1 0x2 DUP3 ADD SLOAD DUP2 MSTORE POP POP SWAP1 POP DUP1 PUSH0 ADD MLOAD DUP2 PUSH1 0x20 ADD MLOAD DUP3 PUSH1 0x40 ADD MLOAD SWAP4 POP SWAP4 POP SWAP4 POP POP SWAP3 POP SWAP3 POP SWAP3 JUMP JUMPDEST PUSH0 PUSH1 0x1 PUSH0 DUP5 PUSH20 0xFFFFFFFFFFFFFFFFFFFFFFFFFFFFFFFFFFFFFFFF AND PUSH20 0xFFFFFFFFFFFFFFFFFFFFFFFFFFFFFFFFFFFFFFFF AND DUP2 MSTORE PUSH1 0x20 ADD SWAP1 DUP2 MSTORE PUSH1 0x20 ADD PUSH0 KECCAK256 PUSH0 DUP4 DUP2 MSTORE PUSH1 0x20 ADD SWAP1 DUP2 MSTORE PUSH1 0x20 ADD PUSH0 KECCAK256 PUSH0 DUP1 DUP3 ADD PUSH0 SWAP1 SSTORE PUSH1 0x1 DUP3 ADD PUSH0 SWAP1 SSTORE PUSH1 0x2 DUP3 ADD PUSH0 SWAP1 SSTORE POP POP PUSH0 PUSH1 0x1 PUSH0 DUP6 PUSH20 0xFFFFFFFFFFFFFFFFFFFFFFFFFFFFFFFFFFFFFFFF AND PUSH20 0xFFFFFFFFFFFFFFFFFFFFFFFFFFFFFFFFFFFFFFFF AND DUP2 MSTORE PUSH1 0x20 ADD SWAP1 DUP2 MSTORE PUSH1 0x20 ADD PUSH0 KECCAK256 PUSH0 DUP5 DUP2 MSTORE PUSH1 0x20 ADD SWAP1 DUP2 MSTORE PUSH1 0x20 ADD PUSH0 KECCAK256 PUSH0 ADD SLOAD EQ DUP1 ISZERO PUSH2 0x391 JUMPI POP PUSH2 0x390 DUP3 PUSH2 0xA62 JUMP JUMPDEST JUMPDEST ISZERO PUSH2 0x39F JUMPI PUSH1 0x1 SWAP1 POP PUSH2 0x3A3 JUMP JUMPDEST PUSH0 SWAP1 POP JUMPDEST SWAP3 SWAP2 POP POP JUMP JUMPDEST PUSH0 DUP1 PUSH1 0x1 PUSH0 DUP6 PUSH20 0xFFFFFFFFFFFFFFFFFFFFFFFFFFFFFFFFFFFFFFFF AND PUSH20 0xFFFFFFFFFFFFFFFFFFFFFFFFFFFFFFFFFFFFFFFF AND DUP2 MSTORE PUSH1 0x20 ADD SWAP1 DUP2 MSTORE PUSH1 0x20 ADD PUSH0 KECCAK256 PUSH0 DUP5 DUP2 MSTORE PUSH1 0x20 ADD SWAP1 DUP2 MSTORE PUSH1 0x20 ADD PUSH0 KECCAK256 PUSH1 0x40 MLOAD DUP1 PUSH1 0x60 ADD PUSH1 0x40 MSTORE SWAP1 DUP2 PUSH0 DUP3 ADD SLOAD DUP2 MSTORE PUSH1 0x20 ADD PUSH1 0x1 DUP3 ADD SLOAD DUP2 MSTORE PUSH1 0x20 ADD PUSH1 0x2 DUP3 ADD SLOAD DUP2 MSTORE POP POP SWAP1 POP DUP1 PUSH1 0x20 ADD MLOAD SWAP2 POP POP SWAP3 SWAP2 POP POP JUMP JUMPDEST PUSH0 DUP1 PUSH0 DUP1 DUP7 DUP7 DUP7 DUP11 TIMESTAMP PUSH1 0x40 MLOAD PUSH1 0x20 ADD PUSH2 0x44C SWAP6 SWAP5 SWAP4 SWAP3 SWAP2 SWAP1 PUSH2 0x1054 JUMP JUMPDEST PUSH1 0x40 MLOAD PUSH1 0x20 DUP2 DUP4 SUB SUB DUP2 MSTORE SWAP1 PUSH1 0x40 MSTORE DUP1 MLOAD SWAP1 PUSH1 0x20 ADD KECCAK256 PUSH0 SHR SWAP1 POP PUSH0 PUSH1 0x40 MLOAD DUP1 PUSH1 0x60 ADD PUSH1 0x40 MSTORE DUP1 DUP4 DUP2 MSTORE PUSH1 0x20 ADD DUP9 DUP2 MSTORE PUSH1 0x20 ADD DUP8 DUP2 MSTORE POP SWAP1 POP PUSH1 0x2 DUP3 SWAP1 DUP1 PUSH1 0x1 DUP2 SLOAD ADD DUP1 DUP3 SSTORE DUP1 SWAP2 POP POP PUSH1 0x1 SWAP1 SUB SWAP1 PUSH0 MSTORE PUSH1 0x20 PUSH0 KECCAK256 ADD PUSH0 SWAP1 SWAP2 SWAP1 SWAP2 SWAP1 SWAP2 POP SSTORE DUP1 PUSH1 0x1 PUSH0 DUP12 PUSH20 0xFFFFFFFFFFFFFFFFFFFFFFFFFFFFFFFFFFFFFFFF AND PUSH20 0xFFFFFFFFFFFFFFFFFFFFFFFFFFFFFFFFFFFFFFFF AND DUP2 MSTORE PUSH1 0x20 ADD SWAP1 DUP2 MSTORE PUSH1 0x20 ADD PUSH0 KECCAK256 PUSH0 DUP5 DUP2 MSTORE PUSH1 0x20 ADD SWAP1 DUP2 MSTORE PUSH1 0x20 ADD PUSH0 KECCAK256 PUSH0 DUP3 ADD MLOAD DUP2 PUSH0 ADD SSTORE PUSH1 0x20 DUP3 ADD MLOAD DUP2 PUSH1 0x1 ADD SSTORE PUSH1 0x40 DUP3 ADD MLOAD DUP2 PUSH1 0x2 ADD SSTORE SWAP1 POP POP DUP1 PUSH0 ADD MLOAD DUP2 PUSH1 0x20 ADD MLOAD DUP3 PUSH1 0x40 ADD MLOAD SWAP5 POP SWAP5 POP SWAP5 POP POP POP SWAP5 POP SWAP5 POP SWAP5 SWAP2 POP POP JUMP JUMPDEST PUSH1 0x1 PUSH0 DUP5 PUSH20 0xFFFFFFFFFFFFFFFFFFFFFFFFFFFFFFFFFFFFFFFF AND PUSH20 0xFFFFFFFFFFFFFFFFFFFFFFFFFFFFFFFFFFFFFFFF AND DUP2 MSTORE PUSH1 0x20 ADD SWAP1 DUP2 MSTORE PUSH1 0x20 ADD PUSH0 KECCAK256 PUSH0 DUP4 DUP2 MSTORE PUSH1 0x20 ADD SWAP1 DUP2 MSTORE PUSH1 0x20 ADD PUSH0 KECCAK256 PUSH1 0x2 ADD SLOAD DUP2 GT ISZERO PUSH2 0x5C8 JUMPI PUSH1 0x40 MLOAD PUSH32 0x8C379A000000000000000000000000000000000000000000000000000000000 DUP2 MSTORE PUSH1 0x4 ADD PUSH2 0x5BF SWAP1 PUSH2 0x1132 JUMP JUMPDEST PUSH1 0x40 MLOAD DUP1 SWAP2 SUB SWAP1 REVERT JUMPDEST DUP1 PUSH1 0x1 PUSH0 DUP6 PUSH20 0xFFFFFFFFFFFFFFFFFFFFFFFFFFFFFFFFFFFFFFFF AND PUSH20 0xFFFFFFFFFFFFFFFFFFFFFFFFFFFFFFFFFFFFFFFF AND DUP2 MSTORE PUSH1 0x20 ADD SWAP1 DUP2 MSTORE PUSH1 0x20 ADD PUSH0 KECCAK256 PUSH0 DUP5 DUP2 MSTORE PUSH1 0x20 ADD SWAP1 DUP2 MSTORE PUSH1 0x20 ADD PUSH0 KECCAK256 PUSH1 0x2 ADD DUP2 SWAP1 SSTORE POP POP POP POP JUMP JUMPDEST PUSH1 0x60 PUSH0 PUSH1 0x2 DUP1 SLOAD SWAP1 POP PUSH8 0xFFFFFFFFFFFFFFFF DUP2 GT ISZERO PUSH2 0x643 JUMPI PUSH2 0x642 PUSH2 0xE6C JUMP JUMPDEST JUMPDEST PUSH1 0x40 MLOAD SWAP1 DUP1 DUP3 MSTORE DUP1 PUSH1 0x20 MUL PUSH1 0x20 ADD DUP3 ADD PUSH1 0x40 MSTORE DUP1 ISZERO PUSH2 0x67C JUMPI DUP2 PUSH1 0x20 ADD JUMPDEST PUSH2 0x669 PUSH2 0xAD8 JUMP JUMPDEST DUP2 MSTORE PUSH1 0x20 ADD SWAP1 PUSH1 0x1 SWAP1 SUB SWAP1 DUP2 PUSH2 0x661 JUMPI SWAP1 POP JUMPDEST POP SWAP1 POP PUSH0 JUMPDEST PUSH1 0x2 DUP1 SLOAD SWAP1 POP DUP2 LT ISZERO PUSH2 0x7A9 JUMPI PUSH0 PUSH1 0x2 DUP3 DUP2 SLOAD DUP2 LT PUSH2 0x6A3 JUMPI PUSH2 0x6A2 PUSH2 0x1150 JUMP JUMPDEST JUMPDEST SWAP1 PUSH0 MSTORE PUSH1 0x20 PUSH0 KECCAK256 ADD SLOAD SWAP1 POP PUSH0 PUSH1 0x1 PUSH0 DUP8 PUSH20 0xFFFFFFFFFFFFFFFFFFFFFFFFFFFFFFFFFFFFFFFF AND PUSH20 0xFFFFFFFFFFFFFFFFFFFFFFFFFFFFFFFFFFFFFFFF AND DUP2 MSTORE PUSH1 0x20 ADD SWAP1 DUP2 MSTORE PUSH1 0x20 ADD PUSH0 KECCAK256 PUSH0 DUP4 DUP2 MSTORE PUSH1 0x20 ADD SWAP1 DUP2 MSTORE PUSH1 0x20 ADD PUSH0 KECCAK256 PUSH0 ADD SLOAD EQ PUSH2 0x79B JUMPI PUSH0 PUSH1 0x1 PUSH0 DUP8 PUSH20 0xFFFFFFFFFFFFFFFFFFFFFFFFFFFFFFFFFFFFFFFF AND PUSH20 0xFFFFFFFFFFFFFFFFFFFFFFFFFFFFFFFFFFFFFFFF AND DUP2 MSTORE PUSH1 0x20 ADD SWAP1 DUP2 MSTORE PUSH1 0x20 ADD PUSH0 KECCAK256 PUSH0 DUP4 DUP2 MSTORE PUSH1 0x20 ADD SWAP1 DUP2 MSTORE PUSH1 0x20 ADD PUSH0 KECCAK256 SWAP1 POP DUP1 PUSH1 0x40 MLOAD DUP1 PUSH1 0x60 ADD PUSH1 0x40 MSTORE SWAP1 DUP2 PUSH0 DUP3 ADD SLOAD DUP2 MSTORE PUSH1 0x20 ADD PUSH1 0x1 DUP3 ADD SLOAD DUP2 MSTORE PUSH1 0x20 ADD PUSH1 0x2 DUP3 ADD SLOAD DUP2 MSTORE POP POP DUP5 DUP5 DUP2 MLOAD DUP2 LT PUSH2 0x78E JUMPI PUSH2 0x78D PUSH2 0x1150 JUMP JUMPDEST JUMPDEST PUSH1 0x20 MUL PUSH1 0x20 ADD ADD DUP2 SWAP1 MSTORE POP POP JUMPDEST POP DUP1 DUP1 PUSH1 0x1 ADD SWAP2 POP POP PUSH2 0x681 JUMP JUMPDEST POP DUP1 SWAP2 POP POP SWAP2 SWAP1 POP JUMP JUMPDEST PUSH0 DUP1 DUP3 EQ ISZERO DUP1 ISZERO PUSH2 0x7C3 JUMPI POP PUSH0 DUP3 GT JUMPDEST PUSH2 0x802 JUMPI PUSH1 0x40 MLOAD PUSH32 0x8C379A000000000000000000000000000000000000000000000000000000000 DUP2 MSTORE PUSH1 0x4 ADD PUSH2 0x7F9 SWAP1 PUSH2 0x11C7 JUMP JUMPDEST PUSH1 0x40 MLOAD DUP1 SWAP2 SUB SWAP1 REVERT JUMPDEST DUP2 PUSH1 0x1 PUSH0 DUP6 PUSH20 0xFFFFFFFFFFFFFFFFFFFFFFFFFFFFFFFFFFFFFFFF AND PUSH20 0xFFFFFFFFFFFFFFFFFFFFFFFFFFFFFFFFFFFFFFFF AND DUP2 MSTORE PUSH1 0x20 ADD SWAP1 DUP2 MSTORE PUSH1 0x20 ADD PUSH0 KECCAK256 PUSH0 DUP5 DUP2 MSTORE PUSH1 0x20 ADD SWAP1 DUP2 MSTORE PUSH1 0x20 ADD PUSH0 KECCAK256 PUSH0 ADD SLOAD EQ SWAP1 POP SWAP3 SWAP2 POP POP JUMP JUMPDEST PUSH0 DUP1 PUSH1 0x1 PUSH0 DUP6 PUSH20 0xFFFFFFFFFFFFFFFFFFFFFFFFFFFFFFFFFFFFFFFF AND PUSH20 0xFFFFFFFFFFFFFFFFFFFFFFFFFFFFFFFFFFFFFFFF AND DUP2 MSTORE PUSH1 0x20 ADD SWAP1 DUP2 MSTORE PUSH1 0x20 ADD PUSH0 KECCAK256 PUSH0 DUP5 DUP2 MSTORE PUSH1 0x20 ADD SWAP1 DUP2 MSTORE PUSH1 0x20 ADD PUSH0 KECCAK256 PUSH1 0x40 MLOAD DUP1 PUSH1 0x60 ADD PUSH1 0x40 MSTORE SWAP1 DUP2 PUSH0 DUP3 ADD SLOAD DUP2 MSTORE PUSH1 0x20 ADD PUSH1 0x1 DUP3 ADD SLOAD DUP2 MSTORE PUSH1 0x20 ADD PUSH1 0x2 DUP3 ADD SLOAD DUP2 MSTORE POP POP SWAP1 POP DUP1 PUSH1 0x40 ADD MLOAD SWAP2 POP POP SWAP3 SWAP2 POP POP JUMP JUMPDEST PUSH1 0x60 PUSH0 PUSH1 0x2 DUP1 SLOAD SWAP1 POP PUSH8 0xFFFFFFFFFFFFFFFF DUP2 GT ISZERO PUSH2 0x903 JUMPI PUSH2 0x902 PUSH2 0xE6C JUMP JUMPDEST JUMPDEST PUSH1 0x40 MLOAD SWAP1 DUP1 DUP3 MSTORE DUP1 PUSH1 0x20 MUL PUSH1 0x20 ADD DUP3 ADD PUSH1 0x40 MSTORE DUP1 ISZERO PUSH2 0x93C JUMPI DUP2 PUSH1 0x20 ADD JUMPDEST PUSH2 0x929 PUSH2 0xAD8 JUMP JUMPDEST DUP2 MSTORE PUSH1 0x20 ADD SWAP1 PUSH1 0x1 SWAP1 SUB SWAP1 DUP2 PUSH2 0x921 JUMPI SWAP1 POP JUMPDEST POP SWAP1 POP PUSH0 DUP1 JUMPDEST DUP5 MLOAD DUP2 LT ISZERO PUSH2 0xA57 JUMPI PUSH0 ADDRESS PUSH20 0xFFFFFFFFFFFFFFFFFFFFFFFFFFFFFFFFFFFFFFFF AND PUSH4 0x814FFA2A DUP8 DUP5 DUP2 MLOAD DUP2 LT PUSH2 0x97B JUMPI PUSH2 0x97A PUSH2 0x1150 JUMP JUMPDEST JUMPDEST PUSH1 0x20 MUL PUSH1 0x20 ADD ADD MLOAD PUSH1 0x40 MLOAD DUP3 PUSH4 0xFFFFFFFF AND PUSH1 0xE0 SHL DUP2 MSTORE PUSH1 0x4 ADD PUSH2 0x99F SWAP2 SWAP1 PUSH2 0x11F4 JUMP JUMPDEST PUSH0 PUSH1 0x40 MLOAD DUP1 DUP4 SUB DUP2 DUP7 GAS STATICCALL ISZERO DUP1 ISZERO PUSH2 0x9B9 JUMPI RETURNDATASIZE PUSH0 DUP1 RETURNDATACOPY RETURNDATASIZE PUSH0 REVERT JUMPDEST POP POP POP POP PUSH1 0x40 MLOAD RETURNDATASIZE PUSH0 DUP3 RETURNDATACOPY RETURNDATASIZE PUSH1 0x1F NOT PUSH1 0x1F DUP3 ADD AND DUP3 ADD DUP1 PUSH1 0x40 MSTORE POP DUP2 ADD SWAP1 PUSH2 0x9E1 SWAP2 SWAP1 PUSH2 0x1346 JUMP JUMPDEST SWAP1 POP PUSH0 JUMPDEST DUP2 MLOAD DUP2 LT ISZERO PUSH2 0xA48 JUMPI PUSH0 DUP3 DUP3 DUP2 MLOAD DUP2 LT PUSH2 0xA02 JUMPI PUSH2 0xA01 PUSH2 0x1150 JUMP JUMPDEST JUMPDEST PUSH1 0x20 MUL PUSH1 0x20 ADD ADD MLOAD SWAP1 POP DUP1 DUP7 DUP7 DUP2 MLOAD DUP2 LT PUSH2 0xA20 JUMPI PUSH2 0xA1F PUSH2 0x1150 JUMP JUMPDEST JUMPDEST PUSH1 0x20 MUL PUSH1 0x20 ADD ADD DUP2 SWAP1 MSTORE POP PUSH1 0x1 DUP6 PUSH2 0xA38 SWAP2 SWAP1 PUSH2 0x13BA JUMP JUMPDEST SWAP5 POP POP DUP1 DUP1 PUSH1 0x1 ADD SWAP2 POP POP PUSH2 0x9E5 JUMP JUMPDEST POP POP DUP1 DUP1 PUSH1 0x1 ADD SWAP2 POP POP PUSH2 0x942 JUMP JUMPDEST POP DUP2 SWAP3 POP POP POP SWAP2 SWAP1 POP JUMP JUMPDEST PUSH0 DUP1 PUSH0 SWAP1 POP JUMPDEST PUSH1 0x2 DUP1 SLOAD SWAP1 POP DUP2 LT ISZERO PUSH2 0xACE JUMPI DUP3 PUSH1 0x2 DUP3 DUP2 SLOAD DUP2 LT PUSH2 0xA8A JUMPI PUSH2 0xA89 PUSH2 0x1150 JUMP JUMPDEST JUMPDEST SWAP1 PUSH0 MSTORE PUSH1 0x20 PUSH0 KECCAK256 ADD SLOAD SUB PUSH2 0xAC1 JUMPI PUSH1 0x2 DUP2 DUP2 SLOAD DUP2 LT PUSH2 0xAAC JUMPI PUSH2 0xAAB PUSH2 0x1150 JUMP JUMPDEST JUMPDEST SWAP1 PUSH0 MSTORE PUSH1 0x20 PUSH0 KECCAK256 ADD PUSH0 SWAP1 SSTORE PUSH1 0x1 SWAP2 POP POP PUSH2 0xAD3 JUMP JUMPDEST DUP1 DUP1 PUSH1 0x1 ADD SWAP2 POP POP PUSH2 0xA68 JUMP JUMPDEST POP PUSH0 SWAP1 POP JUMPDEST SWAP2 SWAP1 POP JUMP JUMPDEST PUSH1 0x40 MLOAD DUP1 PUSH1 0x60 ADD PUSH1 0x40 MSTORE DUP1 PUSH0 DUP2 MSTORE PUSH1 0x20 ADD PUSH0 DUP2 MSTORE PUSH1 0x20 ADD PUSH0 DUP2 MSTORE POP SWAP1 JUMP JUMPDEST PUSH0 PUSH1 0x40 MLOAD SWAP1 POP SWAP1 JUMP JUMPDEST PUSH0 DUP1 REVERT JUMPDEST PUSH0 DUP1 REVERT JUMPDEST PUSH0 PUSH20 0xFFFFFFFFFFFFFFFFFFFFFFFFFFFFFFFFFFFFFFFF DUP3 AND SWAP1 POP SWAP2 SWAP1 POP JUMP JUMPDEST PUSH0 PUSH2 0xB30 DUP3 PUSH2 0xB07 JUMP JUMPDEST SWAP1 POP SWAP2 SWAP1 POP JUMP JUMPDEST PUSH2 0xB40 DUP2 PUSH2 0xB26 JUMP JUMPDEST DUP2 EQ PUSH2 0xB4A JUMPI PUSH0 DUP1 REVERT JUMPDEST POP JUMP JUMPDEST PUSH0 DUP2 CALLDATALOAD SWAP1 POP PUSH2 0xB5B DUP2 PUSH2 0xB37 JUMP JUMPDEST SWAP3 SWAP2 POP POP JUMP JUMPDEST PUSH0 DUP2 SWAP1 POP SWAP2 SWAP1 POP JUMP JUMPDEST PUSH2 0xB73 DUP2 PUSH2 0xB61 JUMP JUMPDEST DUP2 EQ PUSH2 0xB7D JUMPI PUSH0 DUP1 REVERT JUMPDEST POP JUMP JUMPDEST PUSH0 DUP2 CALLDATALOAD SWAP1 POP PUSH2 0xB8E DUP2 PUSH2 0xB6A JUMP JUMPDEST SWAP3 SWAP2 POP POP JUMP JUMPDEST PUSH0 DUP1 PUSH1 0x40 DUP4 DUP6 SUB SLT ISZERO PUSH2 0xBAA JUMPI PUSH2 0xBA9 PUSH2 0xAFF JUMP JUMPDEST JUMPDEST PUSH0 PUSH2 0xBB7 DUP6 DUP3 DUP7 ADD PUSH2 0xB4D JUMP JUMPDEST SWAP3 POP POP PUSH1 0x20 PUSH2 0xBC8 DUP6 DUP3 DUP7 ADD PUSH2 0xB80 JUMP JUMPDEST SWAP2 POP POP SWAP3 POP SWAP3 SWAP1 POP JUMP JUMPDEST PUSH2 0xBDB DUP2 PUSH2 0xB61 JUMP JUMPDEST DUP3 MSTORE POP POP JUMP JUMPDEST PUSH0 PUSH1 0x60 DUP3 ADD SWAP1 POP PUSH2 0xBF4 PUSH0 DUP4 ADD DUP7 PUSH2 0xBD2 JUMP JUMPDEST PUSH2 0xC01 PUSH1 0x20 DUP4 ADD DUP6 PUSH2 0xBD2 JUMP JUMPDEST PUSH2 0xC0E PUSH1 0x40 DUP4 ADD DUP5 PUSH2 0xBD2 JUMP JUMPDEST SWAP5 SWAP4 POP POP POP POP JUMP JUMPDEST PUSH0 DUP2 ISZERO ISZERO SWAP1 POP SWAP2 SWAP1 POP JUMP JUMPDEST PUSH2 0xC2A DUP2 PUSH2 0xC16 JUMP JUMPDEST DUP3 MSTORE POP POP JUMP JUMPDEST PUSH0 PUSH1 0x20 DUP3 ADD SWAP1 POP PUSH2 0xC43 PUSH0 DUP4 ADD DUP5 PUSH2 0xC21 JUMP JUMPDEST SWAP3 SWAP2 POP POP JUMP JUMPDEST PUSH0 PUSH1 0x20 DUP3 ADD SWAP1 POP PUSH2 0xC5C PUSH0 DUP4 ADD DUP5 PUSH2 0xBD2 JUMP JUMPDEST SWAP3 SWAP2 POP POP JUMP JUMPDEST PUSH0 DUP1 PUSH0 DUP1 PUSH1 0x80 DUP6 DUP8 SUB SLT ISZERO PUSH2 0xC7A JUMPI PUSH2 0xC79 PUSH2 0xAFF JUMP JUMPDEST JUMPDEST PUSH0 PUSH2 0xC87 DUP8 DUP3 DUP9 ADD PUSH2 0xB4D JUMP JUMPDEST SWAP5 POP POP PUSH1 0x20 PUSH2 0xC98 DUP8 DUP3 DUP9 ADD PUSH2 0xB80 JUMP JUMPDEST SWAP4 POP POP PUSH1 0x40 PUSH2 0xCA9 DUP8 DUP3 DUP9 ADD PUSH2 0xB80 JUMP JUMPDEST SWAP3 POP POP PUSH1 0x60 PUSH2 0xCBA DUP8 DUP3 DUP9 ADD PUSH2 0xB80 JUMP JUMPDEST SWAP2 POP POP SWAP3 SWAP6 SWAP2 SWAP5 POP SWAP3 POP JUMP JUMPDEST PUSH0 DUP1 PUSH0 PUSH1 0x60 DUP5 DUP7 SUB SLT ISZERO PUSH2 0xCDD JUMPI PUSH2 0xCDC PUSH2 0xAFF JUMP JUMPDEST JUMPDEST PUSH0 PUSH2 0xCEA DUP7 DUP3 DUP8 ADD PUSH2 0xB4D JUMP JUMPDEST SWAP4 POP POP PUSH1 0x20 PUSH2 0xCFB DUP7 DUP3 DUP8 ADD PUSH2 0xB80 JUMP JUMPDEST SWAP3 POP POP PUSH1 0x40 PUSH2 0xD0C DUP7 DUP3 DUP8 ADD PUSH2 0xB80 JUMP JUMPDEST SWAP2 POP POP SWAP3 POP SWAP3 POP SWAP3 JUMP JUMPDEST PUSH0 PUSH1 0x20 DUP3 DUP5 SUB SLT ISZERO PUSH2 0xD2B JUMPI PUSH2 0xD2A PUSH2 0xAFF JUMP JUMPDEST JUMPDEST PUSH0 PUSH2 0xD38 DUP5 DUP3 DUP6 ADD PUSH2 0xB4D JUMP JUMPDEST SWAP2 POP POP SWAP3 SWAP2 POP POP JUMP JUMPDEST PUSH0 DUP2 MLOAD SWAP1 POP SWAP2 SWAP1 POP JUMP JUMPDEST PUSH0 DUP3 DUP3 MSTORE PUSH1 0x20 DUP3 ADD SWAP1 POP SWAP3 SWAP2 POP POP JUMP JUMPDEST PUSH0 DUP2 SWAP1 POP PUSH1 0x20 DUP3 ADD SWAP1 POP SWAP2 SWAP1 POP JUMP JUMPDEST PUSH2 0xD73 DUP2 PUSH2 0xB61 JUMP JUMPDEST DUP3 MSTORE POP POP JUMP JUMPDEST PUSH1 0x60 DUP3 ADD PUSH0 DUP3 ADD MLOAD PUSH2 0xD8D PUSH0 DUP6 ADD DUP3 PUSH2 0xD6A JUMP JUMPDEST POP PUSH1 0x20 DUP3 ADD MLOAD PUSH2 0xDA0 PUSH1 0x20 DUP6 ADD DUP3 PUSH2 0xD6A JUMP JUMPDEST POP PUSH1 0x40 DUP3 ADD MLOAD PUSH2 0xDB3 PUSH1 0x40 DUP6 ADD DUP3 PUSH2 0xD6A JUMP JUMPDEST POP POP POP POP JUMP JUMPDEST PUSH0 PUSH2 0xDC4 DUP4 DUP4 PUSH2 0xD79 JUMP JUMPDEST PUSH1 0x60 DUP4 ADD SWAP1 POP SWAP3 SWAP2 POP POP JUMP JUMPDEST PUSH0 PUSH1 0x20 DUP3 ADD SWAP1 POP SWAP2 SWAP1 POP JUMP JUMPDEST PUSH0 PUSH2 0xDE6 DUP3 PUSH2 0xD41 JUMP JUMPDEST PUSH2 0xDF0 DUP2 DUP6 PUSH2 0xD4B JUMP JUMPDEST SWAP4 POP PUSH2 0xDFB DUP4 PUSH2 0xD5B JUMP JUMPDEST DUP1 PUSH0 JUMPDEST DUP4 DUP2 LT ISZERO PUSH2 0xE2B JUMPI DUP2 MLOAD PUSH2 0xE12 DUP9 DUP3 PUSH2 0xDB9 JUMP JUMPDEST SWAP8 POP PUSH2 0xE1D DUP4 PUSH2 0xDD0 JUMP JUMPDEST SWAP3 POP POP PUSH1 0x1 DUP2 ADD SWAP1 POP PUSH2 0xDFE JUMP JUMPDEST POP DUP6 SWAP4 POP POP POP POP SWAP3 SWAP2 POP POP JUMP JUMPDEST PUSH0 PUSH1 0x20 DUP3 ADD SWAP1 POP DUP2 DUP2 SUB PUSH0 DUP4 ADD MSTORE PUSH2 0xE50 DUP2 DUP5 PUSH2 0xDDC JUMP JUMPDEST SWAP1 POP SWAP3 SWAP2 POP POP JUMP JUMPDEST PUSH0 DUP1 REVERT JUMPDEST PUSH0 PUSH1 0x1F NOT PUSH1 0x1F DUP4 ADD AND SWAP1 POP SWAP2 SWAP1 POP JUMP JUMPDEST PUSH32 0x4E487B7100000000000000000000000000000000000000000000000000000000 PUSH0 MSTORE PUSH1 0x41 PUSH1 0x4 MSTORE PUSH1 0x24 PUSH0 REVERT JUMPDEST PUSH2 0xEA2 DUP3 PUSH2 0xE5C JUMP JUMPDEST DUP2 ADD DUP2 DUP2 LT PUSH8 0xFFFFFFFFFFFFFFFF DUP3 GT OR ISZERO PUSH2 0xEC1 JUMPI PUSH2 0xEC0 PUSH2 0xE6C JUMP JUMPDEST JUMPDEST DUP1 PUSH1 0x40 MSTORE POP POP POP JUMP JUMPDEST PUSH0 PUSH2 0xED3 PUSH2 0xAF6 JUMP JUMPDEST SWAP1 POP PUSH2 0xEDF DUP3 DUP3 PUSH2 0xE99 JUMP JUMPDEST SWAP2 SWAP1 POP JUMP JUMPDEST PUSH0 PUSH8 0xFFFFFFFFFFFFFFFF DUP3 GT ISZERO PUSH2 0xEFE JUMPI PUSH2 0xEFD PUSH2 0xE6C JUMP JUMPDEST JUMPDEST PUSH1 0x20 DUP3 MUL SWAP1 POP PUSH1 0x20 DUP2 ADD SWAP1 POP SWAP2 SWAP1 POP JUMP JUMPDEST PUSH0 DUP1 REVERT JUMPDEST PUSH0 PUSH2 0xF25 PUSH2 0xF20 DUP5 PUSH2 0xEE4 JUMP JUMPDEST PUSH2 0xECA JUMP JUMPDEST SWAP1 POP DUP1 DUP4 DUP3 MSTORE PUSH1 0x20 DUP3 ADD SWAP1 POP PUSH1 0x20 DUP5 MUL DUP4 ADD DUP6 DUP2 GT ISZERO PUSH2 0xF48 JUMPI PUSH2 0xF47 PUSH2 0xF0F JUMP JUMPDEST JUMPDEST DUP4 JUMPDEST DUP2 DUP2 LT ISZERO PUSH2 0xF71 JUMPI DUP1 PUSH2 0xF5D DUP9 DUP3 PUSH2 0xB4D JUMP JUMPDEST DUP5 MSTORE PUSH1 0x20 DUP5 ADD SWAP4 POP POP PUSH1 0x20 DUP2 ADD SWAP1 POP PUSH2 0xF4A JUMP JUMPDEST POP POP POP SWAP4 SWAP3 POP POP POP JUMP JUMPDEST PUSH0 DUP3 PUSH1 0x1F DUP4 ADD SLT PUSH2 0xF8F JUMPI PUSH2 0xF8E PUSH2 0xE58 JUMP JUMPDEST JUMPDEST DUP2 CALLDATALOAD PUSH2 0xF9F DUP5 DUP3 PUSH1 0x20 DUP7 ADD PUSH2 0xF13 JUMP JUMPDEST SWAP2 POP POP SWAP3 SWAP2 POP POP JUMP JUMPDEST PUSH0 PUSH1 0x20 DUP3 DUP5 SUB SLT ISZERO PUSH2 0xFBD JUMPI PUSH2 0xFBC PUSH2 0xAFF JUMP JUMPDEST JUMPDEST PUSH0 DUP3 ADD CALLDATALOAD PUSH8 0xFFFFFFFFFFFFFFFF DUP2 GT ISZERO PUSH2 0xFDA JUMPI PUSH2 0xFD9 PUSH2 0xB03 JUMP JUMPDEST JUMPDEST PUSH2 0xFE6 DUP5 DUP3 DUP6 ADD PUSH2 0xF7B JUMP JUMPDEST SWAP2 POP POP SWAP3 SWAP2 POP POP JUMP JUMPDEST PUSH0 DUP2 SWAP1 POP SWAP2 SWAP1 POP JUMP JUMPDEST PUSH2 0x1009 PUSH2 0x1004 DUP3 PUSH2 0xB61 JUMP JUMPDEST PUSH2 0xFEF JUMP JUMPDEST DUP3 MSTORE POP POP JUMP JUMPDEST PUSH0 DUP2 PUSH1 0x60 SHL SWAP1 POP SWAP2 SWAP1 POP JUMP JUMPDEST PUSH0 PUSH2 0x1025 DUP3 PUSH2 0x100F JUMP JUMPDEST SWAP1 POP SWAP2 SWAP1 POP JUMP JUMPDEST PUSH0 PUSH2 0x1036 DUP3 PUSH2 0x101B JUMP JUMPDEST SWAP1 POP SWAP2 SWAP1 POP JUMP JUMPDEST PUSH2 0x104E PUSH2 0x1049 DUP3 PUSH2 0xB26 JUMP JUMPDEST PUSH2 0x102C JUMP JUMPDEST DUP3 MSTORE POP POP JUMP JUMPDEST PUSH0 PUSH2 0x105F DUP3 DUP9 PUSH2 0xFF8 JUMP JUMPDEST PUSH1 0x20 DUP3 ADD SWAP2 POP PUSH2 0x106F DUP3 DUP8 PUSH2 0xFF8 JUMP JUMPDEST PUSH1 0x20 DUP3 ADD SWAP2 POP PUSH2 0x107F DUP3 DUP7 PUSH2 0xFF8 JUMP JUMPDEST PUSH1 0x20 DUP3 ADD SWAP2 POP PUSH2 0x108F DUP3 DUP6 PUSH2 0x103D JUMP JUMPDEST PUSH1 0x14 DUP3 ADD SWAP2 POP PUSH2 0x109F DUP3 DUP5 PUSH2 0xFF8 JUMP JUMPDEST PUSH1 0x20 DUP3 ADD SWAP2 POP DUP2 SWAP1 POP SWAP7 SWAP6 POP POP POP POP POP POP JUMP JUMPDEST PUSH0 DUP3 DUP3 MSTORE PUSH1 0x20 DUP3 ADD SWAP1 POP SWAP3 SWAP2 POP POP JUMP JUMPDEST PUSH32 0x436F6E74726F6C6C6F2064656C6C61205175616E746974612720646120757469 PUSH0 DUP3 ADD MSTORE PUSH32 0x6C697A7A617265206E6F6E20616E6461746120612062756F6E2066696E652100 PUSH1 0x20 DUP3 ADD MSTORE POP JUMP JUMPDEST PUSH0 PUSH2 0x111C PUSH1 0x3F DUP4 PUSH2 0x10B2 JUMP JUMPDEST SWAP2 POP PUSH2 0x1127 DUP3 PUSH2 0x10C2 JUMP JUMPDEST PUSH1 0x40 DUP3 ADD SWAP1 POP SWAP2 SWAP1 POP JUMP JUMPDEST PUSH0 PUSH1 0x20 DUP3 ADD SWAP1 POP DUP2 DUP2 SUB PUSH0 DUP4 ADD MSTORE PUSH2 0x1149 DUP2 PUSH2 0x1110 JUMP JUMPDEST SWAP1 POP SWAP2 SWAP1 POP JUMP JUMPDEST PUSH32 0x4E487B7100000000000000000000000000000000000000000000000000000000 PUSH0 MSTORE PUSH1 0x32 PUSH1 0x4 MSTORE PUSH1 0x24 PUSH0 REVERT JUMPDEST PUSH32 0x4944204368656573655069656365204E6F6E2056616C69646F21000000000000 PUSH0 DUP3 ADD MSTORE POP JUMP JUMPDEST PUSH0 PUSH2 0x11B1 PUSH1 0x1A DUP4 PUSH2 0x10B2 JUMP JUMPDEST SWAP2 POP PUSH2 0x11BC DUP3 PUSH2 0x117D JUMP JUMPDEST PUSH1 0x20 DUP3 ADD SWAP1 POP SWAP2 SWAP1 POP JUMP JUMPDEST PUSH0 PUSH1 0x20 DUP3 ADD SWAP1 POP DUP2 DUP2 SUB PUSH0 DUP4 ADD MSTORE PUSH2 0x11DE DUP2 PUSH2 0x11A5 JUMP JUMPDEST SWAP1 POP SWAP2 SWAP1 POP JUMP JUMPDEST PUSH2 0x11EE DUP2 PUSH2 0xB26 JUMP JUMPDEST DUP3 MSTORE POP POP JUMP JUMPDEST PUSH0 PUSH1 0x20 DUP3 ADD SWAP1 POP PUSH2 0x1207 PUSH0 DUP4 ADD DUP5 PUSH2 0x11E5 JUMP JUMPDEST SWAP3 SWAP2 POP POP JUMP JUMPDEST PUSH0 PUSH8 0xFFFFFFFFFFFFFFFF DUP3 GT ISZERO PUSH2 0x1227 JUMPI PUSH2 0x1226 PUSH2 0xE6C JUMP JUMPDEST JUMPDEST PUSH1 0x20 DUP3 MUL SWAP1 POP PUSH1 0x20 DUP2 ADD SWAP1 POP SWAP2 SWAP1 POP JUMP JUMPDEST PUSH0 DUP1 REVERT JUMPDEST PUSH0 DUP2 MLOAD SWAP1 POP PUSH2 0x124A DUP2 PUSH2 0xB6A JUMP JUMPDEST SWAP3 SWAP2 POP POP JUMP JUMPDEST PUSH0 PUSH1 0x60 DUP3 DUP5 SUB SLT ISZERO PUSH2 0x1265 JUMPI PUSH2 0x1264 PUSH2 0x1238 JUMP JUMPDEST JUMPDEST PUSH2 0x126F PUSH1 0x60 PUSH2 0xECA JUMP JUMPDEST SWAP1 POP PUSH0 PUSH2 0x127E DUP5 DUP3 DUP6 ADD PUSH2 0x123C JUMP JUMPDEST PUSH0 DUP4 ADD MSTORE POP PUSH1 0x20 PUSH2 0x1291 DUP5 DUP3 DUP6 ADD PUSH2 0x123C JUMP JUMPDEST PUSH1 0x20 DUP4 ADD MSTORE POP PUSH1 0x40 PUSH2 0x12A5 DUP5 DUP3 DUP6 ADD PUSH2 0x123C JUMP JUMPDEST PUSH1 0x40 DUP4 ADD MSTORE POP SWAP3 SWAP2 POP POP JUMP JUMPDEST PUSH0 PUSH2 0x12C3 PUSH2 0x12BE DUP5 PUSH2 0x120D JUMP JUMPDEST PUSH2 0xECA JUMP JUMPDEST SWAP1 POP DUP1 DUP4 DUP3 MSTORE PUSH1 0x20 DUP3 ADD SWAP1 POP PUSH1 0x60 DUP5 MUL DUP4 ADD DUP6 DUP2 GT ISZERO PUSH2 0x12E6 JUMPI PUSH2 0x12E5 PUSH2 0xF0F JUMP JUMPDEST JUMPDEST DUP4 JUMPDEST DUP2 DUP2 LT ISZERO PUSH2 0x130F JUMPI DUP1 PUSH2 0x12FB DUP9 DUP3 PUSH2 0x1250 JUMP JUMPDEST DUP5 MSTORE PUSH1 0x20 DUP5 ADD SWAP4 POP POP PUSH1 0x60 DUP2 ADD SWAP1 POP PUSH2 0x12E8 JUMP JUMPDEST POP POP POP SWAP4 SWAP3 POP POP POP JUMP JUMPDEST PUSH0 DUP3 PUSH1 0x1F DUP4 ADD SLT PUSH2 0x132D JUMPI PUSH2 0x132C PUSH2 0xE58 JUMP JUMPDEST JUMPDEST DUP2 MLOAD PUSH2 0x133D DUP5 DUP3 PUSH1 0x20 DUP7 ADD PUSH2 0x12B1 JUMP JUMPDEST SWAP2 POP POP SWAP3 SWAP2 POP POP JUMP JUMPDEST PUSH0 PUSH1 0x20 DUP3 DUP5 SUB SLT ISZERO PUSH2 0x135B JUMPI PUSH2 0x135A PUSH2 0xAFF JUMP JUMPDEST JUMPDEST PUSH0 DUP3 ADD MLOAD PUSH8 0xFFFFFFFFFFFFFFFF DUP2 GT ISZERO PUSH2 0x1378 JUMPI PUSH2 0x1377 PUSH2 0xB03 JUMP JUMPDEST JUMPDEST PUSH2 0x1384 DUP5 DUP3 DUP6 ADD PUSH2 0x1319 JUMP JUMPDEST SWAP2 POP POP SWAP3 SWAP2 POP POP JUMP JUMPDEST PUSH32 0x4E487B7100000000000000000000000000000000000000000000000000000000 PUSH0 MSTORE PUSH1 0x11 PUSH1 0x4 MSTORE PUSH1 0x24 PUSH0 REVERT JUMPDEST PUSH0 PUSH2 0x13C4 DUP3 PUSH2 0xB61 JUMP JUMPDEST SWAP2 POP PUSH2 0x13CF DUP4 PUSH2 0xB61 JUMP JUMPDEST SWAP3 POP DUP3 DUP3 ADD SWAP1 POP DUP1 DUP3 GT ISZERO PUSH2 0x13E7 JUMPI PUSH2 0x13E6 PUSH2 0x138D JUMP JUMPDEST JUMPDEST SWAP3 SWAP2 POP POP JUMP INVALID LOG2 PUSH5 0x6970667358 0x22 SLT KECCAK256 SHR EXTCODECOPY TIMESTAMP EXP SWAP6 SWAP11 GASPRICE 0xB7 MUL CHAINID 0xDD SELFBALANCE SWAP9 MUL 0xFB 0x4A 0xAD 0xEF POP 0xBD CALLDATASIZE 0xB6 PUSH16 0xD833360046187F4BFB64736F6C634300 ADDMOD AND STOP CALLER "
				},
				"gasEstimates": {
					"creation": {
						"codeDepositCost": "1031000",
						"executionCost": "25337",
						"totalCost": "1056337"
					},
					"external": {
						"addCheesePiece(address,uint256,uint256,uint256)": "infinite",
						"deleteCheesePiece(address,uint256)": "infinite",
						"getAllCheesePieceList(address[])": "infinite",
						"getCheesePiece(address,uint256)": "infinite",
						"getCheesePieceListPurchasedByRetailer(address)": "infinite",
						"getPrice(address,uint256)": "infinite",
						"getWeight(address,uint256)": "infinite",
						"isCheesePiecePresent(address,uint256)": "3193",
						"updateWeight(address,uint256,uint256)": "infinite"
					},
					"internal": {
						"deleteCheesePieceIdFromList(uint256)": "infinite"
					}
				},
				"methodIdentifiers": {
					"addCheesePiece(address,uint256,uint256,uint256)": "5a52c657",
					"deleteCheesePiece(address,uint256)": "348b4c5a",
					"getAllCheesePieceList(address[])": "e8593823",
					"getCheesePiece(address,uint256)": "0b7aa473",
					"getCheesePieceListPurchasedByRetailer(address)": "814ffa2a",
					"getPrice(address,uint256)": "449e815d",
					"getWeight(address,uint256)": "afd47d3e",
					"isCheesePiecePresent(address,uint256)": "9bc7c21c",
					"updateWeight(address,uint256,uint256)": "5e523adb"
				}
			},
			"storageLayout": {
				"storage": [
					{
						"astId": 3,
						"contract": "Filiera-Token-Smart-Contract/contracts/Actor/Retailer-smart-contract/inventory/RetailerInventoryStorage.sol:RetailerInventoryStorage",
						"label": "retailerOrg",
						"offset": 0,
						"slot": "0",
						"type": "t_address"
					},
					{
						"astId": 26,
						"contract": "Filiera-Token-Smart-Contract/contracts/Actor/Retailer-smart-contract/inventory/RetailerInventoryStorage.sol:RetailerInventoryStorage",
						"label": "cheesePieces",
						"offset": 0,
						"slot": "1",
						"type": "t_mapping(t_address,t_mapping(t_uint256,t_struct(CheesePiece)19_storage))"
					},
					{
						"astId": 29,
						"contract": "Filiera-Token-Smart-Contract/contracts/Actor/Retailer-smart-contract/inventory/RetailerInventoryStorage.sol:RetailerInventoryStorage",
						"label": "cheesePieceIdPurchasedList",
						"offset": 0,
						"slot": "2",
						"type": "t_array(t_uint256)dyn_storage"
					}
				],
				"types": {
					"t_address": {
						"encoding": "inplace",
						"label": "address",
						"numberOfBytes": "20"
					},
					"t_array(t_uint256)dyn_storage": {
						"base": "t_uint256",
						"encoding": "dynamic_array",
						"label": "uint256[]",
						"numberOfBytes": "32"
					},
					"t_mapping(t_address,t_mapping(t_uint256,t_struct(CheesePiece)19_storage))": {
						"encoding": "mapping",
						"key": "t_address",
						"label": "mapping(address => mapping(uint256 => struct RetailerInventoryStorage.CheesePiece))",
						"numberOfBytes": "32",
						"value": "t_mapping(t_uint256,t_struct(CheesePiece)19_storage)"
					},
					"t_mapping(t_uint256,t_struct(CheesePiece)19_storage)": {
						"encoding": "mapping",
						"key": "t_uint256",
						"label": "mapping(uint256 => struct RetailerInventoryStorage.CheesePiece)",
						"numberOfBytes": "32",
						"value": "t_struct(CheesePiece)19_storage"
					},
					"t_struct(CheesePiece)19_storage": {
						"encoding": "inplace",
						"label": "struct RetailerInventoryStorage.CheesePiece",
						"members": [
							{
								"astId": 14,
								"contract": "Filiera-Token-Smart-Contract/contracts/Actor/Retailer-smart-contract/inventory/RetailerInventoryStorage.sol:RetailerInventoryStorage",
								"label": "id",
								"offset": 0,
								"slot": "0",
								"type": "t_uint256"
							},
							{
								"astId": 16,
								"contract": "Filiera-Token-Smart-Contract/contracts/Actor/Retailer-smart-contract/inventory/RetailerInventoryStorage.sol:RetailerInventoryStorage",
								"label": "price",
								"offset": 0,
								"slot": "1",
								"type": "t_uint256"
							},
							{
								"astId": 18,
								"contract": "Filiera-Token-Smart-Contract/contracts/Actor/Retailer-smart-contract/inventory/RetailerInventoryStorage.sol:RetailerInventoryStorage",
								"label": "weight",
								"offset": 0,
								"slot": "2",
								"type": "t_uint256"
							}
						],
						"numberOfBytes": "96"
					},
					"t_uint256": {
						"encoding": "inplace",
						"label": "uint256",
						"numberOfBytes": "32"
					}
				}
			},
			"userdoc": {
				"kind": "user",
				"methods": {},
				"version": 1
			}
		}
	}
}