{
	"contracts/Actor/Retailer-smart-contract/inventory/RetailerBuyerStorage.sol": {
		"RetailerBuyerStorage": {
			"abi": [
				{
					"inputs": [],
					"stateMutability": "nonpayable",
					"type": "constructor"
				},
				{
					"inputs": [
						{
							"internalType": "address",
							"name": "_walletRetailer",
							"type": "address"
						},
						{
							"internalType": "address",
							"name": "_walletCheeseProducer",
							"type": "address"
						},
						{
							"internalType": "uint256",
							"name": "_id_CheeseBlock",
							"type": "uint256"
						},
						{
							"internalType": "string",
							"name": "dop",
							"type": "string"
						},
						{
							"internalType": "uint256",
							"name": "_quantity",
							"type": "uint256"
						}
					],
					"name": "addCheeseBlock",
					"outputs": [
						{
							"internalType": "uint256",
							"name": "id_CheeseBlock_Acquistato",
							"type": "uint256"
						},
						{
							"internalType": "string",
							"name": "dopCheese",
							"type": "string"
						},
						{
							"internalType": "uint256",
							"name": "quantityAcquistata",
							"type": "uint256"
						}
					],
					"stateMutability": "nonpayable",
					"type": "function"
				},
				{
					"inputs": [
						{
							"internalType": "address",
							"name": "walletRetailer",
							"type": "address"
						},
						{
							"internalType": "uint256",
							"name": "_id",
							"type": "uint256"
						},
						{
							"internalType": "uint256",
							"name": "_quantityToTransform",
							"type": "uint256"
						}
					],
					"name": "checkCheese",
					"outputs": [
						{
							"internalType": "bool",
							"name": "",
							"type": "bool"
						}
					],
					"stateMutability": "view",
					"type": "function"
				},
				{
					"inputs": [
						{
							"internalType": "address",
							"name": "walletRetailer",
							"type": "address"
						},
						{
							"internalType": "uint256",
							"name": "_id",
							"type": "uint256"
						},
						{
							"internalType": "uint256",
							"name": "_quantityToTransform",
							"type": "uint256"
						}
					],
					"name": "checkQuantity",
					"outputs": [
						{
							"internalType": "bool",
							"name": "",
							"type": "bool"
						}
					],
					"stateMutability": "view",
					"type": "function"
				},
				{
					"inputs": [
						{
							"internalType": "address",
							"name": "walletRetailer",
							"type": "address"
						},
						{
							"internalType": "uint256",
							"name": "_id_CheeseBlockAcquistato",
							"type": "uint256"
						}
					],
					"name": "getCheeseBlock",
					"outputs": [
						{
							"internalType": "uint256",
							"name": "",
							"type": "uint256"
						},
						{
							"internalType": "address",
							"name": "",
							"type": "address"
						},
						{
							"internalType": "string",
							"name": "",
							"type": "string"
						},
						{
							"internalType": "uint256",
							"name": "",
							"type": "uint256"
						}
					],
					"stateMutability": "view",
					"type": "function"
				},
				{
					"inputs": [
						{
							"internalType": "address",
							"name": "walletRetailer",
							"type": "address"
						},
						{
							"internalType": "uint256",
							"name": "_id_cheeseBlockAcquistato",
							"type": "uint256"
						}
					],
					"name": "getDop",
					"outputs": [
						{
							"internalType": "string",
							"name": "",
							"type": "string"
						}
					],
					"stateMutability": "view",
					"type": "function"
				},
				{
					"inputs": [
						{
							"internalType": "address",
							"name": "walletRetailer",
							"type": "address"
						},
						{
							"internalType": "uint256",
							"name": "_id",
							"type": "uint256"
						}
					],
					"name": "getId",
					"outputs": [
						{
							"internalType": "uint256",
							"name": "",
							"type": "uint256"
						}
					],
					"stateMutability": "view",
					"type": "function"
				},
				{
					"inputs": [
						{
							"internalType": "address",
							"name": "walletRetailer",
							"type": "address"
						}
					],
					"name": "getListCheeseIdPurchasedByRetailer",
					"outputs": [
						{
							"internalType": "uint256[]",
							"name": "",
							"type": "uint256[]"
						}
					],
					"stateMutability": "view",
					"type": "function"
				},
				{
					"inputs": [
						{
							"internalType": "address",
							"name": "walletRetailer",
							"type": "address"
						},
						{
							"internalType": "uint256",
							"name": "_id",
							"type": "uint256"
						}
					],
					"name": "getQuantity",
					"outputs": [
						{
							"internalType": "uint256",
							"name": "",
							"type": "uint256"
						}
					],
					"stateMutability": "view",
					"type": "function"
				},
				{
					"inputs": [
						{
							"internalType": "address",
							"name": "walletRetailer",
							"type": "address"
						},
						{
							"internalType": "uint256",
							"name": "_id",
							"type": "uint256"
						}
					],
					"name": "getWalletCheeseProducer",
					"outputs": [
						{
							"internalType": "address",
							"name": "",
							"type": "address"
						}
					],
					"stateMutability": "view",
					"type": "function"
				},
				{
					"inputs": [
						{
							"internalType": "address",
							"name": "walletRetailer",
							"type": "address"
						},
						{
							"internalType": "uint256",
							"name": "_id_CheeseBlockAcquistato",
							"type": "uint256"
						}
					],
					"name": "isCheesePresent",
					"outputs": [
						{
							"internalType": "bool",
							"name": "",
							"type": "bool"
						}
					],
					"stateMutability": "view",
					"type": "function"
				},
				{
					"inputs": [
						{
							"internalType": "address",
							"name": "walletRetailer",
							"type": "address"
						},
						{
							"internalType": "uint256",
							"name": "_id",
							"type": "uint256"
						},
						{
							"internalType": "uint256",
							"name": "_newQuantity",
							"type": "uint256"
						}
					],
					"name": "updateCheeseQuantity",
					"outputs": [],
					"stateMutability": "nonpayable",
					"type": "function"
				}
			],
			"devdoc": {
				"kind": "dev",
				"methods": {},
				"version": 1
			},
			"evm": {
				"assembly": "    /* \"contracts/Actor/Retailer-smart-contract/inventory/RetailerBuyerStorage.sol\":135:7151  contract RetailerBuyerStorage {... */\n  mstore(0x40, 0x80)\n    /* \"contracts/Actor/Retailer-smart-contract/inventory/RetailerBuyerStorage.sol\":266:323  constructor() {... */\n  callvalue\n  dup1\n  iszero\n  tag_1\n  jumpi\n  0x00\n  dup1\n  revert\ntag_1:\n  pop\n    /* \"contracts/Actor/Retailer-smart-contract/inventory/RetailerBuyerStorage.sol\":305:315  msg.sender */\n  caller\n    /* \"contracts/Actor/Retailer-smart-contract/inventory/RetailerBuyerStorage.sol\":291:302  RetailerOrg */\n  0x00\n  dup1\n    /* \"contracts/Actor/Retailer-smart-contract/inventory/RetailerBuyerStorage.sol\":291:315  RetailerOrg = msg.sender */\n  0x0100\n  exp\n  dup2\n  sload\n  dup2\n  0xffffffffffffffffffffffffffffffffffffffff\n  mul\n  not\n  and\n  swap1\n  dup4\n  0xffffffffffffffffffffffffffffffffffffffff\n  and\n  mul\n  or\n  swap1\n  sstore\n  pop\n    /* \"contracts/Actor/Retailer-smart-contract/inventory/RetailerBuyerStorage.sol\":135:7151  contract RetailerBuyerStorage {... */\n  dataSize(sub_0)\n  dup1\n  dataOffset(sub_0)\n  0x00\n  codecopy\n  0x00\n  return\nstop\n\nsub_0: assembly {\n        /* \"contracts/Actor/Retailer-smart-contract/inventory/RetailerBuyerStorage.sol\":135:7151  contract RetailerBuyerStorage {... */\n      mstore(0x40, 0x80)\n      callvalue\n      dup1\n      iszero\n      tag_1\n      jumpi\n      0x00\n      dup1\n      revert\n    tag_1:\n      pop\n      jumpi(tag_2, lt(calldatasize, 0x04))\n      shr(0xe0, calldataload(0x00))\n      dup1\n      0x7745770a\n      gt\n      tag_14\n      jumpi\n      dup1\n      0x7745770a\n      eq\n      tag_8\n      jumpi\n      dup1\n      0x8b3c04ce\n      eq\n      tag_9\n      jumpi\n      dup1\n      0xc5d3e11d\n      eq\n      tag_10\n      jumpi\n      dup1\n      0xcc231726\n      eq\n      tag_11\n      jumpi\n      dup1\n      0xcfa41ed0\n      eq\n      tag_12\n      jumpi\n      dup1\n      0xf93bd021\n      eq\n      tag_13\n      jumpi\n      jump(tag_2)\n    tag_14:\n      dup1\n      0x0803da24\n      eq\n      tag_3\n      jumpi\n      dup1\n      0x1e073fcf\n      eq\n      tag_4\n      jumpi\n      dup1\n      0x453ecf04\n      eq\n      tag_5\n      jumpi\n      dup1\n      0x6fb82e06\n      eq\n      tag_6\n      jumpi\n      dup1\n      0x738533ae\n      eq\n      tag_7\n      jumpi\n    tag_2:\n      0x00\n      dup1\n      revert\n        /* \"contracts/Actor/Retailer-smart-contract/inventory/RetailerBuyerStorage.sol\":6798:7142  function checkQuantity(address walletRetailer,  uint256 _id, uint256 _quantityToTransform ) external view returns(bool){... */\n    tag_3:\n      tag_15\n      0x04\n      dup1\n      calldatasize\n      sub\n      dup2\n      add\n      swap1\n      tag_16\n      swap2\n      swap1\n      tag_17\n      jump\t// in\n    tag_16:\n      tag_18\n      jump\t// in\n    tag_15:\n      mload(0x40)\n      tag_19\n      swap2\n      swap1\n      tag_20\n      jump\t// in\n    tag_19:\n      mload(0x40)\n      dup1\n      swap2\n      sub\n      swap1\n      return\n        /* \"contracts/Actor/Retailer-smart-contract/inventory/RetailerBuyerStorage.sol\":5247:5463  function getQuantity(address walletRetailer, uint256 _id) external view returns(uint256) {... */\n    tag_4:\n      tag_21\n      0x04\n      dup1\n      calldatasize\n      sub\n      dup2\n      add\n      swap1\n      tag_22\n      swap2\n      swap1\n      tag_23\n      jump\t// in\n    tag_22:\n      tag_24\n      jump\t// in\n    tag_21:\n      mload(0x40)\n      tag_25\n      swap2\n      swap1\n      tag_26\n      jump\t// in\n    tag_25:\n      mload(0x40)\n      dup1\n      swap2\n      sub\n      swap1\n      return\n        /* \"contracts/Actor/Retailer-smart-contract/inventory/RetailerBuyerStorage.sol\":4428:4804  function updateCheeseQuantity(address walletRetailer, uint256 _id, uint256 _newQuantity) external  {... */\n    tag_5:\n      tag_27\n      0x04\n      dup1\n      calldatasize\n      sub\n      dup2\n      add\n      swap1\n      tag_28\n      swap2\n      swap1\n      tag_17\n      jump\t// in\n    tag_28:\n      tag_29\n      jump\t// in\n    tag_27:\n      stop\n        /* \"contracts/Actor/Retailer-smart-contract/inventory/RetailerBuyerStorage.sol\":3228:3572  function getCheeseBlock(address walletRetailer, uint256 _id_CheeseBlockAcquistato) external view returns (uint256, address,string memory, uint256) {... */\n    tag_6:\n      tag_30\n      0x04\n      dup1\n      calldatasize\n      sub\n      dup2\n      add\n      swap1\n      tag_31\n      swap2\n      swap1\n      tag_23\n      jump\t// in\n    tag_31:\n      tag_32\n      jump\t// in\n    tag_30:\n      mload(0x40)\n      tag_33\n      swap5\n      swap4\n      swap3\n      swap2\n      swap1\n      tag_34\n      jump\t// in\n    tag_33:\n      mload(0x40)\n      dup1\n      swap2\n      sub\n      swap1\n      return\n        /* \"contracts/Actor/Retailer-smart-contract/inventory/RetailerBuyerStorage.sol\":5973:6162  function getListCheeseIdPurchasedByRetailer(address walletRetailer)external view returns (uint256[] memory){... */\n    tag_7:\n      tag_35\n      0x04\n      dup1\n      calldatasize\n      sub\n      dup2\n      add\n      swap1\n      tag_36\n      swap2\n      swap1\n      tag_37\n      jump\t// in\n    tag_36:\n      tag_38\n      jump\t// in\n    tag_35:\n      mload(0x40)\n      tag_39\n      swap2\n      swap1\n      tag_40\n      jump\t// in\n    tag_39:\n      mload(0x40)\n      dup1\n      swap2\n      sub\n      swap1\n      return\n        /* \"contracts/Actor/Retailer-smart-contract/inventory/RetailerBuyerStorage.sol\":6351:6788  function checkCheese(address walletRetailer, uint256 _id, uint256 _quantityToTransform) external view returns(bool) {... */\n    tag_8:\n      tag_41\n      0x04\n      dup1\n      calldatasize\n      sub\n      dup2\n      add\n      swap1\n      tag_42\n      swap2\n      swap1\n      tag_17\n      jump\t// in\n    tag_42:\n      tag_43\n      jump\t// in\n    tag_41:\n      mload(0x40)\n      tag_44\n      swap2\n      swap1\n      tag_20\n      jump\t// in\n    tag_44:\n      mload(0x40)\n      dup1\n      swap2\n      sub\n      swap1\n      return\n        /* \"contracts/Actor/Retailer-smart-contract/inventory/RetailerBuyerStorage.sol\":1463:3218  function addCheeseBlock( ... */\n    tag_9:\n      tag_45\n      0x04\n      dup1\n      calldatasize\n      sub\n      dup2\n      add\n      swap1\n      tag_46\n      swap2\n      swap1\n      tag_47\n      jump\t// in\n    tag_46:\n      tag_48\n      jump\t// in\n    tag_45:\n      mload(0x40)\n      tag_49\n      swap4\n      swap3\n      swap2\n      swap1\n      tag_50\n      jump\t// in\n    tag_49:\n      mload(0x40)\n      dup1\n      swap2\n      sub\n      swap1\n      return\n        /* \"contracts/Actor/Retailer-smart-contract/inventory/RetailerBuyerStorage.sol\":5711:5867  function getId(address walletRetailer, uint256 _id) external view returns(uint256) {... */\n    tag_10:\n      tag_51\n      0x04\n      dup1\n      calldatasize\n      sub\n      dup2\n      add\n      swap1\n      tag_52\n      swap2\n      swap1\n      tag_23\n      jump\t// in\n    tag_52:\n      tag_53\n      jump\t// in\n    tag_51:\n      mload(0x40)\n      tag_54\n      swap2\n      swap1\n      tag_26\n      jump\t// in\n    tag_54:\n      mload(0x40)\n      dup1\n      swap2\n      sub\n      swap1\n      return\n        /* \"contracts/Actor/Retailer-smart-contract/inventory/RetailerBuyerStorage.sol\":5471:5703  function getWalletCheeseProducer(address walletRetailer, uint256 _id) external view returns(address) {... */\n    tag_11:\n      tag_55\n      0x04\n      dup1\n      calldatasize\n      sub\n      dup2\n      add\n      swap1\n      tag_56\n      swap2\n      swap1\n      tag_23\n      jump\t// in\n    tag_56:\n      tag_57\n      jump\t// in\n    tag_55:\n      mload(0x40)\n      tag_58\n      swap2\n      swap1\n      tag_59\n      jump\t// in\n    tag_58:\n      mload(0x40)\n      dup1\n      swap2\n      sub\n      swap1\n      return\n        /* \"contracts/Actor/Retailer-smart-contract/inventory/RetailerBuyerStorage.sol\":3827:4165  function isCheesePresent(address walletRetailer, uint256 _id_CheeseBlockAcquistato)external view returns(bool){... */\n    tag_12:\n      tag_60\n      0x04\n      dup1\n      calldatasize\n      sub\n      dup2\n      add\n      swap1\n      tag_61\n      swap2\n      swap1\n      tag_23\n      jump\t// in\n    tag_61:\n      tag_62\n      jump\t// in\n    tag_60:\n      mload(0x40)\n      tag_63\n      swap2\n      swap1\n      tag_20\n      jump\t// in\n    tag_63:\n      mload(0x40)\n      dup1\n      swap2\n      sub\n      swap1\n      return\n        /* \"contracts/Actor/Retailer-smart-contract/inventory/RetailerBuyerStorage.sol\":4989:5237  function getDop(address walletRetailer, uint256 _id_cheeseBlockAcquistato) external view returns(string memory) {... */\n    tag_13:\n      tag_64\n      0x04\n      dup1\n      calldatasize\n      sub\n      dup2\n      add\n      swap1\n      tag_65\n      swap2\n      swap1\n      tag_23\n      jump\t// in\n    tag_65:\n      tag_66\n      jump\t// in\n    tag_64:\n      mload(0x40)\n      tag_67\n      swap2\n      swap1\n      tag_68\n      jump\t// in\n    tag_67:\n      mload(0x40)\n      dup1\n      swap2\n      sub\n      swap1\n      return\n        /* \"contracts/Actor/Retailer-smart-contract/inventory/RetailerBuyerStorage.sol\":6798:7142  function checkQuantity(address walletRetailer,  uint256 _id, uint256 _quantityToTransform ) external view returns(bool){... */\n    tag_18:\n        /* \"contracts/Actor/Retailer-smart-contract/inventory/RetailerBuyerStorage.sol\":6912:6916  bool */\n      0x00\n        /* \"contracts/Actor/Retailer-smart-contract/inventory/RetailerBuyerStorage.sol\":6938:6962  Cheese storage cheeseObj */\n      dup1\n        /* \"contracts/Actor/Retailer-smart-contract/inventory/RetailerBuyerStorage.sol\":6965:6986  purchasedCheeseBlocks */\n      0x01\n        /* \"contracts/Actor/Retailer-smart-contract/inventory/RetailerBuyerStorage.sol\":6965:7002  purchasedCheeseBlocks[walletRetailer] */\n      0x00\n        /* \"contracts/Actor/Retailer-smart-contract/inventory/RetailerBuyerStorage.sol\":6987:7001  walletRetailer */\n      dup7\n        /* \"contracts/Actor/Retailer-smart-contract/inventory/RetailerBuyerStorage.sol\":6965:7002  purchasedCheeseBlocks[walletRetailer] */\n      0xffffffffffffffffffffffffffffffffffffffff\n      and\n      0xffffffffffffffffffffffffffffffffffffffff\n      and\n      dup2\n      mstore\n      0x20\n      add\n      swap1\n      dup2\n      mstore\n      0x20\n      add\n      0x00\n      keccak256\n        /* \"contracts/Actor/Retailer-smart-contract/inventory/RetailerBuyerStorage.sol\":6965:7007  purchasedCheeseBlocks[walletRetailer][_id] */\n      0x00\n        /* \"contracts/Actor/Retailer-smart-contract/inventory/RetailerBuyerStorage.sol\":7003:7006  _id */\n      dup6\n        /* \"contracts/Actor/Retailer-smart-contract/inventory/RetailerBuyerStorage.sol\":6965:7007  purchasedCheeseBlocks[walletRetailer][_id] */\n      dup2\n      mstore\n      0x20\n      add\n      swap1\n      dup2\n      mstore\n      0x20\n      add\n      0x00\n      keccak256\n        /* \"contracts/Actor/Retailer-smart-contract/inventory/RetailerBuyerStorage.sol\":6938:7007  Cheese storage cheeseObj = purchasedCheeseBlocks[walletRetailer][_id] */\n      swap1\n      pop\n        /* \"contracts/Actor/Retailer-smart-contract/inventory/RetailerBuyerStorage.sol\":7062:7082  _quantityToTransform */\n      dup3\n        /* \"contracts/Actor/Retailer-smart-contract/inventory/RetailerBuyerStorage.sol\":7040:7049  cheeseObj */\n      dup2\n        /* \"contracts/Actor/Retailer-smart-contract/inventory/RetailerBuyerStorage.sol\":7040:7058  cheeseObj.quantity */\n      0x04\n      add\n      sload\n        /* \"contracts/Actor/Retailer-smart-contract/inventory/RetailerBuyerStorage.sol\":7040:7082  cheeseObj.quantity >= _quantityToTransform */\n      lt\n      iszero\n        /* \"contracts/Actor/Retailer-smart-contract/inventory/RetailerBuyerStorage.sol\":7032:7106  require(cheeseObj.quantity >= _quantityToTransform, \"Quantity not Valid!\") */\n      tag_70\n      jumpi\n      mload(0x40)\n      0x08c379a000000000000000000000000000000000000000000000000000000000\n      dup2\n      mstore\n      0x04\n      add\n      tag_71\n      swap1\n      tag_72\n      jump\t// in\n    tag_71:\n      mload(0x40)\n      dup1\n      swap2\n      sub\n      swap1\n      revert\n    tag_70:\n        /* \"contracts/Actor/Retailer-smart-contract/inventory/RetailerBuyerStorage.sol\":7126:7130  true */\n      0x01\n        /* \"contracts/Actor/Retailer-smart-contract/inventory/RetailerBuyerStorage.sol\":7119:7130  return true */\n      swap2\n      pop\n      pop\n        /* \"contracts/Actor/Retailer-smart-contract/inventory/RetailerBuyerStorage.sol\":6798:7142  function checkQuantity(address walletRetailer,  uint256 _id, uint256 _quantityToTransform ) external view returns(bool){... */\n      swap4\n      swap3\n      pop\n      pop\n      pop\n      jump\t// out\n        /* \"contracts/Actor/Retailer-smart-contract/inventory/RetailerBuyerStorage.sol\":5247:5463  function getQuantity(address walletRetailer, uint256 _id) external view returns(uint256) {... */\n    tag_24:\n        /* \"contracts/Actor/Retailer-smart-contract/inventory/RetailerBuyerStorage.sol\":5327:5334  uint256 */\n      0x00\n        /* \"contracts/Actor/Retailer-smart-contract/inventory/RetailerBuyerStorage.sol\":5349:5369  Cheese memory cheese */\n      dup1\n        /* \"contracts/Actor/Retailer-smart-contract/inventory/RetailerBuyerStorage.sol\":5372:5393  purchasedCheeseBlocks */\n      0x01\n        /* \"contracts/Actor/Retailer-smart-contract/inventory/RetailerBuyerStorage.sol\":5372:5409  purchasedCheeseBlocks[walletRetailer] */\n      0x00\n        /* \"contracts/Actor/Retailer-smart-contract/inventory/RetailerBuyerStorage.sol\":5394:5408  walletRetailer */\n      dup6\n        /* \"contracts/Actor/Retailer-smart-contract/inventory/RetailerBuyerStorage.sol\":5372:5409  purchasedCheeseBlocks[walletRetailer] */\n      0xffffffffffffffffffffffffffffffffffffffff\n      and\n      0xffffffffffffffffffffffffffffffffffffffff\n      and\n      dup2\n      mstore\n      0x20\n      add\n      swap1\n      dup2\n      mstore\n      0x20\n      add\n      0x00\n      keccak256\n        /* \"contracts/Actor/Retailer-smart-contract/inventory/RetailerBuyerStorage.sol\":5372:5414  purchasedCheeseBlocks[walletRetailer][_id] */\n      0x00\n        /* \"contracts/Actor/Retailer-smart-contract/inventory/RetailerBuyerStorage.sol\":5410:5413  _id */\n      dup5\n        /* \"contracts/Actor/Retailer-smart-contract/inventory/RetailerBuyerStorage.sol\":5372:5414  purchasedCheeseBlocks[walletRetailer][_id] */\n      dup2\n      mstore\n      0x20\n      add\n      swap1\n      dup2\n      mstore\n      0x20\n      add\n      0x00\n      keccak256\n        /* \"contracts/Actor/Retailer-smart-contract/inventory/RetailerBuyerStorage.sol\":5349:5414  Cheese memory cheese = purchasedCheeseBlocks[walletRetailer][_id] */\n      mload(0x40)\n      dup1\n      0xa0\n      add\n      0x40\n      mstore\n      swap1\n      dup2\n      0x00\n      dup3\n      add\n      sload\n      dup2\n      mstore\n      0x20\n      add\n      0x01\n      dup3\n      add\n      sload\n      dup2\n      mstore\n      0x20\n      add\n      0x02\n      dup3\n      add\n      0x00\n      swap1\n      sload\n      swap1\n      0x0100\n      exp\n      swap1\n      div\n      0xffffffffffffffffffffffffffffffffffffffff\n      and\n      0xffffffffffffffffffffffffffffffffffffffff\n      and\n      0xffffffffffffffffffffffffffffffffffffffff\n      and\n      dup2\n      mstore\n      0x20\n      add\n      0x03\n      dup3\n      add\n      dup1\n      sload\n      tag_74\n      swap1\n      tag_75\n      jump\t// in\n    tag_74:\n      dup1\n      0x1f\n      add\n      0x20\n      dup1\n      swap2\n      div\n      mul\n      0x20\n      add\n      mload(0x40)\n      swap1\n      dup2\n      add\n      0x40\n      mstore\n      dup1\n      swap3\n      swap2\n      swap1\n      dup2\n      dup2\n      mstore\n      0x20\n      add\n      dup3\n      dup1\n      sload\n      tag_76\n      swap1\n      tag_75\n      jump\t// in\n    tag_76:\n      dup1\n      iszero\n      tag_77\n      jumpi\n      dup1\n      0x1f\n      lt\n      tag_78\n      jumpi\n      0x0100\n      dup1\n      dup4\n      sload\n      div\n      mul\n      dup4\n      mstore\n      swap2\n      0x20\n      add\n      swap2\n      jump(tag_77)\n    tag_78:\n      dup3\n      add\n      swap2\n      swap1\n      0x00\n      mstore\n      keccak256(0x00, 0x20)\n      swap1\n    tag_79:\n      dup2\n      sload\n      dup2\n      mstore\n      swap1\n      0x01\n      add\n      swap1\n      0x20\n      add\n      dup1\n      dup4\n      gt\n      tag_79\n      jumpi\n      dup3\n      swap1\n      sub\n      0x1f\n      and\n      dup3\n      add\n      swap2\n    tag_77:\n      pop\n      pop\n      pop\n      pop\n      pop\n      dup2\n      mstore\n      0x20\n      add\n      0x04\n      dup3\n      add\n      sload\n      dup2\n      mstore\n      pop\n      pop\n      swap1\n      pop\n        /* \"contracts/Actor/Retailer-smart-contract/inventory/RetailerBuyerStorage.sol\":5432:5438  cheese */\n      dup1\n        /* \"contracts/Actor/Retailer-smart-contract/inventory/RetailerBuyerStorage.sol\":5432:5447  cheese.quantity */\n      0x80\n      add\n      mload\n        /* \"contracts/Actor/Retailer-smart-contract/inventory/RetailerBuyerStorage.sol\":5425:5447  return cheese.quantity */\n      swap2\n      pop\n      pop\n        /* \"contracts/Actor/Retailer-smart-contract/inventory/RetailerBuyerStorage.sol\":5247:5463  function getQuantity(address walletRetailer, uint256 _id) external view returns(uint256) {... */\n      swap3\n      swap2\n      pop\n      pop\n      jump\t// out\n        /* \"contracts/Actor/Retailer-smart-contract/inventory/RetailerBuyerStorage.sol\":4428:4804  function updateCheeseQuantity(address walletRetailer, uint256 _id, uint256 _newQuantity) external  {... */\n    tag_29:\n        /* \"contracts/Actor/Retailer-smart-contract/inventory/RetailerBuyerStorage.sol\":4599:4620  purchasedCheeseBlocks */\n      0x01\n        /* \"contracts/Actor/Retailer-smart-contract/inventory/RetailerBuyerStorage.sol\":4599:4636  purchasedCheeseBlocks[walletRetailer] */\n      0x00\n        /* \"contracts/Actor/Retailer-smart-contract/inventory/RetailerBuyerStorage.sol\":4621:4635  walletRetailer */\n      dup5\n        /* \"contracts/Actor/Retailer-smart-contract/inventory/RetailerBuyerStorage.sol\":4599:4636  purchasedCheeseBlocks[walletRetailer] */\n      0xffffffffffffffffffffffffffffffffffffffff\n      and\n      0xffffffffffffffffffffffffffffffffffffffff\n      and\n      dup2\n      mstore\n      0x20\n      add\n      swap1\n      dup2\n      mstore\n      0x20\n      add\n      0x00\n      keccak256\n        /* \"contracts/Actor/Retailer-smart-contract/inventory/RetailerBuyerStorage.sol\":4599:4641  purchasedCheeseBlocks[walletRetailer][_id] */\n      0x00\n        /* \"contracts/Actor/Retailer-smart-contract/inventory/RetailerBuyerStorage.sol\":4637:4640  _id */\n      dup4\n        /* \"contracts/Actor/Retailer-smart-contract/inventory/RetailerBuyerStorage.sol\":4599:4641  purchasedCheeseBlocks[walletRetailer][_id] */\n      dup2\n      mstore\n      0x20\n      add\n      swap1\n      dup2\n      mstore\n      0x20\n      add\n      0x00\n      keccak256\n        /* \"contracts/Actor/Retailer-smart-contract/inventory/RetailerBuyerStorage.sol\":4599:4650  purchasedCheeseBlocks[walletRetailer][_id].quantity */\n      0x04\n      add\n      sload\n        /* \"contracts/Actor/Retailer-smart-contract/inventory/RetailerBuyerStorage.sol\":4585:4597  _newQuantity */\n      dup2\n        /* \"contracts/Actor/Retailer-smart-contract/inventory/RetailerBuyerStorage.sol\":4585:4650  _newQuantity<=purchasedCheeseBlocks[walletRetailer][_id].quantity */\n      gt\n      iszero\n        /* \"contracts/Actor/Retailer-smart-contract/inventory/RetailerBuyerStorage.sol\":4577:4717  require(_newQuantity<=purchasedCheeseBlocks[walletRetailer][_id].quantity,\"Controllo della Quantita' da utilizzare non andata a buon fine!\") */\n      tag_81\n      jumpi\n      mload(0x40)\n      0x08c379a000000000000000000000000000000000000000000000000000000000\n      dup2\n      mstore\n      0x04\n      add\n      tag_82\n      swap1\n      tag_83\n      jump\t// in\n    tag_82:\n      mload(0x40)\n      dup1\n      swap2\n      sub\n      swap1\n      revert\n    tag_81:\n        /* \"contracts/Actor/Retailer-smart-contract/inventory/RetailerBuyerStorage.sol\":4784:4796  _newQuantity */\n      dup1\n        /* \"contracts/Actor/Retailer-smart-contract/inventory/RetailerBuyerStorage.sol\":4730:4751  purchasedCheeseBlocks */\n      0x01\n        /* \"contracts/Actor/Retailer-smart-contract/inventory/RetailerBuyerStorage.sol\":4730:4767  purchasedCheeseBlocks[walletRetailer] */\n      0x00\n        /* \"contracts/Actor/Retailer-smart-contract/inventory/RetailerBuyerStorage.sol\":4752:4766  walletRetailer */\n      dup6\n        /* \"contracts/Actor/Retailer-smart-contract/inventory/RetailerBuyerStorage.sol\":4730:4767  purchasedCheeseBlocks[walletRetailer] */\n      0xffffffffffffffffffffffffffffffffffffffff\n      and\n      0xffffffffffffffffffffffffffffffffffffffff\n      and\n      dup2\n      mstore\n      0x20\n      add\n      swap1\n      dup2\n      mstore\n      0x20\n      add\n      0x00\n      keccak256\n        /* \"contracts/Actor/Retailer-smart-contract/inventory/RetailerBuyerStorage.sol\":4730:4772  purchasedCheeseBlocks[walletRetailer][_id] */\n      0x00\n        /* \"contracts/Actor/Retailer-smart-contract/inventory/RetailerBuyerStorage.sol\":4768:4771  _id */\n      dup5\n        /* \"contracts/Actor/Retailer-smart-contract/inventory/RetailerBuyerStorage.sol\":4730:4772  purchasedCheeseBlocks[walletRetailer][_id] */\n      dup2\n      mstore\n      0x20\n      add\n      swap1\n      dup2\n      mstore\n      0x20\n      add\n      0x00\n      keccak256\n        /* \"contracts/Actor/Retailer-smart-contract/inventory/RetailerBuyerStorage.sol\":4730:4781  purchasedCheeseBlocks[walletRetailer][_id].quantity */\n      0x04\n      add\n        /* \"contracts/Actor/Retailer-smart-contract/inventory/RetailerBuyerStorage.sol\":4730:4796  purchasedCheeseBlocks[walletRetailer][_id].quantity = _newQuantity */\n      dup2\n      swap1\n      sstore\n      pop\n        /* \"contracts/Actor/Retailer-smart-contract/inventory/RetailerBuyerStorage.sol\":4428:4804  function updateCheeseQuantity(address walletRetailer, uint256 _id, uint256 _newQuantity) external  {... */\n      pop\n      pop\n      pop\n      jump\t// out\n        /* \"contracts/Actor/Retailer-smart-contract/inventory/RetailerBuyerStorage.sol\":3228:3572  function getCheeseBlock(address walletRetailer, uint256 _id_CheeseBlockAcquistato) external view returns (uint256, address,string memory, uint256) {... */\n    tag_32:\n        /* \"contracts/Actor/Retailer-smart-contract/inventory/RetailerBuyerStorage.sol\":3334:3341  uint256 */\n      0x00\n        /* \"contracts/Actor/Retailer-smart-contract/inventory/RetailerBuyerStorage.sol\":3343:3350  address */\n      dup1\n        /* \"contracts/Actor/Retailer-smart-contract/inventory/RetailerBuyerStorage.sol\":3351:3364  string memory */\n      0x60\n        /* \"contracts/Actor/Retailer-smart-contract/inventory/RetailerBuyerStorage.sol\":3366:3373  uint256 */\n      0x00\n        /* \"contracts/Actor/Retailer-smart-contract/inventory/RetailerBuyerStorage.sol\":3388:3408  Cheese memory cheese */\n      dup1\n        /* \"contracts/Actor/Retailer-smart-contract/inventory/RetailerBuyerStorage.sol\":3411:3432  purchasedCheeseBlocks */\n      0x01\n        /* \"contracts/Actor/Retailer-smart-contract/inventory/RetailerBuyerStorage.sol\":3411:3448  purchasedCheeseBlocks[walletRetailer] */\n      0x00\n        /* \"contracts/Actor/Retailer-smart-contract/inventory/RetailerBuyerStorage.sol\":3433:3447  walletRetailer */\n      dup9\n        /* \"contracts/Actor/Retailer-smart-contract/inventory/RetailerBuyerStorage.sol\":3411:3448  purchasedCheeseBlocks[walletRetailer] */\n      0xffffffffffffffffffffffffffffffffffffffff\n      and\n      0xffffffffffffffffffffffffffffffffffffffff\n      and\n      dup2\n      mstore\n      0x20\n      add\n      swap1\n      dup2\n      mstore\n      0x20\n      add\n      0x00\n      keccak256\n        /* \"contracts/Actor/Retailer-smart-contract/inventory/RetailerBuyerStorage.sol\":3411:3475  purchasedCheeseBlocks[walletRetailer][_id_CheeseBlockAcquistato] */\n      0x00\n        /* \"contracts/Actor/Retailer-smart-contract/inventory/RetailerBuyerStorage.sol\":3449:3474  _id_CheeseBlockAcquistato */\n      dup8\n        /* \"contracts/Actor/Retailer-smart-contract/inventory/RetailerBuyerStorage.sol\":3411:3475  purchasedCheeseBlocks[walletRetailer][_id_CheeseBlockAcquistato] */\n      dup2\n      mstore\n      0x20\n      add\n      swap1\n      dup2\n      mstore\n      0x20\n      add\n      0x00\n      keccak256\n        /* \"contracts/Actor/Retailer-smart-contract/inventory/RetailerBuyerStorage.sol\":3388:3475  Cheese memory cheese = purchasedCheeseBlocks[walletRetailer][_id_CheeseBlockAcquistato] */\n      mload(0x40)\n      dup1\n      0xa0\n      add\n      0x40\n      mstore\n      swap1\n      dup2\n      0x00\n      dup3\n      add\n      sload\n      dup2\n      mstore\n      0x20\n      add\n      0x01\n      dup3\n      add\n      sload\n      dup2\n      mstore\n      0x20\n      add\n      0x02\n      dup3\n      add\n      0x00\n      swap1\n      sload\n      swap1\n      0x0100\n      exp\n      swap1\n      div\n      0xffffffffffffffffffffffffffffffffffffffff\n      and\n      0xffffffffffffffffffffffffffffffffffffffff\n      and\n      0xffffffffffffffffffffffffffffffffffffffff\n      and\n      dup2\n      mstore\n      0x20\n      add\n      0x03\n      dup3\n      add\n      dup1\n      sload\n      tag_85\n      swap1\n      tag_75\n      jump\t// in\n    tag_85:\n      dup1\n      0x1f\n      add\n      0x20\n      dup1\n      swap2\n      div\n      mul\n      0x20\n      add\n      mload(0x40)\n      swap1\n      dup2\n      add\n      0x40\n      mstore\n      dup1\n      swap3\n      swap2\n      swap1\n      dup2\n      dup2\n      mstore\n      0x20\n      add\n      dup3\n      dup1\n      sload\n      tag_86\n      swap1\n      tag_75\n      jump\t// in\n    tag_86:\n      dup1\n      iszero\n      tag_87\n      jumpi\n      dup1\n      0x1f\n      lt\n      tag_88\n      jumpi\n      0x0100\n      dup1\n      dup4\n      sload\n      div\n      mul\n      dup4\n      mstore\n      swap2\n      0x20\n      add\n      swap2\n      jump(tag_87)\n    tag_88:\n      dup3\n      add\n      swap2\n      swap1\n      0x00\n      mstore\n      keccak256(0x00, 0x20)\n      swap1\n    tag_89:\n      dup2\n      sload\n      dup2\n      mstore\n      swap1\n      0x01\n      add\n      swap1\n      0x20\n      add\n      dup1\n      dup4\n      gt\n      tag_89\n      jumpi\n      dup3\n      swap1\n      sub\n      0x1f\n      and\n      dup3\n      add\n      swap2\n    tag_87:\n      pop\n      pop\n      pop\n      pop\n      pop\n      dup2\n      mstore\n      0x20\n      add\n      0x04\n      dup3\n      add\n      sload\n      dup2\n      mstore\n      pop\n      pop\n      swap1\n      pop\n        /* \"contracts/Actor/Retailer-smart-contract/inventory/RetailerBuyerStorage.sol\":3496:3502  cheese */\n      dup1\n        /* \"contracts/Actor/Retailer-smart-contract/inventory/RetailerBuyerStorage.sol\":3496:3505  cheese.id */\n      0x00\n      add\n      mload\n        /* \"contracts/Actor/Retailer-smart-contract/inventory/RetailerBuyerStorage.sol\":3507:3513  cheese */\n      dup2\n        /* \"contracts/Actor/Retailer-smart-contract/inventory/RetailerBuyerStorage.sol\":3507:3534  cheese.walletCheeseProducer */\n      0x40\n      add\n      mload\n        /* \"contracts/Actor/Retailer-smart-contract/inventory/RetailerBuyerStorage.sol\":3536:3542  cheese */\n      dup3\n        /* \"contracts/Actor/Retailer-smart-contract/inventory/RetailerBuyerStorage.sol\":3536:3546  cheese.dop */\n      0x60\n      add\n      mload\n        /* \"contracts/Actor/Retailer-smart-contract/inventory/RetailerBuyerStorage.sol\":3548:3554  cheese */\n      dup4\n        /* \"contracts/Actor/Retailer-smart-contract/inventory/RetailerBuyerStorage.sol\":3548:3563  cheese.quantity */\n      0x80\n      add\n      mload\n        /* \"contracts/Actor/Retailer-smart-contract/inventory/RetailerBuyerStorage.sol\":3488:3564  return (cheese.id, cheese.walletCheeseProducer, cheese.dop, cheese.quantity) */\n      swap5\n      pop\n      swap5\n      pop\n      swap5\n      pop\n      swap5\n      pop\n      pop\n        /* \"contracts/Actor/Retailer-smart-contract/inventory/RetailerBuyerStorage.sol\":3228:3572  function getCheeseBlock(address walletRetailer, uint256 _id_CheeseBlockAcquistato) external view returns (uint256, address,string memory, uint256) {... */\n      swap3\n      swap6\n      swap2\n      swap5\n      pop\n      swap3\n      pop\n      jump\t// out\n        /* \"contracts/Actor/Retailer-smart-contract/inventory/RetailerBuyerStorage.sol\":5973:6162  function getListCheeseIdPurchasedByRetailer(address walletRetailer)external view returns (uint256[] memory){... */\n    tag_38:\n        /* \"contracts/Actor/Retailer-smart-contract/inventory/RetailerBuyerStorage.sol\":6063:6079  uint256[] memory */\n      0x60\n        /* \"contracts/Actor/Retailer-smart-contract/inventory/RetailerBuyerStorage.sol\":6098:6138  purchasedCheeseBlockListBySingleRetailer */\n      0x02\n        /* \"contracts/Actor/Retailer-smart-contract/inventory/RetailerBuyerStorage.sol\":6098:6154  purchasedCheeseBlockListBySingleRetailer[walletRetailer] */\n      0x00\n        /* \"contracts/Actor/Retailer-smart-contract/inventory/RetailerBuyerStorage.sol\":6139:6153  walletRetailer */\n      dup4\n        /* \"contracts/Actor/Retailer-smart-contract/inventory/RetailerBuyerStorage.sol\":6098:6154  purchasedCheeseBlockListBySingleRetailer[walletRetailer] */\n      0xffffffffffffffffffffffffffffffffffffffff\n      and\n      0xffffffffffffffffffffffffffffffffffffffff\n      and\n      dup2\n      mstore\n      0x20\n      add\n      swap1\n      dup2\n      mstore\n      0x20\n      add\n      0x00\n      keccak256\n        /* \"contracts/Actor/Retailer-smart-contract/inventory/RetailerBuyerStorage.sol\":6091:6154  return purchasedCheeseBlockListBySingleRetailer[walletRetailer] */\n      dup1\n      sload\n      dup1\n      0x20\n      mul\n      0x20\n      add\n      mload(0x40)\n      swap1\n      dup2\n      add\n      0x40\n      mstore\n      dup1\n      swap3\n      swap2\n      swap1\n      dup2\n      dup2\n      mstore\n      0x20\n      add\n      dup3\n      dup1\n      sload\n      dup1\n      iszero\n      tag_91\n      jumpi\n      0x20\n      mul\n      dup3\n      add\n      swap2\n      swap1\n      0x00\n      mstore\n      keccak256(0x00, 0x20)\n      swap1\n    tag_92:\n      dup2\n      sload\n      dup2\n      mstore\n      0x20\n      add\n      swap1\n      0x01\n      add\n      swap1\n      dup1\n      dup4\n      gt\n      tag_92\n      jumpi\n    tag_91:\n      pop\n      pop\n      pop\n      pop\n      pop\n      swap1\n      pop\n        /* \"contracts/Actor/Retailer-smart-contract/inventory/RetailerBuyerStorage.sol\":5973:6162  function getListCheeseIdPurchasedByRetailer(address walletRetailer)external view returns (uint256[] memory){... */\n      swap2\n      swap1\n      pop\n      jump\t// out\n        /* \"contracts/Actor/Retailer-smart-contract/inventory/RetailerBuyerStorage.sol\":6351:6788  function checkCheese(address walletRetailer, uint256 _id, uint256 _quantityToTransform) external view returns(bool) {... */\n    tag_43:\n        /* \"contracts/Actor/Retailer-smart-contract/inventory/RetailerBuyerStorage.sol\":6461:6465  bool */\n      0x00\n        /* \"contracts/Actor/Retailer-smart-contract/inventory/RetailerBuyerStorage.sol\":6535:6538  _id */\n      dup3\n        /* \"contracts/Actor/Retailer-smart-contract/inventory/RetailerBuyerStorage.sol\":6486:6507  purchasedCheeseBlocks */\n      0x01\n        /* \"contracts/Actor/Retailer-smart-contract/inventory/RetailerBuyerStorage.sol\":6486:6523  purchasedCheeseBlocks[walletRetailer] */\n      0x00\n        /* \"contracts/Actor/Retailer-smart-contract/inventory/RetailerBuyerStorage.sol\":6508:6522  walletRetailer */\n      dup7\n        /* \"contracts/Actor/Retailer-smart-contract/inventory/RetailerBuyerStorage.sol\":6486:6523  purchasedCheeseBlocks[walletRetailer] */\n      0xffffffffffffffffffffffffffffffffffffffff\n      and\n      0xffffffffffffffffffffffffffffffffffffffff\n      and\n      dup2\n      mstore\n      0x20\n      add\n      swap1\n      dup2\n      mstore\n      0x20\n      add\n      0x00\n      keccak256\n        /* \"contracts/Actor/Retailer-smart-contract/inventory/RetailerBuyerStorage.sol\":6486:6528  purchasedCheeseBlocks[walletRetailer][_id] */\n      0x00\n        /* \"contracts/Actor/Retailer-smart-contract/inventory/RetailerBuyerStorage.sol\":6524:6527  _id */\n      dup6\n        /* \"contracts/Actor/Retailer-smart-contract/inventory/RetailerBuyerStorage.sol\":6486:6528  purchasedCheeseBlocks[walletRetailer][_id] */\n      dup2\n      mstore\n      0x20\n      add\n      swap1\n      dup2\n      mstore\n      0x20\n      add\n      0x00\n      keccak256\n        /* \"contracts/Actor/Retailer-smart-contract/inventory/RetailerBuyerStorage.sol\":6486:6531  purchasedCheeseBlocks[walletRetailer][_id].id */\n      0x00\n      add\n      sload\n        /* \"contracts/Actor/Retailer-smart-contract/inventory/RetailerBuyerStorage.sol\":6486:6538  purchasedCheeseBlocks[walletRetailer][_id].id == _id */\n      eq\n        /* \"contracts/Actor/Retailer-smart-contract/inventory/RetailerBuyerStorage.sol\":6478:6573  require(purchasedCheeseBlocks[walletRetailer][_id].id == _id, \"Partita di Latte non presente!\") */\n      tag_94\n      jumpi\n      mload(0x40)\n      0x08c379a000000000000000000000000000000000000000000000000000000000\n      dup2\n      mstore\n      0x04\n      add\n      tag_95\n      swap1\n      tag_96\n      jump\t// in\n    tag_95:\n      mload(0x40)\n      dup1\n      swap2\n      sub\n      swap1\n      revert\n    tag_94:\n        /* \"contracts/Actor/Retailer-smart-contract/inventory/RetailerBuyerStorage.sol\":6586:6610  Cheese storage cheeseObj */\n      0x00\n        /* \"contracts/Actor/Retailer-smart-contract/inventory/RetailerBuyerStorage.sol\":6613:6634  purchasedCheeseBlocks */\n      0x01\n        /* \"contracts/Actor/Retailer-smart-contract/inventory/RetailerBuyerStorage.sol\":6613:6650  purchasedCheeseBlocks[walletRetailer] */\n      0x00\n        /* \"contracts/Actor/Retailer-smart-contract/inventory/RetailerBuyerStorage.sol\":6635:6649  walletRetailer */\n      dup7\n        /* \"contracts/Actor/Retailer-smart-contract/inventory/RetailerBuyerStorage.sol\":6613:6650  purchasedCheeseBlocks[walletRetailer] */\n      0xffffffffffffffffffffffffffffffffffffffff\n      and\n      0xffffffffffffffffffffffffffffffffffffffff\n      and\n      dup2\n      mstore\n      0x20\n      add\n      swap1\n      dup2\n      mstore\n      0x20\n      add\n      0x00\n      keccak256\n        /* \"contracts/Actor/Retailer-smart-contract/inventory/RetailerBuyerStorage.sol\":6613:6655  purchasedCheeseBlocks[walletRetailer][_id] */\n      0x00\n        /* \"contracts/Actor/Retailer-smart-contract/inventory/RetailerBuyerStorage.sol\":6651:6654  _id */\n      dup6\n        /* \"contracts/Actor/Retailer-smart-contract/inventory/RetailerBuyerStorage.sol\":6613:6655  purchasedCheeseBlocks[walletRetailer][_id] */\n      dup2\n      mstore\n      0x20\n      add\n      swap1\n      dup2\n      mstore\n      0x20\n      add\n      0x00\n      keccak256\n        /* \"contracts/Actor/Retailer-smart-contract/inventory/RetailerBuyerStorage.sol\":6586:6655  Cheese storage cheeseObj = purchasedCheeseBlocks[walletRetailer][_id] */\n      swap1\n      pop\n        /* \"contracts/Actor/Retailer-smart-contract/inventory/RetailerBuyerStorage.sol\":6710:6730  _quantityToTransform */\n      dup3\n        /* \"contracts/Actor/Retailer-smart-contract/inventory/RetailerBuyerStorage.sol\":6688:6697  cheeseObj */\n      dup2\n        /* \"contracts/Actor/Retailer-smart-contract/inventory/RetailerBuyerStorage.sol\":6688:6706  cheeseObj.quantity */\n      0x04\n      add\n      sload\n        /* \"contracts/Actor/Retailer-smart-contract/inventory/RetailerBuyerStorage.sol\":6688:6730  cheeseObj.quantity >= _quantityToTransform */\n      lt\n      iszero\n        /* \"contracts/Actor/Retailer-smart-contract/inventory/RetailerBuyerStorage.sol\":6680:6754  require(cheeseObj.quantity >= _quantityToTransform, \"Quantity not Valid!\") */\n      tag_97\n      jumpi\n      mload(0x40)\n      0x08c379a000000000000000000000000000000000000000000000000000000000\n      dup2\n      mstore\n      0x04\n      add\n      tag_98\n      swap1\n      tag_72\n      jump\t// in\n    tag_98:\n      mload(0x40)\n      dup1\n      swap2\n      sub\n      swap1\n      revert\n    tag_97:\n        /* \"contracts/Actor/Retailer-smart-contract/inventory/RetailerBuyerStorage.sol\":6772:6776  true */\n      0x01\n        /* \"contracts/Actor/Retailer-smart-contract/inventory/RetailerBuyerStorage.sol\":6765:6776  return true */\n      swap2\n      pop\n      pop\n        /* \"contracts/Actor/Retailer-smart-contract/inventory/RetailerBuyerStorage.sol\":6351:6788  function checkCheese(address walletRetailer, uint256 _id, uint256 _quantityToTransform) external view returns(bool) {... */\n      swap4\n      swap3\n      pop\n      pop\n      pop\n      jump\t// out\n        /* \"contracts/Actor/Retailer-smart-contract/inventory/RetailerBuyerStorage.sol\":1463:3218  function addCheeseBlock( ... */\n    tag_48:\n        /* \"contracts/Actor/Retailer-smart-contract/inventory/RetailerBuyerStorage.sol\":1869:1902  uint256 id_CheeseBlock_Acquistato */\n      0x00\n        /* \"contracts/Actor/Retailer-smart-contract/inventory/RetailerBuyerStorage.sol\":1917:1940  string memory dopCheese */\n      0x60\n        /* \"contracts/Actor/Retailer-smart-contract/inventory/RetailerBuyerStorage.sol\":1955:1981  uint256 quantityAcquistata */\n      0x00\n        /* \"contracts/Actor/Retailer-smart-contract/inventory/RetailerBuyerStorage.sol\":2006:2017  uint256 _id */\n      dup1\n        /* \"contracts/Actor/Retailer-smart-contract/inventory/RetailerBuyerStorage.sol\":2069:2078  _quantity */\n      dup5\n        /* \"contracts/Actor/Retailer-smart-contract/inventory/RetailerBuyerStorage.sol\":2093:2096  dop */\n      dup7\n        /* \"contracts/Actor/Retailer-smart-contract/inventory/RetailerBuyerStorage.sol\":2111:2126  _walletRetailer */\n      dup11\n        /* \"contracts/Actor/Retailer-smart-contract/inventory/RetailerBuyerStorage.sol\":2141:2162  _walletCheeseProducer */\n      dup11\n        /* \"contracts/Actor/Retailer-smart-contract/inventory/RetailerBuyerStorage.sol\":2177:2192  _id_CheeseBlock */\n      dup11\n        /* \"contracts/Actor/Retailer-smart-contract/inventory/RetailerBuyerStorage.sol\":2207:2222  block.timestamp */\n      timestamp\n        /* \"contracts/Actor/Retailer-smart-contract/inventory/RetailerBuyerStorage.sol\":2038:2424  abi.encodePacked(... */\n      add(0x20, mload(0x40))\n      tag_100\n      swap7\n      swap6\n      swap5\n      swap4\n      swap3\n      swap2\n      swap1\n      tag_101\n      jump\t// in\n    tag_100:\n      mload(0x40)\n      0x20\n      dup2\n      dup4\n      sub\n      sub\n      dup2\n      mstore\n      swap1\n      0x40\n      mstore\n        /* \"contracts/Actor/Retailer-smart-contract/inventory/RetailerBuyerStorage.sol\":2028:2425  keccak256(abi.encodePacked(... */\n      dup1\n      mload\n      swap1\n      0x20\n      add\n      keccak256\n        /* \"contracts/Actor/Retailer-smart-contract/inventory/RetailerBuyerStorage.sol\":2020:2426  uint256(keccak256(abi.encodePacked(... */\n      0x00\n      shr\n        /* \"contracts/Actor/Retailer-smart-contract/inventory/RetailerBuyerStorage.sol\":2006:2426  uint256 _id = uint256(keccak256(abi.encodePacked(... */\n      swap1\n      pop\n        /* \"contracts/Actor/Retailer-smart-contract/inventory/RetailerBuyerStorage.sol\":2441:2469  Cheese storage cheeseControl */\n      0x00\n        /* \"contracts/Actor/Retailer-smart-contract/inventory/RetailerBuyerStorage.sol\":2472:2493  purchasedCheeseBlocks */\n      0x01\n        /* \"contracts/Actor/Retailer-smart-contract/inventory/RetailerBuyerStorage.sol\":2472:2510  purchasedCheeseBlocks[_walletRetailer] */\n      0x00\n        /* \"contracts/Actor/Retailer-smart-contract/inventory/RetailerBuyerStorage.sol\":2494:2509  _walletRetailer */\n      dup12\n        /* \"contracts/Actor/Retailer-smart-contract/inventory/RetailerBuyerStorage.sol\":2472:2510  purchasedCheeseBlocks[_walletRetailer] */\n      0xffffffffffffffffffffffffffffffffffffffff\n      and\n      0xffffffffffffffffffffffffffffffffffffffff\n      and\n      dup2\n      mstore\n      0x20\n      add\n      swap1\n      dup2\n      mstore\n      0x20\n      add\n      0x00\n      keccak256\n        /* \"contracts/Actor/Retailer-smart-contract/inventory/RetailerBuyerStorage.sol\":2472:2515  purchasedCheeseBlocks[_walletRetailer][_id] */\n      0x00\n        /* \"contracts/Actor/Retailer-smart-contract/inventory/RetailerBuyerStorage.sol\":2511:2514  _id */\n      dup4\n        /* \"contracts/Actor/Retailer-smart-contract/inventory/RetailerBuyerStorage.sol\":2472:2515  purchasedCheeseBlocks[_walletRetailer][_id] */\n      dup2\n      mstore\n      0x20\n      add\n      swap1\n      dup2\n      mstore\n      0x20\n      add\n      0x00\n      keccak256\n        /* \"contracts/Actor/Retailer-smart-contract/inventory/RetailerBuyerStorage.sol\":2441:2515  Cheese storage cheeseControl = purchasedCheeseBlocks[_walletRetailer][_id] */\n      swap1\n      pop\n        /* \"contracts/Actor/Retailer-smart-contract/inventory/RetailerBuyerStorage.sol\":2555:2556  0 */\n      0x00\n        /* \"contracts/Actor/Retailer-smart-contract/inventory/RetailerBuyerStorage.sol\":2535:2548  cheeseControl */\n      dup2\n        /* \"contracts/Actor/Retailer-smart-contract/inventory/RetailerBuyerStorage.sol\":2535:2551  cheeseControl.id */\n      0x00\n      add\n      sload\n        /* \"contracts/Actor/Retailer-smart-contract/inventory/RetailerBuyerStorage.sol\":2535:2556  cheeseControl.id == 0 */\n      eq\n        /* \"contracts/Actor/Retailer-smart-contract/inventory/RetailerBuyerStorage.sol\":2526:2592  require( cheeseControl.id == 0, \"Partita di Latte gia' presente!\") */\n      tag_102\n      jumpi\n      mload(0x40)\n      0x08c379a000000000000000000000000000000000000000000000000000000000\n      dup2\n      mstore\n      0x04\n      add\n      tag_103\n      swap1\n      tag_104\n      jump\t// in\n    tag_103:\n      mload(0x40)\n      dup1\n      swap2\n      sub\n      swap1\n      revert\n    tag_102:\n        /* \"contracts/Actor/Retailer-smart-contract/inventory/RetailerBuyerStorage.sol\":2648:2668  Cheese memory cheese */\n      0x00\n        /* \"contracts/Actor/Retailer-smart-contract/inventory/RetailerBuyerStorage.sol\":2671:2872  Cheese({... */\n      mload(0x40)\n      dup1\n      0xa0\n      add\n      0x40\n      mstore\n      dup1\n        /* \"contracts/Actor/Retailer-smart-contract/inventory/RetailerBuyerStorage.sol\":2697:2700  _id */\n      dup5\n        /* \"contracts/Actor/Retailer-smart-contract/inventory/RetailerBuyerStorage.sol\":2671:2872  Cheese({... */\n      dup2\n      mstore\n      0x20\n      add\n        /* \"contracts/Actor/Retailer-smart-contract/inventory/RetailerBuyerStorage.sol\":2753:2768  _id_CheeseBlock */\n      dup11\n        /* \"contracts/Actor/Retailer-smart-contract/inventory/RetailerBuyerStorage.sol\":2671:2872  Cheese({... */\n      dup2\n      mstore\n      0x20\n      add\n        /* \"contracts/Actor/Retailer-smart-contract/inventory/RetailerBuyerStorage.sol\":2805:2826  _walletCheeseProducer */\n      dup12\n        /* \"contracts/Actor/Retailer-smart-contract/inventory/RetailerBuyerStorage.sol\":2671:2872  Cheese({... */\n      0xffffffffffffffffffffffffffffffffffffffff\n      and\n      dup2\n      mstore\n      0x20\n      add\n        /* \"contracts/Actor/Retailer-smart-contract/inventory/RetailerBuyerStorage.sol\":2719:2722  dop */\n      dup10\n        /* \"contracts/Actor/Retailer-smart-contract/inventory/RetailerBuyerStorage.sol\":2671:2872  Cheese({... */\n      dup2\n      mstore\n      0x20\n      add\n        /* \"contracts/Actor/Retailer-smart-contract/inventory/RetailerBuyerStorage.sol\":2851:2860  _quantity */\n      dup9\n        /* \"contracts/Actor/Retailer-smart-contract/inventory/RetailerBuyerStorage.sol\":2671:2872  Cheese({... */\n      dup2\n      mstore\n      pop\n        /* \"contracts/Actor/Retailer-smart-contract/inventory/RetailerBuyerStorage.sol\":2648:2872  Cheese memory cheese = Cheese({... */\n      swap1\n      pop\n        /* \"contracts/Actor/Retailer-smart-contract/inventory/RetailerBuyerStorage.sol\":3012:3018  cheese */\n      dup1\n        /* \"contracts/Actor/Retailer-smart-contract/inventory/RetailerBuyerStorage.sol\":2966:2987  purchasedCheeseBlocks */\n      0x01\n        /* \"contracts/Actor/Retailer-smart-contract/inventory/RetailerBuyerStorage.sol\":2966:3004  purchasedCheeseBlocks[_walletRetailer] */\n      0x00\n        /* \"contracts/Actor/Retailer-smart-contract/inventory/RetailerBuyerStorage.sol\":2988:3003  _walletRetailer */\n      dup14\n        /* \"contracts/Actor/Retailer-smart-contract/inventory/RetailerBuyerStorage.sol\":2966:3004  purchasedCheeseBlocks[_walletRetailer] */\n      0xffffffffffffffffffffffffffffffffffffffff\n      and\n      0xffffffffffffffffffffffffffffffffffffffff\n      and\n      dup2\n      mstore\n      0x20\n      add\n      swap1\n      dup2\n      mstore\n      0x20\n      add\n      0x00\n      keccak256\n        /* \"contracts/Actor/Retailer-smart-contract/inventory/RetailerBuyerStorage.sol\":2966:3009  purchasedCheeseBlocks[_walletRetailer][_id] */\n      0x00\n        /* \"contracts/Actor/Retailer-smart-contract/inventory/RetailerBuyerStorage.sol\":3005:3008  _id */\n      dup6\n        /* \"contracts/Actor/Retailer-smart-contract/inventory/RetailerBuyerStorage.sol\":2966:3009  purchasedCheeseBlocks[_walletRetailer][_id] */\n      dup2\n      mstore\n      0x20\n      add\n      swap1\n      dup2\n      mstore\n      0x20\n      add\n      0x00\n      keccak256\n        /* \"contracts/Actor/Retailer-smart-contract/inventory/RetailerBuyerStorage.sol\":2966:3018  purchasedCheeseBlocks[_walletRetailer][_id] = cheese */\n      0x00\n      dup3\n      add\n      mload\n      dup2\n      0x00\n      add\n      sstore\n      0x20\n      dup3\n      add\n      mload\n      dup2\n      0x01\n      add\n      sstore\n      0x40\n      dup3\n      add\n      mload\n      dup2\n      0x02\n      add\n      exp(0x0100, 0x00)\n      dup2\n      sload\n      dup2\n      0xffffffffffffffffffffffffffffffffffffffff\n      mul\n      not\n      and\n      swap1\n      dup4\n      0xffffffffffffffffffffffffffffffffffffffff\n      and\n      mul\n      or\n      swap1\n      sstore\n      pop\n      0x60\n      dup3\n      add\n      mload\n      dup2\n      0x03\n      add\n      swap1\n      dup2\n      tag_105\n      swap2\n      swap1\n      tag_106\n      jump\t// in\n    tag_105:\n      pop\n      0x80\n      dup3\n      add\n      mload\n      dup2\n      0x04\n      add\n      sstore\n      swap1\n      pop\n      pop\n        /* \"contracts/Actor/Retailer-smart-contract/inventory/RetailerBuyerStorage.sol\":3081:3121  purchasedCheeseBlockListBySingleRetailer */\n      0x02\n        /* \"contracts/Actor/Retailer-smart-contract/inventory/RetailerBuyerStorage.sol\":3081:3138  purchasedCheeseBlockListBySingleRetailer[_walletRetailer] */\n      0x00\n        /* \"contracts/Actor/Retailer-smart-contract/inventory/RetailerBuyerStorage.sol\":3122:3137  _walletRetailer */\n      dup13\n        /* \"contracts/Actor/Retailer-smart-contract/inventory/RetailerBuyerStorage.sol\":3081:3138  purchasedCheeseBlockListBySingleRetailer[_walletRetailer] */\n      0xffffffffffffffffffffffffffffffffffffffff\n      and\n      0xffffffffffffffffffffffffffffffffffffffff\n      and\n      dup2\n      mstore\n      0x20\n      add\n      swap1\n      dup2\n      mstore\n      0x20\n      add\n      0x00\n      keccak256\n        /* \"contracts/Actor/Retailer-smart-contract/inventory/RetailerBuyerStorage.sol\":3144:3147  _id */\n      dup4\n        /* \"contracts/Actor/Retailer-smart-contract/inventory/RetailerBuyerStorage.sol\":3081:3148  purchasedCheeseBlockListBySingleRetailer[_walletRetailer].push(_id) */\n      swap1\n      dup1\n      0x01\n      dup2\n      sload\n      add\n      dup1\n      dup3\n      sstore\n      dup1\n      swap2\n      pop\n      pop\n      0x01\n      swap1\n      sub\n      swap1\n      0x00\n      mstore\n      keccak256(0x00, 0x20)\n      add\n      0x00\n      swap1\n      swap2\n      swap1\n      swap2\n      swap1\n      swap2\n      pop\n      sstore\n        /* \"contracts/Actor/Retailer-smart-contract/inventory/RetailerBuyerStorage.sol\":3169:3175  cheese */\n      dup1\n        /* \"contracts/Actor/Retailer-smart-contract/inventory/RetailerBuyerStorage.sol\":3169:3178  cheese.id */\n      0x00\n      add\n      mload\n        /* \"contracts/Actor/Retailer-smart-contract/inventory/RetailerBuyerStorage.sol\":3180:3186  cheese */\n      dup2\n        /* \"contracts/Actor/Retailer-smart-contract/inventory/RetailerBuyerStorage.sol\":3180:3190  cheese.dop */\n      0x60\n      add\n      mload\n        /* \"contracts/Actor/Retailer-smart-contract/inventory/RetailerBuyerStorage.sol\":3192:3198  cheese */\n      dup3\n        /* \"contracts/Actor/Retailer-smart-contract/inventory/RetailerBuyerStorage.sol\":3192:3207  cheese.quantity */\n      0x80\n      add\n      mload\n        /* \"contracts/Actor/Retailer-smart-contract/inventory/RetailerBuyerStorage.sol\":3161:3208  return (cheese.id, cheese.dop, cheese.quantity) */\n      swap6\n      pop\n      swap6\n      pop\n      swap6\n      pop\n      pop\n      pop\n      pop\n        /* \"contracts/Actor/Retailer-smart-contract/inventory/RetailerBuyerStorage.sol\":1463:3218  function addCheeseBlock( ... */\n      swap6\n      pop\n      swap6\n      pop\n      swap6\n      swap3\n      pop\n      pop\n      pop\n      jump\t// out\n        /* \"contracts/Actor/Retailer-smart-contract/inventory/RetailerBuyerStorage.sol\":5711:5867  function getId(address walletRetailer, uint256 _id) external view returns(uint256) {... */\n    tag_53:\n        /* \"contracts/Actor/Retailer-smart-contract/inventory/RetailerBuyerStorage.sol\":5785:5792  uint256 */\n      0x00\n        /* \"contracts/Actor/Retailer-smart-contract/inventory/RetailerBuyerStorage.sol\":5814:5835  purchasedCheeseBlocks */\n      0x01\n        /* \"contracts/Actor/Retailer-smart-contract/inventory/RetailerBuyerStorage.sol\":5814:5851  purchasedCheeseBlocks[walletRetailer] */\n      0x00\n        /* \"contracts/Actor/Retailer-smart-contract/inventory/RetailerBuyerStorage.sol\":5836:5850  walletRetailer */\n      dup5\n        /* \"contracts/Actor/Retailer-smart-contract/inventory/RetailerBuyerStorage.sol\":5814:5851  purchasedCheeseBlocks[walletRetailer] */\n      0xffffffffffffffffffffffffffffffffffffffff\n      and\n      0xffffffffffffffffffffffffffffffffffffffff\n      and\n      dup2\n      mstore\n      0x20\n      add\n      swap1\n      dup2\n      mstore\n      0x20\n      add\n      0x00\n      keccak256\n        /* \"contracts/Actor/Retailer-smart-contract/inventory/RetailerBuyerStorage.sol\":5814:5856  purchasedCheeseBlocks[walletRetailer][_id] */\n      0x00\n        /* \"contracts/Actor/Retailer-smart-contract/inventory/RetailerBuyerStorage.sol\":5852:5855  _id */\n      dup4\n        /* \"contracts/Actor/Retailer-smart-contract/inventory/RetailerBuyerStorage.sol\":5814:5856  purchasedCheeseBlocks[walletRetailer][_id] */\n      dup2\n      mstore\n      0x20\n      add\n      swap1\n      dup2\n      mstore\n      0x20\n      add\n      0x00\n      keccak256\n        /* \"contracts/Actor/Retailer-smart-contract/inventory/RetailerBuyerStorage.sol\":5814:5859  purchasedCheeseBlocks[walletRetailer][_id].id */\n      0x00\n      add\n      sload\n        /* \"contracts/Actor/Retailer-smart-contract/inventory/RetailerBuyerStorage.sol\":5807:5859  return purchasedCheeseBlocks[walletRetailer][_id].id */\n      swap1\n      pop\n        /* \"contracts/Actor/Retailer-smart-contract/inventory/RetailerBuyerStorage.sol\":5711:5867  function getId(address walletRetailer, uint256 _id) external view returns(uint256) {... */\n      swap3\n      swap2\n      pop\n      pop\n      jump\t// out\n        /* \"contracts/Actor/Retailer-smart-contract/inventory/RetailerBuyerStorage.sol\":5471:5703  function getWalletCheeseProducer(address walletRetailer, uint256 _id) external view returns(address) {... */\n    tag_57:\n        /* \"contracts/Actor/Retailer-smart-contract/inventory/RetailerBuyerStorage.sol\":5563:5570  address */\n      0x00\n        /* \"contracts/Actor/Retailer-smart-contract/inventory/RetailerBuyerStorage.sol\":5585:5605  Cheese memory cheese */\n      dup1\n        /* \"contracts/Actor/Retailer-smart-contract/inventory/RetailerBuyerStorage.sol\":5608:5629  purchasedCheeseBlocks */\n      0x01\n        /* \"contracts/Actor/Retailer-smart-contract/inventory/RetailerBuyerStorage.sol\":5608:5645  purchasedCheeseBlocks[walletRetailer] */\n      0x00\n        /* \"contracts/Actor/Retailer-smart-contract/inventory/RetailerBuyerStorage.sol\":5630:5644  walletRetailer */\n      dup6\n        /* \"contracts/Actor/Retailer-smart-contract/inventory/RetailerBuyerStorage.sol\":5608:5645  purchasedCheeseBlocks[walletRetailer] */\n      0xffffffffffffffffffffffffffffffffffffffff\n      and\n      0xffffffffffffffffffffffffffffffffffffffff\n      and\n      dup2\n      mstore\n      0x20\n      add\n      swap1\n      dup2\n      mstore\n      0x20\n      add\n      0x00\n      keccak256\n        /* \"contracts/Actor/Retailer-smart-contract/inventory/RetailerBuyerStorage.sol\":5608:5650  purchasedCheeseBlocks[walletRetailer][_id] */\n      0x00\n        /* \"contracts/Actor/Retailer-smart-contract/inventory/RetailerBuyerStorage.sol\":5646:5649  _id */\n      dup5\n        /* \"contracts/Actor/Retailer-smart-contract/inventory/RetailerBuyerStorage.sol\":5608:5650  purchasedCheeseBlocks[walletRetailer][_id] */\n      dup2\n      mstore\n      0x20\n      add\n      swap1\n      dup2\n      mstore\n      0x20\n      add\n      0x00\n      keccak256\n        /* \"contracts/Actor/Retailer-smart-contract/inventory/RetailerBuyerStorage.sol\":5585:5650  Cheese memory cheese = purchasedCheeseBlocks[walletRetailer][_id] */\n      mload(0x40)\n      dup1\n      0xa0\n      add\n      0x40\n      mstore\n      swap1\n      dup2\n      0x00\n      dup3\n      add\n      sload\n      dup2\n      mstore\n      0x20\n      add\n      0x01\n      dup3\n      add\n      sload\n      dup2\n      mstore\n      0x20\n      add\n      0x02\n      dup3\n      add\n      0x00\n      swap1\n      sload\n      swap1\n      0x0100\n      exp\n      swap1\n      div\n      0xffffffffffffffffffffffffffffffffffffffff\n      and\n      0xffffffffffffffffffffffffffffffffffffffff\n      and\n      0xffffffffffffffffffffffffffffffffffffffff\n      and\n      dup2\n      mstore\n      0x20\n      add\n      0x03\n      dup3\n      add\n      dup1\n      sload\n      tag_110\n      swap1\n      tag_75\n      jump\t// in\n    tag_110:\n      dup1\n      0x1f\n      add\n      0x20\n      dup1\n      swap2\n      div\n      mul\n      0x20\n      add\n      mload(0x40)\n      swap1\n      dup2\n      add\n      0x40\n      mstore\n      dup1\n      swap3\n      swap2\n      swap1\n      dup2\n      dup2\n      mstore\n      0x20\n      add\n      dup3\n      dup1\n      sload\n      tag_111\n      swap1\n      tag_75\n      jump\t// in\n    tag_111:\n      dup1\n      iszero\n      tag_112\n      jumpi\n      dup1\n      0x1f\n      lt\n      tag_113\n      jumpi\n      0x0100\n      dup1\n      dup4\n      sload\n      div\n      mul\n      dup4\n      mstore\n      swap2\n      0x20\n      add\n      swap2\n      jump(tag_112)\n    tag_113:\n      dup3\n      add\n      swap2\n      swap1\n      0x00\n      mstore\n      keccak256(0x00, 0x20)\n      swap1\n    tag_114:\n      dup2\n      sload\n      dup2\n      mstore\n      swap1\n      0x01\n      add\n      swap1\n      0x20\n      add\n      dup1\n      dup4\n      gt\n      tag_114\n      jumpi\n      dup3\n      swap1\n      sub\n      0x1f\n      and\n      dup3\n      add\n      swap2\n    tag_112:\n      pop\n      pop\n      pop\n      pop\n      pop\n      dup2\n      mstore\n      0x20\n      add\n      0x04\n      dup3\n      add\n      sload\n      dup2\n      mstore\n      pop\n      pop\n      swap1\n      pop\n        /* \"contracts/Actor/Retailer-smart-contract/inventory/RetailerBuyerStorage.sol\":5668:5674  cheese */\n      dup1\n        /* \"contracts/Actor/Retailer-smart-contract/inventory/RetailerBuyerStorage.sol\":5668:5695  cheese.walletCheeseProducer */\n      0x40\n      add\n      mload\n        /* \"contracts/Actor/Retailer-smart-contract/inventory/RetailerBuyerStorage.sol\":5661:5695  return cheese.walletCheeseProducer */\n      swap2\n      pop\n      pop\n        /* \"contracts/Actor/Retailer-smart-contract/inventory/RetailerBuyerStorage.sol\":5471:5703  function getWalletCheeseProducer(address walletRetailer, uint256 _id) external view returns(address) {... */\n      swap3\n      swap2\n      pop\n      pop\n      jump\t// out\n        /* \"contracts/Actor/Retailer-smart-contract/inventory/RetailerBuyerStorage.sol\":3827:4165  function isCheesePresent(address walletRetailer, uint256 _id_CheeseBlockAcquistato)external view returns(bool){... */\n    tag_62:\n        /* \"contracts/Actor/Retailer-smart-contract/inventory/RetailerBuyerStorage.sol\":3932:3936  bool */\n      0x00\n        /* \"contracts/Actor/Retailer-smart-contract/inventory/RetailerBuyerStorage.sol\":3985:3986  0 */\n      dup1\n        /* \"contracts/Actor/Retailer-smart-contract/inventory/RetailerBuyerStorage.sol\":3957:3982  _id_CheeseBlockAcquistato */\n      dup3\n        /* \"contracts/Actor/Retailer-smart-contract/inventory/RetailerBuyerStorage.sol\":3957:3986  _id_CheeseBlockAcquistato !=0 */\n      eq\n      iszero\n        /* \"contracts/Actor/Retailer-smart-contract/inventory/RetailerBuyerStorage.sol\":3957:4017  _id_CheeseBlockAcquistato !=0 && _id_CheeseBlockAcquistato>0 */\n      dup1\n      iszero\n      tag_116\n      jumpi\n      pop\n        /* \"contracts/Actor/Retailer-smart-contract/inventory/RetailerBuyerStorage.sol\":4016:4017  0 */\n      0x00\n        /* \"contracts/Actor/Retailer-smart-contract/inventory/RetailerBuyerStorage.sol\":3990:4015  _id_CheeseBlockAcquistato */\n      dup3\n        /* \"contracts/Actor/Retailer-smart-contract/inventory/RetailerBuyerStorage.sol\":3990:4017  _id_CheeseBlockAcquistato>0 */\n      gt\n        /* \"contracts/Actor/Retailer-smart-contract/inventory/RetailerBuyerStorage.sol\":3957:4017  _id_CheeseBlockAcquistato !=0 && _id_CheeseBlockAcquistato>0 */\n    tag_116:\n        /* \"contracts/Actor/Retailer-smart-contract/inventory/RetailerBuyerStorage.sol\":3948:4041  require( _id_CheeseBlockAcquistato !=0 && _id_CheeseBlockAcquistato>0,\"ID Cheese Not Valid!\") */\n      tag_117\n      jumpi\n      mload(0x40)\n      0x08c379a000000000000000000000000000000000000000000000000000000000\n      dup2\n      mstore\n      0x04\n      add\n      tag_118\n      swap1\n      tag_119\n      jump\t// in\n    tag_118:\n      mload(0x40)\n      dup1\n      swap2\n      sub\n      swap1\n      revert\n    tag_117:\n        /* \"contracts/Actor/Retailer-smart-contract/inventory/RetailerBuyerStorage.sol\":4132:4157  _id_CheeseBlockAcquistato */\n      dup2\n        /* \"contracts/Actor/Retailer-smart-contract/inventory/RetailerBuyerStorage.sol\":4061:4082  purchasedCheeseBlocks */\n      0x01\n        /* \"contracts/Actor/Retailer-smart-contract/inventory/RetailerBuyerStorage.sol\":4061:4098  purchasedCheeseBlocks[walletRetailer] */\n      0x00\n        /* \"contracts/Actor/Retailer-smart-contract/inventory/RetailerBuyerStorage.sol\":4083:4097  walletRetailer */\n      dup6\n        /* \"contracts/Actor/Retailer-smart-contract/inventory/RetailerBuyerStorage.sol\":4061:4098  purchasedCheeseBlocks[walletRetailer] */\n      0xffffffffffffffffffffffffffffffffffffffff\n      and\n      0xffffffffffffffffffffffffffffffffffffffff\n      and\n      dup2\n      mstore\n      0x20\n      add\n      swap1\n      dup2\n      mstore\n      0x20\n      add\n      0x00\n      keccak256\n        /* \"contracts/Actor/Retailer-smart-contract/inventory/RetailerBuyerStorage.sol\":4061:4125  purchasedCheeseBlocks[walletRetailer][_id_CheeseBlockAcquistato] */\n      0x00\n        /* \"contracts/Actor/Retailer-smart-contract/inventory/RetailerBuyerStorage.sol\":4099:4124  _id_CheeseBlockAcquistato */\n      dup5\n        /* \"contracts/Actor/Retailer-smart-contract/inventory/RetailerBuyerStorage.sol\":4061:4125  purchasedCheeseBlocks[walletRetailer][_id_CheeseBlockAcquistato] */\n      dup2\n      mstore\n      0x20\n      add\n      swap1\n      dup2\n      mstore\n      0x20\n      add\n      0x00\n      keccak256\n        /* \"contracts/Actor/Retailer-smart-contract/inventory/RetailerBuyerStorage.sol\":4061:4128  purchasedCheeseBlocks[walletRetailer][_id_CheeseBlockAcquistato].id */\n      0x00\n      add\n      sload\n        /* \"contracts/Actor/Retailer-smart-contract/inventory/RetailerBuyerStorage.sol\":4061:4157  purchasedCheeseBlocks[walletRetailer][_id_CheeseBlockAcquistato].id == _id_CheeseBlockAcquistato */\n      eq\n        /* \"contracts/Actor/Retailer-smart-contract/inventory/RetailerBuyerStorage.sol\":4054:4157  return purchasedCheeseBlocks[walletRetailer][_id_CheeseBlockAcquistato].id == _id_CheeseBlockAcquistato */\n      swap1\n      pop\n        /* \"contracts/Actor/Retailer-smart-contract/inventory/RetailerBuyerStorage.sol\":3827:4165  function isCheesePresent(address walletRetailer, uint256 _id_CheeseBlockAcquistato)external view returns(bool){... */\n      swap3\n      swap2\n      pop\n      pop\n      jump\t// out\n        /* \"contracts/Actor/Retailer-smart-contract/inventory/RetailerBuyerStorage.sol\":4989:5237  function getDop(address walletRetailer, uint256 _id_cheeseBlockAcquistato) external view returns(string memory) {... */\n    tag_66:\n        /* \"contracts/Actor/Retailer-smart-contract/inventory/RetailerBuyerStorage.sol\":5086:5099  string memory */\n      0x60\n        /* \"contracts/Actor/Retailer-smart-contract/inventory/RetailerBuyerStorage.sol\":5114:5134  Cheese memory cheese */\n      0x00\n        /* \"contracts/Actor/Retailer-smart-contract/inventory/RetailerBuyerStorage.sol\":5137:5158  purchasedCheeseBlocks */\n      0x01\n        /* \"contracts/Actor/Retailer-smart-contract/inventory/RetailerBuyerStorage.sol\":5137:5174  purchasedCheeseBlocks[walletRetailer] */\n      0x00\n        /* \"contracts/Actor/Retailer-smart-contract/inventory/RetailerBuyerStorage.sol\":5159:5173  walletRetailer */\n      dup6\n        /* \"contracts/Actor/Retailer-smart-contract/inventory/RetailerBuyerStorage.sol\":5137:5174  purchasedCheeseBlocks[walletRetailer] */\n      0xffffffffffffffffffffffffffffffffffffffff\n      and\n      0xffffffffffffffffffffffffffffffffffffffff\n      and\n      dup2\n      mstore\n      0x20\n      add\n      swap1\n      dup2\n      mstore\n      0x20\n      add\n      0x00\n      keccak256\n        /* \"contracts/Actor/Retailer-smart-contract/inventory/RetailerBuyerStorage.sol\":5137:5201  purchasedCheeseBlocks[walletRetailer][_id_cheeseBlockAcquistato] */\n      0x00\n        /* \"contracts/Actor/Retailer-smart-contract/inventory/RetailerBuyerStorage.sol\":5175:5200  _id_cheeseBlockAcquistato */\n      dup5\n        /* \"contracts/Actor/Retailer-smart-contract/inventory/RetailerBuyerStorage.sol\":5137:5201  purchasedCheeseBlocks[walletRetailer][_id_cheeseBlockAcquistato] */\n      dup2\n      mstore\n      0x20\n      add\n      swap1\n      dup2\n      mstore\n      0x20\n      add\n      0x00\n      keccak256\n        /* \"contracts/Actor/Retailer-smart-contract/inventory/RetailerBuyerStorage.sol\":5114:5201  Cheese memory cheese = purchasedCheeseBlocks[walletRetailer][_id_cheeseBlockAcquistato] */\n      mload(0x40)\n      dup1\n      0xa0\n      add\n      0x40\n      mstore\n      swap1\n      dup2\n      0x00\n      dup3\n      add\n      sload\n      dup2\n      mstore\n      0x20\n      add\n      0x01\n      dup3\n      add\n      sload\n      dup2\n      mstore\n      0x20\n      add\n      0x02\n      dup3\n      add\n      0x00\n      swap1\n      sload\n      swap1\n      0x0100\n      exp\n      swap1\n      div\n      0xffffffffffffffffffffffffffffffffffffffff\n      and\n      0xffffffffffffffffffffffffffffffffffffffff\n      and\n      0xffffffffffffffffffffffffffffffffffffffff\n      and\n      dup2\n      mstore\n      0x20\n      add\n      0x03\n      dup3\n      add\n      dup1\n      sload\n      tag_121\n      swap1\n      tag_75\n      jump\t// in\n    tag_121:\n      dup1\n      0x1f\n      add\n      0x20\n      dup1\n      swap2\n      div\n      mul\n      0x20\n      add\n      mload(0x40)\n      swap1\n      dup2\n      add\n      0x40\n      mstore\n      dup1\n      swap3\n      swap2\n      swap1\n      dup2\n      dup2\n      mstore\n      0x20\n      add\n      dup3\n      dup1\n      sload\n      tag_122\n      swap1\n      tag_75\n      jump\t// in\n    tag_122:\n      dup1\n      iszero\n      tag_123\n      jumpi\n      dup1\n      0x1f\n      lt\n      tag_124\n      jumpi\n      0x0100\n      dup1\n      dup4\n      sload\n      div\n      mul\n      dup4\n      mstore\n      swap2\n      0x20\n      add\n      swap2\n      jump(tag_123)\n    tag_124:\n      dup3\n      add\n      swap2\n      swap1\n      0x00\n      mstore\n      keccak256(0x00, 0x20)\n      swap1\n    tag_125:\n      dup2\n      sload\n      dup2\n      mstore\n      swap1\n      0x01\n      add\n      swap1\n      0x20\n      add\n      dup1\n      dup4\n      gt\n      tag_125\n      jumpi\n      dup3\n      swap1\n      sub\n      0x1f\n      and\n      dup3\n      add\n      swap2\n    tag_123:\n      pop\n      pop\n      pop\n      pop\n      pop\n      dup2\n      mstore\n      0x20\n      add\n      0x04\n      dup3\n      add\n      sload\n      dup2\n      mstore\n      pop\n      pop\n      swap1\n      pop\n        /* \"contracts/Actor/Retailer-smart-contract/inventory/RetailerBuyerStorage.sol\":5219:5225  cheese */\n      dup1\n        /* \"contracts/Actor/Retailer-smart-contract/inventory/RetailerBuyerStorage.sol\":5219:5229  cheese.dop */\n      0x60\n      add\n      mload\n        /* \"contracts/Actor/Retailer-smart-contract/inventory/RetailerBuyerStorage.sol\":5212:5229  return cheese.dop */\n      swap2\n      pop\n      pop\n        /* \"contracts/Actor/Retailer-smart-contract/inventory/RetailerBuyerStorage.sol\":4989:5237  function getDop(address walletRetailer, uint256 _id_cheeseBlockAcquistato) external view returns(string memory) {... */\n      swap3\n      swap2\n      pop\n      pop\n      jump\t// out\n        /* \"#utility.yul\":7:82   */\n    tag_126:\n        /* \"#utility.yul\":40:46   */\n      0x00\n        /* \"#utility.yul\":73:75   */\n      0x40\n        /* \"#utility.yul\":67:76   */\n      mload\n        /* \"#utility.yul\":57:76   */\n      swap1\n      pop\n        /* \"#utility.yul\":7:82   */\n      swap1\n      jump\t// out\n        /* \"#utility.yul\":88:205   */\n    tag_127:\n        /* \"#utility.yul\":197:198   */\n      0x00\n        /* \"#utility.yul\":194:195   */\n      dup1\n        /* \"#utility.yul\":187:199   */\n      revert\n        /* \"#utility.yul\":211:328   */\n    tag_128:\n        /* \"#utility.yul\":320:321   */\n      0x00\n        /* \"#utility.yul\":317:318   */\n      dup1\n        /* \"#utility.yul\":310:322   */\n      revert\n        /* \"#utility.yul\":334:460   */\n    tag_129:\n        /* \"#utility.yul\":371:378   */\n      0x00\n        /* \"#utility.yul\":411:453   */\n      0xffffffffffffffffffffffffffffffffffffffff\n        /* \"#utility.yul\":404:409   */\n      dup3\n        /* \"#utility.yul\":400:454   */\n      and\n        /* \"#utility.yul\":389:454   */\n      swap1\n      pop\n        /* \"#utility.yul\":334:460   */\n      swap2\n      swap1\n      pop\n      jump\t// out\n        /* \"#utility.yul\":466:562   */\n    tag_130:\n        /* \"#utility.yul\":503:510   */\n      0x00\n        /* \"#utility.yul\":532:556   */\n      tag_201\n        /* \"#utility.yul\":550:555   */\n      dup3\n        /* \"#utility.yul\":532:556   */\n      tag_129\n      jump\t// in\n    tag_201:\n        /* \"#utility.yul\":521:556   */\n      swap1\n      pop\n        /* \"#utility.yul\":466:562   */\n      swap2\n      swap1\n      pop\n      jump\t// out\n        /* \"#utility.yul\":568:690   */\n    tag_131:\n        /* \"#utility.yul\":641:665   */\n      tag_203\n        /* \"#utility.yul\":659:664   */\n      dup2\n        /* \"#utility.yul\":641:665   */\n      tag_130\n      jump\t// in\n    tag_203:\n        /* \"#utility.yul\":634:639   */\n      dup2\n        /* \"#utility.yul\":631:666   */\n      eq\n        /* \"#utility.yul\":621:684   */\n      tag_204\n      jumpi\n        /* \"#utility.yul\":680:681   */\n      0x00\n        /* \"#utility.yul\":677:678   */\n      dup1\n        /* \"#utility.yul\":670:682   */\n      revert\n        /* \"#utility.yul\":621:684   */\n    tag_204:\n        /* \"#utility.yul\":568:690   */\n      pop\n      jump\t// out\n        /* \"#utility.yul\":696:835   */\n    tag_132:\n        /* \"#utility.yul\":742:747   */\n      0x00\n        /* \"#utility.yul\":780:786   */\n      dup2\n        /* \"#utility.yul\":767:787   */\n      calldataload\n        /* \"#utility.yul\":758:787   */\n      swap1\n      pop\n        /* \"#utility.yul\":796:829   */\n      tag_206\n        /* \"#utility.yul\":823:828   */\n      dup2\n        /* \"#utility.yul\":796:829   */\n      tag_131\n      jump\t// in\n    tag_206:\n        /* \"#utility.yul\":696:835   */\n      swap3\n      swap2\n      pop\n      pop\n      jump\t// out\n        /* \"#utility.yul\":841:918   */\n    tag_133:\n        /* \"#utility.yul\":878:885   */\n      0x00\n        /* \"#utility.yul\":907:912   */\n      dup2\n        /* \"#utility.yul\":896:912   */\n      swap1\n      pop\n        /* \"#utility.yul\":841:918   */\n      swap2\n      swap1\n      pop\n      jump\t// out\n        /* \"#utility.yul\":924:1046   */\n    tag_134:\n        /* \"#utility.yul\":997:1021   */\n      tag_209\n        /* \"#utility.yul\":1015:1020   */\n      dup2\n        /* \"#utility.yul\":997:1021   */\n      tag_133\n      jump\t// in\n    tag_209:\n        /* \"#utility.yul\":990:995   */\n      dup2\n        /* \"#utility.yul\":987:1022   */\n      eq\n        /* \"#utility.yul\":977:1040   */\n      tag_210\n      jumpi\n        /* \"#utility.yul\":1036:1037   */\n      0x00\n        /* \"#utility.yul\":1033:1034   */\n      dup1\n        /* \"#utility.yul\":1026:1038   */\n      revert\n        /* \"#utility.yul\":977:1040   */\n    tag_210:\n        /* \"#utility.yul\":924:1046   */\n      pop\n      jump\t// out\n        /* \"#utility.yul\":1052:1191   */\n    tag_135:\n        /* \"#utility.yul\":1098:1103   */\n      0x00\n        /* \"#utility.yul\":1136:1142   */\n      dup2\n        /* \"#utility.yul\":1123:1143   */\n      calldataload\n        /* \"#utility.yul\":1114:1143   */\n      swap1\n      pop\n        /* \"#utility.yul\":1152:1185   */\n      tag_212\n        /* \"#utility.yul\":1179:1184   */\n      dup2\n        /* \"#utility.yul\":1152:1185   */\n      tag_134\n      jump\t// in\n    tag_212:\n        /* \"#utility.yul\":1052:1191   */\n      swap3\n      swap2\n      pop\n      pop\n      jump\t// out\n        /* \"#utility.yul\":1197:1816   */\n    tag_17:\n        /* \"#utility.yul\":1274:1280   */\n      0x00\n        /* \"#utility.yul\":1282:1288   */\n      dup1\n        /* \"#utility.yul\":1290:1296   */\n      0x00\n        /* \"#utility.yul\":1339:1341   */\n      0x60\n        /* \"#utility.yul\":1327:1336   */\n      dup5\n        /* \"#utility.yul\":1318:1325   */\n      dup7\n        /* \"#utility.yul\":1314:1337   */\n      sub\n        /* \"#utility.yul\":1310:1342   */\n      slt\n        /* \"#utility.yul\":1307:1426   */\n      iszero\n      tag_214\n      jumpi\n        /* \"#utility.yul\":1345:1424   */\n      tag_215\n      tag_127\n      jump\t// in\n    tag_215:\n        /* \"#utility.yul\":1307:1426   */\n    tag_214:\n        /* \"#utility.yul\":1465:1466   */\n      0x00\n        /* \"#utility.yul\":1490:1543   */\n      tag_216\n        /* \"#utility.yul\":1535:1542   */\n      dup7\n        /* \"#utility.yul\":1526:1532   */\n      dup3\n        /* \"#utility.yul\":1515:1524   */\n      dup8\n        /* \"#utility.yul\":1511:1533   */\n      add\n        /* \"#utility.yul\":1490:1543   */\n      tag_132\n      jump\t// in\n    tag_216:\n        /* \"#utility.yul\":1480:1543   */\n      swap4\n      pop\n        /* \"#utility.yul\":1436:1553   */\n      pop\n        /* \"#utility.yul\":1592:1594   */\n      0x20\n        /* \"#utility.yul\":1618:1671   */\n      tag_217\n        /* \"#utility.yul\":1663:1670   */\n      dup7\n        /* \"#utility.yul\":1654:1660   */\n      dup3\n        /* \"#utility.yul\":1643:1652   */\n      dup8\n        /* \"#utility.yul\":1639:1661   */\n      add\n        /* \"#utility.yul\":1618:1671   */\n      tag_135\n      jump\t// in\n    tag_217:\n        /* \"#utility.yul\":1608:1671   */\n      swap3\n      pop\n        /* \"#utility.yul\":1563:1681   */\n      pop\n        /* \"#utility.yul\":1720:1722   */\n      0x40\n        /* \"#utility.yul\":1746:1799   */\n      tag_218\n        /* \"#utility.yul\":1791:1798   */\n      dup7\n        /* \"#utility.yul\":1782:1788   */\n      dup3\n        /* \"#utility.yul\":1771:1780   */\n      dup8\n        /* \"#utility.yul\":1767:1789   */\n      add\n        /* \"#utility.yul\":1746:1799   */\n      tag_135\n      jump\t// in\n    tag_218:\n        /* \"#utility.yul\":1736:1799   */\n      swap2\n      pop\n        /* \"#utility.yul\":1691:1809   */\n      pop\n        /* \"#utility.yul\":1197:1816   */\n      swap3\n      pop\n      swap3\n      pop\n      swap3\n      jump\t// out\n        /* \"#utility.yul\":1822:1912   */\n    tag_136:\n        /* \"#utility.yul\":1856:1863   */\n      0x00\n        /* \"#utility.yul\":1899:1904   */\n      dup2\n        /* \"#utility.yul\":1892:1905   */\n      iszero\n        /* \"#utility.yul\":1885:1906   */\n      iszero\n        /* \"#utility.yul\":1874:1906   */\n      swap1\n      pop\n        /* \"#utility.yul\":1822:1912   */\n      swap2\n      swap1\n      pop\n      jump\t// out\n        /* \"#utility.yul\":1918:2027   */\n    tag_137:\n        /* \"#utility.yul\":1999:2020   */\n      tag_221\n        /* \"#utility.yul\":2014:2019   */\n      dup2\n        /* \"#utility.yul\":1999:2020   */\n      tag_136\n      jump\t// in\n    tag_221:\n        /* \"#utility.yul\":1994:1997   */\n      dup3\n        /* \"#utility.yul\":1987:2021   */\n      mstore\n        /* \"#utility.yul\":1918:2027   */\n      pop\n      pop\n      jump\t// out\n        /* \"#utility.yul\":2033:2243   */\n    tag_20:\n        /* \"#utility.yul\":2120:2124   */\n      0x00\n        /* \"#utility.yul\":2158:2160   */\n      0x20\n        /* \"#utility.yul\":2147:2156   */\n      dup3\n        /* \"#utility.yul\":2143:2161   */\n      add\n        /* \"#utility.yul\":2135:2161   */\n      swap1\n      pop\n        /* \"#utility.yul\":2171:2236   */\n      tag_223\n        /* \"#utility.yul\":2233:2234   */\n      0x00\n        /* \"#utility.yul\":2222:2231   */\n      dup4\n        /* \"#utility.yul\":2218:2235   */\n      add\n        /* \"#utility.yul\":2209:2215   */\n      dup5\n        /* \"#utility.yul\":2171:2236   */\n      tag_137\n      jump\t// in\n    tag_223:\n        /* \"#utility.yul\":2033:2243   */\n      swap3\n      swap2\n      pop\n      pop\n      jump\t// out\n        /* \"#utility.yul\":2249:2723   */\n    tag_23:\n        /* \"#utility.yul\":2317:2323   */\n      0x00\n        /* \"#utility.yul\":2325:2331   */\n      dup1\n        /* \"#utility.yul\":2374:2376   */\n      0x40\n        /* \"#utility.yul\":2362:2371   */\n      dup4\n        /* \"#utility.yul\":2353:2360   */\n      dup6\n        /* \"#utility.yul\":2349:2372   */\n      sub\n        /* \"#utility.yul\":2345:2377   */\n      slt\n        /* \"#utility.yul\":2342:2461   */\n      iszero\n      tag_225\n      jumpi\n        /* \"#utility.yul\":2380:2459   */\n      tag_226\n      tag_127\n      jump\t// in\n    tag_226:\n        /* \"#utility.yul\":2342:2461   */\n    tag_225:\n        /* \"#utility.yul\":2500:2501   */\n      0x00\n        /* \"#utility.yul\":2525:2578   */\n      tag_227\n        /* \"#utility.yul\":2570:2577   */\n      dup6\n        /* \"#utility.yul\":2561:2567   */\n      dup3\n        /* \"#utility.yul\":2550:2559   */\n      dup7\n        /* \"#utility.yul\":2546:2568   */\n      add\n        /* \"#utility.yul\":2525:2578   */\n      tag_132\n      jump\t// in\n    tag_227:\n        /* \"#utility.yul\":2515:2578   */\n      swap3\n      pop\n        /* \"#utility.yul\":2471:2588   */\n      pop\n        /* \"#utility.yul\":2627:2629   */\n      0x20\n        /* \"#utility.yul\":2653:2706   */\n      tag_228\n        /* \"#utility.yul\":2698:2705   */\n      dup6\n        /* \"#utility.yul\":2689:2695   */\n      dup3\n        /* \"#utility.yul\":2678:2687   */\n      dup7\n        /* \"#utility.yul\":2674:2696   */\n      add\n        /* \"#utility.yul\":2653:2706   */\n      tag_135\n      jump\t// in\n    tag_228:\n        /* \"#utility.yul\":2643:2706   */\n      swap2\n      pop\n        /* \"#utility.yul\":2598:2716   */\n      pop\n        /* \"#utility.yul\":2249:2723   */\n      swap3\n      pop\n      swap3\n      swap1\n      pop\n      jump\t// out\n        /* \"#utility.yul\":2729:2847   */\n    tag_138:\n        /* \"#utility.yul\":2816:2840   */\n      tag_230\n        /* \"#utility.yul\":2834:2839   */\n      dup2\n        /* \"#utility.yul\":2816:2840   */\n      tag_133\n      jump\t// in\n    tag_230:\n        /* \"#utility.yul\":2811:2814   */\n      dup3\n        /* \"#utility.yul\":2804:2841   */\n      mstore\n        /* \"#utility.yul\":2729:2847   */\n      pop\n      pop\n      jump\t// out\n        /* \"#utility.yul\":2853:3075   */\n    tag_26:\n        /* \"#utility.yul\":2946:2950   */\n      0x00\n        /* \"#utility.yul\":2984:2986   */\n      0x20\n        /* \"#utility.yul\":2973:2982   */\n      dup3\n        /* \"#utility.yul\":2969:2987   */\n      add\n        /* \"#utility.yul\":2961:2987   */\n      swap1\n      pop\n        /* \"#utility.yul\":2997:3068   */\n      tag_232\n        /* \"#utility.yul\":3065:3066   */\n      0x00\n        /* \"#utility.yul\":3054:3063   */\n      dup4\n        /* \"#utility.yul\":3050:3067   */\n      add\n        /* \"#utility.yul\":3041:3047   */\n      dup5\n        /* \"#utility.yul\":2997:3068   */\n      tag_138\n      jump\t// in\n    tag_232:\n        /* \"#utility.yul\":2853:3075   */\n      swap3\n      swap2\n      pop\n      pop\n      jump\t// out\n        /* \"#utility.yul\":3081:3199   */\n    tag_139:\n        /* \"#utility.yul\":3168:3192   */\n      tag_234\n        /* \"#utility.yul\":3186:3191   */\n      dup2\n        /* \"#utility.yul\":3168:3192   */\n      tag_130\n      jump\t// in\n    tag_234:\n        /* \"#utility.yul\":3163:3166   */\n      dup3\n        /* \"#utility.yul\":3156:3193   */\n      mstore\n        /* \"#utility.yul\":3081:3199   */\n      pop\n      pop\n      jump\t// out\n        /* \"#utility.yul\":3205:3304   */\n    tag_140:\n        /* \"#utility.yul\":3257:3263   */\n      0x00\n        /* \"#utility.yul\":3291:3296   */\n      dup2\n        /* \"#utility.yul\":3285:3297   */\n      mload\n        /* \"#utility.yul\":3275:3297   */\n      swap1\n      pop\n        /* \"#utility.yul\":3205:3304   */\n      swap2\n      swap1\n      pop\n      jump\t// out\n        /* \"#utility.yul\":3310:3479   */\n    tag_141:\n        /* \"#utility.yul\":3394:3405   */\n      0x00\n        /* \"#utility.yul\":3428:3434   */\n      dup3\n        /* \"#utility.yul\":3423:3426   */\n      dup3\n        /* \"#utility.yul\":3416:3435   */\n      mstore\n        /* \"#utility.yul\":3468:3472   */\n      0x20\n        /* \"#utility.yul\":3463:3466   */\n      dup3\n        /* \"#utility.yul\":3459:3473   */\n      add\n        /* \"#utility.yul\":3444:3473   */\n      swap1\n      pop\n        /* \"#utility.yul\":3310:3479   */\n      swap3\n      swap2\n      pop\n      pop\n      jump\t// out\n        /* \"#utility.yul\":3485:3731   */\n    tag_142:\n        /* \"#utility.yul\":3566:3567   */\n      0x00\n        /* \"#utility.yul\":3576:3689   */\n    tag_238:\n        /* \"#utility.yul\":3590:3596   */\n      dup4\n        /* \"#utility.yul\":3587:3588   */\n      dup2\n        /* \"#utility.yul\":3584:3597   */\n      lt\n        /* \"#utility.yul\":3576:3689   */\n      iszero\n      tag_240\n      jumpi\n        /* \"#utility.yul\":3675:3676   */\n      dup1\n        /* \"#utility.yul\":3670:3673   */\n      dup3\n        /* \"#utility.yul\":3666:3677   */\n      add\n        /* \"#utility.yul\":3660:3678   */\n      mload\n        /* \"#utility.yul\":3656:3657   */\n      dup2\n        /* \"#utility.yul\":3651:3654   */\n      dup5\n        /* \"#utility.yul\":3647:3658   */\n      add\n        /* \"#utility.yul\":3640:3679   */\n      mstore\n        /* \"#utility.yul\":3612:3614   */\n      0x20\n        /* \"#utility.yul\":3609:3610   */\n      dup2\n        /* \"#utility.yul\":3605:3615   */\n      add\n        /* \"#utility.yul\":3600:3615   */\n      swap1\n      pop\n        /* \"#utility.yul\":3576:3689   */\n      jump(tag_238)\n    tag_240:\n        /* \"#utility.yul\":3723:3724   */\n      0x00\n        /* \"#utility.yul\":3714:3720   */\n      dup5\n        /* \"#utility.yul\":3709:3712   */\n      dup5\n        /* \"#utility.yul\":3705:3721   */\n      add\n        /* \"#utility.yul\":3698:3725   */\n      mstore\n        /* \"#utility.yul\":3547:3731   */\n      pop\n        /* \"#utility.yul\":3485:3731   */\n      pop\n      pop\n      pop\n      jump\t// out\n        /* \"#utility.yul\":3737:3839   */\n    tag_143:\n        /* \"#utility.yul\":3778:3784   */\n      0x00\n        /* \"#utility.yul\":3829:3831   */\n      0x1f\n        /* \"#utility.yul\":3825:3832   */\n      not\n        /* \"#utility.yul\":3820:3822   */\n      0x1f\n        /* \"#utility.yul\":3813:3818   */\n      dup4\n        /* \"#utility.yul\":3809:3823   */\n      add\n        /* \"#utility.yul\":3805:3833   */\n      and\n        /* \"#utility.yul\":3795:3833   */\n      swap1\n      pop\n        /* \"#utility.yul\":3737:3839   */\n      swap2\n      swap1\n      pop\n      jump\t// out\n        /* \"#utility.yul\":3845:4222   */\n    tag_144:\n        /* \"#utility.yul\":3933:3936   */\n      0x00\n        /* \"#utility.yul\":3961:4000   */\n      tag_243\n        /* \"#utility.yul\":3994:3999   */\n      dup3\n        /* \"#utility.yul\":3961:4000   */\n      tag_140\n      jump\t// in\n    tag_243:\n        /* \"#utility.yul\":4016:4087   */\n      tag_244\n        /* \"#utility.yul\":4080:4086   */\n      dup2\n        /* \"#utility.yul\":4075:4078   */\n      dup6\n        /* \"#utility.yul\":4016:4087   */\n      tag_141\n      jump\t// in\n    tag_244:\n        /* \"#utility.yul\":4009:4087   */\n      swap4\n      pop\n        /* \"#utility.yul\":4096:4161   */\n      tag_245\n        /* \"#utility.yul\":4154:4160   */\n      dup2\n        /* \"#utility.yul\":4149:4152   */\n      dup6\n        /* \"#utility.yul\":4142:4146   */\n      0x20\n        /* \"#utility.yul\":4135:4140   */\n      dup7\n        /* \"#utility.yul\":4131:4147   */\n      add\n        /* \"#utility.yul\":4096:4161   */\n      tag_142\n      jump\t// in\n    tag_245:\n        /* \"#utility.yul\":4186:4215   */\n      tag_246\n        /* \"#utility.yul\":4208:4214   */\n      dup2\n        /* \"#utility.yul\":4186:4215   */\n      tag_143\n      jump\t// in\n    tag_246:\n        /* \"#utility.yul\":4181:4184   */\n      dup5\n        /* \"#utility.yul\":4177:4216   */\n      add\n        /* \"#utility.yul\":4170:4216   */\n      swap2\n      pop\n        /* \"#utility.yul\":3937:4222   */\n      pop\n        /* \"#utility.yul\":3845:4222   */\n      swap3\n      swap2\n      pop\n      pop\n      jump\t// out\n        /* \"#utility.yul\":4228:4872   */\n    tag_34:\n        /* \"#utility.yul\":4425:4429   */\n      0x00\n        /* \"#utility.yul\":4463:4466   */\n      0x80\n        /* \"#utility.yul\":4452:4461   */\n      dup3\n        /* \"#utility.yul\":4448:4467   */\n      add\n        /* \"#utility.yul\":4440:4467   */\n      swap1\n      pop\n        /* \"#utility.yul\":4477:4548   */\n      tag_248\n        /* \"#utility.yul\":4545:4546   */\n      0x00\n        /* \"#utility.yul\":4534:4543   */\n      dup4\n        /* \"#utility.yul\":4530:4547   */\n      add\n        /* \"#utility.yul\":4521:4527   */\n      dup8\n        /* \"#utility.yul\":4477:4548   */\n      tag_138\n      jump\t// in\n    tag_248:\n        /* \"#utility.yul\":4558:4630   */\n      tag_249\n        /* \"#utility.yul\":4626:4628   */\n      0x20\n        /* \"#utility.yul\":4615:4624   */\n      dup4\n        /* \"#utility.yul\":4611:4629   */\n      add\n        /* \"#utility.yul\":4602:4608   */\n      dup7\n        /* \"#utility.yul\":4558:4630   */\n      tag_139\n      jump\t// in\n    tag_249:\n        /* \"#utility.yul\":4677:4686   */\n      dup2\n        /* \"#utility.yul\":4671:4675   */\n      dup2\n        /* \"#utility.yul\":4667:4687   */\n      sub\n        /* \"#utility.yul\":4662:4664   */\n      0x40\n        /* \"#utility.yul\":4651:4660   */\n      dup4\n        /* \"#utility.yul\":4647:4665   */\n      add\n        /* \"#utility.yul\":4640:4688   */\n      mstore\n        /* \"#utility.yul\":4705:4783   */\n      tag_250\n        /* \"#utility.yul\":4778:4782   */\n      dup2\n        /* \"#utility.yul\":4769:4775   */\n      dup6\n        /* \"#utility.yul\":4705:4783   */\n      tag_144\n      jump\t// in\n    tag_250:\n        /* \"#utility.yul\":4697:4783   */\n      swap1\n      pop\n        /* \"#utility.yul\":4793:4865   */\n      tag_251\n        /* \"#utility.yul\":4861:4863   */\n      0x60\n        /* \"#utility.yul\":4850:4859   */\n      dup4\n        /* \"#utility.yul\":4846:4864   */\n      add\n        /* \"#utility.yul\":4837:4843   */\n      dup5\n        /* \"#utility.yul\":4793:4865   */\n      tag_138\n      jump\t// in\n    tag_251:\n        /* \"#utility.yul\":4228:4872   */\n      swap6\n      swap5\n      pop\n      pop\n      pop\n      pop\n      pop\n      jump\t// out\n        /* \"#utility.yul\":4878:5207   */\n    tag_37:\n        /* \"#utility.yul\":4937:4943   */\n      0x00\n        /* \"#utility.yul\":4986:4988   */\n      0x20\n        /* \"#utility.yul\":4974:4983   */\n      dup3\n        /* \"#utility.yul\":4965:4972   */\n      dup5\n        /* \"#utility.yul\":4961:4984   */\n      sub\n        /* \"#utility.yul\":4957:4989   */\n      slt\n        /* \"#utility.yul\":4954:5073   */\n      iszero\n      tag_253\n      jumpi\n        /* \"#utility.yul\":4992:5071   */\n      tag_254\n      tag_127\n      jump\t// in\n    tag_254:\n        /* \"#utility.yul\":4954:5073   */\n    tag_253:\n        /* \"#utility.yul\":5112:5113   */\n      0x00\n        /* \"#utility.yul\":5137:5190   */\n      tag_255\n        /* \"#utility.yul\":5182:5189   */\n      dup5\n        /* \"#utility.yul\":5173:5179   */\n      dup3\n        /* \"#utility.yul\":5162:5171   */\n      dup6\n        /* \"#utility.yul\":5158:5180   */\n      add\n        /* \"#utility.yul\":5137:5190   */\n      tag_132\n      jump\t// in\n    tag_255:\n        /* \"#utility.yul\":5127:5190   */\n      swap2\n      pop\n        /* \"#utility.yul\":5083:5200   */\n      pop\n        /* \"#utility.yul\":4878:5207   */\n      swap3\n      swap2\n      pop\n      pop\n      jump\t// out\n        /* \"#utility.yul\":5213:5327   */\n    tag_145:\n        /* \"#utility.yul\":5280:5286   */\n      0x00\n        /* \"#utility.yul\":5314:5319   */\n      dup2\n        /* \"#utility.yul\":5308:5320   */\n      mload\n        /* \"#utility.yul\":5298:5320   */\n      swap1\n      pop\n        /* \"#utility.yul\":5213:5327   */\n      swap2\n      swap1\n      pop\n      jump\t// out\n        /* \"#utility.yul\":5333:5517   */\n    tag_146:\n        /* \"#utility.yul\":5432:5443   */\n      0x00\n        /* \"#utility.yul\":5466:5472   */\n      dup3\n        /* \"#utility.yul\":5461:5464   */\n      dup3\n        /* \"#utility.yul\":5454:5473   */\n      mstore\n        /* \"#utility.yul\":5506:5510   */\n      0x20\n        /* \"#utility.yul\":5501:5504   */\n      dup3\n        /* \"#utility.yul\":5497:5511   */\n      add\n        /* \"#utility.yul\":5482:5511   */\n      swap1\n      pop\n        /* \"#utility.yul\":5333:5517   */\n      swap3\n      swap2\n      pop\n      pop\n      jump\t// out\n        /* \"#utility.yul\":5523:5655   */\n    tag_147:\n        /* \"#utility.yul\":5590:5594   */\n      0x00\n        /* \"#utility.yul\":5613:5616   */\n      dup2\n        /* \"#utility.yul\":5605:5616   */\n      swap1\n      pop\n        /* \"#utility.yul\":5643:5647   */\n      0x20\n        /* \"#utility.yul\":5638:5641   */\n      dup3\n        /* \"#utility.yul\":5634:5648   */\n      add\n        /* \"#utility.yul\":5626:5648   */\n      swap1\n      pop\n        /* \"#utility.yul\":5523:5655   */\n      swap2\n      swap1\n      pop\n      jump\t// out\n        /* \"#utility.yul\":5661:5769   */\n    tag_148:\n        /* \"#utility.yul\":5738:5762   */\n      tag_260\n        /* \"#utility.yul\":5756:5761   */\n      dup2\n        /* \"#utility.yul\":5738:5762   */\n      tag_133\n      jump\t// in\n    tag_260:\n        /* \"#utility.yul\":5733:5736   */\n      dup3\n        /* \"#utility.yul\":5726:5763   */\n      mstore\n        /* \"#utility.yul\":5661:5769   */\n      pop\n      pop\n      jump\t// out\n        /* \"#utility.yul\":5775:5954   */\n    tag_149:\n        /* \"#utility.yul\":5844:5854   */\n      0x00\n        /* \"#utility.yul\":5865:5911   */\n      tag_262\n        /* \"#utility.yul\":5907:5910   */\n      dup4\n        /* \"#utility.yul\":5899:5905   */\n      dup4\n        /* \"#utility.yul\":5865:5911   */\n      tag_148\n      jump\t// in\n    tag_262:\n        /* \"#utility.yul\":5943:5947   */\n      0x20\n        /* \"#utility.yul\":5938:5941   */\n      dup4\n        /* \"#utility.yul\":5934:5948   */\n      add\n        /* \"#utility.yul\":5920:5948   */\n      swap1\n      pop\n        /* \"#utility.yul\":5775:5954   */\n      swap3\n      swap2\n      pop\n      pop\n      jump\t// out\n        /* \"#utility.yul\":5960:6073   */\n    tag_150:\n        /* \"#utility.yul\":6030:6034   */\n      0x00\n        /* \"#utility.yul\":6062:6066   */\n      0x20\n        /* \"#utility.yul\":6057:6060   */\n      dup3\n        /* \"#utility.yul\":6053:6067   */\n      add\n        /* \"#utility.yul\":6045:6067   */\n      swap1\n      pop\n        /* \"#utility.yul\":5960:6073   */\n      swap2\n      swap1\n      pop\n      jump\t// out\n        /* \"#utility.yul\":6109:6841   */\n    tag_151:\n        /* \"#utility.yul\":6228:6231   */\n      0x00\n        /* \"#utility.yul\":6257:6311   */\n      tag_265\n        /* \"#utility.yul\":6305:6310   */\n      dup3\n        /* \"#utility.yul\":6257:6311   */\n      tag_145\n      jump\t// in\n    tag_265:\n        /* \"#utility.yul\":6327:6413   */\n      tag_266\n        /* \"#utility.yul\":6406:6412   */\n      dup2\n        /* \"#utility.yul\":6401:6404   */\n      dup6\n        /* \"#utility.yul\":6327:6413   */\n      tag_146\n      jump\t// in\n    tag_266:\n        /* \"#utility.yul\":6320:6413   */\n      swap4\n      pop\n        /* \"#utility.yul\":6437:6493   */\n      tag_267\n        /* \"#utility.yul\":6487:6492   */\n      dup4\n        /* \"#utility.yul\":6437:6493   */\n      tag_147\n      jump\t// in\n    tag_267:\n        /* \"#utility.yul\":6516:6523   */\n      dup1\n        /* \"#utility.yul\":6547:6548   */\n      0x00\n        /* \"#utility.yul\":6532:6816   */\n    tag_268:\n        /* \"#utility.yul\":6557:6563   */\n      dup4\n        /* \"#utility.yul\":6554:6555   */\n      dup2\n        /* \"#utility.yul\":6551:6564   */\n      lt\n        /* \"#utility.yul\":6532:6816   */\n      iszero\n      tag_270\n      jumpi\n        /* \"#utility.yul\":6633:6639   */\n      dup2\n        /* \"#utility.yul\":6627:6640   */\n      mload\n        /* \"#utility.yul\":6660:6723   */\n      tag_271\n        /* \"#utility.yul\":6719:6722   */\n      dup9\n        /* \"#utility.yul\":6704:6717   */\n      dup3\n        /* \"#utility.yul\":6660:6723   */\n      tag_149\n      jump\t// in\n    tag_271:\n        /* \"#utility.yul\":6653:6723   */\n      swap8\n      pop\n        /* \"#utility.yul\":6746:6806   */\n      tag_272\n        /* \"#utility.yul\":6799:6805   */\n      dup4\n        /* \"#utility.yul\":6746:6806   */\n      tag_150\n      jump\t// in\n    tag_272:\n        /* \"#utility.yul\":6736:6806   */\n      swap3\n      pop\n        /* \"#utility.yul\":6592:6816   */\n      pop\n        /* \"#utility.yul\":6579:6580   */\n      0x01\n        /* \"#utility.yul\":6576:6577   */\n      dup2\n        /* \"#utility.yul\":6572:6581   */\n      add\n        /* \"#utility.yul\":6567:6581   */\n      swap1\n      pop\n        /* \"#utility.yul\":6532:6816   */\n      jump(tag_268)\n    tag_270:\n        /* \"#utility.yul\":6536:6550   */\n      pop\n        /* \"#utility.yul\":6832:6835   */\n      dup6\n        /* \"#utility.yul\":6825:6835   */\n      swap4\n      pop\n        /* \"#utility.yul\":6233:6841   */\n      pop\n      pop\n      pop\n        /* \"#utility.yul\":6109:6841   */\n      swap3\n      swap2\n      pop\n      pop\n      jump\t// out\n        /* \"#utility.yul\":6847:7220   */\n    tag_40:\n        /* \"#utility.yul\":6990:6994   */\n      0x00\n        /* \"#utility.yul\":7028:7030   */\n      0x20\n        /* \"#utility.yul\":7017:7026   */\n      dup3\n        /* \"#utility.yul\":7013:7031   */\n      add\n        /* \"#utility.yul\":7005:7031   */\n      swap1\n      pop\n        /* \"#utility.yul\":7077:7086   */\n      dup2\n        /* \"#utility.yul\":7071:7075   */\n      dup2\n        /* \"#utility.yul\":7067:7087   */\n      sub\n        /* \"#utility.yul\":7063:7064   */\n      0x00\n        /* \"#utility.yul\":7052:7061   */\n      dup4\n        /* \"#utility.yul\":7048:7065   */\n      add\n        /* \"#utility.yul\":7041:7088   */\n      mstore\n        /* \"#utility.yul\":7105:7213   */\n      tag_274\n        /* \"#utility.yul\":7208:7212   */\n      dup2\n        /* \"#utility.yul\":7199:7205   */\n      dup5\n        /* \"#utility.yul\":7105:7213   */\n      tag_151\n      jump\t// in\n    tag_274:\n        /* \"#utility.yul\":7097:7213   */\n      swap1\n      pop\n        /* \"#utility.yul\":6847:7220   */\n      swap3\n      swap2\n      pop\n      pop\n      jump\t// out\n        /* \"#utility.yul\":7226:7343   */\n    tag_152:\n        /* \"#utility.yul\":7335:7336   */\n      0x00\n        /* \"#utility.yul\":7332:7333   */\n      dup1\n        /* \"#utility.yul\":7325:7337   */\n      revert\n        /* \"#utility.yul\":7349:7466   */\n    tag_153:\n        /* \"#utility.yul\":7458:7459   */\n      0x00\n        /* \"#utility.yul\":7455:7456   */\n      dup1\n        /* \"#utility.yul\":7448:7460   */\n      revert\n        /* \"#utility.yul\":7472:7652   */\n    tag_154:\n        /* \"#utility.yul\":7520:7597   */\n      0x4e487b7100000000000000000000000000000000000000000000000000000000\n        /* \"#utility.yul\":7517:7518   */\n      0x00\n        /* \"#utility.yul\":7510:7598   */\n      mstore\n        /* \"#utility.yul\":7617:7621   */\n      0x41\n        /* \"#utility.yul\":7614:7615   */\n      0x04\n        /* \"#utility.yul\":7607:7622   */\n      mstore\n        /* \"#utility.yul\":7641:7645   */\n      0x24\n        /* \"#utility.yul\":7638:7639   */\n      0x00\n        /* \"#utility.yul\":7631:7646   */\n      revert\n        /* \"#utility.yul\":7658:7939   */\n    tag_155:\n        /* \"#utility.yul\":7741:7768   */\n      tag_279\n        /* \"#utility.yul\":7763:7767   */\n      dup3\n        /* \"#utility.yul\":7741:7768   */\n      tag_143\n      jump\t// in\n    tag_279:\n        /* \"#utility.yul\":7733:7739   */\n      dup2\n        /* \"#utility.yul\":7729:7769   */\n      add\n        /* \"#utility.yul\":7871:7877   */\n      dup2\n        /* \"#utility.yul\":7859:7869   */\n      dup2\n        /* \"#utility.yul\":7856:7878   */\n      lt\n        /* \"#utility.yul\":7835:7853   */\n      0xffffffffffffffff\n        /* \"#utility.yul\":7823:7833   */\n      dup3\n        /* \"#utility.yul\":7820:7854   */\n      gt\n        /* \"#utility.yul\":7817:7879   */\n      or\n        /* \"#utility.yul\":7814:7902   */\n      iszero\n      tag_280\n      jumpi\n        /* \"#utility.yul\":7882:7900   */\n      tag_281\n      tag_154\n      jump\t// in\n    tag_281:\n        /* \"#utility.yul\":7814:7902   */\n    tag_280:\n        /* \"#utility.yul\":7922:7932   */\n      dup1\n        /* \"#utility.yul\":7918:7920   */\n      0x40\n        /* \"#utility.yul\":7911:7933   */\n      mstore\n        /* \"#utility.yul\":7701:7939   */\n      pop\n        /* \"#utility.yul\":7658:7939   */\n      pop\n      pop\n      jump\t// out\n        /* \"#utility.yul\":7945:8074   */\n    tag_156:\n        /* \"#utility.yul\":7979:7985   */\n      0x00\n        /* \"#utility.yul\":8006:8026   */\n      tag_283\n      tag_126\n      jump\t// in\n    tag_283:\n        /* \"#utility.yul\":7996:8026   */\n      swap1\n      pop\n        /* \"#utility.yul\":8035:8068   */\n      tag_284\n        /* \"#utility.yul\":8063:8067   */\n      dup3\n        /* \"#utility.yul\":8055:8061   */\n      dup3\n        /* \"#utility.yul\":8035:8068   */\n      tag_155\n      jump\t// in\n    tag_284:\n        /* \"#utility.yul\":7945:8074   */\n      swap2\n      swap1\n      pop\n      jump\t// out\n        /* \"#utility.yul\":8080:8388   */\n    tag_157:\n        /* \"#utility.yul\":8142:8146   */\n      0x00\n        /* \"#utility.yul\":8232:8250   */\n      0xffffffffffffffff\n        /* \"#utility.yul\":8224:8230   */\n      dup3\n        /* \"#utility.yul\":8221:8251   */\n      gt\n        /* \"#utility.yul\":8218:8274   */\n      iszero\n      tag_286\n      jumpi\n        /* \"#utility.yul\":8254:8272   */\n      tag_287\n      tag_154\n      jump\t// in\n    tag_287:\n        /* \"#utility.yul\":8218:8274   */\n    tag_286:\n        /* \"#utility.yul\":8292:8321   */\n      tag_288\n        /* \"#utility.yul\":8314:8320   */\n      dup3\n        /* \"#utility.yul\":8292:8321   */\n      tag_143\n      jump\t// in\n    tag_288:\n        /* \"#utility.yul\":8284:8321   */\n      swap1\n      pop\n        /* \"#utility.yul\":8376:8380   */\n      0x20\n        /* \"#utility.yul\":8370:8374   */\n      dup2\n        /* \"#utility.yul\":8366:8381   */\n      add\n        /* \"#utility.yul\":8358:8381   */\n      swap1\n      pop\n        /* \"#utility.yul\":8080:8388   */\n      swap2\n      swap1\n      pop\n      jump\t// out\n        /* \"#utility.yul\":8394:8540   */\n    tag_158:\n        /* \"#utility.yul\":8491:8497   */\n      dup3\n        /* \"#utility.yul\":8486:8489   */\n      dup2\n        /* \"#utility.yul\":8481:8484   */\n      dup4\n        /* \"#utility.yul\":8468:8498   */\n      calldatacopy\n        /* \"#utility.yul\":8532:8533   */\n      0x00\n        /* \"#utility.yul\":8523:8529   */\n      dup4\n        /* \"#utility.yul\":8518:8521   */\n      dup4\n        /* \"#utility.yul\":8514:8530   */\n      add\n        /* \"#utility.yul\":8507:8534   */\n      mstore\n        /* \"#utility.yul\":8394:8540   */\n      pop\n      pop\n      pop\n      jump\t// out\n        /* \"#utility.yul\":8546:8971   */\n    tag_159:\n        /* \"#utility.yul\":8624:8629   */\n      0x00\n        /* \"#utility.yul\":8649:8715   */\n      tag_291\n        /* \"#utility.yul\":8665:8714   */\n      tag_292\n        /* \"#utility.yul\":8707:8713   */\n      dup5\n        /* \"#utility.yul\":8665:8714   */\n      tag_157\n      jump\t// in\n    tag_292:\n        /* \"#utility.yul\":8649:8715   */\n      tag_156\n      jump\t// in\n    tag_291:\n        /* \"#utility.yul\":8640:8715   */\n      swap1\n      pop\n        /* \"#utility.yul\":8738:8744   */\n      dup3\n        /* \"#utility.yul\":8731:8736   */\n      dup2\n        /* \"#utility.yul\":8724:8745   */\n      mstore\n        /* \"#utility.yul\":8776:8780   */\n      0x20\n        /* \"#utility.yul\":8769:8774   */\n      dup2\n        /* \"#utility.yul\":8765:8781   */\n      add\n        /* \"#utility.yul\":8814:8817   */\n      dup5\n        /* \"#utility.yul\":8805:8811   */\n      dup5\n        /* \"#utility.yul\":8800:8803   */\n      dup5\n        /* \"#utility.yul\":8796:8812   */\n      add\n        /* \"#utility.yul\":8793:8818   */\n      gt\n        /* \"#utility.yul\":8790:8902   */\n      iszero\n      tag_293\n      jumpi\n        /* \"#utility.yul\":8821:8900   */\n      tag_294\n      tag_153\n      jump\t// in\n    tag_294:\n        /* \"#utility.yul\":8790:8902   */\n    tag_293:\n        /* \"#utility.yul\":8911:8965   */\n      tag_295\n        /* \"#utility.yul\":8958:8964   */\n      dup5\n        /* \"#utility.yul\":8953:8956   */\n      dup3\n        /* \"#utility.yul\":8948:8951   */\n      dup6\n        /* \"#utility.yul\":8911:8965   */\n      tag_158\n      jump\t// in\n    tag_295:\n        /* \"#utility.yul\":8630:8971   */\n      pop\n        /* \"#utility.yul\":8546:8971   */\n      swap4\n      swap3\n      pop\n      pop\n      pop\n      jump\t// out\n        /* \"#utility.yul\":8991:9331   */\n    tag_160:\n        /* \"#utility.yul\":9047:9052   */\n      0x00\n        /* \"#utility.yul\":9096:9099   */\n      dup3\n        /* \"#utility.yul\":9089:9093   */\n      0x1f\n        /* \"#utility.yul\":9081:9087   */\n      dup4\n        /* \"#utility.yul\":9077:9094   */\n      add\n        /* \"#utility.yul\":9073:9100   */\n      slt\n        /* \"#utility.yul\":9063:9185   */\n      tag_297\n      jumpi\n        /* \"#utility.yul\":9104:9183   */\n      tag_298\n      tag_152\n      jump\t// in\n    tag_298:\n        /* \"#utility.yul\":9063:9185   */\n    tag_297:\n        /* \"#utility.yul\":9221:9227   */\n      dup2\n        /* \"#utility.yul\":9208:9228   */\n      calldataload\n        /* \"#utility.yul\":9246:9325   */\n      tag_299\n        /* \"#utility.yul\":9321:9324   */\n      dup5\n        /* \"#utility.yul\":9313:9319   */\n      dup3\n        /* \"#utility.yul\":9306:9310   */\n      0x20\n        /* \"#utility.yul\":9298:9304   */\n      dup7\n        /* \"#utility.yul\":9294:9311   */\n      add\n        /* \"#utility.yul\":9246:9325   */\n      tag_159\n      jump\t// in\n    tag_299:\n        /* \"#utility.yul\":9237:9325   */\n      swap2\n      pop\n        /* \"#utility.yul\":9053:9331   */\n      pop\n        /* \"#utility.yul\":8991:9331   */\n      swap3\n      swap2\n      pop\n      pop\n      jump\t// out\n        /* \"#utility.yul\":9337:10428   */\n    tag_47:\n        /* \"#utility.yul\":9442:9448   */\n      0x00\n        /* \"#utility.yul\":9450:9456   */\n      dup1\n        /* \"#utility.yul\":9458:9464   */\n      0x00\n        /* \"#utility.yul\":9466:9472   */\n      dup1\n        /* \"#utility.yul\":9474:9480   */\n      0x00\n        /* \"#utility.yul\":9523:9526   */\n      0xa0\n        /* \"#utility.yul\":9511:9520   */\n      dup7\n        /* \"#utility.yul\":9502:9509   */\n      dup9\n        /* \"#utility.yul\":9498:9521   */\n      sub\n        /* \"#utility.yul\":9494:9527   */\n      slt\n        /* \"#utility.yul\":9491:9611   */\n      iszero\n      tag_301\n      jumpi\n        /* \"#utility.yul\":9530:9609   */\n      tag_302\n      tag_127\n      jump\t// in\n    tag_302:\n        /* \"#utility.yul\":9491:9611   */\n    tag_301:\n        /* \"#utility.yul\":9650:9651   */\n      0x00\n        /* \"#utility.yul\":9675:9728   */\n      tag_303\n        /* \"#utility.yul\":9720:9727   */\n      dup9\n        /* \"#utility.yul\":9711:9717   */\n      dup3\n        /* \"#utility.yul\":9700:9709   */\n      dup10\n        /* \"#utility.yul\":9696:9718   */\n      add\n        /* \"#utility.yul\":9675:9728   */\n      tag_132\n      jump\t// in\n    tag_303:\n        /* \"#utility.yul\":9665:9728   */\n      swap6\n      pop\n        /* \"#utility.yul\":9621:9738   */\n      pop\n        /* \"#utility.yul\":9777:9779   */\n      0x20\n        /* \"#utility.yul\":9803:9856   */\n      tag_304\n        /* \"#utility.yul\":9848:9855   */\n      dup9\n        /* \"#utility.yul\":9839:9845   */\n      dup3\n        /* \"#utility.yul\":9828:9837   */\n      dup10\n        /* \"#utility.yul\":9824:9846   */\n      add\n        /* \"#utility.yul\":9803:9856   */\n      tag_132\n      jump\t// in\n    tag_304:\n        /* \"#utility.yul\":9793:9856   */\n      swap5\n      pop\n        /* \"#utility.yul\":9748:9866   */\n      pop\n        /* \"#utility.yul\":9905:9907   */\n      0x40\n        /* \"#utility.yul\":9931:9984   */\n      tag_305\n        /* \"#utility.yul\":9976:9983   */\n      dup9\n        /* \"#utility.yul\":9967:9973   */\n      dup3\n        /* \"#utility.yul\":9956:9965   */\n      dup10\n        /* \"#utility.yul\":9952:9974   */\n      add\n        /* \"#utility.yul\":9931:9984   */\n      tag_135\n      jump\t// in\n    tag_305:\n        /* \"#utility.yul\":9921:9984   */\n      swap4\n      pop\n        /* \"#utility.yul\":9876:9994   */\n      pop\n        /* \"#utility.yul\":10061:10063   */\n      0x60\n        /* \"#utility.yul\":10050:10059   */\n      dup7\n        /* \"#utility.yul\":10046:10064   */\n      add\n        /* \"#utility.yul\":10033:10065   */\n      calldataload\n        /* \"#utility.yul\":10092:10110   */\n      0xffffffffffffffff\n        /* \"#utility.yul\":10084:10090   */\n      dup2\n        /* \"#utility.yul\":10081:10111   */\n      gt\n        /* \"#utility.yul\":10078:10195   */\n      iszero\n      tag_306\n      jumpi\n        /* \"#utility.yul\":10114:10193   */\n      tag_307\n      tag_128\n      jump\t// in\n    tag_307:\n        /* \"#utility.yul\":10078:10195   */\n    tag_306:\n        /* \"#utility.yul\":10219:10282   */\n      tag_308\n        /* \"#utility.yul\":10274:10281   */\n      dup9\n        /* \"#utility.yul\":10265:10271   */\n      dup3\n        /* \"#utility.yul\":10254:10263   */\n      dup10\n        /* \"#utility.yul\":10250:10272   */\n      add\n        /* \"#utility.yul\":10219:10282   */\n      tag_160\n      jump\t// in\n    tag_308:\n        /* \"#utility.yul\":10209:10282   */\n      swap3\n      pop\n        /* \"#utility.yul\":10004:10292   */\n      pop\n        /* \"#utility.yul\":10331:10334   */\n      0x80\n        /* \"#utility.yul\":10358:10411   */\n      tag_309\n        /* \"#utility.yul\":10403:10410   */\n      dup9\n        /* \"#utility.yul\":10394:10400   */\n      dup3\n        /* \"#utility.yul\":10383:10392   */\n      dup10\n        /* \"#utility.yul\":10379:10401   */\n      add\n        /* \"#utility.yul\":10358:10411   */\n      tag_135\n      jump\t// in\n    tag_309:\n        /* \"#utility.yul\":10348:10411   */\n      swap2\n      pop\n        /* \"#utility.yul\":10302:10421   */\n      pop\n        /* \"#utility.yul\":9337:10428   */\n      swap3\n      swap6\n      pop\n      swap3\n      swap6\n      swap1\n      swap4\n      pop\n      jump\t// out\n        /* \"#utility.yul\":10434:10967   */\n    tag_50:\n        /* \"#utility.yul\":10603:10607   */\n      0x00\n        /* \"#utility.yul\":10641:10643   */\n      0x60\n        /* \"#utility.yul\":10630:10639   */\n      dup3\n        /* \"#utility.yul\":10626:10644   */\n      add\n        /* \"#utility.yul\":10618:10644   */\n      swap1\n      pop\n        /* \"#utility.yul\":10654:10725   */\n      tag_311\n        /* \"#utility.yul\":10722:10723   */\n      0x00\n        /* \"#utility.yul\":10711:10720   */\n      dup4\n        /* \"#utility.yul\":10707:10724   */\n      add\n        /* \"#utility.yul\":10698:10704   */\n      dup7\n        /* \"#utility.yul\":10654:10725   */\n      tag_138\n      jump\t// in\n    tag_311:\n        /* \"#utility.yul\":10772:10781   */\n      dup2\n        /* \"#utility.yul\":10766:10770   */\n      dup2\n        /* \"#utility.yul\":10762:10782   */\n      sub\n        /* \"#utility.yul\":10757:10759   */\n      0x20\n        /* \"#utility.yul\":10746:10755   */\n      dup4\n        /* \"#utility.yul\":10742:10760   */\n      add\n        /* \"#utility.yul\":10735:10783   */\n      mstore\n        /* \"#utility.yul\":10800:10878   */\n      tag_312\n        /* \"#utility.yul\":10873:10877   */\n      dup2\n        /* \"#utility.yul\":10864:10870   */\n      dup6\n        /* \"#utility.yul\":10800:10878   */\n      tag_144\n      jump\t// in\n    tag_312:\n        /* \"#utility.yul\":10792:10878   */\n      swap1\n      pop\n        /* \"#utility.yul\":10888:10960   */\n      tag_313\n        /* \"#utility.yul\":10956:10958   */\n      0x40\n        /* \"#utility.yul\":10945:10954   */\n      dup4\n        /* \"#utility.yul\":10941:10959   */\n      add\n        /* \"#utility.yul\":10932:10938   */\n      dup5\n        /* \"#utility.yul\":10888:10960   */\n      tag_138\n      jump\t// in\n    tag_313:\n        /* \"#utility.yul\":10434:10967   */\n      swap5\n      swap4\n      pop\n      pop\n      pop\n      pop\n      jump\t// out\n        /* \"#utility.yul\":10973:11195   */\n    tag_59:\n        /* \"#utility.yul\":11066:11070   */\n      0x00\n        /* \"#utility.yul\":11104:11106   */\n      0x20\n        /* \"#utility.yul\":11093:11102   */\n      dup3\n        /* \"#utility.yul\":11089:11107   */\n      add\n        /* \"#utility.yul\":11081:11107   */\n      swap1\n      pop\n        /* \"#utility.yul\":11117:11188   */\n      tag_315\n        /* \"#utility.yul\":11185:11186   */\n      0x00\n        /* \"#utility.yul\":11174:11183   */\n      dup4\n        /* \"#utility.yul\":11170:11187   */\n      add\n        /* \"#utility.yul\":11161:11167   */\n      dup5\n        /* \"#utility.yul\":11117:11188   */\n      tag_139\n      jump\t// in\n    tag_315:\n        /* \"#utility.yul\":10973:11195   */\n      swap3\n      swap2\n      pop\n      pop\n      jump\t// out\n        /* \"#utility.yul\":11201:11514   */\n    tag_68:\n        /* \"#utility.yul\":11314:11318   */\n      0x00\n        /* \"#utility.yul\":11352:11354   */\n      0x20\n        /* \"#utility.yul\":11341:11350   */\n      dup3\n        /* \"#utility.yul\":11337:11355   */\n      add\n        /* \"#utility.yul\":11329:11355   */\n      swap1\n      pop\n        /* \"#utility.yul\":11401:11410   */\n      dup2\n        /* \"#utility.yul\":11395:11399   */\n      dup2\n        /* \"#utility.yul\":11391:11411   */\n      sub\n        /* \"#utility.yul\":11387:11388   */\n      0x00\n        /* \"#utility.yul\":11376:11385   */\n      dup4\n        /* \"#utility.yul\":11372:11389   */\n      add\n        /* \"#utility.yul\":11365:11412   */\n      mstore\n        /* \"#utility.yul\":11429:11507   */\n      tag_317\n        /* \"#utility.yul\":11502:11506   */\n      dup2\n        /* \"#utility.yul\":11493:11499   */\n      dup5\n        /* \"#utility.yul\":11429:11507   */\n      tag_144\n      jump\t// in\n    tag_317:\n        /* \"#utility.yul\":11421:11507   */\n      swap1\n      pop\n        /* \"#utility.yul\":11201:11514   */\n      swap3\n      swap2\n      pop\n      pop\n      jump\t// out\n        /* \"#utility.yul\":11520:11689   */\n    tag_161:\n        /* \"#utility.yul\":11660:11681   */\n      0x5175616e74697479206e6f742056616c69642100000000000000000000000000\n        /* \"#utility.yul\":11656:11657   */\n      0x00\n        /* \"#utility.yul\":11648:11654   */\n      dup3\n        /* \"#utility.yul\":11644:11658   */\n      add\n        /* \"#utility.yul\":11637:11682   */\n      mstore\n        /* \"#utility.yul\":11520:11689   */\n      pop\n      jump\t// out\n        /* \"#utility.yul\":11695:12061   */\n    tag_162:\n        /* \"#utility.yul\":11837:11840   */\n      0x00\n        /* \"#utility.yul\":11858:11925   */\n      tag_320\n        /* \"#utility.yul\":11922:11924   */\n      0x13\n        /* \"#utility.yul\":11917:11920   */\n      dup4\n        /* \"#utility.yul\":11858:11925   */\n      tag_141\n      jump\t// in\n    tag_320:\n        /* \"#utility.yul\":11851:11925   */\n      swap2\n      pop\n        /* \"#utility.yul\":11934:12027   */\n      tag_321\n        /* \"#utility.yul\":12023:12026   */\n      dup3\n        /* \"#utility.yul\":11934:12027   */\n      tag_161\n      jump\t// in\n    tag_321:\n        /* \"#utility.yul\":12052:12054   */\n      0x20\n        /* \"#utility.yul\":12047:12050   */\n      dup3\n        /* \"#utility.yul\":12043:12055   */\n      add\n        /* \"#utility.yul\":12036:12055   */\n      swap1\n      pop\n        /* \"#utility.yul\":11695:12061   */\n      swap2\n      swap1\n      pop\n      jump\t// out\n        /* \"#utility.yul\":12067:12486   */\n    tag_72:\n        /* \"#utility.yul\":12233:12237   */\n      0x00\n        /* \"#utility.yul\":12271:12273   */\n      0x20\n        /* \"#utility.yul\":12260:12269   */\n      dup3\n        /* \"#utility.yul\":12256:12274   */\n      add\n        /* \"#utility.yul\":12248:12274   */\n      swap1\n      pop\n        /* \"#utility.yul\":12320:12329   */\n      dup2\n        /* \"#utility.yul\":12314:12318   */\n      dup2\n        /* \"#utility.yul\":12310:12330   */\n      sub\n        /* \"#utility.yul\":12306:12307   */\n      0x00\n        /* \"#utility.yul\":12295:12304   */\n      dup4\n        /* \"#utility.yul\":12291:12308   */\n      add\n        /* \"#utility.yul\":12284:12331   */\n      mstore\n        /* \"#utility.yul\":12348:12479   */\n      tag_323\n        /* \"#utility.yul\":12474:12478   */\n      dup2\n        /* \"#utility.yul\":12348:12479   */\n      tag_162\n      jump\t// in\n    tag_323:\n        /* \"#utility.yul\":12340:12479   */\n      swap1\n      pop\n        /* \"#utility.yul\":12067:12486   */\n      swap2\n      swap1\n      pop\n      jump\t// out\n        /* \"#utility.yul\":12492:12672   */\n    tag_163:\n        /* \"#utility.yul\":12540:12617   */\n      0x4e487b7100000000000000000000000000000000000000000000000000000000\n        /* \"#utility.yul\":12537:12538   */\n      0x00\n        /* \"#utility.yul\":12530:12618   */\n      mstore\n        /* \"#utility.yul\":12637:12641   */\n      0x22\n        /* \"#utility.yul\":12634:12635   */\n      0x04\n        /* \"#utility.yul\":12627:12642   */\n      mstore\n        /* \"#utility.yul\":12661:12665   */\n      0x24\n        /* \"#utility.yul\":12658:12659   */\n      0x00\n        /* \"#utility.yul\":12651:12666   */\n      revert\n        /* \"#utility.yul\":12678:12998   */\n    tag_75:\n        /* \"#utility.yul\":12722:12728   */\n      0x00\n        /* \"#utility.yul\":12759:12760   */\n      0x02\n        /* \"#utility.yul\":12753:12757   */\n      dup3\n        /* \"#utility.yul\":12749:12761   */\n      div\n        /* \"#utility.yul\":12739:12761   */\n      swap1\n      pop\n        /* \"#utility.yul\":12806:12807   */\n      0x01\n        /* \"#utility.yul\":12800:12804   */\n      dup3\n        /* \"#utility.yul\":12796:12808   */\n      and\n        /* \"#utility.yul\":12827:12845   */\n      dup1\n        /* \"#utility.yul\":12817:12898   */\n      tag_326\n      jumpi\n        /* \"#utility.yul\":12883:12887   */\n      0x7f\n        /* \"#utility.yul\":12875:12881   */\n      dup3\n        /* \"#utility.yul\":12871:12888   */\n      and\n        /* \"#utility.yul\":12861:12888   */\n      swap2\n      pop\n        /* \"#utility.yul\":12817:12898   */\n    tag_326:\n        /* \"#utility.yul\":12945:12947   */\n      0x20\n        /* \"#utility.yul\":12937:12943   */\n      dup3\n        /* \"#utility.yul\":12934:12948   */\n      lt\n        /* \"#utility.yul\":12914:12932   */\n      dup2\n        /* \"#utility.yul\":12911:12949   */\n      sub\n        /* \"#utility.yul\":12908:12992   */\n      tag_327\n      jumpi\n        /* \"#utility.yul\":12964:12982   */\n      tag_328\n      tag_163\n      jump\t// in\n    tag_328:\n        /* \"#utility.yul\":12908:12992   */\n    tag_327:\n        /* \"#utility.yul\":12729:12998   */\n      pop\n        /* \"#utility.yul\":12678:12998   */\n      swap2\n      swap1\n      pop\n      jump\t// out\n        /* \"#utility.yul\":13004:13254   */\n    tag_164:\n        /* \"#utility.yul\":13144:13178   */\n      0x436f6e74726f6c6c6f2064656c6c61205175616e746974612720646120757469\n        /* \"#utility.yul\":13140:13141   */\n      0x00\n        /* \"#utility.yul\":13132:13138   */\n      dup3\n        /* \"#utility.yul\":13128:13142   */\n      add\n        /* \"#utility.yul\":13121:13179   */\n      mstore\n        /* \"#utility.yul\":13213:13246   */\n      0x6c697a7a617265206e6f6e20616e6461746120612062756f6e2066696e652100\n        /* \"#utility.yul\":13208:13210   */\n      0x20\n        /* \"#utility.yul\":13200:13206   */\n      dup3\n        /* \"#utility.yul\":13196:13211   */\n      add\n        /* \"#utility.yul\":13189:13247   */\n      mstore\n        /* \"#utility.yul\":13004:13254   */\n      pop\n      jump\t// out\n        /* \"#utility.yul\":13260:13626   */\n    tag_165:\n        /* \"#utility.yul\":13402:13405   */\n      0x00\n        /* \"#utility.yul\":13423:13490   */\n      tag_331\n        /* \"#utility.yul\":13487:13489   */\n      0x3f\n        /* \"#utility.yul\":13482:13485   */\n      dup4\n        /* \"#utility.yul\":13423:13490   */\n      tag_141\n      jump\t// in\n    tag_331:\n        /* \"#utility.yul\":13416:13490   */\n      swap2\n      pop\n        /* \"#utility.yul\":13499:13592   */\n      tag_332\n        /* \"#utility.yul\":13588:13591   */\n      dup3\n        /* \"#utility.yul\":13499:13592   */\n      tag_164\n      jump\t// in\n    tag_332:\n        /* \"#utility.yul\":13617:13619   */\n      0x40\n        /* \"#utility.yul\":13612:13615   */\n      dup3\n        /* \"#utility.yul\":13608:13620   */\n      add\n        /* \"#utility.yul\":13601:13620   */\n      swap1\n      pop\n        /* \"#utility.yul\":13260:13626   */\n      swap2\n      swap1\n      pop\n      jump\t// out\n        /* \"#utility.yul\":13632:14051   */\n    tag_83:\n        /* \"#utility.yul\":13798:13802   */\n      0x00\n        /* \"#utility.yul\":13836:13838   */\n      0x20\n        /* \"#utility.yul\":13825:13834   */\n      dup3\n        /* \"#utility.yul\":13821:13839   */\n      add\n        /* \"#utility.yul\":13813:13839   */\n      swap1\n      pop\n        /* \"#utility.yul\":13885:13894   */\n      dup2\n        /* \"#utility.yul\":13879:13883   */\n      dup2\n        /* \"#utility.yul\":13875:13895   */\n      sub\n        /* \"#utility.yul\":13871:13872   */\n      0x00\n        /* \"#utility.yul\":13860:13869   */\n      dup4\n        /* \"#utility.yul\":13856:13873   */\n      add\n        /* \"#utility.yul\":13849:13896   */\n      mstore\n        /* \"#utility.yul\":13913:14044   */\n      tag_334\n        /* \"#utility.yul\":14039:14043   */\n      dup2\n        /* \"#utility.yul\":13913:14044   */\n      tag_165\n      jump\t// in\n    tag_334:\n        /* \"#utility.yul\":13905:14044   */\n      swap1\n      pop\n        /* \"#utility.yul\":13632:14051   */\n      swap2\n      swap1\n      pop\n      jump\t// out\n        /* \"#utility.yul\":14057:14237   */\n    tag_166:\n        /* \"#utility.yul\":14197:14229   */\n      0x50617274697461206469204c61747465206e6f6e2070726573656e7465210000\n        /* \"#utility.yul\":14193:14194   */\n      0x00\n        /* \"#utility.yul\":14185:14191   */\n      dup3\n        /* \"#utility.yul\":14181:14195   */\n      add\n        /* \"#utility.yul\":14174:14230   */\n      mstore\n        /* \"#utility.yul\":14057:14237   */\n      pop\n      jump\t// out\n        /* \"#utility.yul\":14243:14609   */\n    tag_167:\n        /* \"#utility.yul\":14385:14388   */\n      0x00\n        /* \"#utility.yul\":14406:14473   */\n      tag_337\n        /* \"#utility.yul\":14470:14472   */\n      0x1e\n        /* \"#utility.yul\":14465:14468   */\n      dup4\n        /* \"#utility.yul\":14406:14473   */\n      tag_141\n      jump\t// in\n    tag_337:\n        /* \"#utility.yul\":14399:14473   */\n      swap2\n      pop\n        /* \"#utility.yul\":14482:14575   */\n      tag_338\n        /* \"#utility.yul\":14571:14574   */\n      dup3\n        /* \"#utility.yul\":14482:14575   */\n      tag_166\n      jump\t// in\n    tag_338:\n        /* \"#utility.yul\":14600:14602   */\n      0x20\n        /* \"#utility.yul\":14595:14598   */\n      dup3\n        /* \"#utility.yul\":14591:14603   */\n      add\n        /* \"#utility.yul\":14584:14603   */\n      swap1\n      pop\n        /* \"#utility.yul\":14243:14609   */\n      swap2\n      swap1\n      pop\n      jump\t// out\n        /* \"#utility.yul\":14615:15034   */\n    tag_96:\n        /* \"#utility.yul\":14781:14785   */\n      0x00\n        /* \"#utility.yul\":14819:14821   */\n      0x20\n        /* \"#utility.yul\":14808:14817   */\n      dup3\n        /* \"#utility.yul\":14804:14822   */\n      add\n        /* \"#utility.yul\":14796:14822   */\n      swap1\n      pop\n        /* \"#utility.yul\":14868:14877   */\n      dup2\n        /* \"#utility.yul\":14862:14866   */\n      dup2\n        /* \"#utility.yul\":14858:14878   */\n      sub\n        /* \"#utility.yul\":14854:14855   */\n      0x00\n        /* \"#utility.yul\":14843:14852   */\n      dup4\n        /* \"#utility.yul\":14839:14856   */\n      add\n        /* \"#utility.yul\":14832:14879   */\n      mstore\n        /* \"#utility.yul\":14896:15027   */\n      tag_340\n        /* \"#utility.yul\":15022:15026   */\n      dup2\n        /* \"#utility.yul\":14896:15027   */\n      tag_167\n      jump\t// in\n    tag_340:\n        /* \"#utility.yul\":14888:15027   */\n      swap1\n      pop\n        /* \"#utility.yul\":14615:15034   */\n      swap2\n      swap1\n      pop\n      jump\t// out\n        /* \"#utility.yul\":15040:15119   */\n    tag_168:\n        /* \"#utility.yul\":15079:15086   */\n      0x00\n        /* \"#utility.yul\":15108:15113   */\n      dup2\n        /* \"#utility.yul\":15097:15113   */\n      swap1\n      pop\n        /* \"#utility.yul\":15040:15119   */\n      swap2\n      swap1\n      pop\n      jump\t// out\n        /* \"#utility.yul\":15125:15282   */\n    tag_169:\n        /* \"#utility.yul\":15230:15275   */\n      tag_343\n        /* \"#utility.yul\":15250:15274   */\n      tag_344\n        /* \"#utility.yul\":15268:15273   */\n      dup3\n        /* \"#utility.yul\":15250:15274   */\n      tag_133\n      jump\t// in\n    tag_344:\n        /* \"#utility.yul\":15230:15275   */\n      tag_168\n      jump\t// in\n    tag_343:\n        /* \"#utility.yul\":15225:15228   */\n      dup3\n        /* \"#utility.yul\":15218:15276   */\n      mstore\n        /* \"#utility.yul\":15125:15282   */\n      pop\n      pop\n      jump\t// out\n        /* \"#utility.yul\":15288:15436   */\n    tag_170:\n        /* \"#utility.yul\":15390:15401   */\n      0x00\n        /* \"#utility.yul\":15427:15430   */\n      dup2\n        /* \"#utility.yul\":15412:15430   */\n      swap1\n      pop\n        /* \"#utility.yul\":15288:15436   */\n      swap3\n      swap2\n      pop\n      pop\n      jump\t// out\n        /* \"#utility.yul\":15442:15832   */\n    tag_171:\n        /* \"#utility.yul\":15548:15551   */\n      0x00\n        /* \"#utility.yul\":15576:15615   */\n      tag_347\n        /* \"#utility.yul\":15609:15614   */\n      dup3\n        /* \"#utility.yul\":15576:15615   */\n      tag_140\n      jump\t// in\n    tag_347:\n        /* \"#utility.yul\":15631:15720   */\n      tag_348\n        /* \"#utility.yul\":15713:15719   */\n      dup2\n        /* \"#utility.yul\":15708:15711   */\n      dup6\n        /* \"#utility.yul\":15631:15720   */\n      tag_170\n      jump\t// in\n    tag_348:\n        /* \"#utility.yul\":15624:15720   */\n      swap4\n      pop\n        /* \"#utility.yul\":15729:15794   */\n      tag_349\n        /* \"#utility.yul\":15787:15793   */\n      dup2\n        /* \"#utility.yul\":15782:15785   */\n      dup6\n        /* \"#utility.yul\":15775:15779   */\n      0x20\n        /* \"#utility.yul\":15768:15773   */\n      dup7\n        /* \"#utility.yul\":15764:15780   */\n      add\n        /* \"#utility.yul\":15729:15794   */\n      tag_142\n      jump\t// in\n    tag_349:\n        /* \"#utility.yul\":15819:15825   */\n      dup1\n        /* \"#utility.yul\":15814:15817   */\n      dup5\n        /* \"#utility.yul\":15810:15826   */\n      add\n        /* \"#utility.yul\":15803:15826   */\n      swap2\n      pop\n        /* \"#utility.yul\":15552:15832   */\n      pop\n        /* \"#utility.yul\":15442:15832   */\n      swap3\n      swap2\n      pop\n      pop\n      jump\t// out\n        /* \"#utility.yul\":15838:15932   */\n    tag_172:\n        /* \"#utility.yul\":15871:15879   */\n      0x00\n        /* \"#utility.yul\":15919:15924   */\n      dup2\n        /* \"#utility.yul\":15915:15917   */\n      0x60\n        /* \"#utility.yul\":15911:15925   */\n      shl\n        /* \"#utility.yul\":15890:15925   */\n      swap1\n      pop\n        /* \"#utility.yul\":15838:15932   */\n      swap2\n      swap1\n      pop\n      jump\t// out\n        /* \"#utility.yul\":15938:16032   */\n    tag_173:\n        /* \"#utility.yul\":15977:15984   */\n      0x00\n        /* \"#utility.yul\":16006:16026   */\n      tag_352\n        /* \"#utility.yul\":16020:16025   */\n      dup3\n        /* \"#utility.yul\":16006:16026   */\n      tag_172\n      jump\t// in\n    tag_352:\n        /* \"#utility.yul\":15995:16026   */\n      swap1\n      pop\n        /* \"#utility.yul\":15938:16032   */\n      swap2\n      swap1\n      pop\n      jump\t// out\n        /* \"#utility.yul\":16038:16138   */\n    tag_174:\n        /* \"#utility.yul\":16077:16084   */\n      0x00\n        /* \"#utility.yul\":16106:16132   */\n      tag_354\n        /* \"#utility.yul\":16126:16131   */\n      dup3\n        /* \"#utility.yul\":16106:16132   */\n      tag_173\n      jump\t// in\n    tag_354:\n        /* \"#utility.yul\":16095:16132   */\n      swap1\n      pop\n        /* \"#utility.yul\":16038:16138   */\n      swap2\n      swap1\n      pop\n      jump\t// out\n        /* \"#utility.yul\":16144:16301   */\n    tag_175:\n        /* \"#utility.yul\":16249:16294   */\n      tag_356\n        /* \"#utility.yul\":16269:16293   */\n      tag_357\n        /* \"#utility.yul\":16287:16292   */\n      dup3\n        /* \"#utility.yul\":16269:16293   */\n      tag_130\n      jump\t// in\n    tag_357:\n        /* \"#utility.yul\":16249:16294   */\n      tag_174\n      jump\t// in\n    tag_356:\n        /* \"#utility.yul\":16244:16247   */\n      dup3\n        /* \"#utility.yul\":16237:16295   */\n      mstore\n        /* \"#utility.yul\":16144:16301   */\n      pop\n      pop\n      jump\t// out\n        /* \"#utility.yul\":16307:17287   */\n    tag_101:\n        /* \"#utility.yul\":16579:16582   */\n      0x00\n        /* \"#utility.yul\":16594:16669   */\n      tag_359\n        /* \"#utility.yul\":16665:16668   */\n      dup3\n        /* \"#utility.yul\":16656:16662   */\n      dup10\n        /* \"#utility.yul\":16594:16669   */\n      tag_169\n      jump\t// in\n    tag_359:\n        /* \"#utility.yul\":16694:16696   */\n      0x20\n        /* \"#utility.yul\":16689:16692   */\n      dup3\n        /* \"#utility.yul\":16685:16697   */\n      add\n        /* \"#utility.yul\":16678:16697   */\n      swap2\n      pop\n        /* \"#utility.yul\":16714:16809   */\n      tag_360\n        /* \"#utility.yul\":16805:16808   */\n      dup3\n        /* \"#utility.yul\":16796:16802   */\n      dup9\n        /* \"#utility.yul\":16714:16809   */\n      tag_171\n      jump\t// in\n    tag_360:\n        /* \"#utility.yul\":16707:16809   */\n      swap2\n      pop\n        /* \"#utility.yul\":16819:16894   */\n      tag_361\n        /* \"#utility.yul\":16890:16893   */\n      dup3\n        /* \"#utility.yul\":16881:16887   */\n      dup8\n        /* \"#utility.yul\":16819:16894   */\n      tag_175\n      jump\t// in\n    tag_361:\n        /* \"#utility.yul\":16919:16921   */\n      0x14\n        /* \"#utility.yul\":16914:16917   */\n      dup3\n        /* \"#utility.yul\":16910:16922   */\n      add\n        /* \"#utility.yul\":16903:16922   */\n      swap2\n      pop\n        /* \"#utility.yul\":16932:17007   */\n      tag_362\n        /* \"#utility.yul\":17003:17006   */\n      dup3\n        /* \"#utility.yul\":16994:17000   */\n      dup7\n        /* \"#utility.yul\":16932:17007   */\n      tag_175\n      jump\t// in\n    tag_362:\n        /* \"#utility.yul\":17032:17034   */\n      0x14\n        /* \"#utility.yul\":17027:17030   */\n      dup3\n        /* \"#utility.yul\":17023:17035   */\n      add\n        /* \"#utility.yul\":17016:17035   */\n      swap2\n      pop\n        /* \"#utility.yul\":17045:17120   */\n      tag_363\n        /* \"#utility.yul\":17116:17119   */\n      dup3\n        /* \"#utility.yul\":17107:17113   */\n      dup6\n        /* \"#utility.yul\":17045:17120   */\n      tag_169\n      jump\t// in\n    tag_363:\n        /* \"#utility.yul\":17145:17147   */\n      0x20\n        /* \"#utility.yul\":17140:17143   */\n      dup3\n        /* \"#utility.yul\":17136:17148   */\n      add\n        /* \"#utility.yul\":17129:17148   */\n      swap2\n      pop\n        /* \"#utility.yul\":17158:17233   */\n      tag_364\n        /* \"#utility.yul\":17229:17232   */\n      dup3\n        /* \"#utility.yul\":17220:17226   */\n      dup5\n        /* \"#utility.yul\":17158:17233   */\n      tag_169\n      jump\t// in\n    tag_364:\n        /* \"#utility.yul\":17258:17260   */\n      0x20\n        /* \"#utility.yul\":17253:17256   */\n      dup3\n        /* \"#utility.yul\":17249:17261   */\n      add\n        /* \"#utility.yul\":17242:17261   */\n      swap2\n      pop\n        /* \"#utility.yul\":17278:17281   */\n      dup2\n        /* \"#utility.yul\":17271:17281   */\n      swap1\n      pop\n        /* \"#utility.yul\":16307:17287   */\n      swap8\n      swap7\n      pop\n      pop\n      pop\n      pop\n      pop\n      pop\n      pop\n      jump\t// out\n        /* \"#utility.yul\":17293:17474   */\n    tag_176:\n        /* \"#utility.yul\":17433:17466   */\n      0x50617274697461206469204c6174746520676961272070726573656e74652100\n        /* \"#utility.yul\":17429:17430   */\n      0x00\n        /* \"#utility.yul\":17421:17427   */\n      dup3\n        /* \"#utility.yul\":17417:17431   */\n      add\n        /* \"#utility.yul\":17410:17467   */\n      mstore\n        /* \"#utility.yul\":17293:17474   */\n      pop\n      jump\t// out\n        /* \"#utility.yul\":17480:17846   */\n    tag_177:\n        /* \"#utility.yul\":17622:17625   */\n      0x00\n        /* \"#utility.yul\":17643:17710   */\n      tag_367\n        /* \"#utility.yul\":17707:17709   */\n      0x1f\n        /* \"#utility.yul\":17702:17705   */\n      dup4\n        /* \"#utility.yul\":17643:17710   */\n      tag_141\n      jump\t// in\n    tag_367:\n        /* \"#utility.yul\":17636:17710   */\n      swap2\n      pop\n        /* \"#utility.yul\":17719:17812   */\n      tag_368\n        /* \"#utility.yul\":17808:17811   */\n      dup3\n        /* \"#utility.yul\":17719:17812   */\n      tag_176\n      jump\t// in\n    tag_368:\n        /* \"#utility.yul\":17837:17839   */\n      0x20\n        /* \"#utility.yul\":17832:17835   */\n      dup3\n        /* \"#utility.yul\":17828:17840   */\n      add\n        /* \"#utility.yul\":17821:17840   */\n      swap1\n      pop\n        /* \"#utility.yul\":17480:17846   */\n      swap2\n      swap1\n      pop\n      jump\t// out\n        /* \"#utility.yul\":17852:18271   */\n    tag_104:\n        /* \"#utility.yul\":18018:18022   */\n      0x00\n        /* \"#utility.yul\":18056:18058   */\n      0x20\n        /* \"#utility.yul\":18045:18054   */\n      dup3\n        /* \"#utility.yul\":18041:18059   */\n      add\n        /* \"#utility.yul\":18033:18059   */\n      swap1\n      pop\n        /* \"#utility.yul\":18105:18114   */\n      dup2\n        /* \"#utility.yul\":18099:18103   */\n      dup2\n        /* \"#utility.yul\":18095:18115   */\n      sub\n        /* \"#utility.yul\":18091:18092   */\n      0x00\n        /* \"#utility.yul\":18080:18089   */\n      dup4\n        /* \"#utility.yul\":18076:18093   */\n      add\n        /* \"#utility.yul\":18069:18116   */\n      mstore\n        /* \"#utility.yul\":18133:18264   */\n      tag_370\n        /* \"#utility.yul\":18259:18263   */\n      dup2\n        /* \"#utility.yul\":18133:18264   */\n      tag_177\n      jump\t// in\n    tag_370:\n        /* \"#utility.yul\":18125:18264   */\n      swap1\n      pop\n        /* \"#utility.yul\":17852:18271   */\n      swap2\n      swap1\n      pop\n      jump\t// out\n        /* \"#utility.yul\":18277:18418   */\n    tag_178:\n        /* \"#utility.yul\":18326:18330   */\n      0x00\n        /* \"#utility.yul\":18349:18352   */\n      dup2\n        /* \"#utility.yul\":18341:18352   */\n      swap1\n      pop\n        /* \"#utility.yul\":18372:18375   */\n      dup2\n        /* \"#utility.yul\":18369:18370   */\n      0x00\n        /* \"#utility.yul\":18362:18376   */\n      mstore\n        /* \"#utility.yul\":18406:18410   */\n      0x20\n        /* \"#utility.yul\":18403:18404   */\n      0x00\n        /* \"#utility.yul\":18393:18411   */\n      keccak256\n        /* \"#utility.yul\":18385:18411   */\n      swap1\n      pop\n        /* \"#utility.yul\":18277:18418   */\n      swap2\n      swap1\n      pop\n      jump\t// out\n        /* \"#utility.yul\":18424:18517   */\n    tag_179:\n        /* \"#utility.yul\":18461:18467   */\n      0x00\n        /* \"#utility.yul\":18508:18510   */\n      0x20\n        /* \"#utility.yul\":18503:18505   */\n      0x1f\n        /* \"#utility.yul\":18496:18501   */\n      dup4\n        /* \"#utility.yul\":18492:18506   */\n      add\n        /* \"#utility.yul\":18488:18511   */\n      div\n        /* \"#utility.yul\":18478:18511   */\n      swap1\n      pop\n        /* \"#utility.yul\":18424:18517   */\n      swap2\n      swap1\n      pop\n      jump\t// out\n        /* \"#utility.yul\":18523:18630   */\n    tag_180:\n        /* \"#utility.yul\":18567:18575   */\n      0x00\n        /* \"#utility.yul\":18617:18622   */\n      dup3\n        /* \"#utility.yul\":18611:18615   */\n      dup3\n        /* \"#utility.yul\":18607:18623   */\n      shl\n        /* \"#utility.yul\":18586:18623   */\n      swap1\n      pop\n        /* \"#utility.yul\":18523:18630   */\n      swap3\n      swap2\n      pop\n      pop\n      jump\t// out\n        /* \"#utility.yul\":18636:19029   */\n    tag_181:\n        /* \"#utility.yul\":18705:18711   */\n      0x00\n        /* \"#utility.yul\":18755:18756   */\n      0x08\n        /* \"#utility.yul\":18743:18753   */\n      dup4\n        /* \"#utility.yul\":18739:18757   */\n      mul\n        /* \"#utility.yul\":18778:18875   */\n      tag_375\n        /* \"#utility.yul\":18808:18874   */\n      0xffffffffffffffffffffffffffffffffffffffffffffffffffffffffffffffff\n        /* \"#utility.yul\":18797:18806   */\n      dup3\n        /* \"#utility.yul\":18778:18875   */\n      tag_180\n      jump\t// in\n    tag_375:\n        /* \"#utility.yul\":18896:18935   */\n      tag_376\n        /* \"#utility.yul\":18926:18934   */\n      dup7\n        /* \"#utility.yul\":18915:18924   */\n      dup4\n        /* \"#utility.yul\":18896:18935   */\n      tag_180\n      jump\t// in\n    tag_376:\n        /* \"#utility.yul\":18884:18935   */\n      swap6\n      pop\n        /* \"#utility.yul\":18968:18972   */\n      dup1\n        /* \"#utility.yul\":18964:18973   */\n      not\n        /* \"#utility.yul\":18957:18962   */\n      dup5\n        /* \"#utility.yul\":18953:18974   */\n      and\n        /* \"#utility.yul\":18944:18974   */\n      swap4\n      pop\n        /* \"#utility.yul\":19017:19021   */\n      dup1\n        /* \"#utility.yul\":19007:19015   */\n      dup7\n        /* \"#utility.yul\":19003:19022   */\n      and\n        /* \"#utility.yul\":18996:19001   */\n      dup5\n        /* \"#utility.yul\":18993:19023   */\n      or\n        /* \"#utility.yul\":18983:19023   */\n      swap3\n      pop\n        /* \"#utility.yul\":18712:19029   */\n      pop\n      pop\n        /* \"#utility.yul\":18636:19029   */\n      swap4\n      swap3\n      pop\n      pop\n      pop\n      jump\t// out\n        /* \"#utility.yul\":19035:19095   */\n    tag_182:\n        /* \"#utility.yul\":19063:19066   */\n      0x00\n        /* \"#utility.yul\":19084:19089   */\n      dup2\n        /* \"#utility.yul\":19077:19089   */\n      swap1\n      pop\n        /* \"#utility.yul\":19035:19095   */\n      swap2\n      swap1\n      pop\n      jump\t// out\n        /* \"#utility.yul\":19101:19243   */\n    tag_183:\n        /* \"#utility.yul\":19151:19160   */\n      0x00\n        /* \"#utility.yul\":19184:19237   */\n      tag_379\n        /* \"#utility.yul\":19202:19236   */\n      tag_380\n        /* \"#utility.yul\":19211:19235   */\n      tag_381\n        /* \"#utility.yul\":19229:19234   */\n      dup5\n        /* \"#utility.yul\":19211:19235   */\n      tag_133\n      jump\t// in\n    tag_381:\n        /* \"#utility.yul\":19202:19236   */\n      tag_182\n      jump\t// in\n    tag_380:\n        /* \"#utility.yul\":19184:19237   */\n      tag_133\n      jump\t// in\n    tag_379:\n        /* \"#utility.yul\":19171:19237   */\n      swap1\n      pop\n        /* \"#utility.yul\":19101:19243   */\n      swap2\n      swap1\n      pop\n      jump\t// out\n        /* \"#utility.yul\":19249:19324   */\n    tag_184:\n        /* \"#utility.yul\":19292:19295   */\n      0x00\n        /* \"#utility.yul\":19313:19318   */\n      dup2\n        /* \"#utility.yul\":19306:19318   */\n      swap1\n      pop\n        /* \"#utility.yul\":19249:19324   */\n      swap2\n      swap1\n      pop\n      jump\t// out\n        /* \"#utility.yul\":19330:19599   */\n    tag_185:\n        /* \"#utility.yul\":19440:19479   */\n      tag_384\n        /* \"#utility.yul\":19471:19478   */\n      dup4\n        /* \"#utility.yul\":19440:19479   */\n      tag_183\n      jump\t// in\n    tag_384:\n        /* \"#utility.yul\":19501:19592   */\n      tag_385\n        /* \"#utility.yul\":19550:19591   */\n      tag_386\n        /* \"#utility.yul\":19574:19590   */\n      dup3\n        /* \"#utility.yul\":19550:19591   */\n      tag_184\n      jump\t// in\n    tag_386:\n        /* \"#utility.yul\":19542:19548   */\n      dup5\n        /* \"#utility.yul\":19535:19539   */\n      dup5\n        /* \"#utility.yul\":19529:19540   */\n      sload\n        /* \"#utility.yul\":19501:19592   */\n      tag_181\n      jump\t// in\n    tag_385:\n        /* \"#utility.yul\":19495:19499   */\n      dup3\n        /* \"#utility.yul\":19488:19593   */\n      sstore\n        /* \"#utility.yul\":19406:19599   */\n      pop\n        /* \"#utility.yul\":19330:19599   */\n      pop\n      pop\n      pop\n      jump\t// out\n        /* \"#utility.yul\":19605:19678   */\n    tag_186:\n        /* \"#utility.yul\":19650:19653   */\n      0x00\n        /* \"#utility.yul\":19605:19678   */\n      swap1\n      jump\t// out\n        /* \"#utility.yul\":19684:19873   */\n    tag_187:\n        /* \"#utility.yul\":19761:19793   */\n      tag_389\n      tag_186\n      jump\t// in\n    tag_389:\n        /* \"#utility.yul\":19802:19867   */\n      tag_390\n        /* \"#utility.yul\":19860:19866   */\n      dup2\n        /* \"#utility.yul\":19852:19858   */\n      dup5\n        /* \"#utility.yul\":19846:19850   */\n      dup5\n        /* \"#utility.yul\":19802:19867   */\n      tag_185\n      jump\t// in\n    tag_390:\n        /* \"#utility.yul\":19737:19873   */\n      pop\n        /* \"#utility.yul\":19684:19873   */\n      pop\n      pop\n      jump\t// out\n        /* \"#utility.yul\":19879:20065   */\n    tag_188:\n        /* \"#utility.yul\":19939:20059   */\n    tag_392:\n        /* \"#utility.yul\":19956:19959   */\n      dup2\n        /* \"#utility.yul\":19949:19954   */\n      dup2\n        /* \"#utility.yul\":19946:19960   */\n      lt\n        /* \"#utility.yul\":19939:20059   */\n      iszero\n      tag_394\n      jumpi\n        /* \"#utility.yul\":20010:20049   */\n      tag_395\n        /* \"#utility.yul\":20047:20048   */\n      0x00\n        /* \"#utility.yul\":20040:20045   */\n      dup3\n        /* \"#utility.yul\":20010:20049   */\n      tag_187\n      jump\t// in\n    tag_395:\n        /* \"#utility.yul\":19983:19984   */\n      0x01\n        /* \"#utility.yul\":19976:19981   */\n      dup2\n        /* \"#utility.yul\":19972:19985   */\n      add\n        /* \"#utility.yul\":19963:19985   */\n      swap1\n      pop\n        /* \"#utility.yul\":19939:20059   */\n      jump(tag_392)\n    tag_394:\n        /* \"#utility.yul\":19879:20065   */\n      pop\n      pop\n      jump\t// out\n        /* \"#utility.yul\":20071:20614   */\n    tag_189:\n        /* \"#utility.yul\":20172:20174   */\n      0x1f\n        /* \"#utility.yul\":20167:20170   */\n      dup3\n        /* \"#utility.yul\":20164:20175   */\n      gt\n        /* \"#utility.yul\":20161:20607   */\n      iszero\n      tag_397\n      jumpi\n        /* \"#utility.yul\":20206:20244   */\n      tag_398\n        /* \"#utility.yul\":20238:20243   */\n      dup2\n        /* \"#utility.yul\":20206:20244   */\n      tag_178\n      jump\t// in\n    tag_398:\n        /* \"#utility.yul\":20290:20319   */\n      tag_399\n        /* \"#utility.yul\":20308:20318   */\n      dup5\n        /* \"#utility.yul\":20290:20319   */\n      tag_179\n      jump\t// in\n    tag_399:\n        /* \"#utility.yul\":20280:20288   */\n      dup2\n        /* \"#utility.yul\":20276:20320   */\n      add\n        /* \"#utility.yul\":20473:20475   */\n      0x20\n        /* \"#utility.yul\":20461:20471   */\n      dup6\n        /* \"#utility.yul\":20458:20476   */\n      lt\n        /* \"#utility.yul\":20455:20504   */\n      iszero\n      tag_400\n      jumpi\n        /* \"#utility.yul\":20494:20502   */\n      dup2\n        /* \"#utility.yul\":20479:20502   */\n      swap1\n      pop\n        /* \"#utility.yul\":20455:20504   */\n    tag_400:\n        /* \"#utility.yul\":20517:20597   */\n      tag_401\n        /* \"#utility.yul\":20573:20595   */\n      tag_402\n        /* \"#utility.yul\":20591:20594   */\n      dup6\n        /* \"#utility.yul\":20573:20595   */\n      tag_179\n      jump\t// in\n    tag_402:\n        /* \"#utility.yul\":20563:20571   */\n      dup4\n        /* \"#utility.yul\":20559:20596   */\n      add\n        /* \"#utility.yul\":20546:20557   */\n      dup3\n        /* \"#utility.yul\":20517:20597   */\n      tag_188\n      jump\t// in\n    tag_401:\n        /* \"#utility.yul\":20176:20607   */\n      pop\n      pop\n        /* \"#utility.yul\":20161:20607   */\n    tag_397:\n        /* \"#utility.yul\":20071:20614   */\n      pop\n      pop\n      pop\n      jump\t// out\n        /* \"#utility.yul\":20620:20737   */\n    tag_190:\n        /* \"#utility.yul\":20674:20682   */\n      0x00\n        /* \"#utility.yul\":20724:20729   */\n      dup3\n        /* \"#utility.yul\":20718:20722   */\n      dup3\n        /* \"#utility.yul\":20714:20730   */\n      shr\n        /* \"#utility.yul\":20693:20730   */\n      swap1\n      pop\n        /* \"#utility.yul\":20620:20737   */\n      swap3\n      swap2\n      pop\n      pop\n      jump\t// out\n        /* \"#utility.yul\":20743:20912   */\n    tag_191:\n        /* \"#utility.yul\":20787:20793   */\n      0x00\n        /* \"#utility.yul\":20820:20871   */\n      tag_405\n        /* \"#utility.yul\":20868:20869   */\n      0x00\n        /* \"#utility.yul\":20864:20870   */\n      not\n        /* \"#utility.yul\":20856:20861   */\n      dup5\n        /* \"#utility.yul\":20853:20854   */\n      0x08\n        /* \"#utility.yul\":20849:20862   */\n      mul\n        /* \"#utility.yul\":20820:20871   */\n      tag_190\n      jump\t// in\n    tag_405:\n        /* \"#utility.yul\":20816:20872   */\n      not\n        /* \"#utility.yul\":20901:20905   */\n      dup1\n        /* \"#utility.yul\":20895:20899   */\n      dup4\n        /* \"#utility.yul\":20891:20906   */\n      and\n        /* \"#utility.yul\":20881:20906   */\n      swap2\n      pop\n        /* \"#utility.yul\":20794:20912   */\n      pop\n        /* \"#utility.yul\":20743:20912   */\n      swap3\n      swap2\n      pop\n      pop\n      jump\t// out\n        /* \"#utility.yul\":20917:21212   */\n    tag_192:\n        /* \"#utility.yul\":20993:20997   */\n      0x00\n        /* \"#utility.yul\":21139:21168   */\n      tag_407\n        /* \"#utility.yul\":21164:21167   */\n      dup4\n        /* \"#utility.yul\":21158:21162   */\n      dup4\n        /* \"#utility.yul\":21139:21168   */\n      tag_191\n      jump\t// in\n    tag_407:\n        /* \"#utility.yul\":21131:21168   */\n      swap2\n      pop\n        /* \"#utility.yul\":21201:21204   */\n      dup3\n        /* \"#utility.yul\":21198:21199   */\n      0x02\n        /* \"#utility.yul\":21194:21205   */\n      mul\n        /* \"#utility.yul\":21188:21192   */\n      dup3\n        /* \"#utility.yul\":21185:21206   */\n      or\n        /* \"#utility.yul\":21177:21206   */\n      swap1\n      pop\n        /* \"#utility.yul\":20917:21212   */\n      swap3\n      swap2\n      pop\n      pop\n      jump\t// out\n        /* \"#utility.yul\":21217:22612   */\n    tag_106:\n        /* \"#utility.yul\":21334:21371   */\n      tag_409\n        /* \"#utility.yul\":21367:21370   */\n      dup3\n        /* \"#utility.yul\":21334:21371   */\n      tag_140\n      jump\t// in\n    tag_409:\n        /* \"#utility.yul\":21436:21454   */\n      0xffffffffffffffff\n        /* \"#utility.yul\":21428:21434   */\n      dup2\n        /* \"#utility.yul\":21425:21455   */\n      gt\n        /* \"#utility.yul\":21422:21478   */\n      iszero\n      tag_410\n      jumpi\n        /* \"#utility.yul\":21458:21476   */\n      tag_411\n      tag_154\n      jump\t// in\n    tag_411:\n        /* \"#utility.yul\":21422:21478   */\n    tag_410:\n        /* \"#utility.yul\":21502:21540   */\n      tag_412\n        /* \"#utility.yul\":21534:21538   */\n      dup3\n        /* \"#utility.yul\":21528:21539   */\n      sload\n        /* \"#utility.yul\":21502:21540   */\n      tag_75\n      jump\t// in\n    tag_412:\n        /* \"#utility.yul\":21587:21654   */\n      tag_413\n        /* \"#utility.yul\":21647:21653   */\n      dup3\n        /* \"#utility.yul\":21639:21645   */\n      dup3\n        /* \"#utility.yul\":21633:21637   */\n      dup6\n        /* \"#utility.yul\":21587:21654   */\n      tag_189\n      jump\t// in\n    tag_413:\n        /* \"#utility.yul\":21681:21682   */\n      0x00\n        /* \"#utility.yul\":21705:21709   */\n      0x20\n        /* \"#utility.yul\":21692:21709   */\n      swap1\n      pop\n        /* \"#utility.yul\":21737:21739   */\n      0x1f\n        /* \"#utility.yul\":21729:21735   */\n      dup4\n        /* \"#utility.yul\":21726:21740   */\n      gt\n        /* \"#utility.yul\":21754:21755   */\n      0x01\n        /* \"#utility.yul\":21749:22367   */\n      dup2\n      eq\n      tag_415\n      jumpi\n        /* \"#utility.yul\":22411:22412   */\n      0x00\n        /* \"#utility.yul\":22428:22434   */\n      dup5\n        /* \"#utility.yul\":22425:22502   */\n      iszero\n      tag_416\n      jumpi\n        /* \"#utility.yul\":22477:22486   */\n      dup3\n        /* \"#utility.yul\":22472:22475   */\n      dup8\n        /* \"#utility.yul\":22468:22487   */\n      add\n        /* \"#utility.yul\":22462:22488   */\n      mload\n        /* \"#utility.yul\":22453:22488   */\n      swap1\n      pop\n        /* \"#utility.yul\":22425:22502   */\n    tag_416:\n        /* \"#utility.yul\":22528:22595   */\n      tag_417\n        /* \"#utility.yul\":22588:22594   */\n      dup6\n        /* \"#utility.yul\":22581:22586   */\n      dup3\n        /* \"#utility.yul\":22528:22595   */\n      tag_192\n      jump\t// in\n    tag_417:\n        /* \"#utility.yul\":22522:22526   */\n      dup7\n        /* \"#utility.yul\":22515:22596   */\n      sstore\n        /* \"#utility.yul\":22384:22606   */\n      pop\n        /* \"#utility.yul\":21719:22606   */\n      jump(tag_414)\n        /* \"#utility.yul\":21749:22367   */\n    tag_415:\n        /* \"#utility.yul\":21801:21805   */\n      0x1f\n        /* \"#utility.yul\":21797:21806   */\n      not\n        /* \"#utility.yul\":21789:21795   */\n      dup5\n        /* \"#utility.yul\":21785:21807   */\n      and\n        /* \"#utility.yul\":21835:21872   */\n      tag_418\n        /* \"#utility.yul\":21867:21871   */\n      dup7\n        /* \"#utility.yul\":21835:21872   */\n      tag_178\n      jump\t// in\n    tag_418:\n        /* \"#utility.yul\":21894:21895   */\n      0x00\n        /* \"#utility.yul\":21908:22116   */\n    tag_419:\n        /* \"#utility.yul\":21922:21929   */\n      dup3\n        /* \"#utility.yul\":21919:21920   */\n      dup2\n        /* \"#utility.yul\":21916:21930   */\n      lt\n        /* \"#utility.yul\":21908:22116   */\n      iszero\n      tag_421\n      jumpi\n        /* \"#utility.yul\":22001:22010   */\n      dup5\n        /* \"#utility.yul\":21996:21999   */\n      dup10\n        /* \"#utility.yul\":21992:22011   */\n      add\n        /* \"#utility.yul\":21986:22012   */\n      mload\n        /* \"#utility.yul\":21978:21984   */\n      dup3\n        /* \"#utility.yul\":21971:22013   */\n      sstore\n        /* \"#utility.yul\":22052:22053   */\n      0x01\n        /* \"#utility.yul\":22044:22050   */\n      dup3\n        /* \"#utility.yul\":22040:22054   */\n      add\n        /* \"#utility.yul\":22030:22054   */\n      swap2\n      pop\n        /* \"#utility.yul\":22099:22101   */\n      0x20\n        /* \"#utility.yul\":22088:22097   */\n      dup6\n        /* \"#utility.yul\":22084:22102   */\n      add\n        /* \"#utility.yul\":22071:22102   */\n      swap5\n      pop\n        /* \"#utility.yul\":21945:21949   */\n      0x20\n        /* \"#utility.yul\":21942:21943   */\n      dup2\n        /* \"#utility.yul\":21938:21950   */\n      add\n        /* \"#utility.yul\":21933:21950   */\n      swap1\n      pop\n        /* \"#utility.yul\":21908:22116   */\n      jump(tag_419)\n    tag_421:\n        /* \"#utility.yul\":22144:22150   */\n      dup7\n        /* \"#utility.yul\":22135:22142   */\n      dup4\n        /* \"#utility.yul\":22132:22151   */\n      lt\n        /* \"#utility.yul\":22129:22308   */\n      iszero\n      tag_422\n      jumpi\n        /* \"#utility.yul\":22202:22211   */\n      dup5\n        /* \"#utility.yul\":22197:22200   */\n      dup10\n        /* \"#utility.yul\":22193:22212   */\n      add\n        /* \"#utility.yul\":22187:22213   */\n      mload\n        /* \"#utility.yul\":22245:22293   */\n      tag_423\n        /* \"#utility.yul\":22287:22291   */\n      0x1f\n        /* \"#utility.yul\":22279:22285   */\n      dup10\n        /* \"#utility.yul\":22275:22292   */\n      and\n        /* \"#utility.yul\":22264:22273   */\n      dup3\n        /* \"#utility.yul\":22245:22293   */\n      tag_191\n      jump\t// in\n    tag_423:\n        /* \"#utility.yul\":22237:22243   */\n      dup4\n        /* \"#utility.yul\":22230:22294   */\n      sstore\n        /* \"#utility.yul\":22152:22308   */\n      pop\n        /* \"#utility.yul\":22129:22308   */\n    tag_422:\n        /* \"#utility.yul\":22354:22355   */\n      0x01\n        /* \"#utility.yul\":22350:22351   */\n      0x02\n        /* \"#utility.yul\":22342:22348   */\n      dup9\n        /* \"#utility.yul\":22338:22352   */\n      mul\n        /* \"#utility.yul\":22334:22356   */\n      add\n        /* \"#utility.yul\":22328:22332   */\n      dup9\n        /* \"#utility.yul\":22321:22357   */\n      sstore\n        /* \"#utility.yul\":21756:22367   */\n      pop\n      pop\n      pop\n        /* \"#utility.yul\":21719:22606   */\n    tag_414:\n      pop\n        /* \"#utility.yul\":21309:22612   */\n      pop\n      pop\n      pop\n        /* \"#utility.yul\":21217:22612   */\n      pop\n      pop\n      jump\t// out\n        /* \"#utility.yul\":22618:22788   */\n    tag_193:\n        /* \"#utility.yul\":22758:22780   */\n      0x494420436865657365204e6f742056616c696421000000000000000000000000\n        /* \"#utility.yul\":22754:22755   */\n      0x00\n        /* \"#utility.yul\":22746:22752   */\n      dup3\n        /* \"#utility.yul\":22742:22756   */\n      add\n        /* \"#utility.yul\":22735:22781   */\n      mstore\n        /* \"#utility.yul\":22618:22788   */\n      pop\n      jump\t// out\n        /* \"#utility.yul\":22794:23160   */\n    tag_194:\n        /* \"#utility.yul\":22936:22939   */\n      0x00\n        /* \"#utility.yul\":22957:23024   */\n      tag_426\n        /* \"#utility.yul\":23021:23023   */\n      0x14\n        /* \"#utility.yul\":23016:23019   */\n      dup4\n        /* \"#utility.yul\":22957:23024   */\n      tag_141\n      jump\t// in\n    tag_426:\n        /* \"#utility.yul\":22950:23024   */\n      swap2\n      pop\n        /* \"#utility.yul\":23033:23126   */\n      tag_427\n        /* \"#utility.yul\":23122:23125   */\n      dup3\n        /* \"#utility.yul\":23033:23126   */\n      tag_193\n      jump\t// in\n    tag_427:\n        /* \"#utility.yul\":23151:23153   */\n      0x20\n        /* \"#utility.yul\":23146:23149   */\n      dup3\n        /* \"#utility.yul\":23142:23154   */\n      add\n        /* \"#utility.yul\":23135:23154   */\n      swap1\n      pop\n        /* \"#utility.yul\":22794:23160   */\n      swap2\n      swap1\n      pop\n      jump\t// out\n        /* \"#utility.yul\":23166:23585   */\n    tag_119:\n        /* \"#utility.yul\":23332:23336   */\n      0x00\n        /* \"#utility.yul\":23370:23372   */\n      0x20\n        /* \"#utility.yul\":23359:23368   */\n      dup3\n        /* \"#utility.yul\":23355:23373   */\n      add\n        /* \"#utility.yul\":23347:23373   */\n      swap1\n      pop\n        /* \"#utility.yul\":23419:23428   */\n      dup2\n        /* \"#utility.yul\":23413:23417   */\n      dup2\n        /* \"#utility.yul\":23409:23429   */\n      sub\n        /* \"#utility.yul\":23405:23406   */\n      0x00\n        /* \"#utility.yul\":23394:23403   */\n      dup4\n        /* \"#utility.yul\":23390:23407   */\n      add\n        /* \"#utility.yul\":23383:23430   */\n      mstore\n        /* \"#utility.yul\":23447:23578   */\n      tag_429\n        /* \"#utility.yul\":23573:23577   */\n      dup2\n        /* \"#utility.yul\":23447:23578   */\n      tag_194\n      jump\t// in\n    tag_429:\n        /* \"#utility.yul\":23439:23578   */\n      swap1\n      pop\n        /* \"#utility.yul\":23166:23585   */\n      swap2\n      swap1\n      pop\n      jump\t// out\n\n    auxdata: 0xa2646970667358221220c4bd3beaca86126be125c611dacc96276845f969fa0d73fe17ebd15ef9d979d264736f6c63430008160033\n}\n",
				"bytecode": {
					"linkReferences": {},
					"object": "608060405234801561000f575f80fd5b50335f806101000a81548173ffffffffffffffffffffffffffffffffffffffff021916908373ffffffffffffffffffffffffffffffffffffffff160217905550611af88061005c5f395ff3fe608060405234801561000f575f80fd5b50600436106100a7575f3560e01c80637745770a1161006f5780637745770a1461018a5780638b3c04ce146101ba578063c5d3e11d146101ec578063cc2317261461021c578063cfa41ed01461024c578063f93bd0211461027c576100a7565b80630803da24146100ab5780631e073fcf146100db578063453ecf041461010b5780636fb82e0614610127578063738533ae1461015a575b5f80fd5b6100c560048036038101906100c09190610fbf565b6102ac565b6040516100d29190611029565b60405180910390f35b6100f560048036038101906100f09190611042565b61034f565b604051610102919061108f565b60405180910390f35b61012560048036038101906101209190610fbf565b6104ba565b005b610141600480360381019061013c9190611042565b6105a5565b6040516101519493929190611141565b60405180910390f35b610174600480360381019061016f919061118b565b61072b565b604051610181919061126d565b60405180910390f35b6101a4600480360381019061019f9190610fbf565b6107be565b6040516101b19190611029565b60405180910390f35b6101d460048036038101906101cf91906113b9565b6108f1565b6040516101e39392919061144c565b60405180910390f35b61020660048036038101906102019190611042565b610b4a565b604051610213919061108f565b60405180910390f35b61023660048036038101906102319190611042565b610ba2565b6040516102439190611488565b60405180910390f35b61026660048036038101906102619190611042565b610d0d565b6040516102739190611029565b60405180910390f35b61029660048036038101906102919190611042565b610db5565b6040516102a391906114a1565b60405180910390f35b5f8060015f8673ffffffffffffffffffffffffffffffffffffffff1673ffffffffffffffffffffffffffffffffffffffff1681526020019081526020015f205f8581526020019081526020015f2090508281600401541015610343576040517f08c379a000000000000000000000000000000000000000000000000000000000815260040161033a9061150b565b60405180910390fd5b60019150509392505050565b5f8060015f8573ffffffffffffffffffffffffffffffffffffffff1673ffffffffffffffffffffffffffffffffffffffff1681526020019081526020015f205f8481526020019081526020015f206040518060a00160405290815f820154815260200160018201548152602001600282015f9054906101000a900473ffffffffffffffffffffffffffffffffffffffff1673ffffffffffffffffffffffffffffffffffffffff1673ffffffffffffffffffffffffffffffffffffffff16815260200160038201805461042090611556565b80601f016020809104026020016040519081016040528092919081815260200182805461044c90611556565b80156104975780601f1061046e57610100808354040283529160200191610497565b820191905f5260205f20905b81548152906001019060200180831161047a57829003601f168201915b505050505081526020016004820154815250509050806080015191505092915050565b60015f8473ffffffffffffffffffffffffffffffffffffffff1673ffffffffffffffffffffffffffffffffffffffff1681526020019081526020015f205f8381526020019081526020015f206004015481111561054c576040517f08c379a0000000000000000000000000000000000000000000000000000000008152600401610543906115f6565b60405180910390fd5b8060015f8573ffffffffffffffffffffffffffffffffffffffff1673ffffffffffffffffffffffffffffffffffffffff1681526020019081526020015f205f8481526020019081526020015f2060040181905550505050565b5f8060605f8060015f8873ffffffffffffffffffffffffffffffffffffffff1673ffffffffffffffffffffffffffffffffffffffff1681526020019081526020015f205f8781526020019081526020015f206040518060a00160405290815f820154815260200160018201548152602001600282015f9054906101000a900473ffffffffffffffffffffffffffffffffffffffff1673ffffffffffffffffffffffffffffffffffffffff1673ffffffffffffffffffffffffffffffffffffffff16815260200160038201805461067a90611556565b80601f01602080910402602001604051908101604052809291908181526020018280546106a690611556565b80156106f15780601f106106c8576101008083540402835291602001916106f1565b820191905f5260205f20905b8154815290600101906020018083116106d457829003601f168201915b505050505081526020016004820154815250509050805f015181604001518260600151836080015194509450945094505092959194509250565b606060025f8373ffffffffffffffffffffffffffffffffffffffff1673ffffffffffffffffffffffffffffffffffffffff1681526020019081526020015f208054806020026020016040519081016040528092919081815260200182805480156107b257602002820191905f5260205f20905b81548152602001906001019080831161079e575b50505050509050919050565b5f8260015f8673ffffffffffffffffffffffffffffffffffffffff1673ffffffffffffffffffffffffffffffffffffffff1681526020019081526020015f205f8581526020019081526020015f205f01541461084f576040517f08c379a00000000000000000000000000000000000000000000000000000000081526004016108469061165e565b60405180910390fd5b5f60015f8673ffffffffffffffffffffffffffffffffffffffff1673ffffffffffffffffffffffffffffffffffffffff1681526020019081526020015f205f8581526020019081526020015f20905082816004015410156108e5576040517f08c379a00000000000000000000000000000000000000000000000000000000081526004016108dc9061150b565b60405180910390fd5b60019150509392505050565b5f60605f8084868a8a8a426040516020016109119695949392919061171b565b604051602081830303815290604052805190602001205f1c90505f60015f8b73ffffffffffffffffffffffffffffffffffffffff1673ffffffffffffffffffffffffffffffffffffffff1681526020019081526020015f205f8381526020019081526020015f2090505f815f0154146109bf576040517f08c379a00000000000000000000000000000000000000000000000000000000081526004016109b6906117d0565b60405180910390fd5b5f6040518060a001604052808481526020018a81526020018b73ffffffffffffffffffffffffffffffffffffffff1681526020018981526020018881525090508060015f8d73ffffffffffffffffffffffffffffffffffffffff1673ffffffffffffffffffffffffffffffffffffffff1681526020019081526020015f205f8581526020019081526020015f205f820151815f0155602082015181600101556040820151816002015f6101000a81548173ffffffffffffffffffffffffffffffffffffffff021916908373ffffffffffffffffffffffffffffffffffffffff1602179055506060820151816003019081610ab9919061198b565b506080820151816004015590505060025f8c73ffffffffffffffffffffffffffffffffffffffff1673ffffffffffffffffffffffffffffffffffffffff1681526020019081526020015f2083908060018154018082558091505060019003905f5260205f20015f9091909190915055805f015181606001518260800151955095509550505050955095509592505050565b5f60015f8473ffffffffffffffffffffffffffffffffffffffff1673ffffffffffffffffffffffffffffffffffffffff1681526020019081526020015f205f8381526020019081526020015f205f0154905092915050565b5f8060015f8573ffffffffffffffffffffffffffffffffffffffff1673ffffffffffffffffffffffffffffffffffffffff1681526020019081526020015f205f8481526020019081526020015f206040518060a00160405290815f820154815260200160018201548152602001600282015f9054906101000a900473ffffffffffffffffffffffffffffffffffffffff1673ffffffffffffffffffffffffffffffffffffffff1673ffffffffffffffffffffffffffffffffffffffff168152602001600382018054610c7390611556565b80601f0160208091040260200160405190810160405280929190818152602001828054610c9f90611556565b8015610cea5780601f10610cc157610100808354040283529160200191610cea565b820191905f5260205f20905b815481529060010190602001808311610ccd57829003601f168201915b505050505081526020016004820154815250509050806040015191505092915050565b5f808214158015610d1d57505f82115b610d5c576040517f08c379a0000000000000000000000000000000000000000000000000000000008152600401610d5390611aa4565b60405180910390fd5b8160015f8573ffffffffffffffffffffffffffffffffffffffff1673ffffffffffffffffffffffffffffffffffffffff1681526020019081526020015f205f8481526020019081526020015f205f015414905092915050565b60605f60015f8573ffffffffffffffffffffffffffffffffffffffff1673ffffffffffffffffffffffffffffffffffffffff1681526020019081526020015f205f8481526020019081526020015f206040518060a00160405290815f820154815260200160018201548152602001600282015f9054906101000a900473ffffffffffffffffffffffffffffffffffffffff1673ffffffffffffffffffffffffffffffffffffffff1673ffffffffffffffffffffffffffffffffffffffff168152602001600382018054610e8790611556565b80601f0160208091040260200160405190810160405280929190818152602001828054610eb390611556565b8015610efe5780601f10610ed557610100808354040283529160200191610efe565b820191905f5260205f20905b815481529060010190602001808311610ee157829003601f168201915b505050505081526020016004820154815250509050806060015191505092915050565b5f604051905090565b5f80fd5b5f80fd5b5f73ffffffffffffffffffffffffffffffffffffffff82169050919050565b5f610f5b82610f32565b9050919050565b610f6b81610f51565b8114610f75575f80fd5b50565b5f81359050610f8681610f62565b92915050565b5f819050919050565b610f9e81610f8c565b8114610fa8575f80fd5b50565b5f81359050610fb981610f95565b92915050565b5f805f60608486031215610fd657610fd5610f2a565b5b5f610fe386828701610f78565b9350506020610ff486828701610fab565b925050604061100586828701610fab565b9150509250925092565b5f8115159050919050565b6110238161100f565b82525050565b5f60208201905061103c5f83018461101a565b92915050565b5f806040838503121561105857611057610f2a565b5b5f61106585828601610f78565b925050602061107685828601610fab565b9150509250929050565b61108981610f8c565b82525050565b5f6020820190506110a25f830184611080565b92915050565b6110b181610f51565b82525050565b5f81519050919050565b5f82825260208201905092915050565b5f5b838110156110ee5780820151818401526020810190506110d3565b5f8484015250505050565b5f601f19601f8301169050919050565b5f611113826110b7565b61111d81856110c1565b935061112d8185602086016110d1565b611136816110f9565b840191505092915050565b5f6080820190506111545f830187611080565b61116160208301866110a8565b81810360408301526111738185611109565b90506111826060830184611080565b95945050505050565b5f602082840312156111a05761119f610f2a565b5b5f6111ad84828501610f78565b91505092915050565b5f81519050919050565b5f82825260208201905092915050565b5f819050602082019050919050565b6111e881610f8c565b82525050565b5f6111f983836111df565b60208301905092915050565b5f602082019050919050565b5f61121b826111b6565b61122581856111c0565b9350611230836111d0565b805f5b8381101561126057815161124788826111ee565b975061125283611205565b925050600181019050611233565b5085935050505092915050565b5f6020820190508181035f8301526112858184611211565b905092915050565b5f80fd5b5f80fd5b7f4e487b71000000000000000000000000000000000000000000000000000000005f52604160045260245ffd5b6112cb826110f9565b810181811067ffffffffffffffff821117156112ea576112e9611295565b5b80604052505050565b5f6112fc610f21565b905061130882826112c2565b919050565b5f67ffffffffffffffff82111561132757611326611295565b5b611330826110f9565b9050602081019050919050565b828183375f83830152505050565b5f61135d6113588461130d565b6112f3565b90508281526020810184848401111561137957611378611291565b5b61138484828561133d565b509392505050565b5f82601f8301126113a05761139f61128d565b5b81356113b084826020860161134b565b91505092915050565b5f805f805f60a086880312156113d2576113d1610f2a565b5b5f6113df88828901610f78565b95505060206113f088828901610f78565b945050604061140188828901610fab565b935050606086013567ffffffffffffffff81111561142257611421610f2e565b5b61142e8882890161138c565b925050608061143f88828901610fab565b9150509295509295909350565b5f60608201905061145f5f830186611080565b81810360208301526114718185611109565b90506114806040830184611080565b949350505050565b5f60208201905061149b5f8301846110a8565b92915050565b5f6020820190508181035f8301526114b98184611109565b905092915050565b7f5175616e74697479206e6f742056616c696421000000000000000000000000005f82015250565b5f6114f56013836110c1565b9150611500826114c1565b602082019050919050565b5f6020820190508181035f830152611522816114e9565b9050919050565b7f4e487b71000000000000000000000000000000000000000000000000000000005f52602260045260245ffd5b5f600282049050600182168061156d57607f821691505b6020821081036115805761157f611529565b5b50919050565b7f436f6e74726f6c6c6f2064656c6c61205175616e7469746127206461207574695f8201527f6c697a7a617265206e6f6e20616e6461746120612062756f6e2066696e652100602082015250565b5f6115e0603f836110c1565b91506115eb82611586565b604082019050919050565b5f6020820190508181035f83015261160d816115d4565b9050919050565b7f50617274697461206469204c61747465206e6f6e2070726573656e74652100005f82015250565b5f611648601e836110c1565b915061165382611614565b602082019050919050565b5f6020820190508181035f8301526116758161163c565b9050919050565b5f819050919050565b61169661169182610f8c565b61167c565b82525050565b5f81905092915050565b5f6116b0826110b7565b6116ba818561169c565b93506116ca8185602086016110d1565b80840191505092915050565b5f8160601b9050919050565b5f6116ec826116d6565b9050919050565b5f6116fd826116e2565b9050919050565b61171561171082610f51565b6116f3565b82525050565b5f6117268289611685565b60208201915061173682886116a6565b91506117428287611704565b6014820191506117528286611704565b6014820191506117628285611685565b6020820191506117728284611685565b602082019150819050979650505050505050565b7f50617274697461206469204c6174746520676961272070726573656e746521005f82015250565b5f6117ba601f836110c1565b91506117c582611786565b602082019050919050565b5f6020820190508181035f8301526117e7816117ae565b9050919050565b5f819050815f5260205f209050919050565b5f6020601f8301049050919050565b5f82821b905092915050565b5f6008830261184a7fffffffffffffffffffffffffffffffffffffffffffffffffffffffffffffffff8261180f565b611854868361180f565b95508019841693508086168417925050509392505050565b5f819050919050565b5f61188f61188a61188584610f8c565b61186c565b610f8c565b9050919050565b5f819050919050565b6118a883611875565b6118bc6118b482611896565b84845461181b565b825550505050565b5f90565b6118d06118c4565b6118db81848461189f565b505050565b5b818110156118fe576118f35f826118c8565b6001810190506118e1565b5050565b601f82111561194357611914816117ee565b61191d84611800565b8101602085101561192c578190505b61194061193885611800565b8301826118e0565b50505b505050565b5f82821c905092915050565b5f6119635f1984600802611948565b1980831691505092915050565b5f61197b8383611954565b9150826002028217905092915050565b611994826110b7565b67ffffffffffffffff8111156119ad576119ac611295565b5b6119b78254611556565b6119c2828285611902565b5f60209050601f8311600181146119f3575f84156119e1578287015190505b6119eb8582611970565b865550611a52565b601f198416611a01866117ee565b5f5b82811015611a2857848901518255600182019150602085019450602081019050611a03565b86831015611a455784890151611a41601f891682611954565b8355505b6001600288020188555050505b505050505050565b7f494420436865657365204e6f742056616c6964210000000000000000000000005f82015250565b5f611a8e6014836110c1565b9150611a9982611a5a565b602082019050919050565b5f6020820190508181035f830152611abb81611a82565b905091905056fea2646970667358221220c4bd3beaca86126be125c611dacc96276845f969fa0d73fe17ebd15ef9d979d264736f6c63430008160033",
					"opcodes": "PUSH1 0x80 PUSH1 0x40 MSTORE CALLVALUE DUP1 ISZERO PUSH2 0xF JUMPI PUSH0 DUP1 REVERT JUMPDEST POP CALLER PUSH0 DUP1 PUSH2 0x100 EXP DUP2 SLOAD DUP2 PUSH20 0xFFFFFFFFFFFFFFFFFFFFFFFFFFFFFFFFFFFFFFFF MUL NOT AND SWAP1 DUP4 PUSH20 0xFFFFFFFFFFFFFFFFFFFFFFFFFFFFFFFFFFFFFFFF AND MUL OR SWAP1 SSTORE POP PUSH2 0x1AF8 DUP1 PUSH2 0x5C PUSH0 CODECOPY PUSH0 RETURN INVALID PUSH1 0x80 PUSH1 0x40 MSTORE CALLVALUE DUP1 ISZERO PUSH2 0xF JUMPI PUSH0 DUP1 REVERT JUMPDEST POP PUSH1 0x4 CALLDATASIZE LT PUSH2 0xA7 JUMPI PUSH0 CALLDATALOAD PUSH1 0xE0 SHR DUP1 PUSH4 0x7745770A GT PUSH2 0x6F JUMPI DUP1 PUSH4 0x7745770A EQ PUSH2 0x18A JUMPI DUP1 PUSH4 0x8B3C04CE EQ PUSH2 0x1BA JUMPI DUP1 PUSH4 0xC5D3E11D EQ PUSH2 0x1EC JUMPI DUP1 PUSH4 0xCC231726 EQ PUSH2 0x21C JUMPI DUP1 PUSH4 0xCFA41ED0 EQ PUSH2 0x24C JUMPI DUP1 PUSH4 0xF93BD021 EQ PUSH2 0x27C JUMPI PUSH2 0xA7 JUMP JUMPDEST DUP1 PUSH4 0x803DA24 EQ PUSH2 0xAB JUMPI DUP1 PUSH4 0x1E073FCF EQ PUSH2 0xDB JUMPI DUP1 PUSH4 0x453ECF04 EQ PUSH2 0x10B JUMPI DUP1 PUSH4 0x6FB82E06 EQ PUSH2 0x127 JUMPI DUP1 PUSH4 0x738533AE EQ PUSH2 0x15A JUMPI JUMPDEST PUSH0 DUP1 REVERT JUMPDEST PUSH2 0xC5 PUSH1 0x4 DUP1 CALLDATASIZE SUB DUP2 ADD SWAP1 PUSH2 0xC0 SWAP2 SWAP1 PUSH2 0xFBF JUMP JUMPDEST PUSH2 0x2AC JUMP JUMPDEST PUSH1 0x40 MLOAD PUSH2 0xD2 SWAP2 SWAP1 PUSH2 0x1029 JUMP JUMPDEST PUSH1 0x40 MLOAD DUP1 SWAP2 SUB SWAP1 RETURN JUMPDEST PUSH2 0xF5 PUSH1 0x4 DUP1 CALLDATASIZE SUB DUP2 ADD SWAP1 PUSH2 0xF0 SWAP2 SWAP1 PUSH2 0x1042 JUMP JUMPDEST PUSH2 0x34F JUMP JUMPDEST PUSH1 0x40 MLOAD PUSH2 0x102 SWAP2 SWAP1 PUSH2 0x108F JUMP JUMPDEST PUSH1 0x40 MLOAD DUP1 SWAP2 SUB SWAP1 RETURN JUMPDEST PUSH2 0x125 PUSH1 0x4 DUP1 CALLDATASIZE SUB DUP2 ADD SWAP1 PUSH2 0x120 SWAP2 SWAP1 PUSH2 0xFBF JUMP JUMPDEST PUSH2 0x4BA JUMP JUMPDEST STOP JUMPDEST PUSH2 0x141 PUSH1 0x4 DUP1 CALLDATASIZE SUB DUP2 ADD SWAP1 PUSH2 0x13C SWAP2 SWAP1 PUSH2 0x1042 JUMP JUMPDEST PUSH2 0x5A5 JUMP JUMPDEST PUSH1 0x40 MLOAD PUSH2 0x151 SWAP5 SWAP4 SWAP3 SWAP2 SWAP1 PUSH2 0x1141 JUMP JUMPDEST PUSH1 0x40 MLOAD DUP1 SWAP2 SUB SWAP1 RETURN JUMPDEST PUSH2 0x174 PUSH1 0x4 DUP1 CALLDATASIZE SUB DUP2 ADD SWAP1 PUSH2 0x16F SWAP2 SWAP1 PUSH2 0x118B JUMP JUMPDEST PUSH2 0x72B JUMP JUMPDEST PUSH1 0x40 MLOAD PUSH2 0x181 SWAP2 SWAP1 PUSH2 0x126D JUMP JUMPDEST PUSH1 0x40 MLOAD DUP1 SWAP2 SUB SWAP1 RETURN JUMPDEST PUSH2 0x1A4 PUSH1 0x4 DUP1 CALLDATASIZE SUB DUP2 ADD SWAP1 PUSH2 0x19F SWAP2 SWAP1 PUSH2 0xFBF JUMP JUMPDEST PUSH2 0x7BE JUMP JUMPDEST PUSH1 0x40 MLOAD PUSH2 0x1B1 SWAP2 SWAP1 PUSH2 0x1029 JUMP JUMPDEST PUSH1 0x40 MLOAD DUP1 SWAP2 SUB SWAP1 RETURN JUMPDEST PUSH2 0x1D4 PUSH1 0x4 DUP1 CALLDATASIZE SUB DUP2 ADD SWAP1 PUSH2 0x1CF SWAP2 SWAP1 PUSH2 0x13B9 JUMP JUMPDEST PUSH2 0x8F1 JUMP JUMPDEST PUSH1 0x40 MLOAD PUSH2 0x1E3 SWAP4 SWAP3 SWAP2 SWAP1 PUSH2 0x144C JUMP JUMPDEST PUSH1 0x40 MLOAD DUP1 SWAP2 SUB SWAP1 RETURN JUMPDEST PUSH2 0x206 PUSH1 0x4 DUP1 CALLDATASIZE SUB DUP2 ADD SWAP1 PUSH2 0x201 SWAP2 SWAP1 PUSH2 0x1042 JUMP JUMPDEST PUSH2 0xB4A JUMP JUMPDEST PUSH1 0x40 MLOAD PUSH2 0x213 SWAP2 SWAP1 PUSH2 0x108F JUMP JUMPDEST PUSH1 0x40 MLOAD DUP1 SWAP2 SUB SWAP1 RETURN JUMPDEST PUSH2 0x236 PUSH1 0x4 DUP1 CALLDATASIZE SUB DUP2 ADD SWAP1 PUSH2 0x231 SWAP2 SWAP1 PUSH2 0x1042 JUMP JUMPDEST PUSH2 0xBA2 JUMP JUMPDEST PUSH1 0x40 MLOAD PUSH2 0x243 SWAP2 SWAP1 PUSH2 0x1488 JUMP JUMPDEST PUSH1 0x40 MLOAD DUP1 SWAP2 SUB SWAP1 RETURN JUMPDEST PUSH2 0x266 PUSH1 0x4 DUP1 CALLDATASIZE SUB DUP2 ADD SWAP1 PUSH2 0x261 SWAP2 SWAP1 PUSH2 0x1042 JUMP JUMPDEST PUSH2 0xD0D JUMP JUMPDEST PUSH1 0x40 MLOAD PUSH2 0x273 SWAP2 SWAP1 PUSH2 0x1029 JUMP JUMPDEST PUSH1 0x40 MLOAD DUP1 SWAP2 SUB SWAP1 RETURN JUMPDEST PUSH2 0x296 PUSH1 0x4 DUP1 CALLDATASIZE SUB DUP2 ADD SWAP1 PUSH2 0x291 SWAP2 SWAP1 PUSH2 0x1042 JUMP JUMPDEST PUSH2 0xDB5 JUMP JUMPDEST PUSH1 0x40 MLOAD PUSH2 0x2A3 SWAP2 SWAP1 PUSH2 0x14A1 JUMP JUMPDEST PUSH1 0x40 MLOAD DUP1 SWAP2 SUB SWAP1 RETURN JUMPDEST PUSH0 DUP1 PUSH1 0x1 PUSH0 DUP7 PUSH20 0xFFFFFFFFFFFFFFFFFFFFFFFFFFFFFFFFFFFFFFFF AND PUSH20 0xFFFFFFFFFFFFFFFFFFFFFFFFFFFFFFFFFFFFFFFF AND DUP2 MSTORE PUSH1 0x20 ADD SWAP1 DUP2 MSTORE PUSH1 0x20 ADD PUSH0 KECCAK256 PUSH0 DUP6 DUP2 MSTORE PUSH1 0x20 ADD SWAP1 DUP2 MSTORE PUSH1 0x20 ADD PUSH0 KECCAK256 SWAP1 POP DUP3 DUP2 PUSH1 0x4 ADD SLOAD LT ISZERO PUSH2 0x343 JUMPI PUSH1 0x40 MLOAD PUSH32 0x8C379A000000000000000000000000000000000000000000000000000000000 DUP2 MSTORE PUSH1 0x4 ADD PUSH2 0x33A SWAP1 PUSH2 0x150B JUMP JUMPDEST PUSH1 0x40 MLOAD DUP1 SWAP2 SUB SWAP1 REVERT JUMPDEST PUSH1 0x1 SWAP2 POP POP SWAP4 SWAP3 POP POP POP JUMP JUMPDEST PUSH0 DUP1 PUSH1 0x1 PUSH0 DUP6 PUSH20 0xFFFFFFFFFFFFFFFFFFFFFFFFFFFFFFFFFFFFFFFF AND PUSH20 0xFFFFFFFFFFFFFFFFFFFFFFFFFFFFFFFFFFFFFFFF AND DUP2 MSTORE PUSH1 0x20 ADD SWAP1 DUP2 MSTORE PUSH1 0x20 ADD PUSH0 KECCAK256 PUSH0 DUP5 DUP2 MSTORE PUSH1 0x20 ADD SWAP1 DUP2 MSTORE PUSH1 0x20 ADD PUSH0 KECCAK256 PUSH1 0x40 MLOAD DUP1 PUSH1 0xA0 ADD PUSH1 0x40 MSTORE SWAP1 DUP2 PUSH0 DUP3 ADD SLOAD DUP2 MSTORE PUSH1 0x20 ADD PUSH1 0x1 DUP3 ADD SLOAD DUP2 MSTORE PUSH1 0x20 ADD PUSH1 0x2 DUP3 ADD PUSH0 SWAP1 SLOAD SWAP1 PUSH2 0x100 EXP SWAP1 DIV PUSH20 0xFFFFFFFFFFFFFFFFFFFFFFFFFFFFFFFFFFFFFFFF AND PUSH20 0xFFFFFFFFFFFFFFFFFFFFFFFFFFFFFFFFFFFFFFFF AND PUSH20 0xFFFFFFFFFFFFFFFFFFFFFFFFFFFFFFFFFFFFFFFF AND DUP2 MSTORE PUSH1 0x20 ADD PUSH1 0x3 DUP3 ADD DUP1 SLOAD PUSH2 0x420 SWAP1 PUSH2 0x1556 JUMP JUMPDEST DUP1 PUSH1 0x1F ADD PUSH1 0x20 DUP1 SWAP2 DIV MUL PUSH1 0x20 ADD PUSH1 0x40 MLOAD SWAP1 DUP2 ADD PUSH1 0x40 MSTORE DUP1 SWAP3 SWAP2 SWAP1 DUP2 DUP2 MSTORE PUSH1 0x20 ADD DUP3 DUP1 SLOAD PUSH2 0x44C SWAP1 PUSH2 0x1556 JUMP JUMPDEST DUP1 ISZERO PUSH2 0x497 JUMPI DUP1 PUSH1 0x1F LT PUSH2 0x46E JUMPI PUSH2 0x100 DUP1 DUP4 SLOAD DIV MUL DUP4 MSTORE SWAP2 PUSH1 0x20 ADD SWAP2 PUSH2 0x497 JUMP JUMPDEST DUP3 ADD SWAP2 SWAP1 PUSH0 MSTORE PUSH1 0x20 PUSH0 KECCAK256 SWAP1 JUMPDEST DUP2 SLOAD DUP2 MSTORE SWAP1 PUSH1 0x1 ADD SWAP1 PUSH1 0x20 ADD DUP1 DUP4 GT PUSH2 0x47A JUMPI DUP3 SWAP1 SUB PUSH1 0x1F AND DUP3 ADD SWAP2 JUMPDEST POP POP POP POP POP DUP2 MSTORE PUSH1 0x20 ADD PUSH1 0x4 DUP3 ADD SLOAD DUP2 MSTORE POP POP SWAP1 POP DUP1 PUSH1 0x80 ADD MLOAD SWAP2 POP POP SWAP3 SWAP2 POP POP JUMP JUMPDEST PUSH1 0x1 PUSH0 DUP5 PUSH20 0xFFFFFFFFFFFFFFFFFFFFFFFFFFFFFFFFFFFFFFFF AND PUSH20 0xFFFFFFFFFFFFFFFFFFFFFFFFFFFFFFFFFFFFFFFF AND DUP2 MSTORE PUSH1 0x20 ADD SWAP1 DUP2 MSTORE PUSH1 0x20 ADD PUSH0 KECCAK256 PUSH0 DUP4 DUP2 MSTORE PUSH1 0x20 ADD SWAP1 DUP2 MSTORE PUSH1 0x20 ADD PUSH0 KECCAK256 PUSH1 0x4 ADD SLOAD DUP2 GT ISZERO PUSH2 0x54C JUMPI PUSH1 0x40 MLOAD PUSH32 0x8C379A000000000000000000000000000000000000000000000000000000000 DUP2 MSTORE PUSH1 0x4 ADD PUSH2 0x543 SWAP1 PUSH2 0x15F6 JUMP JUMPDEST PUSH1 0x40 MLOAD DUP1 SWAP2 SUB SWAP1 REVERT JUMPDEST DUP1 PUSH1 0x1 PUSH0 DUP6 PUSH20 0xFFFFFFFFFFFFFFFFFFFFFFFFFFFFFFFFFFFFFFFF AND PUSH20 0xFFFFFFFFFFFFFFFFFFFFFFFFFFFFFFFFFFFFFFFF AND DUP2 MSTORE PUSH1 0x20 ADD SWAP1 DUP2 MSTORE PUSH1 0x20 ADD PUSH0 KECCAK256 PUSH0 DUP5 DUP2 MSTORE PUSH1 0x20 ADD SWAP1 DUP2 MSTORE PUSH1 0x20 ADD PUSH0 KECCAK256 PUSH1 0x4 ADD DUP2 SWAP1 SSTORE POP POP POP POP JUMP JUMPDEST PUSH0 DUP1 PUSH1 0x60 PUSH0 DUP1 PUSH1 0x1 PUSH0 DUP9 PUSH20 0xFFFFFFFFFFFFFFFFFFFFFFFFFFFFFFFFFFFFFFFF AND PUSH20 0xFFFFFFFFFFFFFFFFFFFFFFFFFFFFFFFFFFFFFFFF AND DUP2 MSTORE PUSH1 0x20 ADD SWAP1 DUP2 MSTORE PUSH1 0x20 ADD PUSH0 KECCAK256 PUSH0 DUP8 DUP2 MSTORE PUSH1 0x20 ADD SWAP1 DUP2 MSTORE PUSH1 0x20 ADD PUSH0 KECCAK256 PUSH1 0x40 MLOAD DUP1 PUSH1 0xA0 ADD PUSH1 0x40 MSTORE SWAP1 DUP2 PUSH0 DUP3 ADD SLOAD DUP2 MSTORE PUSH1 0x20 ADD PUSH1 0x1 DUP3 ADD SLOAD DUP2 MSTORE PUSH1 0x20 ADD PUSH1 0x2 DUP3 ADD PUSH0 SWAP1 SLOAD SWAP1 PUSH2 0x100 EXP SWAP1 DIV PUSH20 0xFFFFFFFFFFFFFFFFFFFFFFFFFFFFFFFFFFFFFFFF AND PUSH20 0xFFFFFFFFFFFFFFFFFFFFFFFFFFFFFFFFFFFFFFFF AND PUSH20 0xFFFFFFFFFFFFFFFFFFFFFFFFFFFFFFFFFFFFFFFF AND DUP2 MSTORE PUSH1 0x20 ADD PUSH1 0x3 DUP3 ADD DUP1 SLOAD PUSH2 0x67A SWAP1 PUSH2 0x1556 JUMP JUMPDEST DUP1 PUSH1 0x1F ADD PUSH1 0x20 DUP1 SWAP2 DIV MUL PUSH1 0x20 ADD PUSH1 0x40 MLOAD SWAP1 DUP2 ADD PUSH1 0x40 MSTORE DUP1 SWAP3 SWAP2 SWAP1 DUP2 DUP2 MSTORE PUSH1 0x20 ADD DUP3 DUP1 SLOAD PUSH2 0x6A6 SWAP1 PUSH2 0x1556 JUMP JUMPDEST DUP1 ISZERO PUSH2 0x6F1 JUMPI DUP1 PUSH1 0x1F LT PUSH2 0x6C8 JUMPI PUSH2 0x100 DUP1 DUP4 SLOAD DIV MUL DUP4 MSTORE SWAP2 PUSH1 0x20 ADD SWAP2 PUSH2 0x6F1 JUMP JUMPDEST DUP3 ADD SWAP2 SWAP1 PUSH0 MSTORE PUSH1 0x20 PUSH0 KECCAK256 SWAP1 JUMPDEST DUP2 SLOAD DUP2 MSTORE SWAP1 PUSH1 0x1 ADD SWAP1 PUSH1 0x20 ADD DUP1 DUP4 GT PUSH2 0x6D4 JUMPI DUP3 SWAP1 SUB PUSH1 0x1F AND DUP3 ADD SWAP2 JUMPDEST POP POP POP POP POP DUP2 MSTORE PUSH1 0x20 ADD PUSH1 0x4 DUP3 ADD SLOAD DUP2 MSTORE POP POP SWAP1 POP DUP1 PUSH0 ADD MLOAD DUP2 PUSH1 0x40 ADD MLOAD DUP3 PUSH1 0x60 ADD MLOAD DUP4 PUSH1 0x80 ADD MLOAD SWAP5 POP SWAP5 POP SWAP5 POP SWAP5 POP POP SWAP3 SWAP6 SWAP2 SWAP5 POP SWAP3 POP JUMP JUMPDEST PUSH1 0x60 PUSH1 0x2 PUSH0 DUP4 PUSH20 0xFFFFFFFFFFFFFFFFFFFFFFFFFFFFFFFFFFFFFFFF AND PUSH20 0xFFFFFFFFFFFFFFFFFFFFFFFFFFFFFFFFFFFFFFFF AND DUP2 MSTORE PUSH1 0x20 ADD SWAP1 DUP2 MSTORE PUSH1 0x20 ADD PUSH0 KECCAK256 DUP1 SLOAD DUP1 PUSH1 0x20 MUL PUSH1 0x20 ADD PUSH1 0x40 MLOAD SWAP1 DUP2 ADD PUSH1 0x40 MSTORE DUP1 SWAP3 SWAP2 SWAP1 DUP2 DUP2 MSTORE PUSH1 0x20 ADD DUP3 DUP1 SLOAD DUP1 ISZERO PUSH2 0x7B2 JUMPI PUSH1 0x20 MUL DUP3 ADD SWAP2 SWAP1 PUSH0 MSTORE PUSH1 0x20 PUSH0 KECCAK256 SWAP1 JUMPDEST DUP2 SLOAD DUP2 MSTORE PUSH1 0x20 ADD SWAP1 PUSH1 0x1 ADD SWAP1 DUP1 DUP4 GT PUSH2 0x79E JUMPI JUMPDEST POP POP POP POP POP SWAP1 POP SWAP2 SWAP1 POP JUMP JUMPDEST PUSH0 DUP3 PUSH1 0x1 PUSH0 DUP7 PUSH20 0xFFFFFFFFFFFFFFFFFFFFFFFFFFFFFFFFFFFFFFFF AND PUSH20 0xFFFFFFFFFFFFFFFFFFFFFFFFFFFFFFFFFFFFFFFF AND DUP2 MSTORE PUSH1 0x20 ADD SWAP1 DUP2 MSTORE PUSH1 0x20 ADD PUSH0 KECCAK256 PUSH0 DUP6 DUP2 MSTORE PUSH1 0x20 ADD SWAP1 DUP2 MSTORE PUSH1 0x20 ADD PUSH0 KECCAK256 PUSH0 ADD SLOAD EQ PUSH2 0x84F JUMPI PUSH1 0x40 MLOAD PUSH32 0x8C379A000000000000000000000000000000000000000000000000000000000 DUP2 MSTORE PUSH1 0x4 ADD PUSH2 0x846 SWAP1 PUSH2 0x165E JUMP JUMPDEST PUSH1 0x40 MLOAD DUP1 SWAP2 SUB SWAP1 REVERT JUMPDEST PUSH0 PUSH1 0x1 PUSH0 DUP7 PUSH20 0xFFFFFFFFFFFFFFFFFFFFFFFFFFFFFFFFFFFFFFFF AND PUSH20 0xFFFFFFFFFFFFFFFFFFFFFFFFFFFFFFFFFFFFFFFF AND DUP2 MSTORE PUSH1 0x20 ADD SWAP1 DUP2 MSTORE PUSH1 0x20 ADD PUSH0 KECCAK256 PUSH0 DUP6 DUP2 MSTORE PUSH1 0x20 ADD SWAP1 DUP2 MSTORE PUSH1 0x20 ADD PUSH0 KECCAK256 SWAP1 POP DUP3 DUP2 PUSH1 0x4 ADD SLOAD LT ISZERO PUSH2 0x8E5 JUMPI PUSH1 0x40 MLOAD PUSH32 0x8C379A000000000000000000000000000000000000000000000000000000000 DUP2 MSTORE PUSH1 0x4 ADD PUSH2 0x8DC SWAP1 PUSH2 0x150B JUMP JUMPDEST PUSH1 0x40 MLOAD DUP1 SWAP2 SUB SWAP1 REVERT JUMPDEST PUSH1 0x1 SWAP2 POP POP SWAP4 SWAP3 POP POP POP JUMP JUMPDEST PUSH0 PUSH1 0x60 PUSH0 DUP1 DUP5 DUP7 DUP11 DUP11 DUP11 TIMESTAMP PUSH1 0x40 MLOAD PUSH1 0x20 ADD PUSH2 0x911 SWAP7 SWAP6 SWAP5 SWAP4 SWAP3 SWAP2 SWAP1 PUSH2 0x171B JUMP JUMPDEST PUSH1 0x40 MLOAD PUSH1 0x20 DUP2 DUP4 SUB SUB DUP2 MSTORE SWAP1 PUSH1 0x40 MSTORE DUP1 MLOAD SWAP1 PUSH1 0x20 ADD KECCAK256 PUSH0 SHR SWAP1 POP PUSH0 PUSH1 0x1 PUSH0 DUP12 PUSH20 0xFFFFFFFFFFFFFFFFFFFFFFFFFFFFFFFFFFFFFFFF AND PUSH20 0xFFFFFFFFFFFFFFFFFFFFFFFFFFFFFFFFFFFFFFFF AND DUP2 MSTORE PUSH1 0x20 ADD SWAP1 DUP2 MSTORE PUSH1 0x20 ADD PUSH0 KECCAK256 PUSH0 DUP4 DUP2 MSTORE PUSH1 0x20 ADD SWAP1 DUP2 MSTORE PUSH1 0x20 ADD PUSH0 KECCAK256 SWAP1 POP PUSH0 DUP2 PUSH0 ADD SLOAD EQ PUSH2 0x9BF JUMPI PUSH1 0x40 MLOAD PUSH32 0x8C379A000000000000000000000000000000000000000000000000000000000 DUP2 MSTORE PUSH1 0x4 ADD PUSH2 0x9B6 SWAP1 PUSH2 0x17D0 JUMP JUMPDEST PUSH1 0x40 MLOAD DUP1 SWAP2 SUB SWAP1 REVERT JUMPDEST PUSH0 PUSH1 0x40 MLOAD DUP1 PUSH1 0xA0 ADD PUSH1 0x40 MSTORE DUP1 DUP5 DUP2 MSTORE PUSH1 0x20 ADD DUP11 DUP2 MSTORE PUSH1 0x20 ADD DUP12 PUSH20 0xFFFFFFFFFFFFFFFFFFFFFFFFFFFFFFFFFFFFFFFF AND DUP2 MSTORE PUSH1 0x20 ADD DUP10 DUP2 MSTORE PUSH1 0x20 ADD DUP9 DUP2 MSTORE POP SWAP1 POP DUP1 PUSH1 0x1 PUSH0 DUP14 PUSH20 0xFFFFFFFFFFFFFFFFFFFFFFFFFFFFFFFFFFFFFFFF AND PUSH20 0xFFFFFFFFFFFFFFFFFFFFFFFFFFFFFFFFFFFFFFFF AND DUP2 MSTORE PUSH1 0x20 ADD SWAP1 DUP2 MSTORE PUSH1 0x20 ADD PUSH0 KECCAK256 PUSH0 DUP6 DUP2 MSTORE PUSH1 0x20 ADD SWAP1 DUP2 MSTORE PUSH1 0x20 ADD PUSH0 KECCAK256 PUSH0 DUP3 ADD MLOAD DUP2 PUSH0 ADD SSTORE PUSH1 0x20 DUP3 ADD MLOAD DUP2 PUSH1 0x1 ADD SSTORE PUSH1 0x40 DUP3 ADD MLOAD DUP2 PUSH1 0x2 ADD PUSH0 PUSH2 0x100 EXP DUP2 SLOAD DUP2 PUSH20 0xFFFFFFFFFFFFFFFFFFFFFFFFFFFFFFFFFFFFFFFF MUL NOT AND SWAP1 DUP4 PUSH20 0xFFFFFFFFFFFFFFFFFFFFFFFFFFFFFFFFFFFFFFFF AND MUL OR SWAP1 SSTORE POP PUSH1 0x60 DUP3 ADD MLOAD DUP2 PUSH1 0x3 ADD SWAP1 DUP2 PUSH2 0xAB9 SWAP2 SWAP1 PUSH2 0x198B JUMP JUMPDEST POP PUSH1 0x80 DUP3 ADD MLOAD DUP2 PUSH1 0x4 ADD SSTORE SWAP1 POP POP PUSH1 0x2 PUSH0 DUP13 PUSH20 0xFFFFFFFFFFFFFFFFFFFFFFFFFFFFFFFFFFFFFFFF AND PUSH20 0xFFFFFFFFFFFFFFFFFFFFFFFFFFFFFFFFFFFFFFFF AND DUP2 MSTORE PUSH1 0x20 ADD SWAP1 DUP2 MSTORE PUSH1 0x20 ADD PUSH0 KECCAK256 DUP4 SWAP1 DUP1 PUSH1 0x1 DUP2 SLOAD ADD DUP1 DUP3 SSTORE DUP1 SWAP2 POP POP PUSH1 0x1 SWAP1 SUB SWAP1 PUSH0 MSTORE PUSH1 0x20 PUSH0 KECCAK256 ADD PUSH0 SWAP1 SWAP2 SWAP1 SWAP2 SWAP1 SWAP2 POP SSTORE DUP1 PUSH0 ADD MLOAD DUP2 PUSH1 0x60 ADD MLOAD DUP3 PUSH1 0x80 ADD MLOAD SWAP6 POP SWAP6 POP SWAP6 POP POP POP POP SWAP6 POP SWAP6 POP SWAP6 SWAP3 POP POP POP JUMP JUMPDEST PUSH0 PUSH1 0x1 PUSH0 DUP5 PUSH20 0xFFFFFFFFFFFFFFFFFFFFFFFFFFFFFFFFFFFFFFFF AND PUSH20 0xFFFFFFFFFFFFFFFFFFFFFFFFFFFFFFFFFFFFFFFF AND DUP2 MSTORE PUSH1 0x20 ADD SWAP1 DUP2 MSTORE PUSH1 0x20 ADD PUSH0 KECCAK256 PUSH0 DUP4 DUP2 MSTORE PUSH1 0x20 ADD SWAP1 DUP2 MSTORE PUSH1 0x20 ADD PUSH0 KECCAK256 PUSH0 ADD SLOAD SWAP1 POP SWAP3 SWAP2 POP POP JUMP JUMPDEST PUSH0 DUP1 PUSH1 0x1 PUSH0 DUP6 PUSH20 0xFFFFFFFFFFFFFFFFFFFFFFFFFFFFFFFFFFFFFFFF AND PUSH20 0xFFFFFFFFFFFFFFFFFFFFFFFFFFFFFFFFFFFFFFFF AND DUP2 MSTORE PUSH1 0x20 ADD SWAP1 DUP2 MSTORE PUSH1 0x20 ADD PUSH0 KECCAK256 PUSH0 DUP5 DUP2 MSTORE PUSH1 0x20 ADD SWAP1 DUP2 MSTORE PUSH1 0x20 ADD PUSH0 KECCAK256 PUSH1 0x40 MLOAD DUP1 PUSH1 0xA0 ADD PUSH1 0x40 MSTORE SWAP1 DUP2 PUSH0 DUP3 ADD SLOAD DUP2 MSTORE PUSH1 0x20 ADD PUSH1 0x1 DUP3 ADD SLOAD DUP2 MSTORE PUSH1 0x20 ADD PUSH1 0x2 DUP3 ADD PUSH0 SWAP1 SLOAD SWAP1 PUSH2 0x100 EXP SWAP1 DIV PUSH20 0xFFFFFFFFFFFFFFFFFFFFFFFFFFFFFFFFFFFFFFFF AND PUSH20 0xFFFFFFFFFFFFFFFFFFFFFFFFFFFFFFFFFFFFFFFF AND PUSH20 0xFFFFFFFFFFFFFFFFFFFFFFFFFFFFFFFFFFFFFFFF AND DUP2 MSTORE PUSH1 0x20 ADD PUSH1 0x3 DUP3 ADD DUP1 SLOAD PUSH2 0xC73 SWAP1 PUSH2 0x1556 JUMP JUMPDEST DUP1 PUSH1 0x1F ADD PUSH1 0x20 DUP1 SWAP2 DIV MUL PUSH1 0x20 ADD PUSH1 0x40 MLOAD SWAP1 DUP2 ADD PUSH1 0x40 MSTORE DUP1 SWAP3 SWAP2 SWAP1 DUP2 DUP2 MSTORE PUSH1 0x20 ADD DUP3 DUP1 SLOAD PUSH2 0xC9F SWAP1 PUSH2 0x1556 JUMP JUMPDEST DUP1 ISZERO PUSH2 0xCEA JUMPI DUP1 PUSH1 0x1F LT PUSH2 0xCC1 JUMPI PUSH2 0x100 DUP1 DUP4 SLOAD DIV MUL DUP4 MSTORE SWAP2 PUSH1 0x20 ADD SWAP2 PUSH2 0xCEA JUMP JUMPDEST DUP3 ADD SWAP2 SWAP1 PUSH0 MSTORE PUSH1 0x20 PUSH0 KECCAK256 SWAP1 JUMPDEST DUP2 SLOAD DUP2 MSTORE SWAP1 PUSH1 0x1 ADD SWAP1 PUSH1 0x20 ADD DUP1 DUP4 GT PUSH2 0xCCD JUMPI DUP3 SWAP1 SUB PUSH1 0x1F AND DUP3 ADD SWAP2 JUMPDEST POP POP POP POP POP DUP2 MSTORE PUSH1 0x20 ADD PUSH1 0x4 DUP3 ADD SLOAD DUP2 MSTORE POP POP SWAP1 POP DUP1 PUSH1 0x40 ADD MLOAD SWAP2 POP POP SWAP3 SWAP2 POP POP JUMP JUMPDEST PUSH0 DUP1 DUP3 EQ ISZERO DUP1 ISZERO PUSH2 0xD1D JUMPI POP PUSH0 DUP3 GT JUMPDEST PUSH2 0xD5C JUMPI PUSH1 0x40 MLOAD PUSH32 0x8C379A000000000000000000000000000000000000000000000000000000000 DUP2 MSTORE PUSH1 0x4 ADD PUSH2 0xD53 SWAP1 PUSH2 0x1AA4 JUMP JUMPDEST PUSH1 0x40 MLOAD DUP1 SWAP2 SUB SWAP1 REVERT JUMPDEST DUP2 PUSH1 0x1 PUSH0 DUP6 PUSH20 0xFFFFFFFFFFFFFFFFFFFFFFFFFFFFFFFFFFFFFFFF AND PUSH20 0xFFFFFFFFFFFFFFFFFFFFFFFFFFFFFFFFFFFFFFFF AND DUP2 MSTORE PUSH1 0x20 ADD SWAP1 DUP2 MSTORE PUSH1 0x20 ADD PUSH0 KECCAK256 PUSH0 DUP5 DUP2 MSTORE PUSH1 0x20 ADD SWAP1 DUP2 MSTORE PUSH1 0x20 ADD PUSH0 KECCAK256 PUSH0 ADD SLOAD EQ SWAP1 POP SWAP3 SWAP2 POP POP JUMP JUMPDEST PUSH1 0x60 PUSH0 PUSH1 0x1 PUSH0 DUP6 PUSH20 0xFFFFFFFFFFFFFFFFFFFFFFFFFFFFFFFFFFFFFFFF AND PUSH20 0xFFFFFFFFFFFFFFFFFFFFFFFFFFFFFFFFFFFFFFFF AND DUP2 MSTORE PUSH1 0x20 ADD SWAP1 DUP2 MSTORE PUSH1 0x20 ADD PUSH0 KECCAK256 PUSH0 DUP5 DUP2 MSTORE PUSH1 0x20 ADD SWAP1 DUP2 MSTORE PUSH1 0x20 ADD PUSH0 KECCAK256 PUSH1 0x40 MLOAD DUP1 PUSH1 0xA0 ADD PUSH1 0x40 MSTORE SWAP1 DUP2 PUSH0 DUP3 ADD SLOAD DUP2 MSTORE PUSH1 0x20 ADD PUSH1 0x1 DUP3 ADD SLOAD DUP2 MSTORE PUSH1 0x20 ADD PUSH1 0x2 DUP3 ADD PUSH0 SWAP1 SLOAD SWAP1 PUSH2 0x100 EXP SWAP1 DIV PUSH20 0xFFFFFFFFFFFFFFFFFFFFFFFFFFFFFFFFFFFFFFFF AND PUSH20 0xFFFFFFFFFFFFFFFFFFFFFFFFFFFFFFFFFFFFFFFF AND PUSH20 0xFFFFFFFFFFFFFFFFFFFFFFFFFFFFFFFFFFFFFFFF AND DUP2 MSTORE PUSH1 0x20 ADD PUSH1 0x3 DUP3 ADD DUP1 SLOAD PUSH2 0xE87 SWAP1 PUSH2 0x1556 JUMP JUMPDEST DUP1 PUSH1 0x1F ADD PUSH1 0x20 DUP1 SWAP2 DIV MUL PUSH1 0x20 ADD PUSH1 0x40 MLOAD SWAP1 DUP2 ADD PUSH1 0x40 MSTORE DUP1 SWAP3 SWAP2 SWAP1 DUP2 DUP2 MSTORE PUSH1 0x20 ADD DUP3 DUP1 SLOAD PUSH2 0xEB3 SWAP1 PUSH2 0x1556 JUMP JUMPDEST DUP1 ISZERO PUSH2 0xEFE JUMPI DUP1 PUSH1 0x1F LT PUSH2 0xED5 JUMPI PUSH2 0x100 DUP1 DUP4 SLOAD DIV MUL DUP4 MSTORE SWAP2 PUSH1 0x20 ADD SWAP2 PUSH2 0xEFE JUMP JUMPDEST DUP3 ADD SWAP2 SWAP1 PUSH0 MSTORE PUSH1 0x20 PUSH0 KECCAK256 SWAP1 JUMPDEST DUP2 SLOAD DUP2 MSTORE SWAP1 PUSH1 0x1 ADD SWAP1 PUSH1 0x20 ADD DUP1 DUP4 GT PUSH2 0xEE1 JUMPI DUP3 SWAP1 SUB PUSH1 0x1F AND DUP3 ADD SWAP2 JUMPDEST POP POP POP POP POP DUP2 MSTORE PUSH1 0x20 ADD PUSH1 0x4 DUP3 ADD SLOAD DUP2 MSTORE POP POP SWAP1 POP DUP1 PUSH1 0x60 ADD MLOAD SWAP2 POP POP SWAP3 SWAP2 POP POP JUMP JUMPDEST PUSH0 PUSH1 0x40 MLOAD SWAP1 POP SWAP1 JUMP JUMPDEST PUSH0 DUP1 REVERT JUMPDEST PUSH0 DUP1 REVERT JUMPDEST PUSH0 PUSH20 0xFFFFFFFFFFFFFFFFFFFFFFFFFFFFFFFFFFFFFFFF DUP3 AND SWAP1 POP SWAP2 SWAP1 POP JUMP JUMPDEST PUSH0 PUSH2 0xF5B DUP3 PUSH2 0xF32 JUMP JUMPDEST SWAP1 POP SWAP2 SWAP1 POP JUMP JUMPDEST PUSH2 0xF6B DUP2 PUSH2 0xF51 JUMP JUMPDEST DUP2 EQ PUSH2 0xF75 JUMPI PUSH0 DUP1 REVERT JUMPDEST POP JUMP JUMPDEST PUSH0 DUP2 CALLDATALOAD SWAP1 POP PUSH2 0xF86 DUP2 PUSH2 0xF62 JUMP JUMPDEST SWAP3 SWAP2 POP POP JUMP JUMPDEST PUSH0 DUP2 SWAP1 POP SWAP2 SWAP1 POP JUMP JUMPDEST PUSH2 0xF9E DUP2 PUSH2 0xF8C JUMP JUMPDEST DUP2 EQ PUSH2 0xFA8 JUMPI PUSH0 DUP1 REVERT JUMPDEST POP JUMP JUMPDEST PUSH0 DUP2 CALLDATALOAD SWAP1 POP PUSH2 0xFB9 DUP2 PUSH2 0xF95 JUMP JUMPDEST SWAP3 SWAP2 POP POP JUMP JUMPDEST PUSH0 DUP1 PUSH0 PUSH1 0x60 DUP5 DUP7 SUB SLT ISZERO PUSH2 0xFD6 JUMPI PUSH2 0xFD5 PUSH2 0xF2A JUMP JUMPDEST JUMPDEST PUSH0 PUSH2 0xFE3 DUP7 DUP3 DUP8 ADD PUSH2 0xF78 JUMP JUMPDEST SWAP4 POP POP PUSH1 0x20 PUSH2 0xFF4 DUP7 DUP3 DUP8 ADD PUSH2 0xFAB JUMP JUMPDEST SWAP3 POP POP PUSH1 0x40 PUSH2 0x1005 DUP7 DUP3 DUP8 ADD PUSH2 0xFAB JUMP JUMPDEST SWAP2 POP POP SWAP3 POP SWAP3 POP SWAP3 JUMP JUMPDEST PUSH0 DUP2 ISZERO ISZERO SWAP1 POP SWAP2 SWAP1 POP JUMP JUMPDEST PUSH2 0x1023 DUP2 PUSH2 0x100F JUMP JUMPDEST DUP3 MSTORE POP POP JUMP JUMPDEST PUSH0 PUSH1 0x20 DUP3 ADD SWAP1 POP PUSH2 0x103C PUSH0 DUP4 ADD DUP5 PUSH2 0x101A JUMP JUMPDEST SWAP3 SWAP2 POP POP JUMP JUMPDEST PUSH0 DUP1 PUSH1 0x40 DUP4 DUP6 SUB SLT ISZERO PUSH2 0x1058 JUMPI PUSH2 0x1057 PUSH2 0xF2A JUMP JUMPDEST JUMPDEST PUSH0 PUSH2 0x1065 DUP6 DUP3 DUP7 ADD PUSH2 0xF78 JUMP JUMPDEST SWAP3 POP POP PUSH1 0x20 PUSH2 0x1076 DUP6 DUP3 DUP7 ADD PUSH2 0xFAB JUMP JUMPDEST SWAP2 POP POP SWAP3 POP SWAP3 SWAP1 POP JUMP JUMPDEST PUSH2 0x1089 DUP2 PUSH2 0xF8C JUMP JUMPDEST DUP3 MSTORE POP POP JUMP JUMPDEST PUSH0 PUSH1 0x20 DUP3 ADD SWAP1 POP PUSH2 0x10A2 PUSH0 DUP4 ADD DUP5 PUSH2 0x1080 JUMP JUMPDEST SWAP3 SWAP2 POP POP JUMP JUMPDEST PUSH2 0x10B1 DUP2 PUSH2 0xF51 JUMP JUMPDEST DUP3 MSTORE POP POP JUMP JUMPDEST PUSH0 DUP2 MLOAD SWAP1 POP SWAP2 SWAP1 POP JUMP JUMPDEST PUSH0 DUP3 DUP3 MSTORE PUSH1 0x20 DUP3 ADD SWAP1 POP SWAP3 SWAP2 POP POP JUMP JUMPDEST PUSH0 JUMPDEST DUP4 DUP2 LT ISZERO PUSH2 0x10EE JUMPI DUP1 DUP3 ADD MLOAD DUP2 DUP5 ADD MSTORE PUSH1 0x20 DUP2 ADD SWAP1 POP PUSH2 0x10D3 JUMP JUMPDEST PUSH0 DUP5 DUP5 ADD MSTORE POP POP POP POP JUMP JUMPDEST PUSH0 PUSH1 0x1F NOT PUSH1 0x1F DUP4 ADD AND SWAP1 POP SWAP2 SWAP1 POP JUMP JUMPDEST PUSH0 PUSH2 0x1113 DUP3 PUSH2 0x10B7 JUMP JUMPDEST PUSH2 0x111D DUP2 DUP6 PUSH2 0x10C1 JUMP JUMPDEST SWAP4 POP PUSH2 0x112D DUP2 DUP6 PUSH1 0x20 DUP7 ADD PUSH2 0x10D1 JUMP JUMPDEST PUSH2 0x1136 DUP2 PUSH2 0x10F9 JUMP JUMPDEST DUP5 ADD SWAP2 POP POP SWAP3 SWAP2 POP POP JUMP JUMPDEST PUSH0 PUSH1 0x80 DUP3 ADD SWAP1 POP PUSH2 0x1154 PUSH0 DUP4 ADD DUP8 PUSH2 0x1080 JUMP JUMPDEST PUSH2 0x1161 PUSH1 0x20 DUP4 ADD DUP7 PUSH2 0x10A8 JUMP JUMPDEST DUP2 DUP2 SUB PUSH1 0x40 DUP4 ADD MSTORE PUSH2 0x1173 DUP2 DUP6 PUSH2 0x1109 JUMP JUMPDEST SWAP1 POP PUSH2 0x1182 PUSH1 0x60 DUP4 ADD DUP5 PUSH2 0x1080 JUMP JUMPDEST SWAP6 SWAP5 POP POP POP POP POP JUMP JUMPDEST PUSH0 PUSH1 0x20 DUP3 DUP5 SUB SLT ISZERO PUSH2 0x11A0 JUMPI PUSH2 0x119F PUSH2 0xF2A JUMP JUMPDEST JUMPDEST PUSH0 PUSH2 0x11AD DUP5 DUP3 DUP6 ADD PUSH2 0xF78 JUMP JUMPDEST SWAP2 POP POP SWAP3 SWAP2 POP POP JUMP JUMPDEST PUSH0 DUP2 MLOAD SWAP1 POP SWAP2 SWAP1 POP JUMP JUMPDEST PUSH0 DUP3 DUP3 MSTORE PUSH1 0x20 DUP3 ADD SWAP1 POP SWAP3 SWAP2 POP POP JUMP JUMPDEST PUSH0 DUP2 SWAP1 POP PUSH1 0x20 DUP3 ADD SWAP1 POP SWAP2 SWAP1 POP JUMP JUMPDEST PUSH2 0x11E8 DUP2 PUSH2 0xF8C JUMP JUMPDEST DUP3 MSTORE POP POP JUMP JUMPDEST PUSH0 PUSH2 0x11F9 DUP4 DUP4 PUSH2 0x11DF JUMP JUMPDEST PUSH1 0x20 DUP4 ADD SWAP1 POP SWAP3 SWAP2 POP POP JUMP JUMPDEST PUSH0 PUSH1 0x20 DUP3 ADD SWAP1 POP SWAP2 SWAP1 POP JUMP JUMPDEST PUSH0 PUSH2 0x121B DUP3 PUSH2 0x11B6 JUMP JUMPDEST PUSH2 0x1225 DUP2 DUP6 PUSH2 0x11C0 JUMP JUMPDEST SWAP4 POP PUSH2 0x1230 DUP4 PUSH2 0x11D0 JUMP JUMPDEST DUP1 PUSH0 JUMPDEST DUP4 DUP2 LT ISZERO PUSH2 0x1260 JUMPI DUP2 MLOAD PUSH2 0x1247 DUP9 DUP3 PUSH2 0x11EE JUMP JUMPDEST SWAP8 POP PUSH2 0x1252 DUP4 PUSH2 0x1205 JUMP JUMPDEST SWAP3 POP POP PUSH1 0x1 DUP2 ADD SWAP1 POP PUSH2 0x1233 JUMP JUMPDEST POP DUP6 SWAP4 POP POP POP POP SWAP3 SWAP2 POP POP JUMP JUMPDEST PUSH0 PUSH1 0x20 DUP3 ADD SWAP1 POP DUP2 DUP2 SUB PUSH0 DUP4 ADD MSTORE PUSH2 0x1285 DUP2 DUP5 PUSH2 0x1211 JUMP JUMPDEST SWAP1 POP SWAP3 SWAP2 POP POP JUMP JUMPDEST PUSH0 DUP1 REVERT JUMPDEST PUSH0 DUP1 REVERT JUMPDEST PUSH32 0x4E487B7100000000000000000000000000000000000000000000000000000000 PUSH0 MSTORE PUSH1 0x41 PUSH1 0x4 MSTORE PUSH1 0x24 PUSH0 REVERT JUMPDEST PUSH2 0x12CB DUP3 PUSH2 0x10F9 JUMP JUMPDEST DUP2 ADD DUP2 DUP2 LT PUSH8 0xFFFFFFFFFFFFFFFF DUP3 GT OR ISZERO PUSH2 0x12EA JUMPI PUSH2 0x12E9 PUSH2 0x1295 JUMP JUMPDEST JUMPDEST DUP1 PUSH1 0x40 MSTORE POP POP POP JUMP JUMPDEST PUSH0 PUSH2 0x12FC PUSH2 0xF21 JUMP JUMPDEST SWAP1 POP PUSH2 0x1308 DUP3 DUP3 PUSH2 0x12C2 JUMP JUMPDEST SWAP2 SWAP1 POP JUMP JUMPDEST PUSH0 PUSH8 0xFFFFFFFFFFFFFFFF DUP3 GT ISZERO PUSH2 0x1327 JUMPI PUSH2 0x1326 PUSH2 0x1295 JUMP JUMPDEST JUMPDEST PUSH2 0x1330 DUP3 PUSH2 0x10F9 JUMP JUMPDEST SWAP1 POP PUSH1 0x20 DUP2 ADD SWAP1 POP SWAP2 SWAP1 POP JUMP JUMPDEST DUP3 DUP2 DUP4 CALLDATACOPY PUSH0 DUP4 DUP4 ADD MSTORE POP POP POP JUMP JUMPDEST PUSH0 PUSH2 0x135D PUSH2 0x1358 DUP5 PUSH2 0x130D JUMP JUMPDEST PUSH2 0x12F3 JUMP JUMPDEST SWAP1 POP DUP3 DUP2 MSTORE PUSH1 0x20 DUP2 ADD DUP5 DUP5 DUP5 ADD GT ISZERO PUSH2 0x1379 JUMPI PUSH2 0x1378 PUSH2 0x1291 JUMP JUMPDEST JUMPDEST PUSH2 0x1384 DUP5 DUP3 DUP6 PUSH2 0x133D JUMP JUMPDEST POP SWAP4 SWAP3 POP POP POP JUMP JUMPDEST PUSH0 DUP3 PUSH1 0x1F DUP4 ADD SLT PUSH2 0x13A0 JUMPI PUSH2 0x139F PUSH2 0x128D JUMP JUMPDEST JUMPDEST DUP2 CALLDATALOAD PUSH2 0x13B0 DUP5 DUP3 PUSH1 0x20 DUP7 ADD PUSH2 0x134B JUMP JUMPDEST SWAP2 POP POP SWAP3 SWAP2 POP POP JUMP JUMPDEST PUSH0 DUP1 PUSH0 DUP1 PUSH0 PUSH1 0xA0 DUP7 DUP9 SUB SLT ISZERO PUSH2 0x13D2 JUMPI PUSH2 0x13D1 PUSH2 0xF2A JUMP JUMPDEST JUMPDEST PUSH0 PUSH2 0x13DF DUP9 DUP3 DUP10 ADD PUSH2 0xF78 JUMP JUMPDEST SWAP6 POP POP PUSH1 0x20 PUSH2 0x13F0 DUP9 DUP3 DUP10 ADD PUSH2 0xF78 JUMP JUMPDEST SWAP5 POP POP PUSH1 0x40 PUSH2 0x1401 DUP9 DUP3 DUP10 ADD PUSH2 0xFAB JUMP JUMPDEST SWAP4 POP POP PUSH1 0x60 DUP7 ADD CALLDATALOAD PUSH8 0xFFFFFFFFFFFFFFFF DUP2 GT ISZERO PUSH2 0x1422 JUMPI PUSH2 0x1421 PUSH2 0xF2E JUMP JUMPDEST JUMPDEST PUSH2 0x142E DUP9 DUP3 DUP10 ADD PUSH2 0x138C JUMP JUMPDEST SWAP3 POP POP PUSH1 0x80 PUSH2 0x143F DUP9 DUP3 DUP10 ADD PUSH2 0xFAB JUMP JUMPDEST SWAP2 POP POP SWAP3 SWAP6 POP SWAP3 SWAP6 SWAP1 SWAP4 POP JUMP JUMPDEST PUSH0 PUSH1 0x60 DUP3 ADD SWAP1 POP PUSH2 0x145F PUSH0 DUP4 ADD DUP7 PUSH2 0x1080 JUMP JUMPDEST DUP2 DUP2 SUB PUSH1 0x20 DUP4 ADD MSTORE PUSH2 0x1471 DUP2 DUP6 PUSH2 0x1109 JUMP JUMPDEST SWAP1 POP PUSH2 0x1480 PUSH1 0x40 DUP4 ADD DUP5 PUSH2 0x1080 JUMP JUMPDEST SWAP5 SWAP4 POP POP POP POP JUMP JUMPDEST PUSH0 PUSH1 0x20 DUP3 ADD SWAP1 POP PUSH2 0x149B PUSH0 DUP4 ADD DUP5 PUSH2 0x10A8 JUMP JUMPDEST SWAP3 SWAP2 POP POP JUMP JUMPDEST PUSH0 PUSH1 0x20 DUP3 ADD SWAP1 POP DUP2 DUP2 SUB PUSH0 DUP4 ADD MSTORE PUSH2 0x14B9 DUP2 DUP5 PUSH2 0x1109 JUMP JUMPDEST SWAP1 POP SWAP3 SWAP2 POP POP JUMP JUMPDEST PUSH32 0x5175616E74697479206E6F742056616C69642100000000000000000000000000 PUSH0 DUP3 ADD MSTORE POP JUMP JUMPDEST PUSH0 PUSH2 0x14F5 PUSH1 0x13 DUP4 PUSH2 0x10C1 JUMP JUMPDEST SWAP2 POP PUSH2 0x1500 DUP3 PUSH2 0x14C1 JUMP JUMPDEST PUSH1 0x20 DUP3 ADD SWAP1 POP SWAP2 SWAP1 POP JUMP JUMPDEST PUSH0 PUSH1 0x20 DUP3 ADD SWAP1 POP DUP2 DUP2 SUB PUSH0 DUP4 ADD MSTORE PUSH2 0x1522 DUP2 PUSH2 0x14E9 JUMP JUMPDEST SWAP1 POP SWAP2 SWAP1 POP JUMP JUMPDEST PUSH32 0x4E487B7100000000000000000000000000000000000000000000000000000000 PUSH0 MSTORE PUSH1 0x22 PUSH1 0x4 MSTORE PUSH1 0x24 PUSH0 REVERT JUMPDEST PUSH0 PUSH1 0x2 DUP3 DIV SWAP1 POP PUSH1 0x1 DUP3 AND DUP1 PUSH2 0x156D JUMPI PUSH1 0x7F DUP3 AND SWAP2 POP JUMPDEST PUSH1 0x20 DUP3 LT DUP2 SUB PUSH2 0x1580 JUMPI PUSH2 0x157F PUSH2 0x1529 JUMP JUMPDEST JUMPDEST POP SWAP2 SWAP1 POP JUMP JUMPDEST PUSH32 0x436F6E74726F6C6C6F2064656C6C61205175616E746974612720646120757469 PUSH0 DUP3 ADD MSTORE PUSH32 0x6C697A7A617265206E6F6E20616E6461746120612062756F6E2066696E652100 PUSH1 0x20 DUP3 ADD MSTORE POP JUMP JUMPDEST PUSH0 PUSH2 0x15E0 PUSH1 0x3F DUP4 PUSH2 0x10C1 JUMP JUMPDEST SWAP2 POP PUSH2 0x15EB DUP3 PUSH2 0x1586 JUMP JUMPDEST PUSH1 0x40 DUP3 ADD SWAP1 POP SWAP2 SWAP1 POP JUMP JUMPDEST PUSH0 PUSH1 0x20 DUP3 ADD SWAP1 POP DUP2 DUP2 SUB PUSH0 DUP4 ADD MSTORE PUSH2 0x160D DUP2 PUSH2 0x15D4 JUMP JUMPDEST SWAP1 POP SWAP2 SWAP1 POP JUMP JUMPDEST PUSH32 0x50617274697461206469204C61747465206E6F6E2070726573656E7465210000 PUSH0 DUP3 ADD MSTORE POP JUMP JUMPDEST PUSH0 PUSH2 0x1648 PUSH1 0x1E DUP4 PUSH2 0x10C1 JUMP JUMPDEST SWAP2 POP PUSH2 0x1653 DUP3 PUSH2 0x1614 JUMP JUMPDEST PUSH1 0x20 DUP3 ADD SWAP1 POP SWAP2 SWAP1 POP JUMP JUMPDEST PUSH0 PUSH1 0x20 DUP3 ADD SWAP1 POP DUP2 DUP2 SUB PUSH0 DUP4 ADD MSTORE PUSH2 0x1675 DUP2 PUSH2 0x163C JUMP JUMPDEST SWAP1 POP SWAP2 SWAP1 POP JUMP JUMPDEST PUSH0 DUP2 SWAP1 POP SWAP2 SWAP1 POP JUMP JUMPDEST PUSH2 0x1696 PUSH2 0x1691 DUP3 PUSH2 0xF8C JUMP JUMPDEST PUSH2 0x167C JUMP JUMPDEST DUP3 MSTORE POP POP JUMP JUMPDEST PUSH0 DUP2 SWAP1 POP SWAP3 SWAP2 POP POP JUMP JUMPDEST PUSH0 PUSH2 0x16B0 DUP3 PUSH2 0x10B7 JUMP JUMPDEST PUSH2 0x16BA DUP2 DUP6 PUSH2 0x169C JUMP JUMPDEST SWAP4 POP PUSH2 0x16CA DUP2 DUP6 PUSH1 0x20 DUP7 ADD PUSH2 0x10D1 JUMP JUMPDEST DUP1 DUP5 ADD SWAP2 POP POP SWAP3 SWAP2 POP POP JUMP JUMPDEST PUSH0 DUP2 PUSH1 0x60 SHL SWAP1 POP SWAP2 SWAP1 POP JUMP JUMPDEST PUSH0 PUSH2 0x16EC DUP3 PUSH2 0x16D6 JUMP JUMPDEST SWAP1 POP SWAP2 SWAP1 POP JUMP JUMPDEST PUSH0 PUSH2 0x16FD DUP3 PUSH2 0x16E2 JUMP JUMPDEST SWAP1 POP SWAP2 SWAP1 POP JUMP JUMPDEST PUSH2 0x1715 PUSH2 0x1710 DUP3 PUSH2 0xF51 JUMP JUMPDEST PUSH2 0x16F3 JUMP JUMPDEST DUP3 MSTORE POP POP JUMP JUMPDEST PUSH0 PUSH2 0x1726 DUP3 DUP10 PUSH2 0x1685 JUMP JUMPDEST PUSH1 0x20 DUP3 ADD SWAP2 POP PUSH2 0x1736 DUP3 DUP9 PUSH2 0x16A6 JUMP JUMPDEST SWAP2 POP PUSH2 0x1742 DUP3 DUP8 PUSH2 0x1704 JUMP JUMPDEST PUSH1 0x14 DUP3 ADD SWAP2 POP PUSH2 0x1752 DUP3 DUP7 PUSH2 0x1704 JUMP JUMPDEST PUSH1 0x14 DUP3 ADD SWAP2 POP PUSH2 0x1762 DUP3 DUP6 PUSH2 0x1685 JUMP JUMPDEST PUSH1 0x20 DUP3 ADD SWAP2 POP PUSH2 0x1772 DUP3 DUP5 PUSH2 0x1685 JUMP JUMPDEST PUSH1 0x20 DUP3 ADD SWAP2 POP DUP2 SWAP1 POP SWAP8 SWAP7 POP POP POP POP POP POP POP JUMP JUMPDEST PUSH32 0x50617274697461206469204C6174746520676961272070726573656E74652100 PUSH0 DUP3 ADD MSTORE POP JUMP JUMPDEST PUSH0 PUSH2 0x17BA PUSH1 0x1F DUP4 PUSH2 0x10C1 JUMP JUMPDEST SWAP2 POP PUSH2 0x17C5 DUP3 PUSH2 0x1786 JUMP JUMPDEST PUSH1 0x20 DUP3 ADD SWAP1 POP SWAP2 SWAP1 POP JUMP JUMPDEST PUSH0 PUSH1 0x20 DUP3 ADD SWAP1 POP DUP2 DUP2 SUB PUSH0 DUP4 ADD MSTORE PUSH2 0x17E7 DUP2 PUSH2 0x17AE JUMP JUMPDEST SWAP1 POP SWAP2 SWAP1 POP JUMP JUMPDEST PUSH0 DUP2 SWAP1 POP DUP2 PUSH0 MSTORE PUSH1 0x20 PUSH0 KECCAK256 SWAP1 POP SWAP2 SWAP1 POP JUMP JUMPDEST PUSH0 PUSH1 0x20 PUSH1 0x1F DUP4 ADD DIV SWAP1 POP SWAP2 SWAP1 POP JUMP JUMPDEST PUSH0 DUP3 DUP3 SHL SWAP1 POP SWAP3 SWAP2 POP POP JUMP JUMPDEST PUSH0 PUSH1 0x8 DUP4 MUL PUSH2 0x184A PUSH32 0xFFFFFFFFFFFFFFFFFFFFFFFFFFFFFFFFFFFFFFFFFFFFFFFFFFFFFFFFFFFFFFFF DUP3 PUSH2 0x180F JUMP JUMPDEST PUSH2 0x1854 DUP7 DUP4 PUSH2 0x180F JUMP JUMPDEST SWAP6 POP DUP1 NOT DUP5 AND SWAP4 POP DUP1 DUP7 AND DUP5 OR SWAP3 POP POP POP SWAP4 SWAP3 POP POP POP JUMP JUMPDEST PUSH0 DUP2 SWAP1 POP SWAP2 SWAP1 POP JUMP JUMPDEST PUSH0 PUSH2 0x188F PUSH2 0x188A PUSH2 0x1885 DUP5 PUSH2 0xF8C JUMP JUMPDEST PUSH2 0x186C JUMP JUMPDEST PUSH2 0xF8C JUMP JUMPDEST SWAP1 POP SWAP2 SWAP1 POP JUMP JUMPDEST PUSH0 DUP2 SWAP1 POP SWAP2 SWAP1 POP JUMP JUMPDEST PUSH2 0x18A8 DUP4 PUSH2 0x1875 JUMP JUMPDEST PUSH2 0x18BC PUSH2 0x18B4 DUP3 PUSH2 0x1896 JUMP JUMPDEST DUP5 DUP5 SLOAD PUSH2 0x181B JUMP JUMPDEST DUP3 SSTORE POP POP POP POP JUMP JUMPDEST PUSH0 SWAP1 JUMP JUMPDEST PUSH2 0x18D0 PUSH2 0x18C4 JUMP JUMPDEST PUSH2 0x18DB DUP2 DUP5 DUP5 PUSH2 0x189F JUMP JUMPDEST POP POP POP JUMP JUMPDEST JUMPDEST DUP2 DUP2 LT ISZERO PUSH2 0x18FE JUMPI PUSH2 0x18F3 PUSH0 DUP3 PUSH2 0x18C8 JUMP JUMPDEST PUSH1 0x1 DUP2 ADD SWAP1 POP PUSH2 0x18E1 JUMP JUMPDEST POP POP JUMP JUMPDEST PUSH1 0x1F DUP3 GT ISZERO PUSH2 0x1943 JUMPI PUSH2 0x1914 DUP2 PUSH2 0x17EE JUMP JUMPDEST PUSH2 0x191D DUP5 PUSH2 0x1800 JUMP JUMPDEST DUP2 ADD PUSH1 0x20 DUP6 LT ISZERO PUSH2 0x192C JUMPI DUP2 SWAP1 POP JUMPDEST PUSH2 0x1940 PUSH2 0x1938 DUP6 PUSH2 0x1800 JUMP JUMPDEST DUP4 ADD DUP3 PUSH2 0x18E0 JUMP JUMPDEST POP POP JUMPDEST POP POP POP JUMP JUMPDEST PUSH0 DUP3 DUP3 SHR SWAP1 POP SWAP3 SWAP2 POP POP JUMP JUMPDEST PUSH0 PUSH2 0x1963 PUSH0 NOT DUP5 PUSH1 0x8 MUL PUSH2 0x1948 JUMP JUMPDEST NOT DUP1 DUP4 AND SWAP2 POP POP SWAP3 SWAP2 POP POP JUMP JUMPDEST PUSH0 PUSH2 0x197B DUP4 DUP4 PUSH2 0x1954 JUMP JUMPDEST SWAP2 POP DUP3 PUSH1 0x2 MUL DUP3 OR SWAP1 POP SWAP3 SWAP2 POP POP JUMP JUMPDEST PUSH2 0x1994 DUP3 PUSH2 0x10B7 JUMP JUMPDEST PUSH8 0xFFFFFFFFFFFFFFFF DUP2 GT ISZERO PUSH2 0x19AD JUMPI PUSH2 0x19AC PUSH2 0x1295 JUMP JUMPDEST JUMPDEST PUSH2 0x19B7 DUP3 SLOAD PUSH2 0x1556 JUMP JUMPDEST PUSH2 0x19C2 DUP3 DUP3 DUP6 PUSH2 0x1902 JUMP JUMPDEST PUSH0 PUSH1 0x20 SWAP1 POP PUSH1 0x1F DUP4 GT PUSH1 0x1 DUP2 EQ PUSH2 0x19F3 JUMPI PUSH0 DUP5 ISZERO PUSH2 0x19E1 JUMPI DUP3 DUP8 ADD MLOAD SWAP1 POP JUMPDEST PUSH2 0x19EB DUP6 DUP3 PUSH2 0x1970 JUMP JUMPDEST DUP7 SSTORE POP PUSH2 0x1A52 JUMP JUMPDEST PUSH1 0x1F NOT DUP5 AND PUSH2 0x1A01 DUP7 PUSH2 0x17EE JUMP JUMPDEST PUSH0 JUMPDEST DUP3 DUP2 LT ISZERO PUSH2 0x1A28 JUMPI DUP5 DUP10 ADD MLOAD DUP3 SSTORE PUSH1 0x1 DUP3 ADD SWAP2 POP PUSH1 0x20 DUP6 ADD SWAP5 POP PUSH1 0x20 DUP2 ADD SWAP1 POP PUSH2 0x1A03 JUMP JUMPDEST DUP7 DUP4 LT ISZERO PUSH2 0x1A45 JUMPI DUP5 DUP10 ADD MLOAD PUSH2 0x1A41 PUSH1 0x1F DUP10 AND DUP3 PUSH2 0x1954 JUMP JUMPDEST DUP4 SSTORE POP JUMPDEST PUSH1 0x1 PUSH1 0x2 DUP9 MUL ADD DUP9 SSTORE POP POP POP JUMPDEST POP POP POP POP POP POP JUMP JUMPDEST PUSH32 0x494420436865657365204E6F742056616C696421000000000000000000000000 PUSH0 DUP3 ADD MSTORE POP JUMP JUMPDEST PUSH0 PUSH2 0x1A8E PUSH1 0x14 DUP4 PUSH2 0x10C1 JUMP JUMPDEST SWAP2 POP PUSH2 0x1A99 DUP3 PUSH2 0x1A5A JUMP JUMPDEST PUSH1 0x20 DUP3 ADD SWAP1 POP SWAP2 SWAP1 POP JUMP JUMPDEST PUSH0 PUSH1 0x20 DUP3 ADD SWAP1 POP DUP2 DUP2 SUB PUSH0 DUP4 ADD MSTORE PUSH2 0x1ABB DUP2 PUSH2 0x1A82 JUMP JUMPDEST SWAP1 POP SWAP2 SWAP1 POP JUMP INVALID LOG2 PUSH5 0x6970667358 0x22 SLT KECCAK256 0xC4 0xBD EXTCODESIZE 0xEA 0xCA DUP7 SLT PUSH12 0xE125C611DACC96276845F969 STATICCALL 0xD PUSH20 0xFE17EBD15EF9D979D264736F6C63430008160033 "
				},
				"gasEstimates": {
					"creation": {
						"codeDepositCost": "1380800",
						"executionCost": "25701",
						"totalCost": "1406501"
					},
					"external": {
						"addCheeseBlock(address,address,uint256,string,uint256)": "infinite",
						"checkCheese(address,uint256,uint256)": "infinite",
						"checkQuantity(address,uint256,uint256)": "infinite",
						"getCheeseBlock(address,uint256)": "infinite",
						"getDop(address,uint256)": "infinite",
						"getId(address,uint256)": "infinite",
						"getListCheeseIdPurchasedByRetailer(address)": "infinite",
						"getQuantity(address,uint256)": "infinite",
						"getWalletCheeseProducer(address,uint256)": "infinite",
						"isCheesePresent(address,uint256)": "3237",
						"updateCheeseQuantity(address,uint256,uint256)": "infinite"
					}
				},
				"methodIdentifiers": {
					"addCheeseBlock(address,address,uint256,string,uint256)": "8b3c04ce",
					"checkCheese(address,uint256,uint256)": "7745770a",
					"checkQuantity(address,uint256,uint256)": "0803da24",
					"getCheeseBlock(address,uint256)": "6fb82e06",
					"getDop(address,uint256)": "f93bd021",
					"getId(address,uint256)": "c5d3e11d",
					"getListCheeseIdPurchasedByRetailer(address)": "738533ae",
					"getQuantity(address,uint256)": "1e073fcf",
					"getWalletCheeseProducer(address,uint256)": "cc231726",
					"isCheesePresent(address,uint256)": "cfa41ed0",
					"updateCheeseQuantity(address,uint256,uint256)": "453ecf04"
				}
			},
			"storageLayout": {
				"storage": [
					{
						"astId": 3,
						"contract": "contracts/Actor/Retailer-smart-contract/inventory/RetailerBuyerStorage.sol:RetailerBuyerStorage",
						"label": "RetailerOrg",
						"offset": 0,
						"slot": "0",
						"type": "t_address"
					},
					{
						"astId": 30,
						"contract": "contracts/Actor/Retailer-smart-contract/inventory/RetailerBuyerStorage.sol:RetailerBuyerStorage",
						"label": "purchasedCheeseBlocks",
						"offset": 0,
						"slot": "1",
						"type": "t_mapping(t_address,t_mapping(t_uint256,t_struct(Cheese)23_storage))"
					},
					{
						"astId": 35,
						"contract": "contracts/Actor/Retailer-smart-contract/inventory/RetailerBuyerStorage.sol:RetailerBuyerStorage",
						"label": "purchasedCheeseBlockListBySingleRetailer",
						"offset": 0,
						"slot": "2",
						"type": "t_mapping(t_address,t_array(t_uint256)dyn_storage)"
					}
				],
				"types": {
					"t_address": {
						"encoding": "inplace",
						"label": "address",
						"numberOfBytes": "20"
					},
					"t_array(t_uint256)dyn_storage": {
						"base": "t_uint256",
						"encoding": "dynamic_array",
						"label": "uint256[]",
						"numberOfBytes": "32"
					},
					"t_mapping(t_address,t_array(t_uint256)dyn_storage)": {
						"encoding": "mapping",
						"key": "t_address",
						"label": "mapping(address => uint256[])",
						"numberOfBytes": "32",
						"value": "t_array(t_uint256)dyn_storage"
					},
					"t_mapping(t_address,t_mapping(t_uint256,t_struct(Cheese)23_storage))": {
						"encoding": "mapping",
						"key": "t_address",
						"label": "mapping(address => mapping(uint256 => struct RetailerBuyerStorage.Cheese))",
						"numberOfBytes": "32",
						"value": "t_mapping(t_uint256,t_struct(Cheese)23_storage)"
					},
					"t_mapping(t_uint256,t_struct(Cheese)23_storage)": {
						"encoding": "mapping",
						"key": "t_uint256",
						"label": "mapping(uint256 => struct RetailerBuyerStorage.Cheese)",
						"numberOfBytes": "32",
						"value": "t_struct(Cheese)23_storage"
					},
					"t_string_storage": {
						"encoding": "bytes",
						"label": "string",
						"numberOfBytes": "32"
					},
					"t_struct(Cheese)23_storage": {
						"encoding": "inplace",
						"label": "struct RetailerBuyerStorage.Cheese",
						"members": [
							{
								"astId": 14,
								"contract": "contracts/Actor/Retailer-smart-contract/inventory/RetailerBuyerStorage.sol:RetailerBuyerStorage",
								"label": "id",
								"offset": 0,
								"slot": "0",
								"type": "t_uint256"
							},
							{
								"astId": 16,
								"contract": "contracts/Actor/Retailer-smart-contract/inventory/RetailerBuyerStorage.sol:RetailerBuyerStorage",
								"label": "id_CheeseBlock",
								"offset": 0,
								"slot": "1",
								"type": "t_uint256"
							},
							{
								"astId": 18,
								"contract": "contracts/Actor/Retailer-smart-contract/inventory/RetailerBuyerStorage.sol:RetailerBuyerStorage",
								"label": "walletCheeseProducer",
								"offset": 0,
								"slot": "2",
								"type": "t_address"
							},
							{
								"astId": 20,
								"contract": "contracts/Actor/Retailer-smart-contract/inventory/RetailerBuyerStorage.sol:RetailerBuyerStorage",
								"label": "dop",
								"offset": 0,
								"slot": "3",
								"type": "t_string_storage"
							},
							{
								"astId": 22,
								"contract": "contracts/Actor/Retailer-smart-contract/inventory/RetailerBuyerStorage.sol:RetailerBuyerStorage",
								"label": "quantity",
								"offset": 0,
								"slot": "4",
								"type": "t_uint256"
							}
						],
						"numberOfBytes": "160"
					},
					"t_uint256": {
						"encoding": "inplace",
						"label": "uint256",
						"numberOfBytes": "32"
					}
				}
			},
			"userdoc": {
				"kind": "user",
				"methods": {
					"addCheeseBlock(address,address,uint256,string,uint256)": {
						"notice": "Funzione addCheese() -> Utilizzata dal Transaction Manager per poter inserire il Cheese Acquistato  Scollego questa logica, ammettendo che il CheeseProducer può testare la logica di conversione  params :  - walletCheeseProducer -> mi serve per il mapping  - walletCheeseProducer -> mi serve per creare il nuovo elemento   - id_cheese -> mi serve per il riferimento all'elemento acquistato"
					},
					"isCheesePresent(address,uint256)": {
						"notice": "Funzione per la verifica dell'esistenza del prodotto Cheese acquistato  - ritorna TRUE se esiste  - ritorna FALSe se non esiste  - effettua il controllo sull'uguaglianza dell'id del Cheese Acquistato"
					}
				},
				"version": 1
			}
		}
	}
}