{
  "contractName": "AccessControlProductMilkBatch",
  "abi": [
    {
      "inputs": [
        {
          "internalType": "address",
          "name": "_cheeseProducerService",
          "type": "address"
        }
      ],
      "stateMutability": "nonpayable",
      "type": "constructor"
    },
    {
      "inputs": [
        {
          "internalType": "address",
          "name": "walletCheeseProducer",
          "type": "address"
        }
      ],
      "name": "checkViewMilkBatchProduct",
      "outputs": [
        {
          "internalType": "bool",
          "name": "",
          "type": "bool"
        }
      ],
      "stateMutability": "view",
      "type": "function"
    }
  ],
  "bytecode": "0x608060405234801561001057600080fd5b50604051610458380380610458833981810160405281019061003291906100db565b806000806101000a81548173ffffffffffffffffffffffffffffffffffffffff021916908373ffffffffffffffffffffffffffffffffffffffff16021790555050610108565b600080fd5b600073ffffffffffffffffffffffffffffffffffffffff82169050919050565b60006100a88261007d565b9050919050565b6100b88161009d565b81146100c357600080fd5b50565b6000815190506100d5816100af565b92915050565b6000602082840312156100f1576100f0610078565b5b60006100ff848285016100c6565b91505092915050565b610341806101176000396000f3fe608060405234801561001057600080fd5b506004361061002b5760003560e01c806348308b6614610030575b600080fd5b61004a600480360381019061004591906101a8565b610060565b60405161005791906101f0565b60405180910390f35b60008060009054906101000a900473ffffffffffffffffffffffffffffffffffffffff1673ffffffffffffffffffffffffffffffffffffffff1663a5578807836040518263ffffffff1660e01b81526004016100bc919061021a565b602060405180830381865afa1580156100d9573d6000803e3d6000fd5b505050506040513d601f19601f820116820180604052508101906100fd9190610261565b61013c576040517f08c379a0000000000000000000000000000000000000000000000000000000008152600401610133906102eb565b60405180910390fd5b60019050919050565b600080fd5b600073ffffffffffffffffffffffffffffffffffffffff82169050919050565b60006101758261014a565b9050919050565b6101858161016a565b811461019057600080fd5b50565b6000813590506101a28161017c565b92915050565b6000602082840312156101be576101bd610145565b5b60006101cc84828501610193565b91505092915050565b60008115159050919050565b6101ea816101d5565b82525050565b600060208201905061020560008301846101e1565b92915050565b6102148161016a565b82525050565b600060208201905061022f600083018461020b565b92915050565b61023e816101d5565b811461024957600080fd5b50565b60008151905061025b81610235565b92915050565b60006020828403121561027757610276610145565b5b60006102858482850161024c565b91505092915050565b600082825260208201905092915050565b7f5574656e7465206e6f6e206175746f72697a7a61746f21000000000000000000600082015250565b60006102d560178361028e565b91506102e08261029f565b602082019050919050565b60006020820190508181036000830152610304816102c8565b905091905056fea2646970667358221220dcd9123836ddf1f66aab547c5d34ae8d0ccffc273249fb211d7c14542b9aa60f64736f6c63430008180033",
  "immutableReferences": {},
  "source": "//SPDX-License-Identifier: MIT\r\n\r\npragma solidity ^0.8.21;\r\n\r\nimport \"../../Actor/CheeseProducer-smart-contract/CheeseProducerService.sol\";\r\n\r\ncontract AccessControlProductMilkBatch{\r\n\r\n    CheeseProducerService private cheeseProducerService;\r\n\r\n    constructor(\r\n        address _cheeseProducerService\r\n    ){\r\n        cheeseProducerService = CheeseProducerService(_cheeseProducerService);\r\n    }\r\n\r\n    function checkViewMilkBatchProduct(address walletCheeseProducer) external view returns (bool){\r\n        require(cheeseProducerService.isUserPresent(walletCheeseProducer),\"Utente non autorizzato!\");\r\n        return true;\r\n    }\r\n}",
  "sourcePath": "C:\\Users\\umber\\Progetti\\FilieraToken\\Filiera-Token-Smart-Contract\\contracts\\Service\\access-control-product\\AccessControlProductMilkBatch.sol",
  "compiler": {
    "name": "solc",
    "version": "0.8.24+commit.e11b9ed9.Emscripten.clang"
  },
  "schemaVersion": "3.4.16",
  "updatedAt": "2024-03-03T13:48:04.218Z",
  "devdoc": {
    "kind": "dev",
    "methods": {},
    "version": 1
  },
  "userdoc": {
    "kind": "user",
    "methods": {},
    "version": 1
  }
}