{
  "contractName": "AccessControlProduct",
  "abi": [
    {
      "inputs": [
        {
          "internalType": "address",
          "name": "_cheeseProducerService",
          "type": "address"
        },
        {
          "internalType": "address",
          "name": "_retailerService",
          "type": "address"
        },
        {
          "internalType": "address",
          "name": "_consumerService",
          "type": "address"
        }
      ],
      "stateMutability": "nonpayable",
      "type": "constructor"
    },
    {
      "inputs": [
        {
          "internalType": "address",
          "name": "walletCheeseProducer",
          "type": "address"
        }
      ],
      "name": "checkViewMilkBatchProduct",
      "outputs": [
        {
          "internalType": "bool",
          "name": "",
          "type": "bool"
        }
      ],
      "stateMutability": "view",
      "type": "function"
    },
    {
      "inputs": [
        {
          "internalType": "address",
          "name": "walletRetailer",
          "type": "address"
        }
      ],
      "name": "checkViewCheeseBlockProduct",
      "outputs": [
        {
          "internalType": "bool",
          "name": "",
          "type": "bool"
        }
      ],
      "stateMutability": "view",
      "type": "function"
    },
    {
      "inputs": [
        {
          "internalType": "address",
          "name": "walletConsumer",
          "type": "address"
        }
      ],
      "name": "checkViewCheesePieceProduct",
      "outputs": [
        {
          "internalType": "bool",
          "name": "",
          "type": "bool"
        }
      ],
      "stateMutability": "view",
      "type": "function"
    }
  ],
  "bytecode": "0x608060405234801561001057600080fd5b506040516107443803806107448339818101604052810190610032919061015f565b826000806101000a81548173ffffffffffffffffffffffffffffffffffffffff021916908373ffffffffffffffffffffffffffffffffffffffff16021790555081600160006101000a81548173ffffffffffffffffffffffffffffffffffffffff021916908373ffffffffffffffffffffffffffffffffffffffff16021790555080600260006101000a81548173ffffffffffffffffffffffffffffffffffffffff021916908373ffffffffffffffffffffffffffffffffffffffff1602179055505050506101b2565b600080fd5b600073ffffffffffffffffffffffffffffffffffffffff82169050919050565b600061012c82610101565b9050919050565b61013c81610121565b811461014757600080fd5b50565b60008151905061015981610133565b92915050565b600080600060608486031215610178576101776100fc565b5b60006101868682870161014a565b93505060206101978682870161014a565b92505060406101a88682870161014a565b9150509250925092565b610583806101c16000396000f3fe608060405234801561001057600080fd5b50600436106100415760003560e01c806348308b6614610046578063d9824c2d14610076578063fe174e3a146100a6575b600080fd5b610060600480360381019061005b91906103ea565b6100d6565b60405161006d9190610432565b60405180910390f35b610090600480360381019061008b91906103ea565b6101bb565b60405161009d9190610432565b60405180910390f35b6100c060048036038101906100bb91906103ea565b6102a1565b6040516100cd9190610432565b60405180910390f35b60008060009054906101000a900473ffffffffffffffffffffffffffffffffffffffff1673ffffffffffffffffffffffffffffffffffffffff1663a5578807836040518263ffffffff1660e01b8152600401610132919061045c565b602060405180830381865afa15801561014f573d6000803e3d6000fd5b505050506040513d601f19601f8201168201806040525081019061017391906104a3565b6101b2576040517f08c379a00000000000000000000000000000000000000000000000000000000081526004016101a99061052d565b60405180910390fd5b60019050919050565b6000600260009054906101000a900473ffffffffffffffffffffffffffffffffffffffff1673ffffffffffffffffffffffffffffffffffffffff1663a5578807836040518263ffffffff1660e01b8152600401610218919061045c565b602060405180830381865afa158015610235573d6000803e3d6000fd5b505050506040513d601f19601f8201168201806040525081019061025991906104a3565b610298576040517f08c379a000000000000000000000000000000000000000000000000000000000815260040161028f9061052d565b60405180910390fd5b60019050919050565b6000600160009054906101000a900473ffffffffffffffffffffffffffffffffffffffff1673ffffffffffffffffffffffffffffffffffffffff1663a5578807836040518263ffffffff1660e01b81526004016102fe919061045c565b602060405180830381865afa15801561031b573d6000803e3d6000fd5b505050506040513d601f19601f8201168201806040525081019061033f91906104a3565b61037e576040517f08c379a00000000000000000000000000000000000000000000000000000000081526004016103759061052d565b60405180910390fd5b60019050919050565b600080fd5b600073ffffffffffffffffffffffffffffffffffffffff82169050919050565b60006103b78261038c565b9050919050565b6103c7816103ac565b81146103d257600080fd5b50565b6000813590506103e4816103be565b92915050565b600060208284031215610400576103ff610387565b5b600061040e848285016103d5565b91505092915050565b60008115159050919050565b61042c81610417565b82525050565b60006020820190506104476000830184610423565b92915050565b610456816103ac565b82525050565b6000602082019050610471600083018461044d565b92915050565b61048081610417565b811461048b57600080fd5b50565b60008151905061049d81610477565b92915050565b6000602082840312156104b9576104b8610387565b5b60006104c78482850161048e565b91505092915050565b600082825260208201905092915050565b7f5574656e7465206e6f6e206175746f72697a7a61746f21000000000000000000600082015250565b60006105176017836104d0565b9150610522826104e1565b602082019050919050565b600060208201905081810360008301526105468161050a565b905091905056fea264697066735822122002f23487e8d3d3703a152fc708140f9a28b07705b4cae02840dde5cb4396251464736f6c63430008180033",
  "immutableReferences": {},
  "source": "//SPDX-License-Identifier: MIT\n\npragma solidity ^0.8.21;\n\nimport \"../Actor/CheeseProducer-smart-contract/CheeseProducerService.sol\";\nimport \"../Actor/Consumer-smart-contract/ConsumerService.sol\";\nimport \"../Actor/Retailer-smart-contract/RetailerService.sol\";\n\ncontract AccessControlProduct{\n\n    CheeseProducerService private cheeseProducerService;\n\n    RetailerService private retailerService;\n\n    ConsumerService private consumerService;\n\n    constructor(\n        address _cheeseProducerService,\n        address _retailerService,\n        address _consumerService\n    ){\n        cheeseProducerService = CheeseProducerService(_cheeseProducerService);\n        retailerService = RetailerService(_retailerService);\n        consumerService = ConsumerService(_consumerService);\n    }\n\n\n    function checkViewMilkBatchProduct(address walletCheeseProducer) external view returns (bool){\n        require(cheeseProducerService.isUserPresent(walletCheeseProducer),\"Utente non autorizzato!\");\n        return true;\n    }\n    \n    function checkViewCheeseBlockProduct(address walletRetailer)external view returns (bool){\n        require(retailerService.isUserPresent(walletRetailer),\"Utente non autorizzato!\");\n        return true;\n    }\n\n    function checkViewCheesePieceProduct(address walletConsumer)external view returns (bool){\n        require(consumerService.isUserPresent(walletConsumer),\"Utente non autorizzato!\");\n        return true;\n    }\n}",
  "sourcePath": "/home/leone-pc/Documenti/GitHub/FilieraToken/Filiera-Token-Smart-Contract/contracts/Service/AccessControlProduct.sol",
  "compiler": {
    "name": "solc",
    "version": "0.8.24+commit.e11b9ed9.Emscripten.clang"
  },
  "schemaVersion": "3.4.16",
  "updatedAt": "2024-02-27T23:21:51.471Z",
  "devdoc": {
    "kind": "dev",
    "methods": {},
    "version": 1
  },
  "userdoc": {
    "kind": "user",
    "methods": {},
    "version": 1
  }
}