{
  "contractName": "CheeseProducerInventoryStorage",
  "abi": [
    {
      "inputs": [],
      "stateMutability": "nonpayable",
      "type": "constructor"
    },
    {
      "inputs": [
        {
          "internalType": "address",
          "name": "walletCheeseProducer",
          "type": "address"
        },
        {
          "internalType": "string",
          "name": "dop",
          "type": "string"
        },
        {
          "internalType": "uint256",
          "name": "price",
          "type": "uint256"
        },
        {
          "internalType": "uint256",
          "name": "quantity",
          "type": "uint256"
        }
      ],
      "name": "addCheeseBlock",
      "outputs": [
        {
          "internalType": "uint256",
          "name": "",
          "type": "uint256"
        },
        {
          "internalType": "string",
          "name": "",
          "type": "string"
        },
        {
          "internalType": "uint256",
          "name": "",
          "type": "uint256"
        },
        {
          "internalType": "uint256",
          "name": "",
          "type": "uint256"
        }
      ],
      "stateMutability": "nonpayable",
      "type": "function"
    },
    {
      "inputs": [
        {
          "internalType": "address",
          "name": "walletCheeseProducer",
          "type": "address"
        },
        {
          "internalType": "uint256",
          "name": "id",
          "type": "uint256"
        }
      ],
      "name": "getCheeseBlock",
      "outputs": [
        {
          "internalType": "uint256",
          "name": "",
          "type": "uint256"
        },
        {
          "internalType": "string",
          "name": "",
          "type": "string"
        },
        {
          "internalType": "uint256",
          "name": "",
          "type": "uint256"
        },
        {
          "internalType": "uint256",
          "name": "",
          "type": "uint256"
        }
      ],
      "stateMutability": "view",
      "type": "function"
    },
    {
      "inputs": [
        {
          "internalType": "address",
          "name": "walletCheeseProducer",
          "type": "address"
        },
        {
          "internalType": "uint256",
          "name": "id",
          "type": "uint256"
        }
      ],
      "name": "deleteCheeseBlock",
      "outputs": [
        {
          "internalType": "bool",
          "name": "value",
          "type": "bool"
        }
      ],
      "stateMutability": "nonpayable",
      "type": "function"
    },
    {
      "inputs": [
        {
          "internalType": "address",
          "name": "walletCheeseProducer",
          "type": "address"
        },
        {
          "internalType": "uint256",
          "name": "idCheeseBlock",
          "type": "uint256"
        }
      ],
      "name": "isCheeseBlockPresent",
      "outputs": [
        {
          "internalType": "bool",
          "name": "",
          "type": "bool"
        }
      ],
      "stateMutability": "view",
      "type": "function"
    },
    {
      "inputs": [
        {
          "internalType": "address",
          "name": "walletCheeseProducer",
          "type": "address"
        },
        {
          "internalType": "uint256",
          "name": "id",
          "type": "uint256"
        }
      ],
      "name": "getDop",
      "outputs": [
        {
          "internalType": "string",
          "name": "",
          "type": "string"
        }
      ],
      "stateMutability": "view",
      "type": "function"
    },
    {
      "inputs": [
        {
          "internalType": "address",
          "name": "walletCheeseProducer",
          "type": "address"
        },
        {
          "internalType": "uint256",
          "name": "id",
          "type": "uint256"
        }
      ],
      "name": "getPrice",
      "outputs": [
        {
          "internalType": "uint256",
          "name": "",
          "type": "uint256"
        }
      ],
      "stateMutability": "view",
      "type": "function"
    },
    {
      "inputs": [
        {
          "internalType": "address",
          "name": "walletCheeseProducer",
          "type": "address"
        },
        {
          "internalType": "uint256",
          "name": "id",
          "type": "uint256"
        }
      ],
      "name": "getQuantity",
      "outputs": [
        {
          "internalType": "uint256",
          "name": "",
          "type": "uint256"
        }
      ],
      "stateMutability": "view",
      "type": "function"
    },
    {
      "inputs": [
        {
          "internalType": "address",
          "name": "walletCheeseProducer",
          "type": "address"
        }
      ],
      "name": "getUserCheeseBlockIds",
      "outputs": [
        {
          "internalType": "uint256[]",
          "name": "",
          "type": "uint256[]"
        }
      ],
      "stateMutability": "view",
      "type": "function"
    },
    {
      "inputs": [],
      "name": "getGlobalCheeseBlockIds",
      "outputs": [
        {
          "internalType": "uint256[]",
          "name": "",
          "type": "uint256[]"
        }
      ],
      "stateMutability": "view",
      "type": "function"
    },
    {
      "inputs": [
        {
          "internalType": "address",
          "name": "walletCheeseProducer",
          "type": "address"
        },
        {
          "internalType": "uint256",
          "name": "idCheese",
          "type": "uint256"
        },
        {
          "internalType": "uint256",
          "name": "newQuantity",
          "type": "uint256"
        }
      ],
      "name": "updateCheeseBlockQuantity",
      "outputs": [],
      "stateMutability": "nonpayable",
      "type": "function"
    }
  ],
  "bytecode": "0x608060405234801561001057600080fd5b50336000806101000a81548173ffffffffffffffffffffffffffffffffffffffff021916908373ffffffffffffffffffffffffffffffffffffffff16021790555061190d806100606000396000f3fe608060405234801561001057600080fd5b506004361061009e5760003560e01c806387dfc1201161006657806387dfc12014610182578063ab23e04a146101b2578063f437eff1146101e5578063f93bd02114610215578063fd5c469a146102455761009e565b80631e073fcf146100a3578063449e815d146100d35780634f0205bf146101035780636fb82e061461013357806377e94d9e14610166575b600080fd5b6100bd60048036038101906100b89190610e9f565b610263565b6040516100ca9190610eee565b60405180910390f35b6100ed60048036038101906100e89190610e9f565b610381565b6040516100fa9190610eee565b60405180910390f35b61011d60048036038101906101189190610e9f565b61049f565b60405161012a9190610f24565b60405180910390f35b61014d60048036038101906101489190610e9f565b61054e565b60405161015d9493929190610fcf565b60405180910390f35b610180600480360381019061017b919061101b565b61068a565b005b61019c6004803603810190610197919061106e565b61077d565b6040516101a99190611159565b60405180910390f35b6101cc60048036038101906101c791906112b0565b610814565b6040516101dc9493929190610fcf565b60405180910390f35b6101ff60048036038101906101fa9190610e9f565b6109b6565b60405161020c9190610f24565b60405180910390f35b61022f600480360381019061022a9190610e9f565b610ac6565b60405161023c9190611333565b60405180910390f35b61024d610be5565b60405161025a9190611159565b60405180910390f35b600080600160008573ffffffffffffffffffffffffffffffffffffffff1673ffffffffffffffffffffffffffffffffffffffff1681526020019081526020016000206000848152602001908152602001600020604051806080016040529081600082015481526020016001820180546102db90611384565b80601f016020809104026020016040519081016040528092919081815260200182805461030790611384565b80156103545780601f1061032957610100808354040283529160200191610354565b820191906000526020600020905b81548152906001019060200180831161033757829003601f168201915b50505050508152602001600282015481526020016003820154815250509050806060015191505092915050565b600080600160008573ffffffffffffffffffffffffffffffffffffffff1673ffffffffffffffffffffffffffffffffffffffff1681526020019081526020016000206000848152602001908152602001600020604051806080016040529081600082015481526020016001820180546103f990611384565b80601f016020809104026020016040519081016040528092919081815260200182805461042590611384565b80156104725780601f1061044757610100808354040283529160200191610472565b820191906000526020600020905b81548152906001019060200180831161045557829003601f168201915b50505050508152602001600282015481526020016003820154815250509050806040015191505092915050565b60008082141580156104b15750600082115b6104f0576040517f08c379a00000000000000000000000000000000000000000000000000000000081526004016104e790611401565b60405180910390fd5b81600160008573ffffffffffffffffffffffffffffffffffffffff1673ffffffffffffffffffffffffffffffffffffffff16815260200190815260200160002060008481526020019081526020016000206000015414905092915050565b600060606000806000600160008873ffffffffffffffffffffffffffffffffffffffff1673ffffffffffffffffffffffffffffffffffffffff1681526020019081526020016000206000878152602001908152602001600020604051806080016040529081600082015481526020016001820180546105cc90611384565b80601f01602080910402602001604051908101604052809291908181526020018280546105f890611384565b80156106455780601f1061061a57610100808354040283529160200191610645565b820191906000526020600020905b81548152906001019060200180831161062857829003601f168201915b50505050508152602001600282015481526020016003820154815250509050806000015181602001518260400151836060015194509450945094505092959194509250565b600160008473ffffffffffffffffffffffffffffffffffffffff1673ffffffffffffffffffffffffffffffffffffffff168152602001908152602001600020600083815260200190815260200160002060030154811115610720576040517f08c379a000000000000000000000000000000000000000000000000000000000815260040161071790611493565b60405180910390fd5b80600160008573ffffffffffffffffffffffffffffffffffffffff1673ffffffffffffffffffffffffffffffffffffffff168152602001908152602001600020600084815260200190815260200160002060030181905550505050565b6060600260008373ffffffffffffffffffffffffffffffffffffffff1673ffffffffffffffffffffffffffffffffffffffff16815260200190815260200160002080548060200260200160405190810160405280929190818152602001828054801561080857602002820191906000526020600020905b8154815260200190600101908083116107f4575b50505050509050919050565b6000606060008060008787878b42604051602001610836959493929190611558565b6040516020818303038152906040528051906020012060001c9050600060405180608001604052808381526020018a81526020018981526020018881525090506003829080600181540180825580915050600190039060005260206000200160009091909190915055600260008b73ffffffffffffffffffffffffffffffffffffffff1673ffffffffffffffffffffffffffffffffffffffff16815260200190815260200160002082908060018154018082558091505060019003906000526020600020016000909190919091505580600160008c73ffffffffffffffffffffffffffffffffffffffff1673ffffffffffffffffffffffffffffffffffffffff1681526020019081526020016000206000848152602001908152602001600020600082015181600001556020820151816001019081610975919061175f565b506040820151816002015560608201518160030155905050806000015181602001518260400151836060015195509550955095505050945094509450949050565b6000600160008473ffffffffffffffffffffffffffffffffffffffff1673ffffffffffffffffffffffffffffffffffffffff1681526020019081526020016000206000838152602001908152602001600020600080820160009055600182016000610a219190610d9a565b6002820160009055600382016000905550506000600160008573ffffffffffffffffffffffffffffffffffffffff1673ffffffffffffffffffffffffffffffffffffffff168152602001908152602001600020600084815260200190815260200160002060000154148015610a9b5750610a9a82610c3d565b5b8015610aad5750610aac8284610cae565b5b15610abb5760019050610ac0565b600090505b92915050565b60606000600160008573ffffffffffffffffffffffffffffffffffffffff1673ffffffffffffffffffffffffffffffffffffffff168152602001908152602001600020600084815260200190815260200160002060405180608001604052908160008201548152602001600182018054610b3f90611384565b80601f0160208091040260200160405190810160405280929190818152602001828054610b6b90611384565b8015610bb85780601f10610b8d57610100808354040283529160200191610bb8565b820191906000526020600020905b815481529060010190602001808311610b9b57829003601f168201915b50505050508152602001600282015481526020016003820154815250509050806020015191505092915050565b60606003805480602002602001604051908101604052809291908181526020018280548015610c3357602002820191906000526020600020905b815481526020019060010190808311610c1f575b5050505050905090565b600080600090505b8260038281548110610c5a57610c59611831565b5b906000526020600020015403610c965760038181548110610c7e57610c7d611831565b5b90600052602060002001600090556001915050610ca9565b8080610ca19061188f565b915050610c45565b919050565b600080600090505b83600260008573ffffffffffffffffffffffffffffffffffffffff1673ffffffffffffffffffffffffffffffffffffffff1681526020019081526020016000208281548110610d0857610d07611831565b5b906000526020600020015403610d8157600260008473ffffffffffffffffffffffffffffffffffffffff1673ffffffffffffffffffffffffffffffffffffffff1681526020019081526020016000208181548110610d6957610d68611831565b5b90600052602060002001600090556001915050610d94565b8080610d8c9061188f565b915050610cb6565b92915050565b508054610da690611384565b6000825580601f10610db85750610dd7565b601f016020900490600052602060002090810190610dd69190610dda565b5b50565b5b80821115610df3576000816000905550600101610ddb565b5090565b6000604051905090565b600080fd5b600080fd5b600073ffffffffffffffffffffffffffffffffffffffff82169050919050565b6000610e3682610e0b565b9050919050565b610e4681610e2b565b8114610e5157600080fd5b50565b600081359050610e6381610e3d565b92915050565b6000819050919050565b610e7c81610e69565b8114610e8757600080fd5b50565b600081359050610e9981610e73565b92915050565b60008060408385031215610eb657610eb5610e01565b5b6000610ec485828601610e54565b9250506020610ed585828601610e8a565b9150509250929050565b610ee881610e69565b82525050565b6000602082019050610f036000830184610edf565b92915050565b60008115159050919050565b610f1e81610f09565b82525050565b6000602082019050610f396000830184610f15565b92915050565b600081519050919050565b600082825260208201905092915050565b60005b83811015610f79578082015181840152602081019050610f5e565b60008484015250505050565b6000601f19601f8301169050919050565b6000610fa182610f3f565b610fab8185610f4a565b9350610fbb818560208601610f5b565b610fc481610f85565b840191505092915050565b6000608082019050610fe46000830187610edf565b8181036020830152610ff68186610f96565b90506110056040830185610edf565b6110126060830184610edf565b95945050505050565b60008060006060848603121561103457611033610e01565b5b600061104286828701610e54565b935050602061105386828701610e8a565b925050604061106486828701610e8a565b9150509250925092565b60006020828403121561108457611083610e01565b5b600061109284828501610e54565b91505092915050565b600081519050919050565b600082825260208201905092915050565b6000819050602082019050919050565b6110d081610e69565b82525050565b60006110e283836110c7565b60208301905092915050565b6000602082019050919050565b60006111068261109b565b61111081856110a6565b935061111b836110b7565b8060005b8381101561114c57815161113388826110d6565b975061113e836110ee565b92505060018101905061111f565b5085935050505092915050565b6000602082019050818103600083015261117381846110fb565b905092915050565b600080fd5b600080fd5b7f4e487b7100000000000000000000000000000000000000000000000000000000600052604160045260246000fd5b6111bd82610f85565b810181811067ffffffffffffffff821117156111dc576111db611185565b5b80604052505050565b60006111ef610df7565b90506111fb82826111b4565b919050565b600067ffffffffffffffff82111561121b5761121a611185565b5b61122482610f85565b9050602081019050919050565b82818337600083830152505050565b600061125361124e84611200565b6111e5565b90508281526020810184848401111561126f5761126e611180565b5b61127a848285611231565b509392505050565b600082601f8301126112975761129661117b565b5b81356112a7848260208601611240565b91505092915050565b600080600080608085870312156112ca576112c9610e01565b5b60006112d887828801610e54565b945050602085013567ffffffffffffffff8111156112f9576112f8610e06565b5b61130587828801611282565b935050604061131687828801610e8a565b925050606061132787828801610e8a565b91505092959194509250565b6000602082019050818103600083015261134d8184610f96565b905092915050565b7f4e487b7100000000000000000000000000000000000000000000000000000000600052602260045260246000fd5b6000600282049050600182168061139c57607f821691505b6020821081036113af576113ae611355565b5b50919050565b7f4944204d696c6b4261746368204e6f742056616c696421000000000000000000600082015250565b60006113eb601783610f4a565b91506113f6826113b5565b602082019050919050565b6000602082019050818103600083015261141a816113de565b9050919050565b7f436f6e74726f6c6c6f2064656c6c61205175616e74697461272064612075746960008201527f6c697a7a617265206e6f6e20616e6461746120612062756f6e2066696e652100602082015250565b600061147d603f83610f4a565b915061148882611421565b604082019050919050565b600060208201905081810360008301526114ac81611470565b9050919050565b600081905092915050565b60006114c982610f3f565b6114d381856114b3565b93506114e3818560208601610f5b565b80840191505092915050565b6000819050919050565b61150a61150582610e69565b6114ef565b82525050565b60008160601b9050919050565b600061152882611510565b9050919050565b600061153a8261151d565b9050919050565b61155261154d82610e2b565b61152f565b82525050565b600061156482886114be565b915061157082876114f9565b60208201915061158082866114f9565b6020820191506115908285611541565b6014820191506115a082846114f9565b6020820191508190509695505050505050565b60008190508160005260206000209050919050565b60006020601f8301049050919050565b600082821b905092915050565b6000600883026116157fffffffffffffffffffffffffffffffffffffffffffffffffffffffffffffffff826115d8565b61161f86836115d8565b95508019841693508086168417925050509392505050565b6000819050919050565b600061165c61165761165284610e69565b611637565b610e69565b9050919050565b6000819050919050565b61167683611641565b61168a61168282611663565b8484546115e5565b825550505050565b600090565b61169f611692565b6116aa81848461166d565b505050565b5b818110156116ce576116c3600082611697565b6001810190506116b0565b5050565b601f821115611713576116e4816115b3565b6116ed846115c8565b810160208510156116fc578190505b611710611708856115c8565b8301826116af565b50505b505050565b600082821c905092915050565b600061173660001984600802611718565b1980831691505092915050565b600061174f8383611725565b9150826002028217905092915050565b61176882610f3f565b67ffffffffffffffff81111561178157611780611185565b5b61178b8254611384565b6117968282856116d2565b600060209050601f8311600181146117c957600084156117b7578287015190505b6117c18582611743565b865550611829565b601f1984166117d7866115b3565b60005b828110156117ff578489015182556001820191506020850194506020810190506117da565b8683101561181c5784890151611818601f891682611725565b8355505b6001600288020188555050505b505050505050565b7f4e487b7100000000000000000000000000000000000000000000000000000000600052603260045260246000fd5b7f4e487b7100000000000000000000000000000000000000000000000000000000600052601160045260246000fd5b600061189a82610e69565b91507fffffffffffffffffffffffffffffffffffffffffffffffffffffffffffffffff82036118cc576118cb611860565b5b60018201905091905056fea2646970667358221220f530f29cbdbb7dc0f10d01ab1d95ed5655b87c09c436cc94b45473cae76d69fd64736f6c63430008180033",
  "immutableReferences": {},
  "source": "// SPDX-License-Identifier: MIT\npragma solidity ^0.8.0;\n\ncontract CheeseProducerInventoryStorage {\n\n    // Address of Organization che gestisce gli utenti\n    address private cheeseProducerOrg;\n\n    constructor() {\n        cheeseProducerOrg = msg.sender;\n    }\n\n    struct Cheese {\n        uint256 id; // Cheese ID \n        string dop;\n        uint256 price;\n        uint256 quantity;\n    }\n\n    mapping(address => mapping(uint256 => Cheese)) private cheeseBlocks; // map of CheeseBlock \n\n    mapping( address => uint256[] ) userCheeseBlockIds; // List of id of Single User CheeseProducer \n\n    uint256 [] private globalCheeseBlockIds; // All CheeseBlock \n\n// --------------------------------------------------- Business Function --------------------------------------------------------------------------------------//\n\n\n\n    function addCheeseBlock(\n            address walletCheeseProducer,\n            string memory dop,\n            uint256 price,\n            uint256 quantity\n        ) external returns (uint256 , string memory , uint256 , uint256 ){\n\n        uint256 id = uint256(keccak256(abi.encodePacked(\n            dop,\n            price,\n            quantity,\n            walletCheeseProducer,\n            block.timestamp\n        )));\n\n\n        // Crea un nuovo Blocco di formaggio\n        Cheese memory cheeseBlock = Cheese({\n            id: id,\n            dop: dop,\n            price: price,\n            quantity: quantity\n        });\n\n        // Inserisci l'id all'interno della Lista \n        globalCheeseBlockIds.push(id);\n        // Inserisce l'id all'interno della Lista del CheeseProducer \n        userCheeseBlockIds[walletCheeseProducer].push(id);\n        // Inserisce il nuovo Blocco di formaggio nella lista cheeseBlocks\n        cheeseBlocks[walletCheeseProducer][id] = cheeseBlock;\n\n        return (cheeseBlock.id,cheeseBlock.dop,cheeseBlock.price,cheeseBlock.quantity);\n    }\n\n    function getCheeseBlock(address walletCheeseProducer, uint256 id) external view returns (uint256, string memory, uint256, uint256) {\n\n        Cheese memory cheeseBlock = cheeseBlocks[walletCheeseProducer][id];\n\n        return (cheeseBlock.id, cheeseBlock.dop, cheeseBlock.price, cheeseBlock.quantity);\n    }\n\n    // Elimina il CheeseBlock \n    function deleteCheeseBlock(address walletCheeseProducer, uint256 id) external returns(bool value) {\n\n        delete cheeseBlocks[walletCheeseProducer][id];\n        // Check CheesePiece in the mapping \n        if(cheeseBlocks[walletCheeseProducer][id].id  == 0 && \n        deleteCheeseBlockIdFromList(id) && \n        deleteCheeseBlockIdFromListSingleUser(id, walletCheeseProducer) ){\n            return true;\n        }else {\n            return false;\n        }\n    }\n\n\n    // Verifica che il CheeseBlock  gi presente \n    function isCheeseBlockPresent(address walletCheeseProducer,uint256 idCheeseBlock) external view returns(bool){\n        \n        require( idCheeseBlock !=0 && idCheeseBlock>0, \"ID MilkBatch Not Valid!\");\n\n        return cheeseBlocks[walletCheeseProducer][idCheeseBlock].id == idCheeseBlock;\n    }\n    \n\n// --------------------------------------------------- Get Function --------------------------------------------------------------------------------------//\n    \n    function getDop(address walletCheeseProducer, uint256 id) external view returns(string memory) {\n\n        Cheese memory cheeseBlock = cheeseBlocks[walletCheeseProducer][id];\n        return cheeseBlock.dop;\n    }\n\n    function getPrice(address walletCheeseProducer, uint256 id) external view returns(uint256) {\n\n        Cheese memory cheeseBlock = cheeseBlocks[walletCheeseProducer][id];\n        return cheeseBlock.price;\n    }\n\n    function getQuantity(address walletCheeseProducer, uint256 id) external view returns(uint256) {\n\n        Cheese memory cheeseBlock = cheeseBlocks[walletCheeseProducer][id];\n        return cheeseBlock.quantity;\n    }\n\n\n    /*\n    * Restituisce la Lista di tutti gli ID dei prodotti di un determinato utente\n    */\n    function getUserCheeseBlockIds(address walletCheeseProducer)external view returns (uint256[] memory){\n        return userCheeseBlockIds[walletCheeseProducer];\n    }\n    \n    // Restituisce tutti i CheeseBlock per i Retailer \n    function getGlobalCheeseBlockIds()external view returns(uint256[]memory){\n        return globalCheeseBlockIds;\n    }\n// --------------------------------------------------- Set Function --------------------------------------------------------------------------------------//\n\n\n    // - Funzione updateCheeseBlockQuantity() aggiorna la quantit del CheeseBlock \n    function updateCheeseBlockQuantity(\n        address walletCheeseProducer,\n        uint256 idCheese,\n        uint256 newQuantity) external  {\n        \n        // Controllo sulla quantita' \n        require(newQuantity<=cheeseBlocks[walletCheeseProducer][idCheese].quantity,\"Controllo della Quantita' da utilizzare non andata a buon fine!\");\n\n        cheeseBlocks[walletCheeseProducer][idCheese].quantity = newQuantity;\n    }\n\n    function deleteCheeseBlockIdFromList(uint256 id)internal returns (bool) {\n        for(uint256 i=0; ; i++){\n            if(globalCheeseBlockIds[i] == id ){\n                delete  globalCheeseBlockIds[i];\n                return true;\n            }\n        }\n        return false;\n    }\n\n    function deleteCheeseBlockIdFromListSingleUser(uint256 id, address walletCheeseProducer)internal returns (bool) {\n        for(uint256 i=0; ; i++){\n            if(userCheeseBlockIds[walletCheeseProducer][i] == id){\n                delete userCheeseBlockIds[walletCheeseProducer][i];\n                return true;\n            }\n        }\n        return false;\n    }\n\n}\n",
  "sourcePath": "/home/leone-pc/Documenti/GitHub/FilieraToken/Filiera-Token-Smart-Contract/contracts/Actor/CheeseProducer-smart-contract/inventory/CheeseProducerInventoryStorage.sol",
  "compiler": {
    "name": "solc",
    "version": "0.8.24+commit.e11b9ed9.Emscripten.clang"
  },
  "schemaVersion": "3.4.16",
  "updatedAt": "2024-03-01T19:20:25.570Z",
  "devdoc": {
    "kind": "dev",
    "methods": {},
    "version": 1
  },
  "userdoc": {
    "kind": "user",
    "methods": {},
    "version": 1
  }
}