{
  "contractName": "CheeseProducerInventoryService",
  "abi": [
    {
      "inputs": [
        {
          "internalType": "address",
          "name": "_cheeseProducerInventoryStorage",
          "type": "address"
        },
        {
          "internalType": "address",
          "name": "_cheeseProducerService",
          "type": "address"
        },
        {
          "internalType": "address",
          "name": "_cheeseProducerBuyerService",
          "type": "address"
        },
        {
          "internalType": "address",
          "name": "_accessControlProduct",
          "type": "address"
        }
      ],
      "stateMutability": "nonpayable",
      "type": "constructor"
    },
    {
      "anonymous": false,
      "inputs": [
        {
          "indexed": true,
          "internalType": "address",
          "name": "userAddress",
          "type": "address"
        },
        {
          "indexed": false,
          "internalType": "string",
          "name": "message",
          "type": "string"
        },
        {
          "indexed": false,
          "internalType": "uint256",
          "name": "id",
          "type": "uint256"
        },
        {
          "indexed": false,
          "internalType": "string",
          "name": "dop",
          "type": "string"
        },
        {
          "indexed": false,
          "internalType": "uint256",
          "name": "quantity",
          "type": "uint256"
        },
        {
          "indexed": false,
          "internalType": "uint256",
          "name": "price",
          "type": "uint256"
        }
      ],
      "name": "CheeseBlockAdded",
      "type": "event"
    },
    {
      "anonymous": false,
      "inputs": [
        {
          "indexed": true,
          "internalType": "address",
          "name": "userAddress",
          "type": "address"
        },
        {
          "indexed": false,
          "internalType": "string",
          "name": "message",
          "type": "string"
        },
        {
          "indexed": false,
          "internalType": "uint256",
          "name": "_id",
          "type": "uint256"
        }
      ],
      "name": "CheeseBlockDeleted",
      "type": "event"
    },
    {
      "anonymous": false,
      "inputs": [
        {
          "indexed": true,
          "internalType": "address",
          "name": "userAddress",
          "type": "address"
        },
        {
          "indexed": false,
          "internalType": "string",
          "name": "message",
          "type": "string"
        },
        {
          "indexed": false,
          "internalType": "uint256",
          "name": "quantity",
          "type": "uint256"
        }
      ],
      "name": "CheeseBlockEdited",
      "type": "event"
    },
    {
      "inputs": [
        {
          "internalType": "uint256",
          "name": "idCheeseBlock",
          "type": "uint256"
        }
      ],
      "name": "getCheeseBlock",
      "outputs": [
        {
          "internalType": "uint256",
          "name": "",
          "type": "uint256"
        },
        {
          "internalType": "string",
          "name": "",
          "type": "string"
        },
        {
          "internalType": "uint256",
          "name": "",
          "type": "uint256"
        },
        {
          "internalType": "uint256",
          "name": "",
          "type": "uint256"
        }
      ],
      "stateMutability": "view",
      "type": "function"
    },
    {
      "inputs": [
        {
          "internalType": "uint256",
          "name": "id",
          "type": "uint256"
        }
      ],
      "name": "deleteCheeseBlock",
      "outputs": [
        {
          "internalType": "bool",
          "name": "",
          "type": "bool"
        }
      ],
      "stateMutability": "nonpayable",
      "type": "function"
    },
    {
      "inputs": [
        {
          "internalType": "address",
          "name": "walletCheeseProducer",
          "type": "address"
        },
        {
          "internalType": "uint256",
          "name": "id",
          "type": "uint256"
        }
      ],
      "name": "getDop",
      "outputs": [
        {
          "internalType": "string",
          "name": "",
          "type": "string"
        }
      ],
      "stateMutability": "view",
      "type": "function"
    },
    {
      "inputs": [
        {
          "internalType": "address",
          "name": "walletCheeseProducer",
          "type": "address"
        },
        {
          "internalType": "uint256",
          "name": "id",
          "type": "uint256"
        }
      ],
      "name": "getPrice",
      "outputs": [
        {
          "internalType": "uint256",
          "name": "",
          "type": "uint256"
        }
      ],
      "stateMutability": "view",
      "type": "function"
    },
    {
      "inputs": [
        {
          "internalType": "address",
          "name": "walletCheeseProducer",
          "type": "address"
        },
        {
          "internalType": "uint256",
          "name": "id",
          "type": "uint256"
        }
      ],
      "name": "getCheeseBlockQuantity",
      "outputs": [
        {
          "internalType": "uint256",
          "name": "",
          "type": "uint256"
        }
      ],
      "stateMutability": "view",
      "type": "function"
    },
    {
      "inputs": [
        {
          "internalType": "address",
          "name": "walletCheeseProducer",
          "type": "address"
        },
        {
          "internalType": "uint256",
          "name": "idcheeseBlock",
          "type": "uint256"
        }
      ],
      "name": "isCheeseBlockPresent",
      "outputs": [
        {
          "internalType": "bool",
          "name": "",
          "type": "bool"
        }
      ],
      "stateMutability": "view",
      "type": "function"
    },
    {
      "inputs": [
        {
          "internalType": "address",
          "name": "walletCheeseProducer",
          "type": "address"
        }
      ],
      "name": "getUserCheeseBlockIds",
      "outputs": [
        {
          "internalType": "uint256[]",
          "name": "",
          "type": "uint256[]"
        }
      ],
      "stateMutability": "view",
      "type": "function"
    },
    {
      "inputs": [
        {
          "internalType": "address",
          "name": "walleRetailer",
          "type": "address"
        }
      ],
      "name": "getGlobalCheeseBlockIds",
      "outputs": [
        {
          "internalType": "uint256[]",
          "name": "",
          "type": "uint256[]"
        }
      ],
      "stateMutability": "view",
      "type": "function"
    },
    {
      "inputs": [
        {
          "internalType": "address",
          "name": "walletCheeseProducer",
          "type": "address"
        },
        {
          "internalType": "uint256",
          "name": "idMilkBatch",
          "type": "uint256"
        },
        {
          "internalType": "uint256",
          "name": "quantityToTransform",
          "type": "uint256"
        },
        {
          "internalType": "uint256",
          "name": "pricePerKg",
          "type": "uint256"
        },
        {
          "internalType": "string",
          "name": "dop",
          "type": "string"
        }
      ],
      "name": "transformMilkBatch",
      "outputs": [],
      "stateMutability": "nonpayable",
      "type": "function"
    },
    {
      "inputs": [
        {
          "internalType": "address",
          "name": "ownerCheeseProducer",
          "type": "address"
        },
        {
          "internalType": "uint256",
          "name": "id",
          "type": "uint256"
        },
        {
          "internalType": "uint256",
          "name": "quantity",
          "type": "uint256"
        }
      ],
      "name": "updateCheeseBlockQuantity",
      "outputs": [],
      "stateMutability": "nonpayable",
      "type": "function"
    }
  ],
  "bytecode": "0x60806040523480156200001157600080fd5b50604051620037d3380380620037d38339818101604052810190620000379190620001ef565b83600160006101000a81548173ffffffffffffffffffffffffffffffffffffffff021916908373ffffffffffffffffffffffffffffffffffffffff16021790555082600260006101000a81548173ffffffffffffffffffffffffffffffffffffffff021916908373ffffffffffffffffffffffffffffffffffffffff16021790555081600360006101000a81548173ffffffffffffffffffffffffffffffffffffffff021916908373ffffffffffffffffffffffffffffffffffffffff16021790555080600460006101000a81548173ffffffffffffffffffffffffffffffffffffffff021916908373ffffffffffffffffffffffffffffffffffffffff160217905550336000806101000a81548173ffffffffffffffffffffffffffffffffffffffff021916908373ffffffffffffffffffffffffffffffffffffffff1602179055505050505062000261565b600080fd5b600073ffffffffffffffffffffffffffffffffffffffff82169050919050565b6000620001b7826200018a565b9050919050565b620001c981620001aa565b8114620001d557600080fd5b50565b600081519050620001e981620001be565b92915050565b600080600080608085870312156200020c576200020b62000185565b5b60006200021c87828801620001d8565b94505060206200022f87828801620001d8565b93505060406200024287828801620001d8565b92505060606200025587828801620001d8565b91505092959194509250565b61356280620002716000396000f3fe608060405234801561001057600080fd5b506004361061009e5760003560e01c806393df200a1161006657806393df200a14610182578063b6ef5c8a1461019e578063d7da36cf146101ce578063f93bd021146101fe578063f9d61a1e1461022e5761009e565b8063449e815d146100a35780634c939786146100d35780634f0205bf1461010657806377e94d9e1461013657806387dfc12014610152575b600080fd5b6100bd60048036038101906100b8919061248b565b61025e565b6040516100ca91906124da565b60405180910390f35b6100ed60048036038101906100e891906124f5565b61049c565b6040516100fd94939291906125b2565b60405180910390f35b610120600480360381019061011b919061248b565b610910565b60405161012d9190612619565b60405180910390f35b610150600480360381019061014b9190612634565b610bd7565b005b61016c60048036038101906101679190612687565b611070565b6040516101799190612772565b60405180910390f35b61019c600480360381019061019791906128c9565b611414565b005b6101b860048036038101906101b39190612687565b611735565b6040516101c59190612772565b60405180910390f35b6101e860048036038101906101e3919061248b565b6118af565b6040516101f591906124da565b60405180910390f35b6102186004803603810190610213919061248b565b611aed565b6040516102259190612960565b60405180910390f35b610248600480360381019061024391906124f5565b611d30565b6040516102559190612619565b60405180910390f35b6000600260009054906101000a900473ffffffffffffffffffffffffffffffffffffffff1673ffffffffffffffffffffffffffffffffffffffff1663a5578807846040518263ffffffff1660e01b81526004016102bb9190612991565b602060405180830381865afa1580156102d8573d6000803e3d6000fd5b505050506040513d601f19601f820116820180604052508101906102fc91906129d8565b61033b576040517f08c379a000000000000000000000000000000000000000000000000000000000815260040161033290612a51565b60405180910390fd5b3073ffffffffffffffffffffffffffffffffffffffff16634f0205bf84846040518363ffffffff1660e01b8152600401610376929190612a71565b602060405180830381865afa158015610393573d6000803e3d6000fd5b505050506040513d601f19601f820116820180604052508101906103b791906129d8565b6103f6576040517f08c379a00000000000000000000000000000000000000000000000000000000081526004016103ed90612ae6565b60405180910390fd5b600160009054906101000a900473ffffffffffffffffffffffffffffffffffffffff1673ffffffffffffffffffffffffffffffffffffffff1663449e815d84846040518363ffffffff1660e01b8152600401610453929190612a71565b602060405180830381865afa158015610470573d6000803e3d6000fd5b505050506040513d601f19601f820116820180604052508101906104949190612b1b565b905092915050565b6000606060008033600073ffffffffffffffffffffffffffffffffffffffff168173ffffffffffffffffffffffffffffffffffffffff1603610513576040517f08c379a000000000000000000000000000000000000000000000000000000000815260040161050a90612b94565b60405180910390fd5b60008054906101000a900473ffffffffffffffffffffffffffffffffffffffff1673ffffffffffffffffffffffffffffffffffffffff168173ffffffffffffffffffffffffffffffffffffffff16036105a1576040517f08c379a000000000000000000000000000000000000000000000000000000000815260040161059890612c00565b60405180910390fd5b600160009054906101000a900473ffffffffffffffffffffffffffffffffffffffff1673ffffffffffffffffffffffffffffffffffffffff168173ffffffffffffffffffffffffffffffffffffffff1603610631576040517f08c379a000000000000000000000000000000000000000000000000000000000815260040161062890612c92565b60405180910390fd5b600260009054906101000a900473ffffffffffffffffffffffffffffffffffffffff1673ffffffffffffffffffffffffffffffffffffffff168173ffffffffffffffffffffffffffffffffffffffff16036106c1576040517f08c379a00000000000000000000000000000000000000000000000000000000081526004016106b890612cfe565b60405180910390fd5b6000339050600260009054906101000a900473ffffffffffffffffffffffffffffffffffffffff1673ffffffffffffffffffffffffffffffffffffffff1663a5578807826040518263ffffffff1660e01b81526004016107219190612991565b602060405180830381865afa15801561073e573d6000803e3d6000fd5b505050506040513d601f19601f8201168201806040525081019061076291906129d8565b6107a1576040517f08c379a000000000000000000000000000000000000000000000000000000000815260040161079890612d6a565b60405180910390fd5b3073ffffffffffffffffffffffffffffffffffffffff16634f0205bf82896040518363ffffffff1660e01b81526004016107dc929190612a71565b602060405180830381865afa1580156107f9573d6000803e3d6000fd5b505050506040513d601f19601f8201168201806040525081019061081d91906129d8565b61085c576040517f08c379a000000000000000000000000000000000000000000000000000000000815260040161085390612dfc565b60405180910390fd5b600160009054906101000a900473ffffffffffffffffffffffffffffffffffffffff1673ffffffffffffffffffffffffffffffffffffffff16636fb82e0682896040518363ffffffff1660e01b81526004016108b9929190612a71565b600060405180830381865afa1580156108d6573d6000803e3d6000fd5b505050506040513d6000823e3d601f19601f820116820180604052508101906108ff9190612e8c565b955095509550955050509193509193565b600082600073ffffffffffffffffffffffffffffffffffffffff168173ffffffffffffffffffffffffffffffffffffffff1603610982576040517f08c379a000000000000000000000000000000000000000000000000000000000815260040161097990612b94565b60405180910390fd5b60008054906101000a900473ffffffffffffffffffffffffffffffffffffffff1673ffffffffffffffffffffffffffffffffffffffff168173ffffffffffffffffffffffffffffffffffffffff1603610a10576040517f08c379a0000000000000000000000000000000000000000000000000000000008152600401610a0790612c00565b60405180910390fd5b600160009054906101000a900473ffffffffffffffffffffffffffffffffffffffff1673ffffffffffffffffffffffffffffffffffffffff168173ffffffffffffffffffffffffffffffffffffffff1603610aa0576040517f08c379a0000000000000000000000000000000000000000000000000000000008152600401610a9790612c92565b60405180910390fd5b600260009054906101000a900473ffffffffffffffffffffffffffffffffffffffff1673ffffffffffffffffffffffffffffffffffffffff168173ffffffffffffffffffffffffffffffffffffffff1603610b30576040517f08c379a0000000000000000000000000000000000000000000000000000000008152600401610b2790612cfe565b60405180910390fd5b600160009054906101000a900473ffffffffffffffffffffffffffffffffffffffff1673ffffffffffffffffffffffffffffffffffffffff16634f0205bf85856040518363ffffffff1660e01b8152600401610b8d929190612a71565b602060405180830381865afa158015610baa573d6000803e3d6000fd5b505050506040513d601f19601f82011682018060405250810190610bce91906129d8565b91505092915050565b82600073ffffffffffffffffffffffffffffffffffffffff168173ffffffffffffffffffffffffffffffffffffffff1603610c47576040517f08c379a0000000000000000000000000000000000000000000000000000000008152600401610c3e90612b94565b60405180910390fd5b60008054906101000a900473ffffffffffffffffffffffffffffffffffffffff1673ffffffffffffffffffffffffffffffffffffffff168173ffffffffffffffffffffffffffffffffffffffff1603610cd5576040517f08c379a0000000000000000000000000000000000000000000000000000000008152600401610ccc90612c00565b60405180910390fd5b600160009054906101000a900473ffffffffffffffffffffffffffffffffffffffff1673ffffffffffffffffffffffffffffffffffffffff168173ffffffffffffffffffffffffffffffffffffffff1603610d65576040517f08c379a0000000000000000000000000000000000000000000000000000000008152600401610d5c90612c92565b60405180910390fd5b600260009054906101000a900473ffffffffffffffffffffffffffffffffffffffff1673ffffffffffffffffffffffffffffffffffffffff168173ffffffffffffffffffffffffffffffffffffffff1603610df5576040517f08c379a0000000000000000000000000000000000000000000000000000000008152600401610dec90612cfe565b60405180910390fd5b600260009054906101000a900473ffffffffffffffffffffffffffffffffffffffff1673ffffffffffffffffffffffffffffffffffffffff1663a5578807856040518263ffffffff1660e01b8152600401610e509190612991565b602060405180830381865afa158015610e6d573d6000803e3d6000fd5b505050506040513d601f19601f82011682018060405250810190610e9191906129d8565b610ed0576040517f08c379a0000000000000000000000000000000000000000000000000000000008152600401610ec790612a51565b60405180910390fd5b3073ffffffffffffffffffffffffffffffffffffffff16634f0205bf85856040518363ffffffff1660e01b8152600401610f0b929190612a71565b602060405180830381865afa158015610f28573d6000803e3d6000fd5b505050506040513d601f19601f82011682018060405250810190610f4c91906129d8565b610f8b576040517f08c379a0000000000000000000000000000000000000000000000000000000008152600401610f8290612ae6565b60405180910390fd5b600160009054906101000a900473ffffffffffffffffffffffffffffffffffffffff1673ffffffffffffffffffffffffffffffffffffffff166377e94d9e8585856040518463ffffffff1660e01b8152600401610fea93929190612f0f565b600060405180830381600087803b15801561100457600080fd5b505af1158015611018573d6000803e3d6000fd5b505050508373ffffffffffffffffffffffffffffffffffffffff167f8d5408d361784b3c217d0103c62a49474b07e85b6dc6b2f1a3c085f44142c6f8836040516110629190612f92565b60405180910390a250505050565b606081600073ffffffffffffffffffffffffffffffffffffffff168173ffffffffffffffffffffffffffffffffffffffff16036110e2576040517f08c379a00000000000000000000000000000000000000000000000000000000081526004016110d990612b94565b60405180910390fd5b60008054906101000a900473ffffffffffffffffffffffffffffffffffffffff1673ffffffffffffffffffffffffffffffffffffffff168173ffffffffffffffffffffffffffffffffffffffff1603611170576040517f08c379a000000000000000000000000000000000000000000000000000000000815260040161116790612c00565b60405180910390fd5b600160009054906101000a900473ffffffffffffffffffffffffffffffffffffffff1673ffffffffffffffffffffffffffffffffffffffff168173ffffffffffffffffffffffffffffffffffffffff1603611200576040517f08c379a00000000000000000000000000000000000000000000000000000000081526004016111f790612c92565b60405180910390fd5b600260009054906101000a900473ffffffffffffffffffffffffffffffffffffffff1673ffffffffffffffffffffffffffffffffffffffff168173ffffffffffffffffffffffffffffffffffffffff1603611290576040517f08c379a000000000000000000000000000000000000000000000000000000000815260040161128790612cfe565b60405180910390fd5b600260009054906101000a900473ffffffffffffffffffffffffffffffffffffffff1673ffffffffffffffffffffffffffffffffffffffff1663a5578807846040518263ffffffff1660e01b81526004016112eb9190612991565b602060405180830381865afa158015611308573d6000803e3d6000fd5b505050506040513d601f19601f8201168201806040525081019061132c91906129d8565b61136b576040517f08c379a000000000000000000000000000000000000000000000000000000000815260040161136290612a51565b60405180910390fd5b600160009054906101000a900473ffffffffffffffffffffffffffffffffffffffff1673ffffffffffffffffffffffffffffffffffffffff166387dfc120846040518263ffffffff1660e01b81526004016113c69190612991565b600060405180830381865afa1580156113e3573d6000803e3d6000fd5b505050506040513d6000823e3d601f19601f8201168201806040525081019061140c9190613088565b915050919050565b600360009054906101000a900473ffffffffffffffffffffffffffffffffffffffff1673ffffffffffffffffffffffffffffffffffffffff166302d805f686866040518363ffffffff1660e01b8152600401611471929190612a71565b602060405180830381865afa15801561148e573d6000803e3d6000fd5b505050506040513d601f19601f820116820180604052508101906114b291906129d8565b6114f1576040517f08c379a00000000000000000000000000000000000000000000000000000000081526004016114e89061311d565b60405180910390fd5b600360009054906101000a900473ffffffffffffffffffffffffffffffffffffffff1673ffffffffffffffffffffffffffffffffffffffff16631e073fcf86866040518363ffffffff1660e01b815260040161154e929190612a71565b602060405180830381865afa15801561156b573d6000803e3d6000fd5b505050506040513d601f19601f8201168201806040525081019061158f9190612b1b565b8311156115d1576040517f08c379a00000000000000000000000000000000000000000000000000000000081526004016115c8906131af565b60405180910390fd5b600083600360009054906101000a900473ffffffffffffffffffffffffffffffffffffffff1673ffffffffffffffffffffffffffffffffffffffff16631e073fcf88886040518363ffffffff1660e01b8152600401611631929190612a71565b602060405180830381865afa15801561164e573d6000803e3d6000fd5b505050506040513d601f19601f820116820180604052508101906116729190612b1b565b61167c91906131fe565b9050600360009054906101000a900473ffffffffffffffffffffffffffffffffffffffff1673ffffffffffffffffffffffffffffffffffffffff1663cb6f5eee8787846040518463ffffffff1660e01b81526004016116dd93929190612f0f565b600060405180830381600087803b1580156116f757600080fd5b505af115801561170b573d6000803e3d6000fd5b50505050600060058561171e9190613232565b905061172c87848387611fd4565b50505050505050565b6060600460009054906101000a900473ffffffffffffffffffffffffffffffffffffffff1673ffffffffffffffffffffffffffffffffffffffff1663fe174e3a836040518263ffffffff1660e01b81526004016117929190612991565b602060405180830381865afa1580156117af573d6000803e3d6000fd5b505050506040513d601f19601f820116820180604052508101906117d391906129d8565b611812576040517f08c379a0000000000000000000000000000000000000000000000000000000008152600401611809906132c0565b60405180910390fd5b600160009054906101000a900473ffffffffffffffffffffffffffffffffffffffff1673ffffffffffffffffffffffffffffffffffffffff1663fd5c469a6040518163ffffffff1660e01b8152600401600060405180830381865afa15801561187f573d6000803e3d6000fd5b505050506040513d6000823e3d601f19601f820116820180604052508101906118a89190613088565b9050919050565b6000600260009054906101000a900473ffffffffffffffffffffffffffffffffffffffff1673ffffffffffffffffffffffffffffffffffffffff1663a5578807846040518263ffffffff1660e01b815260040161190c9190612991565b602060405180830381865afa158015611929573d6000803e3d6000fd5b505050506040513d601f19601f8201168201806040525081019061194d91906129d8565b61198c576040517f08c379a000000000000000000000000000000000000000000000000000000000815260040161198390612a51565b60405180910390fd5b3073ffffffffffffffffffffffffffffffffffffffff16634f0205bf84846040518363ffffffff1660e01b81526004016119c7929190612a71565b602060405180830381865afa1580156119e4573d6000803e3d6000fd5b505050506040513d601f19601f82011682018060405250810190611a0891906129d8565b611a47576040517f08c379a0000000000000000000000000000000000000000000000000000000008152600401611a3e90612ae6565b60405180910390fd5b600160009054906101000a900473ffffffffffffffffffffffffffffffffffffffff1673ffffffffffffffffffffffffffffffffffffffff16631e073fcf84846040518363ffffffff1660e01b8152600401611aa4929190612a71565b602060405180830381865afa158015611ac1573d6000803e3d6000fd5b505050506040513d601f19601f82011682018060405250810190611ae59190612b1b565b905092915050565b6060600260009054906101000a900473ffffffffffffffffffffffffffffffffffffffff1673ffffffffffffffffffffffffffffffffffffffff1663a5578807846040518263ffffffff1660e01b8152600401611b4a9190612991565b602060405180830381865afa158015611b67573d6000803e3d6000fd5b505050506040513d601f19601f82011682018060405250810190611b8b91906129d8565b611bca576040517f08c379a0000000000000000000000000000000000000000000000000000000008152600401611bc190612a51565b60405180910390fd5b3073ffffffffffffffffffffffffffffffffffffffff16634f0205bf84846040518363ffffffff1660e01b8152600401611c05929190612a71565b602060405180830381865afa158015611c22573d6000803e3d6000fd5b505050506040513d601f19601f82011682018060405250810190611c4691906129d8565b611c85576040517f08c379a0000000000000000000000000000000000000000000000000000000008152600401611c7c90612ae6565b60405180910390fd5b600160009054906101000a900473ffffffffffffffffffffffffffffffffffffffff1673ffffffffffffffffffffffffffffffffffffffff1663f93bd02184846040518363ffffffff1660e01b8152600401611ce2929190612a71565b600060405180830381865afa158015611cff573d6000803e3d6000fd5b505050506040513d6000823e3d601f19601f82011682018060405250810190611d2891906132e0565b905092915050565b600080339050600260009054906101000a900473ffffffffffffffffffffffffffffffffffffffff1673ffffffffffffffffffffffffffffffffffffffff1663a5578807826040518263ffffffff1660e01b8152600401611d919190612991565b602060405180830381865afa158015611dae573d6000803e3d6000fd5b505050506040513d601f19601f82011682018060405250810190611dd291906129d8565b611e11576040517f08c379a0000000000000000000000000000000000000000000000000000000008152600401611e0890612a51565b60405180910390fd5b3073ffffffffffffffffffffffffffffffffffffffff16634f0205bf82856040518363ffffffff1660e01b8152600401611e4c929190612a71565b602060405180830381865afa158015611e69573d6000803e3d6000fd5b505050506040513d601f19601f82011682018060405250810190611e8d91906129d8565b611ecc576040517f08c379a0000000000000000000000000000000000000000000000000000000008152600401611ec390613375565b60405180910390fd5b600160009054906101000a900473ffffffffffffffffffffffffffffffffffffffff1673ffffffffffffffffffffffffffffffffffffffff1663f437eff182856040518363ffffffff1660e01b8152600401611f29929190612a71565b6020604051808303816000875af1158015611f48573d6000803e3d6000fd5b505050506040513d601f19601f82011682018060405250810190611f6c91906129d8565b15611fc9578073ffffffffffffffffffffffffffffffffffffffff167fc6c65fc1de8ea24c925debf6bd8533781f25ea92c3a42980607af396ebb8dfc884604051611fb791906133e1565b60405180910390a26001915050611fcf565b60009150505b919050565b83600073ffffffffffffffffffffffffffffffffffffffff168173ffffffffffffffffffffffffffffffffffffffff1603612044576040517f08c379a000000000000000000000000000000000000000000000000000000000815260040161203b90612b94565b60405180910390fd5b60008054906101000a900473ffffffffffffffffffffffffffffffffffffffff1673ffffffffffffffffffffffffffffffffffffffff168173ffffffffffffffffffffffffffffffffffffffff16036120d2576040517f08c379a00000000000000000000000000000000000000000000000000000000081526004016120c990612c00565b60405180910390fd5b600160009054906101000a900473ffffffffffffffffffffffffffffffffffffffff1673ffffffffffffffffffffffffffffffffffffffff168173ffffffffffffffffffffffffffffffffffffffff1603612162576040517f08c379a000000000000000000000000000000000000000000000000000000000815260040161215990612c92565b60405180910390fd5b600260009054906101000a900473ffffffffffffffffffffffffffffffffffffffff1673ffffffffffffffffffffffffffffffffffffffff168173ffffffffffffffffffffffffffffffffffffffff16036121f2576040517f08c379a00000000000000000000000000000000000000000000000000000000081526004016121e990612cfe565b60405180910390fd5b600260009054906101000a900473ffffffffffffffffffffffffffffffffffffffff1673ffffffffffffffffffffffffffffffffffffffff1663a5578807866040518263ffffffff1660e01b815260040161224d9190612991565b602060405180830381865afa15801561226a573d6000803e3d6000fd5b505050506040513d601f19601f8201168201806040525081019061228e91906129d8565b6122cd576040517f08c379a00000000000000000000000000000000000000000000000000000000081526004016122c490612d6a565b60405180910390fd5b600080600080600160009054906101000a900473ffffffffffffffffffffffffffffffffffffffff1673ffffffffffffffffffffffffffffffffffffffff1663ab23e04a8a8a8a8a6040518563ffffffff1660e01b8152600401612334949392919061340f565b6000604051808303816000875af1158015612353573d6000803e3d6000fd5b505050506040513d6000823e3d601f19601f8201168201806040525081019061237c9190612e8c565b93509350935093508873ffffffffffffffffffffffffffffffffffffffff167f736bb084e5388f05b961110ece2195bd0813ee49bdbd348f25aad1957d550ae5858584866040516123d094939291906134cd565b60405180910390a2505050505050505050565b6000604051905090565b600080fd5b600080fd5b600073ffffffffffffffffffffffffffffffffffffffff82169050919050565b6000612422826123f7565b9050919050565b61243281612417565b811461243d57600080fd5b50565b60008135905061244f81612429565b92915050565b6000819050919050565b61246881612455565b811461247357600080fd5b50565b6000813590506124858161245f565b92915050565b600080604083850312156124a2576124a16123ed565b5b60006124b085828601612440565b92505060206124c185828601612476565b9150509250929050565b6124d481612455565b82525050565b60006020820190506124ef60008301846124cb565b92915050565b60006020828403121561250b5761250a6123ed565b5b600061251984828501612476565b91505092915050565b600081519050919050565b600082825260208201905092915050565b60005b8381101561255c578082015181840152602081019050612541565b60008484015250505050565b6000601f19601f8301169050919050565b600061258482612522565b61258e818561252d565b935061259e81856020860161253e565b6125a781612568565b840191505092915050565b60006080820190506125c760008301876124cb565b81810360208301526125d98186612579565b90506125e860408301856124cb565b6125f560608301846124cb565b95945050505050565b60008115159050919050565b612613816125fe565b82525050565b600060208201905061262e600083018461260a565b92915050565b60008060006060848603121561264d5761264c6123ed565b5b600061265b86828701612440565b935050602061266c86828701612476565b925050604061267d86828701612476565b9150509250925092565b60006020828403121561269d5761269c6123ed565b5b60006126ab84828501612440565b91505092915050565b600081519050919050565b600082825260208201905092915050565b6000819050602082019050919050565b6126e981612455565b82525050565b60006126fb83836126e0565b60208301905092915050565b6000602082019050919050565b600061271f826126b4565b61272981856126bf565b9350612734836126d0565b8060005b8381101561276557815161274c88826126ef565b975061275783612707565b925050600181019050612738565b5085935050505092915050565b6000602082019050818103600083015261278c8184612714565b905092915050565b600080fd5b600080fd5b7f4e487b7100000000000000000000000000000000000000000000000000000000600052604160045260246000fd5b6127d682612568565b810181811067ffffffffffffffff821117156127f5576127f461279e565b5b80604052505050565b60006128086123e3565b905061281482826127cd565b919050565b600067ffffffffffffffff8211156128345761283361279e565b5b61283d82612568565b9050602081019050919050565b82818337600083830152505050565b600061286c61286784612819565b6127fe565b90508281526020810184848401111561288857612887612799565b5b61289384828561284a565b509392505050565b600082601f8301126128b0576128af612794565b5b81356128c0848260208601612859565b91505092915050565b600080600080600060a086880312156128e5576128e46123ed565b5b60006128f388828901612440565b955050602061290488828901612476565b945050604061291588828901612476565b935050606061292688828901612476565b925050608086013567ffffffffffffffff811115612947576129466123f2565b5b6129538882890161289b565b9150509295509295909350565b6000602082019050818103600083015261297a8184612579565b905092915050565b61298b81612417565b82525050565b60006020820190506129a66000830184612982565b92915050565b6129b5816125fe565b81146129c057600080fd5b50565b6000815190506129d2816129ac565b92915050565b6000602082840312156129ee576129ed6123ed565b5b60006129fc848285016129c3565b91505092915050565b7f55736572206973206e6f742070726573656e7421000000000000000000000000600082015250565b6000612a3b60148361252d565b9150612a4682612a05565b602082019050919050565b60006020820190508181036000830152612a6a81612a2e565b9050919050565b6000604082019050612a866000830185612982565b612a9360208301846124cb565b9392505050565b7f4d696c6b4261746368206e6f742050726573656e742100000000000000000000600082015250565b6000612ad060168361252d565b9150612adb82612a9a565b602082019050919050565b60006020820190508181036000830152612aff81612ac3565b9050919050565b600081519050612b158161245f565b92915050565b600060208284031215612b3157612b306123ed565b5b6000612b3f84828501612b06565b91505092915050565b7f416464726573732056616c7565206973205a65726f2100000000000000000000600082015250565b6000612b7e60168361252d565b9150612b8982612b48565b602082019050919050565b60006020820190508181036000830152612bad81612b71565b9050919050565b7f41646472657373206e6f742076616c6964210000000000000000000000000000600082015250565b6000612bea60128361252d565b9150612bf582612bb4565b602082019050919050565b60006020820190508181036000830152612c1981612bdd565b9050919050565b7f41646472657373206e6f742076616c6964206f6620496e76656e746f7279205360008201527f746f726167650000000000000000000000000000000000000000000000000000602082015250565b6000612c7c60268361252d565b9150612c8782612c20565b604082019050919050565b60006020820190508181036000830152612cab81612c6f565b9050919050565b7f41646472657373206e6f742076616c6964206f66205365727669636500000000600082015250565b6000612ce8601c8361252d565b9150612cf382612cb2565b602082019050919050565b60006020820190508181036000830152612d1781612cdb565b9050919050565b7f55736572206973206e6f742070726573656e7420696e20646174610000000000600082015250565b6000612d54601b8361252d565b9150612d5f82612d1e565b602082019050919050565b60006020820190508181036000830152612d8381612d47565b9050919050565b7f436865657365426c6f636b206973206e6f742070726573656e7420696e20646160008201527f7461000000000000000000000000000000000000000000000000000000000000602082015250565b6000612de660228361252d565b9150612df182612d8a565b604082019050919050565b60006020820190508181036000830152612e1581612dd9565b9050919050565b6000612e2f612e2a84612819565b6127fe565b905082815260208101848484011115612e4b57612e4a612799565b5b612e5684828561253e565b509392505050565b600082601f830112612e7357612e72612794565b5b8151612e83848260208601612e1c565b91505092915050565b60008060008060808587031215612ea657612ea56123ed565b5b6000612eb487828801612b06565b945050602085015167ffffffffffffffff811115612ed557612ed46123f2565b5b612ee187828801612e5e565b9350506040612ef287828801612b06565b9250506060612f0387828801612b06565b91505092959194509250565b6000606082019050612f246000830186612982565b612f3160208301856124cb565b612f3e60408301846124cb565b949350505050565b7f436865657365426c6f636b206564697465642100000000000000000000000000600082015250565b6000612f7c60138361252d565b9150612f8782612f46565b602082019050919050565b60006040820190508181036000830152612fab81612f6f565b9050612fba60208301846124cb565b92915050565b600067ffffffffffffffff821115612fdb57612fda61279e565b5b602082029050602081019050919050565b600080fd5b6000613004612fff84612fc0565b6127fe565b9050808382526020820190506020840283018581111561302757613026612fec565b5b835b81811015613050578061303c8882612b06565b845260208401935050602081019050613029565b5050509392505050565b600082601f83011261306f5761306e612794565b5b815161307f848260208601612ff1565b91505092915050565b60006020828403121561309e5761309d6123ed565b5b600082015167ffffffffffffffff8111156130bc576130bb6123f2565b5b6130c88482850161305a565b91505092915050565b7f50726f646f74746f206e6f6e2070726573656e74652100000000000000000000600082015250565b600061310760168361252d565b9150613112826130d1565b602082019050919050565b60006020820190508181036000830152613136816130fa565b9050919050565b7f5175616e74697461272064612074726173666f726d617265206e6f6e2076616c60008201527f6964612100000000000000000000000000000000000000000000000000000000602082015250565b600061319960248361252d565b91506131a48261313d565b604082019050919050565b600060208201905081810360008301526131c88161318c565b9050919050565b7f4e487b7100000000000000000000000000000000000000000000000000000000600052601160045260246000fd5b600061320982612455565b915061321483612455565b925082820390508181111561322c5761322b6131cf565b5b92915050565b600061323d82612455565b915061324883612455565b925082820261325681612455565b9150828204841483151761326d5761326c6131cf565b5b5092915050565b7f55736572204e6f7420417574686f72697a656421000000000000000000000000600082015250565b60006132aa60148361252d565b91506132b582613274565b602082019050919050565b600060208201905081810360008301526132d98161329d565b9050919050565b6000602082840312156132f6576132f56123ed565b5b600082015167ffffffffffffffff811115613314576133136123f2565b5b61332084828501612e5e565b91505092915050565b7f43686565736520426c6f636b206e6f742050726573656e742100000000000000600082015250565b600061335f60198361252d565b915061336a82613329565b602082019050919050565b6000602082019050818103600083015261338e81613352565b9050919050565b7f43686565736520426c6f636b20652720737461746f20656c656d696e61746f00600082015250565b60006133cb601f8361252d565b91506133d682613395565b602082019050919050565b600060408201905081810360008301526133fa816133be565b905061340960208301846124cb565b92915050565b60006080820190506134246000830187612982565b81810360208301526134368186612579565b905061344560408301856124cb565b61345260608301846124cb565b95945050505050565b7f4d696c6b426174636820636f6e7665727469746f20636f6e207375636365737360008201527f6f2021204563636f20696c206e756f766f20636865657365426c6f636b210000602082015250565b60006134b7603e8361252d565b91506134c28261345b565b604082019050919050565b600060a08201905081810360008301526134e6816134aa565b90506134f560208301876124cb565b81810360408301526135078186612579565b905061351660608301856124cb565b61352360808301846124cb565b9594505050505056fea2646970667358221220edb4142b0dca5f2136f7e1c67d60c2e238532665d4ed6c55aa27981917a1a6f064736f6c63430008180033",
  "immutableReferences": {},
  "source": "// SPDX-License-Identifier: MIT\npragma solidity ^0.8.21;\n\nimport \"./CheeseProducerInventoryStorage.sol\";\nimport \"../CheeseProducerService.sol\";\nimport \"./CheeseProducerBuyerService.sol\";\n\nimport \"../../../Service/AccessControlProduct.sol\";\n\n\n// NOTA : implementare i controlli semplici e non di autorizzazione perch i retailer possono vedere le varie info in merito ai prodotti dei CheeseProducer \n// NOTA : Nel service che gestisce lo storage di acquisto, bisogna implementare una logica pi restrittiva che ci d la possibilit di far visualizzare i prodotti acquistati a coloro che li acquistati.\n// NOTA : Ricorda di implementare una logica di approvazione per il contratto che esegue l'aggiunta dell'oggetto acquistato ( TransactionManager deve essere approvato per poter eseguire una transazione del genere ) \n\ncontract CheeseProducerInventoryService {\n\n//--------------------------------------------------------------------- Address of Service Contract -----------------------------------------------//\n\n    // Address of Organization che gestisce gli utenti\n    address private cheeseProducerOrg;\n\n    // Address of Consumer Storage \n    CheeseProducerInventoryStorage private cheeseProducerInventoryStorage;\n\n    CheeseProducerService private cheeseProducerService;\n\n    CheeseProducerBuyerService private cheeseProducerBuyerService;\n\n    // Address Access Control \n    AccessControlProduct private accessControlProduct;\n\n//--------------------------------------------------------------------- Event of Service Contract -----------------------------------------------//\n\n    // Eventi per notificare l'aggiunta di una Partita di Latte\n    event CheeseBlockAdded(address indexed userAddress,string message,uint256 id, string dop, uint256 quantity, uint256 price);\n\n    // Eventi per notificare la rimozione di un CheeseBlock\n    event CheeseBlockDeleted(address indexed userAddress, string message, uint256 _id);\n    \n    // Eventi per notificare la modifica di un Cheese Block \n    event CheeseBlockEdited(address indexed userAddress,string message, uint256 quantity);\n\n\n//--------------------------------------------------------------------- Constructor of Service Contract -----------------------------------------------//\n\n\n    constructor(\n        address _cheeseProducerInventoryStorage,\n        address _cheeseProducerService,\n        address _cheeseProducerBuyerService,\n        address _accessControlProduct) {\n        \n        cheeseProducerInventoryStorage = CheeseProducerInventoryStorage(_cheeseProducerInventoryStorage);\n        \n        cheeseProducerService = CheeseProducerService(_cheeseProducerService);\n\n        cheeseProducerBuyerService = CheeseProducerBuyerService(_cheeseProducerBuyerService);\n        \n        accessControlProduct = AccessControlProduct(_accessControlProduct);\n\n        cheeseProducerOrg = msg.sender;\n    }\n\n//--------------------------------------------------------------------- Modifier of Service Contract -----------------------------------------------//\n\n    modifier checkAddress(address caller) {\n        require(caller != address(0),\"Address Value is Zero!\");\n        require(caller != cheeseProducerOrg, \"Address not valid!\");\n        require(caller != address(cheeseProducerInventoryStorage), \"Address not valid of Inventory Storage\");\n        require(caller != address(cheeseProducerService),\"Address not valid of Service\");\n        _;\n    }\n\n    // TODO : Aggiungere il controllo per l'organizzazione che pu effettuare il cambio dei vari Address di Service di cui abbiamo bisogno\n\n//--------------------------------------------------------------------- Business Function of Service Contract -----------------------------------------------//\n\n\n    /* Questa funzione permette di aggiungere : \n       Un prodotto CheeseBlock all'inventario da poter mettere in vendita\n       \n       - Check da effettuare : \n\n       - Verifica che l'address dell'utente sia registrato \n       - Verifica che l'address dell'utente non sia l'organizzazione che ha deployato il contratto \n       - Aggiunta del blocco di formaggio in dipendenza dal milkbatch acquistato \n\n       - Evento : \n       - CheeseBlockAdded()\n     */\n    function addCheeseBlock(\n        address walletCheeseProducer,\n        string memory dop,\n        uint256 quantity,\n        uint256 price) internal  checkAddress(walletCheeseProducer) {\n        \n        require(cheeseProducerService.isUserPresent(walletCheeseProducer), \"User is not present in data\");\n        \n        (uint _idCheese,string memory _dop, uint256 _pricePerKg, uint256 _quantityToTal) = cheeseProducerInventoryStorage.addCheeseBlock(walletCheeseProducer, dop, quantity, price);\n\n        emit CheeseBlockAdded(walletCheeseProducer,\"MilkBatch convertito con successo ! Ecco il nuovo cheeseBlock!\",_idCheese, _dop, _quantityToTal, _pricePerKg);\n    }\n\n    /**\n     * Ottenere le informazioni del cheeseblock attraverso : \n     * - ID cheeseBlock\n     * */  \n    function getCheeseBlock(uint256 idCheeseBlock) external view checkAddress(msg.sender) returns (uint256, string memory, uint256, uint256) {\n        \n        address walletCheeseProducer = msg.sender;\n\n        require(cheeseProducerService.isUserPresent(walletCheeseProducer), \"User is not present in data\");\n\n        require(this.isCheeseBlockPresent(walletCheeseProducer, idCheeseBlock), \"CheeseBlock is not present in data\");\n\n        return cheeseProducerInventoryStorage.getCheeseBlock(walletCheeseProducer, idCheeseBlock);\n    }\n\n    /**\n     * Eliminare un Cheese Block attraverso l'id \n     * - ID \n     * - Verficare che l'utente che vuole eseguire la transazione sia presente.\n     */\n    function deleteCheeseBlock(uint256 id) external returns(bool){\n        // Retrieve msg.sender \n        address walletCheeseProducer = msg.sender;\n        // Check if User is Present\n        require(cheeseProducerService.isUserPresent(walletCheeseProducer), \"User is not present!\");\n        // Check if Product is present \n        require(this.isCheeseBlockPresent(walletCheeseProducer, id),\"Cheese Block not Present!\");\n\n        if(cheeseProducerInventoryStorage.deleteCheeseBlock(walletCheeseProducer,id)){\n            emit CheeseBlockDeleted(walletCheeseProducer,\"Cheese Block e' stato eleminato\", id);\n            return true;\n        }else {\n            return false;\n        }\n    }\n\n//--------------------------------------------------------------------- Get Function of Service Contract -----------------------------------------------//\n\n    function getDop(address walletCheeseProducer, uint256 id) external view returns(string memory) {\n        require(cheeseProducerService.isUserPresent(walletCheeseProducer), \"User is not present!\");\n\n        require(this.isCheeseBlockPresent(walletCheeseProducer, id),\"MilkBatch not Present!\");\n\n        return cheeseProducerInventoryStorage.getDop(walletCheeseProducer,id);        \n    }\n\n    function getPrice(address walletCheeseProducer, uint256 id) external view returns(uint256) {\n        require(cheeseProducerService.isUserPresent(walletCheeseProducer), \"User is not present!\");\n\n        require(this.isCheeseBlockPresent(walletCheeseProducer, id),\"MilkBatch not Present!\");\n\n        return cheeseProducerInventoryStorage.getPrice(walletCheeseProducer,id);        \n    }\n\n    function getCheeseBlockQuantity(address walletCheeseProducer, uint256 id) external view returns(uint256) {\n        require(cheeseProducerService.isUserPresent(walletCheeseProducer), \"User is not present!\");\n\n        require(this.isCheeseBlockPresent(walletCheeseProducer, id),\"MilkBatch not Present!\");\n\n        return cheeseProducerInventoryStorage.getQuantity(walletCheeseProducer,id);        \n    }\n\n    // Verifica se un determinato CheeseBlock  presente \n    function isCheeseBlockPresent(address walletCheeseProducer, uint256 idcheeseBlock) external view  checkAddress(walletCheeseProducer) returns(bool){\n\n        return cheeseProducerInventoryStorage.isCheeseBlockPresent(walletCheeseProducer,idcheeseBlock);\n    }\n\n\n     function getUserCheeseBlockIds(address walletCheeseProducer) external checkAddress(walletCheeseProducer) view returns (uint256[] memory){\n        // Check if exist \n        require(cheeseProducerService.isUserPresent(walletCheeseProducer), \"User is not present!\");\n\n        return cheeseProducerInventoryStorage.getUserCheeseBlockIds(walletCheeseProducer);\n    }\n\n    /*\n        - Recupera tutti i CheeseBlock presenti all'interno di Inventory \n        - Verifica che quel CheeseProducer sia all'interno del sistema \n    */\n    function getGlobalCheeseBlockIds(address walleRetailer) view  external  returns (uint256[] memory){\n        require(accessControlProduct.checkViewCheeseBlockProduct(walleRetailer),\"User Not Authorized!\");\n        \n        return cheeseProducerInventoryStorage.getGlobalCheeseBlockIds();\n    }\n\n//--------------------------------------------------------------------- Update Function of Service Contract -----------------------------------------------//\n\n    // Funzione per trasformare i vari milkBatch in CheeseBlock \n    function transformMilkBatch(address walletCheeseProducer, uint256 idMilkBatch, uint256 quantityToTransform, uint256 pricePerKg, string memory dop) external  {\n        \n        //Verifico che il prodotto esiste, che la quantit richiesta da trasformare non ecceda il massimo consentito\n        require(cheeseProducerBuyerService.isMilkBatchPresent(walletCheeseProducer,idMilkBatch),\"Prodotto non presente!\");\n        // Verifico la quantit \n        // Verifico che quella che devo trasformare sia inferiore o uguale a quella che ho acquistato \n        require(quantityToTransform<=cheeseProducerBuyerService.getQuantity(walletCheeseProducer,idMilkBatch),\"Quantita' da trasformare non valida!\");\n\n        uint256 newQuantity = cheeseProducerBuyerService.getQuantity(walletCheeseProducer,idMilkBatch) - quantityToTransform;\n\n        //TODO: gestire data di scadenza nel frontend ( Verificare la data di Scadenza con quella Odierna ) \n        cheeseProducerBuyerService.updateMilkBatchQuantity(walletCheeseProducer,idMilkBatch, newQuantity);\n\n        uint256 weight = quantityToTransform * 5;\n        //TODO: gestire il prezzo con SafeMath\n        addCheeseBlock(walletCheeseProducer, dop, weight, pricePerKg);\n    }\n\n\n// --------------------------------------------------------------------- SET function --------------------------------------------------------------------------------------------//\n\n\n    /**\n    * Decremento della quantit del CheeseBlock \n    * Verifica che la quantit sia maggiore di 0 -> altrimenti rimani \n    */\n    function updateCheeseBlockQuantity(address ownerCheeseProducer, uint256 id, uint256 quantity) external checkAddress(ownerCheeseProducer) {\n\n        require(cheeseProducerService.isUserPresent(ownerCheeseProducer), \"User is not present!\");\n\n        require(this.isCheeseBlockPresent(ownerCheeseProducer, id),\"MilkBatch not Present!\");\n\n        cheeseProducerInventoryStorage.updateCheeseBlockQuantity(ownerCheeseProducer, id, quantity);\n\n        emit CheeseBlockEdited(ownerCheeseProducer,\"CheeseBlock edited!\", quantity);\n    }\n\n}\n",
  "sourcePath": "/home/leone-pc/Documenti/GitHub/FilieraToken/Filiera-Token-Smart-Contract/contracts/Actor/CheeseProducer-smart-contract/inventory/CheeseProducerInventoryService.sol",
  "compiler": {
    "name": "solc",
    "version": "0.8.24+commit.e11b9ed9.Emscripten.clang"
  },
  "schemaVersion": "3.4.16",
  "updatedAt": "2024-03-01T19:20:25.566Z",
  "devdoc": {
    "kind": "dev",
    "methods": {},
    "version": 1
  },
  "userdoc": {
    "kind": "user",
    "methods": {
      "deleteCheeseBlock(uint256)": {
        "notice": "Eliminare un Cheese Block attraverso l'id  - ID  - Verficare che l'utente che vuole eseguire la transazione sia presente."
      },
      "getCheeseBlock(uint256)": {
        "notice": "Ottenere le informazioni del cheeseblock attraverso :  - ID cheeseBlock "
      },
      "updateCheeseBlockQuantity(address,uint256,uint256)": {
        "notice": "Decremento della quantit del CheeseBlock  Verifica che la quantit sia maggiore di 0 -> altrimenti rimani "
      }
    },
    "version": 1
  }
}