{
  "contractName": "CheeseProducerInventoryService",
  "abi": [
    {
      "inputs": [
        {
          "internalType": "address",
          "name": "_cheeseProducerInventoryStorage",
          "type": "address"
        },
        {
          "internalType": "address",
          "name": "_cheeseProducerService",
          "type": "address"
        },
        {
          "internalType": "address",
          "name": "_cheeseProducerBuyerService",
          "type": "address"
        },
        {
          "internalType": "address",
          "name": "_accessControlProduct",
          "type": "address"
        }
      ],
      "stateMutability": "nonpayable",
      "type": "constructor"
    },
    {
      "anonymous": false,
      "inputs": [
        {
          "indexed": true,
          "internalType": "address",
          "name": "userAddress",
          "type": "address"
        },
        {
          "indexed": false,
          "internalType": "string",
          "name": "message",
          "type": "string"
        },
        {
          "indexed": false,
          "internalType": "uint256",
          "name": "id",
          "type": "uint256"
        },
        {
          "indexed": false,
          "internalType": "string",
          "name": "dop",
          "type": "string"
        },
        {
          "indexed": false,
          "internalType": "uint256",
          "name": "quantity",
          "type": "uint256"
        },
        {
          "indexed": false,
          "internalType": "uint256",
          "name": "price",
          "type": "uint256"
        }
      ],
      "name": "CheeseBlockAdded",
      "type": "event"
    },
    {
      "anonymous": false,
      "inputs": [
        {
          "indexed": true,
          "internalType": "address",
          "name": "userAddress",
          "type": "address"
        },
        {
          "indexed": false,
          "internalType": "string",
          "name": "message",
          "type": "string"
        },
        {
          "indexed": false,
          "internalType": "uint256",
          "name": "_id",
          "type": "uint256"
        }
      ],
      "name": "CheeseBlockDeleted",
      "type": "event"
    },
    {
      "anonymous": false,
      "inputs": [
        {
          "indexed": true,
          "internalType": "address",
          "name": "userAddress",
          "type": "address"
        },
        {
          "indexed": false,
          "internalType": "string",
          "name": "message",
          "type": "string"
        },
        {
          "indexed": false,
          "internalType": "uint256",
          "name": "quantity",
          "type": "uint256"
        }
      ],
      "name": "CheeseBlockEdited",
      "type": "event"
    },
    {
      "inputs": [
        {
          "internalType": "uint256",
          "name": "_id_CheeseBlock",
          "type": "uint256"
        }
      ],
      "name": "getCheeseBlock",
      "outputs": [
        {
          "internalType": "uint256",
          "name": "",
          "type": "uint256"
        },
        {
          "internalType": "string",
          "name": "",
          "type": "string"
        },
        {
          "internalType": "uint256",
          "name": "",
          "type": "uint256"
        },
        {
          "internalType": "uint256",
          "name": "",
          "type": "uint256"
        }
      ],
      "stateMutability": "view",
      "type": "function"
    },
    {
      "inputs": [
        {
          "internalType": "uint256",
          "name": "_id",
          "type": "uint256"
        }
      ],
      "name": "deleteCheeseBlock",
      "outputs": [
        {
          "internalType": "bool",
          "name": "",
          "type": "bool"
        }
      ],
      "stateMutability": "nonpayable",
      "type": "function"
    },
    {
      "inputs": [
        {
          "internalType": "address",
          "name": "walletCheeseProducer",
          "type": "address"
        },
        {
          "internalType": "uint256",
          "name": "_id",
          "type": "uint256"
        }
      ],
      "name": "getDop",
      "outputs": [
        {
          "internalType": "string",
          "name": "",
          "type": "string"
        }
      ],
      "stateMutability": "view",
      "type": "function"
    },
    {
      "inputs": [
        {
          "internalType": "address",
          "name": "walletCheeseProducer",
          "type": "address"
        },
        {
          "internalType": "uint256",
          "name": "_id",
          "type": "uint256"
        }
      ],
      "name": "getPrice",
      "outputs": [
        {
          "internalType": "uint256",
          "name": "",
          "type": "uint256"
        }
      ],
      "stateMutability": "view",
      "type": "function"
    },
    {
      "inputs": [
        {
          "internalType": "address",
          "name": "walletCheeseProducer",
          "type": "address"
        },
        {
          "internalType": "uint256",
          "name": "_id",
          "type": "uint256"
        }
      ],
      "name": "getCheeseBlockQuantity",
      "outputs": [
        {
          "internalType": "uint256",
          "name": "",
          "type": "uint256"
        }
      ],
      "stateMutability": "view",
      "type": "function"
    },
    {
      "inputs": [
        {
          "internalType": "address",
          "name": "walletCheeseProducer",
          "type": "address"
        },
        {
          "internalType": "uint256",
          "name": "_id_cheeseBlock",
          "type": "uint256"
        }
      ],
      "name": "isCheeseBlockPresent",
      "outputs": [
        {
          "internalType": "bool",
          "name": "",
          "type": "bool"
        }
      ],
      "stateMutability": "view",
      "type": "function"
    },
    {
      "inputs": [
        {
          "internalType": "address",
          "name": "walletCheeseProducer",
          "type": "address"
        }
      ],
      "name": "getCheeseBlockListIdBySingleCheeseProducer",
      "outputs": [
        {
          "internalType": "uint256[]",
          "name": "",
          "type": "uint256[]"
        }
      ],
      "stateMutability": "view",
      "type": "function"
    },
    {
      "inputs": [
        {
          "internalType": "address",
          "name": "walleRetailer",
          "type": "address"
        }
      ],
      "name": "getAllCheeseBlockList",
      "outputs": [
        {
          "internalType": "uint256[]",
          "name": "",
          "type": "uint256[]"
        }
      ],
      "stateMutability": "view",
      "type": "function"
    },
    {
      "inputs": [
        {
          "internalType": "address",
          "name": "walletCheeseProducer",
          "type": "address"
        },
        {
          "internalType": "uint256",
          "name": "_id_MilkBatchAcquistato",
          "type": "uint256"
        },
        {
          "internalType": "uint256",
          "name": "quantityToTransform",
          "type": "uint256"
        },
        {
          "internalType": "uint256",
          "name": "pricePerKg",
          "type": "uint256"
        },
        {
          "internalType": "string",
          "name": "dop",
          "type": "string"
        }
      ],
      "name": "transformMilkBatch",
      "outputs": [],
      "stateMutability": "nonpayable",
      "type": "function"
    },
    {
      "inputs": [
        {
          "internalType": "address",
          "name": "ownerCheeseProducer",
          "type": "address"
        },
        {
          "internalType": "uint256",
          "name": "_id",
          "type": "uint256"
        },
        {
          "internalType": "uint256",
          "name": "_quantity",
          "type": "uint256"
        }
      ],
      "name": "updateCheeseBlockQuantity",
      "outputs": [],
      "stateMutability": "nonpayable",
      "type": "function"
    }
  ],
  "bytecode": "0x60806040523480156200001157600080fd5b50604051620037e5380380620037e58339818101604052810190620000379190620001ef565b83600160006101000a81548173ffffffffffffffffffffffffffffffffffffffff021916908373ffffffffffffffffffffffffffffffffffffffff16021790555082600260006101000a81548173ffffffffffffffffffffffffffffffffffffffff021916908373ffffffffffffffffffffffffffffffffffffffff16021790555081600360006101000a81548173ffffffffffffffffffffffffffffffffffffffff021916908373ffffffffffffffffffffffffffffffffffffffff16021790555080600460006101000a81548173ffffffffffffffffffffffffffffffffffffffff021916908373ffffffffffffffffffffffffffffffffffffffff160217905550336000806101000a81548173ffffffffffffffffffffffffffffffffffffffff021916908373ffffffffffffffffffffffffffffffffffffffff1602179055505050505062000261565b600080fd5b600073ffffffffffffffffffffffffffffffffffffffff82169050919050565b6000620001b7826200018a565b9050919050565b620001c981620001aa565b8114620001d557600080fd5b50565b600081519050620001e981620001be565b92915050565b600080600080608085870312156200020c576200020b62000185565b5b60006200021c87828801620001d8565b94505060206200022f87828801620001d8565b93505060406200024287828801620001d8565b92505060606200025587828801620001d8565b91505092959194509250565b61357480620002716000396000f3fe608060405234801561001057600080fd5b506004361061009e5760003560e01c806393df200a1161006657806393df200a14610182578063d7da36cf1461019e578063e78dd3bf146101ce578063f93bd021146101fe578063f9d61a1e1461022e5761009e565b8063392fd54b146100a3578063449e815d146100d35780634c939786146101035780634f0205bf1461013657806377e94d9e14610166575b600080fd5b6100bd60048036038101906100b89190612459565b61025e565b6040516100ca919061254e565b60405180910390f35b6100ed60048036038101906100e8919061259c565b6103d8565b6040516100fa91906125eb565b60405180910390f35b61011d60048036038101906101189190612606565b610616565b60405161012d94939291906126c3565b60405180910390f35b610150600480360381019061014b919061259c565b610a8a565b60405161015d919061272a565b60405180910390f35b610180600480360381019061017b9190612745565b610d51565b005b61019c600480360381019061019791906128cd565b6111ea565b005b6101b860048036038101906101b3919061259c565b61150c565b6040516101c591906125eb565b60405180910390f35b6101e860048036038101906101e39190612459565b61174a565b6040516101f5919061254e565b60405180910390f35b6102186004803603810190610213919061259c565b611aee565b6040516102259190612964565b60405180910390f35b61024860048036038101906102439190612606565b611d31565b604051610255919061272a565b60405180910390f35b6060600460009054906101000a900473ffffffffffffffffffffffffffffffffffffffff1673ffffffffffffffffffffffffffffffffffffffff1663fe174e3a836040518263ffffffff1660e01b81526004016102bb9190612995565b602060405180830381865afa1580156102d8573d6000803e3d6000fd5b505050506040513d601f19601f820116820180604052508101906102fc91906129dc565b61033b576040517f08c379a000000000000000000000000000000000000000000000000000000000815260040161033290612a55565b60405180910390fd5b600160009054906101000a900473ffffffffffffffffffffffffffffffffffffffff1673ffffffffffffffffffffffffffffffffffffffff1663ddc21c786040518163ffffffff1660e01b8152600401600060405180830381865afa1580156103a8573d6000803e3d6000fd5b505050506040513d6000823e3d601f19601f820116820180604052508101906103d19190612b52565b9050919050565b6000600260009054906101000a900473ffffffffffffffffffffffffffffffffffffffff1673ffffffffffffffffffffffffffffffffffffffff1663a5578807846040518263ffffffff1660e01b81526004016104359190612995565b602060405180830381865afa158015610452573d6000803e3d6000fd5b505050506040513d601f19601f8201168201806040525081019061047691906129dc565b6104b5576040517f08c379a00000000000000000000000000000000000000000000000000000000081526004016104ac90612be7565b60405180910390fd5b3073ffffffffffffffffffffffffffffffffffffffff16634f0205bf84846040518363ffffffff1660e01b81526004016104f0929190612c07565b602060405180830381865afa15801561050d573d6000803e3d6000fd5b505050506040513d601f19601f8201168201806040525081019061053191906129dc565b610570576040517f08c379a000000000000000000000000000000000000000000000000000000000815260040161056790612c7c565b60405180910390fd5b600160009054906101000a900473ffffffffffffffffffffffffffffffffffffffff1673ffffffffffffffffffffffffffffffffffffffff1663449e815d84846040518363ffffffff1660e01b81526004016105cd929190612c07565b602060405180830381865afa1580156105ea573d6000803e3d6000fd5b505050506040513d601f19601f8201168201806040525081019061060e9190612c9c565b905092915050565b6000606060008033600073ffffffffffffffffffffffffffffffffffffffff168173ffffffffffffffffffffffffffffffffffffffff160361068d576040517f08c379a000000000000000000000000000000000000000000000000000000000815260040161068490612d15565b60405180910390fd5b60008054906101000a900473ffffffffffffffffffffffffffffffffffffffff1673ffffffffffffffffffffffffffffffffffffffff168173ffffffffffffffffffffffffffffffffffffffff160361071b576040517f08c379a000000000000000000000000000000000000000000000000000000000815260040161071290612d81565b60405180910390fd5b600160009054906101000a900473ffffffffffffffffffffffffffffffffffffffff1673ffffffffffffffffffffffffffffffffffffffff168173ffffffffffffffffffffffffffffffffffffffff16036107ab576040517f08c379a00000000000000000000000000000000000000000000000000000000081526004016107a290612e13565b60405180910390fd5b600260009054906101000a900473ffffffffffffffffffffffffffffffffffffffff1673ffffffffffffffffffffffffffffffffffffffff168173ffffffffffffffffffffffffffffffffffffffff160361083b576040517f08c379a000000000000000000000000000000000000000000000000000000000815260040161083290612e7f565b60405180910390fd5b6000339050600260009054906101000a900473ffffffffffffffffffffffffffffffffffffffff1673ffffffffffffffffffffffffffffffffffffffff1663a5578807826040518263ffffffff1660e01b815260040161089b9190612995565b602060405180830381865afa1580156108b8573d6000803e3d6000fd5b505050506040513d601f19601f820116820180604052508101906108dc91906129dc565b61091b576040517f08c379a000000000000000000000000000000000000000000000000000000000815260040161091290612eeb565b60405180910390fd5b3073ffffffffffffffffffffffffffffffffffffffff16634f0205bf82896040518363ffffffff1660e01b8152600401610956929190612c07565b602060405180830381865afa158015610973573d6000803e3d6000fd5b505050506040513d601f19601f8201168201806040525081019061099791906129dc565b6109d6576040517f08c379a00000000000000000000000000000000000000000000000000000000081526004016109cd90612f7d565b60405180910390fd5b600160009054906101000a900473ffffffffffffffffffffffffffffffffffffffff1673ffffffffffffffffffffffffffffffffffffffff16636fb82e0682896040518363ffffffff1660e01b8152600401610a33929190612c07565b600060405180830381865afa158015610a50573d6000803e3d6000fd5b505050506040513d6000823e3d601f19601f82011682018060405250810190610a79919061300d565b955095509550955050509193509193565b600082600073ffffffffffffffffffffffffffffffffffffffff168173ffffffffffffffffffffffffffffffffffffffff1603610afc576040517f08c379a0000000000000000000000000000000000000000000000000000000008152600401610af390612d15565b60405180910390fd5b60008054906101000a900473ffffffffffffffffffffffffffffffffffffffff1673ffffffffffffffffffffffffffffffffffffffff168173ffffffffffffffffffffffffffffffffffffffff1603610b8a576040517f08c379a0000000000000000000000000000000000000000000000000000000008152600401610b8190612d81565b60405180910390fd5b600160009054906101000a900473ffffffffffffffffffffffffffffffffffffffff1673ffffffffffffffffffffffffffffffffffffffff168173ffffffffffffffffffffffffffffffffffffffff1603610c1a576040517f08c379a0000000000000000000000000000000000000000000000000000000008152600401610c1190612e13565b60405180910390fd5b600260009054906101000a900473ffffffffffffffffffffffffffffffffffffffff1673ffffffffffffffffffffffffffffffffffffffff168173ffffffffffffffffffffffffffffffffffffffff1603610caa576040517f08c379a0000000000000000000000000000000000000000000000000000000008152600401610ca190612e7f565b60405180910390fd5b600160009054906101000a900473ffffffffffffffffffffffffffffffffffffffff1673ffffffffffffffffffffffffffffffffffffffff16634f0205bf85856040518363ffffffff1660e01b8152600401610d07929190612c07565b602060405180830381865afa158015610d24573d6000803e3d6000fd5b505050506040513d601f19601f82011682018060405250810190610d4891906129dc565b91505092915050565b82600073ffffffffffffffffffffffffffffffffffffffff168173ffffffffffffffffffffffffffffffffffffffff1603610dc1576040517f08c379a0000000000000000000000000000000000000000000000000000000008152600401610db890612d15565b60405180910390fd5b60008054906101000a900473ffffffffffffffffffffffffffffffffffffffff1673ffffffffffffffffffffffffffffffffffffffff168173ffffffffffffffffffffffffffffffffffffffff1603610e4f576040517f08c379a0000000000000000000000000000000000000000000000000000000008152600401610e4690612d81565b60405180910390fd5b600160009054906101000a900473ffffffffffffffffffffffffffffffffffffffff1673ffffffffffffffffffffffffffffffffffffffff168173ffffffffffffffffffffffffffffffffffffffff1603610edf576040517f08c379a0000000000000000000000000000000000000000000000000000000008152600401610ed690612e13565b60405180910390fd5b600260009054906101000a900473ffffffffffffffffffffffffffffffffffffffff1673ffffffffffffffffffffffffffffffffffffffff168173ffffffffffffffffffffffffffffffffffffffff1603610f6f576040517f08c379a0000000000000000000000000000000000000000000000000000000008152600401610f6690612e7f565b60405180910390fd5b600260009054906101000a900473ffffffffffffffffffffffffffffffffffffffff1673ffffffffffffffffffffffffffffffffffffffff1663a5578807856040518263ffffffff1660e01b8152600401610fca9190612995565b602060405180830381865afa158015610fe7573d6000803e3d6000fd5b505050506040513d601f19601f8201168201806040525081019061100b91906129dc565b61104a576040517f08c379a000000000000000000000000000000000000000000000000000000000815260040161104190612be7565b60405180910390fd5b3073ffffffffffffffffffffffffffffffffffffffff16634f0205bf85856040518363ffffffff1660e01b8152600401611085929190612c07565b602060405180830381865afa1580156110a2573d6000803e3d6000fd5b505050506040513d601f19601f820116820180604052508101906110c691906129dc565b611105576040517f08c379a00000000000000000000000000000000000000000000000000000000081526004016110fc90612c7c565b60405180910390fd5b600160009054906101000a900473ffffffffffffffffffffffffffffffffffffffff1673ffffffffffffffffffffffffffffffffffffffff166377e94d9e8585856040518463ffffffff1660e01b815260040161116493929190613090565b600060405180830381600087803b15801561117e57600080fd5b505af1158015611192573d6000803e3d6000fd5b505050508373ffffffffffffffffffffffffffffffffffffffff167f8d5408d361784b3c217d0103c62a49474b07e85b6dc6b2f1a3c085f44142c6f8836040516111dc9190613113565b60405180910390a250505050565b600360009054906101000a900473ffffffffffffffffffffffffffffffffffffffff1673ffffffffffffffffffffffffffffffffffffffff166372e4235b86866040518363ffffffff1660e01b8152600401611247929190612c07565b602060405180830381865afa158015611264573d6000803e3d6000fd5b505050506040513d601f19601f8201168201806040525081019061128891906129dc565b6112c7576040517f08c379a00000000000000000000000000000000000000000000000000000000081526004016112be9061318d565b60405180910390fd5b600360009054906101000a900473ffffffffffffffffffffffffffffffffffffffff1673ffffffffffffffffffffffffffffffffffffffff16631e073fcf86866040518363ffffffff1660e01b8152600401611324929190612c07565b602060405180830381865afa158015611341573d6000803e3d6000fd5b505050506040513d601f19601f820116820180604052508101906113659190612c9c565b8311156113a7576040517f08c379a000000000000000000000000000000000000000000000000000000000815260040161139e9061321f565b60405180910390fd5b600083600360009054906101000a900473ffffffffffffffffffffffffffffffffffffffff1673ffffffffffffffffffffffffffffffffffffffff16631e073fcf88886040518363ffffffff1660e01b8152600401611407929190612c07565b602060405180830381865afa158015611424573d6000803e3d6000fd5b505050506040513d601f19601f820116820180604052508101906114489190612c9c565b611452919061326e565b9050600360009054906101000a900473ffffffffffffffffffffffffffffffffffffffff1673ffffffffffffffffffffffffffffffffffffffff1663cb6f5eee8787846040518463ffffffff1660e01b81526004016114b393929190613090565b600060405180830381600087803b1580156114cd57600080fd5b505af11580156114e1573d6000803e3d6000fd5b5050505060006005856114f491906132a2565b90506115038787858488611fd5565b50505050505050565b6000600260009054906101000a900473ffffffffffffffffffffffffffffffffffffffff1673ffffffffffffffffffffffffffffffffffffffff1663a5578807846040518263ffffffff1660e01b81526004016115699190612995565b602060405180830381865afa158015611586573d6000803e3d6000fd5b505050506040513d601f19601f820116820180604052508101906115aa91906129dc565b6115e9576040517f08c379a00000000000000000000000000000000000000000000000000000000081526004016115e090612be7565b60405180910390fd5b3073ffffffffffffffffffffffffffffffffffffffff16634f0205bf84846040518363ffffffff1660e01b8152600401611624929190612c07565b602060405180830381865afa158015611641573d6000803e3d6000fd5b505050506040513d601f19601f8201168201806040525081019061166591906129dc565b6116a4576040517f08c379a000000000000000000000000000000000000000000000000000000000815260040161169b90612c7c565b60405180910390fd5b600160009054906101000a900473ffffffffffffffffffffffffffffffffffffffff1673ffffffffffffffffffffffffffffffffffffffff16631e073fcf84846040518363ffffffff1660e01b8152600401611701929190612c07565b602060405180830381865afa15801561171e573d6000803e3d6000fd5b505050506040513d601f19601f820116820180604052508101906117429190612c9c565b905092915050565b606081600073ffffffffffffffffffffffffffffffffffffffff168173ffffffffffffffffffffffffffffffffffffffff16036117bc576040517f08c379a00000000000000000000000000000000000000000000000000000000081526004016117b390612d15565b60405180910390fd5b60008054906101000a900473ffffffffffffffffffffffffffffffffffffffff1673ffffffffffffffffffffffffffffffffffffffff168173ffffffffffffffffffffffffffffffffffffffff160361184a576040517f08c379a000000000000000000000000000000000000000000000000000000000815260040161184190612d81565b60405180910390fd5b600160009054906101000a900473ffffffffffffffffffffffffffffffffffffffff1673ffffffffffffffffffffffffffffffffffffffff168173ffffffffffffffffffffffffffffffffffffffff16036118da576040517f08c379a00000000000000000000000000000000000000000000000000000000081526004016118d190612e13565b60405180910390fd5b600260009054906101000a900473ffffffffffffffffffffffffffffffffffffffff1673ffffffffffffffffffffffffffffffffffffffff168173ffffffffffffffffffffffffffffffffffffffff160361196a576040517f08c379a000000000000000000000000000000000000000000000000000000000815260040161196190612e7f565b60405180910390fd5b600260009054906101000a900473ffffffffffffffffffffffffffffffffffffffff1673ffffffffffffffffffffffffffffffffffffffff1663a5578807846040518263ffffffff1660e01b81526004016119c59190612995565b602060405180830381865afa1580156119e2573d6000803e3d6000fd5b505050506040513d601f19601f82011682018060405250810190611a0691906129dc565b611a45576040517f08c379a0000000000000000000000000000000000000000000000000000000008152600401611a3c90612be7565b60405180910390fd5b600160009054906101000a900473ffffffffffffffffffffffffffffffffffffffff1673ffffffffffffffffffffffffffffffffffffffff16632b94ae76846040518263ffffffff1660e01b8152600401611aa09190612995565b600060405180830381865afa158015611abd573d6000803e3d6000fd5b505050506040513d6000823e3d601f19601f82011682018060405250810190611ae69190612b52565b915050919050565b6060600260009054906101000a900473ffffffffffffffffffffffffffffffffffffffff1673ffffffffffffffffffffffffffffffffffffffff1663a5578807846040518263ffffffff1660e01b8152600401611b4b9190612995565b602060405180830381865afa158015611b68573d6000803e3d6000fd5b505050506040513d601f19601f82011682018060405250810190611b8c91906129dc565b611bcb576040517f08c379a0000000000000000000000000000000000000000000000000000000008152600401611bc290612be7565b60405180910390fd5b3073ffffffffffffffffffffffffffffffffffffffff16634f0205bf84846040518363ffffffff1660e01b8152600401611c06929190612c07565b602060405180830381865afa158015611c23573d6000803e3d6000fd5b505050506040513d601f19601f82011682018060405250810190611c4791906129dc565b611c86576040517f08c379a0000000000000000000000000000000000000000000000000000000008152600401611c7d90612c7c565b60405180910390fd5b600160009054906101000a900473ffffffffffffffffffffffffffffffffffffffff1673ffffffffffffffffffffffffffffffffffffffff1663f93bd02184846040518363ffffffff1660e01b8152600401611ce3929190612c07565b600060405180830381865afa158015611d00573d6000803e3d6000fd5b505050506040513d6000823e3d601f19601f82011682018060405250810190611d2991906132e4565b905092915050565b600080339050600260009054906101000a900473ffffffffffffffffffffffffffffffffffffffff1673ffffffffffffffffffffffffffffffffffffffff1663a5578807826040518263ffffffff1660e01b8152600401611d929190612995565b602060405180830381865afa158015611daf573d6000803e3d6000fd5b505050506040513d601f19601f82011682018060405250810190611dd391906129dc565b611e12576040517f08c379a0000000000000000000000000000000000000000000000000000000008152600401611e0990612be7565b60405180910390fd5b3073ffffffffffffffffffffffffffffffffffffffff16634f0205bf82856040518363ffffffff1660e01b8152600401611e4d929190612c07565b602060405180830381865afa158015611e6a573d6000803e3d6000fd5b505050506040513d601f19601f82011682018060405250810190611e8e91906129dc565b611ecd576040517f08c379a0000000000000000000000000000000000000000000000000000000008152600401611ec490613379565b60405180910390fd5b600160009054906101000a900473ffffffffffffffffffffffffffffffffffffffff1673ffffffffffffffffffffffffffffffffffffffff1663f437eff182856040518363ffffffff1660e01b8152600401611f2a929190612c07565b6020604051808303816000875af1158015611f49573d6000803e3d6000fd5b505050506040513d601f19601f82011682018060405250810190611f6d91906129dc565b15611fca578073ffffffffffffffffffffffffffffffffffffffff167fc6c65fc1de8ea24c925debf6bd8533781f25ea92c3a42980607af396ebb8dfc884604051611fb891906133e5565b60405180910390a26001915050611fd0565b60009150505b919050565b84600073ffffffffffffffffffffffffffffffffffffffff168173ffffffffffffffffffffffffffffffffffffffff1603612045576040517f08c379a000000000000000000000000000000000000000000000000000000000815260040161203c90612d15565b60405180910390fd5b60008054906101000a900473ffffffffffffffffffffffffffffffffffffffff1673ffffffffffffffffffffffffffffffffffffffff168173ffffffffffffffffffffffffffffffffffffffff16036120d3576040517f08c379a00000000000000000000000000000000000000000000000000000000081526004016120ca90612d81565b60405180910390fd5b600160009054906101000a900473ffffffffffffffffffffffffffffffffffffffff1673ffffffffffffffffffffffffffffffffffffffff168173ffffffffffffffffffffffffffffffffffffffff1603612163576040517f08c379a000000000000000000000000000000000000000000000000000000000815260040161215a90612e13565b60405180910390fd5b600260009054906101000a900473ffffffffffffffffffffffffffffffffffffffff1673ffffffffffffffffffffffffffffffffffffffff168173ffffffffffffffffffffffffffffffffffffffff16036121f3576040517f08c379a00000000000000000000000000000000000000000000000000000000081526004016121ea90612e7f565b60405180910390fd5b600260009054906101000a900473ffffffffffffffffffffffffffffffffffffffff1673ffffffffffffffffffffffffffffffffffffffff1663a5578807876040518263ffffffff1660e01b815260040161224e9190612995565b602060405180830381865afa15801561226b573d6000803e3d6000fd5b505050506040513d601f19601f8201168201806040525081019061228f91906129dc565b6122ce576040517f08c379a00000000000000000000000000000000000000000000000000000000081526004016122c590612eeb565b60405180910390fd5b600080600080600160009054906101000a900473ffffffffffffffffffffffffffffffffffffffff1673ffffffffffffffffffffffffffffffffffffffff1663459b1e918b8b8b8b8b6040518663ffffffff1660e01b8152600401612337959493929190613413565b6000604051808303816000875af1158015612356573d6000803e3d6000fd5b505050506040513d6000823e3d601f19601f8201168201806040525081019061237f919061300d565b93509350935093508973ffffffffffffffffffffffffffffffffffffffff167f736bb084e5388f05b961110ece2195bd0813ee49bdbd348f25aad1957d550ae5858584866040516123d394939291906134df565b60405180910390a250505050505050505050565b6000604051905090565b600080fd5b600080fd5b600073ffffffffffffffffffffffffffffffffffffffff82169050919050565b6000612426826123fb565b9050919050565b6124368161241b565b811461244157600080fd5b50565b6000813590506124538161242d565b92915050565b60006020828403121561246f5761246e6123f1565b5b600061247d84828501612444565b91505092915050565b600081519050919050565b600082825260208201905092915050565b6000819050602082019050919050565b6000819050919050565b6124c5816124b2565b82525050565b60006124d783836124bc565b60208301905092915050565b6000602082019050919050565b60006124fb82612486565b6125058185612491565b9350612510836124a2565b8060005b8381101561254157815161252888826124cb565b9750612533836124e3565b925050600181019050612514565b5085935050505092915050565b6000602082019050818103600083015261256881846124f0565b905092915050565b612579816124b2565b811461258457600080fd5b50565b60008135905061259681612570565b92915050565b600080604083850312156125b3576125b26123f1565b5b60006125c185828601612444565b92505060206125d285828601612587565b9150509250929050565b6125e5816124b2565b82525050565b600060208201905061260060008301846125dc565b92915050565b60006020828403121561261c5761261b6123f1565b5b600061262a84828501612587565b91505092915050565b600081519050919050565b600082825260208201905092915050565b60005b8381101561266d578082015181840152602081019050612652565b60008484015250505050565b6000601f19601f8301169050919050565b600061269582612633565b61269f818561263e565b93506126af81856020860161264f565b6126b881612679565b840191505092915050565b60006080820190506126d860008301876125dc565b81810360208301526126ea818661268a565b90506126f960408301856125dc565b61270660608301846125dc565b95945050505050565b60008115159050919050565b6127248161270f565b82525050565b600060208201905061273f600083018461271b565b92915050565b60008060006060848603121561275e5761275d6123f1565b5b600061276c86828701612444565b935050602061277d86828701612587565b925050604061278e86828701612587565b9150509250925092565b600080fd5b600080fd5b7f4e487b7100000000000000000000000000000000000000000000000000000000600052604160045260246000fd5b6127da82612679565b810181811067ffffffffffffffff821117156127f9576127f86127a2565b5b80604052505050565b600061280c6123e7565b905061281882826127d1565b919050565b600067ffffffffffffffff821115612838576128376127a2565b5b61284182612679565b9050602081019050919050565b82818337600083830152505050565b600061287061286b8461281d565b612802565b90508281526020810184848401111561288c5761288b61279d565b5b61289784828561284e565b509392505050565b600082601f8301126128b4576128b3612798565b5b81356128c484826020860161285d565b91505092915050565b600080600080600060a086880312156128e9576128e86123f1565b5b60006128f788828901612444565b955050602061290888828901612587565b945050604061291988828901612587565b935050606061292a88828901612587565b925050608086013567ffffffffffffffff81111561294b5761294a6123f6565b5b6129578882890161289f565b9150509295509295909350565b6000602082019050818103600083015261297e818461268a565b905092915050565b61298f8161241b565b82525050565b60006020820190506129aa6000830184612986565b92915050565b6129b98161270f565b81146129c457600080fd5b50565b6000815190506129d6816129b0565b92915050565b6000602082840312156129f2576129f16123f1565b5b6000612a00848285016129c7565b91505092915050565b7f55736572204e6f7420417574686f72697a656421000000000000000000000000600082015250565b6000612a3f60148361263e565b9150612a4a82612a09565b602082019050919050565b60006020820190508181036000830152612a6e81612a32565b9050919050565b600067ffffffffffffffff821115612a9057612a8f6127a2565b5b602082029050602081019050919050565b600080fd5b600081519050612ab581612570565b92915050565b6000612ace612ac984612a75565b612802565b90508083825260208201905060208402830185811115612af157612af0612aa1565b5b835b81811015612b1a5780612b068882612aa6565b845260208401935050602081019050612af3565b5050509392505050565b600082601f830112612b3957612b38612798565b5b8151612b49848260208601612abb565b91505092915050565b600060208284031215612b6857612b676123f1565b5b600082015167ffffffffffffffff811115612b8657612b856123f6565b5b612b9284828501612b24565b91505092915050565b7f55736572206973206e6f742070726573656e7421000000000000000000000000600082015250565b6000612bd160148361263e565b9150612bdc82612b9b565b602082019050919050565b60006020820190508181036000830152612c0081612bc4565b9050919050565b6000604082019050612c1c6000830185612986565b612c2960208301846125dc565b9392505050565b7f4d696c6b4261746368206e6f742050726573656e742100000000000000000000600082015250565b6000612c6660168361263e565b9150612c7182612c30565b602082019050919050565b60006020820190508181036000830152612c9581612c59565b9050919050565b600060208284031215612cb257612cb16123f1565b5b6000612cc084828501612aa6565b91505092915050565b7f416464726573732056616c7565206973205a65726f2100000000000000000000600082015250565b6000612cff60168361263e565b9150612d0a82612cc9565b602082019050919050565b60006020820190508181036000830152612d2e81612cf2565b9050919050565b7f41646472657373206e6f742076616c6964210000000000000000000000000000600082015250565b6000612d6b60128361263e565b9150612d7682612d35565b602082019050919050565b60006020820190508181036000830152612d9a81612d5e565b9050919050565b7f41646472657373206e6f742076616c6964206f6620496e76656e746f7279205360008201527f746f726167650000000000000000000000000000000000000000000000000000602082015250565b6000612dfd60268361263e565b9150612e0882612da1565b604082019050919050565b60006020820190508181036000830152612e2c81612df0565b9050919050565b7f41646472657373206e6f742076616c6964206f66205365727669636500000000600082015250565b6000612e69601c8361263e565b9150612e7482612e33565b602082019050919050565b60006020820190508181036000830152612e9881612e5c565b9050919050565b7f55736572206973206e6f742070726573656e7420696e20646174610000000000600082015250565b6000612ed5601b8361263e565b9150612ee082612e9f565b602082019050919050565b60006020820190508181036000830152612f0481612ec8565b9050919050565b7f436865657365426c6f636b206973206e6f742070726573656e7420696e20646160008201527f7461000000000000000000000000000000000000000000000000000000000000602082015250565b6000612f6760228361263e565b9150612f7282612f0b565b604082019050919050565b60006020820190508181036000830152612f9681612f5a565b9050919050565b6000612fb0612fab8461281d565b612802565b905082815260208101848484011115612fcc57612fcb61279d565b5b612fd784828561264f565b509392505050565b600082601f830112612ff457612ff3612798565b5b8151613004848260208601612f9d565b91505092915050565b60008060008060808587031215613027576130266123f1565b5b600061303587828801612aa6565b945050602085015167ffffffffffffffff811115613056576130556123f6565b5b61306287828801612fdf565b935050604061307387828801612aa6565b925050606061308487828801612aa6565b91505092959194509250565b60006060820190506130a56000830186612986565b6130b260208301856125dc565b6130bf60408301846125dc565b949350505050565b7f436865657365426c6f636b206564697465642100000000000000000000000000600082015250565b60006130fd60138361263e565b9150613108826130c7565b602082019050919050565b6000604082019050818103600083015261312c816130f0565b905061313b60208301846125dc565b92915050565b7f50726f646f74746f206e6f6e2070726573656e74652100000000000000000000600082015250565b600061317760168361263e565b915061318282613141565b602082019050919050565b600060208201905081810360008301526131a68161316a565b9050919050565b7f5175616e74697461272064612074726173666f726d617265206e6f6e2076616c60008201527f6964612100000000000000000000000000000000000000000000000000000000602082015250565b600061320960248361263e565b9150613214826131ad565b604082019050919050565b60006020820190508181036000830152613238816131fc565b9050919050565b7f4e487b7100000000000000000000000000000000000000000000000000000000600052601160045260246000fd5b6000613279826124b2565b9150613284836124b2565b925082820390508181111561329c5761329b61323f565b5b92915050565b60006132ad826124b2565b91506132b8836124b2565b92508282026132c6816124b2565b915082820484148315176132dd576132dc61323f565b5b5092915050565b6000602082840312156132fa576132f96123f1565b5b600082015167ffffffffffffffff811115613318576133176123f6565b5b61332484828501612fdf565b91505092915050565b7f43686565736520426c6f636b206e6f742050726573656e742100000000000000600082015250565b600061336360198361263e565b915061336e8261332d565b602082019050919050565b6000602082019050818103600083015261339281613356565b9050919050565b7f43686565736520426c6f636b20652720737461746f20656c656d696e61746f00600082015250565b60006133cf601f8361263e565b91506133da82613399565b602082019050919050565b600060408201905081810360008301526133fe816133c2565b905061340d60208301846125dc565b92915050565b600060a0820190506134286000830188612986565b61343560208301876125dc565b8181036040830152613447818661268a565b905061345660608301856125dc565b61346360808301846125dc565b9695505050505050565b7f4d696c6b426174636820636f6e7665727469746f20636f6e207375636365737360008201527f6f2021204563636f20696c206e756f766f20636865657365426c6f636b210000602082015250565b60006134c9603e8361263e565b91506134d48261346d565b604082019050919050565b600060a08201905081810360008301526134f8816134bc565b905061350760208301876125dc565b8181036040830152613519818661268a565b905061352860608301856125dc565b61353560808301846125dc565b9594505050505056fea2646970667358221220721740255cf584a9c8626da5e662fc06fdba4a69ef7f0d4dccc100c731ad753664736f6c63430008180033",
  "immutableReferences": {},
  "source": "// SPDX-License-Identifier: MIT\r\npragma solidity ^0.8.21;\r\n\r\nimport \"./CheeseProducerInventoryStorage.sol\";\r\nimport \"../CheeseProducerService.sol\";\r\nimport \"./CheeseProducerBuyerService.sol\";\r\n\r\nimport \"../../../Service/AccessControlProduct.sol\";\r\n\r\n\r\n// NOTA : implementare i controlli semplici e non di autorizzazione perch i retailer possono vedere le varie info in merito ai prodotti dei CheeseProducer \r\n// NOTA : Nel service che gestisce lo storage di acquisto, bisogna implementare una logica pi restrittiva che ci d la possibilit di far visualizzare i prodotti acquistati a coloro che li acquistati.\r\n// NOTA : Ricorda di implementare una logica di approvazione per il contratto che esegue l'aggiunta dell'oggetto acquistato ( TransactionManager deve essere approvato per poter eseguire una transazione del genere ) \r\n\r\ncontract CheeseProducerInventoryService {\r\n\r\n//--------------------------------------------------------------------- Address of Service Contract -----------------------------------------------//\r\n\r\n    // Address of Organization che gestisce gli utenti\r\n    address private cheeseProducerOrg;\r\n\r\n    // Address of Consumer Storage \r\n    CheeseProducerInventoryStorage private cheeseProducerInventoryStorage;\r\n\r\n    CheeseProducerService private cheeseProducerService;\r\n\r\n    CheeseProducerBuyerService private cheeseProducerBuyerService;\r\n\r\n    // Address Access Control \r\n    AccessControlProduct private accessControlProduct;\r\n\r\n//--------------------------------------------------------------------- Event of Service Contract -----------------------------------------------//\r\n\r\n    // Eventi per notificare l'aggiunta di una Partita di Latte\r\n    event CheeseBlockAdded(address indexed userAddress,string message,uint256 id, string dop, uint256 quantity, uint256 price);\r\n\r\n    // Eventi per notificare la rimozione di un CheeseBlock\r\n    event CheeseBlockDeleted(address indexed userAddress, string message, uint256 _id);\r\n    \r\n    // Eventi per notificare la modifica di un Cheese Block \r\n    event CheeseBlockEdited(address indexed userAddress,string message, uint256 quantity);\r\n\r\n\r\n//--------------------------------------------------------------------- Constructor of Service Contract -----------------------------------------------//\r\n\r\n\r\n    constructor(\r\n        address _cheeseProducerInventoryStorage,\r\n        address _cheeseProducerService,\r\n        address _cheeseProducerBuyerService,\r\n        address _accessControlProduct) {\r\n        \r\n        cheeseProducerInventoryStorage = CheeseProducerInventoryStorage(_cheeseProducerInventoryStorage);\r\n        \r\n        cheeseProducerService = CheeseProducerService(_cheeseProducerService);\r\n\r\n        cheeseProducerBuyerService = CheeseProducerBuyerService(_cheeseProducerBuyerService);\r\n        \r\n        accessControlProduct = AccessControlProduct(_accessControlProduct);\r\n\r\n        cheeseProducerOrg = msg.sender;\r\n    }\r\n\r\n//--------------------------------------------------------------------- Modifier of Service Contract -----------------------------------------------//\r\n\r\n    modifier checkAddress(address caller) {\r\n        require(caller != address(0),\"Address Value is Zero!\");\r\n        require(caller != cheeseProducerOrg, \"Address not valid!\");\r\n        require(caller != address(cheeseProducerInventoryStorage), \"Address not valid of Inventory Storage\");\r\n        require(caller != address(cheeseProducerService),\"Address not valid of Service\");\r\n        _;\r\n    }\r\n\r\n    // TODO : Aggiungere il controllo per l'organizzazione che pu effettuare il cambio dei vari Address di Service di cui abbiamo bisogno\r\n\r\n//--------------------------------------------------------------------- Business Function of Service Contract -----------------------------------------------//\r\n\r\n\r\n    /* Questa funzione permette di aggiungere : \r\n       Un prodotto CheeseBlock all'inventario da poter mettere in vendita\r\n       \r\n       - Check da effettuare : \r\n\r\n       - Verifica che l'address dell'utente sia registrato \r\n       - Verifica che l'address dell'utente non sia l'organizzazione che ha deployato il contratto \r\n       - Aggiunta del blocco di formaggio in dipendenza dal milkbatch acquistato \r\n\r\n       - Evento : \r\n       - CheeseBlockAdded()\r\n     */\r\n    function addCheeseBlock(\r\n        address _walletCheeseProducer,\r\n        uint256 _id_MilkBatchAcquistato,\r\n        string memory _dop,\r\n        uint256 _quantity,\r\n        uint256 _price) internal  checkAddress(_walletCheeseProducer) {\r\n        \r\n        require(cheeseProducerService.isUserPresent(_walletCheeseProducer), \"User is not present in data\");\r\n        \r\n        (uint id_Cheese,string memory dop, uint256 pricePerKg, uint256 quantityToTal) = cheeseProducerInventoryStorage.addCheeseBlock(_walletCheeseProducer, _id_MilkBatchAcquistato, _dop, _quantity, _price);\r\n\r\n        emit CheeseBlockAdded(_walletCheeseProducer,\"MilkBatch convertito con successo ! Ecco il nuovo cheeseBlock!\",id_Cheese, dop, quantityToTal, pricePerKg);\r\n    }\r\n\r\n    /**\r\n     * Ottenere le informazioni del cheeseblock attraverso : \r\n     * - ID cheeseBlock\r\n     * */  \r\n    function getCheeseBlock(uint256 _id_CheeseBlock) external view checkAddress(msg.sender) returns (uint256, string memory, uint256, uint256) {\r\n        \r\n        address walletCheeseProducer = msg.sender;\r\n\r\n        require(cheeseProducerService.isUserPresent(walletCheeseProducer), \"User is not present in data\");\r\n\r\n        require(this.isCheeseBlockPresent(walletCheeseProducer, _id_CheeseBlock), \"CheeseBlock is not present in data\");\r\n\r\n        return cheeseProducerInventoryStorage.getCheeseBlock(walletCheeseProducer, _id_CheeseBlock);\r\n    }\r\n\r\n    /**\r\n     * Eliminare un Cheese Block attraverso l'id \r\n     * - ID \r\n     * - Verficare che l'utente che vuole eseguire la transazione sia presente.\r\n     */\r\n    function deleteCheeseBlock(uint256 _id) external returns(bool){\r\n        // Retrieve msg.sender \r\n        address walletCheeseProducer = msg.sender;\r\n        // Check if User is Present\r\n        require(cheeseProducerService.isUserPresent(walletCheeseProducer), \"User is not present!\");\r\n        // Check if Product is present \r\n        require(this.isCheeseBlockPresent(walletCheeseProducer, _id),\"Cheese Block not Present!\");\r\n\r\n        if(cheeseProducerInventoryStorage.deleteCheeseBlock(walletCheeseProducer,_id)){\r\n            emit CheeseBlockDeleted(walletCheeseProducer,\"Cheese Block e' stato eleminato\", _id);\r\n            return true;\r\n        }else {\r\n            return false;\r\n        }\r\n    }\r\n\r\n//--------------------------------------------------------------------- Get Function of Service Contract -----------------------------------------------//\r\n\r\n    function getDop(address walletCheeseProducer, uint256 _id) external view returns(string memory) {\r\n        require(cheeseProducerService.isUserPresent(walletCheeseProducer), \"User is not present!\");\r\n\r\n        require(this.isCheeseBlockPresent(walletCheeseProducer, _id),\"MilkBatch not Present!\");\r\n\r\n        return cheeseProducerInventoryStorage.getDop(walletCheeseProducer,_id);        \r\n    }\r\n\r\n    function getPrice(address walletCheeseProducer, uint256 _id) external view returns(uint256) {\r\n        require(cheeseProducerService.isUserPresent(walletCheeseProducer), \"User is not present!\");\r\n\r\n        require(this.isCheeseBlockPresent(walletCheeseProducer, _id),\"MilkBatch not Present!\");\r\n\r\n        return cheeseProducerInventoryStorage.getPrice(walletCheeseProducer,_id);        \r\n    }\r\n\r\n    function getCheeseBlockQuantity(address walletCheeseProducer, uint256 _id) external view returns(uint256) {\r\n        require(cheeseProducerService.isUserPresent(walletCheeseProducer), \"User is not present!\");\r\n\r\n        require(this.isCheeseBlockPresent(walletCheeseProducer, _id),\"MilkBatch not Present!\");\r\n\r\n        return cheeseProducerInventoryStorage.getQuantity(walletCheeseProducer,_id);        \r\n    }\r\n\r\n    // Verifica se un determinato CheeseBlock  presente \r\n    function isCheeseBlockPresent(address walletCheeseProducer, uint256 _id_cheeseBlock) external view  checkAddress(walletCheeseProducer) returns(bool){\r\n\r\n        return cheeseProducerInventoryStorage.isCheeseBlockPresent(walletCheeseProducer,_id_cheeseBlock);\r\n    }\r\n\r\n\r\n     function getCheeseBlockListIdBySingleCheeseProducer(address walletCheeseProducer) external checkAddress(walletCheeseProducer) view returns (uint256[] memory){\r\n        // Check if exist \r\n        require(cheeseProducerService.isUserPresent(walletCheeseProducer), \"User is not present!\");\r\n\r\n        return cheeseProducerInventoryStorage.getListCheeseBlockIdByCheeseProducer(walletCheeseProducer);\r\n    }\r\n\r\n    /*\r\n        - Recupera tutti i CheeseBlock presenti all'interno di Inventory \r\n        - Verifica che quel CheeseProducer sia all'interno del sistema \r\n    */\r\n    function getAllCheeseBlockList(address walleRetailer) view  external  returns (uint256[] memory){\r\n        require(accessControlProduct.checkViewCheeseBlockProduct(walleRetailer),\"User Not Authorized!\");\r\n        \r\n        return cheeseProducerInventoryStorage.getListCheeseBlockAll();\r\n    }\r\n\r\n//--------------------------------------------------------------------- Update Function of Service Contract -----------------------------------------------//\r\n\r\n    // Funzione per trasformare i vari milkBatch in CheeseBlock \r\n    function transformMilkBatch(address walletCheeseProducer, uint256 _id_MilkBatchAcquistato, uint256 quantityToTransform, uint256 pricePerKg, string memory dop) external  {\r\n        \r\n        //Verifico che il prodotto esiste, che la quantit richiesta da trasformare non ecceda il massimo consentito\r\n        require(cheeseProducerBuyerService.isMilkBatchAcquistataPresent(walletCheeseProducer,_id_MilkBatchAcquistato),\"Prodotto non presente!\");\r\n        // Verifico la quantit \r\n        // Verifico che quella che devo trasformare sia inferiore o uguale a quella che ho acquistato \r\n        require(quantityToTransform<=cheeseProducerBuyerService.getQuantity(walletCheeseProducer,_id_MilkBatchAcquistato),\"Quantita' da trasformare non valida!\");\r\n\r\n        uint256 _newQuantity = cheeseProducerBuyerService.getQuantity(walletCheeseProducer,_id_MilkBatchAcquistato) - quantityToTransform;\r\n\r\n        //TODO: gestire data di scadenza nel frontend ( Verificare la data di Scadenza con quella Odierna ) \r\n        cheeseProducerBuyerService.updateMilkBatchQuantity(walletCheeseProducer,_id_MilkBatchAcquistato, _newQuantity);\r\n\r\n        uint256 weight = quantityToTransform * 5;\r\n        //TODO: gestire il prezzo con SafeMath\r\n        addCheeseBlock(walletCheeseProducer,_id_MilkBatchAcquistato, dop, weight,pricePerKg);\r\n    }\r\n\r\n\r\n// --------------------------------------------------------------------- SET function --------------------------------------------------------------------------------------------//\r\n\r\n\r\n    /**\r\n    * Decremento della quantit del CheeseBlock \r\n    * Verifica che la quantit sia maggiore di 0 -> altrimenti rimani \r\n    */\r\n    function updateCheeseBlockQuantity(address ownerCheeseProducer, uint256 _id, uint256 _quantity) external checkAddress(ownerCheeseProducer) {\r\n\r\n        require(cheeseProducerService.isUserPresent(ownerCheeseProducer), \"User is not present!\");\r\n\r\n        require(this.isCheeseBlockPresent(ownerCheeseProducer, _id),\"MilkBatch not Present!\");\r\n\r\n        cheeseProducerInventoryStorage.updateCheeseBlockQuantity(ownerCheeseProducer, _id, _quantity);\r\n\r\n        emit CheeseBlockEdited(ownerCheeseProducer,\"CheeseBlock edited!\", _quantity);\r\n    }\r\n\r\n}\r\n",
  "sourcePath": "C:\\Users\\umber\\Progetti\\FilieraToken\\Filiera-Token-Smart-Contract\\contracts\\Actor\\CheeseProducer-smart-contract\\inventory\\CheeseProducerInventoryService.sol",
  "compiler": {
    "name": "solc",
    "version": "0.8.24+commit.e11b9ed9.Emscripten.clang"
  },
  "schemaVersion": "3.4.16",
  "updatedAt": "2024-02-29T15:58:14.278Z",
  "devdoc": {
    "kind": "dev",
    "methods": {},
    "version": 1
  },
  "userdoc": {
    "kind": "user",
    "methods": {
      "deleteCheeseBlock(uint256)": {
        "notice": "Eliminare un Cheese Block attraverso l'id  - ID  - Verficare che l'utente che vuole eseguire la transazione sia presente."
      },
      "getCheeseBlock(uint256)": {
        "notice": "Ottenere le informazioni del cheeseblock attraverso :  - ID cheeseBlock "
      },
      "updateCheeseBlockQuantity(address,uint256,uint256)": {
        "notice": "Decremento della quantit del CheeseBlock  Verifica che la quantit sia maggiore di 0 -> altrimenti rimani "
      }
    },
    "version": 1
  }
}