{
  "contractName": "CheeseProducerBuyerService",
  "abi": [
    {
      "inputs": [
        {
          "internalType": "address",
          "name": "_cheeseProducerBuyerStorage",
          "type": "address"
        },
        {
          "internalType": "address",
          "name": "_cheeseProducerService",
          "type": "address"
        }
      ],
      "stateMutability": "nonpayable",
      "type": "constructor"
    },
    {
      "anonymous": false,
      "inputs": [
        {
          "indexed": true,
          "internalType": "address",
          "name": "userAddress",
          "type": "address"
        },
        {
          "indexed": false,
          "internalType": "string",
          "name": "message",
          "type": "string"
        },
        {
          "indexed": false,
          "internalType": "uint256",
          "name": "id",
          "type": "uint256"
        },
        {
          "indexed": false,
          "internalType": "string",
          "name": "expirationDate",
          "type": "string"
        },
        {
          "indexed": false,
          "internalType": "uint256",
          "name": "quantity",
          "type": "uint256"
        }
      ],
      "name": "CheeseProducerMilkBatchAdded",
      "type": "event"
    },
    {
      "anonymous": false,
      "inputs": [
        {
          "indexed": true,
          "internalType": "address",
          "name": "userAddress",
          "type": "address"
        },
        {
          "indexed": false,
          "internalType": "string",
          "name": "message",
          "type": "string"
        }
      ],
      "name": "CheeseProducerMilkBatchDeleted",
      "type": "event"
    },
    {
      "anonymous": false,
      "inputs": [
        {
          "indexed": true,
          "internalType": "address",
          "name": "userAddress",
          "type": "address"
        },
        {
          "indexed": false,
          "internalType": "string",
          "name": "message",
          "type": "string"
        },
        {
          "indexed": false,
          "internalType": "uint256",
          "name": "quantity",
          "type": "uint256"
        }
      ],
      "name": "CheeseProducerMilkBatchEdited",
      "type": "event"
    },
    {
      "inputs": [
        {
          "internalType": "address",
          "name": "walletMilkHub",
          "type": "address"
        },
        {
          "internalType": "address",
          "name": "walletCheeseProducer",
          "type": "address"
        },
        {
          "internalType": "uint256",
          "name": "idMilkBatch",
          "type": "uint256"
        },
        {
          "internalType": "string",
          "name": "expirationDate",
          "type": "string"
        },
        {
          "internalType": "uint256",
          "name": "quantity",
          "type": "uint256"
        }
      ],
      "name": "addMilkBatch",
      "outputs": [],
      "stateMutability": "nonpayable",
      "type": "function"
    },
    {
      "inputs": [
        {
          "internalType": "address",
          "name": "walletCheeseProducer",
          "type": "address"
        },
        {
          "internalType": "uint256",
          "name": "idMilkBatch",
          "type": "uint256"
        }
      ],
      "name": "getMilkBatch",
      "outputs": [
        {
          "internalType": "uint256",
          "name": "",
          "type": "uint256"
        },
        {
          "internalType": "address",
          "name": "",
          "type": "address"
        },
        {
          "internalType": "string",
          "name": "",
          "type": "string"
        },
        {
          "internalType": "uint256",
          "name": "",
          "type": "uint256"
        }
      ],
      "stateMutability": "view",
      "type": "function"
    },
    {
      "inputs": [
        {
          "internalType": "address",
          "name": "walletCheeseProducer",
          "type": "address"
        },
        {
          "internalType": "uint256",
          "name": "idMilkBatch",
          "type": "uint256"
        }
      ],
      "name": "getExpirationDate",
      "outputs": [
        {
          "internalType": "string",
          "name": "",
          "type": "string"
        }
      ],
      "stateMutability": "view",
      "type": "function"
    },
    {
      "inputs": [
        {
          "internalType": "address",
          "name": "walletCheeseProducer",
          "type": "address"
        },
        {
          "internalType": "uint256",
          "name": "idMilkBatch",
          "type": "uint256"
        }
      ],
      "name": "getQuantity",
      "outputs": [
        {
          "internalType": "uint256",
          "name": "",
          "type": "uint256"
        }
      ],
      "stateMutability": "view",
      "type": "function"
    },
    {
      "inputs": [
        {
          "internalType": "address",
          "name": "walletCheeseProducer",
          "type": "address"
        },
        {
          "internalType": "uint256",
          "name": "idMilkBatch",
          "type": "uint256"
        }
      ],
      "name": "getWalletMilkHub",
      "outputs": [
        {
          "internalType": "address",
          "name": "",
          "type": "address"
        }
      ],
      "stateMutability": "view",
      "type": "function"
    },
    {
      "inputs": [
        {
          "internalType": "address",
          "name": "walletCheeseProducer",
          "type": "address"
        },
        {
          "internalType": "uint256",
          "name": "idMilkBatch",
          "type": "uint256"
        }
      ],
      "name": "isMilkBatchPresent",
      "outputs": [
        {
          "internalType": "bool",
          "name": "",
          "type": "bool"
        }
      ],
      "stateMutability": "view",
      "type": "function"
    },
    {
      "inputs": [
        {
          "internalType": "address",
          "name": "walletCheeseProducer",
          "type": "address"
        }
      ],
      "name": "getUserMilkBatchIds",
      "outputs": [
        {
          "internalType": "uint256[]",
          "name": "",
          "type": "uint256[]"
        }
      ],
      "stateMutability": "view",
      "type": "function"
    },
    {
      "inputs": [
        {
          "internalType": "address",
          "name": "walletCheeseProducer",
          "type": "address"
        },
        {
          "internalType": "uint256",
          "name": "idMilkBatch",
          "type": "uint256"
        },
        {
          "internalType": "uint256",
          "name": "quantity",
          "type": "uint256"
        }
      ],
      "name": "updateMilkBatchQuantity",
      "outputs": [],
      "stateMutability": "nonpayable",
      "type": "function"
    },
    {
      "inputs": [
        {
          "internalType": "address",
          "name": "_cheeseProducerBuyerStorage",
          "type": "address"
        }
      ],
      "name": "changeCheeseProducerBuyerStorage",
      "outputs": [],
      "stateMutability": "nonpayable",
      "type": "function"
    },
    {
      "inputs": [
        {
          "internalType": "address",
          "name": "_cheeseProducerService",
          "type": "address"
        }
      ],
      "name": "changeCheeseProducerService",
      "outputs": [],
      "stateMutability": "nonpayable",
      "type": "function"
    }
  ],
  "bytecode": "0x60806040523480156200001157600080fd5b50604051620039f2380380620039f283398181016040528101906200003791906200016b565b81600160006101000a81548173ffffffffffffffffffffffffffffffffffffffff021916908373ffffffffffffffffffffffffffffffffffffffff16021790555080600260006101000a81548173ffffffffffffffffffffffffffffffffffffffff021916908373ffffffffffffffffffffffffffffffffffffffff160217905550336000806101000a81548173ffffffffffffffffffffffffffffffffffffffff021916908373ffffffffffffffffffffffffffffffffffffffff1602179055505050620001b2565b600080fd5b600073ffffffffffffffffffffffffffffffffffffffff82169050919050565b6000620001338262000106565b9050919050565b620001458162000126565b81146200015157600080fd5b50565b60008151905062000165816200013a565b92915050565b6000806040838503121562000185576200018462000101565b5b6000620001958582860162000154565b9250506020620001a88582860162000154565b9150509250929050565b61383080620001c26000396000f3fe608060405234801561001057600080fd5b506004361061009e5760003560e01c8063bb8fc80711610066578063bb8fc8071461017f578063cb6f5eee1461019b578063ce4fcf23146101b7578063d0edfccc146101ea578063dd937b011461021a5761009e565b806302d805f6146100a35780631d49cc62146100d35780631e073fcf14610103578063311ee70b146101335780639f2b68981461014f575b600080fd5b6100bd60048036038101906100b8919061281a565b610236565b6040516100ca9190612875565b60405180910390f35b6100ed60048036038101906100e89190612890565b6105d8565b6040516100fa919061297b565b60405180910390f35b61011d6004803603810190610118919061281a565b61097c565b60405161012a91906129ac565b60405180910390f35b61014d60048036038101906101489190612890565b610dd9565b005b6101696004803603810190610164919061281a565b610e1d565b6040516101769190612a57565b60405180910390f35b61019960048036038101906101949190612890565b61127f565b005b6101b560048036038101906101b09190612a79565b611351565b005b6101d160048036038101906101cc919061281a565b61180c565b6040516101e19493929190612adb565b60405180910390f35b61020460048036038101906101ff919061281a565b611c7c565b6040516102119190612b27565b60405180910390f35b610234600480360381019061022f9190612c77565b6120d9565b005b600082600073ffffffffffffffffffffffffffffffffffffffff168173ffffffffffffffffffffffffffffffffffffffff16036102a8576040517f08c379a000000000000000000000000000000000000000000000000000000000815260040161029f90612d5a565b60405180910390fd5b600160009054906101000a900473ffffffffffffffffffffffffffffffffffffffff1673ffffffffffffffffffffffffffffffffffffffff168173ffffffffffffffffffffffffffffffffffffffff1603610338576040517f08c379a000000000000000000000000000000000000000000000000000000000815260040161032f90612dec565b60405180910390fd5b600260009054906101000a900473ffffffffffffffffffffffffffffffffffffffff1673ffffffffffffffffffffffffffffffffffffffff168173ffffffffffffffffffffffffffffffffffffffff16036103c8576040517f08c379a00000000000000000000000000000000000000000000000000000000081526004016103bf90612e7e565b60405180910390fd5b60008054906101000a900473ffffffffffffffffffffffffffffffffffffffff1673ffffffffffffffffffffffffffffffffffffffff168173ffffffffffffffffffffffffffffffffffffffff1603610456576040517f08c379a000000000000000000000000000000000000000000000000000000000815260040161044d90612eea565b60405180910390fd5b600260009054906101000a900473ffffffffffffffffffffffffffffffffffffffff1673ffffffffffffffffffffffffffffffffffffffff1663a5578807856040518263ffffffff1660e01b81526004016104b19190612b27565b602060405180830381865afa1580156104ce573d6000803e3d6000fd5b505050506040513d601f19601f820116820180604052508101906104f29190612f36565b610531576040517f08c379a000000000000000000000000000000000000000000000000000000000815260040161052890612faf565b60405180910390fd5b600160009054906101000a900473ffffffffffffffffffffffffffffffffffffffff1673ffffffffffffffffffffffffffffffffffffffff166302d805f685856040518363ffffffff1660e01b815260040161058e929190612fcf565b602060405180830381865afa1580156105ab573d6000803e3d6000fd5b505050506040513d601f19601f820116820180604052508101906105cf9190612f36565b91505092915050565b606081600073ffffffffffffffffffffffffffffffffffffffff168173ffffffffffffffffffffffffffffffffffffffff160361064a576040517f08c379a000000000000000000000000000000000000000000000000000000000815260040161064190612d5a565b60405180910390fd5b600160009054906101000a900473ffffffffffffffffffffffffffffffffffffffff1673ffffffffffffffffffffffffffffffffffffffff168173ffffffffffffffffffffffffffffffffffffffff16036106da576040517f08c379a00000000000000000000000000000000000000000000000000000000081526004016106d190612dec565b60405180910390fd5b600260009054906101000a900473ffffffffffffffffffffffffffffffffffffffff1673ffffffffffffffffffffffffffffffffffffffff168173ffffffffffffffffffffffffffffffffffffffff160361076a576040517f08c379a000000000000000000000000000000000000000000000000000000000815260040161076190612e7e565b60405180910390fd5b60008054906101000a900473ffffffffffffffffffffffffffffffffffffffff1673ffffffffffffffffffffffffffffffffffffffff168173ffffffffffffffffffffffffffffffffffffffff16036107f8576040517f08c379a00000000000000000000000000000000000000000000000000000000081526004016107ef90612eea565b60405180910390fd5b600260009054906101000a900473ffffffffffffffffffffffffffffffffffffffff1673ffffffffffffffffffffffffffffffffffffffff1663a5578807846040518263ffffffff1660e01b81526004016108539190612b27565b602060405180830381865afa158015610870573d6000803e3d6000fd5b505050506040513d601f19601f820116820180604052508101906108949190612f36565b6108d3576040517f08c379a00000000000000000000000000000000000000000000000000000000081526004016108ca90613044565b60405180910390fd5b600160009054906101000a900473ffffffffffffffffffffffffffffffffffffffff1673ffffffffffffffffffffffffffffffffffffffff16631d49cc62846040518263ffffffff1660e01b815260040161092e9190612b27565b600060405180830381865afa15801561094b573d6000803e3d6000fd5b505050506040513d6000823e3d601f19601f820116820180604052508101906109749190613141565b915050919050565b600082600073ffffffffffffffffffffffffffffffffffffffff168173ffffffffffffffffffffffffffffffffffffffff16036109ee576040517f08c379a00000000000000000000000000000000000000000000000000000000081526004016109e590612d5a565b60405180910390fd5b600160009054906101000a900473ffffffffffffffffffffffffffffffffffffffff1673ffffffffffffffffffffffffffffffffffffffff168173ffffffffffffffffffffffffffffffffffffffff1603610a7e576040517f08c379a0000000000000000000000000000000000000000000000000000000008152600401610a7590612dec565b60405180910390fd5b600260009054906101000a900473ffffffffffffffffffffffffffffffffffffffff1673ffffffffffffffffffffffffffffffffffffffff168173ffffffffffffffffffffffffffffffffffffffff1603610b0e576040517f08c379a0000000000000000000000000000000000000000000000000000000008152600401610b0590612e7e565b60405180910390fd5b60008054906101000a900473ffffffffffffffffffffffffffffffffffffffff1673ffffffffffffffffffffffffffffffffffffffff168173ffffffffffffffffffffffffffffffffffffffff1603610b9c576040517f08c379a0000000000000000000000000000000000000000000000000000000008152600401610b9390612eea565b60405180910390fd5b600260009054906101000a900473ffffffffffffffffffffffffffffffffffffffff1673ffffffffffffffffffffffffffffffffffffffff1663a5578807856040518263ffffffff1660e01b8152600401610bf79190612b27565b602060405180830381865afa158015610c14573d6000803e3d6000fd5b505050506040513d601f19601f82011682018060405250810190610c389190612f36565b610c77576040517f08c379a0000000000000000000000000000000000000000000000000000000008152600401610c6e906131d6565b60405180910390fd5b3073ffffffffffffffffffffffffffffffffffffffff166302d805f685856040518363ffffffff1660e01b8152600401610cb2929190612fcf565b602060405180830381865afa158015610ccf573d6000803e3d6000fd5b505050506040513d601f19601f82011682018060405250810190610cf39190612f36565b610d32576040517f08c379a0000000000000000000000000000000000000000000000000000000008152600401610d2990613242565b60405180910390fd5b600160009054906101000a900473ffffffffffffffffffffffffffffffffffffffff1673ffffffffffffffffffffffffffffffffffffffff16631e073fcf85856040518363ffffffff1660e01b8152600401610d8f929190612fcf565b602060405180830381865afa158015610dac573d6000803e3d6000fd5b505050506040513d601f19601f82011682018060405250810190610dd09190613262565b91505092915050565b80600260006101000a81548173ffffffffffffffffffffffffffffffffffffffff021916908373ffffffffffffffffffffffffffffffffffffffff16021790555050565b606082600073ffffffffffffffffffffffffffffffffffffffff168173ffffffffffffffffffffffffffffffffffffffff1603610e8f576040517f08c379a0000000000000000000000000000000000000000000000000000000008152600401610e8690612d5a565b60405180910390fd5b600160009054906101000a900473ffffffffffffffffffffffffffffffffffffffff1673ffffffffffffffffffffffffffffffffffffffff168173ffffffffffffffffffffffffffffffffffffffff1603610f1f576040517f08c379a0000000000000000000000000000000000000000000000000000000008152600401610f1690612dec565b60405180910390fd5b600260009054906101000a900473ffffffffffffffffffffffffffffffffffffffff1673ffffffffffffffffffffffffffffffffffffffff168173ffffffffffffffffffffffffffffffffffffffff1603610faf576040517f08c379a0000000000000000000000000000000000000000000000000000000008152600401610fa690612e7e565b60405180910390fd5b60008054906101000a900473ffffffffffffffffffffffffffffffffffffffff1673ffffffffffffffffffffffffffffffffffffffff168173ffffffffffffffffffffffffffffffffffffffff160361103d576040517f08c379a000000000000000000000000000000000000000000000000000000000815260040161103490612eea565b60405180910390fd5b600260009054906101000a900473ffffffffffffffffffffffffffffffffffffffff1673ffffffffffffffffffffffffffffffffffffffff1663a5578807856040518263ffffffff1660e01b81526004016110989190612b27565b602060405180830381865afa1580156110b5573d6000803e3d6000fd5b505050506040513d601f19601f820116820180604052508101906110d99190612f36565b611118576040517f08c379a000000000000000000000000000000000000000000000000000000000815260040161110f906131d6565b60405180910390fd5b3073ffffffffffffffffffffffffffffffffffffffff166302d805f685856040518363ffffffff1660e01b8152600401611153929190612fcf565b602060405180830381865afa158015611170573d6000803e3d6000fd5b505050506040513d601f19601f820116820180604052508101906111949190612f36565b6111d3576040517f08c379a00000000000000000000000000000000000000000000000000000000081526004016111ca90613242565b60405180910390fd5b600160009054906101000a900473ffffffffffffffffffffffffffffffffffffffff1673ffffffffffffffffffffffffffffffffffffffff16639f2b689885856040518363ffffffff1660e01b8152600401611230929190612fcf565b600060405180830381865afa15801561124d573d6000803e3d6000fd5b505050506040513d6000823e3d601f19601f8201168201806040525081019061127691906132ff565b91505092915050565b60008054906101000a900473ffffffffffffffffffffffffffffffffffffffff1673ffffffffffffffffffffffffffffffffffffffff163373ffffffffffffffffffffffffffffffffffffffff161461130d576040517f08c379a000000000000000000000000000000000000000000000000000000000815260040161130490613394565b60405180910390fd5b80600160006101000a81548173ffffffffffffffffffffffffffffffffffffffff021916908373ffffffffffffffffffffffffffffffffffffffff16021790555050565b82600073ffffffffffffffffffffffffffffffffffffffff168173ffffffffffffffffffffffffffffffffffffffff16036113c1576040517f08c379a00000000000000000000000000000000000000000000000000000000081526004016113b890612d5a565b60405180910390fd5b600160009054906101000a900473ffffffffffffffffffffffffffffffffffffffff1673ffffffffffffffffffffffffffffffffffffffff168173ffffffffffffffffffffffffffffffffffffffff1603611451576040517f08c379a000000000000000000000000000000000000000000000000000000000815260040161144890612dec565b60405180910390fd5b600260009054906101000a900473ffffffffffffffffffffffffffffffffffffffff1673ffffffffffffffffffffffffffffffffffffffff168173ffffffffffffffffffffffffffffffffffffffff16036114e1576040517f08c379a00000000000000000000000000000000000000000000000000000000081526004016114d890612e7e565b60405180910390fd5b60008054906101000a900473ffffffffffffffffffffffffffffffffffffffff1673ffffffffffffffffffffffffffffffffffffffff168173ffffffffffffffffffffffffffffffffffffffff160361156f576040517f08c379a000000000000000000000000000000000000000000000000000000000815260040161156690612eea565b60405180910390fd5b600260009054906101000a900473ffffffffffffffffffffffffffffffffffffffff1673ffffffffffffffffffffffffffffffffffffffff1663a5578807856040518263ffffffff1660e01b81526004016115ca9190612b27565b602060405180830381865afa1580156115e7573d6000803e3d6000fd5b505050506040513d601f19601f8201168201806040525081019061160b9190612f36565b61164a576040517f08c379a000000000000000000000000000000000000000000000000000000000815260040161164190613400565b60405180910390fd5b600160009054906101000a900473ffffffffffffffffffffffffffffffffffffffff1673ffffffffffffffffffffffffffffffffffffffff166302d805f685856040518363ffffffff1660e01b81526004016116a7929190612fcf565b602060405180830381865afa1580156116c4573d6000803e3d6000fd5b505050506040513d601f19601f820116820180604052508101906116e89190612f36565b611727576040517f08c379a000000000000000000000000000000000000000000000000000000000815260040161171e9061346c565b60405180910390fd5b600160009054906101000a900473ffffffffffffffffffffffffffffffffffffffff1673ffffffffffffffffffffffffffffffffffffffff1663cb6f5eee8585856040518463ffffffff1660e01b81526004016117869392919061348c565b600060405180830381600087803b1580156117a057600080fd5b505af11580156117b4573d6000803e3d6000fd5b505050508373ffffffffffffffffffffffffffffffffffffffff167f57a258bc3a68d0a4f6bef4785c42e79bf29fc79427b349767fd192a911514417836040516117fe919061350f565b60405180910390a250505050565b6000806060600085600073ffffffffffffffffffffffffffffffffffffffff168173ffffffffffffffffffffffffffffffffffffffff1603611883576040517f08c379a000000000000000000000000000000000000000000000000000000000815260040161187a90612d5a565b60405180910390fd5b600160009054906101000a900473ffffffffffffffffffffffffffffffffffffffff1673ffffffffffffffffffffffffffffffffffffffff168173ffffffffffffffffffffffffffffffffffffffff1603611913576040517f08c379a000000000000000000000000000000000000000000000000000000000815260040161190a90612dec565b60405180910390fd5b600260009054906101000a900473ffffffffffffffffffffffffffffffffffffffff1673ffffffffffffffffffffffffffffffffffffffff168173ffffffffffffffffffffffffffffffffffffffff16036119a3576040517f08c379a000000000000000000000000000000000000000000000000000000000815260040161199a90612e7e565b60405180910390fd5b60008054906101000a900473ffffffffffffffffffffffffffffffffffffffff1673ffffffffffffffffffffffffffffffffffffffff168173ffffffffffffffffffffffffffffffffffffffff1603611a31576040517f08c379a0000000000000000000000000000000000000000000000000000000008152600401611a2890612eea565b60405180910390fd5b600260009054906101000a900473ffffffffffffffffffffffffffffffffffffffff1673ffffffffffffffffffffffffffffffffffffffff1663a5578807886040518263ffffffff1660e01b8152600401611a8c9190612b27565b602060405180830381865afa158015611aa9573d6000803e3d6000fd5b505050506040513d601f19601f82011682018060405250810190611acd9190612f36565b611b0c576040517f08c379a0000000000000000000000000000000000000000000000000000000008152600401611b03906131d6565b60405180910390fd5b3073ffffffffffffffffffffffffffffffffffffffff166302d805f688886040518363ffffffff1660e01b8152600401611b47929190612fcf565b602060405180830381865afa158015611b64573d6000803e3d6000fd5b505050506040513d601f19601f82011682018060405250810190611b889190612f36565b611bc7576040517f08c379a0000000000000000000000000000000000000000000000000000000008152600401611bbe90613242565b60405180910390fd5b600160009054906101000a900473ffffffffffffffffffffffffffffffffffffffff1673ffffffffffffffffffffffffffffffffffffffff1663ce4fcf2388886040518363ffffffff1660e01b8152600401611c24929190612fcf565b600060405180830381865afa158015611c41573d6000803e3d6000fd5b505050506040513d6000823e3d601f19601f82011682018060405250810190611c6a9190613552565b94509450945094505092959194509250565b600082600073ffffffffffffffffffffffffffffffffffffffff168173ffffffffffffffffffffffffffffffffffffffff1603611cee576040517f08c379a0000000000000000000000000000000000000000000000000000000008152600401611ce590612d5a565b60405180910390fd5b600160009054906101000a900473ffffffffffffffffffffffffffffffffffffffff1673ffffffffffffffffffffffffffffffffffffffff168173ffffffffffffffffffffffffffffffffffffffff1603611d7e576040517f08c379a0000000000000000000000000000000000000000000000000000000008152600401611d7590612dec565b60405180910390fd5b600260009054906101000a900473ffffffffffffffffffffffffffffffffffffffff1673ffffffffffffffffffffffffffffffffffffffff168173ffffffffffffffffffffffffffffffffffffffff1603611e0e576040517f08c379a0000000000000000000000000000000000000000000000000000000008152600401611e0590612e7e565b60405180910390fd5b60008054906101000a900473ffffffffffffffffffffffffffffffffffffffff1673ffffffffffffffffffffffffffffffffffffffff168173ffffffffffffffffffffffffffffffffffffffff1603611e9c576040517f08c379a0000000000000000000000000000000000000000000000000000000008152600401611e9390612eea565b60405180910390fd5b600260009054906101000a900473ffffffffffffffffffffffffffffffffffffffff1673ffffffffffffffffffffffffffffffffffffffff1663a5578807856040518263ffffffff1660e01b8152600401611ef79190612b27565b602060405180830381865afa158015611f14573d6000803e3d6000fd5b505050506040513d601f19601f82011682018060405250810190611f389190612f36565b611f77576040517f08c379a0000000000000000000000000000000000000000000000000000000008152600401611f6e906131d6565b60405180910390fd5b3073ffffffffffffffffffffffffffffffffffffffff166302d805f685856040518363ffffffff1660e01b8152600401611fb2929190612fcf565b602060405180830381865afa158015611fcf573d6000803e3d6000fd5b505050506040513d601f19601f82011682018060405250810190611ff39190612f36565b612032576040517f08c379a000000000000000000000000000000000000000000000000000000000815260040161202990613242565b60405180910390fd5b600160009054906101000a900473ffffffffffffffffffffffffffffffffffffffff1673ffffffffffffffffffffffffffffffffffffffff1663d0edfccc85856040518363ffffffff1660e01b815260040161208f929190612fcf565b602060405180830381865afa1580156120ac573d6000803e3d6000fd5b505050506040513d601f19601f820116820180604052508101906120d091906135d5565b91505092915050565b83600073ffffffffffffffffffffffffffffffffffffffff168173ffffffffffffffffffffffffffffffffffffffff1603612149576040517f08c379a000000000000000000000000000000000000000000000000000000000815260040161214090612d5a565b60405180910390fd5b600160009054906101000a900473ffffffffffffffffffffffffffffffffffffffff1673ffffffffffffffffffffffffffffffffffffffff168173ffffffffffffffffffffffffffffffffffffffff16036121d9576040517f08c379a00000000000000000000000000000000000000000000000000000000081526004016121d090612dec565b60405180910390fd5b600260009054906101000a900473ffffffffffffffffffffffffffffffffffffffff1673ffffffffffffffffffffffffffffffffffffffff168173ffffffffffffffffffffffffffffffffffffffff1603612269576040517f08c379a000000000000000000000000000000000000000000000000000000000815260040161226090612e7e565b60405180910390fd5b60008054906101000a900473ffffffffffffffffffffffffffffffffffffffff1673ffffffffffffffffffffffffffffffffffffffff168173ffffffffffffffffffffffffffffffffffffffff16036122f7576040517f08c379a00000000000000000000000000000000000000000000000000000000081526004016122ee90612eea565b60405180910390fd5b85600073ffffffffffffffffffffffffffffffffffffffff168173ffffffffffffffffffffffffffffffffffffffff1603612367576040517f08c379a000000000000000000000000000000000000000000000000000000000815260040161235e90612d5a565b60405180910390fd5b600160009054906101000a900473ffffffffffffffffffffffffffffffffffffffff1673ffffffffffffffffffffffffffffffffffffffff168173ffffffffffffffffffffffffffffffffffffffff16036123f7576040517f08c379a00000000000000000000000000000000000000000000000000000000081526004016123ee90612dec565b60405180910390fd5b600260009054906101000a900473ffffffffffffffffffffffffffffffffffffffff1673ffffffffffffffffffffffffffffffffffffffff168173ffffffffffffffffffffffffffffffffffffffff1603612487576040517f08c379a000000000000000000000000000000000000000000000000000000000815260040161247e90612e7e565b60405180910390fd5b60008054906101000a900473ffffffffffffffffffffffffffffffffffffffff1673ffffffffffffffffffffffffffffffffffffffff168173ffffffffffffffffffffffffffffffffffffffff1603612515576040517f08c379a000000000000000000000000000000000000000000000000000000000815260040161250c90612eea565b60405180910390fd5b8673ffffffffffffffffffffffffffffffffffffffff168673ffffffffffffffffffffffffffffffffffffffff1603612583576040517f08c379a000000000000000000000000000000000000000000000000000000000815260040161257a90613674565b60405180910390fd5b600260009054906101000a900473ffffffffffffffffffffffffffffffffffffffff1673ffffffffffffffffffffffffffffffffffffffff1663a5578807876040518263ffffffff1660e01b81526004016125de9190612b27565b602060405180830381865afa1580156125fb573d6000803e3d6000fd5b505050506040513d601f19601f8201168201806040525081019061261f9190612f36565b61265e576040517f08c379a0000000000000000000000000000000000000000000000000000000008152600401612655906131d6565b60405180910390fd5b6000806000600160009054906101000a900473ffffffffffffffffffffffffffffffffffffffff1673ffffffffffffffffffffffffffffffffffffffff1663dd937b018a8c8b8b8b6040518663ffffffff1660e01b81526004016126c6959493929190613694565b6000604051808303816000875af11580156126e5573d6000803e3d6000fd5b505050506040513d6000823e3d601f19601f8201168201806040525081019061270e91906136ee565b9250925092508873ffffffffffffffffffffffffffffffffffffffff167f1d8793fb550f6c2b3943bc0f10a0c1883b6d2c1fbba140c88cb2ec0b615549af84848460405161275e939291906137a9565b60405180910390a250505050505050505050565b6000604051905090565b600080fd5b600080fd5b600073ffffffffffffffffffffffffffffffffffffffff82169050919050565b60006127b182612786565b9050919050565b6127c1816127a6565b81146127cc57600080fd5b50565b6000813590506127de816127b8565b92915050565b6000819050919050565b6127f7816127e4565b811461280257600080fd5b50565b600081359050612814816127ee565b92915050565b600080604083850312156128315761283061277c565b5b600061283f858286016127cf565b925050602061285085828601612805565b9150509250929050565b60008115159050919050565b61286f8161285a565b82525050565b600060208201905061288a6000830184612866565b92915050565b6000602082840312156128a6576128a561277c565b5b60006128b4848285016127cf565b91505092915050565b600081519050919050565b600082825260208201905092915050565b6000819050602082019050919050565b6128f2816127e4565b82525050565b600061290483836128e9565b60208301905092915050565b6000602082019050919050565b6000612928826128bd565b61293281856128c8565b935061293d836128d9565b8060005b8381101561296e57815161295588826128f8565b975061296083612910565b925050600181019050612941565b5085935050505092915050565b60006020820190508181036000830152612995818461291d565b905092915050565b6129a6816127e4565b82525050565b60006020820190506129c1600083018461299d565b92915050565b600081519050919050565b600082825260208201905092915050565b60005b83811015612a015780820151818401526020810190506129e6565b60008484015250505050565b6000601f19601f8301169050919050565b6000612a29826129c7565b612a3381856129d2565b9350612a438185602086016129e3565b612a4c81612a0d565b840191505092915050565b60006020820190508181036000830152612a718184612a1e565b905092915050565b600080600060608486031215612a9257612a9161277c565b5b6000612aa0868287016127cf565b9350506020612ab186828701612805565b9250506040612ac286828701612805565b9150509250925092565b612ad5816127a6565b82525050565b6000608082019050612af0600083018761299d565b612afd6020830186612acc565b8181036040830152612b0f8185612a1e565b9050612b1e606083018461299d565b95945050505050565b6000602082019050612b3c6000830184612acc565b92915050565b600080fd5b600080fd5b7f4e487b7100000000000000000000000000000000000000000000000000000000600052604160045260246000fd5b612b8482612a0d565b810181811067ffffffffffffffff82111715612ba357612ba2612b4c565b5b80604052505050565b6000612bb6612772565b9050612bc28282612b7b565b919050565b600067ffffffffffffffff821115612be257612be1612b4c565b5b612beb82612a0d565b9050602081019050919050565b82818337600083830152505050565b6000612c1a612c1584612bc7565b612bac565b905082815260208101848484011115612c3657612c35612b47565b5b612c41848285612bf8565b509392505050565b600082601f830112612c5e57612c5d612b42565b5b8135612c6e848260208601612c07565b91505092915050565b600080600080600060a08688031215612c9357612c9261277c565b5b6000612ca1888289016127cf565b9550506020612cb2888289016127cf565b9450506040612cc388828901612805565b935050606086013567ffffffffffffffff811115612ce457612ce3612781565b5b612cf088828901612c49565b9250506080612d0188828901612805565b9150509295509295909350565b7f416464726573732076616c756520697320302100000000000000000000000000600082015250565b6000612d446013836129d2565b9150612d4f82612d0e565b602082019050919050565b60006020820190508181036000830152612d7381612d37565b9050919050565b7f416464726573732069732063686565736550726f64756365724275796572537460008201527f6f72616765210000000000000000000000000000000000000000000000000000602082015250565b6000612dd66026836129d2565b9150612de182612d7a565b604082019050919050565b60006020820190508181036000830152612e0581612dc9565b9050919050565b7f416464726573732069732043686565736550726f64756365725365727669636560008201527f2100000000000000000000000000000000000000000000000000000000000000602082015250565b6000612e686021836129d2565b9150612e7382612e0c565b604082019050919050565b60006020820190508181036000830152612e9781612e5b565b9050919050565b7f41646472657373206973204f7267616e697a6174696f6e210000000000000000600082015250565b6000612ed46018836129d2565b9150612edf82612e9e565b602082019050919050565b60006020820190508181036000830152612f0381612ec7565b9050919050565b612f138161285a565b8114612f1e57600080fd5b50565b600081519050612f3081612f0a565b92915050565b600060208284031215612f4c57612f4b61277c565b5b6000612f5a84828501612f21565b91505092915050565b7f5574656e7465206e6f6e2070726573656e746521000000000000000000000000600082015250565b6000612f996014836129d2565b9150612fa482612f63565b602082019050919050565b60006020820190508181036000830152612fc881612f8c565b9050919050565b6000604082019050612fe46000830185612acc565b612ff1602083018461299d565b9392505050565b7f55736572206e6f7420417574686f72697a656421000000000000000000000000600082015250565b600061302e6014836129d2565b915061303982612ff8565b602082019050919050565b6000602082019050818103600083015261305d81613021565b9050919050565b600067ffffffffffffffff82111561307f5761307e612b4c565b5b602082029050602081019050919050565b600080fd5b6000815190506130a4816127ee565b92915050565b60006130bd6130b884613064565b612bac565b905080838252602082019050602084028301858111156130e0576130df613090565b5b835b8181101561310957806130f58882613095565b8452602084019350506020810190506130e2565b5050509392505050565b600082601f83011261312857613127612b42565b5b81516131388482602086016130aa565b91505092915050565b6000602082840312156131575761315661277c565b5b600082015167ffffffffffffffff81111561317557613174612781565b5b61318184828501613113565b91505092915050565b7f5574656e7465206e6f6e2074726f7661746f2100000000000000000000000000600082015250565b60006131c06013836129d2565b91506131cb8261318a565b602082019050919050565b600060208201905081810360008301526131ef816131b3565b9050919050565b7f50726f646f74746f206e6f6e2050726573656e74652100000000000000000000600082015250565b600061322c6016836129d2565b9150613237826131f6565b602082019050919050565b6000602082019050818103600083015261325b8161321f565b9050919050565b6000602082840312156132785761327761277c565b5b600061328684828501613095565b91505092915050565b60006132a261329d84612bc7565b612bac565b9050828152602081018484840111156132be576132bd612b47565b5b6132c98482856129e3565b509392505050565b600082601f8301126132e6576132e5612b42565b5b81516132f684826020860161328f565b91505092915050565b6000602082840312156133155761331461277c565b5b600082015167ffffffffffffffff81111561333357613332612781565b5b61333f848285016132d1565b91505092915050565b7f41646472657373206973206e6f7420746865206f7267616e697a6174696f6e00600082015250565b600061337e601f836129d2565b915061338982613348565b602082019050919050565b600060208201905081810360008301526133ad81613371565b9050919050565b7f55736572206973206e6f742070726573656e7421000000000000000000000000600082015250565b60006133ea6014836129d2565b91506133f5826133b4565b602082019050919050565b60006020820190508181036000830152613419816133dd565b9050919050565b7f4d696c6b4261746368206e6f742050726573656e742100000000000000000000600082015250565b60006134566016836129d2565b915061346182613420565b602082019050919050565b6000602082019050818103600083015261348581613449565b9050919050565b60006060820190506134a16000830186612acc565b6134ae602083018561299d565b6134bb604083018461299d565b949350505050565b7f4d696c6b42617463682065646974656421000000000000000000000000000000600082015250565b60006134f96011836129d2565b9150613504826134c3565b602082019050919050565b60006040820190508181036000830152613528816134ec565b9050613537602083018461299d565b92915050565b60008151905061354c816127b8565b92915050565b6000806000806080858703121561356c5761356b61277c565b5b600061357a87828801613095565b945050602061358b8782880161353d565b935050604085015167ffffffffffffffff8111156135ac576135ab612781565b5b6135b8878288016132d1565b92505060606135c987828801613095565b91505092959194509250565b6000602082840312156135eb576135ea61277c565b5b60006135f98482850161353d565b91505092915050565b7f4164647265737320756775616c692043686565736550726f647563657220652060008201527f4d696c6b48756221000000000000000000000000000000000000000000000000602082015250565b600061365e6028836129d2565b915061366982613602565b604082019050919050565b6000602082019050818103600083015261368d81613651565b9050919050565b600060a0820190506136a96000830188612acc565b6136b66020830187612acc565b6136c3604083018661299d565b81810360608301526136d58185612a1e565b90506136e4608083018461299d565b9695505050505050565b6000806000606084860312156137075761370661277c565b5b600061371586828701613095565b935050602084015167ffffffffffffffff81111561373657613735612781565b5b613742868287016132d1565b925050604061375386828701613095565b9150509250925092565b7f4d696c6b4261746368204163717569737461746f210000000000000000000000600082015250565b60006137936015836129d2565b915061379e8261375d565b602082019050919050565b600060808201905081810360008301526137c281613786565b90506137d1602083018661299d565b81810360408301526137e38185612a1e565b90506137f2606083018461299d565b94935050505056fea2646970667358221220f9cf8ed49db7aac0287bb8ec6c4f95cd60c34dfc8c1491228975cf81bebe6cff64736f6c63430008180033",
  "immutableReferences": {},
  "source": "// SPDX-License-Identifier: MIT\r\npragma solidity ^0.8.21;\r\n\r\nimport \"./CheeseProducerBuyerStorage.sol\";\r\nimport \"../CheeseProducerService.sol\";\r\n\r\n\r\ncontract CheeseProducerBuyerService {\r\n\r\n//------------------------------------------------------------------------ Address of other Contract Service -----------------------------------------------------------//\r\n\r\n    // Address of Organization che gestisce gli utenti\r\n    address private cheeseProducerOrg;\r\n    // Address of MilkBatchStorage \r\n    CheeseProducerBuyerStorage private cheeseProducerBuyerStorage;\r\n\r\n    CheeseProducerService private cheeseProducerService;\r\n\r\n//------------------------------------------------------------------------ Event of Service  -----------------------------------------------------------//\r\n\r\n    // Eventi per notificare l'aggiunta di una Partita di Latte\r\n    event CheeseProducerMilkBatchAdded(address indexed userAddress,string message,uint256 id, string expirationDate, uint256 quantity);\r\n    // Evento per notificare che un MilkBatch  stato eliminato \r\n    event CheeseProducerMilkBatchDeleted(address indexed userAddress, string message);\r\n    // Evento per notificare che un MilkBatch  stato Editato\r\n    event CheeseProducerMilkBatchEdited(address indexed userAddress,string message, uint256 quantity);\r\n\r\n//------------------------------------------------------------------------ Constructor of other Contract Service -----------------------------------------------------------//\r\n\r\n    constructor(address _cheeseProducerBuyerStorage, address _cheeseProducerService) {\r\n        cheeseProducerBuyerStorage = CheeseProducerBuyerStorage(_cheeseProducerBuyerStorage);\r\n        cheeseProducerService = CheeseProducerService(_cheeseProducerService);\r\n        cheeseProducerOrg = msg.sender;\r\n    }\r\n\r\n//------------------------------------------------------------------------ Modifier Logic of Contract Service -----------------------------------------------------------//\r\n\r\n    modifier checkAddress(address caller){\r\n        \r\n        require(caller!=address(0),\"Address value is 0!\");\r\n        require(caller!=address(cheeseProducerBuyerStorage),\"Address is cheeseProducerBuyerStorage!\");\r\n        require(caller!=address(cheeseProducerService),\"Address is CheeseProducerService!\");\r\n        require(caller!=address(cheeseProducerOrg),\"Address is Organization!\");\r\n        _;\r\n    }\r\n\r\n//------------------------------------------------------------------------ Business Logic of Contract Service -----------------------------------------------------------//\r\n\r\n    // Prodotti Acquistati devono essere visualizzati solo dal CheeseProducer che li detiene \r\n    // TODO : Controllo del msg.sender sulle funzioni di GET \r\n\r\n\r\n    /**\r\n    * Tale funzione viene chiamata dal TransactionManager per inserire il MilkBatch venduto dal MilkHub al CheeseProducer \r\n    * I controlli vengono fatti tutti all'interno del TransactionManager per la verifica dell'esistenza dei due interessati \r\n    * - Ammettiamo che i controlli sul prodotto vengono gi fatti a monte \r\n    * - verifichiamo che il CheeseProducer e il MilkHub esistono \r\n    * - verifichiamo che il MilkBatch associato al MilkHub esiste \r\n    * - Aggiungiamo questi dati all'interno del Inventory \r\n    */\r\n    function addMilkBatch(\r\n            \r\n            address walletMilkHub,\r\n            address walletCheeseProducer,\r\n            uint256 idMilkBatch,\r\n            string memory expirationDate,\r\n            uint256 quantity\r\n\r\n        ) external checkAddress(walletCheeseProducer) checkAddress(walletMilkHub) {\r\n        \r\n        // Verifico che CheeseProducer e MilkHub address non sono identici\r\n        require(address(walletCheeseProducer)!=address(walletMilkHub),\"Address uguali CheeseProducer e MilkHub!\");\r\n\r\n        // Verfico che il CheeseProducer  presente \r\n        require(cheeseProducerService.isUserPresent(walletCheeseProducer), \"Utente non trovato!\");\r\n\r\n        // Aggiungo il MilkBatch all'interno dell'Inventario del CheeseProducer \r\n        (uint256 _idMilkBatch, string memory _expDate,uint256 _quantity) = cheeseProducerBuyerStorage.addMilkBatch(walletCheeseProducer, walletMilkHub,idMilkBatch, expirationDate, quantity);\r\n\r\n        // Invio dell'Evento \r\n        emit CheeseProducerMilkBatchAdded(walletCheeseProducer,\"MilkBatch Acquistato!\", _idMilkBatch ,  _expDate, _quantity);\r\n    }\r\n\r\n    \r\n    //TODO : Controllo sull'owner del MilkBatch Acquistato \r\n    function getMilkBatch(address walletCheeseProducer, uint256 idMilkBatch) external view checkAddress(walletCheeseProducer) returns (uint256, address, string memory, uint256) {\r\n        \r\n\r\n        require(cheeseProducerService.isUserPresent(walletCheeseProducer), \"Utente non trovato!\");\r\n\r\n        require(this.isMilkBatchPresent(walletCheeseProducer,idMilkBatch),\"Prodotto non Presente!\");\r\n\r\n        return cheeseProducerBuyerStorage.getMilkBatch(walletCheeseProducer, idMilkBatch);\r\n    }\r\n\r\n    \r\n    function getExpirationDate(address walletCheeseProducer, uint256 idMilkBatch) external view checkAddress(walletCheeseProducer) returns(string memory) {\r\n        \r\n        require(cheeseProducerService.isUserPresent(walletCheeseProducer), \"Utente non trovato!\");\r\n\r\n        require(this.isMilkBatchPresent(walletCheeseProducer,idMilkBatch),\"Prodotto non Presente!\");\r\n        \r\n        return cheeseProducerBuyerStorage.getExpirationDate(walletCheeseProducer,idMilkBatch);        \r\n    }\r\n\r\n    \r\n    function getQuantity(address walletCheeseProducer, uint256 idMilkBatch) external view checkAddress(walletCheeseProducer) returns(uint256) {\r\n        \r\n        require(cheeseProducerService.isUserPresent(walletCheeseProducer), \"Utente non trovato!\");\r\n\r\n        require(this.isMilkBatchPresent(walletCheeseProducer,idMilkBatch),\"Prodotto non Presente!\");\r\n        \r\n        return cheeseProducerBuyerStorage.getQuantity(walletCheeseProducer,idMilkBatch);        \r\n    }\r\n\r\n    \r\n    function getWalletMilkHub(address walletCheeseProducer, uint256 idMilkBatch) external view checkAddress(walletCheeseProducer) returns(address) {\r\n        \r\n        require(cheeseProducerService.isUserPresent(walletCheeseProducer), \"Utente non trovato!\");\r\n\r\n        require(this.isMilkBatchPresent(walletCheeseProducer,idMilkBatch),\"Prodotto non Presente!\");\r\n        \r\n        return cheeseProducerBuyerStorage.getWalletMilkHub(walletCheeseProducer,idMilkBatch);        \r\n    }\r\n\r\n    /**\r\n    * Verifica che il MilkBatch  presente all'interno dell'inventario \r\n    * - Verifica che l'id non sia nullo e che sia maggiore di 0 e che coincida con l'elemento \r\n    */\r\n    function isMilkBatchPresent(address walletCheeseProducer, uint256 idMilkBatch) external view checkAddress(walletCheeseProducer)  returns (bool){\r\n        \r\n        require(cheeseProducerService.isUserPresent(walletCheeseProducer),\"Utente non presente!\");\r\n\r\n        return cheeseProducerBuyerStorage.isMilkBatchPresent(walletCheeseProducer, idMilkBatch);\r\n    }\r\n\r\n    /*\r\n        - Recupera la Lista di Prodotti Acquistati di un  CheeseProducer \r\n        - Verifica che questo esista \r\n    */\r\n    function getUserMilkBatchIds(address walletCheeseProducer)external view checkAddress(walletCheeseProducer) returns (uint256[]memory ){\r\n        // Verifica che l'utente sia presente all'interno del sistema e sia solo il CheeseProducer\r\n        require(cheeseProducerService.isUserPresent(walletCheeseProducer),\"User not Authorized!\");\r\n\r\n        return cheeseProducerBuyerStorage.getUserMilkBatchIds(walletCheeseProducer);\r\n    }\r\n\r\n\r\n\r\n//-------------------------------------------------------------------- Set Function ------------------------------------------------------------------------//\r\n\r\n    /**\r\n    * \r\n    * - Decremento della quantit del MilkBatchAcquistato per la trasformazione in Cheese \r\n    */\r\n    function updateMilkBatchQuantity(address walletCheeseProducer, uint256 idMilkBatch, uint256 quantity) external checkAddress(walletCheeseProducer) {\r\n\r\n        require(cheeseProducerService.isUserPresent(walletCheeseProducer), \"User is not present!\");\r\n\r\n        require(cheeseProducerBuyerStorage.isMilkBatchPresent(walletCheeseProducer, idMilkBatch),\"MilkBatch not Present!\");\r\n\r\n        cheeseProducerBuyerStorage.updateMilkBatchQuantity(walletCheeseProducer, idMilkBatch, quantity);\r\n\r\n        emit CheeseProducerMilkBatchEdited(walletCheeseProducer,\"MilkBatch edited!\", quantity);\r\n    }\r\n\r\n\r\n\r\n\r\n// -------------------------------------------------- Change Address Function Contract Service ---------------------------------------------------//\r\n\r\n\r\n    // TODO: insert modifier onlyOrg(address sender) {}\r\n    function changeCheeseProducerBuyerStorage(address _cheeseProducerBuyerStorage)external {\r\n        require(msg.sender == cheeseProducerOrg,\"Address is not the organization\");\r\n        cheeseProducerBuyerStorage = CheeseProducerBuyerStorage(_cheeseProducerBuyerStorage);\r\n    }\r\n\r\n    // TODO: insert modifier onlyOrg(address sender) {}\r\n    function changeCheeseProducerService(address _cheeseProducerService) external {\r\n        cheeseProducerService = CheeseProducerService(_cheeseProducerService);\r\n    }\r\n\r\n}",
  "sourcePath": "C:\\Users\\umber\\Progetti\\FilieraToken\\Filiera-Token-Smart-Contract\\contracts\\Actor\\CheeseProducer-smart-contract\\inventory\\CheeseProducerBuyerService.sol",
  "compiler": {
    "name": "solc",
    "version": "0.8.24+commit.e11b9ed9.Emscripten.clang"
  },
  "schemaVersion": "3.4.16",
  "updatedAt": "2024-03-04T16:23:25.731Z",
  "devdoc": {
    "kind": "dev",
    "methods": {},
    "version": 1
  },
  "userdoc": {
    "kind": "user",
    "methods": {
      "addMilkBatch(address,address,uint256,string,uint256)": {
        "notice": "Tale funzione viene chiamata dal TransactionManager per inserire il MilkBatch venduto dal MilkHub al CheeseProducer  I controlli vengono fatti tutti all'interno del TransactionManager per la verifica dell'esistenza dei due interessati  - Ammettiamo che i controlli sul prodotto vengono gi fatti a monte  - verifichiamo che il CheeseProducer e il MilkHub esistono  - verifichiamo che il MilkBatch associato al MilkHub esiste  - Aggiungiamo questi dati all'interno del Inventory "
      },
      "isMilkBatchPresent(address,uint256)": {
        "notice": "Verifica che il MilkBatch  presente all'interno dell'inventario  - Verifica che l'id non sia nullo e che sia maggiore di 0 e che coincida con l'elemento "
      },
      "updateMilkBatchQuantity(address,uint256,uint256)": {
        "notice": " - Decremento della quantit del MilkBatchAcquistato per la trasformazione in Cheese "
      }
    },
    "version": 1
  }
}