{
  "contractName": "CheeseProducerBuyerService",
  "abi": [
    {
      "inputs": [
        {
          "internalType": "address",
          "name": "_cheeseProducerBuyerStorage",
          "type": "address"
        },
        {
          "internalType": "address",
          "name": "_cheeseProducerService",
          "type": "address"
        }
      ],
      "stateMutability": "nonpayable",
      "type": "constructor"
    },
    {
      "anonymous": false,
      "inputs": [
        {
          "indexed": true,
          "internalType": "address",
          "name": "userAddress",
          "type": "address"
        },
        {
          "indexed": false,
          "internalType": "string",
          "name": "message",
          "type": "string"
        },
        {
          "indexed": false,
          "internalType": "uint256",
          "name": "id",
          "type": "uint256"
        },
        {
          "indexed": false,
          "internalType": "string",
          "name": "expirationDate",
          "type": "string"
        },
        {
          "indexed": false,
          "internalType": "uint256",
          "name": "quantity",
          "type": "uint256"
        }
      ],
      "name": "CheeseProducerMilkBatchAdded",
      "type": "event"
    },
    {
      "anonymous": false,
      "inputs": [
        {
          "indexed": true,
          "internalType": "address",
          "name": "userAddress",
          "type": "address"
        },
        {
          "indexed": false,
          "internalType": "string",
          "name": "message",
          "type": "string"
        }
      ],
      "name": "CheeseProducerMilkBatchDeleted",
      "type": "event"
    },
    {
      "anonymous": false,
      "inputs": [
        {
          "indexed": true,
          "internalType": "address",
          "name": "userAddress",
          "type": "address"
        },
        {
          "indexed": false,
          "internalType": "string",
          "name": "message",
          "type": "string"
        },
        {
          "indexed": false,
          "internalType": "uint256",
          "name": "quantity",
          "type": "uint256"
        }
      ],
      "name": "CheeseProducerMilkBatchEdited",
      "type": "event"
    },
    {
      "inputs": [
        {
          "internalType": "address",
          "name": "_walletMilkHub",
          "type": "address"
        },
        {
          "internalType": "address",
          "name": "_walletCheeseProducer",
          "type": "address"
        },
        {
          "internalType": "uint256",
          "name": "_id_MilkBatch",
          "type": "uint256"
        },
        {
          "internalType": "string",
          "name": "_expirationDate",
          "type": "string"
        },
        {
          "internalType": "uint256",
          "name": "_quantity",
          "type": "uint256"
        }
      ],
      "name": "addMilkBatch",
      "outputs": [],
      "stateMutability": "nonpayable",
      "type": "function"
    },
    {
      "inputs": [
        {
          "internalType": "uint256",
          "name": "_id_MilkBatchAcquistato",
          "type": "uint256"
        }
      ],
      "name": "getMilkBatch",
      "outputs": [
        {
          "internalType": "uint256",
          "name": "",
          "type": "uint256"
        },
        {
          "internalType": "address",
          "name": "",
          "type": "address"
        },
        {
          "internalType": "string",
          "name": "",
          "type": "string"
        },
        {
          "internalType": "uint256",
          "name": "",
          "type": "uint256"
        }
      ],
      "stateMutability": "view",
      "type": "function"
    },
    {
      "inputs": [
        {
          "internalType": "address",
          "name": "_walletCheeseProducer",
          "type": "address"
        },
        {
          "internalType": "uint256",
          "name": "_id_MilkBatchAcquistato",
          "type": "uint256"
        }
      ],
      "name": "getExpirationDate",
      "outputs": [
        {
          "internalType": "string",
          "name": "",
          "type": "string"
        }
      ],
      "stateMutability": "view",
      "type": "function"
    },
    {
      "inputs": [
        {
          "internalType": "address",
          "name": "_walletCheeseProducer",
          "type": "address"
        },
        {
          "internalType": "uint256",
          "name": "_id_MilkBatchAcquistato",
          "type": "uint256"
        }
      ],
      "name": "getQuantity",
      "outputs": [
        {
          "internalType": "uint256",
          "name": "",
          "type": "uint256"
        }
      ],
      "stateMutability": "view",
      "type": "function"
    },
    {
      "inputs": [
        {
          "internalType": "address",
          "name": "_walletCheeseProducer",
          "type": "address"
        },
        {
          "internalType": "uint256",
          "name": "_id_MilkBatchAcquistato",
          "type": "uint256"
        }
      ],
      "name": "getWalletMilkHub",
      "outputs": [
        {
          "internalType": "address",
          "name": "",
          "type": "address"
        }
      ],
      "stateMutability": "view",
      "type": "function"
    },
    {
      "inputs": [
        {
          "internalType": "address",
          "name": "_walletCheeseProducer",
          "type": "address"
        },
        {
          "internalType": "uint256",
          "name": "_id_MilkBatchAcquistato",
          "type": "uint256"
        }
      ],
      "name": "isMilkBatchAcquistataPresent",
      "outputs": [
        {
          "internalType": "bool",
          "name": "",
          "type": "bool"
        }
      ],
      "stateMutability": "view",
      "type": "function"
    },
    {
      "inputs": [
        {
          "internalType": "address",
          "name": "walletCheeseProducer",
          "type": "address"
        }
      ],
      "name": "getMilkBatchListPurchasedByCheeseProducer",
      "outputs": [
        {
          "components": [
            {
              "internalType": "uint256",
              "name": "id",
              "type": "uint256"
            },
            {
              "internalType": "uint256",
              "name": "id_MilkBatch",
              "type": "uint256"
            },
            {
              "internalType": "address",
              "name": "walletMilkHub",
              "type": "address"
            },
            {
              "internalType": "string",
              "name": "expirationDate",
              "type": "string"
            },
            {
              "internalType": "uint256",
              "name": "quantity",
              "type": "uint256"
            }
          ],
          "internalType": "struct CheeseProducerBuyerStorage.MilkBatch[]",
          "name": "",
          "type": "tuple[]"
        }
      ],
      "stateMutability": "view",
      "type": "function"
    },
    {
      "inputs": [
        {
          "internalType": "address",
          "name": "walletCheeseProducer",
          "type": "address"
        },
        {
          "internalType": "uint256",
          "name": "_id_MilkBatch",
          "type": "uint256"
        },
        {
          "internalType": "uint256",
          "name": "_quantity",
          "type": "uint256"
        }
      ],
      "name": "updateMilkBatchQuantity",
      "outputs": [],
      "stateMutability": "nonpayable",
      "type": "function"
    },
    {
      "inputs": [
        {
          "internalType": "address",
          "name": "_cheeseProducerBuyerStorage",
          "type": "address"
        }
      ],
      "name": "changeCheeseProducerBuyerStorage",
      "outputs": [],
      "stateMutability": "nonpayable",
      "type": "function"
    },
    {
      "inputs": [
        {
          "internalType": "address",
          "name": "_cheeseProducerService",
          "type": "address"
        }
      ],
      "name": "changeCheeseProducerService",
      "outputs": [],
      "stateMutability": "nonpayable",
      "type": "function"
    }
  ],
  "bytecode": "0x60806040523480156200001157600080fd5b5060405162003bd538038062003bd583398181016040528101906200003791906200016b565b81600160006101000a81548173ffffffffffffffffffffffffffffffffffffffff021916908373ffffffffffffffffffffffffffffffffffffffff16021790555080600260006101000a81548173ffffffffffffffffffffffffffffffffffffffff021916908373ffffffffffffffffffffffffffffffffffffffff160217905550336000806101000a81548173ffffffffffffffffffffffffffffffffffffffff021916908373ffffffffffffffffffffffffffffffffffffffff1602179055505050620001b2565b600080fd5b600073ffffffffffffffffffffffffffffffffffffffff82169050919050565b6000620001338262000106565b9050919050565b620001458162000126565b81146200015157600080fd5b50565b60008151905062000165816200013a565b92915050565b6000806040838503121562000185576200018462000101565b5b6000620001958582860162000154565b9250506020620001a88582860162000154565b9150509250929050565b613a1380620001c26000396000f3fe608060405234801561001057600080fd5b506004361061009e5760003560e01c8063bb8fc80711610066578063bb8fc8071461017f578063be60b0b81461019b578063cb6f5eee146101ce578063d0edfccc146101ea578063dd937b011461021a5761009e565b80631e073fcf146100a3578063311ee70b146100d357806372e4235b146100ef5780639f2b68981461011f578063a70e4d341461014f575b600080fd5b6100bd60048036038101906100b8919061281e565b610236565b6040516100ca919061286d565b60405180910390f35b6100ed60048036038101906100e89190612888565b610693565b005b6101096004803603810190610104919061281e565b6106d7565b60405161011691906128d0565b60405180910390f35b6101396004803603810190610134919061281e565b610a79565b604051610146919061297b565b60405180910390f35b61016960048036038101906101649190612888565b610edb565b6040516101769190612b3d565b60405180910390f35b61019960048036038101906101949190612888565b61127f565b005b6101b560048036038101906101b09190612b5f565b611351565b6040516101c59493929190612b9b565b60405180910390f35b6101e860048036038101906101e39190612be7565b6117c5565b005b61020460048036038101906101ff919061281e565b611c80565b6040516102119190612c3a565b60405180910390f35b610234600480360381019061022f9190612d8a565b6120dd565b005b600033600073ffffffffffffffffffffffffffffffffffffffff168173ffffffffffffffffffffffffffffffffffffffff16036102a8576040517f08c379a000000000000000000000000000000000000000000000000000000000815260040161029f90612e6d565b60405180910390fd5b600160009054906101000a900473ffffffffffffffffffffffffffffffffffffffff1673ffffffffffffffffffffffffffffffffffffffff168173ffffffffffffffffffffffffffffffffffffffff1603610338576040517f08c379a000000000000000000000000000000000000000000000000000000000815260040161032f90612eff565b60405180910390fd5b600260009054906101000a900473ffffffffffffffffffffffffffffffffffffffff1673ffffffffffffffffffffffffffffffffffffffff168173ffffffffffffffffffffffffffffffffffffffff16036103c8576040517f08c379a00000000000000000000000000000000000000000000000000000000081526004016103bf90612f91565b60405180910390fd5b60008054906101000a900473ffffffffffffffffffffffffffffffffffffffff1673ffffffffffffffffffffffffffffffffffffffff168173ffffffffffffffffffffffffffffffffffffffff1603610456576040517f08c379a000000000000000000000000000000000000000000000000000000000815260040161044d90612ffd565b60405180910390fd5b600260009054906101000a900473ffffffffffffffffffffffffffffffffffffffff1673ffffffffffffffffffffffffffffffffffffffff1663a5578807856040518263ffffffff1660e01b81526004016104b19190612c3a565b602060405180830381865afa1580156104ce573d6000803e3d6000fd5b505050506040513d601f19601f820116820180604052508101906104f29190613049565b610531576040517f08c379a0000000000000000000000000000000000000000000000000000000008152600401610528906130c2565b60405180910390fd5b3073ffffffffffffffffffffffffffffffffffffffff166372e4235b85856040518363ffffffff1660e01b815260040161056c9291906130e2565b602060405180830381865afa158015610589573d6000803e3d6000fd5b505050506040513d601f19601f820116820180604052508101906105ad9190613049565b6105ec576040517f08c379a00000000000000000000000000000000000000000000000000000000081526004016105e390613157565b60405180910390fd5b600160009054906101000a900473ffffffffffffffffffffffffffffffffffffffff1673ffffffffffffffffffffffffffffffffffffffff16631e073fcf85856040518363ffffffff1660e01b81526004016106499291906130e2565b602060405180830381865afa158015610666573d6000803e3d6000fd5b505050506040513d601f19601f8201168201806040525081019061068a919061318c565b91505092915050565b80600260006101000a81548173ffffffffffffffffffffffffffffffffffffffff021916908373ffffffffffffffffffffffffffffffffffffffff16021790555050565b600082600073ffffffffffffffffffffffffffffffffffffffff168173ffffffffffffffffffffffffffffffffffffffff1603610749576040517f08c379a000000000000000000000000000000000000000000000000000000000815260040161074090612e6d565b60405180910390fd5b600160009054906101000a900473ffffffffffffffffffffffffffffffffffffffff1673ffffffffffffffffffffffffffffffffffffffff168173ffffffffffffffffffffffffffffffffffffffff16036107d9576040517f08c379a00000000000000000000000000000000000000000000000000000000081526004016107d090612eff565b60405180910390fd5b600260009054906101000a900473ffffffffffffffffffffffffffffffffffffffff1673ffffffffffffffffffffffffffffffffffffffff168173ffffffffffffffffffffffffffffffffffffffff1603610869576040517f08c379a000000000000000000000000000000000000000000000000000000000815260040161086090612f91565b60405180910390fd5b60008054906101000a900473ffffffffffffffffffffffffffffffffffffffff1673ffffffffffffffffffffffffffffffffffffffff168173ffffffffffffffffffffffffffffffffffffffff16036108f7576040517f08c379a00000000000000000000000000000000000000000000000000000000081526004016108ee90612ffd565b60405180910390fd5b600260009054906101000a900473ffffffffffffffffffffffffffffffffffffffff1673ffffffffffffffffffffffffffffffffffffffff1663a5578807856040518263ffffffff1660e01b81526004016109529190612c3a565b602060405180830381865afa15801561096f573d6000803e3d6000fd5b505050506040513d601f19601f820116820180604052508101906109939190613049565b6109d2576040517f08c379a00000000000000000000000000000000000000000000000000000000081526004016109c990613205565b60405180910390fd5b600160009054906101000a900473ffffffffffffffffffffffffffffffffffffffff1673ffffffffffffffffffffffffffffffffffffffff166302d805f685856040518363ffffffff1660e01b8152600401610a2f9291906130e2565b602060405180830381865afa158015610a4c573d6000803e3d6000fd5b505050506040513d601f19601f82011682018060405250810190610a709190613049565b91505092915050565b606033600073ffffffffffffffffffffffffffffffffffffffff168173ffffffffffffffffffffffffffffffffffffffff1603610aeb576040517f08c379a0000000000000000000000000000000000000000000000000000000008152600401610ae290612e6d565b60405180910390fd5b600160009054906101000a900473ffffffffffffffffffffffffffffffffffffffff1673ffffffffffffffffffffffffffffffffffffffff168173ffffffffffffffffffffffffffffffffffffffff1603610b7b576040517f08c379a0000000000000000000000000000000000000000000000000000000008152600401610b7290612eff565b60405180910390fd5b600260009054906101000a900473ffffffffffffffffffffffffffffffffffffffff1673ffffffffffffffffffffffffffffffffffffffff168173ffffffffffffffffffffffffffffffffffffffff1603610c0b576040517f08c379a0000000000000000000000000000000000000000000000000000000008152600401610c0290612f91565b60405180910390fd5b60008054906101000a900473ffffffffffffffffffffffffffffffffffffffff1673ffffffffffffffffffffffffffffffffffffffff168173ffffffffffffffffffffffffffffffffffffffff1603610c99576040517f08c379a0000000000000000000000000000000000000000000000000000000008152600401610c9090612ffd565b60405180910390fd5b600260009054906101000a900473ffffffffffffffffffffffffffffffffffffffff1673ffffffffffffffffffffffffffffffffffffffff1663a5578807856040518263ffffffff1660e01b8152600401610cf49190612c3a565b602060405180830381865afa158015610d11573d6000803e3d6000fd5b505050506040513d601f19601f82011682018060405250810190610d359190613049565b610d74576040517f08c379a0000000000000000000000000000000000000000000000000000000008152600401610d6b906130c2565b60405180910390fd5b3073ffffffffffffffffffffffffffffffffffffffff166372e4235b85856040518363ffffffff1660e01b8152600401610daf9291906130e2565b602060405180830381865afa158015610dcc573d6000803e3d6000fd5b505050506040513d601f19601f82011682018060405250810190610df09190613049565b610e2f576040517f08c379a0000000000000000000000000000000000000000000000000000000008152600401610e2690613157565b60405180910390fd5b600160009054906101000a900473ffffffffffffffffffffffffffffffffffffffff1673ffffffffffffffffffffffffffffffffffffffff16639f2b689885856040518363ffffffff1660e01b8152600401610e8c9291906130e2565b600060405180830381865afa158015610ea9573d6000803e3d6000fd5b505050506040513d6000823e3d601f19601f82011682018060405250810190610ed29190613295565b91505092915050565b606081600073ffffffffffffffffffffffffffffffffffffffff168173ffffffffffffffffffffffffffffffffffffffff1603610f4d576040517f08c379a0000000000000000000000000000000000000000000000000000000008152600401610f4490612e6d565b60405180910390fd5b600160009054906101000a900473ffffffffffffffffffffffffffffffffffffffff1673ffffffffffffffffffffffffffffffffffffffff168173ffffffffffffffffffffffffffffffffffffffff1603610fdd576040517f08c379a0000000000000000000000000000000000000000000000000000000008152600401610fd490612eff565b60405180910390fd5b600260009054906101000a900473ffffffffffffffffffffffffffffffffffffffff1673ffffffffffffffffffffffffffffffffffffffff168173ffffffffffffffffffffffffffffffffffffffff160361106d576040517f08c379a000000000000000000000000000000000000000000000000000000000815260040161106490612f91565b60405180910390fd5b60008054906101000a900473ffffffffffffffffffffffffffffffffffffffff1673ffffffffffffffffffffffffffffffffffffffff168173ffffffffffffffffffffffffffffffffffffffff16036110fb576040517f08c379a00000000000000000000000000000000000000000000000000000000081526004016110f290612ffd565b60405180910390fd5b600260009054906101000a900473ffffffffffffffffffffffffffffffffffffffff1673ffffffffffffffffffffffffffffffffffffffff1663a5578807846040518263ffffffff1660e01b81526004016111569190612c3a565b602060405180830381865afa158015611173573d6000803e3d6000fd5b505050506040513d601f19601f820116820180604052508101906111979190613049565b6111d6576040517f08c379a00000000000000000000000000000000000000000000000000000000081526004016111cd9061332a565b60405180910390fd5b600160009054906101000a900473ffffffffffffffffffffffffffffffffffffffff1673ffffffffffffffffffffffffffffffffffffffff1663a70e4d34846040518263ffffffff1660e01b81526004016112319190612c3a565b600060405180830381865afa15801561124e573d6000803e3d6000fd5b505050506040513d6000823e3d601f19601f8201168201806040525081019061127791906134f7565b915050919050565b60008054906101000a900473ffffffffffffffffffffffffffffffffffffffff1673ffffffffffffffffffffffffffffffffffffffff163373ffffffffffffffffffffffffffffffffffffffff161461130d576040517f08c379a00000000000000000000000000000000000000000000000000000000081526004016113049061358c565b60405180910390fd5b80600160006101000a81548173ffffffffffffffffffffffffffffffffffffffff021916908373ffffffffffffffffffffffffffffffffffffffff16021790555050565b6000806060600033600073ffffffffffffffffffffffffffffffffffffffff168173ffffffffffffffffffffffffffffffffffffffff16036113c8576040517f08c379a00000000000000000000000000000000000000000000000000000000081526004016113bf90612e6d565b60405180910390fd5b600160009054906101000a900473ffffffffffffffffffffffffffffffffffffffff1673ffffffffffffffffffffffffffffffffffffffff168173ffffffffffffffffffffffffffffffffffffffff1603611458576040517f08c379a000000000000000000000000000000000000000000000000000000000815260040161144f90612eff565b60405180910390fd5b600260009054906101000a900473ffffffffffffffffffffffffffffffffffffffff1673ffffffffffffffffffffffffffffffffffffffff168173ffffffffffffffffffffffffffffffffffffffff16036114e8576040517f08c379a00000000000000000000000000000000000000000000000000000000081526004016114df90612f91565b60405180910390fd5b60008054906101000a900473ffffffffffffffffffffffffffffffffffffffff1673ffffffffffffffffffffffffffffffffffffffff168173ffffffffffffffffffffffffffffffffffffffff1603611576576040517f08c379a000000000000000000000000000000000000000000000000000000000815260040161156d90612ffd565b60405180910390fd5b6000339050600260009054906101000a900473ffffffffffffffffffffffffffffffffffffffff1673ffffffffffffffffffffffffffffffffffffffff1663a5578807826040518263ffffffff1660e01b81526004016115d69190612c3a565b602060405180830381865afa1580156115f3573d6000803e3d6000fd5b505050506040513d601f19601f820116820180604052508101906116179190613049565b611656576040517f08c379a000000000000000000000000000000000000000000000000000000000815260040161164d906130c2565b60405180910390fd5b3073ffffffffffffffffffffffffffffffffffffffff166372e4235b82896040518363ffffffff1660e01b81526004016116919291906130e2565b602060405180830381865afa1580156116ae573d6000803e3d6000fd5b505050506040513d601f19601f820116820180604052508101906116d29190613049565b611711576040517f08c379a000000000000000000000000000000000000000000000000000000000815260040161170890613157565b60405180910390fd5b600160009054906101000a900473ffffffffffffffffffffffffffffffffffffffff1673ffffffffffffffffffffffffffffffffffffffff1663ce4fcf2382896040518363ffffffff1660e01b815260040161176e9291906130e2565b600060405180830381865afa15801561178b573d6000803e3d6000fd5b505050506040513d6000823e3d601f19601f820116820180604052508101906117b491906135ac565b955095509550955050509193509193565b82600073ffffffffffffffffffffffffffffffffffffffff168173ffffffffffffffffffffffffffffffffffffffff1603611835576040517f08c379a000000000000000000000000000000000000000000000000000000000815260040161182c90612e6d565b60405180910390fd5b600160009054906101000a900473ffffffffffffffffffffffffffffffffffffffff1673ffffffffffffffffffffffffffffffffffffffff168173ffffffffffffffffffffffffffffffffffffffff16036118c5576040517f08c379a00000000000000000000000000000000000000000000000000000000081526004016118bc90612eff565b60405180910390fd5b600260009054906101000a900473ffffffffffffffffffffffffffffffffffffffff1673ffffffffffffffffffffffffffffffffffffffff168173ffffffffffffffffffffffffffffffffffffffff1603611955576040517f08c379a000000000000000000000000000000000000000000000000000000000815260040161194c90612f91565b60405180910390fd5b60008054906101000a900473ffffffffffffffffffffffffffffffffffffffff1673ffffffffffffffffffffffffffffffffffffffff168173ffffffffffffffffffffffffffffffffffffffff16036119e3576040517f08c379a00000000000000000000000000000000000000000000000000000000081526004016119da90612ffd565b60405180910390fd5b600260009054906101000a900473ffffffffffffffffffffffffffffffffffffffff1673ffffffffffffffffffffffffffffffffffffffff1663a5578807856040518263ffffffff1660e01b8152600401611a3e9190612c3a565b602060405180830381865afa158015611a5b573d6000803e3d6000fd5b505050506040513d601f19601f82011682018060405250810190611a7f9190613049565b611abe576040517f08c379a0000000000000000000000000000000000000000000000000000000008152600401611ab59061367b565b60405180910390fd5b600160009054906101000a900473ffffffffffffffffffffffffffffffffffffffff1673ffffffffffffffffffffffffffffffffffffffff166302d805f685856040518363ffffffff1660e01b8152600401611b1b9291906130e2565b602060405180830381865afa158015611b38573d6000803e3d6000fd5b505050506040513d601f19601f82011682018060405250810190611b5c9190613049565b611b9b576040517f08c379a0000000000000000000000000000000000000000000000000000000008152600401611b92906136e7565b60405180910390fd5b600160009054906101000a900473ffffffffffffffffffffffffffffffffffffffff1673ffffffffffffffffffffffffffffffffffffffff1663cb6f5eee8585856040518463ffffffff1660e01b8152600401611bfa93929190613707565b600060405180830381600087803b158015611c1457600080fd5b505af1158015611c28573d6000803e3d6000fd5b505050508373ffffffffffffffffffffffffffffffffffffffff167f57a258bc3a68d0a4f6bef4785c42e79bf29fc79427b349767fd192a91151441783604051611c72919061378a565b60405180910390a250505050565b600033600073ffffffffffffffffffffffffffffffffffffffff168173ffffffffffffffffffffffffffffffffffffffff1603611cf2576040517f08c379a0000000000000000000000000000000000000000000000000000000008152600401611ce990612e6d565b60405180910390fd5b600160009054906101000a900473ffffffffffffffffffffffffffffffffffffffff1673ffffffffffffffffffffffffffffffffffffffff168173ffffffffffffffffffffffffffffffffffffffff1603611d82576040517f08c379a0000000000000000000000000000000000000000000000000000000008152600401611d7990612eff565b60405180910390fd5b600260009054906101000a900473ffffffffffffffffffffffffffffffffffffffff1673ffffffffffffffffffffffffffffffffffffffff168173ffffffffffffffffffffffffffffffffffffffff1603611e12576040517f08c379a0000000000000000000000000000000000000000000000000000000008152600401611e0990612f91565b60405180910390fd5b60008054906101000a900473ffffffffffffffffffffffffffffffffffffffff1673ffffffffffffffffffffffffffffffffffffffff168173ffffffffffffffffffffffffffffffffffffffff1603611ea0576040517f08c379a0000000000000000000000000000000000000000000000000000000008152600401611e9790612ffd565b60405180910390fd5b600260009054906101000a900473ffffffffffffffffffffffffffffffffffffffff1673ffffffffffffffffffffffffffffffffffffffff1663a5578807856040518263ffffffff1660e01b8152600401611efb9190612c3a565b602060405180830381865afa158015611f18573d6000803e3d6000fd5b505050506040513d601f19601f82011682018060405250810190611f3c9190613049565b611f7b576040517f08c379a0000000000000000000000000000000000000000000000000000000008152600401611f72906130c2565b60405180910390fd5b3073ffffffffffffffffffffffffffffffffffffffff166372e4235b85856040518363ffffffff1660e01b8152600401611fb69291906130e2565b602060405180830381865afa158015611fd3573d6000803e3d6000fd5b505050506040513d601f19601f82011682018060405250810190611ff79190613049565b612036576040517f08c379a000000000000000000000000000000000000000000000000000000000815260040161202d90613157565b60405180910390fd5b600160009054906101000a900473ffffffffffffffffffffffffffffffffffffffff1673ffffffffffffffffffffffffffffffffffffffff1663d0edfccc85856040518363ffffffff1660e01b81526004016120939291906130e2565b602060405180830381865afa1580156120b0573d6000803e3d6000fd5b505050506040513d601f19601f820116820180604052508101906120d491906137b8565b91505092915050565b83600073ffffffffffffffffffffffffffffffffffffffff168173ffffffffffffffffffffffffffffffffffffffff160361214d576040517f08c379a000000000000000000000000000000000000000000000000000000000815260040161214490612e6d565b60405180910390fd5b600160009054906101000a900473ffffffffffffffffffffffffffffffffffffffff1673ffffffffffffffffffffffffffffffffffffffff168173ffffffffffffffffffffffffffffffffffffffff16036121dd576040517f08c379a00000000000000000000000000000000000000000000000000000000081526004016121d490612eff565b60405180910390fd5b600260009054906101000a900473ffffffffffffffffffffffffffffffffffffffff1673ffffffffffffffffffffffffffffffffffffffff168173ffffffffffffffffffffffffffffffffffffffff160361226d576040517f08c379a000000000000000000000000000000000000000000000000000000000815260040161226490612f91565b60405180910390fd5b60008054906101000a900473ffffffffffffffffffffffffffffffffffffffff1673ffffffffffffffffffffffffffffffffffffffff168173ffffffffffffffffffffffffffffffffffffffff16036122fb576040517f08c379a00000000000000000000000000000000000000000000000000000000081526004016122f290612ffd565b60405180910390fd5b85600073ffffffffffffffffffffffffffffffffffffffff168173ffffffffffffffffffffffffffffffffffffffff160361236b576040517f08c379a000000000000000000000000000000000000000000000000000000000815260040161236290612e6d565b60405180910390fd5b600160009054906101000a900473ffffffffffffffffffffffffffffffffffffffff1673ffffffffffffffffffffffffffffffffffffffff168173ffffffffffffffffffffffffffffffffffffffff16036123fb576040517f08c379a00000000000000000000000000000000000000000000000000000000081526004016123f290612eff565b60405180910390fd5b600260009054906101000a900473ffffffffffffffffffffffffffffffffffffffff1673ffffffffffffffffffffffffffffffffffffffff168173ffffffffffffffffffffffffffffffffffffffff160361248b576040517f08c379a000000000000000000000000000000000000000000000000000000000815260040161248290612f91565b60405180910390fd5b60008054906101000a900473ffffffffffffffffffffffffffffffffffffffff1673ffffffffffffffffffffffffffffffffffffffff168173ffffffffffffffffffffffffffffffffffffffff1603612519576040517f08c379a000000000000000000000000000000000000000000000000000000000815260040161251090612ffd565b60405180910390fd5b8673ffffffffffffffffffffffffffffffffffffffff168673ffffffffffffffffffffffffffffffffffffffff1603612587576040517f08c379a000000000000000000000000000000000000000000000000000000000815260040161257e90613857565b60405180910390fd5b600260009054906101000a900473ffffffffffffffffffffffffffffffffffffffff1673ffffffffffffffffffffffffffffffffffffffff1663a5578807876040518263ffffffff1660e01b81526004016125e29190612c3a565b602060405180830381865afa1580156125ff573d6000803e3d6000fd5b505050506040513d601f19601f820116820180604052508101906126239190613049565b612662576040517f08c379a0000000000000000000000000000000000000000000000000000000008152600401612659906130c2565b60405180910390fd5b6000806000600160009054906101000a900473ffffffffffffffffffffffffffffffffffffffff1673ffffffffffffffffffffffffffffffffffffffff1663dd937b018a8c8b8b8b6040518663ffffffff1660e01b81526004016126ca959493929190613877565b6000604051808303816000875af11580156126e9573d6000803e3d6000fd5b505050506040513d6000823e3d601f19601f8201168201806040525081019061271291906138d1565b9250925092508873ffffffffffffffffffffffffffffffffffffffff167f1d8793fb550f6c2b3943bc0f10a0c1883b6d2c1fbba140c88cb2ec0b615549af8484846040516127629392919061398c565b60405180910390a250505050505050505050565b6000604051905090565b600080fd5b600080fd5b600073ffffffffffffffffffffffffffffffffffffffff82169050919050565b60006127b58261278a565b9050919050565b6127c5816127aa565b81146127d057600080fd5b50565b6000813590506127e2816127bc565b92915050565b6000819050919050565b6127fb816127e8565b811461280657600080fd5b50565b600081359050612818816127f2565b92915050565b6000806040838503121561283557612834612780565b5b6000612843858286016127d3565b925050602061285485828601612809565b9150509250929050565b612867816127e8565b82525050565b6000602082019050612882600083018461285e565b92915050565b60006020828403121561289e5761289d612780565b5b60006128ac848285016127d3565b91505092915050565b60008115159050919050565b6128ca816128b5565b82525050565b60006020820190506128e560008301846128c1565b92915050565b600081519050919050565b600082825260208201905092915050565b60005b8381101561292557808201518184015260208101905061290a565b60008484015250505050565b6000601f19601f8301169050919050565b600061294d826128eb565b61295781856128f6565b9350612967818560208601612907565b61297081612931565b840191505092915050565b600060208201905081810360008301526129958184612942565b905092915050565b600081519050919050565b600082825260208201905092915050565b6000819050602082019050919050565b6129d2816127e8565b82525050565b6129e1816127aa565b82525050565b600082825260208201905092915050565b6000612a03826128eb565b612a0d81856129e7565b9350612a1d818560208601612907565b612a2681612931565b840191505092915050565b600060a083016000830151612a4960008601826129c9565b506020830151612a5c60208601826129c9565b506040830151612a6f60408601826129d8565b5060608301518482036060860152612a8782826129f8565b9150506080830151612a9c60808601826129c9565b508091505092915050565b6000612ab38383612a31565b905092915050565b6000602082019050919050565b6000612ad38261299d565b612add81856129a8565b935083602082028501612aef856129b9565b8060005b85811015612b2b5784840389528151612b0c8582612aa7565b9450612b1783612abb565b925060208a01995050600181019050612af3565b50829750879550505050505092915050565b60006020820190508181036000830152612b578184612ac8565b905092915050565b600060208284031215612b7557612b74612780565b5b6000612b8384828501612809565b91505092915050565b612b95816127aa565b82525050565b6000608082019050612bb0600083018761285e565b612bbd6020830186612b8c565b8181036040830152612bcf8185612942565b9050612bde606083018461285e565b95945050505050565b600080600060608486031215612c0057612bff612780565b5b6000612c0e868287016127d3565b9350506020612c1f86828701612809565b9250506040612c3086828701612809565b9150509250925092565b6000602082019050612c4f6000830184612b8c565b92915050565b600080fd5b600080fd5b7f4e487b7100000000000000000000000000000000000000000000000000000000600052604160045260246000fd5b612c9782612931565b810181811067ffffffffffffffff82111715612cb657612cb5612c5f565b5b80604052505050565b6000612cc9612776565b9050612cd58282612c8e565b919050565b600067ffffffffffffffff821115612cf557612cf4612c5f565b5b612cfe82612931565b9050602081019050919050565b82818337600083830152505050565b6000612d2d612d2884612cda565b612cbf565b905082815260208101848484011115612d4957612d48612c5a565b5b612d54848285612d0b565b509392505050565b600082601f830112612d7157612d70612c55565b5b8135612d81848260208601612d1a565b91505092915050565b600080600080600060a08688031215612da657612da5612780565b5b6000612db4888289016127d3565b9550506020612dc5888289016127d3565b9450506040612dd688828901612809565b935050606086013567ffffffffffffffff811115612df757612df6612785565b5b612e0388828901612d5c565b9250506080612e1488828901612809565b9150509295509295909350565b7f416464726573732076616c756520697320302100000000000000000000000000600082015250565b6000612e576013836128f6565b9150612e6282612e21565b602082019050919050565b60006020820190508181036000830152612e8681612e4a565b9050919050565b7f416464726573732069732063686565736550726f64756365724275796572537460008201527f6f72616765210000000000000000000000000000000000000000000000000000602082015250565b6000612ee96026836128f6565b9150612ef482612e8d565b604082019050919050565b60006020820190508181036000830152612f1881612edc565b9050919050565b7f416464726573732069732043686565736550726f64756365725365727669636560008201527f2100000000000000000000000000000000000000000000000000000000000000602082015250565b6000612f7b6021836128f6565b9150612f8682612f1f565b604082019050919050565b60006020820190508181036000830152612faa81612f6e565b9050919050565b7f41646472657373206973204f7267616e697a6174696f6e210000000000000000600082015250565b6000612fe76018836128f6565b9150612ff282612fb1565b602082019050919050565b6000602082019050818103600083015261301681612fda565b9050919050565b613026816128b5565b811461303157600080fd5b50565b6000815190506130438161301d565b92915050565b60006020828403121561305f5761305e612780565b5b600061306d84828501613034565b91505092915050565b7f5574656e7465206e6f6e2074726f7661746f2100000000000000000000000000600082015250565b60006130ac6013836128f6565b91506130b782613076565b602082019050919050565b600060208201905081810360008301526130db8161309f565b9050919050565b60006040820190506130f76000830185612b8c565b613104602083018461285e565b9392505050565b7f50726f646f74746f206e6f6e2050726573656e74652100000000000000000000600082015250565b60006131416016836128f6565b915061314c8261310b565b602082019050919050565b6000602082019050818103600083015261317081613134565b9050919050565b600081519050613186816127f2565b92915050565b6000602082840312156131a2576131a1612780565b5b60006131b084828501613177565b91505092915050565b7f5574656e7465206e6f6e2070726573656e746521000000000000000000000000600082015250565b60006131ef6014836128f6565b91506131fa826131b9565b602082019050919050565b6000602082019050818103600083015261321e816131e2565b9050919050565b600061323861323384612cda565b612cbf565b90508281526020810184848401111561325457613253612c5a565b5b61325f848285612907565b509392505050565b600082601f83011261327c5761327b612c55565b5b815161328c848260208601613225565b91505092915050565b6000602082840312156132ab576132aa612780565b5b600082015167ffffffffffffffff8111156132c9576132c8612785565b5b6132d584828501613267565b91505092915050565b7f55736572206e6f7420417574686f72697a656421000000000000000000000000600082015250565b60006133146014836128f6565b915061331f826132de565b602082019050919050565b6000602082019050818103600083015261334381613307565b9050919050565b600067ffffffffffffffff82111561336557613364612c5f565b5b602082029050602081019050919050565b600080fd5b600080fd5b600080fd5b600081519050613394816127bc565b92915050565b600060a082840312156133b0576133af61337b565b5b6133ba60a0612cbf565b905060006133ca84828501613177565b60008301525060206133de84828501613177565b60208301525060406133f284828501613385565b604083015250606082015167ffffffffffffffff81111561341657613415613380565b5b61342284828501613267565b606083015250608061343684828501613177565b60808301525092915050565b60006134556134508461334a565b612cbf565b9050808382526020820190506020840283018581111561347857613477613376565b5b835b818110156134bf57805167ffffffffffffffff81111561349d5761349c612c55565b5b8086016134aa898261339a565b8552602085019450505060208101905061347a565b5050509392505050565b600082601f8301126134de576134dd612c55565b5b81516134ee848260208601613442565b91505092915050565b60006020828403121561350d5761350c612780565b5b600082015167ffffffffffffffff81111561352b5761352a612785565b5b613537848285016134c9565b91505092915050565b7f41646472657373206973206e6f7420746865206f7267616e697a6174696f6e00600082015250565b6000613576601f836128f6565b915061358182613540565b602082019050919050565b600060208201905081810360008301526135a581613569565b9050919050565b600080600080608085870312156135c6576135c5612780565b5b60006135d487828801613177565b94505060206135e587828801613385565b935050604085015167ffffffffffffffff81111561360657613605612785565b5b61361287828801613267565b925050606061362387828801613177565b91505092959194509250565b7f55736572206973206e6f742070726573656e7421000000000000000000000000600082015250565b60006136656014836128f6565b91506136708261362f565b602082019050919050565b6000602082019050818103600083015261369481613658565b9050919050565b7f4d696c6b4261746368206e6f742050726573656e742100000000000000000000600082015250565b60006136d16016836128f6565b91506136dc8261369b565b602082019050919050565b60006020820190508181036000830152613700816136c4565b9050919050565b600060608201905061371c6000830186612b8c565b613729602083018561285e565b613736604083018461285e565b949350505050565b7f4d696c6b42617463682065646974656421000000000000000000000000000000600082015250565b60006137746011836128f6565b915061377f8261373e565b602082019050919050565b600060408201905081810360008301526137a381613767565b90506137b2602083018461285e565b92915050565b6000602082840312156137ce576137cd612780565b5b60006137dc84828501613385565b91505092915050565b7f4164647265737320756775616c692043686565736550726f647563657220652060008201527f4d696c6b48756221000000000000000000000000000000000000000000000000602082015250565b60006138416028836128f6565b915061384c826137e5565b604082019050919050565b6000602082019050818103600083015261387081613834565b9050919050565b600060a08201905061388c6000830188612b8c565b6138996020830187612b8c565b6138a6604083018661285e565b81810360608301526138b88185612942565b90506138c7608083018461285e565b9695505050505050565b6000806000606084860312156138ea576138e9612780565b5b60006138f886828701613177565b935050602084015167ffffffffffffffff81111561391957613918612785565b5b61392586828701613267565b925050604061393686828701613177565b9150509250925092565b7f4d696c6b4261746368204163717569737461746f210000000000000000000000600082015250565b60006139766015836128f6565b915061398182613940565b602082019050919050565b600060808201905081810360008301526139a581613969565b90506139b4602083018661285e565b81810360408301526139c68185612942565b90506139d5606083018461285e565b94935050505056fea26469706673582212204e8a3560a7ddac7cce6f6bd36375ca011851bec83a6531e28ef3bd3081f0067a64736f6c63430008180033",
  "immutableReferences": {},
  "source": "// SPDX-License-Identifier: MIT\r\npragma solidity ^0.8.21;\r\n\r\nimport \"./CheeseProducerBuyerStorage.sol\";\r\nimport \"../CheeseProducerService.sol\";\r\n\r\n\r\ncontract CheeseProducerBuyerService {\r\n\r\n//------------------------------------------------------------------------ Address of other Contract Service -----------------------------------------------------------//\r\n\r\n    // Address of Organization che gestisce gli utenti\r\n    address private cheeseProducerOrg;\r\n    // Address of MilkBatchStorage \r\n    CheeseProducerBuyerStorage private cheeseProducerBuyerStorage;\r\n\r\n    CheeseProducerService private cheeseProducerService;\r\n\r\n//------------------------------------------------------------------------ Event of Service  -----------------------------------------------------------//\r\n\r\n    // Eventi per notificare l'aggiunta di una Partita di Latte\r\n    event CheeseProducerMilkBatchAdded(address indexed userAddress,string message,uint256 id, string expirationDate, uint256 quantity);\r\n    // Evento per notificare che un MilkBatch  stato eliminato \r\n    event CheeseProducerMilkBatchDeleted(address indexed userAddress, string message);\r\n    // Evento per notificare che un MilkBatch  stato Editato\r\n    event CheeseProducerMilkBatchEdited(address indexed userAddress,string message, uint256 quantity);\r\n\r\n//------------------------------------------------------------------------ Constructor of other Contract Service -----------------------------------------------------------//\r\n\r\n    constructor(address _cheeseProducerBuyerStorage, address _cheeseProducerService) {\r\n        cheeseProducerBuyerStorage = CheeseProducerBuyerStorage(_cheeseProducerBuyerStorage);\r\n        cheeseProducerService = CheeseProducerService(_cheeseProducerService);\r\n        cheeseProducerOrg = msg.sender;\r\n    }\r\n\r\n//------------------------------------------------------------------------ Modifier Logic of Contract Service -----------------------------------------------------------//\r\n\r\n    modifier checkAddress(address caller){\r\n        \r\n        require(caller!=address(0),\"Address value is 0!\");\r\n        require(caller!=address(cheeseProducerBuyerStorage),\"Address is cheeseProducerBuyerStorage!\");\r\n        require(caller!=address(cheeseProducerService),\"Address is CheeseProducerService!\");\r\n        require(caller!=address(cheeseProducerOrg),\"Address is Organization!\");\r\n        _;\r\n    }\r\n\r\n//------------------------------------------------------------------------ Business Logic of Contract Service -----------------------------------------------------------//\r\n\r\n    // Prodotti Acquistati devono essere visualizzati solo dal CheeseProducer che li detiene \r\n    // TODO : Controllo del msg.sender sulle funzioni di GET \r\n\r\n\r\n    /**\r\n    * Tale funzione viene chiamata dal TransactionManager per inserire il MilkBatch venduto dal MilkHub al CheeseProducer \r\n    * I controlli vengono fatti tutti all'interno del TransactionManager per la verifica dell'esistenza dei due interessati \r\n    * - Ammettiamo che i controlli sul prodotto vengono gi fatti a monte \r\n    * - verifichiamo che il CheeseProducer e il MilkHub esistono \r\n    * - verifichiamo che il MilkBatch associato al MilkHub esiste \r\n    * - Aggiungiamo questi dati all'interno del Inventory \r\n    */\r\n    function addMilkBatch(\r\n            \r\n            address _walletMilkHub,\r\n            address _walletCheeseProducer,\r\n            uint256 _id_MilkBatch,\r\n            string memory _expirationDate,\r\n            uint256 _quantity\r\n\r\n        ) external checkAddress(_walletCheeseProducer) checkAddress(_walletMilkHub) {\r\n        \r\n        // Verifico che CheeseProducer e MilkHub address non sono identici\r\n        require(address(_walletCheeseProducer)!=address(_walletMilkHub),\"Address uguali CheeseProducer e MilkHub!\");\r\n\r\n        // Verfico che il CheeseProducer  presente \r\n        require(cheeseProducerService.isUserPresent(_walletCheeseProducer), \"Utente non trovato!\");\r\n\r\n        // Aggiungo il MilkBatch all'interno dell'Inventario del CheeseProducer \r\n        (uint256 id_MilkBatch_Acquistato, string memory expDate,uint256 quantity) = cheeseProducerBuyerStorage.addMilkBatch(_walletCheeseProducer, _walletMilkHub,_id_MilkBatch, _expirationDate, _quantity);\r\n\r\n        // Invio dell'Evento \r\n        emit CheeseProducerMilkBatchAdded(_walletCheeseProducer,\"MilkBatch Acquistato!\", id_MilkBatch_Acquistato ,  expDate, quantity);\r\n    }\r\n\r\n    \r\n    //TODO : Controllo sull'owner del MilkBatch Acquistato \r\n    function getMilkBatch(uint256 _id_MilkBatchAcquistato) external view checkAddress(msg.sender) returns (uint256, address, string memory, uint256) {\r\n        \r\n        address _walletCheeseProducer = msg.sender;\r\n\r\n        require(cheeseProducerService.isUserPresent(_walletCheeseProducer), \"Utente non trovato!\");\r\n\r\n        require(this.isMilkBatchAcquistataPresent(_walletCheeseProducer,_id_MilkBatchAcquistato),\"Prodotto non Presente!\");\r\n\r\n        return cheeseProducerBuyerStorage.getMilkBatch(_walletCheeseProducer, _id_MilkBatchAcquistato);\r\n    }\r\n\r\n\r\n    \r\n    function getExpirationDate(address _walletCheeseProducer, uint256 _id_MilkBatchAcquistato) external view checkAddress(msg.sender) returns(string memory) {\r\n        \r\n        require(cheeseProducerService.isUserPresent(_walletCheeseProducer), \"Utente non trovato!\");\r\n\r\n        require(this.isMilkBatchAcquistataPresent(_walletCheeseProducer,_id_MilkBatchAcquistato),\"Prodotto non Presente!\");\r\n        \r\n        return cheeseProducerBuyerStorage.getExpirationDate(_walletCheeseProducer,_id_MilkBatchAcquistato);        \r\n    }\r\n\r\n    \r\n    function getQuantity(address _walletCheeseProducer, uint256 _id_MilkBatchAcquistato) external view checkAddress(msg.sender) returns(uint256) {\r\n        \r\n        require(cheeseProducerService.isUserPresent(_walletCheeseProducer), \"Utente non trovato!\");\r\n\r\n        require(this.isMilkBatchAcquistataPresent(_walletCheeseProducer,_id_MilkBatchAcquistato),\"Prodotto non Presente!\");\r\n        \r\n        return cheeseProducerBuyerStorage.getQuantity(_walletCheeseProducer,_id_MilkBatchAcquistato);        \r\n    }\r\n\r\n    \r\n    function getWalletMilkHub(address _walletCheeseProducer, uint256 _id_MilkBatchAcquistato) external view checkAddress(msg.sender) returns(address) {\r\n        \r\n        require(cheeseProducerService.isUserPresent(_walletCheeseProducer), \"Utente non trovato!\");\r\n\r\n        require(this.isMilkBatchAcquistataPresent(_walletCheeseProducer,_id_MilkBatchAcquistato),\"Prodotto non Presente!\");\r\n        \r\n        return cheeseProducerBuyerStorage.getWalletMilkHub(_walletCheeseProducer,_id_MilkBatchAcquistato);        \r\n    }\r\n\r\n    /**\r\n    * Verifica che il MilkBatch  presente all'interno dell'inventario \r\n    * - Verifica che l'id non sia nullo e che sia maggiore di 0 e che coincida con l'elemento \r\n    */\r\n    function isMilkBatchAcquistataPresent(address _walletCheeseProducer, uint256 _id_MilkBatchAcquistato) external view checkAddress(_walletCheeseProducer)  returns (bool){\r\n        \r\n        require(cheeseProducerService.isUserPresent(_walletCheeseProducer),\"Utente non presente!\");\r\n\r\n        return cheeseProducerBuyerStorage.isMilkBatchPresent(_walletCheeseProducer, _id_MilkBatchAcquistato);\r\n    }\r\n\r\n    /*\r\n        - Recupera la Lista di Prodotti Acquistati di un  CheeseProducer \r\n        - Verifica che questo esista \r\n    */\r\n    function getMilkBatchListPurchasedByCheeseProducer(address walletCheeseProducer)external view checkAddress(walletCheeseProducer) returns (CheeseProducerBuyerStorage.MilkBatch[]memory ){\r\n        // Verifica che l'utente sia presente all'interno del sistema e sia solo il CheeseProducer\r\n        require(cheeseProducerService.isUserPresent(walletCheeseProducer),\"User not Authorized!\");\r\n\r\n        return cheeseProducerBuyerStorage.getMilkBatchListPurchasedByCheeseProducer(walletCheeseProducer);\r\n    }\r\n\r\n\r\n\r\n//-------------------------------------------------------------------- Set Function ------------------------------------------------------------------------//\r\n\r\n    /**\r\n    * \r\n    * - Decremento della quantit del MilkBatchAcquistato per la trasformazione in Cheese \r\n    */\r\n    function updateMilkBatchQuantity(address walletCheeseProducer, uint256 _id_MilkBatch, uint256 _quantity) external checkAddress(walletCheeseProducer) {\r\n\r\n        require(cheeseProducerService.isUserPresent(walletCheeseProducer), \"User is not present!\");\r\n\r\n        require(cheeseProducerBuyerStorage.isMilkBatchPresent(walletCheeseProducer, _id_MilkBatch),\"MilkBatch not Present!\");\r\n\r\n        cheeseProducerBuyerStorage.updateMilkBatchQuantity(walletCheeseProducer, _id_MilkBatch, _quantity);\r\n\r\n        emit CheeseProducerMilkBatchEdited(walletCheeseProducer,\"MilkBatch edited!\", _quantity);\r\n    }\r\n\r\n\r\n\r\n\r\n// -------------------------------------------------- Change Address Function Contract Service ---------------------------------------------------//\r\n\r\n\r\n    // TODO: insert modifier onlyOrg(address sender) {}\r\n    function changeCheeseProducerBuyerStorage(address _cheeseProducerBuyerStorage)external {\r\n        require(msg.sender == cheeseProducerOrg,\"Address is not the organization\");\r\n        cheeseProducerBuyerStorage = CheeseProducerBuyerStorage(_cheeseProducerBuyerStorage);\r\n    }\r\n\r\n    // TODO: insert modifier onlyOrg(address sender) {}\r\n    function changeCheeseProducerService(address _cheeseProducerService) external {\r\n        cheeseProducerService = CheeseProducerService(_cheeseProducerService);\r\n    }\r\n\r\n}",
  "sourcePath": "C:\\Users\\umber\\Progetti\\FilieraToken\\Filiera-Token-Smart-Contract\\contracts\\Actor\\CheeseProducer-smart-contract\\inventory\\CheeseProducerBuyerService.sol",
  "compiler": {
    "name": "solc",
    "version": "0.8.24+commit.e11b9ed9.Emscripten.clang"
  },
  "schemaVersion": "3.4.16",
  "updatedAt": "2024-02-29T10:17:44.367Z",
  "devdoc": {
    "kind": "dev",
    "methods": {},
    "version": 1
  },
  "userdoc": {
    "kind": "user",
    "methods": {
      "addMilkBatch(address,address,uint256,string,uint256)": {
        "notice": "Tale funzione viene chiamata dal TransactionManager per inserire il MilkBatch venduto dal MilkHub al CheeseProducer  I controlli vengono fatti tutti all'interno del TransactionManager per la verifica dell'esistenza dei due interessati  - Ammettiamo che i controlli sul prodotto vengono gi fatti a monte  - verifichiamo che il CheeseProducer e il MilkHub esistono  - verifichiamo che il MilkBatch associato al MilkHub esiste  - Aggiungiamo questi dati all'interno del Inventory "
      },
      "isMilkBatchAcquistataPresent(address,uint256)": {
        "notice": "Verifica che il MilkBatch  presente all'interno dell'inventario  - Verifica che l'id non sia nullo e che sia maggiore di 0 e che coincida con l'elemento "
      },
      "updateMilkBatchQuantity(address,uint256,uint256)": {
        "notice": " - Decremento della quantit del MilkBatchAcquistato per la trasformazione in Cheese "
      }
    },
    "version": 1
  }
}