{
  "contractName": "CheeseProducerInventoryStorage",
  "abi": [
    {
      "inputs": [],
      "stateMutability": "nonpayable",
      "type": "constructor"
    },
    {
      "inputs": [
        {
          "internalType": "address",
          "name": "walletCheeseProducer",
          "type": "address"
        },
        {
          "internalType": "uint256",
          "name": "_id_MilkBatchAcquistato",
          "type": "uint256"
        },
        {
          "internalType": "string",
          "name": "_dop",
          "type": "string"
        },
        {
          "internalType": "uint256",
          "name": "_price",
          "type": "uint256"
        },
        {
          "internalType": "uint256",
          "name": "_quantity",
          "type": "uint256"
        }
      ],
      "name": "addCheeseBlock",
      "outputs": [
        {
          "internalType": "uint256",
          "name": "",
          "type": "uint256"
        },
        {
          "internalType": "string",
          "name": "",
          "type": "string"
        },
        {
          "internalType": "uint256",
          "name": "",
          "type": "uint256"
        },
        {
          "internalType": "uint256",
          "name": "",
          "type": "uint256"
        }
      ],
      "stateMutability": "nonpayable",
      "type": "function"
    },
    {
      "inputs": [
        {
          "internalType": "address",
          "name": "walletCheeseProducer",
          "type": "address"
        },
        {
          "internalType": "uint256",
          "name": "_id",
          "type": "uint256"
        }
      ],
      "name": "getCheeseBlock",
      "outputs": [
        {
          "internalType": "uint256",
          "name": "",
          "type": "uint256"
        },
        {
          "internalType": "string",
          "name": "",
          "type": "string"
        },
        {
          "internalType": "uint256",
          "name": "",
          "type": "uint256"
        },
        {
          "internalType": "uint256",
          "name": "",
          "type": "uint256"
        }
      ],
      "stateMutability": "view",
      "type": "function"
    },
    {
      "inputs": [
        {
          "internalType": "address",
          "name": "walletCheeseProducer",
          "type": "address"
        },
        {
          "internalType": "uint256",
          "name": "_id",
          "type": "uint256"
        }
      ],
      "name": "deleteCheeseBlock",
      "outputs": [
        {
          "internalType": "bool",
          "name": "value",
          "type": "bool"
        }
      ],
      "stateMutability": "nonpayable",
      "type": "function"
    },
    {
      "inputs": [
        {
          "internalType": "address",
          "name": "walletCheeseProducer",
          "type": "address"
        },
        {
          "internalType": "uint256",
          "name": "_id_CheeseBlock",
          "type": "uint256"
        }
      ],
      "name": "isCheeseBlockPresent",
      "outputs": [
        {
          "internalType": "bool",
          "name": "",
          "type": "bool"
        }
      ],
      "stateMutability": "view",
      "type": "function"
    },
    {
      "inputs": [
        {
          "internalType": "address",
          "name": "walletCheeseProducer",
          "type": "address"
        },
        {
          "internalType": "uint256",
          "name": "_id",
          "type": "uint256"
        }
      ],
      "name": "getDop",
      "outputs": [
        {
          "internalType": "string",
          "name": "",
          "type": "string"
        }
      ],
      "stateMutability": "view",
      "type": "function"
    },
    {
      "inputs": [
        {
          "internalType": "address",
          "name": "walletCheeseProducer",
          "type": "address"
        },
        {
          "internalType": "uint256",
          "name": "_id",
          "type": "uint256"
        }
      ],
      "name": "getPrice",
      "outputs": [
        {
          "internalType": "uint256",
          "name": "",
          "type": "uint256"
        }
      ],
      "stateMutability": "view",
      "type": "function"
    },
    {
      "inputs": [
        {
          "internalType": "address",
          "name": "walletCheeseProducer",
          "type": "address"
        },
        {
          "internalType": "uint256",
          "name": "_id",
          "type": "uint256"
        }
      ],
      "name": "getQuantity",
      "outputs": [
        {
          "internalType": "uint256",
          "name": "",
          "type": "uint256"
        }
      ],
      "stateMutability": "view",
      "type": "function"
    },
    {
      "inputs": [
        {
          "internalType": "address",
          "name": "walletCheeseProducer",
          "type": "address"
        }
      ],
      "name": "getListCheeseBlockIdByCheeseProducer",
      "outputs": [
        {
          "internalType": "uint256[]",
          "name": "",
          "type": "uint256[]"
        }
      ],
      "stateMutability": "view",
      "type": "function"
    },
    {
      "inputs": [],
      "name": "getListCheeseBlockAll",
      "outputs": [
        {
          "internalType": "uint256[]",
          "name": "",
          "type": "uint256[]"
        }
      ],
      "stateMutability": "view",
      "type": "function"
    },
    {
      "inputs": [
        {
          "internalType": "address",
          "name": "walletCheeseProducer",
          "type": "address"
        },
        {
          "internalType": "uint256",
          "name": "_id_Cheese",
          "type": "uint256"
        },
        {
          "internalType": "uint256",
          "name": "_newQuantity",
          "type": "uint256"
        }
      ],
      "name": "updateCheeseBlockQuantity",
      "outputs": [],
      "stateMutability": "nonpayable",
      "type": "function"
    }
  ],
  "bytecode": "0x608060405234801561001057600080fd5b50336000806101000a81548173ffffffffffffffffffffffffffffffffffffffff021916908373ffffffffffffffffffffffffffffffffffffffff160217905550611935806100606000396000f3fe608060405234801561001057600080fd5b506004361061009e5760003560e01c80636fb82e06116100665780636fb82e061461019657806377e94d9e146101c9578063ddc21c78146101e5578063f437eff114610203578063f93bd021146102335761009e565b80631e073fcf146100a35780632b94ae76146100d3578063449e815d14610103578063459b1e91146101335780634f0205bf14610166575b600080fd5b6100bd60048036038101906100b89190610ea2565b610263565b6040516100ca9190610ef1565b60405180910390f35b6100ed60048036038101906100e89190610f0c565b610381565b6040516100fa9190610ff7565b60405180910390f35b61011d60048036038101906101189190610ea2565b610418565b60405161012a9190610ef1565b60405180910390f35b61014d6004803603810190610148919061115f565b610536565b60405161015d9493929190611275565b60405180910390f35b610180600480360381019061017b9190610ea2565b6106db565b60405161018d91906112dc565b60405180910390f35b6101b060048036038101906101ab9190610ea2565b61078a565b6040516101c09493929190611275565b60405180910390f35b6101e360048036038101906101de91906112f7565b6108c6565b005b6101ed6109b9565b6040516101fa9190610ff7565b60405180910390f35b61021d60048036038101906102189190610ea2565b610a11565b60405161022a91906112dc565b60405180910390f35b61024d60048036038101906102489190610ea2565b610b21565b60405161025a919061134a565b60405180910390f35b600080600160008573ffffffffffffffffffffffffffffffffffffffff1673ffffffffffffffffffffffffffffffffffffffff1681526020019081526020016000206000848152602001908152602001600020604051806080016040529081600082015481526020016001820180546102db9061139b565b80601f01602080910402602001604051908101604052809291908181526020018280546103079061139b565b80156103545780601f1061032957610100808354040283529160200191610354565b820191906000526020600020905b81548152906001019060200180831161033757829003601f168201915b50505050508152602001600282015481526020016003820154815250509050806060015191505092915050565b6060600260008373ffffffffffffffffffffffffffffffffffffffff1673ffffffffffffffffffffffffffffffffffffffff16815260200190815260200160002080548060200260200160405190810160405280929190818152602001828054801561040c57602002820191906000526020600020905b8154815260200190600101908083116103f8575b50505050509050919050565b600080600160008573ffffffffffffffffffffffffffffffffffffffff1673ffffffffffffffffffffffffffffffffffffffff1681526020019081526020016000206000848152602001908152602001600020604051806080016040529081600082015481526020016001820180546104909061139b565b80601f01602080910402602001604051908101604052809291908181526020018280546104bc9061139b565b80156105095780601f106104de57610100808354040283529160200191610509565b820191906000526020600020905b8154815290600101906020018083116104ec57829003601f168201915b50505050508152602001600282015481526020016003820154815250509050806040015191505092915050565b600060606000806000888888888d4260405160200161055a96959493929190611471565b6040516020818303038152906040528051906020012060001c9050600060405180608001604052808381526020018a81526020018981526020018881525090506003829080600181540180825580915050600190039060005260206000200160009091909190915055600260008c73ffffffffffffffffffffffffffffffffffffffff1673ffffffffffffffffffffffffffffffffffffffff16815260200190815260200160002082908060018154018082558091505060019003906000526020600020016000909190919091505580600160008d73ffffffffffffffffffffffffffffffffffffffff1673ffffffffffffffffffffffffffffffffffffffff16815260200190815260200160002060008481526020019081526020016000206000820151816000015560208201518160010190816106999190611689565b50604082015181600201556060820151816003015590505080600001518160200151826040015183606001519550955095509550505095509550955095915050565b60008082141580156106ed5750600082115b61072c576040517f08c379a0000000000000000000000000000000000000000000000000000000008152600401610723906117a7565b60405180910390fd5b81600160008573ffffffffffffffffffffffffffffffffffffffff1673ffffffffffffffffffffffffffffffffffffffff16815260200190815260200160002060008481526020019081526020016000206000015414905092915050565b600060606000806000600160008873ffffffffffffffffffffffffffffffffffffffff1673ffffffffffffffffffffffffffffffffffffffff1681526020019081526020016000206000878152602001908152602001600020604051806080016040529081600082015481526020016001820180546108089061139b565b80601f01602080910402602001604051908101604052809291908181526020018280546108349061139b565b80156108815780601f1061085657610100808354040283529160200191610881565b820191906000526020600020905b81548152906001019060200180831161086457829003601f168201915b50505050508152602001600282015481526020016003820154815250509050806000015181602001518260400151836060015194509450945094505092959194509250565b600160008473ffffffffffffffffffffffffffffffffffffffff1673ffffffffffffffffffffffffffffffffffffffff16815260200190815260200160002060008381526020019081526020016000206003015481111561095c576040517f08c379a000000000000000000000000000000000000000000000000000000000815260040161095390611839565b60405180910390fd5b80600160008573ffffffffffffffffffffffffffffffffffffffff1673ffffffffffffffffffffffffffffffffffffffff168152602001908152602001600020600084815260200190815260200160002060030181905550505050565b60606003805480602002602001604051908101604052809291908181526020018280548015610a0757602002820191906000526020600020905b8154815260200190600101908083116109f3575b5050505050905090565b6000600160008473ffffffffffffffffffffffffffffffffffffffff1673ffffffffffffffffffffffffffffffffffffffff1681526020019081526020016000206000838152602001908152602001600020600080820160009055600182016000610a7c9190610d9d565b6002820160009055600382016000905550506000600160008573ffffffffffffffffffffffffffffffffffffffff1673ffffffffffffffffffffffffffffffffffffffff168152602001908152602001600020600084815260200190815260200160002060000154148015610af65750610af582610c40565b5b8015610b085750610b078284610cb1565b5b15610b165760019050610b1b565b600090505b92915050565b60606000600160008573ffffffffffffffffffffffffffffffffffffffff1673ffffffffffffffffffffffffffffffffffffffff168152602001908152602001600020600084815260200190815260200160002060405180608001604052908160008201548152602001600182018054610b9a9061139b565b80601f0160208091040260200160405190810160405280929190818152602001828054610bc69061139b565b8015610c135780601f10610be857610100808354040283529160200191610c13565b820191906000526020600020905b815481529060010190602001808311610bf657829003601f168201915b50505050508152602001600282015481526020016003820154815250509050806020015191505092915050565b600080600090505b8260038281548110610c5d57610c5c611859565b5b906000526020600020015403610c995760038181548110610c8157610c80611859565b5b90600052602060002001600090556001915050610cac565b8080610ca4906118b7565b915050610c48565b919050565b600080600090505b83600260008573ffffffffffffffffffffffffffffffffffffffff1673ffffffffffffffffffffffffffffffffffffffff1681526020019081526020016000208281548110610d0b57610d0a611859565b5b906000526020600020015403610d8457600260008473ffffffffffffffffffffffffffffffffffffffff1673ffffffffffffffffffffffffffffffffffffffff1681526020019081526020016000208181548110610d6c57610d6b611859565b5b90600052602060002001600090556001915050610d97565b8080610d8f906118b7565b915050610cb9565b92915050565b508054610da99061139b565b6000825580601f10610dbb5750610dda565b601f016020900490600052602060002090810190610dd99190610ddd565b5b50565b5b80821115610df6576000816000905550600101610dde565b5090565b6000604051905090565b600080fd5b600080fd5b600073ffffffffffffffffffffffffffffffffffffffff82169050919050565b6000610e3982610e0e565b9050919050565b610e4981610e2e565b8114610e5457600080fd5b50565b600081359050610e6681610e40565b92915050565b6000819050919050565b610e7f81610e6c565b8114610e8a57600080fd5b50565b600081359050610e9c81610e76565b92915050565b60008060408385031215610eb957610eb8610e04565b5b6000610ec785828601610e57565b9250506020610ed885828601610e8d565b9150509250929050565b610eeb81610e6c565b82525050565b6000602082019050610f066000830184610ee2565b92915050565b600060208284031215610f2257610f21610e04565b5b6000610f3084828501610e57565b91505092915050565b600081519050919050565b600082825260208201905092915050565b6000819050602082019050919050565b610f6e81610e6c565b82525050565b6000610f808383610f65565b60208301905092915050565b6000602082019050919050565b6000610fa482610f39565b610fae8185610f44565b9350610fb983610f55565b8060005b83811015610fea578151610fd18882610f74565b9750610fdc83610f8c565b925050600181019050610fbd565b5085935050505092915050565b600060208201905081810360008301526110118184610f99565b905092915050565b600080fd5b600080fd5b6000601f19601f8301169050919050565b7f4e487b7100000000000000000000000000000000000000000000000000000000600052604160045260246000fd5b61106c82611023565b810181811067ffffffffffffffff8211171561108b5761108a611034565b5b80604052505050565b600061109e610dfa565b90506110aa8282611063565b919050565b600067ffffffffffffffff8211156110ca576110c9611034565b5b6110d382611023565b9050602081019050919050565b82818337600083830152505050565b60006111026110fd846110af565b611094565b90508281526020810184848401111561111e5761111d61101e565b5b6111298482856110e0565b509392505050565b600082601f83011261114657611145611019565b5b81356111568482602086016110ef565b91505092915050565b600080600080600060a0868803121561117b5761117a610e04565b5b600061118988828901610e57565b955050602061119a88828901610e8d565b945050604086013567ffffffffffffffff8111156111bb576111ba610e09565b5b6111c788828901611131565b93505060606111d888828901610e8d565b92505060806111e988828901610e8d565b9150509295509295909350565b600081519050919050565b600082825260208201905092915050565b60005b83811015611230578082015181840152602081019050611215565b60008484015250505050565b6000611247826111f6565b6112518185611201565b9350611261818560208601611212565b61126a81611023565b840191505092915050565b600060808201905061128a6000830187610ee2565b818103602083015261129c818661123c565b90506112ab6040830185610ee2565b6112b86060830184610ee2565b95945050505050565b60008115159050919050565b6112d6816112c1565b82525050565b60006020820190506112f160008301846112cd565b92915050565b6000806000606084860312156113105761130f610e04565b5b600061131e86828701610e57565b935050602061132f86828701610e8d565b925050604061134086828701610e8d565b9150509250925092565b60006020820190508181036000830152611364818461123c565b905092915050565b7f4e487b7100000000000000000000000000000000000000000000000000000000600052602260045260246000fd5b600060028204905060018216806113b357607f821691505b6020821081036113c6576113c561136c565b5b50919050565b6000819050919050565b6113e76113e282610e6c565b6113cc565b82525050565b600081905092915050565b6000611403826111f6565b61140d81856113ed565b935061141d818560208601611212565b80840191505092915050565b60008160601b9050919050565b600061144182611429565b9050919050565b600061145382611436565b9050919050565b61146b61146682610e2e565b611448565b82525050565b600061147d82896113d6565b60208201915061148d82886113f8565b915061149982876113d6565b6020820191506114a982866113d6565b6020820191506114b9828561145a565b6014820191506114c982846113d6565b602082019150819050979650505050505050565b60008190508160005260206000209050919050565b60006020601f8301049050919050565b600082821b905092915050565b60006008830261153f7fffffffffffffffffffffffffffffffffffffffffffffffffffffffffffffffff82611502565b6115498683611502565b95508019841693508086168417925050509392505050565b6000819050919050565b600061158661158161157c84610e6c565b611561565b610e6c565b9050919050565b6000819050919050565b6115a08361156b565b6115b46115ac8261158d565b84845461150f565b825550505050565b600090565b6115c96115bc565b6115d4818484611597565b505050565b5b818110156115f8576115ed6000826115c1565b6001810190506115da565b5050565b601f82111561163d5761160e816114dd565b611617846114f2565b81016020851015611626578190505b61163a611632856114f2565b8301826115d9565b50505b505050565b600082821c905092915050565b600061166060001984600802611642565b1980831691505092915050565b6000611679838361164f565b9150826002028217905092915050565b611692826111f6565b67ffffffffffffffff8111156116ab576116aa611034565b5b6116b5825461139b565b6116c08282856115fc565b600060209050601f8311600181146116f357600084156116e1578287015190505b6116eb858261166d565b865550611753565b601f198416611701866114dd565b60005b8281101561172957848901518255600182019150602085019450602081019050611704565b868310156117465784890151611742601f89168261164f565b8355505b6001600288020188555050505b505050505050565b7f4944204d696c6b4261746368204e6f742056616c696421000000000000000000600082015250565b6000611791601783611201565b915061179c8261175b565b602082019050919050565b600060208201905081810360008301526117c081611784565b9050919050565b7f436f6e74726f6c6c6f2064656c6c61205175616e74697461272064612075746960008201527f6c697a7a617265206e6f6e20616e6461746120612062756f6e2066696e652100602082015250565b6000611823603f83611201565b915061182e826117c7565b604082019050919050565b6000602082019050818103600083015261185281611816565b9050919050565b7f4e487b7100000000000000000000000000000000000000000000000000000000600052603260045260246000fd5b7f4e487b7100000000000000000000000000000000000000000000000000000000600052601160045260246000fd5b60006118c282610e6c565b91507fffffffffffffffffffffffffffffffffffffffffffffffffffffffffffffffff82036118f4576118f3611888565b5b60018201905091905056fea2646970667358221220df4ea9fca1ff8f5a553d12f877d911268f849fdc1be6357e8d84847dded15be164736f6c63430008180033",
  "immutableReferences": {},
  "source": "// SPDX-License-Identifier: MIT\r\npragma solidity ^0.8.0;\r\n\r\ncontract CheeseProducerInventoryStorage {\r\n\r\n    // Address of Organization che gestisce gli utenti\r\n    address private cheeseProducerOrg;\r\n\r\n    constructor() {\r\n        cheeseProducerOrg = msg.sender;\r\n    }\r\n\r\n    struct Cheese {\r\n        uint256 id; // Cheese ID \r\n        string dop;\r\n        uint256 price;\r\n        uint256 quantity;\r\n    }\r\n\r\n    mapping(address => mapping(uint256 => Cheese)) private cheeseBlocks; // map of CheeseBlock \r\n\r\n    mapping( address => uint256[] ) cheeseBlockIdListForSingleCheeseProducer; // List of id of Single User CheeseProducer \r\n\r\n    uint256 [] private cheeseBlockListId; // All CheeseBlock \r\n\r\n// --------------------------------------------------- Business Function --------------------------------------------------------------------------------------//\r\n\r\n\r\n\r\n    function addCheeseBlock(\r\n            address walletCheeseProducer,\r\n            uint256 _id_MilkBatchAcquistato,\r\n            string memory _dop,\r\n            uint256 _price,\r\n            uint256 _quantity\r\n        ) external returns (uint256 , string memory , uint256 , uint256 ){\r\n\r\n        uint256 _id = uint256(keccak256(abi.encodePacked(\r\n            _id_MilkBatchAcquistato,\r\n            _dop,\r\n            _price,\r\n            _quantity,\r\n            walletCheeseProducer,\r\n            block.timestamp\r\n        )));\r\n\r\n\r\n        // Crea un nuovo Blocco di formaggio\r\n        Cheese memory cheeseBlock = Cheese({\r\n            id: _id,\r\n            dop: _dop,\r\n            price: _price,\r\n            quantity: _quantity\r\n        });\r\n\r\n        // Inserisci l'id all'interno della Lista \r\n        cheeseBlockListId.push(_id);\r\n        // Inserisce l'id all'interno della Lista del CheeseProducer \r\n        cheeseBlockIdListForSingleCheeseProducer[walletCheeseProducer].push(_id);\r\n        // Inserisce il nuovo Blocco di formaggio nella lista cheeseBlocks\r\n        cheeseBlocks[walletCheeseProducer][_id] = cheeseBlock;\r\n\r\n        return (cheeseBlock.id,cheeseBlock.dop,cheeseBlock.price,cheeseBlock.quantity);\r\n    }\r\n\r\n    function getCheeseBlock(address walletCheeseProducer, uint256 _id) external view returns (uint256, string memory, uint256, uint256) {\r\n\r\n        Cheese memory cheeseBlock = cheeseBlocks[walletCheeseProducer][_id];\r\n\r\n        return (cheeseBlock.id, cheeseBlock.dop, cheeseBlock.price, cheeseBlock.quantity);\r\n    }\r\n\r\n    // Elimina il CheeseBlock \r\n    function deleteCheeseBlock(address walletCheeseProducer, uint256 _id) external returns(bool value) {\r\n\r\n        delete cheeseBlocks[walletCheeseProducer][_id];\r\n        // Check CheesePiece in the mapping \r\n        if(cheeseBlocks[walletCheeseProducer][_id].id  == 0 && \r\n        deleteCheeseBlockIdFromList(_id) && \r\n        deleteCheeseBlockIdFromListSingleUser(_id, walletCheeseProducer) ){\r\n            return true;\r\n        }else {\r\n            return false;\r\n        }\r\n    }\r\n\r\n\r\n    // Verifica che il CheeseBlock  gi presente \r\n    function isCheeseBlockPresent(address walletCheeseProducer,uint256 _id_CheeseBlock) external view returns(bool){\r\n        \r\n        require( _id_CheeseBlock !=0 && _id_CheeseBlock>0, \"ID MilkBatch Not Valid!\");\r\n\r\n        return cheeseBlocks[walletCheeseProducer][_id_CheeseBlock].id == _id_CheeseBlock;\r\n    }\r\n    \r\n\r\n// --------------------------------------------------- Get Function --------------------------------------------------------------------------------------//\r\n    \r\n    function getDop(address walletCheeseProducer, uint256 _id) external view returns(string memory) {\r\n\r\n        Cheese memory cheeseBlock = cheeseBlocks[walletCheeseProducer][_id];\r\n        return cheeseBlock.dop;\r\n    }\r\n\r\n    function getPrice(address walletCheeseProducer, uint256 _id) external view returns(uint256) {\r\n\r\n        Cheese memory cheeseBlock = cheeseBlocks[walletCheeseProducer][_id];\r\n        return cheeseBlock.price;\r\n    }\r\n\r\n    function getQuantity(address walletCheeseProducer, uint256 _id) external view returns(uint256) {\r\n\r\n        Cheese memory cheeseBlock = cheeseBlocks[walletCheeseProducer][_id];\r\n        return cheeseBlock.quantity;\r\n    }\r\n\r\n\r\n    /*\r\n    * Restituisce la Lista di tutti gli ID dei prodotti di un determinato utente\r\n    */\r\n    function getListCheeseBlockIdByCheeseProducer(address walletCheeseProducer)external view returns (uint256[] memory){\r\n        return cheeseBlockIdListForSingleCheeseProducer[walletCheeseProducer];\r\n    }\r\n    \r\n    // Restituisce tutti i CheeseBlock per i Retailer \r\n    function getListCheeseBlockAll()external view returns(uint256[]memory){\r\n        return cheeseBlockListId;\r\n    }\r\n// --------------------------------------------------- Set Function --------------------------------------------------------------------------------------//\r\n\r\n\r\n    // - Funzione updateCheeseBlockQuantity() aggiorna la quantit del CheeseBlock \r\n    function updateCheeseBlockQuantity(\r\n        address walletCheeseProducer,\r\n        uint256 _id_Cheese,\r\n        uint256 _newQuantity) external  {\r\n        \r\n        // Controllo sulla quantita' \r\n        require(_newQuantity<=cheeseBlocks[walletCheeseProducer][_id_Cheese].quantity,\"Controllo della Quantita' da utilizzare non andata a buon fine!\");\r\n\r\n        cheeseBlocks[walletCheeseProducer][_id_Cheese].quantity = _newQuantity;\r\n    }\r\n\r\n    function deleteCheeseBlockIdFromList(uint256 _id)internal returns (bool) {\r\n        for(uint256 i=0; ; i++){\r\n            if(cheeseBlockListId[i] == _id ){\r\n                delete  cheeseBlockListId[i];\r\n                return true;\r\n            }\r\n        }\r\n        return false;\r\n    }\r\n\r\n    function deleteCheeseBlockIdFromListSingleUser(uint256 _id, address walletCheeseProducer)internal returns (bool) {\r\n        for(uint256 i=0; ; i++){\r\n            if(cheeseBlockIdListForSingleCheeseProducer[walletCheeseProducer][i] == _id){\r\n                delete cheeseBlockIdListForSingleCheeseProducer[walletCheeseProducer][i];\r\n                return true;\r\n            }\r\n        }\r\n        return false;\r\n    }\r\n\r\n}\r\n",
  "sourcePath": "C:\\Users\\umber\\Progetti\\FilieraToken\\Filiera-Token-Smart-Contract\\contracts\\Actor\\CheeseProducer-smart-contract\\inventory\\CheeseProducerInventoryStorage.sol",
  "compiler": {
    "name": "solc",
    "version": "0.8.24+commit.e11b9ed9.Emscripten.clang"
  },
  "schemaVersion": "3.4.16",
  "updatedAt": "2024-02-29T15:58:14.316Z",
  "devdoc": {
    "kind": "dev",
    "methods": {},
    "version": 1
  },
  "userdoc": {
    "kind": "user",
    "methods": {},
    "version": 1
  }
}