{
  "contractName": "CheeseProducerService",
  "abi": [
    {
      "inputs": [
        {
          "internalType": "address",
          "name": "_cheeseProducerStorage",
          "type": "address"
        },
        {
          "internalType": "address",
          "name": "_filieraToken",
          "type": "address"
        }
      ],
      "stateMutability": "nonpayable",
      "type": "constructor"
    },
    {
      "anonymous": false,
      "inputs": [
        {
          "indexed": true,
          "internalType": "address",
          "name": "walletCheeseProducer",
          "type": "address"
        },
        {
          "indexed": false,
          "internalType": "string",
          "name": "message",
          "type": "string"
        }
      ],
      "name": "CheeseProducerDeleted",
      "type": "event"
    },
    {
      "anonymous": false,
      "inputs": [
        {
          "indexed": true,
          "internalType": "address",
          "name": "walletCheeseProducer",
          "type": "address"
        },
        {
          "indexed": false,
          "internalType": "string",
          "name": "fullName",
          "type": "string"
        },
        {
          "indexed": false,
          "internalType": "string",
          "name": "message",
          "type": "string"
        }
      ],
      "name": "CheeseProducerRegistered",
      "type": "event"
    },
    {
      "inputs": [
        {
          "internalType": "string",
          "name": "fullName",
          "type": "string"
        },
        {
          "internalType": "string",
          "name": "password",
          "type": "string"
        },
        {
          "internalType": "string",
          "name": "email",
          "type": "string"
        },
        {
          "internalType": "address",
          "name": "walletCheeseProducer",
          "type": "address"
        }
      ],
      "name": "registerCheeseProducer",
      "outputs": [],
      "stateMutability": "nonpayable",
      "type": "function"
    },
    {
      "inputs": [
        {
          "internalType": "address",
          "name": "walletCheeseProducer",
          "type": "address"
        },
        {
          "internalType": "string",
          "name": "email",
          "type": "string"
        },
        {
          "internalType": "string",
          "name": "password",
          "type": "string"
        }
      ],
      "name": "login",
      "outputs": [
        {
          "internalType": "bool",
          "name": "",
          "type": "bool"
        }
      ],
      "stateMutability": "view",
      "type": "function"
    },
    {
      "inputs": [
        {
          "internalType": "address",
          "name": "walletCheeseProducer",
          "type": "address"
        },
        {
          "internalType": "uint256",
          "name": "id",
          "type": "uint256"
        }
      ],
      "name": "deleteCheeseProducer",
      "outputs": [],
      "stateMutability": "nonpayable",
      "type": "function"
    },
    {
      "inputs": [
        {
          "internalType": "address",
          "name": "walletCheeseProducer",
          "type": "address"
        }
      ],
      "name": "isUserPresent",
      "outputs": [
        {
          "internalType": "bool",
          "name": "",
          "type": "bool"
        }
      ],
      "stateMutability": "view",
      "type": "function"
    },
    {
      "inputs": [
        {
          "internalType": "address",
          "name": "walletCheeseProducer",
          "type": "address"
        }
      ],
      "name": "getCheeseProducerId",
      "outputs": [
        {
          "internalType": "uint256",
          "name": "",
          "type": "uint256"
        }
      ],
      "stateMutability": "view",
      "type": "function"
    },
    {
      "inputs": [
        {
          "internalType": "address",
          "name": "walletCheeseProducer",
          "type": "address"
        },
        {
          "internalType": "uint256",
          "name": "id",
          "type": "uint256"
        }
      ],
      "name": "getCheeseProducerFullName",
      "outputs": [
        {
          "internalType": "string",
          "name": "",
          "type": "string"
        }
      ],
      "stateMutability": "view",
      "type": "function"
    },
    {
      "inputs": [
        {
          "internalType": "address",
          "name": "walletCheeseProducer",
          "type": "address"
        },
        {
          "internalType": "uint256",
          "name": "id",
          "type": "uint256"
        }
      ],
      "name": "getCheeseProducerEmail",
      "outputs": [
        {
          "internalType": "string",
          "name": "",
          "type": "string"
        }
      ],
      "stateMutability": "view",
      "type": "function"
    },
    {
      "inputs": [
        {
          "internalType": "address",
          "name": "walletCheeseProducer",
          "type": "address"
        },
        {
          "internalType": "uint256",
          "name": "id",
          "type": "uint256"
        }
      ],
      "name": "getCheeseProducerBalance",
      "outputs": [
        {
          "internalType": "uint256",
          "name": "",
          "type": "uint256"
        }
      ],
      "stateMutability": "view",
      "type": "function"
    },
    {
      "inputs": [
        {
          "internalType": "address",
          "name": "walletCheeseProducer",
          "type": "address"
        },
        {
          "internalType": "uint256",
          "name": "id",
          "type": "uint256"
        }
      ],
      "name": "getCheeseProducerData",
      "outputs": [
        {
          "internalType": "uint256",
          "name": "",
          "type": "uint256"
        },
        {
          "internalType": "string",
          "name": "",
          "type": "string"
        },
        {
          "internalType": "string",
          "name": "",
          "type": "string"
        },
        {
          "internalType": "string",
          "name": "",
          "type": "string"
        },
        {
          "internalType": "uint256",
          "name": "",
          "type": "uint256"
        }
      ],
      "stateMutability": "view",
      "type": "function"
    },
    {
      "inputs": [],
      "name": "getListAddressCheeseProducer",
      "outputs": [
        {
          "internalType": "address[]",
          "name": "",
          "type": "address[]"
        }
      ],
      "stateMutability": "view",
      "type": "function"
    },
    {
      "inputs": [
        {
          "internalType": "address",
          "name": "walletCheeseProducer",
          "type": "address"
        },
        {
          "internalType": "uint256",
          "name": "balance",
          "type": "uint256"
        }
      ],
      "name": "updateCheeseProducerBalance",
      "outputs": [],
      "stateMutability": "nonpayable",
      "type": "function"
    }
  ],
  "bytecode": "0x60806040523480156200001157600080fd5b50604051620037b0380380620037b083398181016040528101906200003791906200016b565b816000806101000a81548173ffffffffffffffffffffffffffffffffffffffff021916908373ffffffffffffffffffffffffffffffffffffffff16021790555080600160006101000a81548173ffffffffffffffffffffffffffffffffffffffff021916908373ffffffffffffffffffffffffffffffffffffffff16021790555033600260006101000a81548173ffffffffffffffffffffffffffffffffffffffff021916908373ffffffffffffffffffffffffffffffffffffffff1602179055505050620001b2565b600080fd5b600073ffffffffffffffffffffffffffffffffffffffff82169050919050565b6000620001338262000106565b9050919050565b620001458162000126565b81146200015157600080fd5b50565b60008151905062000165816200013a565b92915050565b6000806040838503121562000185576200018462000101565b5b6000620001958582860162000154565b9250506020620001a88582860162000154565b9150509250929050565b6135ee80620001c26000396000f3fe608060405234801561001057600080fd5b50600436106100a95760003560e01c80637932993711610071578063793299371461017a5780637ceb9806146101aa5780637ed16365146101da578063a55788071461020a578063d0c9ba9b1461023a578063f5d5359f14610258576100a9565b80630de0d0d7146100ae5780631c78787b146100ca57806325c23a64146100fa57806329aa17701461012a57806363301f6b14610146575b600080fd5b6100c860048036038101906100c391906126da565b610274565b005b6100e460048036038101906100df91906127cb565b610712565b6040516100f1919061288a565b60405180910390f35b610114600480360381019061010f91906128ac565b6109dc565b60405161012191906128e8565b60405180910390f35b610144600480360381019061013f91906127cb565b610c9e565b005b610160600480360381019061015b91906127cb565b6112b8565b604051610171959493929190612903565b60405180910390f35b610194600480360381019061018f919061296b565b611727565b6040516101a19190612a11565b60405180910390f35b6101c460048036038101906101bf91906127cb565b611aa8565b6040516101d1919061288a565b60405180910390f35b6101f460048036038101906101ef91906127cb565b611d72565b60405161020191906128e8565b60405180910390f35b610224600480360381019061021f91906128ac565b612037565b6040516102319190612a11565b60405180910390f35b6102426120db565b60405161024f9190612aea565b60405180910390f35b610272600480360381019061026d91906127cb565b612176565b005b80600073ffffffffffffffffffffffffffffffffffffffff168173ffffffffffffffffffffffffffffffffffffffff16036102e4576040517f08c379a00000000000000000000000000000000000000000000000000000000081526004016102db90612b58565b60405180910390fd5b60008054906101000a900473ffffffffffffffffffffffffffffffffffffffff1673ffffffffffffffffffffffffffffffffffffffff168173ffffffffffffffffffffffffffffffffffffffff1603610372576040517f08c379a000000000000000000000000000000000000000000000000000000000815260040161036990612bea565b60405180910390fd5b600160009054906101000a900473ffffffffffffffffffffffffffffffffffffffff1673ffffffffffffffffffffffffffffffffffffffff168173ffffffffffffffffffffffffffffffffffffffff1603610402576040517f08c379a00000000000000000000000000000000000000000000000000000000081526004016103f990612c7c565b60405180910390fd5b600260009054906101000a900473ffffffffffffffffffffffffffffffffffffffff1673ffffffffffffffffffffffffffffffffffffffff168173ffffffffffffffffffffffffffffffffffffffff1603610492576040517f08c379a000000000000000000000000000000000000000000000000000000000815260040161048990612ce8565b60405180910390fd5b3073ffffffffffffffffffffffffffffffffffffffff1663a5578807836040518263ffffffff1660e01b81526004016104cb9190612d17565b602060405180830381865afa1580156104e8573d6000803e3d6000fd5b505050506040513d601f19601f8201168201806040525081019061050c9190612d5e565b1561054c576040517f08c379a000000000000000000000000000000000000000000000000000000000815260040161054390612dd7565b60405180910390fd5b60008054906101000a900473ffffffffffffffffffffffffffffffffffffffff1673ffffffffffffffffffffffffffffffffffffffff1663b48ff0f1868686866040518563ffffffff1660e01b81526004016105ab9493929190612df7565b600060405180830381600087803b1580156105c557600080fd5b505af11580156105d9573d6000803e3d6000fd5b50505050600160009054906101000a900473ffffffffffffffffffffffffffffffffffffffff1673ffffffffffffffffffffffffffffffffffffffff1663a2a7e6228360646040518363ffffffff1660e01b815260040161063b929190612e96565b6020604051808303816000875af115801561065a573d6000803e3d6000fd5b505050506040513d601f19601f8201168201806040525081019061067e9190612d5e565b6106bd576040517f08c379a00000000000000000000000000000000000000000000000000000000081526004016106b490612f0b565b60405180910390fd5b8173ffffffffffffffffffffffffffffffffffffffff167fb48cab1d9c4f013c511855d3f000f9ed54ebc309cdddaf4e8ded87873f7b2a50866040516107039190612f9d565b60405180910390a25050505050565b606082600073ffffffffffffffffffffffffffffffffffffffff168173ffffffffffffffffffffffffffffffffffffffff1603610784576040517f08c379a000000000000000000000000000000000000000000000000000000000815260040161077b90612b58565b60405180910390fd5b60008054906101000a900473ffffffffffffffffffffffffffffffffffffffff1673ffffffffffffffffffffffffffffffffffffffff168173ffffffffffffffffffffffffffffffffffffffff1603610812576040517f08c379a000000000000000000000000000000000000000000000000000000000815260040161080990612bea565b60405180910390fd5b600160009054906101000a900473ffffffffffffffffffffffffffffffffffffffff1673ffffffffffffffffffffffffffffffffffffffff168173ffffffffffffffffffffffffffffffffffffffff16036108a2576040517f08c379a000000000000000000000000000000000000000000000000000000000815260040161089990612c7c565b60405180910390fd5b600260009054906101000a900473ffffffffffffffffffffffffffffffffffffffff1673ffffffffffffffffffffffffffffffffffffffff168173ffffffffffffffffffffffffffffffffffffffff1603610932576040517f08c379a000000000000000000000000000000000000000000000000000000000815260040161092990612ce8565b60405180910390fd5b60008054906101000a900473ffffffffffffffffffffffffffffffffffffffff1673ffffffffffffffffffffffffffffffffffffffff16636e44cd4285856040518363ffffffff1660e01b815260040161098d929190612fd2565b600060405180830381865afa1580156109aa573d6000803e3d6000fd5b505050506040513d6000823e3d601f19601f820116820180604052508101906109d3919061306b565b91505092915050565b600081600073ffffffffffffffffffffffffffffffffffffffff168173ffffffffffffffffffffffffffffffffffffffff1603610a4e576040517f08c379a0000000000000000000000000000000000000000000000000000000008152600401610a4590612b58565b60405180910390fd5b60008054906101000a900473ffffffffffffffffffffffffffffffffffffffff1673ffffffffffffffffffffffffffffffffffffffff168173ffffffffffffffffffffffffffffffffffffffff1603610adc576040517f08c379a0000000000000000000000000000000000000000000000000000000008152600401610ad390612bea565b60405180910390fd5b600160009054906101000a900473ffffffffffffffffffffffffffffffffffffffff1673ffffffffffffffffffffffffffffffffffffffff168173ffffffffffffffffffffffffffffffffffffffff1603610b6c576040517f08c379a0000000000000000000000000000000000000000000000000000000008152600401610b6390612c7c565b60405180910390fd5b600260009054906101000a900473ffffffffffffffffffffffffffffffffffffffff1673ffffffffffffffffffffffffffffffffffffffff168173ffffffffffffffffffffffffffffffffffffffff1603610bfc576040517f08c379a0000000000000000000000000000000000000000000000000000000008152600401610bf390612ce8565b60405180910390fd5b60008054906101000a900473ffffffffffffffffffffffffffffffffffffffff1673ffffffffffffffffffffffffffffffffffffffff166365f68c89846040518263ffffffff1660e01b8152600401610c559190612d17565b602060405180830381865afa158015610c72573d6000803e3d6000fd5b505050506040513d601f19601f82011682018060405250810190610c9691906130c9565b915050919050565b81600073ffffffffffffffffffffffffffffffffffffffff168173ffffffffffffffffffffffffffffffffffffffff1603610d0e576040517f08c379a0000000000000000000000000000000000000000000000000000000008152600401610d0590612b58565b60405180910390fd5b60008054906101000a900473ffffffffffffffffffffffffffffffffffffffff1673ffffffffffffffffffffffffffffffffffffffff168173ffffffffffffffffffffffffffffffffffffffff1603610d9c576040517f08c379a0000000000000000000000000000000000000000000000000000000008152600401610d9390612bea565b60405180910390fd5b600160009054906101000a900473ffffffffffffffffffffffffffffffffffffffff1673ffffffffffffffffffffffffffffffffffffffff168173ffffffffffffffffffffffffffffffffffffffff1603610e2c576040517f08c379a0000000000000000000000000000000000000000000000000000000008152600401610e2390612c7c565b60405180910390fd5b600260009054906101000a900473ffffffffffffffffffffffffffffffffffffffff1673ffffffffffffffffffffffffffffffffffffffff168173ffffffffffffffffffffffffffffffffffffffff1603610ebc576040517f08c379a0000000000000000000000000000000000000000000000000000000008152600401610eb390612ce8565b60405180910390fd5b3073ffffffffffffffffffffffffffffffffffffffff1663a5578807846040518263ffffffff1660e01b8152600401610ef59190612d17565b602060405180830381865afa158015610f12573d6000803e3d6000fd5b505050506040513d601f19601f82011682018060405250810190610f369190612d5e565b610f75576040517f08c379a0000000000000000000000000000000000000000000000000000000008152600401610f6c90613142565b60405180910390fd5b8160008054906101000a900473ffffffffffffffffffffffffffffffffffffffff1673ffffffffffffffffffffffffffffffffffffffff166365f68c89856040518263ffffffff1660e01b8152600401610fcf9190612d17565b602060405180830381865afa158015610fec573d6000803e3d6000fd5b505050506040513d601f19601f8201168201806040525081019061101091906130c9565b14611050576040517f08c379a0000000000000000000000000000000000000000000000000000000008152600401611047906131ae565b60405180910390fd5b60008054906101000a900473ffffffffffffffffffffffffffffffffffffffff1673ffffffffffffffffffffffffffffffffffffffff16635c60f226846040518263ffffffff1660e01b81526004016110a99190612d17565b6020604051808303816000875af11580156110c8573d6000803e3d6000fd5b505050506040513d601f19601f820116820180604052508101906110ec9190612d5e565b61112b576040517f08c379a00000000000000000000000000000000000000000000000000000000081526004016111229061321a565b60405180910390fd5b600160009054906101000a900473ffffffffffffffffffffffffffffffffffffffff1673ffffffffffffffffffffffffffffffffffffffff1663d1df306c84600160009054906101000a900473ffffffffffffffffffffffffffffffffffffffff1673ffffffffffffffffffffffffffffffffffffffff166370a08231876040518263ffffffff1660e01b81526004016111c59190612d17565b602060405180830381865afa1580156111e2573d6000803e3d6000fd5b505050506040513d601f19601f8201168201806040525081019061120691906130c9565b6040518363ffffffff1660e01b8152600401611223929190612fd2565b6020604051808303816000875af1158015611242573d6000803e3d6000fd5b505050506040513d601f19601f820116820180604052508101906112669190612d5e565b508273ffffffffffffffffffffffffffffffffffffffff167f64fd228b09d01b8fdaff98d82309e3a1606f87847d0773bb917119328daa50e16040516112ab90613286565b60405180910390a2505050565b60006060806060600086600073ffffffffffffffffffffffffffffffffffffffff168173ffffffffffffffffffffffffffffffffffffffff1603611331576040517f08c379a000000000000000000000000000000000000000000000000000000000815260040161132890612b58565b60405180910390fd5b60008054906101000a900473ffffffffffffffffffffffffffffffffffffffff1673ffffffffffffffffffffffffffffffffffffffff168173ffffffffffffffffffffffffffffffffffffffff16036113bf576040517f08c379a00000000000000000000000000000000000000000000000000000000081526004016113b690612bea565b60405180910390fd5b600160009054906101000a900473ffffffffffffffffffffffffffffffffffffffff1673ffffffffffffffffffffffffffffffffffffffff168173ffffffffffffffffffffffffffffffffffffffff160361144f576040517f08c379a000000000000000000000000000000000000000000000000000000000815260040161144690612c7c565b60405180910390fd5b600260009054906101000a900473ffffffffffffffffffffffffffffffffffffffff1673ffffffffffffffffffffffffffffffffffffffff168173ffffffffffffffffffffffffffffffffffffffff16036114df576040517f08c379a00000000000000000000000000000000000000000000000000000000081526004016114d690612ce8565b60405180910390fd5b3073ffffffffffffffffffffffffffffffffffffffff1663a5578807896040518263ffffffff1660e01b81526004016115189190612d17565b602060405180830381865afa158015611535573d6000803e3d6000fd5b505050506040513d601f19601f820116820180604052508101906115599190612d5e565b611598576040517f08c379a000000000000000000000000000000000000000000000000000000000815260040161158f90613142565b60405180910390fd5b8660008054906101000a900473ffffffffffffffffffffffffffffffffffffffff1673ffffffffffffffffffffffffffffffffffffffff166365f68c898a6040518263ffffffff1660e01b81526004016115f29190612d17565b602060405180830381865afa15801561160f573d6000803e3d6000fd5b505050506040513d601f19601f8201168201806040525081019061163391906130c9565b14611673576040517f08c379a000000000000000000000000000000000000000000000000000000000815260040161166a906131ae565b60405180910390fd5b60008054906101000a900473ffffffffffffffffffffffffffffffffffffffff1673ffffffffffffffffffffffffffffffffffffffff16636f77926b896040518263ffffffff1660e01b81526004016116cc9190612d17565b600060405180830381865afa1580156116e9573d6000803e3d6000fd5b505050506040513d6000823e3d601f19601f8201168201806040525081019061171291906132a6565b95509550955095509550509295509295909350565b600083600073ffffffffffffffffffffffffffffffffffffffff168173ffffffffffffffffffffffffffffffffffffffff1603611799576040517f08c379a000000000000000000000000000000000000000000000000000000000815260040161179090612b58565b60405180910390fd5b60008054906101000a900473ffffffffffffffffffffffffffffffffffffffff1673ffffffffffffffffffffffffffffffffffffffff168173ffffffffffffffffffffffffffffffffffffffff1603611827576040517f08c379a000000000000000000000000000000000000000000000000000000000815260040161181e90612bea565b60405180910390fd5b600160009054906101000a900473ffffffffffffffffffffffffffffffffffffffff1673ffffffffffffffffffffffffffffffffffffffff168173ffffffffffffffffffffffffffffffffffffffff16036118b7576040517f08c379a00000000000000000000000000000000000000000000000000000000081526004016118ae90612c7c565b60405180910390fd5b600260009054906101000a900473ffffffffffffffffffffffffffffffffffffffff1673ffffffffffffffffffffffffffffffffffffffff168173ffffffffffffffffffffffffffffffffffffffff1603611947576040517f08c379a000000000000000000000000000000000000000000000000000000000815260040161193e90612ce8565b60405180910390fd5b3073ffffffffffffffffffffffffffffffffffffffff1663a5578807866040518263ffffffff1660e01b81526004016119809190612d17565b602060405180830381865afa15801561199d573d6000803e3d6000fd5b505050506040513d601f19601f820116820180604052508101906119c19190612d5e565b611a00576040517f08c379a00000000000000000000000000000000000000000000000000000000081526004016119f790613142565b60405180910390fd5b60008054906101000a900473ffffffffffffffffffffffffffffffffffffffff1673ffffffffffffffffffffffffffffffffffffffff166306f22b048686866040518463ffffffff1660e01b8152600401611a5d93929190613375565b602060405180830381865afa158015611a7a573d6000803e3d6000fd5b505050506040513d601f19601f82011682018060405250810190611a9e9190612d5e565b9150509392505050565b606082600073ffffffffffffffffffffffffffffffffffffffff168173ffffffffffffffffffffffffffffffffffffffff1603611b1a576040517f08c379a0000000000000000000000000000000000000000000000000000000008152600401611b1190612b58565b60405180910390fd5b60008054906101000a900473ffffffffffffffffffffffffffffffffffffffff1673ffffffffffffffffffffffffffffffffffffffff168173ffffffffffffffffffffffffffffffffffffffff1603611ba8576040517f08c379a0000000000000000000000000000000000000000000000000000000008152600401611b9f90612bea565b60405180910390fd5b600160009054906101000a900473ffffffffffffffffffffffffffffffffffffffff1673ffffffffffffffffffffffffffffffffffffffff168173ffffffffffffffffffffffffffffffffffffffff1603611c38576040517f08c379a0000000000000000000000000000000000000000000000000000000008152600401611c2f90612c7c565b60405180910390fd5b600260009054906101000a900473ffffffffffffffffffffffffffffffffffffffff1673ffffffffffffffffffffffffffffffffffffffff168173ffffffffffffffffffffffffffffffffffffffff1603611cc8576040517f08c379a0000000000000000000000000000000000000000000000000000000008152600401611cbf90612ce8565b60405180910390fd5b60008054906101000a900473ffffffffffffffffffffffffffffffffffffffff1673ffffffffffffffffffffffffffffffffffffffff1663ecca407385856040518363ffffffff1660e01b8152600401611d23929190612fd2565b600060405180830381865afa158015611d40573d6000803e3d6000fd5b505050506040513d6000823e3d601f19601f82011682018060405250810190611d69919061306b565b91505092915050565b600082600073ffffffffffffffffffffffffffffffffffffffff168173ffffffffffffffffffffffffffffffffffffffff1603611de4576040517f08c379a0000000000000000000000000000000000000000000000000000000008152600401611ddb90612b58565b60405180910390fd5b60008054906101000a900473ffffffffffffffffffffffffffffffffffffffff1673ffffffffffffffffffffffffffffffffffffffff168173ffffffffffffffffffffffffffffffffffffffff1603611e72576040517f08c379a0000000000000000000000000000000000000000000000000000000008152600401611e6990612bea565b60405180910390fd5b600160009054906101000a900473ffffffffffffffffffffffffffffffffffffffff1673ffffffffffffffffffffffffffffffffffffffff168173ffffffffffffffffffffffffffffffffffffffff1603611f02576040517f08c379a0000000000000000000000000000000000000000000000000000000008152600401611ef990612c7c565b60405180910390fd5b600260009054906101000a900473ffffffffffffffffffffffffffffffffffffffff1673ffffffffffffffffffffffffffffffffffffffff168173ffffffffffffffffffffffffffffffffffffffff1603611f92576040517f08c379a0000000000000000000000000000000000000000000000000000000008152600401611f8990612ce8565b60405180910390fd5b60008054906101000a900473ffffffffffffffffffffffffffffffffffffffff1673ffffffffffffffffffffffffffffffffffffffff16632b04e84085856040518363ffffffff1660e01b8152600401611fed929190612fd2565b602060405180830381865afa15801561200a573d6000803e3d6000fd5b505050506040513d601f19601f8201168201806040525081019061202e91906130c9565b91505092915050565b60008060009054906101000a900473ffffffffffffffffffffffffffffffffffffffff1673ffffffffffffffffffffffffffffffffffffffff1663a5578807836040518263ffffffff1660e01b81526004016120939190612d17565b602060405180830381865afa1580156120b0573d6000803e3d6000fd5b505050506040513d601f19601f820116820180604052508101906120d49190612d5e565b9050919050565b606060008054906101000a900473ffffffffffffffffffffffffffffffffffffffff1673ffffffffffffffffffffffffffffffffffffffff1663d0c9ba9b6040518163ffffffff1660e01b8152600401600060405180830381865afa158015612148573d6000803e3d6000fd5b505050506040513d6000823e3d601f19601f820116820180604052508101906121719190613497565b905090565b81600073ffffffffffffffffffffffffffffffffffffffff168173ffffffffffffffffffffffffffffffffffffffff16036121e6576040517f08c379a00000000000000000000000000000000000000000000000000000000081526004016121dd90612b58565b60405180910390fd5b60008054906101000a900473ffffffffffffffffffffffffffffffffffffffff1673ffffffffffffffffffffffffffffffffffffffff168173ffffffffffffffffffffffffffffffffffffffff1603612274576040517f08c379a000000000000000000000000000000000000000000000000000000000815260040161226b90612bea565b60405180910390fd5b600160009054906101000a900473ffffffffffffffffffffffffffffffffffffffff1673ffffffffffffffffffffffffffffffffffffffff168173ffffffffffffffffffffffffffffffffffffffff1603612304576040517f08c379a00000000000000000000000000000000000000000000000000000000081526004016122fb90612c7c565b60405180910390fd5b600260009054906101000a900473ffffffffffffffffffffffffffffffffffffffff1673ffffffffffffffffffffffffffffffffffffffff168173ffffffffffffffffffffffffffffffffffffffff1603612394576040517f08c379a000000000000000000000000000000000000000000000000000000000815260040161238b90612ce8565b60405180910390fd5b600082116123d7576040517f08c379a00000000000000000000000000000000000000000000000000000000081526004016123ce9061352c565b60405180910390fd5b3073ffffffffffffffffffffffffffffffffffffffff1663a5578807846040518263ffffffff1660e01b81526004016124109190612d17565b602060405180830381865afa15801561242d573d6000803e3d6000fd5b505050506040513d601f19601f820116820180604052508101906124519190612d5e565b612490576040517f08c379a000000000000000000000000000000000000000000000000000000000815260040161248790613598565b60405180910390fd5b60008054906101000a900473ffffffffffffffffffffffffffffffffffffffff1673ffffffffffffffffffffffffffffffffffffffff1663e0b1cccb84846040518363ffffffff1660e01b81526004016124eb929190612fd2565b600060405180830381600087803b15801561250557600080fd5b505af1158015612519573d6000803e3d6000fd5b50505050505050565b6000604051905090565b600080fd5b600080fd5b600080fd5b600080fd5b6000601f19601f8301169050919050565b7f4e487b7100000000000000000000000000000000000000000000000000000000600052604160045260246000fd5b61258982612540565b810181811067ffffffffffffffff821117156125a8576125a7612551565b5b80604052505050565b60006125bb612522565b90506125c78282612580565b919050565b600067ffffffffffffffff8211156125e7576125e6612551565b5b6125f082612540565b9050602081019050919050565b82818337600083830152505050565b600061261f61261a846125cc565b6125b1565b90508281526020810184848401111561263b5761263a61253b565b5b6126468482856125fd565b509392505050565b600082601f83011261266357612662612536565b5b813561267384826020860161260c565b91505092915050565b600073ffffffffffffffffffffffffffffffffffffffff82169050919050565b60006126a78261267c565b9050919050565b6126b78161269c565b81146126c257600080fd5b50565b6000813590506126d4816126ae565b92915050565b600080600080608085870312156126f4576126f361252c565b5b600085013567ffffffffffffffff81111561271257612711612531565b5b61271e8782880161264e565b945050602085013567ffffffffffffffff81111561273f5761273e612531565b5b61274b8782880161264e565b935050604085013567ffffffffffffffff81111561276c5761276b612531565b5b6127788782880161264e565b9250506060612789878288016126c5565b91505092959194509250565b6000819050919050565b6127a881612795565b81146127b357600080fd5b50565b6000813590506127c58161279f565b92915050565b600080604083850312156127e2576127e161252c565b5b60006127f0858286016126c5565b9250506020612801858286016127b6565b9150509250929050565b600081519050919050565b600082825260208201905092915050565b60005b8381101561284557808201518184015260208101905061282a565b60008484015250505050565b600061285c8261280b565b6128668185612816565b9350612876818560208601612827565b61287f81612540565b840191505092915050565b600060208201905081810360008301526128a48184612851565b905092915050565b6000602082840312156128c2576128c161252c565b5b60006128d0848285016126c5565b91505092915050565b6128e281612795565b82525050565b60006020820190506128fd60008301846128d9565b92915050565b600060a08201905061291860008301886128d9565b818103602083015261292a8187612851565b9050818103604083015261293e8186612851565b905081810360608301526129528185612851565b905061296160808301846128d9565b9695505050505050565b6000806000606084860312156129845761298361252c565b5b6000612992868287016126c5565b935050602084013567ffffffffffffffff8111156129b3576129b2612531565b5b6129bf8682870161264e565b925050604084013567ffffffffffffffff8111156129e0576129df612531565b5b6129ec8682870161264e565b9150509250925092565b60008115159050919050565b612a0b816129f6565b82525050565b6000602082019050612a266000830184612a02565b92915050565b600081519050919050565b600082825260208201905092915050565b6000819050602082019050919050565b612a618161269c565b82525050565b6000612a738383612a58565b60208301905092915050565b6000602082019050919050565b6000612a9782612a2c565b612aa18185612a37565b9350612aac83612a48565b8060005b83811015612add578151612ac48882612a67565b9750612acf83612a7f565b925050600181019050612ab0565b5085935050505092915050565b60006020820190508181036000830152612b048184612a8c565b905092915050565b7f41646472657373206973207a65726f0000000000000000000000000000000000600082015250565b6000612b42600f83612816565b9150612b4d82612b0c565b602082019050919050565b60006020820190508181036000830152612b7181612b35565b9050919050565b7f416464726573732069732043686565736550726f647563657253746f7261676560008201527f20536d61727420436f6e74726163742100000000000000000000000000000000602082015250565b6000612bd4603083612816565b9150612bdf82612b78565b604082019050919050565b60006020820190508181036000830152612c0381612bc7565b9050919050565b7f416464726573732069732046696c69657261546f6b656e20536d61727420436f60008201527f6e74726163742100000000000000000000000000000000000000000000000000602082015250565b6000612c66602783612816565b9150612c7182612c0a565b604082019050919050565b60006020820190508181036000830152612c9581612c59565b9050919050565b7f4f7267616e697a6174696f6e2061646472657373000000000000000000000000600082015250565b6000612cd2601483612816565b9150612cdd82612c9c565b602082019050919050565b60006020820190508181036000830152612d0181612cc5565b9050919050565b612d118161269c565b82525050565b6000602082019050612d2c6000830184612d08565b92915050565b612d3b816129f6565b8114612d4657600080fd5b50565b600081519050612d5881612d32565b92915050565b600060208284031215612d7457612d7361252c565b5b6000612d8284828501612d49565b91505092915050565b7f5574656e74652067696127207265676973747261746f20210000000000000000600082015250565b6000612dc1601883612816565b9150612dcc82612d8b565b602082019050919050565b60006020820190508181036000830152612df081612db4565b9050919050565b60006080820190508181036000830152612e118187612851565b90508181036020830152612e258186612851565b90508181036040830152612e398185612851565b9050612e486060830184612d08565b95945050505050565b6000819050919050565b6000819050919050565b6000612e80612e7b612e7684612e51565b612e5b565b612795565b9050919050565b612e9081612e65565b82525050565b6000604082019050612eab6000830185612d08565b612eb86020830184612e87565b9392505050565b7f5472616e7366657220546f6b656e206e6f742056616c69642100000000000000600082015250565b6000612ef5601983612816565b9150612f0082612ebf565b602082019050919050565b60006020820190508181036000830152612f2481612ee8565b9050919050565b7f5574656e74652043686565736550726f647563657220652720737461746f207260008201527f65676973747261746f2100000000000000000000000000000000000000000000602082015250565b6000612f87602a83612816565b9150612f9282612f2b565b604082019050919050565b60006040820190508181036000830152612fb78184612851565b90508181036020830152612fca81612f7a565b905092915050565b6000604082019050612fe76000830185612d08565b612ff460208301846128d9565b9392505050565b600061300e613009846125cc565b6125b1565b90508281526020810184848401111561302a5761302961253b565b5b613035848285612827565b509392505050565b600082601f83011261305257613051612536565b5b8151613062848260208601612ffb565b91505092915050565b6000602082840312156130815761308061252c565b5b600082015167ffffffffffffffff81111561309f5761309e612531565b5b6130ab8482850161303d565b91505092915050565b6000815190506130c38161279f565b92915050565b6000602082840312156130df576130de61252c565b5b60006130ed848285016130b4565b91505092915050565b7f5574656e7465206e6f6e2065272070726573656e746521000000000000000000600082015250565b600061312c601783612816565b9150613137826130f6565b602082019050919050565b6000602082019050818103600083015261315b8161311f565b9050919050565b7f5574656e7465206e6f6e204175746f72697a7a61746f21000000000000000000600082015250565b6000613198601783612816565b91506131a382613162565b602082019050919050565b600060208201905081810360008301526131c78161318b565b9050919050565b7f4572726f726520647572616e7465206c612063616e63656c6c617a696f6e6500600082015250565b6000613204601f83612816565b915061320f826131ce565b602082019050919050565b60006020820190508181036000830152613233816131f7565b9050919050565b7f5574656e746520652720737461746f20656c696d696e61746f21000000000000600082015250565b6000613270601a83612816565b915061327b8261323a565b602082019050919050565b6000602082019050818103600083015261329f81613263565b9050919050565b600080600080600060a086880312156132c2576132c161252c565b5b60006132d0888289016130b4565b955050602086015167ffffffffffffffff8111156132f1576132f0612531565b5b6132fd8882890161303d565b945050604086015167ffffffffffffffff81111561331e5761331d612531565b5b61332a8882890161303d565b935050606086015167ffffffffffffffff81111561334b5761334a612531565b5b6133578882890161303d565b9250506080613368888289016130b4565b9150509295509295909350565b600060608201905061338a6000830186612d08565b818103602083015261339c8185612851565b905081810360408301526133b08184612851565b9050949350505050565b600067ffffffffffffffff8211156133d5576133d4612551565b5b602082029050602081019050919050565b600080fd5b6000815190506133fa816126ae565b92915050565b600061341361340e846133ba565b6125b1565b90508083825260208201905060208402830185811115613436576134356133e6565b5b835b8181101561345f578061344b88826133eb565b845260208401935050602081019050613438565b5050509392505050565b600082601f83011261347e5761347d612536565b5b815161348e848260208601613400565b91505092915050565b6000602082840312156134ad576134ac61252c565b5b600082015167ffffffffffffffff8111156134cb576134ca612531565b5b6134d784828501613469565b91505092915050565b7f42616c616e6365204e6f742056616c6964000000000000000000000000000000600082015250565b6000613516601183612816565b9150613521826134e0565b602082019050919050565b6000602082019050818103600083015261354581613509565b9050919050565b7f55736572204e6f7420466f756e64210000000000000000000000000000000000600082015250565b6000613582600f83612816565b915061358d8261354c565b602082019050919050565b600060208201905081810360008301526135b181613575565b905091905056fea26469706673582212205e96e1629df992b7421195cca2054959c8fef83ee4a7e9f592329be2943f3f9664736f6c63430008180033",
  "immutableReferences": {},
  "source": "// SPDX-License-Identifier: MIT\r\npragma solidity ^0.8.0;\r\n\r\nimport \"./CheeseProducerStorage.sol\";\r\nimport \"../../Service/Filieratoken.sol\";\r\n\r\n\r\ncontract CheeseProducerService {\r\n\r\n//-------------------------------------------------------------------- Contract Address Service --------------------------------------------------------------------//\r\n\r\n\r\n    // Address of CheeseProducer Storage \r\n    CheeseProducerStorage private cheeseProducerStorage;\r\n    \r\n    // Address of Token FT - ERC-20\r\n    Filieratoken private filieraToken;\r\n\r\n    // Address of Organization che gestisce gli utenti\r\n    address private  CheeseProducerOrg;\r\n\r\n\r\n\r\n// --------------------------------------------------------------------- Event of Service ----------------------------------------------------------------//\r\n\r\n    // Evento emesso al momento della cancellazione di un consumatore\r\n    event CheeseProducerDeleted(address indexed walletCheeseProducer, string message);\r\n    // Evento emesso al momento della registrazione di un consumatore\r\n    event CheeseProducerRegistered(address indexed walletCheeseProducer, string fullName, string message);\r\n\r\n\r\n\r\n//---------------------------------------------------------------------- Constructor ----------------------------------------------------------------------------//    \r\n    constructor(address _cheeseProducerStorage, address _filieraToken) {\r\n        cheeseProducerStorage = CheeseProducerStorage(_cheeseProducerStorage);\r\n        filieraToken = Filieratoken(_filieraToken);\r\n        CheeseProducerOrg = msg.sender;\r\n    }\r\n\r\n// ------------------------------------------------------------ Modifier Of Service ---------------------------------------------------------------------------------//\r\n\r\n\r\n    modifier onlyOrg(address sender){\r\n        require(sender == CheeseProducerOrg,\"User Not Authorized!\");\r\n        _;\r\n    }\r\n\r\n    // Verifica chi effettua la transazione : \r\n    // Verfica che l'address non sia l'organizzazione \r\n    // Verfica che l'address non sia lo smart contract del CheeseProducerStorage e FilieraToken \r\n    modifier checkAddress(address walletCheeseProducer){\r\n\r\n        require(walletCheeseProducer != address(0),\"Address is zero\");\r\n        require(walletCheeseProducer != address(cheeseProducerStorage), \"Address is CheeseProducerStorage Smart Contract!\");\r\n        require(walletCheeseProducer != address(filieraToken), \"Address is FilieraToken Smart Contract!\" );\r\n        require(walletCheeseProducer != CheeseProducerOrg ,\"Organization address\");\r\n\r\n        _;\r\n    }\r\n\r\n\r\n//--------------------------------------------------------------- Business Logic -------------------------------------------------------------------------------------------//\r\n\r\n    /**\r\n     * registerCheeseProducer() registra gli utenti della piattaforma che sono CheeseProducer \r\n     * - Inserisce i dati all'interno della Blockchain\r\n     * - Trasferisce 100 token dal contratto di FilieraToken \r\n     * - Emette un evento appena l'utente  stato registrato \r\n     *  */ \r\n    function registerCheeseProducer(string memory fullName, string memory password, string memory email, address walletCheeseProducer) external checkAddress(walletCheeseProducer) {\r\n\r\n        // Verifica che l'utente  gia' presente \r\n        require(!(this.isUserPresent(walletCheeseProducer)), \"Utente gia' registrato !\");\r\n\r\n        // Chiama la funzione di Storage \r\n        cheeseProducerStorage.addUser(fullName, password, email, walletCheeseProducer);\r\n\r\n        // Autogenera dei token nel balance del CheeseProducer \r\n        require(filieraToken.registerUserWithToken(address(walletCheeseProducer), 100),\"Transfer Token not Valid!\");\r\n\r\n        // Emette l'evento della registrazione dell'utente\r\n        emit CheeseProducerRegistered(walletCheeseProducer, fullName, \"Utente CheeseProducer e' stato registrato!\");\r\n    }\r\n\r\n    /**\r\n     * login() effettua la Login con email e password \r\n     * - Inserisce l'email e la password \r\n     * - return True se l'utente esiste ed ha accesso con le giuste credenziali \r\n     * - return False altrimenti \r\n     */\r\n    function login(address walletCheeseProducer, string memory email, string memory password) external view checkAddress(walletCheeseProducer)  returns(bool) {\r\n\r\n        // Verifichiamo che l'utente  presente \r\n        require(this.isUserPresent(walletCheeseProducer),\"Utente non e' presente!\");\r\n        \r\n        return cheeseProducerStorage.loginUser(walletCheeseProducer, email, password);\r\n    }\r\n\r\n\r\n    /**\r\n     * deleteCheeseProducer() elimina un CheeseProducer all'interno del sistema \r\n     * - Solo l'owner pu effettuare l'eliminazione \r\n     * - msg.sender dovrebbe essere solo quello dell'owner \r\n     */\r\n    function deleteCheeseProducer(address walletCheeseProducer, uint256 id) external checkAddress(walletCheeseProducer)  {\r\n        \r\n        // Verifico che l'utente  presente \r\n        require(this.isUserPresent(walletCheeseProducer), \"Utente non e' presente!\");\r\n        // Restituisce l'id del CheeseProducer tramite il suo address wallet\r\n        require(cheeseProducerStorage.getId(walletCheeseProducer) == id , \"Utente non Autorizzato!\");\r\n        // Effettuo la cancellazione dell'utente \r\n        require(cheeseProducerStorage.deleteUser(walletCheeseProducer), \"Errore durante la cancellazione\");\r\n        // Burn all token ( elimina i token che sono in circolazione, di un utente che non effettua transazioni ) \r\n        filieraToken.burnToken(walletCheeseProducer, filieraToken.balanceOf(walletCheeseProducer));\r\n        // Emit Event on FireFly \r\n        emit CheeseProducerDeleted(walletCheeseProducer,\"Utente e' stato eliminato!\");\r\n    }\r\n\r\n// --------------------------------------------------------------------------- CheeseProducerInventoryService ----------------------------------------------------//\r\n\r\n    function isUserPresent(address walletCheeseProducer) external view returns(bool){\r\n        \r\n        return cheeseProducerStorage.isUserPresent(walletCheeseProducer);\r\n    }\r\n\r\n\r\n\r\n//----------------------------------------------------------------------------- Get Function ----------------------------------------------------------------------//\r\n\r\n    /**\r\n        -  Funzione getCheeseProducerId() attraverso l'address del CheeseProducer siamo riusciti ad ottenere il suo ID\r\n    */\r\n    function getCheeseProducerId(address walletCheeseProducer) external view checkAddress(walletCheeseProducer)  returns (uint256){\r\n        \r\n        return cheeseProducerStorage.getId(walletCheeseProducer);\r\n    }\r\n\r\n    \r\n    /**\r\n        - Funzione getFullName() attraverso l'address del CheeseProducer riusciamo a recuperare il suo FullName\r\n    */\r\n    function getCheeseProducerFullName(address walletCheeseProducer,uint256 id) external view checkAddress(walletCheeseProducer) returns(string memory){\r\n\r\n        return cheeseProducerStorage.getFullName(walletCheeseProducer,id);\r\n    }\r\n\r\n    /**\r\n        - Funzione getEmail() attraverso l'address del CheeseProducer riusciamo a recuperare la sua Email \r\n    */\r\n    function getCheeseProducerEmail(address walletCheeseProducer, uint256 id) external view checkAddress(walletCheeseProducer) returns(string memory){\r\n        \r\n        return cheeseProducerStorage.getEmail(walletCheeseProducer,id);\r\n    }\r\n\r\n\r\n    /**\r\n        - Funzione getBalance() attraverso l'address del CheeseProducer riusciamo a recuperare il suo Balance\r\n    */\r\n    function getCheeseProducerBalance(address walletCheeseProducer, uint256 id) external view checkAddress(walletCheeseProducer)  returns(uint256){\r\n\r\n        return cheeseProducerStorage.getBalance(walletCheeseProducer,id);\r\n    }\r\n\r\n    /**\r\n     * getCheeseProducerData() otteniamo i dati del CheeseProducer\r\n     * - tramite l'address del CheeseProducer riusciamo a visualizzare anche i suoi dati\r\n     * - Dati sensibili e visibili solo dal CheeseProducer stesso \r\n     */\r\n    function getCheeseProducerData(address walletCheeseProducer, uint256 id) external checkAddress(walletCheeseProducer) view returns (uint256, string memory, string memory, string memory, uint256) {\r\n        // Verifico che l'utente  presente \r\n        require(this.isUserPresent(walletCheeseProducer), \"Utente non e' presente!\");\r\n        // Restituisce l'id del CheeseProducer tramite il suo address wallet\r\n        require(cheeseProducerStorage.getId(walletCheeseProducer) == id , \"Utente non Autorizzato!\");\r\n        // Call function of Storage         \r\n        return cheeseProducerStorage.getUser(walletCheeseProducer);\r\n    }\r\n\r\n    function getListAddressCheeseProducer() external view returns ( address [ ] memory){\r\n        return cheeseProducerStorage.getListAddressCheeseProducer();\r\n    }\r\n\r\n//------------------------------------------------------------ Set Function -------------------------------------------------------------------//\r\n\r\n    // - Funzione updateBalance() attraverso l'address e l'id, riusciamo a settare il nuovo balance\r\n    function updateCheeseProducerBalance(address walletCheeseProducer, uint256 balance) external checkAddress(walletCheeseProducer) {\r\n        // Verifico che il Balance sia >0 \r\n        require(balance>0,\"Balance Not Valid\");\r\n        // Verifico che l'utente esista \r\n        require(this.isUserPresent(walletCheeseProducer),\"User Not Found!\");\r\n        // Update Balance \r\n        cheeseProducerStorage.updateBalance(walletCheeseProducer, balance);\r\n    }\r\n\r\n\r\n// ------------------------------------------------------------ Change Address Contract of Service -----------------------------------------------------//\r\n\r\n\r\n    function changeCheeseProducerStorage(address _cheeseProducerStorageNew)private {\r\n        cheeseProducerStorage = CheeseProducerStorage(_cheeseProducerStorageNew);\r\n    }\r\n\r\n\r\n    function changeFilieraToken(address _filieraToken)private {\r\n        filieraToken = Filieratoken(_filieraToken);\r\n    }\r\n\r\n\r\n}\r\n\r\n\r\n",
  "sourcePath": "C:\\Users\\umber\\Progetti\\FilieraToken\\Filiera-Token-Smart-Contract\\contracts\\Actor\\CheeseProducer-smart-contract\\CheeseProducerService.sol",
  "compiler": {
    "name": "solc",
    "version": "0.8.24+commit.e11b9ed9.Emscripten.clang"
  },
  "schemaVersion": "3.4.16",
  "updatedAt": "2024-03-05T00:24:36.568Z",
  "devdoc": {
    "kind": "dev",
    "methods": {},
    "version": 1
  },
  "userdoc": {
    "kind": "user",
    "methods": {
      "deleteCheeseProducer(address,uint256)": {
        "notice": "deleteCheeseProducer() elimina un CheeseProducer all'interno del sistema  - Solo l'owner pu effettuare l'eliminazione  - msg.sender dovrebbe essere solo quello dell'owner "
      },
      "getCheeseProducerBalance(address,uint256)": {
        "notice": "- Funzione getBalance() attraverso l'address del CheeseProducer riusciamo a recuperare il suo Balance"
      },
      "getCheeseProducerData(address,uint256)": {
        "notice": "getCheeseProducerData() otteniamo i dati del CheeseProducer - tramite l'address del CheeseProducer riusciamo a visualizzare anche i suoi dati - Dati sensibili e visibili solo dal CheeseProducer stesso "
      },
      "getCheeseProducerEmail(address,uint256)": {
        "notice": "- Funzione getEmail() attraverso l'address del CheeseProducer riusciamo a recuperare la sua Email "
      },
      "getCheeseProducerFullName(address,uint256)": {
        "notice": "- Funzione getFullName() attraverso l'address del CheeseProducer riusciamo a recuperare il suo FullName"
      },
      "getCheeseProducerId(address)": {
        "notice": "-  Funzione getCheeseProducerId() attraverso l'address del CheeseProducer siamo riusciti ad ottenere il suo ID"
      },
      "login(address,string,string)": {
        "notice": "login() effettua la Login con email e password  - Inserisce l'email e la password  - return True se l'utente esiste ed ha accesso con le giuste credenziali  - return False altrimenti "
      },
      "registerCheeseProducer(string,string,string,address)": {
        "notice": "registerCheeseProducer() registra gli utenti della piattaforma che sono CheeseProducer  - Inserisce i dati all'interno della Blockchain - Trasferisce 100 token dal contratto di FilieraToken  - Emette un evento appena l'utente  stato registrato   "
      }
    },
    "version": 1
  }
}