{
  "contractName": "CheeseProducerInventoryStorage",
  "abi": [
    {
      "inputs": [],
      "stateMutability": "nonpayable",
      "type": "constructor"
    },
    {
      "inputs": [
        {
          "internalType": "address",
          "name": "walletCheeseProducer",
          "type": "address"
        },
        {
          "internalType": "uint256",
          "name": "_id_MilkBatchAcquistato",
          "type": "uint256"
        },
        {
          "internalType": "string",
          "name": "_dop",
          "type": "string"
        },
        {
          "internalType": "uint256",
          "name": "_price",
          "type": "uint256"
        },
        {
          "internalType": "uint256",
          "name": "_quantity",
          "type": "uint256"
        }
      ],
      "name": "addCheeseBlock",
      "outputs": [
        {
          "internalType": "uint256",
          "name": "",
          "type": "uint256"
        },
        {
          "internalType": "string",
          "name": "",
          "type": "string"
        },
        {
          "internalType": "uint256",
          "name": "",
          "type": "uint256"
        },
        {
          "internalType": "uint256",
          "name": "",
          "type": "uint256"
        }
      ],
      "stateMutability": "nonpayable",
      "type": "function"
    },
    {
      "inputs": [
        {
          "internalType": "address",
          "name": "walletCheeseProducer",
          "type": "address"
        },
        {
          "internalType": "uint256",
          "name": "_id",
          "type": "uint256"
        }
      ],
      "name": "getCheeseBlock",
      "outputs": [
        {
          "internalType": "uint256",
          "name": "",
          "type": "uint256"
        },
        {
          "internalType": "string",
          "name": "",
          "type": "string"
        },
        {
          "internalType": "uint256",
          "name": "",
          "type": "uint256"
        },
        {
          "internalType": "uint256",
          "name": "",
          "type": "uint256"
        }
      ],
      "stateMutability": "view",
      "type": "function"
    },
    {
      "inputs": [
        {
          "internalType": "address",
          "name": "walletCheeseProducer",
          "type": "address"
        },
        {
          "internalType": "uint256",
          "name": "_id",
          "type": "uint256"
        }
      ],
      "name": "deleteCheeseBlock",
      "outputs": [
        {
          "internalType": "bool",
          "name": "value",
          "type": "bool"
        }
      ],
      "stateMutability": "nonpayable",
      "type": "function"
    },
    {
      "inputs": [
        {
          "internalType": "address",
          "name": "walletCheeseProducer",
          "type": "address"
        },
        {
          "internalType": "uint256",
          "name": "_id_CheeseBlock",
          "type": "uint256"
        }
      ],
      "name": "isCheeseBlockPresent",
      "outputs": [
        {
          "internalType": "bool",
          "name": "",
          "type": "bool"
        }
      ],
      "stateMutability": "view",
      "type": "function"
    },
    {
      "inputs": [
        {
          "internalType": "address",
          "name": "walletCheeseProducer",
          "type": "address"
        }
      ],
      "name": "getCheeseBlockByCheeseProducer",
      "outputs": [
        {
          "components": [
            {
              "internalType": "uint256",
              "name": "id",
              "type": "uint256"
            },
            {
              "internalType": "string",
              "name": "dop",
              "type": "string"
            },
            {
              "internalType": "uint256",
              "name": "price",
              "type": "uint256"
            },
            {
              "internalType": "uint256",
              "name": "quantity",
              "type": "uint256"
            }
          ],
          "internalType": "struct CheeseProducerInventoryStorage.Cheese[]",
          "name": "",
          "type": "tuple[]"
        }
      ],
      "stateMutability": "view",
      "type": "function"
    },
    {
      "inputs": [
        {
          "internalType": "address[]",
          "name": "cheeseProducerListAddress",
          "type": "address[]"
        }
      ],
      "name": "getAllCheeseBlockList",
      "outputs": [
        {
          "components": [
            {
              "internalType": "uint256",
              "name": "id",
              "type": "uint256"
            },
            {
              "internalType": "string",
              "name": "dop",
              "type": "string"
            },
            {
              "internalType": "uint256",
              "name": "price",
              "type": "uint256"
            },
            {
              "internalType": "uint256",
              "name": "quantity",
              "type": "uint256"
            }
          ],
          "internalType": "struct CheeseProducerInventoryStorage.Cheese[]",
          "name": "",
          "type": "tuple[]"
        }
      ],
      "stateMutability": "view",
      "type": "function"
    },
    {
      "inputs": [
        {
          "internalType": "address",
          "name": "walletCheeseProducer",
          "type": "address"
        },
        {
          "internalType": "uint256",
          "name": "_id",
          "type": "uint256"
        }
      ],
      "name": "getDop",
      "outputs": [
        {
          "internalType": "string",
          "name": "",
          "type": "string"
        }
      ],
      "stateMutability": "view",
      "type": "function"
    },
    {
      "inputs": [
        {
          "internalType": "address",
          "name": "walletCheeseProducer",
          "type": "address"
        },
        {
          "internalType": "uint256",
          "name": "_id",
          "type": "uint256"
        }
      ],
      "name": "getPrice",
      "outputs": [
        {
          "internalType": "uint256",
          "name": "",
          "type": "uint256"
        }
      ],
      "stateMutability": "view",
      "type": "function"
    },
    {
      "inputs": [
        {
          "internalType": "address",
          "name": "walletCheeseProducer",
          "type": "address"
        },
        {
          "internalType": "uint256",
          "name": "_id",
          "type": "uint256"
        }
      ],
      "name": "getQuantity",
      "outputs": [
        {
          "internalType": "uint256",
          "name": "",
          "type": "uint256"
        }
      ],
      "stateMutability": "view",
      "type": "function"
    },
    {
      "inputs": [
        {
          "internalType": "address",
          "name": "walletCheeseProducer",
          "type": "address"
        },
        {
          "internalType": "uint256",
          "name": "_id_Cheese",
          "type": "uint256"
        },
        {
          "internalType": "uint256",
          "name": "_newQuantity",
          "type": "uint256"
        }
      ],
      "name": "updateCheeseBlockQuantity",
      "outputs": [],
      "stateMutability": "nonpayable",
      "type": "function"
    }
  ],
  "bytecode": "0x608060405234801561001057600080fd5b50336000806101000a81548173ffffffffffffffffffffffffffffffffffffffff021916908373ffffffffffffffffffffffffffffffffffffffff160217905550611f57806100606000396000f3fe608060405234801561001057600080fd5b506004361061009e5760003560e01c80636fb82e06116100665780636fb82e061461019657806377e94d9e146101c9578063cd9de906146101e5578063f437eff114610215578063f93bd021146102455761009e565b80631e073fcf146100a3578063320b0b65146100d3578063449e815d14610103578063459b1e91146101335780634f0205bf14610166575b600080fd5b6100bd60048036038101906100b89190611048565b610275565b6040516100ca9190611097565b60405180910390f35b6100ed60048036038101906100e8919061120b565b610393565b6040516100fa9190611407565b60405180910390f35b61011d60048036038101906101189190611048565b61051d565b60405161012a9190611097565b60405180910390f35b61014d600480360381019061014891906114de565b61063b565b60405161015d94939291906115bf565b60405180910390f35b610180600480360381019061017b9190611048565b61077a565b60405161018d9190611626565b60405180910390f35b6101b060048036038101906101ab9190611048565b610829565b6040516101c094939291906115bf565b60405180910390f35b6101e360048036038101906101de9190611641565b610965565b005b6101ff60048036038101906101fa9190611694565b610a58565b60405161020c9190611407565b60405180910390f35b61022f600480360381019061022a9190611048565b610c8d565b60405161023c9190611626565b60405180910390f35b61025f600480360381019061025a9190611048565b610d8b565b60405161026c91906116c1565b60405180910390f35b600080600160008573ffffffffffffffffffffffffffffffffffffffff1673ffffffffffffffffffffffffffffffffffffffff1681526020019081526020016000206000848152602001908152602001600020604051806080016040529081600082015481526020016001820180546102ed90611712565b80601f016020809104026020016040519081016040528092919081815260200182805461031990611712565b80156103665780601f1061033b57610100808354040283529160200191610366565b820191906000526020600020905b81548152906001019060200180831161034957829003601f168201915b50505050508152602001600282015481526020016003820154815250509050806060015191505092915050565b6060600060028054905067ffffffffffffffff8111156103b6576103b56110c8565b5b6040519080825280602002602001820160405280156103ef57816020015b6103dc610f1b565b8152602001906001900390816103d45790505b5090506000805b84518110156105125760003073ffffffffffffffffffffffffffffffffffffffff1663cd9de9068784815181106104305761042f611743565b5b60200260200101516040518263ffffffff1660e01b81526004016104549190611781565b600060405180830381865afa158015610471573d6000803e3d6000fd5b505050506040513d6000823e3d601f19601f8201168201806040525081019061049a91906119a0565b905060005b81518110156105035760008282815181106104bd576104bc611743565b5b60200260200101519050808686815181106104db576104da611743565b5b60200260200101819052506001856104f39190611a18565b945050808060010191505061049f565b505080806001019150506103f6565b508192505050919050565b600080600160008573ffffffffffffffffffffffffffffffffffffffff1673ffffffffffffffffffffffffffffffffffffffff16815260200190815260200160002060008481526020019081526020016000206040518060800160405290816000820154815260200160018201805461059590611712565b80601f01602080910402602001604051908101604052809291908181526020018280546105c190611712565b801561060e5780601f106105e35761010080835404028352916020019161060e565b820191906000526020600020905b8154815290600101906020018083116105f157829003601f168201915b50505050508152602001600282015481526020016003820154815250509050806040015191505092915050565b600060606000806000888888888d4260405160200161065f96959493929190611af1565b6040516020818303038152906040528051906020012060001c9050600060405180608001604052808381526020018a8152602001898152602001888152509050600282908060018154018082558091505060019003906000526020600020016000909190919091505580600160008d73ffffffffffffffffffffffffffffffffffffffff1673ffffffffffffffffffffffffffffffffffffffff16815260200190815260200160002060008481526020019081526020016000206000820151816000015560208201518160010190816107389190611d09565b50604082015181600201556060820151816003015590505080600001518160200151826040015183606001519550955095509550505095509550955095915050565b600080821415801561078c5750600082115b6107cb576040517f08c379a00000000000000000000000000000000000000000000000000000000081526004016107c290611e27565b60405180910390fd5b81600160008573ffffffffffffffffffffffffffffffffffffffff1673ffffffffffffffffffffffffffffffffffffffff16815260200190815260200160002060008481526020019081526020016000206000015414905092915050565b600060606000806000600160008873ffffffffffffffffffffffffffffffffffffffff1673ffffffffffffffffffffffffffffffffffffffff1681526020019081526020016000206000878152602001908152602001600020604051806080016040529081600082015481526020016001820180546108a790611712565b80601f01602080910402602001604051908101604052809291908181526020018280546108d390611712565b80156109205780601f106108f557610100808354040283529160200191610920565b820191906000526020600020905b81548152906001019060200180831161090357829003601f168201915b50505050508152602001600282015481526020016003820154815250509050806000015181602001518260400151836060015194509450945094505092959194509250565b600160008473ffffffffffffffffffffffffffffffffffffffff1673ffffffffffffffffffffffffffffffffffffffff1681526020019081526020016000206000838152602001908152602001600020600301548111156109fb576040517f08c379a00000000000000000000000000000000000000000000000000000000081526004016109f290611eb9565b60405180910390fd5b80600160008573ffffffffffffffffffffffffffffffffffffffff1673ffffffffffffffffffffffffffffffffffffffff168152602001908152602001600020600084815260200190815260200160002060030181905550505050565b6060600060028054905067ffffffffffffffff811115610a7b57610a7a6110c8565b5b604051908082528060200260200182016040528015610ab457816020015b610aa1610f1b565b815260200190600190039081610a995790505b50905060005b600280549050811015610c8357600060028281548110610add57610adc611743565b5b906000526020600020015490506000600160008773ffffffffffffffffffffffffffffffffffffffff1673ffffffffffffffffffffffffffffffffffffffff16815260200190815260200160002060008381526020019081526020016000206000015414610c75576000600160008773ffffffffffffffffffffffffffffffffffffffff1673ffffffffffffffffffffffffffffffffffffffff168152602001908152602001600020600083815260200190815260200160002090508060405180608001604052908160008201548152602001600182018054610bbf90611712565b80601f0160208091040260200160405190810160405280929190818152602001828054610beb90611712565b8015610c385780601f10610c0d57610100808354040283529160200191610c38565b820191906000526020600020905b815481529060010190602001808311610c1b57829003601f168201915b5050505050815260200160028201548152602001600382015481525050848481518110610c6857610c67611743565b5b6020026020010181905250505b508080600101915050610aba565b5080915050919050565b6000600160008473ffffffffffffffffffffffffffffffffffffffff1673ffffffffffffffffffffffffffffffffffffffff1681526020019081526020016000206000838152602001908152602001600020600080820160009055600182016000610cf89190610f43565b6002820160009055600382016000905550506000600160008573ffffffffffffffffffffffffffffffffffffffff1673ffffffffffffffffffffffffffffffffffffffff168152602001908152602001600020600084815260200190815260200160002060000154148015610d725750610d7182610eaa565b5b15610d805760019050610d85565b600090505b92915050565b60606000600160008573ffffffffffffffffffffffffffffffffffffffff1673ffffffffffffffffffffffffffffffffffffffff168152602001908152602001600020600084815260200190815260200160002060405180608001604052908160008201548152602001600182018054610e0490611712565b80601f0160208091040260200160405190810160405280929190818152602001828054610e3090611712565b8015610e7d5780601f10610e5257610100808354040283529160200191610e7d565b820191906000526020600020905b815481529060010190602001808311610e6057829003601f168201915b50505050508152602001600282015481526020016003820154815250509050806020015191505092915050565b600080600090505b8260028281548110610ec757610ec6611743565b5b906000526020600020015403610f035760028181548110610eeb57610eea611743565b5b90600052602060002001600090556001915050610f16565b8080610f0e90611ed9565b915050610eb2565b919050565b6040518060800160405280600081526020016060815260200160008152602001600081525090565b508054610f4f90611712565b6000825580601f10610f615750610f80565b601f016020900490600052602060002090810190610f7f9190610f83565b5b50565b5b80821115610f9c576000816000905550600101610f84565b5090565b6000604051905090565b600080fd5b600080fd5b600073ffffffffffffffffffffffffffffffffffffffff82169050919050565b6000610fdf82610fb4565b9050919050565b610fef81610fd4565b8114610ffa57600080fd5b50565b60008135905061100c81610fe6565b92915050565b6000819050919050565b61102581611012565b811461103057600080fd5b50565b6000813590506110428161101c565b92915050565b6000806040838503121561105f5761105e610faa565b5b600061106d85828601610ffd565b925050602061107e85828601611033565b9150509250929050565b61109181611012565b82525050565b60006020820190506110ac6000830184611088565b92915050565b600080fd5b6000601f19601f8301169050919050565b7f4e487b7100000000000000000000000000000000000000000000000000000000600052604160045260246000fd5b611100826110b7565b810181811067ffffffffffffffff8211171561111f5761111e6110c8565b5b80604052505050565b6000611132610fa0565b905061113e82826110f7565b919050565b600067ffffffffffffffff82111561115e5761115d6110c8565b5b602082029050602081019050919050565b600080fd5b600061118761118284611143565b611128565b905080838252602082019050602084028301858111156111aa576111a961116f565b5b835b818110156111d357806111bf8882610ffd565b8452602084019350506020810190506111ac565b5050509392505050565b600082601f8301126111f2576111f16110b2565b5b8135611202848260208601611174565b91505092915050565b60006020828403121561122157611220610faa565b5b600082013567ffffffffffffffff81111561123f5761123e610faf565b5b61124b848285016111dd565b91505092915050565b600081519050919050565b600082825260208201905092915050565b6000819050602082019050919050565b61128981611012565b82525050565b600081519050919050565b600082825260208201905092915050565b60005b838110156112c95780820151818401526020810190506112ae565b60008484015250505050565b60006112e08261128f565b6112ea818561129a565b93506112fa8185602086016112ab565b611303816110b7565b840191505092915050565b60006080830160008301516113266000860182611280565b506020830151848203602086015261133e82826112d5565b91505060408301516113536040860182611280565b5060608301516113666060860182611280565b508091505092915050565b600061137d838361130e565b905092915050565b6000602082019050919050565b600061139d82611254565b6113a7818561125f565b9350836020820285016113b985611270565b8060005b858110156113f557848403895281516113d68582611371565b94506113e183611385565b925060208a019950506001810190506113bd565b50829750879550505050505092915050565b600060208201905081810360008301526114218184611392565b905092915050565b600080fd5b600067ffffffffffffffff821115611449576114486110c8565b5b611452826110b7565b9050602081019050919050565b82818337600083830152505050565b600061148161147c8461142e565b611128565b90508281526020810184848401111561149d5761149c611429565b5b6114a884828561145f565b509392505050565b600082601f8301126114c5576114c46110b2565b5b81356114d584826020860161146e565b91505092915050565b600080600080600060a086880312156114fa576114f9610faa565b5b600061150888828901610ffd565b955050602061151988828901611033565b945050604086013567ffffffffffffffff81111561153a57611539610faf565b5b611546888289016114b0565b935050606061155788828901611033565b925050608061156888828901611033565b9150509295509295909350565b600082825260208201905092915050565b60006115918261128f565b61159b8185611575565b93506115ab8185602086016112ab565b6115b4816110b7565b840191505092915050565b60006080820190506115d46000830187611088565b81810360208301526115e68186611586565b90506115f56040830185611088565b6116026060830184611088565b95945050505050565b60008115159050919050565b6116208161160b565b82525050565b600060208201905061163b6000830184611617565b92915050565b60008060006060848603121561165a57611659610faa565b5b600061166886828701610ffd565b935050602061167986828701611033565b925050604061168a86828701611033565b9150509250925092565b6000602082840312156116aa576116a9610faa565b5b60006116b884828501610ffd565b91505092915050565b600060208201905081810360008301526116db8184611586565b905092915050565b7f4e487b7100000000000000000000000000000000000000000000000000000000600052602260045260246000fd5b6000600282049050600182168061172a57607f821691505b60208210810361173d5761173c6116e3565b5b50919050565b7f4e487b7100000000000000000000000000000000000000000000000000000000600052603260045260246000fd5b61177b81610fd4565b82525050565b60006020820190506117966000830184611772565b92915050565b600067ffffffffffffffff8211156117b7576117b66110c8565b5b602082029050602081019050919050565b600080fd5b600080fd5b6000815190506117e18161101c565b92915050565b60006117fa6117f58461142e565b611128565b90508281526020810184848401111561181657611815611429565b5b6118218482856112ab565b509392505050565b600082601f83011261183e5761183d6110b2565b5b815161184e8482602086016117e7565b91505092915050565b60006080828403121561186d5761186c6117c8565b5b6118776080611128565b90506000611887848285016117d2565b600083015250602082015167ffffffffffffffff8111156118ab576118aa6117cd565b5b6118b784828501611829565b60208301525060406118cb848285016117d2565b60408301525060606118df848285016117d2565b60608301525092915050565b60006118fe6118f98461179c565b611128565b905080838252602082019050602084028301858111156119215761192061116f565b5b835b8181101561196857805167ffffffffffffffff811115611946576119456110b2565b5b8086016119538982611857565b85526020850194505050602081019050611923565b5050509392505050565b600082601f830112611987576119866110b2565b5b81516119978482602086016118eb565b91505092915050565b6000602082840312156119b6576119b5610faa565b5b600082015167ffffffffffffffff8111156119d4576119d3610faf565b5b6119e084828501611972565b91505092915050565b7f4e487b7100000000000000000000000000000000000000000000000000000000600052601160045260246000fd5b6000611a2382611012565b9150611a2e83611012565b9250828201905080821115611a4657611a456119e9565b5b92915050565b6000819050919050565b611a67611a6282611012565b611a4c565b82525050565b600081905092915050565b6000611a838261128f565b611a8d8185611a6d565b9350611a9d8185602086016112ab565b80840191505092915050565b60008160601b9050919050565b6000611ac182611aa9565b9050919050565b6000611ad382611ab6565b9050919050565b611aeb611ae682610fd4565b611ac8565b82525050565b6000611afd8289611a56565b602082019150611b0d8288611a78565b9150611b198287611a56565b602082019150611b298286611a56565b602082019150611b398285611ada565b601482019150611b498284611a56565b602082019150819050979650505050505050565b60008190508160005260206000209050919050565b60006020601f8301049050919050565b600082821b905092915050565b600060088302611bbf7fffffffffffffffffffffffffffffffffffffffffffffffffffffffffffffffff82611b82565b611bc98683611b82565b95508019841693508086168417925050509392505050565b6000819050919050565b6000611c06611c01611bfc84611012565b611be1565b611012565b9050919050565b6000819050919050565b611c2083611beb565b611c34611c2c82611c0d565b848454611b8f565b825550505050565b600090565b611c49611c3c565b611c54818484611c17565b505050565b5b81811015611c7857611c6d600082611c41565b600181019050611c5a565b5050565b601f821115611cbd57611c8e81611b5d565b611c9784611b72565b81016020851015611ca6578190505b611cba611cb285611b72565b830182611c59565b50505b505050565b600082821c905092915050565b6000611ce060001984600802611cc2565b1980831691505092915050565b6000611cf98383611ccf565b9150826002028217905092915050565b611d128261128f565b67ffffffffffffffff811115611d2b57611d2a6110c8565b5b611d358254611712565b611d40828285611c7c565b600060209050601f831160018114611d735760008415611d61578287015190505b611d6b8582611ced565b865550611dd3565b601f198416611d8186611b5d565b60005b82811015611da957848901518255600182019150602085019450602081019050611d84565b86831015611dc65784890151611dc2601f891682611ccf565b8355505b6001600288020188555050505b505050505050565b7f4944204d696c6b4261746368204e6f742056616c696421000000000000000000600082015250565b6000611e11601783611575565b9150611e1c82611ddb565b602082019050919050565b60006020820190508181036000830152611e4081611e04565b9050919050565b7f436f6e74726f6c6c6f2064656c6c61205175616e74697461272064612075746960008201527f6c697a7a617265206e6f6e20616e6461746120612062756f6e2066696e652100602082015250565b6000611ea3603f83611575565b9150611eae82611e47565b604082019050919050565b60006020820190508181036000830152611ed281611e96565b9050919050565b6000611ee482611012565b91507fffffffffffffffffffffffffffffffffffffffffffffffffffffffffffffffff8203611f1657611f156119e9565b5b60018201905091905056fea2646970667358221220b592d8f43f4212725bf2c1caeaa0c243b4f16775935dffa89ed58edd039b19bb64736f6c63430008180033",
  "immutableReferences": {},
  "source": "// SPDX-License-Identifier: MIT\npragma solidity ^0.8.0;\n\ncontract CheeseProducerInventoryStorage {\n\n    // Address of Organization che gestisce gli utenti\n    address private cheeseProducerOrg;\n\n    constructor() {\n        cheeseProducerOrg = msg.sender;\n    }\n\n    struct Cheese {\n        uint256 id; // Cheese ID \n        string dop;\n        uint256 price;\n        uint256 quantity;\n    }\n\n    mapping(address => mapping(uint256 => Cheese)) private cheeseBlocks;\n\n    uint256 [] private cheeseBlockListId;\n\n// --------------------------------------------------- Business Function --------------------------------------------------------------------------------------//\n\n\n\n    function addCheeseBlock(\n            address walletCheeseProducer,\n            uint256 _id_MilkBatchAcquistato,\n            string memory _dop,\n            uint256 _price,\n            uint256 _quantity\n        ) external returns (uint256 , string memory , uint256 , uint256 ){\n\n        uint256 _id = uint256(keccak256(abi.encodePacked(\n            _id_MilkBatchAcquistato,\n            _dop,\n            _price,\n            _quantity,\n            walletCheeseProducer,\n            block.timestamp\n        )));\n\n\n        // Crea un nuovo Blocco di formaggio\n        Cheese memory cheeseBlock = Cheese({\n            id: _id,\n            dop: _dop,\n            price: _price,\n            quantity: _quantity\n        });\n\n        // Inserisci l'id all'interno della Lista \n        cheeseBlockListId.push(_id);\n\n        // Inserisce il nuovo Blocco di formaggio nella lista cheeseBlocks\n        cheeseBlocks[walletCheeseProducer][_id] = cheeseBlock;\n\n        return (cheeseBlock.id,cheeseBlock.dop,cheeseBlock.price,cheeseBlock.quantity);\n    }\n\n    function getCheeseBlock(address walletCheeseProducer, uint256 _id) external view returns (uint256, string memory, uint256, uint256) {\n\n        Cheese memory cheeseBlock = cheeseBlocks[walletCheeseProducer][_id];\n\n        return (cheeseBlock.id, cheeseBlock.dop, cheeseBlock.price, cheeseBlock.quantity);\n    }\n\n    // Elimina il CheeseBlock \n    function deleteCheeseBlock(address walletCheeseProducer, uint256 _id) external returns(bool value) {\n\n        delete cheeseBlocks[walletCheeseProducer][_id];\n        // Check CheesePiece in the mapping \n        if(cheeseBlocks[walletCheeseProducer][_id].id  == 0 && deleteCheeseBlockIdFromList(_id)){\n            return true;\n        }else {\n            return false;\n        }\n    }\n\n\n    // Verifica che il CheeseBlock  gi presente \n    function isCheeseBlockPresent(address walletCheeseProducer,uint256 _id_CheeseBlock) external view returns(bool){\n        \n        require( _id_CheeseBlock !=0 && _id_CheeseBlock>0, \"ID MilkBatch Not Valid!\");\n\n        return cheeseBlocks[walletCheeseProducer][_id_CheeseBlock].id == _id_CheeseBlock;\n    }\n\n\n    function getCheeseBlockByCheeseProducer(address walletCheeseProducer)external view returns (Cheese[]memory){\n        Cheese [ ] memory  cheeseBlockList  = new Cheese[](cheeseBlockListId.length);\n        for (uint256 i=0; i<cheeseBlockListId.length; i++){\n\n                uint256 _id = cheeseBlockListId[i];\n                if(cheeseBlocks[walletCheeseProducer][_id].id != 0){\n                    // Esiste e questo  il MilkBatch dell'Utente \n                    Cheese storage new_cheese = cheeseBlocks[walletCheeseProducer][_id];\n                    cheeseBlockList[i] = new_cheese;\n                } \n        }\n        return cheeseBlockList;\n    }\n\n    function getAllCheeseBlockList(address[] memory cheeseProducerListAddress)external view returns (Cheese[]memory){\n        \n        Cheese [ ] memory  cheeseBlockList  = new Cheese[](cheeseBlockListId.length);\n        \n        uint256 t = 0; \n\n        for(uint256 i = 0; i<cheeseProducerListAddress.length; i++){\n            \n            Cheese [ ] memory cheeseBlockListFromUser = this.getCheeseBlockByCheeseProducer(cheeseProducerListAddress[i]);\n            \n            for(uint256 j=0; j< cheeseBlockListFromUser.length; j++){\n                Cheese memory new_cheese = cheeseBlockListFromUser[j];\n                cheeseBlockList[t] = new_cheese;\n                t = t+1;\n            }\n        }\n        return cheeseBlockList;\n\n    }\n\n    \n\n// --------------------------------------------------- Get Function --------------------------------------------------------------------------------------//\n    \n    function getDop(address walletCheeseProducer, uint256 _id) external view returns(string memory) {\n\n        Cheese memory cheeseBlock = cheeseBlocks[walletCheeseProducer][_id];\n        return cheeseBlock.dop;\n    }\n\n    function getPrice(address walletCheeseProducer, uint256 _id) external view returns(uint256) {\n\n        Cheese memory cheeseBlock = cheeseBlocks[walletCheeseProducer][_id];\n        return cheeseBlock.price;\n    }\n\n    function getQuantity(address walletCheeseProducer, uint256 _id) external view returns(uint256) {\n\n        Cheese memory cheeseBlock = cheeseBlocks[walletCheeseProducer][_id];\n        return cheeseBlock.quantity;\n    }\n\n// --------------------------------------------------- Set Function --------------------------------------------------------------------------------------//\n\n\n    // - Funzione updateCheeseBlockQuantity() aggiorna la quantit del CheeseBlock \n    function updateCheeseBlockQuantity(\n        address walletCheeseProducer,\n        uint256 _id_Cheese,\n        uint256 _newQuantity\n    ) external  {\n        \n        // Controllo sulla quantita' \n        require(_newQuantity<=cheeseBlocks[walletCheeseProducer][_id_Cheese].quantity,\"Controllo della Quantita' da utilizzare non andata a buon fine!\");\n\n        cheeseBlocks[walletCheeseProducer][_id_Cheese].quantity = _newQuantity;\n    }\n\n    function deleteCheeseBlockIdFromList(uint256 _id)internal returns (bool) {\n        for(uint256 i=0; ; i++){\n            if(cheeseBlockListId[i] == _id){\n                delete  cheeseBlockListId[i];\n                return true;\n            }\n        }\n        return false;\n    }\n\n}\n",
  "sourcePath": "/home/leone-pc/Documenti/GitHub/FilieraToken/Filiera-Token-Smart-Contract/contracts/Actor/CheeseProducer-smart-contract/inventory/CheeseProducerInventoryStorage.sol",
  "compiler": {
    "name": "solc",
    "version": "0.8.24+commit.e11b9ed9.Emscripten.clang"
  },
  "schemaVersion": "3.4.16",
  "updatedAt": "2024-02-27T23:21:51.424Z",
  "devdoc": {
    "kind": "dev",
    "methods": {},
    "version": 1
  },
  "userdoc": {
    "kind": "user",
    "methods": {},
    "version": 1
  }
}