{
  "contractName": "CheeseProducerBuyerStorage",
  "abi": [
    {
      "inputs": [],
      "stateMutability": "nonpayable",
      "type": "constructor"
    },
    {
      "inputs": [
        {
          "internalType": "address",
          "name": "_walletCheeseProducer",
          "type": "address"
        },
        {
          "internalType": "address",
          "name": "_walletMilkHub",
          "type": "address"
        },
        {
          "internalType": "uint256",
          "name": "_id_MilkBatch",
          "type": "uint256"
        },
        {
          "internalType": "string",
          "name": "_expirationDate",
          "type": "string"
        },
        {
          "internalType": "uint256",
          "name": "_quantity",
          "type": "uint256"
        }
      ],
      "name": "addMilkBatch",
      "outputs": [
        {
          "internalType": "uint256",
          "name": "id_MilkBatch_Acquistato",
          "type": "uint256"
        },
        {
          "internalType": "string",
          "name": "expDate",
          "type": "string"
        },
        {
          "internalType": "uint256",
          "name": "quantityAcquistata",
          "type": "uint256"
        }
      ],
      "stateMutability": "nonpayable",
      "type": "function"
    },
    {
      "inputs": [
        {
          "internalType": "address",
          "name": "walletCheeseProducer",
          "type": "address"
        },
        {
          "internalType": "uint256",
          "name": "_id_MilkBatchAcquistato",
          "type": "uint256"
        }
      ],
      "name": "getMilkBatch",
      "outputs": [
        {
          "internalType": "uint256",
          "name": "",
          "type": "uint256"
        },
        {
          "internalType": "address",
          "name": "",
          "type": "address"
        },
        {
          "internalType": "string",
          "name": "",
          "type": "string"
        },
        {
          "internalType": "uint256",
          "name": "",
          "type": "uint256"
        }
      ],
      "stateMutability": "view",
      "type": "function"
    },
    {
      "inputs": [
        {
          "internalType": "address",
          "name": "walletCheeseProducer",
          "type": "address"
        },
        {
          "internalType": "uint256",
          "name": "_id_MilkBatchAcquistato",
          "type": "uint256"
        }
      ],
      "name": "isMilkBatchPresent",
      "outputs": [
        {
          "internalType": "bool",
          "name": "",
          "type": "bool"
        }
      ],
      "stateMutability": "view",
      "type": "function"
    },
    {
      "inputs": [
        {
          "internalType": "address",
          "name": "walletCheeseProducer",
          "type": "address"
        },
        {
          "internalType": "uint256",
          "name": "_id",
          "type": "uint256"
        },
        {
          "internalType": "uint256",
          "name": "_newQuantity",
          "type": "uint256"
        }
      ],
      "name": "updateMilkBatchQuantity",
      "outputs": [],
      "stateMutability": "nonpayable",
      "type": "function"
    },
    {
      "inputs": [
        {
          "internalType": "address",
          "name": "walletCheeseProducer",
          "type": "address"
        },
        {
          "internalType": "uint256",
          "name": "_id",
          "type": "uint256"
        }
      ],
      "name": "getExpirationDate",
      "outputs": [
        {
          "internalType": "string",
          "name": "",
          "type": "string"
        }
      ],
      "stateMutability": "view",
      "type": "function"
    },
    {
      "inputs": [
        {
          "internalType": "address",
          "name": "walletCheeseProducer",
          "type": "address"
        },
        {
          "internalType": "uint256",
          "name": "_id",
          "type": "uint256"
        }
      ],
      "name": "getQuantity",
      "outputs": [
        {
          "internalType": "uint256",
          "name": "",
          "type": "uint256"
        }
      ],
      "stateMutability": "view",
      "type": "function"
    },
    {
      "inputs": [
        {
          "internalType": "address",
          "name": "walletCheeseProducer",
          "type": "address"
        },
        {
          "internalType": "uint256",
          "name": "_id",
          "type": "uint256"
        }
      ],
      "name": "getWalletMilkHub",
      "outputs": [
        {
          "internalType": "address",
          "name": "",
          "type": "address"
        }
      ],
      "stateMutability": "view",
      "type": "function"
    },
    {
      "inputs": [
        {
          "internalType": "address",
          "name": "walletCheeseProducer",
          "type": "address"
        },
        {
          "internalType": "uint256",
          "name": "_id",
          "type": "uint256"
        }
      ],
      "name": "getId",
      "outputs": [
        {
          "internalType": "uint256",
          "name": "",
          "type": "uint256"
        }
      ],
      "stateMutability": "view",
      "type": "function"
    },
    {
      "inputs": [
        {
          "internalType": "address",
          "name": "walletCheeseProducer",
          "type": "address"
        }
      ],
      "name": "getMilkBatchListPurchasedByCheeseProducer",
      "outputs": [
        {
          "components": [
            {
              "internalType": "uint256",
              "name": "id",
              "type": "uint256"
            },
            {
              "internalType": "uint256",
              "name": "id_MilkBatch",
              "type": "uint256"
            },
            {
              "internalType": "address",
              "name": "walletMilkHub",
              "type": "address"
            },
            {
              "internalType": "string",
              "name": "expirationDate",
              "type": "string"
            },
            {
              "internalType": "uint256",
              "name": "quantity",
              "type": "uint256"
            }
          ],
          "internalType": "struct CheeseProducerBuyerStorage.MilkBatch[]",
          "name": "",
          "type": "tuple[]"
        }
      ],
      "stateMutability": "view",
      "type": "function"
    },
    {
      "inputs": [
        {
          "internalType": "address",
          "name": "walletCheeseProducer",
          "type": "address"
        },
        {
          "internalType": "uint256",
          "name": "_id",
          "type": "uint256"
        },
        {
          "internalType": "uint256",
          "name": "_quantityToTransform",
          "type": "uint256"
        }
      ],
      "name": "checkMilkBatch",
      "outputs": [
        {
          "internalType": "bool",
          "name": "",
          "type": "bool"
        }
      ],
      "stateMutability": "view",
      "type": "function"
    },
    {
      "inputs": [
        {
          "internalType": "address",
          "name": "walletCheeseProducer",
          "type": "address"
        },
        {
          "internalType": "uint256",
          "name": "_id",
          "type": "uint256"
        },
        {
          "internalType": "uint256",
          "name": "_quantityToTransform",
          "type": "uint256"
        }
      ],
      "name": "checkQuantity",
      "outputs": [
        {
          "internalType": "bool",
          "name": "",
          "type": "bool"
        }
      ],
      "stateMutability": "view",
      "type": "function"
    }
  ],
  "bytecode": "0x608060405234801561001057600080fd5b50336000806101000a81548173ffffffffffffffffffffffffffffffffffffffff021916908373ffffffffffffffffffffffffffffffffffffffff160217905550611f49806100606000396000f3fe608060405234801561001057600080fd5b50600436106100a95760003560e01c8063a748926911610071578063a74892691461019e578063c5d3e11d146101ce578063cb6f5eee146101fe578063ce4fcf231461021a578063d0edfccc1461024d578063dd937b011461027d576100a9565b806302d805f6146100ae5780630803da24146100de5780631e073fcf1461010e5780639f2b68981461013e578063a70e4d341461016e575b600080fd5b6100c860048036038101906100c3919061130b565b6102af565b6040516100d59190611366565b60405180910390f35b6100f860048036038101906100f39190611381565b61035e565b6040516101059190611366565b60405180910390f35b6101286004803603810190610123919061130b565b610406565b60405161013591906113e3565b60405180910390f35b6101586004803603810190610153919061130b565b61057a565b604051610165919061148e565b60405180910390f35b610188600480360381019061018391906114b0565b6106ef565b604051610195919061167d565b60405180910390f35b6101b860048036038101906101b39190611381565b61097a565b6040516101c59190611366565b60405180910390f35b6101e860048036038101906101e3919061130b565b610ab8565b6040516101f591906113e3565b60405180910390f35b61021860048036038101906102139190611381565b610b16565b005b610234600480360381019061022f919061130b565b610c09565b60405161024494939291906116ae565b60405180910390f35b6102676004803603810190610262919061130b565b610d9a565b60405161027491906116fa565b60405180910390f35b6102976004803603810190610292919061184a565b610f0e565b6040516102a6939291906118e1565b60405180910390f35b60008082141580156102c15750600082115b610300576040517f08c379a00000000000000000000000000000000000000000000000000000000081526004016102f79061196b565b60405180910390fd5b81600160008573ffffffffffffffffffffffffffffffffffffffff1673ffffffffffffffffffffffffffffffffffffffff16815260200190815260200160002060008481526020019081526020016000206000015414905092915050565b600080600160008673ffffffffffffffffffffffffffffffffffffffff1673ffffffffffffffffffffffffffffffffffffffff1681526020019081526020016000206000858152602001908152602001600020905082816004015410156103fa576040517f08c379a00000000000000000000000000000000000000000000000000000000081526004016103f1906119d7565b60405180910390fd5b60019150509392505050565b600080600160008573ffffffffffffffffffffffffffffffffffffffff1673ffffffffffffffffffffffffffffffffffffffff16815260200190815260200160002060008481526020019081526020016000206040518060a001604052908160008201548152602001600182015481526020016002820160009054906101000a900473ffffffffffffffffffffffffffffffffffffffff1673ffffffffffffffffffffffffffffffffffffffff1673ffffffffffffffffffffffffffffffffffffffff1681526020016003820180546104de90611a26565b80601f016020809104026020016040519081016040528092919081815260200182805461050a90611a26565b80156105575780601f1061052c57610100808354040283529160200191610557565b820191906000526020600020905b81548152906001019060200180831161053a57829003601f168201915b505050505081526020016004820154815250509050806080015191505092915050565b60606000600160008573ffffffffffffffffffffffffffffffffffffffff1673ffffffffffffffffffffffffffffffffffffffff16815260200190815260200160002060008481526020019081526020016000206040518060a001604052908160008201548152602001600182015481526020016002820160009054906101000a900473ffffffffffffffffffffffffffffffffffffffff1673ffffffffffffffffffffffffffffffffffffffff1673ffffffffffffffffffffffffffffffffffffffff16815260200160038201805461065390611a26565b80601f016020809104026020016040519081016040528092919081815260200182805461067f90611a26565b80156106cc5780601f106106a1576101008083540402835291602001916106cc565b820191906000526020600020905b8154815290600101906020018083116106af57829003601f168201915b505050505081526020016004820154815250509050806060015191505092915050565b6060600060028054905067ffffffffffffffff8111156107125761071161171f565b5b60405190808252806020026020018201604052801561074b57816020015b61073861121e565b8152602001906001900390816107305790505b50905060005b6002805490508110156109705760006002828154811061077457610773611a57565b5b906000526020600020015490506000600160008773ffffffffffffffffffffffffffffffffffffffff1673ffffffffffffffffffffffffffffffffffffffff16815260200190815260200160002060008381526020019081526020016000206000015414610962576000600160008773ffffffffffffffffffffffffffffffffffffffff1673ffffffffffffffffffffffffffffffffffffffff16815260200190815260200160002060008381526020019081526020016000209050806040518060a001604052908160008201548152602001600182015481526020016002820160009054906101000a900473ffffffffffffffffffffffffffffffffffffffff1673ffffffffffffffffffffffffffffffffffffffff1673ffffffffffffffffffffffffffffffffffffffff1681526020016003820180546108b690611a26565b80601f01602080910402602001604051908101604052809291908181526020018280546108e290611a26565b801561092f5780601f106109045761010080835404028352916020019161092f565b820191906000526020600020905b81548152906001019060200180831161091257829003601f168201915b5050505050815260200160048201548152505084848151811061095557610954611a57565b5b6020026020010181905250505b508080600101915050610751565b5080915050919050565b600082600160008673ffffffffffffffffffffffffffffffffffffffff1673ffffffffffffffffffffffffffffffffffffffff16815260200190815260200160002060008581526020019081526020016000206000015414610a11576040517f08c379a0000000000000000000000000000000000000000000000000000000008152600401610a0890611ad2565b60405180910390fd5b6000600160008673ffffffffffffffffffffffffffffffffffffffff1673ffffffffffffffffffffffffffffffffffffffff168152602001908152602001600020600085815260200190815260200160002090508281600401541015610aac576040517f08c379a0000000000000000000000000000000000000000000000000000000008152600401610aa3906119d7565b60405180910390fd5b60019150509392505050565b6000600160008473ffffffffffffffffffffffffffffffffffffffff1673ffffffffffffffffffffffffffffffffffffffff168152602001908152602001600020600083815260200190815260200160002060000154905092915050565b600160008473ffffffffffffffffffffffffffffffffffffffff1673ffffffffffffffffffffffffffffffffffffffff168152602001908152602001600020600083815260200190815260200160002060040154811115610bac576040517f08c379a0000000000000000000000000000000000000000000000000000000008152600401610ba390611b64565b60405180910390fd5b80600160008573ffffffffffffffffffffffffffffffffffffffff1673ffffffffffffffffffffffffffffffffffffffff168152602001908152602001600020600084815260200190815260200160002060040181905550505050565b6000806060600080600160008873ffffffffffffffffffffffffffffffffffffffff1673ffffffffffffffffffffffffffffffffffffffff16815260200190815260200160002060008781526020019081526020016000206040518060a001604052908160008201548152602001600182015481526020016002820160009054906101000a900473ffffffffffffffffffffffffffffffffffffffff1673ffffffffffffffffffffffffffffffffffffffff1673ffffffffffffffffffffffffffffffffffffffff168152602001600382018054610ce690611a26565b80601f0160208091040260200160405190810160405280929190818152602001828054610d1290611a26565b8015610d5f5780601f10610d3457610100808354040283529160200191610d5f565b820191906000526020600020905b815481529060010190602001808311610d4257829003601f168201915b505050505081526020016004820154815250509050806000015181604001518260600151836080015194509450945094505092959194509250565b600080600160008573ffffffffffffffffffffffffffffffffffffffff1673ffffffffffffffffffffffffffffffffffffffff16815260200190815260200160002060008481526020019081526020016000206040518060a001604052908160008201548152602001600182015481526020016002820160009054906101000a900473ffffffffffffffffffffffffffffffffffffffff1673ffffffffffffffffffffffffffffffffffffffff1673ffffffffffffffffffffffffffffffffffffffff168152602001600382018054610e7290611a26565b80601f0160208091040260200160405190810160405280929190818152602001828054610e9e90611a26565b8015610eeb5780601f10610ec057610100808354040283529160200191610eeb565b820191906000526020600020905b815481529060010190602001808311610ece57829003601f168201915b505050505081526020016004820154815250509050806040015191505092915050565b6000606060008085858a8a8a42604051602001610f3096959493929190611c29565b6040516020818303038152906040528051906020012060001c905060006040518060a001604052808381526020018981526020018a73ffffffffffffffffffffffffffffffffffffffff16815260200188815260200187815250905080600160008c73ffffffffffffffffffffffffffffffffffffffff1673ffffffffffffffffffffffffffffffffffffffff1681526020019081526020016000206000848152602001908152602001600020600082015181600001556020820151816001015560408201518160020160006101000a81548173ffffffffffffffffffffffffffffffffffffffff021916908373ffffffffffffffffffffffffffffffffffffffff160217905550606082015181600301908161104d9190611e41565b50608082015181600401559050506002829080600181540180825580915050600190039060005260206000200160009091909190915055600160008b73ffffffffffffffffffffffffffffffffffffffff1673ffffffffffffffffffffffffffffffffffffffff168152602001908152602001600020600083815260200190815260200160002060000154600160008c73ffffffffffffffffffffffffffffffffffffffff1673ffffffffffffffffffffffffffffffffffffffff1681526020019081526020016000206000848152602001908152602001600020600301600160008d73ffffffffffffffffffffffffffffffffffffffff1673ffffffffffffffffffffffffffffffffffffffff16815260200190815260200160002060008581526020019081526020016000206004015481805461118b90611a26565b80601f01602080910402602001604051908101604052809291908181526020018280546111b790611a26565b80156112045780601f106111d957610100808354040283529160200191611204565b820191906000526020600020905b8154815290600101906020018083116111e757829003601f168201915b505050505091509450945094505050955095509592505050565b6040518060a001604052806000815260200160008152602001600073ffffffffffffffffffffffffffffffffffffffff16815260200160608152602001600081525090565b6000604051905090565b600080fd5b600080fd5b600073ffffffffffffffffffffffffffffffffffffffff82169050919050565b60006112a282611277565b9050919050565b6112b281611297565b81146112bd57600080fd5b50565b6000813590506112cf816112a9565b92915050565b6000819050919050565b6112e8816112d5565b81146112f357600080fd5b50565b600081359050611305816112df565b92915050565b600080604083850312156113225761132161126d565b5b6000611330858286016112c0565b9250506020611341858286016112f6565b9150509250929050565b60008115159050919050565b6113608161134b565b82525050565b600060208201905061137b6000830184611357565b92915050565b60008060006060848603121561139a5761139961126d565b5b60006113a8868287016112c0565b93505060206113b9868287016112f6565b92505060406113ca868287016112f6565b9150509250925092565b6113dd816112d5565b82525050565b60006020820190506113f860008301846113d4565b92915050565b600081519050919050565b600082825260208201905092915050565b60005b8381101561143857808201518184015260208101905061141d565b60008484015250505050565b6000601f19601f8301169050919050565b6000611460826113fe565b61146a8185611409565b935061147a81856020860161141a565b61148381611444565b840191505092915050565b600060208201905081810360008301526114a88184611455565b905092915050565b6000602082840312156114c6576114c561126d565b5b60006114d4848285016112c0565b91505092915050565b600081519050919050565b600082825260208201905092915050565b6000819050602082019050919050565b611512816112d5565b82525050565b61152181611297565b82525050565b600082825260208201905092915050565b6000611543826113fe565b61154d8185611527565b935061155d81856020860161141a565b61156681611444565b840191505092915050565b600060a0830160008301516115896000860182611509565b50602083015161159c6020860182611509565b5060408301516115af6040860182611518565b50606083015184820360608601526115c78282611538565b91505060808301516115dc6080860182611509565b508091505092915050565b60006115f38383611571565b905092915050565b6000602082019050919050565b6000611613826114dd565b61161d81856114e8565b93508360208202850161162f856114f9565b8060005b8581101561166b578484038952815161164c85826115e7565b9450611657836115fb565b925060208a01995050600181019050611633565b50829750879550505050505092915050565b600060208201905081810360008301526116978184611608565b905092915050565b6116a881611297565b82525050565b60006080820190506116c360008301876113d4565b6116d0602083018661169f565b81810360408301526116e28185611455565b90506116f160608301846113d4565b95945050505050565b600060208201905061170f600083018461169f565b92915050565b600080fd5b600080fd5b7f4e487b7100000000000000000000000000000000000000000000000000000000600052604160045260246000fd5b61175782611444565b810181811067ffffffffffffffff821117156117765761177561171f565b5b80604052505050565b6000611789611263565b9050611795828261174e565b919050565b600067ffffffffffffffff8211156117b5576117b461171f565b5b6117be82611444565b9050602081019050919050565b82818337600083830152505050565b60006117ed6117e88461179a565b61177f565b9050828152602081018484840111156118095761180861171a565b5b6118148482856117cb565b509392505050565b600082601f83011261183157611830611715565b5b81356118418482602086016117da565b91505092915050565b600080600080600060a086880312156118665761186561126d565b5b6000611874888289016112c0565b9550506020611885888289016112c0565b9450506040611896888289016112f6565b935050606086013567ffffffffffffffff8111156118b7576118b6611272565b5b6118c38882890161181c565b92505060806118d4888289016112f6565b9150509295509295909350565b60006060820190506118f660008301866113d4565b81810360208301526119088185611455565b905061191760408301846113d4565b949350505050565b7f4944204d696c6b4261746368204e6f742056616c696421000000000000000000600082015250565b6000611955601783611409565b91506119608261191f565b602082019050919050565b6000602082019050818103600083015261198481611948565b9050919050565b7f5175616e74697479206e6f742056616c69642100000000000000000000000000600082015250565b60006119c1601383611409565b91506119cc8261198b565b602082019050919050565b600060208201905081810360008301526119f0816119b4565b9050919050565b7f4e487b7100000000000000000000000000000000000000000000000000000000600052602260045260246000fd5b60006002820490506001821680611a3e57607f821691505b602082108103611a5157611a506119f7565b5b50919050565b7f4e487b7100000000000000000000000000000000000000000000000000000000600052603260045260246000fd5b7f50617274697461206469204c61747465206e6f6e2070726573656e7465210000600082015250565b6000611abc601e83611409565b9150611ac782611a86565b602082019050919050565b60006020820190508181036000830152611aeb81611aaf565b9050919050565b7f436f6e74726f6c6c6f2064656c6c61205175616e74697461272064612075746960008201527f6c697a7a617265206e6f6e20616e6461746120612062756f6e2066696e652100602082015250565b6000611b4e603f83611409565b9150611b5982611af2565b604082019050919050565b60006020820190508181036000830152611b7d81611b41565b9050919050565b600081905092915050565b6000611b9a826113fe565b611ba48185611b84565b9350611bb481856020860161141a565b80840191505092915050565b6000819050919050565b611bdb611bd6826112d5565b611bc0565b82525050565b60008160601b9050919050565b6000611bf982611be1565b9050919050565b6000611c0b82611bee565b9050919050565b611c23611c1e82611297565b611c00565b82525050565b6000611c358289611b8f565b9150611c418288611bca565b602082019150611c518287611c12565b601482019150611c618286611c12565b601482019150611c718285611bca565b602082019150611c818284611bca565b602082019150819050979650505050505050565b60008190508160005260206000209050919050565b60006020601f8301049050919050565b600082821b905092915050565b600060088302611cf77fffffffffffffffffffffffffffffffffffffffffffffffffffffffffffffffff82611cba565b611d018683611cba565b95508019841693508086168417925050509392505050565b6000819050919050565b6000611d3e611d39611d34846112d5565b611d19565b6112d5565b9050919050565b6000819050919050565b611d5883611d23565b611d6c611d6482611d45565b848454611cc7565b825550505050565b600090565b611d81611d74565b611d8c818484611d4f565b505050565b5b81811015611db057611da5600082611d79565b600181019050611d92565b5050565b601f821115611df557611dc681611c95565b611dcf84611caa565b81016020851015611dde578190505b611df2611dea85611caa565b830182611d91565b50505b505050565b600082821c905092915050565b6000611e1860001984600802611dfa565b1980831691505092915050565b6000611e318383611e07565b9150826002028217905092915050565b611e4a826113fe565b67ffffffffffffffff811115611e6357611e6261171f565b5b611e6d8254611a26565b611e78828285611db4565b600060209050601f831160018114611eab5760008415611e99578287015190505b611ea38582611e25565b865550611f0b565b601f198416611eb986611c95565b60005b82811015611ee157848901518255600182019150602085019450602081019050611ebc565b86831015611efe5784890151611efa601f891682611e07565b8355505b6001600288020188555050505b50505050505056fea2646970667358221220dec1d507459639d0b8ecc288766f22bc6da05c0fcc5d0e7e8e7241959fbbb42064736f6c63430008180033",
  "immutableReferences": {},
  "source": "// SPDX-License-Identifier: MIT\r\npragma solidity ^0.8.0;\r\n\r\n//Smart Contract per lo storage dei MilkHub acquistati dal CheeseProducer\r\ncontract CheeseProducerBuyerStorage {\r\n\r\n    // Address of Organization che gestisce gli utenti\r\n    address private cheeseProducerOrg;\r\n\r\n    constructor() {\r\n        cheeseProducerOrg = msg.sender;\r\n    }\r\n\r\n    struct MilkBatch {\r\n        uint256 id; // Generato nuovo per il CheeseProducer \r\n        uint256 id_MilkBatch; // id di riferimento del MilkBatch \r\n        address walletMilkHub; // Address del Wallet del MilkHub \r\n        string expirationDate; // Data di scadenza \r\n        uint256 quantity; // Quantit da acquistare \r\n    }\r\n\r\n    mapping(address => mapping(uint256 => MilkBatch)) private purchasedMilkBatches;\r\n\r\n    uint256 [] private milkBatchIdPurchasedList;\r\n\r\n\r\n//--------------------------------------------------------------- Business Logic Service -----------------------------------------------------------------------------------------//\r\n\r\n\r\n    /**\r\n    *\r\n    * Funzione addMilkBatch() -> Utilizzata dal Transaction Manager per poter inserire il MilkBatch Acquistato \r\n    * Scollego questa logica, ammettendo che il CheeseProducer pu testare la logica di conversione \r\n    * params : \r\n    * - walletCheeseProducer -> mi serve per il mapping \r\n    * - walletMilkHub -> mi serve per creare il nuovo elemento  \r\n    * - id_milkBatch -> mi serve per il riferimento all'elemento acquistato\r\n    */\r\n    function addMilkBatch( \r\n        \r\n            address _walletCheeseProducer, \r\n            address _walletMilkHub, // Riferimento al wallet del MilkHub \r\n            uint256 _id_MilkBatch, // riferimento al prodotto di MilkBatch \r\n            string memory _expirationDate,\r\n            uint256 _quantity\r\n        \r\n        ) external returns (uint256 id_MilkBatch_Acquistato, string memory expDate, uint256 quantityAcquistata){\r\n\r\n        uint256 _id = uint256(keccak256(abi.encodePacked(\r\n            _expirationDate,\r\n            _quantity,\r\n            _walletCheeseProducer,\r\n            _walletMilkHub,\r\n            _id_MilkBatch,\r\n            block.timestamp // inserimento di questo attributo per rendere l'acquisto unico nel suo genere \r\n            // l'articolo in questo modo pu essere riacquistato dallo stesso cheeseProducer un'altra volta \r\n        )));\r\n\r\n\r\n        //Crea una nuova Partita di Latte\r\n        MilkBatch memory milkBatch = MilkBatch({\r\n            id: _id,\r\n            id_MilkBatch: _id_MilkBatch,\r\n            walletMilkHub: _walletMilkHub,\r\n            expirationDate: _expirationDate,\r\n            quantity: _quantity\r\n        });\r\n\r\n        //Inserisce la nuova Partita di Latte nella lista purchasedMilkBatches\r\n        purchasedMilkBatches[_walletCheeseProducer][_id] = milkBatch;\r\n        // Inserisce il riferimento all'interno della lista\r\n        milkBatchIdPurchasedList.push(_id);\r\n\r\n        return (purchasedMilkBatches[_walletCheeseProducer][_id].id, purchasedMilkBatches[_walletCheeseProducer][_id].expirationDate, purchasedMilkBatches[_walletCheeseProducer][_id].quantity);\r\n\r\n    }\r\n\r\n\r\n    function getMilkBatch(address walletCheeseProducer, uint256 _id_MilkBatchAcquistato) external view returns (uint256, address, string memory, uint256) {\r\n\r\n        MilkBatch memory milkBatch = purchasedMilkBatches[walletCheeseProducer][_id_MilkBatchAcquistato];\r\n\r\n        return (milkBatch.id, milkBatch.walletMilkHub, milkBatch.expirationDate, milkBatch.quantity);\r\n    }\r\n\r\n\r\n    /**\r\n    * Funzione per la verifica dell'esistenza del prodotto MilkBatch acquistato \r\n    * - ritorna TRUE se esiste \r\n    * - ritorna FALSe se non esiste \r\n    * - effettua il controllo sull'uguaglianza dell'id del MilkBatch Acquistato\r\n    */\r\n    function isMilkBatchPresent(address walletCheeseProducer, uint256 _id_MilkBatchAcquistato)external view returns(bool){\r\n        require( _id_MilkBatchAcquistato !=0 && _id_MilkBatchAcquistato>0,\"ID MilkBatch Not Valid!\");\r\n\r\n        return purchasedMilkBatches[walletCheeseProducer][_id_MilkBatchAcquistato].id == _id_MilkBatchAcquistato;\r\n    }\r\n\r\n// -------------------------------------------------------------- Set Function ------------------------------------------------------------------------------------------//\r\n\r\n\r\n\r\n    // - Funzione updateMilkBatchQuantity() aggiorna la quantit del MilkBatch \r\n    function updateMilkBatchQuantity(address walletCheeseProducer, uint256 _id, uint256 _newQuantity) external  {\r\n        // Controllo sulla quantita' \r\n        require(_newQuantity<=purchasedMilkBatches[walletCheeseProducer][_id].quantity,\"Controllo della Quantita' da utilizzare non andata a buon fine!\");\r\n\r\n        purchasedMilkBatches[walletCheeseProducer][_id].quantity = _newQuantity;\r\n    }\r\n\r\n\r\n// -------------------------------------------------------------- Get Function ------------------------------------------------------------------------------------------//\r\n\r\n\r\n\r\n    function getExpirationDate(address walletCheeseProducer, uint256 _id) external view returns(string memory) {\r\n\r\n        MilkBatch memory milkBatch = purchasedMilkBatches[walletCheeseProducer][_id];\r\n        return milkBatch.expirationDate;\r\n    }\r\n\r\n    function getQuantity(address walletCheeseProducer, uint256 _id) external view returns(uint256) {\r\n\r\n        MilkBatch memory milkBatch = purchasedMilkBatches[walletCheeseProducer][_id];\r\n        return milkBatch.quantity;        \r\n    }\r\n\r\n    function getWalletMilkHub(address walletCheeseProducer, uint256 _id) external view returns(address) {\r\n\r\n        MilkBatch memory milkBatch = purchasedMilkBatches[walletCheeseProducer][_id];\r\n        return milkBatch.walletMilkHub;\r\n    }\r\n\r\n    function getId(address walletCheeseProducer, uint256 _id) external view returns(uint256) {\r\n\r\n        return purchasedMilkBatches[walletCheeseProducer][_id].id;\r\n    }\r\n\r\n    /*\r\n        - Funzione per recuperare tutti i MilKBatchPurchased di un determinato walletCheeseProducer\r\n    */\r\n    function getMilkBatchListPurchasedByCheeseProducer(address walletCheeseProducer) external view returns (MilkBatch[] memory) {\r\n        MilkBatch [ ] memory  milkBatchPurchasedList  = new MilkBatch[](milkBatchIdPurchasedList.length);\r\n        \r\n        for (uint256 i=0; i<milkBatchIdPurchasedList.length; i++){\r\n\r\n                uint256 _id = milkBatchIdPurchasedList[i];\r\n                if(purchasedMilkBatches[walletCheeseProducer][_id].id != 0){\r\n                    // Esiste e questo  il MilkBatch dell'Utente \r\n                    MilkBatch storage new_milkbatchPurchased = purchasedMilkBatches[walletCheeseProducer][_id];\r\n                    milkBatchPurchasedList[i] = new_milkbatchPurchased;\r\n                } \r\n        }\r\n\r\n        return milkBatchPurchasedList;\r\n    }\r\n\r\n\r\n\r\n// -------------------------------------------------------------- Check Function ------------------------------------------------------------------------------------------//\r\n\r\n\r\n    function checkMilkBatch(address walletCheeseProducer, uint256 _id, uint256 _quantityToTransform) external view returns(bool) {\r\n        require(purchasedMilkBatches[walletCheeseProducer][_id].id == _id, \"Partita di Latte non presente!\");\r\n\r\n        MilkBatch storage milkBatchObj = purchasedMilkBatches[walletCheeseProducer][_id];\r\n            \r\n        require(milkBatchObj.quantity >= _quantityToTransform, \"Quantity not Valid!\");\r\n        return true;    \r\n    }\r\n\r\n\r\n    function checkQuantity(address walletCheeseProducer,  uint256 _id, uint256 _quantityToTransform ) external view returns(bool){\r\n        \r\n        MilkBatch storage milkBatchObj = purchasedMilkBatches[walletCheeseProducer][_id];\r\n            \r\n        require(milkBatchObj.quantity >= _quantityToTransform, \"Quantity not Valid!\");\r\n\r\n        return true;    \r\n    }\r\n    \r\n}",
  "sourcePath": "C:\\Users\\umber\\Progetti\\FilieraToken\\Filiera-Token-Smart-Contract\\contracts\\Actor\\CheeseProducer-smart-contract\\inventory\\CheeseProducerBuyerStorage.sol",
  "compiler": {
    "name": "solc",
    "version": "0.8.24+commit.e11b9ed9.Emscripten.clang"
  },
  "schemaVersion": "3.4.16",
  "updatedAt": "2024-02-29T10:17:44.383Z",
  "devdoc": {
    "kind": "dev",
    "methods": {},
    "version": 1
  },
  "userdoc": {
    "kind": "user",
    "methods": {
      "addMilkBatch(address,address,uint256,string,uint256)": {
        "notice": "Funzione addMilkBatch() -> Utilizzata dal Transaction Manager per poter inserire il MilkBatch Acquistato  Scollego questa logica, ammettendo che il CheeseProducer pu testare la logica di conversione  params :  - walletCheeseProducer -> mi serve per il mapping  - walletMilkHub -> mi serve per creare il nuovo elemento   - id_milkBatch -> mi serve per il riferimento all'elemento acquistato"
      },
      "isMilkBatchPresent(address,uint256)": {
        "notice": "Funzione per la verifica dell'esistenza del prodotto MilkBatch acquistato  - ritorna TRUE se esiste  - ritorna FALSe se non esiste  - effettua il controllo sull'uguaglianza dell'id del MilkBatch Acquistato"
      }
    },
    "version": 1
  }
}