{
  "contractName": "CheeseProducerBuyerStorage",
  "abi": [
    {
      "inputs": [],
      "stateMutability": "nonpayable",
      "type": "constructor"
    },
    {
      "inputs": [
        {
          "internalType": "address",
          "name": "walletCheeseProducer",
          "type": "address"
        },
        {
          "internalType": "address",
          "name": "walletMilkHub",
          "type": "address"
        },
        {
          "internalType": "uint256",
          "name": "idMilkBatch",
          "type": "uint256"
        },
        {
          "internalType": "string",
          "name": "expirationDate",
          "type": "string"
        },
        {
          "internalType": "uint256",
          "name": "quantity",
          "type": "uint256"
        }
      ],
      "name": "addMilkBatch",
      "outputs": [
        {
          "internalType": "uint256",
          "name": "",
          "type": "uint256"
        },
        {
          "internalType": "string",
          "name": "",
          "type": "string"
        },
        {
          "internalType": "uint256",
          "name": "",
          "type": "uint256"
        }
      ],
      "stateMutability": "nonpayable",
      "type": "function"
    },
    {
      "inputs": [
        {
          "internalType": "address",
          "name": "walletCheeseProducer",
          "type": "address"
        },
        {
          "internalType": "uint256",
          "name": "idMilkBatch",
          "type": "uint256"
        }
      ],
      "name": "getMilkBatch",
      "outputs": [
        {
          "internalType": "uint256",
          "name": "",
          "type": "uint256"
        },
        {
          "internalType": "address",
          "name": "",
          "type": "address"
        },
        {
          "internalType": "string",
          "name": "",
          "type": "string"
        },
        {
          "internalType": "uint256",
          "name": "",
          "type": "uint256"
        }
      ],
      "stateMutability": "view",
      "type": "function"
    },
    {
      "inputs": [
        {
          "internalType": "address",
          "name": "walletCheeseProducer",
          "type": "address"
        }
      ],
      "name": "getUserMilkBatchIds",
      "outputs": [
        {
          "internalType": "uint256[]",
          "name": "",
          "type": "uint256[]"
        }
      ],
      "stateMutability": "view",
      "type": "function"
    },
    {
      "inputs": [
        {
          "internalType": "address",
          "name": "walletCheeseProducer",
          "type": "address"
        },
        {
          "internalType": "uint256",
          "name": "idMilkBatch",
          "type": "uint256"
        }
      ],
      "name": "isMilkBatchPresent",
      "outputs": [
        {
          "internalType": "bool",
          "name": "",
          "type": "bool"
        }
      ],
      "stateMutability": "view",
      "type": "function"
    },
    {
      "inputs": [
        {
          "internalType": "address",
          "name": "walletCheeseProducer",
          "type": "address"
        },
        {
          "internalType": "uint256",
          "name": "id",
          "type": "uint256"
        },
        {
          "internalType": "uint256",
          "name": "newQuantity",
          "type": "uint256"
        }
      ],
      "name": "updateMilkBatchQuantity",
      "outputs": [],
      "stateMutability": "nonpayable",
      "type": "function"
    },
    {
      "inputs": [
        {
          "internalType": "address",
          "name": "walletCheeseProducer",
          "type": "address"
        },
        {
          "internalType": "uint256",
          "name": "id",
          "type": "uint256"
        }
      ],
      "name": "getExpirationDate",
      "outputs": [
        {
          "internalType": "string",
          "name": "",
          "type": "string"
        }
      ],
      "stateMutability": "view",
      "type": "function"
    },
    {
      "inputs": [
        {
          "internalType": "address",
          "name": "walletCheeseProducer",
          "type": "address"
        },
        {
          "internalType": "uint256",
          "name": "id",
          "type": "uint256"
        }
      ],
      "name": "getQuantity",
      "outputs": [
        {
          "internalType": "uint256",
          "name": "",
          "type": "uint256"
        }
      ],
      "stateMutability": "view",
      "type": "function"
    },
    {
      "inputs": [
        {
          "internalType": "address",
          "name": "walletCheeseProducer",
          "type": "address"
        },
        {
          "internalType": "uint256",
          "name": "id",
          "type": "uint256"
        }
      ],
      "name": "getWalletMilkHub",
      "outputs": [
        {
          "internalType": "address",
          "name": "",
          "type": "address"
        }
      ],
      "stateMutability": "view",
      "type": "function"
    },
    {
      "inputs": [
        {
          "internalType": "address",
          "name": "walletCheeseProducer",
          "type": "address"
        },
        {
          "internalType": "uint256",
          "name": "id",
          "type": "uint256"
        },
        {
          "internalType": "uint256",
          "name": "quantityToTransform",
          "type": "uint256"
        }
      ],
      "name": "checkMilkBatch",
      "outputs": [
        {
          "internalType": "bool",
          "name": "",
          "type": "bool"
        }
      ],
      "stateMutability": "view",
      "type": "function"
    },
    {
      "inputs": [
        {
          "internalType": "address",
          "name": "walletCheeseProducer",
          "type": "address"
        },
        {
          "internalType": "uint256",
          "name": "id",
          "type": "uint256"
        },
        {
          "internalType": "uint256",
          "name": "quantityToTransform",
          "type": "uint256"
        }
      ],
      "name": "checkQuantity",
      "outputs": [
        {
          "internalType": "bool",
          "name": "",
          "type": "bool"
        }
      ],
      "stateMutability": "view",
      "type": "function"
    }
  ],
  "bytecode": "0x608060405234801561001057600080fd5b50336000806101000a81548173ffffffffffffffffffffffffffffffffffffffff021916908373ffffffffffffffffffffffffffffffffffffffff160217905550611ba3806100606000396000f3fe608060405234801561001057600080fd5b506004361061009e5760003560e01c8063a748926911610066578063a748926914610193578063cb6f5eee146101c3578063ce4fcf23146101df578063d0edfccc14610212578063dd937b01146102425761009e565b806302d805f6146100a35780630803da24146100d35780631d49cc62146101035780631e073fcf146101335780639f2b689814610163575b600080fd5b6100bd60048036038101906100b89190611076565b610274565b6040516100ca91906110d1565b60405180910390f35b6100ed60048036038101906100e891906110ec565b610323565b6040516100fa91906110d1565b60405180910390f35b61011d6004803603810190610118919061113f565b6103cb565b60405161012a919061122a565b60405180910390f35b61014d60048036038101906101489190611076565b610462565b60405161015a919061125b565b60405180910390f35b61017d60048036038101906101789190611076565b6105d6565b60405161018a9190611306565b60405180910390f35b6101ad60048036038101906101a891906110ec565b61074b565b6040516101ba91906110d1565b60405180910390f35b6101dd60048036038101906101d891906110ec565b610889565b005b6101f960048036038101906101f49190611076565b61097c565b6040516102099493929190611337565b60405180910390f35b61022c60048036038101906102279190611076565b610b0d565b6040516102399190611383565b60405180910390f35b61025c600480360381019061025791906114d3565b610c81565b60405161026b9392919061156a565b60405180910390f35b60008082141580156102865750600082115b6102c5576040517f08c379a00000000000000000000000000000000000000000000000000000000081526004016102bc906115f4565b60405180910390fd5b81600160008573ffffffffffffffffffffffffffffffffffffffff1673ffffffffffffffffffffffffffffffffffffffff16815260200190815260200160002060008481526020019081526020016000206000015414905092915050565b600080600160008673ffffffffffffffffffffffffffffffffffffffff1673ffffffffffffffffffffffffffffffffffffffff1681526020019081526020016000206000858152602001908152602001600020905082816004015410156103bf576040517f08c379a00000000000000000000000000000000000000000000000000000000081526004016103b690611660565b60405180910390fd5b60019150509392505050565b6060600260008373ffffffffffffffffffffffffffffffffffffffff1673ffffffffffffffffffffffffffffffffffffffff16815260200190815260200160002080548060200260200160405190810160405280929190818152602001828054801561045657602002820191906000526020600020905b815481526020019060010190808311610442575b50505050509050919050565b600080600160008573ffffffffffffffffffffffffffffffffffffffff1673ffffffffffffffffffffffffffffffffffffffff16815260200190815260200160002060008481526020019081526020016000206040518060a001604052908160008201548152602001600182015481526020016002820160009054906101000a900473ffffffffffffffffffffffffffffffffffffffff1673ffffffffffffffffffffffffffffffffffffffff1673ffffffffffffffffffffffffffffffffffffffff16815260200160038201805461053a906116af565b80601f0160208091040260200160405190810160405280929190818152602001828054610566906116af565b80156105b35780601f10610588576101008083540402835291602001916105b3565b820191906000526020600020905b81548152906001019060200180831161059657829003601f168201915b505050505081526020016004820154815250509050806080015191505092915050565b60606000600160008573ffffffffffffffffffffffffffffffffffffffff1673ffffffffffffffffffffffffffffffffffffffff16815260200190815260200160002060008481526020019081526020016000206040518060a001604052908160008201548152602001600182015481526020016002820160009054906101000a900473ffffffffffffffffffffffffffffffffffffffff1673ffffffffffffffffffffffffffffffffffffffff1673ffffffffffffffffffffffffffffffffffffffff1681526020016003820180546106af906116af565b80601f01602080910402602001604051908101604052809291908181526020018280546106db906116af565b80156107285780601f106106fd57610100808354040283529160200191610728565b820191906000526020600020905b81548152906001019060200180831161070b57829003601f168201915b505050505081526020016004820154815250509050806060015191505092915050565b600082600160008673ffffffffffffffffffffffffffffffffffffffff1673ffffffffffffffffffffffffffffffffffffffff168152602001908152602001600020600085815260200190815260200160002060000154146107e2576040517f08c379a00000000000000000000000000000000000000000000000000000000081526004016107d99061172c565b60405180910390fd5b6000600160008673ffffffffffffffffffffffffffffffffffffffff1673ffffffffffffffffffffffffffffffffffffffff16815260200190815260200160002060008581526020019081526020016000209050828160040154101561087d576040517f08c379a000000000000000000000000000000000000000000000000000000000815260040161087490611660565b60405180910390fd5b60019150509392505050565b600160008473ffffffffffffffffffffffffffffffffffffffff1673ffffffffffffffffffffffffffffffffffffffff16815260200190815260200160002060008381526020019081526020016000206004015481111561091f576040517f08c379a0000000000000000000000000000000000000000000000000000000008152600401610916906117be565b60405180910390fd5b80600160008573ffffffffffffffffffffffffffffffffffffffff1673ffffffffffffffffffffffffffffffffffffffff168152602001908152602001600020600084815260200190815260200160002060040181905550505050565b6000806060600080600160008873ffffffffffffffffffffffffffffffffffffffff1673ffffffffffffffffffffffffffffffffffffffff16815260200190815260200160002060008781526020019081526020016000206040518060a001604052908160008201548152602001600182015481526020016002820160009054906101000a900473ffffffffffffffffffffffffffffffffffffffff1673ffffffffffffffffffffffffffffffffffffffff1673ffffffffffffffffffffffffffffffffffffffff168152602001600382018054610a59906116af565b80601f0160208091040260200160405190810160405280929190818152602001828054610a85906116af565b8015610ad25780601f10610aa757610100808354040283529160200191610ad2565b820191906000526020600020905b815481529060010190602001808311610ab557829003601f168201915b505050505081526020016004820154815250509050806000015181604001518260600151836080015194509450945094505092959194509250565b600080600160008573ffffffffffffffffffffffffffffffffffffffff1673ffffffffffffffffffffffffffffffffffffffff16815260200190815260200160002060008481526020019081526020016000206040518060a001604052908160008201548152602001600182015481526020016002820160009054906101000a900473ffffffffffffffffffffffffffffffffffffffff1673ffffffffffffffffffffffffffffffffffffffff1673ffffffffffffffffffffffffffffffffffffffff168152602001600382018054610be5906116af565b80601f0160208091040260200160405190810160405280929190818152602001828054610c11906116af565b8015610c5e5780601f10610c3357610100808354040283529160200191610c5e565b820191906000526020600020905b815481529060010190602001808311610c4157829003601f168201915b505050505081526020016004820154815250509050806040015191505092915050565b6000606060008085858a8a8a42604051602001610ca396959493929190611883565b6040516020818303038152906040528051906020012060001c905060006040518060a001604052808381526020018981526020018a73ffffffffffffffffffffffffffffffffffffffff16815260200188815260200187815250905080600160008c73ffffffffffffffffffffffffffffffffffffffff1673ffffffffffffffffffffffffffffffffffffffff1681526020019081526020016000206000848152602001908152602001600020600082015181600001556020820151816001015560408201518160020160006101000a81548173ffffffffffffffffffffffffffffffffffffffff021916908373ffffffffffffffffffffffffffffffffffffffff1602179055506060820151816003019081610dc09190611a9b565b5060808201518160040155905050600260008b73ffffffffffffffffffffffffffffffffffffffff1673ffffffffffffffffffffffffffffffffffffffff168152602001908152602001600020829080600181540180825580915050600190039060005260206000200160009091909190915055600160008b73ffffffffffffffffffffffffffffffffffffffff1673ffffffffffffffffffffffffffffffffffffffff168152602001908152602001600020600083815260200190815260200160002060000154600160008c73ffffffffffffffffffffffffffffffffffffffff1673ffffffffffffffffffffffffffffffffffffffff1681526020019081526020016000206000848152602001908152602001600020600301600160008d73ffffffffffffffffffffffffffffffffffffffff1673ffffffffffffffffffffffffffffffffffffffff168152602001908152602001600020600085815260200190815260200160002060040154818054610f3b906116af565b80601f0160208091040260200160405190810160405280929190818152602001828054610f67906116af565b8015610fb45780601f10610f8957610100808354040283529160200191610fb4565b820191906000526020600020905b815481529060010190602001808311610f9757829003601f168201915b505050505091509450945094505050955095509592505050565b6000604051905090565b600080fd5b600080fd5b600073ffffffffffffffffffffffffffffffffffffffff82169050919050565b600061100d82610fe2565b9050919050565b61101d81611002565b811461102857600080fd5b50565b60008135905061103a81611014565b92915050565b6000819050919050565b61105381611040565b811461105e57600080fd5b50565b6000813590506110708161104a565b92915050565b6000806040838503121561108d5761108c610fd8565b5b600061109b8582860161102b565b92505060206110ac85828601611061565b9150509250929050565b60008115159050919050565b6110cb816110b6565b82525050565b60006020820190506110e660008301846110c2565b92915050565b60008060006060848603121561110557611104610fd8565b5b60006111138682870161102b565b935050602061112486828701611061565b925050604061113586828701611061565b9150509250925092565b60006020828403121561115557611154610fd8565b5b60006111638482850161102b565b91505092915050565b600081519050919050565b600082825260208201905092915050565b6000819050602082019050919050565b6111a181611040565b82525050565b60006111b38383611198565b60208301905092915050565b6000602082019050919050565b60006111d78261116c565b6111e18185611177565b93506111ec83611188565b8060005b8381101561121d57815161120488826111a7565b975061120f836111bf565b9250506001810190506111f0565b5085935050505092915050565b6000602082019050818103600083015261124481846111cc565b905092915050565b61125581611040565b82525050565b6000602082019050611270600083018461124c565b92915050565b600081519050919050565b600082825260208201905092915050565b60005b838110156112b0578082015181840152602081019050611295565b60008484015250505050565b6000601f19601f8301169050919050565b60006112d882611276565b6112e28185611281565b93506112f2818560208601611292565b6112fb816112bc565b840191505092915050565b6000602082019050818103600083015261132081846112cd565b905092915050565b61133181611002565b82525050565b600060808201905061134c600083018761124c565b6113596020830186611328565b818103604083015261136b81856112cd565b905061137a606083018461124c565b95945050505050565b60006020820190506113986000830184611328565b92915050565b600080fd5b600080fd5b7f4e487b7100000000000000000000000000000000000000000000000000000000600052604160045260246000fd5b6113e0826112bc565b810181811067ffffffffffffffff821117156113ff576113fe6113a8565b5b80604052505050565b6000611412610fce565b905061141e82826113d7565b919050565b600067ffffffffffffffff82111561143e5761143d6113a8565b5b611447826112bc565b9050602081019050919050565b82818337600083830152505050565b600061147661147184611423565b611408565b905082815260208101848484011115611492576114916113a3565b5b61149d848285611454565b509392505050565b600082601f8301126114ba576114b961139e565b5b81356114ca848260208601611463565b91505092915050565b600080600080600060a086880312156114ef576114ee610fd8565b5b60006114fd8882890161102b565b955050602061150e8882890161102b565b945050604061151f88828901611061565b935050606086013567ffffffffffffffff8111156115405761153f610fdd565b5b61154c888289016114a5565b925050608061155d88828901611061565b9150509295509295909350565b600060608201905061157f600083018661124c565b818103602083015261159181856112cd565b90506115a0604083018461124c565b949350505050565b7f4944204d696c6b4261746368204e6f742056616c696421000000000000000000600082015250565b60006115de601783611281565b91506115e9826115a8565b602082019050919050565b6000602082019050818103600083015261160d816115d1565b9050919050565b7f5175616e74697479206e6f742056616c69642100000000000000000000000000600082015250565b600061164a601383611281565b915061165582611614565b602082019050919050565b600060208201905081810360008301526116798161163d565b9050919050565b7f4e487b7100000000000000000000000000000000000000000000000000000000600052602260045260246000fd5b600060028204905060018216806116c757607f821691505b6020821081036116da576116d9611680565b5b50919050565b7f50617274697461206469204c61747465206e6f6e2070726573656e7465210000600082015250565b6000611716601e83611281565b9150611721826116e0565b602082019050919050565b6000602082019050818103600083015261174581611709565b9050919050565b7f436f6e74726f6c6c6f2064656c6c61205175616e74697461272064612075746960008201527f6c697a7a617265206e6f6e20616e6461746120612062756f6e2066696e652100602082015250565b60006117a8603f83611281565b91506117b38261174c565b604082019050919050565b600060208201905081810360008301526117d78161179b565b9050919050565b600081905092915050565b60006117f482611276565b6117fe81856117de565b935061180e818560208601611292565b80840191505092915050565b6000819050919050565b61183561183082611040565b61181a565b82525050565b60008160601b9050919050565b60006118538261183b565b9050919050565b600061186582611848565b9050919050565b61187d61187882611002565b61185a565b82525050565b600061188f82896117e9565b915061189b8288611824565b6020820191506118ab828761186c565b6014820191506118bb828661186c565b6014820191506118cb8285611824565b6020820191506118db8284611824565b602082019150819050979650505050505050565b60008190508160005260206000209050919050565b60006020601f8301049050919050565b600082821b905092915050565b6000600883026119517fffffffffffffffffffffffffffffffffffffffffffffffffffffffffffffffff82611914565b61195b8683611914565b95508019841693508086168417925050509392505050565b6000819050919050565b600061199861199361198e84611040565b611973565b611040565b9050919050565b6000819050919050565b6119b28361197d565b6119c66119be8261199f565b848454611921565b825550505050565b600090565b6119db6119ce565b6119e68184846119a9565b505050565b5b81811015611a0a576119ff6000826119d3565b6001810190506119ec565b5050565b601f821115611a4f57611a20816118ef565b611a2984611904565b81016020851015611a38578190505b611a4c611a4485611904565b8301826119eb565b50505b505050565b600082821c905092915050565b6000611a7260001984600802611a54565b1980831691505092915050565b6000611a8b8383611a61565b9150826002028217905092915050565b611aa482611276565b67ffffffffffffffff811115611abd57611abc6113a8565b5b611ac782546116af565b611ad2828285611a0e565b600060209050601f831160018114611b055760008415611af3578287015190505b611afd8582611a7f565b865550611b65565b601f198416611b13866118ef565b60005b82811015611b3b57848901518255600182019150602085019450602081019050611b16565b86831015611b585784890151611b54601f891682611a61565b8355505b6001600288020188555050505b50505050505056fea2646970667358221220eabbefabd7dd40ec1c1b10662caa00fc7769a19713008b0b4964613cb7e977d964736f6c63430008180033",
  "immutableReferences": {},
  "source": "// SPDX-License-Identifier: MIT\r\npragma solidity ^0.8.0;\r\n\r\n//Smart Contract per lo storage dei MilkHub acquistati dal CheeseProducer\r\ncontract CheeseProducerBuyerStorage {\r\n\r\n    // Address of Organization che gestisce gli utenti\r\n    address private cheeseProducerOrg;\r\n\r\n    constructor() {\r\n        cheeseProducerOrg = msg.sender;\r\n    }\r\n\r\n    struct MilkBatch {\r\n        uint256 id; // Generato nuovo per il CheeseProducer \r\n        uint256 idMilkBatch; // id di riferimento del MilkBatch \r\n        address walletMilkHub; // Address del Wallet del MilkHub \r\n        string expirationDate; // Data di scadenza \r\n        uint256 quantity; // Quantit da acquistare \r\n    }\r\n\r\n    mapping(address => mapping(uint256 => MilkBatch)) private purchasedMilkBatches; // map of all MilkBatches\r\n\r\n    mapping(address => uint256[]) private userMilkBatchIds; // List of Product Purchased of CheeseProducer \r\n\r\n\r\n//--------------------------------------------------------------- Business Logic Service -----------------------------------------------------------------------------------------//\r\n\r\n\r\n    /**\r\n    *\r\n    * Funzione addMilkBatch() -> Utilizzata dal Transaction Manager per poter inserire il MilkBatch Acquistato \r\n    * Scollego questa logica, ammettendo che il CheeseProducer pu testare la logica di conversione \r\n    * params : \r\n    * - walletCheeseProducer -> mi serve per il mapping \r\n    * - walletMilkHub -> mi serve per creare il nuovo elemento  \r\n    * - idmilkBatch -> mi serve per il riferimento all'elemento acquistato\r\n    */\r\n    function addMilkBatch( \r\n        \r\n            address walletCheeseProducer, \r\n            address walletMilkHub, // Riferimento al wallet del MilkHub \r\n            uint256 idMilkBatch, // riferimento al prodotto di MilkBatch \r\n            string memory expirationDate,\r\n            uint256 quantity\r\n        \r\n        ) external returns (uint256, string memory, uint256){\r\n\r\n        uint256 id = uint256(keccak256(abi.encodePacked(\r\n            expirationDate,\r\n            quantity,\r\n            walletCheeseProducer,\r\n            walletMilkHub,\r\n            idMilkBatch,\r\n            block.timestamp // inserimento di questo attributo per rendere l'acquisto unico nel suo genere \r\n            // l'articolo in questo modo pu essere riacquistato dallo stesso cheeseProducer un'altra volta \r\n        )));\r\n\r\n\r\n        //Crea una nuova Partita di Latte\r\n        MilkBatch memory milkBatch = MilkBatch({\r\n            id: id,\r\n            idMilkBatch: idMilkBatch,\r\n            walletMilkHub: walletMilkHub,\r\n            expirationDate: expirationDate,\r\n            quantity: quantity\r\n        });\r\n\r\n        //Inserisce la nuova Partita di Latte nella lista purchasedMilkBatches\r\n        purchasedMilkBatches[walletCheeseProducer][id] = milkBatch;\r\n        // Inserisce la partita di latte acquistata nell'elenco delle singole partite di latte \r\n        userMilkBatchIds[walletCheeseProducer].push(id);\r\n\r\n        return (purchasedMilkBatches[walletCheeseProducer][id].id, purchasedMilkBatches[walletCheeseProducer][id].expirationDate, purchasedMilkBatches[walletCheeseProducer][id].quantity);\r\n\r\n    }\r\n\r\n\r\n    function getMilkBatch(address walletCheeseProducer, uint256 idMilkBatch) external view returns (uint256, address, string memory, uint256) {\r\n\r\n        MilkBatch memory milkBatch = purchasedMilkBatches[walletCheeseProducer][idMilkBatch];\r\n\r\n        return (milkBatch.id, milkBatch.walletMilkHub, milkBatch.expirationDate, milkBatch.quantity);\r\n    }\r\n\r\n    function getUserMilkBatchIds(address walletCheeseProducer)external view returns (uint256[] memory){\r\n        \r\n        return userMilkBatchIds[walletCheeseProducer];\r\n    }\r\n\r\n\r\n    /**\r\n    * Funzione per la verifica dell'esistenza del prodotto MilkBatch acquistato \r\n    * - ritorna TRUE se esiste \r\n    * - ritorna FALSe se non esiste \r\n    * - effettua il controllo sull'uguaglianza dell'id del MilkBatch Acquistato\r\n    */\r\n    function isMilkBatchPresent(address walletCheeseProducer, uint256 idMilkBatch)external view returns(bool){\r\n        require( idMilkBatch !=0 && idMilkBatch>0,\"ID MilkBatch Not Valid!\");\r\n\r\n        return purchasedMilkBatches[walletCheeseProducer][idMilkBatch].id == idMilkBatch;\r\n    }\r\n\r\n// -------------------------------------------------------------- Set Function ------------------------------------------------------------------------------------------//\r\n\r\n\r\n\r\n    // - Funzione updateMilkBatchQuantity() aggiorna la quantit del MilkBatch \r\n    function updateMilkBatchQuantity(address walletCheeseProducer, uint256 id, uint256 newQuantity) external  {\r\n        // Controllo sulla quantita' \r\n        require(newQuantity<=purchasedMilkBatches[walletCheeseProducer][id].quantity,\"Controllo della Quantita' da utilizzare non andata a buon fine!\");\r\n\r\n        purchasedMilkBatches[walletCheeseProducer][id].quantity = newQuantity;\r\n    }\r\n\r\n\r\n// -------------------------------------------------------------- Get Function ------------------------------------------------------------------------------------------//\r\n\r\n\r\n\r\n    function getExpirationDate(address walletCheeseProducer, uint256 id) external view returns(string memory) {\r\n\r\n        MilkBatch memory milkBatch = purchasedMilkBatches[walletCheeseProducer][id];\r\n        return milkBatch.expirationDate;\r\n    }\r\n\r\n    function getQuantity(address walletCheeseProducer, uint256 id) external view returns(uint256) {\r\n\r\n        MilkBatch memory milkBatch = purchasedMilkBatches[walletCheeseProducer][id];\r\n        return milkBatch.quantity;        \r\n    }\r\n\r\n    function getWalletMilkHub(address walletCheeseProducer, uint256 id) external view returns(address) {\r\n\r\n        MilkBatch memory milkBatch = purchasedMilkBatches[walletCheeseProducer][id];\r\n        return milkBatch.walletMilkHub;\r\n    }\r\n\r\n\r\n// -------------------------------------------------------------- Check Function ------------------------------------------------------------------------------------------//\r\n\r\n\r\n    function checkMilkBatch(address walletCheeseProducer, uint256 id, uint256 quantityToTransform) external view returns(bool) {\r\n        require(purchasedMilkBatches[walletCheeseProducer][id].id == id, \"Partita di Latte non presente!\");\r\n\r\n        MilkBatch storage milkBatchObj = purchasedMilkBatches[walletCheeseProducer][id];\r\n            \r\n        require(milkBatchObj.quantity >= quantityToTransform, \"Quantity not Valid!\");\r\n        return true;    \r\n    }\r\n\r\n\r\n    function checkQuantity(address walletCheeseProducer,  uint256 id, uint256 quantityToTransform ) external view returns(bool){\r\n        \r\n        MilkBatch storage milkBatchObj = purchasedMilkBatches[walletCheeseProducer][id];\r\n            \r\n        require(milkBatchObj.quantity >= quantityToTransform, \"Quantity not Valid!\");\r\n\r\n        return true;    \r\n    }\r\n    \r\n}",
  "sourcePath": "C:\\Users\\umber\\Progetti\\FilieraToken\\Filiera-Token-Smart-Contract\\contracts\\Actor\\CheeseProducer-smart-contract\\inventory\\CheeseProducerBuyerStorage.sol",
  "compiler": {
    "name": "solc",
    "version": "0.8.24+commit.e11b9ed9.Emscripten.clang"
  },
  "schemaVersion": "3.4.16",
  "updatedAt": "2024-03-04T16:23:25.749Z",
  "devdoc": {
    "kind": "dev",
    "methods": {},
    "version": 1
  },
  "userdoc": {
    "kind": "user",
    "methods": {
      "addMilkBatch(address,address,uint256,string,uint256)": {
        "notice": "Funzione addMilkBatch() -> Utilizzata dal Transaction Manager per poter inserire il MilkBatch Acquistato  Scollego questa logica, ammettendo che il CheeseProducer pu testare la logica di conversione  params :  - walletCheeseProducer -> mi serve per il mapping  - walletMilkHub -> mi serve per creare il nuovo elemento   - idmilkBatch -> mi serve per il riferimento all'elemento acquistato"
      },
      "isMilkBatchPresent(address,uint256)": {
        "notice": "Funzione per la verifica dell'esistenza del prodotto MilkBatch acquistato  - ritorna TRUE se esiste  - ritorna FALSe se non esiste  - effettua il controllo sull'uguaglianza dell'id del MilkBatch Acquistato"
      }
    },
    "version": 1
  }
}