{
  "contractName": "CheeseProducerService",
  "abi": [
    {
      "inputs": [
        {
          "internalType": "address",
          "name": "_cheeseProducerStorage",
          "type": "address"
        },
        {
          "internalType": "address",
          "name": "_filieraToken",
          "type": "address"
        }
      ],
      "stateMutability": "nonpayable",
      "type": "constructor"
    },
    {
      "anonymous": false,
      "inputs": [
        {
          "indexed": true,
          "internalType": "address",
          "name": "walletCheeseProducer",
          "type": "address"
        },
        {
          "indexed": false,
          "internalType": "string",
          "name": "message",
          "type": "string"
        }
      ],
      "name": "CheeseProducerDeleted",
      "type": "event"
    },
    {
      "anonymous": false,
      "inputs": [
        {
          "indexed": true,
          "internalType": "address",
          "name": "walletCheeseProducer",
          "type": "address"
        },
        {
          "indexed": false,
          "internalType": "string",
          "name": "fullName",
          "type": "string"
        },
        {
          "indexed": false,
          "internalType": "string",
          "name": "message",
          "type": "string"
        }
      ],
      "name": "CheeseProducerRegistered",
      "type": "event"
    },
    {
      "inputs": [
        {
          "internalType": "string",
          "name": "fullName",
          "type": "string"
        },
        {
          "internalType": "string",
          "name": "password",
          "type": "string"
        },
        {
          "internalType": "string",
          "name": "email",
          "type": "string"
        },
        {
          "internalType": "address",
          "name": "walletCheeseProducer",
          "type": "address"
        }
      ],
      "name": "registerCheeseProducer",
      "outputs": [],
      "stateMutability": "nonpayable",
      "type": "function"
    },
    {
      "inputs": [
        {
          "internalType": "address",
          "name": "walletCheeseProducer",
          "type": "address"
        },
        {
          "internalType": "string",
          "name": "email",
          "type": "string"
        },
        {
          "internalType": "string",
          "name": "password",
          "type": "string"
        }
      ],
      "name": "login",
      "outputs": [
        {
          "internalType": "bool",
          "name": "",
          "type": "bool"
        }
      ],
      "stateMutability": "view",
      "type": "function"
    },
    {
      "inputs": [
        {
          "internalType": "address",
          "name": "walletCheeseProducer",
          "type": "address"
        },
        {
          "internalType": "uint256",
          "name": "_id",
          "type": "uint256"
        }
      ],
      "name": "deleteCheeseProducer",
      "outputs": [],
      "stateMutability": "nonpayable",
      "type": "function"
    },
    {
      "inputs": [
        {
          "internalType": "address",
          "name": "walletCheeseProducer",
          "type": "address"
        }
      ],
      "name": "isUserPresent",
      "outputs": [
        {
          "internalType": "bool",
          "name": "",
          "type": "bool"
        }
      ],
      "stateMutability": "view",
      "type": "function"
    },
    {
      "inputs": [
        {
          "internalType": "address",
          "name": "walletCheeseProducer",
          "type": "address"
        }
      ],
      "name": "getCheeseProducerId",
      "outputs": [
        {
          "internalType": "uint256",
          "name": "",
          "type": "uint256"
        }
      ],
      "stateMutability": "view",
      "type": "function"
    },
    {
      "inputs": [
        {
          "internalType": "address",
          "name": "walletCheeseProducer",
          "type": "address"
        },
        {
          "internalType": "uint256",
          "name": "_id",
          "type": "uint256"
        }
      ],
      "name": "getCheeseProducerFullName",
      "outputs": [
        {
          "internalType": "string",
          "name": "",
          "type": "string"
        }
      ],
      "stateMutability": "view",
      "type": "function"
    },
    {
      "inputs": [
        {
          "internalType": "address",
          "name": "walletCheeseProducer",
          "type": "address"
        },
        {
          "internalType": "uint256",
          "name": "_id",
          "type": "uint256"
        }
      ],
      "name": "getCheeseProducerEmail",
      "outputs": [
        {
          "internalType": "string",
          "name": "",
          "type": "string"
        }
      ],
      "stateMutability": "view",
      "type": "function"
    },
    {
      "inputs": [
        {
          "internalType": "address",
          "name": "walletCheeseProducer",
          "type": "address"
        },
        {
          "internalType": "uint256",
          "name": "_id",
          "type": "uint256"
        }
      ],
      "name": "getCheeseProducerBalance",
      "outputs": [
        {
          "internalType": "uint256",
          "name": "",
          "type": "uint256"
        }
      ],
      "stateMutability": "view",
      "type": "function"
    },
    {
      "inputs": [
        {
          "internalType": "address",
          "name": "walletCheeseProducer",
          "type": "address"
        },
        {
          "internalType": "uint256",
          "name": "_id",
          "type": "uint256"
        }
      ],
      "name": "getCheeseProducerData",
      "outputs": [
        {
          "internalType": "uint256",
          "name": "",
          "type": "uint256"
        },
        {
          "internalType": "string",
          "name": "",
          "type": "string"
        },
        {
          "internalType": "string",
          "name": "",
          "type": "string"
        },
        {
          "internalType": "string",
          "name": "",
          "type": "string"
        },
        {
          "internalType": "uint256",
          "name": "",
          "type": "uint256"
        }
      ],
      "stateMutability": "view",
      "type": "function"
    },
    {
      "inputs": [
        {
          "internalType": "address",
          "name": "walletCheeseProducer",
          "type": "address"
        }
      ],
      "name": "getCheeseProducerInfo",
      "outputs": [
        {
          "internalType": "uint256",
          "name": "",
          "type": "uint256"
        },
        {
          "internalType": "string",
          "name": "",
          "type": "string"
        },
        {
          "internalType": "string",
          "name": "",
          "type": "string"
        }
      ],
      "stateMutability": "view",
      "type": "function"
    },
    {
      "inputs": [],
      "name": "getListAddressCheeseProducer",
      "outputs": [
        {
          "internalType": "address[]",
          "name": "",
          "type": "address[]"
        }
      ],
      "stateMutability": "view",
      "type": "function"
    },
    {
      "inputs": [
        {
          "internalType": "address",
          "name": "walletCheeseProducer",
          "type": "address"
        },
        {
          "internalType": "uint256",
          "name": "balance",
          "type": "uint256"
        }
      ],
      "name": "updateCheeseProducerBalance",
      "outputs": [],
      "stateMutability": "nonpayable",
      "type": "function"
    }
  ],
  "bytecode": "0x60806040523480156200001157600080fd5b5060405162003f9738038062003f9783398181016040528101906200003791906200016b565b816000806101000a81548173ffffffffffffffffffffffffffffffffffffffff021916908373ffffffffffffffffffffffffffffffffffffffff16021790555080600160006101000a81548173ffffffffffffffffffffffffffffffffffffffff021916908373ffffffffffffffffffffffffffffffffffffffff16021790555033600260006101000a81548173ffffffffffffffffffffffffffffffffffffffff021916908373ffffffffffffffffffffffffffffffffffffffff1602179055505050620001b2565b600080fd5b600073ffffffffffffffffffffffffffffffffffffffff82169050919050565b6000620001338262000106565b9050919050565b620001458162000126565b81146200015157600080fd5b50565b60008151905062000165816200013a565b92915050565b6000806040838503121562000185576200018462000101565b5b6000620001958582860162000154565b9250506020620001a88582860162000154565b9150509250929050565b613dd580620001c26000396000f3fe608060405234801561001057600080fd5b50600436106100b45760003560e01c8063793299371161007157806379329937146101b75780637ceb9806146101e75780637ed1636514610217578063a557880714610247578063d0c9ba9b14610277578063f5d5359f14610295576100b4565b80630de0d0d7146100b95780631c78787b146100d557806325c23a64146101055780632752fdb71461013557806329aa17701461016757806363301f6b14610183575b600080fd5b6100d360048036038101906100ce9190612e10565b6102b1565b005b6100ef60048036038101906100ea9190612f01565b61074f565b6040516100fc9190612fc0565b60405180910390f35b61011f600480360381019061011a9190612fe2565b610a19565b60405161012c919061301e565b60405180910390f35b61014f600480360381019061014a9190612fe2565b610cdb565b60405161015e93929190613039565b60405180910390f35b610181600480360381019061017c9190612f01565b6111b6565b005b61019d60048036038101906101989190612f01565b6117d0565b6040516101ae95949392919061307e565b60405180910390f35b6101d160048036038101906101cc91906130e6565b611c3f565b6040516101de919061318c565b60405180910390f35b61020160048036038101906101fc9190612f01565b611fc0565b60405161020e9190612fc0565b60405180910390f35b610231600480360381019061022c9190612f01565b61228a565b60405161023e919061301e565b60405180910390f35b610261600480360381019061025c9190612fe2565b61254f565b60405161026e919061318c565b60405180910390f35b61027f612811565b60405161028c9190613265565b60405180910390f35b6102af60048036038101906102aa9190612f01565b6128ac565b005b80600073ffffffffffffffffffffffffffffffffffffffff168173ffffffffffffffffffffffffffffffffffffffff1603610321576040517f08c379a0000000000000000000000000000000000000000000000000000000008152600401610318906132d3565b60405180910390fd5b60008054906101000a900473ffffffffffffffffffffffffffffffffffffffff1673ffffffffffffffffffffffffffffffffffffffff168173ffffffffffffffffffffffffffffffffffffffff16036103af576040517f08c379a00000000000000000000000000000000000000000000000000000000081526004016103a690613365565b60405180910390fd5b600160009054906101000a900473ffffffffffffffffffffffffffffffffffffffff1673ffffffffffffffffffffffffffffffffffffffff168173ffffffffffffffffffffffffffffffffffffffff160361043f576040517f08c379a0000000000000000000000000000000000000000000000000000000008152600401610436906133f7565b60405180910390fd5b600260009054906101000a900473ffffffffffffffffffffffffffffffffffffffff1673ffffffffffffffffffffffffffffffffffffffff168173ffffffffffffffffffffffffffffffffffffffff16036104cf576040517f08c379a00000000000000000000000000000000000000000000000000000000081526004016104c690613463565b60405180910390fd5b3073ffffffffffffffffffffffffffffffffffffffff1663a5578807836040518263ffffffff1660e01b81526004016105089190613492565b602060405180830381865afa158015610525573d6000803e3d6000fd5b505050506040513d601f19601f8201168201806040525081019061054991906134d9565b15610589576040517f08c379a000000000000000000000000000000000000000000000000000000000815260040161058090613552565b60405180910390fd5b60008054906101000a900473ffffffffffffffffffffffffffffffffffffffff1673ffffffffffffffffffffffffffffffffffffffff1663b48ff0f1868686866040518563ffffffff1660e01b81526004016105e89493929190613572565b600060405180830381600087803b15801561060257600080fd5b505af1158015610616573d6000803e3d6000fd5b50505050600160009054906101000a900473ffffffffffffffffffffffffffffffffffffffff1673ffffffffffffffffffffffffffffffffffffffff1663a2a7e6228360646040518363ffffffff1660e01b8152600401610678929190613611565b6020604051808303816000875af1158015610697573d6000803e3d6000fd5b505050506040513d601f19601f820116820180604052508101906106bb91906134d9565b6106fa576040517f08c379a00000000000000000000000000000000000000000000000000000000081526004016106f190613686565b60405180910390fd5b8173ffffffffffffffffffffffffffffffffffffffff167fb48cab1d9c4f013c511855d3f000f9ed54ebc309cdddaf4e8ded87873f7b2a50866040516107409190613718565b60405180910390a25050505050565b606082600073ffffffffffffffffffffffffffffffffffffffff168173ffffffffffffffffffffffffffffffffffffffff16036107c1576040517f08c379a00000000000000000000000000000000000000000000000000000000081526004016107b8906132d3565b60405180910390fd5b60008054906101000a900473ffffffffffffffffffffffffffffffffffffffff1673ffffffffffffffffffffffffffffffffffffffff168173ffffffffffffffffffffffffffffffffffffffff160361084f576040517f08c379a000000000000000000000000000000000000000000000000000000000815260040161084690613365565b60405180910390fd5b600160009054906101000a900473ffffffffffffffffffffffffffffffffffffffff1673ffffffffffffffffffffffffffffffffffffffff168173ffffffffffffffffffffffffffffffffffffffff16036108df576040517f08c379a00000000000000000000000000000000000000000000000000000000081526004016108d6906133f7565b60405180910390fd5b600260009054906101000a900473ffffffffffffffffffffffffffffffffffffffff1673ffffffffffffffffffffffffffffffffffffffff168173ffffffffffffffffffffffffffffffffffffffff160361096f576040517f08c379a000000000000000000000000000000000000000000000000000000000815260040161096690613463565b60405180910390fd5b60008054906101000a900473ffffffffffffffffffffffffffffffffffffffff1673ffffffffffffffffffffffffffffffffffffffff16636e44cd4285856040518363ffffffff1660e01b81526004016109ca92919061374d565b600060405180830381865afa1580156109e7573d6000803e3d6000fd5b505050506040513d6000823e3d601f19601f82011682018060405250810190610a1091906137e6565b91505092915050565b600081600073ffffffffffffffffffffffffffffffffffffffff168173ffffffffffffffffffffffffffffffffffffffff1603610a8b576040517f08c379a0000000000000000000000000000000000000000000000000000000008152600401610a82906132d3565b60405180910390fd5b60008054906101000a900473ffffffffffffffffffffffffffffffffffffffff1673ffffffffffffffffffffffffffffffffffffffff168173ffffffffffffffffffffffffffffffffffffffff1603610b19576040517f08c379a0000000000000000000000000000000000000000000000000000000008152600401610b1090613365565b60405180910390fd5b600160009054906101000a900473ffffffffffffffffffffffffffffffffffffffff1673ffffffffffffffffffffffffffffffffffffffff168173ffffffffffffffffffffffffffffffffffffffff1603610ba9576040517f08c379a0000000000000000000000000000000000000000000000000000000008152600401610ba0906133f7565b60405180910390fd5b600260009054906101000a900473ffffffffffffffffffffffffffffffffffffffff1673ffffffffffffffffffffffffffffffffffffffff168173ffffffffffffffffffffffffffffffffffffffff1603610c39576040517f08c379a0000000000000000000000000000000000000000000000000000000008152600401610c3090613463565b60405180910390fd5b60008054906101000a900473ffffffffffffffffffffffffffffffffffffffff1673ffffffffffffffffffffffffffffffffffffffff166365f68c89846040518263ffffffff1660e01b8152600401610c929190613492565b602060405180830381865afa158015610caf573d6000803e3d6000fd5b505050506040513d601f19601f82011682018060405250810190610cd39190613844565b915050919050565b600060608083600073ffffffffffffffffffffffffffffffffffffffff168173ffffffffffffffffffffffffffffffffffffffff1603610d50576040517f08c379a0000000000000000000000000000000000000000000000000000000008152600401610d47906132d3565b60405180910390fd5b60008054906101000a900473ffffffffffffffffffffffffffffffffffffffff1673ffffffffffffffffffffffffffffffffffffffff168173ffffffffffffffffffffffffffffffffffffffff1603610dde576040517f08c379a0000000000000000000000000000000000000000000000000000000008152600401610dd590613365565b60405180910390fd5b600160009054906101000a900473ffffffffffffffffffffffffffffffffffffffff1673ffffffffffffffffffffffffffffffffffffffff168173ffffffffffffffffffffffffffffffffffffffff1603610e6e576040517f08c379a0000000000000000000000000000000000000000000000000000000008152600401610e65906133f7565b60405180910390fd5b600260009054906101000a900473ffffffffffffffffffffffffffffffffffffffff1673ffffffffffffffffffffffffffffffffffffffff168173ffffffffffffffffffffffffffffffffffffffff1603610efe576040517f08c379a0000000000000000000000000000000000000000000000000000000008152600401610ef590613463565b60405180910390fd5b3073ffffffffffffffffffffffffffffffffffffffff1663a5578807866040518263ffffffff1660e01b8152600401610f379190613492565b602060405180830381865afa158015610f54573d6000803e3d6000fd5b505050506040513d601f19601f82011682018060405250810190610f7891906134d9565b610fb7576040517f08c379a0000000000000000000000000000000000000000000000000000000008152600401610fae906138bd565b60405180910390fd5b60008060009054906101000a900473ffffffffffffffffffffffffffffffffffffffff1673ffffffffffffffffffffffffffffffffffffffff166365f68c89876040518263ffffffff1660e01b81526004016110139190613492565b602060405180830381865afa158015611030573d6000803e3d6000fd5b505050506040513d601f19601f820116820180604052508101906110549190613844565b905060008060009054906101000a900473ffffffffffffffffffffffffffffffffffffffff1673ffffffffffffffffffffffffffffffffffffffff16636e44cd4288846040518363ffffffff1660e01b81526004016110b492919061374d565b600060405180830381865afa1580156110d1573d6000803e3d6000fd5b505050506040513d6000823e3d601f19601f820116820180604052508101906110fa91906137e6565b905060008060009054906101000a900473ffffffffffffffffffffffffffffffffffffffff1673ffffffffffffffffffffffffffffffffffffffff1663ecca407389856040518363ffffffff1660e01b815260040161115a92919061374d565b600060405180830381865afa158015611177573d6000803e3d6000fd5b505050506040513d6000823e3d601f19601f820116820180604052508101906111a091906137e6565b9050828282965096509650505050509193909250565b81600073ffffffffffffffffffffffffffffffffffffffff168173ffffffffffffffffffffffffffffffffffffffff1603611226576040517f08c379a000000000000000000000000000000000000000000000000000000000815260040161121d906132d3565b60405180910390fd5b60008054906101000a900473ffffffffffffffffffffffffffffffffffffffff1673ffffffffffffffffffffffffffffffffffffffff168173ffffffffffffffffffffffffffffffffffffffff16036112b4576040517f08c379a00000000000000000000000000000000000000000000000000000000081526004016112ab90613365565b60405180910390fd5b600160009054906101000a900473ffffffffffffffffffffffffffffffffffffffff1673ffffffffffffffffffffffffffffffffffffffff168173ffffffffffffffffffffffffffffffffffffffff1603611344576040517f08c379a000000000000000000000000000000000000000000000000000000000815260040161133b906133f7565b60405180910390fd5b600260009054906101000a900473ffffffffffffffffffffffffffffffffffffffff1673ffffffffffffffffffffffffffffffffffffffff168173ffffffffffffffffffffffffffffffffffffffff16036113d4576040517f08c379a00000000000000000000000000000000000000000000000000000000081526004016113cb90613463565b60405180910390fd5b3073ffffffffffffffffffffffffffffffffffffffff1663a5578807846040518263ffffffff1660e01b815260040161140d9190613492565b602060405180830381865afa15801561142a573d6000803e3d6000fd5b505050506040513d601f19601f8201168201806040525081019061144e91906134d9565b61148d576040517f08c379a000000000000000000000000000000000000000000000000000000000815260040161148490613929565b60405180910390fd5b8160008054906101000a900473ffffffffffffffffffffffffffffffffffffffff1673ffffffffffffffffffffffffffffffffffffffff166365f68c89856040518263ffffffff1660e01b81526004016114e79190613492565b602060405180830381865afa158015611504573d6000803e3d6000fd5b505050506040513d601f19601f820116820180604052508101906115289190613844565b14611568576040517f08c379a000000000000000000000000000000000000000000000000000000000815260040161155f90613995565b60405180910390fd5b60008054906101000a900473ffffffffffffffffffffffffffffffffffffffff1673ffffffffffffffffffffffffffffffffffffffff16635c60f226846040518263ffffffff1660e01b81526004016115c19190613492565b6020604051808303816000875af11580156115e0573d6000803e3d6000fd5b505050506040513d601f19601f8201168201806040525081019061160491906134d9565b611643576040517f08c379a000000000000000000000000000000000000000000000000000000000815260040161163a90613a01565b60405180910390fd5b600160009054906101000a900473ffffffffffffffffffffffffffffffffffffffff1673ffffffffffffffffffffffffffffffffffffffff1663d1df306c84600160009054906101000a900473ffffffffffffffffffffffffffffffffffffffff1673ffffffffffffffffffffffffffffffffffffffff166370a08231876040518263ffffffff1660e01b81526004016116dd9190613492565b602060405180830381865afa1580156116fa573d6000803e3d6000fd5b505050506040513d601f19601f8201168201806040525081019061171e9190613844565b6040518363ffffffff1660e01b815260040161173b92919061374d565b6020604051808303816000875af115801561175a573d6000803e3d6000fd5b505050506040513d601f19601f8201168201806040525081019061177e91906134d9565b508273ffffffffffffffffffffffffffffffffffffffff167f64fd228b09d01b8fdaff98d82309e3a1606f87847d0773bb917119328daa50e16040516117c390613a6d565b60405180910390a2505050565b60006060806060600086600073ffffffffffffffffffffffffffffffffffffffff168173ffffffffffffffffffffffffffffffffffffffff1603611849576040517f08c379a0000000000000000000000000000000000000000000000000000000008152600401611840906132d3565b60405180910390fd5b60008054906101000a900473ffffffffffffffffffffffffffffffffffffffff1673ffffffffffffffffffffffffffffffffffffffff168173ffffffffffffffffffffffffffffffffffffffff16036118d7576040517f08c379a00000000000000000000000000000000000000000000000000000000081526004016118ce90613365565b60405180910390fd5b600160009054906101000a900473ffffffffffffffffffffffffffffffffffffffff1673ffffffffffffffffffffffffffffffffffffffff168173ffffffffffffffffffffffffffffffffffffffff1603611967576040517f08c379a000000000000000000000000000000000000000000000000000000000815260040161195e906133f7565b60405180910390fd5b600260009054906101000a900473ffffffffffffffffffffffffffffffffffffffff1673ffffffffffffffffffffffffffffffffffffffff168173ffffffffffffffffffffffffffffffffffffffff16036119f7576040517f08c379a00000000000000000000000000000000000000000000000000000000081526004016119ee90613463565b60405180910390fd5b3073ffffffffffffffffffffffffffffffffffffffff1663a5578807896040518263ffffffff1660e01b8152600401611a309190613492565b602060405180830381865afa158015611a4d573d6000803e3d6000fd5b505050506040513d601f19601f82011682018060405250810190611a7191906134d9565b611ab0576040517f08c379a0000000000000000000000000000000000000000000000000000000008152600401611aa790613929565b60405180910390fd5b8660008054906101000a900473ffffffffffffffffffffffffffffffffffffffff1673ffffffffffffffffffffffffffffffffffffffff166365f68c898a6040518263ffffffff1660e01b8152600401611b0a9190613492565b602060405180830381865afa158015611b27573d6000803e3d6000fd5b505050506040513d601f19601f82011682018060405250810190611b4b9190613844565b14611b8b576040517f08c379a0000000000000000000000000000000000000000000000000000000008152600401611b8290613995565b60405180910390fd5b60008054906101000a900473ffffffffffffffffffffffffffffffffffffffff1673ffffffffffffffffffffffffffffffffffffffff16636f77926b896040518263ffffffff1660e01b8152600401611be49190613492565b600060405180830381865afa158015611c01573d6000803e3d6000fd5b505050506040513d6000823e3d601f19601f82011682018060405250810190611c2a9190613a8d565b95509550955095509550509295509295909350565b600083600073ffffffffffffffffffffffffffffffffffffffff168173ffffffffffffffffffffffffffffffffffffffff1603611cb1576040517f08c379a0000000000000000000000000000000000000000000000000000000008152600401611ca8906132d3565b60405180910390fd5b60008054906101000a900473ffffffffffffffffffffffffffffffffffffffff1673ffffffffffffffffffffffffffffffffffffffff168173ffffffffffffffffffffffffffffffffffffffff1603611d3f576040517f08c379a0000000000000000000000000000000000000000000000000000000008152600401611d3690613365565b60405180910390fd5b600160009054906101000a900473ffffffffffffffffffffffffffffffffffffffff1673ffffffffffffffffffffffffffffffffffffffff168173ffffffffffffffffffffffffffffffffffffffff1603611dcf576040517f08c379a0000000000000000000000000000000000000000000000000000000008152600401611dc6906133f7565b60405180910390fd5b600260009054906101000a900473ffffffffffffffffffffffffffffffffffffffff1673ffffffffffffffffffffffffffffffffffffffff168173ffffffffffffffffffffffffffffffffffffffff1603611e5f576040517f08c379a0000000000000000000000000000000000000000000000000000000008152600401611e5690613463565b60405180910390fd5b3073ffffffffffffffffffffffffffffffffffffffff1663a5578807866040518263ffffffff1660e01b8152600401611e989190613492565b602060405180830381865afa158015611eb5573d6000803e3d6000fd5b505050506040513d601f19601f82011682018060405250810190611ed991906134d9565b611f18576040517f08c379a0000000000000000000000000000000000000000000000000000000008152600401611f0f90613929565b60405180910390fd5b60008054906101000a900473ffffffffffffffffffffffffffffffffffffffff1673ffffffffffffffffffffffffffffffffffffffff166306f22b048686866040518463ffffffff1660e01b8152600401611f7593929190613b5c565b602060405180830381865afa158015611f92573d6000803e3d6000fd5b505050506040513d601f19601f82011682018060405250810190611fb691906134d9565b9150509392505050565b606082600073ffffffffffffffffffffffffffffffffffffffff168173ffffffffffffffffffffffffffffffffffffffff1603612032576040517f08c379a0000000000000000000000000000000000000000000000000000000008152600401612029906132d3565b60405180910390fd5b60008054906101000a900473ffffffffffffffffffffffffffffffffffffffff1673ffffffffffffffffffffffffffffffffffffffff168173ffffffffffffffffffffffffffffffffffffffff16036120c0576040517f08c379a00000000000000000000000000000000000000000000000000000000081526004016120b790613365565b60405180910390fd5b600160009054906101000a900473ffffffffffffffffffffffffffffffffffffffff1673ffffffffffffffffffffffffffffffffffffffff168173ffffffffffffffffffffffffffffffffffffffff1603612150576040517f08c379a0000000000000000000000000000000000000000000000000000000008152600401612147906133f7565b60405180910390fd5b600260009054906101000a900473ffffffffffffffffffffffffffffffffffffffff1673ffffffffffffffffffffffffffffffffffffffff168173ffffffffffffffffffffffffffffffffffffffff16036121e0576040517f08c379a00000000000000000000000000000000000000000000000000000000081526004016121d790613463565b60405180910390fd5b60008054906101000a900473ffffffffffffffffffffffffffffffffffffffff1673ffffffffffffffffffffffffffffffffffffffff1663ecca407385856040518363ffffffff1660e01b815260040161223b92919061374d565b600060405180830381865afa158015612258573d6000803e3d6000fd5b505050506040513d6000823e3d601f19601f8201168201806040525081019061228191906137e6565b91505092915050565b600082600073ffffffffffffffffffffffffffffffffffffffff168173ffffffffffffffffffffffffffffffffffffffff16036122fc576040517f08c379a00000000000000000000000000000000000000000000000000000000081526004016122f3906132d3565b60405180910390fd5b60008054906101000a900473ffffffffffffffffffffffffffffffffffffffff1673ffffffffffffffffffffffffffffffffffffffff168173ffffffffffffffffffffffffffffffffffffffff160361238a576040517f08c379a000000000000000000000000000000000000000000000000000000000815260040161238190613365565b60405180910390fd5b600160009054906101000a900473ffffffffffffffffffffffffffffffffffffffff1673ffffffffffffffffffffffffffffffffffffffff168173ffffffffffffffffffffffffffffffffffffffff160361241a576040517f08c379a0000000000000000000000000000000000000000000000000000000008152600401612411906133f7565b60405180910390fd5b600260009054906101000a900473ffffffffffffffffffffffffffffffffffffffff1673ffffffffffffffffffffffffffffffffffffffff168173ffffffffffffffffffffffffffffffffffffffff16036124aa576040517f08c379a00000000000000000000000000000000000000000000000000000000081526004016124a190613463565b60405180910390fd5b60008054906101000a900473ffffffffffffffffffffffffffffffffffffffff1673ffffffffffffffffffffffffffffffffffffffff16632b04e84085856040518363ffffffff1660e01b815260040161250592919061374d565b602060405180830381865afa158015612522573d6000803e3d6000fd5b505050506040513d601f19601f820116820180604052508101906125469190613844565b91505092915050565b600081600073ffffffffffffffffffffffffffffffffffffffff168173ffffffffffffffffffffffffffffffffffffffff16036125c1576040517f08c379a00000000000000000000000000000000000000000000000000000000081526004016125b8906132d3565b60405180910390fd5b60008054906101000a900473ffffffffffffffffffffffffffffffffffffffff1673ffffffffffffffffffffffffffffffffffffffff168173ffffffffffffffffffffffffffffffffffffffff160361264f576040517f08c379a000000000000000000000000000000000000000000000000000000000815260040161264690613365565b60405180910390fd5b600160009054906101000a900473ffffffffffffffffffffffffffffffffffffffff1673ffffffffffffffffffffffffffffffffffffffff168173ffffffffffffffffffffffffffffffffffffffff16036126df576040517f08c379a00000000000000000000000000000000000000000000000000000000081526004016126d6906133f7565b60405180910390fd5b600260009054906101000a900473ffffffffffffffffffffffffffffffffffffffff1673ffffffffffffffffffffffffffffffffffffffff168173ffffffffffffffffffffffffffffffffffffffff160361276f576040517f08c379a000000000000000000000000000000000000000000000000000000000815260040161276690613463565b60405180910390fd5b60008054906101000a900473ffffffffffffffffffffffffffffffffffffffff1673ffffffffffffffffffffffffffffffffffffffff1663a5578807846040518263ffffffff1660e01b81526004016127c89190613492565b602060405180830381865afa1580156127e5573d6000803e3d6000fd5b505050506040513d601f19601f8201168201806040525081019061280991906134d9565b915050919050565b606060008054906101000a900473ffffffffffffffffffffffffffffffffffffffff1673ffffffffffffffffffffffffffffffffffffffff16633b5aff126040518163ffffffff1660e01b8152600401600060405180830381865afa15801561287e573d6000803e3d6000fd5b505050506040513d6000823e3d601f19601f820116820180604052508101906128a79190613c7e565b905090565b81600073ffffffffffffffffffffffffffffffffffffffff168173ffffffffffffffffffffffffffffffffffffffff160361291c576040517f08c379a0000000000000000000000000000000000000000000000000000000008152600401612913906132d3565b60405180910390fd5b60008054906101000a900473ffffffffffffffffffffffffffffffffffffffff1673ffffffffffffffffffffffffffffffffffffffff168173ffffffffffffffffffffffffffffffffffffffff16036129aa576040517f08c379a00000000000000000000000000000000000000000000000000000000081526004016129a190613365565b60405180910390fd5b600160009054906101000a900473ffffffffffffffffffffffffffffffffffffffff1673ffffffffffffffffffffffffffffffffffffffff168173ffffffffffffffffffffffffffffffffffffffff1603612a3a576040517f08c379a0000000000000000000000000000000000000000000000000000000008152600401612a31906133f7565b60405180910390fd5b600260009054906101000a900473ffffffffffffffffffffffffffffffffffffffff1673ffffffffffffffffffffffffffffffffffffffff168173ffffffffffffffffffffffffffffffffffffffff1603612aca576040517f08c379a0000000000000000000000000000000000000000000000000000000008152600401612ac190613463565b60405180910390fd5b60008211612b0d576040517f08c379a0000000000000000000000000000000000000000000000000000000008152600401612b0490613d13565b60405180910390fd5b3073ffffffffffffffffffffffffffffffffffffffff1663a5578807846040518263ffffffff1660e01b8152600401612b469190613492565b602060405180830381865afa158015612b63573d6000803e3d6000fd5b505050506040513d601f19601f82011682018060405250810190612b8791906134d9565b612bc6576040517f08c379a0000000000000000000000000000000000000000000000000000000008152600401612bbd90613d7f565b60405180910390fd5b60008054906101000a900473ffffffffffffffffffffffffffffffffffffffff1673ffffffffffffffffffffffffffffffffffffffff1663e0b1cccb84846040518363ffffffff1660e01b8152600401612c2192919061374d565b600060405180830381600087803b158015612c3b57600080fd5b505af1158015612c4f573d6000803e3d6000fd5b50505050505050565b6000604051905090565b600080fd5b600080fd5b600080fd5b600080fd5b6000601f19601f8301169050919050565b7f4e487b7100000000000000000000000000000000000000000000000000000000600052604160045260246000fd5b612cbf82612c76565b810181811067ffffffffffffffff82111715612cde57612cdd612c87565b5b80604052505050565b6000612cf1612c58565b9050612cfd8282612cb6565b919050565b600067ffffffffffffffff821115612d1d57612d1c612c87565b5b612d2682612c76565b9050602081019050919050565b82818337600083830152505050565b6000612d55612d5084612d02565b612ce7565b905082815260208101848484011115612d7157612d70612c71565b5b612d7c848285612d33565b509392505050565b600082601f830112612d9957612d98612c6c565b5b8135612da9848260208601612d42565b91505092915050565b600073ffffffffffffffffffffffffffffffffffffffff82169050919050565b6000612ddd82612db2565b9050919050565b612ded81612dd2565b8114612df857600080fd5b50565b600081359050612e0a81612de4565b92915050565b60008060008060808587031215612e2a57612e29612c62565b5b600085013567ffffffffffffffff811115612e4857612e47612c67565b5b612e5487828801612d84565b945050602085013567ffffffffffffffff811115612e7557612e74612c67565b5b612e8187828801612d84565b935050604085013567ffffffffffffffff811115612ea257612ea1612c67565b5b612eae87828801612d84565b9250506060612ebf87828801612dfb565b91505092959194509250565b6000819050919050565b612ede81612ecb565b8114612ee957600080fd5b50565b600081359050612efb81612ed5565b92915050565b60008060408385031215612f1857612f17612c62565b5b6000612f2685828601612dfb565b9250506020612f3785828601612eec565b9150509250929050565b600081519050919050565b600082825260208201905092915050565b60005b83811015612f7b578082015181840152602081019050612f60565b60008484015250505050565b6000612f9282612f41565b612f9c8185612f4c565b9350612fac818560208601612f5d565b612fb581612c76565b840191505092915050565b60006020820190508181036000830152612fda8184612f87565b905092915050565b600060208284031215612ff857612ff7612c62565b5b600061300684828501612dfb565b91505092915050565b61301881612ecb565b82525050565b6000602082019050613033600083018461300f565b92915050565b600060608201905061304e600083018661300f565b81810360208301526130608185612f87565b905081810360408301526130748184612f87565b9050949350505050565b600060a082019050613093600083018861300f565b81810360208301526130a58187612f87565b905081810360408301526130b98186612f87565b905081810360608301526130cd8185612f87565b90506130dc608083018461300f565b9695505050505050565b6000806000606084860312156130ff576130fe612c62565b5b600061310d86828701612dfb565b935050602084013567ffffffffffffffff81111561312e5761312d612c67565b5b61313a86828701612d84565b925050604084013567ffffffffffffffff81111561315b5761315a612c67565b5b61316786828701612d84565b9150509250925092565b60008115159050919050565b61318681613171565b82525050565b60006020820190506131a1600083018461317d565b92915050565b600081519050919050565b600082825260208201905092915050565b6000819050602082019050919050565b6131dc81612dd2565b82525050565b60006131ee83836131d3565b60208301905092915050565b6000602082019050919050565b6000613212826131a7565b61321c81856131b2565b9350613227836131c3565b8060005b8381101561325857815161323f88826131e2565b975061324a836131fa565b92505060018101905061322b565b5085935050505092915050565b6000602082019050818103600083015261327f8184613207565b905092915050565b7f41646472657373206973207a65726f0000000000000000000000000000000000600082015250565b60006132bd600f83612f4c565b91506132c882613287565b602082019050919050565b600060208201905081810360008301526132ec816132b0565b9050919050565b7f416464726573732069732043686565736550726f647563657253746f7261676560008201527f20536d61727420436f6e74726163742100000000000000000000000000000000602082015250565b600061334f603083612f4c565b915061335a826132f3565b604082019050919050565b6000602082019050818103600083015261337e81613342565b9050919050565b7f416464726573732069732046696c69657261546f6b656e20536d61727420436f60008201527f6e74726163742100000000000000000000000000000000000000000000000000602082015250565b60006133e1602783612f4c565b91506133ec82613385565b604082019050919050565b60006020820190508181036000830152613410816133d4565b9050919050565b7f4f7267616e697a6174696f6e2061646472657373000000000000000000000000600082015250565b600061344d601483612f4c565b915061345882613417565b602082019050919050565b6000602082019050818103600083015261347c81613440565b9050919050565b61348c81612dd2565b82525050565b60006020820190506134a76000830184613483565b92915050565b6134b681613171565b81146134c157600080fd5b50565b6000815190506134d3816134ad565b92915050565b6000602082840312156134ef576134ee612c62565b5b60006134fd848285016134c4565b91505092915050565b7f5574656e74652067696127207265676973747261746f20210000000000000000600082015250565b600061353c601883612f4c565b915061354782613506565b602082019050919050565b6000602082019050818103600083015261356b8161352f565b9050919050565b6000608082019050818103600083015261358c8187612f87565b905081810360208301526135a08186612f87565b905081810360408301526135b48185612f87565b90506135c36060830184613483565b95945050505050565b6000819050919050565b6000819050919050565b60006135fb6135f66135f1846135cc565b6135d6565b612ecb565b9050919050565b61360b816135e0565b82525050565b60006040820190506136266000830185613483565b6136336020830184613602565b9392505050565b7f5472616e73666572206e6f742076616c69642100000000000000000000000000600082015250565b6000613670601383612f4c565b915061367b8261363a565b602082019050919050565b6000602082019050818103600083015261369f81613663565b9050919050565b7f5574656e74652043686565736550726f647563657220652720737461746f207260008201527f65676973747261746f2100000000000000000000000000000000000000000000602082015250565b6000613702602a83612f4c565b915061370d826136a6565b604082019050919050565b600060408201905081810360008301526137328184612f87565b90508181036020830152613745816136f5565b905092915050565b60006040820190506137626000830185613483565b61376f602083018461300f565b9392505050565b600061378961378484612d02565b612ce7565b9050828152602081018484840111156137a5576137a4612c71565b5b6137b0848285612f5d565b509392505050565b600082601f8301126137cd576137cc612c6c565b5b81516137dd848260208601613776565b91505092915050565b6000602082840312156137fc576137fb612c62565b5b600082015167ffffffffffffffff81111561381a57613819612c67565b5b613826848285016137b8565b91505092915050565b60008151905061383e81612ed5565b92915050565b60006020828403121561385a57613859612c62565b5b60006138688482850161382f565b91505092915050565b7f55736572206e6f7420666f756e64000000000000000000000000000000000000600082015250565b60006138a7600e83612f4c565b91506138b282613871565b602082019050919050565b600060208201905081810360008301526138d68161389a565b9050919050565b7f5574656e7465206e6f6e2065272070726573656e746521000000000000000000600082015250565b6000613913601783612f4c565b915061391e826138dd565b602082019050919050565b6000602082019050818103600083015261394281613906565b9050919050565b7f5574656e7465206e6f6e204175746f72697a7a61746f21000000000000000000600082015250565b600061397f601783612f4c565b915061398a82613949565b602082019050919050565b600060208201905081810360008301526139ae81613972565b9050919050565b7f4572726f726520647572616e7465206c612063616e63656c6c617a696f6e6500600082015250565b60006139eb601f83612f4c565b91506139f6826139b5565b602082019050919050565b60006020820190508181036000830152613a1a816139de565b9050919050565b7f5574656e746520652720737461746f20656c696d696e61746f21000000000000600082015250565b6000613a57601a83612f4c565b9150613a6282613a21565b602082019050919050565b60006020820190508181036000830152613a8681613a4a565b9050919050565b600080600080600060a08688031215613aa957613aa8612c62565b5b6000613ab78882890161382f565b955050602086015167ffffffffffffffff811115613ad857613ad7612c67565b5b613ae4888289016137b8565b945050604086015167ffffffffffffffff811115613b0557613b04612c67565b5b613b11888289016137b8565b935050606086015167ffffffffffffffff811115613b3257613b31612c67565b5b613b3e888289016137b8565b9250506080613b4f8882890161382f565b9150509295509295909350565b6000606082019050613b716000830186613483565b8181036020830152613b838185612f87565b90508181036040830152613b978184612f87565b9050949350505050565b600067ffffffffffffffff821115613bbc57613bbb612c87565b5b602082029050602081019050919050565b600080fd5b600081519050613be181612de4565b92915050565b6000613bfa613bf584613ba1565b612ce7565b90508083825260208201905060208402830185811115613c1d57613c1c613bcd565b5b835b81811015613c465780613c328882613bd2565b845260208401935050602081019050613c1f565b5050509392505050565b600082601f830112613c6557613c64612c6c565b5b8151613c75848260208601613be7565b91505092915050565b600060208284031215613c9457613c93612c62565b5b600082015167ffffffffffffffff811115613cb257613cb1612c67565b5b613cbe84828501613c50565b91505092915050565b7f42616c616e6365204e6f742056616c6964000000000000000000000000000000600082015250565b6000613cfd601183612f4c565b9150613d0882613cc7565b602082019050919050565b60006020820190508181036000830152613d2c81613cf0565b9050919050565b7f55736572204e6f7420466f756e64210000000000000000000000000000000000600082015250565b6000613d69600f83612f4c565b9150613d7482613d33565b602082019050919050565b60006020820190508181036000830152613d9881613d5c565b905091905056fea26469706673582212200c8947ad8c587152e8d8aa3b641860e845b90b478d7cc48f5baea37b46a41d5264736f6c63430008180033",
  "immutableReferences": {},
  "source": "// SPDX-License-Identifier: MIT\r\npragma solidity ^0.8.0;\r\n\r\nimport \"./CheeseProducerStorage.sol\";\r\nimport \"../../Service/Filieratoken.sol\";\r\n\r\ncontract CheeseProducerService {\r\n\r\n//-------------------------------------------------------------------- Contract Address Service --------------------------------------------------------------------//\r\n\r\n\r\n    // Address of Consumer Storage \r\n    CheeseProducerStorage private cheeseProducerStorage;\r\n    \r\n    // Address of Token FT - ERC-20\r\n    Filieratoken private filieraToken;\r\n\r\n    // Address of Organization che gestisce gli utenti\r\n    address private  CheeseProducerOrg;\r\n\r\n\r\n\r\n// --------------------------------------------------------------------- Event of Service ----------------------------------------------------------------//\r\n\r\n    // Evento emesso al momento della cancellazione di un consumatore\r\n    event CheeseProducerDeleted(address indexed walletCheeseProducer, string message);\r\n    // Evento emesso al momento della registrazione di un consumatore\r\n    event CheeseProducerRegistered(address indexed walletCheeseProducer, string fullName, string message);\r\n\r\n\r\n\r\n//---------------------------------------------------------------------- Constructor ----------------------------------------------------------------------------//    \r\n    constructor(address _cheeseProducerStorage, address _filieraToken) {\r\n        cheeseProducerStorage = CheeseProducerStorage(_cheeseProducerStorage);\r\n        filieraToken = Filieratoken(_filieraToken);\r\n        CheeseProducerOrg = msg.sender;\r\n    }\r\n\r\n// ------------------------------------------------------------ Modifier Of Service ---------------------------------------------------------------------------------//\r\n\r\n  \r\n    modifier _onlyOrg(address sender){\r\n        require(sender == CheeseProducerOrg,\"User Not Authorized!\");\r\n        _;\r\n    }\r\n\r\n    // Verifica chi effettua la transazione : \r\n    // Verfica che l'address non sia l'organizzazione \r\n    // Verfica che l'address non sia lo smart contract del CheeseProducerStorage e FilieraToken \r\n    modifier checkAddress(address walletCheeseProducer){\r\n\r\n        require(walletCheeseProducer != address(0),\"Address is zero\");\r\n        require(walletCheeseProducer != address(cheeseProducerStorage), \"Address is CheeseProducerStorage Smart Contract!\");\r\n        require(walletCheeseProducer != address(filieraToken), \"Address is FilieraToken Smart Contract!\" );\r\n        require(walletCheeseProducer != CheeseProducerOrg ,\"Organization address\");\r\n\r\n        _;\r\n    }\r\n\r\n\r\n//--------------------------------------------------------------- Business Logic -------------------------------------------------------------------------------------------//\r\n\r\n    /**\r\n     * registerCheeseProducer() registra gli utenti della piattaforma che sono CheeseProducer \r\n     * - Inserisce i dati all'interno della Blockchain\r\n     * - Trasferisce 100 token dal contratto di FilieraToken \r\n     * - Emette un evento appena l'utente  stato registrato \r\n     *  */ \r\n    function registerCheeseProducer(\r\n        string memory fullName,\r\n        string memory password,\r\n        string memory email,\r\n        address walletCheeseProducer\r\n        ) external checkAddress(walletCheeseProducer) {\r\n\r\n        // Verifica che l'utente  gia' presente \r\n        require(!(this.isUserPresent(walletCheeseProducer)), \"Utente gia' registrato !\");\r\n\r\n        // Chiama la funzione di Storage \r\n        cheeseProducerStorage.addUser(fullName, password, email, walletCheeseProducer);\r\n\r\n        // Autogenera dei token nel balance del CheeseProducer \r\n        require(filieraToken.registerUserWithToken(address(walletCheeseProducer), 100),\"Transfer not valid!\");\r\n\r\n        // Emette l'evento della registrazione dell'utente\r\n        emit CheeseProducerRegistered(walletCheeseProducer, fullName, \"Utente CheeseProducer e' stato registrato!\");\r\n    }\r\n\r\n    /**\r\n     * login() effettua la Login con email e password \r\n     * - Inserisce l'email e la password \r\n     * - return True se l'utente esiste ed ha accesso con le giuste credenziali \r\n     * - return False altrimenti \r\n     */\r\n    function login(\r\n        address walletCheeseProducer,\r\n        string memory email,\r\n        string memory password\r\n        ) external view checkAddress(walletCheeseProducer)  returns(bool) {\r\n\r\n        // Verifichiamo che l'utente  presente \r\n        require(this.isUserPresent(walletCheeseProducer),\"Utente non e' presente!\");\r\n        \r\n        return cheeseProducerStorage.loginUser(walletCheeseProducer, email, password);\r\n    }\r\n\r\n\r\n    /**\r\n     * deleteCheeseProducer() elimina un CheeseProducer all'interno del sistema \r\n     * - Solo l'owner pu effettuare l'eliminazione \r\n     * - msg.sender dovrebbe essere solo quello dell'owner \r\n     */\r\n    function deleteCheeseProducer(address walletCheeseProducer, uint256 _id) external checkAddress(walletCheeseProducer){\r\n        \r\n        // Verifico che l'utente  presente \r\n        require(this.isUserPresent(walletCheeseProducer), \"Utente non e' presente!\");\r\n        // Restituisce l'id del CheeseProducer tramite il suo address wallet\r\n        require(cheeseProducerStorage.getId(walletCheeseProducer) == _id , \"Utente non Autorizzato!\");\r\n        // Effettuo la cancellazione dell'utente \r\n        require(cheeseProducerStorage.deleteUser(walletCheeseProducer), \"Errore durante la cancellazione\");\r\n        // Burn all token ( elimina i token che sono in circolazione, di un utente che non effettua transazioni ) \r\n        filieraToken.burnToken(walletCheeseProducer, filieraToken.balanceOf(walletCheeseProducer));\r\n        // Emit Event on FireFly \r\n        emit CheeseProducerDeleted(walletCheeseProducer,\"Utente e' stato eliminato!\");\r\n    }\r\n\r\n// --------------------------------------------------------------------------- CheeseProducerInventoryService ----------------------------------------------------//\r\n\r\n    function isUserPresent(address walletCheeseProducer) external view  checkAddress(walletCheeseProducer)returns(bool){\r\n        \r\n        return cheeseProducerStorage.isUserPresent(walletCheeseProducer);\r\n    }\r\n\r\n\r\n\r\n//----------------------------------------------------------------------------- Get Function ----------------------------------------------------------------------//\r\n\r\n    /**\r\n        -  Funzione getCheeseProducerId() attraverso l'address del CheeseProducer siamo riusciti ad ottenere il suo ID\r\n    */\r\n    function getCheeseProducerId(address walletCheeseProducer) external view checkAddress(walletCheeseProducer)  returns (uint256){\r\n        \r\n        return cheeseProducerStorage.getId(walletCheeseProducer);\r\n    }\r\n\r\n    \r\n    /**\r\n        - Funzione getFullName() attraverso l'address del CheeseProducer riusciamo a recuperare il suo FullName\r\n    */\r\n    function getCheeseProducerFullName(address walletCheeseProducer,uint256 _id) external view checkAddress(walletCheeseProducer) returns(string memory){\r\n\r\n        return cheeseProducerStorage.getFullName(walletCheeseProducer,_id);\r\n    }\r\n\r\n    /**\r\n        - Funzione getEmail() attraverso l'address del CheeseProducer riusciamo a recuperare la sua Email \r\n    */\r\n    function getCheeseProducerEmail(address walletCheeseProducer, uint256 _id) external view checkAddress(walletCheeseProducer) returns(string memory){\r\n        \r\n        return cheeseProducerStorage.getEmail(walletCheeseProducer,_id);\r\n    }\r\n\r\n    /**\r\n        - Funzione getBalance() attraverso l'address del CheeseProducer riusciamo a recuperare il suo Balance\r\n    */\r\n    function getCheeseProducerBalance(address walletCheeseProducer, uint256 _id) external view checkAddress(walletCheeseProducer)  returns(uint256){\r\n\r\n        return cheeseProducerStorage.getBalance(walletCheeseProducer,_id);\r\n    }\r\n\r\n    /**\r\n     * getCheeseProducerData() otteniamo i dati del CheeseProducer\r\n     * - tramite l'address del CheeseProducer riusciamo a visualizzare anche i suoi dati\r\n     * - Dati sensibili e visibili solo dal CheeseProducer stesso \r\n     */\r\n    function getCheeseProducerData(address walletCheeseProducer, uint256 _id) external checkAddress(walletCheeseProducer)  view returns (uint256, string memory, string memory, string memory, uint256) {\r\n        // Verifico che l'utente  presente \r\n        require(this.isUserPresent(walletCheeseProducer), \"Utente non e' presente!\");\r\n        // Restituisce l'id del CheeseProducer tramite il suo address wallet\r\n        require(cheeseProducerStorage.getId(walletCheeseProducer) == _id , \"Utente non Autorizzato!\");\r\n        // Call function of Storage         \r\n        return cheeseProducerStorage.getUser(walletCheeseProducer);\r\n    }\r\n\r\n    \r\n    // Funzione per far visualizzare i dati ai vari utenti esterni \r\n    function getCheeseProducerInfo(address walletCheeseProducer) external view checkAddress(walletCheeseProducer) returns (uint256, string memory, string memory) {\r\n        \r\n        // Verifico che l'utente esista\r\n        require(this.isUserPresent(walletCheeseProducer), \"User not found\");\r\n\r\n        uint256 id = cheeseProducerStorage.getId(walletCheeseProducer); // Non  necessario, ma viene recuperato per rispettare il controllo in CheeseProducerStorage\r\n        \r\n        string memory fullName = cheeseProducerStorage.getFullName(walletCheeseProducer, id);\r\n        \r\n        string memory email = cheeseProducerStorage.getEmail(walletCheeseProducer, id);\r\n\r\n        return (id, fullName, email);\r\n    }\r\n\r\n    function getListAddressCheeseProducer() external view returns ( address [ ] memory){\r\n        return cheeseProducerStorage.getListAddress();\r\n    }\r\n\r\n\r\n\r\n//------------------------------------------------------------ Set Function -------------------------------------------------------------------//\r\n\r\n    // - Funzione updateBalance() attraverso l'address e l'id, riusciamo a settare il nuovo balance\r\n    function updateCheeseProducerBalance(address walletCheeseProducer, uint256 balance) external   checkAddress(walletCheeseProducer) {\r\n        // Verifico che il Balance sia >0 \r\n        require(balance>0,\"Balance Not Valid\");\r\n        // Verifico che l'utente esista \r\n        require(this.isUserPresent(walletCheeseProducer),\"User Not Found!\");\r\n        // Update Balance \r\n        cheeseProducerStorage.updateBalance(walletCheeseProducer, balance);\r\n    }\r\n\r\n\r\n// ------------------------------------------------------------ Change Address Contract of Service -----------------------------------------------------//\r\n\r\n    // TODO : Inserire onlyOrg(msg.sender) per verificare che quest'azione possa farla solo L'organizzazione \r\n\r\n    function changeCheeseProducerStorage(address _cheeseProducerStorageNew, address cheeseProducerOrg)private _onlyOrg(cheeseProducerOrg) {\r\n        cheeseProducerStorage = CheeseProducerStorage(_cheeseProducerStorageNew);\r\n    }\r\n\r\n    // TODO : Inserire onlyOrg(msg.sender) per verificare che quest'azione possa farla solo L'organizzazione \r\n\r\n    function changeFilieraToken(address _filieraToken, address cheeseProducerOrg) private _onlyOrg(cheeseProducerOrg){\r\n        filieraToken = Filieratoken(_filieraToken);\r\n    }\r\n\r\n\r\n}\r\n",
  "sourcePath": "/home/udm-root/Filiera-Token-Deploy/contracts/Actor/CheeseProducer-smart-contract/CheeseProducerService.sol",
  "compiler": {
    "name": "solc",
    "version": "0.8.24+commit.e11b9ed9.Emscripten.clang"
  },
  "schemaVersion": "3.4.16",
  "updatedAt": "2024-02-27T19:47:26.398Z",
  "devdoc": {
    "kind": "dev",
    "methods": {},
    "version": 1
  },
  "userdoc": {
    "kind": "user",
    "methods": {
      "deleteCheeseProducer(address,uint256)": {
        "notice": "deleteCheeseProducer() elimina un CheeseProducer all'interno del sistema  - Solo l'owner pu effettuare l'eliminazione  - msg.sender dovrebbe essere solo quello dell'owner "
      },
      "getCheeseProducerBalance(address,uint256)": {
        "notice": "- Funzione getBalance() attraverso l'address del CheeseProducer riusciamo a recuperare il suo Balance"
      },
      "getCheeseProducerData(address,uint256)": {
        "notice": "getCheeseProducerData() otteniamo i dati del CheeseProducer - tramite l'address del CheeseProducer riusciamo a visualizzare anche i suoi dati - Dati sensibili e visibili solo dal CheeseProducer stesso "
      },
      "getCheeseProducerEmail(address,uint256)": {
        "notice": "- Funzione getEmail() attraverso l'address del CheeseProducer riusciamo a recuperare la sua Email "
      },
      "getCheeseProducerFullName(address,uint256)": {
        "notice": "- Funzione getFullName() attraverso l'address del CheeseProducer riusciamo a recuperare il suo FullName"
      },
      "getCheeseProducerId(address)": {
        "notice": "-  Funzione getCheeseProducerId() attraverso l'address del CheeseProducer siamo riusciti ad ottenere il suo ID"
      },
      "login(address,string,string)": {
        "notice": "login() effettua la Login con email e password  - Inserisce l'email e la password  - return True se l'utente esiste ed ha accesso con le giuste credenziali  - return False altrimenti "
      },
      "registerCheeseProducer(string,string,string,address)": {
        "notice": "registerCheeseProducer() registra gli utenti della piattaforma che sono CheeseProducer  - Inserisce i dati all'interno della Blockchain - Trasferisce 100 token dal contratto di FilieraToken  - Emette un evento appena l'utente  stato registrato   "
      }
    },
    "version": 1
  }
}