{
  "contractName": "CheeseProducerInventoryService",
  "abi": [
    {
      "inputs": [
        {
          "internalType": "address",
          "name": "_cheeseProducerInventoryStorage",
          "type": "address"
        },
        {
          "internalType": "address",
          "name": "_cheeseProducerService",
          "type": "address"
        },
        {
          "internalType": "address",
          "name": "_cheeseProducerMilkBatchService",
          "type": "address"
        }
      ],
      "stateMutability": "nonpayable",
      "type": "constructor"
    },
    {
      "anonymous": false,
      "inputs": [
        {
          "indexed": true,
          "internalType": "address",
          "name": "userAddress",
          "type": "address"
        },
        {
          "indexed": false,
          "internalType": "string",
          "name": "message",
          "type": "string"
        },
        {
          "indexed": false,
          "internalType": "uint256",
          "name": "id",
          "type": "uint256"
        },
        {
          "indexed": false,
          "internalType": "string",
          "name": "dop",
          "type": "string"
        },
        {
          "indexed": false,
          "internalType": "uint256",
          "name": "quantity",
          "type": "uint256"
        },
        {
          "indexed": false,
          "internalType": "uint256",
          "name": "price",
          "type": "uint256"
        }
      ],
      "name": "CheeseBlockAdded",
      "type": "event"
    },
    {
      "anonymous": false,
      "inputs": [
        {
          "indexed": true,
          "internalType": "address",
          "name": "userAddress",
          "type": "address"
        },
        {
          "indexed": false,
          "internalType": "string",
          "name": "message",
          "type": "string"
        },
        {
          "indexed": false,
          "internalType": "uint256",
          "name": "_id",
          "type": "uint256"
        }
      ],
      "name": "CheeseBlockDeleted",
      "type": "event"
    },
    {
      "anonymous": false,
      "inputs": [
        {
          "indexed": true,
          "internalType": "address",
          "name": "userAddress",
          "type": "address"
        },
        {
          "indexed": false,
          "internalType": "string",
          "name": "message",
          "type": "string"
        },
        {
          "indexed": false,
          "internalType": "uint256",
          "name": "quantity",
          "type": "uint256"
        }
      ],
      "name": "CheeseBlockEdited",
      "type": "event"
    },
    {
      "inputs": [
        {
          "internalType": "uint256",
          "name": "_id_CheeseBlock",
          "type": "uint256"
        }
      ],
      "name": "getCheeseBlock",
      "outputs": [
        {
          "internalType": "uint256",
          "name": "",
          "type": "uint256"
        },
        {
          "internalType": "string",
          "name": "",
          "type": "string"
        },
        {
          "internalType": "uint256",
          "name": "",
          "type": "uint256"
        },
        {
          "internalType": "uint256",
          "name": "",
          "type": "uint256"
        }
      ],
      "stateMutability": "view",
      "type": "function"
    },
    {
      "inputs": [
        {
          "internalType": "uint256",
          "name": "_id",
          "type": "uint256"
        }
      ],
      "name": "deleteCheeseBlock",
      "outputs": [
        {
          "internalType": "bool",
          "name": "",
          "type": "bool"
        }
      ],
      "stateMutability": "nonpayable",
      "type": "function"
    },
    {
      "inputs": [
        {
          "internalType": "address",
          "name": "walletCheeseProducer",
          "type": "address"
        },
        {
          "internalType": "uint256",
          "name": "_id",
          "type": "uint256"
        }
      ],
      "name": "getDop",
      "outputs": [
        {
          "internalType": "string",
          "name": "",
          "type": "string"
        }
      ],
      "stateMutability": "view",
      "type": "function"
    },
    {
      "inputs": [
        {
          "internalType": "address",
          "name": "walletCheeseProducer",
          "type": "address"
        },
        {
          "internalType": "uint256",
          "name": "_id",
          "type": "uint256"
        }
      ],
      "name": "getPrice",
      "outputs": [
        {
          "internalType": "uint256",
          "name": "",
          "type": "uint256"
        }
      ],
      "stateMutability": "view",
      "type": "function"
    },
    {
      "inputs": [
        {
          "internalType": "address",
          "name": "walletCheeseProducer",
          "type": "address"
        },
        {
          "internalType": "uint256",
          "name": "_id",
          "type": "uint256"
        }
      ],
      "name": "getCheeseBlockQuantity",
      "outputs": [
        {
          "internalType": "uint256",
          "name": "",
          "type": "uint256"
        }
      ],
      "stateMutability": "view",
      "type": "function"
    },
    {
      "inputs": [
        {
          "internalType": "address",
          "name": "walletCheeseProducer",
          "type": "address"
        },
        {
          "internalType": "uint256",
          "name": "_id_cheeseBlock",
          "type": "uint256"
        }
      ],
      "name": "isCheeseBlockPresent",
      "outputs": [
        {
          "internalType": "bool",
          "name": "",
          "type": "bool"
        }
      ],
      "stateMutability": "view",
      "type": "function"
    },
    {
      "inputs": [
        {
          "internalType": "address",
          "name": "walletCheeseProducer",
          "type": "address"
        },
        {
          "internalType": "uint256",
          "name": "_id_MilkBatchAcquistato",
          "type": "uint256"
        },
        {
          "internalType": "uint256",
          "name": "quantityToTransform",
          "type": "uint256"
        },
        {
          "internalType": "uint256",
          "name": "pricePerKg",
          "type": "uint256"
        },
        {
          "internalType": "string",
          "name": "dop",
          "type": "string"
        }
      ],
      "name": "transformMilkBatch",
      "outputs": [],
      "stateMutability": "nonpayable",
      "type": "function"
    },
    {
      "inputs": [
        {
          "internalType": "address",
          "name": "ownerCheeseProducer",
          "type": "address"
        },
        {
          "internalType": "uint256",
          "name": "_id",
          "type": "uint256"
        },
        {
          "internalType": "uint256",
          "name": "_quantity",
          "type": "uint256"
        }
      ],
      "name": "updateCheeseBlockQuantity",
      "outputs": [],
      "stateMutability": "nonpayable",
      "type": "function"
    }
  ],
  "bytecode": "0x60806040523480156200001157600080fd5b5060405162002f6f38038062002f6f8339818101604052810190620000379190620001ad565b82600160006101000a81548173ffffffffffffffffffffffffffffffffffffffff021916908373ffffffffffffffffffffffffffffffffffffffff16021790555081600260006101000a81548173ffffffffffffffffffffffffffffffffffffffff021916908373ffffffffffffffffffffffffffffffffffffffff16021790555080600360006101000a81548173ffffffffffffffffffffffffffffffffffffffff021916908373ffffffffffffffffffffffffffffffffffffffff160217905550336000806101000a81548173ffffffffffffffffffffffffffffffffffffffff021916908373ffffffffffffffffffffffffffffffffffffffff16021790555050505062000209565b600080fd5b600073ffffffffffffffffffffffffffffffffffffffff82169050919050565b6000620001758262000148565b9050919050565b620001878162000168565b81146200019357600080fd5b50565b600081519050620001a7816200017c565b92915050565b600080600060608486031215620001c957620001c862000143565b5b6000620001d98682870162000196565b9350506020620001ec8682870162000196565b9250506040620001ff8682870162000196565b9150509250925092565b612d5680620002196000396000f3fe608060405234801561001057600080fd5b50600436106100885760003560e01c806393df200a1161005b57806393df200a1461013c578063d7da36cf14610158578063f93bd02114610188578063f9d61a1e146101b857610088565b8063449e815d1461008d5780634c939786146100bd5780634f0205bf146100f057806377e94d9e14610120575b600080fd5b6100a760048036038101906100a29190611efb565b6101e8565b6040516100b49190611f4a565b60405180910390f35b6100d760048036038101906100d29190611f65565b610426565b6040516100e79493929190612022565b60405180910390f35b61010a60048036038101906101059190611efb565b61089a565b6040516101179190612089565b60405180910390f35b61013a600480360381019061013591906120a4565b610b61565b005b6101566004803603810190610151919061222c565b610ffa565b005b610172600480360381019061016d9190611efb565b61131c565b60405161017f9190611f4a565b60405180910390f35b6101a2600480360381019061019d9190611efb565b61155a565b6040516101af91906122c3565b60405180910390f35b6101d260048036038101906101cd9190611f65565b61179d565b6040516101df9190612089565b60405180910390f35b6000600260009054906101000a900473ffffffffffffffffffffffffffffffffffffffff1673ffffffffffffffffffffffffffffffffffffffff1663a5578807846040518263ffffffff1660e01b815260040161024591906122f4565b602060405180830381865afa158015610262573d6000803e3d6000fd5b505050506040513d601f19601f82011682018060405250810190610286919061233b565b6102c5576040517f08c379a00000000000000000000000000000000000000000000000000000000081526004016102bc906123b4565b60405180910390fd5b3073ffffffffffffffffffffffffffffffffffffffff16634f0205bf84846040518363ffffffff1660e01b81526004016103009291906123d4565b602060405180830381865afa15801561031d573d6000803e3d6000fd5b505050506040513d601f19601f82011682018060405250810190610341919061233b565b610380576040517f08c379a000000000000000000000000000000000000000000000000000000000815260040161037790612449565b60405180910390fd5b600160009054906101000a900473ffffffffffffffffffffffffffffffffffffffff1673ffffffffffffffffffffffffffffffffffffffff1663449e815d84846040518363ffffffff1660e01b81526004016103dd9291906123d4565b602060405180830381865afa1580156103fa573d6000803e3d6000fd5b505050506040513d601f19601f8201168201806040525081019061041e919061247e565b905092915050565b6000606060008033600073ffffffffffffffffffffffffffffffffffffffff168173ffffffffffffffffffffffffffffffffffffffff160361049d576040517f08c379a0000000000000000000000000000000000000000000000000000000008152600401610494906124f7565b60405180910390fd5b60008054906101000a900473ffffffffffffffffffffffffffffffffffffffff1673ffffffffffffffffffffffffffffffffffffffff168173ffffffffffffffffffffffffffffffffffffffff160361052b576040517f08c379a000000000000000000000000000000000000000000000000000000000815260040161052290612563565b60405180910390fd5b600160009054906101000a900473ffffffffffffffffffffffffffffffffffffffff1673ffffffffffffffffffffffffffffffffffffffff168173ffffffffffffffffffffffffffffffffffffffff16036105bb576040517f08c379a00000000000000000000000000000000000000000000000000000000081526004016105b2906125f5565b60405180910390fd5b600260009054906101000a900473ffffffffffffffffffffffffffffffffffffffff1673ffffffffffffffffffffffffffffffffffffffff168173ffffffffffffffffffffffffffffffffffffffff160361064b576040517f08c379a000000000000000000000000000000000000000000000000000000000815260040161064290612661565b60405180910390fd5b6000339050600260009054906101000a900473ffffffffffffffffffffffffffffffffffffffff1673ffffffffffffffffffffffffffffffffffffffff1663a5578807826040518263ffffffff1660e01b81526004016106ab91906122f4565b602060405180830381865afa1580156106c8573d6000803e3d6000fd5b505050506040513d601f19601f820116820180604052508101906106ec919061233b565b61072b576040517f08c379a0000000000000000000000000000000000000000000000000000000008152600401610722906126cd565b60405180910390fd5b3073ffffffffffffffffffffffffffffffffffffffff16634f0205bf82896040518363ffffffff1660e01b81526004016107669291906123d4565b602060405180830381865afa158015610783573d6000803e3d6000fd5b505050506040513d601f19601f820116820180604052508101906107a7919061233b565b6107e6576040517f08c379a00000000000000000000000000000000000000000000000000000000081526004016107dd9061275f565b60405180910390fd5b600160009054906101000a900473ffffffffffffffffffffffffffffffffffffffff1673ffffffffffffffffffffffffffffffffffffffff16636fb82e0682896040518363ffffffff1660e01b81526004016108439291906123d4565b600060405180830381865afa158015610860573d6000803e3d6000fd5b505050506040513d6000823e3d601f19601f8201168201806040525081019061088991906127ef565b955095509550955050509193509193565b600082600073ffffffffffffffffffffffffffffffffffffffff168173ffffffffffffffffffffffffffffffffffffffff160361090c576040517f08c379a0000000000000000000000000000000000000000000000000000000008152600401610903906124f7565b60405180910390fd5b60008054906101000a900473ffffffffffffffffffffffffffffffffffffffff1673ffffffffffffffffffffffffffffffffffffffff168173ffffffffffffffffffffffffffffffffffffffff160361099a576040517f08c379a000000000000000000000000000000000000000000000000000000000815260040161099190612563565b60405180910390fd5b600160009054906101000a900473ffffffffffffffffffffffffffffffffffffffff1673ffffffffffffffffffffffffffffffffffffffff168173ffffffffffffffffffffffffffffffffffffffff1603610a2a576040517f08c379a0000000000000000000000000000000000000000000000000000000008152600401610a21906125f5565b60405180910390fd5b600260009054906101000a900473ffffffffffffffffffffffffffffffffffffffff1673ffffffffffffffffffffffffffffffffffffffff168173ffffffffffffffffffffffffffffffffffffffff1603610aba576040517f08c379a0000000000000000000000000000000000000000000000000000000008152600401610ab190612661565b60405180910390fd5b600160009054906101000a900473ffffffffffffffffffffffffffffffffffffffff1673ffffffffffffffffffffffffffffffffffffffff16634f0205bf85856040518363ffffffff1660e01b8152600401610b179291906123d4565b602060405180830381865afa158015610b34573d6000803e3d6000fd5b505050506040513d601f19601f82011682018060405250810190610b58919061233b565b91505092915050565b82600073ffffffffffffffffffffffffffffffffffffffff168173ffffffffffffffffffffffffffffffffffffffff1603610bd1576040517f08c379a0000000000000000000000000000000000000000000000000000000008152600401610bc8906124f7565b60405180910390fd5b60008054906101000a900473ffffffffffffffffffffffffffffffffffffffff1673ffffffffffffffffffffffffffffffffffffffff168173ffffffffffffffffffffffffffffffffffffffff1603610c5f576040517f08c379a0000000000000000000000000000000000000000000000000000000008152600401610c5690612563565b60405180910390fd5b600160009054906101000a900473ffffffffffffffffffffffffffffffffffffffff1673ffffffffffffffffffffffffffffffffffffffff168173ffffffffffffffffffffffffffffffffffffffff1603610cef576040517f08c379a0000000000000000000000000000000000000000000000000000000008152600401610ce6906125f5565b60405180910390fd5b600260009054906101000a900473ffffffffffffffffffffffffffffffffffffffff1673ffffffffffffffffffffffffffffffffffffffff168173ffffffffffffffffffffffffffffffffffffffff1603610d7f576040517f08c379a0000000000000000000000000000000000000000000000000000000008152600401610d7690612661565b60405180910390fd5b600260009054906101000a900473ffffffffffffffffffffffffffffffffffffffff1673ffffffffffffffffffffffffffffffffffffffff1663a5578807856040518263ffffffff1660e01b8152600401610dda91906122f4565b602060405180830381865afa158015610df7573d6000803e3d6000fd5b505050506040513d601f19601f82011682018060405250810190610e1b919061233b565b610e5a576040517f08c379a0000000000000000000000000000000000000000000000000000000008152600401610e51906123b4565b60405180910390fd5b3073ffffffffffffffffffffffffffffffffffffffff16634f0205bf85856040518363ffffffff1660e01b8152600401610e959291906123d4565b602060405180830381865afa158015610eb2573d6000803e3d6000fd5b505050506040513d601f19601f82011682018060405250810190610ed6919061233b565b610f15576040517f08c379a0000000000000000000000000000000000000000000000000000000008152600401610f0c90612449565b60405180910390fd5b600160009054906101000a900473ffffffffffffffffffffffffffffffffffffffff1673ffffffffffffffffffffffffffffffffffffffff166377e94d9e8585856040518463ffffffff1660e01b8152600401610f7493929190612872565b600060405180830381600087803b158015610f8e57600080fd5b505af1158015610fa2573d6000803e3d6000fd5b505050508373ffffffffffffffffffffffffffffffffffffffff167f8d5408d361784b3c217d0103c62a49474b07e85b6dc6b2f1a3c085f44142c6f883604051610fec91906128f5565b60405180910390a250505050565b600360009054906101000a900473ffffffffffffffffffffffffffffffffffffffff1673ffffffffffffffffffffffffffffffffffffffff166372e4235b86866040518363ffffffff1660e01b81526004016110579291906123d4565b602060405180830381865afa158015611074573d6000803e3d6000fd5b505050506040513d601f19601f82011682018060405250810190611098919061233b565b6110d7576040517f08c379a00000000000000000000000000000000000000000000000000000000081526004016110ce9061296f565b60405180910390fd5b600360009054906101000a900473ffffffffffffffffffffffffffffffffffffffff1673ffffffffffffffffffffffffffffffffffffffff16631e073fcf86866040518363ffffffff1660e01b81526004016111349291906123d4565b602060405180830381865afa158015611151573d6000803e3d6000fd5b505050506040513d601f19601f82011682018060405250810190611175919061247e565b8311156111b7576040517f08c379a00000000000000000000000000000000000000000000000000000000081526004016111ae90612a01565b60405180910390fd5b600083600360009054906101000a900473ffffffffffffffffffffffffffffffffffffffff1673ffffffffffffffffffffffffffffffffffffffff16631e073fcf88886040518363ffffffff1660e01b81526004016112179291906123d4565b602060405180830381865afa158015611234573d6000803e3d6000fd5b505050506040513d601f19601f82011682018060405250810190611258919061247e565b6112629190612a50565b9050600360009054906101000a900473ffffffffffffffffffffffffffffffffffffffff1673ffffffffffffffffffffffffffffffffffffffff1663cb6f5eee8787846040518463ffffffff1660e01b81526004016112c393929190612872565b600060405180830381600087803b1580156112dd57600080fd5b505af11580156112f1573d6000803e3d6000fd5b5050505060006005856113049190612a84565b90506113138787858488611a41565b50505050505050565b6000600260009054906101000a900473ffffffffffffffffffffffffffffffffffffffff1673ffffffffffffffffffffffffffffffffffffffff1663a5578807846040518263ffffffff1660e01b815260040161137991906122f4565b602060405180830381865afa158015611396573d6000803e3d6000fd5b505050506040513d601f19601f820116820180604052508101906113ba919061233b565b6113f9576040517f08c379a00000000000000000000000000000000000000000000000000000000081526004016113f0906123b4565b60405180910390fd5b3073ffffffffffffffffffffffffffffffffffffffff16634f0205bf84846040518363ffffffff1660e01b81526004016114349291906123d4565b602060405180830381865afa158015611451573d6000803e3d6000fd5b505050506040513d601f19601f82011682018060405250810190611475919061233b565b6114b4576040517f08c379a00000000000000000000000000000000000000000000000000000000081526004016114ab90612449565b60405180910390fd5b600160009054906101000a900473ffffffffffffffffffffffffffffffffffffffff1673ffffffffffffffffffffffffffffffffffffffff16631e073fcf84846040518363ffffffff1660e01b81526004016115119291906123d4565b602060405180830381865afa15801561152e573d6000803e3d6000fd5b505050506040513d601f19601f82011682018060405250810190611552919061247e565b905092915050565b6060600260009054906101000a900473ffffffffffffffffffffffffffffffffffffffff1673ffffffffffffffffffffffffffffffffffffffff1663a5578807846040518263ffffffff1660e01b81526004016115b791906122f4565b602060405180830381865afa1580156115d4573d6000803e3d6000fd5b505050506040513d601f19601f820116820180604052508101906115f8919061233b565b611637576040517f08c379a000000000000000000000000000000000000000000000000000000000815260040161162e906123b4565b60405180910390fd5b3073ffffffffffffffffffffffffffffffffffffffff16634f0205bf84846040518363ffffffff1660e01b81526004016116729291906123d4565b602060405180830381865afa15801561168f573d6000803e3d6000fd5b505050506040513d601f19601f820116820180604052508101906116b3919061233b565b6116f2576040517f08c379a00000000000000000000000000000000000000000000000000000000081526004016116e990612449565b60405180910390fd5b600160009054906101000a900473ffffffffffffffffffffffffffffffffffffffff1673ffffffffffffffffffffffffffffffffffffffff1663f93bd02184846040518363ffffffff1660e01b815260040161174f9291906123d4565b600060405180830381865afa15801561176c573d6000803e3d6000fd5b505050506040513d6000823e3d601f19601f820116820180604052508101906117959190612ac6565b905092915050565b600080339050600260009054906101000a900473ffffffffffffffffffffffffffffffffffffffff1673ffffffffffffffffffffffffffffffffffffffff1663a5578807826040518263ffffffff1660e01b81526004016117fe91906122f4565b602060405180830381865afa15801561181b573d6000803e3d6000fd5b505050506040513d601f19601f8201168201806040525081019061183f919061233b565b61187e576040517f08c379a0000000000000000000000000000000000000000000000000000000008152600401611875906123b4565b60405180910390fd5b3073ffffffffffffffffffffffffffffffffffffffff16634f0205bf82856040518363ffffffff1660e01b81526004016118b99291906123d4565b602060405180830381865afa1580156118d6573d6000803e3d6000fd5b505050506040513d601f19601f820116820180604052508101906118fa919061233b565b611939576040517f08c379a000000000000000000000000000000000000000000000000000000000815260040161193090612b5b565b60405180910390fd5b600160009054906101000a900473ffffffffffffffffffffffffffffffffffffffff1673ffffffffffffffffffffffffffffffffffffffff1663f437eff182856040518363ffffffff1660e01b81526004016119969291906123d4565b6020604051808303816000875af11580156119b5573d6000803e3d6000fd5b505050506040513d601f19601f820116820180604052508101906119d9919061233b565b15611a36578073ffffffffffffffffffffffffffffffffffffffff167fc6c65fc1de8ea24c925debf6bd8533781f25ea92c3a42980607af396ebb8dfc884604051611a249190612bc7565b60405180910390a26001915050611a3c565b60009150505b919050565b84600073ffffffffffffffffffffffffffffffffffffffff168173ffffffffffffffffffffffffffffffffffffffff1603611ab1576040517f08c379a0000000000000000000000000000000000000000000000000000000008152600401611aa8906124f7565b60405180910390fd5b60008054906101000a900473ffffffffffffffffffffffffffffffffffffffff1673ffffffffffffffffffffffffffffffffffffffff168173ffffffffffffffffffffffffffffffffffffffff1603611b3f576040517f08c379a0000000000000000000000000000000000000000000000000000000008152600401611b3690612563565b60405180910390fd5b600160009054906101000a900473ffffffffffffffffffffffffffffffffffffffff1673ffffffffffffffffffffffffffffffffffffffff168173ffffffffffffffffffffffffffffffffffffffff1603611bcf576040517f08c379a0000000000000000000000000000000000000000000000000000000008152600401611bc6906125f5565b60405180910390fd5b600260009054906101000a900473ffffffffffffffffffffffffffffffffffffffff1673ffffffffffffffffffffffffffffffffffffffff168173ffffffffffffffffffffffffffffffffffffffff1603611c5f576040517f08c379a0000000000000000000000000000000000000000000000000000000008152600401611c5690612661565b60405180910390fd5b600260009054906101000a900473ffffffffffffffffffffffffffffffffffffffff1673ffffffffffffffffffffffffffffffffffffffff1663a5578807876040518263ffffffff1660e01b8152600401611cba91906122f4565b602060405180830381865afa158015611cd7573d6000803e3d6000fd5b505050506040513d601f19601f82011682018060405250810190611cfb919061233b565b611d3a576040517f08c379a0000000000000000000000000000000000000000000000000000000008152600401611d31906126cd565b60405180910390fd5b600080600080600160009054906101000a900473ffffffffffffffffffffffffffffffffffffffff1673ffffffffffffffffffffffffffffffffffffffff1663459b1e918b8b8b8b8b6040518663ffffffff1660e01b8152600401611da3959493929190612bf5565b6000604051808303816000875af1158015611dc2573d6000803e3d6000fd5b505050506040513d6000823e3d601f19601f82011682018060405250810190611deb91906127ef565b93509350935093508973ffffffffffffffffffffffffffffffffffffffff167f736bb084e5388f05b961110ece2195bd0813ee49bdbd348f25aad1957d550ae585858486604051611e3f9493929190612cc1565b60405180910390a250505050505050505050565b6000604051905090565b600080fd5b600080fd5b600073ffffffffffffffffffffffffffffffffffffffff82169050919050565b6000611e9282611e67565b9050919050565b611ea281611e87565b8114611ead57600080fd5b50565b600081359050611ebf81611e99565b92915050565b6000819050919050565b611ed881611ec5565b8114611ee357600080fd5b50565b600081359050611ef581611ecf565b92915050565b60008060408385031215611f1257611f11611e5d565b5b6000611f2085828601611eb0565b9250506020611f3185828601611ee6565b9150509250929050565b611f4481611ec5565b82525050565b6000602082019050611f5f6000830184611f3b565b92915050565b600060208284031215611f7b57611f7a611e5d565b5b6000611f8984828501611ee6565b91505092915050565b600081519050919050565b600082825260208201905092915050565b60005b83811015611fcc578082015181840152602081019050611fb1565b60008484015250505050565b6000601f19601f8301169050919050565b6000611ff482611f92565b611ffe8185611f9d565b935061200e818560208601611fae565b61201781611fd8565b840191505092915050565b60006080820190506120376000830187611f3b565b81810360208301526120498186611fe9565b90506120586040830185611f3b565b6120656060830184611f3b565b95945050505050565b60008115159050919050565b6120838161206e565b82525050565b600060208201905061209e600083018461207a565b92915050565b6000806000606084860312156120bd576120bc611e5d565b5b60006120cb86828701611eb0565b93505060206120dc86828701611ee6565b92505060406120ed86828701611ee6565b9150509250925092565b600080fd5b600080fd5b7f4e487b7100000000000000000000000000000000000000000000000000000000600052604160045260246000fd5b61213982611fd8565b810181811067ffffffffffffffff8211171561215857612157612101565b5b80604052505050565b600061216b611e53565b90506121778282612130565b919050565b600067ffffffffffffffff82111561219757612196612101565b5b6121a082611fd8565b9050602081019050919050565b82818337600083830152505050565b60006121cf6121ca8461217c565b612161565b9050828152602081018484840111156121eb576121ea6120fc565b5b6121f68482856121ad565b509392505050565b600082601f830112612213576122126120f7565b5b81356122238482602086016121bc565b91505092915050565b600080600080600060a0868803121561224857612247611e5d565b5b600061225688828901611eb0565b955050602061226788828901611ee6565b945050604061227888828901611ee6565b935050606061228988828901611ee6565b925050608086013567ffffffffffffffff8111156122aa576122a9611e62565b5b6122b6888289016121fe565b9150509295509295909350565b600060208201905081810360008301526122dd8184611fe9565b905092915050565b6122ee81611e87565b82525050565b600060208201905061230960008301846122e5565b92915050565b6123188161206e565b811461232357600080fd5b50565b6000815190506123358161230f565b92915050565b60006020828403121561235157612350611e5d565b5b600061235f84828501612326565b91505092915050565b7f55736572206973206e6f742070726573656e7421000000000000000000000000600082015250565b600061239e601483611f9d565b91506123a982612368565b602082019050919050565b600060208201905081810360008301526123cd81612391565b9050919050565b60006040820190506123e960008301856122e5565b6123f66020830184611f3b565b9392505050565b7f4d696c6b4261746368206e6f742050726573656e742100000000000000000000600082015250565b6000612433601683611f9d565b915061243e826123fd565b602082019050919050565b6000602082019050818103600083015261246281612426565b9050919050565b60008151905061247881611ecf565b92915050565b60006020828403121561249457612493611e5d565b5b60006124a284828501612469565b91505092915050565b7f416464726573732056616c7565206973205a65726f2100000000000000000000600082015250565b60006124e1601683611f9d565b91506124ec826124ab565b602082019050919050565b60006020820190508181036000830152612510816124d4565b9050919050565b7f41646472657373206e6f742076616c6964210000000000000000000000000000600082015250565b600061254d601283611f9d565b915061255882612517565b602082019050919050565b6000602082019050818103600083015261257c81612540565b9050919050565b7f41646472657373206e6f742076616c6964206f6620496e76656e746f7279205360008201527f746f726167650000000000000000000000000000000000000000000000000000602082015250565b60006125df602683611f9d565b91506125ea82612583565b604082019050919050565b6000602082019050818103600083015261260e816125d2565b9050919050565b7f41646472657373206e6f742076616c6964206f66205365727669636500000000600082015250565b600061264b601c83611f9d565b915061265682612615565b602082019050919050565b6000602082019050818103600083015261267a8161263e565b9050919050565b7f55736572206973206e6f742070726573656e7420696e20646174610000000000600082015250565b60006126b7601b83611f9d565b91506126c282612681565b602082019050919050565b600060208201905081810360008301526126e6816126aa565b9050919050565b7f436865657365426c6f636b206973206e6f742070726573656e7420696e20646160008201527f7461000000000000000000000000000000000000000000000000000000000000602082015250565b6000612749602283611f9d565b9150612754826126ed565b604082019050919050565b600060208201905081810360008301526127788161273c565b9050919050565b600061279261278d8461217c565b612161565b9050828152602081018484840111156127ae576127ad6120fc565b5b6127b9848285611fae565b509392505050565b600082601f8301126127d6576127d56120f7565b5b81516127e684826020860161277f565b91505092915050565b6000806000806080858703121561280957612808611e5d565b5b600061281787828801612469565b945050602085015167ffffffffffffffff81111561283857612837611e62565b5b612844878288016127c1565b935050604061285587828801612469565b925050606061286687828801612469565b91505092959194509250565b600060608201905061288760008301866122e5565b6128946020830185611f3b565b6128a16040830184611f3b565b949350505050565b7f436865657365426c6f636b206564697465642100000000000000000000000000600082015250565b60006128df601383611f9d565b91506128ea826128a9565b602082019050919050565b6000604082019050818103600083015261290e816128d2565b905061291d6020830184611f3b565b92915050565b7f50726f646f74746f206e6f6e2070726573656e74652100000000000000000000600082015250565b6000612959601683611f9d565b915061296482612923565b602082019050919050565b600060208201905081810360008301526129888161294c565b9050919050565b7f5175616e74697461272064612074726173666f726d617265206e6f6e2076616c60008201527f6964612100000000000000000000000000000000000000000000000000000000602082015250565b60006129eb602483611f9d565b91506129f68261298f565b604082019050919050565b60006020820190508181036000830152612a1a816129de565b9050919050565b7f4e487b7100000000000000000000000000000000000000000000000000000000600052601160045260246000fd5b6000612a5b82611ec5565b9150612a6683611ec5565b9250828203905081811115612a7e57612a7d612a21565b5b92915050565b6000612a8f82611ec5565b9150612a9a83611ec5565b9250828202612aa881611ec5565b91508282048414831517612abf57612abe612a21565b5b5092915050565b600060208284031215612adc57612adb611e5d565b5b600082015167ffffffffffffffff811115612afa57612af9611e62565b5b612b06848285016127c1565b91505092915050565b7f43686565736520426c6f636b206e6f742050726573656e742100000000000000600082015250565b6000612b45601983611f9d565b9150612b5082612b0f565b602082019050919050565b60006020820190508181036000830152612b7481612b38565b9050919050565b7f43686565736520426c6f636b20652720737461746f20656c656d696e61746f00600082015250565b6000612bb1601f83611f9d565b9150612bbc82612b7b565b602082019050919050565b60006040820190508181036000830152612be081612ba4565b9050612bef6020830184611f3b565b92915050565b600060a082019050612c0a60008301886122e5565b612c176020830187611f3b565b8181036040830152612c298186611fe9565b9050612c386060830185611f3b565b612c456080830184611f3b565b9695505050505050565b7f4d696c6b426174636820636f6e7665727469746f20636f6e207375636365737360008201527f6f2021204563636f20696c206e756f766f20636865657365426c6f636b210000602082015250565b6000612cab603e83611f9d565b9150612cb682612c4f565b604082019050919050565b600060a0820190508181036000830152612cda81612c9e565b9050612ce96020830187611f3b565b8181036040830152612cfb8186611fe9565b9050612d0a6060830185611f3b565b612d176080830184611f3b565b9594505050505056fea264697066735822122068b3852cc4489f883e2dca6e2154b0d137b43a8b2caf5dfc36661178bdb6599464736f6c63430008180033",
  "immutableReferences": {},
  "source": "// SPDX-License-Identifier: MIT\r\npragma solidity ^0.8.21;\r\n\r\nimport \"./CheeseProducerInventoryStorage.sol\";\r\nimport \"../CheeseProducerService.sol\";\r\nimport \"./CheeseProducerMilkBatchService.sol\";\r\n\r\n// NOTA : implementare i controlli semplici e non di autorizzazione perch i retailer possono vedere le varie info in merito ai prodotti dei CheeseProducer \r\n// NOTA : Nel service che gestisce lo storage di acquisto, bisogna implementare una logica pi restrittiva che ci d la possibilit di far visualizzare i prodotti acquistati a coloro che li acquistati.\r\n// NOTA : Ricorda di implementare una logica di approvazione per il contratto che esegue l'aggiunta dell'oggetto acquistato ( TransactionManager deve essere approvato per poter eseguire una transazione del genere ) \r\n\r\ncontract CheeseProducerInventoryService {\r\n\r\n//--------------------------------------------------------------------- Address of Service Contract -----------------------------------------------//\r\n\r\n    // Address of Organization che gestisce gli utenti\r\n    address private cheeseProducerOrg;\r\n\r\n    // Address of Consumer Storage \r\n    CheeseProducerInventoryStorage private cheeseProducerInventoryStorage;\r\n\r\n    CheeseProducerService private cheeseProducerService;\r\n\r\n    CheeseProducerMilkBatchService private cheeseProducerMilkBatchService;\r\n\r\n//--------------------------------------------------------------------- Event of Service Contract -----------------------------------------------//\r\n\r\n    // Eventi per notificare l'aggiunta di una Partita di Latte\r\n    event CheeseBlockAdded(address indexed userAddress,string message,uint256 id, string dop, uint256 quantity, uint256 price);\r\n\r\n    // Eventi per notificare la rimozione di un CheeseBlock\r\n    event CheeseBlockDeleted(address indexed userAddress, string message, uint256 _id);\r\n    \r\n    // Eventi per notificare la modifica di un Cheese Block \r\n    event CheeseBlockEdited(address indexed userAddress,string message, uint256 quantity);\r\n\r\n\r\n//--------------------------------------------------------------------- Constructor of Service Contract -----------------------------------------------//\r\n\r\n\r\n    constructor(\r\n        address _cheeseProducerInventoryStorage,\r\n        address _cheeseProducerService,\r\n        address _cheeseProducerMilkBatchService) {\r\n        \r\n        cheeseProducerInventoryStorage = CheeseProducerInventoryStorage(_cheeseProducerInventoryStorage);\r\n        \r\n        cheeseProducerService = CheeseProducerService(_cheeseProducerService);\r\n\r\n        cheeseProducerMilkBatchService = CheeseProducerMilkBatchService(_cheeseProducerMilkBatchService);\r\n        \r\n        cheeseProducerOrg = msg.sender;\r\n    }\r\n\r\n//--------------------------------------------------------------------- Modifier of Service Contract -----------------------------------------------//\r\n\r\n    modifier checkAddress(address caller) {\r\n        require(caller != address(0),\"Address Value is Zero!\");\r\n        require(caller != cheeseProducerOrg, \"Address not valid!\");\r\n        require(caller != address(cheeseProducerInventoryStorage), \"Address not valid of Inventory Storage\");\r\n        require(caller != address(cheeseProducerService),\"Address not valid of Service\");\r\n        _;\r\n    }\r\n\r\n    // TODO : Aggiungere il controllo per l'organizzazione che pu effettuare il cambio dei vari Address di Service di cui abbiamo bisogno\r\n\r\n//--------------------------------------------------------------------- Business Function of Service Contract -----------------------------------------------//\r\n\r\n\r\n    /* Questa funzione permette di aggiungere : \r\n       Un prodotto CheeseBlock all'inventario da poter mettere in vendita\r\n       \r\n       - Check da effettuare : \r\n       - Verifica che l'address dell'utente sia registrato \r\n       - Verifica che l'address dell'utente non sia l'organizzazione che ha deployato il contratto \r\n       \r\n       - Evento : \r\n       - CheeseBlockAdded()\r\n     */\r\n    function addCheeseBlock(\r\n        address _walletCheeseProducer,\r\n        uint256 _id_MilkBatchAcquistato,\r\n        string memory _dop,\r\n        uint256 _quantity,\r\n        uint256 _price) internal  checkAddress(_walletCheeseProducer) {\r\n        \r\n        require(cheeseProducerService.isUserPresent(_walletCheeseProducer), \"User is not present in data\");\r\n        \r\n        (uint id_Cheese,string memory dop, uint256 pricePerKg, uint256 quantityToTal) = cheeseProducerInventoryStorage.addCheeseBlock(_walletCheeseProducer, _id_MilkBatchAcquistato, _dop, _quantity, _price);\r\n\r\n        emit CheeseBlockAdded(_walletCheeseProducer,\"MilkBatch convertito con successo ! Ecco il nuovo cheeseBlock!\",id_Cheese, dop, quantityToTal, pricePerKg);\r\n    }\r\n\r\n    /**\r\n     * Ottenere le informazioni del cheeseblock attraverso : \r\n     * - ID cheeseBlock\r\n     * */  \r\n    function getCheeseBlock(uint256 _id_CheeseBlock) external view checkAddress(msg.sender) returns (uint256, string memory, uint256, uint256) {\r\n        \r\n        address walletCheeseProducer = msg.sender;\r\n\r\n        require(cheeseProducerService.isUserPresent(walletCheeseProducer), \"User is not present in data\");\r\n\r\n        require(this.isCheeseBlockPresent(walletCheeseProducer, _id_CheeseBlock), \"CheeseBlock is not present in data\");\r\n\r\n        return cheeseProducerInventoryStorage.getCheeseBlock(walletCheeseProducer, _id_CheeseBlock);\r\n    }\r\n\r\n    /**\r\n     * Eliminare un Cheese Block attraverso l'id \r\n     * - ID \r\n     * - Verficare che l'utente che vuole eseguire la transazione sia presente.\r\n     */\r\n    function deleteCheeseBlock(uint256 _id) external returns(bool){\r\n        // Retrieve msg.sender \r\n        address walletCheeseProducer = msg.sender;\r\n        // Check if User is Present\r\n        require(cheeseProducerService.isUserPresent(walletCheeseProducer), \"User is not present!\");\r\n        // Check if Product is present \r\n        require(this.isCheeseBlockPresent(walletCheeseProducer, _id),\"Cheese Block not Present!\");\r\n\r\n        if(cheeseProducerInventoryStorage.deleteCheeseBlock(walletCheeseProducer,_id)){\r\n            emit CheeseBlockDeleted(walletCheeseProducer,\"Cheese Block e' stato eleminato\", _id);\r\n            return true;\r\n        }else {\r\n            return false;\r\n        }\r\n    }\r\n\r\n//--------------------------------------------------------------------- Get Function of Service Contract -----------------------------------------------//\r\n\r\n    function getDop(address walletCheeseProducer, uint256 _id) external view returns(string memory) {\r\n        require(cheeseProducerService.isUserPresent(walletCheeseProducer), \"User is not present!\");\r\n\r\n        require(this.isCheeseBlockPresent(walletCheeseProducer, _id),\"MilkBatch not Present!\");\r\n\r\n        return cheeseProducerInventoryStorage.getDop(walletCheeseProducer,_id);        \r\n    }\r\n\r\n    function getPrice(address walletCheeseProducer, uint256 _id) external view returns(uint256) {\r\n        require(cheeseProducerService.isUserPresent(walletCheeseProducer), \"User is not present!\");\r\n\r\n        require(this.isCheeseBlockPresent(walletCheeseProducer, _id),\"MilkBatch not Present!\");\r\n\r\n        return cheeseProducerInventoryStorage.getPrice(walletCheeseProducer,_id);        \r\n    }\r\n\r\n    function getCheeseBlockQuantity(address walletCheeseProducer, uint256 _id) external view returns(uint256) {\r\n        require(cheeseProducerService.isUserPresent(walletCheeseProducer), \"User is not present!\");\r\n\r\n        require(this.isCheeseBlockPresent(walletCheeseProducer, _id),\"MilkBatch not Present!\");\r\n\r\n        return cheeseProducerInventoryStorage.getQuantity(walletCheeseProducer,_id);        \r\n    }\r\n\r\n    // Verifica se un determinato CheeseBlock  presente \r\n    function isCheeseBlockPresent(address walletCheeseProducer, uint256 _id_cheeseBlock) external view  checkAddress(walletCheeseProducer) returns(bool){\r\n\r\n        return cheeseProducerInventoryStorage.isCheeseBlockPresent(walletCheeseProducer,_id_cheeseBlock);\r\n    }\r\n\r\n//--------------------------------------------------------------------- Update Function of Service Contract -----------------------------------------------//\r\n\r\n    // Funzione per trasformare i vari milkBatch in CheeseBlock \r\n    function transformMilkBatch(address walletCheeseProducer, uint256 _id_MilkBatchAcquistato, uint256 quantityToTransform, uint256 pricePerKg, string memory dop) external  {\r\n        \r\n        //Verifico che il prodotto esiste, che la quantit richiesta da trasformare non ecceda il massimo consentito\r\n        require(cheeseProducerMilkBatchService.isMilkBatchAcquistataPresent(walletCheeseProducer,_id_MilkBatchAcquistato),\"Prodotto non presente!\");\r\n        // Verifico la quantit \r\n        // Verifico che quella che devo trasformare sia inferiore o uguale a quella che ho acquistato \r\n        require(quantityToTransform<=cheeseProducerMilkBatchService.getQuantity(walletCheeseProducer,_id_MilkBatchAcquistato),\"Quantita' da trasformare non valida!\");\r\n\r\n        uint256 _newQuantity = cheeseProducerMilkBatchService.getQuantity(walletCheeseProducer,_id_MilkBatchAcquistato) - quantityToTransform;\r\n\r\n        //TODO: gestire data di scadenza nel frontend ( Verificare la data di Scadenza con quella Odierna ) \r\n        cheeseProducerMilkBatchService.updateMilkBatchQuantity(walletCheeseProducer,_id_MilkBatchAcquistato, _newQuantity);\r\n\r\n        uint256 weight = quantityToTransform * 5;\r\n        //TODO: gestire il prezzo con SafeMath\r\n        addCheeseBlock(walletCheeseProducer,_id_MilkBatchAcquistato, dop, weight,pricePerKg);\r\n    }\r\n\r\n\r\n// --------------------------------------------------------------------- SET function --------------------------------------------------------------------------------------------//\r\n\r\n\r\n    /**\r\n    * Decremento della quantit del CheeseBlock \r\n    * Verifica che la quantit sia maggiore di 0 -> altrimenti rimani \r\n    */\r\n    function updateCheeseBlockQuantity(address ownerCheeseProducer, uint256 _id, uint256 _quantity) external checkAddress(ownerCheeseProducer) {\r\n\r\n        require(cheeseProducerService.isUserPresent(ownerCheeseProducer), \"User is not present!\");\r\n\r\n        require(this.isCheeseBlockPresent(ownerCheeseProducer, _id),\"MilkBatch not Present!\");\r\n\r\n        cheeseProducerInventoryStorage.updateCheeseBlockQuantity(ownerCheeseProducer, _id, _quantity);\r\n\r\n        emit CheeseBlockEdited(ownerCheeseProducer,\"CheeseBlock edited!\", _quantity);\r\n    }\r\n\r\n}\r\n",
  "sourcePath": "/home/udm-root/Filiera-Token-Deploy/contracts/Actor/CheeseProducer-smart-contract/inventory/CheeseProducerInventoryService.sol",
  "compiler": {
    "name": "solc",
    "version": "0.8.24+commit.e11b9ed9.Emscripten.clang"
  },
  "schemaVersion": "3.4.16",
  "updatedAt": "2024-02-27T19:47:26.420Z",
  "devdoc": {
    "kind": "dev",
    "methods": {},
    "version": 1
  },
  "userdoc": {
    "kind": "user",
    "methods": {
      "deleteCheeseBlock(uint256)": {
        "notice": "Eliminare un Cheese Block attraverso l'id  - ID  - Verficare che l'utente che vuole eseguire la transazione sia presente."
      },
      "getCheeseBlock(uint256)": {
        "notice": "Ottenere le informazioni del cheeseblock attraverso :  - ID cheeseBlock "
      },
      "updateCheeseBlockQuantity(address,uint256,uint256)": {
        "notice": "Decremento della quantit del CheeseBlock  Verifica che la quantit sia maggiore di 0 -> altrimenti rimani "
      }
    },
    "version": 1
  }
}