{
  "contractName": "CheeseProducerInventoryService",
  "abi": [
    {
      "inputs": [
        {
          "internalType": "address",
          "name": "_cheeseProducerInventoryStorage",
          "type": "address"
        },
        {
          "internalType": "address",
          "name": "_cheeseProducerService",
          "type": "address"
        },
        {
          "internalType": "address",
          "name": "_cheeseProducerBuyerService",
          "type": "address"
        },
        {
          "internalType": "address",
          "name": "_accessControlProduct",
          "type": "address"
        }
      ],
      "stateMutability": "nonpayable",
      "type": "constructor"
    },
    {
      "anonymous": false,
      "inputs": [
        {
          "indexed": true,
          "internalType": "address",
          "name": "userAddress",
          "type": "address"
        },
        {
          "indexed": false,
          "internalType": "string",
          "name": "message",
          "type": "string"
        },
        {
          "indexed": false,
          "internalType": "uint256",
          "name": "id",
          "type": "uint256"
        },
        {
          "indexed": false,
          "internalType": "string",
          "name": "dop",
          "type": "string"
        },
        {
          "indexed": false,
          "internalType": "uint256",
          "name": "quantity",
          "type": "uint256"
        },
        {
          "indexed": false,
          "internalType": "uint256",
          "name": "price",
          "type": "uint256"
        }
      ],
      "name": "CheeseBlockAdded",
      "type": "event"
    },
    {
      "anonymous": false,
      "inputs": [
        {
          "indexed": true,
          "internalType": "address",
          "name": "userAddress",
          "type": "address"
        },
        {
          "indexed": false,
          "internalType": "string",
          "name": "message",
          "type": "string"
        },
        {
          "indexed": false,
          "internalType": "uint256",
          "name": "_id",
          "type": "uint256"
        }
      ],
      "name": "CheeseBlockDeleted",
      "type": "event"
    },
    {
      "anonymous": false,
      "inputs": [
        {
          "indexed": true,
          "internalType": "address",
          "name": "userAddress",
          "type": "address"
        },
        {
          "indexed": false,
          "internalType": "string",
          "name": "message",
          "type": "string"
        },
        {
          "indexed": false,
          "internalType": "uint256",
          "name": "quantity",
          "type": "uint256"
        }
      ],
      "name": "CheeseBlockEdited",
      "type": "event"
    },
    {
      "inputs": [
        {
          "internalType": "uint256",
          "name": "_id_CheeseBlock",
          "type": "uint256"
        }
      ],
      "name": "getCheeseBlock",
      "outputs": [
        {
          "internalType": "uint256",
          "name": "",
          "type": "uint256"
        },
        {
          "internalType": "string",
          "name": "",
          "type": "string"
        },
        {
          "internalType": "uint256",
          "name": "",
          "type": "uint256"
        },
        {
          "internalType": "uint256",
          "name": "",
          "type": "uint256"
        }
      ],
      "stateMutability": "view",
      "type": "function"
    },
    {
      "inputs": [
        {
          "internalType": "uint256",
          "name": "_id",
          "type": "uint256"
        }
      ],
      "name": "deleteCheeseBlock",
      "outputs": [
        {
          "internalType": "bool",
          "name": "",
          "type": "bool"
        }
      ],
      "stateMutability": "nonpayable",
      "type": "function"
    },
    {
      "inputs": [
        {
          "internalType": "address",
          "name": "walletCheeseProducer",
          "type": "address"
        },
        {
          "internalType": "uint256",
          "name": "_id",
          "type": "uint256"
        }
      ],
      "name": "getDop",
      "outputs": [
        {
          "internalType": "string",
          "name": "",
          "type": "string"
        }
      ],
      "stateMutability": "view",
      "type": "function"
    },
    {
      "inputs": [
        {
          "internalType": "address",
          "name": "walletCheeseProducer",
          "type": "address"
        },
        {
          "internalType": "uint256",
          "name": "_id",
          "type": "uint256"
        }
      ],
      "name": "getPrice",
      "outputs": [
        {
          "internalType": "uint256",
          "name": "",
          "type": "uint256"
        }
      ],
      "stateMutability": "view",
      "type": "function"
    },
    {
      "inputs": [
        {
          "internalType": "address",
          "name": "walletCheeseProducer",
          "type": "address"
        },
        {
          "internalType": "uint256",
          "name": "_id",
          "type": "uint256"
        }
      ],
      "name": "getCheeseBlockQuantity",
      "outputs": [
        {
          "internalType": "uint256",
          "name": "",
          "type": "uint256"
        }
      ],
      "stateMutability": "view",
      "type": "function"
    },
    {
      "inputs": [
        {
          "internalType": "address",
          "name": "walletCheeseProducer",
          "type": "address"
        },
        {
          "internalType": "uint256",
          "name": "_id_cheeseBlock",
          "type": "uint256"
        }
      ],
      "name": "isCheeseBlockPresent",
      "outputs": [
        {
          "internalType": "bool",
          "name": "",
          "type": "bool"
        }
      ],
      "stateMutability": "view",
      "type": "function"
    },
    {
      "inputs": [
        {
          "internalType": "address",
          "name": "walletCheeseProducer",
          "type": "address"
        }
      ],
      "name": "getCheeseBlockByCheeseProducer",
      "outputs": [
        {
          "components": [
            {
              "internalType": "uint256",
              "name": "id",
              "type": "uint256"
            },
            {
              "internalType": "string",
              "name": "dop",
              "type": "string"
            },
            {
              "internalType": "uint256",
              "name": "price",
              "type": "uint256"
            },
            {
              "internalType": "uint256",
              "name": "quantity",
              "type": "uint256"
            }
          ],
          "internalType": "struct CheeseProducerInventoryStorage.Cheese[]",
          "name": "",
          "type": "tuple[]"
        }
      ],
      "stateMutability": "view",
      "type": "function"
    },
    {
      "inputs": [
        {
          "internalType": "address",
          "name": "walleRetailer",
          "type": "address"
        }
      ],
      "name": "getAllCheeseBlockList",
      "outputs": [
        {
          "components": [
            {
              "internalType": "uint256",
              "name": "id",
              "type": "uint256"
            },
            {
              "internalType": "string",
              "name": "dop",
              "type": "string"
            },
            {
              "internalType": "uint256",
              "name": "price",
              "type": "uint256"
            },
            {
              "internalType": "uint256",
              "name": "quantity",
              "type": "uint256"
            }
          ],
          "internalType": "struct CheeseProducerInventoryStorage.Cheese[]",
          "name": "",
          "type": "tuple[]"
        }
      ],
      "stateMutability": "view",
      "type": "function"
    },
    {
      "inputs": [
        {
          "internalType": "address",
          "name": "walletCheeseProducer",
          "type": "address"
        },
        {
          "internalType": "uint256",
          "name": "_id_MilkBatchAcquistato",
          "type": "uint256"
        },
        {
          "internalType": "uint256",
          "name": "quantityToTransform",
          "type": "uint256"
        },
        {
          "internalType": "uint256",
          "name": "pricePerKg",
          "type": "uint256"
        },
        {
          "internalType": "string",
          "name": "dop",
          "type": "string"
        }
      ],
      "name": "transformMilkBatch",
      "outputs": [],
      "stateMutability": "nonpayable",
      "type": "function"
    },
    {
      "inputs": [
        {
          "internalType": "address",
          "name": "ownerCheeseProducer",
          "type": "address"
        },
        {
          "internalType": "uint256",
          "name": "_id",
          "type": "uint256"
        },
        {
          "internalType": "uint256",
          "name": "_quantity",
          "type": "uint256"
        }
      ],
      "name": "updateCheeseBlockQuantity",
      "outputs": [],
      "stateMutability": "nonpayable",
      "type": "function"
    }
  ],
  "bytecode": "0x60806040523480156200001157600080fd5b5060405162003c0838038062003c088339818101604052810190620000379190620001ef565b83600160006101000a81548173ffffffffffffffffffffffffffffffffffffffff021916908373ffffffffffffffffffffffffffffffffffffffff16021790555082600260006101000a81548173ffffffffffffffffffffffffffffffffffffffff021916908373ffffffffffffffffffffffffffffffffffffffff16021790555081600360006101000a81548173ffffffffffffffffffffffffffffffffffffffff021916908373ffffffffffffffffffffffffffffffffffffffff16021790555080600460006101000a81548173ffffffffffffffffffffffffffffffffffffffff021916908373ffffffffffffffffffffffffffffffffffffffff160217905550336000806101000a81548173ffffffffffffffffffffffffffffffffffffffff021916908373ffffffffffffffffffffffffffffffffffffffff1602179055505050505062000261565b600080fd5b600073ffffffffffffffffffffffffffffffffffffffff82169050919050565b6000620001b7826200018a565b9050919050565b620001c981620001aa565b8114620001d557600080fd5b50565b600081519050620001e981620001be565b92915050565b600080600080608085870312156200020c576200020b62000185565b5b60006200021c87828801620001d8565b94505060206200022f87828801620001d8565b93505060406200024287828801620001d8565b92505060606200025587828801620001d8565b91505092959194509250565b61399780620002716000396000f3fe608060405234801561001057600080fd5b506004361061009e5760003560e01c806393df200a1161006657806393df200a14610182578063cd9de9061461019e578063d7da36cf146101ce578063f93bd021146101fe578063f9d61a1e1461022e5761009e565b8063392fd54b146100a3578063449e815d146100d35780634c939786146101035780634f0205bf1461013657806377e94d9e14610166575b600080fd5b6100bd60048036038101906100b891906124ff565b61025e565b6040516100ca91906126fa565b60405180910390f35b6100ed60048036038101906100e89190612748565b61047e565b6040516100fa9190612797565b60405180910390f35b61011d600480360381019061011891906127b2565b6106bc565b60405161012d9493929190612829565b60405180910390f35b610150600480360381019061014b9190612748565b610b30565b60405161015d9190612890565b60405180910390f35b610180600480360381019061017b91906128ab565b610df7565b005b61019c60048036038101906101979190612a33565b611290565b005b6101b860048036038101906101b391906124ff565b6115b2565b6040516101c591906126fa565b60405180910390f35b6101e860048036038101906101e39190612748565b611956565b6040516101f59190612797565b60405180910390f35b61021860048036038101906102139190612748565b611b94565b6040516102259190612aca565b60405180910390f35b610248600480360381019061024391906127b2565b611dd7565b6040516102559190612890565b60405180910390f35b6060600460009054906101000a900473ffffffffffffffffffffffffffffffffffffffff1673ffffffffffffffffffffffffffffffffffffffff1663fe174e3a836040518263ffffffff1660e01b81526004016102bb9190612afb565b602060405180830381865afa1580156102d8573d6000803e3d6000fd5b505050506040513d601f19601f820116820180604052508101906102fc9190612b42565b61033b576040517f08c379a000000000000000000000000000000000000000000000000000000000815260040161033290612bbb565b60405180910390fd5b6000600260009054906101000a900473ffffffffffffffffffffffffffffffffffffffff1673ffffffffffffffffffffffffffffffffffffffff1663d0c9ba9b6040518163ffffffff1660e01b8152600401600060405180830381865afa1580156103aa573d6000803e3d6000fd5b505050506040513d6000823e3d601f19601f820116820180604052508101906103d39190612cb8565b9050600160009054906101000a900473ffffffffffffffffffffffffffffffffffffffff1673ffffffffffffffffffffffffffffffffffffffff1663320b0b65826040518263ffffffff1660e01b81526004016104309190612dbf565b600060405180830381865afa15801561044d573d6000803e3d6000fd5b505050506040513d6000823e3d601f19601f820116820180604052508101906104769190612fe5565b915050919050565b6000600260009054906101000a900473ffffffffffffffffffffffffffffffffffffffff1673ffffffffffffffffffffffffffffffffffffffff1663a5578807846040518263ffffffff1660e01b81526004016104db9190612afb565b602060405180830381865afa1580156104f8573d6000803e3d6000fd5b505050506040513d601f19601f8201168201806040525081019061051c9190612b42565b61055b576040517f08c379a00000000000000000000000000000000000000000000000000000000081526004016105529061307a565b60405180910390fd5b3073ffffffffffffffffffffffffffffffffffffffff16634f0205bf84846040518363ffffffff1660e01b815260040161059692919061309a565b602060405180830381865afa1580156105b3573d6000803e3d6000fd5b505050506040513d601f19601f820116820180604052508101906105d79190612b42565b610616576040517f08c379a000000000000000000000000000000000000000000000000000000000815260040161060d9061310f565b60405180910390fd5b600160009054906101000a900473ffffffffffffffffffffffffffffffffffffffff1673ffffffffffffffffffffffffffffffffffffffff1663449e815d84846040518363ffffffff1660e01b815260040161067392919061309a565b602060405180830381865afa158015610690573d6000803e3d6000fd5b505050506040513d601f19601f820116820180604052508101906106b4919061312f565b905092915050565b6000606060008033600073ffffffffffffffffffffffffffffffffffffffff168173ffffffffffffffffffffffffffffffffffffffff1603610733576040517f08c379a000000000000000000000000000000000000000000000000000000000815260040161072a906131a8565b60405180910390fd5b60008054906101000a900473ffffffffffffffffffffffffffffffffffffffff1673ffffffffffffffffffffffffffffffffffffffff168173ffffffffffffffffffffffffffffffffffffffff16036107c1576040517f08c379a00000000000000000000000000000000000000000000000000000000081526004016107b890613214565b60405180910390fd5b600160009054906101000a900473ffffffffffffffffffffffffffffffffffffffff1673ffffffffffffffffffffffffffffffffffffffff168173ffffffffffffffffffffffffffffffffffffffff1603610851576040517f08c379a0000000000000000000000000000000000000000000000000000000008152600401610848906132a6565b60405180910390fd5b600260009054906101000a900473ffffffffffffffffffffffffffffffffffffffff1673ffffffffffffffffffffffffffffffffffffffff168173ffffffffffffffffffffffffffffffffffffffff16036108e1576040517f08c379a00000000000000000000000000000000000000000000000000000000081526004016108d890613312565b60405180910390fd5b6000339050600260009054906101000a900473ffffffffffffffffffffffffffffffffffffffff1673ffffffffffffffffffffffffffffffffffffffff1663a5578807826040518263ffffffff1660e01b81526004016109419190612afb565b602060405180830381865afa15801561095e573d6000803e3d6000fd5b505050506040513d601f19601f820116820180604052508101906109829190612b42565b6109c1576040517f08c379a00000000000000000000000000000000000000000000000000000000081526004016109b89061337e565b60405180910390fd5b3073ffffffffffffffffffffffffffffffffffffffff16634f0205bf82896040518363ffffffff1660e01b81526004016109fc92919061309a565b602060405180830381865afa158015610a19573d6000803e3d6000fd5b505050506040513d601f19601f82011682018060405250810190610a3d9190612b42565b610a7c576040517f08c379a0000000000000000000000000000000000000000000000000000000008152600401610a7390613410565b60405180910390fd5b600160009054906101000a900473ffffffffffffffffffffffffffffffffffffffff1673ffffffffffffffffffffffffffffffffffffffff16636fb82e0682896040518363ffffffff1660e01b8152600401610ad992919061309a565b600060405180830381865afa158015610af6573d6000803e3d6000fd5b505050506040513d6000823e3d601f19601f82011682018060405250810190610b1f9190613430565b955095509550955050509193509193565b600082600073ffffffffffffffffffffffffffffffffffffffff168173ffffffffffffffffffffffffffffffffffffffff1603610ba2576040517f08c379a0000000000000000000000000000000000000000000000000000000008152600401610b99906131a8565b60405180910390fd5b60008054906101000a900473ffffffffffffffffffffffffffffffffffffffff1673ffffffffffffffffffffffffffffffffffffffff168173ffffffffffffffffffffffffffffffffffffffff1603610c30576040517f08c379a0000000000000000000000000000000000000000000000000000000008152600401610c2790613214565b60405180910390fd5b600160009054906101000a900473ffffffffffffffffffffffffffffffffffffffff1673ffffffffffffffffffffffffffffffffffffffff168173ffffffffffffffffffffffffffffffffffffffff1603610cc0576040517f08c379a0000000000000000000000000000000000000000000000000000000008152600401610cb7906132a6565b60405180910390fd5b600260009054906101000a900473ffffffffffffffffffffffffffffffffffffffff1673ffffffffffffffffffffffffffffffffffffffff168173ffffffffffffffffffffffffffffffffffffffff1603610d50576040517f08c379a0000000000000000000000000000000000000000000000000000000008152600401610d4790613312565b60405180910390fd5b600160009054906101000a900473ffffffffffffffffffffffffffffffffffffffff1673ffffffffffffffffffffffffffffffffffffffff16634f0205bf85856040518363ffffffff1660e01b8152600401610dad92919061309a565b602060405180830381865afa158015610dca573d6000803e3d6000fd5b505050506040513d601f19601f82011682018060405250810190610dee9190612b42565b91505092915050565b82600073ffffffffffffffffffffffffffffffffffffffff168173ffffffffffffffffffffffffffffffffffffffff1603610e67576040517f08c379a0000000000000000000000000000000000000000000000000000000008152600401610e5e906131a8565b60405180910390fd5b60008054906101000a900473ffffffffffffffffffffffffffffffffffffffff1673ffffffffffffffffffffffffffffffffffffffff168173ffffffffffffffffffffffffffffffffffffffff1603610ef5576040517f08c379a0000000000000000000000000000000000000000000000000000000008152600401610eec90613214565b60405180910390fd5b600160009054906101000a900473ffffffffffffffffffffffffffffffffffffffff1673ffffffffffffffffffffffffffffffffffffffff168173ffffffffffffffffffffffffffffffffffffffff1603610f85576040517f08c379a0000000000000000000000000000000000000000000000000000000008152600401610f7c906132a6565b60405180910390fd5b600260009054906101000a900473ffffffffffffffffffffffffffffffffffffffff1673ffffffffffffffffffffffffffffffffffffffff168173ffffffffffffffffffffffffffffffffffffffff1603611015576040517f08c379a000000000000000000000000000000000000000000000000000000000815260040161100c90613312565b60405180910390fd5b600260009054906101000a900473ffffffffffffffffffffffffffffffffffffffff1673ffffffffffffffffffffffffffffffffffffffff1663a5578807856040518263ffffffff1660e01b81526004016110709190612afb565b602060405180830381865afa15801561108d573d6000803e3d6000fd5b505050506040513d601f19601f820116820180604052508101906110b19190612b42565b6110f0576040517f08c379a00000000000000000000000000000000000000000000000000000000081526004016110e79061307a565b60405180910390fd5b3073ffffffffffffffffffffffffffffffffffffffff16634f0205bf85856040518363ffffffff1660e01b815260040161112b92919061309a565b602060405180830381865afa158015611148573d6000803e3d6000fd5b505050506040513d601f19601f8201168201806040525081019061116c9190612b42565b6111ab576040517f08c379a00000000000000000000000000000000000000000000000000000000081526004016111a29061310f565b60405180910390fd5b600160009054906101000a900473ffffffffffffffffffffffffffffffffffffffff1673ffffffffffffffffffffffffffffffffffffffff166377e94d9e8585856040518463ffffffff1660e01b815260040161120a939291906134b3565b600060405180830381600087803b15801561122457600080fd5b505af1158015611238573d6000803e3d6000fd5b505050508373ffffffffffffffffffffffffffffffffffffffff167f8d5408d361784b3c217d0103c62a49474b07e85b6dc6b2f1a3c085f44142c6f8836040516112829190613536565b60405180910390a250505050565b600360009054906101000a900473ffffffffffffffffffffffffffffffffffffffff1673ffffffffffffffffffffffffffffffffffffffff166372e4235b86866040518363ffffffff1660e01b81526004016112ed92919061309a565b602060405180830381865afa15801561130a573d6000803e3d6000fd5b505050506040513d601f19601f8201168201806040525081019061132e9190612b42565b61136d576040517f08c379a0000000000000000000000000000000000000000000000000000000008152600401611364906135b0565b60405180910390fd5b600360009054906101000a900473ffffffffffffffffffffffffffffffffffffffff1673ffffffffffffffffffffffffffffffffffffffff16631e073fcf86866040518363ffffffff1660e01b81526004016113ca92919061309a565b602060405180830381865afa1580156113e7573d6000803e3d6000fd5b505050506040513d601f19601f8201168201806040525081019061140b919061312f565b83111561144d576040517f08c379a000000000000000000000000000000000000000000000000000000000815260040161144490613642565b60405180910390fd5b600083600360009054906101000a900473ffffffffffffffffffffffffffffffffffffffff1673ffffffffffffffffffffffffffffffffffffffff16631e073fcf88886040518363ffffffff1660e01b81526004016114ad92919061309a565b602060405180830381865afa1580156114ca573d6000803e3d6000fd5b505050506040513d601f19601f820116820180604052508101906114ee919061312f565b6114f89190613691565b9050600360009054906101000a900473ffffffffffffffffffffffffffffffffffffffff1673ffffffffffffffffffffffffffffffffffffffff1663cb6f5eee8787846040518463ffffffff1660e01b8152600401611559939291906134b3565b600060405180830381600087803b15801561157357600080fd5b505af1158015611587573d6000803e3d6000fd5b50505050600060058561159a91906136c5565b90506115a9878785848861207b565b50505050505050565b606081600073ffffffffffffffffffffffffffffffffffffffff168173ffffffffffffffffffffffffffffffffffffffff1603611624576040517f08c379a000000000000000000000000000000000000000000000000000000000815260040161161b906131a8565b60405180910390fd5b60008054906101000a900473ffffffffffffffffffffffffffffffffffffffff1673ffffffffffffffffffffffffffffffffffffffff168173ffffffffffffffffffffffffffffffffffffffff16036116b2576040517f08c379a00000000000000000000000000000000000000000000000000000000081526004016116a990613214565b60405180910390fd5b600160009054906101000a900473ffffffffffffffffffffffffffffffffffffffff1673ffffffffffffffffffffffffffffffffffffffff168173ffffffffffffffffffffffffffffffffffffffff1603611742576040517f08c379a0000000000000000000000000000000000000000000000000000000008152600401611739906132a6565b60405180910390fd5b600260009054906101000a900473ffffffffffffffffffffffffffffffffffffffff1673ffffffffffffffffffffffffffffffffffffffff168173ffffffffffffffffffffffffffffffffffffffff16036117d2576040517f08c379a00000000000000000000000000000000000000000000000000000000081526004016117c990613312565b60405180910390fd5b600260009054906101000a900473ffffffffffffffffffffffffffffffffffffffff1673ffffffffffffffffffffffffffffffffffffffff1663a5578807846040518263ffffffff1660e01b815260040161182d9190612afb565b602060405180830381865afa15801561184a573d6000803e3d6000fd5b505050506040513d601f19601f8201168201806040525081019061186e9190612b42565b6118ad576040517f08c379a00000000000000000000000000000000000000000000000000000000081526004016118a49061307a565b60405180910390fd5b600160009054906101000a900473ffffffffffffffffffffffffffffffffffffffff1673ffffffffffffffffffffffffffffffffffffffff1663cd9de906846040518263ffffffff1660e01b81526004016119089190612afb565b600060405180830381865afa158015611925573d6000803e3d6000fd5b505050506040513d6000823e3d601f19601f8201168201806040525081019061194e9190612fe5565b915050919050565b6000600260009054906101000a900473ffffffffffffffffffffffffffffffffffffffff1673ffffffffffffffffffffffffffffffffffffffff1663a5578807846040518263ffffffff1660e01b81526004016119b39190612afb565b602060405180830381865afa1580156119d0573d6000803e3d6000fd5b505050506040513d601f19601f820116820180604052508101906119f49190612b42565b611a33576040517f08c379a0000000000000000000000000000000000000000000000000000000008152600401611a2a9061307a565b60405180910390fd5b3073ffffffffffffffffffffffffffffffffffffffff16634f0205bf84846040518363ffffffff1660e01b8152600401611a6e92919061309a565b602060405180830381865afa158015611a8b573d6000803e3d6000fd5b505050506040513d601f19601f82011682018060405250810190611aaf9190612b42565b611aee576040517f08c379a0000000000000000000000000000000000000000000000000000000008152600401611ae59061310f565b60405180910390fd5b600160009054906101000a900473ffffffffffffffffffffffffffffffffffffffff1673ffffffffffffffffffffffffffffffffffffffff16631e073fcf84846040518363ffffffff1660e01b8152600401611b4b92919061309a565b602060405180830381865afa158015611b68573d6000803e3d6000fd5b505050506040513d601f19601f82011682018060405250810190611b8c919061312f565b905092915050565b6060600260009054906101000a900473ffffffffffffffffffffffffffffffffffffffff1673ffffffffffffffffffffffffffffffffffffffff1663a5578807846040518263ffffffff1660e01b8152600401611bf19190612afb565b602060405180830381865afa158015611c0e573d6000803e3d6000fd5b505050506040513d601f19601f82011682018060405250810190611c329190612b42565b611c71576040517f08c379a0000000000000000000000000000000000000000000000000000000008152600401611c689061307a565b60405180910390fd5b3073ffffffffffffffffffffffffffffffffffffffff16634f0205bf84846040518363ffffffff1660e01b8152600401611cac92919061309a565b602060405180830381865afa158015611cc9573d6000803e3d6000fd5b505050506040513d601f19601f82011682018060405250810190611ced9190612b42565b611d2c576040517f08c379a0000000000000000000000000000000000000000000000000000000008152600401611d239061310f565b60405180910390fd5b600160009054906101000a900473ffffffffffffffffffffffffffffffffffffffff1673ffffffffffffffffffffffffffffffffffffffff1663f93bd02184846040518363ffffffff1660e01b8152600401611d8992919061309a565b600060405180830381865afa158015611da6573d6000803e3d6000fd5b505050506040513d6000823e3d601f19601f82011682018060405250810190611dcf9190613707565b905092915050565b600080339050600260009054906101000a900473ffffffffffffffffffffffffffffffffffffffff1673ffffffffffffffffffffffffffffffffffffffff1663a5578807826040518263ffffffff1660e01b8152600401611e389190612afb565b602060405180830381865afa158015611e55573d6000803e3d6000fd5b505050506040513d601f19601f82011682018060405250810190611e799190612b42565b611eb8576040517f08c379a0000000000000000000000000000000000000000000000000000000008152600401611eaf9061307a565b60405180910390fd5b3073ffffffffffffffffffffffffffffffffffffffff16634f0205bf82856040518363ffffffff1660e01b8152600401611ef392919061309a565b602060405180830381865afa158015611f10573d6000803e3d6000fd5b505050506040513d601f19601f82011682018060405250810190611f349190612b42565b611f73576040517f08c379a0000000000000000000000000000000000000000000000000000000008152600401611f6a9061379c565b60405180910390fd5b600160009054906101000a900473ffffffffffffffffffffffffffffffffffffffff1673ffffffffffffffffffffffffffffffffffffffff1663f437eff182856040518363ffffffff1660e01b8152600401611fd092919061309a565b6020604051808303816000875af1158015611fef573d6000803e3d6000fd5b505050506040513d601f19601f820116820180604052508101906120139190612b42565b15612070578073ffffffffffffffffffffffffffffffffffffffff167fc6c65fc1de8ea24c925debf6bd8533781f25ea92c3a42980607af396ebb8dfc88460405161205e9190613808565b60405180910390a26001915050612076565b60009150505b919050565b84600073ffffffffffffffffffffffffffffffffffffffff168173ffffffffffffffffffffffffffffffffffffffff16036120eb576040517f08c379a00000000000000000000000000000000000000000000000000000000081526004016120e2906131a8565b60405180910390fd5b60008054906101000a900473ffffffffffffffffffffffffffffffffffffffff1673ffffffffffffffffffffffffffffffffffffffff168173ffffffffffffffffffffffffffffffffffffffff1603612179576040517f08c379a000000000000000000000000000000000000000000000000000000000815260040161217090613214565b60405180910390fd5b600160009054906101000a900473ffffffffffffffffffffffffffffffffffffffff1673ffffffffffffffffffffffffffffffffffffffff168173ffffffffffffffffffffffffffffffffffffffff1603612209576040517f08c379a0000000000000000000000000000000000000000000000000000000008152600401612200906132a6565b60405180910390fd5b600260009054906101000a900473ffffffffffffffffffffffffffffffffffffffff1673ffffffffffffffffffffffffffffffffffffffff168173ffffffffffffffffffffffffffffffffffffffff1603612299576040517f08c379a000000000000000000000000000000000000000000000000000000000815260040161229090613312565b60405180910390fd5b600260009054906101000a900473ffffffffffffffffffffffffffffffffffffffff1673ffffffffffffffffffffffffffffffffffffffff1663a5578807876040518263ffffffff1660e01b81526004016122f49190612afb565b602060405180830381865afa158015612311573d6000803e3d6000fd5b505050506040513d601f19601f820116820180604052508101906123359190612b42565b612374576040517f08c379a000000000000000000000000000000000000000000000000000000000815260040161236b9061337e565b60405180910390fd5b600080600080600160009054906101000a900473ffffffffffffffffffffffffffffffffffffffff1673ffffffffffffffffffffffffffffffffffffffff1663459b1e918b8b8b8b8b6040518663ffffffff1660e01b81526004016123dd959493929190613836565b6000604051808303816000875af11580156123fc573d6000803e3d6000fd5b505050506040513d6000823e3d601f19601f820116820180604052508101906124259190613430565b93509350935093508973ffffffffffffffffffffffffffffffffffffffff167f736bb084e5388f05b961110ece2195bd0813ee49bdbd348f25aad1957d550ae5858584866040516124799493929190613902565b60405180910390a250505050505050505050565b6000604051905090565b600080fd5b600080fd5b600073ffffffffffffffffffffffffffffffffffffffff82169050919050565b60006124cc826124a1565b9050919050565b6124dc816124c1565b81146124e757600080fd5b50565b6000813590506124f9816124d3565b92915050565b60006020828403121561251557612514612497565b5b6000612523848285016124ea565b91505092915050565b600081519050919050565b600082825260208201905092915050565b6000819050602082019050919050565b6000819050919050565b61256b81612558565b82525050565b600081519050919050565b600082825260208201905092915050565b60005b838110156125ab578082015181840152602081019050612590565b60008484015250505050565b6000601f19601f8301169050919050565b60006125d382612571565b6125dd818561257c565b93506125ed81856020860161258d565b6125f6816125b7565b840191505092915050565b60006080830160008301516126196000860182612562565b506020830151848203602086015261263182826125c8565b91505060408301516126466040860182612562565b5060608301516126596060860182612562565b508091505092915050565b60006126708383612601565b905092915050565b6000602082019050919050565b60006126908261252c565b61269a8185612537565b9350836020820285016126ac85612548565b8060005b858110156126e857848403895281516126c98582612664565b94506126d483612678565b925060208a019950506001810190506126b0565b50829750879550505050505092915050565b600060208201905081810360008301526127148184612685565b905092915050565b61272581612558565b811461273057600080fd5b50565b6000813590506127428161271c565b92915050565b6000806040838503121561275f5761275e612497565b5b600061276d858286016124ea565b925050602061277e85828601612733565b9150509250929050565b61279181612558565b82525050565b60006020820190506127ac6000830184612788565b92915050565b6000602082840312156127c8576127c7612497565b5b60006127d684828501612733565b91505092915050565b600082825260208201905092915050565b60006127fb82612571565b61280581856127df565b935061281581856020860161258d565b61281e816125b7565b840191505092915050565b600060808201905061283e6000830187612788565b818103602083015261285081866127f0565b905061285f6040830185612788565b61286c6060830184612788565b95945050505050565b60008115159050919050565b61288a81612875565b82525050565b60006020820190506128a56000830184612881565b92915050565b6000806000606084860312156128c4576128c3612497565b5b60006128d2868287016124ea565b93505060206128e386828701612733565b92505060406128f486828701612733565b9150509250925092565b600080fd5b600080fd5b7f4e487b7100000000000000000000000000000000000000000000000000000000600052604160045260246000fd5b612940826125b7565b810181811067ffffffffffffffff8211171561295f5761295e612908565b5b80604052505050565b600061297261248d565b905061297e8282612937565b919050565b600067ffffffffffffffff82111561299e5761299d612908565b5b6129a7826125b7565b9050602081019050919050565b82818337600083830152505050565b60006129d66129d184612983565b612968565b9050828152602081018484840111156129f2576129f1612903565b5b6129fd8482856129b4565b509392505050565b600082601f830112612a1a57612a196128fe565b5b8135612a2a8482602086016129c3565b91505092915050565b600080600080600060a08688031215612a4f57612a4e612497565b5b6000612a5d888289016124ea565b9550506020612a6e88828901612733565b9450506040612a7f88828901612733565b9350506060612a9088828901612733565b925050608086013567ffffffffffffffff811115612ab157612ab061249c565b5b612abd88828901612a05565b9150509295509295909350565b60006020820190508181036000830152612ae481846127f0565b905092915050565b612af5816124c1565b82525050565b6000602082019050612b106000830184612aec565b92915050565b612b1f81612875565b8114612b2a57600080fd5b50565b600081519050612b3c81612b16565b92915050565b600060208284031215612b5857612b57612497565b5b6000612b6684828501612b2d565b91505092915050565b7f55736572204e6f7420417574686f72697a656421000000000000000000000000600082015250565b6000612ba56014836127df565b9150612bb082612b6f565b602082019050919050565b60006020820190508181036000830152612bd481612b98565b9050919050565b600067ffffffffffffffff821115612bf657612bf5612908565b5b602082029050602081019050919050565b600080fd5b600081519050612c1b816124d3565b92915050565b6000612c34612c2f84612bdb565b612968565b90508083825260208201905060208402830185811115612c5757612c56612c07565b5b835b81811015612c805780612c6c8882612c0c565b845260208401935050602081019050612c59565b5050509392505050565b600082601f830112612c9f57612c9e6128fe565b5b8151612caf848260208601612c21565b91505092915050565b600060208284031215612cce57612ccd612497565b5b600082015167ffffffffffffffff811115612cec57612ceb61249c565b5b612cf884828501612c8a565b91505092915050565b600081519050919050565b600082825260208201905092915050565b6000819050602082019050919050565b612d36816124c1565b82525050565b6000612d488383612d2d565b60208301905092915050565b6000602082019050919050565b6000612d6c82612d01565b612d768185612d0c565b9350612d8183612d1d565b8060005b83811015612db2578151612d998882612d3c565b9750612da483612d54565b925050600181019050612d85565b5085935050505092915050565b60006020820190508181036000830152612dd98184612d61565b905092915050565b600067ffffffffffffffff821115612dfc57612dfb612908565b5b602082029050602081019050919050565b600080fd5b600080fd5b600081519050612e268161271c565b92915050565b6000612e3f612e3a84612983565b612968565b905082815260208101848484011115612e5b57612e5a612903565b5b612e6684828561258d565b509392505050565b600082601f830112612e8357612e826128fe565b5b8151612e93848260208601612e2c565b91505092915050565b600060808284031215612eb257612eb1612e0d565b5b612ebc6080612968565b90506000612ecc84828501612e17565b600083015250602082015167ffffffffffffffff811115612ef057612eef612e12565b5b612efc84828501612e6e565b6020830152506040612f1084828501612e17565b6040830152506060612f2484828501612e17565b60608301525092915050565b6000612f43612f3e84612de1565b612968565b90508083825260208201905060208402830185811115612f6657612f65612c07565b5b835b81811015612fad57805167ffffffffffffffff811115612f8b57612f8a6128fe565b5b808601612f988982612e9c565b85526020850194505050602081019050612f68565b5050509392505050565b600082601f830112612fcc57612fcb6128fe565b5b8151612fdc848260208601612f30565b91505092915050565b600060208284031215612ffb57612ffa612497565b5b600082015167ffffffffffffffff8111156130195761301861249c565b5b61302584828501612fb7565b91505092915050565b7f55736572206973206e6f742070726573656e7421000000000000000000000000600082015250565b60006130646014836127df565b915061306f8261302e565b602082019050919050565b6000602082019050818103600083015261309381613057565b9050919050565b60006040820190506130af6000830185612aec565b6130bc6020830184612788565b9392505050565b7f4d696c6b4261746368206e6f742050726573656e742100000000000000000000600082015250565b60006130f96016836127df565b9150613104826130c3565b602082019050919050565b60006020820190508181036000830152613128816130ec565b9050919050565b60006020828403121561314557613144612497565b5b600061315384828501612e17565b91505092915050565b7f416464726573732056616c7565206973205a65726f2100000000000000000000600082015250565b60006131926016836127df565b915061319d8261315c565b602082019050919050565b600060208201905081810360008301526131c181613185565b9050919050565b7f41646472657373206e6f742076616c6964210000000000000000000000000000600082015250565b60006131fe6012836127df565b9150613209826131c8565b602082019050919050565b6000602082019050818103600083015261322d816131f1565b9050919050565b7f41646472657373206e6f742076616c6964206f6620496e76656e746f7279205360008201527f746f726167650000000000000000000000000000000000000000000000000000602082015250565b60006132906026836127df565b915061329b82613234565b604082019050919050565b600060208201905081810360008301526132bf81613283565b9050919050565b7f41646472657373206e6f742076616c6964206f66205365727669636500000000600082015250565b60006132fc601c836127df565b9150613307826132c6565b602082019050919050565b6000602082019050818103600083015261332b816132ef565b9050919050565b7f55736572206973206e6f742070726573656e7420696e20646174610000000000600082015250565b6000613368601b836127df565b915061337382613332565b602082019050919050565b600060208201905081810360008301526133978161335b565b9050919050565b7f436865657365426c6f636b206973206e6f742070726573656e7420696e20646160008201527f7461000000000000000000000000000000000000000000000000000000000000602082015250565b60006133fa6022836127df565b91506134058261339e565b604082019050919050565b60006020820190508181036000830152613429816133ed565b9050919050565b6000806000806080858703121561344a57613449612497565b5b600061345887828801612e17565b945050602085015167ffffffffffffffff8111156134795761347861249c565b5b61348587828801612e6e565b935050604061349687828801612e17565b92505060606134a787828801612e17565b91505092959194509250565b60006060820190506134c86000830186612aec565b6134d56020830185612788565b6134e26040830184612788565b949350505050565b7f436865657365426c6f636b206564697465642100000000000000000000000000600082015250565b60006135206013836127df565b915061352b826134ea565b602082019050919050565b6000604082019050818103600083015261354f81613513565b905061355e6020830184612788565b92915050565b7f50726f646f74746f206e6f6e2070726573656e74652100000000000000000000600082015250565b600061359a6016836127df565b91506135a582613564565b602082019050919050565b600060208201905081810360008301526135c98161358d565b9050919050565b7f5175616e74697461272064612074726173666f726d617265206e6f6e2076616c60008201527f6964612100000000000000000000000000000000000000000000000000000000602082015250565b600061362c6024836127df565b9150613637826135d0565b604082019050919050565b6000602082019050818103600083015261365b8161361f565b9050919050565b7f4e487b7100000000000000000000000000000000000000000000000000000000600052601160045260246000fd5b600061369c82612558565b91506136a783612558565b92508282039050818111156136bf576136be613662565b5b92915050565b60006136d082612558565b91506136db83612558565b92508282026136e981612558565b91508282048414831517613700576136ff613662565b5b5092915050565b60006020828403121561371d5761371c612497565b5b600082015167ffffffffffffffff81111561373b5761373a61249c565b5b61374784828501612e6e565b91505092915050565b7f43686565736520426c6f636b206e6f742050726573656e742100000000000000600082015250565b60006137866019836127df565b915061379182613750565b602082019050919050565b600060208201905081810360008301526137b581613779565b9050919050565b7f43686565736520426c6f636b20652720737461746f20656c656d696e61746f00600082015250565b60006137f2601f836127df565b91506137fd826137bc565b602082019050919050565b60006040820190508181036000830152613821816137e5565b90506138306020830184612788565b92915050565b600060a08201905061384b6000830188612aec565b6138586020830187612788565b818103604083015261386a81866127f0565b90506138796060830185612788565b6138866080830184612788565b9695505050505050565b7f4d696c6b426174636820636f6e7665727469746f20636f6e207375636365737360008201527f6f2021204563636f20696c206e756f766f20636865657365426c6f636b210000602082015250565b60006138ec603e836127df565b91506138f782613890565b604082019050919050565b600060a082019050818103600083015261391b816138df565b905061392a6020830187612788565b818103604083015261393c81866127f0565b905061394b6060830185612788565b6139586080830184612788565b9594505050505056fea2646970667358221220d2058c6f2cb0910c3a7057c4ff19867996dc2a4b39be4ff1fc98deb755feac4264736f6c63430008180033",
  "immutableReferences": {},
  "source": "// SPDX-License-Identifier: MIT\npragma solidity ^0.8.21;\n\nimport \"./CheeseProducerInventoryStorage.sol\";\nimport \"../CheeseProducerService.sol\";\nimport \"./CheeseProducerBuyerService.sol\";\n\nimport \"../../../Service/AccessControlProduct.sol\";\n\n\n// NOTA : implementare i controlli semplici e non di autorizzazione perch i retailer possono vedere le varie info in merito ai prodotti dei CheeseProducer \n// NOTA : Nel service che gestisce lo storage di acquisto, bisogna implementare una logica pi restrittiva che ci d la possibilit di far visualizzare i prodotti acquistati a coloro che li acquistati.\n// NOTA : Ricorda di implementare una logica di approvazione per il contratto che esegue l'aggiunta dell'oggetto acquistato ( TransactionManager deve essere approvato per poter eseguire una transazione del genere ) \n\ncontract CheeseProducerInventoryService {\n\n//--------------------------------------------------------------------- Address of Service Contract -----------------------------------------------//\n\n    // Address of Organization che gestisce gli utenti\n    address private cheeseProducerOrg;\n\n    // Address of Consumer Storage \n    CheeseProducerInventoryStorage private cheeseProducerInventoryStorage;\n\n    CheeseProducerService private cheeseProducerService;\n\n    CheeseProducerBuyerService private cheeseProducerBuyerService;\n\n    // Address Access Control \n    AccessControlProduct private accessControlProduct;\n\n//--------------------------------------------------------------------- Event of Service Contract -----------------------------------------------//\n\n    // Eventi per notificare l'aggiunta di una Partita di Latte\n    event CheeseBlockAdded(address indexed userAddress,string message,uint256 id, string dop, uint256 quantity, uint256 price);\n\n    // Eventi per notificare la rimozione di un CheeseBlock\n    event CheeseBlockDeleted(address indexed userAddress, string message, uint256 _id);\n    \n    // Eventi per notificare la modifica di un Cheese Block \n    event CheeseBlockEdited(address indexed userAddress,string message, uint256 quantity);\n\n\n//--------------------------------------------------------------------- Constructor of Service Contract -----------------------------------------------//\n\n\n    constructor(\n        address _cheeseProducerInventoryStorage,\n        address _cheeseProducerService,\n        address _cheeseProducerBuyerService,\n        address _accessControlProduct) {\n        \n        cheeseProducerInventoryStorage = CheeseProducerInventoryStorage(_cheeseProducerInventoryStorage);\n        \n        cheeseProducerService = CheeseProducerService(_cheeseProducerService);\n\n        cheeseProducerBuyerService = CheeseProducerBuyerService(_cheeseProducerBuyerService);\n        \n        accessControlProduct = AccessControlProduct(_accessControlProduct);\n\n        cheeseProducerOrg = msg.sender;\n    }\n\n//--------------------------------------------------------------------- Modifier of Service Contract -----------------------------------------------//\n\n    modifier checkAddress(address caller) {\n        require(caller != address(0),\"Address Value is Zero!\");\n        require(caller != cheeseProducerOrg, \"Address not valid!\");\n        require(caller != address(cheeseProducerInventoryStorage), \"Address not valid of Inventory Storage\");\n        require(caller != address(cheeseProducerService),\"Address not valid of Service\");\n        _;\n    }\n\n    // TODO : Aggiungere il controllo per l'organizzazione che pu effettuare il cambio dei vari Address di Service di cui abbiamo bisogno\n\n//--------------------------------------------------------------------- Business Function of Service Contract -----------------------------------------------//\n\n\n    /* Questa funzione permette di aggiungere : \n       Un prodotto CheeseBlock all'inventario da poter mettere in vendita\n       \n       - Check da effettuare : \n       - Verifica che l'address dell'utente sia registrato \n       - Verifica che l'address dell'utente non sia l'organizzazione che ha deployato il contratto \n       \n       - Evento : \n       - CheeseBlockAdded()\n     */\n    function addCheeseBlock(\n        address _walletCheeseProducer,\n        uint256 _id_MilkBatchAcquistato,\n        string memory _dop,\n        uint256 _quantity,\n        uint256 _price) internal  checkAddress(_walletCheeseProducer) {\n        \n        require(cheeseProducerService.isUserPresent(_walletCheeseProducer), \"User is not present in data\");\n        \n        (uint id_Cheese,string memory dop, uint256 pricePerKg, uint256 quantityToTal) = cheeseProducerInventoryStorage.addCheeseBlock(_walletCheeseProducer, _id_MilkBatchAcquistato, _dop, _quantity, _price);\n\n        emit CheeseBlockAdded(_walletCheeseProducer,\"MilkBatch convertito con successo ! Ecco il nuovo cheeseBlock!\",id_Cheese, dop, quantityToTal, pricePerKg);\n    }\n\n    /**\n     * Ottenere le informazioni del cheeseblock attraverso : \n     * - ID cheeseBlock\n     * */  \n    function getCheeseBlock(uint256 _id_CheeseBlock) external view checkAddress(msg.sender) returns (uint256, string memory, uint256, uint256) {\n        \n        address walletCheeseProducer = msg.sender;\n\n        require(cheeseProducerService.isUserPresent(walletCheeseProducer), \"User is not present in data\");\n\n        require(this.isCheeseBlockPresent(walletCheeseProducer, _id_CheeseBlock), \"CheeseBlock is not present in data\");\n\n        return cheeseProducerInventoryStorage.getCheeseBlock(walletCheeseProducer, _id_CheeseBlock);\n    }\n\n    /**\n     * Eliminare un Cheese Block attraverso l'id \n     * - ID \n     * - Verficare che l'utente che vuole eseguire la transazione sia presente.\n     */\n    function deleteCheeseBlock(uint256 _id) external returns(bool){\n        // Retrieve msg.sender \n        address walletCheeseProducer = msg.sender;\n        // Check if User is Present\n        require(cheeseProducerService.isUserPresent(walletCheeseProducer), \"User is not present!\");\n        // Check if Product is present \n        require(this.isCheeseBlockPresent(walletCheeseProducer, _id),\"Cheese Block not Present!\");\n\n        if(cheeseProducerInventoryStorage.deleteCheeseBlock(walletCheeseProducer,_id)){\n            emit CheeseBlockDeleted(walletCheeseProducer,\"Cheese Block e' stato eleminato\", _id);\n            return true;\n        }else {\n            return false;\n        }\n    }\n\n//--------------------------------------------------------------------- Get Function of Service Contract -----------------------------------------------//\n\n    function getDop(address walletCheeseProducer, uint256 _id) external view returns(string memory) {\n        require(cheeseProducerService.isUserPresent(walletCheeseProducer), \"User is not present!\");\n\n        require(this.isCheeseBlockPresent(walletCheeseProducer, _id),\"MilkBatch not Present!\");\n\n        return cheeseProducerInventoryStorage.getDop(walletCheeseProducer,_id);        \n    }\n\n    function getPrice(address walletCheeseProducer, uint256 _id) external view returns(uint256) {\n        require(cheeseProducerService.isUserPresent(walletCheeseProducer), \"User is not present!\");\n\n        require(this.isCheeseBlockPresent(walletCheeseProducer, _id),\"MilkBatch not Present!\");\n\n        return cheeseProducerInventoryStorage.getPrice(walletCheeseProducer,_id);        \n    }\n\n    function getCheeseBlockQuantity(address walletCheeseProducer, uint256 _id) external view returns(uint256) {\n        require(cheeseProducerService.isUserPresent(walletCheeseProducer), \"User is not present!\");\n\n        require(this.isCheeseBlockPresent(walletCheeseProducer, _id),\"MilkBatch not Present!\");\n\n        return cheeseProducerInventoryStorage.getQuantity(walletCheeseProducer,_id);        \n    }\n\n    // Verifica se un determinato CheeseBlock  presente \n    function isCheeseBlockPresent(address walletCheeseProducer, uint256 _id_cheeseBlock) external view  checkAddress(walletCheeseProducer) returns(bool){\n\n        return cheeseProducerInventoryStorage.isCheeseBlockPresent(walletCheeseProducer,_id_cheeseBlock);\n    }\n\n\n     function getCheeseBlockByCheeseProducer(address walletCheeseProducer) external checkAddress(walletCheeseProducer) view returns (CheeseProducerInventoryStorage.Cheese[] memory){\n        // Check if exist \n        require(cheeseProducerService.isUserPresent(walletCheeseProducer), \"User is not present!\");\n\n        return cheeseProducerInventoryStorage.getCheeseBlockByCheeseProducer(walletCheeseProducer);\n    }\n\n    /*\n        - Recupera tutti i CheeseBlock presenti all'interno di Inventory \n        - Verifica che quel CheeseProducer sia all'interno del sistema \n    */\n    function getAllCheeseBlockList(address walleRetailer) view  external  returns (CheeseProducerInventoryStorage.Cheese[] memory){\n        require(accessControlProduct.checkViewCheeseBlockProduct(walleRetailer),\"User Not Authorized!\");\n            address[] memory addressListCheeseBlock = cheeseProducerService.getListAddressCheeseProducer();\n\n            return cheeseProducerInventoryStorage.getAllCheeseBlockList(addressListCheeseBlock); \n    }\n\n//--------------------------------------------------------------------- Update Function of Service Contract -----------------------------------------------//\n\n    // Funzione per trasformare i vari milkBatch in CheeseBlock \n    function transformMilkBatch(address walletCheeseProducer, uint256 _id_MilkBatchAcquistato, uint256 quantityToTransform, uint256 pricePerKg, string memory dop) external  {\n        \n        //Verifico che il prodotto esiste, che la quantit richiesta da trasformare non ecceda il massimo consentito\n        require(cheeseProducerBuyerService.isMilkBatchAcquistataPresent(walletCheeseProducer,_id_MilkBatchAcquistato),\"Prodotto non presente!\");\n        // Verifico la quantit \n        // Verifico che quella che devo trasformare sia inferiore o uguale a quella che ho acquistato \n        require(quantityToTransform<=cheeseProducerBuyerService.getQuantity(walletCheeseProducer,_id_MilkBatchAcquistato),\"Quantita' da trasformare non valida!\");\n\n        uint256 _newQuantity = cheeseProducerBuyerService.getQuantity(walletCheeseProducer,_id_MilkBatchAcquistato) - quantityToTransform;\n\n        //TODO: gestire data di scadenza nel frontend ( Verificare la data di Scadenza con quella Odierna ) \n        cheeseProducerBuyerService.updateMilkBatchQuantity(walletCheeseProducer,_id_MilkBatchAcquistato, _newQuantity);\n\n        uint256 weight = quantityToTransform * 5;\n        //TODO: gestire il prezzo con SafeMath\n        addCheeseBlock(walletCheeseProducer,_id_MilkBatchAcquistato, dop, weight,pricePerKg);\n    }\n\n\n// --------------------------------------------------------------------- SET function --------------------------------------------------------------------------------------------//\n\n\n    /**\n    * Decremento della quantit del CheeseBlock \n    * Verifica che la quantit sia maggiore di 0 -> altrimenti rimani \n    */\n    function updateCheeseBlockQuantity(address ownerCheeseProducer, uint256 _id, uint256 _quantity) external checkAddress(ownerCheeseProducer) {\n\n        require(cheeseProducerService.isUserPresent(ownerCheeseProducer), \"User is not present!\");\n\n        require(this.isCheeseBlockPresent(ownerCheeseProducer, _id),\"MilkBatch not Present!\");\n\n        cheeseProducerInventoryStorage.updateCheeseBlockQuantity(ownerCheeseProducer, _id, _quantity);\n\n        emit CheeseBlockEdited(ownerCheeseProducer,\"CheeseBlock edited!\", _quantity);\n    }\n\n}\n",
  "sourcePath": "/home/leone-pc/Documenti/GitHub/FilieraToken/Filiera-Token-Smart-Contract/contracts/Actor/CheeseProducer-smart-contract/inventory/CheeseProducerInventoryService.sol",
  "compiler": {
    "name": "solc",
    "version": "0.8.24+commit.e11b9ed9.Emscripten.clang"
  },
  "schemaVersion": "3.4.16",
  "updatedAt": "2024-02-27T23:21:51.420Z",
  "devdoc": {
    "kind": "dev",
    "methods": {},
    "version": 1
  },
  "userdoc": {
    "kind": "user",
    "methods": {
      "deleteCheeseBlock(uint256)": {
        "notice": "Eliminare un Cheese Block attraverso l'id  - ID  - Verficare che l'utente che vuole eseguire la transazione sia presente."
      },
      "getCheeseBlock(uint256)": {
        "notice": "Ottenere le informazioni del cheeseblock attraverso :  - ID cheeseBlock "
      },
      "updateCheeseBlockQuantity(address,uint256,uint256)": {
        "notice": "Decremento della quantit del CheeseBlock  Verifica che la quantit sia maggiore di 0 -> altrimenti rimani "
      }
    },
    "version": 1
  }
}