{
  "contractName": "ConsumerStorage",
  "abi": [
    {
      "inputs": [],
      "stateMutability": "nonpayable",
      "type": "constructor"
    },
    {
      "inputs": [
        {
          "internalType": "string",
          "name": "_fullName",
          "type": "string"
        },
        {
          "internalType": "string",
          "name": "_password",
          "type": "string"
        },
        {
          "internalType": "string",
          "name": "_email",
          "type": "string"
        },
        {
          "internalType": "address",
          "name": "walletConsumer",
          "type": "address"
        }
      ],
      "name": "addUser",
      "outputs": [],
      "stateMutability": "nonpayable",
      "type": "function"
    },
    {
      "inputs": [
        {
          "internalType": "address",
          "name": "walletConsumer",
          "type": "address"
        },
        {
          "internalType": "string",
          "name": "_email",
          "type": "string"
        },
        {
          "internalType": "string",
          "name": "_password",
          "type": "string"
        }
      ],
      "name": "loginUser",
      "outputs": [
        {
          "internalType": "bool",
          "name": "",
          "type": "bool"
        }
      ],
      "stateMutability": "view",
      "type": "function"
    },
    {
      "inputs": [
        {
          "internalType": "address",
          "name": "walletConsumer",
          "type": "address"
        }
      ],
      "name": "deleteUser",
      "outputs": [
        {
          "internalType": "bool",
          "name": "",
          "type": "bool"
        }
      ],
      "stateMutability": "nonpayable",
      "type": "function"
    },
    {
      "inputs": [
        {
          "internalType": "address",
          "name": "walletConsumer",
          "type": "address"
        }
      ],
      "name": "isUserPresent",
      "outputs": [
        {
          "internalType": "bool",
          "name": "",
          "type": "bool"
        }
      ],
      "stateMutability": "view",
      "type": "function"
    },
    {
      "inputs": [
        {
          "internalType": "address",
          "name": "walletConsumer",
          "type": "address"
        }
      ],
      "name": "getId",
      "outputs": [
        {
          "internalType": "uint256",
          "name": "",
          "type": "uint256"
        }
      ],
      "stateMutability": "view",
      "type": "function"
    },
    {
      "inputs": [
        {
          "internalType": "address",
          "name": "walletConsumer",
          "type": "address"
        },
        {
          "internalType": "uint256",
          "name": "_id",
          "type": "uint256"
        }
      ],
      "name": "getFullName",
      "outputs": [
        {
          "internalType": "string",
          "name": "",
          "type": "string"
        }
      ],
      "stateMutability": "view",
      "type": "function"
    },
    {
      "inputs": [
        {
          "internalType": "address",
          "name": "walletConsumer",
          "type": "address"
        },
        {
          "internalType": "uint256",
          "name": "_id",
          "type": "uint256"
        }
      ],
      "name": "getEmail",
      "outputs": [
        {
          "internalType": "string",
          "name": "",
          "type": "string"
        }
      ],
      "stateMutability": "view",
      "type": "function"
    },
    {
      "inputs": [
        {
          "internalType": "address",
          "name": "walletConsumer",
          "type": "address"
        },
        {
          "internalType": "uint256",
          "name": "_id",
          "type": "uint256"
        }
      ],
      "name": "getBalance",
      "outputs": [
        {
          "internalType": "uint256",
          "name": "",
          "type": "uint256"
        }
      ],
      "stateMutability": "view",
      "type": "function"
    },
    {
      "inputs": [
        {
          "internalType": "address",
          "name": "walletConsumer",
          "type": "address"
        }
      ],
      "name": "getUser",
      "outputs": [
        {
          "internalType": "uint256",
          "name": "",
          "type": "uint256"
        },
        {
          "internalType": "string",
          "name": "",
          "type": "string"
        },
        {
          "internalType": "string",
          "name": "",
          "type": "string"
        },
        {
          "internalType": "string",
          "name": "",
          "type": "string"
        },
        {
          "internalType": "uint256",
          "name": "",
          "type": "uint256"
        }
      ],
      "stateMutability": "view",
      "type": "function"
    },
    {
      "inputs": [],
      "name": "getListAddress",
      "outputs": [
        {
          "internalType": "address[]",
          "name": "",
          "type": "address[]"
        }
      ],
      "stateMutability": "view",
      "type": "function"
    },
    {
      "inputs": [
        {
          "internalType": "address",
          "name": "walletConsumer",
          "type": "address"
        },
        {
          "internalType": "uint256",
          "name": "balance",
          "type": "uint256"
        }
      ],
      "name": "updateBalance",
      "outputs": [],
      "stateMutability": "nonpayable",
      "type": "function"
    }
  ],
  "bytecode": "0x608060405234801561001057600080fd5b50336000806101000a81548173ffffffffffffffffffffffffffffffffffffffff021916908373ffffffffffffffffffffffffffffffffffffffff160217905550612306806100606000396000f3fe608060405234801561001057600080fd5b50600436106100a95760003560e01c80636e44cd42116100715780636e44cd421461018c5780636f77926b146101bc578063a5578807146101f0578063b48ff0f114610220578063e0b1cccb1461023c578063ecca407314610258576100a9565b806306f22b04146100ae5780632b04e840146100de5780633b5aff121461010e5780635c60f2261461012c57806365f68c891461015c575b600080fd5b6100c860048036038101906100c3919061176d565b610288565b6040516100d59190611813565b60405180910390f35b6100f860048036038101906100f39190611864565b61032f565b60405161010591906118b3565b60405180910390f35b6101166105db565b604051610123919061198c565b60405180910390f35b610146600480360381019061014191906119ae565b610669565b6040516101539190611813565b60405180910390f35b610176600480360381019061017191906119ae565b61075c565b60405161018391906118b3565b60405180910390f35b6101a660048036038101906101a19190611864565b610982565b6040516101b39190611a5a565b60405180910390f35b6101d660048036038101906101d191906119ae565b610c2e565b6040516101e7959493929190611a7c565b60405180910390f35b61020a600480360381019061020591906119ae565b610e7b565b6040516102179190611813565b60405180910390f35b61023a60048036038101906102359190611ae4565b610eca565b005b61025660048036038101906102519190611864565b611185565b005b610272600480360381019061026d9190611864565b6111d0565b60405161027f9190611a5a565b60405180910390f35b600080600160008673ffffffffffffffffffffffffffffffffffffffff1673ffffffffffffffffffffffffffffffffffffffff168152602001908152602001600020905083836040516020016102df929190611bdb565b60405160208183030381529060405280519060200120816003018260020160405160200161030e929190611cf7565b60405160208183030381529060405280519060200120149150509392505050565b600081600160008573ffffffffffffffffffffffffffffffffffffffff1673ffffffffffffffffffffffffffffffffffffffff16815260200190815260200160002060000154146103b5576040517f08c379a00000000000000000000000000000000000000000000000000000000081526004016103ac90611d67565b60405180910390fd5b6000600160008573ffffffffffffffffffffffffffffffffffffffff1673ffffffffffffffffffffffffffffffffffffffff1681526020019081526020016000206040518060a00160405290816000820154815260200160018201805461041b90611c2e565b80601f016020809104026020016040519081016040528092919081815260200182805461044790611c2e565b80156104945780601f1061046957610100808354040283529160200191610494565b820191906000526020600020905b81548152906001019060200180831161047757829003601f168201915b505050505081526020016002820180546104ad90611c2e565b80601f01602080910402602001604051908101604052809291908181526020018280546104d990611c2e565b80156105265780601f106104fb57610100808354040283529160200191610526565b820191906000526020600020905b81548152906001019060200180831161050957829003601f168201915b5050505050815260200160038201805461053f90611c2e565b80601f016020809104026020016040519081016040528092919081815260200182805461056b90611c2e565b80156105b85780601f1061058d576101008083540402835291602001916105b8565b820191906000526020600020905b81548152906001019060200180831161059b57829003601f168201915b505050505081526020016004820154815250509050806080015191505092915050565b6060600280548060200260200160405190810160405280929190818152602001828054801561065f57602002820191906000526020600020905b8160009054906101000a900473ffffffffffffffffffffffffffffffffffffffff1673ffffffffffffffffffffffffffffffffffffffff1681526020019060010190808311610615575b5050505050905090565b6000600160008373ffffffffffffffffffffffffffffffffffffffff1673ffffffffffffffffffffffffffffffffffffffff1681526020019081526020016000206000808201600090556001820160006106c39190611558565b6002820160006106d39190611558565b6003820160006106e39190611558565b600482016000905550506000600160008473ffffffffffffffffffffffffffffffffffffffff1673ffffffffffffffffffffffffffffffffffffffff1681526020019081526020016000206000015414801561074457506107438261147c565b5b156107525760019050610757565b600090505b919050565b600080600160008473ffffffffffffffffffffffffffffffffffffffff1673ffffffffffffffffffffffffffffffffffffffff1681526020019081526020016000206040518060a0016040529081600082015481526020016001820180546107c390611c2e565b80601f01602080910402602001604051908101604052809291908181526020018280546107ef90611c2e565b801561083c5780601f106108115761010080835404028352916020019161083c565b820191906000526020600020905b81548152906001019060200180831161081f57829003601f168201915b5050505050815260200160028201805461085590611c2e565b80601f016020809104026020016040519081016040528092919081815260200182805461088190611c2e565b80156108ce5780601f106108a3576101008083540402835291602001916108ce565b820191906000526020600020905b8154815290600101906020018083116108b157829003601f168201915b505050505081526020016003820180546108e790611c2e565b80601f016020809104026020016040519081016040528092919081815260200182805461091390611c2e565b80156109605780601f1061093557610100808354040283529160200191610960565b820191906000526020600020905b81548152906001019060200180831161094357829003601f168201915b5050505050815260200160048201548152505090508060000151915050919050565b606081600160008573ffffffffffffffffffffffffffffffffffffffff1673ffffffffffffffffffffffffffffffffffffffff1681526020019081526020016000206000015414610a08576040517f08c379a00000000000000000000000000000000000000000000000000000000081526004016109ff90611d67565b60405180910390fd5b6000600160008573ffffffffffffffffffffffffffffffffffffffff1673ffffffffffffffffffffffffffffffffffffffff1681526020019081526020016000206040518060a001604052908160008201548152602001600182018054610a6e90611c2e565b80601f0160208091040260200160405190810160405280929190818152602001828054610a9a90611c2e565b8015610ae75780601f10610abc57610100808354040283529160200191610ae7565b820191906000526020600020905b815481529060010190602001808311610aca57829003601f168201915b50505050508152602001600282018054610b0090611c2e565b80601f0160208091040260200160405190810160405280929190818152602001828054610b2c90611c2e565b8015610b795780601f10610b4e57610100808354040283529160200191610b79565b820191906000526020600020905b815481529060010190602001808311610b5c57829003601f168201915b50505050508152602001600382018054610b9290611c2e565b80601f0160208091040260200160405190810160405280929190818152602001828054610bbe90611c2e565b8015610c0b5780601f10610be057610100808354040283529160200191610c0b565b820191906000526020600020905b815481529060010190602001808311610bee57829003601f168201915b505050505081526020016004820154815250509050806020015191505092915050565b60006060806060600080600160008873ffffffffffffffffffffffffffffffffffffffff1673ffffffffffffffffffffffffffffffffffffffff1681526020019081526020016000206040518060a001604052908160008201548152602001600182018054610c9c90611c2e565b80601f0160208091040260200160405190810160405280929190818152602001828054610cc890611c2e565b8015610d155780601f10610cea57610100808354040283529160200191610d15565b820191906000526020600020905b815481529060010190602001808311610cf857829003601f168201915b50505050508152602001600282018054610d2e90611c2e565b80601f0160208091040260200160405190810160405280929190818152602001828054610d5a90611c2e565b8015610da75780601f10610d7c57610100808354040283529160200191610da7565b820191906000526020600020905b815481529060010190602001808311610d8a57829003601f168201915b50505050508152602001600382018054610dc090611c2e565b80601f0160208091040260200160405190810160405280929190818152602001828054610dec90611c2e565b8015610e395780601f10610e0e57610100808354040283529160200191610e39565b820191906000526020600020905b815481529060010190602001808311610e1c57829003601f168201915b50505050508152602001600482015481525050905080600001518160200151826040015183606001518460800151955095509550955095505091939590929450565b600080600160008473ffffffffffffffffffffffffffffffffffffffff1673ffffffffffffffffffffffffffffffffffffffff1681526020019081526020016000206000015414159050919050565b600084848484604051602001610ee39493929190611dcf565b60405160208183030381529060405280519060200120905060008160001c90506000600160008573ffffffffffffffffffffffffffffffffffffffff1673ffffffffffffffffffffffffffffffffffffffff1681526020019081526020016000206000015414610f88576040517f08c379a0000000000000000000000000000000000000000000000000000000008152600401610f7f90611e5d565b60405180910390fd5b6000865111610fcc576040517f08c379a0000000000000000000000000000000000000000000000000000000008152600401610fc390611ec9565b60405180910390fd5b6000855111611010576040517f08c379a000000000000000000000000000000000000000000000000000000000815260040161100790611f35565b60405180910390fd5b6000845111611054576040517f08c379a000000000000000000000000000000000000000000000000000000000815260040161104b90611fa1565b60405180910390fd5b60006040518060a00160405280838152602001888152602001878152602001868152602001606481525090506002849080600181540180825580915050600190039060005260206000200160009091909190916101000a81548173ffffffffffffffffffffffffffffffffffffffff021916908373ffffffffffffffffffffffffffffffffffffffff16021790555080600160008673ffffffffffffffffffffffffffffffffffffffff1673ffffffffffffffffffffffffffffffffffffffff1681526020019081526020016000206000820151816000015560208201518160010190816111429190612158565b5060408201518160020190816111589190612158565b50606082015181600301908161116e9190612158565b506080820151816004015590505050505050505050565b80600160008473ffffffffffffffffffffffffffffffffffffffff1673ffffffffffffffffffffffffffffffffffffffff168152602001908152602001600020600401819055505050565b606081600160008573ffffffffffffffffffffffffffffffffffffffff1673ffffffffffffffffffffffffffffffffffffffff1681526020019081526020016000206000015414611256576040517f08c379a000000000000000000000000000000000000000000000000000000000815260040161124d90611d67565b60405180910390fd5b6000600160008573ffffffffffffffffffffffffffffffffffffffff1673ffffffffffffffffffffffffffffffffffffffff1681526020019081526020016000206040518060a0016040529081600082015481526020016001820180546112bc90611c2e565b80601f01602080910402602001604051908101604052809291908181526020018280546112e890611c2e565b80156113355780601f1061130a57610100808354040283529160200191611335565b820191906000526020600020905b81548152906001019060200180831161131857829003601f168201915b5050505050815260200160028201805461134e90611c2e565b80601f016020809104026020016040519081016040528092919081815260200182805461137a90611c2e565b80156113c75780601f1061139c576101008083540402835291602001916113c7565b820191906000526020600020905b8154815290600101906020018083116113aa57829003601f168201915b505050505081526020016003820180546113e090611c2e565b80601f016020809104026020016040519081016040528092919081815260200182805461140c90611c2e565b80156114595780601f1061142e57610100808354040283529160200191611459565b820191906000526020600020905b81548152906001019060200180831161143c57829003601f168201915b505050505081526020016004820154815250509050806060015191505092915050565b600080600090505b8273ffffffffffffffffffffffffffffffffffffffff16600282815481106114af576114ae61222a565b5b9060005260206000200160009054906101000a900473ffffffffffffffffffffffffffffffffffffffff1673ffffffffffffffffffffffffffffffffffffffff160361154057600281815481106115095761150861222a565b5b9060005260206000200160006101000a81549073ffffffffffffffffffffffffffffffffffffffff02191690556001915050611553565b808061154b90612288565b915050611484565b919050565b50805461156490611c2e565b6000825580601f106115765750611595565b601f0160209004906000526020600020908101906115949190611598565b5b50565b5b808211156115b1576000816000905550600101611599565b5090565b6000604051905090565b600080fd5b600080fd5b600073ffffffffffffffffffffffffffffffffffffffff82169050919050565b60006115f4826115c9565b9050919050565b611604816115e9565b811461160f57600080fd5b50565b600081359050611621816115fb565b92915050565b600080fd5b600080fd5b6000601f19601f8301169050919050565b7f4e487b7100000000000000000000000000000000000000000000000000000000600052604160045260246000fd5b61167a82611631565b810181811067ffffffffffffffff8211171561169957611698611642565b5b80604052505050565b60006116ac6115b5565b90506116b88282611671565b919050565b600067ffffffffffffffff8211156116d8576116d7611642565b5b6116e182611631565b9050602081019050919050565b82818337600083830152505050565b600061171061170b846116bd565b6116a2565b90508281526020810184848401111561172c5761172b61162c565b5b6117378482856116ee565b509392505050565b600082601f83011261175457611753611627565b5b81356117648482602086016116fd565b91505092915050565b600080600060608486031215611786576117856115bf565b5b600061179486828701611612565b935050602084013567ffffffffffffffff8111156117b5576117b46115c4565b5b6117c18682870161173f565b925050604084013567ffffffffffffffff8111156117e2576117e16115c4565b5b6117ee8682870161173f565b9150509250925092565b60008115159050919050565b61180d816117f8565b82525050565b60006020820190506118286000830184611804565b92915050565b6000819050919050565b6118418161182e565b811461184c57600080fd5b50565b60008135905061185e81611838565b92915050565b6000806040838503121561187b5761187a6115bf565b5b600061188985828601611612565b925050602061189a8582860161184f565b9150509250929050565b6118ad8161182e565b82525050565b60006020820190506118c860008301846118a4565b92915050565b600081519050919050565b600082825260208201905092915050565b6000819050602082019050919050565b611903816115e9565b82525050565b600061191583836118fa565b60208301905092915050565b6000602082019050919050565b6000611939826118ce565b61194381856118d9565b935061194e836118ea565b8060005b8381101561197f5781516119668882611909565b975061197183611921565b925050600181019050611952565b5085935050505092915050565b600060208201905081810360008301526119a6818461192e565b905092915050565b6000602082840312156119c4576119c36115bf565b5b60006119d284828501611612565b91505092915050565b600081519050919050565b600082825260208201905092915050565b60005b83811015611a155780820151818401526020810190506119fa565b60008484015250505050565b6000611a2c826119db565b611a3681856119e6565b9350611a468185602086016119f7565b611a4f81611631565b840191505092915050565b60006020820190508181036000830152611a748184611a21565b905092915050565b600060a082019050611a9160008301886118a4565b8181036020830152611aa38187611a21565b90508181036040830152611ab78186611a21565b90508181036060830152611acb8185611a21565b9050611ada60808301846118a4565b9695505050505050565b60008060008060808587031215611afe57611afd6115bf565b5b600085013567ffffffffffffffff811115611b1c57611b1b6115c4565b5b611b288782880161173f565b945050602085013567ffffffffffffffff811115611b4957611b486115c4565b5b611b558782880161173f565b935050604085013567ffffffffffffffff811115611b7657611b756115c4565b5b611b828782880161173f565b9250506060611b9387828801611612565b91505092959194509250565b600081905092915050565b6000611bb5826119db565b611bbf8185611b9f565b9350611bcf8185602086016119f7565b80840191505092915050565b6000611be78285611baa565b9150611bf38284611baa565b91508190509392505050565b7f4e487b7100000000000000000000000000000000000000000000000000000000600052602260045260246000fd5b60006002820490506001821680611c4657607f821691505b602082108103611c5957611c58611bff565b5b50919050565b60008190508160005260206000209050919050565b60008154611c8181611c2e565b611c8b8186611b9f565b94506001821660008114611ca65760018114611cbb57611cee565b60ff1983168652811515820286019350611cee565b611cc485611c5f565b60005b83811015611ce657815481890152600182019150602081019050611cc7565b838801955050505b50505092915050565b6000611d038285611c74565b9150611d0f8284611c74565b91508190509392505050565b7f4944206e6f742056616c69642100000000000000000000000000000000000000600082015250565b6000611d51600d836119e6565b9150611d5c82611d1b565b602082019050919050565b60006020820190508181036000830152611d8081611d44565b9050919050565b60008160601b9050919050565b6000611d9f82611d87565b9050919050565b6000611db182611d94565b9050919050565b611dc9611dc4826115e9565b611da6565b82525050565b6000611ddb8287611baa565b9150611de78286611baa565b9150611df38285611baa565b9150611dff8284611db8565b60148201915081905095945050505050565b7f436f6e73756d657220616c726561647920726567697374657265640000000000600082015250565b6000611e47601b836119e6565b9150611e5282611e11565b602082019050919050565b60006020820190508181036000830152611e7681611e3a565b9050919050565b7f46756c6c206e616d652063616e6e6f7420626520656d70747900000000000000600082015250565b6000611eb36019836119e6565b9150611ebe82611e7d565b602082019050919050565b60006020820190508181036000830152611ee281611ea6565b9050919050565b7f50617373776f72642063616e6e6f7420626520656d7074790000000000000000600082015250565b6000611f1f6018836119e6565b9150611f2a82611ee9565b602082019050919050565b60006020820190508181036000830152611f4e81611f12565b9050919050565b7f456d61696c2063616e6e6f7420626520656d7074790000000000000000000000600082015250565b6000611f8b6015836119e6565b9150611f9682611f55565b602082019050919050565b60006020820190508181036000830152611fba81611f7e565b9050919050565b60006020601f8301049050919050565b600082821b905092915050565b60006008830261200e7fffffffffffffffffffffffffffffffffffffffffffffffffffffffffffffffff82611fd1565b6120188683611fd1565b95508019841693508086168417925050509392505050565b6000819050919050565b600061205561205061204b8461182e565b612030565b61182e565b9050919050565b6000819050919050565b61206f8361203a565b61208361207b8261205c565b848454611fde565b825550505050565b600090565b61209861208b565b6120a3818484612066565b505050565b5b818110156120c7576120bc600082612090565b6001810190506120a9565b5050565b601f82111561210c576120dd81611c5f565b6120e684611fc1565b810160208510156120f5578190505b61210961210185611fc1565b8301826120a8565b50505b505050565b600082821c905092915050565b600061212f60001984600802612111565b1980831691505092915050565b6000612148838361211e565b9150826002028217905092915050565b612161826119db565b67ffffffffffffffff81111561217a57612179611642565b5b6121848254611c2e565b61218f8282856120cb565b600060209050601f8311600181146121c257600084156121b0578287015190505b6121ba858261213c565b865550612222565b601f1984166121d086611c5f565b60005b828110156121f8578489015182556001820191506020850194506020810190506121d3565b868310156122155784890151612211601f89168261211e565b8355505b6001600288020188555050505b505050505050565b7f4e487b7100000000000000000000000000000000000000000000000000000000600052603260045260246000fd5b7f4e487b7100000000000000000000000000000000000000000000000000000000600052601160045260246000fd5b60006122938261182e565b91507fffffffffffffffffffffffffffffffffffffffffffffffffffffffffffffffff82036122c5576122c4612259565b5b60018201905091905056fea26469706673582212206344e73819479a4bc98ee57a89f9541a1da823e6ad94a579f98c2988a8d8268464736f6c63430008180033",
  "immutableReferences": {},
  "source": "//SPDX-License-Identifier: MIT\npragma solidity ^0.8.21;\n\n\nimport \"../IUserStorageInterface.sol\";\n\ncontract ConsumerStorage is IUserStorageInterface {\n\n    // Address of Organization che gestisce gli utenti\n    address private  ConsumerOrg;\n\n\n    constructor(){\n        ConsumerOrg = msg.sender;\n    }\n\n\n    // Struttura per rappresentare gli attributi di un consumatore\n    struct Consumer {\n        uint256 id;\n        string fullName;\n        string password; // Si presume che sia gi crittografata dal Front-End\n        string email;\n        uint256 balance;\n    }\n\n    // Mapping che collega l'indirizzo del portafoglio (wallet address) ai dati del consumatore\n    mapping(address => Consumer) private  consumers;\n\n    address[ ] private addressList;\n\n    /**\n     * addUser() effettuiamo la registrazione dell'utente Consumer \n     */\n    function addUser(\n        string memory _fullName,\n         string memory _password,\n         string memory _email,\n          address walletConsumer) external {\n                \n        // Genera l'ID manualmente utilizzando keccak256\n        bytes32 idHash = keccak256(abi.encodePacked(\n            _fullName,\n            _password,\n            _email,\n            walletConsumer\n               ));\n        uint256 lastIdMilkHub = uint256(idHash);\n\n        require(consumers[walletConsumer].id == 0, \"Consumer already registered\");\n        require(bytes(_fullName).length > 0, \"Full name cannot be empty\");\n        require(bytes(_password).length > 0, \"Password cannot be empty\");\n        require(bytes(_email).length > 0, \"Email cannot be empty\");\n        \n        // Crea un nuovo consumatore con l'ID univoco\n        Consumer memory newMilkHub = Consumer({\n            id: lastIdMilkHub,\n            fullName: _fullName,\n            password: _password,\n            email: _email,\n            balance: 100\n        });\n        // Inserisco l'address \n        addressList.push(walletConsumer);\n\n        // Inserisce il nuovo consumer all'interno della Lista dei Consumer \n        consumers[walletConsumer] = newMilkHub;\n    }\n\n    /**\n     * LoginUser() effettua il login dell'utente \n     * La comparazione Hash tra (email e password) di input e quelli salvati\n     * return true se la comparazione  vera, La comparazione  falsa se l'hashing non risulta valido\n     */\n    function loginUser(address walletConsumer, string memory _email, string memory _password) external view returns(bool){\n\n        // Recupero il Consumer \n        Consumer storage milkhub = consumers[walletConsumer];\n        \n        // Verifico che l'email e la password hashate sono uguali tra di loro \n        return keccak256(abi.encodePacked(milkhub.email, milkhub.password)) == keccak256(abi.encodePacked(_email, _password));\n    }\n\n    // Funzione per eliminare il Consumer dato il suo indirizzo del wallet \n    function deleteUser(address walletConsumer) external returns(bool){\n\n        delete consumers[walletConsumer];\n\n        if(consumers[walletConsumer].id == 0 && deleteConsumerFromList(walletConsumer)){\n            return true;\n        }else {\n            return false;\n        }\n    }\n\n    // Check if exist the User \n    function isUserPresent(address walletConsumer) external view returns(bool){\n\n        return consumers[walletConsumer].id!=0;\n    }\n\n//---------------------------------------------------- Consumer Get and Set Function --------------------------------------------------//\n\n    /**\n        - Funzione getId() attraverso l'address del Consumer riusciamo a recuperare il suo ID\n    */\n    function getId(address walletConsumer) external view  returns(uint256){\n        Consumer memory milkhub = consumers[walletConsumer];\n        return milkhub.id;\n    }\n\n    /**\n        - Funzione getFullName() attraverso l'address del Consumer riusciamo a recuperare il suo FullName\n    */\n    function getFullName(address walletConsumer, uint256 _id) external view  returns(string memory){\n        require(consumers[walletConsumer].id ==_id,\"ID not Valid!\");\n        \n        Consumer memory milkhub = consumers[walletConsumer];\n        return milkhub.fullName;\n    }\n\n    /**\n        - Funzione getEmail() attraverso l'address del Consumer riusciamo a recuperare la sua Email \n    */\n    function getEmail(address walletConsumer, uint256 _id) external view  returns(string memory){\n        require(consumers[walletConsumer].id==_id,\"ID not Valid!\");\n        Consumer memory milkhub = consumers[walletConsumer];\n        return milkhub.email;\n    }\n\n    /**\n        - Funzione getBalance() attraverso l'address del Consumer riusciamo a recuperare il suo Balance\n    */\n    function getBalance(address walletConsumer, uint256 _id) external view  returns(uint256){\n        require(consumers[walletConsumer].id == _id,\"ID not Valid!\");\n        Consumer memory milkhub = consumers[walletConsumer];\n        return milkhub.balance;\n    }\n\n    /**\n     * getUser(walletConsumer) : \n     * Consumer visualizza le sue informazioni principali\n     * - email, password , fullName , balance \n     */\n    function getUser(address walletConsumer) external view returns (uint256, string memory, string memory, string memory, uint256) {\n\n        Consumer memory milkhub = consumers[walletConsumer];\n\n        // Restituisce i dati del consumatore\n        return (milkhub.id, milkhub.fullName, milkhub.password, milkhub.email, milkhub.balance);\n    }\n\n    /**\n    *Ritorna la Lista degli address\n    */\n    function getListAddress() external view returns (address [] memory){  \n        return addressList;\n    }\n\n\n    // - Funzione updateBalance() attraverso l'address e l'id, riusciamo a settare il nuovo balance\n    function updateBalance(address walletConsumer, uint256 balance) external{\n        // Update Balance \n        consumers[walletConsumer].balance = balance;\n    }\n\n    function deleteConsumerFromList(address walletConsumer)internal returns (bool) {\n        for(uint256 i=0; ; i++){\n            if(addressList[i] == walletConsumer){\n                delete  addressList[i];\n                return true;\n            }\n        }\n        return false;\n    }\n\n}   \n\n",
  "sourcePath": "/home/leone-pc/Documenti/GitHub/FilieraToken/Filiera-Token-Smart-Contract/contracts/Actor/Consumer-smart-contract/ConsumerStorage.sol",
  "compiler": {
    "name": "solc",
    "version": "0.8.24+commit.e11b9ed9.Emscripten.clang"
  },
  "schemaVersion": "3.4.16",
  "updatedAt": "2024-02-27T23:21:51.431Z",
  "devdoc": {
    "kind": "dev",
    "methods": {},
    "version": 1
  },
  "userdoc": {
    "kind": "user",
    "methods": {
      "addUser(string,string,string,address)": {
        "notice": "addUser() effettuiamo la registrazione dell'utente Consumer "
      },
      "getBalance(address,uint256)": {
        "notice": "- Funzione getBalance() attraverso l'address del Consumer riusciamo a recuperare il suo Balance"
      },
      "getEmail(address,uint256)": {
        "notice": "- Funzione getEmail() attraverso l'address del Consumer riusciamo a recuperare la sua Email "
      },
      "getFullName(address,uint256)": {
        "notice": "- Funzione getFullName() attraverso l'address del Consumer riusciamo a recuperare il suo FullName"
      },
      "getId(address)": {
        "notice": "- Funzione getId() attraverso l'address del Consumer riusciamo a recuperare il suo ID"
      },
      "getListAddress()": {
        "notice": "Ritorna la Lista degli address"
      },
      "getUser(address)": {
        "notice": "getUser(walletConsumer) :  Consumer visualizza le sue informazioni principali - email, password , fullName , balance "
      },
      "loginUser(address,string,string)": {
        "notice": "LoginUser() effettua il login dell'utente  La comparazione Hash tra (email e password) di input e quelli salvati return true se la comparazione  vera, La comparazione  falsa se l'hashing non risulta valido"
      }
    },
    "version": 1
  }
}