{
  "contractName": "ConsumerService",
  "abi": [
    {
      "inputs": [
        {
          "internalType": "address",
          "name": "_consumerStorageStorage",
          "type": "address"
        },
        {
          "internalType": "address",
          "name": "_filieraToken",
          "type": "address"
        }
      ],
      "stateMutability": "nonpayable",
      "type": "constructor"
    },
    {
      "anonymous": false,
      "inputs": [
        {
          "indexed": true,
          "internalType": "address",
          "name": "walletConsumer",
          "type": "address"
        },
        {
          "indexed": false,
          "internalType": "string",
          "name": "message",
          "type": "string"
        }
      ],
      "name": "ConsumerDeleted",
      "type": "event"
    },
    {
      "anonymous": false,
      "inputs": [
        {
          "indexed": true,
          "internalType": "address",
          "name": "walletConsumer",
          "type": "address"
        },
        {
          "indexed": false,
          "internalType": "string",
          "name": "fullName",
          "type": "string"
        },
        {
          "indexed": false,
          "internalType": "string",
          "name": "message",
          "type": "string"
        }
      ],
      "name": "ConsumerRegistered",
      "type": "event"
    },
    {
      "inputs": [
        {
          "internalType": "string",
          "name": "fullName",
          "type": "string"
        },
        {
          "internalType": "string",
          "name": "password",
          "type": "string"
        },
        {
          "internalType": "string",
          "name": "email",
          "type": "string"
        },
        {
          "internalType": "address",
          "name": "walletConsumer",
          "type": "address"
        }
      ],
      "name": "registerConsumer",
      "outputs": [],
      "stateMutability": "nonpayable",
      "type": "function"
    },
    {
      "inputs": [
        {
          "internalType": "address",
          "name": "walletConsumer",
          "type": "address"
        },
        {
          "internalType": "string",
          "name": "email",
          "type": "string"
        },
        {
          "internalType": "string",
          "name": "password",
          "type": "string"
        }
      ],
      "name": "login",
      "outputs": [
        {
          "internalType": "bool",
          "name": "",
          "type": "bool"
        }
      ],
      "stateMutability": "view",
      "type": "function"
    },
    {
      "inputs": [
        {
          "internalType": "address",
          "name": "walletConsumer",
          "type": "address"
        },
        {
          "internalType": "uint256",
          "name": "_id",
          "type": "uint256"
        }
      ],
      "name": "deleteConsumer",
      "outputs": [],
      "stateMutability": "nonpayable",
      "type": "function"
    },
    {
      "inputs": [
        {
          "internalType": "address",
          "name": "walletConsumer",
          "type": "address"
        }
      ],
      "name": "isUserPresent",
      "outputs": [
        {
          "internalType": "bool",
          "name": "",
          "type": "bool"
        }
      ],
      "stateMutability": "view",
      "type": "function"
    },
    {
      "inputs": [
        {
          "internalType": "address",
          "name": "walletConsumer",
          "type": "address"
        }
      ],
      "name": "getConsumerId",
      "outputs": [
        {
          "internalType": "uint256",
          "name": "",
          "type": "uint256"
        }
      ],
      "stateMutability": "view",
      "type": "function"
    },
    {
      "inputs": [
        {
          "internalType": "address",
          "name": "walletConsumer",
          "type": "address"
        },
        {
          "internalType": "uint256",
          "name": "_id",
          "type": "uint256"
        }
      ],
      "name": "getConsumerFullName",
      "outputs": [
        {
          "internalType": "string",
          "name": "",
          "type": "string"
        }
      ],
      "stateMutability": "view",
      "type": "function"
    },
    {
      "inputs": [
        {
          "internalType": "address",
          "name": "walletConsumer",
          "type": "address"
        },
        {
          "internalType": "uint256",
          "name": "_id",
          "type": "uint256"
        }
      ],
      "name": "getConsumerEmail",
      "outputs": [
        {
          "internalType": "string",
          "name": "",
          "type": "string"
        }
      ],
      "stateMutability": "view",
      "type": "function"
    },
    {
      "inputs": [
        {
          "internalType": "address",
          "name": "walletConsumer",
          "type": "address"
        },
        {
          "internalType": "uint256",
          "name": "_id",
          "type": "uint256"
        }
      ],
      "name": "getConsumerBalance",
      "outputs": [
        {
          "internalType": "uint256",
          "name": "",
          "type": "uint256"
        }
      ],
      "stateMutability": "view",
      "type": "function"
    },
    {
      "inputs": [
        {
          "internalType": "address",
          "name": "walletConsumer",
          "type": "address"
        },
        {
          "internalType": "uint256",
          "name": "_id",
          "type": "uint256"
        }
      ],
      "name": "getConsumerData",
      "outputs": [
        {
          "internalType": "uint256",
          "name": "",
          "type": "uint256"
        },
        {
          "internalType": "string",
          "name": "",
          "type": "string"
        },
        {
          "internalType": "string",
          "name": "",
          "type": "string"
        },
        {
          "internalType": "string",
          "name": "",
          "type": "string"
        },
        {
          "internalType": "uint256",
          "name": "",
          "type": "uint256"
        }
      ],
      "stateMutability": "view",
      "type": "function"
    },
    {
      "inputs": [],
      "name": "getListAddressConsumer",
      "outputs": [
        {
          "internalType": "address[]",
          "name": "",
          "type": "address[]"
        }
      ],
      "stateMutability": "view",
      "type": "function"
    },
    {
      "inputs": [
        {
          "internalType": "address",
          "name": "walletConsumer",
          "type": "address"
        },
        {
          "internalType": "uint256",
          "name": "balance",
          "type": "uint256"
        }
      ],
      "name": "updateConsumerBalance",
      "outputs": [],
      "stateMutability": "nonpayable",
      "type": "function"
    }
  ],
  "bytecode": "0x60806040523480156200001157600080fd5b50604051620037b0380380620037b083398181016040528101906200003791906200016b565b816000806101000a81548173ffffffffffffffffffffffffffffffffffffffff021916908373ffffffffffffffffffffffffffffffffffffffff16021790555080600160006101000a81548173ffffffffffffffffffffffffffffffffffffffff021916908373ffffffffffffffffffffffffffffffffffffffff16021790555033600260006101000a81548173ffffffffffffffffffffffffffffffffffffffff021916908373ffffffffffffffffffffffffffffffffffffffff1602179055505050620001b2565b600080fd5b600073ffffffffffffffffffffffffffffffffffffffff82169050919050565b6000620001338262000106565b9050919050565b620001458162000126565b81146200015157600080fd5b50565b60008151905062000165816200013a565b92915050565b6000806040838503121562000185576200018462000101565b5b6000620001958582860162000154565b9250506020620001a88582860162000154565b9150509250929050565b6135ee80620001c26000396000f3fe608060405234801561001057600080fd5b50600436106100a95760003560e01c80637932993711610071578063793299371461017857806384ebbea0146101a857806388b9aa85146101c4578063a1f8d937146101f8578063a557880714610214578063dd4355d114610244576100a9565b80630ea6a0c8146100ae57806318db0ba2146100ca5780633530a247146100fa5780634908b8b61461011857806371074e2914610148575b600080fd5b6100c860048036038101906100c391906125ca565b610274565b005b6100e460048036038101906100df919061260a565b61088e565b6040516100f19190612646565b60405180910390f35b610102610b50565b60405161010f919061271f565b60405180910390f35b610132600480360381019061012d91906125ca565b610beb565b60405161013f9190612646565b60405180910390f35b610162600480360381019061015d91906125ca565b610eb0565b60405161016f91906127d1565b60405180910390f35b610192600480360381019061018d9190612928565b61117a565b60405161019f91906129ce565b60405180910390f35b6101c260048036038101906101bd91906125ca565b6114fb565b005b6101de60048036038101906101d991906125ca565b6118a7565b6040516101ef9594939291906129e9565b60405180910390f35b610212600480360381019061020d9190612a51565b611d16565b005b61022e6004803603810190610229919061260a565b6121b4565b60405161023b91906129ce565b60405180910390f35b61025e600480360381019061025991906125ca565b612258565b60405161026b91906127d1565b60405180910390f35b81600073ffffffffffffffffffffffffffffffffffffffff168173ffffffffffffffffffffffffffffffffffffffff16036102e4576040517f08c379a00000000000000000000000000000000000000000000000000000000081526004016102db90612b58565b60405180910390fd5b60008054906101000a900473ffffffffffffffffffffffffffffffffffffffff1673ffffffffffffffffffffffffffffffffffffffff168173ffffffffffffffffffffffffffffffffffffffff1603610372576040517f08c379a000000000000000000000000000000000000000000000000000000000815260040161036990612bea565b60405180910390fd5b600160009054906101000a900473ffffffffffffffffffffffffffffffffffffffff1673ffffffffffffffffffffffffffffffffffffffff168173ffffffffffffffffffffffffffffffffffffffff1603610402576040517f08c379a00000000000000000000000000000000000000000000000000000000081526004016103f990612c7c565b60405180910390fd5b600260009054906101000a900473ffffffffffffffffffffffffffffffffffffffff1673ffffffffffffffffffffffffffffffffffffffff168173ffffffffffffffffffffffffffffffffffffffff1603610492576040517f08c379a000000000000000000000000000000000000000000000000000000000815260040161048990612ce8565b60405180910390fd5b3073ffffffffffffffffffffffffffffffffffffffff1663a5578807846040518263ffffffff1660e01b81526004016104cb9190612d17565b602060405180830381865afa1580156104e8573d6000803e3d6000fd5b505050506040513d601f19601f8201168201806040525081019061050c9190612d5e565b61054b576040517f08c379a000000000000000000000000000000000000000000000000000000000815260040161054290612dd7565b60405180910390fd5b8160008054906101000a900473ffffffffffffffffffffffffffffffffffffffff1673ffffffffffffffffffffffffffffffffffffffff166365f68c89856040518263ffffffff1660e01b81526004016105a59190612d17565b602060405180830381865afa1580156105c2573d6000803e3d6000fd5b505050506040513d601f19601f820116820180604052508101906105e69190612e0c565b14610626576040517f08c379a000000000000000000000000000000000000000000000000000000000815260040161061d90612e85565b60405180910390fd5b60008054906101000a900473ffffffffffffffffffffffffffffffffffffffff1673ffffffffffffffffffffffffffffffffffffffff16635c60f226846040518263ffffffff1660e01b815260040161067f9190612d17565b6020604051808303816000875af115801561069e573d6000803e3d6000fd5b505050506040513d601f19601f820116820180604052508101906106c29190612d5e565b610701576040517f08c379a00000000000000000000000000000000000000000000000000000000081526004016106f890612ef1565b60405180910390fd5b600160009054906101000a900473ffffffffffffffffffffffffffffffffffffffff1673ffffffffffffffffffffffffffffffffffffffff1663d1df306c84600160009054906101000a900473ffffffffffffffffffffffffffffffffffffffff1673ffffffffffffffffffffffffffffffffffffffff166370a08231876040518263ffffffff1660e01b815260040161079b9190612d17565b602060405180830381865afa1580156107b8573d6000803e3d6000fd5b505050506040513d601f19601f820116820180604052508101906107dc9190612e0c565b6040518363ffffffff1660e01b81526004016107f9929190612f11565b6020604051808303816000875af1158015610818573d6000803e3d6000fd5b505050506040513d601f19601f8201168201806040525081019061083c9190612d5e565b508273ffffffffffffffffffffffffffffffffffffffff167fc4a15e7b7c469b2570cb39a05c0ac17b9bb6450c0f6b53c4ea88dbb1c02aeee260405161088190612f86565b60405180910390a2505050565b600081600073ffffffffffffffffffffffffffffffffffffffff168173ffffffffffffffffffffffffffffffffffffffff1603610900576040517f08c379a00000000000000000000000000000000000000000000000000000000081526004016108f790612b58565b60405180910390fd5b60008054906101000a900473ffffffffffffffffffffffffffffffffffffffff1673ffffffffffffffffffffffffffffffffffffffff168173ffffffffffffffffffffffffffffffffffffffff160361098e576040517f08c379a000000000000000000000000000000000000000000000000000000000815260040161098590612bea565b60405180910390fd5b600160009054906101000a900473ffffffffffffffffffffffffffffffffffffffff1673ffffffffffffffffffffffffffffffffffffffff168173ffffffffffffffffffffffffffffffffffffffff1603610a1e576040517f08c379a0000000000000000000000000000000000000000000000000000000008152600401610a1590612c7c565b60405180910390fd5b600260009054906101000a900473ffffffffffffffffffffffffffffffffffffffff1673ffffffffffffffffffffffffffffffffffffffff168173ffffffffffffffffffffffffffffffffffffffff1603610aae576040517f08c379a0000000000000000000000000000000000000000000000000000000008152600401610aa590612ce8565b60405180910390fd5b60008054906101000a900473ffffffffffffffffffffffffffffffffffffffff1673ffffffffffffffffffffffffffffffffffffffff166365f68c89846040518263ffffffff1660e01b8152600401610b079190612d17565b602060405180830381865afa158015610b24573d6000803e3d6000fd5b505050506040513d601f19601f82011682018060405250810190610b489190612e0c565b915050919050565b606060008054906101000a900473ffffffffffffffffffffffffffffffffffffffff1673ffffffffffffffffffffffffffffffffffffffff16633530a2476040518163ffffffff1660e01b8152600401600060405180830381865afa158015610bbd573d6000803e3d6000fd5b505050506040513d6000823e3d601f19601f82011682018060405250810190610be69190613083565b905090565b600082600073ffffffffffffffffffffffffffffffffffffffff168173ffffffffffffffffffffffffffffffffffffffff1603610c5d576040517f08c379a0000000000000000000000000000000000000000000000000000000008152600401610c5490612b58565b60405180910390fd5b60008054906101000a900473ffffffffffffffffffffffffffffffffffffffff1673ffffffffffffffffffffffffffffffffffffffff168173ffffffffffffffffffffffffffffffffffffffff1603610ceb576040517f08c379a0000000000000000000000000000000000000000000000000000000008152600401610ce290612bea565b60405180910390fd5b600160009054906101000a900473ffffffffffffffffffffffffffffffffffffffff1673ffffffffffffffffffffffffffffffffffffffff168173ffffffffffffffffffffffffffffffffffffffff1603610d7b576040517f08c379a0000000000000000000000000000000000000000000000000000000008152600401610d7290612c7c565b60405180910390fd5b600260009054906101000a900473ffffffffffffffffffffffffffffffffffffffff1673ffffffffffffffffffffffffffffffffffffffff168173ffffffffffffffffffffffffffffffffffffffff1603610e0b576040517f08c379a0000000000000000000000000000000000000000000000000000000008152600401610e0290612ce8565b60405180910390fd5b60008054906101000a900473ffffffffffffffffffffffffffffffffffffffff1673ffffffffffffffffffffffffffffffffffffffff16632b04e84085856040518363ffffffff1660e01b8152600401610e66929190612f11565b602060405180830381865afa158015610e83573d6000803e3d6000fd5b505050506040513d601f19601f82011682018060405250810190610ea79190612e0c565b91505092915050565b606082600073ffffffffffffffffffffffffffffffffffffffff168173ffffffffffffffffffffffffffffffffffffffff1603610f22576040517f08c379a0000000000000000000000000000000000000000000000000000000008152600401610f1990612b58565b60405180910390fd5b60008054906101000a900473ffffffffffffffffffffffffffffffffffffffff1673ffffffffffffffffffffffffffffffffffffffff168173ffffffffffffffffffffffffffffffffffffffff1603610fb0576040517f08c379a0000000000000000000000000000000000000000000000000000000008152600401610fa790612bea565b60405180910390fd5b600160009054906101000a900473ffffffffffffffffffffffffffffffffffffffff1673ffffffffffffffffffffffffffffffffffffffff168173ffffffffffffffffffffffffffffffffffffffff1603611040576040517f08c379a000000000000000000000000000000000000000000000000000000000815260040161103790612c7c565b60405180910390fd5b600260009054906101000a900473ffffffffffffffffffffffffffffffffffffffff1673ffffffffffffffffffffffffffffffffffffffff168173ffffffffffffffffffffffffffffffffffffffff16036110d0576040517f08c379a00000000000000000000000000000000000000000000000000000000081526004016110c790612ce8565b60405180910390fd5b60008054906101000a900473ffffffffffffffffffffffffffffffffffffffff1673ffffffffffffffffffffffffffffffffffffffff16636e44cd4285856040518363ffffffff1660e01b815260040161112b929190612f11565b600060405180830381865afa158015611148573d6000803e3d6000fd5b505050506040513d6000823e3d601f19601f82011682018060405250810190611171919061313c565b91505092915050565b600083600073ffffffffffffffffffffffffffffffffffffffff168173ffffffffffffffffffffffffffffffffffffffff16036111ec576040517f08c379a00000000000000000000000000000000000000000000000000000000081526004016111e390612b58565b60405180910390fd5b60008054906101000a900473ffffffffffffffffffffffffffffffffffffffff1673ffffffffffffffffffffffffffffffffffffffff168173ffffffffffffffffffffffffffffffffffffffff160361127a576040517f08c379a000000000000000000000000000000000000000000000000000000000815260040161127190612bea565b60405180910390fd5b600160009054906101000a900473ffffffffffffffffffffffffffffffffffffffff1673ffffffffffffffffffffffffffffffffffffffff168173ffffffffffffffffffffffffffffffffffffffff160361130a576040517f08c379a000000000000000000000000000000000000000000000000000000000815260040161130190612c7c565b60405180910390fd5b600260009054906101000a900473ffffffffffffffffffffffffffffffffffffffff1673ffffffffffffffffffffffffffffffffffffffff168173ffffffffffffffffffffffffffffffffffffffff160361139a576040517f08c379a000000000000000000000000000000000000000000000000000000000815260040161139190612ce8565b60405180910390fd5b3073ffffffffffffffffffffffffffffffffffffffff1663a5578807866040518263ffffffff1660e01b81526004016113d39190612d17565b602060405180830381865afa1580156113f0573d6000803e3d6000fd5b505050506040513d601f19601f820116820180604052508101906114149190612d5e565b611453576040517f08c379a000000000000000000000000000000000000000000000000000000000815260040161144a90612dd7565b60405180910390fd5b60008054906101000a900473ffffffffffffffffffffffffffffffffffffffff1673ffffffffffffffffffffffffffffffffffffffff166306f22b048686866040518463ffffffff1660e01b81526004016114b093929190613185565b602060405180830381865afa1580156114cd573d6000803e3d6000fd5b505050506040513d601f19601f820116820180604052508101906114f19190612d5e565b9150509392505050565b81600073ffffffffffffffffffffffffffffffffffffffff168173ffffffffffffffffffffffffffffffffffffffff160361156b576040517f08c379a000000000000000000000000000000000000000000000000000000000815260040161156290612b58565b60405180910390fd5b60008054906101000a900473ffffffffffffffffffffffffffffffffffffffff1673ffffffffffffffffffffffffffffffffffffffff168173ffffffffffffffffffffffffffffffffffffffff16036115f9576040517f08c379a00000000000000000000000000000000000000000000000000000000081526004016115f090612bea565b60405180910390fd5b600160009054906101000a900473ffffffffffffffffffffffffffffffffffffffff1673ffffffffffffffffffffffffffffffffffffffff168173ffffffffffffffffffffffffffffffffffffffff1603611689576040517f08c379a000000000000000000000000000000000000000000000000000000000815260040161168090612c7c565b60405180910390fd5b600260009054906101000a900473ffffffffffffffffffffffffffffffffffffffff1673ffffffffffffffffffffffffffffffffffffffff168173ffffffffffffffffffffffffffffffffffffffff1603611719576040517f08c379a000000000000000000000000000000000000000000000000000000000815260040161171090612ce8565b60405180910390fd5b6000821161175c576040517f08c379a000000000000000000000000000000000000000000000000000000000815260040161175390613216565b60405180910390fd5b3073ffffffffffffffffffffffffffffffffffffffff1663a5578807846040518263ffffffff1660e01b81526004016117959190612d17565b602060405180830381865afa1580156117b2573d6000803e3d6000fd5b505050506040513d601f19601f820116820180604052508101906117d69190612d5e565b611815576040517f08c379a000000000000000000000000000000000000000000000000000000000815260040161180c90613282565b60405180910390fd5b60008054906101000a900473ffffffffffffffffffffffffffffffffffffffff1673ffffffffffffffffffffffffffffffffffffffff1663e0b1cccb84846040518363ffffffff1660e01b8152600401611870929190612f11565b600060405180830381600087803b15801561188a57600080fd5b505af115801561189e573d6000803e3d6000fd5b50505050505050565b60006060806060600086600073ffffffffffffffffffffffffffffffffffffffff168173ffffffffffffffffffffffffffffffffffffffff1603611920576040517f08c379a000000000000000000000000000000000000000000000000000000000815260040161191790612b58565b60405180910390fd5b60008054906101000a900473ffffffffffffffffffffffffffffffffffffffff1673ffffffffffffffffffffffffffffffffffffffff168173ffffffffffffffffffffffffffffffffffffffff16036119ae576040517f08c379a00000000000000000000000000000000000000000000000000000000081526004016119a590612bea565b60405180910390fd5b600160009054906101000a900473ffffffffffffffffffffffffffffffffffffffff1673ffffffffffffffffffffffffffffffffffffffff168173ffffffffffffffffffffffffffffffffffffffff1603611a3e576040517f08c379a0000000000000000000000000000000000000000000000000000000008152600401611a3590612c7c565b60405180910390fd5b600260009054906101000a900473ffffffffffffffffffffffffffffffffffffffff1673ffffffffffffffffffffffffffffffffffffffff168173ffffffffffffffffffffffffffffffffffffffff1603611ace576040517f08c379a0000000000000000000000000000000000000000000000000000000008152600401611ac590612ce8565b60405180910390fd5b3073ffffffffffffffffffffffffffffffffffffffff1663a5578807896040518263ffffffff1660e01b8152600401611b079190612d17565b602060405180830381865afa158015611b24573d6000803e3d6000fd5b505050506040513d601f19601f82011682018060405250810190611b489190612d5e565b611b87576040517f08c379a0000000000000000000000000000000000000000000000000000000008152600401611b7e90612dd7565b60405180910390fd5b8660008054906101000a900473ffffffffffffffffffffffffffffffffffffffff1673ffffffffffffffffffffffffffffffffffffffff166365f68c898a6040518263ffffffff1660e01b8152600401611be19190612d17565b602060405180830381865afa158015611bfe573d6000803e3d6000fd5b505050506040513d601f19601f82011682018060405250810190611c229190612e0c565b14611c62576040517f08c379a0000000000000000000000000000000000000000000000000000000008152600401611c5990612e85565b60405180910390fd5b60008054906101000a900473ffffffffffffffffffffffffffffffffffffffff1673ffffffffffffffffffffffffffffffffffffffff16636f77926b896040518263ffffffff1660e01b8152600401611cbb9190612d17565b600060405180830381865afa158015611cd8573d6000803e3d6000fd5b505050506040513d6000823e3d601f19601f82011682018060405250810190611d0191906132a2565b95509550955095509550509295509295909350565b80600073ffffffffffffffffffffffffffffffffffffffff168173ffffffffffffffffffffffffffffffffffffffff1603611d86576040517f08c379a0000000000000000000000000000000000000000000000000000000008152600401611d7d90612b58565b60405180910390fd5b60008054906101000a900473ffffffffffffffffffffffffffffffffffffffff1673ffffffffffffffffffffffffffffffffffffffff168173ffffffffffffffffffffffffffffffffffffffff1603611e14576040517f08c379a0000000000000000000000000000000000000000000000000000000008152600401611e0b90612bea565b60405180910390fd5b600160009054906101000a900473ffffffffffffffffffffffffffffffffffffffff1673ffffffffffffffffffffffffffffffffffffffff168173ffffffffffffffffffffffffffffffffffffffff1603611ea4576040517f08c379a0000000000000000000000000000000000000000000000000000000008152600401611e9b90612c7c565b60405180910390fd5b600260009054906101000a900473ffffffffffffffffffffffffffffffffffffffff1673ffffffffffffffffffffffffffffffffffffffff168173ffffffffffffffffffffffffffffffffffffffff1603611f34576040517f08c379a0000000000000000000000000000000000000000000000000000000008152600401611f2b90612ce8565b60405180910390fd5b3073ffffffffffffffffffffffffffffffffffffffff1663a5578807836040518263ffffffff1660e01b8152600401611f6d9190612d17565b602060405180830381865afa158015611f8a573d6000803e3d6000fd5b505050506040513d601f19601f82011682018060405250810190611fae9190612d5e565b15611fee576040517f08c379a0000000000000000000000000000000000000000000000000000000008152600401611fe5906133bd565b60405180910390fd5b60008054906101000a900473ffffffffffffffffffffffffffffffffffffffff1673ffffffffffffffffffffffffffffffffffffffff1663b48ff0f1868686866040518563ffffffff1660e01b815260040161204d94939291906133dd565b600060405180830381600087803b15801561206757600080fd5b505af115801561207b573d6000803e3d6000fd5b50505050600160009054906101000a900473ffffffffffffffffffffffffffffffffffffffff1673ffffffffffffffffffffffffffffffffffffffff1663a2a7e6228360646040518363ffffffff1660e01b81526004016120dd92919061347c565b6020604051808303816000875af11580156120fc573d6000803e3d6000fd5b505050506040513d601f19601f820116820180604052508101906121209190612d5e565b61215f576040517f08c379a0000000000000000000000000000000000000000000000000000000008152600401612156906134f1565b60405180910390fd5b8173ffffffffffffffffffffffffffffffffffffffff167f660a0234ae184535ca2e96241abb0573b75a93562e2eab6d9f38b2611b8b06ab866040516121a59190613583565b60405180910390a25050505050565b60008060009054906101000a900473ffffffffffffffffffffffffffffffffffffffff1673ffffffffffffffffffffffffffffffffffffffff1663a5578807836040518263ffffffff1660e01b81526004016122109190612d17565b602060405180830381865afa15801561222d573d6000803e3d6000fd5b505050506040513d601f19601f820116820180604052508101906122519190612d5e565b9050919050565b606082600073ffffffffffffffffffffffffffffffffffffffff168173ffffffffffffffffffffffffffffffffffffffff16036122ca576040517f08c379a00000000000000000000000000000000000000000000000000000000081526004016122c190612b58565b60405180910390fd5b60008054906101000a900473ffffffffffffffffffffffffffffffffffffffff1673ffffffffffffffffffffffffffffffffffffffff168173ffffffffffffffffffffffffffffffffffffffff1603612358576040517f08c379a000000000000000000000000000000000000000000000000000000000815260040161234f90612bea565b60405180910390fd5b600160009054906101000a900473ffffffffffffffffffffffffffffffffffffffff1673ffffffffffffffffffffffffffffffffffffffff168173ffffffffffffffffffffffffffffffffffffffff16036123e8576040517f08c379a00000000000000000000000000000000000000000000000000000000081526004016123df90612c7c565b60405180910390fd5b600260009054906101000a900473ffffffffffffffffffffffffffffffffffffffff1673ffffffffffffffffffffffffffffffffffffffff168173ffffffffffffffffffffffffffffffffffffffff1603612478576040517f08c379a000000000000000000000000000000000000000000000000000000000815260040161246f90612ce8565b60405180910390fd5b60008054906101000a900473ffffffffffffffffffffffffffffffffffffffff1673ffffffffffffffffffffffffffffffffffffffff1663ecca407385856040518363ffffffff1660e01b81526004016124d3929190612f11565b600060405180830381865afa1580156124f0573d6000803e3d6000fd5b505050506040513d6000823e3d601f19601f82011682018060405250810190612519919061313c565b91505092915050565b6000604051905090565b600080fd5b600080fd5b600073ffffffffffffffffffffffffffffffffffffffff82169050919050565b600061256182612536565b9050919050565b61257181612556565b811461257c57600080fd5b50565b60008135905061258e81612568565b92915050565b6000819050919050565b6125a781612594565b81146125b257600080fd5b50565b6000813590506125c48161259e565b92915050565b600080604083850312156125e1576125e061252c565b5b60006125ef8582860161257f565b9250506020612600858286016125b5565b9150509250929050565b6000602082840312156126205761261f61252c565b5b600061262e8482850161257f565b91505092915050565b61264081612594565b82525050565b600060208201905061265b6000830184612637565b92915050565b600081519050919050565b600082825260208201905092915050565b6000819050602082019050919050565b61269681612556565b82525050565b60006126a8838361268d565b60208301905092915050565b6000602082019050919050565b60006126cc82612661565b6126d6818561266c565b93506126e18361267d565b8060005b838110156127125781516126f9888261269c565b9750612704836126b4565b9250506001810190506126e5565b5085935050505092915050565b6000602082019050818103600083015261273981846126c1565b905092915050565b600081519050919050565b600082825260208201905092915050565b60005b8381101561277b578082015181840152602081019050612760565b60008484015250505050565b6000601f19601f8301169050919050565b60006127a382612741565b6127ad818561274c565b93506127bd81856020860161275d565b6127c681612787565b840191505092915050565b600060208201905081810360008301526127eb8184612798565b905092915050565b600080fd5b600080fd5b7f4e487b7100000000000000000000000000000000000000000000000000000000600052604160045260246000fd5b61283582612787565b810181811067ffffffffffffffff82111715612854576128536127fd565b5b80604052505050565b6000612867612522565b9050612873828261282c565b919050565b600067ffffffffffffffff821115612893576128926127fd565b5b61289c82612787565b9050602081019050919050565b82818337600083830152505050565b60006128cb6128c684612878565b61285d565b9050828152602081018484840111156128e7576128e66127f8565b5b6128f28482856128a9565b509392505050565b600082601f83011261290f5761290e6127f3565b5b813561291f8482602086016128b8565b91505092915050565b6000806000606084860312156129415761294061252c565b5b600061294f8682870161257f565b935050602084013567ffffffffffffffff8111156129705761296f612531565b5b61297c868287016128fa565b925050604084013567ffffffffffffffff81111561299d5761299c612531565b5b6129a9868287016128fa565b9150509250925092565b60008115159050919050565b6129c8816129b3565b82525050565b60006020820190506129e360008301846129bf565b92915050565b600060a0820190506129fe6000830188612637565b8181036020830152612a108187612798565b90508181036040830152612a248186612798565b90508181036060830152612a388185612798565b9050612a476080830184612637565b9695505050505050565b60008060008060808587031215612a6b57612a6a61252c565b5b600085013567ffffffffffffffff811115612a8957612a88612531565b5b612a95878288016128fa565b945050602085013567ffffffffffffffff811115612ab657612ab5612531565b5b612ac2878288016128fa565b935050604085013567ffffffffffffffff811115612ae357612ae2612531565b5b612aef878288016128fa565b9250506060612b008782880161257f565b91505092959194509250565b7f41646472657373206973207a65726f0000000000000000000000000000000000600082015250565b6000612b42600f8361274c565b9150612b4d82612b0c565b602082019050919050565b60006020820190508181036000830152612b7181612b35565b9050919050565b7f4164647265737320697320436f6e73756d657253746f7261676520536d61727460008201527f20436f6e74726163742100000000000000000000000000000000000000000000602082015250565b6000612bd4602a8361274c565b9150612bdf82612b78565b604082019050919050565b60006020820190508181036000830152612c0381612bc7565b9050919050565b7f416464726573732069732046696c69657261546f6b656e20536d61727420436f60008201527f6e74726163742100000000000000000000000000000000000000000000000000602082015250565b6000612c6660278361274c565b9150612c7182612c0a565b604082019050919050565b60006020820190508181036000830152612c9581612c59565b9050919050565b7f4f7267616e697a6174696f6e2061646472657373000000000000000000000000600082015250565b6000612cd260148361274c565b9150612cdd82612c9c565b602082019050919050565b60006020820190508181036000830152612d0181612cc5565b9050919050565b612d1181612556565b82525050565b6000602082019050612d2c6000830184612d08565b92915050565b612d3b816129b3565b8114612d4657600080fd5b50565b600081519050612d5881612d32565b92915050565b600060208284031215612d7457612d7361252c565b5b6000612d8284828501612d49565b91505092915050565b7f5574656e7465206e6f6e2065272070726573656e746521000000000000000000600082015250565b6000612dc160178361274c565b9150612dcc82612d8b565b602082019050919050565b60006020820190508181036000830152612df081612db4565b9050919050565b600081519050612e068161259e565b92915050565b600060208284031215612e2257612e2161252c565b5b6000612e3084828501612df7565b91505092915050565b7f5574656e7465206e6f6e204175746f72697a7a61746f21000000000000000000600082015250565b6000612e6f60178361274c565b9150612e7a82612e39565b602082019050919050565b60006020820190508181036000830152612e9e81612e62565b9050919050565b7f4572726f726520647572616e7465206c612063616e63656c6c617a696f6e6500600082015250565b6000612edb601f8361274c565b9150612ee682612ea5565b602082019050919050565b60006020820190508181036000830152612f0a81612ece565b9050919050565b6000604082019050612f266000830185612d08565b612f336020830184612637565b9392505050565b7f5574656e746520652720737461746f20656c696d696e61746f21000000000000600082015250565b6000612f70601a8361274c565b9150612f7b82612f3a565b602082019050919050565b60006020820190508181036000830152612f9f81612f63565b9050919050565b600067ffffffffffffffff821115612fc157612fc06127fd565b5b602082029050602081019050919050565b600080fd5b600081519050612fe681612568565b92915050565b6000612fff612ffa84612fa6565b61285d565b9050808382526020820190506020840283018581111561302257613021612fd2565b5b835b8181101561304b57806130378882612fd7565b845260208401935050602081019050613024565b5050509392505050565b600082601f83011261306a576130696127f3565b5b815161307a848260208601612fec565b91505092915050565b6000602082840312156130995761309861252c565b5b600082015167ffffffffffffffff8111156130b7576130b6612531565b5b6130c384828501613055565b91505092915050565b60006130df6130da84612878565b61285d565b9050828152602081018484840111156130fb576130fa6127f8565b5b61310684828561275d565b509392505050565b600082601f830112613123576131226127f3565b5b81516131338482602086016130cc565b91505092915050565b6000602082840312156131525761315161252c565b5b600082015167ffffffffffffffff8111156131705761316f612531565b5b61317c8482850161310e565b91505092915050565b600060608201905061319a6000830186612d08565b81810360208301526131ac8185612798565b905081810360408301526131c08184612798565b9050949350505050565b7f42616c616e6365204e6f742056616c6964000000000000000000000000000000600082015250565b600061320060118361274c565b915061320b826131ca565b602082019050919050565b6000602082019050818103600083015261322f816131f3565b9050919050565b7f55736572204e6f7420466f756e64210000000000000000000000000000000000600082015250565b600061326c600f8361274c565b915061327782613236565b602082019050919050565b6000602082019050818103600083015261329b8161325f565b9050919050565b600080600080600060a086880312156132be576132bd61252c565b5b60006132cc88828901612df7565b955050602086015167ffffffffffffffff8111156132ed576132ec612531565b5b6132f98882890161310e565b945050604086015167ffffffffffffffff81111561331a57613319612531565b5b6133268882890161310e565b935050606086015167ffffffffffffffff81111561334757613346612531565b5b6133538882890161310e565b925050608061336488828901612df7565b9150509295509295909350565b7f5574656e74652067696127207265676973747261746f20210000000000000000600082015250565b60006133a760188361274c565b91506133b282613371565b602082019050919050565b600060208201905081810360008301526133d68161339a565b9050919050565b600060808201905081810360008301526133f78187612798565b9050818103602083015261340b8186612798565b9050818103604083015261341f8185612798565b905061342e6060830184612d08565b95945050505050565b6000819050919050565b6000819050919050565b600061346661346161345c84613437565b613441565b612594565b9050919050565b6134768161344b565b82525050565b60006040820190506134916000830185612d08565b61349e602083018461346d565b9392505050565b7f5472616e7366657220546f6b656e206e6f742056616c69642100000000000000600082015250565b60006134db60198361274c565b91506134e6826134a5565b602082019050919050565b6000602082019050818103600083015261350a816134ce565b9050919050565b7f5574656e746520436f6e73756d657220652720737461746f207265676973747260008201527f61746f2100000000000000000000000000000000000000000000000000000000602082015250565b600061356d60248361274c565b915061357882613511565b604082019050919050565b6000604082019050818103600083015261359d8184612798565b905081810360208301526135b081613560565b90509291505056fea2646970667358221220005e543ec8a9171d46986f225f40f517ff6b7fff4a65a1d6ee463faedfe3268a64736f6c63430008180033",
  "immutableReferences": {},
  "source": "// SPDX-License-Identifier: MIT\npragma solidity ^0.8.0;\n\nimport \"./ConsumerStorage.sol\";\nimport \"../../Service/Filieratoken.sol\";\n\n\ncontract ConsumerService {\n\n//-------------------------------------------------------------------- Contract Address Service --------------------------------------------------------------------//\n\n\n    // Address of Consumer Storage \n    ConsumerStorage private consumerStorageStorage;\n    \n    // Address of Token FT - ERC-20\n    Filieratoken private filieraToken;\n\n    // Address of Organization che gestisce gli utenti\n    address private  ConsumerOrg;\n\n\n\n// --------------------------------------------------------------------- Event of Service ----------------------------------------------------------------//\n\n    // Evento emesso al momento della cancellazione di un consumatore\n    event ConsumerDeleted(address indexed walletConsumer, string message);\n    // Evento emesso al momento della registrazione di un consumatore\n    event ConsumerRegistered(address indexed walletConsumer, string fullName, string message);\n\n\n\n//---------------------------------------------------------------------- Constructor ----------------------------------------------------------------------------//    \n    constructor(address _consumerStorageStorage, address _filieraToken) {\n        consumerStorageStorage = ConsumerStorage(_consumerStorageStorage);\n        filieraToken = Filieratoken(_filieraToken);\n        ConsumerOrg = msg.sender;\n    }\n\n// ------------------------------------------------------------ Modifier Of Service ---------------------------------------------------------------------------------//\n\n\n    modifier onlyOrg(address sender){\n        require(sender == ConsumerOrg,\"User Not Authorized!\");\n        _;\n    }\n\n    // Verifica chi effettua la transazione : \n    // Verfica che l'address non sia l'organizzazione \n    // Verfica che l'address non sia lo smart contract del ConsumerStorage e FilieraToken \n    modifier checkAddress(address walletConsumer){\n\n        require(walletConsumer != address(0),\"Address is zero\");\n        require(walletConsumer != address(consumerStorageStorage), \"Address is ConsumerStorage Smart Contract!\");\n        require(walletConsumer != address(filieraToken), \"Address is FilieraToken Smart Contract!\" );\n        require(walletConsumer != ConsumerOrg ,\"Organization address\");\n\n        _;\n    }\n\n\n//--------------------------------------------------------------- Business Logic -------------------------------------------------------------------------------------------//\n\n    /**\n     * registerConsumer() registra gli utenti della piattaforma che sono Consumer \n     * - Inserisce i dati all'interno della Blockchain\n     * - Trasferisce 100 token dal contratto di FilieraToken \n     * - Emette un evento appena l'utente  stato registrato \n     *  */ \n    function registerConsumer(string memory fullName, string memory password, string memory email, address walletConsumer) external checkAddress(walletConsumer) {\n\n        // Verifica che l'utente  gia' presente \n        require(!(this.isUserPresent(walletConsumer)), \"Utente gia' registrato !\");\n\n        // Chiama la funzione di Storage \n        consumerStorageStorage.addUser(fullName, password, email, walletConsumer);\n\n        // Autogenera dei token nel balance del Consumer \n        require(filieraToken.registerUserWithToken(address(walletConsumer), 100),\"Transfer Token not Valid!\");\n\n        // Emette l'evento della registrazione dell'utente\n        emit ConsumerRegistered(walletConsumer, fullName, \"Utente Consumer e' stato registrato!\");\n    }\n\n    /**\n     * login() effettua la Login con email e password \n     * - Inserisce l'email e la password \n     * - return True se l'utente esiste ed ha accesso con le giuste credenziali \n     * - return False altrimenti \n     */\n    function login(address walletConsumer, string memory email, string memory password) external view checkAddress(walletConsumer)  returns(bool) {\n\n        // Verifichiamo che l'utente  presente \n        require(this.isUserPresent(walletConsumer),\"Utente non e' presente!\");\n        \n        return consumerStorageStorage.loginUser(walletConsumer, email, password);\n    }\n\n\n    /**\n     * deleteConsumer() elimina un Consumer all'interno del sistema \n     * - Solo l'owner pu effettuare l'eliminazione \n     * - msg.sender dovrebbe essere solo quello dell'owner \n     */\n    function deleteConsumer(address walletConsumer, uint256 _id) external checkAddress(walletConsumer)  {\n        \n        // Verifico che l'utente  presente \n        require(this.isUserPresent(walletConsumer), \"Utente non e' presente!\");\n        // Restituisce l'id del Consumer tramite il suo address wallet\n        require(consumerStorageStorage.getId(walletConsumer) == _id , \"Utente non Autorizzato!\");\n        // Effettuo la cancellazione dell'utente \n        require(consumerStorageStorage.deleteUser(walletConsumer), \"Errore durante la cancellazione\");\n        // Burn all token ( elimina i token che sono in circolazione, di un utente che non effettua transazioni ) \n        filieraToken.burnToken(walletConsumer, filieraToken.balanceOf(walletConsumer));\n        // Emit Event on FireFly \n        emit ConsumerDeleted(walletConsumer,\"Utente e' stato eliminato!\");\n    }\n\n// --------------------------------------------------------------------------- ConsumerInventoryService ----------------------------------------------------//\n\n    function isUserPresent(address walletConsumer) external view returns(bool){\n        \n        return consumerStorageStorage.isUserPresent(walletConsumer);\n    }\n\n\n\n//----------------------------------------------------------------------------- Get Function ----------------------------------------------------------------------//\n\n    /**\n        -  Funzione getConsumerId() attraverso l'address del Consumer siamo riusciti ad ottenere il suo ID\n    */\n    function getConsumerId(address walletConsumer) external view checkAddress(walletConsumer)  returns (uint256){\n        \n        return consumerStorageStorage.getId(walletConsumer);\n    }\n\n    \n    /**\n        - Funzione getFullName() attraverso l'address del Consumer riusciamo a recuperare il suo FullName\n    */\n    function getConsumerFullName(address walletConsumer,uint256 _id) external view checkAddress(walletConsumer) returns(string memory){\n\n        return consumerStorageStorage.getFullName(walletConsumer,_id);\n    }\n\n    /**\n        - Funzione getEmail() attraverso l'address del Consumer riusciamo a recuperare la sua Email \n    */\n    function getConsumerEmail(address walletConsumer, uint256 _id) external view checkAddress(walletConsumer) returns(string memory){\n        \n        return consumerStorageStorage.getEmail(walletConsumer,_id);\n    }\n\n    /**\n        - Funzione getBalance() attraverso l'address del Consumer riusciamo a recuperare il suo Balance\n    */\n    function getConsumerBalance(address walletConsumer, uint256 _id) external view checkAddress(walletConsumer)  returns(uint256){\n\n        return consumerStorageStorage.getBalance(walletConsumer,_id);\n    }\n\n    /**\n     * getConsumerData() otteniamo i dati del Consumer\n     * - tramite l'address del Consumer riusciamo a visualizzare anche i suoi dati\n     * - Dati sensibili e visibili solo dal Consumer stesso \n     */\n    function getConsumerData(address walletConsumer, uint256 _id) external checkAddress(walletConsumer) view returns (uint256, string memory, string memory, string memory, uint256) {\n        // Verifico che l'utente  presente \n        require(this.isUserPresent(walletConsumer), \"Utente non e' presente!\");\n        // Restituisce l'id del Consumer tramite il suo address wallet\n        require(consumerStorageStorage.getId(walletConsumer) == _id , \"Utente non Autorizzato!\");\n        // Call function of Storage         \n        return consumerStorageStorage.getUser(walletConsumer);\n    }\n\n    function getListAddressConsumer() external view returns ( address [ ] memory){\n        return consumerStorageStorage.getListAddressConsumer();\n    }\n\n//------------------------------------------------------------ Set Function -------------------------------------------------------------------//\n\n    // - Funzione updateBalance() attraverso l'address e l'id, riusciamo a settare il nuovo balance\n    function updateConsumerBalance(address walletConsumer, uint256 balance) external checkAddress(walletConsumer) {\n        // Verifico che il Balance sia >0 \n        require(balance>0,\"Balance Not Valid\");\n        // Verifico che l'utente esista \n        require(this.isUserPresent(walletConsumer),\"User Not Found!\");\n        // Update Balance \n        consumerStorageStorage.updateBalance(walletConsumer, balance);\n    }\n\n\n// ------------------------------------------------------------ Change Address Contract of Service -----------------------------------------------------//\n\n\n    function changeConsumerStorage(address _consumerStorageStorageNew)private {\n        consumerStorageStorage = ConsumerStorage(_consumerStorageStorageNew);\n    }\n\n\n    function changeFilieraToken(address _filieraToken)private {\n        filieraToken = Filieratoken(_filieraToken);\n    }\n\n\n}\n\n",
  "sourcePath": "/home/leone-pc/Documenti/GitHub/FilieraToken/Filiera-Token-Smart-Contract/contracts/Actor/Consumer-smart-contract/ConsumerService.sol",
  "compiler": {
    "name": "solc",
    "version": "0.8.24+commit.e11b9ed9.Emscripten.clang"
  },
  "schemaVersion": "3.4.16",
  "updatedAt": "2024-03-04T14:18:08.440Z",
  "devdoc": {
    "kind": "dev",
    "methods": {},
    "version": 1
  },
  "userdoc": {
    "kind": "user",
    "methods": {
      "deleteConsumer(address,uint256)": {
        "notice": "deleteConsumer() elimina un Consumer all'interno del sistema  - Solo l'owner pu effettuare l'eliminazione  - msg.sender dovrebbe essere solo quello dell'owner "
      },
      "getConsumerBalance(address,uint256)": {
        "notice": "- Funzione getBalance() attraverso l'address del Consumer riusciamo a recuperare il suo Balance"
      },
      "getConsumerData(address,uint256)": {
        "notice": "getConsumerData() otteniamo i dati del Consumer - tramite l'address del Consumer riusciamo a visualizzare anche i suoi dati - Dati sensibili e visibili solo dal Consumer stesso "
      },
      "getConsumerEmail(address,uint256)": {
        "notice": "- Funzione getEmail() attraverso l'address del Consumer riusciamo a recuperare la sua Email "
      },
      "getConsumerFullName(address,uint256)": {
        "notice": "- Funzione getFullName() attraverso l'address del Consumer riusciamo a recuperare il suo FullName"
      },
      "getConsumerId(address)": {
        "notice": "-  Funzione getConsumerId() attraverso l'address del Consumer siamo riusciti ad ottenere il suo ID"
      },
      "login(address,string,string)": {
        "notice": "login() effettua la Login con email e password  - Inserisce l'email e la password  - return True se l'utente esiste ed ha accesso con le giuste credenziali  - return False altrimenti "
      },
      "registerConsumer(string,string,string,address)": {
        "notice": "registerConsumer() registra gli utenti della piattaforma che sono Consumer  - Inserisce i dati all'interno della Blockchain - Trasferisce 100 token dal contratto di FilieraToken  - Emette un evento appena l'utente  stato registrato   "
      }
    },
    "version": 1
  }
}