{
  "contractName": "ConsumerBuyerInventoryStorage",
  "abi": [
    {
      "inputs": [],
      "stateMutability": "nonpayable",
      "type": "constructor"
    },
    {
      "inputs": [
        {
          "internalType": "address",
          "name": "_walletConsumerBuyer",
          "type": "address"
        },
        {
          "internalType": "address",
          "name": "_walletRetailer",
          "type": "address"
        },
        {
          "internalType": "uint256",
          "name": "_id",
          "type": "uint256"
        },
        {
          "internalType": "uint256",
          "name": "_price",
          "type": "uint256"
        },
        {
          "internalType": "uint256",
          "name": "_weight",
          "type": "uint256"
        }
      ],
      "name": "addCheesePiece",
      "outputs": [
        {
          "internalType": "uint256",
          "name": "id_CheesePiece_Acquistato",
          "type": "uint256"
        },
        {
          "internalType": "uint256",
          "name": "price",
          "type": "uint256"
        },
        {
          "internalType": "uint256",
          "name": "weight",
          "type": "uint256"
        }
      ],
      "stateMutability": "nonpayable",
      "type": "function"
    },
    {
      "inputs": [
        {
          "internalType": "address",
          "name": "walletConsumerBuyer",
          "type": "address"
        },
        {
          "internalType": "uint256",
          "name": "_id_CheesePieceAcquistato",
          "type": "uint256"
        }
      ],
      "name": "getCheesePiece",
      "outputs": [
        {
          "internalType": "uint256",
          "name": "",
          "type": "uint256"
        },
        {
          "internalType": "address",
          "name": "",
          "type": "address"
        },
        {
          "internalType": "uint256",
          "name": "",
          "type": "uint256"
        },
        {
          "internalType": "uint256",
          "name": "",
          "type": "uint256"
        }
      ],
      "stateMutability": "view",
      "type": "function"
    },
    {
      "inputs": [
        {
          "internalType": "address",
          "name": "walletConsumerBuyer",
          "type": "address"
        },
        {
          "internalType": "uint256",
          "name": "_id_CheesePieceAcquistato",
          "type": "uint256"
        }
      ],
      "name": "isCheesePiecePresent",
      "outputs": [
        {
          "internalType": "bool",
          "name": "",
          "type": "bool"
        }
      ],
      "stateMutability": "view",
      "type": "function"
    },
    {
      "inputs": [
        {
          "internalType": "address",
          "name": "walletConsumerBuyer",
          "type": "address"
        },
        {
          "internalType": "uint256",
          "name": "_id",
          "type": "uint256"
        }
      ],
      "name": "getWeight",
      "outputs": [
        {
          "internalType": "uint256",
          "name": "",
          "type": "uint256"
        }
      ],
      "stateMutability": "view",
      "type": "function"
    },
    {
      "inputs": [
        {
          "internalType": "address",
          "name": "walletConsumerBuyer",
          "type": "address"
        },
        {
          "internalType": "uint256",
          "name": "_id",
          "type": "uint256"
        }
      ],
      "name": "getPrice",
      "outputs": [
        {
          "internalType": "uint256",
          "name": "",
          "type": "uint256"
        }
      ],
      "stateMutability": "view",
      "type": "function"
    },
    {
      "inputs": [
        {
          "internalType": "address",
          "name": "walletConsumerBuyer",
          "type": "address"
        },
        {
          "internalType": "uint256",
          "name": "_id",
          "type": "uint256"
        }
      ],
      "name": "getWalletRetailer",
      "outputs": [
        {
          "internalType": "address",
          "name": "",
          "type": "address"
        }
      ],
      "stateMutability": "view",
      "type": "function"
    }
  ],
  "bytecode": "0x608060405234801561001057600080fd5b50336000806101000a81548173ffffffffffffffffffffffffffffffffffffffff021916908373ffffffffffffffffffffffffffffffffffffffff160217905550610a8f806100606000396000f3fe608060405234801561001057600080fd5b50600436106100625760003560e01c80630b7aa47314610067578063210744cf1461009a578063449e815d146100cc5780639bc7c21c146100fc578063afd47d3e1461012c578063d7f9aee51461015c575b600080fd5b610081600480360381019061007c91906107af565b61018c565b604051610091949392919061080d565b60405180910390f35b6100b460048036038101906100af9190610852565b61028b565b6040516100c3939291906108cd565b60405180910390f35b6100e660048036038101906100e191906107af565b61052d565b6040516100f39190610904565b60405180910390f35b610116600480360381019061011191906107af565b61058b565b604051610123919061093a565b60405180910390f35b610146600480360381019061014191906107af565b61063a565b6040516101539190610904565b60405180910390f35b610176600480360381019061017191906107af565b610698565b6040516101839190610955565b60405180910390f35b6000806000806000600160008873ffffffffffffffffffffffffffffffffffffffff1673ffffffffffffffffffffffffffffffffffffffff1681526020019081526020016000206000878152602001908152602001600020604051806080016040529081600082015481526020016001820160009054906101000a900473ffffffffffffffffffffffffffffffffffffffff1673ffffffffffffffffffffffffffffffffffffffff1673ffffffffffffffffffffffffffffffffffffffff168152602001600282015481526020016003820154815250509050806000015181602001518260400151836060015194509450945094505092959194509250565b600080600080600160008a73ffffffffffffffffffffffffffffffffffffffff1673ffffffffffffffffffffffffffffffffffffffff16815260200190815260200160002060008881526020019081526020016000209050600081600001541461032a576040517f08c379a0000000000000000000000000000000000000000000000000000000008152600401610321906109cd565b60405180910390fd5b600060405180608001604052808981526020018a73ffffffffffffffffffffffffffffffffffffffff16815260200188815260200187815250905080600160008c73ffffffffffffffffffffffffffffffffffffffff1673ffffffffffffffffffffffffffffffffffffffff16815260200190815260200160002060008a81526020019081526020016000206000820151816000015560208201518160010160006101000a81548173ffffffffffffffffffffffffffffffffffffffff021916908373ffffffffffffffffffffffffffffffffffffffff1602179055506040820151816002015560608201518160030155905050600160008b73ffffffffffffffffffffffffffffffffffffffff1673ffffffffffffffffffffffffffffffffffffffff168152602001908152602001600020600089815260200190815260200160002060000154600160008c73ffffffffffffffffffffffffffffffffffffffff1673ffffffffffffffffffffffffffffffffffffffff16815260200190815260200160002060008a815260200190815260200160002060020154600160008d73ffffffffffffffffffffffffffffffffffffffff1673ffffffffffffffffffffffffffffffffffffffff16815260200190815260200160002060008b8152602001908152602001600020600301549450945094505050955095509592505050565b6000600160008473ffffffffffffffffffffffffffffffffffffffff1673ffffffffffffffffffffffffffffffffffffffff168152602001908152602001600020600083815260200190815260200160002060020154905092915050565b600080821415801561059d5750600082115b6105dc576040517f08c379a00000000000000000000000000000000000000000000000000000000081526004016105d390610a39565b60405180910390fd5b81600160008573ffffffffffffffffffffffffffffffffffffffff1673ffffffffffffffffffffffffffffffffffffffff16815260200190815260200160002060008481526020019081526020016000206000015414905092915050565b6000600160008473ffffffffffffffffffffffffffffffffffffffff1673ffffffffffffffffffffffffffffffffffffffff168152602001908152602001600020600083815260200190815260200160002060030154905092915050565b6000600160008473ffffffffffffffffffffffffffffffffffffffff1673ffffffffffffffffffffffffffffffffffffffff168152602001908152602001600020600083815260200190815260200160002060010160009054906101000a900473ffffffffffffffffffffffffffffffffffffffff16905092915050565b600080fd5b600073ffffffffffffffffffffffffffffffffffffffff82169050919050565b60006107468261071b565b9050919050565b6107568161073b565b811461076157600080fd5b50565b6000813590506107738161074d565b92915050565b6000819050919050565b61078c81610779565b811461079757600080fd5b50565b6000813590506107a981610783565b92915050565b600080604083850312156107c6576107c5610716565b5b60006107d485828601610764565b92505060206107e58582860161079a565b9150509250929050565b6107f881610779565b82525050565b6108078161073b565b82525050565b600060808201905061082260008301876107ef565b61082f60208301866107fe565b61083c60408301856107ef565b61084960608301846107ef565b95945050505050565b600080600080600060a0868803121561086e5761086d610716565b5b600061087c88828901610764565b955050602061088d88828901610764565b945050604061089e8882890161079a565b93505060606108af8882890161079a565b92505060806108c08882890161079a565b9150509295509295909350565b60006060820190506108e260008301866107ef565b6108ef60208301856107ef565b6108fc60408301846107ef565b949350505050565b600060208201905061091960008301846107ef565b92915050565b60008115159050919050565b6109348161091f565b82525050565b600060208201905061094f600083018461092b565b92915050565b600060208201905061096a60008301846107fe565b92915050565b600082825260208201905092915050565b7f436865657365506965636520676961272070726573656e746521000000000000600082015250565b60006109b7601a83610970565b91506109c282610981565b602082019050919050565b600060208201905081810360008301526109e6816109aa565b9050919050565b7f4944204368656573655069656365204e6f742056616c69642100000000000000600082015250565b6000610a23601983610970565b9150610a2e826109ed565b602082019050919050565b60006020820190508181036000830152610a5281610a16565b905091905056fea2646970667358221220c45e957cbdb29bb1db7a935531dad9c87e78d51d7959bfa8a85540bd39e3af9f64736f6c63430008180033",
  "immutableReferences": {},
  "source": "// SPDX-License-Identifier: MIT\r\n\r\npragma solidity ^0.8.0;\r\n\r\n// Smart Contract per lo storage dei MilkHub acquistati dai ConsumerBuyer\r\ncontract ConsumerBuyerInventoryStorage {\r\n\r\n    // Address of Organization che gestisce gli utenti\r\n    address private consumerBuyerOrg;\r\n\r\n    constructor() {\r\n        consumerBuyerOrg = msg.sender;\r\n    }\r\n\r\n    struct CheesePiece {\r\n        uint256 id; // Generato nuovo per il ConsumerBuyer\r\n        address walletRetailer; // Address del Wallet del Retailer\r\n        uint256 price;\r\n        uint256 weight;\r\n    }\r\n\r\n    mapping(address => mapping(uint256 => CheesePiece)) private purchasedCheesePieces;\r\n\r\n    //--------------------------------------------------------------- Business Logic Service -----------------------------------------------------------------------------------------//\r\n\r\n    function addCheesePiece(\r\n        address _walletConsumerBuyer,\r\n        address _walletRetailer, // Riferimento al wallet del Retailer\r\n        uint256 _id,\r\n        uint256 _price,\r\n        uint256 _weight\r\n    ) external returns (uint256 id_CheesePiece_Acquistato, uint256 price, uint256 weight) {\r\n\r\n        CheesePiece storage cheesePieceControl = purchasedCheesePieces[_walletConsumerBuyer][_id];\r\n        require(cheesePieceControl.id == 0, \"CheesePiece gia' presente!\");\r\n\r\n        // Crea un nuovo CheesePiece\r\n        CheesePiece memory cheesePiece = CheesePiece({\r\n            id: _id,\r\n            walletRetailer: _walletRetailer,\r\n            price: _price,\r\n            weight: _weight\r\n        });\r\n\r\n        // Inserisce il nuovo CheesePiece nella lista purchasedCheesePieces\r\n        purchasedCheesePieces[_walletConsumerBuyer][_id] = cheesePiece;\r\n\r\n        return (purchasedCheesePieces[_walletConsumerBuyer][_id].id, purchasedCheesePieces[_walletConsumerBuyer][_id].price, purchasedCheesePieces[_walletConsumerBuyer][_id].weight);\r\n    }\r\n\r\n    function getCheesePiece(address walletConsumerBuyer, uint256 _id_CheesePieceAcquistato) external view returns (uint256, address, uint256, uint256) {\r\n        CheesePiece memory cheesePiece = purchasedCheesePieces[walletConsumerBuyer][_id_CheesePieceAcquistato];\r\n        return (cheesePiece.id, cheesePiece.walletRetailer, cheesePiece.price, cheesePiece.weight);\r\n    }\r\n\r\n    function isCheesePiecePresent(address walletConsumerBuyer, uint256 _id_CheesePieceAcquistato) external view returns(bool) {\r\n        require(_id_CheesePieceAcquistato != 0 && _id_CheesePieceAcquistato > 0, \"ID CheesePiece Not Valid!\");\r\n        return purchasedCheesePieces[walletConsumerBuyer][_id_CheesePieceAcquistato].id == _id_CheesePieceAcquistato;\r\n    }\r\n\r\n    function getWeight(address walletConsumerBuyer, uint256 _id) external view returns (uint256) {\r\n        return purchasedCheesePieces[walletConsumerBuyer][_id].weight;\r\n    }\r\n\r\n    function getPrice(address walletConsumerBuyer, uint256 _id) external view returns (uint256) {\r\n        return purchasedCheesePieces[walletConsumerBuyer][_id].price;\r\n    }\r\n\r\n    function getWalletRetailer(address walletConsumerBuyer, uint256 _id) external view returns (address) {\r\n        return purchasedCheesePieces[walletConsumerBuyer][_id].walletRetailer;\r\n    }\r\n\r\n}\r\n",
  "sourcePath": "/home/udm-root/Filiera-Token-Deploy/contracts/Actor/Consumer-smart-contract/inventory/ConsumerBuyerInventoryStorage.sol",
  "compiler": {
    "name": "solc",
    "version": "0.8.24+commit.e11b9ed9.Emscripten.clang"
  },
  "schemaVersion": "3.4.16",
  "updatedAt": "2024-02-27T19:47:26.533Z",
  "devdoc": {
    "kind": "dev",
    "methods": {},
    "version": 1
  },
  "userdoc": {
    "kind": "user",
    "methods": {},
    "version": 1
  }
}