{
  "contractName": "ConsumerService",
  "abi": [
    {
      "inputs": [
        {
          "internalType": "address",
          "name": "_consumerStorage",
          "type": "address"
        },
        {
          "internalType": "address",
          "name": "_filieraToken",
          "type": "address"
        }
      ],
      "stateMutability": "nonpayable",
      "type": "constructor"
    },
    {
      "anonymous": false,
      "inputs": [
        {
          "indexed": true,
          "internalType": "address",
          "name": "walletConsumer",
          "type": "address"
        },
        {
          "indexed": false,
          "internalType": "string",
          "name": "message",
          "type": "string"
        }
      ],
      "name": "ConsumerDeleted",
      "type": "event"
    },
    {
      "anonymous": false,
      "inputs": [
        {
          "indexed": true,
          "internalType": "address",
          "name": "walletConsumer",
          "type": "address"
        },
        {
          "indexed": false,
          "internalType": "string",
          "name": "fullName",
          "type": "string"
        },
        {
          "indexed": false,
          "internalType": "string",
          "name": "message",
          "type": "string"
        }
      ],
      "name": "ConsumerRegistered",
      "type": "event"
    },
    {
      "inputs": [
        {
          "internalType": "string",
          "name": "fullName",
          "type": "string"
        },
        {
          "internalType": "string",
          "name": "password",
          "type": "string"
        },
        {
          "internalType": "string",
          "name": "email",
          "type": "string"
        },
        {
          "internalType": "address",
          "name": "walletConsumer",
          "type": "address"
        }
      ],
      "name": "registerConsumer",
      "outputs": [],
      "stateMutability": "nonpayable",
      "type": "function"
    },
    {
      "inputs": [
        {
          "internalType": "address",
          "name": "walletConsumer",
          "type": "address"
        },
        {
          "internalType": "string",
          "name": "email",
          "type": "string"
        },
        {
          "internalType": "string",
          "name": "password",
          "type": "string"
        }
      ],
      "name": "login",
      "outputs": [
        {
          "internalType": "bool",
          "name": "",
          "type": "bool"
        }
      ],
      "stateMutability": "view",
      "type": "function"
    },
    {
      "inputs": [
        {
          "internalType": "address",
          "name": "walletConsumer",
          "type": "address"
        },
        {
          "internalType": "uint256",
          "name": "_id",
          "type": "uint256"
        }
      ],
      "name": "deleteConsumer",
      "outputs": [],
      "stateMutability": "nonpayable",
      "type": "function"
    },
    {
      "inputs": [
        {
          "internalType": "address",
          "name": "walletConsumer",
          "type": "address"
        }
      ],
      "name": "isUserPresent",
      "outputs": [
        {
          "internalType": "bool",
          "name": "",
          "type": "bool"
        }
      ],
      "stateMutability": "view",
      "type": "function"
    },
    {
      "inputs": [
        {
          "internalType": "address",
          "name": "walletConsumer",
          "type": "address"
        }
      ],
      "name": "getConsumerId",
      "outputs": [
        {
          "internalType": "uint256",
          "name": "",
          "type": "uint256"
        }
      ],
      "stateMutability": "view",
      "type": "function"
    },
    {
      "inputs": [
        {
          "internalType": "address",
          "name": "walletConsumer",
          "type": "address"
        },
        {
          "internalType": "uint256",
          "name": "_id",
          "type": "uint256"
        }
      ],
      "name": "getConsumerFullName",
      "outputs": [
        {
          "internalType": "string",
          "name": "",
          "type": "string"
        }
      ],
      "stateMutability": "view",
      "type": "function"
    },
    {
      "inputs": [
        {
          "internalType": "address",
          "name": "walletConsumer",
          "type": "address"
        },
        {
          "internalType": "uint256",
          "name": "_id",
          "type": "uint256"
        }
      ],
      "name": "getConsumerEmail",
      "outputs": [
        {
          "internalType": "string",
          "name": "",
          "type": "string"
        }
      ],
      "stateMutability": "view",
      "type": "function"
    },
    {
      "inputs": [
        {
          "internalType": "address",
          "name": "walletConsumer",
          "type": "address"
        },
        {
          "internalType": "uint256",
          "name": "_id",
          "type": "uint256"
        }
      ],
      "name": "getConsumerBalance",
      "outputs": [
        {
          "internalType": "uint256",
          "name": "",
          "type": "uint256"
        }
      ],
      "stateMutability": "view",
      "type": "function"
    },
    {
      "inputs": [
        {
          "internalType": "address",
          "name": "walletConsumer",
          "type": "address"
        },
        {
          "internalType": "uint256",
          "name": "_id",
          "type": "uint256"
        }
      ],
      "name": "getConsumerData",
      "outputs": [
        {
          "internalType": "uint256",
          "name": "",
          "type": "uint256"
        },
        {
          "internalType": "string",
          "name": "",
          "type": "string"
        },
        {
          "internalType": "string",
          "name": "",
          "type": "string"
        },
        {
          "internalType": "string",
          "name": "",
          "type": "string"
        },
        {
          "internalType": "uint256",
          "name": "",
          "type": "uint256"
        }
      ],
      "stateMutability": "view",
      "type": "function"
    },
    {
      "inputs": [
        {
          "internalType": "address",
          "name": "walletConsumer",
          "type": "address"
        }
      ],
      "name": "getConsumerInfo",
      "outputs": [
        {
          "internalType": "uint256",
          "name": "",
          "type": "uint256"
        },
        {
          "internalType": "string",
          "name": "",
          "type": "string"
        },
        {
          "internalType": "string",
          "name": "",
          "type": "string"
        }
      ],
      "stateMutability": "view",
      "type": "function"
    },
    {
      "inputs": [],
      "name": "getListAddressConsumer",
      "outputs": [
        {
          "internalType": "address[]",
          "name": "",
          "type": "address[]"
        }
      ],
      "stateMutability": "view",
      "type": "function"
    },
    {
      "inputs": [
        {
          "internalType": "address",
          "name": "walletConsumer",
          "type": "address"
        },
        {
          "internalType": "uint256",
          "name": "balance",
          "type": "uint256"
        }
      ],
      "name": "updateConsumerBalance",
      "outputs": [],
      "stateMutability": "nonpayable",
      "type": "function"
    }
  ],
  "bytecode": "0x60806040523480156200001157600080fd5b5060405162003d7938038062003d7983398181016040528101906200003791906200016b565b816000806101000a81548173ffffffffffffffffffffffffffffffffffffffff021916908373ffffffffffffffffffffffffffffffffffffffff16021790555080600160006101000a81548173ffffffffffffffffffffffffffffffffffffffff021916908373ffffffffffffffffffffffffffffffffffffffff16021790555033600260006101000a81548173ffffffffffffffffffffffffffffffffffffffff021916908373ffffffffffffffffffffffffffffffffffffffff1602179055505050620001b2565b600080fd5b600073ffffffffffffffffffffffffffffffffffffffff82169050919050565b6000620001338262000106565b9050919050565b620001458162000126565b81146200015157600080fd5b50565b60008151905062000165816200013a565b92915050565b6000806040838503121562000185576200018462000101565b5b6000620001958582860162000154565b9250506020620001a88582860162000154565b9150509250929050565b613bb780620001c26000396000f3fe608060405234801561001057600080fd5b50600436106100b45760003560e01c8063793299371161007157806379329937146101b557806384ebbea0146101e557806388b9aa8514610201578063a1f8d93714610235578063a557880714610251578063dd4355d114610281576100b4565b80630ea6a0c8146100b957806318db0ba2146100d55780632c24d2d6146101055780633530a247146101375780634908b8b61461015557806371074e2914610185575b600080fd5b6100d360048036038101906100ce9190612ae2565b6102b1565b005b6100ef60048036038101906100ea9190612b22565b6108cb565b6040516100fc9190612b5e565b60405180910390f35b61011f600480360381019061011a9190612b22565b610b8d565b60405161012e93929190612c09565b60405180910390f35b61013f611068565b60405161014c9190612d0c565b60405180910390f35b61016f600480360381019061016a9190612ae2565b611103565b60405161017c9190612b5e565b60405180910390f35b61019f600480360381019061019a9190612ae2565b6113c8565b6040516101ac9190612d2e565b60405180910390f35b6101cf60048036038101906101ca9190612e85565b611692565b6040516101dc9190612f2b565b60405180910390f35b6101ff60048036038101906101fa9190612ae2565b611a13565b005b61021b60048036038101906102169190612ae2565b611dbf565b60405161022c959493929190612f46565b60405180910390f35b61024f600480360381019061024a9190612fae565b61222e565b005b61026b60048036038101906102669190612b22565b6126cc565b6040516102789190612f2b565b60405180910390f35b61029b60048036038101906102969190612ae2565b612770565b6040516102a89190612d2e565b60405180910390f35b81600073ffffffffffffffffffffffffffffffffffffffff168173ffffffffffffffffffffffffffffffffffffffff1603610321576040517f08c379a0000000000000000000000000000000000000000000000000000000008152600401610318906130b5565b60405180910390fd5b60008054906101000a900473ffffffffffffffffffffffffffffffffffffffff1673ffffffffffffffffffffffffffffffffffffffff168173ffffffffffffffffffffffffffffffffffffffff16036103af576040517f08c379a00000000000000000000000000000000000000000000000000000000081526004016103a690613147565b60405180910390fd5b600160009054906101000a900473ffffffffffffffffffffffffffffffffffffffff1673ffffffffffffffffffffffffffffffffffffffff168173ffffffffffffffffffffffffffffffffffffffff160361043f576040517f08c379a0000000000000000000000000000000000000000000000000000000008152600401610436906131d9565b60405180910390fd5b600260009054906101000a900473ffffffffffffffffffffffffffffffffffffffff1673ffffffffffffffffffffffffffffffffffffffff168173ffffffffffffffffffffffffffffffffffffffff16036104cf576040517f08c379a00000000000000000000000000000000000000000000000000000000081526004016104c690613245565b60405180910390fd5b3073ffffffffffffffffffffffffffffffffffffffff1663a5578807846040518263ffffffff1660e01b81526004016105089190613274565b602060405180830381865afa158015610525573d6000803e3d6000fd5b505050506040513d601f19601f8201168201806040525081019061054991906132bb565b610588576040517f08c379a000000000000000000000000000000000000000000000000000000000815260040161057f90613334565b60405180910390fd5b8160008054906101000a900473ffffffffffffffffffffffffffffffffffffffff1673ffffffffffffffffffffffffffffffffffffffff166365f68c89856040518263ffffffff1660e01b81526004016105e29190613274565b602060405180830381865afa1580156105ff573d6000803e3d6000fd5b505050506040513d601f19601f820116820180604052508101906106239190613369565b14610663576040517f08c379a000000000000000000000000000000000000000000000000000000000815260040161065a906133e2565b60405180910390fd5b60008054906101000a900473ffffffffffffffffffffffffffffffffffffffff1673ffffffffffffffffffffffffffffffffffffffff16635c60f226846040518263ffffffff1660e01b81526004016106bc9190613274565b6020604051808303816000875af11580156106db573d6000803e3d6000fd5b505050506040513d601f19601f820116820180604052508101906106ff91906132bb565b61073e576040517f08c379a00000000000000000000000000000000000000000000000000000000081526004016107359061344e565b60405180910390fd5b600160009054906101000a900473ffffffffffffffffffffffffffffffffffffffff1673ffffffffffffffffffffffffffffffffffffffff1663d1df306c84600160009054906101000a900473ffffffffffffffffffffffffffffffffffffffff1673ffffffffffffffffffffffffffffffffffffffff166370a08231876040518263ffffffff1660e01b81526004016107d89190613274565b602060405180830381865afa1580156107f5573d6000803e3d6000fd5b505050506040513d601f19601f820116820180604052508101906108199190613369565b6040518363ffffffff1660e01b815260040161083692919061346e565b6020604051808303816000875af1158015610855573d6000803e3d6000fd5b505050506040513d601f19601f8201168201806040525081019061087991906132bb565b508273ffffffffffffffffffffffffffffffffffffffff167fc4a15e7b7c469b2570cb39a05c0ac17b9bb6450c0f6b53c4ea88dbb1c02aeee26040516108be906134e3565b60405180910390a2505050565b600081600073ffffffffffffffffffffffffffffffffffffffff168173ffffffffffffffffffffffffffffffffffffffff160361093d576040517f08c379a0000000000000000000000000000000000000000000000000000000008152600401610934906130b5565b60405180910390fd5b60008054906101000a900473ffffffffffffffffffffffffffffffffffffffff1673ffffffffffffffffffffffffffffffffffffffff168173ffffffffffffffffffffffffffffffffffffffff16036109cb576040517f08c379a00000000000000000000000000000000000000000000000000000000081526004016109c290613147565b60405180910390fd5b600160009054906101000a900473ffffffffffffffffffffffffffffffffffffffff1673ffffffffffffffffffffffffffffffffffffffff168173ffffffffffffffffffffffffffffffffffffffff1603610a5b576040517f08c379a0000000000000000000000000000000000000000000000000000000008152600401610a52906131d9565b60405180910390fd5b600260009054906101000a900473ffffffffffffffffffffffffffffffffffffffff1673ffffffffffffffffffffffffffffffffffffffff168173ffffffffffffffffffffffffffffffffffffffff1603610aeb576040517f08c379a0000000000000000000000000000000000000000000000000000000008152600401610ae290613245565b60405180910390fd5b60008054906101000a900473ffffffffffffffffffffffffffffffffffffffff1673ffffffffffffffffffffffffffffffffffffffff166365f68c89846040518263ffffffff1660e01b8152600401610b449190613274565b602060405180830381865afa158015610b61573d6000803e3d6000fd5b505050506040513d601f19601f82011682018060405250810190610b859190613369565b915050919050565b600060608083600073ffffffffffffffffffffffffffffffffffffffff168173ffffffffffffffffffffffffffffffffffffffff1603610c02576040517f08c379a0000000000000000000000000000000000000000000000000000000008152600401610bf9906130b5565b60405180910390fd5b60008054906101000a900473ffffffffffffffffffffffffffffffffffffffff1673ffffffffffffffffffffffffffffffffffffffff168173ffffffffffffffffffffffffffffffffffffffff1603610c90576040517f08c379a0000000000000000000000000000000000000000000000000000000008152600401610c8790613147565b60405180910390fd5b600160009054906101000a900473ffffffffffffffffffffffffffffffffffffffff1673ffffffffffffffffffffffffffffffffffffffff168173ffffffffffffffffffffffffffffffffffffffff1603610d20576040517f08c379a0000000000000000000000000000000000000000000000000000000008152600401610d17906131d9565b60405180910390fd5b600260009054906101000a900473ffffffffffffffffffffffffffffffffffffffff1673ffffffffffffffffffffffffffffffffffffffff168173ffffffffffffffffffffffffffffffffffffffff1603610db0576040517f08c379a0000000000000000000000000000000000000000000000000000000008152600401610da790613245565b60405180910390fd5b3073ffffffffffffffffffffffffffffffffffffffff1663a5578807866040518263ffffffff1660e01b8152600401610de99190613274565b602060405180830381865afa158015610e06573d6000803e3d6000fd5b505050506040513d601f19601f82011682018060405250810190610e2a91906132bb565b610e69576040517f08c379a0000000000000000000000000000000000000000000000000000000008152600401610e609061354f565b60405180910390fd5b60008060009054906101000a900473ffffffffffffffffffffffffffffffffffffffff1673ffffffffffffffffffffffffffffffffffffffff166365f68c89876040518263ffffffff1660e01b8152600401610ec59190613274565b602060405180830381865afa158015610ee2573d6000803e3d6000fd5b505050506040513d601f19601f82011682018060405250810190610f069190613369565b905060008060009054906101000a900473ffffffffffffffffffffffffffffffffffffffff1673ffffffffffffffffffffffffffffffffffffffff16636e44cd4288846040518363ffffffff1660e01b8152600401610f6692919061346e565b600060405180830381865afa158015610f83573d6000803e3d6000fd5b505050506040513d6000823e3d601f19601f82011682018060405250810190610fac91906135df565b905060008060009054906101000a900473ffffffffffffffffffffffffffffffffffffffff1673ffffffffffffffffffffffffffffffffffffffff1663ecca407389856040518363ffffffff1660e01b815260040161100c92919061346e565b600060405180830381865afa158015611029573d6000803e3d6000fd5b505050506040513d6000823e3d601f19601f8201168201806040525081019061105291906135df565b9050828282965096509650505050509193909250565b606060008054906101000a900473ffffffffffffffffffffffffffffffffffffffff1673ffffffffffffffffffffffffffffffffffffffff16633b5aff126040518163ffffffff1660e01b8152600401600060405180830381865afa1580156110d5573d6000803e3d6000fd5b505050506040513d6000823e3d601f19601f820116820180604052508101906110fe9190613705565b905090565b600082600073ffffffffffffffffffffffffffffffffffffffff168173ffffffffffffffffffffffffffffffffffffffff1603611175576040517f08c379a000000000000000000000000000000000000000000000000000000000815260040161116c906130b5565b60405180910390fd5b60008054906101000a900473ffffffffffffffffffffffffffffffffffffffff1673ffffffffffffffffffffffffffffffffffffffff168173ffffffffffffffffffffffffffffffffffffffff1603611203576040517f08c379a00000000000000000000000000000000000000000000000000000000081526004016111fa90613147565b60405180910390fd5b600160009054906101000a900473ffffffffffffffffffffffffffffffffffffffff1673ffffffffffffffffffffffffffffffffffffffff168173ffffffffffffffffffffffffffffffffffffffff1603611293576040517f08c379a000000000000000000000000000000000000000000000000000000000815260040161128a906131d9565b60405180910390fd5b600260009054906101000a900473ffffffffffffffffffffffffffffffffffffffff1673ffffffffffffffffffffffffffffffffffffffff168173ffffffffffffffffffffffffffffffffffffffff1603611323576040517f08c379a000000000000000000000000000000000000000000000000000000000815260040161131a90613245565b60405180910390fd5b60008054906101000a900473ffffffffffffffffffffffffffffffffffffffff1673ffffffffffffffffffffffffffffffffffffffff16632b04e84085856040518363ffffffff1660e01b815260040161137e92919061346e565b602060405180830381865afa15801561139b573d6000803e3d6000fd5b505050506040513d601f19601f820116820180604052508101906113bf9190613369565b91505092915050565b606082600073ffffffffffffffffffffffffffffffffffffffff168173ffffffffffffffffffffffffffffffffffffffff160361143a576040517f08c379a0000000000000000000000000000000000000000000000000000000008152600401611431906130b5565b60405180910390fd5b60008054906101000a900473ffffffffffffffffffffffffffffffffffffffff1673ffffffffffffffffffffffffffffffffffffffff168173ffffffffffffffffffffffffffffffffffffffff16036114c8576040517f08c379a00000000000000000000000000000000000000000000000000000000081526004016114bf90613147565b60405180910390fd5b600160009054906101000a900473ffffffffffffffffffffffffffffffffffffffff1673ffffffffffffffffffffffffffffffffffffffff168173ffffffffffffffffffffffffffffffffffffffff1603611558576040517f08c379a000000000000000000000000000000000000000000000000000000000815260040161154f906131d9565b60405180910390fd5b600260009054906101000a900473ffffffffffffffffffffffffffffffffffffffff1673ffffffffffffffffffffffffffffffffffffffff168173ffffffffffffffffffffffffffffffffffffffff16036115e8576040517f08c379a00000000000000000000000000000000000000000000000000000000081526004016115df90613245565b60405180910390fd5b60008054906101000a900473ffffffffffffffffffffffffffffffffffffffff1673ffffffffffffffffffffffffffffffffffffffff16636e44cd4285856040518363ffffffff1660e01b815260040161164392919061346e565b600060405180830381865afa158015611660573d6000803e3d6000fd5b505050506040513d6000823e3d601f19601f8201168201806040525081019061168991906135df565b91505092915050565b600083600073ffffffffffffffffffffffffffffffffffffffff168173ffffffffffffffffffffffffffffffffffffffff1603611704576040517f08c379a00000000000000000000000000000000000000000000000000000000081526004016116fb906130b5565b60405180910390fd5b60008054906101000a900473ffffffffffffffffffffffffffffffffffffffff1673ffffffffffffffffffffffffffffffffffffffff168173ffffffffffffffffffffffffffffffffffffffff1603611792576040517f08c379a000000000000000000000000000000000000000000000000000000000815260040161178990613147565b60405180910390fd5b600160009054906101000a900473ffffffffffffffffffffffffffffffffffffffff1673ffffffffffffffffffffffffffffffffffffffff168173ffffffffffffffffffffffffffffffffffffffff1603611822576040517f08c379a0000000000000000000000000000000000000000000000000000000008152600401611819906131d9565b60405180910390fd5b600260009054906101000a900473ffffffffffffffffffffffffffffffffffffffff1673ffffffffffffffffffffffffffffffffffffffff168173ffffffffffffffffffffffffffffffffffffffff16036118b2576040517f08c379a00000000000000000000000000000000000000000000000000000000081526004016118a990613245565b60405180910390fd5b3073ffffffffffffffffffffffffffffffffffffffff1663a5578807866040518263ffffffff1660e01b81526004016118eb9190613274565b602060405180830381865afa158015611908573d6000803e3d6000fd5b505050506040513d601f19601f8201168201806040525081019061192c91906132bb565b61196b576040517f08c379a000000000000000000000000000000000000000000000000000000000815260040161196290613334565b60405180910390fd5b60008054906101000a900473ffffffffffffffffffffffffffffffffffffffff1673ffffffffffffffffffffffffffffffffffffffff166306f22b048686866040518463ffffffff1660e01b81526004016119c89392919061374e565b602060405180830381865afa1580156119e5573d6000803e3d6000fd5b505050506040513d601f19601f82011682018060405250810190611a0991906132bb565b9150509392505050565b81600073ffffffffffffffffffffffffffffffffffffffff168173ffffffffffffffffffffffffffffffffffffffff1603611a83576040517f08c379a0000000000000000000000000000000000000000000000000000000008152600401611a7a906130b5565b60405180910390fd5b60008054906101000a900473ffffffffffffffffffffffffffffffffffffffff1673ffffffffffffffffffffffffffffffffffffffff168173ffffffffffffffffffffffffffffffffffffffff1603611b11576040517f08c379a0000000000000000000000000000000000000000000000000000000008152600401611b0890613147565b60405180910390fd5b600160009054906101000a900473ffffffffffffffffffffffffffffffffffffffff1673ffffffffffffffffffffffffffffffffffffffff168173ffffffffffffffffffffffffffffffffffffffff1603611ba1576040517f08c379a0000000000000000000000000000000000000000000000000000000008152600401611b98906131d9565b60405180910390fd5b600260009054906101000a900473ffffffffffffffffffffffffffffffffffffffff1673ffffffffffffffffffffffffffffffffffffffff168173ffffffffffffffffffffffffffffffffffffffff1603611c31576040517f08c379a0000000000000000000000000000000000000000000000000000000008152600401611c2890613245565b60405180910390fd5b60008211611c74576040517f08c379a0000000000000000000000000000000000000000000000000000000008152600401611c6b906137df565b60405180910390fd5b3073ffffffffffffffffffffffffffffffffffffffff1663a5578807846040518263ffffffff1660e01b8152600401611cad9190613274565b602060405180830381865afa158015611cca573d6000803e3d6000fd5b505050506040513d601f19601f82011682018060405250810190611cee91906132bb565b611d2d576040517f08c379a0000000000000000000000000000000000000000000000000000000008152600401611d249061384b565b60405180910390fd5b60008054906101000a900473ffffffffffffffffffffffffffffffffffffffff1673ffffffffffffffffffffffffffffffffffffffff1663e0b1cccb84846040518363ffffffff1660e01b8152600401611d8892919061346e565b600060405180830381600087803b158015611da257600080fd5b505af1158015611db6573d6000803e3d6000fd5b50505050505050565b60006060806060600086600073ffffffffffffffffffffffffffffffffffffffff168173ffffffffffffffffffffffffffffffffffffffff1603611e38576040517f08c379a0000000000000000000000000000000000000000000000000000000008152600401611e2f906130b5565b60405180910390fd5b60008054906101000a900473ffffffffffffffffffffffffffffffffffffffff1673ffffffffffffffffffffffffffffffffffffffff168173ffffffffffffffffffffffffffffffffffffffff1603611ec6576040517f08c379a0000000000000000000000000000000000000000000000000000000008152600401611ebd90613147565b60405180910390fd5b600160009054906101000a900473ffffffffffffffffffffffffffffffffffffffff1673ffffffffffffffffffffffffffffffffffffffff168173ffffffffffffffffffffffffffffffffffffffff1603611f56576040517f08c379a0000000000000000000000000000000000000000000000000000000008152600401611f4d906131d9565b60405180910390fd5b600260009054906101000a900473ffffffffffffffffffffffffffffffffffffffff1673ffffffffffffffffffffffffffffffffffffffff168173ffffffffffffffffffffffffffffffffffffffff1603611fe6576040517f08c379a0000000000000000000000000000000000000000000000000000000008152600401611fdd90613245565b60405180910390fd5b3073ffffffffffffffffffffffffffffffffffffffff1663a5578807896040518263ffffffff1660e01b815260040161201f9190613274565b602060405180830381865afa15801561203c573d6000803e3d6000fd5b505050506040513d601f19601f8201168201806040525081019061206091906132bb565b61209f576040517f08c379a000000000000000000000000000000000000000000000000000000000815260040161209690613334565b60405180910390fd5b8660008054906101000a900473ffffffffffffffffffffffffffffffffffffffff1673ffffffffffffffffffffffffffffffffffffffff166365f68c898a6040518263ffffffff1660e01b81526004016120f99190613274565b602060405180830381865afa158015612116573d6000803e3d6000fd5b505050506040513d601f19601f8201168201806040525081019061213a9190613369565b1461217a576040517f08c379a0000000000000000000000000000000000000000000000000000000008152600401612171906133e2565b60405180910390fd5b60008054906101000a900473ffffffffffffffffffffffffffffffffffffffff1673ffffffffffffffffffffffffffffffffffffffff16636f77926b896040518263ffffffff1660e01b81526004016121d39190613274565b600060405180830381865afa1580156121f0573d6000803e3d6000fd5b505050506040513d6000823e3d601f19601f82011682018060405250810190612219919061386b565b95509550955095509550509295509295909350565b80600073ffffffffffffffffffffffffffffffffffffffff168173ffffffffffffffffffffffffffffffffffffffff160361229e576040517f08c379a0000000000000000000000000000000000000000000000000000000008152600401612295906130b5565b60405180910390fd5b60008054906101000a900473ffffffffffffffffffffffffffffffffffffffff1673ffffffffffffffffffffffffffffffffffffffff168173ffffffffffffffffffffffffffffffffffffffff160361232c576040517f08c379a000000000000000000000000000000000000000000000000000000000815260040161232390613147565b60405180910390fd5b600160009054906101000a900473ffffffffffffffffffffffffffffffffffffffff1673ffffffffffffffffffffffffffffffffffffffff168173ffffffffffffffffffffffffffffffffffffffff16036123bc576040517f08c379a00000000000000000000000000000000000000000000000000000000081526004016123b3906131d9565b60405180910390fd5b600260009054906101000a900473ffffffffffffffffffffffffffffffffffffffff1673ffffffffffffffffffffffffffffffffffffffff168173ffffffffffffffffffffffffffffffffffffffff160361244c576040517f08c379a000000000000000000000000000000000000000000000000000000000815260040161244390613245565b60405180910390fd5b3073ffffffffffffffffffffffffffffffffffffffff1663a5578807836040518263ffffffff1660e01b81526004016124859190613274565b602060405180830381865afa1580156124a2573d6000803e3d6000fd5b505050506040513d601f19601f820116820180604052508101906124c691906132bb565b15612506576040517f08c379a00000000000000000000000000000000000000000000000000000000081526004016124fd90613986565b60405180910390fd5b60008054906101000a900473ffffffffffffffffffffffffffffffffffffffff1673ffffffffffffffffffffffffffffffffffffffff1663b48ff0f1868686866040518563ffffffff1660e01b815260040161256594939291906139a6565b600060405180830381600087803b15801561257f57600080fd5b505af1158015612593573d6000803e3d6000fd5b50505050600160009054906101000a900473ffffffffffffffffffffffffffffffffffffffff1673ffffffffffffffffffffffffffffffffffffffff1663a2a7e6228360646040518363ffffffff1660e01b81526004016125f5929190613a45565b6020604051808303816000875af1158015612614573d6000803e3d6000fd5b505050506040513d601f19601f8201168201806040525081019061263891906132bb565b612677576040517f08c379a000000000000000000000000000000000000000000000000000000000815260040161266e90613aba565b60405180910390fd5b8173ffffffffffffffffffffffffffffffffffffffff167f660a0234ae184535ca2e96241abb0573b75a93562e2eab6d9f38b2611b8b06ab866040516126bd9190613b4c565b60405180910390a25050505050565b60008060009054906101000a900473ffffffffffffffffffffffffffffffffffffffff1673ffffffffffffffffffffffffffffffffffffffff1663a5578807836040518263ffffffff1660e01b81526004016127289190613274565b602060405180830381865afa158015612745573d6000803e3d6000fd5b505050506040513d601f19601f8201168201806040525081019061276991906132bb565b9050919050565b606082600073ffffffffffffffffffffffffffffffffffffffff168173ffffffffffffffffffffffffffffffffffffffff16036127e2576040517f08c379a00000000000000000000000000000000000000000000000000000000081526004016127d9906130b5565b60405180910390fd5b60008054906101000a900473ffffffffffffffffffffffffffffffffffffffff1673ffffffffffffffffffffffffffffffffffffffff168173ffffffffffffffffffffffffffffffffffffffff1603612870576040517f08c379a000000000000000000000000000000000000000000000000000000000815260040161286790613147565b60405180910390fd5b600160009054906101000a900473ffffffffffffffffffffffffffffffffffffffff1673ffffffffffffffffffffffffffffffffffffffff168173ffffffffffffffffffffffffffffffffffffffff1603612900576040517f08c379a00000000000000000000000000000000000000000000000000000000081526004016128f7906131d9565b60405180910390fd5b600260009054906101000a900473ffffffffffffffffffffffffffffffffffffffff1673ffffffffffffffffffffffffffffffffffffffff168173ffffffffffffffffffffffffffffffffffffffff1603612990576040517f08c379a000000000000000000000000000000000000000000000000000000000815260040161298790613245565b60405180910390fd5b60008054906101000a900473ffffffffffffffffffffffffffffffffffffffff1673ffffffffffffffffffffffffffffffffffffffff1663ecca407385856040518363ffffffff1660e01b81526004016129eb92919061346e565b600060405180830381865afa158015612a08573d6000803e3d6000fd5b505050506040513d6000823e3d601f19601f82011682018060405250810190612a3191906135df565b91505092915050565b6000604051905090565b600080fd5b600080fd5b600073ffffffffffffffffffffffffffffffffffffffff82169050919050565b6000612a7982612a4e565b9050919050565b612a8981612a6e565b8114612a9457600080fd5b50565b600081359050612aa681612a80565b92915050565b6000819050919050565b612abf81612aac565b8114612aca57600080fd5b50565b600081359050612adc81612ab6565b92915050565b60008060408385031215612af957612af8612a44565b5b6000612b0785828601612a97565b9250506020612b1885828601612acd565b9150509250929050565b600060208284031215612b3857612b37612a44565b5b6000612b4684828501612a97565b91505092915050565b612b5881612aac565b82525050565b6000602082019050612b736000830184612b4f565b92915050565b600081519050919050565b600082825260208201905092915050565b60005b83811015612bb3578082015181840152602081019050612b98565b60008484015250505050565b6000601f19601f8301169050919050565b6000612bdb82612b79565b612be58185612b84565b9350612bf5818560208601612b95565b612bfe81612bbf565b840191505092915050565b6000606082019050612c1e6000830186612b4f565b8181036020830152612c308185612bd0565b90508181036040830152612c448184612bd0565b9050949350505050565b600081519050919050565b600082825260208201905092915050565b6000819050602082019050919050565b612c8381612a6e565b82525050565b6000612c958383612c7a565b60208301905092915050565b6000602082019050919050565b6000612cb982612c4e565b612cc38185612c59565b9350612cce83612c6a565b8060005b83811015612cff578151612ce68882612c89565b9750612cf183612ca1565b925050600181019050612cd2565b5085935050505092915050565b60006020820190508181036000830152612d268184612cae565b905092915050565b60006020820190508181036000830152612d488184612bd0565b905092915050565b600080fd5b600080fd5b7f4e487b7100000000000000000000000000000000000000000000000000000000600052604160045260246000fd5b612d9282612bbf565b810181811067ffffffffffffffff82111715612db157612db0612d5a565b5b80604052505050565b6000612dc4612a3a565b9050612dd08282612d89565b919050565b600067ffffffffffffffff821115612df057612def612d5a565b5b612df982612bbf565b9050602081019050919050565b82818337600083830152505050565b6000612e28612e2384612dd5565b612dba565b905082815260208101848484011115612e4457612e43612d55565b5b612e4f848285612e06565b509392505050565b600082601f830112612e6c57612e6b612d50565b5b8135612e7c848260208601612e15565b91505092915050565b600080600060608486031215612e9e57612e9d612a44565b5b6000612eac86828701612a97565b935050602084013567ffffffffffffffff811115612ecd57612ecc612a49565b5b612ed986828701612e57565b925050604084013567ffffffffffffffff811115612efa57612ef9612a49565b5b612f0686828701612e57565b9150509250925092565b60008115159050919050565b612f2581612f10565b82525050565b6000602082019050612f406000830184612f1c565b92915050565b600060a082019050612f5b6000830188612b4f565b8181036020830152612f6d8187612bd0565b90508181036040830152612f818186612bd0565b90508181036060830152612f958185612bd0565b9050612fa46080830184612b4f565b9695505050505050565b60008060008060808587031215612fc857612fc7612a44565b5b600085013567ffffffffffffffff811115612fe657612fe5612a49565b5b612ff287828801612e57565b945050602085013567ffffffffffffffff81111561301357613012612a49565b5b61301f87828801612e57565b935050604085013567ffffffffffffffff8111156130405761303f612a49565b5b61304c87828801612e57565b925050606061305d87828801612a97565b91505092959194509250565b7f41646472657373206973207a65726f0000000000000000000000000000000000600082015250565b600061309f600f83612b84565b91506130aa82613069565b602082019050919050565b600060208201905081810360008301526130ce81613092565b9050919050565b7f4164647265737320697320436f6e73756d657253746f7261676520536d61727460008201527f20436f6e74726163742100000000000000000000000000000000000000000000602082015250565b6000613131602a83612b84565b915061313c826130d5565b604082019050919050565b6000602082019050818103600083015261316081613124565b9050919050565b7f416464726573732069732046696c69657261546f6b656e20536d61727420436f60008201527f6e74726163742100000000000000000000000000000000000000000000000000602082015250565b60006131c3602783612b84565b91506131ce82613167565b604082019050919050565b600060208201905081810360008301526131f2816131b6565b9050919050565b7f4f7267616e697a6174696f6e2061646472657373000000000000000000000000600082015250565b600061322f601483612b84565b915061323a826131f9565b602082019050919050565b6000602082019050818103600083015261325e81613222565b9050919050565b61326e81612a6e565b82525050565b60006020820190506132896000830184613265565b92915050565b61329881612f10565b81146132a357600080fd5b50565b6000815190506132b58161328f565b92915050565b6000602082840312156132d1576132d0612a44565b5b60006132df848285016132a6565b91505092915050565b7f5574656e7465206e6f6e2065272070726573656e746521000000000000000000600082015250565b600061331e601783612b84565b9150613329826132e8565b602082019050919050565b6000602082019050818103600083015261334d81613311565b9050919050565b60008151905061336381612ab6565b92915050565b60006020828403121561337f5761337e612a44565b5b600061338d84828501613354565b91505092915050565b7f5574656e7465206e6f6e204175746f72697a7a61746f21000000000000000000600082015250565b60006133cc601783612b84565b91506133d782613396565b602082019050919050565b600060208201905081810360008301526133fb816133bf565b9050919050565b7f4572726f726520647572616e7465206c612063616e63656c6c617a696f6e6500600082015250565b6000613438601f83612b84565b915061344382613402565b602082019050919050565b600060208201905081810360008301526134678161342b565b9050919050565b60006040820190506134836000830185613265565b6134906020830184612b4f565b9392505050565b7f5574656e746520652720737461746f20656c696d696e61746f21000000000000600082015250565b60006134cd601a83612b84565b91506134d882613497565b602082019050919050565b600060208201905081810360008301526134fc816134c0565b9050919050565b7f55736572206e6f7420666f756e64000000000000000000000000000000000000600082015250565b6000613539600e83612b84565b915061354482613503565b602082019050919050565b600060208201905081810360008301526135688161352c565b9050919050565b600061358261357d84612dd5565b612dba565b90508281526020810184848401111561359e5761359d612d55565b5b6135a9848285612b95565b509392505050565b600082601f8301126135c6576135c5612d50565b5b81516135d684826020860161356f565b91505092915050565b6000602082840312156135f5576135f4612a44565b5b600082015167ffffffffffffffff81111561361357613612612a49565b5b61361f848285016135b1565b91505092915050565b600067ffffffffffffffff82111561364357613642612d5a565b5b602082029050602081019050919050565b600080fd5b60008151905061366881612a80565b92915050565b600061368161367c84613628565b612dba565b905080838252602082019050602084028301858111156136a4576136a3613654565b5b835b818110156136cd57806136b98882613659565b8452602084019350506020810190506136a6565b5050509392505050565b600082601f8301126136ec576136eb612d50565b5b81516136fc84826020860161366e565b91505092915050565b60006020828403121561371b5761371a612a44565b5b600082015167ffffffffffffffff81111561373957613738612a49565b5b613745848285016136d7565b91505092915050565b60006060820190506137636000830186613265565b81810360208301526137758185612bd0565b905081810360408301526137898184612bd0565b9050949350505050565b7f42616c616e6365204e6f742056616c6964000000000000000000000000000000600082015250565b60006137c9601183612b84565b91506137d482613793565b602082019050919050565b600060208201905081810360008301526137f8816137bc565b9050919050565b7f55736572204e6f7420466f756e64210000000000000000000000000000000000600082015250565b6000613835600f83612b84565b9150613840826137ff565b602082019050919050565b6000602082019050818103600083015261386481613828565b9050919050565b600080600080600060a0868803121561388757613886612a44565b5b600061389588828901613354565b955050602086015167ffffffffffffffff8111156138b6576138b5612a49565b5b6138c2888289016135b1565b945050604086015167ffffffffffffffff8111156138e3576138e2612a49565b5b6138ef888289016135b1565b935050606086015167ffffffffffffffff8111156139105761390f612a49565b5b61391c888289016135b1565b925050608061392d88828901613354565b9150509295509295909350565b7f5574656e74652067696127207265676973747261746f20210000000000000000600082015250565b6000613970601883612b84565b915061397b8261393a565b602082019050919050565b6000602082019050818103600083015261399f81613963565b9050919050565b600060808201905081810360008301526139c08187612bd0565b905081810360208301526139d48186612bd0565b905081810360408301526139e88185612bd0565b90506139f76060830184613265565b95945050505050565b6000819050919050565b6000819050919050565b6000613a2f613a2a613a2584613a00565b613a0a565b612aac565b9050919050565b613a3f81613a14565b82525050565b6000604082019050613a5a6000830185613265565b613a676020830184613a36565b9392505050565b7f5472616e7366657220546f6b656e206e6f742056616c69642100000000000000600082015250565b6000613aa4601983612b84565b9150613aaf82613a6e565b602082019050919050565b60006020820190508181036000830152613ad381613a97565b9050919050565b7f5574656e746520436f6e73756d657220652720737461746f207265676973747260008201527f61746f2100000000000000000000000000000000000000000000000000000000602082015250565b6000613b36602483612b84565b9150613b4182613ada565b604082019050919050565b60006040820190508181036000830152613b668184612bd0565b90508181036020830152613b7981613b29565b90509291505056fea26469706673582212206b165151bfa6f8e2921823912837d70857963ac2b0738d7c045dcf6d287676b564736f6c63430008180033",
  "immutableReferences": {},
  "source": "// SPDX-License-Identifier: MIT\r\npragma solidity ^0.8.0;\r\n\r\nimport \"./ConsumerStorage.sol\";\r\nimport \"../../Service/Filieratoken.sol\";\r\n\r\n\r\ncontract ConsumerService {\r\n\r\n//-------------------------------------------------------------------- Contract Address Service --------------------------------------------------------------------//\r\n\r\n\r\n    // Address of Consumer Storage \r\n    ConsumerStorage private consumerStorage;\r\n    \r\n    // Address of Token FT - ERC-20\r\n    Filieratoken private filieraToken;\r\n\r\n    // Address of Organization che gestisce gli utenti\r\n    address private  ConsumerOrg;\r\n\r\n\r\n\r\n// --------------------------------------------------------------------- Event of Service ----------------------------------------------------------------//\r\n\r\n    // Evento emesso al momento della cancellazione di un consumatore\r\n    event ConsumerDeleted(address indexed walletConsumer, string message);\r\n    // Evento emesso al momento della registrazione di un consumatore\r\n    event ConsumerRegistered(address indexed walletConsumer, string fullName, string message);\r\n\r\n\r\n\r\n//---------------------------------------------------------------------- Constructor ----------------------------------------------------------------------------//    \r\n    constructor(address _consumerStorage, address _filieraToken) {\r\n        consumerStorage = ConsumerStorage(_consumerStorage);\r\n        filieraToken = Filieratoken(_filieraToken);\r\n        ConsumerOrg = msg.sender;\r\n    }\r\n\r\n// ------------------------------------------------------------ Modifier Of Service ---------------------------------------------------------------------------------//\r\n\r\n\r\n    modifier onlyOrg(address sender){\r\n        require(sender == ConsumerOrg,\"User Not Authorized!\");\r\n        _;\r\n    }\r\n\r\n    // Verifica chi effettua la transazione : \r\n    // Verfica che l'address non sia l'organizzazione \r\n    // Verfica che l'address non sia lo smart contract del ConsumerStorage e FilieraToken \r\n    modifier checkAddress(address walletConsumer){\r\n\r\n        require(walletConsumer != address(0),\"Address is zero\");\r\n        require(walletConsumer != address(consumerStorage), \"Address is ConsumerStorage Smart Contract!\");\r\n        require(walletConsumer != address(filieraToken), \"Address is FilieraToken Smart Contract!\" );\r\n        require(walletConsumer != ConsumerOrg ,\"Organization address\");\r\n\r\n        _;\r\n    }\r\n\r\n\r\n//--------------------------------------------------------------- Business Logic -------------------------------------------------------------------------------------------//\r\n\r\n    /**\r\n     * registerConsumer() registra gli utenti della piattaforma che sono Consumer \r\n     * - Inserisce i dati all'interno della Blockchain\r\n     * - Trasferisce 100 token dal contratto di FilieraToken \r\n     * - Emette un evento appena l'utente  stato registrato \r\n     *  */ \r\n    function registerConsumer(string memory fullName, string memory password, string memory email, address walletConsumer) external checkAddress(walletConsumer) {\r\n\r\n        // Verifica che l'utente  gia' presente \r\n        require(!(this.isUserPresent(walletConsumer)), \"Utente gia' registrato !\");\r\n\r\n        // Chiama la funzione di Storage \r\n        consumerStorage.addUser(fullName, password, email, walletConsumer);\r\n\r\n        // Autogenera dei token nel balance del Consumer \r\n        require(filieraToken.registerUserWithToken(address(walletConsumer), 100),\"Transfer Token not Valid!\");\r\n\r\n        // Emette l'evento della registrazione dell'utente\r\n        emit ConsumerRegistered(walletConsumer, fullName, \"Utente Consumer e' stato registrato!\");\r\n    }\r\n\r\n    /**\r\n     * login() effettua la Login con email e password \r\n     * - Inserisce l'email e la password \r\n     * - return True se l'utente esiste ed ha accesso con le giuste credenziali \r\n     * - return False altrimenti \r\n     */\r\n    function login(address walletConsumer, string memory email, string memory password) external view checkAddress(walletConsumer)  returns(bool) {\r\n\r\n        // Verifichiamo che l'utente  presente \r\n        require(this.isUserPresent(walletConsumer),\"Utente non e' presente!\");\r\n        \r\n        return consumerStorage.loginUser(walletConsumer, email, password);\r\n    }\r\n\r\n\r\n    /**\r\n     * deleteConsumer() elimina un Consumer all'interno del sistema \r\n     * - Solo l'owner pu effettuare l'eliminazione \r\n     * - msg.sender dovrebbe essere solo quello dell'owner \r\n     */\r\n    function deleteConsumer(address walletConsumer, uint256 _id) external checkAddress(walletConsumer)  {\r\n        \r\n        // Verifico che l'utente  presente \r\n        require(this.isUserPresent(walletConsumer), \"Utente non e' presente!\");\r\n        // Restituisce l'id del Consumer tramite il suo address wallet\r\n        require(consumerStorage.getId(walletConsumer) == _id , \"Utente non Autorizzato!\");\r\n        // Effettuo la cancellazione dell'utente \r\n        require(consumerStorage.deleteUser(walletConsumer), \"Errore durante la cancellazione\");\r\n        // Burn all token ( elimina i token che sono in circolazione, di un utente che non effettua transazioni ) \r\n        filieraToken.burnToken(walletConsumer, filieraToken.balanceOf(walletConsumer));\r\n        // Emit Event on FireFly \r\n        emit ConsumerDeleted(walletConsumer,\"Utente e' stato eliminato!\");\r\n    }\r\n\r\n// --------------------------------------------------------------------------- ConsumerInventoryService ----------------------------------------------------//\r\n\r\n    function isUserPresent(address walletConsumer) external view returns(bool){\r\n        \r\n        return consumerStorage.isUserPresent(walletConsumer);\r\n    }\r\n\r\n\r\n\r\n//----------------------------------------------------------------------------- Get Function ----------------------------------------------------------------------//\r\n\r\n    /**\r\n        -  Funzione getConsumerId() attraverso l'address del Consumer siamo riusciti ad ottenere il suo ID\r\n    */\r\n    function getConsumerId(address walletConsumer) external view checkAddress(walletConsumer)  returns (uint256){\r\n        \r\n        return consumerStorage.getId(walletConsumer);\r\n    }\r\n\r\n    \r\n    /**\r\n        - Funzione getFullName() attraverso l'address del Consumer riusciamo a recuperare il suo FullName\r\n    */\r\n    function getConsumerFullName(address walletConsumer,uint256 _id) external view checkAddress(walletConsumer) returns(string memory){\r\n\r\n        return consumerStorage.getFullName(walletConsumer,_id);\r\n    }\r\n\r\n    /**\r\n        - Funzione getEmail() attraverso l'address del Consumer riusciamo a recuperare la sua Email \r\n    */\r\n    function getConsumerEmail(address walletConsumer, uint256 _id) external view checkAddress(walletConsumer) returns(string memory){\r\n        \r\n        return consumerStorage.getEmail(walletConsumer,_id);\r\n    }\r\n\r\n    /**\r\n        - Funzione getBalance() attraverso l'address del Consumer riusciamo a recuperare il suo Balance\r\n    */\r\n    function getConsumerBalance(address walletConsumer, uint256 _id) external view checkAddress(walletConsumer)  returns(uint256){\r\n\r\n        return consumerStorage.getBalance(walletConsumer,_id);\r\n    }\r\n\r\n    /**\r\n     * getConsumerData() otteniamo i dati del Consumer\r\n     * - tramite l'address del Consumer riusciamo a visualizzare anche i suoi dati\r\n     * - Dati sensibili e visibili solo dal Consumer stesso \r\n     */\r\n    function getConsumerData(address walletConsumer, uint256 _id) external checkAddress(walletConsumer) view returns (uint256, string memory, string memory, string memory, uint256) {\r\n        // Verifico che l'utente  presente \r\n        require(this.isUserPresent(walletConsumer), \"Utente non e' presente!\");\r\n        // Restituisce l'id del Consumer tramite il suo address wallet\r\n        require(consumerStorage.getId(walletConsumer) == _id , \"Utente non Autorizzato!\");\r\n        // Call function of Storage         \r\n        return consumerStorage.getUser(walletConsumer);\r\n    }\r\n\r\n    \r\n    // Funzione per far visualizzare i dati ai vari utenti esterni \r\n    function getConsumerInfo(address walletConsumer) external view checkAddress(walletConsumer) returns (uint256, string memory, string memory) {\r\n        \r\n        // Verifico che l'utente esista\r\n        require(this.isUserPresent(walletConsumer), \"User not found\");\r\n\r\n        uint256 id = consumerStorage.getId(walletConsumer); // Non  necessario, ma viene recuperato per rispettare il controllo in ConsumerStorage\r\n        \r\n        string memory fullName = consumerStorage.getFullName(walletConsumer, id);\r\n        \r\n        string memory email = consumerStorage.getEmail(walletConsumer, id);\r\n\r\n        return (id, fullName, email);\r\n    }\r\n\r\n    function getListAddressConsumer() external view returns ( address [ ] memory){\r\n        return consumerStorage.getListAddress();\r\n    }\r\n\r\n//------------------------------------------------------------ Set Function -------------------------------------------------------------------//\r\n\r\n    // - Funzione updateBalance() attraverso l'address e l'id, riusciamo a settare il nuovo balance\r\n    function updateConsumerBalance(address walletConsumer, uint256 balance) external checkAddress(walletConsumer) {\r\n        // Verifico che il Balance sia >0 \r\n        require(balance>0,\"Balance Not Valid\");\r\n        // Verifico che l'utente esista \r\n        require(this.isUserPresent(walletConsumer),\"User Not Found!\");\r\n        // Update Balance \r\n        consumerStorage.updateBalance(walletConsumer, balance);\r\n    }\r\n\r\n\r\n// ------------------------------------------------------------ Change Address Contract of Service -----------------------------------------------------//\r\n\r\n\r\n    function changeConsumerStorage(address _milkhubStorageNew)private  {\r\n        consumerStorage = ConsumerStorage(_milkhubStorageNew);\r\n    }\r\n\r\n\r\n    function changeFilieraToken(address _filieraToken)private {\r\n        filieraToken = Filieratoken(_filieraToken);\r\n    }\r\n\r\n\r\n}\r\n",
  "sourcePath": "C:\\Users\\umber\\Progetti\\FilieraToken\\Filiera-Token-Smart-Contract\\contracts\\Actor\\Consumer-smart-contract\\ConsumerService.sol",
  "compiler": {
    "name": "solc",
    "version": "0.8.24+commit.e11b9ed9.Emscripten.clang"
  },
  "schemaVersion": "3.4.16",
  "updatedAt": "2024-02-29T10:17:44.443Z",
  "devdoc": {
    "kind": "dev",
    "methods": {},
    "version": 1
  },
  "userdoc": {
    "kind": "user",
    "methods": {
      "deleteConsumer(address,uint256)": {
        "notice": "deleteConsumer() elimina un Consumer all'interno del sistema  - Solo l'owner pu effettuare l'eliminazione  - msg.sender dovrebbe essere solo quello dell'owner "
      },
      "getConsumerBalance(address,uint256)": {
        "notice": "- Funzione getBalance() attraverso l'address del Consumer riusciamo a recuperare il suo Balance"
      },
      "getConsumerData(address,uint256)": {
        "notice": "getConsumerData() otteniamo i dati del Consumer - tramite l'address del Consumer riusciamo a visualizzare anche i suoi dati - Dati sensibili e visibili solo dal Consumer stesso "
      },
      "getConsumerEmail(address,uint256)": {
        "notice": "- Funzione getEmail() attraverso l'address del Consumer riusciamo a recuperare la sua Email "
      },
      "getConsumerFullName(address,uint256)": {
        "notice": "- Funzione getFullName() attraverso l'address del Consumer riusciamo a recuperare il suo FullName"
      },
      "getConsumerId(address)": {
        "notice": "-  Funzione getConsumerId() attraverso l'address del Consumer siamo riusciti ad ottenere il suo ID"
      },
      "login(address,string,string)": {
        "notice": "login() effettua la Login con email e password  - Inserisce l'email e la password  - return True se l'utente esiste ed ha accesso con le giuste credenziali  - return False altrimenti "
      },
      "registerConsumer(string,string,string,address)": {
        "notice": "registerConsumer() registra gli utenti della piattaforma che sono Consumer  - Inserisce i dati all'interno della Blockchain - Trasferisce 100 token dal contratto di FilieraToken  - Emette un evento appena l'utente  stato registrato   "
      }
    },
    "version": 1
  }
}