{
  "contractName": "ConsumerService",
  "abi": [
    {
      "inputs": [
        {
          "internalType": "address",
          "name": "_consumerStorage",
          "type": "address"
        },
        {
          "internalType": "address",
          "name": "_filieraToken",
          "type": "address"
        }
      ],
      "stateMutability": "nonpayable",
      "type": "constructor"
    },
    {
      "anonymous": false,
      "inputs": [
        {
          "indexed": true,
          "internalType": "address",
          "name": "walletConsumer",
          "type": "address"
        },
        {
          "indexed": false,
          "internalType": "string",
          "name": "message",
          "type": "string"
        }
      ],
      "name": "ConsumerDeleted",
      "type": "event"
    },
    {
      "anonymous": false,
      "inputs": [
        {
          "indexed": true,
          "internalType": "address",
          "name": "walletConsumer",
          "type": "address"
        },
        {
          "indexed": false,
          "internalType": "string",
          "name": "fullName",
          "type": "string"
        },
        {
          "indexed": false,
          "internalType": "string",
          "name": "message",
          "type": "string"
        }
      ],
      "name": "ConsumerRegistered",
      "type": "event"
    },
    {
      "inputs": [
        {
          "internalType": "string",
          "name": "fullName",
          "type": "string"
        },
        {
          "internalType": "string",
          "name": "password",
          "type": "string"
        },
        {
          "internalType": "string",
          "name": "email",
          "type": "string"
        },
        {
          "internalType": "address",
          "name": "walletConsumer",
          "type": "address"
        }
      ],
      "name": "registerMilkHub",
      "outputs": [],
      "stateMutability": "nonpayable",
      "type": "function"
    },
    {
      "inputs": [
        {
          "internalType": "address",
          "name": "walletConsumer",
          "type": "address"
        },
        {
          "internalType": "string",
          "name": "email",
          "type": "string"
        },
        {
          "internalType": "string",
          "name": "password",
          "type": "string"
        }
      ],
      "name": "login",
      "outputs": [
        {
          "internalType": "bool",
          "name": "",
          "type": "bool"
        }
      ],
      "stateMutability": "view",
      "type": "function"
    },
    {
      "inputs": [
        {
          "internalType": "address",
          "name": "walletConsumer",
          "type": "address"
        },
        {
          "internalType": "uint256",
          "name": "_id",
          "type": "uint256"
        }
      ],
      "name": "deleteMilkHub",
      "outputs": [],
      "stateMutability": "nonpayable",
      "type": "function"
    },
    {
      "inputs": [
        {
          "internalType": "address",
          "name": "walletConsumer",
          "type": "address"
        }
      ],
      "name": "isUserPresent",
      "outputs": [
        {
          "internalType": "bool",
          "name": "",
          "type": "bool"
        }
      ],
      "stateMutability": "view",
      "type": "function"
    },
    {
      "inputs": [
        {
          "internalType": "address",
          "name": "walletConsumer",
          "type": "address"
        }
      ],
      "name": "getMilkHubId",
      "outputs": [
        {
          "internalType": "uint256",
          "name": "",
          "type": "uint256"
        }
      ],
      "stateMutability": "view",
      "type": "function"
    },
    {
      "inputs": [
        {
          "internalType": "address",
          "name": "walletConsumer",
          "type": "address"
        },
        {
          "internalType": "uint256",
          "name": "_id",
          "type": "uint256"
        }
      ],
      "name": "getMilkHubFullName",
      "outputs": [
        {
          "internalType": "string",
          "name": "",
          "type": "string"
        }
      ],
      "stateMutability": "view",
      "type": "function"
    },
    {
      "inputs": [
        {
          "internalType": "address",
          "name": "walletConsumer",
          "type": "address"
        },
        {
          "internalType": "uint256",
          "name": "_id",
          "type": "uint256"
        }
      ],
      "name": "getMilkHubEmail",
      "outputs": [
        {
          "internalType": "string",
          "name": "",
          "type": "string"
        }
      ],
      "stateMutability": "view",
      "type": "function"
    },
    {
      "inputs": [
        {
          "internalType": "address",
          "name": "walletConsumer",
          "type": "address"
        },
        {
          "internalType": "uint256",
          "name": "_id",
          "type": "uint256"
        }
      ],
      "name": "getMilkHubBalance",
      "outputs": [
        {
          "internalType": "uint256",
          "name": "",
          "type": "uint256"
        }
      ],
      "stateMutability": "view",
      "type": "function"
    },
    {
      "inputs": [
        {
          "internalType": "address",
          "name": "walletConsumer",
          "type": "address"
        },
        {
          "internalType": "uint256",
          "name": "_id",
          "type": "uint256"
        }
      ],
      "name": "getMilkHubData",
      "outputs": [
        {
          "internalType": "uint256",
          "name": "",
          "type": "uint256"
        },
        {
          "internalType": "string",
          "name": "",
          "type": "string"
        },
        {
          "internalType": "string",
          "name": "",
          "type": "string"
        },
        {
          "internalType": "string",
          "name": "",
          "type": "string"
        },
        {
          "internalType": "uint256",
          "name": "",
          "type": "uint256"
        }
      ],
      "stateMutability": "view",
      "type": "function"
    },
    {
      "inputs": [
        {
          "internalType": "address",
          "name": "walletConsumer",
          "type": "address"
        }
      ],
      "name": "getMilkHubInfo",
      "outputs": [
        {
          "internalType": "uint256",
          "name": "",
          "type": "uint256"
        },
        {
          "internalType": "string",
          "name": "",
          "type": "string"
        },
        {
          "internalType": "string",
          "name": "",
          "type": "string"
        }
      ],
      "stateMutability": "view",
      "type": "function"
    },
    {
      "inputs": [],
      "name": "getListAddressMilkHub",
      "outputs": [
        {
          "internalType": "address[]",
          "name": "",
          "type": "address[]"
        }
      ],
      "stateMutability": "view",
      "type": "function"
    },
    {
      "inputs": [
        {
          "internalType": "address",
          "name": "walletConsumer",
          "type": "address"
        },
        {
          "internalType": "uint256",
          "name": "balance",
          "type": "uint256"
        }
      ],
      "name": "updateConsumerBalance",
      "outputs": [],
      "stateMutability": "nonpayable",
      "type": "function"
    }
  ],
  "bytecode": "0x60806040523480156200001157600080fd5b5060405162003d7938038062003d7983398181016040528101906200003791906200016b565b816000806101000a81548173ffffffffffffffffffffffffffffffffffffffff021916908373ffffffffffffffffffffffffffffffffffffffff16021790555080600160006101000a81548173ffffffffffffffffffffffffffffffffffffffff021916908373ffffffffffffffffffffffffffffffffffffffff16021790555033600260006101000a81548173ffffffffffffffffffffffffffffffffffffffff021916908373ffffffffffffffffffffffffffffffffffffffff1602179055505050620001b2565b600080fd5b600073ffffffffffffffffffffffffffffffffffffffff82169050919050565b6000620001338262000106565b9050919050565b620001458162000126565b81146200015157600080fd5b50565b60008151905062000165816200013a565b92915050565b6000806040838503121562000185576200018462000101565b5b6000620001958582860162000154565b9250506020620001a88582860162000154565b9150509250929050565b613bb780620001c26000396000f3fe608060405234801561001057600080fd5b50600436106100b45760003560e01c806353d4f1731161007157806353d4f173146101b757806379329937146101e757806384ebbea014610217578063a557880714610233578063b5d1680514610263578063df9f4dc01461027f576100b4565b806311920cb7146100b957806315ab1dfb146100e95780633c32bd221461011957806343a84e6014610149578063487c29bd146101675780634c4a157a1461019b575b600080fd5b6100d360048036038101906100ce9190612ae2565b6102b1565b6040516100e09190612b31565b60405180910390f35b61010360048036038101906100fe9190612b4c565b610576565b6040516101109190612b31565b60405180910390f35b610133600480360381019061012e9190612ae2565b610838565b6040516101409190612c09565b60405180910390f35b610151610b02565b60405161015e9190612ce9565b60405180910390f35b610181600480360381019061017c9190612ae2565b610b9d565b604051610192959493929190612d0b565b60405180910390f35b6101b560048036038101906101b09190612ae2565b61100c565b005b6101d160048036038101906101cc9190612ae2565b611626565b6040516101de9190612c09565b60405180910390f35b61020160048036038101906101fc9190612ea8565b6118f0565b60405161020e9190612f4e565b60405180910390f35b610231600480360381019061022c9190612ae2565b611c71565b005b61024d60048036038101906102489190612b4c565b61201d565b60405161025a9190612f4e565b60405180910390f35b61027d60048036038101906102789190612f69565b6120c1565b005b61029960048036038101906102949190612b4c565b61255f565b6040516102a893929190613024565b60405180910390f35b600082600073ffffffffffffffffffffffffffffffffffffffff168173ffffffffffffffffffffffffffffffffffffffff1603610323576040517f08c379a000000000000000000000000000000000000000000000000000000000815260040161031a906130b5565b60405180910390fd5b60008054906101000a900473ffffffffffffffffffffffffffffffffffffffff1673ffffffffffffffffffffffffffffffffffffffff168173ffffffffffffffffffffffffffffffffffffffff16036103b1576040517f08c379a00000000000000000000000000000000000000000000000000000000081526004016103a890613147565b60405180910390fd5b600160009054906101000a900473ffffffffffffffffffffffffffffffffffffffff1673ffffffffffffffffffffffffffffffffffffffff168173ffffffffffffffffffffffffffffffffffffffff1603610441576040517f08c379a0000000000000000000000000000000000000000000000000000000008152600401610438906131d9565b60405180910390fd5b600260009054906101000a900473ffffffffffffffffffffffffffffffffffffffff1673ffffffffffffffffffffffffffffffffffffffff168173ffffffffffffffffffffffffffffffffffffffff16036104d1576040517f08c379a00000000000000000000000000000000000000000000000000000000081526004016104c890613245565b60405180910390fd5b60008054906101000a900473ffffffffffffffffffffffffffffffffffffffff1673ffffffffffffffffffffffffffffffffffffffff16632b04e84085856040518363ffffffff1660e01b815260040161052c929190613274565b602060405180830381865afa158015610549573d6000803e3d6000fd5b505050506040513d601f19601f8201168201806040525081019061056d91906132b2565b91505092915050565b600081600073ffffffffffffffffffffffffffffffffffffffff168173ffffffffffffffffffffffffffffffffffffffff16036105e8576040517f08c379a00000000000000000000000000000000000000000000000000000000081526004016105df906130b5565b60405180910390fd5b60008054906101000a900473ffffffffffffffffffffffffffffffffffffffff1673ffffffffffffffffffffffffffffffffffffffff168173ffffffffffffffffffffffffffffffffffffffff1603610676576040517f08c379a000000000000000000000000000000000000000000000000000000000815260040161066d90613147565b60405180910390fd5b600160009054906101000a900473ffffffffffffffffffffffffffffffffffffffff1673ffffffffffffffffffffffffffffffffffffffff168173ffffffffffffffffffffffffffffffffffffffff1603610706576040517f08c379a00000000000000000000000000000000000000000000000000000000081526004016106fd906131d9565b60405180910390fd5b600260009054906101000a900473ffffffffffffffffffffffffffffffffffffffff1673ffffffffffffffffffffffffffffffffffffffff168173ffffffffffffffffffffffffffffffffffffffff1603610796576040517f08c379a000000000000000000000000000000000000000000000000000000000815260040161078d90613245565b60405180910390fd5b60008054906101000a900473ffffffffffffffffffffffffffffffffffffffff1673ffffffffffffffffffffffffffffffffffffffff166365f68c89846040518263ffffffff1660e01b81526004016107ef91906132df565b602060405180830381865afa15801561080c573d6000803e3d6000fd5b505050506040513d601f19601f8201168201806040525081019061083091906132b2565b915050919050565b606082600073ffffffffffffffffffffffffffffffffffffffff168173ffffffffffffffffffffffffffffffffffffffff16036108aa576040517f08c379a00000000000000000000000000000000000000000000000000000000081526004016108a1906130b5565b60405180910390fd5b60008054906101000a900473ffffffffffffffffffffffffffffffffffffffff1673ffffffffffffffffffffffffffffffffffffffff168173ffffffffffffffffffffffffffffffffffffffff1603610938576040517f08c379a000000000000000000000000000000000000000000000000000000000815260040161092f90613147565b60405180910390fd5b600160009054906101000a900473ffffffffffffffffffffffffffffffffffffffff1673ffffffffffffffffffffffffffffffffffffffff168173ffffffffffffffffffffffffffffffffffffffff16036109c8576040517f08c379a00000000000000000000000000000000000000000000000000000000081526004016109bf906131d9565b60405180910390fd5b600260009054906101000a900473ffffffffffffffffffffffffffffffffffffffff1673ffffffffffffffffffffffffffffffffffffffff168173ffffffffffffffffffffffffffffffffffffffff1603610a58576040517f08c379a0000000000000000000000000000000000000000000000000000000008152600401610a4f90613245565b60405180910390fd5b60008054906101000a900473ffffffffffffffffffffffffffffffffffffffff1673ffffffffffffffffffffffffffffffffffffffff16636e44cd4285856040518363ffffffff1660e01b8152600401610ab3929190613274565b600060405180830381865afa158015610ad0573d6000803e3d6000fd5b505050506040513d6000823e3d601f19601f82011682018060405250810190610af9919061336a565b91505092915050565b606060008054906101000a900473ffffffffffffffffffffffffffffffffffffffff1673ffffffffffffffffffffffffffffffffffffffff16633b5aff126040518163ffffffff1660e01b8152600401600060405180830381865afa158015610b6f573d6000803e3d6000fd5b505050506040513d6000823e3d601f19601f82011682018060405250810190610b989190613490565b905090565b60006060806060600086600073ffffffffffffffffffffffffffffffffffffffff168173ffffffffffffffffffffffffffffffffffffffff1603610c16576040517f08c379a0000000000000000000000000000000000000000000000000000000008152600401610c0d906130b5565b60405180910390fd5b60008054906101000a900473ffffffffffffffffffffffffffffffffffffffff1673ffffffffffffffffffffffffffffffffffffffff168173ffffffffffffffffffffffffffffffffffffffff1603610ca4576040517f08c379a0000000000000000000000000000000000000000000000000000000008152600401610c9b90613147565b60405180910390fd5b600160009054906101000a900473ffffffffffffffffffffffffffffffffffffffff1673ffffffffffffffffffffffffffffffffffffffff168173ffffffffffffffffffffffffffffffffffffffff1603610d34576040517f08c379a0000000000000000000000000000000000000000000000000000000008152600401610d2b906131d9565b60405180910390fd5b600260009054906101000a900473ffffffffffffffffffffffffffffffffffffffff1673ffffffffffffffffffffffffffffffffffffffff168173ffffffffffffffffffffffffffffffffffffffff1603610dc4576040517f08c379a0000000000000000000000000000000000000000000000000000000008152600401610dbb90613245565b60405180910390fd5b3073ffffffffffffffffffffffffffffffffffffffff1663a5578807896040518263ffffffff1660e01b8152600401610dfd91906132df565b602060405180830381865afa158015610e1a573d6000803e3d6000fd5b505050506040513d601f19601f82011682018060405250810190610e3e9190613505565b610e7d576040517f08c379a0000000000000000000000000000000000000000000000000000000008152600401610e749061357e565b60405180910390fd5b8660008054906101000a900473ffffffffffffffffffffffffffffffffffffffff1673ffffffffffffffffffffffffffffffffffffffff166365f68c898a6040518263ffffffff1660e01b8152600401610ed791906132df565b602060405180830381865afa158015610ef4573d6000803e3d6000fd5b505050506040513d601f19601f82011682018060405250810190610f1891906132b2565b14610f58576040517f08c379a0000000000000000000000000000000000000000000000000000000008152600401610f4f906135ea565b60405180910390fd5b60008054906101000a900473ffffffffffffffffffffffffffffffffffffffff1673ffffffffffffffffffffffffffffffffffffffff16636f77926b896040518263ffffffff1660e01b8152600401610fb191906132df565b600060405180830381865afa158015610fce573d6000803e3d6000fd5b505050506040513d6000823e3d601f19601f82011682018060405250810190610ff7919061360a565b95509550955095509550509295509295909350565b81600073ffffffffffffffffffffffffffffffffffffffff168173ffffffffffffffffffffffffffffffffffffffff160361107c576040517f08c379a0000000000000000000000000000000000000000000000000000000008152600401611073906130b5565b60405180910390fd5b60008054906101000a900473ffffffffffffffffffffffffffffffffffffffff1673ffffffffffffffffffffffffffffffffffffffff168173ffffffffffffffffffffffffffffffffffffffff160361110a576040517f08c379a000000000000000000000000000000000000000000000000000000000815260040161110190613147565b60405180910390fd5b600160009054906101000a900473ffffffffffffffffffffffffffffffffffffffff1673ffffffffffffffffffffffffffffffffffffffff168173ffffffffffffffffffffffffffffffffffffffff160361119a576040517f08c379a0000000000000000000000000000000000000000000000000000000008152600401611191906131d9565b60405180910390fd5b600260009054906101000a900473ffffffffffffffffffffffffffffffffffffffff1673ffffffffffffffffffffffffffffffffffffffff168173ffffffffffffffffffffffffffffffffffffffff160361122a576040517f08c379a000000000000000000000000000000000000000000000000000000000815260040161122190613245565b60405180910390fd5b3073ffffffffffffffffffffffffffffffffffffffff1663a5578807846040518263ffffffff1660e01b815260040161126391906132df565b602060405180830381865afa158015611280573d6000803e3d6000fd5b505050506040513d601f19601f820116820180604052508101906112a49190613505565b6112e3576040517f08c379a00000000000000000000000000000000000000000000000000000000081526004016112da9061357e565b60405180910390fd5b8160008054906101000a900473ffffffffffffffffffffffffffffffffffffffff1673ffffffffffffffffffffffffffffffffffffffff166365f68c89856040518263ffffffff1660e01b815260040161133d91906132df565b602060405180830381865afa15801561135a573d6000803e3d6000fd5b505050506040513d601f19601f8201168201806040525081019061137e91906132b2565b146113be576040517f08c379a00000000000000000000000000000000000000000000000000000000081526004016113b5906135ea565b60405180910390fd5b60008054906101000a900473ffffffffffffffffffffffffffffffffffffffff1673ffffffffffffffffffffffffffffffffffffffff16635c60f226846040518263ffffffff1660e01b815260040161141791906132df565b6020604051808303816000875af1158015611436573d6000803e3d6000fd5b505050506040513d601f19601f8201168201806040525081019061145a9190613505565b611499576040517f08c379a000000000000000000000000000000000000000000000000000000000815260040161149090613725565b60405180910390fd5b600160009054906101000a900473ffffffffffffffffffffffffffffffffffffffff1673ffffffffffffffffffffffffffffffffffffffff1663d1df306c84600160009054906101000a900473ffffffffffffffffffffffffffffffffffffffff1673ffffffffffffffffffffffffffffffffffffffff166370a08231876040518263ffffffff1660e01b815260040161153391906132df565b602060405180830381865afa158015611550573d6000803e3d6000fd5b505050506040513d601f19601f8201168201806040525081019061157491906132b2565b6040518363ffffffff1660e01b8152600401611591929190613274565b6020604051808303816000875af11580156115b0573d6000803e3d6000fd5b505050506040513d601f19601f820116820180604052508101906115d49190613505565b508273ffffffffffffffffffffffffffffffffffffffff167fc4a15e7b7c469b2570cb39a05c0ac17b9bb6450c0f6b53c4ea88dbb1c02aeee260405161161990613791565b60405180910390a2505050565b606082600073ffffffffffffffffffffffffffffffffffffffff168173ffffffffffffffffffffffffffffffffffffffff1603611698576040517f08c379a000000000000000000000000000000000000000000000000000000000815260040161168f906130b5565b60405180910390fd5b60008054906101000a900473ffffffffffffffffffffffffffffffffffffffff1673ffffffffffffffffffffffffffffffffffffffff168173ffffffffffffffffffffffffffffffffffffffff1603611726576040517f08c379a000000000000000000000000000000000000000000000000000000000815260040161171d90613147565b60405180910390fd5b600160009054906101000a900473ffffffffffffffffffffffffffffffffffffffff1673ffffffffffffffffffffffffffffffffffffffff168173ffffffffffffffffffffffffffffffffffffffff16036117b6576040517f08c379a00000000000000000000000000000000000000000000000000000000081526004016117ad906131d9565b60405180910390fd5b600260009054906101000a900473ffffffffffffffffffffffffffffffffffffffff1673ffffffffffffffffffffffffffffffffffffffff168173ffffffffffffffffffffffffffffffffffffffff1603611846576040517f08c379a000000000000000000000000000000000000000000000000000000000815260040161183d90613245565b60405180910390fd5b60008054906101000a900473ffffffffffffffffffffffffffffffffffffffff1673ffffffffffffffffffffffffffffffffffffffff1663ecca407385856040518363ffffffff1660e01b81526004016118a1929190613274565b600060405180830381865afa1580156118be573d6000803e3d6000fd5b505050506040513d6000823e3d601f19601f820116820180604052508101906118e7919061336a565b91505092915050565b600083600073ffffffffffffffffffffffffffffffffffffffff168173ffffffffffffffffffffffffffffffffffffffff1603611962576040517f08c379a0000000000000000000000000000000000000000000000000000000008152600401611959906130b5565b60405180910390fd5b60008054906101000a900473ffffffffffffffffffffffffffffffffffffffff1673ffffffffffffffffffffffffffffffffffffffff168173ffffffffffffffffffffffffffffffffffffffff16036119f0576040517f08c379a00000000000000000000000000000000000000000000000000000000081526004016119e790613147565b60405180910390fd5b600160009054906101000a900473ffffffffffffffffffffffffffffffffffffffff1673ffffffffffffffffffffffffffffffffffffffff168173ffffffffffffffffffffffffffffffffffffffff1603611a80576040517f08c379a0000000000000000000000000000000000000000000000000000000008152600401611a77906131d9565b60405180910390fd5b600260009054906101000a900473ffffffffffffffffffffffffffffffffffffffff1673ffffffffffffffffffffffffffffffffffffffff168173ffffffffffffffffffffffffffffffffffffffff1603611b10576040517f08c379a0000000000000000000000000000000000000000000000000000000008152600401611b0790613245565b60405180910390fd5b3073ffffffffffffffffffffffffffffffffffffffff1663a5578807866040518263ffffffff1660e01b8152600401611b4991906132df565b602060405180830381865afa158015611b66573d6000803e3d6000fd5b505050506040513d601f19601f82011682018060405250810190611b8a9190613505565b611bc9576040517f08c379a0000000000000000000000000000000000000000000000000000000008152600401611bc09061357e565b60405180910390fd5b60008054906101000a900473ffffffffffffffffffffffffffffffffffffffff1673ffffffffffffffffffffffffffffffffffffffff166306f22b048686866040518463ffffffff1660e01b8152600401611c26939291906137b1565b602060405180830381865afa158015611c43573d6000803e3d6000fd5b505050506040513d601f19601f82011682018060405250810190611c679190613505565b9150509392505050565b81600073ffffffffffffffffffffffffffffffffffffffff168173ffffffffffffffffffffffffffffffffffffffff1603611ce1576040517f08c379a0000000000000000000000000000000000000000000000000000000008152600401611cd8906130b5565b60405180910390fd5b60008054906101000a900473ffffffffffffffffffffffffffffffffffffffff1673ffffffffffffffffffffffffffffffffffffffff168173ffffffffffffffffffffffffffffffffffffffff1603611d6f576040517f08c379a0000000000000000000000000000000000000000000000000000000008152600401611d6690613147565b60405180910390fd5b600160009054906101000a900473ffffffffffffffffffffffffffffffffffffffff1673ffffffffffffffffffffffffffffffffffffffff168173ffffffffffffffffffffffffffffffffffffffff1603611dff576040517f08c379a0000000000000000000000000000000000000000000000000000000008152600401611df6906131d9565b60405180910390fd5b600260009054906101000a900473ffffffffffffffffffffffffffffffffffffffff1673ffffffffffffffffffffffffffffffffffffffff168173ffffffffffffffffffffffffffffffffffffffff1603611e8f576040517f08c379a0000000000000000000000000000000000000000000000000000000008152600401611e8690613245565b60405180910390fd5b60008211611ed2576040517f08c379a0000000000000000000000000000000000000000000000000000000008152600401611ec990613842565b60405180910390fd5b3073ffffffffffffffffffffffffffffffffffffffff1663a5578807846040518263ffffffff1660e01b8152600401611f0b91906132df565b602060405180830381865afa158015611f28573d6000803e3d6000fd5b505050506040513d601f19601f82011682018060405250810190611f4c9190613505565b611f8b576040517f08c379a0000000000000000000000000000000000000000000000000000000008152600401611f82906138ae565b60405180910390fd5b60008054906101000a900473ffffffffffffffffffffffffffffffffffffffff1673ffffffffffffffffffffffffffffffffffffffff1663e0b1cccb84846040518363ffffffff1660e01b8152600401611fe6929190613274565b600060405180830381600087803b15801561200057600080fd5b505af1158015612014573d6000803e3d6000fd5b50505050505050565b60008060009054906101000a900473ffffffffffffffffffffffffffffffffffffffff1673ffffffffffffffffffffffffffffffffffffffff1663a5578807836040518263ffffffff1660e01b815260040161207991906132df565b602060405180830381865afa158015612096573d6000803e3d6000fd5b505050506040513d601f19601f820116820180604052508101906120ba9190613505565b9050919050565b80600073ffffffffffffffffffffffffffffffffffffffff168173ffffffffffffffffffffffffffffffffffffffff1603612131576040517f08c379a0000000000000000000000000000000000000000000000000000000008152600401612128906130b5565b60405180910390fd5b60008054906101000a900473ffffffffffffffffffffffffffffffffffffffff1673ffffffffffffffffffffffffffffffffffffffff168173ffffffffffffffffffffffffffffffffffffffff16036121bf576040517f08c379a00000000000000000000000000000000000000000000000000000000081526004016121b690613147565b60405180910390fd5b600160009054906101000a900473ffffffffffffffffffffffffffffffffffffffff1673ffffffffffffffffffffffffffffffffffffffff168173ffffffffffffffffffffffffffffffffffffffff160361224f576040517f08c379a0000000000000000000000000000000000000000000000000000000008152600401612246906131d9565b60405180910390fd5b600260009054906101000a900473ffffffffffffffffffffffffffffffffffffffff1673ffffffffffffffffffffffffffffffffffffffff168173ffffffffffffffffffffffffffffffffffffffff16036122df576040517f08c379a00000000000000000000000000000000000000000000000000000000081526004016122d690613245565b60405180910390fd5b3073ffffffffffffffffffffffffffffffffffffffff1663a5578807836040518263ffffffff1660e01b815260040161231891906132df565b602060405180830381865afa158015612335573d6000803e3d6000fd5b505050506040513d601f19601f820116820180604052508101906123599190613505565b15612399576040517f08c379a00000000000000000000000000000000000000000000000000000000081526004016123909061391a565b60405180910390fd5b60008054906101000a900473ffffffffffffffffffffffffffffffffffffffff1673ffffffffffffffffffffffffffffffffffffffff1663b48ff0f1868686866040518563ffffffff1660e01b81526004016123f8949392919061393a565b600060405180830381600087803b15801561241257600080fd5b505af1158015612426573d6000803e3d6000fd5b50505050600160009054906101000a900473ffffffffffffffffffffffffffffffffffffffff1673ffffffffffffffffffffffffffffffffffffffff1663a2a7e6228360646040518363ffffffff1660e01b81526004016124889291906139d9565b6020604051808303816000875af11580156124a7573d6000803e3d6000fd5b505050506040513d601f19601f820116820180604052508101906124cb9190613505565b61250a576040517f08c379a000000000000000000000000000000000000000000000000000000000815260040161250190613a4e565b60405180910390fd5b8173ffffffffffffffffffffffffffffffffffffffff167f660a0234ae184535ca2e96241abb0573b75a93562e2eab6d9f38b2611b8b06ab866040516125509190613ae0565b60405180910390a25050505050565b600060608083600073ffffffffffffffffffffffffffffffffffffffff168173ffffffffffffffffffffffffffffffffffffffff16036125d4576040517f08c379a00000000000000000000000000000000000000000000000000000000081526004016125cb906130b5565b60405180910390fd5b60008054906101000a900473ffffffffffffffffffffffffffffffffffffffff1673ffffffffffffffffffffffffffffffffffffffff168173ffffffffffffffffffffffffffffffffffffffff1603612662576040517f08c379a000000000000000000000000000000000000000000000000000000000815260040161265990613147565b60405180910390fd5b600160009054906101000a900473ffffffffffffffffffffffffffffffffffffffff1673ffffffffffffffffffffffffffffffffffffffff168173ffffffffffffffffffffffffffffffffffffffff16036126f2576040517f08c379a00000000000000000000000000000000000000000000000000000000081526004016126e9906131d9565b60405180910390fd5b600260009054906101000a900473ffffffffffffffffffffffffffffffffffffffff1673ffffffffffffffffffffffffffffffffffffffff168173ffffffffffffffffffffffffffffffffffffffff1603612782576040517f08c379a000000000000000000000000000000000000000000000000000000000815260040161277990613245565b60405180910390fd5b3073ffffffffffffffffffffffffffffffffffffffff1663a5578807866040518263ffffffff1660e01b81526004016127bb91906132df565b602060405180830381865afa1580156127d8573d6000803e3d6000fd5b505050506040513d601f19601f820116820180604052508101906127fc9190613505565b61283b576040517f08c379a000000000000000000000000000000000000000000000000000000000815260040161283290613b61565b60405180910390fd5b60008060009054906101000a900473ffffffffffffffffffffffffffffffffffffffff1673ffffffffffffffffffffffffffffffffffffffff166365f68c89876040518263ffffffff1660e01b815260040161289791906132df565b602060405180830381865afa1580156128b4573d6000803e3d6000fd5b505050506040513d601f19601f820116820180604052508101906128d891906132b2565b905060008060009054906101000a900473ffffffffffffffffffffffffffffffffffffffff1673ffffffffffffffffffffffffffffffffffffffff16636e44cd4288846040518363ffffffff1660e01b8152600401612938929190613274565b600060405180830381865afa158015612955573d6000803e3d6000fd5b505050506040513d6000823e3d601f19601f8201168201806040525081019061297e919061336a565b905060008060009054906101000a900473ffffffffffffffffffffffffffffffffffffffff1673ffffffffffffffffffffffffffffffffffffffff1663ecca407389856040518363ffffffff1660e01b81526004016129de929190613274565b600060405180830381865afa1580156129fb573d6000803e3d6000fd5b505050506040513d6000823e3d601f19601f82011682018060405250810190612a24919061336a565b9050828282965096509650505050509193909250565b6000604051905090565b600080fd5b600080fd5b600073ffffffffffffffffffffffffffffffffffffffff82169050919050565b6000612a7982612a4e565b9050919050565b612a8981612a6e565b8114612a9457600080fd5b50565b600081359050612aa681612a80565b92915050565b6000819050919050565b612abf81612aac565b8114612aca57600080fd5b50565b600081359050612adc81612ab6565b92915050565b60008060408385031215612af957612af8612a44565b5b6000612b0785828601612a97565b9250506020612b1885828601612acd565b9150509250929050565b612b2b81612aac565b82525050565b6000602082019050612b466000830184612b22565b92915050565b600060208284031215612b6257612b61612a44565b5b6000612b7084828501612a97565b91505092915050565b600081519050919050565b600082825260208201905092915050565b60005b83811015612bb3578082015181840152602081019050612b98565b60008484015250505050565b6000601f19601f8301169050919050565b6000612bdb82612b79565b612be58185612b84565b9350612bf5818560208601612b95565b612bfe81612bbf565b840191505092915050565b60006020820190508181036000830152612c238184612bd0565b905092915050565b600081519050919050565b600082825260208201905092915050565b6000819050602082019050919050565b612c6081612a6e565b82525050565b6000612c728383612c57565b60208301905092915050565b6000602082019050919050565b6000612c9682612c2b565b612ca08185612c36565b9350612cab83612c47565b8060005b83811015612cdc578151612cc38882612c66565b9750612cce83612c7e565b925050600181019050612caf565b5085935050505092915050565b60006020820190508181036000830152612d038184612c8b565b905092915050565b600060a082019050612d206000830188612b22565b8181036020830152612d328187612bd0565b90508181036040830152612d468186612bd0565b90508181036060830152612d5a8185612bd0565b9050612d696080830184612b22565b9695505050505050565b600080fd5b600080fd5b7f4e487b7100000000000000000000000000000000000000000000000000000000600052604160045260246000fd5b612db582612bbf565b810181811067ffffffffffffffff82111715612dd457612dd3612d7d565b5b80604052505050565b6000612de7612a3a565b9050612df38282612dac565b919050565b600067ffffffffffffffff821115612e1357612e12612d7d565b5b612e1c82612bbf565b9050602081019050919050565b82818337600083830152505050565b6000612e4b612e4684612df8565b612ddd565b905082815260208101848484011115612e6757612e66612d78565b5b612e72848285612e29565b509392505050565b600082601f830112612e8f57612e8e612d73565b5b8135612e9f848260208601612e38565b91505092915050565b600080600060608486031215612ec157612ec0612a44565b5b6000612ecf86828701612a97565b935050602084013567ffffffffffffffff811115612ef057612eef612a49565b5b612efc86828701612e7a565b925050604084013567ffffffffffffffff811115612f1d57612f1c612a49565b5b612f2986828701612e7a565b9150509250925092565b60008115159050919050565b612f4881612f33565b82525050565b6000602082019050612f636000830184612f3f565b92915050565b60008060008060808587031215612f8357612f82612a44565b5b600085013567ffffffffffffffff811115612fa157612fa0612a49565b5b612fad87828801612e7a565b945050602085013567ffffffffffffffff811115612fce57612fcd612a49565b5b612fda87828801612e7a565b935050604085013567ffffffffffffffff811115612ffb57612ffa612a49565b5b61300787828801612e7a565b925050606061301887828801612a97565b91505092959194509250565b60006060820190506130396000830186612b22565b818103602083015261304b8185612bd0565b9050818103604083015261305f8184612bd0565b9050949350505050565b7f41646472657373206973207a65726f0000000000000000000000000000000000600082015250565b600061309f600f83612b84565b91506130aa82613069565b602082019050919050565b600060208201905081810360008301526130ce81613092565b9050919050565b7f4164647265737320697320436f6e73756d657253746f7261676520536d61727460008201527f20436f6e74726163742100000000000000000000000000000000000000000000602082015250565b6000613131602a83612b84565b915061313c826130d5565b604082019050919050565b6000602082019050818103600083015261316081613124565b9050919050565b7f416464726573732069732046696c69657261546f6b656e20536d61727420436f60008201527f6e74726163742100000000000000000000000000000000000000000000000000602082015250565b60006131c3602783612b84565b91506131ce82613167565b604082019050919050565b600060208201905081810360008301526131f2816131b6565b9050919050565b7f4f7267616e697a6174696f6e2061646472657373000000000000000000000000600082015250565b600061322f601483612b84565b915061323a826131f9565b602082019050919050565b6000602082019050818103600083015261325e81613222565b9050919050565b61326e81612a6e565b82525050565b60006040820190506132896000830185613265565b6132966020830184612b22565b9392505050565b6000815190506132ac81612ab6565b92915050565b6000602082840312156132c8576132c7612a44565b5b60006132d68482850161329d565b91505092915050565b60006020820190506132f46000830184613265565b92915050565b600061330d61330884612df8565b612ddd565b90508281526020810184848401111561332957613328612d78565b5b613334848285612b95565b509392505050565b600082601f83011261335157613350612d73565b5b81516133618482602086016132fa565b91505092915050565b6000602082840312156133805761337f612a44565b5b600082015167ffffffffffffffff81111561339e5761339d612a49565b5b6133aa8482850161333c565b91505092915050565b600067ffffffffffffffff8211156133ce576133cd612d7d565b5b602082029050602081019050919050565b600080fd5b6000815190506133f381612a80565b92915050565b600061340c613407846133b3565b612ddd565b9050808382526020820190506020840283018581111561342f5761342e6133df565b5b835b81811015613458578061344488826133e4565b845260208401935050602081019050613431565b5050509392505050565b600082601f83011261347757613476612d73565b5b81516134878482602086016133f9565b91505092915050565b6000602082840312156134a6576134a5612a44565b5b600082015167ffffffffffffffff8111156134c4576134c3612a49565b5b6134d084828501613462565b91505092915050565b6134e281612f33565b81146134ed57600080fd5b50565b6000815190506134ff816134d9565b92915050565b60006020828403121561351b5761351a612a44565b5b6000613529848285016134f0565b91505092915050565b7f5574656e7465206e6f6e2065272070726573656e746521000000000000000000600082015250565b6000613568601783612b84565b915061357382613532565b602082019050919050565b600060208201905081810360008301526135978161355b565b9050919050565b7f5574656e7465206e6f6e204175746f72697a7a61746f21000000000000000000600082015250565b60006135d4601783612b84565b91506135df8261359e565b602082019050919050565b60006020820190508181036000830152613603816135c7565b9050919050565b600080600080600060a0868803121561362657613625612a44565b5b60006136348882890161329d565b955050602086015167ffffffffffffffff81111561365557613654612a49565b5b6136618882890161333c565b945050604086015167ffffffffffffffff81111561368257613681612a49565b5b61368e8882890161333c565b935050606086015167ffffffffffffffff8111156136af576136ae612a49565b5b6136bb8882890161333c565b92505060806136cc8882890161329d565b9150509295509295909350565b7f4572726f726520647572616e7465206c612063616e63656c6c617a696f6e6500600082015250565b600061370f601f83612b84565b915061371a826136d9565b602082019050919050565b6000602082019050818103600083015261373e81613702565b9050919050565b7f5574656e746520652720737461746f20656c696d696e61746f21000000000000600082015250565b600061377b601a83612b84565b915061378682613745565b602082019050919050565b600060208201905081810360008301526137aa8161376e565b9050919050565b60006060820190506137c66000830186613265565b81810360208301526137d88185612bd0565b905081810360408301526137ec8184612bd0565b9050949350505050565b7f42616c616e6365204e6f742056616c6964000000000000000000000000000000600082015250565b600061382c601183612b84565b9150613837826137f6565b602082019050919050565b6000602082019050818103600083015261385b8161381f565b9050919050565b7f55736572204e6f7420466f756e64210000000000000000000000000000000000600082015250565b6000613898600f83612b84565b91506138a382613862565b602082019050919050565b600060208201905081810360008301526138c78161388b565b9050919050565b7f5574656e74652067696127207265676973747261746f20210000000000000000600082015250565b6000613904601883612b84565b915061390f826138ce565b602082019050919050565b60006020820190508181036000830152613933816138f7565b9050919050565b600060808201905081810360008301526139548187612bd0565b905081810360208301526139688186612bd0565b9050818103604083015261397c8185612bd0565b905061398b6060830184613265565b95945050505050565b6000819050919050565b6000819050919050565b60006139c36139be6139b984613994565b61399e565b612aac565b9050919050565b6139d3816139a8565b82525050565b60006040820190506139ee6000830185613265565b6139fb60208301846139ca565b9392505050565b7f5472616e7366657220546f6b656e206e6f742056616c69642100000000000000600082015250565b6000613a38601983612b84565b9150613a4382613a02565b602082019050919050565b60006020820190508181036000830152613a6781613a2b565b9050919050565b7f5574656e746520436f6e73756d657220652720737461746f207265676973747260008201527f61746f2100000000000000000000000000000000000000000000000000000000602082015250565b6000613aca602483612b84565b9150613ad582613a6e565b604082019050919050565b60006040820190508181036000830152613afa8184612bd0565b90508181036020830152613b0d81613abd565b905092915050565b7f55736572206e6f7420666f756e64000000000000000000000000000000000000600082015250565b6000613b4b600e83612b84565b9150613b5682613b15565b602082019050919050565b60006020820190508181036000830152613b7a81613b3e565b905091905056fea2646970667358221220e66a5db9484312967e2cf533cca353c68f757fb2a8a5cedee7bdcea7fe1746ce64736f6c63430008180033",
  "immutableReferences": {},
  "source": "// SPDX-License-Identifier: MIT\r\npragma solidity ^0.8.0;\r\n\r\nimport \"./ConsumerStorage.sol\";\r\nimport \"../../Service/Filieratoken.sol\";\r\n\r\n\r\ncontract ConsumerService {\r\n\r\n//-------------------------------------------------------------------- Contract Address Service --------------------------------------------------------------------//\r\n\r\n\r\n    // Address of Consumer Storage \r\n    ConsumerStorage private consumerStorage;\r\n    \r\n    // Address of Token FT - ERC-20\r\n    Filieratoken private filieraToken;\r\n\r\n    // Address of Organization che gestisce gli utenti\r\n    address private  ConsumerOrg;\r\n\r\n\r\n\r\n// --------------------------------------------------------------------- Event of Service ----------------------------------------------------------------//\r\n\r\n    // Evento emesso al momento della cancellazione di un consumatore\r\n    event ConsumerDeleted(address indexed walletConsumer, string message);\r\n    // Evento emesso al momento della registrazione di un consumatore\r\n    event ConsumerRegistered(address indexed walletConsumer, string fullName, string message);\r\n\r\n\r\n\r\n//---------------------------------------------------------------------- Constructor ----------------------------------------------------------------------------//    \r\n    constructor(address _consumerStorage, address _filieraToken) {\r\n        consumerStorage = ConsumerStorage(_consumerStorage);\r\n        filieraToken = Filieratoken(_filieraToken);\r\n        ConsumerOrg = msg.sender;\r\n    }\r\n\r\n// ------------------------------------------------------------ Modifier Of Service ---------------------------------------------------------------------------------//\r\n\r\n\r\n    modifier onlyOrg(address sender){\r\n        require(sender == ConsumerOrg,\"User Not Authorized!\");\r\n        _;\r\n    }\r\n\r\n    // Verifica chi effettua la transazione : \r\n    // Verfica che l'address non sia l'organizzazione \r\n    // Verfica che l'address non sia lo smart contract del ConsumerStorage e FilieraToken \r\n    modifier checkAddress(address walletConsumer){\r\n\r\n        require(walletConsumer != address(0),\"Address is zero\");\r\n        require(walletConsumer != address(consumerStorage), \"Address is ConsumerStorage Smart Contract!\");\r\n        require(walletConsumer != address(filieraToken), \"Address is FilieraToken Smart Contract!\" );\r\n        require(walletConsumer != ConsumerOrg ,\"Organization address\");\r\n\r\n        _;\r\n    }\r\n\r\n\r\n//--------------------------------------------------------------- Business Logic -------------------------------------------------------------------------------------------//\r\n\r\n    /**\r\n     * registerMilkHub() registra gli utenti della piattaforma che sono Consumer \r\n     * - Inserisce i dati all'interno della Blockchain\r\n     * - Trasferisce 100 token dal contratto di FilieraToken \r\n     * - Emette un evento appena l'utente  stato registrato \r\n     *  */ \r\n    function registerMilkHub(string memory fullName, string memory password, string memory email, address walletConsumer) external checkAddress(walletConsumer) {\r\n\r\n        // Verifica che l'utente  gia' presente \r\n        require(!(this.isUserPresent(walletConsumer)), \"Utente gia' registrato !\");\r\n\r\n        // Chiama la funzione di Storage \r\n        consumerStorage.addUser(fullName, password, email, walletConsumer);\r\n\r\n        // Autogenera dei token nel balance del Consumer \r\n        require(filieraToken.registerUserWithToken(address(walletConsumer), 100),\"Transfer Token not Valid!\");\r\n\r\n        // Emette l'evento della registrazione dell'utente\r\n        emit ConsumerRegistered(walletConsumer, fullName, \"Utente Consumer e' stato registrato!\");\r\n    }\r\n\r\n    /**\r\n     * login() effettua la Login con email e password \r\n     * - Inserisce l'email e la password \r\n     * - return True se l'utente esiste ed ha accesso con le giuste credenziali \r\n     * - return False altrimenti \r\n     */\r\n    function login(address walletConsumer, string memory email, string memory password) external view checkAddress(walletConsumer)  returns(bool) {\r\n\r\n        // Verifichiamo che l'utente  presente \r\n        require(this.isUserPresent(walletConsumer),\"Utente non e' presente!\");\r\n        \r\n        return consumerStorage.loginUser(walletConsumer, email, password);\r\n    }\r\n\r\n\r\n    /**\r\n     * deleteMilkHub() elimina un Consumer all'interno del sistema \r\n     * - Solo l'owner pu effettuare l'eliminazione \r\n     * - msg.sender dovrebbe essere solo quello dell'owner \r\n     */\r\n    function deleteMilkHub(address walletConsumer, uint256 _id) external checkAddress(walletConsumer)  {\r\n        \r\n        // Verifico che l'utente  presente \r\n        require(this.isUserPresent(walletConsumer), \"Utente non e' presente!\");\r\n        // Restituisce l'id del Consumer tramite il suo address wallet\r\n        require(consumerStorage.getId(walletConsumer) == _id , \"Utente non Autorizzato!\");\r\n        // Effettuo la cancellazione dell'utente \r\n        require(consumerStorage.deleteUser(walletConsumer), \"Errore durante la cancellazione\");\r\n        // Burn all token ( elimina i token che sono in circolazione, di un utente che non effettua transazioni ) \r\n        filieraToken.burnToken(walletConsumer, filieraToken.balanceOf(walletConsumer));\r\n        // Emit Event on FireFly \r\n        emit ConsumerDeleted(walletConsumer,\"Utente e' stato eliminato!\");\r\n    }\r\n\r\n// --------------------------------------------------------------------------- MilkHubInventoryService ----------------------------------------------------//\r\n\r\n    function isUserPresent(address walletConsumer) external view returns(bool){\r\n        \r\n        return consumerStorage.isUserPresent(walletConsumer);\r\n    }\r\n\r\n\r\n\r\n//----------------------------------------------------------------------------- Get Function ----------------------------------------------------------------------//\r\n\r\n    /**\r\n        -  Funzione getMilkHubId() attraverso l'address del Consumer siamo riusciti ad ottenere il suo ID\r\n    */\r\n    function getMilkHubId(address walletConsumer) external view checkAddress(walletConsumer)  returns (uint256){\r\n        \r\n        return consumerStorage.getId(walletConsumer);\r\n    }\r\n\r\n    \r\n    /**\r\n        - Funzione getFullName() attraverso l'address del Consumer riusciamo a recuperare il suo FullName\r\n    */\r\n    function getMilkHubFullName(address walletConsumer,uint256 _id) external view checkAddress(walletConsumer) returns(string memory){\r\n\r\n        return consumerStorage.getFullName(walletConsumer,_id);\r\n    }\r\n\r\n    /**\r\n        - Funzione getEmail() attraverso l'address del Consumer riusciamo a recuperare la sua Email \r\n    */\r\n    function getMilkHubEmail(address walletConsumer, uint256 _id) external view checkAddress(walletConsumer) returns(string memory){\r\n        \r\n        return consumerStorage.getEmail(walletConsumer,_id);\r\n    }\r\n\r\n    /**\r\n        - Funzione getBalance() attraverso l'address del Consumer riusciamo a recuperare il suo Balance\r\n    */\r\n    function getMilkHubBalance(address walletConsumer, uint256 _id) external view checkAddress(walletConsumer)  returns(uint256){\r\n\r\n        return consumerStorage.getBalance(walletConsumer,_id);\r\n    }\r\n\r\n    /**\r\n     * getMilkHubData() otteniamo i dati del Consumer\r\n     * - tramite l'address del Consumer riusciamo a visualizzare anche i suoi dati\r\n     * - Dati sensibili e visibili solo dal Consumer stesso \r\n     */\r\n    function getMilkHubData(address walletConsumer, uint256 _id) external checkAddress(walletConsumer) view returns (uint256, string memory, string memory, string memory, uint256) {\r\n        // Verifico che l'utente  presente \r\n        require(this.isUserPresent(walletConsumer), \"Utente non e' presente!\");\r\n        // Restituisce l'id del Consumer tramite il suo address wallet\r\n        require(consumerStorage.getId(walletConsumer) == _id , \"Utente non Autorizzato!\");\r\n        // Call function of Storage         \r\n        return consumerStorage.getUser(walletConsumer);\r\n    }\r\n\r\n    \r\n    // Funzione per far visualizzare i dati ai vari utenti esterni \r\n    function getMilkHubInfo(address walletConsumer) external view checkAddress(walletConsumer) returns (uint256, string memory, string memory) {\r\n        \r\n        // Verifico che l'utente esista\r\n        require(this.isUserPresent(walletConsumer), \"User not found\");\r\n\r\n        uint256 id = consumerStorage.getId(walletConsumer); // Non  necessario, ma viene recuperato per rispettare il controllo in ConsumerStorage\r\n        \r\n        string memory fullName = consumerStorage.getFullName(walletConsumer, id);\r\n        \r\n        string memory email = consumerStorage.getEmail(walletConsumer, id);\r\n\r\n        return (id, fullName, email);\r\n    }\r\n\r\n    function getListAddressMilkHub() external view returns ( address [ ] memory){\r\n        return consumerStorage.getListAddress();\r\n    }\r\n\r\n//------------------------------------------------------------ Set Function -------------------------------------------------------------------//\r\n\r\n    // - Funzione updateBalance() attraverso l'address e l'id, riusciamo a settare il nuovo balance\r\n    function updateConsumerBalance(address walletConsumer, uint256 balance) external checkAddress(walletConsumer) {\r\n        // Verifico che il Balance sia >0 \r\n        require(balance>0,\"Balance Not Valid\");\r\n        // Verifico che l'utente esista \r\n        require(this.isUserPresent(walletConsumer),\"User Not Found!\");\r\n        // Update Balance \r\n        consumerStorage.updateBalance(walletConsumer, balance);\r\n    }\r\n\r\n\r\n// ------------------------------------------------------------ Change Address Contract of Service -----------------------------------------------------//\r\n\r\n\r\n    function changeMilkHubStorage(address _milkhubStorageNew)private  {\r\n        consumerStorage = ConsumerStorage(_milkhubStorageNew);\r\n    }\r\n\r\n\r\n    function changeFilieraToken(address _filieraToken)private {\r\n        filieraToken = Filieratoken(_filieraToken);\r\n    }\r\n\r\n\r\n}\r\n",
  "sourcePath": "C:\\Users\\umber\\Progetti\\FilieraToken\\Filiera-Token-Smart-Contract\\contracts\\Actor\\Consumer-smart-contract\\ConsumerService.sol",
  "compiler": {
    "name": "solc",
    "version": "0.8.24+commit.e11b9ed9.Emscripten.clang"
  },
  "schemaVersion": "3.4.16",
  "updatedAt": "2024-02-28T11:39:54.147Z",
  "devdoc": {
    "kind": "dev",
    "methods": {},
    "version": 1
  },
  "userdoc": {
    "kind": "user",
    "methods": {
      "deleteMilkHub(address,uint256)": {
        "notice": "deleteMilkHub() elimina un Consumer all'interno del sistema  - Solo l'owner pu effettuare l'eliminazione  - msg.sender dovrebbe essere solo quello dell'owner "
      },
      "getMilkHubBalance(address,uint256)": {
        "notice": "- Funzione getBalance() attraverso l'address del Consumer riusciamo a recuperare il suo Balance"
      },
      "getMilkHubData(address,uint256)": {
        "notice": "getMilkHubData() otteniamo i dati del Consumer - tramite l'address del Consumer riusciamo a visualizzare anche i suoi dati - Dati sensibili e visibili solo dal Consumer stesso "
      },
      "getMilkHubEmail(address,uint256)": {
        "notice": "- Funzione getEmail() attraverso l'address del Consumer riusciamo a recuperare la sua Email "
      },
      "getMilkHubFullName(address,uint256)": {
        "notice": "- Funzione getFullName() attraverso l'address del Consumer riusciamo a recuperare il suo FullName"
      },
      "getMilkHubId(address)": {
        "notice": "-  Funzione getMilkHubId() attraverso l'address del Consumer siamo riusciti ad ottenere il suo ID"
      },
      "login(address,string,string)": {
        "notice": "login() effettua la Login con email e password  - Inserisce l'email e la password  - return True se l'utente esiste ed ha accesso con le giuste credenziali  - return False altrimenti "
      },
      "registerMilkHub(string,string,string,address)": {
        "notice": "registerMilkHub() registra gli utenti della piattaforma che sono Consumer  - Inserisce i dati all'interno della Blockchain - Trasferisce 100 token dal contratto di FilieraToken  - Emette un evento appena l'utente  stato registrato   "
      }
    },
    "version": 1
  }
}