{
  "contractName": "ConsumerBuyerStorage",
  "abi": [
    {
      "inputs": [],
      "stateMutability": "nonpayable",
      "type": "constructor"
    },
    {
      "inputs": [
        {
          "internalType": "address",
          "name": "walletConsumerBuyer",
          "type": "address"
        },
        {
          "internalType": "address",
          "name": "walletRetailer",
          "type": "address"
        },
        {
          "internalType": "uint256",
          "name": "id",
          "type": "uint256"
        },
        {
          "internalType": "uint256",
          "name": "price",
          "type": "uint256"
        },
        {
          "internalType": "uint256",
          "name": "weight",
          "type": "uint256"
        }
      ],
      "name": "addCheesePiece",
      "outputs": [
        {
          "internalType": "uint256",
          "name": "",
          "type": "uint256"
        },
        {
          "internalType": "uint256",
          "name": "",
          "type": "uint256"
        },
        {
          "internalType": "uint256",
          "name": "",
          "type": "uint256"
        }
      ],
      "stateMutability": "nonpayable",
      "type": "function"
    },
    {
      "inputs": [
        {
          "internalType": "address",
          "name": "walletConsumerBuyer",
          "type": "address"
        },
        {
          "internalType": "uint256",
          "name": "idCheesePiece",
          "type": "uint256"
        }
      ],
      "name": "getCheesePiece",
      "outputs": [
        {
          "internalType": "uint256",
          "name": "",
          "type": "uint256"
        },
        {
          "internalType": "address",
          "name": "",
          "type": "address"
        },
        {
          "internalType": "uint256",
          "name": "",
          "type": "uint256"
        },
        {
          "internalType": "uint256",
          "name": "",
          "type": "uint256"
        }
      ],
      "stateMutability": "view",
      "type": "function"
    },
    {
      "inputs": [
        {
          "internalType": "address",
          "name": "walletConsumerBuyer",
          "type": "address"
        },
        {
          "internalType": "uint256",
          "name": "idCheesePiece",
          "type": "uint256"
        }
      ],
      "name": "isCheesePiecePresent",
      "outputs": [
        {
          "internalType": "bool",
          "name": "",
          "type": "bool"
        }
      ],
      "stateMutability": "view",
      "type": "function"
    },
    {
      "inputs": [
        {
          "internalType": "address",
          "name": "walletConsumerBuyer",
          "type": "address"
        },
        {
          "internalType": "uint256",
          "name": "id",
          "type": "uint256"
        }
      ],
      "name": "getWeight",
      "outputs": [
        {
          "internalType": "uint256",
          "name": "",
          "type": "uint256"
        }
      ],
      "stateMutability": "view",
      "type": "function"
    },
    {
      "inputs": [
        {
          "internalType": "address",
          "name": "walletConsumerBuyer",
          "type": "address"
        },
        {
          "internalType": "uint256",
          "name": "id",
          "type": "uint256"
        }
      ],
      "name": "getPrice",
      "outputs": [
        {
          "internalType": "uint256",
          "name": "",
          "type": "uint256"
        }
      ],
      "stateMutability": "view",
      "type": "function"
    },
    {
      "inputs": [
        {
          "internalType": "address",
          "name": "walletConsumerBuyer",
          "type": "address"
        },
        {
          "internalType": "uint256",
          "name": "id",
          "type": "uint256"
        }
      ],
      "name": "getWalletRetailer",
      "outputs": [
        {
          "internalType": "address",
          "name": "",
          "type": "address"
        }
      ],
      "stateMutability": "view",
      "type": "function"
    },
    {
      "inputs": [
        {
          "internalType": "address",
          "name": "walletConsumer",
          "type": "address"
        }
      ],
      "name": "getUserCheesePieceIds",
      "outputs": [
        {
          "internalType": "uint256[]",
          "name": "",
          "type": "uint256[]"
        }
      ],
      "stateMutability": "view",
      "type": "function"
    }
  ],
  "bytecode": "0x608060405234801561001057600080fd5b50336000806101000a81548173ffffffffffffffffffffffffffffffffffffffff021916908373ffffffffffffffffffffffffffffffffffffffff160217905550610ce6806100606000396000f3fe608060405234801561001057600080fd5b506004361061007d5760003560e01c80639bc7c21c1161005b5780639bc7c21c14610117578063ab801b9b14610147578063afd47d3e14610177578063d7f9aee5146101a75761007d565b80630b7aa47314610082578063210744cf146100b5578063449e815d146100e7575b600080fd5b61009c600480360381019061009791906108f9565b6101d7565b6040516100ac9493929190610957565b60405180910390f35b6100cf60048036038101906100ca919061099c565b6102d6565b6040516100de93929190610a17565b60405180910390f35b61010160048036038101906100fc91906108f9565b6105de565b60405161010e9190610a4e565b60405180910390f35b610131600480360381019061012c91906108f9565b61063c565b60405161013e9190610a84565b60405180910390f35b610161600480360381019061015c9190610a9f565b6106ed565b60405161016e9190610b8a565b60405180910390f35b610191600480360381019061018c91906108f9565b610784565b60405161019e9190610a4e565b60405180910390f35b6101c160048036038101906101bc91906108f9565b6107e2565b6040516101ce9190610bac565b60405180910390f35b6000806000806000600160008873ffffffffffffffffffffffffffffffffffffffff1673ffffffffffffffffffffffffffffffffffffffff1681526020019081526020016000206000878152602001908152602001600020604051806080016040529081600082015481526020016001820160009054906101000a900473ffffffffffffffffffffffffffffffffffffffff1673ffffffffffffffffffffffffffffffffffffffff1673ffffffffffffffffffffffffffffffffffffffff168152602001600282015481526020016003820154815250509050806000015181602001518260400151836060015194509450945094505092959194509250565b600080600080600160008a73ffffffffffffffffffffffffffffffffffffffff1673ffffffffffffffffffffffffffffffffffffffff168152602001908152602001600020600088815260200190815260200160002090506000816000015414610375576040517f08c379a000000000000000000000000000000000000000000000000000000000815260040161036c90610c24565b60405180910390fd5b600060405180608001604052808981526020018a73ffffffffffffffffffffffffffffffffffffffff16815260200188815260200187815250905080600160008c73ffffffffffffffffffffffffffffffffffffffff1673ffffffffffffffffffffffffffffffffffffffff16815260200190815260200160002060008a81526020019081526020016000206000820151816000015560208201518160010160006101000a81548173ffffffffffffffffffffffffffffffffffffffff021916908373ffffffffffffffffffffffffffffffffffffffff1602179055506040820151816002015560608201518160030155905050600260008b73ffffffffffffffffffffffffffffffffffffffff1673ffffffffffffffffffffffffffffffffffffffff168152602001908152602001600020889080600181540180825580915050600190039060005260206000200160009091909190915055600160008b73ffffffffffffffffffffffffffffffffffffffff1673ffffffffffffffffffffffffffffffffffffffff168152602001908152602001600020600089815260200190815260200160002060000154600160008c73ffffffffffffffffffffffffffffffffffffffff1673ffffffffffffffffffffffffffffffffffffffff16815260200190815260200160002060008a815260200190815260200160002060020154600160008d73ffffffffffffffffffffffffffffffffffffffff1673ffffffffffffffffffffffffffffffffffffffff16815260200190815260200160002060008b8152602001908152602001600020600301549450945094505050955095509592505050565b6000600160008473ffffffffffffffffffffffffffffffffffffffff1673ffffffffffffffffffffffffffffffffffffffff168152602001908152602001600020600083815260200190815260200160002060020154905092915050565b600080821415801561064e5750600082115b61068d576040517f08c379a000000000000000000000000000000000000000000000000000000000815260040161068490610c90565b60405180910390fd5b6000600160008573ffffffffffffffffffffffffffffffffffffffff1673ffffffffffffffffffffffffffffffffffffffff1681526020019081526020016000206000848152602001908152602001600020600001541415905092915050565b6060600260008373ffffffffffffffffffffffffffffffffffffffff1673ffffffffffffffffffffffffffffffffffffffff16815260200190815260200160002080548060200260200160405190810160405280929190818152602001828054801561077857602002820191906000526020600020905b815481526020019060010190808311610764575b50505050509050919050565b6000600160008473ffffffffffffffffffffffffffffffffffffffff1673ffffffffffffffffffffffffffffffffffffffff168152602001908152602001600020600083815260200190815260200160002060030154905092915050565b6000600160008473ffffffffffffffffffffffffffffffffffffffff1673ffffffffffffffffffffffffffffffffffffffff168152602001908152602001600020600083815260200190815260200160002060010160009054906101000a900473ffffffffffffffffffffffffffffffffffffffff16905092915050565b600080fd5b600073ffffffffffffffffffffffffffffffffffffffff82169050919050565b600061089082610865565b9050919050565b6108a081610885565b81146108ab57600080fd5b50565b6000813590506108bd81610897565b92915050565b6000819050919050565b6108d6816108c3565b81146108e157600080fd5b50565b6000813590506108f3816108cd565b92915050565b600080604083850312156109105761090f610860565b5b600061091e858286016108ae565b925050602061092f858286016108e4565b9150509250929050565b610942816108c3565b82525050565b61095181610885565b82525050565b600060808201905061096c6000830187610939565b6109796020830186610948565b6109866040830185610939565b6109936060830184610939565b95945050505050565b600080600080600060a086880312156109b8576109b7610860565b5b60006109c6888289016108ae565b95505060206109d7888289016108ae565b94505060406109e8888289016108e4565b93505060606109f9888289016108e4565b9250506080610a0a888289016108e4565b9150509295509295909350565b6000606082019050610a2c6000830186610939565b610a396020830185610939565b610a466040830184610939565b949350505050565b6000602082019050610a636000830184610939565b92915050565b60008115159050919050565b610a7e81610a69565b82525050565b6000602082019050610a996000830184610a75565b92915050565b600060208284031215610ab557610ab4610860565b5b6000610ac3848285016108ae565b91505092915050565b600081519050919050565b600082825260208201905092915050565b6000819050602082019050919050565b610b01816108c3565b82525050565b6000610b138383610af8565b60208301905092915050565b6000602082019050919050565b6000610b3782610acc565b610b418185610ad7565b9350610b4c83610ae8565b8060005b83811015610b7d578151610b648882610b07565b9750610b6f83610b1f565b925050600181019050610b50565b5085935050505092915050565b60006020820190508181036000830152610ba48184610b2c565b905092915050565b6000602082019050610bc16000830184610948565b92915050565b600082825260208201905092915050565b7f436865657365506965636520676961272070726573656e746521000000000000600082015250565b6000610c0e601a83610bc7565b9150610c1982610bd8565b602082019050919050565b60006020820190508181036000830152610c3d81610c01565b9050919050565b7f4944204368656573655069656365204e6f742056616c69642100000000000000600082015250565b6000610c7a601983610bc7565b9150610c8582610c44565b602082019050919050565b60006020820190508181036000830152610ca981610c6d565b905091905056fea26469706673582212207e9bcf3235b10e5287fd1e0c37f120e6c7d4afd7458a9d71e1f32c9658cc933d64736f6c63430008180033",
  "immutableReferences": {},
  "source": "// SPDX-License-Identifier: MIT\n\npragma solidity ^0.8.0;\n\n// Smart Contract per lo storage dei MilkHub acquistati dai ConsumerBuyer\ncontract ConsumerBuyerStorage {\n\n    // Address of Organization che gestisce gli utenti\n    address private consumerBuyerOrg;\n\n    constructor() {\n        consumerBuyerOrg = msg.sender;\n    }\n\n    struct CheesePiece {\n        uint256 id; // Generato nuovo per il ConsumerBuyer\n        address walletRetailer; // Address del Wallet del Retailer\n        uint256 price;\n        uint256 weight;\n    }\n\n    mapping(address => mapping(uint256 => CheesePiece)) private purchasedCheesePieces; // Map of Alla CheesePiece Buyed \n\n    mapping(address => uint256[]) private userCheesePieceIds;\n\n\n\n    //--------------------------------------------------------------- Business Logic Service -----------------------------------------------------------------------------------------//\n\n    function addCheesePiece(\n        address walletConsumerBuyer,\n        address walletRetailer, // Riferimento al wallet del Retailer\n        uint256 id,\n        uint256 price,\n        uint256 weight\n    ) external returns (uint256, uint256, uint256) {\n\n        CheesePiece storage cheesePieceControl = purchasedCheesePieces[walletConsumerBuyer][id];\n\n        require(cheesePieceControl.id == 0, \"CheesePiece gia' presente!\");\n\n        // Crea un nuovo CheesePiece\n        CheesePiece memory cheesePiece = CheesePiece({\n            id: id,\n            walletRetailer: walletRetailer,\n            price: price,\n            weight: weight\n        });\n\n        // Inserisce il nuovo CheesePiece nella lista purchasedCheesePieces\n        purchasedCheesePieces[walletConsumerBuyer][id] = cheesePiece;\n\n        //Inserisci l'id all'interno della Lista\n        userCheesePieceIds[walletConsumerBuyer].push(id);\n\n        return (\n            purchasedCheesePieces[walletConsumerBuyer][id].id,\n            purchasedCheesePieces[walletConsumerBuyer][id].price,\n            purchasedCheesePieces[walletConsumerBuyer][id].weight\n            );\n    }\n\n    function getCheesePiece(address walletConsumerBuyer, uint256 idCheesePiece) external view returns (uint256, address, uint256, uint256) {\n        CheesePiece memory cheesePiece = purchasedCheesePieces[walletConsumerBuyer][idCheesePiece];\n\n        \n        return (cheesePiece.id, cheesePiece.walletRetailer, cheesePiece.price, cheesePiece.weight);\n    }\n\n    function isCheesePiecePresent(address walletConsumerBuyer, uint256 idCheesePiece) external view returns(bool) {\n        require(idCheesePiece != 0 && idCheesePiece > 0, \"ID CheesePiece Not Valid!\");\n        \n        return purchasedCheesePieces[walletConsumerBuyer][idCheesePiece].id != 0;\n    }\n\n    function getWeight(address walletConsumerBuyer, uint256 id) external view returns (uint256) {\n        return purchasedCheesePieces[walletConsumerBuyer][id].weight;\n    }\n\n    function getPrice(address walletConsumerBuyer, uint256 id) external view returns (uint256) {\n        return purchasedCheesePieces[walletConsumerBuyer][id].price;\n    }\n\n    function getWalletRetailer(address walletConsumerBuyer, uint256 id) external view returns (address) {\n        return purchasedCheesePieces[walletConsumerBuyer][id].walletRetailer;\n\n    }\n    \n    /*\n    * Restituisce la Lista di tutti gli ID dei prodotti di un determinato utente\n    */\n    function getUserCheesePieceIds(address walletConsumer)external view returns (uint256[] memory){\n        return userCheesePieceIds[walletConsumer];\n    }\n}\n",
  "sourcePath": "/home/leone-pc/Documenti/GitHub/FilieraToken/Filiera-Token-Smart-Contract/contracts/Actor/Consumer-smart-contract/inventory/ConsumerBuyerStorage.sol",
  "compiler": {
    "name": "solc",
    "version": "0.8.24+commit.e11b9ed9.Emscripten.clang"
  },
  "schemaVersion": "3.4.16",
  "updatedAt": "2024-03-03T20:08:02.083Z",
  "devdoc": {
    "kind": "dev",
    "methods": {},
    "version": 1
  },
  "userdoc": {
    "kind": "user",
    "methods": {},
    "version": 1
  }
}