{
  "contractName": "ConsumerBuyerService",
  "abi": [
    {
      "inputs": [
        {
          "internalType": "address",
          "name": "_consumerBuyerStorage",
          "type": "address"
        },
        {
          "internalType": "address",
          "name": "_consumerService",
          "type": "address"
        }
      ],
      "stateMutability": "nonpayable",
      "type": "constructor"
    },
    {
      "anonymous": false,
      "inputs": [
        {
          "indexed": true,
          "internalType": "address",
          "name": "userAddress",
          "type": "address"
        },
        {
          "indexed": false,
          "internalType": "string",
          "name": "message",
          "type": "string"
        },
        {
          "indexed": false,
          "internalType": "uint256",
          "name": "id",
          "type": "uint256"
        },
        {
          "indexed": false,
          "internalType": "uint256",
          "name": "price",
          "type": "uint256"
        },
        {
          "indexed": false,
          "internalType": "uint256",
          "name": "quantity",
          "type": "uint256"
        }
      ],
      "name": "ConsumerBuyerCheesePieceAdded",
      "type": "event"
    },
    {
      "anonymous": false,
      "inputs": [
        {
          "indexed": true,
          "internalType": "address",
          "name": "userAddress",
          "type": "address"
        },
        {
          "indexed": false,
          "internalType": "string",
          "name": "message",
          "type": "string"
        }
      ],
      "name": "ConsumerBuyerCheesePieceDeleted",
      "type": "event"
    },
    {
      "anonymous": false,
      "inputs": [
        {
          "indexed": true,
          "internalType": "address",
          "name": "userAddress",
          "type": "address"
        },
        {
          "indexed": false,
          "internalType": "string",
          "name": "message",
          "type": "string"
        },
        {
          "indexed": false,
          "internalType": "uint256",
          "name": "quantity",
          "type": "uint256"
        }
      ],
      "name": "ConsumerBuyerCheesePieceEdited",
      "type": "event"
    },
    {
      "inputs": [
        {
          "internalType": "address",
          "name": "walletRetailer",
          "type": "address"
        },
        {
          "internalType": "address",
          "name": "walletConsumer",
          "type": "address"
        },
        {
          "internalType": "uint256",
          "name": "idCheesePiece",
          "type": "uint256"
        },
        {
          "internalType": "uint256",
          "name": "price",
          "type": "uint256"
        },
        {
          "internalType": "uint256",
          "name": "weight",
          "type": "uint256"
        }
      ],
      "name": "addCheesePiece",
      "outputs": [],
      "stateMutability": "nonpayable",
      "type": "function"
    },
    {
      "inputs": [
        {
          "internalType": "uint256",
          "name": "idCheesePiece",
          "type": "uint256"
        }
      ],
      "name": "getCheesePiece",
      "outputs": [
        {
          "internalType": "uint256",
          "name": "",
          "type": "uint256"
        },
        {
          "internalType": "address",
          "name": "",
          "type": "address"
        },
        {
          "internalType": "uint256",
          "name": "",
          "type": "uint256"
        },
        {
          "internalType": "uint256",
          "name": "",
          "type": "uint256"
        }
      ],
      "stateMutability": "view",
      "type": "function"
    },
    {
      "inputs": [
        {
          "internalType": "address",
          "name": "walletConsumer",
          "type": "address"
        },
        {
          "internalType": "uint256",
          "name": "idCheesePiece",
          "type": "uint256"
        }
      ],
      "name": "getPrice",
      "outputs": [
        {
          "internalType": "uint256",
          "name": "",
          "type": "uint256"
        }
      ],
      "stateMutability": "view",
      "type": "function"
    },
    {
      "inputs": [
        {
          "internalType": "address",
          "name": "walletConsumer",
          "type": "address"
        },
        {
          "internalType": "uint256",
          "name": "idCheesePiece",
          "type": "uint256"
        }
      ],
      "name": "getWeight",
      "outputs": [
        {
          "internalType": "uint256",
          "name": "",
          "type": "uint256"
        }
      ],
      "stateMutability": "view",
      "type": "function"
    },
    {
      "inputs": [
        {
          "internalType": "address",
          "name": "walletConsumer",
          "type": "address"
        },
        {
          "internalType": "uint256",
          "name": "idCheesePiece",
          "type": "uint256"
        }
      ],
      "name": "getWalletRetailer",
      "outputs": [
        {
          "internalType": "address",
          "name": "",
          "type": "address"
        }
      ],
      "stateMutability": "view",
      "type": "function"
    },
    {
      "inputs": [
        {
          "internalType": "address",
          "name": "walletConsumer",
          "type": "address"
        },
        {
          "internalType": "uint256",
          "name": "idCheesePiece",
          "type": "uint256"
        }
      ],
      "name": "isCheesePiecePresent",
      "outputs": [
        {
          "internalType": "bool",
          "name": "",
          "type": "bool"
        }
      ],
      "stateMutability": "view",
      "type": "function"
    },
    {
      "inputs": [
        {
          "internalType": "address",
          "name": "walletConsumer",
          "type": "address"
        }
      ],
      "name": "getUserCheesePieceIds",
      "outputs": [
        {
          "internalType": "uint256[]",
          "name": "",
          "type": "uint256[]"
        }
      ],
      "stateMutability": "view",
      "type": "function"
    },
    {
      "inputs": [
        {
          "internalType": "address",
          "name": "_consumerBuyerStorage",
          "type": "address"
        }
      ],
      "name": "changeConsumerBuyerCheesePieceStorage",
      "outputs": [],
      "stateMutability": "nonpayable",
      "type": "function"
    },
    {
      "inputs": [
        {
          "internalType": "address",
          "name": "_consumerService",
          "type": "address"
        }
      ],
      "name": "changeConsumerBuyerService",
      "outputs": [],
      "stateMutability": "nonpayable",
      "type": "function"
    }
  ],
  "bytecode": "0x60806040523480156200001157600080fd5b50604051620030a2380380620030a283398181016040528101906200003791906200016b565b81600160006101000a81548173ffffffffffffffffffffffffffffffffffffffff021916908373ffffffffffffffffffffffffffffffffffffffff16021790555080600260006101000a81548173ffffffffffffffffffffffffffffffffffffffff021916908373ffffffffffffffffffffffffffffffffffffffff160217905550336000806101000a81548173ffffffffffffffffffffffffffffffffffffffff021916908373ffffffffffffffffffffffffffffffffffffffff1602179055505050620001b2565b600080fd5b600073ffffffffffffffffffffffffffffffffffffffff82169050919050565b6000620001338262000106565b9050919050565b620001458162000126565b81146200015157600080fd5b50565b60008151905062000165816200013a565b92915050565b6000806040838503121562000185576200018462000101565b5b6000620001958582860162000154565b9250506020620001a88582860162000154565b9150509250929050565b612ee080620001c26000396000f3fe608060405234801561001057600080fd5b50600436106100935760003560e01c80639bc7c21c116100665780639bc7c21c1461011c578063ab801b9b1461014c578063afd47d3e1461017c578063b3b95f15146101ac578063d7f9aee5146101df57610093565b8063194cb39614610098578063210744cf146100b4578063449e815d146100d0578063548e843714610100575b600080fd5b6100b260048036038101906100ad91906122f6565b61020f565b005b6100ce60048036038101906100c99190612359565b6102e1565b005b6100ea60048036038101906100e591906123d4565b610975565b6040516100f79190612423565b60405180910390f35b61011a600480360381019061011591906122f6565b610dd2565b005b610136600480360381019061013191906123d4565b610e16565b6040516101439190612459565b60405180910390f35b610166600480360381019061016191906122f6565b6111b8565b6040516101739190612532565b60405180910390f35b610196600480360381019061019191906123d4565b61155c565b6040516101a39190612423565b60405180910390f35b6101c660048036038101906101c19190612554565b6119b9565b6040516101d69493929190612590565b60405180910390f35b6101f960048036038101906101f491906123d4565b611e27565b60405161020691906125d5565b60405180910390f35b60008054906101000a900473ffffffffffffffffffffffffffffffffffffffff1673ffffffffffffffffffffffffffffffffffffffff163373ffffffffffffffffffffffffffffffffffffffff161461029d576040517f08c379a00000000000000000000000000000000000000000000000000000000081526004016102949061264d565b60405180910390fd5b80600160006101000a81548173ffffffffffffffffffffffffffffffffffffffff021916908373ffffffffffffffffffffffffffffffffffffffff16021790555050565b83600073ffffffffffffffffffffffffffffffffffffffff168173ffffffffffffffffffffffffffffffffffffffff1603610351576040517f08c379a0000000000000000000000000000000000000000000000000000000008152600401610348906126b9565b60405180910390fd5b600160009054906101000a900473ffffffffffffffffffffffffffffffffffffffff1673ffffffffffffffffffffffffffffffffffffffff168173ffffffffffffffffffffffffffffffffffffffff16036103e1576040517f08c379a00000000000000000000000000000000000000000000000000000000081526004016103d890612725565b60405180910390fd5b600260009054906101000a900473ffffffffffffffffffffffffffffffffffffffff1673ffffffffffffffffffffffffffffffffffffffff168173ffffffffffffffffffffffffffffffffffffffff1603610471576040517f08c379a000000000000000000000000000000000000000000000000000000000815260040161046890612791565b60405180910390fd5b60008054906101000a900473ffffffffffffffffffffffffffffffffffffffff1673ffffffffffffffffffffffffffffffffffffffff168173ffffffffffffffffffffffffffffffffffffffff16036104ff576040517f08c379a00000000000000000000000000000000000000000000000000000000081526004016104f6906127fd565b60405180910390fd5b85600073ffffffffffffffffffffffffffffffffffffffff168173ffffffffffffffffffffffffffffffffffffffff160361056f576040517f08c379a0000000000000000000000000000000000000000000000000000000008152600401610566906126b9565b60405180910390fd5b600160009054906101000a900473ffffffffffffffffffffffffffffffffffffffff1673ffffffffffffffffffffffffffffffffffffffff168173ffffffffffffffffffffffffffffffffffffffff16036105ff576040517f08c379a00000000000000000000000000000000000000000000000000000000081526004016105f690612725565b60405180910390fd5b600260009054906101000a900473ffffffffffffffffffffffffffffffffffffffff1673ffffffffffffffffffffffffffffffffffffffff168173ffffffffffffffffffffffffffffffffffffffff160361068f576040517f08c379a000000000000000000000000000000000000000000000000000000000815260040161068690612791565b60405180910390fd5b60008054906101000a900473ffffffffffffffffffffffffffffffffffffffff1673ffffffffffffffffffffffffffffffffffffffff168173ffffffffffffffffffffffffffffffffffffffff160361071d576040517f08c379a0000000000000000000000000000000000000000000000000000000008152600401610714906127fd565b60405180910390fd5b8673ffffffffffffffffffffffffffffffffffffffff168673ffffffffffffffffffffffffffffffffffffffff160361078b576040517f08c379a00000000000000000000000000000000000000000000000000000000081526004016107829061288f565b60405180910390fd5b600260009054906101000a900473ffffffffffffffffffffffffffffffffffffffff1673ffffffffffffffffffffffffffffffffffffffff1663a5578807876040518263ffffffff1660e01b81526004016107e691906125d5565b602060405180830381865afa158015610803573d6000803e3d6000fd5b505050506040513d601f19601f8201168201806040525081019061082791906128db565b610866576040517f08c379a000000000000000000000000000000000000000000000000000000000815260040161085d90612954565b60405180910390fd5b6000806000600160009054906101000a900473ffffffffffffffffffffffffffffffffffffffff1673ffffffffffffffffffffffffffffffffffffffff1663210744cf8a8c8b8b8b6040518663ffffffff1660e01b81526004016108ce959493929190612974565b6060604051808303816000875af11580156108ed573d6000803e3d6000fd5b505050506040513d601f19601f8201168201806040525081019061091191906129dc565b9250925092508873ffffffffffffffffffffffffffffffffffffffff167fe4e0a3f1bc7b63755b757a235c373fecddc7fe1a9c424830d9e7c53afd84641b84848460405161096193929190612a7b565b60405180910390a250505050505050505050565b600033600073ffffffffffffffffffffffffffffffffffffffff168173ffffffffffffffffffffffffffffffffffffffff16036109e7576040517f08c379a00000000000000000000000000000000000000000000000000000000081526004016109de906126b9565b60405180910390fd5b600160009054906101000a900473ffffffffffffffffffffffffffffffffffffffff1673ffffffffffffffffffffffffffffffffffffffff168173ffffffffffffffffffffffffffffffffffffffff1603610a77576040517f08c379a0000000000000000000000000000000000000000000000000000000008152600401610a6e90612725565b60405180910390fd5b600260009054906101000a900473ffffffffffffffffffffffffffffffffffffffff1673ffffffffffffffffffffffffffffffffffffffff168173ffffffffffffffffffffffffffffffffffffffff1603610b07576040517f08c379a0000000000000000000000000000000000000000000000000000000008152600401610afe90612791565b60405180910390fd5b60008054906101000a900473ffffffffffffffffffffffffffffffffffffffff1673ffffffffffffffffffffffffffffffffffffffff168173ffffffffffffffffffffffffffffffffffffffff1603610b95576040517f08c379a0000000000000000000000000000000000000000000000000000000008152600401610b8c906127fd565b60405180910390fd5b600260009054906101000a900473ffffffffffffffffffffffffffffffffffffffff1673ffffffffffffffffffffffffffffffffffffffff1663a5578807856040518263ffffffff1660e01b8152600401610bf091906125d5565b602060405180830381865afa158015610c0d573d6000803e3d6000fd5b505050506040513d601f19601f82011682018060405250810190610c3191906128db565b610c70576040517f08c379a0000000000000000000000000000000000000000000000000000000008152600401610c6790612954565b60405180910390fd5b3073ffffffffffffffffffffffffffffffffffffffff16639bc7c21c85856040518363ffffffff1660e01b8152600401610cab929190612ac5565b602060405180830381865afa158015610cc8573d6000803e3d6000fd5b505050506040513d601f19601f82011682018060405250810190610cec91906128db565b610d2b576040517f08c379a0000000000000000000000000000000000000000000000000000000008152600401610d2290612b3a565b60405180910390fd5b600160009054906101000a900473ffffffffffffffffffffffffffffffffffffffff1673ffffffffffffffffffffffffffffffffffffffff1663449e815d85856040518363ffffffff1660e01b8152600401610d88929190612ac5565b602060405180830381865afa158015610da5573d6000803e3d6000fd5b505050506040513d601f19601f82011682018060405250810190610dc99190612b5a565b91505092915050565b80600260006101000a81548173ffffffffffffffffffffffffffffffffffffffff021916908373ffffffffffffffffffffffffffffffffffffffff16021790555050565b600082600073ffffffffffffffffffffffffffffffffffffffff168173ffffffffffffffffffffffffffffffffffffffff1603610e88576040517f08c379a0000000000000000000000000000000000000000000000000000000008152600401610e7f906126b9565b60405180910390fd5b600160009054906101000a900473ffffffffffffffffffffffffffffffffffffffff1673ffffffffffffffffffffffffffffffffffffffff168173ffffffffffffffffffffffffffffffffffffffff1603610f18576040517f08c379a0000000000000000000000000000000000000000000000000000000008152600401610f0f90612725565b60405180910390fd5b600260009054906101000a900473ffffffffffffffffffffffffffffffffffffffff1673ffffffffffffffffffffffffffffffffffffffff168173ffffffffffffffffffffffffffffffffffffffff1603610fa8576040517f08c379a0000000000000000000000000000000000000000000000000000000008152600401610f9f90612791565b60405180910390fd5b60008054906101000a900473ffffffffffffffffffffffffffffffffffffffff1673ffffffffffffffffffffffffffffffffffffffff168173ffffffffffffffffffffffffffffffffffffffff1603611036576040517f08c379a000000000000000000000000000000000000000000000000000000000815260040161102d906127fd565b60405180910390fd5b600260009054906101000a900473ffffffffffffffffffffffffffffffffffffffff1673ffffffffffffffffffffffffffffffffffffffff1663a5578807856040518263ffffffff1660e01b815260040161109191906125d5565b602060405180830381865afa1580156110ae573d6000803e3d6000fd5b505050506040513d601f19601f820116820180604052508101906110d291906128db565b611111576040517f08c379a000000000000000000000000000000000000000000000000000000000815260040161110890612bd3565b60405180910390fd5b600160009054906101000a900473ffffffffffffffffffffffffffffffffffffffff1673ffffffffffffffffffffffffffffffffffffffff16639bc7c21c85856040518363ffffffff1660e01b815260040161116e929190612ac5565b602060405180830381865afa15801561118b573d6000803e3d6000fd5b505050506040513d601f19601f820116820180604052508101906111af91906128db565b91505092915050565b606081600073ffffffffffffffffffffffffffffffffffffffff168173ffffffffffffffffffffffffffffffffffffffff160361122a576040517f08c379a0000000000000000000000000000000000000000000000000000000008152600401611221906126b9565b60405180910390fd5b600160009054906101000a900473ffffffffffffffffffffffffffffffffffffffff1673ffffffffffffffffffffffffffffffffffffffff168173ffffffffffffffffffffffffffffffffffffffff16036112ba576040517f08c379a00000000000000000000000000000000000000000000000000000000081526004016112b190612725565b60405180910390fd5b600260009054906101000a900473ffffffffffffffffffffffffffffffffffffffff1673ffffffffffffffffffffffffffffffffffffffff168173ffffffffffffffffffffffffffffffffffffffff160361134a576040517f08c379a000000000000000000000000000000000000000000000000000000000815260040161134190612791565b60405180910390fd5b60008054906101000a900473ffffffffffffffffffffffffffffffffffffffff1673ffffffffffffffffffffffffffffffffffffffff168173ffffffffffffffffffffffffffffffffffffffff16036113d8576040517f08c379a00000000000000000000000000000000000000000000000000000000081526004016113cf906127fd565b60405180910390fd5b600260009054906101000a900473ffffffffffffffffffffffffffffffffffffffff1673ffffffffffffffffffffffffffffffffffffffff1663a5578807846040518263ffffffff1660e01b815260040161143391906125d5565b602060405180830381865afa158015611450573d6000803e3d6000fd5b505050506040513d601f19601f8201168201806040525081019061147491906128db565b6114b3576040517f08c379a00000000000000000000000000000000000000000000000000000000081526004016114aa90612c3f565b60405180910390fd5b600160009054906101000a900473ffffffffffffffffffffffffffffffffffffffff1673ffffffffffffffffffffffffffffffffffffffff1663ab801b9b846040518263ffffffff1660e01b815260040161150e91906125d5565b600060405180830381865afa15801561152b573d6000803e3d6000fd5b505050506040513d6000823e3d601f19601f820116820180604052508101906115549190612db8565b915050919050565b600033600073ffffffffffffffffffffffffffffffffffffffff168173ffffffffffffffffffffffffffffffffffffffff16036115ce576040517f08c379a00000000000000000000000000000000000000000000000000000000081526004016115c5906126b9565b60405180910390fd5b600160009054906101000a900473ffffffffffffffffffffffffffffffffffffffff1673ffffffffffffffffffffffffffffffffffffffff168173ffffffffffffffffffffffffffffffffffffffff160361165e576040517f08c379a000000000000000000000000000000000000000000000000000000000815260040161165590612725565b60405180910390fd5b600260009054906101000a900473ffffffffffffffffffffffffffffffffffffffff1673ffffffffffffffffffffffffffffffffffffffff168173ffffffffffffffffffffffffffffffffffffffff16036116ee576040517f08c379a00000000000000000000000000000000000000000000000000000000081526004016116e590612791565b60405180910390fd5b60008054906101000a900473ffffffffffffffffffffffffffffffffffffffff1673ffffffffffffffffffffffffffffffffffffffff168173ffffffffffffffffffffffffffffffffffffffff160361177c576040517f08c379a0000000000000000000000000000000000000000000000000000000008152600401611773906127fd565b60405180910390fd5b600260009054906101000a900473ffffffffffffffffffffffffffffffffffffffff1673ffffffffffffffffffffffffffffffffffffffff1663a5578807856040518263ffffffff1660e01b81526004016117d791906125d5565b602060405180830381865afa1580156117f4573d6000803e3d6000fd5b505050506040513d601f19601f8201168201806040525081019061181891906128db565b611857576040517f08c379a000000000000000000000000000000000000000000000000000000000815260040161184e90612954565b60405180910390fd5b3073ffffffffffffffffffffffffffffffffffffffff16639bc7c21c85856040518363ffffffff1660e01b8152600401611892929190612ac5565b602060405180830381865afa1580156118af573d6000803e3d6000fd5b505050506040513d601f19601f820116820180604052508101906118d391906128db565b611912576040517f08c379a000000000000000000000000000000000000000000000000000000000815260040161190990612b3a565b60405180910390fd5b600160009054906101000a900473ffffffffffffffffffffffffffffffffffffffff1673ffffffffffffffffffffffffffffffffffffffff1663afd47d3e85856040518363ffffffff1660e01b815260040161196f929190612ac5565b602060405180830381865afa15801561198c573d6000803e3d6000fd5b505050506040513d601f19601f820116820180604052508101906119b09190612b5a565b91505092915050565b60008060008033600073ffffffffffffffffffffffffffffffffffffffff168173ffffffffffffffffffffffffffffffffffffffff1603611a2f576040517f08c379a0000000000000000000000000000000000000000000000000000000008152600401611a26906126b9565b60405180910390fd5b600160009054906101000a900473ffffffffffffffffffffffffffffffffffffffff1673ffffffffffffffffffffffffffffffffffffffff168173ffffffffffffffffffffffffffffffffffffffff1603611abf576040517f08c379a0000000000000000000000000000000000000000000000000000000008152600401611ab690612725565b60405180910390fd5b600260009054906101000a900473ffffffffffffffffffffffffffffffffffffffff1673ffffffffffffffffffffffffffffffffffffffff168173ffffffffffffffffffffffffffffffffffffffff1603611b4f576040517f08c379a0000000000000000000000000000000000000000000000000000000008152600401611b4690612791565b60405180910390fd5b60008054906101000a900473ffffffffffffffffffffffffffffffffffffffff1673ffffffffffffffffffffffffffffffffffffffff168173ffffffffffffffffffffffffffffffffffffffff1603611bdd576040517f08c379a0000000000000000000000000000000000000000000000000000000008152600401611bd4906127fd565b60405180910390fd5b6000339050600260009054906101000a900473ffffffffffffffffffffffffffffffffffffffff1673ffffffffffffffffffffffffffffffffffffffff1663a5578807826040518263ffffffff1660e01b8152600401611c3d91906125d5565b602060405180830381865afa158015611c5a573d6000803e3d6000fd5b505050506040513d601f19601f82011682018060405250810190611c7e91906128db565b611cbd576040517f08c379a0000000000000000000000000000000000000000000000000000000008152600401611cb490612954565b60405180910390fd5b3073ffffffffffffffffffffffffffffffffffffffff16639bc7c21c82896040518363ffffffff1660e01b8152600401611cf8929190612ac5565b602060405180830381865afa158015611d15573d6000803e3d6000fd5b505050506040513d601f19601f82011682018060405250810190611d3991906128db565b611d78576040517f08c379a0000000000000000000000000000000000000000000000000000000008152600401611d6f90612b3a565b60405180910390fd5b600160009054906101000a900473ffffffffffffffffffffffffffffffffffffffff1673ffffffffffffffffffffffffffffffffffffffff16630b7aa47382896040518363ffffffff1660e01b8152600401611dd5929190612ac5565b608060405180830381865afa158015611df2573d6000803e3d6000fd5b505050506040513d601f19601f82011682018060405250810190611e169190612e16565b955095509550955050509193509193565b600033600073ffffffffffffffffffffffffffffffffffffffff168173ffffffffffffffffffffffffffffffffffffffff1603611e99576040517f08c379a0000000000000000000000000000000000000000000000000000000008152600401611e90906126b9565b60405180910390fd5b600160009054906101000a900473ffffffffffffffffffffffffffffffffffffffff1673ffffffffffffffffffffffffffffffffffffffff168173ffffffffffffffffffffffffffffffffffffffff1603611f29576040517f08c379a0000000000000000000000000000000000000000000000000000000008152600401611f2090612725565b60405180910390fd5b600260009054906101000a900473ffffffffffffffffffffffffffffffffffffffff1673ffffffffffffffffffffffffffffffffffffffff168173ffffffffffffffffffffffffffffffffffffffff1603611fb9576040517f08c379a0000000000000000000000000000000000000000000000000000000008152600401611fb090612791565b60405180910390fd5b60008054906101000a900473ffffffffffffffffffffffffffffffffffffffff1673ffffffffffffffffffffffffffffffffffffffff168173ffffffffffffffffffffffffffffffffffffffff1603612047576040517f08c379a000000000000000000000000000000000000000000000000000000000815260040161203e906127fd565b60405180910390fd5b600260009054906101000a900473ffffffffffffffffffffffffffffffffffffffff1673ffffffffffffffffffffffffffffffffffffffff1663a5578807856040518263ffffffff1660e01b81526004016120a291906125d5565b602060405180830381865afa1580156120bf573d6000803e3d6000fd5b505050506040513d601f19601f820116820180604052508101906120e391906128db565b612122576040517f08c379a000000000000000000000000000000000000000000000000000000000815260040161211990612954565b60405180910390fd5b3073ffffffffffffffffffffffffffffffffffffffff16639bc7c21c85856040518363ffffffff1660e01b815260040161215d929190612ac5565b602060405180830381865afa15801561217a573d6000803e3d6000fd5b505050506040513d601f19601f8201168201806040525081019061219e91906128db565b6121dd576040517f08c379a00000000000000000000000000000000000000000000000000000000081526004016121d490612b3a565b60405180910390fd5b600160009054906101000a900473ffffffffffffffffffffffffffffffffffffffff1673ffffffffffffffffffffffffffffffffffffffff1663d7f9aee585856040518363ffffffff1660e01b815260040161223a929190612ac5565b602060405180830381865afa158015612257573d6000803e3d6000fd5b505050506040513d601f19601f8201168201806040525081019061227b9190612e7d565b91505092915050565b6000604051905090565b600080fd5b600080fd5b600073ffffffffffffffffffffffffffffffffffffffff82169050919050565b60006122c382612298565b9050919050565b6122d3816122b8565b81146122de57600080fd5b50565b6000813590506122f0816122ca565b92915050565b60006020828403121561230c5761230b61228e565b5b600061231a848285016122e1565b91505092915050565b6000819050919050565b61233681612323565b811461234157600080fd5b50565b6000813590506123538161232d565b92915050565b600080600080600060a086880312156123755761237461228e565b5b6000612383888289016122e1565b9550506020612394888289016122e1565b94505060406123a588828901612344565b93505060606123b688828901612344565b92505060806123c788828901612344565b9150509295509295909350565b600080604083850312156123eb576123ea61228e565b5b60006123f9858286016122e1565b925050602061240a85828601612344565b9150509250929050565b61241d81612323565b82525050565b60006020820190506124386000830184612414565b92915050565b60008115159050919050565b6124538161243e565b82525050565b600060208201905061246e600083018461244a565b92915050565b600081519050919050565b600082825260208201905092915050565b6000819050602082019050919050565b6124a981612323565b82525050565b60006124bb83836124a0565b60208301905092915050565b6000602082019050919050565b60006124df82612474565b6124e9818561247f565b93506124f483612490565b8060005b8381101561252557815161250c88826124af565b9750612517836124c7565b9250506001810190506124f8565b5085935050505092915050565b6000602082019050818103600083015261254c81846124d4565b905092915050565b60006020828403121561256a5761256961228e565b5b600061257884828501612344565b91505092915050565b61258a816122b8565b82525050565b60006080820190506125a56000830187612414565b6125b26020830186612581565b6125bf6040830185612414565b6125cc6060830184612414565b95945050505050565b60006020820190506125ea6000830184612581565b92915050565b600082825260208201905092915050565b7f41646472657373206973206e6f7420746865206f7267616e697a6174696f6e00600082015250565b6000612637601f836125f0565b915061264282612601565b602082019050919050565b600060208201905081810360008301526126668161262a565b9050919050565b7f416464726573732076616c756520697320302100000000000000000000000000600082015250565b60006126a36013836125f0565b91506126ae8261266d565b602082019050919050565b600060208201905081810360008301526126d281612696565b9050919050565b7f4164647265737320697320636f6e73756d6572427579657253746f7261676521600082015250565b600061270f6020836125f0565b915061271a826126d9565b602082019050919050565b6000602082019050818103600083015261273e81612702565b9050919050565b7f4164647265737320697320436f6e73756d657242757965725365727669636521600082015250565b600061277b6020836125f0565b915061278682612745565b602082019050919050565b600060208201905081810360008301526127aa8161276e565b9050919050565b7f41646472657373206973204f7267616e697a6174696f6e210000000000000000600082015250565b60006127e76018836125f0565b91506127f2826127b1565b602082019050919050565b60006020820190508181036000830152612816816127da565b9050919050565b7f4164647265737320756775616c6920436f6e73756d657242757965722065205260008201527f657461696c657221000000000000000000000000000000000000000000000000602082015250565b60006128796028836125f0565b91506128848261281d565b604082019050919050565b600060208201905081810360008301526128a88161286c565b9050919050565b6128b88161243e565b81146128c357600080fd5b50565b6000815190506128d5816128af565b92915050565b6000602082840312156128f1576128f061228e565b5b60006128ff848285016128c6565b91505092915050565b7f5574656e7465206e6f6e2074726f7661746f2100000000000000000000000000600082015250565b600061293e6013836125f0565b915061294982612908565b602082019050919050565b6000602082019050818103600083015261296d81612931565b9050919050565b600060a0820190506129896000830188612581565b6129966020830187612581565b6129a36040830186612414565b6129b06060830185612414565b6129bd6080830184612414565b9695505050505050565b6000815190506129d68161232d565b92915050565b6000806000606084860312156129f5576129f461228e565b5b6000612a03868287016129c7565b9350506020612a14868287016129c7565b9250506040612a25868287016129c7565b9150509250925092565b7f4368656573655069656365204163717569737461746f21000000000000000000600082015250565b6000612a656017836125f0565b9150612a7082612a2f565b602082019050919050565b60006080820190508181036000830152612a9481612a58565b9050612aa36020830186612414565b612ab06040830185612414565b612abd6060830184612414565b949350505050565b6000604082019050612ada6000830185612581565b612ae76020830184612414565b9392505050565b7f50726f646f74746f206e6f6e2050726573656e74652100000000000000000000600082015250565b6000612b246016836125f0565b9150612b2f82612aee565b602082019050919050565b60006020820190508181036000830152612b5381612b17565b9050919050565b600060208284031215612b7057612b6f61228e565b5b6000612b7e848285016129c7565b91505092915050565b7f5574656e7465206e6f6e2070726573656e746521000000000000000000000000600082015250565b6000612bbd6014836125f0565b9150612bc882612b87565b602082019050919050565b60006020820190508181036000830152612bec81612bb0565b9050919050565b7f55736572206973206e6f742070726573656e7421000000000000000000000000600082015250565b6000612c296014836125f0565b9150612c3482612bf3565b602082019050919050565b60006020820190508181036000830152612c5881612c1c565b9050919050565b600080fd5b6000601f19601f8301169050919050565b7f4e487b7100000000000000000000000000000000000000000000000000000000600052604160045260246000fd5b612cad82612c64565b810181811067ffffffffffffffff82111715612ccc57612ccb612c75565b5b80604052505050565b6000612cdf612284565b9050612ceb8282612ca4565b919050565b600067ffffffffffffffff821115612d0b57612d0a612c75565b5b602082029050602081019050919050565b600080fd5b6000612d34612d2f84612cf0565b612cd5565b90508083825260208201905060208402830185811115612d5757612d56612d1c565b5b835b81811015612d805780612d6c88826129c7565b845260208401935050602081019050612d59565b5050509392505050565b600082601f830112612d9f57612d9e612c5f565b5b8151612daf848260208601612d21565b91505092915050565b600060208284031215612dce57612dcd61228e565b5b600082015167ffffffffffffffff811115612dec57612deb612293565b5b612df884828501612d8a565b91505092915050565b600081519050612e10816122ca565b92915050565b60008060008060808587031215612e3057612e2f61228e565b5b6000612e3e878288016129c7565b9450506020612e4f87828801612e01565b9350506040612e60878288016129c7565b9250506060612e71878288016129c7565b91505092959194509250565b600060208284031215612e9357612e9261228e565b5b6000612ea184828501612e01565b9150509291505056fea26469706673582212209490ad39fdaa8af1c24083871fd36504bba772343231d43f993174a446375d2264736f6c63430008180033",
  "immutableReferences": {},
  "source": "// SPDX-License-Identifier: MIT\r\npragma solidity ^0.8.21;\r\n\r\nimport \"./ConsumerBuyerStorage.sol\";\r\nimport \"../ConsumerService.sol\";\r\n\r\ncontract ConsumerBuyerService {\r\n\r\n    //------------------------------------------------------------------------ Address of other Contract Service -----------------------------------------------------------//\r\n\r\n    // Address of Organization che gestisce gli utenti\r\n    address private consumerBuyerOrg;\r\n    // Address of CheesePieceStorage \r\n    ConsumerBuyerStorage private consumerBuyerStorage;\r\n\r\n    ConsumerService private consumerService;\r\n\r\n    //------------------------------------------------------------------------ Event of Service  -----------------------------------------------------------//\r\n\r\n    // Eventi per notificare l'aggiunta di una Partita di CheesePiece\r\n    event ConsumerBuyerCheesePieceAdded(address indexed userAddress, string message, uint256 id, uint256 price, uint256 quantity);\r\n    // Evento per notificare che un CheesePiece  stato eliminato \r\n    event ConsumerBuyerCheesePieceDeleted(address indexed userAddress, string message);\r\n    // Evento per notificare che un CheesePiece  stato Editato\r\n    event ConsumerBuyerCheesePieceEdited(address indexed userAddress, string message, uint256 quantity);\r\n\r\n    //------------------------------------------------------------------------ Constructor of other Contract Service -----------------------------------------------------------//\r\n\r\n    constructor(\r\n        address _consumerBuyerStorage, \r\n        address _consumerService) {\r\n        consumerBuyerStorage = ConsumerBuyerStorage(_consumerBuyerStorage);\r\n        consumerService = ConsumerService(_consumerService);\r\n        consumerBuyerOrg = msg.sender;\r\n    }\r\n\r\n    //------------------------------------------------------------------------ Modifier Logic of Contract Service -----------------------------------------------------------//\r\n\r\n    modifier checkAddress(address caller) {\r\n        require(caller != address(0), \"Address value is 0!\");\r\n        require(caller != address(consumerBuyerStorage), \"Address is consumerBuyerStorage!\");\r\n        require(caller != address(consumerService), \"Address is ConsumerBuyerService!\");\r\n        require(caller != address(consumerBuyerOrg), \"Address is Organization!\");\r\n        _;\r\n    }\r\n\r\n    //------------------------------------------------------------------------ Business Logic of Contract Service -----------------------------------------------------------//\r\n\r\n    /**\r\n    * Tale funzione viene chiamata dal TransactionManager per inserire il CheesePiece venduto dal Retailer al ConsumerBuyer \r\n    * I controlli vengono fatti tutti all'interno del TransactionManager per la verifica dell'esistenza dei due interessati \r\n    * - Ammettiamo che i controlli sul prodotto vengono gi fatti a monte \r\n    * - verifichiamo che il ConsumerBuyer e il Retailer esistono \r\n    * - verifichiamo che il CheesePiece associato al Retailer esiste \r\n    * - Aggiungiamo questi dati all'interno del Inventory \r\n    */\r\n    function addCheesePiece(\r\n        address walletRetailer,\r\n        address walletConsumer,\r\n        uint256 idCheesePiece,\r\n        uint256 price,\r\n        uint256 weight\r\n    ) external checkAddress(walletConsumer) checkAddress(walletRetailer) {\r\n\r\n        // Verifico che ConsumerBuyer e Retailer address non siano identici\r\n        require(address(walletConsumer) != address(walletRetailer), \"Address uguali ConsumerBuyer e Retailer!\");\r\n\r\n        // Verifico che il ConsumerBuyer  presente \r\n        require(consumerService.isUserPresent(walletConsumer), \"Utente non trovato!\");\r\n\r\n        // Aggiungo il CheesePiece all'interno dell'Inventario del ConsumerBuyer \r\n        (uint256 _idCheesePiece, uint256 _price, uint256 _weight) = consumerBuyerStorage.addCheesePiece(walletConsumer, walletRetailer, idCheesePiece, price, weight);\r\n\r\n        // Invio dell'Evento \r\n        emit ConsumerBuyerCheesePieceAdded(walletConsumer, \"CheesePiece Acquistato!\", _idCheesePiece, _price, _weight);\r\n    }\r\n\r\n    //TODO : Controllo sull'owner del CheesePiece Acquistato \r\n    function getCheesePiece(uint256 idCheesePiece) external view checkAddress(msg.sender) returns (uint256, address, uint256, uint256) {\r\n\r\n        address walletConsumer = msg.sender;\r\n\r\n        require(consumerService.isUserPresent(walletConsumer), \"Utente non trovato!\");\r\n\r\n        require(this.isCheesePiecePresent(walletConsumer, idCheesePiece), \"Prodotto non Presente!\");\r\n\r\n        return consumerBuyerStorage.getCheesePiece(walletConsumer, idCheesePiece);\r\n    }\r\n\r\n    function getPrice(address walletConsumer, uint256 idCheesePiece) external view checkAddress(msg.sender) returns (uint256) {\r\n\r\n        require(consumerService.isUserPresent(walletConsumer), \"Utente non trovato!\");\r\n\r\n        require(this.isCheesePiecePresent(walletConsumer, idCheesePiece), \"Prodotto non Presente!\");\r\n\r\n        return consumerBuyerStorage.getPrice(walletConsumer, idCheesePiece);\r\n    }\r\n\r\n    function getWeight(address walletConsumer, uint256 idCheesePiece) external view checkAddress(msg.sender) returns (uint256) {\r\n\r\n        require(consumerService.isUserPresent(walletConsumer), \"Utente non trovato!\");\r\n\r\n        require(this.isCheesePiecePresent(walletConsumer, idCheesePiece), \"Prodotto non Presente!\");\r\n\r\n        return consumerBuyerStorage.getWeight(walletConsumer, idCheesePiece);\r\n    }\r\n\r\n    function getWalletRetailer(address walletConsumer, uint256 idCheesePiece) external view checkAddress(msg.sender) returns (address) {\r\n\r\n        require(consumerService.isUserPresent(walletConsumer), \"Utente non trovato!\");\r\n\r\n        require(this.isCheesePiecePresent(walletConsumer, idCheesePiece), \"Prodotto non Presente!\");\r\n\r\n        return consumerBuyerStorage.getWalletRetailer(walletConsumer, idCheesePiece);\r\n    }\r\n\r\n    /**\r\n    * Verifica che il CheesePiece  presente all'interno dell'inventario \r\n    * - Verifica che l'id non sia nullo e che sia maggiore di 0 e che coincida con l'elemento \r\n    */\r\n    function isCheesePiecePresent(address walletConsumer, uint256 idCheesePiece) external view checkAddress(walletConsumer) returns (bool) {\r\n\r\n        require(consumerService.isUserPresent(walletConsumer), \"Utente non presente!\");\r\n\r\n        return consumerBuyerStorage.isCheesePiecePresent(walletConsumer, idCheesePiece);\r\n    }\r\n\r\n    \r\n    /*\r\n    * Funzione che recupera tutti gli ID dei prodotti acquistati di un Consumer tramite il suo wallet \r\n    */ \r\n    function getUserCheesePieceIds(address walletConsumer) external checkAddress(walletConsumer) view returns (uint256[] memory){\r\n        // Check if exist \r\n        require(consumerService.isUserPresent(walletConsumer), \"User is not present!\");\r\n\r\n        return consumerBuyerStorage.getUserCheesePieceIds(walletConsumer);\r\n    }\r\n\r\n//-------------------------------------------------------------------- Set Function ------------------------------------------------------------------------//\r\n\r\n\r\n// -------------------------------------------------- Change Address Function Contract Service ---------------------------------------------------//\r\n\r\n    // TODO: insert modifier onlyOrg(address sender) {}\r\n    function changeConsumerBuyerCheesePieceStorage(address _consumerBuyerStorage) external {\r\n        require(msg.sender == consumerBuyerOrg, \"Address is not the organization\");\r\n        consumerBuyerStorage = ConsumerBuyerStorage(_consumerBuyerStorage);\r\n    }\r\n\r\n    // TODO: insert modifier onlyOrg(address sender) {}\r\n    function changeConsumerBuyerService(address _consumerService) external {\r\n        consumerService = ConsumerService(_consumerService);\r\n    }\r\n\r\n}\r\n",
  "sourcePath": "C:\\Users\\umber\\Progetti\\FilieraToken\\Filiera-Token-Smart-Contract\\contracts\\Actor\\Consumer-smart-contract\\inventory\\ConsumerBuyerService.sol",
  "compiler": {
    "name": "solc",
    "version": "0.8.24+commit.e11b9ed9.Emscripten.clang"
  },
  "schemaVersion": "3.4.16",
  "updatedAt": "2024-03-02T00:21:25.941Z",
  "devdoc": {
    "kind": "dev",
    "methods": {},
    "version": 1
  },
  "userdoc": {
    "kind": "user",
    "methods": {
      "addCheesePiece(address,address,uint256,uint256,uint256)": {
        "notice": "Tale funzione viene chiamata dal TransactionManager per inserire il CheesePiece venduto dal Retailer al ConsumerBuyer  I controlli vengono fatti tutti all'interno del TransactionManager per la verifica dell'esistenza dei due interessati  - Ammettiamo che i controlli sul prodotto vengono gi fatti a monte  - verifichiamo che il ConsumerBuyer e il Retailer esistono  - verifichiamo che il CheesePiece associato al Retailer esiste  - Aggiungiamo questi dati all'interno del Inventory "
      },
      "isCheesePiecePresent(address,uint256)": {
        "notice": "Verifica che il CheesePiece  presente all'interno dell'inventario  - Verifica che l'id non sia nullo e che sia maggiore di 0 e che coincida con l'elemento "
      }
    },
    "version": 1
  }
}