{
  "contractName": "MilkHubStorage",
  "abi": [
    {
      "inputs": [],
      "stateMutability": "nonpayable",
      "type": "constructor"
    },
    {
      "inputs": [
        {
          "internalType": "string",
          "name": "_fullName",
          "type": "string"
        },
        {
          "internalType": "string",
          "name": "_password",
          "type": "string"
        },
        {
          "internalType": "string",
          "name": "_email",
          "type": "string"
        },
        {
          "internalType": "address",
          "name": "walletMilkHub",
          "type": "address"
        }
      ],
      "name": "addUser",
      "outputs": [],
      "stateMutability": "nonpayable",
      "type": "function"
    },
    {
      "inputs": [
        {
          "internalType": "address",
          "name": "walletMilkHub",
          "type": "address"
        },
        {
          "internalType": "string",
          "name": "_email",
          "type": "string"
        },
        {
          "internalType": "string",
          "name": "_password",
          "type": "string"
        }
      ],
      "name": "loginUser",
      "outputs": [
        {
          "internalType": "bool",
          "name": "",
          "type": "bool"
        }
      ],
      "stateMutability": "view",
      "type": "function"
    },
    {
      "inputs": [
        {
          "internalType": "address",
          "name": "walletMilkHub",
          "type": "address"
        }
      ],
      "name": "deleteUser",
      "outputs": [
        {
          "internalType": "bool",
          "name": "",
          "type": "bool"
        }
      ],
      "stateMutability": "nonpayable",
      "type": "function"
    },
    {
      "inputs": [
        {
          "internalType": "address",
          "name": "walletMilkHub",
          "type": "address"
        }
      ],
      "name": "isUserPresent",
      "outputs": [
        {
          "internalType": "bool",
          "name": "",
          "type": "bool"
        }
      ],
      "stateMutability": "view",
      "type": "function"
    },
    {
      "inputs": [
        {
          "internalType": "address",
          "name": "walletMilkHub",
          "type": "address"
        }
      ],
      "name": "getId",
      "outputs": [
        {
          "internalType": "uint256",
          "name": "",
          "type": "uint256"
        }
      ],
      "stateMutability": "view",
      "type": "function"
    },
    {
      "inputs": [
        {
          "internalType": "address",
          "name": "walletMilkHub",
          "type": "address"
        },
        {
          "internalType": "uint256",
          "name": "_id",
          "type": "uint256"
        }
      ],
      "name": "getFullName",
      "outputs": [
        {
          "internalType": "string",
          "name": "",
          "type": "string"
        }
      ],
      "stateMutability": "view",
      "type": "function"
    },
    {
      "inputs": [
        {
          "internalType": "address",
          "name": "walletMilkHub",
          "type": "address"
        },
        {
          "internalType": "uint256",
          "name": "_id",
          "type": "uint256"
        }
      ],
      "name": "getEmail",
      "outputs": [
        {
          "internalType": "string",
          "name": "",
          "type": "string"
        }
      ],
      "stateMutability": "view",
      "type": "function"
    },
    {
      "inputs": [
        {
          "internalType": "address",
          "name": "walletMilkHub",
          "type": "address"
        },
        {
          "internalType": "uint256",
          "name": "_id",
          "type": "uint256"
        }
      ],
      "name": "getBalance",
      "outputs": [
        {
          "internalType": "uint256",
          "name": "",
          "type": "uint256"
        }
      ],
      "stateMutability": "view",
      "type": "function"
    },
    {
      "inputs": [
        {
          "internalType": "address",
          "name": "walletMilkHub",
          "type": "address"
        }
      ],
      "name": "getUser",
      "outputs": [
        {
          "internalType": "uint256",
          "name": "",
          "type": "uint256"
        },
        {
          "internalType": "string",
          "name": "",
          "type": "string"
        },
        {
          "internalType": "string",
          "name": "",
          "type": "string"
        },
        {
          "internalType": "string",
          "name": "",
          "type": "string"
        },
        {
          "internalType": "uint256",
          "name": "",
          "type": "uint256"
        }
      ],
      "stateMutability": "view",
      "type": "function"
    },
    {
      "inputs": [],
      "name": "getListAddressMilkHub",
      "outputs": [
        {
          "internalType": "address[]",
          "name": "",
          "type": "address[]"
        }
      ],
      "stateMutability": "view",
      "type": "function"
    },
    {
      "inputs": [
        {
          "internalType": "address",
          "name": "walletMilkHub",
          "type": "address"
        },
        {
          "internalType": "uint256",
          "name": "balance",
          "type": "uint256"
        }
      ],
      "name": "updateBalance",
      "outputs": [],
      "stateMutability": "nonpayable",
      "type": "function"
    }
  ],
  "bytecode": "0x608060405234801561001057600080fd5b50336000806101000a81548173ffffffffffffffffffffffffffffffffffffffff021916908373ffffffffffffffffffffffffffffffffffffffff16021790555061241e806100606000396000f3fe608060405234801561001057600080fd5b50600436106100a95760003560e01c80636e44cd42116100715780636e44cd421461018c5780636f77926b146101bc578063a5578807146101f0578063b48ff0f114610220578063e0b1cccb1461023c578063ecca407314610258576100a9565b806306f22b04146100ae5780632b04e840146100de57806343a84e601461010e5780635c60f2261461012c57806365f68c891461015c575b600080fd5b6100c860048036038101906100c39190611827565b610288565b6040516100d591906118cd565b60405180910390f35b6100f860048036038101906100f3919061191e565b6103ab565b604051610105919061196d565b60405180910390f35b610116610657565b6040516101239190611a46565b60405180910390f35b61014660048036038101906101419190611a68565b6106e5565b60405161015391906118cd565b60405180910390f35b61017660048036038101906101719190611a68565b6107d8565b604051610183919061196d565b60405180910390f35b6101a660048036038101906101a1919061191e565b6109fe565b6040516101b39190611b14565b60405180910390f35b6101d660048036038101906101d19190611a68565b610caa565b6040516101e7959493929190611b36565b60405180910390f35b61020a60048036038101906102059190611a68565b610ef7565b60405161021791906118cd565b60405180910390f35b61023a60048036038101906102359190611b9e565b610f46565b005b6102566004803603810190610251919061191e565b61123f565b005b610272600480360381019061026d919061191e565b61128a565b60405161027f9190611b14565b60405180910390f35b600080600160008673ffffffffffffffffffffffffffffffffffffffff1673ffffffffffffffffffffffffffffffffffffffff1681526020019081526020016000209050600384846040516020016102e1929190611c95565b6040516020818303038152906040526040516102fd9190611d00565b602060405180830381855afa15801561031a573d6000803e3d6000fd5b5050506040515160601b6bffffffffffffffffffffffff19166003826003018360020160405160200161034e929190611e0f565b60405160208183030381529060405260405161036a9190611d00565b602060405180830381855afa158015610387573d6000803e3d6000fd5b5050506040515160601b6bffffffffffffffffffffffff1916149150509392505050565b600081600160008573ffffffffffffffffffffffffffffffffffffffff1673ffffffffffffffffffffffffffffffffffffffff1681526020019081526020016000206000015414610431576040517f08c379a000000000000000000000000000000000000000000000000000000000815260040161042890611e7f565b60405180910390fd5b6000600160008573ffffffffffffffffffffffffffffffffffffffff1673ffffffffffffffffffffffffffffffffffffffff1681526020019081526020016000206040518060a00160405290816000820154815260200160018201805461049790611d46565b80601f01602080910402602001604051908101604052809291908181526020018280546104c390611d46565b80156105105780601f106104e557610100808354040283529160200191610510565b820191906000526020600020905b8154815290600101906020018083116104f357829003601f168201915b5050505050815260200160028201805461052990611d46565b80601f016020809104026020016040519081016040528092919081815260200182805461055590611d46565b80156105a25780601f10610577576101008083540402835291602001916105a2565b820191906000526020600020905b81548152906001019060200180831161058557829003601f168201915b505050505081526020016003820180546105bb90611d46565b80601f01602080910402602001604051908101604052809291908181526020018280546105e790611d46565b80156106345780601f1061060957610100808354040283529160200191610634565b820191906000526020600020905b81548152906001019060200180831161061757829003601f168201915b505050505081526020016004820154815250509050806080015191505092915050565b606060028054806020026020016040519081016040528092919081815260200182805480156106db57602002820191906000526020600020905b8160009054906101000a900473ffffffffffffffffffffffffffffffffffffffff1673ffffffffffffffffffffffffffffffffffffffff1681526020019060010190808311610691575b5050505050905090565b6000600160008373ffffffffffffffffffffffffffffffffffffffff1673ffffffffffffffffffffffffffffffffffffffff16815260200190815260200160002060008082016000905560018201600061073f9190611612565b60028201600061074f9190611612565b60038201600061075f9190611612565b600482016000905550506000600160008473ffffffffffffffffffffffffffffffffffffffff1673ffffffffffffffffffffffffffffffffffffffff168152602001908152602001600020600001541480156107c057506107bf82611536565b5b156107ce57600190506107d3565b600090505b919050565b600080600160008473ffffffffffffffffffffffffffffffffffffffff1673ffffffffffffffffffffffffffffffffffffffff1681526020019081526020016000206040518060a00160405290816000820154815260200160018201805461083f90611d46565b80601f016020809104026020016040519081016040528092919081815260200182805461086b90611d46565b80156108b85780601f1061088d576101008083540402835291602001916108b8565b820191906000526020600020905b81548152906001019060200180831161089b57829003601f168201915b505050505081526020016002820180546108d190611d46565b80601f01602080910402602001604051908101604052809291908181526020018280546108fd90611d46565b801561094a5780601f1061091f5761010080835404028352916020019161094a565b820191906000526020600020905b81548152906001019060200180831161092d57829003601f168201915b5050505050815260200160038201805461096390611d46565b80601f016020809104026020016040519081016040528092919081815260200182805461098f90611d46565b80156109dc5780601f106109b1576101008083540402835291602001916109dc565b820191906000526020600020905b8154815290600101906020018083116109bf57829003601f168201915b5050505050815260200160048201548152505090508060000151915050919050565b606081600160008573ffffffffffffffffffffffffffffffffffffffff1673ffffffffffffffffffffffffffffffffffffffff1681526020019081526020016000206000015414610a84576040517f08c379a0000000000000000000000000000000000000000000000000000000008152600401610a7b90611e7f565b60405180910390fd5b6000600160008573ffffffffffffffffffffffffffffffffffffffff1673ffffffffffffffffffffffffffffffffffffffff1681526020019081526020016000206040518060a001604052908160008201548152602001600182018054610aea90611d46565b80601f0160208091040260200160405190810160405280929190818152602001828054610b1690611d46565b8015610b635780601f10610b3857610100808354040283529160200191610b63565b820191906000526020600020905b815481529060010190602001808311610b4657829003601f168201915b50505050508152602001600282018054610b7c90611d46565b80601f0160208091040260200160405190810160405280929190818152602001828054610ba890611d46565b8015610bf55780601f10610bca57610100808354040283529160200191610bf5565b820191906000526020600020905b815481529060010190602001808311610bd857829003601f168201915b50505050508152602001600382018054610c0e90611d46565b80601f0160208091040260200160405190810160405280929190818152602001828054610c3a90611d46565b8015610c875780601f10610c5c57610100808354040283529160200191610c87565b820191906000526020600020905b815481529060010190602001808311610c6a57829003601f168201915b505050505081526020016004820154815250509050806020015191505092915050565b60006060806060600080600160008873ffffffffffffffffffffffffffffffffffffffff1673ffffffffffffffffffffffffffffffffffffffff1681526020019081526020016000206040518060a001604052908160008201548152602001600182018054610d1890611d46565b80601f0160208091040260200160405190810160405280929190818152602001828054610d4490611d46565b8015610d915780601f10610d6657610100808354040283529160200191610d91565b820191906000526020600020905b815481529060010190602001808311610d7457829003601f168201915b50505050508152602001600282018054610daa90611d46565b80601f0160208091040260200160405190810160405280929190818152602001828054610dd690611d46565b8015610e235780601f10610df857610100808354040283529160200191610e23565b820191906000526020600020905b815481529060010190602001808311610e0657829003601f168201915b50505050508152602001600382018054610e3c90611d46565b80601f0160208091040260200160405190810160405280929190818152602001828054610e6890611d46565b8015610eb55780601f10610e8a57610100808354040283529160200191610eb5565b820191906000526020600020905b815481529060010190602001808311610e9857829003601f168201915b50505050508152602001600482015481525050905080600001518160200151826040015183606001518460800151955095509550955095505091939590929450565b600080600160008473ffffffffffffffffffffffffffffffffffffffff1673ffffffffffffffffffffffffffffffffffffffff1681526020019081526020016000206000015414159050919050565b6000600385858585604051602001610f619493929190611ee7565b604051602081830303815290604052604051610f7d9190611d00565b602060405180830381855afa158015610f9a573d6000803e3d6000fd5b5050506040515160601b6bffffffffffffffffffffffff1916905060008160001c90506000600160008573ffffffffffffffffffffffffffffffffffffffff1673ffffffffffffffffffffffffffffffffffffffff1681526020019081526020016000206000015414611042576040517f08c379a000000000000000000000000000000000000000000000000000000000815260040161103990611f75565b60405180910390fd5b6000865111611086576040517f08c379a000000000000000000000000000000000000000000000000000000000815260040161107d90611fe1565b60405180910390fd5b60008551116110ca576040517f08c379a00000000000000000000000000000000000000000000000000000000081526004016110c19061204d565b60405180910390fd5b600084511161110e576040517f08c379a0000000000000000000000000000000000000000000000000000000008152600401611105906120b9565b60405180910390fd5b60006040518060a00160405280838152602001888152602001878152602001868152602001606481525090506002849080600181540180825580915050600190039060005260206000200160009091909190916101000a81548173ffffffffffffffffffffffffffffffffffffffff021916908373ffffffffffffffffffffffffffffffffffffffff16021790555080600160008673ffffffffffffffffffffffffffffffffffffffff1673ffffffffffffffffffffffffffffffffffffffff1681526020019081526020016000206000820151816000015560208201518160010190816111fc9190612270565b5060408201518160020190816112129190612270565b5060608201518160030190816112289190612270565b506080820151816004015590505050505050505050565b80600160008473ffffffffffffffffffffffffffffffffffffffff1673ffffffffffffffffffffffffffffffffffffffff168152602001908152602001600020600401819055505050565b606081600160008573ffffffffffffffffffffffffffffffffffffffff1673ffffffffffffffffffffffffffffffffffffffff1681526020019081526020016000206000015414611310576040517f08c379a000000000000000000000000000000000000000000000000000000000815260040161130790611e7f565b60405180910390fd5b6000600160008573ffffffffffffffffffffffffffffffffffffffff1673ffffffffffffffffffffffffffffffffffffffff1681526020019081526020016000206040518060a00160405290816000820154815260200160018201805461137690611d46565b80601f01602080910402602001604051908101604052809291908181526020018280546113a290611d46565b80156113ef5780601f106113c4576101008083540402835291602001916113ef565b820191906000526020600020905b8154815290600101906020018083116113d257829003601f168201915b5050505050815260200160028201805461140890611d46565b80601f016020809104026020016040519081016040528092919081815260200182805461143490611d46565b80156114815780601f1061145657610100808354040283529160200191611481565b820191906000526020600020905b81548152906001019060200180831161146457829003601f168201915b5050505050815260200160038201805461149a90611d46565b80601f01602080910402602001604051908101604052809291908181526020018280546114c690611d46565b80156115135780601f106114e857610100808354040283529160200191611513565b820191906000526020600020905b8154815290600101906020018083116114f657829003601f168201915b505050505081526020016004820154815250509050806060015191505092915050565b600080600090505b8273ffffffffffffffffffffffffffffffffffffffff166002828154811061156957611568612342565b5b9060005260206000200160009054906101000a900473ffffffffffffffffffffffffffffffffffffffff1673ffffffffffffffffffffffffffffffffffffffff16036115fa57600281815481106115c3576115c2612342565b5b9060005260206000200160006101000a81549073ffffffffffffffffffffffffffffffffffffffff0219169055600191505061160d565b8080611605906123a0565b91505061153e565b919050565b50805461161e90611d46565b6000825580601f10611630575061164f565b601f01602090049060005260206000209081019061164e9190611652565b5b50565b5b8082111561166b576000816000905550600101611653565b5090565b6000604051905090565b600080fd5b600080fd5b600073ffffffffffffffffffffffffffffffffffffffff82169050919050565b60006116ae82611683565b9050919050565b6116be816116a3565b81146116c957600080fd5b50565b6000813590506116db816116b5565b92915050565b600080fd5b600080fd5b6000601f19601f8301169050919050565b7f4e487b7100000000000000000000000000000000000000000000000000000000600052604160045260246000fd5b611734826116eb565b810181811067ffffffffffffffff82111715611753576117526116fc565b5b80604052505050565b600061176661166f565b9050611772828261172b565b919050565b600067ffffffffffffffff821115611792576117916116fc565b5b61179b826116eb565b9050602081019050919050565b82818337600083830152505050565b60006117ca6117c584611777565b61175c565b9050828152602081018484840111156117e6576117e56116e6565b5b6117f18482856117a8565b509392505050565b600082601f83011261180e5761180d6116e1565b5b813561181e8482602086016117b7565b91505092915050565b6000806000606084860312156118405761183f611679565b5b600061184e868287016116cc565b935050602084013567ffffffffffffffff81111561186f5761186e61167e565b5b61187b868287016117f9565b925050604084013567ffffffffffffffff81111561189c5761189b61167e565b5b6118a8868287016117f9565b9150509250925092565b60008115159050919050565b6118c7816118b2565b82525050565b60006020820190506118e260008301846118be565b92915050565b6000819050919050565b6118fb816118e8565b811461190657600080fd5b50565b600081359050611918816118f2565b92915050565b6000806040838503121561193557611934611679565b5b6000611943858286016116cc565b925050602061195485828601611909565b9150509250929050565b611967816118e8565b82525050565b6000602082019050611982600083018461195e565b92915050565b600081519050919050565b600082825260208201905092915050565b6000819050602082019050919050565b6119bd816116a3565b82525050565b60006119cf83836119b4565b60208301905092915050565b6000602082019050919050565b60006119f382611988565b6119fd8185611993565b9350611a08836119a4565b8060005b83811015611a39578151611a2088826119c3565b9750611a2b836119db565b925050600181019050611a0c565b5085935050505092915050565b60006020820190508181036000830152611a6081846119e8565b905092915050565b600060208284031215611a7e57611a7d611679565b5b6000611a8c848285016116cc565b91505092915050565b600081519050919050565b600082825260208201905092915050565b60005b83811015611acf578082015181840152602081019050611ab4565b60008484015250505050565b6000611ae682611a95565b611af08185611aa0565b9350611b00818560208601611ab1565b611b09816116eb565b840191505092915050565b60006020820190508181036000830152611b2e8184611adb565b905092915050565b600060a082019050611b4b600083018861195e565b8181036020830152611b5d8187611adb565b90508181036040830152611b718186611adb565b90508181036060830152611b858185611adb565b9050611b94608083018461195e565b9695505050505050565b60008060008060808587031215611bb857611bb7611679565b5b600085013567ffffffffffffffff811115611bd657611bd561167e565b5b611be2878288016117f9565b945050602085013567ffffffffffffffff811115611c0357611c0261167e565b5b611c0f878288016117f9565b935050604085013567ffffffffffffffff811115611c3057611c2f61167e565b5b611c3c878288016117f9565b9250506060611c4d878288016116cc565b91505092959194509250565b600081905092915050565b6000611c6f82611a95565b611c798185611c59565b9350611c89818560208601611ab1565b80840191505092915050565b6000611ca18285611c64565b9150611cad8284611c64565b91508190509392505050565b600081519050919050565b600081905092915050565b6000611cda82611cb9565b611ce48185611cc4565b9350611cf4818560208601611ab1565b80840191505092915050565b6000611d0c8284611ccf565b915081905092915050565b7f4e487b7100000000000000000000000000000000000000000000000000000000600052602260045260246000fd5b60006002820490506001821680611d5e57607f821691505b602082108103611d7157611d70611d17565b5b50919050565b60008190508160005260206000209050919050565b60008154611d9981611d46565b611da38186611c59565b94506001821660008114611dbe5760018114611dd357611e06565b60ff1983168652811515820286019350611e06565b611ddc85611d77565b60005b83811015611dfe57815481890152600182019150602081019050611ddf565b838801955050505b50505092915050565b6000611e1b8285611d8c565b9150611e278284611d8c565b91508190509392505050565b7f4944206e6f742056616c69642100000000000000000000000000000000000000600082015250565b6000611e69600d83611aa0565b9150611e7482611e33565b602082019050919050565b60006020820190508181036000830152611e9881611e5c565b9050919050565b60008160601b9050919050565b6000611eb782611e9f565b9050919050565b6000611ec982611eac565b9050919050565b611ee1611edc826116a3565b611ebe565b82525050565b6000611ef38287611c64565b9150611eff8286611c64565b9150611f0b8285611c64565b9150611f178284611ed0565b60148201915081905095945050505050565b7f4d696c6b48756220616c72656164792072656769737465726564000000000000600082015250565b6000611f5f601a83611aa0565b9150611f6a82611f29565b602082019050919050565b60006020820190508181036000830152611f8e81611f52565b9050919050565b7f46756c6c206e616d652063616e6e6f7420626520656d70747900000000000000600082015250565b6000611fcb601983611aa0565b9150611fd682611f95565b602082019050919050565b60006020820190508181036000830152611ffa81611fbe565b9050919050565b7f50617373776f72642063616e6e6f7420626520656d7074790000000000000000600082015250565b6000612037601883611aa0565b915061204282612001565b602082019050919050565b600060208201905081810360008301526120668161202a565b9050919050565b7f456d61696c2063616e6e6f7420626520656d7074790000000000000000000000600082015250565b60006120a3601583611aa0565b91506120ae8261206d565b602082019050919050565b600060208201905081810360008301526120d281612096565b9050919050565b60006020601f8301049050919050565b600082821b905092915050565b6000600883026121267fffffffffffffffffffffffffffffffffffffffffffffffffffffffffffffffff826120e9565b61213086836120e9565b95508019841693508086168417925050509392505050565b6000819050919050565b600061216d612168612163846118e8565b612148565b6118e8565b9050919050565b6000819050919050565b61218783612152565b61219b61219382612174565b8484546120f6565b825550505050565b600090565b6121b06121a3565b6121bb81848461217e565b505050565b5b818110156121df576121d46000826121a8565b6001810190506121c1565b5050565b601f821115612224576121f581611d77565b6121fe846120d9565b8101602085101561220d578190505b612221612219856120d9565b8301826121c0565b50505b505050565b600082821c905092915050565b600061224760001984600802612229565b1980831691505092915050565b60006122608383612236565b9150826002028217905092915050565b61227982611a95565b67ffffffffffffffff811115612292576122916116fc565b5b61229c8254611d46565b6122a78282856121e3565b600060209050601f8311600181146122da57600084156122c8578287015190505b6122d28582612254565b86555061233a565b601f1984166122e886611d77565b60005b82811015612310578489015182556001820191506020850194506020810190506122eb565b8683101561232d5784890151612329601f891682612236565b8355505b6001600288020188555050505b505050505050565b7f4e487b7100000000000000000000000000000000000000000000000000000000600052603260045260246000fd5b7f4e487b7100000000000000000000000000000000000000000000000000000000600052601160045260246000fd5b60006123ab826118e8565b91507fffffffffffffffffffffffffffffffffffffffffffffffffffffffffffffffff82036123dd576123dc612371565b5b60018201905091905056fea26469706673582212200221b693b79d270807bd610e916835b62da10056f8fd167a09fac0679e00e0fa64736f6c63430008180033",
  "immutableReferences": {},
  "source": "//SPDX-License-Identifier: MIT\r\npragma solidity ^0.8.21;\r\n\r\n\r\nimport \"../IUserStorageInterface.sol\";\r\n\r\ncontract MilkHubStorage is IUserStorageInterface {\r\n\r\n    // Address of Organization che gestisce gli utenti\r\n    address private  MilkHubOrg;\r\n\r\n\r\n    constructor(){\r\n        MilkHubOrg = msg.sender;\r\n    }\r\n\r\n\r\n    // Struttura per rappresentare gli attributi di un consumatore\r\n    struct MilkHub {\r\n        uint256 id;\r\n        string fullName;\r\n        string password; // Si presume che sia gi crittografata dal Front-End\r\n        string email;\r\n        uint256 balance;\r\n    }\r\n\r\n    // Mapping che collega l'indirizzo del portafoglio (wallet address) ai dati del consumatore\r\n    mapping(address => MilkHub) private  milkhubs;\r\n\r\n    address[ ] private addressList;\r\n\r\n    /**\r\n     * addUser() effettuiamo la registrazione dell'utente MilkHub \r\n     */\r\n    function addUser(string memory _fullName, string memory _password,string memory _email, address walletMilkHub) external {\r\n                \r\n        // Genera l'ID manualmente utilizzando keccak256\r\n        bytes32 idHash = ripemd160(abi.encodePacked(_fullName, _password, _email, walletMilkHub)); // Produce un hash di 20 byte\r\n        uint256 lastIdMilkHub = uint256(idHash);\r\n\r\n        require(milkhubs[walletMilkHub].id == 0, \"MilkHub already registered\");\r\n        require(bytes(_fullName).length > 0, \"Full name cannot be empty\");\r\n        require(bytes(_password).length > 0, \"Password cannot be empty\");\r\n        require(bytes(_email).length > 0, \"Email cannot be empty\");\r\n        \r\n        // Crea un nuovo consumatore con l'ID univoco\r\n        MilkHub memory newMilkHub = MilkHub({\r\n            id: lastIdMilkHub,\r\n            fullName: _fullName,\r\n            password: _password,\r\n            email: _email,\r\n            balance: 100\r\n        });\r\n        // Inserisco l'address \r\n        addressList.push(walletMilkHub);\r\n\r\n        // Inserisce il nuovo consumer all'interno della Lista dei Consumer \r\n        milkhubs[walletMilkHub] = newMilkHub;\r\n    }\r\n\r\n    /**\r\n     * LoginUser() effettua il login dell'utente \r\n     * La comparazione Hash tra (email e password) di input e quelli salvati\r\n     * return true se la comparazione  vera, La comparazione  falsa se l'hashing non risulta valido\r\n     */\r\n    function loginUser(address walletMilkHub, string memory _email, string memory _password) external view returns(bool){\r\n\r\n        // Recupero il MilkHub \r\n        MilkHub storage milkhub = milkhubs[walletMilkHub];\r\n        \r\n        // Verifico che l'email e la password hashate sono uguali tra di loro \r\n        return ripemd160(abi.encodePacked(milkhub.email, milkhub.password)) == ripemd160(abi.encodePacked(_email, _password));\r\n    }\r\n\r\n    // Funzione per eliminare il Consumer dato il suo indirizzo del wallet \r\n    function deleteUser(address walletMilkHub) external returns(bool){\r\n\r\n        delete milkhubs[walletMilkHub];\r\n\r\n        if(milkhubs[walletMilkHub].id == 0 && deleteMilkHubFromList(walletMilkHub)){\r\n            return true;\r\n        }else {\r\n            return false;\r\n        }\r\n    }\r\n\r\n    function deleteMilkHubFromList(address walletMilkHub)internal returns (bool) {\r\n        for(uint256 i=0; ; i++){\r\n            if(addressList[i] == walletMilkHub){\r\n                delete  addressList[i];\r\n                return true;\r\n            }\r\n        }\r\n        return false;\r\n    }\r\n\r\n    // Check if exist the User \r\n    function isUserPresent(address walletMilkHub) external view returns(bool){\r\n\r\n        return milkhubs[walletMilkHub].id!=0;\r\n    }\r\n\r\n//---------------------------------------------------- MilkHub Get and Set Function --------------------------------------------------//\r\n\r\n    /**\r\n        - Funzione getId() attraverso l'address del MilkHub riusciamo a recuperare il suo ID\r\n    */\r\n    function getId(address walletMilkHub) external view  returns(uint256){\r\n        MilkHub memory milkhub = milkhubs[walletMilkHub];\r\n        return milkhub.id;\r\n    }\r\n\r\n    /**\r\n        - Funzione getFullName() attraverso l'address del MilkHub riusciamo a recuperare il suo FullName\r\n    */\r\n    function getFullName(address walletMilkHub, uint256 _id) external view  returns(string memory){\r\n        require(milkhubs[walletMilkHub].id ==_id,\"ID not Valid!\");\r\n        \r\n        MilkHub memory milkhub = milkhubs[walletMilkHub];\r\n        return milkhub.fullName;\r\n    }\r\n\r\n    /**\r\n        - Funzione getEmail() attraverso l'address del MilkHub riusciamo a recuperare la sua Email \r\n    */\r\n    function getEmail(address walletMilkHub, uint256 _id) external view  returns(string memory){\r\n        require(milkhubs[walletMilkHub].id==_id,\"ID not Valid!\");\r\n        MilkHub memory milkhub = milkhubs[walletMilkHub];\r\n        return milkhub.email;\r\n    }\r\n\r\n    /**\r\n        - Funzione getBalance() attraverso l'address del MilkHub riusciamo a recuperare il suo Balance\r\n    */\r\n    function getBalance(address walletMilkHub, uint256 _id) external view  returns(uint256){\r\n        require(milkhubs[walletMilkHub].id == _id,\"ID not Valid!\");\r\n\r\n        MilkHub memory milkhub = milkhubs[walletMilkHub];\r\n        return milkhub.balance;\r\n    }\r\n\r\n    /**\r\n     * getUser(walletMilkHub) : \r\n     * MilkHub visualizza le sue informazioni principali\r\n     * - email, password , fullName , balance \r\n     */\r\n    function getUser(address walletMilkHub) external view returns (uint256, string memory, string memory, string memory, uint256) {\r\n\r\n        MilkHub memory milkhub = milkhubs[walletMilkHub];\r\n\r\n        // Restituisce i dati del consumatore\r\n        return (\r\n            milkhub.id,\r\n         milkhub.fullName,\r\n          milkhub.password,\r\n           milkhub.email,\r\n            milkhub.balance\r\n            );\r\n    }\r\n\r\n    /**\r\n    *Ritorna la Lista degli address\r\n    */\r\n    function getListAddressMilkHub() external view returns (address [] memory){  \r\n        return addressList;\r\n    }\r\n\r\n    // - Funzione updateBalance() attraverso l'address e l'id, riusciamo a settare il nuovo balance\r\n    function updateBalance(address walletMilkHub, uint256 balance) external{\r\n        // Update Balance \r\n        milkhubs[walletMilkHub].balance = balance;\r\n    }\r\n\r\n\r\n\r\n}   \r\n\r\n",
  "sourcePath": "C:\\Users\\umber\\Progetti\\FilieraToken\\Filiera-Token-Smart-Contract\\contracts\\Actor\\MilkHub-smart-contract\\MilkHubStorage.sol",
  "compiler": {
    "name": "solc",
    "version": "0.8.24+commit.e11b9ed9.Emscripten.clang"
  },
  "schemaVersion": "3.4.16",
  "updatedAt": "2024-03-02T00:21:26.062Z",
  "devdoc": {
    "kind": "dev",
    "methods": {},
    "version": 1
  },
  "userdoc": {
    "kind": "user",
    "methods": {
      "addUser(string,string,string,address)": {
        "notice": "addUser() effettuiamo la registrazione dell'utente MilkHub "
      },
      "getBalance(address,uint256)": {
        "notice": "- Funzione getBalance() attraverso l'address del MilkHub riusciamo a recuperare il suo Balance"
      },
      "getEmail(address,uint256)": {
        "notice": "- Funzione getEmail() attraverso l'address del MilkHub riusciamo a recuperare la sua Email "
      },
      "getFullName(address,uint256)": {
        "notice": "- Funzione getFullName() attraverso l'address del MilkHub riusciamo a recuperare il suo FullName"
      },
      "getId(address)": {
        "notice": "- Funzione getId() attraverso l'address del MilkHub riusciamo a recuperare il suo ID"
      },
      "getListAddressMilkHub()": {
        "notice": "Ritorna la Lista degli address"
      },
      "getUser(address)": {
        "notice": "getUser(walletMilkHub) :  MilkHub visualizza le sue informazioni principali - email, password , fullName , balance "
      },
      "loginUser(address,string,string)": {
        "notice": "LoginUser() effettua il login dell'utente  La comparazione Hash tra (email e password) di input e quelli salvati return true se la comparazione  vera, La comparazione  falsa se l'hashing non risulta valido"
      }
    },
    "version": 1
  }
}