{
  "contractName": "MilkHubInventoryService",
  "abi": [
    {
      "inputs": [
        {
          "internalType": "address",
          "name": "_milkhubInventoryStorage",
          "type": "address"
        },
        {
          "internalType": "address",
          "name": "_milkhubService",
          "type": "address"
        },
        {
          "internalType": "address",
          "name": "_accessControlProduct",
          "type": "address"
        }
      ],
      "stateMutability": "nonpayable",
      "type": "constructor"
    },
    {
      "anonymous": false,
      "inputs": [
        {
          "indexed": true,
          "internalType": "address",
          "name": "userAddress",
          "type": "address"
        },
        {
          "indexed": false,
          "internalType": "uint256",
          "name": "id",
          "type": "uint256"
        },
        {
          "indexed": false,
          "internalType": "string",
          "name": "message",
          "type": "string"
        },
        {
          "indexed": false,
          "internalType": "string",
          "name": "scadenza",
          "type": "string"
        },
        {
          "indexed": false,
          "internalType": "uint256",
          "name": "quantity",
          "type": "uint256"
        },
        {
          "indexed": false,
          "internalType": "uint256",
          "name": "price",
          "type": "uint256"
        }
      ],
      "name": "MilkBatchAdded",
      "type": "event"
    },
    {
      "anonymous": false,
      "inputs": [
        {
          "indexed": true,
          "internalType": "address",
          "name": "userAddress",
          "type": "address"
        },
        {
          "indexed": true,
          "internalType": "uint256",
          "name": "id",
          "type": "uint256"
        },
        {
          "indexed": false,
          "internalType": "string",
          "name": "message",
          "type": "string"
        }
      ],
      "name": "MilkBatchDeleted",
      "type": "event"
    },
    {
      "anonymous": false,
      "inputs": [
        {
          "indexed": true,
          "internalType": "address",
          "name": "userAddress",
          "type": "address"
        },
        {
          "indexed": false,
          "internalType": "string",
          "name": "message",
          "type": "string"
        },
        {
          "indexed": false,
          "internalType": "uint256",
          "name": "quantity",
          "type": "uint256"
        }
      ],
      "name": "MilkBatchEdited",
      "type": "event"
    },
    {
      "anonymous": false,
      "inputs": [
        {
          "indexed": false,
          "internalType": "string",
          "name": "errorMessage",
          "type": "string"
        }
      ],
      "name": "UserDenied",
      "type": "event"
    },
    {
      "inputs": [
        {
          "internalType": "address",
          "name": "_milkhubInventoryStorage",
          "type": "address"
        }
      ],
      "name": "changeMilkHubInventoryStorage",
      "outputs": [],
      "stateMutability": "nonpayable",
      "type": "function"
    },
    {
      "inputs": [
        {
          "internalType": "address",
          "name": "_milkhubService",
          "type": "address"
        }
      ],
      "name": "changeMilkHubService",
      "outputs": [],
      "stateMutability": "nonpayable",
      "type": "function"
    },
    {
      "inputs": [
        {
          "internalType": "string",
          "name": "_scadenza",
          "type": "string"
        },
        {
          "internalType": "uint256",
          "name": "_quantity",
          "type": "uint256"
        },
        {
          "internalType": "uint256",
          "name": "_price",
          "type": "uint256"
        },
        {
          "internalType": "address",
          "name": "walletMilkHub",
          "type": "address"
        }
      ],
      "name": "addMilkBatch",
      "outputs": [],
      "stateMutability": "nonpayable",
      "type": "function"
    },
    {
      "inputs": [
        {
          "internalType": "uint256",
          "name": "_id",
          "type": "uint256"
        },
        {
          "internalType": "address",
          "name": "walletMilkHub",
          "type": "address"
        }
      ],
      "name": "getMilkBatch",
      "outputs": [
        {
          "internalType": "uint256",
          "name": "",
          "type": "uint256"
        },
        {
          "internalType": "string",
          "name": "",
          "type": "string"
        },
        {
          "internalType": "uint256",
          "name": "",
          "type": "uint256"
        },
        {
          "internalType": "uint256",
          "name": "",
          "type": "uint256"
        }
      ],
      "stateMutability": "view",
      "type": "function"
    },
    {
      "inputs": [
        {
          "internalType": "uint256",
          "name": "_id",
          "type": "uint256"
        },
        {
          "internalType": "address",
          "name": "walletMilkHub",
          "type": "address"
        }
      ],
      "name": "deleteMilkBatch",
      "outputs": [
        {
          "internalType": "bool",
          "name": "value",
          "type": "bool"
        }
      ],
      "stateMutability": "nonpayable",
      "type": "function"
    },
    {
      "inputs": [
        {
          "internalType": "address",
          "name": "walletMilkHub",
          "type": "address"
        }
      ],
      "name": "getMilkBatchListByMilkHub",
      "outputs": [
        {
          "components": [
            {
              "internalType": "uint256",
              "name": "id",
              "type": "uint256"
            },
            {
              "internalType": "string",
              "name": "scadenza",
              "type": "string"
            },
            {
              "internalType": "uint256",
              "name": "quantity",
              "type": "uint256"
            },
            {
              "internalType": "uint256",
              "name": "price",
              "type": "uint256"
            }
          ],
          "internalType": "struct MilkHubInventoryStorage.MilkBatch[]",
          "name": "",
          "type": "tuple[]"
        }
      ],
      "stateMutability": "view",
      "type": "function"
    },
    {
      "inputs": [
        {
          "internalType": "address",
          "name": "walletCheeseProducer",
          "type": "address"
        }
      ],
      "name": "getAllMilkBatchList",
      "outputs": [
        {
          "components": [
            {
              "internalType": "uint256",
              "name": "id",
              "type": "uint256"
            },
            {
              "internalType": "string",
              "name": "scadenza",
              "type": "string"
            },
            {
              "internalType": "uint256",
              "name": "quantity",
              "type": "uint256"
            },
            {
              "internalType": "uint256",
              "name": "price",
              "type": "uint256"
            }
          ],
          "internalType": "struct MilkHubInventoryStorage.MilkBatch[]",
          "name": "",
          "type": "tuple[]"
        }
      ],
      "stateMutability": "view",
      "type": "function"
    },
    {
      "inputs": [
        {
          "internalType": "address",
          "name": "ownerMilkBatch",
          "type": "address"
        },
        {
          "internalType": "uint256",
          "name": "_id_MilkBatch",
          "type": "uint256"
        },
        {
          "internalType": "uint256",
          "name": "quantityToBuy",
          "type": "uint256"
        }
      ],
      "name": "checkProductToSell",
      "outputs": [
        {
          "internalType": "bool",
          "name": "",
          "type": "bool"
        }
      ],
      "stateMutability": "view",
      "type": "function"
    },
    {
      "inputs": [
        {
          "internalType": "address",
          "name": "walletMilkHub",
          "type": "address"
        },
        {
          "internalType": "uint256",
          "name": "_id",
          "type": "uint256"
        }
      ],
      "name": "getMilkBatchExpirationDate",
      "outputs": [
        {
          "internalType": "string",
          "name": "",
          "type": "string"
        }
      ],
      "stateMutability": "view",
      "type": "function"
    },
    {
      "inputs": [
        {
          "internalType": "address",
          "name": "walletMilkHub",
          "type": "address"
        },
        {
          "internalType": "uint256",
          "name": "_id",
          "type": "uint256"
        }
      ],
      "name": "getMilkBatchQuantity",
      "outputs": [
        {
          "internalType": "uint256",
          "name": "",
          "type": "uint256"
        }
      ],
      "stateMutability": "view",
      "type": "function"
    },
    {
      "inputs": [
        {
          "internalType": "address",
          "name": "walletMilkHub",
          "type": "address"
        },
        {
          "internalType": "uint256",
          "name": "_id",
          "type": "uint256"
        }
      ],
      "name": "getMilkBatchPrice",
      "outputs": [
        {
          "internalType": "uint256",
          "name": "",
          "type": "uint256"
        }
      ],
      "stateMutability": "view",
      "type": "function"
    },
    {
      "inputs": [
        {
          "internalType": "address",
          "name": "walletMilkHub",
          "type": "address"
        },
        {
          "internalType": "uint256",
          "name": "_id",
          "type": "uint256"
        }
      ],
      "name": "isMilkBatchPresent",
      "outputs": [
        {
          "internalType": "bool",
          "name": "",
          "type": "bool"
        }
      ],
      "stateMutability": "view",
      "type": "function"
    },
    {
      "inputs": [
        {
          "internalType": "address",
          "name": "ownerMilkHub",
          "type": "address"
        },
        {
          "internalType": "uint256",
          "name": "_id",
          "type": "uint256"
        },
        {
          "internalType": "uint256",
          "name": "_quantity",
          "type": "uint256"
        }
      ],
      "name": "updateMilkBatchQuantity",
      "outputs": [],
      "stateMutability": "nonpayable",
      "type": "function"
    }
  ],
  "bytecode": "0x60806040523480156200001157600080fd5b50604051620040c4380380620040c48339818101604052810190620000379190620001ad565b336000806101000a81548173ffffffffffffffffffffffffffffffffffffffff021916908373ffffffffffffffffffffffffffffffffffffffff16021790555082600160006101000a81548173ffffffffffffffffffffffffffffffffffffffff021916908373ffffffffffffffffffffffffffffffffffffffff16021790555081600260006101000a81548173ffffffffffffffffffffffffffffffffffffffff021916908373ffffffffffffffffffffffffffffffffffffffff16021790555080600360006101000a81548173ffffffffffffffffffffffffffffffffffffffff021916908373ffffffffffffffffffffffffffffffffffffffff16021790555050505062000209565b600080fd5b600073ffffffffffffffffffffffffffffffffffffffff82169050919050565b6000620001758262000148565b9050919050565b620001878162000168565b81146200019357600080fd5b50565b600081519050620001a7816200017c565b92915050565b600080600060608486031215620001c957620001c862000143565b5b6000620001d98682870162000196565b9350506020620001ec8682870162000196565b9250506040620001ff8682870162000196565b9150509250925092565b613eab80620002196000396000f3fe608060405234801561001057600080fd5b50600436106100ce5760003560e01c80634eca9b1c1161008c5780636fb6c96e116100665780636fb6c96e1461025e578063cb6f5eee1461028e578063d1f2c4a2146102aa578063d4bb2238146102da576100ce565b80634eca9b1c146101e257806355bbc2371461021257806365a3ed941461022e576100ce565b8062ef1862146100d357806301aebdf51461010357806302d805f61461013357806328968f25146101635780632e330ac11461017f57806336a662e4146101b2575b600080fd5b6100ed60048036038101906100e89190612c4f565b6102f6565b6040516100fa9190612d1f565b60405180910390f35b61011d60048036038101906101189190612d41565b610758565b60405161012a9190612daf565b60405180910390f35b61014d60048036038101906101489190612c4f565b6108e0565b60405161015a9190612daf565b60405180910390f35b61017d60048036038101906101789190612dca565b610ba7565b005b61019960048036038101906101949190612df7565b610beb565b6040516101a99493929190612e46565b60405180910390f35b6101cc60048036038101906101c79190612df7565b610f80565b6040516101d99190612daf565b60405180910390f35b6101fc60048036038101906101f79190612c4f565b61143d565b6040516102099190612e92565b60405180910390f35b61022c60048036038101906102279190612dca565b61189a565b005b61024860048036038101906102439190612dca565b6118de565b604051610255919061302b565b60405180910390f35b61027860048036038101906102739190612c4f565b611afe565b6040516102859190612e92565b60405180910390f35b6102a860048036038101906102a39190612d41565b611f5b565b005b6102c460048036038101906102bf9190612dca565b6123f4565b6040516102d1919061302b565b60405180910390f35b6102f460048036038101906102ef9190613182565b612798565b005b606082600073ffffffffffffffffffffffffffffffffffffffff168173ffffffffffffffffffffffffffffffffffffffff1603610368576040517f08c379a000000000000000000000000000000000000000000000000000000000815260040161035f90613251565b60405180910390fd5b600160009054906101000a900473ffffffffffffffffffffffffffffffffffffffff1673ffffffffffffffffffffffffffffffffffffffff168173ffffffffffffffffffffffffffffffffffffffff16036103f8576040517f08c379a00000000000000000000000000000000000000000000000000000000081526004016103ef906132e3565b60405180910390fd5b600260009054906101000a900473ffffffffffffffffffffffffffffffffffffffff1673ffffffffffffffffffffffffffffffffffffffff168173ffffffffffffffffffffffffffffffffffffffff1603610488576040517f08c379a000000000000000000000000000000000000000000000000000000000815260040161047f90613375565b60405180910390fd5b60008054906101000a900473ffffffffffffffffffffffffffffffffffffffff1673ffffffffffffffffffffffffffffffffffffffff168173ffffffffffffffffffffffffffffffffffffffff1603610516576040517f08c379a000000000000000000000000000000000000000000000000000000000815260040161050d90613407565b60405180910390fd5b600260009054906101000a900473ffffffffffffffffffffffffffffffffffffffff1673ffffffffffffffffffffffffffffffffffffffff1663a5578807856040518263ffffffff1660e01b81526004016105719190613436565b602060405180830381865afa15801561058e573d6000803e3d6000fd5b505050506040513d601f19601f820116820180604052508101906105b2919061347d565b6105f1576040517f08c379a00000000000000000000000000000000000000000000000000000000081526004016105e8906134f6565b60405180910390fd5b3073ffffffffffffffffffffffffffffffffffffffff166302d805f685856040518363ffffffff1660e01b815260040161062c929190613516565b602060405180830381865afa158015610649573d6000803e3d6000fd5b505050506040513d601f19601f8201168201806040525081019061066d919061347d565b6106ac576040517f08c379a00000000000000000000000000000000000000000000000000000000081526004016106a39061358b565b60405180910390fd5b600160009054906101000a900473ffffffffffffffffffffffffffffffffffffffff1673ffffffffffffffffffffffffffffffffffffffff16639f2b689885856040518363ffffffff1660e01b8152600401610709929190613516565b600060405180830381865afa158015610726573d6000803e3d6000fd5b505050506040513d6000823e3d601f19601f8201168201806040525081019061074f919061361b565b91505092915050565b60008073ffffffffffffffffffffffffffffffffffffffff163373ffffffffffffffffffffffffffffffffffffffff16036107c8576040517f08c379a00000000000000000000000000000000000000000000000000000000081526004016107bf906136b0565b60405180910390fd5b600073ffffffffffffffffffffffffffffffffffffffff168473ffffffffffffffffffffffffffffffffffffffff1603610837576040517f08c379a000000000000000000000000000000000000000000000000000000000815260040161082e906136b0565b60405180910390fd5b600160009054906101000a900473ffffffffffffffffffffffffffffffffffffffff1673ffffffffffffffffffffffffffffffffffffffff166387abc2168585856040518463ffffffff1660e01b8152600401610896939291906136d0565b602060405180830381865afa1580156108b3573d6000803e3d6000fd5b505050506040513d601f19601f820116820180604052508101906108d7919061347d565b90509392505050565b600082600073ffffffffffffffffffffffffffffffffffffffff168173ffffffffffffffffffffffffffffffffffffffff1603610952576040517f08c379a000000000000000000000000000000000000000000000000000000000815260040161094990613251565b60405180910390fd5b600160009054906101000a900473ffffffffffffffffffffffffffffffffffffffff1673ffffffffffffffffffffffffffffffffffffffff168173ffffffffffffffffffffffffffffffffffffffff16036109e2576040517f08c379a00000000000000000000000000000000000000000000000000000000081526004016109d9906132e3565b60405180910390fd5b600260009054906101000a900473ffffffffffffffffffffffffffffffffffffffff1673ffffffffffffffffffffffffffffffffffffffff168173ffffffffffffffffffffffffffffffffffffffff1603610a72576040517f08c379a0000000000000000000000000000000000000000000000000000000008152600401610a6990613375565b60405180910390fd5b60008054906101000a900473ffffffffffffffffffffffffffffffffffffffff1673ffffffffffffffffffffffffffffffffffffffff168173ffffffffffffffffffffffffffffffffffffffff1603610b00576040517f08c379a0000000000000000000000000000000000000000000000000000000008152600401610af790613407565b60405180910390fd5b600160009054906101000a900473ffffffffffffffffffffffffffffffffffffffff1673ffffffffffffffffffffffffffffffffffffffff166302d805f685856040518363ffffffff1660e01b8152600401610b5d929190613516565b602060405180830381865afa158015610b7a573d6000803e3d6000fd5b505050506040513d601f19601f82011682018060405250810190610b9e919061347d565b91505092915050565b80600260006101000a81548173ffffffffffffffffffffffffffffffffffffffff021916908373ffffffffffffffffffffffffffffffffffffffff16021790555050565b6000606060008084600073ffffffffffffffffffffffffffffffffffffffff168173ffffffffffffffffffffffffffffffffffffffff1603610c62576040517f08c379a0000000000000000000000000000000000000000000000000000000008152600401610c5990613251565b60405180910390fd5b600160009054906101000a900473ffffffffffffffffffffffffffffffffffffffff1673ffffffffffffffffffffffffffffffffffffffff168173ffffffffffffffffffffffffffffffffffffffff1603610cf2576040517f08c379a0000000000000000000000000000000000000000000000000000000008152600401610ce9906132e3565b60405180910390fd5b600260009054906101000a900473ffffffffffffffffffffffffffffffffffffffff1673ffffffffffffffffffffffffffffffffffffffff168173ffffffffffffffffffffffffffffffffffffffff1603610d82576040517f08c379a0000000000000000000000000000000000000000000000000000000008152600401610d7990613375565b60405180910390fd5b60008054906101000a900473ffffffffffffffffffffffffffffffffffffffff1673ffffffffffffffffffffffffffffffffffffffff168173ffffffffffffffffffffffffffffffffffffffff1603610e10576040517f08c379a0000000000000000000000000000000000000000000000000000000008152600401610e0790613407565b60405180910390fd5b3073ffffffffffffffffffffffffffffffffffffffff166302d805f687896040518363ffffffff1660e01b8152600401610e4b929190613516565b602060405180830381865afa158015610e68573d6000803e3d6000fd5b505050506040513d601f19601f82011682018060405250810190610e8c919061347d565b610ecb576040517f08c379a0000000000000000000000000000000000000000000000000000000008152600401610ec29061358b565b60405180910390fd5b600160009054906101000a900473ffffffffffffffffffffffffffffffffffffffff1673ffffffffffffffffffffffffffffffffffffffff1663ce4fcf2387896040518363ffffffff1660e01b8152600401610f28929190613516565b600060405180830381865afa158015610f45573d6000803e3d6000fd5b505050506040513d6000823e3d601f19601f82011682018060405250810190610f6e919061371c565b94509450945094505092959194509250565b600081600073ffffffffffffffffffffffffffffffffffffffff168173ffffffffffffffffffffffffffffffffffffffff1603610ff2576040517f08c379a0000000000000000000000000000000000000000000000000000000008152600401610fe990613251565b60405180910390fd5b600160009054906101000a900473ffffffffffffffffffffffffffffffffffffffff1673ffffffffffffffffffffffffffffffffffffffff168173ffffffffffffffffffffffffffffffffffffffff1603611082576040517f08c379a0000000000000000000000000000000000000000000000000000000008152600401611079906132e3565b60405180910390fd5b600260009054906101000a900473ffffffffffffffffffffffffffffffffffffffff1673ffffffffffffffffffffffffffffffffffffffff168173ffffffffffffffffffffffffffffffffffffffff1603611112576040517f08c379a000000000000000000000000000000000000000000000000000000000815260040161110990613375565b60405180910390fd5b60008054906101000a900473ffffffffffffffffffffffffffffffffffffffff1673ffffffffffffffffffffffffffffffffffffffff168173ffffffffffffffffffffffffffffffffffffffff16036111a0576040517f08c379a000000000000000000000000000000000000000000000000000000000815260040161119790613407565b60405180910390fd5b600260009054906101000a900473ffffffffffffffffffffffffffffffffffffffff1673ffffffffffffffffffffffffffffffffffffffff1663a5578807846040518263ffffffff1660e01b81526004016111fb9190613436565b602060405180830381865afa158015611218573d6000803e3d6000fd5b505050506040513d601f19601f8201168201806040525081019061123c919061347d565b61127b576040517f08c379a0000000000000000000000000000000000000000000000000000000008152600401611272906134f6565b60405180910390fd5b3073ffffffffffffffffffffffffffffffffffffffff166302d805f684866040518363ffffffff1660e01b81526004016112b6929190613516565b602060405180830381865afa1580156112d3573d6000803e3d6000fd5b505050506040513d601f19601f820116820180604052508101906112f7919061347d565b611336576040517f08c379a000000000000000000000000000000000000000000000000000000000815260040161132d9061358b565b60405180910390fd5b600160009054906101000a900473ffffffffffffffffffffffffffffffffffffffff1673ffffffffffffffffffffffffffffffffffffffff1663ad9c10a184866040518363ffffffff1660e01b8152600401611393929190613516565b6020604051808303816000875af11580156113b2573d6000803e3d6000fd5b505050506040513d601f19601f820116820180604052508101906113d6919061347d565b1561143157838373ffffffffffffffffffffffffffffffffffffffff167f73023b1308129567679fdb8d60eb42205aaed7699b5b7ac712deb608b061565460405161142090613811565b60405180910390a360019150611436565b600091505b5092915050565b600082600073ffffffffffffffffffffffffffffffffffffffff168173ffffffffffffffffffffffffffffffffffffffff16036114af576040517f08c379a00000000000000000000000000000000000000000000000000000000081526004016114a690613251565b60405180910390fd5b600160009054906101000a900473ffffffffffffffffffffffffffffffffffffffff1673ffffffffffffffffffffffffffffffffffffffff168173ffffffffffffffffffffffffffffffffffffffff160361153f576040517f08c379a0000000000000000000000000000000000000000000000000000000008152600401611536906132e3565b60405180910390fd5b600260009054906101000a900473ffffffffffffffffffffffffffffffffffffffff1673ffffffffffffffffffffffffffffffffffffffff168173ffffffffffffffffffffffffffffffffffffffff16036115cf576040517f08c379a00000000000000000000000000000000000000000000000000000000081526004016115c690613375565b60405180910390fd5b60008054906101000a900473ffffffffffffffffffffffffffffffffffffffff1673ffffffffffffffffffffffffffffffffffffffff168173ffffffffffffffffffffffffffffffffffffffff160361165d576040517f08c379a000000000000000000000000000000000000000000000000000000000815260040161165490613407565b60405180910390fd5b600260009054906101000a900473ffffffffffffffffffffffffffffffffffffffff1673ffffffffffffffffffffffffffffffffffffffff1663a5578807856040518263ffffffff1660e01b81526004016116b89190613436565b602060405180830381865afa1580156116d5573d6000803e3d6000fd5b505050506040513d601f19601f820116820180604052508101906116f9919061347d565b611738576040517f08c379a000000000000000000000000000000000000000000000000000000000815260040161172f906134f6565b60405180910390fd5b3073ffffffffffffffffffffffffffffffffffffffff166302d805f685856040518363ffffffff1660e01b8152600401611773929190613516565b602060405180830381865afa158015611790573d6000803e3d6000fd5b505050506040513d601f19601f820116820180604052508101906117b4919061347d565b6117f3576040517f08c379a00000000000000000000000000000000000000000000000000000000081526004016117ea9061358b565b60405180910390fd5b600160009054906101000a900473ffffffffffffffffffffffffffffffffffffffff1673ffffffffffffffffffffffffffffffffffffffff1663449e815d85856040518363ffffffff1660e01b8152600401611850929190613516565b602060405180830381865afa15801561186d573d6000803e3d6000fd5b505050506040513d601f19601f820116820180604052508101906118919190613831565b91505092915050565b80600160006101000a81548173ffffffffffffffffffffffffffffffffffffffff021916908373ffffffffffffffffffffffffffffffffffffffff16021790555050565b6060600360009054906101000a900473ffffffffffffffffffffffffffffffffffffffff1673ffffffffffffffffffffffffffffffffffffffff166348308b66836040518263ffffffff1660e01b815260040161193b9190613436565b602060405180830381865afa158015611958573d6000803e3d6000fd5b505050506040513d601f19601f8201168201806040525081019061197c919061347d565b6119bb576040517f08c379a00000000000000000000000000000000000000000000000000000000081526004016119b2906138aa565b60405180910390fd5b6000600260009054906101000a900473ffffffffffffffffffffffffffffffffffffffff1673ffffffffffffffffffffffffffffffffffffffff166343a84e606040518163ffffffff1660e01b8152600401600060405180830381865afa158015611a2a573d6000803e3d6000fd5b505050506040513d6000823e3d601f19601f82011682018060405250810190611a5391906139a7565b9050600160009054906101000a900473ffffffffffffffffffffffffffffffffffffffff1673ffffffffffffffffffffffffffffffffffffffff1663d5aa1784826040518263ffffffff1660e01b8152600401611ab09190613aae565b600060405180830381865afa158015611acd573d6000803e3d6000fd5b505050506040513d6000823e3d601f19601f82011682018060405250810190611af69190613c4f565b915050919050565b600082600073ffffffffffffffffffffffffffffffffffffffff168173ffffffffffffffffffffffffffffffffffffffff1603611b70576040517f08c379a0000000000000000000000000000000000000000000000000000000008152600401611b6790613251565b60405180910390fd5b600160009054906101000a900473ffffffffffffffffffffffffffffffffffffffff1673ffffffffffffffffffffffffffffffffffffffff168173ffffffffffffffffffffffffffffffffffffffff1603611c00576040517f08c379a0000000000000000000000000000000000000000000000000000000008152600401611bf7906132e3565b60405180910390fd5b600260009054906101000a900473ffffffffffffffffffffffffffffffffffffffff1673ffffffffffffffffffffffffffffffffffffffff168173ffffffffffffffffffffffffffffffffffffffff1603611c90576040517f08c379a0000000000000000000000000000000000000000000000000000000008152600401611c8790613375565b60405180910390fd5b60008054906101000a900473ffffffffffffffffffffffffffffffffffffffff1673ffffffffffffffffffffffffffffffffffffffff168173ffffffffffffffffffffffffffffffffffffffff1603611d1e576040517f08c379a0000000000000000000000000000000000000000000000000000000008152600401611d1590613407565b60405180910390fd5b600260009054906101000a900473ffffffffffffffffffffffffffffffffffffffff1673ffffffffffffffffffffffffffffffffffffffff1663a5578807856040518263ffffffff1660e01b8152600401611d799190613436565b602060405180830381865afa158015611d96573d6000803e3d6000fd5b505050506040513d601f19601f82011682018060405250810190611dba919061347d565b611df9576040517f08c379a0000000000000000000000000000000000000000000000000000000008152600401611df0906134f6565b60405180910390fd5b3073ffffffffffffffffffffffffffffffffffffffff166302d805f685856040518363ffffffff1660e01b8152600401611e34929190613516565b602060405180830381865afa158015611e51573d6000803e3d6000fd5b505050506040513d601f19601f82011682018060405250810190611e75919061347d565b611eb4576040517f08c379a0000000000000000000000000000000000000000000000000000000008152600401611eab9061358b565b60405180910390fd5b600160009054906101000a900473ffffffffffffffffffffffffffffffffffffffff1673ffffffffffffffffffffffffffffffffffffffff16631e073fcf85856040518363ffffffff1660e01b8152600401611f11929190613516565b602060405180830381865afa158015611f2e573d6000803e3d6000fd5b505050506040513d601f19601f82011682018060405250810190611f529190613831565b91505092915050565b82600073ffffffffffffffffffffffffffffffffffffffff168173ffffffffffffffffffffffffffffffffffffffff1603611fcb576040517f08c379a0000000000000000000000000000000000000000000000000000000008152600401611fc290613251565b60405180910390fd5b600160009054906101000a900473ffffffffffffffffffffffffffffffffffffffff1673ffffffffffffffffffffffffffffffffffffffff168173ffffffffffffffffffffffffffffffffffffffff160361205b576040517f08c379a0000000000000000000000000000000000000000000000000000000008152600401612052906132e3565b60405180910390fd5b600260009054906101000a900473ffffffffffffffffffffffffffffffffffffffff1673ffffffffffffffffffffffffffffffffffffffff168173ffffffffffffffffffffffffffffffffffffffff16036120eb576040517f08c379a00000000000000000000000000000000000000000000000000000000081526004016120e290613375565b60405180910390fd5b60008054906101000a900473ffffffffffffffffffffffffffffffffffffffff1673ffffffffffffffffffffffffffffffffffffffff168173ffffffffffffffffffffffffffffffffffffffff1603612179576040517f08c379a000000000000000000000000000000000000000000000000000000000815260040161217090613407565b60405180910390fd5b600260009054906101000a900473ffffffffffffffffffffffffffffffffffffffff1673ffffffffffffffffffffffffffffffffffffffff1663a5578807856040518263ffffffff1660e01b81526004016121d49190613436565b602060405180830381865afa1580156121f1573d6000803e3d6000fd5b505050506040513d601f19601f82011682018060405250810190612215919061347d565b612254576040517f08c379a000000000000000000000000000000000000000000000000000000000815260040161224b906134f6565b60405180910390fd5b3073ffffffffffffffffffffffffffffffffffffffff166302d805f685856040518363ffffffff1660e01b815260040161228f929190613516565b602060405180830381865afa1580156122ac573d6000803e3d6000fd5b505050506040513d601f19601f820116820180604052508101906122d0919061347d565b61230f576040517f08c379a00000000000000000000000000000000000000000000000000000000081526004016123069061358b565b60405180910390fd5b600160009054906101000a900473ffffffffffffffffffffffffffffffffffffffff1673ffffffffffffffffffffffffffffffffffffffff1663f24920788585856040518463ffffffff1660e01b815260040161236e939291906136d0565b600060405180830381600087803b15801561238857600080fd5b505af115801561239c573d6000803e3d6000fd5b505050508373ffffffffffffffffffffffffffffffffffffffff167fe6423a1a3cb5835fa5b10d2c6f939b788639dce3411b5764ba199f45308a286b836040516123e69190613ce4565b60405180910390a250505050565b606081600073ffffffffffffffffffffffffffffffffffffffff168173ffffffffffffffffffffffffffffffffffffffff1603612466576040517f08c379a000000000000000000000000000000000000000000000000000000000815260040161245d90613251565b60405180910390fd5b600160009054906101000a900473ffffffffffffffffffffffffffffffffffffffff1673ffffffffffffffffffffffffffffffffffffffff168173ffffffffffffffffffffffffffffffffffffffff16036124f6576040517f08c379a00000000000000000000000000000000000000000000000000000000081526004016124ed906132e3565b60405180910390fd5b600260009054906101000a900473ffffffffffffffffffffffffffffffffffffffff1673ffffffffffffffffffffffffffffffffffffffff168173ffffffffffffffffffffffffffffffffffffffff1603612586576040517f08c379a000000000000000000000000000000000000000000000000000000000815260040161257d90613375565b60405180910390fd5b60008054906101000a900473ffffffffffffffffffffffffffffffffffffffff1673ffffffffffffffffffffffffffffffffffffffff168173ffffffffffffffffffffffffffffffffffffffff1603612614576040517f08c379a000000000000000000000000000000000000000000000000000000000815260040161260b90613407565b60405180910390fd5b600260009054906101000a900473ffffffffffffffffffffffffffffffffffffffff1673ffffffffffffffffffffffffffffffffffffffff1663a5578807846040518263ffffffff1660e01b815260040161266f9190613436565b602060405180830381865afa15801561268c573d6000803e3d6000fd5b505050506040513d601f19601f820116820180604052508101906126b0919061347d565b6126ef576040517f08c379a00000000000000000000000000000000000000000000000000000000081526004016126e6906134f6565b60405180910390fd5b600160009054906101000a900473ffffffffffffffffffffffffffffffffffffffff1673ffffffffffffffffffffffffffffffffffffffff1663d1f2c4a2846040518263ffffffff1660e01b815260040161274a9190613436565b600060405180830381865afa158015612767573d6000803e3d6000fd5b505050506040513d6000823e3d601f19601f820116820180604052508101906127909190613c4f565b915050919050565b80600073ffffffffffffffffffffffffffffffffffffffff168173ffffffffffffffffffffffffffffffffffffffff1603612808576040517f08c379a00000000000000000000000000000000000000000000000000000000081526004016127ff90613251565b60405180910390fd5b600160009054906101000a900473ffffffffffffffffffffffffffffffffffffffff1673ffffffffffffffffffffffffffffffffffffffff168173ffffffffffffffffffffffffffffffffffffffff1603612898576040517f08c379a000000000000000000000000000000000000000000000000000000000815260040161288f906132e3565b60405180910390fd5b600260009054906101000a900473ffffffffffffffffffffffffffffffffffffffff1673ffffffffffffffffffffffffffffffffffffffff168173ffffffffffffffffffffffffffffffffffffffff1603612928576040517f08c379a000000000000000000000000000000000000000000000000000000000815260040161291f90613375565b60405180910390fd5b60008054906101000a900473ffffffffffffffffffffffffffffffffffffffff1673ffffffffffffffffffffffffffffffffffffffff168173ffffffffffffffffffffffffffffffffffffffff16036129b6576040517f08c379a00000000000000000000000000000000000000000000000000000000081526004016129ad90613407565b60405180910390fd5b600260009054906101000a900473ffffffffffffffffffffffffffffffffffffffff1673ffffffffffffffffffffffffffffffffffffffff1663a5578807836040518263ffffffff1660e01b8152600401612a119190613436565b602060405180830381865afa158015612a2e573d6000803e3d6000fd5b505050506040513d601f19601f82011682018060405250810190612a52919061347d565b612a91576040517f08c379a0000000000000000000000000000000000000000000000000000000008152600401612a8890613d5e565b60405180910390fd5b600080600080600160009054906101000a900473ffffffffffffffffffffffffffffffffffffffff1673ffffffffffffffffffffffffffffffffffffffff16638317679f878b8b8b6040518563ffffffff1660e01b8152600401612af89493929190613d7e565b6000604051808303816000875af1158015612b17573d6000803e3d6000fd5b505050506040513d6000823e3d601f19601f82011682018060405250810190612b40919061371c565b93509350935093508573ffffffffffffffffffffffffffffffffffffffff167f4dfad5d0e38d406aaea3751779657a563af1268304c7707be96fe181b56189f685858585604051612b949493929190613e16565b60405180910390a2505050505050505050565b6000604051905090565b600080fd5b600080fd5b600073ffffffffffffffffffffffffffffffffffffffff82169050919050565b6000612be682612bbb565b9050919050565b612bf681612bdb565b8114612c0157600080fd5b50565b600081359050612c1381612bed565b92915050565b6000819050919050565b612c2c81612c19565b8114612c3757600080fd5b50565b600081359050612c4981612c23565b92915050565b60008060408385031215612c6657612c65612bb1565b5b6000612c7485828601612c04565b9250506020612c8585828601612c3a565b9150509250929050565b600081519050919050565b600082825260208201905092915050565b60005b83811015612cc9578082015181840152602081019050612cae565b60008484015250505050565b6000601f19601f8301169050919050565b6000612cf182612c8f565b612cfb8185612c9a565b9350612d0b818560208601612cab565b612d1481612cd5565b840191505092915050565b60006020820190508181036000830152612d398184612ce6565b905092915050565b600080600060608486031215612d5a57612d59612bb1565b5b6000612d6886828701612c04565b9350506020612d7986828701612c3a565b9250506040612d8a86828701612c3a565b9150509250925092565b60008115159050919050565b612da981612d94565b82525050565b6000602082019050612dc46000830184612da0565b92915050565b600060208284031215612de057612ddf612bb1565b5b6000612dee84828501612c04565b91505092915050565b60008060408385031215612e0e57612e0d612bb1565b5b6000612e1c85828601612c3a565b9250506020612e2d85828601612c04565b9150509250929050565b612e4081612c19565b82525050565b6000608082019050612e5b6000830187612e37565b8181036020830152612e6d8186612ce6565b9050612e7c6040830185612e37565b612e896060830184612e37565b95945050505050565b6000602082019050612ea76000830184612e37565b92915050565b600081519050919050565b600082825260208201905092915050565b6000819050602082019050919050565b612ee281612c19565b82525050565b600082825260208201905092915050565b6000612f0482612c8f565b612f0e8185612ee8565b9350612f1e818560208601612cab565b612f2781612cd5565b840191505092915050565b6000608083016000830151612f4a6000860182612ed9565b5060208301518482036020860152612f628282612ef9565b9150506040830151612f776040860182612ed9565b506060830151612f8a6060860182612ed9565b508091505092915050565b6000612fa18383612f32565b905092915050565b6000602082019050919050565b6000612fc182612ead565b612fcb8185612eb8565b935083602082028501612fdd85612ec9565b8060005b858110156130195784840389528151612ffa8582612f95565b945061300583612fa9565b925060208a01995050600181019050612fe1565b50829750879550505050505092915050565b600060208201905081810360008301526130458184612fb6565b905092915050565b600080fd5b600080fd5b7f4e487b7100000000000000000000000000000000000000000000000000000000600052604160045260246000fd5b61308f82612cd5565b810181811067ffffffffffffffff821117156130ae576130ad613057565b5b80604052505050565b60006130c1612ba7565b90506130cd8282613086565b919050565b600067ffffffffffffffff8211156130ed576130ec613057565b5b6130f682612cd5565b9050602081019050919050565b82818337600083830152505050565b6000613125613120846130d2565b6130b7565b90508281526020810184848401111561314157613140613052565b5b61314c848285613103565b509392505050565b600082601f8301126131695761316861304d565b5b8135613179848260208601613112565b91505092915050565b6000806000806080858703121561319c5761319b612bb1565b5b600085013567ffffffffffffffff8111156131ba576131b9612bb6565b5b6131c687828801613154565b94505060206131d787828801612c3a565b93505060406131e887828801612c3a565b92505060606131f987828801612c04565b91505092959194509250565b7f41646472657373206973207a65726f0000000000000000000000000000000000600082015250565b600061323b600f83612c9a565b915061324682613205565b602082019050919050565b6000602082019050818103600083015261326a8161322e565b9050919050565b7f41646472657373206973204d696c6b48756253746f7261676520536d6172742060008201527f436f6e7472616374210000000000000000000000000000000000000000000000602082015250565b60006132cd602983612c9a565b91506132d882613271565b604082019050919050565b600060208201905081810360008301526132fc816132c0565b9050919050565b7f416464726573732069732046696c69657261546f6b656e20536d61727420436f60008201527f6e74726163742100000000000000000000000000000000000000000000000000602082015250565b600061335f602783612c9a565b915061336a82613303565b604082019050919050565b6000602082019050818103600083015261338e81613352565b9050919050565b7f4f7267616e697a6174696f6e2061646472657373206e6f742056616c6964207460008201527f6f20646f204f7065726174696f6e000000000000000000000000000000000000602082015250565b60006133f1602e83612c9a565b91506133fc82613395565b604082019050919050565b60006020820190508181036000830152613420816133e4565b9050919050565b61343081612bdb565b82525050565b600060208201905061344b6000830184613427565b92915050565b61345a81612d94565b811461346557600080fd5b50565b60008151905061347781613451565b92915050565b60006020828403121561349357613492612bb1565b5b60006134a184828501613468565b91505092915050565b7f55736572206973206e6f742070726573656e7421000000000000000000000000600082015250565b60006134e0601483612c9a565b91506134eb826134aa565b602082019050919050565b6000602082019050818103600083015261350f816134d3565b9050919050565b600060408201905061352b6000830185613427565b6135386020830184612e37565b9392505050565b7f4d696c6b4261746368206e6f742050726573656e742100000000000000000000600082015250565b6000613575601683612c9a565b91506135808261353f565b602082019050919050565b600060208201905081810360008301526135a481613568565b9050919050565b60006135be6135b9846130d2565b6130b7565b9050828152602081018484840111156135da576135d9613052565b5b6135e5848285612cab565b509392505050565b600082601f8301126136025761360161304d565b5b81516136128482602086016135ab565b91505092915050565b60006020828403121561363157613630612bb1565b5b600082015167ffffffffffffffff81111561364f5761364e612bb6565b5b61365b848285016135ed565b91505092915050565b7f41646472657373206e6f742056616c6964210000000000000000000000000000600082015250565b600061369a601283612c9a565b91506136a582613664565b602082019050919050565b600060208201905081810360008301526136c98161368d565b9050919050565b60006060820190506136e56000830186613427565b6136f26020830185612e37565b6136ff6040830184612e37565b949350505050565b60008151905061371681612c23565b92915050565b6000806000806080858703121561373657613735612bb1565b5b600061374487828801613707565b945050602085015167ffffffffffffffff81111561376557613764612bb6565b5b613771878288016135ed565b935050604061378287828801613707565b925050606061379387828801613707565b91505092959194509250565b7f50657a7a6f20646920466f726d616767696f20652720737461746f20656c656d60008201527f696e61746f000000000000000000000000000000000000000000000000000000602082015250565b60006137fb602583612c9a565b91506138068261379f565b604082019050919050565b6000602082019050818103600083015261382a816137ee565b9050919050565b60006020828403121561384757613846612bb1565b5b600061385584828501613707565b91505092915050565b7f55736572204e6f7420417574686f72697a656421000000000000000000000000600082015250565b6000613894601483612c9a565b915061389f8261385e565b602082019050919050565b600060208201905081810360008301526138c381613887565b9050919050565b600067ffffffffffffffff8211156138e5576138e4613057565b5b602082029050602081019050919050565b600080fd5b60008151905061390a81612bed565b92915050565b600061392361391e846138ca565b6130b7565b90508083825260208201905060208402830185811115613946576139456138f6565b5b835b8181101561396f578061395b88826138fb565b845260208401935050602081019050613948565b5050509392505050565b600082601f83011261398e5761398d61304d565b5b815161399e848260208601613910565b91505092915050565b6000602082840312156139bd576139bc612bb1565b5b600082015167ffffffffffffffff8111156139db576139da612bb6565b5b6139e784828501613979565b91505092915050565b600081519050919050565b600082825260208201905092915050565b6000819050602082019050919050565b613a2581612bdb565b82525050565b6000613a378383613a1c565b60208301905092915050565b6000602082019050919050565b6000613a5b826139f0565b613a6581856139fb565b9350613a7083613a0c565b8060005b83811015613aa1578151613a888882613a2b565b9750613a9383613a43565b925050600181019050613a74565b5085935050505092915050565b60006020820190508181036000830152613ac88184613a50565b905092915050565b600067ffffffffffffffff821115613aeb57613aea613057565b5b602082029050602081019050919050565b600080fd5b600080fd5b600060808284031215613b1c57613b1b613afc565b5b613b2660806130b7565b90506000613b3684828501613707565b600083015250602082015167ffffffffffffffff811115613b5a57613b59613b01565b5b613b66848285016135ed565b6020830152506040613b7a84828501613707565b6040830152506060613b8e84828501613707565b60608301525092915050565b6000613bad613ba884613ad0565b6130b7565b90508083825260208201905060208402830185811115613bd057613bcf6138f6565b5b835b81811015613c1757805167ffffffffffffffff811115613bf557613bf461304d565b5b808601613c028982613b06565b85526020850194505050602081019050613bd2565b5050509392505050565b600082601f830112613c3657613c3561304d565b5b8151613c46848260208601613b9a565b91505092915050565b600060208284031215613c6557613c64612bb1565b5b600082015167ffffffffffffffff811115613c8357613c82612bb6565b5b613c8f84828501613c21565b91505092915050565b7f4d696c6b42617463682065646974656421000000000000000000000000000000600082015250565b6000613cce601183612c9a565b9150613cd982613c98565b602082019050919050565b60006040820190508181036000830152613cfd81613cc1565b9050613d0c6020830184612e37565b92915050565b7f55736572206973206e6f742070726573656e7420696e20646174610000000000600082015250565b6000613d48601b83612c9a565b9150613d5382613d12565b602082019050919050565b60006020820190508181036000830152613d7781613d3b565b9050919050565b6000608082019050613d936000830187613427565b8181036020830152613da58186612ce6565b9050613db46040830185612e37565b613dc16060830184612e37565b95945050505050565b7f50657a7a6f20646920666f726d616767696f20696e73657269746f2021000000600082015250565b6000613e00601d83612c9a565b9150613e0b82613dca565b602082019050919050565b600060a082019050613e2b6000830187612e37565b8181036020830152613e3c81613df3565b90508181036040830152613e508186612ce6565b9050613e5f6060830185612e37565b613e6c6080830184612e37565b9594505050505056fea2646970667358221220338fdfe63f429da4d960e2c410bcb52781658f4d6ff8a3d430d13635fea361ab64736f6c63430008180033",
  "immutableReferences": {},
  "source": "// SPDX-License-Identifier: MIT\r\npragma solidity ^0.8.0;\r\n\r\nimport \"./MilkHubInventoryStorage.sol\";\r\nimport \"../MilkHubService.sol\";\r\n\r\nimport \"../../../Service/AccessControlProduct.sol\";\r\n\r\n\r\ncontract MilkHubInventoryService {\r\n\r\n\r\n// ------------------------------------------------------------------ Contract Address Service -----------------------------------------------------------//\r\n\r\n     // Address of Organization che gestisce gli utenti\r\n    address private  MilkHubOrg;\r\n    // Address of Inventory Storage \r\n    MilkHubInventoryStorage private milkhubInventoryStorage;\r\n    // Address Service of MilkHub Service \r\n    MilkHubService private milkhubService;\r\n    // Address Access Control \r\n    AccessControlProduct private accessControlProduct;\r\n\r\n//----------------------------------------------------------------- Costructor Function ---------------------------------------------------------------------------//\r\n\r\n    constructor(address _milkhubInventoryStorage, address _milkhubService, address _accessControlProduct){\r\n        MilkHubOrg = msg.sender;\r\n        milkhubInventoryStorage = MilkHubInventoryStorage(_milkhubInventoryStorage);\r\n        milkhubService = MilkHubService(_milkhubService);\r\n        accessControlProduct = AccessControlProduct(_accessControlProduct);\r\n    }\r\n\r\n\r\n\r\n//----------------------------------------------------------------- Event of Service ----------------------------------------------------------------------------------//\r\n\r\n\r\n    // Evento per notificare l'aggiunta e l'eliminazione dei dati\r\n    event MilkBatchAdded(address indexed userAddress, uint256 id, string message, string scadenza, uint256 quantity, uint256 price);\r\n    // Evento per notificare l'eliminazione del MilkBatch \r\n    event MilkBatchDeleted(address indexed userAddress, uint256 indexed id, string message);\r\n    // Evento per notificare la modifica del MilkBatch \r\n    event MilkBatchEdited(address indexed userAddress,string message, uint256 quantity);\r\n    // Evento per notificare che un dato utente non ha il permesso \r\n    event UserDenied(string errorMessage);\r\n\r\n//-------------------------------------------------------------------- Change Contract Address Service ----------------------------------------------------------------------//\r\n\r\n\r\n\r\n\r\n    function changeMilkHubInventoryStorage(address _milkhubInventoryStorage)external {\r\n        milkhubInventoryStorage = MilkHubInventoryStorage(_milkhubInventoryStorage);\r\n    }\r\n\r\n\r\n    function changeMilkHubService(address _milkhubService)external {\r\n        milkhubService = MilkHubService(_milkhubService);\r\n    }\r\n\r\n\r\n//--------------------------------------------------------------------------- Modifier function of Service ----------------------------------------------------------------------------//\r\n\r\n\r\n    // Verifica chi effettua la transazione : \r\n    // Verfica che l'address non sia l'organizzazione \r\n    // Verfica che l'address non sia lo smart contract del MilkHubStorage e FilieraToken \r\n    modifier checkAddress(address walletMilkHub){\r\n\r\n        require(walletMilkHub != address(0),\"Address is zero\");\r\n        require(walletMilkHub != address(milkhubInventoryStorage), \"Address is MilkHubStorage Smart Contract!\");\r\n        require(walletMilkHub != address(milkhubService), \"Address is FilieraToken Smart Contract!\" );\r\n        require(walletMilkHub != MilkHubOrg ,\"Organization address not Valid to do Operation\");\r\n\r\n        _;\r\n    }\r\n\r\n\r\n\r\n\r\n//------------------------------------------------------------------------------- Business Function of Service --------------------------------------------------------------------------//\r\n\r\n\r\n    /* Questa funzione permette di aggiungere : \r\n       Un prodotto MilkBatch all'inventario da poter mettere in vendita\r\n       \r\n       - Check da effettuare : \r\n       - Verifica che l'address dell'utente sia registrato \r\n       - Verifica che l'address dell'utente non sia l'organizzazione che ha deployato il contratto \r\n       \r\n       - Evento : \r\n       - milkBatchAdded()\r\n     */\r\n    function addMilkBatch(string memory _scadenza, uint256 _quantity, uint256 _price, address walletMilkHub) external checkAddress(walletMilkHub) {\r\n        // Check if User exists\r\n        require(milkhubService.isUserPresent(walletMilkHub), \"User is not present in data\");\r\n\r\n        //Call function of Storage \r\n        (uint256 id, string memory scadenza, uint256 quantity, uint256 price) = milkhubInventoryStorage.addMilkBatch(walletMilkHub, _scadenza, _quantity, _price);\r\n        // Emissione dell'evento \r\n        emit MilkBatchAdded(walletMilkHub, id, \"Pezzo di formaggio inserito !\", scadenza, quantity, price);\r\n    }\r\n\r\n    /**\r\n     * Ottenere le informazioni del milkbatch attraverso : \r\n     * - ID milkBatch\r\n       - msg.sender -> mi permette di visualizzare solo se sono il proprietario di questo prodotto \r\n     * */  \r\n    function getMilkBatch(uint256 _id, address walletMilkHub) external view checkAddress(walletMilkHub) returns (uint256, string memory, uint256, uint256)  {\r\n        \r\n        // Retrieve msg.sender \r\n        require(this.isMilkBatchPresent(walletMilkHub, _id),\"MilkBatch not Present!\");\r\n\r\n        return milkhubInventoryStorage.getMilkBatch(walletMilkHub,_id);\r\n    }\r\n\r\n    /**\r\n     * Eliminare un MilkBatch attraverso l'id \r\n     * - ID \r\n     * - Verficare che l'utente che vuole eseguire la transazione sia presente.\r\n     */\r\n    function deleteMilkBatch(uint256 _id,address walletMilkHub) external checkAddress(walletMilkHub) returns(bool value) {\r\n        // Check if User is Present\r\n        require(milkhubService.isUserPresent(walletMilkHub), \"User is not present!\");\r\n        // Check if Product is present \r\n        require(this.isMilkBatchPresent(walletMilkHub, _id),\"MilkBatch not Present!\");\r\n\r\n        if(milkhubInventoryStorage.deleteMilkBatch(walletMilkHub,_id)){\r\n            emit MilkBatchDeleted(walletMilkHub,_id,\"Pezzo di Formaggio e' stato eleminato\");\r\n            return true;\r\n        }else {\r\n            return false;\r\n        }\r\n    }\r\n\r\n\r\n    function getMilkBatchListByMilkHub(address walletMilkHub) external checkAddress(walletMilkHub) view returns (MilkHubInventoryStorage.MilkBatch[] memory){\r\n        // Check if exist \r\n        require(milkhubService.isUserPresent(walletMilkHub), \"User is not present!\");\r\n\r\n        return milkhubInventoryStorage.getMilkBatchListByMilkHub(walletMilkHub);\r\n    }\r\n\r\n    /*\r\n        - Recupera tutti i MilkBatch presenti all'interno di Inventory \r\n        - Verifica che quel CheeseProducer sia all'interno del sistema \r\n    */\r\n    function getAllMilkBatchList(address walletCheeseProducer) view  external  returns (MilkHubInventoryStorage.MilkBatch[] memory){\r\n        require(accessControlProduct.checkViewMilkBatchProduct(walletCheeseProducer),\"User Not Authorized!\");\r\n            address[] memory addressListMilkHub = milkhubService.getListAddressMilkHub();\r\n\r\n            return milkhubInventoryStorage.getAllMilkBatchList(addressListMilkHub); \r\n    }\r\n\r\n\r\n\r\n\r\n\r\n// ----------------------------------------------------------- TransactionManager ------------------------------------//\r\n\r\n    function checkProductToSell(address ownerMilkBatch, uint256 _id_MilkBatch, uint256 quantityToBuy) external view returns (bool){\r\n        \r\n        require(msg.sender != address(0),\"Address not Valid!\");\r\n        require(ownerMilkBatch != address(0),\"Address not Valid!\");\r\n\r\n        return milkhubInventoryStorage.checkProduct(ownerMilkBatch, _id_MilkBatch, quantityToBuy);\r\n    }\r\n\r\n//-------------------------------------------------------------------- Get Function --------------------------------------------------------------------//\r\n\r\n    function getMilkBatchExpirationDate(address walletMilkHub, uint256 _id) external view checkAddress(walletMilkHub) returns(string memory) {\r\n        \r\n        require(milkhubService.isUserPresent(walletMilkHub), \"User is not present!\");\r\n\r\n        require(this.isMilkBatchPresent(walletMilkHub, _id),\"MilkBatch not Present!\");\r\n\r\n        return milkhubInventoryStorage.getExpirationDate(walletMilkHub,_id);        \r\n    }\r\n\r\n\r\n    function getMilkBatchQuantity(address walletMilkHub, uint256 _id) external view checkAddress(walletMilkHub) returns(uint256) {\r\n        \r\n        require(milkhubService.isUserPresent(walletMilkHub), \"User is not present!\");\r\n\r\n        require(this.isMilkBatchPresent(walletMilkHub, _id),\"MilkBatch not Present!\");\r\n        \r\n        return milkhubInventoryStorage.getQuantity(walletMilkHub,_id);        \r\n    }\r\n\r\n\r\n    function getMilkBatchPrice(address walletMilkHub, uint256 _id) external view checkAddress(walletMilkHub) returns(uint256) {\r\n        require(milkhubService.isUserPresent(walletMilkHub), \"User is not present!\");\r\n\r\n        require(this.isMilkBatchPresent(walletMilkHub, _id),\"MilkBatch not Present!\");\r\n        \r\n        return milkhubInventoryStorage.getPrice(walletMilkHub,_id);        \r\n    }\r\n\r\n    /**\r\n    * Verifica che il MilkBatch  presente all'interno dell'inventario \r\n    * - Verifica che l'id non sia nullo e che sia maggiore di 0 e che coincida con l'elemento \r\n    */\r\n    function isMilkBatchPresent(address walletMilkHub, uint256 _id) external view checkAddress(walletMilkHub)  returns (bool){\r\n        return milkhubInventoryStorage.isMilkBatchPresent(walletMilkHub, _id);\r\n    }\r\n\r\n\r\n//---------------------------------------------------------------------- Set Function --------------------------------------------------------------------------//\r\n\r\n\r\n    /**\r\n    * Decremento della quantit del MilkBatch \r\n    * Verifica che la quantit sia maggiore di 0 -> altrimenti elimina\r\n    */\r\n    function updateMilkBatchQuantity(address ownerMilkHub, uint256 _id, uint256 _quantity) external checkAddress(ownerMilkHub) {\r\n\r\n        require(milkhubService.isUserPresent(ownerMilkHub), \"User is not present!\");\r\n\r\n        require(this.isMilkBatchPresent(ownerMilkHub, _id),\"MilkBatch not Present!\");\r\n\r\n        milkhubInventoryStorage.updateQuantity(ownerMilkHub, _id, _quantity);\r\n\r\n        emit MilkBatchEdited(ownerMilkHub,\"MilkBatch edited!\", _quantity);\r\n    }\r\n\r\n\r\n\r\n}",
  "sourcePath": "C:\\Users\\umber\\Progetti\\FilieraToken\\Filiera-Token-Smart-Contract\\contracts\\Actor\\MilkHub-smart-contract\\inventory\\MilkHubInventoryService.sol",
  "compiler": {
    "name": "solc",
    "version": "0.8.24+commit.e11b9ed9.Emscripten.clang"
  },
  "schemaVersion": "3.4.16",
  "updatedAt": "2024-02-28T11:39:54.254Z",
  "devdoc": {
    "kind": "dev",
    "methods": {},
    "version": 1
  },
  "userdoc": {
    "kind": "user",
    "methods": {
      "deleteMilkBatch(uint256,address)": {
        "notice": "Eliminare un MilkBatch attraverso l'id  - ID  - Verficare che l'utente che vuole eseguire la transazione sia presente."
      },
      "getMilkBatch(uint256,address)": {
        "notice": "Ottenere le informazioni del milkbatch attraverso :  - ID milkBatch - msg.sender -> mi permette di visualizzare solo se sono il proprietario di questo prodotto  "
      },
      "isMilkBatchPresent(address,uint256)": {
        "notice": "Verifica che il MilkBatch  presente all'interno dell'inventario  - Verifica che l'id non sia nullo e che sia maggiore di 0 e che coincida con l'elemento "
      },
      "updateMilkBatchQuantity(address,uint256,uint256)": {
        "notice": "Decremento della quantit del MilkBatch  Verifica che la quantit sia maggiore di 0 -> altrimenti elimina"
      }
    },
    "version": 1
  }
}