{
  "contractName": "MilkHubInventoryStorage",
  "abi": [
    {
      "inputs": [],
      "stateMutability": "nonpayable",
      "type": "constructor"
    },
    {
      "inputs": [
        {
          "internalType": "address",
          "name": "walletMilkHub",
          "type": "address"
        },
        {
          "internalType": "string",
          "name": "_scadenza",
          "type": "string"
        },
        {
          "internalType": "uint256",
          "name": "_quantity",
          "type": "uint256"
        },
        {
          "internalType": "uint256",
          "name": "_price",
          "type": "uint256"
        }
      ],
      "name": "addMilkBatch",
      "outputs": [
        {
          "internalType": "uint256",
          "name": "",
          "type": "uint256"
        },
        {
          "internalType": "string",
          "name": "",
          "type": "string"
        },
        {
          "internalType": "uint256",
          "name": "",
          "type": "uint256"
        },
        {
          "internalType": "uint256",
          "name": "",
          "type": "uint256"
        }
      ],
      "stateMutability": "nonpayable",
      "type": "function"
    },
    {
      "inputs": [
        {
          "internalType": "address",
          "name": "walletMilkHub",
          "type": "address"
        },
        {
          "internalType": "uint256",
          "name": "_id",
          "type": "uint256"
        }
      ],
      "name": "getMilkBatch",
      "outputs": [
        {
          "internalType": "uint256",
          "name": "",
          "type": "uint256"
        },
        {
          "internalType": "string",
          "name": "",
          "type": "string"
        },
        {
          "internalType": "uint256",
          "name": "",
          "type": "uint256"
        },
        {
          "internalType": "uint256",
          "name": "",
          "type": "uint256"
        }
      ],
      "stateMutability": "view",
      "type": "function"
    },
    {
      "inputs": [
        {
          "internalType": "address",
          "name": "walletMilkHub",
          "type": "address"
        },
        {
          "internalType": "uint256",
          "name": "_id",
          "type": "uint256"
        }
      ],
      "name": "deleteMilkBatch",
      "outputs": [
        {
          "internalType": "bool",
          "name": "value",
          "type": "bool"
        }
      ],
      "stateMutability": "nonpayable",
      "type": "function"
    },
    {
      "inputs": [
        {
          "internalType": "address",
          "name": "walletMilkHub",
          "type": "address"
        }
      ],
      "name": "getMilkBatchListByMilkHub",
      "outputs": [
        {
          "components": [
            {
              "internalType": "uint256",
              "name": "id",
              "type": "uint256"
            },
            {
              "internalType": "string",
              "name": "scadenza",
              "type": "string"
            },
            {
              "internalType": "uint256",
              "name": "quantity",
              "type": "uint256"
            },
            {
              "internalType": "uint256",
              "name": "price",
              "type": "uint256"
            }
          ],
          "internalType": "struct MilkHubInventoryStorage.MilkBatch[]",
          "name": "",
          "type": "tuple[]"
        }
      ],
      "stateMutability": "view",
      "type": "function"
    },
    {
      "inputs": [
        {
          "internalType": "address[]",
          "name": "milkHubListaddress",
          "type": "address[]"
        }
      ],
      "name": "getAllMilkBatchList",
      "outputs": [
        {
          "components": [
            {
              "internalType": "uint256",
              "name": "id",
              "type": "uint256"
            },
            {
              "internalType": "string",
              "name": "scadenza",
              "type": "string"
            },
            {
              "internalType": "uint256",
              "name": "quantity",
              "type": "uint256"
            },
            {
              "internalType": "uint256",
              "name": "price",
              "type": "uint256"
            }
          ],
          "internalType": "struct MilkHubInventoryStorage.MilkBatch[]",
          "name": "",
          "type": "tuple[]"
        }
      ],
      "stateMutability": "view",
      "type": "function"
    },
    {
      "inputs": [
        {
          "internalType": "address",
          "name": "ownerMilkBatch",
          "type": "address"
        },
        {
          "internalType": "uint256",
          "name": "_id_MilkBatch",
          "type": "uint256"
        },
        {
          "internalType": "uint256",
          "name": "quantityToBuy",
          "type": "uint256"
        }
      ],
      "name": "checkProduct",
      "outputs": [
        {
          "internalType": "bool",
          "name": "",
          "type": "bool"
        }
      ],
      "stateMutability": "view",
      "type": "function"
    },
    {
      "inputs": [
        {
          "internalType": "address",
          "name": "walletMilkHub",
          "type": "address"
        },
        {
          "internalType": "uint256",
          "name": "_id",
          "type": "uint256"
        }
      ],
      "name": "isMilkBatchPresent",
      "outputs": [
        {
          "internalType": "bool",
          "name": "",
          "type": "bool"
        }
      ],
      "stateMutability": "view",
      "type": "function"
    },
    {
      "inputs": [
        {
          "internalType": "address",
          "name": "walletMilkHub",
          "type": "address"
        },
        {
          "internalType": "uint256",
          "name": "_id",
          "type": "uint256"
        }
      ],
      "name": "getExpirationDate",
      "outputs": [
        {
          "internalType": "string",
          "name": "",
          "type": "string"
        }
      ],
      "stateMutability": "view",
      "type": "function"
    },
    {
      "inputs": [
        {
          "internalType": "address",
          "name": "walletMilkHub",
          "type": "address"
        },
        {
          "internalType": "uint256",
          "name": "_id",
          "type": "uint256"
        }
      ],
      "name": "getQuantity",
      "outputs": [
        {
          "internalType": "uint256",
          "name": "",
          "type": "uint256"
        }
      ],
      "stateMutability": "view",
      "type": "function"
    },
    {
      "inputs": [
        {
          "internalType": "address",
          "name": "walletMilkHub",
          "type": "address"
        },
        {
          "internalType": "uint256",
          "name": "_id",
          "type": "uint256"
        }
      ],
      "name": "getPrice",
      "outputs": [
        {
          "internalType": "uint256",
          "name": "",
          "type": "uint256"
        }
      ],
      "stateMutability": "view",
      "type": "function"
    },
    {
      "inputs": [
        {
          "internalType": "address",
          "name": "walletMilkHub",
          "type": "address"
        },
        {
          "internalType": "uint256",
          "name": "_id",
          "type": "uint256"
        },
        {
          "internalType": "uint256",
          "name": "_newQuantity",
          "type": "uint256"
        }
      ],
      "name": "updateQuantity",
      "outputs": [],
      "stateMutability": "nonpayable",
      "type": "function"
    }
  ],
  "bytecode": "0x608060405234801561001057600080fd5b50336000806101000a81548173ffffffffffffffffffffffffffffffffffffffff021916908373ffffffffffffffffffffffffffffffffffffffff16021790555061221f806100606000396000f3fe608060405234801561001057600080fd5b50600436106100a95760003560e01c80639f2b6898116100715780639f2b6898146101a1578063ad9c10a1146101d1578063ce4fcf2314610201578063d1f2c4a214610234578063d5aa178414610264578063f249207814610294576100a9565b806302d805f6146100ae5780631e073fcf146100de578063449e815d1461010e5780638317679f1461013e57806387abc21614610171575b600080fd5b6100c860048036038101906100c391906112ef565b6102b0565b6040516100d5919061134a565b60405180910390f35b6100f860048036038101906100f391906112ef565b61035f565b6040516101059190611374565b60405180910390f35b610128600480360381019061012391906112ef565b61047d565b6040516101359190611374565b60405180910390f35b610158600480360381019061015391906114d5565b61059b565b60405161016894939291906115d7565b60405180910390f35b61018b60048036038101906101869190611623565b61089e565b604051610198919061134a565b60405180910390f35b6101bb60048036038101906101b691906112ef565b6109dc565b6040516101c89190611676565b60405180910390f35b6101eb60048036038101906101e691906112ef565b610afb565b6040516101f8919061134a565b60405180910390f35b61021b600480360381019061021691906112ef565b610bf9565b60405161022b94939291906115d7565b60405180910390f35b61024e60048036038101906102499190611698565b610d35565b60405161025b9190611843565b60405180910390f35b61027e6004803603810190610279919061192d565b610f6a565b60405161028b9190611843565b60405180910390f35b6102ae60048036038101906102a99190611623565b6110f4565b005b60008082141580156102c25750600082115b610301576040517f08c379a00000000000000000000000000000000000000000000000000000000081526004016102f8906119c2565b60405180910390fd5b81600160008573ffffffffffffffffffffffffffffffffffffffff1673ffffffffffffffffffffffffffffffffffffffff16815260200190815260200160002060008481526020019081526020016000206000015414905092915050565b600080600160008573ffffffffffffffffffffffffffffffffffffffff1673ffffffffffffffffffffffffffffffffffffffff1681526020019081526020016000206000848152602001908152602001600020604051806080016040529081600082015481526020016001820180546103d790611a11565b80601f016020809104026020016040519081016040528092919081815260200182805461040390611a11565b80156104505780601f1061042557610100808354040283529160200191610450565b820191906000526020600020905b81548152906001019060200180831161043357829003601f168201915b50505050508152602001600282015481526020016003820154815250509050806040015191505092915050565b600080600160008573ffffffffffffffffffffffffffffffffffffffff1673ffffffffffffffffffffffffffffffffffffffff1681526020019081526020016000206000848152602001908152602001600020604051806080016040529081600082015481526020016001820180546104f590611a11565b80601f016020809104026020016040519081016040528092919081815260200182805461052190611a11565b801561056e5780601f106105435761010080835404028352916020019161056e565b820191906000526020600020905b81548152906001019060200180831161055157829003601f168201915b50505050508152602001600282015481526020016003820154815250509050806060015191505092915050565b6000606060008060008787878b426040516020016105bd959493929190611ae7565b6040516020818303038152906040528051906020012060001c9050600060405180608001604052808381526020018a8152602001898152602001888152509050600282908060018154018082558091505060019003906000526020600020016000909190919091505580600160008c73ffffffffffffffffffffffffffffffffffffffff1673ffffffffffffffffffffffffffffffffffffffff16815260200190815260200160002060008481526020019081526020016000206000820151816000015560208201518160010190816106969190611cee565b506040820151816002015560608201518160030155905050600160008b73ffffffffffffffffffffffffffffffffffffffff1673ffffffffffffffffffffffffffffffffffffffff168152602001908152602001600020600083815260200190815260200160002060000154600160008c73ffffffffffffffffffffffffffffffffffffffff1673ffffffffffffffffffffffffffffffffffffffff1681526020019081526020016000206000848152602001908152602001600020600101600160008d73ffffffffffffffffffffffffffffffffffffffff1673ffffffffffffffffffffffffffffffffffffffff168152602001908152602001600020600085815260200190815260200160002060020154600160008e73ffffffffffffffffffffffffffffffffffffffff1673ffffffffffffffffffffffffffffffffffffffff16815260200190815260200160002060008681526020019081526020016000206003015482805461080990611a11565b80601f016020809104026020016040519081016040528092919081815260200182805461083590611a11565b80156108825780601f1061085757610100808354040283529160200191610882565b820191906000526020600020905b81548152906001019060200180831161086557829003601f168201915b5050505050925095509550955095505050945094509450949050565b600082600160008673ffffffffffffffffffffffffffffffffffffffff1673ffffffffffffffffffffffffffffffffffffffff16815260200190815260200160002060008581526020019081526020016000206000015414610935576040517f08c379a000000000000000000000000000000000000000000000000000000000815260040161092c90611e0c565b60405180910390fd5b6000600160008673ffffffffffffffffffffffffffffffffffffffff1673ffffffffffffffffffffffffffffffffffffffff1681526020019081526020016000206000858152602001908152602001600020905082816002015410156109d0576040517f08c379a00000000000000000000000000000000000000000000000000000000081526004016109c790611e78565b60405180910390fd5b60019150509392505050565b60606000600160008573ffffffffffffffffffffffffffffffffffffffff1673ffffffffffffffffffffffffffffffffffffffff168152602001908152602001600020600084815260200190815260200160002060405180608001604052908160008201548152602001600182018054610a5590611a11565b80601f0160208091040260200160405190810160405280929190818152602001828054610a8190611a11565b8015610ace5780601f10610aa357610100808354040283529160200191610ace565b820191906000526020600020905b815481529060010190602001808311610ab157829003601f168201915b50505050508152602001600282015481526020016003820154815250509050806020015191505092915050565b6000600160008473ffffffffffffffffffffffffffffffffffffffff1673ffffffffffffffffffffffffffffffffffffffff1681526020019081526020016000206000838152602001908152602001600020600080820160009055600182016000610b6691906111c2565b6002820160009055600382016000905550506000600160008573ffffffffffffffffffffffffffffffffffffffff1673ffffffffffffffffffffffffffffffffffffffff168152602001908152602001600020600084815260200190815260200160002060000154148015610be05750610bdf82611151565b5b15610bee5760019050610bf3565b600090505b92915050565b600060606000806000600160008873ffffffffffffffffffffffffffffffffffffffff1673ffffffffffffffffffffffffffffffffffffffff168152602001908152602001600020600087815260200190815260200160002060405180608001604052908160008201548152602001600182018054610c7790611a11565b80601f0160208091040260200160405190810160405280929190818152602001828054610ca390611a11565b8015610cf05780601f10610cc557610100808354040283529160200191610cf0565b820191906000526020600020905b815481529060010190602001808311610cd357829003601f168201915b50505050508152602001600282015481526020016003820154815250509050806000015181602001518260400151836060015194509450945094505092959194509250565b6060600060028054905067ffffffffffffffff811115610d5857610d576113aa565b5b604051908082528060200260200182016040528015610d9157816020015b610d7e611202565b815260200190600190039081610d765790505b50905060005b600280549050811015610f6057600060028281548110610dba57610db9611e98565b5b906000526020600020015490506000600160008773ffffffffffffffffffffffffffffffffffffffff1673ffffffffffffffffffffffffffffffffffffffff16815260200190815260200160002060008381526020019081526020016000206000015414610f52576000600160008773ffffffffffffffffffffffffffffffffffffffff1673ffffffffffffffffffffffffffffffffffffffff168152602001908152602001600020600083815260200190815260200160002090508060405180608001604052908160008201548152602001600182018054610e9c90611a11565b80601f0160208091040260200160405190810160405280929190818152602001828054610ec890611a11565b8015610f155780601f10610eea57610100808354040283529160200191610f15565b820191906000526020600020905b815481529060010190602001808311610ef857829003601f168201915b5050505050815260200160028201548152602001600382015481525050848481518110610f4557610f44611e98565b5b6020026020010181905250505b508080600101915050610d97565b5080915050919050565b6060600060028054905067ffffffffffffffff811115610f8d57610f8c6113aa565b5b604051908082528060200260200182016040528015610fc657816020015b610fb3611202565b815260200190600190039081610fab5790505b5090506000805b84518110156110e95760003073ffffffffffffffffffffffffffffffffffffffff1663d1f2c4a287848151811061100757611006611e98565b5b60200260200101516040518263ffffffff1660e01b815260040161102b9190611ed6565b600060405180830381865afa158015611048573d6000803e3d6000fd5b505050506040513d6000823e3d601f19601f8201168201806040525081019061107191906120f5565b905060005b81518110156110da57600082828151811061109457611093611e98565b5b60200260200101519050808686815181106110b2576110b1611e98565b5b60200260200101819052506001856110ca919061216d565b9450508080600101915050611076565b50508080600101915050610fcd565b508192505050919050565b80600160008573ffffffffffffffffffffffffffffffffffffffff1673ffffffffffffffffffffffffffffffffffffffff168152602001908152602001600020600084815260200190815260200160002060020181905550505050565b600080600090505b826002828154811061116e5761116d611e98565b5b9060005260206000200154036111aa576002818154811061119257611191611e98565b5b906000526020600020016000905560019150506111bd565b80806111b5906121a1565b915050611159565b919050565b5080546111ce90611a11565b6000825580601f106111e057506111ff565b601f0160209004906000526020600020908101906111fe919061122a565b5b50565b6040518060800160405280600081526020016060815260200160008152602001600081525090565b5b8082111561124357600081600090555060010161122b565b5090565b6000604051905090565b600080fd5b600080fd5b600073ffffffffffffffffffffffffffffffffffffffff82169050919050565b60006112868261125b565b9050919050565b6112968161127b565b81146112a157600080fd5b50565b6000813590506112b38161128d565b92915050565b6000819050919050565b6112cc816112b9565b81146112d757600080fd5b50565b6000813590506112e9816112c3565b92915050565b6000806040838503121561130657611305611251565b5b6000611314858286016112a4565b9250506020611325858286016112da565b9150509250929050565b60008115159050919050565b6113448161132f565b82525050565b600060208201905061135f600083018461133b565b92915050565b61136e816112b9565b82525050565b60006020820190506113896000830184611365565b92915050565b600080fd5b600080fd5b6000601f19601f8301169050919050565b7f4e487b7100000000000000000000000000000000000000000000000000000000600052604160045260246000fd5b6113e282611399565b810181811067ffffffffffffffff82111715611401576114006113aa565b5b80604052505050565b6000611414611247565b905061142082826113d9565b919050565b600067ffffffffffffffff8211156114405761143f6113aa565b5b61144982611399565b9050602081019050919050565b82818337600083830152505050565b600061147861147384611425565b61140a565b90508281526020810184848401111561149457611493611394565b5b61149f848285611456565b509392505050565b600082601f8301126114bc576114bb61138f565b5b81356114cc848260208601611465565b91505092915050565b600080600080608085870312156114ef576114ee611251565b5b60006114fd878288016112a4565b945050602085013567ffffffffffffffff81111561151e5761151d611256565b5b61152a878288016114a7565b935050604061153b878288016112da565b925050606061154c878288016112da565b91505092959194509250565b600081519050919050565b600082825260208201905092915050565b60005b83811015611592578082015181840152602081019050611577565b60008484015250505050565b60006115a982611558565b6115b38185611563565b93506115c3818560208601611574565b6115cc81611399565b840191505092915050565b60006080820190506115ec6000830187611365565b81810360208301526115fe818661159e565b905061160d6040830185611365565b61161a6060830184611365565b95945050505050565b60008060006060848603121561163c5761163b611251565b5b600061164a868287016112a4565b935050602061165b868287016112da565b925050604061166c868287016112da565b9150509250925092565b60006020820190508181036000830152611690818461159e565b905092915050565b6000602082840312156116ae576116ad611251565b5b60006116bc848285016112a4565b91505092915050565b600081519050919050565b600082825260208201905092915050565b6000819050602082019050919050565b6116fa816112b9565b82525050565b600082825260208201905092915050565b600061171c82611558565b6117268185611700565b9350611736818560208601611574565b61173f81611399565b840191505092915050565b600060808301600083015161176260008601826116f1565b506020830151848203602086015261177a8282611711565b915050604083015161178f60408601826116f1565b5060608301516117a260608601826116f1565b508091505092915050565b60006117b9838361174a565b905092915050565b6000602082019050919050565b60006117d9826116c5565b6117e381856116d0565b9350836020820285016117f5856116e1565b8060005b85811015611831578484038952815161181285826117ad565b945061181d836117c1565b925060208a019950506001810190506117f9565b50829750879550505050505092915050565b6000602082019050818103600083015261185d81846117ce565b905092915050565b600067ffffffffffffffff8211156118805761187f6113aa565b5b602082029050602081019050919050565b600080fd5b60006118a96118a484611865565b61140a565b905080838252602082019050602084028301858111156118cc576118cb611891565b5b835b818110156118f557806118e188826112a4565b8452602084019350506020810190506118ce565b5050509392505050565b600082601f8301126119145761191361138f565b5b8135611924848260208601611896565b91505092915050565b60006020828403121561194357611942611251565b5b600082013567ffffffffffffffff81111561196157611960611256565b5b61196d848285016118ff565b91505092915050565b7f4944204d696c6b4261746368204e6f742056616c696421000000000000000000600082015250565b60006119ac601783611563565b91506119b782611976565b602082019050919050565b600060208201905081810360008301526119db8161199f565b9050919050565b7f4e487b7100000000000000000000000000000000000000000000000000000000600052602260045260246000fd5b60006002820490506001821680611a2957607f821691505b602082108103611a3c57611a3b6119e2565b5b50919050565b600081905092915050565b6000611a5882611558565b611a628185611a42565b9350611a72818560208601611574565b80840191505092915050565b6000819050919050565b611a99611a94826112b9565b611a7e565b82525050565b60008160601b9050919050565b6000611ab782611a9f565b9050919050565b6000611ac982611aac565b9050919050565b611ae1611adc8261127b565b611abe565b82525050565b6000611af38288611a4d565b9150611aff8287611a88565b602082019150611b0f8286611a88565b602082019150611b1f8285611ad0565b601482019150611b2f8284611a88565b6020820191508190509695505050505050565b60008190508160005260206000209050919050565b60006020601f8301049050919050565b600082821b905092915050565b600060088302611ba47fffffffffffffffffffffffffffffffffffffffffffffffffffffffffffffffff82611b67565b611bae8683611b67565b95508019841693508086168417925050509392505050565b6000819050919050565b6000611beb611be6611be1846112b9565b611bc6565b6112b9565b9050919050565b6000819050919050565b611c0583611bd0565b611c19611c1182611bf2565b848454611b74565b825550505050565b600090565b611c2e611c21565b611c39818484611bfc565b505050565b5b81811015611c5d57611c52600082611c26565b600181019050611c3f565b5050565b601f821115611ca257611c7381611b42565b611c7c84611b57565b81016020851015611c8b578190505b611c9f611c9785611b57565b830182611c3e565b50505b505050565b600082821c905092915050565b6000611cc560001984600802611ca7565b1980831691505092915050565b6000611cde8383611cb4565b9150826002028217905092915050565b611cf782611558565b67ffffffffffffffff811115611d1057611d0f6113aa565b5b611d1a8254611a11565b611d25828285611c61565b600060209050601f831160018114611d585760008415611d46578287015190505b611d508582611cd2565b865550611db8565b601f198416611d6686611b42565b60005b82811015611d8e57848901518255600182019150602085019450602081019050611d69565b86831015611dab5784890151611da7601f891682611cb4565b8355505b6001600288020188555050505b505050505050565b7f50726f64756374206e6f6e2070726573656e7465210000000000000000000000600082015250565b6000611df6601583611563565b9150611e0182611dc0565b602082019050919050565b60006020820190508181036000830152611e2581611de9565b9050919050565b7f5175616e74697479206e6f742056616c69642100000000000000000000000000600082015250565b6000611e62601383611563565b9150611e6d82611e2c565b602082019050919050565b60006020820190508181036000830152611e9181611e55565b9050919050565b7f4e487b7100000000000000000000000000000000000000000000000000000000600052603260045260246000fd5b611ed08161127b565b82525050565b6000602082019050611eeb6000830184611ec7565b92915050565b600067ffffffffffffffff821115611f0c57611f0b6113aa565b5b602082029050602081019050919050565b600080fd5b600080fd5b600081519050611f36816112c3565b92915050565b6000611f4f611f4a84611425565b61140a565b905082815260208101848484011115611f6b57611f6a611394565b5b611f76848285611574565b509392505050565b600082601f830112611f9357611f9261138f565b5b8151611fa3848260208601611f3c565b91505092915050565b600060808284031215611fc257611fc1611f1d565b5b611fcc608061140a565b90506000611fdc84828501611f27565b600083015250602082015167ffffffffffffffff81111561200057611fff611f22565b5b61200c84828501611f7e565b602083015250604061202084828501611f27565b604083015250606061203484828501611f27565b60608301525092915050565b600061205361204e84611ef1565b61140a565b9050808382526020820190506020840283018581111561207657612075611891565b5b835b818110156120bd57805167ffffffffffffffff81111561209b5761209a61138f565b5b8086016120a88982611fac565b85526020850194505050602081019050612078565b5050509392505050565b600082601f8301126120dc576120db61138f565b5b81516120ec848260208601612040565b91505092915050565b60006020828403121561210b5761210a611251565b5b600082015167ffffffffffffffff81111561212957612128611256565b5b612135848285016120c7565b91505092915050565b7f4e487b7100000000000000000000000000000000000000000000000000000000600052601160045260246000fd5b6000612178826112b9565b9150612183836112b9565b925082820190508082111561219b5761219a61213e565b5b92915050565b60006121ac826112b9565b91507fffffffffffffffffffffffffffffffffffffffffffffffffffffffffffffffff82036121de576121dd61213e565b5b60018201905091905056fea2646970667358221220c91d6b50028dc6a7f4d5cd907bc6b992129312c8962b9530c845a83b800cd43264736f6c63430008180033",
  "immutableReferences": {},
  "source": "// SPDX-License-Identifier: MIT\r\npragma solidity ^0.8.0;\r\n\r\ncontract MilkHubInventoryStorage {\r\n\r\n     // Address of Organization che gestisce gli utenti\r\n    address private  MilkHubOrg;\r\n\r\n    constructor(){\r\n        MilkHubOrg = msg.sender;\r\n    }\r\n\r\n    struct MilkBatch {\r\n        uint256 id;\r\n        string scadenza;\r\n        uint256 quantity; \r\n        uint256 price; // Prezzo di vendita per un Litro di  ( Partita di Latte )\r\n    }\r\n\r\n            /// MilkHub -> Lista Prodotti \r\n    mapping(address => mapping(uint256 => MilkBatch)) private milkBatches;\r\n\r\n    uint256[] milkBatchIdList;\r\n\r\n//----------------------------------------------------------------- Business Logic ------------------------------------------------------------------------------------------------//\r\n\r\n\r\n    // Add function to add CheesePiece\r\n    function addMilkBatch(address walletMilkHub, string memory _scadenza, uint256 _quantity, uint256 _price) external returns (uint256,string memory, uint256, uint256) {\r\n        \r\n        // Generazione dell'ID \r\n        uint256 _id = uint256(keccak256(abi.encodePacked(\r\n            _scadenza,\r\n            _quantity,\r\n            _price,\r\n            walletMilkHub,\r\n            block.timestamp\r\n        )));\r\n\r\n        //Crea una nuova Partita di Latte\r\n        MilkBatch memory milkBatch = MilkBatch({\r\n            id: _id,\r\n            scadenza: _scadenza,\r\n            quantity: _quantity,\r\n            price: _price\r\n        });\r\n\r\n        // Inserisco L'id nell'Array \r\n        milkBatchIdList.push(_id);\r\n\r\n        //Inserisce la nuova Partita di Latte nella lista milkBatches\r\n        milkBatches[walletMilkHub][_id] = milkBatch;\r\n        \r\n        return (\r\n                milkBatches[walletMilkHub][_id].id,\r\n                milkBatches[walletMilkHub][_id].scadenza,\r\n                milkBatches[walletMilkHub][_id].quantity,\r\n                milkBatches[walletMilkHub][_id].price\r\n              );\r\n    }\r\n\r\n    // Ritorna un MilkBatch \r\n    function getMilkBatch(address walletMilkHub, uint256 _id) external view returns (uint256, string memory, uint256, uint256) {\r\n\r\n        MilkBatch memory milkBatch = milkBatches[walletMilkHub][_id];\r\n\r\n        return (milkBatch.id, milkBatch.scadenza, milkBatch.quantity, milkBatch.price);\r\n\r\n    }\r\n\r\n    // Delete Cheese piece \r\n    // We can delete a cheese piece with -> address of Consumer and id of CheesePiece\r\n    function deleteMilkBatch(address walletMilkHub, uint256 _id) external returns(bool value) {\r\n\r\n        // Delete piece of Cheese\r\n        delete milkBatches[walletMilkHub][_id];\r\n\r\n        \r\n        // Check CheesePiece in the mapping \r\n        if(milkBatches[walletMilkHub][_id].id  == 0 && deleteMilkBatchIdFromList(_id)){\r\n            return true;\r\n        }else {\r\n            return false;\r\n        }\r\n    }\r\n\r\n    function getMilkBatchListByMilkHub(address walletMilkHub) external view  returns (MilkBatch[] memory){\r\n        MilkBatch [ ] memory  milkBatchList  = new MilkBatch[](milkBatchIdList.length);\r\n\r\n        for (uint256 i=0; i<milkBatchIdList.length; i++){\r\n\r\n                uint256 _id = milkBatchIdList[i];\r\n                if(milkBatches[walletMilkHub][_id].id != 0){\r\n                    // Esiste e questo  il MilkBatch dell'Utente \r\n                    MilkBatch storage new_milkbatch = milkBatches[walletMilkHub][_id];\r\n                    milkBatchList[i] = new_milkbatch;\r\n                } \r\n        }\r\n        return milkBatchList;\r\n    }\r\n\r\n\r\n    function getAllMilkBatchList(address[] memory milkHubListaddress)external view returns (MilkBatch[]memory){\r\n        \r\n        MilkBatch [ ] memory  milkBatchList  = new MilkBatch[](milkBatchIdList.length);\r\n        \r\n        uint256 t = 0; \r\n\r\n        for(uint256 i = 0; i<milkHubListaddress.length; i++){\r\n            \r\n            MilkBatch [ ] memory milkBatchListFromUser = this.getMilkBatchListByMilkHub(milkHubListaddress[i]);\r\n            \r\n            for(uint256 j=0; j< milkBatchListFromUser.length; j++){\r\n                MilkBatch memory new_milkbatch = milkBatchListFromUser[j];\r\n                milkBatchList[t] = new_milkbatch;\r\n                t = t+1;\r\n            }\r\n        }\r\n        return milkBatchList;\r\n\r\n    }\r\n\r\n    \r\n    function checkProduct(address ownerMilkBatch, uint256 _id_MilkBatch, uint256 quantityToBuy) external view  returns (bool){\r\n\r\n            require(milkBatches[ownerMilkBatch][_id_MilkBatch].id == _id_MilkBatch, \"Product non presente!\");\r\n\r\n            MilkBatch storage milkBatchObj = milkBatches[ownerMilkBatch][_id_MilkBatch];\r\n            \r\n            require(milkBatchObj.quantity >= quantityToBuy, \"Quantity not Valid!\");\r\n            return true;\r\n    }\r\n\r\n    /**\r\n        - Funzione isMilkBatchPresent() funzione per verificare che il MilkBatch  presente \r\n        - Verifica tramite _id e address del walletMilkHub se il Prodotto  presente \r\n        - ritorna TRUE se il confronto  vero \r\n        - ritorna FALSE se non  presente \r\n    */\r\n    function isMilkBatchPresent(address walletMilkHub, uint256 _id)external view returns(bool){\r\n        require( _id !=0 && _id>0,\"ID MilkBatch Not Valid!\");\r\n\r\n        return milkBatches[walletMilkHub][_id].id == _id;\r\n    }\r\n\r\n//---------------------------------------------------------- Get Function ----------------------------------------------------------------------//   \r\n\r\n    function getExpirationDate(address walletMilkHub, uint256 _id) external view returns(string memory) {\r\n\r\n        MilkBatch memory milkBatch = milkBatches[walletMilkHub][_id];\r\n        return milkBatch.scadenza;        \r\n    }\r\n\r\n    function getQuantity(address walletMilkHub, uint256 _id) external view returns(uint256) {\r\n\r\n        MilkBatch memory milkBatch = milkBatches[walletMilkHub][_id];\r\n\r\n        return milkBatch.quantity;        \r\n    }\r\n\r\n    function getPrice(address walletMilkHub, uint256 _id) external view returns(uint256) {\r\n\r\n        MilkBatch memory milkBatch = milkBatches[walletMilkHub][_id];\r\n        \r\n        return milkBatch.price;        \r\n    }\r\n\r\n    function getLenghtList() internal view returns(uint256){\r\n       return milkBatchIdList.length;\r\n    }\r\n\r\n//---------------------------------------------------------- Delete Function ----------------------------------------------------------------------//   \r\n\r\n    function deleteMilkBatchIdFromList(uint256 _id)internal returns (bool) {\r\n        for(uint256 i=0; ; i++){\r\n            if(milkBatchIdList[i] == _id){\r\n                delete  milkBatchIdList[i];\r\n                return true;\r\n            }\r\n        }\r\n        return false;\r\n    }\r\n\r\n// ------------------------------------------------------------ Set Function ------------------------------------------------------------------//\r\n\r\n    // - Funzione updateMilkBatchQuantity() aggiorna la quantit del MilkBatch \r\n    function updateQuantity(address walletMilkHub, uint256 _id, uint256 _newQuantity) external  {\r\n        \r\n        milkBatches[walletMilkHub][_id].quantity = _newQuantity;\r\n    }\r\n\r\n}",
  "sourcePath": "C:\\Users\\umber\\Progetti\\FilieraToken\\Filiera-Token-Smart-Contract\\contracts\\Actor\\MilkHub-smart-contract\\inventory\\MilkHubInventoryStorage.sol",
  "compiler": {
    "name": "solc",
    "version": "0.8.24+commit.e11b9ed9.Emscripten.clang"
  },
  "schemaVersion": "3.4.16",
  "updatedAt": "2024-02-28T11:39:54.271Z",
  "devdoc": {
    "kind": "dev",
    "methods": {},
    "version": 1
  },
  "userdoc": {
    "kind": "user",
    "methods": {
      "isMilkBatchPresent(address,uint256)": {
        "notice": "- Funzione isMilkBatchPresent() funzione per verificare che il MilkBatch  presente  - Verifica tramite _id e address del walletMilkHub se il Prodotto  presente  - ritorna TRUE se il confronto  vero  - ritorna FALSE se non  presente "
      }
    },
    "version": 1
  }
}