{
  "contractName": "MilkHubService",
  "abi": [
    {
      "inputs": [
        {
          "internalType": "address",
          "name": "_milkhubStorage",
          "type": "address"
        },
        {
          "internalType": "address",
          "name": "_filieraToken",
          "type": "address"
        }
      ],
      "stateMutability": "nonpayable",
      "type": "constructor"
    },
    {
      "anonymous": false,
      "inputs": [
        {
          "indexed": true,
          "internalType": "address",
          "name": "walletMilkHub",
          "type": "address"
        },
        {
          "indexed": false,
          "internalType": "string",
          "name": "message",
          "type": "string"
        }
      ],
      "name": "MilkHubDeleted",
      "type": "event"
    },
    {
      "anonymous": false,
      "inputs": [
        {
          "indexed": true,
          "internalType": "address",
          "name": "walletMilkHub",
          "type": "address"
        },
        {
          "indexed": false,
          "internalType": "string",
          "name": "fullName",
          "type": "string"
        },
        {
          "indexed": false,
          "internalType": "string",
          "name": "message",
          "type": "string"
        }
      ],
      "name": "MilkHubRegistered",
      "type": "event"
    },
    {
      "inputs": [
        {
          "internalType": "string",
          "name": "fullName",
          "type": "string"
        },
        {
          "internalType": "string",
          "name": "password",
          "type": "string"
        },
        {
          "internalType": "string",
          "name": "email",
          "type": "string"
        },
        {
          "internalType": "address",
          "name": "walletMilkHub",
          "type": "address"
        }
      ],
      "name": "registerMilkHub",
      "outputs": [],
      "stateMutability": "nonpayable",
      "type": "function"
    },
    {
      "inputs": [
        {
          "internalType": "address",
          "name": "walletMilkHub",
          "type": "address"
        },
        {
          "internalType": "string",
          "name": "email",
          "type": "string"
        },
        {
          "internalType": "string",
          "name": "password",
          "type": "string"
        }
      ],
      "name": "login",
      "outputs": [
        {
          "internalType": "bool",
          "name": "",
          "type": "bool"
        }
      ],
      "stateMutability": "view",
      "type": "function"
    },
    {
      "inputs": [
        {
          "internalType": "address",
          "name": "walletMilkHub",
          "type": "address"
        },
        {
          "internalType": "uint256",
          "name": "_id",
          "type": "uint256"
        }
      ],
      "name": "deleteMilkHub",
      "outputs": [],
      "stateMutability": "nonpayable",
      "type": "function"
    },
    {
      "inputs": [
        {
          "internalType": "address",
          "name": "walletMilkHub",
          "type": "address"
        }
      ],
      "name": "isUserPresent",
      "outputs": [
        {
          "internalType": "bool",
          "name": "",
          "type": "bool"
        }
      ],
      "stateMutability": "view",
      "type": "function"
    },
    {
      "inputs": [
        {
          "internalType": "address",
          "name": "walletMilkHub",
          "type": "address"
        }
      ],
      "name": "getMilkHubId",
      "outputs": [
        {
          "internalType": "uint256",
          "name": "",
          "type": "uint256"
        }
      ],
      "stateMutability": "view",
      "type": "function"
    },
    {
      "inputs": [
        {
          "internalType": "address",
          "name": "walletMilkHub",
          "type": "address"
        },
        {
          "internalType": "uint256",
          "name": "_id",
          "type": "uint256"
        }
      ],
      "name": "getMilkHubFullName",
      "outputs": [
        {
          "internalType": "string",
          "name": "",
          "type": "string"
        }
      ],
      "stateMutability": "view",
      "type": "function"
    },
    {
      "inputs": [
        {
          "internalType": "address",
          "name": "walletMilkHub",
          "type": "address"
        },
        {
          "internalType": "uint256",
          "name": "_id",
          "type": "uint256"
        }
      ],
      "name": "getMilkHubEmail",
      "outputs": [
        {
          "internalType": "string",
          "name": "",
          "type": "string"
        }
      ],
      "stateMutability": "view",
      "type": "function"
    },
    {
      "inputs": [
        {
          "internalType": "address",
          "name": "walletMilkHub",
          "type": "address"
        },
        {
          "internalType": "uint256",
          "name": "_id",
          "type": "uint256"
        }
      ],
      "name": "getMilkHubBalance",
      "outputs": [
        {
          "internalType": "uint256",
          "name": "",
          "type": "uint256"
        }
      ],
      "stateMutability": "view",
      "type": "function"
    },
    {
      "inputs": [
        {
          "internalType": "address",
          "name": "walletMilkHub",
          "type": "address"
        },
        {
          "internalType": "uint256",
          "name": "_id",
          "type": "uint256"
        }
      ],
      "name": "getMilkHubData",
      "outputs": [
        {
          "internalType": "uint256",
          "name": "",
          "type": "uint256"
        },
        {
          "internalType": "string",
          "name": "",
          "type": "string"
        },
        {
          "internalType": "string",
          "name": "",
          "type": "string"
        },
        {
          "internalType": "string",
          "name": "",
          "type": "string"
        },
        {
          "internalType": "uint256",
          "name": "",
          "type": "uint256"
        }
      ],
      "stateMutability": "view",
      "type": "function"
    },
    {
      "inputs": [],
      "name": "getListAddressMilkHub",
      "outputs": [
        {
          "internalType": "address[]",
          "name": "",
          "type": "address[]"
        }
      ],
      "stateMutability": "view",
      "type": "function"
    },
    {
      "inputs": [
        {
          "internalType": "address",
          "name": "walletMilkHub",
          "type": "address"
        },
        {
          "internalType": "uint256",
          "name": "balance",
          "type": "uint256"
        }
      ],
      "name": "updateMilkHubBalance",
      "outputs": [],
      "stateMutability": "nonpayable",
      "type": "function"
    }
  ],
  "bytecode": "0x60806040523480156200001157600080fd5b50604051620037b0380380620037b083398181016040528101906200003791906200016b565b816000806101000a81548173ffffffffffffffffffffffffffffffffffffffff021916908373ffffffffffffffffffffffffffffffffffffffff16021790555080600160006101000a81548173ffffffffffffffffffffffffffffffffffffffff021916908373ffffffffffffffffffffffffffffffffffffffff16021790555033600260006101000a81548173ffffffffffffffffffffffffffffffffffffffff021916908373ffffffffffffffffffffffffffffffffffffffff1602179055505050620001b2565b600080fd5b600073ffffffffffffffffffffffffffffffffffffffff82169050919050565b6000620001338262000106565b9050919050565b620001458162000126565b81146200015157600080fd5b50565b60008151905062000165816200013a565b92915050565b6000806040838503121562000185576200018462000101565b5b6000620001958582860162000154565b9250506020620001a88582860162000154565b9150509250929050565b6135ee80620001c26000396000f3fe608060405234801561001057600080fd5b50600436106100a95760003560e01c80634c4a157a116100715780634c4a157a1461019057806353d4f173146101ac57806379329937146101dc578063a3bc4bb51461020c578063a557880714610228578063b5d1680514610258576100a9565b806311920cb7146100ae57806315ab1dfb146100de5780633c32bd221461010e57806343a84e601461013e578063487c29bd1461015c575b600080fd5b6100c860048036038101906100c391906125ca565b610274565b6040516100d59190612619565b60405180910390f35b6100f860048036038101906100f39190612634565b610539565b6040516101059190612619565b60405180910390f35b610128600480360381019061012391906125ca565b6107fb565b60405161013591906126f1565b60405180910390f35b610146610ac5565b60405161015391906127d1565b60405180910390f35b610176600480360381019061017191906125ca565b610b60565b6040516101879594939291906127f3565b60405180910390f35b6101aa60048036038101906101a591906125ca565b610fcf565b005b6101c660048036038101906101c191906125ca565b6115e9565b6040516101d391906126f1565b60405180910390f35b6101f660048036038101906101f19190612990565b6118b3565b6040516102039190612a36565b60405180910390f35b610226600480360381019061022191906125ca565b611c34565b005b610242600480360381019061023d9190612634565b611fe0565b60405161024f9190612a36565b60405180910390f35b610272600480360381019061026d9190612a51565b612084565b005b600082600073ffffffffffffffffffffffffffffffffffffffff168173ffffffffffffffffffffffffffffffffffffffff16036102e6576040517f08c379a00000000000000000000000000000000000000000000000000000000081526004016102dd90612b58565b60405180910390fd5b60008054906101000a900473ffffffffffffffffffffffffffffffffffffffff1673ffffffffffffffffffffffffffffffffffffffff168173ffffffffffffffffffffffffffffffffffffffff1603610374576040517f08c379a000000000000000000000000000000000000000000000000000000000815260040161036b90612bea565b60405180910390fd5b600160009054906101000a900473ffffffffffffffffffffffffffffffffffffffff1673ffffffffffffffffffffffffffffffffffffffff168173ffffffffffffffffffffffffffffffffffffffff1603610404576040517f08c379a00000000000000000000000000000000000000000000000000000000081526004016103fb90612c7c565b60405180910390fd5b600260009054906101000a900473ffffffffffffffffffffffffffffffffffffffff1673ffffffffffffffffffffffffffffffffffffffff168173ffffffffffffffffffffffffffffffffffffffff1603610494576040517f08c379a000000000000000000000000000000000000000000000000000000000815260040161048b90612ce8565b60405180910390fd5b60008054906101000a900473ffffffffffffffffffffffffffffffffffffffff1673ffffffffffffffffffffffffffffffffffffffff16632b04e84085856040518363ffffffff1660e01b81526004016104ef929190612d17565b602060405180830381865afa15801561050c573d6000803e3d6000fd5b505050506040513d601f19601f820116820180604052508101906105309190612d55565b91505092915050565b600081600073ffffffffffffffffffffffffffffffffffffffff168173ffffffffffffffffffffffffffffffffffffffff16036105ab576040517f08c379a00000000000000000000000000000000000000000000000000000000081526004016105a290612b58565b60405180910390fd5b60008054906101000a900473ffffffffffffffffffffffffffffffffffffffff1673ffffffffffffffffffffffffffffffffffffffff168173ffffffffffffffffffffffffffffffffffffffff1603610639576040517f08c379a000000000000000000000000000000000000000000000000000000000815260040161063090612bea565b60405180910390fd5b600160009054906101000a900473ffffffffffffffffffffffffffffffffffffffff1673ffffffffffffffffffffffffffffffffffffffff168173ffffffffffffffffffffffffffffffffffffffff16036106c9576040517f08c379a00000000000000000000000000000000000000000000000000000000081526004016106c090612c7c565b60405180910390fd5b600260009054906101000a900473ffffffffffffffffffffffffffffffffffffffff1673ffffffffffffffffffffffffffffffffffffffff168173ffffffffffffffffffffffffffffffffffffffff1603610759576040517f08c379a000000000000000000000000000000000000000000000000000000000815260040161075090612ce8565b60405180910390fd5b60008054906101000a900473ffffffffffffffffffffffffffffffffffffffff1673ffffffffffffffffffffffffffffffffffffffff166365f68c89846040518263ffffffff1660e01b81526004016107b29190612d82565b602060405180830381865afa1580156107cf573d6000803e3d6000fd5b505050506040513d601f19601f820116820180604052508101906107f39190612d55565b915050919050565b606082600073ffffffffffffffffffffffffffffffffffffffff168173ffffffffffffffffffffffffffffffffffffffff160361086d576040517f08c379a000000000000000000000000000000000000000000000000000000000815260040161086490612b58565b60405180910390fd5b60008054906101000a900473ffffffffffffffffffffffffffffffffffffffff1673ffffffffffffffffffffffffffffffffffffffff168173ffffffffffffffffffffffffffffffffffffffff16036108fb576040517f08c379a00000000000000000000000000000000000000000000000000000000081526004016108f290612bea565b60405180910390fd5b600160009054906101000a900473ffffffffffffffffffffffffffffffffffffffff1673ffffffffffffffffffffffffffffffffffffffff168173ffffffffffffffffffffffffffffffffffffffff160361098b576040517f08c379a000000000000000000000000000000000000000000000000000000000815260040161098290612c7c565b60405180910390fd5b600260009054906101000a900473ffffffffffffffffffffffffffffffffffffffff1673ffffffffffffffffffffffffffffffffffffffff168173ffffffffffffffffffffffffffffffffffffffff1603610a1b576040517f08c379a0000000000000000000000000000000000000000000000000000000008152600401610a1290612ce8565b60405180910390fd5b60008054906101000a900473ffffffffffffffffffffffffffffffffffffffff1673ffffffffffffffffffffffffffffffffffffffff16636e44cd4285856040518363ffffffff1660e01b8152600401610a76929190612d17565b600060405180830381865afa158015610a93573d6000803e3d6000fd5b505050506040513d6000823e3d601f19601f82011682018060405250810190610abc9190612e0d565b91505092915050565b606060008054906101000a900473ffffffffffffffffffffffffffffffffffffffff1673ffffffffffffffffffffffffffffffffffffffff166343a84e606040518163ffffffff1660e01b8152600401600060405180830381865afa158015610b32573d6000803e3d6000fd5b505050506040513d6000823e3d601f19601f82011682018060405250810190610b5b9190612f33565b905090565b60006060806060600086600073ffffffffffffffffffffffffffffffffffffffff168173ffffffffffffffffffffffffffffffffffffffff1603610bd9576040517f08c379a0000000000000000000000000000000000000000000000000000000008152600401610bd090612b58565b60405180910390fd5b60008054906101000a900473ffffffffffffffffffffffffffffffffffffffff1673ffffffffffffffffffffffffffffffffffffffff168173ffffffffffffffffffffffffffffffffffffffff1603610c67576040517f08c379a0000000000000000000000000000000000000000000000000000000008152600401610c5e90612bea565b60405180910390fd5b600160009054906101000a900473ffffffffffffffffffffffffffffffffffffffff1673ffffffffffffffffffffffffffffffffffffffff168173ffffffffffffffffffffffffffffffffffffffff1603610cf7576040517f08c379a0000000000000000000000000000000000000000000000000000000008152600401610cee90612c7c565b60405180910390fd5b600260009054906101000a900473ffffffffffffffffffffffffffffffffffffffff1673ffffffffffffffffffffffffffffffffffffffff168173ffffffffffffffffffffffffffffffffffffffff1603610d87576040517f08c379a0000000000000000000000000000000000000000000000000000000008152600401610d7e90612ce8565b60405180910390fd5b3073ffffffffffffffffffffffffffffffffffffffff1663a5578807896040518263ffffffff1660e01b8152600401610dc09190612d82565b602060405180830381865afa158015610ddd573d6000803e3d6000fd5b505050506040513d601f19601f82011682018060405250810190610e019190612fa8565b610e40576040517f08c379a0000000000000000000000000000000000000000000000000000000008152600401610e3790613021565b60405180910390fd5b8660008054906101000a900473ffffffffffffffffffffffffffffffffffffffff1673ffffffffffffffffffffffffffffffffffffffff166365f68c898a6040518263ffffffff1660e01b8152600401610e9a9190612d82565b602060405180830381865afa158015610eb7573d6000803e3d6000fd5b505050506040513d601f19601f82011682018060405250810190610edb9190612d55565b14610f1b576040517f08c379a0000000000000000000000000000000000000000000000000000000008152600401610f129061308d565b60405180910390fd5b60008054906101000a900473ffffffffffffffffffffffffffffffffffffffff1673ffffffffffffffffffffffffffffffffffffffff16636f77926b896040518263ffffffff1660e01b8152600401610f749190612d82565b600060405180830381865afa158015610f91573d6000803e3d6000fd5b505050506040513d6000823e3d601f19601f82011682018060405250810190610fba91906130ad565b95509550955095509550509295509295909350565b81600073ffffffffffffffffffffffffffffffffffffffff168173ffffffffffffffffffffffffffffffffffffffff160361103f576040517f08c379a000000000000000000000000000000000000000000000000000000000815260040161103690612b58565b60405180910390fd5b60008054906101000a900473ffffffffffffffffffffffffffffffffffffffff1673ffffffffffffffffffffffffffffffffffffffff168173ffffffffffffffffffffffffffffffffffffffff16036110cd576040517f08c379a00000000000000000000000000000000000000000000000000000000081526004016110c490612bea565b60405180910390fd5b600160009054906101000a900473ffffffffffffffffffffffffffffffffffffffff1673ffffffffffffffffffffffffffffffffffffffff168173ffffffffffffffffffffffffffffffffffffffff160361115d576040517f08c379a000000000000000000000000000000000000000000000000000000000815260040161115490612c7c565b60405180910390fd5b600260009054906101000a900473ffffffffffffffffffffffffffffffffffffffff1673ffffffffffffffffffffffffffffffffffffffff168173ffffffffffffffffffffffffffffffffffffffff16036111ed576040517f08c379a00000000000000000000000000000000000000000000000000000000081526004016111e490612ce8565b60405180910390fd5b3073ffffffffffffffffffffffffffffffffffffffff1663a5578807846040518263ffffffff1660e01b81526004016112269190612d82565b602060405180830381865afa158015611243573d6000803e3d6000fd5b505050506040513d601f19601f820116820180604052508101906112679190612fa8565b6112a6576040517f08c379a000000000000000000000000000000000000000000000000000000000815260040161129d90613021565b60405180910390fd5b8160008054906101000a900473ffffffffffffffffffffffffffffffffffffffff1673ffffffffffffffffffffffffffffffffffffffff166365f68c89856040518263ffffffff1660e01b81526004016113009190612d82565b602060405180830381865afa15801561131d573d6000803e3d6000fd5b505050506040513d601f19601f820116820180604052508101906113419190612d55565b14611381576040517f08c379a00000000000000000000000000000000000000000000000000000000081526004016113789061308d565b60405180910390fd5b60008054906101000a900473ffffffffffffffffffffffffffffffffffffffff1673ffffffffffffffffffffffffffffffffffffffff16635c60f226846040518263ffffffff1660e01b81526004016113da9190612d82565b6020604051808303816000875af11580156113f9573d6000803e3d6000fd5b505050506040513d601f19601f8201168201806040525081019061141d9190612fa8565b61145c576040517f08c379a0000000000000000000000000000000000000000000000000000000008152600401611453906131c8565b60405180910390fd5b600160009054906101000a900473ffffffffffffffffffffffffffffffffffffffff1673ffffffffffffffffffffffffffffffffffffffff1663d1df306c84600160009054906101000a900473ffffffffffffffffffffffffffffffffffffffff1673ffffffffffffffffffffffffffffffffffffffff166370a08231876040518263ffffffff1660e01b81526004016114f69190612d82565b602060405180830381865afa158015611513573d6000803e3d6000fd5b505050506040513d601f19601f820116820180604052508101906115379190612d55565b6040518363ffffffff1660e01b8152600401611554929190612d17565b6020604051808303816000875af1158015611573573d6000803e3d6000fd5b505050506040513d601f19601f820116820180604052508101906115979190612fa8565b508273ffffffffffffffffffffffffffffffffffffffff167fec84ffa70a4646692f90f2a9cbdac6fd388d2d236cf969e08d94782e623034b36040516115dc90613234565b60405180910390a2505050565b606082600073ffffffffffffffffffffffffffffffffffffffff168173ffffffffffffffffffffffffffffffffffffffff160361165b576040517f08c379a000000000000000000000000000000000000000000000000000000000815260040161165290612b58565b60405180910390fd5b60008054906101000a900473ffffffffffffffffffffffffffffffffffffffff1673ffffffffffffffffffffffffffffffffffffffff168173ffffffffffffffffffffffffffffffffffffffff16036116e9576040517f08c379a00000000000000000000000000000000000000000000000000000000081526004016116e090612bea565b60405180910390fd5b600160009054906101000a900473ffffffffffffffffffffffffffffffffffffffff1673ffffffffffffffffffffffffffffffffffffffff168173ffffffffffffffffffffffffffffffffffffffff1603611779576040517f08c379a000000000000000000000000000000000000000000000000000000000815260040161177090612c7c565b60405180910390fd5b600260009054906101000a900473ffffffffffffffffffffffffffffffffffffffff1673ffffffffffffffffffffffffffffffffffffffff168173ffffffffffffffffffffffffffffffffffffffff1603611809576040517f08c379a000000000000000000000000000000000000000000000000000000000815260040161180090612ce8565b60405180910390fd5b60008054906101000a900473ffffffffffffffffffffffffffffffffffffffff1673ffffffffffffffffffffffffffffffffffffffff1663ecca407385856040518363ffffffff1660e01b8152600401611864929190612d17565b600060405180830381865afa158015611881573d6000803e3d6000fd5b505050506040513d6000823e3d601f19601f820116820180604052508101906118aa9190612e0d565b91505092915050565b600083600073ffffffffffffffffffffffffffffffffffffffff168173ffffffffffffffffffffffffffffffffffffffff1603611925576040517f08c379a000000000000000000000000000000000000000000000000000000000815260040161191c90612b58565b60405180910390fd5b60008054906101000a900473ffffffffffffffffffffffffffffffffffffffff1673ffffffffffffffffffffffffffffffffffffffff168173ffffffffffffffffffffffffffffffffffffffff16036119b3576040517f08c379a00000000000000000000000000000000000000000000000000000000081526004016119aa90612bea565b60405180910390fd5b600160009054906101000a900473ffffffffffffffffffffffffffffffffffffffff1673ffffffffffffffffffffffffffffffffffffffff168173ffffffffffffffffffffffffffffffffffffffff1603611a43576040517f08c379a0000000000000000000000000000000000000000000000000000000008152600401611a3a90612c7c565b60405180910390fd5b600260009054906101000a900473ffffffffffffffffffffffffffffffffffffffff1673ffffffffffffffffffffffffffffffffffffffff168173ffffffffffffffffffffffffffffffffffffffff1603611ad3576040517f08c379a0000000000000000000000000000000000000000000000000000000008152600401611aca90612ce8565b60405180910390fd5b3073ffffffffffffffffffffffffffffffffffffffff1663a5578807866040518263ffffffff1660e01b8152600401611b0c9190612d82565b602060405180830381865afa158015611b29573d6000803e3d6000fd5b505050506040513d601f19601f82011682018060405250810190611b4d9190612fa8565b611b8c576040517f08c379a0000000000000000000000000000000000000000000000000000000008152600401611b8390613021565b60405180910390fd5b60008054906101000a900473ffffffffffffffffffffffffffffffffffffffff1673ffffffffffffffffffffffffffffffffffffffff166306f22b048686866040518463ffffffff1660e01b8152600401611be993929190613254565b602060405180830381865afa158015611c06573d6000803e3d6000fd5b505050506040513d601f19601f82011682018060405250810190611c2a9190612fa8565b9150509392505050565b81600073ffffffffffffffffffffffffffffffffffffffff168173ffffffffffffffffffffffffffffffffffffffff1603611ca4576040517f08c379a0000000000000000000000000000000000000000000000000000000008152600401611c9b90612b58565b60405180910390fd5b60008054906101000a900473ffffffffffffffffffffffffffffffffffffffff1673ffffffffffffffffffffffffffffffffffffffff168173ffffffffffffffffffffffffffffffffffffffff1603611d32576040517f08c379a0000000000000000000000000000000000000000000000000000000008152600401611d2990612bea565b60405180910390fd5b600160009054906101000a900473ffffffffffffffffffffffffffffffffffffffff1673ffffffffffffffffffffffffffffffffffffffff168173ffffffffffffffffffffffffffffffffffffffff1603611dc2576040517f08c379a0000000000000000000000000000000000000000000000000000000008152600401611db990612c7c565b60405180910390fd5b600260009054906101000a900473ffffffffffffffffffffffffffffffffffffffff1673ffffffffffffffffffffffffffffffffffffffff168173ffffffffffffffffffffffffffffffffffffffff1603611e52576040517f08c379a0000000000000000000000000000000000000000000000000000000008152600401611e4990612ce8565b60405180910390fd5b60008211611e95576040517f08c379a0000000000000000000000000000000000000000000000000000000008152600401611e8c906132e5565b60405180910390fd5b3073ffffffffffffffffffffffffffffffffffffffff1663a5578807846040518263ffffffff1660e01b8152600401611ece9190612d82565b602060405180830381865afa158015611eeb573d6000803e3d6000fd5b505050506040513d601f19601f82011682018060405250810190611f0f9190612fa8565b611f4e576040517f08c379a0000000000000000000000000000000000000000000000000000000008152600401611f4590613351565b60405180910390fd5b60008054906101000a900473ffffffffffffffffffffffffffffffffffffffff1673ffffffffffffffffffffffffffffffffffffffff1663e0b1cccb84846040518363ffffffff1660e01b8152600401611fa9929190612d17565b600060405180830381600087803b158015611fc357600080fd5b505af1158015611fd7573d6000803e3d6000fd5b50505050505050565b60008060009054906101000a900473ffffffffffffffffffffffffffffffffffffffff1673ffffffffffffffffffffffffffffffffffffffff1663a5578807836040518263ffffffff1660e01b815260040161203c9190612d82565b602060405180830381865afa158015612059573d6000803e3d6000fd5b505050506040513d601f19601f8201168201806040525081019061207d9190612fa8565b9050919050565b80600073ffffffffffffffffffffffffffffffffffffffff168173ffffffffffffffffffffffffffffffffffffffff16036120f4576040517f08c379a00000000000000000000000000000000000000000000000000000000081526004016120eb90612b58565b60405180910390fd5b60008054906101000a900473ffffffffffffffffffffffffffffffffffffffff1673ffffffffffffffffffffffffffffffffffffffff168173ffffffffffffffffffffffffffffffffffffffff1603612182576040517f08c379a000000000000000000000000000000000000000000000000000000000815260040161217990612bea565b60405180910390fd5b600160009054906101000a900473ffffffffffffffffffffffffffffffffffffffff1673ffffffffffffffffffffffffffffffffffffffff168173ffffffffffffffffffffffffffffffffffffffff1603612212576040517f08c379a000000000000000000000000000000000000000000000000000000000815260040161220990612c7c565b60405180910390fd5b600260009054906101000a900473ffffffffffffffffffffffffffffffffffffffff1673ffffffffffffffffffffffffffffffffffffffff168173ffffffffffffffffffffffffffffffffffffffff16036122a2576040517f08c379a000000000000000000000000000000000000000000000000000000000815260040161229990612ce8565b60405180910390fd5b3073ffffffffffffffffffffffffffffffffffffffff1663a5578807836040518263ffffffff1660e01b81526004016122db9190612d82565b602060405180830381865afa1580156122f8573d6000803e3d6000fd5b505050506040513d601f19601f8201168201806040525081019061231c9190612fa8565b1561235c576040517f08c379a0000000000000000000000000000000000000000000000000000000008152600401612353906133bd565b60405180910390fd5b60008054906101000a900473ffffffffffffffffffffffffffffffffffffffff1673ffffffffffffffffffffffffffffffffffffffff1663b48ff0f1868686866040518563ffffffff1660e01b81526004016123bb94939291906133dd565b600060405180830381600087803b1580156123d557600080fd5b505af11580156123e9573d6000803e3d6000fd5b50505050600160009054906101000a900473ffffffffffffffffffffffffffffffffffffffff1673ffffffffffffffffffffffffffffffffffffffff1663a2a7e6228360646040518363ffffffff1660e01b815260040161244b92919061347c565b6020604051808303816000875af115801561246a573d6000803e3d6000fd5b505050506040513d601f19601f8201168201806040525081019061248e9190612fa8565b6124cd576040517f08c379a00000000000000000000000000000000000000000000000000000000081526004016124c4906134f1565b60405180910390fd5b8173ffffffffffffffffffffffffffffffffffffffff167f918aa83a75a788661092db288543c832368476dfb670bfc4cbbe6f262913a34a866040516125139190613583565b60405180910390a25050505050565b6000604051905090565b600080fd5b600080fd5b600073ffffffffffffffffffffffffffffffffffffffff82169050919050565b600061256182612536565b9050919050565b61257181612556565b811461257c57600080fd5b50565b60008135905061258e81612568565b92915050565b6000819050919050565b6125a781612594565b81146125b257600080fd5b50565b6000813590506125c48161259e565b92915050565b600080604083850312156125e1576125e061252c565b5b60006125ef8582860161257f565b9250506020612600858286016125b5565b9150509250929050565b61261381612594565b82525050565b600060208201905061262e600083018461260a565b92915050565b60006020828403121561264a5761264961252c565b5b60006126588482850161257f565b91505092915050565b600081519050919050565b600082825260208201905092915050565b60005b8381101561269b578082015181840152602081019050612680565b60008484015250505050565b6000601f19601f8301169050919050565b60006126c382612661565b6126cd818561266c565b93506126dd81856020860161267d565b6126e6816126a7565b840191505092915050565b6000602082019050818103600083015261270b81846126b8565b905092915050565b600081519050919050565b600082825260208201905092915050565b6000819050602082019050919050565b61274881612556565b82525050565b600061275a838361273f565b60208301905092915050565b6000602082019050919050565b600061277e82612713565b612788818561271e565b93506127938361272f565b8060005b838110156127c45781516127ab888261274e565b97506127b683612766565b925050600181019050612797565b5085935050505092915050565b600060208201905081810360008301526127eb8184612773565b905092915050565b600060a082019050612808600083018861260a565b818103602083015261281a81876126b8565b9050818103604083015261282e81866126b8565b9050818103606083015261284281856126b8565b9050612851608083018461260a565b9695505050505050565b600080fd5b600080fd5b7f4e487b7100000000000000000000000000000000000000000000000000000000600052604160045260246000fd5b61289d826126a7565b810181811067ffffffffffffffff821117156128bc576128bb612865565b5b80604052505050565b60006128cf612522565b90506128db8282612894565b919050565b600067ffffffffffffffff8211156128fb576128fa612865565b5b612904826126a7565b9050602081019050919050565b82818337600083830152505050565b600061293361292e846128e0565b6128c5565b90508281526020810184848401111561294f5761294e612860565b5b61295a848285612911565b509392505050565b600082601f8301126129775761297661285b565b5b8135612987848260208601612920565b91505092915050565b6000806000606084860312156129a9576129a861252c565b5b60006129b78682870161257f565b935050602084013567ffffffffffffffff8111156129d8576129d7612531565b5b6129e486828701612962565b925050604084013567ffffffffffffffff811115612a0557612a04612531565b5b612a1186828701612962565b9150509250925092565b60008115159050919050565b612a3081612a1b565b82525050565b6000602082019050612a4b6000830184612a27565b92915050565b60008060008060808587031215612a6b57612a6a61252c565b5b600085013567ffffffffffffffff811115612a8957612a88612531565b5b612a9587828801612962565b945050602085013567ffffffffffffffff811115612ab657612ab5612531565b5b612ac287828801612962565b935050604085013567ffffffffffffffff811115612ae357612ae2612531565b5b612aef87828801612962565b9250506060612b008782880161257f565b91505092959194509250565b7f41646472657373206973207a65726f0000000000000000000000000000000000600082015250565b6000612b42600f8361266c565b9150612b4d82612b0c565b602082019050919050565b60006020820190508181036000830152612b7181612b35565b9050919050565b7f41646472657373206973204d696c6b48756253746f7261676520536d6172742060008201527f436f6e7472616374210000000000000000000000000000000000000000000000602082015250565b6000612bd460298361266c565b9150612bdf82612b78565b604082019050919050565b60006020820190508181036000830152612c0381612bc7565b9050919050565b7f416464726573732069732046696c69657261546f6b656e20536d61727420436f60008201527f6e74726163742100000000000000000000000000000000000000000000000000602082015250565b6000612c6660278361266c565b9150612c7182612c0a565b604082019050919050565b60006020820190508181036000830152612c9581612c59565b9050919050565b7f4f7267616e697a6174696f6e2061646472657373000000000000000000000000600082015250565b6000612cd260148361266c565b9150612cdd82612c9c565b602082019050919050565b60006020820190508181036000830152612d0181612cc5565b9050919050565b612d1181612556565b82525050565b6000604082019050612d2c6000830185612d08565b612d39602083018461260a565b9392505050565b600081519050612d4f8161259e565b92915050565b600060208284031215612d6b57612d6a61252c565b5b6000612d7984828501612d40565b91505092915050565b6000602082019050612d976000830184612d08565b92915050565b6000612db0612dab846128e0565b6128c5565b905082815260208101848484011115612dcc57612dcb612860565b5b612dd784828561267d565b509392505050565b600082601f830112612df457612df361285b565b5b8151612e04848260208601612d9d565b91505092915050565b600060208284031215612e2357612e2261252c565b5b600082015167ffffffffffffffff811115612e4157612e40612531565b5b612e4d84828501612ddf565b91505092915050565b600067ffffffffffffffff821115612e7157612e70612865565b5b602082029050602081019050919050565b600080fd5b600081519050612e9681612568565b92915050565b6000612eaf612eaa84612e56565b6128c5565b90508083825260208201905060208402830185811115612ed257612ed1612e82565b5b835b81811015612efb5780612ee78882612e87565b845260208401935050602081019050612ed4565b5050509392505050565b600082601f830112612f1a57612f1961285b565b5b8151612f2a848260208601612e9c565b91505092915050565b600060208284031215612f4957612f4861252c565b5b600082015167ffffffffffffffff811115612f6757612f66612531565b5b612f7384828501612f05565b91505092915050565b612f8581612a1b565b8114612f9057600080fd5b50565b600081519050612fa281612f7c565b92915050565b600060208284031215612fbe57612fbd61252c565b5b6000612fcc84828501612f93565b91505092915050565b7f5574656e7465206e6f6e2065272070726573656e746521000000000000000000600082015250565b600061300b60178361266c565b915061301682612fd5565b602082019050919050565b6000602082019050818103600083015261303a81612ffe565b9050919050565b7f5574656e7465206e6f6e204175746f72697a7a61746f21000000000000000000600082015250565b600061307760178361266c565b915061308282613041565b602082019050919050565b600060208201905081810360008301526130a68161306a565b9050919050565b600080600080600060a086880312156130c9576130c861252c565b5b60006130d788828901612d40565b955050602086015167ffffffffffffffff8111156130f8576130f7612531565b5b61310488828901612ddf565b945050604086015167ffffffffffffffff81111561312557613124612531565b5b61313188828901612ddf565b935050606086015167ffffffffffffffff81111561315257613151612531565b5b61315e88828901612ddf565b925050608061316f88828901612d40565b9150509295509295909350565b7f4572726f726520647572616e7465206c612063616e63656c6c617a696f6e6500600082015250565b60006131b2601f8361266c565b91506131bd8261317c565b602082019050919050565b600060208201905081810360008301526131e1816131a5565b9050919050565b7f5574656e746520652720737461746f20656c696d696e61746f21000000000000600082015250565b600061321e601a8361266c565b9150613229826131e8565b602082019050919050565b6000602082019050818103600083015261324d81613211565b9050919050565b60006060820190506132696000830186612d08565b818103602083015261327b81856126b8565b9050818103604083015261328f81846126b8565b9050949350505050565b7f42616c616e6365204e6f742056616c6964000000000000000000000000000000600082015250565b60006132cf60118361266c565b91506132da82613299565b602082019050919050565b600060208201905081810360008301526132fe816132c2565b9050919050565b7f55736572204e6f7420466f756e64210000000000000000000000000000000000600082015250565b600061333b600f8361266c565b915061334682613305565b602082019050919050565b6000602082019050818103600083015261336a8161332e565b9050919050565b7f5574656e74652067696127207265676973747261746f20210000000000000000600082015250565b60006133a760188361266c565b91506133b282613371565b602082019050919050565b600060208201905081810360008301526133d68161339a565b9050919050565b600060808201905081810360008301526133f781876126b8565b9050818103602083015261340b81866126b8565b9050818103604083015261341f81856126b8565b905061342e6060830184612d08565b95945050505050565b6000819050919050565b6000819050919050565b600061346661346161345c84613437565b613441565b612594565b9050919050565b6134768161344b565b82525050565b60006040820190506134916000830185612d08565b61349e602083018461346d565b9392505050565b7f5472616e7366657220546f6b656e206e6f742056616c69642100000000000000600082015250565b60006134db60198361266c565b91506134e6826134a5565b602082019050919050565b6000602082019050818103600083015261350a816134ce565b9050919050565b7f5574656e7465204d696c6b48756220652720737461746f20726567697374726160008201527f746f210000000000000000000000000000000000000000000000000000000000602082015250565b600061356d60238361266c565b915061357882613511565b604082019050919050565b6000604082019050818103600083015261359d81846126b8565b905081810360208301526135b081613560565b90509291505056fea26469706673582212206568f3f775b38529247e038b01b6418012860b21cd6a8abc97b548854b27cfc264736f6c63430008180033",
  "immutableReferences": {},
  "source": "// SPDX-License-Identifier: MIT\npragma solidity ^0.8.0;\n\nimport \"./MilkHubStorage.sol\";\nimport \"../../Service/Filieratoken.sol\";\n\n\ncontract MilkHubService {\n\n//-------------------------------------------------------------------- Contract Address Service --------------------------------------------------------------------//\n\n\n    // Address of Consumer Storage \n    MilkHubStorage private milkhubStorage;\n    \n    // Address of Token FT - ERC-20\n    Filieratoken private filieraToken;\n\n    // Address of Organization che gestisce gli utenti\n    address private  MilkHubOrg;\n\n\n\n// --------------------------------------------------------------------- Event of Service ----------------------------------------------------------------//\n\n    // Evento emesso al momento della cancellazione di un consumatore\n    event MilkHubDeleted(address indexed walletMilkHub, string message);\n    // Evento emesso al momento della registrazione di un consumatore\n    event MilkHubRegistered(address indexed walletMilkHub, string fullName, string message);\n\n\n\n//---------------------------------------------------------------------- Constructor ----------------------------------------------------------------------------//    \n    constructor(address _milkhubStorage, address _filieraToken) {\n        milkhubStorage = MilkHubStorage(_milkhubStorage);\n        filieraToken = Filieratoken(_filieraToken);\n        MilkHubOrg = msg.sender;\n    }\n\n// ------------------------------------------------------------ Modifier Of Service ---------------------------------------------------------------------------------//\n\n\n    modifier onlyOrg(address sender){\n        require(sender == MilkHubOrg,\"User Not Authorized!\");\n        _;\n    }\n\n    // Verifica chi effettua la transazione : \n    // Verfica che l'address non sia l'organizzazione \n    // Verfica che l'address non sia lo smart contract del MilkHubStorage e FilieraToken \n    modifier checkAddress(address walletMilkHub){\n\n        require(walletMilkHub != address(0),\"Address is zero\");\n        require(walletMilkHub != address(milkhubStorage), \"Address is MilkHubStorage Smart Contract!\");\n        require(walletMilkHub != address(filieraToken), \"Address is FilieraToken Smart Contract!\" );\n        require(walletMilkHub != MilkHubOrg ,\"Organization address\");\n\n        _;\n    }\n\n\n//--------------------------------------------------------------- Business Logic -------------------------------------------------------------------------------------------//\n\n    /**\n     * registerMilkHub() registra gli utenti della piattaforma che sono MilkHub \n     * - Inserisce i dati all'interno della Blockchain\n     * - Trasferisce 100 token dal contratto di FilieraToken \n     * - Emette un evento appena l'utente  stato registrato \n     *  */ \n    function registerMilkHub(string memory fullName, string memory password, string memory email, address walletMilkHub) external checkAddress(walletMilkHub) {\n\n        // Verifica che l'utente  gia' presente \n        require(!(this.isUserPresent(walletMilkHub)), \"Utente gia' registrato !\");\n\n        // Chiama la funzione di Storage \n        milkhubStorage.addUser(fullName, password, email, walletMilkHub);\n\n        // Autogenera dei token nel balance del MilkHub \n        require(filieraToken.registerUserWithToken(address(walletMilkHub), 100),\"Transfer Token not Valid!\");\n\n        // Emette l'evento della registrazione dell'utente\n        emit MilkHubRegistered(walletMilkHub, fullName, \"Utente MilkHub e' stato registrato!\");\n    }\n\n    /**\n     * login() effettua la Login con email e password \n     * - Inserisce l'email e la password \n     * - return True se l'utente esiste ed ha accesso con le giuste credenziali \n     * - return False altrimenti \n     */\n    function login(address walletMilkHub, string memory email, string memory password) external view checkAddress(walletMilkHub)  returns(bool) {\n\n        // Verifichiamo che l'utente  presente \n        require(this.isUserPresent(walletMilkHub),\"Utente non e' presente!\");\n        \n        return milkhubStorage.loginUser(walletMilkHub, email, password);\n    }\n\n\n    /**\n     * deleteMilkHub() elimina un MilkHub all'interno del sistema \n     * - Solo l'owner pu effettuare l'eliminazione \n     * - msg.sender dovrebbe essere solo quello dell'owner \n     */\n    function deleteMilkHub(address walletMilkHub, uint256 _id) external checkAddress(walletMilkHub)  {\n        \n        // Verifico che l'utente  presente \n        require(this.isUserPresent(walletMilkHub), \"Utente non e' presente!\");\n        // Restituisce l'id del MilkHub tramite il suo address wallet\n        require(milkhubStorage.getId(walletMilkHub) == _id , \"Utente non Autorizzato!\");\n        // Effettuo la cancellazione dell'utente \n        require(milkhubStorage.deleteUser(walletMilkHub), \"Errore durante la cancellazione\");\n        // Burn all token ( elimina i token che sono in circolazione, di un utente che non effettua transazioni ) \n        filieraToken.burnToken(walletMilkHub, filieraToken.balanceOf(walletMilkHub));\n        // Emit Event on FireFly \n        emit MilkHubDeleted(walletMilkHub,\"Utente e' stato eliminato!\");\n    }\n\n// --------------------------------------------------------------------------- MilkHubInventoryService ----------------------------------------------------//\n\n    function isUserPresent(address walletMilkHub) external view returns(bool){\n        \n        return milkhubStorage.isUserPresent(walletMilkHub);\n    }\n\n\n\n//----------------------------------------------------------------------------- Get Function ----------------------------------------------------------------------//\n\n    /**\n        -  Funzione getMilkHubId() attraverso l'address del MilkHub siamo riusciti ad ottenere il suo ID\n    */\n    function getMilkHubId(address walletMilkHub) external view checkAddress(walletMilkHub)  returns (uint256){\n        \n        return milkhubStorage.getId(walletMilkHub);\n    }\n\n    \n    /**\n        - Funzione getFullName() attraverso l'address del MilkHub riusciamo a recuperare il suo FullName\n    */\n    function getMilkHubFullName(address walletMilkHub,uint256 _id) external view checkAddress(walletMilkHub) returns(string memory){\n\n        return milkhubStorage.getFullName(walletMilkHub,_id);\n    }\n\n    /**\n        - Funzione getEmail() attraverso l'address del MilkHub riusciamo a recuperare la sua Email \n    */\n    function getMilkHubEmail(address walletMilkHub, uint256 _id) external view checkAddress(walletMilkHub) returns(string memory){\n        \n        return milkhubStorage.getEmail(walletMilkHub,_id);\n    }\n\n    /**\n        - Funzione getBalance() attraverso l'address del MilkHub riusciamo a recuperare il suo Balance\n    */\n    function getMilkHubBalance(address walletMilkHub, uint256 _id) external view checkAddress(walletMilkHub)  returns(uint256){\n\n        return milkhubStorage.getBalance(walletMilkHub,_id);\n    }\n\n    /**\n     * getMilkHubData() otteniamo i dati del MilkHub\n     * - tramite l'address del MilkHub riusciamo a visualizzare anche i suoi dati\n     * - Dati sensibili e visibili solo dal MilkHub stesso \n     */\n    function getMilkHubData(address walletMilkHub, uint256 _id) external checkAddress(walletMilkHub) view returns (uint256, string memory, string memory, string memory, uint256) {\n        // Verifico che l'utente  presente \n        require(this.isUserPresent(walletMilkHub), \"Utente non e' presente!\");\n        // Restituisce l'id del MilkHub tramite il suo address wallet\n        require(milkhubStorage.getId(walletMilkHub) == _id , \"Utente non Autorizzato!\");\n        // Call function of Storage         \n        return milkhubStorage.getUser(walletMilkHub);\n    }\n\n    function getListAddressMilkHub() external view returns ( address [ ] memory){\n        return milkhubStorage.getListAddressMilkHub();\n    }\n\n//------------------------------------------------------------ Set Function -------------------------------------------------------------------//\n\n    // - Funzione updateBalance() attraverso l'address e l'id, riusciamo a settare il nuovo balance\n    function updateMilkHubBalance(address walletMilkHub, uint256 balance) external checkAddress(walletMilkHub) {\n        // Verifico che il Balance sia >0 \n        require(balance>0,\"Balance Not Valid\");\n        // Verifico che l'utente esista \n        require(this.isUserPresent(walletMilkHub),\"User Not Found!\");\n        // Update Balance \n        milkhubStorage.updateBalance(walletMilkHub, balance);\n    }\n\n\n// ------------------------------------------------------------ Change Address Contract of Service -----------------------------------------------------//\n\n\n    function changeMilkHubStorage(address _milkhubStorageNew)private {\n        milkhubStorage = MilkHubStorage(_milkhubStorageNew);\n    }\n\n\n    function changeFilieraToken(address _filieraToken)private {\n        filieraToken = Filieratoken(_filieraToken);\n    }\n\n\n}\n",
  "sourcePath": "/home/leone-pc/Documenti/GitHub/FilieraToken/Filiera-Token-Smart-Contract/contracts/Actor/MilkHub-smart-contract/MilkHubService.sol",
  "compiler": {
    "name": "solc",
    "version": "0.8.24+commit.e11b9ed9.Emscripten.clang"
  },
  "schemaVersion": "3.4.16",
  "updatedAt": "2024-03-01T19:20:25.583Z",
  "devdoc": {
    "kind": "dev",
    "methods": {},
    "version": 1
  },
  "userdoc": {
    "kind": "user",
    "methods": {
      "deleteMilkHub(address,uint256)": {
        "notice": "deleteMilkHub() elimina un MilkHub all'interno del sistema  - Solo l'owner pu effettuare l'eliminazione  - msg.sender dovrebbe essere solo quello dell'owner "
      },
      "getMilkHubBalance(address,uint256)": {
        "notice": "- Funzione getBalance() attraverso l'address del MilkHub riusciamo a recuperare il suo Balance"
      },
      "getMilkHubData(address,uint256)": {
        "notice": "getMilkHubData() otteniamo i dati del MilkHub - tramite l'address del MilkHub riusciamo a visualizzare anche i suoi dati - Dati sensibili e visibili solo dal MilkHub stesso "
      },
      "getMilkHubEmail(address,uint256)": {
        "notice": "- Funzione getEmail() attraverso l'address del MilkHub riusciamo a recuperare la sua Email "
      },
      "getMilkHubFullName(address,uint256)": {
        "notice": "- Funzione getFullName() attraverso l'address del MilkHub riusciamo a recuperare il suo FullName"
      },
      "getMilkHubId(address)": {
        "notice": "-  Funzione getMilkHubId() attraverso l'address del MilkHub siamo riusciti ad ottenere il suo ID"
      },
      "login(address,string,string)": {
        "notice": "login() effettua la Login con email e password  - Inserisce l'email e la password  - return True se l'utente esiste ed ha accesso con le giuste credenziali  - return False altrimenti "
      },
      "registerMilkHub(string,string,string,address)": {
        "notice": "registerMilkHub() registra gli utenti della piattaforma che sono MilkHub  - Inserisce i dati all'interno della Blockchain - Trasferisce 100 token dal contratto di FilieraToken  - Emette un evento appena l'utente  stato registrato   "
      }
    },
    "version": 1
  }
}