{
  "contractName": "MilkHubInventoryService",
  "abi": [
    {
      "inputs": [
        {
          "internalType": "address",
          "name": "_milkhubInventoryStorage",
          "type": "address"
        },
        {
          "internalType": "address",
          "name": "_milkhubService",
          "type": "address"
        }
      ],
      "stateMutability": "nonpayable",
      "type": "constructor"
    },
    {
      "anonymous": false,
      "inputs": [
        {
          "indexed": true,
          "internalType": "address",
          "name": "userAddress",
          "type": "address"
        },
        {
          "indexed": false,
          "internalType": "uint256",
          "name": "id",
          "type": "uint256"
        },
        {
          "indexed": false,
          "internalType": "string",
          "name": "message",
          "type": "string"
        },
        {
          "indexed": false,
          "internalType": "string",
          "name": "scadenza",
          "type": "string"
        },
        {
          "indexed": false,
          "internalType": "uint256",
          "name": "quantity",
          "type": "uint256"
        },
        {
          "indexed": false,
          "internalType": "uint256",
          "name": "price",
          "type": "uint256"
        }
      ],
      "name": "MilkBatchAdded",
      "type": "event"
    },
    {
      "anonymous": false,
      "inputs": [
        {
          "indexed": true,
          "internalType": "address",
          "name": "userAddress",
          "type": "address"
        },
        {
          "indexed": true,
          "internalType": "uint256",
          "name": "id",
          "type": "uint256"
        },
        {
          "indexed": false,
          "internalType": "string",
          "name": "message",
          "type": "string"
        }
      ],
      "name": "MilkBatchDeleted",
      "type": "event"
    },
    {
      "anonymous": false,
      "inputs": [
        {
          "indexed": true,
          "internalType": "address",
          "name": "userAddress",
          "type": "address"
        },
        {
          "indexed": false,
          "internalType": "string",
          "name": "message",
          "type": "string"
        },
        {
          "indexed": false,
          "internalType": "uint256",
          "name": "quantity",
          "type": "uint256"
        }
      ],
      "name": "MilkBatchEdited",
      "type": "event"
    },
    {
      "anonymous": false,
      "inputs": [
        {
          "indexed": false,
          "internalType": "string",
          "name": "errorMessage",
          "type": "string"
        }
      ],
      "name": "UserDenied",
      "type": "event"
    },
    {
      "inputs": [
        {
          "internalType": "address",
          "name": "_milkhubInventoryStorage",
          "type": "address"
        }
      ],
      "name": "changeMilkHubInventoryStorage",
      "outputs": [],
      "stateMutability": "nonpayable",
      "type": "function"
    },
    {
      "inputs": [
        {
          "internalType": "address",
          "name": "_milkhubService",
          "type": "address"
        }
      ],
      "name": "changeMilkHubService",
      "outputs": [],
      "stateMutability": "nonpayable",
      "type": "function"
    },
    {
      "inputs": [
        {
          "internalType": "string",
          "name": "_scadenza",
          "type": "string"
        },
        {
          "internalType": "uint256",
          "name": "_quantity",
          "type": "uint256"
        },
        {
          "internalType": "uint256",
          "name": "_price",
          "type": "uint256"
        },
        {
          "internalType": "address",
          "name": "walletMilkHub",
          "type": "address"
        }
      ],
      "name": "addMilkBatch",
      "outputs": [],
      "stateMutability": "nonpayable",
      "type": "function"
    },
    {
      "inputs": [
        {
          "internalType": "uint256",
          "name": "_id",
          "type": "uint256"
        },
        {
          "internalType": "address",
          "name": "walletMilkHub",
          "type": "address"
        }
      ],
      "name": "getMilkBatch",
      "outputs": [
        {
          "internalType": "uint256",
          "name": "",
          "type": "uint256"
        },
        {
          "internalType": "string",
          "name": "",
          "type": "string"
        },
        {
          "internalType": "uint256",
          "name": "",
          "type": "uint256"
        },
        {
          "internalType": "uint256",
          "name": "",
          "type": "uint256"
        }
      ],
      "stateMutability": "view",
      "type": "function"
    },
    {
      "inputs": [
        {
          "internalType": "uint256",
          "name": "_id",
          "type": "uint256"
        },
        {
          "internalType": "address",
          "name": "walletMilkHub",
          "type": "address"
        }
      ],
      "name": "deleteMilkBatch",
      "outputs": [
        {
          "internalType": "bool",
          "name": "value",
          "type": "bool"
        }
      ],
      "stateMutability": "nonpayable",
      "type": "function"
    },
    {
      "inputs": [
        {
          "internalType": "address",
          "name": "ownerMilkBatch",
          "type": "address"
        },
        {
          "internalType": "uint256",
          "name": "_id_MilkBatch",
          "type": "uint256"
        },
        {
          "internalType": "uint256",
          "name": "quantityToBuy",
          "type": "uint256"
        }
      ],
      "name": "checkProductToSell",
      "outputs": [
        {
          "internalType": "bool",
          "name": "",
          "type": "bool"
        }
      ],
      "stateMutability": "view",
      "type": "function"
    },
    {
      "inputs": [
        {
          "internalType": "address",
          "name": "walletMilkHub",
          "type": "address"
        },
        {
          "internalType": "uint256",
          "name": "_id",
          "type": "uint256"
        }
      ],
      "name": "getMilkBatchExpirationDate",
      "outputs": [
        {
          "internalType": "string",
          "name": "",
          "type": "string"
        }
      ],
      "stateMutability": "view",
      "type": "function"
    },
    {
      "inputs": [
        {
          "internalType": "address",
          "name": "walletMilkHub",
          "type": "address"
        },
        {
          "internalType": "uint256",
          "name": "_id",
          "type": "uint256"
        }
      ],
      "name": "getMilkBatchQuantity",
      "outputs": [
        {
          "internalType": "uint256",
          "name": "",
          "type": "uint256"
        }
      ],
      "stateMutability": "view",
      "type": "function"
    },
    {
      "inputs": [
        {
          "internalType": "address",
          "name": "walletMilkHub",
          "type": "address"
        },
        {
          "internalType": "uint256",
          "name": "_id",
          "type": "uint256"
        }
      ],
      "name": "getMilkBatchPrice",
      "outputs": [
        {
          "internalType": "uint256",
          "name": "",
          "type": "uint256"
        }
      ],
      "stateMutability": "view",
      "type": "function"
    },
    {
      "inputs": [
        {
          "internalType": "address",
          "name": "walletMilkHub",
          "type": "address"
        },
        {
          "internalType": "uint256",
          "name": "_id",
          "type": "uint256"
        }
      ],
      "name": "isMilkBatchPresent",
      "outputs": [
        {
          "internalType": "bool",
          "name": "",
          "type": "bool"
        }
      ],
      "stateMutability": "view",
      "type": "function"
    },
    {
      "inputs": [
        {
          "internalType": "address",
          "name": "ownerMilkHub",
          "type": "address"
        },
        {
          "internalType": "uint256",
          "name": "_id",
          "type": "uint256"
        },
        {
          "internalType": "uint256",
          "name": "_quantity",
          "type": "uint256"
        }
      ],
      "name": "updateMilkBatchQuantity",
      "outputs": [],
      "stateMutability": "nonpayable",
      "type": "function"
    }
  ],
  "bytecode": "0x60806040523480156200001157600080fd5b50604051620034493803806200344983398181016040528101906200003791906200016b565b336000806101000a81548173ffffffffffffffffffffffffffffffffffffffff021916908373ffffffffffffffffffffffffffffffffffffffff16021790555081600160006101000a81548173ffffffffffffffffffffffffffffffffffffffff021916908373ffffffffffffffffffffffffffffffffffffffff16021790555080600260006101000a81548173ffffffffffffffffffffffffffffffffffffffff021916908373ffffffffffffffffffffffffffffffffffffffff1602179055505050620001b2565b600080fd5b600073ffffffffffffffffffffffffffffffffffffffff82169050919050565b6000620001338262000106565b9050919050565b620001458162000126565b81146200015157600080fd5b50565b60008151905062000165816200013a565b92915050565b6000806040838503121562000185576200018462000101565b5b6000620001958582860162000154565b9250506020620001a88582860162000154565b9150509250929050565b61328780620001c26000396000f3fe608060405234801561001057600080fd5b50600436106100a85760003560e01c806336a662e41161007157806336a662e41461018c5780634eca9b1c146101bc57806355bbc237146101ec5780636fb6c96e14610208578063cb6f5eee14610238578063d4bb223814610254576100a8565b8062ef1862146100ad57806301aebdf5146100dd57806302d805f61461010d57806328968f251461013d5780632e330ac114610159575b600080fd5b6100c760048036038101906100c29190612605565b610270565b6040516100d491906126d5565b60405180910390f35b6100f760048036038101906100f291906126f7565b6106d2565b6040516101049190612765565b60405180910390f35b61012760048036038101906101229190612605565b61085a565b6040516101349190612765565b60405180910390f35b61015760048036038101906101529190612780565b610b21565b005b610173600480360381019061016e91906127ad565b610b65565b60405161018394939291906127fc565b60405180910390f35b6101a660048036038101906101a191906127ad565b610efa565b6040516101b39190612765565b60405180910390f35b6101d660048036038101906101d19190612605565b6113b7565b6040516101e39190612848565b60405180910390f35b61020660048036038101906102019190612780565b611814565b005b610222600480360381019061021d9190612605565b611858565b60405161022f9190612848565b60405180910390f35b610252600480360381019061024d91906126f7565b611cb5565b005b61026e60048036038101906102699190612998565b61214e565b005b606082600073ffffffffffffffffffffffffffffffffffffffff168173ffffffffffffffffffffffffffffffffffffffff16036102e2576040517f08c379a00000000000000000000000000000000000000000000000000000000081526004016102d990612a67565b60405180910390fd5b600160009054906101000a900473ffffffffffffffffffffffffffffffffffffffff1673ffffffffffffffffffffffffffffffffffffffff168173ffffffffffffffffffffffffffffffffffffffff1603610372576040517f08c379a000000000000000000000000000000000000000000000000000000000815260040161036990612af9565b60405180910390fd5b600260009054906101000a900473ffffffffffffffffffffffffffffffffffffffff1673ffffffffffffffffffffffffffffffffffffffff168173ffffffffffffffffffffffffffffffffffffffff1603610402576040517f08c379a00000000000000000000000000000000000000000000000000000000081526004016103f990612b8b565b60405180910390fd5b60008054906101000a900473ffffffffffffffffffffffffffffffffffffffff1673ffffffffffffffffffffffffffffffffffffffff168173ffffffffffffffffffffffffffffffffffffffff1603610490576040517f08c379a000000000000000000000000000000000000000000000000000000000815260040161048790612c1d565b60405180910390fd5b600260009054906101000a900473ffffffffffffffffffffffffffffffffffffffff1673ffffffffffffffffffffffffffffffffffffffff1663a5578807856040518263ffffffff1660e01b81526004016104eb9190612c4c565b602060405180830381865afa158015610508573d6000803e3d6000fd5b505050506040513d601f19601f8201168201806040525081019061052c9190612c93565b61056b576040517f08c379a000000000000000000000000000000000000000000000000000000000815260040161056290612d0c565b60405180910390fd5b3073ffffffffffffffffffffffffffffffffffffffff166302d805f685856040518363ffffffff1660e01b81526004016105a6929190612d2c565b602060405180830381865afa1580156105c3573d6000803e3d6000fd5b505050506040513d601f19601f820116820180604052508101906105e79190612c93565b610626576040517f08c379a000000000000000000000000000000000000000000000000000000000815260040161061d90612da1565b60405180910390fd5b600160009054906101000a900473ffffffffffffffffffffffffffffffffffffffff1673ffffffffffffffffffffffffffffffffffffffff16639f2b689885856040518363ffffffff1660e01b8152600401610683929190612d2c565b600060405180830381865afa1580156106a0573d6000803e3d6000fd5b505050506040513d6000823e3d601f19601f820116820180604052508101906106c99190612e31565b91505092915050565b60008073ffffffffffffffffffffffffffffffffffffffff163373ffffffffffffffffffffffffffffffffffffffff1603610742576040517f08c379a000000000000000000000000000000000000000000000000000000000815260040161073990612ec6565b60405180910390fd5b600073ffffffffffffffffffffffffffffffffffffffff168473ffffffffffffffffffffffffffffffffffffffff16036107b1576040517f08c379a00000000000000000000000000000000000000000000000000000000081526004016107a890612ec6565b60405180910390fd5b600160009054906101000a900473ffffffffffffffffffffffffffffffffffffffff1673ffffffffffffffffffffffffffffffffffffffff166387abc2168585856040518463ffffffff1660e01b815260040161081093929190612ee6565b602060405180830381865afa15801561082d573d6000803e3d6000fd5b505050506040513d601f19601f820116820180604052508101906108519190612c93565b90509392505050565b600082600073ffffffffffffffffffffffffffffffffffffffff168173ffffffffffffffffffffffffffffffffffffffff16036108cc576040517f08c379a00000000000000000000000000000000000000000000000000000000081526004016108c390612a67565b60405180910390fd5b600160009054906101000a900473ffffffffffffffffffffffffffffffffffffffff1673ffffffffffffffffffffffffffffffffffffffff168173ffffffffffffffffffffffffffffffffffffffff160361095c576040517f08c379a000000000000000000000000000000000000000000000000000000000815260040161095390612af9565b60405180910390fd5b600260009054906101000a900473ffffffffffffffffffffffffffffffffffffffff1673ffffffffffffffffffffffffffffffffffffffff168173ffffffffffffffffffffffffffffffffffffffff16036109ec576040517f08c379a00000000000000000000000000000000000000000000000000000000081526004016109e390612b8b565b60405180910390fd5b60008054906101000a900473ffffffffffffffffffffffffffffffffffffffff1673ffffffffffffffffffffffffffffffffffffffff168173ffffffffffffffffffffffffffffffffffffffff1603610a7a576040517f08c379a0000000000000000000000000000000000000000000000000000000008152600401610a7190612c1d565b60405180910390fd5b600160009054906101000a900473ffffffffffffffffffffffffffffffffffffffff1673ffffffffffffffffffffffffffffffffffffffff166302d805f685856040518363ffffffff1660e01b8152600401610ad7929190612d2c565b602060405180830381865afa158015610af4573d6000803e3d6000fd5b505050506040513d601f19601f82011682018060405250810190610b189190612c93565b91505092915050565b80600260006101000a81548173ffffffffffffffffffffffffffffffffffffffff021916908373ffffffffffffffffffffffffffffffffffffffff16021790555050565b6000606060008084600073ffffffffffffffffffffffffffffffffffffffff168173ffffffffffffffffffffffffffffffffffffffff1603610bdc576040517f08c379a0000000000000000000000000000000000000000000000000000000008152600401610bd390612a67565b60405180910390fd5b600160009054906101000a900473ffffffffffffffffffffffffffffffffffffffff1673ffffffffffffffffffffffffffffffffffffffff168173ffffffffffffffffffffffffffffffffffffffff1603610c6c576040517f08c379a0000000000000000000000000000000000000000000000000000000008152600401610c6390612af9565b60405180910390fd5b600260009054906101000a900473ffffffffffffffffffffffffffffffffffffffff1673ffffffffffffffffffffffffffffffffffffffff168173ffffffffffffffffffffffffffffffffffffffff1603610cfc576040517f08c379a0000000000000000000000000000000000000000000000000000000008152600401610cf390612b8b565b60405180910390fd5b60008054906101000a900473ffffffffffffffffffffffffffffffffffffffff1673ffffffffffffffffffffffffffffffffffffffff168173ffffffffffffffffffffffffffffffffffffffff1603610d8a576040517f08c379a0000000000000000000000000000000000000000000000000000000008152600401610d8190612c1d565b60405180910390fd5b3073ffffffffffffffffffffffffffffffffffffffff166302d805f687896040518363ffffffff1660e01b8152600401610dc5929190612d2c565b602060405180830381865afa158015610de2573d6000803e3d6000fd5b505050506040513d601f19601f82011682018060405250810190610e069190612c93565b610e45576040517f08c379a0000000000000000000000000000000000000000000000000000000008152600401610e3c90612da1565b60405180910390fd5b600160009054906101000a900473ffffffffffffffffffffffffffffffffffffffff1673ffffffffffffffffffffffffffffffffffffffff1663ce4fcf2387896040518363ffffffff1660e01b8152600401610ea2929190612d2c565b600060405180830381865afa158015610ebf573d6000803e3d6000fd5b505050506040513d6000823e3d601f19601f82011682018060405250810190610ee89190612f32565b94509450945094505092959194509250565b600081600073ffffffffffffffffffffffffffffffffffffffff168173ffffffffffffffffffffffffffffffffffffffff1603610f6c576040517f08c379a0000000000000000000000000000000000000000000000000000000008152600401610f6390612a67565b60405180910390fd5b600160009054906101000a900473ffffffffffffffffffffffffffffffffffffffff1673ffffffffffffffffffffffffffffffffffffffff168173ffffffffffffffffffffffffffffffffffffffff1603610ffc576040517f08c379a0000000000000000000000000000000000000000000000000000000008152600401610ff390612af9565b60405180910390fd5b600260009054906101000a900473ffffffffffffffffffffffffffffffffffffffff1673ffffffffffffffffffffffffffffffffffffffff168173ffffffffffffffffffffffffffffffffffffffff160361108c576040517f08c379a000000000000000000000000000000000000000000000000000000000815260040161108390612b8b565b60405180910390fd5b60008054906101000a900473ffffffffffffffffffffffffffffffffffffffff1673ffffffffffffffffffffffffffffffffffffffff168173ffffffffffffffffffffffffffffffffffffffff160361111a576040517f08c379a000000000000000000000000000000000000000000000000000000000815260040161111190612c1d565b60405180910390fd5b600260009054906101000a900473ffffffffffffffffffffffffffffffffffffffff1673ffffffffffffffffffffffffffffffffffffffff1663a5578807846040518263ffffffff1660e01b81526004016111759190612c4c565b602060405180830381865afa158015611192573d6000803e3d6000fd5b505050506040513d601f19601f820116820180604052508101906111b69190612c93565b6111f5576040517f08c379a00000000000000000000000000000000000000000000000000000000081526004016111ec90612d0c565b60405180910390fd5b3073ffffffffffffffffffffffffffffffffffffffff166302d805f684866040518363ffffffff1660e01b8152600401611230929190612d2c565b602060405180830381865afa15801561124d573d6000803e3d6000fd5b505050506040513d601f19601f820116820180604052508101906112719190612c93565b6112b0576040517f08c379a00000000000000000000000000000000000000000000000000000000081526004016112a790612da1565b60405180910390fd5b600160009054906101000a900473ffffffffffffffffffffffffffffffffffffffff1673ffffffffffffffffffffffffffffffffffffffff1663ad9c10a184866040518363ffffffff1660e01b815260040161130d929190612d2c565b6020604051808303816000875af115801561132c573d6000803e3d6000fd5b505050506040513d601f19601f820116820180604052508101906113509190612c93565b156113ab57838373ffffffffffffffffffffffffffffffffffffffff167f73023b1308129567679fdb8d60eb42205aaed7699b5b7ac712deb608b061565460405161139a90613027565b60405180910390a3600191506113b0565b600091505b5092915050565b600082600073ffffffffffffffffffffffffffffffffffffffff168173ffffffffffffffffffffffffffffffffffffffff1603611429576040517f08c379a000000000000000000000000000000000000000000000000000000000815260040161142090612a67565b60405180910390fd5b600160009054906101000a900473ffffffffffffffffffffffffffffffffffffffff1673ffffffffffffffffffffffffffffffffffffffff168173ffffffffffffffffffffffffffffffffffffffff16036114b9576040517f08c379a00000000000000000000000000000000000000000000000000000000081526004016114b090612af9565b60405180910390fd5b600260009054906101000a900473ffffffffffffffffffffffffffffffffffffffff1673ffffffffffffffffffffffffffffffffffffffff168173ffffffffffffffffffffffffffffffffffffffff1603611549576040517f08c379a000000000000000000000000000000000000000000000000000000000815260040161154090612b8b565b60405180910390fd5b60008054906101000a900473ffffffffffffffffffffffffffffffffffffffff1673ffffffffffffffffffffffffffffffffffffffff168173ffffffffffffffffffffffffffffffffffffffff16036115d7576040517f08c379a00000000000000000000000000000000000000000000000000000000081526004016115ce90612c1d565b60405180910390fd5b600260009054906101000a900473ffffffffffffffffffffffffffffffffffffffff1673ffffffffffffffffffffffffffffffffffffffff1663a5578807856040518263ffffffff1660e01b81526004016116329190612c4c565b602060405180830381865afa15801561164f573d6000803e3d6000fd5b505050506040513d601f19601f820116820180604052508101906116739190612c93565b6116b2576040517f08c379a00000000000000000000000000000000000000000000000000000000081526004016116a990612d0c565b60405180910390fd5b3073ffffffffffffffffffffffffffffffffffffffff166302d805f685856040518363ffffffff1660e01b81526004016116ed929190612d2c565b602060405180830381865afa15801561170a573d6000803e3d6000fd5b505050506040513d601f19601f8201168201806040525081019061172e9190612c93565b61176d576040517f08c379a000000000000000000000000000000000000000000000000000000000815260040161176490612da1565b60405180910390fd5b600160009054906101000a900473ffffffffffffffffffffffffffffffffffffffff1673ffffffffffffffffffffffffffffffffffffffff1663449e815d85856040518363ffffffff1660e01b81526004016117ca929190612d2c565b602060405180830381865afa1580156117e7573d6000803e3d6000fd5b505050506040513d601f19601f8201168201806040525081019061180b9190613047565b91505092915050565b80600160006101000a81548173ffffffffffffffffffffffffffffffffffffffff021916908373ffffffffffffffffffffffffffffffffffffffff16021790555050565b600082600073ffffffffffffffffffffffffffffffffffffffff168173ffffffffffffffffffffffffffffffffffffffff16036118ca576040517f08c379a00000000000000000000000000000000000000000000000000000000081526004016118c190612a67565b60405180910390fd5b600160009054906101000a900473ffffffffffffffffffffffffffffffffffffffff1673ffffffffffffffffffffffffffffffffffffffff168173ffffffffffffffffffffffffffffffffffffffff160361195a576040517f08c379a000000000000000000000000000000000000000000000000000000000815260040161195190612af9565b60405180910390fd5b600260009054906101000a900473ffffffffffffffffffffffffffffffffffffffff1673ffffffffffffffffffffffffffffffffffffffff168173ffffffffffffffffffffffffffffffffffffffff16036119ea576040517f08c379a00000000000000000000000000000000000000000000000000000000081526004016119e190612b8b565b60405180910390fd5b60008054906101000a900473ffffffffffffffffffffffffffffffffffffffff1673ffffffffffffffffffffffffffffffffffffffff168173ffffffffffffffffffffffffffffffffffffffff1603611a78576040517f08c379a0000000000000000000000000000000000000000000000000000000008152600401611a6f90612c1d565b60405180910390fd5b600260009054906101000a900473ffffffffffffffffffffffffffffffffffffffff1673ffffffffffffffffffffffffffffffffffffffff1663a5578807856040518263ffffffff1660e01b8152600401611ad39190612c4c565b602060405180830381865afa158015611af0573d6000803e3d6000fd5b505050506040513d601f19601f82011682018060405250810190611b149190612c93565b611b53576040517f08c379a0000000000000000000000000000000000000000000000000000000008152600401611b4a90612d0c565b60405180910390fd5b3073ffffffffffffffffffffffffffffffffffffffff166302d805f685856040518363ffffffff1660e01b8152600401611b8e929190612d2c565b602060405180830381865afa158015611bab573d6000803e3d6000fd5b505050506040513d601f19601f82011682018060405250810190611bcf9190612c93565b611c0e576040517f08c379a0000000000000000000000000000000000000000000000000000000008152600401611c0590612da1565b60405180910390fd5b600160009054906101000a900473ffffffffffffffffffffffffffffffffffffffff1673ffffffffffffffffffffffffffffffffffffffff16631e073fcf85856040518363ffffffff1660e01b8152600401611c6b929190612d2c565b602060405180830381865afa158015611c88573d6000803e3d6000fd5b505050506040513d601f19601f82011682018060405250810190611cac9190613047565b91505092915050565b82600073ffffffffffffffffffffffffffffffffffffffff168173ffffffffffffffffffffffffffffffffffffffff1603611d25576040517f08c379a0000000000000000000000000000000000000000000000000000000008152600401611d1c90612a67565b60405180910390fd5b600160009054906101000a900473ffffffffffffffffffffffffffffffffffffffff1673ffffffffffffffffffffffffffffffffffffffff168173ffffffffffffffffffffffffffffffffffffffff1603611db5576040517f08c379a0000000000000000000000000000000000000000000000000000000008152600401611dac90612af9565b60405180910390fd5b600260009054906101000a900473ffffffffffffffffffffffffffffffffffffffff1673ffffffffffffffffffffffffffffffffffffffff168173ffffffffffffffffffffffffffffffffffffffff1603611e45576040517f08c379a0000000000000000000000000000000000000000000000000000000008152600401611e3c90612b8b565b60405180910390fd5b60008054906101000a900473ffffffffffffffffffffffffffffffffffffffff1673ffffffffffffffffffffffffffffffffffffffff168173ffffffffffffffffffffffffffffffffffffffff1603611ed3576040517f08c379a0000000000000000000000000000000000000000000000000000000008152600401611eca90612c1d565b60405180910390fd5b600260009054906101000a900473ffffffffffffffffffffffffffffffffffffffff1673ffffffffffffffffffffffffffffffffffffffff1663a5578807856040518263ffffffff1660e01b8152600401611f2e9190612c4c565b602060405180830381865afa158015611f4b573d6000803e3d6000fd5b505050506040513d601f19601f82011682018060405250810190611f6f9190612c93565b611fae576040517f08c379a0000000000000000000000000000000000000000000000000000000008152600401611fa590612d0c565b60405180910390fd5b3073ffffffffffffffffffffffffffffffffffffffff166302d805f685856040518363ffffffff1660e01b8152600401611fe9929190612d2c565b602060405180830381865afa158015612006573d6000803e3d6000fd5b505050506040513d601f19601f8201168201806040525081019061202a9190612c93565b612069576040517f08c379a000000000000000000000000000000000000000000000000000000000815260040161206090612da1565b60405180910390fd5b600160009054906101000a900473ffffffffffffffffffffffffffffffffffffffff1673ffffffffffffffffffffffffffffffffffffffff1663f24920788585856040518463ffffffff1660e01b81526004016120c893929190612ee6565b600060405180830381600087803b1580156120e257600080fd5b505af11580156120f6573d6000803e3d6000fd5b505050508373ffffffffffffffffffffffffffffffffffffffff167fe6423a1a3cb5835fa5b10d2c6f939b788639dce3411b5764ba199f45308a286b8360405161214091906130c0565b60405180910390a250505050565b80600073ffffffffffffffffffffffffffffffffffffffff168173ffffffffffffffffffffffffffffffffffffffff16036121be576040517f08c379a00000000000000000000000000000000000000000000000000000000081526004016121b590612a67565b60405180910390fd5b600160009054906101000a900473ffffffffffffffffffffffffffffffffffffffff1673ffffffffffffffffffffffffffffffffffffffff168173ffffffffffffffffffffffffffffffffffffffff160361224e576040517f08c379a000000000000000000000000000000000000000000000000000000000815260040161224590612af9565b60405180910390fd5b600260009054906101000a900473ffffffffffffffffffffffffffffffffffffffff1673ffffffffffffffffffffffffffffffffffffffff168173ffffffffffffffffffffffffffffffffffffffff16036122de576040517f08c379a00000000000000000000000000000000000000000000000000000000081526004016122d590612b8b565b60405180910390fd5b60008054906101000a900473ffffffffffffffffffffffffffffffffffffffff1673ffffffffffffffffffffffffffffffffffffffff168173ffffffffffffffffffffffffffffffffffffffff160361236c576040517f08c379a000000000000000000000000000000000000000000000000000000000815260040161236390612c1d565b60405180910390fd5b600260009054906101000a900473ffffffffffffffffffffffffffffffffffffffff1673ffffffffffffffffffffffffffffffffffffffff1663a5578807836040518263ffffffff1660e01b81526004016123c79190612c4c565b602060405180830381865afa1580156123e4573d6000803e3d6000fd5b505050506040513d601f19601f820116820180604052508101906124089190612c93565b612447576040517f08c379a000000000000000000000000000000000000000000000000000000000815260040161243e9061313a565b60405180910390fd5b600080600080600160009054906101000a900473ffffffffffffffffffffffffffffffffffffffff1673ffffffffffffffffffffffffffffffffffffffff16638317679f878b8b8b6040518563ffffffff1660e01b81526004016124ae949392919061315a565b6000604051808303816000875af11580156124cd573d6000803e3d6000fd5b505050506040513d6000823e3d601f19601f820116820180604052508101906124f69190612f32565b93509350935093508573ffffffffffffffffffffffffffffffffffffffff167f4dfad5d0e38d406aaea3751779657a563af1268304c7707be96fe181b56189f68585858560405161254a94939291906131f2565b60405180910390a2505050505050505050565b6000604051905090565b600080fd5b600080fd5b600073ffffffffffffffffffffffffffffffffffffffff82169050919050565b600061259c82612571565b9050919050565b6125ac81612591565b81146125b757600080fd5b50565b6000813590506125c9816125a3565b92915050565b6000819050919050565b6125e2816125cf565b81146125ed57600080fd5b50565b6000813590506125ff816125d9565b92915050565b6000806040838503121561261c5761261b612567565b5b600061262a858286016125ba565b925050602061263b858286016125f0565b9150509250929050565b600081519050919050565b600082825260208201905092915050565b60005b8381101561267f578082015181840152602081019050612664565b60008484015250505050565b6000601f19601f8301169050919050565b60006126a782612645565b6126b18185612650565b93506126c1818560208601612661565b6126ca8161268b565b840191505092915050565b600060208201905081810360008301526126ef818461269c565b905092915050565b6000806000606084860312156127105761270f612567565b5b600061271e868287016125ba565b935050602061272f868287016125f0565b9250506040612740868287016125f0565b9150509250925092565b60008115159050919050565b61275f8161274a565b82525050565b600060208201905061277a6000830184612756565b92915050565b60006020828403121561279657612795612567565b5b60006127a4848285016125ba565b91505092915050565b600080604083850312156127c4576127c3612567565b5b60006127d2858286016125f0565b92505060206127e3858286016125ba565b9150509250929050565b6127f6816125cf565b82525050565b600060808201905061281160008301876127ed565b8181036020830152612823818661269c565b905061283260408301856127ed565b61283f60608301846127ed565b95945050505050565b600060208201905061285d60008301846127ed565b92915050565b600080fd5b600080fd5b7f4e487b7100000000000000000000000000000000000000000000000000000000600052604160045260246000fd5b6128a58261268b565b810181811067ffffffffffffffff821117156128c4576128c361286d565b5b80604052505050565b60006128d761255d565b90506128e3828261289c565b919050565b600067ffffffffffffffff8211156129035761290261286d565b5b61290c8261268b565b9050602081019050919050565b82818337600083830152505050565b600061293b612936846128e8565b6128cd565b90508281526020810184848401111561295757612956612868565b5b612962848285612919565b509392505050565b600082601f83011261297f5761297e612863565b5b813561298f848260208601612928565b91505092915050565b600080600080608085870312156129b2576129b1612567565b5b600085013567ffffffffffffffff8111156129d0576129cf61256c565b5b6129dc8782880161296a565b94505060206129ed878288016125f0565b93505060406129fe878288016125f0565b9250506060612a0f878288016125ba565b91505092959194509250565b7f41646472657373206973207a65726f0000000000000000000000000000000000600082015250565b6000612a51600f83612650565b9150612a5c82612a1b565b602082019050919050565b60006020820190508181036000830152612a8081612a44565b9050919050565b7f41646472657373206973204d696c6b48756253746f7261676520536d6172742060008201527f436f6e7472616374210000000000000000000000000000000000000000000000602082015250565b6000612ae3602983612650565b9150612aee82612a87565b604082019050919050565b60006020820190508181036000830152612b1281612ad6565b9050919050565b7f416464726573732069732046696c69657261546f6b656e20536d61727420436f60008201527f6e74726163742100000000000000000000000000000000000000000000000000602082015250565b6000612b75602783612650565b9150612b8082612b19565b604082019050919050565b60006020820190508181036000830152612ba481612b68565b9050919050565b7f4f7267616e697a6174696f6e2061646472657373206e6f742056616c6964207460008201527f6f20646f204f7065726174696f6e000000000000000000000000000000000000602082015250565b6000612c07602e83612650565b9150612c1282612bab565b604082019050919050565b60006020820190508181036000830152612c3681612bfa565b9050919050565b612c4681612591565b82525050565b6000602082019050612c616000830184612c3d565b92915050565b612c708161274a565b8114612c7b57600080fd5b50565b600081519050612c8d81612c67565b92915050565b600060208284031215612ca957612ca8612567565b5b6000612cb784828501612c7e565b91505092915050565b7f55736572206973206e6f742070726573656e7421000000000000000000000000600082015250565b6000612cf6601483612650565b9150612d0182612cc0565b602082019050919050565b60006020820190508181036000830152612d2581612ce9565b9050919050565b6000604082019050612d416000830185612c3d565b612d4e60208301846127ed565b9392505050565b7f4d696c6b4261746368206e6f742050726573656e742100000000000000000000600082015250565b6000612d8b601683612650565b9150612d9682612d55565b602082019050919050565b60006020820190508181036000830152612dba81612d7e565b9050919050565b6000612dd4612dcf846128e8565b6128cd565b905082815260208101848484011115612df057612def612868565b5b612dfb848285612661565b509392505050565b600082601f830112612e1857612e17612863565b5b8151612e28848260208601612dc1565b91505092915050565b600060208284031215612e4757612e46612567565b5b600082015167ffffffffffffffff811115612e6557612e6461256c565b5b612e7184828501612e03565b91505092915050565b7f41646472657373206e6f742056616c6964210000000000000000000000000000600082015250565b6000612eb0601283612650565b9150612ebb82612e7a565b602082019050919050565b60006020820190508181036000830152612edf81612ea3565b9050919050565b6000606082019050612efb6000830186612c3d565b612f0860208301856127ed565b612f1560408301846127ed565b949350505050565b600081519050612f2c816125d9565b92915050565b60008060008060808587031215612f4c57612f4b612567565b5b6000612f5a87828801612f1d565b945050602085015167ffffffffffffffff811115612f7b57612f7a61256c565b5b612f8787828801612e03565b9350506040612f9887828801612f1d565b9250506060612fa987828801612f1d565b91505092959194509250565b7f50657a7a6f20646920466f726d616767696f20652720737461746f20656c656d60008201527f696e61746f000000000000000000000000000000000000000000000000000000602082015250565b6000613011602583612650565b915061301c82612fb5565b604082019050919050565b6000602082019050818103600083015261304081613004565b9050919050565b60006020828403121561305d5761305c612567565b5b600061306b84828501612f1d565b91505092915050565b7f4d696c6b42617463682065646974656421000000000000000000000000000000600082015250565b60006130aa601183612650565b91506130b582613074565b602082019050919050565b600060408201905081810360008301526130d98161309d565b90506130e860208301846127ed565b92915050565b7f55736572206973206e6f742070726573656e7420696e20646174610000000000600082015250565b6000613124601b83612650565b915061312f826130ee565b602082019050919050565b6000602082019050818103600083015261315381613117565b9050919050565b600060808201905061316f6000830187612c3d565b8181036020830152613181818661269c565b905061319060408301856127ed565b61319d60608301846127ed565b95945050505050565b7f50657a7a6f20646920666f726d616767696f20696e73657269746f2021000000600082015250565b60006131dc601d83612650565b91506131e7826131a6565b602082019050919050565b600060a08201905061320760008301876127ed565b8181036020830152613218816131cf565b9050818103604083015261322c818661269c565b905061323b60608301856127ed565b61324860808301846127ed565b9594505050505056fea264697066735822122012847971d1d5a2957810a11e7345aeabedc3991147f67583a59092a54990407064736f6c63430008180033",
  "immutableReferences": {},
  "source": "// SPDX-License-Identifier: MIT\r\npragma solidity ^0.8.0;\r\n\r\nimport \"./MilkHubInventoryStorage.sol\";\r\nimport \"../MilkHubService.sol\";\r\n\r\nimport \"../../../Service/AccessControlProduct.sol\";\r\n\r\n\r\ncontract MilkHubInventoryService {\r\n\r\n\r\n// ------------------------------------------------------------------ Contract Address Service -----------------------------------------------------------//\r\n\r\n     // Address of Organization che gestisce gli utenti\r\n    address private  MilkHubOrg;\r\n    // Address of Inventory Storage \r\n    MilkHubInventoryStorage private milkhubInventoryStorage;\r\n    // Address Service of MilkHub Service \r\n    MilkHubService private milkhubService;\r\n    // Address Access Control \r\n    AccessControlProduct private accessControlProduct;\r\n\r\n//----------------------------------------------------------------- Costructor Function ---------------------------------------------------------------------------//\r\n\r\n    constructor(address _milkhubInventoryStorage, address _milkhubService//, address _accessControlProduct\r\n    ){\r\n        MilkHubOrg = msg.sender;\r\n        milkhubInventoryStorage = MilkHubInventoryStorage(_milkhubInventoryStorage);\r\n        milkhubService = MilkHubService(_milkhubService);\r\n        //accessControlProduct = AccessControlProduct(_accessControlProduct);\r\n    }\r\n\r\n\r\n\r\n//----------------------------------------------------------------- Event of Service ----------------------------------------------------------------------------------//\r\n\r\n\r\n    // Evento per notificare l'aggiunta e l'eliminazione dei dati\r\n    event MilkBatchAdded(address indexed userAddress, uint256 id, string message, string scadenza, uint256 quantity, uint256 price);\r\n    // Evento per notificare l'eliminazione del MilkBatch \r\n    event MilkBatchDeleted(address indexed userAddress, uint256 indexed id, string message);\r\n    // Evento per notificare la modifica del MilkBatch \r\n    event MilkBatchEdited(address indexed userAddress,string message, uint256 quantity);\r\n    // Evento per notificare che un dato utente non ha il permesso \r\n    event UserDenied(string errorMessage);\r\n\r\n//-------------------------------------------------------------------- Change Contract Address Service ----------------------------------------------------------------------//\r\n\r\n\r\n\r\n\r\n    function changeMilkHubInventoryStorage(address _milkhubInventoryStorage)external {\r\n        milkhubInventoryStorage = MilkHubInventoryStorage(_milkhubInventoryStorage);\r\n    }\r\n\r\n\r\n    function changeMilkHubService(address _milkhubService)external {\r\n        milkhubService = MilkHubService(_milkhubService);\r\n    }\r\n\r\n\r\n//--------------------------------------------------------------------------- Modifier function of Service ----------------------------------------------------------------------------//\r\n\r\n\r\n    // Verifica chi effettua la transazione : \r\n    // Verfica che l'address non sia l'organizzazione \r\n    // Verfica che l'address non sia lo smart contract del MilkHubStorage e FilieraToken \r\n    modifier checkAddress(address walletMilkHub){\r\n\r\n        require(walletMilkHub != address(0),\"Address is zero\");\r\n        require(walletMilkHub != address(milkhubInventoryStorage), \"Address is MilkHubStorage Smart Contract!\");\r\n        require(walletMilkHub != address(milkhubService), \"Address is FilieraToken Smart Contract!\" );\r\n        require(walletMilkHub != MilkHubOrg ,\"Organization address not Valid to do Operation\");\r\n\r\n        _;\r\n    }\r\n\r\n\r\n\r\n\r\n//------------------------------------------------------------------------------- Business Function of Service --------------------------------------------------------------------------//\r\n\r\n\r\n    /* Questa funzione permette di aggiungere : \r\n       Un prodotto MilkBatch all'inventario da poter mettere in vendita\r\n       \r\n       - Check da effettuare : \r\n       - Verifica che l'address dell'utente sia registrato \r\n       - Verifica che l'address dell'utente non sia l'organizzazione che ha deployato il contratto \r\n       \r\n       - Evento : \r\n       - milkBatchAdded()\r\n     */\r\n    function addMilkBatch(string memory _scadenza, uint256 _quantity, uint256 _price, address walletMilkHub) external checkAddress(walletMilkHub) {\r\n        // Check if User exists\r\n        require(milkhubService.isUserPresent(walletMilkHub), \"User is not present in data\");\r\n\r\n        //Call function of Storage \r\n        (uint256 id, string memory scadenza, uint256 quantity, uint256 price) = milkhubInventoryStorage.addMilkBatch(walletMilkHub, _scadenza, _quantity, _price);\r\n        // Emissione dell'evento \r\n        emit MilkBatchAdded(walletMilkHub, id, \"Pezzo di formaggio inserito !\", scadenza, quantity, price);\r\n    }\r\n\r\n    /**\r\n     * Ottenere le informazioni del milkbatch attraverso : \r\n     * - ID milkBatch\r\n       - msg.sender -> mi permette di visualizzare solo se sono il proprietario di questo prodotto \r\n     * */  \r\n    function getMilkBatch(uint256 _id, address walletMilkHub) external view checkAddress(walletMilkHub) returns (uint256, string memory, uint256, uint256)  {\r\n        \r\n        // Retrieve msg.sender \r\n        require(this.isMilkBatchPresent(walletMilkHub, _id),\"MilkBatch not Present!\");\r\n\r\n        return milkhubInventoryStorage.getMilkBatch(walletMilkHub,_id);\r\n    }\r\n\r\n    /**\r\n     * Eliminare un MilkBatch attraverso l'id \r\n     * - ID \r\n     * - Verficare che l'utente che vuole eseguire la transazione sia presente.\r\n     */\r\n    function deleteMilkBatch(uint256 _id,address walletMilkHub) external checkAddress(walletMilkHub) returns(bool value) {\r\n        // Check if User is Present\r\n        require(milkhubService.isUserPresent(walletMilkHub), \"User is not present!\");\r\n        // Check if Product is present \r\n        require(this.isMilkBatchPresent(walletMilkHub, _id),\"MilkBatch not Present!\");\r\n\r\n        if(milkhubInventoryStorage.deleteMilkBatch(walletMilkHub,_id)){\r\n            emit MilkBatchDeleted(walletMilkHub,_id,\"Pezzo di Formaggio e' stato eleminato\");\r\n            return true;\r\n        }else {\r\n            return false;\r\n        }\r\n    }\r\n\r\n\r\n    /*function getMilkBatchListByMilkHub(address walletMilkHub) external checkAddress(walletMilkHub) view returns (MilkHubInventoryStorage.MilkBatch[] memory){\r\n        // Check if exist \r\n        require(milkhubService.isUserPresent(walletMilkHub), \"User is not present!\");\r\n\r\n        return milkhubInventoryStorage.getMilkBatchListByMilkHub(walletMilkHub);\r\n    }*/\r\n\r\n    /*\r\n        - Recupera tutti i MilkBatch presenti all'interno di Inventory \r\n        - Verifica che quel CheeseProducer sia all'interno del sistema \r\n    function getAllMilkBatchList(address walletCheeseProducer) view  external  returns (MilkHubInventoryStorage.MilkBatch[] memory){\r\n        require(accessControlProduct.checkViewMilkBatchProduct(walletCheeseProducer),\"User Not Authorized!\");\r\n            address[] memory addressListMilkHub = milkhubService.getListAddressMilkHub();\r\n\r\n            return milkhubInventoryStorage.getAllMilkBatchList(addressListMilkHub); \r\n    }*/\r\n\r\n\r\n\r\n\r\n\r\n// ----------------------------------------------------------- TransactionManager ------------------------------------//\r\n\r\n    function checkProductToSell(address ownerMilkBatch, uint256 _id_MilkBatch, uint256 quantityToBuy) external view returns (bool){\r\n        \r\n        require(msg.sender != address(0),\"Address not Valid!\");\r\n        require(ownerMilkBatch != address(0),\"Address not Valid!\");\r\n\r\n        return milkhubInventoryStorage.checkProduct(ownerMilkBatch, _id_MilkBatch, quantityToBuy);\r\n    }\r\n\r\n//-------------------------------------------------------------------- Get Function --------------------------------------------------------------------//\r\n\r\n    function getMilkBatchExpirationDate(address walletMilkHub, uint256 _id) external view checkAddress(walletMilkHub) returns(string memory) {\r\n        \r\n        require(milkhubService.isUserPresent(walletMilkHub), \"User is not present!\");\r\n\r\n        require(this.isMilkBatchPresent(walletMilkHub, _id),\"MilkBatch not Present!\");\r\n\r\n        return milkhubInventoryStorage.getExpirationDate(walletMilkHub,_id);        \r\n    }\r\n\r\n\r\n    function getMilkBatchQuantity(address walletMilkHub, uint256 _id) external view checkAddress(walletMilkHub) returns(uint256) {\r\n        \r\n        require(milkhubService.isUserPresent(walletMilkHub), \"User is not present!\");\r\n\r\n        require(this.isMilkBatchPresent(walletMilkHub, _id),\"MilkBatch not Present!\");\r\n        \r\n        return milkhubInventoryStorage.getQuantity(walletMilkHub,_id);        \r\n    }\r\n\r\n\r\n    function getMilkBatchPrice(address walletMilkHub, uint256 _id) external view checkAddress(walletMilkHub) returns(uint256) {\r\n        require(milkhubService.isUserPresent(walletMilkHub), \"User is not present!\");\r\n\r\n        require(this.isMilkBatchPresent(walletMilkHub, _id),\"MilkBatch not Present!\");\r\n        \r\n        return milkhubInventoryStorage.getPrice(walletMilkHub,_id);        \r\n    }\r\n\r\n    /**\r\n    * Verifica che il MilkBatch  presente all'interno dell'inventario \r\n    * - Verifica che l'id non sia nullo e che sia maggiore di 0 e che coincida con l'elemento \r\n    */\r\n    function isMilkBatchPresent(address walletMilkHub, uint256 _id) external view checkAddress(walletMilkHub)  returns (bool){\r\n        return milkhubInventoryStorage.isMilkBatchPresent(walletMilkHub, _id);\r\n    }\r\n\r\n\r\n//---------------------------------------------------------------------- Set Function --------------------------------------------------------------------------//\r\n\r\n\r\n    /**\r\n    * Decremento della quantit del MilkBatch \r\n    * Verifica che la quantit sia maggiore di 0 -> altrimenti elimina\r\n    */\r\n    function updateMilkBatchQuantity(address ownerMilkHub, uint256 _id, uint256 _quantity) external checkAddress(ownerMilkHub) {\r\n\r\n        require(milkhubService.isUserPresent(ownerMilkHub), \"User is not present!\");\r\n\r\n        require(this.isMilkBatchPresent(ownerMilkHub, _id),\"MilkBatch not Present!\");\r\n\r\n        milkhubInventoryStorage.updateQuantity(ownerMilkHub, _id, _quantity);\r\n\r\n        emit MilkBatchEdited(ownerMilkHub,\"MilkBatch edited!\", _quantity);\r\n    }\r\n\r\n\r\n\r\n}",
  "sourcePath": "C:\\Users\\umber\\Progetti\\FilieraToken\\Filiera-Token-Smart-Contract\\contracts\\Actor\\MilkHub-smart-contract\\inventory\\MilkHubInventoryService.sol",
  "compiler": {
    "name": "solc",
    "version": "0.8.24+commit.e11b9ed9.Emscripten.clang"
  },
  "schemaVersion": "3.4.16",
  "updatedAt": "2024-02-29T10:17:44.538Z",
  "devdoc": {
    "kind": "dev",
    "methods": {},
    "version": 1
  },
  "userdoc": {
    "kind": "user",
    "methods": {
      "deleteMilkBatch(uint256,address)": {
        "notice": "Eliminare un MilkBatch attraverso l'id  - ID  - Verficare che l'utente che vuole eseguire la transazione sia presente."
      },
      "getMilkBatch(uint256,address)": {
        "notice": "Ottenere le informazioni del milkbatch attraverso :  - ID milkBatch - msg.sender -> mi permette di visualizzare solo se sono il proprietario di questo prodotto  "
      },
      "isMilkBatchPresent(address,uint256)": {
        "notice": "Verifica che il MilkBatch  presente all'interno dell'inventario  - Verifica che l'id non sia nullo e che sia maggiore di 0 e che coincida con l'elemento "
      },
      "updateMilkBatchQuantity(address,uint256,uint256)": {
        "notice": "Decremento della quantit del MilkBatch  Verifica che la quantit sia maggiore di 0 -> altrimenti elimina"
      }
    },
    "version": 1
  }
}