{
  "contractName": "RetailerCheeseBlockService",
  "abi": [
    {
      "inputs": [
        {
          "internalType": "address",
          "name": "_retailerCheeseBlockStorage",
          "type": "address"
        },
        {
          "internalType": "address",
          "name": "_retailerService",
          "type": "address"
        }
      ],
      "stateMutability": "nonpayable",
      "type": "constructor"
    },
    {
      "anonymous": false,
      "inputs": [
        {
          "indexed": true,
          "internalType": "address",
          "name": "userAddress",
          "type": "address"
        },
        {
          "indexed": false,
          "internalType": "string",
          "name": "message",
          "type": "string"
        },
        {
          "indexed": false,
          "internalType": "uint256",
          "name": "id",
          "type": "uint256"
        },
        {
          "indexed": false,
          "internalType": "string",
          "name": "expirationDate",
          "type": "string"
        },
        {
          "indexed": false,
          "internalType": "uint256",
          "name": "quantity",
          "type": "uint256"
        }
      ],
      "name": "RetailerCheeseBlockAdded",
      "type": "event"
    },
    {
      "anonymous": false,
      "inputs": [
        {
          "indexed": true,
          "internalType": "address",
          "name": "userAddress",
          "type": "address"
        },
        {
          "indexed": false,
          "internalType": "string",
          "name": "message",
          "type": "string"
        }
      ],
      "name": "RetailerCheeseBlockDeleted",
      "type": "event"
    },
    {
      "anonymous": false,
      "inputs": [
        {
          "indexed": true,
          "internalType": "address",
          "name": "userAddress",
          "type": "address"
        },
        {
          "indexed": false,
          "internalType": "string",
          "name": "message",
          "type": "string"
        },
        {
          "indexed": false,
          "internalType": "uint256",
          "name": "quantity",
          "type": "uint256"
        }
      ],
      "name": "RetailerCheeseBlockEdited",
      "type": "event"
    },
    {
      "inputs": [
        {
          "internalType": "address",
          "name": "_walletCheeseProducer",
          "type": "address"
        },
        {
          "internalType": "address",
          "name": "_walletRetailer",
          "type": "address"
        },
        {
          "internalType": "uint256",
          "name": "_id_CheeseBlock",
          "type": "uint256"
        },
        {
          "internalType": "string",
          "name": "_dop",
          "type": "string"
        },
        {
          "internalType": "uint256",
          "name": "_quantity",
          "type": "uint256"
        }
      ],
      "name": "addCheeseBlock",
      "outputs": [],
      "stateMutability": "nonpayable",
      "type": "function"
    },
    {
      "inputs": [
        {
          "internalType": "uint256",
          "name": "_id_CheeseBlockAcquistato",
          "type": "uint256"
        }
      ],
      "name": "getCheeseBlock",
      "outputs": [
        {
          "internalType": "uint256",
          "name": "",
          "type": "uint256"
        },
        {
          "internalType": "address",
          "name": "",
          "type": "address"
        },
        {
          "internalType": "string",
          "name": "",
          "type": "string"
        },
        {
          "internalType": "uint256",
          "name": "",
          "type": "uint256"
        }
      ],
      "stateMutability": "view",
      "type": "function"
    },
    {
      "inputs": [
        {
          "internalType": "address",
          "name": "_walletRetailer",
          "type": "address"
        },
        {
          "internalType": "uint256",
          "name": "_id_CheeseBlockAcquistato",
          "type": "uint256"
        }
      ],
      "name": "getDop",
      "outputs": [
        {
          "internalType": "string",
          "name": "",
          "type": "string"
        }
      ],
      "stateMutability": "view",
      "type": "function"
    },
    {
      "inputs": [
        {
          "internalType": "address",
          "name": "_walletRetailer",
          "type": "address"
        },
        {
          "internalType": "uint256",
          "name": "_id_CheeseBlockAcquistato",
          "type": "uint256"
        }
      ],
      "name": "getQuantity",
      "outputs": [
        {
          "internalType": "uint256",
          "name": "",
          "type": "uint256"
        }
      ],
      "stateMutability": "view",
      "type": "function"
    },
    {
      "inputs": [
        {
          "internalType": "address",
          "name": "_walletRetailer",
          "type": "address"
        },
        {
          "internalType": "uint256",
          "name": "_id_CheeseBlockAcquistato",
          "type": "uint256"
        }
      ],
      "name": "getWalletCheeseProducer",
      "outputs": [
        {
          "internalType": "address",
          "name": "",
          "type": "address"
        }
      ],
      "stateMutability": "view",
      "type": "function"
    },
    {
      "inputs": [
        {
          "internalType": "address",
          "name": "_walletRetailer",
          "type": "address"
        },
        {
          "internalType": "uint256",
          "name": "_id_CheeseBlockAcquistato",
          "type": "uint256"
        }
      ],
      "name": "isCheeseBlockAcquistataPresent",
      "outputs": [
        {
          "internalType": "bool",
          "name": "",
          "type": "bool"
        }
      ],
      "stateMutability": "view",
      "type": "function"
    },
    {
      "inputs": [
        {
          "internalType": "address",
          "name": "walletRetailer",
          "type": "address"
        },
        {
          "internalType": "uint256",
          "name": "_id_CheeseBlock",
          "type": "uint256"
        },
        {
          "internalType": "uint256",
          "name": "_quantity",
          "type": "uint256"
        }
      ],
      "name": "updateCheeseBlockQuantity",
      "outputs": [],
      "stateMutability": "nonpayable",
      "type": "function"
    },
    {
      "inputs": [
        {
          "internalType": "address",
          "name": "_retailerCheeseBlockStorage",
          "type": "address"
        }
      ],
      "name": "changeRetailerCheeseBlockStorage",
      "outputs": [],
      "stateMutability": "nonpayable",
      "type": "function"
    },
    {
      "inputs": [
        {
          "internalType": "address",
          "name": "_retailerService",
          "type": "address"
        }
      ],
      "name": "changeRetailerService",
      "outputs": [],
      "stateMutability": "nonpayable",
      "type": "function"
    }
  ],
  "bytecode": "0x60806040523480156200001157600080fd5b50604051620033c1380380620033c183398181016040528101906200003791906200016b565b81600160006101000a81548173ffffffffffffffffffffffffffffffffffffffff021916908373ffffffffffffffffffffffffffffffffffffffff16021790555080600260006101000a81548173ffffffffffffffffffffffffffffffffffffffff021916908373ffffffffffffffffffffffffffffffffffffffff160217905550336000806101000a81548173ffffffffffffffffffffffffffffffffffffffff021916908373ffffffffffffffffffffffffffffffffffffffff1602179055505050620001b2565b600080fd5b600073ffffffffffffffffffffffffffffffffffffffff82169050919050565b6000620001338262000106565b9050919050565b620001458162000126565b81146200015157600080fd5b50565b60008151905062000165816200013a565b92915050565b6000806040838503121562000185576200018462000101565b5b6000620001958582860162000154565b9250506020620001a88582860162000154565b9150509250929050565b6131ff80620001c26000396000f3fe608060405234801561001057600080fd5b50600436106100935760003560e01c80638b3c04ce116100665780638b3c04ce14610133578063940176541461014f578063cc2317261461016b578063d5e677f01461019b578063f93bd021146101cb57610093565b80631e073fcf146100985780634c939786146100c857806355eabd67146100fb57806377e94d9e14610117575b600080fd5b6100b260048036038101906100ad919061243f565b6101fb565b6040516100bf919061248e565b60405180910390f35b6100e260048036038101906100dd91906124a9565b610658565b6040516100f29493929190612575565b60405180910390f35b610115600480360381019061011091906125c1565b610acc565b005b610131600480360381019061012c91906125ee565b610b10565b005b61014d60048036038101906101489190612776565b610fcb565b005b610169600480360381019061016491906125c1565b611664565b005b6101856004803603810190610180919061243f565b611736565b604051610192919061280d565b60405180910390f35b6101b560048036038101906101b0919061243f565b611b93565b6040516101c29190612843565b60405180910390f35b6101e560048036038101906101e0919061243f565b611f35565b6040516101f2919061285e565b60405180910390f35b600033600073ffffffffffffffffffffffffffffffffffffffff168173ffffffffffffffffffffffffffffffffffffffff160361026d576040517f08c379a0000000000000000000000000000000000000000000000000000000008152600401610264906128cc565b60405180910390fd5b600160009054906101000a900473ffffffffffffffffffffffffffffffffffffffff1673ffffffffffffffffffffffffffffffffffffffff168173ffffffffffffffffffffffffffffffffffffffff16036102fd576040517f08c379a00000000000000000000000000000000000000000000000000000000081526004016102f49061295e565b60405180910390fd5b600260009054906101000a900473ffffffffffffffffffffffffffffffffffffffff1673ffffffffffffffffffffffffffffffffffffffff168173ffffffffffffffffffffffffffffffffffffffff160361038d576040517f08c379a0000000000000000000000000000000000000000000000000000000008152600401610384906129ca565b60405180910390fd5b60008054906101000a900473ffffffffffffffffffffffffffffffffffffffff1673ffffffffffffffffffffffffffffffffffffffff168173ffffffffffffffffffffffffffffffffffffffff160361041b576040517f08c379a000000000000000000000000000000000000000000000000000000000815260040161041290612a36565b60405180910390fd5b600260009054906101000a900473ffffffffffffffffffffffffffffffffffffffff1673ffffffffffffffffffffffffffffffffffffffff1663a5578807856040518263ffffffff1660e01b8152600401610476919061280d565b602060405180830381865afa158015610493573d6000803e3d6000fd5b505050506040513d601f19601f820116820180604052508101906104b79190612a82565b6104f6576040517f08c379a00000000000000000000000000000000000000000000000000000000081526004016104ed90612afb565b60405180910390fd5b3073ffffffffffffffffffffffffffffffffffffffff1663d5e677f085856040518363ffffffff1660e01b8152600401610531929190612b1b565b602060405180830381865afa15801561054e573d6000803e3d6000fd5b505050506040513d601f19601f820116820180604052508101906105729190612a82565b6105b1576040517f08c379a00000000000000000000000000000000000000000000000000000000081526004016105a890612b90565b60405180910390fd5b600160009054906101000a900473ffffffffffffffffffffffffffffffffffffffff1673ffffffffffffffffffffffffffffffffffffffff16631e073fcf85856040518363ffffffff1660e01b815260040161060e929190612b1b565b602060405180830381865afa15801561062b573d6000803e3d6000fd5b505050506040513d601f19601f8201168201806040525081019061064f9190612bc5565b91505092915050565b6000806060600033600073ffffffffffffffffffffffffffffffffffffffff168173ffffffffffffffffffffffffffffffffffffffff16036106cf576040517f08c379a00000000000000000000000000000000000000000000000000000000081526004016106c6906128cc565b60405180910390fd5b600160009054906101000a900473ffffffffffffffffffffffffffffffffffffffff1673ffffffffffffffffffffffffffffffffffffffff168173ffffffffffffffffffffffffffffffffffffffff160361075f576040517f08c379a00000000000000000000000000000000000000000000000000000000081526004016107569061295e565b60405180910390fd5b600260009054906101000a900473ffffffffffffffffffffffffffffffffffffffff1673ffffffffffffffffffffffffffffffffffffffff168173ffffffffffffffffffffffffffffffffffffffff16036107ef576040517f08c379a00000000000000000000000000000000000000000000000000000000081526004016107e6906129ca565b60405180910390fd5b60008054906101000a900473ffffffffffffffffffffffffffffffffffffffff1673ffffffffffffffffffffffffffffffffffffffff168173ffffffffffffffffffffffffffffffffffffffff160361087d576040517f08c379a000000000000000000000000000000000000000000000000000000000815260040161087490612a36565b60405180910390fd5b6000339050600260009054906101000a900473ffffffffffffffffffffffffffffffffffffffff1673ffffffffffffffffffffffffffffffffffffffff1663a5578807826040518263ffffffff1660e01b81526004016108dd919061280d565b602060405180830381865afa1580156108fa573d6000803e3d6000fd5b505050506040513d601f19601f8201168201806040525081019061091e9190612a82565b61095d576040517f08c379a000000000000000000000000000000000000000000000000000000000815260040161095490612afb565b60405180910390fd5b3073ffffffffffffffffffffffffffffffffffffffff1663d5e677f082896040518363ffffffff1660e01b8152600401610998929190612b1b565b602060405180830381865afa1580156109b5573d6000803e3d6000fd5b505050506040513d601f19601f820116820180604052508101906109d99190612a82565b610a18576040517f08c379a0000000000000000000000000000000000000000000000000000000008152600401610a0f90612b90565b60405180910390fd5b600160009054906101000a900473ffffffffffffffffffffffffffffffffffffffff1673ffffffffffffffffffffffffffffffffffffffff16636fb82e0682896040518363ffffffff1660e01b8152600401610a75929190612b1b565b600060405180830381865afa158015610a92573d6000803e3d6000fd5b505050506040513d6000823e3d601f19601f82011682018060405250810190610abb9190612c77565b955095509550955050509193509193565b80600260006101000a81548173ffffffffffffffffffffffffffffffffffffffff021916908373ffffffffffffffffffffffffffffffffffffffff16021790555050565b82600073ffffffffffffffffffffffffffffffffffffffff168173ffffffffffffffffffffffffffffffffffffffff1603610b80576040517f08c379a0000000000000000000000000000000000000000000000000000000008152600401610b77906128cc565b60405180910390fd5b600160009054906101000a900473ffffffffffffffffffffffffffffffffffffffff1673ffffffffffffffffffffffffffffffffffffffff168173ffffffffffffffffffffffffffffffffffffffff1603610c10576040517f08c379a0000000000000000000000000000000000000000000000000000000008152600401610c079061295e565b60405180910390fd5b600260009054906101000a900473ffffffffffffffffffffffffffffffffffffffff1673ffffffffffffffffffffffffffffffffffffffff168173ffffffffffffffffffffffffffffffffffffffff1603610ca0576040517f08c379a0000000000000000000000000000000000000000000000000000000008152600401610c97906129ca565b60405180910390fd5b60008054906101000a900473ffffffffffffffffffffffffffffffffffffffff1673ffffffffffffffffffffffffffffffffffffffff168173ffffffffffffffffffffffffffffffffffffffff1603610d2e576040517f08c379a0000000000000000000000000000000000000000000000000000000008152600401610d2590612a36565b60405180910390fd5b600260009054906101000a900473ffffffffffffffffffffffffffffffffffffffff1673ffffffffffffffffffffffffffffffffffffffff1663a5578807856040518263ffffffff1660e01b8152600401610d89919061280d565b602060405180830381865afa158015610da6573d6000803e3d6000fd5b505050506040513d601f19601f82011682018060405250810190610dca9190612a82565b610e09576040517f08c379a0000000000000000000000000000000000000000000000000000000008152600401610e0090612d46565b60405180910390fd5b600160009054906101000a900473ffffffffffffffffffffffffffffffffffffffff1673ffffffffffffffffffffffffffffffffffffffff1663cfa41ed085856040518363ffffffff1660e01b8152600401610e66929190612b1b565b602060405180830381865afa158015610e83573d6000803e3d6000fd5b505050506040513d601f19601f82011682018060405250810190610ea79190612a82565b610ee6576040517f08c379a0000000000000000000000000000000000000000000000000000000008152600401610edd90612db2565b60405180910390fd5b600160009054906101000a900473ffffffffffffffffffffffffffffffffffffffff1673ffffffffffffffffffffffffffffffffffffffff1663453ecf048585856040518463ffffffff1660e01b8152600401610f4593929190612dd2565b600060405180830381600087803b158015610f5f57600080fd5b505af1158015610f73573d6000803e3d6000fd5b505050508373ffffffffffffffffffffffffffffffffffffffff167f3ca76a6a112151cbb6909158898f9c1893d9049d6eccab3e0d06e97515425cbe83604051610fbd9190612e55565b60405180910390a250505050565b83600073ffffffffffffffffffffffffffffffffffffffff168173ffffffffffffffffffffffffffffffffffffffff160361103b576040517f08c379a0000000000000000000000000000000000000000000000000000000008152600401611032906128cc565b60405180910390fd5b600160009054906101000a900473ffffffffffffffffffffffffffffffffffffffff1673ffffffffffffffffffffffffffffffffffffffff168173ffffffffffffffffffffffffffffffffffffffff16036110cb576040517f08c379a00000000000000000000000000000000000000000000000000000000081526004016110c29061295e565b60405180910390fd5b600260009054906101000a900473ffffffffffffffffffffffffffffffffffffffff1673ffffffffffffffffffffffffffffffffffffffff168173ffffffffffffffffffffffffffffffffffffffff160361115b576040517f08c379a0000000000000000000000000000000000000000000000000000000008152600401611152906129ca565b60405180910390fd5b60008054906101000a900473ffffffffffffffffffffffffffffffffffffffff1673ffffffffffffffffffffffffffffffffffffffff168173ffffffffffffffffffffffffffffffffffffffff16036111e9576040517f08c379a00000000000000000000000000000000000000000000000000000000081526004016111e090612a36565b60405180910390fd5b85600073ffffffffffffffffffffffffffffffffffffffff168173ffffffffffffffffffffffffffffffffffffffff1603611259576040517f08c379a0000000000000000000000000000000000000000000000000000000008152600401611250906128cc565b60405180910390fd5b600160009054906101000a900473ffffffffffffffffffffffffffffffffffffffff1673ffffffffffffffffffffffffffffffffffffffff168173ffffffffffffffffffffffffffffffffffffffff16036112e9576040517f08c379a00000000000000000000000000000000000000000000000000000000081526004016112e09061295e565b60405180910390fd5b600260009054906101000a900473ffffffffffffffffffffffffffffffffffffffff1673ffffffffffffffffffffffffffffffffffffffff168173ffffffffffffffffffffffffffffffffffffffff1603611379576040517f08c379a0000000000000000000000000000000000000000000000000000000008152600401611370906129ca565b60405180910390fd5b60008054906101000a900473ffffffffffffffffffffffffffffffffffffffff1673ffffffffffffffffffffffffffffffffffffffff168173ffffffffffffffffffffffffffffffffffffffff1603611407576040517f08c379a00000000000000000000000000000000000000000000000000000000081526004016113fe90612a36565b60405180910390fd5b8673ffffffffffffffffffffffffffffffffffffffff168673ffffffffffffffffffffffffffffffffffffffff1603611475576040517f08c379a000000000000000000000000000000000000000000000000000000000815260040161146c90612ef5565b60405180910390fd5b600260009054906101000a900473ffffffffffffffffffffffffffffffffffffffff1673ffffffffffffffffffffffffffffffffffffffff1663a5578807876040518263ffffffff1660e01b81526004016114d0919061280d565b602060405180830381865afa1580156114ed573d6000803e3d6000fd5b505050506040513d601f19601f820116820180604052508101906115119190612a82565b611550576040517f08c379a000000000000000000000000000000000000000000000000000000000815260040161154790612afb565b60405180910390fd5b6000806000600160009054906101000a900473ffffffffffffffffffffffffffffffffffffffff1673ffffffffffffffffffffffffffffffffffffffff16638b3c04ce8a8c8b8b8b6040518663ffffffff1660e01b81526004016115b8959493929190612f15565b6000604051808303816000875af11580156115d7573d6000803e3d6000fd5b505050506040513d6000823e3d601f19601f820116820180604052508101906116009190612f6f565b9250925092508873ffffffffffffffffffffffffffffffffffffffff167ff8d6c42146fa3f110f6c2c22797e8af4ed0e24550f3ab8fb75d5fe686b1b0adb8484846040516116509392919061302a565b60405180910390a250505050505050505050565b60008054906101000a900473ffffffffffffffffffffffffffffffffffffffff1673ffffffffffffffffffffffffffffffffffffffff163373ffffffffffffffffffffffffffffffffffffffff16146116f2576040517f08c379a00000000000000000000000000000000000000000000000000000000081526004016116e9906130c7565b60405180910390fd5b80600160006101000a81548173ffffffffffffffffffffffffffffffffffffffff021916908373ffffffffffffffffffffffffffffffffffffffff16021790555050565b600033600073ffffffffffffffffffffffffffffffffffffffff168173ffffffffffffffffffffffffffffffffffffffff16036117a8576040517f08c379a000000000000000000000000000000000000000000000000000000000815260040161179f906128cc565b60405180910390fd5b600160009054906101000a900473ffffffffffffffffffffffffffffffffffffffff1673ffffffffffffffffffffffffffffffffffffffff168173ffffffffffffffffffffffffffffffffffffffff1603611838576040517f08c379a000000000000000000000000000000000000000000000000000000000815260040161182f9061295e565b60405180910390fd5b600260009054906101000a900473ffffffffffffffffffffffffffffffffffffffff1673ffffffffffffffffffffffffffffffffffffffff168173ffffffffffffffffffffffffffffffffffffffff16036118c8576040517f08c379a00000000000000000000000000000000000000000000000000000000081526004016118bf906129ca565b60405180910390fd5b60008054906101000a900473ffffffffffffffffffffffffffffffffffffffff1673ffffffffffffffffffffffffffffffffffffffff168173ffffffffffffffffffffffffffffffffffffffff1603611956576040517f08c379a000000000000000000000000000000000000000000000000000000000815260040161194d90612a36565b60405180910390fd5b600260009054906101000a900473ffffffffffffffffffffffffffffffffffffffff1673ffffffffffffffffffffffffffffffffffffffff1663a5578807856040518263ffffffff1660e01b81526004016119b1919061280d565b602060405180830381865afa1580156119ce573d6000803e3d6000fd5b505050506040513d601f19601f820116820180604052508101906119f29190612a82565b611a31576040517f08c379a0000000000000000000000000000000000000000000000000000000008152600401611a2890612afb565b60405180910390fd5b3073ffffffffffffffffffffffffffffffffffffffff1663d5e677f085856040518363ffffffff1660e01b8152600401611a6c929190612b1b565b602060405180830381865afa158015611a89573d6000803e3d6000fd5b505050506040513d601f19601f82011682018060405250810190611aad9190612a82565b611aec576040517f08c379a0000000000000000000000000000000000000000000000000000000008152600401611ae390612b90565b60405180910390fd5b600160009054906101000a900473ffffffffffffffffffffffffffffffffffffffff1673ffffffffffffffffffffffffffffffffffffffff1663cc23172685856040518363ffffffff1660e01b8152600401611b49929190612b1b565b602060405180830381865afa158015611b66573d6000803e3d6000fd5b505050506040513d601f19601f82011682018060405250810190611b8a91906130e7565b91505092915050565b600082600073ffffffffffffffffffffffffffffffffffffffff168173ffffffffffffffffffffffffffffffffffffffff1603611c05576040517f08c379a0000000000000000000000000000000000000000000000000000000008152600401611bfc906128cc565b60405180910390fd5b600160009054906101000a900473ffffffffffffffffffffffffffffffffffffffff1673ffffffffffffffffffffffffffffffffffffffff168173ffffffffffffffffffffffffffffffffffffffff1603611c95576040517f08c379a0000000000000000000000000000000000000000000000000000000008152600401611c8c9061295e565b60405180910390fd5b600260009054906101000a900473ffffffffffffffffffffffffffffffffffffffff1673ffffffffffffffffffffffffffffffffffffffff168173ffffffffffffffffffffffffffffffffffffffff1603611d25576040517f08c379a0000000000000000000000000000000000000000000000000000000008152600401611d1c906129ca565b60405180910390fd5b60008054906101000a900473ffffffffffffffffffffffffffffffffffffffff1673ffffffffffffffffffffffffffffffffffffffff168173ffffffffffffffffffffffffffffffffffffffff1603611db3576040517f08c379a0000000000000000000000000000000000000000000000000000000008152600401611daa90612a36565b60405180910390fd5b600260009054906101000a900473ffffffffffffffffffffffffffffffffffffffff1673ffffffffffffffffffffffffffffffffffffffff1663a5578807856040518263ffffffff1660e01b8152600401611e0e919061280d565b602060405180830381865afa158015611e2b573d6000803e3d6000fd5b505050506040513d601f19601f82011682018060405250810190611e4f9190612a82565b611e8e576040517f08c379a0000000000000000000000000000000000000000000000000000000008152600401611e8590613160565b60405180910390fd5b600160009054906101000a900473ffffffffffffffffffffffffffffffffffffffff1673ffffffffffffffffffffffffffffffffffffffff1663cfa41ed085856040518363ffffffff1660e01b8152600401611eeb929190612b1b565b602060405180830381865afa158015611f08573d6000803e3d6000fd5b505050506040513d601f19601f82011682018060405250810190611f2c9190612a82565b91505092915050565b606033600073ffffffffffffffffffffffffffffffffffffffff168173ffffffffffffffffffffffffffffffffffffffff1603611fa7576040517f08c379a0000000000000000000000000000000000000000000000000000000008152600401611f9e906128cc565b60405180910390fd5b600160009054906101000a900473ffffffffffffffffffffffffffffffffffffffff1673ffffffffffffffffffffffffffffffffffffffff168173ffffffffffffffffffffffffffffffffffffffff1603612037576040517f08c379a000000000000000000000000000000000000000000000000000000000815260040161202e9061295e565b60405180910390fd5b600260009054906101000a900473ffffffffffffffffffffffffffffffffffffffff1673ffffffffffffffffffffffffffffffffffffffff168173ffffffffffffffffffffffffffffffffffffffff16036120c7576040517f08c379a00000000000000000000000000000000000000000000000000000000081526004016120be906129ca565b60405180910390fd5b60008054906101000a900473ffffffffffffffffffffffffffffffffffffffff1673ffffffffffffffffffffffffffffffffffffffff168173ffffffffffffffffffffffffffffffffffffffff1603612155576040517f08c379a000000000000000000000000000000000000000000000000000000000815260040161214c90612a36565b60405180910390fd5b600260009054906101000a900473ffffffffffffffffffffffffffffffffffffffff1673ffffffffffffffffffffffffffffffffffffffff1663a5578807856040518263ffffffff1660e01b81526004016121b0919061280d565b602060405180830381865afa1580156121cd573d6000803e3d6000fd5b505050506040513d601f19601f820116820180604052508101906121f19190612a82565b612230576040517f08c379a000000000000000000000000000000000000000000000000000000000815260040161222790612afb565b60405180910390fd5b3073ffffffffffffffffffffffffffffffffffffffff1663d5e677f085856040518363ffffffff1660e01b815260040161226b929190612b1b565b602060405180830381865afa158015612288573d6000803e3d6000fd5b505050506040513d601f19601f820116820180604052508101906122ac9190612a82565b6122eb576040517f08c379a00000000000000000000000000000000000000000000000000000000081526004016122e290612b90565b60405180910390fd5b600160009054906101000a900473ffffffffffffffffffffffffffffffffffffffff1673ffffffffffffffffffffffffffffffffffffffff1663f93bd02185856040518363ffffffff1660e01b8152600401612348929190612b1b565b600060405180830381865afa158015612365573d6000803e3d6000fd5b505050506040513d6000823e3d601f19601f8201168201806040525081019061238e9190613180565b91505092915050565b6000604051905090565b600080fd5b600080fd5b600073ffffffffffffffffffffffffffffffffffffffff82169050919050565b60006123d6826123ab565b9050919050565b6123e6816123cb565b81146123f157600080fd5b50565b600081359050612403816123dd565b92915050565b6000819050919050565b61241c81612409565b811461242757600080fd5b50565b60008135905061243981612413565b92915050565b60008060408385031215612456576124556123a1565b5b6000612464858286016123f4565b92505060206124758582860161242a565b9150509250929050565b61248881612409565b82525050565b60006020820190506124a3600083018461247f565b92915050565b6000602082840312156124bf576124be6123a1565b5b60006124cd8482850161242a565b91505092915050565b6124df816123cb565b82525050565b600081519050919050565b600082825260208201905092915050565b60005b8381101561251f578082015181840152602081019050612504565b60008484015250505050565b6000601f19601f8301169050919050565b6000612547826124e5565b61255181856124f0565b9350612561818560208601612501565b61256a8161252b565b840191505092915050565b600060808201905061258a600083018761247f565b61259760208301866124d6565b81810360408301526125a9818561253c565b90506125b8606083018461247f565b95945050505050565b6000602082840312156125d7576125d66123a1565b5b60006125e5848285016123f4565b91505092915050565b600080600060608486031215612607576126066123a1565b5b6000612615868287016123f4565b93505060206126268682870161242a565b92505060406126378682870161242a565b9150509250925092565b600080fd5b600080fd5b7f4e487b7100000000000000000000000000000000000000000000000000000000600052604160045260246000fd5b6126838261252b565b810181811067ffffffffffffffff821117156126a2576126a161264b565b5b80604052505050565b60006126b5612397565b90506126c1828261267a565b919050565b600067ffffffffffffffff8211156126e1576126e061264b565b5b6126ea8261252b565b9050602081019050919050565b82818337600083830152505050565b6000612719612714846126c6565b6126ab565b90508281526020810184848401111561273557612734612646565b5b6127408482856126f7565b509392505050565b600082601f83011261275d5761275c612641565b5b813561276d848260208601612706565b91505092915050565b600080600080600060a08688031215612792576127916123a1565b5b60006127a0888289016123f4565b95505060206127b1888289016123f4565b94505060406127c28882890161242a565b935050606086013567ffffffffffffffff8111156127e3576127e26123a6565b5b6127ef88828901612748565b92505060806128008882890161242a565b9150509295509295909350565b600060208201905061282260008301846124d6565b92915050565b60008115159050919050565b61283d81612828565b82525050565b60006020820190506128586000830184612834565b92915050565b60006020820190508181036000830152612878818461253c565b905092915050565b7f416464726573732076616c756520697320302100000000000000000000000000600082015250565b60006128b66013836124f0565b91506128c182612880565b602082019050919050565b600060208201905081810360008301526128e5816128a9565b9050919050565b7f416464726573732069732072657461696c6572436865657365426c6f636b537460008201527f6f72616765210000000000000000000000000000000000000000000000000000602082015250565b60006129486026836124f0565b9150612953826128ec565b604082019050919050565b600060208201905081810360008301526129778161293b565b9050919050565b7f416464726573732069732052657461696c657253657276696365210000000000600082015250565b60006129b4601b836124f0565b91506129bf8261297e565b602082019050919050565b600060208201905081810360008301526129e3816129a7565b9050919050565b7f41646472657373206973204f7267616e697a6174696f6e210000000000000000600082015250565b6000612a206018836124f0565b9150612a2b826129ea565b602082019050919050565b60006020820190508181036000830152612a4f81612a13565b9050919050565b612a5f81612828565b8114612a6a57600080fd5b50565b600081519050612a7c81612a56565b92915050565b600060208284031215612a9857612a976123a1565b5b6000612aa684828501612a6d565b91505092915050565b7f5574656e7465206e6f6e2074726f7661746f2100000000000000000000000000600082015250565b6000612ae56013836124f0565b9150612af082612aaf565b602082019050919050565b60006020820190508181036000830152612b1481612ad8565b9050919050565b6000604082019050612b3060008301856124d6565b612b3d602083018461247f565b9392505050565b7f50726f646f74746f206e6f6e2050726573656e74652100000000000000000000600082015250565b6000612b7a6016836124f0565b9150612b8582612b44565b602082019050919050565b60006020820190508181036000830152612ba981612b6d565b9050919050565b600081519050612bbf81612413565b92915050565b600060208284031215612bdb57612bda6123a1565b5b6000612be984828501612bb0565b91505092915050565b600081519050612c01816123dd565b92915050565b6000612c1a612c15846126c6565b6126ab565b905082815260208101848484011115612c3657612c35612646565b5b612c41848285612501565b509392505050565b600082601f830112612c5e57612c5d612641565b5b8151612c6e848260208601612c07565b91505092915050565b60008060008060808587031215612c9157612c906123a1565b5b6000612c9f87828801612bb0565b9450506020612cb087828801612bf2565b935050604085015167ffffffffffffffff811115612cd157612cd06123a6565b5b612cdd87828801612c49565b9250506060612cee87828801612bb0565b91505092959194509250565b7f55736572206973206e6f742070726573656e7421000000000000000000000000600082015250565b6000612d306014836124f0565b9150612d3b82612cfa565b602082019050919050565b60006020820190508181036000830152612d5f81612d23565b9050919050565b7f436865657365426c6f636b206e6f742050726573656e74210000000000000000600082015250565b6000612d9c6018836124f0565b9150612da782612d66565b602082019050919050565b60006020820190508181036000830152612dcb81612d8f565b9050919050565b6000606082019050612de760008301866124d6565b612df4602083018561247f565b612e01604083018461247f565b949350505050565b7f436865657365426c6f636b206564697465642100000000000000000000000000600082015250565b6000612e3f6013836124f0565b9150612e4a82612e09565b602082019050919050565b60006040820190508181036000830152612e6e81612e32565b9050612e7d602083018461247f565b92915050565b7f4164647265737320756775616c692052657461696c65722065204d696c6b487560008201527f6221000000000000000000000000000000000000000000000000000000000000602082015250565b6000612edf6022836124f0565b9150612eea82612e83565b604082019050919050565b60006020820190508181036000830152612f0e81612ed2565b9050919050565b600060a082019050612f2a60008301886124d6565b612f3760208301876124d6565b612f44604083018661247f565b8181036060830152612f56818561253c565b9050612f65608083018461247f565b9695505050505050565b600080600060608486031215612f8857612f876123a1565b5b6000612f9686828701612bb0565b935050602084015167ffffffffffffffff811115612fb757612fb66123a6565b5b612fc386828701612c49565b9250506040612fd486828701612bb0565b9150509250925092565b7f436865657365426c6f636b204163717569737461746f21000000000000000000600082015250565b60006130146017836124f0565b915061301f82612fde565b602082019050919050565b6000608082019050818103600083015261304381613007565b9050613052602083018661247f565b8181036040830152613064818561253c565b9050613073606083018461247f565b949350505050565b7f41646472657373206973206e6f7420746865206f7267616e697a6174696f6e00600082015250565b60006130b1601f836124f0565b91506130bc8261307b565b602082019050919050565b600060208201905081810360008301526130e0816130a4565b9050919050565b6000602082840312156130fd576130fc6123a1565b5b600061310b84828501612bf2565b91505092915050565b7f5574656e7465206e6f6e2070726573656e746521000000000000000000000000600082015250565b600061314a6014836124f0565b915061315582613114565b602082019050919050565b600060208201905081810360008301526131798161313d565b9050919050565b600060208284031215613196576131956123a1565b5b600082015167ffffffffffffffff8111156131b4576131b36123a6565b5b6131c084828501612c49565b9150509291505056fea264697066735822122062dd3894944d50aedfc0571def58adb05b8e1c716c080629359a65e3da7f96dd64736f6c63430008180033",
  "immutableReferences": {},
  "source": "// SPDX-License-Identifier: MIT\r\npragma solidity ^0.8.21;\r\n\r\nimport \"./RetailerCheeseBlockStorage.sol\";\r\nimport \"../RetailerService.sol\";\r\n\r\n\r\ncontract RetailerCheeseBlockService {\r\n\r\n//------------------------------------------------------------------------ Address of other Contract Service -----------------------------------------------------------//\r\n\r\n    // Address of Organization che gestisce gli utenti\r\n    address private retailerOrg;\r\n    // Address of CheeseBlockStorage \r\n    RetailerCheeseBlockStorage private retailerCheeseBlockStorage;\r\n\r\n    RetailerService private retailerService;\r\n\r\n//------------------------------------------------------------------------ Event of Service  -----------------------------------------------------------//\r\n\r\n    // Eventi per notificare l'aggiunta di una Partita di Latte\r\n    event RetailerCheeseBlockAdded(address indexed userAddress,string message,uint256 id, string expirationDate, uint256 quantity);\r\n    // Evento per notificare che un CheeseBlock  stato eliminato \r\n    event RetailerCheeseBlockDeleted(address indexed userAddress, string message);\r\n    // Evento per notificare che un CheeseBlock  stato Editato\r\n    event RetailerCheeseBlockEdited(address indexed userAddress,string message, uint256 quantity);\r\n\r\n//------------------------------------------------------------------------ Constructor of other Contract Service -----------------------------------------------------------//\r\n\r\n    constructor(address _retailerCheeseBlockStorage, address _retailerService) {\r\n        retailerCheeseBlockStorage = RetailerCheeseBlockStorage(_retailerCheeseBlockStorage);\r\n        retailerService = RetailerService(_retailerService);\r\n        retailerOrg = msg.sender;\r\n    }\r\n\r\n//------------------------------------------------------------------------ Modifier Logic of Contract Service -----------------------------------------------------------//\r\n\r\n    modifier checkAddress(address caller){\r\n        \r\n        require(caller!=address(0),\"Address value is 0!\");\r\n        require(caller!=address(retailerCheeseBlockStorage),\"Address is retailerCheeseBlockStorage!\");\r\n        require(caller!=address(retailerService),\"Address is RetailerService!\");\r\n        require(caller!=address(retailerOrg),\"Address is Organization!\");\r\n        _;\r\n    }\r\n\r\n//------------------------------------------------------------------------ Business Logic of Contract Service -----------------------------------------------------------//\r\n\r\n    // Prodotti Acquistati devono essere visualizzati solo dal Retailer che li detiene \r\n    // TODO : Controllo del msg.sender sulle funzioni di GET \r\n\r\n\r\n    /**\r\n    * Tale funzione viene chiamata dal TransactionManager per inserire il CheeseBlock venduto dal MilkHub al Retailer \r\n    * I controlli vengono fatti tutti all'interno del TransactionManager per la verifica dell'esistenza dei due interessati \r\n    * - Ammettiamo che i controlli sul prodotto vengono gi fatti a monte \r\n    * - verifichiamo che il Retailer e il MilkHub esistono \r\n    * - verifichiamo che il CheeseBlock associato al MilkHub esiste \r\n    * - Aggiungiamo questi dati all'interno del Inventory \r\n    */\r\n    function addCheeseBlock(\r\n            \r\n            address _walletCheeseProducer,\r\n            address _walletRetailer,\r\n            uint256 _id_CheeseBlock,\r\n            string memory _dop,\r\n            uint256 _quantity\r\n\r\n        ) external checkAddress(_walletRetailer) checkAddress(_walletCheeseProducer) {\r\n        \r\n        // Verifico che Retailer e MilkHub address non sono identici\r\n        require(address(_walletRetailer)!=address(_walletCheeseProducer),\"Address uguali Retailer e MilkHub!\");\r\n\r\n        // Verfico che il Retailer  presente \r\n        require(retailerService.isUserPresent(_walletRetailer), \"Utente non trovato!\");\r\n\r\n        // Aggiungo il CheeseBlock all'interno dell'Inventario del Retailer \r\n        (uint256 id_CheeseBlock_Acquistato, string memory _dopCheese,uint256 quantity) = retailerCheeseBlockStorage.addCheeseBlock(_walletRetailer, _walletCheeseProducer, _id_CheeseBlock, _dop, _quantity);\r\n\r\n        // Invio dell'Evento \r\n        emit RetailerCheeseBlockAdded(_walletRetailer,\"CheeseBlock Acquistato!\", id_CheeseBlock_Acquistato ,  _dopCheese, quantity);\r\n    }\r\n\r\n    \r\n    //TODO : Controllo sull'owner del CheeseBlock Acquistato \r\n    function getCheeseBlock(uint256 _id_CheeseBlockAcquistato) external view checkAddress(msg.sender) returns (uint256, address, string memory, uint256) {\r\n        \r\n        address _walletRetailer = msg.sender;\r\n\r\n        require(retailerService.isUserPresent(_walletRetailer), \"Utente non trovato!\");\r\n\r\n        require(this.isCheeseBlockAcquistataPresent(_walletRetailer,_id_CheeseBlockAcquistato),\"Prodotto non Presente!\");\r\n\r\n        return retailerCheeseBlockStorage.getCheeseBlock(_walletRetailer, _id_CheeseBlockAcquistato);\r\n    }\r\n\r\n\r\n    \r\n    function getDop(address _walletRetailer, uint256 _id_CheeseBlockAcquistato) external view checkAddress(msg.sender) returns(string memory) {\r\n        \r\n        require(retailerService.isUserPresent(_walletRetailer), \"Utente non trovato!\");\r\n\r\n        require(this.isCheeseBlockAcquistataPresent(_walletRetailer,_id_CheeseBlockAcquistato),\"Prodotto non Presente!\");\r\n        \r\n        return retailerCheeseBlockStorage.getDop(_walletRetailer,_id_CheeseBlockAcquistato);        \r\n    }\r\n\r\n    \r\n    function getQuantity(address _walletRetailer, uint256 _id_CheeseBlockAcquistato) external view checkAddress(msg.sender) returns(uint256) {\r\n        \r\n        require(retailerService.isUserPresent(_walletRetailer), \"Utente non trovato!\");\r\n\r\n        require(this.isCheeseBlockAcquistataPresent(_walletRetailer,_id_CheeseBlockAcquistato),\"Prodotto non Presente!\");\r\n        \r\n        return retailerCheeseBlockStorage.getQuantity(_walletRetailer,_id_CheeseBlockAcquistato);        \r\n    }\r\n\r\n    \r\n    function getWalletCheeseProducer(address _walletRetailer, uint256 _id_CheeseBlockAcquistato) external view checkAddress(msg.sender) returns(address) {\r\n        \r\n        require(retailerService.isUserPresent(_walletRetailer), \"Utente non trovato!\");\r\n\r\n        require(this.isCheeseBlockAcquistataPresent(_walletRetailer,_id_CheeseBlockAcquistato),\"Prodotto non Presente!\");\r\n        \r\n        return retailerCheeseBlockStorage.getWalletCheeseProducer(_walletRetailer,_id_CheeseBlockAcquistato);        \r\n    }\r\n\r\n    /**\r\n    * Verifica che il CheeseBlock  presente all'interno dell'inventario \r\n    * - Verifica che l'id non sia nullo e che sia maggiore di 0 e che coincida con l'elemento \r\n    */\r\n    function isCheeseBlockAcquistataPresent(address _walletRetailer, uint256 _id_CheeseBlockAcquistato) external view checkAddress(_walletRetailer)  returns (bool){\r\n        \r\n        require(retailerService.isUserPresent(_walletRetailer),\"Utente non presente!\");\r\n\r\n        return retailerCheeseBlockStorage.isCheesePresent(_walletRetailer, _id_CheeseBlockAcquistato);\r\n    }\r\n\r\n\r\n\r\n//-------------------------------------------------------------------- Set Function ------------------------------------------------------------------------//\r\n\r\n    /**\r\n    * \r\n    * - Decremento della quantit del CheeseBlockAcquistato per la trasformazione in Cheese \r\n    */\r\n    function updateCheeseBlockQuantity(address walletRetailer, uint256 _id_CheeseBlock, uint256 _quantity) external checkAddress(walletRetailer) {\r\n\r\n        require(retailerService.isUserPresent(walletRetailer), \"User is not present!\");\r\n\r\n        require(retailerCheeseBlockStorage.isCheesePresent(walletRetailer, _id_CheeseBlock),\"CheeseBlock not Present!\");\r\n\r\n        retailerCheeseBlockStorage.updateCheeseQuantity(walletRetailer, _id_CheeseBlock, _quantity);\r\n\r\n        emit RetailerCheeseBlockEdited(walletRetailer,\"CheeseBlock edited!\", _quantity);\r\n    }\r\n\r\n\r\n\r\n\r\n// -------------------------------------------------- Change Address Function Contract Service ---------------------------------------------------//\r\n\r\n\r\n    // TODO: insert modifier onlyOrg(address sender) {}\r\n    function changeRetailerCheeseBlockStorage(address _retailerCheeseBlockStorage)external {\r\n        require(msg.sender == retailerOrg,\"Address is not the organization\");\r\n        retailerCheeseBlockStorage = RetailerCheeseBlockStorage(_retailerCheeseBlockStorage);\r\n    }\r\n\r\n    // TODO: insert modifier onlyOrg(address sender) {}\r\n    function changeRetailerService(address _retailerService) external {\r\n        retailerService = RetailerService(_retailerService);\r\n    }\r\n\r\n}",
  "sourcePath": "/home/udm-root/Filiera-Token-Deploy/contracts/Actor/Retailer-smart-contract/inventory/RetailerCheeseBlockService.sol",
  "compiler": {
    "name": "solc",
    "version": "0.8.24+commit.e11b9ed9.Emscripten.clang"
  },
  "schemaVersion": "3.4.16",
  "updatedAt": "2024-02-27T19:47:26.646Z",
  "devdoc": {
    "kind": "dev",
    "methods": {},
    "version": 1
  },
  "userdoc": {
    "kind": "user",
    "methods": {
      "addCheeseBlock(address,address,uint256,string,uint256)": {
        "notice": "Tale funzione viene chiamata dal TransactionManager per inserire il CheeseBlock venduto dal MilkHub al Retailer  I controlli vengono fatti tutti all'interno del TransactionManager per la verifica dell'esistenza dei due interessati  - Ammettiamo che i controlli sul prodotto vengono gi fatti a monte  - verifichiamo che il Retailer e il MilkHub esistono  - verifichiamo che il CheeseBlock associato al MilkHub esiste  - Aggiungiamo questi dati all'interno del Inventory "
      },
      "isCheeseBlockAcquistataPresent(address,uint256)": {
        "notice": "Verifica che il CheeseBlock  presente all'interno dell'inventario  - Verifica che l'id non sia nullo e che sia maggiore di 0 e che coincida con l'elemento "
      },
      "updateCheeseBlockQuantity(address,uint256,uint256)": {
        "notice": " - Decremento della quantit del CheeseBlockAcquistato per la trasformazione in Cheese "
      }
    },
    "version": 1
  }
}