{
  "contractName": "RetailerInventoryService",
  "abi": [
    {
      "inputs": [
        {
          "internalType": "address",
          "name": "_retailerInventoryStorage",
          "type": "address"
        },
        {
          "internalType": "address",
          "name": "_retailerService",
          "type": "address"
        },
        {
          "internalType": "address",
          "name": "_retailerBuyerService",
          "type": "address"
        },
        {
          "internalType": "address",
          "name": "_accessControlProduct",
          "type": "address"
        }
      ],
      "stateMutability": "nonpayable",
      "type": "constructor"
    },
    {
      "anonymous": false,
      "inputs": [
        {
          "indexed": true,
          "internalType": "address",
          "name": "userAddress",
          "type": "address"
        },
        {
          "indexed": false,
          "internalType": "string",
          "name": "message",
          "type": "string"
        },
        {
          "indexed": false,
          "internalType": "uint256",
          "name": "id",
          "type": "uint256"
        },
        {
          "indexed": false,
          "internalType": "uint256",
          "name": "price",
          "type": "uint256"
        },
        {
          "indexed": false,
          "internalType": "uint256",
          "name": "weight",
          "type": "uint256"
        }
      ],
      "name": "CheesePieceAdded",
      "type": "event"
    },
    {
      "anonymous": false,
      "inputs": [
        {
          "indexed": true,
          "internalType": "address",
          "name": "userAddress",
          "type": "address"
        },
        {
          "indexed": false,
          "internalType": "string",
          "name": "message",
          "type": "string"
        },
        {
          "indexed": false,
          "internalType": "uint256",
          "name": "_id",
          "type": "uint256"
        }
      ],
      "name": "CheesePieceDeleted",
      "type": "event"
    },
    {
      "anonymous": false,
      "inputs": [
        {
          "indexed": true,
          "internalType": "address",
          "name": "userAddress",
          "type": "address"
        },
        {
          "indexed": false,
          "internalType": "string",
          "name": "message",
          "type": "string"
        },
        {
          "indexed": false,
          "internalType": "uint256",
          "name": "weight",
          "type": "uint256"
        }
      ],
      "name": "CheesePieceEdited",
      "type": "event"
    },
    {
      "inputs": [
        {
          "internalType": "address",
          "name": "walletRetailer",
          "type": "address"
        },
        {
          "internalType": "uint256",
          "name": "price",
          "type": "uint256"
        },
        {
          "internalType": "uint256",
          "name": "weight",
          "type": "uint256"
        }
      ],
      "name": "addCheesePiece",
      "outputs": [],
      "stateMutability": "nonpayable",
      "type": "function"
    },
    {
      "inputs": [
        {
          "internalType": "uint256",
          "name": "idCheesePiece",
          "type": "uint256"
        },
        {
          "internalType": "address",
          "name": "walletRetailer",
          "type": "address"
        }
      ],
      "name": "getCheesePiece",
      "outputs": [
        {
          "internalType": "uint256",
          "name": "",
          "type": "uint256"
        },
        {
          "internalType": "uint256",
          "name": "",
          "type": "uint256"
        },
        {
          "internalType": "uint256",
          "name": "",
          "type": "uint256"
        }
      ],
      "stateMutability": "view",
      "type": "function"
    },
    {
      "inputs": [
        {
          "internalType": "uint256",
          "name": "id",
          "type": "uint256"
        },
        {
          "internalType": "address",
          "name": "walletRetailer",
          "type": "address"
        }
      ],
      "name": "deleteCheesePiece",
      "outputs": [
        {
          "internalType": "bool",
          "name": "",
          "type": "bool"
        }
      ],
      "stateMutability": "nonpayable",
      "type": "function"
    },
    {
      "inputs": [
        {
          "internalType": "address",
          "name": "walletRetailer",
          "type": "address"
        },
        {
          "internalType": "uint256",
          "name": "idCheeseBlock",
          "type": "uint256"
        },
        {
          "internalType": "uint256",
          "name": "quantityToTransform",
          "type": "uint256"
        },
        {
          "internalType": "uint256",
          "name": "price",
          "type": "uint256"
        }
      ],
      "name": "transformCheeseBlock",
      "outputs": [],
      "stateMutability": "nonpayable",
      "type": "function"
    },
    {
      "inputs": [
        {
          "internalType": "address",
          "name": "walletRetailer",
          "type": "address"
        },
        {
          "internalType": "uint256",
          "name": "id",
          "type": "uint256"
        }
      ],
      "name": "getPrice",
      "outputs": [
        {
          "internalType": "uint256",
          "name": "",
          "type": "uint256"
        }
      ],
      "stateMutability": "view",
      "type": "function"
    },
    {
      "inputs": [
        {
          "internalType": "address",
          "name": "walletRetailer",
          "type": "address"
        },
        {
          "internalType": "uint256",
          "name": "id",
          "type": "uint256"
        }
      ],
      "name": "getWeight",
      "outputs": [
        {
          "internalType": "uint256",
          "name": "",
          "type": "uint256"
        }
      ],
      "stateMutability": "view",
      "type": "function"
    },
    {
      "inputs": [
        {
          "internalType": "address",
          "name": "walletRetailer",
          "type": "address"
        },
        {
          "internalType": "uint256",
          "name": "idcheesePiece",
          "type": "uint256"
        }
      ],
      "name": "isCheesePiecePresent",
      "outputs": [
        {
          "internalType": "bool",
          "name": "",
          "type": "bool"
        }
      ],
      "stateMutability": "view",
      "type": "function"
    },
    {
      "inputs": [
        {
          "internalType": "address",
          "name": "walletRetailer",
          "type": "address"
        }
      ],
      "name": "getUserCheesePieceIds",
      "outputs": [
        {
          "internalType": "uint256[]",
          "name": "",
          "type": "uint256[]"
        }
      ],
      "stateMutability": "view",
      "type": "function"
    },
    {
      "inputs": [
        {
          "internalType": "address",
          "name": "walletConsumer",
          "type": "address"
        }
      ],
      "name": "getGlobalCheesePieceIds",
      "outputs": [
        {
          "internalType": "uint256[]",
          "name": "",
          "type": "uint256[]"
        }
      ],
      "stateMutability": "view",
      "type": "function"
    },
    {
      "inputs": [
        {
          "internalType": "address",
          "name": "onwerCheesePiece",
          "type": "address"
        },
        {
          "internalType": "uint256",
          "name": "id",
          "type": "uint256"
        },
        {
          "internalType": "uint256",
          "name": "quantity",
          "type": "uint256"
        }
      ],
      "name": "updateWeight",
      "outputs": [],
      "stateMutability": "nonpayable",
      "type": "function"
    }
  ],
  "bytecode": "0x60806040523480156200001157600080fd5b50604051620032ea380380620032ea8339818101604052810190620000379190620001ef565b83600160006101000a81548173ffffffffffffffffffffffffffffffffffffffff021916908373ffffffffffffffffffffffffffffffffffffffff16021790555082600260006101000a81548173ffffffffffffffffffffffffffffffffffffffff021916908373ffffffffffffffffffffffffffffffffffffffff16021790555081600360006101000a81548173ffffffffffffffffffffffffffffffffffffffff021916908373ffffffffffffffffffffffffffffffffffffffff16021790555080600460006101000a81548173ffffffffffffffffffffffffffffffffffffffff021916908373ffffffffffffffffffffffffffffffffffffffff160217905550336000806101000a81548173ffffffffffffffffffffffffffffffffffffffff021916908373ffffffffffffffffffffffffffffffffffffffff1602179055505050505062000261565b600080fd5b600073ffffffffffffffffffffffffffffffffffffffff82169050919050565b6000620001b7826200018a565b9050919050565b620001c981620001aa565b8114620001d557600080fd5b50565b600081519050620001e981620001be565b92915050565b600080600080608085870312156200020c576200020b62000185565b5b60006200021c87828801620001d8565b94505060206200022f87828801620001d8565b93505060406200024287828801620001d8565b92505060606200025587828801620001d8565b91505092959194509250565b61307980620002716000396000f3fe608060405234801561001057600080fd5b506004361061009e5760003560e01c80639bc7c21c116100665780639bc7c21c14610159578063ab801b9b14610189578063afd47d3e146101b9578063bcebbeb3146101e9578063c7d51a99146102195761009e565b80631e5844b6146100a3578063449e815d146100bf5780635e523adb146100ef57806369e42c791461010b5780637c306a4f14610127575b600080fd5b6100bd60048036038101906100b891906122a5565b610249565b005b6100d960048036038101906100d4919061230c565b6105fe565b6040516100e6919061235b565b60405180910390f35b61010960048036038101906101049190612376565b61083c565b005b61012560048036038101906101209190612376565b610cd5565b005b610141600480360381019061013c91906123c9565b6110d6565b60405161015093929190612409565b60405180910390f35b610173600480360381019061016e919061230c565b61153b565b604051610180919061245b565b60405180910390f35b6101a3600480360381019061019e9190612476565b611802565b6040516101b09190612561565b60405180910390f35b6101d360048036038101906101ce919061230c565b611ba6565b6040516101e0919061235b565b60405180910390f35b61020360048036038101906101fe91906123c9565b611de4565b604051610210919061245b565b60405180910390f35b610233600480360381019061022e9190612476565b612083565b6040516102409190612561565b60405180910390f35b600360009054906101000a900473ffffffffffffffffffffffffffffffffffffffff1673ffffffffffffffffffffffffffffffffffffffff16634f0205bf85856040518363ffffffff1660e01b81526004016102a6929190612592565b602060405180830381865afa1580156102c3573d6000803e3d6000fd5b505050506040513d601f19601f820116820180604052508101906102e791906125e7565b610326576040517f08c379a000000000000000000000000000000000000000000000000000000000815260040161031d90612671565b60405180910390fd5b600382111561036a576040517f08c379a000000000000000000000000000000000000000000000000000000000815260040161036190612703565b60405180910390fd5b600360009054906101000a900473ffffffffffffffffffffffffffffffffffffffff1673ffffffffffffffffffffffffffffffffffffffff16631e073fcf85856040518363ffffffff1660e01b81526004016103c7929190612592565b602060405180830381865afa1580156103e4573d6000803e3d6000fd5b505050506040513d601f19601f820116820180604052508101906104089190612738565b82111561044a576040517f08c379a000000000000000000000000000000000000000000000000000000000815260040161044190612703565b60405180910390fd5b600082600360009054906101000a900473ffffffffffffffffffffffffffffffffffffffff1673ffffffffffffffffffffffffffffffffffffffff16631e073fcf87876040518363ffffffff1660e01b81526004016104aa929190612592565b602060405180830381865afa1580156104c7573d6000803e3d6000fd5b505050506040513d601f19601f820116820180604052508101906104eb9190612738565b6104f59190612794565b9050600360009054906101000a900473ffffffffffffffffffffffffffffffffffffffff1673ffffffffffffffffffffffffffffffffffffffff166377e94d9e8686846040518463ffffffff1660e01b8152600401610556939291906127c8565b600060405180830381600087803b15801561057057600080fd5b505af1158015610584573d6000803e3d6000fd5b505050503073ffffffffffffffffffffffffffffffffffffffff166369e42c798684866040518463ffffffff1660e01b81526004016105c5939291906127c8565b600060405180830381600087803b1580156105df57600080fd5b505af11580156105f3573d6000803e3d6000fd5b505050505050505050565b6000600260009054906101000a900473ffffffffffffffffffffffffffffffffffffffff1673ffffffffffffffffffffffffffffffffffffffff1663a5578807846040518263ffffffff1660e01b815260040161065b91906127ff565b602060405180830381865afa158015610678573d6000803e3d6000fd5b505050506040513d601f19601f8201168201806040525081019061069c91906125e7565b6106db576040517f08c379a00000000000000000000000000000000000000000000000000000000081526004016106d290612866565b60405180910390fd5b3073ffffffffffffffffffffffffffffffffffffffff16639bc7c21c84846040518363ffffffff1660e01b8152600401610716929190612592565b602060405180830381865afa158015610733573d6000803e3d6000fd5b505050506040513d601f19601f8201168201806040525081019061075791906125e7565b610796576040517f08c379a000000000000000000000000000000000000000000000000000000000815260040161078d906128d2565b60405180910390fd5b600160009054906101000a900473ffffffffffffffffffffffffffffffffffffffff1673ffffffffffffffffffffffffffffffffffffffff1663449e815d84846040518363ffffffff1660e01b81526004016107f3929190612592565b602060405180830381865afa158015610810573d6000803e3d6000fd5b505050506040513d601f19601f820116820180604052508101906108349190612738565b905092915050565b82600073ffffffffffffffffffffffffffffffffffffffff168173ffffffffffffffffffffffffffffffffffffffff16036108ac576040517f08c379a00000000000000000000000000000000000000000000000000000000081526004016108a39061293e565b60405180910390fd5b60008054906101000a900473ffffffffffffffffffffffffffffffffffffffff1673ffffffffffffffffffffffffffffffffffffffff168173ffffffffffffffffffffffffffffffffffffffff160361093a576040517f08c379a0000000000000000000000000000000000000000000000000000000008152600401610931906129aa565b60405180910390fd5b600160009054906101000a900473ffffffffffffffffffffffffffffffffffffffff1673ffffffffffffffffffffffffffffffffffffffff168173ffffffffffffffffffffffffffffffffffffffff16036109ca576040517f08c379a00000000000000000000000000000000000000000000000000000000081526004016109c190612a3c565b60405180910390fd5b600260009054906101000a900473ffffffffffffffffffffffffffffffffffffffff1673ffffffffffffffffffffffffffffffffffffffff168173ffffffffffffffffffffffffffffffffffffffff1603610a5a576040517f08c379a0000000000000000000000000000000000000000000000000000000008152600401610a5190612aa8565b60405180910390fd5b600260009054906101000a900473ffffffffffffffffffffffffffffffffffffffff1673ffffffffffffffffffffffffffffffffffffffff1663a5578807856040518263ffffffff1660e01b8152600401610ab591906127ff565b602060405180830381865afa158015610ad2573d6000803e3d6000fd5b505050506040513d601f19601f82011682018060405250810190610af691906125e7565b610b35576040517f08c379a0000000000000000000000000000000000000000000000000000000008152600401610b2c90612866565b60405180910390fd5b3073ffffffffffffffffffffffffffffffffffffffff16639bc7c21c85856040518363ffffffff1660e01b8152600401610b70929190612592565b602060405180830381865afa158015610b8d573d6000803e3d6000fd5b505050506040513d601f19601f82011682018060405250810190610bb191906125e7565b610bf0576040517f08c379a0000000000000000000000000000000000000000000000000000000008152600401610be790612b14565b60405180910390fd5b600160009054906101000a900473ffffffffffffffffffffffffffffffffffffffff1673ffffffffffffffffffffffffffffffffffffffff16635e523adb8585856040518463ffffffff1660e01b8152600401610c4f939291906127c8565b600060405180830381600087803b158015610c6957600080fd5b505af1158015610c7d573d6000803e3d6000fd5b505050508373ffffffffffffffffffffffffffffffffffffffff167fe29f05fb12683b081566145ab306215d06172a3c7d0820d38b0bd24eda3f14e983604051610cc79190612b80565b60405180910390a250505050565b82600073ffffffffffffffffffffffffffffffffffffffff168173ffffffffffffffffffffffffffffffffffffffff1603610d45576040517f08c379a0000000000000000000000000000000000000000000000000000000008152600401610d3c9061293e565b60405180910390fd5b60008054906101000a900473ffffffffffffffffffffffffffffffffffffffff1673ffffffffffffffffffffffffffffffffffffffff168173ffffffffffffffffffffffffffffffffffffffff1603610dd3576040517f08c379a0000000000000000000000000000000000000000000000000000000008152600401610dca906129aa565b60405180910390fd5b600160009054906101000a900473ffffffffffffffffffffffffffffffffffffffff1673ffffffffffffffffffffffffffffffffffffffff168173ffffffffffffffffffffffffffffffffffffffff1603610e63576040517f08c379a0000000000000000000000000000000000000000000000000000000008152600401610e5a90612a3c565b60405180910390fd5b600260009054906101000a900473ffffffffffffffffffffffffffffffffffffffff1673ffffffffffffffffffffffffffffffffffffffff168173ffffffffffffffffffffffffffffffffffffffff1603610ef3576040517f08c379a0000000000000000000000000000000000000000000000000000000008152600401610eea90612aa8565b60405180910390fd5b600260009054906101000a900473ffffffffffffffffffffffffffffffffffffffff1673ffffffffffffffffffffffffffffffffffffffff1663a5578807856040518263ffffffff1660e01b8152600401610f4e91906127ff565b602060405180830381865afa158015610f6b573d6000803e3d6000fd5b505050506040513d601f19601f82011682018060405250810190610f8f91906125e7565b610fce576040517f08c379a0000000000000000000000000000000000000000000000000000000008152600401610fc590612bfa565b60405180910390fd5b6000806000600160009054906101000a900473ffffffffffffffffffffffffffffffffffffffff1673ffffffffffffffffffffffffffffffffffffffff166369e42c798888886040518463ffffffff1660e01b8152600401611032939291906127c8565b6060604051808303816000875af1158015611051573d6000803e3d6000fd5b505050506040513d601f19601f820116820180604052508101906110759190612c1a565b9250925092508673ffffffffffffffffffffffffffffffffffffffff167f926e56da9e6738c8b8b950f764f59ba1c5c739d495778855b6b05f9b6d715d238484846040516110c593929190612cdf565b60405180910390a250505050505050565b600080600083600073ffffffffffffffffffffffffffffffffffffffff168173ffffffffffffffffffffffffffffffffffffffff160361114b576040517f08c379a00000000000000000000000000000000000000000000000000000000081526004016111429061293e565b60405180910390fd5b60008054906101000a900473ffffffffffffffffffffffffffffffffffffffff1673ffffffffffffffffffffffffffffffffffffffff168173ffffffffffffffffffffffffffffffffffffffff16036111d9576040517f08c379a00000000000000000000000000000000000000000000000000000000081526004016111d0906129aa565b60405180910390fd5b600160009054906101000a900473ffffffffffffffffffffffffffffffffffffffff1673ffffffffffffffffffffffffffffffffffffffff168173ffffffffffffffffffffffffffffffffffffffff1603611269576040517f08c379a000000000000000000000000000000000000000000000000000000000815260040161126090612a3c565b60405180910390fd5b600260009054906101000a900473ffffffffffffffffffffffffffffffffffffffff1673ffffffffffffffffffffffffffffffffffffffff168173ffffffffffffffffffffffffffffffffffffffff16036112f9576040517f08c379a00000000000000000000000000000000000000000000000000000000081526004016112f090612aa8565b60405180910390fd5b600260009054906101000a900473ffffffffffffffffffffffffffffffffffffffff1673ffffffffffffffffffffffffffffffffffffffff1663a5578807866040518263ffffffff1660e01b815260040161135491906127ff565b602060405180830381865afa158015611371573d6000803e3d6000fd5b505050506040513d601f19601f8201168201806040525081019061139591906125e7565b6113d4576040517f08c379a00000000000000000000000000000000000000000000000000000000081526004016113cb90612bfa565b60405180910390fd5b3073ffffffffffffffffffffffffffffffffffffffff16639bc7c21c86886040518363ffffffff1660e01b815260040161140f929190612592565b602060405180830381865afa15801561142c573d6000803e3d6000fd5b505050506040513d601f19601f8201168201806040525081019061145091906125e7565b61148f576040517f08c379a000000000000000000000000000000000000000000000000000000000815260040161148690612d9b565b60405180910390fd5b600160009054906101000a900473ffffffffffffffffffffffffffffffffffffffff1673ffffffffffffffffffffffffffffffffffffffff16630b7aa47386886040518363ffffffff1660e01b81526004016114ec929190612592565b606060405180830381865afa158015611509573d6000803e3d6000fd5b505050506040513d601f19601f8201168201806040525081019061152d9190612c1a565b935093509350509250925092565b600082600073ffffffffffffffffffffffffffffffffffffffff168173ffffffffffffffffffffffffffffffffffffffff16036115ad576040517f08c379a00000000000000000000000000000000000000000000000000000000081526004016115a49061293e565b60405180910390fd5b60008054906101000a900473ffffffffffffffffffffffffffffffffffffffff1673ffffffffffffffffffffffffffffffffffffffff168173ffffffffffffffffffffffffffffffffffffffff160361163b576040517f08c379a0000000000000000000000000000000000000000000000000000000008152600401611632906129aa565b60405180910390fd5b600160009054906101000a900473ffffffffffffffffffffffffffffffffffffffff1673ffffffffffffffffffffffffffffffffffffffff168173ffffffffffffffffffffffffffffffffffffffff16036116cb576040517f08c379a00000000000000000000000000000000000000000000000000000000081526004016116c290612a3c565b60405180910390fd5b600260009054906101000a900473ffffffffffffffffffffffffffffffffffffffff1673ffffffffffffffffffffffffffffffffffffffff168173ffffffffffffffffffffffffffffffffffffffff160361175b576040517f08c379a000000000000000000000000000000000000000000000000000000000815260040161175290612aa8565b60405180910390fd5b600160009054906101000a900473ffffffffffffffffffffffffffffffffffffffff1673ffffffffffffffffffffffffffffffffffffffff16639bc7c21c85856040518363ffffffff1660e01b81526004016117b8929190612592565b602060405180830381865afa1580156117d5573d6000803e3d6000fd5b505050506040513d601f19601f820116820180604052508101906117f991906125e7565b91505092915050565b606081600073ffffffffffffffffffffffffffffffffffffffff168173ffffffffffffffffffffffffffffffffffffffff1603611874576040517f08c379a000000000000000000000000000000000000000000000000000000000815260040161186b9061293e565b60405180910390fd5b60008054906101000a900473ffffffffffffffffffffffffffffffffffffffff1673ffffffffffffffffffffffffffffffffffffffff168173ffffffffffffffffffffffffffffffffffffffff1603611902576040517f08c379a00000000000000000000000000000000000000000000000000000000081526004016118f9906129aa565b60405180910390fd5b600160009054906101000a900473ffffffffffffffffffffffffffffffffffffffff1673ffffffffffffffffffffffffffffffffffffffff168173ffffffffffffffffffffffffffffffffffffffff1603611992576040517f08c379a000000000000000000000000000000000000000000000000000000000815260040161198990612a3c565b60405180910390fd5b600260009054906101000a900473ffffffffffffffffffffffffffffffffffffffff1673ffffffffffffffffffffffffffffffffffffffff168173ffffffffffffffffffffffffffffffffffffffff1603611a22576040517f08c379a0000000000000000000000000000000000000000000000000000000008152600401611a1990612aa8565b60405180910390fd5b600260009054906101000a900473ffffffffffffffffffffffffffffffffffffffff1673ffffffffffffffffffffffffffffffffffffffff1663a5578807846040518263ffffffff1660e01b8152600401611a7d91906127ff565b602060405180830381865afa158015611a9a573d6000803e3d6000fd5b505050506040513d601f19601f82011682018060405250810190611abe91906125e7565b611afd576040517f08c379a0000000000000000000000000000000000000000000000000000000008152600401611af490612866565b60405180910390fd5b600160009054906101000a900473ffffffffffffffffffffffffffffffffffffffff1673ffffffffffffffffffffffffffffffffffffffff1663ab801b9b846040518263ffffffff1660e01b8152600401611b5891906127ff565b600060405180830381865afa158015611b75573d6000803e3d6000fd5b505050506040513d6000823e3d601f19601f82011682018060405250810190611b9e9190612f14565b915050919050565b6000600260009054906101000a900473ffffffffffffffffffffffffffffffffffffffff1673ffffffffffffffffffffffffffffffffffffffff1663a5578807846040518263ffffffff1660e01b8152600401611c0391906127ff565b602060405180830381865afa158015611c20573d6000803e3d6000fd5b505050506040513d601f19601f82011682018060405250810190611c4491906125e7565b611c83576040517f08c379a0000000000000000000000000000000000000000000000000000000008152600401611c7a90612866565b60405180910390fd5b3073ffffffffffffffffffffffffffffffffffffffff16639bc7c21c84846040518363ffffffff1660e01b8152600401611cbe929190612592565b602060405180830381865afa158015611cdb573d6000803e3d6000fd5b505050506040513d601f19601f82011682018060405250810190611cff91906125e7565b611d3e576040517f08c379a0000000000000000000000000000000000000000000000000000000008152600401611d35906128d2565b60405180910390fd5b600160009054906101000a900473ffffffffffffffffffffffffffffffffffffffff1673ffffffffffffffffffffffffffffffffffffffff1663afd47d3e84846040518363ffffffff1660e01b8152600401611d9b929190612592565b602060405180830381865afa158015611db8573d6000803e3d6000fd5b505050506040513d601f19601f82011682018060405250810190611ddc9190612738565b905092915050565b6000600260009054906101000a900473ffffffffffffffffffffffffffffffffffffffff1673ffffffffffffffffffffffffffffffffffffffff1663a5578807836040518263ffffffff1660e01b8152600401611e4191906127ff565b602060405180830381865afa158015611e5e573d6000803e3d6000fd5b505050506040513d601f19601f82011682018060405250810190611e8291906125e7565b611ec1576040517f08c379a0000000000000000000000000000000000000000000000000000000008152600401611eb890612866565b60405180910390fd5b3073ffffffffffffffffffffffffffffffffffffffff16639bc7c21c83856040518363ffffffff1660e01b8152600401611efc929190612592565b602060405180830381865afa158015611f19573d6000803e3d6000fd5b505050506040513d601f19601f82011682018060405250810190611f3d91906125e7565b611f7c576040517f08c379a0000000000000000000000000000000000000000000000000000000008152600401611f73906128d2565b60405180910390fd5b600160009054906101000a900473ffffffffffffffffffffffffffffffffffffffff1673ffffffffffffffffffffffffffffffffffffffff1663348b4c5a83856040518363ffffffff1660e01b8152600401611fd9929190612592565b6020604051808303816000875af1158015611ff8573d6000803e3d6000fd5b505050506040513d601f19601f8201168201806040525081019061201c91906125e7565b15612078578173ffffffffffffffffffffffffffffffffffffffff167f58650135e23052fe7c8a90b6a47df85bdce3102d0b3f54492cdb9f2cdbd0cff8846040516120679190612fa9565b60405180910390a26001905061207d565b600090505b92915050565b6060600460009054906101000a900473ffffffffffffffffffffffffffffffffffffffff1673ffffffffffffffffffffffffffffffffffffffff1663d9824c2d836040518263ffffffff1660e01b81526004016120e091906127ff565b602060405180830381865afa1580156120fd573d6000803e3d6000fd5b505050506040513d601f19601f8201168201806040525081019061212191906125e7565b612160576040517f08c379a000000000000000000000000000000000000000000000000000000000815260040161215790613023565b60405180910390fd5b600160009054906101000a900473ffffffffffffffffffffffffffffffffffffffff1673ffffffffffffffffffffffffffffffffffffffff1663536fe44c6040518163ffffffff1660e01b8152600401600060405180830381865afa1580156121cd573d6000803e3d6000fd5b505050506040513d6000823e3d601f19601f820116820180604052508101906121f69190612f14565b9050919050565b6000604051905090565b600080fd5b600080fd5b600073ffffffffffffffffffffffffffffffffffffffff82169050919050565b600061223c82612211565b9050919050565b61224c81612231565b811461225757600080fd5b50565b60008135905061226981612243565b92915050565b6000819050919050565b6122828161226f565b811461228d57600080fd5b50565b60008135905061229f81612279565b92915050565b600080600080608085870312156122bf576122be612207565b5b60006122cd8782880161225a565b94505060206122de87828801612290565b93505060406122ef87828801612290565b925050606061230087828801612290565b91505092959194509250565b6000806040838503121561232357612322612207565b5b60006123318582860161225a565b925050602061234285828601612290565b9150509250929050565b6123558161226f565b82525050565b6000602082019050612370600083018461234c565b92915050565b60008060006060848603121561238f5761238e612207565b5b600061239d8682870161225a565b93505060206123ae86828701612290565b92505060406123bf86828701612290565b9150509250925092565b600080604083850312156123e0576123df612207565b5b60006123ee85828601612290565b92505060206123ff8582860161225a565b9150509250929050565b600060608201905061241e600083018661234c565b61242b602083018561234c565b612438604083018461234c565b949350505050565b60008115159050919050565b61245581612440565b82525050565b6000602082019050612470600083018461244c565b92915050565b60006020828403121561248c5761248b612207565b5b600061249a8482850161225a565b91505092915050565b600081519050919050565b600082825260208201905092915050565b6000819050602082019050919050565b6124d88161226f565b82525050565b60006124ea83836124cf565b60208301905092915050565b6000602082019050919050565b600061250e826124a3565b61251881856124ae565b9350612523836124bf565b8060005b8381101561255457815161253b88826124de565b9750612546836124f6565b925050600181019050612527565b5085935050505092915050565b6000602082019050818103600083015261257b8184612503565b905092915050565b61258c81612231565b82525050565b60006040820190506125a76000830185612583565b6125b4602083018461234c565b9392505050565b6125c481612440565b81146125cf57600080fd5b50565b6000815190506125e1816125bb565b92915050565b6000602082840312156125fd576125fc612207565b5b600061260b848285016125d2565b91505092915050565b600082825260208201905092915050565b7f50726f646f74746f206e6f6e2070726573656e74652100000000000000000000600082015250565b600061265b601683612614565b915061266682612625565b602082019050919050565b6000602082019050818103600083015261268a8161264e565b9050919050565b7f5175616e74697461272064612074726173666f726d617265206e6f6e2076616c60008201527f6964612100000000000000000000000000000000000000000000000000000000602082015250565b60006126ed602483612614565b91506126f882612691565b604082019050919050565b6000602082019050818103600083015261271c816126e0565b9050919050565b60008151905061273281612279565b92915050565b60006020828403121561274e5761274d612207565b5b600061275c84828501612723565b91505092915050565b7f4e487b7100000000000000000000000000000000000000000000000000000000600052601160045260246000fd5b600061279f8261226f565b91506127aa8361226f565b92508282039050818111156127c2576127c1612765565b5b92915050565b60006060820190506127dd6000830186612583565b6127ea602083018561234c565b6127f7604083018461234c565b949350505050565b60006020820190506128146000830184612583565b92915050565b7f55736572206973206e6f742070726573656e7421000000000000000000000000600082015250565b6000612850601483612614565b915061285b8261281a565b602082019050919050565b6000602082019050818103600083015261287f81612843565b9050919050565b7f4368656573655069656365206e6f742050726573656e74210000000000000000600082015250565b60006128bc601883612614565b91506128c782612886565b602082019050919050565b600060208201905081810360008301526128eb816128af565b9050919050565b7f416464726573732056616c7565206973205a65726f2100000000000000000000600082015250565b6000612928601683612614565b9150612933826128f2565b602082019050919050565b600060208201905081810360008301526129578161291b565b9050919050565b7f41646472657373206e6f742076616c6964210000000000000000000000000000600082015250565b6000612994601283612614565b915061299f8261295e565b602082019050919050565b600060208201905081810360008301526129c381612987565b9050919050565b7f41646472657373206e6f742076616c6964206f6620496e76656e746f7279205360008201527f746f726167650000000000000000000000000000000000000000000000000000602082015250565b6000612a26602683612614565b9150612a31826129ca565b604082019050919050565b60006020820190508181036000830152612a5581612a19565b9050919050565b7f41646472657373206e6f742076616c6964206f66205365727669636500000000600082015250565b6000612a92601c83612614565b9150612a9d82612a5c565b602082019050919050565b60006020820190508181036000830152612ac181612a85565b9050919050565b7f4d696c6b4261746368206e6f742050726573656e742100000000000000000000600082015250565b6000612afe601683612614565b9150612b0982612ac8565b602082019050919050565b60006020820190508181036000830152612b2d81612af1565b9050919050565b7f4d696c6b42617463682065646974656421000000000000000000000000000000600082015250565b6000612b6a601183612614565b9150612b7582612b34565b602082019050919050565b60006040820190508181036000830152612b9981612b5d565b9050612ba8602083018461234c565b92915050565b7f55736572206973206e6f742070726573656e7420696e20646174610000000000600082015250565b6000612be4601b83612614565b9150612bef82612bae565b602082019050919050565b60006020820190508181036000830152612c1381612bd7565b9050919050565b600080600060608486031215612c3357612c32612207565b5b6000612c4186828701612723565b9350506020612c5286828701612723565b9250506040612c6386828701612723565b9150509250925092565b7f436865657365426c6f636b20636f6e7665727469746f20636f6e20737563636560008201527f73736f21204563636f20696c206e756f766f2043686565736550696563652100602082015250565b6000612cc9603f83612614565b9150612cd482612c6d565b604082019050919050565b60006080820190508181036000830152612cf881612cbc565b9050612d07602083018661234c565b612d14604083018561234c565b612d21606083018461234c565b949350505050565b7f4368656573655069656365206973206e6f742070726573656e7420696e20646160008201527f7461000000000000000000000000000000000000000000000000000000000000602082015250565b6000612d85602283612614565b9150612d9082612d29565b604082019050919050565b60006020820190508181036000830152612db481612d78565b9050919050565b600080fd5b6000601f19601f8301169050919050565b7f4e487b7100000000000000000000000000000000000000000000000000000000600052604160045260246000fd5b612e0982612dc0565b810181811067ffffffffffffffff82111715612e2857612e27612dd1565b5b80604052505050565b6000612e3b6121fd565b9050612e478282612e00565b919050565b600067ffffffffffffffff821115612e6757612e66612dd1565b5b602082029050602081019050919050565b600080fd5b6000612e90612e8b84612e4c565b612e31565b90508083825260208201905060208402830185811115612eb357612eb2612e78565b5b835b81811015612edc5780612ec88882612723565b845260208401935050602081019050612eb5565b5050509392505050565b600082601f830112612efb57612efa612dbb565b5b8151612f0b848260208601612e7d565b91505092915050565b600060208284031215612f2a57612f29612207565b5b600082015167ffffffffffffffff811115612f4857612f4761220c565b5b612f5484828501612ee6565b91505092915050565b7f436865657365506965636520652720737461746f20656c696d696e61746f0000600082015250565b6000612f93601e83612614565b9150612f9e82612f5d565b602082019050919050565b60006040820190508181036000830152612fc281612f86565b9050612fd1602083018461234c565b92915050565b7f55736572204e6f7420417574686f72697a656421000000000000000000000000600082015250565b600061300d601483612614565b915061301882612fd7565b602082019050919050565b6000602082019050818103600083015261303c81613000565b905091905056fea2646970667358221220bde0faf64fc6fa1a8f58847c44029afd8f114dcf591b26bcfd0a6b212c044f1f64736f6c63430008180033",
  "immutableReferences": {},
  "source": "// SPDX-License-Identifier: MIT\npragma solidity ^0.8.21;\n\nimport \"./RetailerInventoryStorage.sol\";\nimport \"../RetailerService.sol\";\nimport \"./RetailerBuyerService.sol\";\n\nimport \"../../../Service/access-control-product/AccessControlProductCheesePiece.sol\";\n\ncontract RetailerInventoryService {\n\n\n//------------------------------------------------------------------------ Address of other Contract Service -----------------------------------------------------------//\n\n    // Address of the organization managing the users\n    address private retailerOrg;\n\n    RetailerInventoryStorage private retailerInventoryStorage;\n\n    RetailerService private retailerService;\n\n    RetailerBuyerService private retailerBuyerService;\n\n    AccessControlProductCheesePiece private accessControlProduct;\n\n\n//------------------------------------------------------------------------ Event of Service  -----------------------------------------------------------//\n\n    event CheesePieceAdded(address indexed userAddress, string message, uint256 id, uint256 price, uint256 weight);\n\n    event CheesePieceDeleted(address indexed userAddress, string message, uint256 _id);\n\n    event CheesePieceEdited(address indexed userAddress, string message, uint256 weight);\n\n//------------------------------------------------------------------------ Modifier Logic of Contract Service -----------------------------------------------------------//\n    modifier checkAddress(address caller) {\n        require(caller != address(0), \"Address Value is Zero!\");\n        require(caller != retailerOrg, \"Address not valid!\");\n        require(caller != address(retailerInventoryStorage), \"Address not valid of Inventory Storage\");\n        require(caller != address(retailerService), \"Address not valid of Service\");\n        _;\n    }\n\n//------------------------------------------------------------------------ Constructor Contract Service -----------------------------------------------------------//\n\n\n    constructor(\n        address _retailerInventoryStorage,\n        address _retailerService,\n        address _retailerBuyerService,\n        address _accessControlProduct\n    ) {\n        retailerInventoryStorage = RetailerInventoryStorage(_retailerInventoryStorage);\n        retailerService = RetailerService(_retailerService);\n        retailerBuyerService = RetailerBuyerService(_retailerBuyerService);\n        accessControlProduct = AccessControlProductCheesePiece(_accessControlProduct);\n        retailerOrg = msg.sender;\n    }\n\n\n//------------------------------------------------------------------------ Business Logic of other Contract Service -----------------------------------------------------------//\n\n\n    function addCheesePiece(\n        address walletRetailer,\n        uint256 price,\n        uint256 weight) external checkAddress(walletRetailer) {\n        require(retailerService.isUserPresent(walletRetailer), \"User is not present in data\");\n\n        (uint256 _idCheesePiece, uint256 _price, uint256 _weight) = retailerInventoryStorage.addCheesePiece(\n            walletRetailer,\n            price,\n            weight\n        );\n\n        emit CheesePieceAdded(walletRetailer, \"CheeseBlock convertito con successo! Ecco il nuovo CheesePiece!\", _idCheesePiece, _price, _weight);\n    }\n\n    function getCheesePiece(uint256 idCheesePiece, address walletRetailer) external view checkAddress(walletRetailer) returns (uint256, uint256, uint256) {\n\n        require(retailerService.isUserPresent(walletRetailer), \"User is not present in data\");\n\n        require(this.isCheesePiecePresent(walletRetailer, idCheesePiece), \"CheesePiece is not present in data\");\n\n        return retailerInventoryStorage.getCheesePiece(walletRetailer, idCheesePiece);\n    }\n\n    function deleteCheesePiece(uint256 id, address walletRetailer) external returns (bool) {\n\n        require(retailerService.isUserPresent(walletRetailer), \"User is not present!\");\n\n        require(this.isCheesePiecePresent(walletRetailer, id), \"CheesePiece not Present!\");\n\n        if (retailerInventoryStorage.deleteCheesePiece(walletRetailer, id)) {\n            emit CheesePieceDeleted(walletRetailer, \"CheesePiece e' stato eliminato\", id);\n            return true;\n        } else {\n            return false;\n        }\n    }\n\n    function transformCheeseBlock(\n        address walletRetailer,\n        uint256 idCheeseBlock,\n        uint256 quantityToTransform,\n        uint256 price) external {\n\n\n            require(retailerBuyerService.isCheeseBlockPresent(walletRetailer, idCheeseBlock), \"Prodotto non presente!\");\n\n            require(quantityToTransform <= 3, \"Quantita' da trasformare non valida!\");\n\n            require(quantityToTransform <= retailerBuyerService.getQuantity(walletRetailer, idCheeseBlock), \"Quantita' da trasformare non valida!\");\n\n            uint256 newQuantity = retailerBuyerService.getQuantity(walletRetailer, idCheeseBlock) - quantityToTransform;\n\n            retailerBuyerService.updateCheeseBlockQuantity(walletRetailer, idCheeseBlock, newQuantity);\n\n            this.addCheesePiece(walletRetailer, price, quantityToTransform);\n    }\n\n\n\n//------------------------------------------------------------------------ Get Function -----------------------------------------------------------//\n\n\n    function getPrice(address walletRetailer, uint256 id) external view returns (uint256) {\n        require(retailerService.isUserPresent(walletRetailer), \"User is not present!\");\n\n        require(this.isCheesePiecePresent(walletRetailer, id), \"CheesePiece not Present!\");\n\n        return retailerInventoryStorage.getPrice(walletRetailer, id);\n    }\n\n    function getWeight(address walletRetailer, uint256 id) external view returns (uint256) {\n        require(retailerService.isUserPresent(walletRetailer), \"User is not present!\");\n\n        require(this.isCheesePiecePresent(walletRetailer, id), \"CheesePiece not Present!\");\n\n        return retailerInventoryStorage.getWeight(walletRetailer, id);\n    }\n\n    function isCheesePiecePresent(address walletRetailer, uint256 idcheesePiece) external view checkAddress(walletRetailer) returns (bool) {\n        return retailerInventoryStorage.isCheesePiecePresent(walletRetailer, idcheesePiece);\n    }\n\n    function getUserCheesePieceIds(address walletRetailer) external checkAddress(walletRetailer) view returns (uint256[] memory) {\n    // Check if exist \n        require(retailerService.isUserPresent(walletRetailer), \"User is not present!\");\n\n        return retailerInventoryStorage.getUserCheesePieceIds(walletRetailer);\n    }\n\n    /*\n        - Recupera tutti i CheesePiece presenti all'interno dell'inventario del Retailer\n        - Verifica che quel Consumer sia autorizzato\n    */\n    function getGlobalCheesePieceIds(address walletConsumer) view external returns (uint256[] memory) {\n        require(accessControlProduct.checkViewCheesePieceProduct(walletConsumer), \"User Not Authorized!\");\n\n        return retailerInventoryStorage.getGlobalCheesePieceIds(); \n    }\n\n\n\n//------------------------------------------------------------------------  Set Function -----------------------------------------------------------//\n\n\n    /**\n    * Decremento della quantit del MilkBatch \n    * Verifica che la quantit sia maggiore di 0 -> altrimenti elimina\n    */\n    function updateWeight(\n        address onwerCheesePiece,\n        uint256 id,\n        uint256 quantity ) external checkAddress(onwerCheesePiece) {\n\n        require(retailerService.isUserPresent(onwerCheesePiece), \"User is not present!\");\n\n        require(this.isCheesePiecePresent(onwerCheesePiece, id),\"MilkBatch not Present!\");\n\n        retailerInventoryStorage.updateWeight(onwerCheesePiece, id, quantity);\n\n        emit CheesePieceEdited(onwerCheesePiece,\"MilkBatch edited!\", quantity);\n    }\n}\n",
  "sourcePath": "/home/leone-pc/Documenti/GitHub/FilieraToken/Filiera-Token-Smart-Contract/contracts/Actor/Retailer-smart-contract/inventory/RetailerInventoryService.sol",
  "compiler": {
    "name": "solc",
    "version": "0.8.24+commit.e11b9ed9.Emscripten.clang"
  },
  "schemaVersion": "3.4.16",
  "updatedAt": "2024-03-04T22:30:18.488Z",
  "devdoc": {
    "kind": "dev",
    "methods": {},
    "version": 1
  },
  "userdoc": {
    "kind": "user",
    "methods": {
      "updateWeight(address,uint256,uint256)": {
        "notice": "Decremento della quantit del MilkBatch  Verifica che la quantit sia maggiore di 0 -> altrimenti elimina"
      }
    },
    "version": 1
  }
}