{
  "contractName": "RetailerInventoryStorage",
  "abi": [
    {
      "inputs": [],
      "stateMutability": "nonpayable",
      "type": "constructor"
    },
    {
      "inputs": [
        {
          "internalType": "address",
          "name": "walletRetailer",
          "type": "address"
        },
        {
          "internalType": "uint256",
          "name": "price",
          "type": "uint256"
        },
        {
          "internalType": "uint256",
          "name": "weight",
          "type": "uint256"
        }
      ],
      "name": "addCheesePiece",
      "outputs": [
        {
          "internalType": "uint256",
          "name": "",
          "type": "uint256"
        },
        {
          "internalType": "uint256",
          "name": "",
          "type": "uint256"
        },
        {
          "internalType": "uint256",
          "name": "",
          "type": "uint256"
        }
      ],
      "stateMutability": "nonpayable",
      "type": "function"
    },
    {
      "inputs": [
        {
          "internalType": "address",
          "name": "walletRetailer",
          "type": "address"
        },
        {
          "internalType": "uint256",
          "name": "id",
          "type": "uint256"
        }
      ],
      "name": "getCheesePiece",
      "outputs": [
        {
          "internalType": "uint256",
          "name": "",
          "type": "uint256"
        },
        {
          "internalType": "uint256",
          "name": "",
          "type": "uint256"
        },
        {
          "internalType": "uint256",
          "name": "",
          "type": "uint256"
        }
      ],
      "stateMutability": "view",
      "type": "function"
    },
    {
      "inputs": [
        {
          "internalType": "address",
          "name": "walletRetailer",
          "type": "address"
        },
        {
          "internalType": "uint256",
          "name": "id",
          "type": "uint256"
        }
      ],
      "name": "deleteCheesePiece",
      "outputs": [
        {
          "internalType": "bool",
          "name": "value",
          "type": "bool"
        }
      ],
      "stateMutability": "nonpayable",
      "type": "function"
    },
    {
      "inputs": [
        {
          "internalType": "address",
          "name": "walletRetailer",
          "type": "address"
        },
        {
          "internalType": "uint256",
          "name": "idCheesePiece",
          "type": "uint256"
        }
      ],
      "name": "isCheesePiecePresent",
      "outputs": [
        {
          "internalType": "bool",
          "name": "",
          "type": "bool"
        }
      ],
      "stateMutability": "view",
      "type": "function"
    },
    {
      "inputs": [
        {
          "internalType": "address",
          "name": "walletRetailer",
          "type": "address"
        },
        {
          "internalType": "uint256",
          "name": "idCheese",
          "type": "uint256"
        },
        {
          "internalType": "uint256",
          "name": "newQuantity",
          "type": "uint256"
        }
      ],
      "name": "updateWeight",
      "outputs": [],
      "stateMutability": "nonpayable",
      "type": "function"
    },
    {
      "inputs": [
        {
          "internalType": "address",
          "name": "walletRetailer",
          "type": "address"
        },
        {
          "internalType": "uint256",
          "name": "id",
          "type": "uint256"
        }
      ],
      "name": "getPrice",
      "outputs": [
        {
          "internalType": "uint256",
          "name": "",
          "type": "uint256"
        }
      ],
      "stateMutability": "view",
      "type": "function"
    },
    {
      "inputs": [
        {
          "internalType": "address",
          "name": "walletRetailer",
          "type": "address"
        },
        {
          "internalType": "uint256",
          "name": "id",
          "type": "uint256"
        }
      ],
      "name": "getWeight",
      "outputs": [
        {
          "internalType": "uint256",
          "name": "",
          "type": "uint256"
        }
      ],
      "stateMutability": "view",
      "type": "function"
    },
    {
      "inputs": [
        {
          "internalType": "address",
          "name": "walletRetailer",
          "type": "address"
        }
      ],
      "name": "getUserCheesePieceIds",
      "outputs": [
        {
          "internalType": "uint256[]",
          "name": "",
          "type": "uint256[]"
        }
      ],
      "stateMutability": "view",
      "type": "function"
    },
    {
      "inputs": [],
      "name": "getGlobalCheesePieceIds",
      "outputs": [
        {
          "internalType": "uint256[]",
          "name": "",
          "type": "uint256[]"
        }
      ],
      "stateMutability": "view",
      "type": "function"
    }
  ],
  "bytecode": "0x608060405234801561001057600080fd5b50336000806101000a81548173ffffffffffffffffffffffffffffffffffffffff021916908373ffffffffffffffffffffffffffffffffffffffff160217905550610fc1806100606000396000f3fe608060405234801561001057600080fd5b50600436106100935760003560e01c80635e523adb116100665780635e523adb1461014857806369e42c79146101645780639bc7c21c14610196578063ab801b9b146101c6578063afd47d3e146101f657610093565b80630b7aa47314610098578063348b4c5a146100ca578063449e815d146100fa578063536fe44c1461012a575b600080fd5b6100b260048036038101906100ad9190610ae8565b610226565b6040516100c193929190610b37565b60405180910390f35b6100e460048036038101906100df9190610ae8565b6102c4565b6040516100f19190610b89565b60405180910390f35b610114600480360381019061010f9190610ae8565b6103c4565b6040516101219190610ba4565b60405180910390f35b610132610450565b60405161013f9190610c7d565b60405180910390f35b610162600480360381019061015d9190610c9f565b6104a8565b005b61017e60048036038101906101799190610c9f565b61059b565b60405161018d93929190610b37565b60405180910390f35b6101b060048036038101906101ab9190610ae8565b610713565b6040516101bd9190610b89565b60405180910390f35b6101e060048036038101906101db9190610cf2565b6107c2565b6040516101ed9190610c7d565b60405180910390f35b610210600480360381019061020b9190610ae8565b610859565b60405161021d9190610ba4565b60405180910390f35b600080600080600160008773ffffffffffffffffffffffffffffffffffffffff1673ffffffffffffffffffffffffffffffffffffffff168152602001908152602001600020600086815260200190815260200160002060405180606001604052908160008201548152602001600182015481526020016002820154815250509050806000015181602001518260400151935093509350509250925092565b6000600160008473ffffffffffffffffffffffffffffffffffffffff1673ffffffffffffffffffffffffffffffffffffffff16815260200190815260200160002060008381526020019081526020016000206000808201600090556001820160009055600282016000905550506000600160008573ffffffffffffffffffffffffffffffffffffffff1673ffffffffffffffffffffffffffffffffffffffff1681526020019081526020016000206000848152602001908152602001600020600001541480156103995750610398826108e5565b5b80156103ab57506103aa8284610963565b5b156103b957600190506103be565b600090505b92915050565b600080600160008573ffffffffffffffffffffffffffffffffffffffff1673ffffffffffffffffffffffffffffffffffffffff168152602001908152602001600020600084815260200190815260200160002060405180606001604052908160008201548152602001600182015481526020016002820154815250509050806020015191505092915050565b6060600380548060200260200160405190810160405280929190818152602001828054801561049e57602002820191906000526020600020905b81548152602001906001019080831161048a575b5050505050905090565b600160008473ffffffffffffffffffffffffffffffffffffffff1673ffffffffffffffffffffffffffffffffffffffff16815260200190815260200160002060008381526020019081526020016000206002015481111561053e576040517f08c379a000000000000000000000000000000000000000000000000000000000815260040161053590610da2565b60405180910390fd5b80600160008573ffffffffffffffffffffffffffffffffffffffff1673ffffffffffffffffffffffffffffffffffffffff168152602001908152602001600020600084815260200190815260200160002060020181905550505050565b600080600080858588426040516020016105b89493929190610e2b565b6040516020818303038152906040528051906020012060001c9050600060405180606001604052808381526020018881526020018781525090506003829080600181540180825580915050600190039060005260206000200160009091909190915055600260008973ffffffffffffffffffffffffffffffffffffffff1673ffffffffffffffffffffffffffffffffffffffff16815260200190815260200160002082908060018154018082558091505060019003906000526020600020016000909190919091505580600160008a73ffffffffffffffffffffffffffffffffffffffff1673ffffffffffffffffffffffffffffffffffffffff1681526020019081526020016000206000848152602001908152602001600020600082015181600001556020820151816001015560408201518160020155905050806000015181602001518260400151945094509450505093509350939050565b60008082141580156107255750600082115b610764576040517f08c379a000000000000000000000000000000000000000000000000000000000815260040161075b90610ec5565b60405180910390fd5b81600160008573ffffffffffffffffffffffffffffffffffffffff1673ffffffffffffffffffffffffffffffffffffffff16815260200190815260200160002060008481526020019081526020016000206000015414905092915050565b6060600260008373ffffffffffffffffffffffffffffffffffffffff1673ffffffffffffffffffffffffffffffffffffffff16815260200190815260200160002080548060200260200160405190810160405280929190818152602001828054801561084d57602002820191906000526020600020905b815481526020019060010190808311610839575b50505050509050919050565b600080600160008573ffffffffffffffffffffffffffffffffffffffff1673ffffffffffffffffffffffffffffffffffffffff168152602001908152602001600020600084815260200190815260200160002060405180606001604052908160008201548152602001600182015481526020016002820154815250509050806040015191505092915050565b600080600090505b60038054905081101561095857826003828154811061090f5761090e610ee5565b5b90600052602060002001540361094b576003818154811061093357610932610ee5565b5b9060005260206000200160009055600191505061095e565b80806001019150506108ed565b50600090505b919050565b600080600090505b83600260008573ffffffffffffffffffffffffffffffffffffffff1673ffffffffffffffffffffffffffffffffffffffff16815260200190815260200160002082815481106109bd576109bc610ee5565b5b906000526020600020015403610a3657600260008473ffffffffffffffffffffffffffffffffffffffff1673ffffffffffffffffffffffffffffffffffffffff1681526020019081526020016000208181548110610a1e57610a1d610ee5565b5b90600052602060002001600090556001915050610a49565b8080610a4190610f43565b91505061096b565b92915050565b600080fd5b600073ffffffffffffffffffffffffffffffffffffffff82169050919050565b6000610a7f82610a54565b9050919050565b610a8f81610a74565b8114610a9a57600080fd5b50565b600081359050610aac81610a86565b92915050565b6000819050919050565b610ac581610ab2565b8114610ad057600080fd5b50565b600081359050610ae281610abc565b92915050565b60008060408385031215610aff57610afe610a4f565b5b6000610b0d85828601610a9d565b9250506020610b1e85828601610ad3565b9150509250929050565b610b3181610ab2565b82525050565b6000606082019050610b4c6000830186610b28565b610b596020830185610b28565b610b666040830184610b28565b949350505050565b60008115159050919050565b610b8381610b6e565b82525050565b6000602082019050610b9e6000830184610b7a565b92915050565b6000602082019050610bb96000830184610b28565b92915050565b600081519050919050565b600082825260208201905092915050565b6000819050602082019050919050565b610bf481610ab2565b82525050565b6000610c068383610beb565b60208301905092915050565b6000602082019050919050565b6000610c2a82610bbf565b610c348185610bca565b9350610c3f83610bdb565b8060005b83811015610c70578151610c578882610bfa565b9750610c6283610c12565b925050600181019050610c43565b5085935050505092915050565b60006020820190508181036000830152610c978184610c1f565b905092915050565b600080600060608486031215610cb857610cb7610a4f565b5b6000610cc686828701610a9d565b9350506020610cd786828701610ad3565b9250506040610ce886828701610ad3565b9150509250925092565b600060208284031215610d0857610d07610a4f565b5b6000610d1684828501610a9d565b91505092915050565b600082825260208201905092915050565b7f436f6e74726f6c6c6f2064656c6c61205175616e74697461272064612075746960008201527f6c697a7a617265206e6f6e20616e6461746120612062756f6e2066696e652100602082015250565b6000610d8c603f83610d1f565b9150610d9782610d30565b604082019050919050565b60006020820190508181036000830152610dbb81610d7f565b9050919050565b6000819050919050565b610ddd610dd882610ab2565b610dc2565b82525050565b60008160601b9050919050565b6000610dfb82610de3565b9050919050565b6000610e0d82610df0565b9050919050565b610e25610e2082610a74565b610e02565b82525050565b6000610e378287610dcc565b602082019150610e478286610dcc565b602082019150610e578285610e14565b601482019150610e678284610dcc565b60208201915081905095945050505050565b7f4944204368656573655069656365204e6f6e2056616c69646f21000000000000600082015250565b6000610eaf601a83610d1f565b9150610eba82610e79565b602082019050919050565b60006020820190508181036000830152610ede81610ea2565b9050919050565b7f4e487b7100000000000000000000000000000000000000000000000000000000600052603260045260246000fd5b7f4e487b7100000000000000000000000000000000000000000000000000000000600052601160045260246000fd5b6000610f4e82610ab2565b91507fffffffffffffffffffffffffffffffffffffffffffffffffffffffffffffffff8203610f8057610f7f610f14565b5b60018201905091905056fea26469706673582212205e039ee37eaf6268ee850b25afc65bf0de08fbad73f2e1d48f1de87718188c4764736f6c63430008180033",
  "immutableReferences": {},
  "source": "// SPDX-License-Identifier: MIT\r\npragma solidity ^0.8.0;\r\n\r\ncontract RetailerInventoryStorage {\r\n\r\n    // Address of the organization managing the users\r\n    address private retailerOrg;\r\n\r\n    constructor() {\r\n        retailerOrg = msg.sender;\r\n    }\r\n\r\n    struct CheesePiece {\r\n        uint256 id; // Cheese Piece ID \r\n        uint256 price;\r\n        uint256 weight;\r\n    }\r\n\r\n    mapping(address => mapping(uint256 => CheesePiece)) private cheesePieces;\r\n\r\n    mapping(address => uint256[]) userCheesePieceIds;\r\n\r\n    uint256 [] private globalCheesePieceIds;\r\n\r\n    // --------------------------------------------------- Business Function --------------------------------------------------------------------------------------//\r\n\r\n    function addCheesePiece(\r\n        address walletRetailer,\r\n        uint256 price,\r\n        uint256 weight) external returns (uint256, uint256, uint256) {\r\n\r\n        uint256 id = uint256(keccak256(abi.encodePacked(\r\n            price,\r\n            weight,\r\n            walletRetailer,\r\n            block.timestamp\r\n        )));\r\n\r\n        // Crea un nuovo Pezzo di formaggio\r\n        CheesePiece memory cheesePiece = CheesePiece({\r\n            id: id,\r\n            price: price,\r\n            weight: weight\r\n        });\r\n\r\n        // Inserisce il riferimento all'interno della lista\r\n        globalCheesePieceIds.push(id);\r\n\r\n        // Inserisce il nuovo pezzo di formaggio nella Lista dell'utente \r\n        userCheesePieceIds[walletRetailer].push(id);\r\n\r\n        // Inserisce il nuovo Pezzo di formaggio nella lista cheesePieces\r\n        cheesePieces[walletRetailer][id] = cheesePiece;\r\n\r\n        return (cheesePiece.id, cheesePiece.price, cheesePiece.weight);\r\n    }\r\n\r\n    function getCheesePiece(address walletRetailer, uint256 id) external view returns (uint256, uint256, uint256) {\r\n\r\n        CheesePiece memory cheesePiece = cheesePieces[walletRetailer][id];\r\n\r\n        return (cheesePiece.id, cheesePiece.price, cheesePiece.weight);\r\n    }\r\n\r\n    // Elimina il CheesePiece \r\n    function deleteCheesePiece(address walletRetailer, uint256 id) external returns (bool value) {\r\n\r\n        delete cheesePieces[walletRetailer][id];\r\n        // Check CheesePiece in the mapping \r\n        if (cheesePieces[walletRetailer][id].id == 0 && \r\n        deleteCheesePieceIdFromList(id) && \r\n        deleteCheesePieceIdFromSingleRetailerList(id, walletRetailer)) {\r\n            return true;\r\n        } else {\r\n            return false;\r\n        }\r\n    }\r\n\r\n    // Verifica che il CheesePiece  gi presente \r\n    function isCheesePiecePresent(address walletRetailer, uint256 idCheesePiece) external view returns (bool) {\r\n\r\n        require(idCheesePiece != 0 && idCheesePiece > 0, \"ID CheesePiece Non Valido!\");\r\n\r\n        return cheesePieces[walletRetailer][idCheesePiece].id == idCheesePiece;\r\n    }\r\n\r\n// --------------------------------------------------- Set Function --------------------------------------------------------------------------------------//\r\n\r\n    function updateWeight(\r\n        address walletRetailer,\r\n        uint256 idCheese,\r\n        uint256 newQuantity\r\n    ) external  {\r\n        \r\n        // Controllo sulla quantita' \r\n        require(newQuantity<=cheesePieces[walletRetailer][idCheese].weight,\"Controllo della Quantita' da utilizzare non andata a buon fine!\");\r\n\r\n        cheesePieces[walletRetailer][idCheese].weight = newQuantity;\r\n    }\r\n\r\n    function deleteCheesePieceIdFromSingleRetailerList(uint256 id, address walletRetailer) internal returns (bool) {\r\n        \r\n        for (uint256 i = 0; ; i++) {\r\n            if (userCheesePieceIds[walletRetailer][i] == id) {\r\n                delete userCheesePieceIds[walletRetailer][i];\r\n                return true;\r\n            }\r\n        }\r\n        return false;\r\n    }\r\n\r\n    function deleteCheesePieceIdFromList(uint256 id) internal returns (bool) {\r\n        for (uint256 i = 0; i < globalCheesePieceIds.length; i++) {\r\n            if (globalCheesePieceIds[i] == id) {\r\n                delete globalCheesePieceIds[i];\r\n                return true;\r\n            }\r\n        }\r\n        return false;\r\n    }\r\n\r\n\r\n// --------------------------------------------------- Get Function --------------------------------------------------------------------------------------//\r\n\r\n    function getPrice(address walletRetailer, uint256 id) external view returns (uint256) {\r\n\r\n        CheesePiece memory cheesePiece = cheesePieces[walletRetailer][id];\r\n        return cheesePiece.price;\r\n    }\r\n\r\n    function getWeight(address walletRetailer, uint256 id) external view returns (uint256) {\r\n\r\n        CheesePiece memory cheesePiece = cheesePieces[walletRetailer][id];\r\n        return cheesePiece.weight;\r\n    }\r\n\r\n    /*\r\n        - Funzione per recuperare tutti i MilKBatchPurchased di un determinato walletCheeseProducer\r\n    */\r\n    function getUserCheesePieceIds(address walletRetailer) external view returns (uint256[] memory) {\r\n        return userCheesePieceIds[walletRetailer];\r\n    }\r\n\r\n    function getGlobalCheesePieceIds() external view returns (uint256[] memory) {\r\n        return  globalCheesePieceIds;\r\n    }\r\n\r\n\r\n}\r\n",
  "sourcePath": "C:\\Users\\umber\\Progetti\\FilieraToken\\Filiera-Token-Smart-Contract\\contracts\\Actor\\Retailer-smart-contract\\inventory\\RetailerInventoryStorage.sol",
  "compiler": {
    "name": "solc",
    "version": "0.8.24+commit.e11b9ed9.Emscripten.clang"
  },
  "schemaVersion": "3.4.16",
  "updatedAt": "2024-03-04T16:23:26.072Z",
  "devdoc": {
    "kind": "dev",
    "methods": {},
    "version": 1
  },
  "userdoc": {
    "kind": "user",
    "methods": {},
    "version": 1
  }
}