{
  "contractName": "RetailerBuyerService",
  "abi": [
    {
      "inputs": [
        {
          "internalType": "address",
          "name": "_retailerBuyerStorage",
          "type": "address"
        },
        {
          "internalType": "address",
          "name": "_retailerService",
          "type": "address"
        }
      ],
      "stateMutability": "nonpayable",
      "type": "constructor"
    },
    {
      "anonymous": false,
      "inputs": [
        {
          "indexed": true,
          "internalType": "address",
          "name": "userAddress",
          "type": "address"
        },
        {
          "indexed": false,
          "internalType": "string",
          "name": "message",
          "type": "string"
        },
        {
          "indexed": false,
          "internalType": "uint256",
          "name": "id",
          "type": "uint256"
        },
        {
          "indexed": false,
          "internalType": "string",
          "name": "expirationDate",
          "type": "string"
        },
        {
          "indexed": false,
          "internalType": "uint256",
          "name": "quantity",
          "type": "uint256"
        }
      ],
      "name": "RetailerCheeseBlockAdded",
      "type": "event"
    },
    {
      "anonymous": false,
      "inputs": [
        {
          "indexed": true,
          "internalType": "address",
          "name": "userAddress",
          "type": "address"
        },
        {
          "indexed": false,
          "internalType": "string",
          "name": "message",
          "type": "string"
        }
      ],
      "name": "RetailerCheeseBlockDeleted",
      "type": "event"
    },
    {
      "anonymous": false,
      "inputs": [
        {
          "indexed": true,
          "internalType": "address",
          "name": "userAddress",
          "type": "address"
        },
        {
          "indexed": false,
          "internalType": "string",
          "name": "message",
          "type": "string"
        },
        {
          "indexed": false,
          "internalType": "uint256",
          "name": "quantity",
          "type": "uint256"
        }
      ],
      "name": "RetailerCheeseBlockEdited",
      "type": "event"
    },
    {
      "inputs": [
        {
          "internalType": "address",
          "name": "walletCheeseProducer",
          "type": "address"
        },
        {
          "internalType": "address",
          "name": "walletRetailer",
          "type": "address"
        },
        {
          "internalType": "uint256",
          "name": "idCheeseBlock",
          "type": "uint256"
        },
        {
          "internalType": "string",
          "name": "dop",
          "type": "string"
        },
        {
          "internalType": "uint256",
          "name": "quantity",
          "type": "uint256"
        }
      ],
      "name": "addCheeseBlock",
      "outputs": [],
      "stateMutability": "nonpayable",
      "type": "function"
    },
    {
      "inputs": [
        {
          "internalType": "address",
          "name": "walletRetailer",
          "type": "address"
        },
        {
          "internalType": "uint256",
          "name": "idCheeseBlock",
          "type": "uint256"
        }
      ],
      "name": "getCheeseBlock",
      "outputs": [
        {
          "internalType": "uint256",
          "name": "",
          "type": "uint256"
        },
        {
          "internalType": "address",
          "name": "",
          "type": "address"
        },
        {
          "internalType": "string",
          "name": "",
          "type": "string"
        },
        {
          "internalType": "uint256",
          "name": "",
          "type": "uint256"
        }
      ],
      "stateMutability": "view",
      "type": "function"
    },
    {
      "inputs": [
        {
          "internalType": "address",
          "name": "walletRetailer",
          "type": "address"
        },
        {
          "internalType": "uint256",
          "name": "idCheeseBlock",
          "type": "uint256"
        }
      ],
      "name": "getDop",
      "outputs": [
        {
          "internalType": "string",
          "name": "",
          "type": "string"
        }
      ],
      "stateMutability": "view",
      "type": "function"
    },
    {
      "inputs": [
        {
          "internalType": "address",
          "name": "walletRetailer",
          "type": "address"
        },
        {
          "internalType": "uint256",
          "name": "idCheeseBlock",
          "type": "uint256"
        }
      ],
      "name": "getQuantity",
      "outputs": [
        {
          "internalType": "uint256",
          "name": "",
          "type": "uint256"
        }
      ],
      "stateMutability": "view",
      "type": "function"
    },
    {
      "inputs": [
        {
          "internalType": "address",
          "name": "walletRetailer",
          "type": "address"
        },
        {
          "internalType": "uint256",
          "name": "idCheeseBlock",
          "type": "uint256"
        }
      ],
      "name": "getWalletCheeseProducer",
      "outputs": [
        {
          "internalType": "address",
          "name": "",
          "type": "address"
        }
      ],
      "stateMutability": "view",
      "type": "function"
    },
    {
      "inputs": [
        {
          "internalType": "address",
          "name": "walletRetailer",
          "type": "address"
        },
        {
          "internalType": "uint256",
          "name": "idCheeseBlock",
          "type": "uint256"
        }
      ],
      "name": "isCheeseBlockPresent",
      "outputs": [
        {
          "internalType": "bool",
          "name": "",
          "type": "bool"
        }
      ],
      "stateMutability": "view",
      "type": "function"
    },
    {
      "inputs": [
        {
          "internalType": "address",
          "name": "walletRetailer",
          "type": "address"
        }
      ],
      "name": "getUserCheeseBlockIds",
      "outputs": [
        {
          "internalType": "uint256[]",
          "name": "",
          "type": "uint256[]"
        }
      ],
      "stateMutability": "view",
      "type": "function"
    },
    {
      "inputs": [
        {
          "internalType": "address",
          "name": "walletRetailer",
          "type": "address"
        },
        {
          "internalType": "uint256",
          "name": "idCheeseBlock",
          "type": "uint256"
        },
        {
          "internalType": "uint256",
          "name": "quantity",
          "type": "uint256"
        }
      ],
      "name": "updateCheeseBlockQuantity",
      "outputs": [],
      "stateMutability": "nonpayable",
      "type": "function"
    },
    {
      "inputs": [
        {
          "internalType": "address",
          "name": "_retailerBuyerStorage",
          "type": "address"
        }
      ],
      "name": "changeRetailerBuyerStorage",
      "outputs": [],
      "stateMutability": "nonpayable",
      "type": "function"
    },
    {
      "inputs": [
        {
          "internalType": "address",
          "name": "_retailerService",
          "type": "address"
        }
      ],
      "name": "changeRetailerService",
      "outputs": [],
      "stateMutability": "nonpayable",
      "type": "function"
    }
  ],
  "bytecode": "0x60806040523480156200001157600080fd5b506040516200393a3803806200393a83398181016040528101906200003791906200016b565b81600160006101000a81548173ffffffffffffffffffffffffffffffffffffffff021916908373ffffffffffffffffffffffffffffffffffffffff16021790555080600260006101000a81548173ffffffffffffffffffffffffffffffffffffffff021916908373ffffffffffffffffffffffffffffffffffffffff160217905550336000806101000a81548173ffffffffffffffffffffffffffffffffffffffff021916908373ffffffffffffffffffffffffffffffffffffffff1602179055505050620001b2565b600080fd5b600073ffffffffffffffffffffffffffffffffffffffff82169050919050565b6000620001338262000106565b9050919050565b620001458162000126565b81146200015157600080fd5b50565b60008151905062000165816200013a565b92915050565b6000806040838503121562000185576200018462000101565b5b6000620001958582860162000154565b9250506020620001a88582860162000154565b9150509250929050565b61377880620001c26000396000f3fe608060405234801561001057600080fd5b506004361061009e5760003560e01c80637d0875aa116100665780637d0875aa1461016e57806387dfc1201461018a5780638b3c04ce146101ba578063cc231726146101d6578063f93bd021146102065761009e565b80631e073fcf146100a35780634f0205bf146100d357806355eabd67146101035780636fb82e061461011f57806377e94d9e14610152575b600080fd5b6100bd60048036038101906100b8919061281a565b610236565b6040516100ca9190612869565b60405180910390f35b6100ed60048036038101906100e8919061281a565b610693565b6040516100fa919061289f565b60405180910390f35b61011d600480360381019061011891906128ba565b610a35565b005b6101396004803603810190610134919061281a565b610a79565b6040516101499493929190612986565b60405180910390f35b61016c600480360381019061016791906129d2565b610ee9565b005b610188600480360381019061018391906128ba565b6113a4565b005b6101a4600480360381019061019f91906128ba565b611476565b6040516101b19190612ae3565b60405180910390f35b6101d460048036038101906101cf9190612c3a565b61181a565b005b6101f060048036038101906101eb919061281a565b611eb3565b6040516101fd9190612cd1565b60405180910390f35b610220600480360381019061021b919061281a565b612310565b60405161022d9190612cec565b60405180910390f35b600082600073ffffffffffffffffffffffffffffffffffffffff168173ffffffffffffffffffffffffffffffffffffffff16036102a8576040517f08c379a000000000000000000000000000000000000000000000000000000000815260040161029f90612d5a565b60405180910390fd5b600160009054906101000a900473ffffffffffffffffffffffffffffffffffffffff1673ffffffffffffffffffffffffffffffffffffffff168173ffffffffffffffffffffffffffffffffffffffff1603610338576040517f08c379a000000000000000000000000000000000000000000000000000000000815260040161032f90612dc6565b60405180910390fd5b600260009054906101000a900473ffffffffffffffffffffffffffffffffffffffff1673ffffffffffffffffffffffffffffffffffffffff168173ffffffffffffffffffffffffffffffffffffffff16036103c8576040517f08c379a00000000000000000000000000000000000000000000000000000000081526004016103bf90612e32565b60405180910390fd5b60008054906101000a900473ffffffffffffffffffffffffffffffffffffffff1673ffffffffffffffffffffffffffffffffffffffff168173ffffffffffffffffffffffffffffffffffffffff1603610456576040517f08c379a000000000000000000000000000000000000000000000000000000000815260040161044d90612e9e565b60405180910390fd5b600260009054906101000a900473ffffffffffffffffffffffffffffffffffffffff1673ffffffffffffffffffffffffffffffffffffffff1663a5578807856040518263ffffffff1660e01b81526004016104b19190612cd1565b602060405180830381865afa1580156104ce573d6000803e3d6000fd5b505050506040513d601f19601f820116820180604052508101906104f29190612eea565b610531576040517f08c379a000000000000000000000000000000000000000000000000000000000815260040161052890612f63565b60405180910390fd5b3073ffffffffffffffffffffffffffffffffffffffff16634f0205bf85856040518363ffffffff1660e01b815260040161056c929190612f83565b602060405180830381865afa158015610589573d6000803e3d6000fd5b505050506040513d601f19601f820116820180604052508101906105ad9190612eea565b6105ec576040517f08c379a00000000000000000000000000000000000000000000000000000000081526004016105e390612ff8565b60405180910390fd5b600160009054906101000a900473ffffffffffffffffffffffffffffffffffffffff1673ffffffffffffffffffffffffffffffffffffffff16631e073fcf85856040518363ffffffff1660e01b8152600401610649929190612f83565b602060405180830381865afa158015610666573d6000803e3d6000fd5b505050506040513d601f19601f8201168201806040525081019061068a919061302d565b91505092915050565b600082600073ffffffffffffffffffffffffffffffffffffffff168173ffffffffffffffffffffffffffffffffffffffff1603610705576040517f08c379a00000000000000000000000000000000000000000000000000000000081526004016106fc90612d5a565b60405180910390fd5b600160009054906101000a900473ffffffffffffffffffffffffffffffffffffffff1673ffffffffffffffffffffffffffffffffffffffff168173ffffffffffffffffffffffffffffffffffffffff1603610795576040517f08c379a000000000000000000000000000000000000000000000000000000000815260040161078c90612dc6565b60405180910390fd5b600260009054906101000a900473ffffffffffffffffffffffffffffffffffffffff1673ffffffffffffffffffffffffffffffffffffffff168173ffffffffffffffffffffffffffffffffffffffff1603610825576040517f08c379a000000000000000000000000000000000000000000000000000000000815260040161081c90612e32565b60405180910390fd5b60008054906101000a900473ffffffffffffffffffffffffffffffffffffffff1673ffffffffffffffffffffffffffffffffffffffff168173ffffffffffffffffffffffffffffffffffffffff16036108b3576040517f08c379a00000000000000000000000000000000000000000000000000000000081526004016108aa90612e9e565b60405180910390fd5b600260009054906101000a900473ffffffffffffffffffffffffffffffffffffffff1673ffffffffffffffffffffffffffffffffffffffff1663a5578807856040518263ffffffff1660e01b815260040161090e9190612cd1565b602060405180830381865afa15801561092b573d6000803e3d6000fd5b505050506040513d601f19601f8201168201806040525081019061094f9190612eea565b61098e576040517f08c379a0000000000000000000000000000000000000000000000000000000008152600401610985906130a6565b60405180910390fd5b600160009054906101000a900473ffffffffffffffffffffffffffffffffffffffff1673ffffffffffffffffffffffffffffffffffffffff16634f0205bf85856040518363ffffffff1660e01b81526004016109eb929190612f83565b602060405180830381865afa158015610a08573d6000803e3d6000fd5b505050506040513d601f19601f82011682018060405250810190610a2c9190612eea565b91505092915050565b80600260006101000a81548173ffffffffffffffffffffffffffffffffffffffff021916908373ffffffffffffffffffffffffffffffffffffffff16021790555050565b6000806060600085600073ffffffffffffffffffffffffffffffffffffffff168173ffffffffffffffffffffffffffffffffffffffff1603610af0576040517f08c379a0000000000000000000000000000000000000000000000000000000008152600401610ae790612d5a565b60405180910390fd5b600160009054906101000a900473ffffffffffffffffffffffffffffffffffffffff1673ffffffffffffffffffffffffffffffffffffffff168173ffffffffffffffffffffffffffffffffffffffff1603610b80576040517f08c379a0000000000000000000000000000000000000000000000000000000008152600401610b7790612dc6565b60405180910390fd5b600260009054906101000a900473ffffffffffffffffffffffffffffffffffffffff1673ffffffffffffffffffffffffffffffffffffffff168173ffffffffffffffffffffffffffffffffffffffff1603610c10576040517f08c379a0000000000000000000000000000000000000000000000000000000008152600401610c0790612e32565b60405180910390fd5b60008054906101000a900473ffffffffffffffffffffffffffffffffffffffff1673ffffffffffffffffffffffffffffffffffffffff168173ffffffffffffffffffffffffffffffffffffffff1603610c9e576040517f08c379a0000000000000000000000000000000000000000000000000000000008152600401610c9590612e9e565b60405180910390fd5b600260009054906101000a900473ffffffffffffffffffffffffffffffffffffffff1673ffffffffffffffffffffffffffffffffffffffff1663a5578807886040518263ffffffff1660e01b8152600401610cf99190612cd1565b602060405180830381865afa158015610d16573d6000803e3d6000fd5b505050506040513d601f19601f82011682018060405250810190610d3a9190612eea565b610d79576040517f08c379a0000000000000000000000000000000000000000000000000000000008152600401610d7090612f63565b60405180910390fd5b3073ffffffffffffffffffffffffffffffffffffffff16634f0205bf88886040518363ffffffff1660e01b8152600401610db4929190612f83565b602060405180830381865afa158015610dd1573d6000803e3d6000fd5b505050506040513d601f19601f82011682018060405250810190610df59190612eea565b610e34576040517f08c379a0000000000000000000000000000000000000000000000000000000008152600401610e2b90612ff8565b60405180910390fd5b600160009054906101000a900473ffffffffffffffffffffffffffffffffffffffff1673ffffffffffffffffffffffffffffffffffffffff16636fb82e0688886040518363ffffffff1660e01b8152600401610e91929190612f83565b600060405180830381865afa158015610eae573d6000803e3d6000fd5b505050506040513d6000823e3d601f19601f82011682018060405250810190610ed7919061314b565b94509450945094505092959194509250565b82600073ffffffffffffffffffffffffffffffffffffffff168173ffffffffffffffffffffffffffffffffffffffff1603610f59576040517f08c379a0000000000000000000000000000000000000000000000000000000008152600401610f5090612d5a565b60405180910390fd5b600160009054906101000a900473ffffffffffffffffffffffffffffffffffffffff1673ffffffffffffffffffffffffffffffffffffffff168173ffffffffffffffffffffffffffffffffffffffff1603610fe9576040517f08c379a0000000000000000000000000000000000000000000000000000000008152600401610fe090612dc6565b60405180910390fd5b600260009054906101000a900473ffffffffffffffffffffffffffffffffffffffff1673ffffffffffffffffffffffffffffffffffffffff168173ffffffffffffffffffffffffffffffffffffffff1603611079576040517f08c379a000000000000000000000000000000000000000000000000000000000815260040161107090612e32565b60405180910390fd5b60008054906101000a900473ffffffffffffffffffffffffffffffffffffffff1673ffffffffffffffffffffffffffffffffffffffff168173ffffffffffffffffffffffffffffffffffffffff1603611107576040517f08c379a00000000000000000000000000000000000000000000000000000000081526004016110fe90612e9e565b60405180910390fd5b600260009054906101000a900473ffffffffffffffffffffffffffffffffffffffff1673ffffffffffffffffffffffffffffffffffffffff1663a5578807856040518263ffffffff1660e01b81526004016111629190612cd1565b602060405180830381865afa15801561117f573d6000803e3d6000fd5b505050506040513d601f19601f820116820180604052508101906111a39190612eea565b6111e2576040517f08c379a00000000000000000000000000000000000000000000000000000000081526004016111d99061321a565b60405180910390fd5b600160009054906101000a900473ffffffffffffffffffffffffffffffffffffffff1673ffffffffffffffffffffffffffffffffffffffff16634f0205bf85856040518363ffffffff1660e01b815260040161123f929190612f83565b602060405180830381865afa15801561125c573d6000803e3d6000fd5b505050506040513d601f19601f820116820180604052508101906112809190612eea565b6112bf576040517f08c379a00000000000000000000000000000000000000000000000000000000081526004016112b690613286565b60405180910390fd5b600160009054906101000a900473ffffffffffffffffffffffffffffffffffffffff1673ffffffffffffffffffffffffffffffffffffffff1663453ecf048585856040518463ffffffff1660e01b815260040161131e939291906132a6565b600060405180830381600087803b15801561133857600080fd5b505af115801561134c573d6000803e3d6000fd5b505050508373ffffffffffffffffffffffffffffffffffffffff167f3ca76a6a112151cbb6909158898f9c1893d9049d6eccab3e0d06e97515425cbe836040516113969190613329565b60405180910390a250505050565b60008054906101000a900473ffffffffffffffffffffffffffffffffffffffff1673ffffffffffffffffffffffffffffffffffffffff163373ffffffffffffffffffffffffffffffffffffffff1614611432576040517f08c379a0000000000000000000000000000000000000000000000000000000008152600401611429906133a3565b60405180910390fd5b80600160006101000a81548173ffffffffffffffffffffffffffffffffffffffff021916908373ffffffffffffffffffffffffffffffffffffffff16021790555050565b606081600073ffffffffffffffffffffffffffffffffffffffff168173ffffffffffffffffffffffffffffffffffffffff16036114e8576040517f08c379a00000000000000000000000000000000000000000000000000000000081526004016114df90612d5a565b60405180910390fd5b600160009054906101000a900473ffffffffffffffffffffffffffffffffffffffff1673ffffffffffffffffffffffffffffffffffffffff168173ffffffffffffffffffffffffffffffffffffffff1603611578576040517f08c379a000000000000000000000000000000000000000000000000000000000815260040161156f90612dc6565b60405180910390fd5b600260009054906101000a900473ffffffffffffffffffffffffffffffffffffffff1673ffffffffffffffffffffffffffffffffffffffff168173ffffffffffffffffffffffffffffffffffffffff1603611608576040517f08c379a00000000000000000000000000000000000000000000000000000000081526004016115ff90612e32565b60405180910390fd5b60008054906101000a900473ffffffffffffffffffffffffffffffffffffffff1673ffffffffffffffffffffffffffffffffffffffff168173ffffffffffffffffffffffffffffffffffffffff1603611696576040517f08c379a000000000000000000000000000000000000000000000000000000000815260040161168d90612e9e565b60405180910390fd5b600260009054906101000a900473ffffffffffffffffffffffffffffffffffffffff1673ffffffffffffffffffffffffffffffffffffffff1663a5578807846040518263ffffffff1660e01b81526004016116f19190612cd1565b602060405180830381865afa15801561170e573d6000803e3d6000fd5b505050506040513d601f19601f820116820180604052508101906117329190612eea565b611771576040517f08c379a00000000000000000000000000000000000000000000000000000000081526004016117689061321a565b60405180910390fd5b600160009054906101000a900473ffffffffffffffffffffffffffffffffffffffff1673ffffffffffffffffffffffffffffffffffffffff166387dfc120846040518263ffffffff1660e01b81526004016117cc9190612cd1565b600060405180830381865afa1580156117e9573d6000803e3d6000fd5b505050506040513d6000823e3d601f19601f82011682018060405250810190611812919061348b565b915050919050565b83600073ffffffffffffffffffffffffffffffffffffffff168173ffffffffffffffffffffffffffffffffffffffff160361188a576040517f08c379a000000000000000000000000000000000000000000000000000000000815260040161188190612d5a565b60405180910390fd5b600160009054906101000a900473ffffffffffffffffffffffffffffffffffffffff1673ffffffffffffffffffffffffffffffffffffffff168173ffffffffffffffffffffffffffffffffffffffff160361191a576040517f08c379a000000000000000000000000000000000000000000000000000000000815260040161191190612dc6565b60405180910390fd5b600260009054906101000a900473ffffffffffffffffffffffffffffffffffffffff1673ffffffffffffffffffffffffffffffffffffffff168173ffffffffffffffffffffffffffffffffffffffff16036119aa576040517f08c379a00000000000000000000000000000000000000000000000000000000081526004016119a190612e32565b60405180910390fd5b60008054906101000a900473ffffffffffffffffffffffffffffffffffffffff1673ffffffffffffffffffffffffffffffffffffffff168173ffffffffffffffffffffffffffffffffffffffff1603611a38576040517f08c379a0000000000000000000000000000000000000000000000000000000008152600401611a2f90612e9e565b60405180910390fd5b85600073ffffffffffffffffffffffffffffffffffffffff168173ffffffffffffffffffffffffffffffffffffffff1603611aa8576040517f08c379a0000000000000000000000000000000000000000000000000000000008152600401611a9f90612d5a565b60405180910390fd5b600160009054906101000a900473ffffffffffffffffffffffffffffffffffffffff1673ffffffffffffffffffffffffffffffffffffffff168173ffffffffffffffffffffffffffffffffffffffff1603611b38576040517f08c379a0000000000000000000000000000000000000000000000000000000008152600401611b2f90612dc6565b60405180910390fd5b600260009054906101000a900473ffffffffffffffffffffffffffffffffffffffff1673ffffffffffffffffffffffffffffffffffffffff168173ffffffffffffffffffffffffffffffffffffffff1603611bc8576040517f08c379a0000000000000000000000000000000000000000000000000000000008152600401611bbf90612e32565b60405180910390fd5b60008054906101000a900473ffffffffffffffffffffffffffffffffffffffff1673ffffffffffffffffffffffffffffffffffffffff168173ffffffffffffffffffffffffffffffffffffffff1603611c56576040517f08c379a0000000000000000000000000000000000000000000000000000000008152600401611c4d90612e9e565b60405180910390fd5b8673ffffffffffffffffffffffffffffffffffffffff168673ffffffffffffffffffffffffffffffffffffffff1603611cc4576040517f08c379a0000000000000000000000000000000000000000000000000000000008152600401611cbb90613546565b60405180910390fd5b600260009054906101000a900473ffffffffffffffffffffffffffffffffffffffff1673ffffffffffffffffffffffffffffffffffffffff1663a5578807876040518263ffffffff1660e01b8152600401611d1f9190612cd1565b602060405180830381865afa158015611d3c573d6000803e3d6000fd5b505050506040513d601f19601f82011682018060405250810190611d609190612eea565b611d9f576040517f08c379a0000000000000000000000000000000000000000000000000000000008152600401611d9690612f63565b60405180910390fd5b6000806000600160009054906101000a900473ffffffffffffffffffffffffffffffffffffffff1673ffffffffffffffffffffffffffffffffffffffff16638b3c04ce8a8c8b8b8b6040518663ffffffff1660e01b8152600401611e07959493929190613566565b6000604051808303816000875af1158015611e26573d6000803e3d6000fd5b505050506040513d6000823e3d601f19601f82011682018060405250810190611e4f91906135c0565b9250925092508873ffffffffffffffffffffffffffffffffffffffff167ff8d6c42146fa3f110f6c2c22797e8af4ed0e24550f3ab8fb75d5fe686b1b0adb848484604051611e9f9392919061367b565b60405180910390a250505050505050505050565b600082600073ffffffffffffffffffffffffffffffffffffffff168173ffffffffffffffffffffffffffffffffffffffff1603611f25576040517f08c379a0000000000000000000000000000000000000000000000000000000008152600401611f1c90612d5a565b60405180910390fd5b600160009054906101000a900473ffffffffffffffffffffffffffffffffffffffff1673ffffffffffffffffffffffffffffffffffffffff168173ffffffffffffffffffffffffffffffffffffffff1603611fb5576040517f08c379a0000000000000000000000000000000000000000000000000000000008152600401611fac90612dc6565b60405180910390fd5b600260009054906101000a900473ffffffffffffffffffffffffffffffffffffffff1673ffffffffffffffffffffffffffffffffffffffff168173ffffffffffffffffffffffffffffffffffffffff1603612045576040517f08c379a000000000000000000000000000000000000000000000000000000000815260040161203c90612e32565b60405180910390fd5b60008054906101000a900473ffffffffffffffffffffffffffffffffffffffff1673ffffffffffffffffffffffffffffffffffffffff168173ffffffffffffffffffffffffffffffffffffffff16036120d3576040517f08c379a00000000000000000000000000000000000000000000000000000000081526004016120ca90612e9e565b60405180910390fd5b600260009054906101000a900473ffffffffffffffffffffffffffffffffffffffff1673ffffffffffffffffffffffffffffffffffffffff1663a5578807856040518263ffffffff1660e01b815260040161212e9190612cd1565b602060405180830381865afa15801561214b573d6000803e3d6000fd5b505050506040513d601f19601f8201168201806040525081019061216f9190612eea565b6121ae576040517f08c379a00000000000000000000000000000000000000000000000000000000081526004016121a590612f63565b60405180910390fd5b3073ffffffffffffffffffffffffffffffffffffffff16634f0205bf85856040518363ffffffff1660e01b81526004016121e9929190612f83565b602060405180830381865afa158015612206573d6000803e3d6000fd5b505050506040513d601f19601f8201168201806040525081019061222a9190612eea565b612269576040517f08c379a000000000000000000000000000000000000000000000000000000000815260040161226090612ff8565b60405180910390fd5b600160009054906101000a900473ffffffffffffffffffffffffffffffffffffffff1673ffffffffffffffffffffffffffffffffffffffff1663cc23172685856040518363ffffffff1660e01b81526004016122c6929190612f83565b602060405180830381865afa1580156122e3573d6000803e3d6000fd5b505050506040513d601f19601f8201168201806040525081019061230791906136cc565b91505092915050565b606082600073ffffffffffffffffffffffffffffffffffffffff168173ffffffffffffffffffffffffffffffffffffffff1603612382576040517f08c379a000000000000000000000000000000000000000000000000000000000815260040161237990612d5a565b60405180910390fd5b600160009054906101000a900473ffffffffffffffffffffffffffffffffffffffff1673ffffffffffffffffffffffffffffffffffffffff168173ffffffffffffffffffffffffffffffffffffffff1603612412576040517f08c379a000000000000000000000000000000000000000000000000000000000815260040161240990612dc6565b60405180910390fd5b600260009054906101000a900473ffffffffffffffffffffffffffffffffffffffff1673ffffffffffffffffffffffffffffffffffffffff168173ffffffffffffffffffffffffffffffffffffffff16036124a2576040517f08c379a000000000000000000000000000000000000000000000000000000000815260040161249990612e32565b60405180910390fd5b60008054906101000a900473ffffffffffffffffffffffffffffffffffffffff1673ffffffffffffffffffffffffffffffffffffffff168173ffffffffffffffffffffffffffffffffffffffff1603612530576040517f08c379a000000000000000000000000000000000000000000000000000000000815260040161252790612e9e565b60405180910390fd5b600260009054906101000a900473ffffffffffffffffffffffffffffffffffffffff1673ffffffffffffffffffffffffffffffffffffffff1663a5578807856040518263ffffffff1660e01b815260040161258b9190612cd1565b602060405180830381865afa1580156125a8573d6000803e3d6000fd5b505050506040513d601f19601f820116820180604052508101906125cc9190612eea565b61260b576040517f08c379a000000000000000000000000000000000000000000000000000000000815260040161260290612f63565b60405180910390fd5b3073ffffffffffffffffffffffffffffffffffffffff16634f0205bf85856040518363ffffffff1660e01b8152600401612646929190612f83565b602060405180830381865afa158015612663573d6000803e3d6000fd5b505050506040513d601f19601f820116820180604052508101906126879190612eea565b6126c6576040517f08c379a00000000000000000000000000000000000000000000000000000000081526004016126bd90612ff8565b60405180910390fd5b600160009054906101000a900473ffffffffffffffffffffffffffffffffffffffff1673ffffffffffffffffffffffffffffffffffffffff1663f93bd02185856040518363ffffffff1660e01b8152600401612723929190612f83565b600060405180830381865afa158015612740573d6000803e3d6000fd5b505050506040513d6000823e3d601f19601f8201168201806040525081019061276991906136f9565b91505092915050565b6000604051905090565b600080fd5b600080fd5b600073ffffffffffffffffffffffffffffffffffffffff82169050919050565b60006127b182612786565b9050919050565b6127c1816127a6565b81146127cc57600080fd5b50565b6000813590506127de816127b8565b92915050565b6000819050919050565b6127f7816127e4565b811461280257600080fd5b50565b600081359050612814816127ee565b92915050565b600080604083850312156128315761283061277c565b5b600061283f858286016127cf565b925050602061285085828601612805565b9150509250929050565b612863816127e4565b82525050565b600060208201905061287e600083018461285a565b92915050565b60008115159050919050565b61289981612884565b82525050565b60006020820190506128b46000830184612890565b92915050565b6000602082840312156128d0576128cf61277c565b5b60006128de848285016127cf565b91505092915050565b6128f0816127a6565b82525050565b600081519050919050565b600082825260208201905092915050565b60005b83811015612930578082015181840152602081019050612915565b60008484015250505050565b6000601f19601f8301169050919050565b6000612958826128f6565b6129628185612901565b9350612972818560208601612912565b61297b8161293c565b840191505092915050565b600060808201905061299b600083018761285a565b6129a860208301866128e7565b81810360408301526129ba818561294d565b90506129c9606083018461285a565b95945050505050565b6000806000606084860312156129eb576129ea61277c565b5b60006129f9868287016127cf565b9350506020612a0a86828701612805565b9250506040612a1b86828701612805565b9150509250925092565b600081519050919050565b600082825260208201905092915050565b6000819050602082019050919050565b612a5a816127e4565b82525050565b6000612a6c8383612a51565b60208301905092915050565b6000602082019050919050565b6000612a9082612a25565b612a9a8185612a30565b9350612aa583612a41565b8060005b83811015612ad6578151612abd8882612a60565b9750612ac883612a78565b925050600181019050612aa9565b5085935050505092915050565b60006020820190508181036000830152612afd8184612a85565b905092915050565b600080fd5b600080fd5b7f4e487b7100000000000000000000000000000000000000000000000000000000600052604160045260246000fd5b612b478261293c565b810181811067ffffffffffffffff82111715612b6657612b65612b0f565b5b80604052505050565b6000612b79612772565b9050612b858282612b3e565b919050565b600067ffffffffffffffff821115612ba557612ba4612b0f565b5b612bae8261293c565b9050602081019050919050565b82818337600083830152505050565b6000612bdd612bd884612b8a565b612b6f565b905082815260208101848484011115612bf957612bf8612b0a565b5b612c04848285612bbb565b509392505050565b600082601f830112612c2157612c20612b05565b5b8135612c31848260208601612bca565b91505092915050565b600080600080600060a08688031215612c5657612c5561277c565b5b6000612c64888289016127cf565b9550506020612c75888289016127cf565b9450506040612c8688828901612805565b935050606086013567ffffffffffffffff811115612ca757612ca6612781565b5b612cb388828901612c0c565b9250506080612cc488828901612805565b9150509295509295909350565b6000602082019050612ce660008301846128e7565b92915050565b60006020820190508181036000830152612d06818461294d565b905092915050565b7f416464726573732076616c756520697320302100000000000000000000000000600082015250565b6000612d44601383612901565b9150612d4f82612d0e565b602082019050919050565b60006020820190508181036000830152612d7381612d37565b9050919050565b7f416464726573732069732072657461696c6572427579657253746f7261676521600082015250565b6000612db0602083612901565b9150612dbb82612d7a565b602082019050919050565b60006020820190508181036000830152612ddf81612da3565b9050919050565b7f416464726573732069732052657461696c657253657276696365210000000000600082015250565b6000612e1c601b83612901565b9150612e2782612de6565b602082019050919050565b60006020820190508181036000830152612e4b81612e0f565b9050919050565b7f41646472657373206973204f7267616e697a6174696f6e210000000000000000600082015250565b6000612e88601883612901565b9150612e9382612e52565b602082019050919050565b60006020820190508181036000830152612eb781612e7b565b9050919050565b612ec781612884565b8114612ed257600080fd5b50565b600081519050612ee481612ebe565b92915050565b600060208284031215612f0057612eff61277c565b5b6000612f0e84828501612ed5565b91505092915050565b7f5574656e7465206e6f6e2074726f7661746f2100000000000000000000000000600082015250565b6000612f4d601383612901565b9150612f5882612f17565b602082019050919050565b60006020820190508181036000830152612f7c81612f40565b9050919050565b6000604082019050612f9860008301856128e7565b612fa5602083018461285a565b9392505050565b7f50726f646f74746f206e6f6e2050726573656e74652100000000000000000000600082015250565b6000612fe2601683612901565b9150612fed82612fac565b602082019050919050565b6000602082019050818103600083015261301181612fd5565b9050919050565b600081519050613027816127ee565b92915050565b6000602082840312156130435761304261277c565b5b600061305184828501613018565b91505092915050565b7f5574656e7465206e6f6e2070726573656e746521000000000000000000000000600082015250565b6000613090601483612901565b915061309b8261305a565b602082019050919050565b600060208201905081810360008301526130bf81613083565b9050919050565b6000815190506130d5816127b8565b92915050565b60006130ee6130e984612b8a565b612b6f565b90508281526020810184848401111561310a57613109612b0a565b5b613115848285612912565b509392505050565b600082601f83011261313257613131612b05565b5b81516131428482602086016130db565b91505092915050565b600080600080608085870312156131655761316461277c565b5b600061317387828801613018565b9450506020613184878288016130c6565b935050604085015167ffffffffffffffff8111156131a5576131a4612781565b5b6131b18782880161311d565b92505060606131c287828801613018565b91505092959194509250565b7f55736572206973206e6f742070726573656e7421000000000000000000000000600082015250565b6000613204601483612901565b915061320f826131ce565b602082019050919050565b60006020820190508181036000830152613233816131f7565b9050919050565b7f436865657365426c6f636b206e6f742050726573656e74210000000000000000600082015250565b6000613270601883612901565b915061327b8261323a565b602082019050919050565b6000602082019050818103600083015261329f81613263565b9050919050565b60006060820190506132bb60008301866128e7565b6132c8602083018561285a565b6132d5604083018461285a565b949350505050565b7f436865657365426c6f636b206564697465642100000000000000000000000000600082015250565b6000613313601383612901565b915061331e826132dd565b602082019050919050565b6000604082019050818103600083015261334281613306565b9050613351602083018461285a565b92915050565b7f41646472657373206973206e6f7420746865206f7267616e697a6174696f6e00600082015250565b600061338d601f83612901565b915061339882613357565b602082019050919050565b600060208201905081810360008301526133bc81613380565b9050919050565b600067ffffffffffffffff8211156133de576133dd612b0f565b5b602082029050602081019050919050565b600080fd5b6000613407613402846133c3565b612b6f565b9050808382526020820190506020840283018581111561342a576134296133ef565b5b835b81811015613453578061343f8882613018565b84526020840193505060208101905061342c565b5050509392505050565b600082601f83011261347257613471612b05565b5b81516134828482602086016133f4565b91505092915050565b6000602082840312156134a1576134a061277c565b5b600082015167ffffffffffffffff8111156134bf576134be612781565b5b6134cb8482850161345d565b91505092915050565b7f4164647265737320756775616c692052657461696c65722065204d696c6b487560008201527f6221000000000000000000000000000000000000000000000000000000000000602082015250565b6000613530602283612901565b915061353b826134d4565b604082019050919050565b6000602082019050818103600083015261355f81613523565b9050919050565b600060a08201905061357b60008301886128e7565b61358860208301876128e7565b613595604083018661285a565b81810360608301526135a7818561294d565b90506135b6608083018461285a565b9695505050505050565b6000806000606084860312156135d9576135d861277c565b5b60006135e786828701613018565b935050602084015167ffffffffffffffff81111561360857613607612781565b5b6136148682870161311d565b925050604061362586828701613018565b9150509250925092565b7f436865657365426c6f636b204163717569737461746f21000000000000000000600082015250565b6000613665601783612901565b91506136708261362f565b602082019050919050565b6000608082019050818103600083015261369481613658565b90506136a3602083018661285a565b81810360408301526136b5818561294d565b90506136c4606083018461285a565b949350505050565b6000602082840312156136e2576136e161277c565b5b60006136f0848285016130c6565b91505092915050565b60006020828403121561370f5761370e61277c565b5b600082015167ffffffffffffffff81111561372d5761372c612781565b5b6137398482850161311d565b9150509291505056fea2646970667358221220c83cc01497897ee76c102c8596ab417ec99594b7eb552ed13468d945de27069664736f6c63430008180033",
  "immutableReferences": {},
  "source": "// SPDX-License-Identifier: MIT\r\npragma solidity ^0.8.21;\r\n\r\nimport \"./RetailerBuyerStorage.sol\";\r\nimport \"../RetailerService.sol\";\r\n\r\n\r\ncontract RetailerBuyerService {\r\n\r\n//------------------------------------------------------------------------ Address of other Contract Service -----------------------------------------------------------//\r\n\r\n    // Address of Organization che gestisce gli utenti\r\n    address private retailerOrg;\r\n    // Address of CheeseBlockStorage \r\n    RetailerBuyerStorage private retailerBuyerStorage;\r\n\r\n    RetailerService private retailerService;\r\n\r\n//------------------------------------------------------------------------ Event of Service  -----------------------------------------------------------//\r\n\r\n    // Eventi per notificare l'aggiunta di una Partita di Latte\r\n    event RetailerCheeseBlockAdded(address indexed userAddress,string message,uint256 id, string expirationDate, uint256 quantity);\r\n    // Evento per notificare che un CheeseBlock  stato eliminato \r\n    event RetailerCheeseBlockDeleted(address indexed userAddress, string message);\r\n    // Evento per notificare che un CheeseBlock  stato Editato\r\n    event RetailerCheeseBlockEdited(address indexed userAddress,string message, uint256 quantity);\r\n\r\n//------------------------------------------------------------------------ Constructor of other Contract Service -----------------------------------------------------------//\r\n\r\n    constructor(\r\n        address _retailerBuyerStorage, \r\n        address _retailerService) {\r\n        retailerBuyerStorage = RetailerBuyerStorage(_retailerBuyerStorage);\r\n        retailerService = RetailerService(_retailerService);\r\n        retailerOrg = msg.sender;\r\n    }\r\n\r\n//------------------------------------------------------------------------ Modifier Logic of Contract Service -----------------------------------------------------------//\r\n\r\n    modifier checkAddress(address caller){\r\n        \r\n        require(caller!=address(0),\"Address value is 0!\");\r\n        require(caller!=address(retailerBuyerStorage),\"Address is retailerBuyerStorage!\");\r\n        require(caller!=address(retailerService),\"Address is RetailerService!\");\r\n        require(caller!=address(retailerOrg),\"Address is Organization!\");\r\n        _;\r\n    }\r\n\r\n//------------------------------------------------------------------------ Business Logic of Contract Service -----------------------------------------------------------//\r\n\r\n    // Prodotti Acquistati devono essere visualizzati solo dal Retailer che li detiene \r\n    // TODO : Controllo del msg.sender sulle funzioni di GET \r\n\r\n\r\n    /**\r\n    * Tale funzione viene chiamata dal TransactionManager per inserire il CheeseBlock venduto dal MilkHub al Retailer \r\n    * I controlli vengono fatti tutti all'interno del TransactionManager per la verifica dell'esistenza dei due interessati \r\n    * - Ammettiamo che i controlli sul prodotto vengono gi fatti a monte \r\n    * - verifichiamo che il Retailer e il MilkHub esistono \r\n    * - verifichiamo che il CheeseBlock associato al MilkHub esiste \r\n    * - Aggiungiamo questi dati all'interno del Inventory \r\n    */\r\n    function addCheeseBlock(\r\n            \r\n            address walletCheeseProducer,\r\n            address walletRetailer,\r\n            uint256 idCheeseBlock,\r\n            string memory dop,\r\n            uint256 quantity\r\n\r\n        ) external checkAddress(walletRetailer) checkAddress(walletCheeseProducer) {\r\n        \r\n        // Verifico che Retailer e MilkHub address non sono identici\r\n        require(address(walletRetailer)!=address(walletCheeseProducer),\"Address uguali Retailer e MilkHub!\");\r\n\r\n        // Verfico che il Retailer  presente \r\n        require(retailerService.isUserPresent(walletRetailer), \"Utente non trovato!\");\r\n\r\n        // Aggiungo il CheeseBlock all'interno dell'Inventario del Retailer \r\n        (uint256 _idCheeseBlock, string memory _dopCheese,uint256 _quantity) = retailerBuyerStorage.addCheeseBlock(walletRetailer, walletCheeseProducer, idCheeseBlock, dop, quantity);\r\n\r\n        // Invio dell'Evento \r\n        emit RetailerCheeseBlockAdded(walletRetailer,\"CheeseBlock Acquistato!\", _idCheeseBlock ,  _dopCheese, _quantity);\r\n    }\r\n\r\n    \r\n    //TODO : Controllo sull'owner del CheeseBlock Acquistato \r\n    function getCheeseBlock(address walletRetailer,uint256 idCheeseBlock) external view checkAddress(walletRetailer) returns (uint256, address, string memory, uint256) {\r\n        \r\n        require(retailerService.isUserPresent(walletRetailer), \"Utente non trovato!\");\r\n\r\n        require(this.isCheeseBlockPresent(walletRetailer,idCheeseBlock),\"Prodotto non Presente!\");\r\n\r\n        return retailerBuyerStorage.getCheeseBlock(walletRetailer, idCheeseBlock);\r\n    }\r\n\r\n\r\n    \r\n    function getDop(address walletRetailer, uint256 idCheeseBlock) external view checkAddress(walletRetailer) returns(string memory) {\r\n        \r\n        require(retailerService.isUserPresent(walletRetailer), \"Utente non trovato!\");\r\n\r\n        require(this.isCheeseBlockPresent(walletRetailer,idCheeseBlock),\"Prodotto non Presente!\");\r\n        \r\n        return retailerBuyerStorage.getDop(walletRetailer,idCheeseBlock);        \r\n    }\r\n\r\n    \r\n    function getQuantity(address walletRetailer, uint256 idCheeseBlock) external view checkAddress(walletRetailer) returns(uint256) {\r\n        \r\n        require(retailerService.isUserPresent(walletRetailer), \"Utente non trovato!\");\r\n\r\n        require(this.isCheeseBlockPresent(walletRetailer,idCheeseBlock),\"Prodotto non Presente!\");\r\n        \r\n        return retailerBuyerStorage.getQuantity(walletRetailer,idCheeseBlock);        \r\n    }\r\n\r\n    \r\n    function getWalletCheeseProducer(address walletRetailer, uint256 idCheeseBlock) external view checkAddress(walletRetailer) returns(address) {\r\n        \r\n        require(retailerService.isUserPresent(walletRetailer), \"Utente non trovato!\");\r\n\r\n        require(this.isCheeseBlockPresent(walletRetailer,idCheeseBlock),\"Prodotto non Presente!\");\r\n        \r\n        return retailerBuyerStorage.getWalletCheeseProducer(walletRetailer,idCheeseBlock);        \r\n    }\r\n\r\n    /**\r\n    * Verifica che il CheeseBlock  presente all'interno dell'inventario \r\n    * - Verifica che l'id non sia nullo e che sia maggiore di 0 e che coincida con l'elemento \r\n    */\r\n    function isCheeseBlockPresent(address walletRetailer, uint256 idCheeseBlock) external view checkAddress(walletRetailer)  returns (bool){\r\n        \r\n        require(retailerService.isUserPresent(walletRetailer),\"Utente non presente!\");\r\n\r\n        return retailerBuyerStorage.isCheeseBlockPresent(walletRetailer, idCheeseBlock);\r\n    }\r\n\r\n    \r\n    \r\n    function getUserCheeseBlockIds(address walletRetailer) external checkAddress(walletRetailer) view returns (uint256[] memory){\r\n        // Check if exist \r\n        require(retailerService.isUserPresent(walletRetailer), \"User is not present!\");\r\n\r\n        return retailerBuyerStorage.getUserCheeseBlockIds(walletRetailer);\r\n    }\r\n\r\n\r\n//-------------------------------------------------------------------- Set Function ------------------------------------------------------------------------//\r\n\r\n    /**\r\n    * \r\n    * - Decremento della quantit del CheeseBlockAcquistato per la trasformazione in Cheese \r\n    */\r\n    function updateCheeseBlockQuantity(address walletRetailer, uint256 idCheeseBlock, uint256 quantity) external checkAddress(walletRetailer) {\r\n\r\n        require(retailerService.isUserPresent(walletRetailer), \"User is not present!\");\r\n\r\n        require(retailerBuyerStorage.isCheeseBlockPresent(walletRetailer, idCheeseBlock),\"CheeseBlock not Present!\");\r\n\r\n        retailerBuyerStorage.updateCheeseQuantity(walletRetailer, idCheeseBlock, quantity);\r\n\r\n        emit RetailerCheeseBlockEdited(walletRetailer,\"CheeseBlock edited!\", quantity);\r\n    }\r\n\r\n\r\n\r\n\r\n// -------------------------------------------------- Change Address Function Contract Service ---------------------------------------------------//\r\n\r\n\r\n    // TODO: insert modifier onlyOrg(address sender) {}\r\n    function changeRetailerBuyerStorage(address _retailerBuyerStorage)external {\r\n        require(msg.sender == retailerOrg,\"Address is not the organization\");\r\n        retailerBuyerStorage = RetailerBuyerStorage(_retailerBuyerStorage);\r\n    }\r\n\r\n    // TODO: insert modifier onlyOrg(address sender) {}\r\n    function changeRetailerService(address _retailerService) external {\r\n        retailerService = RetailerService(_retailerService);\r\n    }\r\n\r\n}",
  "sourcePath": "C:\\Users\\umber\\Progetti\\FilieraToken\\Filiera-Token-Smart-Contract\\contracts\\Actor\\Retailer-smart-contract\\inventory\\RetailerBuyerService.sol",
  "compiler": {
    "name": "solc",
    "version": "0.8.24+commit.e11b9ed9.Emscripten.clang"
  },
  "schemaVersion": "3.4.16",
  "updatedAt": "2024-03-05T00:24:36.803Z",
  "devdoc": {
    "kind": "dev",
    "methods": {},
    "version": 1
  },
  "userdoc": {
    "kind": "user",
    "methods": {
      "addCheeseBlock(address,address,uint256,string,uint256)": {
        "notice": "Tale funzione viene chiamata dal TransactionManager per inserire il CheeseBlock venduto dal MilkHub al Retailer  I controlli vengono fatti tutti all'interno del TransactionManager per la verifica dell'esistenza dei due interessati  - Ammettiamo che i controlli sul prodotto vengono gi fatti a monte  - verifichiamo che il Retailer e il MilkHub esistono  - verifichiamo che il CheeseBlock associato al MilkHub esiste  - Aggiungiamo questi dati all'interno del Inventory "
      },
      "isCheeseBlockPresent(address,uint256)": {
        "notice": "Verifica che il CheeseBlock  presente all'interno dell'inventario  - Verifica che l'id non sia nullo e che sia maggiore di 0 e che coincida con l'elemento "
      },
      "updateCheeseBlockQuantity(address,uint256,uint256)": {
        "notice": " - Decremento della quantit del CheeseBlockAcquistato per la trasformazione in Cheese "
      }
    },
    "version": 1
  }
}