{
  "contractName": "RetailerService",
  "abi": [
    {
      "inputs": [
        {
          "internalType": "address",
          "name": "_retailerStorage",
          "type": "address"
        },
        {
          "internalType": "address",
          "name": "_filieraToken",
          "type": "address"
        }
      ],
      "stateMutability": "nonpayable",
      "type": "constructor"
    },
    {
      "anonymous": false,
      "inputs": [
        {
          "indexed": true,
          "internalType": "address",
          "name": "walletRetailer",
          "type": "address"
        },
        {
          "indexed": false,
          "internalType": "string",
          "name": "message",
          "type": "string"
        }
      ],
      "name": "RetailerDeleted",
      "type": "event"
    },
    {
      "anonymous": false,
      "inputs": [
        {
          "indexed": true,
          "internalType": "address",
          "name": "walletRetailer",
          "type": "address"
        },
        {
          "indexed": false,
          "internalType": "string",
          "name": "fullName",
          "type": "string"
        },
        {
          "indexed": false,
          "internalType": "string",
          "name": "message",
          "type": "string"
        }
      ],
      "name": "RetailerRegistered",
      "type": "event"
    },
    {
      "inputs": [
        {
          "internalType": "string",
          "name": "fullName",
          "type": "string"
        },
        {
          "internalType": "string",
          "name": "password",
          "type": "string"
        },
        {
          "internalType": "string",
          "name": "email",
          "type": "string"
        },
        {
          "internalType": "address",
          "name": "walletRetailer",
          "type": "address"
        }
      ],
      "name": "registerRetailer",
      "outputs": [],
      "stateMutability": "nonpayable",
      "type": "function"
    },
    {
      "inputs": [
        {
          "internalType": "address",
          "name": "walletRetailer",
          "type": "address"
        },
        {
          "internalType": "string",
          "name": "email",
          "type": "string"
        },
        {
          "internalType": "string",
          "name": "password",
          "type": "string"
        }
      ],
      "name": "login",
      "outputs": [
        {
          "internalType": "bool",
          "name": "",
          "type": "bool"
        }
      ],
      "stateMutability": "view",
      "type": "function"
    },
    {
      "inputs": [
        {
          "internalType": "address",
          "name": "walletRetailer",
          "type": "address"
        },
        {
          "internalType": "uint256",
          "name": "_id",
          "type": "uint256"
        }
      ],
      "name": "deleteRetailer",
      "outputs": [],
      "stateMutability": "nonpayable",
      "type": "function"
    },
    {
      "inputs": [
        {
          "internalType": "address",
          "name": "walletRetailer",
          "type": "address"
        }
      ],
      "name": "isUserPresent",
      "outputs": [
        {
          "internalType": "bool",
          "name": "",
          "type": "bool"
        }
      ],
      "stateMutability": "view",
      "type": "function"
    },
    {
      "inputs": [
        {
          "internalType": "address",
          "name": "walletRetailer",
          "type": "address"
        }
      ],
      "name": "getRetailerId",
      "outputs": [
        {
          "internalType": "uint256",
          "name": "",
          "type": "uint256"
        }
      ],
      "stateMutability": "view",
      "type": "function"
    },
    {
      "inputs": [
        {
          "internalType": "address",
          "name": "walletRetailer",
          "type": "address"
        },
        {
          "internalType": "uint256",
          "name": "_id",
          "type": "uint256"
        }
      ],
      "name": "getRetailerFullName",
      "outputs": [
        {
          "internalType": "string",
          "name": "",
          "type": "string"
        }
      ],
      "stateMutability": "view",
      "type": "function"
    },
    {
      "inputs": [
        {
          "internalType": "address",
          "name": "walletRetailer",
          "type": "address"
        },
        {
          "internalType": "uint256",
          "name": "_id",
          "type": "uint256"
        }
      ],
      "name": "getRetailerEmail",
      "outputs": [
        {
          "internalType": "string",
          "name": "",
          "type": "string"
        }
      ],
      "stateMutability": "view",
      "type": "function"
    },
    {
      "inputs": [
        {
          "internalType": "address",
          "name": "walletRetailer",
          "type": "address"
        },
        {
          "internalType": "uint256",
          "name": "_id",
          "type": "uint256"
        }
      ],
      "name": "getRetailerBalance",
      "outputs": [
        {
          "internalType": "uint256",
          "name": "",
          "type": "uint256"
        }
      ],
      "stateMutability": "view",
      "type": "function"
    },
    {
      "inputs": [
        {
          "internalType": "address",
          "name": "walletRetailer",
          "type": "address"
        },
        {
          "internalType": "uint256",
          "name": "_id",
          "type": "uint256"
        }
      ],
      "name": "getRetailerData",
      "outputs": [
        {
          "internalType": "uint256",
          "name": "",
          "type": "uint256"
        },
        {
          "internalType": "string",
          "name": "",
          "type": "string"
        },
        {
          "internalType": "string",
          "name": "",
          "type": "string"
        },
        {
          "internalType": "string",
          "name": "",
          "type": "string"
        },
        {
          "internalType": "uint256",
          "name": "",
          "type": "uint256"
        }
      ],
      "stateMutability": "view",
      "type": "function"
    },
    {
      "inputs": [],
      "name": "getListAddressRetailer",
      "outputs": [
        {
          "internalType": "address[]",
          "name": "",
          "type": "address[]"
        }
      ],
      "stateMutability": "view",
      "type": "function"
    },
    {
      "inputs": [
        {
          "internalType": "address",
          "name": "walletRetailer",
          "type": "address"
        },
        {
          "internalType": "uint256",
          "name": "balance",
          "type": "uint256"
        }
      ],
      "name": "updateRetailerBalance",
      "outputs": [],
      "stateMutability": "nonpayable",
      "type": "function"
    }
  ],
  "bytecode": "0x60806040523480156200001157600080fd5b50604051620037b0380380620037b083398181016040528101906200003791906200016b565b816000806101000a81548173ffffffffffffffffffffffffffffffffffffffff021916908373ffffffffffffffffffffffffffffffffffffffff16021790555080600160006101000a81548173ffffffffffffffffffffffffffffffffffffffff021916908373ffffffffffffffffffffffffffffffffffffffff16021790555033600260006101000a81548173ffffffffffffffffffffffffffffffffffffffff021916908373ffffffffffffffffffffffffffffffffffffffff1602179055505050620001b2565b600080fd5b600073ffffffffffffffffffffffffffffffffffffffff82169050919050565b6000620001338262000106565b9050919050565b620001458162000126565b81146200015157600080fd5b50565b60008151905062000165816200013a565b92915050565b6000806040838503121562000185576200018462000101565b5b6000620001958582860162000154565b9250506020620001a88582860162000154565b9150509250929050565b6135ee80620001c26000396000f3fe608060405234801561001057600080fd5b50600436106100a95760003560e01c80638b58007e116100715780638b58007e14610178578063a557880714610194578063b85b5588146101c4578063e3787f90146101f4578063f76fc8de14610224578063f9d3690314610240576100a9565b80630586510d146100ae5780633bc4af2b146100cc5780634a0c3a6d146100e857806351261b80146101185780637932993714610148575b600080fd5b6100b6610274565b6040516100c39190612612565b60405180910390f35b6100e660048036038101906100e191906127ba565b61030f565b005b61010260048036038101906100fd91906128ab565b6107ad565b60405161010f91906128fa565b60405180910390f35b610132600480360381019061012d91906128ab565b610a72565b60405161013f9190612994565b60405180910390f35b610162600480360381019061015d91906129b6565b610d3c565b60405161016f9190612a5c565b60405180910390f35b610192600480360381019061018d91906128ab565b6110bd565b005b6101ae60048036038101906101a99190612a77565b611469565b6040516101bb9190612a5c565b60405180910390f35b6101de60048036038101906101d99190612a77565b61150d565b6040516101eb91906128fa565b60405180910390f35b61020e600480360381019061020991906128ab565b6117cf565b60405161021b9190612994565b60405180910390f35b61023e600480360381019061023991906128ab565b611a99565b005b61025a600480360381019061025591906128ab565b6120b3565b60405161026b959493929190612aa4565b60405180910390f35b606060008054906101000a900473ffffffffffffffffffffffffffffffffffffffff1673ffffffffffffffffffffffffffffffffffffffff16630586510d6040518163ffffffff1660e01b8152600401600060405180830381865afa1580156102e1573d6000803e3d6000fd5b505050506040513d6000823e3d601f19601f8201168201806040525081019061030a9190612be9565b905090565b80600073ffffffffffffffffffffffffffffffffffffffff168173ffffffffffffffffffffffffffffffffffffffff160361037f576040517f08c379a000000000000000000000000000000000000000000000000000000000815260040161037690612c7e565b60405180910390fd5b60008054906101000a900473ffffffffffffffffffffffffffffffffffffffff1673ffffffffffffffffffffffffffffffffffffffff168173ffffffffffffffffffffffffffffffffffffffff160361040d576040517f08c379a000000000000000000000000000000000000000000000000000000000815260040161040490612d10565b60405180910390fd5b600160009054906101000a900473ffffffffffffffffffffffffffffffffffffffff1673ffffffffffffffffffffffffffffffffffffffff168173ffffffffffffffffffffffffffffffffffffffff160361049d576040517f08c379a000000000000000000000000000000000000000000000000000000000815260040161049490612da2565b60405180910390fd5b600260009054906101000a900473ffffffffffffffffffffffffffffffffffffffff1673ffffffffffffffffffffffffffffffffffffffff168173ffffffffffffffffffffffffffffffffffffffff160361052d576040517f08c379a000000000000000000000000000000000000000000000000000000000815260040161052490612e0e565b60405180910390fd5b3073ffffffffffffffffffffffffffffffffffffffff1663a5578807836040518263ffffffff1660e01b81526004016105669190612e3d565b602060405180830381865afa158015610583573d6000803e3d6000fd5b505050506040513d601f19601f820116820180604052508101906105a79190612e84565b156105e7576040517f08c379a00000000000000000000000000000000000000000000000000000000081526004016105de90612efd565b60405180910390fd5b60008054906101000a900473ffffffffffffffffffffffffffffffffffffffff1673ffffffffffffffffffffffffffffffffffffffff1663b48ff0f1868686866040518563ffffffff1660e01b81526004016106469493929190612f1d565b600060405180830381600087803b15801561066057600080fd5b505af1158015610674573d6000803e3d6000fd5b50505050600160009054906101000a900473ffffffffffffffffffffffffffffffffffffffff1673ffffffffffffffffffffffffffffffffffffffff1663a2a7e6228360646040518363ffffffff1660e01b81526004016106d6929190612fbc565b6020604051808303816000875af11580156106f5573d6000803e3d6000fd5b505050506040513d601f19601f820116820180604052508101906107199190612e84565b610758576040517f08c379a000000000000000000000000000000000000000000000000000000000815260040161074f90613031565b60405180910390fd5b8173ffffffffffffffffffffffffffffffffffffffff167fe6b5d116dcecdf6f034ac6b758ce7bdd4a588ae5453a861f8a9f031fca158cc38660405161079e91906130c3565b60405180910390a25050505050565b600082600073ffffffffffffffffffffffffffffffffffffffff168173ffffffffffffffffffffffffffffffffffffffff160361081f576040517f08c379a000000000000000000000000000000000000000000000000000000000815260040161081690612c7e565b60405180910390fd5b60008054906101000a900473ffffffffffffffffffffffffffffffffffffffff1673ffffffffffffffffffffffffffffffffffffffff168173ffffffffffffffffffffffffffffffffffffffff16036108ad576040517f08c379a00000000000000000000000000000000000000000000000000000000081526004016108a490612d10565b60405180910390fd5b600160009054906101000a900473ffffffffffffffffffffffffffffffffffffffff1673ffffffffffffffffffffffffffffffffffffffff168173ffffffffffffffffffffffffffffffffffffffff160361093d576040517f08c379a000000000000000000000000000000000000000000000000000000000815260040161093490612da2565b60405180910390fd5b600260009054906101000a900473ffffffffffffffffffffffffffffffffffffffff1673ffffffffffffffffffffffffffffffffffffffff168173ffffffffffffffffffffffffffffffffffffffff16036109cd576040517f08c379a00000000000000000000000000000000000000000000000000000000081526004016109c490612e0e565b60405180910390fd5b60008054906101000a900473ffffffffffffffffffffffffffffffffffffffff1673ffffffffffffffffffffffffffffffffffffffff16632b04e84085856040518363ffffffff1660e01b8152600401610a289291906130f8565b602060405180830381865afa158015610a45573d6000803e3d6000fd5b505050506040513d601f19601f82011682018060405250810190610a699190613136565b91505092915050565b606082600073ffffffffffffffffffffffffffffffffffffffff168173ffffffffffffffffffffffffffffffffffffffff1603610ae4576040517f08c379a0000000000000000000000000000000000000000000000000000000008152600401610adb90612c7e565b60405180910390fd5b60008054906101000a900473ffffffffffffffffffffffffffffffffffffffff1673ffffffffffffffffffffffffffffffffffffffff168173ffffffffffffffffffffffffffffffffffffffff1603610b72576040517f08c379a0000000000000000000000000000000000000000000000000000000008152600401610b6990612d10565b60405180910390fd5b600160009054906101000a900473ffffffffffffffffffffffffffffffffffffffff1673ffffffffffffffffffffffffffffffffffffffff168173ffffffffffffffffffffffffffffffffffffffff1603610c02576040517f08c379a0000000000000000000000000000000000000000000000000000000008152600401610bf990612da2565b60405180910390fd5b600260009054906101000a900473ffffffffffffffffffffffffffffffffffffffff1673ffffffffffffffffffffffffffffffffffffffff168173ffffffffffffffffffffffffffffffffffffffff1603610c92576040517f08c379a0000000000000000000000000000000000000000000000000000000008152600401610c8990612e0e565b60405180910390fd5b60008054906101000a900473ffffffffffffffffffffffffffffffffffffffff1673ffffffffffffffffffffffffffffffffffffffff1663ecca407385856040518363ffffffff1660e01b8152600401610ced9291906130f8565b600060405180830381865afa158015610d0a573d6000803e3d6000fd5b505050506040513d6000823e3d601f19601f82011682018060405250810190610d3391906131d3565b91505092915050565b600083600073ffffffffffffffffffffffffffffffffffffffff168173ffffffffffffffffffffffffffffffffffffffff1603610dae576040517f08c379a0000000000000000000000000000000000000000000000000000000008152600401610da590612c7e565b60405180910390fd5b60008054906101000a900473ffffffffffffffffffffffffffffffffffffffff1673ffffffffffffffffffffffffffffffffffffffff168173ffffffffffffffffffffffffffffffffffffffff1603610e3c576040517f08c379a0000000000000000000000000000000000000000000000000000000008152600401610e3390612d10565b60405180910390fd5b600160009054906101000a900473ffffffffffffffffffffffffffffffffffffffff1673ffffffffffffffffffffffffffffffffffffffff168173ffffffffffffffffffffffffffffffffffffffff1603610ecc576040517f08c379a0000000000000000000000000000000000000000000000000000000008152600401610ec390612da2565b60405180910390fd5b600260009054906101000a900473ffffffffffffffffffffffffffffffffffffffff1673ffffffffffffffffffffffffffffffffffffffff168173ffffffffffffffffffffffffffffffffffffffff1603610f5c576040517f08c379a0000000000000000000000000000000000000000000000000000000008152600401610f5390612e0e565b60405180910390fd5b3073ffffffffffffffffffffffffffffffffffffffff1663a5578807866040518263ffffffff1660e01b8152600401610f959190612e3d565b602060405180830381865afa158015610fb2573d6000803e3d6000fd5b505050506040513d601f19601f82011682018060405250810190610fd69190612e84565b611015576040517f08c379a000000000000000000000000000000000000000000000000000000000815260040161100c90613268565b60405180910390fd5b60008054906101000a900473ffffffffffffffffffffffffffffffffffffffff1673ffffffffffffffffffffffffffffffffffffffff166306f22b048686866040518463ffffffff1660e01b815260040161107293929190613288565b602060405180830381865afa15801561108f573d6000803e3d6000fd5b505050506040513d601f19601f820116820180604052508101906110b39190612e84565b9150509392505050565b81600073ffffffffffffffffffffffffffffffffffffffff168173ffffffffffffffffffffffffffffffffffffffff160361112d576040517f08c379a000000000000000000000000000000000000000000000000000000000815260040161112490612c7e565b60405180910390fd5b60008054906101000a900473ffffffffffffffffffffffffffffffffffffffff1673ffffffffffffffffffffffffffffffffffffffff168173ffffffffffffffffffffffffffffffffffffffff16036111bb576040517f08c379a00000000000000000000000000000000000000000000000000000000081526004016111b290612d10565b60405180910390fd5b600160009054906101000a900473ffffffffffffffffffffffffffffffffffffffff1673ffffffffffffffffffffffffffffffffffffffff168173ffffffffffffffffffffffffffffffffffffffff160361124b576040517f08c379a000000000000000000000000000000000000000000000000000000000815260040161124290612da2565b60405180910390fd5b600260009054906101000a900473ffffffffffffffffffffffffffffffffffffffff1673ffffffffffffffffffffffffffffffffffffffff168173ffffffffffffffffffffffffffffffffffffffff16036112db576040517f08c379a00000000000000000000000000000000000000000000000000000000081526004016112d290612e0e565b60405180910390fd5b6000821161131e576040517f08c379a000000000000000000000000000000000000000000000000000000000815260040161131590613319565b60405180910390fd5b3073ffffffffffffffffffffffffffffffffffffffff1663a5578807846040518263ffffffff1660e01b81526004016113579190612e3d565b602060405180830381865afa158015611374573d6000803e3d6000fd5b505050506040513d601f19601f820116820180604052508101906113989190612e84565b6113d7576040517f08c379a00000000000000000000000000000000000000000000000000000000081526004016113ce90613385565b60405180910390fd5b60008054906101000a900473ffffffffffffffffffffffffffffffffffffffff1673ffffffffffffffffffffffffffffffffffffffff1663e0b1cccb84846040518363ffffffff1660e01b81526004016114329291906130f8565b600060405180830381600087803b15801561144c57600080fd5b505af1158015611460573d6000803e3d6000fd5b50505050505050565b60008060009054906101000a900473ffffffffffffffffffffffffffffffffffffffff1673ffffffffffffffffffffffffffffffffffffffff1663a5578807836040518263ffffffff1660e01b81526004016114c59190612e3d565b602060405180830381865afa1580156114e2573d6000803e3d6000fd5b505050506040513d601f19601f820116820180604052508101906115069190612e84565b9050919050565b600081600073ffffffffffffffffffffffffffffffffffffffff168173ffffffffffffffffffffffffffffffffffffffff160361157f576040517f08c379a000000000000000000000000000000000000000000000000000000000815260040161157690612c7e565b60405180910390fd5b60008054906101000a900473ffffffffffffffffffffffffffffffffffffffff1673ffffffffffffffffffffffffffffffffffffffff168173ffffffffffffffffffffffffffffffffffffffff160361160d576040517f08c379a000000000000000000000000000000000000000000000000000000000815260040161160490612d10565b60405180910390fd5b600160009054906101000a900473ffffffffffffffffffffffffffffffffffffffff1673ffffffffffffffffffffffffffffffffffffffff168173ffffffffffffffffffffffffffffffffffffffff160361169d576040517f08c379a000000000000000000000000000000000000000000000000000000000815260040161169490612da2565b60405180910390fd5b600260009054906101000a900473ffffffffffffffffffffffffffffffffffffffff1673ffffffffffffffffffffffffffffffffffffffff168173ffffffffffffffffffffffffffffffffffffffff160361172d576040517f08c379a000000000000000000000000000000000000000000000000000000000815260040161172490612e0e565b60405180910390fd5b60008054906101000a900473ffffffffffffffffffffffffffffffffffffffff1673ffffffffffffffffffffffffffffffffffffffff166365f68c89846040518263ffffffff1660e01b81526004016117869190612e3d565b602060405180830381865afa1580156117a3573d6000803e3d6000fd5b505050506040513d601f19601f820116820180604052508101906117c79190613136565b915050919050565b606082600073ffffffffffffffffffffffffffffffffffffffff168173ffffffffffffffffffffffffffffffffffffffff1603611841576040517f08c379a000000000000000000000000000000000000000000000000000000000815260040161183890612c7e565b60405180910390fd5b60008054906101000a900473ffffffffffffffffffffffffffffffffffffffff1673ffffffffffffffffffffffffffffffffffffffff168173ffffffffffffffffffffffffffffffffffffffff16036118cf576040517f08c379a00000000000000000000000000000000000000000000000000000000081526004016118c690612d10565b60405180910390fd5b600160009054906101000a900473ffffffffffffffffffffffffffffffffffffffff1673ffffffffffffffffffffffffffffffffffffffff168173ffffffffffffffffffffffffffffffffffffffff160361195f576040517f08c379a000000000000000000000000000000000000000000000000000000000815260040161195690612da2565b60405180910390fd5b600260009054906101000a900473ffffffffffffffffffffffffffffffffffffffff1673ffffffffffffffffffffffffffffffffffffffff168173ffffffffffffffffffffffffffffffffffffffff16036119ef576040517f08c379a00000000000000000000000000000000000000000000000000000000081526004016119e690612e0e565b60405180910390fd5b60008054906101000a900473ffffffffffffffffffffffffffffffffffffffff1673ffffffffffffffffffffffffffffffffffffffff16636e44cd4285856040518363ffffffff1660e01b8152600401611a4a9291906130f8565b600060405180830381865afa158015611a67573d6000803e3d6000fd5b505050506040513d6000823e3d601f19601f82011682018060405250810190611a9091906131d3565b91505092915050565b81600073ffffffffffffffffffffffffffffffffffffffff168173ffffffffffffffffffffffffffffffffffffffff1603611b09576040517f08c379a0000000000000000000000000000000000000000000000000000000008152600401611b0090612c7e565b60405180910390fd5b60008054906101000a900473ffffffffffffffffffffffffffffffffffffffff1673ffffffffffffffffffffffffffffffffffffffff168173ffffffffffffffffffffffffffffffffffffffff1603611b97576040517f08c379a0000000000000000000000000000000000000000000000000000000008152600401611b8e90612d10565b60405180910390fd5b600160009054906101000a900473ffffffffffffffffffffffffffffffffffffffff1673ffffffffffffffffffffffffffffffffffffffff168173ffffffffffffffffffffffffffffffffffffffff1603611c27576040517f08c379a0000000000000000000000000000000000000000000000000000000008152600401611c1e90612da2565b60405180910390fd5b600260009054906101000a900473ffffffffffffffffffffffffffffffffffffffff1673ffffffffffffffffffffffffffffffffffffffff168173ffffffffffffffffffffffffffffffffffffffff1603611cb7576040517f08c379a0000000000000000000000000000000000000000000000000000000008152600401611cae90612e0e565b60405180910390fd5b3073ffffffffffffffffffffffffffffffffffffffff1663a5578807846040518263ffffffff1660e01b8152600401611cf09190612e3d565b602060405180830381865afa158015611d0d573d6000803e3d6000fd5b505050506040513d601f19601f82011682018060405250810190611d319190612e84565b611d70576040517f08c379a0000000000000000000000000000000000000000000000000000000008152600401611d6790613268565b60405180910390fd5b8160008054906101000a900473ffffffffffffffffffffffffffffffffffffffff1673ffffffffffffffffffffffffffffffffffffffff166365f68c89856040518263ffffffff1660e01b8152600401611dca9190612e3d565b602060405180830381865afa158015611de7573d6000803e3d6000fd5b505050506040513d601f19601f82011682018060405250810190611e0b9190613136565b14611e4b576040517f08c379a0000000000000000000000000000000000000000000000000000000008152600401611e42906133f1565b60405180910390fd5b60008054906101000a900473ffffffffffffffffffffffffffffffffffffffff1673ffffffffffffffffffffffffffffffffffffffff16635c60f226846040518263ffffffff1660e01b8152600401611ea49190612e3d565b6020604051808303816000875af1158015611ec3573d6000803e3d6000fd5b505050506040513d601f19601f82011682018060405250810190611ee79190612e84565b611f26576040517f08c379a0000000000000000000000000000000000000000000000000000000008152600401611f1d9061345d565b60405180910390fd5b600160009054906101000a900473ffffffffffffffffffffffffffffffffffffffff1673ffffffffffffffffffffffffffffffffffffffff1663d1df306c84600160009054906101000a900473ffffffffffffffffffffffffffffffffffffffff1673ffffffffffffffffffffffffffffffffffffffff166370a08231876040518263ffffffff1660e01b8152600401611fc09190612e3d565b602060405180830381865afa158015611fdd573d6000803e3d6000fd5b505050506040513d601f19601f820116820180604052508101906120019190613136565b6040518363ffffffff1660e01b815260040161201e9291906130f8565b6020604051808303816000875af115801561203d573d6000803e3d6000fd5b505050506040513d601f19601f820116820180604052508101906120619190612e84565b508273ffffffffffffffffffffffffffffffffffffffff167f7cf5ecb99f7efa8bb23f739686f2b2d9dc056e34cc56b0f61d245c10ccae1b876040516120a6906134c9565b60405180910390a2505050565b60006060806060600086600073ffffffffffffffffffffffffffffffffffffffff168173ffffffffffffffffffffffffffffffffffffffff160361212c576040517f08c379a000000000000000000000000000000000000000000000000000000000815260040161212390612c7e565b60405180910390fd5b60008054906101000a900473ffffffffffffffffffffffffffffffffffffffff1673ffffffffffffffffffffffffffffffffffffffff168173ffffffffffffffffffffffffffffffffffffffff16036121ba576040517f08c379a00000000000000000000000000000000000000000000000000000000081526004016121b190612d10565b60405180910390fd5b600160009054906101000a900473ffffffffffffffffffffffffffffffffffffffff1673ffffffffffffffffffffffffffffffffffffffff168173ffffffffffffffffffffffffffffffffffffffff160361224a576040517f08c379a000000000000000000000000000000000000000000000000000000000815260040161224190612da2565b60405180910390fd5b600260009054906101000a900473ffffffffffffffffffffffffffffffffffffffff1673ffffffffffffffffffffffffffffffffffffffff168173ffffffffffffffffffffffffffffffffffffffff16036122da576040517f08c379a00000000000000000000000000000000000000000000000000000000081526004016122d190612e0e565b60405180910390fd5b3073ffffffffffffffffffffffffffffffffffffffff1663a5578807896040518263ffffffff1660e01b81526004016123139190612e3d565b602060405180830381865afa158015612330573d6000803e3d6000fd5b505050506040513d601f19601f820116820180604052508101906123549190612e84565b612393576040517f08c379a000000000000000000000000000000000000000000000000000000000815260040161238a90613268565b60405180910390fd5b8660008054906101000a900473ffffffffffffffffffffffffffffffffffffffff1673ffffffffffffffffffffffffffffffffffffffff166365f68c898a6040518263ffffffff1660e01b81526004016123ed9190612e3d565b602060405180830381865afa15801561240a573d6000803e3d6000fd5b505050506040513d601f19601f8201168201806040525081019061242e9190613136565b1461246e576040517f08c379a0000000000000000000000000000000000000000000000000000000008152600401612465906133f1565b60405180910390fd5b60008054906101000a900473ffffffffffffffffffffffffffffffffffffffff1673ffffffffffffffffffffffffffffffffffffffff16636f77926b896040518263ffffffff1660e01b81526004016124c79190612e3d565b600060405180830381865afa1580156124e4573d6000803e3d6000fd5b505050506040513d6000823e3d601f19601f8201168201806040525081019061250d91906134e9565b95509550955095509550509295509295909350565b600081519050919050565b600082825260208201905092915050565b6000819050602082019050919050565b600073ffffffffffffffffffffffffffffffffffffffff82169050919050565b60006125798261254e565b9050919050565b6125898161256e565b82525050565b600061259b8383612580565b60208301905092915050565b6000602082019050919050565b60006125bf82612522565b6125c9818561252d565b93506125d48361253e565b8060005b838110156126055781516125ec888261258f565b97506125f7836125a7565b9250506001810190506125d8565b5085935050505092915050565b6000602082019050818103600083015261262c81846125b4565b905092915050565b6000604051905090565b600080fd5b600080fd5b600080fd5b600080fd5b6000601f19601f8301169050919050565b7f4e487b7100000000000000000000000000000000000000000000000000000000600052604160045260246000fd5b61269b82612652565b810181811067ffffffffffffffff821117156126ba576126b9612663565b5b80604052505050565b60006126cd612634565b90506126d98282612692565b919050565b600067ffffffffffffffff8211156126f9576126f8612663565b5b61270282612652565b9050602081019050919050565b82818337600083830152505050565b600061273161272c846126de565b6126c3565b90508281526020810184848401111561274d5761274c61264d565b5b61275884828561270f565b509392505050565b600082601f83011261277557612774612648565b5b813561278584826020860161271e565b91505092915050565b6127978161256e565b81146127a257600080fd5b50565b6000813590506127b48161278e565b92915050565b600080600080608085870312156127d4576127d361263e565b5b600085013567ffffffffffffffff8111156127f2576127f1612643565b5b6127fe87828801612760565b945050602085013567ffffffffffffffff81111561281f5761281e612643565b5b61282b87828801612760565b935050604085013567ffffffffffffffff81111561284c5761284b612643565b5b61285887828801612760565b9250506060612869878288016127a5565b91505092959194509250565b6000819050919050565b61288881612875565b811461289357600080fd5b50565b6000813590506128a58161287f565b92915050565b600080604083850312156128c2576128c161263e565b5b60006128d0858286016127a5565b92505060206128e185828601612896565b9150509250929050565b6128f481612875565b82525050565b600060208201905061290f60008301846128eb565b92915050565b600081519050919050565b600082825260208201905092915050565b60005b8381101561294f578082015181840152602081019050612934565b60008484015250505050565b600061296682612915565b6129708185612920565b9350612980818560208601612931565b61298981612652565b840191505092915050565b600060208201905081810360008301526129ae818461295b565b905092915050565b6000806000606084860312156129cf576129ce61263e565b5b60006129dd868287016127a5565b935050602084013567ffffffffffffffff8111156129fe576129fd612643565b5b612a0a86828701612760565b925050604084013567ffffffffffffffff811115612a2b57612a2a612643565b5b612a3786828701612760565b9150509250925092565b60008115159050919050565b612a5681612a41565b82525050565b6000602082019050612a716000830184612a4d565b92915050565b600060208284031215612a8d57612a8c61263e565b5b6000612a9b848285016127a5565b91505092915050565b600060a082019050612ab960008301886128eb565b8181036020830152612acb818761295b565b90508181036040830152612adf818661295b565b90508181036060830152612af3818561295b565b9050612b0260808301846128eb565b9695505050505050565b600067ffffffffffffffff821115612b2757612b26612663565b5b602082029050602081019050919050565b600080fd5b600081519050612b4c8161278e565b92915050565b6000612b65612b6084612b0c565b6126c3565b90508083825260208201905060208402830185811115612b8857612b87612b38565b5b835b81811015612bb15780612b9d8882612b3d565b845260208401935050602081019050612b8a565b5050509392505050565b600082601f830112612bd057612bcf612648565b5b8151612be0848260208601612b52565b91505092915050565b600060208284031215612bff57612bfe61263e565b5b600082015167ffffffffffffffff811115612c1d57612c1c612643565b5b612c2984828501612bbb565b91505092915050565b7f41646472657373206973207a65726f0000000000000000000000000000000000600082015250565b6000612c68600f83612920565b9150612c7382612c32565b602082019050919050565b60006020820190508181036000830152612c9781612c5b565b9050919050565b7f416464726573732069732052657461696c657253746f7261676520536d61727460008201527f20436f6e74726163742100000000000000000000000000000000000000000000602082015250565b6000612cfa602a83612920565b9150612d0582612c9e565b604082019050919050565b60006020820190508181036000830152612d2981612ced565b9050919050565b7f416464726573732069732046696c69657261546f6b656e20536d61727420436f60008201527f6e74726163742100000000000000000000000000000000000000000000000000602082015250565b6000612d8c602783612920565b9150612d9782612d30565b604082019050919050565b60006020820190508181036000830152612dbb81612d7f565b9050919050565b7f4f7267616e697a6174696f6e2061646472657373000000000000000000000000600082015250565b6000612df8601483612920565b9150612e0382612dc2565b602082019050919050565b60006020820190508181036000830152612e2781612deb565b9050919050565b612e378161256e565b82525050565b6000602082019050612e526000830184612e2e565b92915050565b612e6181612a41565b8114612e6c57600080fd5b50565b600081519050612e7e81612e58565b92915050565b600060208284031215612e9a57612e9961263e565b5b6000612ea884828501612e6f565b91505092915050565b7f5574656e74652067696127207265676973747261746f20210000000000000000600082015250565b6000612ee7601883612920565b9150612ef282612eb1565b602082019050919050565b60006020820190508181036000830152612f1681612eda565b9050919050565b60006080820190508181036000830152612f37818761295b565b90508181036020830152612f4b818661295b565b90508181036040830152612f5f818561295b565b9050612f6e6060830184612e2e565b95945050505050565b6000819050919050565b6000819050919050565b6000612fa6612fa1612f9c84612f77565b612f81565b612875565b9050919050565b612fb681612f8b565b82525050565b6000604082019050612fd16000830185612e2e565b612fde6020830184612fad565b9392505050565b7f5472616e7366657220546f6b656e206e6f742056616c69642100000000000000600082015250565b600061301b601983612920565b915061302682612fe5565b602082019050919050565b6000602082019050818103600083015261304a8161300e565b9050919050565b7f5574656e74652052657461696c657220652720737461746f207265676973747260008201527f61746f2100000000000000000000000000000000000000000000000000000000602082015250565b60006130ad602483612920565b91506130b882613051565b604082019050919050565b600060408201905081810360008301526130dd818461295b565b905081810360208301526130f0816130a0565b905092915050565b600060408201905061310d6000830185612e2e565b61311a60208301846128eb565b9392505050565b6000815190506131308161287f565b92915050565b60006020828403121561314c5761314b61263e565b5b600061315a84828501613121565b91505092915050565b6000613176613171846126de565b6126c3565b9050828152602081018484840111156131925761319161264d565b5b61319d848285612931565b509392505050565b600082601f8301126131ba576131b9612648565b5b81516131ca848260208601613163565b91505092915050565b6000602082840312156131e9576131e861263e565b5b600082015167ffffffffffffffff81111561320757613206612643565b5b613213848285016131a5565b91505092915050565b7f5574656e7465206e6f6e2065272070726573656e746521000000000000000000600082015250565b6000613252601783612920565b915061325d8261321c565b602082019050919050565b6000602082019050818103600083015261328181613245565b9050919050565b600060608201905061329d6000830186612e2e565b81810360208301526132af818561295b565b905081810360408301526132c3818461295b565b9050949350505050565b7f42616c616e6365204e6f742056616c6964000000000000000000000000000000600082015250565b6000613303601183612920565b915061330e826132cd565b602082019050919050565b60006020820190508181036000830152613332816132f6565b9050919050565b7f55736572204e6f7420466f756e64210000000000000000000000000000000000600082015250565b600061336f600f83612920565b915061337a82613339565b602082019050919050565b6000602082019050818103600083015261339e81613362565b9050919050565b7f5574656e7465206e6f6e204175746f72697a7a61746f21000000000000000000600082015250565b60006133db601783612920565b91506133e6826133a5565b602082019050919050565b6000602082019050818103600083015261340a816133ce565b9050919050565b7f4572726f726520647572616e7465206c612063616e63656c6c617a696f6e6500600082015250565b6000613447601f83612920565b915061345282613411565b602082019050919050565b600060208201905081810360008301526134768161343a565b9050919050565b7f5574656e746520652720737461746f20656c696d696e61746f21000000000000600082015250565b60006134b3601a83612920565b91506134be8261347d565b602082019050919050565b600060208201905081810360008301526134e2816134a6565b9050919050565b600080600080600060a086880312156135055761350461263e565b5b600061351388828901613121565b955050602086015167ffffffffffffffff81111561353457613533612643565b5b613540888289016131a5565b945050604086015167ffffffffffffffff81111561356157613560612643565b5b61356d888289016131a5565b935050606086015167ffffffffffffffff81111561358e5761358d612643565b5b61359a888289016131a5565b92505060806135ab88828901613121565b915050929550929590935056fea2646970667358221220b87d8b054c6f42f8f8a38321a7fa15ee4b81a29da1fe5dedc4d305cf51882d3264736f6c63430008180033",
  "immutableReferences": {},
  "source": "// SPDX-License-Identifier: MIT\r\npragma solidity ^0.8.0;\r\n\r\nimport \"./RetailerStorage.sol\";\r\nimport \"../../Service/Filieratoken.sol\";\r\n\r\n\r\ncontract RetailerService {\r\n\r\n//-------------------------------------------------------------------- Contract Address Service --------------------------------------------------------------------//\r\n\r\n\r\n    // Address of Consumer Storage \r\n    RetailerStorage private retailerStorage;\r\n    \r\n    // Address of Token FT - ERC-20\r\n    Filieratoken private filieraToken;\r\n\r\n    // Address of Organization che gestisce gli utenti\r\n    address private  RetailerOrg;\r\n\r\n\r\n\r\n// --------------------------------------------------------------------- Event of Service ----------------------------------------------------------------//\r\n\r\n    // Evento emesso al momento della cancellazione di un consumatore\r\n    event RetailerDeleted(address indexed walletRetailer, string message);\r\n    // Evento emesso al momento della registrazione di un consumatore\r\n    event RetailerRegistered(address indexed walletRetailer, string fullName, string message);\r\n\r\n\r\n\r\n//---------------------------------------------------------------------- Constructor ----------------------------------------------------------------------------//    \r\n    constructor(address _retailerStorage, address _filieraToken) {\r\n        retailerStorage = RetailerStorage(_retailerStorage);\r\n        filieraToken = Filieratoken(_filieraToken);\r\n        RetailerOrg = msg.sender;\r\n    }\r\n\r\n// ------------------------------------------------------------ Modifier Of Service ---------------------------------------------------------------------------------//\r\n\r\n\r\n    modifier onlyOrg(address sender){\r\n        require(sender == RetailerOrg,\"User Not Authorized!\");\r\n        _;\r\n    }\r\n\r\n    // Verifica chi effettua la transazione : \r\n    // Verfica che l'address non sia l'organizzazione \r\n    // Verfica che l'address non sia lo smart contract del RetailerStorage e FilieraToken \r\n    modifier checkAddress(address walletRetailer){\r\n\r\n        require(walletRetailer != address(0),\"Address is zero\");\r\n        require(walletRetailer != address(retailerStorage), \"Address is RetailerStorage Smart Contract!\");\r\n        require(walletRetailer != address(filieraToken), \"Address is FilieraToken Smart Contract!\" );\r\n        require(walletRetailer != RetailerOrg ,\"Organization address\");\r\n\r\n        _;\r\n    }\r\n\r\n\r\n//--------------------------------------------------------------- Business Logic -------------------------------------------------------------------------------------------//\r\n\r\n    /**\r\n     * registerRetailer() registra gli utenti della piattaforma che sono Retailer \r\n     * - Inserisce i dati all'interno della Blockchain\r\n     * - Trasferisce 100 token dal contratto di FilieraToken \r\n     * - Emette un evento appena l'utente  stato registrato \r\n     *  */ \r\n    function registerRetailer(string memory fullName, string memory password, string memory email, address walletRetailer) external checkAddress(walletRetailer) {\r\n\r\n        // Verifica che l'utente  gia' presente \r\n        require(!(this.isUserPresent(walletRetailer)), \"Utente gia' registrato !\");\r\n\r\n        // Chiama la funzione di Storage \r\n        retailerStorage.addUser(fullName, password, email, walletRetailer);\r\n\r\n        // Autogenera dei token nel balance del Retailer \r\n        require(filieraToken.registerUserWithToken(address(walletRetailer), 100),\"Transfer Token not Valid!\");\r\n\r\n        // Emette l'evento della registrazione dell'utente\r\n        emit RetailerRegistered(walletRetailer, fullName, \"Utente Retailer e' stato registrato!\");\r\n    }\r\n\r\n    /**\r\n     * login() effettua la Login con email e password \r\n     * - Inserisce l'email e la password \r\n     * - return True se l'utente esiste ed ha accesso con le giuste credenziali \r\n     * - return False altrimenti \r\n     */\r\n    function login(address walletRetailer, string memory email, string memory password) external view checkAddress(walletRetailer)  returns(bool) {\r\n\r\n        // Verifichiamo che l'utente  presente \r\n        require(this.isUserPresent(walletRetailer),\"Utente non e' presente!\");\r\n        \r\n        return retailerStorage.loginUser(walletRetailer, email, password);\r\n    }\r\n\r\n\r\n    /**\r\n     * deleteRetailer() elimina un Retailer all'interno del sistema \r\n     * - Solo l'owner pu effettuare l'eliminazione \r\n     * - msg.sender dovrebbe essere solo quello dell'owner \r\n     */\r\n    function deleteRetailer(address walletRetailer, uint256 _id) external checkAddress(walletRetailer)  {\r\n        \r\n        // Verifico che l'utente  presente \r\n        require(this.isUserPresent(walletRetailer), \"Utente non e' presente!\");\r\n        // Restituisce l'id del Retailer tramite il suo address wallet\r\n        require(retailerStorage.getId(walletRetailer) == _id , \"Utente non Autorizzato!\");\r\n        // Effettuo la cancellazione dell'utente \r\n        require(retailerStorage.deleteUser(walletRetailer), \"Errore durante la cancellazione\");\r\n        // Burn all token ( elimina i token che sono in circolazione, di un utente che non effettua transazioni ) \r\n        filieraToken.burnToken(walletRetailer, filieraToken.balanceOf(walletRetailer));\r\n        // Emit Event on FireFly \r\n        emit RetailerDeleted(walletRetailer,\"Utente e' stato eliminato!\");\r\n    }\r\n\r\n// --------------------------------------------------------------------------- RetailerInventoryService ----------------------------------------------------//\r\n\r\n    function isUserPresent(address walletRetailer) external view returns(bool){\r\n        \r\n        return retailerStorage.isUserPresent(walletRetailer);\r\n    }\r\n\r\n\r\n\r\n//----------------------------------------------------------------------------- Get Function ----------------------------------------------------------------------//\r\n\r\n    /**\r\n        -  Funzione getRetailerId() attraverso l'address del Retailer siamo riusciti ad ottenere il suo ID\r\n    */\r\n    function getRetailerId(address walletRetailer) external view checkAddress(walletRetailer)  returns (uint256){\r\n        \r\n        return retailerStorage.getId(walletRetailer);\r\n    }\r\n\r\n    \r\n    /**\r\n        - Funzione getFullName() attraverso l'address del Retailer riusciamo a recuperare il suo FullName\r\n    */\r\n    function getRetailerFullName(address walletRetailer,uint256 _id) external view checkAddress(walletRetailer) returns(string memory){\r\n\r\n        return retailerStorage.getFullName(walletRetailer,_id);\r\n    }\r\n\r\n    /**\r\n        - Funzione getEmail() attraverso l'address del Retailer riusciamo a recuperare la sua Email \r\n    */\r\n    function getRetailerEmail(address walletRetailer, uint256 _id) external view checkAddress(walletRetailer) returns(string memory){\r\n        \r\n        return retailerStorage.getEmail(walletRetailer,_id);\r\n    }\r\n\r\n\r\n    /**\r\n        - Funzione getBalance() attraverso l'address del Retailer riusciamo a recuperare il suo Balance\r\n    */\r\n    function getRetailerBalance(address walletRetailer, uint256 _id) external view checkAddress(walletRetailer)  returns(uint256){\r\n\r\n        return retailerStorage.getBalance(walletRetailer,_id);\r\n    }\r\n\r\n    /**\r\n     * getRetailerData() otteniamo i dati del Retailer\r\n     * - tramite l'address del Retailer riusciamo a visualizzare anche i suoi dati\r\n     * - Dati sensibili e visibili solo dal Retailer stesso \r\n     */\r\n    function getRetailerData(address walletRetailer, uint256 _id) external checkAddress(walletRetailer) view returns (uint256, string memory, string memory, string memory, uint256) {\r\n        // Verifico che l'utente  presente \r\n        require(this.isUserPresent(walletRetailer), \"Utente non e' presente!\");\r\n        // Restituisce l'id del Retailer tramite il suo address wallet\r\n        require(retailerStorage.getId(walletRetailer) == _id , \"Utente non Autorizzato!\");\r\n        // Call function of Storage         \r\n        return retailerStorage.getUser(walletRetailer);\r\n    }\r\n\r\n    function getListAddressRetailer() external view returns ( address [ ] memory){\r\n        return retailerStorage.getListAddressRetailer();\r\n    }\r\n\r\n//------------------------------------------------------------ Set Function -------------------------------------------------------------------//\r\n\r\n    // - Funzione updateBalance() attraverso l'address e l'id, riusciamo a settare il nuovo balance\r\n    function updateRetailerBalance(address walletRetailer, uint256 balance) external checkAddress(walletRetailer) {\r\n        // Verifico che il Balance sia >0 \r\n        require(balance>0,\"Balance Not Valid\");\r\n        // Verifico che l'utente esista \r\n        require(this.isUserPresent(walletRetailer),\"User Not Found!\");\r\n        // Update Balance \r\n        retailerStorage.updateBalance(walletRetailer, balance);\r\n    }\r\n\r\n\r\n// ------------------------------------------------------------ Change Address Contract of Service -----------------------------------------------------//\r\n\r\n\r\n    function changeRetailerStorage(address _retailerStorageNew)private {\r\n        retailerStorage = RetailerStorage(_retailerStorageNew);\r\n    }\r\n\r\n\r\n    function changeFilieraToken(address _filieraToken)private {\r\n        filieraToken = Filieratoken(_filieraToken);\r\n    }\r\n\r\n\r\n}\r\n",
  "sourcePath": "C:\\Users\\umber\\Progetti\\FilieraToken\\Filiera-Token-Smart-Contract\\contracts\\Actor\\Retailer-smart-contract\\RetailerService.sol",
  "compiler": {
    "name": "solc",
    "version": "0.8.24+commit.e11b9ed9.Emscripten.clang"
  },
  "schemaVersion": "3.4.16",
  "updatedAt": "2024-02-29T15:58:14.647Z",
  "devdoc": {
    "kind": "dev",
    "methods": {},
    "version": 1
  },
  "userdoc": {
    "kind": "user",
    "methods": {
      "deleteRetailer(address,uint256)": {
        "notice": "deleteRetailer() elimina un Retailer all'interno del sistema  - Solo l'owner pu effettuare l'eliminazione  - msg.sender dovrebbe essere solo quello dell'owner "
      },
      "getRetailerBalance(address,uint256)": {
        "notice": "- Funzione getBalance() attraverso l'address del Retailer riusciamo a recuperare il suo Balance"
      },
      "getRetailerData(address,uint256)": {
        "notice": "getRetailerData() otteniamo i dati del Retailer - tramite l'address del Retailer riusciamo a visualizzare anche i suoi dati - Dati sensibili e visibili solo dal Retailer stesso "
      },
      "getRetailerEmail(address,uint256)": {
        "notice": "- Funzione getEmail() attraverso l'address del Retailer riusciamo a recuperare la sua Email "
      },
      "getRetailerFullName(address,uint256)": {
        "notice": "- Funzione getFullName() attraverso l'address del Retailer riusciamo a recuperare il suo FullName"
      },
      "getRetailerId(address)": {
        "notice": "-  Funzione getRetailerId() attraverso l'address del Retailer siamo riusciti ad ottenere il suo ID"
      },
      "login(address,string,string)": {
        "notice": "login() effettua la Login con email e password  - Inserisce l'email e la password  - return True se l'utente esiste ed ha accesso con le giuste credenziali  - return False altrimenti "
      },
      "registerRetailer(string,string,string,address)": {
        "notice": "registerRetailer() registra gli utenti della piattaforma che sono Retailer  - Inserisce i dati all'interno della Blockchain - Trasferisce 100 token dal contratto di FilieraToken  - Emette un evento appena l'utente  stato registrato   "
      }
    },
    "version": 1
  }
}