{
  "contractName": "RetailerInventoryStorage",
  "abi": [
    {
      "inputs": [],
      "stateMutability": "nonpayable",
      "type": "constructor"
    },
    {
      "inputs": [
        {
          "internalType": "address",
          "name": "walletRetailer",
          "type": "address"
        },
        {
          "internalType": "uint256",
          "name": "_id_CheeseBlock",
          "type": "uint256"
        },
        {
          "internalType": "uint256",
          "name": "_price",
          "type": "uint256"
        },
        {
          "internalType": "uint256",
          "name": "_weight",
          "type": "uint256"
        }
      ],
      "name": "addCheesePiece",
      "outputs": [
        {
          "internalType": "uint256",
          "name": "",
          "type": "uint256"
        },
        {
          "internalType": "uint256",
          "name": "",
          "type": "uint256"
        },
        {
          "internalType": "uint256",
          "name": "",
          "type": "uint256"
        }
      ],
      "stateMutability": "nonpayable",
      "type": "function"
    },
    {
      "inputs": [
        {
          "internalType": "address",
          "name": "walletRetailer",
          "type": "address"
        },
        {
          "internalType": "uint256",
          "name": "_id",
          "type": "uint256"
        }
      ],
      "name": "getCheesePiece",
      "outputs": [
        {
          "internalType": "uint256",
          "name": "",
          "type": "uint256"
        },
        {
          "internalType": "uint256",
          "name": "",
          "type": "uint256"
        },
        {
          "internalType": "uint256",
          "name": "",
          "type": "uint256"
        }
      ],
      "stateMutability": "view",
      "type": "function"
    },
    {
      "inputs": [
        {
          "internalType": "address",
          "name": "walletRetailer",
          "type": "address"
        },
        {
          "internalType": "uint256",
          "name": "_id",
          "type": "uint256"
        }
      ],
      "name": "deleteCheesePiece",
      "outputs": [
        {
          "internalType": "bool",
          "name": "value",
          "type": "bool"
        }
      ],
      "stateMutability": "nonpayable",
      "type": "function"
    },
    {
      "inputs": [
        {
          "internalType": "address",
          "name": "walletRetailer",
          "type": "address"
        },
        {
          "internalType": "uint256",
          "name": "_id_CheesePiece",
          "type": "uint256"
        }
      ],
      "name": "isCheesePiecePresent",
      "outputs": [
        {
          "internalType": "bool",
          "name": "",
          "type": "bool"
        }
      ],
      "stateMutability": "view",
      "type": "function"
    },
    {
      "inputs": [
        {
          "internalType": "address",
          "name": "walletRetailer",
          "type": "address"
        },
        {
          "internalType": "uint256",
          "name": "_id",
          "type": "uint256"
        }
      ],
      "name": "getPrice",
      "outputs": [
        {
          "internalType": "uint256",
          "name": "",
          "type": "uint256"
        }
      ],
      "stateMutability": "view",
      "type": "function"
    },
    {
      "inputs": [
        {
          "internalType": "address",
          "name": "walletRetailer",
          "type": "address"
        },
        {
          "internalType": "uint256",
          "name": "_id",
          "type": "uint256"
        }
      ],
      "name": "getWeight",
      "outputs": [
        {
          "internalType": "uint256",
          "name": "",
          "type": "uint256"
        }
      ],
      "stateMutability": "view",
      "type": "function"
    },
    {
      "inputs": [
        {
          "internalType": "address",
          "name": "walletRetailer",
          "type": "address"
        },
        {
          "internalType": "uint256",
          "name": "_id_Cheese",
          "type": "uint256"
        },
        {
          "internalType": "uint256",
          "name": "_newQuantity",
          "type": "uint256"
        }
      ],
      "name": "updateWeight",
      "outputs": [],
      "stateMutability": "nonpayable",
      "type": "function"
    }
  ],
  "bytecode": "0x608060405234801561001057600080fd5b50336000806101000a81548173ffffffffffffffffffffffffffffffffffffffff021916908373ffffffffffffffffffffffffffffffffffffffff160217905550610c2e806100606000396000f3fe608060405234801561001057600080fd5b506004361061007d5760003560e01c80635a52c6571161005b5780635a52c657146101145780635e523adb146101465780639bc7c21c14610162578063afd47d3e146101925761007d565b80630b7aa47314610082578063348b4c5a146100b4578063449e815d146100e4575b600080fd5b61009c6004803603810190610097919061080f565b6101c2565b6040516100ab9392919061085e565b60405180910390f35b6100ce60048036038101906100c9919061080f565b610260565b6040516100db91906108b0565b60405180910390f35b6100fe60048036038101906100f9919061080f565b61033c565b60405161010b91906108cb565b60405180910390f35b61012e600480360381019061012991906108e6565b6103c8565b60405161013d9392919061085e565b60405180910390f35b610160600480360381019061015b919061094d565b610548565b005b61017c6004803603810190610177919061080f565b61063b565b60405161018991906108b0565b60405180910390f35b6101ac60048036038101906101a7919061080f565b6106ea565b6040516101b991906108cb565b60405180910390f35b600080600080600160008773ffffffffffffffffffffffffffffffffffffffff1673ffffffffffffffffffffffffffffffffffffffff168152602001908152602001600020600086815260200190815260200160002060405180606001604052908160008201548152602001600182015481526020016002820154815250509050806000015181602001518260400151935093509350509250925092565b6000600160008473ffffffffffffffffffffffffffffffffffffffff1673ffffffffffffffffffffffffffffffffffffffff16815260200190815260200160002060008381526020019081526020016000206000808201600090556001820160009055600282016000905550506000600160008573ffffffffffffffffffffffffffffffffffffffff1673ffffffffffffffffffffffffffffffffffffffff168152602001908152602001600020600084815260200190815260200160002060000154036103315760019050610336565b600090505b92915050565b600080600160008573ffffffffffffffffffffffffffffffffffffffff1673ffffffffffffffffffffffffffffffffffffffff168152602001908152602001600020600084815260200190815260200160002060405180606001604052908160008201548152602001600182015481526020016002820154815250509050806020015191505092915050565b6000806000808686868a6040516020016103e59493929190610a09565b6040516020818303038152906040528051906020012060001c90506000600160008a73ffffffffffffffffffffffffffffffffffffffff1673ffffffffffffffffffffffffffffffffffffffff16815260200190815260200160002060008381526020019081526020016000206000015414610496576040517f08c379a000000000000000000000000000000000000000000000000000000000815260040161048d90610ada565b60405180910390fd5b6000604051806060016040528083815260200188815260200187815250905080600160008b73ffffffffffffffffffffffffffffffffffffffff1673ffffffffffffffffffffffffffffffffffffffff168152602001908152602001600020600084815260200190815260200160002060008201518160000155602082015181600101556040820151816002015590505080600001518160200151826040015194509450945050509450945094915050565b600160008473ffffffffffffffffffffffffffffffffffffffff1673ffffffffffffffffffffffffffffffffffffffff1681526020019081526020016000206000838152602001908152602001600020600201548111156105de576040517f08c379a00000000000000000000000000000000000000000000000000000000081526004016105d590610b6c565b60405180910390fd5b80600160008573ffffffffffffffffffffffffffffffffffffffff1673ffffffffffffffffffffffffffffffffffffffff168152602001908152602001600020600084815260200190815260200160002060020181905550505050565b600080821415801561064d5750600082115b61068c576040517f08c379a000000000000000000000000000000000000000000000000000000000815260040161068390610bd8565b60405180910390fd5b81600160008573ffffffffffffffffffffffffffffffffffffffff1673ffffffffffffffffffffffffffffffffffffffff16815260200190815260200160002060008481526020019081526020016000206000015414905092915050565b600080600160008573ffffffffffffffffffffffffffffffffffffffff1673ffffffffffffffffffffffffffffffffffffffff168152602001908152602001600020600084815260200190815260200160002060405180606001604052908160008201548152602001600182015481526020016002820154815250509050806040015191505092915050565b600080fd5b600073ffffffffffffffffffffffffffffffffffffffff82169050919050565b60006107a68261077b565b9050919050565b6107b68161079b565b81146107c157600080fd5b50565b6000813590506107d3816107ad565b92915050565b6000819050919050565b6107ec816107d9565b81146107f757600080fd5b50565b600081359050610809816107e3565b92915050565b6000806040838503121561082657610825610776565b5b6000610834858286016107c4565b9250506020610845858286016107fa565b9150509250929050565b610858816107d9565b82525050565b6000606082019050610873600083018661084f565b610880602083018561084f565b61088d604083018461084f565b949350505050565b60008115159050919050565b6108aa81610895565b82525050565b60006020820190506108c560008301846108a1565b92915050565b60006020820190506108e0600083018461084f565b92915050565b60008060008060808587031215610900576108ff610776565b5b600061090e878288016107c4565b945050602061091f878288016107fa565b9350506040610930878288016107fa565b9250506060610941878288016107fa565b91505092959194509250565b60008060006060848603121561096657610965610776565b5b6000610974868287016107c4565b9350506020610985868287016107fa565b9250506040610996868287016107fa565b9150509250925092565b6000819050919050565b6109bb6109b6826107d9565b6109a0565b82525050565b60008160601b9050919050565b60006109d9826109c1565b9050919050565b60006109eb826109ce565b9050919050565b610a036109fe8261079b565b6109e0565b82525050565b6000610a1582876109aa565b602082019150610a2582866109aa565b602082019150610a3582856109aa565b602082019150610a4582846109f2565b60148201915081905095945050505050565b600082825260208201905092915050565b7f50657a7a6f20646920666f726d616767696f20676961272070726573656e746560008201527f2100000000000000000000000000000000000000000000000000000000000000602082015250565b6000610ac4602183610a57565b9150610acf82610a68565b604082019050919050565b60006020820190508181036000830152610af381610ab7565b9050919050565b7f436f6e74726f6c6c6f2064656c6c61205175616e74697461272064612075746960008201527f6c697a7a617265206e6f6e20616e6461746120612062756f6e2066696e652100602082015250565b6000610b56603f83610a57565b9150610b6182610afa565b604082019050919050565b60006020820190508181036000830152610b8581610b49565b9050919050565b7f4944204368656573655069656365204e6f6e2056616c69646f21000000000000600082015250565b6000610bc2601a83610a57565b9150610bcd82610b8c565b602082019050919050565b60006020820190508181036000830152610bf181610bb5565b905091905056fea26469706673582212206c4ae252c3947e95597c040b8740914dada3894c16d7624c01c259eac73a93d964736f6c63430008180033",
  "immutableReferences": {},
  "source": "// SPDX-License-Identifier: MIT\r\npragma solidity ^0.8.0;\r\n\r\ncontract RetailerInventoryStorage {\r\n\r\n    // Address of the organization managing the users\r\n    address private retailerOrg;\r\n\r\n    constructor() {\r\n        retailerOrg = msg.sender;\r\n    }\r\n\r\n    struct CheesePiece {\r\n        uint256 id; // Cheese Piece ID \r\n        uint256 price;\r\n        uint256 weight;\r\n    }\r\n\r\n    mapping(address => mapping(uint256 => CheesePiece)) private cheesePieces;\r\n\r\n    // --------------------------------------------------- Business Function --------------------------------------------------------------------------------------//\r\n\r\n    function addCheesePiece(\r\n        address walletRetailer,\r\n        uint256 _id_CheeseBlock,\r\n        uint256 _price,\r\n        uint256 _weight\r\n    ) external returns (uint256, uint256, uint256) {\r\n\r\n        uint256 _id = uint256(keccak256(abi.encodePacked(\r\n            _id_CheeseBlock,\r\n            _price,\r\n            _weight,\r\n            walletRetailer\r\n        )));\r\n\r\n        // Verifico che non sia stata gi registrata questo pezzo di formaggio \r\n        require(cheesePieces[walletRetailer][_id].id == 0, \"Pezzo di formaggio gia' presente!\");\r\n\r\n        // Crea un nuovo Pezzo di formaggio\r\n        CheesePiece memory cheesePiece = CheesePiece({\r\n            id: _id,\r\n            price: _price,\r\n            weight: _weight\r\n        });\r\n\r\n        // Inserisce il nuovo Pezzo di formaggio nella lista cheesePieces\r\n        cheesePieces[walletRetailer][_id] = cheesePiece;\r\n\r\n        return (cheesePiece.id, cheesePiece.price, cheesePiece.weight);\r\n    }\r\n\r\n    function getCheesePiece(address walletRetailer, uint256 _id) external view returns (uint256, uint256, uint256) {\r\n\r\n        CheesePiece memory cheesePiece = cheesePieces[walletRetailer][_id];\r\n\r\n        return (cheesePiece.id, cheesePiece.price, cheesePiece.weight);\r\n    }\r\n\r\n    // Elimina il CheesePiece \r\n    function deleteCheesePiece(address walletRetailer, uint256 _id) external returns (bool value) {\r\n\r\n        delete cheesePieces[walletRetailer][_id];\r\n        // Check CheesePiece in the mapping \r\n        if (cheesePieces[walletRetailer][_id].id == 0) {\r\n            return true;\r\n        } else {\r\n            return false;\r\n        }\r\n    }\r\n\r\n    // Verifica che il CheesePiece  gi presente \r\n    function isCheesePiecePresent(address walletRetailer, uint256 _id_CheesePiece) external view returns (bool) {\r\n\r\n        require(_id_CheesePiece != 0 && _id_CheesePiece > 0, \"ID CheesePiece Non Valido!\");\r\n\r\n        return cheesePieces[walletRetailer][_id_CheesePiece].id == _id_CheesePiece;\r\n    }\r\n\r\n// --------------------------------------------------- Get Function --------------------------------------------------------------------------------------//\r\n\r\n    function getPrice(address walletRetailer, uint256 _id) external view returns (uint256) {\r\n\r\n        CheesePiece memory cheesePiece = cheesePieces[walletRetailer][_id];\r\n        return cheesePiece.price;\r\n    }\r\n\r\n    function getWeight(address walletRetailer, uint256 _id) external view returns (uint256) {\r\n\r\n        CheesePiece memory cheesePiece = cheesePieces[walletRetailer][_id];\r\n        return cheesePiece.weight;\r\n    }\r\n\r\n// --------------------------------------------------- Set Function --------------------------------------------------------------------------------------//\r\n\r\n\r\n    // - Funzione updateCheeseBlockQuantity() aggiorna la quantit del CheeseBlock \r\n    function updateWeight(\r\n        address walletRetailer,\r\n        uint256 _id_Cheese,\r\n        uint256 _newQuantity\r\n    ) external  {\r\n        \r\n        // Controllo sulla quantita' \r\n        require(_newQuantity<=cheesePieces[walletRetailer][_id_Cheese].weight,\"Controllo della Quantita' da utilizzare non andata a buon fine!\");\r\n\r\n        cheesePieces[walletRetailer][_id_Cheese].weight = _newQuantity;\r\n    }\r\n\r\n}\r\n",
  "sourcePath": "/home/udm-root/Filiera-Token-Deploy/contracts/Actor/Retailer-smart-contract/inventory/RetailerInventoryStorage.sol",
  "compiler": {
    "name": "solc",
    "version": "0.8.24+commit.e11b9ed9.Emscripten.clang"
  },
  "schemaVersion": "3.4.16",
  "updatedAt": "2024-02-27T19:47:26.702Z",
  "devdoc": {
    "kind": "dev",
    "methods": {},
    "version": 1
  },
  "userdoc": {
    "kind": "user",
    "methods": {},
    "version": 1
  }
}