{
  "contractName": "RetailerInventoryService",
  "abi": [
    {
      "inputs": [
        {
          "internalType": "address",
          "name": "_retailerInventoryStorage",
          "type": "address"
        },
        {
          "internalType": "address",
          "name": "_retailerService",
          "type": "address"
        },
        {
          "internalType": "address",
          "name": "_retailerBuyerService",
          "type": "address"
        },
        {
          "internalType": "address",
          "name": "_accessControlProduct",
          "type": "address"
        }
      ],
      "stateMutability": "nonpayable",
      "type": "constructor"
    },
    {
      "anonymous": false,
      "inputs": [
        {
          "indexed": true,
          "internalType": "address",
          "name": "userAddress",
          "type": "address"
        },
        {
          "indexed": false,
          "internalType": "string",
          "name": "message",
          "type": "string"
        },
        {
          "indexed": false,
          "internalType": "uint256",
          "name": "id",
          "type": "uint256"
        },
        {
          "indexed": false,
          "internalType": "uint256",
          "name": "price",
          "type": "uint256"
        },
        {
          "indexed": false,
          "internalType": "uint256",
          "name": "weight",
          "type": "uint256"
        }
      ],
      "name": "CheesePieceAdded",
      "type": "event"
    },
    {
      "anonymous": false,
      "inputs": [
        {
          "indexed": true,
          "internalType": "address",
          "name": "userAddress",
          "type": "address"
        },
        {
          "indexed": false,
          "internalType": "string",
          "name": "message",
          "type": "string"
        },
        {
          "indexed": false,
          "internalType": "uint256",
          "name": "_id",
          "type": "uint256"
        }
      ],
      "name": "CheesePieceDeleted",
      "type": "event"
    },
    {
      "anonymous": false,
      "inputs": [
        {
          "indexed": true,
          "internalType": "address",
          "name": "userAddress",
          "type": "address"
        },
        {
          "indexed": false,
          "internalType": "string",
          "name": "message",
          "type": "string"
        },
        {
          "indexed": false,
          "internalType": "uint256",
          "name": "weight",
          "type": "uint256"
        }
      ],
      "name": "CheesePieceEdited",
      "type": "event"
    },
    {
      "inputs": [
        {
          "internalType": "address",
          "name": "walletRetailer",
          "type": "address"
        },
        {
          "internalType": "uint256",
          "name": "price",
          "type": "uint256"
        },
        {
          "internalType": "uint256",
          "name": "weight",
          "type": "uint256"
        }
      ],
      "name": "addCheesePiece",
      "outputs": [],
      "stateMutability": "nonpayable",
      "type": "function"
    },
    {
      "inputs": [
        {
          "internalType": "uint256",
          "name": "idCheesePiece",
          "type": "uint256"
        }
      ],
      "name": "getCheesePiece",
      "outputs": [
        {
          "internalType": "uint256",
          "name": "",
          "type": "uint256"
        },
        {
          "internalType": "uint256",
          "name": "",
          "type": "uint256"
        },
        {
          "internalType": "uint256",
          "name": "",
          "type": "uint256"
        }
      ],
      "stateMutability": "view",
      "type": "function"
    },
    {
      "inputs": [
        {
          "internalType": "uint256",
          "name": "id",
          "type": "uint256"
        }
      ],
      "name": "deleteCheesePiece",
      "outputs": [
        {
          "internalType": "bool",
          "name": "",
          "type": "bool"
        }
      ],
      "stateMutability": "nonpayable",
      "type": "function"
    },
    {
      "inputs": [
        {
          "internalType": "address",
          "name": "walletRetailer",
          "type": "address"
        },
        {
          "internalType": "uint256",
          "name": "idCheeseBlock",
          "type": "uint256"
        },
        {
          "internalType": "uint256",
          "name": "quantityToTransform",
          "type": "uint256"
        },
        {
          "internalType": "uint256",
          "name": "price",
          "type": "uint256"
        }
      ],
      "name": "transformCheeseBlock",
      "outputs": [],
      "stateMutability": "nonpayable",
      "type": "function"
    },
    {
      "inputs": [
        {
          "internalType": "address",
          "name": "walletRetailer",
          "type": "address"
        },
        {
          "internalType": "uint256",
          "name": "id",
          "type": "uint256"
        }
      ],
      "name": "getPrice",
      "outputs": [
        {
          "internalType": "uint256",
          "name": "",
          "type": "uint256"
        }
      ],
      "stateMutability": "view",
      "type": "function"
    },
    {
      "inputs": [
        {
          "internalType": "address",
          "name": "walletRetailer",
          "type": "address"
        },
        {
          "internalType": "uint256",
          "name": "id",
          "type": "uint256"
        }
      ],
      "name": "getWeight",
      "outputs": [
        {
          "internalType": "uint256",
          "name": "",
          "type": "uint256"
        }
      ],
      "stateMutability": "view",
      "type": "function"
    },
    {
      "inputs": [
        {
          "internalType": "address",
          "name": "walletRetailer",
          "type": "address"
        },
        {
          "internalType": "uint256",
          "name": "idcheesePiece",
          "type": "uint256"
        }
      ],
      "name": "isCheesePiecePresent",
      "outputs": [
        {
          "internalType": "bool",
          "name": "",
          "type": "bool"
        }
      ],
      "stateMutability": "view",
      "type": "function"
    },
    {
      "inputs": [
        {
          "internalType": "address",
          "name": "walletRetailer",
          "type": "address"
        }
      ],
      "name": "getUserCheesePieceIds",
      "outputs": [
        {
          "internalType": "uint256[]",
          "name": "",
          "type": "uint256[]"
        }
      ],
      "stateMutability": "view",
      "type": "function"
    },
    {
      "inputs": [
        {
          "internalType": "address",
          "name": "walletConsumer",
          "type": "address"
        }
      ],
      "name": "getGlobalCheesePieceIds",
      "outputs": [
        {
          "internalType": "uint256[]",
          "name": "",
          "type": "uint256[]"
        }
      ],
      "stateMutability": "view",
      "type": "function"
    },
    {
      "inputs": [
        {
          "internalType": "address",
          "name": "onwerCheesePiece",
          "type": "address"
        },
        {
          "internalType": "uint256",
          "name": "id",
          "type": "uint256"
        },
        {
          "internalType": "uint256",
          "name": "quantity",
          "type": "uint256"
        }
      ],
      "name": "updateWeight",
      "outputs": [],
      "stateMutability": "nonpayable",
      "type": "function"
    }
  ],
  "bytecode": "0x60806040523480156200001157600080fd5b50604051620032e2380380620032e28339818101604052810190620000379190620001ef565b83600160006101000a81548173ffffffffffffffffffffffffffffffffffffffff021916908373ffffffffffffffffffffffffffffffffffffffff16021790555082600260006101000a81548173ffffffffffffffffffffffffffffffffffffffff021916908373ffffffffffffffffffffffffffffffffffffffff16021790555081600360006101000a81548173ffffffffffffffffffffffffffffffffffffffff021916908373ffffffffffffffffffffffffffffffffffffffff16021790555080600460006101000a81548173ffffffffffffffffffffffffffffffffffffffff021916908373ffffffffffffffffffffffffffffffffffffffff160217905550336000806101000a81548173ffffffffffffffffffffffffffffffffffffffff021916908373ffffffffffffffffffffffffffffffffffffffff1602179055505050505062000261565b600080fd5b600073ffffffffffffffffffffffffffffffffffffffff82169050919050565b6000620001b7826200018a565b9050919050565b620001c981620001aa565b8114620001d557600080fd5b50565b600081519050620001e981620001be565b92915050565b600080600080608085870312156200020c576200020b62000185565b5b60006200021c87828801620001d8565b94505060206200022f87828801620001d8565b93505060406200024287828801620001d8565b92505060606200025587828801620001d8565b91505092959194509250565b61307180620002716000396000f3fe608060405234801561001057600080fd5b506004361061009e5760003560e01c8063ab801b9b11610066578063ab801b9b14610157578063afd47d3e14610187578063b3b95f15146101b7578063c7d51a99146101e9578063cf4dfd89146102195761009e565b80631e5844b6146100a3578063449e815d146100bf5780635e523adb146100ef57806369e42c791461010b5780639bc7c21c14610127575b600080fd5b6100bd60048036038101906100b891906122b0565b610249565b005b6100d960048036038101906100d49190612317565b6105fe565b6040516100e69190612366565b60405180910390f35b61010960048036038101906101049190612381565b61083c565b005b61012560048036038101906101209190612381565b610cd5565b005b610141600480360381019061013c9190612317565b6110d6565b60405161014e91906123ef565b60405180910390f35b610171600480360381019061016c919061240a565b61139d565b60405161017e91906124f5565b60405180910390f35b6101a1600480360381019061019c9190612317565b611741565b6040516101ae9190612366565b60405180910390f35b6101d160048036038101906101cc9190612517565b61197f565b6040516101e093929190612544565b60405180910390f35b61020360048036038101906101fe919061240a565b611dea565b60405161021091906124f5565b60405180910390f35b610233600480360381019061022e9190612517565b611f64565b60405161024091906123ef565b60405180910390f35b600360009054906101000a900473ffffffffffffffffffffffffffffffffffffffff1673ffffffffffffffffffffffffffffffffffffffff16634f0205bf85856040518363ffffffff1660e01b81526004016102a692919061258a565b602060405180830381865afa1580156102c3573d6000803e3d6000fd5b505050506040513d601f19601f820116820180604052508101906102e791906125df565b610326576040517f08c379a000000000000000000000000000000000000000000000000000000000815260040161031d90612669565b60405180910390fd5b600382111561036a576040517f08c379a0000000000000000000000000000000000000000000000000000000008152600401610361906126fb565b60405180910390fd5b600360009054906101000a900473ffffffffffffffffffffffffffffffffffffffff1673ffffffffffffffffffffffffffffffffffffffff16631e073fcf85856040518363ffffffff1660e01b81526004016103c792919061258a565b602060405180830381865afa1580156103e4573d6000803e3d6000fd5b505050506040513d601f19601f820116820180604052508101906104089190612730565b82111561044a576040517f08c379a0000000000000000000000000000000000000000000000000000000008152600401610441906126fb565b60405180910390fd5b600082600360009054906101000a900473ffffffffffffffffffffffffffffffffffffffff1673ffffffffffffffffffffffffffffffffffffffff16631e073fcf87876040518363ffffffff1660e01b81526004016104aa92919061258a565b602060405180830381865afa1580156104c7573d6000803e3d6000fd5b505050506040513d601f19601f820116820180604052508101906104eb9190612730565b6104f5919061278c565b9050600360009054906101000a900473ffffffffffffffffffffffffffffffffffffffff1673ffffffffffffffffffffffffffffffffffffffff166377e94d9e8686846040518463ffffffff1660e01b8152600401610556939291906127c0565b600060405180830381600087803b15801561057057600080fd5b505af1158015610584573d6000803e3d6000fd5b505050503073ffffffffffffffffffffffffffffffffffffffff166369e42c798684866040518463ffffffff1660e01b81526004016105c5939291906127c0565b600060405180830381600087803b1580156105df57600080fd5b505af11580156105f3573d6000803e3d6000fd5b505050505050505050565b6000600260009054906101000a900473ffffffffffffffffffffffffffffffffffffffff1673ffffffffffffffffffffffffffffffffffffffff1663a5578807846040518263ffffffff1660e01b815260040161065b91906127f7565b602060405180830381865afa158015610678573d6000803e3d6000fd5b505050506040513d601f19601f8201168201806040525081019061069c91906125df565b6106db576040517f08c379a00000000000000000000000000000000000000000000000000000000081526004016106d29061285e565b60405180910390fd5b3073ffffffffffffffffffffffffffffffffffffffff16639bc7c21c84846040518363ffffffff1660e01b815260040161071692919061258a565b602060405180830381865afa158015610733573d6000803e3d6000fd5b505050506040513d601f19601f8201168201806040525081019061075791906125df565b610796576040517f08c379a000000000000000000000000000000000000000000000000000000000815260040161078d906128ca565b60405180910390fd5b600160009054906101000a900473ffffffffffffffffffffffffffffffffffffffff1673ffffffffffffffffffffffffffffffffffffffff1663449e815d84846040518363ffffffff1660e01b81526004016107f392919061258a565b602060405180830381865afa158015610810573d6000803e3d6000fd5b505050506040513d601f19601f820116820180604052508101906108349190612730565b905092915050565b82600073ffffffffffffffffffffffffffffffffffffffff168173ffffffffffffffffffffffffffffffffffffffff16036108ac576040517f08c379a00000000000000000000000000000000000000000000000000000000081526004016108a390612936565b60405180910390fd5b60008054906101000a900473ffffffffffffffffffffffffffffffffffffffff1673ffffffffffffffffffffffffffffffffffffffff168173ffffffffffffffffffffffffffffffffffffffff160361093a576040517f08c379a0000000000000000000000000000000000000000000000000000000008152600401610931906129a2565b60405180910390fd5b600160009054906101000a900473ffffffffffffffffffffffffffffffffffffffff1673ffffffffffffffffffffffffffffffffffffffff168173ffffffffffffffffffffffffffffffffffffffff16036109ca576040517f08c379a00000000000000000000000000000000000000000000000000000000081526004016109c190612a34565b60405180910390fd5b600260009054906101000a900473ffffffffffffffffffffffffffffffffffffffff1673ffffffffffffffffffffffffffffffffffffffff168173ffffffffffffffffffffffffffffffffffffffff1603610a5a576040517f08c379a0000000000000000000000000000000000000000000000000000000008152600401610a5190612aa0565b60405180910390fd5b600260009054906101000a900473ffffffffffffffffffffffffffffffffffffffff1673ffffffffffffffffffffffffffffffffffffffff1663a5578807856040518263ffffffff1660e01b8152600401610ab591906127f7565b602060405180830381865afa158015610ad2573d6000803e3d6000fd5b505050506040513d601f19601f82011682018060405250810190610af691906125df565b610b35576040517f08c379a0000000000000000000000000000000000000000000000000000000008152600401610b2c9061285e565b60405180910390fd5b3073ffffffffffffffffffffffffffffffffffffffff16639bc7c21c85856040518363ffffffff1660e01b8152600401610b7092919061258a565b602060405180830381865afa158015610b8d573d6000803e3d6000fd5b505050506040513d601f19601f82011682018060405250810190610bb191906125df565b610bf0576040517f08c379a0000000000000000000000000000000000000000000000000000000008152600401610be790612b0c565b60405180910390fd5b600160009054906101000a900473ffffffffffffffffffffffffffffffffffffffff1673ffffffffffffffffffffffffffffffffffffffff16635e523adb8585856040518463ffffffff1660e01b8152600401610c4f939291906127c0565b600060405180830381600087803b158015610c6957600080fd5b505af1158015610c7d573d6000803e3d6000fd5b505050508373ffffffffffffffffffffffffffffffffffffffff167fe29f05fb12683b081566145ab306215d06172a3c7d0820d38b0bd24eda3f14e983604051610cc79190612b78565b60405180910390a250505050565b82600073ffffffffffffffffffffffffffffffffffffffff168173ffffffffffffffffffffffffffffffffffffffff1603610d45576040517f08c379a0000000000000000000000000000000000000000000000000000000008152600401610d3c90612936565b60405180910390fd5b60008054906101000a900473ffffffffffffffffffffffffffffffffffffffff1673ffffffffffffffffffffffffffffffffffffffff168173ffffffffffffffffffffffffffffffffffffffff1603610dd3576040517f08c379a0000000000000000000000000000000000000000000000000000000008152600401610dca906129a2565b60405180910390fd5b600160009054906101000a900473ffffffffffffffffffffffffffffffffffffffff1673ffffffffffffffffffffffffffffffffffffffff168173ffffffffffffffffffffffffffffffffffffffff1603610e63576040517f08c379a0000000000000000000000000000000000000000000000000000000008152600401610e5a90612a34565b60405180910390fd5b600260009054906101000a900473ffffffffffffffffffffffffffffffffffffffff1673ffffffffffffffffffffffffffffffffffffffff168173ffffffffffffffffffffffffffffffffffffffff1603610ef3576040517f08c379a0000000000000000000000000000000000000000000000000000000008152600401610eea90612aa0565b60405180910390fd5b600260009054906101000a900473ffffffffffffffffffffffffffffffffffffffff1673ffffffffffffffffffffffffffffffffffffffff1663a5578807856040518263ffffffff1660e01b8152600401610f4e91906127f7565b602060405180830381865afa158015610f6b573d6000803e3d6000fd5b505050506040513d601f19601f82011682018060405250810190610f8f91906125df565b610fce576040517f08c379a0000000000000000000000000000000000000000000000000000000008152600401610fc590612bf2565b60405180910390fd5b6000806000600160009054906101000a900473ffffffffffffffffffffffffffffffffffffffff1673ffffffffffffffffffffffffffffffffffffffff166369e42c798888886040518463ffffffff1660e01b8152600401611032939291906127c0565b6060604051808303816000875af1158015611051573d6000803e3d6000fd5b505050506040513d601f19601f820116820180604052508101906110759190612c12565b9250925092508673ffffffffffffffffffffffffffffffffffffffff167f926e56da9e6738c8b8b950f764f59ba1c5c739d495778855b6b05f9b6d715d238484846040516110c593929190612cd7565b60405180910390a250505050505050565b600082600073ffffffffffffffffffffffffffffffffffffffff168173ffffffffffffffffffffffffffffffffffffffff1603611148576040517f08c379a000000000000000000000000000000000000000000000000000000000815260040161113f90612936565b60405180910390fd5b60008054906101000a900473ffffffffffffffffffffffffffffffffffffffff1673ffffffffffffffffffffffffffffffffffffffff168173ffffffffffffffffffffffffffffffffffffffff16036111d6576040517f08c379a00000000000000000000000000000000000000000000000000000000081526004016111cd906129a2565b60405180910390fd5b600160009054906101000a900473ffffffffffffffffffffffffffffffffffffffff1673ffffffffffffffffffffffffffffffffffffffff168173ffffffffffffffffffffffffffffffffffffffff1603611266576040517f08c379a000000000000000000000000000000000000000000000000000000000815260040161125d90612a34565b60405180910390fd5b600260009054906101000a900473ffffffffffffffffffffffffffffffffffffffff1673ffffffffffffffffffffffffffffffffffffffff168173ffffffffffffffffffffffffffffffffffffffff16036112f6576040517f08c379a00000000000000000000000000000000000000000000000000000000081526004016112ed90612aa0565b60405180910390fd5b600160009054906101000a900473ffffffffffffffffffffffffffffffffffffffff1673ffffffffffffffffffffffffffffffffffffffff16639bc7c21c85856040518363ffffffff1660e01b815260040161135392919061258a565b602060405180830381865afa158015611370573d6000803e3d6000fd5b505050506040513d601f19601f8201168201806040525081019061139491906125df565b91505092915050565b606081600073ffffffffffffffffffffffffffffffffffffffff168173ffffffffffffffffffffffffffffffffffffffff160361140f576040517f08c379a000000000000000000000000000000000000000000000000000000000815260040161140690612936565b60405180910390fd5b60008054906101000a900473ffffffffffffffffffffffffffffffffffffffff1673ffffffffffffffffffffffffffffffffffffffff168173ffffffffffffffffffffffffffffffffffffffff160361149d576040517f08c379a0000000000000000000000000000000000000000000000000000000008152600401611494906129a2565b60405180910390fd5b600160009054906101000a900473ffffffffffffffffffffffffffffffffffffffff1673ffffffffffffffffffffffffffffffffffffffff168173ffffffffffffffffffffffffffffffffffffffff160361152d576040517f08c379a000000000000000000000000000000000000000000000000000000000815260040161152490612a34565b60405180910390fd5b600260009054906101000a900473ffffffffffffffffffffffffffffffffffffffff1673ffffffffffffffffffffffffffffffffffffffff168173ffffffffffffffffffffffffffffffffffffffff16036115bd576040517f08c379a00000000000000000000000000000000000000000000000000000000081526004016115b490612aa0565b60405180910390fd5b600260009054906101000a900473ffffffffffffffffffffffffffffffffffffffff1673ffffffffffffffffffffffffffffffffffffffff1663a5578807846040518263ffffffff1660e01b815260040161161891906127f7565b602060405180830381865afa158015611635573d6000803e3d6000fd5b505050506040513d601f19601f8201168201806040525081019061165991906125df565b611698576040517f08c379a000000000000000000000000000000000000000000000000000000000815260040161168f9061285e565b60405180910390fd5b600160009054906101000a900473ffffffffffffffffffffffffffffffffffffffff1673ffffffffffffffffffffffffffffffffffffffff1663ab801b9b846040518263ffffffff1660e01b81526004016116f391906127f7565b600060405180830381865afa158015611710573d6000803e3d6000fd5b505050506040513d6000823e3d601f19601f820116820180604052508101906117399190612e7a565b915050919050565b6000600260009054906101000a900473ffffffffffffffffffffffffffffffffffffffff1673ffffffffffffffffffffffffffffffffffffffff1663a5578807846040518263ffffffff1660e01b815260040161179e91906127f7565b602060405180830381865afa1580156117bb573d6000803e3d6000fd5b505050506040513d601f19601f820116820180604052508101906117df91906125df565b61181e576040517f08c379a00000000000000000000000000000000000000000000000000000000081526004016118159061285e565b60405180910390fd5b3073ffffffffffffffffffffffffffffffffffffffff16639bc7c21c84846040518363ffffffff1660e01b815260040161185992919061258a565b602060405180830381865afa158015611876573d6000803e3d6000fd5b505050506040513d601f19601f8201168201806040525081019061189a91906125df565b6118d9576040517f08c379a00000000000000000000000000000000000000000000000000000000081526004016118d0906128ca565b60405180910390fd5b600160009054906101000a900473ffffffffffffffffffffffffffffffffffffffff1673ffffffffffffffffffffffffffffffffffffffff1663afd47d3e84846040518363ffffffff1660e01b815260040161193692919061258a565b602060405180830381865afa158015611953573d6000803e3d6000fd5b505050506040513d601f19601f820116820180604052508101906119779190612730565b905092915050565b600080600033600073ffffffffffffffffffffffffffffffffffffffff168173ffffffffffffffffffffffffffffffffffffffff16036119f4576040517f08c379a00000000000000000000000000000000000000000000000000000000081526004016119eb90612936565b60405180910390fd5b60008054906101000a900473ffffffffffffffffffffffffffffffffffffffff1673ffffffffffffffffffffffffffffffffffffffff168173ffffffffffffffffffffffffffffffffffffffff1603611a82576040517f08c379a0000000000000000000000000000000000000000000000000000000008152600401611a79906129a2565b60405180910390fd5b600160009054906101000a900473ffffffffffffffffffffffffffffffffffffffff1673ffffffffffffffffffffffffffffffffffffffff168173ffffffffffffffffffffffffffffffffffffffff1603611b12576040517f08c379a0000000000000000000000000000000000000000000000000000000008152600401611b0990612a34565b60405180910390fd5b600260009054906101000a900473ffffffffffffffffffffffffffffffffffffffff1673ffffffffffffffffffffffffffffffffffffffff168173ffffffffffffffffffffffffffffffffffffffff1603611ba2576040517f08c379a0000000000000000000000000000000000000000000000000000000008152600401611b9990612aa0565b60405180910390fd5b6000339050600260009054906101000a900473ffffffffffffffffffffffffffffffffffffffff1673ffffffffffffffffffffffffffffffffffffffff1663a5578807826040518263ffffffff1660e01b8152600401611c0291906127f7565b602060405180830381865afa158015611c1f573d6000803e3d6000fd5b505050506040513d601f19601f82011682018060405250810190611c4391906125df565b611c82576040517f08c379a0000000000000000000000000000000000000000000000000000000008152600401611c7990612bf2565b60405180910390fd5b3073ffffffffffffffffffffffffffffffffffffffff16639bc7c21c82886040518363ffffffff1660e01b8152600401611cbd92919061258a565b602060405180830381865afa158015611cda573d6000803e3d6000fd5b505050506040513d601f19601f82011682018060405250810190611cfe91906125df565b611d3d576040517f08c379a0000000000000000000000000000000000000000000000000000000008152600401611d3490612f35565b60405180910390fd5b600160009054906101000a900473ffffffffffffffffffffffffffffffffffffffff1673ffffffffffffffffffffffffffffffffffffffff16630b7aa47382886040518363ffffffff1660e01b8152600401611d9a92919061258a565b606060405180830381865afa158015611db7573d6000803e3d6000fd5b505050506040513d601f19601f82011682018060405250810190611ddb9190612c12565b94509450945050509193909250565b6060600460009054906101000a900473ffffffffffffffffffffffffffffffffffffffff1673ffffffffffffffffffffffffffffffffffffffff1663d9824c2d836040518263ffffffff1660e01b8152600401611e4791906127f7565b602060405180830381865afa158015611e64573d6000803e3d6000fd5b505050506040513d601f19601f82011682018060405250810190611e8891906125df565b611ec7576040517f08c379a0000000000000000000000000000000000000000000000000000000008152600401611ebe90612fa1565b60405180910390fd5b600160009054906101000a900473ffffffffffffffffffffffffffffffffffffffff1673ffffffffffffffffffffffffffffffffffffffff1663536fe44c6040518163ffffffff1660e01b8152600401600060405180830381865afa158015611f34573d6000803e3d6000fd5b505050506040513d6000823e3d601f19601f82011682018060405250810190611f5d9190612e7a565b9050919050565b600080339050600260009054906101000a900473ffffffffffffffffffffffffffffffffffffffff1673ffffffffffffffffffffffffffffffffffffffff1663a5578807826040518263ffffffff1660e01b8152600401611fc591906127f7565b602060405180830381865afa158015611fe2573d6000803e3d6000fd5b505050506040513d601f19601f8201168201806040525081019061200691906125df565b612045576040517f08c379a000000000000000000000000000000000000000000000000000000000815260040161203c9061285e565b60405180910390fd5b3073ffffffffffffffffffffffffffffffffffffffff16639bc7c21c82856040518363ffffffff1660e01b815260040161208092919061258a565b602060405180830381865afa15801561209d573d6000803e3d6000fd5b505050506040513d601f19601f820116820180604052508101906120c191906125df565b612100576040517f08c379a00000000000000000000000000000000000000000000000000000000081526004016120f7906128ca565b60405180910390fd5b600160009054906101000a900473ffffffffffffffffffffffffffffffffffffffff1673ffffffffffffffffffffffffffffffffffffffff1663348b4c5a82856040518363ffffffff1660e01b815260040161215d92919061258a565b6020604051808303816000875af115801561217c573d6000803e3d6000fd5b505050506040513d601f19601f820116820180604052508101906121a091906125df565b156121fd578073ffffffffffffffffffffffffffffffffffffffff167f58650135e23052fe7c8a90b6a47df85bdce3102d0b3f54492cdb9f2cdbd0cff8846040516121eb919061300d565b60405180910390a26001915050612203565b60009150505b919050565b6000604051905090565b600080fd5b600080fd5b600073ffffffffffffffffffffffffffffffffffffffff82169050919050565b60006122478261221c565b9050919050565b6122578161223c565b811461226257600080fd5b50565b6000813590506122748161224e565b92915050565b6000819050919050565b61228d8161227a565b811461229857600080fd5b50565b6000813590506122aa81612284565b92915050565b600080600080608085870312156122ca576122c9612212565b5b60006122d887828801612265565b94505060206122e98782880161229b565b93505060406122fa8782880161229b565b925050606061230b8782880161229b565b91505092959194509250565b6000806040838503121561232e5761232d612212565b5b600061233c85828601612265565b925050602061234d8582860161229b565b9150509250929050565b6123608161227a565b82525050565b600060208201905061237b6000830184612357565b92915050565b60008060006060848603121561239a57612399612212565b5b60006123a886828701612265565b93505060206123b98682870161229b565b92505060406123ca8682870161229b565b9150509250925092565b60008115159050919050565b6123e9816123d4565b82525050565b600060208201905061240460008301846123e0565b92915050565b6000602082840312156124205761241f612212565b5b600061242e84828501612265565b91505092915050565b600081519050919050565b600082825260208201905092915050565b6000819050602082019050919050565b61246c8161227a565b82525050565b600061247e8383612463565b60208301905092915050565b6000602082019050919050565b60006124a282612437565b6124ac8185612442565b93506124b783612453565b8060005b838110156124e85781516124cf8882612472565b97506124da8361248a565b9250506001810190506124bb565b5085935050505092915050565b6000602082019050818103600083015261250f8184612497565b905092915050565b60006020828403121561252d5761252c612212565b5b600061253b8482850161229b565b91505092915050565b60006060820190506125596000830186612357565b6125666020830185612357565b6125736040830184612357565b949350505050565b6125848161223c565b82525050565b600060408201905061259f600083018561257b565b6125ac6020830184612357565b9392505050565b6125bc816123d4565b81146125c757600080fd5b50565b6000815190506125d9816125b3565b92915050565b6000602082840312156125f5576125f4612212565b5b6000612603848285016125ca565b91505092915050565b600082825260208201905092915050565b7f50726f646f74746f206e6f6e2070726573656e74652100000000000000000000600082015250565b600061265360168361260c565b915061265e8261261d565b602082019050919050565b6000602082019050818103600083015261268281612646565b9050919050565b7f5175616e74697461272064612074726173666f726d617265206e6f6e2076616c60008201527f6964612100000000000000000000000000000000000000000000000000000000602082015250565b60006126e560248361260c565b91506126f082612689565b604082019050919050565b60006020820190508181036000830152612714816126d8565b9050919050565b60008151905061272a81612284565b92915050565b60006020828403121561274657612745612212565b5b60006127548482850161271b565b91505092915050565b7f4e487b7100000000000000000000000000000000000000000000000000000000600052601160045260246000fd5b60006127978261227a565b91506127a28361227a565b92508282039050818111156127ba576127b961275d565b5b92915050565b60006060820190506127d5600083018661257b565b6127e26020830185612357565b6127ef6040830184612357565b949350505050565b600060208201905061280c600083018461257b565b92915050565b7f55736572206973206e6f742070726573656e7421000000000000000000000000600082015250565b600061284860148361260c565b915061285382612812565b602082019050919050565b600060208201905081810360008301526128778161283b565b9050919050565b7f4368656573655069656365206e6f742050726573656e74210000000000000000600082015250565b60006128b460188361260c565b91506128bf8261287e565b602082019050919050565b600060208201905081810360008301526128e3816128a7565b9050919050565b7f416464726573732056616c7565206973205a65726f2100000000000000000000600082015250565b600061292060168361260c565b915061292b826128ea565b602082019050919050565b6000602082019050818103600083015261294f81612913565b9050919050565b7f41646472657373206e6f742076616c6964210000000000000000000000000000600082015250565b600061298c60128361260c565b915061299782612956565b602082019050919050565b600060208201905081810360008301526129bb8161297f565b9050919050565b7f41646472657373206e6f742076616c6964206f6620496e76656e746f7279205360008201527f746f726167650000000000000000000000000000000000000000000000000000602082015250565b6000612a1e60268361260c565b9150612a29826129c2565b604082019050919050565b60006020820190508181036000830152612a4d81612a11565b9050919050565b7f41646472657373206e6f742076616c6964206f66205365727669636500000000600082015250565b6000612a8a601c8361260c565b9150612a9582612a54565b602082019050919050565b60006020820190508181036000830152612ab981612a7d565b9050919050565b7f4d696c6b4261746368206e6f742050726573656e742100000000000000000000600082015250565b6000612af660168361260c565b9150612b0182612ac0565b602082019050919050565b60006020820190508181036000830152612b2581612ae9565b9050919050565b7f4d696c6b42617463682065646974656421000000000000000000000000000000600082015250565b6000612b6260118361260c565b9150612b6d82612b2c565b602082019050919050565b60006040820190508181036000830152612b9181612b55565b9050612ba06020830184612357565b92915050565b7f55736572206973206e6f742070726573656e7420696e20646174610000000000600082015250565b6000612bdc601b8361260c565b9150612be782612ba6565b602082019050919050565b60006020820190508181036000830152612c0b81612bcf565b9050919050565b600080600060608486031215612c2b57612c2a612212565b5b6000612c398682870161271b565b9350506020612c4a8682870161271b565b9250506040612c5b8682870161271b565b9150509250925092565b7f436865657365426c6f636b20636f6e7665727469746f20636f6e20737563636560008201527f73736f21204563636f20696c206e756f766f2043686565736550696563652100602082015250565b6000612cc1603f8361260c565b9150612ccc82612c65565b604082019050919050565b60006080820190508181036000830152612cf081612cb4565b9050612cff6020830186612357565b612d0c6040830185612357565b612d196060830184612357565b949350505050565b600080fd5b6000601f19601f8301169050919050565b7f4e487b7100000000000000000000000000000000000000000000000000000000600052604160045260246000fd5b612d6f82612d26565b810181811067ffffffffffffffff82111715612d8e57612d8d612d37565b5b80604052505050565b6000612da1612208565b9050612dad8282612d66565b919050565b600067ffffffffffffffff821115612dcd57612dcc612d37565b5b602082029050602081019050919050565b600080fd5b6000612df6612df184612db2565b612d97565b90508083825260208201905060208402830185811115612e1957612e18612dde565b5b835b81811015612e425780612e2e888261271b565b845260208401935050602081019050612e1b565b5050509392505050565b600082601f830112612e6157612e60612d21565b5b8151612e71848260208601612de3565b91505092915050565b600060208284031215612e9057612e8f612212565b5b600082015167ffffffffffffffff811115612eae57612ead612217565b5b612eba84828501612e4c565b91505092915050565b7f4368656573655069656365206973206e6f742070726573656e7420696e20646160008201527f7461000000000000000000000000000000000000000000000000000000000000602082015250565b6000612f1f60228361260c565b9150612f2a82612ec3565b604082019050919050565b60006020820190508181036000830152612f4e81612f12565b9050919050565b7f55736572204e6f7420417574686f72697a656421000000000000000000000000600082015250565b6000612f8b60148361260c565b9150612f9682612f55565b602082019050919050565b60006020820190508181036000830152612fba81612f7e565b9050919050565b7f436865657365506965636520652720737461746f20656c696d696e61746f0000600082015250565b6000612ff7601e8361260c565b915061300282612fc1565b602082019050919050565b6000604082019050818103600083015261302681612fea565b90506130356020830184612357565b9291505056fea2646970667358221220854823563466bad012efe77a55386262a4945f3878a4b5219a2aee81951b8b0f64736f6c63430008180033",
  "immutableReferences": {},
  "source": "// SPDX-License-Identifier: MIT\r\npragma solidity ^0.8.21;\r\n\r\nimport \"./RetailerInventoryStorage.sol\";\r\nimport \"../RetailerService.sol\";\r\nimport \"./RetailerBuyerService.sol\";\r\n\r\nimport \"../../../Service/access-control-product/AccessControlProductCheesePiece.sol\";\r\n\r\ncontract RetailerInventoryService {\r\n\r\n\r\n//------------------------------------------------------------------------ Address of other Contract Service -----------------------------------------------------------//\r\n\r\n    // Address of the organization managing the users\r\n    address private retailerOrg;\r\n\r\n    RetailerInventoryStorage private retailerInventoryStorage;\r\n\r\n    RetailerService private retailerService;\r\n\r\n    RetailerBuyerService private retailerBuyerService;\r\n\r\n    AccessControlProductCheesePiece private accessControlProduct;\r\n\r\n\r\n//------------------------------------------------------------------------ Event of Service  -----------------------------------------------------------//\r\n\r\n    event CheesePieceAdded(address indexed userAddress, string message, uint256 id, uint256 price, uint256 weight);\r\n\r\n    event CheesePieceDeleted(address indexed userAddress, string message, uint256 _id);\r\n\r\n    event CheesePieceEdited(address indexed userAddress, string message, uint256 weight);\r\n\r\n//------------------------------------------------------------------------ Modifier Logic of Contract Service -----------------------------------------------------------//\r\n    modifier checkAddress(address caller) {\r\n        require(caller != address(0), \"Address Value is Zero!\");\r\n        require(caller != retailerOrg, \"Address not valid!\");\r\n        require(caller != address(retailerInventoryStorage), \"Address not valid of Inventory Storage\");\r\n        require(caller != address(retailerService), \"Address not valid of Service\");\r\n        _;\r\n    }\r\n\r\n//------------------------------------------------------------------------ Constructor Contract Service -----------------------------------------------------------//\r\n\r\n\r\n    constructor(\r\n        address _retailerInventoryStorage,\r\n        address _retailerService,\r\n        address _retailerBuyerService,\r\n        address _accessControlProduct\r\n    ) {\r\n        retailerInventoryStorage = RetailerInventoryStorage(_retailerInventoryStorage);\r\n        retailerService = RetailerService(_retailerService);\r\n        retailerBuyerService = RetailerBuyerService(_retailerBuyerService);\r\n        accessControlProduct = AccessControlProductCheesePiece(_accessControlProduct);\r\n        retailerOrg = msg.sender;\r\n    }\r\n\r\n\r\n//------------------------------------------------------------------------ Business Logic of other Contract Service -----------------------------------------------------------//\r\n\r\n\r\n    function addCheesePiece(\r\n        address walletRetailer,\r\n        uint256 price,\r\n        uint256 weight) external checkAddress(walletRetailer) {\r\n        require(retailerService.isUserPresent(walletRetailer), \"User is not present in data\");\r\n\r\n        (uint256 _idCheesePiece, uint256 _price, uint256 _weight) = retailerInventoryStorage.addCheesePiece(\r\n            walletRetailer,\r\n            price,\r\n            weight\r\n        );\r\n\r\n        emit CheesePieceAdded(walletRetailer, \"CheeseBlock convertito con successo! Ecco il nuovo CheesePiece!\", _idCheesePiece, _price, _weight);\r\n    }\r\n\r\n    function getCheesePiece(uint256 idCheesePiece) external view checkAddress(msg.sender) returns (uint256, uint256, uint256) {\r\n        address walletRetailer = msg.sender;\r\n\r\n        require(retailerService.isUserPresent(walletRetailer), \"User is not present in data\");\r\n\r\n        require(this.isCheesePiecePresent(walletRetailer, idCheesePiece), \"CheesePiece is not present in data\");\r\n\r\n        return retailerInventoryStorage.getCheesePiece(walletRetailer, idCheesePiece);\r\n    }\r\n\r\n    function deleteCheesePiece(uint256 id) external returns (bool) {\r\n        address walletRetailer = msg.sender;\r\n\r\n        require(retailerService.isUserPresent(walletRetailer), \"User is not present!\");\r\n\r\n        require(this.isCheesePiecePresent(walletRetailer, id), \"CheesePiece not Present!\");\r\n\r\n        if (retailerInventoryStorage.deleteCheesePiece(walletRetailer, id)) {\r\n            emit CheesePieceDeleted(walletRetailer, \"CheesePiece e' stato eliminato\", id);\r\n            return true;\r\n        } else {\r\n            return false;\r\n        }\r\n    }\r\n\r\n    function transformCheeseBlock(\r\n        address walletRetailer,\r\n        uint256 idCheeseBlock,\r\n        uint256 quantityToTransform,\r\n        uint256 price) external {\r\n\r\n\r\n            require(retailerBuyerService.isCheeseBlockPresent(walletRetailer, idCheeseBlock), \"Prodotto non presente!\");\r\n\r\n            require(quantityToTransform <= 3, \"Quantita' da trasformare non valida!\");\r\n\r\n            require(quantityToTransform <= retailerBuyerService.getQuantity(walletRetailer, idCheeseBlock), \"Quantita' da trasformare non valida!\");\r\n\r\n            uint256 newQuantity = retailerBuyerService.getQuantity(walletRetailer, idCheeseBlock) - quantityToTransform;\r\n\r\n            retailerBuyerService.updateCheeseBlockQuantity(walletRetailer, idCheeseBlock, newQuantity);\r\n\r\n            this.addCheesePiece(walletRetailer, price, quantityToTransform);\r\n    }\r\n\r\n\r\n\r\n//------------------------------------------------------------------------ Get Function -----------------------------------------------------------//\r\n\r\n\r\n    function getPrice(address walletRetailer, uint256 id) external view returns (uint256) {\r\n        require(retailerService.isUserPresent(walletRetailer), \"User is not present!\");\r\n\r\n        require(this.isCheesePiecePresent(walletRetailer, id), \"CheesePiece not Present!\");\r\n\r\n        return retailerInventoryStorage.getPrice(walletRetailer, id);\r\n    }\r\n\r\n    function getWeight(address walletRetailer, uint256 id) external view returns (uint256) {\r\n        require(retailerService.isUserPresent(walletRetailer), \"User is not present!\");\r\n\r\n        require(this.isCheesePiecePresent(walletRetailer, id), \"CheesePiece not Present!\");\r\n\r\n        return retailerInventoryStorage.getWeight(walletRetailer, id);\r\n    }\r\n\r\n    function isCheesePiecePresent(address walletRetailer, uint256 idcheesePiece) external view checkAddress(walletRetailer) returns (bool) {\r\n        return retailerInventoryStorage.isCheesePiecePresent(walletRetailer, idcheesePiece);\r\n    }\r\n\r\n    function getUserCheesePieceIds(address walletRetailer) external checkAddress(walletRetailer) view returns (uint256[] memory) {\r\n    // Check if exist \r\n        require(retailerService.isUserPresent(walletRetailer), \"User is not present!\");\r\n\r\n        return retailerInventoryStorage.getUserCheesePieceIds(walletRetailer);\r\n    }\r\n\r\n    /*\r\n        - Recupera tutti i CheesePiece presenti all'interno dell'inventario del Retailer\r\n        - Verifica che quel Consumer sia autorizzato\r\n    */\r\n    function getGlobalCheesePieceIds(address walletConsumer) view external returns (uint256[] memory) {\r\n        require(accessControlProduct.checkViewCheesePieceProduct(walletConsumer), \"User Not Authorized!\");\r\n\r\n        return retailerInventoryStorage.getGlobalCheesePieceIds(); \r\n    }\r\n\r\n\r\n\r\n//------------------------------------------------------------------------  Set Function -----------------------------------------------------------//\r\n\r\n\r\n    /**\r\n    * Decremento della quantit del MilkBatch \r\n    * Verifica che la quantit sia maggiore di 0 -> altrimenti elimina\r\n    */\r\n    function updateWeight(\r\n        address onwerCheesePiece,\r\n        uint256 id,\r\n        uint256 quantity ) external checkAddress(onwerCheesePiece) {\r\n\r\n        require(retailerService.isUserPresent(onwerCheesePiece), \"User is not present!\");\r\n\r\n        require(this.isCheesePiecePresent(onwerCheesePiece, id),\"MilkBatch not Present!\");\r\n\r\n        retailerInventoryStorage.updateWeight(onwerCheesePiece, id, quantity);\r\n\r\n        emit CheesePieceEdited(onwerCheesePiece,\"MilkBatch edited!\", quantity);\r\n    }\r\n}\r\n",
  "sourcePath": "C:\\Users\\umber\\Progetti\\FilieraToken\\Filiera-Token-Smart-Contract\\contracts\\Actor\\Retailer-smart-contract\\inventory\\RetailerInventoryService.sol",
  "compiler": {
    "name": "solc",
    "version": "0.8.24+commit.e11b9ed9.Emscripten.clang"
  },
  "schemaVersion": "3.4.16",
  "updatedAt": "2024-03-02T00:21:26.360Z",
  "devdoc": {
    "kind": "dev",
    "methods": {},
    "version": 1
  },
  "userdoc": {
    "kind": "user",
    "methods": {
      "updateWeight(address,uint256,uint256)": {
        "notice": "Decremento della quantit del MilkBatch  Verifica che la quantit sia maggiore di 0 -> altrimenti elimina"
      }
    },
    "version": 1
  }
}