{
  "contractName": "RetailerInventoryService",
  "abi": [
    {
      "inputs": [
        {
          "internalType": "address",
          "name": "_retailerInventoryStorage",
          "type": "address"
        },
        {
          "internalType": "address",
          "name": "_retailerService",
          "type": "address"
        },
        {
          "internalType": "address",
          "name": "_retailerCheeseBlockService",
          "type": "address"
        }
      ],
      "stateMutability": "nonpayable",
      "type": "constructor"
    },
    {
      "anonymous": false,
      "inputs": [
        {
          "indexed": true,
          "internalType": "address",
          "name": "userAddress",
          "type": "address"
        },
        {
          "indexed": false,
          "internalType": "string",
          "name": "message",
          "type": "string"
        },
        {
          "indexed": false,
          "internalType": "uint256",
          "name": "id",
          "type": "uint256"
        },
        {
          "indexed": false,
          "internalType": "uint256",
          "name": "price",
          "type": "uint256"
        },
        {
          "indexed": false,
          "internalType": "uint256",
          "name": "weight",
          "type": "uint256"
        }
      ],
      "name": "CheesePieceAdded",
      "type": "event"
    },
    {
      "anonymous": false,
      "inputs": [
        {
          "indexed": true,
          "internalType": "address",
          "name": "userAddress",
          "type": "address"
        },
        {
          "indexed": false,
          "internalType": "string",
          "name": "message",
          "type": "string"
        },
        {
          "indexed": false,
          "internalType": "uint256",
          "name": "_id",
          "type": "uint256"
        }
      ],
      "name": "CheesePieceDeleted",
      "type": "event"
    },
    {
      "anonymous": false,
      "inputs": [
        {
          "indexed": true,
          "internalType": "address",
          "name": "userAddress",
          "type": "address"
        },
        {
          "indexed": false,
          "internalType": "string",
          "name": "message",
          "type": "string"
        },
        {
          "indexed": false,
          "internalType": "uint256",
          "name": "weight",
          "type": "uint256"
        }
      ],
      "name": "CheesePieceEdited",
      "type": "event"
    },
    {
      "inputs": [
        {
          "internalType": "uint256",
          "name": "_id_CheesePiece",
          "type": "uint256"
        }
      ],
      "name": "getCheesePiece",
      "outputs": [
        {
          "internalType": "uint256",
          "name": "",
          "type": "uint256"
        },
        {
          "internalType": "uint256",
          "name": "",
          "type": "uint256"
        },
        {
          "internalType": "uint256",
          "name": "",
          "type": "uint256"
        }
      ],
      "stateMutability": "view",
      "type": "function"
    },
    {
      "inputs": [
        {
          "internalType": "uint256",
          "name": "_id",
          "type": "uint256"
        }
      ],
      "name": "deleteCheesePiece",
      "outputs": [
        {
          "internalType": "bool",
          "name": "",
          "type": "bool"
        }
      ],
      "stateMutability": "nonpayable",
      "type": "function"
    },
    {
      "inputs": [
        {
          "internalType": "address",
          "name": "walletRetailer",
          "type": "address"
        },
        {
          "internalType": "uint256",
          "name": "_id_CheeseBlockAcquistato",
          "type": "uint256"
        },
        {
          "internalType": "uint256",
          "name": "quantityToTransform",
          "type": "uint256"
        },
        {
          "internalType": "uint256",
          "name": "price",
          "type": "uint256"
        }
      ],
      "name": "transformCheeseBlock",
      "outputs": [],
      "stateMutability": "nonpayable",
      "type": "function"
    },
    {
      "inputs": [
        {
          "internalType": "address",
          "name": "walletRetailer",
          "type": "address"
        },
        {
          "internalType": "uint256",
          "name": "_id",
          "type": "uint256"
        }
      ],
      "name": "getPrice",
      "outputs": [
        {
          "internalType": "uint256",
          "name": "",
          "type": "uint256"
        }
      ],
      "stateMutability": "view",
      "type": "function"
    },
    {
      "inputs": [
        {
          "internalType": "address",
          "name": "walletRetailer",
          "type": "address"
        },
        {
          "internalType": "uint256",
          "name": "_id",
          "type": "uint256"
        }
      ],
      "name": "getWeight",
      "outputs": [
        {
          "internalType": "uint256",
          "name": "",
          "type": "uint256"
        }
      ],
      "stateMutability": "view",
      "type": "function"
    },
    {
      "inputs": [
        {
          "internalType": "address",
          "name": "walletRetailer",
          "type": "address"
        },
        {
          "internalType": "uint256",
          "name": "_id_cheesePiece",
          "type": "uint256"
        }
      ],
      "name": "isCheesePiecePresent",
      "outputs": [
        {
          "internalType": "bool",
          "name": "",
          "type": "bool"
        }
      ],
      "stateMutability": "view",
      "type": "function"
    },
    {
      "inputs": [
        {
          "internalType": "address",
          "name": "onwerCheesePiece",
          "type": "address"
        },
        {
          "internalType": "uint256",
          "name": "_id",
          "type": "uint256"
        },
        {
          "internalType": "uint256",
          "name": "_quantity",
          "type": "uint256"
        }
      ],
      "name": "updateWeight",
      "outputs": [],
      "stateMutability": "nonpayable",
      "type": "function"
    }
  ],
  "bytecode": "0x60806040523480156200001157600080fd5b506040516200298a3803806200298a8339818101604052810190620000379190620001ad565b82600160006101000a81548173ffffffffffffffffffffffffffffffffffffffff021916908373ffffffffffffffffffffffffffffffffffffffff16021790555081600260006101000a81548173ffffffffffffffffffffffffffffffffffffffff021916908373ffffffffffffffffffffffffffffffffffffffff16021790555080600360006101000a81548173ffffffffffffffffffffffffffffffffffffffff021916908373ffffffffffffffffffffffffffffffffffffffff160217905550336000806101000a81548173ffffffffffffffffffffffffffffffffffffffff021916908373ffffffffffffffffffffffffffffffffffffffff16021790555050505062000209565b600080fd5b600073ffffffffffffffffffffffffffffffffffffffff82169050919050565b6000620001758262000148565b9050919050565b620001878162000168565b81146200019357600080fd5b50565b600081519050620001a7816200017c565b92915050565b600080600060608486031215620001c957620001c862000143565b5b6000620001d98682870162000196565b9350506020620001ec8682870162000196565b9250506040620001ff8682870162000196565b9150509250925092565b61277180620002196000396000f3fe608060405234801561001057600080fd5b506004361061007d5760003560e01c80639bc7c21c1161005b5780639bc7c21c146100ea578063afd47d3e1461011a578063b3b95f151461014a578063cf4dfd891461017c5761007d565b80631e5844b614610082578063449e815d1461009e5780635e523adb146100ce575b600080fd5b61009c60048036038101906100979190611c86565b6101ac565b005b6100b860048036038101906100b39190611ced565b6104fe565b6040516100c59190611d3c565b60405180910390f35b6100e860048036038101906100e39190611d57565b61073c565b005b61010460048036038101906100ff9190611ced565b610bd5565b6040516101119190611dc5565b60405180910390f35b610134600480360381019061012f9190611ced565b610e9c565b6040516101419190611d3c565b60405180910390f35b610164600480360381019061015f9190611de0565b6110da565b60405161017393929190611e0d565b60405180910390f35b61019660048036038101906101919190611de0565b611545565b6040516101a39190611dc5565b60405180910390f35b600360009054906101000a900473ffffffffffffffffffffffffffffffffffffffff1673ffffffffffffffffffffffffffffffffffffffff1663d5e677f085856040518363ffffffff1660e01b8152600401610209929190611e53565b602060405180830381865afa158015610226573d6000803e3d6000fd5b505050506040513d601f19601f8201168201806040525081019061024a9190611ea8565b610289576040517f08c379a000000000000000000000000000000000000000000000000000000000815260040161028090611f32565b60405180910390fd5b60038211156102cd576040517f08c379a00000000000000000000000000000000000000000000000000000000081526004016102c490611fc4565b60405180910390fd5b600360009054906101000a900473ffffffffffffffffffffffffffffffffffffffff1673ffffffffffffffffffffffffffffffffffffffff16631e073fcf85856040518363ffffffff1660e01b815260040161032a929190611e53565b602060405180830381865afa158015610347573d6000803e3d6000fd5b505050506040513d601f19601f8201168201806040525081019061036b9190611ff9565b8211156103ad576040517f08c379a00000000000000000000000000000000000000000000000000000000081526004016103a490611fc4565b60405180910390fd5b600082600360009054906101000a900473ffffffffffffffffffffffffffffffffffffffff1673ffffffffffffffffffffffffffffffffffffffff16631e073fcf87876040518363ffffffff1660e01b815260040161040d929190611e53565b602060405180830381865afa15801561042a573d6000803e3d6000fd5b505050506040513d601f19601f8201168201806040525081019061044e9190611ff9565b6104589190612055565b9050600360009054906101000a900473ffffffffffffffffffffffffffffffffffffffff1673ffffffffffffffffffffffffffffffffffffffff166377e94d9e8686846040518463ffffffff1660e01b81526004016104b993929190612089565b600060405180830381600087803b1580156104d357600080fd5b505af11580156104e7573d6000803e3d6000fd5b505050506104f7858584866117e9565b5050505050565b6000600260009054906101000a900473ffffffffffffffffffffffffffffffffffffffff1673ffffffffffffffffffffffffffffffffffffffff1663a5578807846040518263ffffffff1660e01b815260040161055b91906120c0565b602060405180830381865afa158015610578573d6000803e3d6000fd5b505050506040513d601f19601f8201168201806040525081019061059c9190611ea8565b6105db576040517f08c379a00000000000000000000000000000000000000000000000000000000081526004016105d290612127565b60405180910390fd5b3073ffffffffffffffffffffffffffffffffffffffff16639bc7c21c84846040518363ffffffff1660e01b8152600401610616929190611e53565b602060405180830381865afa158015610633573d6000803e3d6000fd5b505050506040513d601f19601f820116820180604052508101906106579190611ea8565b610696576040517f08c379a000000000000000000000000000000000000000000000000000000000815260040161068d90612193565b60405180910390fd5b600160009054906101000a900473ffffffffffffffffffffffffffffffffffffffff1673ffffffffffffffffffffffffffffffffffffffff1663449e815d84846040518363ffffffff1660e01b81526004016106f3929190611e53565b602060405180830381865afa158015610710573d6000803e3d6000fd5b505050506040513d601f19601f820116820180604052508101906107349190611ff9565b905092915050565b82600073ffffffffffffffffffffffffffffffffffffffff168173ffffffffffffffffffffffffffffffffffffffff16036107ac576040517f08c379a00000000000000000000000000000000000000000000000000000000081526004016107a3906121ff565b60405180910390fd5b60008054906101000a900473ffffffffffffffffffffffffffffffffffffffff1673ffffffffffffffffffffffffffffffffffffffff168173ffffffffffffffffffffffffffffffffffffffff160361083a576040517f08c379a00000000000000000000000000000000000000000000000000000000081526004016108319061226b565b60405180910390fd5b600160009054906101000a900473ffffffffffffffffffffffffffffffffffffffff1673ffffffffffffffffffffffffffffffffffffffff168173ffffffffffffffffffffffffffffffffffffffff16036108ca576040517f08c379a00000000000000000000000000000000000000000000000000000000081526004016108c1906122fd565b60405180910390fd5b600260009054906101000a900473ffffffffffffffffffffffffffffffffffffffff1673ffffffffffffffffffffffffffffffffffffffff168173ffffffffffffffffffffffffffffffffffffffff160361095a576040517f08c379a000000000000000000000000000000000000000000000000000000000815260040161095190612369565b60405180910390fd5b600260009054906101000a900473ffffffffffffffffffffffffffffffffffffffff1673ffffffffffffffffffffffffffffffffffffffff1663a5578807856040518263ffffffff1660e01b81526004016109b591906120c0565b602060405180830381865afa1580156109d2573d6000803e3d6000fd5b505050506040513d601f19601f820116820180604052508101906109f69190611ea8565b610a35576040517f08c379a0000000000000000000000000000000000000000000000000000000008152600401610a2c90612127565b60405180910390fd5b3073ffffffffffffffffffffffffffffffffffffffff16639bc7c21c85856040518363ffffffff1660e01b8152600401610a70929190611e53565b602060405180830381865afa158015610a8d573d6000803e3d6000fd5b505050506040513d601f19601f82011682018060405250810190610ab19190611ea8565b610af0576040517f08c379a0000000000000000000000000000000000000000000000000000000008152600401610ae7906123d5565b60405180910390fd5b600160009054906101000a900473ffffffffffffffffffffffffffffffffffffffff1673ffffffffffffffffffffffffffffffffffffffff16635e523adb8585856040518463ffffffff1660e01b8152600401610b4f93929190612089565b600060405180830381600087803b158015610b6957600080fd5b505af1158015610b7d573d6000803e3d6000fd5b505050508373ffffffffffffffffffffffffffffffffffffffff167fe29f05fb12683b081566145ab306215d06172a3c7d0820d38b0bd24eda3f14e983604051610bc79190612441565b60405180910390a250505050565b600082600073ffffffffffffffffffffffffffffffffffffffff168173ffffffffffffffffffffffffffffffffffffffff1603610c47576040517f08c379a0000000000000000000000000000000000000000000000000000000008152600401610c3e906121ff565b60405180910390fd5b60008054906101000a900473ffffffffffffffffffffffffffffffffffffffff1673ffffffffffffffffffffffffffffffffffffffff168173ffffffffffffffffffffffffffffffffffffffff1603610cd5576040517f08c379a0000000000000000000000000000000000000000000000000000000008152600401610ccc9061226b565b60405180910390fd5b600160009054906101000a900473ffffffffffffffffffffffffffffffffffffffff1673ffffffffffffffffffffffffffffffffffffffff168173ffffffffffffffffffffffffffffffffffffffff1603610d65576040517f08c379a0000000000000000000000000000000000000000000000000000000008152600401610d5c906122fd565b60405180910390fd5b600260009054906101000a900473ffffffffffffffffffffffffffffffffffffffff1673ffffffffffffffffffffffffffffffffffffffff168173ffffffffffffffffffffffffffffffffffffffff1603610df5576040517f08c379a0000000000000000000000000000000000000000000000000000000008152600401610dec90612369565b60405180910390fd5b600160009054906101000a900473ffffffffffffffffffffffffffffffffffffffff1673ffffffffffffffffffffffffffffffffffffffff16639bc7c21c85856040518363ffffffff1660e01b8152600401610e52929190611e53565b602060405180830381865afa158015610e6f573d6000803e3d6000fd5b505050506040513d601f19601f82011682018060405250810190610e939190611ea8565b91505092915050565b6000600260009054906101000a900473ffffffffffffffffffffffffffffffffffffffff1673ffffffffffffffffffffffffffffffffffffffff1663a5578807846040518263ffffffff1660e01b8152600401610ef991906120c0565b602060405180830381865afa158015610f16573d6000803e3d6000fd5b505050506040513d601f19601f82011682018060405250810190610f3a9190611ea8565b610f79576040517f08c379a0000000000000000000000000000000000000000000000000000000008152600401610f7090612127565b60405180910390fd5b3073ffffffffffffffffffffffffffffffffffffffff16639bc7c21c84846040518363ffffffff1660e01b8152600401610fb4929190611e53565b602060405180830381865afa158015610fd1573d6000803e3d6000fd5b505050506040513d601f19601f82011682018060405250810190610ff59190611ea8565b611034576040517f08c379a000000000000000000000000000000000000000000000000000000000815260040161102b90612193565b60405180910390fd5b600160009054906101000a900473ffffffffffffffffffffffffffffffffffffffff1673ffffffffffffffffffffffffffffffffffffffff1663afd47d3e84846040518363ffffffff1660e01b8152600401611091929190611e53565b602060405180830381865afa1580156110ae573d6000803e3d6000fd5b505050506040513d601f19601f820116820180604052508101906110d29190611ff9565b905092915050565b600080600033600073ffffffffffffffffffffffffffffffffffffffff168173ffffffffffffffffffffffffffffffffffffffff160361114f576040517f08c379a0000000000000000000000000000000000000000000000000000000008152600401611146906121ff565b60405180910390fd5b60008054906101000a900473ffffffffffffffffffffffffffffffffffffffff1673ffffffffffffffffffffffffffffffffffffffff168173ffffffffffffffffffffffffffffffffffffffff16036111dd576040517f08c379a00000000000000000000000000000000000000000000000000000000081526004016111d49061226b565b60405180910390fd5b600160009054906101000a900473ffffffffffffffffffffffffffffffffffffffff1673ffffffffffffffffffffffffffffffffffffffff168173ffffffffffffffffffffffffffffffffffffffff160361126d576040517f08c379a0000000000000000000000000000000000000000000000000000000008152600401611264906122fd565b60405180910390fd5b600260009054906101000a900473ffffffffffffffffffffffffffffffffffffffff1673ffffffffffffffffffffffffffffffffffffffff168173ffffffffffffffffffffffffffffffffffffffff16036112fd576040517f08c379a00000000000000000000000000000000000000000000000000000000081526004016112f490612369565b60405180910390fd5b6000339050600260009054906101000a900473ffffffffffffffffffffffffffffffffffffffff1673ffffffffffffffffffffffffffffffffffffffff1663a5578807826040518263ffffffff1660e01b815260040161135d91906120c0565b602060405180830381865afa15801561137a573d6000803e3d6000fd5b505050506040513d601f19601f8201168201806040525081019061139e9190611ea8565b6113dd576040517f08c379a00000000000000000000000000000000000000000000000000000000081526004016113d4906124bb565b60405180910390fd5b3073ffffffffffffffffffffffffffffffffffffffff16639bc7c21c82886040518363ffffffff1660e01b8152600401611418929190611e53565b602060405180830381865afa158015611435573d6000803e3d6000fd5b505050506040513d601f19601f820116820180604052508101906114599190611ea8565b611498576040517f08c379a000000000000000000000000000000000000000000000000000000000815260040161148f9061254d565b60405180910390fd5b600160009054906101000a900473ffffffffffffffffffffffffffffffffffffffff1673ffffffffffffffffffffffffffffffffffffffff16630b7aa47382886040518363ffffffff1660e01b81526004016114f5929190611e53565b606060405180830381865afa158015611512573d6000803e3d6000fd5b505050506040513d601f19601f82011682018060405250810190611536919061256d565b94509450945050509193909250565b600080339050600260009054906101000a900473ffffffffffffffffffffffffffffffffffffffff1673ffffffffffffffffffffffffffffffffffffffff1663a5578807826040518263ffffffff1660e01b81526004016115a691906120c0565b602060405180830381865afa1580156115c3573d6000803e3d6000fd5b505050506040513d601f19601f820116820180604052508101906115e79190611ea8565b611626576040517f08c379a000000000000000000000000000000000000000000000000000000000815260040161161d90612127565b60405180910390fd5b3073ffffffffffffffffffffffffffffffffffffffff16639bc7c21c82856040518363ffffffff1660e01b8152600401611661929190611e53565b602060405180830381865afa15801561167e573d6000803e3d6000fd5b505050506040513d601f19601f820116820180604052508101906116a29190611ea8565b6116e1576040517f08c379a00000000000000000000000000000000000000000000000000000000081526004016116d890612193565b60405180910390fd5b600160009054906101000a900473ffffffffffffffffffffffffffffffffffffffff1673ffffffffffffffffffffffffffffffffffffffff1663348b4c5a82856040518363ffffffff1660e01b815260040161173e929190611e53565b6020604051808303816000875af115801561175d573d6000803e3d6000fd5b505050506040513d601f19601f820116820180604052508101906117819190611ea8565b156117de578073ffffffffffffffffffffffffffffffffffffffff167f58650135e23052fe7c8a90b6a47df85bdce3102d0b3f54492cdb9f2cdbd0cff8846040516117cc919061260c565b60405180910390a260019150506117e4565b60009150505b919050565b83600073ffffffffffffffffffffffffffffffffffffffff168173ffffffffffffffffffffffffffffffffffffffff1603611859576040517f08c379a0000000000000000000000000000000000000000000000000000000008152600401611850906121ff565b60405180910390fd5b60008054906101000a900473ffffffffffffffffffffffffffffffffffffffff1673ffffffffffffffffffffffffffffffffffffffff168173ffffffffffffffffffffffffffffffffffffffff16036118e7576040517f08c379a00000000000000000000000000000000000000000000000000000000081526004016118de9061226b565b60405180910390fd5b600160009054906101000a900473ffffffffffffffffffffffffffffffffffffffff1673ffffffffffffffffffffffffffffffffffffffff168173ffffffffffffffffffffffffffffffffffffffff1603611977576040517f08c379a000000000000000000000000000000000000000000000000000000000815260040161196e906122fd565b60405180910390fd5b600260009054906101000a900473ffffffffffffffffffffffffffffffffffffffff1673ffffffffffffffffffffffffffffffffffffffff168173ffffffffffffffffffffffffffffffffffffffff1603611a07576040517f08c379a00000000000000000000000000000000000000000000000000000000081526004016119fe90612369565b60405180910390fd5b600260009054906101000a900473ffffffffffffffffffffffffffffffffffffffff1673ffffffffffffffffffffffffffffffffffffffff1663a5578807866040518263ffffffff1660e01b8152600401611a6291906120c0565b602060405180830381865afa158015611a7f573d6000803e3d6000fd5b505050506040513d601f19601f82011682018060405250810190611aa39190611ea8565b611ae2576040517f08c379a0000000000000000000000000000000000000000000000000000000008152600401611ad9906124bb565b60405180910390fd5b6000806000600160009054906101000a900473ffffffffffffffffffffffffffffffffffffffff1673ffffffffffffffffffffffffffffffffffffffff16635a52c657898989896040518563ffffffff1660e01b8152600401611b48949392919061263a565b6060604051808303816000875af1158015611b67573d6000803e3d6000fd5b505050506040513d601f19601f82011682018060405250810190611b8b919061256d565b9250925092508773ffffffffffffffffffffffffffffffffffffffff167f926e56da9e6738c8b8b950f764f59ba1c5c739d495778855b6b05f9b6d715d23848484604051611bdb939291906126f1565b60405180910390a25050505050505050565b600080fd5b600073ffffffffffffffffffffffffffffffffffffffff82169050919050565b6000611c1d82611bf2565b9050919050565b611c2d81611c12565b8114611c3857600080fd5b50565b600081359050611c4a81611c24565b92915050565b6000819050919050565b611c6381611c50565b8114611c6e57600080fd5b50565b600081359050611c8081611c5a565b92915050565b60008060008060808587031215611ca057611c9f611bed565b5b6000611cae87828801611c3b565b9450506020611cbf87828801611c71565b9350506040611cd087828801611c71565b9250506060611ce187828801611c71565b91505092959194509250565b60008060408385031215611d0457611d03611bed565b5b6000611d1285828601611c3b565b9250506020611d2385828601611c71565b9150509250929050565b611d3681611c50565b82525050565b6000602082019050611d516000830184611d2d565b92915050565b600080600060608486031215611d7057611d6f611bed565b5b6000611d7e86828701611c3b565b9350506020611d8f86828701611c71565b9250506040611da086828701611c71565b9150509250925092565b60008115159050919050565b611dbf81611daa565b82525050565b6000602082019050611dda6000830184611db6565b92915050565b600060208284031215611df657611df5611bed565b5b6000611e0484828501611c71565b91505092915050565b6000606082019050611e226000830186611d2d565b611e2f6020830185611d2d565b611e3c6040830184611d2d565b949350505050565b611e4d81611c12565b82525050565b6000604082019050611e686000830185611e44565b611e756020830184611d2d565b9392505050565b611e8581611daa565b8114611e9057600080fd5b50565b600081519050611ea281611e7c565b92915050565b600060208284031215611ebe57611ebd611bed565b5b6000611ecc84828501611e93565b91505092915050565b600082825260208201905092915050565b7f50726f646f74746f206e6f6e2070726573656e74652100000000000000000000600082015250565b6000611f1c601683611ed5565b9150611f2782611ee6565b602082019050919050565b60006020820190508181036000830152611f4b81611f0f565b9050919050565b7f5175616e74697461272064612074726173666f726d617265206e6f6e2076616c60008201527f6964612100000000000000000000000000000000000000000000000000000000602082015250565b6000611fae602483611ed5565b9150611fb982611f52565b604082019050919050565b60006020820190508181036000830152611fdd81611fa1565b9050919050565b600081519050611ff381611c5a565b92915050565b60006020828403121561200f5761200e611bed565b5b600061201d84828501611fe4565b91505092915050565b7f4e487b7100000000000000000000000000000000000000000000000000000000600052601160045260246000fd5b600061206082611c50565b915061206b83611c50565b925082820390508181111561208357612082612026565b5b92915050565b600060608201905061209e6000830186611e44565b6120ab6020830185611d2d565b6120b86040830184611d2d565b949350505050565b60006020820190506120d56000830184611e44565b92915050565b7f55736572206973206e6f742070726573656e7421000000000000000000000000600082015250565b6000612111601483611ed5565b915061211c826120db565b602082019050919050565b6000602082019050818103600083015261214081612104565b9050919050565b7f4368656573655069656365206e6f742050726573656e74210000000000000000600082015250565b600061217d601883611ed5565b915061218882612147565b602082019050919050565b600060208201905081810360008301526121ac81612170565b9050919050565b7f416464726573732056616c7565206973205a65726f2100000000000000000000600082015250565b60006121e9601683611ed5565b91506121f4826121b3565b602082019050919050565b60006020820190508181036000830152612218816121dc565b9050919050565b7f41646472657373206e6f742076616c6964210000000000000000000000000000600082015250565b6000612255601283611ed5565b91506122608261221f565b602082019050919050565b6000602082019050818103600083015261228481612248565b9050919050565b7f41646472657373206e6f742076616c6964206f6620496e76656e746f7279205360008201527f746f726167650000000000000000000000000000000000000000000000000000602082015250565b60006122e7602683611ed5565b91506122f28261228b565b604082019050919050565b60006020820190508181036000830152612316816122da565b9050919050565b7f41646472657373206e6f742076616c6964206f66205365727669636500000000600082015250565b6000612353601c83611ed5565b915061235e8261231d565b602082019050919050565b6000602082019050818103600083015261238281612346565b9050919050565b7f4d696c6b4261746368206e6f742050726573656e742100000000000000000000600082015250565b60006123bf601683611ed5565b91506123ca82612389565b602082019050919050565b600060208201905081810360008301526123ee816123b2565b9050919050565b7f4d696c6b42617463682065646974656421000000000000000000000000000000600082015250565b600061242b601183611ed5565b9150612436826123f5565b602082019050919050565b6000604082019050818103600083015261245a8161241e565b90506124696020830184611d2d565b92915050565b7f55736572206973206e6f742070726573656e7420696e20646174610000000000600082015250565b60006124a5601b83611ed5565b91506124b08261246f565b602082019050919050565b600060208201905081810360008301526124d481612498565b9050919050565b7f4368656573655069656365206973206e6f742070726573656e7420696e20646160008201527f7461000000000000000000000000000000000000000000000000000000000000602082015250565b6000612537602283611ed5565b9150612542826124db565b604082019050919050565b600060208201905081810360008301526125668161252a565b9050919050565b60008060006060848603121561258657612585611bed565b5b600061259486828701611fe4565b93505060206125a586828701611fe4565b92505060406125b686828701611fe4565b9150509250925092565b7f436865657365506965636520652720737461746f20656c696d696e61746f0000600082015250565b60006125f6601e83611ed5565b9150612601826125c0565b602082019050919050565b60006040820190508181036000830152612625816125e9565b90506126346020830184611d2d565b92915050565b600060808201905061264f6000830187611e44565b61265c6020830186611d2d565b6126696040830185611d2d565b6126766060830184611d2d565b95945050505050565b7f436865657365426c6f636b20636f6e7665727469746f20636f6e20737563636560008201527f73736f21204563636f20696c206e756f766f2043686565736550696563652100602082015250565b60006126db603f83611ed5565b91506126e68261267f565b604082019050919050565b6000608082019050818103600083015261270a816126ce565b90506127196020830186611d2d565b6127266040830185611d2d565b6127336060830184611d2d565b94935050505056fea2646970667358221220314bc5621ba0473a257197fee801914df50e8d5a31227e4ded9e9611135e8caa64736f6c63430008180033",
  "immutableReferences": {},
  "source": "// SPDX-License-Identifier: MIT\r\npragma solidity ^0.8.21;\r\n\r\nimport \"./RetailerInventoryStorage.sol\";\r\nimport \"../RetailerService.sol\";\r\nimport \"./RetailerCheeseBlockService.sol\";\r\n\r\ncontract RetailerInventoryService {\r\n\r\n\r\n//------------------------------------------------------------------------ Address of other Contract Service -----------------------------------------------------------//\r\n\r\n    // Address of the organization managing the users\r\n    address private retailerOrg;\r\n\r\n    RetailerInventoryStorage private retailerInventoryStorage;\r\n\r\n    RetailerService private retailerService;\r\n\r\n    RetailerCheeseBlockService private retailerCheeseBlockService;\r\n\r\n\r\n//------------------------------------------------------------------------ Event of Service  -----------------------------------------------------------//\r\n\r\n    event CheesePieceAdded(address indexed userAddress, string message, uint256 id, uint256 price, uint256 weight);\r\n\r\n    event CheesePieceDeleted(address indexed userAddress, string message, uint256 _id);\r\n\r\n    event CheesePieceEdited(address indexed userAddress, string message, uint256 weight);\r\n\r\n//------------------------------------------------------------------------ Modifier Logic of Contract Service -----------------------------------------------------------//\r\n    modifier checkAddress(address caller) {\r\n        require(caller != address(0), \"Address Value is Zero!\");\r\n        require(caller != retailerOrg, \"Address not valid!\");\r\n        require(caller != address(retailerInventoryStorage), \"Address not valid of Inventory Storage\");\r\n        require(caller != address(retailerService), \"Address not valid of Service\");\r\n        _;\r\n    }\r\n\r\n//------------------------------------------------------------------------ Constructor Contract Service -----------------------------------------------------------//\r\n\r\n\r\n    constructor(\r\n        address _retailerInventoryStorage,\r\n        address _retailerService,\r\n        address _retailerCheeseBlockService\r\n    ) {\r\n        retailerInventoryStorage = RetailerInventoryStorage(_retailerInventoryStorage);\r\n        retailerService = RetailerService(_retailerService);\r\n        retailerCheeseBlockService = RetailerCheeseBlockService(_retailerCheeseBlockService);\r\n        retailerOrg = msg.sender;\r\n    }\r\n\r\n\r\n//------------------------------------------------------------------------ Business Logic of other Contract Service -----------------------------------------------------------//\r\n\r\n\r\n    function addCheesePiece(\r\n        address _walletRetailer,\r\n        uint256 _id_CheeseBlockAcquistato,\r\n        uint256 _price,\r\n        uint256 _weight) internal checkAddress(_walletRetailer) {\r\n        require(retailerService.isUserPresent(_walletRetailer), \"User is not present in data\");\r\n\r\n        (uint256 id_CheesePiece, uint256 price, uint256 weight) = retailerInventoryStorage.addCheesePiece(\r\n            _walletRetailer,\r\n            _id_CheeseBlockAcquistato,\r\n            _price,\r\n            _weight\r\n        );\r\n\r\n        emit CheesePieceAdded(_walletRetailer, \"CheeseBlock convertito con successo! Ecco il nuovo CheesePiece!\", id_CheesePiece, price, weight);\r\n    }\r\n\r\n    function getCheesePiece(uint256 _id_CheesePiece) external view checkAddress(msg.sender) returns (uint256, uint256, uint256) {\r\n        address walletRetailer = msg.sender;\r\n\r\n        require(retailerService.isUserPresent(walletRetailer), \"User is not present in data\");\r\n\r\n        require(this.isCheesePiecePresent(walletRetailer, _id_CheesePiece), \"CheesePiece is not present in data\");\r\n\r\n        return retailerInventoryStorage.getCheesePiece(walletRetailer, _id_CheesePiece);\r\n    }\r\n\r\n    function deleteCheesePiece(uint256 _id) external returns (bool) {\r\n        address walletRetailer = msg.sender;\r\n\r\n        require(retailerService.isUserPresent(walletRetailer), \"User is not present!\");\r\n\r\n        require(this.isCheesePiecePresent(walletRetailer, _id), \"CheesePiece not Present!\");\r\n\r\n        if (retailerInventoryStorage.deleteCheesePiece(walletRetailer, _id)) {\r\n            emit CheesePieceDeleted(walletRetailer, \"CheesePiece e' stato eliminato\", _id);\r\n            return true;\r\n        } else {\r\n            return false;\r\n        }\r\n    }\r\n\r\n    function transformCheeseBlock(\r\n        address walletRetailer,\r\n        uint256 _id_CheeseBlockAcquistato,\r\n        uint256 quantityToTransform,\r\n        uint256 price) external {\r\n\r\n\r\n            require(retailerCheeseBlockService.isCheeseBlockAcquistataPresent(walletRetailer, _id_CheeseBlockAcquistato), \"Prodotto non presente!\");\r\n\r\n            require(quantityToTransform <= 3, \"Quantita' da trasformare non valida!\");\r\n\r\n            require(quantityToTransform <= retailerCheeseBlockService.getQuantity(walletRetailer, _id_CheeseBlockAcquistato), \"Quantita' da trasformare non valida!\");\r\n\r\n            uint256 newQuantity = retailerCheeseBlockService.getQuantity(walletRetailer, _id_CheeseBlockAcquistato) - quantityToTransform;\r\n\r\n            retailerCheeseBlockService.updateCheeseBlockQuantity(walletRetailer, _id_CheeseBlockAcquistato, newQuantity);\r\n\r\n            addCheesePiece(walletRetailer, _id_CheeseBlockAcquistato, price, quantityToTransform);\r\n    }\r\n\r\n\r\n\r\n//------------------------------------------------------------------------ Get Function -----------------------------------------------------------//\r\n\r\n\r\n    function getPrice(address walletRetailer, uint256 _id) external view returns (uint256) {\r\n        require(retailerService.isUserPresent(walletRetailer), \"User is not present!\");\r\n\r\n        require(this.isCheesePiecePresent(walletRetailer, _id), \"CheesePiece not Present!\");\r\n\r\n        return retailerInventoryStorage.getPrice(walletRetailer, _id);\r\n    }\r\n\r\n    function getWeight(address walletRetailer, uint256 _id) external view returns (uint256) {\r\n        require(retailerService.isUserPresent(walletRetailer), \"User is not present!\");\r\n\r\n        require(this.isCheesePiecePresent(walletRetailer, _id), \"CheesePiece not Present!\");\r\n\r\n        return retailerInventoryStorage.getWeight(walletRetailer, _id);\r\n    }\r\n\r\n    function isCheesePiecePresent(address walletRetailer, uint256 _id_cheesePiece) external view checkAddress(walletRetailer) returns (bool) {\r\n        return retailerInventoryStorage.isCheesePiecePresent(walletRetailer, _id_cheesePiece);\r\n    }\r\n\r\n\r\n//------------------------------------------------------------------------  Set Function -----------------------------------------------------------//\r\n\r\n\r\n    /**\r\n    * Decremento della quantit del MilkBatch \r\n    * Verifica che la quantit sia maggiore di 0 -> altrimenti elimina\r\n    */\r\n    function updateWeight(\r\n        address onwerCheesePiece,\r\n        uint256 _id,\r\n        uint256 _quantity ) external checkAddress(onwerCheesePiece) {\r\n\r\n        require(retailerService.isUserPresent(onwerCheesePiece), \"User is not present!\");\r\n\r\n        require(this.isCheesePiecePresent(onwerCheesePiece, _id),\"MilkBatch not Present!\");\r\n\r\n        retailerInventoryStorage.updateWeight(onwerCheesePiece, _id, _quantity);\r\n\r\n        emit CheesePieceEdited(onwerCheesePiece,\"MilkBatch edited!\", _quantity);\r\n    }\r\n\r\n\r\n\r\n    \r\n}\r\n",
  "sourcePath": "/home/udm-root/Filiera-Token-Deploy/contracts/Actor/Retailer-smart-contract/inventory/RetailerInventoryService.sol",
  "compiler": {
    "name": "solc",
    "version": "0.8.24+commit.e11b9ed9.Emscripten.clang"
  },
  "schemaVersion": "3.4.16",
  "updatedAt": "2024-02-27T19:47:26.683Z",
  "devdoc": {
    "kind": "dev",
    "methods": {},
    "version": 1
  },
  "userdoc": {
    "kind": "user",
    "methods": {
      "updateWeight(address,uint256,uint256)": {
        "notice": "Decremento della quantit del MilkBatch  Verifica che la quantit sia maggiore di 0 -> altrimenti elimina"
      }
    },
    "version": 1
  }
}