{
  "contractName": "RetailerBuyerService",
  "abi": [
    {
      "inputs": [
        {
          "internalType": "address",
          "name": "_retailerBuyerStorage",
          "type": "address"
        },
        {
          "internalType": "address",
          "name": "_retailerService",
          "type": "address"
        }
      ],
      "stateMutability": "nonpayable",
      "type": "constructor"
    },
    {
      "anonymous": false,
      "inputs": [
        {
          "indexed": true,
          "internalType": "address",
          "name": "userAddress",
          "type": "address"
        },
        {
          "indexed": false,
          "internalType": "string",
          "name": "message",
          "type": "string"
        },
        {
          "indexed": false,
          "internalType": "uint256",
          "name": "id",
          "type": "uint256"
        },
        {
          "indexed": false,
          "internalType": "string",
          "name": "expirationDate",
          "type": "string"
        },
        {
          "indexed": false,
          "internalType": "uint256",
          "name": "quantity",
          "type": "uint256"
        }
      ],
      "name": "RetailerCheeseBlockAdded",
      "type": "event"
    },
    {
      "anonymous": false,
      "inputs": [
        {
          "indexed": true,
          "internalType": "address",
          "name": "userAddress",
          "type": "address"
        },
        {
          "indexed": false,
          "internalType": "string",
          "name": "message",
          "type": "string"
        }
      ],
      "name": "RetailerCheeseBlockDeleted",
      "type": "event"
    },
    {
      "anonymous": false,
      "inputs": [
        {
          "indexed": true,
          "internalType": "address",
          "name": "userAddress",
          "type": "address"
        },
        {
          "indexed": false,
          "internalType": "string",
          "name": "message",
          "type": "string"
        },
        {
          "indexed": false,
          "internalType": "uint256",
          "name": "quantity",
          "type": "uint256"
        }
      ],
      "name": "RetailerCheeseBlockEdited",
      "type": "event"
    },
    {
      "inputs": [
        {
          "internalType": "address",
          "name": "_walletCheeseProducer",
          "type": "address"
        },
        {
          "internalType": "address",
          "name": "_walletRetailer",
          "type": "address"
        },
        {
          "internalType": "uint256",
          "name": "_id_CheeseBlock",
          "type": "uint256"
        },
        {
          "internalType": "string",
          "name": "_dop",
          "type": "string"
        },
        {
          "internalType": "uint256",
          "name": "_quantity",
          "type": "uint256"
        }
      ],
      "name": "addCheeseBlock",
      "outputs": [],
      "stateMutability": "nonpayable",
      "type": "function"
    },
    {
      "inputs": [
        {
          "internalType": "uint256",
          "name": "_id_CheeseBlockAcquistato",
          "type": "uint256"
        }
      ],
      "name": "getCheeseBlock",
      "outputs": [
        {
          "internalType": "uint256",
          "name": "",
          "type": "uint256"
        },
        {
          "internalType": "address",
          "name": "",
          "type": "address"
        },
        {
          "internalType": "string",
          "name": "",
          "type": "string"
        },
        {
          "internalType": "uint256",
          "name": "",
          "type": "uint256"
        }
      ],
      "stateMutability": "view",
      "type": "function"
    },
    {
      "inputs": [
        {
          "internalType": "address",
          "name": "_walletRetailer",
          "type": "address"
        },
        {
          "internalType": "uint256",
          "name": "_id_CheeseBlockAcquistato",
          "type": "uint256"
        }
      ],
      "name": "getDop",
      "outputs": [
        {
          "internalType": "string",
          "name": "",
          "type": "string"
        }
      ],
      "stateMutability": "view",
      "type": "function"
    },
    {
      "inputs": [
        {
          "internalType": "address",
          "name": "_walletRetailer",
          "type": "address"
        },
        {
          "internalType": "uint256",
          "name": "_id_CheeseBlockAcquistato",
          "type": "uint256"
        }
      ],
      "name": "getQuantity",
      "outputs": [
        {
          "internalType": "uint256",
          "name": "",
          "type": "uint256"
        }
      ],
      "stateMutability": "view",
      "type": "function"
    },
    {
      "inputs": [
        {
          "internalType": "address",
          "name": "_walletRetailer",
          "type": "address"
        },
        {
          "internalType": "uint256",
          "name": "_id_CheeseBlockAcquistato",
          "type": "uint256"
        }
      ],
      "name": "getWalletCheeseProducer",
      "outputs": [
        {
          "internalType": "address",
          "name": "",
          "type": "address"
        }
      ],
      "stateMutability": "view",
      "type": "function"
    },
    {
      "inputs": [
        {
          "internalType": "address",
          "name": "_walletRetailer",
          "type": "address"
        },
        {
          "internalType": "uint256",
          "name": "_id_CheeseBlockAcquistato",
          "type": "uint256"
        }
      ],
      "name": "isCheeseBlockAcquistataPresent",
      "outputs": [
        {
          "internalType": "bool",
          "name": "",
          "type": "bool"
        }
      ],
      "stateMutability": "view",
      "type": "function"
    },
    {
      "inputs": [
        {
          "internalType": "address",
          "name": "walletRetailer",
          "type": "address"
        }
      ],
      "name": "getPurchasedCheeseBlockByRetailer",
      "outputs": [
        {
          "internalType": "uint256[]",
          "name": "",
          "type": "uint256[]"
        }
      ],
      "stateMutability": "view",
      "type": "function"
    },
    {
      "inputs": [
        {
          "internalType": "address",
          "name": "walletRetailer",
          "type": "address"
        },
        {
          "internalType": "uint256",
          "name": "_id_CheeseBlock",
          "type": "uint256"
        },
        {
          "internalType": "uint256",
          "name": "_quantity",
          "type": "uint256"
        }
      ],
      "name": "updateCheeseBlockQuantity",
      "outputs": [],
      "stateMutability": "nonpayable",
      "type": "function"
    },
    {
      "inputs": [
        {
          "internalType": "address",
          "name": "_retailerBuyerStorage",
          "type": "address"
        }
      ],
      "name": "changeRetailerBuyerStorage",
      "outputs": [],
      "stateMutability": "nonpayable",
      "type": "function"
    },
    {
      "inputs": [
        {
          "internalType": "address",
          "name": "_retailerService",
          "type": "address"
        }
      ],
      "name": "changeRetailerService",
      "outputs": [],
      "stateMutability": "nonpayable",
      "type": "function"
    }
  ],
  "bytecode": "0x60806040523480156200001157600080fd5b506040516200396b3803806200396b83398181016040528101906200003791906200016b565b81600160006101000a81548173ffffffffffffffffffffffffffffffffffffffff021916908373ffffffffffffffffffffffffffffffffffffffff16021790555080600260006101000a81548173ffffffffffffffffffffffffffffffffffffffff021916908373ffffffffffffffffffffffffffffffffffffffff160217905550336000806101000a81548173ffffffffffffffffffffffffffffffffffffffff021916908373ffffffffffffffffffffffffffffffffffffffff1602179055505050620001b2565b600080fd5b600073ffffffffffffffffffffffffffffffffffffffff82169050919050565b6000620001338262000106565b9050919050565b620001458162000126565b81146200015157600080fd5b50565b60008151905062000165816200013a565b92915050565b6000806040838503121562000185576200018462000101565b5b6000620001958582860162000154565b9250506020620001a88582860162000154565b9150509250929050565b6137a980620001c26000396000f3fe608060405234801561001057600080fd5b506004361061009e5760003560e01c80638b3c04ce116100665780638b3c04ce1461015a578063cc23172614610176578063d5e677f0146101a6578063f93bd021146101d6578063fedf6092146102065761009e565b80631e073fcf146100a35780634c939786146100d357806355eabd671461010657806377e94d9e146101225780637d0875aa1461013e575b600080fd5b6100bd60048036038101906100b8919061281e565b610236565b6040516100ca919061286d565b60405180910390f35b6100ed60048036038101906100e89190612888565b610693565b6040516100fd9493929190612954565b60405180910390f35b610120600480360381019061011b91906129a0565b610b07565b005b61013c600480360381019061013791906129cd565b610b4b565b005b610158600480360381019061015391906129a0565b611006565b005b610174600480360381019061016f9190612b55565b6110d8565b005b610190600480360381019061018b919061281e565b611771565b60405161019d9190612bec565b60405180910390f35b6101c060048036038101906101bb919061281e565b611bce565b6040516101cd9190612c22565b60405180910390f35b6101f060048036038101906101eb919061281e565b611f70565b6040516101fd9190612c3d565b60405180910390f35b610220600480360381019061021b91906129a0565b6123d2565b60405161022d9190612d1d565b60405180910390f35b600033600073ffffffffffffffffffffffffffffffffffffffff168173ffffffffffffffffffffffffffffffffffffffff16036102a8576040517f08c379a000000000000000000000000000000000000000000000000000000000815260040161029f90612d8b565b60405180910390fd5b600160009054906101000a900473ffffffffffffffffffffffffffffffffffffffff1673ffffffffffffffffffffffffffffffffffffffff168173ffffffffffffffffffffffffffffffffffffffff1603610338576040517f08c379a000000000000000000000000000000000000000000000000000000000815260040161032f90612df7565b60405180910390fd5b600260009054906101000a900473ffffffffffffffffffffffffffffffffffffffff1673ffffffffffffffffffffffffffffffffffffffff168173ffffffffffffffffffffffffffffffffffffffff16036103c8576040517f08c379a00000000000000000000000000000000000000000000000000000000081526004016103bf90612e63565b60405180910390fd5b60008054906101000a900473ffffffffffffffffffffffffffffffffffffffff1673ffffffffffffffffffffffffffffffffffffffff168173ffffffffffffffffffffffffffffffffffffffff1603610456576040517f08c379a000000000000000000000000000000000000000000000000000000000815260040161044d90612ecf565b60405180910390fd5b600260009054906101000a900473ffffffffffffffffffffffffffffffffffffffff1673ffffffffffffffffffffffffffffffffffffffff1663a5578807856040518263ffffffff1660e01b81526004016104b19190612bec565b602060405180830381865afa1580156104ce573d6000803e3d6000fd5b505050506040513d601f19601f820116820180604052508101906104f29190612f1b565b610531576040517f08c379a000000000000000000000000000000000000000000000000000000000815260040161052890612f94565b60405180910390fd5b3073ffffffffffffffffffffffffffffffffffffffff1663d5e677f085856040518363ffffffff1660e01b815260040161056c929190612fb4565b602060405180830381865afa158015610589573d6000803e3d6000fd5b505050506040513d601f19601f820116820180604052508101906105ad9190612f1b565b6105ec576040517f08c379a00000000000000000000000000000000000000000000000000000000081526004016105e390613029565b60405180910390fd5b600160009054906101000a900473ffffffffffffffffffffffffffffffffffffffff1673ffffffffffffffffffffffffffffffffffffffff16631e073fcf85856040518363ffffffff1660e01b8152600401610649929190612fb4565b602060405180830381865afa158015610666573d6000803e3d6000fd5b505050506040513d601f19601f8201168201806040525081019061068a919061305e565b91505092915050565b6000806060600033600073ffffffffffffffffffffffffffffffffffffffff168173ffffffffffffffffffffffffffffffffffffffff160361070a576040517f08c379a000000000000000000000000000000000000000000000000000000000815260040161070190612d8b565b60405180910390fd5b600160009054906101000a900473ffffffffffffffffffffffffffffffffffffffff1673ffffffffffffffffffffffffffffffffffffffff168173ffffffffffffffffffffffffffffffffffffffff160361079a576040517f08c379a000000000000000000000000000000000000000000000000000000000815260040161079190612df7565b60405180910390fd5b600260009054906101000a900473ffffffffffffffffffffffffffffffffffffffff1673ffffffffffffffffffffffffffffffffffffffff168173ffffffffffffffffffffffffffffffffffffffff160361082a576040517f08c379a000000000000000000000000000000000000000000000000000000000815260040161082190612e63565b60405180910390fd5b60008054906101000a900473ffffffffffffffffffffffffffffffffffffffff1673ffffffffffffffffffffffffffffffffffffffff168173ffffffffffffffffffffffffffffffffffffffff16036108b8576040517f08c379a00000000000000000000000000000000000000000000000000000000081526004016108af90612ecf565b60405180910390fd5b6000339050600260009054906101000a900473ffffffffffffffffffffffffffffffffffffffff1673ffffffffffffffffffffffffffffffffffffffff1663a5578807826040518263ffffffff1660e01b81526004016109189190612bec565b602060405180830381865afa158015610935573d6000803e3d6000fd5b505050506040513d601f19601f820116820180604052508101906109599190612f1b565b610998576040517f08c379a000000000000000000000000000000000000000000000000000000000815260040161098f90612f94565b60405180910390fd5b3073ffffffffffffffffffffffffffffffffffffffff1663d5e677f082896040518363ffffffff1660e01b81526004016109d3929190612fb4565b602060405180830381865afa1580156109f0573d6000803e3d6000fd5b505050506040513d601f19601f82011682018060405250810190610a149190612f1b565b610a53576040517f08c379a0000000000000000000000000000000000000000000000000000000008152600401610a4a90613029565b60405180910390fd5b600160009054906101000a900473ffffffffffffffffffffffffffffffffffffffff1673ffffffffffffffffffffffffffffffffffffffff16636fb82e0682896040518363ffffffff1660e01b8152600401610ab0929190612fb4565b600060405180830381865afa158015610acd573d6000803e3d6000fd5b505050506040513d6000823e3d601f19601f82011682018060405250810190610af69190613110565b955095509550955050509193509193565b80600260006101000a81548173ffffffffffffffffffffffffffffffffffffffff021916908373ffffffffffffffffffffffffffffffffffffffff16021790555050565b82600073ffffffffffffffffffffffffffffffffffffffff168173ffffffffffffffffffffffffffffffffffffffff1603610bbb576040517f08c379a0000000000000000000000000000000000000000000000000000000008152600401610bb290612d8b565b60405180910390fd5b600160009054906101000a900473ffffffffffffffffffffffffffffffffffffffff1673ffffffffffffffffffffffffffffffffffffffff168173ffffffffffffffffffffffffffffffffffffffff1603610c4b576040517f08c379a0000000000000000000000000000000000000000000000000000000008152600401610c4290612df7565b60405180910390fd5b600260009054906101000a900473ffffffffffffffffffffffffffffffffffffffff1673ffffffffffffffffffffffffffffffffffffffff168173ffffffffffffffffffffffffffffffffffffffff1603610cdb576040517f08c379a0000000000000000000000000000000000000000000000000000000008152600401610cd290612e63565b60405180910390fd5b60008054906101000a900473ffffffffffffffffffffffffffffffffffffffff1673ffffffffffffffffffffffffffffffffffffffff168173ffffffffffffffffffffffffffffffffffffffff1603610d69576040517f08c379a0000000000000000000000000000000000000000000000000000000008152600401610d6090612ecf565b60405180910390fd5b600260009054906101000a900473ffffffffffffffffffffffffffffffffffffffff1673ffffffffffffffffffffffffffffffffffffffff1663a5578807856040518263ffffffff1660e01b8152600401610dc49190612bec565b602060405180830381865afa158015610de1573d6000803e3d6000fd5b505050506040513d601f19601f82011682018060405250810190610e059190612f1b565b610e44576040517f08c379a0000000000000000000000000000000000000000000000000000000008152600401610e3b906131df565b60405180910390fd5b600160009054906101000a900473ffffffffffffffffffffffffffffffffffffffff1673ffffffffffffffffffffffffffffffffffffffff1663cfa41ed085856040518363ffffffff1660e01b8152600401610ea1929190612fb4565b602060405180830381865afa158015610ebe573d6000803e3d6000fd5b505050506040513d601f19601f82011682018060405250810190610ee29190612f1b565b610f21576040517f08c379a0000000000000000000000000000000000000000000000000000000008152600401610f189061324b565b60405180910390fd5b600160009054906101000a900473ffffffffffffffffffffffffffffffffffffffff1673ffffffffffffffffffffffffffffffffffffffff1663453ecf048585856040518463ffffffff1660e01b8152600401610f809392919061326b565b600060405180830381600087803b158015610f9a57600080fd5b505af1158015610fae573d6000803e3d6000fd5b505050508373ffffffffffffffffffffffffffffffffffffffff167f3ca76a6a112151cbb6909158898f9c1893d9049d6eccab3e0d06e97515425cbe83604051610ff891906132ee565b60405180910390a250505050565b60008054906101000a900473ffffffffffffffffffffffffffffffffffffffff1673ffffffffffffffffffffffffffffffffffffffff163373ffffffffffffffffffffffffffffffffffffffff1614611094576040517f08c379a000000000000000000000000000000000000000000000000000000000815260040161108b90613368565b60405180910390fd5b80600160006101000a81548173ffffffffffffffffffffffffffffffffffffffff021916908373ffffffffffffffffffffffffffffffffffffffff16021790555050565b83600073ffffffffffffffffffffffffffffffffffffffff168173ffffffffffffffffffffffffffffffffffffffff1603611148576040517f08c379a000000000000000000000000000000000000000000000000000000000815260040161113f90612d8b565b60405180910390fd5b600160009054906101000a900473ffffffffffffffffffffffffffffffffffffffff1673ffffffffffffffffffffffffffffffffffffffff168173ffffffffffffffffffffffffffffffffffffffff16036111d8576040517f08c379a00000000000000000000000000000000000000000000000000000000081526004016111cf90612df7565b60405180910390fd5b600260009054906101000a900473ffffffffffffffffffffffffffffffffffffffff1673ffffffffffffffffffffffffffffffffffffffff168173ffffffffffffffffffffffffffffffffffffffff1603611268576040517f08c379a000000000000000000000000000000000000000000000000000000000815260040161125f90612e63565b60405180910390fd5b60008054906101000a900473ffffffffffffffffffffffffffffffffffffffff1673ffffffffffffffffffffffffffffffffffffffff168173ffffffffffffffffffffffffffffffffffffffff16036112f6576040517f08c379a00000000000000000000000000000000000000000000000000000000081526004016112ed90612ecf565b60405180910390fd5b85600073ffffffffffffffffffffffffffffffffffffffff168173ffffffffffffffffffffffffffffffffffffffff1603611366576040517f08c379a000000000000000000000000000000000000000000000000000000000815260040161135d90612d8b565b60405180910390fd5b600160009054906101000a900473ffffffffffffffffffffffffffffffffffffffff1673ffffffffffffffffffffffffffffffffffffffff168173ffffffffffffffffffffffffffffffffffffffff16036113f6576040517f08c379a00000000000000000000000000000000000000000000000000000000081526004016113ed90612df7565b60405180910390fd5b600260009054906101000a900473ffffffffffffffffffffffffffffffffffffffff1673ffffffffffffffffffffffffffffffffffffffff168173ffffffffffffffffffffffffffffffffffffffff1603611486576040517f08c379a000000000000000000000000000000000000000000000000000000000815260040161147d90612e63565b60405180910390fd5b60008054906101000a900473ffffffffffffffffffffffffffffffffffffffff1673ffffffffffffffffffffffffffffffffffffffff168173ffffffffffffffffffffffffffffffffffffffff1603611514576040517f08c379a000000000000000000000000000000000000000000000000000000000815260040161150b90612ecf565b60405180910390fd5b8673ffffffffffffffffffffffffffffffffffffffff168673ffffffffffffffffffffffffffffffffffffffff1603611582576040517f08c379a0000000000000000000000000000000000000000000000000000000008152600401611579906133fa565b60405180910390fd5b600260009054906101000a900473ffffffffffffffffffffffffffffffffffffffff1673ffffffffffffffffffffffffffffffffffffffff1663a5578807876040518263ffffffff1660e01b81526004016115dd9190612bec565b602060405180830381865afa1580156115fa573d6000803e3d6000fd5b505050506040513d601f19601f8201168201806040525081019061161e9190612f1b565b61165d576040517f08c379a000000000000000000000000000000000000000000000000000000000815260040161165490612f94565b60405180910390fd5b6000806000600160009054906101000a900473ffffffffffffffffffffffffffffffffffffffff1673ffffffffffffffffffffffffffffffffffffffff16638b3c04ce8a8c8b8b8b6040518663ffffffff1660e01b81526004016116c595949392919061341a565b6000604051808303816000875af11580156116e4573d6000803e3d6000fd5b505050506040513d6000823e3d601f19601f8201168201806040525081019061170d9190613474565b9250925092508873ffffffffffffffffffffffffffffffffffffffff167ff8d6c42146fa3f110f6c2c22797e8af4ed0e24550f3ab8fb75d5fe686b1b0adb84848460405161175d9392919061352f565b60405180910390a250505050505050505050565b600033600073ffffffffffffffffffffffffffffffffffffffff168173ffffffffffffffffffffffffffffffffffffffff16036117e3576040517f08c379a00000000000000000000000000000000000000000000000000000000081526004016117da90612d8b565b60405180910390fd5b600160009054906101000a900473ffffffffffffffffffffffffffffffffffffffff1673ffffffffffffffffffffffffffffffffffffffff168173ffffffffffffffffffffffffffffffffffffffff1603611873576040517f08c379a000000000000000000000000000000000000000000000000000000000815260040161186a90612df7565b60405180910390fd5b600260009054906101000a900473ffffffffffffffffffffffffffffffffffffffff1673ffffffffffffffffffffffffffffffffffffffff168173ffffffffffffffffffffffffffffffffffffffff1603611903576040517f08c379a00000000000000000000000000000000000000000000000000000000081526004016118fa90612e63565b60405180910390fd5b60008054906101000a900473ffffffffffffffffffffffffffffffffffffffff1673ffffffffffffffffffffffffffffffffffffffff168173ffffffffffffffffffffffffffffffffffffffff1603611991576040517f08c379a000000000000000000000000000000000000000000000000000000000815260040161198890612ecf565b60405180910390fd5b600260009054906101000a900473ffffffffffffffffffffffffffffffffffffffff1673ffffffffffffffffffffffffffffffffffffffff1663a5578807856040518263ffffffff1660e01b81526004016119ec9190612bec565b602060405180830381865afa158015611a09573d6000803e3d6000fd5b505050506040513d601f19601f82011682018060405250810190611a2d9190612f1b565b611a6c576040517f08c379a0000000000000000000000000000000000000000000000000000000008152600401611a6390612f94565b60405180910390fd5b3073ffffffffffffffffffffffffffffffffffffffff1663d5e677f085856040518363ffffffff1660e01b8152600401611aa7929190612fb4565b602060405180830381865afa158015611ac4573d6000803e3d6000fd5b505050506040513d601f19601f82011682018060405250810190611ae89190612f1b565b611b27576040517f08c379a0000000000000000000000000000000000000000000000000000000008152600401611b1e90613029565b60405180910390fd5b600160009054906101000a900473ffffffffffffffffffffffffffffffffffffffff1673ffffffffffffffffffffffffffffffffffffffff1663cc23172685856040518363ffffffff1660e01b8152600401611b84929190612fb4565b602060405180830381865afa158015611ba1573d6000803e3d6000fd5b505050506040513d601f19601f82011682018060405250810190611bc59190613580565b91505092915050565b600082600073ffffffffffffffffffffffffffffffffffffffff168173ffffffffffffffffffffffffffffffffffffffff1603611c40576040517f08c379a0000000000000000000000000000000000000000000000000000000008152600401611c3790612d8b565b60405180910390fd5b600160009054906101000a900473ffffffffffffffffffffffffffffffffffffffff1673ffffffffffffffffffffffffffffffffffffffff168173ffffffffffffffffffffffffffffffffffffffff1603611cd0576040517f08c379a0000000000000000000000000000000000000000000000000000000008152600401611cc790612df7565b60405180910390fd5b600260009054906101000a900473ffffffffffffffffffffffffffffffffffffffff1673ffffffffffffffffffffffffffffffffffffffff168173ffffffffffffffffffffffffffffffffffffffff1603611d60576040517f08c379a0000000000000000000000000000000000000000000000000000000008152600401611d5790612e63565b60405180910390fd5b60008054906101000a900473ffffffffffffffffffffffffffffffffffffffff1673ffffffffffffffffffffffffffffffffffffffff168173ffffffffffffffffffffffffffffffffffffffff1603611dee576040517f08c379a0000000000000000000000000000000000000000000000000000000008152600401611de590612ecf565b60405180910390fd5b600260009054906101000a900473ffffffffffffffffffffffffffffffffffffffff1673ffffffffffffffffffffffffffffffffffffffff1663a5578807856040518263ffffffff1660e01b8152600401611e499190612bec565b602060405180830381865afa158015611e66573d6000803e3d6000fd5b505050506040513d601f19601f82011682018060405250810190611e8a9190612f1b565b611ec9576040517f08c379a0000000000000000000000000000000000000000000000000000000008152600401611ec0906135f9565b60405180910390fd5b600160009054906101000a900473ffffffffffffffffffffffffffffffffffffffff1673ffffffffffffffffffffffffffffffffffffffff1663cfa41ed085856040518363ffffffff1660e01b8152600401611f26929190612fb4565b602060405180830381865afa158015611f43573d6000803e3d6000fd5b505050506040513d601f19601f82011682018060405250810190611f679190612f1b565b91505092915050565b606033600073ffffffffffffffffffffffffffffffffffffffff168173ffffffffffffffffffffffffffffffffffffffff1603611fe2576040517f08c379a0000000000000000000000000000000000000000000000000000000008152600401611fd990612d8b565b60405180910390fd5b600160009054906101000a900473ffffffffffffffffffffffffffffffffffffffff1673ffffffffffffffffffffffffffffffffffffffff168173ffffffffffffffffffffffffffffffffffffffff1603612072576040517f08c379a000000000000000000000000000000000000000000000000000000000815260040161206990612df7565b60405180910390fd5b600260009054906101000a900473ffffffffffffffffffffffffffffffffffffffff1673ffffffffffffffffffffffffffffffffffffffff168173ffffffffffffffffffffffffffffffffffffffff1603612102576040517f08c379a00000000000000000000000000000000000000000000000000000000081526004016120f990612e63565b60405180910390fd5b60008054906101000a900473ffffffffffffffffffffffffffffffffffffffff1673ffffffffffffffffffffffffffffffffffffffff168173ffffffffffffffffffffffffffffffffffffffff1603612190576040517f08c379a000000000000000000000000000000000000000000000000000000000815260040161218790612ecf565b60405180910390fd5b600260009054906101000a900473ffffffffffffffffffffffffffffffffffffffff1673ffffffffffffffffffffffffffffffffffffffff1663a5578807856040518263ffffffff1660e01b81526004016121eb9190612bec565b602060405180830381865afa158015612208573d6000803e3d6000fd5b505050506040513d601f19601f8201168201806040525081019061222c9190612f1b565b61226b576040517f08c379a000000000000000000000000000000000000000000000000000000000815260040161226290612f94565b60405180910390fd5b3073ffffffffffffffffffffffffffffffffffffffff1663d5e677f085856040518363ffffffff1660e01b81526004016122a6929190612fb4565b602060405180830381865afa1580156122c3573d6000803e3d6000fd5b505050506040513d601f19601f820116820180604052508101906122e79190612f1b565b612326576040517f08c379a000000000000000000000000000000000000000000000000000000000815260040161231d90613029565b60405180910390fd5b600160009054906101000a900473ffffffffffffffffffffffffffffffffffffffff1673ffffffffffffffffffffffffffffffffffffffff1663f93bd02185856040518363ffffffff1660e01b8152600401612383929190612fb4565b600060405180830381865afa1580156123a0573d6000803e3d6000fd5b505050506040513d6000823e3d601f19601f820116820180604052508101906123c99190613619565b91505092915050565b606081600073ffffffffffffffffffffffffffffffffffffffff168173ffffffffffffffffffffffffffffffffffffffff1603612444576040517f08c379a000000000000000000000000000000000000000000000000000000000815260040161243b90612d8b565b60405180910390fd5b600160009054906101000a900473ffffffffffffffffffffffffffffffffffffffff1673ffffffffffffffffffffffffffffffffffffffff168173ffffffffffffffffffffffffffffffffffffffff16036124d4576040517f08c379a00000000000000000000000000000000000000000000000000000000081526004016124cb90612df7565b60405180910390fd5b600260009054906101000a900473ffffffffffffffffffffffffffffffffffffffff1673ffffffffffffffffffffffffffffffffffffffff168173ffffffffffffffffffffffffffffffffffffffff1603612564576040517f08c379a000000000000000000000000000000000000000000000000000000000815260040161255b90612e63565b60405180910390fd5b60008054906101000a900473ffffffffffffffffffffffffffffffffffffffff1673ffffffffffffffffffffffffffffffffffffffff168173ffffffffffffffffffffffffffffffffffffffff16036125f2576040517f08c379a00000000000000000000000000000000000000000000000000000000081526004016125e990612ecf565b60405180910390fd5b600260009054906101000a900473ffffffffffffffffffffffffffffffffffffffff1673ffffffffffffffffffffffffffffffffffffffff1663a5578807846040518263ffffffff1660e01b815260040161264d9190612bec565b602060405180830381865afa15801561266a573d6000803e3d6000fd5b505050506040513d601f19601f8201168201806040525081019061268e9190612f1b565b6126cd576040517f08c379a00000000000000000000000000000000000000000000000000000000081526004016126c4906131df565b60405180910390fd5b600160009054906101000a900473ffffffffffffffffffffffffffffffffffffffff1673ffffffffffffffffffffffffffffffffffffffff1663738533ae846040518263ffffffff1660e01b81526004016127289190612bec565b600060405180830381865afa158015612745573d6000803e3d6000fd5b505050506040513d6000823e3d601f19601f8201168201806040525081019061276e919061372a565b915050919050565b6000604051905090565b600080fd5b600080fd5b600073ffffffffffffffffffffffffffffffffffffffff82169050919050565b60006127b58261278a565b9050919050565b6127c5816127aa565b81146127d057600080fd5b50565b6000813590506127e2816127bc565b92915050565b6000819050919050565b6127fb816127e8565b811461280657600080fd5b50565b600081359050612818816127f2565b92915050565b6000806040838503121561283557612834612780565b5b6000612843858286016127d3565b925050602061285485828601612809565b9150509250929050565b612867816127e8565b82525050565b6000602082019050612882600083018461285e565b92915050565b60006020828403121561289e5761289d612780565b5b60006128ac84828501612809565b91505092915050565b6128be816127aa565b82525050565b600081519050919050565b600082825260208201905092915050565b60005b838110156128fe5780820151818401526020810190506128e3565b60008484015250505050565b6000601f19601f8301169050919050565b6000612926826128c4565b61293081856128cf565b93506129408185602086016128e0565b6129498161290a565b840191505092915050565b6000608082019050612969600083018761285e565b61297660208301866128b5565b8181036040830152612988818561291b565b9050612997606083018461285e565b95945050505050565b6000602082840312156129b6576129b5612780565b5b60006129c4848285016127d3565b91505092915050565b6000806000606084860312156129e6576129e5612780565b5b60006129f4868287016127d3565b9350506020612a0586828701612809565b9250506040612a1686828701612809565b9150509250925092565b600080fd5b600080fd5b7f4e487b7100000000000000000000000000000000000000000000000000000000600052604160045260246000fd5b612a628261290a565b810181811067ffffffffffffffff82111715612a8157612a80612a2a565b5b80604052505050565b6000612a94612776565b9050612aa08282612a59565b919050565b600067ffffffffffffffff821115612ac057612abf612a2a565b5b612ac98261290a565b9050602081019050919050565b82818337600083830152505050565b6000612af8612af384612aa5565b612a8a565b905082815260208101848484011115612b1457612b13612a25565b5b612b1f848285612ad6565b509392505050565b600082601f830112612b3c57612b3b612a20565b5b8135612b4c848260208601612ae5565b91505092915050565b600080600080600060a08688031215612b7157612b70612780565b5b6000612b7f888289016127d3565b9550506020612b90888289016127d3565b9450506040612ba188828901612809565b935050606086013567ffffffffffffffff811115612bc257612bc1612785565b5b612bce88828901612b27565b9250506080612bdf88828901612809565b9150509295509295909350565b6000602082019050612c0160008301846128b5565b92915050565b60008115159050919050565b612c1c81612c07565b82525050565b6000602082019050612c376000830184612c13565b92915050565b60006020820190508181036000830152612c57818461291b565b905092915050565b600081519050919050565b600082825260208201905092915050565b6000819050602082019050919050565b612c94816127e8565b82525050565b6000612ca68383612c8b565b60208301905092915050565b6000602082019050919050565b6000612cca82612c5f565b612cd48185612c6a565b9350612cdf83612c7b565b8060005b83811015612d10578151612cf78882612c9a565b9750612d0283612cb2565b925050600181019050612ce3565b5085935050505092915050565b60006020820190508181036000830152612d378184612cbf565b905092915050565b7f416464726573732076616c756520697320302100000000000000000000000000600082015250565b6000612d756013836128cf565b9150612d8082612d3f565b602082019050919050565b60006020820190508181036000830152612da481612d68565b9050919050565b7f416464726573732069732072657461696c6572427579657253746f7261676521600082015250565b6000612de16020836128cf565b9150612dec82612dab565b602082019050919050565b60006020820190508181036000830152612e1081612dd4565b9050919050565b7f416464726573732069732052657461696c657253657276696365210000000000600082015250565b6000612e4d601b836128cf565b9150612e5882612e17565b602082019050919050565b60006020820190508181036000830152612e7c81612e40565b9050919050565b7f41646472657373206973204f7267616e697a6174696f6e210000000000000000600082015250565b6000612eb96018836128cf565b9150612ec482612e83565b602082019050919050565b60006020820190508181036000830152612ee881612eac565b9050919050565b612ef881612c07565b8114612f0357600080fd5b50565b600081519050612f1581612eef565b92915050565b600060208284031215612f3157612f30612780565b5b6000612f3f84828501612f06565b91505092915050565b7f5574656e7465206e6f6e2074726f7661746f2100000000000000000000000000600082015250565b6000612f7e6013836128cf565b9150612f8982612f48565b602082019050919050565b60006020820190508181036000830152612fad81612f71565b9050919050565b6000604082019050612fc960008301856128b5565b612fd6602083018461285e565b9392505050565b7f50726f646f74746f206e6f6e2050726573656e74652100000000000000000000600082015250565b60006130136016836128cf565b915061301e82612fdd565b602082019050919050565b6000602082019050818103600083015261304281613006565b9050919050565b600081519050613058816127f2565b92915050565b60006020828403121561307457613073612780565b5b600061308284828501613049565b91505092915050565b60008151905061309a816127bc565b92915050565b60006130b36130ae84612aa5565b612a8a565b9050828152602081018484840111156130cf576130ce612a25565b5b6130da8482856128e0565b509392505050565b600082601f8301126130f7576130f6612a20565b5b81516131078482602086016130a0565b91505092915050565b6000806000806080858703121561312a57613129612780565b5b600061313887828801613049565b94505060206131498782880161308b565b935050604085015167ffffffffffffffff81111561316a57613169612785565b5b613176878288016130e2565b925050606061318787828801613049565b91505092959194509250565b7f55736572206973206e6f742070726573656e7421000000000000000000000000600082015250565b60006131c96014836128cf565b91506131d482613193565b602082019050919050565b600060208201905081810360008301526131f8816131bc565b9050919050565b7f436865657365426c6f636b206e6f742050726573656e74210000000000000000600082015250565b60006132356018836128cf565b9150613240826131ff565b602082019050919050565b6000602082019050818103600083015261326481613228565b9050919050565b600060608201905061328060008301866128b5565b61328d602083018561285e565b61329a604083018461285e565b949350505050565b7f436865657365426c6f636b206564697465642100000000000000000000000000600082015250565b60006132d86013836128cf565b91506132e3826132a2565b602082019050919050565b60006040820190508181036000830152613307816132cb565b9050613316602083018461285e565b92915050565b7f41646472657373206973206e6f7420746865206f7267616e697a6174696f6e00600082015250565b6000613352601f836128cf565b915061335d8261331c565b602082019050919050565b6000602082019050818103600083015261338181613345565b9050919050565b7f4164647265737320756775616c692052657461696c65722065204d696c6b487560008201527f6221000000000000000000000000000000000000000000000000000000000000602082015250565b60006133e46022836128cf565b91506133ef82613388565b604082019050919050565b60006020820190508181036000830152613413816133d7565b9050919050565b600060a08201905061342f60008301886128b5565b61343c60208301876128b5565b613449604083018661285e565b818103606083015261345b818561291b565b905061346a608083018461285e565b9695505050505050565b60008060006060848603121561348d5761348c612780565b5b600061349b86828701613049565b935050602084015167ffffffffffffffff8111156134bc576134bb612785565b5b6134c8868287016130e2565b92505060406134d986828701613049565b9150509250925092565b7f436865657365426c6f636b204163717569737461746f21000000000000000000600082015250565b60006135196017836128cf565b9150613524826134e3565b602082019050919050565b600060808201905081810360008301526135488161350c565b9050613557602083018661285e565b8181036040830152613569818561291b565b9050613578606083018461285e565b949350505050565b60006020828403121561359657613595612780565b5b60006135a48482850161308b565b91505092915050565b7f5574656e7465206e6f6e2070726573656e746521000000000000000000000000600082015250565b60006135e36014836128cf565b91506135ee826135ad565b602082019050919050565b60006020820190508181036000830152613612816135d6565b9050919050565b60006020828403121561362f5761362e612780565b5b600082015167ffffffffffffffff81111561364d5761364c612785565b5b613659848285016130e2565b91505092915050565b600067ffffffffffffffff82111561367d5761367c612a2a565b5b602082029050602081019050919050565b600080fd5b60006136a66136a184613662565b612a8a565b905080838252602082019050602084028301858111156136c9576136c861368e565b5b835b818110156136f257806136de8882613049565b8452602084019350506020810190506136cb565b5050509392505050565b600082601f83011261371157613710612a20565b5b8151613721848260208601613693565b91505092915050565b6000602082840312156137405761373f612780565b5b600082015167ffffffffffffffff81111561375e5761375d612785565b5b61376a848285016136fc565b9150509291505056fea26469706673582212200693eb13a726ef7cad4a853169def97114d5fcebf00e76fdc42cfe232f78443c64736f6c63430008180033",
  "immutableReferences": {},
  "source": "// SPDX-License-Identifier: MIT\r\npragma solidity ^0.8.21;\r\n\r\nimport \"./RetailerBuyerStorage.sol\";\r\nimport \"../RetailerService.sol\";\r\n\r\n\r\ncontract RetailerBuyerService {\r\n\r\n//------------------------------------------------------------------------ Address of other Contract Service -----------------------------------------------------------//\r\n\r\n    // Address of Organization che gestisce gli utenti\r\n    address private retailerOrg;\r\n    // Address of CheeseBlockStorage \r\n    RetailerBuyerStorage private retailerBuyerStorage;\r\n\r\n    RetailerService private retailerService;\r\n\r\n//------------------------------------------------------------------------ Event of Service  -----------------------------------------------------------//\r\n\r\n    // Eventi per notificare l'aggiunta di una Partita di Latte\r\n    event RetailerCheeseBlockAdded(address indexed userAddress,string message,uint256 id, string expirationDate, uint256 quantity);\r\n    // Evento per notificare che un CheeseBlock  stato eliminato \r\n    event RetailerCheeseBlockDeleted(address indexed userAddress, string message);\r\n    // Evento per notificare che un CheeseBlock  stato Editato\r\n    event RetailerCheeseBlockEdited(address indexed userAddress,string message, uint256 quantity);\r\n\r\n//------------------------------------------------------------------------ Constructor of other Contract Service -----------------------------------------------------------//\r\n\r\n    constructor(\r\n        address _retailerBuyerStorage, \r\n        address _retailerService) {\r\n        retailerBuyerStorage = RetailerBuyerStorage(_retailerBuyerStorage);\r\n        retailerService = RetailerService(_retailerService);\r\n        retailerOrg = msg.sender;\r\n    }\r\n\r\n//------------------------------------------------------------------------ Modifier Logic of Contract Service -----------------------------------------------------------//\r\n\r\n    modifier checkAddress(address caller){\r\n        \r\n        require(caller!=address(0),\"Address value is 0!\");\r\n        require(caller!=address(retailerBuyerStorage),\"Address is retailerBuyerStorage!\");\r\n        require(caller!=address(retailerService),\"Address is RetailerService!\");\r\n        require(caller!=address(retailerOrg),\"Address is Organization!\");\r\n        _;\r\n    }\r\n\r\n//------------------------------------------------------------------------ Business Logic of Contract Service -----------------------------------------------------------//\r\n\r\n    // Prodotti Acquistati devono essere visualizzati solo dal Retailer che li detiene \r\n    // TODO : Controllo del msg.sender sulle funzioni di GET \r\n\r\n\r\n    /**\r\n    * Tale funzione viene chiamata dal TransactionManager per inserire il CheeseBlock venduto dal MilkHub al Retailer \r\n    * I controlli vengono fatti tutti all'interno del TransactionManager per la verifica dell'esistenza dei due interessati \r\n    * - Ammettiamo che i controlli sul prodotto vengono gi fatti a monte \r\n    * - verifichiamo che il Retailer e il MilkHub esistono \r\n    * - verifichiamo che il CheeseBlock associato al MilkHub esiste \r\n    * - Aggiungiamo questi dati all'interno del Inventory \r\n    */\r\n    function addCheeseBlock(\r\n            \r\n            address _walletCheeseProducer,\r\n            address _walletRetailer,\r\n            uint256 _id_CheeseBlock,\r\n            string memory _dop,\r\n            uint256 _quantity\r\n\r\n        ) external checkAddress(_walletRetailer) checkAddress(_walletCheeseProducer) {\r\n        \r\n        // Verifico che Retailer e MilkHub address non sono identici\r\n        require(address(_walletRetailer)!=address(_walletCheeseProducer),\"Address uguali Retailer e MilkHub!\");\r\n\r\n        // Verfico che il Retailer  presente \r\n        require(retailerService.isUserPresent(_walletRetailer), \"Utente non trovato!\");\r\n\r\n        // Aggiungo il CheeseBlock all'interno dell'Inventario del Retailer \r\n        (uint256 id_CheeseBlock_Acquistato, string memory _dopCheese,uint256 quantity) = retailerBuyerStorage.addCheeseBlock(_walletRetailer, _walletCheeseProducer, _id_CheeseBlock, _dop, _quantity);\r\n\r\n        // Invio dell'Evento \r\n        emit RetailerCheeseBlockAdded(_walletRetailer,\"CheeseBlock Acquistato!\", id_CheeseBlock_Acquistato ,  _dopCheese, quantity);\r\n    }\r\n\r\n    \r\n    //TODO : Controllo sull'owner del CheeseBlock Acquistato \r\n    function getCheeseBlock(uint256 _id_CheeseBlockAcquistato) external view checkAddress(msg.sender) returns (uint256, address, string memory, uint256) {\r\n        \r\n        address _walletRetailer = msg.sender;\r\n\r\n        require(retailerService.isUserPresent(_walletRetailer), \"Utente non trovato!\");\r\n\r\n        require(this.isCheeseBlockAcquistataPresent(_walletRetailer,_id_CheeseBlockAcquistato),\"Prodotto non Presente!\");\r\n\r\n        return retailerBuyerStorage.getCheeseBlock(_walletRetailer, _id_CheeseBlockAcquistato);\r\n    }\r\n\r\n\r\n    \r\n    function getDop(address _walletRetailer, uint256 _id_CheeseBlockAcquistato) external view checkAddress(msg.sender) returns(string memory) {\r\n        \r\n        require(retailerService.isUserPresent(_walletRetailer), \"Utente non trovato!\");\r\n\r\n        require(this.isCheeseBlockAcquistataPresent(_walletRetailer,_id_CheeseBlockAcquistato),\"Prodotto non Presente!\");\r\n        \r\n        return retailerBuyerStorage.getDop(_walletRetailer,_id_CheeseBlockAcquistato);        \r\n    }\r\n\r\n    \r\n    function getQuantity(address _walletRetailer, uint256 _id_CheeseBlockAcquistato) external view checkAddress(msg.sender) returns(uint256) {\r\n        \r\n        require(retailerService.isUserPresent(_walletRetailer), \"Utente non trovato!\");\r\n\r\n        require(this.isCheeseBlockAcquistataPresent(_walletRetailer,_id_CheeseBlockAcquistato),\"Prodotto non Presente!\");\r\n        \r\n        return retailerBuyerStorage.getQuantity(_walletRetailer,_id_CheeseBlockAcquistato);        \r\n    }\r\n\r\n    \r\n    function getWalletCheeseProducer(address _walletRetailer, uint256 _id_CheeseBlockAcquistato) external view checkAddress(msg.sender) returns(address) {\r\n        \r\n        require(retailerService.isUserPresent(_walletRetailer), \"Utente non trovato!\");\r\n\r\n        require(this.isCheeseBlockAcquistataPresent(_walletRetailer,_id_CheeseBlockAcquistato),\"Prodotto non Presente!\");\r\n        \r\n        return retailerBuyerStorage.getWalletCheeseProducer(_walletRetailer,_id_CheeseBlockAcquistato);        \r\n    }\r\n\r\n    /**\r\n    * Verifica che il CheeseBlock  presente all'interno dell'inventario \r\n    * - Verifica che l'id non sia nullo e che sia maggiore di 0 e che coincida con l'elemento \r\n    */\r\n    function isCheeseBlockAcquistataPresent(address _walletRetailer, uint256 _id_CheeseBlockAcquistato) external view checkAddress(_walletRetailer)  returns (bool){\r\n        \r\n        require(retailerService.isUserPresent(_walletRetailer),\"Utente non presente!\");\r\n\r\n        return retailerBuyerStorage.isCheesePresent(_walletRetailer, _id_CheeseBlockAcquistato);\r\n    }\r\n\r\n    \r\n    \r\n    function getPurchasedCheeseBlockByRetailer(address walletRetailer) external checkAddress(walletRetailer) view returns (uint256[] memory){\r\n        // Check if exist \r\n        require(retailerService.isUserPresent(walletRetailer), \"User is not present!\");\r\n\r\n        return retailerBuyerStorage.getListCheeseIdPurchasedByRetailer(walletRetailer);\r\n    }\r\n\r\n\r\n//-------------------------------------------------------------------- Set Function ------------------------------------------------------------------------//\r\n\r\n    /**\r\n    * \r\n    * - Decremento della quantit del CheeseBlockAcquistato per la trasformazione in Cheese \r\n    */\r\n    function updateCheeseBlockQuantity(address walletRetailer, uint256 _id_CheeseBlock, uint256 _quantity) external checkAddress(walletRetailer) {\r\n\r\n        require(retailerService.isUserPresent(walletRetailer), \"User is not present!\");\r\n\r\n        require(retailerBuyerStorage.isCheesePresent(walletRetailer, _id_CheeseBlock),\"CheeseBlock not Present!\");\r\n\r\n        retailerBuyerStorage.updateCheeseQuantity(walletRetailer, _id_CheeseBlock, _quantity);\r\n\r\n        emit RetailerCheeseBlockEdited(walletRetailer,\"CheeseBlock edited!\", _quantity);\r\n    }\r\n\r\n\r\n\r\n\r\n// -------------------------------------------------- Change Address Function Contract Service ---------------------------------------------------//\r\n\r\n\r\n    // TODO: insert modifier onlyOrg(address sender) {}\r\n    function changeRetailerBuyerStorage(address _retailerBuyerStorage)external {\r\n        require(msg.sender == retailerOrg,\"Address is not the organization\");\r\n        retailerBuyerStorage = RetailerBuyerStorage(_retailerBuyerStorage);\r\n    }\r\n\r\n    // TODO: insert modifier onlyOrg(address sender) {}\r\n    function changeRetailerService(address _retailerService) external {\r\n        retailerService = RetailerService(_retailerService);\r\n    }\r\n\r\n}",
  "sourcePath": "C:\\Users\\umber\\Progetti\\FilieraToken\\Filiera-Token-Smart-Contract\\contracts\\Actor\\Retailer-smart-contract\\inventory\\RetailerBuyerService.sol",
  "compiler": {
    "name": "solc",
    "version": "0.8.24+commit.e11b9ed9.Emscripten.clang"
  },
  "schemaVersion": "3.4.16",
  "updatedAt": "2024-02-29T15:58:14.763Z",
  "devdoc": {
    "kind": "dev",
    "methods": {},
    "version": 1
  },
  "userdoc": {
    "kind": "user",
    "methods": {
      "addCheeseBlock(address,address,uint256,string,uint256)": {
        "notice": "Tale funzione viene chiamata dal TransactionManager per inserire il CheeseBlock venduto dal MilkHub al Retailer  I controlli vengono fatti tutti all'interno del TransactionManager per la verifica dell'esistenza dei due interessati  - Ammettiamo che i controlli sul prodotto vengono gi fatti a monte  - verifichiamo che il Retailer e il MilkHub esistono  - verifichiamo che il CheeseBlock associato al MilkHub esiste  - Aggiungiamo questi dati all'interno del Inventory "
      },
      "isCheeseBlockAcquistataPresent(address,uint256)": {
        "notice": "Verifica che il CheeseBlock  presente all'interno dell'inventario  - Verifica che l'id non sia nullo e che sia maggiore di 0 e che coincida con l'elemento "
      },
      "updateCheeseBlockQuantity(address,uint256,uint256)": {
        "notice": " - Decremento della quantit del CheeseBlockAcquistato per la trasformazione in Cheese "
      }
    },
    "version": 1
  }
}