{
  "contractName": "RetailerInventoryStorage",
  "abi": [
    {
      "inputs": [],
      "stateMutability": "nonpayable",
      "type": "constructor"
    },
    {
      "inputs": [
        {
          "internalType": "address",
          "name": "walletRetailer",
          "type": "address"
        },
        {
          "internalType": "uint256",
          "name": "_id_CheeseBlock",
          "type": "uint256"
        },
        {
          "internalType": "uint256",
          "name": "_price",
          "type": "uint256"
        },
        {
          "internalType": "uint256",
          "name": "_weight",
          "type": "uint256"
        }
      ],
      "name": "addCheesePiece",
      "outputs": [
        {
          "internalType": "uint256",
          "name": "",
          "type": "uint256"
        },
        {
          "internalType": "uint256",
          "name": "",
          "type": "uint256"
        },
        {
          "internalType": "uint256",
          "name": "",
          "type": "uint256"
        }
      ],
      "stateMutability": "nonpayable",
      "type": "function"
    },
    {
      "inputs": [
        {
          "internalType": "address",
          "name": "walletRetailer",
          "type": "address"
        },
        {
          "internalType": "uint256",
          "name": "_id",
          "type": "uint256"
        }
      ],
      "name": "getCheesePiece",
      "outputs": [
        {
          "internalType": "uint256",
          "name": "",
          "type": "uint256"
        },
        {
          "internalType": "uint256",
          "name": "",
          "type": "uint256"
        },
        {
          "internalType": "uint256",
          "name": "",
          "type": "uint256"
        }
      ],
      "stateMutability": "view",
      "type": "function"
    },
    {
      "inputs": [
        {
          "internalType": "address",
          "name": "walletRetailer",
          "type": "address"
        },
        {
          "internalType": "uint256",
          "name": "_id",
          "type": "uint256"
        }
      ],
      "name": "deleteCheesePiece",
      "outputs": [
        {
          "internalType": "bool",
          "name": "value",
          "type": "bool"
        }
      ],
      "stateMutability": "nonpayable",
      "type": "function"
    },
    {
      "inputs": [
        {
          "internalType": "address",
          "name": "walletRetailer",
          "type": "address"
        },
        {
          "internalType": "uint256",
          "name": "_id_CheesePiece",
          "type": "uint256"
        }
      ],
      "name": "isCheesePiecePresent",
      "outputs": [
        {
          "internalType": "bool",
          "name": "",
          "type": "bool"
        }
      ],
      "stateMutability": "view",
      "type": "function"
    },
    {
      "inputs": [
        {
          "internalType": "address",
          "name": "walletRetailer",
          "type": "address"
        },
        {
          "internalType": "uint256",
          "name": "_id_Cheese",
          "type": "uint256"
        },
        {
          "internalType": "uint256",
          "name": "_newQuantity",
          "type": "uint256"
        }
      ],
      "name": "updateWeight",
      "outputs": [],
      "stateMutability": "nonpayable",
      "type": "function"
    },
    {
      "inputs": [
        {
          "internalType": "address",
          "name": "walletRetailer",
          "type": "address"
        },
        {
          "internalType": "uint256",
          "name": "_id",
          "type": "uint256"
        }
      ],
      "name": "getPrice",
      "outputs": [
        {
          "internalType": "uint256",
          "name": "",
          "type": "uint256"
        }
      ],
      "stateMutability": "view",
      "type": "function"
    },
    {
      "inputs": [
        {
          "internalType": "address",
          "name": "walletRetailer",
          "type": "address"
        },
        {
          "internalType": "uint256",
          "name": "_id",
          "type": "uint256"
        }
      ],
      "name": "getWeight",
      "outputs": [
        {
          "internalType": "uint256",
          "name": "",
          "type": "uint256"
        }
      ],
      "stateMutability": "view",
      "type": "function"
    },
    {
      "inputs": [
        {
          "internalType": "address",
          "name": "walletRetailer",
          "type": "address"
        }
      ],
      "name": "getCheesePieceListPurchasedByRetailer",
      "outputs": [
        {
          "components": [
            {
              "internalType": "uint256",
              "name": "id",
              "type": "uint256"
            },
            {
              "internalType": "uint256",
              "name": "price",
              "type": "uint256"
            },
            {
              "internalType": "uint256",
              "name": "weight",
              "type": "uint256"
            }
          ],
          "internalType": "struct RetailerInventoryStorage.CheesePiece[]",
          "name": "",
          "type": "tuple[]"
        }
      ],
      "stateMutability": "view",
      "type": "function"
    },
    {
      "inputs": [
        {
          "internalType": "address[]",
          "name": "retailerListAddress",
          "type": "address[]"
        }
      ],
      "name": "getAllCheesePieceList",
      "outputs": [
        {
          "components": [
            {
              "internalType": "uint256",
              "name": "id",
              "type": "uint256"
            },
            {
              "internalType": "uint256",
              "name": "price",
              "type": "uint256"
            },
            {
              "internalType": "uint256",
              "name": "weight",
              "type": "uint256"
            }
          ],
          "internalType": "struct RetailerInventoryStorage.CheesePiece[]",
          "name": "",
          "type": "tuple[]"
        }
      ],
      "stateMutability": "view",
      "type": "function"
    }
  ],
  "bytecode": "0x608060405234801561001057600080fd5b50336000806101000a81548173ffffffffffffffffffffffffffffffffffffffff021916908373ffffffffffffffffffffffffffffffffffffffff1602179055506114dc806100606000396000f3fe608060405234801561001057600080fd5b50600436106100935760003560e01c80635e523adb116100665780635e523adb1461015c578063814ffa2a146101785780639bc7c21c146101a8578063afd47d3e146101d8578063e85938231461020857610093565b80630b7aa47314610098578063348b4c5a146100ca578063449e815d146100fa5780635a52c6571461012a575b600080fd5b6100b260048036038101906100ad9190610c07565b610238565b6040516100c193929190610c56565b60405180910390f35b6100e460048036038101906100df9190610c07565b6102d6565b6040516100f19190610ca8565b60405180910390f35b610114600480360381019061010f9190610c07565b6103c4565b6040516101219190610cc3565b60405180910390f35b610144600480360381019061013f9190610cde565b610450565b60405161015393929190610c56565b60405180910390f35b61017660048036038101906101719190610d45565b610565565b005b610192600480360381019061018d9190610d98565b610658565b60405161019f9190610ec5565b60405180910390f35b6101c260048036038101906101bd9190610c07565b6107fb565b6040516101cf9190610ca8565b60405180910390f35b6101f260048036038101906101ed9190610c07565b6108aa565b6040516101ff9190610cc3565b60405180910390f35b610222600480360381019061021d9190611040565b610936565b60405161022f9190610ec5565b60405180910390f35b600080600080600160008773ffffffffffffffffffffffffffffffffffffffff1673ffffffffffffffffffffffffffffffffffffffff168152602001908152602001600020600086815260200190815260200160002060405180606001604052908160008201548152602001600182015481526020016002820154815250509050806000015181602001518260400151935093509350509250925092565b6000600160008473ffffffffffffffffffffffffffffffffffffffff1673ffffffffffffffffffffffffffffffffffffffff16815260200190815260200160002060008381526020019081526020016000206000808201600090556001820160009055600282016000905550506000600160008573ffffffffffffffffffffffffffffffffffffffff1673ffffffffffffffffffffffffffffffffffffffff1681526020019081526020016000206000848152602001908152602001600020600001541480156103ab57506103aa82610ac0565b5b156103b957600190506103be565b600090505b92915050565b600080600160008573ffffffffffffffffffffffffffffffffffffffff1673ffffffffffffffffffffffffffffffffffffffff168152602001908152602001600020600084815260200190815260200160002060405180606001604052908160008201548152602001600182015481526020016002820154815250509050806020015191505092915050565b6000806000808686868a4260405160200161046f9594939291906110f2565b6040516020818303038152906040528051906020012060001c905060006040518060600160405280838152602001888152602001878152509050600282908060018154018082558091505060019003906000526020600020016000909190919091505580600160008b73ffffffffffffffffffffffffffffffffffffffff1673ffffffffffffffffffffffffffffffffffffffff168152602001908152602001600020600084815260200190815260200160002060008201518160000155602082015181600101556040820151816002015590505080600001518160200151826040015194509450945050509450945094915050565b600160008473ffffffffffffffffffffffffffffffffffffffff1673ffffffffffffffffffffffffffffffffffffffff1681526020019081526020016000206000838152602001908152602001600020600201548111156105fb576040517f08c379a00000000000000000000000000000000000000000000000000000000081526004016105f2906111d4565b60405180910390fd5b80600160008573ffffffffffffffffffffffffffffffffffffffff1673ffffffffffffffffffffffffffffffffffffffff168152602001908152602001600020600084815260200190815260200160002060020181905550505050565b6060600060028054905067ffffffffffffffff81111561067b5761067a610efd565b5b6040519080825280602002602001820160405280156106b457816020015b6106a1610b3e565b8152602001906001900390816106995790505b50905060005b6002805490508110156107f1576000600282815481106106dd576106dc6111f4565b5b906000526020600020015490506000600160008773ffffffffffffffffffffffffffffffffffffffff1673ffffffffffffffffffffffffffffffffffffffff168152602001908152602001600020600083815260200190815260200160002060000154146107e3576000600160008773ffffffffffffffffffffffffffffffffffffffff1673ffffffffffffffffffffffffffffffffffffffff168152602001908152602001600020600083815260200190815260200160002090508060405180606001604052908160008201548152602001600182015481526020016002820154815250508484815181106107d6576107d56111f4565b5b6020026020010181905250505b5080806001019150506106ba565b5080915050919050565b600080821415801561080d5750600082115b61084c576040517f08c379a00000000000000000000000000000000000000000000000000000000081526004016108439061126f565b60405180910390fd5b81600160008573ffffffffffffffffffffffffffffffffffffffff1673ffffffffffffffffffffffffffffffffffffffff16815260200190815260200160002060008481526020019081526020016000206000015414905092915050565b600080600160008573ffffffffffffffffffffffffffffffffffffffff1673ffffffffffffffffffffffffffffffffffffffff168152602001908152602001600020600084815260200190815260200160002060405180606001604052908160008201548152602001600182015481526020016002820154815250509050806040015191505092915050565b6060600060028054905067ffffffffffffffff81111561095957610958610efd565b5b60405190808252806020026020018201604052801561099257816020015b61097f610b3e565b8152602001906001900390816109775790505b5090506000805b8451811015610ab55760003073ffffffffffffffffffffffffffffffffffffffff1663814ffa2a8784815181106109d3576109d26111f4565b5b60200260200101516040518263ffffffff1660e01b81526004016109f7919061129e565b600060405180830381865afa158015610a14573d6000803e3d6000fd5b505050506040513d6000823e3d601f19601f82011682018060405250810190610a3d91906113fa565b905060005b8151811015610aa6576000828281518110610a6057610a5f6111f4565b5b6020026020010151905080868681518110610a7e57610a7d6111f4565b5b6020026020010181905250600185610a969190611472565b9450508080600101915050610a42565b50508080600101915050610999565b508192505050919050565b600080600090505b600280549050811015610b33578260028281548110610aea57610ae96111f4565b5b906000526020600020015403610b265760028181548110610b0e57610b0d6111f4565b5b90600052602060002001600090556001915050610b39565b8080600101915050610ac8565b50600090505b919050565b60405180606001604052806000815260200160008152602001600081525090565b6000604051905090565b600080fd5b600080fd5b600073ffffffffffffffffffffffffffffffffffffffff82169050919050565b6000610b9e82610b73565b9050919050565b610bae81610b93565b8114610bb957600080fd5b50565b600081359050610bcb81610ba5565b92915050565b6000819050919050565b610be481610bd1565b8114610bef57600080fd5b50565b600081359050610c0181610bdb565b92915050565b60008060408385031215610c1e57610c1d610b69565b5b6000610c2c85828601610bbc565b9250506020610c3d85828601610bf2565b9150509250929050565b610c5081610bd1565b82525050565b6000606082019050610c6b6000830186610c47565b610c786020830185610c47565b610c856040830184610c47565b949350505050565b60008115159050919050565b610ca281610c8d565b82525050565b6000602082019050610cbd6000830184610c99565b92915050565b6000602082019050610cd86000830184610c47565b92915050565b60008060008060808587031215610cf857610cf7610b69565b5b6000610d0687828801610bbc565b9450506020610d1787828801610bf2565b9350506040610d2887828801610bf2565b9250506060610d3987828801610bf2565b91505092959194509250565b600080600060608486031215610d5e57610d5d610b69565b5b6000610d6c86828701610bbc565b9350506020610d7d86828701610bf2565b9250506040610d8e86828701610bf2565b9150509250925092565b600060208284031215610dae57610dad610b69565b5b6000610dbc84828501610bbc565b91505092915050565b600081519050919050565b600082825260208201905092915050565b6000819050602082019050919050565b610dfa81610bd1565b82525050565b606082016000820151610e166000850182610df1565b506020820151610e296020850182610df1565b506040820151610e3c6040850182610df1565b50505050565b6000610e4e8383610e00565b60608301905092915050565b6000602082019050919050565b6000610e7282610dc5565b610e7c8185610dd0565b9350610e8783610de1565b8060005b83811015610eb8578151610e9f8882610e42565b9750610eaa83610e5a565b925050600181019050610e8b565b5085935050505092915050565b60006020820190508181036000830152610edf8184610e67565b905092915050565b600080fd5b6000601f19601f8301169050919050565b7f4e487b7100000000000000000000000000000000000000000000000000000000600052604160045260246000fd5b610f3582610eec565b810181811067ffffffffffffffff82111715610f5457610f53610efd565b5b80604052505050565b6000610f67610b5f565b9050610f738282610f2c565b919050565b600067ffffffffffffffff821115610f9357610f92610efd565b5b602082029050602081019050919050565b600080fd5b6000610fbc610fb784610f78565b610f5d565b90508083825260208201905060208402830185811115610fdf57610fde610fa4565b5b835b818110156110085780610ff48882610bbc565b845260208401935050602081019050610fe1565b5050509392505050565b600082601f83011261102757611026610ee7565b5b8135611037848260208601610fa9565b91505092915050565b60006020828403121561105657611055610b69565b5b600082013567ffffffffffffffff81111561107457611073610b6e565b5b61108084828501611012565b91505092915050565b6000819050919050565b6110a461109f82610bd1565b611089565b82525050565b60008160601b9050919050565b60006110c2826110aa565b9050919050565b60006110d4826110b7565b9050919050565b6110ec6110e782610b93565b6110c9565b82525050565b60006110fe8288611093565b60208201915061110e8287611093565b60208201915061111e8286611093565b60208201915061112e82856110db565b60148201915061113e8284611093565b6020820191508190509695505050505050565b600082825260208201905092915050565b7f436f6e74726f6c6c6f2064656c6c61205175616e74697461272064612075746960008201527f6c697a7a617265206e6f6e20616e6461746120612062756f6e2066696e652100602082015250565b60006111be603f83611151565b91506111c982611162565b604082019050919050565b600060208201905081810360008301526111ed816111b1565b9050919050565b7f4e487b7100000000000000000000000000000000000000000000000000000000600052603260045260246000fd5b7f4944204368656573655069656365204e6f6e2056616c69646f21000000000000600082015250565b6000611259601a83611151565b915061126482611223565b602082019050919050565b600060208201905081810360008301526112888161124c565b9050919050565b61129881610b93565b82525050565b60006020820190506112b3600083018461128f565b92915050565b600067ffffffffffffffff8211156112d4576112d3610efd565b5b602082029050602081019050919050565b600080fd5b6000815190506112f981610bdb565b92915050565b600060608284031215611315576113146112e5565b5b61131f6060610f5d565b9050600061132f848285016112ea565b6000830152506020611343848285016112ea565b6020830152506040611357848285016112ea565b60408301525092915050565b6000611376611371846112b9565b610f5d565b9050808382526020820190506060840283018581111561139957611398610fa4565b5b835b818110156113c257806113ae88826112ff565b84526020840193505060608101905061139b565b5050509392505050565b600082601f8301126113e1576113e0610ee7565b5b81516113f1848260208601611363565b91505092915050565b6000602082840312156114105761140f610b69565b5b600082015167ffffffffffffffff81111561142e5761142d610b6e565b5b61143a848285016113cc565b91505092915050565b7f4e487b7100000000000000000000000000000000000000000000000000000000600052601160045260246000fd5b600061147d82610bd1565b915061148883610bd1565b92508282019050808211156114a05761149f611443565b5b9291505056fea2646970667358221220c530c3dc7814a4068b657236159f76e5cd93be05952973f5144034db34b9b67f64736f6c63430008180033",
  "immutableReferences": {},
  "source": "// SPDX-License-Identifier: MIT\r\npragma solidity ^0.8.0;\r\n\r\ncontract RetailerInventoryStorage {\r\n\r\n    // Address of the organization managing the users\r\n    address private retailerOrg;\r\n\r\n    constructor() {\r\n        retailerOrg = msg.sender;\r\n    }\r\n\r\n    struct CheesePiece {\r\n        uint256 id; // Cheese Piece ID \r\n        uint256 price;\r\n        uint256 weight;\r\n    }\r\n\r\n    mapping(address => mapping(uint256 => CheesePiece)) private cheesePieces;\r\n\r\n    uint256 [] private cheesePieceIdPurchasedList;\r\n\r\n    // --------------------------------------------------- Business Function --------------------------------------------------------------------------------------//\r\n\r\n    function addCheesePiece(\r\n        address walletRetailer,\r\n        uint256 _id_CheeseBlock,\r\n        uint256 _price,\r\n        uint256 _weight\r\n    ) external returns (uint256, uint256, uint256) {\r\n\r\n        uint256 _id = uint256(keccak256(abi.encodePacked(\r\n            _id_CheeseBlock,\r\n            _price,\r\n            _weight,\r\n            walletRetailer,\r\n            block.timestamp\r\n        )));\r\n\r\n        // Crea un nuovo Pezzo di formaggio\r\n        CheesePiece memory cheesePiece = CheesePiece({\r\n            id: _id,\r\n            price: _price,\r\n            weight: _weight\r\n        });\r\n\r\n        // Inserisce il riferimento all'interno della lista\r\n        cheesePieceIdPurchasedList.push(_id);\r\n\r\n        // Inserisce il nuovo Pezzo di formaggio nella lista cheesePieces\r\n        cheesePieces[walletRetailer][_id] = cheesePiece;\r\n\r\n        return (cheesePiece.id, cheesePiece.price, cheesePiece.weight);\r\n    }\r\n\r\n    function getCheesePiece(address walletRetailer, uint256 _id) external view returns (uint256, uint256, uint256) {\r\n\r\n        CheesePiece memory cheesePiece = cheesePieces[walletRetailer][_id];\r\n\r\n        return (cheesePiece.id, cheesePiece.price, cheesePiece.weight);\r\n    }\r\n\r\n    // Elimina il CheesePiece \r\n    function deleteCheesePiece(address walletRetailer, uint256 _id) external returns (bool value) {\r\n\r\n        delete cheesePieces[walletRetailer][_id];\r\n        // Check CheesePiece in the mapping \r\n        if (cheesePieces[walletRetailer][_id].id == 0 && deleteCheesePieceIdFromList(_id)) {\r\n            return true;\r\n        } else {\r\n            return false;\r\n        }\r\n    }\r\n\r\n    // Verifica che il CheesePiece  gi presente \r\n    function isCheesePiecePresent(address walletRetailer, uint256 _id_CheesePiece) external view returns (bool) {\r\n\r\n        require(_id_CheesePiece != 0 && _id_CheesePiece > 0, \"ID CheesePiece Non Valido!\");\r\n\r\n        return cheesePieces[walletRetailer][_id_CheesePiece].id == _id_CheesePiece;\r\n    }\r\n\r\n// --------------------------------------------------- Set Function --------------------------------------------------------------------------------------//\r\n\r\n\r\n    // - Funzione updateCheeseBlockQuantity() aggiorna la quantit del CheeseBlock \r\n    function updateWeight(\r\n        address walletRetailer,\r\n        uint256 _id_Cheese,\r\n        uint256 _newQuantity\r\n    ) external  {\r\n        \r\n        // Controllo sulla quantita' \r\n        require(_newQuantity<=cheesePieces[walletRetailer][_id_Cheese].weight,\"Controllo della Quantita' da utilizzare non andata a buon fine!\");\r\n\r\n        cheesePieces[walletRetailer][_id_Cheese].weight = _newQuantity;\r\n    }\r\n\r\n    function deleteCheesePieceIdFromList(uint256 _id) internal returns (bool) {\r\n        for (uint256 i = 0; i < cheesePieceIdPurchasedList.length; i++) {\r\n            if (cheesePieceIdPurchasedList[i] == _id) {\r\n                delete cheesePieceIdPurchasedList[i];\r\n                return true;\r\n            }\r\n        }\r\n        return false;\r\n    }\r\n\r\n\r\n// --------------------------------------------------- Get Function --------------------------------------------------------------------------------------//\r\n\r\n    function getPrice(address walletRetailer, uint256 _id) external view returns (uint256) {\r\n\r\n        CheesePiece memory cheesePiece = cheesePieces[walletRetailer][_id];\r\n        return cheesePiece.price;\r\n    }\r\n\r\n    function getWeight(address walletRetailer, uint256 _id) external view returns (uint256) {\r\n\r\n        CheesePiece memory cheesePiece = cheesePieces[walletRetailer][_id];\r\n        return cheesePiece.weight;\r\n    }\r\n\r\n    /*\r\n        - Funzione per recuperare tutti i MilKBatchPurchased di un determinato walletCheeseProducer\r\n    */\r\n    function getCheesePieceListPurchasedByRetailer(address walletRetailer) external view returns (CheesePiece[] memory) {\r\n        CheesePiece [ ] memory  cheesePiecePurchasedList  = new CheesePiece[](cheesePieceIdPurchasedList.length);\r\n        \r\n        for (uint256 i=0; i<cheesePieceIdPurchasedList.length; i++){\r\n\r\n                uint256 _id = cheesePieceIdPurchasedList[i];\r\n                if(cheesePieces[walletRetailer][_id].id != 0){\r\n                    // Esiste e questo  il MilkBatch dell'Utente \r\n                    CheesePiece storage new_milkbatchPurchased = cheesePieces[walletRetailer][_id];\r\n                    cheesePiecePurchasedList[i] = new_milkbatchPurchased;\r\n                } \r\n        }\r\n\r\n        return cheesePiecePurchasedList;\r\n    }\r\n\r\n    function getAllCheesePieceList(address[] memory retailerListAddress) external view returns (CheesePiece[] memory) {\r\n        \r\n        CheesePiece[] memory cheesePieceList = new CheesePiece[](cheesePieceIdPurchasedList.length);\r\n            \r\n        uint256 t = 0;\r\n\r\n        for(uint256 i = 0; i < retailerListAddress.length; i++) {\r\n            \r\n            CheesePiece[] memory cheesePieceListFromUser = this.getCheesePieceListPurchasedByRetailer(retailerListAddress[i]);\r\n                \r\n            for(uint256 j = 0; j < cheesePieceListFromUser.length; j++) {\r\n                CheesePiece memory new_cheesePiece = cheesePieceListFromUser[j];\r\n                cheesePieceList[t] = new_cheesePiece;\r\n                t = t + 1;\r\n            }\r\n        }\r\n\r\n        return cheesePieceList;\r\n    }\r\n\r\n\r\n}\r\n",
  "sourcePath": "C:\\Users\\umber\\Progetti\\FilieraToken\\Filiera-Token-Smart-Contract\\contracts\\Actor\\Retailer-smart-contract\\inventory\\RetailerInventoryStorage.sol",
  "compiler": {
    "name": "solc",
    "version": "0.8.24+commit.e11b9ed9.Emscripten.clang"
  },
  "schemaVersion": "3.4.16",
  "updatedAt": "2024-02-28T11:39:54.374Z",
  "devdoc": {
    "kind": "dev",
    "methods": {},
    "version": 1
  },
  "userdoc": {
    "kind": "user",
    "methods": {},
    "version": 1
  }
}