{
  "contractName": "RetailerBuyerStorage",
  "abi": [
    {
      "inputs": [],
      "stateMutability": "nonpayable",
      "type": "constructor"
    },
    {
      "inputs": [
        {
          "internalType": "address",
          "name": "_walletRetailer",
          "type": "address"
        },
        {
          "internalType": "address",
          "name": "_walletCheeseProducer",
          "type": "address"
        },
        {
          "internalType": "uint256",
          "name": "_id_CheeseBlock",
          "type": "uint256"
        },
        {
          "internalType": "string",
          "name": "dop",
          "type": "string"
        },
        {
          "internalType": "uint256",
          "name": "_quantity",
          "type": "uint256"
        }
      ],
      "name": "addCheeseBlock",
      "outputs": [
        {
          "internalType": "uint256",
          "name": "id_CheeseBlock_Acquistato",
          "type": "uint256"
        },
        {
          "internalType": "string",
          "name": "dopCheese",
          "type": "string"
        },
        {
          "internalType": "uint256",
          "name": "quantityAcquistata",
          "type": "uint256"
        }
      ],
      "stateMutability": "nonpayable",
      "type": "function"
    },
    {
      "inputs": [
        {
          "internalType": "address",
          "name": "walletRetailer",
          "type": "address"
        },
        {
          "internalType": "uint256",
          "name": "_id_CheeseBlockAcquistato",
          "type": "uint256"
        }
      ],
      "name": "getCheeseBlock",
      "outputs": [
        {
          "internalType": "uint256",
          "name": "",
          "type": "uint256"
        },
        {
          "internalType": "address",
          "name": "",
          "type": "address"
        },
        {
          "internalType": "string",
          "name": "",
          "type": "string"
        },
        {
          "internalType": "uint256",
          "name": "",
          "type": "uint256"
        }
      ],
      "stateMutability": "view",
      "type": "function"
    },
    {
      "inputs": [
        {
          "internalType": "address",
          "name": "walletRetailer",
          "type": "address"
        },
        {
          "internalType": "uint256",
          "name": "_id_CheeseBlockAcquistato",
          "type": "uint256"
        }
      ],
      "name": "isCheesePresent",
      "outputs": [
        {
          "internalType": "bool",
          "name": "",
          "type": "bool"
        }
      ],
      "stateMutability": "view",
      "type": "function"
    },
    {
      "inputs": [
        {
          "internalType": "address",
          "name": "walletRetailer",
          "type": "address"
        }
      ],
      "name": "getPurchasedCheeseBlockByRetailer",
      "outputs": [
        {
          "components": [
            {
              "internalType": "uint256",
              "name": "id",
              "type": "uint256"
            },
            {
              "internalType": "uint256",
              "name": "id_CheeseBlock",
              "type": "uint256"
            },
            {
              "internalType": "address",
              "name": "walletCheeseProducer",
              "type": "address"
            },
            {
              "internalType": "string",
              "name": "dop",
              "type": "string"
            },
            {
              "internalType": "uint256",
              "name": "quantity",
              "type": "uint256"
            }
          ],
          "internalType": "struct RetailerBuyerStorage.Cheese[]",
          "name": "",
          "type": "tuple[]"
        }
      ],
      "stateMutability": "view",
      "type": "function"
    },
    {
      "inputs": [
        {
          "internalType": "address",
          "name": "walletRetailer",
          "type": "address"
        },
        {
          "internalType": "uint256",
          "name": "_id",
          "type": "uint256"
        },
        {
          "internalType": "uint256",
          "name": "_newQuantity",
          "type": "uint256"
        }
      ],
      "name": "updateCheeseQuantity",
      "outputs": [],
      "stateMutability": "nonpayable",
      "type": "function"
    },
    {
      "inputs": [
        {
          "internalType": "address",
          "name": "walletRetailer",
          "type": "address"
        },
        {
          "internalType": "uint256",
          "name": "_id_cheeseBlockAcquistato",
          "type": "uint256"
        }
      ],
      "name": "getDop",
      "outputs": [
        {
          "internalType": "string",
          "name": "",
          "type": "string"
        }
      ],
      "stateMutability": "view",
      "type": "function"
    },
    {
      "inputs": [
        {
          "internalType": "address",
          "name": "walletRetailer",
          "type": "address"
        },
        {
          "internalType": "uint256",
          "name": "_id",
          "type": "uint256"
        }
      ],
      "name": "getQuantity",
      "outputs": [
        {
          "internalType": "uint256",
          "name": "",
          "type": "uint256"
        }
      ],
      "stateMutability": "view",
      "type": "function"
    },
    {
      "inputs": [
        {
          "internalType": "address",
          "name": "walletRetailer",
          "type": "address"
        },
        {
          "internalType": "uint256",
          "name": "_id",
          "type": "uint256"
        }
      ],
      "name": "getWalletCheeseProducer",
      "outputs": [
        {
          "internalType": "address",
          "name": "",
          "type": "address"
        }
      ],
      "stateMutability": "view",
      "type": "function"
    },
    {
      "inputs": [
        {
          "internalType": "address",
          "name": "walletRetailer",
          "type": "address"
        },
        {
          "internalType": "uint256",
          "name": "_id",
          "type": "uint256"
        }
      ],
      "name": "getId",
      "outputs": [
        {
          "internalType": "uint256",
          "name": "",
          "type": "uint256"
        }
      ],
      "stateMutability": "view",
      "type": "function"
    },
    {
      "inputs": [
        {
          "internalType": "address",
          "name": "walletRetailer",
          "type": "address"
        },
        {
          "internalType": "uint256",
          "name": "_id",
          "type": "uint256"
        },
        {
          "internalType": "uint256",
          "name": "_quantityToTransform",
          "type": "uint256"
        }
      ],
      "name": "checkCheese",
      "outputs": [
        {
          "internalType": "bool",
          "name": "",
          "type": "bool"
        }
      ],
      "stateMutability": "view",
      "type": "function"
    },
    {
      "inputs": [
        {
          "internalType": "address",
          "name": "walletRetailer",
          "type": "address"
        },
        {
          "internalType": "uint256",
          "name": "_id",
          "type": "uint256"
        },
        {
          "internalType": "uint256",
          "name": "_quantityToTransform",
          "type": "uint256"
        }
      ],
      "name": "checkQuantity",
      "outputs": [
        {
          "internalType": "bool",
          "name": "",
          "type": "bool"
        }
      ],
      "stateMutability": "view",
      "type": "function"
    }
  ],
  "bytecode": "0x608060405234801561001057600080fd5b50336000806101000a81548173ffffffffffffffffffffffffffffffffffffffff021916908373ffffffffffffffffffffffffffffffffffffffff160217905550611ed9806100606000396000f3fe608060405234801561001057600080fd5b50600436106100a95760003560e01c80638b3c04ce116100715780638b3c04ce1461018d578063c5d3e11d146101bf578063cc231726146101ef578063cfa41ed01461021f578063f93bd0211461024f578063fedf60921461027f576100a9565b80630803da24146100ae5780631e073fcf146100de578063453ecf041461010e5780636fb82e061461012a5780637745770a1461015d575b600080fd5b6100c860048036038101906100c3919061122f565b6102af565b6040516100d5919061129d565b60405180910390f35b6100f860048036038101906100f391906112b8565b610357565b6040516101059190611307565b60405180910390f35b6101286004803603810190610123919061122f565b6104cb565b005b610144600480360381019061013f91906112b8565b6105be565b60405161015494939291906113c1565b60405180910390f35b6101776004803603810190610172919061122f565b61074f565b604051610184919061129d565b60405180910390f35b6101a760048036038101906101a29190611542565b61088d565b6040516101b6939291906115d9565b60405180910390f35b6101d960048036038101906101d491906112b8565b610ac1565b6040516101e69190611307565b60405180910390f35b610209600480360381019061020491906112b8565b610b1f565b6040516102169190611617565b60405180910390f35b610239600480360381019061023491906112b8565b610c93565b604051610246919061129d565b60405180910390f35b610269600480360381019061026491906112b8565b610d42565b6040516102769190611632565b60405180910390f35b61029960048036038101906102949190611654565b610eb7565b6040516102a69190611821565b60405180910390f35b600080600160008673ffffffffffffffffffffffffffffffffffffffff1673ffffffffffffffffffffffffffffffffffffffff16815260200190815260200160002060008581526020019081526020016000209050828160040154101561034b576040517f08c379a00000000000000000000000000000000000000000000000000000000081526004016103429061188f565b60405180910390fd5b60019150509392505050565b600080600160008573ffffffffffffffffffffffffffffffffffffffff1673ffffffffffffffffffffffffffffffffffffffff16815260200190815260200160002060008481526020019081526020016000206040518060a001604052908160008201548152602001600182015481526020016002820160009054906101000a900473ffffffffffffffffffffffffffffffffffffffff1673ffffffffffffffffffffffffffffffffffffffff1673ffffffffffffffffffffffffffffffffffffffff16815260200160038201805461042f906118de565b80601f016020809104026020016040519081016040528092919081815260200182805461045b906118de565b80156104a85780601f1061047d576101008083540402835291602001916104a8565b820191906000526020600020905b81548152906001019060200180831161048b57829003601f168201915b505050505081526020016004820154815250509050806080015191505092915050565b600160008473ffffffffffffffffffffffffffffffffffffffff1673ffffffffffffffffffffffffffffffffffffffff168152602001908152602001600020600083815260200190815260200160002060040154811115610561576040517f08c379a000000000000000000000000000000000000000000000000000000000815260040161055890611981565b60405180910390fd5b80600160008573ffffffffffffffffffffffffffffffffffffffff1673ffffffffffffffffffffffffffffffffffffffff168152602001908152602001600020600084815260200190815260200160002060040181905550505050565b6000806060600080600160008873ffffffffffffffffffffffffffffffffffffffff1673ffffffffffffffffffffffffffffffffffffffff16815260200190815260200160002060008781526020019081526020016000206040518060a001604052908160008201548152602001600182015481526020016002820160009054906101000a900473ffffffffffffffffffffffffffffffffffffffff1673ffffffffffffffffffffffffffffffffffffffff1673ffffffffffffffffffffffffffffffffffffffff16815260200160038201805461069b906118de565b80601f01602080910402602001604051908101604052809291908181526020018280546106c7906118de565b80156107145780601f106106e957610100808354040283529160200191610714565b820191906000526020600020905b8154815290600101906020018083116106f757829003601f168201915b505050505081526020016004820154815250509050806000015181604001518260600151836080015194509450945094505092959194509250565b600082600160008673ffffffffffffffffffffffffffffffffffffffff1673ffffffffffffffffffffffffffffffffffffffff168152602001908152602001600020600085815260200190815260200160002060000154146107e6576040517f08c379a00000000000000000000000000000000000000000000000000000000081526004016107dd906119ed565b60405180910390fd5b6000600160008673ffffffffffffffffffffffffffffffffffffffff1673ffffffffffffffffffffffffffffffffffffffff168152602001908152602001600020600085815260200190815260200160002090508281600401541015610881576040517f08c379a00000000000000000000000000000000000000000000000000000000081526004016108789061188f565b60405180910390fd5b60019150509392505050565b6000606060008084868a8a8a426040516020016108af96959493929190611ab2565b6040516020818303038152906040528051906020012060001c90506000600160008b73ffffffffffffffffffffffffffffffffffffffff1673ffffffffffffffffffffffffffffffffffffffff168152602001908152602001600020600083815260200190815260200160002090506000816000015414610965576040517f08c379a000000000000000000000000000000000000000000000000000000000815260040161095c90611b6a565b60405180910390fd5b60006040518060a001604052808481526020018a81526020018b73ffffffffffffffffffffffffffffffffffffffff16815260200189815260200188815250905080600160008d73ffffffffffffffffffffffffffffffffffffffff1673ffffffffffffffffffffffffffffffffffffffff1681526020019081526020016000206000858152602001908152602001600020600082015181600001556020820151816001015560408201518160020160006101000a81548173ffffffffffffffffffffffffffffffffffffffff021916908373ffffffffffffffffffffffffffffffffffffffff1602179055506060820151816003019081610a679190611d36565b50608082015181600401559050506002839080600181540180825580915050600190039060005260206000200160009091909190915055806000015181606001518260800151955095509550505050955095509592505050565b6000600160008473ffffffffffffffffffffffffffffffffffffffff1673ffffffffffffffffffffffffffffffffffffffff168152602001908152602001600020600083815260200190815260200160002060000154905092915050565b600080600160008573ffffffffffffffffffffffffffffffffffffffff1673ffffffffffffffffffffffffffffffffffffffff16815260200190815260200160002060008481526020019081526020016000206040518060a001604052908160008201548152602001600182015481526020016002820160009054906101000a900473ffffffffffffffffffffffffffffffffffffffff1673ffffffffffffffffffffffffffffffffffffffff1673ffffffffffffffffffffffffffffffffffffffff168152602001600382018054610bf7906118de565b80601f0160208091040260200160405190810160405280929190818152602001828054610c23906118de565b8015610c705780601f10610c4557610100808354040283529160200191610c70565b820191906000526020600020905b815481529060010190602001808311610c5357829003601f168201915b505050505081526020016004820154815250509050806040015191505092915050565b6000808214158015610ca55750600082115b610ce4576040517f08c379a0000000000000000000000000000000000000000000000000000000008152600401610cdb90611e54565b60405180910390fd5b81600160008573ffffffffffffffffffffffffffffffffffffffff1673ffffffffffffffffffffffffffffffffffffffff16815260200190815260200160002060008481526020019081526020016000206000015414905092915050565b60606000600160008573ffffffffffffffffffffffffffffffffffffffff1673ffffffffffffffffffffffffffffffffffffffff16815260200190815260200160002060008481526020019081526020016000206040518060a001604052908160008201548152602001600182015481526020016002820160009054906101000a900473ffffffffffffffffffffffffffffffffffffffff1673ffffffffffffffffffffffffffffffffffffffff1673ffffffffffffffffffffffffffffffffffffffff168152602001600382018054610e1b906118de565b80601f0160208091040260200160405190810160405280929190818152602001828054610e47906118de565b8015610e945780601f10610e6957610100808354040283529160200191610e94565b820191906000526020600020905b815481529060010190602001808311610e7757829003601f168201915b505050505081526020016004820154815250509050806060015191505092915050565b6060600060028054905067ffffffffffffffff811115610eda57610ed9611417565b5b604051908082528060200260200182016040528015610f1357816020015b610f00611142565b815260200190600190039081610ef85790505b50905060005b60028054905081101561113857600060028281548110610f3c57610f3b611e74565b5b906000526020600020015490506000600160008773ffffffffffffffffffffffffffffffffffffffff1673ffffffffffffffffffffffffffffffffffffffff1681526020019081526020016000206000838152602001908152602001600020600001541461112a576000600160008773ffffffffffffffffffffffffffffffffffffffff1673ffffffffffffffffffffffffffffffffffffffff16815260200190815260200160002060008381526020019081526020016000209050806040518060a001604052908160008201548152602001600182015481526020016002820160009054906101000a900473ffffffffffffffffffffffffffffffffffffffff1673ffffffffffffffffffffffffffffffffffffffff1673ffffffffffffffffffffffffffffffffffffffff16815260200160038201805461107e906118de565b80601f01602080910402602001604051908101604052809291908181526020018280546110aa906118de565b80156110f75780601f106110cc576101008083540402835291602001916110f7565b820191906000526020600020905b8154815290600101906020018083116110da57829003601f168201915b5050505050815260200160048201548152505084848151811061111d5761111c611e74565b5b6020026020010181905250505b508080600101915050610f19565b5080915050919050565b6040518060a001604052806000815260200160008152602001600073ffffffffffffffffffffffffffffffffffffffff16815260200160608152602001600081525090565b6000604051905090565b600080fd5b600080fd5b600073ffffffffffffffffffffffffffffffffffffffff82169050919050565b60006111c68261119b565b9050919050565b6111d6816111bb565b81146111e157600080fd5b50565b6000813590506111f3816111cd565b92915050565b6000819050919050565b61120c816111f9565b811461121757600080fd5b50565b60008135905061122981611203565b92915050565b60008060006060848603121561124857611247611191565b5b6000611256868287016111e4565b93505060206112678682870161121a565b92505060406112788682870161121a565b9150509250925092565b60008115159050919050565b61129781611282565b82525050565b60006020820190506112b2600083018461128e565b92915050565b600080604083850312156112cf576112ce611191565b5b60006112dd858286016111e4565b92505060206112ee8582860161121a565b9150509250929050565b611301816111f9565b82525050565b600060208201905061131c60008301846112f8565b92915050565b61132b816111bb565b82525050565b600081519050919050565b600082825260208201905092915050565b60005b8381101561136b578082015181840152602081019050611350565b60008484015250505050565b6000601f19601f8301169050919050565b600061139382611331565b61139d818561133c565b93506113ad81856020860161134d565b6113b681611377565b840191505092915050565b60006080820190506113d660008301876112f8565b6113e36020830186611322565b81810360408301526113f58185611388565b905061140460608301846112f8565b95945050505050565b600080fd5b600080fd5b7f4e487b7100000000000000000000000000000000000000000000000000000000600052604160045260246000fd5b61144f82611377565b810181811067ffffffffffffffff8211171561146e5761146d611417565b5b80604052505050565b6000611481611187565b905061148d8282611446565b919050565b600067ffffffffffffffff8211156114ad576114ac611417565b5b6114b682611377565b9050602081019050919050565b82818337600083830152505050565b60006114e56114e084611492565b611477565b90508281526020810184848401111561150157611500611412565b5b61150c8482856114c3565b509392505050565b600082601f8301126115295761152861140d565b5b81356115398482602086016114d2565b91505092915050565b600080600080600060a0868803121561155e5761155d611191565b5b600061156c888289016111e4565b955050602061157d888289016111e4565b945050604061158e8882890161121a565b935050606086013567ffffffffffffffff8111156115af576115ae611196565b5b6115bb88828901611514565b92505060806115cc8882890161121a565b9150509295509295909350565b60006060820190506115ee60008301866112f8565b81810360208301526116008185611388565b905061160f60408301846112f8565b949350505050565b600060208201905061162c6000830184611322565b92915050565b6000602082019050818103600083015261164c8184611388565b905092915050565b60006020828403121561166a57611669611191565b5b6000611678848285016111e4565b91505092915050565b600081519050919050565b600082825260208201905092915050565b6000819050602082019050919050565b6116b6816111f9565b82525050565b6116c5816111bb565b82525050565b600082825260208201905092915050565b60006116e782611331565b6116f181856116cb565b935061170181856020860161134d565b61170a81611377565b840191505092915050565b600060a08301600083015161172d60008601826116ad565b50602083015161174060208601826116ad565b50604083015161175360408601826116bc565b506060830151848203606086015261176b82826116dc565b915050608083015161178060808601826116ad565b508091505092915050565b60006117978383611715565b905092915050565b6000602082019050919050565b60006117b782611681565b6117c1818561168c565b9350836020820285016117d38561169d565b8060005b8581101561180f57848403895281516117f0858261178b565b94506117fb8361179f565b925060208a019950506001810190506117d7565b50829750879550505050505092915050565b6000602082019050818103600083015261183b81846117ac565b905092915050565b7f5175616e74697479206e6f742056616c69642100000000000000000000000000600082015250565b600061187960138361133c565b915061188482611843565b602082019050919050565b600060208201905081810360008301526118a88161186c565b9050919050565b7f4e487b7100000000000000000000000000000000000000000000000000000000600052602260045260246000fd5b600060028204905060018216806118f657607f821691505b602082108103611909576119086118af565b5b50919050565b7f436f6e74726f6c6c6f2064656c6c61205175616e74697461272064612075746960008201527f6c697a7a617265206e6f6e20616e6461746120612062756f6e2066696e652100602082015250565b600061196b603f8361133c565b91506119768261190f565b604082019050919050565b6000602082019050818103600083015261199a8161195e565b9050919050565b7f50617274697461206469204c61747465206e6f6e2070726573656e7465210000600082015250565b60006119d7601e8361133c565b91506119e2826119a1565b602082019050919050565b60006020820190508181036000830152611a06816119ca565b9050919050565b6000819050919050565b611a28611a23826111f9565b611a0d565b82525050565b600081905092915050565b6000611a4482611331565b611a4e8185611a2e565b9350611a5e81856020860161134d565b80840191505092915050565b60008160601b9050919050565b6000611a8282611a6a565b9050919050565b6000611a9482611a77565b9050919050565b611aac611aa7826111bb565b611a89565b82525050565b6000611abe8289611a17565b602082019150611ace8288611a39565b9150611ada8287611a9b565b601482019150611aea8286611a9b565b601482019150611afa8285611a17565b602082019150611b0a8284611a17565b602082019150819050979650505050505050565b7f50617274697461206469204c6174746520676961272070726573656e74652100600082015250565b6000611b54601f8361133c565b9150611b5f82611b1e565b602082019050919050565b60006020820190508181036000830152611b8381611b47565b9050919050565b60008190508160005260206000209050919050565b60006020601f8301049050919050565b600082821b905092915050565b600060088302611bec7fffffffffffffffffffffffffffffffffffffffffffffffffffffffffffffffff82611baf565b611bf68683611baf565b95508019841693508086168417925050509392505050565b6000819050919050565b6000611c33611c2e611c29846111f9565b611c0e565b6111f9565b9050919050565b6000819050919050565b611c4d83611c18565b611c61611c5982611c3a565b848454611bbc565b825550505050565b600090565b611c76611c69565b611c81818484611c44565b505050565b5b81811015611ca557611c9a600082611c6e565b600181019050611c87565b5050565b601f821115611cea57611cbb81611b8a565b611cc484611b9f565b81016020851015611cd3578190505b611ce7611cdf85611b9f565b830182611c86565b50505b505050565b600082821c905092915050565b6000611d0d60001984600802611cef565b1980831691505092915050565b6000611d268383611cfc565b9150826002028217905092915050565b611d3f82611331565b67ffffffffffffffff811115611d5857611d57611417565b5b611d6282546118de565b611d6d828285611ca9565b600060209050601f831160018114611da05760008415611d8e578287015190505b611d988582611d1a565b865550611e00565b601f198416611dae86611b8a565b60005b82811015611dd657848901518255600182019150602085019450602081019050611db1565b86831015611df35784890151611def601f891682611cfc565b8355505b6001600288020188555050505b505050505050565b7f494420436865657365204e6f742056616c696421000000000000000000000000600082015250565b6000611e3e60148361133c565b9150611e4982611e08565b602082019050919050565b60006020820190508181036000830152611e6d81611e31565b9050919050565b7f4e487b7100000000000000000000000000000000000000000000000000000000600052603260045260246000fdfea26469706673582212206811635df5e826d0445962c4ce28b0cc10d6046023b7d52590c1f3103ca33a4864736f6c63430008180033",
  "immutableReferences": {},
  "source": "// SPDX-License-Identifier: MIT\r\npragma solidity ^0.8.0;\r\n\r\n//Smart Contract per lo storage dei MilkHub acquistati dal CheeseProducer\r\ncontract RetailerBuyerStorage {\r\n\r\n    // Address of Organization che gestisce gli utenti\r\n    address private RetailerOrg;\r\n\r\n    constructor() {\r\n        RetailerOrg = msg.sender;\r\n    }\r\n\r\n    struct Cheese {\r\n        uint256 id; // Generato nuovo per il Retailer \r\n        uint256 id_CheeseBlock; // id di riferimento del CheeseBlock \r\n        address walletCheeseProducer; // Address del Wallet del CheeseProducer\r\n        string dop; \r\n        uint256 quantity; // Quantit da acquistare \r\n    }\r\n\r\n    mapping(address => mapping(uint256 => Cheese)) private purchasedCheeseBlocks;\r\n\r\n    uint256 [] private purchasedCheeseBlockListId;\r\n\r\n\r\n//--------------------------------------------------------------- Business Logic Service -----------------------------------------------------------------------------------------//\r\n\r\n\r\n    /**\r\n    *\r\n    * Funzione addCheese() -> Utilizzata dal Transaction Manager per poter inserire il Cheese Acquistato \r\n    * Scollego questa logica, ammettendo che il CheeseProducer pu testare la logica di conversione \r\n    * params : \r\n    * - walletCheeseProducer -> mi serve per il mapping \r\n    * - walletCheeseProducer -> mi serve per creare il nuovo elemento  \r\n    * - id_cheese -> mi serve per il riferimento all'elemento acquistato\r\n    */\r\n    function addCheeseBlock( \r\n        \r\n            address _walletRetailer, \r\n            address _walletCheeseProducer, // Riferimento al wallet del MilkHub \r\n            uint256 _id_CheeseBlock, // riferimento al prodotto di Cheese\r\n            string memory dop, // attributo del formaggio  \r\n            uint256 _quantity //Quantit acquisita\r\n        \r\n        ) external returns (\r\n            uint256 id_CheeseBlock_Acquistato,\r\n            string memory dopCheese,\r\n            uint256 quantityAcquistata \r\n        ){\r\n\r\n        uint256 _id = uint256(keccak256(abi.encodePacked(\r\n            _quantity,\r\n            dop,\r\n            _walletRetailer,\r\n            _walletCheeseProducer,\r\n            _id_CheeseBlock,\r\n            block.timestamp // inserimento di questo attributo per rendere l'acquisto unico nel suo genere \r\n            // l'articolo in questo modo pu essere riacquistato dallo stesso cheeseProducer un'altra volta \r\n        )));\r\n\r\n\r\n        Cheese storage cheeseControl = purchasedCheeseBlocks[_walletRetailer][_id];\r\n        require( cheeseControl.id == 0, \"Partita di Latte gia' presente!\");\r\n\r\n        //Crea una nuova Partita di Latte\r\n        Cheese memory cheese = Cheese({\r\n            id: _id,\r\n            dop:dop,\r\n            id_CheeseBlock: _id_CheeseBlock,\r\n            walletCheeseProducer: _walletCheeseProducer,\r\n            quantity: _quantity\r\n        });\r\n\r\n        //Inserisce la nuova Partita di Latte nella lista purchasedCheeseBlocks\r\n        purchasedCheeseBlocks[_walletRetailer][_id] = cheese;\r\n\r\n        //Inserisci l'id all'interno della Lista\r\n        purchasedCheeseBlockListId.push(_id);\r\n\r\n        return (cheese.id, cheese.dop, cheese.quantity);\r\n\r\n    }\r\n\r\n\r\n    function getCheeseBlock(address walletRetailer, uint256 _id_CheeseBlockAcquistato) external view returns (uint256, address,string memory, uint256) {\r\n\r\n        Cheese memory cheese = purchasedCheeseBlocks[walletRetailer][_id_CheeseBlockAcquistato];\r\n\r\n        return (cheese.id, cheese.walletCheeseProducer, cheese.dop, cheese.quantity);\r\n    }\r\n\r\n\r\n    /**\r\n    * Funzione per la verifica dell'esistenza del prodotto Cheese acquistato \r\n    * - ritorna TRUE se esiste \r\n    * - ritorna FALSe se non esiste \r\n    * - effettua il controllo sull'uguaglianza dell'id del Cheese Acquistato\r\n    */\r\n    function isCheesePresent(address walletRetailer, uint256 _id_CheeseBlockAcquistato)external view returns(bool){\r\n        require( _id_CheeseBlockAcquistato !=0 && _id_CheeseBlockAcquistato>0,\"ID Cheese Not Valid!\");\r\n\r\n        return purchasedCheeseBlocks[walletRetailer][_id_CheeseBlockAcquistato].id == _id_CheeseBlockAcquistato;\r\n    }\r\n\r\n    function getPurchasedCheeseBlockByRetailer(address walletRetailer)external view returns (Cheese[]memory){\r\n        Cheese [ ] memory  purchasedCheeseBlockList  = new Cheese[](purchasedCheeseBlockListId.length);\r\n        for (uint256 i=0; i<purchasedCheeseBlockListId.length; i++){\r\n\r\n                uint256 _id = purchasedCheeseBlockListId[i];\r\n                if(purchasedCheeseBlocks[walletRetailer][_id].id != 0){\r\n                    // Esiste e questo  il MilkBatch dell'Utente \r\n                    Cheese storage new_cheese = purchasedCheeseBlocks[walletRetailer][_id];\r\n                    purchasedCheeseBlockList[i] = new_cheese;\r\n                } \r\n        }\r\n        return purchasedCheeseBlockList;\r\n    }\r\n\r\n// -------------------------------------------------------------- Set Function ------------------------------------------------------------------------------------------//\r\n\r\n\r\n\r\n    // - Funzione updateCheeseQuantity() aggiorna la quantit del Cheese \r\n    function updateCheeseQuantity(address walletRetailer, uint256 _id, uint256 _newQuantity) external  {\r\n        // Controllo sulla quantita' \r\n        require(_newQuantity<=purchasedCheeseBlocks[walletRetailer][_id].quantity,\"Controllo della Quantita' da utilizzare non andata a buon fine!\");\r\n\r\n        purchasedCheeseBlocks[walletRetailer][_id].quantity = _newQuantity;\r\n    }\r\n\r\n\r\n// -------------------------------------------------------------- Get Function ------------------------------------------------------------------------------------------//\r\n\r\n    function getDop(address walletRetailer, uint256 _id_cheeseBlockAcquistato) external view returns(string memory) {\r\n\r\n        Cheese memory cheese = purchasedCheeseBlocks[walletRetailer][_id_cheeseBlockAcquistato];\r\n        return cheese.dop;\r\n    }\r\n\r\n\r\n    function getQuantity(address walletRetailer, uint256 _id) external view returns(uint256) {\r\n\r\n        Cheese memory cheese = purchasedCheeseBlocks[walletRetailer][_id];\r\n        return cheese.quantity;        \r\n    }\r\n\r\n    function getWalletCheeseProducer(address walletRetailer, uint256 _id) external view returns(address) {\r\n\r\n        Cheese memory cheese = purchasedCheeseBlocks[walletRetailer][_id];\r\n        return cheese.walletCheeseProducer;\r\n    }\r\n\r\n    function getId(address walletRetailer, uint256 _id) external view returns(uint256) {\r\n\r\n        return purchasedCheeseBlocks[walletRetailer][_id].id;\r\n    }\r\n\r\n\r\n// -------------------------------------------------------------- Check Function ------------------------------------------------------------------------------------------//\r\n\r\n\r\n    function checkCheese(address walletRetailer, uint256 _id, uint256 _quantityToTransform) external view returns(bool) {\r\n        require(purchasedCheeseBlocks[walletRetailer][_id].id == _id, \"Partita di Latte non presente!\");\r\n\r\n        Cheese storage cheeseObj = purchasedCheeseBlocks[walletRetailer][_id];\r\n            \r\n        require(cheeseObj.quantity >= _quantityToTransform, \"Quantity not Valid!\");\r\n        return true;    \r\n    }\r\n\r\n\r\n    function checkQuantity(address walletRetailer,  uint256 _id, uint256 _quantityToTransform ) external view returns(bool){\r\n        \r\n        Cheese storage cheeseObj = purchasedCheeseBlocks[walletRetailer][_id];\r\n            \r\n        require(cheeseObj.quantity >= _quantityToTransform, \"Quantity not Valid!\");\r\n\r\n        return true;    \r\n    }\r\n    \r\n}",
  "sourcePath": "C:\\Users\\umber\\Progetti\\FilieraToken\\Filiera-Token-Smart-Contract\\contracts\\Actor\\Retailer-smart-contract\\inventory\\RetailerBuyerStorage.sol",
  "compiler": {
    "name": "solc",
    "version": "0.8.24+commit.e11b9ed9.Emscripten.clang"
  },
  "schemaVersion": "3.4.16",
  "updatedAt": "2024-02-28T11:39:54.335Z",
  "devdoc": {
    "kind": "dev",
    "methods": {},
    "version": 1
  },
  "userdoc": {
    "kind": "user",
    "methods": {
      "addCheeseBlock(address,address,uint256,string,uint256)": {
        "notice": "Funzione addCheese() -> Utilizzata dal Transaction Manager per poter inserire il Cheese Acquistato  Scollego questa logica, ammettendo che il CheeseProducer pu testare la logica di conversione  params :  - walletCheeseProducer -> mi serve per il mapping  - walletCheeseProducer -> mi serve per creare il nuovo elemento   - id_cheese -> mi serve per il riferimento all'elemento acquistato"
      },
      "isCheesePresent(address,uint256)": {
        "notice": "Funzione per la verifica dell'esistenza del prodotto Cheese acquistato  - ritorna TRUE se esiste  - ritorna FALSe se non esiste  - effettua il controllo sull'uguaglianza dell'id del Cheese Acquistato"
      }
    },
    "version": 1
  }
}