{
  "contractName": "TransactionCheeseProductService",
  "abi": [
    {
      "inputs": [
        {
          "internalType": "address",
          "name": "_filieraToken",
          "type": "address"
        },
        {
          "internalType": "address",
          "name": "_cheeseProducerService",
          "type": "address"
        },
        {
          "internalType": "address",
          "name": "_retailerService",
          "type": "address"
        },
        {
          "internalType": "address",
          "name": "_cheeseProducerInventoryService",
          "type": "address"
        },
        {
          "internalType": "address",
          "name": "_retailerCheeseBlockService",
          "type": "address"
        }
      ],
      "stateMutability": "nonpayable",
      "type": "constructor"
    },
    {
      "inputs": [
        {
          "internalType": "address",
          "name": "buyer",
          "type": "address"
        },
        {
          "internalType": "address",
          "name": "ownerCheese",
          "type": "address"
        },
        {
          "internalType": "uint256",
          "name": "_id_Cheese",
          "type": "uint256"
        },
        {
          "internalType": "uint256",
          "name": "_quantityToBuy",
          "type": "uint256"
        },
        {
          "internalType": "uint256",
          "name": "totalPrice",
          "type": "uint256"
        }
      ],
      "name": "BuyCheeseProduct",
      "outputs": [],
      "stateMutability": "nonpayable",
      "type": "function"
    }
  ],
  "bytecode": "0x60806040523480156200001157600080fd5b50604051620014f3380380620014f38339818101604052810190620000379190620001f0565b846000806101000a81548173ffffffffffffffffffffffffffffffffffffffff021916908373ffffffffffffffffffffffffffffffffffffffff16021790555083600160006101000a81548173ffffffffffffffffffffffffffffffffffffffff021916908373ffffffffffffffffffffffffffffffffffffffff16021790555082600260006101000a81548173ffffffffffffffffffffffffffffffffffffffff021916908373ffffffffffffffffffffffffffffffffffffffff16021790555081600360006101000a81548173ffffffffffffffffffffffffffffffffffffffff021916908373ffffffffffffffffffffffffffffffffffffffff16021790555080600460006101000a81548173ffffffffffffffffffffffffffffffffffffffff021916908373ffffffffffffffffffffffffffffffffffffffff160217905550505050505062000278565b600080fd5b600073ffffffffffffffffffffffffffffffffffffffff82169050919050565b6000620001b8826200018b565b9050919050565b620001ca81620001ab565b8114620001d657600080fd5b50565b600081519050620001ea81620001bf565b92915050565b600080600080600060a086880312156200020f576200020e62000186565b5b60006200021f88828901620001d9565b95505060206200023288828901620001d9565b94505060406200024588828901620001d9565b93505060606200025888828901620001d9565b92505060806200026b88828901620001d9565b9150509295509295909350565b61126b80620002886000396000f3fe608060405234801561001057600080fd5b506004361061002b5760003560e01c80634151998714610030575b600080fd5b61004a60048036038101906100459190610a93565b61004c565b005b600073ffffffffffffffffffffffffffffffffffffffff168573ffffffffffffffffffffffffffffffffffffffff16036100bb576040517f08c379a00000000000000000000000000000000000000000000000000000000081526004016100b290610b6b565b60405180910390fd5b600073ffffffffffffffffffffffffffffffffffffffff168473ffffffffffffffffffffffffffffffffffffffff160361012a576040517f08c379a000000000000000000000000000000000000000000000000000000000815260040161012190610bd7565b60405180910390fd5b8373ffffffffffffffffffffffffffffffffffffffff168573ffffffffffffffffffffffffffffffffffffffff1603610198576040517f08c379a000000000000000000000000000000000000000000000000000000000815260040161018f90610c43565b60405180910390fd5b600360009054906101000a900473ffffffffffffffffffffffffffffffffffffffff1673ffffffffffffffffffffffffffffffffffffffff16634f0205bf85856040518363ffffffff1660e01b81526004016101f5929190610c81565b602060405180830381865afa158015610212573d6000803e3d6000fd5b505050506040513d601f19601f820116820180604052508101906102369190610ce2565b610275576040517f08c379a000000000000000000000000000000000000000000000000000000000815260040161026c90610d5b565b60405180910390fd5b600360009054906101000a900473ffffffffffffffffffffffffffffffffffffffff1673ffffffffffffffffffffffffffffffffffffffff1663d7da36cf85856040518363ffffffff1660e01b81526004016102d2929190610c81565b602060405180830381865afa1580156102ef573d6000803e3d6000fd5b505050506040513d601f19601f820116820180604052508101906103139190610d90565b821115610355576040517f08c379a000000000000000000000000000000000000000000000000000000000815260040161034c90610e09565b60405180910390fd5b8060008054906101000a900473ffffffffffffffffffffffffffffffffffffffff1673ffffffffffffffffffffffffffffffffffffffff166370a08231876040518263ffffffff1660e01b81526004016103af9190610e29565b602060405180830381865afa1580156103cc573d6000803e3d6000fd5b505050506040513d601f19601f820116820180604052508101906103f09190610d90565b1015610431576040517f08c379a000000000000000000000000000000000000000000000000000000000815260040161042890610e90565b60405180910390fd5b60008054906101000a900473ffffffffffffffffffffffffffffffffffffffff1673ffffffffffffffffffffffffffffffffffffffff16632901a50d8686846040518463ffffffff1660e01b815260040161048e93929190610eb0565b6020604051808303816000875af11580156104ad573d6000803e3d6000fd5b505050506040513d601f19601f820116820180604052508101906104d19190610ce2565b610510576040517f08c379a000000000000000000000000000000000000000000000000000000000815260040161050790610f33565b60405180910390fd5b60008060009054906101000a900473ffffffffffffffffffffffffffffffffffffffff1673ffffffffffffffffffffffffffffffffffffffff166370a08231866040518263ffffffff1660e01b815260040161056c9190610e29565b602060405180830381865afa158015610589573d6000803e3d6000fd5b505050506040513d601f19601f820116820180604052508101906105ad9190610d90565b9050600160009054906101000a900473ffffffffffffffffffffffffffffffffffffffff1673ffffffffffffffffffffffffffffffffffffffff1663f5d5359f86836040518363ffffffff1660e01b815260040161060c929190610c81565b600060405180830381600087803b15801561062657600080fd5b505af115801561063a573d6000803e3d6000fd5b5050505060008060009054906101000a900473ffffffffffffffffffffffffffffffffffffffff1673ffffffffffffffffffffffffffffffffffffffff166370a08231886040518263ffffffff1660e01b815260040161069a9190610e29565b602060405180830381865afa1580156106b7573d6000803e3d6000fd5b505050506040513d601f19601f820116820180604052508101906106db9190610d90565b9050600260009054906101000a900473ffffffffffffffffffffffffffffffffffffffff1673ffffffffffffffffffffffffffffffffffffffff16638b58007e88836040518363ffffffff1660e01b815260040161073a929190610c81565b600060405180830381600087803b15801561075457600080fd5b505af1158015610768573d6000803e3d6000fd5b505050506000600360009054906101000a900473ffffffffffffffffffffffffffffffffffffffff1673ffffffffffffffffffffffffffffffffffffffff1663d7da36cf88886040518363ffffffff1660e01b81526004016107cb929190610c81565b602060405180830381865afa1580156107e8573d6000803e3d6000fd5b505050506040513d601f19601f8201168201806040525081019061080c9190610d90565b9050600360009054906101000a900473ffffffffffffffffffffffffffffffffffffffff1673ffffffffffffffffffffffffffffffffffffffff166377e94d9e8888888561085a9190610f82565b6040518463ffffffff1660e01b815260040161087893929190610fb6565b600060405180830381600087803b15801561089257600080fd5b505af11580156108a6573d6000803e3d6000fd5b50505050600460009054906101000a900473ffffffffffffffffffffffffffffffffffffffff1673ffffffffffffffffffffffffffffffffffffffff16638b3c04ce888a89600360009054906101000a900473ffffffffffffffffffffffffffffffffffffffff1673ffffffffffffffffffffffffffffffffffffffff1663f93bd0218d8d6040518363ffffffff1660e01b8152600401610948929190610c81565b600060405180830381865afa158015610965573d6000803e3d6000fd5b505050506040513d6000823e3d601f19601f8201168201806040525081019061098e919061114e565b8a6040518663ffffffff1660e01b81526004016109af9594939291906111db565b600060405180830381600087803b1580156109c957600080fd5b505af11580156109dd573d6000803e3d6000fd5b505050505050505050505050565b6000604051905090565b600080fd5b600080fd5b600073ffffffffffffffffffffffffffffffffffffffff82169050919050565b6000610a2a826109ff565b9050919050565b610a3a81610a1f565b8114610a4557600080fd5b50565b600081359050610a5781610a31565b92915050565b6000819050919050565b610a7081610a5d565b8114610a7b57600080fd5b50565b600081359050610a8d81610a67565b92915050565b600080600080600060a08688031215610aaf57610aae6109f5565b5b6000610abd88828901610a48565b9550506020610ace88828901610a48565b9450506040610adf88828901610a7e565b9350506060610af088828901610a7e565b9250506080610b0188828901610a7e565b9150509295509295909350565b600082825260208201905092915050565b7f496e76616c69642073656e646572206164647265737300000000000000000000600082015250565b6000610b55601683610b0e565b9150610b6082610b1f565b602082019050919050565b60006020820190508181036000830152610b8481610b48565b9050919050565b7f496e76616c6964206f776e657220616464726573730000000000000000000000600082015250565b6000610bc1601583610b0e565b9150610bcc82610b8b565b602082019050919050565b60006020820190508181036000830152610bf081610bb4565b9050919050565b7f43616e6e6f74206275792066726f6d20796f757273656c660000000000000000600082015250565b6000610c2d601883610b0e565b9150610c3882610bf7565b602082019050919050565b60006020820190508181036000830152610c5c81610c20565b9050919050565b610c6c81610a1f565b82525050565b610c7b81610a5d565b82525050565b6000604082019050610c966000830185610c63565b610ca36020830184610c72565b9392505050565b60008115159050919050565b610cbf81610caa565b8114610cca57600080fd5b50565b600081519050610cdc81610cb6565b92915050565b600060208284031215610cf857610cf76109f5565b5b6000610d0684828501610ccd565b91505092915050565b7f50726f64756374206e6f7420666f756e64000000000000000000000000000000600082015250565b6000610d45601183610b0e565b9150610d5082610d0f565b602082019050919050565b60006020820190508181036000830152610d7481610d38565b9050919050565b600081519050610d8a81610a67565b92915050565b600060208284031215610da657610da56109f5565b5b6000610db484828501610d7b565b91505092915050565b7f496e76616c6964207175616e7469747900000000000000000000000000000000600082015250565b6000610df3601083610b0e565b9150610dfe82610dbd565b602082019050919050565b60006020820190508181036000830152610e2281610de6565b9050919050565b6000602082019050610e3e6000830184610c63565b92915050565b7f496e73756666696369656e742062616c616e6365000000000000000000000000600082015250565b6000610e7a601483610b0e565b9150610e8582610e44565b602082019050919050565b60006020820190508181036000830152610ea981610e6d565b9050919050565b6000606082019050610ec56000830186610c63565b610ed26020830185610c63565b610edf6040830184610c72565b949350505050565b7f416371756973746f206e6f6e20616e6461746f20612062756f6e2066696e6521600082015250565b6000610f1d602083610b0e565b9150610f2882610ee7565b602082019050919050565b60006020820190508181036000830152610f4c81610f10565b9050919050565b7f4e487b7100000000000000000000000000000000000000000000000000000000600052601160045260246000fd5b6000610f8d82610a5d565b9150610f9883610a5d565b9250828203905081811115610fb057610faf610f53565b5b92915050565b6000606082019050610fcb6000830186610c63565b610fd86020830185610c72565b610fe56040830184610c72565b949350505050565b600080fd5b600080fd5b6000601f19601f8301169050919050565b7f4e487b7100000000000000000000000000000000000000000000000000000000600052604160045260246000fd5b61104082610ff7565b810181811067ffffffffffffffff8211171561105f5761105e611008565b5b80604052505050565b60006110726109eb565b905061107e8282611037565b919050565b600067ffffffffffffffff82111561109e5761109d611008565b5b6110a782610ff7565b9050602081019050919050565b60005b838110156110d25780820151818401526020810190506110b7565b60008484015250505050565b60006110f16110ec84611083565b611068565b90508281526020810184848401111561110d5761110c610ff2565b5b6111188482856110b4565b509392505050565b600082601f83011261113557611134610fed565b5b81516111458482602086016110de565b91505092915050565b600060208284031215611164576111636109f5565b5b600082015167ffffffffffffffff811115611182576111816109fa565b5b61118e84828501611120565b91505092915050565b600081519050919050565b60006111ad82611197565b6111b78185610b0e565b93506111c78185602086016110b4565b6111d081610ff7565b840191505092915050565b600060a0820190506111f06000830188610c63565b6111fd6020830187610c63565b61120a6040830186610c72565b818103606083015261121c81856111a2565b905061122b6080830184610c72565b969550505050505056fea2646970667358221220360b613935df04753f415be1871a4585394c071183dbe72e33f8b80810b330e364736f6c63430008180033",
  "immutableReferences": {},
  "source": "// SPDX-License-Identifier: MIT\r\n\r\npragma solidity ^0.8.21;\r\n\r\nimport \"./Filieratoken.sol\";\r\n\r\n// Service \r\nimport \"../Actor/CheeseProducer-smart-contract/CheeseProducerService.sol\";\r\nimport \"../Actor/Retailer-smart-contract/RetailerService.sol\";\r\n\r\nimport \"../Actor/CheeseProducer-smart-contract/inventory/CheeseProducerInventoryService.sol\";\r\nimport \"../Actor/Retailer-smart-contract/inventory/RetailerInventoryService.sol\";\r\n\r\n\r\ncontract TransactionCheeseProductService {\r\n\r\n\r\n    // **Main Services**\r\n\r\n    // Address of the FilieraToken contract.\r\n    Filieratoken private filieraTokenService;\r\n\r\n    // Addresses of the service contracts for each actor in the supply chain.\r\n    CheeseProducerService private cheeseProducerService; // Address of the CheeseProducerService contract.\r\n    RetailerService private retailerService;   // Address of the RetailerService contract.\r\n\r\n    // **Inventory Services**\r\n\r\n    // Service contracts for managing inventory for each actor and product stage.\r\n\r\n    // CheeseProducer - Contains Cheese (product sold by CheeseProducer).\r\n    CheeseProducerInventoryService private cheeseProducerInventoryService;\r\n\r\n    // Retailer - Contains CheeseBlock (product bought by Retailer).\r\n    RetailerBuyerService private retailerCheeseBlockService;\r\n\r\n\r\n    /**\r\n     * @dev Costruttore del contratto TransactionManager.\r\n     * \r\n     * @param _filieraToken Indirizzo del contratto FilieraToken.\r\n     * @param _cheeseProducerService Indirizzo del contratto CheeseProducerService.\r\n     * @param _retailerService Indirizzo del contratto RetailerService.\r\n     * \r\n     * \r\n     * @param _cheeseProducerInventoryService Indirizzo del contratto CheeseProducerInventoryService.\r\n     * @param _retailerCheeseBlockService Indirizzo del contratto RetailerBuyerService.\r\n     * \r\n     */\r\n    constructor(\r\n        address _filieraToken,\r\n\r\n        address _cheeseProducerService,\r\n        address _retailerService,\r\n\r\n\r\n        address _cheeseProducerInventoryService,\r\n        address _retailerCheeseBlockService\r\n        ){\r\n        // Filiera Token Service \r\n        filieraTokenService = Filieratoken(_filieraToken);\r\n\r\n        \r\n\r\n        // Main Service \r\n\r\n        cheeseProducerService = CheeseProducerService(_cheeseProducerService);\r\n        \r\n        retailerService = RetailerService(_retailerService);\r\n\r\n        // Inventory Service \r\n        cheeseProducerInventoryService = CheeseProducerInventoryService(_cheeseProducerInventoryService);\r\n        retailerCheeseBlockService = RetailerBuyerService(_retailerCheeseBlockService);\r\n    }\r\n\r\n\r\n\r\n    /**\r\n    * @dev Funzione per acquistare un CheeseBlock da un CheeseProducer. Questa funzione pu essere chiamata solo da un Retailer.\r\n    *\r\n    * @param ownerCheese Indirizzo del CheeseProducer che vende il CheeseBlock.\r\n    * @param _id_Cheese Identificativo del CheeseBlock da acquistare.\r\n    * @param _quantityToBuy Quantit di CheeseBlock da acquistare.\r\n    * @param totalPrice Prezzo totale del CheeseBlock da acquistare (espresso in FilieraToken).\r\n    */ \r\n    function BuyCheeseProduct(\r\n            address buyer, \r\n            address ownerCheese,\r\n            uint256 _id_Cheese,\r\n            uint256 _quantityToBuy,\r\n            uint256 totalPrice // Effettuare il calcolo dal front-End \r\n        ) external {\r\n       // Verifica degli address con controlli generici \r\n        require(buyer != address(0), \"Invalid sender address\");\r\n        require(ownerCheese != address(0), \"Invalid owner address\");\r\n        require(buyer != ownerCheese, \"Cannot buy from yourself\");\r\n        // Verfica della presenza del Prodotto \r\n        require(cheeseProducerInventoryService.isCheeseBlockPresent(ownerCheese, _id_Cheese), \"Product not found\");\r\n        // Verifica della quantit da acquistare rispetto alla quantit totale \r\n        require(_quantityToBuy <= cheeseProducerInventoryService.getCheeseBlockQuantity(ownerCheese, _id_Cheese), \"Invalid quantity\");\r\n        // Verifica del saldo dell'acquirente \r\n        require(filieraTokenService.balanceOf(buyer) >= totalPrice, \"Insufficient balance\");\r\n\r\n        // Acquisto \r\n        require(filieraTokenService.transferTokenBuyProduct(buyer, ownerCheese, totalPrice),\"Acquisto non andato a buon fine!\");\r\n\r\n        // Aggiornamento del saldo del MilkHub \r\n        uint256 newCheeseProducerBalance = filieraTokenService.balanceOf(ownerCheese);\r\n        cheeseProducerService.updateCheeseProducerBalance(ownerCheese, newCheeseProducerBalance);\r\n        // Aggiornamento del saldo del CheeseProducer \r\n        uint256 newRetailerBalance = filieraTokenService.balanceOf(buyer);\r\n        retailerService.updateRetailerBalance(buyer, newRetailerBalance);\r\n\r\n        // Riduzione della quantit nel MilkHubInventory\r\n        uint256 currentQuantity = cheeseProducerInventoryService.getCheeseBlockQuantity(ownerCheese, _id_Cheese);\r\n        cheeseProducerInventoryService.updateCheeseBlockQuantity(ownerCheese, _id_Cheese, currentQuantity - _quantityToBuy);\r\n\r\n        // Aggiunta del MilkBatch nell'inventario del CheeseProducer\r\n        retailerCheeseBlockService.addCheeseBlock(\r\n            ownerCheese,\r\n            buyer, \r\n            _id_Cheese,\r\n            cheeseProducerInventoryService.getDop(ownerCheese, _id_Cheese),\r\n            _quantityToBuy);\r\n    }\r\n}",
  "sourcePath": "C:\\Users\\umber\\Progetti\\FilieraToken\\Filiera-Token-Smart-Contract\\contracts\\Service\\TransactionCheeseProductService.sol",
  "compiler": {
    "name": "solc",
    "version": "0.8.24+commit.e11b9ed9.Emscripten.clang"
  },
  "schemaVersion": "3.4.16",
  "updatedAt": "2024-03-02T00:21:26.445Z",
  "devdoc": {
    "kind": "dev",
    "methods": {
      "BuyCheeseProduct(address,address,uint256,uint256,uint256)": {
        "details": "Funzione per acquistare un CheeseBlock da un CheeseProducer. Questa funzione pu essere chiamata solo da un Retailer.",
        "params": {
          "_id_Cheese": "Identificativo del CheeseBlock da acquistare.",
          "_quantityToBuy": "Quantit di CheeseBlock da acquistare.",
          "ownerCheese": "Indirizzo del CheeseProducer che vende il CheeseBlock.",
          "totalPrice": "Prezzo totale del CheeseBlock da acquistare (espresso in FilieraToken)."
        }
      },
      "constructor": {
        "details": "Costruttore del contratto TransactionManager. ",
        "params": {
          "_cheeseProducerInventoryService": "Indirizzo del contratto CheeseProducerInventoryService.",
          "_cheeseProducerService": "Indirizzo del contratto CheeseProducerService.",
          "_filieraToken": "Indirizzo del contratto FilieraToken.",
          "_retailerCheeseBlockService": "Indirizzo del contratto RetailerBuyerService. ",
          "_retailerService": "Indirizzo del contratto RetailerService.  "
        }
      }
    },
    "version": 1
  },
  "userdoc": {
    "kind": "user",
    "methods": {},
    "version": 1
  }
}