{
  "contractName": "TransactionManager",
  "abi": [
    {
      "inputs": [
        {
          "internalType": "address",
          "name": "_filieraToken",
          "type": "address"
        },
        {
          "internalType": "address",
          "name": "_milkhubService",
          "type": "address"
        },
        {
          "internalType": "address",
          "name": "_cheeseProducerService",
          "type": "address"
        },
        {
          "internalType": "address",
          "name": "_retailerService",
          "type": "address"
        },
        {
          "internalType": "address",
          "name": "_consumerService",
          "type": "address"
        },
        {
          "internalType": "address",
          "name": "_milkhubInventoryServiceAddress",
          "type": "address"
        },
        {
          "internalType": "address",
          "name": "_cheeseProducerMilkBatchServiceAddress",
          "type": "address"
        },
        {
          "internalType": "address",
          "name": "_cheeseProducerInventoryService",
          "type": "address"
        },
        {
          "internalType": "address",
          "name": "_retailerCheeseBlockService",
          "type": "address"
        },
        {
          "internalType": "address",
          "name": "_retailerInventoryService",
          "type": "address"
        },
        {
          "internalType": "address",
          "name": "_consumerBuyerInventoryService",
          "type": "address"
        }
      ],
      "stateMutability": "nonpayable",
      "type": "constructor"
    },
    {
      "inputs": [
        {
          "internalType": "address",
          "name": "ownerMilkBatch",
          "type": "address"
        },
        {
          "internalType": "uint256",
          "name": "_id_MilkBatch",
          "type": "uint256"
        },
        {
          "internalType": "uint256",
          "name": "_quantityToBuy",
          "type": "uint256"
        },
        {
          "internalType": "uint256",
          "name": "totalPrice",
          "type": "uint256"
        }
      ],
      "name": "BuyMilkBatchProduct",
      "outputs": [],
      "stateMutability": "nonpayable",
      "type": "function"
    },
    {
      "inputs": [
        {
          "internalType": "address",
          "name": "ownerCheese",
          "type": "address"
        },
        {
          "internalType": "uint256",
          "name": "_id_Cheese",
          "type": "uint256"
        },
        {
          "internalType": "uint256",
          "name": "_quantityToBuy",
          "type": "uint256"
        },
        {
          "internalType": "uint256",
          "name": "totalPrice",
          "type": "uint256"
        }
      ],
      "name": "BuyCheeseProduct",
      "outputs": [],
      "stateMutability": "nonpayable",
      "type": "function"
    },
    {
      "inputs": [
        {
          "internalType": "address",
          "name": "ownerCheesePiece",
          "type": "address"
        },
        {
          "internalType": "uint256",
          "name": "_id_CheesePiece",
          "type": "uint256"
        },
        {
          "internalType": "uint256",
          "name": "_quantityToBuy",
          "type": "uint256"
        },
        {
          "internalType": "uint256",
          "name": "totalPrice",
          "type": "uint256"
        }
      ],
      "name": "BuyCheesePieceProduct",
      "outputs": [],
      "stateMutability": "nonpayable",
      "type": "function"
    }
  ],
  "bytecode": "0x60806040523480156200001157600080fd5b5060405162002ac638038062002ac683398181016040528101906200003791906200037c565b8a6000806101000a81548173ffffffffffffffffffffffffffffffffffffffff021916908373ffffffffffffffffffffffffffffffffffffffff16021790555089600160006101000a81548173ffffffffffffffffffffffffffffffffffffffff021916908373ffffffffffffffffffffffffffffffffffffffff16021790555088600260006101000a81548173ffffffffffffffffffffffffffffffffffffffff021916908373ffffffffffffffffffffffffffffffffffffffff16021790555087600360006101000a81548173ffffffffffffffffffffffffffffffffffffffff021916908373ffffffffffffffffffffffffffffffffffffffff16021790555086600460006101000a81548173ffffffffffffffffffffffffffffffffffffffff021916908373ffffffffffffffffffffffffffffffffffffffff16021790555085600560006101000a81548173ffffffffffffffffffffffffffffffffffffffff021916908373ffffffffffffffffffffffffffffffffffffffff16021790555084600660006101000a81548173ffffffffffffffffffffffffffffffffffffffff021916908373ffffffffffffffffffffffffffffffffffffffff16021790555083600760006101000a81548173ffffffffffffffffffffffffffffffffffffffff021916908373ffffffffffffffffffffffffffffffffffffffff16021790555082600860006101000a81548173ffffffffffffffffffffffffffffffffffffffff021916908373ffffffffffffffffffffffffffffffffffffffff16021790555081600960006101000a81548173ffffffffffffffffffffffffffffffffffffffff021916908373ffffffffffffffffffffffffffffffffffffffff16021790555080600a60006101000a81548173ffffffffffffffffffffffffffffffffffffffff021916908373ffffffffffffffffffffffffffffffffffffffff160217905550505050505050505050505062000489565b600080fd5b600073ffffffffffffffffffffffffffffffffffffffff82169050919050565b6000620003448262000317565b9050919050565b620003568162000337565b81146200036257600080fd5b50565b60008151905062000376816200034b565b92915050565b60008060008060008060008060008060006101608c8e031215620003a557620003a462000312565b5b6000620003b58e828f0162000365565b9b50506020620003c88e828f0162000365565b9a50506040620003db8e828f0162000365565b9950506060620003ee8e828f0162000365565b9850506080620004018e828f0162000365565b97505060a0620004148e828f0162000365565b96505060c0620004278e828f0162000365565b95505060e06200043a8e828f0162000365565b9450506101006200044e8e828f0162000365565b935050610120620004628e828f0162000365565b925050610140620004768e828f0162000365565b9150509295989b509295989b9093969950565b61262d80620004996000396000f3fe608060405234801561001057600080fd5b50600436106100415760003560e01c8063312facd8146100465780634d85cd0114610062578063541c7d6f1461007e575b600080fd5b610060600480360381019061005b9190611e16565b61009a565b005b61007c60048036038101906100779190611e16565b610a37565b005b61009860048036038101906100939190611e16565b6113d0565b005b600073ffffffffffffffffffffffffffffffffffffffff163373ffffffffffffffffffffffffffffffffffffffff1603610109576040517f08c379a000000000000000000000000000000000000000000000000000000000815260040161010090611eda565b60405180910390fd5b600073ffffffffffffffffffffffffffffffffffffffff168473ffffffffffffffffffffffffffffffffffffffff1603610178576040517f08c379a000000000000000000000000000000000000000000000000000000000815260040161016f90611f46565b60405180910390fd5b8373ffffffffffffffffffffffffffffffffffffffff163373ffffffffffffffffffffffffffffffffffffffff16036101e6576040517f08c379a00000000000000000000000000000000000000000000000000000000081526004016101dd90611fb2565b60405180910390fd5b600560009054906101000a900473ffffffffffffffffffffffffffffffffffffffff1673ffffffffffffffffffffffffffffffffffffffff166302d805f685856040518363ffffffff1660e01b8152600401610243929190611ff0565b602060405180830381865afa158015610260573d6000803e3d6000fd5b505050506040513d601f19601f820116820180604052508101906102849190612051565b6102c3576040517f08c379a00000000000000000000000000000000000000000000000000000000081526004016102ba906120ca565b60405180910390fd5b600560009054906101000a900473ffffffffffffffffffffffffffffffffffffffff1673ffffffffffffffffffffffffffffffffffffffff16636fb6c96e85856040518363ffffffff1660e01b8152600401610320929190611ff0565b602060405180830381865afa15801561033d573d6000803e3d6000fd5b505050506040513d601f19601f8201168201806040525081019061036191906120ff565b8211156103a3576040517f08c379a000000000000000000000000000000000000000000000000000000000815260040161039a90612178565b60405180910390fd5b8060008054906101000a900473ffffffffffffffffffffffffffffffffffffffff1673ffffffffffffffffffffffffffffffffffffffff166370a08231336040518263ffffffff1660e01b81526004016103fd9190612198565b602060405180830381865afa15801561041a573d6000803e3d6000fd5b505050506040513d601f19601f8201168201806040525081019061043e91906120ff565b101561047f576040517f08c379a0000000000000000000000000000000000000000000000000000000008152600401610476906121ff565b60405180910390fd5b60008054906101000a900473ffffffffffffffffffffffffffffffffffffffff1673ffffffffffffffffffffffffffffffffffffffff16632901a50d3386846040518463ffffffff1660e01b81526004016104dc9392919061221f565b6020604051808303816000875af11580156104fb573d6000803e3d6000fd5b505050506040513d601f19601f8201168201806040525081019061051f9190612051565b61055e576040517f08c379a0000000000000000000000000000000000000000000000000000000008152600401610555906122a2565b60405180910390fd5b60008060009054906101000a900473ffffffffffffffffffffffffffffffffffffffff1673ffffffffffffffffffffffffffffffffffffffff166370a08231866040518263ffffffff1660e01b81526004016105ba9190612198565b602060405180830381865afa1580156105d7573d6000803e3d6000fd5b505050506040513d601f19601f820116820180604052508101906105fb91906120ff565b9050600160009054906101000a900473ffffffffffffffffffffffffffffffffffffffff1673ffffffffffffffffffffffffffffffffffffffff1663a3bc4bb586836040518363ffffffff1660e01b815260040161065a929190611ff0565b600060405180830381600087803b15801561067457600080fd5b505af1158015610688573d6000803e3d6000fd5b5050505060008060009054906101000a900473ffffffffffffffffffffffffffffffffffffffff1673ffffffffffffffffffffffffffffffffffffffff166370a08231336040518263ffffffff1660e01b81526004016106e89190612198565b602060405180830381865afa158015610705573d6000803e3d6000fd5b505050506040513d601f19601f8201168201806040525081019061072991906120ff565b9050600260009054906101000a900473ffffffffffffffffffffffffffffffffffffffff1673ffffffffffffffffffffffffffffffffffffffff1663f5d5359f33836040518363ffffffff1660e01b8152600401610788929190611ff0565b600060405180830381600087803b1580156107a257600080fd5b505af11580156107b6573d6000803e3d6000fd5b505050506000600560009054906101000a900473ffffffffffffffffffffffffffffffffffffffff1673ffffffffffffffffffffffffffffffffffffffff16636fb6c96e88886040518363ffffffff1660e01b8152600401610819929190611ff0565b602060405180830381865afa158015610836573d6000803e3d6000fd5b505050506040513d601f19601f8201168201806040525081019061085a91906120ff565b9050600560009054906101000a900473ffffffffffffffffffffffffffffffffffffffff1673ffffffffffffffffffffffffffffffffffffffff1663cb6f5eee888888856108a891906122f1565b6040518463ffffffff1660e01b81526004016108c693929190612325565b600060405180830381600087803b1580156108e057600080fd5b505af11580156108f4573d6000803e3d6000fd5b50505050600660009054906101000a900473ffffffffffffffffffffffffffffffffffffffff1673ffffffffffffffffffffffffffffffffffffffff1663dd937b01883389600560009054906101000a900473ffffffffffffffffffffffffffffffffffffffff1673ffffffffffffffffffffffffffffffffffffffff1662ef18628d8d6040518363ffffffff1660e01b8152600401610995929190611ff0565b600060405180830381865afa1580156109b2573d6000803e3d6000fd5b505050506040513d6000823e3d601f19601f820116820180604052508101906109db91906124bd565b8a6040518663ffffffff1660e01b81526004016109fc95949392919061254a565b600060405180830381600087803b158015610a1657600080fd5b505af1158015610a2a573d6000803e3d6000fd5b5050505050505050505050565b600073ffffffffffffffffffffffffffffffffffffffff163373ffffffffffffffffffffffffffffffffffffffff1603610aa6576040517f08c379a0000000000000000000000000000000000000000000000000000000008152600401610a9d90611eda565b60405180910390fd5b600073ffffffffffffffffffffffffffffffffffffffff168473ffffffffffffffffffffffffffffffffffffffff1603610b15576040517f08c379a0000000000000000000000000000000000000000000000000000000008152600401610b0c90611f46565b60405180910390fd5b8373ffffffffffffffffffffffffffffffffffffffff163373ffffffffffffffffffffffffffffffffffffffff1603610b83576040517f08c379a0000000000000000000000000000000000000000000000000000000008152600401610b7a90611fb2565b60405180910390fd5b600960009054906101000a900473ffffffffffffffffffffffffffffffffffffffff1673ffffffffffffffffffffffffffffffffffffffff16639bc7c21c85856040518363ffffffff1660e01b8152600401610be0929190611ff0565b602060405180830381865afa158015610bfd573d6000803e3d6000fd5b505050506040513d601f19601f82011682018060405250810190610c219190612051565b610c60576040517f08c379a0000000000000000000000000000000000000000000000000000000008152600401610c57906120ca565b60405180910390fd5b600960009054906101000a900473ffffffffffffffffffffffffffffffffffffffff1673ffffffffffffffffffffffffffffffffffffffff1663afd47d3e85856040518363ffffffff1660e01b8152600401610cbd929190611ff0565b602060405180830381865afa158015610cda573d6000803e3d6000fd5b505050506040513d601f19601f82011682018060405250810190610cfe91906120ff565b821115610d40576040517f08c379a0000000000000000000000000000000000000000000000000000000008152600401610d3790612178565b60405180910390fd5b8060008054906101000a900473ffffffffffffffffffffffffffffffffffffffff1673ffffffffffffffffffffffffffffffffffffffff166370a08231336040518263ffffffff1660e01b8152600401610d9a9190612198565b602060405180830381865afa158015610db7573d6000803e3d6000fd5b505050506040513d601f19601f82011682018060405250810190610ddb91906120ff565b1015610e1c576040517f08c379a0000000000000000000000000000000000000000000000000000000008152600401610e13906121ff565b60405180910390fd5b60008054906101000a900473ffffffffffffffffffffffffffffffffffffffff1673ffffffffffffffffffffffffffffffffffffffff16632901a50d3386846040518463ffffffff1660e01b8152600401610e799392919061221f565b6020604051808303816000875af1158015610e98573d6000803e3d6000fd5b505050506040513d601f19601f82011682018060405250810190610ebc9190612051565b610efb576040517f08c379a0000000000000000000000000000000000000000000000000000000008152600401610ef2906122a2565b60405180910390fd5b60008060009054906101000a900473ffffffffffffffffffffffffffffffffffffffff1673ffffffffffffffffffffffffffffffffffffffff166370a08231866040518263ffffffff1660e01b8152600401610f579190612198565b602060405180830381865afa158015610f74573d6000803e3d6000fd5b505050506040513d601f19601f82011682018060405250810190610f9891906120ff565b9050600360009054906101000a900473ffffffffffffffffffffffffffffffffffffffff1673ffffffffffffffffffffffffffffffffffffffff16638b58007e86836040518363ffffffff1660e01b8152600401610ff7929190611ff0565b600060405180830381600087803b15801561101157600080fd5b505af1158015611025573d6000803e3d6000fd5b5050505060008060009054906101000a900473ffffffffffffffffffffffffffffffffffffffff1673ffffffffffffffffffffffffffffffffffffffff166370a08231336040518263ffffffff1660e01b81526004016110859190612198565b602060405180830381865afa1580156110a2573d6000803e3d6000fd5b505050506040513d601f19601f820116820180604052508101906110c691906120ff565b9050600460009054906101000a900473ffffffffffffffffffffffffffffffffffffffff1673ffffffffffffffffffffffffffffffffffffffff166384ebbea033836040518363ffffffff1660e01b8152600401611125929190611ff0565b600060405180830381600087803b15801561113f57600080fd5b505af1158015611153573d6000803e3d6000fd5b505050506000600960009054906101000a900473ffffffffffffffffffffffffffffffffffffffff1673ffffffffffffffffffffffffffffffffffffffff1663afd47d3e88886040518363ffffffff1660e01b81526004016111b6929190611ff0565b602060405180830381865afa1580156111d3573d6000803e3d6000fd5b505050506040513d601f19601f820116820180604052508101906111f791906120ff565b9050600960009054906101000a900473ffffffffffffffffffffffffffffffffffffffff1673ffffffffffffffffffffffffffffffffffffffff16635e523adb8888888561124591906122f1565b6040518463ffffffff1660e01b815260040161126393929190612325565b600060405180830381600087803b15801561127d57600080fd5b505af1158015611291573d6000803e3d6000fd5b50505050600a60009054906101000a900473ffffffffffffffffffffffffffffffffffffffff1673ffffffffffffffffffffffffffffffffffffffff1663210744cf883389600960009054906101000a900473ffffffffffffffffffffffffffffffffffffffff1673ffffffffffffffffffffffffffffffffffffffff1663449e815d8d8d6040518363ffffffff1660e01b8152600401611333929190611ff0565b602060405180830381865afa158015611350573d6000803e3d6000fd5b505050506040513d601f19601f8201168201806040525081019061137491906120ff565b8a6040518663ffffffff1660e01b81526004016113959594939291906125a4565b600060405180830381600087803b1580156113af57600080fd5b505af11580156113c3573d6000803e3d6000fd5b5050505050505050505050565b600073ffffffffffffffffffffffffffffffffffffffff163373ffffffffffffffffffffffffffffffffffffffff160361143f576040517f08c379a000000000000000000000000000000000000000000000000000000000815260040161143690611eda565b60405180910390fd5b600073ffffffffffffffffffffffffffffffffffffffff168473ffffffffffffffffffffffffffffffffffffffff16036114ae576040517f08c379a00000000000000000000000000000000000000000000000000000000081526004016114a590611f46565b60405180910390fd5b8373ffffffffffffffffffffffffffffffffffffffff163373ffffffffffffffffffffffffffffffffffffffff160361151c576040517f08c379a000000000000000000000000000000000000000000000000000000000815260040161151390611fb2565b60405180910390fd5b600760009054906101000a900473ffffffffffffffffffffffffffffffffffffffff1673ffffffffffffffffffffffffffffffffffffffff16634f0205bf85856040518363ffffffff1660e01b8152600401611579929190611ff0565b602060405180830381865afa158015611596573d6000803e3d6000fd5b505050506040513d601f19601f820116820180604052508101906115ba9190612051565b6115f9576040517f08c379a00000000000000000000000000000000000000000000000000000000081526004016115f0906120ca565b60405180910390fd5b600760009054906101000a900473ffffffffffffffffffffffffffffffffffffffff1673ffffffffffffffffffffffffffffffffffffffff1663d7da36cf85856040518363ffffffff1660e01b8152600401611656929190611ff0565b602060405180830381865afa158015611673573d6000803e3d6000fd5b505050506040513d601f19601f8201168201806040525081019061169791906120ff565b8211156116d9576040517f08c379a00000000000000000000000000000000000000000000000000000000081526004016116d090612178565b60405180910390fd5b8060008054906101000a900473ffffffffffffffffffffffffffffffffffffffff1673ffffffffffffffffffffffffffffffffffffffff166370a08231336040518263ffffffff1660e01b81526004016117339190612198565b602060405180830381865afa158015611750573d6000803e3d6000fd5b505050506040513d601f19601f8201168201806040525081019061177491906120ff565b10156117b5576040517f08c379a00000000000000000000000000000000000000000000000000000000081526004016117ac906121ff565b60405180910390fd5b60008054906101000a900473ffffffffffffffffffffffffffffffffffffffff1673ffffffffffffffffffffffffffffffffffffffff16632901a50d3386846040518463ffffffff1660e01b81526004016118129392919061221f565b6020604051808303816000875af1158015611831573d6000803e3d6000fd5b505050506040513d601f19601f820116820180604052508101906118559190612051565b611894576040517f08c379a000000000000000000000000000000000000000000000000000000000815260040161188b906122a2565b60405180910390fd5b60008060009054906101000a900473ffffffffffffffffffffffffffffffffffffffff1673ffffffffffffffffffffffffffffffffffffffff166370a08231866040518263ffffffff1660e01b81526004016118f09190612198565b602060405180830381865afa15801561190d573d6000803e3d6000fd5b505050506040513d601f19601f8201168201806040525081019061193191906120ff565b9050600260009054906101000a900473ffffffffffffffffffffffffffffffffffffffff1673ffffffffffffffffffffffffffffffffffffffff1663f5d5359f86836040518363ffffffff1660e01b8152600401611990929190611ff0565b600060405180830381600087803b1580156119aa57600080fd5b505af11580156119be573d6000803e3d6000fd5b5050505060008060009054906101000a900473ffffffffffffffffffffffffffffffffffffffff1673ffffffffffffffffffffffffffffffffffffffff166370a08231336040518263ffffffff1660e01b8152600401611a1e9190612198565b602060405180830381865afa158015611a3b573d6000803e3d6000fd5b505050506040513d601f19601f82011682018060405250810190611a5f91906120ff565b9050600360009054906101000a900473ffffffffffffffffffffffffffffffffffffffff1673ffffffffffffffffffffffffffffffffffffffff16638b58007e33836040518363ffffffff1660e01b8152600401611abe929190611ff0565b600060405180830381600087803b158015611ad857600080fd5b505af1158015611aec573d6000803e3d6000fd5b505050506000600760009054906101000a900473ffffffffffffffffffffffffffffffffffffffff1673ffffffffffffffffffffffffffffffffffffffff1663d7da36cf88886040518363ffffffff1660e01b8152600401611b4f929190611ff0565b602060405180830381865afa158015611b6c573d6000803e3d6000fd5b505050506040513d601f19601f82011682018060405250810190611b9091906120ff565b9050600760009054906101000a900473ffffffffffffffffffffffffffffffffffffffff1673ffffffffffffffffffffffffffffffffffffffff166377e94d9e88888885611bde91906122f1565b6040518463ffffffff1660e01b8152600401611bfc93929190612325565b600060405180830381600087803b158015611c1657600080fd5b505af1158015611c2a573d6000803e3d6000fd5b50505050600860009054906101000a900473ffffffffffffffffffffffffffffffffffffffff1673ffffffffffffffffffffffffffffffffffffffff16638b3c04ce883389600760009054906101000a900473ffffffffffffffffffffffffffffffffffffffff1673ffffffffffffffffffffffffffffffffffffffff1663f93bd0218d8d6040518363ffffffff1660e01b8152600401611ccc929190611ff0565b600060405180830381865afa158015611ce9573d6000803e3d6000fd5b505050506040513d6000823e3d601f19601f82011682018060405250810190611d1291906124bd565b8a6040518663ffffffff1660e01b8152600401611d3395949392919061254a565b600060405180830381600087803b158015611d4d57600080fd5b505af1158015611d61573d6000803e3d6000fd5b5050505050505050505050565b6000604051905090565b600080fd5b600080fd5b600073ffffffffffffffffffffffffffffffffffffffff82169050919050565b6000611dad82611d82565b9050919050565b611dbd81611da2565b8114611dc857600080fd5b50565b600081359050611dda81611db4565b92915050565b6000819050919050565b611df381611de0565b8114611dfe57600080fd5b50565b600081359050611e1081611dea565b92915050565b60008060008060808587031215611e3057611e2f611d78565b5b6000611e3e87828801611dcb565b9450506020611e4f87828801611e01565b9350506040611e6087828801611e01565b9250506060611e7187828801611e01565b91505092959194509250565b600082825260208201905092915050565b7f496e76616c69642073656e646572206164647265737300000000000000000000600082015250565b6000611ec4601683611e7d565b9150611ecf82611e8e565b602082019050919050565b60006020820190508181036000830152611ef381611eb7565b9050919050565b7f496e76616c6964206f776e657220616464726573730000000000000000000000600082015250565b6000611f30601583611e7d565b9150611f3b82611efa565b602082019050919050565b60006020820190508181036000830152611f5f81611f23565b9050919050565b7f43616e6e6f74206275792066726f6d20796f757273656c660000000000000000600082015250565b6000611f9c601883611e7d565b9150611fa782611f66565b602082019050919050565b60006020820190508181036000830152611fcb81611f8f565b9050919050565b611fdb81611da2565b82525050565b611fea81611de0565b82525050565b60006040820190506120056000830185611fd2565b6120126020830184611fe1565b9392505050565b60008115159050919050565b61202e81612019565b811461203957600080fd5b50565b60008151905061204b81612025565b92915050565b60006020828403121561206757612066611d78565b5b60006120758482850161203c565b91505092915050565b7f50726f64756374206e6f7420666f756e64000000000000000000000000000000600082015250565b60006120b4601183611e7d565b91506120bf8261207e565b602082019050919050565b600060208201905081810360008301526120e3816120a7565b9050919050565b6000815190506120f981611dea565b92915050565b60006020828403121561211557612114611d78565b5b6000612123848285016120ea565b91505092915050565b7f496e76616c6964207175616e7469747900000000000000000000000000000000600082015250565b6000612162601083611e7d565b915061216d8261212c565b602082019050919050565b6000602082019050818103600083015261219181612155565b9050919050565b60006020820190506121ad6000830184611fd2565b92915050565b7f496e73756666696369656e742062616c616e6365000000000000000000000000600082015250565b60006121e9601483611e7d565b91506121f4826121b3565b602082019050919050565b60006020820190508181036000830152612218816121dc565b9050919050565b60006060820190506122346000830186611fd2565b6122416020830185611fd2565b61224e6040830184611fe1565b949350505050565b7f416371756973746f206e6f6e20616e6461746f20612062756f6e2066696e6521600082015250565b600061228c602083611e7d565b915061229782612256565b602082019050919050565b600060208201905081810360008301526122bb8161227f565b9050919050565b7f4e487b7100000000000000000000000000000000000000000000000000000000600052601160045260246000fd5b60006122fc82611de0565b915061230783611de0565b925082820390508181111561231f5761231e6122c2565b5b92915050565b600060608201905061233a6000830186611fd2565b6123476020830185611fe1565b6123546040830184611fe1565b949350505050565b600080fd5b600080fd5b6000601f19601f8301169050919050565b7f4e487b7100000000000000000000000000000000000000000000000000000000600052604160045260246000fd5b6123af82612366565b810181811067ffffffffffffffff821117156123ce576123cd612377565b5b80604052505050565b60006123e1611d6e565b90506123ed82826123a6565b919050565b600067ffffffffffffffff82111561240d5761240c612377565b5b61241682612366565b9050602081019050919050565b60005b83811015612441578082015181840152602081019050612426565b60008484015250505050565b600061246061245b846123f2565b6123d7565b90508281526020810184848401111561247c5761247b612361565b5b612487848285612423565b509392505050565b600082601f8301126124a4576124a361235c565b5b81516124b484826020860161244d565b91505092915050565b6000602082840312156124d3576124d2611d78565b5b600082015167ffffffffffffffff8111156124f1576124f0611d7d565b5b6124fd8482850161248f565b91505092915050565b600081519050919050565b600061251c82612506565b6125268185611e7d565b9350612536818560208601612423565b61253f81612366565b840191505092915050565b600060a08201905061255f6000830188611fd2565b61256c6020830187611fd2565b6125796040830186611fe1565b818103606083015261258b8185612511565b905061259a6080830184611fe1565b9695505050505050565b600060a0820190506125b96000830188611fd2565b6125c66020830187611fd2565b6125d36040830186611fe1565b6125e06060830185611fe1565b6125ed6080830184611fe1565b969550505050505056fea26469706673582212203f4485e69b3a5bdaf14c16e8c15670a0395e5b446d2fbdf337f1facbc34e568964736f6c63430008180033",
  "immutableReferences": {},
  "source": "// SPDX-License-Identifier: MIT\n\npragma solidity ^0.8.21;\n\nimport \"./Filieratoken.sol\";\n\n// Service \nimport \"../Actor/CheeseProducer-smart-contract/CheeseProducerService.sol\";\nimport \"../Actor/MilkHub-smart-contract/MilkHubService.sol\";\nimport \"../Actor/Consumer-smart-contract/ConsumerService.sol\";\nimport \"../Actor/Retailer-smart-contract/RetailerService.sol\";\n\n\n// Inventory Service \nimport \"../Actor/MilkHub-smart-contract/inventory/MilkHubInventoryService.sol\";\nimport \"../Actor/CheeseProducer-smart-contract/inventory/CheeseProducerBuyerService.sol\";\n\nimport \"../Actor/CheeseProducer-smart-contract/inventory/CheeseProducerInventoryService.sol\";\nimport \"../Actor/Retailer-smart-contract/inventory/RetailerInventoryService.sol\";\n\n\n\nimport \"../Actor/Consumer-smart-contract/inventory/ConsumerBuyerInventoryService.sol\";\nimport \"../Actor/Retailer-smart-contract/inventory/RetailerBuyerService.sol\";\n\n\n\ncontract TransactionManager {\n\n    // **Main Services**\n\n    // Address of the FilieraToken contract.\n    Filieratoken private filieraTokenService;\n\n    // Addresses of the service contracts for each actor in the supply chain.\n    MilkHubService private milkhubService;    // Address of the MilkHubService contract.\n    CheeseProducerService private cheeseProducerService; // Address of the CheeseProducerService contract.\n    RetailerService private retailerService;   // Address of the RetailerService contract.\n    ConsumerService private consumerService;   // Address of the ConsumerService contract.\n\n    // **Inventory Services**\n\n    // Service contracts for managing inventory for each actor and product stage.\n\n    // MilkHub - Contains MilkBatch (product sold by MilkHub).\n    MilkHubInventoryService private milkhubInventoryService;\n\n    // CheeseProducer - Contains MilkBatch (product bought by CheeseProducer).\n    CheeseProducerBuyerService private cheeseProducerMilkBatchService;\n\n    // CheeseProducer - Contains Cheese (product sold by CheeseProducer).\n    CheeseProducerInventoryService private cheeseProducerInventoryService;\n\n    // Retailer - Contains CheeseBlock (product bought by Retailer).\n    RetailerBuyerService private retailerCheeseBlockService;\n\n    // Retailer - Contains CheesePiece (product sold by Retailer).\n    RetailerInventoryService private retailerInventoryService;\n\n    // Consumer - Contains CheesePiece (product bought by Consumer).\n    ConsumerBuyerInventoryService private consumerBuyerInventoryService;\n\n\n        /**\n     * @dev Costruttore del contratto TransactionManager.\n     * \n     * @param _filieraToken Indirizzo del contratto FilieraToken.\n     * @param _milkhubService Indirizzo del contratto MilkHubService.\n     * @param _cheeseProducerService Indirizzo del contratto CheeseProducerService.\n     * @param _retailerService Indirizzo del contratto RetailerService.\n     * @param _consumerService Indirizzo del contratto ConsumerService.\n     * \n     * @param _milkhubInventoryServiceAddress Indirizzo del contratto MilkHubInventoryService.\n     * @param _cheeseProducerMilkBatchServiceAddress Indirizzo del contratto CheeseProducerBuyerService.\n     * \n     * @param _cheeseProducerInventoryService Indirizzo del contratto CheeseProducerInventoryService.\n     * @param _retailerCheeseBlockService Indirizzo del contratto RetailerBuyerService.\n     * \n     * @param _retailerInventoryService Indirizzo del contratto RetailerInventoryService.\n     * @param _consumerBuyerInventoryService Indirizzo del contratto ConsumerBuyerInventoryService.\n     */\n    constructor(\n        address _filieraToken,\n\n        address _milkhubService,\n        address _cheeseProducerService,\n        address _retailerService,\n        address _consumerService,\n\n        address _milkhubInventoryServiceAddress,\n        address _cheeseProducerMilkBatchServiceAddress,\n\n        address _cheeseProducerInventoryService,\n        address _retailerCheeseBlockService,\n\n        address _retailerInventoryService,\n        address _consumerBuyerInventoryService\n\n        ){\n        // Filiera Token Service \n        filieraTokenService = Filieratoken(_filieraToken);\n\n        \n\n        // Main Service \n\n        milkhubService = MilkHubService(_milkhubService);\n        cheeseProducerService = CheeseProducerService(_cheeseProducerService);\n        \n        retailerService = RetailerService(_retailerService);\n        consumerService = ConsumerService(_consumerService);\n\n        // Inventory Service \n        milkhubInventoryService = MilkHubInventoryService(_milkhubInventoryServiceAddress);\n        cheeseProducerMilkBatchService = CheeseProducerBuyerService(_cheeseProducerMilkBatchServiceAddress);\n\n        cheeseProducerInventoryService = CheeseProducerInventoryService(_cheeseProducerInventoryService);\n        retailerCheeseBlockService = RetailerBuyerService(_retailerCheeseBlockService);\n\n        retailerInventoryService = RetailerInventoryService(_retailerInventoryService);\n        consumerBuyerInventoryService = ConsumerBuyerInventoryService(_consumerBuyerInventoryService);\n    }\n\n    /**\n     * @dev Funzione per acquistare un MilkBatch da un MilkHub. Questa funzione pu essere chiamata solo da un CheeseProducer.\n     *\n     * @param ownerMilkBatch Indirizzo del MilkHub che vende il MilkBatch.\n     * @param _id_MilkBatch Identificativo del MilkBatch da acquistare.\n     * @param _quantityToBuy Quantit di MilkBatch da acquistare.\n     * @param totalPrice Prezzo totale del MilkBatch da acquistare (espresso in FilieraToken).\n     */\n    function BuyMilkBatchProduct(\n        address ownerMilkBatch,\n        uint256 _id_MilkBatch,\n        uint256 _quantityToBuy,\n        uint256 totalPrice)\n         external {\n\n        // Verifica degli address con controlli generici \n        require(msg.sender != address(0), \"Invalid sender address\");\n        require(ownerMilkBatch != address(0), \"Invalid owner address\");\n        require(msg.sender != ownerMilkBatch, \"Cannot buy from yourself\");\n        // Verfica della presenza del Prodotto \n        require(milkhubInventoryService.isMilkBatchPresent(ownerMilkBatch, _id_MilkBatch), \"Product not found\");\n        // Verifica della quantit da acquistare rispetto alla quantit totale \n        require(_quantityToBuy <= milkhubInventoryService.getMilkBatchQuantity(ownerMilkBatch, _id_MilkBatch), \"Invalid quantity\");\n        // Verifica del saldo dell'acquirente \n        require(filieraTokenService.balanceOf(msg.sender) >= totalPrice, \"Insufficient balance\");\n\n        // Acquisto \n        require(filieraTokenService.transferTokenBuyProduct(msg.sender, ownerMilkBatch, totalPrice),\"Acquisto non andato a buon fine!\");\n\n        // Aggiornamento del saldo del MilkHub \n        uint256 newMilkHubBalance = filieraTokenService.balanceOf(ownerMilkBatch);\n        milkhubService.updateMilkHubBalance(ownerMilkBatch, newMilkHubBalance);\n        // Aggiornamento del saldo del CheeseProducer \n        uint256 newCheeseProducerBalance = filieraTokenService.balanceOf(msg.sender);\n        cheeseProducerService.updateCheeseProducerBalance(msg.sender, newCheeseProducerBalance);\n\n        // Riduzione della quantit nel MilkHubInventory\n        uint256 currentQuantity = milkhubInventoryService.getMilkBatchQuantity(ownerMilkBatch, _id_MilkBatch);\n        milkhubInventoryService.updateMilkBatchQuantity(ownerMilkBatch, _id_MilkBatch, currentQuantity - _quantityToBuy);\n\n        // Aggiunta del MilkBatch nell'inventario del CheeseProducer\n        cheeseProducerMilkBatchService.addMilkBatch(\n            ownerMilkBatch,\n            msg.sender, \n            _id_MilkBatch,\n            milkhubInventoryService.getMilkBatchExpirationDate(ownerMilkBatch, _id_MilkBatch),\n            _quantityToBuy);\n    }\n\n\n\n\n    /**\n    * @dev Funzione per acquistare un CheeseBlock da un CheeseProducer. Questa funzione pu essere chiamata solo da un Retailer.\n    *\n    * @param ownerCheese Indirizzo del CheeseProducer che vende il CheeseBlock.\n    * @param _id_Cheese Identificativo del CheeseBlock da acquistare.\n    * @param _quantityToBuy Quantit di CheeseBlock da acquistare.\n    * @param totalPrice Prezzo totale del CheeseBlock da acquistare (espresso in FilieraToken).\n    */ \n    function BuyCheeseProduct(\n            address ownerCheese,\n            uint256 _id_Cheese,\n            uint256 _quantityToBuy,\n            uint256 totalPrice // Effettuare il calcolo dal front-End \n        ) external {\n       // Verifica degli address con controlli generici \n        require(msg.sender != address(0), \"Invalid sender address\");\n        require(ownerCheese != address(0), \"Invalid owner address\");\n        require(msg.sender != ownerCheese, \"Cannot buy from yourself\");\n        // Verfica della presenza del Prodotto \n        require(cheeseProducerInventoryService.isCheeseBlockPresent(ownerCheese, _id_Cheese), \"Product not found\");\n        // Verifica della quantit da acquistare rispetto alla quantit totale \n        require(_quantityToBuy <= cheeseProducerInventoryService.getCheeseBlockQuantity(ownerCheese, _id_Cheese), \"Invalid quantity\");\n        // Verifica del saldo dell'acquirente \n        require(filieraTokenService.balanceOf(msg.sender) >= totalPrice, \"Insufficient balance\");\n\n        // Acquisto \n        require(filieraTokenService.transferTokenBuyProduct(msg.sender, ownerCheese, totalPrice),\"Acquisto non andato a buon fine!\");\n\n        // Aggiornamento del saldo del MilkHub \n        uint256 newCheeseProducerBalance = filieraTokenService.balanceOf(ownerCheese);\n        cheeseProducerService.updateCheeseProducerBalance(ownerCheese, newCheeseProducerBalance);\n        // Aggiornamento del saldo del CheeseProducer \n        uint256 newRetailerBalance = filieraTokenService.balanceOf(msg.sender);\n        retailerService.updateRetailerBalance(msg.sender, newRetailerBalance);\n\n        // Riduzione della quantit nel MilkHubInventory\n        uint256 currentQuantity = cheeseProducerInventoryService.getCheeseBlockQuantity(ownerCheese, _id_Cheese);\n        cheeseProducerInventoryService.updateCheeseBlockQuantity(ownerCheese, _id_Cheese, currentQuantity - _quantityToBuy);\n\n        // Aggiunta del MilkBatch nell'inventario del CheeseProducer\n        retailerCheeseBlockService.addCheeseBlock(\n            ownerCheese,\n            msg.sender, \n            _id_Cheese,\n            cheeseProducerInventoryService.getDop(ownerCheese, _id_Cheese),\n            _quantityToBuy);\n    }\n\n\n\n    /**\n     * @dev Funzione per acquistare un CheesePiece da un Retailer. Questa funzione pu essere chiamata solo da un Consumer.\n     *\n     * @param ownerCheesePiece Indirizzo del Retailer che vende il CheesePiece.\n     * @param _id_CheesePiece Identificativo del CheesePiece da acquistare.\n     * @param _quantityToBuy Quantit di CheesePiece da acquistare (espressa in grammi).\n     * @param totalPrice Prezzo totale del CheesePiece da acquistare (espresso in FilieraToken).\n     */ \n    function BuyCheesePieceProduct(\n        address ownerCheesePiece,\n        uint256 _id_CheesePiece,\n        uint256 _quantityToBuy,\n        uint256 totalPrice) external {\n        \n        // Verifica degli address con controlli generici \n        require(msg.sender != address(0), \"Invalid sender address\");\n        require(ownerCheesePiece != address(0), \"Invalid owner address\");\n        require(msg.sender != ownerCheesePiece, \"Cannot buy from yourself\");\n        // Verfica della presenza del Prodotto \n        require(retailerInventoryService.isCheesePiecePresent(ownerCheesePiece, _id_CheesePiece), \"Product not found\");\n        // Verifica della quantit da acquistare rispetto alla quantit totale \n        require(_quantityToBuy <= retailerInventoryService.getWeight(ownerCheesePiece, _id_CheesePiece), \"Invalid quantity\");\n        // Verifica del saldo dell'acquirente \n        require(filieraTokenService.balanceOf(msg.sender) >= totalPrice, \"Insufficient balance\");\n\n        // Acquisto \n        require(filieraTokenService.transferTokenBuyProduct(msg.sender, ownerCheesePiece, totalPrice),\"Acquisto non andato a buon fine!\");\n\n        // Aggiornamento del saldo del Retailer\n        uint256 newRetailerBalance = filieraTokenService.balanceOf(ownerCheesePiece);\n        retailerService.updateRetailerBalance(ownerCheesePiece, newRetailerBalance);\n        // Aggiornamento del saldo del Consumer \n        uint256 newConsumerBalance = filieraTokenService.balanceOf(msg.sender);\n        consumerService.updateConsumerBalance(msg.sender, newConsumerBalance);\n\n        // Riduzione della quantit nel MilkHubInventory\n        uint256 currentQuantity = retailerInventoryService.getWeight(ownerCheesePiece, _id_CheesePiece);\n        retailerInventoryService.updateWeight(ownerCheesePiece, _id_CheesePiece, currentQuantity - _quantityToBuy);\n\n\n        // Aggiunta del MilkBatch nell'inventario del CheeseProducer\n        consumerBuyerInventoryService.addCheesePiece(\n            ownerCheesePiece,\n            msg.sender, \n            _id_CheesePiece,\n            retailerInventoryService.getPrice(ownerCheesePiece, _id_CheesePiece),\n            _quantityToBuy);\n    }\n\n\n}",
  "sourcePath": "/home/leone-pc/Documenti/GitHub/FilieraToken/Filiera-Token-Smart-Contract/contracts/Service/TransactionManager.sol",
  "compiler": {
    "name": "solc",
    "version": "0.8.24+commit.e11b9ed9.Emscripten.clang"
  },
  "schemaVersion": "3.4.16",
  "updatedAt": "2024-02-27T23:21:51.474Z",
  "devdoc": {
    "kind": "dev",
    "methods": {
      "BuyCheesePieceProduct(address,uint256,uint256,uint256)": {
        "details": "Funzione per acquistare un CheesePiece da un Retailer. Questa funzione pu essere chiamata solo da un Consumer.",
        "params": {
          "_id_CheesePiece": "Identificativo del CheesePiece da acquistare.",
          "_quantityToBuy": "Quantit di CheesePiece da acquistare (espressa in grammi).",
          "ownerCheesePiece": "Indirizzo del Retailer che vende il CheesePiece.",
          "totalPrice": "Prezzo totale del CheesePiece da acquistare (espresso in FilieraToken)."
        }
      },
      "BuyCheeseProduct(address,uint256,uint256,uint256)": {
        "details": "Funzione per acquistare un CheeseBlock da un CheeseProducer. Questa funzione pu essere chiamata solo da un Retailer.",
        "params": {
          "_id_Cheese": "Identificativo del CheeseBlock da acquistare.",
          "_quantityToBuy": "Quantit di CheeseBlock da acquistare.",
          "ownerCheese": "Indirizzo del CheeseProducer che vende il CheeseBlock.",
          "totalPrice": "Prezzo totale del CheeseBlock da acquistare (espresso in FilieraToken)."
        }
      },
      "BuyMilkBatchProduct(address,uint256,uint256,uint256)": {
        "details": "Funzione per acquistare un MilkBatch da un MilkHub. Questa funzione pu essere chiamata solo da un CheeseProducer.",
        "params": {
          "_id_MilkBatch": "Identificativo del MilkBatch da acquistare.",
          "_quantityToBuy": "Quantit di MilkBatch da acquistare.",
          "ownerMilkBatch": "Indirizzo del MilkHub che vende il MilkBatch.",
          "totalPrice": "Prezzo totale del MilkBatch da acquistare (espresso in FilieraToken)."
        }
      },
      "constructor": {
        "details": "Costruttore del contratto TransactionManager. ",
        "params": {
          "_cheeseProducerInventoryService": "Indirizzo del contratto CheeseProducerInventoryService.",
          "_cheeseProducerMilkBatchServiceAddress": "Indirizzo del contratto CheeseProducerBuyerService. ",
          "_cheeseProducerService": "Indirizzo del contratto CheeseProducerService.",
          "_consumerBuyerInventoryService": "Indirizzo del contratto ConsumerBuyerInventoryService.",
          "_consumerService": "Indirizzo del contratto ConsumerService. ",
          "_filieraToken": "Indirizzo del contratto FilieraToken.",
          "_milkhubInventoryServiceAddress": "Indirizzo del contratto MilkHubInventoryService.",
          "_milkhubService": "Indirizzo del contratto MilkHubService.",
          "_retailerCheeseBlockService": "Indirizzo del contratto RetailerBuyerService. ",
          "_retailerInventoryService": "Indirizzo del contratto RetailerInventoryService.",
          "_retailerService": "Indirizzo del contratto RetailerService."
        }
      }
    },
    "version": 1
  },
  "userdoc": {
    "kind": "user",
    "methods": {},
    "version": 1
  }
}