{
  "contractName": "TransactionMilkBatchProductService",
  "abi": [
    {
      "inputs": [
        {
          "internalType": "address",
          "name": "_filieraToken",
          "type": "address"
        },
        {
          "internalType": "address",
          "name": "_milkhubService",
          "type": "address"
        },
        {
          "internalType": "address",
          "name": "_cheeseProducerService",
          "type": "address"
        },
        {
          "internalType": "address",
          "name": "_milkhubInventoryServiceAddress",
          "type": "address"
        },
        {
          "internalType": "address",
          "name": "_cheeseProducerMilkBatchServiceAddress",
          "type": "address"
        }
      ],
      "stateMutability": "nonpayable",
      "type": "constructor"
    },
    {
      "inputs": [
        {
          "internalType": "address",
          "name": "buyer",
          "type": "address"
        },
        {
          "internalType": "address",
          "name": "ownerMilkBatch",
          "type": "address"
        },
        {
          "internalType": "uint256",
          "name": "_id_MilkBatch",
          "type": "uint256"
        },
        {
          "internalType": "uint256",
          "name": "_quantityToBuy",
          "type": "uint256"
        },
        {
          "internalType": "uint256",
          "name": "totalPrice",
          "type": "uint256"
        }
      ],
      "name": "BuyMilkBatchProduct",
      "outputs": [],
      "stateMutability": "nonpayable",
      "type": "function"
    }
  ],
  "bytecode": "0x60806040523480156200001157600080fd5b50604051620014f2380380620014f28339818101604052810190620000379190620001f0565b846000806101000a81548173ffffffffffffffffffffffffffffffffffffffff021916908373ffffffffffffffffffffffffffffffffffffffff16021790555083600160006101000a81548173ffffffffffffffffffffffffffffffffffffffff021916908373ffffffffffffffffffffffffffffffffffffffff16021790555082600260006101000a81548173ffffffffffffffffffffffffffffffffffffffff021916908373ffffffffffffffffffffffffffffffffffffffff16021790555081600360006101000a81548173ffffffffffffffffffffffffffffffffffffffff021916908373ffffffffffffffffffffffffffffffffffffffff16021790555080600460006101000a81548173ffffffffffffffffffffffffffffffffffffffff021916908373ffffffffffffffffffffffffffffffffffffffff160217905550505050505062000278565b600080fd5b600073ffffffffffffffffffffffffffffffffffffffff82169050919050565b6000620001b8826200018b565b9050919050565b620001ca81620001ab565b8114620001d657600080fd5b50565b600081519050620001ea81620001bf565b92915050565b600080600080600060a086880312156200020f576200020e62000186565b5b60006200021f88828901620001d9565b95505060206200023288828901620001d9565b94505060406200024588828901620001d9565b93505060606200025888828901620001d9565b92505060806200026b88828901620001d9565b9150509295509295909350565b61126a80620002886000396000f3fe608060405234801561001057600080fd5b506004361061002b5760003560e01c8063b28d4ff614610030575b600080fd5b61004a60048036038101906100459190610a92565b61004c565b005b600073ffffffffffffffffffffffffffffffffffffffff168573ffffffffffffffffffffffffffffffffffffffff16036100bb576040517f08c379a00000000000000000000000000000000000000000000000000000000081526004016100b290610b6a565b60405180910390fd5b600073ffffffffffffffffffffffffffffffffffffffff168473ffffffffffffffffffffffffffffffffffffffff160361012a576040517f08c379a000000000000000000000000000000000000000000000000000000000815260040161012190610bd6565b60405180910390fd5b8373ffffffffffffffffffffffffffffffffffffffff168573ffffffffffffffffffffffffffffffffffffffff1603610198576040517f08c379a000000000000000000000000000000000000000000000000000000000815260040161018f90610c42565b60405180910390fd5b600360009054906101000a900473ffffffffffffffffffffffffffffffffffffffff1673ffffffffffffffffffffffffffffffffffffffff166302d805f685856040518363ffffffff1660e01b81526004016101f5929190610c80565b602060405180830381865afa158015610212573d6000803e3d6000fd5b505050506040513d601f19601f820116820180604052508101906102369190610ce1565b610275576040517f08c379a000000000000000000000000000000000000000000000000000000000815260040161026c90610d5a565b60405180910390fd5b600360009054906101000a900473ffffffffffffffffffffffffffffffffffffffff1673ffffffffffffffffffffffffffffffffffffffff16636fb6c96e85856040518363ffffffff1660e01b81526004016102d2929190610c80565b602060405180830381865afa1580156102ef573d6000803e3d6000fd5b505050506040513d601f19601f820116820180604052508101906103139190610d8f565b821115610355576040517f08c379a000000000000000000000000000000000000000000000000000000000815260040161034c90610e08565b60405180910390fd5b8060008054906101000a900473ffffffffffffffffffffffffffffffffffffffff1673ffffffffffffffffffffffffffffffffffffffff166370a08231876040518263ffffffff1660e01b81526004016103af9190610e28565b602060405180830381865afa1580156103cc573d6000803e3d6000fd5b505050506040513d601f19601f820116820180604052508101906103f09190610d8f565b1015610431576040517f08c379a000000000000000000000000000000000000000000000000000000000815260040161042890610e8f565b60405180910390fd5b60008054906101000a900473ffffffffffffffffffffffffffffffffffffffff1673ffffffffffffffffffffffffffffffffffffffff16632901a50d8686846040518463ffffffff1660e01b815260040161048e93929190610eaf565b6020604051808303816000875af11580156104ad573d6000803e3d6000fd5b505050506040513d601f19601f820116820180604052508101906104d19190610ce1565b610510576040517f08c379a000000000000000000000000000000000000000000000000000000000815260040161050790610f32565b60405180910390fd5b60008060009054906101000a900473ffffffffffffffffffffffffffffffffffffffff1673ffffffffffffffffffffffffffffffffffffffff166370a08231866040518263ffffffff1660e01b815260040161056c9190610e28565b602060405180830381865afa158015610589573d6000803e3d6000fd5b505050506040513d601f19601f820116820180604052508101906105ad9190610d8f565b9050600160009054906101000a900473ffffffffffffffffffffffffffffffffffffffff1673ffffffffffffffffffffffffffffffffffffffff1663a3bc4bb586836040518363ffffffff1660e01b815260040161060c929190610c80565b600060405180830381600087803b15801561062657600080fd5b505af115801561063a573d6000803e3d6000fd5b5050505060008060009054906101000a900473ffffffffffffffffffffffffffffffffffffffff1673ffffffffffffffffffffffffffffffffffffffff166370a08231886040518263ffffffff1660e01b815260040161069a9190610e28565b602060405180830381865afa1580156106b7573d6000803e3d6000fd5b505050506040513d601f19601f820116820180604052508101906106db9190610d8f565b9050600260009054906101000a900473ffffffffffffffffffffffffffffffffffffffff1673ffffffffffffffffffffffffffffffffffffffff1663f5d5359f88836040518363ffffffff1660e01b815260040161073a929190610c80565b600060405180830381600087803b15801561075457600080fd5b505af1158015610768573d6000803e3d6000fd5b505050506000600360009054906101000a900473ffffffffffffffffffffffffffffffffffffffff1673ffffffffffffffffffffffffffffffffffffffff16636fb6c96e88886040518363ffffffff1660e01b81526004016107cb929190610c80565b602060405180830381865afa1580156107e8573d6000803e3d6000fd5b505050506040513d601f19601f8201168201806040525081019061080c9190610d8f565b9050600360009054906101000a900473ffffffffffffffffffffffffffffffffffffffff1673ffffffffffffffffffffffffffffffffffffffff1663cb6f5eee8888888561085a9190610f81565b6040518463ffffffff1660e01b815260040161087893929190610fb5565b600060405180830381600087803b15801561089257600080fd5b505af11580156108a6573d6000803e3d6000fd5b50505050600460009054906101000a900473ffffffffffffffffffffffffffffffffffffffff1673ffffffffffffffffffffffffffffffffffffffff1663dd937b01888a89600360009054906101000a900473ffffffffffffffffffffffffffffffffffffffff1673ffffffffffffffffffffffffffffffffffffffff1662ef18628d8d6040518363ffffffff1660e01b8152600401610947929190610c80565b600060405180830381865afa158015610964573d6000803e3d6000fd5b505050506040513d6000823e3d601f19601f8201168201806040525081019061098d919061114d565b8a6040518663ffffffff1660e01b81526004016109ae9594939291906111da565b600060405180830381600087803b1580156109c857600080fd5b505af11580156109dc573d6000803e3d6000fd5b505050505050505050505050565b6000604051905090565b600080fd5b600080fd5b600073ffffffffffffffffffffffffffffffffffffffff82169050919050565b6000610a29826109fe565b9050919050565b610a3981610a1e565b8114610a4457600080fd5b50565b600081359050610a5681610a30565b92915050565b6000819050919050565b610a6f81610a5c565b8114610a7a57600080fd5b50565b600081359050610a8c81610a66565b92915050565b600080600080600060a08688031215610aae57610aad6109f4565b5b6000610abc88828901610a47565b9550506020610acd88828901610a47565b9450506040610ade88828901610a7d565b9350506060610aef88828901610a7d565b9250506080610b0088828901610a7d565b9150509295509295909350565b600082825260208201905092915050565b7f496e76616c69642073656e646572206164647265737300000000000000000000600082015250565b6000610b54601683610b0d565b9150610b5f82610b1e565b602082019050919050565b60006020820190508181036000830152610b8381610b47565b9050919050565b7f496e76616c6964206f776e657220616464726573730000000000000000000000600082015250565b6000610bc0601583610b0d565b9150610bcb82610b8a565b602082019050919050565b60006020820190508181036000830152610bef81610bb3565b9050919050565b7f43616e6e6f74206275792066726f6d20796f757273656c660000000000000000600082015250565b6000610c2c601883610b0d565b9150610c3782610bf6565b602082019050919050565b60006020820190508181036000830152610c5b81610c1f565b9050919050565b610c6b81610a1e565b82525050565b610c7a81610a5c565b82525050565b6000604082019050610c956000830185610c62565b610ca26020830184610c71565b9392505050565b60008115159050919050565b610cbe81610ca9565b8114610cc957600080fd5b50565b600081519050610cdb81610cb5565b92915050565b600060208284031215610cf757610cf66109f4565b5b6000610d0584828501610ccc565b91505092915050565b7f50726f64756374206e6f7420666f756e64000000000000000000000000000000600082015250565b6000610d44601183610b0d565b9150610d4f82610d0e565b602082019050919050565b60006020820190508181036000830152610d7381610d37565b9050919050565b600081519050610d8981610a66565b92915050565b600060208284031215610da557610da46109f4565b5b6000610db384828501610d7a565b91505092915050565b7f496e76616c6964207175616e7469747900000000000000000000000000000000600082015250565b6000610df2601083610b0d565b9150610dfd82610dbc565b602082019050919050565b60006020820190508181036000830152610e2181610de5565b9050919050565b6000602082019050610e3d6000830184610c62565b92915050565b7f496e73756666696369656e742062616c616e6365000000000000000000000000600082015250565b6000610e79601483610b0d565b9150610e8482610e43565b602082019050919050565b60006020820190508181036000830152610ea881610e6c565b9050919050565b6000606082019050610ec46000830186610c62565b610ed16020830185610c62565b610ede6040830184610c71565b949350505050565b7f416371756973746f206e6f6e20616e6461746f20612062756f6e2066696e6521600082015250565b6000610f1c602083610b0d565b9150610f2782610ee6565b602082019050919050565b60006020820190508181036000830152610f4b81610f0f565b9050919050565b7f4e487b7100000000000000000000000000000000000000000000000000000000600052601160045260246000fd5b6000610f8c82610a5c565b9150610f9783610a5c565b9250828203905081811115610faf57610fae610f52565b5b92915050565b6000606082019050610fca6000830186610c62565b610fd76020830185610c71565b610fe46040830184610c71565b949350505050565b600080fd5b600080fd5b6000601f19601f8301169050919050565b7f4e487b7100000000000000000000000000000000000000000000000000000000600052604160045260246000fd5b61103f82610ff6565b810181811067ffffffffffffffff8211171561105e5761105d611007565b5b80604052505050565b60006110716109ea565b905061107d8282611036565b919050565b600067ffffffffffffffff82111561109d5761109c611007565b5b6110a682610ff6565b9050602081019050919050565b60005b838110156110d15780820151818401526020810190506110b6565b60008484015250505050565b60006110f06110eb84611082565b611067565b90508281526020810184848401111561110c5761110b610ff1565b5b6111178482856110b3565b509392505050565b600082601f83011261113457611133610fec565b5b81516111448482602086016110dd565b91505092915050565b600060208284031215611163576111626109f4565b5b600082015167ffffffffffffffff811115611181576111806109f9565b5b61118d8482850161111f565b91505092915050565b600081519050919050565b60006111ac82611196565b6111b68185610b0d565b93506111c68185602086016110b3565b6111cf81610ff6565b840191505092915050565b600060a0820190506111ef6000830188610c62565b6111fc6020830187610c62565b6112096040830186610c71565b818103606083015261121b81856111a1565b905061122a6080830184610c71565b969550505050505056fea264697066735822122076c8030c6415eef71cfe1e3fc881227ecc51e3788178664eb31dabcdf533995364736f6c63430008180033",
  "immutableReferences": {},
  "source": "// SPDX-License-Identifier: MIT\r\n\r\npragma solidity ^0.8.21;\r\n\r\nimport \"./Filieratoken.sol\";\r\n\r\n// Service \r\nimport \"../Actor/CheeseProducer-smart-contract/CheeseProducerService.sol\";\r\nimport \"../Actor/MilkHub-smart-contract/MilkHubService.sol\";\r\n\r\n\r\n// Inventory Service \r\nimport \"../Actor/MilkHub-smart-contract/inventory/MilkHubInventoryService.sol\";\r\nimport \"../Actor/CheeseProducer-smart-contract/inventory/CheeseProducerBuyerService.sol\";\r\n\r\n\r\n\r\ncontract TransactionMilkBatchProductService {\r\n\r\n    // **Main Services**\r\n\r\n    // Address of the FilieraToken contract.\r\n    Filieratoken private filieraTokenService;\r\n\r\n    // Addresses of the service contracts for each actor in the supply chain.\r\n    MilkHubService private milkhubService;    // Address of the MilkHubService contract.\r\n    CheeseProducerService private cheeseProducerService; // Address of the CheeseProducerService contract.\r\n    // **Inventory Services**\r\n\r\n    // Service contracts for managing inventory for each actor and product stage.\r\n\r\n    // MilkHub - Contains MilkBatch (product sold by MilkHub).\r\n    MilkHubInventoryService private milkhubInventoryService;\r\n\r\n    // CheeseProducer - Contains MilkBatch (product bought by CheeseProducer).\r\n    CheeseProducerBuyerService private cheeseProducerMilkBatchService;\r\n\r\n\r\n        /**\r\n     * @dev Costruttore del contratto TransactionManager.\r\n     * \r\n     * @param _filieraToken Indirizzo del contratto FilieraToken.\r\n     * @param _milkhubService Indirizzo del contratto MilkHubService.\r\n     * @param _cheeseProducerService Indirizzo del contratto CheeseProducerService.\r\n     * \r\n     * @param _milkhubInventoryServiceAddress Indirizzo del contratto MilkHubInventoryService.\r\n     * @param _cheeseProducerMilkBatchServiceAddress Indirizzo del contratto CheeseProducerBuyerService.\r\n     * \r\n     * \r\n     */\r\n    constructor(\r\n        address _filieraToken,\r\n\r\n        address _milkhubService,\r\n        address _cheeseProducerService,\r\n\r\n        address _milkhubInventoryServiceAddress,\r\n        address _cheeseProducerMilkBatchServiceAddress\r\n        ){\r\n        // Filiera Token Service \r\n        filieraTokenService = Filieratoken(_filieraToken);\r\n\r\n        \r\n\r\n        // Main Service \r\n\r\n        milkhubService = MilkHubService(_milkhubService);\r\n        cheeseProducerService = CheeseProducerService(_cheeseProducerService);\r\n        \r\n        // Inventory Service \r\n        milkhubInventoryService = MilkHubInventoryService(_milkhubInventoryServiceAddress);\r\n        cheeseProducerMilkBatchService = CheeseProducerBuyerService(_cheeseProducerMilkBatchServiceAddress);\r\n    }\r\n\r\n    /**\r\n     * @dev Funzione per acquistare un MilkBatch da un MilkHub. Questa funzione pu essere chiamata solo da un CheeseProducer.\r\n     *\r\n     * @param ownerMilkBatch Indirizzo del MilkHub che vende il MilkBatch.\r\n     * @param _id_MilkBatch Identificativo del MilkBatch da acquistare.\r\n     * @param _quantityToBuy Quantit di MilkBatch da acquistare.\r\n     * @param totalPrice Prezzo totale del MilkBatch da acquistare (espresso in FilieraToken).\r\n     */\r\n    function BuyMilkBatchProduct(\r\n        address buyer,\r\n        address ownerMilkBatch,\r\n        uint256 _id_MilkBatch,\r\n        uint256 _quantityToBuy,\r\n        uint256 totalPrice)\r\n         external {\r\n\r\n        // Verifica degli address con controlli generici \r\n        require(buyer != address(0), \"Invalid sender address\");\r\n        require(ownerMilkBatch != address(0), \"Invalid owner address\");\r\n        require(buyer != ownerMilkBatch, \"Cannot buy from yourself\");\r\n        // Verfica della presenza del Prodotto \r\n        require(milkhubInventoryService.isMilkBatchPresent(ownerMilkBatch, _id_MilkBatch), \"Product not found\");\r\n        // Verifica della quantit da acquistare rispetto alla quantit totale \r\n        require(_quantityToBuy <= milkhubInventoryService.getMilkBatchQuantity(ownerMilkBatch, _id_MilkBatch), \"Invalid quantity\");\r\n        // Verifica del saldo dell'acquirente \r\n        require(filieraTokenService.balanceOf(buyer) >= totalPrice, \"Insufficient balance\");\r\n\r\n        // Acquisto \r\n        require(filieraTokenService.transferTokenBuyProduct(buyer, ownerMilkBatch, totalPrice),\"Acquisto non andato a buon fine!\");\r\n\r\n        // Aggiornamento del saldo del MilkHub \r\n        uint256 newMilkHubBalance = filieraTokenService.balanceOf(ownerMilkBatch);\r\n        milkhubService.updateMilkHubBalance(ownerMilkBatch, newMilkHubBalance);\r\n        // Aggiornamento del saldo del CheeseProducer \r\n        uint256 newCheeseProducerBalance = filieraTokenService.balanceOf(buyer);\r\n        cheeseProducerService.updateCheeseProducerBalance(buyer, newCheeseProducerBalance);\r\n\r\n        // Riduzione della quantit nel MilkHubInventory\r\n        uint256 currentQuantity = milkhubInventoryService.getMilkBatchQuantity(ownerMilkBatch, _id_MilkBatch);\r\n        milkhubInventoryService.updateMilkBatchQuantity(ownerMilkBatch, _id_MilkBatch, currentQuantity - _quantityToBuy);\r\n\r\n        // Aggiunta del MilkBatch nell'inventario del CheeseProducer\r\n        cheeseProducerMilkBatchService.addMilkBatch(\r\n            ownerMilkBatch,\r\n            buyer, \r\n            _id_MilkBatch,\r\n            milkhubInventoryService.getMilkBatchExpirationDate(ownerMilkBatch, _id_MilkBatch),\r\n            _quantityToBuy);\r\n    }\r\n\r\n\r\n}",
  "sourcePath": "C:\\Users\\umber\\Progetti\\FilieraToken\\Filiera-Token-Smart-Contract\\contracts\\Service\\TransactionMilkBatchProductService.sol",
  "compiler": {
    "name": "solc",
    "version": "0.8.24+commit.e11b9ed9.Emscripten.clang"
  },
  "schemaVersion": "3.4.16",
  "updatedAt": "2024-03-03T13:48:04.206Z",
  "devdoc": {
    "kind": "dev",
    "methods": {
      "BuyMilkBatchProduct(address,address,uint256,uint256,uint256)": {
        "details": "Funzione per acquistare un MilkBatch da un MilkHub. Questa funzione pu essere chiamata solo da un CheeseProducer.",
        "params": {
          "_id_MilkBatch": "Identificativo del MilkBatch da acquistare.",
          "_quantityToBuy": "Quantit di MilkBatch da acquistare.",
          "ownerMilkBatch": "Indirizzo del MilkHub che vende il MilkBatch.",
          "totalPrice": "Prezzo totale del MilkBatch da acquistare (espresso in FilieraToken)."
        }
      },
      "constructor": {
        "details": "Costruttore del contratto TransactionManager. ",
        "params": {
          "_cheeseProducerMilkBatchServiceAddress": "Indirizzo del contratto CheeseProducerBuyerService.  ",
          "_cheeseProducerService": "Indirizzo del contratto CheeseProducerService. ",
          "_filieraToken": "Indirizzo del contratto FilieraToken.",
          "_milkhubInventoryServiceAddress": "Indirizzo del contratto MilkHubInventoryService.",
          "_milkhubService": "Indirizzo del contratto MilkHubService."
        }
      }
    },
    "version": 1
  },
  "userdoc": {
    "kind": "user",
    "methods": {},
    "version": 1
  }
}