{
  "contractName": "TransactionCheesePieceProductService",
  "abi": [
    {
      "inputs": [
        {
          "internalType": "address",
          "name": "_filieraToken",
          "type": "address"
        },
        {
          "internalType": "address",
          "name": "_retailerService",
          "type": "address"
        },
        {
          "internalType": "address",
          "name": "_consumerService",
          "type": "address"
        },
        {
          "internalType": "address",
          "name": "_retailerInventoryService",
          "type": "address"
        },
        {
          "internalType": "address",
          "name": "_consumerBuyerService",
          "type": "address"
        }
      ],
      "stateMutability": "nonpayable",
      "type": "constructor"
    },
    {
      "inputs": [
        {
          "internalType": "address",
          "name": "buyer",
          "type": "address"
        },
        {
          "internalType": "address",
          "name": "ownerCheesePiece",
          "type": "address"
        },
        {
          "internalType": "uint256",
          "name": "_id_CheesePiece",
          "type": "uint256"
        },
        {
          "internalType": "uint256",
          "name": "_quantityToBuy",
          "type": "uint256"
        },
        {
          "internalType": "uint256",
          "name": "totalPrice",
          "type": "uint256"
        }
      ],
      "name": "BuyCheesePieceProduct",
      "outputs": [],
      "stateMutability": "nonpayable",
      "type": "function"
    }
  ],
  "bytecode": "0x60806040523480156200001157600080fd5b50604051620012ea380380620012ea8339818101604052810190620000379190620001f0565b846000806101000a81548173ffffffffffffffffffffffffffffffffffffffff021916908373ffffffffffffffffffffffffffffffffffffffff16021790555083600160006101000a81548173ffffffffffffffffffffffffffffffffffffffff021916908373ffffffffffffffffffffffffffffffffffffffff16021790555082600260006101000a81548173ffffffffffffffffffffffffffffffffffffffff021916908373ffffffffffffffffffffffffffffffffffffffff16021790555081600360006101000a81548173ffffffffffffffffffffffffffffffffffffffff021916908373ffffffffffffffffffffffffffffffffffffffff16021790555080600460006101000a81548173ffffffffffffffffffffffffffffffffffffffff021916908373ffffffffffffffffffffffffffffffffffffffff160217905550505050505062000278565b600080fd5b600073ffffffffffffffffffffffffffffffffffffffff82169050919050565b6000620001b8826200018b565b9050919050565b620001ca81620001ab565b8114620001d657600080fd5b50565b600081519050620001ea81620001bf565b92915050565b600080600080600060a086880312156200020f576200020e62000186565b5b60006200021f88828901620001d9565b95505060206200023288828901620001d9565b94505060406200024588828901620001d9565b93505060606200025888828901620001d9565b92505060806200026b88828901620001d9565b9150509295509295909350565b61106280620002886000396000f3fe608060405234801561001057600080fd5b506004361061002b5760003560e01c8063b8016c7014610030575b600080fd5b61004a60048036038101906100459190610a7f565b61004c565b005b600073ffffffffffffffffffffffffffffffffffffffff168573ffffffffffffffffffffffffffffffffffffffff16036100bb576040517f08c379a00000000000000000000000000000000000000000000000000000000081526004016100b290610b57565b60405180910390fd5b600073ffffffffffffffffffffffffffffffffffffffff168473ffffffffffffffffffffffffffffffffffffffff160361012a576040517f08c379a000000000000000000000000000000000000000000000000000000000815260040161012190610bc3565b60405180910390fd5b8373ffffffffffffffffffffffffffffffffffffffff168573ffffffffffffffffffffffffffffffffffffffff1603610198576040517f08c379a000000000000000000000000000000000000000000000000000000000815260040161018f90610c2f565b60405180910390fd5b600360009054906101000a900473ffffffffffffffffffffffffffffffffffffffff1673ffffffffffffffffffffffffffffffffffffffff16639bc7c21c85856040518363ffffffff1660e01b81526004016101f5929190610c6d565b602060405180830381865afa158015610212573d6000803e3d6000fd5b505050506040513d601f19601f820116820180604052508101906102369190610cce565b610275576040517f08c379a000000000000000000000000000000000000000000000000000000000815260040161026c90610d47565b60405180910390fd5b600360009054906101000a900473ffffffffffffffffffffffffffffffffffffffff1673ffffffffffffffffffffffffffffffffffffffff1663afd47d3e85856040518363ffffffff1660e01b81526004016102d2929190610c6d565b602060405180830381865afa1580156102ef573d6000803e3d6000fd5b505050506040513d601f19601f820116820180604052508101906103139190610d7c565b821115610355576040517f08c379a000000000000000000000000000000000000000000000000000000000815260040161034c90610df5565b60405180910390fd5b8060008054906101000a900473ffffffffffffffffffffffffffffffffffffffff1673ffffffffffffffffffffffffffffffffffffffff166370a08231336040518263ffffffff1660e01b81526004016103af9190610e15565b602060405180830381865afa1580156103cc573d6000803e3d6000fd5b505050506040513d601f19601f820116820180604052508101906103f09190610d7c565b1015610431576040517f08c379a000000000000000000000000000000000000000000000000000000000815260040161042890610e7c565b60405180910390fd5b60008054906101000a900473ffffffffffffffffffffffffffffffffffffffff1673ffffffffffffffffffffffffffffffffffffffff16632901a50d8686846040518463ffffffff1660e01b815260040161048e93929190610e9c565b6020604051808303816000875af11580156104ad573d6000803e3d6000fd5b505050506040513d601f19601f820116820180604052508101906104d19190610cce565b610510576040517f08c379a000000000000000000000000000000000000000000000000000000000815260040161050790610f1f565b60405180910390fd5b60008060009054906101000a900473ffffffffffffffffffffffffffffffffffffffff1673ffffffffffffffffffffffffffffffffffffffff166370a08231866040518263ffffffff1660e01b815260040161056c9190610e15565b602060405180830381865afa158015610589573d6000803e3d6000fd5b505050506040513d601f19601f820116820180604052508101906105ad9190610d7c565b9050600160009054906101000a900473ffffffffffffffffffffffffffffffffffffffff1673ffffffffffffffffffffffffffffffffffffffff16638b58007e86836040518363ffffffff1660e01b815260040161060c929190610c6d565b600060405180830381600087803b15801561062657600080fd5b505af115801561063a573d6000803e3d6000fd5b5050505060008060009054906101000a900473ffffffffffffffffffffffffffffffffffffffff1673ffffffffffffffffffffffffffffffffffffffff166370a08231336040518263ffffffff1660e01b815260040161069a9190610e15565b602060405180830381865afa1580156106b7573d6000803e3d6000fd5b505050506040513d601f19601f820116820180604052508101906106db9190610d7c565b9050600260009054906101000a900473ffffffffffffffffffffffffffffffffffffffff1673ffffffffffffffffffffffffffffffffffffffff166384ebbea088836040518363ffffffff1660e01b815260040161073a929190610c6d565b600060405180830381600087803b15801561075457600080fd5b505af1158015610768573d6000803e3d6000fd5b505050506000600360009054906101000a900473ffffffffffffffffffffffffffffffffffffffff1673ffffffffffffffffffffffffffffffffffffffff1663afd47d3e88886040518363ffffffff1660e01b81526004016107cb929190610c6d565b602060405180830381865afa1580156107e8573d6000803e3d6000fd5b505050506040513d601f19601f8201168201806040525081019061080c9190610d7c565b9050600360009054906101000a900473ffffffffffffffffffffffffffffffffffffffff1673ffffffffffffffffffffffffffffffffffffffff16635e523adb8888888561085a9190610f6e565b6040518463ffffffff1660e01b815260040161087893929190610fa2565b600060405180830381600087803b15801561089257600080fd5b505af11580156108a6573d6000803e3d6000fd5b50505050600460009054906101000a900473ffffffffffffffffffffffffffffffffffffffff1673ffffffffffffffffffffffffffffffffffffffff1663210744cf888a89600360009054906101000a900473ffffffffffffffffffffffffffffffffffffffff1673ffffffffffffffffffffffffffffffffffffffff1663449e815d8d8d6040518363ffffffff1660e01b8152600401610948929190610c6d565b602060405180830381865afa158015610965573d6000803e3d6000fd5b505050506040513d601f19601f820116820180604052508101906109899190610d7c565b8a6040518663ffffffff1660e01b81526004016109aa959493929190610fd9565b600060405180830381600087803b1580156109c457600080fd5b505af11580156109d8573d6000803e3d6000fd5b505050505050505050505050565b600080fd5b600073ffffffffffffffffffffffffffffffffffffffff82169050919050565b6000610a16826109eb565b9050919050565b610a2681610a0b565b8114610a3157600080fd5b50565b600081359050610a4381610a1d565b92915050565b6000819050919050565b610a5c81610a49565b8114610a6757600080fd5b50565b600081359050610a7981610a53565b92915050565b600080600080600060a08688031215610a9b57610a9a6109e6565b5b6000610aa988828901610a34565b9550506020610aba88828901610a34565b9450506040610acb88828901610a6a565b9350506060610adc88828901610a6a565b9250506080610aed88828901610a6a565b9150509295509295909350565b600082825260208201905092915050565b7f496e76616c69642073656e646572206164647265737300000000000000000000600082015250565b6000610b41601683610afa565b9150610b4c82610b0b565b602082019050919050565b60006020820190508181036000830152610b7081610b34565b9050919050565b7f496e76616c6964206f776e657220616464726573730000000000000000000000600082015250565b6000610bad601583610afa565b9150610bb882610b77565b602082019050919050565b60006020820190508181036000830152610bdc81610ba0565b9050919050565b7f43616e6e6f74206275792066726f6d20796f757273656c660000000000000000600082015250565b6000610c19601883610afa565b9150610c2482610be3565b602082019050919050565b60006020820190508181036000830152610c4881610c0c565b9050919050565b610c5881610a0b565b82525050565b610c6781610a49565b82525050565b6000604082019050610c826000830185610c4f565b610c8f6020830184610c5e565b9392505050565b60008115159050919050565b610cab81610c96565b8114610cb657600080fd5b50565b600081519050610cc881610ca2565b92915050565b600060208284031215610ce457610ce36109e6565b5b6000610cf284828501610cb9565b91505092915050565b7f50726f64756374206e6f7420666f756e64000000000000000000000000000000600082015250565b6000610d31601183610afa565b9150610d3c82610cfb565b602082019050919050565b60006020820190508181036000830152610d6081610d24565b9050919050565b600081519050610d7681610a53565b92915050565b600060208284031215610d9257610d916109e6565b5b6000610da084828501610d67565b91505092915050565b7f496e76616c6964207175616e7469747900000000000000000000000000000000600082015250565b6000610ddf601083610afa565b9150610dea82610da9565b602082019050919050565b60006020820190508181036000830152610e0e81610dd2565b9050919050565b6000602082019050610e2a6000830184610c4f565b92915050565b7f496e73756666696369656e742062616c616e6365000000000000000000000000600082015250565b6000610e66601483610afa565b9150610e7182610e30565b602082019050919050565b60006020820190508181036000830152610e9581610e59565b9050919050565b6000606082019050610eb16000830186610c4f565b610ebe6020830185610c4f565b610ecb6040830184610c5e565b949350505050565b7f416371756973746f206e6f6e20616e6461746f20612062756f6e2066696e6521600082015250565b6000610f09602083610afa565b9150610f1482610ed3565b602082019050919050565b60006020820190508181036000830152610f3881610efc565b9050919050565b7f4e487b7100000000000000000000000000000000000000000000000000000000600052601160045260246000fd5b6000610f7982610a49565b9150610f8483610a49565b9250828203905081811115610f9c57610f9b610f3f565b5b92915050565b6000606082019050610fb76000830186610c4f565b610fc46020830185610c5e565b610fd16040830184610c5e565b949350505050565b600060a082019050610fee6000830188610c4f565b610ffb6020830187610c4f565b6110086040830186610c5e565b6110156060830185610c5e565b6110226080830184610c5e565b969550505050505056fea2646970667358221220167d42b03fedcd57f4359a06b53c34f96299399277e16511ce23ce958196022264736f6c63430008180033",
  "immutableReferences": {},
  "source": "// SPDX-License-Identifier: MIT\r\n\r\npragma solidity ^0.8.21;\r\n\r\nimport \"./Filieratoken.sol\";\r\n\r\nimport \"../Actor/Retailer-smart-contract/inventory/RetailerInventoryService.sol\";\r\nimport \"../Actor/Consumer-smart-contract/inventory/ConsumerBuyerService.sol\";\r\nimport \"../Actor/Consumer-smart-contract/ConsumerService.sol\";\r\nimport \"../Actor/Retailer-smart-contract/RetailerService.sol\";\r\n\r\n\r\n\r\n\r\ncontract TransactionCheesePieceProductService {\r\n\r\n    \r\n    // **Main Services**\r\n\r\n    // Address of the FilieraToken contract.\r\n    Filieratoken private filieraTokenService;\r\n\r\n    RetailerService private retailerService;   // Address of the RetailerService contract.\r\n    ConsumerService private consumerService;   // Address of the ConsumerService contract.\r\n\r\n\r\n        // Retailer - Contains CheesePiece (product sold by Retailer).\r\n    RetailerInventoryService private retailerInventoryService;\r\n\r\n    // Consumer - Contains CheesePiece (product bought by Consumer).\r\n    ConsumerBuyerService private consumerBuyerService;\r\n\r\n\r\n        /**\r\n     * @dev Costruttore del contratto TransactionManager.\r\n     * \r\n     * @param _filieraToken Indirizzo del contratto FilieraToken.\r\n     * @param _retailerService Indirizzo del contratto RetailerService.\r\n     * @param _consumerService Indirizzo del contratto ConsumerService.\r\n     * \r\n     * @param _retailerInventoryService Indirizzo del contratto RetailerInventoryService.\r\n     * @param _consumerBuyerService Indirizzo del contratto ConsumerBuyerService.\r\n     */\r\n    constructor(\r\n        address _filieraToken,\r\n\r\n        address _retailerService,\r\n        address _consumerService,\r\n        address _retailerInventoryService,\r\n        address _consumerBuyerService\r\n\r\n        ){\r\n        // Filiera Token Service \r\n        filieraTokenService = Filieratoken(_filieraToken);\r\n\r\n        \r\n        retailerService = RetailerService(_retailerService);\r\n        consumerService = ConsumerService(_consumerService);\r\n    \r\n        retailerInventoryService = RetailerInventoryService(_retailerInventoryService);\r\n        consumerBuyerService = ConsumerBuyerService(_consumerBuyerService);\r\n    }\r\n\r\n\r\n\r\n    /**\r\n     * @dev Funzione per acquistare un CheesePiece da un Retailer. Questa funzione pu essere chiamata solo da un Consumer.\r\n     *\r\n     * @param ownerCheesePiece Indirizzo del Retailer che vende il CheesePiece.\r\n     * @param _id_CheesePiece Identificativo del CheesePiece da acquistare.\r\n     * @param _quantityToBuy Quantit di CheesePiece da acquistare (espressa in grammi).\r\n     * @param totalPrice Prezzo totale del CheesePiece da acquistare (espresso in FilieraToken).\r\n     */ \r\n    function BuyCheesePieceProduct(\r\n        address buyer,\r\n        address ownerCheesePiece,\r\n        uint256 _id_CheesePiece,\r\n        uint256 _quantityToBuy,\r\n        uint256 totalPrice) external {\r\n        \r\n        // Verifica degli address con controlli generici \r\n        require(buyer != address(0), \"Invalid sender address\");\r\n        require(ownerCheesePiece != address(0), \"Invalid owner address\");\r\n        require(buyer != ownerCheesePiece, \"Cannot buy from yourself\");\r\n        // Verfica della presenza del Prodotto \r\n        require(retailerInventoryService.isCheesePiecePresent(ownerCheesePiece, _id_CheesePiece), \"Product not found\");\r\n        // Verifica della quantit da acquistare rispetto alla quantit totale \r\n        require(_quantityToBuy <= retailerInventoryService.getWeight(ownerCheesePiece, _id_CheesePiece), \"Invalid quantity\");\r\n        // Verifica del saldo dell'acquirente \r\n        require(filieraTokenService.balanceOf(msg.sender) >= totalPrice, \"Insufficient balance\");\r\n\r\n        // Acquisto \r\n        require(filieraTokenService.transferTokenBuyProduct(buyer, ownerCheesePiece, totalPrice),\"Acquisto non andato a buon fine!\");\r\n\r\n        // Aggiornamento del saldo del Retailer\r\n        uint256 newRetailerBalance = filieraTokenService.balanceOf(ownerCheesePiece);\r\n        retailerService.updateRetailerBalance(ownerCheesePiece, newRetailerBalance);\r\n        // Aggiornamento del saldo del Consumer \r\n        uint256 newConsumerBalance = filieraTokenService.balanceOf(msg.sender);\r\n        consumerService.updateConsumerBalance(buyer, newConsumerBalance);\r\n\r\n        // Riduzione della quantit nel MilkHubInventory\r\n        uint256 currentQuantity = retailerInventoryService.getWeight(ownerCheesePiece, _id_CheesePiece);\r\n        retailerInventoryService.updateWeight(ownerCheesePiece, _id_CheesePiece, currentQuantity - _quantityToBuy);\r\n\r\n\r\n        // Aggiunta del MilkBatch nell'inventario del CheeseProducer\r\n        consumerBuyerService.addCheesePiece(\r\n            ownerCheesePiece,\r\n            buyer, \r\n            _id_CheesePiece,\r\n            retailerInventoryService.getPrice(ownerCheesePiece, _id_CheesePiece),\r\n            _quantityToBuy);\r\n    }\r\n}",
  "sourcePath": "C:\\Users\\umber\\Progetti\\FilieraToken\\Filiera-Token-Smart-Contract\\contracts\\Service\\TransactionCheesePieceProductService.sol",
  "compiler": {
    "name": "solc",
    "version": "0.8.24+commit.e11b9ed9.Emscripten.clang"
  },
  "schemaVersion": "3.4.16",
  "updatedAt": "2024-03-04T16:23:26.103Z",
  "devdoc": {
    "kind": "dev",
    "methods": {
      "BuyCheesePieceProduct(address,address,uint256,uint256,uint256)": {
        "details": "Funzione per acquistare un CheesePiece da un Retailer. Questa funzione pu essere chiamata solo da un Consumer.",
        "params": {
          "_id_CheesePiece": "Identificativo del CheesePiece da acquistare.",
          "_quantityToBuy": "Quantit di CheesePiece da acquistare (espressa in grammi).",
          "ownerCheesePiece": "Indirizzo del Retailer che vende il CheesePiece.",
          "totalPrice": "Prezzo totale del CheesePiece da acquistare (espresso in FilieraToken)."
        }
      },
      "constructor": {
        "details": "Costruttore del contratto TransactionManager. ",
        "params": {
          "_consumerBuyerService": "Indirizzo del contratto ConsumerBuyerService.",
          "_consumerService": "Indirizzo del contratto ConsumerService. ",
          "_filieraToken": "Indirizzo del contratto FilieraToken.",
          "_retailerInventoryService": "Indirizzo del contratto RetailerInventoryService.",
          "_retailerService": "Indirizzo del contratto RetailerService."
        }
      }
    },
    "version": 1
  },
  "userdoc": {
    "kind": "user",
    "methods": {},
    "version": 1
  }
}