{
  "contractName": "TransactionCheeseProductService",
  "abi": [
    {
      "inputs": [
        {
          "internalType": "address",
          "name": "_filieraToken",
          "type": "address"
        },
        {
          "internalType": "address",
          "name": "_cheeseProducerService",
          "type": "address"
        },
        {
          "internalType": "address",
          "name": "_retailerService",
          "type": "address"
        },
        {
          "internalType": "address",
          "name": "_cheeseProducerInventoryService",
          "type": "address"
        },
        {
          "internalType": "address",
          "name": "_retailerCheeseBlockService",
          "type": "address"
        }
      ],
      "stateMutability": "nonpayable",
      "type": "constructor"
    },
    {
      "inputs": [
        {
          "internalType": "address",
          "name": "ownerCheese",
          "type": "address"
        },
        {
          "internalType": "uint256",
          "name": "_id_Cheese",
          "type": "uint256"
        },
        {
          "internalType": "uint256",
          "name": "_quantityToBuy",
          "type": "uint256"
        },
        {
          "internalType": "uint256",
          "name": "totalPrice",
          "type": "uint256"
        }
      ],
      "name": "BuyCheeseProduct",
      "outputs": [],
      "stateMutability": "nonpayable",
      "type": "function"
    }
  ],
  "bytecode": "0x60806040523480156200001157600080fd5b50604051620014de380380620014de8339818101604052810190620000379190620001f0565b846000806101000a81548173ffffffffffffffffffffffffffffffffffffffff021916908373ffffffffffffffffffffffffffffffffffffffff16021790555083600160006101000a81548173ffffffffffffffffffffffffffffffffffffffff021916908373ffffffffffffffffffffffffffffffffffffffff16021790555082600260006101000a81548173ffffffffffffffffffffffffffffffffffffffff021916908373ffffffffffffffffffffffffffffffffffffffff16021790555081600360006101000a81548173ffffffffffffffffffffffffffffffffffffffff021916908373ffffffffffffffffffffffffffffffffffffffff16021790555080600460006101000a81548173ffffffffffffffffffffffffffffffffffffffff021916908373ffffffffffffffffffffffffffffffffffffffff160217905550505050505062000278565b600080fd5b600073ffffffffffffffffffffffffffffffffffffffff82169050919050565b6000620001b8826200018b565b9050919050565b620001ca81620001ab565b8114620001d657600080fd5b50565b600081519050620001ea81620001bf565b92915050565b600080600080600060a086880312156200020f576200020e62000186565b5b60006200021f88828901620001d9565b95505060206200023288828901620001d9565b94505060406200024588828901620001d9565b93505060606200025888828901620001d9565b92505060806200026b88828901620001d9565b9150509295509295909350565b61125680620002886000396000f3fe608060405234801561001057600080fd5b506004361061002b5760003560e01c8063541c7d6f14610030575b600080fd5b61004a60048036038101906100459190610a92565b61004c565b005b600073ffffffffffffffffffffffffffffffffffffffff163373ffffffffffffffffffffffffffffffffffffffff16036100bb576040517f08c379a00000000000000000000000000000000000000000000000000000000081526004016100b290610b56565b60405180910390fd5b600073ffffffffffffffffffffffffffffffffffffffff168473ffffffffffffffffffffffffffffffffffffffff160361012a576040517f08c379a000000000000000000000000000000000000000000000000000000000815260040161012190610bc2565b60405180910390fd5b8373ffffffffffffffffffffffffffffffffffffffff163373ffffffffffffffffffffffffffffffffffffffff1603610198576040517f08c379a000000000000000000000000000000000000000000000000000000000815260040161018f90610c2e565b60405180910390fd5b600360009054906101000a900473ffffffffffffffffffffffffffffffffffffffff1673ffffffffffffffffffffffffffffffffffffffff16634f0205bf85856040518363ffffffff1660e01b81526004016101f5929190610c6c565b602060405180830381865afa158015610212573d6000803e3d6000fd5b505050506040513d601f19601f820116820180604052508101906102369190610ccd565b610275576040517f08c379a000000000000000000000000000000000000000000000000000000000815260040161026c90610d46565b60405180910390fd5b600360009054906101000a900473ffffffffffffffffffffffffffffffffffffffff1673ffffffffffffffffffffffffffffffffffffffff1663d7da36cf85856040518363ffffffff1660e01b81526004016102d2929190610c6c565b602060405180830381865afa1580156102ef573d6000803e3d6000fd5b505050506040513d601f19601f820116820180604052508101906103139190610d7b565b821115610355576040517f08c379a000000000000000000000000000000000000000000000000000000000815260040161034c90610df4565b60405180910390fd5b8060008054906101000a900473ffffffffffffffffffffffffffffffffffffffff1673ffffffffffffffffffffffffffffffffffffffff166370a08231336040518263ffffffff1660e01b81526004016103af9190610e14565b602060405180830381865afa1580156103cc573d6000803e3d6000fd5b505050506040513d601f19601f820116820180604052508101906103f09190610d7b565b1015610431576040517f08c379a000000000000000000000000000000000000000000000000000000000815260040161042890610e7b565b60405180910390fd5b60008054906101000a900473ffffffffffffffffffffffffffffffffffffffff1673ffffffffffffffffffffffffffffffffffffffff16632901a50d3386846040518463ffffffff1660e01b815260040161048e93929190610e9b565b6020604051808303816000875af11580156104ad573d6000803e3d6000fd5b505050506040513d601f19601f820116820180604052508101906104d19190610ccd565b610510576040517f08c379a000000000000000000000000000000000000000000000000000000000815260040161050790610f1e565b60405180910390fd5b60008060009054906101000a900473ffffffffffffffffffffffffffffffffffffffff1673ffffffffffffffffffffffffffffffffffffffff166370a08231866040518263ffffffff1660e01b815260040161056c9190610e14565b602060405180830381865afa158015610589573d6000803e3d6000fd5b505050506040513d601f19601f820116820180604052508101906105ad9190610d7b565b9050600160009054906101000a900473ffffffffffffffffffffffffffffffffffffffff1673ffffffffffffffffffffffffffffffffffffffff1663f5d5359f86836040518363ffffffff1660e01b815260040161060c929190610c6c565b600060405180830381600087803b15801561062657600080fd5b505af115801561063a573d6000803e3d6000fd5b5050505060008060009054906101000a900473ffffffffffffffffffffffffffffffffffffffff1673ffffffffffffffffffffffffffffffffffffffff166370a08231336040518263ffffffff1660e01b815260040161069a9190610e14565b602060405180830381865afa1580156106b7573d6000803e3d6000fd5b505050506040513d601f19601f820116820180604052508101906106db9190610d7b565b9050600260009054906101000a900473ffffffffffffffffffffffffffffffffffffffff1673ffffffffffffffffffffffffffffffffffffffff16638b58007e33836040518363ffffffff1660e01b815260040161073a929190610c6c565b600060405180830381600087803b15801561075457600080fd5b505af1158015610768573d6000803e3d6000fd5b505050506000600360009054906101000a900473ffffffffffffffffffffffffffffffffffffffff1673ffffffffffffffffffffffffffffffffffffffff1663d7da36cf88886040518363ffffffff1660e01b81526004016107cb929190610c6c565b602060405180830381865afa1580156107e8573d6000803e3d6000fd5b505050506040513d601f19601f8201168201806040525081019061080c9190610d7b565b9050600360009054906101000a900473ffffffffffffffffffffffffffffffffffffffff1673ffffffffffffffffffffffffffffffffffffffff166377e94d9e8888888561085a9190610f6d565b6040518463ffffffff1660e01b815260040161087893929190610fa1565b600060405180830381600087803b15801561089257600080fd5b505af11580156108a6573d6000803e3d6000fd5b50505050600460009054906101000a900473ffffffffffffffffffffffffffffffffffffffff1673ffffffffffffffffffffffffffffffffffffffff16638b3c04ce883389600360009054906101000a900473ffffffffffffffffffffffffffffffffffffffff1673ffffffffffffffffffffffffffffffffffffffff1663f93bd0218d8d6040518363ffffffff1660e01b8152600401610948929190610c6c565b600060405180830381865afa158015610965573d6000803e3d6000fd5b505050506040513d6000823e3d601f19601f8201168201806040525081019061098e9190611139565b8a6040518663ffffffff1660e01b81526004016109af9594939291906111c6565b600060405180830381600087803b1580156109c957600080fd5b505af11580156109dd573d6000803e3d6000fd5b5050505050505050505050565b6000604051905090565b600080fd5b600080fd5b600073ffffffffffffffffffffffffffffffffffffffff82169050919050565b6000610a29826109fe565b9050919050565b610a3981610a1e565b8114610a4457600080fd5b50565b600081359050610a5681610a30565b92915050565b6000819050919050565b610a6f81610a5c565b8114610a7a57600080fd5b50565b600081359050610a8c81610a66565b92915050565b60008060008060808587031215610aac57610aab6109f4565b5b6000610aba87828801610a47565b9450506020610acb87828801610a7d565b9350506040610adc87828801610a7d565b9250506060610aed87828801610a7d565b91505092959194509250565b600082825260208201905092915050565b7f496e76616c69642073656e646572206164647265737300000000000000000000600082015250565b6000610b40601683610af9565b9150610b4b82610b0a565b602082019050919050565b60006020820190508181036000830152610b6f81610b33565b9050919050565b7f496e76616c6964206f776e657220616464726573730000000000000000000000600082015250565b6000610bac601583610af9565b9150610bb782610b76565b602082019050919050565b60006020820190508181036000830152610bdb81610b9f565b9050919050565b7f43616e6e6f74206275792066726f6d20796f757273656c660000000000000000600082015250565b6000610c18601883610af9565b9150610c2382610be2565b602082019050919050565b60006020820190508181036000830152610c4781610c0b565b9050919050565b610c5781610a1e565b82525050565b610c6681610a5c565b82525050565b6000604082019050610c816000830185610c4e565b610c8e6020830184610c5d565b9392505050565b60008115159050919050565b610caa81610c95565b8114610cb557600080fd5b50565b600081519050610cc781610ca1565b92915050565b600060208284031215610ce357610ce26109f4565b5b6000610cf184828501610cb8565b91505092915050565b7f50726f64756374206e6f7420666f756e64000000000000000000000000000000600082015250565b6000610d30601183610af9565b9150610d3b82610cfa565b602082019050919050565b60006020820190508181036000830152610d5f81610d23565b9050919050565b600081519050610d7581610a66565b92915050565b600060208284031215610d9157610d906109f4565b5b6000610d9f84828501610d66565b91505092915050565b7f496e76616c6964207175616e7469747900000000000000000000000000000000600082015250565b6000610dde601083610af9565b9150610de982610da8565b602082019050919050565b60006020820190508181036000830152610e0d81610dd1565b9050919050565b6000602082019050610e296000830184610c4e565b92915050565b7f496e73756666696369656e742062616c616e6365000000000000000000000000600082015250565b6000610e65601483610af9565b9150610e7082610e2f565b602082019050919050565b60006020820190508181036000830152610e9481610e58565b9050919050565b6000606082019050610eb06000830186610c4e565b610ebd6020830185610c4e565b610eca6040830184610c5d565b949350505050565b7f416371756973746f206e6f6e20616e6461746f20612062756f6e2066696e6521600082015250565b6000610f08602083610af9565b9150610f1382610ed2565b602082019050919050565b60006020820190508181036000830152610f3781610efb565b9050919050565b7f4e487b7100000000000000000000000000000000000000000000000000000000600052601160045260246000fd5b6000610f7882610a5c565b9150610f8383610a5c565b9250828203905081811115610f9b57610f9a610f3e565b5b92915050565b6000606082019050610fb66000830186610c4e565b610fc36020830185610c5d565b610fd06040830184610c5d565b949350505050565b600080fd5b600080fd5b6000601f19601f8301169050919050565b7f4e487b7100000000000000000000000000000000000000000000000000000000600052604160045260246000fd5b61102b82610fe2565b810181811067ffffffffffffffff8211171561104a57611049610ff3565b5b80604052505050565b600061105d6109ea565b90506110698282611022565b919050565b600067ffffffffffffffff82111561108957611088610ff3565b5b61109282610fe2565b9050602081019050919050565b60005b838110156110bd5780820151818401526020810190506110a2565b60008484015250505050565b60006110dc6110d78461106e565b611053565b9050828152602081018484840111156110f8576110f7610fdd565b5b61110384828561109f565b509392505050565b600082601f8301126111205761111f610fd8565b5b81516111308482602086016110c9565b91505092915050565b60006020828403121561114f5761114e6109f4565b5b600082015167ffffffffffffffff81111561116d5761116c6109f9565b5b6111798482850161110b565b91505092915050565b600081519050919050565b600061119882611182565b6111a28185610af9565b93506111b281856020860161109f565b6111bb81610fe2565b840191505092915050565b600060a0820190506111db6000830188610c4e565b6111e86020830187610c4e565b6111f56040830186610c5d565b8181036060830152611207818561118d565b90506112166080830184610c5d565b969550505050505056fea2646970667358221220a636d95096536648ce05447a1f0343756efc2234016e9b4ea959c4ece364ef9264736f6c63430008180033",
  "immutableReferences": {},
  "source": "// SPDX-License-Identifier: MIT\n\npragma solidity ^0.8.21;\n\nimport \"./Filieratoken.sol\";\n\n// Service \nimport \"../Actor/CheeseProducer-smart-contract/CheeseProducerService.sol\";\nimport \"../Actor/Retailer-smart-contract/RetailerService.sol\";\n\nimport \"../Actor/CheeseProducer-smart-contract/inventory/CheeseProducerInventoryService.sol\";\nimport \"../Actor/Retailer-smart-contract/inventory/RetailerInventoryService.sol\";\n\n\ncontract TransactionCheeseProductService {\n\n\n    // **Main Services**\n\n    // Address of the FilieraToken contract.\n    Filieratoken private filieraTokenService;\n\n    // Addresses of the service contracts for each actor in the supply chain.\n    CheeseProducerService private cheeseProducerService; // Address of the CheeseProducerService contract.\n    RetailerService private retailerService;   // Address of the RetailerService contract.\n\n    // **Inventory Services**\n\n    // Service contracts for managing inventory for each actor and product stage.\n\n    // CheeseProducer - Contains Cheese (product sold by CheeseProducer).\n    CheeseProducerInventoryService private cheeseProducerInventoryService;\n\n    // Retailer - Contains CheeseBlock (product bought by Retailer).\n    RetailerBuyerService private retailerCheeseBlockService;\n\n\n    /**\n     * @dev Costruttore del contratto TransactionManager.\n     * \n     * @param _filieraToken Indirizzo del contratto FilieraToken.\n     * @param _cheeseProducerService Indirizzo del contratto CheeseProducerService.\n     * @param _retailerService Indirizzo del contratto RetailerService.\n     * \n     * \n     * @param _cheeseProducerInventoryService Indirizzo del contratto CheeseProducerInventoryService.\n     * @param _retailerCheeseBlockService Indirizzo del contratto RetailerBuyerService.\n     * \n     */\n    constructor(\n        address _filieraToken,\n\n        address _cheeseProducerService,\n        address _retailerService,\n\n\n        address _cheeseProducerInventoryService,\n        address _retailerCheeseBlockService\n        ){\n        // Filiera Token Service \n        filieraTokenService = Filieratoken(_filieraToken);\n\n        \n\n        // Main Service \n\n        cheeseProducerService = CheeseProducerService(_cheeseProducerService);\n        \n        retailerService = RetailerService(_retailerService);\n\n        // Inventory Service \n        cheeseProducerInventoryService = CheeseProducerInventoryService(_cheeseProducerInventoryService);\n        retailerCheeseBlockService = RetailerBuyerService(_retailerCheeseBlockService);\n    }\n\n\n\n    /**\n    * @dev Funzione per acquistare un CheeseBlock da un CheeseProducer. Questa funzione pu essere chiamata solo da un Retailer.\n    *\n    * @param ownerCheese Indirizzo del CheeseProducer che vende il CheeseBlock.\n    * @param _id_Cheese Identificativo del CheeseBlock da acquistare.\n    * @param _quantityToBuy Quantit di CheeseBlock da acquistare.\n    * @param totalPrice Prezzo totale del CheeseBlock da acquistare (espresso in FilieraToken).\n    */ \n    function BuyCheeseProduct(\n            address ownerCheese,\n            uint256 _id_Cheese,\n            uint256 _quantityToBuy,\n            uint256 totalPrice // Effettuare il calcolo dal front-End \n        ) external {\n       // Verifica degli address con controlli generici \n        require(msg.sender != address(0), \"Invalid sender address\");\n        require(ownerCheese != address(0), \"Invalid owner address\");\n        require(msg.sender != ownerCheese, \"Cannot buy from yourself\");\n        // Verfica della presenza del Prodotto \n        require(cheeseProducerInventoryService.isCheeseBlockPresent(ownerCheese, _id_Cheese), \"Product not found\");\n        // Verifica della quantit da acquistare rispetto alla quantit totale \n        require(_quantityToBuy <= cheeseProducerInventoryService.getCheeseBlockQuantity(ownerCheese, _id_Cheese), \"Invalid quantity\");\n        // Verifica del saldo dell'acquirente \n        require(filieraTokenService.balanceOf(msg.sender) >= totalPrice, \"Insufficient balance\");\n\n        // Acquisto \n        require(filieraTokenService.transferTokenBuyProduct(msg.sender, ownerCheese, totalPrice),\"Acquisto non andato a buon fine!\");\n\n        // Aggiornamento del saldo del MilkHub \n        uint256 newCheeseProducerBalance = filieraTokenService.balanceOf(ownerCheese);\n        cheeseProducerService.updateCheeseProducerBalance(ownerCheese, newCheeseProducerBalance);\n        // Aggiornamento del saldo del CheeseProducer \n        uint256 newRetailerBalance = filieraTokenService.balanceOf(msg.sender);\n        retailerService.updateRetailerBalance(msg.sender, newRetailerBalance);\n\n        // Riduzione della quantit nel MilkHubInventory\n        uint256 currentQuantity = cheeseProducerInventoryService.getCheeseBlockQuantity(ownerCheese, _id_Cheese);\n        cheeseProducerInventoryService.updateCheeseBlockQuantity(ownerCheese, _id_Cheese, currentQuantity - _quantityToBuy);\n\n        // Aggiunta del MilkBatch nell'inventario del CheeseProducer\n        retailerCheeseBlockService.addCheeseBlock(\n            ownerCheese,\n            msg.sender, \n            _id_Cheese,\n            cheeseProducerInventoryService.getDop(ownerCheese, _id_Cheese),\n            _quantityToBuy);\n    }\n}",
  "sourcePath": "/home/leone-pc/Documenti/GitHub/FilieraToken/Filiera-Token-Smart-Contract/contracts/Service/TransactionCheeseProductService.sol",
  "compiler": {
    "name": "solc",
    "version": "0.8.24+commit.e11b9ed9.Emscripten.clang"
  },
  "schemaVersion": "3.4.16",
  "updatedAt": "2024-03-01T19:20:25.618Z",
  "devdoc": {
    "kind": "dev",
    "methods": {
      "BuyCheeseProduct(address,uint256,uint256,uint256)": {
        "details": "Funzione per acquistare un CheeseBlock da un CheeseProducer. Questa funzione pu essere chiamata solo da un Retailer.",
        "params": {
          "_id_Cheese": "Identificativo del CheeseBlock da acquistare.",
          "_quantityToBuy": "Quantit di CheeseBlock da acquistare.",
          "ownerCheese": "Indirizzo del CheeseProducer che vende il CheeseBlock.",
          "totalPrice": "Prezzo totale del CheeseBlock da acquistare (espresso in FilieraToken)."
        }
      },
      "constructor": {
        "details": "Costruttore del contratto TransactionManager. ",
        "params": {
          "_cheeseProducerInventoryService": "Indirizzo del contratto CheeseProducerInventoryService.",
          "_cheeseProducerService": "Indirizzo del contratto CheeseProducerService.",
          "_filieraToken": "Indirizzo del contratto FilieraToken.",
          "_retailerCheeseBlockService": "Indirizzo del contratto RetailerBuyerService. ",
          "_retailerService": "Indirizzo del contratto RetailerService.  "
        }
      }
    },
    "version": 1
  },
  "userdoc": {
    "kind": "user",
    "methods": {},
    "version": 1
  }
}