{
	"contracts/Actor/MilkHub-smart-contract/inventory/MilkHubInventoryStorage.sol": {
		"MilkHubInventoryStorage": {
			"abi": [
				{
					"inputs": [],
					"stateMutability": "nonpayable",
					"type": "constructor"
				},
				{
					"inputs": [
						{
							"internalType": "address",
							"name": "walletMilkHub",
							"type": "address"
						},
						{
							"internalType": "string",
							"name": "_scadenza",
							"type": "string"
						},
						{
							"internalType": "uint256",
							"name": "_quantity",
							"type": "uint256"
						},
						{
							"internalType": "uint256",
							"name": "_price",
							"type": "uint256"
						}
					],
					"name": "addMilkBatch",
					"outputs": [
						{
							"internalType": "uint256",
							"name": "",
							"type": "uint256"
						},
						{
							"internalType": "string",
							"name": "",
							"type": "string"
						},
						{
							"internalType": "uint256",
							"name": "",
							"type": "uint256"
						},
						{
							"internalType": "uint256",
							"name": "",
							"type": "uint256"
						}
					],
					"stateMutability": "nonpayable",
					"type": "function"
				},
				{
					"inputs": [
						{
							"internalType": "address",
							"name": "ownerMilkBatch",
							"type": "address"
						},
						{
							"internalType": "uint256",
							"name": "_id_MilkBatch",
							"type": "uint256"
						},
						{
							"internalType": "uint256",
							"name": "quantityToBuy",
							"type": "uint256"
						}
					],
					"name": "checkProduct",
					"outputs": [
						{
							"internalType": "bool",
							"name": "",
							"type": "bool"
						}
					],
					"stateMutability": "view",
					"type": "function"
				},
				{
					"inputs": [
						{
							"internalType": "address",
							"name": "walletMilkHub",
							"type": "address"
						},
						{
							"internalType": "uint256",
							"name": "_id",
							"type": "uint256"
						}
					],
					"name": "deleteMilkBatch",
					"outputs": [
						{
							"internalType": "bool",
							"name": "value",
							"type": "bool"
						}
					],
					"stateMutability": "nonpayable",
					"type": "function"
				},
				{
					"inputs": [
						{
							"internalType": "address",
							"name": "walletMilkHub",
							"type": "address"
						},
						{
							"internalType": "uint256",
							"name": "_id",
							"type": "uint256"
						}
					],
					"name": "getExpirationDate",
					"outputs": [
						{
							"internalType": "string",
							"name": "",
							"type": "string"
						}
					],
					"stateMutability": "view",
					"type": "function"
				},
				{
					"inputs": [
						{
							"internalType": "address",
							"name": "walletMilkHub",
							"type": "address"
						},
						{
							"internalType": "uint256",
							"name": "_id",
							"type": "uint256"
						}
					],
					"name": "getMilkBatch",
					"outputs": [
						{
							"internalType": "uint256",
							"name": "",
							"type": "uint256"
						},
						{
							"internalType": "string",
							"name": "",
							"type": "string"
						},
						{
							"internalType": "uint256",
							"name": "",
							"type": "uint256"
						},
						{
							"internalType": "uint256",
							"name": "",
							"type": "uint256"
						}
					],
					"stateMutability": "view",
					"type": "function"
				},
				{
					"inputs": [
						{
							"internalType": "address",
							"name": "walletMilkHub",
							"type": "address"
						},
						{
							"internalType": "uint256",
							"name": "_id",
							"type": "uint256"
						}
					],
					"name": "getPrice",
					"outputs": [
						{
							"internalType": "uint256",
							"name": "",
							"type": "uint256"
						}
					],
					"stateMutability": "view",
					"type": "function"
				},
				{
					"inputs": [
						{
							"internalType": "address",
							"name": "walletMilkHub",
							"type": "address"
						},
						{
							"internalType": "uint256",
							"name": "_id",
							"type": "uint256"
						}
					],
					"name": "getQuantity",
					"outputs": [
						{
							"internalType": "uint256",
							"name": "",
							"type": "uint256"
						}
					],
					"stateMutability": "view",
					"type": "function"
				},
				{
					"inputs": [
						{
							"internalType": "address",
							"name": "walletMilkHub",
							"type": "address"
						},
						{
							"internalType": "uint256",
							"name": "_id",
							"type": "uint256"
						}
					],
					"name": "isMilkBatchPresent",
					"outputs": [
						{
							"internalType": "bool",
							"name": "",
							"type": "bool"
						}
					],
					"stateMutability": "view",
					"type": "function"
				},
				{
					"inputs": [
						{
							"internalType": "address",
							"name": "walletMilkHub",
							"type": "address"
						},
						{
							"internalType": "uint256",
							"name": "_id",
							"type": "uint256"
						},
						{
							"internalType": "uint256",
							"name": "_newQuantity",
							"type": "uint256"
						}
					],
					"name": "updateQuantity",
					"outputs": [],
					"stateMutability": "nonpayable",
					"type": "function"
				}
			],
			"devdoc": {
				"kind": "dev",
				"methods": {},
				"version": 1
			},
			"evm": {
				"assembly": "    /* \"contracts/Actor/MilkHub-smart-contract/inventory/MilkHubInventoryStorage.sol\":60:5286  contract MilkHubInventoryStorage {... */\n  mstore(0x40, 0x80)\n    /* \"contracts/Actor/MilkHub-smart-contract/inventory/MilkHubInventoryStorage.sol\":195:250  constructor(){... */\n  callvalue\n  dup1\n  iszero\n  tag_1\n  jumpi\n  0x00\n  dup1\n  revert\ntag_1:\n  pop\n    /* \"contracts/Actor/MilkHub-smart-contract/inventory/MilkHubInventoryStorage.sol\":232:242  msg.sender */\n  caller\n    /* \"contracts/Actor/MilkHub-smart-contract/inventory/MilkHubInventoryStorage.sol\":219:229  MilkHubOrg */\n  0x00\n  dup1\n    /* \"contracts/Actor/MilkHub-smart-contract/inventory/MilkHubInventoryStorage.sol\":219:242  MilkHubOrg = msg.sender */\n  0x0100\n  exp\n  dup2\n  sload\n  dup2\n  0xffffffffffffffffffffffffffffffffffffffff\n  mul\n  not\n  and\n  swap1\n  dup4\n  0xffffffffffffffffffffffffffffffffffffffff\n  and\n  mul\n  or\n  swap1\n  sstore\n  pop\n    /* \"contracts/Actor/MilkHub-smart-contract/inventory/MilkHubInventoryStorage.sol\":60:5286  contract MilkHubInventoryStorage {... */\n  dataSize(sub_0)\n  dup1\n  dataOffset(sub_0)\n  0x00\n  codecopy\n  0x00\n  return\nstop\n\nsub_0: assembly {\n        /* \"contracts/Actor/MilkHub-smart-contract/inventory/MilkHubInventoryStorage.sol\":60:5286  contract MilkHubInventoryStorage {... */\n      mstore(0x40, 0x80)\n      callvalue\n      dup1\n      iszero\n      tag_1\n      jumpi\n      0x00\n      dup1\n      revert\n    tag_1:\n      pop\n      jumpi(tag_2, lt(calldatasize, 0x04))\n      shr(0xe0, calldataload(0x00))\n      dup1\n      0x87abc216\n      gt\n      tag_12\n      jumpi\n      dup1\n      0x87abc216\n      eq\n      tag_7\n      jumpi\n      dup1\n      0x9f2b6898\n      eq\n      tag_8\n      jumpi\n      dup1\n      0xad9c10a1\n      eq\n      tag_9\n      jumpi\n      dup1\n      0xce4fcf23\n      eq\n      tag_10\n      jumpi\n      dup1\n      0xf2492078\n      eq\n      tag_11\n      jumpi\n      jump(tag_2)\n    tag_12:\n      dup1\n      0x02d805f6\n      eq\n      tag_3\n      jumpi\n      dup1\n      0x1e073fcf\n      eq\n      tag_4\n      jumpi\n      dup1\n      0x449e815d\n      eq\n      tag_5\n      jumpi\n      dup1\n      0x8317679f\n      eq\n      tag_6\n      jumpi\n    tag_2:\n      0x00\n      dup1\n      revert\n        /* \"contracts/Actor/MilkHub-smart-contract/inventory/MilkHubInventoryStorage.sol\":3806:4028  function isMilkBatchPresent(address walletMilkHub, uint256 _id)external view returns(bool){... */\n    tag_3:\n      tag_13\n      0x04\n      dup1\n      calldatasize\n      sub\n      dup2\n      add\n      swap1\n      tag_14\n      swap2\n      swap1\n      tag_15\n      jump\t// in\n    tag_14:\n      tag_16\n      jump\t// in\n    tag_13:\n      mload(0x40)\n      tag_17\n      swap2\n      swap1\n      tag_18\n      jump\t// in\n    tag_17:\n      mload(0x40)\n      dup1\n      swap2\n      sub\n      swap1\n      return\n        /* \"contracts/Actor/MilkHub-smart-contract/inventory/MilkHubInventoryStorage.sol\":4422:4637  function getQuantity(address walletMilkHub, uint256 _id) external view returns(uint256) {... */\n    tag_4:\n      tag_19\n      0x04\n      dup1\n      calldatasize\n      sub\n      dup2\n      add\n      swap1\n      tag_20\n      swap2\n      swap1\n      tag_15\n      jump\t// in\n    tag_20:\n      tag_21\n      jump\t// in\n    tag_19:\n      mload(0x40)\n      tag_22\n      swap2\n      swap1\n      tag_23\n      jump\t// in\n    tag_22:\n      mload(0x40)\n      dup1\n      swap2\n      sub\n      swap1\n      return\n        /* \"contracts/Actor/MilkHub-smart-contract/inventory/MilkHubInventoryStorage.sol\":4645:4862  function getPrice(address walletMilkHub, uint256 _id) external view returns(uint256) {... */\n    tag_5:\n      tag_24\n      0x04\n      dup1\n      calldatasize\n      sub\n      dup2\n      add\n      swap1\n      tag_25\n      swap2\n      swap1\n      tag_15\n      jump\t// in\n    tag_25:\n      tag_26\n      jump\t// in\n    tag_24:\n      mload(0x40)\n      tag_27\n      swap2\n      swap1\n      tag_23\n      jump\t// in\n    tag_27:\n      mload(0x40)\n      dup1\n      swap2\n      sub\n      swap1\n      return\n        /* \"contracts/Actor/MilkHub-smart-contract/inventory/MilkHubInventoryStorage.sol\":762:1836  function addMilkBatch(address walletMilkHub, string memory _scadenza, uint256 _quantity, uint256 _price) external returns (uint256,string memory, uint256, uint256) {... */\n    tag_6:\n      tag_28\n      0x04\n      dup1\n      calldatasize\n      sub\n      dup2\n      add\n      swap1\n      tag_29\n      swap2\n      swap1\n      tag_30\n      jump\t// in\n    tag_29:\n      tag_31\n      jump\t// in\n    tag_28:\n      mload(0x40)\n      tag_32\n      swap5\n      swap4\n      swap3\n      swap2\n      swap1\n      tag_33\n      jump\t// in\n    tag_32:\n      mload(0x40)\n      dup1\n      swap2\n      sub\n      swap1\n      return\n        /* \"contracts/Actor/MilkHub-smart-contract/inventory/MilkHubInventoryStorage.sol\":3045:3504  function checkProduct(address ownerMilkBatch, uint256 _id_MilkBatch, uint256 quantityToBuy) external view  returns (bool){... */\n    tag_7:\n      tag_34\n      0x04\n      dup1\n      calldatasize\n      sub\n      dup2\n      add\n      swap1\n      tag_35\n      swap2\n      swap1\n      tag_36\n      jump\t// in\n    tag_35:\n      tag_37\n      jump\t// in\n    tag_34:\n      mload(0x40)\n      tag_38\n      swap2\n      swap1\n      tag_18\n      jump\t// in\n    tag_38:\n      mload(0x40)\n      dup1\n      swap2\n      sub\n      swap1\n      return\n        /* \"contracts/Actor/MilkHub-smart-contract/inventory/MilkHubInventoryStorage.sol\":4189:4414  function getExpirationDate(address walletMilkHub, uint256 _id) external view returns(string memory) {... */\n    tag_8:\n      tag_39\n      0x04\n      dup1\n      calldatasize\n      sub\n      dup2\n      add\n      swap1\n      tag_40\n      swap2\n      swap1\n      tag_15\n      jump\t// in\n    tag_40:\n      tag_41\n      jump\t// in\n    tag_39:\n      mload(0x40)\n      tag_42\n      swap2\n      swap1\n      tag_43\n      jump\t// in\n    tag_42:\n      mload(0x40)\n      dup1\n      swap2\n      sub\n      swap1\n      return\n        /* \"contracts/Actor/MilkHub-smart-contract/inventory/MilkHubInventoryStorage.sol\":2295:3037  function deleteMilkBatch(address walletMilkHub, uint256 _id) external returns(bool value) {... */\n    tag_9:\n      tag_44\n      0x04\n      dup1\n      calldatasize\n      sub\n      dup2\n      add\n      swap1\n      tag_45\n      swap2\n      swap1\n      tag_15\n      jump\t// in\n    tag_45:\n      tag_46\n      jump\t// in\n    tag_44:\n      mload(0x40)\n      tag_47\n      swap2\n      swap1\n      tag_18\n      jump\t// in\n    tag_47:\n      mload(0x40)\n      dup1\n      swap2\n      sub\n      swap1\n      return\n        /* \"contracts/Actor/MilkHub-smart-contract/inventory/MilkHubInventoryStorage.sol\":1874:2171  function getMilkBatch(address walletMilkHub, uint256 _id) external view returns (uint256, string memory, uint256, uint256) {... */\n    tag_10:\n      tag_48\n      0x04\n      dup1\n      calldatasize\n      sub\n      dup2\n      add\n      swap1\n      tag_49\n      swap2\n      swap1\n      tag_15\n      jump\t// in\n    tag_49:\n      tag_50\n      jump\t// in\n    tag_48:\n      mload(0x40)\n      tag_51\n      swap5\n      swap4\n      swap3\n      swap2\n      swap1\n      tag_33\n      jump\t// in\n    tag_51:\n      mload(0x40)\n      dup1\n      swap2\n      sub\n      swap1\n      return\n        /* \"contracts/Actor/MilkHub-smart-contract/inventory/MilkHubInventoryStorage.sol\":5103:5279  function updateQuantity(address walletMilkHub, uint256 _id, uint256 _newQuantity) external  {... */\n    tag_11:\n      tag_52\n      0x04\n      dup1\n      calldatasize\n      sub\n      dup2\n      add\n      swap1\n      tag_53\n      swap2\n      swap1\n      tag_36\n      jump\t// in\n    tag_53:\n      tag_54\n      jump\t// in\n    tag_52:\n      stop\n        /* \"contracts/Actor/MilkHub-smart-contract/inventory/MilkHubInventoryStorage.sol\":3806:4028  function isMilkBatchPresent(address walletMilkHub, uint256 _id)external view returns(bool){... */\n    tag_16:\n        /* \"contracts/Actor/MilkHub-smart-contract/inventory/MilkHubInventoryStorage.sol\":3891:3895  bool */\n      0x00\n        /* \"contracts/Actor/MilkHub-smart-contract/inventory/MilkHubInventoryStorage.sol\":3922:3923  0 */\n      dup1\n        /* \"contracts/Actor/MilkHub-smart-contract/inventory/MilkHubInventoryStorage.sol\":3916:3919  _id */\n      dup3\n        /* \"contracts/Actor/MilkHub-smart-contract/inventory/MilkHubInventoryStorage.sol\":3916:3923  _id !=0 */\n      eq\n      iszero\n        /* \"contracts/Actor/MilkHub-smart-contract/inventory/MilkHubInventoryStorage.sol\":3916:3932  _id !=0 && _id>0 */\n      dup1\n      iszero\n      tag_56\n      jumpi\n      pop\n        /* \"contracts/Actor/MilkHub-smart-contract/inventory/MilkHubInventoryStorage.sol\":3931:3932  0 */\n      0x00\n        /* \"contracts/Actor/MilkHub-smart-contract/inventory/MilkHubInventoryStorage.sol\":3927:3930  _id */\n      dup3\n        /* \"contracts/Actor/MilkHub-smart-contract/inventory/MilkHubInventoryStorage.sol\":3927:3932  _id>0 */\n      gt\n        /* \"contracts/Actor/MilkHub-smart-contract/inventory/MilkHubInventoryStorage.sol\":3916:3932  _id !=0 && _id>0 */\n    tag_56:\n        /* \"contracts/Actor/MilkHub-smart-contract/inventory/MilkHubInventoryStorage.sol\":3907:3959  require( _id !=0 && _id>0,\"ID MilkBatch Not Valid!\") */\n      tag_57\n      jumpi\n      mload(0x40)\n      0x08c379a000000000000000000000000000000000000000000000000000000000\n      dup2\n      mstore\n      0x04\n      add\n      tag_58\n      swap1\n      tag_59\n      jump\t// in\n    tag_58:\n      mload(0x40)\n      dup1\n      swap2\n      sub\n      swap1\n      revert\n    tag_57:\n        /* \"contracts/Actor/MilkHub-smart-contract/inventory/MilkHubInventoryStorage.sol\":4017:4020  _id */\n      dup2\n        /* \"contracts/Actor/MilkHub-smart-contract/inventory/MilkHubInventoryStorage.sol\":3979:3990  milkBatches */\n      0x01\n        /* \"contracts/Actor/MilkHub-smart-contract/inventory/MilkHubInventoryStorage.sol\":3979:4005  milkBatches[walletMilkHub] */\n      0x00\n        /* \"contracts/Actor/MilkHub-smart-contract/inventory/MilkHubInventoryStorage.sol\":3991:4004  walletMilkHub */\n      dup6\n        /* \"contracts/Actor/MilkHub-smart-contract/inventory/MilkHubInventoryStorage.sol\":3979:4005  milkBatches[walletMilkHub] */\n      0xffffffffffffffffffffffffffffffffffffffff\n      and\n      0xffffffffffffffffffffffffffffffffffffffff\n      and\n      dup2\n      mstore\n      0x20\n      add\n      swap1\n      dup2\n      mstore\n      0x20\n      add\n      0x00\n      keccak256\n        /* \"contracts/Actor/MilkHub-smart-contract/inventory/MilkHubInventoryStorage.sol\":3979:4010  milkBatches[walletMilkHub][_id] */\n      0x00\n        /* \"contracts/Actor/MilkHub-smart-contract/inventory/MilkHubInventoryStorage.sol\":4006:4009  _id */\n      dup5\n        /* \"contracts/Actor/MilkHub-smart-contract/inventory/MilkHubInventoryStorage.sol\":3979:4010  milkBatches[walletMilkHub][_id] */\n      dup2\n      mstore\n      0x20\n      add\n      swap1\n      dup2\n      mstore\n      0x20\n      add\n      0x00\n      keccak256\n        /* \"contracts/Actor/MilkHub-smart-contract/inventory/MilkHubInventoryStorage.sol\":3979:4013  milkBatches[walletMilkHub][_id].id */\n      0x00\n      add\n      sload\n        /* \"contracts/Actor/MilkHub-smart-contract/inventory/MilkHubInventoryStorage.sol\":3979:4020  milkBatches[walletMilkHub][_id].id == _id */\n      eq\n        /* \"contracts/Actor/MilkHub-smart-contract/inventory/MilkHubInventoryStorage.sol\":3972:4020  return milkBatches[walletMilkHub][_id].id == _id */\n      swap1\n      pop\n        /* \"contracts/Actor/MilkHub-smart-contract/inventory/MilkHubInventoryStorage.sol\":3806:4028  function isMilkBatchPresent(address walletMilkHub, uint256 _id)external view returns(bool){... */\n      swap3\n      swap2\n      pop\n      pop\n      jump\t// out\n        /* \"contracts/Actor/MilkHub-smart-contract/inventory/MilkHubInventoryStorage.sol\":4422:4637  function getQuantity(address walletMilkHub, uint256 _id) external view returns(uint256) {... */\n    tag_21:\n        /* \"contracts/Actor/MilkHub-smart-contract/inventory/MilkHubInventoryStorage.sol\":4501:4508  uint256 */\n      0x00\n        /* \"contracts/Actor/MilkHub-smart-contract/inventory/MilkHubInventoryStorage.sol\":4523:4549  MilkBatch memory milkBatch */\n      dup1\n        /* \"contracts/Actor/MilkHub-smart-contract/inventory/MilkHubInventoryStorage.sol\":4552:4563  milkBatches */\n      0x01\n        /* \"contracts/Actor/MilkHub-smart-contract/inventory/MilkHubInventoryStorage.sol\":4552:4578  milkBatches[walletMilkHub] */\n      0x00\n        /* \"contracts/Actor/MilkHub-smart-contract/inventory/MilkHubInventoryStorage.sol\":4564:4577  walletMilkHub */\n      dup6\n        /* \"contracts/Actor/MilkHub-smart-contract/inventory/MilkHubInventoryStorage.sol\":4552:4578  milkBatches[walletMilkHub] */\n      0xffffffffffffffffffffffffffffffffffffffff\n      and\n      0xffffffffffffffffffffffffffffffffffffffff\n      and\n      dup2\n      mstore\n      0x20\n      add\n      swap1\n      dup2\n      mstore\n      0x20\n      add\n      0x00\n      keccak256\n        /* \"contracts/Actor/MilkHub-smart-contract/inventory/MilkHubInventoryStorage.sol\":4552:4583  milkBatches[walletMilkHub][_id] */\n      0x00\n        /* \"contracts/Actor/MilkHub-smart-contract/inventory/MilkHubInventoryStorage.sol\":4579:4582  _id */\n      dup5\n        /* \"contracts/Actor/MilkHub-smart-contract/inventory/MilkHubInventoryStorage.sol\":4552:4583  milkBatches[walletMilkHub][_id] */\n      dup2\n      mstore\n      0x20\n      add\n      swap1\n      dup2\n      mstore\n      0x20\n      add\n      0x00\n      keccak256\n        /* \"contracts/Actor/MilkHub-smart-contract/inventory/MilkHubInventoryStorage.sol\":4523:4583  MilkBatch memory milkBatch = milkBatches[walletMilkHub][_id] */\n      mload(0x40)\n      dup1\n      0x80\n      add\n      0x40\n      mstore\n      swap1\n      dup2\n      0x00\n      dup3\n      add\n      sload\n      dup2\n      mstore\n      0x20\n      add\n      0x01\n      dup3\n      add\n      dup1\n      sload\n      tag_61\n      swap1\n      tag_62\n      jump\t// in\n    tag_61:\n      dup1\n      0x1f\n      add\n      0x20\n      dup1\n      swap2\n      div\n      mul\n      0x20\n      add\n      mload(0x40)\n      swap1\n      dup2\n      add\n      0x40\n      mstore\n      dup1\n      swap3\n      swap2\n      swap1\n      dup2\n      dup2\n      mstore\n      0x20\n      add\n      dup3\n      dup1\n      sload\n      tag_63\n      swap1\n      tag_62\n      jump\t// in\n    tag_63:\n      dup1\n      iszero\n      tag_64\n      jumpi\n      dup1\n      0x1f\n      lt\n      tag_65\n      jumpi\n      0x0100\n      dup1\n      dup4\n      sload\n      div\n      mul\n      dup4\n      mstore\n      swap2\n      0x20\n      add\n      swap2\n      jump(tag_64)\n    tag_65:\n      dup3\n      add\n      swap2\n      swap1\n      0x00\n      mstore\n      keccak256(0x00, 0x20)\n      swap1\n    tag_66:\n      dup2\n      sload\n      dup2\n      mstore\n      swap1\n      0x01\n      add\n      swap1\n      0x20\n      add\n      dup1\n      dup4\n      gt\n      tag_66\n      jumpi\n      dup3\n      swap1\n      sub\n      0x1f\n      and\n      dup3\n      add\n      swap2\n    tag_64:\n      pop\n      pop\n      pop\n      pop\n      pop\n      dup2\n      mstore\n      0x20\n      add\n      0x02\n      dup3\n      add\n      sload\n      dup2\n      mstore\n      0x20\n      add\n      0x03\n      dup3\n      add\n      sload\n      dup2\n      mstore\n      pop\n      pop\n      swap1\n      pop\n        /* \"contracts/Actor/MilkHub-smart-contract/inventory/MilkHubInventoryStorage.sol\":4603:4612  milkBatch */\n      dup1\n        /* \"contracts/Actor/MilkHub-smart-contract/inventory/MilkHubInventoryStorage.sol\":4603:4621  milkBatch.quantity */\n      0x40\n      add\n      mload\n        /* \"contracts/Actor/MilkHub-smart-contract/inventory/MilkHubInventoryStorage.sol\":4596:4621  return milkBatch.quantity */\n      swap2\n      pop\n      pop\n        /* \"contracts/Actor/MilkHub-smart-contract/inventory/MilkHubInventoryStorage.sol\":4422:4637  function getQuantity(address walletMilkHub, uint256 _id) external view returns(uint256) {... */\n      swap3\n      swap2\n      pop\n      pop\n      jump\t// out\n        /* \"contracts/Actor/MilkHub-smart-contract/inventory/MilkHubInventoryStorage.sol\":4645:4862  function getPrice(address walletMilkHub, uint256 _id) external view returns(uint256) {... */\n    tag_26:\n        /* \"contracts/Actor/MilkHub-smart-contract/inventory/MilkHubInventoryStorage.sol\":4721:4728  uint256 */\n      0x00\n        /* \"contracts/Actor/MilkHub-smart-contract/inventory/MilkHubInventoryStorage.sol\":4743:4769  MilkBatch memory milkBatch */\n      dup1\n        /* \"contracts/Actor/MilkHub-smart-contract/inventory/MilkHubInventoryStorage.sol\":4772:4783  milkBatches */\n      0x01\n        /* \"contracts/Actor/MilkHub-smart-contract/inventory/MilkHubInventoryStorage.sol\":4772:4798  milkBatches[walletMilkHub] */\n      0x00\n        /* \"contracts/Actor/MilkHub-smart-contract/inventory/MilkHubInventoryStorage.sol\":4784:4797  walletMilkHub */\n      dup6\n        /* \"contracts/Actor/MilkHub-smart-contract/inventory/MilkHubInventoryStorage.sol\":4772:4798  milkBatches[walletMilkHub] */\n      0xffffffffffffffffffffffffffffffffffffffff\n      and\n      0xffffffffffffffffffffffffffffffffffffffff\n      and\n      dup2\n      mstore\n      0x20\n      add\n      swap1\n      dup2\n      mstore\n      0x20\n      add\n      0x00\n      keccak256\n        /* \"contracts/Actor/MilkHub-smart-contract/inventory/MilkHubInventoryStorage.sol\":4772:4803  milkBatches[walletMilkHub][_id] */\n      0x00\n        /* \"contracts/Actor/MilkHub-smart-contract/inventory/MilkHubInventoryStorage.sol\":4799:4802  _id */\n      dup5\n        /* \"contracts/Actor/MilkHub-smart-contract/inventory/MilkHubInventoryStorage.sol\":4772:4803  milkBatches[walletMilkHub][_id] */\n      dup2\n      mstore\n      0x20\n      add\n      swap1\n      dup2\n      mstore\n      0x20\n      add\n      0x00\n      keccak256\n        /* \"contracts/Actor/MilkHub-smart-contract/inventory/MilkHubInventoryStorage.sol\":4743:4803  MilkBatch memory milkBatch = milkBatches[walletMilkHub][_id] */\n      mload(0x40)\n      dup1\n      0x80\n      add\n      0x40\n      mstore\n      swap1\n      dup2\n      0x00\n      dup3\n      add\n      sload\n      dup2\n      mstore\n      0x20\n      add\n      0x01\n      dup3\n      add\n      dup1\n      sload\n      tag_68\n      swap1\n      tag_62\n      jump\t// in\n    tag_68:\n      dup1\n      0x1f\n      add\n      0x20\n      dup1\n      swap2\n      div\n      mul\n      0x20\n      add\n      mload(0x40)\n      swap1\n      dup2\n      add\n      0x40\n      mstore\n      dup1\n      swap3\n      swap2\n      swap1\n      dup2\n      dup2\n      mstore\n      0x20\n      add\n      dup3\n      dup1\n      sload\n      tag_69\n      swap1\n      tag_62\n      jump\t// in\n    tag_69:\n      dup1\n      iszero\n      tag_70\n      jumpi\n      dup1\n      0x1f\n      lt\n      tag_71\n      jumpi\n      0x0100\n      dup1\n      dup4\n      sload\n      div\n      mul\n      dup4\n      mstore\n      swap2\n      0x20\n      add\n      swap2\n      jump(tag_70)\n    tag_71:\n      dup3\n      add\n      swap2\n      swap1\n      0x00\n      mstore\n      keccak256(0x00, 0x20)\n      swap1\n    tag_72:\n      dup2\n      sload\n      dup2\n      mstore\n      swap1\n      0x01\n      add\n      swap1\n      0x20\n      add\n      dup1\n      dup4\n      gt\n      tag_72\n      jumpi\n      dup3\n      swap1\n      sub\n      0x1f\n      and\n      dup3\n      add\n      swap2\n    tag_70:\n      pop\n      pop\n      pop\n      pop\n      pop\n      dup2\n      mstore\n      0x20\n      add\n      0x02\n      dup3\n      add\n      sload\n      dup2\n      mstore\n      0x20\n      add\n      0x03\n      dup3\n      add\n      sload\n      dup2\n      mstore\n      pop\n      pop\n      swap1\n      pop\n        /* \"contracts/Actor/MilkHub-smart-contract/inventory/MilkHubInventoryStorage.sol\":4831:4840  milkBatch */\n      dup1\n        /* \"contracts/Actor/MilkHub-smart-contract/inventory/MilkHubInventoryStorage.sol\":4831:4846  milkBatch.price */\n      0x60\n      add\n      mload\n        /* \"contracts/Actor/MilkHub-smart-contract/inventory/MilkHubInventoryStorage.sol\":4824:4846  return milkBatch.price */\n      swap2\n      pop\n      pop\n        /* \"contracts/Actor/MilkHub-smart-contract/inventory/MilkHubInventoryStorage.sol\":4645:4862  function getPrice(address walletMilkHub, uint256 _id) external view returns(uint256) {... */\n      swap3\n      swap2\n      pop\n      pop\n      jump\t// out\n        /* \"contracts/Actor/MilkHub-smart-contract/inventory/MilkHubInventoryStorage.sol\":762:1836  function addMilkBatch(address walletMilkHub, string memory _scadenza, uint256 _quantity, uint256 _price) external returns (uint256,string memory, uint256, uint256) {... */\n    tag_31:\n        /* \"contracts/Actor/MilkHub-smart-contract/inventory/MilkHubInventoryStorage.sol\":885:892  uint256 */\n      0x00\n        /* \"contracts/Actor/MilkHub-smart-contract/inventory/MilkHubInventoryStorage.sol\":893:906  string memory */\n      0x60\n        /* \"contracts/Actor/MilkHub-smart-contract/inventory/MilkHubInventoryStorage.sol\":908:915  uint256 */\n      0x00\n        /* \"contracts/Actor/MilkHub-smart-contract/inventory/MilkHubInventoryStorage.sol\":917:924  uint256 */\n      dup1\n        /* \"contracts/Actor/MilkHub-smart-contract/inventory/MilkHubInventoryStorage.sol\":970:981  uint256 _id */\n      0x00\n        /* \"contracts/Actor/MilkHub-smart-contract/inventory/MilkHubInventoryStorage.sol\":1033:1042  _scadenza */\n      dup8\n        /* \"contracts/Actor/MilkHub-smart-contract/inventory/MilkHubInventoryStorage.sol\":1057:1066  _quantity */\n      dup8\n        /* \"contracts/Actor/MilkHub-smart-contract/inventory/MilkHubInventoryStorage.sol\":1081:1087  _price */\n      dup8\n        /* \"contracts/Actor/MilkHub-smart-contract/inventory/MilkHubInventoryStorage.sol\":1102:1115  walletMilkHub */\n      dup12\n        /* \"contracts/Actor/MilkHub-smart-contract/inventory/MilkHubInventoryStorage.sol\":1002:1126  abi.encodePacked(... */\n      add(0x20, mload(0x40))\n      tag_74\n      swap5\n      swap4\n      swap3\n      swap2\n      swap1\n      tag_75\n      jump\t// in\n    tag_74:\n      mload(0x40)\n      0x20\n      dup2\n      dup4\n      sub\n      sub\n      dup2\n      mstore\n      swap1\n      0x40\n      mstore\n        /* \"contracts/Actor/MilkHub-smart-contract/inventory/MilkHubInventoryStorage.sol\":992:1127  keccak256(abi.encodePacked(... */\n      dup1\n      mload\n      swap1\n      0x20\n      add\n      keccak256\n        /* \"contracts/Actor/MilkHub-smart-contract/inventory/MilkHubInventoryStorage.sol\":984:1128  uint256(keccak256(abi.encodePacked(... */\n      0x00\n      shr\n        /* \"contracts/Actor/MilkHub-smart-contract/inventory/MilkHubInventoryStorage.sol\":970:1128  uint256 _id = uint256(keccak256(abi.encodePacked(... */\n      swap1\n      pop\n        /* \"contracts/Actor/MilkHub-smart-contract/inventory/MilkHubInventoryStorage.sol\":1141:1175  MilkBatch storage milkbatchControl */\n      0x00\n        /* \"contracts/Actor/MilkHub-smart-contract/inventory/MilkHubInventoryStorage.sol\":1178:1189  milkBatches */\n      0x01\n        /* \"contracts/Actor/MilkHub-smart-contract/inventory/MilkHubInventoryStorage.sol\":1178:1204  milkBatches[walletMilkHub] */\n      0x00\n        /* \"contracts/Actor/MilkHub-smart-contract/inventory/MilkHubInventoryStorage.sol\":1190:1203  walletMilkHub */\n      dup12\n        /* \"contracts/Actor/MilkHub-smart-contract/inventory/MilkHubInventoryStorage.sol\":1178:1204  milkBatches[walletMilkHub] */\n      0xffffffffffffffffffffffffffffffffffffffff\n      and\n      0xffffffffffffffffffffffffffffffffffffffff\n      and\n      dup2\n      mstore\n      0x20\n      add\n      swap1\n      dup2\n      mstore\n      0x20\n      add\n      0x00\n      keccak256\n        /* \"contracts/Actor/MilkHub-smart-contract/inventory/MilkHubInventoryStorage.sol\":1178:1209  milkBatches[walletMilkHub][_id] */\n      0x00\n        /* \"contracts/Actor/MilkHub-smart-contract/inventory/MilkHubInventoryStorage.sol\":1205:1208  _id */\n      dup4\n        /* \"contracts/Actor/MilkHub-smart-contract/inventory/MilkHubInventoryStorage.sol\":1178:1209  milkBatches[walletMilkHub][_id] */\n      dup2\n      mstore\n      0x20\n      add\n      swap1\n      dup2\n      mstore\n      0x20\n      add\n      0x00\n      keccak256\n        /* \"contracts/Actor/MilkHub-smart-contract/inventory/MilkHubInventoryStorage.sol\":1141:1209  MilkBatch storage milkbatchControl = milkBatches[walletMilkHub][_id] */\n      swap1\n      pop\n        /* \"contracts/Actor/MilkHub-smart-contract/inventory/MilkHubInventoryStorage.sol\":1252:1253  0 */\n      0x00\n        /* \"contracts/Actor/MilkHub-smart-contract/inventory/MilkHubInventoryStorage.sol\":1229:1245  milkbatchControl */\n      dup2\n        /* \"contracts/Actor/MilkHub-smart-contract/inventory/MilkHubInventoryStorage.sol\":1229:1248  milkbatchControl.id */\n      0x00\n      add\n      sload\n        /* \"contracts/Actor/MilkHub-smart-contract/inventory/MilkHubInventoryStorage.sol\":1229:1253  milkbatchControl.id == 0 */\n      eq\n        /* \"contracts/Actor/MilkHub-smart-contract/inventory/MilkHubInventoryStorage.sol\":1220:1290  require( milkbatchControl.id == 0, \"Pezzo di Formaggio gia' Presente\") */\n      tag_76\n      jumpi\n      mload(0x40)\n      0x08c379a000000000000000000000000000000000000000000000000000000000\n      dup2\n      mstore\n      0x04\n      add\n      tag_77\n      swap1\n      tag_78\n      jump\t// in\n    tag_77:\n      mload(0x40)\n      dup1\n      swap2\n      sub\n      swap1\n      revert\n    tag_76:\n        /* \"contracts/Actor/MilkHub-smart-contract/inventory/MilkHubInventoryStorage.sol\":1346:1372  MilkBatch memory milkBatch */\n      0x00\n        /* \"contracts/Actor/MilkHub-smart-contract/inventory/MilkHubInventoryStorage.sol\":1375:1515  MilkBatch({... */\n      mload(0x40)\n      dup1\n      0x80\n      add\n      0x40\n      mstore\n      dup1\n        /* \"contracts/Actor/MilkHub-smart-contract/inventory/MilkHubInventoryStorage.sol\":1404:1407  _id */\n      dup5\n        /* \"contracts/Actor/MilkHub-smart-contract/inventory/MilkHubInventoryStorage.sol\":1375:1515  MilkBatch({... */\n      dup2\n      mstore\n      0x20\n      add\n        /* \"contracts/Actor/MilkHub-smart-contract/inventory/MilkHubInventoryStorage.sol\":1432:1441  _scadenza */\n      dup12\n        /* \"contracts/Actor/MilkHub-smart-contract/inventory/MilkHubInventoryStorage.sol\":1375:1515  MilkBatch({... */\n      dup2\n      mstore\n      0x20\n      add\n        /* \"contracts/Actor/MilkHub-smart-contract/inventory/MilkHubInventoryStorage.sol\":1466:1475  _quantity */\n      dup11\n        /* \"contracts/Actor/MilkHub-smart-contract/inventory/MilkHubInventoryStorage.sol\":1375:1515  MilkBatch({... */\n      dup2\n      mstore\n      0x20\n      add\n        /* \"contracts/Actor/MilkHub-smart-contract/inventory/MilkHubInventoryStorage.sol\":1497:1503  _price */\n      dup10\n        /* \"contracts/Actor/MilkHub-smart-contract/inventory/MilkHubInventoryStorage.sol\":1375:1515  MilkBatch({... */\n      dup2\n      mstore\n      pop\n        /* \"contracts/Actor/MilkHub-smart-contract/inventory/MilkHubInventoryStorage.sol\":1346:1515  MilkBatch memory milkBatch = MilkBatch({... */\n      swap1\n      pop\n        /* \"contracts/Actor/MilkHub-smart-contract/inventory/MilkHubInventoryStorage.sol\":1633:1642  milkBatch */\n      dup1\n        /* \"contracts/Actor/MilkHub-smart-contract/inventory/MilkHubInventoryStorage.sol\":1599:1610  milkBatches */\n      0x01\n        /* \"contracts/Actor/MilkHub-smart-contract/inventory/MilkHubInventoryStorage.sol\":1599:1625  milkBatches[walletMilkHub] */\n      0x00\n        /* \"contracts/Actor/MilkHub-smart-contract/inventory/MilkHubInventoryStorage.sol\":1611:1624  walletMilkHub */\n      dup14\n        /* \"contracts/Actor/MilkHub-smart-contract/inventory/MilkHubInventoryStorage.sol\":1599:1625  milkBatches[walletMilkHub] */\n      0xffffffffffffffffffffffffffffffffffffffff\n      and\n      0xffffffffffffffffffffffffffffffffffffffff\n      and\n      dup2\n      mstore\n      0x20\n      add\n      swap1\n      dup2\n      mstore\n      0x20\n      add\n      0x00\n      keccak256\n        /* \"contracts/Actor/MilkHub-smart-contract/inventory/MilkHubInventoryStorage.sol\":1599:1630  milkBatches[walletMilkHub][_id] */\n      0x00\n        /* \"contracts/Actor/MilkHub-smart-contract/inventory/MilkHubInventoryStorage.sol\":1626:1629  _id */\n      dup6\n        /* \"contracts/Actor/MilkHub-smart-contract/inventory/MilkHubInventoryStorage.sol\":1599:1630  milkBatches[walletMilkHub][_id] */\n      dup2\n      mstore\n      0x20\n      add\n      swap1\n      dup2\n      mstore\n      0x20\n      add\n      0x00\n      keccak256\n        /* \"contracts/Actor/MilkHub-smart-contract/inventory/MilkHubInventoryStorage.sol\":1599:1642  milkBatches[walletMilkHub][_id] = milkBatch */\n      0x00\n      dup3\n      add\n      mload\n      dup2\n      0x00\n      add\n      sstore\n      0x20\n      dup3\n      add\n      mload\n      dup2\n      0x01\n      add\n      swap1\n      dup2\n      tag_79\n      swap2\n      swap1\n      tag_80\n      jump\t// in\n    tag_79:\n      pop\n      0x40\n      dup3\n      add\n      mload\n      dup2\n      0x02\n      add\n      sstore\n      0x60\n      dup3\n      add\n      mload\n      dup2\n      0x03\n      add\n      sstore\n      swap1\n      pop\n      pop\n        /* \"contracts/Actor/MilkHub-smart-contract/inventory/MilkHubInventoryStorage.sol\":1671:1682  milkBatches */\n      0x01\n        /* \"contracts/Actor/MilkHub-smart-contract/inventory/MilkHubInventoryStorage.sol\":1671:1697  milkBatches[walletMilkHub] */\n      0x00\n        /* \"contracts/Actor/MilkHub-smart-contract/inventory/MilkHubInventoryStorage.sol\":1683:1696  walletMilkHub */\n      dup13\n        /* \"contracts/Actor/MilkHub-smart-contract/inventory/MilkHubInventoryStorage.sol\":1671:1697  milkBatches[walletMilkHub] */\n      0xffffffffffffffffffffffffffffffffffffffff\n      and\n      0xffffffffffffffffffffffffffffffffffffffff\n      and\n      dup2\n      mstore\n      0x20\n      add\n      swap1\n      dup2\n      mstore\n      0x20\n      add\n      0x00\n      keccak256\n        /* \"contracts/Actor/MilkHub-smart-contract/inventory/MilkHubInventoryStorage.sol\":1671:1702  milkBatches[walletMilkHub][_id] */\n      0x00\n        /* \"contracts/Actor/MilkHub-smart-contract/inventory/MilkHubInventoryStorage.sol\":1698:1701  _id */\n      dup5\n        /* \"contracts/Actor/MilkHub-smart-contract/inventory/MilkHubInventoryStorage.sol\":1671:1702  milkBatches[walletMilkHub][_id] */\n      dup2\n      mstore\n      0x20\n      add\n      swap1\n      dup2\n      mstore\n      0x20\n      add\n      0x00\n      keccak256\n        /* \"contracts/Actor/MilkHub-smart-contract/inventory/MilkHubInventoryStorage.sol\":1671:1705  milkBatches[walletMilkHub][_id].id */\n      0x00\n      add\n      sload\n        /* \"contracts/Actor/MilkHub-smart-contract/inventory/MilkHubInventoryStorage.sol\":1707:1718  milkBatches */\n      0x01\n        /* \"contracts/Actor/MilkHub-smart-contract/inventory/MilkHubInventoryStorage.sol\":1707:1733  milkBatches[walletMilkHub] */\n      0x00\n        /* \"contracts/Actor/MilkHub-smart-contract/inventory/MilkHubInventoryStorage.sol\":1719:1732  walletMilkHub */\n      dup14\n        /* \"contracts/Actor/MilkHub-smart-contract/inventory/MilkHubInventoryStorage.sol\":1707:1733  milkBatches[walletMilkHub] */\n      0xffffffffffffffffffffffffffffffffffffffff\n      and\n      0xffffffffffffffffffffffffffffffffffffffff\n      and\n      dup2\n      mstore\n      0x20\n      add\n      swap1\n      dup2\n      mstore\n      0x20\n      add\n      0x00\n      keccak256\n        /* \"contracts/Actor/MilkHub-smart-contract/inventory/MilkHubInventoryStorage.sol\":1707:1738  milkBatches[walletMilkHub][_id] */\n      0x00\n        /* \"contracts/Actor/MilkHub-smart-contract/inventory/MilkHubInventoryStorage.sol\":1734:1737  _id */\n      dup6\n        /* \"contracts/Actor/MilkHub-smart-contract/inventory/MilkHubInventoryStorage.sol\":1707:1738  milkBatches[walletMilkHub][_id] */\n      dup2\n      mstore\n      0x20\n      add\n      swap1\n      dup2\n      mstore\n      0x20\n      add\n      0x00\n      keccak256\n        /* \"contracts/Actor/MilkHub-smart-contract/inventory/MilkHubInventoryStorage.sol\":1707:1747  milkBatches[walletMilkHub][_id].scadenza */\n      0x01\n      add\n        /* \"contracts/Actor/MilkHub-smart-contract/inventory/MilkHubInventoryStorage.sol\":1749:1760  milkBatches */\n      0x01\n        /* \"contracts/Actor/MilkHub-smart-contract/inventory/MilkHubInventoryStorage.sol\":1749:1775  milkBatches[walletMilkHub] */\n      0x00\n        /* \"contracts/Actor/MilkHub-smart-contract/inventory/MilkHubInventoryStorage.sol\":1761:1774  walletMilkHub */\n      dup15\n        /* \"contracts/Actor/MilkHub-smart-contract/inventory/MilkHubInventoryStorage.sol\":1749:1775  milkBatches[walletMilkHub] */\n      0xffffffffffffffffffffffffffffffffffffffff\n      and\n      0xffffffffffffffffffffffffffffffffffffffff\n      and\n      dup2\n      mstore\n      0x20\n      add\n      swap1\n      dup2\n      mstore\n      0x20\n      add\n      0x00\n      keccak256\n        /* \"contracts/Actor/MilkHub-smart-contract/inventory/MilkHubInventoryStorage.sol\":1749:1780  milkBatches[walletMilkHub][_id] */\n      0x00\n        /* \"contracts/Actor/MilkHub-smart-contract/inventory/MilkHubInventoryStorage.sol\":1776:1779  _id */\n      dup7\n        /* \"contracts/Actor/MilkHub-smart-contract/inventory/MilkHubInventoryStorage.sol\":1749:1780  milkBatches[walletMilkHub][_id] */\n      dup2\n      mstore\n      0x20\n      add\n      swap1\n      dup2\n      mstore\n      0x20\n      add\n      0x00\n      keccak256\n        /* \"contracts/Actor/MilkHub-smart-contract/inventory/MilkHubInventoryStorage.sol\":1749:1789  milkBatches[walletMilkHub][_id].quantity */\n      0x02\n      add\n      sload\n        /* \"contracts/Actor/MilkHub-smart-contract/inventory/MilkHubInventoryStorage.sol\":1790:1801  milkBatches */\n      0x01\n        /* \"contracts/Actor/MilkHub-smart-contract/inventory/MilkHubInventoryStorage.sol\":1790:1816  milkBatches[walletMilkHub] */\n      0x00\n        /* \"contracts/Actor/MilkHub-smart-contract/inventory/MilkHubInventoryStorage.sol\":1802:1815  walletMilkHub */\n      dup16\n        /* \"contracts/Actor/MilkHub-smart-contract/inventory/MilkHubInventoryStorage.sol\":1790:1816  milkBatches[walletMilkHub] */\n      0xffffffffffffffffffffffffffffffffffffffff\n      and\n      0xffffffffffffffffffffffffffffffffffffffff\n      and\n      dup2\n      mstore\n      0x20\n      add\n      swap1\n      dup2\n      mstore\n      0x20\n      add\n      0x00\n      keccak256\n        /* \"contracts/Actor/MilkHub-smart-contract/inventory/MilkHubInventoryStorage.sol\":1790:1821  milkBatches[walletMilkHub][_id] */\n      0x00\n        /* \"contracts/Actor/MilkHub-smart-contract/inventory/MilkHubInventoryStorage.sol\":1817:1820  _id */\n      dup8\n        /* \"contracts/Actor/MilkHub-smart-contract/inventory/MilkHubInventoryStorage.sol\":1790:1821  milkBatches[walletMilkHub][_id] */\n      dup2\n      mstore\n      0x20\n      add\n      swap1\n      dup2\n      mstore\n      0x20\n      add\n      0x00\n      keccak256\n        /* \"contracts/Actor/MilkHub-smart-contract/inventory/MilkHubInventoryStorage.sol\":1790:1827  milkBatches[walletMilkHub][_id].price */\n      0x03\n      add\n      sload\n        /* \"contracts/Actor/MilkHub-smart-contract/inventory/MilkHubInventoryStorage.sol\":1663:1828  return (milkBatches[walletMilkHub][_id].id, milkBatches[walletMilkHub][_id].scadenza, milkBatches[walletMilkHub][_id].quantity,milkBatches[walletMilkHub][_id].price) */\n      dup3\n      dup1\n      sload\n      tag_81\n      swap1\n      tag_62\n      jump\t// in\n    tag_81:\n      dup1\n      0x1f\n      add\n      0x20\n      dup1\n      swap2\n      div\n      mul\n      0x20\n      add\n      mload(0x40)\n      swap1\n      dup2\n      add\n      0x40\n      mstore\n      dup1\n      swap3\n      swap2\n      swap1\n      dup2\n      dup2\n      mstore\n      0x20\n      add\n      dup3\n      dup1\n      sload\n      tag_82\n      swap1\n      tag_62\n      jump\t// in\n    tag_82:\n      dup1\n      iszero\n      tag_83\n      jumpi\n      dup1\n      0x1f\n      lt\n      tag_84\n      jumpi\n      0x0100\n      dup1\n      dup4\n      sload\n      div\n      mul\n      dup4\n      mstore\n      swap2\n      0x20\n      add\n      swap2\n      jump(tag_83)\n    tag_84:\n      dup3\n      add\n      swap2\n      swap1\n      0x00\n      mstore\n      keccak256(0x00, 0x20)\n      swap1\n    tag_85:\n      dup2\n      sload\n      dup2\n      mstore\n      swap1\n      0x01\n      add\n      swap1\n      0x20\n      add\n      dup1\n      dup4\n      gt\n      tag_85\n      jumpi\n      dup3\n      swap1\n      sub\n      0x1f\n      and\n      dup3\n      add\n      swap2\n    tag_83:\n      pop\n      pop\n      pop\n      pop\n      pop\n      swap3\n      pop\n      swap7\n      pop\n      swap7\n      pop\n      swap7\n      pop\n      swap7\n      pop\n      pop\n      pop\n      pop\n        /* \"contracts/Actor/MilkHub-smart-contract/inventory/MilkHubInventoryStorage.sol\":762:1836  function addMilkBatch(address walletMilkHub, string memory _scadenza, uint256 _quantity, uint256 _price) external returns (uint256,string memory, uint256, uint256) {... */\n      swap5\n      pop\n      swap5\n      pop\n      swap5\n      pop\n      swap5\n      swap1\n      pop\n      jump\t// out\n        /* \"contracts/Actor/MilkHub-smart-contract/inventory/MilkHubInventoryStorage.sol\":3045:3504  function checkProduct(address ownerMilkBatch, uint256 _id_MilkBatch, uint256 quantityToBuy) external view  returns (bool){... */\n    tag_37:\n        /* \"contracts/Actor/MilkHub-smart-contract/inventory/MilkHubInventoryStorage.sol\":3161:3165  bool */\n      0x00\n        /* \"contracts/Actor/MilkHub-smart-contract/inventory/MilkHubInventoryStorage.sol\":3240:3253  _id_MilkBatch */\n      dup3\n        /* \"contracts/Actor/MilkHub-smart-contract/inventory/MilkHubInventoryStorage.sol\":3191:3202  milkBatches */\n      0x01\n        /* \"contracts/Actor/MilkHub-smart-contract/inventory/MilkHubInventoryStorage.sol\":3191:3218  milkBatches[ownerMilkBatch] */\n      0x00\n        /* \"contracts/Actor/MilkHub-smart-contract/inventory/MilkHubInventoryStorage.sol\":3203:3217  ownerMilkBatch */\n      dup7\n        /* \"contracts/Actor/MilkHub-smart-contract/inventory/MilkHubInventoryStorage.sol\":3191:3218  milkBatches[ownerMilkBatch] */\n      0xffffffffffffffffffffffffffffffffffffffff\n      and\n      0xffffffffffffffffffffffffffffffffffffffff\n      and\n      dup2\n      mstore\n      0x20\n      add\n      swap1\n      dup2\n      mstore\n      0x20\n      add\n      0x00\n      keccak256\n        /* \"contracts/Actor/MilkHub-smart-contract/inventory/MilkHubInventoryStorage.sol\":3191:3233  milkBatches[ownerMilkBatch][_id_MilkBatch] */\n      0x00\n        /* \"contracts/Actor/MilkHub-smart-contract/inventory/MilkHubInventoryStorage.sol\":3219:3232  _id_MilkBatch */\n      dup6\n        /* \"contracts/Actor/MilkHub-smart-contract/inventory/MilkHubInventoryStorage.sol\":3191:3233  milkBatches[ownerMilkBatch][_id_MilkBatch] */\n      dup2\n      mstore\n      0x20\n      add\n      swap1\n      dup2\n      mstore\n      0x20\n      add\n      0x00\n      keccak256\n        /* \"contracts/Actor/MilkHub-smart-contract/inventory/MilkHubInventoryStorage.sol\":3191:3236  milkBatches[ownerMilkBatch][_id_MilkBatch].id */\n      0x00\n      add\n      sload\n        /* \"contracts/Actor/MilkHub-smart-contract/inventory/MilkHubInventoryStorage.sol\":3191:3253  milkBatches[ownerMilkBatch][_id_MilkBatch].id == _id_MilkBatch */\n      eq\n        /* \"contracts/Actor/MilkHub-smart-contract/inventory/MilkHubInventoryStorage.sol\":3183:3279  require(milkBatches[ownerMilkBatch][_id_MilkBatch].id == _id_MilkBatch, \"Product non presente!\") */\n      tag_87\n      jumpi\n      mload(0x40)\n      0x08c379a000000000000000000000000000000000000000000000000000000000\n      dup2\n      mstore\n      0x04\n      add\n      tag_88\n      swap1\n      tag_89\n      jump\t// in\n    tag_88:\n      mload(0x40)\n      dup1\n      swap2\n      sub\n      swap1\n      revert\n    tag_87:\n        /* \"contracts/Actor/MilkHub-smart-contract/inventory/MilkHubInventoryStorage.sol\":3296:3326  MilkBatch storage milkBatchObj */\n      0x00\n        /* \"contracts/Actor/MilkHub-smart-contract/inventory/MilkHubInventoryStorage.sol\":3329:3340  milkBatches */\n      0x01\n        /* \"contracts/Actor/MilkHub-smart-contract/inventory/MilkHubInventoryStorage.sol\":3329:3356  milkBatches[ownerMilkBatch] */\n      0x00\n        /* \"contracts/Actor/MilkHub-smart-contract/inventory/MilkHubInventoryStorage.sol\":3341:3355  ownerMilkBatch */\n      dup7\n        /* \"contracts/Actor/MilkHub-smart-contract/inventory/MilkHubInventoryStorage.sol\":3329:3356  milkBatches[ownerMilkBatch] */\n      0xffffffffffffffffffffffffffffffffffffffff\n      and\n      0xffffffffffffffffffffffffffffffffffffffff\n      and\n      dup2\n      mstore\n      0x20\n      add\n      swap1\n      dup2\n      mstore\n      0x20\n      add\n      0x00\n      keccak256\n        /* \"contracts/Actor/MilkHub-smart-contract/inventory/MilkHubInventoryStorage.sol\":3329:3371  milkBatches[ownerMilkBatch][_id_MilkBatch] */\n      0x00\n        /* \"contracts/Actor/MilkHub-smart-contract/inventory/MilkHubInventoryStorage.sol\":3357:3370  _id_MilkBatch */\n      dup6\n        /* \"contracts/Actor/MilkHub-smart-contract/inventory/MilkHubInventoryStorage.sol\":3329:3371  milkBatches[ownerMilkBatch][_id_MilkBatch] */\n      dup2\n      mstore\n      0x20\n      add\n      swap1\n      dup2\n      mstore\n      0x20\n      add\n      0x00\n      keccak256\n        /* \"contracts/Actor/MilkHub-smart-contract/inventory/MilkHubInventoryStorage.sol\":3296:3371  MilkBatch storage milkBatchObj = milkBatches[ownerMilkBatch][_id_MilkBatch] */\n      swap1\n      pop\n        /* \"contracts/Actor/MilkHub-smart-contract/inventory/MilkHubInventoryStorage.sol\":3433:3446  quantityToBuy */\n      dup3\n        /* \"contracts/Actor/MilkHub-smart-contract/inventory/MilkHubInventoryStorage.sol\":3408:3420  milkBatchObj */\n      dup2\n        /* \"contracts/Actor/MilkHub-smart-contract/inventory/MilkHubInventoryStorage.sol\":3408:3429  milkBatchObj.quantity */\n      0x02\n      add\n      sload\n        /* \"contracts/Actor/MilkHub-smart-contract/inventory/MilkHubInventoryStorage.sol\":3408:3446  milkBatchObj.quantity >= quantityToBuy */\n      lt\n      iszero\n        /* \"contracts/Actor/MilkHub-smart-contract/inventory/MilkHubInventoryStorage.sol\":3400:3470  require(milkBatchObj.quantity >= quantityToBuy, \"Quantity not Valid!\") */\n      tag_90\n      jumpi\n      mload(0x40)\n      0x08c379a000000000000000000000000000000000000000000000000000000000\n      dup2\n      mstore\n      0x04\n      add\n      tag_91\n      swap1\n      tag_92\n      jump\t// in\n    tag_91:\n      mload(0x40)\n      dup1\n      swap2\n      sub\n      swap1\n      revert\n    tag_90:\n        /* \"contracts/Actor/MilkHub-smart-contract/inventory/MilkHubInventoryStorage.sol\":3492:3496  true */\n      0x01\n        /* \"contracts/Actor/MilkHub-smart-contract/inventory/MilkHubInventoryStorage.sol\":3485:3496  return true */\n      swap2\n      pop\n      pop\n        /* \"contracts/Actor/MilkHub-smart-contract/inventory/MilkHubInventoryStorage.sol\":3045:3504  function checkProduct(address ownerMilkBatch, uint256 _id_MilkBatch, uint256 quantityToBuy) external view  returns (bool){... */\n      swap4\n      swap3\n      pop\n      pop\n      pop\n      jump\t// out\n        /* \"contracts/Actor/MilkHub-smart-contract/inventory/MilkHubInventoryStorage.sol\":4189:4414  function getExpirationDate(address walletMilkHub, uint256 _id) external view returns(string memory) {... */\n    tag_41:\n        /* \"contracts/Actor/MilkHub-smart-contract/inventory/MilkHubInventoryStorage.sol\":4274:4287  string memory */\n      0x60\n        /* \"contracts/Actor/MilkHub-smart-contract/inventory/MilkHubInventoryStorage.sol\":4302:4328  MilkBatch memory milkBatch */\n      0x00\n        /* \"contracts/Actor/MilkHub-smart-contract/inventory/MilkHubInventoryStorage.sol\":4331:4342  milkBatches */\n      0x01\n        /* \"contracts/Actor/MilkHub-smart-contract/inventory/MilkHubInventoryStorage.sol\":4331:4357  milkBatches[walletMilkHub] */\n      0x00\n        /* \"contracts/Actor/MilkHub-smart-contract/inventory/MilkHubInventoryStorage.sol\":4343:4356  walletMilkHub */\n      dup6\n        /* \"contracts/Actor/MilkHub-smart-contract/inventory/MilkHubInventoryStorage.sol\":4331:4357  milkBatches[walletMilkHub] */\n      0xffffffffffffffffffffffffffffffffffffffff\n      and\n      0xffffffffffffffffffffffffffffffffffffffff\n      and\n      dup2\n      mstore\n      0x20\n      add\n      swap1\n      dup2\n      mstore\n      0x20\n      add\n      0x00\n      keccak256\n        /* \"contracts/Actor/MilkHub-smart-contract/inventory/MilkHubInventoryStorage.sol\":4331:4362  milkBatches[walletMilkHub][_id] */\n      0x00\n        /* \"contracts/Actor/MilkHub-smart-contract/inventory/MilkHubInventoryStorage.sol\":4358:4361  _id */\n      dup5\n        /* \"contracts/Actor/MilkHub-smart-contract/inventory/MilkHubInventoryStorage.sol\":4331:4362  milkBatches[walletMilkHub][_id] */\n      dup2\n      mstore\n      0x20\n      add\n      swap1\n      dup2\n      mstore\n      0x20\n      add\n      0x00\n      keccak256\n        /* \"contracts/Actor/MilkHub-smart-contract/inventory/MilkHubInventoryStorage.sol\":4302:4362  MilkBatch memory milkBatch = milkBatches[walletMilkHub][_id] */\n      mload(0x40)\n      dup1\n      0x80\n      add\n      0x40\n      mstore\n      swap1\n      dup2\n      0x00\n      dup3\n      add\n      sload\n      dup2\n      mstore\n      0x20\n      add\n      0x01\n      dup3\n      add\n      dup1\n      sload\n      tag_94\n      swap1\n      tag_62\n      jump\t// in\n    tag_94:\n      dup1\n      0x1f\n      add\n      0x20\n      dup1\n      swap2\n      div\n      mul\n      0x20\n      add\n      mload(0x40)\n      swap1\n      dup2\n      add\n      0x40\n      mstore\n      dup1\n      swap3\n      swap2\n      swap1\n      dup2\n      dup2\n      mstore\n      0x20\n      add\n      dup3\n      dup1\n      sload\n      tag_95\n      swap1\n      tag_62\n      jump\t// in\n    tag_95:\n      dup1\n      iszero\n      tag_96\n      jumpi\n      dup1\n      0x1f\n      lt\n      tag_97\n      jumpi\n      0x0100\n      dup1\n      dup4\n      sload\n      div\n      mul\n      dup4\n      mstore\n      swap2\n      0x20\n      add\n      swap2\n      jump(tag_96)\n    tag_97:\n      dup3\n      add\n      swap2\n      swap1\n      0x00\n      mstore\n      keccak256(0x00, 0x20)\n      swap1\n    tag_98:\n      dup2\n      sload\n      dup2\n      mstore\n      swap1\n      0x01\n      add\n      swap1\n      0x20\n      add\n      dup1\n      dup4\n      gt\n      tag_98\n      jumpi\n      dup3\n      swap1\n      sub\n      0x1f\n      and\n      dup3\n      add\n      swap2\n    tag_96:\n      pop\n      pop\n      pop\n      pop\n      pop\n      dup2\n      mstore\n      0x20\n      add\n      0x02\n      dup3\n      add\n      sload\n      dup2\n      mstore\n      0x20\n      add\n      0x03\n      dup3\n      add\n      sload\n      dup2\n      mstore\n      pop\n      pop\n      swap1\n      pop\n        /* \"contracts/Actor/MilkHub-smart-contract/inventory/MilkHubInventoryStorage.sol\":4380:4389  milkBatch */\n      dup1\n        /* \"contracts/Actor/MilkHub-smart-contract/inventory/MilkHubInventoryStorage.sol\":4380:4398  milkBatch.scadenza */\n      0x20\n      add\n      mload\n        /* \"contracts/Actor/MilkHub-smart-contract/inventory/MilkHubInventoryStorage.sol\":4373:4398  return milkBatch.scadenza */\n      swap2\n      pop\n      pop\n        /* \"contracts/Actor/MilkHub-smart-contract/inventory/MilkHubInventoryStorage.sol\":4189:4414  function getExpirationDate(address walletMilkHub, uint256 _id) external view returns(string memory) {... */\n      swap3\n      swap2\n      pop\n      pop\n      jump\t// out\n        /* \"contracts/Actor/MilkHub-smart-contract/inventory/MilkHubInventoryStorage.sol\":2295:3037  function deleteMilkBatch(address walletMilkHub, uint256 _id) external returns(bool value) {... */\n    tag_46:\n        /* \"contracts/Actor/MilkHub-smart-contract/inventory/MilkHubInventoryStorage.sol\":2373:2383  bool value */\n      0x00\n        /* \"contracts/Actor/MilkHub-smart-contract/inventory/MilkHubInventoryStorage.sol\":2398:2421  uint256 lastIdMilkBatch */\n      dup1\n        /* \"contracts/Actor/MilkHub-smart-contract/inventory/MilkHubInventoryStorage.sol\":2473:2484  milkBatches */\n      0x01\n        /* \"contracts/Actor/MilkHub-smart-contract/inventory/MilkHubInventoryStorage.sol\":2473:2499  milkBatches[walletMilkHub] */\n      0x00\n        /* \"contracts/Actor/MilkHub-smart-contract/inventory/MilkHubInventoryStorage.sol\":2485:2498  walletMilkHub */\n      dup6\n        /* \"contracts/Actor/MilkHub-smart-contract/inventory/MilkHubInventoryStorage.sol\":2473:2499  milkBatches[walletMilkHub] */\n      0xffffffffffffffffffffffffffffffffffffffff\n      and\n      0xffffffffffffffffffffffffffffffffffffffff\n      and\n      dup2\n      mstore\n      0x20\n      add\n      swap1\n      dup2\n      mstore\n      0x20\n      add\n      0x00\n      keccak256\n        /* \"contracts/Actor/MilkHub-smart-contract/inventory/MilkHubInventoryStorage.sol\":2473:2504  milkBatches[walletMilkHub][_id] */\n      0x00\n        /* \"contracts/Actor/MilkHub-smart-contract/inventory/MilkHubInventoryStorage.sol\":2500:2503  _id */\n      dup5\n        /* \"contracts/Actor/MilkHub-smart-contract/inventory/MilkHubInventoryStorage.sol\":2473:2504  milkBatches[walletMilkHub][_id] */\n      dup2\n      mstore\n      0x20\n      add\n      swap1\n      dup2\n      mstore\n      0x20\n      add\n      0x00\n      keccak256\n        /* \"contracts/Actor/MilkHub-smart-contract/inventory/MilkHubInventoryStorage.sol\":2473:2513  milkBatches[walletMilkHub][_id].scadenza */\n      0x01\n      add\n        /* \"contracts/Actor/MilkHub-smart-contract/inventory/MilkHubInventoryStorage.sol\":2528:2539  milkBatches */\n      0x01\n        /* \"contracts/Actor/MilkHub-smart-contract/inventory/MilkHubInventoryStorage.sol\":2528:2554  milkBatches[walletMilkHub] */\n      0x00\n        /* \"contracts/Actor/MilkHub-smart-contract/inventory/MilkHubInventoryStorage.sol\":2540:2553  walletMilkHub */\n      dup7\n        /* \"contracts/Actor/MilkHub-smart-contract/inventory/MilkHubInventoryStorage.sol\":2528:2554  milkBatches[walletMilkHub] */\n      0xffffffffffffffffffffffffffffffffffffffff\n      and\n      0xffffffffffffffffffffffffffffffffffffffff\n      and\n      dup2\n      mstore\n      0x20\n      add\n      swap1\n      dup2\n      mstore\n      0x20\n      add\n      0x00\n      keccak256\n        /* \"contracts/Actor/MilkHub-smart-contract/inventory/MilkHubInventoryStorage.sol\":2528:2559  milkBatches[walletMilkHub][_id] */\n      0x00\n        /* \"contracts/Actor/MilkHub-smart-contract/inventory/MilkHubInventoryStorage.sol\":2555:2558  _id */\n      dup6\n        /* \"contracts/Actor/MilkHub-smart-contract/inventory/MilkHubInventoryStorage.sol\":2528:2559  milkBatches[walletMilkHub][_id] */\n      dup2\n      mstore\n      0x20\n      add\n      swap1\n      dup2\n      mstore\n      0x20\n      add\n      0x00\n      keccak256\n        /* \"contracts/Actor/MilkHub-smart-contract/inventory/MilkHubInventoryStorage.sol\":2528:2568  milkBatches[walletMilkHub][_id].quantity */\n      0x02\n      add\n      sload\n        /* \"contracts/Actor/MilkHub-smart-contract/inventory/MilkHubInventoryStorage.sol\":2583:2594  milkBatches */\n      0x01\n        /* \"contracts/Actor/MilkHub-smart-contract/inventory/MilkHubInventoryStorage.sol\":2583:2609  milkBatches[walletMilkHub] */\n      0x00\n        /* \"contracts/Actor/MilkHub-smart-contract/inventory/MilkHubInventoryStorage.sol\":2595:2608  walletMilkHub */\n      dup8\n        /* \"contracts/Actor/MilkHub-smart-contract/inventory/MilkHubInventoryStorage.sol\":2583:2609  milkBatches[walletMilkHub] */\n      0xffffffffffffffffffffffffffffffffffffffff\n      and\n      0xffffffffffffffffffffffffffffffffffffffff\n      and\n      dup2\n      mstore\n      0x20\n      add\n      swap1\n      dup2\n      mstore\n      0x20\n      add\n      0x00\n      keccak256\n        /* \"contracts/Actor/MilkHub-smart-contract/inventory/MilkHubInventoryStorage.sol\":2583:2614  milkBatches[walletMilkHub][_id] */\n      0x00\n        /* \"contracts/Actor/MilkHub-smart-contract/inventory/MilkHubInventoryStorage.sol\":2610:2613  _id */\n      dup7\n        /* \"contracts/Actor/MilkHub-smart-contract/inventory/MilkHubInventoryStorage.sol\":2583:2614  milkBatches[walletMilkHub][_id] */\n      dup2\n      mstore\n      0x20\n      add\n      swap1\n      dup2\n      mstore\n      0x20\n      add\n      0x00\n      keccak256\n        /* \"contracts/Actor/MilkHub-smart-contract/inventory/MilkHubInventoryStorage.sol\":2583:2620  milkBatches[walletMilkHub][_id].price */\n      0x03\n      add\n      sload\n        /* \"contracts/Actor/MilkHub-smart-contract/inventory/MilkHubInventoryStorage.sol\":2635:2648  walletMilkHub */\n      dup7\n        /* \"contracts/Actor/MilkHub-smart-contract/inventory/MilkHubInventoryStorage.sol\":2442:2659  abi.encodePacked(... */\n      add(0x20, mload(0x40))\n      tag_100\n      swap5\n      swap4\n      swap3\n      swap2\n      swap1\n      tag_101\n      jump\t// in\n    tag_100:\n      mload(0x40)\n      0x20\n      dup2\n      dup4\n      sub\n      sub\n      dup2\n      mstore\n      swap1\n      0x40\n      mstore\n        /* \"contracts/Actor/MilkHub-smart-contract/inventory/MilkHubInventoryStorage.sol\":2432:2660  keccak256(abi.encodePacked(... */\n      dup1\n      mload\n      swap1\n      0x20\n      add\n      keccak256\n        /* \"contracts/Actor/MilkHub-smart-contract/inventory/MilkHubInventoryStorage.sol\":2424:2661  uint256(keccak256(abi.encodePacked(... */\n      0x00\n      shr\n        /* \"contracts/Actor/MilkHub-smart-contract/inventory/MilkHubInventoryStorage.sol\":2398:2661  uint256 lastIdMilkBatch = uint256(keccak256(abi.encodePacked(... */\n      swap1\n      pop\n        /* \"contracts/Actor/MilkHub-smart-contract/inventory/MilkHubInventoryStorage.sol\":2720:2735  lastIdMilkBatch */\n      dup1\n        /* \"contracts/Actor/MilkHub-smart-contract/inventory/MilkHubInventoryStorage.sol\":2682:2693  milkBatches */\n      0x01\n        /* \"contracts/Actor/MilkHub-smart-contract/inventory/MilkHubInventoryStorage.sol\":2682:2708  milkBatches[walletMilkHub] */\n      0x00\n        /* \"contracts/Actor/MilkHub-smart-contract/inventory/MilkHubInventoryStorage.sol\":2694:2707  walletMilkHub */\n      dup7\n        /* \"contracts/Actor/MilkHub-smart-contract/inventory/MilkHubInventoryStorage.sol\":2682:2708  milkBatches[walletMilkHub] */\n      0xffffffffffffffffffffffffffffffffffffffff\n      and\n      0xffffffffffffffffffffffffffffffffffffffff\n      and\n      dup2\n      mstore\n      0x20\n      add\n      swap1\n      dup2\n      mstore\n      0x20\n      add\n      0x00\n      keccak256\n        /* \"contracts/Actor/MilkHub-smart-contract/inventory/MilkHubInventoryStorage.sol\":2682:2713  milkBatches[walletMilkHub][_id] */\n      0x00\n        /* \"contracts/Actor/MilkHub-smart-contract/inventory/MilkHubInventoryStorage.sol\":2709:2712  _id */\n      dup6\n        /* \"contracts/Actor/MilkHub-smart-contract/inventory/MilkHubInventoryStorage.sol\":2682:2713  milkBatches[walletMilkHub][_id] */\n      dup2\n      mstore\n      0x20\n      add\n      swap1\n      dup2\n      mstore\n      0x20\n      add\n      0x00\n      keccak256\n        /* \"contracts/Actor/MilkHub-smart-contract/inventory/MilkHubInventoryStorage.sol\":2682:2716  milkBatches[walletMilkHub][_id].id */\n      0x00\n      add\n      sload\n        /* \"contracts/Actor/MilkHub-smart-contract/inventory/MilkHubInventoryStorage.sol\":2682:2735  milkBatches[walletMilkHub][_id].id == lastIdMilkBatch */\n      eq\n        /* \"contracts/Actor/MilkHub-smart-contract/inventory/MilkHubInventoryStorage.sol\":2674:2763  require(milkBatches[walletMilkHub][_id].id == lastIdMilkBatch, \"Utente non Autorizzato!\") */\n      tag_102\n      jumpi\n      mload(0x40)\n      0x08c379a000000000000000000000000000000000000000000000000000000000\n      dup2\n      mstore\n      0x04\n      add\n      tag_103\n      swap1\n      tag_104\n      jump\t// in\n    tag_103:\n      mload(0x40)\n      dup1\n      swap2\n      sub\n      swap1\n      revert\n    tag_102:\n        /* \"contracts/Actor/MilkHub-smart-contract/inventory/MilkHubInventoryStorage.sol\":2816:2827  milkBatches */\n      0x01\n        /* \"contracts/Actor/MilkHub-smart-contract/inventory/MilkHubInventoryStorage.sol\":2816:2842  milkBatches[walletMilkHub] */\n      0x00\n        /* \"contracts/Actor/MilkHub-smart-contract/inventory/MilkHubInventoryStorage.sol\":2828:2841  walletMilkHub */\n      dup6\n        /* \"contracts/Actor/MilkHub-smart-contract/inventory/MilkHubInventoryStorage.sol\":2816:2842  milkBatches[walletMilkHub] */\n      0xffffffffffffffffffffffffffffffffffffffff\n      and\n      0xffffffffffffffffffffffffffffffffffffffff\n      and\n      dup2\n      mstore\n      0x20\n      add\n      swap1\n      dup2\n      mstore\n      0x20\n      add\n      0x00\n      keccak256\n        /* \"contracts/Actor/MilkHub-smart-contract/inventory/MilkHubInventoryStorage.sol\":2816:2847  milkBatches[walletMilkHub][_id] */\n      0x00\n        /* \"contracts/Actor/MilkHub-smart-contract/inventory/MilkHubInventoryStorage.sol\":2843:2846  _id */\n      dup5\n        /* \"contracts/Actor/MilkHub-smart-contract/inventory/MilkHubInventoryStorage.sol\":2816:2847  milkBatches[walletMilkHub][_id] */\n      dup2\n      mstore\n      0x20\n      add\n      swap1\n      dup2\n      mstore\n      0x20\n      add\n      0x00\n      keccak256\n      0x00\n        /* \"contracts/Actor/MilkHub-smart-contract/inventory/MilkHubInventoryStorage.sol\":2809:2847  delete milkBatches[walletMilkHub][_id] */\n      dup1\n      dup3\n      add\n      0x00\n      swap1\n      sstore\n      0x01\n      dup3\n      add\n      0x00\n      tag_105\n      swap2\n      swap1\n      tag_106\n      jump\t// in\n    tag_105:\n      0x02\n      dup3\n      add\n      0x00\n      swap1\n      sstore\n      0x03\n      dup3\n      add\n      0x00\n      swap1\n      sstore\n      pop\n      pop\n        /* \"contracts/Actor/MilkHub-smart-contract/inventory/MilkHubInventoryStorage.sol\":2946:2947  0 */\n      0x00\n        /* \"contracts/Actor/MilkHub-smart-contract/inventory/MilkHubInventoryStorage.sol\":2907:2918  milkBatches */\n      0x01\n        /* \"contracts/Actor/MilkHub-smart-contract/inventory/MilkHubInventoryStorage.sol\":2907:2933  milkBatches[walletMilkHub] */\n      0x00\n        /* \"contracts/Actor/MilkHub-smart-contract/inventory/MilkHubInventoryStorage.sol\":2919:2932  walletMilkHub */\n      dup7\n        /* \"contracts/Actor/MilkHub-smart-contract/inventory/MilkHubInventoryStorage.sol\":2907:2933  milkBatches[walletMilkHub] */\n      0xffffffffffffffffffffffffffffffffffffffff\n      and\n      0xffffffffffffffffffffffffffffffffffffffff\n      and\n      dup2\n      mstore\n      0x20\n      add\n      swap1\n      dup2\n      mstore\n      0x20\n      add\n      0x00\n      keccak256\n        /* \"contracts/Actor/MilkHub-smart-contract/inventory/MilkHubInventoryStorage.sol\":2907:2938  milkBatches[walletMilkHub][_id] */\n      0x00\n        /* \"contracts/Actor/MilkHub-smart-contract/inventory/MilkHubInventoryStorage.sol\":2934:2937  _id */\n      dup6\n        /* \"contracts/Actor/MilkHub-smart-contract/inventory/MilkHubInventoryStorage.sol\":2907:2938  milkBatches[walletMilkHub][_id] */\n      dup2\n      mstore\n      0x20\n      add\n      swap1\n      dup2\n      mstore\n      0x20\n      add\n      0x00\n      keccak256\n        /* \"contracts/Actor/MilkHub-smart-contract/inventory/MilkHubInventoryStorage.sol\":2907:2941  milkBatches[walletMilkHub][_id].id */\n      0x00\n      add\n      sload\n        /* \"contracts/Actor/MilkHub-smart-contract/inventory/MilkHubInventoryStorage.sol\":2907:2947  milkBatches[walletMilkHub][_id].id  == 0 */\n      sub\n        /* \"contracts/Actor/MilkHub-smart-contract/inventory/MilkHubInventoryStorage.sol\":2904:3030  if(milkBatches[walletMilkHub][_id].id  == 0){... */\n      tag_107\n      jumpi\n        /* \"contracts/Actor/MilkHub-smart-contract/inventory/MilkHubInventoryStorage.sol\":2970:2974  true */\n      0x01\n        /* \"contracts/Actor/MilkHub-smart-contract/inventory/MilkHubInventoryStorage.sol\":2963:2974  return true */\n      swap2\n      pop\n      pop\n      jump(tag_99)\n        /* \"contracts/Actor/MilkHub-smart-contract/inventory/MilkHubInventoryStorage.sol\":2904:3030  if(milkBatches[walletMilkHub][_id].id  == 0){... */\n    tag_107:\n        /* \"contracts/Actor/MilkHub-smart-contract/inventory/MilkHubInventoryStorage.sol\":3013:3018  false */\n      0x00\n        /* \"contracts/Actor/MilkHub-smart-contract/inventory/MilkHubInventoryStorage.sol\":3006:3018  return false */\n      swap2\n      pop\n      pop\n        /* \"contracts/Actor/MilkHub-smart-contract/inventory/MilkHubInventoryStorage.sol\":2295:3037  function deleteMilkBatch(address walletMilkHub, uint256 _id) external returns(bool value) {... */\n    tag_99:\n      swap3\n      swap2\n      pop\n      pop\n      jump\t// out\n        /* \"contracts/Actor/MilkHub-smart-contract/inventory/MilkHubInventoryStorage.sol\":1874:2171  function getMilkBatch(address walletMilkHub, uint256 _id) external view returns (uint256, string memory, uint256, uint256) {... */\n    tag_50:\n        /* \"contracts/Actor/MilkHub-smart-contract/inventory/MilkHubInventoryStorage.sol\":1955:1962  uint256 */\n      0x00\n        /* \"contracts/Actor/MilkHub-smart-contract/inventory/MilkHubInventoryStorage.sol\":1964:1977  string memory */\n      0x60\n        /* \"contracts/Actor/MilkHub-smart-contract/inventory/MilkHubInventoryStorage.sol\":1979:1986  uint256 */\n      0x00\n        /* \"contracts/Actor/MilkHub-smart-contract/inventory/MilkHubInventoryStorage.sol\":1988:1995  uint256 */\n      dup1\n        /* \"contracts/Actor/MilkHub-smart-contract/inventory/MilkHubInventoryStorage.sol\":2010:2036  MilkBatch memory milkBatch */\n      0x00\n        /* \"contracts/Actor/MilkHub-smart-contract/inventory/MilkHubInventoryStorage.sol\":2039:2050  milkBatches */\n      0x01\n        /* \"contracts/Actor/MilkHub-smart-contract/inventory/MilkHubInventoryStorage.sol\":2039:2065  milkBatches[walletMilkHub] */\n      0x00\n        /* \"contracts/Actor/MilkHub-smart-contract/inventory/MilkHubInventoryStorage.sol\":2051:2064  walletMilkHub */\n      dup9\n        /* \"contracts/Actor/MilkHub-smart-contract/inventory/MilkHubInventoryStorage.sol\":2039:2065  milkBatches[walletMilkHub] */\n      0xffffffffffffffffffffffffffffffffffffffff\n      and\n      0xffffffffffffffffffffffffffffffffffffffff\n      and\n      dup2\n      mstore\n      0x20\n      add\n      swap1\n      dup2\n      mstore\n      0x20\n      add\n      0x00\n      keccak256\n        /* \"contracts/Actor/MilkHub-smart-contract/inventory/MilkHubInventoryStorage.sol\":2039:2070  milkBatches[walletMilkHub][_id] */\n      0x00\n        /* \"contracts/Actor/MilkHub-smart-contract/inventory/MilkHubInventoryStorage.sol\":2066:2069  _id */\n      dup8\n        /* \"contracts/Actor/MilkHub-smart-contract/inventory/MilkHubInventoryStorage.sol\":2039:2070  milkBatches[walletMilkHub][_id] */\n      dup2\n      mstore\n      0x20\n      add\n      swap1\n      dup2\n      mstore\n      0x20\n      add\n      0x00\n      keccak256\n        /* \"contracts/Actor/MilkHub-smart-contract/inventory/MilkHubInventoryStorage.sol\":2010:2070  MilkBatch memory milkBatch = milkBatches[walletMilkHub][_id] */\n      mload(0x40)\n      dup1\n      0x80\n      add\n      0x40\n      mstore\n      swap1\n      dup2\n      0x00\n      dup3\n      add\n      sload\n      dup2\n      mstore\n      0x20\n      add\n      0x01\n      dup3\n      add\n      dup1\n      sload\n      tag_110\n      swap1\n      tag_62\n      jump\t// in\n    tag_110:\n      dup1\n      0x1f\n      add\n      0x20\n      dup1\n      swap2\n      div\n      mul\n      0x20\n      add\n      mload(0x40)\n      swap1\n      dup2\n      add\n      0x40\n      mstore\n      dup1\n      swap3\n      swap2\n      swap1\n      dup2\n      dup2\n      mstore\n      0x20\n      add\n      dup3\n      dup1\n      sload\n      tag_111\n      swap1\n      tag_62\n      jump\t// in\n    tag_111:\n      dup1\n      iszero\n      tag_112\n      jumpi\n      dup1\n      0x1f\n      lt\n      tag_113\n      jumpi\n      0x0100\n      dup1\n      dup4\n      sload\n      div\n      mul\n      dup4\n      mstore\n      swap2\n      0x20\n      add\n      swap2\n      jump(tag_112)\n    tag_113:\n      dup3\n      add\n      swap2\n      swap1\n      0x00\n      mstore\n      keccak256(0x00, 0x20)\n      swap1\n    tag_114:\n      dup2\n      sload\n      dup2\n      mstore\n      swap1\n      0x01\n      add\n      swap1\n      0x20\n      add\n      dup1\n      dup4\n      gt\n      tag_114\n      jumpi\n      dup3\n      swap1\n      sub\n      0x1f\n      and\n      dup3\n      add\n      swap2\n    tag_112:\n      pop\n      pop\n      pop\n      pop\n      pop\n      dup2\n      mstore\n      0x20\n      add\n      0x02\n      dup3\n      add\n      sload\n      dup2\n      mstore\n      0x20\n      add\n      0x03\n      dup3\n      add\n      sload\n      dup2\n      mstore\n      pop\n      pop\n      swap1\n      pop\n        /* \"contracts/Actor/MilkHub-smart-contract/inventory/MilkHubInventoryStorage.sol\":2091:2100  milkBatch */\n      dup1\n        /* \"contracts/Actor/MilkHub-smart-contract/inventory/MilkHubInventoryStorage.sol\":2091:2103  milkBatch.id */\n      0x00\n      add\n      mload\n        /* \"contracts/Actor/MilkHub-smart-contract/inventory/MilkHubInventoryStorage.sol\":2105:2114  milkBatch */\n      dup2\n        /* \"contracts/Actor/MilkHub-smart-contract/inventory/MilkHubInventoryStorage.sol\":2105:2123  milkBatch.scadenza */\n      0x20\n      add\n      mload\n        /* \"contracts/Actor/MilkHub-smart-contract/inventory/MilkHubInventoryStorage.sol\":2125:2134  milkBatch */\n      dup3\n        /* \"contracts/Actor/MilkHub-smart-contract/inventory/MilkHubInventoryStorage.sol\":2125:2143  milkBatch.quantity */\n      0x40\n      add\n      mload\n        /* \"contracts/Actor/MilkHub-smart-contract/inventory/MilkHubInventoryStorage.sol\":2145:2154  milkBatch */\n      dup4\n        /* \"contracts/Actor/MilkHub-smart-contract/inventory/MilkHubInventoryStorage.sol\":2145:2160  milkBatch.price */\n      0x60\n      add\n      mload\n        /* \"contracts/Actor/MilkHub-smart-contract/inventory/MilkHubInventoryStorage.sol\":2083:2161  return (milkBatch.id, milkBatch.scadenza, milkBatch.quantity, milkBatch.price) */\n      swap5\n      pop\n      swap5\n      pop\n      swap5\n      pop\n      swap5\n      pop\n      pop\n        /* \"contracts/Actor/MilkHub-smart-contract/inventory/MilkHubInventoryStorage.sol\":1874:2171  function getMilkBatch(address walletMilkHub, uint256 _id) external view returns (uint256, string memory, uint256, uint256) {... */\n      swap3\n      swap6\n      swap2\n      swap5\n      pop\n      swap3\n      pop\n      jump\t// out\n        /* \"contracts/Actor/MilkHub-smart-contract/inventory/MilkHubInventoryStorage.sol\":5103:5279  function updateQuantity(address walletMilkHub, uint256 _id, uint256 _newQuantity) external  {... */\n    tag_54:\n        /* \"contracts/Actor/MilkHub-smart-contract/inventory/MilkHubInventoryStorage.sol\":5259:5271  _newQuantity */\n      dup1\n        /* \"contracts/Actor/MilkHub-smart-contract/inventory/MilkHubInventoryStorage.sol\":5216:5227  milkBatches */\n      0x01\n        /* \"contracts/Actor/MilkHub-smart-contract/inventory/MilkHubInventoryStorage.sol\":5216:5242  milkBatches[walletMilkHub] */\n      0x00\n        /* \"contracts/Actor/MilkHub-smart-contract/inventory/MilkHubInventoryStorage.sol\":5228:5241  walletMilkHub */\n      dup6\n        /* \"contracts/Actor/MilkHub-smart-contract/inventory/MilkHubInventoryStorage.sol\":5216:5242  milkBatches[walletMilkHub] */\n      0xffffffffffffffffffffffffffffffffffffffff\n      and\n      0xffffffffffffffffffffffffffffffffffffffff\n      and\n      dup2\n      mstore\n      0x20\n      add\n      swap1\n      dup2\n      mstore\n      0x20\n      add\n      0x00\n      keccak256\n        /* \"contracts/Actor/MilkHub-smart-contract/inventory/MilkHubInventoryStorage.sol\":5216:5247  milkBatches[walletMilkHub][_id] */\n      0x00\n        /* \"contracts/Actor/MilkHub-smart-contract/inventory/MilkHubInventoryStorage.sol\":5243:5246  _id */\n      dup5\n        /* \"contracts/Actor/MilkHub-smart-contract/inventory/MilkHubInventoryStorage.sol\":5216:5247  milkBatches[walletMilkHub][_id] */\n      dup2\n      mstore\n      0x20\n      add\n      swap1\n      dup2\n      mstore\n      0x20\n      add\n      0x00\n      keccak256\n        /* \"contracts/Actor/MilkHub-smart-contract/inventory/MilkHubInventoryStorage.sol\":5216:5256  milkBatches[walletMilkHub][_id].quantity */\n      0x02\n      add\n        /* \"contracts/Actor/MilkHub-smart-contract/inventory/MilkHubInventoryStorage.sol\":5216:5271  milkBatches[walletMilkHub][_id].quantity = _newQuantity */\n      dup2\n      swap1\n      sstore\n      pop\n        /* \"contracts/Actor/MilkHub-smart-contract/inventory/MilkHubInventoryStorage.sol\":5103:5279  function updateQuantity(address walletMilkHub, uint256 _id, uint256 _newQuantity) external  {... */\n      pop\n      pop\n      pop\n      jump\t// out\n    tag_106:\n      pop\n      dup1\n      sload\n      tag_116\n      swap1\n      tag_62\n      jump\t// in\n    tag_116:\n      0x00\n      dup3\n      sstore\n      dup1\n      0x1f\n      lt\n      tag_118\n      jumpi\n      pop\n      jump(tag_117)\n    tag_118:\n      0x1f\n      add\n      0x20\n      swap1\n      div\n      swap1\n      0x00\n      mstore\n      keccak256(0x00, 0x20)\n      swap1\n      dup2\n      add\n      swap1\n      tag_119\n      swap2\n      swap1\n      tag_120\n      jump\t// in\n    tag_119:\n    tag_117:\n      pop\n      jump\t// out\n    tag_120:\n    tag_121:\n      dup1\n      dup3\n      gt\n      iszero\n      tag_122\n      jumpi\n      0x00\n      dup2\n      0x00\n      swap1\n      sstore\n      pop\n      0x01\n      add\n      jump(tag_121)\n    tag_122:\n      pop\n      swap1\n      jump\t// out\n        /* \"#utility.yul\":7:82   */\n    tag_123:\n        /* \"#utility.yul\":40:46   */\n      0x00\n        /* \"#utility.yul\":73:75   */\n      0x40\n        /* \"#utility.yul\":67:76   */\n      mload\n        /* \"#utility.yul\":57:76   */\n      swap1\n      pop\n        /* \"#utility.yul\":7:82   */\n      swap1\n      jump\t// out\n        /* \"#utility.yul\":88:205   */\n    tag_124:\n        /* \"#utility.yul\":197:198   */\n      0x00\n        /* \"#utility.yul\":194:195   */\n      dup1\n        /* \"#utility.yul\":187:199   */\n      revert\n        /* \"#utility.yul\":211:328   */\n    tag_125:\n        /* \"#utility.yul\":320:321   */\n      0x00\n        /* \"#utility.yul\":317:318   */\n      dup1\n        /* \"#utility.yul\":310:322   */\n      revert\n        /* \"#utility.yul\":334:460   */\n    tag_126:\n        /* \"#utility.yul\":371:378   */\n      0x00\n        /* \"#utility.yul\":411:453   */\n      0xffffffffffffffffffffffffffffffffffffffff\n        /* \"#utility.yul\":404:409   */\n      dup3\n        /* \"#utility.yul\":400:454   */\n      and\n        /* \"#utility.yul\":389:454   */\n      swap1\n      pop\n        /* \"#utility.yul\":334:460   */\n      swap2\n      swap1\n      pop\n      jump\t// out\n        /* \"#utility.yul\":466:562   */\n    tag_127:\n        /* \"#utility.yul\":503:510   */\n      0x00\n        /* \"#utility.yul\":532:556   */\n      tag_191\n        /* \"#utility.yul\":550:555   */\n      dup3\n        /* \"#utility.yul\":532:556   */\n      tag_126\n      jump\t// in\n    tag_191:\n        /* \"#utility.yul\":521:556   */\n      swap1\n      pop\n        /* \"#utility.yul\":466:562   */\n      swap2\n      swap1\n      pop\n      jump\t// out\n        /* \"#utility.yul\":568:690   */\n    tag_128:\n        /* \"#utility.yul\":641:665   */\n      tag_193\n        /* \"#utility.yul\":659:664   */\n      dup2\n        /* \"#utility.yul\":641:665   */\n      tag_127\n      jump\t// in\n    tag_193:\n        /* \"#utility.yul\":634:639   */\n      dup2\n        /* \"#utility.yul\":631:666   */\n      eq\n        /* \"#utility.yul\":621:684   */\n      tag_194\n      jumpi\n        /* \"#utility.yul\":680:681   */\n      0x00\n        /* \"#utility.yul\":677:678   */\n      dup1\n        /* \"#utility.yul\":670:682   */\n      revert\n        /* \"#utility.yul\":621:684   */\n    tag_194:\n        /* \"#utility.yul\":568:690   */\n      pop\n      jump\t// out\n        /* \"#utility.yul\":696:835   */\n    tag_129:\n        /* \"#utility.yul\":742:747   */\n      0x00\n        /* \"#utility.yul\":780:786   */\n      dup2\n        /* \"#utility.yul\":767:787   */\n      calldataload\n        /* \"#utility.yul\":758:787   */\n      swap1\n      pop\n        /* \"#utility.yul\":796:829   */\n      tag_196\n        /* \"#utility.yul\":823:828   */\n      dup2\n        /* \"#utility.yul\":796:829   */\n      tag_128\n      jump\t// in\n    tag_196:\n        /* \"#utility.yul\":696:835   */\n      swap3\n      swap2\n      pop\n      pop\n      jump\t// out\n        /* \"#utility.yul\":841:918   */\n    tag_130:\n        /* \"#utility.yul\":878:885   */\n      0x00\n        /* \"#utility.yul\":907:912   */\n      dup2\n        /* \"#utility.yul\":896:912   */\n      swap1\n      pop\n        /* \"#utility.yul\":841:918   */\n      swap2\n      swap1\n      pop\n      jump\t// out\n        /* \"#utility.yul\":924:1046   */\n    tag_131:\n        /* \"#utility.yul\":997:1021   */\n      tag_199\n        /* \"#utility.yul\":1015:1020   */\n      dup2\n        /* \"#utility.yul\":997:1021   */\n      tag_130\n      jump\t// in\n    tag_199:\n        /* \"#utility.yul\":990:995   */\n      dup2\n        /* \"#utility.yul\":987:1022   */\n      eq\n        /* \"#utility.yul\":977:1040   */\n      tag_200\n      jumpi\n        /* \"#utility.yul\":1036:1037   */\n      0x00\n        /* \"#utility.yul\":1033:1034   */\n      dup1\n        /* \"#utility.yul\":1026:1038   */\n      revert\n        /* \"#utility.yul\":977:1040   */\n    tag_200:\n        /* \"#utility.yul\":924:1046   */\n      pop\n      jump\t// out\n        /* \"#utility.yul\":1052:1191   */\n    tag_132:\n        /* \"#utility.yul\":1098:1103   */\n      0x00\n        /* \"#utility.yul\":1136:1142   */\n      dup2\n        /* \"#utility.yul\":1123:1143   */\n      calldataload\n        /* \"#utility.yul\":1114:1143   */\n      swap1\n      pop\n        /* \"#utility.yul\":1152:1185   */\n      tag_202\n        /* \"#utility.yul\":1179:1184   */\n      dup2\n        /* \"#utility.yul\":1152:1185   */\n      tag_131\n      jump\t// in\n    tag_202:\n        /* \"#utility.yul\":1052:1191   */\n      swap3\n      swap2\n      pop\n      pop\n      jump\t// out\n        /* \"#utility.yul\":1197:1671   */\n    tag_15:\n        /* \"#utility.yul\":1265:1271   */\n      0x00\n        /* \"#utility.yul\":1273:1279   */\n      dup1\n        /* \"#utility.yul\":1322:1324   */\n      0x40\n        /* \"#utility.yul\":1310:1319   */\n      dup4\n        /* \"#utility.yul\":1301:1308   */\n      dup6\n        /* \"#utility.yul\":1297:1320   */\n      sub\n        /* \"#utility.yul\":1293:1325   */\n      slt\n        /* \"#utility.yul\":1290:1409   */\n      iszero\n      tag_204\n      jumpi\n        /* \"#utility.yul\":1328:1407   */\n      tag_205\n      tag_124\n      jump\t// in\n    tag_205:\n        /* \"#utility.yul\":1290:1409   */\n    tag_204:\n        /* \"#utility.yul\":1448:1449   */\n      0x00\n        /* \"#utility.yul\":1473:1526   */\n      tag_206\n        /* \"#utility.yul\":1518:1525   */\n      dup6\n        /* \"#utility.yul\":1509:1515   */\n      dup3\n        /* \"#utility.yul\":1498:1507   */\n      dup7\n        /* \"#utility.yul\":1494:1516   */\n      add\n        /* \"#utility.yul\":1473:1526   */\n      tag_129\n      jump\t// in\n    tag_206:\n        /* \"#utility.yul\":1463:1526   */\n      swap3\n      pop\n        /* \"#utility.yul\":1419:1536   */\n      pop\n        /* \"#utility.yul\":1575:1577   */\n      0x20\n        /* \"#utility.yul\":1601:1654   */\n      tag_207\n        /* \"#utility.yul\":1646:1653   */\n      dup6\n        /* \"#utility.yul\":1637:1643   */\n      dup3\n        /* \"#utility.yul\":1626:1635   */\n      dup7\n        /* \"#utility.yul\":1622:1644   */\n      add\n        /* \"#utility.yul\":1601:1654   */\n      tag_132\n      jump\t// in\n    tag_207:\n        /* \"#utility.yul\":1591:1654   */\n      swap2\n      pop\n        /* \"#utility.yul\":1546:1664   */\n      pop\n        /* \"#utility.yul\":1197:1671   */\n      swap3\n      pop\n      swap3\n      swap1\n      pop\n      jump\t// out\n        /* \"#utility.yul\":1677:1767   */\n    tag_133:\n        /* \"#utility.yul\":1711:1718   */\n      0x00\n        /* \"#utility.yul\":1754:1759   */\n      dup2\n        /* \"#utility.yul\":1747:1760   */\n      iszero\n        /* \"#utility.yul\":1740:1761   */\n      iszero\n        /* \"#utility.yul\":1729:1761   */\n      swap1\n      pop\n        /* \"#utility.yul\":1677:1767   */\n      swap2\n      swap1\n      pop\n      jump\t// out\n        /* \"#utility.yul\":1773:1882   */\n    tag_134:\n        /* \"#utility.yul\":1854:1875   */\n      tag_210\n        /* \"#utility.yul\":1869:1874   */\n      dup2\n        /* \"#utility.yul\":1854:1875   */\n      tag_133\n      jump\t// in\n    tag_210:\n        /* \"#utility.yul\":1849:1852   */\n      dup3\n        /* \"#utility.yul\":1842:1876   */\n      mstore\n        /* \"#utility.yul\":1773:1882   */\n      pop\n      pop\n      jump\t// out\n        /* \"#utility.yul\":1888:2098   */\n    tag_18:\n        /* \"#utility.yul\":1975:1979   */\n      0x00\n        /* \"#utility.yul\":2013:2015   */\n      0x20\n        /* \"#utility.yul\":2002:2011   */\n      dup3\n        /* \"#utility.yul\":1998:2016   */\n      add\n        /* \"#utility.yul\":1990:2016   */\n      swap1\n      pop\n        /* \"#utility.yul\":2026:2091   */\n      tag_212\n        /* \"#utility.yul\":2088:2089   */\n      0x00\n        /* \"#utility.yul\":2077:2086   */\n      dup4\n        /* \"#utility.yul\":2073:2090   */\n      add\n        /* \"#utility.yul\":2064:2070   */\n      dup5\n        /* \"#utility.yul\":2026:2091   */\n      tag_134\n      jump\t// in\n    tag_212:\n        /* \"#utility.yul\":1888:2098   */\n      swap3\n      swap2\n      pop\n      pop\n      jump\t// out\n        /* \"#utility.yul\":2104:2222   */\n    tag_135:\n        /* \"#utility.yul\":2191:2215   */\n      tag_214\n        /* \"#utility.yul\":2209:2214   */\n      dup2\n        /* \"#utility.yul\":2191:2215   */\n      tag_130\n      jump\t// in\n    tag_214:\n        /* \"#utility.yul\":2186:2189   */\n      dup3\n        /* \"#utility.yul\":2179:2216   */\n      mstore\n        /* \"#utility.yul\":2104:2222   */\n      pop\n      pop\n      jump\t// out\n        /* \"#utility.yul\":2228:2450   */\n    tag_23:\n        /* \"#utility.yul\":2321:2325   */\n      0x00\n        /* \"#utility.yul\":2359:2361   */\n      0x20\n        /* \"#utility.yul\":2348:2357   */\n      dup3\n        /* \"#utility.yul\":2344:2362   */\n      add\n        /* \"#utility.yul\":2336:2362   */\n      swap1\n      pop\n        /* \"#utility.yul\":2372:2443   */\n      tag_216\n        /* \"#utility.yul\":2440:2441   */\n      0x00\n        /* \"#utility.yul\":2429:2438   */\n      dup4\n        /* \"#utility.yul\":2425:2442   */\n      add\n        /* \"#utility.yul\":2416:2422   */\n      dup5\n        /* \"#utility.yul\":2372:2443   */\n      tag_135\n      jump\t// in\n    tag_216:\n        /* \"#utility.yul\":2228:2450   */\n      swap3\n      swap2\n      pop\n      pop\n      jump\t// out\n        /* \"#utility.yul\":2456:2573   */\n    tag_136:\n        /* \"#utility.yul\":2565:2566   */\n      0x00\n        /* \"#utility.yul\":2562:2563   */\n      dup1\n        /* \"#utility.yul\":2555:2567   */\n      revert\n        /* \"#utility.yul\":2579:2696   */\n    tag_137:\n        /* \"#utility.yul\":2688:2689   */\n      0x00\n        /* \"#utility.yul\":2685:2686   */\n      dup1\n        /* \"#utility.yul\":2678:2690   */\n      revert\n        /* \"#utility.yul\":2702:2804   */\n    tag_138:\n        /* \"#utility.yul\":2743:2749   */\n      0x00\n        /* \"#utility.yul\":2794:2796   */\n      0x1f\n        /* \"#utility.yul\":2790:2797   */\n      not\n        /* \"#utility.yul\":2785:2787   */\n      0x1f\n        /* \"#utility.yul\":2778:2783   */\n      dup4\n        /* \"#utility.yul\":2774:2788   */\n      add\n        /* \"#utility.yul\":2770:2798   */\n      and\n        /* \"#utility.yul\":2760:2798   */\n      swap1\n      pop\n        /* \"#utility.yul\":2702:2804   */\n      swap2\n      swap1\n      pop\n      jump\t// out\n        /* \"#utility.yul\":2810:2990   */\n    tag_139:\n        /* \"#utility.yul\":2858:2935   */\n      0x4e487b7100000000000000000000000000000000000000000000000000000000\n        /* \"#utility.yul\":2855:2856   */\n      0x00\n        /* \"#utility.yul\":2848:2936   */\n      mstore\n        /* \"#utility.yul\":2955:2959   */\n      0x41\n        /* \"#utility.yul\":2952:2953   */\n      0x04\n        /* \"#utility.yul\":2945:2960   */\n      mstore\n        /* \"#utility.yul\":2979:2983   */\n      0x24\n        /* \"#utility.yul\":2976:2977   */\n      0x00\n        /* \"#utility.yul\":2969:2984   */\n      revert\n        /* \"#utility.yul\":2996:3277   */\n    tag_140:\n        /* \"#utility.yul\":3079:3106   */\n      tag_222\n        /* \"#utility.yul\":3101:3105   */\n      dup3\n        /* \"#utility.yul\":3079:3106   */\n      tag_138\n      jump\t// in\n    tag_222:\n        /* \"#utility.yul\":3071:3077   */\n      dup2\n        /* \"#utility.yul\":3067:3107   */\n      add\n        /* \"#utility.yul\":3209:3215   */\n      dup2\n        /* \"#utility.yul\":3197:3207   */\n      dup2\n        /* \"#utility.yul\":3194:3216   */\n      lt\n        /* \"#utility.yul\":3173:3191   */\n      0xffffffffffffffff\n        /* \"#utility.yul\":3161:3171   */\n      dup3\n        /* \"#utility.yul\":3158:3192   */\n      gt\n        /* \"#utility.yul\":3155:3217   */\n      or\n        /* \"#utility.yul\":3152:3240   */\n      iszero\n      tag_223\n      jumpi\n        /* \"#utility.yul\":3220:3238   */\n      tag_224\n      tag_139\n      jump\t// in\n    tag_224:\n        /* \"#utility.yul\":3152:3240   */\n    tag_223:\n        /* \"#utility.yul\":3260:3270   */\n      dup1\n        /* \"#utility.yul\":3256:3258   */\n      0x40\n        /* \"#utility.yul\":3249:3271   */\n      mstore\n        /* \"#utility.yul\":3039:3277   */\n      pop\n        /* \"#utility.yul\":2996:3277   */\n      pop\n      pop\n      jump\t// out\n        /* \"#utility.yul\":3283:3412   */\n    tag_141:\n        /* \"#utility.yul\":3317:3323   */\n      0x00\n        /* \"#utility.yul\":3344:3364   */\n      tag_226\n      tag_123\n      jump\t// in\n    tag_226:\n        /* \"#utility.yul\":3334:3364   */\n      swap1\n      pop\n        /* \"#utility.yul\":3373:3406   */\n      tag_227\n        /* \"#utility.yul\":3401:3405   */\n      dup3\n        /* \"#utility.yul\":3393:3399   */\n      dup3\n        /* \"#utility.yul\":3373:3406   */\n      tag_140\n      jump\t// in\n    tag_227:\n        /* \"#utility.yul\":3283:3412   */\n      swap2\n      swap1\n      pop\n      jump\t// out\n        /* \"#utility.yul\":3418:3726   */\n    tag_142:\n        /* \"#utility.yul\":3480:3484   */\n      0x00\n        /* \"#utility.yul\":3570:3588   */\n      0xffffffffffffffff\n        /* \"#utility.yul\":3562:3568   */\n      dup3\n        /* \"#utility.yul\":3559:3589   */\n      gt\n        /* \"#utility.yul\":3556:3612   */\n      iszero\n      tag_229\n      jumpi\n        /* \"#utility.yul\":3592:3610   */\n      tag_230\n      tag_139\n      jump\t// in\n    tag_230:\n        /* \"#utility.yul\":3556:3612   */\n    tag_229:\n        /* \"#utility.yul\":3630:3659   */\n      tag_231\n        /* \"#utility.yul\":3652:3658   */\n      dup3\n        /* \"#utility.yul\":3630:3659   */\n      tag_138\n      jump\t// in\n    tag_231:\n        /* \"#utility.yul\":3622:3659   */\n      swap1\n      pop\n        /* \"#utility.yul\":3714:3718   */\n      0x20\n        /* \"#utility.yul\":3708:3712   */\n      dup2\n        /* \"#utility.yul\":3704:3719   */\n      add\n        /* \"#utility.yul\":3696:3719   */\n      swap1\n      pop\n        /* \"#utility.yul\":3418:3726   */\n      swap2\n      swap1\n      pop\n      jump\t// out\n        /* \"#utility.yul\":3732:3878   */\n    tag_143:\n        /* \"#utility.yul\":3829:3835   */\n      dup3\n        /* \"#utility.yul\":3824:3827   */\n      dup2\n        /* \"#utility.yul\":3819:3822   */\n      dup4\n        /* \"#utility.yul\":3806:3836   */\n      calldatacopy\n        /* \"#utility.yul\":3870:3871   */\n      0x00\n        /* \"#utility.yul\":3861:3867   */\n      dup4\n        /* \"#utility.yul\":3856:3859   */\n      dup4\n        /* \"#utility.yul\":3852:3868   */\n      add\n        /* \"#utility.yul\":3845:3872   */\n      mstore\n        /* \"#utility.yul\":3732:3878   */\n      pop\n      pop\n      pop\n      jump\t// out\n        /* \"#utility.yul\":3884:4309   */\n    tag_144:\n        /* \"#utility.yul\":3962:3967   */\n      0x00\n        /* \"#utility.yul\":3987:4053   */\n      tag_234\n        /* \"#utility.yul\":4003:4052   */\n      tag_235\n        /* \"#utility.yul\":4045:4051   */\n      dup5\n        /* \"#utility.yul\":4003:4052   */\n      tag_142\n      jump\t// in\n    tag_235:\n        /* \"#utility.yul\":3987:4053   */\n      tag_141\n      jump\t// in\n    tag_234:\n        /* \"#utility.yul\":3978:4053   */\n      swap1\n      pop\n        /* \"#utility.yul\":4076:4082   */\n      dup3\n        /* \"#utility.yul\":4069:4074   */\n      dup2\n        /* \"#utility.yul\":4062:4083   */\n      mstore\n        /* \"#utility.yul\":4114:4118   */\n      0x20\n        /* \"#utility.yul\":4107:4112   */\n      dup2\n        /* \"#utility.yul\":4103:4119   */\n      add\n        /* \"#utility.yul\":4152:4155   */\n      dup5\n        /* \"#utility.yul\":4143:4149   */\n      dup5\n        /* \"#utility.yul\":4138:4141   */\n      dup5\n        /* \"#utility.yul\":4134:4150   */\n      add\n        /* \"#utility.yul\":4131:4156   */\n      gt\n        /* \"#utility.yul\":4128:4240   */\n      iszero\n      tag_236\n      jumpi\n        /* \"#utility.yul\":4159:4238   */\n      tag_237\n      tag_137\n      jump\t// in\n    tag_237:\n        /* \"#utility.yul\":4128:4240   */\n    tag_236:\n        /* \"#utility.yul\":4249:4303   */\n      tag_238\n        /* \"#utility.yul\":4296:4302   */\n      dup5\n        /* \"#utility.yul\":4291:4294   */\n      dup3\n        /* \"#utility.yul\":4286:4289   */\n      dup6\n        /* \"#utility.yul\":4249:4303   */\n      tag_143\n      jump\t// in\n    tag_238:\n        /* \"#utility.yul\":3968:4309   */\n      pop\n        /* \"#utility.yul\":3884:4309   */\n      swap4\n      swap3\n      pop\n      pop\n      pop\n      jump\t// out\n        /* \"#utility.yul\":4329:4669   */\n    tag_145:\n        /* \"#utility.yul\":4385:4390   */\n      0x00\n        /* \"#utility.yul\":4434:4437   */\n      dup3\n        /* \"#utility.yul\":4427:4431   */\n      0x1f\n        /* \"#utility.yul\":4419:4425   */\n      dup4\n        /* \"#utility.yul\":4415:4432   */\n      add\n        /* \"#utility.yul\":4411:4438   */\n      slt\n        /* \"#utility.yul\":4401:4523   */\n      tag_240\n      jumpi\n        /* \"#utility.yul\":4442:4521   */\n      tag_241\n      tag_136\n      jump\t// in\n    tag_241:\n        /* \"#utility.yul\":4401:4523   */\n    tag_240:\n        /* \"#utility.yul\":4559:4565   */\n      dup2\n        /* \"#utility.yul\":4546:4566   */\n      calldataload\n        /* \"#utility.yul\":4584:4663   */\n      tag_242\n        /* \"#utility.yul\":4659:4662   */\n      dup5\n        /* \"#utility.yul\":4651:4657   */\n      dup3\n        /* \"#utility.yul\":4644:4648   */\n      0x20\n        /* \"#utility.yul\":4636:4642   */\n      dup7\n        /* \"#utility.yul\":4632:4649   */\n      add\n        /* \"#utility.yul\":4584:4663   */\n      tag_144\n      jump\t// in\n    tag_242:\n        /* \"#utility.yul\":4575:4663   */\n      swap2\n      pop\n        /* \"#utility.yul\":4391:4669   */\n      pop\n        /* \"#utility.yul\":4329:4669   */\n      swap3\n      swap2\n      pop\n      pop\n      jump\t// out\n        /* \"#utility.yul\":4675:5620   */\n    tag_30:\n        /* \"#utility.yul\":4771:4777   */\n      0x00\n        /* \"#utility.yul\":4779:4785   */\n      dup1\n        /* \"#utility.yul\":4787:4793   */\n      0x00\n        /* \"#utility.yul\":4795:4801   */\n      dup1\n        /* \"#utility.yul\":4844:4847   */\n      0x80\n        /* \"#utility.yul\":4832:4841   */\n      dup6\n        /* \"#utility.yul\":4823:4830   */\n      dup8\n        /* \"#utility.yul\":4819:4842   */\n      sub\n        /* \"#utility.yul\":4815:4848   */\n      slt\n        /* \"#utility.yul\":4812:4932   */\n      iszero\n      tag_244\n      jumpi\n        /* \"#utility.yul\":4851:4930   */\n      tag_245\n      tag_124\n      jump\t// in\n    tag_245:\n        /* \"#utility.yul\":4812:4932   */\n    tag_244:\n        /* \"#utility.yul\":4971:4972   */\n      0x00\n        /* \"#utility.yul\":4996:5049   */\n      tag_246\n        /* \"#utility.yul\":5041:5048   */\n      dup8\n        /* \"#utility.yul\":5032:5038   */\n      dup3\n        /* \"#utility.yul\":5021:5030   */\n      dup9\n        /* \"#utility.yul\":5017:5039   */\n      add\n        /* \"#utility.yul\":4996:5049   */\n      tag_129\n      jump\t// in\n    tag_246:\n        /* \"#utility.yul\":4986:5049   */\n      swap5\n      pop\n        /* \"#utility.yul\":4942:5059   */\n      pop\n        /* \"#utility.yul\":5126:5128   */\n      0x20\n        /* \"#utility.yul\":5115:5124   */\n      dup6\n        /* \"#utility.yul\":5111:5129   */\n      add\n        /* \"#utility.yul\":5098:5130   */\n      calldataload\n        /* \"#utility.yul\":5157:5175   */\n      0xffffffffffffffff\n        /* \"#utility.yul\":5149:5155   */\n      dup2\n        /* \"#utility.yul\":5146:5176   */\n      gt\n        /* \"#utility.yul\":5143:5260   */\n      iszero\n      tag_247\n      jumpi\n        /* \"#utility.yul\":5179:5258   */\n      tag_248\n      tag_125\n      jump\t// in\n    tag_248:\n        /* \"#utility.yul\":5143:5260   */\n    tag_247:\n        /* \"#utility.yul\":5284:5347   */\n      tag_249\n        /* \"#utility.yul\":5339:5346   */\n      dup8\n        /* \"#utility.yul\":5330:5336   */\n      dup3\n        /* \"#utility.yul\":5319:5328   */\n      dup9\n        /* \"#utility.yul\":5315:5337   */\n      add\n        /* \"#utility.yul\":5284:5347   */\n      tag_145\n      jump\t// in\n    tag_249:\n        /* \"#utility.yul\":5274:5347   */\n      swap4\n      pop\n        /* \"#utility.yul\":5069:5357   */\n      pop\n        /* \"#utility.yul\":5396:5398   */\n      0x40\n        /* \"#utility.yul\":5422:5475   */\n      tag_250\n        /* \"#utility.yul\":5467:5474   */\n      dup8\n        /* \"#utility.yul\":5458:5464   */\n      dup3\n        /* \"#utility.yul\":5447:5456   */\n      dup9\n        /* \"#utility.yul\":5443:5465   */\n      add\n        /* \"#utility.yul\":5422:5475   */\n      tag_132\n      jump\t// in\n    tag_250:\n        /* \"#utility.yul\":5412:5475   */\n      swap3\n      pop\n        /* \"#utility.yul\":5367:5485   */\n      pop\n        /* \"#utility.yul\":5524:5526   */\n      0x60\n        /* \"#utility.yul\":5550:5603   */\n      tag_251\n        /* \"#utility.yul\":5595:5602   */\n      dup8\n        /* \"#utility.yul\":5586:5592   */\n      dup3\n        /* \"#utility.yul\":5575:5584   */\n      dup9\n        /* \"#utility.yul\":5571:5593   */\n      add\n        /* \"#utility.yul\":5550:5603   */\n      tag_132\n      jump\t// in\n    tag_251:\n        /* \"#utility.yul\":5540:5603   */\n      swap2\n      pop\n        /* \"#utility.yul\":5495:5613   */\n      pop\n        /* \"#utility.yul\":4675:5620   */\n      swap3\n      swap6\n      swap2\n      swap5\n      pop\n      swap3\n      pop\n      jump\t// out\n        /* \"#utility.yul\":5626:5725   */\n    tag_146:\n        /* \"#utility.yul\":5678:5684   */\n      0x00\n        /* \"#utility.yul\":5712:5717   */\n      dup2\n        /* \"#utility.yul\":5706:5718   */\n      mload\n        /* \"#utility.yul\":5696:5718   */\n      swap1\n      pop\n        /* \"#utility.yul\":5626:5725   */\n      swap2\n      swap1\n      pop\n      jump\t// out\n        /* \"#utility.yul\":5731:5900   */\n    tag_147:\n        /* \"#utility.yul\":5815:5826   */\n      0x00\n        /* \"#utility.yul\":5849:5855   */\n      dup3\n        /* \"#utility.yul\":5844:5847   */\n      dup3\n        /* \"#utility.yul\":5837:5856   */\n      mstore\n        /* \"#utility.yul\":5889:5893   */\n      0x20\n        /* \"#utility.yul\":5884:5887   */\n      dup3\n        /* \"#utility.yul\":5880:5894   */\n      add\n        /* \"#utility.yul\":5865:5894   */\n      swap1\n      pop\n        /* \"#utility.yul\":5731:5900   */\n      swap3\n      swap2\n      pop\n      pop\n      jump\t// out\n        /* \"#utility.yul\":5906:6152   */\n    tag_148:\n        /* \"#utility.yul\":5987:5988   */\n      0x00\n        /* \"#utility.yul\":5997:6110   */\n    tag_255:\n        /* \"#utility.yul\":6011:6017   */\n      dup4\n        /* \"#utility.yul\":6008:6009   */\n      dup2\n        /* \"#utility.yul\":6005:6018   */\n      lt\n        /* \"#utility.yul\":5997:6110   */\n      iszero\n      tag_257\n      jumpi\n        /* \"#utility.yul\":6096:6097   */\n      dup1\n        /* \"#utility.yul\":6091:6094   */\n      dup3\n        /* \"#utility.yul\":6087:6098   */\n      add\n        /* \"#utility.yul\":6081:6099   */\n      mload\n        /* \"#utility.yul\":6077:6078   */\n      dup2\n        /* \"#utility.yul\":6072:6075   */\n      dup5\n        /* \"#utility.yul\":6068:6079   */\n      add\n        /* \"#utility.yul\":6061:6100   */\n      mstore\n        /* \"#utility.yul\":6033:6035   */\n      0x20\n        /* \"#utility.yul\":6030:6031   */\n      dup2\n        /* \"#utility.yul\":6026:6036   */\n      add\n        /* \"#utility.yul\":6021:6036   */\n      swap1\n      pop\n        /* \"#utility.yul\":5997:6110   */\n      jump(tag_255)\n    tag_257:\n        /* \"#utility.yul\":6144:6145   */\n      0x00\n        /* \"#utility.yul\":6135:6141   */\n      dup5\n        /* \"#utility.yul\":6130:6133   */\n      dup5\n        /* \"#utility.yul\":6126:6142   */\n      add\n        /* \"#utility.yul\":6119:6146   */\n      mstore\n        /* \"#utility.yul\":5968:6152   */\n      pop\n        /* \"#utility.yul\":5906:6152   */\n      pop\n      pop\n      pop\n      jump\t// out\n        /* \"#utility.yul\":6158:6535   */\n    tag_149:\n        /* \"#utility.yul\":6246:6249   */\n      0x00\n        /* \"#utility.yul\":6274:6313   */\n      tag_259\n        /* \"#utility.yul\":6307:6312   */\n      dup3\n        /* \"#utility.yul\":6274:6313   */\n      tag_146\n      jump\t// in\n    tag_259:\n        /* \"#utility.yul\":6329:6400   */\n      tag_260\n        /* \"#utility.yul\":6393:6399   */\n      dup2\n        /* \"#utility.yul\":6388:6391   */\n      dup6\n        /* \"#utility.yul\":6329:6400   */\n      tag_147\n      jump\t// in\n    tag_260:\n        /* \"#utility.yul\":6322:6400   */\n      swap4\n      pop\n        /* \"#utility.yul\":6409:6474   */\n      tag_261\n        /* \"#utility.yul\":6467:6473   */\n      dup2\n        /* \"#utility.yul\":6462:6465   */\n      dup6\n        /* \"#utility.yul\":6455:6459   */\n      0x20\n        /* \"#utility.yul\":6448:6453   */\n      dup7\n        /* \"#utility.yul\":6444:6460   */\n      add\n        /* \"#utility.yul\":6409:6474   */\n      tag_148\n      jump\t// in\n    tag_261:\n        /* \"#utility.yul\":6499:6528   */\n      tag_262\n        /* \"#utility.yul\":6521:6527   */\n      dup2\n        /* \"#utility.yul\":6499:6528   */\n      tag_138\n      jump\t// in\n    tag_262:\n        /* \"#utility.yul\":6494:6497   */\n      dup5\n        /* \"#utility.yul\":6490:6529   */\n      add\n        /* \"#utility.yul\":6483:6529   */\n      swap2\n      pop\n        /* \"#utility.yul\":6250:6535   */\n      pop\n        /* \"#utility.yul\":6158:6535   */\n      swap3\n      swap2\n      pop\n      pop\n      jump\t// out\n        /* \"#utility.yul\":6541:7185   */\n    tag_33:\n        /* \"#utility.yul\":6738:6742   */\n      0x00\n        /* \"#utility.yul\":6776:6779   */\n      0x80\n        /* \"#utility.yul\":6765:6774   */\n      dup3\n        /* \"#utility.yul\":6761:6780   */\n      add\n        /* \"#utility.yul\":6753:6780   */\n      swap1\n      pop\n        /* \"#utility.yul\":6790:6861   */\n      tag_264\n        /* \"#utility.yul\":6858:6859   */\n      0x00\n        /* \"#utility.yul\":6847:6856   */\n      dup4\n        /* \"#utility.yul\":6843:6860   */\n      add\n        /* \"#utility.yul\":6834:6840   */\n      dup8\n        /* \"#utility.yul\":6790:6861   */\n      tag_135\n      jump\t// in\n    tag_264:\n        /* \"#utility.yul\":6908:6917   */\n      dup2\n        /* \"#utility.yul\":6902:6906   */\n      dup2\n        /* \"#utility.yul\":6898:6918   */\n      sub\n        /* \"#utility.yul\":6893:6895   */\n      0x20\n        /* \"#utility.yul\":6882:6891   */\n      dup4\n        /* \"#utility.yul\":6878:6896   */\n      add\n        /* \"#utility.yul\":6871:6919   */\n      mstore\n        /* \"#utility.yul\":6936:7014   */\n      tag_265\n        /* \"#utility.yul\":7009:7013   */\n      dup2\n        /* \"#utility.yul\":7000:7006   */\n      dup7\n        /* \"#utility.yul\":6936:7014   */\n      tag_149\n      jump\t// in\n    tag_265:\n        /* \"#utility.yul\":6928:7014   */\n      swap1\n      pop\n        /* \"#utility.yul\":7024:7096   */\n      tag_266\n        /* \"#utility.yul\":7092:7094   */\n      0x40\n        /* \"#utility.yul\":7081:7090   */\n      dup4\n        /* \"#utility.yul\":7077:7095   */\n      add\n        /* \"#utility.yul\":7068:7074   */\n      dup6\n        /* \"#utility.yul\":7024:7096   */\n      tag_135\n      jump\t// in\n    tag_266:\n        /* \"#utility.yul\":7106:7178   */\n      tag_267\n        /* \"#utility.yul\":7174:7176   */\n      0x60\n        /* \"#utility.yul\":7163:7172   */\n      dup4\n        /* \"#utility.yul\":7159:7177   */\n      add\n        /* \"#utility.yul\":7150:7156   */\n      dup5\n        /* \"#utility.yul\":7106:7178   */\n      tag_135\n      jump\t// in\n    tag_267:\n        /* \"#utility.yul\":6541:7185   */\n      swap6\n      swap5\n      pop\n      pop\n      pop\n      pop\n      pop\n      jump\t// out\n        /* \"#utility.yul\":7191:7810   */\n    tag_36:\n        /* \"#utility.yul\":7268:7274   */\n      0x00\n        /* \"#utility.yul\":7276:7282   */\n      dup1\n        /* \"#utility.yul\":7284:7290   */\n      0x00\n        /* \"#utility.yul\":7333:7335   */\n      0x60\n        /* \"#utility.yul\":7321:7330   */\n      dup5\n        /* \"#utility.yul\":7312:7319   */\n      dup7\n        /* \"#utility.yul\":7308:7331   */\n      sub\n        /* \"#utility.yul\":7304:7336   */\n      slt\n        /* \"#utility.yul\":7301:7420   */\n      iszero\n      tag_269\n      jumpi\n        /* \"#utility.yul\":7339:7418   */\n      tag_270\n      tag_124\n      jump\t// in\n    tag_270:\n        /* \"#utility.yul\":7301:7420   */\n    tag_269:\n        /* \"#utility.yul\":7459:7460   */\n      0x00\n        /* \"#utility.yul\":7484:7537   */\n      tag_271\n        /* \"#utility.yul\":7529:7536   */\n      dup7\n        /* \"#utility.yul\":7520:7526   */\n      dup3\n        /* \"#utility.yul\":7509:7518   */\n      dup8\n        /* \"#utility.yul\":7505:7527   */\n      add\n        /* \"#utility.yul\":7484:7537   */\n      tag_129\n      jump\t// in\n    tag_271:\n        /* \"#utility.yul\":7474:7537   */\n      swap4\n      pop\n        /* \"#utility.yul\":7430:7547   */\n      pop\n        /* \"#utility.yul\":7586:7588   */\n      0x20\n        /* \"#utility.yul\":7612:7665   */\n      tag_272\n        /* \"#utility.yul\":7657:7664   */\n      dup7\n        /* \"#utility.yul\":7648:7654   */\n      dup3\n        /* \"#utility.yul\":7637:7646   */\n      dup8\n        /* \"#utility.yul\":7633:7655   */\n      add\n        /* \"#utility.yul\":7612:7665   */\n      tag_132\n      jump\t// in\n    tag_272:\n        /* \"#utility.yul\":7602:7665   */\n      swap3\n      pop\n        /* \"#utility.yul\":7557:7675   */\n      pop\n        /* \"#utility.yul\":7714:7716   */\n      0x40\n        /* \"#utility.yul\":7740:7793   */\n      tag_273\n        /* \"#utility.yul\":7785:7792   */\n      dup7\n        /* \"#utility.yul\":7776:7782   */\n      dup3\n        /* \"#utility.yul\":7765:7774   */\n      dup8\n        /* \"#utility.yul\":7761:7783   */\n      add\n        /* \"#utility.yul\":7740:7793   */\n      tag_132\n      jump\t// in\n    tag_273:\n        /* \"#utility.yul\":7730:7793   */\n      swap2\n      pop\n        /* \"#utility.yul\":7685:7803   */\n      pop\n        /* \"#utility.yul\":7191:7810   */\n      swap3\n      pop\n      swap3\n      pop\n      swap3\n      jump\t// out\n        /* \"#utility.yul\":7816:8129   */\n    tag_43:\n        /* \"#utility.yul\":7929:7933   */\n      0x00\n        /* \"#utility.yul\":7967:7969   */\n      0x20\n        /* \"#utility.yul\":7956:7965   */\n      dup3\n        /* \"#utility.yul\":7952:7970   */\n      add\n        /* \"#utility.yul\":7944:7970   */\n      swap1\n      pop\n        /* \"#utility.yul\":8016:8025   */\n      dup2\n        /* \"#utility.yul\":8010:8014   */\n      dup2\n        /* \"#utility.yul\":8006:8026   */\n      sub\n        /* \"#utility.yul\":8002:8003   */\n      0x00\n        /* \"#utility.yul\":7991:8000   */\n      dup4\n        /* \"#utility.yul\":7987:8004   */\n      add\n        /* \"#utility.yul\":7980:8027   */\n      mstore\n        /* \"#utility.yul\":8044:8122   */\n      tag_275\n        /* \"#utility.yul\":8117:8121   */\n      dup2\n        /* \"#utility.yul\":8108:8114   */\n      dup5\n        /* \"#utility.yul\":8044:8122   */\n      tag_149\n      jump\t// in\n    tag_275:\n        /* \"#utility.yul\":8036:8122   */\n      swap1\n      pop\n        /* \"#utility.yul\":7816:8129   */\n      swap3\n      swap2\n      pop\n      pop\n      jump\t// out\n        /* \"#utility.yul\":8135:8308   */\n    tag_150:\n        /* \"#utility.yul\":8275:8300   */\n      0x4944204d696c6b4261746368204e6f742056616c696421000000000000000000\n        /* \"#utility.yul\":8271:8272   */\n      0x00\n        /* \"#utility.yul\":8263:8269   */\n      dup3\n        /* \"#utility.yul\":8259:8273   */\n      add\n        /* \"#utility.yul\":8252:8301   */\n      mstore\n        /* \"#utility.yul\":8135:8308   */\n      pop\n      jump\t// out\n        /* \"#utility.yul\":8314:8680   */\n    tag_151:\n        /* \"#utility.yul\":8456:8459   */\n      0x00\n        /* \"#utility.yul\":8477:8544   */\n      tag_278\n        /* \"#utility.yul\":8541:8543   */\n      0x17\n        /* \"#utility.yul\":8536:8539   */\n      dup4\n        /* \"#utility.yul\":8477:8544   */\n      tag_147\n      jump\t// in\n    tag_278:\n        /* \"#utility.yul\":8470:8544   */\n      swap2\n      pop\n        /* \"#utility.yul\":8553:8646   */\n      tag_279\n        /* \"#utility.yul\":8642:8645   */\n      dup3\n        /* \"#utility.yul\":8553:8646   */\n      tag_150\n      jump\t// in\n    tag_279:\n        /* \"#utility.yul\":8671:8673   */\n      0x20\n        /* \"#utility.yul\":8666:8669   */\n      dup3\n        /* \"#utility.yul\":8662:8674   */\n      add\n        /* \"#utility.yul\":8655:8674   */\n      swap1\n      pop\n        /* \"#utility.yul\":8314:8680   */\n      swap2\n      swap1\n      pop\n      jump\t// out\n        /* \"#utility.yul\":8686:9105   */\n    tag_59:\n        /* \"#utility.yul\":8852:8856   */\n      0x00\n        /* \"#utility.yul\":8890:8892   */\n      0x20\n        /* \"#utility.yul\":8879:8888   */\n      dup3\n        /* \"#utility.yul\":8875:8893   */\n      add\n        /* \"#utility.yul\":8867:8893   */\n      swap1\n      pop\n        /* \"#utility.yul\":8939:8948   */\n      dup2\n        /* \"#utility.yul\":8933:8937   */\n      dup2\n        /* \"#utility.yul\":8929:8949   */\n      sub\n        /* \"#utility.yul\":8925:8926   */\n      0x00\n        /* \"#utility.yul\":8914:8923   */\n      dup4\n        /* \"#utility.yul\":8910:8927   */\n      add\n        /* \"#utility.yul\":8903:8950   */\n      mstore\n        /* \"#utility.yul\":8967:9098   */\n      tag_281\n        /* \"#utility.yul\":9093:9097   */\n      dup2\n        /* \"#utility.yul\":8967:9098   */\n      tag_151\n      jump\t// in\n    tag_281:\n        /* \"#utility.yul\":8959:9098   */\n      swap1\n      pop\n        /* \"#utility.yul\":8686:9105   */\n      swap2\n      swap1\n      pop\n      jump\t// out\n        /* \"#utility.yul\":9111:9291   */\n    tag_152:\n        /* \"#utility.yul\":9159:9236   */\n      0x4e487b7100000000000000000000000000000000000000000000000000000000\n        /* \"#utility.yul\":9156:9157   */\n      0x00\n        /* \"#utility.yul\":9149:9237   */\n      mstore\n        /* \"#utility.yul\":9256:9260   */\n      0x22\n        /* \"#utility.yul\":9253:9254   */\n      0x04\n        /* \"#utility.yul\":9246:9261   */\n      mstore\n        /* \"#utility.yul\":9280:9284   */\n      0x24\n        /* \"#utility.yul\":9277:9278   */\n      0x00\n        /* \"#utility.yul\":9270:9285   */\n      revert\n        /* \"#utility.yul\":9297:9617   */\n    tag_62:\n        /* \"#utility.yul\":9341:9347   */\n      0x00\n        /* \"#utility.yul\":9378:9379   */\n      0x02\n        /* \"#utility.yul\":9372:9376   */\n      dup3\n        /* \"#utility.yul\":9368:9380   */\n      div\n        /* \"#utility.yul\":9358:9380   */\n      swap1\n      pop\n        /* \"#utility.yul\":9425:9426   */\n      0x01\n        /* \"#utility.yul\":9419:9423   */\n      dup3\n        /* \"#utility.yul\":9415:9427   */\n      and\n        /* \"#utility.yul\":9446:9464   */\n      dup1\n        /* \"#utility.yul\":9436:9517   */\n      tag_284\n      jumpi\n        /* \"#utility.yul\":9502:9506   */\n      0x7f\n        /* \"#utility.yul\":9494:9500   */\n      dup3\n        /* \"#utility.yul\":9490:9507   */\n      and\n        /* \"#utility.yul\":9480:9507   */\n      swap2\n      pop\n        /* \"#utility.yul\":9436:9517   */\n    tag_284:\n        /* \"#utility.yul\":9564:9566   */\n      0x20\n        /* \"#utility.yul\":9556:9562   */\n      dup3\n        /* \"#utility.yul\":9553:9567   */\n      lt\n        /* \"#utility.yul\":9533:9551   */\n      dup2\n        /* \"#utility.yul\":9530:9568   */\n      sub\n        /* \"#utility.yul\":9527:9611   */\n      tag_285\n      jumpi\n        /* \"#utility.yul\":9583:9601   */\n      tag_286\n      tag_152\n      jump\t// in\n    tag_286:\n        /* \"#utility.yul\":9527:9611   */\n    tag_285:\n        /* \"#utility.yul\":9348:9617   */\n      pop\n        /* \"#utility.yul\":9297:9617   */\n      swap2\n      swap1\n      pop\n      jump\t// out\n        /* \"#utility.yul\":9623:9771   */\n    tag_153:\n        /* \"#utility.yul\":9725:9736   */\n      0x00\n        /* \"#utility.yul\":9762:9765   */\n      dup2\n        /* \"#utility.yul\":9747:9765   */\n      swap1\n      pop\n        /* \"#utility.yul\":9623:9771   */\n      swap3\n      swap2\n      pop\n      pop\n      jump\t// out\n        /* \"#utility.yul\":9777:10167   */\n    tag_154:\n        /* \"#utility.yul\":9883:9886   */\n      0x00\n        /* \"#utility.yul\":9911:9950   */\n      tag_289\n        /* \"#utility.yul\":9944:9949   */\n      dup3\n        /* \"#utility.yul\":9911:9950   */\n      tag_146\n      jump\t// in\n    tag_289:\n        /* \"#utility.yul\":9966:10055   */\n      tag_290\n        /* \"#utility.yul\":10048:10054   */\n      dup2\n        /* \"#utility.yul\":10043:10046   */\n      dup6\n        /* \"#utility.yul\":9966:10055   */\n      tag_153\n      jump\t// in\n    tag_290:\n        /* \"#utility.yul\":9959:10055   */\n      swap4\n      pop\n        /* \"#utility.yul\":10064:10129   */\n      tag_291\n        /* \"#utility.yul\":10122:10128   */\n      dup2\n        /* \"#utility.yul\":10117:10120   */\n      dup6\n        /* \"#utility.yul\":10110:10114   */\n      0x20\n        /* \"#utility.yul\":10103:10108   */\n      dup7\n        /* \"#utility.yul\":10099:10115   */\n      add\n        /* \"#utility.yul\":10064:10129   */\n      tag_148\n      jump\t// in\n    tag_291:\n        /* \"#utility.yul\":10154:10160   */\n      dup1\n        /* \"#utility.yul\":10149:10152   */\n      dup5\n        /* \"#utility.yul\":10145:10161   */\n      add\n        /* \"#utility.yul\":10138:10161   */\n      swap2\n      pop\n        /* \"#utility.yul\":9887:10167   */\n      pop\n        /* \"#utility.yul\":9777:10167   */\n      swap3\n      swap2\n      pop\n      pop\n      jump\t// out\n        /* \"#utility.yul\":10173:10252   */\n    tag_155:\n        /* \"#utility.yul\":10212:10219   */\n      0x00\n        /* \"#utility.yul\":10241:10246   */\n      dup2\n        /* \"#utility.yul\":10230:10246   */\n      swap1\n      pop\n        /* \"#utility.yul\":10173:10252   */\n      swap2\n      swap1\n      pop\n      jump\t// out\n        /* \"#utility.yul\":10258:10415   */\n    tag_156:\n        /* \"#utility.yul\":10363:10408   */\n      tag_294\n        /* \"#utility.yul\":10383:10407   */\n      tag_295\n        /* \"#utility.yul\":10401:10406   */\n      dup3\n        /* \"#utility.yul\":10383:10407   */\n      tag_130\n      jump\t// in\n    tag_295:\n        /* \"#utility.yul\":10363:10408   */\n      tag_155\n      jump\t// in\n    tag_294:\n        /* \"#utility.yul\":10358:10361   */\n      dup3\n        /* \"#utility.yul\":10351:10409   */\n      mstore\n        /* \"#utility.yul\":10258:10415   */\n      pop\n      pop\n      jump\t// out\n        /* \"#utility.yul\":10421:10515   */\n    tag_157:\n        /* \"#utility.yul\":10454:10462   */\n      0x00\n        /* \"#utility.yul\":10502:10507   */\n      dup2\n        /* \"#utility.yul\":10498:10500   */\n      0x60\n        /* \"#utility.yul\":10494:10508   */\n      shl\n        /* \"#utility.yul\":10473:10508   */\n      swap1\n      pop\n        /* \"#utility.yul\":10421:10515   */\n      swap2\n      swap1\n      pop\n      jump\t// out\n        /* \"#utility.yul\":10521:10615   */\n    tag_158:\n        /* \"#utility.yul\":10560:10567   */\n      0x00\n        /* \"#utility.yul\":10589:10609   */\n      tag_298\n        /* \"#utility.yul\":10603:10608   */\n      dup3\n        /* \"#utility.yul\":10589:10609   */\n      tag_157\n      jump\t// in\n    tag_298:\n        /* \"#utility.yul\":10578:10609   */\n      swap1\n      pop\n        /* \"#utility.yul\":10521:10615   */\n      swap2\n      swap1\n      pop\n      jump\t// out\n        /* \"#utility.yul\":10621:10721   */\n    tag_159:\n        /* \"#utility.yul\":10660:10667   */\n      0x00\n        /* \"#utility.yul\":10689:10715   */\n      tag_300\n        /* \"#utility.yul\":10709:10714   */\n      dup3\n        /* \"#utility.yul\":10689:10715   */\n      tag_158\n      jump\t// in\n    tag_300:\n        /* \"#utility.yul\":10678:10715   */\n      swap1\n      pop\n        /* \"#utility.yul\":10621:10721   */\n      swap2\n      swap1\n      pop\n      jump\t// out\n        /* \"#utility.yul\":10727:10884   */\n    tag_160:\n        /* \"#utility.yul\":10832:10877   */\n      tag_302\n        /* \"#utility.yul\":10852:10876   */\n      tag_303\n        /* \"#utility.yul\":10870:10875   */\n      dup3\n        /* \"#utility.yul\":10852:10876   */\n      tag_127\n      jump\t// in\n    tag_303:\n        /* \"#utility.yul\":10832:10877   */\n      tag_159\n      jump\t// in\n    tag_302:\n        /* \"#utility.yul\":10827:10830   */\n      dup3\n        /* \"#utility.yul\":10820:10878   */\n      mstore\n        /* \"#utility.yul\":10727:10884   */\n      pop\n      pop\n      jump\t// out\n        /* \"#utility.yul\":10890:11588   */\n    tag_75:\n        /* \"#utility.yul\":11106:11109   */\n      0x00\n        /* \"#utility.yul\":11128:11223   */\n      tag_305\n        /* \"#utility.yul\":11219:11222   */\n      dup3\n        /* \"#utility.yul\":11210:11216   */\n      dup8\n        /* \"#utility.yul\":11128:11223   */\n      tag_154\n      jump\t// in\n    tag_305:\n        /* \"#utility.yul\":11121:11223   */\n      swap2\n      pop\n        /* \"#utility.yul\":11233:11308   */\n      tag_306\n        /* \"#utility.yul\":11304:11307   */\n      dup3\n        /* \"#utility.yul\":11295:11301   */\n      dup7\n        /* \"#utility.yul\":11233:11308   */\n      tag_156\n      jump\t// in\n    tag_306:\n        /* \"#utility.yul\":11333:11335   */\n      0x20\n        /* \"#utility.yul\":11328:11331   */\n      dup3\n        /* \"#utility.yul\":11324:11336   */\n      add\n        /* \"#utility.yul\":11317:11336   */\n      swap2\n      pop\n        /* \"#utility.yul\":11346:11421   */\n      tag_307\n        /* \"#utility.yul\":11417:11420   */\n      dup3\n        /* \"#utility.yul\":11408:11414   */\n      dup6\n        /* \"#utility.yul\":11346:11421   */\n      tag_156\n      jump\t// in\n    tag_307:\n        /* \"#utility.yul\":11446:11448   */\n      0x20\n        /* \"#utility.yul\":11441:11444   */\n      dup3\n        /* \"#utility.yul\":11437:11449   */\n      add\n        /* \"#utility.yul\":11430:11449   */\n      swap2\n      pop\n        /* \"#utility.yul\":11459:11534   */\n      tag_308\n        /* \"#utility.yul\":11530:11533   */\n      dup3\n        /* \"#utility.yul\":11521:11527   */\n      dup5\n        /* \"#utility.yul\":11459:11534   */\n      tag_160\n      jump\t// in\n    tag_308:\n        /* \"#utility.yul\":11559:11561   */\n      0x14\n        /* \"#utility.yul\":11554:11557   */\n      dup3\n        /* \"#utility.yul\":11550:11562   */\n      add\n        /* \"#utility.yul\":11543:11562   */\n      swap2\n      pop\n        /* \"#utility.yul\":11579:11582   */\n      dup2\n        /* \"#utility.yul\":11572:11582   */\n      swap1\n      pop\n        /* \"#utility.yul\":10890:11588   */\n      swap6\n      swap5\n      pop\n      pop\n      pop\n      pop\n      pop\n      jump\t// out\n        /* \"#utility.yul\":11594:11776   */\n    tag_161:\n        /* \"#utility.yul\":11734:11768   */\n      0x50657a7a6f20646920466f726d616767696f20676961272050726573656e7465\n        /* \"#utility.yul\":11730:11731   */\n      0x00\n        /* \"#utility.yul\":11722:11728   */\n      dup3\n        /* \"#utility.yul\":11718:11732   */\n      add\n        /* \"#utility.yul\":11711:11769   */\n      mstore\n        /* \"#utility.yul\":11594:11776   */\n      pop\n      jump\t// out\n        /* \"#utility.yul\":11782:12148   */\n    tag_162:\n        /* \"#utility.yul\":11924:11927   */\n      0x00\n        /* \"#utility.yul\":11945:12012   */\n      tag_311\n        /* \"#utility.yul\":12009:12011   */\n      0x20\n        /* \"#utility.yul\":12004:12007   */\n      dup4\n        /* \"#utility.yul\":11945:12012   */\n      tag_147\n      jump\t// in\n    tag_311:\n        /* \"#utility.yul\":11938:12012   */\n      swap2\n      pop\n        /* \"#utility.yul\":12021:12114   */\n      tag_312\n        /* \"#utility.yul\":12110:12113   */\n      dup3\n        /* \"#utility.yul\":12021:12114   */\n      tag_161\n      jump\t// in\n    tag_312:\n        /* \"#utility.yul\":12139:12141   */\n      0x20\n        /* \"#utility.yul\":12134:12137   */\n      dup3\n        /* \"#utility.yul\":12130:12142   */\n      add\n        /* \"#utility.yul\":12123:12142   */\n      swap1\n      pop\n        /* \"#utility.yul\":11782:12148   */\n      swap2\n      swap1\n      pop\n      jump\t// out\n        /* \"#utility.yul\":12154:12573   */\n    tag_78:\n        /* \"#utility.yul\":12320:12324   */\n      0x00\n        /* \"#utility.yul\":12358:12360   */\n      0x20\n        /* \"#utility.yul\":12347:12356   */\n      dup3\n        /* \"#utility.yul\":12343:12361   */\n      add\n        /* \"#utility.yul\":12335:12361   */\n      swap1\n      pop\n        /* \"#utility.yul\":12407:12416   */\n      dup2\n        /* \"#utility.yul\":12401:12405   */\n      dup2\n        /* \"#utility.yul\":12397:12417   */\n      sub\n        /* \"#utility.yul\":12393:12394   */\n      0x00\n        /* \"#utility.yul\":12382:12391   */\n      dup4\n        /* \"#utility.yul\":12378:12395   */\n      add\n        /* \"#utility.yul\":12371:12418   */\n      mstore\n        /* \"#utility.yul\":12435:12566   */\n      tag_314\n        /* \"#utility.yul\":12561:12565   */\n      dup2\n        /* \"#utility.yul\":12435:12566   */\n      tag_162\n      jump\t// in\n    tag_314:\n        /* \"#utility.yul\":12427:12566   */\n      swap1\n      pop\n        /* \"#utility.yul\":12154:12573   */\n      swap2\n      swap1\n      pop\n      jump\t// out\n        /* \"#utility.yul\":12579:12720   */\n    tag_163:\n        /* \"#utility.yul\":12628:12632   */\n      0x00\n        /* \"#utility.yul\":12651:12654   */\n      dup2\n        /* \"#utility.yul\":12643:12654   */\n      swap1\n      pop\n        /* \"#utility.yul\":12674:12677   */\n      dup2\n        /* \"#utility.yul\":12671:12672   */\n      0x00\n        /* \"#utility.yul\":12664:12678   */\n      mstore\n        /* \"#utility.yul\":12708:12712   */\n      0x20\n        /* \"#utility.yul\":12705:12706   */\n      0x00\n        /* \"#utility.yul\":12695:12713   */\n      keccak256\n        /* \"#utility.yul\":12687:12713   */\n      swap1\n      pop\n        /* \"#utility.yul\":12579:12720   */\n      swap2\n      swap1\n      pop\n      jump\t// out\n        /* \"#utility.yul\":12726:12819   */\n    tag_164:\n        /* \"#utility.yul\":12763:12769   */\n      0x00\n        /* \"#utility.yul\":12810:12812   */\n      0x20\n        /* \"#utility.yul\":12805:12807   */\n      0x1f\n        /* \"#utility.yul\":12798:12803   */\n      dup4\n        /* \"#utility.yul\":12794:12808   */\n      add\n        /* \"#utility.yul\":12790:12813   */\n      div\n        /* \"#utility.yul\":12780:12813   */\n      swap1\n      pop\n        /* \"#utility.yul\":12726:12819   */\n      swap2\n      swap1\n      pop\n      jump\t// out\n        /* \"#utility.yul\":12825:12932   */\n    tag_165:\n        /* \"#utility.yul\":12869:12877   */\n      0x00\n        /* \"#utility.yul\":12919:12924   */\n      dup3\n        /* \"#utility.yul\":12913:12917   */\n      dup3\n        /* \"#utility.yul\":12909:12925   */\n      shl\n        /* \"#utility.yul\":12888:12925   */\n      swap1\n      pop\n        /* \"#utility.yul\":12825:12932   */\n      swap3\n      swap2\n      pop\n      pop\n      jump\t// out\n        /* \"#utility.yul\":12938:13331   */\n    tag_166:\n        /* \"#utility.yul\":13007:13013   */\n      0x00\n        /* \"#utility.yul\":13057:13058   */\n      0x08\n        /* \"#utility.yul\":13045:13055   */\n      dup4\n        /* \"#utility.yul\":13041:13059   */\n      mul\n        /* \"#utility.yul\":13080:13177   */\n      tag_319\n        /* \"#utility.yul\":13110:13176   */\n      0xffffffffffffffffffffffffffffffffffffffffffffffffffffffffffffffff\n        /* \"#utility.yul\":13099:13108   */\n      dup3\n        /* \"#utility.yul\":13080:13177   */\n      tag_165\n      jump\t// in\n    tag_319:\n        /* \"#utility.yul\":13198:13237   */\n      tag_320\n        /* \"#utility.yul\":13228:13236   */\n      dup7\n        /* \"#utility.yul\":13217:13226   */\n      dup4\n        /* \"#utility.yul\":13198:13237   */\n      tag_165\n      jump\t// in\n    tag_320:\n        /* \"#utility.yul\":13186:13237   */\n      swap6\n      pop\n        /* \"#utility.yul\":13270:13274   */\n      dup1\n        /* \"#utility.yul\":13266:13275   */\n      not\n        /* \"#utility.yul\":13259:13264   */\n      dup5\n        /* \"#utility.yul\":13255:13276   */\n      and\n        /* \"#utility.yul\":13246:13276   */\n      swap4\n      pop\n        /* \"#utility.yul\":13319:13323   */\n      dup1\n        /* \"#utility.yul\":13309:13317   */\n      dup7\n        /* \"#utility.yul\":13305:13324   */\n      and\n        /* \"#utility.yul\":13298:13303   */\n      dup5\n        /* \"#utility.yul\":13295:13325   */\n      or\n        /* \"#utility.yul\":13285:13325   */\n      swap3\n      pop\n        /* \"#utility.yul\":13014:13331   */\n      pop\n      pop\n        /* \"#utility.yul\":12938:13331   */\n      swap4\n      swap3\n      pop\n      pop\n      pop\n      jump\t// out\n        /* \"#utility.yul\":13337:13397   */\n    tag_167:\n        /* \"#utility.yul\":13365:13368   */\n      0x00\n        /* \"#utility.yul\":13386:13391   */\n      dup2\n        /* \"#utility.yul\":13379:13391   */\n      swap1\n      pop\n        /* \"#utility.yul\":13337:13397   */\n      swap2\n      swap1\n      pop\n      jump\t// out\n        /* \"#utility.yul\":13403:13545   */\n    tag_168:\n        /* \"#utility.yul\":13453:13462   */\n      0x00\n        /* \"#utility.yul\":13486:13539   */\n      tag_323\n        /* \"#utility.yul\":13504:13538   */\n      tag_324\n        /* \"#utility.yul\":13513:13537   */\n      tag_325\n        /* \"#utility.yul\":13531:13536   */\n      dup5\n        /* \"#utility.yul\":13513:13537   */\n      tag_130\n      jump\t// in\n    tag_325:\n        /* \"#utility.yul\":13504:13538   */\n      tag_167\n      jump\t// in\n    tag_324:\n        /* \"#utility.yul\":13486:13539   */\n      tag_130\n      jump\t// in\n    tag_323:\n        /* \"#utility.yul\":13473:13539   */\n      swap1\n      pop\n        /* \"#utility.yul\":13403:13545   */\n      swap2\n      swap1\n      pop\n      jump\t// out\n        /* \"#utility.yul\":13551:13626   */\n    tag_169:\n        /* \"#utility.yul\":13594:13597   */\n      0x00\n        /* \"#utility.yul\":13615:13620   */\n      dup2\n        /* \"#utility.yul\":13608:13620   */\n      swap1\n      pop\n        /* \"#utility.yul\":13551:13626   */\n      swap2\n      swap1\n      pop\n      jump\t// out\n        /* \"#utility.yul\":13632:13901   */\n    tag_170:\n        /* \"#utility.yul\":13742:13781   */\n      tag_328\n        /* \"#utility.yul\":13773:13780   */\n      dup4\n        /* \"#utility.yul\":13742:13781   */\n      tag_168\n      jump\t// in\n    tag_328:\n        /* \"#utility.yul\":13803:13894   */\n      tag_329\n        /* \"#utility.yul\":13852:13893   */\n      tag_330\n        /* \"#utility.yul\":13876:13892   */\n      dup3\n        /* \"#utility.yul\":13852:13893   */\n      tag_169\n      jump\t// in\n    tag_330:\n        /* \"#utility.yul\":13844:13850   */\n      dup5\n        /* \"#utility.yul\":13837:13841   */\n      dup5\n        /* \"#utility.yul\":13831:13842   */\n      sload\n        /* \"#utility.yul\":13803:13894   */\n      tag_166\n      jump\t// in\n    tag_329:\n        /* \"#utility.yul\":13797:13801   */\n      dup3\n        /* \"#utility.yul\":13790:13895   */\n      sstore\n        /* \"#utility.yul\":13708:13901   */\n      pop\n        /* \"#utility.yul\":13632:13901   */\n      pop\n      pop\n      pop\n      jump\t// out\n        /* \"#utility.yul\":13907:13980   */\n    tag_171:\n        /* \"#utility.yul\":13952:13955   */\n      0x00\n        /* \"#utility.yul\":13907:13980   */\n      swap1\n      jump\t// out\n        /* \"#utility.yul\":13986:14175   */\n    tag_172:\n        /* \"#utility.yul\":14063:14095   */\n      tag_333\n      tag_171\n      jump\t// in\n    tag_333:\n        /* \"#utility.yul\":14104:14169   */\n      tag_334\n        /* \"#utility.yul\":14162:14168   */\n      dup2\n        /* \"#utility.yul\":14154:14160   */\n      dup5\n        /* \"#utility.yul\":14148:14152   */\n      dup5\n        /* \"#utility.yul\":14104:14169   */\n      tag_170\n      jump\t// in\n    tag_334:\n        /* \"#utility.yul\":14039:14175   */\n      pop\n        /* \"#utility.yul\":13986:14175   */\n      pop\n      pop\n      jump\t// out\n        /* \"#utility.yul\":14181:14367   */\n    tag_173:\n        /* \"#utility.yul\":14241:14361   */\n    tag_336:\n        /* \"#utility.yul\":14258:14261   */\n      dup2\n        /* \"#utility.yul\":14251:14256   */\n      dup2\n        /* \"#utility.yul\":14248:14262   */\n      lt\n        /* \"#utility.yul\":14241:14361   */\n      iszero\n      tag_338\n      jumpi\n        /* \"#utility.yul\":14312:14351   */\n      tag_339\n        /* \"#utility.yul\":14349:14350   */\n      0x00\n        /* \"#utility.yul\":14342:14347   */\n      dup3\n        /* \"#utility.yul\":14312:14351   */\n      tag_172\n      jump\t// in\n    tag_339:\n        /* \"#utility.yul\":14285:14286   */\n      0x01\n        /* \"#utility.yul\":14278:14283   */\n      dup2\n        /* \"#utility.yul\":14274:14287   */\n      add\n        /* \"#utility.yul\":14265:14287   */\n      swap1\n      pop\n        /* \"#utility.yul\":14241:14361   */\n      jump(tag_336)\n    tag_338:\n        /* \"#utility.yul\":14181:14367   */\n      pop\n      pop\n      jump\t// out\n        /* \"#utility.yul\":14373:14916   */\n    tag_174:\n        /* \"#utility.yul\":14474:14476   */\n      0x1f\n        /* \"#utility.yul\":14469:14472   */\n      dup3\n        /* \"#utility.yul\":14466:14477   */\n      gt\n        /* \"#utility.yul\":14463:14909   */\n      iszero\n      tag_341\n      jumpi\n        /* \"#utility.yul\":14508:14546   */\n      tag_342\n        /* \"#utility.yul\":14540:14545   */\n      dup2\n        /* \"#utility.yul\":14508:14546   */\n      tag_163\n      jump\t// in\n    tag_342:\n        /* \"#utility.yul\":14592:14621   */\n      tag_343\n        /* \"#utility.yul\":14610:14620   */\n      dup5\n        /* \"#utility.yul\":14592:14621   */\n      tag_164\n      jump\t// in\n    tag_343:\n        /* \"#utility.yul\":14582:14590   */\n      dup2\n        /* \"#utility.yul\":14578:14622   */\n      add\n        /* \"#utility.yul\":14775:14777   */\n      0x20\n        /* \"#utility.yul\":14763:14773   */\n      dup6\n        /* \"#utility.yul\":14760:14778   */\n      lt\n        /* \"#utility.yul\":14757:14806   */\n      iszero\n      tag_344\n      jumpi\n        /* \"#utility.yul\":14796:14804   */\n      dup2\n        /* \"#utility.yul\":14781:14804   */\n      swap1\n      pop\n        /* \"#utility.yul\":14757:14806   */\n    tag_344:\n        /* \"#utility.yul\":14819:14899   */\n      tag_345\n        /* \"#utility.yul\":14875:14897   */\n      tag_346\n        /* \"#utility.yul\":14893:14896   */\n      dup6\n        /* \"#utility.yul\":14875:14897   */\n      tag_164\n      jump\t// in\n    tag_346:\n        /* \"#utility.yul\":14865:14873   */\n      dup4\n        /* \"#utility.yul\":14861:14898   */\n      add\n        /* \"#utility.yul\":14848:14859   */\n      dup3\n        /* \"#utility.yul\":14819:14899   */\n      tag_173\n      jump\t// in\n    tag_345:\n        /* \"#utility.yul\":14478:14909   */\n      pop\n      pop\n        /* \"#utility.yul\":14463:14909   */\n    tag_341:\n        /* \"#utility.yul\":14373:14916   */\n      pop\n      pop\n      pop\n      jump\t// out\n        /* \"#utility.yul\":14922:15039   */\n    tag_175:\n        /* \"#utility.yul\":14976:14984   */\n      0x00\n        /* \"#utility.yul\":15026:15031   */\n      dup3\n        /* \"#utility.yul\":15020:15024   */\n      dup3\n        /* \"#utility.yul\":15016:15032   */\n      shr\n        /* \"#utility.yul\":14995:15032   */\n      swap1\n      pop\n        /* \"#utility.yul\":14922:15039   */\n      swap3\n      swap2\n      pop\n      pop\n      jump\t// out\n        /* \"#utility.yul\":15045:15214   */\n    tag_176:\n        /* \"#utility.yul\":15089:15095   */\n      0x00\n        /* \"#utility.yul\":15122:15173   */\n      tag_349\n        /* \"#utility.yul\":15170:15171   */\n      0x00\n        /* \"#utility.yul\":15166:15172   */\n      not\n        /* \"#utility.yul\":15158:15163   */\n      dup5\n        /* \"#utility.yul\":15155:15156   */\n      0x08\n        /* \"#utility.yul\":15151:15164   */\n      mul\n        /* \"#utility.yul\":15122:15173   */\n      tag_175\n      jump\t// in\n    tag_349:\n        /* \"#utility.yul\":15118:15174   */\n      not\n        /* \"#utility.yul\":15203:15207   */\n      dup1\n        /* \"#utility.yul\":15197:15201   */\n      dup4\n        /* \"#utility.yul\":15193:15208   */\n      and\n        /* \"#utility.yul\":15183:15208   */\n      swap2\n      pop\n        /* \"#utility.yul\":15096:15214   */\n      pop\n        /* \"#utility.yul\":15045:15214   */\n      swap3\n      swap2\n      pop\n      pop\n      jump\t// out\n        /* \"#utility.yul\":15219:15514   */\n    tag_177:\n        /* \"#utility.yul\":15295:15299   */\n      0x00\n        /* \"#utility.yul\":15441:15470   */\n      tag_351\n        /* \"#utility.yul\":15466:15469   */\n      dup4\n        /* \"#utility.yul\":15460:15464   */\n      dup4\n        /* \"#utility.yul\":15441:15470   */\n      tag_176\n      jump\t// in\n    tag_351:\n        /* \"#utility.yul\":15433:15470   */\n      swap2\n      pop\n        /* \"#utility.yul\":15503:15506   */\n      dup3\n        /* \"#utility.yul\":15500:15501   */\n      0x02\n        /* \"#utility.yul\":15496:15507   */\n      mul\n        /* \"#utility.yul\":15490:15494   */\n      dup3\n        /* \"#utility.yul\":15487:15508   */\n      or\n        /* \"#utility.yul\":15479:15508   */\n      swap1\n      pop\n        /* \"#utility.yul\":15219:15514   */\n      swap3\n      swap2\n      pop\n      pop\n      jump\t// out\n        /* \"#utility.yul\":15519:16914   */\n    tag_80:\n        /* \"#utility.yul\":15636:15673   */\n      tag_353\n        /* \"#utility.yul\":15669:15672   */\n      dup3\n        /* \"#utility.yul\":15636:15673   */\n      tag_146\n      jump\t// in\n    tag_353:\n        /* \"#utility.yul\":15738:15756   */\n      0xffffffffffffffff\n        /* \"#utility.yul\":15730:15736   */\n      dup2\n        /* \"#utility.yul\":15727:15757   */\n      gt\n        /* \"#utility.yul\":15724:15780   */\n      iszero\n      tag_354\n      jumpi\n        /* \"#utility.yul\":15760:15778   */\n      tag_355\n      tag_139\n      jump\t// in\n    tag_355:\n        /* \"#utility.yul\":15724:15780   */\n    tag_354:\n        /* \"#utility.yul\":15804:15842   */\n      tag_356\n        /* \"#utility.yul\":15836:15840   */\n      dup3\n        /* \"#utility.yul\":15830:15841   */\n      sload\n        /* \"#utility.yul\":15804:15842   */\n      tag_62\n      jump\t// in\n    tag_356:\n        /* \"#utility.yul\":15889:15956   */\n      tag_357\n        /* \"#utility.yul\":15949:15955   */\n      dup3\n        /* \"#utility.yul\":15941:15947   */\n      dup3\n        /* \"#utility.yul\":15935:15939   */\n      dup6\n        /* \"#utility.yul\":15889:15956   */\n      tag_174\n      jump\t// in\n    tag_357:\n        /* \"#utility.yul\":15983:15984   */\n      0x00\n        /* \"#utility.yul\":16007:16011   */\n      0x20\n        /* \"#utility.yul\":15994:16011   */\n      swap1\n      pop\n        /* \"#utility.yul\":16039:16041   */\n      0x1f\n        /* \"#utility.yul\":16031:16037   */\n      dup4\n        /* \"#utility.yul\":16028:16042   */\n      gt\n        /* \"#utility.yul\":16056:16057   */\n      0x01\n        /* \"#utility.yul\":16051:16669   */\n      dup2\n      eq\n      tag_359\n      jumpi\n        /* \"#utility.yul\":16713:16714   */\n      0x00\n        /* \"#utility.yul\":16730:16736   */\n      dup5\n        /* \"#utility.yul\":16727:16804   */\n      iszero\n      tag_360\n      jumpi\n        /* \"#utility.yul\":16779:16788   */\n      dup3\n        /* \"#utility.yul\":16774:16777   */\n      dup8\n        /* \"#utility.yul\":16770:16789   */\n      add\n        /* \"#utility.yul\":16764:16790   */\n      mload\n        /* \"#utility.yul\":16755:16790   */\n      swap1\n      pop\n        /* \"#utility.yul\":16727:16804   */\n    tag_360:\n        /* \"#utility.yul\":16830:16897   */\n      tag_361\n        /* \"#utility.yul\":16890:16896   */\n      dup6\n        /* \"#utility.yul\":16883:16888   */\n      dup3\n        /* \"#utility.yul\":16830:16897   */\n      tag_177\n      jump\t// in\n    tag_361:\n        /* \"#utility.yul\":16824:16828   */\n      dup7\n        /* \"#utility.yul\":16817:16898   */\n      sstore\n        /* \"#utility.yul\":16686:16908   */\n      pop\n        /* \"#utility.yul\":16021:16908   */\n      jump(tag_358)\n        /* \"#utility.yul\":16051:16669   */\n    tag_359:\n        /* \"#utility.yul\":16103:16107   */\n      0x1f\n        /* \"#utility.yul\":16099:16108   */\n      not\n        /* \"#utility.yul\":16091:16097   */\n      dup5\n        /* \"#utility.yul\":16087:16109   */\n      and\n        /* \"#utility.yul\":16137:16174   */\n      tag_362\n        /* \"#utility.yul\":16169:16173   */\n      dup7\n        /* \"#utility.yul\":16137:16174   */\n      tag_163\n      jump\t// in\n    tag_362:\n        /* \"#utility.yul\":16196:16197   */\n      0x00\n        /* \"#utility.yul\":16210:16418   */\n    tag_363:\n        /* \"#utility.yul\":16224:16231   */\n      dup3\n        /* \"#utility.yul\":16221:16222   */\n      dup2\n        /* \"#utility.yul\":16218:16232   */\n      lt\n        /* \"#utility.yul\":16210:16418   */\n      iszero\n      tag_365\n      jumpi\n        /* \"#utility.yul\":16303:16312   */\n      dup5\n        /* \"#utility.yul\":16298:16301   */\n      dup10\n        /* \"#utility.yul\":16294:16313   */\n      add\n        /* \"#utility.yul\":16288:16314   */\n      mload\n        /* \"#utility.yul\":16280:16286   */\n      dup3\n        /* \"#utility.yul\":16273:16315   */\n      sstore\n        /* \"#utility.yul\":16354:16355   */\n      0x01\n        /* \"#utility.yul\":16346:16352   */\n      dup3\n        /* \"#utility.yul\":16342:16356   */\n      add\n        /* \"#utility.yul\":16332:16356   */\n      swap2\n      pop\n        /* \"#utility.yul\":16401:16403   */\n      0x20\n        /* \"#utility.yul\":16390:16399   */\n      dup6\n        /* \"#utility.yul\":16386:16404   */\n      add\n        /* \"#utility.yul\":16373:16404   */\n      swap5\n      pop\n        /* \"#utility.yul\":16247:16251   */\n      0x20\n        /* \"#utility.yul\":16244:16245   */\n      dup2\n        /* \"#utility.yul\":16240:16252   */\n      add\n        /* \"#utility.yul\":16235:16252   */\n      swap1\n      pop\n        /* \"#utility.yul\":16210:16418   */\n      jump(tag_363)\n    tag_365:\n        /* \"#utility.yul\":16446:16452   */\n      dup7\n        /* \"#utility.yul\":16437:16444   */\n      dup4\n        /* \"#utility.yul\":16434:16453   */\n      lt\n        /* \"#utility.yul\":16431:16610   */\n      iszero\n      tag_366\n      jumpi\n        /* \"#utility.yul\":16504:16513   */\n      dup5\n        /* \"#utility.yul\":16499:16502   */\n      dup10\n        /* \"#utility.yul\":16495:16514   */\n      add\n        /* \"#utility.yul\":16489:16515   */\n      mload\n        /* \"#utility.yul\":16547:16595   */\n      tag_367\n        /* \"#utility.yul\":16589:16593   */\n      0x1f\n        /* \"#utility.yul\":16581:16587   */\n      dup10\n        /* \"#utility.yul\":16577:16594   */\n      and\n        /* \"#utility.yul\":16566:16575   */\n      dup3\n        /* \"#utility.yul\":16547:16595   */\n      tag_176\n      jump\t// in\n    tag_367:\n        /* \"#utility.yul\":16539:16545   */\n      dup4\n        /* \"#utility.yul\":16532:16596   */\n      sstore\n        /* \"#utility.yul\":16454:16610   */\n      pop\n        /* \"#utility.yul\":16431:16610   */\n    tag_366:\n        /* \"#utility.yul\":16656:16657   */\n      0x01\n        /* \"#utility.yul\":16652:16653   */\n      0x02\n        /* \"#utility.yul\":16644:16650   */\n      dup9\n        /* \"#utility.yul\":16640:16654   */\n      mul\n        /* \"#utility.yul\":16636:16658   */\n      add\n        /* \"#utility.yul\":16630:16634   */\n      dup9\n        /* \"#utility.yul\":16623:16659   */\n      sstore\n        /* \"#utility.yul\":16058:16669   */\n      pop\n      pop\n      pop\n        /* \"#utility.yul\":16021:16908   */\n    tag_358:\n      pop\n        /* \"#utility.yul\":15611:16914   */\n      pop\n      pop\n      pop\n        /* \"#utility.yul\":15519:16914   */\n      pop\n      pop\n      jump\t// out\n        /* \"#utility.yul\":16920:17091   */\n    tag_178:\n        /* \"#utility.yul\":17060:17083   */\n      0x50726f64756374206e6f6e2070726573656e7465210000000000000000000000\n        /* \"#utility.yul\":17056:17057   */\n      0x00\n        /* \"#utility.yul\":17048:17054   */\n      dup3\n        /* \"#utility.yul\":17044:17058   */\n      add\n        /* \"#utility.yul\":17037:17084   */\n      mstore\n        /* \"#utility.yul\":16920:17091   */\n      pop\n      jump\t// out\n        /* \"#utility.yul\":17097:17463   */\n    tag_179:\n        /* \"#utility.yul\":17239:17242   */\n      0x00\n        /* \"#utility.yul\":17260:17327   */\n      tag_370\n        /* \"#utility.yul\":17324:17326   */\n      0x15\n        /* \"#utility.yul\":17319:17322   */\n      dup4\n        /* \"#utility.yul\":17260:17327   */\n      tag_147\n      jump\t// in\n    tag_370:\n        /* \"#utility.yul\":17253:17327   */\n      swap2\n      pop\n        /* \"#utility.yul\":17336:17429   */\n      tag_371\n        /* \"#utility.yul\":17425:17428   */\n      dup3\n        /* \"#utility.yul\":17336:17429   */\n      tag_178\n      jump\t// in\n    tag_371:\n        /* \"#utility.yul\":17454:17456   */\n      0x20\n        /* \"#utility.yul\":17449:17452   */\n      dup3\n        /* \"#utility.yul\":17445:17457   */\n      add\n        /* \"#utility.yul\":17438:17457   */\n      swap1\n      pop\n        /* \"#utility.yul\":17097:17463   */\n      swap2\n      swap1\n      pop\n      jump\t// out\n        /* \"#utility.yul\":17469:17888   */\n    tag_89:\n        /* \"#utility.yul\":17635:17639   */\n      0x00\n        /* \"#utility.yul\":17673:17675   */\n      0x20\n        /* \"#utility.yul\":17662:17671   */\n      dup3\n        /* \"#utility.yul\":17658:17676   */\n      add\n        /* \"#utility.yul\":17650:17676   */\n      swap1\n      pop\n        /* \"#utility.yul\":17722:17731   */\n      dup2\n        /* \"#utility.yul\":17716:17720   */\n      dup2\n        /* \"#utility.yul\":17712:17732   */\n      sub\n        /* \"#utility.yul\":17708:17709   */\n      0x00\n        /* \"#utility.yul\":17697:17706   */\n      dup4\n        /* \"#utility.yul\":17693:17710   */\n      add\n        /* \"#utility.yul\":17686:17733   */\n      mstore\n        /* \"#utility.yul\":17750:17881   */\n      tag_373\n        /* \"#utility.yul\":17876:17880   */\n      dup2\n        /* \"#utility.yul\":17750:17881   */\n      tag_179\n      jump\t// in\n    tag_373:\n        /* \"#utility.yul\":17742:17881   */\n      swap1\n      pop\n        /* \"#utility.yul\":17469:17888   */\n      swap2\n      swap1\n      pop\n      jump\t// out\n        /* \"#utility.yul\":17894:18063   */\n    tag_180:\n        /* \"#utility.yul\":18034:18055   */\n      0x5175616e74697479206e6f742056616c69642100000000000000000000000000\n        /* \"#utility.yul\":18030:18031   */\n      0x00\n        /* \"#utility.yul\":18022:18028   */\n      dup3\n        /* \"#utility.yul\":18018:18032   */\n      add\n        /* \"#utility.yul\":18011:18056   */\n      mstore\n        /* \"#utility.yul\":17894:18063   */\n      pop\n      jump\t// out\n        /* \"#utility.yul\":18069:18435   */\n    tag_181:\n        /* \"#utility.yul\":18211:18214   */\n      0x00\n        /* \"#utility.yul\":18232:18299   */\n      tag_376\n        /* \"#utility.yul\":18296:18298   */\n      0x13\n        /* \"#utility.yul\":18291:18294   */\n      dup4\n        /* \"#utility.yul\":18232:18299   */\n      tag_147\n      jump\t// in\n    tag_376:\n        /* \"#utility.yul\":18225:18299   */\n      swap2\n      pop\n        /* \"#utility.yul\":18308:18401   */\n      tag_377\n        /* \"#utility.yul\":18397:18400   */\n      dup3\n        /* \"#utility.yul\":18308:18401   */\n      tag_180\n      jump\t// in\n    tag_377:\n        /* \"#utility.yul\":18426:18428   */\n      0x20\n        /* \"#utility.yul\":18421:18424   */\n      dup3\n        /* \"#utility.yul\":18417:18429   */\n      add\n        /* \"#utility.yul\":18410:18429   */\n      swap1\n      pop\n        /* \"#utility.yul\":18069:18435   */\n      swap2\n      swap1\n      pop\n      jump\t// out\n        /* \"#utility.yul\":18441:18860   */\n    tag_92:\n        /* \"#utility.yul\":18607:18611   */\n      0x00\n        /* \"#utility.yul\":18645:18647   */\n      0x20\n        /* \"#utility.yul\":18634:18643   */\n      dup3\n        /* \"#utility.yul\":18630:18648   */\n      add\n        /* \"#utility.yul\":18622:18648   */\n      swap1\n      pop\n        /* \"#utility.yul\":18694:18703   */\n      dup2\n        /* \"#utility.yul\":18688:18692   */\n      dup2\n        /* \"#utility.yul\":18684:18704   */\n      sub\n        /* \"#utility.yul\":18680:18681   */\n      0x00\n        /* \"#utility.yul\":18669:18678   */\n      dup4\n        /* \"#utility.yul\":18665:18682   */\n      add\n        /* \"#utility.yul\":18658:18705   */\n      mstore\n        /* \"#utility.yul\":18722:18853   */\n      tag_379\n        /* \"#utility.yul\":18848:18852   */\n      dup2\n        /* \"#utility.yul\":18722:18853   */\n      tag_181\n      jump\t// in\n    tag_379:\n        /* \"#utility.yul\":18714:18853   */\n      swap1\n      pop\n        /* \"#utility.yul\":18441:18860   */\n      swap2\n      swap1\n      pop\n      jump\t// out\n        /* \"#utility.yul\":18890:19764   */\n    tag_182:\n        /* \"#utility.yul\":18993:18996   */\n      0x00\n        /* \"#utility.yul\":19030:19035   */\n      dup2\n        /* \"#utility.yul\":19024:19036   */\n      sload\n        /* \"#utility.yul\":19059:19095   */\n      tag_381\n        /* \"#utility.yul\":19085:19094   */\n      dup2\n        /* \"#utility.yul\":19059:19095   */\n      tag_62\n      jump\t// in\n    tag_381:\n        /* \"#utility.yul\":19111:19200   */\n      tag_382\n        /* \"#utility.yul\":19193:19199   */\n      dup2\n        /* \"#utility.yul\":19188:19191   */\n      dup7\n        /* \"#utility.yul\":19111:19200   */\n      tag_153\n      jump\t// in\n    tag_382:\n        /* \"#utility.yul\":19104:19200   */\n      swap5\n      pop\n        /* \"#utility.yul\":19231:19232   */\n      0x01\n        /* \"#utility.yul\":19220:19229   */\n      dup3\n        /* \"#utility.yul\":19216:19233   */\n      and\n        /* \"#utility.yul\":19247:19248   */\n      0x00\n        /* \"#utility.yul\":19242:19408   */\n      dup2\n      eq\n      tag_384\n      jumpi\n        /* \"#utility.yul\":19422:19423   */\n      0x01\n        /* \"#utility.yul\":19417:19758   */\n      dup2\n      eq\n      tag_385\n      jumpi\n        /* \"#utility.yul\":19209:19758   */\n      jump(tag_383)\n        /* \"#utility.yul\":19242:19408   */\n    tag_384:\n        /* \"#utility.yul\":19326:19330   */\n      0xff\n        /* \"#utility.yul\":19322:19331   */\n      not\n        /* \"#utility.yul\":19311:19320   */\n      dup4\n        /* \"#utility.yul\":19307:19332   */\n      and\n        /* \"#utility.yul\":19302:19305   */\n      dup7\n        /* \"#utility.yul\":19295:19333   */\n      mstore\n        /* \"#utility.yul\":19388:19394   */\n      dup2\n        /* \"#utility.yul\":19381:19395   */\n      iszero\n        /* \"#utility.yul\":19374:19396   */\n      iszero\n        /* \"#utility.yul\":19366:19372   */\n      dup3\n        /* \"#utility.yul\":19362:19397   */\n      mul\n        /* \"#utility.yul\":19357:19360   */\n      dup7\n        /* \"#utility.yul\":19353:19398   */\n      add\n        /* \"#utility.yul\":19346:19398   */\n      swap4\n      pop\n        /* \"#utility.yul\":19242:19408   */\n      jump(tag_383)\n        /* \"#utility.yul\":19417:19758   */\n    tag_385:\n        /* \"#utility.yul\":19484:19522   */\n      tag_386\n        /* \"#utility.yul\":19516:19521   */\n      dup6\n        /* \"#utility.yul\":19484:19522   */\n      tag_163\n      jump\t// in\n    tag_386:\n        /* \"#utility.yul\":19544:19545   */\n      0x00\n        /* \"#utility.yul\":19558:19712   */\n    tag_387:\n        /* \"#utility.yul\":19572:19578   */\n      dup4\n        /* \"#utility.yul\":19569:19570   */\n      dup2\n        /* \"#utility.yul\":19566:19579   */\n      lt\n        /* \"#utility.yul\":19558:19712   */\n      iszero\n      tag_389\n      jumpi\n        /* \"#utility.yul\":19646:19653   */\n      dup2\n        /* \"#utility.yul\":19640:19654   */\n      sload\n        /* \"#utility.yul\":19636:19637   */\n      dup2\n        /* \"#utility.yul\":19631:19634   */\n      dup10\n        /* \"#utility.yul\":19627:19638   */\n      add\n        /* \"#utility.yul\":19620:19655   */\n      mstore\n        /* \"#utility.yul\":19696:19697   */\n      0x01\n        /* \"#utility.yul\":19687:19694   */\n      dup3\n        /* \"#utility.yul\":19683:19698   */\n      add\n        /* \"#utility.yul\":19672:19698   */\n      swap2\n      pop\n        /* \"#utility.yul\":19594:19598   */\n      0x20\n        /* \"#utility.yul\":19591:19592   */\n      dup2\n        /* \"#utility.yul\":19587:19599   */\n      add\n        /* \"#utility.yul\":19582:19599   */\n      swap1\n      pop\n        /* \"#utility.yul\":19558:19712   */\n      jump(tag_387)\n    tag_389:\n        /* \"#utility.yul\":19741:19747   */\n      dup4\n        /* \"#utility.yul\":19736:19739   */\n      dup9\n        /* \"#utility.yul\":19732:19748   */\n      add\n        /* \"#utility.yul\":19725:19748   */\n      swap6\n      pop\n        /* \"#utility.yul\":19424:19758   */\n      pop\n      pop\n        /* \"#utility.yul\":19209:19758   */\n    tag_383:\n      pop\n        /* \"#utility.yul\":18997:19764   */\n      pop\n      pop\n        /* \"#utility.yul\":18890:19764   */\n      swap3\n      swap2\n      pop\n      pop\n      jump\t// out\n        /* \"#utility.yul\":19770:20462   */\n    tag_101:\n        /* \"#utility.yul\":19983:19986   */\n      0x00\n        /* \"#utility.yul\":20005:20097   */\n      tag_391\n        /* \"#utility.yul\":20093:20096   */\n      dup3\n        /* \"#utility.yul\":20084:20090   */\n      dup8\n        /* \"#utility.yul\":20005:20097   */\n      tag_182\n      jump\t// in\n    tag_391:\n        /* \"#utility.yul\":19998:20097   */\n      swap2\n      pop\n        /* \"#utility.yul\":20107:20182   */\n      tag_392\n        /* \"#utility.yul\":20178:20181   */\n      dup3\n        /* \"#utility.yul\":20169:20175   */\n      dup7\n        /* \"#utility.yul\":20107:20182   */\n      tag_156\n      jump\t// in\n    tag_392:\n        /* \"#utility.yul\":20207:20209   */\n      0x20\n        /* \"#utility.yul\":20202:20205   */\n      dup3\n        /* \"#utility.yul\":20198:20210   */\n      add\n        /* \"#utility.yul\":20191:20210   */\n      swap2\n      pop\n        /* \"#utility.yul\":20220:20295   */\n      tag_393\n        /* \"#utility.yul\":20291:20294   */\n      dup3\n        /* \"#utility.yul\":20282:20288   */\n      dup6\n        /* \"#utility.yul\":20220:20295   */\n      tag_156\n      jump\t// in\n    tag_393:\n        /* \"#utility.yul\":20320:20322   */\n      0x20\n        /* \"#utility.yul\":20315:20318   */\n      dup3\n        /* \"#utility.yul\":20311:20323   */\n      add\n        /* \"#utility.yul\":20304:20323   */\n      swap2\n      pop\n        /* \"#utility.yul\":20333:20408   */\n      tag_394\n        /* \"#utility.yul\":20404:20407   */\n      dup3\n        /* \"#utility.yul\":20395:20401   */\n      dup5\n        /* \"#utility.yul\":20333:20408   */\n      tag_160\n      jump\t// in\n    tag_394:\n        /* \"#utility.yul\":20433:20435   */\n      0x14\n        /* \"#utility.yul\":20428:20431   */\n      dup3\n        /* \"#utility.yul\":20424:20436   */\n      add\n        /* \"#utility.yul\":20417:20436   */\n      swap2\n      pop\n        /* \"#utility.yul\":20453:20456   */\n      dup2\n        /* \"#utility.yul\":20446:20456   */\n      swap1\n      pop\n        /* \"#utility.yul\":19770:20462   */\n      swap6\n      swap5\n      pop\n      pop\n      pop\n      pop\n      pop\n      jump\t// out\n        /* \"#utility.yul\":20468:20641   */\n    tag_183:\n        /* \"#utility.yul\":20608:20633   */\n      0x5574656e7465206e6f6e204175746f72697a7a61746f21000000000000000000\n        /* \"#utility.yul\":20604:20605   */\n      0x00\n        /* \"#utility.yul\":20596:20602   */\n      dup3\n        /* \"#utility.yul\":20592:20606   */\n      add\n        /* \"#utility.yul\":20585:20634   */\n      mstore\n        /* \"#utility.yul\":20468:20641   */\n      pop\n      jump\t// out\n        /* \"#utility.yul\":20647:21013   */\n    tag_184:\n        /* \"#utility.yul\":20789:20792   */\n      0x00\n        /* \"#utility.yul\":20810:20877   */\n      tag_397\n        /* \"#utility.yul\":20874:20876   */\n      0x17\n        /* \"#utility.yul\":20869:20872   */\n      dup4\n        /* \"#utility.yul\":20810:20877   */\n      tag_147\n      jump\t// in\n    tag_397:\n        /* \"#utility.yul\":20803:20877   */\n      swap2\n      pop\n        /* \"#utility.yul\":20886:20979   */\n      tag_398\n        /* \"#utility.yul\":20975:20978   */\n      dup3\n        /* \"#utility.yul\":20886:20979   */\n      tag_183\n      jump\t// in\n    tag_398:\n        /* \"#utility.yul\":21004:21006   */\n      0x20\n        /* \"#utility.yul\":20999:21002   */\n      dup3\n        /* \"#utility.yul\":20995:21007   */\n      add\n        /* \"#utility.yul\":20988:21007   */\n      swap1\n      pop\n        /* \"#utility.yul\":20647:21013   */\n      swap2\n      swap1\n      pop\n      jump\t// out\n        /* \"#utility.yul\":21019:21438   */\n    tag_104:\n        /* \"#utility.yul\":21185:21189   */\n      0x00\n        /* \"#utility.yul\":21223:21225   */\n      0x20\n        /* \"#utility.yul\":21212:21221   */\n      dup3\n        /* \"#utility.yul\":21208:21226   */\n      add\n        /* \"#utility.yul\":21200:21226   */\n      swap1\n      pop\n        /* \"#utility.yul\":21272:21281   */\n      dup2\n        /* \"#utility.yul\":21266:21270   */\n      dup2\n        /* \"#utility.yul\":21262:21282   */\n      sub\n        /* \"#utility.yul\":21258:21259   */\n      0x00\n        /* \"#utility.yul\":21247:21256   */\n      dup4\n        /* \"#utility.yul\":21243:21260   */\n      add\n        /* \"#utility.yul\":21236:21283   */\n      mstore\n        /* \"#utility.yul\":21300:21431   */\n      tag_400\n        /* \"#utility.yul\":21426:21430   */\n      dup2\n        /* \"#utility.yul\":21300:21431   */\n      tag_184\n      jump\t// in\n    tag_400:\n        /* \"#utility.yul\":21292:21431   */\n      swap1\n      pop\n        /* \"#utility.yul\":21019:21438   */\n      swap2\n      swap1\n      pop\n      jump\t// out\n\n    auxdata: 0xa2646970667358221220ebe377b53104ad1157aba514cbab6b65995e344a92133df889b2b5fa9b591e3664736f6c63430008160033\n}\n",
				"bytecode": {
					"linkReferences": {},
					"object": "608060405234801561000f575f80fd5b50335f806101000a81548173ffffffffffffffffffffffffffffffffffffffff021916908373ffffffffffffffffffffffffffffffffffffffff1602179055506119f08061005c5f395ff3fe608060405234801561000f575f80fd5b5060043610610091575f3560e01c806387abc2161161006457806387abc216146101585780639f2b689814610188578063ad9c10a1146101b8578063ce4fcf23146101e8578063f24920781461021b57610091565b806302d805f6146100955780631e073fcf146100c5578063449e815d146100f55780638317679f14610125575b5f80fd5b6100af60048036038101906100aa9190610faf565b610237565b6040516100bc9190611007565b60405180910390f35b6100df60048036038101906100da9190610faf565b6102df565b6040516100ec919061102f565b60405180910390f35b61010f600480360381019061010a9190610faf565b6103f5565b60405161011c919061102f565b60405180910390f35b61013f600480360381019061013a9190611184565b61050b565b60405161014f949392919061127e565b60405180910390f35b610172600480360381019061016d91906112c8565b61085a565b60405161017f9190611007565b60405180910390f35b6101a2600480360381019061019d9190610faf565b61098d565b6040516101af9190611318565b60405180910390f35b6101d260048036038101906101cd9190610faf565b610aa4565b6040516101df9190611007565b60405180910390f35b61020260048036038101906101fd9190610faf565b610d2f565b604051610212949392919061127e565b60405180910390f35b610235600480360381019061023091906112c8565b610e60565b005b5f80821415801561024757505f82115b610286576040517f08c379a000000000000000000000000000000000000000000000000000000000815260040161027d90611382565b60405180910390fd5b8160015f8573ffffffffffffffffffffffffffffffffffffffff1673ffffffffffffffffffffffffffffffffffffffff1681526020019081526020015f205f8481526020019081526020015f205f015414905092915050565b5f8060015f8573ffffffffffffffffffffffffffffffffffffffff1673ffffffffffffffffffffffffffffffffffffffff1681526020019081526020015f205f8481526020019081526020015f206040518060800160405290815f8201548152602001600182018054610351906113cd565b80601f016020809104026020016040519081016040528092919081815260200182805461037d906113cd565b80156103c85780601f1061039f576101008083540402835291602001916103c8565b820191905f5260205f20905b8154815290600101906020018083116103ab57829003601f168201915b50505050508152602001600282015481526020016003820154815250509050806040015191505092915050565b5f8060015f8573ffffffffffffffffffffffffffffffffffffffff1673ffffffffffffffffffffffffffffffffffffffff1681526020019081526020015f205f8481526020019081526020015f206040518060800160405290815f8201548152602001600182018054610467906113cd565b80601f0160208091040260200160405190810160405280929190818152602001828054610493906113cd565b80156104de5780601f106104b5576101008083540402835291602001916104de565b820191905f5260205f20905b8154815290600101906020018083116104c157829003601f168201915b50505050508152602001600282015481526020016003820154815250509050806060015191505092915050565b5f60605f805f8787878b604051602001610528949392919061149c565b604051602081830303815290604052805190602001205f1c90505f60015f8b73ffffffffffffffffffffffffffffffffffffffff1673ffffffffffffffffffffffffffffffffffffffff1681526020019081526020015f205f8381526020019081526020015f2090505f815f0154146105d6576040517f08c379a00000000000000000000000000000000000000000000000000000000081526004016105cd9061152f565b60405180910390fd5b5f60405180608001604052808481526020018b81526020018a81526020018981525090508060015f8d73ffffffffffffffffffffffffffffffffffffffff1673ffffffffffffffffffffffffffffffffffffffff1681526020019081526020015f205f8581526020019081526020015f205f820151815f0155602082015181600101908161066491906116ea565b50604082015181600201556060820151816003015590505060015f8c73ffffffffffffffffffffffffffffffffffffffff1673ffffffffffffffffffffffffffffffffffffffff1681526020019081526020015f205f8481526020019081526020015f205f015460015f8d73ffffffffffffffffffffffffffffffffffffffff1673ffffffffffffffffffffffffffffffffffffffff1681526020019081526020015f205f8581526020019081526020015f2060010160015f8e73ffffffffffffffffffffffffffffffffffffffff1673ffffffffffffffffffffffffffffffffffffffff1681526020019081526020015f205f8681526020019081526020015f206002015460015f8f73ffffffffffffffffffffffffffffffffffffffff1673ffffffffffffffffffffffffffffffffffffffff1681526020019081526020015f205f8781526020019081526020015f20600301548280546107c6906113cd565b80601f01602080910402602001604051908101604052809291908181526020018280546107f2906113cd565b801561083d5780601f106108145761010080835404028352916020019161083d565b820191905f5260205f20905b81548152906001019060200180831161082057829003601f168201915b505050505092509650965096509650505050945094509450949050565b5f8260015f8673ffffffffffffffffffffffffffffffffffffffff1673ffffffffffffffffffffffffffffffffffffffff1681526020019081526020015f205f8581526020019081526020015f205f0154146108eb576040517f08c379a00000000000000000000000000000000000000000000000000000000081526004016108e290611803565b60405180910390fd5b5f60015f8673ffffffffffffffffffffffffffffffffffffffff1673ffffffffffffffffffffffffffffffffffffffff1681526020019081526020015f205f8581526020019081526020015f2090508281600201541015610981576040517f08c379a00000000000000000000000000000000000000000000000000000000081526004016109789061186b565b60405180910390fd5b60019150509392505050565b60605f60015f8573ffffffffffffffffffffffffffffffffffffffff1673ffffffffffffffffffffffffffffffffffffffff1681526020019081526020015f205f8481526020019081526020015f206040518060800160405290815f8201548152602001600182018054610a00906113cd565b80601f0160208091040260200160405190810160405280929190818152602001828054610a2c906113cd565b8015610a775780601f10610a4e57610100808354040283529160200191610a77565b820191905f5260205f20905b815481529060010190602001808311610a5a57829003601f168201915b50505050508152602001600282015481526020016003820154815250509050806020015191505092915050565b5f8060015f8573ffffffffffffffffffffffffffffffffffffffff1673ffffffffffffffffffffffffffffffffffffffff1681526020019081526020015f205f8481526020019081526020015f2060010160015f8673ffffffffffffffffffffffffffffffffffffffff1673ffffffffffffffffffffffffffffffffffffffff1681526020019081526020015f205f8581526020019081526020015f206002015460015f8773ffffffffffffffffffffffffffffffffffffffff1673ffffffffffffffffffffffffffffffffffffffff1681526020019081526020015f205f8681526020019081526020015f206003015486604051602001610ba99493929190611909565b604051602081830303815290604052805190602001205f1c90508060015f8673ffffffffffffffffffffffffffffffffffffffff1673ffffffffffffffffffffffffffffffffffffffff1681526020019081526020015f205f8581526020019081526020015f205f015414610c53576040517f08c379a0000000000000000000000000000000000000000000000000000000008152600401610c4a9061199c565b60405180910390fd5b60015f8573ffffffffffffffffffffffffffffffffffffffff1673ffffffffffffffffffffffffffffffffffffffff1681526020019081526020015f205f8481526020019081526020015f205f8082015f9055600182015f610cb59190610eb9565b600282015f9055600382015f905550505f60015f8673ffffffffffffffffffffffffffffffffffffffff1673ffffffffffffffffffffffffffffffffffffffff1681526020019081526020015f205f8581526020019081526020015f205f015403610d24576001915050610d29565b5f9150505b92915050565b5f60605f805f60015f8873ffffffffffffffffffffffffffffffffffffffff1673ffffffffffffffffffffffffffffffffffffffff1681526020019081526020015f205f8781526020019081526020015f206040518060800160405290815f8201548152602001600182018054610da5906113cd565b80601f0160208091040260200160405190810160405280929190818152602001828054610dd1906113cd565b8015610e1c5780601f10610df357610100808354040283529160200191610e1c565b820191905f5260205f20905b815481529060010190602001808311610dff57829003601f168201915b50505050508152602001600282015481526020016003820154815250509050805f015181602001518260400151836060015194509450945094505092959194509250565b8060015f8573ffffffffffffffffffffffffffffffffffffffff1673ffffffffffffffffffffffffffffffffffffffff1681526020019081526020015f205f8481526020019081526020015f2060020181905550505050565b508054610ec5906113cd565b5f825580601f10610ed65750610ef3565b601f0160209004905f5260205f2090810190610ef29190610ef6565b5b50565b5b80821115610f0d575f815f905550600101610ef7565b5090565b5f604051905090565b5f80fd5b5f80fd5b5f73ffffffffffffffffffffffffffffffffffffffff82169050919050565b5f610f4b82610f22565b9050919050565b610f5b81610f41565b8114610f65575f80fd5b50565b5f81359050610f7681610f52565b92915050565b5f819050919050565b610f8e81610f7c565b8114610f98575f80fd5b50565b5f81359050610fa981610f85565b92915050565b5f8060408385031215610fc557610fc4610f1a565b5b5f610fd285828601610f68565b9250506020610fe385828601610f9b565b9150509250929050565b5f8115159050919050565b61100181610fed565b82525050565b5f60208201905061101a5f830184610ff8565b92915050565b61102981610f7c565b82525050565b5f6020820190506110425f830184611020565b92915050565b5f80fd5b5f80fd5b5f601f19601f8301169050919050565b7f4e487b71000000000000000000000000000000000000000000000000000000005f52604160045260245ffd5b61109682611050565b810181811067ffffffffffffffff821117156110b5576110b4611060565b5b80604052505050565b5f6110c7610f11565b90506110d3828261108d565b919050565b5f67ffffffffffffffff8211156110f2576110f1611060565b5b6110fb82611050565b9050602081019050919050565b828183375f83830152505050565b5f611128611123846110d8565b6110be565b9050828152602081018484840111156111445761114361104c565b5b61114f848285611108565b509392505050565b5f82601f83011261116b5761116a611048565b5b813561117b848260208601611116565b91505092915050565b5f805f806080858703121561119c5761119b610f1a565b5b5f6111a987828801610f68565b945050602085013567ffffffffffffffff8111156111ca576111c9610f1e565b5b6111d687828801611157565b93505060406111e787828801610f9b565b92505060606111f887828801610f9b565b91505092959194509250565b5f81519050919050565b5f82825260208201905092915050565b5f5b8381101561123b578082015181840152602081019050611220565b5f8484015250505050565b5f61125082611204565b61125a818561120e565b935061126a81856020860161121e565b61127381611050565b840191505092915050565b5f6080820190506112915f830187611020565b81810360208301526112a38186611246565b90506112b26040830185611020565b6112bf6060830184611020565b95945050505050565b5f805f606084860312156112df576112de610f1a565b5b5f6112ec86828701610f68565b93505060206112fd86828701610f9b565b925050604061130e86828701610f9b565b9150509250925092565b5f6020820190508181035f8301526113308184611246565b905092915050565b7f4944204d696c6b4261746368204e6f742056616c6964210000000000000000005f82015250565b5f61136c60178361120e565b915061137782611338565b602082019050919050565b5f6020820190508181035f83015261139981611360565b9050919050565b7f4e487b71000000000000000000000000000000000000000000000000000000005f52602260045260245ffd5b5f60028204905060018216806113e457607f821691505b6020821081036113f7576113f66113a0565b5b50919050565b5f81905092915050565b5f61141182611204565b61141b81856113fd565b935061142b81856020860161121e565b80840191505092915050565b5f819050919050565b61145161144c82610f7c565b611437565b82525050565b5f8160601b9050919050565b5f61146d82611457565b9050919050565b5f61147e82611463565b9050919050565b61149661149182610f41565b611474565b82525050565b5f6114a78287611407565b91506114b38286611440565b6020820191506114c38285611440565b6020820191506114d38284611485565b60148201915081905095945050505050565b7f50657a7a6f20646920466f726d616767696f20676961272050726573656e74655f82015250565b5f61151960208361120e565b9150611524826114e5565b602082019050919050565b5f6020820190508181035f8301526115468161150d565b9050919050565b5f819050815f5260205f209050919050565b5f6020601f8301049050919050565b5f82821b905092915050565b5f600883026115a97fffffffffffffffffffffffffffffffffffffffffffffffffffffffffffffffff8261156e565b6115b3868361156e565b95508019841693508086168417925050509392505050565b5f819050919050565b5f6115ee6115e96115e484610f7c565b6115cb565b610f7c565b9050919050565b5f819050919050565b611607836115d4565b61161b611613826115f5565b84845461157a565b825550505050565b5f90565b61162f611623565b61163a8184846115fe565b505050565b5b8181101561165d576116525f82611627565b600181019050611640565b5050565b601f8211156116a2576116738161154d565b61167c8461155f565b8101602085101561168b578190505b61169f6116978561155f565b83018261163f565b50505b505050565b5f82821c905092915050565b5f6116c25f19846008026116a7565b1980831691505092915050565b5f6116da83836116b3565b9150826002028217905092915050565b6116f382611204565b67ffffffffffffffff81111561170c5761170b611060565b5b61171682546113cd565b611721828285611661565b5f60209050601f831160018114611752575f8415611740578287015190505b61174a85826116cf565b8655506117b1565b601f1984166117608661154d565b5f5b8281101561178757848901518255600182019150602085019450602081019050611762565b868310156117a457848901516117a0601f8916826116b3565b8355505b6001600288020188555050505b505050505050565b7f50726f64756374206e6f6e2070726573656e74652100000000000000000000005f82015250565b5f6117ed60158361120e565b91506117f8826117b9565b602082019050919050565b5f6020820190508181035f83015261181a816117e1565b9050919050565b7f5175616e74697479206e6f742056616c696421000000000000000000000000005f82015250565b5f61185560138361120e565b915061186082611821565b602082019050919050565b5f6020820190508181035f83015261188281611849565b9050919050565b5f8154611895816113cd565b61189f81866113fd565b9450600182165f81146118b957600181146118ce57611900565b60ff1983168652811515820286019350611900565b6118d78561154d565b5f5b838110156118f8578154818901526001820191506020810190506118d9565b838801955050505b50505092915050565b5f6119148287611889565b91506119208286611440565b6020820191506119308285611440565b6020820191506119408284611485565b60148201915081905095945050505050565b7f5574656e7465206e6f6e204175746f72697a7a61746f210000000000000000005f82015250565b5f61198660178361120e565b915061199182611952565b602082019050919050565b5f6020820190508181035f8301526119b38161197a565b905091905056fea2646970667358221220ebe377b53104ad1157aba514cbab6b65995e344a92133df889b2b5fa9b591e3664736f6c63430008160033",
					"opcodes": "PUSH1 0x80 PUSH1 0x40 MSTORE CALLVALUE DUP1 ISZERO PUSH2 0xF JUMPI PUSH0 DUP1 REVERT JUMPDEST POP CALLER PUSH0 DUP1 PUSH2 0x100 EXP DUP2 SLOAD DUP2 PUSH20 0xFFFFFFFFFFFFFFFFFFFFFFFFFFFFFFFFFFFFFFFF MUL NOT AND SWAP1 DUP4 PUSH20 0xFFFFFFFFFFFFFFFFFFFFFFFFFFFFFFFFFFFFFFFF AND MUL OR SWAP1 SSTORE POP PUSH2 0x19F0 DUP1 PUSH2 0x5C PUSH0 CODECOPY PUSH0 RETURN INVALID PUSH1 0x80 PUSH1 0x40 MSTORE CALLVALUE DUP1 ISZERO PUSH2 0xF JUMPI PUSH0 DUP1 REVERT JUMPDEST POP PUSH1 0x4 CALLDATASIZE LT PUSH2 0x91 JUMPI PUSH0 CALLDATALOAD PUSH1 0xE0 SHR DUP1 PUSH4 0x87ABC216 GT PUSH2 0x64 JUMPI DUP1 PUSH4 0x87ABC216 EQ PUSH2 0x158 JUMPI DUP1 PUSH4 0x9F2B6898 EQ PUSH2 0x188 JUMPI DUP1 PUSH4 0xAD9C10A1 EQ PUSH2 0x1B8 JUMPI DUP1 PUSH4 0xCE4FCF23 EQ PUSH2 0x1E8 JUMPI DUP1 PUSH4 0xF2492078 EQ PUSH2 0x21B JUMPI PUSH2 0x91 JUMP JUMPDEST DUP1 PUSH4 0x2D805F6 EQ PUSH2 0x95 JUMPI DUP1 PUSH4 0x1E073FCF EQ PUSH2 0xC5 JUMPI DUP1 PUSH4 0x449E815D EQ PUSH2 0xF5 JUMPI DUP1 PUSH4 0x8317679F EQ PUSH2 0x125 JUMPI JUMPDEST PUSH0 DUP1 REVERT JUMPDEST PUSH2 0xAF PUSH1 0x4 DUP1 CALLDATASIZE SUB DUP2 ADD SWAP1 PUSH2 0xAA SWAP2 SWAP1 PUSH2 0xFAF JUMP JUMPDEST PUSH2 0x237 JUMP JUMPDEST PUSH1 0x40 MLOAD PUSH2 0xBC SWAP2 SWAP1 PUSH2 0x1007 JUMP JUMPDEST PUSH1 0x40 MLOAD DUP1 SWAP2 SUB SWAP1 RETURN JUMPDEST PUSH2 0xDF PUSH1 0x4 DUP1 CALLDATASIZE SUB DUP2 ADD SWAP1 PUSH2 0xDA SWAP2 SWAP1 PUSH2 0xFAF JUMP JUMPDEST PUSH2 0x2DF JUMP JUMPDEST PUSH1 0x40 MLOAD PUSH2 0xEC SWAP2 SWAP1 PUSH2 0x102F JUMP JUMPDEST PUSH1 0x40 MLOAD DUP1 SWAP2 SUB SWAP1 RETURN JUMPDEST PUSH2 0x10F PUSH1 0x4 DUP1 CALLDATASIZE SUB DUP2 ADD SWAP1 PUSH2 0x10A SWAP2 SWAP1 PUSH2 0xFAF JUMP JUMPDEST PUSH2 0x3F5 JUMP JUMPDEST PUSH1 0x40 MLOAD PUSH2 0x11C SWAP2 SWAP1 PUSH2 0x102F JUMP JUMPDEST PUSH1 0x40 MLOAD DUP1 SWAP2 SUB SWAP1 RETURN JUMPDEST PUSH2 0x13F PUSH1 0x4 DUP1 CALLDATASIZE SUB DUP2 ADD SWAP1 PUSH2 0x13A SWAP2 SWAP1 PUSH2 0x1184 JUMP JUMPDEST PUSH2 0x50B JUMP JUMPDEST PUSH1 0x40 MLOAD PUSH2 0x14F SWAP5 SWAP4 SWAP3 SWAP2 SWAP1 PUSH2 0x127E JUMP JUMPDEST PUSH1 0x40 MLOAD DUP1 SWAP2 SUB SWAP1 RETURN JUMPDEST PUSH2 0x172 PUSH1 0x4 DUP1 CALLDATASIZE SUB DUP2 ADD SWAP1 PUSH2 0x16D SWAP2 SWAP1 PUSH2 0x12C8 JUMP JUMPDEST PUSH2 0x85A JUMP JUMPDEST PUSH1 0x40 MLOAD PUSH2 0x17F SWAP2 SWAP1 PUSH2 0x1007 JUMP JUMPDEST PUSH1 0x40 MLOAD DUP1 SWAP2 SUB SWAP1 RETURN JUMPDEST PUSH2 0x1A2 PUSH1 0x4 DUP1 CALLDATASIZE SUB DUP2 ADD SWAP1 PUSH2 0x19D SWAP2 SWAP1 PUSH2 0xFAF JUMP JUMPDEST PUSH2 0x98D JUMP JUMPDEST PUSH1 0x40 MLOAD PUSH2 0x1AF SWAP2 SWAP1 PUSH2 0x1318 JUMP JUMPDEST PUSH1 0x40 MLOAD DUP1 SWAP2 SUB SWAP1 RETURN JUMPDEST PUSH2 0x1D2 PUSH1 0x4 DUP1 CALLDATASIZE SUB DUP2 ADD SWAP1 PUSH2 0x1CD SWAP2 SWAP1 PUSH2 0xFAF JUMP JUMPDEST PUSH2 0xAA4 JUMP JUMPDEST PUSH1 0x40 MLOAD PUSH2 0x1DF SWAP2 SWAP1 PUSH2 0x1007 JUMP JUMPDEST PUSH1 0x40 MLOAD DUP1 SWAP2 SUB SWAP1 RETURN JUMPDEST PUSH2 0x202 PUSH1 0x4 DUP1 CALLDATASIZE SUB DUP2 ADD SWAP1 PUSH2 0x1FD SWAP2 SWAP1 PUSH2 0xFAF JUMP JUMPDEST PUSH2 0xD2F JUMP JUMPDEST PUSH1 0x40 MLOAD PUSH2 0x212 SWAP5 SWAP4 SWAP3 SWAP2 SWAP1 PUSH2 0x127E JUMP JUMPDEST PUSH1 0x40 MLOAD DUP1 SWAP2 SUB SWAP1 RETURN JUMPDEST PUSH2 0x235 PUSH1 0x4 DUP1 CALLDATASIZE SUB DUP2 ADD SWAP1 PUSH2 0x230 SWAP2 SWAP1 PUSH2 0x12C8 JUMP JUMPDEST PUSH2 0xE60 JUMP JUMPDEST STOP JUMPDEST PUSH0 DUP1 DUP3 EQ ISZERO DUP1 ISZERO PUSH2 0x247 JUMPI POP PUSH0 DUP3 GT JUMPDEST PUSH2 0x286 JUMPI PUSH1 0x40 MLOAD PUSH32 0x8C379A000000000000000000000000000000000000000000000000000000000 DUP2 MSTORE PUSH1 0x4 ADD PUSH2 0x27D SWAP1 PUSH2 0x1382 JUMP JUMPDEST PUSH1 0x40 MLOAD DUP1 SWAP2 SUB SWAP1 REVERT JUMPDEST DUP2 PUSH1 0x1 PUSH0 DUP6 PUSH20 0xFFFFFFFFFFFFFFFFFFFFFFFFFFFFFFFFFFFFFFFF AND PUSH20 0xFFFFFFFFFFFFFFFFFFFFFFFFFFFFFFFFFFFFFFFF AND DUP2 MSTORE PUSH1 0x20 ADD SWAP1 DUP2 MSTORE PUSH1 0x20 ADD PUSH0 KECCAK256 PUSH0 DUP5 DUP2 MSTORE PUSH1 0x20 ADD SWAP1 DUP2 MSTORE PUSH1 0x20 ADD PUSH0 KECCAK256 PUSH0 ADD SLOAD EQ SWAP1 POP SWAP3 SWAP2 POP POP JUMP JUMPDEST PUSH0 DUP1 PUSH1 0x1 PUSH0 DUP6 PUSH20 0xFFFFFFFFFFFFFFFFFFFFFFFFFFFFFFFFFFFFFFFF AND PUSH20 0xFFFFFFFFFFFFFFFFFFFFFFFFFFFFFFFFFFFFFFFF AND DUP2 MSTORE PUSH1 0x20 ADD SWAP1 DUP2 MSTORE PUSH1 0x20 ADD PUSH0 KECCAK256 PUSH0 DUP5 DUP2 MSTORE PUSH1 0x20 ADD SWAP1 DUP2 MSTORE PUSH1 0x20 ADD PUSH0 KECCAK256 PUSH1 0x40 MLOAD DUP1 PUSH1 0x80 ADD PUSH1 0x40 MSTORE SWAP1 DUP2 PUSH0 DUP3 ADD SLOAD DUP2 MSTORE PUSH1 0x20 ADD PUSH1 0x1 DUP3 ADD DUP1 SLOAD PUSH2 0x351 SWAP1 PUSH2 0x13CD JUMP JUMPDEST DUP1 PUSH1 0x1F ADD PUSH1 0x20 DUP1 SWAP2 DIV MUL PUSH1 0x20 ADD PUSH1 0x40 MLOAD SWAP1 DUP2 ADD PUSH1 0x40 MSTORE DUP1 SWAP3 SWAP2 SWAP1 DUP2 DUP2 MSTORE PUSH1 0x20 ADD DUP3 DUP1 SLOAD PUSH2 0x37D SWAP1 PUSH2 0x13CD JUMP JUMPDEST DUP1 ISZERO PUSH2 0x3C8 JUMPI DUP1 PUSH1 0x1F LT PUSH2 0x39F JUMPI PUSH2 0x100 DUP1 DUP4 SLOAD DIV MUL DUP4 MSTORE SWAP2 PUSH1 0x20 ADD SWAP2 PUSH2 0x3C8 JUMP JUMPDEST DUP3 ADD SWAP2 SWAP1 PUSH0 MSTORE PUSH1 0x20 PUSH0 KECCAK256 SWAP1 JUMPDEST DUP2 SLOAD DUP2 MSTORE SWAP1 PUSH1 0x1 ADD SWAP1 PUSH1 0x20 ADD DUP1 DUP4 GT PUSH2 0x3AB JUMPI DUP3 SWAP1 SUB PUSH1 0x1F AND DUP3 ADD SWAP2 JUMPDEST POP POP POP POP POP DUP2 MSTORE PUSH1 0x20 ADD PUSH1 0x2 DUP3 ADD SLOAD DUP2 MSTORE PUSH1 0x20 ADD PUSH1 0x3 DUP3 ADD SLOAD DUP2 MSTORE POP POP SWAP1 POP DUP1 PUSH1 0x40 ADD MLOAD SWAP2 POP POP SWAP3 SWAP2 POP POP JUMP JUMPDEST PUSH0 DUP1 PUSH1 0x1 PUSH0 DUP6 PUSH20 0xFFFFFFFFFFFFFFFFFFFFFFFFFFFFFFFFFFFFFFFF AND PUSH20 0xFFFFFFFFFFFFFFFFFFFFFFFFFFFFFFFFFFFFFFFF AND DUP2 MSTORE PUSH1 0x20 ADD SWAP1 DUP2 MSTORE PUSH1 0x20 ADD PUSH0 KECCAK256 PUSH0 DUP5 DUP2 MSTORE PUSH1 0x20 ADD SWAP1 DUP2 MSTORE PUSH1 0x20 ADD PUSH0 KECCAK256 PUSH1 0x40 MLOAD DUP1 PUSH1 0x80 ADD PUSH1 0x40 MSTORE SWAP1 DUP2 PUSH0 DUP3 ADD SLOAD DUP2 MSTORE PUSH1 0x20 ADD PUSH1 0x1 DUP3 ADD DUP1 SLOAD PUSH2 0x467 SWAP1 PUSH2 0x13CD JUMP JUMPDEST DUP1 PUSH1 0x1F ADD PUSH1 0x20 DUP1 SWAP2 DIV MUL PUSH1 0x20 ADD PUSH1 0x40 MLOAD SWAP1 DUP2 ADD PUSH1 0x40 MSTORE DUP1 SWAP3 SWAP2 SWAP1 DUP2 DUP2 MSTORE PUSH1 0x20 ADD DUP3 DUP1 SLOAD PUSH2 0x493 SWAP1 PUSH2 0x13CD JUMP JUMPDEST DUP1 ISZERO PUSH2 0x4DE JUMPI DUP1 PUSH1 0x1F LT PUSH2 0x4B5 JUMPI PUSH2 0x100 DUP1 DUP4 SLOAD DIV MUL DUP4 MSTORE SWAP2 PUSH1 0x20 ADD SWAP2 PUSH2 0x4DE JUMP JUMPDEST DUP3 ADD SWAP2 SWAP1 PUSH0 MSTORE PUSH1 0x20 PUSH0 KECCAK256 SWAP1 JUMPDEST DUP2 SLOAD DUP2 MSTORE SWAP1 PUSH1 0x1 ADD SWAP1 PUSH1 0x20 ADD DUP1 DUP4 GT PUSH2 0x4C1 JUMPI DUP3 SWAP1 SUB PUSH1 0x1F AND DUP3 ADD SWAP2 JUMPDEST POP POP POP POP POP DUP2 MSTORE PUSH1 0x20 ADD PUSH1 0x2 DUP3 ADD SLOAD DUP2 MSTORE PUSH1 0x20 ADD PUSH1 0x3 DUP3 ADD SLOAD DUP2 MSTORE POP POP SWAP1 POP DUP1 PUSH1 0x60 ADD MLOAD SWAP2 POP POP SWAP3 SWAP2 POP POP JUMP JUMPDEST PUSH0 PUSH1 0x60 PUSH0 DUP1 PUSH0 DUP8 DUP8 DUP8 DUP12 PUSH1 0x40 MLOAD PUSH1 0x20 ADD PUSH2 0x528 SWAP5 SWAP4 SWAP3 SWAP2 SWAP1 PUSH2 0x149C JUMP JUMPDEST PUSH1 0x40 MLOAD PUSH1 0x20 DUP2 DUP4 SUB SUB DUP2 MSTORE SWAP1 PUSH1 0x40 MSTORE DUP1 MLOAD SWAP1 PUSH1 0x20 ADD KECCAK256 PUSH0 SHR SWAP1 POP PUSH0 PUSH1 0x1 PUSH0 DUP12 PUSH20 0xFFFFFFFFFFFFFFFFFFFFFFFFFFFFFFFFFFFFFFFF AND PUSH20 0xFFFFFFFFFFFFFFFFFFFFFFFFFFFFFFFFFFFFFFFF AND DUP2 MSTORE PUSH1 0x20 ADD SWAP1 DUP2 MSTORE PUSH1 0x20 ADD PUSH0 KECCAK256 PUSH0 DUP4 DUP2 MSTORE PUSH1 0x20 ADD SWAP1 DUP2 MSTORE PUSH1 0x20 ADD PUSH0 KECCAK256 SWAP1 POP PUSH0 DUP2 PUSH0 ADD SLOAD EQ PUSH2 0x5D6 JUMPI PUSH1 0x40 MLOAD PUSH32 0x8C379A000000000000000000000000000000000000000000000000000000000 DUP2 MSTORE PUSH1 0x4 ADD PUSH2 0x5CD SWAP1 PUSH2 0x152F JUMP JUMPDEST PUSH1 0x40 MLOAD DUP1 SWAP2 SUB SWAP1 REVERT JUMPDEST PUSH0 PUSH1 0x40 MLOAD DUP1 PUSH1 0x80 ADD PUSH1 0x40 MSTORE DUP1 DUP5 DUP2 MSTORE PUSH1 0x20 ADD DUP12 DUP2 MSTORE PUSH1 0x20 ADD DUP11 DUP2 MSTORE PUSH1 0x20 ADD DUP10 DUP2 MSTORE POP SWAP1 POP DUP1 PUSH1 0x1 PUSH0 DUP14 PUSH20 0xFFFFFFFFFFFFFFFFFFFFFFFFFFFFFFFFFFFFFFFF AND PUSH20 0xFFFFFFFFFFFFFFFFFFFFFFFFFFFFFFFFFFFFFFFF AND DUP2 MSTORE PUSH1 0x20 ADD SWAP1 DUP2 MSTORE PUSH1 0x20 ADD PUSH0 KECCAK256 PUSH0 DUP6 DUP2 MSTORE PUSH1 0x20 ADD SWAP1 DUP2 MSTORE PUSH1 0x20 ADD PUSH0 KECCAK256 PUSH0 DUP3 ADD MLOAD DUP2 PUSH0 ADD SSTORE PUSH1 0x20 DUP3 ADD MLOAD DUP2 PUSH1 0x1 ADD SWAP1 DUP2 PUSH2 0x664 SWAP2 SWAP1 PUSH2 0x16EA JUMP JUMPDEST POP PUSH1 0x40 DUP3 ADD MLOAD DUP2 PUSH1 0x2 ADD SSTORE PUSH1 0x60 DUP3 ADD MLOAD DUP2 PUSH1 0x3 ADD SSTORE SWAP1 POP POP PUSH1 0x1 PUSH0 DUP13 PUSH20 0xFFFFFFFFFFFFFFFFFFFFFFFFFFFFFFFFFFFFFFFF AND PUSH20 0xFFFFFFFFFFFFFFFFFFFFFFFFFFFFFFFFFFFFFFFF AND DUP2 MSTORE PUSH1 0x20 ADD SWAP1 DUP2 MSTORE PUSH1 0x20 ADD PUSH0 KECCAK256 PUSH0 DUP5 DUP2 MSTORE PUSH1 0x20 ADD SWAP1 DUP2 MSTORE PUSH1 0x20 ADD PUSH0 KECCAK256 PUSH0 ADD SLOAD PUSH1 0x1 PUSH0 DUP14 PUSH20 0xFFFFFFFFFFFFFFFFFFFFFFFFFFFFFFFFFFFFFFFF AND PUSH20 0xFFFFFFFFFFFFFFFFFFFFFFFFFFFFFFFFFFFFFFFF AND DUP2 MSTORE PUSH1 0x20 ADD SWAP1 DUP2 MSTORE PUSH1 0x20 ADD PUSH0 KECCAK256 PUSH0 DUP6 DUP2 MSTORE PUSH1 0x20 ADD SWAP1 DUP2 MSTORE PUSH1 0x20 ADD PUSH0 KECCAK256 PUSH1 0x1 ADD PUSH1 0x1 PUSH0 DUP15 PUSH20 0xFFFFFFFFFFFFFFFFFFFFFFFFFFFFFFFFFFFFFFFF AND PUSH20 0xFFFFFFFFFFFFFFFFFFFFFFFFFFFFFFFFFFFFFFFF AND DUP2 MSTORE PUSH1 0x20 ADD SWAP1 DUP2 MSTORE PUSH1 0x20 ADD PUSH0 KECCAK256 PUSH0 DUP7 DUP2 MSTORE PUSH1 0x20 ADD SWAP1 DUP2 MSTORE PUSH1 0x20 ADD PUSH0 KECCAK256 PUSH1 0x2 ADD SLOAD PUSH1 0x1 PUSH0 DUP16 PUSH20 0xFFFFFFFFFFFFFFFFFFFFFFFFFFFFFFFFFFFFFFFF AND PUSH20 0xFFFFFFFFFFFFFFFFFFFFFFFFFFFFFFFFFFFFFFFF AND DUP2 MSTORE PUSH1 0x20 ADD SWAP1 DUP2 MSTORE PUSH1 0x20 ADD PUSH0 KECCAK256 PUSH0 DUP8 DUP2 MSTORE PUSH1 0x20 ADD SWAP1 DUP2 MSTORE PUSH1 0x20 ADD PUSH0 KECCAK256 PUSH1 0x3 ADD SLOAD DUP3 DUP1 SLOAD PUSH2 0x7C6 SWAP1 PUSH2 0x13CD JUMP JUMPDEST DUP1 PUSH1 0x1F ADD PUSH1 0x20 DUP1 SWAP2 DIV MUL PUSH1 0x20 ADD PUSH1 0x40 MLOAD SWAP1 DUP2 ADD PUSH1 0x40 MSTORE DUP1 SWAP3 SWAP2 SWAP1 DUP2 DUP2 MSTORE PUSH1 0x20 ADD DUP3 DUP1 SLOAD PUSH2 0x7F2 SWAP1 PUSH2 0x13CD JUMP JUMPDEST DUP1 ISZERO PUSH2 0x83D JUMPI DUP1 PUSH1 0x1F LT PUSH2 0x814 JUMPI PUSH2 0x100 DUP1 DUP4 SLOAD DIV MUL DUP4 MSTORE SWAP2 PUSH1 0x20 ADD SWAP2 PUSH2 0x83D JUMP JUMPDEST DUP3 ADD SWAP2 SWAP1 PUSH0 MSTORE PUSH1 0x20 PUSH0 KECCAK256 SWAP1 JUMPDEST DUP2 SLOAD DUP2 MSTORE SWAP1 PUSH1 0x1 ADD SWAP1 PUSH1 0x20 ADD DUP1 DUP4 GT PUSH2 0x820 JUMPI DUP3 SWAP1 SUB PUSH1 0x1F AND DUP3 ADD SWAP2 JUMPDEST POP POP POP POP POP SWAP3 POP SWAP7 POP SWAP7 POP SWAP7 POP SWAP7 POP POP POP POP SWAP5 POP SWAP5 POP SWAP5 POP SWAP5 SWAP1 POP JUMP JUMPDEST PUSH0 DUP3 PUSH1 0x1 PUSH0 DUP7 PUSH20 0xFFFFFFFFFFFFFFFFFFFFFFFFFFFFFFFFFFFFFFFF AND PUSH20 0xFFFFFFFFFFFFFFFFFFFFFFFFFFFFFFFFFFFFFFFF AND DUP2 MSTORE PUSH1 0x20 ADD SWAP1 DUP2 MSTORE PUSH1 0x20 ADD PUSH0 KECCAK256 PUSH0 DUP6 DUP2 MSTORE PUSH1 0x20 ADD SWAP1 DUP2 MSTORE PUSH1 0x20 ADD PUSH0 KECCAK256 PUSH0 ADD SLOAD EQ PUSH2 0x8EB JUMPI PUSH1 0x40 MLOAD PUSH32 0x8C379A000000000000000000000000000000000000000000000000000000000 DUP2 MSTORE PUSH1 0x4 ADD PUSH2 0x8E2 SWAP1 PUSH2 0x1803 JUMP JUMPDEST PUSH1 0x40 MLOAD DUP1 SWAP2 SUB SWAP1 REVERT JUMPDEST PUSH0 PUSH1 0x1 PUSH0 DUP7 PUSH20 0xFFFFFFFFFFFFFFFFFFFFFFFFFFFFFFFFFFFFFFFF AND PUSH20 0xFFFFFFFFFFFFFFFFFFFFFFFFFFFFFFFFFFFFFFFF AND DUP2 MSTORE PUSH1 0x20 ADD SWAP1 DUP2 MSTORE PUSH1 0x20 ADD PUSH0 KECCAK256 PUSH0 DUP6 DUP2 MSTORE PUSH1 0x20 ADD SWAP1 DUP2 MSTORE PUSH1 0x20 ADD PUSH0 KECCAK256 SWAP1 POP DUP3 DUP2 PUSH1 0x2 ADD SLOAD LT ISZERO PUSH2 0x981 JUMPI PUSH1 0x40 MLOAD PUSH32 0x8C379A000000000000000000000000000000000000000000000000000000000 DUP2 MSTORE PUSH1 0x4 ADD PUSH2 0x978 SWAP1 PUSH2 0x186B JUMP JUMPDEST PUSH1 0x40 MLOAD DUP1 SWAP2 SUB SWAP1 REVERT JUMPDEST PUSH1 0x1 SWAP2 POP POP SWAP4 SWAP3 POP POP POP JUMP JUMPDEST PUSH1 0x60 PUSH0 PUSH1 0x1 PUSH0 DUP6 PUSH20 0xFFFFFFFFFFFFFFFFFFFFFFFFFFFFFFFFFFFFFFFF AND PUSH20 0xFFFFFFFFFFFFFFFFFFFFFFFFFFFFFFFFFFFFFFFF AND DUP2 MSTORE PUSH1 0x20 ADD SWAP1 DUP2 MSTORE PUSH1 0x20 ADD PUSH0 KECCAK256 PUSH0 DUP5 DUP2 MSTORE PUSH1 0x20 ADD SWAP1 DUP2 MSTORE PUSH1 0x20 ADD PUSH0 KECCAK256 PUSH1 0x40 MLOAD DUP1 PUSH1 0x80 ADD PUSH1 0x40 MSTORE SWAP1 DUP2 PUSH0 DUP3 ADD SLOAD DUP2 MSTORE PUSH1 0x20 ADD PUSH1 0x1 DUP3 ADD DUP1 SLOAD PUSH2 0xA00 SWAP1 PUSH2 0x13CD JUMP JUMPDEST DUP1 PUSH1 0x1F ADD PUSH1 0x20 DUP1 SWAP2 DIV MUL PUSH1 0x20 ADD PUSH1 0x40 MLOAD SWAP1 DUP2 ADD PUSH1 0x40 MSTORE DUP1 SWAP3 SWAP2 SWAP1 DUP2 DUP2 MSTORE PUSH1 0x20 ADD DUP3 DUP1 SLOAD PUSH2 0xA2C SWAP1 PUSH2 0x13CD JUMP JUMPDEST DUP1 ISZERO PUSH2 0xA77 JUMPI DUP1 PUSH1 0x1F LT PUSH2 0xA4E JUMPI PUSH2 0x100 DUP1 DUP4 SLOAD DIV MUL DUP4 MSTORE SWAP2 PUSH1 0x20 ADD SWAP2 PUSH2 0xA77 JUMP JUMPDEST DUP3 ADD SWAP2 SWAP1 PUSH0 MSTORE PUSH1 0x20 PUSH0 KECCAK256 SWAP1 JUMPDEST DUP2 SLOAD DUP2 MSTORE SWAP1 PUSH1 0x1 ADD SWAP1 PUSH1 0x20 ADD DUP1 DUP4 GT PUSH2 0xA5A JUMPI DUP3 SWAP1 SUB PUSH1 0x1F AND DUP3 ADD SWAP2 JUMPDEST POP POP POP POP POP DUP2 MSTORE PUSH1 0x20 ADD PUSH1 0x2 DUP3 ADD SLOAD DUP2 MSTORE PUSH1 0x20 ADD PUSH1 0x3 DUP3 ADD SLOAD DUP2 MSTORE POP POP SWAP1 POP DUP1 PUSH1 0x20 ADD MLOAD SWAP2 POP POP SWAP3 SWAP2 POP POP JUMP JUMPDEST PUSH0 DUP1 PUSH1 0x1 PUSH0 DUP6 PUSH20 0xFFFFFFFFFFFFFFFFFFFFFFFFFFFFFFFFFFFFFFFF AND PUSH20 0xFFFFFFFFFFFFFFFFFFFFFFFFFFFFFFFFFFFFFFFF AND DUP2 MSTORE PUSH1 0x20 ADD SWAP1 DUP2 MSTORE PUSH1 0x20 ADD PUSH0 KECCAK256 PUSH0 DUP5 DUP2 MSTORE PUSH1 0x20 ADD SWAP1 DUP2 MSTORE PUSH1 0x20 ADD PUSH0 KECCAK256 PUSH1 0x1 ADD PUSH1 0x1 PUSH0 DUP7 PUSH20 0xFFFFFFFFFFFFFFFFFFFFFFFFFFFFFFFFFFFFFFFF AND PUSH20 0xFFFFFFFFFFFFFFFFFFFFFFFFFFFFFFFFFFFFFFFF AND DUP2 MSTORE PUSH1 0x20 ADD SWAP1 DUP2 MSTORE PUSH1 0x20 ADD PUSH0 KECCAK256 PUSH0 DUP6 DUP2 MSTORE PUSH1 0x20 ADD SWAP1 DUP2 MSTORE PUSH1 0x20 ADD PUSH0 KECCAK256 PUSH1 0x2 ADD SLOAD PUSH1 0x1 PUSH0 DUP8 PUSH20 0xFFFFFFFFFFFFFFFFFFFFFFFFFFFFFFFFFFFFFFFF AND PUSH20 0xFFFFFFFFFFFFFFFFFFFFFFFFFFFFFFFFFFFFFFFF AND DUP2 MSTORE PUSH1 0x20 ADD SWAP1 DUP2 MSTORE PUSH1 0x20 ADD PUSH0 KECCAK256 PUSH0 DUP7 DUP2 MSTORE PUSH1 0x20 ADD SWAP1 DUP2 MSTORE PUSH1 0x20 ADD PUSH0 KECCAK256 PUSH1 0x3 ADD SLOAD DUP7 PUSH1 0x40 MLOAD PUSH1 0x20 ADD PUSH2 0xBA9 SWAP5 SWAP4 SWAP3 SWAP2 SWAP1 PUSH2 0x1909 JUMP JUMPDEST PUSH1 0x40 MLOAD PUSH1 0x20 DUP2 DUP4 SUB SUB DUP2 MSTORE SWAP1 PUSH1 0x40 MSTORE DUP1 MLOAD SWAP1 PUSH1 0x20 ADD KECCAK256 PUSH0 SHR SWAP1 POP DUP1 PUSH1 0x1 PUSH0 DUP7 PUSH20 0xFFFFFFFFFFFFFFFFFFFFFFFFFFFFFFFFFFFFFFFF AND PUSH20 0xFFFFFFFFFFFFFFFFFFFFFFFFFFFFFFFFFFFFFFFF AND DUP2 MSTORE PUSH1 0x20 ADD SWAP1 DUP2 MSTORE PUSH1 0x20 ADD PUSH0 KECCAK256 PUSH0 DUP6 DUP2 MSTORE PUSH1 0x20 ADD SWAP1 DUP2 MSTORE PUSH1 0x20 ADD PUSH0 KECCAK256 PUSH0 ADD SLOAD EQ PUSH2 0xC53 JUMPI PUSH1 0x40 MLOAD PUSH32 0x8C379A000000000000000000000000000000000000000000000000000000000 DUP2 MSTORE PUSH1 0x4 ADD PUSH2 0xC4A SWAP1 PUSH2 0x199C JUMP JUMPDEST PUSH1 0x40 MLOAD DUP1 SWAP2 SUB SWAP1 REVERT JUMPDEST PUSH1 0x1 PUSH0 DUP6 PUSH20 0xFFFFFFFFFFFFFFFFFFFFFFFFFFFFFFFFFFFFFFFF AND PUSH20 0xFFFFFFFFFFFFFFFFFFFFFFFFFFFFFFFFFFFFFFFF AND DUP2 MSTORE PUSH1 0x20 ADD SWAP1 DUP2 MSTORE PUSH1 0x20 ADD PUSH0 KECCAK256 PUSH0 DUP5 DUP2 MSTORE PUSH1 0x20 ADD SWAP1 DUP2 MSTORE PUSH1 0x20 ADD PUSH0 KECCAK256 PUSH0 DUP1 DUP3 ADD PUSH0 SWAP1 SSTORE PUSH1 0x1 DUP3 ADD PUSH0 PUSH2 0xCB5 SWAP2 SWAP1 PUSH2 0xEB9 JUMP JUMPDEST PUSH1 0x2 DUP3 ADD PUSH0 SWAP1 SSTORE PUSH1 0x3 DUP3 ADD PUSH0 SWAP1 SSTORE POP POP PUSH0 PUSH1 0x1 PUSH0 DUP7 PUSH20 0xFFFFFFFFFFFFFFFFFFFFFFFFFFFFFFFFFFFFFFFF AND PUSH20 0xFFFFFFFFFFFFFFFFFFFFFFFFFFFFFFFFFFFFFFFF AND DUP2 MSTORE PUSH1 0x20 ADD SWAP1 DUP2 MSTORE PUSH1 0x20 ADD PUSH0 KECCAK256 PUSH0 DUP6 DUP2 MSTORE PUSH1 0x20 ADD SWAP1 DUP2 MSTORE PUSH1 0x20 ADD PUSH0 KECCAK256 PUSH0 ADD SLOAD SUB PUSH2 0xD24 JUMPI PUSH1 0x1 SWAP2 POP POP PUSH2 0xD29 JUMP JUMPDEST PUSH0 SWAP2 POP POP JUMPDEST SWAP3 SWAP2 POP POP JUMP JUMPDEST PUSH0 PUSH1 0x60 PUSH0 DUP1 PUSH0 PUSH1 0x1 PUSH0 DUP9 PUSH20 0xFFFFFFFFFFFFFFFFFFFFFFFFFFFFFFFFFFFFFFFF AND PUSH20 0xFFFFFFFFFFFFFFFFFFFFFFFFFFFFFFFFFFFFFFFF AND DUP2 MSTORE PUSH1 0x20 ADD SWAP1 DUP2 MSTORE PUSH1 0x20 ADD PUSH0 KECCAK256 PUSH0 DUP8 DUP2 MSTORE PUSH1 0x20 ADD SWAP1 DUP2 MSTORE PUSH1 0x20 ADD PUSH0 KECCAK256 PUSH1 0x40 MLOAD DUP1 PUSH1 0x80 ADD PUSH1 0x40 MSTORE SWAP1 DUP2 PUSH0 DUP3 ADD SLOAD DUP2 MSTORE PUSH1 0x20 ADD PUSH1 0x1 DUP3 ADD DUP1 SLOAD PUSH2 0xDA5 SWAP1 PUSH2 0x13CD JUMP JUMPDEST DUP1 PUSH1 0x1F ADD PUSH1 0x20 DUP1 SWAP2 DIV MUL PUSH1 0x20 ADD PUSH1 0x40 MLOAD SWAP1 DUP2 ADD PUSH1 0x40 MSTORE DUP1 SWAP3 SWAP2 SWAP1 DUP2 DUP2 MSTORE PUSH1 0x20 ADD DUP3 DUP1 SLOAD PUSH2 0xDD1 SWAP1 PUSH2 0x13CD JUMP JUMPDEST DUP1 ISZERO PUSH2 0xE1C JUMPI DUP1 PUSH1 0x1F LT PUSH2 0xDF3 JUMPI PUSH2 0x100 DUP1 DUP4 SLOAD DIV MUL DUP4 MSTORE SWAP2 PUSH1 0x20 ADD SWAP2 PUSH2 0xE1C JUMP JUMPDEST DUP3 ADD SWAP2 SWAP1 PUSH0 MSTORE PUSH1 0x20 PUSH0 KECCAK256 SWAP1 JUMPDEST DUP2 SLOAD DUP2 MSTORE SWAP1 PUSH1 0x1 ADD SWAP1 PUSH1 0x20 ADD DUP1 DUP4 GT PUSH2 0xDFF JUMPI DUP3 SWAP1 SUB PUSH1 0x1F AND DUP3 ADD SWAP2 JUMPDEST POP POP POP POP POP DUP2 MSTORE PUSH1 0x20 ADD PUSH1 0x2 DUP3 ADD SLOAD DUP2 MSTORE PUSH1 0x20 ADD PUSH1 0x3 DUP3 ADD SLOAD DUP2 MSTORE POP POP SWAP1 POP DUP1 PUSH0 ADD MLOAD DUP2 PUSH1 0x20 ADD MLOAD DUP3 PUSH1 0x40 ADD MLOAD DUP4 PUSH1 0x60 ADD MLOAD SWAP5 POP SWAP5 POP SWAP5 POP SWAP5 POP POP SWAP3 SWAP6 SWAP2 SWAP5 POP SWAP3 POP JUMP JUMPDEST DUP1 PUSH1 0x1 PUSH0 DUP6 PUSH20 0xFFFFFFFFFFFFFFFFFFFFFFFFFFFFFFFFFFFFFFFF AND PUSH20 0xFFFFFFFFFFFFFFFFFFFFFFFFFFFFFFFFFFFFFFFF AND DUP2 MSTORE PUSH1 0x20 ADD SWAP1 DUP2 MSTORE PUSH1 0x20 ADD PUSH0 KECCAK256 PUSH0 DUP5 DUP2 MSTORE PUSH1 0x20 ADD SWAP1 DUP2 MSTORE PUSH1 0x20 ADD PUSH0 KECCAK256 PUSH1 0x2 ADD DUP2 SWAP1 SSTORE POP POP POP POP JUMP JUMPDEST POP DUP1 SLOAD PUSH2 0xEC5 SWAP1 PUSH2 0x13CD JUMP JUMPDEST PUSH0 DUP3 SSTORE DUP1 PUSH1 0x1F LT PUSH2 0xED6 JUMPI POP PUSH2 0xEF3 JUMP JUMPDEST PUSH1 0x1F ADD PUSH1 0x20 SWAP1 DIV SWAP1 PUSH0 MSTORE PUSH1 0x20 PUSH0 KECCAK256 SWAP1 DUP2 ADD SWAP1 PUSH2 0xEF2 SWAP2 SWAP1 PUSH2 0xEF6 JUMP JUMPDEST JUMPDEST POP JUMP JUMPDEST JUMPDEST DUP1 DUP3 GT ISZERO PUSH2 0xF0D JUMPI PUSH0 DUP2 PUSH0 SWAP1 SSTORE POP PUSH1 0x1 ADD PUSH2 0xEF7 JUMP JUMPDEST POP SWAP1 JUMP JUMPDEST PUSH0 PUSH1 0x40 MLOAD SWAP1 POP SWAP1 JUMP JUMPDEST PUSH0 DUP1 REVERT JUMPDEST PUSH0 DUP1 REVERT JUMPDEST PUSH0 PUSH20 0xFFFFFFFFFFFFFFFFFFFFFFFFFFFFFFFFFFFFFFFF DUP3 AND SWAP1 POP SWAP2 SWAP1 POP JUMP JUMPDEST PUSH0 PUSH2 0xF4B DUP3 PUSH2 0xF22 JUMP JUMPDEST SWAP1 POP SWAP2 SWAP1 POP JUMP JUMPDEST PUSH2 0xF5B DUP2 PUSH2 0xF41 JUMP JUMPDEST DUP2 EQ PUSH2 0xF65 JUMPI PUSH0 DUP1 REVERT JUMPDEST POP JUMP JUMPDEST PUSH0 DUP2 CALLDATALOAD SWAP1 POP PUSH2 0xF76 DUP2 PUSH2 0xF52 JUMP JUMPDEST SWAP3 SWAP2 POP POP JUMP JUMPDEST PUSH0 DUP2 SWAP1 POP SWAP2 SWAP1 POP JUMP JUMPDEST PUSH2 0xF8E DUP2 PUSH2 0xF7C JUMP JUMPDEST DUP2 EQ PUSH2 0xF98 JUMPI PUSH0 DUP1 REVERT JUMPDEST POP JUMP JUMPDEST PUSH0 DUP2 CALLDATALOAD SWAP1 POP PUSH2 0xFA9 DUP2 PUSH2 0xF85 JUMP JUMPDEST SWAP3 SWAP2 POP POP JUMP JUMPDEST PUSH0 DUP1 PUSH1 0x40 DUP4 DUP6 SUB SLT ISZERO PUSH2 0xFC5 JUMPI PUSH2 0xFC4 PUSH2 0xF1A JUMP JUMPDEST JUMPDEST PUSH0 PUSH2 0xFD2 DUP6 DUP3 DUP7 ADD PUSH2 0xF68 JUMP JUMPDEST SWAP3 POP POP PUSH1 0x20 PUSH2 0xFE3 DUP6 DUP3 DUP7 ADD PUSH2 0xF9B JUMP JUMPDEST SWAP2 POP POP SWAP3 POP SWAP3 SWAP1 POP JUMP JUMPDEST PUSH0 DUP2 ISZERO ISZERO SWAP1 POP SWAP2 SWAP1 POP JUMP JUMPDEST PUSH2 0x1001 DUP2 PUSH2 0xFED JUMP JUMPDEST DUP3 MSTORE POP POP JUMP JUMPDEST PUSH0 PUSH1 0x20 DUP3 ADD SWAP1 POP PUSH2 0x101A PUSH0 DUP4 ADD DUP5 PUSH2 0xFF8 JUMP JUMPDEST SWAP3 SWAP2 POP POP JUMP JUMPDEST PUSH2 0x1029 DUP2 PUSH2 0xF7C JUMP JUMPDEST DUP3 MSTORE POP POP JUMP JUMPDEST PUSH0 PUSH1 0x20 DUP3 ADD SWAP1 POP PUSH2 0x1042 PUSH0 DUP4 ADD DUP5 PUSH2 0x1020 JUMP JUMPDEST SWAP3 SWAP2 POP POP JUMP JUMPDEST PUSH0 DUP1 REVERT JUMPDEST PUSH0 DUP1 REVERT JUMPDEST PUSH0 PUSH1 0x1F NOT PUSH1 0x1F DUP4 ADD AND SWAP1 POP SWAP2 SWAP1 POP JUMP JUMPDEST PUSH32 0x4E487B7100000000000000000000000000000000000000000000000000000000 PUSH0 MSTORE PUSH1 0x41 PUSH1 0x4 MSTORE PUSH1 0x24 PUSH0 REVERT JUMPDEST PUSH2 0x1096 DUP3 PUSH2 0x1050 JUMP JUMPDEST DUP2 ADD DUP2 DUP2 LT PUSH8 0xFFFFFFFFFFFFFFFF DUP3 GT OR ISZERO PUSH2 0x10B5 JUMPI PUSH2 0x10B4 PUSH2 0x1060 JUMP JUMPDEST JUMPDEST DUP1 PUSH1 0x40 MSTORE POP POP POP JUMP JUMPDEST PUSH0 PUSH2 0x10C7 PUSH2 0xF11 JUMP JUMPDEST SWAP1 POP PUSH2 0x10D3 DUP3 DUP3 PUSH2 0x108D JUMP JUMPDEST SWAP2 SWAP1 POP JUMP JUMPDEST PUSH0 PUSH8 0xFFFFFFFFFFFFFFFF DUP3 GT ISZERO PUSH2 0x10F2 JUMPI PUSH2 0x10F1 PUSH2 0x1060 JUMP JUMPDEST JUMPDEST PUSH2 0x10FB DUP3 PUSH2 0x1050 JUMP JUMPDEST SWAP1 POP PUSH1 0x20 DUP2 ADD SWAP1 POP SWAP2 SWAP1 POP JUMP JUMPDEST DUP3 DUP2 DUP4 CALLDATACOPY PUSH0 DUP4 DUP4 ADD MSTORE POP POP POP JUMP JUMPDEST PUSH0 PUSH2 0x1128 PUSH2 0x1123 DUP5 PUSH2 0x10D8 JUMP JUMPDEST PUSH2 0x10BE JUMP JUMPDEST SWAP1 POP DUP3 DUP2 MSTORE PUSH1 0x20 DUP2 ADD DUP5 DUP5 DUP5 ADD GT ISZERO PUSH2 0x1144 JUMPI PUSH2 0x1143 PUSH2 0x104C JUMP JUMPDEST JUMPDEST PUSH2 0x114F DUP5 DUP3 DUP6 PUSH2 0x1108 JUMP JUMPDEST POP SWAP4 SWAP3 POP POP POP JUMP JUMPDEST PUSH0 DUP3 PUSH1 0x1F DUP4 ADD SLT PUSH2 0x116B JUMPI PUSH2 0x116A PUSH2 0x1048 JUMP JUMPDEST JUMPDEST DUP2 CALLDATALOAD PUSH2 0x117B DUP5 DUP3 PUSH1 0x20 DUP7 ADD PUSH2 0x1116 JUMP JUMPDEST SWAP2 POP POP SWAP3 SWAP2 POP POP JUMP JUMPDEST PUSH0 DUP1 PUSH0 DUP1 PUSH1 0x80 DUP6 DUP8 SUB SLT ISZERO PUSH2 0x119C JUMPI PUSH2 0x119B PUSH2 0xF1A JUMP JUMPDEST JUMPDEST PUSH0 PUSH2 0x11A9 DUP8 DUP3 DUP9 ADD PUSH2 0xF68 JUMP JUMPDEST SWAP5 POP POP PUSH1 0x20 DUP6 ADD CALLDATALOAD PUSH8 0xFFFFFFFFFFFFFFFF DUP2 GT ISZERO PUSH2 0x11CA JUMPI PUSH2 0x11C9 PUSH2 0xF1E JUMP JUMPDEST JUMPDEST PUSH2 0x11D6 DUP8 DUP3 DUP9 ADD PUSH2 0x1157 JUMP JUMPDEST SWAP4 POP POP PUSH1 0x40 PUSH2 0x11E7 DUP8 DUP3 DUP9 ADD PUSH2 0xF9B JUMP JUMPDEST SWAP3 POP POP PUSH1 0x60 PUSH2 0x11F8 DUP8 DUP3 DUP9 ADD PUSH2 0xF9B JUMP JUMPDEST SWAP2 POP POP SWAP3 SWAP6 SWAP2 SWAP5 POP SWAP3 POP JUMP JUMPDEST PUSH0 DUP2 MLOAD SWAP1 POP SWAP2 SWAP1 POP JUMP JUMPDEST PUSH0 DUP3 DUP3 MSTORE PUSH1 0x20 DUP3 ADD SWAP1 POP SWAP3 SWAP2 POP POP JUMP JUMPDEST PUSH0 JUMPDEST DUP4 DUP2 LT ISZERO PUSH2 0x123B JUMPI DUP1 DUP3 ADD MLOAD DUP2 DUP5 ADD MSTORE PUSH1 0x20 DUP2 ADD SWAP1 POP PUSH2 0x1220 JUMP JUMPDEST PUSH0 DUP5 DUP5 ADD MSTORE POP POP POP POP JUMP JUMPDEST PUSH0 PUSH2 0x1250 DUP3 PUSH2 0x1204 JUMP JUMPDEST PUSH2 0x125A DUP2 DUP6 PUSH2 0x120E JUMP JUMPDEST SWAP4 POP PUSH2 0x126A DUP2 DUP6 PUSH1 0x20 DUP7 ADD PUSH2 0x121E JUMP JUMPDEST PUSH2 0x1273 DUP2 PUSH2 0x1050 JUMP JUMPDEST DUP5 ADD SWAP2 POP POP SWAP3 SWAP2 POP POP JUMP JUMPDEST PUSH0 PUSH1 0x80 DUP3 ADD SWAP1 POP PUSH2 0x1291 PUSH0 DUP4 ADD DUP8 PUSH2 0x1020 JUMP JUMPDEST DUP2 DUP2 SUB PUSH1 0x20 DUP4 ADD MSTORE PUSH2 0x12A3 DUP2 DUP7 PUSH2 0x1246 JUMP JUMPDEST SWAP1 POP PUSH2 0x12B2 PUSH1 0x40 DUP4 ADD DUP6 PUSH2 0x1020 JUMP JUMPDEST PUSH2 0x12BF PUSH1 0x60 DUP4 ADD DUP5 PUSH2 0x1020 JUMP JUMPDEST SWAP6 SWAP5 POP POP POP POP POP JUMP JUMPDEST PUSH0 DUP1 PUSH0 PUSH1 0x60 DUP5 DUP7 SUB SLT ISZERO PUSH2 0x12DF JUMPI PUSH2 0x12DE PUSH2 0xF1A JUMP JUMPDEST JUMPDEST PUSH0 PUSH2 0x12EC DUP7 DUP3 DUP8 ADD PUSH2 0xF68 JUMP JUMPDEST SWAP4 POP POP PUSH1 0x20 PUSH2 0x12FD DUP7 DUP3 DUP8 ADD PUSH2 0xF9B JUMP JUMPDEST SWAP3 POP POP PUSH1 0x40 PUSH2 0x130E DUP7 DUP3 DUP8 ADD PUSH2 0xF9B JUMP JUMPDEST SWAP2 POP POP SWAP3 POP SWAP3 POP SWAP3 JUMP JUMPDEST PUSH0 PUSH1 0x20 DUP3 ADD SWAP1 POP DUP2 DUP2 SUB PUSH0 DUP4 ADD MSTORE PUSH2 0x1330 DUP2 DUP5 PUSH2 0x1246 JUMP JUMPDEST SWAP1 POP SWAP3 SWAP2 POP POP JUMP JUMPDEST PUSH32 0x4944204D696C6B4261746368204E6F742056616C696421000000000000000000 PUSH0 DUP3 ADD MSTORE POP JUMP JUMPDEST PUSH0 PUSH2 0x136C PUSH1 0x17 DUP4 PUSH2 0x120E JUMP JUMPDEST SWAP2 POP PUSH2 0x1377 DUP3 PUSH2 0x1338 JUMP JUMPDEST PUSH1 0x20 DUP3 ADD SWAP1 POP SWAP2 SWAP1 POP JUMP JUMPDEST PUSH0 PUSH1 0x20 DUP3 ADD SWAP1 POP DUP2 DUP2 SUB PUSH0 DUP4 ADD MSTORE PUSH2 0x1399 DUP2 PUSH2 0x1360 JUMP JUMPDEST SWAP1 POP SWAP2 SWAP1 POP JUMP JUMPDEST PUSH32 0x4E487B7100000000000000000000000000000000000000000000000000000000 PUSH0 MSTORE PUSH1 0x22 PUSH1 0x4 MSTORE PUSH1 0x24 PUSH0 REVERT JUMPDEST PUSH0 PUSH1 0x2 DUP3 DIV SWAP1 POP PUSH1 0x1 DUP3 AND DUP1 PUSH2 0x13E4 JUMPI PUSH1 0x7F DUP3 AND SWAP2 POP JUMPDEST PUSH1 0x20 DUP3 LT DUP2 SUB PUSH2 0x13F7 JUMPI PUSH2 0x13F6 PUSH2 0x13A0 JUMP JUMPDEST JUMPDEST POP SWAP2 SWAP1 POP JUMP JUMPDEST PUSH0 DUP2 SWAP1 POP SWAP3 SWAP2 POP POP JUMP JUMPDEST PUSH0 PUSH2 0x1411 DUP3 PUSH2 0x1204 JUMP JUMPDEST PUSH2 0x141B DUP2 DUP6 PUSH2 0x13FD JUMP JUMPDEST SWAP4 POP PUSH2 0x142B DUP2 DUP6 PUSH1 0x20 DUP7 ADD PUSH2 0x121E JUMP JUMPDEST DUP1 DUP5 ADD SWAP2 POP POP SWAP3 SWAP2 POP POP JUMP JUMPDEST PUSH0 DUP2 SWAP1 POP SWAP2 SWAP1 POP JUMP JUMPDEST PUSH2 0x1451 PUSH2 0x144C DUP3 PUSH2 0xF7C JUMP JUMPDEST PUSH2 0x1437 JUMP JUMPDEST DUP3 MSTORE POP POP JUMP JUMPDEST PUSH0 DUP2 PUSH1 0x60 SHL SWAP1 POP SWAP2 SWAP1 POP JUMP JUMPDEST PUSH0 PUSH2 0x146D DUP3 PUSH2 0x1457 JUMP JUMPDEST SWAP1 POP SWAP2 SWAP1 POP JUMP JUMPDEST PUSH0 PUSH2 0x147E DUP3 PUSH2 0x1463 JUMP JUMPDEST SWAP1 POP SWAP2 SWAP1 POP JUMP JUMPDEST PUSH2 0x1496 PUSH2 0x1491 DUP3 PUSH2 0xF41 JUMP JUMPDEST PUSH2 0x1474 JUMP JUMPDEST DUP3 MSTORE POP POP JUMP JUMPDEST PUSH0 PUSH2 0x14A7 DUP3 DUP8 PUSH2 0x1407 JUMP JUMPDEST SWAP2 POP PUSH2 0x14B3 DUP3 DUP7 PUSH2 0x1440 JUMP JUMPDEST PUSH1 0x20 DUP3 ADD SWAP2 POP PUSH2 0x14C3 DUP3 DUP6 PUSH2 0x1440 JUMP JUMPDEST PUSH1 0x20 DUP3 ADD SWAP2 POP PUSH2 0x14D3 DUP3 DUP5 PUSH2 0x1485 JUMP JUMPDEST PUSH1 0x14 DUP3 ADD SWAP2 POP DUP2 SWAP1 POP SWAP6 SWAP5 POP POP POP POP POP JUMP JUMPDEST PUSH32 0x50657A7A6F20646920466F726D616767696F20676961272050726573656E7465 PUSH0 DUP3 ADD MSTORE POP JUMP JUMPDEST PUSH0 PUSH2 0x1519 PUSH1 0x20 DUP4 PUSH2 0x120E JUMP JUMPDEST SWAP2 POP PUSH2 0x1524 DUP3 PUSH2 0x14E5 JUMP JUMPDEST PUSH1 0x20 DUP3 ADD SWAP1 POP SWAP2 SWAP1 POP JUMP JUMPDEST PUSH0 PUSH1 0x20 DUP3 ADD SWAP1 POP DUP2 DUP2 SUB PUSH0 DUP4 ADD MSTORE PUSH2 0x1546 DUP2 PUSH2 0x150D JUMP JUMPDEST SWAP1 POP SWAP2 SWAP1 POP JUMP JUMPDEST PUSH0 DUP2 SWAP1 POP DUP2 PUSH0 MSTORE PUSH1 0x20 PUSH0 KECCAK256 SWAP1 POP SWAP2 SWAP1 POP JUMP JUMPDEST PUSH0 PUSH1 0x20 PUSH1 0x1F DUP4 ADD DIV SWAP1 POP SWAP2 SWAP1 POP JUMP JUMPDEST PUSH0 DUP3 DUP3 SHL SWAP1 POP SWAP3 SWAP2 POP POP JUMP JUMPDEST PUSH0 PUSH1 0x8 DUP4 MUL PUSH2 0x15A9 PUSH32 0xFFFFFFFFFFFFFFFFFFFFFFFFFFFFFFFFFFFFFFFFFFFFFFFFFFFFFFFFFFFFFFFF DUP3 PUSH2 0x156E JUMP JUMPDEST PUSH2 0x15B3 DUP7 DUP4 PUSH2 0x156E JUMP JUMPDEST SWAP6 POP DUP1 NOT DUP5 AND SWAP4 POP DUP1 DUP7 AND DUP5 OR SWAP3 POP POP POP SWAP4 SWAP3 POP POP POP JUMP JUMPDEST PUSH0 DUP2 SWAP1 POP SWAP2 SWAP1 POP JUMP JUMPDEST PUSH0 PUSH2 0x15EE PUSH2 0x15E9 PUSH2 0x15E4 DUP5 PUSH2 0xF7C JUMP JUMPDEST PUSH2 0x15CB JUMP JUMPDEST PUSH2 0xF7C JUMP JUMPDEST SWAP1 POP SWAP2 SWAP1 POP JUMP JUMPDEST PUSH0 DUP2 SWAP1 POP SWAP2 SWAP1 POP JUMP JUMPDEST PUSH2 0x1607 DUP4 PUSH2 0x15D4 JUMP JUMPDEST PUSH2 0x161B PUSH2 0x1613 DUP3 PUSH2 0x15F5 JUMP JUMPDEST DUP5 DUP5 SLOAD PUSH2 0x157A JUMP JUMPDEST DUP3 SSTORE POP POP POP POP JUMP JUMPDEST PUSH0 SWAP1 JUMP JUMPDEST PUSH2 0x162F PUSH2 0x1623 JUMP JUMPDEST PUSH2 0x163A DUP2 DUP5 DUP5 PUSH2 0x15FE JUMP JUMPDEST POP POP POP JUMP JUMPDEST JUMPDEST DUP2 DUP2 LT ISZERO PUSH2 0x165D JUMPI PUSH2 0x1652 PUSH0 DUP3 PUSH2 0x1627 JUMP JUMPDEST PUSH1 0x1 DUP2 ADD SWAP1 POP PUSH2 0x1640 JUMP JUMPDEST POP POP JUMP JUMPDEST PUSH1 0x1F DUP3 GT ISZERO PUSH2 0x16A2 JUMPI PUSH2 0x1673 DUP2 PUSH2 0x154D JUMP JUMPDEST PUSH2 0x167C DUP5 PUSH2 0x155F JUMP JUMPDEST DUP2 ADD PUSH1 0x20 DUP6 LT ISZERO PUSH2 0x168B JUMPI DUP2 SWAP1 POP JUMPDEST PUSH2 0x169F PUSH2 0x1697 DUP6 PUSH2 0x155F JUMP JUMPDEST DUP4 ADD DUP3 PUSH2 0x163F JUMP JUMPDEST POP POP JUMPDEST POP POP POP JUMP JUMPDEST PUSH0 DUP3 DUP3 SHR SWAP1 POP SWAP3 SWAP2 POP POP JUMP JUMPDEST PUSH0 PUSH2 0x16C2 PUSH0 NOT DUP5 PUSH1 0x8 MUL PUSH2 0x16A7 JUMP JUMPDEST NOT DUP1 DUP4 AND SWAP2 POP POP SWAP3 SWAP2 POP POP JUMP JUMPDEST PUSH0 PUSH2 0x16DA DUP4 DUP4 PUSH2 0x16B3 JUMP JUMPDEST SWAP2 POP DUP3 PUSH1 0x2 MUL DUP3 OR SWAP1 POP SWAP3 SWAP2 POP POP JUMP JUMPDEST PUSH2 0x16F3 DUP3 PUSH2 0x1204 JUMP JUMPDEST PUSH8 0xFFFFFFFFFFFFFFFF DUP2 GT ISZERO PUSH2 0x170C JUMPI PUSH2 0x170B PUSH2 0x1060 JUMP JUMPDEST JUMPDEST PUSH2 0x1716 DUP3 SLOAD PUSH2 0x13CD JUMP JUMPDEST PUSH2 0x1721 DUP3 DUP3 DUP6 PUSH2 0x1661 JUMP JUMPDEST PUSH0 PUSH1 0x20 SWAP1 POP PUSH1 0x1F DUP4 GT PUSH1 0x1 DUP2 EQ PUSH2 0x1752 JUMPI PUSH0 DUP5 ISZERO PUSH2 0x1740 JUMPI DUP3 DUP8 ADD MLOAD SWAP1 POP JUMPDEST PUSH2 0x174A DUP6 DUP3 PUSH2 0x16CF JUMP JUMPDEST DUP7 SSTORE POP PUSH2 0x17B1 JUMP JUMPDEST PUSH1 0x1F NOT DUP5 AND PUSH2 0x1760 DUP7 PUSH2 0x154D JUMP JUMPDEST PUSH0 JUMPDEST DUP3 DUP2 LT ISZERO PUSH2 0x1787 JUMPI DUP5 DUP10 ADD MLOAD DUP3 SSTORE PUSH1 0x1 DUP3 ADD SWAP2 POP PUSH1 0x20 DUP6 ADD SWAP5 POP PUSH1 0x20 DUP2 ADD SWAP1 POP PUSH2 0x1762 JUMP JUMPDEST DUP7 DUP4 LT ISZERO PUSH2 0x17A4 JUMPI DUP5 DUP10 ADD MLOAD PUSH2 0x17A0 PUSH1 0x1F DUP10 AND DUP3 PUSH2 0x16B3 JUMP JUMPDEST DUP4 SSTORE POP JUMPDEST PUSH1 0x1 PUSH1 0x2 DUP9 MUL ADD DUP9 SSTORE POP POP POP JUMPDEST POP POP POP POP POP POP JUMP JUMPDEST PUSH32 0x50726F64756374206E6F6E2070726573656E7465210000000000000000000000 PUSH0 DUP3 ADD MSTORE POP JUMP JUMPDEST PUSH0 PUSH2 0x17ED PUSH1 0x15 DUP4 PUSH2 0x120E JUMP JUMPDEST SWAP2 POP PUSH2 0x17F8 DUP3 PUSH2 0x17B9 JUMP JUMPDEST PUSH1 0x20 DUP3 ADD SWAP1 POP SWAP2 SWAP1 POP JUMP JUMPDEST PUSH0 PUSH1 0x20 DUP3 ADD SWAP1 POP DUP2 DUP2 SUB PUSH0 DUP4 ADD MSTORE PUSH2 0x181A DUP2 PUSH2 0x17E1 JUMP JUMPDEST SWAP1 POP SWAP2 SWAP1 POP JUMP JUMPDEST PUSH32 0x5175616E74697479206E6F742056616C69642100000000000000000000000000 PUSH0 DUP3 ADD MSTORE POP JUMP JUMPDEST PUSH0 PUSH2 0x1855 PUSH1 0x13 DUP4 PUSH2 0x120E JUMP JUMPDEST SWAP2 POP PUSH2 0x1860 DUP3 PUSH2 0x1821 JUMP JUMPDEST PUSH1 0x20 DUP3 ADD SWAP1 POP SWAP2 SWAP1 POP JUMP JUMPDEST PUSH0 PUSH1 0x20 DUP3 ADD SWAP1 POP DUP2 DUP2 SUB PUSH0 DUP4 ADD MSTORE PUSH2 0x1882 DUP2 PUSH2 0x1849 JUMP JUMPDEST SWAP1 POP SWAP2 SWAP1 POP JUMP JUMPDEST PUSH0 DUP2 SLOAD PUSH2 0x1895 DUP2 PUSH2 0x13CD JUMP JUMPDEST PUSH2 0x189F DUP2 DUP7 PUSH2 0x13FD JUMP JUMPDEST SWAP5 POP PUSH1 0x1 DUP3 AND PUSH0 DUP2 EQ PUSH2 0x18B9 JUMPI PUSH1 0x1 DUP2 EQ PUSH2 0x18CE JUMPI PUSH2 0x1900 JUMP JUMPDEST PUSH1 0xFF NOT DUP4 AND DUP7 MSTORE DUP2 ISZERO ISZERO DUP3 MUL DUP7 ADD SWAP4 POP PUSH2 0x1900 JUMP JUMPDEST PUSH2 0x18D7 DUP6 PUSH2 0x154D JUMP JUMPDEST PUSH0 JUMPDEST DUP4 DUP2 LT ISZERO PUSH2 0x18F8 JUMPI DUP2 SLOAD DUP2 DUP10 ADD MSTORE PUSH1 0x1 DUP3 ADD SWAP2 POP PUSH1 0x20 DUP2 ADD SWAP1 POP PUSH2 0x18D9 JUMP JUMPDEST DUP4 DUP9 ADD SWAP6 POP POP POP JUMPDEST POP POP POP SWAP3 SWAP2 POP POP JUMP JUMPDEST PUSH0 PUSH2 0x1914 DUP3 DUP8 PUSH2 0x1889 JUMP JUMPDEST SWAP2 POP PUSH2 0x1920 DUP3 DUP7 PUSH2 0x1440 JUMP JUMPDEST PUSH1 0x20 DUP3 ADD SWAP2 POP PUSH2 0x1930 DUP3 DUP6 PUSH2 0x1440 JUMP JUMPDEST PUSH1 0x20 DUP3 ADD SWAP2 POP PUSH2 0x1940 DUP3 DUP5 PUSH2 0x1485 JUMP JUMPDEST PUSH1 0x14 DUP3 ADD SWAP2 POP DUP2 SWAP1 POP SWAP6 SWAP5 POP POP POP POP POP JUMP JUMPDEST PUSH32 0x5574656E7465206E6F6E204175746F72697A7A61746F21000000000000000000 PUSH0 DUP3 ADD MSTORE POP JUMP JUMPDEST PUSH0 PUSH2 0x1986 PUSH1 0x17 DUP4 PUSH2 0x120E JUMP JUMPDEST SWAP2 POP PUSH2 0x1991 DUP3 PUSH2 0x1952 JUMP JUMPDEST PUSH1 0x20 DUP3 ADD SWAP1 POP SWAP2 SWAP1 POP JUMP JUMPDEST PUSH0 PUSH1 0x20 DUP3 ADD SWAP1 POP DUP2 DUP2 SUB PUSH0 DUP4 ADD MSTORE PUSH2 0x19B3 DUP2 PUSH2 0x197A JUMP JUMPDEST SWAP1 POP SWAP2 SWAP1 POP JUMP INVALID LOG2 PUSH5 0x6970667358 0x22 SLT KECCAK256 0xEB 0xE3 PUSH24 0xB53104AD1157ABA514CBAB6B65995E344A92133DF889B2B5 STATICCALL SWAP12 MSIZE 0x1E CALLDATASIZE PUSH5 0x736F6C6343 STOP ADDMOD AND STOP CALLER "
				},
				"gasEstimates": {
					"creation": {
						"codeDepositCost": "1328000",
						"executionCost": "25646",
						"totalCost": "1353646"
					},
					"external": {
						"addMilkBatch(address,string,uint256,uint256)": "infinite",
						"checkProduct(address,uint256,uint256)": "infinite",
						"deleteMilkBatch(address,uint256)": "infinite",
						"getExpirationDate(address,uint256)": "infinite",
						"getMilkBatch(address,uint256)": "infinite",
						"getPrice(address,uint256)": "infinite",
						"getQuantity(address,uint256)": "infinite",
						"isMilkBatchPresent(address,uint256)": "3150",
						"updateQuantity(address,uint256,uint256)": "infinite"
					}
				},
				"methodIdentifiers": {
					"addMilkBatch(address,string,uint256,uint256)": "8317679f",
					"checkProduct(address,uint256,uint256)": "87abc216",
					"deleteMilkBatch(address,uint256)": "ad9c10a1",
					"getExpirationDate(address,uint256)": "9f2b6898",
					"getMilkBatch(address,uint256)": "ce4fcf23",
					"getPrice(address,uint256)": "449e815d",
					"getQuantity(address,uint256)": "1e073fcf",
					"isMilkBatchPresent(address,uint256)": "02d805f6",
					"updateQuantity(address,uint256,uint256)": "f2492078"
				}
			},
			"storageLayout": {
				"storage": [
					{
						"astId": 3,
						"contract": "contracts/Actor/MilkHub-smart-contract/inventory/MilkHubInventoryStorage.sol:MilkHubInventoryStorage",
						"label": "MilkHubOrg",
						"offset": 0,
						"slot": "0",
						"type": "t_address"
					},
					{
						"astId": 28,
						"contract": "contracts/Actor/MilkHub-smart-contract/inventory/MilkHubInventoryStorage.sol:MilkHubInventoryStorage",
						"label": "milkBatches",
						"offset": 0,
						"slot": "1",
						"type": "t_mapping(t_address,t_mapping(t_uint256,t_struct(MilkBatch)21_storage))"
					}
				],
				"types": {
					"t_address": {
						"encoding": "inplace",
						"label": "address",
						"numberOfBytes": "20"
					},
					"t_mapping(t_address,t_mapping(t_uint256,t_struct(MilkBatch)21_storage))": {
						"encoding": "mapping",
						"key": "t_address",
						"label": "mapping(address => mapping(uint256 => struct MilkHubInventoryStorage.MilkBatch))",
						"numberOfBytes": "32",
						"value": "t_mapping(t_uint256,t_struct(MilkBatch)21_storage)"
					},
					"t_mapping(t_uint256,t_struct(MilkBatch)21_storage)": {
						"encoding": "mapping",
						"key": "t_uint256",
						"label": "mapping(uint256 => struct MilkHubInventoryStorage.MilkBatch)",
						"numberOfBytes": "32",
						"value": "t_struct(MilkBatch)21_storage"
					},
					"t_string_storage": {
						"encoding": "bytes",
						"label": "string",
						"numberOfBytes": "32"
					},
					"t_struct(MilkBatch)21_storage": {
						"encoding": "inplace",
						"label": "struct MilkHubInventoryStorage.MilkBatch",
						"members": [
							{
								"astId": 14,
								"contract": "contracts/Actor/MilkHub-smart-contract/inventory/MilkHubInventoryStorage.sol:MilkHubInventoryStorage",
								"label": "id",
								"offset": 0,
								"slot": "0",
								"type": "t_uint256"
							},
							{
								"astId": 16,
								"contract": "contracts/Actor/MilkHub-smart-contract/inventory/MilkHubInventoryStorage.sol:MilkHubInventoryStorage",
								"label": "scadenza",
								"offset": 0,
								"slot": "1",
								"type": "t_string_storage"
							},
							{
								"astId": 18,
								"contract": "contracts/Actor/MilkHub-smart-contract/inventory/MilkHubInventoryStorage.sol:MilkHubInventoryStorage",
								"label": "quantity",
								"offset": 0,
								"slot": "2",
								"type": "t_uint256"
							},
							{
								"astId": 20,
								"contract": "contracts/Actor/MilkHub-smart-contract/inventory/MilkHubInventoryStorage.sol:MilkHubInventoryStorage",
								"label": "price",
								"offset": 0,
								"slot": "3",
								"type": "t_uint256"
							}
						],
						"numberOfBytes": "128"
					},
					"t_uint256": {
						"encoding": "inplace",
						"label": "uint256",
						"numberOfBytes": "32"
					}
				}
			},
			"userdoc": {
				"kind": "user",
				"methods": {
					"isMilkBatchPresent(address,uint256)": {
						"notice": "- Funzione isMilkBatchPresent() funzione per verificare che il MilkBatch è presente  - Verifica tramite _id e address del walletMilkHub se il Prodotto è presente  - ritorna TRUE se il confronto è vero  - ritorna FALSE se non è presente "
					}
				},
				"version": 1
			}
		}
	}
}