{
	"contracts/Actor/CheeseProducer-smart-contract/inventory/CheeseProducerMilkBatchService.sol": {
		"CheeseProducerMilkBatchService": {
			"abi": [
				{
					"inputs": [
						{
							"internalType": "address",
							"name": "_cheeseProducerMilkBatchStorage",
							"type": "address"
						}
					],
					"stateMutability": "nonpayable",
					"type": "constructor"
				},
				{
					"anonymous": false,
					"inputs": [
						{
							"indexed": true,
							"internalType": "address",
							"name": "userAddress",
							"type": "address"
						},
						{
							"indexed": false,
							"internalType": "string",
							"name": "message",
							"type": "string"
						},
						{
							"indexed": false,
							"internalType": "string",
							"name": "expirationDate",
							"type": "string"
						},
						{
							"indexed": false,
							"internalType": "uint256",
							"name": "quantity",
							"type": "uint256"
						}
					],
					"name": "CheeseProducerMilkBatchAdded",
					"type": "event"
				},
				{
					"anonymous": false,
					"inputs": [
						{
							"indexed": true,
							"internalType": "address",
							"name": "userAddress",
							"type": "address"
						}
					],
					"name": "CheeseProducerMilkBatchDeleted",
					"type": "event"
				},
				{
					"anonymous": false,
					"inputs": [
						{
							"indexed": true,
							"internalType": "address",
							"name": "userAddress",
							"type": "address"
						},
						{
							"indexed": false,
							"internalType": "uint256",
							"name": "quantity",
							"type": "uint256"
						}
					],
					"name": "CheeseProducerMilkBatchEdited",
					"type": "event"
				},
				{
					"inputs": [
						{
							"internalType": "address",
							"name": "_walletMilkHub",
							"type": "address"
						},
						{
							"internalType": "string",
							"name": "_expirationDate",
							"type": "string"
						},
						{
							"internalType": "uint256",
							"name": "_quantity",
							"type": "uint256"
						}
					],
					"name": "addMilkBatch",
					"outputs": [],
					"stateMutability": "nonpayable",
					"type": "function"
				},
				{
					"inputs": [
						{
							"internalType": "address",
							"name": "_cheeseProducerMilkBatchStorage",
							"type": "address"
						}
					],
					"name": "changeCheeseProducerMilkBatchStorage",
					"outputs": [],
					"stateMutability": "nonpayable",
					"type": "function"
				},
				{
					"inputs": [
						{
							"internalType": "uint256",
							"name": "_id",
							"type": "uint256"
						},
						{
							"internalType": "uint256",
							"name": "_quantity",
							"type": "uint256"
						}
					],
					"name": "decreaseMilkBatchQuantity",
					"outputs": [],
					"stateMutability": "nonpayable",
					"type": "function"
				},
				{
					"inputs": [
						{
							"internalType": "uint256",
							"name": "_id",
							"type": "uint256"
						}
					],
					"name": "getMilkBatch",
					"outputs": [
						{
							"internalType": "uint256",
							"name": "",
							"type": "uint256"
						},
						{
							"internalType": "address",
							"name": "",
							"type": "address"
						},
						{
							"internalType": "string",
							"name": "",
							"type": "string"
						},
						{
							"internalType": "uint256",
							"name": "",
							"type": "uint256"
						}
					],
					"stateMutability": "view",
					"type": "function"
				}
			],
			"devdoc": {
				"kind": "dev",
				"methods": {},
				"version": 1
			},
			"evm": {
				"assembly": "    /* \"contracts/Actor/CheeseProducer-smart-contract/inventory/CheeseProducerMilkBatchService.sol\":113:2692  contract CheeseProducerMilkBatchService {... */\n  mstore(0x40, 0x80)\n    /* \"contracts/Actor/CheeseProducer-smart-contract/inventory/CheeseProducerMilkBatchService.sol\":759:968  constructor(address _cheeseProducerMilkBatchStorage) {... */\n  callvalue\n  dup1\n  iszero\n  tag_1\n  jumpi\n  0x00\n  dup1\n  revert\ntag_1:\n  pop\n  mload(0x40)\n  sub(codesize, bytecodeSize)\n  dup1\n  bytecodeSize\n  dup4\n  codecopy\n  dup2\n  dup2\n  add\n  0x40\n  mstore\n  dup2\n  add\n  swap1\n  tag_2\n  swap2\n  swap1\n  tag_3\n  jump\t// in\ntag_2:\n    /* \"contracts/Actor/CheeseProducer-smart-contract/inventory/CheeseProducerMilkBatchService.sol\":887:918  _cheeseProducerMilkBatchStorage */\n  dup1\n    /* \"contracts/Actor/CheeseProducer-smart-contract/inventory/CheeseProducerMilkBatchService.sol\":823:853  cheeseProducerMilkBatchStorage */\n  0x00\n  dup1\n    /* \"contracts/Actor/CheeseProducer-smart-contract/inventory/CheeseProducerMilkBatchService.sol\":823:919  cheeseProducerMilkBatchStorage = CheeseProducerMilkBatchStorage(_cheeseProducerMilkBatchStorage) */\n  0x0100\n  exp\n  dup2\n  sload\n  dup2\n  0xffffffffffffffffffffffffffffffffffffffff\n  mul\n  not\n  and\n  swap1\n  dup4\n  0xffffffffffffffffffffffffffffffffffffffff\n  and\n  mul\n  or\n  swap1\n  sstore\n  pop\n    /* \"contracts/Actor/CheeseProducer-smart-contract/inventory/CheeseProducerMilkBatchService.sol\":950:960  msg.sender */\n  caller\n    /* \"contracts/Actor/CheeseProducer-smart-contract/inventory/CheeseProducerMilkBatchService.sol\":930:947  cheeseProducerOrg */\n  0x01\n  0x00\n    /* \"contracts/Actor/CheeseProducer-smart-contract/inventory/CheeseProducerMilkBatchService.sol\":930:960  cheeseProducerOrg = msg.sender */\n  0x0100\n  exp\n  dup2\n  sload\n  dup2\n  0xffffffffffffffffffffffffffffffffffffffff\n  mul\n  not\n  and\n  swap1\n  dup4\n  0xffffffffffffffffffffffffffffffffffffffff\n  and\n  mul\n  or\n  swap1\n  sstore\n  pop\n    /* \"contracts/Actor/CheeseProducer-smart-contract/inventory/CheeseProducerMilkBatchService.sol\":759:968  constructor(address _cheeseProducerMilkBatchStorage) {... */\n  pop\n    /* \"contracts/Actor/CheeseProducer-smart-contract/inventory/CheeseProducerMilkBatchService.sol\":113:2692  contract CheeseProducerMilkBatchService {... */\n  jump(tag_6)\n    /* \"#utility.yul\":88:205   */\ntag_8:\n    /* \"#utility.yul\":197:198   */\n  0x00\n    /* \"#utility.yul\":194:195   */\n  dup1\n    /* \"#utility.yul\":187:199   */\n  revert\n    /* \"#utility.yul\":334:460   */\ntag_10:\n    /* \"#utility.yul\":371:378   */\n  0x00\n    /* \"#utility.yul\":411:453   */\n  0xffffffffffffffffffffffffffffffffffffffff\n    /* \"#utility.yul\":404:409   */\n  dup3\n    /* \"#utility.yul\":400:454   */\n  and\n    /* \"#utility.yul\":389:454   */\n  swap1\n  pop\n    /* \"#utility.yul\":334:460   */\n  swap2\n  swap1\n  pop\n  jump\t// out\n    /* \"#utility.yul\":466:562   */\ntag_11:\n    /* \"#utility.yul\":503:510   */\n  0x00\n    /* \"#utility.yul\":532:556   */\n  tag_20\n    /* \"#utility.yul\":550:555   */\n  dup3\n    /* \"#utility.yul\":532:556   */\n  tag_10\n  jump\t// in\ntag_20:\n    /* \"#utility.yul\":521:556   */\n  swap1\n  pop\n    /* \"#utility.yul\":466:562   */\n  swap2\n  swap1\n  pop\n  jump\t// out\n    /* \"#utility.yul\":568:690   */\ntag_12:\n    /* \"#utility.yul\":641:665   */\n  tag_22\n    /* \"#utility.yul\":659:664   */\n  dup2\n    /* \"#utility.yul\":641:665   */\n  tag_11\n  jump\t// in\ntag_22:\n    /* \"#utility.yul\":634:639   */\n  dup2\n    /* \"#utility.yul\":631:666   */\n  eq\n    /* \"#utility.yul\":621:684   */\n  tag_23\n  jumpi\n    /* \"#utility.yul\":680:681   */\n  0x00\n    /* \"#utility.yul\":677:678   */\n  dup1\n    /* \"#utility.yul\":670:682   */\n  revert\n    /* \"#utility.yul\":621:684   */\ntag_23:\n    /* \"#utility.yul\":568:690   */\n  pop\n  jump\t// out\n    /* \"#utility.yul\":696:839   */\ntag_13:\n    /* \"#utility.yul\":753:758   */\n  0x00\n    /* \"#utility.yul\":784:790   */\n  dup2\n    /* \"#utility.yul\":778:791   */\n  mload\n    /* \"#utility.yul\":769:791   */\n  swap1\n  pop\n    /* \"#utility.yul\":800:833   */\n  tag_25\n    /* \"#utility.yul\":827:832   */\n  dup2\n    /* \"#utility.yul\":800:833   */\n  tag_12\n  jump\t// in\ntag_25:\n    /* \"#utility.yul\":696:839   */\n  swap3\n  swap2\n  pop\n  pop\n  jump\t// out\n    /* \"#utility.yul\":845:1196   */\ntag_3:\n    /* \"#utility.yul\":915:921   */\n  0x00\n    /* \"#utility.yul\":964:966   */\n  0x20\n    /* \"#utility.yul\":952:961   */\n  dup3\n    /* \"#utility.yul\":943:950   */\n  dup5\n    /* \"#utility.yul\":939:962   */\n  sub\n    /* \"#utility.yul\":935:967   */\n  slt\n    /* \"#utility.yul\":932:1051   */\n  iszero\n  tag_27\n  jumpi\n    /* \"#utility.yul\":970:1049   */\n  tag_28\n  tag_8\n  jump\t// in\ntag_28:\n    /* \"#utility.yul\":932:1051   */\ntag_27:\n    /* \"#utility.yul\":1090:1091   */\n  0x00\n    /* \"#utility.yul\":1115:1179   */\n  tag_29\n    /* \"#utility.yul\":1171:1178   */\n  dup5\n    /* \"#utility.yul\":1162:1168   */\n  dup3\n    /* \"#utility.yul\":1151:1160   */\n  dup6\n    /* \"#utility.yul\":1147:1169   */\n  add\n    /* \"#utility.yul\":1115:1179   */\n  tag_13\n  jump\t// in\ntag_29:\n    /* \"#utility.yul\":1105:1179   */\n  swap2\n  pop\n    /* \"#utility.yul\":1061:1189   */\n  pop\n    /* \"#utility.yul\":845:1196   */\n  swap3\n  swap2\n  pop\n  pop\n  jump\t// out\n    /* \"contracts/Actor/CheeseProducer-smart-contract/inventory/CheeseProducerMilkBatchService.sol\":113:2692  contract CheeseProducerMilkBatchService {... */\ntag_6:\n  dataSize(sub_0)\n  dup1\n  dataOffset(sub_0)\n  0x00\n  codecopy\n  0x00\n  return\nstop\n\nsub_0: assembly {\n        /* \"contracts/Actor/CheeseProducer-smart-contract/inventory/CheeseProducerMilkBatchService.sol\":113:2692  contract CheeseProducerMilkBatchService {... */\n      mstore(0x40, 0x80)\n      callvalue\n      dup1\n      iszero\n      tag_1\n      jumpi\n      0x00\n      dup1\n      revert\n    tag_1:\n      pop\n      jumpi(tag_2, lt(calldatasize, 0x04))\n      shr(0xe0, calldataload(0x00))\n      dup1\n      0x332d30f9\n      eq\n      tag_3\n      jumpi\n      dup1\n      0x7dfdd671\n      eq\n      tag_4\n      jumpi\n      dup1\n      0xbe60b0b8\n      eq\n      tag_5\n      jumpi\n      dup1\n      0xe6555c2b\n      eq\n      tag_6\n      jumpi\n    tag_2:\n      0x00\n      dup1\n      revert\n        /* \"contracts/Actor/CheeseProducer-smart-contract/inventory/CheeseProducerMilkBatchService.sol\":2193:2689  function decreaseMilkBatchQuantity(uint256 _id, uint256 _quantity) external {... */\n    tag_3:\n      tag_7\n      0x04\n      dup1\n      calldatasize\n      sub\n      dup2\n      add\n      swap1\n      tag_8\n      swap2\n      swap1\n      tag_9\n      jump\t// in\n    tag_8:\n      tag_10\n      jump\t// in\n    tag_7:\n      stop\n        /* \"contracts/Actor/CheeseProducer-smart-contract/inventory/CheeseProducerMilkBatchService.sol\":1279:1839  function addMilkBatch(address _walletMilkHub, string memory _expirationDate, uint256 _quantity) external {... */\n    tag_4:\n      tag_11\n      0x04\n      dup1\n      calldatasize\n      sub\n      dup2\n      add\n      swap1\n      tag_12\n      swap2\n      swap1\n      tag_13\n      jump\t// in\n    tag_12:\n      tag_14\n      jump\t// in\n    tag_11:\n      stop\n        /* \"contracts/Actor/CheeseProducer-smart-contract/inventory/CheeseProducerMilkBatchService.sol\":1849:2185  function getMilkBatch(uint256 _id) external view returns (uint256, address, string memory, uint256) {... */\n    tag_5:\n      tag_15\n      0x04\n      dup1\n      calldatasize\n      sub\n      dup2\n      add\n      swap1\n      tag_16\n      swap2\n      swap1\n      tag_17\n      jump\t// in\n    tag_16:\n      tag_18\n      jump\t// in\n    tag_15:\n      mload(0x40)\n      tag_19\n      swap5\n      swap4\n      swap3\n      swap2\n      swap1\n      tag_20\n      jump\t// in\n    tag_19:\n      mload(0x40)\n      dup1\n      swap2\n      sub\n      swap1\n      return\n        /* \"contracts/Actor/CheeseProducer-smart-contract/inventory/CheeseProducerMilkBatchService.sol\":976:1271  function changeCheeseProducerMilkBatchStorage(address _cheeseProducerMilkBatchStorage)external {... */\n    tag_6:\n      tag_21\n      0x04\n      dup1\n      calldatasize\n      sub\n      dup2\n      add\n      swap1\n      tag_22\n      swap2\n      swap1\n      tag_23\n      jump\t// in\n    tag_22:\n      tag_24\n      jump\t// in\n    tag_21:\n      stop\n        /* \"contracts/Actor/CheeseProducer-smart-contract/inventory/CheeseProducerMilkBatchService.sol\":2193:2689  function decreaseMilkBatchQuantity(uint256 _id, uint256 _quantity) external {... */\n    tag_10:\n        /* \"contracts/Actor/CheeseProducer-smart-contract/inventory/CheeseProducerMilkBatchService.sol\":2280:2308  address walletCheeseProducer */\n      0x00\n        /* \"contracts/Actor/CheeseProducer-smart-contract/inventory/CheeseProducerMilkBatchService.sol\":2311:2321  msg.sender */\n      caller\n        /* \"contracts/Actor/CheeseProducer-smart-contract/inventory/CheeseProducerMilkBatchService.sol\":2280:2321  address walletCheeseProducer = msg.sender */\n      swap1\n      pop\n        /* \"contracts/Actor/CheeseProducer-smart-contract/inventory/CheeseProducerMilkBatchService.sol\":2366:2383  cheeseProducerOrg */\n      0x01\n      0x00\n      swap1\n      sload\n      swap1\n      0x0100\n      exp\n      swap1\n      div\n      0xffffffffffffffffffffffffffffffffffffffff\n      and\n        /* \"contracts/Actor/CheeseProducer-smart-contract/inventory/CheeseProducerMilkBatchService.sol\":2342:2383  walletCheeseProducer == cheeseProducerOrg */\n      0xffffffffffffffffffffffffffffffffffffffff\n      and\n        /* \"contracts/Actor/CheeseProducer-smart-contract/inventory/CheeseProducerMilkBatchService.sol\":2342:2362  walletCheeseProducer */\n      dup2\n        /* \"contracts/Actor/CheeseProducer-smart-contract/inventory/CheeseProducerMilkBatchService.sol\":2342:2383  walletCheeseProducer == cheeseProducerOrg */\n      0xffffffffffffffffffffffffffffffffffffffff\n      and\n      eq\n        /* \"contracts/Actor/CheeseProducer-smart-contract/inventory/CheeseProducerMilkBatchService.sol\":2334:2407  require(walletCheeseProducer == cheeseProducerOrg, \"Address non Valido!\") */\n      tag_26\n      jumpi\n      mload(0x40)\n      0x08c379a000000000000000000000000000000000000000000000000000000000\n      dup2\n      mstore\n      0x04\n      add\n      tag_27\n      swap1\n      tag_28\n      jump\t// in\n    tag_27:\n      mload(0x40)\n      dup1\n      swap2\n      sub\n      swap1\n      revert\n    tag_26:\n        /* \"contracts/Actor/CheeseProducer-smart-contract/inventory/CheeseProducerMilkBatchService.sol\":2428:2458  cheeseProducerMilkBatchStorage */\n      0x00\n      dup1\n      sload\n      swap1\n      0x0100\n      exp\n      swap1\n      div\n      0xffffffffffffffffffffffffffffffffffffffff\n      and\n        /* \"contracts/Actor/CheeseProducer-smart-contract/inventory/CheeseProducerMilkBatchService.sol\":2428:2483  cheeseProducerMilkBatchStorage.detractMilkBatchQuantity */\n      0xffffffffffffffffffffffffffffffffffffffff\n      and\n      0x31f4cbbd\n        /* \"contracts/Actor/CheeseProducer-smart-contract/inventory/CheeseProducerMilkBatchService.sol\":2484:2504  walletCheeseProducer */\n      dup3\n        /* \"contracts/Actor/CheeseProducer-smart-contract/inventory/CheeseProducerMilkBatchService.sol\":2506:2509  _id */\n      dup6\n        /* \"contracts/Actor/CheeseProducer-smart-contract/inventory/CheeseProducerMilkBatchService.sol\":2511:2520  _quantity */\n      dup6\n        /* \"contracts/Actor/CheeseProducer-smart-contract/inventory/CheeseProducerMilkBatchService.sol\":2428:2521  cheeseProducerMilkBatchStorage.detractMilkBatchQuantity(walletCheeseProducer, _id, _quantity) */\n      mload(0x40)\n      dup5\n      0xffffffff\n      and\n      0xe0\n      shl\n      dup2\n      mstore\n      0x04\n      add\n      tag_29\n      swap4\n      swap3\n      swap2\n      swap1\n      tag_30\n      jump\t// in\n    tag_29:\n      0x20\n      mload(0x40)\n      dup1\n      dup4\n      sub\n      dup2\n      0x00\n      dup8\n      gas\n      call\n      iszero\n      dup1\n      iszero\n      tag_32\n      jumpi\n      returndatasize\n      0x00\n      dup1\n      returndatacopy\n      revert(0x00, returndatasize)\n    tag_32:\n      pop\n      pop\n      pop\n      pop\n      mload(0x40)\n      returndatasize\n      not(0x1f)\n      0x1f\n      dup3\n      add\n      and\n      dup3\n      add\n      dup1\n      0x40\n      mstore\n      pop\n      dup2\n      add\n      swap1\n      tag_33\n      swap2\n      swap1\n      tag_34\n      jump\t// in\n    tag_33:\n        /* \"contracts/Actor/CheeseProducer-smart-contract/inventory/CheeseProducerMilkBatchService.sol\":2420:2601  require(cheeseProducerMilkBatchStorage.detractMilkBatchQuantity(walletCheeseProducer, _id, _quantity), \"Errore durante la modifica della quantita' di latte nella Partita del Latte\") */\n      tag_35\n      jumpi\n      mload(0x40)\n      0x08c379a000000000000000000000000000000000000000000000000000000000\n      dup2\n      mstore\n      0x04\n      add\n      tag_36\n      swap1\n      tag_37\n      jump\t// in\n    tag_36:\n      mload(0x40)\n      dup1\n      swap2\n      sub\n      swap1\n      revert\n    tag_35:\n        /* \"contracts/Actor/CheeseProducer-smart-contract/inventory/CheeseProducerMilkBatchService.sol\":2649:2669  walletCheeseProducer */\n      dup1\n        /* \"contracts/Actor/CheeseProducer-smart-contract/inventory/CheeseProducerMilkBatchService.sol\":2619:2681  CheeseProducerMilkBatchEdited(walletCheeseProducer, _quantity) */\n      0xffffffffffffffffffffffffffffffffffffffff\n      and\n      0x0ece5c3a12f10f15cec8bd7aabeba120bfebd29a791c547268c53dcf0606957c\n        /* \"contracts/Actor/CheeseProducer-smart-contract/inventory/CheeseProducerMilkBatchService.sol\":2671:2680  _quantity */\n      dup4\n        /* \"contracts/Actor/CheeseProducer-smart-contract/inventory/CheeseProducerMilkBatchService.sol\":2619:2681  CheeseProducerMilkBatchEdited(walletCheeseProducer, _quantity) */\n      mload(0x40)\n      tag_38\n      swap2\n      swap1\n      tag_39\n      jump\t// in\n    tag_38:\n      mload(0x40)\n      dup1\n      swap2\n      sub\n      swap1\n      log2\n        /* \"contracts/Actor/CheeseProducer-smart-contract/inventory/CheeseProducerMilkBatchService.sol\":2269:2689  {... */\n      pop\n        /* \"contracts/Actor/CheeseProducer-smart-contract/inventory/CheeseProducerMilkBatchService.sol\":2193:2689  function decreaseMilkBatchQuantity(uint256 _id, uint256 _quantity) external {... */\n      pop\n      pop\n      jump\t// out\n        /* \"contracts/Actor/CheeseProducer-smart-contract/inventory/CheeseProducerMilkBatchService.sol\":1279:1839  function addMilkBatch(address _walletMilkHub, string memory _expirationDate, uint256 _quantity) external {... */\n    tag_14:\n        /* \"contracts/Actor/CheeseProducer-smart-contract/inventory/CheeseProducerMilkBatchService.sol\":1395:1423  address walletCheeseProducer */\n      0x00\n        /* \"contracts/Actor/CheeseProducer-smart-contract/inventory/CheeseProducerMilkBatchService.sol\":1426:1436  msg.sender */\n      caller\n        /* \"contracts/Actor/CheeseProducer-smart-contract/inventory/CheeseProducerMilkBatchService.sol\":1395:1436  address walletCheeseProducer = msg.sender */\n      swap1\n      pop\n        /* \"contracts/Actor/CheeseProducer-smart-contract/inventory/CheeseProducerMilkBatchService.sol\":1549:1566  cheeseProducerOrg */\n      0x01\n      0x00\n      swap1\n      sload\n      swap1\n      0x0100\n      exp\n      swap1\n      div\n      0xffffffffffffffffffffffffffffffffffffffff\n      and\n        /* \"contracts/Actor/CheeseProducer-smart-contract/inventory/CheeseProducerMilkBatchService.sol\":1525:1566  walletCheeseProducer != cheeseProducerOrg */\n      0xffffffffffffffffffffffffffffffffffffffff\n      and\n        /* \"contracts/Actor/CheeseProducer-smart-contract/inventory/CheeseProducerMilkBatchService.sol\":1525:1545  walletCheeseProducer */\n      dup2\n        /* \"contracts/Actor/CheeseProducer-smart-contract/inventory/CheeseProducerMilkBatchService.sol\":1525:1566  walletCheeseProducer != cheeseProducerOrg */\n      0xffffffffffffffffffffffffffffffffffffffff\n      and\n      sub\n        /* \"contracts/Actor/CheeseProducer-smart-contract/inventory/CheeseProducerMilkBatchService.sol\":1517:1589  require(walletCheeseProducer != cheeseProducerOrg,\"Address non Valido!\") */\n      tag_41\n      jumpi\n      mload(0x40)\n      0x08c379a000000000000000000000000000000000000000000000000000000000\n      dup2\n      mstore\n      0x04\n      add\n      tag_42\n      swap1\n      tag_28\n      jump\t// in\n    tag_42:\n      mload(0x40)\n      dup1\n      swap2\n      sub\n      swap1\n      revert\n    tag_41:\n        /* \"contracts/Actor/CheeseProducer-smart-contract/inventory/CheeseProducerMilkBatchService.sol\":1602:1632  cheeseProducerMilkBatchStorage */\n      0x00\n      dup1\n      sload\n      swap1\n      0x0100\n      exp\n      swap1\n      div\n      0xffffffffffffffffffffffffffffffffffffffff\n      and\n        /* \"contracts/Actor/CheeseProducer-smart-contract/inventory/CheeseProducerMilkBatchService.sol\":1602:1645  cheeseProducerMilkBatchStorage.addMilkBatch */\n      0xffffffffffffffffffffffffffffffffffffffff\n      and\n      0x99c6526e\n        /* \"contracts/Actor/CheeseProducer-smart-contract/inventory/CheeseProducerMilkBatchService.sol\":1646:1666  walletCheeseProducer */\n      dup3\n        /* \"contracts/Actor/CheeseProducer-smart-contract/inventory/CheeseProducerMilkBatchService.sol\":1668:1682  _walletMilkHub */\n      dup7\n        /* \"contracts/Actor/CheeseProducer-smart-contract/inventory/CheeseProducerMilkBatchService.sol\":1684:1699  _expirationDate */\n      dup7\n        /* \"contracts/Actor/CheeseProducer-smart-contract/inventory/CheeseProducerMilkBatchService.sol\":1701:1710  _quantity */\n      dup7\n        /* \"contracts/Actor/CheeseProducer-smart-contract/inventory/CheeseProducerMilkBatchService.sol\":1602:1711  cheeseProducerMilkBatchStorage.addMilkBatch(walletCheeseProducer, _walletMilkHub, _expirationDate, _quantity) */\n      mload(0x40)\n      dup6\n      0xffffffff\n      and\n      0xe0\n      shl\n      dup2\n      mstore\n      0x04\n      add\n      tag_43\n      swap5\n      swap4\n      swap3\n      swap2\n      swap1\n      tag_44\n      jump\t// in\n    tag_43:\n      0x00\n      mload(0x40)\n      dup1\n      dup4\n      sub\n      dup2\n      0x00\n      dup8\n      dup1\n      extcodesize\n      iszero\n      dup1\n      iszero\n      tag_45\n      jumpi\n      0x00\n      dup1\n      revert\n    tag_45:\n      pop\n      gas\n      call\n      iszero\n      dup1\n      iszero\n      tag_47\n      jumpi\n      returndatasize\n      0x00\n      dup1\n      returndatacopy\n      revert(0x00, returndatasize)\n    tag_47:\n      pop\n      pop\n      pop\n      pop\n        /* \"contracts/Actor/CheeseProducer-smart-contract/inventory/CheeseProducerMilkBatchService.sol\":1758:1778  walletCheeseProducer */\n      dup1\n        /* \"contracts/Actor/CheeseProducer-smart-contract/inventory/CheeseProducerMilkBatchService.sol\":1729:1831  CheeseProducerMilkBatchAdded(walletCheeseProducer,\"MilkBatch Acquistato!\", _expirationDate, _quantity) */\n      0xffffffffffffffffffffffffffffffffffffffff\n      and\n      0xb2ae84acced38cd0a366d81cd1b7b74e4829280bdf85345f1749e9151b842410\n        /* \"contracts/Actor/CheeseProducer-smart-contract/inventory/CheeseProducerMilkBatchService.sol\":1804:1819  _expirationDate */\n      dup5\n        /* \"contracts/Actor/CheeseProducer-smart-contract/inventory/CheeseProducerMilkBatchService.sol\":1821:1830  _quantity */\n      dup5\n        /* \"contracts/Actor/CheeseProducer-smart-contract/inventory/CheeseProducerMilkBatchService.sol\":1729:1831  CheeseProducerMilkBatchAdded(walletCheeseProducer,\"MilkBatch Acquistato!\", _expirationDate, _quantity) */\n      mload(0x40)\n      tag_48\n      swap3\n      swap2\n      swap1\n      tag_49\n      jump\t// in\n    tag_48:\n      mload(0x40)\n      dup1\n      swap2\n      sub\n      swap1\n      log2\n        /* \"contracts/Actor/CheeseProducer-smart-contract/inventory/CheeseProducerMilkBatchService.sol\":1384:1839  {... */\n      pop\n        /* \"contracts/Actor/CheeseProducer-smart-contract/inventory/CheeseProducerMilkBatchService.sol\":1279:1839  function addMilkBatch(address _walletMilkHub, string memory _expirationDate, uint256 _quantity) external {... */\n      pop\n      pop\n      pop\n      jump\t// out\n        /* \"contracts/Actor/CheeseProducer-smart-contract/inventory/CheeseProducerMilkBatchService.sol\":1849:2185  function getMilkBatch(uint256 _id) external view returns (uint256, address, string memory, uint256) {... */\n    tag_18:\n        /* \"contracts/Actor/CheeseProducer-smart-contract/inventory/CheeseProducerMilkBatchService.sol\":1907:1914  uint256 */\n      0x00\n        /* \"contracts/Actor/CheeseProducer-smart-contract/inventory/CheeseProducerMilkBatchService.sol\":1916:1923  address */\n      dup1\n        /* \"contracts/Actor/CheeseProducer-smart-contract/inventory/CheeseProducerMilkBatchService.sol\":1925:1938  string memory */\n      0x60\n        /* \"contracts/Actor/CheeseProducer-smart-contract/inventory/CheeseProducerMilkBatchService.sol\":1940:1947  uint256 */\n      0x00\n        /* \"contracts/Actor/CheeseProducer-smart-contract/inventory/CheeseProducerMilkBatchService.sol\":1960:1988  address walletCheeseProducer */\n      dup1\n        /* \"contracts/Actor/CheeseProducer-smart-contract/inventory/CheeseProducerMilkBatchService.sol\":1991:2001  msg.sender */\n      caller\n        /* \"contracts/Actor/CheeseProducer-smart-contract/inventory/CheeseProducerMilkBatchService.sol\":1960:2001  address walletCheeseProducer = msg.sender */\n      swap1\n      pop\n        /* \"contracts/Actor/CheeseProducer-smart-contract/inventory/CheeseProducerMilkBatchService.sol\":2046:2063  cheeseProducerOrg */\n      0x01\n      0x00\n      swap1\n      sload\n      swap1\n      0x0100\n      exp\n      swap1\n      div\n      0xffffffffffffffffffffffffffffffffffffffff\n      and\n        /* \"contracts/Actor/CheeseProducer-smart-contract/inventory/CheeseProducerMilkBatchService.sol\":2022:2063  walletCheeseProducer == cheeseProducerOrg */\n      0xffffffffffffffffffffffffffffffffffffffff\n      and\n        /* \"contracts/Actor/CheeseProducer-smart-contract/inventory/CheeseProducerMilkBatchService.sol\":2022:2042  walletCheeseProducer */\n      dup2\n        /* \"contracts/Actor/CheeseProducer-smart-contract/inventory/CheeseProducerMilkBatchService.sol\":2022:2063  walletCheeseProducer == cheeseProducerOrg */\n      0xffffffffffffffffffffffffffffffffffffffff\n      and\n      eq\n        /* \"contracts/Actor/CheeseProducer-smart-contract/inventory/CheeseProducerMilkBatchService.sol\":2014:2087  require(walletCheeseProducer == cheeseProducerOrg, \"Address non Valido!\") */\n      tag_51\n      jumpi\n      mload(0x40)\n      0x08c379a000000000000000000000000000000000000000000000000000000000\n      dup2\n      mstore\n      0x04\n      add\n      tag_52\n      swap1\n      tag_28\n      jump\t// in\n    tag_52:\n      mload(0x40)\n      dup1\n      swap2\n      sub\n      swap1\n      revert\n    tag_51:\n        /* \"contracts/Actor/CheeseProducer-smart-contract/inventory/CheeseProducerMilkBatchService.sol\":2107:2137  cheeseProducerMilkBatchStorage */\n      0x00\n      dup1\n      sload\n      swap1\n      0x0100\n      exp\n      swap1\n      div\n      0xffffffffffffffffffffffffffffffffffffffff\n      and\n        /* \"contracts/Actor/CheeseProducer-smart-contract/inventory/CheeseProducerMilkBatchService.sol\":2107:2150  cheeseProducerMilkBatchStorage.getMilkBatch */\n      0xffffffffffffffffffffffffffffffffffffffff\n      and\n      0xce4fcf23\n        /* \"contracts/Actor/CheeseProducer-smart-contract/inventory/CheeseProducerMilkBatchService.sol\":2151:2171  walletCheeseProducer */\n      dup3\n        /* \"contracts/Actor/CheeseProducer-smart-contract/inventory/CheeseProducerMilkBatchService.sol\":2173:2176  _id */\n      dup9\n        /* \"contracts/Actor/CheeseProducer-smart-contract/inventory/CheeseProducerMilkBatchService.sol\":2107:2177  cheeseProducerMilkBatchStorage.getMilkBatch(walletCheeseProducer, _id) */\n      mload(0x40)\n      dup4\n      0xffffffff\n      and\n      0xe0\n      shl\n      dup2\n      mstore\n      0x04\n      add\n      tag_53\n      swap3\n      swap2\n      swap1\n      tag_54\n      jump\t// in\n    tag_53:\n      0x00\n      mload(0x40)\n      dup1\n      dup4\n      sub\n      dup2\n      dup7\n      gas\n      staticcall\n      iszero\n      dup1\n      iszero\n      tag_56\n      jumpi\n      returndatasize\n      0x00\n      dup1\n      returndatacopy\n      revert(0x00, returndatasize)\n    tag_56:\n      pop\n      pop\n      pop\n      pop\n      mload(0x40)\n      returndatasize\n      0x00\n      dup3\n      returndatacopy\n      returndatasize\n      not(0x1f)\n      0x1f\n      dup3\n      add\n      and\n      dup3\n      add\n      dup1\n      0x40\n      mstore\n      pop\n      dup2\n      add\n      swap1\n      tag_57\n      swap2\n      swap1\n      tag_58\n      jump\t// in\n    tag_57:\n        /* \"contracts/Actor/CheeseProducer-smart-contract/inventory/CheeseProducerMilkBatchService.sol\":2100:2177  return cheeseProducerMilkBatchStorage.getMilkBatch(walletCheeseProducer, _id) */\n      swap5\n      pop\n      swap5\n      pop\n      swap5\n      pop\n      swap5\n      pop\n      pop\n        /* \"contracts/Actor/CheeseProducer-smart-contract/inventory/CheeseProducerMilkBatchService.sol\":1849:2185  function getMilkBatch(uint256 _id) external view returns (uint256, address, string memory, uint256) {... */\n      swap2\n      swap4\n      pop\n      swap2\n      swap4\n      jump\t// out\n        /* \"contracts/Actor/CheeseProducer-smart-contract/inventory/CheeseProducerMilkBatchService.sol\":976:1271  function changeCheeseProducerMilkBatchStorage(address _cheeseProducerMilkBatchStorage)external {... */\n    tag_24:\n        /* \"contracts/Actor/CheeseProducer-smart-contract/inventory/CheeseProducerMilkBatchService.sol\":1104:1121  cheeseProducerOrg */\n      0x01\n      0x00\n      swap1\n      sload\n      swap1\n      0x0100\n      exp\n      swap1\n      div\n      0xffffffffffffffffffffffffffffffffffffffff\n      and\n        /* \"contracts/Actor/CheeseProducer-smart-contract/inventory/CheeseProducerMilkBatchService.sol\":1090:1121  msg.sender == cheeseProducerOrg */\n      0xffffffffffffffffffffffffffffffffffffffff\n      and\n        /* \"contracts/Actor/CheeseProducer-smart-contract/inventory/CheeseProducerMilkBatchService.sol\":1090:1100  msg.sender */\n      caller\n        /* \"contracts/Actor/CheeseProducer-smart-contract/inventory/CheeseProducerMilkBatchService.sol\":1090:1121  msg.sender == cheeseProducerOrg */\n      0xffffffffffffffffffffffffffffffffffffffff\n      and\n      eq\n        /* \"contracts/Actor/CheeseProducer-smart-contract/inventory/CheeseProducerMilkBatchService.sol\":1082:1156  require(msg.sender == cheeseProducerOrg,\"Address is not the organization\") */\n      tag_60\n      jumpi\n      mload(0x40)\n      0x08c379a000000000000000000000000000000000000000000000000000000000\n      dup2\n      mstore\n      0x04\n      add\n      tag_61\n      swap1\n      tag_62\n      jump\t// in\n    tag_61:\n      mload(0x40)\n      dup1\n      swap2\n      sub\n      swap1\n      revert\n    tag_60:\n        /* \"contracts/Actor/CheeseProducer-smart-contract/inventory/CheeseProducerMilkBatchService.sol\":1231:1262  _cheeseProducerMilkBatchStorage */\n      dup1\n        /* \"contracts/Actor/CheeseProducer-smart-contract/inventory/CheeseProducerMilkBatchService.sol\":1167:1197  cheeseProducerMilkBatchStorage */\n      0x00\n      dup1\n        /* \"contracts/Actor/CheeseProducer-smart-contract/inventory/CheeseProducerMilkBatchService.sol\":1167:1263  cheeseProducerMilkBatchStorage = CheeseProducerMilkBatchStorage(_cheeseProducerMilkBatchStorage) */\n      0x0100\n      exp\n      dup2\n      sload\n      dup2\n      0xffffffffffffffffffffffffffffffffffffffff\n      mul\n      not\n      and\n      swap1\n      dup4\n      0xffffffffffffffffffffffffffffffffffffffff\n      and\n      mul\n      or\n      swap1\n      sstore\n      pop\n        /* \"contracts/Actor/CheeseProducer-smart-contract/inventory/CheeseProducerMilkBatchService.sol\":976:1271  function changeCheeseProducerMilkBatchStorage(address _cheeseProducerMilkBatchStorage)external {... */\n      pop\n      jump\t// out\n        /* \"#utility.yul\":7:82   */\n    tag_63:\n        /* \"#utility.yul\":40:46   */\n      0x00\n        /* \"#utility.yul\":73:75   */\n      0x40\n        /* \"#utility.yul\":67:76   */\n      mload\n        /* \"#utility.yul\":57:76   */\n      swap1\n      pop\n        /* \"#utility.yul\":7:82   */\n      swap1\n      jump\t// out\n        /* \"#utility.yul\":88:205   */\n    tag_64:\n        /* \"#utility.yul\":197:198   */\n      0x00\n        /* \"#utility.yul\":194:195   */\n      dup1\n        /* \"#utility.yul\":187:199   */\n      revert\n        /* \"#utility.yul\":211:328   */\n    tag_65:\n        /* \"#utility.yul\":320:321   */\n      0x00\n        /* \"#utility.yul\":317:318   */\n      dup1\n        /* \"#utility.yul\":310:322   */\n      revert\n        /* \"#utility.yul\":334:411   */\n    tag_66:\n        /* \"#utility.yul\":371:378   */\n      0x00\n        /* \"#utility.yul\":400:405   */\n      dup2\n        /* \"#utility.yul\":389:405   */\n      swap1\n      pop\n        /* \"#utility.yul\":334:411   */\n      swap2\n      swap1\n      pop\n      jump\t// out\n        /* \"#utility.yul\":417:539   */\n    tag_67:\n        /* \"#utility.yul\":490:514   */\n      tag_110\n        /* \"#utility.yul\":508:513   */\n      dup2\n        /* \"#utility.yul\":490:514   */\n      tag_66\n      jump\t// in\n    tag_110:\n        /* \"#utility.yul\":483:488   */\n      dup2\n        /* \"#utility.yul\":480:515   */\n      eq\n        /* \"#utility.yul\":470:533   */\n      tag_111\n      jumpi\n        /* \"#utility.yul\":529:530   */\n      0x00\n        /* \"#utility.yul\":526:527   */\n      dup1\n        /* \"#utility.yul\":519:531   */\n      revert\n        /* \"#utility.yul\":470:533   */\n    tag_111:\n        /* \"#utility.yul\":417:539   */\n      pop\n      jump\t// out\n        /* \"#utility.yul\":545:684   */\n    tag_68:\n        /* \"#utility.yul\":591:596   */\n      0x00\n        /* \"#utility.yul\":629:635   */\n      dup2\n        /* \"#utility.yul\":616:636   */\n      calldataload\n        /* \"#utility.yul\":607:636   */\n      swap1\n      pop\n        /* \"#utility.yul\":645:678   */\n      tag_113\n        /* \"#utility.yul\":672:677   */\n      dup2\n        /* \"#utility.yul\":645:678   */\n      tag_67\n      jump\t// in\n    tag_113:\n        /* \"#utility.yul\":545:684   */\n      swap3\n      swap2\n      pop\n      pop\n      jump\t// out\n        /* \"#utility.yul\":690:1164   */\n    tag_9:\n        /* \"#utility.yul\":758:764   */\n      0x00\n        /* \"#utility.yul\":766:772   */\n      dup1\n        /* \"#utility.yul\":815:817   */\n      0x40\n        /* \"#utility.yul\":803:812   */\n      dup4\n        /* \"#utility.yul\":794:801   */\n      dup6\n        /* \"#utility.yul\":790:813   */\n      sub\n        /* \"#utility.yul\":786:818   */\n      slt\n        /* \"#utility.yul\":783:902   */\n      iszero\n      tag_115\n      jumpi\n        /* \"#utility.yul\":821:900   */\n      tag_116\n      tag_64\n      jump\t// in\n    tag_116:\n        /* \"#utility.yul\":783:902   */\n    tag_115:\n        /* \"#utility.yul\":941:942   */\n      0x00\n        /* \"#utility.yul\":966:1019   */\n      tag_117\n        /* \"#utility.yul\":1011:1018   */\n      dup6\n        /* \"#utility.yul\":1002:1008   */\n      dup3\n        /* \"#utility.yul\":991:1000   */\n      dup7\n        /* \"#utility.yul\":987:1009   */\n      add\n        /* \"#utility.yul\":966:1019   */\n      tag_68\n      jump\t// in\n    tag_117:\n        /* \"#utility.yul\":956:1019   */\n      swap3\n      pop\n        /* \"#utility.yul\":912:1029   */\n      pop\n        /* \"#utility.yul\":1068:1070   */\n      0x20\n        /* \"#utility.yul\":1094:1147   */\n      tag_118\n        /* \"#utility.yul\":1139:1146   */\n      dup6\n        /* \"#utility.yul\":1130:1136   */\n      dup3\n        /* \"#utility.yul\":1119:1128   */\n      dup7\n        /* \"#utility.yul\":1115:1137   */\n      add\n        /* \"#utility.yul\":1094:1147   */\n      tag_68\n      jump\t// in\n    tag_118:\n        /* \"#utility.yul\":1084:1147   */\n      swap2\n      pop\n        /* \"#utility.yul\":1039:1157   */\n      pop\n        /* \"#utility.yul\":690:1164   */\n      swap3\n      pop\n      swap3\n      swap1\n      pop\n      jump\t// out\n        /* \"#utility.yul\":1170:1296   */\n    tag_69:\n        /* \"#utility.yul\":1207:1214   */\n      0x00\n        /* \"#utility.yul\":1247:1289   */\n      0xffffffffffffffffffffffffffffffffffffffff\n        /* \"#utility.yul\":1240:1245   */\n      dup3\n        /* \"#utility.yul\":1236:1290   */\n      and\n        /* \"#utility.yul\":1225:1290   */\n      swap1\n      pop\n        /* \"#utility.yul\":1170:1296   */\n      swap2\n      swap1\n      pop\n      jump\t// out\n        /* \"#utility.yul\":1302:1398   */\n    tag_70:\n        /* \"#utility.yul\":1339:1346   */\n      0x00\n        /* \"#utility.yul\":1368:1392   */\n      tag_121\n        /* \"#utility.yul\":1386:1391   */\n      dup3\n        /* \"#utility.yul\":1368:1392   */\n      tag_69\n      jump\t// in\n    tag_121:\n        /* \"#utility.yul\":1357:1392   */\n      swap1\n      pop\n        /* \"#utility.yul\":1302:1398   */\n      swap2\n      swap1\n      pop\n      jump\t// out\n        /* \"#utility.yul\":1404:1526   */\n    tag_71:\n        /* \"#utility.yul\":1477:1501   */\n      tag_123\n        /* \"#utility.yul\":1495:1500   */\n      dup2\n        /* \"#utility.yul\":1477:1501   */\n      tag_70\n      jump\t// in\n    tag_123:\n        /* \"#utility.yul\":1470:1475   */\n      dup2\n        /* \"#utility.yul\":1467:1502   */\n      eq\n        /* \"#utility.yul\":1457:1520   */\n      tag_124\n      jumpi\n        /* \"#utility.yul\":1516:1517   */\n      0x00\n        /* \"#utility.yul\":1513:1514   */\n      dup1\n        /* \"#utility.yul\":1506:1518   */\n      revert\n        /* \"#utility.yul\":1457:1520   */\n    tag_124:\n        /* \"#utility.yul\":1404:1526   */\n      pop\n      jump\t// out\n        /* \"#utility.yul\":1532:1671   */\n    tag_72:\n        /* \"#utility.yul\":1578:1583   */\n      0x00\n        /* \"#utility.yul\":1616:1622   */\n      dup2\n        /* \"#utility.yul\":1603:1623   */\n      calldataload\n        /* \"#utility.yul\":1594:1623   */\n      swap1\n      pop\n        /* \"#utility.yul\":1632:1665   */\n      tag_126\n        /* \"#utility.yul\":1659:1664   */\n      dup2\n        /* \"#utility.yul\":1632:1665   */\n      tag_71\n      jump\t// in\n    tag_126:\n        /* \"#utility.yul\":1532:1671   */\n      swap3\n      swap2\n      pop\n      pop\n      jump\t// out\n        /* \"#utility.yul\":1677:1794   */\n    tag_73:\n        /* \"#utility.yul\":1786:1787   */\n      0x00\n        /* \"#utility.yul\":1783:1784   */\n      dup1\n        /* \"#utility.yul\":1776:1788   */\n      revert\n        /* \"#utility.yul\":1800:1917   */\n    tag_74:\n        /* \"#utility.yul\":1909:1910   */\n      0x00\n        /* \"#utility.yul\":1906:1907   */\n      dup1\n        /* \"#utility.yul\":1899:1911   */\n      revert\n        /* \"#utility.yul\":1923:2025   */\n    tag_75:\n        /* \"#utility.yul\":1964:1970   */\n      0x00\n        /* \"#utility.yul\":2015:2017   */\n      0x1f\n        /* \"#utility.yul\":2011:2018   */\n      not\n        /* \"#utility.yul\":2006:2008   */\n      0x1f\n        /* \"#utility.yul\":1999:2004   */\n      dup4\n        /* \"#utility.yul\":1995:2009   */\n      add\n        /* \"#utility.yul\":1991:2019   */\n      and\n        /* \"#utility.yul\":1981:2019   */\n      swap1\n      pop\n        /* \"#utility.yul\":1923:2025   */\n      swap2\n      swap1\n      pop\n      jump\t// out\n        /* \"#utility.yul\":2031:2211   */\n    tag_76:\n        /* \"#utility.yul\":2079:2156   */\n      0x4e487b7100000000000000000000000000000000000000000000000000000000\n        /* \"#utility.yul\":2076:2077   */\n      0x00\n        /* \"#utility.yul\":2069:2157   */\n      mstore\n        /* \"#utility.yul\":2176:2180   */\n      0x41\n        /* \"#utility.yul\":2173:2174   */\n      0x04\n        /* \"#utility.yul\":2166:2181   */\n      mstore\n        /* \"#utility.yul\":2200:2204   */\n      0x24\n        /* \"#utility.yul\":2197:2198   */\n      0x00\n        /* \"#utility.yul\":2190:2205   */\n      revert\n        /* \"#utility.yul\":2217:2498   */\n    tag_77:\n        /* \"#utility.yul\":2300:2327   */\n      tag_132\n        /* \"#utility.yul\":2322:2326   */\n      dup3\n        /* \"#utility.yul\":2300:2327   */\n      tag_75\n      jump\t// in\n    tag_132:\n        /* \"#utility.yul\":2292:2298   */\n      dup2\n        /* \"#utility.yul\":2288:2328   */\n      add\n        /* \"#utility.yul\":2430:2436   */\n      dup2\n        /* \"#utility.yul\":2418:2428   */\n      dup2\n        /* \"#utility.yul\":2415:2437   */\n      lt\n        /* \"#utility.yul\":2394:2412   */\n      0xffffffffffffffff\n        /* \"#utility.yul\":2382:2392   */\n      dup3\n        /* \"#utility.yul\":2379:2413   */\n      gt\n        /* \"#utility.yul\":2376:2438   */\n      or\n        /* \"#utility.yul\":2373:2461   */\n      iszero\n      tag_133\n      jumpi\n        /* \"#utility.yul\":2441:2459   */\n      tag_134\n      tag_76\n      jump\t// in\n    tag_134:\n        /* \"#utility.yul\":2373:2461   */\n    tag_133:\n        /* \"#utility.yul\":2481:2491   */\n      dup1\n        /* \"#utility.yul\":2477:2479   */\n      0x40\n        /* \"#utility.yul\":2470:2492   */\n      mstore\n        /* \"#utility.yul\":2260:2498   */\n      pop\n        /* \"#utility.yul\":2217:2498   */\n      pop\n      pop\n      jump\t// out\n        /* \"#utility.yul\":2504:2633   */\n    tag_78:\n        /* \"#utility.yul\":2538:2544   */\n      0x00\n        /* \"#utility.yul\":2565:2585   */\n      tag_136\n      tag_63\n      jump\t// in\n    tag_136:\n        /* \"#utility.yul\":2555:2585   */\n      swap1\n      pop\n        /* \"#utility.yul\":2594:2627   */\n      tag_137\n        /* \"#utility.yul\":2622:2626   */\n      dup3\n        /* \"#utility.yul\":2614:2620   */\n      dup3\n        /* \"#utility.yul\":2594:2627   */\n      tag_77\n      jump\t// in\n    tag_137:\n        /* \"#utility.yul\":2504:2633   */\n      swap2\n      swap1\n      pop\n      jump\t// out\n        /* \"#utility.yul\":2639:2947   */\n    tag_79:\n        /* \"#utility.yul\":2701:2705   */\n      0x00\n        /* \"#utility.yul\":2791:2809   */\n      0xffffffffffffffff\n        /* \"#utility.yul\":2783:2789   */\n      dup3\n        /* \"#utility.yul\":2780:2810   */\n      gt\n        /* \"#utility.yul\":2777:2833   */\n      iszero\n      tag_139\n      jumpi\n        /* \"#utility.yul\":2813:2831   */\n      tag_140\n      tag_76\n      jump\t// in\n    tag_140:\n        /* \"#utility.yul\":2777:2833   */\n    tag_139:\n        /* \"#utility.yul\":2851:2880   */\n      tag_141\n        /* \"#utility.yul\":2873:2879   */\n      dup3\n        /* \"#utility.yul\":2851:2880   */\n      tag_75\n      jump\t// in\n    tag_141:\n        /* \"#utility.yul\":2843:2880   */\n      swap1\n      pop\n        /* \"#utility.yul\":2935:2939   */\n      0x20\n        /* \"#utility.yul\":2929:2933   */\n      dup2\n        /* \"#utility.yul\":2925:2940   */\n      add\n        /* \"#utility.yul\":2917:2940   */\n      swap1\n      pop\n        /* \"#utility.yul\":2639:2947   */\n      swap2\n      swap1\n      pop\n      jump\t// out\n        /* \"#utility.yul\":2953:3099   */\n    tag_80:\n        /* \"#utility.yul\":3050:3056   */\n      dup3\n        /* \"#utility.yul\":3045:3048   */\n      dup2\n        /* \"#utility.yul\":3040:3043   */\n      dup4\n        /* \"#utility.yul\":3027:3057   */\n      calldatacopy\n        /* \"#utility.yul\":3091:3092   */\n      0x00\n        /* \"#utility.yul\":3082:3088   */\n      dup4\n        /* \"#utility.yul\":3077:3080   */\n      dup4\n        /* \"#utility.yul\":3073:3089   */\n      add\n        /* \"#utility.yul\":3066:3093   */\n      mstore\n        /* \"#utility.yul\":2953:3099   */\n      pop\n      pop\n      pop\n      jump\t// out\n        /* \"#utility.yul\":3105:3530   */\n    tag_81:\n        /* \"#utility.yul\":3183:3188   */\n      0x00\n        /* \"#utility.yul\":3208:3274   */\n      tag_144\n        /* \"#utility.yul\":3224:3273   */\n      tag_145\n        /* \"#utility.yul\":3266:3272   */\n      dup5\n        /* \"#utility.yul\":3224:3273   */\n      tag_79\n      jump\t// in\n    tag_145:\n        /* \"#utility.yul\":3208:3274   */\n      tag_78\n      jump\t// in\n    tag_144:\n        /* \"#utility.yul\":3199:3274   */\n      swap1\n      pop\n        /* \"#utility.yul\":3297:3303   */\n      dup3\n        /* \"#utility.yul\":3290:3295   */\n      dup2\n        /* \"#utility.yul\":3283:3304   */\n      mstore\n        /* \"#utility.yul\":3335:3339   */\n      0x20\n        /* \"#utility.yul\":3328:3333   */\n      dup2\n        /* \"#utility.yul\":3324:3340   */\n      add\n        /* \"#utility.yul\":3373:3376   */\n      dup5\n        /* \"#utility.yul\":3364:3370   */\n      dup5\n        /* \"#utility.yul\":3359:3362   */\n      dup5\n        /* \"#utility.yul\":3355:3371   */\n      add\n        /* \"#utility.yul\":3352:3377   */\n      gt\n        /* \"#utility.yul\":3349:3461   */\n      iszero\n      tag_146\n      jumpi\n        /* \"#utility.yul\":3380:3459   */\n      tag_147\n      tag_74\n      jump\t// in\n    tag_147:\n        /* \"#utility.yul\":3349:3461   */\n    tag_146:\n        /* \"#utility.yul\":3470:3524   */\n      tag_148\n        /* \"#utility.yul\":3517:3523   */\n      dup5\n        /* \"#utility.yul\":3512:3515   */\n      dup3\n        /* \"#utility.yul\":3507:3510   */\n      dup6\n        /* \"#utility.yul\":3470:3524   */\n      tag_80\n      jump\t// in\n    tag_148:\n        /* \"#utility.yul\":3189:3530   */\n      pop\n        /* \"#utility.yul\":3105:3530   */\n      swap4\n      swap3\n      pop\n      pop\n      pop\n      jump\t// out\n        /* \"#utility.yul\":3550:3890   */\n    tag_82:\n        /* \"#utility.yul\":3606:3611   */\n      0x00\n        /* \"#utility.yul\":3655:3658   */\n      dup3\n        /* \"#utility.yul\":3648:3652   */\n      0x1f\n        /* \"#utility.yul\":3640:3646   */\n      dup4\n        /* \"#utility.yul\":3636:3653   */\n      add\n        /* \"#utility.yul\":3632:3659   */\n      slt\n        /* \"#utility.yul\":3622:3744   */\n      tag_150\n      jumpi\n        /* \"#utility.yul\":3663:3742   */\n      tag_151\n      tag_73\n      jump\t// in\n    tag_151:\n        /* \"#utility.yul\":3622:3744   */\n    tag_150:\n        /* \"#utility.yul\":3780:3786   */\n      dup2\n        /* \"#utility.yul\":3767:3787   */\n      calldataload\n        /* \"#utility.yul\":3805:3884   */\n      tag_152\n        /* \"#utility.yul\":3880:3883   */\n      dup5\n        /* \"#utility.yul\":3872:3878   */\n      dup3\n        /* \"#utility.yul\":3865:3869   */\n      0x20\n        /* \"#utility.yul\":3857:3863   */\n      dup7\n        /* \"#utility.yul\":3853:3870   */\n      add\n        /* \"#utility.yul\":3805:3884   */\n      tag_81\n      jump\t// in\n    tag_152:\n        /* \"#utility.yul\":3796:3884   */\n      swap2\n      pop\n        /* \"#utility.yul\":3612:3890   */\n      pop\n        /* \"#utility.yul\":3550:3890   */\n      swap3\n      swap2\n      pop\n      pop\n      jump\t// out\n        /* \"#utility.yul\":3896:4695   */\n    tag_13:\n        /* \"#utility.yul\":3983:3989   */\n      0x00\n        /* \"#utility.yul\":3991:3997   */\n      dup1\n        /* \"#utility.yul\":3999:4005   */\n      0x00\n        /* \"#utility.yul\":4048:4050   */\n      0x60\n        /* \"#utility.yul\":4036:4045   */\n      dup5\n        /* \"#utility.yul\":4027:4034   */\n      dup7\n        /* \"#utility.yul\":4023:4046   */\n      sub\n        /* \"#utility.yul\":4019:4051   */\n      slt\n        /* \"#utility.yul\":4016:4135   */\n      iszero\n      tag_154\n      jumpi\n        /* \"#utility.yul\":4054:4133   */\n      tag_155\n      tag_64\n      jump\t// in\n    tag_155:\n        /* \"#utility.yul\":4016:4135   */\n    tag_154:\n        /* \"#utility.yul\":4174:4175   */\n      0x00\n        /* \"#utility.yul\":4199:4252   */\n      tag_156\n        /* \"#utility.yul\":4244:4251   */\n      dup7\n        /* \"#utility.yul\":4235:4241   */\n      dup3\n        /* \"#utility.yul\":4224:4233   */\n      dup8\n        /* \"#utility.yul\":4220:4242   */\n      add\n        /* \"#utility.yul\":4199:4252   */\n      tag_72\n      jump\t// in\n    tag_156:\n        /* \"#utility.yul\":4189:4252   */\n      swap4\n      pop\n        /* \"#utility.yul\":4145:4262   */\n      pop\n        /* \"#utility.yul\":4329:4331   */\n      0x20\n        /* \"#utility.yul\":4318:4327   */\n      dup5\n        /* \"#utility.yul\":4314:4332   */\n      add\n        /* \"#utility.yul\":4301:4333   */\n      calldataload\n        /* \"#utility.yul\":4360:4378   */\n      0xffffffffffffffff\n        /* \"#utility.yul\":4352:4358   */\n      dup2\n        /* \"#utility.yul\":4349:4379   */\n      gt\n        /* \"#utility.yul\":4346:4463   */\n      iszero\n      tag_157\n      jumpi\n        /* \"#utility.yul\":4382:4461   */\n      tag_158\n      tag_65\n      jump\t// in\n    tag_158:\n        /* \"#utility.yul\":4346:4463   */\n    tag_157:\n        /* \"#utility.yul\":4487:4550   */\n      tag_159\n        /* \"#utility.yul\":4542:4549   */\n      dup7\n        /* \"#utility.yul\":4533:4539   */\n      dup3\n        /* \"#utility.yul\":4522:4531   */\n      dup8\n        /* \"#utility.yul\":4518:4540   */\n      add\n        /* \"#utility.yul\":4487:4550   */\n      tag_82\n      jump\t// in\n    tag_159:\n        /* \"#utility.yul\":4477:4550   */\n      swap3\n      pop\n        /* \"#utility.yul\":4272:4560   */\n      pop\n        /* \"#utility.yul\":4599:4601   */\n      0x40\n        /* \"#utility.yul\":4625:4678   */\n      tag_160\n        /* \"#utility.yul\":4670:4677   */\n      dup7\n        /* \"#utility.yul\":4661:4667   */\n      dup3\n        /* \"#utility.yul\":4650:4659   */\n      dup8\n        /* \"#utility.yul\":4646:4668   */\n      add\n        /* \"#utility.yul\":4625:4678   */\n      tag_68\n      jump\t// in\n    tag_160:\n        /* \"#utility.yul\":4615:4678   */\n      swap2\n      pop\n        /* \"#utility.yul\":4570:4688   */\n      pop\n        /* \"#utility.yul\":3896:4695   */\n      swap3\n      pop\n      swap3\n      pop\n      swap3\n      jump\t// out\n        /* \"#utility.yul\":4701:5030   */\n    tag_17:\n        /* \"#utility.yul\":4760:4766   */\n      0x00\n        /* \"#utility.yul\":4809:4811   */\n      0x20\n        /* \"#utility.yul\":4797:4806   */\n      dup3\n        /* \"#utility.yul\":4788:4795   */\n      dup5\n        /* \"#utility.yul\":4784:4807   */\n      sub\n        /* \"#utility.yul\":4780:4812   */\n      slt\n        /* \"#utility.yul\":4777:4896   */\n      iszero\n      tag_162\n      jumpi\n        /* \"#utility.yul\":4815:4894   */\n      tag_163\n      tag_64\n      jump\t// in\n    tag_163:\n        /* \"#utility.yul\":4777:4896   */\n    tag_162:\n        /* \"#utility.yul\":4935:4936   */\n      0x00\n        /* \"#utility.yul\":4960:5013   */\n      tag_164\n        /* \"#utility.yul\":5005:5012   */\n      dup5\n        /* \"#utility.yul\":4996:5002   */\n      dup3\n        /* \"#utility.yul\":4985:4994   */\n      dup6\n        /* \"#utility.yul\":4981:5003   */\n      add\n        /* \"#utility.yul\":4960:5013   */\n      tag_68\n      jump\t// in\n    tag_164:\n        /* \"#utility.yul\":4950:5013   */\n      swap2\n      pop\n        /* \"#utility.yul\":4906:5023   */\n      pop\n        /* \"#utility.yul\":4701:5030   */\n      swap3\n      swap2\n      pop\n      pop\n      jump\t// out\n        /* \"#utility.yul\":5036:5154   */\n    tag_83:\n        /* \"#utility.yul\":5123:5147   */\n      tag_166\n        /* \"#utility.yul\":5141:5146   */\n      dup2\n        /* \"#utility.yul\":5123:5147   */\n      tag_66\n      jump\t// in\n    tag_166:\n        /* \"#utility.yul\":5118:5121   */\n      dup3\n        /* \"#utility.yul\":5111:5148   */\n      mstore\n        /* \"#utility.yul\":5036:5154   */\n      pop\n      pop\n      jump\t// out\n        /* \"#utility.yul\":5160:5278   */\n    tag_84:\n        /* \"#utility.yul\":5247:5271   */\n      tag_168\n        /* \"#utility.yul\":5265:5270   */\n      dup2\n        /* \"#utility.yul\":5247:5271   */\n      tag_70\n      jump\t// in\n    tag_168:\n        /* \"#utility.yul\":5242:5245   */\n      dup3\n        /* \"#utility.yul\":5235:5272   */\n      mstore\n        /* \"#utility.yul\":5160:5278   */\n      pop\n      pop\n      jump\t// out\n        /* \"#utility.yul\":5284:5383   */\n    tag_85:\n        /* \"#utility.yul\":5336:5342   */\n      0x00\n        /* \"#utility.yul\":5370:5375   */\n      dup2\n        /* \"#utility.yul\":5364:5376   */\n      mload\n        /* \"#utility.yul\":5354:5376   */\n      swap1\n      pop\n        /* \"#utility.yul\":5284:5383   */\n      swap2\n      swap1\n      pop\n      jump\t// out\n        /* \"#utility.yul\":5389:5558   */\n    tag_86:\n        /* \"#utility.yul\":5473:5484   */\n      0x00\n        /* \"#utility.yul\":5507:5513   */\n      dup3\n        /* \"#utility.yul\":5502:5505   */\n      dup3\n        /* \"#utility.yul\":5495:5514   */\n      mstore\n        /* \"#utility.yul\":5547:5551   */\n      0x20\n        /* \"#utility.yul\":5542:5545   */\n      dup3\n        /* \"#utility.yul\":5538:5552   */\n      add\n        /* \"#utility.yul\":5523:5552   */\n      swap1\n      pop\n        /* \"#utility.yul\":5389:5558   */\n      swap3\n      swap2\n      pop\n      pop\n      jump\t// out\n        /* \"#utility.yul\":5564:5810   */\n    tag_87:\n        /* \"#utility.yul\":5645:5646   */\n      0x00\n        /* \"#utility.yul\":5655:5768   */\n    tag_172:\n        /* \"#utility.yul\":5669:5675   */\n      dup4\n        /* \"#utility.yul\":5666:5667   */\n      dup2\n        /* \"#utility.yul\":5663:5676   */\n      lt\n        /* \"#utility.yul\":5655:5768   */\n      iszero\n      tag_174\n      jumpi\n        /* \"#utility.yul\":5754:5755   */\n      dup1\n        /* \"#utility.yul\":5749:5752   */\n      dup3\n        /* \"#utility.yul\":5745:5756   */\n      add\n        /* \"#utility.yul\":5739:5757   */\n      mload\n        /* \"#utility.yul\":5735:5736   */\n      dup2\n        /* \"#utility.yul\":5730:5733   */\n      dup5\n        /* \"#utility.yul\":5726:5737   */\n      add\n        /* \"#utility.yul\":5719:5758   */\n      mstore\n        /* \"#utility.yul\":5691:5693   */\n      0x20\n        /* \"#utility.yul\":5688:5689   */\n      dup2\n        /* \"#utility.yul\":5684:5694   */\n      add\n        /* \"#utility.yul\":5679:5694   */\n      swap1\n      pop\n        /* \"#utility.yul\":5655:5768   */\n      jump(tag_172)\n    tag_174:\n        /* \"#utility.yul\":5802:5803   */\n      0x00\n        /* \"#utility.yul\":5793:5799   */\n      dup5\n        /* \"#utility.yul\":5788:5791   */\n      dup5\n        /* \"#utility.yul\":5784:5800   */\n      add\n        /* \"#utility.yul\":5777:5804   */\n      mstore\n        /* \"#utility.yul\":5626:5810   */\n      pop\n        /* \"#utility.yul\":5564:5810   */\n      pop\n      pop\n      pop\n      jump\t// out\n        /* \"#utility.yul\":5816:6193   */\n    tag_88:\n        /* \"#utility.yul\":5904:5907   */\n      0x00\n        /* \"#utility.yul\":5932:5971   */\n      tag_176\n        /* \"#utility.yul\":5965:5970   */\n      dup3\n        /* \"#utility.yul\":5932:5971   */\n      tag_85\n      jump\t// in\n    tag_176:\n        /* \"#utility.yul\":5987:6058   */\n      tag_177\n        /* \"#utility.yul\":6051:6057   */\n      dup2\n        /* \"#utility.yul\":6046:6049   */\n      dup6\n        /* \"#utility.yul\":5987:6058   */\n      tag_86\n      jump\t// in\n    tag_177:\n        /* \"#utility.yul\":5980:6058   */\n      swap4\n      pop\n        /* \"#utility.yul\":6067:6132   */\n      tag_178\n        /* \"#utility.yul\":6125:6131   */\n      dup2\n        /* \"#utility.yul\":6120:6123   */\n      dup6\n        /* \"#utility.yul\":6113:6117   */\n      0x20\n        /* \"#utility.yul\":6106:6111   */\n      dup7\n        /* \"#utility.yul\":6102:6118   */\n      add\n        /* \"#utility.yul\":6067:6132   */\n      tag_87\n      jump\t// in\n    tag_178:\n        /* \"#utility.yul\":6157:6186   */\n      tag_179\n        /* \"#utility.yul\":6179:6185   */\n      dup2\n        /* \"#utility.yul\":6157:6186   */\n      tag_75\n      jump\t// in\n    tag_179:\n        /* \"#utility.yul\":6152:6155   */\n      dup5\n        /* \"#utility.yul\":6148:6187   */\n      add\n        /* \"#utility.yul\":6141:6187   */\n      swap2\n      pop\n        /* \"#utility.yul\":5908:6193   */\n      pop\n        /* \"#utility.yul\":5816:6193   */\n      swap3\n      swap2\n      pop\n      pop\n      jump\t// out\n        /* \"#utility.yul\":6199:6843   */\n    tag_20:\n        /* \"#utility.yul\":6396:6400   */\n      0x00\n        /* \"#utility.yul\":6434:6437   */\n      0x80\n        /* \"#utility.yul\":6423:6432   */\n      dup3\n        /* \"#utility.yul\":6419:6438   */\n      add\n        /* \"#utility.yul\":6411:6438   */\n      swap1\n      pop\n        /* \"#utility.yul\":6448:6519   */\n      tag_181\n        /* \"#utility.yul\":6516:6517   */\n      0x00\n        /* \"#utility.yul\":6505:6514   */\n      dup4\n        /* \"#utility.yul\":6501:6518   */\n      add\n        /* \"#utility.yul\":6492:6498   */\n      dup8\n        /* \"#utility.yul\":6448:6519   */\n      tag_83\n      jump\t// in\n    tag_181:\n        /* \"#utility.yul\":6529:6601   */\n      tag_182\n        /* \"#utility.yul\":6597:6599   */\n      0x20\n        /* \"#utility.yul\":6586:6595   */\n      dup4\n        /* \"#utility.yul\":6582:6600   */\n      add\n        /* \"#utility.yul\":6573:6579   */\n      dup7\n        /* \"#utility.yul\":6529:6601   */\n      tag_84\n      jump\t// in\n    tag_182:\n        /* \"#utility.yul\":6648:6657   */\n      dup2\n        /* \"#utility.yul\":6642:6646   */\n      dup2\n        /* \"#utility.yul\":6638:6658   */\n      sub\n        /* \"#utility.yul\":6633:6635   */\n      0x40\n        /* \"#utility.yul\":6622:6631   */\n      dup4\n        /* \"#utility.yul\":6618:6636   */\n      add\n        /* \"#utility.yul\":6611:6659   */\n      mstore\n        /* \"#utility.yul\":6676:6754   */\n      tag_183\n        /* \"#utility.yul\":6749:6753   */\n      dup2\n        /* \"#utility.yul\":6740:6746   */\n      dup6\n        /* \"#utility.yul\":6676:6754   */\n      tag_88\n      jump\t// in\n    tag_183:\n        /* \"#utility.yul\":6668:6754   */\n      swap1\n      pop\n        /* \"#utility.yul\":6764:6836   */\n      tag_184\n        /* \"#utility.yul\":6832:6834   */\n      0x60\n        /* \"#utility.yul\":6821:6830   */\n      dup4\n        /* \"#utility.yul\":6817:6835   */\n      add\n        /* \"#utility.yul\":6808:6814   */\n      dup5\n        /* \"#utility.yul\":6764:6836   */\n      tag_83\n      jump\t// in\n    tag_184:\n        /* \"#utility.yul\":6199:6843   */\n      swap6\n      swap5\n      pop\n      pop\n      pop\n      pop\n      pop\n      jump\t// out\n        /* \"#utility.yul\":6849:7178   */\n    tag_23:\n        /* \"#utility.yul\":6908:6914   */\n      0x00\n        /* \"#utility.yul\":6957:6959   */\n      0x20\n        /* \"#utility.yul\":6945:6954   */\n      dup3\n        /* \"#utility.yul\":6936:6943   */\n      dup5\n        /* \"#utility.yul\":6932:6955   */\n      sub\n        /* \"#utility.yul\":6928:6960   */\n      slt\n        /* \"#utility.yul\":6925:7044   */\n      iszero\n      tag_186\n      jumpi\n        /* \"#utility.yul\":6963:7042   */\n      tag_187\n      tag_64\n      jump\t// in\n    tag_187:\n        /* \"#utility.yul\":6925:7044   */\n    tag_186:\n        /* \"#utility.yul\":7083:7084   */\n      0x00\n        /* \"#utility.yul\":7108:7161   */\n      tag_188\n        /* \"#utility.yul\":7153:7160   */\n      dup5\n        /* \"#utility.yul\":7144:7150   */\n      dup3\n        /* \"#utility.yul\":7133:7142   */\n      dup6\n        /* \"#utility.yul\":7129:7151   */\n      add\n        /* \"#utility.yul\":7108:7161   */\n      tag_72\n      jump\t// in\n    tag_188:\n        /* \"#utility.yul\":7098:7161   */\n      swap2\n      pop\n        /* \"#utility.yul\":7054:7171   */\n      pop\n        /* \"#utility.yul\":6849:7178   */\n      swap3\n      swap2\n      pop\n      pop\n      jump\t// out\n        /* \"#utility.yul\":7184:7353   */\n    tag_89:\n        /* \"#utility.yul\":7324:7345   */\n      0x41646472657373206e6f6e2056616c69646f2100000000000000000000000000\n        /* \"#utility.yul\":7320:7321   */\n      0x00\n        /* \"#utility.yul\":7312:7318   */\n      dup3\n        /* \"#utility.yul\":7308:7322   */\n      add\n        /* \"#utility.yul\":7301:7346   */\n      mstore\n        /* \"#utility.yul\":7184:7353   */\n      pop\n      jump\t// out\n        /* \"#utility.yul\":7359:7725   */\n    tag_90:\n        /* \"#utility.yul\":7501:7504   */\n      0x00\n        /* \"#utility.yul\":7522:7589   */\n      tag_191\n        /* \"#utility.yul\":7586:7588   */\n      0x13\n        /* \"#utility.yul\":7581:7584   */\n      dup4\n        /* \"#utility.yul\":7522:7589   */\n      tag_86\n      jump\t// in\n    tag_191:\n        /* \"#utility.yul\":7515:7589   */\n      swap2\n      pop\n        /* \"#utility.yul\":7598:7691   */\n      tag_192\n        /* \"#utility.yul\":7687:7690   */\n      dup3\n        /* \"#utility.yul\":7598:7691   */\n      tag_89\n      jump\t// in\n    tag_192:\n        /* \"#utility.yul\":7716:7718   */\n      0x20\n        /* \"#utility.yul\":7711:7714   */\n      dup3\n        /* \"#utility.yul\":7707:7719   */\n      add\n        /* \"#utility.yul\":7700:7719   */\n      swap1\n      pop\n        /* \"#utility.yul\":7359:7725   */\n      swap2\n      swap1\n      pop\n      jump\t// out\n        /* \"#utility.yul\":7731:8150   */\n    tag_28:\n        /* \"#utility.yul\":7897:7901   */\n      0x00\n        /* \"#utility.yul\":7935:7937   */\n      0x20\n        /* \"#utility.yul\":7924:7933   */\n      dup3\n        /* \"#utility.yul\":7920:7938   */\n      add\n        /* \"#utility.yul\":7912:7938   */\n      swap1\n      pop\n        /* \"#utility.yul\":7984:7993   */\n      dup2\n        /* \"#utility.yul\":7978:7982   */\n      dup2\n        /* \"#utility.yul\":7974:7994   */\n      sub\n        /* \"#utility.yul\":7970:7971   */\n      0x00\n        /* \"#utility.yul\":7959:7968   */\n      dup4\n        /* \"#utility.yul\":7955:7972   */\n      add\n        /* \"#utility.yul\":7948:7995   */\n      mstore\n        /* \"#utility.yul\":8012:8143   */\n      tag_194\n        /* \"#utility.yul\":8138:8142   */\n      dup2\n        /* \"#utility.yul\":8012:8143   */\n      tag_90\n      jump\t// in\n    tag_194:\n        /* \"#utility.yul\":8004:8143   */\n      swap1\n      pop\n        /* \"#utility.yul\":7731:8150   */\n      swap2\n      swap1\n      pop\n      jump\t// out\n        /* \"#utility.yul\":8156:8598   */\n    tag_30:\n        /* \"#utility.yul\":8305:8309   */\n      0x00\n        /* \"#utility.yul\":8343:8345   */\n      0x60\n        /* \"#utility.yul\":8332:8341   */\n      dup3\n        /* \"#utility.yul\":8328:8346   */\n      add\n        /* \"#utility.yul\":8320:8346   */\n      swap1\n      pop\n        /* \"#utility.yul\":8356:8427   */\n      tag_196\n        /* \"#utility.yul\":8424:8425   */\n      0x00\n        /* \"#utility.yul\":8413:8422   */\n      dup4\n        /* \"#utility.yul\":8409:8426   */\n      add\n        /* \"#utility.yul\":8400:8406   */\n      dup7\n        /* \"#utility.yul\":8356:8427   */\n      tag_84\n      jump\t// in\n    tag_196:\n        /* \"#utility.yul\":8437:8509   */\n      tag_197\n        /* \"#utility.yul\":8505:8507   */\n      0x20\n        /* \"#utility.yul\":8494:8503   */\n      dup4\n        /* \"#utility.yul\":8490:8508   */\n      add\n        /* \"#utility.yul\":8481:8487   */\n      dup6\n        /* \"#utility.yul\":8437:8509   */\n      tag_83\n      jump\t// in\n    tag_197:\n        /* \"#utility.yul\":8519:8591   */\n      tag_198\n        /* \"#utility.yul\":8587:8589   */\n      0x40\n        /* \"#utility.yul\":8576:8585   */\n      dup4\n        /* \"#utility.yul\":8572:8590   */\n      add\n        /* \"#utility.yul\":8563:8569   */\n      dup5\n        /* \"#utility.yul\":8519:8591   */\n      tag_83\n      jump\t// in\n    tag_198:\n        /* \"#utility.yul\":8156:8598   */\n      swap5\n      swap4\n      pop\n      pop\n      pop\n      pop\n      jump\t// out\n        /* \"#utility.yul\":8604:8694   */\n    tag_91:\n        /* \"#utility.yul\":8638:8645   */\n      0x00\n        /* \"#utility.yul\":8681:8686   */\n      dup2\n        /* \"#utility.yul\":8674:8687   */\n      iszero\n        /* \"#utility.yul\":8667:8688   */\n      iszero\n        /* \"#utility.yul\":8656:8688   */\n      swap1\n      pop\n        /* \"#utility.yul\":8604:8694   */\n      swap2\n      swap1\n      pop\n      jump\t// out\n        /* \"#utility.yul\":8700:8816   */\n    tag_92:\n        /* \"#utility.yul\":8770:8791   */\n      tag_201\n        /* \"#utility.yul\":8785:8790   */\n      dup2\n        /* \"#utility.yul\":8770:8791   */\n      tag_91\n      jump\t// in\n    tag_201:\n        /* \"#utility.yul\":8763:8768   */\n      dup2\n        /* \"#utility.yul\":8760:8792   */\n      eq\n        /* \"#utility.yul\":8750:8810   */\n      tag_202\n      jumpi\n        /* \"#utility.yul\":8806:8807   */\n      0x00\n        /* \"#utility.yul\":8803:8804   */\n      dup1\n        /* \"#utility.yul\":8796:8808   */\n      revert\n        /* \"#utility.yul\":8750:8810   */\n    tag_202:\n        /* \"#utility.yul\":8700:8816   */\n      pop\n      jump\t// out\n        /* \"#utility.yul\":8822:8959   */\n    tag_93:\n        /* \"#utility.yul\":8876:8881   */\n      0x00\n        /* \"#utility.yul\":8907:8913   */\n      dup2\n        /* \"#utility.yul\":8901:8914   */\n      mload\n        /* \"#utility.yul\":8892:8914   */\n      swap1\n      pop\n        /* \"#utility.yul\":8923:8953   */\n      tag_204\n        /* \"#utility.yul\":8947:8952   */\n      dup2\n        /* \"#utility.yul\":8923:8953   */\n      tag_92\n      jump\t// in\n    tag_204:\n        /* \"#utility.yul\":8822:8959   */\n      swap3\n      swap2\n      pop\n      pop\n      jump\t// out\n        /* \"#utility.yul\":8965:9310   */\n    tag_34:\n        /* \"#utility.yul\":9032:9038   */\n      0x00\n        /* \"#utility.yul\":9081:9083   */\n      0x20\n        /* \"#utility.yul\":9069:9078   */\n      dup3\n        /* \"#utility.yul\":9060:9067   */\n      dup5\n        /* \"#utility.yul\":9056:9079   */\n      sub\n        /* \"#utility.yul\":9052:9084   */\n      slt\n        /* \"#utility.yul\":9049:9168   */\n      iszero\n      tag_206\n      jumpi\n        /* \"#utility.yul\":9087:9166   */\n      tag_207\n      tag_64\n      jump\t// in\n    tag_207:\n        /* \"#utility.yul\":9049:9168   */\n    tag_206:\n        /* \"#utility.yul\":9207:9208   */\n      0x00\n        /* \"#utility.yul\":9232:9293   */\n      tag_208\n        /* \"#utility.yul\":9285:9292   */\n      dup5\n        /* \"#utility.yul\":9276:9282   */\n      dup3\n        /* \"#utility.yul\":9265:9274   */\n      dup6\n        /* \"#utility.yul\":9261:9283   */\n      add\n        /* \"#utility.yul\":9232:9293   */\n      tag_93\n      jump\t// in\n    tag_208:\n        /* \"#utility.yul\":9222:9293   */\n      swap2\n      pop\n        /* \"#utility.yul\":9178:9303   */\n      pop\n        /* \"#utility.yul\":8965:9310   */\n      swap3\n      swap2\n      pop\n      pop\n      jump\t// out\n        /* \"#utility.yul\":9316:9615   */\n    tag_94:\n        /* \"#utility.yul\":9456:9490   */\n      0x4572726f726520647572616e7465206c61206d6f6469666963612064656c6c61\n        /* \"#utility.yul\":9452:9453   */\n      0x00\n        /* \"#utility.yul\":9444:9450   */\n      dup3\n        /* \"#utility.yul\":9440:9454   */\n      add\n        /* \"#utility.yul\":9433:9491   */\n      mstore\n        /* \"#utility.yul\":9525:9559   */\n      0x207175616e7469746127206469206c61747465206e656c6c6120506172746974\n        /* \"#utility.yul\":9520:9522   */\n      0x20\n        /* \"#utility.yul\":9512:9518   */\n      dup3\n        /* \"#utility.yul\":9508:9523   */\n      add\n        /* \"#utility.yul\":9501:9560   */\n      mstore\n        /* \"#utility.yul\":9594:9607   */\n      0x612064656c204c61747465000000000000000000000000000000000000000000\n        /* \"#utility.yul\":9589:9591   */\n      0x40\n        /* \"#utility.yul\":9581:9587   */\n      dup3\n        /* \"#utility.yul\":9577:9592   */\n      add\n        /* \"#utility.yul\":9570:9608   */\n      mstore\n        /* \"#utility.yul\":9316:9615   */\n      pop\n      jump\t// out\n        /* \"#utility.yul\":9621:9987   */\n    tag_95:\n        /* \"#utility.yul\":9763:9766   */\n      0x00\n        /* \"#utility.yul\":9784:9851   */\n      tag_211\n        /* \"#utility.yul\":9848:9850   */\n      0x4b\n        /* \"#utility.yul\":9843:9846   */\n      dup4\n        /* \"#utility.yul\":9784:9851   */\n      tag_86\n      jump\t// in\n    tag_211:\n        /* \"#utility.yul\":9777:9851   */\n      swap2\n      pop\n        /* \"#utility.yul\":9860:9953   */\n      tag_212\n        /* \"#utility.yul\":9949:9952   */\n      dup3\n        /* \"#utility.yul\":9860:9953   */\n      tag_94\n      jump\t// in\n    tag_212:\n        /* \"#utility.yul\":9978:9980   */\n      0x60\n        /* \"#utility.yul\":9973:9976   */\n      dup3\n        /* \"#utility.yul\":9969:9981   */\n      add\n        /* \"#utility.yul\":9962:9981   */\n      swap1\n      pop\n        /* \"#utility.yul\":9621:9987   */\n      swap2\n      swap1\n      pop\n      jump\t// out\n        /* \"#utility.yul\":9993:10412   */\n    tag_37:\n        /* \"#utility.yul\":10159:10163   */\n      0x00\n        /* \"#utility.yul\":10197:10199   */\n      0x20\n        /* \"#utility.yul\":10186:10195   */\n      dup3\n        /* \"#utility.yul\":10182:10200   */\n      add\n        /* \"#utility.yul\":10174:10200   */\n      swap1\n      pop\n        /* \"#utility.yul\":10246:10255   */\n      dup2\n        /* \"#utility.yul\":10240:10244   */\n      dup2\n        /* \"#utility.yul\":10236:10256   */\n      sub\n        /* \"#utility.yul\":10232:10233   */\n      0x00\n        /* \"#utility.yul\":10221:10230   */\n      dup4\n        /* \"#utility.yul\":10217:10234   */\n      add\n        /* \"#utility.yul\":10210:10257   */\n      mstore\n        /* \"#utility.yul\":10274:10405   */\n      tag_214\n        /* \"#utility.yul\":10400:10404   */\n      dup2\n        /* \"#utility.yul\":10274:10405   */\n      tag_95\n      jump\t// in\n    tag_214:\n        /* \"#utility.yul\":10266:10405   */\n      swap1\n      pop\n        /* \"#utility.yul\":9993:10412   */\n      swap2\n      swap1\n      pop\n      jump\t// out\n        /* \"#utility.yul\":10418:10640   */\n    tag_39:\n        /* \"#utility.yul\":10511:10515   */\n      0x00\n        /* \"#utility.yul\":10549:10551   */\n      0x20\n        /* \"#utility.yul\":10538:10547   */\n      dup3\n        /* \"#utility.yul\":10534:10552   */\n      add\n        /* \"#utility.yul\":10526:10552   */\n      swap1\n      pop\n        /* \"#utility.yul\":10562:10633   */\n      tag_216\n        /* \"#utility.yul\":10630:10631   */\n      0x00\n        /* \"#utility.yul\":10619:10628   */\n      dup4\n        /* \"#utility.yul\":10615:10632   */\n      add\n        /* \"#utility.yul\":10606:10612   */\n      dup5\n        /* \"#utility.yul\":10562:10633   */\n      tag_83\n      jump\t// in\n    tag_216:\n        /* \"#utility.yul\":10418:10640   */\n      swap3\n      swap2\n      pop\n      pop\n      jump\t// out\n        /* \"#utility.yul\":10646:11290   */\n    tag_44:\n        /* \"#utility.yul\":10843:10847   */\n      0x00\n        /* \"#utility.yul\":10881:10884   */\n      0x80\n        /* \"#utility.yul\":10870:10879   */\n      dup3\n        /* \"#utility.yul\":10866:10885   */\n      add\n        /* \"#utility.yul\":10858:10885   */\n      swap1\n      pop\n        /* \"#utility.yul\":10895:10966   */\n      tag_218\n        /* \"#utility.yul\":10963:10964   */\n      0x00\n        /* \"#utility.yul\":10952:10961   */\n      dup4\n        /* \"#utility.yul\":10948:10965   */\n      add\n        /* \"#utility.yul\":10939:10945   */\n      dup8\n        /* \"#utility.yul\":10895:10966   */\n      tag_84\n      jump\t// in\n    tag_218:\n        /* \"#utility.yul\":10976:11048   */\n      tag_219\n        /* \"#utility.yul\":11044:11046   */\n      0x20\n        /* \"#utility.yul\":11033:11042   */\n      dup4\n        /* \"#utility.yul\":11029:11047   */\n      add\n        /* \"#utility.yul\":11020:11026   */\n      dup7\n        /* \"#utility.yul\":10976:11048   */\n      tag_84\n      jump\t// in\n    tag_219:\n        /* \"#utility.yul\":11095:11104   */\n      dup2\n        /* \"#utility.yul\":11089:11093   */\n      dup2\n        /* \"#utility.yul\":11085:11105   */\n      sub\n        /* \"#utility.yul\":11080:11082   */\n      0x40\n        /* \"#utility.yul\":11069:11078   */\n      dup4\n        /* \"#utility.yul\":11065:11083   */\n      add\n        /* \"#utility.yul\":11058:11106   */\n      mstore\n        /* \"#utility.yul\":11123:11201   */\n      tag_220\n        /* \"#utility.yul\":11196:11200   */\n      dup2\n        /* \"#utility.yul\":11187:11193   */\n      dup6\n        /* \"#utility.yul\":11123:11201   */\n      tag_88\n      jump\t// in\n    tag_220:\n        /* \"#utility.yul\":11115:11201   */\n      swap1\n      pop\n        /* \"#utility.yul\":11211:11283   */\n      tag_221\n        /* \"#utility.yul\":11279:11281   */\n      0x60\n        /* \"#utility.yul\":11268:11277   */\n      dup4\n        /* \"#utility.yul\":11264:11282   */\n      add\n        /* \"#utility.yul\":11255:11261   */\n      dup5\n        /* \"#utility.yul\":11211:11283   */\n      tag_83\n      jump\t// in\n    tag_221:\n        /* \"#utility.yul\":10646:11290   */\n      swap6\n      swap5\n      pop\n      pop\n      pop\n      pop\n      pop\n      jump\t// out\n        /* \"#utility.yul\":11296:11467   */\n    tag_96:\n        /* \"#utility.yul\":11436:11459   */\n      0x4d696c6b4261746368204163717569737461746f210000000000000000000000\n        /* \"#utility.yul\":11432:11433   */\n      0x00\n        /* \"#utility.yul\":11424:11430   */\n      dup3\n        /* \"#utility.yul\":11420:11434   */\n      add\n        /* \"#utility.yul\":11413:11460   */\n      mstore\n        /* \"#utility.yul\":11296:11467   */\n      pop\n      jump\t// out\n        /* \"#utility.yul\":11473:11839   */\n    tag_97:\n        /* \"#utility.yul\":11615:11618   */\n      0x00\n        /* \"#utility.yul\":11636:11703   */\n      tag_224\n        /* \"#utility.yul\":11700:11702   */\n      0x15\n        /* \"#utility.yul\":11695:11698   */\n      dup4\n        /* \"#utility.yul\":11636:11703   */\n      tag_86\n      jump\t// in\n    tag_224:\n        /* \"#utility.yul\":11629:11703   */\n      swap2\n      pop\n        /* \"#utility.yul\":11712:11805   */\n      tag_225\n        /* \"#utility.yul\":11801:11804   */\n      dup3\n        /* \"#utility.yul\":11712:11805   */\n      tag_96\n      jump\t// in\n    tag_225:\n        /* \"#utility.yul\":11830:11832   */\n      0x20\n        /* \"#utility.yul\":11825:11828   */\n      dup3\n        /* \"#utility.yul\":11821:11833   */\n      add\n        /* \"#utility.yul\":11814:11833   */\n      swap1\n      pop\n        /* \"#utility.yul\":11473:11839   */\n      swap2\n      swap1\n      pop\n      jump\t// out\n        /* \"#utility.yul\":11845:12575   */\n    tag_49:\n        /* \"#utility.yul\":12087:12091   */\n      0x00\n        /* \"#utility.yul\":12125:12127   */\n      0x60\n        /* \"#utility.yul\":12114:12123   */\n      dup3\n        /* \"#utility.yul\":12110:12128   */\n      add\n        /* \"#utility.yul\":12102:12128   */\n      swap1\n      pop\n        /* \"#utility.yul\":12174:12183   */\n      dup2\n        /* \"#utility.yul\":12168:12172   */\n      dup2\n        /* \"#utility.yul\":12164:12184   */\n      sub\n        /* \"#utility.yul\":12160:12161   */\n      0x00\n        /* \"#utility.yul\":12149:12158   */\n      dup4\n        /* \"#utility.yul\":12145:12162   */\n      add\n        /* \"#utility.yul\":12138:12185   */\n      mstore\n        /* \"#utility.yul\":12202:12333   */\n      tag_227\n        /* \"#utility.yul\":12328:12332   */\n      dup2\n        /* \"#utility.yul\":12202:12333   */\n      tag_97\n      jump\t// in\n    tag_227:\n        /* \"#utility.yul\":12194:12333   */\n      swap1\n      pop\n        /* \"#utility.yul\":12380:12389   */\n      dup2\n        /* \"#utility.yul\":12374:12378   */\n      dup2\n        /* \"#utility.yul\":12370:12390   */\n      sub\n        /* \"#utility.yul\":12365:12367   */\n      0x20\n        /* \"#utility.yul\":12354:12363   */\n      dup4\n        /* \"#utility.yul\":12350:12368   */\n      add\n        /* \"#utility.yul\":12343:12391   */\n      mstore\n        /* \"#utility.yul\":12408:12486   */\n      tag_228\n        /* \"#utility.yul\":12481:12485   */\n      dup2\n        /* \"#utility.yul\":12472:12478   */\n      dup6\n        /* \"#utility.yul\":12408:12486   */\n      tag_88\n      jump\t// in\n    tag_228:\n        /* \"#utility.yul\":12400:12486   */\n      swap1\n      pop\n        /* \"#utility.yul\":12496:12568   */\n      tag_229\n        /* \"#utility.yul\":12564:12566   */\n      0x40\n        /* \"#utility.yul\":12553:12562   */\n      dup4\n        /* \"#utility.yul\":12549:12567   */\n      add\n        /* \"#utility.yul\":12540:12546   */\n      dup5\n        /* \"#utility.yul\":12496:12568   */\n      tag_83\n      jump\t// in\n    tag_229:\n        /* \"#utility.yul\":11845:12575   */\n      swap4\n      swap3\n      pop\n      pop\n      pop\n      jump\t// out\n        /* \"#utility.yul\":12581:12913   */\n    tag_54:\n        /* \"#utility.yul\":12702:12706   */\n      0x00\n        /* \"#utility.yul\":12740:12742   */\n      0x40\n        /* \"#utility.yul\":12729:12738   */\n      dup3\n        /* \"#utility.yul\":12725:12743   */\n      add\n        /* \"#utility.yul\":12717:12743   */\n      swap1\n      pop\n        /* \"#utility.yul\":12753:12824   */\n      tag_231\n        /* \"#utility.yul\":12821:12822   */\n      0x00\n        /* \"#utility.yul\":12810:12819   */\n      dup4\n        /* \"#utility.yul\":12806:12823   */\n      add\n        /* \"#utility.yul\":12797:12803   */\n      dup6\n        /* \"#utility.yul\":12753:12824   */\n      tag_84\n      jump\t// in\n    tag_231:\n        /* \"#utility.yul\":12834:12906   */\n      tag_232\n        /* \"#utility.yul\":12902:12904   */\n      0x20\n        /* \"#utility.yul\":12891:12900   */\n      dup4\n        /* \"#utility.yul\":12887:12905   */\n      add\n        /* \"#utility.yul\":12878:12884   */\n      dup5\n        /* \"#utility.yul\":12834:12906   */\n      tag_83\n      jump\t// in\n    tag_232:\n        /* \"#utility.yul\":12581:12913   */\n      swap4\n      swap3\n      pop\n      pop\n      pop\n      jump\t// out\n        /* \"#utility.yul\":12919:13062   */\n    tag_98:\n        /* \"#utility.yul\":12976:12981   */\n      0x00\n        /* \"#utility.yul\":13007:13013   */\n      dup2\n        /* \"#utility.yul\":13001:13014   */\n      mload\n        /* \"#utility.yul\":12992:13014   */\n      swap1\n      pop\n        /* \"#utility.yul\":13023:13056   */\n      tag_234\n        /* \"#utility.yul\":13050:13055   */\n      dup2\n        /* \"#utility.yul\":13023:13056   */\n      tag_67\n      jump\t// in\n    tag_234:\n        /* \"#utility.yul\":12919:13062   */\n      swap3\n      swap2\n      pop\n      pop\n      jump\t// out\n        /* \"#utility.yul\":13068:13211   */\n    tag_99:\n        /* \"#utility.yul\":13125:13130   */\n      0x00\n        /* \"#utility.yul\":13156:13162   */\n      dup2\n        /* \"#utility.yul\":13150:13163   */\n      mload\n        /* \"#utility.yul\":13141:13163   */\n      swap1\n      pop\n        /* \"#utility.yul\":13172:13205   */\n      tag_236\n        /* \"#utility.yul\":13199:13204   */\n      dup2\n        /* \"#utility.yul\":13172:13205   */\n      tag_71\n      jump\t// in\n    tag_236:\n        /* \"#utility.yul\":13068:13211   */\n      swap3\n      swap2\n      pop\n      pop\n      jump\t// out\n        /* \"#utility.yul\":13217:13651   */\n    tag_100:\n        /* \"#utility.yul\":13306:13311   */\n      0x00\n        /* \"#utility.yul\":13331:13397   */\n      tag_238\n        /* \"#utility.yul\":13347:13396   */\n      tag_239\n        /* \"#utility.yul\":13389:13395   */\n      dup5\n        /* \"#utility.yul\":13347:13396   */\n      tag_79\n      jump\t// in\n    tag_239:\n        /* \"#utility.yul\":13331:13397   */\n      tag_78\n      jump\t// in\n    tag_238:\n        /* \"#utility.yul\":13322:13397   */\n      swap1\n      pop\n        /* \"#utility.yul\":13420:13426   */\n      dup3\n        /* \"#utility.yul\":13413:13418   */\n      dup2\n        /* \"#utility.yul\":13406:13427   */\n      mstore\n        /* \"#utility.yul\":13458:13462   */\n      0x20\n        /* \"#utility.yul\":13451:13456   */\n      dup2\n        /* \"#utility.yul\":13447:13463   */\n      add\n        /* \"#utility.yul\":13496:13499   */\n      dup5\n        /* \"#utility.yul\":13487:13493   */\n      dup5\n        /* \"#utility.yul\":13482:13485   */\n      dup5\n        /* \"#utility.yul\":13478:13494   */\n      add\n        /* \"#utility.yul\":13475:13500   */\n      gt\n        /* \"#utility.yul\":13472:13584   */\n      iszero\n      tag_240\n      jumpi\n        /* \"#utility.yul\":13503:13582   */\n      tag_241\n      tag_74\n      jump\t// in\n    tag_241:\n        /* \"#utility.yul\":13472:13584   */\n    tag_240:\n        /* \"#utility.yul\":13593:13645   */\n      tag_242\n        /* \"#utility.yul\":13638:13644   */\n      dup5\n        /* \"#utility.yul\":13633:13636   */\n      dup3\n        /* \"#utility.yul\":13628:13631   */\n      dup6\n        /* \"#utility.yul\":13593:13645   */\n      tag_87\n      jump\t// in\n    tag_242:\n        /* \"#utility.yul\":13312:13651   */\n      pop\n        /* \"#utility.yul\":13217:13651   */\n      swap4\n      swap3\n      pop\n      pop\n      pop\n      jump\t// out\n        /* \"#utility.yul\":13671:14026   */\n    tag_101:\n        /* \"#utility.yul\":13738:13743   */\n      0x00\n        /* \"#utility.yul\":13787:13790   */\n      dup3\n        /* \"#utility.yul\":13780:13784   */\n      0x1f\n        /* \"#utility.yul\":13772:13778   */\n      dup4\n        /* \"#utility.yul\":13768:13785   */\n      add\n        /* \"#utility.yul\":13764:13791   */\n      slt\n        /* \"#utility.yul\":13754:13876   */\n      tag_244\n      jumpi\n        /* \"#utility.yul\":13795:13874   */\n      tag_245\n      tag_73\n      jump\t// in\n    tag_245:\n        /* \"#utility.yul\":13754:13876   */\n    tag_244:\n        /* \"#utility.yul\":13905:13911   */\n      dup2\n        /* \"#utility.yul\":13899:13912   */\n      mload\n        /* \"#utility.yul\":13930:14020   */\n      tag_246\n        /* \"#utility.yul\":14016:14019   */\n      dup5\n        /* \"#utility.yul\":14008:14014   */\n      dup3\n        /* \"#utility.yul\":14001:14005   */\n      0x20\n        /* \"#utility.yul\":13993:13999   */\n      dup7\n        /* \"#utility.yul\":13989:14006   */\n      add\n        /* \"#utility.yul\":13930:14020   */\n      tag_100\n      jump\t// in\n    tag_246:\n        /* \"#utility.yul\":13921:14020   */\n      swap2\n      pop\n        /* \"#utility.yul\":13744:14026   */\n      pop\n        /* \"#utility.yul\":13671:14026   */\n      swap3\n      swap2\n      pop\n      pop\n      jump\t// out\n        /* \"#utility.yul\":14032:15025   */\n    tag_58:\n        /* \"#utility.yul\":14139:14145   */\n      0x00\n        /* \"#utility.yul\":14147:14153   */\n      dup1\n        /* \"#utility.yul\":14155:14161   */\n      0x00\n        /* \"#utility.yul\":14163:14169   */\n      dup1\n        /* \"#utility.yul\":14212:14215   */\n      0x80\n        /* \"#utility.yul\":14200:14209   */\n      dup6\n        /* \"#utility.yul\":14191:14198   */\n      dup8\n        /* \"#utility.yul\":14187:14210   */\n      sub\n        /* \"#utility.yul\":14183:14216   */\n      slt\n        /* \"#utility.yul\":14180:14300   */\n      iszero\n      tag_248\n      jumpi\n        /* \"#utility.yul\":14219:14298   */\n      tag_249\n      tag_64\n      jump\t// in\n    tag_249:\n        /* \"#utility.yul\":14180:14300   */\n    tag_248:\n        /* \"#utility.yul\":14339:14340   */\n      0x00\n        /* \"#utility.yul\":14364:14428   */\n      tag_250\n        /* \"#utility.yul\":14420:14427   */\n      dup8\n        /* \"#utility.yul\":14411:14417   */\n      dup3\n        /* \"#utility.yul\":14400:14409   */\n      dup9\n        /* \"#utility.yul\":14396:14418   */\n      add\n        /* \"#utility.yul\":14364:14428   */\n      tag_98\n      jump\t// in\n    tag_250:\n        /* \"#utility.yul\":14354:14428   */\n      swap5\n      pop\n        /* \"#utility.yul\":14310:14438   */\n      pop\n        /* \"#utility.yul\":14477:14479   */\n      0x20\n        /* \"#utility.yul\":14503:14567   */\n      tag_251\n        /* \"#utility.yul\":14559:14566   */\n      dup8\n        /* \"#utility.yul\":14550:14556   */\n      dup3\n        /* \"#utility.yul\":14539:14548   */\n      dup9\n        /* \"#utility.yul\":14535:14557   */\n      add\n        /* \"#utility.yul\":14503:14567   */\n      tag_99\n      jump\t// in\n    tag_251:\n        /* \"#utility.yul\":14493:14567   */\n      swap4\n      pop\n        /* \"#utility.yul\":14448:14577   */\n      pop\n        /* \"#utility.yul\":14637:14639   */\n      0x40\n        /* \"#utility.yul\":14626:14635   */\n      dup6\n        /* \"#utility.yul\":14622:14640   */\n      add\n        /* \"#utility.yul\":14616:14641   */\n      mload\n        /* \"#utility.yul\":14668:14686   */\n      0xffffffffffffffff\n        /* \"#utility.yul\":14660:14666   */\n      dup2\n        /* \"#utility.yul\":14657:14687   */\n      gt\n        /* \"#utility.yul\":14654:14771   */\n      iszero\n      tag_252\n      jumpi\n        /* \"#utility.yul\":14690:14769   */\n      tag_253\n      tag_65\n      jump\t// in\n    tag_253:\n        /* \"#utility.yul\":14654:14771   */\n    tag_252:\n        /* \"#utility.yul\":14795:14869   */\n      tag_254\n        /* \"#utility.yul\":14861:14868   */\n      dup8\n        /* \"#utility.yul\":14852:14858   */\n      dup3\n        /* \"#utility.yul\":14841:14850   */\n      dup9\n        /* \"#utility.yul\":14837:14859   */\n      add\n        /* \"#utility.yul\":14795:14869   */\n      tag_101\n      jump\t// in\n    tag_254:\n        /* \"#utility.yul\":14785:14869   */\n      swap3\n      pop\n        /* \"#utility.yul\":14587:14879   */\n      pop\n        /* \"#utility.yul\":14918:14920   */\n      0x60\n        /* \"#utility.yul\":14944:15008   */\n      tag_255\n        /* \"#utility.yul\":15000:15007   */\n      dup8\n        /* \"#utility.yul\":14991:14997   */\n      dup3\n        /* \"#utility.yul\":14980:14989   */\n      dup9\n        /* \"#utility.yul\":14976:14998   */\n      add\n        /* \"#utility.yul\":14944:15008   */\n      tag_98\n      jump\t// in\n    tag_255:\n        /* \"#utility.yul\":14934:15008   */\n      swap2\n      pop\n        /* \"#utility.yul\":14889:15018   */\n      pop\n        /* \"#utility.yul\":14032:15025   */\n      swap3\n      swap6\n      swap2\n      swap5\n      pop\n      swap3\n      pop\n      jump\t// out\n        /* \"#utility.yul\":15031:15212   */\n    tag_102:\n        /* \"#utility.yul\":15171:15204   */\n      0x41646472657373206973206e6f7420746865206f7267616e697a6174696f6e00\n        /* \"#utility.yul\":15167:15168   */\n      0x00\n        /* \"#utility.yul\":15159:15165   */\n      dup3\n        /* \"#utility.yul\":15155:15169   */\n      add\n        /* \"#utility.yul\":15148:15205   */\n      mstore\n        /* \"#utility.yul\":15031:15212   */\n      pop\n      jump\t// out\n        /* \"#utility.yul\":15218:15584   */\n    tag_103:\n        /* \"#utility.yul\":15360:15363   */\n      0x00\n        /* \"#utility.yul\":15381:15448   */\n      tag_258\n        /* \"#utility.yul\":15445:15447   */\n      0x1f\n        /* \"#utility.yul\":15440:15443   */\n      dup4\n        /* \"#utility.yul\":15381:15448   */\n      tag_86\n      jump\t// in\n    tag_258:\n        /* \"#utility.yul\":15374:15448   */\n      swap2\n      pop\n        /* \"#utility.yul\":15457:15550   */\n      tag_259\n        /* \"#utility.yul\":15546:15549   */\n      dup3\n        /* \"#utility.yul\":15457:15550   */\n      tag_102\n      jump\t// in\n    tag_259:\n        /* \"#utility.yul\":15575:15577   */\n      0x20\n        /* \"#utility.yul\":15570:15573   */\n      dup3\n        /* \"#utility.yul\":15566:15578   */\n      add\n        /* \"#utility.yul\":15559:15578   */\n      swap1\n      pop\n        /* \"#utility.yul\":15218:15584   */\n      swap2\n      swap1\n      pop\n      jump\t// out\n        /* \"#utility.yul\":15590:16009   */\n    tag_62:\n        /* \"#utility.yul\":15756:15760   */\n      0x00\n        /* \"#utility.yul\":15794:15796   */\n      0x20\n        /* \"#utility.yul\":15783:15792   */\n      dup3\n        /* \"#utility.yul\":15779:15797   */\n      add\n        /* \"#utility.yul\":15771:15797   */\n      swap1\n      pop\n        /* \"#utility.yul\":15843:15852   */\n      dup2\n        /* \"#utility.yul\":15837:15841   */\n      dup2\n        /* \"#utility.yul\":15833:15853   */\n      sub\n        /* \"#utility.yul\":15829:15830   */\n      0x00\n        /* \"#utility.yul\":15818:15827   */\n      dup4\n        /* \"#utility.yul\":15814:15831   */\n      add\n        /* \"#utility.yul\":15807:15854   */\n      mstore\n        /* \"#utility.yul\":15871:16002   */\n      tag_261\n        /* \"#utility.yul\":15997:16001   */\n      dup2\n        /* \"#utility.yul\":15871:16002   */\n      tag_103\n      jump\t// in\n    tag_261:\n        /* \"#utility.yul\":15863:16002   */\n      swap1\n      pop\n        /* \"#utility.yul\":15590:16009   */\n      swap2\n      swap1\n      pop\n      jump\t// out\n\n    auxdata: 0xa26469706673582212206d318feddec2c4add939f9fc56a511f2e67f61e4c71e3c0449479c039b2674d664736f6c63430008160033\n}\n",
				"bytecode": {
					"linkReferences": {},
					"object": "608060405234801561000f575f80fd5b50604051610fa1380380610fa183398181016040528101906100319190610114565b805f806101000a81548173ffffffffffffffffffffffffffffffffffffffff021916908373ffffffffffffffffffffffffffffffffffffffff1602179055503360015f6101000a81548173ffffffffffffffffffffffffffffffffffffffff021916908373ffffffffffffffffffffffffffffffffffffffff1602179055505061013f565b5f80fd5b5f73ffffffffffffffffffffffffffffffffffffffff82169050919050565b5f6100e3826100ba565b9050919050565b6100f3816100d9565b81146100fd575f80fd5b50565b5f8151905061010e816100ea565b92915050565b5f60208284031215610129576101286100b6565b5b5f61013684828501610100565b91505092915050565b610e558061014c5f395ff3fe608060405234801561000f575f80fd5b506004361061004a575f3560e01c8063332d30f91461004e5780637dfdd6711461006a578063be60b0b814610086578063e6555c2b146100b9575b5f80fd5b61006860048036038101906100639190610663565b6100d5565b005b610084600480360381019061007f9190610837565b610296565b005b6100a0600480360381019061009b91906108a3565b61040a565b6040516100b09493929190610966565b60405180910390f35b6100d360048036038101906100ce91906109b0565b61054e565b005b5f33905060015f9054906101000a900473ffffffffffffffffffffffffffffffffffffffff1673ffffffffffffffffffffffffffffffffffffffff168173ffffffffffffffffffffffffffffffffffffffff1614610168576040517f08c379a000000000000000000000000000000000000000000000000000000000815260040161015f90610a25565b60405180910390fd5b5f8054906101000a900473ffffffffffffffffffffffffffffffffffffffff1673ffffffffffffffffffffffffffffffffffffffff166331f4cbbd8285856040518463ffffffff1660e01b81526004016101c493929190610a43565b6020604051808303815f875af11580156101e0573d5f803e3d5ffd5b505050506040513d601f19601f820116820180604052508101906102049190610aad565b610243576040517f08c379a000000000000000000000000000000000000000000000000000000000815260040161023a90610b6e565b60405180910390fd5b8073ffffffffffffffffffffffffffffffffffffffff167f0ece5c3a12f10f15cec8bd7aabeba120bfebd29a791c547268c53dcf0606957c836040516102899190610b8c565b60405180910390a2505050565b5f33905060015f9054906101000a900473ffffffffffffffffffffffffffffffffffffffff1673ffffffffffffffffffffffffffffffffffffffff168173ffffffffffffffffffffffffffffffffffffffff1603610329576040517f08c379a000000000000000000000000000000000000000000000000000000000815260040161032090610a25565b60405180910390fd5b5f8054906101000a900473ffffffffffffffffffffffffffffffffffffffff1673ffffffffffffffffffffffffffffffffffffffff166399c6526e828686866040518563ffffffff1660e01b81526004016103879493929190610ba5565b5f604051808303815f87803b15801561039e575f80fd5b505af11580156103b0573d5f803e3d5ffd5b505050508073ffffffffffffffffffffffffffffffffffffffff167fb2ae84acced38cd0a366d81cd1b7b74e4829280bdf85345f1749e9151b84241084846040516103fc929190610c39565b60405180910390a250505050565b5f8060605f8033905060015f9054906101000a900473ffffffffffffffffffffffffffffffffffffffff1673ffffffffffffffffffffffffffffffffffffffff168173ffffffffffffffffffffffffffffffffffffffff16146104a2576040517f08c379a000000000000000000000000000000000000000000000000000000000815260040161049990610a25565b60405180910390fd5b5f8054906101000a900473ffffffffffffffffffffffffffffffffffffffff1673ffffffffffffffffffffffffffffffffffffffff1663ce4fcf2382886040518363ffffffff1660e01b81526004016104fc929190610c7a565b5f60405180830381865afa158015610516573d5f803e3d5ffd5b505050506040513d5f823e3d601f19601f8201168201806040525081019061053e9190610d37565b9450945094509450509193509193565b60015f9054906101000a900473ffffffffffffffffffffffffffffffffffffffff1673ffffffffffffffffffffffffffffffffffffffff163373ffffffffffffffffffffffffffffffffffffffff16146105dd576040517f08c379a00000000000000000000000000000000000000000000000000000000081526004016105d490610e01565b60405180910390fd5b805f806101000a81548173ffffffffffffffffffffffffffffffffffffffff021916908373ffffffffffffffffffffffffffffffffffffffff16021790555050565b5f604051905090565b5f80fd5b5f80fd5b5f819050919050565b61064281610630565b811461064c575f80fd5b50565b5f8135905061065d81610639565b92915050565b5f806040838503121561067957610678610628565b5b5f6106868582860161064f565b92505060206106978582860161064f565b9150509250929050565b5f73ffffffffffffffffffffffffffffffffffffffff82169050919050565b5f6106ca826106a1565b9050919050565b6106da816106c0565b81146106e4575f80fd5b50565b5f813590506106f5816106d1565b92915050565b5f80fd5b5f80fd5b5f601f19601f8301169050919050565b7f4e487b71000000000000000000000000000000000000000000000000000000005f52604160045260245ffd5b61074982610703565b810181811067ffffffffffffffff8211171561076857610767610713565b5b80604052505050565b5f61077a61061f565b90506107868282610740565b919050565b5f67ffffffffffffffff8211156107a5576107a4610713565b5b6107ae82610703565b9050602081019050919050565b828183375f83830152505050565b5f6107db6107d68461078b565b610771565b9050828152602081018484840111156107f7576107f66106ff565b5b6108028482856107bb565b509392505050565b5f82601f83011261081e5761081d6106fb565b5b813561082e8482602086016107c9565b91505092915050565b5f805f6060848603121561084e5761084d610628565b5b5f61085b868287016106e7565b935050602084013567ffffffffffffffff81111561087c5761087b61062c565b5b6108888682870161080a565b92505060406108998682870161064f565b9150509250925092565b5f602082840312156108b8576108b7610628565b5b5f6108c58482850161064f565b91505092915050565b6108d781610630565b82525050565b6108e6816106c0565b82525050565b5f81519050919050565b5f82825260208201905092915050565b5f5b83811015610923578082015181840152602081019050610908565b5f8484015250505050565b5f610938826108ec565b61094281856108f6565b9350610952818560208601610906565b61095b81610703565b840191505092915050565b5f6080820190506109795f8301876108ce565b61098660208301866108dd565b8181036040830152610998818561092e565b90506109a760608301846108ce565b95945050505050565b5f602082840312156109c5576109c4610628565b5b5f6109d2848285016106e7565b91505092915050565b7f41646472657373206e6f6e2056616c69646f21000000000000000000000000005f82015250565b5f610a0f6013836108f6565b9150610a1a826109db565b602082019050919050565b5f6020820190508181035f830152610a3c81610a03565b9050919050565b5f606082019050610a565f8301866108dd565b610a6360208301856108ce565b610a7060408301846108ce565b949350505050565b5f8115159050919050565b610a8c81610a78565b8114610a96575f80fd5b50565b5f81519050610aa781610a83565b92915050565b5f60208284031215610ac257610ac1610628565b5b5f610acf84828501610a99565b91505092915050565b7f4572726f726520647572616e7465206c61206d6f6469666963612064656c6c615f8201527f207175616e7469746127206469206c61747465206e656c6c612050617274697460208201527f612064656c204c61747465000000000000000000000000000000000000000000604082015250565b5f610b58604b836108f6565b9150610b6382610ad8565b606082019050919050565b5f6020820190508181035f830152610b8581610b4c565b9050919050565b5f602082019050610b9f5f8301846108ce565b92915050565b5f608082019050610bb85f8301876108dd565b610bc560208301866108dd565b8181036040830152610bd7818561092e565b9050610be660608301846108ce565b95945050505050565b7f4d696c6b4261746368204163717569737461746f2100000000000000000000005f82015250565b5f610c236015836108f6565b9150610c2e82610bef565b602082019050919050565b5f6060820190508181035f830152610c5081610c17565b90508181036020830152610c64818561092e565b9050610c7360408301846108ce565b9392505050565b5f604082019050610c8d5f8301856108dd565b610c9a60208301846108ce565b9392505050565b5f81519050610caf81610639565b92915050565b5f81519050610cc3816106d1565b92915050565b5f610cdb610cd68461078b565b610771565b905082815260208101848484011115610cf757610cf66106ff565b5b610d02848285610906565b509392505050565b5f82601f830112610d1e57610d1d6106fb565b5b8151610d2e848260208601610cc9565b91505092915050565b5f805f8060808587031215610d4f57610d4e610628565b5b5f610d5c87828801610ca1565b9450506020610d6d87828801610cb5565b935050604085015167ffffffffffffffff811115610d8e57610d8d61062c565b5b610d9a87828801610d0a565b9250506060610dab87828801610ca1565b91505092959194509250565b7f41646472657373206973206e6f7420746865206f7267616e697a6174696f6e005f82015250565b5f610deb601f836108f6565b9150610df682610db7565b602082019050919050565b5f6020820190508181035f830152610e1881610ddf565b905091905056fea26469706673582212206d318feddec2c4add939f9fc56a511f2e67f61e4c71e3c0449479c039b2674d664736f6c63430008160033",
					"opcodes": "PUSH1 0x80 PUSH1 0x40 MSTORE CALLVALUE DUP1 ISZERO PUSH2 0xF JUMPI PUSH0 DUP1 REVERT JUMPDEST POP PUSH1 0x40 MLOAD PUSH2 0xFA1 CODESIZE SUB DUP1 PUSH2 0xFA1 DUP4 CODECOPY DUP2 DUP2 ADD PUSH1 0x40 MSTORE DUP2 ADD SWAP1 PUSH2 0x31 SWAP2 SWAP1 PUSH2 0x114 JUMP JUMPDEST DUP1 PUSH0 DUP1 PUSH2 0x100 EXP DUP2 SLOAD DUP2 PUSH20 0xFFFFFFFFFFFFFFFFFFFFFFFFFFFFFFFFFFFFFFFF MUL NOT AND SWAP1 DUP4 PUSH20 0xFFFFFFFFFFFFFFFFFFFFFFFFFFFFFFFFFFFFFFFF AND MUL OR SWAP1 SSTORE POP CALLER PUSH1 0x1 PUSH0 PUSH2 0x100 EXP DUP2 SLOAD DUP2 PUSH20 0xFFFFFFFFFFFFFFFFFFFFFFFFFFFFFFFFFFFFFFFF MUL NOT AND SWAP1 DUP4 PUSH20 0xFFFFFFFFFFFFFFFFFFFFFFFFFFFFFFFFFFFFFFFF AND MUL OR SWAP1 SSTORE POP POP PUSH2 0x13F JUMP JUMPDEST PUSH0 DUP1 REVERT JUMPDEST PUSH0 PUSH20 0xFFFFFFFFFFFFFFFFFFFFFFFFFFFFFFFFFFFFFFFF DUP3 AND SWAP1 POP SWAP2 SWAP1 POP JUMP JUMPDEST PUSH0 PUSH2 0xE3 DUP3 PUSH2 0xBA JUMP JUMPDEST SWAP1 POP SWAP2 SWAP1 POP JUMP JUMPDEST PUSH2 0xF3 DUP2 PUSH2 0xD9 JUMP JUMPDEST DUP2 EQ PUSH2 0xFD JUMPI PUSH0 DUP1 REVERT JUMPDEST POP JUMP JUMPDEST PUSH0 DUP2 MLOAD SWAP1 POP PUSH2 0x10E DUP2 PUSH2 0xEA JUMP JUMPDEST SWAP3 SWAP2 POP POP JUMP JUMPDEST PUSH0 PUSH1 0x20 DUP3 DUP5 SUB SLT ISZERO PUSH2 0x129 JUMPI PUSH2 0x128 PUSH2 0xB6 JUMP JUMPDEST JUMPDEST PUSH0 PUSH2 0x136 DUP5 DUP3 DUP6 ADD PUSH2 0x100 JUMP JUMPDEST SWAP2 POP POP SWAP3 SWAP2 POP POP JUMP JUMPDEST PUSH2 0xE55 DUP1 PUSH2 0x14C PUSH0 CODECOPY PUSH0 RETURN INVALID PUSH1 0x80 PUSH1 0x40 MSTORE CALLVALUE DUP1 ISZERO PUSH2 0xF JUMPI PUSH0 DUP1 REVERT JUMPDEST POP PUSH1 0x4 CALLDATASIZE LT PUSH2 0x4A JUMPI PUSH0 CALLDATALOAD PUSH1 0xE0 SHR DUP1 PUSH4 0x332D30F9 EQ PUSH2 0x4E JUMPI DUP1 PUSH4 0x7DFDD671 EQ PUSH2 0x6A JUMPI DUP1 PUSH4 0xBE60B0B8 EQ PUSH2 0x86 JUMPI DUP1 PUSH4 0xE6555C2B EQ PUSH2 0xB9 JUMPI JUMPDEST PUSH0 DUP1 REVERT JUMPDEST PUSH2 0x68 PUSH1 0x4 DUP1 CALLDATASIZE SUB DUP2 ADD SWAP1 PUSH2 0x63 SWAP2 SWAP1 PUSH2 0x663 JUMP JUMPDEST PUSH2 0xD5 JUMP JUMPDEST STOP JUMPDEST PUSH2 0x84 PUSH1 0x4 DUP1 CALLDATASIZE SUB DUP2 ADD SWAP1 PUSH2 0x7F SWAP2 SWAP1 PUSH2 0x837 JUMP JUMPDEST PUSH2 0x296 JUMP JUMPDEST STOP JUMPDEST PUSH2 0xA0 PUSH1 0x4 DUP1 CALLDATASIZE SUB DUP2 ADD SWAP1 PUSH2 0x9B SWAP2 SWAP1 PUSH2 0x8A3 JUMP JUMPDEST PUSH2 0x40A JUMP JUMPDEST PUSH1 0x40 MLOAD PUSH2 0xB0 SWAP5 SWAP4 SWAP3 SWAP2 SWAP1 PUSH2 0x966 JUMP JUMPDEST PUSH1 0x40 MLOAD DUP1 SWAP2 SUB SWAP1 RETURN JUMPDEST PUSH2 0xD3 PUSH1 0x4 DUP1 CALLDATASIZE SUB DUP2 ADD SWAP1 PUSH2 0xCE SWAP2 SWAP1 PUSH2 0x9B0 JUMP JUMPDEST PUSH2 0x54E JUMP JUMPDEST STOP JUMPDEST PUSH0 CALLER SWAP1 POP PUSH1 0x1 PUSH0 SWAP1 SLOAD SWAP1 PUSH2 0x100 EXP SWAP1 DIV PUSH20 0xFFFFFFFFFFFFFFFFFFFFFFFFFFFFFFFFFFFFFFFF AND PUSH20 0xFFFFFFFFFFFFFFFFFFFFFFFFFFFFFFFFFFFFFFFF AND DUP2 PUSH20 0xFFFFFFFFFFFFFFFFFFFFFFFFFFFFFFFFFFFFFFFF AND EQ PUSH2 0x168 JUMPI PUSH1 0x40 MLOAD PUSH32 0x8C379A000000000000000000000000000000000000000000000000000000000 DUP2 MSTORE PUSH1 0x4 ADD PUSH2 0x15F SWAP1 PUSH2 0xA25 JUMP JUMPDEST PUSH1 0x40 MLOAD DUP1 SWAP2 SUB SWAP1 REVERT JUMPDEST PUSH0 DUP1 SLOAD SWAP1 PUSH2 0x100 EXP SWAP1 DIV PUSH20 0xFFFFFFFFFFFFFFFFFFFFFFFFFFFFFFFFFFFFFFFF AND PUSH20 0xFFFFFFFFFFFFFFFFFFFFFFFFFFFFFFFFFFFFFFFF AND PUSH4 0x31F4CBBD DUP3 DUP6 DUP6 PUSH1 0x40 MLOAD DUP5 PUSH4 0xFFFFFFFF AND PUSH1 0xE0 SHL DUP2 MSTORE PUSH1 0x4 ADD PUSH2 0x1C4 SWAP4 SWAP3 SWAP2 SWAP1 PUSH2 0xA43 JUMP JUMPDEST PUSH1 0x20 PUSH1 0x40 MLOAD DUP1 DUP4 SUB DUP2 PUSH0 DUP8 GAS CALL ISZERO DUP1 ISZERO PUSH2 0x1E0 JUMPI RETURNDATASIZE PUSH0 DUP1 RETURNDATACOPY RETURNDATASIZE PUSH0 REVERT JUMPDEST POP POP POP POP PUSH1 0x40 MLOAD RETURNDATASIZE PUSH1 0x1F NOT PUSH1 0x1F DUP3 ADD AND DUP3 ADD DUP1 PUSH1 0x40 MSTORE POP DUP2 ADD SWAP1 PUSH2 0x204 SWAP2 SWAP1 PUSH2 0xAAD JUMP JUMPDEST PUSH2 0x243 JUMPI PUSH1 0x40 MLOAD PUSH32 0x8C379A000000000000000000000000000000000000000000000000000000000 DUP2 MSTORE PUSH1 0x4 ADD PUSH2 0x23A SWAP1 PUSH2 0xB6E JUMP JUMPDEST PUSH1 0x40 MLOAD DUP1 SWAP2 SUB SWAP1 REVERT JUMPDEST DUP1 PUSH20 0xFFFFFFFFFFFFFFFFFFFFFFFFFFFFFFFFFFFFFFFF AND PUSH32 0xECE5C3A12F10F15CEC8BD7AABEBA120BFEBD29A791C547268C53DCF0606957C DUP4 PUSH1 0x40 MLOAD PUSH2 0x289 SWAP2 SWAP1 PUSH2 0xB8C JUMP JUMPDEST PUSH1 0x40 MLOAD DUP1 SWAP2 SUB SWAP1 LOG2 POP POP POP JUMP JUMPDEST PUSH0 CALLER SWAP1 POP PUSH1 0x1 PUSH0 SWAP1 SLOAD SWAP1 PUSH2 0x100 EXP SWAP1 DIV PUSH20 0xFFFFFFFFFFFFFFFFFFFFFFFFFFFFFFFFFFFFFFFF AND PUSH20 0xFFFFFFFFFFFFFFFFFFFFFFFFFFFFFFFFFFFFFFFF AND DUP2 PUSH20 0xFFFFFFFFFFFFFFFFFFFFFFFFFFFFFFFFFFFFFFFF AND SUB PUSH2 0x329 JUMPI PUSH1 0x40 MLOAD PUSH32 0x8C379A000000000000000000000000000000000000000000000000000000000 DUP2 MSTORE PUSH1 0x4 ADD PUSH2 0x320 SWAP1 PUSH2 0xA25 JUMP JUMPDEST PUSH1 0x40 MLOAD DUP1 SWAP2 SUB SWAP1 REVERT JUMPDEST PUSH0 DUP1 SLOAD SWAP1 PUSH2 0x100 EXP SWAP1 DIV PUSH20 0xFFFFFFFFFFFFFFFFFFFFFFFFFFFFFFFFFFFFFFFF AND PUSH20 0xFFFFFFFFFFFFFFFFFFFFFFFFFFFFFFFFFFFFFFFF AND PUSH4 0x99C6526E DUP3 DUP7 DUP7 DUP7 PUSH1 0x40 MLOAD DUP6 PUSH4 0xFFFFFFFF AND PUSH1 0xE0 SHL DUP2 MSTORE PUSH1 0x4 ADD PUSH2 0x387 SWAP5 SWAP4 SWAP3 SWAP2 SWAP1 PUSH2 0xBA5 JUMP JUMPDEST PUSH0 PUSH1 0x40 MLOAD DUP1 DUP4 SUB DUP2 PUSH0 DUP8 DUP1 EXTCODESIZE ISZERO DUP1 ISZERO PUSH2 0x39E JUMPI PUSH0 DUP1 REVERT JUMPDEST POP GAS CALL ISZERO DUP1 ISZERO PUSH2 0x3B0 JUMPI RETURNDATASIZE PUSH0 DUP1 RETURNDATACOPY RETURNDATASIZE PUSH0 REVERT JUMPDEST POP POP POP POP DUP1 PUSH20 0xFFFFFFFFFFFFFFFFFFFFFFFFFFFFFFFFFFFFFFFF AND PUSH32 0xB2AE84ACCED38CD0A366D81CD1B7B74E4829280BDF85345F1749E9151B842410 DUP5 DUP5 PUSH1 0x40 MLOAD PUSH2 0x3FC SWAP3 SWAP2 SWAP1 PUSH2 0xC39 JUMP JUMPDEST PUSH1 0x40 MLOAD DUP1 SWAP2 SUB SWAP1 LOG2 POP POP POP POP JUMP JUMPDEST PUSH0 DUP1 PUSH1 0x60 PUSH0 DUP1 CALLER SWAP1 POP PUSH1 0x1 PUSH0 SWAP1 SLOAD SWAP1 PUSH2 0x100 EXP SWAP1 DIV PUSH20 0xFFFFFFFFFFFFFFFFFFFFFFFFFFFFFFFFFFFFFFFF AND PUSH20 0xFFFFFFFFFFFFFFFFFFFFFFFFFFFFFFFFFFFFFFFF AND DUP2 PUSH20 0xFFFFFFFFFFFFFFFFFFFFFFFFFFFFFFFFFFFFFFFF AND EQ PUSH2 0x4A2 JUMPI PUSH1 0x40 MLOAD PUSH32 0x8C379A000000000000000000000000000000000000000000000000000000000 DUP2 MSTORE PUSH1 0x4 ADD PUSH2 0x499 SWAP1 PUSH2 0xA25 JUMP JUMPDEST PUSH1 0x40 MLOAD DUP1 SWAP2 SUB SWAP1 REVERT JUMPDEST PUSH0 DUP1 SLOAD SWAP1 PUSH2 0x100 EXP SWAP1 DIV PUSH20 0xFFFFFFFFFFFFFFFFFFFFFFFFFFFFFFFFFFFFFFFF AND PUSH20 0xFFFFFFFFFFFFFFFFFFFFFFFFFFFFFFFFFFFFFFFF AND PUSH4 0xCE4FCF23 DUP3 DUP9 PUSH1 0x40 MLOAD DUP4 PUSH4 0xFFFFFFFF AND PUSH1 0xE0 SHL DUP2 MSTORE PUSH1 0x4 ADD PUSH2 0x4FC SWAP3 SWAP2 SWAP1 PUSH2 0xC7A JUMP JUMPDEST PUSH0 PUSH1 0x40 MLOAD DUP1 DUP4 SUB DUP2 DUP7 GAS STATICCALL ISZERO DUP1 ISZERO PUSH2 0x516 JUMPI RETURNDATASIZE PUSH0 DUP1 RETURNDATACOPY RETURNDATASIZE PUSH0 REVERT JUMPDEST POP POP POP POP PUSH1 0x40 MLOAD RETURNDATASIZE PUSH0 DUP3 RETURNDATACOPY RETURNDATASIZE PUSH1 0x1F NOT PUSH1 0x1F DUP3 ADD AND DUP3 ADD DUP1 PUSH1 0x40 MSTORE POP DUP2 ADD SWAP1 PUSH2 0x53E SWAP2 SWAP1 PUSH2 0xD37 JUMP JUMPDEST SWAP5 POP SWAP5 POP SWAP5 POP SWAP5 POP POP SWAP2 SWAP4 POP SWAP2 SWAP4 JUMP JUMPDEST PUSH1 0x1 PUSH0 SWAP1 SLOAD SWAP1 PUSH2 0x100 EXP SWAP1 DIV PUSH20 0xFFFFFFFFFFFFFFFFFFFFFFFFFFFFFFFFFFFFFFFF AND PUSH20 0xFFFFFFFFFFFFFFFFFFFFFFFFFFFFFFFFFFFFFFFF AND CALLER PUSH20 0xFFFFFFFFFFFFFFFFFFFFFFFFFFFFFFFFFFFFFFFF AND EQ PUSH2 0x5DD JUMPI PUSH1 0x40 MLOAD PUSH32 0x8C379A000000000000000000000000000000000000000000000000000000000 DUP2 MSTORE PUSH1 0x4 ADD PUSH2 0x5D4 SWAP1 PUSH2 0xE01 JUMP JUMPDEST PUSH1 0x40 MLOAD DUP1 SWAP2 SUB SWAP1 REVERT JUMPDEST DUP1 PUSH0 DUP1 PUSH2 0x100 EXP DUP2 SLOAD DUP2 PUSH20 0xFFFFFFFFFFFFFFFFFFFFFFFFFFFFFFFFFFFFFFFF MUL NOT AND SWAP1 DUP4 PUSH20 0xFFFFFFFFFFFFFFFFFFFFFFFFFFFFFFFFFFFFFFFF AND MUL OR SWAP1 SSTORE POP POP JUMP JUMPDEST PUSH0 PUSH1 0x40 MLOAD SWAP1 POP SWAP1 JUMP JUMPDEST PUSH0 DUP1 REVERT JUMPDEST PUSH0 DUP1 REVERT JUMPDEST PUSH0 DUP2 SWAP1 POP SWAP2 SWAP1 POP JUMP JUMPDEST PUSH2 0x642 DUP2 PUSH2 0x630 JUMP JUMPDEST DUP2 EQ PUSH2 0x64C JUMPI PUSH0 DUP1 REVERT JUMPDEST POP JUMP JUMPDEST PUSH0 DUP2 CALLDATALOAD SWAP1 POP PUSH2 0x65D DUP2 PUSH2 0x639 JUMP JUMPDEST SWAP3 SWAP2 POP POP JUMP JUMPDEST PUSH0 DUP1 PUSH1 0x40 DUP4 DUP6 SUB SLT ISZERO PUSH2 0x679 JUMPI PUSH2 0x678 PUSH2 0x628 JUMP JUMPDEST JUMPDEST PUSH0 PUSH2 0x686 DUP6 DUP3 DUP7 ADD PUSH2 0x64F JUMP JUMPDEST SWAP3 POP POP PUSH1 0x20 PUSH2 0x697 DUP6 DUP3 DUP7 ADD PUSH2 0x64F JUMP JUMPDEST SWAP2 POP POP SWAP3 POP SWAP3 SWAP1 POP JUMP JUMPDEST PUSH0 PUSH20 0xFFFFFFFFFFFFFFFFFFFFFFFFFFFFFFFFFFFFFFFF DUP3 AND SWAP1 POP SWAP2 SWAP1 POP JUMP JUMPDEST PUSH0 PUSH2 0x6CA DUP3 PUSH2 0x6A1 JUMP JUMPDEST SWAP1 POP SWAP2 SWAP1 POP JUMP JUMPDEST PUSH2 0x6DA DUP2 PUSH2 0x6C0 JUMP JUMPDEST DUP2 EQ PUSH2 0x6E4 JUMPI PUSH0 DUP1 REVERT JUMPDEST POP JUMP JUMPDEST PUSH0 DUP2 CALLDATALOAD SWAP1 POP PUSH2 0x6F5 DUP2 PUSH2 0x6D1 JUMP JUMPDEST SWAP3 SWAP2 POP POP JUMP JUMPDEST PUSH0 DUP1 REVERT JUMPDEST PUSH0 DUP1 REVERT JUMPDEST PUSH0 PUSH1 0x1F NOT PUSH1 0x1F DUP4 ADD AND SWAP1 POP SWAP2 SWAP1 POP JUMP JUMPDEST PUSH32 0x4E487B7100000000000000000000000000000000000000000000000000000000 PUSH0 MSTORE PUSH1 0x41 PUSH1 0x4 MSTORE PUSH1 0x24 PUSH0 REVERT JUMPDEST PUSH2 0x749 DUP3 PUSH2 0x703 JUMP JUMPDEST DUP2 ADD DUP2 DUP2 LT PUSH8 0xFFFFFFFFFFFFFFFF DUP3 GT OR ISZERO PUSH2 0x768 JUMPI PUSH2 0x767 PUSH2 0x713 JUMP JUMPDEST JUMPDEST DUP1 PUSH1 0x40 MSTORE POP POP POP JUMP JUMPDEST PUSH0 PUSH2 0x77A PUSH2 0x61F JUMP JUMPDEST SWAP1 POP PUSH2 0x786 DUP3 DUP3 PUSH2 0x740 JUMP JUMPDEST SWAP2 SWAP1 POP JUMP JUMPDEST PUSH0 PUSH8 0xFFFFFFFFFFFFFFFF DUP3 GT ISZERO PUSH2 0x7A5 JUMPI PUSH2 0x7A4 PUSH2 0x713 JUMP JUMPDEST JUMPDEST PUSH2 0x7AE DUP3 PUSH2 0x703 JUMP JUMPDEST SWAP1 POP PUSH1 0x20 DUP2 ADD SWAP1 POP SWAP2 SWAP1 POP JUMP JUMPDEST DUP3 DUP2 DUP4 CALLDATACOPY PUSH0 DUP4 DUP4 ADD MSTORE POP POP POP JUMP JUMPDEST PUSH0 PUSH2 0x7DB PUSH2 0x7D6 DUP5 PUSH2 0x78B JUMP JUMPDEST PUSH2 0x771 JUMP JUMPDEST SWAP1 POP DUP3 DUP2 MSTORE PUSH1 0x20 DUP2 ADD DUP5 DUP5 DUP5 ADD GT ISZERO PUSH2 0x7F7 JUMPI PUSH2 0x7F6 PUSH2 0x6FF JUMP JUMPDEST JUMPDEST PUSH2 0x802 DUP5 DUP3 DUP6 PUSH2 0x7BB JUMP JUMPDEST POP SWAP4 SWAP3 POP POP POP JUMP JUMPDEST PUSH0 DUP3 PUSH1 0x1F DUP4 ADD SLT PUSH2 0x81E JUMPI PUSH2 0x81D PUSH2 0x6FB JUMP JUMPDEST JUMPDEST DUP2 CALLDATALOAD PUSH2 0x82E DUP5 DUP3 PUSH1 0x20 DUP7 ADD PUSH2 0x7C9 JUMP JUMPDEST SWAP2 POP POP SWAP3 SWAP2 POP POP JUMP JUMPDEST PUSH0 DUP1 PUSH0 PUSH1 0x60 DUP5 DUP7 SUB SLT ISZERO PUSH2 0x84E JUMPI PUSH2 0x84D PUSH2 0x628 JUMP JUMPDEST JUMPDEST PUSH0 PUSH2 0x85B DUP7 DUP3 DUP8 ADD PUSH2 0x6E7 JUMP JUMPDEST SWAP4 POP POP PUSH1 0x20 DUP5 ADD CALLDATALOAD PUSH8 0xFFFFFFFFFFFFFFFF DUP2 GT ISZERO PUSH2 0x87C JUMPI PUSH2 0x87B PUSH2 0x62C JUMP JUMPDEST JUMPDEST PUSH2 0x888 DUP7 DUP3 DUP8 ADD PUSH2 0x80A JUMP JUMPDEST SWAP3 POP POP PUSH1 0x40 PUSH2 0x899 DUP7 DUP3 DUP8 ADD PUSH2 0x64F JUMP JUMPDEST SWAP2 POP POP SWAP3 POP SWAP3 POP SWAP3 JUMP JUMPDEST PUSH0 PUSH1 0x20 DUP3 DUP5 SUB SLT ISZERO PUSH2 0x8B8 JUMPI PUSH2 0x8B7 PUSH2 0x628 JUMP JUMPDEST JUMPDEST PUSH0 PUSH2 0x8C5 DUP5 DUP3 DUP6 ADD PUSH2 0x64F JUMP JUMPDEST SWAP2 POP POP SWAP3 SWAP2 POP POP JUMP JUMPDEST PUSH2 0x8D7 DUP2 PUSH2 0x630 JUMP JUMPDEST DUP3 MSTORE POP POP JUMP JUMPDEST PUSH2 0x8E6 DUP2 PUSH2 0x6C0 JUMP JUMPDEST DUP3 MSTORE POP POP JUMP JUMPDEST PUSH0 DUP2 MLOAD SWAP1 POP SWAP2 SWAP1 POP JUMP JUMPDEST PUSH0 DUP3 DUP3 MSTORE PUSH1 0x20 DUP3 ADD SWAP1 POP SWAP3 SWAP2 POP POP JUMP JUMPDEST PUSH0 JUMPDEST DUP4 DUP2 LT ISZERO PUSH2 0x923 JUMPI DUP1 DUP3 ADD MLOAD DUP2 DUP5 ADD MSTORE PUSH1 0x20 DUP2 ADD SWAP1 POP PUSH2 0x908 JUMP JUMPDEST PUSH0 DUP5 DUP5 ADD MSTORE POP POP POP POP JUMP JUMPDEST PUSH0 PUSH2 0x938 DUP3 PUSH2 0x8EC JUMP JUMPDEST PUSH2 0x942 DUP2 DUP6 PUSH2 0x8F6 JUMP JUMPDEST SWAP4 POP PUSH2 0x952 DUP2 DUP6 PUSH1 0x20 DUP7 ADD PUSH2 0x906 JUMP JUMPDEST PUSH2 0x95B DUP2 PUSH2 0x703 JUMP JUMPDEST DUP5 ADD SWAP2 POP POP SWAP3 SWAP2 POP POP JUMP JUMPDEST PUSH0 PUSH1 0x80 DUP3 ADD SWAP1 POP PUSH2 0x979 PUSH0 DUP4 ADD DUP8 PUSH2 0x8CE JUMP JUMPDEST PUSH2 0x986 PUSH1 0x20 DUP4 ADD DUP7 PUSH2 0x8DD JUMP JUMPDEST DUP2 DUP2 SUB PUSH1 0x40 DUP4 ADD MSTORE PUSH2 0x998 DUP2 DUP6 PUSH2 0x92E JUMP JUMPDEST SWAP1 POP PUSH2 0x9A7 PUSH1 0x60 DUP4 ADD DUP5 PUSH2 0x8CE JUMP JUMPDEST SWAP6 SWAP5 POP POP POP POP POP JUMP JUMPDEST PUSH0 PUSH1 0x20 DUP3 DUP5 SUB SLT ISZERO PUSH2 0x9C5 JUMPI PUSH2 0x9C4 PUSH2 0x628 JUMP JUMPDEST JUMPDEST PUSH0 PUSH2 0x9D2 DUP5 DUP3 DUP6 ADD PUSH2 0x6E7 JUMP JUMPDEST SWAP2 POP POP SWAP3 SWAP2 POP POP JUMP JUMPDEST PUSH32 0x41646472657373206E6F6E2056616C69646F2100000000000000000000000000 PUSH0 DUP3 ADD MSTORE POP JUMP JUMPDEST PUSH0 PUSH2 0xA0F PUSH1 0x13 DUP4 PUSH2 0x8F6 JUMP JUMPDEST SWAP2 POP PUSH2 0xA1A DUP3 PUSH2 0x9DB JUMP JUMPDEST PUSH1 0x20 DUP3 ADD SWAP1 POP SWAP2 SWAP1 POP JUMP JUMPDEST PUSH0 PUSH1 0x20 DUP3 ADD SWAP1 POP DUP2 DUP2 SUB PUSH0 DUP4 ADD MSTORE PUSH2 0xA3C DUP2 PUSH2 0xA03 JUMP JUMPDEST SWAP1 POP SWAP2 SWAP1 POP JUMP JUMPDEST PUSH0 PUSH1 0x60 DUP3 ADD SWAP1 POP PUSH2 0xA56 PUSH0 DUP4 ADD DUP7 PUSH2 0x8DD JUMP JUMPDEST PUSH2 0xA63 PUSH1 0x20 DUP4 ADD DUP6 PUSH2 0x8CE JUMP JUMPDEST PUSH2 0xA70 PUSH1 0x40 DUP4 ADD DUP5 PUSH2 0x8CE JUMP JUMPDEST SWAP5 SWAP4 POP POP POP POP JUMP JUMPDEST PUSH0 DUP2 ISZERO ISZERO SWAP1 POP SWAP2 SWAP1 POP JUMP JUMPDEST PUSH2 0xA8C DUP2 PUSH2 0xA78 JUMP JUMPDEST DUP2 EQ PUSH2 0xA96 JUMPI PUSH0 DUP1 REVERT JUMPDEST POP JUMP JUMPDEST PUSH0 DUP2 MLOAD SWAP1 POP PUSH2 0xAA7 DUP2 PUSH2 0xA83 JUMP JUMPDEST SWAP3 SWAP2 POP POP JUMP JUMPDEST PUSH0 PUSH1 0x20 DUP3 DUP5 SUB SLT ISZERO PUSH2 0xAC2 JUMPI PUSH2 0xAC1 PUSH2 0x628 JUMP JUMPDEST JUMPDEST PUSH0 PUSH2 0xACF DUP5 DUP3 DUP6 ADD PUSH2 0xA99 JUMP JUMPDEST SWAP2 POP POP SWAP3 SWAP2 POP POP JUMP JUMPDEST PUSH32 0x4572726F726520647572616E7465206C61206D6F6469666963612064656C6C61 PUSH0 DUP3 ADD MSTORE PUSH32 0x207175616E7469746127206469206C61747465206E656C6C6120506172746974 PUSH1 0x20 DUP3 ADD MSTORE PUSH32 0x612064656C204C61747465000000000000000000000000000000000000000000 PUSH1 0x40 DUP3 ADD MSTORE POP JUMP JUMPDEST PUSH0 PUSH2 0xB58 PUSH1 0x4B DUP4 PUSH2 0x8F6 JUMP JUMPDEST SWAP2 POP PUSH2 0xB63 DUP3 PUSH2 0xAD8 JUMP JUMPDEST PUSH1 0x60 DUP3 ADD SWAP1 POP SWAP2 SWAP1 POP JUMP JUMPDEST PUSH0 PUSH1 0x20 DUP3 ADD SWAP1 POP DUP2 DUP2 SUB PUSH0 DUP4 ADD MSTORE PUSH2 0xB85 DUP2 PUSH2 0xB4C JUMP JUMPDEST SWAP1 POP SWAP2 SWAP1 POP JUMP JUMPDEST PUSH0 PUSH1 0x20 DUP3 ADD SWAP1 POP PUSH2 0xB9F PUSH0 DUP4 ADD DUP5 PUSH2 0x8CE JUMP JUMPDEST SWAP3 SWAP2 POP POP JUMP JUMPDEST PUSH0 PUSH1 0x80 DUP3 ADD SWAP1 POP PUSH2 0xBB8 PUSH0 DUP4 ADD DUP8 PUSH2 0x8DD JUMP JUMPDEST PUSH2 0xBC5 PUSH1 0x20 DUP4 ADD DUP7 PUSH2 0x8DD JUMP JUMPDEST DUP2 DUP2 SUB PUSH1 0x40 DUP4 ADD MSTORE PUSH2 0xBD7 DUP2 DUP6 PUSH2 0x92E JUMP JUMPDEST SWAP1 POP PUSH2 0xBE6 PUSH1 0x60 DUP4 ADD DUP5 PUSH2 0x8CE JUMP JUMPDEST SWAP6 SWAP5 POP POP POP POP POP JUMP JUMPDEST PUSH32 0x4D696C6B4261746368204163717569737461746F210000000000000000000000 PUSH0 DUP3 ADD MSTORE POP JUMP JUMPDEST PUSH0 PUSH2 0xC23 PUSH1 0x15 DUP4 PUSH2 0x8F6 JUMP JUMPDEST SWAP2 POP PUSH2 0xC2E DUP3 PUSH2 0xBEF JUMP JUMPDEST PUSH1 0x20 DUP3 ADD SWAP1 POP SWAP2 SWAP1 POP JUMP JUMPDEST PUSH0 PUSH1 0x60 DUP3 ADD SWAP1 POP DUP2 DUP2 SUB PUSH0 DUP4 ADD MSTORE PUSH2 0xC50 DUP2 PUSH2 0xC17 JUMP JUMPDEST SWAP1 POP DUP2 DUP2 SUB PUSH1 0x20 DUP4 ADD MSTORE PUSH2 0xC64 DUP2 DUP6 PUSH2 0x92E JUMP JUMPDEST SWAP1 POP PUSH2 0xC73 PUSH1 0x40 DUP4 ADD DUP5 PUSH2 0x8CE JUMP JUMPDEST SWAP4 SWAP3 POP POP POP JUMP JUMPDEST PUSH0 PUSH1 0x40 DUP3 ADD SWAP1 POP PUSH2 0xC8D PUSH0 DUP4 ADD DUP6 PUSH2 0x8DD JUMP JUMPDEST PUSH2 0xC9A PUSH1 0x20 DUP4 ADD DUP5 PUSH2 0x8CE JUMP JUMPDEST SWAP4 SWAP3 POP POP POP JUMP JUMPDEST PUSH0 DUP2 MLOAD SWAP1 POP PUSH2 0xCAF DUP2 PUSH2 0x639 JUMP JUMPDEST SWAP3 SWAP2 POP POP JUMP JUMPDEST PUSH0 DUP2 MLOAD SWAP1 POP PUSH2 0xCC3 DUP2 PUSH2 0x6D1 JUMP JUMPDEST SWAP3 SWAP2 POP POP JUMP JUMPDEST PUSH0 PUSH2 0xCDB PUSH2 0xCD6 DUP5 PUSH2 0x78B JUMP JUMPDEST PUSH2 0x771 JUMP JUMPDEST SWAP1 POP DUP3 DUP2 MSTORE PUSH1 0x20 DUP2 ADD DUP5 DUP5 DUP5 ADD GT ISZERO PUSH2 0xCF7 JUMPI PUSH2 0xCF6 PUSH2 0x6FF JUMP JUMPDEST JUMPDEST PUSH2 0xD02 DUP5 DUP3 DUP6 PUSH2 0x906 JUMP JUMPDEST POP SWAP4 SWAP3 POP POP POP JUMP JUMPDEST PUSH0 DUP3 PUSH1 0x1F DUP4 ADD SLT PUSH2 0xD1E JUMPI PUSH2 0xD1D PUSH2 0x6FB JUMP JUMPDEST JUMPDEST DUP2 MLOAD PUSH2 0xD2E DUP5 DUP3 PUSH1 0x20 DUP7 ADD PUSH2 0xCC9 JUMP JUMPDEST SWAP2 POP POP SWAP3 SWAP2 POP POP JUMP JUMPDEST PUSH0 DUP1 PUSH0 DUP1 PUSH1 0x80 DUP6 DUP8 SUB SLT ISZERO PUSH2 0xD4F JUMPI PUSH2 0xD4E PUSH2 0x628 JUMP JUMPDEST JUMPDEST PUSH0 PUSH2 0xD5C DUP8 DUP3 DUP9 ADD PUSH2 0xCA1 JUMP JUMPDEST SWAP5 POP POP PUSH1 0x20 PUSH2 0xD6D DUP8 DUP3 DUP9 ADD PUSH2 0xCB5 JUMP JUMPDEST SWAP4 POP POP PUSH1 0x40 DUP6 ADD MLOAD PUSH8 0xFFFFFFFFFFFFFFFF DUP2 GT ISZERO PUSH2 0xD8E JUMPI PUSH2 0xD8D PUSH2 0x62C JUMP JUMPDEST JUMPDEST PUSH2 0xD9A DUP8 DUP3 DUP9 ADD PUSH2 0xD0A JUMP JUMPDEST SWAP3 POP POP PUSH1 0x60 PUSH2 0xDAB DUP8 DUP3 DUP9 ADD PUSH2 0xCA1 JUMP JUMPDEST SWAP2 POP POP SWAP3 SWAP6 SWAP2 SWAP5 POP SWAP3 POP JUMP JUMPDEST PUSH32 0x41646472657373206973206E6F7420746865206F7267616E697A6174696F6E00 PUSH0 DUP3 ADD MSTORE POP JUMP JUMPDEST PUSH0 PUSH2 0xDEB PUSH1 0x1F DUP4 PUSH2 0x8F6 JUMP JUMPDEST SWAP2 POP PUSH2 0xDF6 DUP3 PUSH2 0xDB7 JUMP JUMPDEST PUSH1 0x20 DUP3 ADD SWAP1 POP SWAP2 SWAP1 POP JUMP JUMPDEST PUSH0 PUSH1 0x20 DUP3 ADD SWAP1 POP DUP2 DUP2 SUB PUSH0 DUP4 ADD MSTORE PUSH2 0xE18 DUP2 PUSH2 0xDDF JUMP JUMPDEST SWAP1 POP SWAP2 SWAP1 POP JUMP INVALID LOG2 PUSH5 0x6970667358 0x22 SLT KECCAK256 PUSH14 0x318FEDDEC2C4ADD939F9FC56A511 CALLCODE 0xE6 PUSH32 0x61E4C71E3C0449479C039B2674D664736F6C6343000816003300000000000000 "
				},
				"gasEstimates": {
					"creation": {
						"codeDepositCost": "733800",
						"executionCost": "infinite",
						"totalCost": "infinite"
					},
					"external": {
						"addMilkBatch(address,string,uint256)": "infinite",
						"changeCheeseProducerMilkBatchStorage(address)": "26928",
						"decreaseMilkBatchQuantity(uint256,uint256)": "infinite",
						"getMilkBatch(uint256)": "infinite"
					}
				},
				"methodIdentifiers": {
					"addMilkBatch(address,string,uint256)": "7dfdd671",
					"changeCheeseProducerMilkBatchStorage(address)": "e6555c2b",
					"decreaseMilkBatchQuantity(uint256,uint256)": "332d30f9",
					"getMilkBatch(uint256)": "be60b0b8"
				}
			},
			"storageLayout": {
				"storage": [
					{
						"astId": 5,
						"contract": "contracts/Actor/CheeseProducer-smart-contract/inventory/CheeseProducerMilkBatchService.sol:CheeseProducerMilkBatchService",
						"label": "cheeseProducerMilkBatchStorage",
						"offset": 0,
						"slot": "0",
						"type": "t_contract(CheeseProducerMilkBatchStorage)430"
					},
					{
						"astId": 7,
						"contract": "contracts/Actor/CheeseProducer-smart-contract/inventory/CheeseProducerMilkBatchService.sol:CheeseProducerMilkBatchService",
						"label": "cheeseProducerOrg",
						"offset": 0,
						"slot": "1",
						"type": "t_address"
					}
				],
				"types": {
					"t_address": {
						"encoding": "inplace",
						"label": "address",
						"numberOfBytes": "20"
					},
					"t_contract(CheeseProducerMilkBatchStorage)430": {
						"encoding": "inplace",
						"label": "contract CheeseProducerMilkBatchStorage",
						"numberOfBytes": "20"
					}
				}
			},
			"userdoc": {
				"kind": "user",
				"methods": {},
				"version": 1
			}
		}
	}
}