{
	"Filiera-Token-SmartContract/contracts/Actor/CheeseProducer-smart-contract/inventory/CheeseProducerInventoryStorage.sol": {
		"CheeseProducerInventoryStorage": {
			"abi": [
				{
					"inputs": [],
					"stateMutability": "nonpayable",
					"type": "constructor"
				},
				{
					"inputs": [
						{
							"internalType": "address",
							"name": "walletCheeseProducer",
							"type": "address"
						},
						{
							"internalType": "string",
							"name": "_dop",
							"type": "string"
						},
						{
							"internalType": "uint256",
							"name": "_price",
							"type": "uint256"
						},
						{
							"internalType": "uint256",
							"name": "_quantity",
							"type": "uint256"
						}
					],
					"name": "addCheeseBlock",
					"outputs": [],
					"stateMutability": "nonpayable",
					"type": "function"
				},
				{
					"inputs": [
						{
							"internalType": "address",
							"name": "walletCheeseProducer",
							"type": "address"
						},
						{
							"internalType": "uint256",
							"name": "_id",
							"type": "uint256"
						}
					],
					"name": "deleteCheeseBlock",
					"outputs": [
						{
							"internalType": "bool",
							"name": "value",
							"type": "bool"
						}
					],
					"stateMutability": "nonpayable",
					"type": "function"
				},
				{
					"inputs": [
						{
							"internalType": "address",
							"name": "walletCheeseProducer",
							"type": "address"
						},
						{
							"internalType": "uint256",
							"name": "_id",
							"type": "uint256"
						}
					],
					"name": "getCheeseBlock",
					"outputs": [
						{
							"internalType": "uint256",
							"name": "",
							"type": "uint256"
						},
						{
							"internalType": "string",
							"name": "",
							"type": "string"
						},
						{
							"internalType": "uint256",
							"name": "",
							"type": "uint256"
						},
						{
							"internalType": "uint256",
							"name": "",
							"type": "uint256"
						}
					],
					"stateMutability": "view",
					"type": "function"
				}
			],
			"devdoc": {
				"kind": "dev",
				"methods": {},
				"version": 1
			},
			"evm": {
				"assembly": "    /* \"Filiera-Token-SmartContract/contracts/Actor/CheeseProducer-smart-contract/inventory/CheeseProducerInventoryStorage.sol\":60:2390  contract CheeseProducerInventoryStorage {... */\n  mstore(0x40, 0x80)\n    /* \"Filiera-Token-SmartContract/contracts/Actor/CheeseProducer-smart-contract/inventory/CheeseProducerInventoryStorage.sol\":207:270  constructor() {... */\n  callvalue\n  dup1\n  iszero\n  tag_1\n  jumpi\n  0x00\n  dup1\n  revert\ntag_1:\n  pop\n    /* \"Filiera-Token-SmartContract/contracts/Actor/CheeseProducer-smart-contract/inventory/CheeseProducerInventoryStorage.sol\":252:262  msg.sender */\n  caller\n    /* \"Filiera-Token-SmartContract/contracts/Actor/CheeseProducer-smart-contract/inventory/CheeseProducerInventoryStorage.sol\":232:249  cheeseProducerOrg */\n  0x00\n  dup1\n    /* \"Filiera-Token-SmartContract/contracts/Actor/CheeseProducer-smart-contract/inventory/CheeseProducerInventoryStorage.sol\":232:262  cheeseProducerOrg = msg.sender */\n  0x0100\n  exp\n  dup2\n  sload\n  dup2\n  0xffffffffffffffffffffffffffffffffffffffff\n  mul\n  not\n  and\n  swap1\n  dup4\n  0xffffffffffffffffffffffffffffffffffffffff\n  and\n  mul\n  or\n  swap1\n  sstore\n  pop\n    /* \"Filiera-Token-SmartContract/contracts/Actor/CheeseProducer-smart-contract/inventory/CheeseProducerInventoryStorage.sol\":60:2390  contract CheeseProducerInventoryStorage {... */\n  dataSize(sub_0)\n  dup1\n  dataOffset(sub_0)\n  0x00\n  codecopy\n  0x00\n  return\nstop\n\nsub_0: assembly {\n        /* \"Filiera-Token-SmartContract/contracts/Actor/CheeseProducer-smart-contract/inventory/CheeseProducerInventoryStorage.sol\":60:2390  contract CheeseProducerInventoryStorage {... */\n      mstore(0x40, 0x80)\n      callvalue\n      dup1\n      iszero\n      tag_1\n      jumpi\n      0x00\n      dup1\n      revert\n    tag_1:\n      pop\n      jumpi(tag_2, lt(calldatasize, 0x04))\n      shr(0xe0, calldataload(0x00))\n      dup1\n      0x6fb82e06\n      eq\n      tag_3\n      jumpi\n      dup1\n      0xab23e04a\n      eq\n      tag_4\n      jumpi\n      dup1\n      0xf437eff1\n      eq\n      tag_5\n      jumpi\n    tag_2:\n      0x00\n      dup1\n      revert\n        /* \"Filiera-Token-SmartContract/contracts/Actor/CheeseProducer-smart-contract/inventory/CheeseProducerInventoryStorage.sol\":1247:1667  function getCheeseBlock(address walletCheeseProducer, uint256 _id) external view returns (uint256, string memory, uint256, uint256) {... */\n    tag_3:\n      tag_6\n      0x04\n      dup1\n      calldatasize\n      sub\n      dup2\n      add\n      swap1\n      tag_7\n      swap2\n      swap1\n      tag_8\n      jump\t// in\n    tag_7:\n      tag_9\n      jump\t// in\n    tag_6:\n      mload(0x40)\n      tag_10\n      swap5\n      swap4\n      swap3\n      swap2\n      swap1\n      tag_11\n      jump\t// in\n    tag_10:\n      mload(0x40)\n      dup1\n      swap2\n      sub\n      swap1\n      return\n        /* \"Filiera-Token-SmartContract/contracts/Actor/CheeseProducer-smart-contract/inventory/CheeseProducerInventoryStorage.sol\":477:1239  function addCheeseBlock(address walletCheeseProducer, string memory _dop, uint256 _price, uint256 _quantity) external {... */\n    tag_4:\n      tag_12\n      0x04\n      dup1\n      calldatasize\n      sub\n      dup2\n      add\n      swap1\n      tag_13\n      swap2\n      swap1\n      tag_14\n      jump\t// in\n    tag_13:\n      tag_15\n      jump\t// in\n    tag_12:\n      stop\n        /* \"Filiera-Token-SmartContract/contracts/Actor/CheeseProducer-smart-contract/inventory/CheeseProducerInventoryStorage.sol\":1675:2387  function deleteCheeseBlock(address walletCheeseProducer, uint256 _id) external returns(bool value) {... */\n    tag_5:\n      tag_16\n      0x04\n      dup1\n      calldatasize\n      sub\n      dup2\n      add\n      swap1\n      tag_17\n      swap2\n      swap1\n      tag_8\n      jump\t// in\n    tag_17:\n      tag_18\n      jump\t// in\n    tag_16:\n      mload(0x40)\n      tag_19\n      swap2\n      swap1\n      tag_20\n      jump\t// in\n    tag_19:\n      mload(0x40)\n      dup1\n      swap2\n      sub\n      swap1\n      return\n        /* \"Filiera-Token-SmartContract/contracts/Actor/CheeseProducer-smart-contract/inventory/CheeseProducerInventoryStorage.sol\":1247:1667  function getCheeseBlock(address walletCheeseProducer, uint256 _id) external view returns (uint256, string memory, uint256, uint256) {... */\n    tag_9:\n        /* \"Filiera-Token-SmartContract/contracts/Actor/CheeseProducer-smart-contract/inventory/CheeseProducerInventoryStorage.sol\":1337:1344  uint256 */\n      0x00\n        /* \"Filiera-Token-SmartContract/contracts/Actor/CheeseProducer-smart-contract/inventory/CheeseProducerInventoryStorage.sol\":1346:1359  string memory */\n      0x60\n        /* \"Filiera-Token-SmartContract/contracts/Actor/CheeseProducer-smart-contract/inventory/CheeseProducerInventoryStorage.sol\":1361:1368  uint256 */\n      0x00\n        /* \"Filiera-Token-SmartContract/contracts/Actor/CheeseProducer-smart-contract/inventory/CheeseProducerInventoryStorage.sol\":1370:1377  uint256 */\n      dup1\n        /* \"Filiera-Token-SmartContract/contracts/Actor/CheeseProducer-smart-contract/inventory/CheeseProducerInventoryStorage.sol\":1446:1447  0 */\n      0x00\n        /* \"Filiera-Token-SmartContract/contracts/Actor/CheeseProducer-smart-contract/inventory/CheeseProducerInventoryStorage.sol\":1400:1412  cheeseBlocks */\n      0x01\n        /* \"Filiera-Token-SmartContract/contracts/Actor/CheeseProducer-smart-contract/inventory/CheeseProducerInventoryStorage.sol\":1400:1434  cheeseBlocks[walletCheeseProducer] */\n      0x00\n        /* \"Filiera-Token-SmartContract/contracts/Actor/CheeseProducer-smart-contract/inventory/CheeseProducerInventoryStorage.sol\":1413:1433  walletCheeseProducer */\n      dup9\n        /* \"Filiera-Token-SmartContract/contracts/Actor/CheeseProducer-smart-contract/inventory/CheeseProducerInventoryStorage.sol\":1400:1434  cheeseBlocks[walletCheeseProducer] */\n      0xffffffffffffffffffffffffffffffffffffffff\n      and\n      0xffffffffffffffffffffffffffffffffffffffff\n      and\n      dup2\n      mstore\n      0x20\n      add\n      swap1\n      dup2\n      mstore\n      0x20\n      add\n      0x00\n      keccak256\n        /* \"Filiera-Token-SmartContract/contracts/Actor/CheeseProducer-smart-contract/inventory/CheeseProducerInventoryStorage.sol\":1400:1439  cheeseBlocks[walletCheeseProducer][_id] */\n      0x00\n        /* \"Filiera-Token-SmartContract/contracts/Actor/CheeseProducer-smart-contract/inventory/CheeseProducerInventoryStorage.sol\":1435:1438  _id */\n      dup8\n        /* \"Filiera-Token-SmartContract/contracts/Actor/CheeseProducer-smart-contract/inventory/CheeseProducerInventoryStorage.sol\":1400:1439  cheeseBlocks[walletCheeseProducer][_id] */\n      dup2\n      mstore\n      0x20\n      add\n      swap1\n      dup2\n      mstore\n      0x20\n      add\n      0x00\n      keccak256\n        /* \"Filiera-Token-SmartContract/contracts/Actor/CheeseProducer-smart-contract/inventory/CheeseProducerInventoryStorage.sol\":1400:1442  cheeseBlocks[walletCheeseProducer][_id].id */\n      0x00\n      add\n      sload\n        /* \"Filiera-Token-SmartContract/contracts/Actor/CheeseProducer-smart-contract/inventory/CheeseProducerInventoryStorage.sol\":1400:1447  cheeseBlocks[walletCheeseProducer][_id].id != 0 */\n      sub\n        /* \"Filiera-Token-SmartContract/contracts/Actor/CheeseProducer-smart-contract/inventory/CheeseProducerInventoryStorage.sol\":1392:1485  require(cheeseBlocks[walletCheeseProducer][_id].id != 0, \"Blocco di formaggio non presente!\") */\n      tag_22\n      jumpi\n      mload(0x40)\n      0x08c379a000000000000000000000000000000000000000000000000000000000\n      dup2\n      mstore\n      0x04\n      add\n      tag_23\n      swap1\n      tag_24\n      jump\t// in\n    tag_23:\n      mload(0x40)\n      dup1\n      swap2\n      sub\n      swap1\n      revert\n    tag_22:\n        /* \"Filiera-Token-SmartContract/contracts/Actor/CheeseProducer-smart-contract/inventory/CheeseProducerInventoryStorage.sol\":1498:1523  Cheese memory cheeseBlock */\n      0x00\n        /* \"Filiera-Token-SmartContract/contracts/Actor/CheeseProducer-smart-contract/inventory/CheeseProducerInventoryStorage.sol\":1526:1538  cheeseBlocks */\n      0x01\n        /* \"Filiera-Token-SmartContract/contracts/Actor/CheeseProducer-smart-contract/inventory/CheeseProducerInventoryStorage.sol\":1526:1560  cheeseBlocks[walletCheeseProducer] */\n      0x00\n        /* \"Filiera-Token-SmartContract/contracts/Actor/CheeseProducer-smart-contract/inventory/CheeseProducerInventoryStorage.sol\":1539:1559  walletCheeseProducer */\n      dup9\n        /* \"Filiera-Token-SmartContract/contracts/Actor/CheeseProducer-smart-contract/inventory/CheeseProducerInventoryStorage.sol\":1526:1560  cheeseBlocks[walletCheeseProducer] */\n      0xffffffffffffffffffffffffffffffffffffffff\n      and\n      0xffffffffffffffffffffffffffffffffffffffff\n      and\n      dup2\n      mstore\n      0x20\n      add\n      swap1\n      dup2\n      mstore\n      0x20\n      add\n      0x00\n      keccak256\n        /* \"Filiera-Token-SmartContract/contracts/Actor/CheeseProducer-smart-contract/inventory/CheeseProducerInventoryStorage.sol\":1526:1565  cheeseBlocks[walletCheeseProducer][_id] */\n      0x00\n        /* \"Filiera-Token-SmartContract/contracts/Actor/CheeseProducer-smart-contract/inventory/CheeseProducerInventoryStorage.sol\":1561:1564  _id */\n      dup8\n        /* \"Filiera-Token-SmartContract/contracts/Actor/CheeseProducer-smart-contract/inventory/CheeseProducerInventoryStorage.sol\":1526:1565  cheeseBlocks[walletCheeseProducer][_id] */\n      dup2\n      mstore\n      0x20\n      add\n      swap1\n      dup2\n      mstore\n      0x20\n      add\n      0x00\n      keccak256\n        /* \"Filiera-Token-SmartContract/contracts/Actor/CheeseProducer-smart-contract/inventory/CheeseProducerInventoryStorage.sol\":1498:1565  Cheese memory cheeseBlock = cheeseBlocks[walletCheeseProducer][_id] */\n      mload(0x40)\n      dup1\n      0x80\n      add\n      0x40\n      mstore\n      swap1\n      dup2\n      0x00\n      dup3\n      add\n      sload\n      dup2\n      mstore\n      0x20\n      add\n      0x01\n      dup3\n      add\n      dup1\n      sload\n      tag_25\n      swap1\n      tag_26\n      jump\t// in\n    tag_25:\n      dup1\n      0x1f\n      add\n      0x20\n      dup1\n      swap2\n      div\n      mul\n      0x20\n      add\n      mload(0x40)\n      swap1\n      dup2\n      add\n      0x40\n      mstore\n      dup1\n      swap3\n      swap2\n      swap1\n      dup2\n      dup2\n      mstore\n      0x20\n      add\n      dup3\n      dup1\n      sload\n      tag_27\n      swap1\n      tag_26\n      jump\t// in\n    tag_27:\n      dup1\n      iszero\n      tag_28\n      jumpi\n      dup1\n      0x1f\n      lt\n      tag_29\n      jumpi\n      0x0100\n      dup1\n      dup4\n      sload\n      div\n      mul\n      dup4\n      mstore\n      swap2\n      0x20\n      add\n      swap2\n      jump(tag_28)\n    tag_29:\n      dup3\n      add\n      swap2\n      swap1\n      0x00\n      mstore\n      keccak256(0x00, 0x20)\n      swap1\n    tag_30:\n      dup2\n      sload\n      dup2\n      mstore\n      swap1\n      0x01\n      add\n      swap1\n      0x20\n      add\n      dup1\n      dup4\n      gt\n      tag_30\n      jumpi\n      dup3\n      swap1\n      sub\n      0x1f\n      and\n      dup3\n      add\n      swap2\n    tag_28:\n      pop\n      pop\n      pop\n      pop\n      pop\n      dup2\n      mstore\n      0x20\n      add\n      0x02\n      dup3\n      add\n      sload\n      dup2\n      mstore\n      0x20\n      add\n      0x03\n      dup3\n      add\n      sload\n      dup2\n      mstore\n      pop\n      pop\n      swap1\n      pop\n        /* \"Filiera-Token-SmartContract/contracts/Actor/CheeseProducer-smart-contract/inventory/CheeseProducerInventoryStorage.sol\":1586:1597  cheeseBlock */\n      dup1\n        /* \"Filiera-Token-SmartContract/contracts/Actor/CheeseProducer-smart-contract/inventory/CheeseProducerInventoryStorage.sol\":1586:1600  cheeseBlock.id */\n      0x00\n      add\n      mload\n        /* \"Filiera-Token-SmartContract/contracts/Actor/CheeseProducer-smart-contract/inventory/CheeseProducerInventoryStorage.sol\":1602:1613  cheeseBlock */\n      dup2\n        /* \"Filiera-Token-SmartContract/contracts/Actor/CheeseProducer-smart-contract/inventory/CheeseProducerInventoryStorage.sol\":1602:1617  cheeseBlock.dop */\n      0x20\n      add\n      mload\n        /* \"Filiera-Token-SmartContract/contracts/Actor/CheeseProducer-smart-contract/inventory/CheeseProducerInventoryStorage.sol\":1619:1630  cheeseBlock */\n      dup3\n        /* \"Filiera-Token-SmartContract/contracts/Actor/CheeseProducer-smart-contract/inventory/CheeseProducerInventoryStorage.sol\":1619:1636  cheeseBlock.price */\n      0x40\n      add\n      mload\n        /* \"Filiera-Token-SmartContract/contracts/Actor/CheeseProducer-smart-contract/inventory/CheeseProducerInventoryStorage.sol\":1638:1649  cheeseBlock */\n      dup4\n        /* \"Filiera-Token-SmartContract/contracts/Actor/CheeseProducer-smart-contract/inventory/CheeseProducerInventoryStorage.sol\":1638:1658  cheeseBlock.quantity */\n      0x60\n      add\n      mload\n        /* \"Filiera-Token-SmartContract/contracts/Actor/CheeseProducer-smart-contract/inventory/CheeseProducerInventoryStorage.sol\":1578:1659  return (cheeseBlock.id, cheeseBlock.dop, cheeseBlock.price, cheeseBlock.quantity) */\n      swap5\n      pop\n      swap5\n      pop\n      swap5\n      pop\n      swap5\n      pop\n      pop\n        /* \"Filiera-Token-SmartContract/contracts/Actor/CheeseProducer-smart-contract/inventory/CheeseProducerInventoryStorage.sol\":1247:1667  function getCheeseBlock(address walletCheeseProducer, uint256 _id) external view returns (uint256, string memory, uint256, uint256) {... */\n      swap3\n      swap6\n      swap2\n      swap5\n      pop\n      swap3\n      pop\n      jump\t// out\n        /* \"Filiera-Token-SmartContract/contracts/Actor/CheeseProducer-smart-contract/inventory/CheeseProducerInventoryStorage.sol\":477:1239  function addCheeseBlock(address walletCheeseProducer, string memory _dop, uint256 _price, uint256 _quantity) external {... */\n    tag_15:\n        /* \"Filiera-Token-SmartContract/contracts/Actor/CheeseProducer-smart-contract/inventory/CheeseProducerInventoryStorage.sol\":608:619  uint256 _id */\n      0x00\n        /* \"Filiera-Token-SmartContract/contracts/Actor/CheeseProducer-smart-contract/inventory/CheeseProducerInventoryStorage.sol\":671:675  _dop */\n      dup4\n        /* \"Filiera-Token-SmartContract/contracts/Actor/CheeseProducer-smart-contract/inventory/CheeseProducerInventoryStorage.sol\":690:696  _price */\n      dup4\n        /* \"Filiera-Token-SmartContract/contracts/Actor/CheeseProducer-smart-contract/inventory/CheeseProducerInventoryStorage.sol\":711:720  _quantity */\n      dup4\n        /* \"Filiera-Token-SmartContract/contracts/Actor/CheeseProducer-smart-contract/inventory/CheeseProducerInventoryStorage.sol\":735:755  walletCheeseProducer */\n      dup8\n        /* \"Filiera-Token-SmartContract/contracts/Actor/CheeseProducer-smart-contract/inventory/CheeseProducerInventoryStorage.sol\":640:766  abi.encodePacked(... */\n      add(0x20, mload(0x40))\n      tag_32\n      swap5\n      swap4\n      swap3\n      swap2\n      swap1\n      tag_33\n      jump\t// in\n    tag_32:\n      mload(0x40)\n      0x20\n      dup2\n      dup4\n      sub\n      sub\n      dup2\n      mstore\n      swap1\n      0x40\n      mstore\n        /* \"Filiera-Token-SmartContract/contracts/Actor/CheeseProducer-smart-contract/inventory/CheeseProducerInventoryStorage.sol\":630:767  keccak256(abi.encodePacked(... */\n      dup1\n      mload\n      swap1\n      0x20\n      add\n      keccak256\n        /* \"Filiera-Token-SmartContract/contracts/Actor/CheeseProducer-smart-contract/inventory/CheeseProducerInventoryStorage.sol\":622:768  uint256(keccak256(abi.encodePacked(... */\n      0x00\n      shr\n        /* \"Filiera-Token-SmartContract/contracts/Actor/CheeseProducer-smart-contract/inventory/CheeseProducerInventoryStorage.sol\":608:768  uint256 _id = uint256(keccak256(abi.encodePacked(... */\n      swap1\n      pop\n        /* \"Filiera-Token-SmartContract/contracts/Actor/CheeseProducer-smart-contract/inventory/CheeseProducerInventoryStorage.sol\":835:836  0 */\n      0x00\n        /* \"Filiera-Token-SmartContract/contracts/Actor/CheeseProducer-smart-contract/inventory/CheeseProducerInventoryStorage.sol\":789:801  cheeseBlocks */\n      0x01\n        /* \"Filiera-Token-SmartContract/contracts/Actor/CheeseProducer-smart-contract/inventory/CheeseProducerInventoryStorage.sol\":789:823  cheeseBlocks[walletCheeseProducer] */\n      0x00\n        /* \"Filiera-Token-SmartContract/contracts/Actor/CheeseProducer-smart-contract/inventory/CheeseProducerInventoryStorage.sol\":802:822  walletCheeseProducer */\n      dup8\n        /* \"Filiera-Token-SmartContract/contracts/Actor/CheeseProducer-smart-contract/inventory/CheeseProducerInventoryStorage.sol\":789:823  cheeseBlocks[walletCheeseProducer] */\n      0xffffffffffffffffffffffffffffffffffffffff\n      and\n      0xffffffffffffffffffffffffffffffffffffffff\n      and\n      dup2\n      mstore\n      0x20\n      add\n      swap1\n      dup2\n      mstore\n      0x20\n      add\n      0x00\n      keccak256\n        /* \"Filiera-Token-SmartContract/contracts/Actor/CheeseProducer-smart-contract/inventory/CheeseProducerInventoryStorage.sol\":789:828  cheeseBlocks[walletCheeseProducer][_id] */\n      0x00\n        /* \"Filiera-Token-SmartContract/contracts/Actor/CheeseProducer-smart-contract/inventory/CheeseProducerInventoryStorage.sol\":824:827  _id */\n      dup4\n        /* \"Filiera-Token-SmartContract/contracts/Actor/CheeseProducer-smart-contract/inventory/CheeseProducerInventoryStorage.sol\":789:828  cheeseBlocks[walletCheeseProducer][_id] */\n      dup2\n      mstore\n      0x20\n      add\n      swap1\n      dup2\n      mstore\n      0x20\n      add\n      0x00\n      keccak256\n        /* \"Filiera-Token-SmartContract/contracts/Actor/CheeseProducer-smart-contract/inventory/CheeseProducerInventoryStorage.sol\":789:831  cheeseBlocks[walletCheeseProducer][_id].id */\n      0x00\n      add\n      sload\n        /* \"Filiera-Token-SmartContract/contracts/Actor/CheeseProducer-smart-contract/inventory/CheeseProducerInventoryStorage.sol\":789:836  cheeseBlocks[walletCheeseProducer][_id].id == 0 */\n      eq\n        /* \"Filiera-Token-SmartContract/contracts/Actor/CheeseProducer-smart-contract/inventory/CheeseProducerInventoryStorage.sol\":781:875  require(cheeseBlocks[walletCheeseProducer][_id].id == 0, \"Blocco di formaggio gia' presente!\") */\n      tag_34\n      jumpi\n      mload(0x40)\n      0x08c379a000000000000000000000000000000000000000000000000000000000\n      dup2\n      mstore\n      0x04\n      add\n      tag_35\n      swap1\n      tag_36\n      jump\t// in\n    tag_35:\n      mload(0x40)\n      dup1\n      swap2\n      sub\n      swap1\n      revert\n    tag_34:\n        /* \"Filiera-Token-SmartContract/contracts/Actor/CheeseProducer-smart-contract/inventory/CheeseProducerInventoryStorage.sol\":934:959  Cheese memory cheeseBlock */\n      0x00\n        /* \"Filiera-Token-SmartContract/contracts/Actor/CheeseProducer-smart-contract/inventory/CheeseProducerInventoryStorage.sol\":962:1089  Cheese({... */\n      mload(0x40)\n      dup1\n      0x80\n      add\n      0x40\n      mstore\n      dup1\n        /* \"Filiera-Token-SmartContract/contracts/Actor/CheeseProducer-smart-contract/inventory/CheeseProducerInventoryStorage.sol\":988:991  _id */\n      dup4\n        /* \"Filiera-Token-SmartContract/contracts/Actor/CheeseProducer-smart-contract/inventory/CheeseProducerInventoryStorage.sol\":962:1089  Cheese({... */\n      dup2\n      mstore\n      0x20\n      add\n        /* \"Filiera-Token-SmartContract/contracts/Actor/CheeseProducer-smart-contract/inventory/CheeseProducerInventoryStorage.sol\":1011:1015  _dop */\n      dup7\n        /* \"Filiera-Token-SmartContract/contracts/Actor/CheeseProducer-smart-contract/inventory/CheeseProducerInventoryStorage.sol\":962:1089  Cheese({... */\n      dup2\n      mstore\n      0x20\n      add\n        /* \"Filiera-Token-SmartContract/contracts/Actor/CheeseProducer-smart-contract/inventory/CheeseProducerInventoryStorage.sol\":1037:1043  _price */\n      dup6\n        /* \"Filiera-Token-SmartContract/contracts/Actor/CheeseProducer-smart-contract/inventory/CheeseProducerInventoryStorage.sol\":962:1089  Cheese({... */\n      dup2\n      mstore\n      0x20\n      add\n        /* \"Filiera-Token-SmartContract/contracts/Actor/CheeseProducer-smart-contract/inventory/CheeseProducerInventoryStorage.sol\":1068:1077  _quantity */\n      dup5\n        /* \"Filiera-Token-SmartContract/contracts/Actor/CheeseProducer-smart-contract/inventory/CheeseProducerInventoryStorage.sol\":962:1089  Cheese({... */\n      dup2\n      mstore\n      pop\n        /* \"Filiera-Token-SmartContract/contracts/Actor/CheeseProducer-smart-contract/inventory/CheeseProducerInventoryStorage.sol\":934:1089  Cheese memory cheeseBlock = Cheese({... */\n      swap1\n      pop\n        /* \"Filiera-Token-SmartContract/contracts/Actor/CheeseProducer-smart-contract/inventory/CheeseProducerInventoryStorage.sol\":1220:1231  cheeseBlock */\n      dup1\n        /* \"Filiera-Token-SmartContract/contracts/Actor/CheeseProducer-smart-contract/inventory/CheeseProducerInventoryStorage.sol\":1178:1190  cheeseBlocks */\n      0x01\n        /* \"Filiera-Token-SmartContract/contracts/Actor/CheeseProducer-smart-contract/inventory/CheeseProducerInventoryStorage.sol\":1178:1212  cheeseBlocks[walletCheeseProducer] */\n      0x00\n        /* \"Filiera-Token-SmartContract/contracts/Actor/CheeseProducer-smart-contract/inventory/CheeseProducerInventoryStorage.sol\":1191:1211  walletCheeseProducer */\n      dup9\n        /* \"Filiera-Token-SmartContract/contracts/Actor/CheeseProducer-smart-contract/inventory/CheeseProducerInventoryStorage.sol\":1178:1212  cheeseBlocks[walletCheeseProducer] */\n      0xffffffffffffffffffffffffffffffffffffffff\n      and\n      0xffffffffffffffffffffffffffffffffffffffff\n      and\n      dup2\n      mstore\n      0x20\n      add\n      swap1\n      dup2\n      mstore\n      0x20\n      add\n      0x00\n      keccak256\n        /* \"Filiera-Token-SmartContract/contracts/Actor/CheeseProducer-smart-contract/inventory/CheeseProducerInventoryStorage.sol\":1178:1217  cheeseBlocks[walletCheeseProducer][_id] */\n      0x00\n        /* \"Filiera-Token-SmartContract/contracts/Actor/CheeseProducer-smart-contract/inventory/CheeseProducerInventoryStorage.sol\":1213:1216  _id */\n      dup5\n        /* \"Filiera-Token-SmartContract/contracts/Actor/CheeseProducer-smart-contract/inventory/CheeseProducerInventoryStorage.sol\":1178:1217  cheeseBlocks[walletCheeseProducer][_id] */\n      dup2\n      mstore\n      0x20\n      add\n      swap1\n      dup2\n      mstore\n      0x20\n      add\n      0x00\n      keccak256\n        /* \"Filiera-Token-SmartContract/contracts/Actor/CheeseProducer-smart-contract/inventory/CheeseProducerInventoryStorage.sol\":1178:1231  cheeseBlocks[walletCheeseProducer][_id] = cheeseBlock */\n      0x00\n      dup3\n      add\n      mload\n      dup2\n      0x00\n      add\n      sstore\n      0x20\n      dup3\n      add\n      mload\n      dup2\n      0x01\n      add\n      swap1\n      dup2\n      tag_37\n      swap2\n      swap1\n      tag_38\n      jump\t// in\n    tag_37:\n      pop\n      0x40\n      dup3\n      add\n      mload\n      dup2\n      0x02\n      add\n      sstore\n      0x60\n      dup3\n      add\n      mload\n      dup2\n      0x03\n      add\n      sstore\n      swap1\n      pop\n      pop\n        /* \"Filiera-Token-SmartContract/contracts/Actor/CheeseProducer-smart-contract/inventory/CheeseProducerInventoryStorage.sol\":595:1239  {... */\n      pop\n      pop\n        /* \"Filiera-Token-SmartContract/contracts/Actor/CheeseProducer-smart-contract/inventory/CheeseProducerInventoryStorage.sol\":477:1239  function addCheeseBlock(address walletCheeseProducer, string memory _dop, uint256 _price, uint256 _quantity) external {... */\n      pop\n      pop\n      pop\n      pop\n      jump\t// out\n        /* \"Filiera-Token-SmartContract/contracts/Actor/CheeseProducer-smart-contract/inventory/CheeseProducerInventoryStorage.sol\":1675:2387  function deleteCheeseBlock(address walletCheeseProducer, uint256 _id) external returns(bool value) {... */\n    tag_18:\n        /* \"Filiera-Token-SmartContract/contracts/Actor/CheeseProducer-smart-contract/inventory/CheeseProducerInventoryStorage.sol\":1762:1772  bool value */\n      0x00\n        /* \"Filiera-Token-SmartContract/contracts/Actor/CheeseProducer-smart-contract/inventory/CheeseProducerInventoryStorage.sol\":1841:1842  0 */\n      dup1\n        /* \"Filiera-Token-SmartContract/contracts/Actor/CheeseProducer-smart-contract/inventory/CheeseProducerInventoryStorage.sol\":1795:1807  cheeseBlocks */\n      0x01\n        /* \"Filiera-Token-SmartContract/contracts/Actor/CheeseProducer-smart-contract/inventory/CheeseProducerInventoryStorage.sol\":1795:1829  cheeseBlocks[walletCheeseProducer] */\n      0x00\n        /* \"Filiera-Token-SmartContract/contracts/Actor/CheeseProducer-smart-contract/inventory/CheeseProducerInventoryStorage.sol\":1808:1828  walletCheeseProducer */\n      dup6\n        /* \"Filiera-Token-SmartContract/contracts/Actor/CheeseProducer-smart-contract/inventory/CheeseProducerInventoryStorage.sol\":1795:1829  cheeseBlocks[walletCheeseProducer] */\n      0xffffffffffffffffffffffffffffffffffffffff\n      and\n      0xffffffffffffffffffffffffffffffffffffffff\n      and\n      dup2\n      mstore\n      0x20\n      add\n      swap1\n      dup2\n      mstore\n      0x20\n      add\n      0x00\n      keccak256\n        /* \"Filiera-Token-SmartContract/contracts/Actor/CheeseProducer-smart-contract/inventory/CheeseProducerInventoryStorage.sol\":1795:1834  cheeseBlocks[walletCheeseProducer][_id] */\n      0x00\n        /* \"Filiera-Token-SmartContract/contracts/Actor/CheeseProducer-smart-contract/inventory/CheeseProducerInventoryStorage.sol\":1830:1833  _id */\n      dup5\n        /* \"Filiera-Token-SmartContract/contracts/Actor/CheeseProducer-smart-contract/inventory/CheeseProducerInventoryStorage.sol\":1795:1834  cheeseBlocks[walletCheeseProducer][_id] */\n      dup2\n      mstore\n      0x20\n      add\n      swap1\n      dup2\n      mstore\n      0x20\n      add\n      0x00\n      keccak256\n        /* \"Filiera-Token-SmartContract/contracts/Actor/CheeseProducer-smart-contract/inventory/CheeseProducerInventoryStorage.sol\":1795:1837  cheeseBlocks[walletCheeseProducer][_id].id */\n      0x00\n      add\n      sload\n        /* \"Filiera-Token-SmartContract/contracts/Actor/CheeseProducer-smart-contract/inventory/CheeseProducerInventoryStorage.sol\":1795:1842  cheeseBlocks[walletCheeseProducer][_id].id != 0 */\n      sub\n        /* \"Filiera-Token-SmartContract/contracts/Actor/CheeseProducer-smart-contract/inventory/CheeseProducerInventoryStorage.sol\":1787:1880  require(cheeseBlocks[walletCheeseProducer][_id].id != 0, \"Blocco di formaggio non presente!\") */\n      tag_40\n      jumpi\n      mload(0x40)\n      0x08c379a000000000000000000000000000000000000000000000000000000000\n      dup2\n      mstore\n      0x04\n      add\n      tag_41\n      swap1\n      tag_24\n      jump\t// in\n    tag_41:\n      mload(0x40)\n      dup1\n      swap2\n      sub\n      swap1\n      revert\n    tag_40:\n        /* \"Filiera-Token-SmartContract/contracts/Actor/CheeseProducer-smart-contract/inventory/CheeseProducerInventoryStorage.sol\":1893:1918  uint256 lastIdCheeseBlock */\n      0x00\n        /* \"Filiera-Token-SmartContract/contracts/Actor/CheeseProducer-smart-contract/inventory/CheeseProducerInventoryStorage.sol\":1970:1982  cheeseBlocks */\n      0x01\n        /* \"Filiera-Token-SmartContract/contracts/Actor/CheeseProducer-smart-contract/inventory/CheeseProducerInventoryStorage.sol\":1970:2004  cheeseBlocks[walletCheeseProducer] */\n      0x00\n        /* \"Filiera-Token-SmartContract/contracts/Actor/CheeseProducer-smart-contract/inventory/CheeseProducerInventoryStorage.sol\":1983:2003  walletCheeseProducer */\n      dup6\n        /* \"Filiera-Token-SmartContract/contracts/Actor/CheeseProducer-smart-contract/inventory/CheeseProducerInventoryStorage.sol\":1970:2004  cheeseBlocks[walletCheeseProducer] */\n      0xffffffffffffffffffffffffffffffffffffffff\n      and\n      0xffffffffffffffffffffffffffffffffffffffff\n      and\n      dup2\n      mstore\n      0x20\n      add\n      swap1\n      dup2\n      mstore\n      0x20\n      add\n      0x00\n      keccak256\n        /* \"Filiera-Token-SmartContract/contracts/Actor/CheeseProducer-smart-contract/inventory/CheeseProducerInventoryStorage.sol\":1970:2009  cheeseBlocks[walletCheeseProducer][_id] */\n      0x00\n        /* \"Filiera-Token-SmartContract/contracts/Actor/CheeseProducer-smart-contract/inventory/CheeseProducerInventoryStorage.sol\":2005:2008  _id */\n      dup5\n        /* \"Filiera-Token-SmartContract/contracts/Actor/CheeseProducer-smart-contract/inventory/CheeseProducerInventoryStorage.sol\":1970:2009  cheeseBlocks[walletCheeseProducer][_id] */\n      dup2\n      mstore\n      0x20\n      add\n      swap1\n      dup2\n      mstore\n      0x20\n      add\n      0x00\n      keccak256\n        /* \"Filiera-Token-SmartContract/contracts/Actor/CheeseProducer-smart-contract/inventory/CheeseProducerInventoryStorage.sol\":1970:2013  cheeseBlocks[walletCheeseProducer][_id].dop */\n      0x01\n      add\n        /* \"Filiera-Token-SmartContract/contracts/Actor/CheeseProducer-smart-contract/inventory/CheeseProducerInventoryStorage.sol\":2028:2040  cheeseBlocks */\n      0x01\n        /* \"Filiera-Token-SmartContract/contracts/Actor/CheeseProducer-smart-contract/inventory/CheeseProducerInventoryStorage.sol\":2028:2062  cheeseBlocks[walletCheeseProducer] */\n      0x00\n        /* \"Filiera-Token-SmartContract/contracts/Actor/CheeseProducer-smart-contract/inventory/CheeseProducerInventoryStorage.sol\":2041:2061  walletCheeseProducer */\n      dup7\n        /* \"Filiera-Token-SmartContract/contracts/Actor/CheeseProducer-smart-contract/inventory/CheeseProducerInventoryStorage.sol\":2028:2062  cheeseBlocks[walletCheeseProducer] */\n      0xffffffffffffffffffffffffffffffffffffffff\n      and\n      0xffffffffffffffffffffffffffffffffffffffff\n      and\n      dup2\n      mstore\n      0x20\n      add\n      swap1\n      dup2\n      mstore\n      0x20\n      add\n      0x00\n      keccak256\n        /* \"Filiera-Token-SmartContract/contracts/Actor/CheeseProducer-smart-contract/inventory/CheeseProducerInventoryStorage.sol\":2028:2067  cheeseBlocks[walletCheeseProducer][_id] */\n      0x00\n        /* \"Filiera-Token-SmartContract/contracts/Actor/CheeseProducer-smart-contract/inventory/CheeseProducerInventoryStorage.sol\":2063:2066  _id */\n      dup6\n        /* \"Filiera-Token-SmartContract/contracts/Actor/CheeseProducer-smart-contract/inventory/CheeseProducerInventoryStorage.sol\":2028:2067  cheeseBlocks[walletCheeseProducer][_id] */\n      dup2\n      mstore\n      0x20\n      add\n      swap1\n      dup2\n      mstore\n      0x20\n      add\n      0x00\n      keccak256\n        /* \"Filiera-Token-SmartContract/contracts/Actor/CheeseProducer-smart-contract/inventory/CheeseProducerInventoryStorage.sol\":2028:2073  cheeseBlocks[walletCheeseProducer][_id].price */\n      0x02\n      add\n      sload\n        /* \"Filiera-Token-SmartContract/contracts/Actor/CheeseProducer-smart-contract/inventory/CheeseProducerInventoryStorage.sol\":2088:2100  cheeseBlocks */\n      0x01\n        /* \"Filiera-Token-SmartContract/contracts/Actor/CheeseProducer-smart-contract/inventory/CheeseProducerInventoryStorage.sol\":2088:2122  cheeseBlocks[walletCheeseProducer] */\n      0x00\n        /* \"Filiera-Token-SmartContract/contracts/Actor/CheeseProducer-smart-contract/inventory/CheeseProducerInventoryStorage.sol\":2101:2121  walletCheeseProducer */\n      dup8\n        /* \"Filiera-Token-SmartContract/contracts/Actor/CheeseProducer-smart-contract/inventory/CheeseProducerInventoryStorage.sol\":2088:2122  cheeseBlocks[walletCheeseProducer] */\n      0xffffffffffffffffffffffffffffffffffffffff\n      and\n      0xffffffffffffffffffffffffffffffffffffffff\n      and\n      dup2\n      mstore\n      0x20\n      add\n      swap1\n      dup2\n      mstore\n      0x20\n      add\n      0x00\n      keccak256\n        /* \"Filiera-Token-SmartContract/contracts/Actor/CheeseProducer-smart-contract/inventory/CheeseProducerInventoryStorage.sol\":2088:2127  cheeseBlocks[walletCheeseProducer][_id] */\n      0x00\n        /* \"Filiera-Token-SmartContract/contracts/Actor/CheeseProducer-smart-contract/inventory/CheeseProducerInventoryStorage.sol\":2123:2126  _id */\n      dup7\n        /* \"Filiera-Token-SmartContract/contracts/Actor/CheeseProducer-smart-contract/inventory/CheeseProducerInventoryStorage.sol\":2088:2127  cheeseBlocks[walletCheeseProducer][_id] */\n      dup2\n      mstore\n      0x20\n      add\n      swap1\n      dup2\n      mstore\n      0x20\n      add\n      0x00\n      keccak256\n        /* \"Filiera-Token-SmartContract/contracts/Actor/CheeseProducer-smart-contract/inventory/CheeseProducerInventoryStorage.sol\":2088:2136  cheeseBlocks[walletCheeseProducer][_id].quantity */\n      0x03\n      add\n      sload\n        /* \"Filiera-Token-SmartContract/contracts/Actor/CheeseProducer-smart-contract/inventory/CheeseProducerInventoryStorage.sol\":2151:2171  walletCheeseProducer */\n      dup7\n        /* \"Filiera-Token-SmartContract/contracts/Actor/CheeseProducer-smart-contract/inventory/CheeseProducerInventoryStorage.sol\":1939:2182  abi.encodePacked(... */\n      add(0x20, mload(0x40))\n      tag_42\n      swap5\n      swap4\n      swap3\n      swap2\n      swap1\n      tag_43\n      jump\t// in\n    tag_42:\n      mload(0x40)\n      0x20\n      dup2\n      dup4\n      sub\n      sub\n      dup2\n      mstore\n      swap1\n      0x40\n      mstore\n        /* \"Filiera-Token-SmartContract/contracts/Actor/CheeseProducer-smart-contract/inventory/CheeseProducerInventoryStorage.sol\":1929:2183  keccak256(abi.encodePacked(... */\n      dup1\n      mload\n      swap1\n      0x20\n      add\n      keccak256\n        /* \"Filiera-Token-SmartContract/contracts/Actor/CheeseProducer-smart-contract/inventory/CheeseProducerInventoryStorage.sol\":1921:2184  uint256(keccak256(abi.encodePacked(... */\n      0x00\n      shr\n        /* \"Filiera-Token-SmartContract/contracts/Actor/CheeseProducer-smart-contract/inventory/CheeseProducerInventoryStorage.sol\":1893:2184  uint256 lastIdCheeseBlock = uint256(keccak256(abi.encodePacked(... */\n      swap1\n      pop\n        /* \"Filiera-Token-SmartContract/contracts/Actor/CheeseProducer-smart-contract/inventory/CheeseProducerInventoryStorage.sol\":2251:2268  lastIdCheeseBlock */\n      dup1\n        /* \"Filiera-Token-SmartContract/contracts/Actor/CheeseProducer-smart-contract/inventory/CheeseProducerInventoryStorage.sol\":2205:2217  cheeseBlocks */\n      0x01\n        /* \"Filiera-Token-SmartContract/contracts/Actor/CheeseProducer-smart-contract/inventory/CheeseProducerInventoryStorage.sol\":2205:2239  cheeseBlocks[walletCheeseProducer] */\n      0x00\n        /* \"Filiera-Token-SmartContract/contracts/Actor/CheeseProducer-smart-contract/inventory/CheeseProducerInventoryStorage.sol\":2218:2238  walletCheeseProducer */\n      dup7\n        /* \"Filiera-Token-SmartContract/contracts/Actor/CheeseProducer-smart-contract/inventory/CheeseProducerInventoryStorage.sol\":2205:2239  cheeseBlocks[walletCheeseProducer] */\n      0xffffffffffffffffffffffffffffffffffffffff\n      and\n      0xffffffffffffffffffffffffffffffffffffffff\n      and\n      dup2\n      mstore\n      0x20\n      add\n      swap1\n      dup2\n      mstore\n      0x20\n      add\n      0x00\n      keccak256\n        /* \"Filiera-Token-SmartContract/contracts/Actor/CheeseProducer-smart-contract/inventory/CheeseProducerInventoryStorage.sol\":2205:2244  cheeseBlocks[walletCheeseProducer][_id] */\n      0x00\n        /* \"Filiera-Token-SmartContract/contracts/Actor/CheeseProducer-smart-contract/inventory/CheeseProducerInventoryStorage.sol\":2240:2243  _id */\n      dup6\n        /* \"Filiera-Token-SmartContract/contracts/Actor/CheeseProducer-smart-contract/inventory/CheeseProducerInventoryStorage.sol\":2205:2244  cheeseBlocks[walletCheeseProducer][_id] */\n      dup2\n      mstore\n      0x20\n      add\n      swap1\n      dup2\n      mstore\n      0x20\n      add\n      0x00\n      keccak256\n        /* \"Filiera-Token-SmartContract/contracts/Actor/CheeseProducer-smart-contract/inventory/CheeseProducerInventoryStorage.sol\":2205:2247  cheeseBlocks[walletCheeseProducer][_id].id */\n      0x00\n      add\n      sload\n        /* \"Filiera-Token-SmartContract/contracts/Actor/CheeseProducer-smart-contract/inventory/CheeseProducerInventoryStorage.sol\":2205:2268  cheeseBlocks[walletCheeseProducer][_id].id == lastIdCheeseBlock */\n      eq\n        /* \"Filiera-Token-SmartContract/contracts/Actor/CheeseProducer-smart-contract/inventory/CheeseProducerInventoryStorage.sol\":2197:2296  require(cheeseBlocks[walletCheeseProducer][_id].id == lastIdCheeseBlock, \"Utente non Autorizzato!\") */\n      tag_44\n      jumpi\n      mload(0x40)\n      0x08c379a000000000000000000000000000000000000000000000000000000000\n      dup2\n      mstore\n      0x04\n      add\n      tag_45\n      swap1\n      tag_46\n      jump\t// in\n    tag_45:\n      mload(0x40)\n      dup1\n      swap2\n      sub\n      swap1\n      revert\n    tag_44:\n        /* \"Filiera-Token-SmartContract/contracts/Actor/CheeseProducer-smart-contract/inventory/CheeseProducerInventoryStorage.sol\":2316:2328  cheeseBlocks */\n      0x01\n        /* \"Filiera-Token-SmartContract/contracts/Actor/CheeseProducer-smart-contract/inventory/CheeseProducerInventoryStorage.sol\":2316:2350  cheeseBlocks[walletCheeseProducer] */\n      0x00\n        /* \"Filiera-Token-SmartContract/contracts/Actor/CheeseProducer-smart-contract/inventory/CheeseProducerInventoryStorage.sol\":2329:2349  walletCheeseProducer */\n      dup6\n        /* \"Filiera-Token-SmartContract/contracts/Actor/CheeseProducer-smart-contract/inventory/CheeseProducerInventoryStorage.sol\":2316:2350  cheeseBlocks[walletCheeseProducer] */\n      0xffffffffffffffffffffffffffffffffffffffff\n      and\n      0xffffffffffffffffffffffffffffffffffffffff\n      and\n      dup2\n      mstore\n      0x20\n      add\n      swap1\n      dup2\n      mstore\n      0x20\n      add\n      0x00\n      keccak256\n        /* \"Filiera-Token-SmartContract/contracts/Actor/CheeseProducer-smart-contract/inventory/CheeseProducerInventoryStorage.sol\":2316:2355  cheeseBlocks[walletCheeseProducer][_id] */\n      0x00\n        /* \"Filiera-Token-SmartContract/contracts/Actor/CheeseProducer-smart-contract/inventory/CheeseProducerInventoryStorage.sol\":2351:2354  _id */\n      dup5\n        /* \"Filiera-Token-SmartContract/contracts/Actor/CheeseProducer-smart-contract/inventory/CheeseProducerInventoryStorage.sol\":2316:2355  cheeseBlocks[walletCheeseProducer][_id] */\n      dup2\n      mstore\n      0x20\n      add\n      swap1\n      dup2\n      mstore\n      0x20\n      add\n      0x00\n      keccak256\n      0x00\n        /* \"Filiera-Token-SmartContract/contracts/Actor/CheeseProducer-smart-contract/inventory/CheeseProducerInventoryStorage.sol\":2309:2355  delete cheeseBlocks[walletCheeseProducer][_id] */\n      dup1\n      dup3\n      add\n      0x00\n      swap1\n      sstore\n      0x01\n      dup3\n      add\n      0x00\n      tag_47\n      swap2\n      swap1\n      tag_48\n      jump\t// in\n    tag_47:\n      0x02\n      dup3\n      add\n      0x00\n      swap1\n      sstore\n      0x03\n      dup3\n      add\n      0x00\n      swap1\n      sstore\n      pop\n      pop\n        /* \"Filiera-Token-SmartContract/contracts/Actor/CheeseProducer-smart-contract/inventory/CheeseProducerInventoryStorage.sol\":2375:2379  true */\n      0x01\n        /* \"Filiera-Token-SmartContract/contracts/Actor/CheeseProducer-smart-contract/inventory/CheeseProducerInventoryStorage.sol\":2368:2379  return true */\n      swap2\n      pop\n      pop\n        /* \"Filiera-Token-SmartContract/contracts/Actor/CheeseProducer-smart-contract/inventory/CheeseProducerInventoryStorage.sol\":1675:2387  function deleteCheeseBlock(address walletCheeseProducer, uint256 _id) external returns(bool value) {... */\n      swap3\n      swap2\n      pop\n      pop\n      jump\t// out\n    tag_48:\n      pop\n      dup1\n      sload\n      tag_49\n      swap1\n      tag_26\n      jump\t// in\n    tag_49:\n      0x00\n      dup3\n      sstore\n      dup1\n      0x1f\n      lt\n      tag_51\n      jumpi\n      pop\n      jump(tag_50)\n    tag_51:\n      0x1f\n      add\n      0x20\n      swap1\n      div\n      swap1\n      0x00\n      mstore\n      keccak256(0x00, 0x20)\n      swap1\n      dup2\n      add\n      swap1\n      tag_52\n      swap2\n      swap1\n      tag_53\n      jump\t// in\n    tag_52:\n    tag_50:\n      pop\n      jump\t// out\n    tag_53:\n    tag_54:\n      dup1\n      dup3\n      gt\n      iszero\n      tag_55\n      jumpi\n      0x00\n      dup2\n      0x00\n      swap1\n      sstore\n      pop\n      0x01\n      add\n      jump(tag_54)\n    tag_55:\n      pop\n      swap1\n      jump\t// out\n        /* \"#utility.yul\":7:82   */\n    tag_56:\n        /* \"#utility.yul\":40:46   */\n      0x00\n        /* \"#utility.yul\":73:75   */\n      0x40\n        /* \"#utility.yul\":67:76   */\n      mload\n        /* \"#utility.yul\":57:76   */\n      swap1\n      pop\n        /* \"#utility.yul\":7:82   */\n      swap1\n      jump\t// out\n        /* \"#utility.yul\":88:205   */\n    tag_57:\n        /* \"#utility.yul\":197:198   */\n      0x00\n        /* \"#utility.yul\":194:195   */\n      dup1\n        /* \"#utility.yul\":187:199   */\n      revert\n        /* \"#utility.yul\":211:328   */\n    tag_58:\n        /* \"#utility.yul\":320:321   */\n      0x00\n        /* \"#utility.yul\":317:318   */\n      dup1\n        /* \"#utility.yul\":310:322   */\n      revert\n        /* \"#utility.yul\":334:460   */\n    tag_59:\n        /* \"#utility.yul\":371:378   */\n      0x00\n        /* \"#utility.yul\":411:453   */\n      0xffffffffffffffffffffffffffffffffffffffff\n        /* \"#utility.yul\":404:409   */\n      dup3\n        /* \"#utility.yul\":400:454   */\n      and\n        /* \"#utility.yul\":389:454   */\n      swap1\n      pop\n        /* \"#utility.yul\":334:460   */\n      swap2\n      swap1\n      pop\n      jump\t// out\n        /* \"#utility.yul\":466:562   */\n    tag_60:\n        /* \"#utility.yul\":503:510   */\n      0x00\n        /* \"#utility.yul\":532:556   */\n      tag_120\n        /* \"#utility.yul\":550:555   */\n      dup3\n        /* \"#utility.yul\":532:556   */\n      tag_59\n      jump\t// in\n    tag_120:\n        /* \"#utility.yul\":521:556   */\n      swap1\n      pop\n        /* \"#utility.yul\":466:562   */\n      swap2\n      swap1\n      pop\n      jump\t// out\n        /* \"#utility.yul\":568:690   */\n    tag_61:\n        /* \"#utility.yul\":641:665   */\n      tag_122\n        /* \"#utility.yul\":659:664   */\n      dup2\n        /* \"#utility.yul\":641:665   */\n      tag_60\n      jump\t// in\n    tag_122:\n        /* \"#utility.yul\":634:639   */\n      dup2\n        /* \"#utility.yul\":631:666   */\n      eq\n        /* \"#utility.yul\":621:684   */\n      tag_123\n      jumpi\n        /* \"#utility.yul\":680:681   */\n      0x00\n        /* \"#utility.yul\":677:678   */\n      dup1\n        /* \"#utility.yul\":670:682   */\n      revert\n        /* \"#utility.yul\":621:684   */\n    tag_123:\n        /* \"#utility.yul\":568:690   */\n      pop\n      jump\t// out\n        /* \"#utility.yul\":696:835   */\n    tag_62:\n        /* \"#utility.yul\":742:747   */\n      0x00\n        /* \"#utility.yul\":780:786   */\n      dup2\n        /* \"#utility.yul\":767:787   */\n      calldataload\n        /* \"#utility.yul\":758:787   */\n      swap1\n      pop\n        /* \"#utility.yul\":796:829   */\n      tag_125\n        /* \"#utility.yul\":823:828   */\n      dup2\n        /* \"#utility.yul\":796:829   */\n      tag_61\n      jump\t// in\n    tag_125:\n        /* \"#utility.yul\":696:835   */\n      swap3\n      swap2\n      pop\n      pop\n      jump\t// out\n        /* \"#utility.yul\":841:918   */\n    tag_63:\n        /* \"#utility.yul\":878:885   */\n      0x00\n        /* \"#utility.yul\":907:912   */\n      dup2\n        /* \"#utility.yul\":896:912   */\n      swap1\n      pop\n        /* \"#utility.yul\":841:918   */\n      swap2\n      swap1\n      pop\n      jump\t// out\n        /* \"#utility.yul\":924:1046   */\n    tag_64:\n        /* \"#utility.yul\":997:1021   */\n      tag_128\n        /* \"#utility.yul\":1015:1020   */\n      dup2\n        /* \"#utility.yul\":997:1021   */\n      tag_63\n      jump\t// in\n    tag_128:\n        /* \"#utility.yul\":990:995   */\n      dup2\n        /* \"#utility.yul\":987:1022   */\n      eq\n        /* \"#utility.yul\":977:1040   */\n      tag_129\n      jumpi\n        /* \"#utility.yul\":1036:1037   */\n      0x00\n        /* \"#utility.yul\":1033:1034   */\n      dup1\n        /* \"#utility.yul\":1026:1038   */\n      revert\n        /* \"#utility.yul\":977:1040   */\n    tag_129:\n        /* \"#utility.yul\":924:1046   */\n      pop\n      jump\t// out\n        /* \"#utility.yul\":1052:1191   */\n    tag_65:\n        /* \"#utility.yul\":1098:1103   */\n      0x00\n        /* \"#utility.yul\":1136:1142   */\n      dup2\n        /* \"#utility.yul\":1123:1143   */\n      calldataload\n        /* \"#utility.yul\":1114:1143   */\n      swap1\n      pop\n        /* \"#utility.yul\":1152:1185   */\n      tag_131\n        /* \"#utility.yul\":1179:1184   */\n      dup2\n        /* \"#utility.yul\":1152:1185   */\n      tag_64\n      jump\t// in\n    tag_131:\n        /* \"#utility.yul\":1052:1191   */\n      swap3\n      swap2\n      pop\n      pop\n      jump\t// out\n        /* \"#utility.yul\":1197:1671   */\n    tag_8:\n        /* \"#utility.yul\":1265:1271   */\n      0x00\n        /* \"#utility.yul\":1273:1279   */\n      dup1\n        /* \"#utility.yul\":1322:1324   */\n      0x40\n        /* \"#utility.yul\":1310:1319   */\n      dup4\n        /* \"#utility.yul\":1301:1308   */\n      dup6\n        /* \"#utility.yul\":1297:1320   */\n      sub\n        /* \"#utility.yul\":1293:1325   */\n      slt\n        /* \"#utility.yul\":1290:1409   */\n      iszero\n      tag_133\n      jumpi\n        /* \"#utility.yul\":1328:1407   */\n      tag_134\n      tag_57\n      jump\t// in\n    tag_134:\n        /* \"#utility.yul\":1290:1409   */\n    tag_133:\n        /* \"#utility.yul\":1448:1449   */\n      0x00\n        /* \"#utility.yul\":1473:1526   */\n      tag_135\n        /* \"#utility.yul\":1518:1525   */\n      dup6\n        /* \"#utility.yul\":1509:1515   */\n      dup3\n        /* \"#utility.yul\":1498:1507   */\n      dup7\n        /* \"#utility.yul\":1494:1516   */\n      add\n        /* \"#utility.yul\":1473:1526   */\n      tag_62\n      jump\t// in\n    tag_135:\n        /* \"#utility.yul\":1463:1526   */\n      swap3\n      pop\n        /* \"#utility.yul\":1419:1536   */\n      pop\n        /* \"#utility.yul\":1575:1577   */\n      0x20\n        /* \"#utility.yul\":1601:1654   */\n      tag_136\n        /* \"#utility.yul\":1646:1653   */\n      dup6\n        /* \"#utility.yul\":1637:1643   */\n      dup3\n        /* \"#utility.yul\":1626:1635   */\n      dup7\n        /* \"#utility.yul\":1622:1644   */\n      add\n        /* \"#utility.yul\":1601:1654   */\n      tag_65\n      jump\t// in\n    tag_136:\n        /* \"#utility.yul\":1591:1654   */\n      swap2\n      pop\n        /* \"#utility.yul\":1546:1664   */\n      pop\n        /* \"#utility.yul\":1197:1671   */\n      swap3\n      pop\n      swap3\n      swap1\n      pop\n      jump\t// out\n        /* \"#utility.yul\":1677:1795   */\n    tag_66:\n        /* \"#utility.yul\":1764:1788   */\n      tag_138\n        /* \"#utility.yul\":1782:1787   */\n      dup2\n        /* \"#utility.yul\":1764:1788   */\n      tag_63\n      jump\t// in\n    tag_138:\n        /* \"#utility.yul\":1759:1762   */\n      dup3\n        /* \"#utility.yul\":1752:1789   */\n      mstore\n        /* \"#utility.yul\":1677:1795   */\n      pop\n      pop\n      jump\t// out\n        /* \"#utility.yul\":1801:1900   */\n    tag_67:\n        /* \"#utility.yul\":1853:1859   */\n      0x00\n        /* \"#utility.yul\":1887:1892   */\n      dup2\n        /* \"#utility.yul\":1881:1893   */\n      mload\n        /* \"#utility.yul\":1871:1893   */\n      swap1\n      pop\n        /* \"#utility.yul\":1801:1900   */\n      swap2\n      swap1\n      pop\n      jump\t// out\n        /* \"#utility.yul\":1906:2075   */\n    tag_68:\n        /* \"#utility.yul\":1990:2001   */\n      0x00\n        /* \"#utility.yul\":2024:2030   */\n      dup3\n        /* \"#utility.yul\":2019:2022   */\n      dup3\n        /* \"#utility.yul\":2012:2031   */\n      mstore\n        /* \"#utility.yul\":2064:2068   */\n      0x20\n        /* \"#utility.yul\":2059:2062   */\n      dup3\n        /* \"#utility.yul\":2055:2069   */\n      add\n        /* \"#utility.yul\":2040:2069   */\n      swap1\n      pop\n        /* \"#utility.yul\":1906:2075   */\n      swap3\n      swap2\n      pop\n      pop\n      jump\t// out\n        /* \"#utility.yul\":2081:2327   */\n    tag_69:\n        /* \"#utility.yul\":2162:2163   */\n      0x00\n        /* \"#utility.yul\":2172:2285   */\n    tag_142:\n        /* \"#utility.yul\":2186:2192   */\n      dup4\n        /* \"#utility.yul\":2183:2184   */\n      dup2\n        /* \"#utility.yul\":2180:2193   */\n      lt\n        /* \"#utility.yul\":2172:2285   */\n      iszero\n      tag_144\n      jumpi\n        /* \"#utility.yul\":2271:2272   */\n      dup1\n        /* \"#utility.yul\":2266:2269   */\n      dup3\n        /* \"#utility.yul\":2262:2273   */\n      add\n        /* \"#utility.yul\":2256:2274   */\n      mload\n        /* \"#utility.yul\":2252:2253   */\n      dup2\n        /* \"#utility.yul\":2247:2250   */\n      dup5\n        /* \"#utility.yul\":2243:2254   */\n      add\n        /* \"#utility.yul\":2236:2275   */\n      mstore\n        /* \"#utility.yul\":2208:2210   */\n      0x20\n        /* \"#utility.yul\":2205:2206   */\n      dup2\n        /* \"#utility.yul\":2201:2211   */\n      add\n        /* \"#utility.yul\":2196:2211   */\n      swap1\n      pop\n        /* \"#utility.yul\":2172:2285   */\n      jump(tag_142)\n    tag_144:\n        /* \"#utility.yul\":2319:2320   */\n      0x00\n        /* \"#utility.yul\":2310:2316   */\n      dup5\n        /* \"#utility.yul\":2305:2308   */\n      dup5\n        /* \"#utility.yul\":2301:2317   */\n      add\n        /* \"#utility.yul\":2294:2321   */\n      mstore\n        /* \"#utility.yul\":2143:2327   */\n      pop\n        /* \"#utility.yul\":2081:2327   */\n      pop\n      pop\n      pop\n      jump\t// out\n        /* \"#utility.yul\":2333:2435   */\n    tag_70:\n        /* \"#utility.yul\":2374:2380   */\n      0x00\n        /* \"#utility.yul\":2425:2427   */\n      0x1f\n        /* \"#utility.yul\":2421:2428   */\n      not\n        /* \"#utility.yul\":2416:2418   */\n      0x1f\n        /* \"#utility.yul\":2409:2414   */\n      dup4\n        /* \"#utility.yul\":2405:2419   */\n      add\n        /* \"#utility.yul\":2401:2429   */\n      and\n        /* \"#utility.yul\":2391:2429   */\n      swap1\n      pop\n        /* \"#utility.yul\":2333:2435   */\n      swap2\n      swap1\n      pop\n      jump\t// out\n        /* \"#utility.yul\":2441:2818   */\n    tag_71:\n        /* \"#utility.yul\":2529:2532   */\n      0x00\n        /* \"#utility.yul\":2557:2596   */\n      tag_147\n        /* \"#utility.yul\":2590:2595   */\n      dup3\n        /* \"#utility.yul\":2557:2596   */\n      tag_67\n      jump\t// in\n    tag_147:\n        /* \"#utility.yul\":2612:2683   */\n      tag_148\n        /* \"#utility.yul\":2676:2682   */\n      dup2\n        /* \"#utility.yul\":2671:2674   */\n      dup6\n        /* \"#utility.yul\":2612:2683   */\n      tag_68\n      jump\t// in\n    tag_148:\n        /* \"#utility.yul\":2605:2683   */\n      swap4\n      pop\n        /* \"#utility.yul\":2692:2757   */\n      tag_149\n        /* \"#utility.yul\":2750:2756   */\n      dup2\n        /* \"#utility.yul\":2745:2748   */\n      dup6\n        /* \"#utility.yul\":2738:2742   */\n      0x20\n        /* \"#utility.yul\":2731:2736   */\n      dup7\n        /* \"#utility.yul\":2727:2743   */\n      add\n        /* \"#utility.yul\":2692:2757   */\n      tag_69\n      jump\t// in\n    tag_149:\n        /* \"#utility.yul\":2782:2811   */\n      tag_150\n        /* \"#utility.yul\":2804:2810   */\n      dup2\n        /* \"#utility.yul\":2782:2811   */\n      tag_70\n      jump\t// in\n    tag_150:\n        /* \"#utility.yul\":2777:2780   */\n      dup5\n        /* \"#utility.yul\":2773:2812   */\n      add\n        /* \"#utility.yul\":2766:2812   */\n      swap2\n      pop\n        /* \"#utility.yul\":2533:2818   */\n      pop\n        /* \"#utility.yul\":2441:2818   */\n      swap3\n      swap2\n      pop\n      pop\n      jump\t// out\n        /* \"#utility.yul\":2824:3468   */\n    tag_11:\n        /* \"#utility.yul\":3021:3025   */\n      0x00\n        /* \"#utility.yul\":3059:3062   */\n      0x80\n        /* \"#utility.yul\":3048:3057   */\n      dup3\n        /* \"#utility.yul\":3044:3063   */\n      add\n        /* \"#utility.yul\":3036:3063   */\n      swap1\n      pop\n        /* \"#utility.yul\":3073:3144   */\n      tag_152\n        /* \"#utility.yul\":3141:3142   */\n      0x00\n        /* \"#utility.yul\":3130:3139   */\n      dup4\n        /* \"#utility.yul\":3126:3143   */\n      add\n        /* \"#utility.yul\":3117:3123   */\n      dup8\n        /* \"#utility.yul\":3073:3144   */\n      tag_66\n      jump\t// in\n    tag_152:\n        /* \"#utility.yul\":3191:3200   */\n      dup2\n        /* \"#utility.yul\":3185:3189   */\n      dup2\n        /* \"#utility.yul\":3181:3201   */\n      sub\n        /* \"#utility.yul\":3176:3178   */\n      0x20\n        /* \"#utility.yul\":3165:3174   */\n      dup4\n        /* \"#utility.yul\":3161:3179   */\n      add\n        /* \"#utility.yul\":3154:3202   */\n      mstore\n        /* \"#utility.yul\":3219:3297   */\n      tag_153\n        /* \"#utility.yul\":3292:3296   */\n      dup2\n        /* \"#utility.yul\":3283:3289   */\n      dup7\n        /* \"#utility.yul\":3219:3297   */\n      tag_71\n      jump\t// in\n    tag_153:\n        /* \"#utility.yul\":3211:3297   */\n      swap1\n      pop\n        /* \"#utility.yul\":3307:3379   */\n      tag_154\n        /* \"#utility.yul\":3375:3377   */\n      0x40\n        /* \"#utility.yul\":3364:3373   */\n      dup4\n        /* \"#utility.yul\":3360:3378   */\n      add\n        /* \"#utility.yul\":3351:3357   */\n      dup6\n        /* \"#utility.yul\":3307:3379   */\n      tag_66\n      jump\t// in\n    tag_154:\n        /* \"#utility.yul\":3389:3461   */\n      tag_155\n        /* \"#utility.yul\":3457:3459   */\n      0x60\n        /* \"#utility.yul\":3446:3455   */\n      dup4\n        /* \"#utility.yul\":3442:3460   */\n      add\n        /* \"#utility.yul\":3433:3439   */\n      dup5\n        /* \"#utility.yul\":3389:3461   */\n      tag_66\n      jump\t// in\n    tag_155:\n        /* \"#utility.yul\":2824:3468   */\n      swap6\n      swap5\n      pop\n      pop\n      pop\n      pop\n      pop\n      jump\t// out\n        /* \"#utility.yul\":3474:3591   */\n    tag_72:\n        /* \"#utility.yul\":3583:3584   */\n      0x00\n        /* \"#utility.yul\":3580:3581   */\n      dup1\n        /* \"#utility.yul\":3573:3585   */\n      revert\n        /* \"#utility.yul\":3597:3714   */\n    tag_73:\n        /* \"#utility.yul\":3706:3707   */\n      0x00\n        /* \"#utility.yul\":3703:3704   */\n      dup1\n        /* \"#utility.yul\":3696:3708   */\n      revert\n        /* \"#utility.yul\":3720:3900   */\n    tag_74:\n        /* \"#utility.yul\":3768:3845   */\n      0x4e487b7100000000000000000000000000000000000000000000000000000000\n        /* \"#utility.yul\":3765:3766   */\n      0x00\n        /* \"#utility.yul\":3758:3846   */\n      mstore\n        /* \"#utility.yul\":3865:3869   */\n      0x41\n        /* \"#utility.yul\":3862:3863   */\n      0x04\n        /* \"#utility.yul\":3855:3870   */\n      mstore\n        /* \"#utility.yul\":3889:3893   */\n      0x24\n        /* \"#utility.yul\":3886:3887   */\n      0x00\n        /* \"#utility.yul\":3879:3894   */\n      revert\n        /* \"#utility.yul\":3906:4187   */\n    tag_75:\n        /* \"#utility.yul\":3989:4016   */\n      tag_160\n        /* \"#utility.yul\":4011:4015   */\n      dup3\n        /* \"#utility.yul\":3989:4016   */\n      tag_70\n      jump\t// in\n    tag_160:\n        /* \"#utility.yul\":3981:3987   */\n      dup2\n        /* \"#utility.yul\":3977:4017   */\n      add\n        /* \"#utility.yul\":4119:4125   */\n      dup2\n        /* \"#utility.yul\":4107:4117   */\n      dup2\n        /* \"#utility.yul\":4104:4126   */\n      lt\n        /* \"#utility.yul\":4083:4101   */\n      0xffffffffffffffff\n        /* \"#utility.yul\":4071:4081   */\n      dup3\n        /* \"#utility.yul\":4068:4102   */\n      gt\n        /* \"#utility.yul\":4065:4127   */\n      or\n        /* \"#utility.yul\":4062:4150   */\n      iszero\n      tag_161\n      jumpi\n        /* \"#utility.yul\":4130:4148   */\n      tag_162\n      tag_74\n      jump\t// in\n    tag_162:\n        /* \"#utility.yul\":4062:4150   */\n    tag_161:\n        /* \"#utility.yul\":4170:4180   */\n      dup1\n        /* \"#utility.yul\":4166:4168   */\n      0x40\n        /* \"#utility.yul\":4159:4181   */\n      mstore\n        /* \"#utility.yul\":3949:4187   */\n      pop\n        /* \"#utility.yul\":3906:4187   */\n      pop\n      pop\n      jump\t// out\n        /* \"#utility.yul\":4193:4322   */\n    tag_76:\n        /* \"#utility.yul\":4227:4233   */\n      0x00\n        /* \"#utility.yul\":4254:4274   */\n      tag_164\n      tag_56\n      jump\t// in\n    tag_164:\n        /* \"#utility.yul\":4244:4274   */\n      swap1\n      pop\n        /* \"#utility.yul\":4283:4316   */\n      tag_165\n        /* \"#utility.yul\":4311:4315   */\n      dup3\n        /* \"#utility.yul\":4303:4309   */\n      dup3\n        /* \"#utility.yul\":4283:4316   */\n      tag_75\n      jump\t// in\n    tag_165:\n        /* \"#utility.yul\":4193:4322   */\n      swap2\n      swap1\n      pop\n      jump\t// out\n        /* \"#utility.yul\":4328:4636   */\n    tag_77:\n        /* \"#utility.yul\":4390:4394   */\n      0x00\n        /* \"#utility.yul\":4480:4498   */\n      0xffffffffffffffff\n        /* \"#utility.yul\":4472:4478   */\n      dup3\n        /* \"#utility.yul\":4469:4499   */\n      gt\n        /* \"#utility.yul\":4466:4522   */\n      iszero\n      tag_167\n      jumpi\n        /* \"#utility.yul\":4502:4520   */\n      tag_168\n      tag_74\n      jump\t// in\n    tag_168:\n        /* \"#utility.yul\":4466:4522   */\n    tag_167:\n        /* \"#utility.yul\":4540:4569   */\n      tag_169\n        /* \"#utility.yul\":4562:4568   */\n      dup3\n        /* \"#utility.yul\":4540:4569   */\n      tag_70\n      jump\t// in\n    tag_169:\n        /* \"#utility.yul\":4532:4569   */\n      swap1\n      pop\n        /* \"#utility.yul\":4624:4628   */\n      0x20\n        /* \"#utility.yul\":4618:4622   */\n      dup2\n        /* \"#utility.yul\":4614:4629   */\n      add\n        /* \"#utility.yul\":4606:4629   */\n      swap1\n      pop\n        /* \"#utility.yul\":4328:4636   */\n      swap2\n      swap1\n      pop\n      jump\t// out\n        /* \"#utility.yul\":4642:4788   */\n    tag_78:\n        /* \"#utility.yul\":4739:4745   */\n      dup3\n        /* \"#utility.yul\":4734:4737   */\n      dup2\n        /* \"#utility.yul\":4729:4732   */\n      dup4\n        /* \"#utility.yul\":4716:4746   */\n      calldatacopy\n        /* \"#utility.yul\":4780:4781   */\n      0x00\n        /* \"#utility.yul\":4771:4777   */\n      dup4\n        /* \"#utility.yul\":4766:4769   */\n      dup4\n        /* \"#utility.yul\":4762:4778   */\n      add\n        /* \"#utility.yul\":4755:4782   */\n      mstore\n        /* \"#utility.yul\":4642:4788   */\n      pop\n      pop\n      pop\n      jump\t// out\n        /* \"#utility.yul\":4794:5219   */\n    tag_79:\n        /* \"#utility.yul\":4872:4877   */\n      0x00\n        /* \"#utility.yul\":4897:4963   */\n      tag_172\n        /* \"#utility.yul\":4913:4962   */\n      tag_173\n        /* \"#utility.yul\":4955:4961   */\n      dup5\n        /* \"#utility.yul\":4913:4962   */\n      tag_77\n      jump\t// in\n    tag_173:\n        /* \"#utility.yul\":4897:4963   */\n      tag_76\n      jump\t// in\n    tag_172:\n        /* \"#utility.yul\":4888:4963   */\n      swap1\n      pop\n        /* \"#utility.yul\":4986:4992   */\n      dup3\n        /* \"#utility.yul\":4979:4984   */\n      dup2\n        /* \"#utility.yul\":4972:4993   */\n      mstore\n        /* \"#utility.yul\":5024:5028   */\n      0x20\n        /* \"#utility.yul\":5017:5022   */\n      dup2\n        /* \"#utility.yul\":5013:5029   */\n      add\n        /* \"#utility.yul\":5062:5065   */\n      dup5\n        /* \"#utility.yul\":5053:5059   */\n      dup5\n        /* \"#utility.yul\":5048:5051   */\n      dup5\n        /* \"#utility.yul\":5044:5060   */\n      add\n        /* \"#utility.yul\":5041:5066   */\n      gt\n        /* \"#utility.yul\":5038:5150   */\n      iszero\n      tag_174\n      jumpi\n        /* \"#utility.yul\":5069:5148   */\n      tag_175\n      tag_73\n      jump\t// in\n    tag_175:\n        /* \"#utility.yul\":5038:5150   */\n    tag_174:\n        /* \"#utility.yul\":5159:5213   */\n      tag_176\n        /* \"#utility.yul\":5206:5212   */\n      dup5\n        /* \"#utility.yul\":5201:5204   */\n      dup3\n        /* \"#utility.yul\":5196:5199   */\n      dup6\n        /* \"#utility.yul\":5159:5213   */\n      tag_78\n      jump\t// in\n    tag_176:\n        /* \"#utility.yul\":4878:5219   */\n      pop\n        /* \"#utility.yul\":4794:5219   */\n      swap4\n      swap3\n      pop\n      pop\n      pop\n      jump\t// out\n        /* \"#utility.yul\":5239:5579   */\n    tag_80:\n        /* \"#utility.yul\":5295:5300   */\n      0x00\n        /* \"#utility.yul\":5344:5347   */\n      dup3\n        /* \"#utility.yul\":5337:5341   */\n      0x1f\n        /* \"#utility.yul\":5329:5335   */\n      dup4\n        /* \"#utility.yul\":5325:5342   */\n      add\n        /* \"#utility.yul\":5321:5348   */\n      slt\n        /* \"#utility.yul\":5311:5433   */\n      tag_178\n      jumpi\n        /* \"#utility.yul\":5352:5431   */\n      tag_179\n      tag_72\n      jump\t// in\n    tag_179:\n        /* \"#utility.yul\":5311:5433   */\n    tag_178:\n        /* \"#utility.yul\":5469:5475   */\n      dup2\n        /* \"#utility.yul\":5456:5476   */\n      calldataload\n        /* \"#utility.yul\":5494:5573   */\n      tag_180\n        /* \"#utility.yul\":5569:5572   */\n      dup5\n        /* \"#utility.yul\":5561:5567   */\n      dup3\n        /* \"#utility.yul\":5554:5558   */\n      0x20\n        /* \"#utility.yul\":5546:5552   */\n      dup7\n        /* \"#utility.yul\":5542:5559   */\n      add\n        /* \"#utility.yul\":5494:5573   */\n      tag_79\n      jump\t// in\n    tag_180:\n        /* \"#utility.yul\":5485:5573   */\n      swap2\n      pop\n        /* \"#utility.yul\":5301:5579   */\n      pop\n        /* \"#utility.yul\":5239:5579   */\n      swap3\n      swap2\n      pop\n      pop\n      jump\t// out\n        /* \"#utility.yul\":5585:6530   */\n    tag_14:\n        /* \"#utility.yul\":5681:5687   */\n      0x00\n        /* \"#utility.yul\":5689:5695   */\n      dup1\n        /* \"#utility.yul\":5697:5703   */\n      0x00\n        /* \"#utility.yul\":5705:5711   */\n      dup1\n        /* \"#utility.yul\":5754:5757   */\n      0x80\n        /* \"#utility.yul\":5742:5751   */\n      dup6\n        /* \"#utility.yul\":5733:5740   */\n      dup8\n        /* \"#utility.yul\":5729:5752   */\n      sub\n        /* \"#utility.yul\":5725:5758   */\n      slt\n        /* \"#utility.yul\":5722:5842   */\n      iszero\n      tag_182\n      jumpi\n        /* \"#utility.yul\":5761:5840   */\n      tag_183\n      tag_57\n      jump\t// in\n    tag_183:\n        /* \"#utility.yul\":5722:5842   */\n    tag_182:\n        /* \"#utility.yul\":5881:5882   */\n      0x00\n        /* \"#utility.yul\":5906:5959   */\n      tag_184\n        /* \"#utility.yul\":5951:5958   */\n      dup8\n        /* \"#utility.yul\":5942:5948   */\n      dup3\n        /* \"#utility.yul\":5931:5940   */\n      dup9\n        /* \"#utility.yul\":5927:5949   */\n      add\n        /* \"#utility.yul\":5906:5959   */\n      tag_62\n      jump\t// in\n    tag_184:\n        /* \"#utility.yul\":5896:5959   */\n      swap5\n      pop\n        /* \"#utility.yul\":5852:5969   */\n      pop\n        /* \"#utility.yul\":6036:6038   */\n      0x20\n        /* \"#utility.yul\":6025:6034   */\n      dup6\n        /* \"#utility.yul\":6021:6039   */\n      add\n        /* \"#utility.yul\":6008:6040   */\n      calldataload\n        /* \"#utility.yul\":6067:6085   */\n      0xffffffffffffffff\n        /* \"#utility.yul\":6059:6065   */\n      dup2\n        /* \"#utility.yul\":6056:6086   */\n      gt\n        /* \"#utility.yul\":6053:6170   */\n      iszero\n      tag_185\n      jumpi\n        /* \"#utility.yul\":6089:6168   */\n      tag_186\n      tag_58\n      jump\t// in\n    tag_186:\n        /* \"#utility.yul\":6053:6170   */\n    tag_185:\n        /* \"#utility.yul\":6194:6257   */\n      tag_187\n        /* \"#utility.yul\":6249:6256   */\n      dup8\n        /* \"#utility.yul\":6240:6246   */\n      dup3\n        /* \"#utility.yul\":6229:6238   */\n      dup9\n        /* \"#utility.yul\":6225:6247   */\n      add\n        /* \"#utility.yul\":6194:6257   */\n      tag_80\n      jump\t// in\n    tag_187:\n        /* \"#utility.yul\":6184:6257   */\n      swap4\n      pop\n        /* \"#utility.yul\":5979:6267   */\n      pop\n        /* \"#utility.yul\":6306:6308   */\n      0x40\n        /* \"#utility.yul\":6332:6385   */\n      tag_188\n        /* \"#utility.yul\":6377:6384   */\n      dup8\n        /* \"#utility.yul\":6368:6374   */\n      dup3\n        /* \"#utility.yul\":6357:6366   */\n      dup9\n        /* \"#utility.yul\":6353:6375   */\n      add\n        /* \"#utility.yul\":6332:6385   */\n      tag_65\n      jump\t// in\n    tag_188:\n        /* \"#utility.yul\":6322:6385   */\n      swap3\n      pop\n        /* \"#utility.yul\":6277:6395   */\n      pop\n        /* \"#utility.yul\":6434:6436   */\n      0x60\n        /* \"#utility.yul\":6460:6513   */\n      tag_189\n        /* \"#utility.yul\":6505:6512   */\n      dup8\n        /* \"#utility.yul\":6496:6502   */\n      dup3\n        /* \"#utility.yul\":6485:6494   */\n      dup9\n        /* \"#utility.yul\":6481:6503   */\n      add\n        /* \"#utility.yul\":6460:6513   */\n      tag_65\n      jump\t// in\n    tag_189:\n        /* \"#utility.yul\":6450:6513   */\n      swap2\n      pop\n        /* \"#utility.yul\":6405:6523   */\n      pop\n        /* \"#utility.yul\":5585:6530   */\n      swap3\n      swap6\n      swap2\n      swap5\n      pop\n      swap3\n      pop\n      jump\t// out\n        /* \"#utility.yul\":6536:6626   */\n    tag_81:\n        /* \"#utility.yul\":6570:6577   */\n      0x00\n        /* \"#utility.yul\":6613:6618   */\n      dup2\n        /* \"#utility.yul\":6606:6619   */\n      iszero\n        /* \"#utility.yul\":6599:6620   */\n      iszero\n        /* \"#utility.yul\":6588:6620   */\n      swap1\n      pop\n        /* \"#utility.yul\":6536:6626   */\n      swap2\n      swap1\n      pop\n      jump\t// out\n        /* \"#utility.yul\":6632:6741   */\n    tag_82:\n        /* \"#utility.yul\":6713:6734   */\n      tag_192\n        /* \"#utility.yul\":6728:6733   */\n      dup2\n        /* \"#utility.yul\":6713:6734   */\n      tag_81\n      jump\t// in\n    tag_192:\n        /* \"#utility.yul\":6708:6711   */\n      dup3\n        /* \"#utility.yul\":6701:6735   */\n      mstore\n        /* \"#utility.yul\":6632:6741   */\n      pop\n      pop\n      jump\t// out\n        /* \"#utility.yul\":6747:6957   */\n    tag_20:\n        /* \"#utility.yul\":6834:6838   */\n      0x00\n        /* \"#utility.yul\":6872:6874   */\n      0x20\n        /* \"#utility.yul\":6861:6870   */\n      dup3\n        /* \"#utility.yul\":6857:6875   */\n      add\n        /* \"#utility.yul\":6849:6875   */\n      swap1\n      pop\n        /* \"#utility.yul\":6885:6950   */\n      tag_194\n        /* \"#utility.yul\":6947:6948   */\n      0x00\n        /* \"#utility.yul\":6936:6945   */\n      dup4\n        /* \"#utility.yul\":6932:6949   */\n      add\n        /* \"#utility.yul\":6923:6929   */\n      dup5\n        /* \"#utility.yul\":6885:6950   */\n      tag_82\n      jump\t// in\n    tag_194:\n        /* \"#utility.yul\":6747:6957   */\n      swap3\n      swap2\n      pop\n      pop\n      jump\t// out\n        /* \"#utility.yul\":6963:7183   */\n    tag_83:\n        /* \"#utility.yul\":7103:7137   */\n      0x426c6f63636f20646920666f726d616767696f206e6f6e2070726573656e7465\n        /* \"#utility.yul\":7099:7100   */\n      0x00\n        /* \"#utility.yul\":7091:7097   */\n      dup3\n        /* \"#utility.yul\":7087:7101   */\n      add\n        /* \"#utility.yul\":7080:7138   */\n      mstore\n        /* \"#utility.yul\":7172:7175   */\n      0x2100000000000000000000000000000000000000000000000000000000000000\n        /* \"#utility.yul\":7167:7169   */\n      0x20\n        /* \"#utility.yul\":7159:7165   */\n      dup3\n        /* \"#utility.yul\":7155:7170   */\n      add\n        /* \"#utility.yul\":7148:7176   */\n      mstore\n        /* \"#utility.yul\":6963:7183   */\n      pop\n      jump\t// out\n        /* \"#utility.yul\":7189:7555   */\n    tag_84:\n        /* \"#utility.yul\":7331:7334   */\n      0x00\n        /* \"#utility.yul\":7352:7419   */\n      tag_197\n        /* \"#utility.yul\":7416:7418   */\n      0x21\n        /* \"#utility.yul\":7411:7414   */\n      dup4\n        /* \"#utility.yul\":7352:7419   */\n      tag_68\n      jump\t// in\n    tag_197:\n        /* \"#utility.yul\":7345:7419   */\n      swap2\n      pop\n        /* \"#utility.yul\":7428:7521   */\n      tag_198\n        /* \"#utility.yul\":7517:7520   */\n      dup3\n        /* \"#utility.yul\":7428:7521   */\n      tag_83\n      jump\t// in\n    tag_198:\n        /* \"#utility.yul\":7546:7548   */\n      0x40\n        /* \"#utility.yul\":7541:7544   */\n      dup3\n        /* \"#utility.yul\":7537:7549   */\n      add\n        /* \"#utility.yul\":7530:7549   */\n      swap1\n      pop\n        /* \"#utility.yul\":7189:7555   */\n      swap2\n      swap1\n      pop\n      jump\t// out\n        /* \"#utility.yul\":7561:7980   */\n    tag_24:\n        /* \"#utility.yul\":7727:7731   */\n      0x00\n        /* \"#utility.yul\":7765:7767   */\n      0x20\n        /* \"#utility.yul\":7754:7763   */\n      dup3\n        /* \"#utility.yul\":7750:7768   */\n      add\n        /* \"#utility.yul\":7742:7768   */\n      swap1\n      pop\n        /* \"#utility.yul\":7814:7823   */\n      dup2\n        /* \"#utility.yul\":7808:7812   */\n      dup2\n        /* \"#utility.yul\":7804:7824   */\n      sub\n        /* \"#utility.yul\":7800:7801   */\n      0x00\n        /* \"#utility.yul\":7789:7798   */\n      dup4\n        /* \"#utility.yul\":7785:7802   */\n      add\n        /* \"#utility.yul\":7778:7825   */\n      mstore\n        /* \"#utility.yul\":7842:7973   */\n      tag_200\n        /* \"#utility.yul\":7968:7972   */\n      dup2\n        /* \"#utility.yul\":7842:7973   */\n      tag_84\n      jump\t// in\n    tag_200:\n        /* \"#utility.yul\":7834:7973   */\n      swap1\n      pop\n        /* \"#utility.yul\":7561:7980   */\n      swap2\n      swap1\n      pop\n      jump\t// out\n        /* \"#utility.yul\":7986:8166   */\n    tag_85:\n        /* \"#utility.yul\":8034:8111   */\n      0x4e487b7100000000000000000000000000000000000000000000000000000000\n        /* \"#utility.yul\":8031:8032   */\n      0x00\n        /* \"#utility.yul\":8024:8112   */\n      mstore\n        /* \"#utility.yul\":8131:8135   */\n      0x22\n        /* \"#utility.yul\":8128:8129   */\n      0x04\n        /* \"#utility.yul\":8121:8136   */\n      mstore\n        /* \"#utility.yul\":8155:8159   */\n      0x24\n        /* \"#utility.yul\":8152:8153   */\n      0x00\n        /* \"#utility.yul\":8145:8160   */\n      revert\n        /* \"#utility.yul\":8172:8492   */\n    tag_26:\n        /* \"#utility.yul\":8216:8222   */\n      0x00\n        /* \"#utility.yul\":8253:8254   */\n      0x02\n        /* \"#utility.yul\":8247:8251   */\n      dup3\n        /* \"#utility.yul\":8243:8255   */\n      div\n        /* \"#utility.yul\":8233:8255   */\n      swap1\n      pop\n        /* \"#utility.yul\":8300:8301   */\n      0x01\n        /* \"#utility.yul\":8294:8298   */\n      dup3\n        /* \"#utility.yul\":8290:8302   */\n      and\n        /* \"#utility.yul\":8321:8339   */\n      dup1\n        /* \"#utility.yul\":8311:8392   */\n      tag_203\n      jumpi\n        /* \"#utility.yul\":8377:8381   */\n      0x7f\n        /* \"#utility.yul\":8369:8375   */\n      dup3\n        /* \"#utility.yul\":8365:8382   */\n      and\n        /* \"#utility.yul\":8355:8382   */\n      swap2\n      pop\n        /* \"#utility.yul\":8311:8392   */\n    tag_203:\n        /* \"#utility.yul\":8439:8441   */\n      0x20\n        /* \"#utility.yul\":8431:8437   */\n      dup3\n        /* \"#utility.yul\":8428:8442   */\n      lt\n        /* \"#utility.yul\":8408:8426   */\n      dup2\n        /* \"#utility.yul\":8405:8443   */\n      sub\n        /* \"#utility.yul\":8402:8486   */\n      tag_204\n      jumpi\n        /* \"#utility.yul\":8458:8476   */\n      tag_205\n      tag_85\n      jump\t// in\n    tag_205:\n        /* \"#utility.yul\":8402:8486   */\n    tag_204:\n        /* \"#utility.yul\":8223:8492   */\n      pop\n        /* \"#utility.yul\":8172:8492   */\n      swap2\n      swap1\n      pop\n      jump\t// out\n        /* \"#utility.yul\":8498:8646   */\n    tag_86:\n        /* \"#utility.yul\":8600:8611   */\n      0x00\n        /* \"#utility.yul\":8637:8640   */\n      dup2\n        /* \"#utility.yul\":8622:8640   */\n      swap1\n      pop\n        /* \"#utility.yul\":8498:8646   */\n      swap3\n      swap2\n      pop\n      pop\n      jump\t// out\n        /* \"#utility.yul\":8652:9042   */\n    tag_87:\n        /* \"#utility.yul\":8758:8761   */\n      0x00\n        /* \"#utility.yul\":8786:8825   */\n      tag_208\n        /* \"#utility.yul\":8819:8824   */\n      dup3\n        /* \"#utility.yul\":8786:8825   */\n      tag_67\n      jump\t// in\n    tag_208:\n        /* \"#utility.yul\":8841:8930   */\n      tag_209\n        /* \"#utility.yul\":8923:8929   */\n      dup2\n        /* \"#utility.yul\":8918:8921   */\n      dup6\n        /* \"#utility.yul\":8841:8930   */\n      tag_86\n      jump\t// in\n    tag_209:\n        /* \"#utility.yul\":8834:8930   */\n      swap4\n      pop\n        /* \"#utility.yul\":8939:9004   */\n      tag_210\n        /* \"#utility.yul\":8997:9003   */\n      dup2\n        /* \"#utility.yul\":8992:8995   */\n      dup6\n        /* \"#utility.yul\":8985:8989   */\n      0x20\n        /* \"#utility.yul\":8978:8983   */\n      dup7\n        /* \"#utility.yul\":8974:8990   */\n      add\n        /* \"#utility.yul\":8939:9004   */\n      tag_69\n      jump\t// in\n    tag_210:\n        /* \"#utility.yul\":9029:9035   */\n      dup1\n        /* \"#utility.yul\":9024:9027   */\n      dup5\n        /* \"#utility.yul\":9020:9036   */\n      add\n        /* \"#utility.yul\":9013:9036   */\n      swap2\n      pop\n        /* \"#utility.yul\":8762:9042   */\n      pop\n        /* \"#utility.yul\":8652:9042   */\n      swap3\n      swap2\n      pop\n      pop\n      jump\t// out\n        /* \"#utility.yul\":9048:9127   */\n    tag_88:\n        /* \"#utility.yul\":9087:9094   */\n      0x00\n        /* \"#utility.yul\":9116:9121   */\n      dup2\n        /* \"#utility.yul\":9105:9121   */\n      swap1\n      pop\n        /* \"#utility.yul\":9048:9127   */\n      swap2\n      swap1\n      pop\n      jump\t// out\n        /* \"#utility.yul\":9133:9290   */\n    tag_89:\n        /* \"#utility.yul\":9238:9283   */\n      tag_213\n        /* \"#utility.yul\":9258:9282   */\n      tag_214\n        /* \"#utility.yul\":9276:9281   */\n      dup3\n        /* \"#utility.yul\":9258:9282   */\n      tag_63\n      jump\t// in\n    tag_214:\n        /* \"#utility.yul\":9238:9283   */\n      tag_88\n      jump\t// in\n    tag_213:\n        /* \"#utility.yul\":9233:9236   */\n      dup3\n        /* \"#utility.yul\":9226:9284   */\n      mstore\n        /* \"#utility.yul\":9133:9290   */\n      pop\n      pop\n      jump\t// out\n        /* \"#utility.yul\":9296:9390   */\n    tag_90:\n        /* \"#utility.yul\":9329:9337   */\n      0x00\n        /* \"#utility.yul\":9377:9382   */\n      dup2\n        /* \"#utility.yul\":9373:9375   */\n      0x60\n        /* \"#utility.yul\":9369:9383   */\n      shl\n        /* \"#utility.yul\":9348:9383   */\n      swap1\n      pop\n        /* \"#utility.yul\":9296:9390   */\n      swap2\n      swap1\n      pop\n      jump\t// out\n        /* \"#utility.yul\":9396:9490   */\n    tag_91:\n        /* \"#utility.yul\":9435:9442   */\n      0x00\n        /* \"#utility.yul\":9464:9484   */\n      tag_217\n        /* \"#utility.yul\":9478:9483   */\n      dup3\n        /* \"#utility.yul\":9464:9484   */\n      tag_90\n      jump\t// in\n    tag_217:\n        /* \"#utility.yul\":9453:9484   */\n      swap1\n      pop\n        /* \"#utility.yul\":9396:9490   */\n      swap2\n      swap1\n      pop\n      jump\t// out\n        /* \"#utility.yul\":9496:9596   */\n    tag_92:\n        /* \"#utility.yul\":9535:9542   */\n      0x00\n        /* \"#utility.yul\":9564:9590   */\n      tag_219\n        /* \"#utility.yul\":9584:9589   */\n      dup3\n        /* \"#utility.yul\":9564:9590   */\n      tag_91\n      jump\t// in\n    tag_219:\n        /* \"#utility.yul\":9553:9590   */\n      swap1\n      pop\n        /* \"#utility.yul\":9496:9596   */\n      swap2\n      swap1\n      pop\n      jump\t// out\n        /* \"#utility.yul\":9602:9759   */\n    tag_93:\n        /* \"#utility.yul\":9707:9752   */\n      tag_221\n        /* \"#utility.yul\":9727:9751   */\n      tag_222\n        /* \"#utility.yul\":9745:9750   */\n      dup3\n        /* \"#utility.yul\":9727:9751   */\n      tag_60\n      jump\t// in\n    tag_222:\n        /* \"#utility.yul\":9707:9752   */\n      tag_92\n      jump\t// in\n    tag_221:\n        /* \"#utility.yul\":9702:9705   */\n      dup3\n        /* \"#utility.yul\":9695:9753   */\n      mstore\n        /* \"#utility.yul\":9602:9759   */\n      pop\n      pop\n      jump\t// out\n        /* \"#utility.yul\":9765:10463   */\n    tag_33:\n        /* \"#utility.yul\":9981:9984   */\n      0x00\n        /* \"#utility.yul\":10003:10098   */\n      tag_224\n        /* \"#utility.yul\":10094:10097   */\n      dup3\n        /* \"#utility.yul\":10085:10091   */\n      dup8\n        /* \"#utility.yul\":10003:10098   */\n      tag_87\n      jump\t// in\n    tag_224:\n        /* \"#utility.yul\":9996:10098   */\n      swap2\n      pop\n        /* \"#utility.yul\":10108:10183   */\n      tag_225\n        /* \"#utility.yul\":10179:10182   */\n      dup3\n        /* \"#utility.yul\":10170:10176   */\n      dup7\n        /* \"#utility.yul\":10108:10183   */\n      tag_89\n      jump\t// in\n    tag_225:\n        /* \"#utility.yul\":10208:10210   */\n      0x20\n        /* \"#utility.yul\":10203:10206   */\n      dup3\n        /* \"#utility.yul\":10199:10211   */\n      add\n        /* \"#utility.yul\":10192:10211   */\n      swap2\n      pop\n        /* \"#utility.yul\":10221:10296   */\n      tag_226\n        /* \"#utility.yul\":10292:10295   */\n      dup3\n        /* \"#utility.yul\":10283:10289   */\n      dup6\n        /* \"#utility.yul\":10221:10296   */\n      tag_89\n      jump\t// in\n    tag_226:\n        /* \"#utility.yul\":10321:10323   */\n      0x20\n        /* \"#utility.yul\":10316:10319   */\n      dup3\n        /* \"#utility.yul\":10312:10324   */\n      add\n        /* \"#utility.yul\":10305:10324   */\n      swap2\n      pop\n        /* \"#utility.yul\":10334:10409   */\n      tag_227\n        /* \"#utility.yul\":10405:10408   */\n      dup3\n        /* \"#utility.yul\":10396:10402   */\n      dup5\n        /* \"#utility.yul\":10334:10409   */\n      tag_93\n      jump\t// in\n    tag_227:\n        /* \"#utility.yul\":10434:10436   */\n      0x14\n        /* \"#utility.yul\":10429:10432   */\n      dup3\n        /* \"#utility.yul\":10425:10437   */\n      add\n        /* \"#utility.yul\":10418:10437   */\n      swap2\n      pop\n        /* \"#utility.yul\":10454:10457   */\n      dup2\n        /* \"#utility.yul\":10447:10457   */\n      swap1\n      pop\n        /* \"#utility.yul\":9765:10463   */\n      swap6\n      swap5\n      pop\n      pop\n      pop\n      pop\n      pop\n      jump\t// out\n        /* \"#utility.yul\":10469:10690   */\n    tag_94:\n        /* \"#utility.yul\":10609:10643   */\n      0x426c6f63636f20646920666f726d616767696f20676961272070726573656e74\n        /* \"#utility.yul\":10605:10606   */\n      0x00\n        /* \"#utility.yul\":10597:10603   */\n      dup3\n        /* \"#utility.yul\":10593:10607   */\n      add\n        /* \"#utility.yul\":10586:10644   */\n      mstore\n        /* \"#utility.yul\":10678:10682   */\n      0x6521000000000000000000000000000000000000000000000000000000000000\n        /* \"#utility.yul\":10673:10675   */\n      0x20\n        /* \"#utility.yul\":10665:10671   */\n      dup3\n        /* \"#utility.yul\":10661:10676   */\n      add\n        /* \"#utility.yul\":10654:10683   */\n      mstore\n        /* \"#utility.yul\":10469:10690   */\n      pop\n      jump\t// out\n        /* \"#utility.yul\":10696:11062   */\n    tag_95:\n        /* \"#utility.yul\":10838:10841   */\n      0x00\n        /* \"#utility.yul\":10859:10926   */\n      tag_230\n        /* \"#utility.yul\":10923:10925   */\n      0x22\n        /* \"#utility.yul\":10918:10921   */\n      dup4\n        /* \"#utility.yul\":10859:10926   */\n      tag_68\n      jump\t// in\n    tag_230:\n        /* \"#utility.yul\":10852:10926   */\n      swap2\n      pop\n        /* \"#utility.yul\":10935:11028   */\n      tag_231\n        /* \"#utility.yul\":11024:11027   */\n      dup3\n        /* \"#utility.yul\":10935:11028   */\n      tag_94\n      jump\t// in\n    tag_231:\n        /* \"#utility.yul\":11053:11055   */\n      0x40\n        /* \"#utility.yul\":11048:11051   */\n      dup3\n        /* \"#utility.yul\":11044:11056   */\n      add\n        /* \"#utility.yul\":11037:11056   */\n      swap1\n      pop\n        /* \"#utility.yul\":10696:11062   */\n      swap2\n      swap1\n      pop\n      jump\t// out\n        /* \"#utility.yul\":11068:11487   */\n    tag_36:\n        /* \"#utility.yul\":11234:11238   */\n      0x00\n        /* \"#utility.yul\":11272:11274   */\n      0x20\n        /* \"#utility.yul\":11261:11270   */\n      dup3\n        /* \"#utility.yul\":11257:11275   */\n      add\n        /* \"#utility.yul\":11249:11275   */\n      swap1\n      pop\n        /* \"#utility.yul\":11321:11330   */\n      dup2\n        /* \"#utility.yul\":11315:11319   */\n      dup2\n        /* \"#utility.yul\":11311:11331   */\n      sub\n        /* \"#utility.yul\":11307:11308   */\n      0x00\n        /* \"#utility.yul\":11296:11305   */\n      dup4\n        /* \"#utility.yul\":11292:11309   */\n      add\n        /* \"#utility.yul\":11285:11332   */\n      mstore\n        /* \"#utility.yul\":11349:11480   */\n      tag_233\n        /* \"#utility.yul\":11475:11479   */\n      dup2\n        /* \"#utility.yul\":11349:11480   */\n      tag_95\n      jump\t// in\n    tag_233:\n        /* \"#utility.yul\":11341:11480   */\n      swap1\n      pop\n        /* \"#utility.yul\":11068:11487   */\n      swap2\n      swap1\n      pop\n      jump\t// out\n        /* \"#utility.yul\":11493:11634   */\n    tag_96:\n        /* \"#utility.yul\":11542:11546   */\n      0x00\n        /* \"#utility.yul\":11565:11568   */\n      dup2\n        /* \"#utility.yul\":11557:11568   */\n      swap1\n      pop\n        /* \"#utility.yul\":11588:11591   */\n      dup2\n        /* \"#utility.yul\":11585:11586   */\n      0x00\n        /* \"#utility.yul\":11578:11592   */\n      mstore\n        /* \"#utility.yul\":11622:11626   */\n      0x20\n        /* \"#utility.yul\":11619:11620   */\n      0x00\n        /* \"#utility.yul\":11609:11627   */\n      keccak256\n        /* \"#utility.yul\":11601:11627   */\n      swap1\n      pop\n        /* \"#utility.yul\":11493:11634   */\n      swap2\n      swap1\n      pop\n      jump\t// out\n        /* \"#utility.yul\":11640:11733   */\n    tag_97:\n        /* \"#utility.yul\":11677:11683   */\n      0x00\n        /* \"#utility.yul\":11724:11726   */\n      0x20\n        /* \"#utility.yul\":11719:11721   */\n      0x1f\n        /* \"#utility.yul\":11712:11717   */\n      dup4\n        /* \"#utility.yul\":11708:11722   */\n      add\n        /* \"#utility.yul\":11704:11727   */\n      div\n        /* \"#utility.yul\":11694:11727   */\n      swap1\n      pop\n        /* \"#utility.yul\":11640:11733   */\n      swap2\n      swap1\n      pop\n      jump\t// out\n        /* \"#utility.yul\":11739:11846   */\n    tag_98:\n        /* \"#utility.yul\":11783:11791   */\n      0x00\n        /* \"#utility.yul\":11833:11838   */\n      dup3\n        /* \"#utility.yul\":11827:11831   */\n      dup3\n        /* \"#utility.yul\":11823:11839   */\n      shl\n        /* \"#utility.yul\":11802:11839   */\n      swap1\n      pop\n        /* \"#utility.yul\":11739:11846   */\n      swap3\n      swap2\n      pop\n      pop\n      jump\t// out\n        /* \"#utility.yul\":11852:12245   */\n    tag_99:\n        /* \"#utility.yul\":11921:11927   */\n      0x00\n        /* \"#utility.yul\":11971:11972   */\n      0x08\n        /* \"#utility.yul\":11959:11969   */\n      dup4\n        /* \"#utility.yul\":11955:11973   */\n      mul\n        /* \"#utility.yul\":11994:12091   */\n      tag_238\n        /* \"#utility.yul\":12024:12090   */\n      0xffffffffffffffffffffffffffffffffffffffffffffffffffffffffffffffff\n        /* \"#utility.yul\":12013:12022   */\n      dup3\n        /* \"#utility.yul\":11994:12091   */\n      tag_98\n      jump\t// in\n    tag_238:\n        /* \"#utility.yul\":12112:12151   */\n      tag_239\n        /* \"#utility.yul\":12142:12150   */\n      dup7\n        /* \"#utility.yul\":12131:12140   */\n      dup4\n        /* \"#utility.yul\":12112:12151   */\n      tag_98\n      jump\t// in\n    tag_239:\n        /* \"#utility.yul\":12100:12151   */\n      swap6\n      pop\n        /* \"#utility.yul\":12184:12188   */\n      dup1\n        /* \"#utility.yul\":12180:12189   */\n      not\n        /* \"#utility.yul\":12173:12178   */\n      dup5\n        /* \"#utility.yul\":12169:12190   */\n      and\n        /* \"#utility.yul\":12160:12190   */\n      swap4\n      pop\n        /* \"#utility.yul\":12233:12237   */\n      dup1\n        /* \"#utility.yul\":12223:12231   */\n      dup7\n        /* \"#utility.yul\":12219:12238   */\n      and\n        /* \"#utility.yul\":12212:12217   */\n      dup5\n        /* \"#utility.yul\":12209:12239   */\n      or\n        /* \"#utility.yul\":12199:12239   */\n      swap3\n      pop\n        /* \"#utility.yul\":11928:12245   */\n      pop\n      pop\n        /* \"#utility.yul\":11852:12245   */\n      swap4\n      swap3\n      pop\n      pop\n      pop\n      jump\t// out\n        /* \"#utility.yul\":12251:12311   */\n    tag_100:\n        /* \"#utility.yul\":12279:12282   */\n      0x00\n        /* \"#utility.yul\":12300:12305   */\n      dup2\n        /* \"#utility.yul\":12293:12305   */\n      swap1\n      pop\n        /* \"#utility.yul\":12251:12311   */\n      swap2\n      swap1\n      pop\n      jump\t// out\n        /* \"#utility.yul\":12317:12459   */\n    tag_101:\n        /* \"#utility.yul\":12367:12376   */\n      0x00\n        /* \"#utility.yul\":12400:12453   */\n      tag_242\n        /* \"#utility.yul\":12418:12452   */\n      tag_243\n        /* \"#utility.yul\":12427:12451   */\n      tag_244\n        /* \"#utility.yul\":12445:12450   */\n      dup5\n        /* \"#utility.yul\":12427:12451   */\n      tag_63\n      jump\t// in\n    tag_244:\n        /* \"#utility.yul\":12418:12452   */\n      tag_100\n      jump\t// in\n    tag_243:\n        /* \"#utility.yul\":12400:12453   */\n      tag_63\n      jump\t// in\n    tag_242:\n        /* \"#utility.yul\":12387:12453   */\n      swap1\n      pop\n        /* \"#utility.yul\":12317:12459   */\n      swap2\n      swap1\n      pop\n      jump\t// out\n        /* \"#utility.yul\":12465:12540   */\n    tag_102:\n        /* \"#utility.yul\":12508:12511   */\n      0x00\n        /* \"#utility.yul\":12529:12534   */\n      dup2\n        /* \"#utility.yul\":12522:12534   */\n      swap1\n      pop\n        /* \"#utility.yul\":12465:12540   */\n      swap2\n      swap1\n      pop\n      jump\t// out\n        /* \"#utility.yul\":12546:12815   */\n    tag_103:\n        /* \"#utility.yul\":12656:12695   */\n      tag_247\n        /* \"#utility.yul\":12687:12694   */\n      dup4\n        /* \"#utility.yul\":12656:12695   */\n      tag_101\n      jump\t// in\n    tag_247:\n        /* \"#utility.yul\":12717:12808   */\n      tag_248\n        /* \"#utility.yul\":12766:12807   */\n      tag_249\n        /* \"#utility.yul\":12790:12806   */\n      dup3\n        /* \"#utility.yul\":12766:12807   */\n      tag_102\n      jump\t// in\n    tag_249:\n        /* \"#utility.yul\":12758:12764   */\n      dup5\n        /* \"#utility.yul\":12751:12755   */\n      dup5\n        /* \"#utility.yul\":12745:12756   */\n      sload\n        /* \"#utility.yul\":12717:12808   */\n      tag_99\n      jump\t// in\n    tag_248:\n        /* \"#utility.yul\":12711:12715   */\n      dup3\n        /* \"#utility.yul\":12704:12809   */\n      sstore\n        /* \"#utility.yul\":12622:12815   */\n      pop\n        /* \"#utility.yul\":12546:12815   */\n      pop\n      pop\n      pop\n      jump\t// out\n        /* \"#utility.yul\":12821:12894   */\n    tag_104:\n        /* \"#utility.yul\":12866:12869   */\n      0x00\n        /* \"#utility.yul\":12821:12894   */\n      swap1\n      jump\t// out\n        /* \"#utility.yul\":12900:13089   */\n    tag_105:\n        /* \"#utility.yul\":12977:13009   */\n      tag_252\n      tag_104\n      jump\t// in\n    tag_252:\n        /* \"#utility.yul\":13018:13083   */\n      tag_253\n        /* \"#utility.yul\":13076:13082   */\n      dup2\n        /* \"#utility.yul\":13068:13074   */\n      dup5\n        /* \"#utility.yul\":13062:13066   */\n      dup5\n        /* \"#utility.yul\":13018:13083   */\n      tag_103\n      jump\t// in\n    tag_253:\n        /* \"#utility.yul\":12953:13089   */\n      pop\n        /* \"#utility.yul\":12900:13089   */\n      pop\n      pop\n      jump\t// out\n        /* \"#utility.yul\":13095:13281   */\n    tag_106:\n        /* \"#utility.yul\":13155:13275   */\n    tag_255:\n        /* \"#utility.yul\":13172:13175   */\n      dup2\n        /* \"#utility.yul\":13165:13170   */\n      dup2\n        /* \"#utility.yul\":13162:13176   */\n      lt\n        /* \"#utility.yul\":13155:13275   */\n      iszero\n      tag_257\n      jumpi\n        /* \"#utility.yul\":13226:13265   */\n      tag_258\n        /* \"#utility.yul\":13263:13264   */\n      0x00\n        /* \"#utility.yul\":13256:13261   */\n      dup3\n        /* \"#utility.yul\":13226:13265   */\n      tag_105\n      jump\t// in\n    tag_258:\n        /* \"#utility.yul\":13199:13200   */\n      0x01\n        /* \"#utility.yul\":13192:13197   */\n      dup2\n        /* \"#utility.yul\":13188:13201   */\n      add\n        /* \"#utility.yul\":13179:13201   */\n      swap1\n      pop\n        /* \"#utility.yul\":13155:13275   */\n      jump(tag_255)\n    tag_257:\n        /* \"#utility.yul\":13095:13281   */\n      pop\n      pop\n      jump\t// out\n        /* \"#utility.yul\":13287:13830   */\n    tag_107:\n        /* \"#utility.yul\":13388:13390   */\n      0x1f\n        /* \"#utility.yul\":13383:13386   */\n      dup3\n        /* \"#utility.yul\":13380:13391   */\n      gt\n        /* \"#utility.yul\":13377:13823   */\n      iszero\n      tag_260\n      jumpi\n        /* \"#utility.yul\":13422:13460   */\n      tag_261\n        /* \"#utility.yul\":13454:13459   */\n      dup2\n        /* \"#utility.yul\":13422:13460   */\n      tag_96\n      jump\t// in\n    tag_261:\n        /* \"#utility.yul\":13506:13535   */\n      tag_262\n        /* \"#utility.yul\":13524:13534   */\n      dup5\n        /* \"#utility.yul\":13506:13535   */\n      tag_97\n      jump\t// in\n    tag_262:\n        /* \"#utility.yul\":13496:13504   */\n      dup2\n        /* \"#utility.yul\":13492:13536   */\n      add\n        /* \"#utility.yul\":13689:13691   */\n      0x20\n        /* \"#utility.yul\":13677:13687   */\n      dup6\n        /* \"#utility.yul\":13674:13692   */\n      lt\n        /* \"#utility.yul\":13671:13720   */\n      iszero\n      tag_263\n      jumpi\n        /* \"#utility.yul\":13710:13718   */\n      dup2\n        /* \"#utility.yul\":13695:13718   */\n      swap1\n      pop\n        /* \"#utility.yul\":13671:13720   */\n    tag_263:\n        /* \"#utility.yul\":13733:13813   */\n      tag_264\n        /* \"#utility.yul\":13789:13811   */\n      tag_265\n        /* \"#utility.yul\":13807:13810   */\n      dup6\n        /* \"#utility.yul\":13789:13811   */\n      tag_97\n      jump\t// in\n    tag_265:\n        /* \"#utility.yul\":13779:13787   */\n      dup4\n        /* \"#utility.yul\":13775:13812   */\n      add\n        /* \"#utility.yul\":13762:13773   */\n      dup3\n        /* \"#utility.yul\":13733:13813   */\n      tag_106\n      jump\t// in\n    tag_264:\n        /* \"#utility.yul\":13392:13823   */\n      pop\n      pop\n        /* \"#utility.yul\":13377:13823   */\n    tag_260:\n        /* \"#utility.yul\":13287:13830   */\n      pop\n      pop\n      pop\n      jump\t// out\n        /* \"#utility.yul\":13836:13953   */\n    tag_108:\n        /* \"#utility.yul\":13890:13898   */\n      0x00\n        /* \"#utility.yul\":13940:13945   */\n      dup3\n        /* \"#utility.yul\":13934:13938   */\n      dup3\n        /* \"#utility.yul\":13930:13946   */\n      shr\n        /* \"#utility.yul\":13909:13946   */\n      swap1\n      pop\n        /* \"#utility.yul\":13836:13953   */\n      swap3\n      swap2\n      pop\n      pop\n      jump\t// out\n        /* \"#utility.yul\":13959:14128   */\n    tag_109:\n        /* \"#utility.yul\":14003:14009   */\n      0x00\n        /* \"#utility.yul\":14036:14087   */\n      tag_268\n        /* \"#utility.yul\":14084:14085   */\n      0x00\n        /* \"#utility.yul\":14080:14086   */\n      not\n        /* \"#utility.yul\":14072:14077   */\n      dup5\n        /* \"#utility.yul\":14069:14070   */\n      0x08\n        /* \"#utility.yul\":14065:14078   */\n      mul\n        /* \"#utility.yul\":14036:14087   */\n      tag_108\n      jump\t// in\n    tag_268:\n        /* \"#utility.yul\":14032:14088   */\n      not\n        /* \"#utility.yul\":14117:14121   */\n      dup1\n        /* \"#utility.yul\":14111:14115   */\n      dup4\n        /* \"#utility.yul\":14107:14122   */\n      and\n        /* \"#utility.yul\":14097:14122   */\n      swap2\n      pop\n        /* \"#utility.yul\":14010:14128   */\n      pop\n        /* \"#utility.yul\":13959:14128   */\n      swap3\n      swap2\n      pop\n      pop\n      jump\t// out\n        /* \"#utility.yul\":14133:14428   */\n    tag_110:\n        /* \"#utility.yul\":14209:14213   */\n      0x00\n        /* \"#utility.yul\":14355:14384   */\n      tag_270\n        /* \"#utility.yul\":14380:14383   */\n      dup4\n        /* \"#utility.yul\":14374:14378   */\n      dup4\n        /* \"#utility.yul\":14355:14384   */\n      tag_109\n      jump\t// in\n    tag_270:\n        /* \"#utility.yul\":14347:14384   */\n      swap2\n      pop\n        /* \"#utility.yul\":14417:14420   */\n      dup3\n        /* \"#utility.yul\":14414:14415   */\n      0x02\n        /* \"#utility.yul\":14410:14421   */\n      mul\n        /* \"#utility.yul\":14404:14408   */\n      dup3\n        /* \"#utility.yul\":14401:14422   */\n      or\n        /* \"#utility.yul\":14393:14422   */\n      swap1\n      pop\n        /* \"#utility.yul\":14133:14428   */\n      swap3\n      swap2\n      pop\n      pop\n      jump\t// out\n        /* \"#utility.yul\":14433:15828   */\n    tag_38:\n        /* \"#utility.yul\":14550:14587   */\n      tag_272\n        /* \"#utility.yul\":14583:14586   */\n      dup3\n        /* \"#utility.yul\":14550:14587   */\n      tag_67\n      jump\t// in\n    tag_272:\n        /* \"#utility.yul\":14652:14670   */\n      0xffffffffffffffff\n        /* \"#utility.yul\":14644:14650   */\n      dup2\n        /* \"#utility.yul\":14641:14671   */\n      gt\n        /* \"#utility.yul\":14638:14694   */\n      iszero\n      tag_273\n      jumpi\n        /* \"#utility.yul\":14674:14692   */\n      tag_274\n      tag_74\n      jump\t// in\n    tag_274:\n        /* \"#utility.yul\":14638:14694   */\n    tag_273:\n        /* \"#utility.yul\":14718:14756   */\n      tag_275\n        /* \"#utility.yul\":14750:14754   */\n      dup3\n        /* \"#utility.yul\":14744:14755   */\n      sload\n        /* \"#utility.yul\":14718:14756   */\n      tag_26\n      jump\t// in\n    tag_275:\n        /* \"#utility.yul\":14803:14870   */\n      tag_276\n        /* \"#utility.yul\":14863:14869   */\n      dup3\n        /* \"#utility.yul\":14855:14861   */\n      dup3\n        /* \"#utility.yul\":14849:14853   */\n      dup6\n        /* \"#utility.yul\":14803:14870   */\n      tag_107\n      jump\t// in\n    tag_276:\n        /* \"#utility.yul\":14897:14898   */\n      0x00\n        /* \"#utility.yul\":14921:14925   */\n      0x20\n        /* \"#utility.yul\":14908:14925   */\n      swap1\n      pop\n        /* \"#utility.yul\":14953:14955   */\n      0x1f\n        /* \"#utility.yul\":14945:14951   */\n      dup4\n        /* \"#utility.yul\":14942:14956   */\n      gt\n        /* \"#utility.yul\":14970:14971   */\n      0x01\n        /* \"#utility.yul\":14965:15583   */\n      dup2\n      eq\n      tag_278\n      jumpi\n        /* \"#utility.yul\":15627:15628   */\n      0x00\n        /* \"#utility.yul\":15644:15650   */\n      dup5\n        /* \"#utility.yul\":15641:15718   */\n      iszero\n      tag_279\n      jumpi\n        /* \"#utility.yul\":15693:15702   */\n      dup3\n        /* \"#utility.yul\":15688:15691   */\n      dup8\n        /* \"#utility.yul\":15684:15703   */\n      add\n        /* \"#utility.yul\":15678:15704   */\n      mload\n        /* \"#utility.yul\":15669:15704   */\n      swap1\n      pop\n        /* \"#utility.yul\":15641:15718   */\n    tag_279:\n        /* \"#utility.yul\":15744:15811   */\n      tag_280\n        /* \"#utility.yul\":15804:15810   */\n      dup6\n        /* \"#utility.yul\":15797:15802   */\n      dup3\n        /* \"#utility.yul\":15744:15811   */\n      tag_110\n      jump\t// in\n    tag_280:\n        /* \"#utility.yul\":15738:15742   */\n      dup7\n        /* \"#utility.yul\":15731:15812   */\n      sstore\n        /* \"#utility.yul\":15600:15822   */\n      pop\n        /* \"#utility.yul\":14935:15822   */\n      jump(tag_277)\n        /* \"#utility.yul\":14965:15583   */\n    tag_278:\n        /* \"#utility.yul\":15017:15021   */\n      0x1f\n        /* \"#utility.yul\":15013:15022   */\n      not\n        /* \"#utility.yul\":15005:15011   */\n      dup5\n        /* \"#utility.yul\":15001:15023   */\n      and\n        /* \"#utility.yul\":15051:15088   */\n      tag_281\n        /* \"#utility.yul\":15083:15087   */\n      dup7\n        /* \"#utility.yul\":15051:15088   */\n      tag_96\n      jump\t// in\n    tag_281:\n        /* \"#utility.yul\":15110:15111   */\n      0x00\n        /* \"#utility.yul\":15124:15332   */\n    tag_282:\n        /* \"#utility.yul\":15138:15145   */\n      dup3\n        /* \"#utility.yul\":15135:15136   */\n      dup2\n        /* \"#utility.yul\":15132:15146   */\n      lt\n        /* \"#utility.yul\":15124:15332   */\n      iszero\n      tag_284\n      jumpi\n        /* \"#utility.yul\":15217:15226   */\n      dup5\n        /* \"#utility.yul\":15212:15215   */\n      dup10\n        /* \"#utility.yul\":15208:15227   */\n      add\n        /* \"#utility.yul\":15202:15228   */\n      mload\n        /* \"#utility.yul\":15194:15200   */\n      dup3\n        /* \"#utility.yul\":15187:15229   */\n      sstore\n        /* \"#utility.yul\":15268:15269   */\n      0x01\n        /* \"#utility.yul\":15260:15266   */\n      dup3\n        /* \"#utility.yul\":15256:15270   */\n      add\n        /* \"#utility.yul\":15246:15270   */\n      swap2\n      pop\n        /* \"#utility.yul\":15315:15317   */\n      0x20\n        /* \"#utility.yul\":15304:15313   */\n      dup6\n        /* \"#utility.yul\":15300:15318   */\n      add\n        /* \"#utility.yul\":15287:15318   */\n      swap5\n      pop\n        /* \"#utility.yul\":15161:15165   */\n      0x20\n        /* \"#utility.yul\":15158:15159   */\n      dup2\n        /* \"#utility.yul\":15154:15166   */\n      add\n        /* \"#utility.yul\":15149:15166   */\n      swap1\n      pop\n        /* \"#utility.yul\":15124:15332   */\n      jump(tag_282)\n    tag_284:\n        /* \"#utility.yul\":15360:15366   */\n      dup7\n        /* \"#utility.yul\":15351:15358   */\n      dup4\n        /* \"#utility.yul\":15348:15367   */\n      lt\n        /* \"#utility.yul\":15345:15524   */\n      iszero\n      tag_285\n      jumpi\n        /* \"#utility.yul\":15418:15427   */\n      dup5\n        /* \"#utility.yul\":15413:15416   */\n      dup10\n        /* \"#utility.yul\":15409:15428   */\n      add\n        /* \"#utility.yul\":15403:15429   */\n      mload\n        /* \"#utility.yul\":15461:15509   */\n      tag_286\n        /* \"#utility.yul\":15503:15507   */\n      0x1f\n        /* \"#utility.yul\":15495:15501   */\n      dup10\n        /* \"#utility.yul\":15491:15508   */\n      and\n        /* \"#utility.yul\":15480:15489   */\n      dup3\n        /* \"#utility.yul\":15461:15509   */\n      tag_109\n      jump\t// in\n    tag_286:\n        /* \"#utility.yul\":15453:15459   */\n      dup4\n        /* \"#utility.yul\":15446:15510   */\n      sstore\n        /* \"#utility.yul\":15368:15524   */\n      pop\n        /* \"#utility.yul\":15345:15524   */\n    tag_285:\n        /* \"#utility.yul\":15570:15571   */\n      0x01\n        /* \"#utility.yul\":15566:15567   */\n      0x02\n        /* \"#utility.yul\":15558:15564   */\n      dup9\n        /* \"#utility.yul\":15554:15568   */\n      mul\n        /* \"#utility.yul\":15550:15572   */\n      add\n        /* \"#utility.yul\":15544:15548   */\n      dup9\n        /* \"#utility.yul\":15537:15573   */\n      sstore\n        /* \"#utility.yul\":14972:15583   */\n      pop\n      pop\n      pop\n        /* \"#utility.yul\":14935:15822   */\n    tag_277:\n      pop\n        /* \"#utility.yul\":14525:15828   */\n      pop\n      pop\n      pop\n        /* \"#utility.yul\":14433:15828   */\n      pop\n      pop\n      jump\t// out\n        /* \"#utility.yul\":15858:16732   */\n    tag_111:\n        /* \"#utility.yul\":15961:15964   */\n      0x00\n        /* \"#utility.yul\":15998:16003   */\n      dup2\n        /* \"#utility.yul\":15992:16004   */\n      sload\n        /* \"#utility.yul\":16027:16063   */\n      tag_288\n        /* \"#utility.yul\":16053:16062   */\n      dup2\n        /* \"#utility.yul\":16027:16063   */\n      tag_26\n      jump\t// in\n    tag_288:\n        /* \"#utility.yul\":16079:16168   */\n      tag_289\n        /* \"#utility.yul\":16161:16167   */\n      dup2\n        /* \"#utility.yul\":16156:16159   */\n      dup7\n        /* \"#utility.yul\":16079:16168   */\n      tag_86\n      jump\t// in\n    tag_289:\n        /* \"#utility.yul\":16072:16168   */\n      swap5\n      pop\n        /* \"#utility.yul\":16199:16200   */\n      0x01\n        /* \"#utility.yul\":16188:16197   */\n      dup3\n        /* \"#utility.yul\":16184:16201   */\n      and\n        /* \"#utility.yul\":16215:16216   */\n      0x00\n        /* \"#utility.yul\":16210:16376   */\n      dup2\n      eq\n      tag_291\n      jumpi\n        /* \"#utility.yul\":16390:16391   */\n      0x01\n        /* \"#utility.yul\":16385:16726   */\n      dup2\n      eq\n      tag_292\n      jumpi\n        /* \"#utility.yul\":16177:16726   */\n      jump(tag_290)\n        /* \"#utility.yul\":16210:16376   */\n    tag_291:\n        /* \"#utility.yul\":16294:16298   */\n      0xff\n        /* \"#utility.yul\":16290:16299   */\n      not\n        /* \"#utility.yul\":16279:16288   */\n      dup4\n        /* \"#utility.yul\":16275:16300   */\n      and\n        /* \"#utility.yul\":16270:16273   */\n      dup7\n        /* \"#utility.yul\":16263:16301   */\n      mstore\n        /* \"#utility.yul\":16356:16362   */\n      dup2\n        /* \"#utility.yul\":16349:16363   */\n      iszero\n        /* \"#utility.yul\":16342:16364   */\n      iszero\n        /* \"#utility.yul\":16334:16340   */\n      dup3\n        /* \"#utility.yul\":16330:16365   */\n      mul\n        /* \"#utility.yul\":16325:16328   */\n      dup7\n        /* \"#utility.yul\":16321:16366   */\n      add\n        /* \"#utility.yul\":16314:16366   */\n      swap4\n      pop\n        /* \"#utility.yul\":16210:16376   */\n      jump(tag_290)\n        /* \"#utility.yul\":16385:16726   */\n    tag_292:\n        /* \"#utility.yul\":16452:16490   */\n      tag_293\n        /* \"#utility.yul\":16484:16489   */\n      dup6\n        /* \"#utility.yul\":16452:16490   */\n      tag_96\n      jump\t// in\n    tag_293:\n        /* \"#utility.yul\":16512:16513   */\n      0x00\n        /* \"#utility.yul\":16526:16680   */\n    tag_294:\n        /* \"#utility.yul\":16540:16546   */\n      dup4\n        /* \"#utility.yul\":16537:16538   */\n      dup2\n        /* \"#utility.yul\":16534:16547   */\n      lt\n        /* \"#utility.yul\":16526:16680   */\n      iszero\n      tag_296\n      jumpi\n        /* \"#utility.yul\":16614:16621   */\n      dup2\n        /* \"#utility.yul\":16608:16622   */\n      sload\n        /* \"#utility.yul\":16604:16605   */\n      dup2\n        /* \"#utility.yul\":16599:16602   */\n      dup10\n        /* \"#utility.yul\":16595:16606   */\n      add\n        /* \"#utility.yul\":16588:16623   */\n      mstore\n        /* \"#utility.yul\":16664:16665   */\n      0x01\n        /* \"#utility.yul\":16655:16662   */\n      dup3\n        /* \"#utility.yul\":16651:16666   */\n      add\n        /* \"#utility.yul\":16640:16666   */\n      swap2\n      pop\n        /* \"#utility.yul\":16562:16566   */\n      0x20\n        /* \"#utility.yul\":16559:16560   */\n      dup2\n        /* \"#utility.yul\":16555:16567   */\n      add\n        /* \"#utility.yul\":16550:16567   */\n      swap1\n      pop\n        /* \"#utility.yul\":16526:16680   */\n      jump(tag_294)\n    tag_296:\n        /* \"#utility.yul\":16709:16715   */\n      dup4\n        /* \"#utility.yul\":16704:16707   */\n      dup9\n        /* \"#utility.yul\":16700:16716   */\n      add\n        /* \"#utility.yul\":16693:16716   */\n      swap6\n      pop\n        /* \"#utility.yul\":16392:16726   */\n      pop\n      pop\n        /* \"#utility.yul\":16177:16726   */\n    tag_290:\n      pop\n        /* \"#utility.yul\":15965:16732   */\n      pop\n      pop\n        /* \"#utility.yul\":15858:16732   */\n      swap3\n      swap2\n      pop\n      pop\n      jump\t// out\n        /* \"#utility.yul\":16738:17430   */\n    tag_43:\n        /* \"#utility.yul\":16951:16954   */\n      0x00\n        /* \"#utility.yul\":16973:17065   */\n      tag_298\n        /* \"#utility.yul\":17061:17064   */\n      dup3\n        /* \"#utility.yul\":17052:17058   */\n      dup8\n        /* \"#utility.yul\":16973:17065   */\n      tag_111\n      jump\t// in\n    tag_298:\n        /* \"#utility.yul\":16966:17065   */\n      swap2\n      pop\n        /* \"#utility.yul\":17075:17150   */\n      tag_299\n        /* \"#utility.yul\":17146:17149   */\n      dup3\n        /* \"#utility.yul\":17137:17143   */\n      dup7\n        /* \"#utility.yul\":17075:17150   */\n      tag_89\n      jump\t// in\n    tag_299:\n        /* \"#utility.yul\":17175:17177   */\n      0x20\n        /* \"#utility.yul\":17170:17173   */\n      dup3\n        /* \"#utility.yul\":17166:17178   */\n      add\n        /* \"#utility.yul\":17159:17178   */\n      swap2\n      pop\n        /* \"#utility.yul\":17188:17263   */\n      tag_300\n        /* \"#utility.yul\":17259:17262   */\n      dup3\n        /* \"#utility.yul\":17250:17256   */\n      dup6\n        /* \"#utility.yul\":17188:17263   */\n      tag_89\n      jump\t// in\n    tag_300:\n        /* \"#utility.yul\":17288:17290   */\n      0x20\n        /* \"#utility.yul\":17283:17286   */\n      dup3\n        /* \"#utility.yul\":17279:17291   */\n      add\n        /* \"#utility.yul\":17272:17291   */\n      swap2\n      pop\n        /* \"#utility.yul\":17301:17376   */\n      tag_301\n        /* \"#utility.yul\":17372:17375   */\n      dup3\n        /* \"#utility.yul\":17363:17369   */\n      dup5\n        /* \"#utility.yul\":17301:17376   */\n      tag_93\n      jump\t// in\n    tag_301:\n        /* \"#utility.yul\":17401:17403   */\n      0x14\n        /* \"#utility.yul\":17396:17399   */\n      dup3\n        /* \"#utility.yul\":17392:17404   */\n      add\n        /* \"#utility.yul\":17385:17404   */\n      swap2\n      pop\n        /* \"#utility.yul\":17421:17424   */\n      dup2\n        /* \"#utility.yul\":17414:17424   */\n      swap1\n      pop\n        /* \"#utility.yul\":16738:17430   */\n      swap6\n      swap5\n      pop\n      pop\n      pop\n      pop\n      pop\n      jump\t// out\n        /* \"#utility.yul\":17436:17609   */\n    tag_112:\n        /* \"#utility.yul\":17576:17601   */\n      0x5574656e7465206e6f6e204175746f72697a7a61746f21000000000000000000\n        /* \"#utility.yul\":17572:17573   */\n      0x00\n        /* \"#utility.yul\":17564:17570   */\n      dup3\n        /* \"#utility.yul\":17560:17574   */\n      add\n        /* \"#utility.yul\":17553:17602   */\n      mstore\n        /* \"#utility.yul\":17436:17609   */\n      pop\n      jump\t// out\n        /* \"#utility.yul\":17615:17981   */\n    tag_113:\n        /* \"#utility.yul\":17757:17760   */\n      0x00\n        /* \"#utility.yul\":17778:17845   */\n      tag_304\n        /* \"#utility.yul\":17842:17844   */\n      0x17\n        /* \"#utility.yul\":17837:17840   */\n      dup4\n        /* \"#utility.yul\":17778:17845   */\n      tag_68\n      jump\t// in\n    tag_304:\n        /* \"#utility.yul\":17771:17845   */\n      swap2\n      pop\n        /* \"#utility.yul\":17854:17947   */\n      tag_305\n        /* \"#utility.yul\":17943:17946   */\n      dup3\n        /* \"#utility.yul\":17854:17947   */\n      tag_112\n      jump\t// in\n    tag_305:\n        /* \"#utility.yul\":17972:17974   */\n      0x20\n        /* \"#utility.yul\":17967:17970   */\n      dup3\n        /* \"#utility.yul\":17963:17975   */\n      add\n        /* \"#utility.yul\":17956:17975   */\n      swap1\n      pop\n        /* \"#utility.yul\":17615:17981   */\n      swap2\n      swap1\n      pop\n      jump\t// out\n        /* \"#utility.yul\":17987:18406   */\n    tag_46:\n        /* \"#utility.yul\":18153:18157   */\n      0x00\n        /* \"#utility.yul\":18191:18193   */\n      0x20\n        /* \"#utility.yul\":18180:18189   */\n      dup3\n        /* \"#utility.yul\":18176:18194   */\n      add\n        /* \"#utility.yul\":18168:18194   */\n      swap1\n      pop\n        /* \"#utility.yul\":18240:18249   */\n      dup2\n        /* \"#utility.yul\":18234:18238   */\n      dup2\n        /* \"#utility.yul\":18230:18250   */\n      sub\n        /* \"#utility.yul\":18226:18227   */\n      0x00\n        /* \"#utility.yul\":18215:18224   */\n      dup4\n        /* \"#utility.yul\":18211:18228   */\n      add\n        /* \"#utility.yul\":18204:18251   */\n      mstore\n        /* \"#utility.yul\":18268:18399   */\n      tag_307\n        /* \"#utility.yul\":18394:18398   */\n      dup2\n        /* \"#utility.yul\":18268:18399   */\n      tag_113\n      jump\t// in\n    tag_307:\n        /* \"#utility.yul\":18260:18399   */\n      swap1\n      pop\n        /* \"#utility.yul\":17987:18406   */\n      swap2\n      swap1\n      pop\n      jump\t// out\n\n    auxdata: 0xa2646970667358221220fa53b4fb261caf741ca508ff3debd0fe4512528cfd2f8c12070fb5ff249f26b064736f6c63430008160033\n}\n",
				"bytecode": {
					"linkReferences": {},
					"object": "608060405234801561000f575f80fd5b50335f806101000a81548173ffffffffffffffffffffffffffffffffffffffff021916908373ffffffffffffffffffffffffffffffffffffffff1602179055506110d98061005c5f395ff3fe608060405234801561000f575f80fd5b506004361061003f575f3560e01c80636fb82e0614610043578063ab23e04a14610076578063f437eff114610092575b5f80fd5b61005d600480360381019061005891906107a5565b6100c2565b60405161006d949392919061087c565b60405180910390f35b610090600480360381019061008b91906109f2565b610283565b005b6100ac60048036038101906100a791906107a5565b6103f3565b6040516100b99190610a8c565b60405180910390f35b5f60605f805f60015f8873ffffffffffffffffffffffffffffffffffffffff1673ffffffffffffffffffffffffffffffffffffffff1681526020019081526020015f205f8781526020019081526020015f205f015403610157576040517f08c379a000000000000000000000000000000000000000000000000000000000815260040161014e90610b15565b60405180910390fd5b5f60015f8873ffffffffffffffffffffffffffffffffffffffff1673ffffffffffffffffffffffffffffffffffffffff1681526020019081526020015f205f8781526020019081526020015f206040518060800160405290815f82015481526020016001820180546101c890610b60565b80601f01602080910402602001604051908101604052809291908181526020018280546101f490610b60565b801561023f5780601f106102165761010080835404028352916020019161023f565b820191905f5260205f20905b81548152906001019060200180831161022257829003601f168201915b50505050508152602001600282015481526020016003820154815250509050805f015181602001518260400151836060015194509450945094505092959194509250565b5f8383838760405160200161029b9493929190610c2f565b604051602081830303815290604052805190602001205f1c90505f60015f8773ffffffffffffffffffffffffffffffffffffffff1673ffffffffffffffffffffffffffffffffffffffff1681526020019081526020015f205f8381526020019081526020015f205f015414610345576040517f08c379a000000000000000000000000000000000000000000000000000000000815260040161033c90610ce8565b60405180910390fd5b5f60405180608001604052808381526020018681526020018581526020018481525090508060015f8873ffffffffffffffffffffffffffffffffffffffff1673ffffffffffffffffffffffffffffffffffffffff1681526020019081526020015f205f8481526020019081526020015f205f820151815f015560208201518160010190816103d39190610ea3565b506040820151816002015560608201518160030155905050505050505050565b5f8060015f8573ffffffffffffffffffffffffffffffffffffffff1673ffffffffffffffffffffffffffffffffffffffff1681526020019081526020015f205f8481526020019081526020015f205f015403610484576040517f08c379a000000000000000000000000000000000000000000000000000000000815260040161047b90610b15565b60405180910390fd5b5f60015f8573ffffffffffffffffffffffffffffffffffffffff1673ffffffffffffffffffffffffffffffffffffffff1681526020019081526020015f205f8481526020019081526020015f2060010160015f8673ffffffffffffffffffffffffffffffffffffffff1673ffffffffffffffffffffffffffffffffffffffff1681526020019081526020015f205f8581526020019081526020015f206002015460015f8773ffffffffffffffffffffffffffffffffffffffff1673ffffffffffffffffffffffffffffffffffffffff1681526020019081526020015f205f8681526020019081526020015f2060030154866040516020016105889493929190610ff2565b604051602081830303815290604052805190602001205f1c90508060015f8673ffffffffffffffffffffffffffffffffffffffff1673ffffffffffffffffffffffffffffffffffffffff1681526020019081526020015f205f8581526020019081526020015f205f015414610632576040517f08c379a000000000000000000000000000000000000000000000000000000000815260040161062990611085565b60405180910390fd5b60015f8573ffffffffffffffffffffffffffffffffffffffff1673ffffffffffffffffffffffffffffffffffffffff1681526020019081526020015f205f8481526020019081526020015f205f8082015f9055600182015f61069491906106af565b600282015f9055600382015f90555050600191505092915050565b5080546106bb90610b60565b5f825580601f106106cc57506106e9565b601f0160209004905f5260205f20908101906106e891906106ec565b5b50565b5b80821115610703575f815f9055506001016106ed565b5090565b5f604051905090565b5f80fd5b5f80fd5b5f73ffffffffffffffffffffffffffffffffffffffff82169050919050565b5f61074182610718565b9050919050565b61075181610737565b811461075b575f80fd5b50565b5f8135905061076c81610748565b92915050565b5f819050919050565b61078481610772565b811461078e575f80fd5b50565b5f8135905061079f8161077b565b92915050565b5f80604083850312156107bb576107ba610710565b5b5f6107c88582860161075e565b92505060206107d985828601610791565b9150509250929050565b6107ec81610772565b82525050565b5f81519050919050565b5f82825260208201905092915050565b5f5b8381101561082957808201518184015260208101905061080e565b5f8484015250505050565b5f601f19601f8301169050919050565b5f61084e826107f2565b61085881856107fc565b935061086881856020860161080c565b61087181610834565b840191505092915050565b5f60808201905061088f5f8301876107e3565b81810360208301526108a18186610844565b90506108b060408301856107e3565b6108bd60608301846107e3565b95945050505050565b5f80fd5b5f80fd5b7f4e487b71000000000000000000000000000000000000000000000000000000005f52604160045260245ffd5b61090482610834565b810181811067ffffffffffffffff82111715610923576109226108ce565b5b80604052505050565b5f610935610707565b905061094182826108fb565b919050565b5f67ffffffffffffffff8211156109605761095f6108ce565b5b61096982610834565b9050602081019050919050565b828183375f83830152505050565b5f61099661099184610946565b61092c565b9050828152602081018484840111156109b2576109b16108ca565b5b6109bd848285610976565b509392505050565b5f82601f8301126109d9576109d86108c6565b5b81356109e9848260208601610984565b91505092915050565b5f805f8060808587031215610a0a57610a09610710565b5b5f610a178782880161075e565b945050602085013567ffffffffffffffff811115610a3857610a37610714565b5b610a44878288016109c5565b9350506040610a5587828801610791565b9250506060610a6687828801610791565b91505092959194509250565b5f8115159050919050565b610a8681610a72565b82525050565b5f602082019050610a9f5f830184610a7d565b92915050565b7f426c6f63636f20646920666f726d616767696f206e6f6e2070726573656e74655f8201527f2100000000000000000000000000000000000000000000000000000000000000602082015250565b5f610aff6021836107fc565b9150610b0a82610aa5565b604082019050919050565b5f6020820190508181035f830152610b2c81610af3565b9050919050565b7f4e487b71000000000000000000000000000000000000000000000000000000005f52602260045260245ffd5b5f6002820490506001821680610b7757607f821691505b602082108103610b8a57610b89610b33565b5b50919050565b5f81905092915050565b5f610ba4826107f2565b610bae8185610b90565b9350610bbe81856020860161080c565b80840191505092915050565b5f819050919050565b610be4610bdf82610772565b610bca565b82525050565b5f8160601b9050919050565b5f610c0082610bea565b9050919050565b5f610c1182610bf6565b9050919050565b610c29610c2482610737565b610c07565b82525050565b5f610c3a8287610b9a565b9150610c468286610bd3565b602082019150610c568285610bd3565b602082019150610c668284610c18565b60148201915081905095945050505050565b7f426c6f63636f20646920666f726d616767696f20676961272070726573656e745f8201527f6521000000000000000000000000000000000000000000000000000000000000602082015250565b5f610cd26022836107fc565b9150610cdd82610c78565b604082019050919050565b5f6020820190508181035f830152610cff81610cc6565b9050919050565b5f819050815f5260205f209050919050565b5f6020601f8301049050919050565b5f82821b905092915050565b5f60088302610d627fffffffffffffffffffffffffffffffffffffffffffffffffffffffffffffffff82610d27565b610d6c8683610d27565b95508019841693508086168417925050509392505050565b5f819050919050565b5f610da7610da2610d9d84610772565b610d84565b610772565b9050919050565b5f819050919050565b610dc083610d8d565b610dd4610dcc82610dae565b848454610d33565b825550505050565b5f90565b610de8610ddc565b610df3818484610db7565b505050565b5b81811015610e1657610e0b5f82610de0565b600181019050610df9565b5050565b601f821115610e5b57610e2c81610d06565b610e3584610d18565b81016020851015610e44578190505b610e58610e5085610d18565b830182610df8565b50505b505050565b5f82821c905092915050565b5f610e7b5f1984600802610e60565b1980831691505092915050565b5f610e938383610e6c565b9150826002028217905092915050565b610eac826107f2565b67ffffffffffffffff811115610ec557610ec46108ce565b5b610ecf8254610b60565b610eda828285610e1a565b5f60209050601f831160018114610f0b575f8415610ef9578287015190505b610f038582610e88565b865550610f6a565b601f198416610f1986610d06565b5f5b82811015610f4057848901518255600182019150602085019450602081019050610f1b565b86831015610f5d5784890151610f59601f891682610e6c565b8355505b6001600288020188555050505b505050505050565b5f8154610f7e81610b60565b610f888186610b90565b9450600182165f8114610fa25760018114610fb757610fe9565b60ff1983168652811515820286019350610fe9565b610fc085610d06565b5f5b83811015610fe157815481890152600182019150602081019050610fc2565b838801955050505b50505092915050565b5f610ffd8287610f72565b91506110098286610bd3565b6020820191506110198285610bd3565b6020820191506110298284610c18565b60148201915081905095945050505050565b7f5574656e7465206e6f6e204175746f72697a7a61746f210000000000000000005f82015250565b5f61106f6017836107fc565b915061107a8261103b565b602082019050919050565b5f6020820190508181035f83015261109c81611063565b905091905056fea2646970667358221220fa53b4fb261caf741ca508ff3debd0fe4512528cfd2f8c12070fb5ff249f26b064736f6c63430008160033",
					"opcodes": "PUSH1 0x80 PUSH1 0x40 MSTORE CALLVALUE DUP1 ISZERO PUSH2 0xF JUMPI PUSH0 DUP1 REVERT JUMPDEST POP CALLER PUSH0 DUP1 PUSH2 0x100 EXP DUP2 SLOAD DUP2 PUSH20 0xFFFFFFFFFFFFFFFFFFFFFFFFFFFFFFFFFFFFFFFF MUL NOT AND SWAP1 DUP4 PUSH20 0xFFFFFFFFFFFFFFFFFFFFFFFFFFFFFFFFFFFFFFFF AND MUL OR SWAP1 SSTORE POP PUSH2 0x10D9 DUP1 PUSH2 0x5C PUSH0 CODECOPY PUSH0 RETURN INVALID PUSH1 0x80 PUSH1 0x40 MSTORE CALLVALUE DUP1 ISZERO PUSH2 0xF JUMPI PUSH0 DUP1 REVERT JUMPDEST POP PUSH1 0x4 CALLDATASIZE LT PUSH2 0x3F JUMPI PUSH0 CALLDATALOAD PUSH1 0xE0 SHR DUP1 PUSH4 0x6FB82E06 EQ PUSH2 0x43 JUMPI DUP1 PUSH4 0xAB23E04A EQ PUSH2 0x76 JUMPI DUP1 PUSH4 0xF437EFF1 EQ PUSH2 0x92 JUMPI JUMPDEST PUSH0 DUP1 REVERT JUMPDEST PUSH2 0x5D PUSH1 0x4 DUP1 CALLDATASIZE SUB DUP2 ADD SWAP1 PUSH2 0x58 SWAP2 SWAP1 PUSH2 0x7A5 JUMP JUMPDEST PUSH2 0xC2 JUMP JUMPDEST PUSH1 0x40 MLOAD PUSH2 0x6D SWAP5 SWAP4 SWAP3 SWAP2 SWAP1 PUSH2 0x87C JUMP JUMPDEST PUSH1 0x40 MLOAD DUP1 SWAP2 SUB SWAP1 RETURN JUMPDEST PUSH2 0x90 PUSH1 0x4 DUP1 CALLDATASIZE SUB DUP2 ADD SWAP1 PUSH2 0x8B SWAP2 SWAP1 PUSH2 0x9F2 JUMP JUMPDEST PUSH2 0x283 JUMP JUMPDEST STOP JUMPDEST PUSH2 0xAC PUSH1 0x4 DUP1 CALLDATASIZE SUB DUP2 ADD SWAP1 PUSH2 0xA7 SWAP2 SWAP1 PUSH2 0x7A5 JUMP JUMPDEST PUSH2 0x3F3 JUMP JUMPDEST PUSH1 0x40 MLOAD PUSH2 0xB9 SWAP2 SWAP1 PUSH2 0xA8C JUMP JUMPDEST PUSH1 0x40 MLOAD DUP1 SWAP2 SUB SWAP1 RETURN JUMPDEST PUSH0 PUSH1 0x60 PUSH0 DUP1 PUSH0 PUSH1 0x1 PUSH0 DUP9 PUSH20 0xFFFFFFFFFFFFFFFFFFFFFFFFFFFFFFFFFFFFFFFF AND PUSH20 0xFFFFFFFFFFFFFFFFFFFFFFFFFFFFFFFFFFFFFFFF AND DUP2 MSTORE PUSH1 0x20 ADD SWAP1 DUP2 MSTORE PUSH1 0x20 ADD PUSH0 KECCAK256 PUSH0 DUP8 DUP2 MSTORE PUSH1 0x20 ADD SWAP1 DUP2 MSTORE PUSH1 0x20 ADD PUSH0 KECCAK256 PUSH0 ADD SLOAD SUB PUSH2 0x157 JUMPI PUSH1 0x40 MLOAD PUSH32 0x8C379A000000000000000000000000000000000000000000000000000000000 DUP2 MSTORE PUSH1 0x4 ADD PUSH2 0x14E SWAP1 PUSH2 0xB15 JUMP JUMPDEST PUSH1 0x40 MLOAD DUP1 SWAP2 SUB SWAP1 REVERT JUMPDEST PUSH0 PUSH1 0x1 PUSH0 DUP9 PUSH20 0xFFFFFFFFFFFFFFFFFFFFFFFFFFFFFFFFFFFFFFFF AND PUSH20 0xFFFFFFFFFFFFFFFFFFFFFFFFFFFFFFFFFFFFFFFF AND DUP2 MSTORE PUSH1 0x20 ADD SWAP1 DUP2 MSTORE PUSH1 0x20 ADD PUSH0 KECCAK256 PUSH0 DUP8 DUP2 MSTORE PUSH1 0x20 ADD SWAP1 DUP2 MSTORE PUSH1 0x20 ADD PUSH0 KECCAK256 PUSH1 0x40 MLOAD DUP1 PUSH1 0x80 ADD PUSH1 0x40 MSTORE SWAP1 DUP2 PUSH0 DUP3 ADD SLOAD DUP2 MSTORE PUSH1 0x20 ADD PUSH1 0x1 DUP3 ADD DUP1 SLOAD PUSH2 0x1C8 SWAP1 PUSH2 0xB60 JUMP JUMPDEST DUP1 PUSH1 0x1F ADD PUSH1 0x20 DUP1 SWAP2 DIV MUL PUSH1 0x20 ADD PUSH1 0x40 MLOAD SWAP1 DUP2 ADD PUSH1 0x40 MSTORE DUP1 SWAP3 SWAP2 SWAP1 DUP2 DUP2 MSTORE PUSH1 0x20 ADD DUP3 DUP1 SLOAD PUSH2 0x1F4 SWAP1 PUSH2 0xB60 JUMP JUMPDEST DUP1 ISZERO PUSH2 0x23F JUMPI DUP1 PUSH1 0x1F LT PUSH2 0x216 JUMPI PUSH2 0x100 DUP1 DUP4 SLOAD DIV MUL DUP4 MSTORE SWAP2 PUSH1 0x20 ADD SWAP2 PUSH2 0x23F JUMP JUMPDEST DUP3 ADD SWAP2 SWAP1 PUSH0 MSTORE PUSH1 0x20 PUSH0 KECCAK256 SWAP1 JUMPDEST DUP2 SLOAD DUP2 MSTORE SWAP1 PUSH1 0x1 ADD SWAP1 PUSH1 0x20 ADD DUP1 DUP4 GT PUSH2 0x222 JUMPI DUP3 SWAP1 SUB PUSH1 0x1F AND DUP3 ADD SWAP2 JUMPDEST POP POP POP POP POP DUP2 MSTORE PUSH1 0x20 ADD PUSH1 0x2 DUP3 ADD SLOAD DUP2 MSTORE PUSH1 0x20 ADD PUSH1 0x3 DUP3 ADD SLOAD DUP2 MSTORE POP POP SWAP1 POP DUP1 PUSH0 ADD MLOAD DUP2 PUSH1 0x20 ADD MLOAD DUP3 PUSH1 0x40 ADD MLOAD DUP4 PUSH1 0x60 ADD MLOAD SWAP5 POP SWAP5 POP SWAP5 POP SWAP5 POP POP SWAP3 SWAP6 SWAP2 SWAP5 POP SWAP3 POP JUMP JUMPDEST PUSH0 DUP4 DUP4 DUP4 DUP8 PUSH1 0x40 MLOAD PUSH1 0x20 ADD PUSH2 0x29B SWAP5 SWAP4 SWAP3 SWAP2 SWAP1 PUSH2 0xC2F JUMP JUMPDEST PUSH1 0x40 MLOAD PUSH1 0x20 DUP2 DUP4 SUB SUB DUP2 MSTORE SWAP1 PUSH1 0x40 MSTORE DUP1 MLOAD SWAP1 PUSH1 0x20 ADD KECCAK256 PUSH0 SHR SWAP1 POP PUSH0 PUSH1 0x1 PUSH0 DUP8 PUSH20 0xFFFFFFFFFFFFFFFFFFFFFFFFFFFFFFFFFFFFFFFF AND PUSH20 0xFFFFFFFFFFFFFFFFFFFFFFFFFFFFFFFFFFFFFFFF AND DUP2 MSTORE PUSH1 0x20 ADD SWAP1 DUP2 MSTORE PUSH1 0x20 ADD PUSH0 KECCAK256 PUSH0 DUP4 DUP2 MSTORE PUSH1 0x20 ADD SWAP1 DUP2 MSTORE PUSH1 0x20 ADD PUSH0 KECCAK256 PUSH0 ADD SLOAD EQ PUSH2 0x345 JUMPI PUSH1 0x40 MLOAD PUSH32 0x8C379A000000000000000000000000000000000000000000000000000000000 DUP2 MSTORE PUSH1 0x4 ADD PUSH2 0x33C SWAP1 PUSH2 0xCE8 JUMP JUMPDEST PUSH1 0x40 MLOAD DUP1 SWAP2 SUB SWAP1 REVERT JUMPDEST PUSH0 PUSH1 0x40 MLOAD DUP1 PUSH1 0x80 ADD PUSH1 0x40 MSTORE DUP1 DUP4 DUP2 MSTORE PUSH1 0x20 ADD DUP7 DUP2 MSTORE PUSH1 0x20 ADD DUP6 DUP2 MSTORE PUSH1 0x20 ADD DUP5 DUP2 MSTORE POP SWAP1 POP DUP1 PUSH1 0x1 PUSH0 DUP9 PUSH20 0xFFFFFFFFFFFFFFFFFFFFFFFFFFFFFFFFFFFFFFFF AND PUSH20 0xFFFFFFFFFFFFFFFFFFFFFFFFFFFFFFFFFFFFFFFF AND DUP2 MSTORE PUSH1 0x20 ADD SWAP1 DUP2 MSTORE PUSH1 0x20 ADD PUSH0 KECCAK256 PUSH0 DUP5 DUP2 MSTORE PUSH1 0x20 ADD SWAP1 DUP2 MSTORE PUSH1 0x20 ADD PUSH0 KECCAK256 PUSH0 DUP3 ADD MLOAD DUP2 PUSH0 ADD SSTORE PUSH1 0x20 DUP3 ADD MLOAD DUP2 PUSH1 0x1 ADD SWAP1 DUP2 PUSH2 0x3D3 SWAP2 SWAP1 PUSH2 0xEA3 JUMP JUMPDEST POP PUSH1 0x40 DUP3 ADD MLOAD DUP2 PUSH1 0x2 ADD SSTORE PUSH1 0x60 DUP3 ADD MLOAD DUP2 PUSH1 0x3 ADD SSTORE SWAP1 POP POP POP POP POP POP POP POP JUMP JUMPDEST PUSH0 DUP1 PUSH1 0x1 PUSH0 DUP6 PUSH20 0xFFFFFFFFFFFFFFFFFFFFFFFFFFFFFFFFFFFFFFFF AND PUSH20 0xFFFFFFFFFFFFFFFFFFFFFFFFFFFFFFFFFFFFFFFF AND DUP2 MSTORE PUSH1 0x20 ADD SWAP1 DUP2 MSTORE PUSH1 0x20 ADD PUSH0 KECCAK256 PUSH0 DUP5 DUP2 MSTORE PUSH1 0x20 ADD SWAP1 DUP2 MSTORE PUSH1 0x20 ADD PUSH0 KECCAK256 PUSH0 ADD SLOAD SUB PUSH2 0x484 JUMPI PUSH1 0x40 MLOAD PUSH32 0x8C379A000000000000000000000000000000000000000000000000000000000 DUP2 MSTORE PUSH1 0x4 ADD PUSH2 0x47B SWAP1 PUSH2 0xB15 JUMP JUMPDEST PUSH1 0x40 MLOAD DUP1 SWAP2 SUB SWAP1 REVERT JUMPDEST PUSH0 PUSH1 0x1 PUSH0 DUP6 PUSH20 0xFFFFFFFFFFFFFFFFFFFFFFFFFFFFFFFFFFFFFFFF AND PUSH20 0xFFFFFFFFFFFFFFFFFFFFFFFFFFFFFFFFFFFFFFFF AND DUP2 MSTORE PUSH1 0x20 ADD SWAP1 DUP2 MSTORE PUSH1 0x20 ADD PUSH0 KECCAK256 PUSH0 DUP5 DUP2 MSTORE PUSH1 0x20 ADD SWAP1 DUP2 MSTORE PUSH1 0x20 ADD PUSH0 KECCAK256 PUSH1 0x1 ADD PUSH1 0x1 PUSH0 DUP7 PUSH20 0xFFFFFFFFFFFFFFFFFFFFFFFFFFFFFFFFFFFFFFFF AND PUSH20 0xFFFFFFFFFFFFFFFFFFFFFFFFFFFFFFFFFFFFFFFF AND DUP2 MSTORE PUSH1 0x20 ADD SWAP1 DUP2 MSTORE PUSH1 0x20 ADD PUSH0 KECCAK256 PUSH0 DUP6 DUP2 MSTORE PUSH1 0x20 ADD SWAP1 DUP2 MSTORE PUSH1 0x20 ADD PUSH0 KECCAK256 PUSH1 0x2 ADD SLOAD PUSH1 0x1 PUSH0 DUP8 PUSH20 0xFFFFFFFFFFFFFFFFFFFFFFFFFFFFFFFFFFFFFFFF AND PUSH20 0xFFFFFFFFFFFFFFFFFFFFFFFFFFFFFFFFFFFFFFFF AND DUP2 MSTORE PUSH1 0x20 ADD SWAP1 DUP2 MSTORE PUSH1 0x20 ADD PUSH0 KECCAK256 PUSH0 DUP7 DUP2 MSTORE PUSH1 0x20 ADD SWAP1 DUP2 MSTORE PUSH1 0x20 ADD PUSH0 KECCAK256 PUSH1 0x3 ADD SLOAD DUP7 PUSH1 0x40 MLOAD PUSH1 0x20 ADD PUSH2 0x588 SWAP5 SWAP4 SWAP3 SWAP2 SWAP1 PUSH2 0xFF2 JUMP JUMPDEST PUSH1 0x40 MLOAD PUSH1 0x20 DUP2 DUP4 SUB SUB DUP2 MSTORE SWAP1 PUSH1 0x40 MSTORE DUP1 MLOAD SWAP1 PUSH1 0x20 ADD KECCAK256 PUSH0 SHR SWAP1 POP DUP1 PUSH1 0x1 PUSH0 DUP7 PUSH20 0xFFFFFFFFFFFFFFFFFFFFFFFFFFFFFFFFFFFFFFFF AND PUSH20 0xFFFFFFFFFFFFFFFFFFFFFFFFFFFFFFFFFFFFFFFF AND DUP2 MSTORE PUSH1 0x20 ADD SWAP1 DUP2 MSTORE PUSH1 0x20 ADD PUSH0 KECCAK256 PUSH0 DUP6 DUP2 MSTORE PUSH1 0x20 ADD SWAP1 DUP2 MSTORE PUSH1 0x20 ADD PUSH0 KECCAK256 PUSH0 ADD SLOAD EQ PUSH2 0x632 JUMPI PUSH1 0x40 MLOAD PUSH32 0x8C379A000000000000000000000000000000000000000000000000000000000 DUP2 MSTORE PUSH1 0x4 ADD PUSH2 0x629 SWAP1 PUSH2 0x1085 JUMP JUMPDEST PUSH1 0x40 MLOAD DUP1 SWAP2 SUB SWAP1 REVERT JUMPDEST PUSH1 0x1 PUSH0 DUP6 PUSH20 0xFFFFFFFFFFFFFFFFFFFFFFFFFFFFFFFFFFFFFFFF AND PUSH20 0xFFFFFFFFFFFFFFFFFFFFFFFFFFFFFFFFFFFFFFFF AND DUP2 MSTORE PUSH1 0x20 ADD SWAP1 DUP2 MSTORE PUSH1 0x20 ADD PUSH0 KECCAK256 PUSH0 DUP5 DUP2 MSTORE PUSH1 0x20 ADD SWAP1 DUP2 MSTORE PUSH1 0x20 ADD PUSH0 KECCAK256 PUSH0 DUP1 DUP3 ADD PUSH0 SWAP1 SSTORE PUSH1 0x1 DUP3 ADD PUSH0 PUSH2 0x694 SWAP2 SWAP1 PUSH2 0x6AF JUMP JUMPDEST PUSH1 0x2 DUP3 ADD PUSH0 SWAP1 SSTORE PUSH1 0x3 DUP3 ADD PUSH0 SWAP1 SSTORE POP POP PUSH1 0x1 SWAP2 POP POP SWAP3 SWAP2 POP POP JUMP JUMPDEST POP DUP1 SLOAD PUSH2 0x6BB SWAP1 PUSH2 0xB60 JUMP JUMPDEST PUSH0 DUP3 SSTORE DUP1 PUSH1 0x1F LT PUSH2 0x6CC JUMPI POP PUSH2 0x6E9 JUMP JUMPDEST PUSH1 0x1F ADD PUSH1 0x20 SWAP1 DIV SWAP1 PUSH0 MSTORE PUSH1 0x20 PUSH0 KECCAK256 SWAP1 DUP2 ADD SWAP1 PUSH2 0x6E8 SWAP2 SWAP1 PUSH2 0x6EC JUMP JUMPDEST JUMPDEST POP JUMP JUMPDEST JUMPDEST DUP1 DUP3 GT ISZERO PUSH2 0x703 JUMPI PUSH0 DUP2 PUSH0 SWAP1 SSTORE POP PUSH1 0x1 ADD PUSH2 0x6ED JUMP JUMPDEST POP SWAP1 JUMP JUMPDEST PUSH0 PUSH1 0x40 MLOAD SWAP1 POP SWAP1 JUMP JUMPDEST PUSH0 DUP1 REVERT JUMPDEST PUSH0 DUP1 REVERT JUMPDEST PUSH0 PUSH20 0xFFFFFFFFFFFFFFFFFFFFFFFFFFFFFFFFFFFFFFFF DUP3 AND SWAP1 POP SWAP2 SWAP1 POP JUMP JUMPDEST PUSH0 PUSH2 0x741 DUP3 PUSH2 0x718 JUMP JUMPDEST SWAP1 POP SWAP2 SWAP1 POP JUMP JUMPDEST PUSH2 0x751 DUP2 PUSH2 0x737 JUMP JUMPDEST DUP2 EQ PUSH2 0x75B JUMPI PUSH0 DUP1 REVERT JUMPDEST POP JUMP JUMPDEST PUSH0 DUP2 CALLDATALOAD SWAP1 POP PUSH2 0x76C DUP2 PUSH2 0x748 JUMP JUMPDEST SWAP3 SWAP2 POP POP JUMP JUMPDEST PUSH0 DUP2 SWAP1 POP SWAP2 SWAP1 POP JUMP JUMPDEST PUSH2 0x784 DUP2 PUSH2 0x772 JUMP JUMPDEST DUP2 EQ PUSH2 0x78E JUMPI PUSH0 DUP1 REVERT JUMPDEST POP JUMP JUMPDEST PUSH0 DUP2 CALLDATALOAD SWAP1 POP PUSH2 0x79F DUP2 PUSH2 0x77B JUMP JUMPDEST SWAP3 SWAP2 POP POP JUMP JUMPDEST PUSH0 DUP1 PUSH1 0x40 DUP4 DUP6 SUB SLT ISZERO PUSH2 0x7BB JUMPI PUSH2 0x7BA PUSH2 0x710 JUMP JUMPDEST JUMPDEST PUSH0 PUSH2 0x7C8 DUP6 DUP3 DUP7 ADD PUSH2 0x75E JUMP JUMPDEST SWAP3 POP POP PUSH1 0x20 PUSH2 0x7D9 DUP6 DUP3 DUP7 ADD PUSH2 0x791 JUMP JUMPDEST SWAP2 POP POP SWAP3 POP SWAP3 SWAP1 POP JUMP JUMPDEST PUSH2 0x7EC DUP2 PUSH2 0x772 JUMP JUMPDEST DUP3 MSTORE POP POP JUMP JUMPDEST PUSH0 DUP2 MLOAD SWAP1 POP SWAP2 SWAP1 POP JUMP JUMPDEST PUSH0 DUP3 DUP3 MSTORE PUSH1 0x20 DUP3 ADD SWAP1 POP SWAP3 SWAP2 POP POP JUMP JUMPDEST PUSH0 JUMPDEST DUP4 DUP2 LT ISZERO PUSH2 0x829 JUMPI DUP1 DUP3 ADD MLOAD DUP2 DUP5 ADD MSTORE PUSH1 0x20 DUP2 ADD SWAP1 POP PUSH2 0x80E JUMP JUMPDEST PUSH0 DUP5 DUP5 ADD MSTORE POP POP POP POP JUMP JUMPDEST PUSH0 PUSH1 0x1F NOT PUSH1 0x1F DUP4 ADD AND SWAP1 POP SWAP2 SWAP1 POP JUMP JUMPDEST PUSH0 PUSH2 0x84E DUP3 PUSH2 0x7F2 JUMP JUMPDEST PUSH2 0x858 DUP2 DUP6 PUSH2 0x7FC JUMP JUMPDEST SWAP4 POP PUSH2 0x868 DUP2 DUP6 PUSH1 0x20 DUP7 ADD PUSH2 0x80C JUMP JUMPDEST PUSH2 0x871 DUP2 PUSH2 0x834 JUMP JUMPDEST DUP5 ADD SWAP2 POP POP SWAP3 SWAP2 POP POP JUMP JUMPDEST PUSH0 PUSH1 0x80 DUP3 ADD SWAP1 POP PUSH2 0x88F PUSH0 DUP4 ADD DUP8 PUSH2 0x7E3 JUMP JUMPDEST DUP2 DUP2 SUB PUSH1 0x20 DUP4 ADD MSTORE PUSH2 0x8A1 DUP2 DUP7 PUSH2 0x844 JUMP JUMPDEST SWAP1 POP PUSH2 0x8B0 PUSH1 0x40 DUP4 ADD DUP6 PUSH2 0x7E3 JUMP JUMPDEST PUSH2 0x8BD PUSH1 0x60 DUP4 ADD DUP5 PUSH2 0x7E3 JUMP JUMPDEST SWAP6 SWAP5 POP POP POP POP POP JUMP JUMPDEST PUSH0 DUP1 REVERT JUMPDEST PUSH0 DUP1 REVERT JUMPDEST PUSH32 0x4E487B7100000000000000000000000000000000000000000000000000000000 PUSH0 MSTORE PUSH1 0x41 PUSH1 0x4 MSTORE PUSH1 0x24 PUSH0 REVERT JUMPDEST PUSH2 0x904 DUP3 PUSH2 0x834 JUMP JUMPDEST DUP2 ADD DUP2 DUP2 LT PUSH8 0xFFFFFFFFFFFFFFFF DUP3 GT OR ISZERO PUSH2 0x923 JUMPI PUSH2 0x922 PUSH2 0x8CE JUMP JUMPDEST JUMPDEST DUP1 PUSH1 0x40 MSTORE POP POP POP JUMP JUMPDEST PUSH0 PUSH2 0x935 PUSH2 0x707 JUMP JUMPDEST SWAP1 POP PUSH2 0x941 DUP3 DUP3 PUSH2 0x8FB JUMP JUMPDEST SWAP2 SWAP1 POP JUMP JUMPDEST PUSH0 PUSH8 0xFFFFFFFFFFFFFFFF DUP3 GT ISZERO PUSH2 0x960 JUMPI PUSH2 0x95F PUSH2 0x8CE JUMP JUMPDEST JUMPDEST PUSH2 0x969 DUP3 PUSH2 0x834 JUMP JUMPDEST SWAP1 POP PUSH1 0x20 DUP2 ADD SWAP1 POP SWAP2 SWAP1 POP JUMP JUMPDEST DUP3 DUP2 DUP4 CALLDATACOPY PUSH0 DUP4 DUP4 ADD MSTORE POP POP POP JUMP JUMPDEST PUSH0 PUSH2 0x996 PUSH2 0x991 DUP5 PUSH2 0x946 JUMP JUMPDEST PUSH2 0x92C JUMP JUMPDEST SWAP1 POP DUP3 DUP2 MSTORE PUSH1 0x20 DUP2 ADD DUP5 DUP5 DUP5 ADD GT ISZERO PUSH2 0x9B2 JUMPI PUSH2 0x9B1 PUSH2 0x8CA JUMP JUMPDEST JUMPDEST PUSH2 0x9BD DUP5 DUP3 DUP6 PUSH2 0x976 JUMP JUMPDEST POP SWAP4 SWAP3 POP POP POP JUMP JUMPDEST PUSH0 DUP3 PUSH1 0x1F DUP4 ADD SLT PUSH2 0x9D9 JUMPI PUSH2 0x9D8 PUSH2 0x8C6 JUMP JUMPDEST JUMPDEST DUP2 CALLDATALOAD PUSH2 0x9E9 DUP5 DUP3 PUSH1 0x20 DUP7 ADD PUSH2 0x984 JUMP JUMPDEST SWAP2 POP POP SWAP3 SWAP2 POP POP JUMP JUMPDEST PUSH0 DUP1 PUSH0 DUP1 PUSH1 0x80 DUP6 DUP8 SUB SLT ISZERO PUSH2 0xA0A JUMPI PUSH2 0xA09 PUSH2 0x710 JUMP JUMPDEST JUMPDEST PUSH0 PUSH2 0xA17 DUP8 DUP3 DUP9 ADD PUSH2 0x75E JUMP JUMPDEST SWAP5 POP POP PUSH1 0x20 DUP6 ADD CALLDATALOAD PUSH8 0xFFFFFFFFFFFFFFFF DUP2 GT ISZERO PUSH2 0xA38 JUMPI PUSH2 0xA37 PUSH2 0x714 JUMP JUMPDEST JUMPDEST PUSH2 0xA44 DUP8 DUP3 DUP9 ADD PUSH2 0x9C5 JUMP JUMPDEST SWAP4 POP POP PUSH1 0x40 PUSH2 0xA55 DUP8 DUP3 DUP9 ADD PUSH2 0x791 JUMP JUMPDEST SWAP3 POP POP PUSH1 0x60 PUSH2 0xA66 DUP8 DUP3 DUP9 ADD PUSH2 0x791 JUMP JUMPDEST SWAP2 POP POP SWAP3 SWAP6 SWAP2 SWAP5 POP SWAP3 POP JUMP JUMPDEST PUSH0 DUP2 ISZERO ISZERO SWAP1 POP SWAP2 SWAP1 POP JUMP JUMPDEST PUSH2 0xA86 DUP2 PUSH2 0xA72 JUMP JUMPDEST DUP3 MSTORE POP POP JUMP JUMPDEST PUSH0 PUSH1 0x20 DUP3 ADD SWAP1 POP PUSH2 0xA9F PUSH0 DUP4 ADD DUP5 PUSH2 0xA7D JUMP JUMPDEST SWAP3 SWAP2 POP POP JUMP JUMPDEST PUSH32 0x426C6F63636F20646920666F726D616767696F206E6F6E2070726573656E7465 PUSH0 DUP3 ADD MSTORE PUSH32 0x2100000000000000000000000000000000000000000000000000000000000000 PUSH1 0x20 DUP3 ADD MSTORE POP JUMP JUMPDEST PUSH0 PUSH2 0xAFF PUSH1 0x21 DUP4 PUSH2 0x7FC JUMP JUMPDEST SWAP2 POP PUSH2 0xB0A DUP3 PUSH2 0xAA5 JUMP JUMPDEST PUSH1 0x40 DUP3 ADD SWAP1 POP SWAP2 SWAP1 POP JUMP JUMPDEST PUSH0 PUSH1 0x20 DUP3 ADD SWAP1 POP DUP2 DUP2 SUB PUSH0 DUP4 ADD MSTORE PUSH2 0xB2C DUP2 PUSH2 0xAF3 JUMP JUMPDEST SWAP1 POP SWAP2 SWAP1 POP JUMP JUMPDEST PUSH32 0x4E487B7100000000000000000000000000000000000000000000000000000000 PUSH0 MSTORE PUSH1 0x22 PUSH1 0x4 MSTORE PUSH1 0x24 PUSH0 REVERT JUMPDEST PUSH0 PUSH1 0x2 DUP3 DIV SWAP1 POP PUSH1 0x1 DUP3 AND DUP1 PUSH2 0xB77 JUMPI PUSH1 0x7F DUP3 AND SWAP2 POP JUMPDEST PUSH1 0x20 DUP3 LT DUP2 SUB PUSH2 0xB8A JUMPI PUSH2 0xB89 PUSH2 0xB33 JUMP JUMPDEST JUMPDEST POP SWAP2 SWAP1 POP JUMP JUMPDEST PUSH0 DUP2 SWAP1 POP SWAP3 SWAP2 POP POP JUMP JUMPDEST PUSH0 PUSH2 0xBA4 DUP3 PUSH2 0x7F2 JUMP JUMPDEST PUSH2 0xBAE DUP2 DUP6 PUSH2 0xB90 JUMP JUMPDEST SWAP4 POP PUSH2 0xBBE DUP2 DUP6 PUSH1 0x20 DUP7 ADD PUSH2 0x80C JUMP JUMPDEST DUP1 DUP5 ADD SWAP2 POP POP SWAP3 SWAP2 POP POP JUMP JUMPDEST PUSH0 DUP2 SWAP1 POP SWAP2 SWAP1 POP JUMP JUMPDEST PUSH2 0xBE4 PUSH2 0xBDF DUP3 PUSH2 0x772 JUMP JUMPDEST PUSH2 0xBCA JUMP JUMPDEST DUP3 MSTORE POP POP JUMP JUMPDEST PUSH0 DUP2 PUSH1 0x60 SHL SWAP1 POP SWAP2 SWAP1 POP JUMP JUMPDEST PUSH0 PUSH2 0xC00 DUP3 PUSH2 0xBEA JUMP JUMPDEST SWAP1 POP SWAP2 SWAP1 POP JUMP JUMPDEST PUSH0 PUSH2 0xC11 DUP3 PUSH2 0xBF6 JUMP JUMPDEST SWAP1 POP SWAP2 SWAP1 POP JUMP JUMPDEST PUSH2 0xC29 PUSH2 0xC24 DUP3 PUSH2 0x737 JUMP JUMPDEST PUSH2 0xC07 JUMP JUMPDEST DUP3 MSTORE POP POP JUMP JUMPDEST PUSH0 PUSH2 0xC3A DUP3 DUP8 PUSH2 0xB9A JUMP JUMPDEST SWAP2 POP PUSH2 0xC46 DUP3 DUP7 PUSH2 0xBD3 JUMP JUMPDEST PUSH1 0x20 DUP3 ADD SWAP2 POP PUSH2 0xC56 DUP3 DUP6 PUSH2 0xBD3 JUMP JUMPDEST PUSH1 0x20 DUP3 ADD SWAP2 POP PUSH2 0xC66 DUP3 DUP5 PUSH2 0xC18 JUMP JUMPDEST PUSH1 0x14 DUP3 ADD SWAP2 POP DUP2 SWAP1 POP SWAP6 SWAP5 POP POP POP POP POP JUMP JUMPDEST PUSH32 0x426C6F63636F20646920666F726D616767696F20676961272070726573656E74 PUSH0 DUP3 ADD MSTORE PUSH32 0x6521000000000000000000000000000000000000000000000000000000000000 PUSH1 0x20 DUP3 ADD MSTORE POP JUMP JUMPDEST PUSH0 PUSH2 0xCD2 PUSH1 0x22 DUP4 PUSH2 0x7FC JUMP JUMPDEST SWAP2 POP PUSH2 0xCDD DUP3 PUSH2 0xC78 JUMP JUMPDEST PUSH1 0x40 DUP3 ADD SWAP1 POP SWAP2 SWAP1 POP JUMP JUMPDEST PUSH0 PUSH1 0x20 DUP3 ADD SWAP1 POP DUP2 DUP2 SUB PUSH0 DUP4 ADD MSTORE PUSH2 0xCFF DUP2 PUSH2 0xCC6 JUMP JUMPDEST SWAP1 POP SWAP2 SWAP1 POP JUMP JUMPDEST PUSH0 DUP2 SWAP1 POP DUP2 PUSH0 MSTORE PUSH1 0x20 PUSH0 KECCAK256 SWAP1 POP SWAP2 SWAP1 POP JUMP JUMPDEST PUSH0 PUSH1 0x20 PUSH1 0x1F DUP4 ADD DIV SWAP1 POP SWAP2 SWAP1 POP JUMP JUMPDEST PUSH0 DUP3 DUP3 SHL SWAP1 POP SWAP3 SWAP2 POP POP JUMP JUMPDEST PUSH0 PUSH1 0x8 DUP4 MUL PUSH2 0xD62 PUSH32 0xFFFFFFFFFFFFFFFFFFFFFFFFFFFFFFFFFFFFFFFFFFFFFFFFFFFFFFFFFFFFFFFF DUP3 PUSH2 0xD27 JUMP JUMPDEST PUSH2 0xD6C DUP7 DUP4 PUSH2 0xD27 JUMP JUMPDEST SWAP6 POP DUP1 NOT DUP5 AND SWAP4 POP DUP1 DUP7 AND DUP5 OR SWAP3 POP POP POP SWAP4 SWAP3 POP POP POP JUMP JUMPDEST PUSH0 DUP2 SWAP1 POP SWAP2 SWAP1 POP JUMP JUMPDEST PUSH0 PUSH2 0xDA7 PUSH2 0xDA2 PUSH2 0xD9D DUP5 PUSH2 0x772 JUMP JUMPDEST PUSH2 0xD84 JUMP JUMPDEST PUSH2 0x772 JUMP JUMPDEST SWAP1 POP SWAP2 SWAP1 POP JUMP JUMPDEST PUSH0 DUP2 SWAP1 POP SWAP2 SWAP1 POP JUMP JUMPDEST PUSH2 0xDC0 DUP4 PUSH2 0xD8D JUMP JUMPDEST PUSH2 0xDD4 PUSH2 0xDCC DUP3 PUSH2 0xDAE JUMP JUMPDEST DUP5 DUP5 SLOAD PUSH2 0xD33 JUMP JUMPDEST DUP3 SSTORE POP POP POP POP JUMP JUMPDEST PUSH0 SWAP1 JUMP JUMPDEST PUSH2 0xDE8 PUSH2 0xDDC JUMP JUMPDEST PUSH2 0xDF3 DUP2 DUP5 DUP5 PUSH2 0xDB7 JUMP JUMPDEST POP POP POP JUMP JUMPDEST JUMPDEST DUP2 DUP2 LT ISZERO PUSH2 0xE16 JUMPI PUSH2 0xE0B PUSH0 DUP3 PUSH2 0xDE0 JUMP JUMPDEST PUSH1 0x1 DUP2 ADD SWAP1 POP PUSH2 0xDF9 JUMP JUMPDEST POP POP JUMP JUMPDEST PUSH1 0x1F DUP3 GT ISZERO PUSH2 0xE5B JUMPI PUSH2 0xE2C DUP2 PUSH2 0xD06 JUMP JUMPDEST PUSH2 0xE35 DUP5 PUSH2 0xD18 JUMP JUMPDEST DUP2 ADD PUSH1 0x20 DUP6 LT ISZERO PUSH2 0xE44 JUMPI DUP2 SWAP1 POP JUMPDEST PUSH2 0xE58 PUSH2 0xE50 DUP6 PUSH2 0xD18 JUMP JUMPDEST DUP4 ADD DUP3 PUSH2 0xDF8 JUMP JUMPDEST POP POP JUMPDEST POP POP POP JUMP JUMPDEST PUSH0 DUP3 DUP3 SHR SWAP1 POP SWAP3 SWAP2 POP POP JUMP JUMPDEST PUSH0 PUSH2 0xE7B PUSH0 NOT DUP5 PUSH1 0x8 MUL PUSH2 0xE60 JUMP JUMPDEST NOT DUP1 DUP4 AND SWAP2 POP POP SWAP3 SWAP2 POP POP JUMP JUMPDEST PUSH0 PUSH2 0xE93 DUP4 DUP4 PUSH2 0xE6C JUMP JUMPDEST SWAP2 POP DUP3 PUSH1 0x2 MUL DUP3 OR SWAP1 POP SWAP3 SWAP2 POP POP JUMP JUMPDEST PUSH2 0xEAC DUP3 PUSH2 0x7F2 JUMP JUMPDEST PUSH8 0xFFFFFFFFFFFFFFFF DUP2 GT ISZERO PUSH2 0xEC5 JUMPI PUSH2 0xEC4 PUSH2 0x8CE JUMP JUMPDEST JUMPDEST PUSH2 0xECF DUP3 SLOAD PUSH2 0xB60 JUMP JUMPDEST PUSH2 0xEDA DUP3 DUP3 DUP6 PUSH2 0xE1A JUMP JUMPDEST PUSH0 PUSH1 0x20 SWAP1 POP PUSH1 0x1F DUP4 GT PUSH1 0x1 DUP2 EQ PUSH2 0xF0B JUMPI PUSH0 DUP5 ISZERO PUSH2 0xEF9 JUMPI DUP3 DUP8 ADD MLOAD SWAP1 POP JUMPDEST PUSH2 0xF03 DUP6 DUP3 PUSH2 0xE88 JUMP JUMPDEST DUP7 SSTORE POP PUSH2 0xF6A JUMP JUMPDEST PUSH1 0x1F NOT DUP5 AND PUSH2 0xF19 DUP7 PUSH2 0xD06 JUMP JUMPDEST PUSH0 JUMPDEST DUP3 DUP2 LT ISZERO PUSH2 0xF40 JUMPI DUP5 DUP10 ADD MLOAD DUP3 SSTORE PUSH1 0x1 DUP3 ADD SWAP2 POP PUSH1 0x20 DUP6 ADD SWAP5 POP PUSH1 0x20 DUP2 ADD SWAP1 POP PUSH2 0xF1B JUMP JUMPDEST DUP7 DUP4 LT ISZERO PUSH2 0xF5D JUMPI DUP5 DUP10 ADD MLOAD PUSH2 0xF59 PUSH1 0x1F DUP10 AND DUP3 PUSH2 0xE6C JUMP JUMPDEST DUP4 SSTORE POP JUMPDEST PUSH1 0x1 PUSH1 0x2 DUP9 MUL ADD DUP9 SSTORE POP POP POP JUMPDEST POP POP POP POP POP POP JUMP JUMPDEST PUSH0 DUP2 SLOAD PUSH2 0xF7E DUP2 PUSH2 0xB60 JUMP JUMPDEST PUSH2 0xF88 DUP2 DUP7 PUSH2 0xB90 JUMP JUMPDEST SWAP5 POP PUSH1 0x1 DUP3 AND PUSH0 DUP2 EQ PUSH2 0xFA2 JUMPI PUSH1 0x1 DUP2 EQ PUSH2 0xFB7 JUMPI PUSH2 0xFE9 JUMP JUMPDEST PUSH1 0xFF NOT DUP4 AND DUP7 MSTORE DUP2 ISZERO ISZERO DUP3 MUL DUP7 ADD SWAP4 POP PUSH2 0xFE9 JUMP JUMPDEST PUSH2 0xFC0 DUP6 PUSH2 0xD06 JUMP JUMPDEST PUSH0 JUMPDEST DUP4 DUP2 LT ISZERO PUSH2 0xFE1 JUMPI DUP2 SLOAD DUP2 DUP10 ADD MSTORE PUSH1 0x1 DUP3 ADD SWAP2 POP PUSH1 0x20 DUP2 ADD SWAP1 POP PUSH2 0xFC2 JUMP JUMPDEST DUP4 DUP9 ADD SWAP6 POP POP POP JUMPDEST POP POP POP SWAP3 SWAP2 POP POP JUMP JUMPDEST PUSH0 PUSH2 0xFFD DUP3 DUP8 PUSH2 0xF72 JUMP JUMPDEST SWAP2 POP PUSH2 0x1009 DUP3 DUP7 PUSH2 0xBD3 JUMP JUMPDEST PUSH1 0x20 DUP3 ADD SWAP2 POP PUSH2 0x1019 DUP3 DUP6 PUSH2 0xBD3 JUMP JUMPDEST PUSH1 0x20 DUP3 ADD SWAP2 POP PUSH2 0x1029 DUP3 DUP5 PUSH2 0xC18 JUMP JUMPDEST PUSH1 0x14 DUP3 ADD SWAP2 POP DUP2 SWAP1 POP SWAP6 SWAP5 POP POP POP POP POP JUMP JUMPDEST PUSH32 0x5574656E7465206E6F6E204175746F72697A7A61746F21000000000000000000 PUSH0 DUP3 ADD MSTORE POP JUMP JUMPDEST PUSH0 PUSH2 0x106F PUSH1 0x17 DUP4 PUSH2 0x7FC JUMP JUMPDEST SWAP2 POP PUSH2 0x107A DUP3 PUSH2 0x103B JUMP JUMPDEST PUSH1 0x20 DUP3 ADD SWAP1 POP SWAP2 SWAP1 POP JUMP JUMPDEST PUSH0 PUSH1 0x20 DUP3 ADD SWAP1 POP DUP2 DUP2 SUB PUSH0 DUP4 ADD MSTORE PUSH2 0x109C DUP2 PUSH2 0x1063 JUMP JUMPDEST SWAP1 POP SWAP2 SWAP1 POP JUMP INVALID LOG2 PUSH5 0x6970667358 0x22 SLT KECCAK256 STATICCALL MSTORE8 0xB4 0xFB 0x26 SHR 0xAF PUSH21 0x1CA508FF3DEBD0FE4512528CFD2F8C12070FB5FF24 SWAP16 0x26 0xB0 PUSH5 0x736F6C6343 STOP ADDMOD AND STOP CALLER "
				},
				"gasEstimates": {
					"creation": {
						"codeDepositCost": "862600",
						"executionCost": "25159",
						"totalCost": "887759"
					},
					"external": {
						"addCheeseBlock(address,string,uint256,uint256)": "infinite",
						"deleteCheeseBlock(address,uint256)": "infinite",
						"getCheeseBlock(address,uint256)": "infinite"
					}
				},
				"methodIdentifiers": {
					"addCheeseBlock(address,string,uint256,uint256)": "ab23e04a",
					"deleteCheeseBlock(address,uint256)": "f437eff1",
					"getCheeseBlock(address,uint256)": "6fb82e06"
				}
			},
			"storageLayout": {
				"storage": [
					{
						"astId": 3,
						"contract": "Filiera-Token-SmartContract/contracts/Actor/CheeseProducer-smart-contract/inventory/CheeseProducerInventoryStorage.sol:CheeseProducerInventoryStorage",
						"label": "cheeseProducerOrg",
						"offset": 0,
						"slot": "0",
						"type": "t_address"
					},
					{
						"astId": 28,
						"contract": "Filiera-Token-SmartContract/contracts/Actor/CheeseProducer-smart-contract/inventory/CheeseProducerInventoryStorage.sol:CheeseProducerInventoryStorage",
						"label": "cheeseBlocks",
						"offset": 0,
						"slot": "1",
						"type": "t_mapping(t_address,t_mapping(t_uint256,t_struct(Cheese)21_storage))"
					}
				],
				"types": {
					"t_address": {
						"encoding": "inplace",
						"label": "address",
						"numberOfBytes": "20"
					},
					"t_mapping(t_address,t_mapping(t_uint256,t_struct(Cheese)21_storage))": {
						"encoding": "mapping",
						"key": "t_address",
						"label": "mapping(address => mapping(uint256 => struct CheeseProducerInventoryStorage.Cheese))",
						"numberOfBytes": "32",
						"value": "t_mapping(t_uint256,t_struct(Cheese)21_storage)"
					},
					"t_mapping(t_uint256,t_struct(Cheese)21_storage)": {
						"encoding": "mapping",
						"key": "t_uint256",
						"label": "mapping(uint256 => struct CheeseProducerInventoryStorage.Cheese)",
						"numberOfBytes": "32",
						"value": "t_struct(Cheese)21_storage"
					},
					"t_string_storage": {
						"encoding": "bytes",
						"label": "string",
						"numberOfBytes": "32"
					},
					"t_struct(Cheese)21_storage": {
						"encoding": "inplace",
						"label": "struct CheeseProducerInventoryStorage.Cheese",
						"members": [
							{
								"astId": 14,
								"contract": "Filiera-Token-SmartContract/contracts/Actor/CheeseProducer-smart-contract/inventory/CheeseProducerInventoryStorage.sol:CheeseProducerInventoryStorage",
								"label": "id",
								"offset": 0,
								"slot": "0",
								"type": "t_uint256"
							},
							{
								"astId": 16,
								"contract": "Filiera-Token-SmartContract/contracts/Actor/CheeseProducer-smart-contract/inventory/CheeseProducerInventoryStorage.sol:CheeseProducerInventoryStorage",
								"label": "dop",
								"offset": 0,
								"slot": "1",
								"type": "t_string_storage"
							},
							{
								"astId": 18,
								"contract": "Filiera-Token-SmartContract/contracts/Actor/CheeseProducer-smart-contract/inventory/CheeseProducerInventoryStorage.sol:CheeseProducerInventoryStorage",
								"label": "price",
								"offset": 0,
								"slot": "2",
								"type": "t_uint256"
							},
							{
								"astId": 20,
								"contract": "Filiera-Token-SmartContract/contracts/Actor/CheeseProducer-smart-contract/inventory/CheeseProducerInventoryStorage.sol:CheeseProducerInventoryStorage",
								"label": "quantity",
								"offset": 0,
								"slot": "3",
								"type": "t_uint256"
							}
						],
						"numberOfBytes": "128"
					},
					"t_uint256": {
						"encoding": "inplace",
						"label": "uint256",
						"numberOfBytes": "32"
					}
				}
			},
			"userdoc": {
				"kind": "user",
				"methods": {},
				"version": 1
			}
		}
	}
}