{
	"contracts/Actor/CheeseProducer-smart-contract/inventory/CheeseProducerMilkBatchStorage.sol": {
		"CheeseProducerMilkBatchStorage": {
			"abi": [
				{
					"inputs": [],
					"stateMutability": "nonpayable",
					"type": "constructor"
				},
				{
					"inputs": [
						{
							"internalType": "address",
							"name": "_walletCheeseProducer",
							"type": "address"
						},
						{
							"internalType": "address",
							"name": "_walletMilkHub",
							"type": "address"
						},
						{
							"internalType": "string",
							"name": "_expirationDate",
							"type": "string"
						},
						{
							"internalType": "uint256",
							"name": "_quantity",
							"type": "uint256"
						}
					],
					"name": "addMilkBatch",
					"outputs": [],
					"stateMutability": "nonpayable",
					"type": "function"
				},
				{
					"inputs": [
						{
							"internalType": "address",
							"name": "walletCheeseProducer",
							"type": "address"
						},
						{
							"internalType": "uint256",
							"name": "_id",
							"type": "uint256"
						},
						{
							"internalType": "uint256",
							"name": "_quantityToTransform",
							"type": "uint256"
						}
					],
					"name": "checkMilkBatch",
					"outputs": [
						{
							"internalType": "bool",
							"name": "",
							"type": "bool"
						}
					],
					"stateMutability": "view",
					"type": "function"
				},
				{
					"inputs": [
						{
							"internalType": "address",
							"name": "walletCheeseProducer",
							"type": "address"
						},
						{
							"internalType": "uint256",
							"name": "_id",
							"type": "uint256"
						}
					],
					"name": "deleteMilkBatch",
					"outputs": [
						{
							"internalType": "bool",
							"name": "value",
							"type": "bool"
						}
					],
					"stateMutability": "nonpayable",
					"type": "function"
				},
				{
					"inputs": [
						{
							"internalType": "address",
							"name": "walletCheeseProducer",
							"type": "address"
						},
						{
							"internalType": "uint256",
							"name": "_id",
							"type": "uint256"
						},
						{
							"internalType": "uint256",
							"name": "_quantity",
							"type": "uint256"
						}
					],
					"name": "detractMilkBatchQuantity",
					"outputs": [
						{
							"internalType": "bool",
							"name": "value",
							"type": "bool"
						}
					],
					"stateMutability": "nonpayable",
					"type": "function"
				},
				{
					"inputs": [
						{
							"internalType": "address",
							"name": "walletCheeseProducer",
							"type": "address"
						},
						{
							"internalType": "uint256",
							"name": "_id",
							"type": "uint256"
						}
					],
					"name": "getExpirationDate",
					"outputs": [
						{
							"internalType": "string",
							"name": "",
							"type": "string"
						}
					],
					"stateMutability": "view",
					"type": "function"
				},
				{
					"inputs": [
						{
							"internalType": "address",
							"name": "walletCheeseProducer",
							"type": "address"
						},
						{
							"internalType": "uint256",
							"name": "_id",
							"type": "uint256"
						}
					],
					"name": "getId",
					"outputs": [
						{
							"internalType": "uint256",
							"name": "",
							"type": "uint256"
						}
					],
					"stateMutability": "view",
					"type": "function"
				},
				{
					"inputs": [
						{
							"internalType": "address",
							"name": "walletCheeseProducer",
							"type": "address"
						},
						{
							"internalType": "uint256",
							"name": "_id",
							"type": "uint256"
						}
					],
					"name": "getMilkBatch",
					"outputs": [
						{
							"internalType": "uint256",
							"name": "",
							"type": "uint256"
						},
						{
							"internalType": "address",
							"name": "",
							"type": "address"
						},
						{
							"internalType": "string",
							"name": "",
							"type": "string"
						},
						{
							"internalType": "uint256",
							"name": "",
							"type": "uint256"
						}
					],
					"stateMutability": "view",
					"type": "function"
				},
				{
					"inputs": [
						{
							"internalType": "address",
							"name": "walletCheeseProducer",
							"type": "address"
						},
						{
							"internalType": "uint256",
							"name": "_id",
							"type": "uint256"
						}
					],
					"name": "getQuantity",
					"outputs": [
						{
							"internalType": "uint256",
							"name": "",
							"type": "uint256"
						}
					],
					"stateMutability": "view",
					"type": "function"
				},
				{
					"inputs": [
						{
							"internalType": "address",
							"name": "walletCheeseProducer",
							"type": "address"
						},
						{
							"internalType": "uint256",
							"name": "_id",
							"type": "uint256"
						}
					],
					"name": "getWalletMilkHub",
					"outputs": [
						{
							"internalType": "address",
							"name": "",
							"type": "address"
						}
					],
					"stateMutability": "view",
					"type": "function"
				}
			],
			"devdoc": {
				"kind": "dev",
				"methods": {},
				"version": 1
			},
			"evm": {
				"assembly": "    /* \"contracts/Actor/CheeseProducer-smart-contract/inventory/CheeseProducerMilkBatchStorage.sol\":135:5353  contract CheeseProducerMilkBatchStorage {... */\n  mstore(0x40, 0x80)\n    /* \"contracts/Actor/CheeseProducer-smart-contract/inventory/CheeseProducerMilkBatchStorage.sol\":282:345  constructor() {... */\n  callvalue\n  dup1\n  iszero\n  tag_1\n  jumpi\n  0x00\n  dup1\n  revert\ntag_1:\n  pop\n    /* \"contracts/Actor/CheeseProducer-smart-contract/inventory/CheeseProducerMilkBatchStorage.sol\":327:337  msg.sender */\n  caller\n    /* \"contracts/Actor/CheeseProducer-smart-contract/inventory/CheeseProducerMilkBatchStorage.sol\":307:324  cheeseProducerOrg */\n  0x00\n  dup1\n    /* \"contracts/Actor/CheeseProducer-smart-contract/inventory/CheeseProducerMilkBatchStorage.sol\":307:337  cheeseProducerOrg = msg.sender */\n  0x0100\n  exp\n  dup2\n  sload\n  dup2\n  0xffffffffffffffffffffffffffffffffffffffff\n  mul\n  not\n  and\n  swap1\n  dup4\n  0xffffffffffffffffffffffffffffffffffffffff\n  and\n  mul\n  or\n  swap1\n  sstore\n  pop\n    /* \"contracts/Actor/CheeseProducer-smart-contract/inventory/CheeseProducerMilkBatchStorage.sol\":135:5353  contract CheeseProducerMilkBatchStorage {... */\n  dataSize(sub_0)\n  dup1\n  dataOffset(sub_0)\n  0x00\n  codecopy\n  0x00\n  return\nstop\n\nsub_0: assembly {\n        /* \"contracts/Actor/CheeseProducer-smart-contract/inventory/CheeseProducerMilkBatchStorage.sol\":135:5353  contract CheeseProducerMilkBatchStorage {... */\n      mstore(0x40, 0x80)\n      callvalue\n      dup1\n      iszero\n      tag_1\n      jumpi\n      0x00\n      dup1\n      revert\n    tag_1:\n      pop\n      jumpi(tag_2, lt(calldatasize, 0x04))\n      shr(0xe0, calldataload(0x00))\n      dup1\n      0xa7489269\n      gt\n      tag_12\n      jumpi\n      dup1\n      0xa7489269\n      eq\n      tag_7\n      jumpi\n      dup1\n      0xad9c10a1\n      eq\n      tag_8\n      jumpi\n      dup1\n      0xc5d3e11d\n      eq\n      tag_9\n      jumpi\n      dup1\n      0xce4fcf23\n      eq\n      tag_10\n      jumpi\n      dup1\n      0xd0edfccc\n      eq\n      tag_11\n      jumpi\n      jump(tag_2)\n    tag_12:\n      dup1\n      0x1e073fcf\n      eq\n      tag_3\n      jumpi\n      dup1\n      0x31f4cbbd\n      eq\n      tag_4\n      jumpi\n      dup1\n      0x99c6526e\n      eq\n      tag_5\n      jumpi\n      dup1\n      0x9f2b6898\n      eq\n      tag_6\n      jumpi\n    tag_2:\n      0x00\n      dup1\n      revert\n        /* \"contracts/Actor/CheeseProducer-smart-contract/inventory/CheeseProducerMilkBatchStorage.sol\":3885:4230  function getQuantity(address walletCheeseProducer, uint256 _id) external view returns(uint256) {... */\n    tag_3:\n      tag_13\n      0x04\n      dup1\n      calldatasize\n      sub\n      dup2\n      add\n      swap1\n      tag_14\n      swap2\n      swap1\n      tag_15\n      jump\t// in\n    tag_14:\n      tag_16\n      jump\t// in\n    tag_13:\n      mload(0x40)\n      tag_17\n      swap2\n      swap1\n      tag_18\n      jump\t// in\n    tag_17:\n      mload(0x40)\n      dup1\n      swap2\n      sub\n      swap1\n      return\n        /* \"contracts/Actor/CheeseProducer-smart-contract/inventory/CheeseProducerMilkBatchStorage.sol\":2976:3514  function detractMilkBatchQuantity(address walletCheeseProducer, uint256 _id, uint256 _quantity) external returns(bool value) {... */\n    tag_4:\n      tag_19\n      0x04\n      dup1\n      calldatasize\n      sub\n      dup2\n      add\n      swap1\n      tag_20\n      swap2\n      swap1\n      tag_21\n      jump\t// in\n    tag_20:\n      tag_22\n      jump\t// in\n    tag_19:\n      mload(0x40)\n      tag_23\n      swap2\n      swap1\n      tag_24\n      jump\t// in\n    tag_23:\n      mload(0x40)\n      dup1\n      swap2\n      sub\n      swap1\n      return\n        /* \"contracts/Actor/CheeseProducer-smart-contract/inventory/CheeseProducerMilkBatchStorage.sol\":585:1544  function addMilkBatch(... */\n    tag_5:\n      tag_25\n      0x04\n      dup1\n      calldatasize\n      sub\n      dup2\n      add\n      swap1\n      tag_26\n      swap2\n      swap1\n      tag_27\n      jump\t// in\n    tag_26:\n      tag_28\n      jump\t// in\n    tag_25:\n      stop\n        /* \"contracts/Actor/CheeseProducer-smart-contract/inventory/CheeseProducerMilkBatchStorage.sol\":3522:3877  function getExpirationDate(address walletCheeseProducer, uint256 _id) external view returns(string memory) {... */\n    tag_6:\n      tag_29\n      0x04\n      dup1\n      calldatasize\n      sub\n      dup2\n      add\n      swap1\n      tag_30\n      swap2\n      swap1\n      tag_15\n      jump\t// in\n    tag_30:\n      tag_31\n      jump\t// in\n    tag_29:\n      mload(0x40)\n      tag_32\n      swap2\n      swap1\n      tag_33\n      jump\t// in\n    tag_32:\n      mload(0x40)\n      dup1\n      swap2\n      sub\n      swap1\n      return\n        /* \"contracts/Actor/CheeseProducer-smart-contract/inventory/CheeseProducerMilkBatchStorage.sol\":4877:5342  function checkMilkBatch(address walletCheeseProducer, uint256 _id, uint256 _quantityToTransform) external view returns(bool) {... */\n    tag_7:\n      tag_34\n      0x04\n      dup1\n      calldatasize\n      sub\n      dup2\n      add\n      swap1\n      tag_35\n      swap2\n      swap1\n      tag_21\n      jump\t// in\n    tag_35:\n      tag_36\n      jump\t// in\n    tag_34:\n      mload(0x40)\n      tag_37\n      swap2\n      swap1\n      tag_24\n      jump\t// in\n    tag_37:\n      mload(0x40)\n      dup1\n      swap2\n      sub\n      swap1\n      return\n        /* \"contracts/Actor/CheeseProducer-smart-contract/inventory/CheeseProducerMilkBatchStorage.sol\":2016:2962  function deleteMilkBatch(address walletCheeseProducer, uint256 _id) external returns(bool value) {... */\n    tag_8:\n      tag_38\n      0x04\n      dup1\n      calldatasize\n      sub\n      dup2\n      add\n      swap1\n      tag_39\n      swap2\n      swap1\n      tag_15\n      jump\t// in\n    tag_39:\n      tag_40\n      jump\t// in\n    tag_38:\n      mload(0x40)\n      tag_41\n      swap2\n      swap1\n      tag_24\n      jump\t// in\n    tag_41:\n      mload(0x40)\n      dup1\n      swap2\n      sub\n      swap1\n      return\n        /* \"contracts/Actor/CheeseProducer-smart-contract/inventory/CheeseProducerMilkBatchStorage.sol\":4593:4869  function getId(address walletCheeseProducer, uint256 _id) external view returns(uint256) {... */\n    tag_9:\n      tag_42\n      0x04\n      dup1\n      calldatasize\n      sub\n      dup2\n      add\n      swap1\n      tag_43\n      swap2\n      swap1\n      tag_15\n      jump\t// in\n    tag_43:\n      tag_44\n      jump\t// in\n    tag_42:\n      mload(0x40)\n      tag_45\n      swap2\n      swap1\n      tag_18\n      jump\t// in\n    tag_45:\n      mload(0x40)\n      dup1\n      swap2\n      sub\n      swap1\n      return\n        /* \"contracts/Actor/CheeseProducer-smart-contract/inventory/CheeseProducerMilkBatchStorage.sol\":1556:2002  function getMilkBatch(address walletCheeseProducer, uint256 _id) external view returns (uint256, address, string memory, uint256) {... */\n    tag_10:\n      tag_46\n      0x04\n      dup1\n      calldatasize\n      sub\n      dup2\n      add\n      swap1\n      tag_47\n      swap2\n      swap1\n      tag_15\n      jump\t// in\n    tag_47:\n      tag_48\n      jump\t// in\n    tag_46:\n      mload(0x40)\n      tag_49\n      swap5\n      swap4\n      swap3\n      swap2\n      swap1\n      tag_50\n      jump\t// in\n    tag_49:\n      mload(0x40)\n      dup1\n      swap2\n      sub\n      swap1\n      return\n        /* \"contracts/Actor/CheeseProducer-smart-contract/inventory/CheeseProducerMilkBatchStorage.sol\":4238:4585  function getWalletMilkHub(address walletCheeseProducer, uint256 _id) external view returns(address) {... */\n    tag_11:\n      tag_51\n      0x04\n      dup1\n      calldatasize\n      sub\n      dup2\n      add\n      swap1\n      tag_52\n      swap2\n      swap1\n      tag_15\n      jump\t// in\n    tag_52:\n      tag_53\n      jump\t// in\n    tag_51:\n      mload(0x40)\n      tag_54\n      swap2\n      swap1\n      tag_55\n      jump\t// in\n    tag_54:\n      mload(0x40)\n      dup1\n      swap2\n      sub\n      swap1\n      return\n        /* \"contracts/Actor/CheeseProducer-smart-contract/inventory/CheeseProducerMilkBatchStorage.sol\":3885:4230  function getQuantity(address walletCheeseProducer, uint256 _id) external view returns(uint256) {... */\n    tag_16:\n        /* \"contracts/Actor/CheeseProducer-smart-contract/inventory/CheeseProducerMilkBatchStorage.sol\":3971:3978  uint256 */\n      0x00\n        /* \"contracts/Actor/CheeseProducer-smart-contract/inventory/CheeseProducerMilkBatchStorage.sol\":4053:4054  0 */\n      dup1\n        /* \"contracts/Actor/CheeseProducer-smart-contract/inventory/CheeseProducerMilkBatchStorage.sol\":3999:4019  purchasedMilkBatches */\n      0x01\n        /* \"contracts/Actor/CheeseProducer-smart-contract/inventory/CheeseProducerMilkBatchStorage.sol\":3999:4041  purchasedMilkBatches[walletCheeseProducer] */\n      0x00\n        /* \"contracts/Actor/CheeseProducer-smart-contract/inventory/CheeseProducerMilkBatchStorage.sol\":4020:4040  walletCheeseProducer */\n      dup6\n        /* \"contracts/Actor/CheeseProducer-smart-contract/inventory/CheeseProducerMilkBatchStorage.sol\":3999:4041  purchasedMilkBatches[walletCheeseProducer] */\n      0xffffffffffffffffffffffffffffffffffffffff\n      and\n      0xffffffffffffffffffffffffffffffffffffffff\n      and\n      dup2\n      mstore\n      0x20\n      add\n      swap1\n      dup2\n      mstore\n      0x20\n      add\n      0x00\n      keccak256\n        /* \"contracts/Actor/CheeseProducer-smart-contract/inventory/CheeseProducerMilkBatchStorage.sol\":3999:4046  purchasedMilkBatches[walletCheeseProducer][_id] */\n      0x00\n        /* \"contracts/Actor/CheeseProducer-smart-contract/inventory/CheeseProducerMilkBatchStorage.sol\":4042:4045  _id */\n      dup5\n        /* \"contracts/Actor/CheeseProducer-smart-contract/inventory/CheeseProducerMilkBatchStorage.sol\":3999:4046  purchasedMilkBatches[walletCheeseProducer][_id] */\n      dup2\n      mstore\n      0x20\n      add\n      swap1\n      dup2\n      mstore\n      0x20\n      add\n      0x00\n      keccak256\n        /* \"contracts/Actor/CheeseProducer-smart-contract/inventory/CheeseProducerMilkBatchStorage.sol\":3999:4049  purchasedMilkBatches[walletCheeseProducer][_id].id */\n      0x00\n      add\n      sload\n        /* \"contracts/Actor/CheeseProducer-smart-contract/inventory/CheeseProducerMilkBatchStorage.sol\":3999:4054  purchasedMilkBatches[walletCheeseProducer][_id].id != 0 */\n      sub\n        /* \"contracts/Actor/CheeseProducer-smart-contract/inventory/CheeseProducerMilkBatchStorage.sol\":3991:4089  require(purchasedMilkBatches[walletCheeseProducer][_id].id != 0, \"Partita di Latte non presente!\") */\n      tag_57\n      jumpi\n      mload(0x40)\n      0x08c379a000000000000000000000000000000000000000000000000000000000\n      dup2\n      mstore\n      0x04\n      add\n      tag_58\n      swap1\n      tag_59\n      jump\t// in\n    tag_58:\n      mload(0x40)\n      dup1\n      swap2\n      sub\n      swap1\n      revert\n    tag_57:\n        /* \"contracts/Actor/CheeseProducer-smart-contract/inventory/CheeseProducerMilkBatchStorage.sol\":4102:4128  MilkBatch memory milkBatch */\n      0x00\n        /* \"contracts/Actor/CheeseProducer-smart-contract/inventory/CheeseProducerMilkBatchStorage.sol\":4131:4151  purchasedMilkBatches */\n      0x01\n        /* \"contracts/Actor/CheeseProducer-smart-contract/inventory/CheeseProducerMilkBatchStorage.sol\":4131:4173  purchasedMilkBatches[walletCheeseProducer] */\n      0x00\n        /* \"contracts/Actor/CheeseProducer-smart-contract/inventory/CheeseProducerMilkBatchStorage.sol\":4152:4172  walletCheeseProducer */\n      dup6\n        /* \"contracts/Actor/CheeseProducer-smart-contract/inventory/CheeseProducerMilkBatchStorage.sol\":4131:4173  purchasedMilkBatches[walletCheeseProducer] */\n      0xffffffffffffffffffffffffffffffffffffffff\n      and\n      0xffffffffffffffffffffffffffffffffffffffff\n      and\n      dup2\n      mstore\n      0x20\n      add\n      swap1\n      dup2\n      mstore\n      0x20\n      add\n      0x00\n      keccak256\n        /* \"contracts/Actor/CheeseProducer-smart-contract/inventory/CheeseProducerMilkBatchStorage.sol\":4131:4178  purchasedMilkBatches[walletCheeseProducer][_id] */\n      0x00\n        /* \"contracts/Actor/CheeseProducer-smart-contract/inventory/CheeseProducerMilkBatchStorage.sol\":4174:4177  _id */\n      dup5\n        /* \"contracts/Actor/CheeseProducer-smart-contract/inventory/CheeseProducerMilkBatchStorage.sol\":4131:4178  purchasedMilkBatches[walletCheeseProducer][_id] */\n      dup2\n      mstore\n      0x20\n      add\n      swap1\n      dup2\n      mstore\n      0x20\n      add\n      0x00\n      keccak256\n        /* \"contracts/Actor/CheeseProducer-smart-contract/inventory/CheeseProducerMilkBatchStorage.sol\":4102:4178  MilkBatch memory milkBatch = purchasedMilkBatches[walletCheeseProducer][_id] */\n      mload(0x40)\n      dup1\n      0x80\n      add\n      0x40\n      mstore\n      swap1\n      dup2\n      0x00\n      dup3\n      add\n      sload\n      dup2\n      mstore\n      0x20\n      add\n      0x01\n      dup3\n      add\n      0x00\n      swap1\n      sload\n      swap1\n      0x0100\n      exp\n      swap1\n      div\n      0xffffffffffffffffffffffffffffffffffffffff\n      and\n      0xffffffffffffffffffffffffffffffffffffffff\n      and\n      0xffffffffffffffffffffffffffffffffffffffff\n      and\n      dup2\n      mstore\n      0x20\n      add\n      0x02\n      dup3\n      add\n      dup1\n      sload\n      tag_60\n      swap1\n      tag_61\n      jump\t// in\n    tag_60:\n      dup1\n      0x1f\n      add\n      0x20\n      dup1\n      swap2\n      div\n      mul\n      0x20\n      add\n      mload(0x40)\n      swap1\n      dup2\n      add\n      0x40\n      mstore\n      dup1\n      swap3\n      swap2\n      swap1\n      dup2\n      dup2\n      mstore\n      0x20\n      add\n      dup3\n      dup1\n      sload\n      tag_62\n      swap1\n      tag_61\n      jump\t// in\n    tag_62:\n      dup1\n      iszero\n      tag_63\n      jumpi\n      dup1\n      0x1f\n      lt\n      tag_64\n      jumpi\n      0x0100\n      dup1\n      dup4\n      sload\n      div\n      mul\n      dup4\n      mstore\n      swap2\n      0x20\n      add\n      swap2\n      jump(tag_63)\n    tag_64:\n      dup3\n      add\n      swap2\n      swap1\n      0x00\n      mstore\n      keccak256(0x00, 0x20)\n      swap1\n    tag_65:\n      dup2\n      sload\n      dup2\n      mstore\n      swap1\n      0x01\n      add\n      swap1\n      0x20\n      add\n      dup1\n      dup4\n      gt\n      tag_65\n      jumpi\n      dup3\n      swap1\n      sub\n      0x1f\n      and\n      dup3\n      add\n      swap2\n    tag_63:\n      pop\n      pop\n      pop\n      pop\n      pop\n      dup2\n      mstore\n      0x20\n      add\n      0x03\n      dup3\n      add\n      sload\n      dup2\n      mstore\n      pop\n      pop\n      swap1\n      pop\n        /* \"contracts/Actor/CheeseProducer-smart-contract/inventory/CheeseProducerMilkBatchStorage.sol\":4196:4205  milkBatch */\n      dup1\n        /* \"contracts/Actor/CheeseProducer-smart-contract/inventory/CheeseProducerMilkBatchStorage.sol\":4196:4214  milkBatch.quantity */\n      0x60\n      add\n      mload\n        /* \"contracts/Actor/CheeseProducer-smart-contract/inventory/CheeseProducerMilkBatchStorage.sol\":4189:4214  return milkBatch.quantity */\n      swap2\n      pop\n      pop\n        /* \"contracts/Actor/CheeseProducer-smart-contract/inventory/CheeseProducerMilkBatchStorage.sol\":3885:4230  function getQuantity(address walletCheeseProducer, uint256 _id) external view returns(uint256) {... */\n      swap3\n      swap2\n      pop\n      pop\n      jump\t// out\n        /* \"contracts/Actor/CheeseProducer-smart-contract/inventory/CheeseProducerMilkBatchStorage.sol\":2976:3514  function detractMilkBatchQuantity(address walletCheeseProducer, uint256 _id, uint256 _quantity) external returns(bool value) {... */\n    tag_22:\n        /* \"contracts/Actor/CheeseProducer-smart-contract/inventory/CheeseProducerMilkBatchStorage.sol\":3089:3099  bool value */\n      0x00\n        /* \"contracts/Actor/CheeseProducer-smart-contract/inventory/CheeseProducerMilkBatchStorage.sol\":3176:3177  0 */\n      dup1\n        /* \"contracts/Actor/CheeseProducer-smart-contract/inventory/CheeseProducerMilkBatchStorage.sol\":3122:3142  purchasedMilkBatches */\n      0x01\n        /* \"contracts/Actor/CheeseProducer-smart-contract/inventory/CheeseProducerMilkBatchStorage.sol\":3122:3164  purchasedMilkBatches[walletCheeseProducer] */\n      0x00\n        /* \"contracts/Actor/CheeseProducer-smart-contract/inventory/CheeseProducerMilkBatchStorage.sol\":3143:3163  walletCheeseProducer */\n      dup7\n        /* \"contracts/Actor/CheeseProducer-smart-contract/inventory/CheeseProducerMilkBatchStorage.sol\":3122:3164  purchasedMilkBatches[walletCheeseProducer] */\n      0xffffffffffffffffffffffffffffffffffffffff\n      and\n      0xffffffffffffffffffffffffffffffffffffffff\n      and\n      dup2\n      mstore\n      0x20\n      add\n      swap1\n      dup2\n      mstore\n      0x20\n      add\n      0x00\n      keccak256\n        /* \"contracts/Actor/CheeseProducer-smart-contract/inventory/CheeseProducerMilkBatchStorage.sol\":3122:3169  purchasedMilkBatches[walletCheeseProducer][_id] */\n      0x00\n        /* \"contracts/Actor/CheeseProducer-smart-contract/inventory/CheeseProducerMilkBatchStorage.sol\":3165:3168  _id */\n      dup6\n        /* \"contracts/Actor/CheeseProducer-smart-contract/inventory/CheeseProducerMilkBatchStorage.sol\":3122:3169  purchasedMilkBatches[walletCheeseProducer][_id] */\n      dup2\n      mstore\n      0x20\n      add\n      swap1\n      dup2\n      mstore\n      0x20\n      add\n      0x00\n      keccak256\n        /* \"contracts/Actor/CheeseProducer-smart-contract/inventory/CheeseProducerMilkBatchStorage.sol\":3122:3172  purchasedMilkBatches[walletCheeseProducer][_id].id */\n      0x00\n      add\n      sload\n        /* \"contracts/Actor/CheeseProducer-smart-contract/inventory/CheeseProducerMilkBatchStorage.sol\":3122:3177  purchasedMilkBatches[walletCheeseProducer][_id].id != 0 */\n      sub\n        /* \"contracts/Actor/CheeseProducer-smart-contract/inventory/CheeseProducerMilkBatchStorage.sol\":3114:3212  require(purchasedMilkBatches[walletCheeseProducer][_id].id != 0, \"Partita di Latte non presente!\") */\n      tag_67\n      jumpi\n      mload(0x40)\n      0x08c379a000000000000000000000000000000000000000000000000000000000\n      dup2\n      mstore\n      0x04\n      add\n      tag_68\n      swap1\n      tag_59\n      jump\t// in\n    tag_68:\n      mload(0x40)\n      dup1\n      swap2\n      sub\n      swap1\n      revert\n    tag_67:\n        /* \"contracts/Actor/CheeseProducer-smart-contract/inventory/CheeseProducerMilkBatchStorage.sol\":3293:3302  _quantity */\n      dup2\n        /* \"contracts/Actor/CheeseProducer-smart-contract/inventory/CheeseProducerMilkBatchStorage.sol\":3233:3253  purchasedMilkBatches */\n      0x01\n        /* \"contracts/Actor/CheeseProducer-smart-contract/inventory/CheeseProducerMilkBatchStorage.sol\":3233:3275  purchasedMilkBatches[walletCheeseProducer] */\n      0x00\n        /* \"contracts/Actor/CheeseProducer-smart-contract/inventory/CheeseProducerMilkBatchStorage.sol\":3254:3274  walletCheeseProducer */\n      dup7\n        /* \"contracts/Actor/CheeseProducer-smart-contract/inventory/CheeseProducerMilkBatchStorage.sol\":3233:3275  purchasedMilkBatches[walletCheeseProducer] */\n      0xffffffffffffffffffffffffffffffffffffffff\n      and\n      0xffffffffffffffffffffffffffffffffffffffff\n      and\n      dup2\n      mstore\n      0x20\n      add\n      swap1\n      dup2\n      mstore\n      0x20\n      add\n      0x00\n      keccak256\n        /* \"contracts/Actor/CheeseProducer-smart-contract/inventory/CheeseProducerMilkBatchStorage.sol\":3233:3280  purchasedMilkBatches[walletCheeseProducer][_id] */\n      0x00\n        /* \"contracts/Actor/CheeseProducer-smart-contract/inventory/CheeseProducerMilkBatchStorage.sol\":3276:3279  _id */\n      dup6\n        /* \"contracts/Actor/CheeseProducer-smart-contract/inventory/CheeseProducerMilkBatchStorage.sol\":3233:3280  purchasedMilkBatches[walletCheeseProducer][_id] */\n      dup2\n      mstore\n      0x20\n      add\n      swap1\n      dup2\n      mstore\n      0x20\n      add\n      0x00\n      keccak256\n        /* \"contracts/Actor/CheeseProducer-smart-contract/inventory/CheeseProducerMilkBatchStorage.sol\":3233:3289  purchasedMilkBatches[walletCheeseProducer][_id].quantity */\n      0x03\n      add\n      sload\n        /* \"contracts/Actor/CheeseProducer-smart-contract/inventory/CheeseProducerMilkBatchStorage.sol\":3233:3302  purchasedMilkBatches[walletCheeseProducer][_id].quantity >= _quantity */\n      lt\n      iszero\n        /* \"contracts/Actor/CheeseProducer-smart-contract/inventory/CheeseProducerMilkBatchStorage.sol\":3225:3342  require(purchasedMilkBatches[walletCheeseProducer][_id].quantity >= _quantity, \"Quantita' inserita non disponibile!\") */\n      tag_69\n      jumpi\n      mload(0x40)\n      0x08c379a000000000000000000000000000000000000000000000000000000000\n      dup2\n      mstore\n      0x04\n      add\n      tag_70\n      swap1\n      tag_71\n      jump\t// in\n    tag_70:\n      mload(0x40)\n      dup1\n      swap2\n      sub\n      swap1\n      revert\n    tag_69:\n        /* \"contracts/Actor/CheeseProducer-smart-contract/inventory/CheeseProducerMilkBatchStorage.sol\":3473:3482  _quantity */\n      dup2\n        /* \"contracts/Actor/CheeseProducer-smart-contract/inventory/CheeseProducerMilkBatchStorage.sol\":3414:3434  purchasedMilkBatches */\n      0x01\n        /* \"contracts/Actor/CheeseProducer-smart-contract/inventory/CheeseProducerMilkBatchStorage.sol\":3414:3456  purchasedMilkBatches[walletCheeseProducer] */\n      0x00\n        /* \"contracts/Actor/CheeseProducer-smart-contract/inventory/CheeseProducerMilkBatchStorage.sol\":3435:3455  walletCheeseProducer */\n      dup7\n        /* \"contracts/Actor/CheeseProducer-smart-contract/inventory/CheeseProducerMilkBatchStorage.sol\":3414:3456  purchasedMilkBatches[walletCheeseProducer] */\n      0xffffffffffffffffffffffffffffffffffffffff\n      and\n      0xffffffffffffffffffffffffffffffffffffffff\n      and\n      dup2\n      mstore\n      0x20\n      add\n      swap1\n      dup2\n      mstore\n      0x20\n      add\n      0x00\n      keccak256\n        /* \"contracts/Actor/CheeseProducer-smart-contract/inventory/CheeseProducerMilkBatchStorage.sol\":3414:3461  purchasedMilkBatches[walletCheeseProducer][_id] */\n      0x00\n        /* \"contracts/Actor/CheeseProducer-smart-contract/inventory/CheeseProducerMilkBatchStorage.sol\":3457:3460  _id */\n      dup6\n        /* \"contracts/Actor/CheeseProducer-smart-contract/inventory/CheeseProducerMilkBatchStorage.sol\":3414:3461  purchasedMilkBatches[walletCheeseProducer][_id] */\n      dup2\n      mstore\n      0x20\n      add\n      swap1\n      dup2\n      mstore\n      0x20\n      add\n      0x00\n      keccak256\n        /* \"contracts/Actor/CheeseProducer-smart-contract/inventory/CheeseProducerMilkBatchStorage.sol\":3414:3470  purchasedMilkBatches[walletCheeseProducer][_id].quantity */\n      0x03\n      add\n      sload\n        /* \"contracts/Actor/CheeseProducer-smart-contract/inventory/CheeseProducerMilkBatchStorage.sol\":3414:3482  purchasedMilkBatches[walletCheeseProducer][_id].quantity - _quantity */\n      tag_72\n      swap2\n      swap1\n      tag_73\n      jump\t// in\n    tag_72:\n        /* \"contracts/Actor/CheeseProducer-smart-contract/inventory/CheeseProducerMilkBatchStorage.sol\":3355:3375  purchasedMilkBatches */\n      0x01\n        /* \"contracts/Actor/CheeseProducer-smart-contract/inventory/CheeseProducerMilkBatchStorage.sol\":3355:3397  purchasedMilkBatches[walletCheeseProducer] */\n      0x00\n        /* \"contracts/Actor/CheeseProducer-smart-contract/inventory/CheeseProducerMilkBatchStorage.sol\":3376:3396  walletCheeseProducer */\n      dup7\n        /* \"contracts/Actor/CheeseProducer-smart-contract/inventory/CheeseProducerMilkBatchStorage.sol\":3355:3397  purchasedMilkBatches[walletCheeseProducer] */\n      0xffffffffffffffffffffffffffffffffffffffff\n      and\n      0xffffffffffffffffffffffffffffffffffffffff\n      and\n      dup2\n      mstore\n      0x20\n      add\n      swap1\n      dup2\n      mstore\n      0x20\n      add\n      0x00\n      keccak256\n        /* \"contracts/Actor/CheeseProducer-smart-contract/inventory/CheeseProducerMilkBatchStorage.sol\":3355:3402  purchasedMilkBatches[walletCheeseProducer][_id] */\n      0x00\n        /* \"contracts/Actor/CheeseProducer-smart-contract/inventory/CheeseProducerMilkBatchStorage.sol\":3398:3401  _id */\n      dup6\n        /* \"contracts/Actor/CheeseProducer-smart-contract/inventory/CheeseProducerMilkBatchStorage.sol\":3355:3402  purchasedMilkBatches[walletCheeseProducer][_id] */\n      dup2\n      mstore\n      0x20\n      add\n      swap1\n      dup2\n      mstore\n      0x20\n      add\n      0x00\n      keccak256\n        /* \"contracts/Actor/CheeseProducer-smart-contract/inventory/CheeseProducerMilkBatchStorage.sol\":3355:3411  purchasedMilkBatches[walletCheeseProducer][_id].quantity */\n      0x03\n      add\n        /* \"contracts/Actor/CheeseProducer-smart-contract/inventory/CheeseProducerMilkBatchStorage.sol\":3355:3482  purchasedMilkBatches[walletCheeseProducer][_id].quantity = purchasedMilkBatches[walletCheeseProducer][_id].quantity - _quantity */\n      dup2\n      swap1\n      sstore\n      pop\n        /* \"contracts/Actor/CheeseProducer-smart-contract/inventory/CheeseProducerMilkBatchStorage.sol\":3502:3506  true */\n      0x01\n        /* \"contracts/Actor/CheeseProducer-smart-contract/inventory/CheeseProducerMilkBatchStorage.sol\":3495:3506  return true */\n      swap1\n      pop\n        /* \"contracts/Actor/CheeseProducer-smart-contract/inventory/CheeseProducerMilkBatchStorage.sol\":2976:3514  function detractMilkBatchQuantity(address walletCheeseProducer, uint256 _id, uint256 _quantity) external returns(bool value) {... */\n      swap4\n      swap3\n      pop\n      pop\n      pop\n      jump\t// out\n        /* \"contracts/Actor/CheeseProducer-smart-contract/inventory/CheeseProducerMilkBatchStorage.sol\":585:1544  function addMilkBatch(... */\n    tag_28:\n        /* \"contracts/Actor/CheeseProducer-smart-contract/inventory/CheeseProducerMilkBatchStorage.sol\":781:792  uint256 _id */\n      0x00\n        /* \"contracts/Actor/CheeseProducer-smart-contract/inventory/CheeseProducerMilkBatchStorage.sol\":844:859  _expirationDate */\n      dup3\n        /* \"contracts/Actor/CheeseProducer-smart-contract/inventory/CheeseProducerMilkBatchStorage.sol\":874:883  _quantity */\n      dup3\n        /* \"contracts/Actor/CheeseProducer-smart-contract/inventory/CheeseProducerMilkBatchStorage.sol\":898:919  _walletCheeseProducer */\n      dup7\n        /* \"contracts/Actor/CheeseProducer-smart-contract/inventory/CheeseProducerMilkBatchStorage.sol\":934:948  _walletMilkHub */\n      dup7\n        /* \"contracts/Actor/CheeseProducer-smart-contract/inventory/CheeseProducerMilkBatchStorage.sol\":813:959  abi.encodePacked(... */\n      add(0x20, mload(0x40))\n      tag_75\n      swap5\n      swap4\n      swap3\n      swap2\n      swap1\n      tag_76\n      jump\t// in\n    tag_75:\n      mload(0x40)\n      0x20\n      dup2\n      dup4\n      sub\n      sub\n      dup2\n      mstore\n      swap1\n      0x40\n      mstore\n        /* \"contracts/Actor/CheeseProducer-smart-contract/inventory/CheeseProducerMilkBatchStorage.sol\":803:960  keccak256(abi.encodePacked(... */\n      dup1\n      mload\n      swap1\n      0x20\n      add\n      keccak256\n        /* \"contracts/Actor/CheeseProducer-smart-contract/inventory/CheeseProducerMilkBatchStorage.sol\":795:961  uint256(keccak256(abi.encodePacked(... */\n      0x00\n      shr\n        /* \"contracts/Actor/CheeseProducer-smart-contract/inventory/CheeseProducerMilkBatchStorage.sol\":781:961  uint256 _id = uint256(keccak256(abi.encodePacked(... */\n      swap1\n      pop\n        /* \"contracts/Actor/CheeseProducer-smart-contract/inventory/CheeseProducerMilkBatchStorage.sol\":974:1008  MilkBatch storage milkbatchControl */\n      0x00\n        /* \"contracts/Actor/CheeseProducer-smart-contract/inventory/CheeseProducerMilkBatchStorage.sol\":1011:1031  purchasedMilkBatches */\n      0x01\n        /* \"contracts/Actor/CheeseProducer-smart-contract/inventory/CheeseProducerMilkBatchStorage.sol\":1011:1054  purchasedMilkBatches[_walletCheeseProducer] */\n      0x00\n        /* \"contracts/Actor/CheeseProducer-smart-contract/inventory/CheeseProducerMilkBatchStorage.sol\":1032:1053  _walletCheeseProducer */\n      dup8\n        /* \"contracts/Actor/CheeseProducer-smart-contract/inventory/CheeseProducerMilkBatchStorage.sol\":1011:1054  purchasedMilkBatches[_walletCheeseProducer] */\n      0xffffffffffffffffffffffffffffffffffffffff\n      and\n      0xffffffffffffffffffffffffffffffffffffffff\n      and\n      dup2\n      mstore\n      0x20\n      add\n      swap1\n      dup2\n      mstore\n      0x20\n      add\n      0x00\n      keccak256\n        /* \"contracts/Actor/CheeseProducer-smart-contract/inventory/CheeseProducerMilkBatchStorage.sol\":1011:1059  purchasedMilkBatches[_walletCheeseProducer][_id] */\n      0x00\n        /* \"contracts/Actor/CheeseProducer-smart-contract/inventory/CheeseProducerMilkBatchStorage.sol\":1055:1058  _id */\n      dup4\n        /* \"contracts/Actor/CheeseProducer-smart-contract/inventory/CheeseProducerMilkBatchStorage.sol\":1011:1059  purchasedMilkBatches[_walletCheeseProducer][_id] */\n      dup2\n      mstore\n      0x20\n      add\n      swap1\n      dup2\n      mstore\n      0x20\n      add\n      0x00\n      keccak256\n        /* \"contracts/Actor/CheeseProducer-smart-contract/inventory/CheeseProducerMilkBatchStorage.sol\":974:1059  MilkBatch storage milkbatchControl = purchasedMilkBatches[_walletCheeseProducer][_id] */\n      swap1\n      pop\n        /* \"contracts/Actor/CheeseProducer-smart-contract/inventory/CheeseProducerMilkBatchStorage.sol\":1102:1103  0 */\n      0x00\n        /* \"contracts/Actor/CheeseProducer-smart-contract/inventory/CheeseProducerMilkBatchStorage.sol\":1079:1095  milkbatchControl */\n      dup2\n        /* \"contracts/Actor/CheeseProducer-smart-contract/inventory/CheeseProducerMilkBatchStorage.sol\":1079:1098  milkbatchControl.id */\n      0x00\n      add\n      sload\n        /* \"contracts/Actor/CheeseProducer-smart-contract/inventory/CheeseProducerMilkBatchStorage.sol\":1079:1103  milkbatchControl.id == 0 */\n      eq\n        /* \"contracts/Actor/CheeseProducer-smart-contract/inventory/CheeseProducerMilkBatchStorage.sol\":1070:1139  require( milkbatchControl.id == 0, \"Partita di Latte gia' presente!\") */\n      tag_77\n      jumpi\n      mload(0x40)\n      0x08c379a000000000000000000000000000000000000000000000000000000000\n      dup2\n      mstore\n      0x04\n      add\n      tag_78\n      swap1\n      tag_79\n      jump\t// in\n    tag_78:\n      mload(0x40)\n      dup1\n      swap2\n      sub\n      swap1\n      revert\n    tag_77:\n        /* \"contracts/Actor/CheeseProducer-smart-contract/inventory/CheeseProducerMilkBatchStorage.sol\":1195:1221  MilkBatch memory milkBatch */\n      0x00\n        /* \"contracts/Actor/CheeseProducer-smart-contract/inventory/CheeseProducerMilkBatchStorage.sol\":1224:1392  MilkBatch({... */\n      mload(0x40)\n      dup1\n      0x80\n      add\n      0x40\n      mstore\n      dup1\n        /* \"contracts/Actor/CheeseProducer-smart-contract/inventory/CheeseProducerMilkBatchStorage.sol\":1253:1256  _id */\n      dup5\n        /* \"contracts/Actor/CheeseProducer-smart-contract/inventory/CheeseProducerMilkBatchStorage.sol\":1224:1392  MilkBatch({... */\n      dup2\n      mstore\n      0x20\n      add\n        /* \"contracts/Actor/CheeseProducer-smart-contract/inventory/CheeseProducerMilkBatchStorage.sol\":1286:1300  _walletMilkHub */\n      dup8\n        /* \"contracts/Actor/CheeseProducer-smart-contract/inventory/CheeseProducerMilkBatchStorage.sol\":1224:1392  MilkBatch({... */\n      0xffffffffffffffffffffffffffffffffffffffff\n      and\n      dup2\n      mstore\n      0x20\n      add\n        /* \"contracts/Actor/CheeseProducer-smart-contract/inventory/CheeseProducerMilkBatchStorage.sol\":1331:1346  _expirationDate */\n      dup7\n        /* \"contracts/Actor/CheeseProducer-smart-contract/inventory/CheeseProducerMilkBatchStorage.sol\":1224:1392  MilkBatch({... */\n      dup2\n      mstore\n      0x20\n      add\n        /* \"contracts/Actor/CheeseProducer-smart-contract/inventory/CheeseProducerMilkBatchStorage.sol\":1371:1380  _quantity */\n      dup6\n        /* \"contracts/Actor/CheeseProducer-smart-contract/inventory/CheeseProducerMilkBatchStorage.sol\":1224:1392  MilkBatch({... */\n      dup2\n      mstore\n      pop\n        /* \"contracts/Actor/CheeseProducer-smart-contract/inventory/CheeseProducerMilkBatchStorage.sol\":1195:1392  MilkBatch memory milkBatch = MilkBatch({... */\n      swap1\n      pop\n        /* \"contracts/Actor/CheeseProducer-smart-contract/inventory/CheeseProducerMilkBatchStorage.sol\":1527:1536  milkBatch */\n      dup1\n        /* \"contracts/Actor/CheeseProducer-smart-contract/inventory/CheeseProducerMilkBatchStorage.sol\":1476:1496  purchasedMilkBatches */\n      0x01\n        /* \"contracts/Actor/CheeseProducer-smart-contract/inventory/CheeseProducerMilkBatchStorage.sol\":1476:1519  purchasedMilkBatches[_walletCheeseProducer] */\n      0x00\n        /* \"contracts/Actor/CheeseProducer-smart-contract/inventory/CheeseProducerMilkBatchStorage.sol\":1497:1518  _walletCheeseProducer */\n      dup10\n        /* \"contracts/Actor/CheeseProducer-smart-contract/inventory/CheeseProducerMilkBatchStorage.sol\":1476:1519  purchasedMilkBatches[_walletCheeseProducer] */\n      0xffffffffffffffffffffffffffffffffffffffff\n      and\n      0xffffffffffffffffffffffffffffffffffffffff\n      and\n      dup2\n      mstore\n      0x20\n      add\n      swap1\n      dup2\n      mstore\n      0x20\n      add\n      0x00\n      keccak256\n        /* \"contracts/Actor/CheeseProducer-smart-contract/inventory/CheeseProducerMilkBatchStorage.sol\":1476:1524  purchasedMilkBatches[_walletCheeseProducer][_id] */\n      0x00\n        /* \"contracts/Actor/CheeseProducer-smart-contract/inventory/CheeseProducerMilkBatchStorage.sol\":1520:1523  _id */\n      dup6\n        /* \"contracts/Actor/CheeseProducer-smart-contract/inventory/CheeseProducerMilkBatchStorage.sol\":1476:1524  purchasedMilkBatches[_walletCheeseProducer][_id] */\n      dup2\n      mstore\n      0x20\n      add\n      swap1\n      dup2\n      mstore\n      0x20\n      add\n      0x00\n      keccak256\n        /* \"contracts/Actor/CheeseProducer-smart-contract/inventory/CheeseProducerMilkBatchStorage.sol\":1476:1536  purchasedMilkBatches[_walletCheeseProducer][_id] = milkBatch */\n      0x00\n      dup3\n      add\n      mload\n      dup2\n      0x00\n      add\n      sstore\n      0x20\n      dup3\n      add\n      mload\n      dup2\n      0x01\n      add\n      exp(0x0100, 0x00)\n      dup2\n      sload\n      dup2\n      0xffffffffffffffffffffffffffffffffffffffff\n      mul\n      not\n      and\n      swap1\n      dup4\n      0xffffffffffffffffffffffffffffffffffffffff\n      and\n      mul\n      or\n      swap1\n      sstore\n      pop\n      0x40\n      dup3\n      add\n      mload\n      dup2\n      0x02\n      add\n      swap1\n      dup2\n      tag_80\n      swap2\n      swap1\n      tag_81\n      jump\t// in\n    tag_80:\n      pop\n      0x60\n      dup3\n      add\n      mload\n      dup2\n      0x03\n      add\n      sstore\n      swap1\n      pop\n      pop\n        /* \"contracts/Actor/CheeseProducer-smart-contract/inventory/CheeseProducerMilkBatchStorage.sol\":768:1544  {... */\n      pop\n      pop\n      pop\n        /* \"contracts/Actor/CheeseProducer-smart-contract/inventory/CheeseProducerMilkBatchStorage.sol\":585:1544  function addMilkBatch(... */\n      pop\n      pop\n      pop\n      pop\n      jump\t// out\n        /* \"contracts/Actor/CheeseProducer-smart-contract/inventory/CheeseProducerMilkBatchStorage.sol\":3522:3877  function getExpirationDate(address walletCheeseProducer, uint256 _id) external view returns(string memory) {... */\n    tag_31:\n        /* \"contracts/Actor/CheeseProducer-smart-contract/inventory/CheeseProducerMilkBatchStorage.sol\":3614:3627  string memory */\n      0x60\n        /* \"contracts/Actor/CheeseProducer-smart-contract/inventory/CheeseProducerMilkBatchStorage.sol\":3702:3703  0 */\n      0x00\n        /* \"contracts/Actor/CheeseProducer-smart-contract/inventory/CheeseProducerMilkBatchStorage.sol\":3648:3668  purchasedMilkBatches */\n      0x01\n        /* \"contracts/Actor/CheeseProducer-smart-contract/inventory/CheeseProducerMilkBatchStorage.sol\":3648:3690  purchasedMilkBatches[walletCheeseProducer] */\n      0x00\n        /* \"contracts/Actor/CheeseProducer-smart-contract/inventory/CheeseProducerMilkBatchStorage.sol\":3669:3689  walletCheeseProducer */\n      dup6\n        /* \"contracts/Actor/CheeseProducer-smart-contract/inventory/CheeseProducerMilkBatchStorage.sol\":3648:3690  purchasedMilkBatches[walletCheeseProducer] */\n      0xffffffffffffffffffffffffffffffffffffffff\n      and\n      0xffffffffffffffffffffffffffffffffffffffff\n      and\n      dup2\n      mstore\n      0x20\n      add\n      swap1\n      dup2\n      mstore\n      0x20\n      add\n      0x00\n      keccak256\n        /* \"contracts/Actor/CheeseProducer-smart-contract/inventory/CheeseProducerMilkBatchStorage.sol\":3648:3695  purchasedMilkBatches[walletCheeseProducer][_id] */\n      0x00\n        /* \"contracts/Actor/CheeseProducer-smart-contract/inventory/CheeseProducerMilkBatchStorage.sol\":3691:3694  _id */\n      dup5\n        /* \"contracts/Actor/CheeseProducer-smart-contract/inventory/CheeseProducerMilkBatchStorage.sol\":3648:3695  purchasedMilkBatches[walletCheeseProducer][_id] */\n      dup2\n      mstore\n      0x20\n      add\n      swap1\n      dup2\n      mstore\n      0x20\n      add\n      0x00\n      keccak256\n        /* \"contracts/Actor/CheeseProducer-smart-contract/inventory/CheeseProducerMilkBatchStorage.sol\":3648:3698  purchasedMilkBatches[walletCheeseProducer][_id].id */\n      0x00\n      add\n      sload\n        /* \"contracts/Actor/CheeseProducer-smart-contract/inventory/CheeseProducerMilkBatchStorage.sol\":3648:3703  purchasedMilkBatches[walletCheeseProducer][_id].id != 0 */\n      sub\n        /* \"contracts/Actor/CheeseProducer-smart-contract/inventory/CheeseProducerMilkBatchStorage.sol\":3640:3738  require(purchasedMilkBatches[walletCheeseProducer][_id].id != 0, \"Partita di Latte non presente!\") */\n      tag_83\n      jumpi\n      mload(0x40)\n      0x08c379a000000000000000000000000000000000000000000000000000000000\n      dup2\n      mstore\n      0x04\n      add\n      tag_84\n      swap1\n      tag_59\n      jump\t// in\n    tag_84:\n      mload(0x40)\n      dup1\n      swap2\n      sub\n      swap1\n      revert\n    tag_83:\n        /* \"contracts/Actor/CheeseProducer-smart-contract/inventory/CheeseProducerMilkBatchStorage.sol\":3751:3777  MilkBatch memory milkBatch */\n      0x00\n        /* \"contracts/Actor/CheeseProducer-smart-contract/inventory/CheeseProducerMilkBatchStorage.sol\":3780:3800  purchasedMilkBatches */\n      0x01\n        /* \"contracts/Actor/CheeseProducer-smart-contract/inventory/CheeseProducerMilkBatchStorage.sol\":3780:3822  purchasedMilkBatches[walletCheeseProducer] */\n      0x00\n        /* \"contracts/Actor/CheeseProducer-smart-contract/inventory/CheeseProducerMilkBatchStorage.sol\":3801:3821  walletCheeseProducer */\n      dup6\n        /* \"contracts/Actor/CheeseProducer-smart-contract/inventory/CheeseProducerMilkBatchStorage.sol\":3780:3822  purchasedMilkBatches[walletCheeseProducer] */\n      0xffffffffffffffffffffffffffffffffffffffff\n      and\n      0xffffffffffffffffffffffffffffffffffffffff\n      and\n      dup2\n      mstore\n      0x20\n      add\n      swap1\n      dup2\n      mstore\n      0x20\n      add\n      0x00\n      keccak256\n        /* \"contracts/Actor/CheeseProducer-smart-contract/inventory/CheeseProducerMilkBatchStorage.sol\":3780:3827  purchasedMilkBatches[walletCheeseProducer][_id] */\n      0x00\n        /* \"contracts/Actor/CheeseProducer-smart-contract/inventory/CheeseProducerMilkBatchStorage.sol\":3823:3826  _id */\n      dup5\n        /* \"contracts/Actor/CheeseProducer-smart-contract/inventory/CheeseProducerMilkBatchStorage.sol\":3780:3827  purchasedMilkBatches[walletCheeseProducer][_id] */\n      dup2\n      mstore\n      0x20\n      add\n      swap1\n      dup2\n      mstore\n      0x20\n      add\n      0x00\n      keccak256\n        /* \"contracts/Actor/CheeseProducer-smart-contract/inventory/CheeseProducerMilkBatchStorage.sol\":3751:3827  MilkBatch memory milkBatch = purchasedMilkBatches[walletCheeseProducer][_id] */\n      mload(0x40)\n      dup1\n      0x80\n      add\n      0x40\n      mstore\n      swap1\n      dup2\n      0x00\n      dup3\n      add\n      sload\n      dup2\n      mstore\n      0x20\n      add\n      0x01\n      dup3\n      add\n      0x00\n      swap1\n      sload\n      swap1\n      0x0100\n      exp\n      swap1\n      div\n      0xffffffffffffffffffffffffffffffffffffffff\n      and\n      0xffffffffffffffffffffffffffffffffffffffff\n      and\n      0xffffffffffffffffffffffffffffffffffffffff\n      and\n      dup2\n      mstore\n      0x20\n      add\n      0x02\n      dup3\n      add\n      dup1\n      sload\n      tag_85\n      swap1\n      tag_61\n      jump\t// in\n    tag_85:\n      dup1\n      0x1f\n      add\n      0x20\n      dup1\n      swap2\n      div\n      mul\n      0x20\n      add\n      mload(0x40)\n      swap1\n      dup2\n      add\n      0x40\n      mstore\n      dup1\n      swap3\n      swap2\n      swap1\n      dup2\n      dup2\n      mstore\n      0x20\n      add\n      dup3\n      dup1\n      sload\n      tag_86\n      swap1\n      tag_61\n      jump\t// in\n    tag_86:\n      dup1\n      iszero\n      tag_87\n      jumpi\n      dup1\n      0x1f\n      lt\n      tag_88\n      jumpi\n      0x0100\n      dup1\n      dup4\n      sload\n      div\n      mul\n      dup4\n      mstore\n      swap2\n      0x20\n      add\n      swap2\n      jump(tag_87)\n    tag_88:\n      dup3\n      add\n      swap2\n      swap1\n      0x00\n      mstore\n      keccak256(0x00, 0x20)\n      swap1\n    tag_89:\n      dup2\n      sload\n      dup2\n      mstore\n      swap1\n      0x01\n      add\n      swap1\n      0x20\n      add\n      dup1\n      dup4\n      gt\n      tag_89\n      jumpi\n      dup3\n      swap1\n      sub\n      0x1f\n      and\n      dup3\n      add\n      swap2\n    tag_87:\n      pop\n      pop\n      pop\n      pop\n      pop\n      dup2\n      mstore\n      0x20\n      add\n      0x03\n      dup3\n      add\n      sload\n      dup2\n      mstore\n      pop\n      pop\n      swap1\n      pop\n        /* \"contracts/Actor/CheeseProducer-smart-contract/inventory/CheeseProducerMilkBatchStorage.sol\":3845:3854  milkBatch */\n      dup1\n        /* \"contracts/Actor/CheeseProducer-smart-contract/inventory/CheeseProducerMilkBatchStorage.sol\":3845:3869  milkBatch.expirationDate */\n      0x40\n      add\n      mload\n        /* \"contracts/Actor/CheeseProducer-smart-contract/inventory/CheeseProducerMilkBatchStorage.sol\":3838:3869  return milkBatch.expirationDate */\n      swap2\n      pop\n      pop\n        /* \"contracts/Actor/CheeseProducer-smart-contract/inventory/CheeseProducerMilkBatchStorage.sol\":3522:3877  function getExpirationDate(address walletCheeseProducer, uint256 _id) external view returns(string memory) {... */\n      swap3\n      swap2\n      pop\n      pop\n      jump\t// out\n        /* \"contracts/Actor/CheeseProducer-smart-contract/inventory/CheeseProducerMilkBatchStorage.sol\":4877:5342  function checkMilkBatch(address walletCheeseProducer, uint256 _id, uint256 _quantityToTransform) external view returns(bool) {... */\n    tag_36:\n        /* \"contracts/Actor/CheeseProducer-smart-contract/inventory/CheeseProducerMilkBatchStorage.sol\":4996:5000  bool */\n      0x00\n        /* \"contracts/Actor/CheeseProducer-smart-contract/inventory/CheeseProducerMilkBatchStorage.sol\":5075:5078  _id */\n      dup3\n        /* \"contracts/Actor/CheeseProducer-smart-contract/inventory/CheeseProducerMilkBatchStorage.sol\":5021:5041  purchasedMilkBatches */\n      0x01\n        /* \"contracts/Actor/CheeseProducer-smart-contract/inventory/CheeseProducerMilkBatchStorage.sol\":5021:5063  purchasedMilkBatches[walletCheeseProducer] */\n      0x00\n        /* \"contracts/Actor/CheeseProducer-smart-contract/inventory/CheeseProducerMilkBatchStorage.sol\":5042:5062  walletCheeseProducer */\n      dup7\n        /* \"contracts/Actor/CheeseProducer-smart-contract/inventory/CheeseProducerMilkBatchStorage.sol\":5021:5063  purchasedMilkBatches[walletCheeseProducer] */\n      0xffffffffffffffffffffffffffffffffffffffff\n      and\n      0xffffffffffffffffffffffffffffffffffffffff\n      and\n      dup2\n      mstore\n      0x20\n      add\n      swap1\n      dup2\n      mstore\n      0x20\n      add\n      0x00\n      keccak256\n        /* \"contracts/Actor/CheeseProducer-smart-contract/inventory/CheeseProducerMilkBatchStorage.sol\":5021:5068  purchasedMilkBatches[walletCheeseProducer][_id] */\n      0x00\n        /* \"contracts/Actor/CheeseProducer-smart-contract/inventory/CheeseProducerMilkBatchStorage.sol\":5064:5067  _id */\n      dup6\n        /* \"contracts/Actor/CheeseProducer-smart-contract/inventory/CheeseProducerMilkBatchStorage.sol\":5021:5068  purchasedMilkBatches[walletCheeseProducer][_id] */\n      dup2\n      mstore\n      0x20\n      add\n      swap1\n      dup2\n      mstore\n      0x20\n      add\n      0x00\n      keccak256\n        /* \"contracts/Actor/CheeseProducer-smart-contract/inventory/CheeseProducerMilkBatchStorage.sol\":5021:5071  purchasedMilkBatches[walletCheeseProducer][_id].id */\n      0x00\n      add\n      sload\n        /* \"contracts/Actor/CheeseProducer-smart-contract/inventory/CheeseProducerMilkBatchStorage.sol\":5021:5078  purchasedMilkBatches[walletCheeseProducer][_id].id == _id */\n      eq\n        /* \"contracts/Actor/CheeseProducer-smart-contract/inventory/CheeseProducerMilkBatchStorage.sol\":5013:5113  require(purchasedMilkBatches[walletCheeseProducer][_id].id == _id, \"Partita di Latte non presente!\") */\n      tag_91\n      jumpi\n      mload(0x40)\n      0x08c379a000000000000000000000000000000000000000000000000000000000\n      dup2\n      mstore\n      0x04\n      add\n      tag_92\n      swap1\n      tag_59\n      jump\t// in\n    tag_92:\n      mload(0x40)\n      dup1\n      swap2\n      sub\n      swap1\n      revert\n    tag_91:\n        /* \"contracts/Actor/CheeseProducer-smart-contract/inventory/CheeseProducerMilkBatchStorage.sol\":5126:5156  MilkBatch storage milkBatchObj */\n      0x00\n        /* \"contracts/Actor/CheeseProducer-smart-contract/inventory/CheeseProducerMilkBatchStorage.sol\":5159:5179  purchasedMilkBatches */\n      0x01\n        /* \"contracts/Actor/CheeseProducer-smart-contract/inventory/CheeseProducerMilkBatchStorage.sol\":5159:5201  purchasedMilkBatches[walletCheeseProducer] */\n      0x00\n        /* \"contracts/Actor/CheeseProducer-smart-contract/inventory/CheeseProducerMilkBatchStorage.sol\":5180:5200  walletCheeseProducer */\n      dup7\n        /* \"contracts/Actor/CheeseProducer-smart-contract/inventory/CheeseProducerMilkBatchStorage.sol\":5159:5201  purchasedMilkBatches[walletCheeseProducer] */\n      0xffffffffffffffffffffffffffffffffffffffff\n      and\n      0xffffffffffffffffffffffffffffffffffffffff\n      and\n      dup2\n      mstore\n      0x20\n      add\n      swap1\n      dup2\n      mstore\n      0x20\n      add\n      0x00\n      keccak256\n        /* \"contracts/Actor/CheeseProducer-smart-contract/inventory/CheeseProducerMilkBatchStorage.sol\":5159:5206  purchasedMilkBatches[walletCheeseProducer][_id] */\n      0x00\n        /* \"contracts/Actor/CheeseProducer-smart-contract/inventory/CheeseProducerMilkBatchStorage.sol\":5202:5205  _id */\n      dup6\n        /* \"contracts/Actor/CheeseProducer-smart-contract/inventory/CheeseProducerMilkBatchStorage.sol\":5159:5206  purchasedMilkBatches[walletCheeseProducer][_id] */\n      dup2\n      mstore\n      0x20\n      add\n      swap1\n      dup2\n      mstore\n      0x20\n      add\n      0x00\n      keccak256\n        /* \"contracts/Actor/CheeseProducer-smart-contract/inventory/CheeseProducerMilkBatchStorage.sol\":5126:5206  MilkBatch storage milkBatchObj = purchasedMilkBatches[walletCheeseProducer][_id] */\n      swap1\n      pop\n        /* \"contracts/Actor/CheeseProducer-smart-contract/inventory/CheeseProducerMilkBatchStorage.sol\":5264:5284  _quantityToTransform */\n      dup3\n        /* \"contracts/Actor/CheeseProducer-smart-contract/inventory/CheeseProducerMilkBatchStorage.sol\":5239:5251  milkBatchObj */\n      dup2\n        /* \"contracts/Actor/CheeseProducer-smart-contract/inventory/CheeseProducerMilkBatchStorage.sol\":5239:5260  milkBatchObj.quantity */\n      0x03\n      add\n      sload\n        /* \"contracts/Actor/CheeseProducer-smart-contract/inventory/CheeseProducerMilkBatchStorage.sol\":5239:5284  milkBatchObj.quantity >= _quantityToTransform */\n      lt\n      iszero\n        /* \"contracts/Actor/CheeseProducer-smart-contract/inventory/CheeseProducerMilkBatchStorage.sol\":5231:5308  require(milkBatchObj.quantity >= _quantityToTransform, \"Quantity not Valid!\") */\n      tag_93\n      jumpi\n      mload(0x40)\n      0x08c379a000000000000000000000000000000000000000000000000000000000\n      dup2\n      mstore\n      0x04\n      add\n      tag_94\n      swap1\n      tag_95\n      jump\t// in\n    tag_94:\n      mload(0x40)\n      dup1\n      swap2\n      sub\n      swap1\n      revert\n    tag_93:\n        /* \"contracts/Actor/CheeseProducer-smart-contract/inventory/CheeseProducerMilkBatchStorage.sol\":5326:5330  true */\n      0x01\n        /* \"contracts/Actor/CheeseProducer-smart-contract/inventory/CheeseProducerMilkBatchStorage.sol\":5319:5330  return true */\n      swap2\n      pop\n      pop\n        /* \"contracts/Actor/CheeseProducer-smart-contract/inventory/CheeseProducerMilkBatchStorage.sol\":4877:5342  function checkMilkBatch(address walletCheeseProducer, uint256 _id, uint256 _quantityToTransform) external view returns(bool) {... */\n      swap4\n      swap3\n      pop\n      pop\n      pop\n      jump\t// out\n        /* \"contracts/Actor/CheeseProducer-smart-contract/inventory/CheeseProducerMilkBatchStorage.sol\":2016:2962  function deleteMilkBatch(address walletCheeseProducer, uint256 _id) external returns(bool value) {... */\n    tag_40:\n        /* \"contracts/Actor/CheeseProducer-smart-contract/inventory/CheeseProducerMilkBatchStorage.sol\":2101:2111  bool value */\n      0x00\n        /* \"contracts/Actor/CheeseProducer-smart-contract/inventory/CheeseProducerMilkBatchStorage.sol\":2188:2189  0 */\n      dup1\n        /* \"contracts/Actor/CheeseProducer-smart-contract/inventory/CheeseProducerMilkBatchStorage.sol\":2134:2154  purchasedMilkBatches */\n      0x01\n        /* \"contracts/Actor/CheeseProducer-smart-contract/inventory/CheeseProducerMilkBatchStorage.sol\":2134:2176  purchasedMilkBatches[walletCheeseProducer] */\n      0x00\n        /* \"contracts/Actor/CheeseProducer-smart-contract/inventory/CheeseProducerMilkBatchStorage.sol\":2155:2175  walletCheeseProducer */\n      dup6\n        /* \"contracts/Actor/CheeseProducer-smart-contract/inventory/CheeseProducerMilkBatchStorage.sol\":2134:2176  purchasedMilkBatches[walletCheeseProducer] */\n      0xffffffffffffffffffffffffffffffffffffffff\n      and\n      0xffffffffffffffffffffffffffffffffffffffff\n      and\n      dup2\n      mstore\n      0x20\n      add\n      swap1\n      dup2\n      mstore\n      0x20\n      add\n      0x00\n      keccak256\n        /* \"contracts/Actor/CheeseProducer-smart-contract/inventory/CheeseProducerMilkBatchStorage.sol\":2134:2181  purchasedMilkBatches[walletCheeseProducer][_id] */\n      0x00\n        /* \"contracts/Actor/CheeseProducer-smart-contract/inventory/CheeseProducerMilkBatchStorage.sol\":2177:2180  _id */\n      dup5\n        /* \"contracts/Actor/CheeseProducer-smart-contract/inventory/CheeseProducerMilkBatchStorage.sol\":2134:2181  purchasedMilkBatches[walletCheeseProducer][_id] */\n      dup2\n      mstore\n      0x20\n      add\n      swap1\n      dup2\n      mstore\n      0x20\n      add\n      0x00\n      keccak256\n        /* \"contracts/Actor/CheeseProducer-smart-contract/inventory/CheeseProducerMilkBatchStorage.sol\":2134:2184  purchasedMilkBatches[walletCheeseProducer][_id].id */\n      0x00\n      add\n      sload\n        /* \"contracts/Actor/CheeseProducer-smart-contract/inventory/CheeseProducerMilkBatchStorage.sol\":2134:2189  purchasedMilkBatches[walletCheeseProducer][_id].id != 0 */\n      sub\n        /* \"contracts/Actor/CheeseProducer-smart-contract/inventory/CheeseProducerMilkBatchStorage.sol\":2126:2224  require(purchasedMilkBatches[walletCheeseProducer][_id].id != 0, \"Partita di Latte non presente!\") */\n      tag_97\n      jumpi\n      mload(0x40)\n      0x08c379a000000000000000000000000000000000000000000000000000000000\n      dup2\n      mstore\n      0x04\n      add\n      tag_98\n      swap1\n      tag_59\n      jump\t// in\n    tag_98:\n      mload(0x40)\n      dup1\n      swap2\n      sub\n      swap1\n      revert\n    tag_97:\n        /* \"contracts/Actor/CheeseProducer-smart-contract/inventory/CheeseProducerMilkBatchStorage.sol\":2237:2260  uint256 lastIdMilkBatch */\n      0x00\n        /* \"contracts/Actor/CheeseProducer-smart-contract/inventory/CheeseProducerMilkBatchStorage.sol\":2312:2332  purchasedMilkBatches */\n      0x01\n        /* \"contracts/Actor/CheeseProducer-smart-contract/inventory/CheeseProducerMilkBatchStorage.sol\":2312:2354  purchasedMilkBatches[walletCheeseProducer] */\n      0x00\n        /* \"contracts/Actor/CheeseProducer-smart-contract/inventory/CheeseProducerMilkBatchStorage.sol\":2333:2353  walletCheeseProducer */\n      dup6\n        /* \"contracts/Actor/CheeseProducer-smart-contract/inventory/CheeseProducerMilkBatchStorage.sol\":2312:2354  purchasedMilkBatches[walletCheeseProducer] */\n      0xffffffffffffffffffffffffffffffffffffffff\n      and\n      0xffffffffffffffffffffffffffffffffffffffff\n      and\n      dup2\n      mstore\n      0x20\n      add\n      swap1\n      dup2\n      mstore\n      0x20\n      add\n      0x00\n      keccak256\n        /* \"contracts/Actor/CheeseProducer-smart-contract/inventory/CheeseProducerMilkBatchStorage.sol\":2312:2359  purchasedMilkBatches[walletCheeseProducer][_id] */\n      0x00\n        /* \"contracts/Actor/CheeseProducer-smart-contract/inventory/CheeseProducerMilkBatchStorage.sol\":2355:2358  _id */\n      dup5\n        /* \"contracts/Actor/CheeseProducer-smart-contract/inventory/CheeseProducerMilkBatchStorage.sol\":2312:2359  purchasedMilkBatches[walletCheeseProducer][_id] */\n      dup2\n      mstore\n      0x20\n      add\n      swap1\n      dup2\n      mstore\n      0x20\n      add\n      0x00\n      keccak256\n        /* \"contracts/Actor/CheeseProducer-smart-contract/inventory/CheeseProducerMilkBatchStorage.sol\":2312:2374  purchasedMilkBatches[walletCheeseProducer][_id].expirationDate */\n      0x02\n      add\n        /* \"contracts/Actor/CheeseProducer-smart-contract/inventory/CheeseProducerMilkBatchStorage.sol\":2389:2409  purchasedMilkBatches */\n      0x01\n        /* \"contracts/Actor/CheeseProducer-smart-contract/inventory/CheeseProducerMilkBatchStorage.sol\":2389:2431  purchasedMilkBatches[walletCheeseProducer] */\n      0x00\n        /* \"contracts/Actor/CheeseProducer-smart-contract/inventory/CheeseProducerMilkBatchStorage.sol\":2410:2430  walletCheeseProducer */\n      dup7\n        /* \"contracts/Actor/CheeseProducer-smart-contract/inventory/CheeseProducerMilkBatchStorage.sol\":2389:2431  purchasedMilkBatches[walletCheeseProducer] */\n      0xffffffffffffffffffffffffffffffffffffffff\n      and\n      0xffffffffffffffffffffffffffffffffffffffff\n      and\n      dup2\n      mstore\n      0x20\n      add\n      swap1\n      dup2\n      mstore\n      0x20\n      add\n      0x00\n      keccak256\n        /* \"contracts/Actor/CheeseProducer-smart-contract/inventory/CheeseProducerMilkBatchStorage.sol\":2389:2436  purchasedMilkBatches[walletCheeseProducer][_id] */\n      0x00\n        /* \"contracts/Actor/CheeseProducer-smart-contract/inventory/CheeseProducerMilkBatchStorage.sol\":2432:2435  _id */\n      dup6\n        /* \"contracts/Actor/CheeseProducer-smart-contract/inventory/CheeseProducerMilkBatchStorage.sol\":2389:2436  purchasedMilkBatches[walletCheeseProducer][_id] */\n      dup2\n      mstore\n      0x20\n      add\n      swap1\n      dup2\n      mstore\n      0x20\n      add\n      0x00\n      keccak256\n        /* \"contracts/Actor/CheeseProducer-smart-contract/inventory/CheeseProducerMilkBatchStorage.sol\":2389:2445  purchasedMilkBatches[walletCheeseProducer][_id].quantity */\n      0x03\n      add\n      sload\n        /* \"contracts/Actor/CheeseProducer-smart-contract/inventory/CheeseProducerMilkBatchStorage.sol\":2460:2480  purchasedMilkBatches */\n      0x01\n        /* \"contracts/Actor/CheeseProducer-smart-contract/inventory/CheeseProducerMilkBatchStorage.sol\":2460:2502  purchasedMilkBatches[walletCheeseProducer] */\n      0x00\n        /* \"contracts/Actor/CheeseProducer-smart-contract/inventory/CheeseProducerMilkBatchStorage.sol\":2481:2501  walletCheeseProducer */\n      dup8\n        /* \"contracts/Actor/CheeseProducer-smart-contract/inventory/CheeseProducerMilkBatchStorage.sol\":2460:2502  purchasedMilkBatches[walletCheeseProducer] */\n      0xffffffffffffffffffffffffffffffffffffffff\n      and\n      0xffffffffffffffffffffffffffffffffffffffff\n      and\n      dup2\n      mstore\n      0x20\n      add\n      swap1\n      dup2\n      mstore\n      0x20\n      add\n      0x00\n      keccak256\n        /* \"contracts/Actor/CheeseProducer-smart-contract/inventory/CheeseProducerMilkBatchStorage.sol\":2460:2507  purchasedMilkBatches[walletCheeseProducer][_id] */\n      0x00\n        /* \"contracts/Actor/CheeseProducer-smart-contract/inventory/CheeseProducerMilkBatchStorage.sol\":2503:2506  _id */\n      dup7\n        /* \"contracts/Actor/CheeseProducer-smart-contract/inventory/CheeseProducerMilkBatchStorage.sol\":2460:2507  purchasedMilkBatches[walletCheeseProducer][_id] */\n      dup2\n      mstore\n      0x20\n      add\n      swap1\n      dup2\n      mstore\n      0x20\n      add\n      0x00\n      keccak256\n        /* \"contracts/Actor/CheeseProducer-smart-contract/inventory/CheeseProducerMilkBatchStorage.sol\":2460:2521  purchasedMilkBatches[walletCheeseProducer][_id].walletMilkHub */\n      0x01\n      add\n      0x00\n      swap1\n      sload\n      swap1\n      0x0100\n      exp\n      swap1\n      div\n      0xffffffffffffffffffffffffffffffffffffffff\n      and\n        /* \"contracts/Actor/CheeseProducer-smart-contract/inventory/CheeseProducerMilkBatchStorage.sol\":2536:2556  walletCheeseProducer */\n      dup7\n        /* \"contracts/Actor/CheeseProducer-smart-contract/inventory/CheeseProducerMilkBatchStorage.sol\":2281:2567  abi.encodePacked(... */\n      add(0x20, mload(0x40))\n      tag_99\n      swap5\n      swap4\n      swap3\n      swap2\n      swap1\n      tag_100\n      jump\t// in\n    tag_99:\n      mload(0x40)\n      0x20\n      dup2\n      dup4\n      sub\n      sub\n      dup2\n      mstore\n      swap1\n      0x40\n      mstore\n        /* \"contracts/Actor/CheeseProducer-smart-contract/inventory/CheeseProducerMilkBatchStorage.sol\":2271:2568  keccak256(abi.encodePacked(... */\n      dup1\n      mload\n      swap1\n      0x20\n      add\n      keccak256\n        /* \"contracts/Actor/CheeseProducer-smart-contract/inventory/CheeseProducerMilkBatchStorage.sol\":2263:2569  uint256(keccak256(abi.encodePacked(... */\n      0x00\n      shr\n        /* \"contracts/Actor/CheeseProducer-smart-contract/inventory/CheeseProducerMilkBatchStorage.sol\":2237:2569  uint256 lastIdMilkBatch = uint256(keccak256(abi.encodePacked(... */\n      swap1\n      pop\n        /* \"contracts/Actor/CheeseProducer-smart-contract/inventory/CheeseProducerMilkBatchStorage.sol\":2644:2659  lastIdMilkBatch */\n      dup1\n        /* \"contracts/Actor/CheeseProducer-smart-contract/inventory/CheeseProducerMilkBatchStorage.sol\":2590:2610  purchasedMilkBatches */\n      0x01\n        /* \"contracts/Actor/CheeseProducer-smart-contract/inventory/CheeseProducerMilkBatchStorage.sol\":2590:2632  purchasedMilkBatches[walletCheeseProducer] */\n      0x00\n        /* \"contracts/Actor/CheeseProducer-smart-contract/inventory/CheeseProducerMilkBatchStorage.sol\":2611:2631  walletCheeseProducer */\n      dup7\n        /* \"contracts/Actor/CheeseProducer-smart-contract/inventory/CheeseProducerMilkBatchStorage.sol\":2590:2632  purchasedMilkBatches[walletCheeseProducer] */\n      0xffffffffffffffffffffffffffffffffffffffff\n      and\n      0xffffffffffffffffffffffffffffffffffffffff\n      and\n      dup2\n      mstore\n      0x20\n      add\n      swap1\n      dup2\n      mstore\n      0x20\n      add\n      0x00\n      keccak256\n        /* \"contracts/Actor/CheeseProducer-smart-contract/inventory/CheeseProducerMilkBatchStorage.sol\":2590:2637  purchasedMilkBatches[walletCheeseProducer][_id] */\n      0x00\n        /* \"contracts/Actor/CheeseProducer-smart-contract/inventory/CheeseProducerMilkBatchStorage.sol\":2633:2636  _id */\n      dup6\n        /* \"contracts/Actor/CheeseProducer-smart-contract/inventory/CheeseProducerMilkBatchStorage.sol\":2590:2637  purchasedMilkBatches[walletCheeseProducer][_id] */\n      dup2\n      mstore\n      0x20\n      add\n      swap1\n      dup2\n      mstore\n      0x20\n      add\n      0x00\n      keccak256\n        /* \"contracts/Actor/CheeseProducer-smart-contract/inventory/CheeseProducerMilkBatchStorage.sol\":2590:2640  purchasedMilkBatches[walletCheeseProducer][_id].id */\n      0x00\n      add\n      sload\n        /* \"contracts/Actor/CheeseProducer-smart-contract/inventory/CheeseProducerMilkBatchStorage.sol\":2590:2659  purchasedMilkBatches[walletCheeseProducer][_id].id == lastIdMilkBatch */\n      eq\n        /* \"contracts/Actor/CheeseProducer-smart-contract/inventory/CheeseProducerMilkBatchStorage.sol\":2582:2687  require(purchasedMilkBatches[walletCheeseProducer][_id].id == lastIdMilkBatch, \"Utente non Autorizzato!\") */\n      tag_101\n      jumpi\n      mload(0x40)\n      0x08c379a000000000000000000000000000000000000000000000000000000000\n      dup2\n      mstore\n      0x04\n      add\n      tag_102\n      swap1\n      tag_103\n      jump\t// in\n    tag_102:\n      mload(0x40)\n      dup1\n      swap2\n      sub\n      swap1\n      revert\n    tag_101:\n        /* \"contracts/Actor/CheeseProducer-smart-contract/inventory/CheeseProducerMilkBatchStorage.sol\":2707:2727  purchasedMilkBatches */\n      0x01\n        /* \"contracts/Actor/CheeseProducer-smart-contract/inventory/CheeseProducerMilkBatchStorage.sol\":2707:2749  purchasedMilkBatches[walletCheeseProducer] */\n      0x00\n        /* \"contracts/Actor/CheeseProducer-smart-contract/inventory/CheeseProducerMilkBatchStorage.sol\":2728:2748  walletCheeseProducer */\n      dup6\n        /* \"contracts/Actor/CheeseProducer-smart-contract/inventory/CheeseProducerMilkBatchStorage.sol\":2707:2749  purchasedMilkBatches[walletCheeseProducer] */\n      0xffffffffffffffffffffffffffffffffffffffff\n      and\n      0xffffffffffffffffffffffffffffffffffffffff\n      and\n      dup2\n      mstore\n      0x20\n      add\n      swap1\n      dup2\n      mstore\n      0x20\n      add\n      0x00\n      keccak256\n        /* \"contracts/Actor/CheeseProducer-smart-contract/inventory/CheeseProducerMilkBatchStorage.sol\":2707:2754  purchasedMilkBatches[walletCheeseProducer][_id] */\n      0x00\n        /* \"contracts/Actor/CheeseProducer-smart-contract/inventory/CheeseProducerMilkBatchStorage.sol\":2750:2753  _id */\n      dup5\n        /* \"contracts/Actor/CheeseProducer-smart-contract/inventory/CheeseProducerMilkBatchStorage.sol\":2707:2754  purchasedMilkBatches[walletCheeseProducer][_id] */\n      dup2\n      mstore\n      0x20\n      add\n      swap1\n      dup2\n      mstore\n      0x20\n      add\n      0x00\n      keccak256\n      0x00\n        /* \"contracts/Actor/CheeseProducer-smart-contract/inventory/CheeseProducerMilkBatchStorage.sol\":2700:2754  delete purchasedMilkBatches[walletCheeseProducer][_id] */\n      dup1\n      dup3\n      add\n      0x00\n      swap1\n      sstore\n      0x01\n      dup3\n      add\n      exp(0x0100, 0x00)\n      dup2\n      sload\n      swap1\n      0xffffffffffffffffffffffffffffffffffffffff\n      mul\n      not\n      and\n      swap1\n      sstore\n      0x02\n      dup3\n      add\n      0x00\n      tag_104\n      swap2\n      swap1\n      tag_105\n      jump\t// in\n    tag_104:\n      0x03\n      dup3\n      add\n      0x00\n      swap1\n      sstore\n      pop\n      pop\n        /* \"contracts/Actor/CheeseProducer-smart-contract/inventory/CheeseProducerMilkBatchStorage.sol\":2871:2872  0 */\n      0x00\n        /* \"contracts/Actor/CheeseProducer-smart-contract/inventory/CheeseProducerMilkBatchStorage.sol\":2816:2836  purchasedMilkBatches */\n      0x01\n        /* \"contracts/Actor/CheeseProducer-smart-contract/inventory/CheeseProducerMilkBatchStorage.sol\":2816:2858  purchasedMilkBatches[walletCheeseProducer] */\n      0x00\n        /* \"contracts/Actor/CheeseProducer-smart-contract/inventory/CheeseProducerMilkBatchStorage.sol\":2837:2857  walletCheeseProducer */\n      dup7\n        /* \"contracts/Actor/CheeseProducer-smart-contract/inventory/CheeseProducerMilkBatchStorage.sol\":2816:2858  purchasedMilkBatches[walletCheeseProducer] */\n      0xffffffffffffffffffffffffffffffffffffffff\n      and\n      0xffffffffffffffffffffffffffffffffffffffff\n      and\n      dup2\n      mstore\n      0x20\n      add\n      swap1\n      dup2\n      mstore\n      0x20\n      add\n      0x00\n      keccak256\n        /* \"contracts/Actor/CheeseProducer-smart-contract/inventory/CheeseProducerMilkBatchStorage.sol\":2816:2863  purchasedMilkBatches[walletCheeseProducer][_id] */\n      0x00\n        /* \"contracts/Actor/CheeseProducer-smart-contract/inventory/CheeseProducerMilkBatchStorage.sol\":2859:2862  _id */\n      dup6\n        /* \"contracts/Actor/CheeseProducer-smart-contract/inventory/CheeseProducerMilkBatchStorage.sol\":2816:2863  purchasedMilkBatches[walletCheeseProducer][_id] */\n      dup2\n      mstore\n      0x20\n      add\n      swap1\n      dup2\n      mstore\n      0x20\n      add\n      0x00\n      keccak256\n        /* \"contracts/Actor/CheeseProducer-smart-contract/inventory/CheeseProducerMilkBatchStorage.sol\":2816:2866  purchasedMilkBatches[walletCheeseProducer][_id].id */\n      0x00\n      add\n      sload\n        /* \"contracts/Actor/CheeseProducer-smart-contract/inventory/CheeseProducerMilkBatchStorage.sol\":2816:2872  purchasedMilkBatches[walletCheeseProducer][_id].id  == 0 */\n      sub\n        /* \"contracts/Actor/CheeseProducer-smart-contract/inventory/CheeseProducerMilkBatchStorage.sol\":2813:2955  if(purchasedMilkBatches[walletCheeseProducer][_id].id  == 0){... */\n      tag_106\n      jumpi\n        /* \"contracts/Actor/CheeseProducer-smart-contract/inventory/CheeseProducerMilkBatchStorage.sol\":2895:2899  true */\n      0x01\n        /* \"contracts/Actor/CheeseProducer-smart-contract/inventory/CheeseProducerMilkBatchStorage.sol\":2888:2899  return true */\n      swap2\n      pop\n      pop\n      jump(tag_96)\n        /* \"contracts/Actor/CheeseProducer-smart-contract/inventory/CheeseProducerMilkBatchStorage.sol\":2813:2955  if(purchasedMilkBatches[walletCheeseProducer][_id].id  == 0){... */\n    tag_106:\n        /* \"contracts/Actor/CheeseProducer-smart-contract/inventory/CheeseProducerMilkBatchStorage.sol\":2938:2943  false */\n      0x00\n        /* \"contracts/Actor/CheeseProducer-smart-contract/inventory/CheeseProducerMilkBatchStorage.sol\":2931:2943  return false */\n      swap2\n      pop\n      pop\n        /* \"contracts/Actor/CheeseProducer-smart-contract/inventory/CheeseProducerMilkBatchStorage.sol\":2016:2962  function deleteMilkBatch(address walletCheeseProducer, uint256 _id) external returns(bool value) {... */\n    tag_96:\n      swap3\n      swap2\n      pop\n      pop\n      jump\t// out\n        /* \"contracts/Actor/CheeseProducer-smart-contract/inventory/CheeseProducerMilkBatchStorage.sol\":4593:4869  function getId(address walletCheeseProducer, uint256 _id) external view returns(uint256) {... */\n    tag_44:\n        /* \"contracts/Actor/CheeseProducer-smart-contract/inventory/CheeseProducerMilkBatchStorage.sol\":4673:4680  uint256 */\n      0x00\n        /* \"contracts/Actor/CheeseProducer-smart-contract/inventory/CheeseProducerMilkBatchStorage.sol\":4755:4756  0 */\n      dup1\n        /* \"contracts/Actor/CheeseProducer-smart-contract/inventory/CheeseProducerMilkBatchStorage.sol\":4701:4721  purchasedMilkBatches */\n      0x01\n        /* \"contracts/Actor/CheeseProducer-smart-contract/inventory/CheeseProducerMilkBatchStorage.sol\":4701:4743  purchasedMilkBatches[walletCheeseProducer] */\n      0x00\n        /* \"contracts/Actor/CheeseProducer-smart-contract/inventory/CheeseProducerMilkBatchStorage.sol\":4722:4742  walletCheeseProducer */\n      dup6\n        /* \"contracts/Actor/CheeseProducer-smart-contract/inventory/CheeseProducerMilkBatchStorage.sol\":4701:4743  purchasedMilkBatches[walletCheeseProducer] */\n      0xffffffffffffffffffffffffffffffffffffffff\n      and\n      0xffffffffffffffffffffffffffffffffffffffff\n      and\n      dup2\n      mstore\n      0x20\n      add\n      swap1\n      dup2\n      mstore\n      0x20\n      add\n      0x00\n      keccak256\n        /* \"contracts/Actor/CheeseProducer-smart-contract/inventory/CheeseProducerMilkBatchStorage.sol\":4701:4748  purchasedMilkBatches[walletCheeseProducer][_id] */\n      0x00\n        /* \"contracts/Actor/CheeseProducer-smart-contract/inventory/CheeseProducerMilkBatchStorage.sol\":4744:4747  _id */\n      dup5\n        /* \"contracts/Actor/CheeseProducer-smart-contract/inventory/CheeseProducerMilkBatchStorage.sol\":4701:4748  purchasedMilkBatches[walletCheeseProducer][_id] */\n      dup2\n      mstore\n      0x20\n      add\n      swap1\n      dup2\n      mstore\n      0x20\n      add\n      0x00\n      keccak256\n        /* \"contracts/Actor/CheeseProducer-smart-contract/inventory/CheeseProducerMilkBatchStorage.sol\":4701:4751  purchasedMilkBatches[walletCheeseProducer][_id].id */\n      0x00\n      add\n      sload\n        /* \"contracts/Actor/CheeseProducer-smart-contract/inventory/CheeseProducerMilkBatchStorage.sol\":4701:4756  purchasedMilkBatches[walletCheeseProducer][_id].id != 0 */\n      sub\n        /* \"contracts/Actor/CheeseProducer-smart-contract/inventory/CheeseProducerMilkBatchStorage.sol\":4693:4791  require(purchasedMilkBatches[walletCheeseProducer][_id].id != 0, \"Partita di Latte non presente!\") */\n      tag_109\n      jumpi\n      mload(0x40)\n      0x08c379a000000000000000000000000000000000000000000000000000000000\n      dup2\n      mstore\n      0x04\n      add\n      tag_110\n      swap1\n      tag_59\n      jump\t// in\n    tag_110:\n      mload(0x40)\n      dup1\n      swap2\n      sub\n      swap1\n      revert\n    tag_109:\n        /* \"contracts/Actor/CheeseProducer-smart-contract/inventory/CheeseProducerMilkBatchStorage.sol\":4811:4831  purchasedMilkBatches */\n      0x01\n        /* \"contracts/Actor/CheeseProducer-smart-contract/inventory/CheeseProducerMilkBatchStorage.sol\":4811:4853  purchasedMilkBatches[walletCheeseProducer] */\n      0x00\n        /* \"contracts/Actor/CheeseProducer-smart-contract/inventory/CheeseProducerMilkBatchStorage.sol\":4832:4852  walletCheeseProducer */\n      dup5\n        /* \"contracts/Actor/CheeseProducer-smart-contract/inventory/CheeseProducerMilkBatchStorage.sol\":4811:4853  purchasedMilkBatches[walletCheeseProducer] */\n      0xffffffffffffffffffffffffffffffffffffffff\n      and\n      0xffffffffffffffffffffffffffffffffffffffff\n      and\n      dup2\n      mstore\n      0x20\n      add\n      swap1\n      dup2\n      mstore\n      0x20\n      add\n      0x00\n      keccak256\n        /* \"contracts/Actor/CheeseProducer-smart-contract/inventory/CheeseProducerMilkBatchStorage.sol\":4811:4858  purchasedMilkBatches[walletCheeseProducer][_id] */\n      0x00\n        /* \"contracts/Actor/CheeseProducer-smart-contract/inventory/CheeseProducerMilkBatchStorage.sol\":4854:4857  _id */\n      dup4\n        /* \"contracts/Actor/CheeseProducer-smart-contract/inventory/CheeseProducerMilkBatchStorage.sol\":4811:4858  purchasedMilkBatches[walletCheeseProducer][_id] */\n      dup2\n      mstore\n      0x20\n      add\n      swap1\n      dup2\n      mstore\n      0x20\n      add\n      0x00\n      keccak256\n        /* \"contracts/Actor/CheeseProducer-smart-contract/inventory/CheeseProducerMilkBatchStorage.sol\":4811:4861  purchasedMilkBatches[walletCheeseProducer][_id].id */\n      0x00\n      add\n      sload\n        /* \"contracts/Actor/CheeseProducer-smart-contract/inventory/CheeseProducerMilkBatchStorage.sol\":4804:4861  return purchasedMilkBatches[walletCheeseProducer][_id].id */\n      swap1\n      pop\n        /* \"contracts/Actor/CheeseProducer-smart-contract/inventory/CheeseProducerMilkBatchStorage.sol\":4593:4869  function getId(address walletCheeseProducer, uint256 _id) external view returns(uint256) {... */\n      swap3\n      swap2\n      pop\n      pop\n      jump\t// out\n        /* \"contracts/Actor/CheeseProducer-smart-contract/inventory/CheeseProducerMilkBatchStorage.sol\":1556:2002  function getMilkBatch(address walletCheeseProducer, uint256 _id) external view returns (uint256, address, string memory, uint256) {... */\n    tag_48:\n        /* \"contracts/Actor/CheeseProducer-smart-contract/inventory/CheeseProducerMilkBatchStorage.sol\":1644:1651  uint256 */\n      0x00\n        /* \"contracts/Actor/CheeseProducer-smart-contract/inventory/CheeseProducerMilkBatchStorage.sol\":1653:1660  address */\n      dup1\n        /* \"contracts/Actor/CheeseProducer-smart-contract/inventory/CheeseProducerMilkBatchStorage.sol\":1662:1675  string memory */\n      0x60\n        /* \"contracts/Actor/CheeseProducer-smart-contract/inventory/CheeseProducerMilkBatchStorage.sol\":1677:1684  uint256 */\n      0x00\n        /* \"contracts/Actor/CheeseProducer-smart-contract/inventory/CheeseProducerMilkBatchStorage.sol\":1762:1765  _id */\n      dup5\n        /* \"contracts/Actor/CheeseProducer-smart-contract/inventory/CheeseProducerMilkBatchStorage.sol\":1708:1728  purchasedMilkBatches */\n      0x01\n        /* \"contracts/Actor/CheeseProducer-smart-contract/inventory/CheeseProducerMilkBatchStorage.sol\":1708:1750  purchasedMilkBatches[walletCheeseProducer] */\n      0x00\n        /* \"contracts/Actor/CheeseProducer-smart-contract/inventory/CheeseProducerMilkBatchStorage.sol\":1729:1749  walletCheeseProducer */\n      dup9\n        /* \"contracts/Actor/CheeseProducer-smart-contract/inventory/CheeseProducerMilkBatchStorage.sol\":1708:1750  purchasedMilkBatches[walletCheeseProducer] */\n      0xffffffffffffffffffffffffffffffffffffffff\n      and\n      0xffffffffffffffffffffffffffffffffffffffff\n      and\n      dup2\n      mstore\n      0x20\n      add\n      swap1\n      dup2\n      mstore\n      0x20\n      add\n      0x00\n      keccak256\n        /* \"contracts/Actor/CheeseProducer-smart-contract/inventory/CheeseProducerMilkBatchStorage.sol\":1708:1755  purchasedMilkBatches[walletCheeseProducer][_id] */\n      0x00\n        /* \"contracts/Actor/CheeseProducer-smart-contract/inventory/CheeseProducerMilkBatchStorage.sol\":1751:1754  _id */\n      dup8\n        /* \"contracts/Actor/CheeseProducer-smart-contract/inventory/CheeseProducerMilkBatchStorage.sol\":1708:1755  purchasedMilkBatches[walletCheeseProducer][_id] */\n      dup2\n      mstore\n      0x20\n      add\n      swap1\n      dup2\n      mstore\n      0x20\n      add\n      0x00\n      keccak256\n        /* \"contracts/Actor/CheeseProducer-smart-contract/inventory/CheeseProducerMilkBatchStorage.sol\":1708:1758  purchasedMilkBatches[walletCheeseProducer][_id].id */\n      0x00\n      add\n      sload\n        /* \"contracts/Actor/CheeseProducer-smart-contract/inventory/CheeseProducerMilkBatchStorage.sol\":1708:1765  purchasedMilkBatches[walletCheeseProducer][_id].id == _id */\n      eq\n        /* \"contracts/Actor/CheeseProducer-smart-contract/inventory/CheeseProducerMilkBatchStorage.sol\":1699:1800  require( purchasedMilkBatches[walletCheeseProducer][_id].id == _id, \"Partita di Latte non presente!\") */\n      tag_112\n      jumpi\n      mload(0x40)\n      0x08c379a000000000000000000000000000000000000000000000000000000000\n      dup2\n      mstore\n      0x04\n      add\n      tag_113\n      swap1\n      tag_59\n      jump\t// in\n    tag_113:\n      mload(0x40)\n      dup1\n      swap2\n      sub\n      swap1\n      revert\n    tag_112:\n        /* \"contracts/Actor/CheeseProducer-smart-contract/inventory/CheeseProducerMilkBatchStorage.sol\":1813:1839  MilkBatch memory milkBatch */\n      0x00\n        /* \"contracts/Actor/CheeseProducer-smart-contract/inventory/CheeseProducerMilkBatchStorage.sol\":1842:1862  purchasedMilkBatches */\n      0x01\n        /* \"contracts/Actor/CheeseProducer-smart-contract/inventory/CheeseProducerMilkBatchStorage.sol\":1842:1884  purchasedMilkBatches[walletCheeseProducer] */\n      0x00\n        /* \"contracts/Actor/CheeseProducer-smart-contract/inventory/CheeseProducerMilkBatchStorage.sol\":1863:1883  walletCheeseProducer */\n      dup9\n        /* \"contracts/Actor/CheeseProducer-smart-contract/inventory/CheeseProducerMilkBatchStorage.sol\":1842:1884  purchasedMilkBatches[walletCheeseProducer] */\n      0xffffffffffffffffffffffffffffffffffffffff\n      and\n      0xffffffffffffffffffffffffffffffffffffffff\n      and\n      dup2\n      mstore\n      0x20\n      add\n      swap1\n      dup2\n      mstore\n      0x20\n      add\n      0x00\n      keccak256\n        /* \"contracts/Actor/CheeseProducer-smart-contract/inventory/CheeseProducerMilkBatchStorage.sol\":1842:1889  purchasedMilkBatches[walletCheeseProducer][_id] */\n      0x00\n        /* \"contracts/Actor/CheeseProducer-smart-contract/inventory/CheeseProducerMilkBatchStorage.sol\":1885:1888  _id */\n      dup8\n        /* \"contracts/Actor/CheeseProducer-smart-contract/inventory/CheeseProducerMilkBatchStorage.sol\":1842:1889  purchasedMilkBatches[walletCheeseProducer][_id] */\n      dup2\n      mstore\n      0x20\n      add\n      swap1\n      dup2\n      mstore\n      0x20\n      add\n      0x00\n      keccak256\n        /* \"contracts/Actor/CheeseProducer-smart-contract/inventory/CheeseProducerMilkBatchStorage.sol\":1813:1889  MilkBatch memory milkBatch = purchasedMilkBatches[walletCheeseProducer][_id] */\n      mload(0x40)\n      dup1\n      0x80\n      add\n      0x40\n      mstore\n      swap1\n      dup2\n      0x00\n      dup3\n      add\n      sload\n      dup2\n      mstore\n      0x20\n      add\n      0x01\n      dup3\n      add\n      0x00\n      swap1\n      sload\n      swap1\n      0x0100\n      exp\n      swap1\n      div\n      0xffffffffffffffffffffffffffffffffffffffff\n      and\n      0xffffffffffffffffffffffffffffffffffffffff\n      and\n      0xffffffffffffffffffffffffffffffffffffffff\n      and\n      dup2\n      mstore\n      0x20\n      add\n      0x02\n      dup3\n      add\n      dup1\n      sload\n      tag_114\n      swap1\n      tag_61\n      jump\t// in\n    tag_114:\n      dup1\n      0x1f\n      add\n      0x20\n      dup1\n      swap2\n      div\n      mul\n      0x20\n      add\n      mload(0x40)\n      swap1\n      dup2\n      add\n      0x40\n      mstore\n      dup1\n      swap3\n      swap2\n      swap1\n      dup2\n      dup2\n      mstore\n      0x20\n      add\n      dup3\n      dup1\n      sload\n      tag_115\n      swap1\n      tag_61\n      jump\t// in\n    tag_115:\n      dup1\n      iszero\n      tag_116\n      jumpi\n      dup1\n      0x1f\n      lt\n      tag_117\n      jumpi\n      0x0100\n      dup1\n      dup4\n      sload\n      div\n      mul\n      dup4\n      mstore\n      swap2\n      0x20\n      add\n      swap2\n      jump(tag_116)\n    tag_117:\n      dup3\n      add\n      swap2\n      swap1\n      0x00\n      mstore\n      keccak256(0x00, 0x20)\n      swap1\n    tag_118:\n      dup2\n      sload\n      dup2\n      mstore\n      swap1\n      0x01\n      add\n      swap1\n      0x20\n      add\n      dup1\n      dup4\n      gt\n      tag_118\n      jumpi\n      dup3\n      swap1\n      sub\n      0x1f\n      and\n      dup3\n      add\n      swap2\n    tag_116:\n      pop\n      pop\n      pop\n      pop\n      pop\n      dup2\n      mstore\n      0x20\n      add\n      0x03\n      dup3\n      add\n      sload\n      dup2\n      mstore\n      pop\n      pop\n      swap1\n      pop\n        /* \"contracts/Actor/CheeseProducer-smart-contract/inventory/CheeseProducerMilkBatchStorage.sol\":1910:1919  milkBatch */\n      dup1\n        /* \"contracts/Actor/CheeseProducer-smart-contract/inventory/CheeseProducerMilkBatchStorage.sol\":1910:1922  milkBatch.id */\n      0x00\n      add\n      mload\n        /* \"contracts/Actor/CheeseProducer-smart-contract/inventory/CheeseProducerMilkBatchStorage.sol\":1924:1933  milkBatch */\n      dup2\n        /* \"contracts/Actor/CheeseProducer-smart-contract/inventory/CheeseProducerMilkBatchStorage.sol\":1924:1947  milkBatch.walletMilkHub */\n      0x20\n      add\n      mload\n        /* \"contracts/Actor/CheeseProducer-smart-contract/inventory/CheeseProducerMilkBatchStorage.sol\":1949:1958  milkBatch */\n      dup3\n        /* \"contracts/Actor/CheeseProducer-smart-contract/inventory/CheeseProducerMilkBatchStorage.sol\":1949:1973  milkBatch.expirationDate */\n      0x40\n      add\n      mload\n        /* \"contracts/Actor/CheeseProducer-smart-contract/inventory/CheeseProducerMilkBatchStorage.sol\":1975:1984  milkBatch */\n      dup4\n        /* \"contracts/Actor/CheeseProducer-smart-contract/inventory/CheeseProducerMilkBatchStorage.sol\":1975:1993  milkBatch.quantity */\n      0x60\n      add\n      mload\n        /* \"contracts/Actor/CheeseProducer-smart-contract/inventory/CheeseProducerMilkBatchStorage.sol\":1902:1994  return (milkBatch.id, milkBatch.walletMilkHub, milkBatch.expirationDate, milkBatch.quantity) */\n      swap5\n      pop\n      swap5\n      pop\n      swap5\n      pop\n      swap5\n      pop\n      pop\n        /* \"contracts/Actor/CheeseProducer-smart-contract/inventory/CheeseProducerMilkBatchStorage.sol\":1556:2002  function getMilkBatch(address walletCheeseProducer, uint256 _id) external view returns (uint256, address, string memory, uint256) {... */\n      swap3\n      swap6\n      swap2\n      swap5\n      pop\n      swap3\n      pop\n      jump\t// out\n        /* \"contracts/Actor/CheeseProducer-smart-contract/inventory/CheeseProducerMilkBatchStorage.sol\":4238:4585  function getWalletMilkHub(address walletCheeseProducer, uint256 _id) external view returns(address) {... */\n    tag_53:\n        /* \"contracts/Actor/CheeseProducer-smart-contract/inventory/CheeseProducerMilkBatchStorage.sol\":4329:4336  address */\n      0x00\n        /* \"contracts/Actor/CheeseProducer-smart-contract/inventory/CheeseProducerMilkBatchStorage.sol\":4411:4412  0 */\n      dup1\n        /* \"contracts/Actor/CheeseProducer-smart-contract/inventory/CheeseProducerMilkBatchStorage.sol\":4357:4377  purchasedMilkBatches */\n      0x01\n        /* \"contracts/Actor/CheeseProducer-smart-contract/inventory/CheeseProducerMilkBatchStorage.sol\":4357:4399  purchasedMilkBatches[walletCheeseProducer] */\n      0x00\n        /* \"contracts/Actor/CheeseProducer-smart-contract/inventory/CheeseProducerMilkBatchStorage.sol\":4378:4398  walletCheeseProducer */\n      dup6\n        /* \"contracts/Actor/CheeseProducer-smart-contract/inventory/CheeseProducerMilkBatchStorage.sol\":4357:4399  purchasedMilkBatches[walletCheeseProducer] */\n      0xffffffffffffffffffffffffffffffffffffffff\n      and\n      0xffffffffffffffffffffffffffffffffffffffff\n      and\n      dup2\n      mstore\n      0x20\n      add\n      swap1\n      dup2\n      mstore\n      0x20\n      add\n      0x00\n      keccak256\n        /* \"contracts/Actor/CheeseProducer-smart-contract/inventory/CheeseProducerMilkBatchStorage.sol\":4357:4404  purchasedMilkBatches[walletCheeseProducer][_id] */\n      0x00\n        /* \"contracts/Actor/CheeseProducer-smart-contract/inventory/CheeseProducerMilkBatchStorage.sol\":4400:4403  _id */\n      dup5\n        /* \"contracts/Actor/CheeseProducer-smart-contract/inventory/CheeseProducerMilkBatchStorage.sol\":4357:4404  purchasedMilkBatches[walletCheeseProducer][_id] */\n      dup2\n      mstore\n      0x20\n      add\n      swap1\n      dup2\n      mstore\n      0x20\n      add\n      0x00\n      keccak256\n        /* \"contracts/Actor/CheeseProducer-smart-contract/inventory/CheeseProducerMilkBatchStorage.sol\":4357:4407  purchasedMilkBatches[walletCheeseProducer][_id].id */\n      0x00\n      add\n      sload\n        /* \"contracts/Actor/CheeseProducer-smart-contract/inventory/CheeseProducerMilkBatchStorage.sol\":4357:4412  purchasedMilkBatches[walletCheeseProducer][_id].id != 0 */\n      sub\n        /* \"contracts/Actor/CheeseProducer-smart-contract/inventory/CheeseProducerMilkBatchStorage.sol\":4349:4447  require(purchasedMilkBatches[walletCheeseProducer][_id].id != 0, \"Partita di Latte non presente!\") */\n      tag_120\n      jumpi\n      mload(0x40)\n      0x08c379a000000000000000000000000000000000000000000000000000000000\n      dup2\n      mstore\n      0x04\n      add\n      tag_121\n      swap1\n      tag_59\n      jump\t// in\n    tag_121:\n      mload(0x40)\n      dup1\n      swap2\n      sub\n      swap1\n      revert\n    tag_120:\n        /* \"contracts/Actor/CheeseProducer-smart-contract/inventory/CheeseProducerMilkBatchStorage.sol\":4460:4486  MilkBatch memory milkBatch */\n      0x00\n        /* \"contracts/Actor/CheeseProducer-smart-contract/inventory/CheeseProducerMilkBatchStorage.sol\":4489:4509  purchasedMilkBatches */\n      0x01\n        /* \"contracts/Actor/CheeseProducer-smart-contract/inventory/CheeseProducerMilkBatchStorage.sol\":4489:4531  purchasedMilkBatches[walletCheeseProducer] */\n      0x00\n        /* \"contracts/Actor/CheeseProducer-smart-contract/inventory/CheeseProducerMilkBatchStorage.sol\":4510:4530  walletCheeseProducer */\n      dup6\n        /* \"contracts/Actor/CheeseProducer-smart-contract/inventory/CheeseProducerMilkBatchStorage.sol\":4489:4531  purchasedMilkBatches[walletCheeseProducer] */\n      0xffffffffffffffffffffffffffffffffffffffff\n      and\n      0xffffffffffffffffffffffffffffffffffffffff\n      and\n      dup2\n      mstore\n      0x20\n      add\n      swap1\n      dup2\n      mstore\n      0x20\n      add\n      0x00\n      keccak256\n        /* \"contracts/Actor/CheeseProducer-smart-contract/inventory/CheeseProducerMilkBatchStorage.sol\":4489:4536  purchasedMilkBatches[walletCheeseProducer][_id] */\n      0x00\n        /* \"contracts/Actor/CheeseProducer-smart-contract/inventory/CheeseProducerMilkBatchStorage.sol\":4532:4535  _id */\n      dup5\n        /* \"contracts/Actor/CheeseProducer-smart-contract/inventory/CheeseProducerMilkBatchStorage.sol\":4489:4536  purchasedMilkBatches[walletCheeseProducer][_id] */\n      dup2\n      mstore\n      0x20\n      add\n      swap1\n      dup2\n      mstore\n      0x20\n      add\n      0x00\n      keccak256\n        /* \"contracts/Actor/CheeseProducer-smart-contract/inventory/CheeseProducerMilkBatchStorage.sol\":4460:4536  MilkBatch memory milkBatch = purchasedMilkBatches[walletCheeseProducer][_id] */\n      mload(0x40)\n      dup1\n      0x80\n      add\n      0x40\n      mstore\n      swap1\n      dup2\n      0x00\n      dup3\n      add\n      sload\n      dup2\n      mstore\n      0x20\n      add\n      0x01\n      dup3\n      add\n      0x00\n      swap1\n      sload\n      swap1\n      0x0100\n      exp\n      swap1\n      div\n      0xffffffffffffffffffffffffffffffffffffffff\n      and\n      0xffffffffffffffffffffffffffffffffffffffff\n      and\n      0xffffffffffffffffffffffffffffffffffffffff\n      and\n      dup2\n      mstore\n      0x20\n      add\n      0x02\n      dup3\n      add\n      dup1\n      sload\n      tag_122\n      swap1\n      tag_61\n      jump\t// in\n    tag_122:\n      dup1\n      0x1f\n      add\n      0x20\n      dup1\n      swap2\n      div\n      mul\n      0x20\n      add\n      mload(0x40)\n      swap1\n      dup2\n      add\n      0x40\n      mstore\n      dup1\n      swap3\n      swap2\n      swap1\n      dup2\n      dup2\n      mstore\n      0x20\n      add\n      dup3\n      dup1\n      sload\n      tag_123\n      swap1\n      tag_61\n      jump\t// in\n    tag_123:\n      dup1\n      iszero\n      tag_124\n      jumpi\n      dup1\n      0x1f\n      lt\n      tag_125\n      jumpi\n      0x0100\n      dup1\n      dup4\n      sload\n      div\n      mul\n      dup4\n      mstore\n      swap2\n      0x20\n      add\n      swap2\n      jump(tag_124)\n    tag_125:\n      dup3\n      add\n      swap2\n      swap1\n      0x00\n      mstore\n      keccak256(0x00, 0x20)\n      swap1\n    tag_126:\n      dup2\n      sload\n      dup2\n      mstore\n      swap1\n      0x01\n      add\n      swap1\n      0x20\n      add\n      dup1\n      dup4\n      gt\n      tag_126\n      jumpi\n      dup3\n      swap1\n      sub\n      0x1f\n      and\n      dup3\n      add\n      swap2\n    tag_124:\n      pop\n      pop\n      pop\n      pop\n      pop\n      dup2\n      mstore\n      0x20\n      add\n      0x03\n      dup3\n      add\n      sload\n      dup2\n      mstore\n      pop\n      pop\n      swap1\n      pop\n        /* \"contracts/Actor/CheeseProducer-smart-contract/inventory/CheeseProducerMilkBatchStorage.sol\":4554:4563  milkBatch */\n      dup1\n        /* \"contracts/Actor/CheeseProducer-smart-contract/inventory/CheeseProducerMilkBatchStorage.sol\":4554:4577  milkBatch.walletMilkHub */\n      0x20\n      add\n      mload\n        /* \"contracts/Actor/CheeseProducer-smart-contract/inventory/CheeseProducerMilkBatchStorage.sol\":4547:4577  return milkBatch.walletMilkHub */\n      swap2\n      pop\n      pop\n        /* \"contracts/Actor/CheeseProducer-smart-contract/inventory/CheeseProducerMilkBatchStorage.sol\":4238:4585  function getWalletMilkHub(address walletCheeseProducer, uint256 _id) external view returns(address) {... */\n      swap3\n      swap2\n      pop\n      pop\n      jump\t// out\n    tag_105:\n      pop\n      dup1\n      sload\n      tag_127\n      swap1\n      tag_61\n      jump\t// in\n    tag_127:\n      0x00\n      dup3\n      sstore\n      dup1\n      0x1f\n      lt\n      tag_129\n      jumpi\n      pop\n      jump(tag_128)\n    tag_129:\n      0x1f\n      add\n      0x20\n      swap1\n      div\n      swap1\n      0x00\n      mstore\n      keccak256(0x00, 0x20)\n      swap1\n      dup2\n      add\n      swap1\n      tag_130\n      swap2\n      swap1\n      tag_131\n      jump\t// in\n    tag_130:\n    tag_128:\n      pop\n      jump\t// out\n    tag_131:\n    tag_132:\n      dup1\n      dup3\n      gt\n      iszero\n      tag_133\n      jumpi\n      0x00\n      dup2\n      0x00\n      swap1\n      sstore\n      pop\n      0x01\n      add\n      jump(tag_132)\n    tag_133:\n      pop\n      swap1\n      jump\t// out\n        /* \"#utility.yul\":7:82   */\n    tag_134:\n        /* \"#utility.yul\":40:46   */\n      0x00\n        /* \"#utility.yul\":73:75   */\n      0x40\n        /* \"#utility.yul\":67:76   */\n      mload\n        /* \"#utility.yul\":57:76   */\n      swap1\n      pop\n        /* \"#utility.yul\":7:82   */\n      swap1\n      jump\t// out\n        /* \"#utility.yul\":88:205   */\n    tag_135:\n        /* \"#utility.yul\":197:198   */\n      0x00\n        /* \"#utility.yul\":194:195   */\n      dup1\n        /* \"#utility.yul\":187:199   */\n      revert\n        /* \"#utility.yul\":211:328   */\n    tag_136:\n        /* \"#utility.yul\":320:321   */\n      0x00\n        /* \"#utility.yul\":317:318   */\n      dup1\n        /* \"#utility.yul\":310:322   */\n      revert\n        /* \"#utility.yul\":334:460   */\n    tag_137:\n        /* \"#utility.yul\":371:378   */\n      0x00\n        /* \"#utility.yul\":411:453   */\n      0xffffffffffffffffffffffffffffffffffffffff\n        /* \"#utility.yul\":404:409   */\n      dup3\n        /* \"#utility.yul\":400:454   */\n      and\n        /* \"#utility.yul\":389:454   */\n      swap1\n      pop\n        /* \"#utility.yul\":334:460   */\n      swap2\n      swap1\n      pop\n      jump\t// out\n        /* \"#utility.yul\":466:562   */\n    tag_138:\n        /* \"#utility.yul\":503:510   */\n      0x00\n        /* \"#utility.yul\":532:556   */\n      tag_204\n        /* \"#utility.yul\":550:555   */\n      dup3\n        /* \"#utility.yul\":532:556   */\n      tag_137\n      jump\t// in\n    tag_204:\n        /* \"#utility.yul\":521:556   */\n      swap1\n      pop\n        /* \"#utility.yul\":466:562   */\n      swap2\n      swap1\n      pop\n      jump\t// out\n        /* \"#utility.yul\":568:690   */\n    tag_139:\n        /* \"#utility.yul\":641:665   */\n      tag_206\n        /* \"#utility.yul\":659:664   */\n      dup2\n        /* \"#utility.yul\":641:665   */\n      tag_138\n      jump\t// in\n    tag_206:\n        /* \"#utility.yul\":634:639   */\n      dup2\n        /* \"#utility.yul\":631:666   */\n      eq\n        /* \"#utility.yul\":621:684   */\n      tag_207\n      jumpi\n        /* \"#utility.yul\":680:681   */\n      0x00\n        /* \"#utility.yul\":677:678   */\n      dup1\n        /* \"#utility.yul\":670:682   */\n      revert\n        /* \"#utility.yul\":621:684   */\n    tag_207:\n        /* \"#utility.yul\":568:690   */\n      pop\n      jump\t// out\n        /* \"#utility.yul\":696:835   */\n    tag_140:\n        /* \"#utility.yul\":742:747   */\n      0x00\n        /* \"#utility.yul\":780:786   */\n      dup2\n        /* \"#utility.yul\":767:787   */\n      calldataload\n        /* \"#utility.yul\":758:787   */\n      swap1\n      pop\n        /* \"#utility.yul\":796:829   */\n      tag_209\n        /* \"#utility.yul\":823:828   */\n      dup2\n        /* \"#utility.yul\":796:829   */\n      tag_139\n      jump\t// in\n    tag_209:\n        /* \"#utility.yul\":696:835   */\n      swap3\n      swap2\n      pop\n      pop\n      jump\t// out\n        /* \"#utility.yul\":841:918   */\n    tag_141:\n        /* \"#utility.yul\":878:885   */\n      0x00\n        /* \"#utility.yul\":907:912   */\n      dup2\n        /* \"#utility.yul\":896:912   */\n      swap1\n      pop\n        /* \"#utility.yul\":841:918   */\n      swap2\n      swap1\n      pop\n      jump\t// out\n        /* \"#utility.yul\":924:1046   */\n    tag_142:\n        /* \"#utility.yul\":997:1021   */\n      tag_212\n        /* \"#utility.yul\":1015:1020   */\n      dup2\n        /* \"#utility.yul\":997:1021   */\n      tag_141\n      jump\t// in\n    tag_212:\n        /* \"#utility.yul\":990:995   */\n      dup2\n        /* \"#utility.yul\":987:1022   */\n      eq\n        /* \"#utility.yul\":977:1040   */\n      tag_213\n      jumpi\n        /* \"#utility.yul\":1036:1037   */\n      0x00\n        /* \"#utility.yul\":1033:1034   */\n      dup1\n        /* \"#utility.yul\":1026:1038   */\n      revert\n        /* \"#utility.yul\":977:1040   */\n    tag_213:\n        /* \"#utility.yul\":924:1046   */\n      pop\n      jump\t// out\n        /* \"#utility.yul\":1052:1191   */\n    tag_143:\n        /* \"#utility.yul\":1098:1103   */\n      0x00\n        /* \"#utility.yul\":1136:1142   */\n      dup2\n        /* \"#utility.yul\":1123:1143   */\n      calldataload\n        /* \"#utility.yul\":1114:1143   */\n      swap1\n      pop\n        /* \"#utility.yul\":1152:1185   */\n      tag_215\n        /* \"#utility.yul\":1179:1184   */\n      dup2\n        /* \"#utility.yul\":1152:1185   */\n      tag_142\n      jump\t// in\n    tag_215:\n        /* \"#utility.yul\":1052:1191   */\n      swap3\n      swap2\n      pop\n      pop\n      jump\t// out\n        /* \"#utility.yul\":1197:1671   */\n    tag_15:\n        /* \"#utility.yul\":1265:1271   */\n      0x00\n        /* \"#utility.yul\":1273:1279   */\n      dup1\n        /* \"#utility.yul\":1322:1324   */\n      0x40\n        /* \"#utility.yul\":1310:1319   */\n      dup4\n        /* \"#utility.yul\":1301:1308   */\n      dup6\n        /* \"#utility.yul\":1297:1320   */\n      sub\n        /* \"#utility.yul\":1293:1325   */\n      slt\n        /* \"#utility.yul\":1290:1409   */\n      iszero\n      tag_217\n      jumpi\n        /* \"#utility.yul\":1328:1407   */\n      tag_218\n      tag_135\n      jump\t// in\n    tag_218:\n        /* \"#utility.yul\":1290:1409   */\n    tag_217:\n        /* \"#utility.yul\":1448:1449   */\n      0x00\n        /* \"#utility.yul\":1473:1526   */\n      tag_219\n        /* \"#utility.yul\":1518:1525   */\n      dup6\n        /* \"#utility.yul\":1509:1515   */\n      dup3\n        /* \"#utility.yul\":1498:1507   */\n      dup7\n        /* \"#utility.yul\":1494:1516   */\n      add\n        /* \"#utility.yul\":1473:1526   */\n      tag_140\n      jump\t// in\n    tag_219:\n        /* \"#utility.yul\":1463:1526   */\n      swap3\n      pop\n        /* \"#utility.yul\":1419:1536   */\n      pop\n        /* \"#utility.yul\":1575:1577   */\n      0x20\n        /* \"#utility.yul\":1601:1654   */\n      tag_220\n        /* \"#utility.yul\":1646:1653   */\n      dup6\n        /* \"#utility.yul\":1637:1643   */\n      dup3\n        /* \"#utility.yul\":1626:1635   */\n      dup7\n        /* \"#utility.yul\":1622:1644   */\n      add\n        /* \"#utility.yul\":1601:1654   */\n      tag_143\n      jump\t// in\n    tag_220:\n        /* \"#utility.yul\":1591:1654   */\n      swap2\n      pop\n        /* \"#utility.yul\":1546:1664   */\n      pop\n        /* \"#utility.yul\":1197:1671   */\n      swap3\n      pop\n      swap3\n      swap1\n      pop\n      jump\t// out\n        /* \"#utility.yul\":1677:1795   */\n    tag_144:\n        /* \"#utility.yul\":1764:1788   */\n      tag_222\n        /* \"#utility.yul\":1782:1787   */\n      dup2\n        /* \"#utility.yul\":1764:1788   */\n      tag_141\n      jump\t// in\n    tag_222:\n        /* \"#utility.yul\":1759:1762   */\n      dup3\n        /* \"#utility.yul\":1752:1789   */\n      mstore\n        /* \"#utility.yul\":1677:1795   */\n      pop\n      pop\n      jump\t// out\n        /* \"#utility.yul\":1801:2023   */\n    tag_18:\n        /* \"#utility.yul\":1894:1898   */\n      0x00\n        /* \"#utility.yul\":1932:1934   */\n      0x20\n        /* \"#utility.yul\":1921:1930   */\n      dup3\n        /* \"#utility.yul\":1917:1935   */\n      add\n        /* \"#utility.yul\":1909:1935   */\n      swap1\n      pop\n        /* \"#utility.yul\":1945:2016   */\n      tag_224\n        /* \"#utility.yul\":2013:2014   */\n      0x00\n        /* \"#utility.yul\":2002:2011   */\n      dup4\n        /* \"#utility.yul\":1998:2015   */\n      add\n        /* \"#utility.yul\":1989:1995   */\n      dup5\n        /* \"#utility.yul\":1945:2016   */\n      tag_144\n      jump\t// in\n    tag_224:\n        /* \"#utility.yul\":1801:2023   */\n      swap3\n      swap2\n      pop\n      pop\n      jump\t// out\n        /* \"#utility.yul\":2029:2648   */\n    tag_21:\n        /* \"#utility.yul\":2106:2112   */\n      0x00\n        /* \"#utility.yul\":2114:2120   */\n      dup1\n        /* \"#utility.yul\":2122:2128   */\n      0x00\n        /* \"#utility.yul\":2171:2173   */\n      0x60\n        /* \"#utility.yul\":2159:2168   */\n      dup5\n        /* \"#utility.yul\":2150:2157   */\n      dup7\n        /* \"#utility.yul\":2146:2169   */\n      sub\n        /* \"#utility.yul\":2142:2174   */\n      slt\n        /* \"#utility.yul\":2139:2258   */\n      iszero\n      tag_226\n      jumpi\n        /* \"#utility.yul\":2177:2256   */\n      tag_227\n      tag_135\n      jump\t// in\n    tag_227:\n        /* \"#utility.yul\":2139:2258   */\n    tag_226:\n        /* \"#utility.yul\":2297:2298   */\n      0x00\n        /* \"#utility.yul\":2322:2375   */\n      tag_228\n        /* \"#utility.yul\":2367:2374   */\n      dup7\n        /* \"#utility.yul\":2358:2364   */\n      dup3\n        /* \"#utility.yul\":2347:2356   */\n      dup8\n        /* \"#utility.yul\":2343:2365   */\n      add\n        /* \"#utility.yul\":2322:2375   */\n      tag_140\n      jump\t// in\n    tag_228:\n        /* \"#utility.yul\":2312:2375   */\n      swap4\n      pop\n        /* \"#utility.yul\":2268:2385   */\n      pop\n        /* \"#utility.yul\":2424:2426   */\n      0x20\n        /* \"#utility.yul\":2450:2503   */\n      tag_229\n        /* \"#utility.yul\":2495:2502   */\n      dup7\n        /* \"#utility.yul\":2486:2492   */\n      dup3\n        /* \"#utility.yul\":2475:2484   */\n      dup8\n        /* \"#utility.yul\":2471:2493   */\n      add\n        /* \"#utility.yul\":2450:2503   */\n      tag_143\n      jump\t// in\n    tag_229:\n        /* \"#utility.yul\":2440:2503   */\n      swap3\n      pop\n        /* \"#utility.yul\":2395:2513   */\n      pop\n        /* \"#utility.yul\":2552:2554   */\n      0x40\n        /* \"#utility.yul\":2578:2631   */\n      tag_230\n        /* \"#utility.yul\":2623:2630   */\n      dup7\n        /* \"#utility.yul\":2614:2620   */\n      dup3\n        /* \"#utility.yul\":2603:2612   */\n      dup8\n        /* \"#utility.yul\":2599:2621   */\n      add\n        /* \"#utility.yul\":2578:2631   */\n      tag_143\n      jump\t// in\n    tag_230:\n        /* \"#utility.yul\":2568:2631   */\n      swap2\n      pop\n        /* \"#utility.yul\":2523:2641   */\n      pop\n        /* \"#utility.yul\":2029:2648   */\n      swap3\n      pop\n      swap3\n      pop\n      swap3\n      jump\t// out\n        /* \"#utility.yul\":2654:2744   */\n    tag_145:\n        /* \"#utility.yul\":2688:2695   */\n      0x00\n        /* \"#utility.yul\":2731:2736   */\n      dup2\n        /* \"#utility.yul\":2724:2737   */\n      iszero\n        /* \"#utility.yul\":2717:2738   */\n      iszero\n        /* \"#utility.yul\":2706:2738   */\n      swap1\n      pop\n        /* \"#utility.yul\":2654:2744   */\n      swap2\n      swap1\n      pop\n      jump\t// out\n        /* \"#utility.yul\":2750:2859   */\n    tag_146:\n        /* \"#utility.yul\":2831:2852   */\n      tag_233\n        /* \"#utility.yul\":2846:2851   */\n      dup2\n        /* \"#utility.yul\":2831:2852   */\n      tag_145\n      jump\t// in\n    tag_233:\n        /* \"#utility.yul\":2826:2829   */\n      dup3\n        /* \"#utility.yul\":2819:2853   */\n      mstore\n        /* \"#utility.yul\":2750:2859   */\n      pop\n      pop\n      jump\t// out\n        /* \"#utility.yul\":2865:3075   */\n    tag_24:\n        /* \"#utility.yul\":2952:2956   */\n      0x00\n        /* \"#utility.yul\":2990:2992   */\n      0x20\n        /* \"#utility.yul\":2979:2988   */\n      dup3\n        /* \"#utility.yul\":2975:2993   */\n      add\n        /* \"#utility.yul\":2967:2993   */\n      swap1\n      pop\n        /* \"#utility.yul\":3003:3068   */\n      tag_235\n        /* \"#utility.yul\":3065:3066   */\n      0x00\n        /* \"#utility.yul\":3054:3063   */\n      dup4\n        /* \"#utility.yul\":3050:3067   */\n      add\n        /* \"#utility.yul\":3041:3047   */\n      dup5\n        /* \"#utility.yul\":3003:3068   */\n      tag_146\n      jump\t// in\n    tag_235:\n        /* \"#utility.yul\":2865:3075   */\n      swap3\n      swap2\n      pop\n      pop\n      jump\t// out\n        /* \"#utility.yul\":3081:3198   */\n    tag_147:\n        /* \"#utility.yul\":3190:3191   */\n      0x00\n        /* \"#utility.yul\":3187:3188   */\n      dup1\n        /* \"#utility.yul\":3180:3192   */\n      revert\n        /* \"#utility.yul\":3204:3321   */\n    tag_148:\n        /* \"#utility.yul\":3313:3314   */\n      0x00\n        /* \"#utility.yul\":3310:3311   */\n      dup1\n        /* \"#utility.yul\":3303:3315   */\n      revert\n        /* \"#utility.yul\":3327:3429   */\n    tag_149:\n        /* \"#utility.yul\":3368:3374   */\n      0x00\n        /* \"#utility.yul\":3419:3421   */\n      0x1f\n        /* \"#utility.yul\":3415:3422   */\n      not\n        /* \"#utility.yul\":3410:3412   */\n      0x1f\n        /* \"#utility.yul\":3403:3408   */\n      dup4\n        /* \"#utility.yul\":3399:3413   */\n      add\n        /* \"#utility.yul\":3395:3423   */\n      and\n        /* \"#utility.yul\":3385:3423   */\n      swap1\n      pop\n        /* \"#utility.yul\":3327:3429   */\n      swap2\n      swap1\n      pop\n      jump\t// out\n        /* \"#utility.yul\":3435:3615   */\n    tag_150:\n        /* \"#utility.yul\":3483:3560   */\n      0x4e487b7100000000000000000000000000000000000000000000000000000000\n        /* \"#utility.yul\":3480:3481   */\n      0x00\n        /* \"#utility.yul\":3473:3561   */\n      mstore\n        /* \"#utility.yul\":3580:3584   */\n      0x41\n        /* \"#utility.yul\":3577:3578   */\n      0x04\n        /* \"#utility.yul\":3570:3585   */\n      mstore\n        /* \"#utility.yul\":3604:3608   */\n      0x24\n        /* \"#utility.yul\":3601:3602   */\n      0x00\n        /* \"#utility.yul\":3594:3609   */\n      revert\n        /* \"#utility.yul\":3621:3902   */\n    tag_151:\n        /* \"#utility.yul\":3704:3731   */\n      tag_241\n        /* \"#utility.yul\":3726:3730   */\n      dup3\n        /* \"#utility.yul\":3704:3731   */\n      tag_149\n      jump\t// in\n    tag_241:\n        /* \"#utility.yul\":3696:3702   */\n      dup2\n        /* \"#utility.yul\":3692:3732   */\n      add\n        /* \"#utility.yul\":3834:3840   */\n      dup2\n        /* \"#utility.yul\":3822:3832   */\n      dup2\n        /* \"#utility.yul\":3819:3841   */\n      lt\n        /* \"#utility.yul\":3798:3816   */\n      0xffffffffffffffff\n        /* \"#utility.yul\":3786:3796   */\n      dup3\n        /* \"#utility.yul\":3783:3817   */\n      gt\n        /* \"#utility.yul\":3780:3842   */\n      or\n        /* \"#utility.yul\":3777:3865   */\n      iszero\n      tag_242\n      jumpi\n        /* \"#utility.yul\":3845:3863   */\n      tag_243\n      tag_150\n      jump\t// in\n    tag_243:\n        /* \"#utility.yul\":3777:3865   */\n    tag_242:\n        /* \"#utility.yul\":3885:3895   */\n      dup1\n        /* \"#utility.yul\":3881:3883   */\n      0x40\n        /* \"#utility.yul\":3874:3896   */\n      mstore\n        /* \"#utility.yul\":3664:3902   */\n      pop\n        /* \"#utility.yul\":3621:3902   */\n      pop\n      pop\n      jump\t// out\n        /* \"#utility.yul\":3908:4037   */\n    tag_152:\n        /* \"#utility.yul\":3942:3948   */\n      0x00\n        /* \"#utility.yul\":3969:3989   */\n      tag_245\n      tag_134\n      jump\t// in\n    tag_245:\n        /* \"#utility.yul\":3959:3989   */\n      swap1\n      pop\n        /* \"#utility.yul\":3998:4031   */\n      tag_246\n        /* \"#utility.yul\":4026:4030   */\n      dup3\n        /* \"#utility.yul\":4018:4024   */\n      dup3\n        /* \"#utility.yul\":3998:4031   */\n      tag_151\n      jump\t// in\n    tag_246:\n        /* \"#utility.yul\":3908:4037   */\n      swap2\n      swap1\n      pop\n      jump\t// out\n        /* \"#utility.yul\":4043:4351   */\n    tag_153:\n        /* \"#utility.yul\":4105:4109   */\n      0x00\n        /* \"#utility.yul\":4195:4213   */\n      0xffffffffffffffff\n        /* \"#utility.yul\":4187:4193   */\n      dup3\n        /* \"#utility.yul\":4184:4214   */\n      gt\n        /* \"#utility.yul\":4181:4237   */\n      iszero\n      tag_248\n      jumpi\n        /* \"#utility.yul\":4217:4235   */\n      tag_249\n      tag_150\n      jump\t// in\n    tag_249:\n        /* \"#utility.yul\":4181:4237   */\n    tag_248:\n        /* \"#utility.yul\":4255:4284   */\n      tag_250\n        /* \"#utility.yul\":4277:4283   */\n      dup3\n        /* \"#utility.yul\":4255:4284   */\n      tag_149\n      jump\t// in\n    tag_250:\n        /* \"#utility.yul\":4247:4284   */\n      swap1\n      pop\n        /* \"#utility.yul\":4339:4343   */\n      0x20\n        /* \"#utility.yul\":4333:4337   */\n      dup2\n        /* \"#utility.yul\":4329:4344   */\n      add\n        /* \"#utility.yul\":4321:4344   */\n      swap1\n      pop\n        /* \"#utility.yul\":4043:4351   */\n      swap2\n      swap1\n      pop\n      jump\t// out\n        /* \"#utility.yul\":4357:4503   */\n    tag_154:\n        /* \"#utility.yul\":4454:4460   */\n      dup3\n        /* \"#utility.yul\":4449:4452   */\n      dup2\n        /* \"#utility.yul\":4444:4447   */\n      dup4\n        /* \"#utility.yul\":4431:4461   */\n      calldatacopy\n        /* \"#utility.yul\":4495:4496   */\n      0x00\n        /* \"#utility.yul\":4486:4492   */\n      dup4\n        /* \"#utility.yul\":4481:4484   */\n      dup4\n        /* \"#utility.yul\":4477:4493   */\n      add\n        /* \"#utility.yul\":4470:4497   */\n      mstore\n        /* \"#utility.yul\":4357:4503   */\n      pop\n      pop\n      pop\n      jump\t// out\n        /* \"#utility.yul\":4509:4934   */\n    tag_155:\n        /* \"#utility.yul\":4587:4592   */\n      0x00\n        /* \"#utility.yul\":4612:4678   */\n      tag_253\n        /* \"#utility.yul\":4628:4677   */\n      tag_254\n        /* \"#utility.yul\":4670:4676   */\n      dup5\n        /* \"#utility.yul\":4628:4677   */\n      tag_153\n      jump\t// in\n    tag_254:\n        /* \"#utility.yul\":4612:4678   */\n      tag_152\n      jump\t// in\n    tag_253:\n        /* \"#utility.yul\":4603:4678   */\n      swap1\n      pop\n        /* \"#utility.yul\":4701:4707   */\n      dup3\n        /* \"#utility.yul\":4694:4699   */\n      dup2\n        /* \"#utility.yul\":4687:4708   */\n      mstore\n        /* \"#utility.yul\":4739:4743   */\n      0x20\n        /* \"#utility.yul\":4732:4737   */\n      dup2\n        /* \"#utility.yul\":4728:4744   */\n      add\n        /* \"#utility.yul\":4777:4780   */\n      dup5\n        /* \"#utility.yul\":4768:4774   */\n      dup5\n        /* \"#utility.yul\":4763:4766   */\n      dup5\n        /* \"#utility.yul\":4759:4775   */\n      add\n        /* \"#utility.yul\":4756:4781   */\n      gt\n        /* \"#utility.yul\":4753:4865   */\n      iszero\n      tag_255\n      jumpi\n        /* \"#utility.yul\":4784:4863   */\n      tag_256\n      tag_148\n      jump\t// in\n    tag_256:\n        /* \"#utility.yul\":4753:4865   */\n    tag_255:\n        /* \"#utility.yul\":4874:4928   */\n      tag_257\n        /* \"#utility.yul\":4921:4927   */\n      dup5\n        /* \"#utility.yul\":4916:4919   */\n      dup3\n        /* \"#utility.yul\":4911:4914   */\n      dup6\n        /* \"#utility.yul\":4874:4928   */\n      tag_154\n      jump\t// in\n    tag_257:\n        /* \"#utility.yul\":4593:4934   */\n      pop\n        /* \"#utility.yul\":4509:4934   */\n      swap4\n      swap3\n      pop\n      pop\n      pop\n      jump\t// out\n        /* \"#utility.yul\":4954:5294   */\n    tag_156:\n        /* \"#utility.yul\":5010:5015   */\n      0x00\n        /* \"#utility.yul\":5059:5062   */\n      dup3\n        /* \"#utility.yul\":5052:5056   */\n      0x1f\n        /* \"#utility.yul\":5044:5050   */\n      dup4\n        /* \"#utility.yul\":5040:5057   */\n      add\n        /* \"#utility.yul\":5036:5063   */\n      slt\n        /* \"#utility.yul\":5026:5148   */\n      tag_259\n      jumpi\n        /* \"#utility.yul\":5067:5146   */\n      tag_260\n      tag_147\n      jump\t// in\n    tag_260:\n        /* \"#utility.yul\":5026:5148   */\n    tag_259:\n        /* \"#utility.yul\":5184:5190   */\n      dup2\n        /* \"#utility.yul\":5171:5191   */\n      calldataload\n        /* \"#utility.yul\":5209:5288   */\n      tag_261\n        /* \"#utility.yul\":5284:5287   */\n      dup5\n        /* \"#utility.yul\":5276:5282   */\n      dup3\n        /* \"#utility.yul\":5269:5273   */\n      0x20\n        /* \"#utility.yul\":5261:5267   */\n      dup7\n        /* \"#utility.yul\":5257:5274   */\n      add\n        /* \"#utility.yul\":5209:5288   */\n      tag_155\n      jump\t// in\n    tag_261:\n        /* \"#utility.yul\":5200:5288   */\n      swap2\n      pop\n        /* \"#utility.yul\":5016:5294   */\n      pop\n        /* \"#utility.yul\":4954:5294   */\n      swap3\n      swap2\n      pop\n      pop\n      jump\t// out\n        /* \"#utility.yul\":5300:6245   */\n    tag_27:\n        /* \"#utility.yul\":5396:5402   */\n      0x00\n        /* \"#utility.yul\":5404:5410   */\n      dup1\n        /* \"#utility.yul\":5412:5418   */\n      0x00\n        /* \"#utility.yul\":5420:5426   */\n      dup1\n        /* \"#utility.yul\":5469:5472   */\n      0x80\n        /* \"#utility.yul\":5457:5466   */\n      dup6\n        /* \"#utility.yul\":5448:5455   */\n      dup8\n        /* \"#utility.yul\":5444:5467   */\n      sub\n        /* \"#utility.yul\":5440:5473   */\n      slt\n        /* \"#utility.yul\":5437:5557   */\n      iszero\n      tag_263\n      jumpi\n        /* \"#utility.yul\":5476:5555   */\n      tag_264\n      tag_135\n      jump\t// in\n    tag_264:\n        /* \"#utility.yul\":5437:5557   */\n    tag_263:\n        /* \"#utility.yul\":5596:5597   */\n      0x00\n        /* \"#utility.yul\":5621:5674   */\n      tag_265\n        /* \"#utility.yul\":5666:5673   */\n      dup8\n        /* \"#utility.yul\":5657:5663   */\n      dup3\n        /* \"#utility.yul\":5646:5655   */\n      dup9\n        /* \"#utility.yul\":5642:5664   */\n      add\n        /* \"#utility.yul\":5621:5674   */\n      tag_140\n      jump\t// in\n    tag_265:\n        /* \"#utility.yul\":5611:5674   */\n      swap5\n      pop\n        /* \"#utility.yul\":5567:5684   */\n      pop\n        /* \"#utility.yul\":5723:5725   */\n      0x20\n        /* \"#utility.yul\":5749:5802   */\n      tag_266\n        /* \"#utility.yul\":5794:5801   */\n      dup8\n        /* \"#utility.yul\":5785:5791   */\n      dup3\n        /* \"#utility.yul\":5774:5783   */\n      dup9\n        /* \"#utility.yul\":5770:5792   */\n      add\n        /* \"#utility.yul\":5749:5802   */\n      tag_140\n      jump\t// in\n    tag_266:\n        /* \"#utility.yul\":5739:5802   */\n      swap4\n      pop\n        /* \"#utility.yul\":5694:5812   */\n      pop\n        /* \"#utility.yul\":5879:5881   */\n      0x40\n        /* \"#utility.yul\":5868:5877   */\n      dup6\n        /* \"#utility.yul\":5864:5882   */\n      add\n        /* \"#utility.yul\":5851:5883   */\n      calldataload\n        /* \"#utility.yul\":5910:5928   */\n      0xffffffffffffffff\n        /* \"#utility.yul\":5902:5908   */\n      dup2\n        /* \"#utility.yul\":5899:5929   */\n      gt\n        /* \"#utility.yul\":5896:6013   */\n      iszero\n      tag_267\n      jumpi\n        /* \"#utility.yul\":5932:6011   */\n      tag_268\n      tag_136\n      jump\t// in\n    tag_268:\n        /* \"#utility.yul\":5896:6013   */\n    tag_267:\n        /* \"#utility.yul\":6037:6100   */\n      tag_269\n        /* \"#utility.yul\":6092:6099   */\n      dup8\n        /* \"#utility.yul\":6083:6089   */\n      dup3\n        /* \"#utility.yul\":6072:6081   */\n      dup9\n        /* \"#utility.yul\":6068:6090   */\n      add\n        /* \"#utility.yul\":6037:6100   */\n      tag_156\n      jump\t// in\n    tag_269:\n        /* \"#utility.yul\":6027:6100   */\n      swap3\n      pop\n        /* \"#utility.yul\":5822:6110   */\n      pop\n        /* \"#utility.yul\":6149:6151   */\n      0x60\n        /* \"#utility.yul\":6175:6228   */\n      tag_270\n        /* \"#utility.yul\":6220:6227   */\n      dup8\n        /* \"#utility.yul\":6211:6217   */\n      dup3\n        /* \"#utility.yul\":6200:6209   */\n      dup9\n        /* \"#utility.yul\":6196:6218   */\n      add\n        /* \"#utility.yul\":6175:6228   */\n      tag_143\n      jump\t// in\n    tag_270:\n        /* \"#utility.yul\":6165:6228   */\n      swap2\n      pop\n        /* \"#utility.yul\":6120:6238   */\n      pop\n        /* \"#utility.yul\":5300:6245   */\n      swap3\n      swap6\n      swap2\n      swap5\n      pop\n      swap3\n      pop\n      jump\t// out\n        /* \"#utility.yul\":6251:6350   */\n    tag_157:\n        /* \"#utility.yul\":6303:6309   */\n      0x00\n        /* \"#utility.yul\":6337:6342   */\n      dup2\n        /* \"#utility.yul\":6331:6343   */\n      mload\n        /* \"#utility.yul\":6321:6343   */\n      swap1\n      pop\n        /* \"#utility.yul\":6251:6350   */\n      swap2\n      swap1\n      pop\n      jump\t// out\n        /* \"#utility.yul\":6356:6525   */\n    tag_158:\n        /* \"#utility.yul\":6440:6451   */\n      0x00\n        /* \"#utility.yul\":6474:6480   */\n      dup3\n        /* \"#utility.yul\":6469:6472   */\n      dup3\n        /* \"#utility.yul\":6462:6481   */\n      mstore\n        /* \"#utility.yul\":6514:6518   */\n      0x20\n        /* \"#utility.yul\":6509:6512   */\n      dup3\n        /* \"#utility.yul\":6505:6519   */\n      add\n        /* \"#utility.yul\":6490:6519   */\n      swap1\n      pop\n        /* \"#utility.yul\":6356:6525   */\n      swap3\n      swap2\n      pop\n      pop\n      jump\t// out\n        /* \"#utility.yul\":6531:6777   */\n    tag_159:\n        /* \"#utility.yul\":6612:6613   */\n      0x00\n        /* \"#utility.yul\":6622:6735   */\n    tag_274:\n        /* \"#utility.yul\":6636:6642   */\n      dup4\n        /* \"#utility.yul\":6633:6634   */\n      dup2\n        /* \"#utility.yul\":6630:6643   */\n      lt\n        /* \"#utility.yul\":6622:6735   */\n      iszero\n      tag_276\n      jumpi\n        /* \"#utility.yul\":6721:6722   */\n      dup1\n        /* \"#utility.yul\":6716:6719   */\n      dup3\n        /* \"#utility.yul\":6712:6723   */\n      add\n        /* \"#utility.yul\":6706:6724   */\n      mload\n        /* \"#utility.yul\":6702:6703   */\n      dup2\n        /* \"#utility.yul\":6697:6700   */\n      dup5\n        /* \"#utility.yul\":6693:6704   */\n      add\n        /* \"#utility.yul\":6686:6725   */\n      mstore\n        /* \"#utility.yul\":6658:6660   */\n      0x20\n        /* \"#utility.yul\":6655:6656   */\n      dup2\n        /* \"#utility.yul\":6651:6661   */\n      add\n        /* \"#utility.yul\":6646:6661   */\n      swap1\n      pop\n        /* \"#utility.yul\":6622:6735   */\n      jump(tag_274)\n    tag_276:\n        /* \"#utility.yul\":6769:6770   */\n      0x00\n        /* \"#utility.yul\":6760:6766   */\n      dup5\n        /* \"#utility.yul\":6755:6758   */\n      dup5\n        /* \"#utility.yul\":6751:6767   */\n      add\n        /* \"#utility.yul\":6744:6771   */\n      mstore\n        /* \"#utility.yul\":6593:6777   */\n      pop\n        /* \"#utility.yul\":6531:6777   */\n      pop\n      pop\n      pop\n      jump\t// out\n        /* \"#utility.yul\":6783:7160   */\n    tag_160:\n        /* \"#utility.yul\":6871:6874   */\n      0x00\n        /* \"#utility.yul\":6899:6938   */\n      tag_278\n        /* \"#utility.yul\":6932:6937   */\n      dup3\n        /* \"#utility.yul\":6899:6938   */\n      tag_157\n      jump\t// in\n    tag_278:\n        /* \"#utility.yul\":6954:7025   */\n      tag_279\n        /* \"#utility.yul\":7018:7024   */\n      dup2\n        /* \"#utility.yul\":7013:7016   */\n      dup6\n        /* \"#utility.yul\":6954:7025   */\n      tag_158\n      jump\t// in\n    tag_279:\n        /* \"#utility.yul\":6947:7025   */\n      swap4\n      pop\n        /* \"#utility.yul\":7034:7099   */\n      tag_280\n        /* \"#utility.yul\":7092:7098   */\n      dup2\n        /* \"#utility.yul\":7087:7090   */\n      dup6\n        /* \"#utility.yul\":7080:7084   */\n      0x20\n        /* \"#utility.yul\":7073:7078   */\n      dup7\n        /* \"#utility.yul\":7069:7085   */\n      add\n        /* \"#utility.yul\":7034:7099   */\n      tag_159\n      jump\t// in\n    tag_280:\n        /* \"#utility.yul\":7124:7153   */\n      tag_281\n        /* \"#utility.yul\":7146:7152   */\n      dup2\n        /* \"#utility.yul\":7124:7153   */\n      tag_149\n      jump\t// in\n    tag_281:\n        /* \"#utility.yul\":7119:7122   */\n      dup5\n        /* \"#utility.yul\":7115:7154   */\n      add\n        /* \"#utility.yul\":7108:7154   */\n      swap2\n      pop\n        /* \"#utility.yul\":6875:7160   */\n      pop\n        /* \"#utility.yul\":6783:7160   */\n      swap3\n      swap2\n      pop\n      pop\n      jump\t// out\n        /* \"#utility.yul\":7166:7479   */\n    tag_33:\n        /* \"#utility.yul\":7279:7283   */\n      0x00\n        /* \"#utility.yul\":7317:7319   */\n      0x20\n        /* \"#utility.yul\":7306:7315   */\n      dup3\n        /* \"#utility.yul\":7302:7320   */\n      add\n        /* \"#utility.yul\":7294:7320   */\n      swap1\n      pop\n        /* \"#utility.yul\":7366:7375   */\n      dup2\n        /* \"#utility.yul\":7360:7364   */\n      dup2\n        /* \"#utility.yul\":7356:7376   */\n      sub\n        /* \"#utility.yul\":7352:7353   */\n      0x00\n        /* \"#utility.yul\":7341:7350   */\n      dup4\n        /* \"#utility.yul\":7337:7354   */\n      add\n        /* \"#utility.yul\":7330:7377   */\n      mstore\n        /* \"#utility.yul\":7394:7472   */\n      tag_283\n        /* \"#utility.yul\":7467:7471   */\n      dup2\n        /* \"#utility.yul\":7458:7464   */\n      dup5\n        /* \"#utility.yul\":7394:7472   */\n      tag_160\n      jump\t// in\n    tag_283:\n        /* \"#utility.yul\":7386:7472   */\n      swap1\n      pop\n        /* \"#utility.yul\":7166:7479   */\n      swap3\n      swap2\n      pop\n      pop\n      jump\t// out\n        /* \"#utility.yul\":7485:7603   */\n    tag_161:\n        /* \"#utility.yul\":7572:7596   */\n      tag_285\n        /* \"#utility.yul\":7590:7595   */\n      dup2\n        /* \"#utility.yul\":7572:7596   */\n      tag_138\n      jump\t// in\n    tag_285:\n        /* \"#utility.yul\":7567:7570   */\n      dup3\n        /* \"#utility.yul\":7560:7597   */\n      mstore\n        /* \"#utility.yul\":7485:7603   */\n      pop\n      pop\n      jump\t// out\n        /* \"#utility.yul\":7609:8253   */\n    tag_50:\n        /* \"#utility.yul\":7806:7810   */\n      0x00\n        /* \"#utility.yul\":7844:7847   */\n      0x80\n        /* \"#utility.yul\":7833:7842   */\n      dup3\n        /* \"#utility.yul\":7829:7848   */\n      add\n        /* \"#utility.yul\":7821:7848   */\n      swap1\n      pop\n        /* \"#utility.yul\":7858:7929   */\n      tag_287\n        /* \"#utility.yul\":7926:7927   */\n      0x00\n        /* \"#utility.yul\":7915:7924   */\n      dup4\n        /* \"#utility.yul\":7911:7928   */\n      add\n        /* \"#utility.yul\":7902:7908   */\n      dup8\n        /* \"#utility.yul\":7858:7929   */\n      tag_144\n      jump\t// in\n    tag_287:\n        /* \"#utility.yul\":7939:8011   */\n      tag_288\n        /* \"#utility.yul\":8007:8009   */\n      0x20\n        /* \"#utility.yul\":7996:8005   */\n      dup4\n        /* \"#utility.yul\":7992:8010   */\n      add\n        /* \"#utility.yul\":7983:7989   */\n      dup7\n        /* \"#utility.yul\":7939:8011   */\n      tag_161\n      jump\t// in\n    tag_288:\n        /* \"#utility.yul\":8058:8067   */\n      dup2\n        /* \"#utility.yul\":8052:8056   */\n      dup2\n        /* \"#utility.yul\":8048:8068   */\n      sub\n        /* \"#utility.yul\":8043:8045   */\n      0x40\n        /* \"#utility.yul\":8032:8041   */\n      dup4\n        /* \"#utility.yul\":8028:8046   */\n      add\n        /* \"#utility.yul\":8021:8069   */\n      mstore\n        /* \"#utility.yul\":8086:8164   */\n      tag_289\n        /* \"#utility.yul\":8159:8163   */\n      dup2\n        /* \"#utility.yul\":8150:8156   */\n      dup6\n        /* \"#utility.yul\":8086:8164   */\n      tag_160\n      jump\t// in\n    tag_289:\n        /* \"#utility.yul\":8078:8164   */\n      swap1\n      pop\n        /* \"#utility.yul\":8174:8246   */\n      tag_290\n        /* \"#utility.yul\":8242:8244   */\n      0x60\n        /* \"#utility.yul\":8231:8240   */\n      dup4\n        /* \"#utility.yul\":8227:8245   */\n      add\n        /* \"#utility.yul\":8218:8224   */\n      dup5\n        /* \"#utility.yul\":8174:8246   */\n      tag_144\n      jump\t// in\n    tag_290:\n        /* \"#utility.yul\":7609:8253   */\n      swap6\n      swap5\n      pop\n      pop\n      pop\n      pop\n      pop\n      jump\t// out\n        /* \"#utility.yul\":8259:8481   */\n    tag_55:\n        /* \"#utility.yul\":8352:8356   */\n      0x00\n        /* \"#utility.yul\":8390:8392   */\n      0x20\n        /* \"#utility.yul\":8379:8388   */\n      dup3\n        /* \"#utility.yul\":8375:8393   */\n      add\n        /* \"#utility.yul\":8367:8393   */\n      swap1\n      pop\n        /* \"#utility.yul\":8403:8474   */\n      tag_292\n        /* \"#utility.yul\":8471:8472   */\n      0x00\n        /* \"#utility.yul\":8460:8469   */\n      dup4\n        /* \"#utility.yul\":8456:8473   */\n      add\n        /* \"#utility.yul\":8447:8453   */\n      dup5\n        /* \"#utility.yul\":8403:8474   */\n      tag_161\n      jump\t// in\n    tag_292:\n        /* \"#utility.yul\":8259:8481   */\n      swap3\n      swap2\n      pop\n      pop\n      jump\t// out\n        /* \"#utility.yul\":8487:8667   */\n    tag_162:\n        /* \"#utility.yul\":8627:8659   */\n      0x50617274697461206469204c61747465206e6f6e2070726573656e7465210000\n        /* \"#utility.yul\":8623:8624   */\n      0x00\n        /* \"#utility.yul\":8615:8621   */\n      dup3\n        /* \"#utility.yul\":8611:8625   */\n      add\n        /* \"#utility.yul\":8604:8660   */\n      mstore\n        /* \"#utility.yul\":8487:8667   */\n      pop\n      jump\t// out\n        /* \"#utility.yul\":8673:9039   */\n    tag_163:\n        /* \"#utility.yul\":8815:8818   */\n      0x00\n        /* \"#utility.yul\":8836:8903   */\n      tag_295\n        /* \"#utility.yul\":8900:8902   */\n      0x1e\n        /* \"#utility.yul\":8895:8898   */\n      dup4\n        /* \"#utility.yul\":8836:8903   */\n      tag_158\n      jump\t// in\n    tag_295:\n        /* \"#utility.yul\":8829:8903   */\n      swap2\n      pop\n        /* \"#utility.yul\":8912:9005   */\n      tag_296\n        /* \"#utility.yul\":9001:9004   */\n      dup3\n        /* \"#utility.yul\":8912:9005   */\n      tag_162\n      jump\t// in\n    tag_296:\n        /* \"#utility.yul\":9030:9032   */\n      0x20\n        /* \"#utility.yul\":9025:9028   */\n      dup3\n        /* \"#utility.yul\":9021:9033   */\n      add\n        /* \"#utility.yul\":9014:9033   */\n      swap1\n      pop\n        /* \"#utility.yul\":8673:9039   */\n      swap2\n      swap1\n      pop\n      jump\t// out\n        /* \"#utility.yul\":9045:9464   */\n    tag_59:\n        /* \"#utility.yul\":9211:9215   */\n      0x00\n        /* \"#utility.yul\":9249:9251   */\n      0x20\n        /* \"#utility.yul\":9238:9247   */\n      dup3\n        /* \"#utility.yul\":9234:9252   */\n      add\n        /* \"#utility.yul\":9226:9252   */\n      swap1\n      pop\n        /* \"#utility.yul\":9298:9307   */\n      dup2\n        /* \"#utility.yul\":9292:9296   */\n      dup2\n        /* \"#utility.yul\":9288:9308   */\n      sub\n        /* \"#utility.yul\":9284:9285   */\n      0x00\n        /* \"#utility.yul\":9273:9282   */\n      dup4\n        /* \"#utility.yul\":9269:9286   */\n      add\n        /* \"#utility.yul\":9262:9309   */\n      mstore\n        /* \"#utility.yul\":9326:9457   */\n      tag_298\n        /* \"#utility.yul\":9452:9456   */\n      dup2\n        /* \"#utility.yul\":9326:9457   */\n      tag_163\n      jump\t// in\n    tag_298:\n        /* \"#utility.yul\":9318:9457   */\n      swap1\n      pop\n        /* \"#utility.yul\":9045:9464   */\n      swap2\n      swap1\n      pop\n      jump\t// out\n        /* \"#utility.yul\":9470:9650   */\n    tag_164:\n        /* \"#utility.yul\":9518:9595   */\n      0x4e487b7100000000000000000000000000000000000000000000000000000000\n        /* \"#utility.yul\":9515:9516   */\n      0x00\n        /* \"#utility.yul\":9508:9596   */\n      mstore\n        /* \"#utility.yul\":9615:9619   */\n      0x22\n        /* \"#utility.yul\":9612:9613   */\n      0x04\n        /* \"#utility.yul\":9605:9620   */\n      mstore\n        /* \"#utility.yul\":9639:9643   */\n      0x24\n        /* \"#utility.yul\":9636:9637   */\n      0x00\n        /* \"#utility.yul\":9629:9644   */\n      revert\n        /* \"#utility.yul\":9656:9976   */\n    tag_61:\n        /* \"#utility.yul\":9700:9706   */\n      0x00\n        /* \"#utility.yul\":9737:9738   */\n      0x02\n        /* \"#utility.yul\":9731:9735   */\n      dup3\n        /* \"#utility.yul\":9727:9739   */\n      div\n        /* \"#utility.yul\":9717:9739   */\n      swap1\n      pop\n        /* \"#utility.yul\":9784:9785   */\n      0x01\n        /* \"#utility.yul\":9778:9782   */\n      dup3\n        /* \"#utility.yul\":9774:9786   */\n      and\n        /* \"#utility.yul\":9805:9823   */\n      dup1\n        /* \"#utility.yul\":9795:9876   */\n      tag_301\n      jumpi\n        /* \"#utility.yul\":9861:9865   */\n      0x7f\n        /* \"#utility.yul\":9853:9859   */\n      dup3\n        /* \"#utility.yul\":9849:9866   */\n      and\n        /* \"#utility.yul\":9839:9866   */\n      swap2\n      pop\n        /* \"#utility.yul\":9795:9876   */\n    tag_301:\n        /* \"#utility.yul\":9923:9925   */\n      0x20\n        /* \"#utility.yul\":9915:9921   */\n      dup3\n        /* \"#utility.yul\":9912:9926   */\n      lt\n        /* \"#utility.yul\":9892:9910   */\n      dup2\n        /* \"#utility.yul\":9889:9927   */\n      sub\n        /* \"#utility.yul\":9886:9970   */\n      tag_302\n      jumpi\n        /* \"#utility.yul\":9942:9960   */\n      tag_303\n      tag_164\n      jump\t// in\n    tag_303:\n        /* \"#utility.yul\":9886:9970   */\n    tag_302:\n        /* \"#utility.yul\":9707:9976   */\n      pop\n        /* \"#utility.yul\":9656:9976   */\n      swap2\n      swap1\n      pop\n      jump\t// out\n        /* \"#utility.yul\":9982:10204   */\n    tag_165:\n        /* \"#utility.yul\":10122:10156   */\n      0x5175616e746974612720696e736572697461206e6f6e20646973706f6e696269\n        /* \"#utility.yul\":10118:10119   */\n      0x00\n        /* \"#utility.yul\":10110:10116   */\n      dup3\n        /* \"#utility.yul\":10106:10120   */\n      add\n        /* \"#utility.yul\":10099:10157   */\n      mstore\n        /* \"#utility.yul\":10191:10196   */\n      0x6c65210000000000000000000000000000000000000000000000000000000000\n        /* \"#utility.yul\":10186:10188   */\n      0x20\n        /* \"#utility.yul\":10178:10184   */\n      dup3\n        /* \"#utility.yul\":10174:10189   */\n      add\n        /* \"#utility.yul\":10167:10197   */\n      mstore\n        /* \"#utility.yul\":9982:10204   */\n      pop\n      jump\t// out\n        /* \"#utility.yul\":10210:10576   */\n    tag_166:\n        /* \"#utility.yul\":10352:10355   */\n      0x00\n        /* \"#utility.yul\":10373:10440   */\n      tag_306\n        /* \"#utility.yul\":10437:10439   */\n      0x23\n        /* \"#utility.yul\":10432:10435   */\n      dup4\n        /* \"#utility.yul\":10373:10440   */\n      tag_158\n      jump\t// in\n    tag_306:\n        /* \"#utility.yul\":10366:10440   */\n      swap2\n      pop\n        /* \"#utility.yul\":10449:10542   */\n      tag_307\n        /* \"#utility.yul\":10538:10541   */\n      dup3\n        /* \"#utility.yul\":10449:10542   */\n      tag_165\n      jump\t// in\n    tag_307:\n        /* \"#utility.yul\":10567:10569   */\n      0x40\n        /* \"#utility.yul\":10562:10565   */\n      dup3\n        /* \"#utility.yul\":10558:10570   */\n      add\n        /* \"#utility.yul\":10551:10570   */\n      swap1\n      pop\n        /* \"#utility.yul\":10210:10576   */\n      swap2\n      swap1\n      pop\n      jump\t// out\n        /* \"#utility.yul\":10582:11001   */\n    tag_71:\n        /* \"#utility.yul\":10748:10752   */\n      0x00\n        /* \"#utility.yul\":10786:10788   */\n      0x20\n        /* \"#utility.yul\":10775:10784   */\n      dup3\n        /* \"#utility.yul\":10771:10789   */\n      add\n        /* \"#utility.yul\":10763:10789   */\n      swap1\n      pop\n        /* \"#utility.yul\":10835:10844   */\n      dup2\n        /* \"#utility.yul\":10829:10833   */\n      dup2\n        /* \"#utility.yul\":10825:10845   */\n      sub\n        /* \"#utility.yul\":10821:10822   */\n      0x00\n        /* \"#utility.yul\":10810:10819   */\n      dup4\n        /* \"#utility.yul\":10806:10823   */\n      add\n        /* \"#utility.yul\":10799:10846   */\n      mstore\n        /* \"#utility.yul\":10863:10994   */\n      tag_309\n        /* \"#utility.yul\":10989:10993   */\n      dup2\n        /* \"#utility.yul\":10863:10994   */\n      tag_166\n      jump\t// in\n    tag_309:\n        /* \"#utility.yul\":10855:10994   */\n      swap1\n      pop\n        /* \"#utility.yul\":10582:11001   */\n      swap2\n      swap1\n      pop\n      jump\t// out\n        /* \"#utility.yul\":11007:11187   */\n    tag_167:\n        /* \"#utility.yul\":11055:11132   */\n      0x4e487b7100000000000000000000000000000000000000000000000000000000\n        /* \"#utility.yul\":11052:11053   */\n      0x00\n        /* \"#utility.yul\":11045:11133   */\n      mstore\n        /* \"#utility.yul\":11152:11156   */\n      0x11\n        /* \"#utility.yul\":11149:11150   */\n      0x04\n        /* \"#utility.yul\":11142:11157   */\n      mstore\n        /* \"#utility.yul\":11176:11180   */\n      0x24\n        /* \"#utility.yul\":11173:11174   */\n      0x00\n        /* \"#utility.yul\":11166:11181   */\n      revert\n        /* \"#utility.yul\":11193:11387   */\n    tag_73:\n        /* \"#utility.yul\":11233:11237   */\n      0x00\n        /* \"#utility.yul\":11253:11273   */\n      tag_312\n        /* \"#utility.yul\":11271:11272   */\n      dup3\n        /* \"#utility.yul\":11253:11273   */\n      tag_141\n      jump\t// in\n    tag_312:\n        /* \"#utility.yul\":11248:11273   */\n      swap2\n      pop\n        /* \"#utility.yul\":11287:11307   */\n      tag_313\n        /* \"#utility.yul\":11305:11306   */\n      dup4\n        /* \"#utility.yul\":11287:11307   */\n      tag_141\n      jump\t// in\n    tag_313:\n        /* \"#utility.yul\":11282:11307   */\n      swap3\n      pop\n        /* \"#utility.yul\":11331:11332   */\n      dup3\n        /* \"#utility.yul\":11328:11329   */\n      dup3\n        /* \"#utility.yul\":11324:11333   */\n      sub\n        /* \"#utility.yul\":11316:11333   */\n      swap1\n      pop\n        /* \"#utility.yul\":11355:11356   */\n      dup2\n        /* \"#utility.yul\":11349:11353   */\n      dup2\n        /* \"#utility.yul\":11346:11357   */\n      gt\n        /* \"#utility.yul\":11343:11380   */\n      iszero\n      tag_314\n      jumpi\n        /* \"#utility.yul\":11360:11378   */\n      tag_315\n      tag_167\n      jump\t// in\n    tag_315:\n        /* \"#utility.yul\":11343:11380   */\n    tag_314:\n        /* \"#utility.yul\":11193:11387   */\n      swap3\n      swap2\n      pop\n      pop\n      jump\t// out\n        /* \"#utility.yul\":11393:11541   */\n    tag_168:\n        /* \"#utility.yul\":11495:11506   */\n      0x00\n        /* \"#utility.yul\":11532:11535   */\n      dup2\n        /* \"#utility.yul\":11517:11535   */\n      swap1\n      pop\n        /* \"#utility.yul\":11393:11541   */\n      swap3\n      swap2\n      pop\n      pop\n      jump\t// out\n        /* \"#utility.yul\":11547:11937   */\n    tag_169:\n        /* \"#utility.yul\":11653:11656   */\n      0x00\n        /* \"#utility.yul\":11681:11720   */\n      tag_318\n        /* \"#utility.yul\":11714:11719   */\n      dup3\n        /* \"#utility.yul\":11681:11720   */\n      tag_157\n      jump\t// in\n    tag_318:\n        /* \"#utility.yul\":11736:11825   */\n      tag_319\n        /* \"#utility.yul\":11818:11824   */\n      dup2\n        /* \"#utility.yul\":11813:11816   */\n      dup6\n        /* \"#utility.yul\":11736:11825   */\n      tag_168\n      jump\t// in\n    tag_319:\n        /* \"#utility.yul\":11729:11825   */\n      swap4\n      pop\n        /* \"#utility.yul\":11834:11899   */\n      tag_320\n        /* \"#utility.yul\":11892:11898   */\n      dup2\n        /* \"#utility.yul\":11887:11890   */\n      dup6\n        /* \"#utility.yul\":11880:11884   */\n      0x20\n        /* \"#utility.yul\":11873:11878   */\n      dup7\n        /* \"#utility.yul\":11869:11885   */\n      add\n        /* \"#utility.yul\":11834:11899   */\n      tag_159\n      jump\t// in\n    tag_320:\n        /* \"#utility.yul\":11924:11930   */\n      dup1\n        /* \"#utility.yul\":11919:11922   */\n      dup5\n        /* \"#utility.yul\":11915:11931   */\n      add\n        /* \"#utility.yul\":11908:11931   */\n      swap2\n      pop\n        /* \"#utility.yul\":11657:11937   */\n      pop\n        /* \"#utility.yul\":11547:11937   */\n      swap3\n      swap2\n      pop\n      pop\n      jump\t// out\n        /* \"#utility.yul\":11943:12022   */\n    tag_170:\n        /* \"#utility.yul\":11982:11989   */\n      0x00\n        /* \"#utility.yul\":12011:12016   */\n      dup2\n        /* \"#utility.yul\":12000:12016   */\n      swap1\n      pop\n        /* \"#utility.yul\":11943:12022   */\n      swap2\n      swap1\n      pop\n      jump\t// out\n        /* \"#utility.yul\":12028:12185   */\n    tag_171:\n        /* \"#utility.yul\":12133:12178   */\n      tag_323\n        /* \"#utility.yul\":12153:12177   */\n      tag_324\n        /* \"#utility.yul\":12171:12176   */\n      dup3\n        /* \"#utility.yul\":12153:12177   */\n      tag_141\n      jump\t// in\n    tag_324:\n        /* \"#utility.yul\":12133:12178   */\n      tag_170\n      jump\t// in\n    tag_323:\n        /* \"#utility.yul\":12128:12131   */\n      dup3\n        /* \"#utility.yul\":12121:12179   */\n      mstore\n        /* \"#utility.yul\":12028:12185   */\n      pop\n      pop\n      jump\t// out\n        /* \"#utility.yul\":12191:12285   */\n    tag_172:\n        /* \"#utility.yul\":12224:12232   */\n      0x00\n        /* \"#utility.yul\":12272:12277   */\n      dup2\n        /* \"#utility.yul\":12268:12270   */\n      0x60\n        /* \"#utility.yul\":12264:12278   */\n      shl\n        /* \"#utility.yul\":12243:12278   */\n      swap1\n      pop\n        /* \"#utility.yul\":12191:12285   */\n      swap2\n      swap1\n      pop\n      jump\t// out\n        /* \"#utility.yul\":12291:12385   */\n    tag_173:\n        /* \"#utility.yul\":12330:12337   */\n      0x00\n        /* \"#utility.yul\":12359:12379   */\n      tag_327\n        /* \"#utility.yul\":12373:12378   */\n      dup3\n        /* \"#utility.yul\":12359:12379   */\n      tag_172\n      jump\t// in\n    tag_327:\n        /* \"#utility.yul\":12348:12379   */\n      swap1\n      pop\n        /* \"#utility.yul\":12291:12385   */\n      swap2\n      swap1\n      pop\n      jump\t// out\n        /* \"#utility.yul\":12391:12491   */\n    tag_174:\n        /* \"#utility.yul\":12430:12437   */\n      0x00\n        /* \"#utility.yul\":12459:12485   */\n      tag_329\n        /* \"#utility.yul\":12479:12484   */\n      dup3\n        /* \"#utility.yul\":12459:12485   */\n      tag_173\n      jump\t// in\n    tag_329:\n        /* \"#utility.yul\":12448:12485   */\n      swap1\n      pop\n        /* \"#utility.yul\":12391:12491   */\n      swap2\n      swap1\n      pop\n      jump\t// out\n        /* \"#utility.yul\":12497:12654   */\n    tag_175:\n        /* \"#utility.yul\":12602:12647   */\n      tag_331\n        /* \"#utility.yul\":12622:12646   */\n      tag_332\n        /* \"#utility.yul\":12640:12645   */\n      dup3\n        /* \"#utility.yul\":12622:12646   */\n      tag_138\n      jump\t// in\n    tag_332:\n        /* \"#utility.yul\":12602:12647   */\n      tag_174\n      jump\t// in\n    tag_331:\n        /* \"#utility.yul\":12597:12600   */\n      dup3\n        /* \"#utility.yul\":12590:12648   */\n      mstore\n        /* \"#utility.yul\":12497:12654   */\n      pop\n      pop\n      jump\t// out\n        /* \"#utility.yul\":12660:13358   */\n    tag_76:\n        /* \"#utility.yul\":12876:12879   */\n      0x00\n        /* \"#utility.yul\":12898:12993   */\n      tag_334\n        /* \"#utility.yul\":12989:12992   */\n      dup3\n        /* \"#utility.yul\":12980:12986   */\n      dup8\n        /* \"#utility.yul\":12898:12993   */\n      tag_169\n      jump\t// in\n    tag_334:\n        /* \"#utility.yul\":12891:12993   */\n      swap2\n      pop\n        /* \"#utility.yul\":13003:13078   */\n      tag_335\n        /* \"#utility.yul\":13074:13077   */\n      dup3\n        /* \"#utility.yul\":13065:13071   */\n      dup7\n        /* \"#utility.yul\":13003:13078   */\n      tag_171\n      jump\t// in\n    tag_335:\n        /* \"#utility.yul\":13103:13105   */\n      0x20\n        /* \"#utility.yul\":13098:13101   */\n      dup3\n        /* \"#utility.yul\":13094:13106   */\n      add\n        /* \"#utility.yul\":13087:13106   */\n      swap2\n      pop\n        /* \"#utility.yul\":13116:13191   */\n      tag_336\n        /* \"#utility.yul\":13187:13190   */\n      dup3\n        /* \"#utility.yul\":13178:13184   */\n      dup6\n        /* \"#utility.yul\":13116:13191   */\n      tag_175\n      jump\t// in\n    tag_336:\n        /* \"#utility.yul\":13216:13218   */\n      0x14\n        /* \"#utility.yul\":13211:13214   */\n      dup3\n        /* \"#utility.yul\":13207:13219   */\n      add\n        /* \"#utility.yul\":13200:13219   */\n      swap2\n      pop\n        /* \"#utility.yul\":13229:13304   */\n      tag_337\n        /* \"#utility.yul\":13300:13303   */\n      dup3\n        /* \"#utility.yul\":13291:13297   */\n      dup5\n        /* \"#utility.yul\":13229:13304   */\n      tag_175\n      jump\t// in\n    tag_337:\n        /* \"#utility.yul\":13329:13331   */\n      0x14\n        /* \"#utility.yul\":13324:13327   */\n      dup3\n        /* \"#utility.yul\":13320:13332   */\n      add\n        /* \"#utility.yul\":13313:13332   */\n      swap2\n      pop\n        /* \"#utility.yul\":13349:13352   */\n      dup2\n        /* \"#utility.yul\":13342:13352   */\n      swap1\n      pop\n        /* \"#utility.yul\":12660:13358   */\n      swap6\n      swap5\n      pop\n      pop\n      pop\n      pop\n      pop\n      jump\t// out\n        /* \"#utility.yul\":13364:13545   */\n    tag_176:\n        /* \"#utility.yul\":13504:13537   */\n      0x50617274697461206469204c6174746520676961272070726573656e74652100\n        /* \"#utility.yul\":13500:13501   */\n      0x00\n        /* \"#utility.yul\":13492:13498   */\n      dup3\n        /* \"#utility.yul\":13488:13502   */\n      add\n        /* \"#utility.yul\":13481:13538   */\n      mstore\n        /* \"#utility.yul\":13364:13545   */\n      pop\n      jump\t// out\n        /* \"#utility.yul\":13551:13917   */\n    tag_177:\n        /* \"#utility.yul\":13693:13696   */\n      0x00\n        /* \"#utility.yul\":13714:13781   */\n      tag_340\n        /* \"#utility.yul\":13778:13780   */\n      0x1f\n        /* \"#utility.yul\":13773:13776   */\n      dup4\n        /* \"#utility.yul\":13714:13781   */\n      tag_158\n      jump\t// in\n    tag_340:\n        /* \"#utility.yul\":13707:13781   */\n      swap2\n      pop\n        /* \"#utility.yul\":13790:13883   */\n      tag_341\n        /* \"#utility.yul\":13879:13882   */\n      dup3\n        /* \"#utility.yul\":13790:13883   */\n      tag_176\n      jump\t// in\n    tag_341:\n        /* \"#utility.yul\":13908:13910   */\n      0x20\n        /* \"#utility.yul\":13903:13906   */\n      dup3\n        /* \"#utility.yul\":13899:13911   */\n      add\n        /* \"#utility.yul\":13892:13911   */\n      swap1\n      pop\n        /* \"#utility.yul\":13551:13917   */\n      swap2\n      swap1\n      pop\n      jump\t// out\n        /* \"#utility.yul\":13923:14342   */\n    tag_79:\n        /* \"#utility.yul\":14089:14093   */\n      0x00\n        /* \"#utility.yul\":14127:14129   */\n      0x20\n        /* \"#utility.yul\":14116:14125   */\n      dup3\n        /* \"#utility.yul\":14112:14130   */\n      add\n        /* \"#utility.yul\":14104:14130   */\n      swap1\n      pop\n        /* \"#utility.yul\":14176:14185   */\n      dup2\n        /* \"#utility.yul\":14170:14174   */\n      dup2\n        /* \"#utility.yul\":14166:14186   */\n      sub\n        /* \"#utility.yul\":14162:14163   */\n      0x00\n        /* \"#utility.yul\":14151:14160   */\n      dup4\n        /* \"#utility.yul\":14147:14164   */\n      add\n        /* \"#utility.yul\":14140:14187   */\n      mstore\n        /* \"#utility.yul\":14204:14335   */\n      tag_343\n        /* \"#utility.yul\":14330:14334   */\n      dup2\n        /* \"#utility.yul\":14204:14335   */\n      tag_177\n      jump\t// in\n    tag_343:\n        /* \"#utility.yul\":14196:14335   */\n      swap1\n      pop\n        /* \"#utility.yul\":13923:14342   */\n      swap2\n      swap1\n      pop\n      jump\t// out\n        /* \"#utility.yul\":14348:14489   */\n    tag_178:\n        /* \"#utility.yul\":14397:14401   */\n      0x00\n        /* \"#utility.yul\":14420:14423   */\n      dup2\n        /* \"#utility.yul\":14412:14423   */\n      swap1\n      pop\n        /* \"#utility.yul\":14443:14446   */\n      dup2\n        /* \"#utility.yul\":14440:14441   */\n      0x00\n        /* \"#utility.yul\":14433:14447   */\n      mstore\n        /* \"#utility.yul\":14477:14481   */\n      0x20\n        /* \"#utility.yul\":14474:14475   */\n      0x00\n        /* \"#utility.yul\":14464:14482   */\n      keccak256\n        /* \"#utility.yul\":14456:14482   */\n      swap1\n      pop\n        /* \"#utility.yul\":14348:14489   */\n      swap2\n      swap1\n      pop\n      jump\t// out\n        /* \"#utility.yul\":14495:14588   */\n    tag_179:\n        /* \"#utility.yul\":14532:14538   */\n      0x00\n        /* \"#utility.yul\":14579:14581   */\n      0x20\n        /* \"#utility.yul\":14574:14576   */\n      0x1f\n        /* \"#utility.yul\":14567:14572   */\n      dup4\n        /* \"#utility.yul\":14563:14577   */\n      add\n        /* \"#utility.yul\":14559:14582   */\n      div\n        /* \"#utility.yul\":14549:14582   */\n      swap1\n      pop\n        /* \"#utility.yul\":14495:14588   */\n      swap2\n      swap1\n      pop\n      jump\t// out\n        /* \"#utility.yul\":14594:14701   */\n    tag_180:\n        /* \"#utility.yul\":14638:14646   */\n      0x00\n        /* \"#utility.yul\":14688:14693   */\n      dup3\n        /* \"#utility.yul\":14682:14686   */\n      dup3\n        /* \"#utility.yul\":14678:14694   */\n      shl\n        /* \"#utility.yul\":14657:14694   */\n      swap1\n      pop\n        /* \"#utility.yul\":14594:14701   */\n      swap3\n      swap2\n      pop\n      pop\n      jump\t// out\n        /* \"#utility.yul\":14707:15100   */\n    tag_181:\n        /* \"#utility.yul\":14776:14782   */\n      0x00\n        /* \"#utility.yul\":14826:14827   */\n      0x08\n        /* \"#utility.yul\":14814:14824   */\n      dup4\n        /* \"#utility.yul\":14810:14828   */\n      mul\n        /* \"#utility.yul\":14849:14946   */\n      tag_348\n        /* \"#utility.yul\":14879:14945   */\n      0xffffffffffffffffffffffffffffffffffffffffffffffffffffffffffffffff\n        /* \"#utility.yul\":14868:14877   */\n      dup3\n        /* \"#utility.yul\":14849:14946   */\n      tag_180\n      jump\t// in\n    tag_348:\n        /* \"#utility.yul\":14967:15006   */\n      tag_349\n        /* \"#utility.yul\":14997:15005   */\n      dup7\n        /* \"#utility.yul\":14986:14995   */\n      dup4\n        /* \"#utility.yul\":14967:15006   */\n      tag_180\n      jump\t// in\n    tag_349:\n        /* \"#utility.yul\":14955:15006   */\n      swap6\n      pop\n        /* \"#utility.yul\":15039:15043   */\n      dup1\n        /* \"#utility.yul\":15035:15044   */\n      not\n        /* \"#utility.yul\":15028:15033   */\n      dup5\n        /* \"#utility.yul\":15024:15045   */\n      and\n        /* \"#utility.yul\":15015:15045   */\n      swap4\n      pop\n        /* \"#utility.yul\":15088:15092   */\n      dup1\n        /* \"#utility.yul\":15078:15086   */\n      dup7\n        /* \"#utility.yul\":15074:15093   */\n      and\n        /* \"#utility.yul\":15067:15072   */\n      dup5\n        /* \"#utility.yul\":15064:15094   */\n      or\n        /* \"#utility.yul\":15054:15094   */\n      swap3\n      pop\n        /* \"#utility.yul\":14783:15100   */\n      pop\n      pop\n        /* \"#utility.yul\":14707:15100   */\n      swap4\n      swap3\n      pop\n      pop\n      pop\n      jump\t// out\n        /* \"#utility.yul\":15106:15166   */\n    tag_182:\n        /* \"#utility.yul\":15134:15137   */\n      0x00\n        /* \"#utility.yul\":15155:15160   */\n      dup2\n        /* \"#utility.yul\":15148:15160   */\n      swap1\n      pop\n        /* \"#utility.yul\":15106:15166   */\n      swap2\n      swap1\n      pop\n      jump\t// out\n        /* \"#utility.yul\":15172:15314   */\n    tag_183:\n        /* \"#utility.yul\":15222:15231   */\n      0x00\n        /* \"#utility.yul\":15255:15308   */\n      tag_352\n        /* \"#utility.yul\":15273:15307   */\n      tag_353\n        /* \"#utility.yul\":15282:15306   */\n      tag_354\n        /* \"#utility.yul\":15300:15305   */\n      dup5\n        /* \"#utility.yul\":15282:15306   */\n      tag_141\n      jump\t// in\n    tag_354:\n        /* \"#utility.yul\":15273:15307   */\n      tag_182\n      jump\t// in\n    tag_353:\n        /* \"#utility.yul\":15255:15308   */\n      tag_141\n      jump\t// in\n    tag_352:\n        /* \"#utility.yul\":15242:15308   */\n      swap1\n      pop\n        /* \"#utility.yul\":15172:15314   */\n      swap2\n      swap1\n      pop\n      jump\t// out\n        /* \"#utility.yul\":15320:15395   */\n    tag_184:\n        /* \"#utility.yul\":15363:15366   */\n      0x00\n        /* \"#utility.yul\":15384:15389   */\n      dup2\n        /* \"#utility.yul\":15377:15389   */\n      swap1\n      pop\n        /* \"#utility.yul\":15320:15395   */\n      swap2\n      swap1\n      pop\n      jump\t// out\n        /* \"#utility.yul\":15401:15670   */\n    tag_185:\n        /* \"#utility.yul\":15511:15550   */\n      tag_357\n        /* \"#utility.yul\":15542:15549   */\n      dup4\n        /* \"#utility.yul\":15511:15550   */\n      tag_183\n      jump\t// in\n    tag_357:\n        /* \"#utility.yul\":15572:15663   */\n      tag_358\n        /* \"#utility.yul\":15621:15662   */\n      tag_359\n        /* \"#utility.yul\":15645:15661   */\n      dup3\n        /* \"#utility.yul\":15621:15662   */\n      tag_184\n      jump\t// in\n    tag_359:\n        /* \"#utility.yul\":15613:15619   */\n      dup5\n        /* \"#utility.yul\":15606:15610   */\n      dup5\n        /* \"#utility.yul\":15600:15611   */\n      sload\n        /* \"#utility.yul\":15572:15663   */\n      tag_181\n      jump\t// in\n    tag_358:\n        /* \"#utility.yul\":15566:15570   */\n      dup3\n        /* \"#utility.yul\":15559:15664   */\n      sstore\n        /* \"#utility.yul\":15477:15670   */\n      pop\n        /* \"#utility.yul\":15401:15670   */\n      pop\n      pop\n      pop\n      jump\t// out\n        /* \"#utility.yul\":15676:15749   */\n    tag_186:\n        /* \"#utility.yul\":15721:15724   */\n      0x00\n        /* \"#utility.yul\":15676:15749   */\n      swap1\n      jump\t// out\n        /* \"#utility.yul\":15755:15944   */\n    tag_187:\n        /* \"#utility.yul\":15832:15864   */\n      tag_362\n      tag_186\n      jump\t// in\n    tag_362:\n        /* \"#utility.yul\":15873:15938   */\n      tag_363\n        /* \"#utility.yul\":15931:15937   */\n      dup2\n        /* \"#utility.yul\":15923:15929   */\n      dup5\n        /* \"#utility.yul\":15917:15921   */\n      dup5\n        /* \"#utility.yul\":15873:15938   */\n      tag_185\n      jump\t// in\n    tag_363:\n        /* \"#utility.yul\":15808:15944   */\n      pop\n        /* \"#utility.yul\":15755:15944   */\n      pop\n      pop\n      jump\t// out\n        /* \"#utility.yul\":15950:16136   */\n    tag_188:\n        /* \"#utility.yul\":16010:16130   */\n    tag_365:\n        /* \"#utility.yul\":16027:16030   */\n      dup2\n        /* \"#utility.yul\":16020:16025   */\n      dup2\n        /* \"#utility.yul\":16017:16031   */\n      lt\n        /* \"#utility.yul\":16010:16130   */\n      iszero\n      tag_367\n      jumpi\n        /* \"#utility.yul\":16081:16120   */\n      tag_368\n        /* \"#utility.yul\":16118:16119   */\n      0x00\n        /* \"#utility.yul\":16111:16116   */\n      dup3\n        /* \"#utility.yul\":16081:16120   */\n      tag_187\n      jump\t// in\n    tag_368:\n        /* \"#utility.yul\":16054:16055   */\n      0x01\n        /* \"#utility.yul\":16047:16052   */\n      dup2\n        /* \"#utility.yul\":16043:16056   */\n      add\n        /* \"#utility.yul\":16034:16056   */\n      swap1\n      pop\n        /* \"#utility.yul\":16010:16130   */\n      jump(tag_365)\n    tag_367:\n        /* \"#utility.yul\":15950:16136   */\n      pop\n      pop\n      jump\t// out\n        /* \"#utility.yul\":16142:16685   */\n    tag_189:\n        /* \"#utility.yul\":16243:16245   */\n      0x1f\n        /* \"#utility.yul\":16238:16241   */\n      dup3\n        /* \"#utility.yul\":16235:16246   */\n      gt\n        /* \"#utility.yul\":16232:16678   */\n      iszero\n      tag_370\n      jumpi\n        /* \"#utility.yul\":16277:16315   */\n      tag_371\n        /* \"#utility.yul\":16309:16314   */\n      dup2\n        /* \"#utility.yul\":16277:16315   */\n      tag_178\n      jump\t// in\n    tag_371:\n        /* \"#utility.yul\":16361:16390   */\n      tag_372\n        /* \"#utility.yul\":16379:16389   */\n      dup5\n        /* \"#utility.yul\":16361:16390   */\n      tag_179\n      jump\t// in\n    tag_372:\n        /* \"#utility.yul\":16351:16359   */\n      dup2\n        /* \"#utility.yul\":16347:16391   */\n      add\n        /* \"#utility.yul\":16544:16546   */\n      0x20\n        /* \"#utility.yul\":16532:16542   */\n      dup6\n        /* \"#utility.yul\":16529:16547   */\n      lt\n        /* \"#utility.yul\":16526:16575   */\n      iszero\n      tag_373\n      jumpi\n        /* \"#utility.yul\":16565:16573   */\n      dup2\n        /* \"#utility.yul\":16550:16573   */\n      swap1\n      pop\n        /* \"#utility.yul\":16526:16575   */\n    tag_373:\n        /* \"#utility.yul\":16588:16668   */\n      tag_374\n        /* \"#utility.yul\":16644:16666   */\n      tag_375\n        /* \"#utility.yul\":16662:16665   */\n      dup6\n        /* \"#utility.yul\":16644:16666   */\n      tag_179\n      jump\t// in\n    tag_375:\n        /* \"#utility.yul\":16634:16642   */\n      dup4\n        /* \"#utility.yul\":16630:16667   */\n      add\n        /* \"#utility.yul\":16617:16628   */\n      dup3\n        /* \"#utility.yul\":16588:16668   */\n      tag_188\n      jump\t// in\n    tag_374:\n        /* \"#utility.yul\":16247:16678   */\n      pop\n      pop\n        /* \"#utility.yul\":16232:16678   */\n    tag_370:\n        /* \"#utility.yul\":16142:16685   */\n      pop\n      pop\n      pop\n      jump\t// out\n        /* \"#utility.yul\":16691:16808   */\n    tag_190:\n        /* \"#utility.yul\":16745:16753   */\n      0x00\n        /* \"#utility.yul\":16795:16800   */\n      dup3\n        /* \"#utility.yul\":16789:16793   */\n      dup3\n        /* \"#utility.yul\":16785:16801   */\n      shr\n        /* \"#utility.yul\":16764:16801   */\n      swap1\n      pop\n        /* \"#utility.yul\":16691:16808   */\n      swap3\n      swap2\n      pop\n      pop\n      jump\t// out\n        /* \"#utility.yul\":16814:16983   */\n    tag_191:\n        /* \"#utility.yul\":16858:16864   */\n      0x00\n        /* \"#utility.yul\":16891:16942   */\n      tag_378\n        /* \"#utility.yul\":16939:16940   */\n      0x00\n        /* \"#utility.yul\":16935:16941   */\n      not\n        /* \"#utility.yul\":16927:16932   */\n      dup5\n        /* \"#utility.yul\":16924:16925   */\n      0x08\n        /* \"#utility.yul\":16920:16933   */\n      mul\n        /* \"#utility.yul\":16891:16942   */\n      tag_190\n      jump\t// in\n    tag_378:\n        /* \"#utility.yul\":16887:16943   */\n      not\n        /* \"#utility.yul\":16972:16976   */\n      dup1\n        /* \"#utility.yul\":16966:16970   */\n      dup4\n        /* \"#utility.yul\":16962:16977   */\n      and\n        /* \"#utility.yul\":16952:16977   */\n      swap2\n      pop\n        /* \"#utility.yul\":16865:16983   */\n      pop\n        /* \"#utility.yul\":16814:16983   */\n      swap3\n      swap2\n      pop\n      pop\n      jump\t// out\n        /* \"#utility.yul\":16988:17283   */\n    tag_192:\n        /* \"#utility.yul\":17064:17068   */\n      0x00\n        /* \"#utility.yul\":17210:17239   */\n      tag_380\n        /* \"#utility.yul\":17235:17238   */\n      dup4\n        /* \"#utility.yul\":17229:17233   */\n      dup4\n        /* \"#utility.yul\":17210:17239   */\n      tag_191\n      jump\t// in\n    tag_380:\n        /* \"#utility.yul\":17202:17239   */\n      swap2\n      pop\n        /* \"#utility.yul\":17272:17275   */\n      dup3\n        /* \"#utility.yul\":17269:17270   */\n      0x02\n        /* \"#utility.yul\":17265:17276   */\n      mul\n        /* \"#utility.yul\":17259:17263   */\n      dup3\n        /* \"#utility.yul\":17256:17277   */\n      or\n        /* \"#utility.yul\":17248:17277   */\n      swap1\n      pop\n        /* \"#utility.yul\":16988:17283   */\n      swap3\n      swap2\n      pop\n      pop\n      jump\t// out\n        /* \"#utility.yul\":17288:18683   */\n    tag_81:\n        /* \"#utility.yul\":17405:17442   */\n      tag_382\n        /* \"#utility.yul\":17438:17441   */\n      dup3\n        /* \"#utility.yul\":17405:17442   */\n      tag_157\n      jump\t// in\n    tag_382:\n        /* \"#utility.yul\":17507:17525   */\n      0xffffffffffffffff\n        /* \"#utility.yul\":17499:17505   */\n      dup2\n        /* \"#utility.yul\":17496:17526   */\n      gt\n        /* \"#utility.yul\":17493:17549   */\n      iszero\n      tag_383\n      jumpi\n        /* \"#utility.yul\":17529:17547   */\n      tag_384\n      tag_150\n      jump\t// in\n    tag_384:\n        /* \"#utility.yul\":17493:17549   */\n    tag_383:\n        /* \"#utility.yul\":17573:17611   */\n      tag_385\n        /* \"#utility.yul\":17605:17609   */\n      dup3\n        /* \"#utility.yul\":17599:17610   */\n      sload\n        /* \"#utility.yul\":17573:17611   */\n      tag_61\n      jump\t// in\n    tag_385:\n        /* \"#utility.yul\":17658:17725   */\n      tag_386\n        /* \"#utility.yul\":17718:17724   */\n      dup3\n        /* \"#utility.yul\":17710:17716   */\n      dup3\n        /* \"#utility.yul\":17704:17708   */\n      dup6\n        /* \"#utility.yul\":17658:17725   */\n      tag_189\n      jump\t// in\n    tag_386:\n        /* \"#utility.yul\":17752:17753   */\n      0x00\n        /* \"#utility.yul\":17776:17780   */\n      0x20\n        /* \"#utility.yul\":17763:17780   */\n      swap1\n      pop\n        /* \"#utility.yul\":17808:17810   */\n      0x1f\n        /* \"#utility.yul\":17800:17806   */\n      dup4\n        /* \"#utility.yul\":17797:17811   */\n      gt\n        /* \"#utility.yul\":17825:17826   */\n      0x01\n        /* \"#utility.yul\":17820:18438   */\n      dup2\n      eq\n      tag_388\n      jumpi\n        /* \"#utility.yul\":18482:18483   */\n      0x00\n        /* \"#utility.yul\":18499:18505   */\n      dup5\n        /* \"#utility.yul\":18496:18573   */\n      iszero\n      tag_389\n      jumpi\n        /* \"#utility.yul\":18548:18557   */\n      dup3\n        /* \"#utility.yul\":18543:18546   */\n      dup8\n        /* \"#utility.yul\":18539:18558   */\n      add\n        /* \"#utility.yul\":18533:18559   */\n      mload\n        /* \"#utility.yul\":18524:18559   */\n      swap1\n      pop\n        /* \"#utility.yul\":18496:18573   */\n    tag_389:\n        /* \"#utility.yul\":18599:18666   */\n      tag_390\n        /* \"#utility.yul\":18659:18665   */\n      dup6\n        /* \"#utility.yul\":18652:18657   */\n      dup3\n        /* \"#utility.yul\":18599:18666   */\n      tag_192\n      jump\t// in\n    tag_390:\n        /* \"#utility.yul\":18593:18597   */\n      dup7\n        /* \"#utility.yul\":18586:18667   */\n      sstore\n        /* \"#utility.yul\":18455:18677   */\n      pop\n        /* \"#utility.yul\":17790:18677   */\n      jump(tag_387)\n        /* \"#utility.yul\":17820:18438   */\n    tag_388:\n        /* \"#utility.yul\":17872:17876   */\n      0x1f\n        /* \"#utility.yul\":17868:17877   */\n      not\n        /* \"#utility.yul\":17860:17866   */\n      dup5\n        /* \"#utility.yul\":17856:17878   */\n      and\n        /* \"#utility.yul\":17906:17943   */\n      tag_391\n        /* \"#utility.yul\":17938:17942   */\n      dup7\n        /* \"#utility.yul\":17906:17943   */\n      tag_178\n      jump\t// in\n    tag_391:\n        /* \"#utility.yul\":17965:17966   */\n      0x00\n        /* \"#utility.yul\":17979:18187   */\n    tag_392:\n        /* \"#utility.yul\":17993:18000   */\n      dup3\n        /* \"#utility.yul\":17990:17991   */\n      dup2\n        /* \"#utility.yul\":17987:18001   */\n      lt\n        /* \"#utility.yul\":17979:18187   */\n      iszero\n      tag_394\n      jumpi\n        /* \"#utility.yul\":18072:18081   */\n      dup5\n        /* \"#utility.yul\":18067:18070   */\n      dup10\n        /* \"#utility.yul\":18063:18082   */\n      add\n        /* \"#utility.yul\":18057:18083   */\n      mload\n        /* \"#utility.yul\":18049:18055   */\n      dup3\n        /* \"#utility.yul\":18042:18084   */\n      sstore\n        /* \"#utility.yul\":18123:18124   */\n      0x01\n        /* \"#utility.yul\":18115:18121   */\n      dup3\n        /* \"#utility.yul\":18111:18125   */\n      add\n        /* \"#utility.yul\":18101:18125   */\n      swap2\n      pop\n        /* \"#utility.yul\":18170:18172   */\n      0x20\n        /* \"#utility.yul\":18159:18168   */\n      dup6\n        /* \"#utility.yul\":18155:18173   */\n      add\n        /* \"#utility.yul\":18142:18173   */\n      swap5\n      pop\n        /* \"#utility.yul\":18016:18020   */\n      0x20\n        /* \"#utility.yul\":18013:18014   */\n      dup2\n        /* \"#utility.yul\":18009:18021   */\n      add\n        /* \"#utility.yul\":18004:18021   */\n      swap1\n      pop\n        /* \"#utility.yul\":17979:18187   */\n      jump(tag_392)\n    tag_394:\n        /* \"#utility.yul\":18215:18221   */\n      dup7\n        /* \"#utility.yul\":18206:18213   */\n      dup4\n        /* \"#utility.yul\":18203:18222   */\n      lt\n        /* \"#utility.yul\":18200:18379   */\n      iszero\n      tag_395\n      jumpi\n        /* \"#utility.yul\":18273:18282   */\n      dup5\n        /* \"#utility.yul\":18268:18271   */\n      dup10\n        /* \"#utility.yul\":18264:18283   */\n      add\n        /* \"#utility.yul\":18258:18284   */\n      mload\n        /* \"#utility.yul\":18316:18364   */\n      tag_396\n        /* \"#utility.yul\":18358:18362   */\n      0x1f\n        /* \"#utility.yul\":18350:18356   */\n      dup10\n        /* \"#utility.yul\":18346:18363   */\n      and\n        /* \"#utility.yul\":18335:18344   */\n      dup3\n        /* \"#utility.yul\":18316:18364   */\n      tag_191\n      jump\t// in\n    tag_396:\n        /* \"#utility.yul\":18308:18314   */\n      dup4\n        /* \"#utility.yul\":18301:18365   */\n      sstore\n        /* \"#utility.yul\":18223:18379   */\n      pop\n        /* \"#utility.yul\":18200:18379   */\n    tag_395:\n        /* \"#utility.yul\":18425:18426   */\n      0x01\n        /* \"#utility.yul\":18421:18422   */\n      0x02\n        /* \"#utility.yul\":18413:18419   */\n      dup9\n        /* \"#utility.yul\":18409:18423   */\n      mul\n        /* \"#utility.yul\":18405:18427   */\n      add\n        /* \"#utility.yul\":18399:18403   */\n      dup9\n        /* \"#utility.yul\":18392:18428   */\n      sstore\n        /* \"#utility.yul\":17827:18438   */\n      pop\n      pop\n      pop\n        /* \"#utility.yul\":17790:18677   */\n    tag_387:\n      pop\n        /* \"#utility.yul\":17380:18683   */\n      pop\n      pop\n      pop\n        /* \"#utility.yul\":17288:18683   */\n      pop\n      pop\n      jump\t// out\n        /* \"#utility.yul\":18689:18858   */\n    tag_193:\n        /* \"#utility.yul\":18829:18850   */\n      0x5175616e74697479206e6f742056616c69642100000000000000000000000000\n        /* \"#utility.yul\":18825:18826   */\n      0x00\n        /* \"#utility.yul\":18817:18823   */\n      dup3\n        /* \"#utility.yul\":18813:18827   */\n      add\n        /* \"#utility.yul\":18806:18851   */\n      mstore\n        /* \"#utility.yul\":18689:18858   */\n      pop\n      jump\t// out\n        /* \"#utility.yul\":18864:19230   */\n    tag_194:\n        /* \"#utility.yul\":19006:19009   */\n      0x00\n        /* \"#utility.yul\":19027:19094   */\n      tag_399\n        /* \"#utility.yul\":19091:19093   */\n      0x13\n        /* \"#utility.yul\":19086:19089   */\n      dup4\n        /* \"#utility.yul\":19027:19094   */\n      tag_158\n      jump\t// in\n    tag_399:\n        /* \"#utility.yul\":19020:19094   */\n      swap2\n      pop\n        /* \"#utility.yul\":19103:19196   */\n      tag_400\n        /* \"#utility.yul\":19192:19195   */\n      dup3\n        /* \"#utility.yul\":19103:19196   */\n      tag_193\n      jump\t// in\n    tag_400:\n        /* \"#utility.yul\":19221:19223   */\n      0x20\n        /* \"#utility.yul\":19216:19219   */\n      dup3\n        /* \"#utility.yul\":19212:19224   */\n      add\n        /* \"#utility.yul\":19205:19224   */\n      swap1\n      pop\n        /* \"#utility.yul\":18864:19230   */\n      swap2\n      swap1\n      pop\n      jump\t// out\n        /* \"#utility.yul\":19236:19655   */\n    tag_95:\n        /* \"#utility.yul\":19402:19406   */\n      0x00\n        /* \"#utility.yul\":19440:19442   */\n      0x20\n        /* \"#utility.yul\":19429:19438   */\n      dup3\n        /* \"#utility.yul\":19425:19443   */\n      add\n        /* \"#utility.yul\":19417:19443   */\n      swap1\n      pop\n        /* \"#utility.yul\":19489:19498   */\n      dup2\n        /* \"#utility.yul\":19483:19487   */\n      dup2\n        /* \"#utility.yul\":19479:19499   */\n      sub\n        /* \"#utility.yul\":19475:19476   */\n      0x00\n        /* \"#utility.yul\":19464:19473   */\n      dup4\n        /* \"#utility.yul\":19460:19477   */\n      add\n        /* \"#utility.yul\":19453:19500   */\n      mstore\n        /* \"#utility.yul\":19517:19648   */\n      tag_402\n        /* \"#utility.yul\":19643:19647   */\n      dup2\n        /* \"#utility.yul\":19517:19648   */\n      tag_194\n      jump\t// in\n    tag_402:\n        /* \"#utility.yul\":19509:19648   */\n      swap1\n      pop\n        /* \"#utility.yul\":19236:19655   */\n      swap2\n      swap1\n      pop\n      jump\t// out\n        /* \"#utility.yul\":19685:20559   */\n    tag_195:\n        /* \"#utility.yul\":19788:19791   */\n      0x00\n        /* \"#utility.yul\":19825:19830   */\n      dup2\n        /* \"#utility.yul\":19819:19831   */\n      sload\n        /* \"#utility.yul\":19854:19890   */\n      tag_404\n        /* \"#utility.yul\":19880:19889   */\n      dup2\n        /* \"#utility.yul\":19854:19890   */\n      tag_61\n      jump\t// in\n    tag_404:\n        /* \"#utility.yul\":19906:19995   */\n      tag_405\n        /* \"#utility.yul\":19988:19994   */\n      dup2\n        /* \"#utility.yul\":19983:19986   */\n      dup7\n        /* \"#utility.yul\":19906:19995   */\n      tag_168\n      jump\t// in\n    tag_405:\n        /* \"#utility.yul\":19899:19995   */\n      swap5\n      pop\n        /* \"#utility.yul\":20026:20027   */\n      0x01\n        /* \"#utility.yul\":20015:20024   */\n      dup3\n        /* \"#utility.yul\":20011:20028   */\n      and\n        /* \"#utility.yul\":20042:20043   */\n      0x00\n        /* \"#utility.yul\":20037:20203   */\n      dup2\n      eq\n      tag_407\n      jumpi\n        /* \"#utility.yul\":20217:20218   */\n      0x01\n        /* \"#utility.yul\":20212:20553   */\n      dup2\n      eq\n      tag_408\n      jumpi\n        /* \"#utility.yul\":20004:20553   */\n      jump(tag_406)\n        /* \"#utility.yul\":20037:20203   */\n    tag_407:\n        /* \"#utility.yul\":20121:20125   */\n      0xff\n        /* \"#utility.yul\":20117:20126   */\n      not\n        /* \"#utility.yul\":20106:20115   */\n      dup4\n        /* \"#utility.yul\":20102:20127   */\n      and\n        /* \"#utility.yul\":20097:20100   */\n      dup7\n        /* \"#utility.yul\":20090:20128   */\n      mstore\n        /* \"#utility.yul\":20183:20189   */\n      dup2\n        /* \"#utility.yul\":20176:20190   */\n      iszero\n        /* \"#utility.yul\":20169:20191   */\n      iszero\n        /* \"#utility.yul\":20161:20167   */\n      dup3\n        /* \"#utility.yul\":20157:20192   */\n      mul\n        /* \"#utility.yul\":20152:20155   */\n      dup7\n        /* \"#utility.yul\":20148:20193   */\n      add\n        /* \"#utility.yul\":20141:20193   */\n      swap4\n      pop\n        /* \"#utility.yul\":20037:20203   */\n      jump(tag_406)\n        /* \"#utility.yul\":20212:20553   */\n    tag_408:\n        /* \"#utility.yul\":20279:20317   */\n      tag_409\n        /* \"#utility.yul\":20311:20316   */\n      dup6\n        /* \"#utility.yul\":20279:20317   */\n      tag_178\n      jump\t// in\n    tag_409:\n        /* \"#utility.yul\":20339:20340   */\n      0x00\n        /* \"#utility.yul\":20353:20507   */\n    tag_410:\n        /* \"#utility.yul\":20367:20373   */\n      dup4\n        /* \"#utility.yul\":20364:20365   */\n      dup2\n        /* \"#utility.yul\":20361:20374   */\n      lt\n        /* \"#utility.yul\":20353:20507   */\n      iszero\n      tag_412\n      jumpi\n        /* \"#utility.yul\":20441:20448   */\n      dup2\n        /* \"#utility.yul\":20435:20449   */\n      sload\n        /* \"#utility.yul\":20431:20432   */\n      dup2\n        /* \"#utility.yul\":20426:20429   */\n      dup10\n        /* \"#utility.yul\":20422:20433   */\n      add\n        /* \"#utility.yul\":20415:20450   */\n      mstore\n        /* \"#utility.yul\":20491:20492   */\n      0x01\n        /* \"#utility.yul\":20482:20489   */\n      dup3\n        /* \"#utility.yul\":20478:20493   */\n      add\n        /* \"#utility.yul\":20467:20493   */\n      swap2\n      pop\n        /* \"#utility.yul\":20389:20393   */\n      0x20\n        /* \"#utility.yul\":20386:20387   */\n      dup2\n        /* \"#utility.yul\":20382:20394   */\n      add\n        /* \"#utility.yul\":20377:20394   */\n      swap1\n      pop\n        /* \"#utility.yul\":20353:20507   */\n      jump(tag_410)\n    tag_412:\n        /* \"#utility.yul\":20536:20542   */\n      dup4\n        /* \"#utility.yul\":20531:20534   */\n      dup9\n        /* \"#utility.yul\":20527:20543   */\n      add\n        /* \"#utility.yul\":20520:20543   */\n      swap6\n      pop\n        /* \"#utility.yul\":20219:20553   */\n      pop\n      pop\n        /* \"#utility.yul\":20004:20553   */\n    tag_406:\n      pop\n        /* \"#utility.yul\":19792:20559   */\n      pop\n      pop\n        /* \"#utility.yul\":19685:20559   */\n      swap3\n      swap2\n      pop\n      pop\n      jump\t// out\n        /* \"#utility.yul\":20565:21257   */\n    tag_100:\n        /* \"#utility.yul\":20778:20781   */\n      0x00\n        /* \"#utility.yul\":20800:20892   */\n      tag_414\n        /* \"#utility.yul\":20888:20891   */\n      dup3\n        /* \"#utility.yul\":20879:20885   */\n      dup8\n        /* \"#utility.yul\":20800:20892   */\n      tag_195\n      jump\t// in\n    tag_414:\n        /* \"#utility.yul\":20793:20892   */\n      swap2\n      pop\n        /* \"#utility.yul\":20902:20977   */\n      tag_415\n        /* \"#utility.yul\":20973:20976   */\n      dup3\n        /* \"#utility.yul\":20964:20970   */\n      dup7\n        /* \"#utility.yul\":20902:20977   */\n      tag_171\n      jump\t// in\n    tag_415:\n        /* \"#utility.yul\":21002:21004   */\n      0x20\n        /* \"#utility.yul\":20997:21000   */\n      dup3\n        /* \"#utility.yul\":20993:21005   */\n      add\n        /* \"#utility.yul\":20986:21005   */\n      swap2\n      pop\n        /* \"#utility.yul\":21015:21090   */\n      tag_416\n        /* \"#utility.yul\":21086:21089   */\n      dup3\n        /* \"#utility.yul\":21077:21083   */\n      dup6\n        /* \"#utility.yul\":21015:21090   */\n      tag_175\n      jump\t// in\n    tag_416:\n        /* \"#utility.yul\":21115:21117   */\n      0x14\n        /* \"#utility.yul\":21110:21113   */\n      dup3\n        /* \"#utility.yul\":21106:21118   */\n      add\n        /* \"#utility.yul\":21099:21118   */\n      swap2\n      pop\n        /* \"#utility.yul\":21128:21203   */\n      tag_417\n        /* \"#utility.yul\":21199:21202   */\n      dup3\n        /* \"#utility.yul\":21190:21196   */\n      dup5\n        /* \"#utility.yul\":21128:21203   */\n      tag_175\n      jump\t// in\n    tag_417:\n        /* \"#utility.yul\":21228:21230   */\n      0x14\n        /* \"#utility.yul\":21223:21226   */\n      dup3\n        /* \"#utility.yul\":21219:21231   */\n      add\n        /* \"#utility.yul\":21212:21231   */\n      swap2\n      pop\n        /* \"#utility.yul\":21248:21251   */\n      dup2\n        /* \"#utility.yul\":21241:21251   */\n      swap1\n      pop\n        /* \"#utility.yul\":20565:21257   */\n      swap6\n      swap5\n      pop\n      pop\n      pop\n      pop\n      pop\n      jump\t// out\n        /* \"#utility.yul\":21263:21436   */\n    tag_196:\n        /* \"#utility.yul\":21403:21428   */\n      0x5574656e7465206e6f6e204175746f72697a7a61746f21000000000000000000\n        /* \"#utility.yul\":21399:21400   */\n      0x00\n        /* \"#utility.yul\":21391:21397   */\n      dup3\n        /* \"#utility.yul\":21387:21401   */\n      add\n        /* \"#utility.yul\":21380:21429   */\n      mstore\n        /* \"#utility.yul\":21263:21436   */\n      pop\n      jump\t// out\n        /* \"#utility.yul\":21442:21808   */\n    tag_197:\n        /* \"#utility.yul\":21584:21587   */\n      0x00\n        /* \"#utility.yul\":21605:21672   */\n      tag_420\n        /* \"#utility.yul\":21669:21671   */\n      0x17\n        /* \"#utility.yul\":21664:21667   */\n      dup4\n        /* \"#utility.yul\":21605:21672   */\n      tag_158\n      jump\t// in\n    tag_420:\n        /* \"#utility.yul\":21598:21672   */\n      swap2\n      pop\n        /* \"#utility.yul\":21681:21774   */\n      tag_421\n        /* \"#utility.yul\":21770:21773   */\n      dup3\n        /* \"#utility.yul\":21681:21774   */\n      tag_196\n      jump\t// in\n    tag_421:\n        /* \"#utility.yul\":21799:21801   */\n      0x20\n        /* \"#utility.yul\":21794:21797   */\n      dup3\n        /* \"#utility.yul\":21790:21802   */\n      add\n        /* \"#utility.yul\":21783:21802   */\n      swap1\n      pop\n        /* \"#utility.yul\":21442:21808   */\n      swap2\n      swap1\n      pop\n      jump\t// out\n        /* \"#utility.yul\":21814:22233   */\n    tag_103:\n        /* \"#utility.yul\":21980:21984   */\n      0x00\n        /* \"#utility.yul\":22018:22020   */\n      0x20\n        /* \"#utility.yul\":22007:22016   */\n      dup3\n        /* \"#utility.yul\":22003:22021   */\n      add\n        /* \"#utility.yul\":21995:22021   */\n      swap1\n      pop\n        /* \"#utility.yul\":22067:22076   */\n      dup2\n        /* \"#utility.yul\":22061:22065   */\n      dup2\n        /* \"#utility.yul\":22057:22077   */\n      sub\n        /* \"#utility.yul\":22053:22054   */\n      0x00\n        /* \"#utility.yul\":22042:22051   */\n      dup4\n        /* \"#utility.yul\":22038:22055   */\n      add\n        /* \"#utility.yul\":22031:22078   */\n      mstore\n        /* \"#utility.yul\":22095:22226   */\n      tag_423\n        /* \"#utility.yul\":22221:22225   */\n      dup2\n        /* \"#utility.yul\":22095:22226   */\n      tag_197\n      jump\t// in\n    tag_423:\n        /* \"#utility.yul\":22087:22226   */\n      swap1\n      pop\n        /* \"#utility.yul\":21814:22233   */\n      swap2\n      swap1\n      pop\n      jump\t// out\n\n    auxdata: 0xa26469706673582212201fe91dc3e87781ff558b4f573ac5cf6b1ec60bdf651b9e750310d2d2068ac69b64736f6c63430008160033\n}\n",
				"bytecode": {
					"linkReferences": {},
					"object": "608060405234801561000f575f80fd5b50335f806101000a81548173ffffffffffffffffffffffffffffffffffffffff021916908373ffffffffffffffffffffffffffffffffffffffff160217905550611f108061005c5f395ff3fe608060405234801561000f575f80fd5b5060043610610091575f3560e01c8063a748926911610064578063a748926914610141578063ad9c10a114610171578063c5d3e11d146101a1578063ce4fcf23146101d1578063d0edfccc1461020457610091565b80631e073fcf1461009557806331f4cbbd146100c557806399c6526e146100f55780639f2b689814610111575b5f80fd5b6100af60048036038101906100aa9190611421565b610234565b6040516100bc919061146e565b60405180910390f35b6100df60048036038101906100da9190611487565b610425565b6040516100ec91906114f1565b60405180910390f35b61010f600480360381019061010a9190611646565b610601565b005b61012b60048036038101906101269190611421565b6107c8565b6040516101389190611740565b60405180910390f35b61015b60048036038101906101569190611487565b6109ba565b60405161016891906114f1565b60405180910390f35b61018b60048036038101906101869190611421565b610aed565b60405161019891906114f1565b60405180910390f35b6101bb60048036038101906101b69190611421565b610e46565b6040516101c8919061146e565b60405180910390f35b6101eb60048036038101906101e69190611421565b610f2e565b6040516101fb949392919061176f565b60405180910390f35b61021e60048036038101906102199190611421565b61113a565b60405161022b91906117b9565b60405180910390f35b5f8060015f8573ffffffffffffffffffffffffffffffffffffffff1673ffffffffffffffffffffffffffffffffffffffff1681526020019081526020015f205f8481526020019081526020015f205f0154036102c5576040517f08c379a00000000000000000000000000000000000000000000000000000000081526004016102bc9061181c565b60405180910390fd5b5f60015f8573ffffffffffffffffffffffffffffffffffffffff1673ffffffffffffffffffffffffffffffffffffffff1681526020019081526020015f205f8481526020019081526020015f206040518060800160405290815f8201548152602001600182015f9054906101000a900473ffffffffffffffffffffffffffffffffffffffff1673ffffffffffffffffffffffffffffffffffffffff1673ffffffffffffffffffffffffffffffffffffffff16815260200160028201805461038b90611867565b80601f01602080910402602001604051908101604052809291908181526020018280546103b790611867565b80156104025780601f106103d957610100808354040283529160200191610402565b820191905f5260205f20905b8154815290600101906020018083116103e557829003601f168201915b505050505081526020016003820154815250509050806060015191505092915050565b5f8060015f8673ffffffffffffffffffffffffffffffffffffffff1673ffffffffffffffffffffffffffffffffffffffff1681526020019081526020015f205f8581526020019081526020015f205f0154036104b6576040517f08c379a00000000000000000000000000000000000000000000000000000000081526004016104ad9061181c565b60405180910390fd5b8160015f8673ffffffffffffffffffffffffffffffffffffffff1673ffffffffffffffffffffffffffffffffffffffff1681526020019081526020015f205f8581526020019081526020015f20600301541015610548576040517f08c379a000000000000000000000000000000000000000000000000000000000815260040161053f90611907565b60405180910390fd5b8160015f8673ffffffffffffffffffffffffffffffffffffffff1673ffffffffffffffffffffffffffffffffffffffff1681526020019081526020015f205f8581526020019081526020015f20600301546105a39190611952565b60015f8673ffffffffffffffffffffffffffffffffffffffff1673ffffffffffffffffffffffffffffffffffffffff1681526020019081526020015f205f8581526020019081526020015f2060030181905550600190509392505050565b5f828286866040516020016106199493929190611a24565b604051602081830303815290604052805190602001205f1c90505f60015f8773ffffffffffffffffffffffffffffffffffffffff1673ffffffffffffffffffffffffffffffffffffffff1681526020019081526020015f205f8381526020019081526020015f2090505f815f0154146106c7576040517f08c379a00000000000000000000000000000000000000000000000000000000081526004016106be90611ab7565b60405180910390fd5b5f60405180608001604052808481526020018773ffffffffffffffffffffffffffffffffffffffff1681526020018681526020018581525090508060015f8973ffffffffffffffffffffffffffffffffffffffff1673ffffffffffffffffffffffffffffffffffffffff1681526020019081526020015f205f8581526020019081526020015f205f820151815f01556020820151816001015f6101000a81548173ffffffffffffffffffffffffffffffffffffffff021916908373ffffffffffffffffffffffffffffffffffffffff16021790555060408201518160020190816107b19190611c72565b506060820151816003015590505050505050505050565b60605f60015f8573ffffffffffffffffffffffffffffffffffffffff1673ffffffffffffffffffffffffffffffffffffffff1681526020019081526020015f205f8481526020019081526020015f205f01540361085a576040517f08c379a00000000000000000000000000000000000000000000000000000000081526004016108519061181c565b60405180910390fd5b5f60015f8573ffffffffffffffffffffffffffffffffffffffff1673ffffffffffffffffffffffffffffffffffffffff1681526020019081526020015f205f8481526020019081526020015f206040518060800160405290815f8201548152602001600182015f9054906101000a900473ffffffffffffffffffffffffffffffffffffffff1673ffffffffffffffffffffffffffffffffffffffff1673ffffffffffffffffffffffffffffffffffffffff16815260200160028201805461092090611867565b80601f016020809104026020016040519081016040528092919081815260200182805461094c90611867565b80156109975780601f1061096e57610100808354040283529160200191610997565b820191905f5260205f20905b81548152906001019060200180831161097a57829003601f168201915b505050505081526020016003820154815250509050806040015191505092915050565b5f8260015f8673ffffffffffffffffffffffffffffffffffffffff1673ffffffffffffffffffffffffffffffffffffffff1681526020019081526020015f205f8581526020019081526020015f205f015414610a4b576040517f08c379a0000000000000000000000000000000000000000000000000000000008152600401610a429061181c565b60405180910390fd5b5f60015f8673ffffffffffffffffffffffffffffffffffffffff1673ffffffffffffffffffffffffffffffffffffffff1681526020019081526020015f205f8581526020019081526020015f2090508281600301541015610ae1576040517f08c379a0000000000000000000000000000000000000000000000000000000008152600401610ad890611d8b565b60405180910390fd5b60019150509392505050565b5f8060015f8573ffffffffffffffffffffffffffffffffffffffff1673ffffffffffffffffffffffffffffffffffffffff1681526020019081526020015f205f8481526020019081526020015f205f015403610b7e576040517f08c379a0000000000000000000000000000000000000000000000000000000008152600401610b759061181c565b60405180910390fd5b5f60015f8573ffffffffffffffffffffffffffffffffffffffff1673ffffffffffffffffffffffffffffffffffffffff1681526020019081526020015f205f8481526020019081526020015f2060020160015f8673ffffffffffffffffffffffffffffffffffffffff1673ffffffffffffffffffffffffffffffffffffffff1681526020019081526020015f205f8581526020019081526020015f206003015460015f8773ffffffffffffffffffffffffffffffffffffffff1673ffffffffffffffffffffffffffffffffffffffff1681526020019081526020015f205f8681526020019081526020015f206001015f9054906101000a900473ffffffffffffffffffffffffffffffffffffffff1686604051602001610ca19493929190611e29565b604051602081830303815290604052805190602001205f1c90508060015f8673ffffffffffffffffffffffffffffffffffffffff1673ffffffffffffffffffffffffffffffffffffffff1681526020019081526020015f205f8581526020019081526020015f205f015414610d4b576040517f08c379a0000000000000000000000000000000000000000000000000000000008152600401610d4290611ebc565b60405180910390fd5b60015f8573ffffffffffffffffffffffffffffffffffffffff1673ffffffffffffffffffffffffffffffffffffffff1681526020019081526020015f205f8481526020019081526020015f205f8082015f9055600182015f6101000a81549073ffffffffffffffffffffffffffffffffffffffff0219169055600282015f610dd3919061132b565b600382015f905550505f60015f8673ffffffffffffffffffffffffffffffffffffffff1673ffffffffffffffffffffffffffffffffffffffff1681526020019081526020015f205f8581526020019081526020015f205f015403610e3b576001915050610e40565b5f9150505b92915050565b5f8060015f8573ffffffffffffffffffffffffffffffffffffffff1673ffffffffffffffffffffffffffffffffffffffff1681526020019081526020015f205f8481526020019081526020015f205f015403610ed7576040517f08c379a0000000000000000000000000000000000000000000000000000000008152600401610ece9061181c565b60405180910390fd5b60015f8473ffffffffffffffffffffffffffffffffffffffff1673ffffffffffffffffffffffffffffffffffffffff1681526020019081526020015f205f8381526020019081526020015f205f0154905092915050565b5f8060605f8460015f8873ffffffffffffffffffffffffffffffffffffffff1673ffffffffffffffffffffffffffffffffffffffff1681526020019081526020015f205f8781526020019081526020015f205f015414610fc3576040517f08c379a0000000000000000000000000000000000000000000000000000000008152600401610fba9061181c565b60405180910390fd5b5f60015f8873ffffffffffffffffffffffffffffffffffffffff1673ffffffffffffffffffffffffffffffffffffffff1681526020019081526020015f205f8781526020019081526020015f206040518060800160405290815f8201548152602001600182015f9054906101000a900473ffffffffffffffffffffffffffffffffffffffff1673ffffffffffffffffffffffffffffffffffffffff1673ffffffffffffffffffffffffffffffffffffffff16815260200160028201805461108990611867565b80601f01602080910402602001604051908101604052809291908181526020018280546110b590611867565b80156111005780601f106110d757610100808354040283529160200191611100565b820191905f5260205f20905b8154815290600101906020018083116110e357829003601f168201915b505050505081526020016003820154815250509050805f015181602001518260400151836060015194509450945094505092959194509250565b5f8060015f8573ffffffffffffffffffffffffffffffffffffffff1673ffffffffffffffffffffffffffffffffffffffff1681526020019081526020015f205f8481526020019081526020015f205f0154036111cb576040517f08c379a00000000000000000000000000000000000000000000000000000000081526004016111c29061181c565b60405180910390fd5b5f60015f8573ffffffffffffffffffffffffffffffffffffffff1673ffffffffffffffffffffffffffffffffffffffff1681526020019081526020015f205f8481526020019081526020015f206040518060800160405290815f8201548152602001600182015f9054906101000a900473ffffffffffffffffffffffffffffffffffffffff1673ffffffffffffffffffffffffffffffffffffffff1673ffffffffffffffffffffffffffffffffffffffff16815260200160028201805461129190611867565b80601f01602080910402602001604051908101604052809291908181526020018280546112bd90611867565b80156113085780601f106112df57610100808354040283529160200191611308565b820191905f5260205f20905b8154815290600101906020018083116112eb57829003601f168201915b505050505081526020016003820154815250509050806020015191505092915050565b50805461133790611867565b5f825580601f106113485750611365565b601f0160209004905f5260205f20908101906113649190611368565b5b50565b5b8082111561137f575f815f905550600101611369565b5090565b5f604051905090565b5f80fd5b5f80fd5b5f73ffffffffffffffffffffffffffffffffffffffff82169050919050565b5f6113bd82611394565b9050919050565b6113cd816113b3565b81146113d7575f80fd5b50565b5f813590506113e8816113c4565b92915050565b5f819050919050565b611400816113ee565b811461140a575f80fd5b50565b5f8135905061141b816113f7565b92915050565b5f80604083850312156114375761143661138c565b5b5f611444858286016113da565b92505060206114558582860161140d565b9150509250929050565b611468816113ee565b82525050565b5f6020820190506114815f83018461145f565b92915050565b5f805f6060848603121561149e5761149d61138c565b5b5f6114ab868287016113da565b93505060206114bc8682870161140d565b92505060406114cd8682870161140d565b9150509250925092565b5f8115159050919050565b6114eb816114d7565b82525050565b5f6020820190506115045f8301846114e2565b92915050565b5f80fd5b5f80fd5b5f601f19601f8301169050919050565b7f4e487b71000000000000000000000000000000000000000000000000000000005f52604160045260245ffd5b61155882611512565b810181811067ffffffffffffffff8211171561157757611576611522565b5b80604052505050565b5f611589611383565b9050611595828261154f565b919050565b5f67ffffffffffffffff8211156115b4576115b3611522565b5b6115bd82611512565b9050602081019050919050565b828183375f83830152505050565b5f6115ea6115e58461159a565b611580565b9050828152602081018484840111156116065761160561150e565b5b6116118482856115ca565b509392505050565b5f82601f83011261162d5761162c61150a565b5b813561163d8482602086016115d8565b91505092915050565b5f805f806080858703121561165e5761165d61138c565b5b5f61166b878288016113da565b945050602061167c878288016113da565b935050604085013567ffffffffffffffff81111561169d5761169c611390565b5b6116a987828801611619565b92505060606116ba8782880161140d565b91505092959194509250565b5f81519050919050565b5f82825260208201905092915050565b5f5b838110156116fd5780820151818401526020810190506116e2565b5f8484015250505050565b5f611712826116c6565b61171c81856116d0565b935061172c8185602086016116e0565b61173581611512565b840191505092915050565b5f6020820190508181035f8301526117588184611708565b905092915050565b611769816113b3565b82525050565b5f6080820190506117825f83018761145f565b61178f6020830186611760565b81810360408301526117a18185611708565b90506117b0606083018461145f565b95945050505050565b5f6020820190506117cc5f830184611760565b92915050565b7f50617274697461206469204c61747465206e6f6e2070726573656e74652100005f82015250565b5f611806601e836116d0565b9150611811826117d2565b602082019050919050565b5f6020820190508181035f830152611833816117fa565b9050919050565b7f4e487b71000000000000000000000000000000000000000000000000000000005f52602260045260245ffd5b5f600282049050600182168061187e57607f821691505b6020821081036118915761189061183a565b5b50919050565b7f5175616e746974612720696e736572697461206e6f6e20646973706f6e6962695f8201527f6c65210000000000000000000000000000000000000000000000000000000000602082015250565b5f6118f16023836116d0565b91506118fc82611897565b604082019050919050565b5f6020820190508181035f83015261191e816118e5565b9050919050565b7f4e487b71000000000000000000000000000000000000000000000000000000005f52601160045260245ffd5b5f61195c826113ee565b9150611967836113ee565b925082820390508181111561197f5761197e611925565b5b92915050565b5f81905092915050565b5f611999826116c6565b6119a38185611985565b93506119b38185602086016116e0565b80840191505092915050565b5f819050919050565b6119d96119d4826113ee565b6119bf565b82525050565b5f8160601b9050919050565b5f6119f5826119df565b9050919050565b5f611a06826119eb565b9050919050565b611a1e611a19826113b3565b6119fc565b82525050565b5f611a2f828761198f565b9150611a3b82866119c8565b602082019150611a4b8285611a0d565b601482019150611a5b8284611a0d565b60148201915081905095945050505050565b7f50617274697461206469204c6174746520676961272070726573656e746521005f82015250565b5f611aa1601f836116d0565b9150611aac82611a6d565b602082019050919050565b5f6020820190508181035f830152611ace81611a95565b9050919050565b5f819050815f5260205f209050919050565b5f6020601f8301049050919050565b5f82821b905092915050565b5f60088302611b317fffffffffffffffffffffffffffffffffffffffffffffffffffffffffffffffff82611af6565b611b3b8683611af6565b95508019841693508086168417925050509392505050565b5f819050919050565b5f611b76611b71611b6c846113ee565b611b53565b6113ee565b9050919050565b5f819050919050565b611b8f83611b5c565b611ba3611b9b82611b7d565b848454611b02565b825550505050565b5f90565b611bb7611bab565b611bc2818484611b86565b505050565b5b81811015611be557611bda5f82611baf565b600181019050611bc8565b5050565b601f821115611c2a57611bfb81611ad5565b611c0484611ae7565b81016020851015611c13578190505b611c27611c1f85611ae7565b830182611bc7565b50505b505050565b5f82821c905092915050565b5f611c4a5f1984600802611c2f565b1980831691505092915050565b5f611c628383611c3b565b9150826002028217905092915050565b611c7b826116c6565b67ffffffffffffffff811115611c9457611c93611522565b5b611c9e8254611867565b611ca9828285611be9565b5f60209050601f831160018114611cda575f8415611cc8578287015190505b611cd28582611c57565b865550611d39565b601f198416611ce886611ad5565b5f5b82811015611d0f57848901518255600182019150602085019450602081019050611cea565b86831015611d2c5784890151611d28601f891682611c3b565b8355505b6001600288020188555050505b505050505050565b7f5175616e74697479206e6f742056616c696421000000000000000000000000005f82015250565b5f611d756013836116d0565b9150611d8082611d41565b602082019050919050565b5f6020820190508181035f830152611da281611d69565b9050919050565b5f8154611db581611867565b611dbf8186611985565b9450600182165f8114611dd95760018114611dee57611e20565b60ff1983168652811515820286019350611e20565b611df785611ad5565b5f5b83811015611e1857815481890152600182019150602081019050611df9565b838801955050505b50505092915050565b5f611e348287611da9565b9150611e4082866119c8565b602082019150611e508285611a0d565b601482019150611e608284611a0d565b60148201915081905095945050505050565b7f5574656e7465206e6f6e204175746f72697a7a61746f210000000000000000005f82015250565b5f611ea66017836116d0565b9150611eb182611e72565b602082019050919050565b5f6020820190508181035f830152611ed381611e9a565b905091905056fea26469706673582212201fe91dc3e87781ff558b4f573ac5cf6b1ec60bdf651b9e750310d2d2068ac69b64736f6c63430008160033",
					"opcodes": "PUSH1 0x80 PUSH1 0x40 MSTORE CALLVALUE DUP1 ISZERO PUSH2 0xF JUMPI PUSH0 DUP1 REVERT JUMPDEST POP CALLER PUSH0 DUP1 PUSH2 0x100 EXP DUP2 SLOAD DUP2 PUSH20 0xFFFFFFFFFFFFFFFFFFFFFFFFFFFFFFFFFFFFFFFF MUL NOT AND SWAP1 DUP4 PUSH20 0xFFFFFFFFFFFFFFFFFFFFFFFFFFFFFFFFFFFFFFFF AND MUL OR SWAP1 SSTORE POP PUSH2 0x1F10 DUP1 PUSH2 0x5C PUSH0 CODECOPY PUSH0 RETURN INVALID PUSH1 0x80 PUSH1 0x40 MSTORE CALLVALUE DUP1 ISZERO PUSH2 0xF JUMPI PUSH0 DUP1 REVERT JUMPDEST POP PUSH1 0x4 CALLDATASIZE LT PUSH2 0x91 JUMPI PUSH0 CALLDATALOAD PUSH1 0xE0 SHR DUP1 PUSH4 0xA7489269 GT PUSH2 0x64 JUMPI DUP1 PUSH4 0xA7489269 EQ PUSH2 0x141 JUMPI DUP1 PUSH4 0xAD9C10A1 EQ PUSH2 0x171 JUMPI DUP1 PUSH4 0xC5D3E11D EQ PUSH2 0x1A1 JUMPI DUP1 PUSH4 0xCE4FCF23 EQ PUSH2 0x1D1 JUMPI DUP1 PUSH4 0xD0EDFCCC EQ PUSH2 0x204 JUMPI PUSH2 0x91 JUMP JUMPDEST DUP1 PUSH4 0x1E073FCF EQ PUSH2 0x95 JUMPI DUP1 PUSH4 0x31F4CBBD EQ PUSH2 0xC5 JUMPI DUP1 PUSH4 0x99C6526E EQ PUSH2 0xF5 JUMPI DUP1 PUSH4 0x9F2B6898 EQ PUSH2 0x111 JUMPI JUMPDEST PUSH0 DUP1 REVERT JUMPDEST PUSH2 0xAF PUSH1 0x4 DUP1 CALLDATASIZE SUB DUP2 ADD SWAP1 PUSH2 0xAA SWAP2 SWAP1 PUSH2 0x1421 JUMP JUMPDEST PUSH2 0x234 JUMP JUMPDEST PUSH1 0x40 MLOAD PUSH2 0xBC SWAP2 SWAP1 PUSH2 0x146E JUMP JUMPDEST PUSH1 0x40 MLOAD DUP1 SWAP2 SUB SWAP1 RETURN JUMPDEST PUSH2 0xDF PUSH1 0x4 DUP1 CALLDATASIZE SUB DUP2 ADD SWAP1 PUSH2 0xDA SWAP2 SWAP1 PUSH2 0x1487 JUMP JUMPDEST PUSH2 0x425 JUMP JUMPDEST PUSH1 0x40 MLOAD PUSH2 0xEC SWAP2 SWAP1 PUSH2 0x14F1 JUMP JUMPDEST PUSH1 0x40 MLOAD DUP1 SWAP2 SUB SWAP1 RETURN JUMPDEST PUSH2 0x10F PUSH1 0x4 DUP1 CALLDATASIZE SUB DUP2 ADD SWAP1 PUSH2 0x10A SWAP2 SWAP1 PUSH2 0x1646 JUMP JUMPDEST PUSH2 0x601 JUMP JUMPDEST STOP JUMPDEST PUSH2 0x12B PUSH1 0x4 DUP1 CALLDATASIZE SUB DUP2 ADD SWAP1 PUSH2 0x126 SWAP2 SWAP1 PUSH2 0x1421 JUMP JUMPDEST PUSH2 0x7C8 JUMP JUMPDEST PUSH1 0x40 MLOAD PUSH2 0x138 SWAP2 SWAP1 PUSH2 0x1740 JUMP JUMPDEST PUSH1 0x40 MLOAD DUP1 SWAP2 SUB SWAP1 RETURN JUMPDEST PUSH2 0x15B PUSH1 0x4 DUP1 CALLDATASIZE SUB DUP2 ADD SWAP1 PUSH2 0x156 SWAP2 SWAP1 PUSH2 0x1487 JUMP JUMPDEST PUSH2 0x9BA JUMP JUMPDEST PUSH1 0x40 MLOAD PUSH2 0x168 SWAP2 SWAP1 PUSH2 0x14F1 JUMP JUMPDEST PUSH1 0x40 MLOAD DUP1 SWAP2 SUB SWAP1 RETURN JUMPDEST PUSH2 0x18B PUSH1 0x4 DUP1 CALLDATASIZE SUB DUP2 ADD SWAP1 PUSH2 0x186 SWAP2 SWAP1 PUSH2 0x1421 JUMP JUMPDEST PUSH2 0xAED JUMP JUMPDEST PUSH1 0x40 MLOAD PUSH2 0x198 SWAP2 SWAP1 PUSH2 0x14F1 JUMP JUMPDEST PUSH1 0x40 MLOAD DUP1 SWAP2 SUB SWAP1 RETURN JUMPDEST PUSH2 0x1BB PUSH1 0x4 DUP1 CALLDATASIZE SUB DUP2 ADD SWAP1 PUSH2 0x1B6 SWAP2 SWAP1 PUSH2 0x1421 JUMP JUMPDEST PUSH2 0xE46 JUMP JUMPDEST PUSH1 0x40 MLOAD PUSH2 0x1C8 SWAP2 SWAP1 PUSH2 0x146E JUMP JUMPDEST PUSH1 0x40 MLOAD DUP1 SWAP2 SUB SWAP1 RETURN JUMPDEST PUSH2 0x1EB PUSH1 0x4 DUP1 CALLDATASIZE SUB DUP2 ADD SWAP1 PUSH2 0x1E6 SWAP2 SWAP1 PUSH2 0x1421 JUMP JUMPDEST PUSH2 0xF2E JUMP JUMPDEST PUSH1 0x40 MLOAD PUSH2 0x1FB SWAP5 SWAP4 SWAP3 SWAP2 SWAP1 PUSH2 0x176F JUMP JUMPDEST PUSH1 0x40 MLOAD DUP1 SWAP2 SUB SWAP1 RETURN JUMPDEST PUSH2 0x21E PUSH1 0x4 DUP1 CALLDATASIZE SUB DUP2 ADD SWAP1 PUSH2 0x219 SWAP2 SWAP1 PUSH2 0x1421 JUMP JUMPDEST PUSH2 0x113A JUMP JUMPDEST PUSH1 0x40 MLOAD PUSH2 0x22B SWAP2 SWAP1 PUSH2 0x17B9 JUMP JUMPDEST PUSH1 0x40 MLOAD DUP1 SWAP2 SUB SWAP1 RETURN JUMPDEST PUSH0 DUP1 PUSH1 0x1 PUSH0 DUP6 PUSH20 0xFFFFFFFFFFFFFFFFFFFFFFFFFFFFFFFFFFFFFFFF AND PUSH20 0xFFFFFFFFFFFFFFFFFFFFFFFFFFFFFFFFFFFFFFFF AND DUP2 MSTORE PUSH1 0x20 ADD SWAP1 DUP2 MSTORE PUSH1 0x20 ADD PUSH0 KECCAK256 PUSH0 DUP5 DUP2 MSTORE PUSH1 0x20 ADD SWAP1 DUP2 MSTORE PUSH1 0x20 ADD PUSH0 KECCAK256 PUSH0 ADD SLOAD SUB PUSH2 0x2C5 JUMPI PUSH1 0x40 MLOAD PUSH32 0x8C379A000000000000000000000000000000000000000000000000000000000 DUP2 MSTORE PUSH1 0x4 ADD PUSH2 0x2BC SWAP1 PUSH2 0x181C JUMP JUMPDEST PUSH1 0x40 MLOAD DUP1 SWAP2 SUB SWAP1 REVERT JUMPDEST PUSH0 PUSH1 0x1 PUSH0 DUP6 PUSH20 0xFFFFFFFFFFFFFFFFFFFFFFFFFFFFFFFFFFFFFFFF AND PUSH20 0xFFFFFFFFFFFFFFFFFFFFFFFFFFFFFFFFFFFFFFFF AND DUP2 MSTORE PUSH1 0x20 ADD SWAP1 DUP2 MSTORE PUSH1 0x20 ADD PUSH0 KECCAK256 PUSH0 DUP5 DUP2 MSTORE PUSH1 0x20 ADD SWAP1 DUP2 MSTORE PUSH1 0x20 ADD PUSH0 KECCAK256 PUSH1 0x40 MLOAD DUP1 PUSH1 0x80 ADD PUSH1 0x40 MSTORE SWAP1 DUP2 PUSH0 DUP3 ADD SLOAD DUP2 MSTORE PUSH1 0x20 ADD PUSH1 0x1 DUP3 ADD PUSH0 SWAP1 SLOAD SWAP1 PUSH2 0x100 EXP SWAP1 DIV PUSH20 0xFFFFFFFFFFFFFFFFFFFFFFFFFFFFFFFFFFFFFFFF AND PUSH20 0xFFFFFFFFFFFFFFFFFFFFFFFFFFFFFFFFFFFFFFFF AND PUSH20 0xFFFFFFFFFFFFFFFFFFFFFFFFFFFFFFFFFFFFFFFF AND DUP2 MSTORE PUSH1 0x20 ADD PUSH1 0x2 DUP3 ADD DUP1 SLOAD PUSH2 0x38B SWAP1 PUSH2 0x1867 JUMP JUMPDEST DUP1 PUSH1 0x1F ADD PUSH1 0x20 DUP1 SWAP2 DIV MUL PUSH1 0x20 ADD PUSH1 0x40 MLOAD SWAP1 DUP2 ADD PUSH1 0x40 MSTORE DUP1 SWAP3 SWAP2 SWAP1 DUP2 DUP2 MSTORE PUSH1 0x20 ADD DUP3 DUP1 SLOAD PUSH2 0x3B7 SWAP1 PUSH2 0x1867 JUMP JUMPDEST DUP1 ISZERO PUSH2 0x402 JUMPI DUP1 PUSH1 0x1F LT PUSH2 0x3D9 JUMPI PUSH2 0x100 DUP1 DUP4 SLOAD DIV MUL DUP4 MSTORE SWAP2 PUSH1 0x20 ADD SWAP2 PUSH2 0x402 JUMP JUMPDEST DUP3 ADD SWAP2 SWAP1 PUSH0 MSTORE PUSH1 0x20 PUSH0 KECCAK256 SWAP1 JUMPDEST DUP2 SLOAD DUP2 MSTORE SWAP1 PUSH1 0x1 ADD SWAP1 PUSH1 0x20 ADD DUP1 DUP4 GT PUSH2 0x3E5 JUMPI DUP3 SWAP1 SUB PUSH1 0x1F AND DUP3 ADD SWAP2 JUMPDEST POP POP POP POP POP DUP2 MSTORE PUSH1 0x20 ADD PUSH1 0x3 DUP3 ADD SLOAD DUP2 MSTORE POP POP SWAP1 POP DUP1 PUSH1 0x60 ADD MLOAD SWAP2 POP POP SWAP3 SWAP2 POP POP JUMP JUMPDEST PUSH0 DUP1 PUSH1 0x1 PUSH0 DUP7 PUSH20 0xFFFFFFFFFFFFFFFFFFFFFFFFFFFFFFFFFFFFFFFF AND PUSH20 0xFFFFFFFFFFFFFFFFFFFFFFFFFFFFFFFFFFFFFFFF AND DUP2 MSTORE PUSH1 0x20 ADD SWAP1 DUP2 MSTORE PUSH1 0x20 ADD PUSH0 KECCAK256 PUSH0 DUP6 DUP2 MSTORE PUSH1 0x20 ADD SWAP1 DUP2 MSTORE PUSH1 0x20 ADD PUSH0 KECCAK256 PUSH0 ADD SLOAD SUB PUSH2 0x4B6 JUMPI PUSH1 0x40 MLOAD PUSH32 0x8C379A000000000000000000000000000000000000000000000000000000000 DUP2 MSTORE PUSH1 0x4 ADD PUSH2 0x4AD SWAP1 PUSH2 0x181C JUMP JUMPDEST PUSH1 0x40 MLOAD DUP1 SWAP2 SUB SWAP1 REVERT JUMPDEST DUP2 PUSH1 0x1 PUSH0 DUP7 PUSH20 0xFFFFFFFFFFFFFFFFFFFFFFFFFFFFFFFFFFFFFFFF AND PUSH20 0xFFFFFFFFFFFFFFFFFFFFFFFFFFFFFFFFFFFFFFFF AND DUP2 MSTORE PUSH1 0x20 ADD SWAP1 DUP2 MSTORE PUSH1 0x20 ADD PUSH0 KECCAK256 PUSH0 DUP6 DUP2 MSTORE PUSH1 0x20 ADD SWAP1 DUP2 MSTORE PUSH1 0x20 ADD PUSH0 KECCAK256 PUSH1 0x3 ADD SLOAD LT ISZERO PUSH2 0x548 JUMPI PUSH1 0x40 MLOAD PUSH32 0x8C379A000000000000000000000000000000000000000000000000000000000 DUP2 MSTORE PUSH1 0x4 ADD PUSH2 0x53F SWAP1 PUSH2 0x1907 JUMP JUMPDEST PUSH1 0x40 MLOAD DUP1 SWAP2 SUB SWAP1 REVERT JUMPDEST DUP2 PUSH1 0x1 PUSH0 DUP7 PUSH20 0xFFFFFFFFFFFFFFFFFFFFFFFFFFFFFFFFFFFFFFFF AND PUSH20 0xFFFFFFFFFFFFFFFFFFFFFFFFFFFFFFFFFFFFFFFF AND DUP2 MSTORE PUSH1 0x20 ADD SWAP1 DUP2 MSTORE PUSH1 0x20 ADD PUSH0 KECCAK256 PUSH0 DUP6 DUP2 MSTORE PUSH1 0x20 ADD SWAP1 DUP2 MSTORE PUSH1 0x20 ADD PUSH0 KECCAK256 PUSH1 0x3 ADD SLOAD PUSH2 0x5A3 SWAP2 SWAP1 PUSH2 0x1952 JUMP JUMPDEST PUSH1 0x1 PUSH0 DUP7 PUSH20 0xFFFFFFFFFFFFFFFFFFFFFFFFFFFFFFFFFFFFFFFF AND PUSH20 0xFFFFFFFFFFFFFFFFFFFFFFFFFFFFFFFFFFFFFFFF AND DUP2 MSTORE PUSH1 0x20 ADD SWAP1 DUP2 MSTORE PUSH1 0x20 ADD PUSH0 KECCAK256 PUSH0 DUP6 DUP2 MSTORE PUSH1 0x20 ADD SWAP1 DUP2 MSTORE PUSH1 0x20 ADD PUSH0 KECCAK256 PUSH1 0x3 ADD DUP2 SWAP1 SSTORE POP PUSH1 0x1 SWAP1 POP SWAP4 SWAP3 POP POP POP JUMP JUMPDEST PUSH0 DUP3 DUP3 DUP7 DUP7 PUSH1 0x40 MLOAD PUSH1 0x20 ADD PUSH2 0x619 SWAP5 SWAP4 SWAP3 SWAP2 SWAP1 PUSH2 0x1A24 JUMP JUMPDEST PUSH1 0x40 MLOAD PUSH1 0x20 DUP2 DUP4 SUB SUB DUP2 MSTORE SWAP1 PUSH1 0x40 MSTORE DUP1 MLOAD SWAP1 PUSH1 0x20 ADD KECCAK256 PUSH0 SHR SWAP1 POP PUSH0 PUSH1 0x1 PUSH0 DUP8 PUSH20 0xFFFFFFFFFFFFFFFFFFFFFFFFFFFFFFFFFFFFFFFF AND PUSH20 0xFFFFFFFFFFFFFFFFFFFFFFFFFFFFFFFFFFFFFFFF AND DUP2 MSTORE PUSH1 0x20 ADD SWAP1 DUP2 MSTORE PUSH1 0x20 ADD PUSH0 KECCAK256 PUSH0 DUP4 DUP2 MSTORE PUSH1 0x20 ADD SWAP1 DUP2 MSTORE PUSH1 0x20 ADD PUSH0 KECCAK256 SWAP1 POP PUSH0 DUP2 PUSH0 ADD SLOAD EQ PUSH2 0x6C7 JUMPI PUSH1 0x40 MLOAD PUSH32 0x8C379A000000000000000000000000000000000000000000000000000000000 DUP2 MSTORE PUSH1 0x4 ADD PUSH2 0x6BE SWAP1 PUSH2 0x1AB7 JUMP JUMPDEST PUSH1 0x40 MLOAD DUP1 SWAP2 SUB SWAP1 REVERT JUMPDEST PUSH0 PUSH1 0x40 MLOAD DUP1 PUSH1 0x80 ADD PUSH1 0x40 MSTORE DUP1 DUP5 DUP2 MSTORE PUSH1 0x20 ADD DUP8 PUSH20 0xFFFFFFFFFFFFFFFFFFFFFFFFFFFFFFFFFFFFFFFF AND DUP2 MSTORE PUSH1 0x20 ADD DUP7 DUP2 MSTORE PUSH1 0x20 ADD DUP6 DUP2 MSTORE POP SWAP1 POP DUP1 PUSH1 0x1 PUSH0 DUP10 PUSH20 0xFFFFFFFFFFFFFFFFFFFFFFFFFFFFFFFFFFFFFFFF AND PUSH20 0xFFFFFFFFFFFFFFFFFFFFFFFFFFFFFFFFFFFFFFFF AND DUP2 MSTORE PUSH1 0x20 ADD SWAP1 DUP2 MSTORE PUSH1 0x20 ADD PUSH0 KECCAK256 PUSH0 DUP6 DUP2 MSTORE PUSH1 0x20 ADD SWAP1 DUP2 MSTORE PUSH1 0x20 ADD PUSH0 KECCAK256 PUSH0 DUP3 ADD MLOAD DUP2 PUSH0 ADD SSTORE PUSH1 0x20 DUP3 ADD MLOAD DUP2 PUSH1 0x1 ADD PUSH0 PUSH2 0x100 EXP DUP2 SLOAD DUP2 PUSH20 0xFFFFFFFFFFFFFFFFFFFFFFFFFFFFFFFFFFFFFFFF MUL NOT AND SWAP1 DUP4 PUSH20 0xFFFFFFFFFFFFFFFFFFFFFFFFFFFFFFFFFFFFFFFF AND MUL OR SWAP1 SSTORE POP PUSH1 0x40 DUP3 ADD MLOAD DUP2 PUSH1 0x2 ADD SWAP1 DUP2 PUSH2 0x7B1 SWAP2 SWAP1 PUSH2 0x1C72 JUMP JUMPDEST POP PUSH1 0x60 DUP3 ADD MLOAD DUP2 PUSH1 0x3 ADD SSTORE SWAP1 POP POP POP POP POP POP POP POP POP JUMP JUMPDEST PUSH1 0x60 PUSH0 PUSH1 0x1 PUSH0 DUP6 PUSH20 0xFFFFFFFFFFFFFFFFFFFFFFFFFFFFFFFFFFFFFFFF AND PUSH20 0xFFFFFFFFFFFFFFFFFFFFFFFFFFFFFFFFFFFFFFFF AND DUP2 MSTORE PUSH1 0x20 ADD SWAP1 DUP2 MSTORE PUSH1 0x20 ADD PUSH0 KECCAK256 PUSH0 DUP5 DUP2 MSTORE PUSH1 0x20 ADD SWAP1 DUP2 MSTORE PUSH1 0x20 ADD PUSH0 KECCAK256 PUSH0 ADD SLOAD SUB PUSH2 0x85A JUMPI PUSH1 0x40 MLOAD PUSH32 0x8C379A000000000000000000000000000000000000000000000000000000000 DUP2 MSTORE PUSH1 0x4 ADD PUSH2 0x851 SWAP1 PUSH2 0x181C JUMP JUMPDEST PUSH1 0x40 MLOAD DUP1 SWAP2 SUB SWAP1 REVERT JUMPDEST PUSH0 PUSH1 0x1 PUSH0 DUP6 PUSH20 0xFFFFFFFFFFFFFFFFFFFFFFFFFFFFFFFFFFFFFFFF AND PUSH20 0xFFFFFFFFFFFFFFFFFFFFFFFFFFFFFFFFFFFFFFFF AND DUP2 MSTORE PUSH1 0x20 ADD SWAP1 DUP2 MSTORE PUSH1 0x20 ADD PUSH0 KECCAK256 PUSH0 DUP5 DUP2 MSTORE PUSH1 0x20 ADD SWAP1 DUP2 MSTORE PUSH1 0x20 ADD PUSH0 KECCAK256 PUSH1 0x40 MLOAD DUP1 PUSH1 0x80 ADD PUSH1 0x40 MSTORE SWAP1 DUP2 PUSH0 DUP3 ADD SLOAD DUP2 MSTORE PUSH1 0x20 ADD PUSH1 0x1 DUP3 ADD PUSH0 SWAP1 SLOAD SWAP1 PUSH2 0x100 EXP SWAP1 DIV PUSH20 0xFFFFFFFFFFFFFFFFFFFFFFFFFFFFFFFFFFFFFFFF AND PUSH20 0xFFFFFFFFFFFFFFFFFFFFFFFFFFFFFFFFFFFFFFFF AND PUSH20 0xFFFFFFFFFFFFFFFFFFFFFFFFFFFFFFFFFFFFFFFF AND DUP2 MSTORE PUSH1 0x20 ADD PUSH1 0x2 DUP3 ADD DUP1 SLOAD PUSH2 0x920 SWAP1 PUSH2 0x1867 JUMP JUMPDEST DUP1 PUSH1 0x1F ADD PUSH1 0x20 DUP1 SWAP2 DIV MUL PUSH1 0x20 ADD PUSH1 0x40 MLOAD SWAP1 DUP2 ADD PUSH1 0x40 MSTORE DUP1 SWAP3 SWAP2 SWAP1 DUP2 DUP2 MSTORE PUSH1 0x20 ADD DUP3 DUP1 SLOAD PUSH2 0x94C SWAP1 PUSH2 0x1867 JUMP JUMPDEST DUP1 ISZERO PUSH2 0x997 JUMPI DUP1 PUSH1 0x1F LT PUSH2 0x96E JUMPI PUSH2 0x100 DUP1 DUP4 SLOAD DIV MUL DUP4 MSTORE SWAP2 PUSH1 0x20 ADD SWAP2 PUSH2 0x997 JUMP JUMPDEST DUP3 ADD SWAP2 SWAP1 PUSH0 MSTORE PUSH1 0x20 PUSH0 KECCAK256 SWAP1 JUMPDEST DUP2 SLOAD DUP2 MSTORE SWAP1 PUSH1 0x1 ADD SWAP1 PUSH1 0x20 ADD DUP1 DUP4 GT PUSH2 0x97A JUMPI DUP3 SWAP1 SUB PUSH1 0x1F AND DUP3 ADD SWAP2 JUMPDEST POP POP POP POP POP DUP2 MSTORE PUSH1 0x20 ADD PUSH1 0x3 DUP3 ADD SLOAD DUP2 MSTORE POP POP SWAP1 POP DUP1 PUSH1 0x40 ADD MLOAD SWAP2 POP POP SWAP3 SWAP2 POP POP JUMP JUMPDEST PUSH0 DUP3 PUSH1 0x1 PUSH0 DUP7 PUSH20 0xFFFFFFFFFFFFFFFFFFFFFFFFFFFFFFFFFFFFFFFF AND PUSH20 0xFFFFFFFFFFFFFFFFFFFFFFFFFFFFFFFFFFFFFFFF AND DUP2 MSTORE PUSH1 0x20 ADD SWAP1 DUP2 MSTORE PUSH1 0x20 ADD PUSH0 KECCAK256 PUSH0 DUP6 DUP2 MSTORE PUSH1 0x20 ADD SWAP1 DUP2 MSTORE PUSH1 0x20 ADD PUSH0 KECCAK256 PUSH0 ADD SLOAD EQ PUSH2 0xA4B JUMPI PUSH1 0x40 MLOAD PUSH32 0x8C379A000000000000000000000000000000000000000000000000000000000 DUP2 MSTORE PUSH1 0x4 ADD PUSH2 0xA42 SWAP1 PUSH2 0x181C JUMP JUMPDEST PUSH1 0x40 MLOAD DUP1 SWAP2 SUB SWAP1 REVERT JUMPDEST PUSH0 PUSH1 0x1 PUSH0 DUP7 PUSH20 0xFFFFFFFFFFFFFFFFFFFFFFFFFFFFFFFFFFFFFFFF AND PUSH20 0xFFFFFFFFFFFFFFFFFFFFFFFFFFFFFFFFFFFFFFFF AND DUP2 MSTORE PUSH1 0x20 ADD SWAP1 DUP2 MSTORE PUSH1 0x20 ADD PUSH0 KECCAK256 PUSH0 DUP6 DUP2 MSTORE PUSH1 0x20 ADD SWAP1 DUP2 MSTORE PUSH1 0x20 ADD PUSH0 KECCAK256 SWAP1 POP DUP3 DUP2 PUSH1 0x3 ADD SLOAD LT ISZERO PUSH2 0xAE1 JUMPI PUSH1 0x40 MLOAD PUSH32 0x8C379A000000000000000000000000000000000000000000000000000000000 DUP2 MSTORE PUSH1 0x4 ADD PUSH2 0xAD8 SWAP1 PUSH2 0x1D8B JUMP JUMPDEST PUSH1 0x40 MLOAD DUP1 SWAP2 SUB SWAP1 REVERT JUMPDEST PUSH1 0x1 SWAP2 POP POP SWAP4 SWAP3 POP POP POP JUMP JUMPDEST PUSH0 DUP1 PUSH1 0x1 PUSH0 DUP6 PUSH20 0xFFFFFFFFFFFFFFFFFFFFFFFFFFFFFFFFFFFFFFFF AND PUSH20 0xFFFFFFFFFFFFFFFFFFFFFFFFFFFFFFFFFFFFFFFF AND DUP2 MSTORE PUSH1 0x20 ADD SWAP1 DUP2 MSTORE PUSH1 0x20 ADD PUSH0 KECCAK256 PUSH0 DUP5 DUP2 MSTORE PUSH1 0x20 ADD SWAP1 DUP2 MSTORE PUSH1 0x20 ADD PUSH0 KECCAK256 PUSH0 ADD SLOAD SUB PUSH2 0xB7E JUMPI PUSH1 0x40 MLOAD PUSH32 0x8C379A000000000000000000000000000000000000000000000000000000000 DUP2 MSTORE PUSH1 0x4 ADD PUSH2 0xB75 SWAP1 PUSH2 0x181C JUMP JUMPDEST PUSH1 0x40 MLOAD DUP1 SWAP2 SUB SWAP1 REVERT JUMPDEST PUSH0 PUSH1 0x1 PUSH0 DUP6 PUSH20 0xFFFFFFFFFFFFFFFFFFFFFFFFFFFFFFFFFFFFFFFF AND PUSH20 0xFFFFFFFFFFFFFFFFFFFFFFFFFFFFFFFFFFFFFFFF AND DUP2 MSTORE PUSH1 0x20 ADD SWAP1 DUP2 MSTORE PUSH1 0x20 ADD PUSH0 KECCAK256 PUSH0 DUP5 DUP2 MSTORE PUSH1 0x20 ADD SWAP1 DUP2 MSTORE PUSH1 0x20 ADD PUSH0 KECCAK256 PUSH1 0x2 ADD PUSH1 0x1 PUSH0 DUP7 PUSH20 0xFFFFFFFFFFFFFFFFFFFFFFFFFFFFFFFFFFFFFFFF AND PUSH20 0xFFFFFFFFFFFFFFFFFFFFFFFFFFFFFFFFFFFFFFFF AND DUP2 MSTORE PUSH1 0x20 ADD SWAP1 DUP2 MSTORE PUSH1 0x20 ADD PUSH0 KECCAK256 PUSH0 DUP6 DUP2 MSTORE PUSH1 0x20 ADD SWAP1 DUP2 MSTORE PUSH1 0x20 ADD PUSH0 KECCAK256 PUSH1 0x3 ADD SLOAD PUSH1 0x1 PUSH0 DUP8 PUSH20 0xFFFFFFFFFFFFFFFFFFFFFFFFFFFFFFFFFFFFFFFF AND PUSH20 0xFFFFFFFFFFFFFFFFFFFFFFFFFFFFFFFFFFFFFFFF AND DUP2 MSTORE PUSH1 0x20 ADD SWAP1 DUP2 MSTORE PUSH1 0x20 ADD PUSH0 KECCAK256 PUSH0 DUP7 DUP2 MSTORE PUSH1 0x20 ADD SWAP1 DUP2 MSTORE PUSH1 0x20 ADD PUSH0 KECCAK256 PUSH1 0x1 ADD PUSH0 SWAP1 SLOAD SWAP1 PUSH2 0x100 EXP SWAP1 DIV PUSH20 0xFFFFFFFFFFFFFFFFFFFFFFFFFFFFFFFFFFFFFFFF AND DUP7 PUSH1 0x40 MLOAD PUSH1 0x20 ADD PUSH2 0xCA1 SWAP5 SWAP4 SWAP3 SWAP2 SWAP1 PUSH2 0x1E29 JUMP JUMPDEST PUSH1 0x40 MLOAD PUSH1 0x20 DUP2 DUP4 SUB SUB DUP2 MSTORE SWAP1 PUSH1 0x40 MSTORE DUP1 MLOAD SWAP1 PUSH1 0x20 ADD KECCAK256 PUSH0 SHR SWAP1 POP DUP1 PUSH1 0x1 PUSH0 DUP7 PUSH20 0xFFFFFFFFFFFFFFFFFFFFFFFFFFFFFFFFFFFFFFFF AND PUSH20 0xFFFFFFFFFFFFFFFFFFFFFFFFFFFFFFFFFFFFFFFF AND DUP2 MSTORE PUSH1 0x20 ADD SWAP1 DUP2 MSTORE PUSH1 0x20 ADD PUSH0 KECCAK256 PUSH0 DUP6 DUP2 MSTORE PUSH1 0x20 ADD SWAP1 DUP2 MSTORE PUSH1 0x20 ADD PUSH0 KECCAK256 PUSH0 ADD SLOAD EQ PUSH2 0xD4B JUMPI PUSH1 0x40 MLOAD PUSH32 0x8C379A000000000000000000000000000000000000000000000000000000000 DUP2 MSTORE PUSH1 0x4 ADD PUSH2 0xD42 SWAP1 PUSH2 0x1EBC JUMP JUMPDEST PUSH1 0x40 MLOAD DUP1 SWAP2 SUB SWAP1 REVERT JUMPDEST PUSH1 0x1 PUSH0 DUP6 PUSH20 0xFFFFFFFFFFFFFFFFFFFFFFFFFFFFFFFFFFFFFFFF AND PUSH20 0xFFFFFFFFFFFFFFFFFFFFFFFFFFFFFFFFFFFFFFFF AND DUP2 MSTORE PUSH1 0x20 ADD SWAP1 DUP2 MSTORE PUSH1 0x20 ADD PUSH0 KECCAK256 PUSH0 DUP5 DUP2 MSTORE PUSH1 0x20 ADD SWAP1 DUP2 MSTORE PUSH1 0x20 ADD PUSH0 KECCAK256 PUSH0 DUP1 DUP3 ADD PUSH0 SWAP1 SSTORE PUSH1 0x1 DUP3 ADD PUSH0 PUSH2 0x100 EXP DUP2 SLOAD SWAP1 PUSH20 0xFFFFFFFFFFFFFFFFFFFFFFFFFFFFFFFFFFFFFFFF MUL NOT AND SWAP1 SSTORE PUSH1 0x2 DUP3 ADD PUSH0 PUSH2 0xDD3 SWAP2 SWAP1 PUSH2 0x132B JUMP JUMPDEST PUSH1 0x3 DUP3 ADD PUSH0 SWAP1 SSTORE POP POP PUSH0 PUSH1 0x1 PUSH0 DUP7 PUSH20 0xFFFFFFFFFFFFFFFFFFFFFFFFFFFFFFFFFFFFFFFF AND PUSH20 0xFFFFFFFFFFFFFFFFFFFFFFFFFFFFFFFFFFFFFFFF AND DUP2 MSTORE PUSH1 0x20 ADD SWAP1 DUP2 MSTORE PUSH1 0x20 ADD PUSH0 KECCAK256 PUSH0 DUP6 DUP2 MSTORE PUSH1 0x20 ADD SWAP1 DUP2 MSTORE PUSH1 0x20 ADD PUSH0 KECCAK256 PUSH0 ADD SLOAD SUB PUSH2 0xE3B JUMPI PUSH1 0x1 SWAP2 POP POP PUSH2 0xE40 JUMP JUMPDEST PUSH0 SWAP2 POP POP JUMPDEST SWAP3 SWAP2 POP POP JUMP JUMPDEST PUSH0 DUP1 PUSH1 0x1 PUSH0 DUP6 PUSH20 0xFFFFFFFFFFFFFFFFFFFFFFFFFFFFFFFFFFFFFFFF AND PUSH20 0xFFFFFFFFFFFFFFFFFFFFFFFFFFFFFFFFFFFFFFFF AND DUP2 MSTORE PUSH1 0x20 ADD SWAP1 DUP2 MSTORE PUSH1 0x20 ADD PUSH0 KECCAK256 PUSH0 DUP5 DUP2 MSTORE PUSH1 0x20 ADD SWAP1 DUP2 MSTORE PUSH1 0x20 ADD PUSH0 KECCAK256 PUSH0 ADD SLOAD SUB PUSH2 0xED7 JUMPI PUSH1 0x40 MLOAD PUSH32 0x8C379A000000000000000000000000000000000000000000000000000000000 DUP2 MSTORE PUSH1 0x4 ADD PUSH2 0xECE SWAP1 PUSH2 0x181C JUMP JUMPDEST PUSH1 0x40 MLOAD DUP1 SWAP2 SUB SWAP1 REVERT JUMPDEST PUSH1 0x1 PUSH0 DUP5 PUSH20 0xFFFFFFFFFFFFFFFFFFFFFFFFFFFFFFFFFFFFFFFF AND PUSH20 0xFFFFFFFFFFFFFFFFFFFFFFFFFFFFFFFFFFFFFFFF AND DUP2 MSTORE PUSH1 0x20 ADD SWAP1 DUP2 MSTORE PUSH1 0x20 ADD PUSH0 KECCAK256 PUSH0 DUP4 DUP2 MSTORE PUSH1 0x20 ADD SWAP1 DUP2 MSTORE PUSH1 0x20 ADD PUSH0 KECCAK256 PUSH0 ADD SLOAD SWAP1 POP SWAP3 SWAP2 POP POP JUMP JUMPDEST PUSH0 DUP1 PUSH1 0x60 PUSH0 DUP5 PUSH1 0x1 PUSH0 DUP9 PUSH20 0xFFFFFFFFFFFFFFFFFFFFFFFFFFFFFFFFFFFFFFFF AND PUSH20 0xFFFFFFFFFFFFFFFFFFFFFFFFFFFFFFFFFFFFFFFF AND DUP2 MSTORE PUSH1 0x20 ADD SWAP1 DUP2 MSTORE PUSH1 0x20 ADD PUSH0 KECCAK256 PUSH0 DUP8 DUP2 MSTORE PUSH1 0x20 ADD SWAP1 DUP2 MSTORE PUSH1 0x20 ADD PUSH0 KECCAK256 PUSH0 ADD SLOAD EQ PUSH2 0xFC3 JUMPI PUSH1 0x40 MLOAD PUSH32 0x8C379A000000000000000000000000000000000000000000000000000000000 DUP2 MSTORE PUSH1 0x4 ADD PUSH2 0xFBA SWAP1 PUSH2 0x181C JUMP JUMPDEST PUSH1 0x40 MLOAD DUP1 SWAP2 SUB SWAP1 REVERT JUMPDEST PUSH0 PUSH1 0x1 PUSH0 DUP9 PUSH20 0xFFFFFFFFFFFFFFFFFFFFFFFFFFFFFFFFFFFFFFFF AND PUSH20 0xFFFFFFFFFFFFFFFFFFFFFFFFFFFFFFFFFFFFFFFF AND DUP2 MSTORE PUSH1 0x20 ADD SWAP1 DUP2 MSTORE PUSH1 0x20 ADD PUSH0 KECCAK256 PUSH0 DUP8 DUP2 MSTORE PUSH1 0x20 ADD SWAP1 DUP2 MSTORE PUSH1 0x20 ADD PUSH0 KECCAK256 PUSH1 0x40 MLOAD DUP1 PUSH1 0x80 ADD PUSH1 0x40 MSTORE SWAP1 DUP2 PUSH0 DUP3 ADD SLOAD DUP2 MSTORE PUSH1 0x20 ADD PUSH1 0x1 DUP3 ADD PUSH0 SWAP1 SLOAD SWAP1 PUSH2 0x100 EXP SWAP1 DIV PUSH20 0xFFFFFFFFFFFFFFFFFFFFFFFFFFFFFFFFFFFFFFFF AND PUSH20 0xFFFFFFFFFFFFFFFFFFFFFFFFFFFFFFFFFFFFFFFF AND PUSH20 0xFFFFFFFFFFFFFFFFFFFFFFFFFFFFFFFFFFFFFFFF AND DUP2 MSTORE PUSH1 0x20 ADD PUSH1 0x2 DUP3 ADD DUP1 SLOAD PUSH2 0x1089 SWAP1 PUSH2 0x1867 JUMP JUMPDEST DUP1 PUSH1 0x1F ADD PUSH1 0x20 DUP1 SWAP2 DIV MUL PUSH1 0x20 ADD PUSH1 0x40 MLOAD SWAP1 DUP2 ADD PUSH1 0x40 MSTORE DUP1 SWAP3 SWAP2 SWAP1 DUP2 DUP2 MSTORE PUSH1 0x20 ADD DUP3 DUP1 SLOAD PUSH2 0x10B5 SWAP1 PUSH2 0x1867 JUMP JUMPDEST DUP1 ISZERO PUSH2 0x1100 JUMPI DUP1 PUSH1 0x1F LT PUSH2 0x10D7 JUMPI PUSH2 0x100 DUP1 DUP4 SLOAD DIV MUL DUP4 MSTORE SWAP2 PUSH1 0x20 ADD SWAP2 PUSH2 0x1100 JUMP JUMPDEST DUP3 ADD SWAP2 SWAP1 PUSH0 MSTORE PUSH1 0x20 PUSH0 KECCAK256 SWAP1 JUMPDEST DUP2 SLOAD DUP2 MSTORE SWAP1 PUSH1 0x1 ADD SWAP1 PUSH1 0x20 ADD DUP1 DUP4 GT PUSH2 0x10E3 JUMPI DUP3 SWAP1 SUB PUSH1 0x1F AND DUP3 ADD SWAP2 JUMPDEST POP POP POP POP POP DUP2 MSTORE PUSH1 0x20 ADD PUSH1 0x3 DUP3 ADD SLOAD DUP2 MSTORE POP POP SWAP1 POP DUP1 PUSH0 ADD MLOAD DUP2 PUSH1 0x20 ADD MLOAD DUP3 PUSH1 0x40 ADD MLOAD DUP4 PUSH1 0x60 ADD MLOAD SWAP5 POP SWAP5 POP SWAP5 POP SWAP5 POP POP SWAP3 SWAP6 SWAP2 SWAP5 POP SWAP3 POP JUMP JUMPDEST PUSH0 DUP1 PUSH1 0x1 PUSH0 DUP6 PUSH20 0xFFFFFFFFFFFFFFFFFFFFFFFFFFFFFFFFFFFFFFFF AND PUSH20 0xFFFFFFFFFFFFFFFFFFFFFFFFFFFFFFFFFFFFFFFF AND DUP2 MSTORE PUSH1 0x20 ADD SWAP1 DUP2 MSTORE PUSH1 0x20 ADD PUSH0 KECCAK256 PUSH0 DUP5 DUP2 MSTORE PUSH1 0x20 ADD SWAP1 DUP2 MSTORE PUSH1 0x20 ADD PUSH0 KECCAK256 PUSH0 ADD SLOAD SUB PUSH2 0x11CB JUMPI PUSH1 0x40 MLOAD PUSH32 0x8C379A000000000000000000000000000000000000000000000000000000000 DUP2 MSTORE PUSH1 0x4 ADD PUSH2 0x11C2 SWAP1 PUSH2 0x181C JUMP JUMPDEST PUSH1 0x40 MLOAD DUP1 SWAP2 SUB SWAP1 REVERT JUMPDEST PUSH0 PUSH1 0x1 PUSH0 DUP6 PUSH20 0xFFFFFFFFFFFFFFFFFFFFFFFFFFFFFFFFFFFFFFFF AND PUSH20 0xFFFFFFFFFFFFFFFFFFFFFFFFFFFFFFFFFFFFFFFF AND DUP2 MSTORE PUSH1 0x20 ADD SWAP1 DUP2 MSTORE PUSH1 0x20 ADD PUSH0 KECCAK256 PUSH0 DUP5 DUP2 MSTORE PUSH1 0x20 ADD SWAP1 DUP2 MSTORE PUSH1 0x20 ADD PUSH0 KECCAK256 PUSH1 0x40 MLOAD DUP1 PUSH1 0x80 ADD PUSH1 0x40 MSTORE SWAP1 DUP2 PUSH0 DUP3 ADD SLOAD DUP2 MSTORE PUSH1 0x20 ADD PUSH1 0x1 DUP3 ADD PUSH0 SWAP1 SLOAD SWAP1 PUSH2 0x100 EXP SWAP1 DIV PUSH20 0xFFFFFFFFFFFFFFFFFFFFFFFFFFFFFFFFFFFFFFFF AND PUSH20 0xFFFFFFFFFFFFFFFFFFFFFFFFFFFFFFFFFFFFFFFF AND PUSH20 0xFFFFFFFFFFFFFFFFFFFFFFFFFFFFFFFFFFFFFFFF AND DUP2 MSTORE PUSH1 0x20 ADD PUSH1 0x2 DUP3 ADD DUP1 SLOAD PUSH2 0x1291 SWAP1 PUSH2 0x1867 JUMP JUMPDEST DUP1 PUSH1 0x1F ADD PUSH1 0x20 DUP1 SWAP2 DIV MUL PUSH1 0x20 ADD PUSH1 0x40 MLOAD SWAP1 DUP2 ADD PUSH1 0x40 MSTORE DUP1 SWAP3 SWAP2 SWAP1 DUP2 DUP2 MSTORE PUSH1 0x20 ADD DUP3 DUP1 SLOAD PUSH2 0x12BD SWAP1 PUSH2 0x1867 JUMP JUMPDEST DUP1 ISZERO PUSH2 0x1308 JUMPI DUP1 PUSH1 0x1F LT PUSH2 0x12DF JUMPI PUSH2 0x100 DUP1 DUP4 SLOAD DIV MUL DUP4 MSTORE SWAP2 PUSH1 0x20 ADD SWAP2 PUSH2 0x1308 JUMP JUMPDEST DUP3 ADD SWAP2 SWAP1 PUSH0 MSTORE PUSH1 0x20 PUSH0 KECCAK256 SWAP1 JUMPDEST DUP2 SLOAD DUP2 MSTORE SWAP1 PUSH1 0x1 ADD SWAP1 PUSH1 0x20 ADD DUP1 DUP4 GT PUSH2 0x12EB JUMPI DUP3 SWAP1 SUB PUSH1 0x1F AND DUP3 ADD SWAP2 JUMPDEST POP POP POP POP POP DUP2 MSTORE PUSH1 0x20 ADD PUSH1 0x3 DUP3 ADD SLOAD DUP2 MSTORE POP POP SWAP1 POP DUP1 PUSH1 0x20 ADD MLOAD SWAP2 POP POP SWAP3 SWAP2 POP POP JUMP JUMPDEST POP DUP1 SLOAD PUSH2 0x1337 SWAP1 PUSH2 0x1867 JUMP JUMPDEST PUSH0 DUP3 SSTORE DUP1 PUSH1 0x1F LT PUSH2 0x1348 JUMPI POP PUSH2 0x1365 JUMP JUMPDEST PUSH1 0x1F ADD PUSH1 0x20 SWAP1 DIV SWAP1 PUSH0 MSTORE PUSH1 0x20 PUSH0 KECCAK256 SWAP1 DUP2 ADD SWAP1 PUSH2 0x1364 SWAP2 SWAP1 PUSH2 0x1368 JUMP JUMPDEST JUMPDEST POP JUMP JUMPDEST JUMPDEST DUP1 DUP3 GT ISZERO PUSH2 0x137F JUMPI PUSH0 DUP2 PUSH0 SWAP1 SSTORE POP PUSH1 0x1 ADD PUSH2 0x1369 JUMP JUMPDEST POP SWAP1 JUMP JUMPDEST PUSH0 PUSH1 0x40 MLOAD SWAP1 POP SWAP1 JUMP JUMPDEST PUSH0 DUP1 REVERT JUMPDEST PUSH0 DUP1 REVERT JUMPDEST PUSH0 PUSH20 0xFFFFFFFFFFFFFFFFFFFFFFFFFFFFFFFFFFFFFFFF DUP3 AND SWAP1 POP SWAP2 SWAP1 POP JUMP JUMPDEST PUSH0 PUSH2 0x13BD DUP3 PUSH2 0x1394 JUMP JUMPDEST SWAP1 POP SWAP2 SWAP1 POP JUMP JUMPDEST PUSH2 0x13CD DUP2 PUSH2 0x13B3 JUMP JUMPDEST DUP2 EQ PUSH2 0x13D7 JUMPI PUSH0 DUP1 REVERT JUMPDEST POP JUMP JUMPDEST PUSH0 DUP2 CALLDATALOAD SWAP1 POP PUSH2 0x13E8 DUP2 PUSH2 0x13C4 JUMP JUMPDEST SWAP3 SWAP2 POP POP JUMP JUMPDEST PUSH0 DUP2 SWAP1 POP SWAP2 SWAP1 POP JUMP JUMPDEST PUSH2 0x1400 DUP2 PUSH2 0x13EE JUMP JUMPDEST DUP2 EQ PUSH2 0x140A JUMPI PUSH0 DUP1 REVERT JUMPDEST POP JUMP JUMPDEST PUSH0 DUP2 CALLDATALOAD SWAP1 POP PUSH2 0x141B DUP2 PUSH2 0x13F7 JUMP JUMPDEST SWAP3 SWAP2 POP POP JUMP JUMPDEST PUSH0 DUP1 PUSH1 0x40 DUP4 DUP6 SUB SLT ISZERO PUSH2 0x1437 JUMPI PUSH2 0x1436 PUSH2 0x138C JUMP JUMPDEST JUMPDEST PUSH0 PUSH2 0x1444 DUP6 DUP3 DUP7 ADD PUSH2 0x13DA JUMP JUMPDEST SWAP3 POP POP PUSH1 0x20 PUSH2 0x1455 DUP6 DUP3 DUP7 ADD PUSH2 0x140D JUMP JUMPDEST SWAP2 POP POP SWAP3 POP SWAP3 SWAP1 POP JUMP JUMPDEST PUSH2 0x1468 DUP2 PUSH2 0x13EE JUMP JUMPDEST DUP3 MSTORE POP POP JUMP JUMPDEST PUSH0 PUSH1 0x20 DUP3 ADD SWAP1 POP PUSH2 0x1481 PUSH0 DUP4 ADD DUP5 PUSH2 0x145F JUMP JUMPDEST SWAP3 SWAP2 POP POP JUMP JUMPDEST PUSH0 DUP1 PUSH0 PUSH1 0x60 DUP5 DUP7 SUB SLT ISZERO PUSH2 0x149E JUMPI PUSH2 0x149D PUSH2 0x138C JUMP JUMPDEST JUMPDEST PUSH0 PUSH2 0x14AB DUP7 DUP3 DUP8 ADD PUSH2 0x13DA JUMP JUMPDEST SWAP4 POP POP PUSH1 0x20 PUSH2 0x14BC DUP7 DUP3 DUP8 ADD PUSH2 0x140D JUMP JUMPDEST SWAP3 POP POP PUSH1 0x40 PUSH2 0x14CD DUP7 DUP3 DUP8 ADD PUSH2 0x140D JUMP JUMPDEST SWAP2 POP POP SWAP3 POP SWAP3 POP SWAP3 JUMP JUMPDEST PUSH0 DUP2 ISZERO ISZERO SWAP1 POP SWAP2 SWAP1 POP JUMP JUMPDEST PUSH2 0x14EB DUP2 PUSH2 0x14D7 JUMP JUMPDEST DUP3 MSTORE POP POP JUMP JUMPDEST PUSH0 PUSH1 0x20 DUP3 ADD SWAP1 POP PUSH2 0x1504 PUSH0 DUP4 ADD DUP5 PUSH2 0x14E2 JUMP JUMPDEST SWAP3 SWAP2 POP POP JUMP JUMPDEST PUSH0 DUP1 REVERT JUMPDEST PUSH0 DUP1 REVERT JUMPDEST PUSH0 PUSH1 0x1F NOT PUSH1 0x1F DUP4 ADD AND SWAP1 POP SWAP2 SWAP1 POP JUMP JUMPDEST PUSH32 0x4E487B7100000000000000000000000000000000000000000000000000000000 PUSH0 MSTORE PUSH1 0x41 PUSH1 0x4 MSTORE PUSH1 0x24 PUSH0 REVERT JUMPDEST PUSH2 0x1558 DUP3 PUSH2 0x1512 JUMP JUMPDEST DUP2 ADD DUP2 DUP2 LT PUSH8 0xFFFFFFFFFFFFFFFF DUP3 GT OR ISZERO PUSH2 0x1577 JUMPI PUSH2 0x1576 PUSH2 0x1522 JUMP JUMPDEST JUMPDEST DUP1 PUSH1 0x40 MSTORE POP POP POP JUMP JUMPDEST PUSH0 PUSH2 0x1589 PUSH2 0x1383 JUMP JUMPDEST SWAP1 POP PUSH2 0x1595 DUP3 DUP3 PUSH2 0x154F JUMP JUMPDEST SWAP2 SWAP1 POP JUMP JUMPDEST PUSH0 PUSH8 0xFFFFFFFFFFFFFFFF DUP3 GT ISZERO PUSH2 0x15B4 JUMPI PUSH2 0x15B3 PUSH2 0x1522 JUMP JUMPDEST JUMPDEST PUSH2 0x15BD DUP3 PUSH2 0x1512 JUMP JUMPDEST SWAP1 POP PUSH1 0x20 DUP2 ADD SWAP1 POP SWAP2 SWAP1 POP JUMP JUMPDEST DUP3 DUP2 DUP4 CALLDATACOPY PUSH0 DUP4 DUP4 ADD MSTORE POP POP POP JUMP JUMPDEST PUSH0 PUSH2 0x15EA PUSH2 0x15E5 DUP5 PUSH2 0x159A JUMP JUMPDEST PUSH2 0x1580 JUMP JUMPDEST SWAP1 POP DUP3 DUP2 MSTORE PUSH1 0x20 DUP2 ADD DUP5 DUP5 DUP5 ADD GT ISZERO PUSH2 0x1606 JUMPI PUSH2 0x1605 PUSH2 0x150E JUMP JUMPDEST JUMPDEST PUSH2 0x1611 DUP5 DUP3 DUP6 PUSH2 0x15CA JUMP JUMPDEST POP SWAP4 SWAP3 POP POP POP JUMP JUMPDEST PUSH0 DUP3 PUSH1 0x1F DUP4 ADD SLT PUSH2 0x162D JUMPI PUSH2 0x162C PUSH2 0x150A JUMP JUMPDEST JUMPDEST DUP2 CALLDATALOAD PUSH2 0x163D DUP5 DUP3 PUSH1 0x20 DUP7 ADD PUSH2 0x15D8 JUMP JUMPDEST SWAP2 POP POP SWAP3 SWAP2 POP POP JUMP JUMPDEST PUSH0 DUP1 PUSH0 DUP1 PUSH1 0x80 DUP6 DUP8 SUB SLT ISZERO PUSH2 0x165E JUMPI PUSH2 0x165D PUSH2 0x138C JUMP JUMPDEST JUMPDEST PUSH0 PUSH2 0x166B DUP8 DUP3 DUP9 ADD PUSH2 0x13DA JUMP JUMPDEST SWAP5 POP POP PUSH1 0x20 PUSH2 0x167C DUP8 DUP3 DUP9 ADD PUSH2 0x13DA JUMP JUMPDEST SWAP4 POP POP PUSH1 0x40 DUP6 ADD CALLDATALOAD PUSH8 0xFFFFFFFFFFFFFFFF DUP2 GT ISZERO PUSH2 0x169D JUMPI PUSH2 0x169C PUSH2 0x1390 JUMP JUMPDEST JUMPDEST PUSH2 0x16A9 DUP8 DUP3 DUP9 ADD PUSH2 0x1619 JUMP JUMPDEST SWAP3 POP POP PUSH1 0x60 PUSH2 0x16BA DUP8 DUP3 DUP9 ADD PUSH2 0x140D JUMP JUMPDEST SWAP2 POP POP SWAP3 SWAP6 SWAP2 SWAP5 POP SWAP3 POP JUMP JUMPDEST PUSH0 DUP2 MLOAD SWAP1 POP SWAP2 SWAP1 POP JUMP JUMPDEST PUSH0 DUP3 DUP3 MSTORE PUSH1 0x20 DUP3 ADD SWAP1 POP SWAP3 SWAP2 POP POP JUMP JUMPDEST PUSH0 JUMPDEST DUP4 DUP2 LT ISZERO PUSH2 0x16FD JUMPI DUP1 DUP3 ADD MLOAD DUP2 DUP5 ADD MSTORE PUSH1 0x20 DUP2 ADD SWAP1 POP PUSH2 0x16E2 JUMP JUMPDEST PUSH0 DUP5 DUP5 ADD MSTORE POP POP POP POP JUMP JUMPDEST PUSH0 PUSH2 0x1712 DUP3 PUSH2 0x16C6 JUMP JUMPDEST PUSH2 0x171C DUP2 DUP6 PUSH2 0x16D0 JUMP JUMPDEST SWAP4 POP PUSH2 0x172C DUP2 DUP6 PUSH1 0x20 DUP7 ADD PUSH2 0x16E0 JUMP JUMPDEST PUSH2 0x1735 DUP2 PUSH2 0x1512 JUMP JUMPDEST DUP5 ADD SWAP2 POP POP SWAP3 SWAP2 POP POP JUMP JUMPDEST PUSH0 PUSH1 0x20 DUP3 ADD SWAP1 POP DUP2 DUP2 SUB PUSH0 DUP4 ADD MSTORE PUSH2 0x1758 DUP2 DUP5 PUSH2 0x1708 JUMP JUMPDEST SWAP1 POP SWAP3 SWAP2 POP POP JUMP JUMPDEST PUSH2 0x1769 DUP2 PUSH2 0x13B3 JUMP JUMPDEST DUP3 MSTORE POP POP JUMP JUMPDEST PUSH0 PUSH1 0x80 DUP3 ADD SWAP1 POP PUSH2 0x1782 PUSH0 DUP4 ADD DUP8 PUSH2 0x145F JUMP JUMPDEST PUSH2 0x178F PUSH1 0x20 DUP4 ADD DUP7 PUSH2 0x1760 JUMP JUMPDEST DUP2 DUP2 SUB PUSH1 0x40 DUP4 ADD MSTORE PUSH2 0x17A1 DUP2 DUP6 PUSH2 0x1708 JUMP JUMPDEST SWAP1 POP PUSH2 0x17B0 PUSH1 0x60 DUP4 ADD DUP5 PUSH2 0x145F JUMP JUMPDEST SWAP6 SWAP5 POP POP POP POP POP JUMP JUMPDEST PUSH0 PUSH1 0x20 DUP3 ADD SWAP1 POP PUSH2 0x17CC PUSH0 DUP4 ADD DUP5 PUSH2 0x1760 JUMP JUMPDEST SWAP3 SWAP2 POP POP JUMP JUMPDEST PUSH32 0x50617274697461206469204C61747465206E6F6E2070726573656E7465210000 PUSH0 DUP3 ADD MSTORE POP JUMP JUMPDEST PUSH0 PUSH2 0x1806 PUSH1 0x1E DUP4 PUSH2 0x16D0 JUMP JUMPDEST SWAP2 POP PUSH2 0x1811 DUP3 PUSH2 0x17D2 JUMP JUMPDEST PUSH1 0x20 DUP3 ADD SWAP1 POP SWAP2 SWAP1 POP JUMP JUMPDEST PUSH0 PUSH1 0x20 DUP3 ADD SWAP1 POP DUP2 DUP2 SUB PUSH0 DUP4 ADD MSTORE PUSH2 0x1833 DUP2 PUSH2 0x17FA JUMP JUMPDEST SWAP1 POP SWAP2 SWAP1 POP JUMP JUMPDEST PUSH32 0x4E487B7100000000000000000000000000000000000000000000000000000000 PUSH0 MSTORE PUSH1 0x22 PUSH1 0x4 MSTORE PUSH1 0x24 PUSH0 REVERT JUMPDEST PUSH0 PUSH1 0x2 DUP3 DIV SWAP1 POP PUSH1 0x1 DUP3 AND DUP1 PUSH2 0x187E JUMPI PUSH1 0x7F DUP3 AND SWAP2 POP JUMPDEST PUSH1 0x20 DUP3 LT DUP2 SUB PUSH2 0x1891 JUMPI PUSH2 0x1890 PUSH2 0x183A JUMP JUMPDEST JUMPDEST POP SWAP2 SWAP1 POP JUMP JUMPDEST PUSH32 0x5175616E746974612720696E736572697461206E6F6E20646973706F6E696269 PUSH0 DUP3 ADD MSTORE PUSH32 0x6C65210000000000000000000000000000000000000000000000000000000000 PUSH1 0x20 DUP3 ADD MSTORE POP JUMP JUMPDEST PUSH0 PUSH2 0x18F1 PUSH1 0x23 DUP4 PUSH2 0x16D0 JUMP JUMPDEST SWAP2 POP PUSH2 0x18FC DUP3 PUSH2 0x1897 JUMP JUMPDEST PUSH1 0x40 DUP3 ADD SWAP1 POP SWAP2 SWAP1 POP JUMP JUMPDEST PUSH0 PUSH1 0x20 DUP3 ADD SWAP1 POP DUP2 DUP2 SUB PUSH0 DUP4 ADD MSTORE PUSH2 0x191E DUP2 PUSH2 0x18E5 JUMP JUMPDEST SWAP1 POP SWAP2 SWAP1 POP JUMP JUMPDEST PUSH32 0x4E487B7100000000000000000000000000000000000000000000000000000000 PUSH0 MSTORE PUSH1 0x11 PUSH1 0x4 MSTORE PUSH1 0x24 PUSH0 REVERT JUMPDEST PUSH0 PUSH2 0x195C DUP3 PUSH2 0x13EE JUMP JUMPDEST SWAP2 POP PUSH2 0x1967 DUP4 PUSH2 0x13EE JUMP JUMPDEST SWAP3 POP DUP3 DUP3 SUB SWAP1 POP DUP2 DUP2 GT ISZERO PUSH2 0x197F JUMPI PUSH2 0x197E PUSH2 0x1925 JUMP JUMPDEST JUMPDEST SWAP3 SWAP2 POP POP JUMP JUMPDEST PUSH0 DUP2 SWAP1 POP SWAP3 SWAP2 POP POP JUMP JUMPDEST PUSH0 PUSH2 0x1999 DUP3 PUSH2 0x16C6 JUMP JUMPDEST PUSH2 0x19A3 DUP2 DUP6 PUSH2 0x1985 JUMP JUMPDEST SWAP4 POP PUSH2 0x19B3 DUP2 DUP6 PUSH1 0x20 DUP7 ADD PUSH2 0x16E0 JUMP JUMPDEST DUP1 DUP5 ADD SWAP2 POP POP SWAP3 SWAP2 POP POP JUMP JUMPDEST PUSH0 DUP2 SWAP1 POP SWAP2 SWAP1 POP JUMP JUMPDEST PUSH2 0x19D9 PUSH2 0x19D4 DUP3 PUSH2 0x13EE JUMP JUMPDEST PUSH2 0x19BF JUMP JUMPDEST DUP3 MSTORE POP POP JUMP JUMPDEST PUSH0 DUP2 PUSH1 0x60 SHL SWAP1 POP SWAP2 SWAP1 POP JUMP JUMPDEST PUSH0 PUSH2 0x19F5 DUP3 PUSH2 0x19DF JUMP JUMPDEST SWAP1 POP SWAP2 SWAP1 POP JUMP JUMPDEST PUSH0 PUSH2 0x1A06 DUP3 PUSH2 0x19EB JUMP JUMPDEST SWAP1 POP SWAP2 SWAP1 POP JUMP JUMPDEST PUSH2 0x1A1E PUSH2 0x1A19 DUP3 PUSH2 0x13B3 JUMP JUMPDEST PUSH2 0x19FC JUMP JUMPDEST DUP3 MSTORE POP POP JUMP JUMPDEST PUSH0 PUSH2 0x1A2F DUP3 DUP8 PUSH2 0x198F JUMP JUMPDEST SWAP2 POP PUSH2 0x1A3B DUP3 DUP7 PUSH2 0x19C8 JUMP JUMPDEST PUSH1 0x20 DUP3 ADD SWAP2 POP PUSH2 0x1A4B DUP3 DUP6 PUSH2 0x1A0D JUMP JUMPDEST PUSH1 0x14 DUP3 ADD SWAP2 POP PUSH2 0x1A5B DUP3 DUP5 PUSH2 0x1A0D JUMP JUMPDEST PUSH1 0x14 DUP3 ADD SWAP2 POP DUP2 SWAP1 POP SWAP6 SWAP5 POP POP POP POP POP JUMP JUMPDEST PUSH32 0x50617274697461206469204C6174746520676961272070726573656E74652100 PUSH0 DUP3 ADD MSTORE POP JUMP JUMPDEST PUSH0 PUSH2 0x1AA1 PUSH1 0x1F DUP4 PUSH2 0x16D0 JUMP JUMPDEST SWAP2 POP PUSH2 0x1AAC DUP3 PUSH2 0x1A6D JUMP JUMPDEST PUSH1 0x20 DUP3 ADD SWAP1 POP SWAP2 SWAP1 POP JUMP JUMPDEST PUSH0 PUSH1 0x20 DUP3 ADD SWAP1 POP DUP2 DUP2 SUB PUSH0 DUP4 ADD MSTORE PUSH2 0x1ACE DUP2 PUSH2 0x1A95 JUMP JUMPDEST SWAP1 POP SWAP2 SWAP1 POP JUMP JUMPDEST PUSH0 DUP2 SWAP1 POP DUP2 PUSH0 MSTORE PUSH1 0x20 PUSH0 KECCAK256 SWAP1 POP SWAP2 SWAP1 POP JUMP JUMPDEST PUSH0 PUSH1 0x20 PUSH1 0x1F DUP4 ADD DIV SWAP1 POP SWAP2 SWAP1 POP JUMP JUMPDEST PUSH0 DUP3 DUP3 SHL SWAP1 POP SWAP3 SWAP2 POP POP JUMP JUMPDEST PUSH0 PUSH1 0x8 DUP4 MUL PUSH2 0x1B31 PUSH32 0xFFFFFFFFFFFFFFFFFFFFFFFFFFFFFFFFFFFFFFFFFFFFFFFFFFFFFFFFFFFFFFFF DUP3 PUSH2 0x1AF6 JUMP JUMPDEST PUSH2 0x1B3B DUP7 DUP4 PUSH2 0x1AF6 JUMP JUMPDEST SWAP6 POP DUP1 NOT DUP5 AND SWAP4 POP DUP1 DUP7 AND DUP5 OR SWAP3 POP POP POP SWAP4 SWAP3 POP POP POP JUMP JUMPDEST PUSH0 DUP2 SWAP1 POP SWAP2 SWAP1 POP JUMP JUMPDEST PUSH0 PUSH2 0x1B76 PUSH2 0x1B71 PUSH2 0x1B6C DUP5 PUSH2 0x13EE JUMP JUMPDEST PUSH2 0x1B53 JUMP JUMPDEST PUSH2 0x13EE JUMP JUMPDEST SWAP1 POP SWAP2 SWAP1 POP JUMP JUMPDEST PUSH0 DUP2 SWAP1 POP SWAP2 SWAP1 POP JUMP JUMPDEST PUSH2 0x1B8F DUP4 PUSH2 0x1B5C JUMP JUMPDEST PUSH2 0x1BA3 PUSH2 0x1B9B DUP3 PUSH2 0x1B7D JUMP JUMPDEST DUP5 DUP5 SLOAD PUSH2 0x1B02 JUMP JUMPDEST DUP3 SSTORE POP POP POP POP JUMP JUMPDEST PUSH0 SWAP1 JUMP JUMPDEST PUSH2 0x1BB7 PUSH2 0x1BAB JUMP JUMPDEST PUSH2 0x1BC2 DUP2 DUP5 DUP5 PUSH2 0x1B86 JUMP JUMPDEST POP POP POP JUMP JUMPDEST JUMPDEST DUP2 DUP2 LT ISZERO PUSH2 0x1BE5 JUMPI PUSH2 0x1BDA PUSH0 DUP3 PUSH2 0x1BAF JUMP JUMPDEST PUSH1 0x1 DUP2 ADD SWAP1 POP PUSH2 0x1BC8 JUMP JUMPDEST POP POP JUMP JUMPDEST PUSH1 0x1F DUP3 GT ISZERO PUSH2 0x1C2A JUMPI PUSH2 0x1BFB DUP2 PUSH2 0x1AD5 JUMP JUMPDEST PUSH2 0x1C04 DUP5 PUSH2 0x1AE7 JUMP JUMPDEST DUP2 ADD PUSH1 0x20 DUP6 LT ISZERO PUSH2 0x1C13 JUMPI DUP2 SWAP1 POP JUMPDEST PUSH2 0x1C27 PUSH2 0x1C1F DUP6 PUSH2 0x1AE7 JUMP JUMPDEST DUP4 ADD DUP3 PUSH2 0x1BC7 JUMP JUMPDEST POP POP JUMPDEST POP POP POP JUMP JUMPDEST PUSH0 DUP3 DUP3 SHR SWAP1 POP SWAP3 SWAP2 POP POP JUMP JUMPDEST PUSH0 PUSH2 0x1C4A PUSH0 NOT DUP5 PUSH1 0x8 MUL PUSH2 0x1C2F JUMP JUMPDEST NOT DUP1 DUP4 AND SWAP2 POP POP SWAP3 SWAP2 POP POP JUMP JUMPDEST PUSH0 PUSH2 0x1C62 DUP4 DUP4 PUSH2 0x1C3B JUMP JUMPDEST SWAP2 POP DUP3 PUSH1 0x2 MUL DUP3 OR SWAP1 POP SWAP3 SWAP2 POP POP JUMP JUMPDEST PUSH2 0x1C7B DUP3 PUSH2 0x16C6 JUMP JUMPDEST PUSH8 0xFFFFFFFFFFFFFFFF DUP2 GT ISZERO PUSH2 0x1C94 JUMPI PUSH2 0x1C93 PUSH2 0x1522 JUMP JUMPDEST JUMPDEST PUSH2 0x1C9E DUP3 SLOAD PUSH2 0x1867 JUMP JUMPDEST PUSH2 0x1CA9 DUP3 DUP3 DUP6 PUSH2 0x1BE9 JUMP JUMPDEST PUSH0 PUSH1 0x20 SWAP1 POP PUSH1 0x1F DUP4 GT PUSH1 0x1 DUP2 EQ PUSH2 0x1CDA JUMPI PUSH0 DUP5 ISZERO PUSH2 0x1CC8 JUMPI DUP3 DUP8 ADD MLOAD SWAP1 POP JUMPDEST PUSH2 0x1CD2 DUP6 DUP3 PUSH2 0x1C57 JUMP JUMPDEST DUP7 SSTORE POP PUSH2 0x1D39 JUMP JUMPDEST PUSH1 0x1F NOT DUP5 AND PUSH2 0x1CE8 DUP7 PUSH2 0x1AD5 JUMP JUMPDEST PUSH0 JUMPDEST DUP3 DUP2 LT ISZERO PUSH2 0x1D0F JUMPI DUP5 DUP10 ADD MLOAD DUP3 SSTORE PUSH1 0x1 DUP3 ADD SWAP2 POP PUSH1 0x20 DUP6 ADD SWAP5 POP PUSH1 0x20 DUP2 ADD SWAP1 POP PUSH2 0x1CEA JUMP JUMPDEST DUP7 DUP4 LT ISZERO PUSH2 0x1D2C JUMPI DUP5 DUP10 ADD MLOAD PUSH2 0x1D28 PUSH1 0x1F DUP10 AND DUP3 PUSH2 0x1C3B JUMP JUMPDEST DUP4 SSTORE POP JUMPDEST PUSH1 0x1 PUSH1 0x2 DUP9 MUL ADD DUP9 SSTORE POP POP POP JUMPDEST POP POP POP POP POP POP JUMP JUMPDEST PUSH32 0x5175616E74697479206E6F742056616C69642100000000000000000000000000 PUSH0 DUP3 ADD MSTORE POP JUMP JUMPDEST PUSH0 PUSH2 0x1D75 PUSH1 0x13 DUP4 PUSH2 0x16D0 JUMP JUMPDEST SWAP2 POP PUSH2 0x1D80 DUP3 PUSH2 0x1D41 JUMP JUMPDEST PUSH1 0x20 DUP3 ADD SWAP1 POP SWAP2 SWAP1 POP JUMP JUMPDEST PUSH0 PUSH1 0x20 DUP3 ADD SWAP1 POP DUP2 DUP2 SUB PUSH0 DUP4 ADD MSTORE PUSH2 0x1DA2 DUP2 PUSH2 0x1D69 JUMP JUMPDEST SWAP1 POP SWAP2 SWAP1 POP JUMP JUMPDEST PUSH0 DUP2 SLOAD PUSH2 0x1DB5 DUP2 PUSH2 0x1867 JUMP JUMPDEST PUSH2 0x1DBF DUP2 DUP7 PUSH2 0x1985 JUMP JUMPDEST SWAP5 POP PUSH1 0x1 DUP3 AND PUSH0 DUP2 EQ PUSH2 0x1DD9 JUMPI PUSH1 0x1 DUP2 EQ PUSH2 0x1DEE JUMPI PUSH2 0x1E20 JUMP JUMPDEST PUSH1 0xFF NOT DUP4 AND DUP7 MSTORE DUP2 ISZERO ISZERO DUP3 MUL DUP7 ADD SWAP4 POP PUSH2 0x1E20 JUMP JUMPDEST PUSH2 0x1DF7 DUP6 PUSH2 0x1AD5 JUMP JUMPDEST PUSH0 JUMPDEST DUP4 DUP2 LT ISZERO PUSH2 0x1E18 JUMPI DUP2 SLOAD DUP2 DUP10 ADD MSTORE PUSH1 0x1 DUP3 ADD SWAP2 POP PUSH1 0x20 DUP2 ADD SWAP1 POP PUSH2 0x1DF9 JUMP JUMPDEST DUP4 DUP9 ADD SWAP6 POP POP POP JUMPDEST POP POP POP SWAP3 SWAP2 POP POP JUMP JUMPDEST PUSH0 PUSH2 0x1E34 DUP3 DUP8 PUSH2 0x1DA9 JUMP JUMPDEST SWAP2 POP PUSH2 0x1E40 DUP3 DUP7 PUSH2 0x19C8 JUMP JUMPDEST PUSH1 0x20 DUP3 ADD SWAP2 POP PUSH2 0x1E50 DUP3 DUP6 PUSH2 0x1A0D JUMP JUMPDEST PUSH1 0x14 DUP3 ADD SWAP2 POP PUSH2 0x1E60 DUP3 DUP5 PUSH2 0x1A0D JUMP JUMPDEST PUSH1 0x14 DUP3 ADD SWAP2 POP DUP2 SWAP1 POP SWAP6 SWAP5 POP POP POP POP POP JUMP JUMPDEST PUSH32 0x5574656E7465206E6F6E204175746F72697A7A61746F21000000000000000000 PUSH0 DUP3 ADD MSTORE POP JUMP JUMPDEST PUSH0 PUSH2 0x1EA6 PUSH1 0x17 DUP4 PUSH2 0x16D0 JUMP JUMPDEST SWAP2 POP PUSH2 0x1EB1 DUP3 PUSH2 0x1E72 JUMP JUMPDEST PUSH1 0x20 DUP3 ADD SWAP1 POP SWAP2 SWAP1 POP JUMP JUMPDEST PUSH0 PUSH1 0x20 DUP3 ADD SWAP1 POP DUP2 DUP2 SUB PUSH0 DUP4 ADD MSTORE PUSH2 0x1ED3 DUP2 PUSH2 0x1E9A JUMP JUMPDEST SWAP1 POP SWAP2 SWAP1 POP JUMP INVALID LOG2 PUSH5 0x6970667358 0x22 SLT KECCAK256 0x1F 0xE9 SAR 0xC3 0xE8 PUSH24 0x81FF558B4F573AC5CF6B1EC60BDF651B9E750310D2D2068A 0xC6 SWAP12 PUSH5 0x736F6C6343 STOP ADDMOD AND STOP CALLER "
				},
				"gasEstimates": {
					"creation": {
						"codeDepositCost": "1590400",
						"executionCost": "25929",
						"totalCost": "1616329"
					},
					"external": {
						"addMilkBatch(address,address,string,uint256)": "infinite",
						"checkMilkBatch(address,uint256,uint256)": "infinite",
						"deleteMilkBatch(address,uint256)": "infinite",
						"detractMilkBatchQuantity(address,uint256,uint256)": "infinite",
						"getExpirationDate(address,uint256)": "infinite",
						"getId(address,uint256)": "infinite",
						"getMilkBatch(address,uint256)": "infinite",
						"getQuantity(address,uint256)": "infinite",
						"getWalletMilkHub(address,uint256)": "infinite"
					}
				},
				"methodIdentifiers": {
					"addMilkBatch(address,address,string,uint256)": "99c6526e",
					"checkMilkBatch(address,uint256,uint256)": "a7489269",
					"deleteMilkBatch(address,uint256)": "ad9c10a1",
					"detractMilkBatchQuantity(address,uint256,uint256)": "31f4cbbd",
					"getExpirationDate(address,uint256)": "9f2b6898",
					"getId(address,uint256)": "c5d3e11d",
					"getMilkBatch(address,uint256)": "ce4fcf23",
					"getQuantity(address,uint256)": "1e073fcf",
					"getWalletMilkHub(address,uint256)": "d0edfccc"
				}
			},
			"storageLayout": {
				"storage": [
					{
						"astId": 3,
						"contract": "contracts/Actor/CheeseProducer-smart-contract/inventory/CheeseProducerMilkBatchStorage.sol:CheeseProducerMilkBatchStorage",
						"label": "cheeseProducerOrg",
						"offset": 0,
						"slot": "0",
						"type": "t_address"
					},
					{
						"astId": 28,
						"contract": "contracts/Actor/CheeseProducer-smart-contract/inventory/CheeseProducerMilkBatchStorage.sol:CheeseProducerMilkBatchStorage",
						"label": "purchasedMilkBatches",
						"offset": 0,
						"slot": "1",
						"type": "t_mapping(t_address,t_mapping(t_uint256,t_struct(MilkBatch)21_storage))"
					}
				],
				"types": {
					"t_address": {
						"encoding": "inplace",
						"label": "address",
						"numberOfBytes": "20"
					},
					"t_mapping(t_address,t_mapping(t_uint256,t_struct(MilkBatch)21_storage))": {
						"encoding": "mapping",
						"key": "t_address",
						"label": "mapping(address => mapping(uint256 => struct CheeseProducerMilkBatchStorage.MilkBatch))",
						"numberOfBytes": "32",
						"value": "t_mapping(t_uint256,t_struct(MilkBatch)21_storage)"
					},
					"t_mapping(t_uint256,t_struct(MilkBatch)21_storage)": {
						"encoding": "mapping",
						"key": "t_uint256",
						"label": "mapping(uint256 => struct CheeseProducerMilkBatchStorage.MilkBatch)",
						"numberOfBytes": "32",
						"value": "t_struct(MilkBatch)21_storage"
					},
					"t_string_storage": {
						"encoding": "bytes",
						"label": "string",
						"numberOfBytes": "32"
					},
					"t_struct(MilkBatch)21_storage": {
						"encoding": "inplace",
						"label": "struct CheeseProducerMilkBatchStorage.MilkBatch",
						"members": [
							{
								"astId": 14,
								"contract": "contracts/Actor/CheeseProducer-smart-contract/inventory/CheeseProducerMilkBatchStorage.sol:CheeseProducerMilkBatchStorage",
								"label": "id",
								"offset": 0,
								"slot": "0",
								"type": "t_uint256"
							},
							{
								"astId": 16,
								"contract": "contracts/Actor/CheeseProducer-smart-contract/inventory/CheeseProducerMilkBatchStorage.sol:CheeseProducerMilkBatchStorage",
								"label": "walletMilkHub",
								"offset": 0,
								"slot": "1",
								"type": "t_address"
							},
							{
								"astId": 18,
								"contract": "contracts/Actor/CheeseProducer-smart-contract/inventory/CheeseProducerMilkBatchStorage.sol:CheeseProducerMilkBatchStorage",
								"label": "expirationDate",
								"offset": 0,
								"slot": "2",
								"type": "t_string_storage"
							},
							{
								"astId": 20,
								"contract": "contracts/Actor/CheeseProducer-smart-contract/inventory/CheeseProducerMilkBatchStorage.sol:CheeseProducerMilkBatchStorage",
								"label": "quantity",
								"offset": 0,
								"slot": "3",
								"type": "t_uint256"
							}
						],
						"numberOfBytes": "128"
					},
					"t_uint256": {
						"encoding": "inplace",
						"label": "uint256",
						"numberOfBytes": "32"
					}
				}
			},
			"userdoc": {
				"kind": "user",
				"methods": {},
				"version": 1
			}
		}
	}
}