{
	"Filiera-Token-SmartContract/contracts/Actor/MilkHub-smart-contract/MilkHubStorage.sol": {
		"MilkHubStorage": {
			"abi": [
				{
					"inputs": [],
					"stateMutability": "nonpayable",
					"type": "constructor"
				},
				{
					"inputs": [
						{
							"internalType": "string",
							"name": "_fullName",
							"type": "string"
						},
						{
							"internalType": "string",
							"name": "_password",
							"type": "string"
						},
						{
							"internalType": "string",
							"name": "_email",
							"type": "string"
						},
						{
							"internalType": "address",
							"name": "walletMilkHub",
							"type": "address"
						}
					],
					"name": "addUser",
					"outputs": [],
					"stateMutability": "nonpayable",
					"type": "function"
				},
				{
					"inputs": [
						{
							"internalType": "address",
							"name": "walletMilkHub",
							"type": "address"
						}
					],
					"name": "deleteUser",
					"outputs": [
						{
							"internalType": "bool",
							"name": "value",
							"type": "bool"
						}
					],
					"stateMutability": "nonpayable",
					"type": "function"
				},
				{
					"inputs": [
						{
							"internalType": "address",
							"name": "walletMilkHub",
							"type": "address"
						}
					],
					"name": "getMilkHubToCheeseProducer",
					"outputs": [
						{
							"internalType": "string",
							"name": "",
							"type": "string"
						},
						{
							"internalType": "string",
							"name": "",
							"type": "string"
						}
					],
					"stateMutability": "view",
					"type": "function"
				},
				{
					"inputs": [
						{
							"internalType": "address",
							"name": "walletMilkHub",
							"type": "address"
						}
					],
					"name": "getUser",
					"outputs": [
						{
							"internalType": "uint256",
							"name": "",
							"type": "uint256"
						},
						{
							"internalType": "string",
							"name": "",
							"type": "string"
						},
						{
							"internalType": "string",
							"name": "",
							"type": "string"
						},
						{
							"internalType": "string",
							"name": "",
							"type": "string"
						},
						{
							"internalType": "uint256",
							"name": "",
							"type": "uint256"
						}
					],
					"stateMutability": "view",
					"type": "function"
				},
				{
					"inputs": [
						{
							"internalType": "address",
							"name": "walletMilkHub",
							"type": "address"
						}
					],
					"name": "isUserPresent",
					"outputs": [
						{
							"internalType": "bool",
							"name": "",
							"type": "bool"
						}
					],
					"stateMutability": "view",
					"type": "function"
				},
				{
					"inputs": [
						{
							"internalType": "address",
							"name": "walletMilkHub",
							"type": "address"
						},
						{
							"internalType": "string",
							"name": "_email",
							"type": "string"
						},
						{
							"internalType": "string",
							"name": "_password",
							"type": "string"
						}
					],
					"name": "loginUser",
					"outputs": [
						{
							"internalType": "bool",
							"name": "",
							"type": "bool"
						}
					],
					"stateMutability": "view",
					"type": "function"
				}
			],
			"devdoc": {
				"kind": "dev",
				"methods": {},
				"version": 1
			},
			"evm": {
				"assembly": "    /* \"Filiera-Token-SmartContract/contracts/Actor/MilkHub-smart-contract/MilkHubStorage.sol\":106:5652  contract MilkHubStorage is IUserStorageInterface {... */\n  mstore(0x40, 0x80)\n    /* \"Filiera-Token-SmartContract/contracts/Actor/MilkHub-smart-contract/MilkHubStorage.sol\":256:311  constructor(){... */\n  callvalue\n  dup1\n  iszero\n  tag_1\n  jumpi\n  0x00\n  dup1\n  revert\ntag_1:\n  pop\n    /* \"Filiera-Token-SmartContract/contracts/Actor/MilkHub-smart-contract/MilkHubStorage.sol\":293:303  msg.sender */\n  caller\n    /* \"Filiera-Token-SmartContract/contracts/Actor/MilkHub-smart-contract/MilkHubStorage.sol\":280:290  MilkHubOrg */\n  0x00\n  dup1\n    /* \"Filiera-Token-SmartContract/contracts/Actor/MilkHub-smart-contract/MilkHubStorage.sol\":280:303  MilkHubOrg = msg.sender */\n  0x0100\n  exp\n  dup2\n  sload\n  dup2\n  0xffffffffffffffffffffffffffffffffffffffff\n  mul\n  not\n  and\n  swap1\n  dup4\n  0xffffffffffffffffffffffffffffffffffffffff\n  and\n  mul\n  or\n  swap1\n  sstore\n  pop\n    /* \"Filiera-Token-SmartContract/contracts/Actor/MilkHub-smart-contract/MilkHubStorage.sol\":106:5652  contract MilkHubStorage is IUserStorageInterface {... */\n  dataSize(sub_0)\n  dup1\n  dataOffset(sub_0)\n  0x00\n  codecopy\n  0x00\n  return\nstop\n\nsub_0: assembly {\n        /* \"Filiera-Token-SmartContract/contracts/Actor/MilkHub-smart-contract/MilkHubStorage.sol\":106:5652  contract MilkHubStorage is IUserStorageInterface {... */\n      mstore(0x40, 0x80)\n      callvalue\n      dup1\n      iszero\n      tag_1\n      jumpi\n      0x00\n      dup1\n      revert\n    tag_1:\n      pop\n      jumpi(tag_2, lt(calldatasize, 0x04))\n      shr(0xe0, calldataload(0x00))\n      dup1\n      0x06f22b04\n      eq\n      tag_3\n      jumpi\n      dup1\n      0x5c60f226\n      eq\n      tag_4\n      jumpi\n      dup1\n      0x6775f34e\n      eq\n      tag_5\n      jumpi\n      dup1\n      0x6f77926b\n      eq\n      tag_6\n      jumpi\n      dup1\n      0xa5578807\n      eq\n      tag_7\n      jumpi\n      dup1\n      0xb48ff0f1\n      eq\n      tag_8\n      jumpi\n    tag_2:\n      0x00\n      dup1\n      revert\n        /* \"Filiera-Token-SmartContract/contracts/Actor/MilkHub-smart-contract/MilkHubStorage.sol\":2318:3167  function loginUser(address walletMilkHub, string memory _email, string memory _password) external view returns(bool){... */\n    tag_3:\n      tag_9\n      0x04\n      dup1\n      calldatasize\n      sub\n      dup2\n      add\n      swap1\n      tag_10\n      swap2\n      swap1\n      tag_11\n      jump\t// in\n    tag_10:\n      tag_12\n      jump\t// in\n    tag_9:\n      mload(0x40)\n      tag_13\n      swap2\n      swap1\n      tag_14\n      jump\t// in\n    tag_13:\n      mload(0x40)\n      dup1\n      swap2\n      sub\n      swap1\n      return\n        /* \"Filiera-Token-SmartContract/contracts/Actor/MilkHub-smart-contract/MilkHubStorage.sol\":3894:4599  function deleteUser(address walletMilkHub) external returns(bool value){... */\n    tag_4:\n      tag_15\n      0x04\n      dup1\n      calldatasize\n      sub\n      dup2\n      add\n      swap1\n      tag_16\n      swap2\n      swap1\n      tag_17\n      jump\t// in\n    tag_16:\n      tag_18\n      jump\t// in\n    tag_15:\n      mload(0x40)\n      tag_19\n      swap2\n      swap1\n      tag_14\n      jump\t// in\n    tag_19:\n      mload(0x40)\n      dup1\n      swap2\n      sub\n      swap1\n      return\n        /* \"Filiera-Token-SmartContract/contracts/Actor/MilkHub-smart-contract/MilkHubStorage.sol\":4900:5245  function getMilkHubToCheeseProducer(address walletMilkHub) external view returns (string memory, string memory){... */\n    tag_5:\n      tag_20\n      0x04\n      dup1\n      calldatasize\n      sub\n      dup2\n      add\n      swap1\n      tag_21\n      swap2\n      swap1\n      tag_17\n      jump\t// in\n    tag_21:\n      tag_22\n      jump\t// in\n    tag_20:\n      mload(0x40)\n      tag_23\n      swap3\n      swap2\n      swap1\n      tag_24\n      jump\t// in\n    tag_23:\n      mload(0x40)\n      dup1\n      swap2\n      sub\n      swap1\n      return\n        /* \"Filiera-Token-SmartContract/contracts/Actor/MilkHub-smart-contract/MilkHubStorage.sol\":3333:3801  function getUser(address walletMilkHub) external  view returns (uint256, string memory, string memory, string memory, uint256) {... */\n    tag_6:\n      tag_25\n      0x04\n      dup1\n      calldatasize\n      sub\n      dup2\n      add\n      swap1\n      tag_26\n      swap2\n      swap1\n      tag_17\n      jump\t// in\n    tag_26:\n      tag_27\n      jump\t// in\n    tag_25:\n      mload(0x40)\n      tag_28\n      swap6\n      swap5\n      swap4\n      swap3\n      swap2\n      swap1\n      tag_29\n      jump\t// in\n    tag_28:\n      mload(0x40)\n      dup1\n      swap2\n      sub\n      swap1\n      return\n        /* \"Filiera-Token-SmartContract/contracts/Actor/MilkHub-smart-contract/MilkHubStorage.sol\":5417:5641  function isUserPresent(address walletMilkHub) external view returns(bool){... */\n    tag_7:\n      tag_30\n      0x04\n      dup1\n      calldatasize\n      sub\n      dup2\n      add\n      swap1\n      tag_31\n      swap2\n      swap1\n      tag_17\n      jump\t// in\n    tag_31:\n      tag_32\n      jump\t// in\n    tag_30:\n      mload(0x40)\n      tag_33\n      swap2\n      swap1\n      tag_14\n      jump\t// in\n    tag_33:\n      mload(0x40)\n      dup1\n      swap2\n      sub\n      swap1\n      return\n        /* \"Filiera-Token-SmartContract/contracts/Actor/MilkHub-smart-contract/MilkHubStorage.sol\":834:2058  function addUser(string memory _fullName, string memory _password,string memory _email, address walletMilkHub) external {... */\n    tag_8:\n      tag_34\n      0x04\n      dup1\n      calldatasize\n      sub\n      dup2\n      add\n      swap1\n      tag_35\n      swap2\n      swap1\n      tag_36\n      jump\t// in\n    tag_35:\n      tag_37\n      jump\t// in\n    tag_34:\n      stop\n        /* \"Filiera-Token-SmartContract/contracts/Actor/MilkHub-smart-contract/MilkHubStorage.sol\":2318:3167  function loginUser(address walletMilkHub, string memory _email, string memory _password) external view returns(bool){... */\n    tag_12:\n        /* \"Filiera-Token-SmartContract/contracts/Actor/MilkHub-smart-contract/MilkHubStorage.sol\":2429:2433  bool */\n      0x00\n        /* \"Filiera-Token-SmartContract/contracts/Actor/MilkHub-smart-contract/MilkHubStorage.sol\":2488:2489  0 */\n      dup1\n        /* \"Filiera-Token-SmartContract/contracts/Actor/MilkHub-smart-contract/MilkHubStorage.sol\":2455:2490  address(walletMilkHub)!= address(0) */\n      0xffffffffffffffffffffffffffffffffffffffff\n      and\n        /* \"Filiera-Token-SmartContract/contracts/Actor/MilkHub-smart-contract/MilkHubStorage.sol\":2463:2476  walletMilkHub */\n      dup5\n        /* \"Filiera-Token-SmartContract/contracts/Actor/MilkHub-smart-contract/MilkHubStorage.sol\":2455:2490  address(walletMilkHub)!= address(0) */\n      0xffffffffffffffffffffffffffffffffffffffff\n      and\n      sub\n        /* \"Filiera-Token-SmartContract/contracts/Actor/MilkHub-smart-contract/MilkHubStorage.sol\":2447:2535  require(address(walletMilkHub)!= address(0), \"Address utilizzato non valido, pari a 0!\") */\n      tag_39\n      jumpi\n      mload(0x40)\n      0x08c379a000000000000000000000000000000000000000000000000000000000\n      dup2\n      mstore\n      0x04\n      add\n      tag_40\n      swap1\n      tag_41\n      jump\t// in\n    tag_40:\n      mload(0x40)\n      dup1\n      swap2\n      sub\n      swap1\n      revert\n    tag_39:\n        /* \"Filiera-Token-SmartContract/contracts/Actor/MilkHub-smart-contract/MilkHubStorage.sol\":2661:2671  MilkHubOrg */\n      0x00\n      dup1\n      sload\n      swap1\n      0x0100\n      exp\n      swap1\n      div\n      0xffffffffffffffffffffffffffffffffffffffff\n      and\n        /* \"Filiera-Token-SmartContract/contracts/Actor/MilkHub-smart-contract/MilkHubStorage.sol\":2644:2671  walletMilkHub == MilkHubOrg */\n      0xffffffffffffffffffffffffffffffffffffffff\n      and\n        /* \"Filiera-Token-SmartContract/contracts/Actor/MilkHub-smart-contract/MilkHubStorage.sol\":2644:2657  walletMilkHub */\n      dup5\n        /* \"Filiera-Token-SmartContract/contracts/Actor/MilkHub-smart-contract/MilkHubStorage.sol\":2644:2671  walletMilkHub == MilkHubOrg */\n      0xffffffffffffffffffffffffffffffffffffffff\n      and\n      eq\n        /* \"Filiera-Token-SmartContract/contracts/Actor/MilkHub-smart-contract/MilkHubStorage.sol\":2636:2694  require(walletMilkHub == MilkHubOrg,\"Address non Valido!\") */\n      tag_42\n      jumpi\n      mload(0x40)\n      0x08c379a000000000000000000000000000000000000000000000000000000000\n      dup2\n      mstore\n      0x04\n      add\n      tag_43\n      swap1\n      tag_44\n      jump\t// in\n    tag_43:\n      mload(0x40)\n      dup1\n      swap2\n      sub\n      swap1\n      revert\n    tag_42:\n        /* \"Filiera-Token-SmartContract/contracts/Actor/MilkHub-smart-contract/MilkHubStorage.sol\":2820:2821  0 */\n      0x00\n        /* \"Filiera-Token-SmartContract/contracts/Actor/MilkHub-smart-contract/MilkHubStorage.sol\":2792:2800  milkhubs */\n      0x01\n        /* \"Filiera-Token-SmartContract/contracts/Actor/MilkHub-smart-contract/MilkHubStorage.sol\":2792:2815  milkhubs[walletMilkHub] */\n      0x00\n        /* \"Filiera-Token-SmartContract/contracts/Actor/MilkHub-smart-contract/MilkHubStorage.sol\":2801:2814  walletMilkHub */\n      dup7\n        /* \"Filiera-Token-SmartContract/contracts/Actor/MilkHub-smart-contract/MilkHubStorage.sol\":2792:2815  milkhubs[walletMilkHub] */\n      0xffffffffffffffffffffffffffffffffffffffff\n      and\n      0xffffffffffffffffffffffffffffffffffffffff\n      and\n      dup2\n      mstore\n      0x20\n      add\n      swap1\n      dup2\n      mstore\n      0x20\n      add\n      0x00\n      keccak256\n        /* \"Filiera-Token-SmartContract/contracts/Actor/MilkHub-smart-contract/MilkHubStorage.sol\":2792:2818  milkhubs[walletMilkHub].id */\n      0x00\n      add\n      sload\n        /* \"Filiera-Token-SmartContract/contracts/Actor/MilkHub-smart-contract/MilkHubStorage.sol\":2792:2821  milkhubs[walletMilkHub].id!=0 */\n      sub\n        /* \"Filiera-Token-SmartContract/contracts/Actor/MilkHub-smart-contract/MilkHubStorage.sol\":2783:2848  require( milkhubs[walletMilkHub].id!=0  , \"Utente non presente!\") */\n      tag_45\n      jumpi\n      mload(0x40)\n      0x08c379a000000000000000000000000000000000000000000000000000000000\n      dup2\n      mstore\n      0x04\n      add\n      tag_46\n      swap1\n      tag_47\n      jump\t// in\n    tag_46:\n      mload(0x40)\n      dup1\n      swap2\n      sub\n      swap1\n      revert\n    tag_45:\n        /* \"Filiera-Token-SmartContract/contracts/Actor/MilkHub-smart-contract/MilkHubStorage.sol\":2892:2915  MilkHub storage milkhub */\n      0x00\n        /* \"Filiera-Token-SmartContract/contracts/Actor/MilkHub-smart-contract/MilkHubStorage.sol\":2918:2926  milkhubs */\n      0x01\n        /* \"Filiera-Token-SmartContract/contracts/Actor/MilkHub-smart-contract/MilkHubStorage.sol\":2918:2941  milkhubs[walletMilkHub] */\n      0x00\n        /* \"Filiera-Token-SmartContract/contracts/Actor/MilkHub-smart-contract/MilkHubStorage.sol\":2927:2940  walletMilkHub */\n      dup7\n        /* \"Filiera-Token-SmartContract/contracts/Actor/MilkHub-smart-contract/MilkHubStorage.sol\":2918:2941  milkhubs[walletMilkHub] */\n      0xffffffffffffffffffffffffffffffffffffffff\n      and\n      0xffffffffffffffffffffffffffffffffffffffff\n      and\n      dup2\n      mstore\n      0x20\n      add\n      swap1\n      dup2\n      mstore\n      0x20\n      add\n      0x00\n      keccak256\n        /* \"Filiera-Token-SmartContract/contracts/Actor/MilkHub-smart-contract/MilkHubStorage.sol\":2892:2941  MilkHub storage milkhub = milkhubs[walletMilkHub] */\n      swap1\n      pop\n        /* \"Filiera-Token-SmartContract/contracts/Actor/MilkHub-smart-contract/MilkHubStorage.sol\":3140:3146  _email */\n      dup4\n        /* \"Filiera-Token-SmartContract/contracts/Actor/MilkHub-smart-contract/MilkHubStorage.sol\":3148:3157  _password */\n      dup4\n        /* \"Filiera-Token-SmartContract/contracts/Actor/MilkHub-smart-contract/MilkHubStorage.sol\":3123:3158  abi.encodePacked(_email, _password) */\n      add(0x20, mload(0x40))\n      tag_48\n      swap3\n      swap2\n      swap1\n      tag_49\n      jump\t// in\n    tag_48:\n      mload(0x40)\n      0x20\n      dup2\n      dup4\n      sub\n      sub\n      dup2\n      mstore\n      swap1\n      0x40\n      mstore\n        /* \"Filiera-Token-SmartContract/contracts/Actor/MilkHub-smart-contract/MilkHubStorage.sol\":3113:3159  keccak256(abi.encodePacked(_email, _password)) */\n      dup1\n      mload\n      swap1\n      0x20\n      add\n      keccak256\n        /* \"Filiera-Token-SmartContract/contracts/Actor/MilkHub-smart-contract/MilkHubStorage.sol\":3076:3083  milkhub */\n      dup2\n        /* \"Filiera-Token-SmartContract/contracts/Actor/MilkHub-smart-contract/MilkHubStorage.sol\":3076:3089  milkhub.email */\n      0x03\n      add\n        /* \"Filiera-Token-SmartContract/contracts/Actor/MilkHub-smart-contract/MilkHubStorage.sol\":3091:3098  milkhub */\n      dup3\n        /* \"Filiera-Token-SmartContract/contracts/Actor/MilkHub-smart-contract/MilkHubStorage.sol\":3091:3107  milkhub.password */\n      0x02\n      add\n        /* \"Filiera-Token-SmartContract/contracts/Actor/MilkHub-smart-contract/MilkHubStorage.sol\":3059:3108  abi.encodePacked(milkhub.email, milkhub.password) */\n      add(0x20, mload(0x40))\n      tag_50\n      swap3\n      swap2\n      swap1\n      tag_51\n      jump\t// in\n    tag_50:\n      mload(0x40)\n      0x20\n      dup2\n      dup4\n      sub\n      sub\n      dup2\n      mstore\n      swap1\n      0x40\n      mstore\n        /* \"Filiera-Token-SmartContract/contracts/Actor/MilkHub-smart-contract/MilkHubStorage.sol\":3049:3109  keccak256(abi.encodePacked(milkhub.email, milkhub.password)) */\n      dup1\n      mload\n      swap1\n      0x20\n      add\n      keccak256\n        /* \"Filiera-Token-SmartContract/contracts/Actor/MilkHub-smart-contract/MilkHubStorage.sol\":3049:3159  keccak256(abi.encodePacked(milkhub.email, milkhub.password)) == keccak256(abi.encodePacked(_email, _password)) */\n      eq\n        /* \"Filiera-Token-SmartContract/contracts/Actor/MilkHub-smart-contract/MilkHubStorage.sol\":3042:3159  return keccak256(abi.encodePacked(milkhub.email, milkhub.password)) == keccak256(abi.encodePacked(_email, _password)) */\n      swap2\n      pop\n      pop\n        /* \"Filiera-Token-SmartContract/contracts/Actor/MilkHub-smart-contract/MilkHubStorage.sol\":2318:3167  function loginUser(address walletMilkHub, string memory _email, string memory _password) external view returns(bool){... */\n      swap4\n      swap3\n      pop\n      pop\n      pop\n      jump\t// out\n        /* \"Filiera-Token-SmartContract/contracts/Actor/MilkHub-smart-contract/MilkHubStorage.sol\":3894:4599  function deleteUser(address walletMilkHub) external returns(bool value){... */\n    tag_18:\n        /* \"Filiera-Token-SmartContract/contracts/Actor/MilkHub-smart-contract/MilkHubStorage.sol\":3954:3964  bool value */\n      0x00\n        /* \"Filiera-Token-SmartContract/contracts/Actor/MilkHub-smart-contract/MilkHubStorage.sol\":4046:4047  0 */\n      dup1\n        /* \"Filiera-Token-SmartContract/contracts/Actor/MilkHub-smart-contract/MilkHubStorage.sol\":4018:4026  milkhubs */\n      0x01\n        /* \"Filiera-Token-SmartContract/contracts/Actor/MilkHub-smart-contract/MilkHubStorage.sol\":4018:4041  milkhubs[walletMilkHub] */\n      0x00\n        /* \"Filiera-Token-SmartContract/contracts/Actor/MilkHub-smart-contract/MilkHubStorage.sol\":4027:4040  walletMilkHub */\n      dup5\n        /* \"Filiera-Token-SmartContract/contracts/Actor/MilkHub-smart-contract/MilkHubStorage.sol\":4018:4041  milkhubs[walletMilkHub] */\n      0xffffffffffffffffffffffffffffffffffffffff\n      and\n      0xffffffffffffffffffffffffffffffffffffffff\n      and\n      dup2\n      mstore\n      0x20\n      add\n      swap1\n      dup2\n      mstore\n      0x20\n      add\n      0x00\n      keccak256\n        /* \"Filiera-Token-SmartContract/contracts/Actor/MilkHub-smart-contract/MilkHubStorage.sol\":4018:4044  milkhubs[walletMilkHub].id */\n      0x00\n      add\n      sload\n        /* \"Filiera-Token-SmartContract/contracts/Actor/MilkHub-smart-contract/MilkHubStorage.sol\":4018:4047  milkhubs[walletMilkHub].id!=0 */\n      sub\n        /* \"Filiera-Token-SmartContract/contracts/Actor/MilkHub-smart-contract/MilkHubStorage.sol\":4010:4072  require(milkhubs[walletMilkHub].id!=0, \"Utente non presente!\") */\n      tag_53\n      jumpi\n      mload(0x40)\n      0x08c379a000000000000000000000000000000000000000000000000000000000\n      dup2\n      mstore\n      0x04\n      add\n      tag_54\n      swap1\n      tag_47\n      jump\t// in\n    tag_54:\n      mload(0x40)\n      dup1\n      swap2\n      sub\n      swap1\n      revert\n    tag_53:\n        /* \"Filiera-Token-SmartContract/contracts/Actor/MilkHub-smart-contract/MilkHubStorage.sol\":4085:4106  uint256 lastIdMilkHub */\n      0x00\n        /* \"Filiera-Token-SmartContract/contracts/Actor/MilkHub-smart-contract/MilkHubStorage.sol\":4158:4166  milkhubs */\n      0x01\n        /* \"Filiera-Token-SmartContract/contracts/Actor/MilkHub-smart-contract/MilkHubStorage.sol\":4158:4181  milkhubs[walletMilkHub] */\n      0x00\n        /* \"Filiera-Token-SmartContract/contracts/Actor/MilkHub-smart-contract/MilkHubStorage.sol\":4167:4180  walletMilkHub */\n      dup5\n        /* \"Filiera-Token-SmartContract/contracts/Actor/MilkHub-smart-contract/MilkHubStorage.sol\":4158:4181  milkhubs[walletMilkHub] */\n      0xffffffffffffffffffffffffffffffffffffffff\n      and\n      0xffffffffffffffffffffffffffffffffffffffff\n      and\n      dup2\n      mstore\n      0x20\n      add\n      swap1\n      dup2\n      mstore\n      0x20\n      add\n      0x00\n      keccak256\n        /* \"Filiera-Token-SmartContract/contracts/Actor/MilkHub-smart-contract/MilkHubStorage.sol\":4158:4190  milkhubs[walletMilkHub].fullName */\n      0x01\n      add\n        /* \"Filiera-Token-SmartContract/contracts/Actor/MilkHub-smart-contract/MilkHubStorage.sol\":4205:4213  milkhubs */\n      0x01\n        /* \"Filiera-Token-SmartContract/contracts/Actor/MilkHub-smart-contract/MilkHubStorage.sol\":4205:4228  milkhubs[walletMilkHub] */\n      0x00\n        /* \"Filiera-Token-SmartContract/contracts/Actor/MilkHub-smart-contract/MilkHubStorage.sol\":4214:4227  walletMilkHub */\n      dup6\n        /* \"Filiera-Token-SmartContract/contracts/Actor/MilkHub-smart-contract/MilkHubStorage.sol\":4205:4228  milkhubs[walletMilkHub] */\n      0xffffffffffffffffffffffffffffffffffffffff\n      and\n      0xffffffffffffffffffffffffffffffffffffffff\n      and\n      dup2\n      mstore\n      0x20\n      add\n      swap1\n      dup2\n      mstore\n      0x20\n      add\n      0x00\n      keccak256\n        /* \"Filiera-Token-SmartContract/contracts/Actor/MilkHub-smart-contract/MilkHubStorage.sol\":4205:4237  milkhubs[walletMilkHub].password */\n      0x02\n      add\n        /* \"Filiera-Token-SmartContract/contracts/Actor/MilkHub-smart-contract/MilkHubStorage.sol\":4252:4260  milkhubs */\n      0x01\n        /* \"Filiera-Token-SmartContract/contracts/Actor/MilkHub-smart-contract/MilkHubStorage.sol\":4252:4275  milkhubs[walletMilkHub] */\n      0x00\n        /* \"Filiera-Token-SmartContract/contracts/Actor/MilkHub-smart-contract/MilkHubStorage.sol\":4261:4274  walletMilkHub */\n      dup7\n        /* \"Filiera-Token-SmartContract/contracts/Actor/MilkHub-smart-contract/MilkHubStorage.sol\":4252:4275  milkhubs[walletMilkHub] */\n      0xffffffffffffffffffffffffffffffffffffffff\n      and\n      0xffffffffffffffffffffffffffffffffffffffff\n      and\n      dup2\n      mstore\n      0x20\n      add\n      swap1\n      dup2\n      mstore\n      0x20\n      add\n      0x00\n      keccak256\n        /* \"Filiera-Token-SmartContract/contracts/Actor/MilkHub-smart-contract/MilkHubStorage.sol\":4252:4281  milkhubs[walletMilkHub].email */\n      0x03\n      add\n        /* \"Filiera-Token-SmartContract/contracts/Actor/MilkHub-smart-contract/MilkHubStorage.sol\":4296:4309  walletMilkHub */\n      dup6\n        /* \"Filiera-Token-SmartContract/contracts/Actor/MilkHub-smart-contract/MilkHubStorage.sol\":4127:4327  abi.encodePacked(... */\n      add(0x20, mload(0x40))\n      tag_55\n      swap5\n      swap4\n      swap3\n      swap2\n      swap1\n      tag_56\n      jump\t// in\n    tag_55:\n      mload(0x40)\n      0x20\n      dup2\n      dup4\n      sub\n      sub\n      dup2\n      mstore\n      swap1\n      0x40\n      mstore\n        /* \"Filiera-Token-SmartContract/contracts/Actor/MilkHub-smart-contract/MilkHubStorage.sol\":4117:4328  keccak256(abi.encodePacked(... */\n      dup1\n      mload\n      swap1\n      0x20\n      add\n      keccak256\n        /* \"Filiera-Token-SmartContract/contracts/Actor/MilkHub-smart-contract/MilkHubStorage.sol\":4109:4329  uint256(keccak256(abi.encodePacked(... */\n      0x00\n      shr\n        /* \"Filiera-Token-SmartContract/contracts/Actor/MilkHub-smart-contract/MilkHubStorage.sol\":4085:4329  uint256 lastIdMilkHub = uint256(keccak256(abi.encodePacked(... */\n      swap1\n      pop\n        /* \"Filiera-Token-SmartContract/contracts/Actor/MilkHub-smart-contract/MilkHubStorage.sol\":4377:4390  lastIdMilkHub */\n      dup1\n        /* \"Filiera-Token-SmartContract/contracts/Actor/MilkHub-smart-contract/MilkHubStorage.sol\":4349:4357  milkhubs */\n      0x01\n        /* \"Filiera-Token-SmartContract/contracts/Actor/MilkHub-smart-contract/MilkHubStorage.sol\":4349:4372  milkhubs[walletMilkHub] */\n      0x00\n        /* \"Filiera-Token-SmartContract/contracts/Actor/MilkHub-smart-contract/MilkHubStorage.sol\":4358:4371  walletMilkHub */\n      dup6\n        /* \"Filiera-Token-SmartContract/contracts/Actor/MilkHub-smart-contract/MilkHubStorage.sol\":4349:4372  milkhubs[walletMilkHub] */\n      0xffffffffffffffffffffffffffffffffffffffff\n      and\n      0xffffffffffffffffffffffffffffffffffffffff\n      and\n      dup2\n      mstore\n      0x20\n      add\n      swap1\n      dup2\n      mstore\n      0x20\n      add\n      0x00\n      keccak256\n        /* \"Filiera-Token-SmartContract/contracts/Actor/MilkHub-smart-contract/MilkHubStorage.sol\":4349:4375  milkhubs[walletMilkHub].id */\n      0x00\n      add\n      sload\n        /* \"Filiera-Token-SmartContract/contracts/Actor/MilkHub-smart-contract/MilkHubStorage.sol\":4349:4390  milkhubs[walletMilkHub].id==lastIdMilkHub */\n      eq\n        /* \"Filiera-Token-SmartContract/contracts/Actor/MilkHub-smart-contract/MilkHubStorage.sol\":4340:4418  require (milkhubs[walletMilkHub].id==lastIdMilkHub, \"Utente non Autorizzato!\") */\n      tag_57\n      jumpi\n      mload(0x40)\n      0x08c379a000000000000000000000000000000000000000000000000000000000\n      dup2\n      mstore\n      0x04\n      add\n      tag_58\n      swap1\n      tag_59\n      jump\t// in\n    tag_58:\n      mload(0x40)\n      dup1\n      swap2\n      sub\n      swap1\n      revert\n    tag_57:\n        /* \"Filiera-Token-SmartContract/contracts/Actor/MilkHub-smart-contract/MilkHubStorage.sol\":4438:4446  milkhubs */\n      0x01\n        /* \"Filiera-Token-SmartContract/contracts/Actor/MilkHub-smart-contract/MilkHubStorage.sol\":4438:4461  milkhubs[walletMilkHub] */\n      0x00\n        /* \"Filiera-Token-SmartContract/contracts/Actor/MilkHub-smart-contract/MilkHubStorage.sol\":4447:4460  walletMilkHub */\n      dup5\n        /* \"Filiera-Token-SmartContract/contracts/Actor/MilkHub-smart-contract/MilkHubStorage.sol\":4438:4461  milkhubs[walletMilkHub] */\n      0xffffffffffffffffffffffffffffffffffffffff\n      and\n      0xffffffffffffffffffffffffffffffffffffffff\n      and\n      dup2\n      mstore\n      0x20\n      add\n      swap1\n      dup2\n      mstore\n      0x20\n      add\n      0x00\n      keccak256\n      0x00\n        /* \"Filiera-Token-SmartContract/contracts/Actor/MilkHub-smart-contract/MilkHubStorage.sol\":4431:4461  delete milkhubs[walletMilkHub] */\n      dup1\n      dup3\n      add\n      0x00\n      swap1\n      sstore\n      0x01\n      dup3\n      add\n      0x00\n      tag_60\n      swap2\n      swap1\n      tag_61\n      jump\t// in\n    tag_60:\n      0x02\n      dup3\n      add\n      0x00\n      tag_62\n      swap2\n      swap1\n      tag_61\n      jump\t// in\n    tag_62:\n      0x03\n      dup3\n      add\n      0x00\n      tag_63\n      swap2\n      swap1\n      tag_61\n      jump\t// in\n    tag_63:\n      0x04\n      dup3\n      add\n      0x00\n      swap1\n      sstore\n      pop\n      pop\n        /* \"Filiera-Token-SmartContract/contracts/Actor/MilkHub-smart-contract/MilkHubStorage.sol\":4507:4508  0 */\n      0x00\n        /* \"Filiera-Token-SmartContract/contracts/Actor/MilkHub-smart-contract/MilkHubStorage.sol\":4477:4485  milkhubs */\n      0x01\n        /* \"Filiera-Token-SmartContract/contracts/Actor/MilkHub-smart-contract/MilkHubStorage.sol\":4477:4500  milkhubs[walletMilkHub] */\n      0x00\n        /* \"Filiera-Token-SmartContract/contracts/Actor/MilkHub-smart-contract/MilkHubStorage.sol\":4486:4499  walletMilkHub */\n      dup6\n        /* \"Filiera-Token-SmartContract/contracts/Actor/MilkHub-smart-contract/MilkHubStorage.sol\":4477:4500  milkhubs[walletMilkHub] */\n      0xffffffffffffffffffffffffffffffffffffffff\n      and\n      0xffffffffffffffffffffffffffffffffffffffff\n      and\n      dup2\n      mstore\n      0x20\n      add\n      swap1\n      dup2\n      mstore\n      0x20\n      add\n      0x00\n      keccak256\n        /* \"Filiera-Token-SmartContract/contracts/Actor/MilkHub-smart-contract/MilkHubStorage.sol\":4477:4503  milkhubs[walletMilkHub].id */\n      0x00\n      add\n      sload\n        /* \"Filiera-Token-SmartContract/contracts/Actor/MilkHub-smart-contract/MilkHubStorage.sol\":4477:4508  milkhubs[walletMilkHub].id == 0 */\n      sub\n        /* \"Filiera-Token-SmartContract/contracts/Actor/MilkHub-smart-contract/MilkHubStorage.sol\":4474:4592  if(milkhubs[walletMilkHub].id == 0 ){... */\n      tag_64\n      jumpi\n        /* \"Filiera-Token-SmartContract/contracts/Actor/MilkHub-smart-contract/MilkHubStorage.sol\":4532:4536  true */\n      0x01\n        /* \"Filiera-Token-SmartContract/contracts/Actor/MilkHub-smart-contract/MilkHubStorage.sol\":4525:4536  return true */\n      swap2\n      pop\n      pop\n      jump(tag_52)\n        /* \"Filiera-Token-SmartContract/contracts/Actor/MilkHub-smart-contract/MilkHubStorage.sol\":4474:4592  if(milkhubs[walletMilkHub].id == 0 ){... */\n    tag_64:\n        /* \"Filiera-Token-SmartContract/contracts/Actor/MilkHub-smart-contract/MilkHubStorage.sol\":4575:4580  false */\n      0x00\n        /* \"Filiera-Token-SmartContract/contracts/Actor/MilkHub-smart-contract/MilkHubStorage.sol\":4568:4580  return false */\n      swap2\n      pop\n      pop\n        /* \"Filiera-Token-SmartContract/contracts/Actor/MilkHub-smart-contract/MilkHubStorage.sol\":3894:4599  function deleteUser(address walletMilkHub) external returns(bool value){... */\n    tag_52:\n      swap2\n      swap1\n      pop\n      jump\t// out\n        /* \"Filiera-Token-SmartContract/contracts/Actor/MilkHub-smart-contract/MilkHubStorage.sol\":4900:5245  function getMilkHubToCheeseProducer(address walletMilkHub) external view returns (string memory, string memory){... */\n    tag_22:\n        /* \"Filiera-Token-SmartContract/contracts/Actor/MilkHub-smart-contract/MilkHubStorage.sol\":4982:4995  string memory */\n      0x60\n        /* \"Filiera-Token-SmartContract/contracts/Actor/MilkHub-smart-contract/MilkHubStorage.sol\":4997:5010  string memory */\n      dup1\n        /* \"Filiera-Token-SmartContract/contracts/Actor/MilkHub-smart-contract/MilkHubStorage.sol\":5097:5098  0 */\n      0x00\n        /* \"Filiera-Token-SmartContract/contracts/Actor/MilkHub-smart-contract/MilkHubStorage.sol\":5069:5077  milkhubs */\n      0x01\n        /* \"Filiera-Token-SmartContract/contracts/Actor/MilkHub-smart-contract/MilkHubStorage.sol\":5069:5092  milkhubs[walletMilkHub] */\n      0x00\n        /* \"Filiera-Token-SmartContract/contracts/Actor/MilkHub-smart-contract/MilkHubStorage.sol\":5078:5091  walletMilkHub */\n      dup6\n        /* \"Filiera-Token-SmartContract/contracts/Actor/MilkHub-smart-contract/MilkHubStorage.sol\":5069:5092  milkhubs[walletMilkHub] */\n      0xffffffffffffffffffffffffffffffffffffffff\n      and\n      0xffffffffffffffffffffffffffffffffffffffff\n      and\n      dup2\n      mstore\n      0x20\n      add\n      swap1\n      dup2\n      mstore\n      0x20\n      add\n      0x00\n      keccak256\n        /* \"Filiera-Token-SmartContract/contracts/Actor/MilkHub-smart-contract/MilkHubStorage.sol\":5069:5095  milkhubs[walletMilkHub].id */\n      0x00\n      add\n      sload\n        /* \"Filiera-Token-SmartContract/contracts/Actor/MilkHub-smart-contract/MilkHubStorage.sol\":5069:5098  milkhubs[walletMilkHub].id!=0 */\n      sub\n        /* \"Filiera-Token-SmartContract/contracts/Actor/MilkHub-smart-contract/MilkHubStorage.sol\":5061:5123  require(milkhubs[walletMilkHub].id!=0, \"Utente non presente!\") */\n      tag_67\n      jumpi\n      mload(0x40)\n      0x08c379a000000000000000000000000000000000000000000000000000000000\n      dup2\n      mstore\n      0x04\n      add\n      tag_68\n      swap1\n      tag_47\n      jump\t// in\n    tag_68:\n      mload(0x40)\n      dup1\n      swap2\n      sub\n      swap1\n      revert\n    tag_67:\n        /* \"Filiera-Token-SmartContract/contracts/Actor/MilkHub-smart-contract/MilkHubStorage.sol\":5136:5159  MilkHub storage milkhub */\n      0x00\n        /* \"Filiera-Token-SmartContract/contracts/Actor/MilkHub-smart-contract/MilkHubStorage.sol\":5162:5170  milkhubs */\n      0x01\n        /* \"Filiera-Token-SmartContract/contracts/Actor/MilkHub-smart-contract/MilkHubStorage.sol\":5162:5185  milkhubs[walletMilkHub] */\n      0x00\n        /* \"Filiera-Token-SmartContract/contracts/Actor/MilkHub-smart-contract/MilkHubStorage.sol\":5171:5184  walletMilkHub */\n      dup6\n        /* \"Filiera-Token-SmartContract/contracts/Actor/MilkHub-smart-contract/MilkHubStorage.sol\":5162:5185  milkhubs[walletMilkHub] */\n      0xffffffffffffffffffffffffffffffffffffffff\n      and\n      0xffffffffffffffffffffffffffffffffffffffff\n      and\n      dup2\n      mstore\n      0x20\n      add\n      swap1\n      dup2\n      mstore\n      0x20\n      add\n      0x00\n      keccak256\n        /* \"Filiera-Token-SmartContract/contracts/Actor/MilkHub-smart-contract/MilkHubStorage.sol\":5136:5185  MilkHub storage milkhub = milkhubs[walletMilkHub] */\n      swap1\n      pop\n        /* \"Filiera-Token-SmartContract/contracts/Actor/MilkHub-smart-contract/MilkHubStorage.sol\":5206:5213  milkhub */\n      dup1\n        /* \"Filiera-Token-SmartContract/contracts/Actor/MilkHub-smart-contract/MilkHubStorage.sol\":5206:5222  milkhub.fullName */\n      0x01\n      add\n        /* \"Filiera-Token-SmartContract/contracts/Actor/MilkHub-smart-contract/MilkHubStorage.sol\":5223:5230  milkhub */\n      dup2\n        /* \"Filiera-Token-SmartContract/contracts/Actor/MilkHub-smart-contract/MilkHubStorage.sol\":5223:5236  milkhub.email */\n      0x03\n      add\n        /* \"Filiera-Token-SmartContract/contracts/Actor/MilkHub-smart-contract/MilkHubStorage.sol\":5198:5237  return (milkhub.fullName,milkhub.email) */\n      dup2\n      dup1\n      sload\n      tag_69\n      swap1\n      tag_70\n      jump\t// in\n    tag_69:\n      dup1\n      0x1f\n      add\n      0x20\n      dup1\n      swap2\n      div\n      mul\n      0x20\n      add\n      mload(0x40)\n      swap1\n      dup2\n      add\n      0x40\n      mstore\n      dup1\n      swap3\n      swap2\n      swap1\n      dup2\n      dup2\n      mstore\n      0x20\n      add\n      dup3\n      dup1\n      sload\n      tag_71\n      swap1\n      tag_70\n      jump\t// in\n    tag_71:\n      dup1\n      iszero\n      tag_72\n      jumpi\n      dup1\n      0x1f\n      lt\n      tag_73\n      jumpi\n      0x0100\n      dup1\n      dup4\n      sload\n      div\n      mul\n      dup4\n      mstore\n      swap2\n      0x20\n      add\n      swap2\n      jump(tag_72)\n    tag_73:\n      dup3\n      add\n      swap2\n      swap1\n      0x00\n      mstore\n      keccak256(0x00, 0x20)\n      swap1\n    tag_74:\n      dup2\n      sload\n      dup2\n      mstore\n      swap1\n      0x01\n      add\n      swap1\n      0x20\n      add\n      dup1\n      dup4\n      gt\n      tag_74\n      jumpi\n      dup3\n      swap1\n      sub\n      0x1f\n      and\n      dup3\n      add\n      swap2\n    tag_72:\n      pop\n      pop\n      pop\n      pop\n      pop\n      swap2\n      pop\n      dup1\n      dup1\n      sload\n      tag_75\n      swap1\n      tag_70\n      jump\t// in\n    tag_75:\n      dup1\n      0x1f\n      add\n      0x20\n      dup1\n      swap2\n      div\n      mul\n      0x20\n      add\n      mload(0x40)\n      swap1\n      dup2\n      add\n      0x40\n      mstore\n      dup1\n      swap3\n      swap2\n      swap1\n      dup2\n      dup2\n      mstore\n      0x20\n      add\n      dup3\n      dup1\n      sload\n      tag_76\n      swap1\n      tag_70\n      jump\t// in\n    tag_76:\n      dup1\n      iszero\n      tag_77\n      jumpi\n      dup1\n      0x1f\n      lt\n      tag_78\n      jumpi\n      0x0100\n      dup1\n      dup4\n      sload\n      div\n      mul\n      dup4\n      mstore\n      swap2\n      0x20\n      add\n      swap2\n      jump(tag_77)\n    tag_78:\n      dup3\n      add\n      swap2\n      swap1\n      0x00\n      mstore\n      keccak256(0x00, 0x20)\n      swap1\n    tag_79:\n      dup2\n      sload\n      dup2\n      mstore\n      swap1\n      0x01\n      add\n      swap1\n      0x20\n      add\n      dup1\n      dup4\n      gt\n      tag_79\n      jumpi\n      dup3\n      swap1\n      sub\n      0x1f\n      and\n      dup3\n      add\n      swap2\n    tag_77:\n      pop\n      pop\n      pop\n      pop\n      pop\n      swap1\n      pop\n      swap3\n      pop\n      swap3\n      pop\n      pop\n        /* \"Filiera-Token-SmartContract/contracts/Actor/MilkHub-smart-contract/MilkHubStorage.sol\":4900:5245  function getMilkHubToCheeseProducer(address walletMilkHub) external view returns (string memory, string memory){... */\n      swap2\n      pop\n      swap2\n      jump\t// out\n        /* \"Filiera-Token-SmartContract/contracts/Actor/MilkHub-smart-contract/MilkHubStorage.sol\":3333:3801  function getUser(address walletMilkHub) external  view returns (uint256, string memory, string memory, string memory, uint256) {... */\n    tag_27:\n        /* \"Filiera-Token-SmartContract/contracts/Actor/MilkHub-smart-contract/MilkHubStorage.sol\":3397:3404  uint256 */\n      0x00\n        /* \"Filiera-Token-SmartContract/contracts/Actor/MilkHub-smart-contract/MilkHubStorage.sol\":3406:3419  string memory */\n      0x60\n        /* \"Filiera-Token-SmartContract/contracts/Actor/MilkHub-smart-contract/MilkHubStorage.sol\":3421:3434  string memory */\n      dup1\n        /* \"Filiera-Token-SmartContract/contracts/Actor/MilkHub-smart-contract/MilkHubStorage.sol\":3436:3449  string memory */\n      0x60\n        /* \"Filiera-Token-SmartContract/contracts/Actor/MilkHub-smart-contract/MilkHubStorage.sol\":3451:3458  uint256 */\n      0x00\n        /* \"Filiera-Token-SmartContract/contracts/Actor/MilkHub-smart-contract/MilkHubStorage.sol\":3557:3558  0 */\n      dup1\n        /* \"Filiera-Token-SmartContract/contracts/Actor/MilkHub-smart-contract/MilkHubStorage.sol\":3529:3537  milkhubs */\n      0x01\n        /* \"Filiera-Token-SmartContract/contracts/Actor/MilkHub-smart-contract/MilkHubStorage.sol\":3529:3552  milkhubs[walletMilkHub] */\n      0x00\n        /* \"Filiera-Token-SmartContract/contracts/Actor/MilkHub-smart-contract/MilkHubStorage.sol\":3538:3551  walletMilkHub */\n      dup9\n        /* \"Filiera-Token-SmartContract/contracts/Actor/MilkHub-smart-contract/MilkHubStorage.sol\":3529:3552  milkhubs[walletMilkHub] */\n      0xffffffffffffffffffffffffffffffffffffffff\n      and\n      0xffffffffffffffffffffffffffffffffffffffff\n      and\n      dup2\n      mstore\n      0x20\n      add\n      swap1\n      dup2\n      mstore\n      0x20\n      add\n      0x00\n      keccak256\n        /* \"Filiera-Token-SmartContract/contracts/Actor/MilkHub-smart-contract/MilkHubStorage.sol\":3529:3555  milkhubs[walletMilkHub].id */\n      0x00\n      add\n      sload\n        /* \"Filiera-Token-SmartContract/contracts/Actor/MilkHub-smart-contract/MilkHubStorage.sol\":3529:3558  milkhubs[walletMilkHub].id!=0 */\n      sub\n        /* \"Filiera-Token-SmartContract/contracts/Actor/MilkHub-smart-contract/MilkHubStorage.sol\":3520:3585  require( milkhubs[walletMilkHub].id!=0  , \"Utente non presente!\") */\n      tag_81\n      jumpi\n      mload(0x40)\n      0x08c379a000000000000000000000000000000000000000000000000000000000\n      dup2\n      mstore\n      0x04\n      add\n      tag_82\n      swap1\n      tag_47\n      jump\t// in\n    tag_82:\n      mload(0x40)\n      dup1\n      swap2\n      sub\n      swap1\n      revert\n    tag_81:\n        /* \"Filiera-Token-SmartContract/contracts/Actor/MilkHub-smart-contract/MilkHubStorage.sol\":3598:3620  MilkHub memory milkhub */\n      0x00\n        /* \"Filiera-Token-SmartContract/contracts/Actor/MilkHub-smart-contract/MilkHubStorage.sol\":3623:3631  milkhubs */\n      0x01\n        /* \"Filiera-Token-SmartContract/contracts/Actor/MilkHub-smart-contract/MilkHubStorage.sol\":3623:3646  milkhubs[walletMilkHub] */\n      0x00\n        /* \"Filiera-Token-SmartContract/contracts/Actor/MilkHub-smart-contract/MilkHubStorage.sol\":3632:3645  walletMilkHub */\n      dup9\n        /* \"Filiera-Token-SmartContract/contracts/Actor/MilkHub-smart-contract/MilkHubStorage.sol\":3623:3646  milkhubs[walletMilkHub] */\n      0xffffffffffffffffffffffffffffffffffffffff\n      and\n      0xffffffffffffffffffffffffffffffffffffffff\n      and\n      dup2\n      mstore\n      0x20\n      add\n      swap1\n      dup2\n      mstore\n      0x20\n      add\n      0x00\n      keccak256\n        /* \"Filiera-Token-SmartContract/contracts/Actor/MilkHub-smart-contract/MilkHubStorage.sol\":3598:3646  MilkHub memory milkhub = milkhubs[walletMilkHub] */\n      mload(0x40)\n      dup1\n      0xa0\n      add\n      0x40\n      mstore\n      swap1\n      dup2\n      0x00\n      dup3\n      add\n      sload\n      dup2\n      mstore\n      0x20\n      add\n      0x01\n      dup3\n      add\n      dup1\n      sload\n      tag_83\n      swap1\n      tag_70\n      jump\t// in\n    tag_83:\n      dup1\n      0x1f\n      add\n      0x20\n      dup1\n      swap2\n      div\n      mul\n      0x20\n      add\n      mload(0x40)\n      swap1\n      dup2\n      add\n      0x40\n      mstore\n      dup1\n      swap3\n      swap2\n      swap1\n      dup2\n      dup2\n      mstore\n      0x20\n      add\n      dup3\n      dup1\n      sload\n      tag_84\n      swap1\n      tag_70\n      jump\t// in\n    tag_84:\n      dup1\n      iszero\n      tag_85\n      jumpi\n      dup1\n      0x1f\n      lt\n      tag_86\n      jumpi\n      0x0100\n      dup1\n      dup4\n      sload\n      div\n      mul\n      dup4\n      mstore\n      swap2\n      0x20\n      add\n      swap2\n      jump(tag_85)\n    tag_86:\n      dup3\n      add\n      swap2\n      swap1\n      0x00\n      mstore\n      keccak256(0x00, 0x20)\n      swap1\n    tag_87:\n      dup2\n      sload\n      dup2\n      mstore\n      swap1\n      0x01\n      add\n      swap1\n      0x20\n      add\n      dup1\n      dup4\n      gt\n      tag_87\n      jumpi\n      dup3\n      swap1\n      sub\n      0x1f\n      and\n      dup3\n      add\n      swap2\n    tag_85:\n      pop\n      pop\n      pop\n      pop\n      pop\n      dup2\n      mstore\n      0x20\n      add\n      0x02\n      dup3\n      add\n      dup1\n      sload\n      tag_88\n      swap1\n      tag_70\n      jump\t// in\n    tag_88:\n      dup1\n      0x1f\n      add\n      0x20\n      dup1\n      swap2\n      div\n      mul\n      0x20\n      add\n      mload(0x40)\n      swap1\n      dup2\n      add\n      0x40\n      mstore\n      dup1\n      swap3\n      swap2\n      swap1\n      dup2\n      dup2\n      mstore\n      0x20\n      add\n      dup3\n      dup1\n      sload\n      tag_89\n      swap1\n      tag_70\n      jump\t// in\n    tag_89:\n      dup1\n      iszero\n      tag_90\n      jumpi\n      dup1\n      0x1f\n      lt\n      tag_91\n      jumpi\n      0x0100\n      dup1\n      dup4\n      sload\n      div\n      mul\n      dup4\n      mstore\n      swap2\n      0x20\n      add\n      swap2\n      jump(tag_90)\n    tag_91:\n      dup3\n      add\n      swap2\n      swap1\n      0x00\n      mstore\n      keccak256(0x00, 0x20)\n      swap1\n    tag_92:\n      dup2\n      sload\n      dup2\n      mstore\n      swap1\n      0x01\n      add\n      swap1\n      0x20\n      add\n      dup1\n      dup4\n      gt\n      tag_92\n      jumpi\n      dup3\n      swap1\n      sub\n      0x1f\n      and\n      dup3\n      add\n      swap2\n    tag_90:\n      pop\n      pop\n      pop\n      pop\n      pop\n      dup2\n      mstore\n      0x20\n      add\n      0x03\n      dup3\n      add\n      dup1\n      sload\n      tag_93\n      swap1\n      tag_70\n      jump\t// in\n    tag_93:\n      dup1\n      0x1f\n      add\n      0x20\n      dup1\n      swap2\n      div\n      mul\n      0x20\n      add\n      mload(0x40)\n      swap1\n      dup2\n      add\n      0x40\n      mstore\n      dup1\n      swap3\n      swap2\n      swap1\n      dup2\n      dup2\n      mstore\n      0x20\n      add\n      dup3\n      dup1\n      sload\n      tag_94\n      swap1\n      tag_70\n      jump\t// in\n    tag_94:\n      dup1\n      iszero\n      tag_95\n      jumpi\n      dup1\n      0x1f\n      lt\n      tag_96\n      jumpi\n      0x0100\n      dup1\n      dup4\n      sload\n      div\n      mul\n      dup4\n      mstore\n      swap2\n      0x20\n      add\n      swap2\n      jump(tag_95)\n    tag_96:\n      dup3\n      add\n      swap2\n      swap1\n      0x00\n      mstore\n      keccak256(0x00, 0x20)\n      swap1\n    tag_97:\n      dup2\n      sload\n      dup2\n      mstore\n      swap1\n      0x01\n      add\n      swap1\n      0x20\n      add\n      dup1\n      dup4\n      gt\n      tag_97\n      jumpi\n      dup3\n      swap1\n      sub\n      0x1f\n      and\n      dup3\n      add\n      swap2\n    tag_95:\n      pop\n      pop\n      pop\n      pop\n      pop\n      dup2\n      mstore\n      0x20\n      add\n      0x04\n      dup3\n      add\n      sload\n      dup2\n      mstore\n      pop\n      pop\n      swap1\n      pop\n        /* \"Filiera-Token-SmartContract/contracts/Actor/MilkHub-smart-contract/MilkHubStorage.sol\":3714:3721  milkhub */\n      dup1\n        /* \"Filiera-Token-SmartContract/contracts/Actor/MilkHub-smart-contract/MilkHubStorage.sol\":3714:3724  milkhub.id */\n      0x00\n      add\n      mload\n        /* \"Filiera-Token-SmartContract/contracts/Actor/MilkHub-smart-contract/MilkHubStorage.sol\":3726:3733  milkhub */\n      dup2\n        /* \"Filiera-Token-SmartContract/contracts/Actor/MilkHub-smart-contract/MilkHubStorage.sol\":3726:3742  milkhub.fullName */\n      0x20\n      add\n      mload\n        /* \"Filiera-Token-SmartContract/contracts/Actor/MilkHub-smart-contract/MilkHubStorage.sol\":3744:3751  milkhub */\n      dup3\n        /* \"Filiera-Token-SmartContract/contracts/Actor/MilkHub-smart-contract/MilkHubStorage.sol\":3744:3760  milkhub.password */\n      0x40\n      add\n      mload\n        /* \"Filiera-Token-SmartContract/contracts/Actor/MilkHub-smart-contract/MilkHubStorage.sol\":3762:3769  milkhub */\n      dup4\n        /* \"Filiera-Token-SmartContract/contracts/Actor/MilkHub-smart-contract/MilkHubStorage.sol\":3762:3775  milkhub.email */\n      0x60\n      add\n      mload\n        /* \"Filiera-Token-SmartContract/contracts/Actor/MilkHub-smart-contract/MilkHubStorage.sol\":3777:3784  milkhub */\n      dup5\n        /* \"Filiera-Token-SmartContract/contracts/Actor/MilkHub-smart-contract/MilkHubStorage.sol\":3777:3792  milkhub.balance */\n      0x80\n      add\n      mload\n        /* \"Filiera-Token-SmartContract/contracts/Actor/MilkHub-smart-contract/MilkHubStorage.sol\":3706:3793  return (milkhub.id, milkhub.fullName, milkhub.password, milkhub.email, milkhub.balance) */\n      swap6\n      pop\n      swap6\n      pop\n      swap6\n      pop\n      swap6\n      pop\n      swap6\n      pop\n      pop\n        /* \"Filiera-Token-SmartContract/contracts/Actor/MilkHub-smart-contract/MilkHubStorage.sol\":3333:3801  function getUser(address walletMilkHub) external  view returns (uint256, string memory, string memory, string memory, uint256) {... */\n      swap2\n      swap4\n      swap6\n      swap1\n      swap3\n      swap5\n      pop\n      jump\t// out\n        /* \"Filiera-Token-SmartContract/contracts/Actor/MilkHub-smart-contract/MilkHubStorage.sol\":5417:5641  function isUserPresent(address walletMilkHub) external view returns(bool){... */\n    tag_32:\n        /* \"Filiera-Token-SmartContract/contracts/Actor/MilkHub-smart-contract/MilkHubStorage.sol\":5485:5489  bool */\n      0x00\n        /* \"Filiera-Token-SmartContract/contracts/Actor/MilkHub-smart-contract/MilkHubStorage.sol\":5542:5543  0 */\n      dup1\n        /* \"Filiera-Token-SmartContract/contracts/Actor/MilkHub-smart-contract/MilkHubStorage.sol\":5509:5544  address(walletMilkHub)!= address(0) */\n      0xffffffffffffffffffffffffffffffffffffffff\n      and\n        /* \"Filiera-Token-SmartContract/contracts/Actor/MilkHub-smart-contract/MilkHubStorage.sol\":5517:5530  walletMilkHub */\n      dup3\n        /* \"Filiera-Token-SmartContract/contracts/Actor/MilkHub-smart-contract/MilkHubStorage.sol\":5509:5544  address(walletMilkHub)!= address(0) */\n      0xffffffffffffffffffffffffffffffffffffffff\n      and\n      sub\n        /* \"Filiera-Token-SmartContract/contracts/Actor/MilkHub-smart-contract/MilkHubStorage.sol\":5501:5576  require(address(walletMilkHub)!= address(0), \"Address MilkHub non valido!\") */\n      tag_99\n      jumpi\n      mload(0x40)\n      0x08c379a000000000000000000000000000000000000000000000000000000000\n      dup2\n      mstore\n      0x04\n      add\n      tag_100\n      swap1\n      tag_101\n      jump\t// in\n    tag_100:\n      mload(0x40)\n      dup1\n      swap2\n      sub\n      swap1\n      revert\n    tag_99:\n        /* \"Filiera-Token-SmartContract/contracts/Actor/MilkHub-smart-contract/MilkHubStorage.sol\":5632:5633  0 */\n      0x00\n        /* \"Filiera-Token-SmartContract/contracts/Actor/MilkHub-smart-contract/MilkHubStorage.sol\":5604:5612  milkhubs */\n      0x01\n        /* \"Filiera-Token-SmartContract/contracts/Actor/MilkHub-smart-contract/MilkHubStorage.sol\":5604:5627  milkhubs[walletMilkHub] */\n      0x00\n        /* \"Filiera-Token-SmartContract/contracts/Actor/MilkHub-smart-contract/MilkHubStorage.sol\":5613:5626  walletMilkHub */\n      dup5\n        /* \"Filiera-Token-SmartContract/contracts/Actor/MilkHub-smart-contract/MilkHubStorage.sol\":5604:5627  milkhubs[walletMilkHub] */\n      0xffffffffffffffffffffffffffffffffffffffff\n      and\n      0xffffffffffffffffffffffffffffffffffffffff\n      and\n      dup2\n      mstore\n      0x20\n      add\n      swap1\n      dup2\n      mstore\n      0x20\n      add\n      0x00\n      keccak256\n        /* \"Filiera-Token-SmartContract/contracts/Actor/MilkHub-smart-contract/MilkHubStorage.sol\":5604:5630  milkhubs[walletMilkHub].id */\n      0x00\n      add\n      sload\n        /* \"Filiera-Token-SmartContract/contracts/Actor/MilkHub-smart-contract/MilkHubStorage.sol\":5604:5633  milkhubs[walletMilkHub].id!=0 */\n      eq\n      iszero\n        /* \"Filiera-Token-SmartContract/contracts/Actor/MilkHub-smart-contract/MilkHubStorage.sol\":5597:5633  return milkhubs[walletMilkHub].id!=0 */\n      swap1\n      pop\n        /* \"Filiera-Token-SmartContract/contracts/Actor/MilkHub-smart-contract/MilkHubStorage.sol\":5417:5641  function isUserPresent(address walletMilkHub) external view returns(bool){... */\n      swap2\n      swap1\n      pop\n      jump\t// out\n        /* \"Filiera-Token-SmartContract/contracts/Actor/MilkHub-smart-contract/MilkHubStorage.sol\":834:2058  function addUser(string memory _fullName, string memory _password,string memory _email, address walletMilkHub) external {... */\n    tag_37:\n        /* \"Filiera-Token-SmartContract/contracts/Actor/MilkHub-smart-contract/MilkHubStorage.sol\":1090:1100  MilkHubOrg */\n      0x00\n      dup1\n      sload\n      swap1\n      0x0100\n      exp\n      swap1\n      div\n      0xffffffffffffffffffffffffffffffffffffffff\n      and\n        /* \"Filiera-Token-SmartContract/contracts/Actor/MilkHub-smart-contract/MilkHubStorage.sol\":1073:1100  walletMilkHub == MilkHubOrg */\n      0xffffffffffffffffffffffffffffffffffffffff\n      and\n        /* \"Filiera-Token-SmartContract/contracts/Actor/MilkHub-smart-contract/MilkHubStorage.sol\":1073:1086  walletMilkHub */\n      dup2\n        /* \"Filiera-Token-SmartContract/contracts/Actor/MilkHub-smart-contract/MilkHubStorage.sol\":1073:1100  walletMilkHub == MilkHubOrg */\n      0xffffffffffffffffffffffffffffffffffffffff\n      and\n      eq\n        /* \"Filiera-Token-SmartContract/contracts/Actor/MilkHub-smart-contract/MilkHubStorage.sol\":1065:1123  require(walletMilkHub == MilkHubOrg,\"Address non Valido!\") */\n      tag_103\n      jumpi\n      mload(0x40)\n      0x08c379a000000000000000000000000000000000000000000000000000000000\n      dup2\n      mstore\n      0x04\n      add\n      tag_104\n      swap1\n      tag_44\n      jump\t// in\n    tag_104:\n      mload(0x40)\n      dup1\n      swap2\n      sub\n      swap1\n      revert\n    tag_103:\n        /* \"Filiera-Token-SmartContract/contracts/Actor/MilkHub-smart-contract/MilkHubStorage.sol\":1202:1216  bytes32 idHash */\n      0x00\n        /* \"Filiera-Token-SmartContract/contracts/Actor/MilkHub-smart-contract/MilkHubStorage.sol\":1246:1255  _fullName */\n      dup5\n        /* \"Filiera-Token-SmartContract/contracts/Actor/MilkHub-smart-contract/MilkHubStorage.sol\":1257:1266  _password */\n      dup5\n        /* \"Filiera-Token-SmartContract/contracts/Actor/MilkHub-smart-contract/MilkHubStorage.sol\":1268:1274  _email */\n      dup5\n        /* \"Filiera-Token-SmartContract/contracts/Actor/MilkHub-smart-contract/MilkHubStorage.sol\":1276:1289  walletMilkHub */\n      dup5\n        /* \"Filiera-Token-SmartContract/contracts/Actor/MilkHub-smart-contract/MilkHubStorage.sol\":1229:1290  abi.encodePacked(_fullName, _password, _email, walletMilkHub) */\n      add(0x20, mload(0x40))\n      tag_105\n      swap5\n      swap4\n      swap3\n      swap2\n      swap1\n      tag_106\n      jump\t// in\n    tag_105:\n      mload(0x40)\n      0x20\n      dup2\n      dup4\n      sub\n      sub\n      dup2\n      mstore\n      swap1\n      0x40\n      mstore\n        /* \"Filiera-Token-SmartContract/contracts/Actor/MilkHub-smart-contract/MilkHubStorage.sol\":1219:1291  keccak256(abi.encodePacked(_fullName, _password, _email, walletMilkHub)) */\n      dup1\n      mload\n      swap1\n      0x20\n      add\n      keccak256\n        /* \"Filiera-Token-SmartContract/contracts/Actor/MilkHub-smart-contract/MilkHubStorage.sol\":1202:1291  bytes32 idHash = keccak256(abi.encodePacked(_fullName, _password, _email, walletMilkHub)) */\n      swap1\n      pop\n        /* \"Filiera-Token-SmartContract/contracts/Actor/MilkHub-smart-contract/MilkHubStorage.sol\":1302:1323  uint256 lastIdMilkHub */\n      0x00\n        /* \"Filiera-Token-SmartContract/contracts/Actor/MilkHub-smart-contract/MilkHubStorage.sol\":1334:1340  idHash */\n      dup2\n        /* \"Filiera-Token-SmartContract/contracts/Actor/MilkHub-smart-contract/MilkHubStorage.sol\":1326:1341  uint256(idHash) */\n      0x00\n      shr\n        /* \"Filiera-Token-SmartContract/contracts/Actor/MilkHub-smart-contract/MilkHubStorage.sol\":1302:1341  uint256 lastIdMilkHub = uint256(idHash) */\n      swap1\n      pop\n        /* \"Filiera-Token-SmartContract/contracts/Actor/MilkHub-smart-contract/MilkHubStorage.sol\":1392:1393  0 */\n      0x00\n        /* \"Filiera-Token-SmartContract/contracts/Actor/MilkHub-smart-contract/MilkHubStorage.sol\":1362:1370  milkhubs */\n      0x01\n        /* \"Filiera-Token-SmartContract/contracts/Actor/MilkHub-smart-contract/MilkHubStorage.sol\":1362:1385  milkhubs[walletMilkHub] */\n      0x00\n        /* \"Filiera-Token-SmartContract/contracts/Actor/MilkHub-smart-contract/MilkHubStorage.sol\":1371:1384  walletMilkHub */\n      dup6\n        /* \"Filiera-Token-SmartContract/contracts/Actor/MilkHub-smart-contract/MilkHubStorage.sol\":1362:1385  milkhubs[walletMilkHub] */\n      0xffffffffffffffffffffffffffffffffffffffff\n      and\n      0xffffffffffffffffffffffffffffffffffffffff\n      and\n      dup2\n      mstore\n      0x20\n      add\n      swap1\n      dup2\n      mstore\n      0x20\n      add\n      0x00\n      keccak256\n        /* \"Filiera-Token-SmartContract/contracts/Actor/MilkHub-smart-contract/MilkHubStorage.sol\":1362:1388  milkhubs[walletMilkHub].id */\n      0x00\n      add\n      sload\n        /* \"Filiera-Token-SmartContract/contracts/Actor/MilkHub-smart-contract/MilkHubStorage.sol\":1362:1393  milkhubs[walletMilkHub].id == 0 */\n      eq\n        /* \"Filiera-Token-SmartContract/contracts/Actor/MilkHub-smart-contract/MilkHubStorage.sol\":1354:1424  require(milkhubs[walletMilkHub].id == 0, \"MilkHub already registered\") */\n      tag_107\n      jumpi\n      mload(0x40)\n      0x08c379a000000000000000000000000000000000000000000000000000000000\n      dup2\n      mstore\n      0x04\n      add\n      tag_108\n      swap1\n      tag_109\n      jump\t// in\n    tag_108:\n      mload(0x40)\n      dup1\n      swap2\n      sub\n      swap1\n      revert\n    tag_107:\n        /* \"Filiera-Token-SmartContract/contracts/Actor/MilkHub-smart-contract/MilkHubStorage.sol\":1469:1470  0 */\n      0x00\n        /* \"Filiera-Token-SmartContract/contracts/Actor/MilkHub-smart-contract/MilkHubStorage.sol\":1449:1458  _fullName */\n      dup7\n        /* \"Filiera-Token-SmartContract/contracts/Actor/MilkHub-smart-contract/MilkHubStorage.sol\":1443:1466  bytes(_fullName).length */\n      mload\n        /* \"Filiera-Token-SmartContract/contracts/Actor/MilkHub-smart-contract/MilkHubStorage.sol\":1443:1470  bytes(_fullName).length > 0 */\n      gt\n        /* \"Filiera-Token-SmartContract/contracts/Actor/MilkHub-smart-contract/MilkHubStorage.sol\":1435:1500  require(bytes(_fullName).length > 0, \"Full name cannot be empty\") */\n      tag_110\n      jumpi\n      mload(0x40)\n      0x08c379a000000000000000000000000000000000000000000000000000000000\n      dup2\n      mstore\n      0x04\n      add\n      tag_111\n      swap1\n      tag_112\n      jump\t// in\n    tag_111:\n      mload(0x40)\n      dup1\n      swap2\n      sub\n      swap1\n      revert\n    tag_110:\n        /* \"Filiera-Token-SmartContract/contracts/Actor/MilkHub-smart-contract/MilkHubStorage.sol\":1545:1546  0 */\n      0x00\n        /* \"Filiera-Token-SmartContract/contracts/Actor/MilkHub-smart-contract/MilkHubStorage.sol\":1525:1534  _password */\n      dup6\n        /* \"Filiera-Token-SmartContract/contracts/Actor/MilkHub-smart-contract/MilkHubStorage.sol\":1519:1542  bytes(_password).length */\n      mload\n        /* \"Filiera-Token-SmartContract/contracts/Actor/MilkHub-smart-contract/MilkHubStorage.sol\":1519:1546  bytes(_password).length > 0 */\n      gt\n        /* \"Filiera-Token-SmartContract/contracts/Actor/MilkHub-smart-contract/MilkHubStorage.sol\":1511:1575  require(bytes(_password).length > 0, \"Password cannot be empty\") */\n      tag_113\n      jumpi\n      mload(0x40)\n      0x08c379a000000000000000000000000000000000000000000000000000000000\n      dup2\n      mstore\n      0x04\n      add\n      tag_114\n      swap1\n      tag_115\n      jump\t// in\n    tag_114:\n      mload(0x40)\n      dup1\n      swap2\n      sub\n      swap1\n      revert\n    tag_113:\n        /* \"Filiera-Token-SmartContract/contracts/Actor/MilkHub-smart-contract/MilkHubStorage.sol\":1617:1618  0 */\n      0x00\n        /* \"Filiera-Token-SmartContract/contracts/Actor/MilkHub-smart-contract/MilkHubStorage.sol\":1600:1606  _email */\n      dup5\n        /* \"Filiera-Token-SmartContract/contracts/Actor/MilkHub-smart-contract/MilkHubStorage.sol\":1594:1614  bytes(_email).length */\n      mload\n        /* \"Filiera-Token-SmartContract/contracts/Actor/MilkHub-smart-contract/MilkHubStorage.sol\":1594:1618  bytes(_email).length > 0 */\n      gt\n        /* \"Filiera-Token-SmartContract/contracts/Actor/MilkHub-smart-contract/MilkHubStorage.sol\":1586:1644  require(bytes(_email).length > 0, \"Email cannot be empty\") */\n      tag_116\n      jumpi\n      mload(0x40)\n      0x08c379a000000000000000000000000000000000000000000000000000000000\n      dup2\n      mstore\n      0x04\n      add\n      tag_117\n      swap1\n      tag_118\n      jump\t// in\n    tag_117:\n      mload(0x40)\n      dup1\n      swap2\n      sub\n      swap1\n      revert\n    tag_116:\n        /* \"Filiera-Token-SmartContract/contracts/Actor/MilkHub-smart-contract/MilkHubStorage.sol\":1720:1745  MilkHub memory newMilkHub */\n      0x00\n        /* \"Filiera-Token-SmartContract/contracts/Actor/MilkHub-smart-contract/MilkHubStorage.sol\":1748:1923  MilkHub({... */\n      mload(0x40)\n      dup1\n      0xa0\n      add\n      0x40\n      mstore\n      dup1\n        /* \"Filiera-Token-SmartContract/contracts/Actor/MilkHub-smart-contract/MilkHubStorage.sol\":1775:1788  lastIdMilkHub */\n      dup4\n        /* \"Filiera-Token-SmartContract/contracts/Actor/MilkHub-smart-contract/MilkHubStorage.sol\":1748:1923  MilkHub({... */\n      dup2\n      mstore\n      0x20\n      add\n        /* \"Filiera-Token-SmartContract/contracts/Actor/MilkHub-smart-contract/MilkHubStorage.sol\":1813:1822  _fullName */\n      dup9\n        /* \"Filiera-Token-SmartContract/contracts/Actor/MilkHub-smart-contract/MilkHubStorage.sol\":1748:1923  MilkHub({... */\n      dup2\n      mstore\n      0x20\n      add\n        /* \"Filiera-Token-SmartContract/contracts/Actor/MilkHub-smart-contract/MilkHubStorage.sol\":1847:1856  _password */\n      dup8\n        /* \"Filiera-Token-SmartContract/contracts/Actor/MilkHub-smart-contract/MilkHubStorage.sol\":1748:1923  MilkHub({... */\n      dup2\n      mstore\n      0x20\n      add\n        /* \"Filiera-Token-SmartContract/contracts/Actor/MilkHub-smart-contract/MilkHubStorage.sol\":1878:1884  _email */\n      dup7\n        /* \"Filiera-Token-SmartContract/contracts/Actor/MilkHub-smart-contract/MilkHubStorage.sol\":1748:1923  MilkHub({... */\n      dup2\n      mstore\n      0x20\n      add\n        /* \"Filiera-Token-SmartContract/contracts/Actor/MilkHub-smart-contract/MilkHubStorage.sol\":1908:1911  100 */\n      0x64\n        /* \"Filiera-Token-SmartContract/contracts/Actor/MilkHub-smart-contract/MilkHubStorage.sol\":1748:1923  MilkHub({... */\n      dup2\n      mstore\n      pop\n        /* \"Filiera-Token-SmartContract/contracts/Actor/MilkHub-smart-contract/MilkHubStorage.sol\":1720:1923  MilkHub memory newMilkHub = MilkHub({... */\n      swap1\n      pop\n        /* \"Filiera-Token-SmartContract/contracts/Actor/MilkHub-smart-contract/MilkHubStorage.sol\":2040:2050  newMilkHub */\n      dup1\n        /* \"Filiera-Token-SmartContract/contracts/Actor/MilkHub-smart-contract/MilkHubStorage.sol\":2014:2022  milkhubs */\n      0x01\n        /* \"Filiera-Token-SmartContract/contracts/Actor/MilkHub-smart-contract/MilkHubStorage.sol\":2014:2037  milkhubs[walletMilkHub] */\n      0x00\n        /* \"Filiera-Token-SmartContract/contracts/Actor/MilkHub-smart-contract/MilkHubStorage.sol\":2023:2036  walletMilkHub */\n      dup7\n        /* \"Filiera-Token-SmartContract/contracts/Actor/MilkHub-smart-contract/MilkHubStorage.sol\":2014:2037  milkhubs[walletMilkHub] */\n      0xffffffffffffffffffffffffffffffffffffffff\n      and\n      0xffffffffffffffffffffffffffffffffffffffff\n      and\n      dup2\n      mstore\n      0x20\n      add\n      swap1\n      dup2\n      mstore\n      0x20\n      add\n      0x00\n      keccak256\n        /* \"Filiera-Token-SmartContract/contracts/Actor/MilkHub-smart-contract/MilkHubStorage.sol\":2014:2050  milkhubs[walletMilkHub] = newMilkHub */\n      0x00\n      dup3\n      add\n      mload\n      dup2\n      0x00\n      add\n      sstore\n      0x20\n      dup3\n      add\n      mload\n      dup2\n      0x01\n      add\n      swap1\n      dup2\n      tag_119\n      swap2\n      swap1\n      tag_120\n      jump\t// in\n    tag_119:\n      pop\n      0x40\n      dup3\n      add\n      mload\n      dup2\n      0x02\n      add\n      swap1\n      dup2\n      tag_121\n      swap2\n      swap1\n      tag_120\n      jump\t// in\n    tag_121:\n      pop\n      0x60\n      dup3\n      add\n      mload\n      dup2\n      0x03\n      add\n      swap1\n      dup2\n      tag_122\n      swap2\n      swap1\n      tag_120\n      jump\t// in\n    tag_122:\n      pop\n      0x80\n      dup3\n      add\n      mload\n      dup2\n      0x04\n      add\n      sstore\n      swap1\n      pop\n      pop\n        /* \"Filiera-Token-SmartContract/contracts/Actor/MilkHub-smart-contract/MilkHubStorage.sol\":954:2058  {... */\n      pop\n      pop\n      pop\n        /* \"Filiera-Token-SmartContract/contracts/Actor/MilkHub-smart-contract/MilkHubStorage.sol\":834:2058  function addUser(string memory _fullName, string memory _password,string memory _email, address walletMilkHub) external {... */\n      pop\n      pop\n      pop\n      pop\n      jump\t// out\n    tag_61:\n      pop\n      dup1\n      sload\n      tag_123\n      swap1\n      tag_70\n      jump\t// in\n    tag_123:\n      0x00\n      dup3\n      sstore\n      dup1\n      0x1f\n      lt\n      tag_125\n      jumpi\n      pop\n      jump(tag_124)\n    tag_125:\n      0x1f\n      add\n      0x20\n      swap1\n      div\n      swap1\n      0x00\n      mstore\n      keccak256(0x00, 0x20)\n      swap1\n      dup2\n      add\n      swap1\n      tag_126\n      swap2\n      swap1\n      tag_127\n      jump\t// in\n    tag_126:\n    tag_124:\n      pop\n      jump\t// out\n    tag_127:\n    tag_128:\n      dup1\n      dup3\n      gt\n      iszero\n      tag_129\n      jumpi\n      0x00\n      dup2\n      0x00\n      swap1\n      sstore\n      pop\n      0x01\n      add\n      jump(tag_128)\n    tag_129:\n      pop\n      swap1\n      jump\t// out\n        /* \"#utility.yul\":7:82   */\n    tag_130:\n        /* \"#utility.yul\":40:46   */\n      0x00\n        /* \"#utility.yul\":73:75   */\n      0x40\n        /* \"#utility.yul\":67:76   */\n      mload\n        /* \"#utility.yul\":57:76   */\n      swap1\n      pop\n        /* \"#utility.yul\":7:82   */\n      swap1\n      jump\t// out\n        /* \"#utility.yul\":88:205   */\n    tag_131:\n        /* \"#utility.yul\":197:198   */\n      0x00\n        /* \"#utility.yul\":194:195   */\n      dup1\n        /* \"#utility.yul\":187:199   */\n      revert\n        /* \"#utility.yul\":211:328   */\n    tag_132:\n        /* \"#utility.yul\":320:321   */\n      0x00\n        /* \"#utility.yul\":317:318   */\n      dup1\n        /* \"#utility.yul\":310:322   */\n      revert\n        /* \"#utility.yul\":334:460   */\n    tag_133:\n        /* \"#utility.yul\":371:378   */\n      0x00\n        /* \"#utility.yul\":411:453   */\n      0xffffffffffffffffffffffffffffffffffffffff\n        /* \"#utility.yul\":404:409   */\n      dup3\n        /* \"#utility.yul\":400:454   */\n      and\n        /* \"#utility.yul\":389:454   */\n      swap1\n      pop\n        /* \"#utility.yul\":334:460   */\n      swap2\n      swap1\n      pop\n      jump\t// out\n        /* \"#utility.yul\":466:562   */\n    tag_134:\n        /* \"#utility.yul\":503:510   */\n      0x00\n        /* \"#utility.yul\":532:556   */\n      tag_202\n        /* \"#utility.yul\":550:555   */\n      dup3\n        /* \"#utility.yul\":532:556   */\n      tag_133\n      jump\t// in\n    tag_202:\n        /* \"#utility.yul\":521:556   */\n      swap1\n      pop\n        /* \"#utility.yul\":466:562   */\n      swap2\n      swap1\n      pop\n      jump\t// out\n        /* \"#utility.yul\":568:690   */\n    tag_135:\n        /* \"#utility.yul\":641:665   */\n      tag_204\n        /* \"#utility.yul\":659:664   */\n      dup2\n        /* \"#utility.yul\":641:665   */\n      tag_134\n      jump\t// in\n    tag_204:\n        /* \"#utility.yul\":634:639   */\n      dup2\n        /* \"#utility.yul\":631:666   */\n      eq\n        /* \"#utility.yul\":621:684   */\n      tag_205\n      jumpi\n        /* \"#utility.yul\":680:681   */\n      0x00\n        /* \"#utility.yul\":677:678   */\n      dup1\n        /* \"#utility.yul\":670:682   */\n      revert\n        /* \"#utility.yul\":621:684   */\n    tag_205:\n        /* \"#utility.yul\":568:690   */\n      pop\n      jump\t// out\n        /* \"#utility.yul\":696:835   */\n    tag_136:\n        /* \"#utility.yul\":742:747   */\n      0x00\n        /* \"#utility.yul\":780:786   */\n      dup2\n        /* \"#utility.yul\":767:787   */\n      calldataload\n        /* \"#utility.yul\":758:787   */\n      swap1\n      pop\n        /* \"#utility.yul\":796:829   */\n      tag_207\n        /* \"#utility.yul\":823:828   */\n      dup2\n        /* \"#utility.yul\":796:829   */\n      tag_135\n      jump\t// in\n    tag_207:\n        /* \"#utility.yul\":696:835   */\n      swap3\n      swap2\n      pop\n      pop\n      jump\t// out\n        /* \"#utility.yul\":841:958   */\n    tag_137:\n        /* \"#utility.yul\":950:951   */\n      0x00\n        /* \"#utility.yul\":947:948   */\n      dup1\n        /* \"#utility.yul\":940:952   */\n      revert\n        /* \"#utility.yul\":964:1081   */\n    tag_138:\n        /* \"#utility.yul\":1073:1074   */\n      0x00\n        /* \"#utility.yul\":1070:1071   */\n      dup1\n        /* \"#utility.yul\":1063:1075   */\n      revert\n        /* \"#utility.yul\":1087:1189   */\n    tag_139:\n        /* \"#utility.yul\":1128:1134   */\n      0x00\n        /* \"#utility.yul\":1179:1181   */\n      0x1f\n        /* \"#utility.yul\":1175:1182   */\n      not\n        /* \"#utility.yul\":1170:1172   */\n      0x1f\n        /* \"#utility.yul\":1163:1168   */\n      dup4\n        /* \"#utility.yul\":1159:1173   */\n      add\n        /* \"#utility.yul\":1155:1183   */\n      and\n        /* \"#utility.yul\":1145:1183   */\n      swap1\n      pop\n        /* \"#utility.yul\":1087:1189   */\n      swap2\n      swap1\n      pop\n      jump\t// out\n        /* \"#utility.yul\":1195:1375   */\n    tag_140:\n        /* \"#utility.yul\":1243:1320   */\n      0x4e487b7100000000000000000000000000000000000000000000000000000000\n        /* \"#utility.yul\":1240:1241   */\n      0x00\n        /* \"#utility.yul\":1233:1321   */\n      mstore\n        /* \"#utility.yul\":1340:1344   */\n      0x41\n        /* \"#utility.yul\":1337:1338   */\n      0x04\n        /* \"#utility.yul\":1330:1345   */\n      mstore\n        /* \"#utility.yul\":1364:1368   */\n      0x24\n        /* \"#utility.yul\":1361:1362   */\n      0x00\n        /* \"#utility.yul\":1354:1369   */\n      revert\n        /* \"#utility.yul\":1381:1662   */\n    tag_141:\n        /* \"#utility.yul\":1464:1491   */\n      tag_213\n        /* \"#utility.yul\":1486:1490   */\n      dup3\n        /* \"#utility.yul\":1464:1491   */\n      tag_139\n      jump\t// in\n    tag_213:\n        /* \"#utility.yul\":1456:1462   */\n      dup2\n        /* \"#utility.yul\":1452:1492   */\n      add\n        /* \"#utility.yul\":1594:1600   */\n      dup2\n        /* \"#utility.yul\":1582:1592   */\n      dup2\n        /* \"#utility.yul\":1579:1601   */\n      lt\n        /* \"#utility.yul\":1558:1576   */\n      0xffffffffffffffff\n        /* \"#utility.yul\":1546:1556   */\n      dup3\n        /* \"#utility.yul\":1543:1577   */\n      gt\n        /* \"#utility.yul\":1540:1602   */\n      or\n        /* \"#utility.yul\":1537:1625   */\n      iszero\n      tag_214\n      jumpi\n        /* \"#utility.yul\":1605:1623   */\n      tag_215\n      tag_140\n      jump\t// in\n    tag_215:\n        /* \"#utility.yul\":1537:1625   */\n    tag_214:\n        /* \"#utility.yul\":1645:1655   */\n      dup1\n        /* \"#utility.yul\":1641:1643   */\n      0x40\n        /* \"#utility.yul\":1634:1656   */\n      mstore\n        /* \"#utility.yul\":1424:1662   */\n      pop\n        /* \"#utility.yul\":1381:1662   */\n      pop\n      pop\n      jump\t// out\n        /* \"#utility.yul\":1668:1797   */\n    tag_142:\n        /* \"#utility.yul\":1702:1708   */\n      0x00\n        /* \"#utility.yul\":1729:1749   */\n      tag_217\n      tag_130\n      jump\t// in\n    tag_217:\n        /* \"#utility.yul\":1719:1749   */\n      swap1\n      pop\n        /* \"#utility.yul\":1758:1791   */\n      tag_218\n        /* \"#utility.yul\":1786:1790   */\n      dup3\n        /* \"#utility.yul\":1778:1784   */\n      dup3\n        /* \"#utility.yul\":1758:1791   */\n      tag_141\n      jump\t// in\n    tag_218:\n        /* \"#utility.yul\":1668:1797   */\n      swap2\n      swap1\n      pop\n      jump\t// out\n        /* \"#utility.yul\":1803:2111   */\n    tag_143:\n        /* \"#utility.yul\":1865:1869   */\n      0x00\n        /* \"#utility.yul\":1955:1973   */\n      0xffffffffffffffff\n        /* \"#utility.yul\":1947:1953   */\n      dup3\n        /* \"#utility.yul\":1944:1974   */\n      gt\n        /* \"#utility.yul\":1941:1997   */\n      iszero\n      tag_220\n      jumpi\n        /* \"#utility.yul\":1977:1995   */\n      tag_221\n      tag_140\n      jump\t// in\n    tag_221:\n        /* \"#utility.yul\":1941:1997   */\n    tag_220:\n        /* \"#utility.yul\":2015:2044   */\n      tag_222\n        /* \"#utility.yul\":2037:2043   */\n      dup3\n        /* \"#utility.yul\":2015:2044   */\n      tag_139\n      jump\t// in\n    tag_222:\n        /* \"#utility.yul\":2007:2044   */\n      swap1\n      pop\n        /* \"#utility.yul\":2099:2103   */\n      0x20\n        /* \"#utility.yul\":2093:2097   */\n      dup2\n        /* \"#utility.yul\":2089:2104   */\n      add\n        /* \"#utility.yul\":2081:2104   */\n      swap1\n      pop\n        /* \"#utility.yul\":1803:2111   */\n      swap2\n      swap1\n      pop\n      jump\t// out\n        /* \"#utility.yul\":2117:2263   */\n    tag_144:\n        /* \"#utility.yul\":2214:2220   */\n      dup3\n        /* \"#utility.yul\":2209:2212   */\n      dup2\n        /* \"#utility.yul\":2204:2207   */\n      dup4\n        /* \"#utility.yul\":2191:2221   */\n      calldatacopy\n        /* \"#utility.yul\":2255:2256   */\n      0x00\n        /* \"#utility.yul\":2246:2252   */\n      dup4\n        /* \"#utility.yul\":2241:2244   */\n      dup4\n        /* \"#utility.yul\":2237:2253   */\n      add\n        /* \"#utility.yul\":2230:2257   */\n      mstore\n        /* \"#utility.yul\":2117:2263   */\n      pop\n      pop\n      pop\n      jump\t// out\n        /* \"#utility.yul\":2269:2694   */\n    tag_145:\n        /* \"#utility.yul\":2347:2352   */\n      0x00\n        /* \"#utility.yul\":2372:2438   */\n      tag_225\n        /* \"#utility.yul\":2388:2437   */\n      tag_226\n        /* \"#utility.yul\":2430:2436   */\n      dup5\n        /* \"#utility.yul\":2388:2437   */\n      tag_143\n      jump\t// in\n    tag_226:\n        /* \"#utility.yul\":2372:2438   */\n      tag_142\n      jump\t// in\n    tag_225:\n        /* \"#utility.yul\":2363:2438   */\n      swap1\n      pop\n        /* \"#utility.yul\":2461:2467   */\n      dup3\n        /* \"#utility.yul\":2454:2459   */\n      dup2\n        /* \"#utility.yul\":2447:2468   */\n      mstore\n        /* \"#utility.yul\":2499:2503   */\n      0x20\n        /* \"#utility.yul\":2492:2497   */\n      dup2\n        /* \"#utility.yul\":2488:2504   */\n      add\n        /* \"#utility.yul\":2537:2540   */\n      dup5\n        /* \"#utility.yul\":2528:2534   */\n      dup5\n        /* \"#utility.yul\":2523:2526   */\n      dup5\n        /* \"#utility.yul\":2519:2535   */\n      add\n        /* \"#utility.yul\":2516:2541   */\n      gt\n        /* \"#utility.yul\":2513:2625   */\n      iszero\n      tag_227\n      jumpi\n        /* \"#utility.yul\":2544:2623   */\n      tag_228\n      tag_138\n      jump\t// in\n    tag_228:\n        /* \"#utility.yul\":2513:2625   */\n    tag_227:\n        /* \"#utility.yul\":2634:2688   */\n      tag_229\n        /* \"#utility.yul\":2681:2687   */\n      dup5\n        /* \"#utility.yul\":2676:2679   */\n      dup3\n        /* \"#utility.yul\":2671:2674   */\n      dup6\n        /* \"#utility.yul\":2634:2688   */\n      tag_144\n      jump\t// in\n    tag_229:\n        /* \"#utility.yul\":2353:2694   */\n      pop\n        /* \"#utility.yul\":2269:2694   */\n      swap4\n      swap3\n      pop\n      pop\n      pop\n      jump\t// out\n        /* \"#utility.yul\":2714:3054   */\n    tag_146:\n        /* \"#utility.yul\":2770:2775   */\n      0x00\n        /* \"#utility.yul\":2819:2822   */\n      dup3\n        /* \"#utility.yul\":2812:2816   */\n      0x1f\n        /* \"#utility.yul\":2804:2810   */\n      dup4\n        /* \"#utility.yul\":2800:2817   */\n      add\n        /* \"#utility.yul\":2796:2823   */\n      slt\n        /* \"#utility.yul\":2786:2908   */\n      tag_231\n      jumpi\n        /* \"#utility.yul\":2827:2906   */\n      tag_232\n      tag_137\n      jump\t// in\n    tag_232:\n        /* \"#utility.yul\":2786:2908   */\n    tag_231:\n        /* \"#utility.yul\":2944:2950   */\n      dup2\n        /* \"#utility.yul\":2931:2951   */\n      calldataload\n        /* \"#utility.yul\":2969:3048   */\n      tag_233\n        /* \"#utility.yul\":3044:3047   */\n      dup5\n        /* \"#utility.yul\":3036:3042   */\n      dup3\n        /* \"#utility.yul\":3029:3033   */\n      0x20\n        /* \"#utility.yul\":3021:3027   */\n      dup7\n        /* \"#utility.yul\":3017:3034   */\n      add\n        /* \"#utility.yul\":2969:3048   */\n      tag_145\n      jump\t// in\n    tag_233:\n        /* \"#utility.yul\":2960:3048   */\n      swap2\n      pop\n        /* \"#utility.yul\":2776:3054   */\n      pop\n        /* \"#utility.yul\":2714:3054   */\n      swap3\n      swap2\n      pop\n      pop\n      jump\t// out\n        /* \"#utility.yul\":3060:4039   */\n    tag_11:\n        /* \"#utility.yul\":3157:3163   */\n      0x00\n        /* \"#utility.yul\":3165:3171   */\n      dup1\n        /* \"#utility.yul\":3173:3179   */\n      0x00\n        /* \"#utility.yul\":3222:3224   */\n      0x60\n        /* \"#utility.yul\":3210:3219   */\n      dup5\n        /* \"#utility.yul\":3201:3208   */\n      dup7\n        /* \"#utility.yul\":3197:3220   */\n      sub\n        /* \"#utility.yul\":3193:3225   */\n      slt\n        /* \"#utility.yul\":3190:3309   */\n      iszero\n      tag_235\n      jumpi\n        /* \"#utility.yul\":3228:3307   */\n      tag_236\n      tag_131\n      jump\t// in\n    tag_236:\n        /* \"#utility.yul\":3190:3309   */\n    tag_235:\n        /* \"#utility.yul\":3348:3349   */\n      0x00\n        /* \"#utility.yul\":3373:3426   */\n      tag_237\n        /* \"#utility.yul\":3418:3425   */\n      dup7\n        /* \"#utility.yul\":3409:3415   */\n      dup3\n        /* \"#utility.yul\":3398:3407   */\n      dup8\n        /* \"#utility.yul\":3394:3416   */\n      add\n        /* \"#utility.yul\":3373:3426   */\n      tag_136\n      jump\t// in\n    tag_237:\n        /* \"#utility.yul\":3363:3426   */\n      swap4\n      pop\n        /* \"#utility.yul\":3319:3436   */\n      pop\n        /* \"#utility.yul\":3503:3505   */\n      0x20\n        /* \"#utility.yul\":3492:3501   */\n      dup5\n        /* \"#utility.yul\":3488:3506   */\n      add\n        /* \"#utility.yul\":3475:3507   */\n      calldataload\n        /* \"#utility.yul\":3534:3552   */\n      0xffffffffffffffff\n        /* \"#utility.yul\":3526:3532   */\n      dup2\n        /* \"#utility.yul\":3523:3553   */\n      gt\n        /* \"#utility.yul\":3520:3637   */\n      iszero\n      tag_238\n      jumpi\n        /* \"#utility.yul\":3556:3635   */\n      tag_239\n      tag_132\n      jump\t// in\n    tag_239:\n        /* \"#utility.yul\":3520:3637   */\n    tag_238:\n        /* \"#utility.yul\":3661:3724   */\n      tag_240\n        /* \"#utility.yul\":3716:3723   */\n      dup7\n        /* \"#utility.yul\":3707:3713   */\n      dup3\n        /* \"#utility.yul\":3696:3705   */\n      dup8\n        /* \"#utility.yul\":3692:3714   */\n      add\n        /* \"#utility.yul\":3661:3724   */\n      tag_146\n      jump\t// in\n    tag_240:\n        /* \"#utility.yul\":3651:3724   */\n      swap3\n      pop\n        /* \"#utility.yul\":3446:3734   */\n      pop\n        /* \"#utility.yul\":3801:3803   */\n      0x40\n        /* \"#utility.yul\":3790:3799   */\n      dup5\n        /* \"#utility.yul\":3786:3804   */\n      add\n        /* \"#utility.yul\":3773:3805   */\n      calldataload\n        /* \"#utility.yul\":3832:3850   */\n      0xffffffffffffffff\n        /* \"#utility.yul\":3824:3830   */\n      dup2\n        /* \"#utility.yul\":3821:3851   */\n      gt\n        /* \"#utility.yul\":3818:3935   */\n      iszero\n      tag_241\n      jumpi\n        /* \"#utility.yul\":3854:3933   */\n      tag_242\n      tag_132\n      jump\t// in\n    tag_242:\n        /* \"#utility.yul\":3818:3935   */\n    tag_241:\n        /* \"#utility.yul\":3959:4022   */\n      tag_243\n        /* \"#utility.yul\":4014:4021   */\n      dup7\n        /* \"#utility.yul\":4005:4011   */\n      dup3\n        /* \"#utility.yul\":3994:4003   */\n      dup8\n        /* \"#utility.yul\":3990:4012   */\n      add\n        /* \"#utility.yul\":3959:4022   */\n      tag_146\n      jump\t// in\n    tag_243:\n        /* \"#utility.yul\":3949:4022   */\n      swap2\n      pop\n        /* \"#utility.yul\":3744:4032   */\n      pop\n        /* \"#utility.yul\":3060:4039   */\n      swap3\n      pop\n      swap3\n      pop\n      swap3\n      jump\t// out\n        /* \"#utility.yul\":4045:4135   */\n    tag_147:\n        /* \"#utility.yul\":4079:4086   */\n      0x00\n        /* \"#utility.yul\":4122:4127   */\n      dup2\n        /* \"#utility.yul\":4115:4128   */\n      iszero\n        /* \"#utility.yul\":4108:4129   */\n      iszero\n        /* \"#utility.yul\":4097:4129   */\n      swap1\n      pop\n        /* \"#utility.yul\":4045:4135   */\n      swap2\n      swap1\n      pop\n      jump\t// out\n        /* \"#utility.yul\":4141:4250   */\n    tag_148:\n        /* \"#utility.yul\":4222:4243   */\n      tag_246\n        /* \"#utility.yul\":4237:4242   */\n      dup2\n        /* \"#utility.yul\":4222:4243   */\n      tag_147\n      jump\t// in\n    tag_246:\n        /* \"#utility.yul\":4217:4220   */\n      dup3\n        /* \"#utility.yul\":4210:4244   */\n      mstore\n        /* \"#utility.yul\":4141:4250   */\n      pop\n      pop\n      jump\t// out\n        /* \"#utility.yul\":4256:4466   */\n    tag_14:\n        /* \"#utility.yul\":4343:4347   */\n      0x00\n        /* \"#utility.yul\":4381:4383   */\n      0x20\n        /* \"#utility.yul\":4370:4379   */\n      dup3\n        /* \"#utility.yul\":4366:4384   */\n      add\n        /* \"#utility.yul\":4358:4384   */\n      swap1\n      pop\n        /* \"#utility.yul\":4394:4459   */\n      tag_248\n        /* \"#utility.yul\":4456:4457   */\n      0x00\n        /* \"#utility.yul\":4445:4454   */\n      dup4\n        /* \"#utility.yul\":4441:4458   */\n      add\n        /* \"#utility.yul\":4432:4438   */\n      dup5\n        /* \"#utility.yul\":4394:4459   */\n      tag_148\n      jump\t// in\n    tag_248:\n        /* \"#utility.yul\":4256:4466   */\n      swap3\n      swap2\n      pop\n      pop\n      jump\t// out\n        /* \"#utility.yul\":4472:4801   */\n    tag_17:\n        /* \"#utility.yul\":4531:4537   */\n      0x00\n        /* \"#utility.yul\":4580:4582   */\n      0x20\n        /* \"#utility.yul\":4568:4577   */\n      dup3\n        /* \"#utility.yul\":4559:4566   */\n      dup5\n        /* \"#utility.yul\":4555:4578   */\n      sub\n        /* \"#utility.yul\":4551:4583   */\n      slt\n        /* \"#utility.yul\":4548:4667   */\n      iszero\n      tag_250\n      jumpi\n        /* \"#utility.yul\":4586:4665   */\n      tag_251\n      tag_131\n      jump\t// in\n    tag_251:\n        /* \"#utility.yul\":4548:4667   */\n    tag_250:\n        /* \"#utility.yul\":4706:4707   */\n      0x00\n        /* \"#utility.yul\":4731:4784   */\n      tag_252\n        /* \"#utility.yul\":4776:4783   */\n      dup5\n        /* \"#utility.yul\":4767:4773   */\n      dup3\n        /* \"#utility.yul\":4756:4765   */\n      dup6\n        /* \"#utility.yul\":4752:4774   */\n      add\n        /* \"#utility.yul\":4731:4784   */\n      tag_136\n      jump\t// in\n    tag_252:\n        /* \"#utility.yul\":4721:4784   */\n      swap2\n      pop\n        /* \"#utility.yul\":4677:4794   */\n      pop\n        /* \"#utility.yul\":4472:4801   */\n      swap3\n      swap2\n      pop\n      pop\n      jump\t// out\n        /* \"#utility.yul\":4807:4906   */\n    tag_149:\n        /* \"#utility.yul\":4859:4865   */\n      0x00\n        /* \"#utility.yul\":4893:4898   */\n      dup2\n        /* \"#utility.yul\":4887:4899   */\n      mload\n        /* \"#utility.yul\":4877:4899   */\n      swap1\n      pop\n        /* \"#utility.yul\":4807:4906   */\n      swap2\n      swap1\n      pop\n      jump\t// out\n        /* \"#utility.yul\":4912:5081   */\n    tag_150:\n        /* \"#utility.yul\":4996:5007   */\n      0x00\n        /* \"#utility.yul\":5030:5036   */\n      dup3\n        /* \"#utility.yul\":5025:5028   */\n      dup3\n        /* \"#utility.yul\":5018:5037   */\n      mstore\n        /* \"#utility.yul\":5070:5074   */\n      0x20\n        /* \"#utility.yul\":5065:5068   */\n      dup3\n        /* \"#utility.yul\":5061:5075   */\n      add\n        /* \"#utility.yul\":5046:5075   */\n      swap1\n      pop\n        /* \"#utility.yul\":4912:5081   */\n      swap3\n      swap2\n      pop\n      pop\n      jump\t// out\n        /* \"#utility.yul\":5087:5333   */\n    tag_151:\n        /* \"#utility.yul\":5168:5169   */\n      0x00\n        /* \"#utility.yul\":5178:5291   */\n    tag_256:\n        /* \"#utility.yul\":5192:5198   */\n      dup4\n        /* \"#utility.yul\":5189:5190   */\n      dup2\n        /* \"#utility.yul\":5186:5199   */\n      lt\n        /* \"#utility.yul\":5178:5291   */\n      iszero\n      tag_258\n      jumpi\n        /* \"#utility.yul\":5277:5278   */\n      dup1\n        /* \"#utility.yul\":5272:5275   */\n      dup3\n        /* \"#utility.yul\":5268:5279   */\n      add\n        /* \"#utility.yul\":5262:5280   */\n      mload\n        /* \"#utility.yul\":5258:5259   */\n      dup2\n        /* \"#utility.yul\":5253:5256   */\n      dup5\n        /* \"#utility.yul\":5249:5260   */\n      add\n        /* \"#utility.yul\":5242:5281   */\n      mstore\n        /* \"#utility.yul\":5214:5216   */\n      0x20\n        /* \"#utility.yul\":5211:5212   */\n      dup2\n        /* \"#utility.yul\":5207:5217   */\n      add\n        /* \"#utility.yul\":5202:5217   */\n      swap1\n      pop\n        /* \"#utility.yul\":5178:5291   */\n      jump(tag_256)\n    tag_258:\n        /* \"#utility.yul\":5325:5326   */\n      0x00\n        /* \"#utility.yul\":5316:5322   */\n      dup5\n        /* \"#utility.yul\":5311:5314   */\n      dup5\n        /* \"#utility.yul\":5307:5323   */\n      add\n        /* \"#utility.yul\":5300:5327   */\n      mstore\n        /* \"#utility.yul\":5149:5333   */\n      pop\n        /* \"#utility.yul\":5087:5333   */\n      pop\n      pop\n      pop\n      jump\t// out\n        /* \"#utility.yul\":5339:5716   */\n    tag_152:\n        /* \"#utility.yul\":5427:5430   */\n      0x00\n        /* \"#utility.yul\":5455:5494   */\n      tag_260\n        /* \"#utility.yul\":5488:5493   */\n      dup3\n        /* \"#utility.yul\":5455:5494   */\n      tag_149\n      jump\t// in\n    tag_260:\n        /* \"#utility.yul\":5510:5581   */\n      tag_261\n        /* \"#utility.yul\":5574:5580   */\n      dup2\n        /* \"#utility.yul\":5569:5572   */\n      dup6\n        /* \"#utility.yul\":5510:5581   */\n      tag_150\n      jump\t// in\n    tag_261:\n        /* \"#utility.yul\":5503:5581   */\n      swap4\n      pop\n        /* \"#utility.yul\":5590:5655   */\n      tag_262\n        /* \"#utility.yul\":5648:5654   */\n      dup2\n        /* \"#utility.yul\":5643:5646   */\n      dup6\n        /* \"#utility.yul\":5636:5640   */\n      0x20\n        /* \"#utility.yul\":5629:5634   */\n      dup7\n        /* \"#utility.yul\":5625:5641   */\n      add\n        /* \"#utility.yul\":5590:5655   */\n      tag_151\n      jump\t// in\n    tag_262:\n        /* \"#utility.yul\":5680:5709   */\n      tag_263\n        /* \"#utility.yul\":5702:5708   */\n      dup2\n        /* \"#utility.yul\":5680:5709   */\n      tag_139\n      jump\t// in\n    tag_263:\n        /* \"#utility.yul\":5675:5678   */\n      dup5\n        /* \"#utility.yul\":5671:5710   */\n      add\n        /* \"#utility.yul\":5664:5710   */\n      swap2\n      pop\n        /* \"#utility.yul\":5431:5716   */\n      pop\n        /* \"#utility.yul\":5339:5716   */\n      swap3\n      swap2\n      pop\n      pop\n      jump\t// out\n        /* \"#utility.yul\":5722:6236   */\n    tag_24:\n        /* \"#utility.yul\":5883:5887   */\n      0x00\n        /* \"#utility.yul\":5921:5923   */\n      0x40\n        /* \"#utility.yul\":5910:5919   */\n      dup3\n        /* \"#utility.yul\":5906:5924   */\n      add\n        /* \"#utility.yul\":5898:5924   */\n      swap1\n      pop\n        /* \"#utility.yul\":5970:5979   */\n      dup2\n        /* \"#utility.yul\":5964:5968   */\n      dup2\n        /* \"#utility.yul\":5960:5980   */\n      sub\n        /* \"#utility.yul\":5956:5957   */\n      0x00\n        /* \"#utility.yul\":5945:5954   */\n      dup4\n        /* \"#utility.yul\":5941:5958   */\n      add\n        /* \"#utility.yul\":5934:5981   */\n      mstore\n        /* \"#utility.yul\":5998:6076   */\n      tag_265\n        /* \"#utility.yul\":6071:6075   */\n      dup2\n        /* \"#utility.yul\":6062:6068   */\n      dup6\n        /* \"#utility.yul\":5998:6076   */\n      tag_152\n      jump\t// in\n    tag_265:\n        /* \"#utility.yul\":5990:6076   */\n      swap1\n      pop\n        /* \"#utility.yul\":6123:6132   */\n      dup2\n        /* \"#utility.yul\":6117:6121   */\n      dup2\n        /* \"#utility.yul\":6113:6133   */\n      sub\n        /* \"#utility.yul\":6108:6110   */\n      0x20\n        /* \"#utility.yul\":6097:6106   */\n      dup4\n        /* \"#utility.yul\":6093:6111   */\n      add\n        /* \"#utility.yul\":6086:6134   */\n      mstore\n        /* \"#utility.yul\":6151:6229   */\n      tag_266\n        /* \"#utility.yul\":6224:6228   */\n      dup2\n        /* \"#utility.yul\":6215:6221   */\n      dup5\n        /* \"#utility.yul\":6151:6229   */\n      tag_152\n      jump\t// in\n    tag_266:\n        /* \"#utility.yul\":6143:6229   */\n      swap1\n      pop\n        /* \"#utility.yul\":5722:6236   */\n      swap4\n      swap3\n      pop\n      pop\n      pop\n      jump\t// out\n        /* \"#utility.yul\":6242:6319   */\n    tag_153:\n        /* \"#utility.yul\":6279:6286   */\n      0x00\n        /* \"#utility.yul\":6308:6313   */\n      dup2\n        /* \"#utility.yul\":6297:6313   */\n      swap1\n      pop\n        /* \"#utility.yul\":6242:6319   */\n      swap2\n      swap1\n      pop\n      jump\t// out\n        /* \"#utility.yul\":6325:6443   */\n    tag_154:\n        /* \"#utility.yul\":6412:6436   */\n      tag_269\n        /* \"#utility.yul\":6430:6435   */\n      dup2\n        /* \"#utility.yul\":6412:6436   */\n      tag_153\n      jump\t// in\n    tag_269:\n        /* \"#utility.yul\":6407:6410   */\n      dup3\n        /* \"#utility.yul\":6400:6437   */\n      mstore\n        /* \"#utility.yul\":6325:6443   */\n      pop\n      pop\n      jump\t// out\n        /* \"#utility.yul\":6449:7386   */\n    tag_29:\n        /* \"#utility.yul\":6714:6718   */\n      0x00\n        /* \"#utility.yul\":6752:6755   */\n      0xa0\n        /* \"#utility.yul\":6741:6750   */\n      dup3\n        /* \"#utility.yul\":6737:6756   */\n      add\n        /* \"#utility.yul\":6729:6756   */\n      swap1\n      pop\n        /* \"#utility.yul\":6766:6837   */\n      tag_271\n        /* \"#utility.yul\":6834:6835   */\n      0x00\n        /* \"#utility.yul\":6823:6832   */\n      dup4\n        /* \"#utility.yul\":6819:6836   */\n      add\n        /* \"#utility.yul\":6810:6816   */\n      dup9\n        /* \"#utility.yul\":6766:6837   */\n      tag_154\n      jump\t// in\n    tag_271:\n        /* \"#utility.yul\":6884:6893   */\n      dup2\n        /* \"#utility.yul\":6878:6882   */\n      dup2\n        /* \"#utility.yul\":6874:6894   */\n      sub\n        /* \"#utility.yul\":6869:6871   */\n      0x20\n        /* \"#utility.yul\":6858:6867   */\n      dup4\n        /* \"#utility.yul\":6854:6872   */\n      add\n        /* \"#utility.yul\":6847:6895   */\n      mstore\n        /* \"#utility.yul\":6912:6990   */\n      tag_272\n        /* \"#utility.yul\":6985:6989   */\n      dup2\n        /* \"#utility.yul\":6976:6982   */\n      dup8\n        /* \"#utility.yul\":6912:6990   */\n      tag_152\n      jump\t// in\n    tag_272:\n        /* \"#utility.yul\":6904:6990   */\n      swap1\n      pop\n        /* \"#utility.yul\":7037:7046   */\n      dup2\n        /* \"#utility.yul\":7031:7035   */\n      dup2\n        /* \"#utility.yul\":7027:7047   */\n      sub\n        /* \"#utility.yul\":7022:7024   */\n      0x40\n        /* \"#utility.yul\":7011:7020   */\n      dup4\n        /* \"#utility.yul\":7007:7025   */\n      add\n        /* \"#utility.yul\":7000:7048   */\n      mstore\n        /* \"#utility.yul\":7065:7143   */\n      tag_273\n        /* \"#utility.yul\":7138:7142   */\n      dup2\n        /* \"#utility.yul\":7129:7135   */\n      dup7\n        /* \"#utility.yul\":7065:7143   */\n      tag_152\n      jump\t// in\n    tag_273:\n        /* \"#utility.yul\":7057:7143   */\n      swap1\n      pop\n        /* \"#utility.yul\":7190:7199   */\n      dup2\n        /* \"#utility.yul\":7184:7188   */\n      dup2\n        /* \"#utility.yul\":7180:7200   */\n      sub\n        /* \"#utility.yul\":7175:7177   */\n      0x60\n        /* \"#utility.yul\":7164:7173   */\n      dup4\n        /* \"#utility.yul\":7160:7178   */\n      add\n        /* \"#utility.yul\":7153:7201   */\n      mstore\n        /* \"#utility.yul\":7218:7296   */\n      tag_274\n        /* \"#utility.yul\":7291:7295   */\n      dup2\n        /* \"#utility.yul\":7282:7288   */\n      dup6\n        /* \"#utility.yul\":7218:7296   */\n      tag_152\n      jump\t// in\n    tag_274:\n        /* \"#utility.yul\":7210:7296   */\n      swap1\n      pop\n        /* \"#utility.yul\":7306:7379   */\n      tag_275\n        /* \"#utility.yul\":7374:7377   */\n      0x80\n        /* \"#utility.yul\":7363:7372   */\n      dup4\n        /* \"#utility.yul\":7359:7378   */\n      add\n        /* \"#utility.yul\":7350:7356   */\n      dup5\n        /* \"#utility.yul\":7306:7379   */\n      tag_154\n      jump\t// in\n    tag_275:\n        /* \"#utility.yul\":6449:7386   */\n      swap7\n      swap6\n      pop\n      pop\n      pop\n      pop\n      pop\n      pop\n      jump\t// out\n        /* \"#utility.yul\":7392:8697   */\n    tag_36:\n        /* \"#utility.yul\":7508:7514   */\n      0x00\n        /* \"#utility.yul\":7516:7522   */\n      dup1\n        /* \"#utility.yul\":7524:7530   */\n      0x00\n        /* \"#utility.yul\":7532:7538   */\n      dup1\n        /* \"#utility.yul\":7581:7584   */\n      0x80\n        /* \"#utility.yul\":7569:7578   */\n      dup6\n        /* \"#utility.yul\":7560:7567   */\n      dup8\n        /* \"#utility.yul\":7556:7579   */\n      sub\n        /* \"#utility.yul\":7552:7585   */\n      slt\n        /* \"#utility.yul\":7549:7669   */\n      iszero\n      tag_277\n      jumpi\n        /* \"#utility.yul\":7588:7667   */\n      tag_278\n      tag_131\n      jump\t// in\n    tag_278:\n        /* \"#utility.yul\":7549:7669   */\n    tag_277:\n        /* \"#utility.yul\":7736:7737   */\n      0x00\n        /* \"#utility.yul\":7725:7734   */\n      dup6\n        /* \"#utility.yul\":7721:7738   */\n      add\n        /* \"#utility.yul\":7708:7739   */\n      calldataload\n        /* \"#utility.yul\":7766:7784   */\n      0xffffffffffffffff\n        /* \"#utility.yul\":7758:7764   */\n      dup2\n        /* \"#utility.yul\":7755:7785   */\n      gt\n        /* \"#utility.yul\":7752:7869   */\n      iszero\n      tag_279\n      jumpi\n        /* \"#utility.yul\":7788:7867   */\n      tag_280\n      tag_132\n      jump\t// in\n    tag_280:\n        /* \"#utility.yul\":7752:7869   */\n    tag_279:\n        /* \"#utility.yul\":7893:7956   */\n      tag_281\n        /* \"#utility.yul\":7948:7955   */\n      dup8\n        /* \"#utility.yul\":7939:7945   */\n      dup3\n        /* \"#utility.yul\":7928:7937   */\n      dup9\n        /* \"#utility.yul\":7924:7946   */\n      add\n        /* \"#utility.yul\":7893:7956   */\n      tag_146\n      jump\t// in\n    tag_281:\n        /* \"#utility.yul\":7883:7956   */\n      swap5\n      pop\n        /* \"#utility.yul\":7679:7966   */\n      pop\n        /* \"#utility.yul\":8033:8035   */\n      0x20\n        /* \"#utility.yul\":8022:8031   */\n      dup6\n        /* \"#utility.yul\":8018:8036   */\n      add\n        /* \"#utility.yul\":8005:8037   */\n      calldataload\n        /* \"#utility.yul\":8064:8082   */\n      0xffffffffffffffff\n        /* \"#utility.yul\":8056:8062   */\n      dup2\n        /* \"#utility.yul\":8053:8083   */\n      gt\n        /* \"#utility.yul\":8050:8167   */\n      iszero\n      tag_282\n      jumpi\n        /* \"#utility.yul\":8086:8165   */\n      tag_283\n      tag_132\n      jump\t// in\n    tag_283:\n        /* \"#utility.yul\":8050:8167   */\n    tag_282:\n        /* \"#utility.yul\":8191:8254   */\n      tag_284\n        /* \"#utility.yul\":8246:8253   */\n      dup8\n        /* \"#utility.yul\":8237:8243   */\n      dup3\n        /* \"#utility.yul\":8226:8235   */\n      dup9\n        /* \"#utility.yul\":8222:8244   */\n      add\n        /* \"#utility.yul\":8191:8254   */\n      tag_146\n      jump\t// in\n    tag_284:\n        /* \"#utility.yul\":8181:8254   */\n      swap4\n      pop\n        /* \"#utility.yul\":7976:8264   */\n      pop\n        /* \"#utility.yul\":8331:8333   */\n      0x40\n        /* \"#utility.yul\":8320:8329   */\n      dup6\n        /* \"#utility.yul\":8316:8334   */\n      add\n        /* \"#utility.yul\":8303:8335   */\n      calldataload\n        /* \"#utility.yul\":8362:8380   */\n      0xffffffffffffffff\n        /* \"#utility.yul\":8354:8360   */\n      dup2\n        /* \"#utility.yul\":8351:8381   */\n      gt\n        /* \"#utility.yul\":8348:8465   */\n      iszero\n      tag_285\n      jumpi\n        /* \"#utility.yul\":8384:8463   */\n      tag_286\n      tag_132\n      jump\t// in\n    tag_286:\n        /* \"#utility.yul\":8348:8465   */\n    tag_285:\n        /* \"#utility.yul\":8489:8552   */\n      tag_287\n        /* \"#utility.yul\":8544:8551   */\n      dup8\n        /* \"#utility.yul\":8535:8541   */\n      dup3\n        /* \"#utility.yul\":8524:8533   */\n      dup9\n        /* \"#utility.yul\":8520:8542   */\n      add\n        /* \"#utility.yul\":8489:8552   */\n      tag_146\n      jump\t// in\n    tag_287:\n        /* \"#utility.yul\":8479:8552   */\n      swap3\n      pop\n        /* \"#utility.yul\":8274:8562   */\n      pop\n        /* \"#utility.yul\":8601:8603   */\n      0x60\n        /* \"#utility.yul\":8627:8680   */\n      tag_288\n        /* \"#utility.yul\":8672:8679   */\n      dup8\n        /* \"#utility.yul\":8663:8669   */\n      dup3\n        /* \"#utility.yul\":8652:8661   */\n      dup9\n        /* \"#utility.yul\":8648:8670   */\n      add\n        /* \"#utility.yul\":8627:8680   */\n      tag_136\n      jump\t// in\n    tag_288:\n        /* \"#utility.yul\":8617:8680   */\n      swap2\n      pop\n        /* \"#utility.yul\":8572:8690   */\n      pop\n        /* \"#utility.yul\":7392:8697   */\n      swap3\n      swap6\n      swap2\n      swap5\n      pop\n      swap3\n      pop\n      jump\t// out\n        /* \"#utility.yul\":8703:8930   */\n    tag_155:\n        /* \"#utility.yul\":8843:8877   */\n      0x41646472657373207574696c697a7a61746f206e6f6e2076616c69646f2c2070\n        /* \"#utility.yul\":8839:8840   */\n      0x00\n        /* \"#utility.yul\":8831:8837   */\n      dup3\n        /* \"#utility.yul\":8827:8841   */\n      add\n        /* \"#utility.yul\":8820:8878   */\n      mstore\n        /* \"#utility.yul\":8912:8922   */\n      0x6172692061203021000000000000000000000000000000000000000000000000\n        /* \"#utility.yul\":8907:8909   */\n      0x20\n        /* \"#utility.yul\":8899:8905   */\n      dup3\n        /* \"#utility.yul\":8895:8910   */\n      add\n        /* \"#utility.yul\":8888:8923   */\n      mstore\n        /* \"#utility.yul\":8703:8930   */\n      pop\n      jump\t// out\n        /* \"#utility.yul\":8936:9302   */\n    tag_156:\n        /* \"#utility.yul\":9078:9081   */\n      0x00\n        /* \"#utility.yul\":9099:9166   */\n      tag_291\n        /* \"#utility.yul\":9163:9165   */\n      0x28\n        /* \"#utility.yul\":9158:9161   */\n      dup4\n        /* \"#utility.yul\":9099:9166   */\n      tag_150\n      jump\t// in\n    tag_291:\n        /* \"#utility.yul\":9092:9166   */\n      swap2\n      pop\n        /* \"#utility.yul\":9175:9268   */\n      tag_292\n        /* \"#utility.yul\":9264:9267   */\n      dup3\n        /* \"#utility.yul\":9175:9268   */\n      tag_155\n      jump\t// in\n    tag_292:\n        /* \"#utility.yul\":9293:9295   */\n      0x40\n        /* \"#utility.yul\":9288:9291   */\n      dup3\n        /* \"#utility.yul\":9284:9296   */\n      add\n        /* \"#utility.yul\":9277:9296   */\n      swap1\n      pop\n        /* \"#utility.yul\":8936:9302   */\n      swap2\n      swap1\n      pop\n      jump\t// out\n        /* \"#utility.yul\":9308:9727   */\n    tag_41:\n        /* \"#utility.yul\":9474:9478   */\n      0x00\n        /* \"#utility.yul\":9512:9514   */\n      0x20\n        /* \"#utility.yul\":9501:9510   */\n      dup3\n        /* \"#utility.yul\":9497:9515   */\n      add\n        /* \"#utility.yul\":9489:9515   */\n      swap1\n      pop\n        /* \"#utility.yul\":9561:9570   */\n      dup2\n        /* \"#utility.yul\":9555:9559   */\n      dup2\n        /* \"#utility.yul\":9551:9571   */\n      sub\n        /* \"#utility.yul\":9547:9548   */\n      0x00\n        /* \"#utility.yul\":9536:9545   */\n      dup4\n        /* \"#utility.yul\":9532:9549   */\n      add\n        /* \"#utility.yul\":9525:9572   */\n      mstore\n        /* \"#utility.yul\":9589:9720   */\n      tag_294\n        /* \"#utility.yul\":9715:9719   */\n      dup2\n        /* \"#utility.yul\":9589:9720   */\n      tag_156\n      jump\t// in\n    tag_294:\n        /* \"#utility.yul\":9581:9720   */\n      swap1\n      pop\n        /* \"#utility.yul\":9308:9727   */\n      swap2\n      swap1\n      pop\n      jump\t// out\n        /* \"#utility.yul\":9733:9902   */\n    tag_157:\n        /* \"#utility.yul\":9873:9894   */\n      0x41646472657373206e6f6e2056616c69646f2100000000000000000000000000\n        /* \"#utility.yul\":9869:9870   */\n      0x00\n        /* \"#utility.yul\":9861:9867   */\n      dup3\n        /* \"#utility.yul\":9857:9871   */\n      add\n        /* \"#utility.yul\":9850:9895   */\n      mstore\n        /* \"#utility.yul\":9733:9902   */\n      pop\n      jump\t// out\n        /* \"#utility.yul\":9908:10274   */\n    tag_158:\n        /* \"#utility.yul\":10050:10053   */\n      0x00\n        /* \"#utility.yul\":10071:10138   */\n      tag_297\n        /* \"#utility.yul\":10135:10137   */\n      0x13\n        /* \"#utility.yul\":10130:10133   */\n      dup4\n        /* \"#utility.yul\":10071:10138   */\n      tag_150\n      jump\t// in\n    tag_297:\n        /* \"#utility.yul\":10064:10138   */\n      swap2\n      pop\n        /* \"#utility.yul\":10147:10240   */\n      tag_298\n        /* \"#utility.yul\":10236:10239   */\n      dup3\n        /* \"#utility.yul\":10147:10240   */\n      tag_157\n      jump\t// in\n    tag_298:\n        /* \"#utility.yul\":10265:10267   */\n      0x20\n        /* \"#utility.yul\":10260:10263   */\n      dup3\n        /* \"#utility.yul\":10256:10268   */\n      add\n        /* \"#utility.yul\":10249:10268   */\n      swap1\n      pop\n        /* \"#utility.yul\":9908:10274   */\n      swap2\n      swap1\n      pop\n      jump\t// out\n        /* \"#utility.yul\":10280:10699   */\n    tag_44:\n        /* \"#utility.yul\":10446:10450   */\n      0x00\n        /* \"#utility.yul\":10484:10486   */\n      0x20\n        /* \"#utility.yul\":10473:10482   */\n      dup3\n        /* \"#utility.yul\":10469:10487   */\n      add\n        /* \"#utility.yul\":10461:10487   */\n      swap1\n      pop\n        /* \"#utility.yul\":10533:10542   */\n      dup2\n        /* \"#utility.yul\":10527:10531   */\n      dup2\n        /* \"#utility.yul\":10523:10543   */\n      sub\n        /* \"#utility.yul\":10519:10520   */\n      0x00\n        /* \"#utility.yul\":10508:10517   */\n      dup4\n        /* \"#utility.yul\":10504:10521   */\n      add\n        /* \"#utility.yul\":10497:10544   */\n      mstore\n        /* \"#utility.yul\":10561:10692   */\n      tag_300\n        /* \"#utility.yul\":10687:10691   */\n      dup2\n        /* \"#utility.yul\":10561:10692   */\n      tag_158\n      jump\t// in\n    tag_300:\n        /* \"#utility.yul\":10553:10692   */\n      swap1\n      pop\n        /* \"#utility.yul\":10280:10699   */\n      swap2\n      swap1\n      pop\n      jump\t// out\n        /* \"#utility.yul\":10705:10875   */\n    tag_159:\n        /* \"#utility.yul\":10845:10867   */\n      0x5574656e7465206e6f6e2070726573656e746521000000000000000000000000\n        /* \"#utility.yul\":10841:10842   */\n      0x00\n        /* \"#utility.yul\":10833:10839   */\n      dup3\n        /* \"#utility.yul\":10829:10843   */\n      add\n        /* \"#utility.yul\":10822:10868   */\n      mstore\n        /* \"#utility.yul\":10705:10875   */\n      pop\n      jump\t// out\n        /* \"#utility.yul\":10881:11247   */\n    tag_160:\n        /* \"#utility.yul\":11023:11026   */\n      0x00\n        /* \"#utility.yul\":11044:11111   */\n      tag_303\n        /* \"#utility.yul\":11108:11110   */\n      0x14\n        /* \"#utility.yul\":11103:11106   */\n      dup4\n        /* \"#utility.yul\":11044:11111   */\n      tag_150\n      jump\t// in\n    tag_303:\n        /* \"#utility.yul\":11037:11111   */\n      swap2\n      pop\n        /* \"#utility.yul\":11120:11213   */\n      tag_304\n        /* \"#utility.yul\":11209:11212   */\n      dup3\n        /* \"#utility.yul\":11120:11213   */\n      tag_159\n      jump\t// in\n    tag_304:\n        /* \"#utility.yul\":11238:11240   */\n      0x20\n        /* \"#utility.yul\":11233:11236   */\n      dup3\n        /* \"#utility.yul\":11229:11241   */\n      add\n        /* \"#utility.yul\":11222:11241   */\n      swap1\n      pop\n        /* \"#utility.yul\":10881:11247   */\n      swap2\n      swap1\n      pop\n      jump\t// out\n        /* \"#utility.yul\":11253:11672   */\n    tag_47:\n        /* \"#utility.yul\":11419:11423   */\n      0x00\n        /* \"#utility.yul\":11457:11459   */\n      0x20\n        /* \"#utility.yul\":11446:11455   */\n      dup3\n        /* \"#utility.yul\":11442:11460   */\n      add\n        /* \"#utility.yul\":11434:11460   */\n      swap1\n      pop\n        /* \"#utility.yul\":11506:11515   */\n      dup2\n        /* \"#utility.yul\":11500:11504   */\n      dup2\n        /* \"#utility.yul\":11496:11516   */\n      sub\n        /* \"#utility.yul\":11492:11493   */\n      0x00\n        /* \"#utility.yul\":11481:11490   */\n      dup4\n        /* \"#utility.yul\":11477:11494   */\n      add\n        /* \"#utility.yul\":11470:11517   */\n      mstore\n        /* \"#utility.yul\":11534:11665   */\n      tag_306\n        /* \"#utility.yul\":11660:11664   */\n      dup2\n        /* \"#utility.yul\":11534:11665   */\n      tag_160\n      jump\t// in\n    tag_306:\n        /* \"#utility.yul\":11526:11665   */\n      swap1\n      pop\n        /* \"#utility.yul\":11253:11672   */\n      swap2\n      swap1\n      pop\n      jump\t// out\n        /* \"#utility.yul\":11678:11826   */\n    tag_161:\n        /* \"#utility.yul\":11780:11791   */\n      0x00\n        /* \"#utility.yul\":11817:11820   */\n      dup2\n        /* \"#utility.yul\":11802:11820   */\n      swap1\n      pop\n        /* \"#utility.yul\":11678:11826   */\n      swap3\n      swap2\n      pop\n      pop\n      jump\t// out\n        /* \"#utility.yul\":11832:12222   */\n    tag_162:\n        /* \"#utility.yul\":11938:11941   */\n      0x00\n        /* \"#utility.yul\":11966:12005   */\n      tag_309\n        /* \"#utility.yul\":11999:12004   */\n      dup3\n        /* \"#utility.yul\":11966:12005   */\n      tag_149\n      jump\t// in\n    tag_309:\n        /* \"#utility.yul\":12021:12110   */\n      tag_310\n        /* \"#utility.yul\":12103:12109   */\n      dup2\n        /* \"#utility.yul\":12098:12101   */\n      dup6\n        /* \"#utility.yul\":12021:12110   */\n      tag_161\n      jump\t// in\n    tag_310:\n        /* \"#utility.yul\":12014:12110   */\n      swap4\n      pop\n        /* \"#utility.yul\":12119:12184   */\n      tag_311\n        /* \"#utility.yul\":12177:12183   */\n      dup2\n        /* \"#utility.yul\":12172:12175   */\n      dup6\n        /* \"#utility.yul\":12165:12169   */\n      0x20\n        /* \"#utility.yul\":12158:12163   */\n      dup7\n        /* \"#utility.yul\":12154:12170   */\n      add\n        /* \"#utility.yul\":12119:12184   */\n      tag_151\n      jump\t// in\n    tag_311:\n        /* \"#utility.yul\":12209:12215   */\n      dup1\n        /* \"#utility.yul\":12204:12207   */\n      dup5\n        /* \"#utility.yul\":12200:12216   */\n      add\n        /* \"#utility.yul\":12193:12216   */\n      swap2\n      pop\n        /* \"#utility.yul\":11942:12222   */\n      pop\n        /* \"#utility.yul\":11832:12222   */\n      swap3\n      swap2\n      pop\n      pop\n      jump\t// out\n        /* \"#utility.yul\":12228:12663   */\n    tag_49:\n        /* \"#utility.yul\":12408:12411   */\n      0x00\n        /* \"#utility.yul\":12430:12525   */\n      tag_313\n        /* \"#utility.yul\":12521:12524   */\n      dup3\n        /* \"#utility.yul\":12512:12518   */\n      dup6\n        /* \"#utility.yul\":12430:12525   */\n      tag_162\n      jump\t// in\n    tag_313:\n        /* \"#utility.yul\":12423:12525   */\n      swap2\n      pop\n        /* \"#utility.yul\":12542:12637   */\n      tag_314\n        /* \"#utility.yul\":12633:12636   */\n      dup3\n        /* \"#utility.yul\":12624:12630   */\n      dup5\n        /* \"#utility.yul\":12542:12637   */\n      tag_162\n      jump\t// in\n    tag_314:\n        /* \"#utility.yul\":12535:12637   */\n      swap2\n      pop\n        /* \"#utility.yul\":12654:12657   */\n      dup2\n        /* \"#utility.yul\":12647:12657   */\n      swap1\n      pop\n        /* \"#utility.yul\":12228:12663   */\n      swap4\n      swap3\n      pop\n      pop\n      pop\n      jump\t// out\n        /* \"#utility.yul\":12669:12849   */\n    tag_163:\n        /* \"#utility.yul\":12717:12794   */\n      0x4e487b7100000000000000000000000000000000000000000000000000000000\n        /* \"#utility.yul\":12714:12715   */\n      0x00\n        /* \"#utility.yul\":12707:12795   */\n      mstore\n        /* \"#utility.yul\":12814:12818   */\n      0x22\n        /* \"#utility.yul\":12811:12812   */\n      0x04\n        /* \"#utility.yul\":12804:12819   */\n      mstore\n        /* \"#utility.yul\":12838:12842   */\n      0x24\n        /* \"#utility.yul\":12835:12836   */\n      0x00\n        /* \"#utility.yul\":12828:12843   */\n      revert\n        /* \"#utility.yul\":12855:13175   */\n    tag_70:\n        /* \"#utility.yul\":12899:12905   */\n      0x00\n        /* \"#utility.yul\":12936:12937   */\n      0x02\n        /* \"#utility.yul\":12930:12934   */\n      dup3\n        /* \"#utility.yul\":12926:12938   */\n      div\n        /* \"#utility.yul\":12916:12938   */\n      swap1\n      pop\n        /* \"#utility.yul\":12983:12984   */\n      0x01\n        /* \"#utility.yul\":12977:12981   */\n      dup3\n        /* \"#utility.yul\":12973:12985   */\n      and\n        /* \"#utility.yul\":13004:13022   */\n      dup1\n        /* \"#utility.yul\":12994:13075   */\n      tag_317\n      jumpi\n        /* \"#utility.yul\":13060:13064   */\n      0x7f\n        /* \"#utility.yul\":13052:13058   */\n      dup3\n        /* \"#utility.yul\":13048:13065   */\n      and\n        /* \"#utility.yul\":13038:13065   */\n      swap2\n      pop\n        /* \"#utility.yul\":12994:13075   */\n    tag_317:\n        /* \"#utility.yul\":13122:13124   */\n      0x20\n        /* \"#utility.yul\":13114:13120   */\n      dup3\n        /* \"#utility.yul\":13111:13125   */\n      lt\n        /* \"#utility.yul\":13091:13109   */\n      dup2\n        /* \"#utility.yul\":13088:13126   */\n      sub\n        /* \"#utility.yul\":13085:13169   */\n      tag_318\n      jumpi\n        /* \"#utility.yul\":13141:13159   */\n      tag_319\n      tag_163\n      jump\t// in\n    tag_319:\n        /* \"#utility.yul\":13085:13169   */\n    tag_318:\n        /* \"#utility.yul\":12906:13175   */\n      pop\n        /* \"#utility.yul\":12855:13175   */\n      swap2\n      swap1\n      pop\n      jump\t// out\n        /* \"#utility.yul\":13181:13322   */\n    tag_164:\n        /* \"#utility.yul\":13230:13234   */\n      0x00\n        /* \"#utility.yul\":13253:13256   */\n      dup2\n        /* \"#utility.yul\":13245:13256   */\n      swap1\n      pop\n        /* \"#utility.yul\":13276:13279   */\n      dup2\n        /* \"#utility.yul\":13273:13274   */\n      0x00\n        /* \"#utility.yul\":13266:13280   */\n      mstore\n        /* \"#utility.yul\":13310:13314   */\n      0x20\n        /* \"#utility.yul\":13307:13308   */\n      0x00\n        /* \"#utility.yul\":13297:13315   */\n      keccak256\n        /* \"#utility.yul\":13289:13315   */\n      swap1\n      pop\n        /* \"#utility.yul\":13181:13322   */\n      swap2\n      swap1\n      pop\n      jump\t// out\n        /* \"#utility.yul\":13352:14226   */\n    tag_165:\n        /* \"#utility.yul\":13455:13458   */\n      0x00\n        /* \"#utility.yul\":13492:13497   */\n      dup2\n        /* \"#utility.yul\":13486:13498   */\n      sload\n        /* \"#utility.yul\":13521:13557   */\n      tag_322\n        /* \"#utility.yul\":13547:13556   */\n      dup2\n        /* \"#utility.yul\":13521:13557   */\n      tag_70\n      jump\t// in\n    tag_322:\n        /* \"#utility.yul\":13573:13662   */\n      tag_323\n        /* \"#utility.yul\":13655:13661   */\n      dup2\n        /* \"#utility.yul\":13650:13653   */\n      dup7\n        /* \"#utility.yul\":13573:13662   */\n      tag_161\n      jump\t// in\n    tag_323:\n        /* \"#utility.yul\":13566:13662   */\n      swap5\n      pop\n        /* \"#utility.yul\":13693:13694   */\n      0x01\n        /* \"#utility.yul\":13682:13691   */\n      dup3\n        /* \"#utility.yul\":13678:13695   */\n      and\n        /* \"#utility.yul\":13709:13710   */\n      0x00\n        /* \"#utility.yul\":13704:13870   */\n      dup2\n      eq\n      tag_325\n      jumpi\n        /* \"#utility.yul\":13884:13885   */\n      0x01\n        /* \"#utility.yul\":13879:14220   */\n      dup2\n      eq\n      tag_326\n      jumpi\n        /* \"#utility.yul\":13671:14220   */\n      jump(tag_324)\n        /* \"#utility.yul\":13704:13870   */\n    tag_325:\n        /* \"#utility.yul\":13788:13792   */\n      0xff\n        /* \"#utility.yul\":13784:13793   */\n      not\n        /* \"#utility.yul\":13773:13782   */\n      dup4\n        /* \"#utility.yul\":13769:13794   */\n      and\n        /* \"#utility.yul\":13764:13767   */\n      dup7\n        /* \"#utility.yul\":13757:13795   */\n      mstore\n        /* \"#utility.yul\":13850:13856   */\n      dup2\n        /* \"#utility.yul\":13843:13857   */\n      iszero\n        /* \"#utility.yul\":13836:13858   */\n      iszero\n        /* \"#utility.yul\":13828:13834   */\n      dup3\n        /* \"#utility.yul\":13824:13859   */\n      mul\n        /* \"#utility.yul\":13819:13822   */\n      dup7\n        /* \"#utility.yul\":13815:13860   */\n      add\n        /* \"#utility.yul\":13808:13860   */\n      swap4\n      pop\n        /* \"#utility.yul\":13704:13870   */\n      jump(tag_324)\n        /* \"#utility.yul\":13879:14220   */\n    tag_326:\n        /* \"#utility.yul\":13946:13984   */\n      tag_327\n        /* \"#utility.yul\":13978:13983   */\n      dup6\n        /* \"#utility.yul\":13946:13984   */\n      tag_164\n      jump\t// in\n    tag_327:\n        /* \"#utility.yul\":14006:14007   */\n      0x00\n        /* \"#utility.yul\":14020:14174   */\n    tag_328:\n        /* \"#utility.yul\":14034:14040   */\n      dup4\n        /* \"#utility.yul\":14031:14032   */\n      dup2\n        /* \"#utility.yul\":14028:14041   */\n      lt\n        /* \"#utility.yul\":14020:14174   */\n      iszero\n      tag_330\n      jumpi\n        /* \"#utility.yul\":14108:14115   */\n      dup2\n        /* \"#utility.yul\":14102:14116   */\n      sload\n        /* \"#utility.yul\":14098:14099   */\n      dup2\n        /* \"#utility.yul\":14093:14096   */\n      dup10\n        /* \"#utility.yul\":14089:14100   */\n      add\n        /* \"#utility.yul\":14082:14117   */\n      mstore\n        /* \"#utility.yul\":14158:14159   */\n      0x01\n        /* \"#utility.yul\":14149:14156   */\n      dup3\n        /* \"#utility.yul\":14145:14160   */\n      add\n        /* \"#utility.yul\":14134:14160   */\n      swap2\n      pop\n        /* \"#utility.yul\":14056:14060   */\n      0x20\n        /* \"#utility.yul\":14053:14054   */\n      dup2\n        /* \"#utility.yul\":14049:14061   */\n      add\n        /* \"#utility.yul\":14044:14061   */\n      swap1\n      pop\n        /* \"#utility.yul\":14020:14174   */\n      jump(tag_328)\n    tag_330:\n        /* \"#utility.yul\":14203:14209   */\n      dup4\n        /* \"#utility.yul\":14198:14201   */\n      dup9\n        /* \"#utility.yul\":14194:14210   */\n      add\n        /* \"#utility.yul\":14187:14210   */\n      swap6\n      pop\n        /* \"#utility.yul\":13886:14220   */\n      pop\n      pop\n        /* \"#utility.yul\":13671:14220   */\n    tag_324:\n      pop\n        /* \"#utility.yul\":13459:14226   */\n      pop\n      pop\n        /* \"#utility.yul\":13352:14226   */\n      swap3\n      swap2\n      pop\n      pop\n      jump\t// out\n        /* \"#utility.yul\":14232:14655   */\n    tag_51:\n        /* \"#utility.yul\":14406:14409   */\n      0x00\n        /* \"#utility.yul\":14428:14520   */\n      tag_332\n        /* \"#utility.yul\":14516:14519   */\n      dup3\n        /* \"#utility.yul\":14507:14513   */\n      dup6\n        /* \"#utility.yul\":14428:14520   */\n      tag_165\n      jump\t// in\n    tag_332:\n        /* \"#utility.yul\":14421:14520   */\n      swap2\n      pop\n        /* \"#utility.yul\":14537:14629   */\n      tag_333\n        /* \"#utility.yul\":14625:14628   */\n      dup3\n        /* \"#utility.yul\":14616:14622   */\n      dup5\n        /* \"#utility.yul\":14537:14629   */\n      tag_165\n      jump\t// in\n    tag_333:\n        /* \"#utility.yul\":14530:14629   */\n      swap2\n      pop\n        /* \"#utility.yul\":14646:14649   */\n      dup2\n        /* \"#utility.yul\":14639:14649   */\n      swap1\n      pop\n        /* \"#utility.yul\":14232:14655   */\n      swap4\n      swap3\n      pop\n      pop\n      pop\n      jump\t// out\n        /* \"#utility.yul\":14661:14755   */\n    tag_166:\n        /* \"#utility.yul\":14694:14702   */\n      0x00\n        /* \"#utility.yul\":14742:14747   */\n      dup2\n        /* \"#utility.yul\":14738:14740   */\n      0x60\n        /* \"#utility.yul\":14734:14748   */\n      shl\n        /* \"#utility.yul\":14713:14748   */\n      swap1\n      pop\n        /* \"#utility.yul\":14661:14755   */\n      swap2\n      swap1\n      pop\n      jump\t// out\n        /* \"#utility.yul\":14761:14855   */\n    tag_167:\n        /* \"#utility.yul\":14800:14807   */\n      0x00\n        /* \"#utility.yul\":14829:14849   */\n      tag_336\n        /* \"#utility.yul\":14843:14848   */\n      dup3\n        /* \"#utility.yul\":14829:14849   */\n      tag_166\n      jump\t// in\n    tag_336:\n        /* \"#utility.yul\":14818:14849   */\n      swap1\n      pop\n        /* \"#utility.yul\":14761:14855   */\n      swap2\n      swap1\n      pop\n      jump\t// out\n        /* \"#utility.yul\":14861:14961   */\n    tag_168:\n        /* \"#utility.yul\":14900:14907   */\n      0x00\n        /* \"#utility.yul\":14929:14955   */\n      tag_338\n        /* \"#utility.yul\":14949:14954   */\n      dup3\n        /* \"#utility.yul\":14929:14955   */\n      tag_167\n      jump\t// in\n    tag_338:\n        /* \"#utility.yul\":14918:14955   */\n      swap1\n      pop\n        /* \"#utility.yul\":14861:14961   */\n      swap2\n      swap1\n      pop\n      jump\t// out\n        /* \"#utility.yul\":14967:15124   */\n    tag_169:\n        /* \"#utility.yul\":15072:15117   */\n      tag_340\n        /* \"#utility.yul\":15092:15116   */\n      tag_341\n        /* \"#utility.yul\":15110:15115   */\n      dup3\n        /* \"#utility.yul\":15092:15116   */\n      tag_134\n      jump\t// in\n    tag_341:\n        /* \"#utility.yul\":15072:15117   */\n      tag_168\n      jump\t// in\n    tag_340:\n        /* \"#utility.yul\":15067:15070   */\n      dup3\n        /* \"#utility.yul\":15060:15118   */\n      mstore\n        /* \"#utility.yul\":14967:15124   */\n      pop\n      pop\n      jump\t// out\n        /* \"#utility.yul\":15130:15848   */\n    tag_56:\n        /* \"#utility.yul\":15377:15380   */\n      0x00\n        /* \"#utility.yul\":15399:15491   */\n      tag_343\n        /* \"#utility.yul\":15487:15490   */\n      dup3\n        /* \"#utility.yul\":15478:15484   */\n      dup8\n        /* \"#utility.yul\":15399:15491   */\n      tag_165\n      jump\t// in\n    tag_343:\n        /* \"#utility.yul\":15392:15491   */\n      swap2\n      pop\n        /* \"#utility.yul\":15508:15600   */\n      tag_344\n        /* \"#utility.yul\":15596:15599   */\n      dup3\n        /* \"#utility.yul\":15587:15593   */\n      dup7\n        /* \"#utility.yul\":15508:15600   */\n      tag_165\n      jump\t// in\n    tag_344:\n        /* \"#utility.yul\":15501:15600   */\n      swap2\n      pop\n        /* \"#utility.yul\":15617:15709   */\n      tag_345\n        /* \"#utility.yul\":15705:15708   */\n      dup3\n        /* \"#utility.yul\":15696:15702   */\n      dup6\n        /* \"#utility.yul\":15617:15709   */\n      tag_165\n      jump\t// in\n    tag_345:\n        /* \"#utility.yul\":15610:15709   */\n      swap2\n      pop\n        /* \"#utility.yul\":15719:15794   */\n      tag_346\n        /* \"#utility.yul\":15790:15793   */\n      dup3\n        /* \"#utility.yul\":15781:15787   */\n      dup5\n        /* \"#utility.yul\":15719:15794   */\n      tag_169\n      jump\t// in\n    tag_346:\n        /* \"#utility.yul\":15819:15821   */\n      0x14\n        /* \"#utility.yul\":15814:15817   */\n      dup3\n        /* \"#utility.yul\":15810:15822   */\n      add\n        /* \"#utility.yul\":15803:15822   */\n      swap2\n      pop\n        /* \"#utility.yul\":15839:15842   */\n      dup2\n        /* \"#utility.yul\":15832:15842   */\n      swap1\n      pop\n        /* \"#utility.yul\":15130:15848   */\n      swap6\n      swap5\n      pop\n      pop\n      pop\n      pop\n      pop\n      jump\t// out\n        /* \"#utility.yul\":15854:16027   */\n    tag_170:\n        /* \"#utility.yul\":15994:16019   */\n      0x5574656e7465206e6f6e204175746f72697a7a61746f21000000000000000000\n        /* \"#utility.yul\":15990:15991   */\n      0x00\n        /* \"#utility.yul\":15982:15988   */\n      dup3\n        /* \"#utility.yul\":15978:15992   */\n      add\n        /* \"#utility.yul\":15971:16020   */\n      mstore\n        /* \"#utility.yul\":15854:16027   */\n      pop\n      jump\t// out\n        /* \"#utility.yul\":16033:16399   */\n    tag_171:\n        /* \"#utility.yul\":16175:16178   */\n      0x00\n        /* \"#utility.yul\":16196:16263   */\n      tag_349\n        /* \"#utility.yul\":16260:16262   */\n      0x17\n        /* \"#utility.yul\":16255:16258   */\n      dup4\n        /* \"#utility.yul\":16196:16263   */\n      tag_150\n      jump\t// in\n    tag_349:\n        /* \"#utility.yul\":16189:16263   */\n      swap2\n      pop\n        /* \"#utility.yul\":16272:16365   */\n      tag_350\n        /* \"#utility.yul\":16361:16364   */\n      dup3\n        /* \"#utility.yul\":16272:16365   */\n      tag_170\n      jump\t// in\n    tag_350:\n        /* \"#utility.yul\":16390:16392   */\n      0x20\n        /* \"#utility.yul\":16385:16388   */\n      dup3\n        /* \"#utility.yul\":16381:16393   */\n      add\n        /* \"#utility.yul\":16374:16393   */\n      swap1\n      pop\n        /* \"#utility.yul\":16033:16399   */\n      swap2\n      swap1\n      pop\n      jump\t// out\n        /* \"#utility.yul\":16405:16824   */\n    tag_59:\n        /* \"#utility.yul\":16571:16575   */\n      0x00\n        /* \"#utility.yul\":16609:16611   */\n      0x20\n        /* \"#utility.yul\":16598:16607   */\n      dup3\n        /* \"#utility.yul\":16594:16612   */\n      add\n        /* \"#utility.yul\":16586:16612   */\n      swap1\n      pop\n        /* \"#utility.yul\":16658:16667   */\n      dup2\n        /* \"#utility.yul\":16652:16656   */\n      dup2\n        /* \"#utility.yul\":16648:16668   */\n      sub\n        /* \"#utility.yul\":16644:16645   */\n      0x00\n        /* \"#utility.yul\":16633:16642   */\n      dup4\n        /* \"#utility.yul\":16629:16646   */\n      add\n        /* \"#utility.yul\":16622:16669   */\n      mstore\n        /* \"#utility.yul\":16686:16817   */\n      tag_352\n        /* \"#utility.yul\":16812:16816   */\n      dup2\n        /* \"#utility.yul\":16686:16817   */\n      tag_171\n      jump\t// in\n    tag_352:\n        /* \"#utility.yul\":16678:16817   */\n      swap1\n      pop\n        /* \"#utility.yul\":16405:16824   */\n      swap2\n      swap1\n      pop\n      jump\t// out\n        /* \"#utility.yul\":16830:17007   */\n    tag_172:\n        /* \"#utility.yul\":16970:16999   */\n      0x41646472657373204d696c6b487562206e6f6e2076616c69646f210000000000\n        /* \"#utility.yul\":16966:16967   */\n      0x00\n        /* \"#utility.yul\":16958:16964   */\n      dup3\n        /* \"#utility.yul\":16954:16968   */\n      add\n        /* \"#utility.yul\":16947:17000   */\n      mstore\n        /* \"#utility.yul\":16830:17007   */\n      pop\n      jump\t// out\n        /* \"#utility.yul\":17013:17379   */\n    tag_173:\n        /* \"#utility.yul\":17155:17158   */\n      0x00\n        /* \"#utility.yul\":17176:17243   */\n      tag_355\n        /* \"#utility.yul\":17240:17242   */\n      0x1b\n        /* \"#utility.yul\":17235:17238   */\n      dup4\n        /* \"#utility.yul\":17176:17243   */\n      tag_150\n      jump\t// in\n    tag_355:\n        /* \"#utility.yul\":17169:17243   */\n      swap2\n      pop\n        /* \"#utility.yul\":17252:17345   */\n      tag_356\n        /* \"#utility.yul\":17341:17344   */\n      dup3\n        /* \"#utility.yul\":17252:17345   */\n      tag_172\n      jump\t// in\n    tag_356:\n        /* \"#utility.yul\":17370:17372   */\n      0x20\n        /* \"#utility.yul\":17365:17368   */\n      dup3\n        /* \"#utility.yul\":17361:17373   */\n      add\n        /* \"#utility.yul\":17354:17373   */\n      swap1\n      pop\n        /* \"#utility.yul\":17013:17379   */\n      swap2\n      swap1\n      pop\n      jump\t// out\n        /* \"#utility.yul\":17385:17804   */\n    tag_101:\n        /* \"#utility.yul\":17551:17555   */\n      0x00\n        /* \"#utility.yul\":17589:17591   */\n      0x20\n        /* \"#utility.yul\":17578:17587   */\n      dup3\n        /* \"#utility.yul\":17574:17592   */\n      add\n        /* \"#utility.yul\":17566:17592   */\n      swap1\n      pop\n        /* \"#utility.yul\":17638:17647   */\n      dup2\n        /* \"#utility.yul\":17632:17636   */\n      dup2\n        /* \"#utility.yul\":17628:17648   */\n      sub\n        /* \"#utility.yul\":17624:17625   */\n      0x00\n        /* \"#utility.yul\":17613:17622   */\n      dup4\n        /* \"#utility.yul\":17609:17626   */\n      add\n        /* \"#utility.yul\":17602:17649   */\n      mstore\n        /* \"#utility.yul\":17666:17797   */\n      tag_358\n        /* \"#utility.yul\":17792:17796   */\n      dup2\n        /* \"#utility.yul\":17666:17797   */\n      tag_173\n      jump\t// in\n    tag_358:\n        /* \"#utility.yul\":17658:17797   */\n      swap1\n      pop\n        /* \"#utility.yul\":17385:17804   */\n      swap2\n      swap1\n      pop\n      jump\t// out\n        /* \"#utility.yul\":17810:18546   */\n    tag_106:\n        /* \"#utility.yul\":18066:18069   */\n      0x00\n        /* \"#utility.yul\":18088:18183   */\n      tag_360\n        /* \"#utility.yul\":18179:18182   */\n      dup3\n        /* \"#utility.yul\":18170:18176   */\n      dup8\n        /* \"#utility.yul\":18088:18183   */\n      tag_162\n      jump\t// in\n    tag_360:\n        /* \"#utility.yul\":18081:18183   */\n      swap2\n      pop\n        /* \"#utility.yul\":18200:18295   */\n      tag_361\n        /* \"#utility.yul\":18291:18294   */\n      dup3\n        /* \"#utility.yul\":18282:18288   */\n      dup7\n        /* \"#utility.yul\":18200:18295   */\n      tag_162\n      jump\t// in\n    tag_361:\n        /* \"#utility.yul\":18193:18295   */\n      swap2\n      pop\n        /* \"#utility.yul\":18312:18407   */\n      tag_362\n        /* \"#utility.yul\":18403:18406   */\n      dup3\n        /* \"#utility.yul\":18394:18400   */\n      dup6\n        /* \"#utility.yul\":18312:18407   */\n      tag_162\n      jump\t// in\n    tag_362:\n        /* \"#utility.yul\":18305:18407   */\n      swap2\n      pop\n        /* \"#utility.yul\":18417:18492   */\n      tag_363\n        /* \"#utility.yul\":18488:18491   */\n      dup3\n        /* \"#utility.yul\":18479:18485   */\n      dup5\n        /* \"#utility.yul\":18417:18492   */\n      tag_169\n      jump\t// in\n    tag_363:\n        /* \"#utility.yul\":18517:18519   */\n      0x14\n        /* \"#utility.yul\":18512:18515   */\n      dup3\n        /* \"#utility.yul\":18508:18520   */\n      add\n        /* \"#utility.yul\":18501:18520   */\n      swap2\n      pop\n        /* \"#utility.yul\":18537:18540   */\n      dup2\n        /* \"#utility.yul\":18530:18540   */\n      swap1\n      pop\n        /* \"#utility.yul\":17810:18546   */\n      swap6\n      swap5\n      pop\n      pop\n      pop\n      pop\n      pop\n      jump\t// out\n        /* \"#utility.yul\":18552:18728   */\n    tag_174:\n        /* \"#utility.yul\":18692:18720   */\n      0x4d696c6b48756220616c72656164792072656769737465726564000000000000\n        /* \"#utility.yul\":18688:18689   */\n      0x00\n        /* \"#utility.yul\":18680:18686   */\n      dup3\n        /* \"#utility.yul\":18676:18690   */\n      add\n        /* \"#utility.yul\":18669:18721   */\n      mstore\n        /* \"#utility.yul\":18552:18728   */\n      pop\n      jump\t// out\n        /* \"#utility.yul\":18734:19100   */\n    tag_175:\n        /* \"#utility.yul\":18876:18879   */\n      0x00\n        /* \"#utility.yul\":18897:18964   */\n      tag_366\n        /* \"#utility.yul\":18961:18963   */\n      0x1a\n        /* \"#utility.yul\":18956:18959   */\n      dup4\n        /* \"#utility.yul\":18897:18964   */\n      tag_150\n      jump\t// in\n    tag_366:\n        /* \"#utility.yul\":18890:18964   */\n      swap2\n      pop\n        /* \"#utility.yul\":18973:19066   */\n      tag_367\n        /* \"#utility.yul\":19062:19065   */\n      dup3\n        /* \"#utility.yul\":18973:19066   */\n      tag_174\n      jump\t// in\n    tag_367:\n        /* \"#utility.yul\":19091:19093   */\n      0x20\n        /* \"#utility.yul\":19086:19089   */\n      dup3\n        /* \"#utility.yul\":19082:19094   */\n      add\n        /* \"#utility.yul\":19075:19094   */\n      swap1\n      pop\n        /* \"#utility.yul\":18734:19100   */\n      swap2\n      swap1\n      pop\n      jump\t// out\n        /* \"#utility.yul\":19106:19525   */\n    tag_109:\n        /* \"#utility.yul\":19272:19276   */\n      0x00\n        /* \"#utility.yul\":19310:19312   */\n      0x20\n        /* \"#utility.yul\":19299:19308   */\n      dup3\n        /* \"#utility.yul\":19295:19313   */\n      add\n        /* \"#utility.yul\":19287:19313   */\n      swap1\n      pop\n        /* \"#utility.yul\":19359:19368   */\n      dup2\n        /* \"#utility.yul\":19353:19357   */\n      dup2\n        /* \"#utility.yul\":19349:19369   */\n      sub\n        /* \"#utility.yul\":19345:19346   */\n      0x00\n        /* \"#utility.yul\":19334:19343   */\n      dup4\n        /* \"#utility.yul\":19330:19347   */\n      add\n        /* \"#utility.yul\":19323:19370   */\n      mstore\n        /* \"#utility.yul\":19387:19518   */\n      tag_369\n        /* \"#utility.yul\":19513:19517   */\n      dup2\n        /* \"#utility.yul\":19387:19518   */\n      tag_175\n      jump\t// in\n    tag_369:\n        /* \"#utility.yul\":19379:19518   */\n      swap1\n      pop\n        /* \"#utility.yul\":19106:19525   */\n      swap2\n      swap1\n      pop\n      jump\t// out\n        /* \"#utility.yul\":19531:19706   */\n    tag_176:\n        /* \"#utility.yul\":19671:19698   */\n      0x46756c6c206e616d652063616e6e6f7420626520656d70747900000000000000\n        /* \"#utility.yul\":19667:19668   */\n      0x00\n        /* \"#utility.yul\":19659:19665   */\n      dup3\n        /* \"#utility.yul\":19655:19669   */\n      add\n        /* \"#utility.yul\":19648:19699   */\n      mstore\n        /* \"#utility.yul\":19531:19706   */\n      pop\n      jump\t// out\n        /* \"#utility.yul\":19712:20078   */\n    tag_177:\n        /* \"#utility.yul\":19854:19857   */\n      0x00\n        /* \"#utility.yul\":19875:19942   */\n      tag_372\n        /* \"#utility.yul\":19939:19941   */\n      0x19\n        /* \"#utility.yul\":19934:19937   */\n      dup4\n        /* \"#utility.yul\":19875:19942   */\n      tag_150\n      jump\t// in\n    tag_372:\n        /* \"#utility.yul\":19868:19942   */\n      swap2\n      pop\n        /* \"#utility.yul\":19951:20044   */\n      tag_373\n        /* \"#utility.yul\":20040:20043   */\n      dup3\n        /* \"#utility.yul\":19951:20044   */\n      tag_176\n      jump\t// in\n    tag_373:\n        /* \"#utility.yul\":20069:20071   */\n      0x20\n        /* \"#utility.yul\":20064:20067   */\n      dup3\n        /* \"#utility.yul\":20060:20072   */\n      add\n        /* \"#utility.yul\":20053:20072   */\n      swap1\n      pop\n        /* \"#utility.yul\":19712:20078   */\n      swap2\n      swap1\n      pop\n      jump\t// out\n        /* \"#utility.yul\":20084:20503   */\n    tag_112:\n        /* \"#utility.yul\":20250:20254   */\n      0x00\n        /* \"#utility.yul\":20288:20290   */\n      0x20\n        /* \"#utility.yul\":20277:20286   */\n      dup3\n        /* \"#utility.yul\":20273:20291   */\n      add\n        /* \"#utility.yul\":20265:20291   */\n      swap1\n      pop\n        /* \"#utility.yul\":20337:20346   */\n      dup2\n        /* \"#utility.yul\":20331:20335   */\n      dup2\n        /* \"#utility.yul\":20327:20347   */\n      sub\n        /* \"#utility.yul\":20323:20324   */\n      0x00\n        /* \"#utility.yul\":20312:20321   */\n      dup4\n        /* \"#utility.yul\":20308:20325   */\n      add\n        /* \"#utility.yul\":20301:20348   */\n      mstore\n        /* \"#utility.yul\":20365:20496   */\n      tag_375\n        /* \"#utility.yul\":20491:20495   */\n      dup2\n        /* \"#utility.yul\":20365:20496   */\n      tag_177\n      jump\t// in\n    tag_375:\n        /* \"#utility.yul\":20357:20496   */\n      swap1\n      pop\n        /* \"#utility.yul\":20084:20503   */\n      swap2\n      swap1\n      pop\n      jump\t// out\n        /* \"#utility.yul\":20509:20683   */\n    tag_178:\n        /* \"#utility.yul\":20649:20675   */\n      0x50617373776f72642063616e6e6f7420626520656d7074790000000000000000\n        /* \"#utility.yul\":20645:20646   */\n      0x00\n        /* \"#utility.yul\":20637:20643   */\n      dup3\n        /* \"#utility.yul\":20633:20647   */\n      add\n        /* \"#utility.yul\":20626:20676   */\n      mstore\n        /* \"#utility.yul\":20509:20683   */\n      pop\n      jump\t// out\n        /* \"#utility.yul\":20689:21055   */\n    tag_179:\n        /* \"#utility.yul\":20831:20834   */\n      0x00\n        /* \"#utility.yul\":20852:20919   */\n      tag_378\n        /* \"#utility.yul\":20916:20918   */\n      0x18\n        /* \"#utility.yul\":20911:20914   */\n      dup4\n        /* \"#utility.yul\":20852:20919   */\n      tag_150\n      jump\t// in\n    tag_378:\n        /* \"#utility.yul\":20845:20919   */\n      swap2\n      pop\n        /* \"#utility.yul\":20928:21021   */\n      tag_379\n        /* \"#utility.yul\":21017:21020   */\n      dup3\n        /* \"#utility.yul\":20928:21021   */\n      tag_178\n      jump\t// in\n    tag_379:\n        /* \"#utility.yul\":21046:21048   */\n      0x20\n        /* \"#utility.yul\":21041:21044   */\n      dup3\n        /* \"#utility.yul\":21037:21049   */\n      add\n        /* \"#utility.yul\":21030:21049   */\n      swap1\n      pop\n        /* \"#utility.yul\":20689:21055   */\n      swap2\n      swap1\n      pop\n      jump\t// out\n        /* \"#utility.yul\":21061:21480   */\n    tag_115:\n        /* \"#utility.yul\":21227:21231   */\n      0x00\n        /* \"#utility.yul\":21265:21267   */\n      0x20\n        /* \"#utility.yul\":21254:21263   */\n      dup3\n        /* \"#utility.yul\":21250:21268   */\n      add\n        /* \"#utility.yul\":21242:21268   */\n      swap1\n      pop\n        /* \"#utility.yul\":21314:21323   */\n      dup2\n        /* \"#utility.yul\":21308:21312   */\n      dup2\n        /* \"#utility.yul\":21304:21324   */\n      sub\n        /* \"#utility.yul\":21300:21301   */\n      0x00\n        /* \"#utility.yul\":21289:21298   */\n      dup4\n        /* \"#utility.yul\":21285:21302   */\n      add\n        /* \"#utility.yul\":21278:21325   */\n      mstore\n        /* \"#utility.yul\":21342:21473   */\n      tag_381\n        /* \"#utility.yul\":21468:21472   */\n      dup2\n        /* \"#utility.yul\":21342:21473   */\n      tag_179\n      jump\t// in\n    tag_381:\n        /* \"#utility.yul\":21334:21473   */\n      swap1\n      pop\n        /* \"#utility.yul\":21061:21480   */\n      swap2\n      swap1\n      pop\n      jump\t// out\n        /* \"#utility.yul\":21486:21657   */\n    tag_180:\n        /* \"#utility.yul\":21626:21649   */\n      0x456d61696c2063616e6e6f7420626520656d7074790000000000000000000000\n        /* \"#utility.yul\":21622:21623   */\n      0x00\n        /* \"#utility.yul\":21614:21620   */\n      dup3\n        /* \"#utility.yul\":21610:21624   */\n      add\n        /* \"#utility.yul\":21603:21650   */\n      mstore\n        /* \"#utility.yul\":21486:21657   */\n      pop\n      jump\t// out\n        /* \"#utility.yul\":21663:22029   */\n    tag_181:\n        /* \"#utility.yul\":21805:21808   */\n      0x00\n        /* \"#utility.yul\":21826:21893   */\n      tag_384\n        /* \"#utility.yul\":21890:21892   */\n      0x15\n        /* \"#utility.yul\":21885:21888   */\n      dup4\n        /* \"#utility.yul\":21826:21893   */\n      tag_150\n      jump\t// in\n    tag_384:\n        /* \"#utility.yul\":21819:21893   */\n      swap2\n      pop\n        /* \"#utility.yul\":21902:21995   */\n      tag_385\n        /* \"#utility.yul\":21991:21994   */\n      dup3\n        /* \"#utility.yul\":21902:21995   */\n      tag_180\n      jump\t// in\n    tag_385:\n        /* \"#utility.yul\":22020:22022   */\n      0x20\n        /* \"#utility.yul\":22015:22018   */\n      dup3\n        /* \"#utility.yul\":22011:22023   */\n      add\n        /* \"#utility.yul\":22004:22023   */\n      swap1\n      pop\n        /* \"#utility.yul\":21663:22029   */\n      swap2\n      swap1\n      pop\n      jump\t// out\n        /* \"#utility.yul\":22035:22454   */\n    tag_118:\n        /* \"#utility.yul\":22201:22205   */\n      0x00\n        /* \"#utility.yul\":22239:22241   */\n      0x20\n        /* \"#utility.yul\":22228:22237   */\n      dup3\n        /* \"#utility.yul\":22224:22242   */\n      add\n        /* \"#utility.yul\":22216:22242   */\n      swap1\n      pop\n        /* \"#utility.yul\":22288:22297   */\n      dup2\n        /* \"#utility.yul\":22282:22286   */\n      dup2\n        /* \"#utility.yul\":22278:22298   */\n      sub\n        /* \"#utility.yul\":22274:22275   */\n      0x00\n        /* \"#utility.yul\":22263:22272   */\n      dup4\n        /* \"#utility.yul\":22259:22276   */\n      add\n        /* \"#utility.yul\":22252:22299   */\n      mstore\n        /* \"#utility.yul\":22316:22447   */\n      tag_387\n        /* \"#utility.yul\":22442:22446   */\n      dup2\n        /* \"#utility.yul\":22316:22447   */\n      tag_181\n      jump\t// in\n    tag_387:\n        /* \"#utility.yul\":22308:22447   */\n      swap1\n      pop\n        /* \"#utility.yul\":22035:22454   */\n      swap2\n      swap1\n      pop\n      jump\t// out\n        /* \"#utility.yul\":22460:22553   */\n    tag_182:\n        /* \"#utility.yul\":22497:22503   */\n      0x00\n        /* \"#utility.yul\":22544:22546   */\n      0x20\n        /* \"#utility.yul\":22539:22541   */\n      0x1f\n        /* \"#utility.yul\":22532:22537   */\n      dup4\n        /* \"#utility.yul\":22528:22542   */\n      add\n        /* \"#utility.yul\":22524:22547   */\n      div\n        /* \"#utility.yul\":22514:22547   */\n      swap1\n      pop\n        /* \"#utility.yul\":22460:22553   */\n      swap2\n      swap1\n      pop\n      jump\t// out\n        /* \"#utility.yul\":22559:22666   */\n    tag_183:\n        /* \"#utility.yul\":22603:22611   */\n      0x00\n        /* \"#utility.yul\":22653:22658   */\n      dup3\n        /* \"#utility.yul\":22647:22651   */\n      dup3\n        /* \"#utility.yul\":22643:22659   */\n      shl\n        /* \"#utility.yul\":22622:22659   */\n      swap1\n      pop\n        /* \"#utility.yul\":22559:22666   */\n      swap3\n      swap2\n      pop\n      pop\n      jump\t// out\n        /* \"#utility.yul\":22672:23065   */\n    tag_184:\n        /* \"#utility.yul\":22741:22747   */\n      0x00\n        /* \"#utility.yul\":22791:22792   */\n      0x08\n        /* \"#utility.yul\":22779:22789   */\n      dup4\n        /* \"#utility.yul\":22775:22793   */\n      mul\n        /* \"#utility.yul\":22814:22911   */\n      tag_391\n        /* \"#utility.yul\":22844:22910   */\n      0xffffffffffffffffffffffffffffffffffffffffffffffffffffffffffffffff\n        /* \"#utility.yul\":22833:22842   */\n      dup3\n        /* \"#utility.yul\":22814:22911   */\n      tag_183\n      jump\t// in\n    tag_391:\n        /* \"#utility.yul\":22932:22971   */\n      tag_392\n        /* \"#utility.yul\":22962:22970   */\n      dup7\n        /* \"#utility.yul\":22951:22960   */\n      dup4\n        /* \"#utility.yul\":22932:22971   */\n      tag_183\n      jump\t// in\n    tag_392:\n        /* \"#utility.yul\":22920:22971   */\n      swap6\n      pop\n        /* \"#utility.yul\":23004:23008   */\n      dup1\n        /* \"#utility.yul\":23000:23009   */\n      not\n        /* \"#utility.yul\":22993:22998   */\n      dup5\n        /* \"#utility.yul\":22989:23010   */\n      and\n        /* \"#utility.yul\":22980:23010   */\n      swap4\n      pop\n        /* \"#utility.yul\":23053:23057   */\n      dup1\n        /* \"#utility.yul\":23043:23051   */\n      dup7\n        /* \"#utility.yul\":23039:23058   */\n      and\n        /* \"#utility.yul\":23032:23037   */\n      dup5\n        /* \"#utility.yul\":23029:23059   */\n      or\n        /* \"#utility.yul\":23019:23059   */\n      swap3\n      pop\n        /* \"#utility.yul\":22748:23065   */\n      pop\n      pop\n        /* \"#utility.yul\":22672:23065   */\n      swap4\n      swap3\n      pop\n      pop\n      pop\n      jump\t// out\n        /* \"#utility.yul\":23071:23131   */\n    tag_185:\n        /* \"#utility.yul\":23099:23102   */\n      0x00\n        /* \"#utility.yul\":23120:23125   */\n      dup2\n        /* \"#utility.yul\":23113:23125   */\n      swap1\n      pop\n        /* \"#utility.yul\":23071:23131   */\n      swap2\n      swap1\n      pop\n      jump\t// out\n        /* \"#utility.yul\":23137:23279   */\n    tag_186:\n        /* \"#utility.yul\":23187:23196   */\n      0x00\n        /* \"#utility.yul\":23220:23273   */\n      tag_395\n        /* \"#utility.yul\":23238:23272   */\n      tag_396\n        /* \"#utility.yul\":23247:23271   */\n      tag_397\n        /* \"#utility.yul\":23265:23270   */\n      dup5\n        /* \"#utility.yul\":23247:23271   */\n      tag_153\n      jump\t// in\n    tag_397:\n        /* \"#utility.yul\":23238:23272   */\n      tag_185\n      jump\t// in\n    tag_396:\n        /* \"#utility.yul\":23220:23273   */\n      tag_153\n      jump\t// in\n    tag_395:\n        /* \"#utility.yul\":23207:23273   */\n      swap1\n      pop\n        /* \"#utility.yul\":23137:23279   */\n      swap2\n      swap1\n      pop\n      jump\t// out\n        /* \"#utility.yul\":23285:23360   */\n    tag_187:\n        /* \"#utility.yul\":23328:23331   */\n      0x00\n        /* \"#utility.yul\":23349:23354   */\n      dup2\n        /* \"#utility.yul\":23342:23354   */\n      swap1\n      pop\n        /* \"#utility.yul\":23285:23360   */\n      swap2\n      swap1\n      pop\n      jump\t// out\n        /* \"#utility.yul\":23366:23635   */\n    tag_188:\n        /* \"#utility.yul\":23476:23515   */\n      tag_400\n        /* \"#utility.yul\":23507:23514   */\n      dup4\n        /* \"#utility.yul\":23476:23515   */\n      tag_186\n      jump\t// in\n    tag_400:\n        /* \"#utility.yul\":23537:23628   */\n      tag_401\n        /* \"#utility.yul\":23586:23627   */\n      tag_402\n        /* \"#utility.yul\":23610:23626   */\n      dup3\n        /* \"#utility.yul\":23586:23627   */\n      tag_187\n      jump\t// in\n    tag_402:\n        /* \"#utility.yul\":23578:23584   */\n      dup5\n        /* \"#utility.yul\":23571:23575   */\n      dup5\n        /* \"#utility.yul\":23565:23576   */\n      sload\n        /* \"#utility.yul\":23537:23628   */\n      tag_184\n      jump\t// in\n    tag_401:\n        /* \"#utility.yul\":23531:23535   */\n      dup3\n        /* \"#utility.yul\":23524:23629   */\n      sstore\n        /* \"#utility.yul\":23442:23635   */\n      pop\n        /* \"#utility.yul\":23366:23635   */\n      pop\n      pop\n      pop\n      jump\t// out\n        /* \"#utility.yul\":23641:23714   */\n    tag_189:\n        /* \"#utility.yul\":23686:23689   */\n      0x00\n        /* \"#utility.yul\":23641:23714   */\n      swap1\n      jump\t// out\n        /* \"#utility.yul\":23720:23909   */\n    tag_190:\n        /* \"#utility.yul\":23797:23829   */\n      tag_405\n      tag_189\n      jump\t// in\n    tag_405:\n        /* \"#utility.yul\":23838:23903   */\n      tag_406\n        /* \"#utility.yul\":23896:23902   */\n      dup2\n        /* \"#utility.yul\":23888:23894   */\n      dup5\n        /* \"#utility.yul\":23882:23886   */\n      dup5\n        /* \"#utility.yul\":23838:23903   */\n      tag_188\n      jump\t// in\n    tag_406:\n        /* \"#utility.yul\":23773:23909   */\n      pop\n        /* \"#utility.yul\":23720:23909   */\n      pop\n      pop\n      jump\t// out\n        /* \"#utility.yul\":23915:24101   */\n    tag_191:\n        /* \"#utility.yul\":23975:24095   */\n    tag_408:\n        /* \"#utility.yul\":23992:23995   */\n      dup2\n        /* \"#utility.yul\":23985:23990   */\n      dup2\n        /* \"#utility.yul\":23982:23996   */\n      lt\n        /* \"#utility.yul\":23975:24095   */\n      iszero\n      tag_410\n      jumpi\n        /* \"#utility.yul\":24046:24085   */\n      tag_411\n        /* \"#utility.yul\":24083:24084   */\n      0x00\n        /* \"#utility.yul\":24076:24081   */\n      dup3\n        /* \"#utility.yul\":24046:24085   */\n      tag_190\n      jump\t// in\n    tag_411:\n        /* \"#utility.yul\":24019:24020   */\n      0x01\n        /* \"#utility.yul\":24012:24017   */\n      dup2\n        /* \"#utility.yul\":24008:24021   */\n      add\n        /* \"#utility.yul\":23999:24021   */\n      swap1\n      pop\n        /* \"#utility.yul\":23975:24095   */\n      jump(tag_408)\n    tag_410:\n        /* \"#utility.yul\":23915:24101   */\n      pop\n      pop\n      jump\t// out\n        /* \"#utility.yul\":24107:24650   */\n    tag_192:\n        /* \"#utility.yul\":24208:24210   */\n      0x1f\n        /* \"#utility.yul\":24203:24206   */\n      dup3\n        /* \"#utility.yul\":24200:24211   */\n      gt\n        /* \"#utility.yul\":24197:24643   */\n      iszero\n      tag_413\n      jumpi\n        /* \"#utility.yul\":24242:24280   */\n      tag_414\n        /* \"#utility.yul\":24274:24279   */\n      dup2\n        /* \"#utility.yul\":24242:24280   */\n      tag_164\n      jump\t// in\n    tag_414:\n        /* \"#utility.yul\":24326:24355   */\n      tag_415\n        /* \"#utility.yul\":24344:24354   */\n      dup5\n        /* \"#utility.yul\":24326:24355   */\n      tag_182\n      jump\t// in\n    tag_415:\n        /* \"#utility.yul\":24316:24324   */\n      dup2\n        /* \"#utility.yul\":24312:24356   */\n      add\n        /* \"#utility.yul\":24509:24511   */\n      0x20\n        /* \"#utility.yul\":24497:24507   */\n      dup6\n        /* \"#utility.yul\":24494:24512   */\n      lt\n        /* \"#utility.yul\":24491:24540   */\n      iszero\n      tag_416\n      jumpi\n        /* \"#utility.yul\":24530:24538   */\n      dup2\n        /* \"#utility.yul\":24515:24538   */\n      swap1\n      pop\n        /* \"#utility.yul\":24491:24540   */\n    tag_416:\n        /* \"#utility.yul\":24553:24633   */\n      tag_417\n        /* \"#utility.yul\":24609:24631   */\n      tag_418\n        /* \"#utility.yul\":24627:24630   */\n      dup6\n        /* \"#utility.yul\":24609:24631   */\n      tag_182\n      jump\t// in\n    tag_418:\n        /* \"#utility.yul\":24599:24607   */\n      dup4\n        /* \"#utility.yul\":24595:24632   */\n      add\n        /* \"#utility.yul\":24582:24593   */\n      dup3\n        /* \"#utility.yul\":24553:24633   */\n      tag_191\n      jump\t// in\n    tag_417:\n        /* \"#utility.yul\":24212:24643   */\n      pop\n      pop\n        /* \"#utility.yul\":24197:24643   */\n    tag_413:\n        /* \"#utility.yul\":24107:24650   */\n      pop\n      pop\n      pop\n      jump\t// out\n        /* \"#utility.yul\":24656:24773   */\n    tag_193:\n        /* \"#utility.yul\":24710:24718   */\n      0x00\n        /* \"#utility.yul\":24760:24765   */\n      dup3\n        /* \"#utility.yul\":24754:24758   */\n      dup3\n        /* \"#utility.yul\":24750:24766   */\n      shr\n        /* \"#utility.yul\":24729:24766   */\n      swap1\n      pop\n        /* \"#utility.yul\":24656:24773   */\n      swap3\n      swap2\n      pop\n      pop\n      jump\t// out\n        /* \"#utility.yul\":24779:24948   */\n    tag_194:\n        /* \"#utility.yul\":24823:24829   */\n      0x00\n        /* \"#utility.yul\":24856:24907   */\n      tag_421\n        /* \"#utility.yul\":24904:24905   */\n      0x00\n        /* \"#utility.yul\":24900:24906   */\n      not\n        /* \"#utility.yul\":24892:24897   */\n      dup5\n        /* \"#utility.yul\":24889:24890   */\n      0x08\n        /* \"#utility.yul\":24885:24898   */\n      mul\n        /* \"#utility.yul\":24856:24907   */\n      tag_193\n      jump\t// in\n    tag_421:\n        /* \"#utility.yul\":24852:24908   */\n      not\n        /* \"#utility.yul\":24937:24941   */\n      dup1\n        /* \"#utility.yul\":24931:24935   */\n      dup4\n        /* \"#utility.yul\":24927:24942   */\n      and\n        /* \"#utility.yul\":24917:24942   */\n      swap2\n      pop\n        /* \"#utility.yul\":24830:24948   */\n      pop\n        /* \"#utility.yul\":24779:24948   */\n      swap3\n      swap2\n      pop\n      pop\n      jump\t// out\n        /* \"#utility.yul\":24953:25248   */\n    tag_195:\n        /* \"#utility.yul\":25029:25033   */\n      0x00\n        /* \"#utility.yul\":25175:25204   */\n      tag_423\n        /* \"#utility.yul\":25200:25203   */\n      dup4\n        /* \"#utility.yul\":25194:25198   */\n      dup4\n        /* \"#utility.yul\":25175:25204   */\n      tag_194\n      jump\t// in\n    tag_423:\n        /* \"#utility.yul\":25167:25204   */\n      swap2\n      pop\n        /* \"#utility.yul\":25237:25240   */\n      dup3\n        /* \"#utility.yul\":25234:25235   */\n      0x02\n        /* \"#utility.yul\":25230:25241   */\n      mul\n        /* \"#utility.yul\":25224:25228   */\n      dup3\n        /* \"#utility.yul\":25221:25242   */\n      or\n        /* \"#utility.yul\":25213:25242   */\n      swap1\n      pop\n        /* \"#utility.yul\":24953:25248   */\n      swap3\n      swap2\n      pop\n      pop\n      jump\t// out\n        /* \"#utility.yul\":25253:26648   */\n    tag_120:\n        /* \"#utility.yul\":25370:25407   */\n      tag_425\n        /* \"#utility.yul\":25403:25406   */\n      dup3\n        /* \"#utility.yul\":25370:25407   */\n      tag_149\n      jump\t// in\n    tag_425:\n        /* \"#utility.yul\":25472:25490   */\n      0xffffffffffffffff\n        /* \"#utility.yul\":25464:25470   */\n      dup2\n        /* \"#utility.yul\":25461:25491   */\n      gt\n        /* \"#utility.yul\":25458:25514   */\n      iszero\n      tag_426\n      jumpi\n        /* \"#utility.yul\":25494:25512   */\n      tag_427\n      tag_140\n      jump\t// in\n    tag_427:\n        /* \"#utility.yul\":25458:25514   */\n    tag_426:\n        /* \"#utility.yul\":25538:25576   */\n      tag_428\n        /* \"#utility.yul\":25570:25574   */\n      dup3\n        /* \"#utility.yul\":25564:25575   */\n      sload\n        /* \"#utility.yul\":25538:25576   */\n      tag_70\n      jump\t// in\n    tag_428:\n        /* \"#utility.yul\":25623:25690   */\n      tag_429\n        /* \"#utility.yul\":25683:25689   */\n      dup3\n        /* \"#utility.yul\":25675:25681   */\n      dup3\n        /* \"#utility.yul\":25669:25673   */\n      dup6\n        /* \"#utility.yul\":25623:25690   */\n      tag_192\n      jump\t// in\n    tag_429:\n        /* \"#utility.yul\":25717:25718   */\n      0x00\n        /* \"#utility.yul\":25741:25745   */\n      0x20\n        /* \"#utility.yul\":25728:25745   */\n      swap1\n      pop\n        /* \"#utility.yul\":25773:25775   */\n      0x1f\n        /* \"#utility.yul\":25765:25771   */\n      dup4\n        /* \"#utility.yul\":25762:25776   */\n      gt\n        /* \"#utility.yul\":25790:25791   */\n      0x01\n        /* \"#utility.yul\":25785:26403   */\n      dup2\n      eq\n      tag_431\n      jumpi\n        /* \"#utility.yul\":26447:26448   */\n      0x00\n        /* \"#utility.yul\":26464:26470   */\n      dup5\n        /* \"#utility.yul\":26461:26538   */\n      iszero\n      tag_432\n      jumpi\n        /* \"#utility.yul\":26513:26522   */\n      dup3\n        /* \"#utility.yul\":26508:26511   */\n      dup8\n        /* \"#utility.yul\":26504:26523   */\n      add\n        /* \"#utility.yul\":26498:26524   */\n      mload\n        /* \"#utility.yul\":26489:26524   */\n      swap1\n      pop\n        /* \"#utility.yul\":26461:26538   */\n    tag_432:\n        /* \"#utility.yul\":26564:26631   */\n      tag_433\n        /* \"#utility.yul\":26624:26630   */\n      dup6\n        /* \"#utility.yul\":26617:26622   */\n      dup3\n        /* \"#utility.yul\":26564:26631   */\n      tag_195\n      jump\t// in\n    tag_433:\n        /* \"#utility.yul\":26558:26562   */\n      dup7\n        /* \"#utility.yul\":26551:26632   */\n      sstore\n        /* \"#utility.yul\":26420:26642   */\n      pop\n        /* \"#utility.yul\":25755:26642   */\n      jump(tag_430)\n        /* \"#utility.yul\":25785:26403   */\n    tag_431:\n        /* \"#utility.yul\":25837:25841   */\n      0x1f\n        /* \"#utility.yul\":25833:25842   */\n      not\n        /* \"#utility.yul\":25825:25831   */\n      dup5\n        /* \"#utility.yul\":25821:25843   */\n      and\n        /* \"#utility.yul\":25871:25908   */\n      tag_434\n        /* \"#utility.yul\":25903:25907   */\n      dup7\n        /* \"#utility.yul\":25871:25908   */\n      tag_164\n      jump\t// in\n    tag_434:\n        /* \"#utility.yul\":25930:25931   */\n      0x00\n        /* \"#utility.yul\":25944:26152   */\n    tag_435:\n        /* \"#utility.yul\":25958:25965   */\n      dup3\n        /* \"#utility.yul\":25955:25956   */\n      dup2\n        /* \"#utility.yul\":25952:25966   */\n      lt\n        /* \"#utility.yul\":25944:26152   */\n      iszero\n      tag_437\n      jumpi\n        /* \"#utility.yul\":26037:26046   */\n      dup5\n        /* \"#utility.yul\":26032:26035   */\n      dup10\n        /* \"#utility.yul\":26028:26047   */\n      add\n        /* \"#utility.yul\":26022:26048   */\n      mload\n        /* \"#utility.yul\":26014:26020   */\n      dup3\n        /* \"#utility.yul\":26007:26049   */\n      sstore\n        /* \"#utility.yul\":26088:26089   */\n      0x01\n        /* \"#utility.yul\":26080:26086   */\n      dup3\n        /* \"#utility.yul\":26076:26090   */\n      add\n        /* \"#utility.yul\":26066:26090   */\n      swap2\n      pop\n        /* \"#utility.yul\":26135:26137   */\n      0x20\n        /* \"#utility.yul\":26124:26133   */\n      dup6\n        /* \"#utility.yul\":26120:26138   */\n      add\n        /* \"#utility.yul\":26107:26138   */\n      swap5\n      pop\n        /* \"#utility.yul\":25981:25985   */\n      0x20\n        /* \"#utility.yul\":25978:25979   */\n      dup2\n        /* \"#utility.yul\":25974:25986   */\n      add\n        /* \"#utility.yul\":25969:25986   */\n      swap1\n      pop\n        /* \"#utility.yul\":25944:26152   */\n      jump(tag_435)\n    tag_437:\n        /* \"#utility.yul\":26180:26186   */\n      dup7\n        /* \"#utility.yul\":26171:26178   */\n      dup4\n        /* \"#utility.yul\":26168:26187   */\n      lt\n        /* \"#utility.yul\":26165:26344   */\n      iszero\n      tag_438\n      jumpi\n        /* \"#utility.yul\":26238:26247   */\n      dup5\n        /* \"#utility.yul\":26233:26236   */\n      dup10\n        /* \"#utility.yul\":26229:26248   */\n      add\n        /* \"#utility.yul\":26223:26249   */\n      mload\n        /* \"#utility.yul\":26281:26329   */\n      tag_439\n        /* \"#utility.yul\":26323:26327   */\n      0x1f\n        /* \"#utility.yul\":26315:26321   */\n      dup10\n        /* \"#utility.yul\":26311:26328   */\n      and\n        /* \"#utility.yul\":26300:26309   */\n      dup3\n        /* \"#utility.yul\":26281:26329   */\n      tag_194\n      jump\t// in\n    tag_439:\n        /* \"#utility.yul\":26273:26279   */\n      dup4\n        /* \"#utility.yul\":26266:26330   */\n      sstore\n        /* \"#utility.yul\":26188:26344   */\n      pop\n        /* \"#utility.yul\":26165:26344   */\n    tag_438:\n        /* \"#utility.yul\":26390:26391   */\n      0x01\n        /* \"#utility.yul\":26386:26387   */\n      0x02\n        /* \"#utility.yul\":26378:26384   */\n      dup9\n        /* \"#utility.yul\":26374:26388   */\n      mul\n        /* \"#utility.yul\":26370:26392   */\n      add\n        /* \"#utility.yul\":26364:26368   */\n      dup9\n        /* \"#utility.yul\":26357:26393   */\n      sstore\n        /* \"#utility.yul\":25792:26403   */\n      pop\n      pop\n      pop\n        /* \"#utility.yul\":25755:26642   */\n    tag_430:\n      pop\n        /* \"#utility.yul\":25345:26648   */\n      pop\n      pop\n      pop\n        /* \"#utility.yul\":25253:26648   */\n      pop\n      pop\n      jump\t// out\n\n    auxdata: 0xa2646970667358221220d27f7f935b061d8dcf043d57dde254cc4c4296127a370fbc120a991746a766b564736f6c63430008160033\n}\n",
				"bytecode": {
					"linkReferences": {},
					"object": "608060405234801561000f575f80fd5b50335f806101000a81548173ffffffffffffffffffffffffffffffffffffffff021916908373ffffffffffffffffffffffffffffffffffffffff160217905550611bf48061005c5f395ff3fe608060405234801561000f575f80fd5b5060043610610060575f3560e01c806306f22b04146100645780635c60f226146100945780636775f34e146100c45780636f77926b146100f5578063a557880714610129578063b48ff0f114610159575b5f80fd5b61007e60048036038101906100799190611095565b610175565b60405161008b9190611137565b60405180910390f35b6100ae60048036038101906100a99190611150565b610395565b6040516100bb9190611137565b60405180910390f35b6100de60048036038101906100d99190611150565b61065b565b6040516100ec9291906111f5565b60405180910390f35b61010f600480360381019061010a9190611150565b610845565b604051610120959493929190611242565b60405180910390f35b610143600480360381019061013e9190611150565b610b07565b6040516101509190611137565b60405180910390f35b610173600480360381019061016e91906112a8565b610bc0565b005b5f8073ffffffffffffffffffffffffffffffffffffffff168473ffffffffffffffffffffffffffffffffffffffff16036101e4576040517f08c379a00000000000000000000000000000000000000000000000000000000081526004016101db906113d0565b60405180910390fd5b5f8054906101000a900473ffffffffffffffffffffffffffffffffffffffff1673ffffffffffffffffffffffffffffffffffffffff168473ffffffffffffffffffffffffffffffffffffffff1614610271576040517f08c379a000000000000000000000000000000000000000000000000000000000815260040161026890611438565b60405180910390fd5b5f60015f8673ffffffffffffffffffffffffffffffffffffffff1673ffffffffffffffffffffffffffffffffffffffff1681526020019081526020015f205f0154036102f2576040517f08c379a00000000000000000000000000000000000000000000000000000000081526004016102e9906114a0565b60405180910390fd5b5f60015f8673ffffffffffffffffffffffffffffffffffffffff1673ffffffffffffffffffffffffffffffffffffffff1681526020019081526020015f20905083836040516020016103459291906114f8565b60405160208183030381529060405280519060200120816003018260020160405160200161037492919061160a565b60405160208183030381529060405280519060200120149150509392505050565b5f8060015f8473ffffffffffffffffffffffffffffffffffffffff1673ffffffffffffffffffffffffffffffffffffffff1681526020019081526020015f205f015403610417576040517f08c379a000000000000000000000000000000000000000000000000000000000815260040161040e906114a0565b60405180910390fd5b5f60015f8473ffffffffffffffffffffffffffffffffffffffff1673ffffffffffffffffffffffffffffffffffffffff1681526020019081526020015f2060010160015f8573ffffffffffffffffffffffffffffffffffffffff1673ffffffffffffffffffffffffffffffffffffffff1681526020019081526020015f2060020160015f8673ffffffffffffffffffffffffffffffffffffffff1673ffffffffffffffffffffffffffffffffffffffff1681526020019081526020015f20600301856040516020016104ec9493929190611672565b604051602081830303815290604052805190602001205f1c90508060015f8573ffffffffffffffffffffffffffffffffffffffff1673ffffffffffffffffffffffffffffffffffffffff1681526020019081526020015f205f015414610587576040517f08c379a000000000000000000000000000000000000000000000000000000000815260040161057e906116fd565b60405180910390fd5b60015f8473ffffffffffffffffffffffffffffffffffffffff1673ffffffffffffffffffffffffffffffffffffffff1681526020019081526020015f205f8082015f9055600182015f6105da9190610e96565b600282015f6105e99190610e96565b600382015f6105f89190610e96565b600482015f905550505f60015f8573ffffffffffffffffffffffffffffffffffffffff1673ffffffffffffffffffffffffffffffffffffffff1681526020019081526020015f205f015403610651576001915050610656565b5f9150505b919050565b6060805f60015f8573ffffffffffffffffffffffffffffffffffffffff1673ffffffffffffffffffffffffffffffffffffffff1681526020019081526020015f205f0154036106df576040517f08c379a00000000000000000000000000000000000000000000000000000000081526004016106d6906114a0565b60405180910390fd5b5f60015f8573ffffffffffffffffffffffffffffffffffffffff1673ffffffffffffffffffffffffffffffffffffffff1681526020019081526020015f209050806001018160030181805461073390611548565b80601f016020809104026020016040519081016040528092919081815260200182805461075f90611548565b80156107aa5780601f10610781576101008083540402835291602001916107aa565b820191905f5260205f20905b81548152906001019060200180831161078d57829003601f168201915b505050505091508080546107bd90611548565b80601f01602080910402602001604051908101604052809291908181526020018280546107e990611548565b80156108345780601f1061080b57610100808354040283529160200191610834565b820191905f5260205f20905b81548152906001019060200180831161081757829003601f168201915b505050505090509250925050915091565b5f60608060605f8060015f8873ffffffffffffffffffffffffffffffffffffffff1673ffffffffffffffffffffffffffffffffffffffff1681526020019081526020015f205f0154036108cd576040517f08c379a00000000000000000000000000000000000000000000000000000000081526004016108c4906114a0565b60405180910390fd5b5f60015f8873ffffffffffffffffffffffffffffffffffffffff1673ffffffffffffffffffffffffffffffffffffffff1681526020019081526020015f206040518060a00160405290815f820154815260200160018201805461092f90611548565b80601f016020809104026020016040519081016040528092919081815260200182805461095b90611548565b80156109a65780601f1061097d576101008083540402835291602001916109a6565b820191905f5260205f20905b81548152906001019060200180831161098957829003601f168201915b505050505081526020016002820180546109bf90611548565b80601f01602080910402602001604051908101604052809291908181526020018280546109eb90611548565b8015610a365780601f10610a0d57610100808354040283529160200191610a36565b820191905f5260205f20905b815481529060010190602001808311610a1957829003601f168201915b50505050508152602001600382018054610a4f90611548565b80601f0160208091040260200160405190810160405280929190818152602001828054610a7b90611548565b8015610ac65780601f10610a9d57610100808354040283529160200191610ac6565b820191905f5260205f20905b815481529060010190602001808311610aa957829003601f168201915b505050505081526020016004820154815250509050805f01518160200151826040015183606001518460800151955095509550955095505091939590929450565b5f8073ffffffffffffffffffffffffffffffffffffffff168273ffffffffffffffffffffffffffffffffffffffff1603610b76576040517f08c379a0000000000000000000000000000000000000000000000000000000008152600401610b6d90611765565b60405180910390fd5b5f60015f8473ffffffffffffffffffffffffffffffffffffffff1673ffffffffffffffffffffffffffffffffffffffff1681526020019081526020015f205f015414159050919050565b5f8054906101000a900473ffffffffffffffffffffffffffffffffffffffff1673ffffffffffffffffffffffffffffffffffffffff168173ffffffffffffffffffffffffffffffffffffffff1614610c4d576040517f08c379a0000000000000000000000000000000000000000000000000000000008152600401610c4490611438565b60405180910390fd5b5f84848484604051602001610c659493929190611783565b6040516020818303038152906040528051906020012090505f815f1c90505f60015f8573ffffffffffffffffffffffffffffffffffffffff1673ffffffffffffffffffffffffffffffffffffffff1681526020019081526020015f205f015414610d04576040517f08c379a0000000000000000000000000000000000000000000000000000000008152600401610cfb9061180e565b60405180910390fd5b5f865111610d47576040517f08c379a0000000000000000000000000000000000000000000000000000000008152600401610d3e90611876565b60405180910390fd5b5f855111610d8a576040517f08c379a0000000000000000000000000000000000000000000000000000000008152600401610d81906118de565b60405180910390fd5b5f845111610dcd576040517f08c379a0000000000000000000000000000000000000000000000000000000008152600401610dc490611946565b60405180910390fd5b5f6040518060a00160405280838152602001888152602001878152602001868152602001606481525090508060015f8673ffffffffffffffffffffffffffffffffffffffff1673ffffffffffffffffffffffffffffffffffffffff1681526020019081526020015f205f820151815f01556020820151816001019081610e539190611aef565b506040820151816002019081610e699190611aef565b506060820151816003019081610e7f9190611aef565b506080820151816004015590505050505050505050565b508054610ea290611548565b5f825580601f10610eb35750610ed0565b601f0160209004905f5260205f2090810190610ecf9190610ed3565b5b50565b5b80821115610eea575f815f905550600101610ed4565b5090565b5f604051905090565b5f80fd5b5f80fd5b5f73ffffffffffffffffffffffffffffffffffffffff82169050919050565b5f610f2882610eff565b9050919050565b610f3881610f1e565b8114610f42575f80fd5b50565b5f81359050610f5381610f2f565b92915050565b5f80fd5b5f80fd5b5f601f19601f8301169050919050565b7f4e487b71000000000000000000000000000000000000000000000000000000005f52604160045260245ffd5b610fa782610f61565b810181811067ffffffffffffffff82111715610fc657610fc5610f71565b5b80604052505050565b5f610fd8610eee565b9050610fe48282610f9e565b919050565b5f67ffffffffffffffff82111561100357611002610f71565b5b61100c82610f61565b9050602081019050919050565b828183375f83830152505050565b5f61103961103484610fe9565b610fcf565b90508281526020810184848401111561105557611054610f5d565b5b611060848285611019565b509392505050565b5f82601f83011261107c5761107b610f59565b5b813561108c848260208601611027565b91505092915050565b5f805f606084860312156110ac576110ab610ef7565b5b5f6110b986828701610f45565b935050602084013567ffffffffffffffff8111156110da576110d9610efb565b5b6110e686828701611068565b925050604084013567ffffffffffffffff81111561110757611106610efb565b5b61111386828701611068565b9150509250925092565b5f8115159050919050565b6111318161111d565b82525050565b5f60208201905061114a5f830184611128565b92915050565b5f6020828403121561116557611164610ef7565b5b5f61117284828501610f45565b91505092915050565b5f81519050919050565b5f82825260208201905092915050565b5f5b838110156111b2578082015181840152602081019050611197565b5f8484015250505050565b5f6111c78261117b565b6111d18185611185565b93506111e1818560208601611195565b6111ea81610f61565b840191505092915050565b5f6040820190508181035f83015261120d81856111bd565b9050818103602083015261122181846111bd565b90509392505050565b5f819050919050565b61123c8161122a565b82525050565b5f60a0820190506112555f830188611233565b818103602083015261126781876111bd565b9050818103604083015261127b81866111bd565b9050818103606083015261128f81856111bd565b905061129e6080830184611233565b9695505050505050565b5f805f80608085870312156112c0576112bf610ef7565b5b5f85013567ffffffffffffffff8111156112dd576112dc610efb565b5b6112e987828801611068565b945050602085013567ffffffffffffffff81111561130a57611309610efb565b5b61131687828801611068565b935050604085013567ffffffffffffffff81111561133757611336610efb565b5b61134387828801611068565b925050606061135487828801610f45565b91505092959194509250565b7f41646472657373207574696c697a7a61746f206e6f6e2076616c69646f2c20705f8201527f6172692061203021000000000000000000000000000000000000000000000000602082015250565b5f6113ba602883611185565b91506113c582611360565b604082019050919050565b5f6020820190508181035f8301526113e7816113ae565b9050919050565b7f41646472657373206e6f6e2056616c69646f21000000000000000000000000005f82015250565b5f611422601383611185565b915061142d826113ee565b602082019050919050565b5f6020820190508181035f83015261144f81611416565b9050919050565b7f5574656e7465206e6f6e2070726573656e7465210000000000000000000000005f82015250565b5f61148a601483611185565b915061149582611456565b602082019050919050565b5f6020820190508181035f8301526114b78161147e565b9050919050565b5f81905092915050565b5f6114d28261117b565b6114dc81856114be565b93506114ec818560208601611195565b80840191505092915050565b5f61150382856114c8565b915061150f82846114c8565b91508190509392505050565b7f4e487b71000000000000000000000000000000000000000000000000000000005f52602260045260245ffd5b5f600282049050600182168061155f57607f821691505b6020821081036115725761157161151b565b5b50919050565b5f819050815f5260205f209050919050565b5f815461159681611548565b6115a081866114be565b9450600182165f81146115ba57600181146115cf57611601565b60ff1983168652811515820286019350611601565b6115d885611578565b5f5b838110156115f9578154818901526001820191506020810190506115da565b838801955050505b50505092915050565b5f611615828561158a565b9150611621828461158a565b91508190509392505050565b5f8160601b9050919050565b5f6116438261162d565b9050919050565b5f61165482611639565b9050919050565b61166c61166782610f1e565b61164a565b82525050565b5f61167d828761158a565b9150611689828661158a565b9150611695828561158a565b91506116a1828461165b565b60148201915081905095945050505050565b7f5574656e7465206e6f6e204175746f72697a7a61746f210000000000000000005f82015250565b5f6116e7601783611185565b91506116f2826116b3565b602082019050919050565b5f6020820190508181035f830152611714816116db565b9050919050565b7f41646472657373204d696c6b487562206e6f6e2076616c69646f2100000000005f82015250565b5f61174f601b83611185565b915061175a8261171b565b602082019050919050565b5f6020820190508181035f83015261177c81611743565b9050919050565b5f61178e82876114c8565b915061179a82866114c8565b91506117a682856114c8565b91506117b2828461165b565b60148201915081905095945050505050565b7f4d696c6b48756220616c726561647920726567697374657265640000000000005f82015250565b5f6117f8601a83611185565b9150611803826117c4565b602082019050919050565b5f6020820190508181035f830152611825816117ec565b9050919050565b7f46756c6c206e616d652063616e6e6f7420626520656d707479000000000000005f82015250565b5f611860601983611185565b915061186b8261182c565b602082019050919050565b5f6020820190508181035f83015261188d81611854565b9050919050565b7f50617373776f72642063616e6e6f7420626520656d70747900000000000000005f82015250565b5f6118c8601883611185565b91506118d382611894565b602082019050919050565b5f6020820190508181035f8301526118f5816118bc565b9050919050565b7f456d61696c2063616e6e6f7420626520656d70747900000000000000000000005f82015250565b5f611930601583611185565b915061193b826118fc565b602082019050919050565b5f6020820190508181035f83015261195d81611924565b9050919050565b5f6020601f8301049050919050565b5f82821b905092915050565b5f600883026119ae7fffffffffffffffffffffffffffffffffffffffffffffffffffffffffffffffff82611973565b6119b88683611973565b95508019841693508086168417925050509392505050565b5f819050919050565b5f6119f36119ee6119e98461122a565b6119d0565b61122a565b9050919050565b5f819050919050565b611a0c836119d9565b611a20611a18826119fa565b84845461197f565b825550505050565b5f90565b611a34611a28565b611a3f818484611a03565b505050565b5b81811015611a6257611a575f82611a2c565b600181019050611a45565b5050565b601f821115611aa757611a7881611578565b611a8184611964565b81016020851015611a90578190505b611aa4611a9c85611964565b830182611a44565b50505b505050565b5f82821c905092915050565b5f611ac75f1984600802611aac565b1980831691505092915050565b5f611adf8383611ab8565b9150826002028217905092915050565b611af88261117b565b67ffffffffffffffff811115611b1157611b10610f71565b5b611b1b8254611548565b611b26828285611a66565b5f60209050601f831160018114611b57575f8415611b45578287015190505b611b4f8582611ad4565b865550611bb6565b601f198416611b6586611578565b5f5b82811015611b8c57848901518255600182019150602085019450602081019050611b67565b86831015611ba95784890151611ba5601f891682611ab8565b8355505b6001600288020188555050505b50505050505056fea2646970667358221220d27f7f935b061d8dcf043d57dde254cc4c4296127a370fbc120a991746a766b564736f6c63430008160033",
					"opcodes": "PUSH1 0x80 PUSH1 0x40 MSTORE CALLVALUE DUP1 ISZERO PUSH2 0xF JUMPI PUSH0 DUP1 REVERT JUMPDEST POP CALLER PUSH0 DUP1 PUSH2 0x100 EXP DUP2 SLOAD DUP2 PUSH20 0xFFFFFFFFFFFFFFFFFFFFFFFFFFFFFFFFFFFFFFFF MUL NOT AND SWAP1 DUP4 PUSH20 0xFFFFFFFFFFFFFFFFFFFFFFFFFFFFFFFFFFFFFFFF AND MUL OR SWAP1 SSTORE POP PUSH2 0x1BF4 DUP1 PUSH2 0x5C PUSH0 CODECOPY PUSH0 RETURN INVALID PUSH1 0x80 PUSH1 0x40 MSTORE CALLVALUE DUP1 ISZERO PUSH2 0xF JUMPI PUSH0 DUP1 REVERT JUMPDEST POP PUSH1 0x4 CALLDATASIZE LT PUSH2 0x60 JUMPI PUSH0 CALLDATALOAD PUSH1 0xE0 SHR DUP1 PUSH4 0x6F22B04 EQ PUSH2 0x64 JUMPI DUP1 PUSH4 0x5C60F226 EQ PUSH2 0x94 JUMPI DUP1 PUSH4 0x6775F34E EQ PUSH2 0xC4 JUMPI DUP1 PUSH4 0x6F77926B EQ PUSH2 0xF5 JUMPI DUP1 PUSH4 0xA5578807 EQ PUSH2 0x129 JUMPI DUP1 PUSH4 0xB48FF0F1 EQ PUSH2 0x159 JUMPI JUMPDEST PUSH0 DUP1 REVERT JUMPDEST PUSH2 0x7E PUSH1 0x4 DUP1 CALLDATASIZE SUB DUP2 ADD SWAP1 PUSH2 0x79 SWAP2 SWAP1 PUSH2 0x1095 JUMP JUMPDEST PUSH2 0x175 JUMP JUMPDEST PUSH1 0x40 MLOAD PUSH2 0x8B SWAP2 SWAP1 PUSH2 0x1137 JUMP JUMPDEST PUSH1 0x40 MLOAD DUP1 SWAP2 SUB SWAP1 RETURN JUMPDEST PUSH2 0xAE PUSH1 0x4 DUP1 CALLDATASIZE SUB DUP2 ADD SWAP1 PUSH2 0xA9 SWAP2 SWAP1 PUSH2 0x1150 JUMP JUMPDEST PUSH2 0x395 JUMP JUMPDEST PUSH1 0x40 MLOAD PUSH2 0xBB SWAP2 SWAP1 PUSH2 0x1137 JUMP JUMPDEST PUSH1 0x40 MLOAD DUP1 SWAP2 SUB SWAP1 RETURN JUMPDEST PUSH2 0xDE PUSH1 0x4 DUP1 CALLDATASIZE SUB DUP2 ADD SWAP1 PUSH2 0xD9 SWAP2 SWAP1 PUSH2 0x1150 JUMP JUMPDEST PUSH2 0x65B JUMP JUMPDEST PUSH1 0x40 MLOAD PUSH2 0xEC SWAP3 SWAP2 SWAP1 PUSH2 0x11F5 JUMP JUMPDEST PUSH1 0x40 MLOAD DUP1 SWAP2 SUB SWAP1 RETURN JUMPDEST PUSH2 0x10F PUSH1 0x4 DUP1 CALLDATASIZE SUB DUP2 ADD SWAP1 PUSH2 0x10A SWAP2 SWAP1 PUSH2 0x1150 JUMP JUMPDEST PUSH2 0x845 JUMP JUMPDEST PUSH1 0x40 MLOAD PUSH2 0x120 SWAP6 SWAP5 SWAP4 SWAP3 SWAP2 SWAP1 PUSH2 0x1242 JUMP JUMPDEST PUSH1 0x40 MLOAD DUP1 SWAP2 SUB SWAP1 RETURN JUMPDEST PUSH2 0x143 PUSH1 0x4 DUP1 CALLDATASIZE SUB DUP2 ADD SWAP1 PUSH2 0x13E SWAP2 SWAP1 PUSH2 0x1150 JUMP JUMPDEST PUSH2 0xB07 JUMP JUMPDEST PUSH1 0x40 MLOAD PUSH2 0x150 SWAP2 SWAP1 PUSH2 0x1137 JUMP JUMPDEST PUSH1 0x40 MLOAD DUP1 SWAP2 SUB SWAP1 RETURN JUMPDEST PUSH2 0x173 PUSH1 0x4 DUP1 CALLDATASIZE SUB DUP2 ADD SWAP1 PUSH2 0x16E SWAP2 SWAP1 PUSH2 0x12A8 JUMP JUMPDEST PUSH2 0xBC0 JUMP JUMPDEST STOP JUMPDEST PUSH0 DUP1 PUSH20 0xFFFFFFFFFFFFFFFFFFFFFFFFFFFFFFFFFFFFFFFF AND DUP5 PUSH20 0xFFFFFFFFFFFFFFFFFFFFFFFFFFFFFFFFFFFFFFFF AND SUB PUSH2 0x1E4 JUMPI PUSH1 0x40 MLOAD PUSH32 0x8C379A000000000000000000000000000000000000000000000000000000000 DUP2 MSTORE PUSH1 0x4 ADD PUSH2 0x1DB SWAP1 PUSH2 0x13D0 JUMP JUMPDEST PUSH1 0x40 MLOAD DUP1 SWAP2 SUB SWAP1 REVERT JUMPDEST PUSH0 DUP1 SLOAD SWAP1 PUSH2 0x100 EXP SWAP1 DIV PUSH20 0xFFFFFFFFFFFFFFFFFFFFFFFFFFFFFFFFFFFFFFFF AND PUSH20 0xFFFFFFFFFFFFFFFFFFFFFFFFFFFFFFFFFFFFFFFF AND DUP5 PUSH20 0xFFFFFFFFFFFFFFFFFFFFFFFFFFFFFFFFFFFFFFFF AND EQ PUSH2 0x271 JUMPI PUSH1 0x40 MLOAD PUSH32 0x8C379A000000000000000000000000000000000000000000000000000000000 DUP2 MSTORE PUSH1 0x4 ADD PUSH2 0x268 SWAP1 PUSH2 0x1438 JUMP JUMPDEST PUSH1 0x40 MLOAD DUP1 SWAP2 SUB SWAP1 REVERT JUMPDEST PUSH0 PUSH1 0x1 PUSH0 DUP7 PUSH20 0xFFFFFFFFFFFFFFFFFFFFFFFFFFFFFFFFFFFFFFFF AND PUSH20 0xFFFFFFFFFFFFFFFFFFFFFFFFFFFFFFFFFFFFFFFF AND DUP2 MSTORE PUSH1 0x20 ADD SWAP1 DUP2 MSTORE PUSH1 0x20 ADD PUSH0 KECCAK256 PUSH0 ADD SLOAD SUB PUSH2 0x2F2 JUMPI PUSH1 0x40 MLOAD PUSH32 0x8C379A000000000000000000000000000000000000000000000000000000000 DUP2 MSTORE PUSH1 0x4 ADD PUSH2 0x2E9 SWAP1 PUSH2 0x14A0 JUMP JUMPDEST PUSH1 0x40 MLOAD DUP1 SWAP2 SUB SWAP1 REVERT JUMPDEST PUSH0 PUSH1 0x1 PUSH0 DUP7 PUSH20 0xFFFFFFFFFFFFFFFFFFFFFFFFFFFFFFFFFFFFFFFF AND PUSH20 0xFFFFFFFFFFFFFFFFFFFFFFFFFFFFFFFFFFFFFFFF AND DUP2 MSTORE PUSH1 0x20 ADD SWAP1 DUP2 MSTORE PUSH1 0x20 ADD PUSH0 KECCAK256 SWAP1 POP DUP4 DUP4 PUSH1 0x40 MLOAD PUSH1 0x20 ADD PUSH2 0x345 SWAP3 SWAP2 SWAP1 PUSH2 0x14F8 JUMP JUMPDEST PUSH1 0x40 MLOAD PUSH1 0x20 DUP2 DUP4 SUB SUB DUP2 MSTORE SWAP1 PUSH1 0x40 MSTORE DUP1 MLOAD SWAP1 PUSH1 0x20 ADD KECCAK256 DUP2 PUSH1 0x3 ADD DUP3 PUSH1 0x2 ADD PUSH1 0x40 MLOAD PUSH1 0x20 ADD PUSH2 0x374 SWAP3 SWAP2 SWAP1 PUSH2 0x160A JUMP JUMPDEST PUSH1 0x40 MLOAD PUSH1 0x20 DUP2 DUP4 SUB SUB DUP2 MSTORE SWAP1 PUSH1 0x40 MSTORE DUP1 MLOAD SWAP1 PUSH1 0x20 ADD KECCAK256 EQ SWAP2 POP POP SWAP4 SWAP3 POP POP POP JUMP JUMPDEST PUSH0 DUP1 PUSH1 0x1 PUSH0 DUP5 PUSH20 0xFFFFFFFFFFFFFFFFFFFFFFFFFFFFFFFFFFFFFFFF AND PUSH20 0xFFFFFFFFFFFFFFFFFFFFFFFFFFFFFFFFFFFFFFFF AND DUP2 MSTORE PUSH1 0x20 ADD SWAP1 DUP2 MSTORE PUSH1 0x20 ADD PUSH0 KECCAK256 PUSH0 ADD SLOAD SUB PUSH2 0x417 JUMPI PUSH1 0x40 MLOAD PUSH32 0x8C379A000000000000000000000000000000000000000000000000000000000 DUP2 MSTORE PUSH1 0x4 ADD PUSH2 0x40E SWAP1 PUSH2 0x14A0 JUMP JUMPDEST PUSH1 0x40 MLOAD DUP1 SWAP2 SUB SWAP1 REVERT JUMPDEST PUSH0 PUSH1 0x1 PUSH0 DUP5 PUSH20 0xFFFFFFFFFFFFFFFFFFFFFFFFFFFFFFFFFFFFFFFF AND PUSH20 0xFFFFFFFFFFFFFFFFFFFFFFFFFFFFFFFFFFFFFFFF AND DUP2 MSTORE PUSH1 0x20 ADD SWAP1 DUP2 MSTORE PUSH1 0x20 ADD PUSH0 KECCAK256 PUSH1 0x1 ADD PUSH1 0x1 PUSH0 DUP6 PUSH20 0xFFFFFFFFFFFFFFFFFFFFFFFFFFFFFFFFFFFFFFFF AND PUSH20 0xFFFFFFFFFFFFFFFFFFFFFFFFFFFFFFFFFFFFFFFF AND DUP2 MSTORE PUSH1 0x20 ADD SWAP1 DUP2 MSTORE PUSH1 0x20 ADD PUSH0 KECCAK256 PUSH1 0x2 ADD PUSH1 0x1 PUSH0 DUP7 PUSH20 0xFFFFFFFFFFFFFFFFFFFFFFFFFFFFFFFFFFFFFFFF AND PUSH20 0xFFFFFFFFFFFFFFFFFFFFFFFFFFFFFFFFFFFFFFFF AND DUP2 MSTORE PUSH1 0x20 ADD SWAP1 DUP2 MSTORE PUSH1 0x20 ADD PUSH0 KECCAK256 PUSH1 0x3 ADD DUP6 PUSH1 0x40 MLOAD PUSH1 0x20 ADD PUSH2 0x4EC SWAP5 SWAP4 SWAP3 SWAP2 SWAP1 PUSH2 0x1672 JUMP JUMPDEST PUSH1 0x40 MLOAD PUSH1 0x20 DUP2 DUP4 SUB SUB DUP2 MSTORE SWAP1 PUSH1 0x40 MSTORE DUP1 MLOAD SWAP1 PUSH1 0x20 ADD KECCAK256 PUSH0 SHR SWAP1 POP DUP1 PUSH1 0x1 PUSH0 DUP6 PUSH20 0xFFFFFFFFFFFFFFFFFFFFFFFFFFFFFFFFFFFFFFFF AND PUSH20 0xFFFFFFFFFFFFFFFFFFFFFFFFFFFFFFFFFFFFFFFF AND DUP2 MSTORE PUSH1 0x20 ADD SWAP1 DUP2 MSTORE PUSH1 0x20 ADD PUSH0 KECCAK256 PUSH0 ADD SLOAD EQ PUSH2 0x587 JUMPI PUSH1 0x40 MLOAD PUSH32 0x8C379A000000000000000000000000000000000000000000000000000000000 DUP2 MSTORE PUSH1 0x4 ADD PUSH2 0x57E SWAP1 PUSH2 0x16FD JUMP JUMPDEST PUSH1 0x40 MLOAD DUP1 SWAP2 SUB SWAP1 REVERT JUMPDEST PUSH1 0x1 PUSH0 DUP5 PUSH20 0xFFFFFFFFFFFFFFFFFFFFFFFFFFFFFFFFFFFFFFFF AND PUSH20 0xFFFFFFFFFFFFFFFFFFFFFFFFFFFFFFFFFFFFFFFF AND DUP2 MSTORE PUSH1 0x20 ADD SWAP1 DUP2 MSTORE PUSH1 0x20 ADD PUSH0 KECCAK256 PUSH0 DUP1 DUP3 ADD PUSH0 SWAP1 SSTORE PUSH1 0x1 DUP3 ADD PUSH0 PUSH2 0x5DA SWAP2 SWAP1 PUSH2 0xE96 JUMP JUMPDEST PUSH1 0x2 DUP3 ADD PUSH0 PUSH2 0x5E9 SWAP2 SWAP1 PUSH2 0xE96 JUMP JUMPDEST PUSH1 0x3 DUP3 ADD PUSH0 PUSH2 0x5F8 SWAP2 SWAP1 PUSH2 0xE96 JUMP JUMPDEST PUSH1 0x4 DUP3 ADD PUSH0 SWAP1 SSTORE POP POP PUSH0 PUSH1 0x1 PUSH0 DUP6 PUSH20 0xFFFFFFFFFFFFFFFFFFFFFFFFFFFFFFFFFFFFFFFF AND PUSH20 0xFFFFFFFFFFFFFFFFFFFFFFFFFFFFFFFFFFFFFFFF AND DUP2 MSTORE PUSH1 0x20 ADD SWAP1 DUP2 MSTORE PUSH1 0x20 ADD PUSH0 KECCAK256 PUSH0 ADD SLOAD SUB PUSH2 0x651 JUMPI PUSH1 0x1 SWAP2 POP POP PUSH2 0x656 JUMP JUMPDEST PUSH0 SWAP2 POP POP JUMPDEST SWAP2 SWAP1 POP JUMP JUMPDEST PUSH1 0x60 DUP1 PUSH0 PUSH1 0x1 PUSH0 DUP6 PUSH20 0xFFFFFFFFFFFFFFFFFFFFFFFFFFFFFFFFFFFFFFFF AND PUSH20 0xFFFFFFFFFFFFFFFFFFFFFFFFFFFFFFFFFFFFFFFF AND DUP2 MSTORE PUSH1 0x20 ADD SWAP1 DUP2 MSTORE PUSH1 0x20 ADD PUSH0 KECCAK256 PUSH0 ADD SLOAD SUB PUSH2 0x6DF JUMPI PUSH1 0x40 MLOAD PUSH32 0x8C379A000000000000000000000000000000000000000000000000000000000 DUP2 MSTORE PUSH1 0x4 ADD PUSH2 0x6D6 SWAP1 PUSH2 0x14A0 JUMP JUMPDEST PUSH1 0x40 MLOAD DUP1 SWAP2 SUB SWAP1 REVERT JUMPDEST PUSH0 PUSH1 0x1 PUSH0 DUP6 PUSH20 0xFFFFFFFFFFFFFFFFFFFFFFFFFFFFFFFFFFFFFFFF AND PUSH20 0xFFFFFFFFFFFFFFFFFFFFFFFFFFFFFFFFFFFFFFFF AND DUP2 MSTORE PUSH1 0x20 ADD SWAP1 DUP2 MSTORE PUSH1 0x20 ADD PUSH0 KECCAK256 SWAP1 POP DUP1 PUSH1 0x1 ADD DUP2 PUSH1 0x3 ADD DUP2 DUP1 SLOAD PUSH2 0x733 SWAP1 PUSH2 0x1548 JUMP JUMPDEST DUP1 PUSH1 0x1F ADD PUSH1 0x20 DUP1 SWAP2 DIV MUL PUSH1 0x20 ADD PUSH1 0x40 MLOAD SWAP1 DUP2 ADD PUSH1 0x40 MSTORE DUP1 SWAP3 SWAP2 SWAP1 DUP2 DUP2 MSTORE PUSH1 0x20 ADD DUP3 DUP1 SLOAD PUSH2 0x75F SWAP1 PUSH2 0x1548 JUMP JUMPDEST DUP1 ISZERO PUSH2 0x7AA JUMPI DUP1 PUSH1 0x1F LT PUSH2 0x781 JUMPI PUSH2 0x100 DUP1 DUP4 SLOAD DIV MUL DUP4 MSTORE SWAP2 PUSH1 0x20 ADD SWAP2 PUSH2 0x7AA JUMP JUMPDEST DUP3 ADD SWAP2 SWAP1 PUSH0 MSTORE PUSH1 0x20 PUSH0 KECCAK256 SWAP1 JUMPDEST DUP2 SLOAD DUP2 MSTORE SWAP1 PUSH1 0x1 ADD SWAP1 PUSH1 0x20 ADD DUP1 DUP4 GT PUSH2 0x78D JUMPI DUP3 SWAP1 SUB PUSH1 0x1F AND DUP3 ADD SWAP2 JUMPDEST POP POP POP POP POP SWAP2 POP DUP1 DUP1 SLOAD PUSH2 0x7BD SWAP1 PUSH2 0x1548 JUMP JUMPDEST DUP1 PUSH1 0x1F ADD PUSH1 0x20 DUP1 SWAP2 DIV MUL PUSH1 0x20 ADD PUSH1 0x40 MLOAD SWAP1 DUP2 ADD PUSH1 0x40 MSTORE DUP1 SWAP3 SWAP2 SWAP1 DUP2 DUP2 MSTORE PUSH1 0x20 ADD DUP3 DUP1 SLOAD PUSH2 0x7E9 SWAP1 PUSH2 0x1548 JUMP JUMPDEST DUP1 ISZERO PUSH2 0x834 JUMPI DUP1 PUSH1 0x1F LT PUSH2 0x80B JUMPI PUSH2 0x100 DUP1 DUP4 SLOAD DIV MUL DUP4 MSTORE SWAP2 PUSH1 0x20 ADD SWAP2 PUSH2 0x834 JUMP JUMPDEST DUP3 ADD SWAP2 SWAP1 PUSH0 MSTORE PUSH1 0x20 PUSH0 KECCAK256 SWAP1 JUMPDEST DUP2 SLOAD DUP2 MSTORE SWAP1 PUSH1 0x1 ADD SWAP1 PUSH1 0x20 ADD DUP1 DUP4 GT PUSH2 0x817 JUMPI DUP3 SWAP1 SUB PUSH1 0x1F AND DUP3 ADD SWAP2 JUMPDEST POP POP POP POP POP SWAP1 POP SWAP3 POP SWAP3 POP POP SWAP2 POP SWAP2 JUMP JUMPDEST PUSH0 PUSH1 0x60 DUP1 PUSH1 0x60 PUSH0 DUP1 PUSH1 0x1 PUSH0 DUP9 PUSH20 0xFFFFFFFFFFFFFFFFFFFFFFFFFFFFFFFFFFFFFFFF AND PUSH20 0xFFFFFFFFFFFFFFFFFFFFFFFFFFFFFFFFFFFFFFFF AND DUP2 MSTORE PUSH1 0x20 ADD SWAP1 DUP2 MSTORE PUSH1 0x20 ADD PUSH0 KECCAK256 PUSH0 ADD SLOAD SUB PUSH2 0x8CD JUMPI PUSH1 0x40 MLOAD PUSH32 0x8C379A000000000000000000000000000000000000000000000000000000000 DUP2 MSTORE PUSH1 0x4 ADD PUSH2 0x8C4 SWAP1 PUSH2 0x14A0 JUMP JUMPDEST PUSH1 0x40 MLOAD DUP1 SWAP2 SUB SWAP1 REVERT JUMPDEST PUSH0 PUSH1 0x1 PUSH0 DUP9 PUSH20 0xFFFFFFFFFFFFFFFFFFFFFFFFFFFFFFFFFFFFFFFF AND PUSH20 0xFFFFFFFFFFFFFFFFFFFFFFFFFFFFFFFFFFFFFFFF AND DUP2 MSTORE PUSH1 0x20 ADD SWAP1 DUP2 MSTORE PUSH1 0x20 ADD PUSH0 KECCAK256 PUSH1 0x40 MLOAD DUP1 PUSH1 0xA0 ADD PUSH1 0x40 MSTORE SWAP1 DUP2 PUSH0 DUP3 ADD SLOAD DUP2 MSTORE PUSH1 0x20 ADD PUSH1 0x1 DUP3 ADD DUP1 SLOAD PUSH2 0x92F SWAP1 PUSH2 0x1548 JUMP JUMPDEST DUP1 PUSH1 0x1F ADD PUSH1 0x20 DUP1 SWAP2 DIV MUL PUSH1 0x20 ADD PUSH1 0x40 MLOAD SWAP1 DUP2 ADD PUSH1 0x40 MSTORE DUP1 SWAP3 SWAP2 SWAP1 DUP2 DUP2 MSTORE PUSH1 0x20 ADD DUP3 DUP1 SLOAD PUSH2 0x95B SWAP1 PUSH2 0x1548 JUMP JUMPDEST DUP1 ISZERO PUSH2 0x9A6 JUMPI DUP1 PUSH1 0x1F LT PUSH2 0x97D JUMPI PUSH2 0x100 DUP1 DUP4 SLOAD DIV MUL DUP4 MSTORE SWAP2 PUSH1 0x20 ADD SWAP2 PUSH2 0x9A6 JUMP JUMPDEST DUP3 ADD SWAP2 SWAP1 PUSH0 MSTORE PUSH1 0x20 PUSH0 KECCAK256 SWAP1 JUMPDEST DUP2 SLOAD DUP2 MSTORE SWAP1 PUSH1 0x1 ADD SWAP1 PUSH1 0x20 ADD DUP1 DUP4 GT PUSH2 0x989 JUMPI DUP3 SWAP1 SUB PUSH1 0x1F AND DUP3 ADD SWAP2 JUMPDEST POP POP POP POP POP DUP2 MSTORE PUSH1 0x20 ADD PUSH1 0x2 DUP3 ADD DUP1 SLOAD PUSH2 0x9BF SWAP1 PUSH2 0x1548 JUMP JUMPDEST DUP1 PUSH1 0x1F ADD PUSH1 0x20 DUP1 SWAP2 DIV MUL PUSH1 0x20 ADD PUSH1 0x40 MLOAD SWAP1 DUP2 ADD PUSH1 0x40 MSTORE DUP1 SWAP3 SWAP2 SWAP1 DUP2 DUP2 MSTORE PUSH1 0x20 ADD DUP3 DUP1 SLOAD PUSH2 0x9EB SWAP1 PUSH2 0x1548 JUMP JUMPDEST DUP1 ISZERO PUSH2 0xA36 JUMPI DUP1 PUSH1 0x1F LT PUSH2 0xA0D JUMPI PUSH2 0x100 DUP1 DUP4 SLOAD DIV MUL DUP4 MSTORE SWAP2 PUSH1 0x20 ADD SWAP2 PUSH2 0xA36 JUMP JUMPDEST DUP3 ADD SWAP2 SWAP1 PUSH0 MSTORE PUSH1 0x20 PUSH0 KECCAK256 SWAP1 JUMPDEST DUP2 SLOAD DUP2 MSTORE SWAP1 PUSH1 0x1 ADD SWAP1 PUSH1 0x20 ADD DUP1 DUP4 GT PUSH2 0xA19 JUMPI DUP3 SWAP1 SUB PUSH1 0x1F AND DUP3 ADD SWAP2 JUMPDEST POP POP POP POP POP DUP2 MSTORE PUSH1 0x20 ADD PUSH1 0x3 DUP3 ADD DUP1 SLOAD PUSH2 0xA4F SWAP1 PUSH2 0x1548 JUMP JUMPDEST DUP1 PUSH1 0x1F ADD PUSH1 0x20 DUP1 SWAP2 DIV MUL PUSH1 0x20 ADD PUSH1 0x40 MLOAD SWAP1 DUP2 ADD PUSH1 0x40 MSTORE DUP1 SWAP3 SWAP2 SWAP1 DUP2 DUP2 MSTORE PUSH1 0x20 ADD DUP3 DUP1 SLOAD PUSH2 0xA7B SWAP1 PUSH2 0x1548 JUMP JUMPDEST DUP1 ISZERO PUSH2 0xAC6 JUMPI DUP1 PUSH1 0x1F LT PUSH2 0xA9D JUMPI PUSH2 0x100 DUP1 DUP4 SLOAD DIV MUL DUP4 MSTORE SWAP2 PUSH1 0x20 ADD SWAP2 PUSH2 0xAC6 JUMP JUMPDEST DUP3 ADD SWAP2 SWAP1 PUSH0 MSTORE PUSH1 0x20 PUSH0 KECCAK256 SWAP1 JUMPDEST DUP2 SLOAD DUP2 MSTORE SWAP1 PUSH1 0x1 ADD SWAP1 PUSH1 0x20 ADD DUP1 DUP4 GT PUSH2 0xAA9 JUMPI DUP3 SWAP1 SUB PUSH1 0x1F AND DUP3 ADD SWAP2 JUMPDEST POP POP POP POP POP DUP2 MSTORE PUSH1 0x20 ADD PUSH1 0x4 DUP3 ADD SLOAD DUP2 MSTORE POP POP SWAP1 POP DUP1 PUSH0 ADD MLOAD DUP2 PUSH1 0x20 ADD MLOAD DUP3 PUSH1 0x40 ADD MLOAD DUP4 PUSH1 0x60 ADD MLOAD DUP5 PUSH1 0x80 ADD MLOAD SWAP6 POP SWAP6 POP SWAP6 POP SWAP6 POP SWAP6 POP POP SWAP2 SWAP4 SWAP6 SWAP1 SWAP3 SWAP5 POP JUMP JUMPDEST PUSH0 DUP1 PUSH20 0xFFFFFFFFFFFFFFFFFFFFFFFFFFFFFFFFFFFFFFFF AND DUP3 PUSH20 0xFFFFFFFFFFFFFFFFFFFFFFFFFFFFFFFFFFFFFFFF AND SUB PUSH2 0xB76 JUMPI PUSH1 0x40 MLOAD PUSH32 0x8C379A000000000000000000000000000000000000000000000000000000000 DUP2 MSTORE PUSH1 0x4 ADD PUSH2 0xB6D SWAP1 PUSH2 0x1765 JUMP JUMPDEST PUSH1 0x40 MLOAD DUP1 SWAP2 SUB SWAP1 REVERT JUMPDEST PUSH0 PUSH1 0x1 PUSH0 DUP5 PUSH20 0xFFFFFFFFFFFFFFFFFFFFFFFFFFFFFFFFFFFFFFFF AND PUSH20 0xFFFFFFFFFFFFFFFFFFFFFFFFFFFFFFFFFFFFFFFF AND DUP2 MSTORE PUSH1 0x20 ADD SWAP1 DUP2 MSTORE PUSH1 0x20 ADD PUSH0 KECCAK256 PUSH0 ADD SLOAD EQ ISZERO SWAP1 POP SWAP2 SWAP1 POP JUMP JUMPDEST PUSH0 DUP1 SLOAD SWAP1 PUSH2 0x100 EXP SWAP1 DIV PUSH20 0xFFFFFFFFFFFFFFFFFFFFFFFFFFFFFFFFFFFFFFFF AND PUSH20 0xFFFFFFFFFFFFFFFFFFFFFFFFFFFFFFFFFFFFFFFF AND DUP2 PUSH20 0xFFFFFFFFFFFFFFFFFFFFFFFFFFFFFFFFFFFFFFFF AND EQ PUSH2 0xC4D JUMPI PUSH1 0x40 MLOAD PUSH32 0x8C379A000000000000000000000000000000000000000000000000000000000 DUP2 MSTORE PUSH1 0x4 ADD PUSH2 0xC44 SWAP1 PUSH2 0x1438 JUMP JUMPDEST PUSH1 0x40 MLOAD DUP1 SWAP2 SUB SWAP1 REVERT JUMPDEST PUSH0 DUP5 DUP5 DUP5 DUP5 PUSH1 0x40 MLOAD PUSH1 0x20 ADD PUSH2 0xC65 SWAP5 SWAP4 SWAP3 SWAP2 SWAP1 PUSH2 0x1783 JUMP JUMPDEST PUSH1 0x40 MLOAD PUSH1 0x20 DUP2 DUP4 SUB SUB DUP2 MSTORE SWAP1 PUSH1 0x40 MSTORE DUP1 MLOAD SWAP1 PUSH1 0x20 ADD KECCAK256 SWAP1 POP PUSH0 DUP2 PUSH0 SHR SWAP1 POP PUSH0 PUSH1 0x1 PUSH0 DUP6 PUSH20 0xFFFFFFFFFFFFFFFFFFFFFFFFFFFFFFFFFFFFFFFF AND PUSH20 0xFFFFFFFFFFFFFFFFFFFFFFFFFFFFFFFFFFFFFFFF AND DUP2 MSTORE PUSH1 0x20 ADD SWAP1 DUP2 MSTORE PUSH1 0x20 ADD PUSH0 KECCAK256 PUSH0 ADD SLOAD EQ PUSH2 0xD04 JUMPI PUSH1 0x40 MLOAD PUSH32 0x8C379A000000000000000000000000000000000000000000000000000000000 DUP2 MSTORE PUSH1 0x4 ADD PUSH2 0xCFB SWAP1 PUSH2 0x180E JUMP JUMPDEST PUSH1 0x40 MLOAD DUP1 SWAP2 SUB SWAP1 REVERT JUMPDEST PUSH0 DUP7 MLOAD GT PUSH2 0xD47 JUMPI PUSH1 0x40 MLOAD PUSH32 0x8C379A000000000000000000000000000000000000000000000000000000000 DUP2 MSTORE PUSH1 0x4 ADD PUSH2 0xD3E SWAP1 PUSH2 0x1876 JUMP JUMPDEST PUSH1 0x40 MLOAD DUP1 SWAP2 SUB SWAP1 REVERT JUMPDEST PUSH0 DUP6 MLOAD GT PUSH2 0xD8A JUMPI PUSH1 0x40 MLOAD PUSH32 0x8C379A000000000000000000000000000000000000000000000000000000000 DUP2 MSTORE PUSH1 0x4 ADD PUSH2 0xD81 SWAP1 PUSH2 0x18DE JUMP JUMPDEST PUSH1 0x40 MLOAD DUP1 SWAP2 SUB SWAP1 REVERT JUMPDEST PUSH0 DUP5 MLOAD GT PUSH2 0xDCD JUMPI PUSH1 0x40 MLOAD PUSH32 0x8C379A000000000000000000000000000000000000000000000000000000000 DUP2 MSTORE PUSH1 0x4 ADD PUSH2 0xDC4 SWAP1 PUSH2 0x1946 JUMP JUMPDEST PUSH1 0x40 MLOAD DUP1 SWAP2 SUB SWAP1 REVERT JUMPDEST PUSH0 PUSH1 0x40 MLOAD DUP1 PUSH1 0xA0 ADD PUSH1 0x40 MSTORE DUP1 DUP4 DUP2 MSTORE PUSH1 0x20 ADD DUP9 DUP2 MSTORE PUSH1 0x20 ADD DUP8 DUP2 MSTORE PUSH1 0x20 ADD DUP7 DUP2 MSTORE PUSH1 0x20 ADD PUSH1 0x64 DUP2 MSTORE POP SWAP1 POP DUP1 PUSH1 0x1 PUSH0 DUP7 PUSH20 0xFFFFFFFFFFFFFFFFFFFFFFFFFFFFFFFFFFFFFFFF AND PUSH20 0xFFFFFFFFFFFFFFFFFFFFFFFFFFFFFFFFFFFFFFFF AND DUP2 MSTORE PUSH1 0x20 ADD SWAP1 DUP2 MSTORE PUSH1 0x20 ADD PUSH0 KECCAK256 PUSH0 DUP3 ADD MLOAD DUP2 PUSH0 ADD SSTORE PUSH1 0x20 DUP3 ADD MLOAD DUP2 PUSH1 0x1 ADD SWAP1 DUP2 PUSH2 0xE53 SWAP2 SWAP1 PUSH2 0x1AEF JUMP JUMPDEST POP PUSH1 0x40 DUP3 ADD MLOAD DUP2 PUSH1 0x2 ADD SWAP1 DUP2 PUSH2 0xE69 SWAP2 SWAP1 PUSH2 0x1AEF JUMP JUMPDEST POP PUSH1 0x60 DUP3 ADD MLOAD DUP2 PUSH1 0x3 ADD SWAP1 DUP2 PUSH2 0xE7F SWAP2 SWAP1 PUSH2 0x1AEF JUMP JUMPDEST POP PUSH1 0x80 DUP3 ADD MLOAD DUP2 PUSH1 0x4 ADD SSTORE SWAP1 POP POP POP POP POP POP POP POP POP JUMP JUMPDEST POP DUP1 SLOAD PUSH2 0xEA2 SWAP1 PUSH2 0x1548 JUMP JUMPDEST PUSH0 DUP3 SSTORE DUP1 PUSH1 0x1F LT PUSH2 0xEB3 JUMPI POP PUSH2 0xED0 JUMP JUMPDEST PUSH1 0x1F ADD PUSH1 0x20 SWAP1 DIV SWAP1 PUSH0 MSTORE PUSH1 0x20 PUSH0 KECCAK256 SWAP1 DUP2 ADD SWAP1 PUSH2 0xECF SWAP2 SWAP1 PUSH2 0xED3 JUMP JUMPDEST JUMPDEST POP JUMP JUMPDEST JUMPDEST DUP1 DUP3 GT ISZERO PUSH2 0xEEA JUMPI PUSH0 DUP2 PUSH0 SWAP1 SSTORE POP PUSH1 0x1 ADD PUSH2 0xED4 JUMP JUMPDEST POP SWAP1 JUMP JUMPDEST PUSH0 PUSH1 0x40 MLOAD SWAP1 POP SWAP1 JUMP JUMPDEST PUSH0 DUP1 REVERT JUMPDEST PUSH0 DUP1 REVERT JUMPDEST PUSH0 PUSH20 0xFFFFFFFFFFFFFFFFFFFFFFFFFFFFFFFFFFFFFFFF DUP3 AND SWAP1 POP SWAP2 SWAP1 POP JUMP JUMPDEST PUSH0 PUSH2 0xF28 DUP3 PUSH2 0xEFF JUMP JUMPDEST SWAP1 POP SWAP2 SWAP1 POP JUMP JUMPDEST PUSH2 0xF38 DUP2 PUSH2 0xF1E JUMP JUMPDEST DUP2 EQ PUSH2 0xF42 JUMPI PUSH0 DUP1 REVERT JUMPDEST POP JUMP JUMPDEST PUSH0 DUP2 CALLDATALOAD SWAP1 POP PUSH2 0xF53 DUP2 PUSH2 0xF2F JUMP JUMPDEST SWAP3 SWAP2 POP POP JUMP JUMPDEST PUSH0 DUP1 REVERT JUMPDEST PUSH0 DUP1 REVERT JUMPDEST PUSH0 PUSH1 0x1F NOT PUSH1 0x1F DUP4 ADD AND SWAP1 POP SWAP2 SWAP1 POP JUMP JUMPDEST PUSH32 0x4E487B7100000000000000000000000000000000000000000000000000000000 PUSH0 MSTORE PUSH1 0x41 PUSH1 0x4 MSTORE PUSH1 0x24 PUSH0 REVERT JUMPDEST PUSH2 0xFA7 DUP3 PUSH2 0xF61 JUMP JUMPDEST DUP2 ADD DUP2 DUP2 LT PUSH8 0xFFFFFFFFFFFFFFFF DUP3 GT OR ISZERO PUSH2 0xFC6 JUMPI PUSH2 0xFC5 PUSH2 0xF71 JUMP JUMPDEST JUMPDEST DUP1 PUSH1 0x40 MSTORE POP POP POP JUMP JUMPDEST PUSH0 PUSH2 0xFD8 PUSH2 0xEEE JUMP JUMPDEST SWAP1 POP PUSH2 0xFE4 DUP3 DUP3 PUSH2 0xF9E JUMP JUMPDEST SWAP2 SWAP1 POP JUMP JUMPDEST PUSH0 PUSH8 0xFFFFFFFFFFFFFFFF DUP3 GT ISZERO PUSH2 0x1003 JUMPI PUSH2 0x1002 PUSH2 0xF71 JUMP JUMPDEST JUMPDEST PUSH2 0x100C DUP3 PUSH2 0xF61 JUMP JUMPDEST SWAP1 POP PUSH1 0x20 DUP2 ADD SWAP1 POP SWAP2 SWAP1 POP JUMP JUMPDEST DUP3 DUP2 DUP4 CALLDATACOPY PUSH0 DUP4 DUP4 ADD MSTORE POP POP POP JUMP JUMPDEST PUSH0 PUSH2 0x1039 PUSH2 0x1034 DUP5 PUSH2 0xFE9 JUMP JUMPDEST PUSH2 0xFCF JUMP JUMPDEST SWAP1 POP DUP3 DUP2 MSTORE PUSH1 0x20 DUP2 ADD DUP5 DUP5 DUP5 ADD GT ISZERO PUSH2 0x1055 JUMPI PUSH2 0x1054 PUSH2 0xF5D JUMP JUMPDEST JUMPDEST PUSH2 0x1060 DUP5 DUP3 DUP6 PUSH2 0x1019 JUMP JUMPDEST POP SWAP4 SWAP3 POP POP POP JUMP JUMPDEST PUSH0 DUP3 PUSH1 0x1F DUP4 ADD SLT PUSH2 0x107C JUMPI PUSH2 0x107B PUSH2 0xF59 JUMP JUMPDEST JUMPDEST DUP2 CALLDATALOAD PUSH2 0x108C DUP5 DUP3 PUSH1 0x20 DUP7 ADD PUSH2 0x1027 JUMP JUMPDEST SWAP2 POP POP SWAP3 SWAP2 POP POP JUMP JUMPDEST PUSH0 DUP1 PUSH0 PUSH1 0x60 DUP5 DUP7 SUB SLT ISZERO PUSH2 0x10AC JUMPI PUSH2 0x10AB PUSH2 0xEF7 JUMP JUMPDEST JUMPDEST PUSH0 PUSH2 0x10B9 DUP7 DUP3 DUP8 ADD PUSH2 0xF45 JUMP JUMPDEST SWAP4 POP POP PUSH1 0x20 DUP5 ADD CALLDATALOAD PUSH8 0xFFFFFFFFFFFFFFFF DUP2 GT ISZERO PUSH2 0x10DA JUMPI PUSH2 0x10D9 PUSH2 0xEFB JUMP JUMPDEST JUMPDEST PUSH2 0x10E6 DUP7 DUP3 DUP8 ADD PUSH2 0x1068 JUMP JUMPDEST SWAP3 POP POP PUSH1 0x40 DUP5 ADD CALLDATALOAD PUSH8 0xFFFFFFFFFFFFFFFF DUP2 GT ISZERO PUSH2 0x1107 JUMPI PUSH2 0x1106 PUSH2 0xEFB JUMP JUMPDEST JUMPDEST PUSH2 0x1113 DUP7 DUP3 DUP8 ADD PUSH2 0x1068 JUMP JUMPDEST SWAP2 POP POP SWAP3 POP SWAP3 POP SWAP3 JUMP JUMPDEST PUSH0 DUP2 ISZERO ISZERO SWAP1 POP SWAP2 SWAP1 POP JUMP JUMPDEST PUSH2 0x1131 DUP2 PUSH2 0x111D JUMP JUMPDEST DUP3 MSTORE POP POP JUMP JUMPDEST PUSH0 PUSH1 0x20 DUP3 ADD SWAP1 POP PUSH2 0x114A PUSH0 DUP4 ADD DUP5 PUSH2 0x1128 JUMP JUMPDEST SWAP3 SWAP2 POP POP JUMP JUMPDEST PUSH0 PUSH1 0x20 DUP3 DUP5 SUB SLT ISZERO PUSH2 0x1165 JUMPI PUSH2 0x1164 PUSH2 0xEF7 JUMP JUMPDEST JUMPDEST PUSH0 PUSH2 0x1172 DUP5 DUP3 DUP6 ADD PUSH2 0xF45 JUMP JUMPDEST SWAP2 POP POP SWAP3 SWAP2 POP POP JUMP JUMPDEST PUSH0 DUP2 MLOAD SWAP1 POP SWAP2 SWAP1 POP JUMP JUMPDEST PUSH0 DUP3 DUP3 MSTORE PUSH1 0x20 DUP3 ADD SWAP1 POP SWAP3 SWAP2 POP POP JUMP JUMPDEST PUSH0 JUMPDEST DUP4 DUP2 LT ISZERO PUSH2 0x11B2 JUMPI DUP1 DUP3 ADD MLOAD DUP2 DUP5 ADD MSTORE PUSH1 0x20 DUP2 ADD SWAP1 POP PUSH2 0x1197 JUMP JUMPDEST PUSH0 DUP5 DUP5 ADD MSTORE POP POP POP POP JUMP JUMPDEST PUSH0 PUSH2 0x11C7 DUP3 PUSH2 0x117B JUMP JUMPDEST PUSH2 0x11D1 DUP2 DUP6 PUSH2 0x1185 JUMP JUMPDEST SWAP4 POP PUSH2 0x11E1 DUP2 DUP6 PUSH1 0x20 DUP7 ADD PUSH2 0x1195 JUMP JUMPDEST PUSH2 0x11EA DUP2 PUSH2 0xF61 JUMP JUMPDEST DUP5 ADD SWAP2 POP POP SWAP3 SWAP2 POP POP JUMP JUMPDEST PUSH0 PUSH1 0x40 DUP3 ADD SWAP1 POP DUP2 DUP2 SUB PUSH0 DUP4 ADD MSTORE PUSH2 0x120D DUP2 DUP6 PUSH2 0x11BD JUMP JUMPDEST SWAP1 POP DUP2 DUP2 SUB PUSH1 0x20 DUP4 ADD MSTORE PUSH2 0x1221 DUP2 DUP5 PUSH2 0x11BD JUMP JUMPDEST SWAP1 POP SWAP4 SWAP3 POP POP POP JUMP JUMPDEST PUSH0 DUP2 SWAP1 POP SWAP2 SWAP1 POP JUMP JUMPDEST PUSH2 0x123C DUP2 PUSH2 0x122A JUMP JUMPDEST DUP3 MSTORE POP POP JUMP JUMPDEST PUSH0 PUSH1 0xA0 DUP3 ADD SWAP1 POP PUSH2 0x1255 PUSH0 DUP4 ADD DUP9 PUSH2 0x1233 JUMP JUMPDEST DUP2 DUP2 SUB PUSH1 0x20 DUP4 ADD MSTORE PUSH2 0x1267 DUP2 DUP8 PUSH2 0x11BD JUMP JUMPDEST SWAP1 POP DUP2 DUP2 SUB PUSH1 0x40 DUP4 ADD MSTORE PUSH2 0x127B DUP2 DUP7 PUSH2 0x11BD JUMP JUMPDEST SWAP1 POP DUP2 DUP2 SUB PUSH1 0x60 DUP4 ADD MSTORE PUSH2 0x128F DUP2 DUP6 PUSH2 0x11BD JUMP JUMPDEST SWAP1 POP PUSH2 0x129E PUSH1 0x80 DUP4 ADD DUP5 PUSH2 0x1233 JUMP JUMPDEST SWAP7 SWAP6 POP POP POP POP POP POP JUMP JUMPDEST PUSH0 DUP1 PUSH0 DUP1 PUSH1 0x80 DUP6 DUP8 SUB SLT ISZERO PUSH2 0x12C0 JUMPI PUSH2 0x12BF PUSH2 0xEF7 JUMP JUMPDEST JUMPDEST PUSH0 DUP6 ADD CALLDATALOAD PUSH8 0xFFFFFFFFFFFFFFFF DUP2 GT ISZERO PUSH2 0x12DD JUMPI PUSH2 0x12DC PUSH2 0xEFB JUMP JUMPDEST JUMPDEST PUSH2 0x12E9 DUP8 DUP3 DUP9 ADD PUSH2 0x1068 JUMP JUMPDEST SWAP5 POP POP PUSH1 0x20 DUP6 ADD CALLDATALOAD PUSH8 0xFFFFFFFFFFFFFFFF DUP2 GT ISZERO PUSH2 0x130A JUMPI PUSH2 0x1309 PUSH2 0xEFB JUMP JUMPDEST JUMPDEST PUSH2 0x1316 DUP8 DUP3 DUP9 ADD PUSH2 0x1068 JUMP JUMPDEST SWAP4 POP POP PUSH1 0x40 DUP6 ADD CALLDATALOAD PUSH8 0xFFFFFFFFFFFFFFFF DUP2 GT ISZERO PUSH2 0x1337 JUMPI PUSH2 0x1336 PUSH2 0xEFB JUMP JUMPDEST JUMPDEST PUSH2 0x1343 DUP8 DUP3 DUP9 ADD PUSH2 0x1068 JUMP JUMPDEST SWAP3 POP POP PUSH1 0x60 PUSH2 0x1354 DUP8 DUP3 DUP9 ADD PUSH2 0xF45 JUMP JUMPDEST SWAP2 POP POP SWAP3 SWAP6 SWAP2 SWAP5 POP SWAP3 POP JUMP JUMPDEST PUSH32 0x41646472657373207574696C697A7A61746F206E6F6E2076616C69646F2C2070 PUSH0 DUP3 ADD MSTORE PUSH32 0x6172692061203021000000000000000000000000000000000000000000000000 PUSH1 0x20 DUP3 ADD MSTORE POP JUMP JUMPDEST PUSH0 PUSH2 0x13BA PUSH1 0x28 DUP4 PUSH2 0x1185 JUMP JUMPDEST SWAP2 POP PUSH2 0x13C5 DUP3 PUSH2 0x1360 JUMP JUMPDEST PUSH1 0x40 DUP3 ADD SWAP1 POP SWAP2 SWAP1 POP JUMP JUMPDEST PUSH0 PUSH1 0x20 DUP3 ADD SWAP1 POP DUP2 DUP2 SUB PUSH0 DUP4 ADD MSTORE PUSH2 0x13E7 DUP2 PUSH2 0x13AE JUMP JUMPDEST SWAP1 POP SWAP2 SWAP1 POP JUMP JUMPDEST PUSH32 0x41646472657373206E6F6E2056616C69646F2100000000000000000000000000 PUSH0 DUP3 ADD MSTORE POP JUMP JUMPDEST PUSH0 PUSH2 0x1422 PUSH1 0x13 DUP4 PUSH2 0x1185 JUMP JUMPDEST SWAP2 POP PUSH2 0x142D DUP3 PUSH2 0x13EE JUMP JUMPDEST PUSH1 0x20 DUP3 ADD SWAP1 POP SWAP2 SWAP1 POP JUMP JUMPDEST PUSH0 PUSH1 0x20 DUP3 ADD SWAP1 POP DUP2 DUP2 SUB PUSH0 DUP4 ADD MSTORE PUSH2 0x144F DUP2 PUSH2 0x1416 JUMP JUMPDEST SWAP1 POP SWAP2 SWAP1 POP JUMP JUMPDEST PUSH32 0x5574656E7465206E6F6E2070726573656E746521000000000000000000000000 PUSH0 DUP3 ADD MSTORE POP JUMP JUMPDEST PUSH0 PUSH2 0x148A PUSH1 0x14 DUP4 PUSH2 0x1185 JUMP JUMPDEST SWAP2 POP PUSH2 0x1495 DUP3 PUSH2 0x1456 JUMP JUMPDEST PUSH1 0x20 DUP3 ADD SWAP1 POP SWAP2 SWAP1 POP JUMP JUMPDEST PUSH0 PUSH1 0x20 DUP3 ADD SWAP1 POP DUP2 DUP2 SUB PUSH0 DUP4 ADD MSTORE PUSH2 0x14B7 DUP2 PUSH2 0x147E JUMP JUMPDEST SWAP1 POP SWAP2 SWAP1 POP JUMP JUMPDEST PUSH0 DUP2 SWAP1 POP SWAP3 SWAP2 POP POP JUMP JUMPDEST PUSH0 PUSH2 0x14D2 DUP3 PUSH2 0x117B JUMP JUMPDEST PUSH2 0x14DC DUP2 DUP6 PUSH2 0x14BE JUMP JUMPDEST SWAP4 POP PUSH2 0x14EC DUP2 DUP6 PUSH1 0x20 DUP7 ADD PUSH2 0x1195 JUMP JUMPDEST DUP1 DUP5 ADD SWAP2 POP POP SWAP3 SWAP2 POP POP JUMP JUMPDEST PUSH0 PUSH2 0x1503 DUP3 DUP6 PUSH2 0x14C8 JUMP JUMPDEST SWAP2 POP PUSH2 0x150F DUP3 DUP5 PUSH2 0x14C8 JUMP JUMPDEST SWAP2 POP DUP2 SWAP1 POP SWAP4 SWAP3 POP POP POP JUMP JUMPDEST PUSH32 0x4E487B7100000000000000000000000000000000000000000000000000000000 PUSH0 MSTORE PUSH1 0x22 PUSH1 0x4 MSTORE PUSH1 0x24 PUSH0 REVERT JUMPDEST PUSH0 PUSH1 0x2 DUP3 DIV SWAP1 POP PUSH1 0x1 DUP3 AND DUP1 PUSH2 0x155F JUMPI PUSH1 0x7F DUP3 AND SWAP2 POP JUMPDEST PUSH1 0x20 DUP3 LT DUP2 SUB PUSH2 0x1572 JUMPI PUSH2 0x1571 PUSH2 0x151B JUMP JUMPDEST JUMPDEST POP SWAP2 SWAP1 POP JUMP JUMPDEST PUSH0 DUP2 SWAP1 POP DUP2 PUSH0 MSTORE PUSH1 0x20 PUSH0 KECCAK256 SWAP1 POP SWAP2 SWAP1 POP JUMP JUMPDEST PUSH0 DUP2 SLOAD PUSH2 0x1596 DUP2 PUSH2 0x1548 JUMP JUMPDEST PUSH2 0x15A0 DUP2 DUP7 PUSH2 0x14BE JUMP JUMPDEST SWAP5 POP PUSH1 0x1 DUP3 AND PUSH0 DUP2 EQ PUSH2 0x15BA JUMPI PUSH1 0x1 DUP2 EQ PUSH2 0x15CF JUMPI PUSH2 0x1601 JUMP JUMPDEST PUSH1 0xFF NOT DUP4 AND DUP7 MSTORE DUP2 ISZERO ISZERO DUP3 MUL DUP7 ADD SWAP4 POP PUSH2 0x1601 JUMP JUMPDEST PUSH2 0x15D8 DUP6 PUSH2 0x1578 JUMP JUMPDEST PUSH0 JUMPDEST DUP4 DUP2 LT ISZERO PUSH2 0x15F9 JUMPI DUP2 SLOAD DUP2 DUP10 ADD MSTORE PUSH1 0x1 DUP3 ADD SWAP2 POP PUSH1 0x20 DUP2 ADD SWAP1 POP PUSH2 0x15DA JUMP JUMPDEST DUP4 DUP9 ADD SWAP6 POP POP POP JUMPDEST POP POP POP SWAP3 SWAP2 POP POP JUMP JUMPDEST PUSH0 PUSH2 0x1615 DUP3 DUP6 PUSH2 0x158A JUMP JUMPDEST SWAP2 POP PUSH2 0x1621 DUP3 DUP5 PUSH2 0x158A JUMP JUMPDEST SWAP2 POP DUP2 SWAP1 POP SWAP4 SWAP3 POP POP POP JUMP JUMPDEST PUSH0 DUP2 PUSH1 0x60 SHL SWAP1 POP SWAP2 SWAP1 POP JUMP JUMPDEST PUSH0 PUSH2 0x1643 DUP3 PUSH2 0x162D JUMP JUMPDEST SWAP1 POP SWAP2 SWAP1 POP JUMP JUMPDEST PUSH0 PUSH2 0x1654 DUP3 PUSH2 0x1639 JUMP JUMPDEST SWAP1 POP SWAP2 SWAP1 POP JUMP JUMPDEST PUSH2 0x166C PUSH2 0x1667 DUP3 PUSH2 0xF1E JUMP JUMPDEST PUSH2 0x164A JUMP JUMPDEST DUP3 MSTORE POP POP JUMP JUMPDEST PUSH0 PUSH2 0x167D DUP3 DUP8 PUSH2 0x158A JUMP JUMPDEST SWAP2 POP PUSH2 0x1689 DUP3 DUP7 PUSH2 0x158A JUMP JUMPDEST SWAP2 POP PUSH2 0x1695 DUP3 DUP6 PUSH2 0x158A JUMP JUMPDEST SWAP2 POP PUSH2 0x16A1 DUP3 DUP5 PUSH2 0x165B JUMP JUMPDEST PUSH1 0x14 DUP3 ADD SWAP2 POP DUP2 SWAP1 POP SWAP6 SWAP5 POP POP POP POP POP JUMP JUMPDEST PUSH32 0x5574656E7465206E6F6E204175746F72697A7A61746F21000000000000000000 PUSH0 DUP3 ADD MSTORE POP JUMP JUMPDEST PUSH0 PUSH2 0x16E7 PUSH1 0x17 DUP4 PUSH2 0x1185 JUMP JUMPDEST SWAP2 POP PUSH2 0x16F2 DUP3 PUSH2 0x16B3 JUMP JUMPDEST PUSH1 0x20 DUP3 ADD SWAP1 POP SWAP2 SWAP1 POP JUMP JUMPDEST PUSH0 PUSH1 0x20 DUP3 ADD SWAP1 POP DUP2 DUP2 SUB PUSH0 DUP4 ADD MSTORE PUSH2 0x1714 DUP2 PUSH2 0x16DB JUMP JUMPDEST SWAP1 POP SWAP2 SWAP1 POP JUMP JUMPDEST PUSH32 0x41646472657373204D696C6B487562206E6F6E2076616C69646F210000000000 PUSH0 DUP3 ADD MSTORE POP JUMP JUMPDEST PUSH0 PUSH2 0x174F PUSH1 0x1B DUP4 PUSH2 0x1185 JUMP JUMPDEST SWAP2 POP PUSH2 0x175A DUP3 PUSH2 0x171B JUMP JUMPDEST PUSH1 0x20 DUP3 ADD SWAP1 POP SWAP2 SWAP1 POP JUMP JUMPDEST PUSH0 PUSH1 0x20 DUP3 ADD SWAP1 POP DUP2 DUP2 SUB PUSH0 DUP4 ADD MSTORE PUSH2 0x177C DUP2 PUSH2 0x1743 JUMP JUMPDEST SWAP1 POP SWAP2 SWAP1 POP JUMP JUMPDEST PUSH0 PUSH2 0x178E DUP3 DUP8 PUSH2 0x14C8 JUMP JUMPDEST SWAP2 POP PUSH2 0x179A DUP3 DUP7 PUSH2 0x14C8 JUMP JUMPDEST SWAP2 POP PUSH2 0x17A6 DUP3 DUP6 PUSH2 0x14C8 JUMP JUMPDEST SWAP2 POP PUSH2 0x17B2 DUP3 DUP5 PUSH2 0x165B JUMP JUMPDEST PUSH1 0x14 DUP3 ADD SWAP2 POP DUP2 SWAP1 POP SWAP6 SWAP5 POP POP POP POP POP JUMP JUMPDEST PUSH32 0x4D696C6B48756220616C72656164792072656769737465726564000000000000 PUSH0 DUP3 ADD MSTORE POP JUMP JUMPDEST PUSH0 PUSH2 0x17F8 PUSH1 0x1A DUP4 PUSH2 0x1185 JUMP JUMPDEST SWAP2 POP PUSH2 0x1803 DUP3 PUSH2 0x17C4 JUMP JUMPDEST PUSH1 0x20 DUP3 ADD SWAP1 POP SWAP2 SWAP1 POP JUMP JUMPDEST PUSH0 PUSH1 0x20 DUP3 ADD SWAP1 POP DUP2 DUP2 SUB PUSH0 DUP4 ADD MSTORE PUSH2 0x1825 DUP2 PUSH2 0x17EC JUMP JUMPDEST SWAP1 POP SWAP2 SWAP1 POP JUMP JUMPDEST PUSH32 0x46756C6C206E616D652063616E6E6F7420626520656D70747900000000000000 PUSH0 DUP3 ADD MSTORE POP JUMP JUMPDEST PUSH0 PUSH2 0x1860 PUSH1 0x19 DUP4 PUSH2 0x1185 JUMP JUMPDEST SWAP2 POP PUSH2 0x186B DUP3 PUSH2 0x182C JUMP JUMPDEST PUSH1 0x20 DUP3 ADD SWAP1 POP SWAP2 SWAP1 POP JUMP JUMPDEST PUSH0 PUSH1 0x20 DUP3 ADD SWAP1 POP DUP2 DUP2 SUB PUSH0 DUP4 ADD MSTORE PUSH2 0x188D DUP2 PUSH2 0x1854 JUMP JUMPDEST SWAP1 POP SWAP2 SWAP1 POP JUMP JUMPDEST PUSH32 0x50617373776F72642063616E6E6F7420626520656D7074790000000000000000 PUSH0 DUP3 ADD MSTORE POP JUMP JUMPDEST PUSH0 PUSH2 0x18C8 PUSH1 0x18 DUP4 PUSH2 0x1185 JUMP JUMPDEST SWAP2 POP PUSH2 0x18D3 DUP3 PUSH2 0x1894 JUMP JUMPDEST PUSH1 0x20 DUP3 ADD SWAP1 POP SWAP2 SWAP1 POP JUMP JUMPDEST PUSH0 PUSH1 0x20 DUP3 ADD SWAP1 POP DUP2 DUP2 SUB PUSH0 DUP4 ADD MSTORE PUSH2 0x18F5 DUP2 PUSH2 0x18BC JUMP JUMPDEST SWAP1 POP SWAP2 SWAP1 POP JUMP JUMPDEST PUSH32 0x456D61696C2063616E6E6F7420626520656D7074790000000000000000000000 PUSH0 DUP3 ADD MSTORE POP JUMP JUMPDEST PUSH0 PUSH2 0x1930 PUSH1 0x15 DUP4 PUSH2 0x1185 JUMP JUMPDEST SWAP2 POP PUSH2 0x193B DUP3 PUSH2 0x18FC JUMP JUMPDEST PUSH1 0x20 DUP3 ADD SWAP1 POP SWAP2 SWAP1 POP JUMP JUMPDEST PUSH0 PUSH1 0x20 DUP3 ADD SWAP1 POP DUP2 DUP2 SUB PUSH0 DUP4 ADD MSTORE PUSH2 0x195D DUP2 PUSH2 0x1924 JUMP JUMPDEST SWAP1 POP SWAP2 SWAP1 POP JUMP JUMPDEST PUSH0 PUSH1 0x20 PUSH1 0x1F DUP4 ADD DIV SWAP1 POP SWAP2 SWAP1 POP JUMP JUMPDEST PUSH0 DUP3 DUP3 SHL SWAP1 POP SWAP3 SWAP2 POP POP JUMP JUMPDEST PUSH0 PUSH1 0x8 DUP4 MUL PUSH2 0x19AE PUSH32 0xFFFFFFFFFFFFFFFFFFFFFFFFFFFFFFFFFFFFFFFFFFFFFFFFFFFFFFFFFFFFFFFF DUP3 PUSH2 0x1973 JUMP JUMPDEST PUSH2 0x19B8 DUP7 DUP4 PUSH2 0x1973 JUMP JUMPDEST SWAP6 POP DUP1 NOT DUP5 AND SWAP4 POP DUP1 DUP7 AND DUP5 OR SWAP3 POP POP POP SWAP4 SWAP3 POP POP POP JUMP JUMPDEST PUSH0 DUP2 SWAP1 POP SWAP2 SWAP1 POP JUMP JUMPDEST PUSH0 PUSH2 0x19F3 PUSH2 0x19EE PUSH2 0x19E9 DUP5 PUSH2 0x122A JUMP JUMPDEST PUSH2 0x19D0 JUMP JUMPDEST PUSH2 0x122A JUMP JUMPDEST SWAP1 POP SWAP2 SWAP1 POP JUMP JUMPDEST PUSH0 DUP2 SWAP1 POP SWAP2 SWAP1 POP JUMP JUMPDEST PUSH2 0x1A0C DUP4 PUSH2 0x19D9 JUMP JUMPDEST PUSH2 0x1A20 PUSH2 0x1A18 DUP3 PUSH2 0x19FA JUMP JUMPDEST DUP5 DUP5 SLOAD PUSH2 0x197F JUMP JUMPDEST DUP3 SSTORE POP POP POP POP JUMP JUMPDEST PUSH0 SWAP1 JUMP JUMPDEST PUSH2 0x1A34 PUSH2 0x1A28 JUMP JUMPDEST PUSH2 0x1A3F DUP2 DUP5 DUP5 PUSH2 0x1A03 JUMP JUMPDEST POP POP POP JUMP JUMPDEST JUMPDEST DUP2 DUP2 LT ISZERO PUSH2 0x1A62 JUMPI PUSH2 0x1A57 PUSH0 DUP3 PUSH2 0x1A2C JUMP JUMPDEST PUSH1 0x1 DUP2 ADD SWAP1 POP PUSH2 0x1A45 JUMP JUMPDEST POP POP JUMP JUMPDEST PUSH1 0x1F DUP3 GT ISZERO PUSH2 0x1AA7 JUMPI PUSH2 0x1A78 DUP2 PUSH2 0x1578 JUMP JUMPDEST PUSH2 0x1A81 DUP5 PUSH2 0x1964 JUMP JUMPDEST DUP2 ADD PUSH1 0x20 DUP6 LT ISZERO PUSH2 0x1A90 JUMPI DUP2 SWAP1 POP JUMPDEST PUSH2 0x1AA4 PUSH2 0x1A9C DUP6 PUSH2 0x1964 JUMP JUMPDEST DUP4 ADD DUP3 PUSH2 0x1A44 JUMP JUMPDEST POP POP JUMPDEST POP POP POP JUMP JUMPDEST PUSH0 DUP3 DUP3 SHR SWAP1 POP SWAP3 SWAP2 POP POP JUMP JUMPDEST PUSH0 PUSH2 0x1AC7 PUSH0 NOT DUP5 PUSH1 0x8 MUL PUSH2 0x1AAC JUMP JUMPDEST NOT DUP1 DUP4 AND SWAP2 POP POP SWAP3 SWAP2 POP POP JUMP JUMPDEST PUSH0 PUSH2 0x1ADF DUP4 DUP4 PUSH2 0x1AB8 JUMP JUMPDEST SWAP2 POP DUP3 PUSH1 0x2 MUL DUP3 OR SWAP1 POP SWAP3 SWAP2 POP POP JUMP JUMPDEST PUSH2 0x1AF8 DUP3 PUSH2 0x117B JUMP JUMPDEST PUSH8 0xFFFFFFFFFFFFFFFF DUP2 GT ISZERO PUSH2 0x1B11 JUMPI PUSH2 0x1B10 PUSH2 0xF71 JUMP JUMPDEST JUMPDEST PUSH2 0x1B1B DUP3 SLOAD PUSH2 0x1548 JUMP JUMPDEST PUSH2 0x1B26 DUP3 DUP3 DUP6 PUSH2 0x1A66 JUMP JUMPDEST PUSH0 PUSH1 0x20 SWAP1 POP PUSH1 0x1F DUP4 GT PUSH1 0x1 DUP2 EQ PUSH2 0x1B57 JUMPI PUSH0 DUP5 ISZERO PUSH2 0x1B45 JUMPI DUP3 DUP8 ADD MLOAD SWAP1 POP JUMPDEST PUSH2 0x1B4F DUP6 DUP3 PUSH2 0x1AD4 JUMP JUMPDEST DUP7 SSTORE POP PUSH2 0x1BB6 JUMP JUMPDEST PUSH1 0x1F NOT DUP5 AND PUSH2 0x1B65 DUP7 PUSH2 0x1578 JUMP JUMPDEST PUSH0 JUMPDEST DUP3 DUP2 LT ISZERO PUSH2 0x1B8C JUMPI DUP5 DUP10 ADD MLOAD DUP3 SSTORE PUSH1 0x1 DUP3 ADD SWAP2 POP PUSH1 0x20 DUP6 ADD SWAP5 POP PUSH1 0x20 DUP2 ADD SWAP1 POP PUSH2 0x1B67 JUMP JUMPDEST DUP7 DUP4 LT ISZERO PUSH2 0x1BA9 JUMPI DUP5 DUP10 ADD MLOAD PUSH2 0x1BA5 PUSH1 0x1F DUP10 AND DUP3 PUSH2 0x1AB8 JUMP JUMPDEST DUP4 SSTORE POP JUMPDEST PUSH1 0x1 PUSH1 0x2 DUP9 MUL ADD DUP9 SSTORE POP POP POP JUMPDEST POP POP POP POP POP POP JUMP INVALID LOG2 PUSH5 0x6970667358 0x22 SLT KECCAK256 0xD2 PUSH32 0x7F935B061D8DCF043D57DDE254CC4C4296127A370FBC120A991746A766B56473 PUSH16 0x6C634300081600330000000000000000 "
				},
				"gasEstimates": {
					"creation": {
						"codeDepositCost": "1431200",
						"executionCost": "25756",
						"totalCost": "1456956"
					},
					"external": {
						"addUser(string,string,string,address)": "infinite",
						"deleteUser(address)": "infinite",
						"getMilkHubToCheeseProducer(address)": "infinite",
						"getUser(address)": "infinite",
						"isUserPresent(address)": "2949",
						"loginUser(address,string,string)": "infinite"
					}
				},
				"methodIdentifiers": {
					"addUser(string,string,string,address)": "b48ff0f1",
					"deleteUser(address)": "5c60f226",
					"getMilkHubToCheeseProducer(address)": "6775f34e",
					"getUser(address)": "6f77926b",
					"isUserPresent(address)": "a5578807",
					"loginUser(address,string,string)": "06f22b04"
				}
			},
			"storageLayout": {
				"storage": [
					{
						"astId": 42,
						"contract": "Filiera-Token-SmartContract/contracts/Actor/MilkHub-smart-contract/MilkHubStorage.sol:MilkHubStorage",
						"label": "MilkHubOrg",
						"offset": 0,
						"slot": "0",
						"type": "t_address"
					},
					{
						"astId": 67,
						"contract": "Filiera-Token-SmartContract/contracts/Actor/MilkHub-smart-contract/MilkHubStorage.sol:MilkHubStorage",
						"label": "milkhubs",
						"offset": 0,
						"slot": "1",
						"type": "t_mapping(t_address,t_struct(MilkHub)62_storage)"
					}
				],
				"types": {
					"t_address": {
						"encoding": "inplace",
						"label": "address",
						"numberOfBytes": "20"
					},
					"t_mapping(t_address,t_struct(MilkHub)62_storage)": {
						"encoding": "mapping",
						"key": "t_address",
						"label": "mapping(address => struct MilkHubStorage.MilkHub)",
						"numberOfBytes": "32",
						"value": "t_struct(MilkHub)62_storage"
					},
					"t_string_storage": {
						"encoding": "bytes",
						"label": "string",
						"numberOfBytes": "32"
					},
					"t_struct(MilkHub)62_storage": {
						"encoding": "inplace",
						"label": "struct MilkHubStorage.MilkHub",
						"members": [
							{
								"astId": 53,
								"contract": "Filiera-Token-SmartContract/contracts/Actor/MilkHub-smart-contract/MilkHubStorage.sol:MilkHubStorage",
								"label": "id",
								"offset": 0,
								"slot": "0",
								"type": "t_uint256"
							},
							{
								"astId": 55,
								"contract": "Filiera-Token-SmartContract/contracts/Actor/MilkHub-smart-contract/MilkHubStorage.sol:MilkHubStorage",
								"label": "fullName",
								"offset": 0,
								"slot": "1",
								"type": "t_string_storage"
							},
							{
								"astId": 57,
								"contract": "Filiera-Token-SmartContract/contracts/Actor/MilkHub-smart-contract/MilkHubStorage.sol:MilkHubStorage",
								"label": "password",
								"offset": 0,
								"slot": "2",
								"type": "t_string_storage"
							},
							{
								"astId": 59,
								"contract": "Filiera-Token-SmartContract/contracts/Actor/MilkHub-smart-contract/MilkHubStorage.sol:MilkHubStorage",
								"label": "email",
								"offset": 0,
								"slot": "3",
								"type": "t_string_storage"
							},
							{
								"astId": 61,
								"contract": "Filiera-Token-SmartContract/contracts/Actor/MilkHub-smart-contract/MilkHubStorage.sol:MilkHubStorage",
								"label": "balance",
								"offset": 0,
								"slot": "4",
								"type": "t_uint256"
							}
						],
						"numberOfBytes": "160"
					},
					"t_uint256": {
						"encoding": "inplace",
						"label": "uint256",
						"numberOfBytes": "32"
					}
				}
			},
			"userdoc": {
				"kind": "user",
				"methods": {
					"addUser(string,string,string,address)": {
						"notice": "addUser() effettuiamo la registrazione dell'utente MilkHub "
					},
					"getMilkHubToCheeseProducer(address)": {
						"notice": "getMilkHubToCheeseProducer() otteniamo le informazioni sensibili per un singolo cheeseProducer  - email e fullName "
					},
					"getUser(address)": {
						"notice": "getUser(walletMilkHub) :  MilkHub visualizza le sue informazioni principali - email, password , fullName , balance "
					},
					"loginUser(address,string,string)": {
						"notice": "LoginUser() effettua il login dell'utente  La comparazione Hash tra (email e password) di input e quelli salvati return true se la comparazione è vera, La comparazione è falsa se l'hashing non risulta valido"
					}
				},
				"version": 1
			}
		}
	}
}