{
	"contracts/Actor/MilkHub-smart-contract/MilkHubStorage.sol": {
		"MilkHubStorage": {
			"abi": [
				{
					"inputs": [],
					"stateMutability": "nonpayable",
					"type": "constructor"
				},
				{
					"inputs": [
						{
							"internalType": "string",
							"name": "_fullName",
							"type": "string"
						},
						{
							"internalType": "string",
							"name": "_password",
							"type": "string"
						},
						{
							"internalType": "string",
							"name": "_email",
							"type": "string"
						},
						{
							"internalType": "address",
							"name": "walletMilkHub",
							"type": "address"
						}
					],
					"name": "addUser",
					"outputs": [],
					"stateMutability": "nonpayable",
					"type": "function"
				},
				{
					"inputs": [
						{
							"internalType": "address",
							"name": "walletMilkHub",
							"type": "address"
						}
					],
					"name": "deleteUser",
					"outputs": [
						{
							"internalType": "bool",
							"name": "value",
							"type": "bool"
						}
					],
					"stateMutability": "nonpayable",
					"type": "function"
				},
				{
					"inputs": [
						{
							"internalType": "address",
							"name": "walletMilkHub",
							"type": "address"
						},
						{
							"internalType": "uint256",
							"name": "_id",
							"type": "uint256"
						}
					],
					"name": "getBalance",
					"outputs": [
						{
							"internalType": "uint256",
							"name": "",
							"type": "uint256"
						}
					],
					"stateMutability": "view",
					"type": "function"
				},
				{
					"inputs": [
						{
							"internalType": "address",
							"name": "walletMilkHub",
							"type": "address"
						},
						{
							"internalType": "uint256",
							"name": "_id",
							"type": "uint256"
						}
					],
					"name": "getEmail",
					"outputs": [
						{
							"internalType": "string",
							"name": "",
							"type": "string"
						}
					],
					"stateMutability": "view",
					"type": "function"
				},
				{
					"inputs": [
						{
							"internalType": "address",
							"name": "walletMilkHub",
							"type": "address"
						},
						{
							"internalType": "uint256",
							"name": "_id",
							"type": "uint256"
						}
					],
					"name": "getFullName",
					"outputs": [
						{
							"internalType": "string",
							"name": "",
							"type": "string"
						}
					],
					"stateMutability": "view",
					"type": "function"
				},
				{
					"inputs": [
						{
							"internalType": "address",
							"name": "walletMilkHub",
							"type": "address"
						}
					],
					"name": "getId",
					"outputs": [
						{
							"internalType": "uint256",
							"name": "",
							"type": "uint256"
						}
					],
					"stateMutability": "view",
					"type": "function"
				},
				{
					"inputs": [
						{
							"internalType": "address",
							"name": "walletMilkHub",
							"type": "address"
						}
					],
					"name": "getUser",
					"outputs": [
						{
							"internalType": "uint256",
							"name": "",
							"type": "uint256"
						},
						{
							"internalType": "string",
							"name": "",
							"type": "string"
						},
						{
							"internalType": "string",
							"name": "",
							"type": "string"
						},
						{
							"internalType": "string",
							"name": "",
							"type": "string"
						},
						{
							"internalType": "uint256",
							"name": "",
							"type": "uint256"
						}
					],
					"stateMutability": "view",
					"type": "function"
				},
				{
					"inputs": [
						{
							"internalType": "address",
							"name": "walletMilkHub",
							"type": "address"
						}
					],
					"name": "isUserPresent",
					"outputs": [
						{
							"internalType": "bool",
							"name": "",
							"type": "bool"
						}
					],
					"stateMutability": "view",
					"type": "function"
				},
				{
					"inputs": [
						{
							"internalType": "address",
							"name": "walletMilkHub",
							"type": "address"
						},
						{
							"internalType": "string",
							"name": "_email",
							"type": "string"
						},
						{
							"internalType": "string",
							"name": "_password",
							"type": "string"
						}
					],
					"name": "loginUser",
					"outputs": [
						{
							"internalType": "bool",
							"name": "",
							"type": "bool"
						}
					],
					"stateMutability": "view",
					"type": "function"
				},
				{
					"inputs": [
						{
							"internalType": "address",
							"name": "walletMilkHub",
							"type": "address"
						},
						{
							"internalType": "uint256",
							"name": "_id",
							"type": "uint256"
						},
						{
							"internalType": "uint256",
							"name": "balance",
							"type": "uint256"
						}
					],
					"name": "updateBalance",
					"outputs": [],
					"stateMutability": "nonpayable",
					"type": "function"
				}
			],
			"devdoc": {
				"kind": "dev",
				"methods": {},
				"version": 1
			},
			"evm": {
				"assembly": "    /* \"contracts/Actor/MilkHub-smart-contract/MilkHubStorage.sol\":106:7138  contract MilkHubStorage is IUserStorageInterface {... */\n  mstore(0x40, 0x80)\n    /* \"contracts/Actor/MilkHub-smart-contract/MilkHubStorage.sol\":256:311  constructor(){... */\n  callvalue\n  dup1\n  iszero\n  tag_1\n  jumpi\n  0x00\n  dup1\n  revert\ntag_1:\n  pop\n    /* \"contracts/Actor/MilkHub-smart-contract/MilkHubStorage.sol\":293:303  msg.sender */\n  caller\n    /* \"contracts/Actor/MilkHub-smart-contract/MilkHubStorage.sol\":280:290  MilkHubOrg */\n  0x00\n  dup1\n    /* \"contracts/Actor/MilkHub-smart-contract/MilkHubStorage.sol\":280:303  MilkHubOrg = msg.sender */\n  0x0100\n  exp\n  dup2\n  sload\n  dup2\n  0xffffffffffffffffffffffffffffffffffffffff\n  mul\n  not\n  and\n  swap1\n  dup4\n  0xffffffffffffffffffffffffffffffffffffffff\n  and\n  mul\n  or\n  swap1\n  sstore\n  pop\n    /* \"contracts/Actor/MilkHub-smart-contract/MilkHubStorage.sol\":106:7138  contract MilkHubStorage is IUserStorageInterface {... */\n  dataSize(sub_0)\n  dup1\n  dataOffset(sub_0)\n  0x00\n  codecopy\n  0x00\n  return\nstop\n\nsub_0: assembly {\n        /* \"contracts/Actor/MilkHub-smart-contract/MilkHubStorage.sol\":106:7138  contract MilkHubStorage is IUserStorageInterface {... */\n      mstore(0x40, 0x80)\n      callvalue\n      dup1\n      iszero\n      tag_1\n      jumpi\n      0x00\n      dup1\n      revert\n    tag_1:\n      pop\n      jumpi(tag_2, lt(calldatasize, 0x04))\n      shr(0xe0, calldataload(0x00))\n      dup1\n      0x6f77926b\n      gt\n      tag_13\n      jumpi\n      dup1\n      0x6f77926b\n      eq\n      tag_8\n      jumpi\n      dup1\n      0x87d5173d\n      eq\n      tag_9\n      jumpi\n      dup1\n      0xa5578807\n      eq\n      tag_10\n      jumpi\n      dup1\n      0xb48ff0f1\n      eq\n      tag_11\n      jumpi\n      dup1\n      0xecca4073\n      eq\n      tag_12\n      jumpi\n      jump(tag_2)\n    tag_13:\n      dup1\n      0x06f22b04\n      eq\n      tag_3\n      jumpi\n      dup1\n      0x2b04e840\n      eq\n      tag_4\n      jumpi\n      dup1\n      0x5c60f226\n      eq\n      tag_5\n      jumpi\n      dup1\n      0x65f68c89\n      eq\n      tag_6\n      jumpi\n      dup1\n      0x6e44cd42\n      eq\n      tag_7\n      jumpi\n    tag_2:\n      0x00\n      dup1\n      revert\n        /* \"contracts/Actor/MilkHub-smart-contract/MilkHubStorage.sol\":2318:3167  function loginUser(address walletMilkHub, string memory _email, string memory _password) external view returns(bool){... */\n    tag_3:\n      tag_14\n      0x04\n      dup1\n      calldatasize\n      sub\n      dup2\n      add\n      swap1\n      tag_15\n      swap2\n      swap1\n      tag_16\n      jump\t// in\n    tag_15:\n      tag_17\n      jump\t// in\n    tag_14:\n      mload(0x40)\n      tag_18\n      swap2\n      swap1\n      tag_19\n      jump\t// in\n    tag_18:\n      mload(0x40)\n      dup1\n      swap2\n      sub\n      swap1\n      return\n        /* \"contracts/Actor/MilkHub-smart-contract/MilkHubStorage.sol\":6399:6687  function getBalance(address walletMilkHub, uint256 _id) external view  returns(uint256){... */\n    tag_4:\n      tag_20\n      0x04\n      dup1\n      calldatasize\n      sub\n      dup2\n      add\n      swap1\n      tag_21\n      swap2\n      swap1\n      tag_22\n      jump\t// in\n    tag_21:\n      tag_23\n      jump\t// in\n    tag_20:\n      mload(0x40)\n      tag_24\n      swap2\n      swap1\n      tag_25\n      jump\t// in\n    tag_24:\n      mload(0x40)\n      dup1\n      swap2\n      sub\n      swap1\n      return\n        /* \"contracts/Actor/MilkHub-smart-contract/MilkHubStorage.sol\":3894:4562  function deleteUser(address walletMilkHub) external returns(bool value){... */\n    tag_5:\n      tag_26\n      0x04\n      dup1\n      calldatasize\n      sub\n      dup2\n      add\n      swap1\n      tag_27\n      swap2\n      swap1\n      tag_28\n      jump\t// in\n    tag_27:\n      tag_29\n      jump\t// in\n    tag_26:\n      mload(0x40)\n      tag_30\n      swap2\n      swap1\n      tag_19\n      jump\t// in\n    tag_30:\n      mload(0x40)\n      dup1\n      swap2\n      sub\n      swap1\n      return\n        /* \"contracts/Actor/MilkHub-smart-contract/MilkHubStorage.sol\":5217:5411  function getId(address walletMilkHub) external view  returns(uint256){... */\n    tag_6:\n      tag_31\n      0x04\n      dup1\n      calldatasize\n      sub\n      dup2\n      add\n      swap1\n      tag_32\n      swap2\n      swap1\n      tag_28\n      jump\t// in\n    tag_32:\n      tag_33\n      jump\t// in\n    tag_31:\n      mload(0x40)\n      tag_34\n      swap2\n      swap1\n      tag_25\n      jump\t// in\n    tag_34:\n      mload(0x40)\n      dup1\n      swap2\n      sub\n      swap1\n      return\n        /* \"contracts/Actor/MilkHub-smart-contract/MilkHubStorage.sol\":5542:5846  function getFullName(address walletMilkHub, uint256 _id) external view  returns(string memory){... */\n    tag_7:\n      tag_35\n      0x04\n      dup1\n      calldatasize\n      sub\n      dup2\n      add\n      swap1\n      tag_36\n      swap2\n      swap1\n      tag_22\n      jump\t// in\n    tag_36:\n      tag_37\n      jump\t// in\n    tag_35:\n      mload(0x40)\n      tag_38\n      swap2\n      swap1\n      tag_39\n      jump\t// in\n    tag_38:\n      mload(0x40)\n      dup1\n      swap2\n      sub\n      swap1\n      return\n        /* \"contracts/Actor/MilkHub-smart-contract/MilkHubStorage.sol\":3333:3801  function getUser(address walletMilkHub) external  view returns (uint256, string memory, string memory, string memory, uint256) {... */\n    tag_8:\n      tag_40\n      0x04\n      dup1\n      calldatasize\n      sub\n      dup2\n      add\n      swap1\n      tag_41\n      swap2\n      swap1\n      tag_28\n      jump\t// in\n    tag_41:\n      tag_42\n      jump\t// in\n    tag_40:\n      mload(0x40)\n      tag_43\n      swap6\n      swap5\n      swap4\n      swap3\n      swap2\n      swap1\n      tag_44\n      jump\t// in\n    tag_43:\n      mload(0x40)\n      dup1\n      swap2\n      sub\n      swap1\n      return\n        /* \"contracts/Actor/MilkHub-smart-contract/MilkHubStorage.sol\":6796:7133  function updateBalance(address walletMilkHub, uint256 _id, uint256 balance) external{... */\n    tag_9:\n      tag_45\n      0x04\n      dup1\n      calldatasize\n      sub\n      dup2\n      add\n      swap1\n      tag_46\n      swap2\n      swap1\n      tag_47\n      jump\t// in\n    tag_46:\n      tag_48\n      jump\t// in\n    tag_45:\n      stop\n        /* \"contracts/Actor/MilkHub-smart-contract/MilkHubStorage.sol\":4734:4958  function isUserPresent(address walletMilkHub) external view returns(bool){... */\n    tag_10:\n      tag_49\n      0x04\n      dup1\n      calldatasize\n      sub\n      dup2\n      add\n      swap1\n      tag_50\n      swap2\n      swap1\n      tag_28\n      jump\t// in\n    tag_50:\n      tag_51\n      jump\t// in\n    tag_49:\n      mload(0x40)\n      tag_52\n      swap2\n      swap1\n      tag_19\n      jump\t// in\n    tag_52:\n      mload(0x40)\n      dup1\n      swap2\n      sub\n      swap1\n      return\n        /* \"contracts/Actor/MilkHub-smart-contract/MilkHubStorage.sol\":834:2058  function addUser(string memory _fullName, string memory _password,string memory _email, address walletMilkHub) external {... */\n    tag_11:\n      tag_53\n      0x04\n      dup1\n      calldatasize\n      sub\n      dup2\n      add\n      swap1\n      tag_54\n      swap2\n      swap1\n      tag_55\n      jump\t// in\n    tag_54:\n      tag_56\n      jump\t// in\n    tag_53:\n      stop\n        /* \"contracts/Actor/MilkHub-smart-contract/MilkHubStorage.sol\":5972:6270  function getEmail(address walletMilkHub, uint256 _id) external view  returns(string memory){... */\n    tag_12:\n      tag_57\n      0x04\n      dup1\n      calldatasize\n      sub\n      dup2\n      add\n      swap1\n      tag_58\n      swap2\n      swap1\n      tag_22\n      jump\t// in\n    tag_58:\n      tag_59\n      jump\t// in\n    tag_57:\n      mload(0x40)\n      tag_60\n      swap2\n      swap1\n      tag_39\n      jump\t// in\n    tag_60:\n      mload(0x40)\n      dup1\n      swap2\n      sub\n      swap1\n      return\n        /* \"contracts/Actor/MilkHub-smart-contract/MilkHubStorage.sol\":2318:3167  function loginUser(address walletMilkHub, string memory _email, string memory _password) external view returns(bool){... */\n    tag_17:\n        /* \"contracts/Actor/MilkHub-smart-contract/MilkHubStorage.sol\":2429:2433  bool */\n      0x00\n        /* \"contracts/Actor/MilkHub-smart-contract/MilkHubStorage.sol\":2488:2489  0 */\n      dup1\n        /* \"contracts/Actor/MilkHub-smart-contract/MilkHubStorage.sol\":2455:2490  address(walletMilkHub)!= address(0) */\n      0xffffffffffffffffffffffffffffffffffffffff\n      and\n        /* \"contracts/Actor/MilkHub-smart-contract/MilkHubStorage.sol\":2463:2476  walletMilkHub */\n      dup5\n        /* \"contracts/Actor/MilkHub-smart-contract/MilkHubStorage.sol\":2455:2490  address(walletMilkHub)!= address(0) */\n      0xffffffffffffffffffffffffffffffffffffffff\n      and\n      sub\n        /* \"contracts/Actor/MilkHub-smart-contract/MilkHubStorage.sol\":2447:2535  require(address(walletMilkHub)!= address(0), \"Address utilizzato non valido, pari a 0!\") */\n      tag_62\n      jumpi\n      mload(0x40)\n      0x08c379a000000000000000000000000000000000000000000000000000000000\n      dup2\n      mstore\n      0x04\n      add\n      tag_63\n      swap1\n      tag_64\n      jump\t// in\n    tag_63:\n      mload(0x40)\n      dup1\n      swap2\n      sub\n      swap1\n      revert\n    tag_62:\n        /* \"contracts/Actor/MilkHub-smart-contract/MilkHubStorage.sol\":2661:2671  MilkHubOrg */\n      0x00\n      dup1\n      sload\n      swap1\n      0x0100\n      exp\n      swap1\n      div\n      0xffffffffffffffffffffffffffffffffffffffff\n      and\n        /* \"contracts/Actor/MilkHub-smart-contract/MilkHubStorage.sol\":2644:2671  walletMilkHub != MilkHubOrg */\n      0xffffffffffffffffffffffffffffffffffffffff\n      and\n        /* \"contracts/Actor/MilkHub-smart-contract/MilkHubStorage.sol\":2644:2657  walletMilkHub */\n      dup5\n        /* \"contracts/Actor/MilkHub-smart-contract/MilkHubStorage.sol\":2644:2671  walletMilkHub != MilkHubOrg */\n      0xffffffffffffffffffffffffffffffffffffffff\n      and\n      sub\n        /* \"contracts/Actor/MilkHub-smart-contract/MilkHubStorage.sol\":2636:2694  require(walletMilkHub != MilkHubOrg,\"Address non Valido!\") */\n      tag_65\n      jumpi\n      mload(0x40)\n      0x08c379a000000000000000000000000000000000000000000000000000000000\n      dup2\n      mstore\n      0x04\n      add\n      tag_66\n      swap1\n      tag_67\n      jump\t// in\n    tag_66:\n      mload(0x40)\n      dup1\n      swap2\n      sub\n      swap1\n      revert\n    tag_65:\n        /* \"contracts/Actor/MilkHub-smart-contract/MilkHubStorage.sol\":2820:2821  0 */\n      0x00\n        /* \"contracts/Actor/MilkHub-smart-contract/MilkHubStorage.sol\":2792:2800  milkhubs */\n      0x01\n        /* \"contracts/Actor/MilkHub-smart-contract/MilkHubStorage.sol\":2792:2815  milkhubs[walletMilkHub] */\n      0x00\n        /* \"contracts/Actor/MilkHub-smart-contract/MilkHubStorage.sol\":2801:2814  walletMilkHub */\n      dup7\n        /* \"contracts/Actor/MilkHub-smart-contract/MilkHubStorage.sol\":2792:2815  milkhubs[walletMilkHub] */\n      0xffffffffffffffffffffffffffffffffffffffff\n      and\n      0xffffffffffffffffffffffffffffffffffffffff\n      and\n      dup2\n      mstore\n      0x20\n      add\n      swap1\n      dup2\n      mstore\n      0x20\n      add\n      0x00\n      keccak256\n        /* \"contracts/Actor/MilkHub-smart-contract/MilkHubStorage.sol\":2792:2818  milkhubs[walletMilkHub].id */\n      0x00\n      add\n      sload\n        /* \"contracts/Actor/MilkHub-smart-contract/MilkHubStorage.sol\":2792:2821  milkhubs[walletMilkHub].id!=0 */\n      sub\n        /* \"contracts/Actor/MilkHub-smart-contract/MilkHubStorage.sol\":2783:2848  require( milkhubs[walletMilkHub].id!=0  , \"Utente non presente!\") */\n      tag_68\n      jumpi\n      mload(0x40)\n      0x08c379a000000000000000000000000000000000000000000000000000000000\n      dup2\n      mstore\n      0x04\n      add\n      tag_69\n      swap1\n      tag_70\n      jump\t// in\n    tag_69:\n      mload(0x40)\n      dup1\n      swap2\n      sub\n      swap1\n      revert\n    tag_68:\n        /* \"contracts/Actor/MilkHub-smart-contract/MilkHubStorage.sol\":2892:2915  MilkHub storage milkhub */\n      0x00\n        /* \"contracts/Actor/MilkHub-smart-contract/MilkHubStorage.sol\":2918:2926  milkhubs */\n      0x01\n        /* \"contracts/Actor/MilkHub-smart-contract/MilkHubStorage.sol\":2918:2941  milkhubs[walletMilkHub] */\n      0x00\n        /* \"contracts/Actor/MilkHub-smart-contract/MilkHubStorage.sol\":2927:2940  walletMilkHub */\n      dup7\n        /* \"contracts/Actor/MilkHub-smart-contract/MilkHubStorage.sol\":2918:2941  milkhubs[walletMilkHub] */\n      0xffffffffffffffffffffffffffffffffffffffff\n      and\n      0xffffffffffffffffffffffffffffffffffffffff\n      and\n      dup2\n      mstore\n      0x20\n      add\n      swap1\n      dup2\n      mstore\n      0x20\n      add\n      0x00\n      keccak256\n        /* \"contracts/Actor/MilkHub-smart-contract/MilkHubStorage.sol\":2892:2941  MilkHub storage milkhub = milkhubs[walletMilkHub] */\n      swap1\n      pop\n        /* \"contracts/Actor/MilkHub-smart-contract/MilkHubStorage.sol\":3140:3146  _email */\n      dup4\n        /* \"contracts/Actor/MilkHub-smart-contract/MilkHubStorage.sol\":3148:3157  _password */\n      dup4\n        /* \"contracts/Actor/MilkHub-smart-contract/MilkHubStorage.sol\":3123:3158  abi.encodePacked(_email, _password) */\n      add(0x20, mload(0x40))\n      tag_71\n      swap3\n      swap2\n      swap1\n      tag_72\n      jump\t// in\n    tag_71:\n      mload(0x40)\n      0x20\n      dup2\n      dup4\n      sub\n      sub\n      dup2\n      mstore\n      swap1\n      0x40\n      mstore\n        /* \"contracts/Actor/MilkHub-smart-contract/MilkHubStorage.sol\":3113:3159  keccak256(abi.encodePacked(_email, _password)) */\n      dup1\n      mload\n      swap1\n      0x20\n      add\n      keccak256\n        /* \"contracts/Actor/MilkHub-smart-contract/MilkHubStorage.sol\":3076:3083  milkhub */\n      dup2\n        /* \"contracts/Actor/MilkHub-smart-contract/MilkHubStorage.sol\":3076:3089  milkhub.email */\n      0x03\n      add\n        /* \"contracts/Actor/MilkHub-smart-contract/MilkHubStorage.sol\":3091:3098  milkhub */\n      dup3\n        /* \"contracts/Actor/MilkHub-smart-contract/MilkHubStorage.sol\":3091:3107  milkhub.password */\n      0x02\n      add\n        /* \"contracts/Actor/MilkHub-smart-contract/MilkHubStorage.sol\":3059:3108  abi.encodePacked(milkhub.email, milkhub.password) */\n      add(0x20, mload(0x40))\n      tag_73\n      swap3\n      swap2\n      swap1\n      tag_74\n      jump\t// in\n    tag_73:\n      mload(0x40)\n      0x20\n      dup2\n      dup4\n      sub\n      sub\n      dup2\n      mstore\n      swap1\n      0x40\n      mstore\n        /* \"contracts/Actor/MilkHub-smart-contract/MilkHubStorage.sol\":3049:3109  keccak256(abi.encodePacked(milkhub.email, milkhub.password)) */\n      dup1\n      mload\n      swap1\n      0x20\n      add\n      keccak256\n        /* \"contracts/Actor/MilkHub-smart-contract/MilkHubStorage.sol\":3049:3159  keccak256(abi.encodePacked(milkhub.email, milkhub.password)) == keccak256(abi.encodePacked(_email, _password)) */\n      eq\n        /* \"contracts/Actor/MilkHub-smart-contract/MilkHubStorage.sol\":3042:3159  return keccak256(abi.encodePacked(milkhub.email, milkhub.password)) == keccak256(abi.encodePacked(_email, _password)) */\n      swap2\n      pop\n      pop\n        /* \"contracts/Actor/MilkHub-smart-contract/MilkHubStorage.sol\":2318:3167  function loginUser(address walletMilkHub, string memory _email, string memory _password) external view returns(bool){... */\n      swap4\n      swap3\n      pop\n      pop\n      pop\n      jump\t// out\n        /* \"contracts/Actor/MilkHub-smart-contract/MilkHubStorage.sol\":6399:6687  function getBalance(address walletMilkHub, uint256 _id) external view  returns(uint256){... */\n    tag_23:\n        /* \"contracts/Actor/MilkHub-smart-contract/MilkHubStorage.sol\":6478:6485  uint256 */\n      0x00\n        /* \"contracts/Actor/MilkHub-smart-contract/MilkHubStorage.sol\":6505:6509  this */\n      address\n        /* \"contracts/Actor/MilkHub-smart-contract/MilkHubStorage.sol\":6505:6523  this.isUserPresent */\n      0xffffffffffffffffffffffffffffffffffffffff\n      and\n      0xa5578807\n        /* \"contracts/Actor/MilkHub-smart-contract/MilkHubStorage.sol\":6524:6537  walletMilkHub */\n      dup5\n        /* \"contracts/Actor/MilkHub-smart-contract/MilkHubStorage.sol\":6505:6538  this.isUserPresent(walletMilkHub) */\n      mload(0x40)\n      dup3\n      0xffffffff\n      and\n      0xe0\n      shl\n      dup2\n      mstore\n      0x04\n      add\n      tag_76\n      swap2\n      swap1\n      tag_77\n      jump\t// in\n    tag_76:\n      0x20\n      mload(0x40)\n      dup1\n      dup4\n      sub\n      dup2\n      dup7\n      gas\n      staticcall\n      iszero\n      dup1\n      iszero\n      tag_79\n      jumpi\n      returndatasize\n      0x00\n      dup1\n      returndatacopy\n      revert(0x00, returndatasize)\n    tag_79:\n      pop\n      pop\n      pop\n      pop\n      mload(0x40)\n      returndatasize\n      not(0x1f)\n      0x1f\n      dup3\n      add\n      and\n      dup3\n      add\n      dup1\n      0x40\n      mstore\n      pop\n      dup2\n      add\n      swap1\n      tag_80\n      swap2\n      swap1\n      tag_81\n      jump\t// in\n    tag_80:\n        /* \"contracts/Actor/MilkHub-smart-contract/MilkHubStorage.sol\":6497:6557  require(this.isUserPresent(walletMilkHub),\"User Not Found!\") */\n      tag_82\n      jumpi\n      mload(0x40)\n      0x08c379a000000000000000000000000000000000000000000000000000000000\n      dup2\n      mstore\n      0x04\n      add\n      tag_83\n      swap1\n      tag_84\n      jump\t// in\n    tag_83:\n      mload(0x40)\n      dup1\n      swap2\n      sub\n      swap1\n      revert\n    tag_82:\n        /* \"contracts/Actor/MilkHub-smart-contract/MilkHubStorage.sol\":6604:6607  _id */\n      dup2\n        /* \"contracts/Actor/MilkHub-smart-contract/MilkHubStorage.sol\":6576:6584  milkhubs */\n      0x01\n        /* \"contracts/Actor/MilkHub-smart-contract/MilkHubStorage.sol\":6576:6599  milkhubs[walletMilkHub] */\n      0x00\n        /* \"contracts/Actor/MilkHub-smart-contract/MilkHubStorage.sol\":6585:6598  walletMilkHub */\n      dup6\n        /* \"contracts/Actor/MilkHub-smart-contract/MilkHubStorage.sol\":6576:6599  milkhubs[walletMilkHub] */\n      0xffffffffffffffffffffffffffffffffffffffff\n      and\n      0xffffffffffffffffffffffffffffffffffffffff\n      and\n      dup2\n      mstore\n      0x20\n      add\n      swap1\n      dup2\n      mstore\n      0x20\n      add\n      0x00\n      keccak256\n        /* \"contracts/Actor/MilkHub-smart-contract/MilkHubStorage.sol\":6576:6602  milkhubs[walletMilkHub].id */\n      0x00\n      add\n      sload\n        /* \"contracts/Actor/MilkHub-smart-contract/MilkHubStorage.sol\":6576:6607  milkhubs[walletMilkHub].id==_id */\n      eq\n        /* \"contracts/Actor/MilkHub-smart-contract/MilkHubStorage.sol\":6568:6628  require(milkhubs[walletMilkHub].id==_id,\"Struct not Valid!\") */\n      tag_85\n      jumpi\n      mload(0x40)\n      0x08c379a000000000000000000000000000000000000000000000000000000000\n      dup2\n      mstore\n      0x04\n      add\n      tag_86\n      swap1\n      tag_87\n      jump\t// in\n    tag_86:\n      mload(0x40)\n      dup1\n      swap2\n      sub\n      swap1\n      revert\n    tag_85:\n        /* \"contracts/Actor/MilkHub-smart-contract/MilkHubStorage.sol\":6648:6656  milkhubs */\n      0x01\n        /* \"contracts/Actor/MilkHub-smart-contract/MilkHubStorage.sol\":6648:6671  milkhubs[walletMilkHub] */\n      0x00\n        /* \"contracts/Actor/MilkHub-smart-contract/MilkHubStorage.sol\":6657:6670  walletMilkHub */\n      dup5\n        /* \"contracts/Actor/MilkHub-smart-contract/MilkHubStorage.sol\":6648:6671  milkhubs[walletMilkHub] */\n      0xffffffffffffffffffffffffffffffffffffffff\n      and\n      0xffffffffffffffffffffffffffffffffffffffff\n      and\n      dup2\n      mstore\n      0x20\n      add\n      swap1\n      dup2\n      mstore\n      0x20\n      add\n      0x00\n      keccak256\n        /* \"contracts/Actor/MilkHub-smart-contract/MilkHubStorage.sol\":6648:6679  milkhubs[walletMilkHub].balance */\n      0x04\n      add\n      sload\n        /* \"contracts/Actor/MilkHub-smart-contract/MilkHubStorage.sol\":6641:6679  return milkhubs[walletMilkHub].balance */\n      swap1\n      pop\n        /* \"contracts/Actor/MilkHub-smart-contract/MilkHubStorage.sol\":6399:6687  function getBalance(address walletMilkHub, uint256 _id) external view  returns(uint256){... */\n      swap3\n      swap2\n      pop\n      pop\n      jump\t// out\n        /* \"contracts/Actor/MilkHub-smart-contract/MilkHubStorage.sol\":3894:4562  function deleteUser(address walletMilkHub) external returns(bool value){... */\n    tag_29:\n        /* \"contracts/Actor/MilkHub-smart-contract/MilkHubStorage.sol\":3954:3964  bool value */\n      0x00\n        /* \"contracts/Actor/MilkHub-smart-contract/MilkHubStorage.sol\":3984:3988  this */\n      address\n        /* \"contracts/Actor/MilkHub-smart-contract/MilkHubStorage.sol\":3984:4002  this.isUserPresent */\n      0xffffffffffffffffffffffffffffffffffffffff\n      and\n      0xa5578807\n        /* \"contracts/Actor/MilkHub-smart-contract/MilkHubStorage.sol\":4003:4016  walletMilkHub */\n      dup4\n        /* \"contracts/Actor/MilkHub-smart-contract/MilkHubStorage.sol\":3984:4017  this.isUserPresent(walletMilkHub) */\n      mload(0x40)\n      dup3\n      0xffffffff\n      and\n      0xe0\n      shl\n      dup2\n      mstore\n      0x04\n      add\n      tag_89\n      swap2\n      swap1\n      tag_77\n      jump\t// in\n    tag_89:\n      0x20\n      mload(0x40)\n      dup1\n      dup4\n      sub\n      dup2\n      dup7\n      gas\n      staticcall\n      iszero\n      dup1\n      iszero\n      tag_91\n      jumpi\n      returndatasize\n      0x00\n      dup1\n      returndatacopy\n      revert(0x00, returndatasize)\n    tag_91:\n      pop\n      pop\n      pop\n      pop\n      mload(0x40)\n      returndatasize\n      not(0x1f)\n      0x1f\n      dup3\n      add\n      and\n      dup3\n      add\n      dup1\n      0x40\n      mstore\n      pop\n      dup2\n      add\n      swap1\n      tag_92\n      swap2\n      swap1\n      tag_81\n      jump\t// in\n    tag_92:\n        /* \"contracts/Actor/MilkHub-smart-contract/MilkHubStorage.sol\":3976:4035  require(this.isUserPresent(walletMilkHub),\"User Not Found\") */\n      tag_93\n      jumpi\n      mload(0x40)\n      0x08c379a000000000000000000000000000000000000000000000000000000000\n      dup2\n      mstore\n      0x04\n      add\n      tag_94\n      swap1\n      tag_95\n      jump\t// in\n    tag_94:\n      mload(0x40)\n      dup1\n      swap2\n      sub\n      swap1\n      revert\n    tag_93:\n        /* \"contracts/Actor/MilkHub-smart-contract/MilkHubStorage.sol\":4048:4069  uint256 lastIdMilkHub */\n      0x00\n        /* \"contracts/Actor/MilkHub-smart-contract/MilkHubStorage.sol\":4121:4129  milkhubs */\n      0x01\n        /* \"contracts/Actor/MilkHub-smart-contract/MilkHubStorage.sol\":4121:4144  milkhubs[walletMilkHub] */\n      0x00\n        /* \"contracts/Actor/MilkHub-smart-contract/MilkHubStorage.sol\":4130:4143  walletMilkHub */\n      dup5\n        /* \"contracts/Actor/MilkHub-smart-contract/MilkHubStorage.sol\":4121:4144  milkhubs[walletMilkHub] */\n      0xffffffffffffffffffffffffffffffffffffffff\n      and\n      0xffffffffffffffffffffffffffffffffffffffff\n      and\n      dup2\n      mstore\n      0x20\n      add\n      swap1\n      dup2\n      mstore\n      0x20\n      add\n      0x00\n      keccak256\n        /* \"contracts/Actor/MilkHub-smart-contract/MilkHubStorage.sol\":4121:4153  milkhubs[walletMilkHub].fullName */\n      0x01\n      add\n        /* \"contracts/Actor/MilkHub-smart-contract/MilkHubStorage.sol\":4168:4176  milkhubs */\n      0x01\n        /* \"contracts/Actor/MilkHub-smart-contract/MilkHubStorage.sol\":4168:4191  milkhubs[walletMilkHub] */\n      0x00\n        /* \"contracts/Actor/MilkHub-smart-contract/MilkHubStorage.sol\":4177:4190  walletMilkHub */\n      dup6\n        /* \"contracts/Actor/MilkHub-smart-contract/MilkHubStorage.sol\":4168:4191  milkhubs[walletMilkHub] */\n      0xffffffffffffffffffffffffffffffffffffffff\n      and\n      0xffffffffffffffffffffffffffffffffffffffff\n      and\n      dup2\n      mstore\n      0x20\n      add\n      swap1\n      dup2\n      mstore\n      0x20\n      add\n      0x00\n      keccak256\n        /* \"contracts/Actor/MilkHub-smart-contract/MilkHubStorage.sol\":4168:4200  milkhubs[walletMilkHub].password */\n      0x02\n      add\n        /* \"contracts/Actor/MilkHub-smart-contract/MilkHubStorage.sol\":4215:4223  milkhubs */\n      0x01\n        /* \"contracts/Actor/MilkHub-smart-contract/MilkHubStorage.sol\":4215:4238  milkhubs[walletMilkHub] */\n      0x00\n        /* \"contracts/Actor/MilkHub-smart-contract/MilkHubStorage.sol\":4224:4237  walletMilkHub */\n      dup7\n        /* \"contracts/Actor/MilkHub-smart-contract/MilkHubStorage.sol\":4215:4238  milkhubs[walletMilkHub] */\n      0xffffffffffffffffffffffffffffffffffffffff\n      and\n      0xffffffffffffffffffffffffffffffffffffffff\n      and\n      dup2\n      mstore\n      0x20\n      add\n      swap1\n      dup2\n      mstore\n      0x20\n      add\n      0x00\n      keccak256\n        /* \"contracts/Actor/MilkHub-smart-contract/MilkHubStorage.sol\":4215:4244  milkhubs[walletMilkHub].email */\n      0x03\n      add\n        /* \"contracts/Actor/MilkHub-smart-contract/MilkHubStorage.sol\":4259:4272  walletMilkHub */\n      dup6\n        /* \"contracts/Actor/MilkHub-smart-contract/MilkHubStorage.sol\":4090:4290  abi.encodePacked(... */\n      add(0x20, mload(0x40))\n      tag_96\n      swap5\n      swap4\n      swap3\n      swap2\n      swap1\n      tag_97\n      jump\t// in\n    tag_96:\n      mload(0x40)\n      0x20\n      dup2\n      dup4\n      sub\n      sub\n      dup2\n      mstore\n      swap1\n      0x40\n      mstore\n        /* \"contracts/Actor/MilkHub-smart-contract/MilkHubStorage.sol\":4080:4291  keccak256(abi.encodePacked(... */\n      dup1\n      mload\n      swap1\n      0x20\n      add\n      keccak256\n        /* \"contracts/Actor/MilkHub-smart-contract/MilkHubStorage.sol\":4072:4292  uint256(keccak256(abi.encodePacked(... */\n      0x00\n      shr\n        /* \"contracts/Actor/MilkHub-smart-contract/MilkHubStorage.sol\":4048:4292  uint256 lastIdMilkHub = uint256(keccak256(abi.encodePacked(... */\n      swap1\n      pop\n        /* \"contracts/Actor/MilkHub-smart-contract/MilkHubStorage.sol\":4340:4353  lastIdMilkHub */\n      dup1\n        /* \"contracts/Actor/MilkHub-smart-contract/MilkHubStorage.sol\":4312:4320  milkhubs */\n      0x01\n        /* \"contracts/Actor/MilkHub-smart-contract/MilkHubStorage.sol\":4312:4335  milkhubs[walletMilkHub] */\n      0x00\n        /* \"contracts/Actor/MilkHub-smart-contract/MilkHubStorage.sol\":4321:4334  walletMilkHub */\n      dup6\n        /* \"contracts/Actor/MilkHub-smart-contract/MilkHubStorage.sol\":4312:4335  milkhubs[walletMilkHub] */\n      0xffffffffffffffffffffffffffffffffffffffff\n      and\n      0xffffffffffffffffffffffffffffffffffffffff\n      and\n      dup2\n      mstore\n      0x20\n      add\n      swap1\n      dup2\n      mstore\n      0x20\n      add\n      0x00\n      keccak256\n        /* \"contracts/Actor/MilkHub-smart-contract/MilkHubStorage.sol\":4312:4338  milkhubs[walletMilkHub].id */\n      0x00\n      add\n      sload\n        /* \"contracts/Actor/MilkHub-smart-contract/MilkHubStorage.sol\":4312:4353  milkhubs[walletMilkHub].id==lastIdMilkHub */\n      eq\n        /* \"contracts/Actor/MilkHub-smart-contract/MilkHubStorage.sol\":4303:4381  require (milkhubs[walletMilkHub].id==lastIdMilkHub, \"Utente non Autorizzato!\") */\n      tag_98\n      jumpi\n      mload(0x40)\n      0x08c379a000000000000000000000000000000000000000000000000000000000\n      dup2\n      mstore\n      0x04\n      add\n      tag_99\n      swap1\n      tag_100\n      jump\t// in\n    tag_99:\n      mload(0x40)\n      dup1\n      swap2\n      sub\n      swap1\n      revert\n    tag_98:\n        /* \"contracts/Actor/MilkHub-smart-contract/MilkHubStorage.sol\":4401:4409  milkhubs */\n      0x01\n        /* \"contracts/Actor/MilkHub-smart-contract/MilkHubStorage.sol\":4401:4424  milkhubs[walletMilkHub] */\n      0x00\n        /* \"contracts/Actor/MilkHub-smart-contract/MilkHubStorage.sol\":4410:4423  walletMilkHub */\n      dup5\n        /* \"contracts/Actor/MilkHub-smart-contract/MilkHubStorage.sol\":4401:4424  milkhubs[walletMilkHub] */\n      0xffffffffffffffffffffffffffffffffffffffff\n      and\n      0xffffffffffffffffffffffffffffffffffffffff\n      and\n      dup2\n      mstore\n      0x20\n      add\n      swap1\n      dup2\n      mstore\n      0x20\n      add\n      0x00\n      keccak256\n      0x00\n        /* \"contracts/Actor/MilkHub-smart-contract/MilkHubStorage.sol\":4394:4424  delete milkhubs[walletMilkHub] */\n      dup1\n      dup3\n      add\n      0x00\n      swap1\n      sstore\n      0x01\n      dup3\n      add\n      0x00\n      tag_101\n      swap2\n      swap1\n      tag_102\n      jump\t// in\n    tag_101:\n      0x02\n      dup3\n      add\n      0x00\n      tag_103\n      swap2\n      swap1\n      tag_102\n      jump\t// in\n    tag_103:\n      0x03\n      dup3\n      add\n      0x00\n      tag_104\n      swap2\n      swap1\n      tag_102\n      jump\t// in\n    tag_104:\n      0x04\n      dup3\n      add\n      0x00\n      swap1\n      sstore\n      pop\n      pop\n        /* \"contracts/Actor/MilkHub-smart-contract/MilkHubStorage.sol\":4470:4471  0 */\n      0x00\n        /* \"contracts/Actor/MilkHub-smart-contract/MilkHubStorage.sol\":4440:4448  milkhubs */\n      0x01\n        /* \"contracts/Actor/MilkHub-smart-contract/MilkHubStorage.sol\":4440:4463  milkhubs[walletMilkHub] */\n      0x00\n        /* \"contracts/Actor/MilkHub-smart-contract/MilkHubStorage.sol\":4449:4462  walletMilkHub */\n      dup6\n        /* \"contracts/Actor/MilkHub-smart-contract/MilkHubStorage.sol\":4440:4463  milkhubs[walletMilkHub] */\n      0xffffffffffffffffffffffffffffffffffffffff\n      and\n      0xffffffffffffffffffffffffffffffffffffffff\n      and\n      dup2\n      mstore\n      0x20\n      add\n      swap1\n      dup2\n      mstore\n      0x20\n      add\n      0x00\n      keccak256\n        /* \"contracts/Actor/MilkHub-smart-contract/MilkHubStorage.sol\":4440:4466  milkhubs[walletMilkHub].id */\n      0x00\n      add\n      sload\n        /* \"contracts/Actor/MilkHub-smart-contract/MilkHubStorage.sol\":4440:4471  milkhubs[walletMilkHub].id == 0 */\n      sub\n        /* \"contracts/Actor/MilkHub-smart-contract/MilkHubStorage.sol\":4437:4555  if(milkhubs[walletMilkHub].id == 0 ){... */\n      tag_105\n      jumpi\n        /* \"contracts/Actor/MilkHub-smart-contract/MilkHubStorage.sol\":4495:4499  true */\n      0x01\n        /* \"contracts/Actor/MilkHub-smart-contract/MilkHubStorage.sol\":4488:4499  return true */\n      swap2\n      pop\n      pop\n      jump(tag_88)\n        /* \"contracts/Actor/MilkHub-smart-contract/MilkHubStorage.sol\":4437:4555  if(milkhubs[walletMilkHub].id == 0 ){... */\n    tag_105:\n        /* \"contracts/Actor/MilkHub-smart-contract/MilkHubStorage.sol\":4538:4543  false */\n      0x00\n        /* \"contracts/Actor/MilkHub-smart-contract/MilkHubStorage.sol\":4531:4543  return false */\n      swap2\n      pop\n      pop\n        /* \"contracts/Actor/MilkHub-smart-contract/MilkHubStorage.sol\":3894:4562  function deleteUser(address walletMilkHub) external returns(bool value){... */\n    tag_88:\n      swap2\n      swap1\n      pop\n      jump\t// out\n        /* \"contracts/Actor/MilkHub-smart-contract/MilkHubStorage.sol\":5217:5411  function getId(address walletMilkHub) external view  returns(uint256){... */\n    tag_33:\n        /* \"contracts/Actor/MilkHub-smart-contract/MilkHubStorage.sol\":5278:5285  uint256 */\n      0x00\n        /* \"contracts/Actor/MilkHub-smart-contract/MilkHubStorage.sol\":5305:5309  this */\n      address\n        /* \"contracts/Actor/MilkHub-smart-contract/MilkHubStorage.sol\":5305:5323  this.isUserPresent */\n      0xffffffffffffffffffffffffffffffffffffffff\n      and\n      0xa5578807\n        /* \"contracts/Actor/MilkHub-smart-contract/MilkHubStorage.sol\":5324:5337  walletMilkHub */\n      dup4\n        /* \"contracts/Actor/MilkHub-smart-contract/MilkHubStorage.sol\":5305:5338  this.isUserPresent(walletMilkHub) */\n      mload(0x40)\n      dup3\n      0xffffffff\n      and\n      0xe0\n      shl\n      dup2\n      mstore\n      0x04\n      add\n      tag_108\n      swap2\n      swap1\n      tag_77\n      jump\t// in\n    tag_108:\n      0x20\n      mload(0x40)\n      dup1\n      dup4\n      sub\n      dup2\n      dup7\n      gas\n      staticcall\n      iszero\n      dup1\n      iszero\n      tag_110\n      jumpi\n      returndatasize\n      0x00\n      dup1\n      returndatacopy\n      revert(0x00, returndatasize)\n    tag_110:\n      pop\n      pop\n      pop\n      pop\n      mload(0x40)\n      returndatasize\n      not(0x1f)\n      0x1f\n      dup3\n      add\n      and\n      dup3\n      add\n      dup1\n      0x40\n      mstore\n      pop\n      dup2\n      add\n      swap1\n      tag_111\n      swap2\n      swap1\n      tag_81\n      jump\t// in\n    tag_111:\n        /* \"contracts/Actor/MilkHub-smart-contract/MilkHubStorage.sol\":5297:5357  require(this.isUserPresent(walletMilkHub),\"User Not Found!\") */\n      tag_112\n      jumpi\n      mload(0x40)\n      0x08c379a000000000000000000000000000000000000000000000000000000000\n      dup2\n      mstore\n      0x04\n      add\n      tag_113\n      swap1\n      tag_84\n      jump\t// in\n    tag_113:\n      mload(0x40)\n      dup1\n      swap2\n      sub\n      swap1\n      revert\n    tag_112:\n        /* \"contracts/Actor/MilkHub-smart-contract/MilkHubStorage.sol\":5377:5385  milkhubs */\n      0x01\n        /* \"contracts/Actor/MilkHub-smart-contract/MilkHubStorage.sol\":5377:5400  milkhubs[walletMilkHub] */\n      0x00\n        /* \"contracts/Actor/MilkHub-smart-contract/MilkHubStorage.sol\":5386:5399  walletMilkHub */\n      dup4\n        /* \"contracts/Actor/MilkHub-smart-contract/MilkHubStorage.sol\":5377:5400  milkhubs[walletMilkHub] */\n      0xffffffffffffffffffffffffffffffffffffffff\n      and\n      0xffffffffffffffffffffffffffffffffffffffff\n      and\n      dup2\n      mstore\n      0x20\n      add\n      swap1\n      dup2\n      mstore\n      0x20\n      add\n      0x00\n      keccak256\n        /* \"contracts/Actor/MilkHub-smart-contract/MilkHubStorage.sol\":5377:5403  milkhubs[walletMilkHub].id */\n      0x00\n      add\n      sload\n        /* \"contracts/Actor/MilkHub-smart-contract/MilkHubStorage.sol\":5370:5403  return milkhubs[walletMilkHub].id */\n      swap1\n      pop\n        /* \"contracts/Actor/MilkHub-smart-contract/MilkHubStorage.sol\":5217:5411  function getId(address walletMilkHub) external view  returns(uint256){... */\n      swap2\n      swap1\n      pop\n      jump\t// out\n        /* \"contracts/Actor/MilkHub-smart-contract/MilkHubStorage.sol\":5542:5846  function getFullName(address walletMilkHub, uint256 _id) external view  returns(string memory){... */\n    tag_37:\n        /* \"contracts/Actor/MilkHub-smart-contract/MilkHubStorage.sol\":5622:5635  string memory */\n      0x60\n        /* \"contracts/Actor/MilkHub-smart-contract/MilkHubStorage.sol\":5655:5659  this */\n      address\n        /* \"contracts/Actor/MilkHub-smart-contract/MilkHubStorage.sol\":5655:5673  this.isUserPresent */\n      0xffffffffffffffffffffffffffffffffffffffff\n      and\n      0xa5578807\n        /* \"contracts/Actor/MilkHub-smart-contract/MilkHubStorage.sol\":5674:5687  walletMilkHub */\n      dup5\n        /* \"contracts/Actor/MilkHub-smart-contract/MilkHubStorage.sol\":5655:5688  this.isUserPresent(walletMilkHub) */\n      mload(0x40)\n      dup3\n      0xffffffff\n      and\n      0xe0\n      shl\n      dup2\n      mstore\n      0x04\n      add\n      tag_115\n      swap2\n      swap1\n      tag_77\n      jump\t// in\n    tag_115:\n      0x20\n      mload(0x40)\n      dup1\n      dup4\n      sub\n      dup2\n      dup7\n      gas\n      staticcall\n      iszero\n      dup1\n      iszero\n      tag_117\n      jumpi\n      returndatasize\n      0x00\n      dup1\n      returndatacopy\n      revert(0x00, returndatasize)\n    tag_117:\n      pop\n      pop\n      pop\n      pop\n      mload(0x40)\n      returndatasize\n      not(0x1f)\n      0x1f\n      dup3\n      add\n      and\n      dup3\n      add\n      dup1\n      0x40\n      mstore\n      pop\n      dup2\n      add\n      swap1\n      tag_118\n      swap2\n      swap1\n      tag_81\n      jump\t// in\n    tag_118:\n        /* \"contracts/Actor/MilkHub-smart-contract/MilkHubStorage.sol\":5647:5707  require(this.isUserPresent(walletMilkHub),\"User Not Found!\") */\n      tag_119\n      jumpi\n      mload(0x40)\n      0x08c379a000000000000000000000000000000000000000000000000000000000\n      dup2\n      mstore\n      0x04\n      add\n      tag_120\n      swap1\n      tag_84\n      jump\t// in\n    tag_120:\n      mload(0x40)\n      dup1\n      swap2\n      sub\n      swap1\n      revert\n    tag_119:\n        /* \"contracts/Actor/MilkHub-smart-contract/MilkHubStorage.sol\":5754:5757  _id */\n      dup2\n        /* \"contracts/Actor/MilkHub-smart-contract/MilkHubStorage.sol\":5726:5734  milkhubs */\n      0x01\n        /* \"contracts/Actor/MilkHub-smart-contract/MilkHubStorage.sol\":5726:5749  milkhubs[walletMilkHub] */\n      0x00\n        /* \"contracts/Actor/MilkHub-smart-contract/MilkHubStorage.sol\":5735:5748  walletMilkHub */\n      dup6\n        /* \"contracts/Actor/MilkHub-smart-contract/MilkHubStorage.sol\":5726:5749  milkhubs[walletMilkHub] */\n      0xffffffffffffffffffffffffffffffffffffffff\n      and\n      0xffffffffffffffffffffffffffffffffffffffff\n      and\n      dup2\n      mstore\n      0x20\n      add\n      swap1\n      dup2\n      mstore\n      0x20\n      add\n      0x00\n      keccak256\n        /* \"contracts/Actor/MilkHub-smart-contract/MilkHubStorage.sol\":5726:5752  milkhubs[walletMilkHub].id */\n      0x00\n      add\n      sload\n        /* \"contracts/Actor/MilkHub-smart-contract/MilkHubStorage.sol\":5726:5757  milkhubs[walletMilkHub].id==_id */\n      eq\n        /* \"contracts/Actor/MilkHub-smart-contract/MilkHubStorage.sol\":5718:5778  require(milkhubs[walletMilkHub].id==_id,\"Struct not Valid!\") */\n      tag_121\n      jumpi\n      mload(0x40)\n      0x08c379a000000000000000000000000000000000000000000000000000000000\n      dup2\n      mstore\n      0x04\n      add\n      tag_122\n      swap1\n      tag_87\n      jump\t// in\n    tag_122:\n      mload(0x40)\n      dup1\n      swap2\n      sub\n      swap1\n      revert\n    tag_121:\n        /* \"contracts/Actor/MilkHub-smart-contract/MilkHubStorage.sol\":5806:5814  milkhubs */\n      0x01\n        /* \"contracts/Actor/MilkHub-smart-contract/MilkHubStorage.sol\":5806:5829  milkhubs[walletMilkHub] */\n      0x00\n        /* \"contracts/Actor/MilkHub-smart-contract/MilkHubStorage.sol\":5815:5828  walletMilkHub */\n      dup5\n        /* \"contracts/Actor/MilkHub-smart-contract/MilkHubStorage.sol\":5806:5829  milkhubs[walletMilkHub] */\n      0xffffffffffffffffffffffffffffffffffffffff\n      and\n      0xffffffffffffffffffffffffffffffffffffffff\n      and\n      dup2\n      mstore\n      0x20\n      add\n      swap1\n      dup2\n      mstore\n      0x20\n      add\n      0x00\n      keccak256\n        /* \"contracts/Actor/MilkHub-smart-contract/MilkHubStorage.sol\":5806:5838  milkhubs[walletMilkHub].fullName */\n      0x01\n      add\n        /* \"contracts/Actor/MilkHub-smart-contract/MilkHubStorage.sol\":5799:5838  return milkhubs[walletMilkHub].fullName */\n      dup1\n      sload\n      tag_123\n      swap1\n      tag_124\n      jump\t// in\n    tag_123:\n      dup1\n      0x1f\n      add\n      0x20\n      dup1\n      swap2\n      div\n      mul\n      0x20\n      add\n      mload(0x40)\n      swap1\n      dup2\n      add\n      0x40\n      mstore\n      dup1\n      swap3\n      swap2\n      swap1\n      dup2\n      dup2\n      mstore\n      0x20\n      add\n      dup3\n      dup1\n      sload\n      tag_125\n      swap1\n      tag_124\n      jump\t// in\n    tag_125:\n      dup1\n      iszero\n      tag_126\n      jumpi\n      dup1\n      0x1f\n      lt\n      tag_127\n      jumpi\n      0x0100\n      dup1\n      dup4\n      sload\n      div\n      mul\n      dup4\n      mstore\n      swap2\n      0x20\n      add\n      swap2\n      jump(tag_126)\n    tag_127:\n      dup3\n      add\n      swap2\n      swap1\n      0x00\n      mstore\n      keccak256(0x00, 0x20)\n      swap1\n    tag_128:\n      dup2\n      sload\n      dup2\n      mstore\n      swap1\n      0x01\n      add\n      swap1\n      0x20\n      add\n      dup1\n      dup4\n      gt\n      tag_128\n      jumpi\n      dup3\n      swap1\n      sub\n      0x1f\n      and\n      dup3\n      add\n      swap2\n    tag_126:\n      pop\n      pop\n      pop\n      pop\n      pop\n      swap1\n      pop\n        /* \"contracts/Actor/MilkHub-smart-contract/MilkHubStorage.sol\":5542:5846  function getFullName(address walletMilkHub, uint256 _id) external view  returns(string memory){... */\n      swap3\n      swap2\n      pop\n      pop\n      jump\t// out\n        /* \"contracts/Actor/MilkHub-smart-contract/MilkHubStorage.sol\":3333:3801  function getUser(address walletMilkHub) external  view returns (uint256, string memory, string memory, string memory, uint256) {... */\n    tag_42:\n        /* \"contracts/Actor/MilkHub-smart-contract/MilkHubStorage.sol\":3397:3404  uint256 */\n      0x00\n        /* \"contracts/Actor/MilkHub-smart-contract/MilkHubStorage.sol\":3406:3419  string memory */\n      0x60\n        /* \"contracts/Actor/MilkHub-smart-contract/MilkHubStorage.sol\":3421:3434  string memory */\n      dup1\n        /* \"contracts/Actor/MilkHub-smart-contract/MilkHubStorage.sol\":3436:3449  string memory */\n      0x60\n        /* \"contracts/Actor/MilkHub-smart-contract/MilkHubStorage.sol\":3451:3458  uint256 */\n      0x00\n        /* \"contracts/Actor/MilkHub-smart-contract/MilkHubStorage.sol\":3557:3558  0 */\n      dup1\n        /* \"contracts/Actor/MilkHub-smart-contract/MilkHubStorage.sol\":3529:3537  milkhubs */\n      0x01\n        /* \"contracts/Actor/MilkHub-smart-contract/MilkHubStorage.sol\":3529:3552  milkhubs[walletMilkHub] */\n      0x00\n        /* \"contracts/Actor/MilkHub-smart-contract/MilkHubStorage.sol\":3538:3551  walletMilkHub */\n      dup9\n        /* \"contracts/Actor/MilkHub-smart-contract/MilkHubStorage.sol\":3529:3552  milkhubs[walletMilkHub] */\n      0xffffffffffffffffffffffffffffffffffffffff\n      and\n      0xffffffffffffffffffffffffffffffffffffffff\n      and\n      dup2\n      mstore\n      0x20\n      add\n      swap1\n      dup2\n      mstore\n      0x20\n      add\n      0x00\n      keccak256\n        /* \"contracts/Actor/MilkHub-smart-contract/MilkHubStorage.sol\":3529:3555  milkhubs[walletMilkHub].id */\n      0x00\n      add\n      sload\n        /* \"contracts/Actor/MilkHub-smart-contract/MilkHubStorage.sol\":3529:3558  milkhubs[walletMilkHub].id!=0 */\n      sub\n        /* \"contracts/Actor/MilkHub-smart-contract/MilkHubStorage.sol\":3520:3585  require( milkhubs[walletMilkHub].id!=0  , \"Utente non presente!\") */\n      tag_130\n      jumpi\n      mload(0x40)\n      0x08c379a000000000000000000000000000000000000000000000000000000000\n      dup2\n      mstore\n      0x04\n      add\n      tag_131\n      swap1\n      tag_70\n      jump\t// in\n    tag_131:\n      mload(0x40)\n      dup1\n      swap2\n      sub\n      swap1\n      revert\n    tag_130:\n        /* \"contracts/Actor/MilkHub-smart-contract/MilkHubStorage.sol\":3598:3620  MilkHub memory milkhub */\n      0x00\n        /* \"contracts/Actor/MilkHub-smart-contract/MilkHubStorage.sol\":3623:3631  milkhubs */\n      0x01\n        /* \"contracts/Actor/MilkHub-smart-contract/MilkHubStorage.sol\":3623:3646  milkhubs[walletMilkHub] */\n      0x00\n        /* \"contracts/Actor/MilkHub-smart-contract/MilkHubStorage.sol\":3632:3645  walletMilkHub */\n      dup9\n        /* \"contracts/Actor/MilkHub-smart-contract/MilkHubStorage.sol\":3623:3646  milkhubs[walletMilkHub] */\n      0xffffffffffffffffffffffffffffffffffffffff\n      and\n      0xffffffffffffffffffffffffffffffffffffffff\n      and\n      dup2\n      mstore\n      0x20\n      add\n      swap1\n      dup2\n      mstore\n      0x20\n      add\n      0x00\n      keccak256\n        /* \"contracts/Actor/MilkHub-smart-contract/MilkHubStorage.sol\":3598:3646  MilkHub memory milkhub = milkhubs[walletMilkHub] */\n      mload(0x40)\n      dup1\n      0xa0\n      add\n      0x40\n      mstore\n      swap1\n      dup2\n      0x00\n      dup3\n      add\n      sload\n      dup2\n      mstore\n      0x20\n      add\n      0x01\n      dup3\n      add\n      dup1\n      sload\n      tag_132\n      swap1\n      tag_124\n      jump\t// in\n    tag_132:\n      dup1\n      0x1f\n      add\n      0x20\n      dup1\n      swap2\n      div\n      mul\n      0x20\n      add\n      mload(0x40)\n      swap1\n      dup2\n      add\n      0x40\n      mstore\n      dup1\n      swap3\n      swap2\n      swap1\n      dup2\n      dup2\n      mstore\n      0x20\n      add\n      dup3\n      dup1\n      sload\n      tag_133\n      swap1\n      tag_124\n      jump\t// in\n    tag_133:\n      dup1\n      iszero\n      tag_134\n      jumpi\n      dup1\n      0x1f\n      lt\n      tag_135\n      jumpi\n      0x0100\n      dup1\n      dup4\n      sload\n      div\n      mul\n      dup4\n      mstore\n      swap2\n      0x20\n      add\n      swap2\n      jump(tag_134)\n    tag_135:\n      dup3\n      add\n      swap2\n      swap1\n      0x00\n      mstore\n      keccak256(0x00, 0x20)\n      swap1\n    tag_136:\n      dup2\n      sload\n      dup2\n      mstore\n      swap1\n      0x01\n      add\n      swap1\n      0x20\n      add\n      dup1\n      dup4\n      gt\n      tag_136\n      jumpi\n      dup3\n      swap1\n      sub\n      0x1f\n      and\n      dup3\n      add\n      swap2\n    tag_134:\n      pop\n      pop\n      pop\n      pop\n      pop\n      dup2\n      mstore\n      0x20\n      add\n      0x02\n      dup3\n      add\n      dup1\n      sload\n      tag_137\n      swap1\n      tag_124\n      jump\t// in\n    tag_137:\n      dup1\n      0x1f\n      add\n      0x20\n      dup1\n      swap2\n      div\n      mul\n      0x20\n      add\n      mload(0x40)\n      swap1\n      dup2\n      add\n      0x40\n      mstore\n      dup1\n      swap3\n      swap2\n      swap1\n      dup2\n      dup2\n      mstore\n      0x20\n      add\n      dup3\n      dup1\n      sload\n      tag_138\n      swap1\n      tag_124\n      jump\t// in\n    tag_138:\n      dup1\n      iszero\n      tag_139\n      jumpi\n      dup1\n      0x1f\n      lt\n      tag_140\n      jumpi\n      0x0100\n      dup1\n      dup4\n      sload\n      div\n      mul\n      dup4\n      mstore\n      swap2\n      0x20\n      add\n      swap2\n      jump(tag_139)\n    tag_140:\n      dup3\n      add\n      swap2\n      swap1\n      0x00\n      mstore\n      keccak256(0x00, 0x20)\n      swap1\n    tag_141:\n      dup2\n      sload\n      dup2\n      mstore\n      swap1\n      0x01\n      add\n      swap1\n      0x20\n      add\n      dup1\n      dup4\n      gt\n      tag_141\n      jumpi\n      dup3\n      swap1\n      sub\n      0x1f\n      and\n      dup3\n      add\n      swap2\n    tag_139:\n      pop\n      pop\n      pop\n      pop\n      pop\n      dup2\n      mstore\n      0x20\n      add\n      0x03\n      dup3\n      add\n      dup1\n      sload\n      tag_142\n      swap1\n      tag_124\n      jump\t// in\n    tag_142:\n      dup1\n      0x1f\n      add\n      0x20\n      dup1\n      swap2\n      div\n      mul\n      0x20\n      add\n      mload(0x40)\n      swap1\n      dup2\n      add\n      0x40\n      mstore\n      dup1\n      swap3\n      swap2\n      swap1\n      dup2\n      dup2\n      mstore\n      0x20\n      add\n      dup3\n      dup1\n      sload\n      tag_143\n      swap1\n      tag_124\n      jump\t// in\n    tag_143:\n      dup1\n      iszero\n      tag_144\n      jumpi\n      dup1\n      0x1f\n      lt\n      tag_145\n      jumpi\n      0x0100\n      dup1\n      dup4\n      sload\n      div\n      mul\n      dup4\n      mstore\n      swap2\n      0x20\n      add\n      swap2\n      jump(tag_144)\n    tag_145:\n      dup3\n      add\n      swap2\n      swap1\n      0x00\n      mstore\n      keccak256(0x00, 0x20)\n      swap1\n    tag_146:\n      dup2\n      sload\n      dup2\n      mstore\n      swap1\n      0x01\n      add\n      swap1\n      0x20\n      add\n      dup1\n      dup4\n      gt\n      tag_146\n      jumpi\n      dup3\n      swap1\n      sub\n      0x1f\n      and\n      dup3\n      add\n      swap2\n    tag_144:\n      pop\n      pop\n      pop\n      pop\n      pop\n      dup2\n      mstore\n      0x20\n      add\n      0x04\n      dup3\n      add\n      sload\n      dup2\n      mstore\n      pop\n      pop\n      swap1\n      pop\n        /* \"contracts/Actor/MilkHub-smart-contract/MilkHubStorage.sol\":3714:3721  milkhub */\n      dup1\n        /* \"contracts/Actor/MilkHub-smart-contract/MilkHubStorage.sol\":3714:3724  milkhub.id */\n      0x00\n      add\n      mload\n        /* \"contracts/Actor/MilkHub-smart-contract/MilkHubStorage.sol\":3726:3733  milkhub */\n      dup2\n        /* \"contracts/Actor/MilkHub-smart-contract/MilkHubStorage.sol\":3726:3742  milkhub.fullName */\n      0x20\n      add\n      mload\n        /* \"contracts/Actor/MilkHub-smart-contract/MilkHubStorage.sol\":3744:3751  milkhub */\n      dup3\n        /* \"contracts/Actor/MilkHub-smart-contract/MilkHubStorage.sol\":3744:3760  milkhub.password */\n      0x40\n      add\n      mload\n        /* \"contracts/Actor/MilkHub-smart-contract/MilkHubStorage.sol\":3762:3769  milkhub */\n      dup4\n        /* \"contracts/Actor/MilkHub-smart-contract/MilkHubStorage.sol\":3762:3775  milkhub.email */\n      0x60\n      add\n      mload\n        /* \"contracts/Actor/MilkHub-smart-contract/MilkHubStorage.sol\":3777:3784  milkhub */\n      dup5\n        /* \"contracts/Actor/MilkHub-smart-contract/MilkHubStorage.sol\":3777:3792  milkhub.balance */\n      0x80\n      add\n      mload\n        /* \"contracts/Actor/MilkHub-smart-contract/MilkHubStorage.sol\":3706:3793  return (milkhub.id, milkhub.fullName, milkhub.password, milkhub.email, milkhub.balance) */\n      swap6\n      pop\n      swap6\n      pop\n      swap6\n      pop\n      swap6\n      pop\n      swap6\n      pop\n      pop\n        /* \"contracts/Actor/MilkHub-smart-contract/MilkHubStorage.sol\":3333:3801  function getUser(address walletMilkHub) external  view returns (uint256, string memory, string memory, string memory, uint256) {... */\n      swap2\n      swap4\n      swap6\n      swap1\n      swap3\n      swap5\n      pop\n      jump\t// out\n        /* \"contracts/Actor/MilkHub-smart-contract/MilkHubStorage.sol\":6796:7133  function updateBalance(address walletMilkHub, uint256 _id, uint256 balance) external{... */\n    tag_48:\n        /* \"contracts/Actor/MilkHub-smart-contract/MilkHubStorage.sol\":6907:6908  0 */\n      0x00\n        /* \"contracts/Actor/MilkHub-smart-contract/MilkHubStorage.sol\":6899:6906  balance */\n      dup2\n        /* \"contracts/Actor/MilkHub-smart-contract/MilkHubStorage.sol\":6899:6908  balance>0 */\n      gt\n        /* \"contracts/Actor/MilkHub-smart-contract/MilkHubStorage.sol\":6891:6929  require(balance>0,\"Balance Not Valid\") */\n      tag_148\n      jumpi\n      mload(0x40)\n      0x08c379a000000000000000000000000000000000000000000000000000000000\n      dup2\n      mstore\n      0x04\n      add\n      tag_149\n      swap1\n      tag_150\n      jump\t// in\n    tag_149:\n      mload(0x40)\n      dup1\n      swap2\n      sub\n      swap1\n      revert\n    tag_148:\n        /* \"contracts/Actor/MilkHub-smart-contract/MilkHubStorage.sol\":6948:6952  this */\n      address\n        /* \"contracts/Actor/MilkHub-smart-contract/MilkHubStorage.sol\":6948:6966  this.isUserPresent */\n      0xffffffffffffffffffffffffffffffffffffffff\n      and\n      0xa5578807\n        /* \"contracts/Actor/MilkHub-smart-contract/MilkHubStorage.sol\":6967:6980  walletMilkHub */\n      dup5\n        /* \"contracts/Actor/MilkHub-smart-contract/MilkHubStorage.sol\":6948:6981  this.isUserPresent(walletMilkHub) */\n      mload(0x40)\n      dup3\n      0xffffffff\n      and\n      0xe0\n      shl\n      dup2\n      mstore\n      0x04\n      add\n      tag_151\n      swap2\n      swap1\n      tag_77\n      jump\t// in\n    tag_151:\n      0x20\n      mload(0x40)\n      dup1\n      dup4\n      sub\n      dup2\n      dup7\n      gas\n      staticcall\n      iszero\n      dup1\n      iszero\n      tag_153\n      jumpi\n      returndatasize\n      0x00\n      dup1\n      returndatacopy\n      revert(0x00, returndatasize)\n    tag_153:\n      pop\n      pop\n      pop\n      pop\n      mload(0x40)\n      returndatasize\n      not(0x1f)\n      0x1f\n      dup3\n      add\n      and\n      dup3\n      add\n      dup1\n      0x40\n      mstore\n      pop\n      dup2\n      add\n      swap1\n      tag_154\n      swap2\n      swap1\n      tag_81\n      jump\t// in\n    tag_154:\n        /* \"contracts/Actor/MilkHub-smart-contract/MilkHubStorage.sol\":6940:7000  require(this.isUserPresent(walletMilkHub),\"User Not Found!\") */\n      tag_155\n      jumpi\n      mload(0x40)\n      0x08c379a000000000000000000000000000000000000000000000000000000000\n      dup2\n      mstore\n      0x04\n      add\n      tag_156\n      swap1\n      tag_84\n      jump\t// in\n    tag_156:\n      mload(0x40)\n      dup1\n      swap2\n      sub\n      swap1\n      revert\n    tag_155:\n        /* \"contracts/Actor/MilkHub-smart-contract/MilkHubStorage.sol\":7047:7050  _id */\n      dup2\n        /* \"contracts/Actor/MilkHub-smart-contract/MilkHubStorage.sol\":7019:7027  milkhubs */\n      0x01\n        /* \"contracts/Actor/MilkHub-smart-contract/MilkHubStorage.sol\":7019:7042  milkhubs[walletMilkHub] */\n      0x00\n        /* \"contracts/Actor/MilkHub-smart-contract/MilkHubStorage.sol\":7028:7041  walletMilkHub */\n      dup6\n        /* \"contracts/Actor/MilkHub-smart-contract/MilkHubStorage.sol\":7019:7042  milkhubs[walletMilkHub] */\n      0xffffffffffffffffffffffffffffffffffffffff\n      and\n      0xffffffffffffffffffffffffffffffffffffffff\n      and\n      dup2\n      mstore\n      0x20\n      add\n      swap1\n      dup2\n      mstore\n      0x20\n      add\n      0x00\n      keccak256\n        /* \"contracts/Actor/MilkHub-smart-contract/MilkHubStorage.sol\":7019:7045  milkhubs[walletMilkHub].id */\n      0x00\n      add\n      sload\n        /* \"contracts/Actor/MilkHub-smart-contract/MilkHubStorage.sol\":7019:7050  milkhubs[walletMilkHub].id==_id */\n      eq\n        /* \"contracts/Actor/MilkHub-smart-contract/MilkHubStorage.sol\":7011:7071  require(milkhubs[walletMilkHub].id==_id,\"Struct not Valid!\") */\n      tag_157\n      jumpi\n      mload(0x40)\n      0x08c379a000000000000000000000000000000000000000000000000000000000\n      dup2\n      mstore\n      0x04\n      add\n      tag_158\n      swap1\n      tag_87\n      jump\t// in\n    tag_158:\n      mload(0x40)\n      dup1\n      swap2\n      sub\n      swap1\n      revert\n    tag_157:\n        /* \"contracts/Actor/MilkHub-smart-contract/MilkHubStorage.sol\":7118:7125  balance */\n      dup1\n        /* \"contracts/Actor/MilkHub-smart-contract/MilkHubStorage.sol\":7084:7092  milkhubs */\n      0x01\n        /* \"contracts/Actor/MilkHub-smart-contract/MilkHubStorage.sol\":7084:7107  milkhubs[walletMilkHub] */\n      0x00\n        /* \"contracts/Actor/MilkHub-smart-contract/MilkHubStorage.sol\":7093:7106  walletMilkHub */\n      dup6\n        /* \"contracts/Actor/MilkHub-smart-contract/MilkHubStorage.sol\":7084:7107  milkhubs[walletMilkHub] */\n      0xffffffffffffffffffffffffffffffffffffffff\n      and\n      0xffffffffffffffffffffffffffffffffffffffff\n      and\n      dup2\n      mstore\n      0x20\n      add\n      swap1\n      dup2\n      mstore\n      0x20\n      add\n      0x00\n      keccak256\n        /* \"contracts/Actor/MilkHub-smart-contract/MilkHubStorage.sol\":7084:7115  milkhubs[walletMilkHub].balance */\n      0x04\n      add\n        /* \"contracts/Actor/MilkHub-smart-contract/MilkHubStorage.sol\":7084:7125  milkhubs[walletMilkHub].balance = balance */\n      dup2\n      swap1\n      sstore\n      pop\n        /* \"contracts/Actor/MilkHub-smart-contract/MilkHubStorage.sol\":6796:7133  function updateBalance(address walletMilkHub, uint256 _id, uint256 balance) external{... */\n      pop\n      pop\n      pop\n      jump\t// out\n        /* \"contracts/Actor/MilkHub-smart-contract/MilkHubStorage.sol\":4734:4958  function isUserPresent(address walletMilkHub) external view returns(bool){... */\n    tag_51:\n        /* \"contracts/Actor/MilkHub-smart-contract/MilkHubStorage.sol\":4802:4806  bool */\n      0x00\n        /* \"contracts/Actor/MilkHub-smart-contract/MilkHubStorage.sol\":4859:4860  0 */\n      dup1\n        /* \"contracts/Actor/MilkHub-smart-contract/MilkHubStorage.sol\":4826:4861  address(walletMilkHub)!= address(0) */\n      0xffffffffffffffffffffffffffffffffffffffff\n      and\n        /* \"contracts/Actor/MilkHub-smart-contract/MilkHubStorage.sol\":4834:4847  walletMilkHub */\n      dup3\n        /* \"contracts/Actor/MilkHub-smart-contract/MilkHubStorage.sol\":4826:4861  address(walletMilkHub)!= address(0) */\n      0xffffffffffffffffffffffffffffffffffffffff\n      and\n      sub\n        /* \"contracts/Actor/MilkHub-smart-contract/MilkHubStorage.sol\":4818:4893  require(address(walletMilkHub)!= address(0), \"Address MilkHub non valido!\") */\n      tag_160\n      jumpi\n      mload(0x40)\n      0x08c379a000000000000000000000000000000000000000000000000000000000\n      dup2\n      mstore\n      0x04\n      add\n      tag_161\n      swap1\n      tag_162\n      jump\t// in\n    tag_161:\n      mload(0x40)\n      dup1\n      swap2\n      sub\n      swap1\n      revert\n    tag_160:\n        /* \"contracts/Actor/MilkHub-smart-contract/MilkHubStorage.sol\":4949:4950  0 */\n      0x00\n        /* \"contracts/Actor/MilkHub-smart-contract/MilkHubStorage.sol\":4921:4929  milkhubs */\n      0x01\n        /* \"contracts/Actor/MilkHub-smart-contract/MilkHubStorage.sol\":4921:4944  milkhubs[walletMilkHub] */\n      0x00\n        /* \"contracts/Actor/MilkHub-smart-contract/MilkHubStorage.sol\":4930:4943  walletMilkHub */\n      dup5\n        /* \"contracts/Actor/MilkHub-smart-contract/MilkHubStorage.sol\":4921:4944  milkhubs[walletMilkHub] */\n      0xffffffffffffffffffffffffffffffffffffffff\n      and\n      0xffffffffffffffffffffffffffffffffffffffff\n      and\n      dup2\n      mstore\n      0x20\n      add\n      swap1\n      dup2\n      mstore\n      0x20\n      add\n      0x00\n      keccak256\n        /* \"contracts/Actor/MilkHub-smart-contract/MilkHubStorage.sol\":4921:4947  milkhubs[walletMilkHub].id */\n      0x00\n      add\n      sload\n        /* \"contracts/Actor/MilkHub-smart-contract/MilkHubStorage.sol\":4921:4950  milkhubs[walletMilkHub].id!=0 */\n      eq\n      iszero\n        /* \"contracts/Actor/MilkHub-smart-contract/MilkHubStorage.sol\":4914:4950  return milkhubs[walletMilkHub].id!=0 */\n      swap1\n      pop\n        /* \"contracts/Actor/MilkHub-smart-contract/MilkHubStorage.sol\":4734:4958  function isUserPresent(address walletMilkHub) external view returns(bool){... */\n      swap2\n      swap1\n      pop\n      jump\t// out\n        /* \"contracts/Actor/MilkHub-smart-contract/MilkHubStorage.sol\":834:2058  function addUser(string memory _fullName, string memory _password,string memory _email, address walletMilkHub) external {... */\n    tag_56:\n        /* \"contracts/Actor/MilkHub-smart-contract/MilkHubStorage.sol\":1090:1100  MilkHubOrg */\n      0x00\n      dup1\n      sload\n      swap1\n      0x0100\n      exp\n      swap1\n      div\n      0xffffffffffffffffffffffffffffffffffffffff\n      and\n        /* \"contracts/Actor/MilkHub-smart-contract/MilkHubStorage.sol\":1073:1100  walletMilkHub != MilkHubOrg */\n      0xffffffffffffffffffffffffffffffffffffffff\n      and\n        /* \"contracts/Actor/MilkHub-smart-contract/MilkHubStorage.sol\":1073:1086  walletMilkHub */\n      dup2\n        /* \"contracts/Actor/MilkHub-smart-contract/MilkHubStorage.sol\":1073:1100  walletMilkHub != MilkHubOrg */\n      0xffffffffffffffffffffffffffffffffffffffff\n      and\n      sub\n        /* \"contracts/Actor/MilkHub-smart-contract/MilkHubStorage.sol\":1065:1123  require(walletMilkHub != MilkHubOrg,\"Address non Valido!\") */\n      tag_164\n      jumpi\n      mload(0x40)\n      0x08c379a000000000000000000000000000000000000000000000000000000000\n      dup2\n      mstore\n      0x04\n      add\n      tag_165\n      swap1\n      tag_67\n      jump\t// in\n    tag_165:\n      mload(0x40)\n      dup1\n      swap2\n      sub\n      swap1\n      revert\n    tag_164:\n        /* \"contracts/Actor/MilkHub-smart-contract/MilkHubStorage.sol\":1202:1216  bytes32 idHash */\n      0x00\n        /* \"contracts/Actor/MilkHub-smart-contract/MilkHubStorage.sol\":1246:1255  _fullName */\n      dup5\n        /* \"contracts/Actor/MilkHub-smart-contract/MilkHubStorage.sol\":1257:1266  _password */\n      dup5\n        /* \"contracts/Actor/MilkHub-smart-contract/MilkHubStorage.sol\":1268:1274  _email */\n      dup5\n        /* \"contracts/Actor/MilkHub-smart-contract/MilkHubStorage.sol\":1276:1289  walletMilkHub */\n      dup5\n        /* \"contracts/Actor/MilkHub-smart-contract/MilkHubStorage.sol\":1229:1290  abi.encodePacked(_fullName, _password, _email, walletMilkHub) */\n      add(0x20, mload(0x40))\n      tag_166\n      swap5\n      swap4\n      swap3\n      swap2\n      swap1\n      tag_167\n      jump\t// in\n    tag_166:\n      mload(0x40)\n      0x20\n      dup2\n      dup4\n      sub\n      sub\n      dup2\n      mstore\n      swap1\n      0x40\n      mstore\n        /* \"contracts/Actor/MilkHub-smart-contract/MilkHubStorage.sol\":1219:1291  keccak256(abi.encodePacked(_fullName, _password, _email, walletMilkHub)) */\n      dup1\n      mload\n      swap1\n      0x20\n      add\n      keccak256\n        /* \"contracts/Actor/MilkHub-smart-contract/MilkHubStorage.sol\":1202:1291  bytes32 idHash = keccak256(abi.encodePacked(_fullName, _password, _email, walletMilkHub)) */\n      swap1\n      pop\n        /* \"contracts/Actor/MilkHub-smart-contract/MilkHubStorage.sol\":1302:1323  uint256 lastIdMilkHub */\n      0x00\n        /* \"contracts/Actor/MilkHub-smart-contract/MilkHubStorage.sol\":1334:1340  idHash */\n      dup2\n        /* \"contracts/Actor/MilkHub-smart-contract/MilkHubStorage.sol\":1326:1341  uint256(idHash) */\n      0x00\n      shr\n        /* \"contracts/Actor/MilkHub-smart-contract/MilkHubStorage.sol\":1302:1341  uint256 lastIdMilkHub = uint256(idHash) */\n      swap1\n      pop\n        /* \"contracts/Actor/MilkHub-smart-contract/MilkHubStorage.sol\":1392:1393  0 */\n      0x00\n        /* \"contracts/Actor/MilkHub-smart-contract/MilkHubStorage.sol\":1362:1370  milkhubs */\n      0x01\n        /* \"contracts/Actor/MilkHub-smart-contract/MilkHubStorage.sol\":1362:1385  milkhubs[walletMilkHub] */\n      0x00\n        /* \"contracts/Actor/MilkHub-smart-contract/MilkHubStorage.sol\":1371:1384  walletMilkHub */\n      dup6\n        /* \"contracts/Actor/MilkHub-smart-contract/MilkHubStorage.sol\":1362:1385  milkhubs[walletMilkHub] */\n      0xffffffffffffffffffffffffffffffffffffffff\n      and\n      0xffffffffffffffffffffffffffffffffffffffff\n      and\n      dup2\n      mstore\n      0x20\n      add\n      swap1\n      dup2\n      mstore\n      0x20\n      add\n      0x00\n      keccak256\n        /* \"contracts/Actor/MilkHub-smart-contract/MilkHubStorage.sol\":1362:1388  milkhubs[walletMilkHub].id */\n      0x00\n      add\n      sload\n        /* \"contracts/Actor/MilkHub-smart-contract/MilkHubStorage.sol\":1362:1393  milkhubs[walletMilkHub].id == 0 */\n      eq\n        /* \"contracts/Actor/MilkHub-smart-contract/MilkHubStorage.sol\":1354:1424  require(milkhubs[walletMilkHub].id == 0, \"MilkHub already registered\") */\n      tag_168\n      jumpi\n      mload(0x40)\n      0x08c379a000000000000000000000000000000000000000000000000000000000\n      dup2\n      mstore\n      0x04\n      add\n      tag_169\n      swap1\n      tag_170\n      jump\t// in\n    tag_169:\n      mload(0x40)\n      dup1\n      swap2\n      sub\n      swap1\n      revert\n    tag_168:\n        /* \"contracts/Actor/MilkHub-smart-contract/MilkHubStorage.sol\":1469:1470  0 */\n      0x00\n        /* \"contracts/Actor/MilkHub-smart-contract/MilkHubStorage.sol\":1449:1458  _fullName */\n      dup7\n        /* \"contracts/Actor/MilkHub-smart-contract/MilkHubStorage.sol\":1443:1466  bytes(_fullName).length */\n      mload\n        /* \"contracts/Actor/MilkHub-smart-contract/MilkHubStorage.sol\":1443:1470  bytes(_fullName).length > 0 */\n      gt\n        /* \"contracts/Actor/MilkHub-smart-contract/MilkHubStorage.sol\":1435:1500  require(bytes(_fullName).length > 0, \"Full name cannot be empty\") */\n      tag_171\n      jumpi\n      mload(0x40)\n      0x08c379a000000000000000000000000000000000000000000000000000000000\n      dup2\n      mstore\n      0x04\n      add\n      tag_172\n      swap1\n      tag_173\n      jump\t// in\n    tag_172:\n      mload(0x40)\n      dup1\n      swap2\n      sub\n      swap1\n      revert\n    tag_171:\n        /* \"contracts/Actor/MilkHub-smart-contract/MilkHubStorage.sol\":1545:1546  0 */\n      0x00\n        /* \"contracts/Actor/MilkHub-smart-contract/MilkHubStorage.sol\":1525:1534  _password */\n      dup6\n        /* \"contracts/Actor/MilkHub-smart-contract/MilkHubStorage.sol\":1519:1542  bytes(_password).length */\n      mload\n        /* \"contracts/Actor/MilkHub-smart-contract/MilkHubStorage.sol\":1519:1546  bytes(_password).length > 0 */\n      gt\n        /* \"contracts/Actor/MilkHub-smart-contract/MilkHubStorage.sol\":1511:1575  require(bytes(_password).length > 0, \"Password cannot be empty\") */\n      tag_174\n      jumpi\n      mload(0x40)\n      0x08c379a000000000000000000000000000000000000000000000000000000000\n      dup2\n      mstore\n      0x04\n      add\n      tag_175\n      swap1\n      tag_176\n      jump\t// in\n    tag_175:\n      mload(0x40)\n      dup1\n      swap2\n      sub\n      swap1\n      revert\n    tag_174:\n        /* \"contracts/Actor/MilkHub-smart-contract/MilkHubStorage.sol\":1617:1618  0 */\n      0x00\n        /* \"contracts/Actor/MilkHub-smart-contract/MilkHubStorage.sol\":1600:1606  _email */\n      dup5\n        /* \"contracts/Actor/MilkHub-smart-contract/MilkHubStorage.sol\":1594:1614  bytes(_email).length */\n      mload\n        /* \"contracts/Actor/MilkHub-smart-contract/MilkHubStorage.sol\":1594:1618  bytes(_email).length > 0 */\n      gt\n        /* \"contracts/Actor/MilkHub-smart-contract/MilkHubStorage.sol\":1586:1644  require(bytes(_email).length > 0, \"Email cannot be empty\") */\n      tag_177\n      jumpi\n      mload(0x40)\n      0x08c379a000000000000000000000000000000000000000000000000000000000\n      dup2\n      mstore\n      0x04\n      add\n      tag_178\n      swap1\n      tag_179\n      jump\t// in\n    tag_178:\n      mload(0x40)\n      dup1\n      swap2\n      sub\n      swap1\n      revert\n    tag_177:\n        /* \"contracts/Actor/MilkHub-smart-contract/MilkHubStorage.sol\":1720:1745  MilkHub memory newMilkHub */\n      0x00\n        /* \"contracts/Actor/MilkHub-smart-contract/MilkHubStorage.sol\":1748:1923  MilkHub({... */\n      mload(0x40)\n      dup1\n      0xa0\n      add\n      0x40\n      mstore\n      dup1\n        /* \"contracts/Actor/MilkHub-smart-contract/MilkHubStorage.sol\":1775:1788  lastIdMilkHub */\n      dup4\n        /* \"contracts/Actor/MilkHub-smart-contract/MilkHubStorage.sol\":1748:1923  MilkHub({... */\n      dup2\n      mstore\n      0x20\n      add\n        /* \"contracts/Actor/MilkHub-smart-contract/MilkHubStorage.sol\":1813:1822  _fullName */\n      dup9\n        /* \"contracts/Actor/MilkHub-smart-contract/MilkHubStorage.sol\":1748:1923  MilkHub({... */\n      dup2\n      mstore\n      0x20\n      add\n        /* \"contracts/Actor/MilkHub-smart-contract/MilkHubStorage.sol\":1847:1856  _password */\n      dup8\n        /* \"contracts/Actor/MilkHub-smart-contract/MilkHubStorage.sol\":1748:1923  MilkHub({... */\n      dup2\n      mstore\n      0x20\n      add\n        /* \"contracts/Actor/MilkHub-smart-contract/MilkHubStorage.sol\":1878:1884  _email */\n      dup7\n        /* \"contracts/Actor/MilkHub-smart-contract/MilkHubStorage.sol\":1748:1923  MilkHub({... */\n      dup2\n      mstore\n      0x20\n      add\n        /* \"contracts/Actor/MilkHub-smart-contract/MilkHubStorage.sol\":1908:1911  100 */\n      0x64\n        /* \"contracts/Actor/MilkHub-smart-contract/MilkHubStorage.sol\":1748:1923  MilkHub({... */\n      dup2\n      mstore\n      pop\n        /* \"contracts/Actor/MilkHub-smart-contract/MilkHubStorage.sol\":1720:1923  MilkHub memory newMilkHub = MilkHub({... */\n      swap1\n      pop\n        /* \"contracts/Actor/MilkHub-smart-contract/MilkHubStorage.sol\":2040:2050  newMilkHub */\n      dup1\n        /* \"contracts/Actor/MilkHub-smart-contract/MilkHubStorage.sol\":2014:2022  milkhubs */\n      0x01\n        /* \"contracts/Actor/MilkHub-smart-contract/MilkHubStorage.sol\":2014:2037  milkhubs[walletMilkHub] */\n      0x00\n        /* \"contracts/Actor/MilkHub-smart-contract/MilkHubStorage.sol\":2023:2036  walletMilkHub */\n      dup7\n        /* \"contracts/Actor/MilkHub-smart-contract/MilkHubStorage.sol\":2014:2037  milkhubs[walletMilkHub] */\n      0xffffffffffffffffffffffffffffffffffffffff\n      and\n      0xffffffffffffffffffffffffffffffffffffffff\n      and\n      dup2\n      mstore\n      0x20\n      add\n      swap1\n      dup2\n      mstore\n      0x20\n      add\n      0x00\n      keccak256\n        /* \"contracts/Actor/MilkHub-smart-contract/MilkHubStorage.sol\":2014:2050  milkhubs[walletMilkHub] = newMilkHub */\n      0x00\n      dup3\n      add\n      mload\n      dup2\n      0x00\n      add\n      sstore\n      0x20\n      dup3\n      add\n      mload\n      dup2\n      0x01\n      add\n      swap1\n      dup2\n      tag_180\n      swap2\n      swap1\n      tag_181\n      jump\t// in\n    tag_180:\n      pop\n      0x40\n      dup3\n      add\n      mload\n      dup2\n      0x02\n      add\n      swap1\n      dup2\n      tag_182\n      swap2\n      swap1\n      tag_181\n      jump\t// in\n    tag_182:\n      pop\n      0x60\n      dup3\n      add\n      mload\n      dup2\n      0x03\n      add\n      swap1\n      dup2\n      tag_183\n      swap2\n      swap1\n      tag_181\n      jump\t// in\n    tag_183:\n      pop\n      0x80\n      dup3\n      add\n      mload\n      dup2\n      0x04\n      add\n      sstore\n      swap1\n      pop\n      pop\n        /* \"contracts/Actor/MilkHub-smart-contract/MilkHubStorage.sol\":954:2058  {... */\n      pop\n      pop\n      pop\n        /* \"contracts/Actor/MilkHub-smart-contract/MilkHubStorage.sol\":834:2058  function addUser(string memory _fullName, string memory _password,string memory _email, address walletMilkHub) external {... */\n      pop\n      pop\n      pop\n      pop\n      jump\t// out\n        /* \"contracts/Actor/MilkHub-smart-contract/MilkHubStorage.sol\":5972:6270  function getEmail(address walletMilkHub, uint256 _id) external view  returns(string memory){... */\n    tag_59:\n        /* \"contracts/Actor/MilkHub-smart-contract/MilkHubStorage.sol\":6049:6062  string memory */\n      0x60\n        /* \"contracts/Actor/MilkHub-smart-contract/MilkHubStorage.sol\":6082:6086  this */\n      address\n        /* \"contracts/Actor/MilkHub-smart-contract/MilkHubStorage.sol\":6082:6100  this.isUserPresent */\n      0xffffffffffffffffffffffffffffffffffffffff\n      and\n      0xa5578807\n        /* \"contracts/Actor/MilkHub-smart-contract/MilkHubStorage.sol\":6101:6114  walletMilkHub */\n      dup5\n        /* \"contracts/Actor/MilkHub-smart-contract/MilkHubStorage.sol\":6082:6115  this.isUserPresent(walletMilkHub) */\n      mload(0x40)\n      dup3\n      0xffffffff\n      and\n      0xe0\n      shl\n      dup2\n      mstore\n      0x04\n      add\n      tag_185\n      swap2\n      swap1\n      tag_77\n      jump\t// in\n    tag_185:\n      0x20\n      mload(0x40)\n      dup1\n      dup4\n      sub\n      dup2\n      dup7\n      gas\n      staticcall\n      iszero\n      dup1\n      iszero\n      tag_187\n      jumpi\n      returndatasize\n      0x00\n      dup1\n      returndatacopy\n      revert(0x00, returndatasize)\n    tag_187:\n      pop\n      pop\n      pop\n      pop\n      mload(0x40)\n      returndatasize\n      not(0x1f)\n      0x1f\n      dup3\n      add\n      and\n      dup3\n      add\n      dup1\n      0x40\n      mstore\n      pop\n      dup2\n      add\n      swap1\n      tag_188\n      swap2\n      swap1\n      tag_81\n      jump\t// in\n    tag_188:\n        /* \"contracts/Actor/MilkHub-smart-contract/MilkHubStorage.sol\":6074:6134  require(this.isUserPresent(walletMilkHub),\"User Not Found!\") */\n      tag_189\n      jumpi\n      mload(0x40)\n      0x08c379a000000000000000000000000000000000000000000000000000000000\n      dup2\n      mstore\n      0x04\n      add\n      tag_190\n      swap1\n      tag_84\n      jump\t// in\n    tag_190:\n      mload(0x40)\n      dup1\n      swap2\n      sub\n      swap1\n      revert\n    tag_189:\n        /* \"contracts/Actor/MilkHub-smart-contract/MilkHubStorage.sol\":6181:6184  _id */\n      dup2\n        /* \"contracts/Actor/MilkHub-smart-contract/MilkHubStorage.sol\":6153:6161  milkhubs */\n      0x01\n        /* \"contracts/Actor/MilkHub-smart-contract/MilkHubStorage.sol\":6153:6176  milkhubs[walletMilkHub] */\n      0x00\n        /* \"contracts/Actor/MilkHub-smart-contract/MilkHubStorage.sol\":6162:6175  walletMilkHub */\n      dup6\n        /* \"contracts/Actor/MilkHub-smart-contract/MilkHubStorage.sol\":6153:6176  milkhubs[walletMilkHub] */\n      0xffffffffffffffffffffffffffffffffffffffff\n      and\n      0xffffffffffffffffffffffffffffffffffffffff\n      and\n      dup2\n      mstore\n      0x20\n      add\n      swap1\n      dup2\n      mstore\n      0x20\n      add\n      0x00\n      keccak256\n        /* \"contracts/Actor/MilkHub-smart-contract/MilkHubStorage.sol\":6153:6179  milkhubs[walletMilkHub].id */\n      0x00\n      add\n      sload\n        /* \"contracts/Actor/MilkHub-smart-contract/MilkHubStorage.sol\":6153:6184  milkhubs[walletMilkHub].id==_id */\n      eq\n        /* \"contracts/Actor/MilkHub-smart-contract/MilkHubStorage.sol\":6145:6205  require(milkhubs[walletMilkHub].id==_id,\"Struct not Valid!\") */\n      tag_191\n      jumpi\n      mload(0x40)\n      0x08c379a000000000000000000000000000000000000000000000000000000000\n      dup2\n      mstore\n      0x04\n      add\n      tag_192\n      swap1\n      tag_87\n      jump\t// in\n    tag_192:\n      mload(0x40)\n      dup1\n      swap2\n      sub\n      swap1\n      revert\n    tag_191:\n        /* \"contracts/Actor/MilkHub-smart-contract/MilkHubStorage.sol\":6233:6241  milkhubs */\n      0x01\n        /* \"contracts/Actor/MilkHub-smart-contract/MilkHubStorage.sol\":6233:6256  milkhubs[walletMilkHub] */\n      0x00\n        /* \"contracts/Actor/MilkHub-smart-contract/MilkHubStorage.sol\":6242:6255  walletMilkHub */\n      dup5\n        /* \"contracts/Actor/MilkHub-smart-contract/MilkHubStorage.sol\":6233:6256  milkhubs[walletMilkHub] */\n      0xffffffffffffffffffffffffffffffffffffffff\n      and\n      0xffffffffffffffffffffffffffffffffffffffff\n      and\n      dup2\n      mstore\n      0x20\n      add\n      swap1\n      dup2\n      mstore\n      0x20\n      add\n      0x00\n      keccak256\n        /* \"contracts/Actor/MilkHub-smart-contract/MilkHubStorage.sol\":6233:6262  milkhubs[walletMilkHub].email */\n      0x03\n      add\n        /* \"contracts/Actor/MilkHub-smart-contract/MilkHubStorage.sol\":6226:6262  return milkhubs[walletMilkHub].email */\n      dup1\n      sload\n      tag_193\n      swap1\n      tag_124\n      jump\t// in\n    tag_193:\n      dup1\n      0x1f\n      add\n      0x20\n      dup1\n      swap2\n      div\n      mul\n      0x20\n      add\n      mload(0x40)\n      swap1\n      dup2\n      add\n      0x40\n      mstore\n      dup1\n      swap3\n      swap2\n      swap1\n      dup2\n      dup2\n      mstore\n      0x20\n      add\n      dup3\n      dup1\n      sload\n      tag_194\n      swap1\n      tag_124\n      jump\t// in\n    tag_194:\n      dup1\n      iszero\n      tag_195\n      jumpi\n      dup1\n      0x1f\n      lt\n      tag_196\n      jumpi\n      0x0100\n      dup1\n      dup4\n      sload\n      div\n      mul\n      dup4\n      mstore\n      swap2\n      0x20\n      add\n      swap2\n      jump(tag_195)\n    tag_196:\n      dup3\n      add\n      swap2\n      swap1\n      0x00\n      mstore\n      keccak256(0x00, 0x20)\n      swap1\n    tag_197:\n      dup2\n      sload\n      dup2\n      mstore\n      swap1\n      0x01\n      add\n      swap1\n      0x20\n      add\n      dup1\n      dup4\n      gt\n      tag_197\n      jumpi\n      dup3\n      swap1\n      sub\n      0x1f\n      and\n      dup3\n      add\n      swap2\n    tag_195:\n      pop\n      pop\n      pop\n      pop\n      pop\n      swap1\n      pop\n        /* \"contracts/Actor/MilkHub-smart-contract/MilkHubStorage.sol\":5972:6270  function getEmail(address walletMilkHub, uint256 _id) external view  returns(string memory){... */\n      swap3\n      swap2\n      pop\n      pop\n      jump\t// out\n    tag_102:\n      pop\n      dup1\n      sload\n      tag_198\n      swap1\n      tag_124\n      jump\t// in\n    tag_198:\n      0x00\n      dup3\n      sstore\n      dup1\n      0x1f\n      lt\n      tag_200\n      jumpi\n      pop\n      jump(tag_199)\n    tag_200:\n      0x1f\n      add\n      0x20\n      swap1\n      div\n      swap1\n      0x00\n      mstore\n      keccak256(0x00, 0x20)\n      swap1\n      dup2\n      add\n      swap1\n      tag_201\n      swap2\n      swap1\n      tag_202\n      jump\t// in\n    tag_201:\n    tag_199:\n      pop\n      jump\t// out\n    tag_202:\n    tag_203:\n      dup1\n      dup3\n      gt\n      iszero\n      tag_204\n      jumpi\n      0x00\n      dup2\n      0x00\n      swap1\n      sstore\n      pop\n      0x01\n      add\n      jump(tag_203)\n    tag_204:\n      pop\n      swap1\n      jump\t// out\n        /* \"#utility.yul\":7:82   */\n    tag_205:\n        /* \"#utility.yul\":40:46   */\n      0x00\n        /* \"#utility.yul\":73:75   */\n      0x40\n        /* \"#utility.yul\":67:76   */\n      mload\n        /* \"#utility.yul\":57:76   */\n      swap1\n      pop\n        /* \"#utility.yul\":7:82   */\n      swap1\n      jump\t// out\n        /* \"#utility.yul\":88:205   */\n    tag_206:\n        /* \"#utility.yul\":197:198   */\n      0x00\n        /* \"#utility.yul\":194:195   */\n      dup1\n        /* \"#utility.yul\":187:199   */\n      revert\n        /* \"#utility.yul\":211:328   */\n    tag_207:\n        /* \"#utility.yul\":320:321   */\n      0x00\n        /* \"#utility.yul\":317:318   */\n      dup1\n        /* \"#utility.yul\":310:322   */\n      revert\n        /* \"#utility.yul\":334:460   */\n    tag_208:\n        /* \"#utility.yul\":371:378   */\n      0x00\n        /* \"#utility.yul\":411:453   */\n      0xffffffffffffffffffffffffffffffffffffffff\n        /* \"#utility.yul\":404:409   */\n      dup3\n        /* \"#utility.yul\":400:454   */\n      and\n        /* \"#utility.yul\":389:454   */\n      swap1\n      pop\n        /* \"#utility.yul\":334:460   */\n      swap2\n      swap1\n      pop\n      jump\t// out\n        /* \"#utility.yul\":466:562   */\n    tag_209:\n        /* \"#utility.yul\":503:510   */\n      0x00\n        /* \"#utility.yul\":532:556   */\n      tag_290\n        /* \"#utility.yul\":550:555   */\n      dup3\n        /* \"#utility.yul\":532:556   */\n      tag_208\n      jump\t// in\n    tag_290:\n        /* \"#utility.yul\":521:556   */\n      swap1\n      pop\n        /* \"#utility.yul\":466:562   */\n      swap2\n      swap1\n      pop\n      jump\t// out\n        /* \"#utility.yul\":568:690   */\n    tag_210:\n        /* \"#utility.yul\":641:665   */\n      tag_292\n        /* \"#utility.yul\":659:664   */\n      dup2\n        /* \"#utility.yul\":641:665   */\n      tag_209\n      jump\t// in\n    tag_292:\n        /* \"#utility.yul\":634:639   */\n      dup2\n        /* \"#utility.yul\":631:666   */\n      eq\n        /* \"#utility.yul\":621:684   */\n      tag_293\n      jumpi\n        /* \"#utility.yul\":680:681   */\n      0x00\n        /* \"#utility.yul\":677:678   */\n      dup1\n        /* \"#utility.yul\":670:682   */\n      revert\n        /* \"#utility.yul\":621:684   */\n    tag_293:\n        /* \"#utility.yul\":568:690   */\n      pop\n      jump\t// out\n        /* \"#utility.yul\":696:835   */\n    tag_211:\n        /* \"#utility.yul\":742:747   */\n      0x00\n        /* \"#utility.yul\":780:786   */\n      dup2\n        /* \"#utility.yul\":767:787   */\n      calldataload\n        /* \"#utility.yul\":758:787   */\n      swap1\n      pop\n        /* \"#utility.yul\":796:829   */\n      tag_295\n        /* \"#utility.yul\":823:828   */\n      dup2\n        /* \"#utility.yul\":796:829   */\n      tag_210\n      jump\t// in\n    tag_295:\n        /* \"#utility.yul\":696:835   */\n      swap3\n      swap2\n      pop\n      pop\n      jump\t// out\n        /* \"#utility.yul\":841:958   */\n    tag_212:\n        /* \"#utility.yul\":950:951   */\n      0x00\n        /* \"#utility.yul\":947:948   */\n      dup1\n        /* \"#utility.yul\":940:952   */\n      revert\n        /* \"#utility.yul\":964:1081   */\n    tag_213:\n        /* \"#utility.yul\":1073:1074   */\n      0x00\n        /* \"#utility.yul\":1070:1071   */\n      dup1\n        /* \"#utility.yul\":1063:1075   */\n      revert\n        /* \"#utility.yul\":1087:1189   */\n    tag_214:\n        /* \"#utility.yul\":1128:1134   */\n      0x00\n        /* \"#utility.yul\":1179:1181   */\n      0x1f\n        /* \"#utility.yul\":1175:1182   */\n      not\n        /* \"#utility.yul\":1170:1172   */\n      0x1f\n        /* \"#utility.yul\":1163:1168   */\n      dup4\n        /* \"#utility.yul\":1159:1173   */\n      add\n        /* \"#utility.yul\":1155:1183   */\n      and\n        /* \"#utility.yul\":1145:1183   */\n      swap1\n      pop\n        /* \"#utility.yul\":1087:1189   */\n      swap2\n      swap1\n      pop\n      jump\t// out\n        /* \"#utility.yul\":1195:1375   */\n    tag_215:\n        /* \"#utility.yul\":1243:1320   */\n      0x4e487b7100000000000000000000000000000000000000000000000000000000\n        /* \"#utility.yul\":1240:1241   */\n      0x00\n        /* \"#utility.yul\":1233:1321   */\n      mstore\n        /* \"#utility.yul\":1340:1344   */\n      0x41\n        /* \"#utility.yul\":1337:1338   */\n      0x04\n        /* \"#utility.yul\":1330:1345   */\n      mstore\n        /* \"#utility.yul\":1364:1368   */\n      0x24\n        /* \"#utility.yul\":1361:1362   */\n      0x00\n        /* \"#utility.yul\":1354:1369   */\n      revert\n        /* \"#utility.yul\":1381:1662   */\n    tag_216:\n        /* \"#utility.yul\":1464:1491   */\n      tag_301\n        /* \"#utility.yul\":1486:1490   */\n      dup3\n        /* \"#utility.yul\":1464:1491   */\n      tag_214\n      jump\t// in\n    tag_301:\n        /* \"#utility.yul\":1456:1462   */\n      dup2\n        /* \"#utility.yul\":1452:1492   */\n      add\n        /* \"#utility.yul\":1594:1600   */\n      dup2\n        /* \"#utility.yul\":1582:1592   */\n      dup2\n        /* \"#utility.yul\":1579:1601   */\n      lt\n        /* \"#utility.yul\":1558:1576   */\n      0xffffffffffffffff\n        /* \"#utility.yul\":1546:1556   */\n      dup3\n        /* \"#utility.yul\":1543:1577   */\n      gt\n        /* \"#utility.yul\":1540:1602   */\n      or\n        /* \"#utility.yul\":1537:1625   */\n      iszero\n      tag_302\n      jumpi\n        /* \"#utility.yul\":1605:1623   */\n      tag_303\n      tag_215\n      jump\t// in\n    tag_303:\n        /* \"#utility.yul\":1537:1625   */\n    tag_302:\n        /* \"#utility.yul\":1645:1655   */\n      dup1\n        /* \"#utility.yul\":1641:1643   */\n      0x40\n        /* \"#utility.yul\":1634:1656   */\n      mstore\n        /* \"#utility.yul\":1424:1662   */\n      pop\n        /* \"#utility.yul\":1381:1662   */\n      pop\n      pop\n      jump\t// out\n        /* \"#utility.yul\":1668:1797   */\n    tag_217:\n        /* \"#utility.yul\":1702:1708   */\n      0x00\n        /* \"#utility.yul\":1729:1749   */\n      tag_305\n      tag_205\n      jump\t// in\n    tag_305:\n        /* \"#utility.yul\":1719:1749   */\n      swap1\n      pop\n        /* \"#utility.yul\":1758:1791   */\n      tag_306\n        /* \"#utility.yul\":1786:1790   */\n      dup3\n        /* \"#utility.yul\":1778:1784   */\n      dup3\n        /* \"#utility.yul\":1758:1791   */\n      tag_216\n      jump\t// in\n    tag_306:\n        /* \"#utility.yul\":1668:1797   */\n      swap2\n      swap1\n      pop\n      jump\t// out\n        /* \"#utility.yul\":1803:2111   */\n    tag_218:\n        /* \"#utility.yul\":1865:1869   */\n      0x00\n        /* \"#utility.yul\":1955:1973   */\n      0xffffffffffffffff\n        /* \"#utility.yul\":1947:1953   */\n      dup3\n        /* \"#utility.yul\":1944:1974   */\n      gt\n        /* \"#utility.yul\":1941:1997   */\n      iszero\n      tag_308\n      jumpi\n        /* \"#utility.yul\":1977:1995   */\n      tag_309\n      tag_215\n      jump\t// in\n    tag_309:\n        /* \"#utility.yul\":1941:1997   */\n    tag_308:\n        /* \"#utility.yul\":2015:2044   */\n      tag_310\n        /* \"#utility.yul\":2037:2043   */\n      dup3\n        /* \"#utility.yul\":2015:2044   */\n      tag_214\n      jump\t// in\n    tag_310:\n        /* \"#utility.yul\":2007:2044   */\n      swap1\n      pop\n        /* \"#utility.yul\":2099:2103   */\n      0x20\n        /* \"#utility.yul\":2093:2097   */\n      dup2\n        /* \"#utility.yul\":2089:2104   */\n      add\n        /* \"#utility.yul\":2081:2104   */\n      swap1\n      pop\n        /* \"#utility.yul\":1803:2111   */\n      swap2\n      swap1\n      pop\n      jump\t// out\n        /* \"#utility.yul\":2117:2263   */\n    tag_219:\n        /* \"#utility.yul\":2214:2220   */\n      dup3\n        /* \"#utility.yul\":2209:2212   */\n      dup2\n        /* \"#utility.yul\":2204:2207   */\n      dup4\n        /* \"#utility.yul\":2191:2221   */\n      calldatacopy\n        /* \"#utility.yul\":2255:2256   */\n      0x00\n        /* \"#utility.yul\":2246:2252   */\n      dup4\n        /* \"#utility.yul\":2241:2244   */\n      dup4\n        /* \"#utility.yul\":2237:2253   */\n      add\n        /* \"#utility.yul\":2230:2257   */\n      mstore\n        /* \"#utility.yul\":2117:2263   */\n      pop\n      pop\n      pop\n      jump\t// out\n        /* \"#utility.yul\":2269:2694   */\n    tag_220:\n        /* \"#utility.yul\":2347:2352   */\n      0x00\n        /* \"#utility.yul\":2372:2438   */\n      tag_313\n        /* \"#utility.yul\":2388:2437   */\n      tag_314\n        /* \"#utility.yul\":2430:2436   */\n      dup5\n        /* \"#utility.yul\":2388:2437   */\n      tag_218\n      jump\t// in\n    tag_314:\n        /* \"#utility.yul\":2372:2438   */\n      tag_217\n      jump\t// in\n    tag_313:\n        /* \"#utility.yul\":2363:2438   */\n      swap1\n      pop\n        /* \"#utility.yul\":2461:2467   */\n      dup3\n        /* \"#utility.yul\":2454:2459   */\n      dup2\n        /* \"#utility.yul\":2447:2468   */\n      mstore\n        /* \"#utility.yul\":2499:2503   */\n      0x20\n        /* \"#utility.yul\":2492:2497   */\n      dup2\n        /* \"#utility.yul\":2488:2504   */\n      add\n        /* \"#utility.yul\":2537:2540   */\n      dup5\n        /* \"#utility.yul\":2528:2534   */\n      dup5\n        /* \"#utility.yul\":2523:2526   */\n      dup5\n        /* \"#utility.yul\":2519:2535   */\n      add\n        /* \"#utility.yul\":2516:2541   */\n      gt\n        /* \"#utility.yul\":2513:2625   */\n      iszero\n      tag_315\n      jumpi\n        /* \"#utility.yul\":2544:2623   */\n      tag_316\n      tag_213\n      jump\t// in\n    tag_316:\n        /* \"#utility.yul\":2513:2625   */\n    tag_315:\n        /* \"#utility.yul\":2634:2688   */\n      tag_317\n        /* \"#utility.yul\":2681:2687   */\n      dup5\n        /* \"#utility.yul\":2676:2679   */\n      dup3\n        /* \"#utility.yul\":2671:2674   */\n      dup6\n        /* \"#utility.yul\":2634:2688   */\n      tag_219\n      jump\t// in\n    tag_317:\n        /* \"#utility.yul\":2353:2694   */\n      pop\n        /* \"#utility.yul\":2269:2694   */\n      swap4\n      swap3\n      pop\n      pop\n      pop\n      jump\t// out\n        /* \"#utility.yul\":2714:3054   */\n    tag_221:\n        /* \"#utility.yul\":2770:2775   */\n      0x00\n        /* \"#utility.yul\":2819:2822   */\n      dup3\n        /* \"#utility.yul\":2812:2816   */\n      0x1f\n        /* \"#utility.yul\":2804:2810   */\n      dup4\n        /* \"#utility.yul\":2800:2817   */\n      add\n        /* \"#utility.yul\":2796:2823   */\n      slt\n        /* \"#utility.yul\":2786:2908   */\n      tag_319\n      jumpi\n        /* \"#utility.yul\":2827:2906   */\n      tag_320\n      tag_212\n      jump\t// in\n    tag_320:\n        /* \"#utility.yul\":2786:2908   */\n    tag_319:\n        /* \"#utility.yul\":2944:2950   */\n      dup2\n        /* \"#utility.yul\":2931:2951   */\n      calldataload\n        /* \"#utility.yul\":2969:3048   */\n      tag_321\n        /* \"#utility.yul\":3044:3047   */\n      dup5\n        /* \"#utility.yul\":3036:3042   */\n      dup3\n        /* \"#utility.yul\":3029:3033   */\n      0x20\n        /* \"#utility.yul\":3021:3027   */\n      dup7\n        /* \"#utility.yul\":3017:3034   */\n      add\n        /* \"#utility.yul\":2969:3048   */\n      tag_220\n      jump\t// in\n    tag_321:\n        /* \"#utility.yul\":2960:3048   */\n      swap2\n      pop\n        /* \"#utility.yul\":2776:3054   */\n      pop\n        /* \"#utility.yul\":2714:3054   */\n      swap3\n      swap2\n      pop\n      pop\n      jump\t// out\n        /* \"#utility.yul\":3060:4039   */\n    tag_16:\n        /* \"#utility.yul\":3157:3163   */\n      0x00\n        /* \"#utility.yul\":3165:3171   */\n      dup1\n        /* \"#utility.yul\":3173:3179   */\n      0x00\n        /* \"#utility.yul\":3222:3224   */\n      0x60\n        /* \"#utility.yul\":3210:3219   */\n      dup5\n        /* \"#utility.yul\":3201:3208   */\n      dup7\n        /* \"#utility.yul\":3197:3220   */\n      sub\n        /* \"#utility.yul\":3193:3225   */\n      slt\n        /* \"#utility.yul\":3190:3309   */\n      iszero\n      tag_323\n      jumpi\n        /* \"#utility.yul\":3228:3307   */\n      tag_324\n      tag_206\n      jump\t// in\n    tag_324:\n        /* \"#utility.yul\":3190:3309   */\n    tag_323:\n        /* \"#utility.yul\":3348:3349   */\n      0x00\n        /* \"#utility.yul\":3373:3426   */\n      tag_325\n        /* \"#utility.yul\":3418:3425   */\n      dup7\n        /* \"#utility.yul\":3409:3415   */\n      dup3\n        /* \"#utility.yul\":3398:3407   */\n      dup8\n        /* \"#utility.yul\":3394:3416   */\n      add\n        /* \"#utility.yul\":3373:3426   */\n      tag_211\n      jump\t// in\n    tag_325:\n        /* \"#utility.yul\":3363:3426   */\n      swap4\n      pop\n        /* \"#utility.yul\":3319:3436   */\n      pop\n        /* \"#utility.yul\":3503:3505   */\n      0x20\n        /* \"#utility.yul\":3492:3501   */\n      dup5\n        /* \"#utility.yul\":3488:3506   */\n      add\n        /* \"#utility.yul\":3475:3507   */\n      calldataload\n        /* \"#utility.yul\":3534:3552   */\n      0xffffffffffffffff\n        /* \"#utility.yul\":3526:3532   */\n      dup2\n        /* \"#utility.yul\":3523:3553   */\n      gt\n        /* \"#utility.yul\":3520:3637   */\n      iszero\n      tag_326\n      jumpi\n        /* \"#utility.yul\":3556:3635   */\n      tag_327\n      tag_207\n      jump\t// in\n    tag_327:\n        /* \"#utility.yul\":3520:3637   */\n    tag_326:\n        /* \"#utility.yul\":3661:3724   */\n      tag_328\n        /* \"#utility.yul\":3716:3723   */\n      dup7\n        /* \"#utility.yul\":3707:3713   */\n      dup3\n        /* \"#utility.yul\":3696:3705   */\n      dup8\n        /* \"#utility.yul\":3692:3714   */\n      add\n        /* \"#utility.yul\":3661:3724   */\n      tag_221\n      jump\t// in\n    tag_328:\n        /* \"#utility.yul\":3651:3724   */\n      swap3\n      pop\n        /* \"#utility.yul\":3446:3734   */\n      pop\n        /* \"#utility.yul\":3801:3803   */\n      0x40\n        /* \"#utility.yul\":3790:3799   */\n      dup5\n        /* \"#utility.yul\":3786:3804   */\n      add\n        /* \"#utility.yul\":3773:3805   */\n      calldataload\n        /* \"#utility.yul\":3832:3850   */\n      0xffffffffffffffff\n        /* \"#utility.yul\":3824:3830   */\n      dup2\n        /* \"#utility.yul\":3821:3851   */\n      gt\n        /* \"#utility.yul\":3818:3935   */\n      iszero\n      tag_329\n      jumpi\n        /* \"#utility.yul\":3854:3933   */\n      tag_330\n      tag_207\n      jump\t// in\n    tag_330:\n        /* \"#utility.yul\":3818:3935   */\n    tag_329:\n        /* \"#utility.yul\":3959:4022   */\n      tag_331\n        /* \"#utility.yul\":4014:4021   */\n      dup7\n        /* \"#utility.yul\":4005:4011   */\n      dup3\n        /* \"#utility.yul\":3994:4003   */\n      dup8\n        /* \"#utility.yul\":3990:4012   */\n      add\n        /* \"#utility.yul\":3959:4022   */\n      tag_221\n      jump\t// in\n    tag_331:\n        /* \"#utility.yul\":3949:4022   */\n      swap2\n      pop\n        /* \"#utility.yul\":3744:4032   */\n      pop\n        /* \"#utility.yul\":3060:4039   */\n      swap3\n      pop\n      swap3\n      pop\n      swap3\n      jump\t// out\n        /* \"#utility.yul\":4045:4135   */\n    tag_222:\n        /* \"#utility.yul\":4079:4086   */\n      0x00\n        /* \"#utility.yul\":4122:4127   */\n      dup2\n        /* \"#utility.yul\":4115:4128   */\n      iszero\n        /* \"#utility.yul\":4108:4129   */\n      iszero\n        /* \"#utility.yul\":4097:4129   */\n      swap1\n      pop\n        /* \"#utility.yul\":4045:4135   */\n      swap2\n      swap1\n      pop\n      jump\t// out\n        /* \"#utility.yul\":4141:4250   */\n    tag_223:\n        /* \"#utility.yul\":4222:4243   */\n      tag_334\n        /* \"#utility.yul\":4237:4242   */\n      dup2\n        /* \"#utility.yul\":4222:4243   */\n      tag_222\n      jump\t// in\n    tag_334:\n        /* \"#utility.yul\":4217:4220   */\n      dup3\n        /* \"#utility.yul\":4210:4244   */\n      mstore\n        /* \"#utility.yul\":4141:4250   */\n      pop\n      pop\n      jump\t// out\n        /* \"#utility.yul\":4256:4466   */\n    tag_19:\n        /* \"#utility.yul\":4343:4347   */\n      0x00\n        /* \"#utility.yul\":4381:4383   */\n      0x20\n        /* \"#utility.yul\":4370:4379   */\n      dup3\n        /* \"#utility.yul\":4366:4384   */\n      add\n        /* \"#utility.yul\":4358:4384   */\n      swap1\n      pop\n        /* \"#utility.yul\":4394:4459   */\n      tag_336\n        /* \"#utility.yul\":4456:4457   */\n      0x00\n        /* \"#utility.yul\":4445:4454   */\n      dup4\n        /* \"#utility.yul\":4441:4458   */\n      add\n        /* \"#utility.yul\":4432:4438   */\n      dup5\n        /* \"#utility.yul\":4394:4459   */\n      tag_223\n      jump\t// in\n    tag_336:\n        /* \"#utility.yul\":4256:4466   */\n      swap3\n      swap2\n      pop\n      pop\n      jump\t// out\n        /* \"#utility.yul\":4472:4549   */\n    tag_224:\n        /* \"#utility.yul\":4509:4516   */\n      0x00\n        /* \"#utility.yul\":4538:4543   */\n      dup2\n        /* \"#utility.yul\":4527:4543   */\n      swap1\n      pop\n        /* \"#utility.yul\":4472:4549   */\n      swap2\n      swap1\n      pop\n      jump\t// out\n        /* \"#utility.yul\":4555:4677   */\n    tag_225:\n        /* \"#utility.yul\":4628:4652   */\n      tag_339\n        /* \"#utility.yul\":4646:4651   */\n      dup2\n        /* \"#utility.yul\":4628:4652   */\n      tag_224\n      jump\t// in\n    tag_339:\n        /* \"#utility.yul\":4621:4626   */\n      dup2\n        /* \"#utility.yul\":4618:4653   */\n      eq\n        /* \"#utility.yul\":4608:4671   */\n      tag_340\n      jumpi\n        /* \"#utility.yul\":4667:4668   */\n      0x00\n        /* \"#utility.yul\":4664:4665   */\n      dup1\n        /* \"#utility.yul\":4657:4669   */\n      revert\n        /* \"#utility.yul\":4608:4671   */\n    tag_340:\n        /* \"#utility.yul\":4555:4677   */\n      pop\n      jump\t// out\n        /* \"#utility.yul\":4683:4822   */\n    tag_226:\n        /* \"#utility.yul\":4729:4734   */\n      0x00\n        /* \"#utility.yul\":4767:4773   */\n      dup2\n        /* \"#utility.yul\":4754:4774   */\n      calldataload\n        /* \"#utility.yul\":4745:4774   */\n      swap1\n      pop\n        /* \"#utility.yul\":4783:4816   */\n      tag_342\n        /* \"#utility.yul\":4810:4815   */\n      dup2\n        /* \"#utility.yul\":4783:4816   */\n      tag_225\n      jump\t// in\n    tag_342:\n        /* \"#utility.yul\":4683:4822   */\n      swap3\n      swap2\n      pop\n      pop\n      jump\t// out\n        /* \"#utility.yul\":4828:5302   */\n    tag_22:\n        /* \"#utility.yul\":4896:4902   */\n      0x00\n        /* \"#utility.yul\":4904:4910   */\n      dup1\n        /* \"#utility.yul\":4953:4955   */\n      0x40\n        /* \"#utility.yul\":4941:4950   */\n      dup4\n        /* \"#utility.yul\":4932:4939   */\n      dup6\n        /* \"#utility.yul\":4928:4951   */\n      sub\n        /* \"#utility.yul\":4924:4956   */\n      slt\n        /* \"#utility.yul\":4921:5040   */\n      iszero\n      tag_344\n      jumpi\n        /* \"#utility.yul\":4959:5038   */\n      tag_345\n      tag_206\n      jump\t// in\n    tag_345:\n        /* \"#utility.yul\":4921:5040   */\n    tag_344:\n        /* \"#utility.yul\":5079:5080   */\n      0x00\n        /* \"#utility.yul\":5104:5157   */\n      tag_346\n        /* \"#utility.yul\":5149:5156   */\n      dup6\n        /* \"#utility.yul\":5140:5146   */\n      dup3\n        /* \"#utility.yul\":5129:5138   */\n      dup7\n        /* \"#utility.yul\":5125:5147   */\n      add\n        /* \"#utility.yul\":5104:5157   */\n      tag_211\n      jump\t// in\n    tag_346:\n        /* \"#utility.yul\":5094:5157   */\n      swap3\n      pop\n        /* \"#utility.yul\":5050:5167   */\n      pop\n        /* \"#utility.yul\":5206:5208   */\n      0x20\n        /* \"#utility.yul\":5232:5285   */\n      tag_347\n        /* \"#utility.yul\":5277:5284   */\n      dup6\n        /* \"#utility.yul\":5268:5274   */\n      dup3\n        /* \"#utility.yul\":5257:5266   */\n      dup7\n        /* \"#utility.yul\":5253:5275   */\n      add\n        /* \"#utility.yul\":5232:5285   */\n      tag_226\n      jump\t// in\n    tag_347:\n        /* \"#utility.yul\":5222:5285   */\n      swap2\n      pop\n        /* \"#utility.yul\":5177:5295   */\n      pop\n        /* \"#utility.yul\":4828:5302   */\n      swap3\n      pop\n      swap3\n      swap1\n      pop\n      jump\t// out\n        /* \"#utility.yul\":5308:5426   */\n    tag_227:\n        /* \"#utility.yul\":5395:5419   */\n      tag_349\n        /* \"#utility.yul\":5413:5418   */\n      dup2\n        /* \"#utility.yul\":5395:5419   */\n      tag_224\n      jump\t// in\n    tag_349:\n        /* \"#utility.yul\":5390:5393   */\n      dup3\n        /* \"#utility.yul\":5383:5420   */\n      mstore\n        /* \"#utility.yul\":5308:5426   */\n      pop\n      pop\n      jump\t// out\n        /* \"#utility.yul\":5432:5654   */\n    tag_25:\n        /* \"#utility.yul\":5525:5529   */\n      0x00\n        /* \"#utility.yul\":5563:5565   */\n      0x20\n        /* \"#utility.yul\":5552:5561   */\n      dup3\n        /* \"#utility.yul\":5548:5566   */\n      add\n        /* \"#utility.yul\":5540:5566   */\n      swap1\n      pop\n        /* \"#utility.yul\":5576:5647   */\n      tag_351\n        /* \"#utility.yul\":5644:5645   */\n      0x00\n        /* \"#utility.yul\":5633:5642   */\n      dup4\n        /* \"#utility.yul\":5629:5646   */\n      add\n        /* \"#utility.yul\":5620:5626   */\n      dup5\n        /* \"#utility.yul\":5576:5647   */\n      tag_227\n      jump\t// in\n    tag_351:\n        /* \"#utility.yul\":5432:5654   */\n      swap3\n      swap2\n      pop\n      pop\n      jump\t// out\n        /* \"#utility.yul\":5660:5989   */\n    tag_28:\n        /* \"#utility.yul\":5719:5725   */\n      0x00\n        /* \"#utility.yul\":5768:5770   */\n      0x20\n        /* \"#utility.yul\":5756:5765   */\n      dup3\n        /* \"#utility.yul\":5747:5754   */\n      dup5\n        /* \"#utility.yul\":5743:5766   */\n      sub\n        /* \"#utility.yul\":5739:5771   */\n      slt\n        /* \"#utility.yul\":5736:5855   */\n      iszero\n      tag_353\n      jumpi\n        /* \"#utility.yul\":5774:5853   */\n      tag_354\n      tag_206\n      jump\t// in\n    tag_354:\n        /* \"#utility.yul\":5736:5855   */\n    tag_353:\n        /* \"#utility.yul\":5894:5895   */\n      0x00\n        /* \"#utility.yul\":5919:5972   */\n      tag_355\n        /* \"#utility.yul\":5964:5971   */\n      dup5\n        /* \"#utility.yul\":5955:5961   */\n      dup3\n        /* \"#utility.yul\":5944:5953   */\n      dup6\n        /* \"#utility.yul\":5940:5962   */\n      add\n        /* \"#utility.yul\":5919:5972   */\n      tag_211\n      jump\t// in\n    tag_355:\n        /* \"#utility.yul\":5909:5972   */\n      swap2\n      pop\n        /* \"#utility.yul\":5865:5982   */\n      pop\n        /* \"#utility.yul\":5660:5989   */\n      swap3\n      swap2\n      pop\n      pop\n      jump\t// out\n        /* \"#utility.yul\":5995:6094   */\n    tag_228:\n        /* \"#utility.yul\":6047:6053   */\n      0x00\n        /* \"#utility.yul\":6081:6086   */\n      dup2\n        /* \"#utility.yul\":6075:6087   */\n      mload\n        /* \"#utility.yul\":6065:6087   */\n      swap1\n      pop\n        /* \"#utility.yul\":5995:6094   */\n      swap2\n      swap1\n      pop\n      jump\t// out\n        /* \"#utility.yul\":6100:6269   */\n    tag_229:\n        /* \"#utility.yul\":6184:6195   */\n      0x00\n        /* \"#utility.yul\":6218:6224   */\n      dup3\n        /* \"#utility.yul\":6213:6216   */\n      dup3\n        /* \"#utility.yul\":6206:6225   */\n      mstore\n        /* \"#utility.yul\":6258:6262   */\n      0x20\n        /* \"#utility.yul\":6253:6256   */\n      dup3\n        /* \"#utility.yul\":6249:6263   */\n      add\n        /* \"#utility.yul\":6234:6263   */\n      swap1\n      pop\n        /* \"#utility.yul\":6100:6269   */\n      swap3\n      swap2\n      pop\n      pop\n      jump\t// out\n        /* \"#utility.yul\":6275:6521   */\n    tag_230:\n        /* \"#utility.yul\":6356:6357   */\n      0x00\n        /* \"#utility.yul\":6366:6479   */\n    tag_359:\n        /* \"#utility.yul\":6380:6386   */\n      dup4\n        /* \"#utility.yul\":6377:6378   */\n      dup2\n        /* \"#utility.yul\":6374:6387   */\n      lt\n        /* \"#utility.yul\":6366:6479   */\n      iszero\n      tag_361\n      jumpi\n        /* \"#utility.yul\":6465:6466   */\n      dup1\n        /* \"#utility.yul\":6460:6463   */\n      dup3\n        /* \"#utility.yul\":6456:6467   */\n      add\n        /* \"#utility.yul\":6450:6468   */\n      mload\n        /* \"#utility.yul\":6446:6447   */\n      dup2\n        /* \"#utility.yul\":6441:6444   */\n      dup5\n        /* \"#utility.yul\":6437:6448   */\n      add\n        /* \"#utility.yul\":6430:6469   */\n      mstore\n        /* \"#utility.yul\":6402:6404   */\n      0x20\n        /* \"#utility.yul\":6399:6400   */\n      dup2\n        /* \"#utility.yul\":6395:6405   */\n      add\n        /* \"#utility.yul\":6390:6405   */\n      swap1\n      pop\n        /* \"#utility.yul\":6366:6479   */\n      jump(tag_359)\n    tag_361:\n        /* \"#utility.yul\":6513:6514   */\n      0x00\n        /* \"#utility.yul\":6504:6510   */\n      dup5\n        /* \"#utility.yul\":6499:6502   */\n      dup5\n        /* \"#utility.yul\":6495:6511   */\n      add\n        /* \"#utility.yul\":6488:6515   */\n      mstore\n        /* \"#utility.yul\":6337:6521   */\n      pop\n        /* \"#utility.yul\":6275:6521   */\n      pop\n      pop\n      pop\n      jump\t// out\n        /* \"#utility.yul\":6527:6904   */\n    tag_231:\n        /* \"#utility.yul\":6615:6618   */\n      0x00\n        /* \"#utility.yul\":6643:6682   */\n      tag_363\n        /* \"#utility.yul\":6676:6681   */\n      dup3\n        /* \"#utility.yul\":6643:6682   */\n      tag_228\n      jump\t// in\n    tag_363:\n        /* \"#utility.yul\":6698:6769   */\n      tag_364\n        /* \"#utility.yul\":6762:6768   */\n      dup2\n        /* \"#utility.yul\":6757:6760   */\n      dup6\n        /* \"#utility.yul\":6698:6769   */\n      tag_229\n      jump\t// in\n    tag_364:\n        /* \"#utility.yul\":6691:6769   */\n      swap4\n      pop\n        /* \"#utility.yul\":6778:6843   */\n      tag_365\n        /* \"#utility.yul\":6836:6842   */\n      dup2\n        /* \"#utility.yul\":6831:6834   */\n      dup6\n        /* \"#utility.yul\":6824:6828   */\n      0x20\n        /* \"#utility.yul\":6817:6822   */\n      dup7\n        /* \"#utility.yul\":6813:6829   */\n      add\n        /* \"#utility.yul\":6778:6843   */\n      tag_230\n      jump\t// in\n    tag_365:\n        /* \"#utility.yul\":6868:6897   */\n      tag_366\n        /* \"#utility.yul\":6890:6896   */\n      dup2\n        /* \"#utility.yul\":6868:6897   */\n      tag_214\n      jump\t// in\n    tag_366:\n        /* \"#utility.yul\":6863:6866   */\n      dup5\n        /* \"#utility.yul\":6859:6898   */\n      add\n        /* \"#utility.yul\":6852:6898   */\n      swap2\n      pop\n        /* \"#utility.yul\":6619:6904   */\n      pop\n        /* \"#utility.yul\":6527:6904   */\n      swap3\n      swap2\n      pop\n      pop\n      jump\t// out\n        /* \"#utility.yul\":6910:7223   */\n    tag_39:\n        /* \"#utility.yul\":7023:7027   */\n      0x00\n        /* \"#utility.yul\":7061:7063   */\n      0x20\n        /* \"#utility.yul\":7050:7059   */\n      dup3\n        /* \"#utility.yul\":7046:7064   */\n      add\n        /* \"#utility.yul\":7038:7064   */\n      swap1\n      pop\n        /* \"#utility.yul\":7110:7119   */\n      dup2\n        /* \"#utility.yul\":7104:7108   */\n      dup2\n        /* \"#utility.yul\":7100:7120   */\n      sub\n        /* \"#utility.yul\":7096:7097   */\n      0x00\n        /* \"#utility.yul\":7085:7094   */\n      dup4\n        /* \"#utility.yul\":7081:7098   */\n      add\n        /* \"#utility.yul\":7074:7121   */\n      mstore\n        /* \"#utility.yul\":7138:7216   */\n      tag_368\n        /* \"#utility.yul\":7211:7215   */\n      dup2\n        /* \"#utility.yul\":7202:7208   */\n      dup5\n        /* \"#utility.yul\":7138:7216   */\n      tag_231\n      jump\t// in\n    tag_368:\n        /* \"#utility.yul\":7130:7216   */\n      swap1\n      pop\n        /* \"#utility.yul\":6910:7223   */\n      swap3\n      swap2\n      pop\n      pop\n      jump\t// out\n        /* \"#utility.yul\":7229:8166   */\n    tag_44:\n        /* \"#utility.yul\":7494:7498   */\n      0x00\n        /* \"#utility.yul\":7532:7535   */\n      0xa0\n        /* \"#utility.yul\":7521:7530   */\n      dup3\n        /* \"#utility.yul\":7517:7536   */\n      add\n        /* \"#utility.yul\":7509:7536   */\n      swap1\n      pop\n        /* \"#utility.yul\":7546:7617   */\n      tag_370\n        /* \"#utility.yul\":7614:7615   */\n      0x00\n        /* \"#utility.yul\":7603:7612   */\n      dup4\n        /* \"#utility.yul\":7599:7616   */\n      add\n        /* \"#utility.yul\":7590:7596   */\n      dup9\n        /* \"#utility.yul\":7546:7617   */\n      tag_227\n      jump\t// in\n    tag_370:\n        /* \"#utility.yul\":7664:7673   */\n      dup2\n        /* \"#utility.yul\":7658:7662   */\n      dup2\n        /* \"#utility.yul\":7654:7674   */\n      sub\n        /* \"#utility.yul\":7649:7651   */\n      0x20\n        /* \"#utility.yul\":7638:7647   */\n      dup4\n        /* \"#utility.yul\":7634:7652   */\n      add\n        /* \"#utility.yul\":7627:7675   */\n      mstore\n        /* \"#utility.yul\":7692:7770   */\n      tag_371\n        /* \"#utility.yul\":7765:7769   */\n      dup2\n        /* \"#utility.yul\":7756:7762   */\n      dup8\n        /* \"#utility.yul\":7692:7770   */\n      tag_231\n      jump\t// in\n    tag_371:\n        /* \"#utility.yul\":7684:7770   */\n      swap1\n      pop\n        /* \"#utility.yul\":7817:7826   */\n      dup2\n        /* \"#utility.yul\":7811:7815   */\n      dup2\n        /* \"#utility.yul\":7807:7827   */\n      sub\n        /* \"#utility.yul\":7802:7804   */\n      0x40\n        /* \"#utility.yul\":7791:7800   */\n      dup4\n        /* \"#utility.yul\":7787:7805   */\n      add\n        /* \"#utility.yul\":7780:7828   */\n      mstore\n        /* \"#utility.yul\":7845:7923   */\n      tag_372\n        /* \"#utility.yul\":7918:7922   */\n      dup2\n        /* \"#utility.yul\":7909:7915   */\n      dup7\n        /* \"#utility.yul\":7845:7923   */\n      tag_231\n      jump\t// in\n    tag_372:\n        /* \"#utility.yul\":7837:7923   */\n      swap1\n      pop\n        /* \"#utility.yul\":7970:7979   */\n      dup2\n        /* \"#utility.yul\":7964:7968   */\n      dup2\n        /* \"#utility.yul\":7960:7980   */\n      sub\n        /* \"#utility.yul\":7955:7957   */\n      0x60\n        /* \"#utility.yul\":7944:7953   */\n      dup4\n        /* \"#utility.yul\":7940:7958   */\n      add\n        /* \"#utility.yul\":7933:7981   */\n      mstore\n        /* \"#utility.yul\":7998:8076   */\n      tag_373\n        /* \"#utility.yul\":8071:8075   */\n      dup2\n        /* \"#utility.yul\":8062:8068   */\n      dup6\n        /* \"#utility.yul\":7998:8076   */\n      tag_231\n      jump\t// in\n    tag_373:\n        /* \"#utility.yul\":7990:8076   */\n      swap1\n      pop\n        /* \"#utility.yul\":8086:8159   */\n      tag_374\n        /* \"#utility.yul\":8154:8157   */\n      0x80\n        /* \"#utility.yul\":8143:8152   */\n      dup4\n        /* \"#utility.yul\":8139:8158   */\n      add\n        /* \"#utility.yul\":8130:8136   */\n      dup5\n        /* \"#utility.yul\":8086:8159   */\n      tag_227\n      jump\t// in\n    tag_374:\n        /* \"#utility.yul\":7229:8166   */\n      swap7\n      swap6\n      pop\n      pop\n      pop\n      pop\n      pop\n      pop\n      jump\t// out\n        /* \"#utility.yul\":8172:8791   */\n    tag_47:\n        /* \"#utility.yul\":8249:8255   */\n      0x00\n        /* \"#utility.yul\":8257:8263   */\n      dup1\n        /* \"#utility.yul\":8265:8271   */\n      0x00\n        /* \"#utility.yul\":8314:8316   */\n      0x60\n        /* \"#utility.yul\":8302:8311   */\n      dup5\n        /* \"#utility.yul\":8293:8300   */\n      dup7\n        /* \"#utility.yul\":8289:8312   */\n      sub\n        /* \"#utility.yul\":8285:8317   */\n      slt\n        /* \"#utility.yul\":8282:8401   */\n      iszero\n      tag_376\n      jumpi\n        /* \"#utility.yul\":8320:8399   */\n      tag_377\n      tag_206\n      jump\t// in\n    tag_377:\n        /* \"#utility.yul\":8282:8401   */\n    tag_376:\n        /* \"#utility.yul\":8440:8441   */\n      0x00\n        /* \"#utility.yul\":8465:8518   */\n      tag_378\n        /* \"#utility.yul\":8510:8517   */\n      dup7\n        /* \"#utility.yul\":8501:8507   */\n      dup3\n        /* \"#utility.yul\":8490:8499   */\n      dup8\n        /* \"#utility.yul\":8486:8508   */\n      add\n        /* \"#utility.yul\":8465:8518   */\n      tag_211\n      jump\t// in\n    tag_378:\n        /* \"#utility.yul\":8455:8518   */\n      swap4\n      pop\n        /* \"#utility.yul\":8411:8528   */\n      pop\n        /* \"#utility.yul\":8567:8569   */\n      0x20\n        /* \"#utility.yul\":8593:8646   */\n      tag_379\n        /* \"#utility.yul\":8638:8645   */\n      dup7\n        /* \"#utility.yul\":8629:8635   */\n      dup3\n        /* \"#utility.yul\":8618:8627   */\n      dup8\n        /* \"#utility.yul\":8614:8636   */\n      add\n        /* \"#utility.yul\":8593:8646   */\n      tag_226\n      jump\t// in\n    tag_379:\n        /* \"#utility.yul\":8583:8646   */\n      swap3\n      pop\n        /* \"#utility.yul\":8538:8656   */\n      pop\n        /* \"#utility.yul\":8695:8697   */\n      0x40\n        /* \"#utility.yul\":8721:8774   */\n      tag_380\n        /* \"#utility.yul\":8766:8773   */\n      dup7\n        /* \"#utility.yul\":8757:8763   */\n      dup3\n        /* \"#utility.yul\":8746:8755   */\n      dup8\n        /* \"#utility.yul\":8742:8764   */\n      add\n        /* \"#utility.yul\":8721:8774   */\n      tag_226\n      jump\t// in\n    tag_380:\n        /* \"#utility.yul\":8711:8774   */\n      swap2\n      pop\n        /* \"#utility.yul\":8666:8784   */\n      pop\n        /* \"#utility.yul\":8172:8791   */\n      swap3\n      pop\n      swap3\n      pop\n      swap3\n      jump\t// out\n        /* \"#utility.yul\":8797:10102   */\n    tag_55:\n        /* \"#utility.yul\":8913:8919   */\n      0x00\n        /* \"#utility.yul\":8921:8927   */\n      dup1\n        /* \"#utility.yul\":8929:8935   */\n      0x00\n        /* \"#utility.yul\":8937:8943   */\n      dup1\n        /* \"#utility.yul\":8986:8989   */\n      0x80\n        /* \"#utility.yul\":8974:8983   */\n      dup6\n        /* \"#utility.yul\":8965:8972   */\n      dup8\n        /* \"#utility.yul\":8961:8984   */\n      sub\n        /* \"#utility.yul\":8957:8990   */\n      slt\n        /* \"#utility.yul\":8954:9074   */\n      iszero\n      tag_382\n      jumpi\n        /* \"#utility.yul\":8993:9072   */\n      tag_383\n      tag_206\n      jump\t// in\n    tag_383:\n        /* \"#utility.yul\":8954:9074   */\n    tag_382:\n        /* \"#utility.yul\":9141:9142   */\n      0x00\n        /* \"#utility.yul\":9130:9139   */\n      dup6\n        /* \"#utility.yul\":9126:9143   */\n      add\n        /* \"#utility.yul\":9113:9144   */\n      calldataload\n        /* \"#utility.yul\":9171:9189   */\n      0xffffffffffffffff\n        /* \"#utility.yul\":9163:9169   */\n      dup2\n        /* \"#utility.yul\":9160:9190   */\n      gt\n        /* \"#utility.yul\":9157:9274   */\n      iszero\n      tag_384\n      jumpi\n        /* \"#utility.yul\":9193:9272   */\n      tag_385\n      tag_207\n      jump\t// in\n    tag_385:\n        /* \"#utility.yul\":9157:9274   */\n    tag_384:\n        /* \"#utility.yul\":9298:9361   */\n      tag_386\n        /* \"#utility.yul\":9353:9360   */\n      dup8\n        /* \"#utility.yul\":9344:9350   */\n      dup3\n        /* \"#utility.yul\":9333:9342   */\n      dup9\n        /* \"#utility.yul\":9329:9351   */\n      add\n        /* \"#utility.yul\":9298:9361   */\n      tag_221\n      jump\t// in\n    tag_386:\n        /* \"#utility.yul\":9288:9361   */\n      swap5\n      pop\n        /* \"#utility.yul\":9084:9371   */\n      pop\n        /* \"#utility.yul\":9438:9440   */\n      0x20\n        /* \"#utility.yul\":9427:9436   */\n      dup6\n        /* \"#utility.yul\":9423:9441   */\n      add\n        /* \"#utility.yul\":9410:9442   */\n      calldataload\n        /* \"#utility.yul\":9469:9487   */\n      0xffffffffffffffff\n        /* \"#utility.yul\":9461:9467   */\n      dup2\n        /* \"#utility.yul\":9458:9488   */\n      gt\n        /* \"#utility.yul\":9455:9572   */\n      iszero\n      tag_387\n      jumpi\n        /* \"#utility.yul\":9491:9570   */\n      tag_388\n      tag_207\n      jump\t// in\n    tag_388:\n        /* \"#utility.yul\":9455:9572   */\n    tag_387:\n        /* \"#utility.yul\":9596:9659   */\n      tag_389\n        /* \"#utility.yul\":9651:9658   */\n      dup8\n        /* \"#utility.yul\":9642:9648   */\n      dup3\n        /* \"#utility.yul\":9631:9640   */\n      dup9\n        /* \"#utility.yul\":9627:9649   */\n      add\n        /* \"#utility.yul\":9596:9659   */\n      tag_221\n      jump\t// in\n    tag_389:\n        /* \"#utility.yul\":9586:9659   */\n      swap4\n      pop\n        /* \"#utility.yul\":9381:9669   */\n      pop\n        /* \"#utility.yul\":9736:9738   */\n      0x40\n        /* \"#utility.yul\":9725:9734   */\n      dup6\n        /* \"#utility.yul\":9721:9739   */\n      add\n        /* \"#utility.yul\":9708:9740   */\n      calldataload\n        /* \"#utility.yul\":9767:9785   */\n      0xffffffffffffffff\n        /* \"#utility.yul\":9759:9765   */\n      dup2\n        /* \"#utility.yul\":9756:9786   */\n      gt\n        /* \"#utility.yul\":9753:9870   */\n      iszero\n      tag_390\n      jumpi\n        /* \"#utility.yul\":9789:9868   */\n      tag_391\n      tag_207\n      jump\t// in\n    tag_391:\n        /* \"#utility.yul\":9753:9870   */\n    tag_390:\n        /* \"#utility.yul\":9894:9957   */\n      tag_392\n        /* \"#utility.yul\":9949:9956   */\n      dup8\n        /* \"#utility.yul\":9940:9946   */\n      dup3\n        /* \"#utility.yul\":9929:9938   */\n      dup9\n        /* \"#utility.yul\":9925:9947   */\n      add\n        /* \"#utility.yul\":9894:9957   */\n      tag_221\n      jump\t// in\n    tag_392:\n        /* \"#utility.yul\":9884:9957   */\n      swap3\n      pop\n        /* \"#utility.yul\":9679:9967   */\n      pop\n        /* \"#utility.yul\":10006:10008   */\n      0x60\n        /* \"#utility.yul\":10032:10085   */\n      tag_393\n        /* \"#utility.yul\":10077:10084   */\n      dup8\n        /* \"#utility.yul\":10068:10074   */\n      dup3\n        /* \"#utility.yul\":10057:10066   */\n      dup9\n        /* \"#utility.yul\":10053:10075   */\n      add\n        /* \"#utility.yul\":10032:10085   */\n      tag_211\n      jump\t// in\n    tag_393:\n        /* \"#utility.yul\":10022:10085   */\n      swap2\n      pop\n        /* \"#utility.yul\":9977:10095   */\n      pop\n        /* \"#utility.yul\":8797:10102   */\n      swap3\n      swap6\n      swap2\n      swap5\n      pop\n      swap3\n      pop\n      jump\t// out\n        /* \"#utility.yul\":10108:10335   */\n    tag_232:\n        /* \"#utility.yul\":10248:10282   */\n      0x41646472657373207574696c697a7a61746f206e6f6e2076616c69646f2c2070\n        /* \"#utility.yul\":10244:10245   */\n      0x00\n        /* \"#utility.yul\":10236:10242   */\n      dup3\n        /* \"#utility.yul\":10232:10246   */\n      add\n        /* \"#utility.yul\":10225:10283   */\n      mstore\n        /* \"#utility.yul\":10317:10327   */\n      0x6172692061203021000000000000000000000000000000000000000000000000\n        /* \"#utility.yul\":10312:10314   */\n      0x20\n        /* \"#utility.yul\":10304:10310   */\n      dup3\n        /* \"#utility.yul\":10300:10315   */\n      add\n        /* \"#utility.yul\":10293:10328   */\n      mstore\n        /* \"#utility.yul\":10108:10335   */\n      pop\n      jump\t// out\n        /* \"#utility.yul\":10341:10707   */\n    tag_233:\n        /* \"#utility.yul\":10483:10486   */\n      0x00\n        /* \"#utility.yul\":10504:10571   */\n      tag_396\n        /* \"#utility.yul\":10568:10570   */\n      0x28\n        /* \"#utility.yul\":10563:10566   */\n      dup4\n        /* \"#utility.yul\":10504:10571   */\n      tag_229\n      jump\t// in\n    tag_396:\n        /* \"#utility.yul\":10497:10571   */\n      swap2\n      pop\n        /* \"#utility.yul\":10580:10673   */\n      tag_397\n        /* \"#utility.yul\":10669:10672   */\n      dup3\n        /* \"#utility.yul\":10580:10673   */\n      tag_232\n      jump\t// in\n    tag_397:\n        /* \"#utility.yul\":10698:10700   */\n      0x40\n        /* \"#utility.yul\":10693:10696   */\n      dup3\n        /* \"#utility.yul\":10689:10701   */\n      add\n        /* \"#utility.yul\":10682:10701   */\n      swap1\n      pop\n        /* \"#utility.yul\":10341:10707   */\n      swap2\n      swap1\n      pop\n      jump\t// out\n        /* \"#utility.yul\":10713:11132   */\n    tag_64:\n        /* \"#utility.yul\":10879:10883   */\n      0x00\n        /* \"#utility.yul\":10917:10919   */\n      0x20\n        /* \"#utility.yul\":10906:10915   */\n      dup3\n        /* \"#utility.yul\":10902:10920   */\n      add\n        /* \"#utility.yul\":10894:10920   */\n      swap1\n      pop\n        /* \"#utility.yul\":10966:10975   */\n      dup2\n        /* \"#utility.yul\":10960:10964   */\n      dup2\n        /* \"#utility.yul\":10956:10976   */\n      sub\n        /* \"#utility.yul\":10952:10953   */\n      0x00\n        /* \"#utility.yul\":10941:10950   */\n      dup4\n        /* \"#utility.yul\":10937:10954   */\n      add\n        /* \"#utility.yul\":10930:10977   */\n      mstore\n        /* \"#utility.yul\":10994:11125   */\n      tag_399\n        /* \"#utility.yul\":11120:11124   */\n      dup2\n        /* \"#utility.yul\":10994:11125   */\n      tag_233\n      jump\t// in\n    tag_399:\n        /* \"#utility.yul\":10986:11125   */\n      swap1\n      pop\n        /* \"#utility.yul\":10713:11132   */\n      swap2\n      swap1\n      pop\n      jump\t// out\n        /* \"#utility.yul\":11138:11307   */\n    tag_234:\n        /* \"#utility.yul\":11278:11299   */\n      0x41646472657373206e6f6e2056616c69646f2100000000000000000000000000\n        /* \"#utility.yul\":11274:11275   */\n      0x00\n        /* \"#utility.yul\":11266:11272   */\n      dup3\n        /* \"#utility.yul\":11262:11276   */\n      add\n        /* \"#utility.yul\":11255:11300   */\n      mstore\n        /* \"#utility.yul\":11138:11307   */\n      pop\n      jump\t// out\n        /* \"#utility.yul\":11313:11679   */\n    tag_235:\n        /* \"#utility.yul\":11455:11458   */\n      0x00\n        /* \"#utility.yul\":11476:11543   */\n      tag_402\n        /* \"#utility.yul\":11540:11542   */\n      0x13\n        /* \"#utility.yul\":11535:11538   */\n      dup4\n        /* \"#utility.yul\":11476:11543   */\n      tag_229\n      jump\t// in\n    tag_402:\n        /* \"#utility.yul\":11469:11543   */\n      swap2\n      pop\n        /* \"#utility.yul\":11552:11645   */\n      tag_403\n        /* \"#utility.yul\":11641:11644   */\n      dup3\n        /* \"#utility.yul\":11552:11645   */\n      tag_234\n      jump\t// in\n    tag_403:\n        /* \"#utility.yul\":11670:11672   */\n      0x20\n        /* \"#utility.yul\":11665:11668   */\n      dup3\n        /* \"#utility.yul\":11661:11673   */\n      add\n        /* \"#utility.yul\":11654:11673   */\n      swap1\n      pop\n        /* \"#utility.yul\":11313:11679   */\n      swap2\n      swap1\n      pop\n      jump\t// out\n        /* \"#utility.yul\":11685:12104   */\n    tag_67:\n        /* \"#utility.yul\":11851:11855   */\n      0x00\n        /* \"#utility.yul\":11889:11891   */\n      0x20\n        /* \"#utility.yul\":11878:11887   */\n      dup3\n        /* \"#utility.yul\":11874:11892   */\n      add\n        /* \"#utility.yul\":11866:11892   */\n      swap1\n      pop\n        /* \"#utility.yul\":11938:11947   */\n      dup2\n        /* \"#utility.yul\":11932:11936   */\n      dup2\n        /* \"#utility.yul\":11928:11948   */\n      sub\n        /* \"#utility.yul\":11924:11925   */\n      0x00\n        /* \"#utility.yul\":11913:11922   */\n      dup4\n        /* \"#utility.yul\":11909:11926   */\n      add\n        /* \"#utility.yul\":11902:11949   */\n      mstore\n        /* \"#utility.yul\":11966:12097   */\n      tag_405\n        /* \"#utility.yul\":12092:12096   */\n      dup2\n        /* \"#utility.yul\":11966:12097   */\n      tag_235\n      jump\t// in\n    tag_405:\n        /* \"#utility.yul\":11958:12097   */\n      swap1\n      pop\n        /* \"#utility.yul\":11685:12104   */\n      swap2\n      swap1\n      pop\n      jump\t// out\n        /* \"#utility.yul\":12110:12280   */\n    tag_236:\n        /* \"#utility.yul\":12250:12272   */\n      0x5574656e7465206e6f6e2070726573656e746521000000000000000000000000\n        /* \"#utility.yul\":12246:12247   */\n      0x00\n        /* \"#utility.yul\":12238:12244   */\n      dup3\n        /* \"#utility.yul\":12234:12248   */\n      add\n        /* \"#utility.yul\":12227:12273   */\n      mstore\n        /* \"#utility.yul\":12110:12280   */\n      pop\n      jump\t// out\n        /* \"#utility.yul\":12286:12652   */\n    tag_237:\n        /* \"#utility.yul\":12428:12431   */\n      0x00\n        /* \"#utility.yul\":12449:12516   */\n      tag_408\n        /* \"#utility.yul\":12513:12515   */\n      0x14\n        /* \"#utility.yul\":12508:12511   */\n      dup4\n        /* \"#utility.yul\":12449:12516   */\n      tag_229\n      jump\t// in\n    tag_408:\n        /* \"#utility.yul\":12442:12516   */\n      swap2\n      pop\n        /* \"#utility.yul\":12525:12618   */\n      tag_409\n        /* \"#utility.yul\":12614:12617   */\n      dup3\n        /* \"#utility.yul\":12525:12618   */\n      tag_236\n      jump\t// in\n    tag_409:\n        /* \"#utility.yul\":12643:12645   */\n      0x20\n        /* \"#utility.yul\":12638:12641   */\n      dup3\n        /* \"#utility.yul\":12634:12646   */\n      add\n        /* \"#utility.yul\":12627:12646   */\n      swap1\n      pop\n        /* \"#utility.yul\":12286:12652   */\n      swap2\n      swap1\n      pop\n      jump\t// out\n        /* \"#utility.yul\":12658:13077   */\n    tag_70:\n        /* \"#utility.yul\":12824:12828   */\n      0x00\n        /* \"#utility.yul\":12862:12864   */\n      0x20\n        /* \"#utility.yul\":12851:12860   */\n      dup3\n        /* \"#utility.yul\":12847:12865   */\n      add\n        /* \"#utility.yul\":12839:12865   */\n      swap1\n      pop\n        /* \"#utility.yul\":12911:12920   */\n      dup2\n        /* \"#utility.yul\":12905:12909   */\n      dup2\n        /* \"#utility.yul\":12901:12921   */\n      sub\n        /* \"#utility.yul\":12897:12898   */\n      0x00\n        /* \"#utility.yul\":12886:12895   */\n      dup4\n        /* \"#utility.yul\":12882:12899   */\n      add\n        /* \"#utility.yul\":12875:12922   */\n      mstore\n        /* \"#utility.yul\":12939:13070   */\n      tag_411\n        /* \"#utility.yul\":13065:13069   */\n      dup2\n        /* \"#utility.yul\":12939:13070   */\n      tag_237\n      jump\t// in\n    tag_411:\n        /* \"#utility.yul\":12931:13070   */\n      swap1\n      pop\n        /* \"#utility.yul\":12658:13077   */\n      swap2\n      swap1\n      pop\n      jump\t// out\n        /* \"#utility.yul\":13083:13231   */\n    tag_238:\n        /* \"#utility.yul\":13185:13196   */\n      0x00\n        /* \"#utility.yul\":13222:13225   */\n      dup2\n        /* \"#utility.yul\":13207:13225   */\n      swap1\n      pop\n        /* \"#utility.yul\":13083:13231   */\n      swap3\n      swap2\n      pop\n      pop\n      jump\t// out\n        /* \"#utility.yul\":13237:13627   */\n    tag_239:\n        /* \"#utility.yul\":13343:13346   */\n      0x00\n        /* \"#utility.yul\":13371:13410   */\n      tag_414\n        /* \"#utility.yul\":13404:13409   */\n      dup3\n        /* \"#utility.yul\":13371:13410   */\n      tag_228\n      jump\t// in\n    tag_414:\n        /* \"#utility.yul\":13426:13515   */\n      tag_415\n        /* \"#utility.yul\":13508:13514   */\n      dup2\n        /* \"#utility.yul\":13503:13506   */\n      dup6\n        /* \"#utility.yul\":13426:13515   */\n      tag_238\n      jump\t// in\n    tag_415:\n        /* \"#utility.yul\":13419:13515   */\n      swap4\n      pop\n        /* \"#utility.yul\":13524:13589   */\n      tag_416\n        /* \"#utility.yul\":13582:13588   */\n      dup2\n        /* \"#utility.yul\":13577:13580   */\n      dup6\n        /* \"#utility.yul\":13570:13574   */\n      0x20\n        /* \"#utility.yul\":13563:13568   */\n      dup7\n        /* \"#utility.yul\":13559:13575   */\n      add\n        /* \"#utility.yul\":13524:13589   */\n      tag_230\n      jump\t// in\n    tag_416:\n        /* \"#utility.yul\":13614:13620   */\n      dup1\n        /* \"#utility.yul\":13609:13612   */\n      dup5\n        /* \"#utility.yul\":13605:13621   */\n      add\n        /* \"#utility.yul\":13598:13621   */\n      swap2\n      pop\n        /* \"#utility.yul\":13347:13627   */\n      pop\n        /* \"#utility.yul\":13237:13627   */\n      swap3\n      swap2\n      pop\n      pop\n      jump\t// out\n        /* \"#utility.yul\":13633:14068   */\n    tag_72:\n        /* \"#utility.yul\":13813:13816   */\n      0x00\n        /* \"#utility.yul\":13835:13930   */\n      tag_418\n        /* \"#utility.yul\":13926:13929   */\n      dup3\n        /* \"#utility.yul\":13917:13923   */\n      dup6\n        /* \"#utility.yul\":13835:13930   */\n      tag_239\n      jump\t// in\n    tag_418:\n        /* \"#utility.yul\":13828:13930   */\n      swap2\n      pop\n        /* \"#utility.yul\":13947:14042   */\n      tag_419\n        /* \"#utility.yul\":14038:14041   */\n      dup3\n        /* \"#utility.yul\":14029:14035   */\n      dup5\n        /* \"#utility.yul\":13947:14042   */\n      tag_239\n      jump\t// in\n    tag_419:\n        /* \"#utility.yul\":13940:14042   */\n      swap2\n      pop\n        /* \"#utility.yul\":14059:14062   */\n      dup2\n        /* \"#utility.yul\":14052:14062   */\n      swap1\n      pop\n        /* \"#utility.yul\":13633:14068   */\n      swap4\n      swap3\n      pop\n      pop\n      pop\n      jump\t// out\n        /* \"#utility.yul\":14074:14254   */\n    tag_240:\n        /* \"#utility.yul\":14122:14199   */\n      0x4e487b7100000000000000000000000000000000000000000000000000000000\n        /* \"#utility.yul\":14119:14120   */\n      0x00\n        /* \"#utility.yul\":14112:14200   */\n      mstore\n        /* \"#utility.yul\":14219:14223   */\n      0x22\n        /* \"#utility.yul\":14216:14217   */\n      0x04\n        /* \"#utility.yul\":14209:14224   */\n      mstore\n        /* \"#utility.yul\":14243:14247   */\n      0x24\n        /* \"#utility.yul\":14240:14241   */\n      0x00\n        /* \"#utility.yul\":14233:14248   */\n      revert\n        /* \"#utility.yul\":14260:14580   */\n    tag_124:\n        /* \"#utility.yul\":14304:14310   */\n      0x00\n        /* \"#utility.yul\":14341:14342   */\n      0x02\n        /* \"#utility.yul\":14335:14339   */\n      dup3\n        /* \"#utility.yul\":14331:14343   */\n      div\n        /* \"#utility.yul\":14321:14343   */\n      swap1\n      pop\n        /* \"#utility.yul\":14388:14389   */\n      0x01\n        /* \"#utility.yul\":14382:14386   */\n      dup3\n        /* \"#utility.yul\":14378:14390   */\n      and\n        /* \"#utility.yul\":14409:14427   */\n      dup1\n        /* \"#utility.yul\":14399:14480   */\n      tag_422\n      jumpi\n        /* \"#utility.yul\":14465:14469   */\n      0x7f\n        /* \"#utility.yul\":14457:14463   */\n      dup3\n        /* \"#utility.yul\":14453:14470   */\n      and\n        /* \"#utility.yul\":14443:14470   */\n      swap2\n      pop\n        /* \"#utility.yul\":14399:14480   */\n    tag_422:\n        /* \"#utility.yul\":14527:14529   */\n      0x20\n        /* \"#utility.yul\":14519:14525   */\n      dup3\n        /* \"#utility.yul\":14516:14530   */\n      lt\n        /* \"#utility.yul\":14496:14514   */\n      dup2\n        /* \"#utility.yul\":14493:14531   */\n      sub\n        /* \"#utility.yul\":14490:14574   */\n      tag_423\n      jumpi\n        /* \"#utility.yul\":14546:14564   */\n      tag_424\n      tag_240\n      jump\t// in\n    tag_424:\n        /* \"#utility.yul\":14490:14574   */\n    tag_423:\n        /* \"#utility.yul\":14311:14580   */\n      pop\n        /* \"#utility.yul\":14260:14580   */\n      swap2\n      swap1\n      pop\n      jump\t// out\n        /* \"#utility.yul\":14586:14727   */\n    tag_241:\n        /* \"#utility.yul\":14635:14639   */\n      0x00\n        /* \"#utility.yul\":14658:14661   */\n      dup2\n        /* \"#utility.yul\":14650:14661   */\n      swap1\n      pop\n        /* \"#utility.yul\":14681:14684   */\n      dup2\n        /* \"#utility.yul\":14678:14679   */\n      0x00\n        /* \"#utility.yul\":14671:14685   */\n      mstore\n        /* \"#utility.yul\":14715:14719   */\n      0x20\n        /* \"#utility.yul\":14712:14713   */\n      0x00\n        /* \"#utility.yul\":14702:14720   */\n      keccak256\n        /* \"#utility.yul\":14694:14720   */\n      swap1\n      pop\n        /* \"#utility.yul\":14586:14727   */\n      swap2\n      swap1\n      pop\n      jump\t// out\n        /* \"#utility.yul\":14757:15631   */\n    tag_242:\n        /* \"#utility.yul\":14860:14863   */\n      0x00\n        /* \"#utility.yul\":14897:14902   */\n      dup2\n        /* \"#utility.yul\":14891:14903   */\n      sload\n        /* \"#utility.yul\":14926:14962   */\n      tag_427\n        /* \"#utility.yul\":14952:14961   */\n      dup2\n        /* \"#utility.yul\":14926:14962   */\n      tag_124\n      jump\t// in\n    tag_427:\n        /* \"#utility.yul\":14978:15067   */\n      tag_428\n        /* \"#utility.yul\":15060:15066   */\n      dup2\n        /* \"#utility.yul\":15055:15058   */\n      dup7\n        /* \"#utility.yul\":14978:15067   */\n      tag_238\n      jump\t// in\n    tag_428:\n        /* \"#utility.yul\":14971:15067   */\n      swap5\n      pop\n        /* \"#utility.yul\":15098:15099   */\n      0x01\n        /* \"#utility.yul\":15087:15096   */\n      dup3\n        /* \"#utility.yul\":15083:15100   */\n      and\n        /* \"#utility.yul\":15114:15115   */\n      0x00\n        /* \"#utility.yul\":15109:15275   */\n      dup2\n      eq\n      tag_430\n      jumpi\n        /* \"#utility.yul\":15289:15290   */\n      0x01\n        /* \"#utility.yul\":15284:15625   */\n      dup2\n      eq\n      tag_431\n      jumpi\n        /* \"#utility.yul\":15076:15625   */\n      jump(tag_429)\n        /* \"#utility.yul\":15109:15275   */\n    tag_430:\n        /* \"#utility.yul\":15193:15197   */\n      0xff\n        /* \"#utility.yul\":15189:15198   */\n      not\n        /* \"#utility.yul\":15178:15187   */\n      dup4\n        /* \"#utility.yul\":15174:15199   */\n      and\n        /* \"#utility.yul\":15169:15172   */\n      dup7\n        /* \"#utility.yul\":15162:15200   */\n      mstore\n        /* \"#utility.yul\":15255:15261   */\n      dup2\n        /* \"#utility.yul\":15248:15262   */\n      iszero\n        /* \"#utility.yul\":15241:15263   */\n      iszero\n        /* \"#utility.yul\":15233:15239   */\n      dup3\n        /* \"#utility.yul\":15229:15264   */\n      mul\n        /* \"#utility.yul\":15224:15227   */\n      dup7\n        /* \"#utility.yul\":15220:15265   */\n      add\n        /* \"#utility.yul\":15213:15265   */\n      swap4\n      pop\n        /* \"#utility.yul\":15109:15275   */\n      jump(tag_429)\n        /* \"#utility.yul\":15284:15625   */\n    tag_431:\n        /* \"#utility.yul\":15351:15389   */\n      tag_432\n        /* \"#utility.yul\":15383:15388   */\n      dup6\n        /* \"#utility.yul\":15351:15389   */\n      tag_241\n      jump\t// in\n    tag_432:\n        /* \"#utility.yul\":15411:15412   */\n      0x00\n        /* \"#utility.yul\":15425:15579   */\n    tag_433:\n        /* \"#utility.yul\":15439:15445   */\n      dup4\n        /* \"#utility.yul\":15436:15437   */\n      dup2\n        /* \"#utility.yul\":15433:15446   */\n      lt\n        /* \"#utility.yul\":15425:15579   */\n      iszero\n      tag_435\n      jumpi\n        /* \"#utility.yul\":15513:15520   */\n      dup2\n        /* \"#utility.yul\":15507:15521   */\n      sload\n        /* \"#utility.yul\":15503:15504   */\n      dup2\n        /* \"#utility.yul\":15498:15501   */\n      dup10\n        /* \"#utility.yul\":15494:15505   */\n      add\n        /* \"#utility.yul\":15487:15522   */\n      mstore\n        /* \"#utility.yul\":15563:15564   */\n      0x01\n        /* \"#utility.yul\":15554:15561   */\n      dup3\n        /* \"#utility.yul\":15550:15565   */\n      add\n        /* \"#utility.yul\":15539:15565   */\n      swap2\n      pop\n        /* \"#utility.yul\":15461:15465   */\n      0x20\n        /* \"#utility.yul\":15458:15459   */\n      dup2\n        /* \"#utility.yul\":15454:15466   */\n      add\n        /* \"#utility.yul\":15449:15466   */\n      swap1\n      pop\n        /* \"#utility.yul\":15425:15579   */\n      jump(tag_433)\n    tag_435:\n        /* \"#utility.yul\":15608:15614   */\n      dup4\n        /* \"#utility.yul\":15603:15606   */\n      dup9\n        /* \"#utility.yul\":15599:15615   */\n      add\n        /* \"#utility.yul\":15592:15615   */\n      swap6\n      pop\n        /* \"#utility.yul\":15291:15625   */\n      pop\n      pop\n        /* \"#utility.yul\":15076:15625   */\n    tag_429:\n      pop\n        /* \"#utility.yul\":14864:15631   */\n      pop\n      pop\n        /* \"#utility.yul\":14757:15631   */\n      swap3\n      swap2\n      pop\n      pop\n      jump\t// out\n        /* \"#utility.yul\":15637:16060   */\n    tag_74:\n        /* \"#utility.yul\":15811:15814   */\n      0x00\n        /* \"#utility.yul\":15833:15925   */\n      tag_437\n        /* \"#utility.yul\":15921:15924   */\n      dup3\n        /* \"#utility.yul\":15912:15918   */\n      dup6\n        /* \"#utility.yul\":15833:15925   */\n      tag_242\n      jump\t// in\n    tag_437:\n        /* \"#utility.yul\":15826:15925   */\n      swap2\n      pop\n        /* \"#utility.yul\":15942:16034   */\n      tag_438\n        /* \"#utility.yul\":16030:16033   */\n      dup3\n        /* \"#utility.yul\":16021:16027   */\n      dup5\n        /* \"#utility.yul\":15942:16034   */\n      tag_242\n      jump\t// in\n    tag_438:\n        /* \"#utility.yul\":15935:16034   */\n      swap2\n      pop\n        /* \"#utility.yul\":16051:16054   */\n      dup2\n        /* \"#utility.yul\":16044:16054   */\n      swap1\n      pop\n        /* \"#utility.yul\":15637:16060   */\n      swap4\n      swap3\n      pop\n      pop\n      pop\n      jump\t// out\n        /* \"#utility.yul\":16066:16184   */\n    tag_243:\n        /* \"#utility.yul\":16153:16177   */\n      tag_440\n        /* \"#utility.yul\":16171:16176   */\n      dup2\n        /* \"#utility.yul\":16153:16177   */\n      tag_209\n      jump\t// in\n    tag_440:\n        /* \"#utility.yul\":16148:16151   */\n      dup3\n        /* \"#utility.yul\":16141:16178   */\n      mstore\n        /* \"#utility.yul\":16066:16184   */\n      pop\n      pop\n      jump\t// out\n        /* \"#utility.yul\":16190:16412   */\n    tag_77:\n        /* \"#utility.yul\":16283:16287   */\n      0x00\n        /* \"#utility.yul\":16321:16323   */\n      0x20\n        /* \"#utility.yul\":16310:16319   */\n      dup3\n        /* \"#utility.yul\":16306:16324   */\n      add\n        /* \"#utility.yul\":16298:16324   */\n      swap1\n      pop\n        /* \"#utility.yul\":16334:16405   */\n      tag_442\n        /* \"#utility.yul\":16402:16403   */\n      0x00\n        /* \"#utility.yul\":16391:16400   */\n      dup4\n        /* \"#utility.yul\":16387:16404   */\n      add\n        /* \"#utility.yul\":16378:16384   */\n      dup5\n        /* \"#utility.yul\":16334:16405   */\n      tag_243\n      jump\t// in\n    tag_442:\n        /* \"#utility.yul\":16190:16412   */\n      swap3\n      swap2\n      pop\n      pop\n      jump\t// out\n        /* \"#utility.yul\":16418:16534   */\n    tag_244:\n        /* \"#utility.yul\":16488:16509   */\n      tag_444\n        /* \"#utility.yul\":16503:16508   */\n      dup2\n        /* \"#utility.yul\":16488:16509   */\n      tag_222\n      jump\t// in\n    tag_444:\n        /* \"#utility.yul\":16481:16486   */\n      dup2\n        /* \"#utility.yul\":16478:16510   */\n      eq\n        /* \"#utility.yul\":16468:16528   */\n      tag_445\n      jumpi\n        /* \"#utility.yul\":16524:16525   */\n      0x00\n        /* \"#utility.yul\":16521:16522   */\n      dup1\n        /* \"#utility.yul\":16514:16526   */\n      revert\n        /* \"#utility.yul\":16468:16528   */\n    tag_445:\n        /* \"#utility.yul\":16418:16534   */\n      pop\n      jump\t// out\n        /* \"#utility.yul\":16540:16677   */\n    tag_245:\n        /* \"#utility.yul\":16594:16599   */\n      0x00\n        /* \"#utility.yul\":16625:16631   */\n      dup2\n        /* \"#utility.yul\":16619:16632   */\n      mload\n        /* \"#utility.yul\":16610:16632   */\n      swap1\n      pop\n        /* \"#utility.yul\":16641:16671   */\n      tag_447\n        /* \"#utility.yul\":16665:16670   */\n      dup2\n        /* \"#utility.yul\":16641:16671   */\n      tag_244\n      jump\t// in\n    tag_447:\n        /* \"#utility.yul\":16540:16677   */\n      swap3\n      swap2\n      pop\n      pop\n      jump\t// out\n        /* \"#utility.yul\":16683:17028   */\n    tag_81:\n        /* \"#utility.yul\":16750:16756   */\n      0x00\n        /* \"#utility.yul\":16799:16801   */\n      0x20\n        /* \"#utility.yul\":16787:16796   */\n      dup3\n        /* \"#utility.yul\":16778:16785   */\n      dup5\n        /* \"#utility.yul\":16774:16797   */\n      sub\n        /* \"#utility.yul\":16770:16802   */\n      slt\n        /* \"#utility.yul\":16767:16886   */\n      iszero\n      tag_449\n      jumpi\n        /* \"#utility.yul\":16805:16884   */\n      tag_450\n      tag_206\n      jump\t// in\n    tag_450:\n        /* \"#utility.yul\":16767:16886   */\n    tag_449:\n        /* \"#utility.yul\":16925:16926   */\n      0x00\n        /* \"#utility.yul\":16950:17011   */\n      tag_451\n        /* \"#utility.yul\":17003:17010   */\n      dup5\n        /* \"#utility.yul\":16994:17000   */\n      dup3\n        /* \"#utility.yul\":16983:16992   */\n      dup6\n        /* \"#utility.yul\":16979:17001   */\n      add\n        /* \"#utility.yul\":16950:17011   */\n      tag_245\n      jump\t// in\n    tag_451:\n        /* \"#utility.yul\":16940:17011   */\n      swap2\n      pop\n        /* \"#utility.yul\":16896:17021   */\n      pop\n        /* \"#utility.yul\":16683:17028   */\n      swap3\n      swap2\n      pop\n      pop\n      jump\t// out\n        /* \"#utility.yul\":17034:17199   */\n    tag_246:\n        /* \"#utility.yul\":17174:17191   */\n      0x55736572204e6f7420466f756e64210000000000000000000000000000000000\n        /* \"#utility.yul\":17170:17171   */\n      0x00\n        /* \"#utility.yul\":17162:17168   */\n      dup3\n        /* \"#utility.yul\":17158:17172   */\n      add\n        /* \"#utility.yul\":17151:17192   */\n      mstore\n        /* \"#utility.yul\":17034:17199   */\n      pop\n      jump\t// out\n        /* \"#utility.yul\":17205:17571   */\n    tag_247:\n        /* \"#utility.yul\":17347:17350   */\n      0x00\n        /* \"#utility.yul\":17368:17435   */\n      tag_454\n        /* \"#utility.yul\":17432:17434   */\n      0x0f\n        /* \"#utility.yul\":17427:17430   */\n      dup4\n        /* \"#utility.yul\":17368:17435   */\n      tag_229\n      jump\t// in\n    tag_454:\n        /* \"#utility.yul\":17361:17435   */\n      swap2\n      pop\n        /* \"#utility.yul\":17444:17537   */\n      tag_455\n        /* \"#utility.yul\":17533:17536   */\n      dup3\n        /* \"#utility.yul\":17444:17537   */\n      tag_246\n      jump\t// in\n    tag_455:\n        /* \"#utility.yul\":17562:17564   */\n      0x20\n        /* \"#utility.yul\":17557:17560   */\n      dup3\n        /* \"#utility.yul\":17553:17565   */\n      add\n        /* \"#utility.yul\":17546:17565   */\n      swap1\n      pop\n        /* \"#utility.yul\":17205:17571   */\n      swap2\n      swap1\n      pop\n      jump\t// out\n        /* \"#utility.yul\":17577:17996   */\n    tag_84:\n        /* \"#utility.yul\":17743:17747   */\n      0x00\n        /* \"#utility.yul\":17781:17783   */\n      0x20\n        /* \"#utility.yul\":17770:17779   */\n      dup3\n        /* \"#utility.yul\":17766:17784   */\n      add\n        /* \"#utility.yul\":17758:17784   */\n      swap1\n      pop\n        /* \"#utility.yul\":17830:17839   */\n      dup2\n        /* \"#utility.yul\":17824:17828   */\n      dup2\n        /* \"#utility.yul\":17820:17840   */\n      sub\n        /* \"#utility.yul\":17816:17817   */\n      0x00\n        /* \"#utility.yul\":17805:17814   */\n      dup4\n        /* \"#utility.yul\":17801:17818   */\n      add\n        /* \"#utility.yul\":17794:17841   */\n      mstore\n        /* \"#utility.yul\":17858:17989   */\n      tag_457\n        /* \"#utility.yul\":17984:17988   */\n      dup2\n        /* \"#utility.yul\":17858:17989   */\n      tag_247\n      jump\t// in\n    tag_457:\n        /* \"#utility.yul\":17850:17989   */\n      swap1\n      pop\n        /* \"#utility.yul\":17577:17996   */\n      swap2\n      swap1\n      pop\n      jump\t// out\n        /* \"#utility.yul\":18002:18169   */\n    tag_248:\n        /* \"#utility.yul\":18142:18161   */\n      0x537472756374206e6f742056616c696421000000000000000000000000000000\n        /* \"#utility.yul\":18138:18139   */\n      0x00\n        /* \"#utility.yul\":18130:18136   */\n      dup3\n        /* \"#utility.yul\":18126:18140   */\n      add\n        /* \"#utility.yul\":18119:18162   */\n      mstore\n        /* \"#utility.yul\":18002:18169   */\n      pop\n      jump\t// out\n        /* \"#utility.yul\":18175:18541   */\n    tag_249:\n        /* \"#utility.yul\":18317:18320   */\n      0x00\n        /* \"#utility.yul\":18338:18405   */\n      tag_460\n        /* \"#utility.yul\":18402:18404   */\n      0x11\n        /* \"#utility.yul\":18397:18400   */\n      dup4\n        /* \"#utility.yul\":18338:18405   */\n      tag_229\n      jump\t// in\n    tag_460:\n        /* \"#utility.yul\":18331:18405   */\n      swap2\n      pop\n        /* \"#utility.yul\":18414:18507   */\n      tag_461\n        /* \"#utility.yul\":18503:18506   */\n      dup3\n        /* \"#utility.yul\":18414:18507   */\n      tag_248\n      jump\t// in\n    tag_461:\n        /* \"#utility.yul\":18532:18534   */\n      0x20\n        /* \"#utility.yul\":18527:18530   */\n      dup3\n        /* \"#utility.yul\":18523:18535   */\n      add\n        /* \"#utility.yul\":18516:18535   */\n      swap1\n      pop\n        /* \"#utility.yul\":18175:18541   */\n      swap2\n      swap1\n      pop\n      jump\t// out\n        /* \"#utility.yul\":18547:18966   */\n    tag_87:\n        /* \"#utility.yul\":18713:18717   */\n      0x00\n        /* \"#utility.yul\":18751:18753   */\n      0x20\n        /* \"#utility.yul\":18740:18749   */\n      dup3\n        /* \"#utility.yul\":18736:18754   */\n      add\n        /* \"#utility.yul\":18728:18754   */\n      swap1\n      pop\n        /* \"#utility.yul\":18800:18809   */\n      dup2\n        /* \"#utility.yul\":18794:18798   */\n      dup2\n        /* \"#utility.yul\":18790:18810   */\n      sub\n        /* \"#utility.yul\":18786:18787   */\n      0x00\n        /* \"#utility.yul\":18775:18784   */\n      dup4\n        /* \"#utility.yul\":18771:18788   */\n      add\n        /* \"#utility.yul\":18764:18811   */\n      mstore\n        /* \"#utility.yul\":18828:18959   */\n      tag_463\n        /* \"#utility.yul\":18954:18958   */\n      dup2\n        /* \"#utility.yul\":18828:18959   */\n      tag_249\n      jump\t// in\n    tag_463:\n        /* \"#utility.yul\":18820:18959   */\n      swap1\n      pop\n        /* \"#utility.yul\":18547:18966   */\n      swap2\n      swap1\n      pop\n      jump\t// out\n        /* \"#utility.yul\":18972:19136   */\n    tag_250:\n        /* \"#utility.yul\":19112:19128   */\n      0x55736572204e6f7420466f756e64000000000000000000000000000000000000\n        /* \"#utility.yul\":19108:19109   */\n      0x00\n        /* \"#utility.yul\":19100:19106   */\n      dup3\n        /* \"#utility.yul\":19096:19110   */\n      add\n        /* \"#utility.yul\":19089:19129   */\n      mstore\n        /* \"#utility.yul\":18972:19136   */\n      pop\n      jump\t// out\n        /* \"#utility.yul\":19142:19508   */\n    tag_251:\n        /* \"#utility.yul\":19284:19287   */\n      0x00\n        /* \"#utility.yul\":19305:19372   */\n      tag_466\n        /* \"#utility.yul\":19369:19371   */\n      0x0e\n        /* \"#utility.yul\":19364:19367   */\n      dup4\n        /* \"#utility.yul\":19305:19372   */\n      tag_229\n      jump\t// in\n    tag_466:\n        /* \"#utility.yul\":19298:19372   */\n      swap2\n      pop\n        /* \"#utility.yul\":19381:19474   */\n      tag_467\n        /* \"#utility.yul\":19470:19473   */\n      dup3\n        /* \"#utility.yul\":19381:19474   */\n      tag_250\n      jump\t// in\n    tag_467:\n        /* \"#utility.yul\":19499:19501   */\n      0x20\n        /* \"#utility.yul\":19494:19497   */\n      dup3\n        /* \"#utility.yul\":19490:19502   */\n      add\n        /* \"#utility.yul\":19483:19502   */\n      swap1\n      pop\n        /* \"#utility.yul\":19142:19508   */\n      swap2\n      swap1\n      pop\n      jump\t// out\n        /* \"#utility.yul\":19514:19933   */\n    tag_95:\n        /* \"#utility.yul\":19680:19684   */\n      0x00\n        /* \"#utility.yul\":19718:19720   */\n      0x20\n        /* \"#utility.yul\":19707:19716   */\n      dup3\n        /* \"#utility.yul\":19703:19721   */\n      add\n        /* \"#utility.yul\":19695:19721   */\n      swap1\n      pop\n        /* \"#utility.yul\":19767:19776   */\n      dup2\n        /* \"#utility.yul\":19761:19765   */\n      dup2\n        /* \"#utility.yul\":19757:19777   */\n      sub\n        /* \"#utility.yul\":19753:19754   */\n      0x00\n        /* \"#utility.yul\":19742:19751   */\n      dup4\n        /* \"#utility.yul\":19738:19755   */\n      add\n        /* \"#utility.yul\":19731:19778   */\n      mstore\n        /* \"#utility.yul\":19795:19926   */\n      tag_469\n        /* \"#utility.yul\":19921:19925   */\n      dup2\n        /* \"#utility.yul\":19795:19926   */\n      tag_251\n      jump\t// in\n    tag_469:\n        /* \"#utility.yul\":19787:19926   */\n      swap1\n      pop\n        /* \"#utility.yul\":19514:19933   */\n      swap2\n      swap1\n      pop\n      jump\t// out\n        /* \"#utility.yul\":19939:20033   */\n    tag_252:\n        /* \"#utility.yul\":19972:19980   */\n      0x00\n        /* \"#utility.yul\":20020:20025   */\n      dup2\n        /* \"#utility.yul\":20016:20018   */\n      0x60\n        /* \"#utility.yul\":20012:20026   */\n      shl\n        /* \"#utility.yul\":19991:20026   */\n      swap1\n      pop\n        /* \"#utility.yul\":19939:20033   */\n      swap2\n      swap1\n      pop\n      jump\t// out\n        /* \"#utility.yul\":20039:20133   */\n    tag_253:\n        /* \"#utility.yul\":20078:20085   */\n      0x00\n        /* \"#utility.yul\":20107:20127   */\n      tag_472\n        /* \"#utility.yul\":20121:20126   */\n      dup3\n        /* \"#utility.yul\":20107:20127   */\n      tag_252\n      jump\t// in\n    tag_472:\n        /* \"#utility.yul\":20096:20127   */\n      swap1\n      pop\n        /* \"#utility.yul\":20039:20133   */\n      swap2\n      swap1\n      pop\n      jump\t// out\n        /* \"#utility.yul\":20139:20239   */\n    tag_254:\n        /* \"#utility.yul\":20178:20185   */\n      0x00\n        /* \"#utility.yul\":20207:20233   */\n      tag_474\n        /* \"#utility.yul\":20227:20232   */\n      dup3\n        /* \"#utility.yul\":20207:20233   */\n      tag_253\n      jump\t// in\n    tag_474:\n        /* \"#utility.yul\":20196:20233   */\n      swap1\n      pop\n        /* \"#utility.yul\":20139:20239   */\n      swap2\n      swap1\n      pop\n      jump\t// out\n        /* \"#utility.yul\":20245:20402   */\n    tag_255:\n        /* \"#utility.yul\":20350:20395   */\n      tag_476\n        /* \"#utility.yul\":20370:20394   */\n      tag_477\n        /* \"#utility.yul\":20388:20393   */\n      dup3\n        /* \"#utility.yul\":20370:20394   */\n      tag_209\n      jump\t// in\n    tag_477:\n        /* \"#utility.yul\":20350:20395   */\n      tag_254\n      jump\t// in\n    tag_476:\n        /* \"#utility.yul\":20345:20348   */\n      dup3\n        /* \"#utility.yul\":20338:20396   */\n      mstore\n        /* \"#utility.yul\":20245:20402   */\n      pop\n      pop\n      jump\t// out\n        /* \"#utility.yul\":20408:21126   */\n    tag_97:\n        /* \"#utility.yul\":20655:20658   */\n      0x00\n        /* \"#utility.yul\":20677:20769   */\n      tag_479\n        /* \"#utility.yul\":20765:20768   */\n      dup3\n        /* \"#utility.yul\":20756:20762   */\n      dup8\n        /* \"#utility.yul\":20677:20769   */\n      tag_242\n      jump\t// in\n    tag_479:\n        /* \"#utility.yul\":20670:20769   */\n      swap2\n      pop\n        /* \"#utility.yul\":20786:20878   */\n      tag_480\n        /* \"#utility.yul\":20874:20877   */\n      dup3\n        /* \"#utility.yul\":20865:20871   */\n      dup7\n        /* \"#utility.yul\":20786:20878   */\n      tag_242\n      jump\t// in\n    tag_480:\n        /* \"#utility.yul\":20779:20878   */\n      swap2\n      pop\n        /* \"#utility.yul\":20895:20987   */\n      tag_481\n        /* \"#utility.yul\":20983:20986   */\n      dup3\n        /* \"#utility.yul\":20974:20980   */\n      dup6\n        /* \"#utility.yul\":20895:20987   */\n      tag_242\n      jump\t// in\n    tag_481:\n        /* \"#utility.yul\":20888:20987   */\n      swap2\n      pop\n        /* \"#utility.yul\":20997:21072   */\n      tag_482\n        /* \"#utility.yul\":21068:21071   */\n      dup3\n        /* \"#utility.yul\":21059:21065   */\n      dup5\n        /* \"#utility.yul\":20997:21072   */\n      tag_255\n      jump\t// in\n    tag_482:\n        /* \"#utility.yul\":21097:21099   */\n      0x14\n        /* \"#utility.yul\":21092:21095   */\n      dup3\n        /* \"#utility.yul\":21088:21100   */\n      add\n        /* \"#utility.yul\":21081:21100   */\n      swap2\n      pop\n        /* \"#utility.yul\":21117:21120   */\n      dup2\n        /* \"#utility.yul\":21110:21120   */\n      swap1\n      pop\n        /* \"#utility.yul\":20408:21126   */\n      swap6\n      swap5\n      pop\n      pop\n      pop\n      pop\n      pop\n      jump\t// out\n        /* \"#utility.yul\":21132:21305   */\n    tag_256:\n        /* \"#utility.yul\":21272:21297   */\n      0x5574656e7465206e6f6e204175746f72697a7a61746f21000000000000000000\n        /* \"#utility.yul\":21268:21269   */\n      0x00\n        /* \"#utility.yul\":21260:21266   */\n      dup3\n        /* \"#utility.yul\":21256:21270   */\n      add\n        /* \"#utility.yul\":21249:21298   */\n      mstore\n        /* \"#utility.yul\":21132:21305   */\n      pop\n      jump\t// out\n        /* \"#utility.yul\":21311:21677   */\n    tag_257:\n        /* \"#utility.yul\":21453:21456   */\n      0x00\n        /* \"#utility.yul\":21474:21541   */\n      tag_485\n        /* \"#utility.yul\":21538:21540   */\n      0x17\n        /* \"#utility.yul\":21533:21536   */\n      dup4\n        /* \"#utility.yul\":21474:21541   */\n      tag_229\n      jump\t// in\n    tag_485:\n        /* \"#utility.yul\":21467:21541   */\n      swap2\n      pop\n        /* \"#utility.yul\":21550:21643   */\n      tag_486\n        /* \"#utility.yul\":21639:21642   */\n      dup3\n        /* \"#utility.yul\":21550:21643   */\n      tag_256\n      jump\t// in\n    tag_486:\n        /* \"#utility.yul\":21668:21670   */\n      0x20\n        /* \"#utility.yul\":21663:21666   */\n      dup3\n        /* \"#utility.yul\":21659:21671   */\n      add\n        /* \"#utility.yul\":21652:21671   */\n      swap1\n      pop\n        /* \"#utility.yul\":21311:21677   */\n      swap2\n      swap1\n      pop\n      jump\t// out\n        /* \"#utility.yul\":21683:22102   */\n    tag_100:\n        /* \"#utility.yul\":21849:21853   */\n      0x00\n        /* \"#utility.yul\":21887:21889   */\n      0x20\n        /* \"#utility.yul\":21876:21885   */\n      dup3\n        /* \"#utility.yul\":21872:21890   */\n      add\n        /* \"#utility.yul\":21864:21890   */\n      swap1\n      pop\n        /* \"#utility.yul\":21936:21945   */\n      dup2\n        /* \"#utility.yul\":21930:21934   */\n      dup2\n        /* \"#utility.yul\":21926:21946   */\n      sub\n        /* \"#utility.yul\":21922:21923   */\n      0x00\n        /* \"#utility.yul\":21911:21920   */\n      dup4\n        /* \"#utility.yul\":21907:21924   */\n      add\n        /* \"#utility.yul\":21900:21947   */\n      mstore\n        /* \"#utility.yul\":21964:22095   */\n      tag_488\n        /* \"#utility.yul\":22090:22094   */\n      dup2\n        /* \"#utility.yul\":21964:22095   */\n      tag_257\n      jump\t// in\n    tag_488:\n        /* \"#utility.yul\":21956:22095   */\n      swap1\n      pop\n        /* \"#utility.yul\":21683:22102   */\n      swap2\n      swap1\n      pop\n      jump\t// out\n        /* \"#utility.yul\":22108:22275   */\n    tag_258:\n        /* \"#utility.yul\":22248:22267   */\n      0x42616c616e6365204e6f742056616c6964000000000000000000000000000000\n        /* \"#utility.yul\":22244:22245   */\n      0x00\n        /* \"#utility.yul\":22236:22242   */\n      dup3\n        /* \"#utility.yul\":22232:22246   */\n      add\n        /* \"#utility.yul\":22225:22268   */\n      mstore\n        /* \"#utility.yul\":22108:22275   */\n      pop\n      jump\t// out\n        /* \"#utility.yul\":22281:22647   */\n    tag_259:\n        /* \"#utility.yul\":22423:22426   */\n      0x00\n        /* \"#utility.yul\":22444:22511   */\n      tag_491\n        /* \"#utility.yul\":22508:22510   */\n      0x11\n        /* \"#utility.yul\":22503:22506   */\n      dup4\n        /* \"#utility.yul\":22444:22511   */\n      tag_229\n      jump\t// in\n    tag_491:\n        /* \"#utility.yul\":22437:22511   */\n      swap2\n      pop\n        /* \"#utility.yul\":22520:22613   */\n      tag_492\n        /* \"#utility.yul\":22609:22612   */\n      dup3\n        /* \"#utility.yul\":22520:22613   */\n      tag_258\n      jump\t// in\n    tag_492:\n        /* \"#utility.yul\":22638:22640   */\n      0x20\n        /* \"#utility.yul\":22633:22636   */\n      dup3\n        /* \"#utility.yul\":22629:22641   */\n      add\n        /* \"#utility.yul\":22622:22641   */\n      swap1\n      pop\n        /* \"#utility.yul\":22281:22647   */\n      swap2\n      swap1\n      pop\n      jump\t// out\n        /* \"#utility.yul\":22653:23072   */\n    tag_150:\n        /* \"#utility.yul\":22819:22823   */\n      0x00\n        /* \"#utility.yul\":22857:22859   */\n      0x20\n        /* \"#utility.yul\":22846:22855   */\n      dup3\n        /* \"#utility.yul\":22842:22860   */\n      add\n        /* \"#utility.yul\":22834:22860   */\n      swap1\n      pop\n        /* \"#utility.yul\":22906:22915   */\n      dup2\n        /* \"#utility.yul\":22900:22904   */\n      dup2\n        /* \"#utility.yul\":22896:22916   */\n      sub\n        /* \"#utility.yul\":22892:22893   */\n      0x00\n        /* \"#utility.yul\":22881:22890   */\n      dup4\n        /* \"#utility.yul\":22877:22894   */\n      add\n        /* \"#utility.yul\":22870:22917   */\n      mstore\n        /* \"#utility.yul\":22934:23065   */\n      tag_494\n        /* \"#utility.yul\":23060:23064   */\n      dup2\n        /* \"#utility.yul\":22934:23065   */\n      tag_259\n      jump\t// in\n    tag_494:\n        /* \"#utility.yul\":22926:23065   */\n      swap1\n      pop\n        /* \"#utility.yul\":22653:23072   */\n      swap2\n      swap1\n      pop\n      jump\t// out\n        /* \"#utility.yul\":23078:23255   */\n    tag_260:\n        /* \"#utility.yul\":23218:23247   */\n      0x41646472657373204d696c6b487562206e6f6e2076616c69646f210000000000\n        /* \"#utility.yul\":23214:23215   */\n      0x00\n        /* \"#utility.yul\":23206:23212   */\n      dup3\n        /* \"#utility.yul\":23202:23216   */\n      add\n        /* \"#utility.yul\":23195:23248   */\n      mstore\n        /* \"#utility.yul\":23078:23255   */\n      pop\n      jump\t// out\n        /* \"#utility.yul\":23261:23627   */\n    tag_261:\n        /* \"#utility.yul\":23403:23406   */\n      0x00\n        /* \"#utility.yul\":23424:23491   */\n      tag_497\n        /* \"#utility.yul\":23488:23490   */\n      0x1b\n        /* \"#utility.yul\":23483:23486   */\n      dup4\n        /* \"#utility.yul\":23424:23491   */\n      tag_229\n      jump\t// in\n    tag_497:\n        /* \"#utility.yul\":23417:23491   */\n      swap2\n      pop\n        /* \"#utility.yul\":23500:23593   */\n      tag_498\n        /* \"#utility.yul\":23589:23592   */\n      dup3\n        /* \"#utility.yul\":23500:23593   */\n      tag_260\n      jump\t// in\n    tag_498:\n        /* \"#utility.yul\":23618:23620   */\n      0x20\n        /* \"#utility.yul\":23613:23616   */\n      dup3\n        /* \"#utility.yul\":23609:23621   */\n      add\n        /* \"#utility.yul\":23602:23621   */\n      swap1\n      pop\n        /* \"#utility.yul\":23261:23627   */\n      swap2\n      swap1\n      pop\n      jump\t// out\n        /* \"#utility.yul\":23633:24052   */\n    tag_162:\n        /* \"#utility.yul\":23799:23803   */\n      0x00\n        /* \"#utility.yul\":23837:23839   */\n      0x20\n        /* \"#utility.yul\":23826:23835   */\n      dup3\n        /* \"#utility.yul\":23822:23840   */\n      add\n        /* \"#utility.yul\":23814:23840   */\n      swap1\n      pop\n        /* \"#utility.yul\":23886:23895   */\n      dup2\n        /* \"#utility.yul\":23880:23884   */\n      dup2\n        /* \"#utility.yul\":23876:23896   */\n      sub\n        /* \"#utility.yul\":23872:23873   */\n      0x00\n        /* \"#utility.yul\":23861:23870   */\n      dup4\n        /* \"#utility.yul\":23857:23874   */\n      add\n        /* \"#utility.yul\":23850:23897   */\n      mstore\n        /* \"#utility.yul\":23914:24045   */\n      tag_500\n        /* \"#utility.yul\":24040:24044   */\n      dup2\n        /* \"#utility.yul\":23914:24045   */\n      tag_261\n      jump\t// in\n    tag_500:\n        /* \"#utility.yul\":23906:24045   */\n      swap1\n      pop\n        /* \"#utility.yul\":23633:24052   */\n      swap2\n      swap1\n      pop\n      jump\t// out\n        /* \"#utility.yul\":24058:24794   */\n    tag_167:\n        /* \"#utility.yul\":24314:24317   */\n      0x00\n        /* \"#utility.yul\":24336:24431   */\n      tag_502\n        /* \"#utility.yul\":24427:24430   */\n      dup3\n        /* \"#utility.yul\":24418:24424   */\n      dup8\n        /* \"#utility.yul\":24336:24431   */\n      tag_239\n      jump\t// in\n    tag_502:\n        /* \"#utility.yul\":24329:24431   */\n      swap2\n      pop\n        /* \"#utility.yul\":24448:24543   */\n      tag_503\n        /* \"#utility.yul\":24539:24542   */\n      dup3\n        /* \"#utility.yul\":24530:24536   */\n      dup7\n        /* \"#utility.yul\":24448:24543   */\n      tag_239\n      jump\t// in\n    tag_503:\n        /* \"#utility.yul\":24441:24543   */\n      swap2\n      pop\n        /* \"#utility.yul\":24560:24655   */\n      tag_504\n        /* \"#utility.yul\":24651:24654   */\n      dup3\n        /* \"#utility.yul\":24642:24648   */\n      dup6\n        /* \"#utility.yul\":24560:24655   */\n      tag_239\n      jump\t// in\n    tag_504:\n        /* \"#utility.yul\":24553:24655   */\n      swap2\n      pop\n        /* \"#utility.yul\":24665:24740   */\n      tag_505\n        /* \"#utility.yul\":24736:24739   */\n      dup3\n        /* \"#utility.yul\":24727:24733   */\n      dup5\n        /* \"#utility.yul\":24665:24740   */\n      tag_255\n      jump\t// in\n    tag_505:\n        /* \"#utility.yul\":24765:24767   */\n      0x14\n        /* \"#utility.yul\":24760:24763   */\n      dup3\n        /* \"#utility.yul\":24756:24768   */\n      add\n        /* \"#utility.yul\":24749:24768   */\n      swap2\n      pop\n        /* \"#utility.yul\":24785:24788   */\n      dup2\n        /* \"#utility.yul\":24778:24788   */\n      swap1\n      pop\n        /* \"#utility.yul\":24058:24794   */\n      swap6\n      swap5\n      pop\n      pop\n      pop\n      pop\n      pop\n      jump\t// out\n        /* \"#utility.yul\":24800:24976   */\n    tag_262:\n        /* \"#utility.yul\":24940:24968   */\n      0x4d696c6b48756220616c72656164792072656769737465726564000000000000\n        /* \"#utility.yul\":24936:24937   */\n      0x00\n        /* \"#utility.yul\":24928:24934   */\n      dup3\n        /* \"#utility.yul\":24924:24938   */\n      add\n        /* \"#utility.yul\":24917:24969   */\n      mstore\n        /* \"#utility.yul\":24800:24976   */\n      pop\n      jump\t// out\n        /* \"#utility.yul\":24982:25348   */\n    tag_263:\n        /* \"#utility.yul\":25124:25127   */\n      0x00\n        /* \"#utility.yul\":25145:25212   */\n      tag_508\n        /* \"#utility.yul\":25209:25211   */\n      0x1a\n        /* \"#utility.yul\":25204:25207   */\n      dup4\n        /* \"#utility.yul\":25145:25212   */\n      tag_229\n      jump\t// in\n    tag_508:\n        /* \"#utility.yul\":25138:25212   */\n      swap2\n      pop\n        /* \"#utility.yul\":25221:25314   */\n      tag_509\n        /* \"#utility.yul\":25310:25313   */\n      dup3\n        /* \"#utility.yul\":25221:25314   */\n      tag_262\n      jump\t// in\n    tag_509:\n        /* \"#utility.yul\":25339:25341   */\n      0x20\n        /* \"#utility.yul\":25334:25337   */\n      dup3\n        /* \"#utility.yul\":25330:25342   */\n      add\n        /* \"#utility.yul\":25323:25342   */\n      swap1\n      pop\n        /* \"#utility.yul\":24982:25348   */\n      swap2\n      swap1\n      pop\n      jump\t// out\n        /* \"#utility.yul\":25354:25773   */\n    tag_170:\n        /* \"#utility.yul\":25520:25524   */\n      0x00\n        /* \"#utility.yul\":25558:25560   */\n      0x20\n        /* \"#utility.yul\":25547:25556   */\n      dup3\n        /* \"#utility.yul\":25543:25561   */\n      add\n        /* \"#utility.yul\":25535:25561   */\n      swap1\n      pop\n        /* \"#utility.yul\":25607:25616   */\n      dup2\n        /* \"#utility.yul\":25601:25605   */\n      dup2\n        /* \"#utility.yul\":25597:25617   */\n      sub\n        /* \"#utility.yul\":25593:25594   */\n      0x00\n        /* \"#utility.yul\":25582:25591   */\n      dup4\n        /* \"#utility.yul\":25578:25595   */\n      add\n        /* \"#utility.yul\":25571:25618   */\n      mstore\n        /* \"#utility.yul\":25635:25766   */\n      tag_511\n        /* \"#utility.yul\":25761:25765   */\n      dup2\n        /* \"#utility.yul\":25635:25766   */\n      tag_263\n      jump\t// in\n    tag_511:\n        /* \"#utility.yul\":25627:25766   */\n      swap1\n      pop\n        /* \"#utility.yul\":25354:25773   */\n      swap2\n      swap1\n      pop\n      jump\t// out\n        /* \"#utility.yul\":25779:25954   */\n    tag_264:\n        /* \"#utility.yul\":25919:25946   */\n      0x46756c6c206e616d652063616e6e6f7420626520656d70747900000000000000\n        /* \"#utility.yul\":25915:25916   */\n      0x00\n        /* \"#utility.yul\":25907:25913   */\n      dup3\n        /* \"#utility.yul\":25903:25917   */\n      add\n        /* \"#utility.yul\":25896:25947   */\n      mstore\n        /* \"#utility.yul\":25779:25954   */\n      pop\n      jump\t// out\n        /* \"#utility.yul\":25960:26326   */\n    tag_265:\n        /* \"#utility.yul\":26102:26105   */\n      0x00\n        /* \"#utility.yul\":26123:26190   */\n      tag_514\n        /* \"#utility.yul\":26187:26189   */\n      0x19\n        /* \"#utility.yul\":26182:26185   */\n      dup4\n        /* \"#utility.yul\":26123:26190   */\n      tag_229\n      jump\t// in\n    tag_514:\n        /* \"#utility.yul\":26116:26190   */\n      swap2\n      pop\n        /* \"#utility.yul\":26199:26292   */\n      tag_515\n        /* \"#utility.yul\":26288:26291   */\n      dup3\n        /* \"#utility.yul\":26199:26292   */\n      tag_264\n      jump\t// in\n    tag_515:\n        /* \"#utility.yul\":26317:26319   */\n      0x20\n        /* \"#utility.yul\":26312:26315   */\n      dup3\n        /* \"#utility.yul\":26308:26320   */\n      add\n        /* \"#utility.yul\":26301:26320   */\n      swap1\n      pop\n        /* \"#utility.yul\":25960:26326   */\n      swap2\n      swap1\n      pop\n      jump\t// out\n        /* \"#utility.yul\":26332:26751   */\n    tag_173:\n        /* \"#utility.yul\":26498:26502   */\n      0x00\n        /* \"#utility.yul\":26536:26538   */\n      0x20\n        /* \"#utility.yul\":26525:26534   */\n      dup3\n        /* \"#utility.yul\":26521:26539   */\n      add\n        /* \"#utility.yul\":26513:26539   */\n      swap1\n      pop\n        /* \"#utility.yul\":26585:26594   */\n      dup2\n        /* \"#utility.yul\":26579:26583   */\n      dup2\n        /* \"#utility.yul\":26575:26595   */\n      sub\n        /* \"#utility.yul\":26571:26572   */\n      0x00\n        /* \"#utility.yul\":26560:26569   */\n      dup4\n        /* \"#utility.yul\":26556:26573   */\n      add\n        /* \"#utility.yul\":26549:26596   */\n      mstore\n        /* \"#utility.yul\":26613:26744   */\n      tag_517\n        /* \"#utility.yul\":26739:26743   */\n      dup2\n        /* \"#utility.yul\":26613:26744   */\n      tag_265\n      jump\t// in\n    tag_517:\n        /* \"#utility.yul\":26605:26744   */\n      swap1\n      pop\n        /* \"#utility.yul\":26332:26751   */\n      swap2\n      swap1\n      pop\n      jump\t// out\n        /* \"#utility.yul\":26757:26931   */\n    tag_266:\n        /* \"#utility.yul\":26897:26923   */\n      0x50617373776f72642063616e6e6f7420626520656d7074790000000000000000\n        /* \"#utility.yul\":26893:26894   */\n      0x00\n        /* \"#utility.yul\":26885:26891   */\n      dup3\n        /* \"#utility.yul\":26881:26895   */\n      add\n        /* \"#utility.yul\":26874:26924   */\n      mstore\n        /* \"#utility.yul\":26757:26931   */\n      pop\n      jump\t// out\n        /* \"#utility.yul\":26937:27303   */\n    tag_267:\n        /* \"#utility.yul\":27079:27082   */\n      0x00\n        /* \"#utility.yul\":27100:27167   */\n      tag_520\n        /* \"#utility.yul\":27164:27166   */\n      0x18\n        /* \"#utility.yul\":27159:27162   */\n      dup4\n        /* \"#utility.yul\":27100:27167   */\n      tag_229\n      jump\t// in\n    tag_520:\n        /* \"#utility.yul\":27093:27167   */\n      swap2\n      pop\n        /* \"#utility.yul\":27176:27269   */\n      tag_521\n        /* \"#utility.yul\":27265:27268   */\n      dup3\n        /* \"#utility.yul\":27176:27269   */\n      tag_266\n      jump\t// in\n    tag_521:\n        /* \"#utility.yul\":27294:27296   */\n      0x20\n        /* \"#utility.yul\":27289:27292   */\n      dup3\n        /* \"#utility.yul\":27285:27297   */\n      add\n        /* \"#utility.yul\":27278:27297   */\n      swap1\n      pop\n        /* \"#utility.yul\":26937:27303   */\n      swap2\n      swap1\n      pop\n      jump\t// out\n        /* \"#utility.yul\":27309:27728   */\n    tag_176:\n        /* \"#utility.yul\":27475:27479   */\n      0x00\n        /* \"#utility.yul\":27513:27515   */\n      0x20\n        /* \"#utility.yul\":27502:27511   */\n      dup3\n        /* \"#utility.yul\":27498:27516   */\n      add\n        /* \"#utility.yul\":27490:27516   */\n      swap1\n      pop\n        /* \"#utility.yul\":27562:27571   */\n      dup2\n        /* \"#utility.yul\":27556:27560   */\n      dup2\n        /* \"#utility.yul\":27552:27572   */\n      sub\n        /* \"#utility.yul\":27548:27549   */\n      0x00\n        /* \"#utility.yul\":27537:27546   */\n      dup4\n        /* \"#utility.yul\":27533:27550   */\n      add\n        /* \"#utility.yul\":27526:27573   */\n      mstore\n        /* \"#utility.yul\":27590:27721   */\n      tag_523\n        /* \"#utility.yul\":27716:27720   */\n      dup2\n        /* \"#utility.yul\":27590:27721   */\n      tag_267\n      jump\t// in\n    tag_523:\n        /* \"#utility.yul\":27582:27721   */\n      swap1\n      pop\n        /* \"#utility.yul\":27309:27728   */\n      swap2\n      swap1\n      pop\n      jump\t// out\n        /* \"#utility.yul\":27734:27905   */\n    tag_268:\n        /* \"#utility.yul\":27874:27897   */\n      0x456d61696c2063616e6e6f7420626520656d7074790000000000000000000000\n        /* \"#utility.yul\":27870:27871   */\n      0x00\n        /* \"#utility.yul\":27862:27868   */\n      dup3\n        /* \"#utility.yul\":27858:27872   */\n      add\n        /* \"#utility.yul\":27851:27898   */\n      mstore\n        /* \"#utility.yul\":27734:27905   */\n      pop\n      jump\t// out\n        /* \"#utility.yul\":27911:28277   */\n    tag_269:\n        /* \"#utility.yul\":28053:28056   */\n      0x00\n        /* \"#utility.yul\":28074:28141   */\n      tag_526\n        /* \"#utility.yul\":28138:28140   */\n      0x15\n        /* \"#utility.yul\":28133:28136   */\n      dup4\n        /* \"#utility.yul\":28074:28141   */\n      tag_229\n      jump\t// in\n    tag_526:\n        /* \"#utility.yul\":28067:28141   */\n      swap2\n      pop\n        /* \"#utility.yul\":28150:28243   */\n      tag_527\n        /* \"#utility.yul\":28239:28242   */\n      dup3\n        /* \"#utility.yul\":28150:28243   */\n      tag_268\n      jump\t// in\n    tag_527:\n        /* \"#utility.yul\":28268:28270   */\n      0x20\n        /* \"#utility.yul\":28263:28266   */\n      dup3\n        /* \"#utility.yul\":28259:28271   */\n      add\n        /* \"#utility.yul\":28252:28271   */\n      swap1\n      pop\n        /* \"#utility.yul\":27911:28277   */\n      swap2\n      swap1\n      pop\n      jump\t// out\n        /* \"#utility.yul\":28283:28702   */\n    tag_179:\n        /* \"#utility.yul\":28449:28453   */\n      0x00\n        /* \"#utility.yul\":28487:28489   */\n      0x20\n        /* \"#utility.yul\":28476:28485   */\n      dup3\n        /* \"#utility.yul\":28472:28490   */\n      add\n        /* \"#utility.yul\":28464:28490   */\n      swap1\n      pop\n        /* \"#utility.yul\":28536:28545   */\n      dup2\n        /* \"#utility.yul\":28530:28534   */\n      dup2\n        /* \"#utility.yul\":28526:28546   */\n      sub\n        /* \"#utility.yul\":28522:28523   */\n      0x00\n        /* \"#utility.yul\":28511:28520   */\n      dup4\n        /* \"#utility.yul\":28507:28524   */\n      add\n        /* \"#utility.yul\":28500:28547   */\n      mstore\n        /* \"#utility.yul\":28564:28695   */\n      tag_529\n        /* \"#utility.yul\":28690:28694   */\n      dup2\n        /* \"#utility.yul\":28564:28695   */\n      tag_269\n      jump\t// in\n    tag_529:\n        /* \"#utility.yul\":28556:28695   */\n      swap1\n      pop\n        /* \"#utility.yul\":28283:28702   */\n      swap2\n      swap1\n      pop\n      jump\t// out\n        /* \"#utility.yul\":28708:28801   */\n    tag_270:\n        /* \"#utility.yul\":28745:28751   */\n      0x00\n        /* \"#utility.yul\":28792:28794   */\n      0x20\n        /* \"#utility.yul\":28787:28789   */\n      0x1f\n        /* \"#utility.yul\":28780:28785   */\n      dup4\n        /* \"#utility.yul\":28776:28790   */\n      add\n        /* \"#utility.yul\":28772:28795   */\n      div\n        /* \"#utility.yul\":28762:28795   */\n      swap1\n      pop\n        /* \"#utility.yul\":28708:28801   */\n      swap2\n      swap1\n      pop\n      jump\t// out\n        /* \"#utility.yul\":28807:28914   */\n    tag_271:\n        /* \"#utility.yul\":28851:28859   */\n      0x00\n        /* \"#utility.yul\":28901:28906   */\n      dup3\n        /* \"#utility.yul\":28895:28899   */\n      dup3\n        /* \"#utility.yul\":28891:28907   */\n      shl\n        /* \"#utility.yul\":28870:28907   */\n      swap1\n      pop\n        /* \"#utility.yul\":28807:28914   */\n      swap3\n      swap2\n      pop\n      pop\n      jump\t// out\n        /* \"#utility.yul\":28920:29313   */\n    tag_272:\n        /* \"#utility.yul\":28989:28995   */\n      0x00\n        /* \"#utility.yul\":29039:29040   */\n      0x08\n        /* \"#utility.yul\":29027:29037   */\n      dup4\n        /* \"#utility.yul\":29023:29041   */\n      mul\n        /* \"#utility.yul\":29062:29159   */\n      tag_533\n        /* \"#utility.yul\":29092:29158   */\n      0xffffffffffffffffffffffffffffffffffffffffffffffffffffffffffffffff\n        /* \"#utility.yul\":29081:29090   */\n      dup3\n        /* \"#utility.yul\":29062:29159   */\n      tag_271\n      jump\t// in\n    tag_533:\n        /* \"#utility.yul\":29180:29219   */\n      tag_534\n        /* \"#utility.yul\":29210:29218   */\n      dup7\n        /* \"#utility.yul\":29199:29208   */\n      dup4\n        /* \"#utility.yul\":29180:29219   */\n      tag_271\n      jump\t// in\n    tag_534:\n        /* \"#utility.yul\":29168:29219   */\n      swap6\n      pop\n        /* \"#utility.yul\":29252:29256   */\n      dup1\n        /* \"#utility.yul\":29248:29257   */\n      not\n        /* \"#utility.yul\":29241:29246   */\n      dup5\n        /* \"#utility.yul\":29237:29258   */\n      and\n        /* \"#utility.yul\":29228:29258   */\n      swap4\n      pop\n        /* \"#utility.yul\":29301:29305   */\n      dup1\n        /* \"#utility.yul\":29291:29299   */\n      dup7\n        /* \"#utility.yul\":29287:29306   */\n      and\n        /* \"#utility.yul\":29280:29285   */\n      dup5\n        /* \"#utility.yul\":29277:29307   */\n      or\n        /* \"#utility.yul\":29267:29307   */\n      swap3\n      pop\n        /* \"#utility.yul\":28996:29313   */\n      pop\n      pop\n        /* \"#utility.yul\":28920:29313   */\n      swap4\n      swap3\n      pop\n      pop\n      pop\n      jump\t// out\n        /* \"#utility.yul\":29319:29379   */\n    tag_273:\n        /* \"#utility.yul\":29347:29350   */\n      0x00\n        /* \"#utility.yul\":29368:29373   */\n      dup2\n        /* \"#utility.yul\":29361:29373   */\n      swap1\n      pop\n        /* \"#utility.yul\":29319:29379   */\n      swap2\n      swap1\n      pop\n      jump\t// out\n        /* \"#utility.yul\":29385:29527   */\n    tag_274:\n        /* \"#utility.yul\":29435:29444   */\n      0x00\n        /* \"#utility.yul\":29468:29521   */\n      tag_537\n        /* \"#utility.yul\":29486:29520   */\n      tag_538\n        /* \"#utility.yul\":29495:29519   */\n      tag_539\n        /* \"#utility.yul\":29513:29518   */\n      dup5\n        /* \"#utility.yul\":29495:29519   */\n      tag_224\n      jump\t// in\n    tag_539:\n        /* \"#utility.yul\":29486:29520   */\n      tag_273\n      jump\t// in\n    tag_538:\n        /* \"#utility.yul\":29468:29521   */\n      tag_224\n      jump\t// in\n    tag_537:\n        /* \"#utility.yul\":29455:29521   */\n      swap1\n      pop\n        /* \"#utility.yul\":29385:29527   */\n      swap2\n      swap1\n      pop\n      jump\t// out\n        /* \"#utility.yul\":29533:29608   */\n    tag_275:\n        /* \"#utility.yul\":29576:29579   */\n      0x00\n        /* \"#utility.yul\":29597:29602   */\n      dup2\n        /* \"#utility.yul\":29590:29602   */\n      swap1\n      pop\n        /* \"#utility.yul\":29533:29608   */\n      swap2\n      swap1\n      pop\n      jump\t// out\n        /* \"#utility.yul\":29614:29883   */\n    tag_276:\n        /* \"#utility.yul\":29724:29763   */\n      tag_542\n        /* \"#utility.yul\":29755:29762   */\n      dup4\n        /* \"#utility.yul\":29724:29763   */\n      tag_274\n      jump\t// in\n    tag_542:\n        /* \"#utility.yul\":29785:29876   */\n      tag_543\n        /* \"#utility.yul\":29834:29875   */\n      tag_544\n        /* \"#utility.yul\":29858:29874   */\n      dup3\n        /* \"#utility.yul\":29834:29875   */\n      tag_275\n      jump\t// in\n    tag_544:\n        /* \"#utility.yul\":29826:29832   */\n      dup5\n        /* \"#utility.yul\":29819:29823   */\n      dup5\n        /* \"#utility.yul\":29813:29824   */\n      sload\n        /* \"#utility.yul\":29785:29876   */\n      tag_272\n      jump\t// in\n    tag_543:\n        /* \"#utility.yul\":29779:29783   */\n      dup3\n        /* \"#utility.yul\":29772:29877   */\n      sstore\n        /* \"#utility.yul\":29690:29883   */\n      pop\n        /* \"#utility.yul\":29614:29883   */\n      pop\n      pop\n      pop\n      jump\t// out\n        /* \"#utility.yul\":29889:29962   */\n    tag_277:\n        /* \"#utility.yul\":29934:29937   */\n      0x00\n        /* \"#utility.yul\":29889:29962   */\n      swap1\n      jump\t// out\n        /* \"#utility.yul\":29968:30157   */\n    tag_278:\n        /* \"#utility.yul\":30045:30077   */\n      tag_547\n      tag_277\n      jump\t// in\n    tag_547:\n        /* \"#utility.yul\":30086:30151   */\n      tag_548\n        /* \"#utility.yul\":30144:30150   */\n      dup2\n        /* \"#utility.yul\":30136:30142   */\n      dup5\n        /* \"#utility.yul\":30130:30134   */\n      dup5\n        /* \"#utility.yul\":30086:30151   */\n      tag_276\n      jump\t// in\n    tag_548:\n        /* \"#utility.yul\":30021:30157   */\n      pop\n        /* \"#utility.yul\":29968:30157   */\n      pop\n      pop\n      jump\t// out\n        /* \"#utility.yul\":30163:30349   */\n    tag_279:\n        /* \"#utility.yul\":30223:30343   */\n    tag_550:\n        /* \"#utility.yul\":30240:30243   */\n      dup2\n        /* \"#utility.yul\":30233:30238   */\n      dup2\n        /* \"#utility.yul\":30230:30244   */\n      lt\n        /* \"#utility.yul\":30223:30343   */\n      iszero\n      tag_552\n      jumpi\n        /* \"#utility.yul\":30294:30333   */\n      tag_553\n        /* \"#utility.yul\":30331:30332   */\n      0x00\n        /* \"#utility.yul\":30324:30329   */\n      dup3\n        /* \"#utility.yul\":30294:30333   */\n      tag_278\n      jump\t// in\n    tag_553:\n        /* \"#utility.yul\":30267:30268   */\n      0x01\n        /* \"#utility.yul\":30260:30265   */\n      dup2\n        /* \"#utility.yul\":30256:30269   */\n      add\n        /* \"#utility.yul\":30247:30269   */\n      swap1\n      pop\n        /* \"#utility.yul\":30223:30343   */\n      jump(tag_550)\n    tag_552:\n        /* \"#utility.yul\":30163:30349   */\n      pop\n      pop\n      jump\t// out\n        /* \"#utility.yul\":30355:30898   */\n    tag_280:\n        /* \"#utility.yul\":30456:30458   */\n      0x1f\n        /* \"#utility.yul\":30451:30454   */\n      dup3\n        /* \"#utility.yul\":30448:30459   */\n      gt\n        /* \"#utility.yul\":30445:30891   */\n      iszero\n      tag_555\n      jumpi\n        /* \"#utility.yul\":30490:30528   */\n      tag_556\n        /* \"#utility.yul\":30522:30527   */\n      dup2\n        /* \"#utility.yul\":30490:30528   */\n      tag_241\n      jump\t// in\n    tag_556:\n        /* \"#utility.yul\":30574:30603   */\n      tag_557\n        /* \"#utility.yul\":30592:30602   */\n      dup5\n        /* \"#utility.yul\":30574:30603   */\n      tag_270\n      jump\t// in\n    tag_557:\n        /* \"#utility.yul\":30564:30572   */\n      dup2\n        /* \"#utility.yul\":30560:30604   */\n      add\n        /* \"#utility.yul\":30757:30759   */\n      0x20\n        /* \"#utility.yul\":30745:30755   */\n      dup6\n        /* \"#utility.yul\":30742:30760   */\n      lt\n        /* \"#utility.yul\":30739:30788   */\n      iszero\n      tag_558\n      jumpi\n        /* \"#utility.yul\":30778:30786   */\n      dup2\n        /* \"#utility.yul\":30763:30786   */\n      swap1\n      pop\n        /* \"#utility.yul\":30739:30788   */\n    tag_558:\n        /* \"#utility.yul\":30801:30881   */\n      tag_559\n        /* \"#utility.yul\":30857:30879   */\n      tag_560\n        /* \"#utility.yul\":30875:30878   */\n      dup6\n        /* \"#utility.yul\":30857:30879   */\n      tag_270\n      jump\t// in\n    tag_560:\n        /* \"#utility.yul\":30847:30855   */\n      dup4\n        /* \"#utility.yul\":30843:30880   */\n      add\n        /* \"#utility.yul\":30830:30841   */\n      dup3\n        /* \"#utility.yul\":30801:30881   */\n      tag_279\n      jump\t// in\n    tag_559:\n        /* \"#utility.yul\":30460:30891   */\n      pop\n      pop\n        /* \"#utility.yul\":30445:30891   */\n    tag_555:\n        /* \"#utility.yul\":30355:30898   */\n      pop\n      pop\n      pop\n      jump\t// out\n        /* \"#utility.yul\":30904:31021   */\n    tag_281:\n        /* \"#utility.yul\":30958:30966   */\n      0x00\n        /* \"#utility.yul\":31008:31013   */\n      dup3\n        /* \"#utility.yul\":31002:31006   */\n      dup3\n        /* \"#utility.yul\":30998:31014   */\n      shr\n        /* \"#utility.yul\":30977:31014   */\n      swap1\n      pop\n        /* \"#utility.yul\":30904:31021   */\n      swap3\n      swap2\n      pop\n      pop\n      jump\t// out\n        /* \"#utility.yul\":31027:31196   */\n    tag_282:\n        /* \"#utility.yul\":31071:31077   */\n      0x00\n        /* \"#utility.yul\":31104:31155   */\n      tag_563\n        /* \"#utility.yul\":31152:31153   */\n      0x00\n        /* \"#utility.yul\":31148:31154   */\n      not\n        /* \"#utility.yul\":31140:31145   */\n      dup5\n        /* \"#utility.yul\":31137:31138   */\n      0x08\n        /* \"#utility.yul\":31133:31146   */\n      mul\n        /* \"#utility.yul\":31104:31155   */\n      tag_281\n      jump\t// in\n    tag_563:\n        /* \"#utility.yul\":31100:31156   */\n      not\n        /* \"#utility.yul\":31185:31189   */\n      dup1\n        /* \"#utility.yul\":31179:31183   */\n      dup4\n        /* \"#utility.yul\":31175:31190   */\n      and\n        /* \"#utility.yul\":31165:31190   */\n      swap2\n      pop\n        /* \"#utility.yul\":31078:31196   */\n      pop\n        /* \"#utility.yul\":31027:31196   */\n      swap3\n      swap2\n      pop\n      pop\n      jump\t// out\n        /* \"#utility.yul\":31201:31496   */\n    tag_283:\n        /* \"#utility.yul\":31277:31281   */\n      0x00\n        /* \"#utility.yul\":31423:31452   */\n      tag_565\n        /* \"#utility.yul\":31448:31451   */\n      dup4\n        /* \"#utility.yul\":31442:31446   */\n      dup4\n        /* \"#utility.yul\":31423:31452   */\n      tag_282\n      jump\t// in\n    tag_565:\n        /* \"#utility.yul\":31415:31452   */\n      swap2\n      pop\n        /* \"#utility.yul\":31485:31488   */\n      dup3\n        /* \"#utility.yul\":31482:31483   */\n      0x02\n        /* \"#utility.yul\":31478:31489   */\n      mul\n        /* \"#utility.yul\":31472:31476   */\n      dup3\n        /* \"#utility.yul\":31469:31490   */\n      or\n        /* \"#utility.yul\":31461:31490   */\n      swap1\n      pop\n        /* \"#utility.yul\":31201:31496   */\n      swap3\n      swap2\n      pop\n      pop\n      jump\t// out\n        /* \"#utility.yul\":31501:32896   */\n    tag_181:\n        /* \"#utility.yul\":31618:31655   */\n      tag_567\n        /* \"#utility.yul\":31651:31654   */\n      dup3\n        /* \"#utility.yul\":31618:31655   */\n      tag_228\n      jump\t// in\n    tag_567:\n        /* \"#utility.yul\":31720:31738   */\n      0xffffffffffffffff\n        /* \"#utility.yul\":31712:31718   */\n      dup2\n        /* \"#utility.yul\":31709:31739   */\n      gt\n        /* \"#utility.yul\":31706:31762   */\n      iszero\n      tag_568\n      jumpi\n        /* \"#utility.yul\":31742:31760   */\n      tag_569\n      tag_215\n      jump\t// in\n    tag_569:\n        /* \"#utility.yul\":31706:31762   */\n    tag_568:\n        /* \"#utility.yul\":31786:31824   */\n      tag_570\n        /* \"#utility.yul\":31818:31822   */\n      dup3\n        /* \"#utility.yul\":31812:31823   */\n      sload\n        /* \"#utility.yul\":31786:31824   */\n      tag_124\n      jump\t// in\n    tag_570:\n        /* \"#utility.yul\":31871:31938   */\n      tag_571\n        /* \"#utility.yul\":31931:31937   */\n      dup3\n        /* \"#utility.yul\":31923:31929   */\n      dup3\n        /* \"#utility.yul\":31917:31921   */\n      dup6\n        /* \"#utility.yul\":31871:31938   */\n      tag_280\n      jump\t// in\n    tag_571:\n        /* \"#utility.yul\":31965:31966   */\n      0x00\n        /* \"#utility.yul\":31989:31993   */\n      0x20\n        /* \"#utility.yul\":31976:31993   */\n      swap1\n      pop\n        /* \"#utility.yul\":32021:32023   */\n      0x1f\n        /* \"#utility.yul\":32013:32019   */\n      dup4\n        /* \"#utility.yul\":32010:32024   */\n      gt\n        /* \"#utility.yul\":32038:32039   */\n      0x01\n        /* \"#utility.yul\":32033:32651   */\n      dup2\n      eq\n      tag_573\n      jumpi\n        /* \"#utility.yul\":32695:32696   */\n      0x00\n        /* \"#utility.yul\":32712:32718   */\n      dup5\n        /* \"#utility.yul\":32709:32786   */\n      iszero\n      tag_574\n      jumpi\n        /* \"#utility.yul\":32761:32770   */\n      dup3\n        /* \"#utility.yul\":32756:32759   */\n      dup8\n        /* \"#utility.yul\":32752:32771   */\n      add\n        /* \"#utility.yul\":32746:32772   */\n      mload\n        /* \"#utility.yul\":32737:32772   */\n      swap1\n      pop\n        /* \"#utility.yul\":32709:32786   */\n    tag_574:\n        /* \"#utility.yul\":32812:32879   */\n      tag_575\n        /* \"#utility.yul\":32872:32878   */\n      dup6\n        /* \"#utility.yul\":32865:32870   */\n      dup3\n        /* \"#utility.yul\":32812:32879   */\n      tag_283\n      jump\t// in\n    tag_575:\n        /* \"#utility.yul\":32806:32810   */\n      dup7\n        /* \"#utility.yul\":32799:32880   */\n      sstore\n        /* \"#utility.yul\":32668:32890   */\n      pop\n        /* \"#utility.yul\":32003:32890   */\n      jump(tag_572)\n        /* \"#utility.yul\":32033:32651   */\n    tag_573:\n        /* \"#utility.yul\":32085:32089   */\n      0x1f\n        /* \"#utility.yul\":32081:32090   */\n      not\n        /* \"#utility.yul\":32073:32079   */\n      dup5\n        /* \"#utility.yul\":32069:32091   */\n      and\n        /* \"#utility.yul\":32119:32156   */\n      tag_576\n        /* \"#utility.yul\":32151:32155   */\n      dup7\n        /* \"#utility.yul\":32119:32156   */\n      tag_241\n      jump\t// in\n    tag_576:\n        /* \"#utility.yul\":32178:32179   */\n      0x00\n        /* \"#utility.yul\":32192:32400   */\n    tag_577:\n        /* \"#utility.yul\":32206:32213   */\n      dup3\n        /* \"#utility.yul\":32203:32204   */\n      dup2\n        /* \"#utility.yul\":32200:32214   */\n      lt\n        /* \"#utility.yul\":32192:32400   */\n      iszero\n      tag_579\n      jumpi\n        /* \"#utility.yul\":32285:32294   */\n      dup5\n        /* \"#utility.yul\":32280:32283   */\n      dup10\n        /* \"#utility.yul\":32276:32295   */\n      add\n        /* \"#utility.yul\":32270:32296   */\n      mload\n        /* \"#utility.yul\":32262:32268   */\n      dup3\n        /* \"#utility.yul\":32255:32297   */\n      sstore\n        /* \"#utility.yul\":32336:32337   */\n      0x01\n        /* \"#utility.yul\":32328:32334   */\n      dup3\n        /* \"#utility.yul\":32324:32338   */\n      add\n        /* \"#utility.yul\":32314:32338   */\n      swap2\n      pop\n        /* \"#utility.yul\":32383:32385   */\n      0x20\n        /* \"#utility.yul\":32372:32381   */\n      dup6\n        /* \"#utility.yul\":32368:32386   */\n      add\n        /* \"#utility.yul\":32355:32386   */\n      swap5\n      pop\n        /* \"#utility.yul\":32229:32233   */\n      0x20\n        /* \"#utility.yul\":32226:32227   */\n      dup2\n        /* \"#utility.yul\":32222:32234   */\n      add\n        /* \"#utility.yul\":32217:32234   */\n      swap1\n      pop\n        /* \"#utility.yul\":32192:32400   */\n      jump(tag_577)\n    tag_579:\n        /* \"#utility.yul\":32428:32434   */\n      dup7\n        /* \"#utility.yul\":32419:32426   */\n      dup4\n        /* \"#utility.yul\":32416:32435   */\n      lt\n        /* \"#utility.yul\":32413:32592   */\n      iszero\n      tag_580\n      jumpi\n        /* \"#utility.yul\":32486:32495   */\n      dup5\n        /* \"#utility.yul\":32481:32484   */\n      dup10\n        /* \"#utility.yul\":32477:32496   */\n      add\n        /* \"#utility.yul\":32471:32497   */\n      mload\n        /* \"#utility.yul\":32529:32577   */\n      tag_581\n        /* \"#utility.yul\":32571:32575   */\n      0x1f\n        /* \"#utility.yul\":32563:32569   */\n      dup10\n        /* \"#utility.yul\":32559:32576   */\n      and\n        /* \"#utility.yul\":32548:32557   */\n      dup3\n        /* \"#utility.yul\":32529:32577   */\n      tag_282\n      jump\t// in\n    tag_581:\n        /* \"#utility.yul\":32521:32527   */\n      dup4\n        /* \"#utility.yul\":32514:32578   */\n      sstore\n        /* \"#utility.yul\":32436:32592   */\n      pop\n        /* \"#utility.yul\":32413:32592   */\n    tag_580:\n        /* \"#utility.yul\":32638:32639   */\n      0x01\n        /* \"#utility.yul\":32634:32635   */\n      0x02\n        /* \"#utility.yul\":32626:32632   */\n      dup9\n        /* \"#utility.yul\":32622:32636   */\n      mul\n        /* \"#utility.yul\":32618:32640   */\n      add\n        /* \"#utility.yul\":32612:32616   */\n      dup9\n        /* \"#utility.yul\":32605:32641   */\n      sstore\n        /* \"#utility.yul\":32040:32651   */\n      pop\n      pop\n      pop\n        /* \"#utility.yul\":32003:32890   */\n    tag_572:\n      pop\n        /* \"#utility.yul\":31593:32896   */\n      pop\n      pop\n      pop\n        /* \"#utility.yul\":31501:32896   */\n      pop\n      pop\n      jump\t// out\n\n    auxdata: 0xa2646970667358221220cc69bcc696a78b8ab36fba36a7dfb5cdd905286a5b9766707e3380651510d54e64736f6c63430008160033\n}\n",
				"bytecode": {
					"linkReferences": {},
					"object": "608060405234801561000f575f80fd5b50335f806101000a81548173ffffffffffffffffffffffffffffffffffffffff021916908373ffffffffffffffffffffffffffffffffffffffff1602179055506126578061005c5f395ff3fe608060405234801561000f575f80fd5b506004361061009c575f3560e01c80636f77926b116100645780636f77926b1461019057806387d5173d146101c4578063a5578807146101e0578063b48ff0f114610210578063ecca40731461022c5761009c565b806306f22b04146100a05780632b04e840146100d05780635c60f2261461010057806365f68c89146101305780636e44cd4214610160575b5f80fd5b6100ba60048036038101906100b5919061181f565b61025c565b6040516100c791906118c1565b60405180910390f35b6100ea60048036038101906100e5919061190d565b61047c565b6040516100f7919061195a565b60405180910390f35b61011a60048036038101906101159190611973565b6105fe565b60405161012791906118c1565b60405180910390f35b61014a60048036038101906101459190611973565b6108fa565b604051610157919061195a565b60405180910390f35b61017a6004803603810190610175919061190d565b6109f9565b6040516101879190611a18565b60405180910390f35b6101aa60048036038101906101a59190611973565b610c02565b6040516101bb959493929190611a38565b60405180910390f35b6101de60048036038101906101d99190611a9e565b610ec4565b005b6101fa60048036038101906101f59190611973565b611088565b60405161020791906118c1565b60405180910390f35b61022a60048036038101906102259190611aee565b611141565b005b6102466004803603810190610241919061190d565b611417565b6040516102539190611a18565b60405180910390f35b5f8073ffffffffffffffffffffffffffffffffffffffff168473ffffffffffffffffffffffffffffffffffffffff16036102cb576040517f08c379a00000000000000000000000000000000000000000000000000000000081526004016102c290611c16565b60405180910390fd5b5f8054906101000a900473ffffffffffffffffffffffffffffffffffffffff1673ffffffffffffffffffffffffffffffffffffffff168473ffffffffffffffffffffffffffffffffffffffff1603610358576040517f08c379a000000000000000000000000000000000000000000000000000000000815260040161034f90611c7e565b60405180910390fd5b5f60015f8673ffffffffffffffffffffffffffffffffffffffff1673ffffffffffffffffffffffffffffffffffffffff1681526020019081526020015f205f0154036103d9576040517f08c379a00000000000000000000000000000000000000000000000000000000081526004016103d090611ce6565b60405180910390fd5b5f60015f8673ffffffffffffffffffffffffffffffffffffffff1673ffffffffffffffffffffffffffffffffffffffff1681526020019081526020015f209050838360405160200161042c929190611d3e565b60405160208183030381529060405280519060200120816003018260020160405160200161045b929190611e50565b60405160208183030381529060405280519060200120149150509392505050565b5f3073ffffffffffffffffffffffffffffffffffffffff1663a5578807846040518263ffffffff1660e01b81526004016104b69190611e82565b602060405180830381865afa1580156104d1573d5f803e3d5ffd5b505050506040513d601f19601f820116820180604052508101906104f59190611ec5565b610534576040517f08c379a000000000000000000000000000000000000000000000000000000000815260040161052b90611f3a565b60405180910390fd5b8160015f8573ffffffffffffffffffffffffffffffffffffffff1673ffffffffffffffffffffffffffffffffffffffff1681526020019081526020015f205f0154146105b5576040517f08c379a00000000000000000000000000000000000000000000000000000000081526004016105ac90611fa2565b60405180910390fd5b60015f8473ffffffffffffffffffffffffffffffffffffffff1673ffffffffffffffffffffffffffffffffffffffff1681526020019081526020015f2060040154905092915050565b5f3073ffffffffffffffffffffffffffffffffffffffff1663a5578807836040518263ffffffff1660e01b81526004016106389190611e82565b602060405180830381865afa158015610653573d5f803e3d5ffd5b505050506040513d601f19601f820116820180604052508101906106779190611ec5565b6106b6576040517f08c379a00000000000000000000000000000000000000000000000000000000081526004016106ad9061200a565b60405180910390fd5b5f60015f8473ffffffffffffffffffffffffffffffffffffffff1673ffffffffffffffffffffffffffffffffffffffff1681526020019081526020015f2060010160015f8573ffffffffffffffffffffffffffffffffffffffff1673ffffffffffffffffffffffffffffffffffffffff1681526020019081526020015f2060020160015f8673ffffffffffffffffffffffffffffffffffffffff1673ffffffffffffffffffffffffffffffffffffffff1681526020019081526020015f206003018560405160200161078b949392919061206d565b604051602081830303815290604052805190602001205f1c90508060015f8573ffffffffffffffffffffffffffffffffffffffff1673ffffffffffffffffffffffffffffffffffffffff1681526020019081526020015f205f015414610826576040517f08c379a000000000000000000000000000000000000000000000000000000000815260040161081d906120f8565b60405180910390fd5b60015f8473ffffffffffffffffffffffffffffffffffffffff1673ffffffffffffffffffffffffffffffffffffffff1681526020019081526020015f205f8082015f9055600182015f6108799190611620565b600282015f6108889190611620565b600382015f6108979190611620565b600482015f905550505f60015f8573ffffffffffffffffffffffffffffffffffffffff1673ffffffffffffffffffffffffffffffffffffffff1681526020019081526020015f205f0154036108f05760019150506108f5565b5f9150505b919050565b5f3073ffffffffffffffffffffffffffffffffffffffff1663a5578807836040518263ffffffff1660e01b81526004016109349190611e82565b602060405180830381865afa15801561094f573d5f803e3d5ffd5b505050506040513d601f19601f820116820180604052508101906109739190611ec5565b6109b2576040517f08c379a00000000000000000000000000000000000000000000000000000000081526004016109a990611f3a565b60405180910390fd5b60015f8373ffffffffffffffffffffffffffffffffffffffff1673ffffffffffffffffffffffffffffffffffffffff1681526020019081526020015f205f01549050919050565b60603073ffffffffffffffffffffffffffffffffffffffff1663a5578807846040518263ffffffff1660e01b8152600401610a349190611e82565b602060405180830381865afa158015610a4f573d5f803e3d5ffd5b505050506040513d601f19601f82011682018060405250810190610a739190611ec5565b610ab2576040517f08c379a0000000000000000000000000000000000000000000000000000000008152600401610aa990611f3a565b60405180910390fd5b8160015f8573ffffffffffffffffffffffffffffffffffffffff1673ffffffffffffffffffffffffffffffffffffffff1681526020019081526020015f205f015414610b33576040517f08c379a0000000000000000000000000000000000000000000000000000000008152600401610b2a90611fa2565b60405180910390fd5b60015f8473ffffffffffffffffffffffffffffffffffffffff1673ffffffffffffffffffffffffffffffffffffffff1681526020019081526020015f206001018054610b7e90611d8e565b80601f0160208091040260200160405190810160405280929190818152602001828054610baa90611d8e565b8015610bf55780601f10610bcc57610100808354040283529160200191610bf5565b820191905f5260205f20905b815481529060010190602001808311610bd857829003601f168201915b5050505050905092915050565b5f60608060605f8060015f8873ffffffffffffffffffffffffffffffffffffffff1673ffffffffffffffffffffffffffffffffffffffff1681526020019081526020015f205f015403610c8a576040517f08c379a0000000000000000000000000000000000000000000000000000000008152600401610c8190611ce6565b60405180910390fd5b5f60015f8873ffffffffffffffffffffffffffffffffffffffff1673ffffffffffffffffffffffffffffffffffffffff1681526020019081526020015f206040518060a00160405290815f8201548152602001600182018054610cec90611d8e565b80601f0160208091040260200160405190810160405280929190818152602001828054610d1890611d8e565b8015610d635780601f10610d3a57610100808354040283529160200191610d63565b820191905f5260205f20905b815481529060010190602001808311610d4657829003601f168201915b50505050508152602001600282018054610d7c90611d8e565b80601f0160208091040260200160405190810160405280929190818152602001828054610da890611d8e565b8015610df35780601f10610dca57610100808354040283529160200191610df3565b820191905f5260205f20905b815481529060010190602001808311610dd657829003601f168201915b50505050508152602001600382018054610e0c90611d8e565b80601f0160208091040260200160405190810160405280929190818152602001828054610e3890611d8e565b8015610e835780601f10610e5a57610100808354040283529160200191610e83565b820191905f5260205f20905b815481529060010190602001808311610e6657829003601f168201915b505050505081526020016004820154815250509050805f01518160200151826040015183606001518460800151955095509550955095505091939590929450565b5f8111610f06576040517f08c379a0000000000000000000000000000000000000000000000000000000008152600401610efd90612160565b60405180910390fd5b3073ffffffffffffffffffffffffffffffffffffffff1663a5578807846040518263ffffffff1660e01b8152600401610f3f9190611e82565b602060405180830381865afa158015610f5a573d5f803e3d5ffd5b505050506040513d601f19601f82011682018060405250810190610f7e9190611ec5565b610fbd576040517f08c379a0000000000000000000000000000000000000000000000000000000008152600401610fb490611f3a565b60405180910390fd5b8160015f8573ffffffffffffffffffffffffffffffffffffffff1673ffffffffffffffffffffffffffffffffffffffff1681526020019081526020015f205f01541461103e576040517f08c379a000000000000000000000000000000000000000000000000000000000815260040161103590611fa2565b60405180910390fd5b8060015f8573ffffffffffffffffffffffffffffffffffffffff1673ffffffffffffffffffffffffffffffffffffffff1681526020019081526020015f2060040181905550505050565b5f8073ffffffffffffffffffffffffffffffffffffffff168273ffffffffffffffffffffffffffffffffffffffff16036110f7576040517f08c379a00000000000000000000000000000000000000000000000000000000081526004016110ee906121c8565b60405180910390fd5b5f60015f8473ffffffffffffffffffffffffffffffffffffffff1673ffffffffffffffffffffffffffffffffffffffff1681526020019081526020015f205f015414159050919050565b5f8054906101000a900473ffffffffffffffffffffffffffffffffffffffff1673ffffffffffffffffffffffffffffffffffffffff168173ffffffffffffffffffffffffffffffffffffffff16036111ce576040517f08c379a00000000000000000000000000000000000000000000000000000000081526004016111c590611c7e565b60405180910390fd5b5f848484846040516020016111e694939291906121e6565b6040516020818303038152906040528051906020012090505f815f1c90505f60015f8573ffffffffffffffffffffffffffffffffffffffff1673ffffffffffffffffffffffffffffffffffffffff1681526020019081526020015f205f015414611285576040517f08c379a000000000000000000000000000000000000000000000000000000000815260040161127c90612271565b60405180910390fd5b5f8651116112c8576040517f08c379a00000000000000000000000000000000000000000000000000000000081526004016112bf906122d9565b60405180910390fd5b5f85511161130b576040517f08c379a000000000000000000000000000000000000000000000000000000000815260040161130290612341565b60405180910390fd5b5f84511161134e576040517f08c379a0000000000000000000000000000000000000000000000000000000008152600401611345906123a9565b60405180910390fd5b5f6040518060a00160405280838152602001888152602001878152602001868152602001606481525090508060015f8673ffffffffffffffffffffffffffffffffffffffff1673ffffffffffffffffffffffffffffffffffffffff1681526020019081526020015f205f820151815f015560208201518160010190816113d49190612552565b5060408201518160020190816113ea9190612552565b5060608201518160030190816114009190612552565b506080820151816004015590505050505050505050565b60603073ffffffffffffffffffffffffffffffffffffffff1663a5578807846040518263ffffffff1660e01b81526004016114529190611e82565b602060405180830381865afa15801561146d573d5f803e3d5ffd5b505050506040513d601f19601f820116820180604052508101906114919190611ec5565b6114d0576040517f08c379a00000000000000000000000000000000000000000000000000000000081526004016114c790611f3a565b60405180910390fd5b8160015f8573ffffffffffffffffffffffffffffffffffffffff1673ffffffffffffffffffffffffffffffffffffffff1681526020019081526020015f205f015414611551576040517f08c379a000000000000000000000000000000000000000000000000000000000815260040161154890611fa2565b60405180910390fd5b60015f8473ffffffffffffffffffffffffffffffffffffffff1673ffffffffffffffffffffffffffffffffffffffff1681526020019081526020015f20600301805461159c90611d8e565b80601f01602080910402602001604051908101604052809291908181526020018280546115c890611d8e565b80156116135780601f106115ea57610100808354040283529160200191611613565b820191905f5260205f20905b8154815290600101906020018083116115f657829003601f168201915b5050505050905092915050565b50805461162c90611d8e565b5f825580601f1061163d575061165a565b601f0160209004905f5260205f2090810190611659919061165d565b5b50565b5b80821115611674575f815f90555060010161165e565b5090565b5f604051905090565b5f80fd5b5f80fd5b5f73ffffffffffffffffffffffffffffffffffffffff82169050919050565b5f6116b282611689565b9050919050565b6116c2816116a8565b81146116cc575f80fd5b50565b5f813590506116dd816116b9565b92915050565b5f80fd5b5f80fd5b5f601f19601f8301169050919050565b7f4e487b71000000000000000000000000000000000000000000000000000000005f52604160045260245ffd5b611731826116eb565b810181811067ffffffffffffffff821117156117505761174f6116fb565b5b80604052505050565b5f611762611678565b905061176e8282611728565b919050565b5f67ffffffffffffffff82111561178d5761178c6116fb565b5b611796826116eb565b9050602081019050919050565b828183375f83830152505050565b5f6117c36117be84611773565b611759565b9050828152602081018484840111156117df576117de6116e7565b5b6117ea8482856117a3565b509392505050565b5f82601f830112611806576118056116e3565b5b81356118168482602086016117b1565b91505092915050565b5f805f6060848603121561183657611835611681565b5b5f611843868287016116cf565b935050602084013567ffffffffffffffff81111561186457611863611685565b5b611870868287016117f2565b925050604084013567ffffffffffffffff81111561189157611890611685565b5b61189d868287016117f2565b9150509250925092565b5f8115159050919050565b6118bb816118a7565b82525050565b5f6020820190506118d45f8301846118b2565b92915050565b5f819050919050565b6118ec816118da565b81146118f6575f80fd5b50565b5f81359050611907816118e3565b92915050565b5f806040838503121561192357611922611681565b5b5f611930858286016116cf565b9250506020611941858286016118f9565b9150509250929050565b611954816118da565b82525050565b5f60208201905061196d5f83018461194b565b92915050565b5f6020828403121561198857611987611681565b5b5f611995848285016116cf565b91505092915050565b5f81519050919050565b5f82825260208201905092915050565b5f5b838110156119d55780820151818401526020810190506119ba565b5f8484015250505050565b5f6119ea8261199e565b6119f481856119a8565b9350611a048185602086016119b8565b611a0d816116eb565b840191505092915050565b5f6020820190508181035f830152611a3081846119e0565b905092915050565b5f60a082019050611a4b5f83018861194b565b8181036020830152611a5d81876119e0565b90508181036040830152611a7181866119e0565b90508181036060830152611a8581856119e0565b9050611a94608083018461194b565b9695505050505050565b5f805f60608486031215611ab557611ab4611681565b5b5f611ac2868287016116cf565b9350506020611ad3868287016118f9565b9250506040611ae4868287016118f9565b9150509250925092565b5f805f8060808587031215611b0657611b05611681565b5b5f85013567ffffffffffffffff811115611b2357611b22611685565b5b611b2f878288016117f2565b945050602085013567ffffffffffffffff811115611b5057611b4f611685565b5b611b5c878288016117f2565b935050604085013567ffffffffffffffff811115611b7d57611b7c611685565b5b611b89878288016117f2565b9250506060611b9a878288016116cf565b91505092959194509250565b7f41646472657373207574696c697a7a61746f206e6f6e2076616c69646f2c20705f8201527f6172692061203021000000000000000000000000000000000000000000000000602082015250565b5f611c006028836119a8565b9150611c0b82611ba6565b604082019050919050565b5f6020820190508181035f830152611c2d81611bf4565b9050919050565b7f41646472657373206e6f6e2056616c69646f21000000000000000000000000005f82015250565b5f611c686013836119a8565b9150611c7382611c34565b602082019050919050565b5f6020820190508181035f830152611c9581611c5c565b9050919050565b7f5574656e7465206e6f6e2070726573656e7465210000000000000000000000005f82015250565b5f611cd06014836119a8565b9150611cdb82611c9c565b602082019050919050565b5f6020820190508181035f830152611cfd81611cc4565b9050919050565b5f81905092915050565b5f611d188261199e565b611d228185611d04565b9350611d328185602086016119b8565b80840191505092915050565b5f611d498285611d0e565b9150611d558284611d0e565b91508190509392505050565b7f4e487b71000000000000000000000000000000000000000000000000000000005f52602260045260245ffd5b5f6002820490506001821680611da557607f821691505b602082108103611db857611db7611d61565b5b50919050565b5f819050815f5260205f209050919050565b5f8154611ddc81611d8e565b611de68186611d04565b9450600182165f8114611e005760018114611e1557611e47565b60ff1983168652811515820286019350611e47565b611e1e85611dbe565b5f5b83811015611e3f57815481890152600182019150602081019050611e20565b838801955050505b50505092915050565b5f611e5b8285611dd0565b9150611e678284611dd0565b91508190509392505050565b611e7c816116a8565b82525050565b5f602082019050611e955f830184611e73565b92915050565b611ea4816118a7565b8114611eae575f80fd5b50565b5f81519050611ebf81611e9b565b92915050565b5f60208284031215611eda57611ed9611681565b5b5f611ee784828501611eb1565b91505092915050565b7f55736572204e6f7420466f756e642100000000000000000000000000000000005f82015250565b5f611f24600f836119a8565b9150611f2f82611ef0565b602082019050919050565b5f6020820190508181035f830152611f5181611f18565b9050919050565b7f537472756374206e6f742056616c6964210000000000000000000000000000005f82015250565b5f611f8c6011836119a8565b9150611f9782611f58565b602082019050919050565b5f6020820190508181035f830152611fb981611f80565b9050919050565b7f55736572204e6f7420466f756e640000000000000000000000000000000000005f82015250565b5f611ff4600e836119a8565b9150611fff82611fc0565b602082019050919050565b5f6020820190508181035f83015261202181611fe8565b9050919050565b5f8160601b9050919050565b5f61203e82612028565b9050919050565b5f61204f82612034565b9050919050565b612067612062826116a8565b612045565b82525050565b5f6120788287611dd0565b91506120848286611dd0565b91506120908285611dd0565b915061209c8284612056565b60148201915081905095945050505050565b7f5574656e7465206e6f6e204175746f72697a7a61746f210000000000000000005f82015250565b5f6120e26017836119a8565b91506120ed826120ae565b602082019050919050565b5f6020820190508181035f83015261210f816120d6565b9050919050565b7f42616c616e6365204e6f742056616c69640000000000000000000000000000005f82015250565b5f61214a6011836119a8565b915061215582612116565b602082019050919050565b5f6020820190508181035f8301526121778161213e565b9050919050565b7f41646472657373204d696c6b487562206e6f6e2076616c69646f2100000000005f82015250565b5f6121b2601b836119a8565b91506121bd8261217e565b602082019050919050565b5f6020820190508181035f8301526121df816121a6565b9050919050565b5f6121f18287611d0e565b91506121fd8286611d0e565b91506122098285611d0e565b91506122158284612056565b60148201915081905095945050505050565b7f4d696c6b48756220616c726561647920726567697374657265640000000000005f82015250565b5f61225b601a836119a8565b915061226682612227565b602082019050919050565b5f6020820190508181035f8301526122888161224f565b9050919050565b7f46756c6c206e616d652063616e6e6f7420626520656d707479000000000000005f82015250565b5f6122c36019836119a8565b91506122ce8261228f565b602082019050919050565b5f6020820190508181035f8301526122f0816122b7565b9050919050565b7f50617373776f72642063616e6e6f7420626520656d70747900000000000000005f82015250565b5f61232b6018836119a8565b9150612336826122f7565b602082019050919050565b5f6020820190508181035f8301526123588161231f565b9050919050565b7f456d61696c2063616e6e6f7420626520656d70747900000000000000000000005f82015250565b5f6123936015836119a8565b915061239e8261235f565b602082019050919050565b5f6020820190508181035f8301526123c081612387565b9050919050565b5f6020601f8301049050919050565b5f82821b905092915050565b5f600883026124117fffffffffffffffffffffffffffffffffffffffffffffffffffffffffffffffff826123d6565b61241b86836123d6565b95508019841693508086168417925050509392505050565b5f819050919050565b5f61245661245161244c846118da565b612433565b6118da565b9050919050565b5f819050919050565b61246f8361243c565b61248361247b8261245d565b8484546123e2565b825550505050565b5f90565b61249761248b565b6124a2818484612466565b505050565b5b818110156124c5576124ba5f8261248f565b6001810190506124a8565b5050565b601f82111561250a576124db81611dbe565b6124e4846123c7565b810160208510156124f3578190505b6125076124ff856123c7565b8301826124a7565b50505b505050565b5f82821c905092915050565b5f61252a5f198460080261250f565b1980831691505092915050565b5f612542838361251b565b9150826002028217905092915050565b61255b8261199e565b67ffffffffffffffff811115612574576125736116fb565b5b61257e8254611d8e565b6125898282856124c9565b5f60209050601f8311600181146125ba575f84156125a8578287015190505b6125b28582612537565b865550612619565b601f1984166125c886611dbe565b5f5b828110156125ef578489015182556001820191506020850194506020810190506125ca565b8683101561260c5784890151612608601f89168261251b565b8355505b6001600288020188555050505b50505050505056fea2646970667358221220cc69bcc696a78b8ab36fba36a7dfb5cdd905286a5b9766707e3380651510d54e64736f6c63430008160033",
					"opcodes": "PUSH1 0x80 PUSH1 0x40 MSTORE CALLVALUE DUP1 ISZERO PUSH2 0xF JUMPI PUSH0 DUP1 REVERT JUMPDEST POP CALLER PUSH0 DUP1 PUSH2 0x100 EXP DUP2 SLOAD DUP2 PUSH20 0xFFFFFFFFFFFFFFFFFFFFFFFFFFFFFFFFFFFFFFFF MUL NOT AND SWAP1 DUP4 PUSH20 0xFFFFFFFFFFFFFFFFFFFFFFFFFFFFFFFFFFFFFFFF AND MUL OR SWAP1 SSTORE POP PUSH2 0x2657 DUP1 PUSH2 0x5C PUSH0 CODECOPY PUSH0 RETURN INVALID PUSH1 0x80 PUSH1 0x40 MSTORE CALLVALUE DUP1 ISZERO PUSH2 0xF JUMPI PUSH0 DUP1 REVERT JUMPDEST POP PUSH1 0x4 CALLDATASIZE LT PUSH2 0x9C JUMPI PUSH0 CALLDATALOAD PUSH1 0xE0 SHR DUP1 PUSH4 0x6F77926B GT PUSH2 0x64 JUMPI DUP1 PUSH4 0x6F77926B EQ PUSH2 0x190 JUMPI DUP1 PUSH4 0x87D5173D EQ PUSH2 0x1C4 JUMPI DUP1 PUSH4 0xA5578807 EQ PUSH2 0x1E0 JUMPI DUP1 PUSH4 0xB48FF0F1 EQ PUSH2 0x210 JUMPI DUP1 PUSH4 0xECCA4073 EQ PUSH2 0x22C JUMPI PUSH2 0x9C JUMP JUMPDEST DUP1 PUSH4 0x6F22B04 EQ PUSH2 0xA0 JUMPI DUP1 PUSH4 0x2B04E840 EQ PUSH2 0xD0 JUMPI DUP1 PUSH4 0x5C60F226 EQ PUSH2 0x100 JUMPI DUP1 PUSH4 0x65F68C89 EQ PUSH2 0x130 JUMPI DUP1 PUSH4 0x6E44CD42 EQ PUSH2 0x160 JUMPI JUMPDEST PUSH0 DUP1 REVERT JUMPDEST PUSH2 0xBA PUSH1 0x4 DUP1 CALLDATASIZE SUB DUP2 ADD SWAP1 PUSH2 0xB5 SWAP2 SWAP1 PUSH2 0x181F JUMP JUMPDEST PUSH2 0x25C JUMP JUMPDEST PUSH1 0x40 MLOAD PUSH2 0xC7 SWAP2 SWAP1 PUSH2 0x18C1 JUMP JUMPDEST PUSH1 0x40 MLOAD DUP1 SWAP2 SUB SWAP1 RETURN JUMPDEST PUSH2 0xEA PUSH1 0x4 DUP1 CALLDATASIZE SUB DUP2 ADD SWAP1 PUSH2 0xE5 SWAP2 SWAP1 PUSH2 0x190D JUMP JUMPDEST PUSH2 0x47C JUMP JUMPDEST PUSH1 0x40 MLOAD PUSH2 0xF7 SWAP2 SWAP1 PUSH2 0x195A JUMP JUMPDEST PUSH1 0x40 MLOAD DUP1 SWAP2 SUB SWAP1 RETURN JUMPDEST PUSH2 0x11A PUSH1 0x4 DUP1 CALLDATASIZE SUB DUP2 ADD SWAP1 PUSH2 0x115 SWAP2 SWAP1 PUSH2 0x1973 JUMP JUMPDEST PUSH2 0x5FE JUMP JUMPDEST PUSH1 0x40 MLOAD PUSH2 0x127 SWAP2 SWAP1 PUSH2 0x18C1 JUMP JUMPDEST PUSH1 0x40 MLOAD DUP1 SWAP2 SUB SWAP1 RETURN JUMPDEST PUSH2 0x14A PUSH1 0x4 DUP1 CALLDATASIZE SUB DUP2 ADD SWAP1 PUSH2 0x145 SWAP2 SWAP1 PUSH2 0x1973 JUMP JUMPDEST PUSH2 0x8FA JUMP JUMPDEST PUSH1 0x40 MLOAD PUSH2 0x157 SWAP2 SWAP1 PUSH2 0x195A JUMP JUMPDEST PUSH1 0x40 MLOAD DUP1 SWAP2 SUB SWAP1 RETURN JUMPDEST PUSH2 0x17A PUSH1 0x4 DUP1 CALLDATASIZE SUB DUP2 ADD SWAP1 PUSH2 0x175 SWAP2 SWAP1 PUSH2 0x190D JUMP JUMPDEST PUSH2 0x9F9 JUMP JUMPDEST PUSH1 0x40 MLOAD PUSH2 0x187 SWAP2 SWAP1 PUSH2 0x1A18 JUMP JUMPDEST PUSH1 0x40 MLOAD DUP1 SWAP2 SUB SWAP1 RETURN JUMPDEST PUSH2 0x1AA PUSH1 0x4 DUP1 CALLDATASIZE SUB DUP2 ADD SWAP1 PUSH2 0x1A5 SWAP2 SWAP1 PUSH2 0x1973 JUMP JUMPDEST PUSH2 0xC02 JUMP JUMPDEST PUSH1 0x40 MLOAD PUSH2 0x1BB SWAP6 SWAP5 SWAP4 SWAP3 SWAP2 SWAP1 PUSH2 0x1A38 JUMP JUMPDEST PUSH1 0x40 MLOAD DUP1 SWAP2 SUB SWAP1 RETURN JUMPDEST PUSH2 0x1DE PUSH1 0x4 DUP1 CALLDATASIZE SUB DUP2 ADD SWAP1 PUSH2 0x1D9 SWAP2 SWAP1 PUSH2 0x1A9E JUMP JUMPDEST PUSH2 0xEC4 JUMP JUMPDEST STOP JUMPDEST PUSH2 0x1FA PUSH1 0x4 DUP1 CALLDATASIZE SUB DUP2 ADD SWAP1 PUSH2 0x1F5 SWAP2 SWAP1 PUSH2 0x1973 JUMP JUMPDEST PUSH2 0x1088 JUMP JUMPDEST PUSH1 0x40 MLOAD PUSH2 0x207 SWAP2 SWAP1 PUSH2 0x18C1 JUMP JUMPDEST PUSH1 0x40 MLOAD DUP1 SWAP2 SUB SWAP1 RETURN JUMPDEST PUSH2 0x22A PUSH1 0x4 DUP1 CALLDATASIZE SUB DUP2 ADD SWAP1 PUSH2 0x225 SWAP2 SWAP1 PUSH2 0x1AEE JUMP JUMPDEST PUSH2 0x1141 JUMP JUMPDEST STOP JUMPDEST PUSH2 0x246 PUSH1 0x4 DUP1 CALLDATASIZE SUB DUP2 ADD SWAP1 PUSH2 0x241 SWAP2 SWAP1 PUSH2 0x190D JUMP JUMPDEST PUSH2 0x1417 JUMP JUMPDEST PUSH1 0x40 MLOAD PUSH2 0x253 SWAP2 SWAP1 PUSH2 0x1A18 JUMP JUMPDEST PUSH1 0x40 MLOAD DUP1 SWAP2 SUB SWAP1 RETURN JUMPDEST PUSH0 DUP1 PUSH20 0xFFFFFFFFFFFFFFFFFFFFFFFFFFFFFFFFFFFFFFFF AND DUP5 PUSH20 0xFFFFFFFFFFFFFFFFFFFFFFFFFFFFFFFFFFFFFFFF AND SUB PUSH2 0x2CB JUMPI PUSH1 0x40 MLOAD PUSH32 0x8C379A000000000000000000000000000000000000000000000000000000000 DUP2 MSTORE PUSH1 0x4 ADD PUSH2 0x2C2 SWAP1 PUSH2 0x1C16 JUMP JUMPDEST PUSH1 0x40 MLOAD DUP1 SWAP2 SUB SWAP1 REVERT JUMPDEST PUSH0 DUP1 SLOAD SWAP1 PUSH2 0x100 EXP SWAP1 DIV PUSH20 0xFFFFFFFFFFFFFFFFFFFFFFFFFFFFFFFFFFFFFFFF AND PUSH20 0xFFFFFFFFFFFFFFFFFFFFFFFFFFFFFFFFFFFFFFFF AND DUP5 PUSH20 0xFFFFFFFFFFFFFFFFFFFFFFFFFFFFFFFFFFFFFFFF AND SUB PUSH2 0x358 JUMPI PUSH1 0x40 MLOAD PUSH32 0x8C379A000000000000000000000000000000000000000000000000000000000 DUP2 MSTORE PUSH1 0x4 ADD PUSH2 0x34F SWAP1 PUSH2 0x1C7E JUMP JUMPDEST PUSH1 0x40 MLOAD DUP1 SWAP2 SUB SWAP1 REVERT JUMPDEST PUSH0 PUSH1 0x1 PUSH0 DUP7 PUSH20 0xFFFFFFFFFFFFFFFFFFFFFFFFFFFFFFFFFFFFFFFF AND PUSH20 0xFFFFFFFFFFFFFFFFFFFFFFFFFFFFFFFFFFFFFFFF AND DUP2 MSTORE PUSH1 0x20 ADD SWAP1 DUP2 MSTORE PUSH1 0x20 ADD PUSH0 KECCAK256 PUSH0 ADD SLOAD SUB PUSH2 0x3D9 JUMPI PUSH1 0x40 MLOAD PUSH32 0x8C379A000000000000000000000000000000000000000000000000000000000 DUP2 MSTORE PUSH1 0x4 ADD PUSH2 0x3D0 SWAP1 PUSH2 0x1CE6 JUMP JUMPDEST PUSH1 0x40 MLOAD DUP1 SWAP2 SUB SWAP1 REVERT JUMPDEST PUSH0 PUSH1 0x1 PUSH0 DUP7 PUSH20 0xFFFFFFFFFFFFFFFFFFFFFFFFFFFFFFFFFFFFFFFF AND PUSH20 0xFFFFFFFFFFFFFFFFFFFFFFFFFFFFFFFFFFFFFFFF AND DUP2 MSTORE PUSH1 0x20 ADD SWAP1 DUP2 MSTORE PUSH1 0x20 ADD PUSH0 KECCAK256 SWAP1 POP DUP4 DUP4 PUSH1 0x40 MLOAD PUSH1 0x20 ADD PUSH2 0x42C SWAP3 SWAP2 SWAP1 PUSH2 0x1D3E JUMP JUMPDEST PUSH1 0x40 MLOAD PUSH1 0x20 DUP2 DUP4 SUB SUB DUP2 MSTORE SWAP1 PUSH1 0x40 MSTORE DUP1 MLOAD SWAP1 PUSH1 0x20 ADD KECCAK256 DUP2 PUSH1 0x3 ADD DUP3 PUSH1 0x2 ADD PUSH1 0x40 MLOAD PUSH1 0x20 ADD PUSH2 0x45B SWAP3 SWAP2 SWAP1 PUSH2 0x1E50 JUMP JUMPDEST PUSH1 0x40 MLOAD PUSH1 0x20 DUP2 DUP4 SUB SUB DUP2 MSTORE SWAP1 PUSH1 0x40 MSTORE DUP1 MLOAD SWAP1 PUSH1 0x20 ADD KECCAK256 EQ SWAP2 POP POP SWAP4 SWAP3 POP POP POP JUMP JUMPDEST PUSH0 ADDRESS PUSH20 0xFFFFFFFFFFFFFFFFFFFFFFFFFFFFFFFFFFFFFFFF AND PUSH4 0xA5578807 DUP5 PUSH1 0x40 MLOAD DUP3 PUSH4 0xFFFFFFFF AND PUSH1 0xE0 SHL DUP2 MSTORE PUSH1 0x4 ADD PUSH2 0x4B6 SWAP2 SWAP1 PUSH2 0x1E82 JUMP JUMPDEST PUSH1 0x20 PUSH1 0x40 MLOAD DUP1 DUP4 SUB DUP2 DUP7 GAS STATICCALL ISZERO DUP1 ISZERO PUSH2 0x4D1 JUMPI RETURNDATASIZE PUSH0 DUP1 RETURNDATACOPY RETURNDATASIZE PUSH0 REVERT JUMPDEST POP POP POP POP PUSH1 0x40 MLOAD RETURNDATASIZE PUSH1 0x1F NOT PUSH1 0x1F DUP3 ADD AND DUP3 ADD DUP1 PUSH1 0x40 MSTORE POP DUP2 ADD SWAP1 PUSH2 0x4F5 SWAP2 SWAP1 PUSH2 0x1EC5 JUMP JUMPDEST PUSH2 0x534 JUMPI PUSH1 0x40 MLOAD PUSH32 0x8C379A000000000000000000000000000000000000000000000000000000000 DUP2 MSTORE PUSH1 0x4 ADD PUSH2 0x52B SWAP1 PUSH2 0x1F3A JUMP JUMPDEST PUSH1 0x40 MLOAD DUP1 SWAP2 SUB SWAP1 REVERT JUMPDEST DUP2 PUSH1 0x1 PUSH0 DUP6 PUSH20 0xFFFFFFFFFFFFFFFFFFFFFFFFFFFFFFFFFFFFFFFF AND PUSH20 0xFFFFFFFFFFFFFFFFFFFFFFFFFFFFFFFFFFFFFFFF AND DUP2 MSTORE PUSH1 0x20 ADD SWAP1 DUP2 MSTORE PUSH1 0x20 ADD PUSH0 KECCAK256 PUSH0 ADD SLOAD EQ PUSH2 0x5B5 JUMPI PUSH1 0x40 MLOAD PUSH32 0x8C379A000000000000000000000000000000000000000000000000000000000 DUP2 MSTORE PUSH1 0x4 ADD PUSH2 0x5AC SWAP1 PUSH2 0x1FA2 JUMP JUMPDEST PUSH1 0x40 MLOAD DUP1 SWAP2 SUB SWAP1 REVERT JUMPDEST PUSH1 0x1 PUSH0 DUP5 PUSH20 0xFFFFFFFFFFFFFFFFFFFFFFFFFFFFFFFFFFFFFFFF AND PUSH20 0xFFFFFFFFFFFFFFFFFFFFFFFFFFFFFFFFFFFFFFFF AND DUP2 MSTORE PUSH1 0x20 ADD SWAP1 DUP2 MSTORE PUSH1 0x20 ADD PUSH0 KECCAK256 PUSH1 0x4 ADD SLOAD SWAP1 POP SWAP3 SWAP2 POP POP JUMP JUMPDEST PUSH0 ADDRESS PUSH20 0xFFFFFFFFFFFFFFFFFFFFFFFFFFFFFFFFFFFFFFFF AND PUSH4 0xA5578807 DUP4 PUSH1 0x40 MLOAD DUP3 PUSH4 0xFFFFFFFF AND PUSH1 0xE0 SHL DUP2 MSTORE PUSH1 0x4 ADD PUSH2 0x638 SWAP2 SWAP1 PUSH2 0x1E82 JUMP JUMPDEST PUSH1 0x20 PUSH1 0x40 MLOAD DUP1 DUP4 SUB DUP2 DUP7 GAS STATICCALL ISZERO DUP1 ISZERO PUSH2 0x653 JUMPI RETURNDATASIZE PUSH0 DUP1 RETURNDATACOPY RETURNDATASIZE PUSH0 REVERT JUMPDEST POP POP POP POP PUSH1 0x40 MLOAD RETURNDATASIZE PUSH1 0x1F NOT PUSH1 0x1F DUP3 ADD AND DUP3 ADD DUP1 PUSH1 0x40 MSTORE POP DUP2 ADD SWAP1 PUSH2 0x677 SWAP2 SWAP1 PUSH2 0x1EC5 JUMP JUMPDEST PUSH2 0x6B6 JUMPI PUSH1 0x40 MLOAD PUSH32 0x8C379A000000000000000000000000000000000000000000000000000000000 DUP2 MSTORE PUSH1 0x4 ADD PUSH2 0x6AD SWAP1 PUSH2 0x200A JUMP JUMPDEST PUSH1 0x40 MLOAD DUP1 SWAP2 SUB SWAP1 REVERT JUMPDEST PUSH0 PUSH1 0x1 PUSH0 DUP5 PUSH20 0xFFFFFFFFFFFFFFFFFFFFFFFFFFFFFFFFFFFFFFFF AND PUSH20 0xFFFFFFFFFFFFFFFFFFFFFFFFFFFFFFFFFFFFFFFF AND DUP2 MSTORE PUSH1 0x20 ADD SWAP1 DUP2 MSTORE PUSH1 0x20 ADD PUSH0 KECCAK256 PUSH1 0x1 ADD PUSH1 0x1 PUSH0 DUP6 PUSH20 0xFFFFFFFFFFFFFFFFFFFFFFFFFFFFFFFFFFFFFFFF AND PUSH20 0xFFFFFFFFFFFFFFFFFFFFFFFFFFFFFFFFFFFFFFFF AND DUP2 MSTORE PUSH1 0x20 ADD SWAP1 DUP2 MSTORE PUSH1 0x20 ADD PUSH0 KECCAK256 PUSH1 0x2 ADD PUSH1 0x1 PUSH0 DUP7 PUSH20 0xFFFFFFFFFFFFFFFFFFFFFFFFFFFFFFFFFFFFFFFF AND PUSH20 0xFFFFFFFFFFFFFFFFFFFFFFFFFFFFFFFFFFFFFFFF AND DUP2 MSTORE PUSH1 0x20 ADD SWAP1 DUP2 MSTORE PUSH1 0x20 ADD PUSH0 KECCAK256 PUSH1 0x3 ADD DUP6 PUSH1 0x40 MLOAD PUSH1 0x20 ADD PUSH2 0x78B SWAP5 SWAP4 SWAP3 SWAP2 SWAP1 PUSH2 0x206D JUMP JUMPDEST PUSH1 0x40 MLOAD PUSH1 0x20 DUP2 DUP4 SUB SUB DUP2 MSTORE SWAP1 PUSH1 0x40 MSTORE DUP1 MLOAD SWAP1 PUSH1 0x20 ADD KECCAK256 PUSH0 SHR SWAP1 POP DUP1 PUSH1 0x1 PUSH0 DUP6 PUSH20 0xFFFFFFFFFFFFFFFFFFFFFFFFFFFFFFFFFFFFFFFF AND PUSH20 0xFFFFFFFFFFFFFFFFFFFFFFFFFFFFFFFFFFFFFFFF AND DUP2 MSTORE PUSH1 0x20 ADD SWAP1 DUP2 MSTORE PUSH1 0x20 ADD PUSH0 KECCAK256 PUSH0 ADD SLOAD EQ PUSH2 0x826 JUMPI PUSH1 0x40 MLOAD PUSH32 0x8C379A000000000000000000000000000000000000000000000000000000000 DUP2 MSTORE PUSH1 0x4 ADD PUSH2 0x81D SWAP1 PUSH2 0x20F8 JUMP JUMPDEST PUSH1 0x40 MLOAD DUP1 SWAP2 SUB SWAP1 REVERT JUMPDEST PUSH1 0x1 PUSH0 DUP5 PUSH20 0xFFFFFFFFFFFFFFFFFFFFFFFFFFFFFFFFFFFFFFFF AND PUSH20 0xFFFFFFFFFFFFFFFFFFFFFFFFFFFFFFFFFFFFFFFF AND DUP2 MSTORE PUSH1 0x20 ADD SWAP1 DUP2 MSTORE PUSH1 0x20 ADD PUSH0 KECCAK256 PUSH0 DUP1 DUP3 ADD PUSH0 SWAP1 SSTORE PUSH1 0x1 DUP3 ADD PUSH0 PUSH2 0x879 SWAP2 SWAP1 PUSH2 0x1620 JUMP JUMPDEST PUSH1 0x2 DUP3 ADD PUSH0 PUSH2 0x888 SWAP2 SWAP1 PUSH2 0x1620 JUMP JUMPDEST PUSH1 0x3 DUP3 ADD PUSH0 PUSH2 0x897 SWAP2 SWAP1 PUSH2 0x1620 JUMP JUMPDEST PUSH1 0x4 DUP3 ADD PUSH0 SWAP1 SSTORE POP POP PUSH0 PUSH1 0x1 PUSH0 DUP6 PUSH20 0xFFFFFFFFFFFFFFFFFFFFFFFFFFFFFFFFFFFFFFFF AND PUSH20 0xFFFFFFFFFFFFFFFFFFFFFFFFFFFFFFFFFFFFFFFF AND DUP2 MSTORE PUSH1 0x20 ADD SWAP1 DUP2 MSTORE PUSH1 0x20 ADD PUSH0 KECCAK256 PUSH0 ADD SLOAD SUB PUSH2 0x8F0 JUMPI PUSH1 0x1 SWAP2 POP POP PUSH2 0x8F5 JUMP JUMPDEST PUSH0 SWAP2 POP POP JUMPDEST SWAP2 SWAP1 POP JUMP JUMPDEST PUSH0 ADDRESS PUSH20 0xFFFFFFFFFFFFFFFFFFFFFFFFFFFFFFFFFFFFFFFF AND PUSH4 0xA5578807 DUP4 PUSH1 0x40 MLOAD DUP3 PUSH4 0xFFFFFFFF AND PUSH1 0xE0 SHL DUP2 MSTORE PUSH1 0x4 ADD PUSH2 0x934 SWAP2 SWAP1 PUSH2 0x1E82 JUMP JUMPDEST PUSH1 0x20 PUSH1 0x40 MLOAD DUP1 DUP4 SUB DUP2 DUP7 GAS STATICCALL ISZERO DUP1 ISZERO PUSH2 0x94F JUMPI RETURNDATASIZE PUSH0 DUP1 RETURNDATACOPY RETURNDATASIZE PUSH0 REVERT JUMPDEST POP POP POP POP PUSH1 0x40 MLOAD RETURNDATASIZE PUSH1 0x1F NOT PUSH1 0x1F DUP3 ADD AND DUP3 ADD DUP1 PUSH1 0x40 MSTORE POP DUP2 ADD SWAP1 PUSH2 0x973 SWAP2 SWAP1 PUSH2 0x1EC5 JUMP JUMPDEST PUSH2 0x9B2 JUMPI PUSH1 0x40 MLOAD PUSH32 0x8C379A000000000000000000000000000000000000000000000000000000000 DUP2 MSTORE PUSH1 0x4 ADD PUSH2 0x9A9 SWAP1 PUSH2 0x1F3A JUMP JUMPDEST PUSH1 0x40 MLOAD DUP1 SWAP2 SUB SWAP1 REVERT JUMPDEST PUSH1 0x1 PUSH0 DUP4 PUSH20 0xFFFFFFFFFFFFFFFFFFFFFFFFFFFFFFFFFFFFFFFF AND PUSH20 0xFFFFFFFFFFFFFFFFFFFFFFFFFFFFFFFFFFFFFFFF AND DUP2 MSTORE PUSH1 0x20 ADD SWAP1 DUP2 MSTORE PUSH1 0x20 ADD PUSH0 KECCAK256 PUSH0 ADD SLOAD SWAP1 POP SWAP2 SWAP1 POP JUMP JUMPDEST PUSH1 0x60 ADDRESS PUSH20 0xFFFFFFFFFFFFFFFFFFFFFFFFFFFFFFFFFFFFFFFF AND PUSH4 0xA5578807 DUP5 PUSH1 0x40 MLOAD DUP3 PUSH4 0xFFFFFFFF AND PUSH1 0xE0 SHL DUP2 MSTORE PUSH1 0x4 ADD PUSH2 0xA34 SWAP2 SWAP1 PUSH2 0x1E82 JUMP JUMPDEST PUSH1 0x20 PUSH1 0x40 MLOAD DUP1 DUP4 SUB DUP2 DUP7 GAS STATICCALL ISZERO DUP1 ISZERO PUSH2 0xA4F JUMPI RETURNDATASIZE PUSH0 DUP1 RETURNDATACOPY RETURNDATASIZE PUSH0 REVERT JUMPDEST POP POP POP POP PUSH1 0x40 MLOAD RETURNDATASIZE PUSH1 0x1F NOT PUSH1 0x1F DUP3 ADD AND DUP3 ADD DUP1 PUSH1 0x40 MSTORE POP DUP2 ADD SWAP1 PUSH2 0xA73 SWAP2 SWAP1 PUSH2 0x1EC5 JUMP JUMPDEST PUSH2 0xAB2 JUMPI PUSH1 0x40 MLOAD PUSH32 0x8C379A000000000000000000000000000000000000000000000000000000000 DUP2 MSTORE PUSH1 0x4 ADD PUSH2 0xAA9 SWAP1 PUSH2 0x1F3A JUMP JUMPDEST PUSH1 0x40 MLOAD DUP1 SWAP2 SUB SWAP1 REVERT JUMPDEST DUP2 PUSH1 0x1 PUSH0 DUP6 PUSH20 0xFFFFFFFFFFFFFFFFFFFFFFFFFFFFFFFFFFFFFFFF AND PUSH20 0xFFFFFFFFFFFFFFFFFFFFFFFFFFFFFFFFFFFFFFFF AND DUP2 MSTORE PUSH1 0x20 ADD SWAP1 DUP2 MSTORE PUSH1 0x20 ADD PUSH0 KECCAK256 PUSH0 ADD SLOAD EQ PUSH2 0xB33 JUMPI PUSH1 0x40 MLOAD PUSH32 0x8C379A000000000000000000000000000000000000000000000000000000000 DUP2 MSTORE PUSH1 0x4 ADD PUSH2 0xB2A SWAP1 PUSH2 0x1FA2 JUMP JUMPDEST PUSH1 0x40 MLOAD DUP1 SWAP2 SUB SWAP1 REVERT JUMPDEST PUSH1 0x1 PUSH0 DUP5 PUSH20 0xFFFFFFFFFFFFFFFFFFFFFFFFFFFFFFFFFFFFFFFF AND PUSH20 0xFFFFFFFFFFFFFFFFFFFFFFFFFFFFFFFFFFFFFFFF AND DUP2 MSTORE PUSH1 0x20 ADD SWAP1 DUP2 MSTORE PUSH1 0x20 ADD PUSH0 KECCAK256 PUSH1 0x1 ADD DUP1 SLOAD PUSH2 0xB7E SWAP1 PUSH2 0x1D8E JUMP JUMPDEST DUP1 PUSH1 0x1F ADD PUSH1 0x20 DUP1 SWAP2 DIV MUL PUSH1 0x20 ADD PUSH1 0x40 MLOAD SWAP1 DUP2 ADD PUSH1 0x40 MSTORE DUP1 SWAP3 SWAP2 SWAP1 DUP2 DUP2 MSTORE PUSH1 0x20 ADD DUP3 DUP1 SLOAD PUSH2 0xBAA SWAP1 PUSH2 0x1D8E JUMP JUMPDEST DUP1 ISZERO PUSH2 0xBF5 JUMPI DUP1 PUSH1 0x1F LT PUSH2 0xBCC JUMPI PUSH2 0x100 DUP1 DUP4 SLOAD DIV MUL DUP4 MSTORE SWAP2 PUSH1 0x20 ADD SWAP2 PUSH2 0xBF5 JUMP JUMPDEST DUP3 ADD SWAP2 SWAP1 PUSH0 MSTORE PUSH1 0x20 PUSH0 KECCAK256 SWAP1 JUMPDEST DUP2 SLOAD DUP2 MSTORE SWAP1 PUSH1 0x1 ADD SWAP1 PUSH1 0x20 ADD DUP1 DUP4 GT PUSH2 0xBD8 JUMPI DUP3 SWAP1 SUB PUSH1 0x1F AND DUP3 ADD SWAP2 JUMPDEST POP POP POP POP POP SWAP1 POP SWAP3 SWAP2 POP POP JUMP JUMPDEST PUSH0 PUSH1 0x60 DUP1 PUSH1 0x60 PUSH0 DUP1 PUSH1 0x1 PUSH0 DUP9 PUSH20 0xFFFFFFFFFFFFFFFFFFFFFFFFFFFFFFFFFFFFFFFF AND PUSH20 0xFFFFFFFFFFFFFFFFFFFFFFFFFFFFFFFFFFFFFFFF AND DUP2 MSTORE PUSH1 0x20 ADD SWAP1 DUP2 MSTORE PUSH1 0x20 ADD PUSH0 KECCAK256 PUSH0 ADD SLOAD SUB PUSH2 0xC8A JUMPI PUSH1 0x40 MLOAD PUSH32 0x8C379A000000000000000000000000000000000000000000000000000000000 DUP2 MSTORE PUSH1 0x4 ADD PUSH2 0xC81 SWAP1 PUSH2 0x1CE6 JUMP JUMPDEST PUSH1 0x40 MLOAD DUP1 SWAP2 SUB SWAP1 REVERT JUMPDEST PUSH0 PUSH1 0x1 PUSH0 DUP9 PUSH20 0xFFFFFFFFFFFFFFFFFFFFFFFFFFFFFFFFFFFFFFFF AND PUSH20 0xFFFFFFFFFFFFFFFFFFFFFFFFFFFFFFFFFFFFFFFF AND DUP2 MSTORE PUSH1 0x20 ADD SWAP1 DUP2 MSTORE PUSH1 0x20 ADD PUSH0 KECCAK256 PUSH1 0x40 MLOAD DUP1 PUSH1 0xA0 ADD PUSH1 0x40 MSTORE SWAP1 DUP2 PUSH0 DUP3 ADD SLOAD DUP2 MSTORE PUSH1 0x20 ADD PUSH1 0x1 DUP3 ADD DUP1 SLOAD PUSH2 0xCEC SWAP1 PUSH2 0x1D8E JUMP JUMPDEST DUP1 PUSH1 0x1F ADD PUSH1 0x20 DUP1 SWAP2 DIV MUL PUSH1 0x20 ADD PUSH1 0x40 MLOAD SWAP1 DUP2 ADD PUSH1 0x40 MSTORE DUP1 SWAP3 SWAP2 SWAP1 DUP2 DUP2 MSTORE PUSH1 0x20 ADD DUP3 DUP1 SLOAD PUSH2 0xD18 SWAP1 PUSH2 0x1D8E JUMP JUMPDEST DUP1 ISZERO PUSH2 0xD63 JUMPI DUP1 PUSH1 0x1F LT PUSH2 0xD3A JUMPI PUSH2 0x100 DUP1 DUP4 SLOAD DIV MUL DUP4 MSTORE SWAP2 PUSH1 0x20 ADD SWAP2 PUSH2 0xD63 JUMP JUMPDEST DUP3 ADD SWAP2 SWAP1 PUSH0 MSTORE PUSH1 0x20 PUSH0 KECCAK256 SWAP1 JUMPDEST DUP2 SLOAD DUP2 MSTORE SWAP1 PUSH1 0x1 ADD SWAP1 PUSH1 0x20 ADD DUP1 DUP4 GT PUSH2 0xD46 JUMPI DUP3 SWAP1 SUB PUSH1 0x1F AND DUP3 ADD SWAP2 JUMPDEST POP POP POP POP POP DUP2 MSTORE PUSH1 0x20 ADD PUSH1 0x2 DUP3 ADD DUP1 SLOAD PUSH2 0xD7C SWAP1 PUSH2 0x1D8E JUMP JUMPDEST DUP1 PUSH1 0x1F ADD PUSH1 0x20 DUP1 SWAP2 DIV MUL PUSH1 0x20 ADD PUSH1 0x40 MLOAD SWAP1 DUP2 ADD PUSH1 0x40 MSTORE DUP1 SWAP3 SWAP2 SWAP1 DUP2 DUP2 MSTORE PUSH1 0x20 ADD DUP3 DUP1 SLOAD PUSH2 0xDA8 SWAP1 PUSH2 0x1D8E JUMP JUMPDEST DUP1 ISZERO PUSH2 0xDF3 JUMPI DUP1 PUSH1 0x1F LT PUSH2 0xDCA JUMPI PUSH2 0x100 DUP1 DUP4 SLOAD DIV MUL DUP4 MSTORE SWAP2 PUSH1 0x20 ADD SWAP2 PUSH2 0xDF3 JUMP JUMPDEST DUP3 ADD SWAP2 SWAP1 PUSH0 MSTORE PUSH1 0x20 PUSH0 KECCAK256 SWAP1 JUMPDEST DUP2 SLOAD DUP2 MSTORE SWAP1 PUSH1 0x1 ADD SWAP1 PUSH1 0x20 ADD DUP1 DUP4 GT PUSH2 0xDD6 JUMPI DUP3 SWAP1 SUB PUSH1 0x1F AND DUP3 ADD SWAP2 JUMPDEST POP POP POP POP POP DUP2 MSTORE PUSH1 0x20 ADD PUSH1 0x3 DUP3 ADD DUP1 SLOAD PUSH2 0xE0C SWAP1 PUSH2 0x1D8E JUMP JUMPDEST DUP1 PUSH1 0x1F ADD PUSH1 0x20 DUP1 SWAP2 DIV MUL PUSH1 0x20 ADD PUSH1 0x40 MLOAD SWAP1 DUP2 ADD PUSH1 0x40 MSTORE DUP1 SWAP3 SWAP2 SWAP1 DUP2 DUP2 MSTORE PUSH1 0x20 ADD DUP3 DUP1 SLOAD PUSH2 0xE38 SWAP1 PUSH2 0x1D8E JUMP JUMPDEST DUP1 ISZERO PUSH2 0xE83 JUMPI DUP1 PUSH1 0x1F LT PUSH2 0xE5A JUMPI PUSH2 0x100 DUP1 DUP4 SLOAD DIV MUL DUP4 MSTORE SWAP2 PUSH1 0x20 ADD SWAP2 PUSH2 0xE83 JUMP JUMPDEST DUP3 ADD SWAP2 SWAP1 PUSH0 MSTORE PUSH1 0x20 PUSH0 KECCAK256 SWAP1 JUMPDEST DUP2 SLOAD DUP2 MSTORE SWAP1 PUSH1 0x1 ADD SWAP1 PUSH1 0x20 ADD DUP1 DUP4 GT PUSH2 0xE66 JUMPI DUP3 SWAP1 SUB PUSH1 0x1F AND DUP3 ADD SWAP2 JUMPDEST POP POP POP POP POP DUP2 MSTORE PUSH1 0x20 ADD PUSH1 0x4 DUP3 ADD SLOAD DUP2 MSTORE POP POP SWAP1 POP DUP1 PUSH0 ADD MLOAD DUP2 PUSH1 0x20 ADD MLOAD DUP3 PUSH1 0x40 ADD MLOAD DUP4 PUSH1 0x60 ADD MLOAD DUP5 PUSH1 0x80 ADD MLOAD SWAP6 POP SWAP6 POP SWAP6 POP SWAP6 POP SWAP6 POP POP SWAP2 SWAP4 SWAP6 SWAP1 SWAP3 SWAP5 POP JUMP JUMPDEST PUSH0 DUP2 GT PUSH2 0xF06 JUMPI PUSH1 0x40 MLOAD PUSH32 0x8C379A000000000000000000000000000000000000000000000000000000000 DUP2 MSTORE PUSH1 0x4 ADD PUSH2 0xEFD SWAP1 PUSH2 0x2160 JUMP JUMPDEST PUSH1 0x40 MLOAD DUP1 SWAP2 SUB SWAP1 REVERT JUMPDEST ADDRESS PUSH20 0xFFFFFFFFFFFFFFFFFFFFFFFFFFFFFFFFFFFFFFFF AND PUSH4 0xA5578807 DUP5 PUSH1 0x40 MLOAD DUP3 PUSH4 0xFFFFFFFF AND PUSH1 0xE0 SHL DUP2 MSTORE PUSH1 0x4 ADD PUSH2 0xF3F SWAP2 SWAP1 PUSH2 0x1E82 JUMP JUMPDEST PUSH1 0x20 PUSH1 0x40 MLOAD DUP1 DUP4 SUB DUP2 DUP7 GAS STATICCALL ISZERO DUP1 ISZERO PUSH2 0xF5A JUMPI RETURNDATASIZE PUSH0 DUP1 RETURNDATACOPY RETURNDATASIZE PUSH0 REVERT JUMPDEST POP POP POP POP PUSH1 0x40 MLOAD RETURNDATASIZE PUSH1 0x1F NOT PUSH1 0x1F DUP3 ADD AND DUP3 ADD DUP1 PUSH1 0x40 MSTORE POP DUP2 ADD SWAP1 PUSH2 0xF7E SWAP2 SWAP1 PUSH2 0x1EC5 JUMP JUMPDEST PUSH2 0xFBD JUMPI PUSH1 0x40 MLOAD PUSH32 0x8C379A000000000000000000000000000000000000000000000000000000000 DUP2 MSTORE PUSH1 0x4 ADD PUSH2 0xFB4 SWAP1 PUSH2 0x1F3A JUMP JUMPDEST PUSH1 0x40 MLOAD DUP1 SWAP2 SUB SWAP1 REVERT JUMPDEST DUP2 PUSH1 0x1 PUSH0 DUP6 PUSH20 0xFFFFFFFFFFFFFFFFFFFFFFFFFFFFFFFFFFFFFFFF AND PUSH20 0xFFFFFFFFFFFFFFFFFFFFFFFFFFFFFFFFFFFFFFFF AND DUP2 MSTORE PUSH1 0x20 ADD SWAP1 DUP2 MSTORE PUSH1 0x20 ADD PUSH0 KECCAK256 PUSH0 ADD SLOAD EQ PUSH2 0x103E JUMPI PUSH1 0x40 MLOAD PUSH32 0x8C379A000000000000000000000000000000000000000000000000000000000 DUP2 MSTORE PUSH1 0x4 ADD PUSH2 0x1035 SWAP1 PUSH2 0x1FA2 JUMP JUMPDEST PUSH1 0x40 MLOAD DUP1 SWAP2 SUB SWAP1 REVERT JUMPDEST DUP1 PUSH1 0x1 PUSH0 DUP6 PUSH20 0xFFFFFFFFFFFFFFFFFFFFFFFFFFFFFFFFFFFFFFFF AND PUSH20 0xFFFFFFFFFFFFFFFFFFFFFFFFFFFFFFFFFFFFFFFF AND DUP2 MSTORE PUSH1 0x20 ADD SWAP1 DUP2 MSTORE PUSH1 0x20 ADD PUSH0 KECCAK256 PUSH1 0x4 ADD DUP2 SWAP1 SSTORE POP POP POP POP JUMP JUMPDEST PUSH0 DUP1 PUSH20 0xFFFFFFFFFFFFFFFFFFFFFFFFFFFFFFFFFFFFFFFF AND DUP3 PUSH20 0xFFFFFFFFFFFFFFFFFFFFFFFFFFFFFFFFFFFFFFFF AND SUB PUSH2 0x10F7 JUMPI PUSH1 0x40 MLOAD PUSH32 0x8C379A000000000000000000000000000000000000000000000000000000000 DUP2 MSTORE PUSH1 0x4 ADD PUSH2 0x10EE SWAP1 PUSH2 0x21C8 JUMP JUMPDEST PUSH1 0x40 MLOAD DUP1 SWAP2 SUB SWAP1 REVERT JUMPDEST PUSH0 PUSH1 0x1 PUSH0 DUP5 PUSH20 0xFFFFFFFFFFFFFFFFFFFFFFFFFFFFFFFFFFFFFFFF AND PUSH20 0xFFFFFFFFFFFFFFFFFFFFFFFFFFFFFFFFFFFFFFFF AND DUP2 MSTORE PUSH1 0x20 ADD SWAP1 DUP2 MSTORE PUSH1 0x20 ADD PUSH0 KECCAK256 PUSH0 ADD SLOAD EQ ISZERO SWAP1 POP SWAP2 SWAP1 POP JUMP JUMPDEST PUSH0 DUP1 SLOAD SWAP1 PUSH2 0x100 EXP SWAP1 DIV PUSH20 0xFFFFFFFFFFFFFFFFFFFFFFFFFFFFFFFFFFFFFFFF AND PUSH20 0xFFFFFFFFFFFFFFFFFFFFFFFFFFFFFFFFFFFFFFFF AND DUP2 PUSH20 0xFFFFFFFFFFFFFFFFFFFFFFFFFFFFFFFFFFFFFFFF AND SUB PUSH2 0x11CE JUMPI PUSH1 0x40 MLOAD PUSH32 0x8C379A000000000000000000000000000000000000000000000000000000000 DUP2 MSTORE PUSH1 0x4 ADD PUSH2 0x11C5 SWAP1 PUSH2 0x1C7E JUMP JUMPDEST PUSH1 0x40 MLOAD DUP1 SWAP2 SUB SWAP1 REVERT JUMPDEST PUSH0 DUP5 DUP5 DUP5 DUP5 PUSH1 0x40 MLOAD PUSH1 0x20 ADD PUSH2 0x11E6 SWAP5 SWAP4 SWAP3 SWAP2 SWAP1 PUSH2 0x21E6 JUMP JUMPDEST PUSH1 0x40 MLOAD PUSH1 0x20 DUP2 DUP4 SUB SUB DUP2 MSTORE SWAP1 PUSH1 0x40 MSTORE DUP1 MLOAD SWAP1 PUSH1 0x20 ADD KECCAK256 SWAP1 POP PUSH0 DUP2 PUSH0 SHR SWAP1 POP PUSH0 PUSH1 0x1 PUSH0 DUP6 PUSH20 0xFFFFFFFFFFFFFFFFFFFFFFFFFFFFFFFFFFFFFFFF AND PUSH20 0xFFFFFFFFFFFFFFFFFFFFFFFFFFFFFFFFFFFFFFFF AND DUP2 MSTORE PUSH1 0x20 ADD SWAP1 DUP2 MSTORE PUSH1 0x20 ADD PUSH0 KECCAK256 PUSH0 ADD SLOAD EQ PUSH2 0x1285 JUMPI PUSH1 0x40 MLOAD PUSH32 0x8C379A000000000000000000000000000000000000000000000000000000000 DUP2 MSTORE PUSH1 0x4 ADD PUSH2 0x127C SWAP1 PUSH2 0x2271 JUMP JUMPDEST PUSH1 0x40 MLOAD DUP1 SWAP2 SUB SWAP1 REVERT JUMPDEST PUSH0 DUP7 MLOAD GT PUSH2 0x12C8 JUMPI PUSH1 0x40 MLOAD PUSH32 0x8C379A000000000000000000000000000000000000000000000000000000000 DUP2 MSTORE PUSH1 0x4 ADD PUSH2 0x12BF SWAP1 PUSH2 0x22D9 JUMP JUMPDEST PUSH1 0x40 MLOAD DUP1 SWAP2 SUB SWAP1 REVERT JUMPDEST PUSH0 DUP6 MLOAD GT PUSH2 0x130B JUMPI PUSH1 0x40 MLOAD PUSH32 0x8C379A000000000000000000000000000000000000000000000000000000000 DUP2 MSTORE PUSH1 0x4 ADD PUSH2 0x1302 SWAP1 PUSH2 0x2341 JUMP JUMPDEST PUSH1 0x40 MLOAD DUP1 SWAP2 SUB SWAP1 REVERT JUMPDEST PUSH0 DUP5 MLOAD GT PUSH2 0x134E JUMPI PUSH1 0x40 MLOAD PUSH32 0x8C379A000000000000000000000000000000000000000000000000000000000 DUP2 MSTORE PUSH1 0x4 ADD PUSH2 0x1345 SWAP1 PUSH2 0x23A9 JUMP JUMPDEST PUSH1 0x40 MLOAD DUP1 SWAP2 SUB SWAP1 REVERT JUMPDEST PUSH0 PUSH1 0x40 MLOAD DUP1 PUSH1 0xA0 ADD PUSH1 0x40 MSTORE DUP1 DUP4 DUP2 MSTORE PUSH1 0x20 ADD DUP9 DUP2 MSTORE PUSH1 0x20 ADD DUP8 DUP2 MSTORE PUSH1 0x20 ADD DUP7 DUP2 MSTORE PUSH1 0x20 ADD PUSH1 0x64 DUP2 MSTORE POP SWAP1 POP DUP1 PUSH1 0x1 PUSH0 DUP7 PUSH20 0xFFFFFFFFFFFFFFFFFFFFFFFFFFFFFFFFFFFFFFFF AND PUSH20 0xFFFFFFFFFFFFFFFFFFFFFFFFFFFFFFFFFFFFFFFF AND DUP2 MSTORE PUSH1 0x20 ADD SWAP1 DUP2 MSTORE PUSH1 0x20 ADD PUSH0 KECCAK256 PUSH0 DUP3 ADD MLOAD DUP2 PUSH0 ADD SSTORE PUSH1 0x20 DUP3 ADD MLOAD DUP2 PUSH1 0x1 ADD SWAP1 DUP2 PUSH2 0x13D4 SWAP2 SWAP1 PUSH2 0x2552 JUMP JUMPDEST POP PUSH1 0x40 DUP3 ADD MLOAD DUP2 PUSH1 0x2 ADD SWAP1 DUP2 PUSH2 0x13EA SWAP2 SWAP1 PUSH2 0x2552 JUMP JUMPDEST POP PUSH1 0x60 DUP3 ADD MLOAD DUP2 PUSH1 0x3 ADD SWAP1 DUP2 PUSH2 0x1400 SWAP2 SWAP1 PUSH2 0x2552 JUMP JUMPDEST POP PUSH1 0x80 DUP3 ADD MLOAD DUP2 PUSH1 0x4 ADD SSTORE SWAP1 POP POP POP POP POP POP POP POP POP JUMP JUMPDEST PUSH1 0x60 ADDRESS PUSH20 0xFFFFFFFFFFFFFFFFFFFFFFFFFFFFFFFFFFFFFFFF AND PUSH4 0xA5578807 DUP5 PUSH1 0x40 MLOAD DUP3 PUSH4 0xFFFFFFFF AND PUSH1 0xE0 SHL DUP2 MSTORE PUSH1 0x4 ADD PUSH2 0x1452 SWAP2 SWAP1 PUSH2 0x1E82 JUMP JUMPDEST PUSH1 0x20 PUSH1 0x40 MLOAD DUP1 DUP4 SUB DUP2 DUP7 GAS STATICCALL ISZERO DUP1 ISZERO PUSH2 0x146D JUMPI RETURNDATASIZE PUSH0 DUP1 RETURNDATACOPY RETURNDATASIZE PUSH0 REVERT JUMPDEST POP POP POP POP PUSH1 0x40 MLOAD RETURNDATASIZE PUSH1 0x1F NOT PUSH1 0x1F DUP3 ADD AND DUP3 ADD DUP1 PUSH1 0x40 MSTORE POP DUP2 ADD SWAP1 PUSH2 0x1491 SWAP2 SWAP1 PUSH2 0x1EC5 JUMP JUMPDEST PUSH2 0x14D0 JUMPI PUSH1 0x40 MLOAD PUSH32 0x8C379A000000000000000000000000000000000000000000000000000000000 DUP2 MSTORE PUSH1 0x4 ADD PUSH2 0x14C7 SWAP1 PUSH2 0x1F3A JUMP JUMPDEST PUSH1 0x40 MLOAD DUP1 SWAP2 SUB SWAP1 REVERT JUMPDEST DUP2 PUSH1 0x1 PUSH0 DUP6 PUSH20 0xFFFFFFFFFFFFFFFFFFFFFFFFFFFFFFFFFFFFFFFF AND PUSH20 0xFFFFFFFFFFFFFFFFFFFFFFFFFFFFFFFFFFFFFFFF AND DUP2 MSTORE PUSH1 0x20 ADD SWAP1 DUP2 MSTORE PUSH1 0x20 ADD PUSH0 KECCAK256 PUSH0 ADD SLOAD EQ PUSH2 0x1551 JUMPI PUSH1 0x40 MLOAD PUSH32 0x8C379A000000000000000000000000000000000000000000000000000000000 DUP2 MSTORE PUSH1 0x4 ADD PUSH2 0x1548 SWAP1 PUSH2 0x1FA2 JUMP JUMPDEST PUSH1 0x40 MLOAD DUP1 SWAP2 SUB SWAP1 REVERT JUMPDEST PUSH1 0x1 PUSH0 DUP5 PUSH20 0xFFFFFFFFFFFFFFFFFFFFFFFFFFFFFFFFFFFFFFFF AND PUSH20 0xFFFFFFFFFFFFFFFFFFFFFFFFFFFFFFFFFFFFFFFF AND DUP2 MSTORE PUSH1 0x20 ADD SWAP1 DUP2 MSTORE PUSH1 0x20 ADD PUSH0 KECCAK256 PUSH1 0x3 ADD DUP1 SLOAD PUSH2 0x159C SWAP1 PUSH2 0x1D8E JUMP JUMPDEST DUP1 PUSH1 0x1F ADD PUSH1 0x20 DUP1 SWAP2 DIV MUL PUSH1 0x20 ADD PUSH1 0x40 MLOAD SWAP1 DUP2 ADD PUSH1 0x40 MSTORE DUP1 SWAP3 SWAP2 SWAP1 DUP2 DUP2 MSTORE PUSH1 0x20 ADD DUP3 DUP1 SLOAD PUSH2 0x15C8 SWAP1 PUSH2 0x1D8E JUMP JUMPDEST DUP1 ISZERO PUSH2 0x1613 JUMPI DUP1 PUSH1 0x1F LT PUSH2 0x15EA JUMPI PUSH2 0x100 DUP1 DUP4 SLOAD DIV MUL DUP4 MSTORE SWAP2 PUSH1 0x20 ADD SWAP2 PUSH2 0x1613 JUMP JUMPDEST DUP3 ADD SWAP2 SWAP1 PUSH0 MSTORE PUSH1 0x20 PUSH0 KECCAK256 SWAP1 JUMPDEST DUP2 SLOAD DUP2 MSTORE SWAP1 PUSH1 0x1 ADD SWAP1 PUSH1 0x20 ADD DUP1 DUP4 GT PUSH2 0x15F6 JUMPI DUP3 SWAP1 SUB PUSH1 0x1F AND DUP3 ADD SWAP2 JUMPDEST POP POP POP POP POP SWAP1 POP SWAP3 SWAP2 POP POP JUMP JUMPDEST POP DUP1 SLOAD PUSH2 0x162C SWAP1 PUSH2 0x1D8E JUMP JUMPDEST PUSH0 DUP3 SSTORE DUP1 PUSH1 0x1F LT PUSH2 0x163D JUMPI POP PUSH2 0x165A JUMP JUMPDEST PUSH1 0x1F ADD PUSH1 0x20 SWAP1 DIV SWAP1 PUSH0 MSTORE PUSH1 0x20 PUSH0 KECCAK256 SWAP1 DUP2 ADD SWAP1 PUSH2 0x1659 SWAP2 SWAP1 PUSH2 0x165D JUMP JUMPDEST JUMPDEST POP JUMP JUMPDEST JUMPDEST DUP1 DUP3 GT ISZERO PUSH2 0x1674 JUMPI PUSH0 DUP2 PUSH0 SWAP1 SSTORE POP PUSH1 0x1 ADD PUSH2 0x165E JUMP JUMPDEST POP SWAP1 JUMP JUMPDEST PUSH0 PUSH1 0x40 MLOAD SWAP1 POP SWAP1 JUMP JUMPDEST PUSH0 DUP1 REVERT JUMPDEST PUSH0 DUP1 REVERT JUMPDEST PUSH0 PUSH20 0xFFFFFFFFFFFFFFFFFFFFFFFFFFFFFFFFFFFFFFFF DUP3 AND SWAP1 POP SWAP2 SWAP1 POP JUMP JUMPDEST PUSH0 PUSH2 0x16B2 DUP3 PUSH2 0x1689 JUMP JUMPDEST SWAP1 POP SWAP2 SWAP1 POP JUMP JUMPDEST PUSH2 0x16C2 DUP2 PUSH2 0x16A8 JUMP JUMPDEST DUP2 EQ PUSH2 0x16CC JUMPI PUSH0 DUP1 REVERT JUMPDEST POP JUMP JUMPDEST PUSH0 DUP2 CALLDATALOAD SWAP1 POP PUSH2 0x16DD DUP2 PUSH2 0x16B9 JUMP JUMPDEST SWAP3 SWAP2 POP POP JUMP JUMPDEST PUSH0 DUP1 REVERT JUMPDEST PUSH0 DUP1 REVERT JUMPDEST PUSH0 PUSH1 0x1F NOT PUSH1 0x1F DUP4 ADD AND SWAP1 POP SWAP2 SWAP1 POP JUMP JUMPDEST PUSH32 0x4E487B7100000000000000000000000000000000000000000000000000000000 PUSH0 MSTORE PUSH1 0x41 PUSH1 0x4 MSTORE PUSH1 0x24 PUSH0 REVERT JUMPDEST PUSH2 0x1731 DUP3 PUSH2 0x16EB JUMP JUMPDEST DUP2 ADD DUP2 DUP2 LT PUSH8 0xFFFFFFFFFFFFFFFF DUP3 GT OR ISZERO PUSH2 0x1750 JUMPI PUSH2 0x174F PUSH2 0x16FB JUMP JUMPDEST JUMPDEST DUP1 PUSH1 0x40 MSTORE POP POP POP JUMP JUMPDEST PUSH0 PUSH2 0x1762 PUSH2 0x1678 JUMP JUMPDEST SWAP1 POP PUSH2 0x176E DUP3 DUP3 PUSH2 0x1728 JUMP JUMPDEST SWAP2 SWAP1 POP JUMP JUMPDEST PUSH0 PUSH8 0xFFFFFFFFFFFFFFFF DUP3 GT ISZERO PUSH2 0x178D JUMPI PUSH2 0x178C PUSH2 0x16FB JUMP JUMPDEST JUMPDEST PUSH2 0x1796 DUP3 PUSH2 0x16EB JUMP JUMPDEST SWAP1 POP PUSH1 0x20 DUP2 ADD SWAP1 POP SWAP2 SWAP1 POP JUMP JUMPDEST DUP3 DUP2 DUP4 CALLDATACOPY PUSH0 DUP4 DUP4 ADD MSTORE POP POP POP JUMP JUMPDEST PUSH0 PUSH2 0x17C3 PUSH2 0x17BE DUP5 PUSH2 0x1773 JUMP JUMPDEST PUSH2 0x1759 JUMP JUMPDEST SWAP1 POP DUP3 DUP2 MSTORE PUSH1 0x20 DUP2 ADD DUP5 DUP5 DUP5 ADD GT ISZERO PUSH2 0x17DF JUMPI PUSH2 0x17DE PUSH2 0x16E7 JUMP JUMPDEST JUMPDEST PUSH2 0x17EA DUP5 DUP3 DUP6 PUSH2 0x17A3 JUMP JUMPDEST POP SWAP4 SWAP3 POP POP POP JUMP JUMPDEST PUSH0 DUP3 PUSH1 0x1F DUP4 ADD SLT PUSH2 0x1806 JUMPI PUSH2 0x1805 PUSH2 0x16E3 JUMP JUMPDEST JUMPDEST DUP2 CALLDATALOAD PUSH2 0x1816 DUP5 DUP3 PUSH1 0x20 DUP7 ADD PUSH2 0x17B1 JUMP JUMPDEST SWAP2 POP POP SWAP3 SWAP2 POP POP JUMP JUMPDEST PUSH0 DUP1 PUSH0 PUSH1 0x60 DUP5 DUP7 SUB SLT ISZERO PUSH2 0x1836 JUMPI PUSH2 0x1835 PUSH2 0x1681 JUMP JUMPDEST JUMPDEST PUSH0 PUSH2 0x1843 DUP7 DUP3 DUP8 ADD PUSH2 0x16CF JUMP JUMPDEST SWAP4 POP POP PUSH1 0x20 DUP5 ADD CALLDATALOAD PUSH8 0xFFFFFFFFFFFFFFFF DUP2 GT ISZERO PUSH2 0x1864 JUMPI PUSH2 0x1863 PUSH2 0x1685 JUMP JUMPDEST JUMPDEST PUSH2 0x1870 DUP7 DUP3 DUP8 ADD PUSH2 0x17F2 JUMP JUMPDEST SWAP3 POP POP PUSH1 0x40 DUP5 ADD CALLDATALOAD PUSH8 0xFFFFFFFFFFFFFFFF DUP2 GT ISZERO PUSH2 0x1891 JUMPI PUSH2 0x1890 PUSH2 0x1685 JUMP JUMPDEST JUMPDEST PUSH2 0x189D DUP7 DUP3 DUP8 ADD PUSH2 0x17F2 JUMP JUMPDEST SWAP2 POP POP SWAP3 POP SWAP3 POP SWAP3 JUMP JUMPDEST PUSH0 DUP2 ISZERO ISZERO SWAP1 POP SWAP2 SWAP1 POP JUMP JUMPDEST PUSH2 0x18BB DUP2 PUSH2 0x18A7 JUMP JUMPDEST DUP3 MSTORE POP POP JUMP JUMPDEST PUSH0 PUSH1 0x20 DUP3 ADD SWAP1 POP PUSH2 0x18D4 PUSH0 DUP4 ADD DUP5 PUSH2 0x18B2 JUMP JUMPDEST SWAP3 SWAP2 POP POP JUMP JUMPDEST PUSH0 DUP2 SWAP1 POP SWAP2 SWAP1 POP JUMP JUMPDEST PUSH2 0x18EC DUP2 PUSH2 0x18DA JUMP JUMPDEST DUP2 EQ PUSH2 0x18F6 JUMPI PUSH0 DUP1 REVERT JUMPDEST POP JUMP JUMPDEST PUSH0 DUP2 CALLDATALOAD SWAP1 POP PUSH2 0x1907 DUP2 PUSH2 0x18E3 JUMP JUMPDEST SWAP3 SWAP2 POP POP JUMP JUMPDEST PUSH0 DUP1 PUSH1 0x40 DUP4 DUP6 SUB SLT ISZERO PUSH2 0x1923 JUMPI PUSH2 0x1922 PUSH2 0x1681 JUMP JUMPDEST JUMPDEST PUSH0 PUSH2 0x1930 DUP6 DUP3 DUP7 ADD PUSH2 0x16CF JUMP JUMPDEST SWAP3 POP POP PUSH1 0x20 PUSH2 0x1941 DUP6 DUP3 DUP7 ADD PUSH2 0x18F9 JUMP JUMPDEST SWAP2 POP POP SWAP3 POP SWAP3 SWAP1 POP JUMP JUMPDEST PUSH2 0x1954 DUP2 PUSH2 0x18DA JUMP JUMPDEST DUP3 MSTORE POP POP JUMP JUMPDEST PUSH0 PUSH1 0x20 DUP3 ADD SWAP1 POP PUSH2 0x196D PUSH0 DUP4 ADD DUP5 PUSH2 0x194B JUMP JUMPDEST SWAP3 SWAP2 POP POP JUMP JUMPDEST PUSH0 PUSH1 0x20 DUP3 DUP5 SUB SLT ISZERO PUSH2 0x1988 JUMPI PUSH2 0x1987 PUSH2 0x1681 JUMP JUMPDEST JUMPDEST PUSH0 PUSH2 0x1995 DUP5 DUP3 DUP6 ADD PUSH2 0x16CF JUMP JUMPDEST SWAP2 POP POP SWAP3 SWAP2 POP POP JUMP JUMPDEST PUSH0 DUP2 MLOAD SWAP1 POP SWAP2 SWAP1 POP JUMP JUMPDEST PUSH0 DUP3 DUP3 MSTORE PUSH1 0x20 DUP3 ADD SWAP1 POP SWAP3 SWAP2 POP POP JUMP JUMPDEST PUSH0 JUMPDEST DUP4 DUP2 LT ISZERO PUSH2 0x19D5 JUMPI DUP1 DUP3 ADD MLOAD DUP2 DUP5 ADD MSTORE PUSH1 0x20 DUP2 ADD SWAP1 POP PUSH2 0x19BA JUMP JUMPDEST PUSH0 DUP5 DUP5 ADD MSTORE POP POP POP POP JUMP JUMPDEST PUSH0 PUSH2 0x19EA DUP3 PUSH2 0x199E JUMP JUMPDEST PUSH2 0x19F4 DUP2 DUP6 PUSH2 0x19A8 JUMP JUMPDEST SWAP4 POP PUSH2 0x1A04 DUP2 DUP6 PUSH1 0x20 DUP7 ADD PUSH2 0x19B8 JUMP JUMPDEST PUSH2 0x1A0D DUP2 PUSH2 0x16EB JUMP JUMPDEST DUP5 ADD SWAP2 POP POP SWAP3 SWAP2 POP POP JUMP JUMPDEST PUSH0 PUSH1 0x20 DUP3 ADD SWAP1 POP DUP2 DUP2 SUB PUSH0 DUP4 ADD MSTORE PUSH2 0x1A30 DUP2 DUP5 PUSH2 0x19E0 JUMP JUMPDEST SWAP1 POP SWAP3 SWAP2 POP POP JUMP JUMPDEST PUSH0 PUSH1 0xA0 DUP3 ADD SWAP1 POP PUSH2 0x1A4B PUSH0 DUP4 ADD DUP9 PUSH2 0x194B JUMP JUMPDEST DUP2 DUP2 SUB PUSH1 0x20 DUP4 ADD MSTORE PUSH2 0x1A5D DUP2 DUP8 PUSH2 0x19E0 JUMP JUMPDEST SWAP1 POP DUP2 DUP2 SUB PUSH1 0x40 DUP4 ADD MSTORE PUSH2 0x1A71 DUP2 DUP7 PUSH2 0x19E0 JUMP JUMPDEST SWAP1 POP DUP2 DUP2 SUB PUSH1 0x60 DUP4 ADD MSTORE PUSH2 0x1A85 DUP2 DUP6 PUSH2 0x19E0 JUMP JUMPDEST SWAP1 POP PUSH2 0x1A94 PUSH1 0x80 DUP4 ADD DUP5 PUSH2 0x194B JUMP JUMPDEST SWAP7 SWAP6 POP POP POP POP POP POP JUMP JUMPDEST PUSH0 DUP1 PUSH0 PUSH1 0x60 DUP5 DUP7 SUB SLT ISZERO PUSH2 0x1AB5 JUMPI PUSH2 0x1AB4 PUSH2 0x1681 JUMP JUMPDEST JUMPDEST PUSH0 PUSH2 0x1AC2 DUP7 DUP3 DUP8 ADD PUSH2 0x16CF JUMP JUMPDEST SWAP4 POP POP PUSH1 0x20 PUSH2 0x1AD3 DUP7 DUP3 DUP8 ADD PUSH2 0x18F9 JUMP JUMPDEST SWAP3 POP POP PUSH1 0x40 PUSH2 0x1AE4 DUP7 DUP3 DUP8 ADD PUSH2 0x18F9 JUMP JUMPDEST SWAP2 POP POP SWAP3 POP SWAP3 POP SWAP3 JUMP JUMPDEST PUSH0 DUP1 PUSH0 DUP1 PUSH1 0x80 DUP6 DUP8 SUB SLT ISZERO PUSH2 0x1B06 JUMPI PUSH2 0x1B05 PUSH2 0x1681 JUMP JUMPDEST JUMPDEST PUSH0 DUP6 ADD CALLDATALOAD PUSH8 0xFFFFFFFFFFFFFFFF DUP2 GT ISZERO PUSH2 0x1B23 JUMPI PUSH2 0x1B22 PUSH2 0x1685 JUMP JUMPDEST JUMPDEST PUSH2 0x1B2F DUP8 DUP3 DUP9 ADD PUSH2 0x17F2 JUMP JUMPDEST SWAP5 POP POP PUSH1 0x20 DUP6 ADD CALLDATALOAD PUSH8 0xFFFFFFFFFFFFFFFF DUP2 GT ISZERO PUSH2 0x1B50 JUMPI PUSH2 0x1B4F PUSH2 0x1685 JUMP JUMPDEST JUMPDEST PUSH2 0x1B5C DUP8 DUP3 DUP9 ADD PUSH2 0x17F2 JUMP JUMPDEST SWAP4 POP POP PUSH1 0x40 DUP6 ADD CALLDATALOAD PUSH8 0xFFFFFFFFFFFFFFFF DUP2 GT ISZERO PUSH2 0x1B7D JUMPI PUSH2 0x1B7C PUSH2 0x1685 JUMP JUMPDEST JUMPDEST PUSH2 0x1B89 DUP8 DUP3 DUP9 ADD PUSH2 0x17F2 JUMP JUMPDEST SWAP3 POP POP PUSH1 0x60 PUSH2 0x1B9A DUP8 DUP3 DUP9 ADD PUSH2 0x16CF JUMP JUMPDEST SWAP2 POP POP SWAP3 SWAP6 SWAP2 SWAP5 POP SWAP3 POP JUMP JUMPDEST PUSH32 0x41646472657373207574696C697A7A61746F206E6F6E2076616C69646F2C2070 PUSH0 DUP3 ADD MSTORE PUSH32 0x6172692061203021000000000000000000000000000000000000000000000000 PUSH1 0x20 DUP3 ADD MSTORE POP JUMP JUMPDEST PUSH0 PUSH2 0x1C00 PUSH1 0x28 DUP4 PUSH2 0x19A8 JUMP JUMPDEST SWAP2 POP PUSH2 0x1C0B DUP3 PUSH2 0x1BA6 JUMP JUMPDEST PUSH1 0x40 DUP3 ADD SWAP1 POP SWAP2 SWAP1 POP JUMP JUMPDEST PUSH0 PUSH1 0x20 DUP3 ADD SWAP1 POP DUP2 DUP2 SUB PUSH0 DUP4 ADD MSTORE PUSH2 0x1C2D DUP2 PUSH2 0x1BF4 JUMP JUMPDEST SWAP1 POP SWAP2 SWAP1 POP JUMP JUMPDEST PUSH32 0x41646472657373206E6F6E2056616C69646F2100000000000000000000000000 PUSH0 DUP3 ADD MSTORE POP JUMP JUMPDEST PUSH0 PUSH2 0x1C68 PUSH1 0x13 DUP4 PUSH2 0x19A8 JUMP JUMPDEST SWAP2 POP PUSH2 0x1C73 DUP3 PUSH2 0x1C34 JUMP JUMPDEST PUSH1 0x20 DUP3 ADD SWAP1 POP SWAP2 SWAP1 POP JUMP JUMPDEST PUSH0 PUSH1 0x20 DUP3 ADD SWAP1 POP DUP2 DUP2 SUB PUSH0 DUP4 ADD MSTORE PUSH2 0x1C95 DUP2 PUSH2 0x1C5C JUMP JUMPDEST SWAP1 POP SWAP2 SWAP1 POP JUMP JUMPDEST PUSH32 0x5574656E7465206E6F6E2070726573656E746521000000000000000000000000 PUSH0 DUP3 ADD MSTORE POP JUMP JUMPDEST PUSH0 PUSH2 0x1CD0 PUSH1 0x14 DUP4 PUSH2 0x19A8 JUMP JUMPDEST SWAP2 POP PUSH2 0x1CDB DUP3 PUSH2 0x1C9C JUMP JUMPDEST PUSH1 0x20 DUP3 ADD SWAP1 POP SWAP2 SWAP1 POP JUMP JUMPDEST PUSH0 PUSH1 0x20 DUP3 ADD SWAP1 POP DUP2 DUP2 SUB PUSH0 DUP4 ADD MSTORE PUSH2 0x1CFD DUP2 PUSH2 0x1CC4 JUMP JUMPDEST SWAP1 POP SWAP2 SWAP1 POP JUMP JUMPDEST PUSH0 DUP2 SWAP1 POP SWAP3 SWAP2 POP POP JUMP JUMPDEST PUSH0 PUSH2 0x1D18 DUP3 PUSH2 0x199E JUMP JUMPDEST PUSH2 0x1D22 DUP2 DUP6 PUSH2 0x1D04 JUMP JUMPDEST SWAP4 POP PUSH2 0x1D32 DUP2 DUP6 PUSH1 0x20 DUP7 ADD PUSH2 0x19B8 JUMP JUMPDEST DUP1 DUP5 ADD SWAP2 POP POP SWAP3 SWAP2 POP POP JUMP JUMPDEST PUSH0 PUSH2 0x1D49 DUP3 DUP6 PUSH2 0x1D0E JUMP JUMPDEST SWAP2 POP PUSH2 0x1D55 DUP3 DUP5 PUSH2 0x1D0E JUMP JUMPDEST SWAP2 POP DUP2 SWAP1 POP SWAP4 SWAP3 POP POP POP JUMP JUMPDEST PUSH32 0x4E487B7100000000000000000000000000000000000000000000000000000000 PUSH0 MSTORE PUSH1 0x22 PUSH1 0x4 MSTORE PUSH1 0x24 PUSH0 REVERT JUMPDEST PUSH0 PUSH1 0x2 DUP3 DIV SWAP1 POP PUSH1 0x1 DUP3 AND DUP1 PUSH2 0x1DA5 JUMPI PUSH1 0x7F DUP3 AND SWAP2 POP JUMPDEST PUSH1 0x20 DUP3 LT DUP2 SUB PUSH2 0x1DB8 JUMPI PUSH2 0x1DB7 PUSH2 0x1D61 JUMP JUMPDEST JUMPDEST POP SWAP2 SWAP1 POP JUMP JUMPDEST PUSH0 DUP2 SWAP1 POP DUP2 PUSH0 MSTORE PUSH1 0x20 PUSH0 KECCAK256 SWAP1 POP SWAP2 SWAP1 POP JUMP JUMPDEST PUSH0 DUP2 SLOAD PUSH2 0x1DDC DUP2 PUSH2 0x1D8E JUMP JUMPDEST PUSH2 0x1DE6 DUP2 DUP7 PUSH2 0x1D04 JUMP JUMPDEST SWAP5 POP PUSH1 0x1 DUP3 AND PUSH0 DUP2 EQ PUSH2 0x1E00 JUMPI PUSH1 0x1 DUP2 EQ PUSH2 0x1E15 JUMPI PUSH2 0x1E47 JUMP JUMPDEST PUSH1 0xFF NOT DUP4 AND DUP7 MSTORE DUP2 ISZERO ISZERO DUP3 MUL DUP7 ADD SWAP4 POP PUSH2 0x1E47 JUMP JUMPDEST PUSH2 0x1E1E DUP6 PUSH2 0x1DBE JUMP JUMPDEST PUSH0 JUMPDEST DUP4 DUP2 LT ISZERO PUSH2 0x1E3F JUMPI DUP2 SLOAD DUP2 DUP10 ADD MSTORE PUSH1 0x1 DUP3 ADD SWAP2 POP PUSH1 0x20 DUP2 ADD SWAP1 POP PUSH2 0x1E20 JUMP JUMPDEST DUP4 DUP9 ADD SWAP6 POP POP POP JUMPDEST POP POP POP SWAP3 SWAP2 POP POP JUMP JUMPDEST PUSH0 PUSH2 0x1E5B DUP3 DUP6 PUSH2 0x1DD0 JUMP JUMPDEST SWAP2 POP PUSH2 0x1E67 DUP3 DUP5 PUSH2 0x1DD0 JUMP JUMPDEST SWAP2 POP DUP2 SWAP1 POP SWAP4 SWAP3 POP POP POP JUMP JUMPDEST PUSH2 0x1E7C DUP2 PUSH2 0x16A8 JUMP JUMPDEST DUP3 MSTORE POP POP JUMP JUMPDEST PUSH0 PUSH1 0x20 DUP3 ADD SWAP1 POP PUSH2 0x1E95 PUSH0 DUP4 ADD DUP5 PUSH2 0x1E73 JUMP JUMPDEST SWAP3 SWAP2 POP POP JUMP JUMPDEST PUSH2 0x1EA4 DUP2 PUSH2 0x18A7 JUMP JUMPDEST DUP2 EQ PUSH2 0x1EAE JUMPI PUSH0 DUP1 REVERT JUMPDEST POP JUMP JUMPDEST PUSH0 DUP2 MLOAD SWAP1 POP PUSH2 0x1EBF DUP2 PUSH2 0x1E9B JUMP JUMPDEST SWAP3 SWAP2 POP POP JUMP JUMPDEST PUSH0 PUSH1 0x20 DUP3 DUP5 SUB SLT ISZERO PUSH2 0x1EDA JUMPI PUSH2 0x1ED9 PUSH2 0x1681 JUMP JUMPDEST JUMPDEST PUSH0 PUSH2 0x1EE7 DUP5 DUP3 DUP6 ADD PUSH2 0x1EB1 JUMP JUMPDEST SWAP2 POP POP SWAP3 SWAP2 POP POP JUMP JUMPDEST PUSH32 0x55736572204E6F7420466F756E64210000000000000000000000000000000000 PUSH0 DUP3 ADD MSTORE POP JUMP JUMPDEST PUSH0 PUSH2 0x1F24 PUSH1 0xF DUP4 PUSH2 0x19A8 JUMP JUMPDEST SWAP2 POP PUSH2 0x1F2F DUP3 PUSH2 0x1EF0 JUMP JUMPDEST PUSH1 0x20 DUP3 ADD SWAP1 POP SWAP2 SWAP1 POP JUMP JUMPDEST PUSH0 PUSH1 0x20 DUP3 ADD SWAP1 POP DUP2 DUP2 SUB PUSH0 DUP4 ADD MSTORE PUSH2 0x1F51 DUP2 PUSH2 0x1F18 JUMP JUMPDEST SWAP1 POP SWAP2 SWAP1 POP JUMP JUMPDEST PUSH32 0x537472756374206E6F742056616C696421000000000000000000000000000000 PUSH0 DUP3 ADD MSTORE POP JUMP JUMPDEST PUSH0 PUSH2 0x1F8C PUSH1 0x11 DUP4 PUSH2 0x19A8 JUMP JUMPDEST SWAP2 POP PUSH2 0x1F97 DUP3 PUSH2 0x1F58 JUMP JUMPDEST PUSH1 0x20 DUP3 ADD SWAP1 POP SWAP2 SWAP1 POP JUMP JUMPDEST PUSH0 PUSH1 0x20 DUP3 ADD SWAP1 POP DUP2 DUP2 SUB PUSH0 DUP4 ADD MSTORE PUSH2 0x1FB9 DUP2 PUSH2 0x1F80 JUMP JUMPDEST SWAP1 POP SWAP2 SWAP1 POP JUMP JUMPDEST PUSH32 0x55736572204E6F7420466F756E64000000000000000000000000000000000000 PUSH0 DUP3 ADD MSTORE POP JUMP JUMPDEST PUSH0 PUSH2 0x1FF4 PUSH1 0xE DUP4 PUSH2 0x19A8 JUMP JUMPDEST SWAP2 POP PUSH2 0x1FFF DUP3 PUSH2 0x1FC0 JUMP JUMPDEST PUSH1 0x20 DUP3 ADD SWAP1 POP SWAP2 SWAP1 POP JUMP JUMPDEST PUSH0 PUSH1 0x20 DUP3 ADD SWAP1 POP DUP2 DUP2 SUB PUSH0 DUP4 ADD MSTORE PUSH2 0x2021 DUP2 PUSH2 0x1FE8 JUMP JUMPDEST SWAP1 POP SWAP2 SWAP1 POP JUMP JUMPDEST PUSH0 DUP2 PUSH1 0x60 SHL SWAP1 POP SWAP2 SWAP1 POP JUMP JUMPDEST PUSH0 PUSH2 0x203E DUP3 PUSH2 0x2028 JUMP JUMPDEST SWAP1 POP SWAP2 SWAP1 POP JUMP JUMPDEST PUSH0 PUSH2 0x204F DUP3 PUSH2 0x2034 JUMP JUMPDEST SWAP1 POP SWAP2 SWAP1 POP JUMP JUMPDEST PUSH2 0x2067 PUSH2 0x2062 DUP3 PUSH2 0x16A8 JUMP JUMPDEST PUSH2 0x2045 JUMP JUMPDEST DUP3 MSTORE POP POP JUMP JUMPDEST PUSH0 PUSH2 0x2078 DUP3 DUP8 PUSH2 0x1DD0 JUMP JUMPDEST SWAP2 POP PUSH2 0x2084 DUP3 DUP7 PUSH2 0x1DD0 JUMP JUMPDEST SWAP2 POP PUSH2 0x2090 DUP3 DUP6 PUSH2 0x1DD0 JUMP JUMPDEST SWAP2 POP PUSH2 0x209C DUP3 DUP5 PUSH2 0x2056 JUMP JUMPDEST PUSH1 0x14 DUP3 ADD SWAP2 POP DUP2 SWAP1 POP SWAP6 SWAP5 POP POP POP POP POP JUMP JUMPDEST PUSH32 0x5574656E7465206E6F6E204175746F72697A7A61746F21000000000000000000 PUSH0 DUP3 ADD MSTORE POP JUMP JUMPDEST PUSH0 PUSH2 0x20E2 PUSH1 0x17 DUP4 PUSH2 0x19A8 JUMP JUMPDEST SWAP2 POP PUSH2 0x20ED DUP3 PUSH2 0x20AE JUMP JUMPDEST PUSH1 0x20 DUP3 ADD SWAP1 POP SWAP2 SWAP1 POP JUMP JUMPDEST PUSH0 PUSH1 0x20 DUP3 ADD SWAP1 POP DUP2 DUP2 SUB PUSH0 DUP4 ADD MSTORE PUSH2 0x210F DUP2 PUSH2 0x20D6 JUMP JUMPDEST SWAP1 POP SWAP2 SWAP1 POP JUMP JUMPDEST PUSH32 0x42616C616E6365204E6F742056616C6964000000000000000000000000000000 PUSH0 DUP3 ADD MSTORE POP JUMP JUMPDEST PUSH0 PUSH2 0x214A PUSH1 0x11 DUP4 PUSH2 0x19A8 JUMP JUMPDEST SWAP2 POP PUSH2 0x2155 DUP3 PUSH2 0x2116 JUMP JUMPDEST PUSH1 0x20 DUP3 ADD SWAP1 POP SWAP2 SWAP1 POP JUMP JUMPDEST PUSH0 PUSH1 0x20 DUP3 ADD SWAP1 POP DUP2 DUP2 SUB PUSH0 DUP4 ADD MSTORE PUSH2 0x2177 DUP2 PUSH2 0x213E JUMP JUMPDEST SWAP1 POP SWAP2 SWAP1 POP JUMP JUMPDEST PUSH32 0x41646472657373204D696C6B487562206E6F6E2076616C69646F210000000000 PUSH0 DUP3 ADD MSTORE POP JUMP JUMPDEST PUSH0 PUSH2 0x21B2 PUSH1 0x1B DUP4 PUSH2 0x19A8 JUMP JUMPDEST SWAP2 POP PUSH2 0x21BD DUP3 PUSH2 0x217E JUMP JUMPDEST PUSH1 0x20 DUP3 ADD SWAP1 POP SWAP2 SWAP1 POP JUMP JUMPDEST PUSH0 PUSH1 0x20 DUP3 ADD SWAP1 POP DUP2 DUP2 SUB PUSH0 DUP4 ADD MSTORE PUSH2 0x21DF DUP2 PUSH2 0x21A6 JUMP JUMPDEST SWAP1 POP SWAP2 SWAP1 POP JUMP JUMPDEST PUSH0 PUSH2 0x21F1 DUP3 DUP8 PUSH2 0x1D0E JUMP JUMPDEST SWAP2 POP PUSH2 0x21FD DUP3 DUP7 PUSH2 0x1D0E JUMP JUMPDEST SWAP2 POP PUSH2 0x2209 DUP3 DUP6 PUSH2 0x1D0E JUMP JUMPDEST SWAP2 POP PUSH2 0x2215 DUP3 DUP5 PUSH2 0x2056 JUMP JUMPDEST PUSH1 0x14 DUP3 ADD SWAP2 POP DUP2 SWAP1 POP SWAP6 SWAP5 POP POP POP POP POP JUMP JUMPDEST PUSH32 0x4D696C6B48756220616C72656164792072656769737465726564000000000000 PUSH0 DUP3 ADD MSTORE POP JUMP JUMPDEST PUSH0 PUSH2 0x225B PUSH1 0x1A DUP4 PUSH2 0x19A8 JUMP JUMPDEST SWAP2 POP PUSH2 0x2266 DUP3 PUSH2 0x2227 JUMP JUMPDEST PUSH1 0x20 DUP3 ADD SWAP1 POP SWAP2 SWAP1 POP JUMP JUMPDEST PUSH0 PUSH1 0x20 DUP3 ADD SWAP1 POP DUP2 DUP2 SUB PUSH0 DUP4 ADD MSTORE PUSH2 0x2288 DUP2 PUSH2 0x224F JUMP JUMPDEST SWAP1 POP SWAP2 SWAP1 POP JUMP JUMPDEST PUSH32 0x46756C6C206E616D652063616E6E6F7420626520656D70747900000000000000 PUSH0 DUP3 ADD MSTORE POP JUMP JUMPDEST PUSH0 PUSH2 0x22C3 PUSH1 0x19 DUP4 PUSH2 0x19A8 JUMP JUMPDEST SWAP2 POP PUSH2 0x22CE DUP3 PUSH2 0x228F JUMP JUMPDEST PUSH1 0x20 DUP3 ADD SWAP1 POP SWAP2 SWAP1 POP JUMP JUMPDEST PUSH0 PUSH1 0x20 DUP3 ADD SWAP1 POP DUP2 DUP2 SUB PUSH0 DUP4 ADD MSTORE PUSH2 0x22F0 DUP2 PUSH2 0x22B7 JUMP JUMPDEST SWAP1 POP SWAP2 SWAP1 POP JUMP JUMPDEST PUSH32 0x50617373776F72642063616E6E6F7420626520656D7074790000000000000000 PUSH0 DUP3 ADD MSTORE POP JUMP JUMPDEST PUSH0 PUSH2 0x232B PUSH1 0x18 DUP4 PUSH2 0x19A8 JUMP JUMPDEST SWAP2 POP PUSH2 0x2336 DUP3 PUSH2 0x22F7 JUMP JUMPDEST PUSH1 0x20 DUP3 ADD SWAP1 POP SWAP2 SWAP1 POP JUMP JUMPDEST PUSH0 PUSH1 0x20 DUP3 ADD SWAP1 POP DUP2 DUP2 SUB PUSH0 DUP4 ADD MSTORE PUSH2 0x2358 DUP2 PUSH2 0x231F JUMP JUMPDEST SWAP1 POP SWAP2 SWAP1 POP JUMP JUMPDEST PUSH32 0x456D61696C2063616E6E6F7420626520656D7074790000000000000000000000 PUSH0 DUP3 ADD MSTORE POP JUMP JUMPDEST PUSH0 PUSH2 0x2393 PUSH1 0x15 DUP4 PUSH2 0x19A8 JUMP JUMPDEST SWAP2 POP PUSH2 0x239E DUP3 PUSH2 0x235F JUMP JUMPDEST PUSH1 0x20 DUP3 ADD SWAP1 POP SWAP2 SWAP1 POP JUMP JUMPDEST PUSH0 PUSH1 0x20 DUP3 ADD SWAP1 POP DUP2 DUP2 SUB PUSH0 DUP4 ADD MSTORE PUSH2 0x23C0 DUP2 PUSH2 0x2387 JUMP JUMPDEST SWAP1 POP SWAP2 SWAP1 POP JUMP JUMPDEST PUSH0 PUSH1 0x20 PUSH1 0x1F DUP4 ADD DIV SWAP1 POP SWAP2 SWAP1 POP JUMP JUMPDEST PUSH0 DUP3 DUP3 SHL SWAP1 POP SWAP3 SWAP2 POP POP JUMP JUMPDEST PUSH0 PUSH1 0x8 DUP4 MUL PUSH2 0x2411 PUSH32 0xFFFFFFFFFFFFFFFFFFFFFFFFFFFFFFFFFFFFFFFFFFFFFFFFFFFFFFFFFFFFFFFF DUP3 PUSH2 0x23D6 JUMP JUMPDEST PUSH2 0x241B DUP7 DUP4 PUSH2 0x23D6 JUMP JUMPDEST SWAP6 POP DUP1 NOT DUP5 AND SWAP4 POP DUP1 DUP7 AND DUP5 OR SWAP3 POP POP POP SWAP4 SWAP3 POP POP POP JUMP JUMPDEST PUSH0 DUP2 SWAP1 POP SWAP2 SWAP1 POP JUMP JUMPDEST PUSH0 PUSH2 0x2456 PUSH2 0x2451 PUSH2 0x244C DUP5 PUSH2 0x18DA JUMP JUMPDEST PUSH2 0x2433 JUMP JUMPDEST PUSH2 0x18DA JUMP JUMPDEST SWAP1 POP SWAP2 SWAP1 POP JUMP JUMPDEST PUSH0 DUP2 SWAP1 POP SWAP2 SWAP1 POP JUMP JUMPDEST PUSH2 0x246F DUP4 PUSH2 0x243C JUMP JUMPDEST PUSH2 0x2483 PUSH2 0x247B DUP3 PUSH2 0x245D JUMP JUMPDEST DUP5 DUP5 SLOAD PUSH2 0x23E2 JUMP JUMPDEST DUP3 SSTORE POP POP POP POP JUMP JUMPDEST PUSH0 SWAP1 JUMP JUMPDEST PUSH2 0x2497 PUSH2 0x248B JUMP JUMPDEST PUSH2 0x24A2 DUP2 DUP5 DUP5 PUSH2 0x2466 JUMP JUMPDEST POP POP POP JUMP JUMPDEST JUMPDEST DUP2 DUP2 LT ISZERO PUSH2 0x24C5 JUMPI PUSH2 0x24BA PUSH0 DUP3 PUSH2 0x248F JUMP JUMPDEST PUSH1 0x1 DUP2 ADD SWAP1 POP PUSH2 0x24A8 JUMP JUMPDEST POP POP JUMP JUMPDEST PUSH1 0x1F DUP3 GT ISZERO PUSH2 0x250A JUMPI PUSH2 0x24DB DUP2 PUSH2 0x1DBE JUMP JUMPDEST PUSH2 0x24E4 DUP5 PUSH2 0x23C7 JUMP JUMPDEST DUP2 ADD PUSH1 0x20 DUP6 LT ISZERO PUSH2 0x24F3 JUMPI DUP2 SWAP1 POP JUMPDEST PUSH2 0x2507 PUSH2 0x24FF DUP6 PUSH2 0x23C7 JUMP JUMPDEST DUP4 ADD DUP3 PUSH2 0x24A7 JUMP JUMPDEST POP POP JUMPDEST POP POP POP JUMP JUMPDEST PUSH0 DUP3 DUP3 SHR SWAP1 POP SWAP3 SWAP2 POP POP JUMP JUMPDEST PUSH0 PUSH2 0x252A PUSH0 NOT DUP5 PUSH1 0x8 MUL PUSH2 0x250F JUMP JUMPDEST NOT DUP1 DUP4 AND SWAP2 POP POP SWAP3 SWAP2 POP POP JUMP JUMPDEST PUSH0 PUSH2 0x2542 DUP4 DUP4 PUSH2 0x251B JUMP JUMPDEST SWAP2 POP DUP3 PUSH1 0x2 MUL DUP3 OR SWAP1 POP SWAP3 SWAP2 POP POP JUMP JUMPDEST PUSH2 0x255B DUP3 PUSH2 0x199E JUMP JUMPDEST PUSH8 0xFFFFFFFFFFFFFFFF DUP2 GT ISZERO PUSH2 0x2574 JUMPI PUSH2 0x2573 PUSH2 0x16FB JUMP JUMPDEST JUMPDEST PUSH2 0x257E DUP3 SLOAD PUSH2 0x1D8E JUMP JUMPDEST PUSH2 0x2589 DUP3 DUP3 DUP6 PUSH2 0x24C9 JUMP JUMPDEST PUSH0 PUSH1 0x20 SWAP1 POP PUSH1 0x1F DUP4 GT PUSH1 0x1 DUP2 EQ PUSH2 0x25BA JUMPI PUSH0 DUP5 ISZERO PUSH2 0x25A8 JUMPI DUP3 DUP8 ADD MLOAD SWAP1 POP JUMPDEST PUSH2 0x25B2 DUP6 DUP3 PUSH2 0x2537 JUMP JUMPDEST DUP7 SSTORE POP PUSH2 0x2619 JUMP JUMPDEST PUSH1 0x1F NOT DUP5 AND PUSH2 0x25C8 DUP7 PUSH2 0x1DBE JUMP JUMPDEST PUSH0 JUMPDEST DUP3 DUP2 LT ISZERO PUSH2 0x25EF JUMPI DUP5 DUP10 ADD MLOAD DUP3 SSTORE PUSH1 0x1 DUP3 ADD SWAP2 POP PUSH1 0x20 DUP6 ADD SWAP5 POP PUSH1 0x20 DUP2 ADD SWAP1 POP PUSH2 0x25CA JUMP JUMPDEST DUP7 DUP4 LT ISZERO PUSH2 0x260C JUMPI DUP5 DUP10 ADD MLOAD PUSH2 0x2608 PUSH1 0x1F DUP10 AND DUP3 PUSH2 0x251B JUMP JUMPDEST DUP4 SSTORE POP JUMPDEST PUSH1 0x1 PUSH1 0x2 DUP9 MUL ADD DUP9 SSTORE POP POP POP JUMPDEST POP POP POP POP POP POP JUMP INVALID LOG2 PUSH5 0x6970667358 0x22 SLT KECCAK256 0xCC PUSH10 0xBCC696A78B8AB36FBA36 0xA7 0xDF 0xB5 0xCD 0xD9 SDIV 0x28 PUSH11 0x5B9766707E3380651510D5 0x4E PUSH5 0x736F6C6343 STOP ADDMOD AND STOP CALLER "
				},
				"gasEstimates": {
					"creation": {
						"codeDepositCost": "1963000",
						"executionCost": "26340",
						"totalCost": "1989340"
					},
					"external": {
						"addUser(string,string,string,address)": "infinite",
						"deleteUser(address)": "infinite",
						"getBalance(address,uint256)": "infinite",
						"getEmail(address,uint256)": "infinite",
						"getFullName(address,uint256)": "infinite",
						"getId(address)": "infinite",
						"getUser(address)": "infinite",
						"isUserPresent(address)": "2927",
						"loginUser(address,string,string)": "infinite",
						"updateBalance(address,uint256,uint256)": "infinite"
					}
				},
				"methodIdentifiers": {
					"addUser(string,string,string,address)": "b48ff0f1",
					"deleteUser(address)": "5c60f226",
					"getBalance(address,uint256)": "2b04e840",
					"getEmail(address,uint256)": "ecca4073",
					"getFullName(address,uint256)": "6e44cd42",
					"getId(address)": "65f68c89",
					"getUser(address)": "6f77926b",
					"isUserPresent(address)": "a5578807",
					"loginUser(address,string,string)": "06f22b04",
					"updateBalance(address,uint256,uint256)": "87d5173d"
				}
			},
			"storageLayout": {
				"storage": [
					{
						"astId": 42,
						"contract": "contracts/Actor/MilkHub-smart-contract/MilkHubStorage.sol:MilkHubStorage",
						"label": "MilkHubOrg",
						"offset": 0,
						"slot": "0",
						"type": "t_address"
					},
					{
						"astId": 67,
						"contract": "contracts/Actor/MilkHub-smart-contract/MilkHubStorage.sol:MilkHubStorage",
						"label": "milkhubs",
						"offset": 0,
						"slot": "1",
						"type": "t_mapping(t_address,t_struct(MilkHub)62_storage)"
					}
				],
				"types": {
					"t_address": {
						"encoding": "inplace",
						"label": "address",
						"numberOfBytes": "20"
					},
					"t_mapping(t_address,t_struct(MilkHub)62_storage)": {
						"encoding": "mapping",
						"key": "t_address",
						"label": "mapping(address => struct MilkHubStorage.MilkHub)",
						"numberOfBytes": "32",
						"value": "t_struct(MilkHub)62_storage"
					},
					"t_string_storage": {
						"encoding": "bytes",
						"label": "string",
						"numberOfBytes": "32"
					},
					"t_struct(MilkHub)62_storage": {
						"encoding": "inplace",
						"label": "struct MilkHubStorage.MilkHub",
						"members": [
							{
								"astId": 53,
								"contract": "contracts/Actor/MilkHub-smart-contract/MilkHubStorage.sol:MilkHubStorage",
								"label": "id",
								"offset": 0,
								"slot": "0",
								"type": "t_uint256"
							},
							{
								"astId": 55,
								"contract": "contracts/Actor/MilkHub-smart-contract/MilkHubStorage.sol:MilkHubStorage",
								"label": "fullName",
								"offset": 0,
								"slot": "1",
								"type": "t_string_storage"
							},
							{
								"astId": 57,
								"contract": "contracts/Actor/MilkHub-smart-contract/MilkHubStorage.sol:MilkHubStorage",
								"label": "password",
								"offset": 0,
								"slot": "2",
								"type": "t_string_storage"
							},
							{
								"astId": 59,
								"contract": "contracts/Actor/MilkHub-smart-contract/MilkHubStorage.sol:MilkHubStorage",
								"label": "email",
								"offset": 0,
								"slot": "3",
								"type": "t_string_storage"
							},
							{
								"astId": 61,
								"contract": "contracts/Actor/MilkHub-smart-contract/MilkHubStorage.sol:MilkHubStorage",
								"label": "balance",
								"offset": 0,
								"slot": "4",
								"type": "t_uint256"
							}
						],
						"numberOfBytes": "160"
					},
					"t_uint256": {
						"encoding": "inplace",
						"label": "uint256",
						"numberOfBytes": "32"
					}
				}
			},
			"userdoc": {
				"kind": "user",
				"methods": {
					"addUser(string,string,string,address)": {
						"notice": "addUser() effettuiamo la registrazione dell'utente MilkHub "
					},
					"getBalance(address,uint256)": {
						"notice": "- Funzione getBalance() attraverso l'address del MilkHub riusciamo a recuperare il suo Balance"
					},
					"getEmail(address,uint256)": {
						"notice": "- Funzione getEmail() attraverso l'address del MilkHub riusciamo a recuperare la sua Email "
					},
					"getFullName(address,uint256)": {
						"notice": "- Funzione getFullName() attraverso l'address del MilkHub riusciamo a recuperare il suo FullName"
					},
					"getId(address)": {
						"notice": "- Funzione getId() attraverso l'address del MilkHub riusciamo a recuperare il suo ID"
					},
					"getUser(address)": {
						"notice": "getUser(walletMilkHub) :  MilkHub visualizza le sue informazioni principali - email, password , fullName , balance "
					},
					"loginUser(address,string,string)": {
						"notice": "LoginUser() effettua il login dell'utente  La comparazione Hash tra (email e password) di input e quelli salvati return true se la comparazione è vera, La comparazione è falsa se l'hashing non risulta valido"
					}
				},
				"version": 1
			}
		}
	}
}