{
	"contracts/Actor/MilkHub-smart-contract/MilkHubStorage.sol": {
		"MilkHubStorage": {
			"abi": [
				{
					"inputs": [],
					"stateMutability": "nonpayable",
					"type": "constructor"
				},
				{
					"inputs": [
						{
							"internalType": "string",
							"name": "_fullName",
							"type": "string"
						},
						{
							"internalType": "string",
							"name": "_password",
							"type": "string"
						},
						{
							"internalType": "string",
							"name": "_email",
							"type": "string"
						},
						{
							"internalType": "address",
							"name": "walletMilkHub",
							"type": "address"
						}
					],
					"name": "addUser",
					"outputs": [],
					"stateMutability": "nonpayable",
					"type": "function"
				},
				{
					"inputs": [
						{
							"internalType": "address",
							"name": "walletMilkHub",
							"type": "address"
						},
						{
							"internalType": "uint256",
							"name": "id_milkHub",
							"type": "uint256"
						}
					],
					"name": "deleteUser",
					"outputs": [
						{
							"internalType": "bool",
							"name": "",
							"type": "bool"
						}
					],
					"stateMutability": "nonpayable",
					"type": "function"
				},
				{
					"inputs": [
						{
							"internalType": "address",
							"name": "walletMilkHub",
							"type": "address"
						},
						{
							"internalType": "uint256",
							"name": "_id",
							"type": "uint256"
						}
					],
					"name": "getBalance",
					"outputs": [
						{
							"internalType": "uint256",
							"name": "",
							"type": "uint256"
						}
					],
					"stateMutability": "view",
					"type": "function"
				},
				{
					"inputs": [
						{
							"internalType": "address",
							"name": "walletMilkHub",
							"type": "address"
						},
						{
							"internalType": "uint256",
							"name": "_id",
							"type": "uint256"
						}
					],
					"name": "getEmail",
					"outputs": [
						{
							"internalType": "string",
							"name": "",
							"type": "string"
						}
					],
					"stateMutability": "view",
					"type": "function"
				},
				{
					"inputs": [
						{
							"internalType": "address",
							"name": "walletMilkHub",
							"type": "address"
						},
						{
							"internalType": "uint256",
							"name": "_id",
							"type": "uint256"
						}
					],
					"name": "getFullName",
					"outputs": [
						{
							"internalType": "string",
							"name": "",
							"type": "string"
						}
					],
					"stateMutability": "view",
					"type": "function"
				},
				{
					"inputs": [
						{
							"internalType": "address",
							"name": "walletMilkHub",
							"type": "address"
						}
					],
					"name": "getId",
					"outputs": [
						{
							"internalType": "uint256",
							"name": "",
							"type": "uint256"
						}
					],
					"stateMutability": "view",
					"type": "function"
				},
				{
					"inputs": [
						{
							"internalType": "address",
							"name": "walletMilkHub",
							"type": "address"
						}
					],
					"name": "getUser",
					"outputs": [
						{
							"internalType": "uint256",
							"name": "",
							"type": "uint256"
						},
						{
							"internalType": "string",
							"name": "",
							"type": "string"
						},
						{
							"internalType": "string",
							"name": "",
							"type": "string"
						},
						{
							"internalType": "string",
							"name": "",
							"type": "string"
						},
						{
							"internalType": "uint256",
							"name": "",
							"type": "uint256"
						}
					],
					"stateMutability": "view",
					"type": "function"
				},
				{
					"inputs": [
						{
							"internalType": "address",
							"name": "walletMilkHub",
							"type": "address"
						}
					],
					"name": "isUserPresent",
					"outputs": [
						{
							"internalType": "bool",
							"name": "",
							"type": "bool"
						}
					],
					"stateMutability": "view",
					"type": "function"
				},
				{
					"inputs": [
						{
							"internalType": "address",
							"name": "walletMilkHub",
							"type": "address"
						},
						{
							"internalType": "string",
							"name": "_email",
							"type": "string"
						},
						{
							"internalType": "string",
							"name": "_password",
							"type": "string"
						}
					],
					"name": "loginUser",
					"outputs": [
						{
							"internalType": "bool",
							"name": "",
							"type": "bool"
						}
					],
					"stateMutability": "view",
					"type": "function"
				},
				{
					"inputs": [
						{
							"internalType": "address",
							"name": "walletMilkHub",
							"type": "address"
						},
						{
							"internalType": "uint256",
							"name": "_id",
							"type": "uint256"
						},
						{
							"internalType": "uint256",
							"name": "balance",
							"type": "uint256"
						}
					],
					"name": "updateBalance",
					"outputs": [],
					"stateMutability": "nonpayable",
					"type": "function"
				}
			],
			"devdoc": {
				"kind": "dev",
				"methods": {},
				"version": 1
			},
			"evm": {
				"assembly": "    /* \"contracts/Actor/MilkHub-smart-contract/MilkHubStorage.sol\":104:6448  contract MilkHubStorage is IUserStorageInterface {... */\n  mstore(0x40, 0x80)\n    /* \"contracts/Actor/MilkHub-smart-contract/MilkHubStorage.sol\":256:311  constructor(){... */\n  callvalue\n  dup1\n  iszero\n  tag_1\n  jumpi\n  0x00\n  dup1\n  revert\ntag_1:\n  pop\n    /* \"contracts/Actor/MilkHub-smart-contract/MilkHubStorage.sol\":293:303  msg.sender */\n  caller\n    /* \"contracts/Actor/MilkHub-smart-contract/MilkHubStorage.sol\":280:290  MilkHubOrg */\n  0x00\n  dup1\n    /* \"contracts/Actor/MilkHub-smart-contract/MilkHubStorage.sol\":280:303  MilkHubOrg = msg.sender */\n  0x0100\n  exp\n  dup2\n  sload\n  dup2\n  0xffffffffffffffffffffffffffffffffffffffff\n  mul\n  not\n  and\n  swap1\n  dup4\n  0xffffffffffffffffffffffffffffffffffffffff\n  and\n  mul\n  or\n  swap1\n  sstore\n  pop\n    /* \"contracts/Actor/MilkHub-smart-contract/MilkHubStorage.sol\":104:6448  contract MilkHubStorage is IUserStorageInterface {... */\n  dataSize(sub_0)\n  dup1\n  dataOffset(sub_0)\n  0x00\n  codecopy\n  0x00\n  return\nstop\n\nsub_0: assembly {\n        /* \"contracts/Actor/MilkHub-smart-contract/MilkHubStorage.sol\":104:6448  contract MilkHubStorage is IUserStorageInterface {... */\n      mstore(0x40, 0x80)\n      callvalue\n      dup1\n      iszero\n      tag_1\n      jumpi\n      0x00\n      dup1\n      revert\n    tag_1:\n      pop\n      jumpi(tag_2, lt(calldatasize, 0x04))\n      shr(0xe0, calldataload(0x00))\n      dup1\n      0x87d5173d\n      gt\n      tag_13\n      jumpi\n      dup1\n      0x87d5173d\n      eq\n      tag_8\n      jumpi\n      dup1\n      0xa5578807\n      eq\n      tag_9\n      jumpi\n      dup1\n      0xb48ff0f1\n      eq\n      tag_10\n      jumpi\n      dup1\n      0xecca4073\n      eq\n      tag_11\n      jumpi\n      dup1\n      0xed56bac5\n      eq\n      tag_12\n      jumpi\n      jump(tag_2)\n    tag_13:\n      dup1\n      0x06f22b04\n      eq\n      tag_3\n      jumpi\n      dup1\n      0x2b04e840\n      eq\n      tag_4\n      jumpi\n      dup1\n      0x65f68c89\n      eq\n      tag_5\n      jumpi\n      dup1\n      0x6e44cd42\n      eq\n      tag_6\n      jumpi\n      dup1\n      0x6f77926b\n      eq\n      tag_7\n      jumpi\n    tag_2:\n      0x00\n      dup1\n      revert\n        /* \"contracts/Actor/MilkHub-smart-contract/MilkHubStorage.sol\":2157:2594  function loginUser(address walletMilkHub, string memory _email, string memory _password) external view returns(bool){... */\n    tag_3:\n      tag_14\n      0x04\n      dup1\n      calldatasize\n      sub\n      dup2\n      add\n      swap1\n      tag_15\n      swap2\n      swap1\n      tag_16\n      jump\t// in\n    tag_15:\n      tag_17\n      jump\t// in\n    tag_14:\n      mload(0x40)\n      tag_18\n      swap2\n      swap1\n      tag_19\n      jump\t// in\n    tag_18:\n      mload(0x40)\n      dup1\n      swap2\n      sub\n      swap1\n      return\n        /* \"contracts/Actor/MilkHub-smart-contract/MilkHubStorage.sol\":5115:5405  function getBalance(address walletMilkHub, uint256 _id) external view  returns(uint256){... */\n    tag_4:\n      tag_20\n      0x04\n      dup1\n      calldatasize\n      sub\n      dup2\n      add\n      swap1\n      tag_21\n      swap2\n      swap1\n      tag_22\n      jump\t// in\n    tag_21:\n      tag_23\n      jump\t// in\n    tag_20:\n      mload(0x40)\n      tag_24\n      swap2\n      swap1\n      tag_25\n      jump\t// in\n    tag_24:\n      mload(0x40)\n      dup1\n      swap2\n      sub\n      swap1\n      return\n        /* \"contracts/Actor/MilkHub-smart-contract/MilkHubStorage.sol\":3933:4127  function getId(address walletMilkHub) external view  returns(uint256){... */\n    tag_5:\n      tag_26\n      0x04\n      dup1\n      calldatasize\n      sub\n      dup2\n      add\n      swap1\n      tag_27\n      swap2\n      swap1\n      tag_28\n      jump\t// in\n    tag_27:\n      tag_29\n      jump\t// in\n    tag_26:\n      mload(0x40)\n      tag_30\n      swap2\n      swap1\n      tag_25\n      jump\t// in\n    tag_30:\n      mload(0x40)\n      dup1\n      swap2\n      sub\n      swap1\n      return\n        /* \"contracts/Actor/MilkHub-smart-contract/MilkHubStorage.sol\":4258:4562  function getFullName(address walletMilkHub, uint256 _id) external view  returns(string memory){... */\n    tag_6:\n      tag_31\n      0x04\n      dup1\n      calldatasize\n      sub\n      dup2\n      add\n      swap1\n      tag_32\n      swap2\n      swap1\n      tag_22\n      jump\t// in\n    tag_32:\n      tag_33\n      jump\t// in\n    tag_31:\n      mload(0x40)\n      tag_34\n      swap2\n      swap1\n      tag_35\n      jump\t// in\n    tag_34:\n      mload(0x40)\n      dup1\n      swap2\n      sub\n      swap1\n      return\n        /* \"contracts/Actor/MilkHub-smart-contract/MilkHubStorage.sol\":5571:5993  function getUser(address walletMilkHub) external  view returns (uint256, string memory, string memory, string memory, uint256) {... */\n    tag_7:\n      tag_36\n      0x04\n      dup1\n      calldatasize\n      sub\n      dup2\n      add\n      swap1\n      tag_37\n      swap2\n      swap1\n      tag_28\n      jump\t// in\n    tag_37:\n      tag_38\n      jump\t// in\n    tag_36:\n      mload(0x40)\n      tag_39\n      swap6\n      swap5\n      swap4\n      swap3\n      swap2\n      swap1\n      tag_40\n      jump\t// in\n    tag_39:\n      mload(0x40)\n      dup1\n      swap2\n      sub\n      swap1\n      return\n        /* \"contracts/Actor/MilkHub-smart-contract/MilkHubStorage.sol\":6104:6443  function updateBalance(address walletMilkHub, uint256 _id, uint256 balance) external{... */\n    tag_8:\n      tag_41\n      0x04\n      dup1\n      calldatasize\n      sub\n      dup2\n      add\n      swap1\n      tag_42\n      swap2\n      swap1\n      tag_43\n      jump\t// in\n    tag_42:\n      tag_44\n      jump\t// in\n    tag_41:\n      stop\n        /* \"contracts/Actor/MilkHub-smart-contract/MilkHubStorage.sol\":3450:3674  function isUserPresent(address walletMilkHub) external view returns(bool){... */\n    tag_9:\n      tag_45\n      0x04\n      dup1\n      calldatasize\n      sub\n      dup2\n      add\n      swap1\n      tag_46\n      swap2\n      swap1\n      tag_28\n      jump\t// in\n    tag_46:\n      tag_47\n      jump\t// in\n    tag_45:\n      mload(0x40)\n      tag_48\n      swap2\n      swap1\n      tag_19\n      jump\t// in\n    tag_48:\n      mload(0x40)\n      dup1\n      swap2\n      sub\n      swap1\n      return\n        /* \"contracts/Actor/MilkHub-smart-contract/MilkHubStorage.sol\":834:1897  function addUser(string memory _fullName, string memory _password,string memory _email, address walletMilkHub) external {... */\n    tag_10:\n      tag_49\n      0x04\n      dup1\n      calldatasize\n      sub\n      dup2\n      add\n      swap1\n      tag_50\n      swap2\n      swap1\n      tag_51\n      jump\t// in\n    tag_50:\n      tag_52\n      jump\t// in\n    tag_49:\n      stop\n        /* \"contracts/Actor/MilkHub-smart-contract/MilkHubStorage.sol\":4688:4986  function getEmail(address walletMilkHub, uint256 _id) external view  returns(string memory){... */\n    tag_11:\n      tag_53\n      0x04\n      dup1\n      calldatasize\n      sub\n      dup2\n      add\n      swap1\n      tag_54\n      swap2\n      swap1\n      tag_22\n      jump\t// in\n    tag_54:\n      tag_55\n      jump\t// in\n    tag_53:\n      mload(0x40)\n      tag_56\n      swap2\n      swap1\n      tag_35\n      jump\t// in\n    tag_56:\n      mload(0x40)\n      dup1\n      swap2\n      sub\n      swap1\n      return\n        /* \"contracts/Actor/MilkHub-smart-contract/MilkHubStorage.sol\":2679:3278  function deleteUser(address walletMilkHub, uint256 id_milkHub) external returns(bool){... */\n    tag_12:\n      tag_57\n      0x04\n      dup1\n      calldatasize\n      sub\n      dup2\n      add\n      swap1\n      tag_58\n      swap2\n      swap1\n      tag_22\n      jump\t// in\n    tag_58:\n      tag_59\n      jump\t// in\n    tag_57:\n      mload(0x40)\n      tag_60\n      swap2\n      swap1\n      tag_19\n      jump\t// in\n    tag_60:\n      mload(0x40)\n      dup1\n      swap2\n      sub\n      swap1\n      return\n        /* \"contracts/Actor/MilkHub-smart-contract/MilkHubStorage.sol\":2157:2594  function loginUser(address walletMilkHub, string memory _email, string memory _password) external view returns(bool){... */\n    tag_17:\n        /* \"contracts/Actor/MilkHub-smart-contract/MilkHubStorage.sol\":2268:2272  bool */\n      0x00\n        /* \"contracts/Actor/MilkHub-smart-contract/MilkHubStorage.sol\":2319:2342  MilkHub storage milkhub */\n      dup1\n        /* \"contracts/Actor/MilkHub-smart-contract/MilkHubStorage.sol\":2345:2353  milkhubs */\n      0x01\n        /* \"contracts/Actor/MilkHub-smart-contract/MilkHubStorage.sol\":2345:2368  milkhubs[walletMilkHub] */\n      0x00\n        /* \"contracts/Actor/MilkHub-smart-contract/MilkHubStorage.sol\":2354:2367  walletMilkHub */\n      dup7\n        /* \"contracts/Actor/MilkHub-smart-contract/MilkHubStorage.sol\":2345:2368  milkhubs[walletMilkHub] */\n      0xffffffffffffffffffffffffffffffffffffffff\n      and\n      0xffffffffffffffffffffffffffffffffffffffff\n      and\n      dup2\n      mstore\n      0x20\n      add\n      swap1\n      dup2\n      mstore\n      0x20\n      add\n      0x00\n      keccak256\n        /* \"contracts/Actor/MilkHub-smart-contract/MilkHubStorage.sol\":2319:2368  MilkHub storage milkhub = milkhubs[walletMilkHub] */\n      swap1\n      pop\n        /* \"contracts/Actor/MilkHub-smart-contract/MilkHubStorage.sol\":2567:2573  _email */\n      dup4\n        /* \"contracts/Actor/MilkHub-smart-contract/MilkHubStorage.sol\":2575:2584  _password */\n      dup4\n        /* \"contracts/Actor/MilkHub-smart-contract/MilkHubStorage.sol\":2550:2585  abi.encodePacked(_email, _password) */\n      add(0x20, mload(0x40))\n      tag_62\n      swap3\n      swap2\n      swap1\n      tag_63\n      jump\t// in\n    tag_62:\n      mload(0x40)\n      0x20\n      dup2\n      dup4\n      sub\n      sub\n      dup2\n      mstore\n      swap1\n      0x40\n      mstore\n        /* \"contracts/Actor/MilkHub-smart-contract/MilkHubStorage.sol\":2540:2586  keccak256(abi.encodePacked(_email, _password)) */\n      dup1\n      mload\n      swap1\n      0x20\n      add\n      keccak256\n        /* \"contracts/Actor/MilkHub-smart-contract/MilkHubStorage.sol\":2503:2510  milkhub */\n      dup2\n        /* \"contracts/Actor/MilkHub-smart-contract/MilkHubStorage.sol\":2503:2516  milkhub.email */\n      0x03\n      add\n        /* \"contracts/Actor/MilkHub-smart-contract/MilkHubStorage.sol\":2518:2525  milkhub */\n      dup3\n        /* \"contracts/Actor/MilkHub-smart-contract/MilkHubStorage.sol\":2518:2534  milkhub.password */\n      0x02\n      add\n        /* \"contracts/Actor/MilkHub-smart-contract/MilkHubStorage.sol\":2486:2535  abi.encodePacked(milkhub.email, milkhub.password) */\n      add(0x20, mload(0x40))\n      tag_64\n      swap3\n      swap2\n      swap1\n      tag_65\n      jump\t// in\n    tag_64:\n      mload(0x40)\n      0x20\n      dup2\n      dup4\n      sub\n      sub\n      dup2\n      mstore\n      swap1\n      0x40\n      mstore\n        /* \"contracts/Actor/MilkHub-smart-contract/MilkHubStorage.sol\":2476:2536  keccak256(abi.encodePacked(milkhub.email, milkhub.password)) */\n      dup1\n      mload\n      swap1\n      0x20\n      add\n      keccak256\n        /* \"contracts/Actor/MilkHub-smart-contract/MilkHubStorage.sol\":2476:2586  keccak256(abi.encodePacked(milkhub.email, milkhub.password)) == keccak256(abi.encodePacked(_email, _password)) */\n      eq\n        /* \"contracts/Actor/MilkHub-smart-contract/MilkHubStorage.sol\":2469:2586  return keccak256(abi.encodePacked(milkhub.email, milkhub.password)) == keccak256(abi.encodePacked(_email, _password)) */\n      swap2\n      pop\n      pop\n        /* \"contracts/Actor/MilkHub-smart-contract/MilkHubStorage.sol\":2157:2594  function loginUser(address walletMilkHub, string memory _email, string memory _password) external view returns(bool){... */\n      swap4\n      swap3\n      pop\n      pop\n      pop\n      jump\t// out\n        /* \"contracts/Actor/MilkHub-smart-contract/MilkHubStorage.sol\":5115:5405  function getBalance(address walletMilkHub, uint256 _id) external view  returns(uint256){... */\n    tag_23:\n        /* \"contracts/Actor/MilkHub-smart-contract/MilkHubStorage.sol\":5194:5201  uint256 */\n      0x00\n        /* \"contracts/Actor/MilkHub-smart-contract/MilkHubStorage.sol\":5221:5225  this */\n      address\n        /* \"contracts/Actor/MilkHub-smart-contract/MilkHubStorage.sol\":5221:5239  this.isUserPresent */\n      0xffffffffffffffffffffffffffffffffffffffff\n      and\n      0xa5578807\n        /* \"contracts/Actor/MilkHub-smart-contract/MilkHubStorage.sol\":5240:5253  walletMilkHub */\n      dup5\n        /* \"contracts/Actor/MilkHub-smart-contract/MilkHubStorage.sol\":5221:5254  this.isUserPresent(walletMilkHub) */\n      mload(0x40)\n      dup3\n      0xffffffff\n      and\n      0xe0\n      shl\n      dup2\n      mstore\n      0x04\n      add\n      tag_67\n      swap2\n      swap1\n      tag_68\n      jump\t// in\n    tag_67:\n      0x20\n      mload(0x40)\n      dup1\n      dup4\n      sub\n      dup2\n      dup7\n      gas\n      staticcall\n      iszero\n      dup1\n      iszero\n      tag_70\n      jumpi\n      returndatasize\n      0x00\n      dup1\n      returndatacopy\n      revert(0x00, returndatasize)\n    tag_70:\n      pop\n      pop\n      pop\n      pop\n      mload(0x40)\n      returndatasize\n      not(0x1f)\n      0x1f\n      dup3\n      add\n      and\n      dup3\n      add\n      dup1\n      0x40\n      mstore\n      pop\n      dup2\n      add\n      swap1\n      tag_71\n      swap2\n      swap1\n      tag_72\n      jump\t// in\n    tag_71:\n        /* \"contracts/Actor/MilkHub-smart-contract/MilkHubStorage.sol\":5213:5273  require(this.isUserPresent(walletMilkHub),\"User Not Found!\") */\n      tag_73\n      jumpi\n      mload(0x40)\n      0x08c379a000000000000000000000000000000000000000000000000000000000\n      dup2\n      mstore\n      0x04\n      add\n      tag_74\n      swap1\n      tag_75\n      jump\t// in\n    tag_74:\n      mload(0x40)\n      dup1\n      swap2\n      sub\n      swap1\n      revert\n    tag_73:\n        /* \"contracts/Actor/MilkHub-smart-contract/MilkHubStorage.sol\":5322:5325  _id */\n      dup2\n        /* \"contracts/Actor/MilkHub-smart-contract/MilkHubStorage.sol\":5292:5300  milkhubs */\n      0x01\n        /* \"contracts/Actor/MilkHub-smart-contract/MilkHubStorage.sol\":5292:5315  milkhubs[walletMilkHub] */\n      0x00\n        /* \"contracts/Actor/MilkHub-smart-contract/MilkHubStorage.sol\":5301:5314  walletMilkHub */\n      dup6\n        /* \"contracts/Actor/MilkHub-smart-contract/MilkHubStorage.sol\":5292:5315  milkhubs[walletMilkHub] */\n      0xffffffffffffffffffffffffffffffffffffffff\n      and\n      0xffffffffffffffffffffffffffffffffffffffff\n      and\n      dup2\n      mstore\n      0x20\n      add\n      swap1\n      dup2\n      mstore\n      0x20\n      add\n      0x00\n      keccak256\n        /* \"contracts/Actor/MilkHub-smart-contract/MilkHubStorage.sol\":5292:5318  milkhubs[walletMilkHub].id */\n      0x00\n      add\n      sload\n        /* \"contracts/Actor/MilkHub-smart-contract/MilkHubStorage.sol\":5292:5325  milkhubs[walletMilkHub].id == _id */\n      eq\n        /* \"contracts/Actor/MilkHub-smart-contract/MilkHubStorage.sol\":5284:5346  require(milkhubs[walletMilkHub].id == _id,\"Struct not Valid!\") */\n      tag_76\n      jumpi\n      mload(0x40)\n      0x08c379a000000000000000000000000000000000000000000000000000000000\n      dup2\n      mstore\n      0x04\n      add\n      tag_77\n      swap1\n      tag_78\n      jump\t// in\n    tag_77:\n      mload(0x40)\n      dup1\n      swap2\n      sub\n      swap1\n      revert\n    tag_76:\n        /* \"contracts/Actor/MilkHub-smart-contract/MilkHubStorage.sol\":5366:5374  milkhubs */\n      0x01\n        /* \"contracts/Actor/MilkHub-smart-contract/MilkHubStorage.sol\":5366:5389  milkhubs[walletMilkHub] */\n      0x00\n        /* \"contracts/Actor/MilkHub-smart-contract/MilkHubStorage.sol\":5375:5388  walletMilkHub */\n      dup5\n        /* \"contracts/Actor/MilkHub-smart-contract/MilkHubStorage.sol\":5366:5389  milkhubs[walletMilkHub] */\n      0xffffffffffffffffffffffffffffffffffffffff\n      and\n      0xffffffffffffffffffffffffffffffffffffffff\n      and\n      dup2\n      mstore\n      0x20\n      add\n      swap1\n      dup2\n      mstore\n      0x20\n      add\n      0x00\n      keccak256\n        /* \"contracts/Actor/MilkHub-smart-contract/MilkHubStorage.sol\":5366:5397  milkhubs[walletMilkHub].balance */\n      0x04\n      add\n      sload\n        /* \"contracts/Actor/MilkHub-smart-contract/MilkHubStorage.sol\":5359:5397  return milkhubs[walletMilkHub].balance */\n      swap1\n      pop\n        /* \"contracts/Actor/MilkHub-smart-contract/MilkHubStorage.sol\":5115:5405  function getBalance(address walletMilkHub, uint256 _id) external view  returns(uint256){... */\n      swap3\n      swap2\n      pop\n      pop\n      jump\t// out\n        /* \"contracts/Actor/MilkHub-smart-contract/MilkHubStorage.sol\":3933:4127  function getId(address walletMilkHub) external view  returns(uint256){... */\n    tag_29:\n        /* \"contracts/Actor/MilkHub-smart-contract/MilkHubStorage.sol\":3994:4001  uint256 */\n      0x00\n        /* \"contracts/Actor/MilkHub-smart-contract/MilkHubStorage.sol\":4021:4025  this */\n      address\n        /* \"contracts/Actor/MilkHub-smart-contract/MilkHubStorage.sol\":4021:4039  this.isUserPresent */\n      0xffffffffffffffffffffffffffffffffffffffff\n      and\n      0xa5578807\n        /* \"contracts/Actor/MilkHub-smart-contract/MilkHubStorage.sol\":4040:4053  walletMilkHub */\n      dup4\n        /* \"contracts/Actor/MilkHub-smart-contract/MilkHubStorage.sol\":4021:4054  this.isUserPresent(walletMilkHub) */\n      mload(0x40)\n      dup3\n      0xffffffff\n      and\n      0xe0\n      shl\n      dup2\n      mstore\n      0x04\n      add\n      tag_80\n      swap2\n      swap1\n      tag_68\n      jump\t// in\n    tag_80:\n      0x20\n      mload(0x40)\n      dup1\n      dup4\n      sub\n      dup2\n      dup7\n      gas\n      staticcall\n      iszero\n      dup1\n      iszero\n      tag_82\n      jumpi\n      returndatasize\n      0x00\n      dup1\n      returndatacopy\n      revert(0x00, returndatasize)\n    tag_82:\n      pop\n      pop\n      pop\n      pop\n      mload(0x40)\n      returndatasize\n      not(0x1f)\n      0x1f\n      dup3\n      add\n      and\n      dup3\n      add\n      dup1\n      0x40\n      mstore\n      pop\n      dup2\n      add\n      swap1\n      tag_83\n      swap2\n      swap1\n      tag_72\n      jump\t// in\n    tag_83:\n        /* \"contracts/Actor/MilkHub-smart-contract/MilkHubStorage.sol\":4013:4073  require(this.isUserPresent(walletMilkHub),\"User Not Found!\") */\n      tag_84\n      jumpi\n      mload(0x40)\n      0x08c379a000000000000000000000000000000000000000000000000000000000\n      dup2\n      mstore\n      0x04\n      add\n      tag_85\n      swap1\n      tag_75\n      jump\t// in\n    tag_85:\n      mload(0x40)\n      dup1\n      swap2\n      sub\n      swap1\n      revert\n    tag_84:\n        /* \"contracts/Actor/MilkHub-smart-contract/MilkHubStorage.sol\":4093:4101  milkhubs */\n      0x01\n        /* \"contracts/Actor/MilkHub-smart-contract/MilkHubStorage.sol\":4093:4116  milkhubs[walletMilkHub] */\n      0x00\n        /* \"contracts/Actor/MilkHub-smart-contract/MilkHubStorage.sol\":4102:4115  walletMilkHub */\n      dup4\n        /* \"contracts/Actor/MilkHub-smart-contract/MilkHubStorage.sol\":4093:4116  milkhubs[walletMilkHub] */\n      0xffffffffffffffffffffffffffffffffffffffff\n      and\n      0xffffffffffffffffffffffffffffffffffffffff\n      and\n      dup2\n      mstore\n      0x20\n      add\n      swap1\n      dup2\n      mstore\n      0x20\n      add\n      0x00\n      keccak256\n        /* \"contracts/Actor/MilkHub-smart-contract/MilkHubStorage.sol\":4093:4119  milkhubs[walletMilkHub].id */\n      0x00\n      add\n      sload\n        /* \"contracts/Actor/MilkHub-smart-contract/MilkHubStorage.sol\":4086:4119  return milkhubs[walletMilkHub].id */\n      swap1\n      pop\n        /* \"contracts/Actor/MilkHub-smart-contract/MilkHubStorage.sol\":3933:4127  function getId(address walletMilkHub) external view  returns(uint256){... */\n      swap2\n      swap1\n      pop\n      jump\t// out\n        /* \"contracts/Actor/MilkHub-smart-contract/MilkHubStorage.sol\":4258:4562  function getFullName(address walletMilkHub, uint256 _id) external view  returns(string memory){... */\n    tag_33:\n        /* \"contracts/Actor/MilkHub-smart-contract/MilkHubStorage.sol\":4338:4351  string memory */\n      0x60\n        /* \"contracts/Actor/MilkHub-smart-contract/MilkHubStorage.sol\":4371:4375  this */\n      address\n        /* \"contracts/Actor/MilkHub-smart-contract/MilkHubStorage.sol\":4371:4389  this.isUserPresent */\n      0xffffffffffffffffffffffffffffffffffffffff\n      and\n      0xa5578807\n        /* \"contracts/Actor/MilkHub-smart-contract/MilkHubStorage.sol\":4390:4403  walletMilkHub */\n      dup5\n        /* \"contracts/Actor/MilkHub-smart-contract/MilkHubStorage.sol\":4371:4404  this.isUserPresent(walletMilkHub) */\n      mload(0x40)\n      dup3\n      0xffffffff\n      and\n      0xe0\n      shl\n      dup2\n      mstore\n      0x04\n      add\n      tag_87\n      swap2\n      swap1\n      tag_68\n      jump\t// in\n    tag_87:\n      0x20\n      mload(0x40)\n      dup1\n      dup4\n      sub\n      dup2\n      dup7\n      gas\n      staticcall\n      iszero\n      dup1\n      iszero\n      tag_89\n      jumpi\n      returndatasize\n      0x00\n      dup1\n      returndatacopy\n      revert(0x00, returndatasize)\n    tag_89:\n      pop\n      pop\n      pop\n      pop\n      mload(0x40)\n      returndatasize\n      not(0x1f)\n      0x1f\n      dup3\n      add\n      and\n      dup3\n      add\n      dup1\n      0x40\n      mstore\n      pop\n      dup2\n      add\n      swap1\n      tag_90\n      swap2\n      swap1\n      tag_72\n      jump\t// in\n    tag_90:\n        /* \"contracts/Actor/MilkHub-smart-contract/MilkHubStorage.sol\":4363:4423  require(this.isUserPresent(walletMilkHub),\"User Not Found!\") */\n      tag_91\n      jumpi\n      mload(0x40)\n      0x08c379a000000000000000000000000000000000000000000000000000000000\n      dup2\n      mstore\n      0x04\n      add\n      tag_92\n      swap1\n      tag_75\n      jump\t// in\n    tag_92:\n      mload(0x40)\n      dup1\n      swap2\n      sub\n      swap1\n      revert\n    tag_91:\n        /* \"contracts/Actor/MilkHub-smart-contract/MilkHubStorage.sol\":4470:4473  _id */\n      dup2\n        /* \"contracts/Actor/MilkHub-smart-contract/MilkHubStorage.sol\":4442:4450  milkhubs */\n      0x01\n        /* \"contracts/Actor/MilkHub-smart-contract/MilkHubStorage.sol\":4442:4465  milkhubs[walletMilkHub] */\n      0x00\n        /* \"contracts/Actor/MilkHub-smart-contract/MilkHubStorage.sol\":4451:4464  walletMilkHub */\n      dup6\n        /* \"contracts/Actor/MilkHub-smart-contract/MilkHubStorage.sol\":4442:4465  milkhubs[walletMilkHub] */\n      0xffffffffffffffffffffffffffffffffffffffff\n      and\n      0xffffffffffffffffffffffffffffffffffffffff\n      and\n      dup2\n      mstore\n      0x20\n      add\n      swap1\n      dup2\n      mstore\n      0x20\n      add\n      0x00\n      keccak256\n        /* \"contracts/Actor/MilkHub-smart-contract/MilkHubStorage.sol\":4442:4468  milkhubs[walletMilkHub].id */\n      0x00\n      add\n      sload\n        /* \"contracts/Actor/MilkHub-smart-contract/MilkHubStorage.sol\":4442:4473  milkhubs[walletMilkHub].id==_id */\n      eq\n        /* \"contracts/Actor/MilkHub-smart-contract/MilkHubStorage.sol\":4434:4494  require(milkhubs[walletMilkHub].id==_id,\"Struct not Valid!\") */\n      tag_93\n      jumpi\n      mload(0x40)\n      0x08c379a000000000000000000000000000000000000000000000000000000000\n      dup2\n      mstore\n      0x04\n      add\n      tag_94\n      swap1\n      tag_78\n      jump\t// in\n    tag_94:\n      mload(0x40)\n      dup1\n      swap2\n      sub\n      swap1\n      revert\n    tag_93:\n        /* \"contracts/Actor/MilkHub-smart-contract/MilkHubStorage.sol\":4522:4530  milkhubs */\n      0x01\n        /* \"contracts/Actor/MilkHub-smart-contract/MilkHubStorage.sol\":4522:4545  milkhubs[walletMilkHub] */\n      0x00\n        /* \"contracts/Actor/MilkHub-smart-contract/MilkHubStorage.sol\":4531:4544  walletMilkHub */\n      dup5\n        /* \"contracts/Actor/MilkHub-smart-contract/MilkHubStorage.sol\":4522:4545  milkhubs[walletMilkHub] */\n      0xffffffffffffffffffffffffffffffffffffffff\n      and\n      0xffffffffffffffffffffffffffffffffffffffff\n      and\n      dup2\n      mstore\n      0x20\n      add\n      swap1\n      dup2\n      mstore\n      0x20\n      add\n      0x00\n      keccak256\n        /* \"contracts/Actor/MilkHub-smart-contract/MilkHubStorage.sol\":4522:4554  milkhubs[walletMilkHub].fullName */\n      0x01\n      add\n        /* \"contracts/Actor/MilkHub-smart-contract/MilkHubStorage.sol\":4515:4554  return milkhubs[walletMilkHub].fullName */\n      dup1\n      sload\n      tag_95\n      swap1\n      tag_96\n      jump\t// in\n    tag_95:\n      dup1\n      0x1f\n      add\n      0x20\n      dup1\n      swap2\n      div\n      mul\n      0x20\n      add\n      mload(0x40)\n      swap1\n      dup2\n      add\n      0x40\n      mstore\n      dup1\n      swap3\n      swap2\n      swap1\n      dup2\n      dup2\n      mstore\n      0x20\n      add\n      dup3\n      dup1\n      sload\n      tag_97\n      swap1\n      tag_96\n      jump\t// in\n    tag_97:\n      dup1\n      iszero\n      tag_98\n      jumpi\n      dup1\n      0x1f\n      lt\n      tag_99\n      jumpi\n      0x0100\n      dup1\n      dup4\n      sload\n      div\n      mul\n      dup4\n      mstore\n      swap2\n      0x20\n      add\n      swap2\n      jump(tag_98)\n    tag_99:\n      dup3\n      add\n      swap2\n      swap1\n      0x00\n      mstore\n      keccak256(0x00, 0x20)\n      swap1\n    tag_100:\n      dup2\n      sload\n      dup2\n      mstore\n      swap1\n      0x01\n      add\n      swap1\n      0x20\n      add\n      dup1\n      dup4\n      gt\n      tag_100\n      jumpi\n      dup3\n      swap1\n      sub\n      0x1f\n      and\n      dup3\n      add\n      swap2\n    tag_98:\n      pop\n      pop\n      pop\n      pop\n      pop\n      swap1\n      pop\n        /* \"contracts/Actor/MilkHub-smart-contract/MilkHubStorage.sol\":4258:4562  function getFullName(address walletMilkHub, uint256 _id) external view  returns(string memory){... */\n      swap3\n      swap2\n      pop\n      pop\n      jump\t// out\n        /* \"contracts/Actor/MilkHub-smart-contract/MilkHubStorage.sol\":5571:5993  function getUser(address walletMilkHub) external  view returns (uint256, string memory, string memory, string memory, uint256) {... */\n    tag_38:\n        /* \"contracts/Actor/MilkHub-smart-contract/MilkHubStorage.sol\":5635:5642  uint256 */\n      0x00\n        /* \"contracts/Actor/MilkHub-smart-contract/MilkHubStorage.sol\":5644:5657  string memory */\n      0x60\n        /* \"contracts/Actor/MilkHub-smart-contract/MilkHubStorage.sol\":5659:5672  string memory */\n      dup1\n        /* \"contracts/Actor/MilkHub-smart-contract/MilkHubStorage.sol\":5674:5687  string memory */\n      0x60\n        /* \"contracts/Actor/MilkHub-smart-contract/MilkHubStorage.sol\":5689:5696  uint256 */\n      0x00\n        /* \"contracts/Actor/MilkHub-smart-contract/MilkHubStorage.sol\":5719:5723  this */\n      address\n        /* \"contracts/Actor/MilkHub-smart-contract/MilkHubStorage.sol\":5719:5737  this.isUserPresent */\n      0xffffffffffffffffffffffffffffffffffffffff\n      and\n      0xa5578807\n        /* \"contracts/Actor/MilkHub-smart-contract/MilkHubStorage.sol\":5738:5751  walletMilkHub */\n      dup8\n        /* \"contracts/Actor/MilkHub-smart-contract/MilkHubStorage.sol\":5719:5752  this.isUserPresent(walletMilkHub) */\n      mload(0x40)\n      dup3\n      0xffffffff\n      and\n      0xe0\n      shl\n      dup2\n      mstore\n      0x04\n      add\n      tag_102\n      swap2\n      swap1\n      tag_68\n      jump\t// in\n    tag_102:\n      0x20\n      mload(0x40)\n      dup1\n      dup4\n      sub\n      dup2\n      dup7\n      gas\n      staticcall\n      iszero\n      dup1\n      iszero\n      tag_104\n      jumpi\n      returndatasize\n      0x00\n      dup1\n      returndatacopy\n      revert(0x00, returndatasize)\n    tag_104:\n      pop\n      pop\n      pop\n      pop\n      mload(0x40)\n      returndatasize\n      not(0x1f)\n      0x1f\n      dup3\n      add\n      and\n      dup3\n      add\n      dup1\n      0x40\n      mstore\n      pop\n      dup2\n      add\n      swap1\n      tag_105\n      swap2\n      swap1\n      tag_72\n      jump\t// in\n    tag_105:\n        /* \"contracts/Actor/MilkHub-smart-contract/MilkHubStorage.sol\":5711:5777  require(this.isUserPresent(walletMilkHub), \"Utente non presente!\") */\n      tag_106\n      jumpi\n      mload(0x40)\n      0x08c379a000000000000000000000000000000000000000000000000000000000\n      dup2\n      mstore\n      0x04\n      add\n      tag_107\n      swap1\n      tag_108\n      jump\t// in\n    tag_107:\n      mload(0x40)\n      dup1\n      swap2\n      sub\n      swap1\n      revert\n    tag_106:\n        /* \"contracts/Actor/MilkHub-smart-contract/MilkHubStorage.sol\":5790:5812  MilkHub memory milkhub */\n      0x00\n        /* \"contracts/Actor/MilkHub-smart-contract/MilkHubStorage.sol\":5815:5823  milkhubs */\n      0x01\n        /* \"contracts/Actor/MilkHub-smart-contract/MilkHubStorage.sol\":5815:5838  milkhubs[walletMilkHub] */\n      0x00\n        /* \"contracts/Actor/MilkHub-smart-contract/MilkHubStorage.sol\":5824:5837  walletMilkHub */\n      dup9\n        /* \"contracts/Actor/MilkHub-smart-contract/MilkHubStorage.sol\":5815:5838  milkhubs[walletMilkHub] */\n      0xffffffffffffffffffffffffffffffffffffffff\n      and\n      0xffffffffffffffffffffffffffffffffffffffff\n      and\n      dup2\n      mstore\n      0x20\n      add\n      swap1\n      dup2\n      mstore\n      0x20\n      add\n      0x00\n      keccak256\n        /* \"contracts/Actor/MilkHub-smart-contract/MilkHubStorage.sol\":5790:5838  MilkHub memory milkhub = milkhubs[walletMilkHub] */\n      mload(0x40)\n      dup1\n      0xa0\n      add\n      0x40\n      mstore\n      swap1\n      dup2\n      0x00\n      dup3\n      add\n      sload\n      dup2\n      mstore\n      0x20\n      add\n      0x01\n      dup3\n      add\n      dup1\n      sload\n      tag_109\n      swap1\n      tag_96\n      jump\t// in\n    tag_109:\n      dup1\n      0x1f\n      add\n      0x20\n      dup1\n      swap2\n      div\n      mul\n      0x20\n      add\n      mload(0x40)\n      swap1\n      dup2\n      add\n      0x40\n      mstore\n      dup1\n      swap3\n      swap2\n      swap1\n      dup2\n      dup2\n      mstore\n      0x20\n      add\n      dup3\n      dup1\n      sload\n      tag_110\n      swap1\n      tag_96\n      jump\t// in\n    tag_110:\n      dup1\n      iszero\n      tag_111\n      jumpi\n      dup1\n      0x1f\n      lt\n      tag_112\n      jumpi\n      0x0100\n      dup1\n      dup4\n      sload\n      div\n      mul\n      dup4\n      mstore\n      swap2\n      0x20\n      add\n      swap2\n      jump(tag_111)\n    tag_112:\n      dup3\n      add\n      swap2\n      swap1\n      0x00\n      mstore\n      keccak256(0x00, 0x20)\n      swap1\n    tag_113:\n      dup2\n      sload\n      dup2\n      mstore\n      swap1\n      0x01\n      add\n      swap1\n      0x20\n      add\n      dup1\n      dup4\n      gt\n      tag_113\n      jumpi\n      dup3\n      swap1\n      sub\n      0x1f\n      and\n      dup3\n      add\n      swap2\n    tag_111:\n      pop\n      pop\n      pop\n      pop\n      pop\n      dup2\n      mstore\n      0x20\n      add\n      0x02\n      dup3\n      add\n      dup1\n      sload\n      tag_114\n      swap1\n      tag_96\n      jump\t// in\n    tag_114:\n      dup1\n      0x1f\n      add\n      0x20\n      dup1\n      swap2\n      div\n      mul\n      0x20\n      add\n      mload(0x40)\n      swap1\n      dup2\n      add\n      0x40\n      mstore\n      dup1\n      swap3\n      swap2\n      swap1\n      dup2\n      dup2\n      mstore\n      0x20\n      add\n      dup3\n      dup1\n      sload\n      tag_115\n      swap1\n      tag_96\n      jump\t// in\n    tag_115:\n      dup1\n      iszero\n      tag_116\n      jumpi\n      dup1\n      0x1f\n      lt\n      tag_117\n      jumpi\n      0x0100\n      dup1\n      dup4\n      sload\n      div\n      mul\n      dup4\n      mstore\n      swap2\n      0x20\n      add\n      swap2\n      jump(tag_116)\n    tag_117:\n      dup3\n      add\n      swap2\n      swap1\n      0x00\n      mstore\n      keccak256(0x00, 0x20)\n      swap1\n    tag_118:\n      dup2\n      sload\n      dup2\n      mstore\n      swap1\n      0x01\n      add\n      swap1\n      0x20\n      add\n      dup1\n      dup4\n      gt\n      tag_118\n      jumpi\n      dup3\n      swap1\n      sub\n      0x1f\n      and\n      dup3\n      add\n      swap2\n    tag_116:\n      pop\n      pop\n      pop\n      pop\n      pop\n      dup2\n      mstore\n      0x20\n      add\n      0x03\n      dup3\n      add\n      dup1\n      sload\n      tag_119\n      swap1\n      tag_96\n      jump\t// in\n    tag_119:\n      dup1\n      0x1f\n      add\n      0x20\n      dup1\n      swap2\n      div\n      mul\n      0x20\n      add\n      mload(0x40)\n      swap1\n      dup2\n      add\n      0x40\n      mstore\n      dup1\n      swap3\n      swap2\n      swap1\n      dup2\n      dup2\n      mstore\n      0x20\n      add\n      dup3\n      dup1\n      sload\n      tag_120\n      swap1\n      tag_96\n      jump\t// in\n    tag_120:\n      dup1\n      iszero\n      tag_121\n      jumpi\n      dup1\n      0x1f\n      lt\n      tag_122\n      jumpi\n      0x0100\n      dup1\n      dup4\n      sload\n      div\n      mul\n      dup4\n      mstore\n      swap2\n      0x20\n      add\n      swap2\n      jump(tag_121)\n    tag_122:\n      dup3\n      add\n      swap2\n      swap1\n      0x00\n      mstore\n      keccak256(0x00, 0x20)\n      swap1\n    tag_123:\n      dup2\n      sload\n      dup2\n      mstore\n      swap1\n      0x01\n      add\n      swap1\n      0x20\n      add\n      dup1\n      dup4\n      gt\n      tag_123\n      jumpi\n      dup3\n      swap1\n      sub\n      0x1f\n      and\n      dup3\n      add\n      swap2\n    tag_121:\n      pop\n      pop\n      pop\n      pop\n      pop\n      dup2\n      mstore\n      0x20\n      add\n      0x04\n      dup3\n      add\n      sload\n      dup2\n      mstore\n      pop\n      pop\n      swap1\n      pop\n        /* \"contracts/Actor/MilkHub-smart-contract/MilkHubStorage.sol\":5906:5913  milkhub */\n      dup1\n        /* \"contracts/Actor/MilkHub-smart-contract/MilkHubStorage.sol\":5906:5916  milkhub.id */\n      0x00\n      add\n      mload\n        /* \"contracts/Actor/MilkHub-smart-contract/MilkHubStorage.sol\":5918:5925  milkhub */\n      dup2\n        /* \"contracts/Actor/MilkHub-smart-contract/MilkHubStorage.sol\":5918:5934  milkhub.fullName */\n      0x20\n      add\n      mload\n        /* \"contracts/Actor/MilkHub-smart-contract/MilkHubStorage.sol\":5936:5943  milkhub */\n      dup3\n        /* \"contracts/Actor/MilkHub-smart-contract/MilkHubStorage.sol\":5936:5952  milkhub.password */\n      0x40\n      add\n      mload\n        /* \"contracts/Actor/MilkHub-smart-contract/MilkHubStorage.sol\":5954:5961  milkhub */\n      dup4\n        /* \"contracts/Actor/MilkHub-smart-contract/MilkHubStorage.sol\":5954:5967  milkhub.email */\n      0x60\n      add\n      mload\n        /* \"contracts/Actor/MilkHub-smart-contract/MilkHubStorage.sol\":5969:5976  milkhub */\n      dup5\n        /* \"contracts/Actor/MilkHub-smart-contract/MilkHubStorage.sol\":5969:5984  milkhub.balance */\n      0x80\n      add\n      mload\n        /* \"contracts/Actor/MilkHub-smart-contract/MilkHubStorage.sol\":5898:5985  return (milkhub.id, milkhub.fullName, milkhub.password, milkhub.email, milkhub.balance) */\n      swap6\n      pop\n      swap6\n      pop\n      swap6\n      pop\n      swap6\n      pop\n      swap6\n      pop\n      pop\n        /* \"contracts/Actor/MilkHub-smart-contract/MilkHubStorage.sol\":5571:5993  function getUser(address walletMilkHub) external  view returns (uint256, string memory, string memory, string memory, uint256) {... */\n      swap2\n      swap4\n      swap6\n      swap1\n      swap3\n      swap5\n      pop\n      jump\t// out\n        /* \"contracts/Actor/MilkHub-smart-contract/MilkHubStorage.sol\":6104:6443  function updateBalance(address walletMilkHub, uint256 _id, uint256 balance) external{... */\n    tag_44:\n        /* \"contracts/Actor/MilkHub-smart-contract/MilkHubStorage.sol\":6217:6218  0 */\n      0x00\n        /* \"contracts/Actor/MilkHub-smart-contract/MilkHubStorage.sol\":6209:6216  balance */\n      dup2\n        /* \"contracts/Actor/MilkHub-smart-contract/MilkHubStorage.sol\":6209:6218  balance>0 */\n      gt\n        /* \"contracts/Actor/MilkHub-smart-contract/MilkHubStorage.sol\":6201:6239  require(balance>0,\"Balance Not Valid\") */\n      tag_125\n      jumpi\n      mload(0x40)\n      0x08c379a000000000000000000000000000000000000000000000000000000000\n      dup2\n      mstore\n      0x04\n      add\n      tag_126\n      swap1\n      tag_127\n      jump\t// in\n    tag_126:\n      mload(0x40)\n      dup1\n      swap2\n      sub\n      swap1\n      revert\n    tag_125:\n        /* \"contracts/Actor/MilkHub-smart-contract/MilkHubStorage.sol\":6258:6262  this */\n      address\n        /* \"contracts/Actor/MilkHub-smart-contract/MilkHubStorage.sol\":6258:6276  this.isUserPresent */\n      0xffffffffffffffffffffffffffffffffffffffff\n      and\n      0xa5578807\n        /* \"contracts/Actor/MilkHub-smart-contract/MilkHubStorage.sol\":6277:6290  walletMilkHub */\n      dup5\n        /* \"contracts/Actor/MilkHub-smart-contract/MilkHubStorage.sol\":6258:6291  this.isUserPresent(walletMilkHub) */\n      mload(0x40)\n      dup3\n      0xffffffff\n      and\n      0xe0\n      shl\n      dup2\n      mstore\n      0x04\n      add\n      tag_128\n      swap2\n      swap1\n      tag_68\n      jump\t// in\n    tag_128:\n      0x20\n      mload(0x40)\n      dup1\n      dup4\n      sub\n      dup2\n      dup7\n      gas\n      staticcall\n      iszero\n      dup1\n      iszero\n      tag_130\n      jumpi\n      returndatasize\n      0x00\n      dup1\n      returndatacopy\n      revert(0x00, returndatasize)\n    tag_130:\n      pop\n      pop\n      pop\n      pop\n      mload(0x40)\n      returndatasize\n      not(0x1f)\n      0x1f\n      dup3\n      add\n      and\n      dup3\n      add\n      dup1\n      0x40\n      mstore\n      pop\n      dup2\n      add\n      swap1\n      tag_131\n      swap2\n      swap1\n      tag_72\n      jump\t// in\n    tag_131:\n        /* \"contracts/Actor/MilkHub-smart-contract/MilkHubStorage.sol\":6250:6310  require(this.isUserPresent(walletMilkHub),\"User Not Found!\") */\n      tag_132\n      jumpi\n      mload(0x40)\n      0x08c379a000000000000000000000000000000000000000000000000000000000\n      dup2\n      mstore\n      0x04\n      add\n      tag_133\n      swap1\n      tag_75\n      jump\t// in\n    tag_133:\n      mload(0x40)\n      dup1\n      swap2\n      sub\n      swap1\n      revert\n    tag_132:\n        /* \"contracts/Actor/MilkHub-smart-contract/MilkHubStorage.sol\":6357:6360  _id */\n      dup2\n        /* \"contracts/Actor/MilkHub-smart-contract/MilkHubStorage.sol\":6329:6337  milkhubs */\n      0x01\n        /* \"contracts/Actor/MilkHub-smart-contract/MilkHubStorage.sol\":6329:6352  milkhubs[walletMilkHub] */\n      0x00\n        /* \"contracts/Actor/MilkHub-smart-contract/MilkHubStorage.sol\":6338:6351  walletMilkHub */\n      dup6\n        /* \"contracts/Actor/MilkHub-smart-contract/MilkHubStorage.sol\":6329:6352  milkhubs[walletMilkHub] */\n      0xffffffffffffffffffffffffffffffffffffffff\n      and\n      0xffffffffffffffffffffffffffffffffffffffff\n      and\n      dup2\n      mstore\n      0x20\n      add\n      swap1\n      dup2\n      mstore\n      0x20\n      add\n      0x00\n      keccak256\n        /* \"contracts/Actor/MilkHub-smart-contract/MilkHubStorage.sol\":6329:6355  milkhubs[walletMilkHub].id */\n      0x00\n      add\n      sload\n        /* \"contracts/Actor/MilkHub-smart-contract/MilkHubStorage.sol\":6329:6360  milkhubs[walletMilkHub].id==_id */\n      eq\n        /* \"contracts/Actor/MilkHub-smart-contract/MilkHubStorage.sol\":6321:6381  require(milkhubs[walletMilkHub].id==_id,\"Struct not Valid!\") */\n      tag_134\n      jumpi\n      mload(0x40)\n      0x08c379a000000000000000000000000000000000000000000000000000000000\n      dup2\n      mstore\n      0x04\n      add\n      tag_135\n      swap1\n      tag_78\n      jump\t// in\n    tag_135:\n      mload(0x40)\n      dup1\n      swap2\n      sub\n      swap1\n      revert\n    tag_134:\n        /* \"contracts/Actor/MilkHub-smart-contract/MilkHubStorage.sol\":6428:6435  balance */\n      dup1\n        /* \"contracts/Actor/MilkHub-smart-contract/MilkHubStorage.sol\":6394:6402  milkhubs */\n      0x01\n        /* \"contracts/Actor/MilkHub-smart-contract/MilkHubStorage.sol\":6394:6417  milkhubs[walletMilkHub] */\n      0x00\n        /* \"contracts/Actor/MilkHub-smart-contract/MilkHubStorage.sol\":6403:6416  walletMilkHub */\n      dup6\n        /* \"contracts/Actor/MilkHub-smart-contract/MilkHubStorage.sol\":6394:6417  milkhubs[walletMilkHub] */\n      0xffffffffffffffffffffffffffffffffffffffff\n      and\n      0xffffffffffffffffffffffffffffffffffffffff\n      and\n      dup2\n      mstore\n      0x20\n      add\n      swap1\n      dup2\n      mstore\n      0x20\n      add\n      0x00\n      keccak256\n        /* \"contracts/Actor/MilkHub-smart-contract/MilkHubStorage.sol\":6394:6425  milkhubs[walletMilkHub].balance */\n      0x04\n      add\n        /* \"contracts/Actor/MilkHub-smart-contract/MilkHubStorage.sol\":6394:6435  milkhubs[walletMilkHub].balance = balance */\n      dup2\n      swap1\n      sstore\n      pop\n        /* \"contracts/Actor/MilkHub-smart-contract/MilkHubStorage.sol\":6104:6443  function updateBalance(address walletMilkHub, uint256 _id, uint256 balance) external{... */\n      pop\n      pop\n      pop\n      jump\t// out\n        /* \"contracts/Actor/MilkHub-smart-contract/MilkHubStorage.sol\":3450:3674  function isUserPresent(address walletMilkHub) external view returns(bool){... */\n    tag_47:\n        /* \"contracts/Actor/MilkHub-smart-contract/MilkHubStorage.sol\":3518:3522  bool */\n      0x00\n        /* \"contracts/Actor/MilkHub-smart-contract/MilkHubStorage.sol\":3575:3576  0 */\n      dup1\n        /* \"contracts/Actor/MilkHub-smart-contract/MilkHubStorage.sol\":3542:3577  address(walletMilkHub)!= address(0) */\n      0xffffffffffffffffffffffffffffffffffffffff\n      and\n        /* \"contracts/Actor/MilkHub-smart-contract/MilkHubStorage.sol\":3550:3563  walletMilkHub */\n      dup3\n        /* \"contracts/Actor/MilkHub-smart-contract/MilkHubStorage.sol\":3542:3577  address(walletMilkHub)!= address(0) */\n      0xffffffffffffffffffffffffffffffffffffffff\n      and\n      sub\n        /* \"contracts/Actor/MilkHub-smart-contract/MilkHubStorage.sol\":3534:3609  require(address(walletMilkHub)!= address(0), \"Address MilkHub non valido!\") */\n      tag_137\n      jumpi\n      mload(0x40)\n      0x08c379a000000000000000000000000000000000000000000000000000000000\n      dup2\n      mstore\n      0x04\n      add\n      tag_138\n      swap1\n      tag_139\n      jump\t// in\n    tag_138:\n      mload(0x40)\n      dup1\n      swap2\n      sub\n      swap1\n      revert\n    tag_137:\n        /* \"contracts/Actor/MilkHub-smart-contract/MilkHubStorage.sol\":3665:3666  0 */\n      0x00\n        /* \"contracts/Actor/MilkHub-smart-contract/MilkHubStorage.sol\":3637:3645  milkhubs */\n      0x01\n        /* \"contracts/Actor/MilkHub-smart-contract/MilkHubStorage.sol\":3637:3660  milkhubs[walletMilkHub] */\n      0x00\n        /* \"contracts/Actor/MilkHub-smart-contract/MilkHubStorage.sol\":3646:3659  walletMilkHub */\n      dup5\n        /* \"contracts/Actor/MilkHub-smart-contract/MilkHubStorage.sol\":3637:3660  milkhubs[walletMilkHub] */\n      0xffffffffffffffffffffffffffffffffffffffff\n      and\n      0xffffffffffffffffffffffffffffffffffffffff\n      and\n      dup2\n      mstore\n      0x20\n      add\n      swap1\n      dup2\n      mstore\n      0x20\n      add\n      0x00\n      keccak256\n        /* \"contracts/Actor/MilkHub-smart-contract/MilkHubStorage.sol\":3637:3663  milkhubs[walletMilkHub].id */\n      0x00\n      add\n      sload\n        /* \"contracts/Actor/MilkHub-smart-contract/MilkHubStorage.sol\":3637:3666  milkhubs[walletMilkHub].id!=0 */\n      eq\n      iszero\n        /* \"contracts/Actor/MilkHub-smart-contract/MilkHubStorage.sol\":3630:3666  return milkhubs[walletMilkHub].id!=0 */\n      swap1\n      pop\n        /* \"contracts/Actor/MilkHub-smart-contract/MilkHubStorage.sol\":3450:3674  function isUserPresent(address walletMilkHub) external view returns(bool){... */\n      swap2\n      swap1\n      pop\n      jump\t// out\n        /* \"contracts/Actor/MilkHub-smart-contract/MilkHubStorage.sol\":834:1897  function addUser(string memory _fullName, string memory _password,string memory _email, address walletMilkHub) external {... */\n    tag_52:\n        /* \"contracts/Actor/MilkHub-smart-contract/MilkHubStorage.sol\":1041:1055  bytes32 idHash */\n      0x00\n        /* \"contracts/Actor/MilkHub-smart-contract/MilkHubStorage.sol\":1085:1094  _fullName */\n      dup5\n        /* \"contracts/Actor/MilkHub-smart-contract/MilkHubStorage.sol\":1096:1105  _password */\n      dup5\n        /* \"contracts/Actor/MilkHub-smart-contract/MilkHubStorage.sol\":1107:1113  _email */\n      dup5\n        /* \"contracts/Actor/MilkHub-smart-contract/MilkHubStorage.sol\":1115:1128  walletMilkHub */\n      dup5\n        /* \"contracts/Actor/MilkHub-smart-contract/MilkHubStorage.sol\":1068:1129  abi.encodePacked(_fullName, _password, _email, walletMilkHub) */\n      add(0x20, mload(0x40))\n      tag_141\n      swap5\n      swap4\n      swap3\n      swap2\n      swap1\n      tag_142\n      jump\t// in\n    tag_141:\n      mload(0x40)\n      0x20\n      dup2\n      dup4\n      sub\n      sub\n      dup2\n      mstore\n      swap1\n      0x40\n      mstore\n        /* \"contracts/Actor/MilkHub-smart-contract/MilkHubStorage.sol\":1058:1130  keccak256(abi.encodePacked(_fullName, _password, _email, walletMilkHub)) */\n      dup1\n      mload\n      swap1\n      0x20\n      add\n      keccak256\n        /* \"contracts/Actor/MilkHub-smart-contract/MilkHubStorage.sol\":1041:1130  bytes32 idHash = keccak256(abi.encodePacked(_fullName, _password, _email, walletMilkHub)) */\n      swap1\n      pop\n        /* \"contracts/Actor/MilkHub-smart-contract/MilkHubStorage.sol\":1141:1162  uint256 lastIdMilkHub */\n      0x00\n        /* \"contracts/Actor/MilkHub-smart-contract/MilkHubStorage.sol\":1173:1179  idHash */\n      dup2\n        /* \"contracts/Actor/MilkHub-smart-contract/MilkHubStorage.sol\":1165:1180  uint256(idHash) */\n      0x00\n      shr\n        /* \"contracts/Actor/MilkHub-smart-contract/MilkHubStorage.sol\":1141:1180  uint256 lastIdMilkHub = uint256(idHash) */\n      swap1\n      pop\n        /* \"contracts/Actor/MilkHub-smart-contract/MilkHubStorage.sol\":1231:1232  0 */\n      0x00\n        /* \"contracts/Actor/MilkHub-smart-contract/MilkHubStorage.sol\":1201:1209  milkhubs */\n      0x01\n        /* \"contracts/Actor/MilkHub-smart-contract/MilkHubStorage.sol\":1201:1224  milkhubs[walletMilkHub] */\n      0x00\n        /* \"contracts/Actor/MilkHub-smart-contract/MilkHubStorage.sol\":1210:1223  walletMilkHub */\n      dup6\n        /* \"contracts/Actor/MilkHub-smart-contract/MilkHubStorage.sol\":1201:1224  milkhubs[walletMilkHub] */\n      0xffffffffffffffffffffffffffffffffffffffff\n      and\n      0xffffffffffffffffffffffffffffffffffffffff\n      and\n      dup2\n      mstore\n      0x20\n      add\n      swap1\n      dup2\n      mstore\n      0x20\n      add\n      0x00\n      keccak256\n        /* \"contracts/Actor/MilkHub-smart-contract/MilkHubStorage.sol\":1201:1227  milkhubs[walletMilkHub].id */\n      0x00\n      add\n      sload\n        /* \"contracts/Actor/MilkHub-smart-contract/MilkHubStorage.sol\":1201:1232  milkhubs[walletMilkHub].id == 0 */\n      eq\n        /* \"contracts/Actor/MilkHub-smart-contract/MilkHubStorage.sol\":1193:1263  require(milkhubs[walletMilkHub].id == 0, \"MilkHub already registered\") */\n      tag_143\n      jumpi\n      mload(0x40)\n      0x08c379a000000000000000000000000000000000000000000000000000000000\n      dup2\n      mstore\n      0x04\n      add\n      tag_144\n      swap1\n      tag_145\n      jump\t// in\n    tag_144:\n      mload(0x40)\n      dup1\n      swap2\n      sub\n      swap1\n      revert\n    tag_143:\n        /* \"contracts/Actor/MilkHub-smart-contract/MilkHubStorage.sol\":1308:1309  0 */\n      0x00\n        /* \"contracts/Actor/MilkHub-smart-contract/MilkHubStorage.sol\":1288:1297  _fullName */\n      dup7\n        /* \"contracts/Actor/MilkHub-smart-contract/MilkHubStorage.sol\":1282:1305  bytes(_fullName).length */\n      mload\n        /* \"contracts/Actor/MilkHub-smart-contract/MilkHubStorage.sol\":1282:1309  bytes(_fullName).length > 0 */\n      gt\n        /* \"contracts/Actor/MilkHub-smart-contract/MilkHubStorage.sol\":1274:1339  require(bytes(_fullName).length > 0, \"Full name cannot be empty\") */\n      tag_146\n      jumpi\n      mload(0x40)\n      0x08c379a000000000000000000000000000000000000000000000000000000000\n      dup2\n      mstore\n      0x04\n      add\n      tag_147\n      swap1\n      tag_148\n      jump\t// in\n    tag_147:\n      mload(0x40)\n      dup1\n      swap2\n      sub\n      swap1\n      revert\n    tag_146:\n        /* \"contracts/Actor/MilkHub-smart-contract/MilkHubStorage.sol\":1384:1385  0 */\n      0x00\n        /* \"contracts/Actor/MilkHub-smart-contract/MilkHubStorage.sol\":1364:1373  _password */\n      dup6\n        /* \"contracts/Actor/MilkHub-smart-contract/MilkHubStorage.sol\":1358:1381  bytes(_password).length */\n      mload\n        /* \"contracts/Actor/MilkHub-smart-contract/MilkHubStorage.sol\":1358:1385  bytes(_password).length > 0 */\n      gt\n        /* \"contracts/Actor/MilkHub-smart-contract/MilkHubStorage.sol\":1350:1414  require(bytes(_password).length > 0, \"Password cannot be empty\") */\n      tag_149\n      jumpi\n      mload(0x40)\n      0x08c379a000000000000000000000000000000000000000000000000000000000\n      dup2\n      mstore\n      0x04\n      add\n      tag_150\n      swap1\n      tag_151\n      jump\t// in\n    tag_150:\n      mload(0x40)\n      dup1\n      swap2\n      sub\n      swap1\n      revert\n    tag_149:\n        /* \"contracts/Actor/MilkHub-smart-contract/MilkHubStorage.sol\":1456:1457  0 */\n      0x00\n        /* \"contracts/Actor/MilkHub-smart-contract/MilkHubStorage.sol\":1439:1445  _email */\n      dup5\n        /* \"contracts/Actor/MilkHub-smart-contract/MilkHubStorage.sol\":1433:1453  bytes(_email).length */\n      mload\n        /* \"contracts/Actor/MilkHub-smart-contract/MilkHubStorage.sol\":1433:1457  bytes(_email).length > 0 */\n      gt\n        /* \"contracts/Actor/MilkHub-smart-contract/MilkHubStorage.sol\":1425:1483  require(bytes(_email).length > 0, \"Email cannot be empty\") */\n      tag_152\n      jumpi\n      mload(0x40)\n      0x08c379a000000000000000000000000000000000000000000000000000000000\n      dup2\n      mstore\n      0x04\n      add\n      tag_153\n      swap1\n      tag_154\n      jump\t// in\n    tag_153:\n      mload(0x40)\n      dup1\n      swap2\n      sub\n      swap1\n      revert\n    tag_152:\n        /* \"contracts/Actor/MilkHub-smart-contract/MilkHubStorage.sol\":1559:1584  MilkHub memory newMilkHub */\n      0x00\n        /* \"contracts/Actor/MilkHub-smart-contract/MilkHubStorage.sol\":1587:1762  MilkHub({... */\n      mload(0x40)\n      dup1\n      0xa0\n      add\n      0x40\n      mstore\n      dup1\n        /* \"contracts/Actor/MilkHub-smart-contract/MilkHubStorage.sol\":1614:1627  lastIdMilkHub */\n      dup4\n        /* \"contracts/Actor/MilkHub-smart-contract/MilkHubStorage.sol\":1587:1762  MilkHub({... */\n      dup2\n      mstore\n      0x20\n      add\n        /* \"contracts/Actor/MilkHub-smart-contract/MilkHubStorage.sol\":1652:1661  _fullName */\n      dup9\n        /* \"contracts/Actor/MilkHub-smart-contract/MilkHubStorage.sol\":1587:1762  MilkHub({... */\n      dup2\n      mstore\n      0x20\n      add\n        /* \"contracts/Actor/MilkHub-smart-contract/MilkHubStorage.sol\":1686:1695  _password */\n      dup8\n        /* \"contracts/Actor/MilkHub-smart-contract/MilkHubStorage.sol\":1587:1762  MilkHub({... */\n      dup2\n      mstore\n      0x20\n      add\n        /* \"contracts/Actor/MilkHub-smart-contract/MilkHubStorage.sol\":1717:1723  _email */\n      dup7\n        /* \"contracts/Actor/MilkHub-smart-contract/MilkHubStorage.sol\":1587:1762  MilkHub({... */\n      dup2\n      mstore\n      0x20\n      add\n        /* \"contracts/Actor/MilkHub-smart-contract/MilkHubStorage.sol\":1747:1750  100 */\n      0x64\n        /* \"contracts/Actor/MilkHub-smart-contract/MilkHubStorage.sol\":1587:1762  MilkHub({... */\n      dup2\n      mstore\n      pop\n        /* \"contracts/Actor/MilkHub-smart-contract/MilkHubStorage.sol\":1559:1762  MilkHub memory newMilkHub = MilkHub({... */\n      swap1\n      pop\n        /* \"contracts/Actor/MilkHub-smart-contract/MilkHubStorage.sol\":1879:1889  newMilkHub */\n      dup1\n        /* \"contracts/Actor/MilkHub-smart-contract/MilkHubStorage.sol\":1853:1861  milkhubs */\n      0x01\n        /* \"contracts/Actor/MilkHub-smart-contract/MilkHubStorage.sol\":1853:1876  milkhubs[walletMilkHub] */\n      0x00\n        /* \"contracts/Actor/MilkHub-smart-contract/MilkHubStorage.sol\":1862:1875  walletMilkHub */\n      dup7\n        /* \"contracts/Actor/MilkHub-smart-contract/MilkHubStorage.sol\":1853:1876  milkhubs[walletMilkHub] */\n      0xffffffffffffffffffffffffffffffffffffffff\n      and\n      0xffffffffffffffffffffffffffffffffffffffff\n      and\n      dup2\n      mstore\n      0x20\n      add\n      swap1\n      dup2\n      mstore\n      0x20\n      add\n      0x00\n      keccak256\n        /* \"contracts/Actor/MilkHub-smart-contract/MilkHubStorage.sol\":1853:1889  milkhubs[walletMilkHub] = newMilkHub */\n      0x00\n      dup3\n      add\n      mload\n      dup2\n      0x00\n      add\n      sstore\n      0x20\n      dup3\n      add\n      mload\n      dup2\n      0x01\n      add\n      swap1\n      dup2\n      tag_155\n      swap2\n      swap1\n      tag_156\n      jump\t// in\n    tag_155:\n      pop\n      0x40\n      dup3\n      add\n      mload\n      dup2\n      0x02\n      add\n      swap1\n      dup2\n      tag_157\n      swap2\n      swap1\n      tag_156\n      jump\t// in\n    tag_157:\n      pop\n      0x60\n      dup3\n      add\n      mload\n      dup2\n      0x03\n      add\n      swap1\n      dup2\n      tag_158\n      swap2\n      swap1\n      tag_156\n      jump\t// in\n    tag_158:\n      pop\n      0x80\n      dup3\n      add\n      mload\n      dup2\n      0x04\n      add\n      sstore\n      swap1\n      pop\n      pop\n        /* \"contracts/Actor/MilkHub-smart-contract/MilkHubStorage.sol\":954:1897  {... */\n      pop\n      pop\n      pop\n        /* \"contracts/Actor/MilkHub-smart-contract/MilkHubStorage.sol\":834:1897  function addUser(string memory _fullName, string memory _password,string memory _email, address walletMilkHub) external {... */\n      pop\n      pop\n      pop\n      pop\n      jump\t// out\n        /* \"contracts/Actor/MilkHub-smart-contract/MilkHubStorage.sol\":4688:4986  function getEmail(address walletMilkHub, uint256 _id) external view  returns(string memory){... */\n    tag_55:\n        /* \"contracts/Actor/MilkHub-smart-contract/MilkHubStorage.sol\":4765:4778  string memory */\n      0x60\n        /* \"contracts/Actor/MilkHub-smart-contract/MilkHubStorage.sol\":4798:4802  this */\n      address\n        /* \"contracts/Actor/MilkHub-smart-contract/MilkHubStorage.sol\":4798:4816  this.isUserPresent */\n      0xffffffffffffffffffffffffffffffffffffffff\n      and\n      0xa5578807\n        /* \"contracts/Actor/MilkHub-smart-contract/MilkHubStorage.sol\":4817:4830  walletMilkHub */\n      dup5\n        /* \"contracts/Actor/MilkHub-smart-contract/MilkHubStorage.sol\":4798:4831  this.isUserPresent(walletMilkHub) */\n      mload(0x40)\n      dup3\n      0xffffffff\n      and\n      0xe0\n      shl\n      dup2\n      mstore\n      0x04\n      add\n      tag_160\n      swap2\n      swap1\n      tag_68\n      jump\t// in\n    tag_160:\n      0x20\n      mload(0x40)\n      dup1\n      dup4\n      sub\n      dup2\n      dup7\n      gas\n      staticcall\n      iszero\n      dup1\n      iszero\n      tag_162\n      jumpi\n      returndatasize\n      0x00\n      dup1\n      returndatacopy\n      revert(0x00, returndatasize)\n    tag_162:\n      pop\n      pop\n      pop\n      pop\n      mload(0x40)\n      returndatasize\n      not(0x1f)\n      0x1f\n      dup3\n      add\n      and\n      dup3\n      add\n      dup1\n      0x40\n      mstore\n      pop\n      dup2\n      add\n      swap1\n      tag_163\n      swap2\n      swap1\n      tag_72\n      jump\t// in\n    tag_163:\n        /* \"contracts/Actor/MilkHub-smart-contract/MilkHubStorage.sol\":4790:4850  require(this.isUserPresent(walletMilkHub),\"User Not Found!\") */\n      tag_164\n      jumpi\n      mload(0x40)\n      0x08c379a000000000000000000000000000000000000000000000000000000000\n      dup2\n      mstore\n      0x04\n      add\n      tag_165\n      swap1\n      tag_75\n      jump\t// in\n    tag_165:\n      mload(0x40)\n      dup1\n      swap2\n      sub\n      swap1\n      revert\n    tag_164:\n        /* \"contracts/Actor/MilkHub-smart-contract/MilkHubStorage.sol\":4897:4900  _id */\n      dup2\n        /* \"contracts/Actor/MilkHub-smart-contract/MilkHubStorage.sol\":4869:4877  milkhubs */\n      0x01\n        /* \"contracts/Actor/MilkHub-smart-contract/MilkHubStorage.sol\":4869:4892  milkhubs[walletMilkHub] */\n      0x00\n        /* \"contracts/Actor/MilkHub-smart-contract/MilkHubStorage.sol\":4878:4891  walletMilkHub */\n      dup6\n        /* \"contracts/Actor/MilkHub-smart-contract/MilkHubStorage.sol\":4869:4892  milkhubs[walletMilkHub] */\n      0xffffffffffffffffffffffffffffffffffffffff\n      and\n      0xffffffffffffffffffffffffffffffffffffffff\n      and\n      dup2\n      mstore\n      0x20\n      add\n      swap1\n      dup2\n      mstore\n      0x20\n      add\n      0x00\n      keccak256\n        /* \"contracts/Actor/MilkHub-smart-contract/MilkHubStorage.sol\":4869:4895  milkhubs[walletMilkHub].id */\n      0x00\n      add\n      sload\n        /* \"contracts/Actor/MilkHub-smart-contract/MilkHubStorage.sol\":4869:4900  milkhubs[walletMilkHub].id==_id */\n      eq\n        /* \"contracts/Actor/MilkHub-smart-contract/MilkHubStorage.sol\":4861:4921  require(milkhubs[walletMilkHub].id==_id,\"Struct not Valid!\") */\n      tag_166\n      jumpi\n      mload(0x40)\n      0x08c379a000000000000000000000000000000000000000000000000000000000\n      dup2\n      mstore\n      0x04\n      add\n      tag_167\n      swap1\n      tag_78\n      jump\t// in\n    tag_167:\n      mload(0x40)\n      dup1\n      swap2\n      sub\n      swap1\n      revert\n    tag_166:\n        /* \"contracts/Actor/MilkHub-smart-contract/MilkHubStorage.sol\":4949:4957  milkhubs */\n      0x01\n        /* \"contracts/Actor/MilkHub-smart-contract/MilkHubStorage.sol\":4949:4972  milkhubs[walletMilkHub] */\n      0x00\n        /* \"contracts/Actor/MilkHub-smart-contract/MilkHubStorage.sol\":4958:4971  walletMilkHub */\n      dup5\n        /* \"contracts/Actor/MilkHub-smart-contract/MilkHubStorage.sol\":4949:4972  milkhubs[walletMilkHub] */\n      0xffffffffffffffffffffffffffffffffffffffff\n      and\n      0xffffffffffffffffffffffffffffffffffffffff\n      and\n      dup2\n      mstore\n      0x20\n      add\n      swap1\n      dup2\n      mstore\n      0x20\n      add\n      0x00\n      keccak256\n        /* \"contracts/Actor/MilkHub-smart-contract/MilkHubStorage.sol\":4949:4978  milkhubs[walletMilkHub].email */\n      0x03\n      add\n        /* \"contracts/Actor/MilkHub-smart-contract/MilkHubStorage.sol\":4942:4978  return milkhubs[walletMilkHub].email */\n      dup1\n      sload\n      tag_168\n      swap1\n      tag_96\n      jump\t// in\n    tag_168:\n      dup1\n      0x1f\n      add\n      0x20\n      dup1\n      swap2\n      div\n      mul\n      0x20\n      add\n      mload(0x40)\n      swap1\n      dup2\n      add\n      0x40\n      mstore\n      dup1\n      swap3\n      swap2\n      swap1\n      dup2\n      dup2\n      mstore\n      0x20\n      add\n      dup3\n      dup1\n      sload\n      tag_169\n      swap1\n      tag_96\n      jump\t// in\n    tag_169:\n      dup1\n      iszero\n      tag_170\n      jumpi\n      dup1\n      0x1f\n      lt\n      tag_171\n      jumpi\n      0x0100\n      dup1\n      dup4\n      sload\n      div\n      mul\n      dup4\n      mstore\n      swap2\n      0x20\n      add\n      swap2\n      jump(tag_170)\n    tag_171:\n      dup3\n      add\n      swap2\n      swap1\n      0x00\n      mstore\n      keccak256(0x00, 0x20)\n      swap1\n    tag_172:\n      dup2\n      sload\n      dup2\n      mstore\n      swap1\n      0x01\n      add\n      swap1\n      0x20\n      add\n      dup1\n      dup4\n      gt\n      tag_172\n      jumpi\n      dup3\n      swap1\n      sub\n      0x1f\n      and\n      dup3\n      add\n      swap2\n    tag_170:\n      pop\n      pop\n      pop\n      pop\n      pop\n      swap1\n      pop\n        /* \"contracts/Actor/MilkHub-smart-contract/MilkHubStorage.sol\":4688:4986  function getEmail(address walletMilkHub, uint256 _id) external view  returns(string memory){... */\n      swap3\n      swap2\n      pop\n      pop\n      jump\t// out\n        /* \"contracts/Actor/MilkHub-smart-contract/MilkHubStorage.sol\":2679:3278  function deleteUser(address walletMilkHub, uint256 id_milkHub) external returns(bool){... */\n    tag_59:\n        /* \"contracts/Actor/MilkHub-smart-contract/MilkHubStorage.sol\":2759:2763  bool */\n      0x00\n        /* \"contracts/Actor/MilkHub-smart-contract/MilkHubStorage.sol\":2777:2798  uint256 lastIdMilkHub */\n      dup1\n        /* \"contracts/Actor/MilkHub-smart-contract/MilkHubStorage.sol\":2850:2858  milkhubs */\n      0x01\n        /* \"contracts/Actor/MilkHub-smart-contract/MilkHubStorage.sol\":2850:2873  milkhubs[walletMilkHub] */\n      0x00\n        /* \"contracts/Actor/MilkHub-smart-contract/MilkHubStorage.sol\":2859:2872  walletMilkHub */\n      dup6\n        /* \"contracts/Actor/MilkHub-smart-contract/MilkHubStorage.sol\":2850:2873  milkhubs[walletMilkHub] */\n      0xffffffffffffffffffffffffffffffffffffffff\n      and\n      0xffffffffffffffffffffffffffffffffffffffff\n      and\n      dup2\n      mstore\n      0x20\n      add\n      swap1\n      dup2\n      mstore\n      0x20\n      add\n      0x00\n      keccak256\n        /* \"contracts/Actor/MilkHub-smart-contract/MilkHubStorage.sol\":2850:2882  milkhubs[walletMilkHub].fullName */\n      0x01\n      add\n        /* \"contracts/Actor/MilkHub-smart-contract/MilkHubStorage.sol\":2897:2905  milkhubs */\n      0x01\n        /* \"contracts/Actor/MilkHub-smart-contract/MilkHubStorage.sol\":2897:2920  milkhubs[walletMilkHub] */\n      0x00\n        /* \"contracts/Actor/MilkHub-smart-contract/MilkHubStorage.sol\":2906:2919  walletMilkHub */\n      dup7\n        /* \"contracts/Actor/MilkHub-smart-contract/MilkHubStorage.sol\":2897:2920  milkhubs[walletMilkHub] */\n      0xffffffffffffffffffffffffffffffffffffffff\n      and\n      0xffffffffffffffffffffffffffffffffffffffff\n      and\n      dup2\n      mstore\n      0x20\n      add\n      swap1\n      dup2\n      mstore\n      0x20\n      add\n      0x00\n      keccak256\n        /* \"contracts/Actor/MilkHub-smart-contract/MilkHubStorage.sol\":2897:2929  milkhubs[walletMilkHub].password */\n      0x02\n      add\n        /* \"contracts/Actor/MilkHub-smart-contract/MilkHubStorage.sol\":2944:2952  milkhubs */\n      0x01\n        /* \"contracts/Actor/MilkHub-smart-contract/MilkHubStorage.sol\":2944:2967  milkhubs[walletMilkHub] */\n      0x00\n        /* \"contracts/Actor/MilkHub-smart-contract/MilkHubStorage.sol\":2953:2966  walletMilkHub */\n      dup8\n        /* \"contracts/Actor/MilkHub-smart-contract/MilkHubStorage.sol\":2944:2967  milkhubs[walletMilkHub] */\n      0xffffffffffffffffffffffffffffffffffffffff\n      and\n      0xffffffffffffffffffffffffffffffffffffffff\n      and\n      dup2\n      mstore\n      0x20\n      add\n      swap1\n      dup2\n      mstore\n      0x20\n      add\n      0x00\n      keccak256\n        /* \"contracts/Actor/MilkHub-smart-contract/MilkHubStorage.sol\":2944:2973  milkhubs[walletMilkHub].email */\n      0x03\n      add\n        /* \"contracts/Actor/MilkHub-smart-contract/MilkHubStorage.sol\":2988:3001  walletMilkHub */\n      dup7\n        /* \"contracts/Actor/MilkHub-smart-contract/MilkHubStorage.sol\":2819:3019  abi.encodePacked(... */\n      add(0x20, mload(0x40))\n      tag_174\n      swap5\n      swap4\n      swap3\n      swap2\n      swap1\n      tag_175\n      jump\t// in\n    tag_174:\n      mload(0x40)\n      0x20\n      dup2\n      dup4\n      sub\n      sub\n      dup2\n      mstore\n      swap1\n      0x40\n      mstore\n        /* \"contracts/Actor/MilkHub-smart-contract/MilkHubStorage.sol\":2809:3020  keccak256(abi.encodePacked(... */\n      dup1\n      mload\n      swap1\n      0x20\n      add\n      keccak256\n        /* \"contracts/Actor/MilkHub-smart-contract/MilkHubStorage.sol\":2801:3021  uint256(keccak256(abi.encodePacked(... */\n      0x00\n      shr\n        /* \"contracts/Actor/MilkHub-smart-contract/MilkHubStorage.sol\":2777:3021  uint256 lastIdMilkHub = uint256(keccak256(abi.encodePacked(... */\n      swap1\n      pop\n        /* \"contracts/Actor/MilkHub-smart-contract/MilkHubStorage.sol\":3060:3070  id_milkHub */\n      dup3\n        /* \"contracts/Actor/MilkHub-smart-contract/MilkHubStorage.sol\":3043:3056  lastIdMilkHub */\n      dup2\n        /* \"contracts/Actor/MilkHub-smart-contract/MilkHubStorage.sol\":3043:3070  lastIdMilkHub == id_milkHub */\n      eq\n        /* \"contracts/Actor/MilkHub-smart-contract/MilkHubStorage.sol\":3034:3097  require (lastIdMilkHub == id_milkHub,\"Utente non Autorizzato!\") */\n      tag_176\n      jumpi\n      mload(0x40)\n      0x08c379a000000000000000000000000000000000000000000000000000000000\n      dup2\n      mstore\n      0x04\n      add\n      tag_177\n      swap1\n      tag_178\n      jump\t// in\n    tag_177:\n      mload(0x40)\n      dup1\n      swap2\n      sub\n      swap1\n      revert\n    tag_176:\n        /* \"contracts/Actor/MilkHub-smart-contract/MilkHubStorage.sol\":3117:3125  milkhubs */\n      0x01\n        /* \"contracts/Actor/MilkHub-smart-contract/MilkHubStorage.sol\":3117:3140  milkhubs[walletMilkHub] */\n      0x00\n        /* \"contracts/Actor/MilkHub-smart-contract/MilkHubStorage.sol\":3126:3139  walletMilkHub */\n      dup6\n        /* \"contracts/Actor/MilkHub-smart-contract/MilkHubStorage.sol\":3117:3140  milkhubs[walletMilkHub] */\n      0xffffffffffffffffffffffffffffffffffffffff\n      and\n      0xffffffffffffffffffffffffffffffffffffffff\n      and\n      dup2\n      mstore\n      0x20\n      add\n      swap1\n      dup2\n      mstore\n      0x20\n      add\n      0x00\n      keccak256\n      0x00\n        /* \"contracts/Actor/MilkHub-smart-contract/MilkHubStorage.sol\":3110:3140  delete milkhubs[walletMilkHub] */\n      dup1\n      dup3\n      add\n      0x00\n      swap1\n      sstore\n      0x01\n      dup3\n      add\n      0x00\n      tag_179\n      swap2\n      swap1\n      tag_180\n      jump\t// in\n    tag_179:\n      0x02\n      dup3\n      add\n      0x00\n      tag_181\n      swap2\n      swap1\n      tag_180\n      jump\t// in\n    tag_181:\n      0x03\n      dup3\n      add\n      0x00\n      tag_182\n      swap2\n      swap1\n      tag_180\n      jump\t// in\n    tag_182:\n      0x04\n      dup3\n      add\n      0x00\n      swap1\n      sstore\n      pop\n      pop\n        /* \"contracts/Actor/MilkHub-smart-contract/MilkHubStorage.sol\":3186:3187  0 */\n      0x00\n        /* \"contracts/Actor/MilkHub-smart-contract/MilkHubStorage.sol\":3156:3164  milkhubs */\n      0x01\n        /* \"contracts/Actor/MilkHub-smart-contract/MilkHubStorage.sol\":3156:3179  milkhubs[walletMilkHub] */\n      0x00\n        /* \"contracts/Actor/MilkHub-smart-contract/MilkHubStorage.sol\":3165:3178  walletMilkHub */\n      dup7\n        /* \"contracts/Actor/MilkHub-smart-contract/MilkHubStorage.sol\":3156:3179  milkhubs[walletMilkHub] */\n      0xffffffffffffffffffffffffffffffffffffffff\n      and\n      0xffffffffffffffffffffffffffffffffffffffff\n      and\n      dup2\n      mstore\n      0x20\n      add\n      swap1\n      dup2\n      mstore\n      0x20\n      add\n      0x00\n      keccak256\n        /* \"contracts/Actor/MilkHub-smart-contract/MilkHubStorage.sol\":3156:3182  milkhubs[walletMilkHub].id */\n      0x00\n      add\n      sload\n        /* \"contracts/Actor/MilkHub-smart-contract/MilkHubStorage.sol\":3156:3187  milkhubs[walletMilkHub].id == 0 */\n      sub\n        /* \"contracts/Actor/MilkHub-smart-contract/MilkHubStorage.sol\":3153:3271  if(milkhubs[walletMilkHub].id == 0 ){... */\n      tag_183\n      jumpi\n        /* \"contracts/Actor/MilkHub-smart-contract/MilkHubStorage.sol\":3211:3215  true */\n      0x01\n        /* \"contracts/Actor/MilkHub-smart-contract/MilkHubStorage.sol\":3204:3215  return true */\n      swap2\n      pop\n      pop\n      jump(tag_173)\n        /* \"contracts/Actor/MilkHub-smart-contract/MilkHubStorage.sol\":3153:3271  if(milkhubs[walletMilkHub].id == 0 ){... */\n    tag_183:\n        /* \"contracts/Actor/MilkHub-smart-contract/MilkHubStorage.sol\":3254:3259  false */\n      0x00\n        /* \"contracts/Actor/MilkHub-smart-contract/MilkHubStorage.sol\":3247:3259  return false */\n      swap2\n      pop\n      pop\n        /* \"contracts/Actor/MilkHub-smart-contract/MilkHubStorage.sol\":2679:3278  function deleteUser(address walletMilkHub, uint256 id_milkHub) external returns(bool){... */\n    tag_173:\n      swap3\n      swap2\n      pop\n      pop\n      jump\t// out\n    tag_180:\n      pop\n      dup1\n      sload\n      tag_185\n      swap1\n      tag_96\n      jump\t// in\n    tag_185:\n      0x00\n      dup3\n      sstore\n      dup1\n      0x1f\n      lt\n      tag_187\n      jumpi\n      pop\n      jump(tag_186)\n    tag_187:\n      0x1f\n      add\n      0x20\n      swap1\n      div\n      swap1\n      0x00\n      mstore\n      keccak256(0x00, 0x20)\n      swap1\n      dup2\n      add\n      swap1\n      tag_188\n      swap2\n      swap1\n      tag_189\n      jump\t// in\n    tag_188:\n    tag_186:\n      pop\n      jump\t// out\n    tag_189:\n    tag_190:\n      dup1\n      dup3\n      gt\n      iszero\n      tag_191\n      jumpi\n      0x00\n      dup2\n      0x00\n      swap1\n      sstore\n      pop\n      0x01\n      add\n      jump(tag_190)\n    tag_191:\n      pop\n      swap1\n      jump\t// out\n        /* \"#utility.yul\":7:82   */\n    tag_192:\n        /* \"#utility.yul\":40:46   */\n      0x00\n        /* \"#utility.yul\":73:75   */\n      0x40\n        /* \"#utility.yul\":67:76   */\n      mload\n        /* \"#utility.yul\":57:76   */\n      swap1\n      pop\n        /* \"#utility.yul\":7:82   */\n      swap1\n      jump\t// out\n        /* \"#utility.yul\":88:205   */\n    tag_193:\n        /* \"#utility.yul\":197:198   */\n      0x00\n        /* \"#utility.yul\":194:195   */\n      dup1\n        /* \"#utility.yul\":187:199   */\n      revert\n        /* \"#utility.yul\":211:328   */\n    tag_194:\n        /* \"#utility.yul\":320:321   */\n      0x00\n        /* \"#utility.yul\":317:318   */\n      dup1\n        /* \"#utility.yul\":310:322   */\n      revert\n        /* \"#utility.yul\":334:460   */\n    tag_195:\n        /* \"#utility.yul\":371:378   */\n      0x00\n        /* \"#utility.yul\":411:453   */\n      0xffffffffffffffffffffffffffffffffffffffff\n        /* \"#utility.yul\":404:409   */\n      dup3\n        /* \"#utility.yul\":400:454   */\n      and\n        /* \"#utility.yul\":389:454   */\n      swap1\n      pop\n        /* \"#utility.yul\":334:460   */\n      swap2\n      swap1\n      pop\n      jump\t// out\n        /* \"#utility.yul\":466:562   */\n    tag_196:\n        /* \"#utility.yul\":503:510   */\n      0x00\n        /* \"#utility.yul\":532:556   */\n      tag_271\n        /* \"#utility.yul\":550:555   */\n      dup3\n        /* \"#utility.yul\":532:556   */\n      tag_195\n      jump\t// in\n    tag_271:\n        /* \"#utility.yul\":521:556   */\n      swap1\n      pop\n        /* \"#utility.yul\":466:562   */\n      swap2\n      swap1\n      pop\n      jump\t// out\n        /* \"#utility.yul\":568:690   */\n    tag_197:\n        /* \"#utility.yul\":641:665   */\n      tag_273\n        /* \"#utility.yul\":659:664   */\n      dup2\n        /* \"#utility.yul\":641:665   */\n      tag_196\n      jump\t// in\n    tag_273:\n        /* \"#utility.yul\":634:639   */\n      dup2\n        /* \"#utility.yul\":631:666   */\n      eq\n        /* \"#utility.yul\":621:684   */\n      tag_274\n      jumpi\n        /* \"#utility.yul\":680:681   */\n      0x00\n        /* \"#utility.yul\":677:678   */\n      dup1\n        /* \"#utility.yul\":670:682   */\n      revert\n        /* \"#utility.yul\":621:684   */\n    tag_274:\n        /* \"#utility.yul\":568:690   */\n      pop\n      jump\t// out\n        /* \"#utility.yul\":696:835   */\n    tag_198:\n        /* \"#utility.yul\":742:747   */\n      0x00\n        /* \"#utility.yul\":780:786   */\n      dup2\n        /* \"#utility.yul\":767:787   */\n      calldataload\n        /* \"#utility.yul\":758:787   */\n      swap1\n      pop\n        /* \"#utility.yul\":796:829   */\n      tag_276\n        /* \"#utility.yul\":823:828   */\n      dup2\n        /* \"#utility.yul\":796:829   */\n      tag_197\n      jump\t// in\n    tag_276:\n        /* \"#utility.yul\":696:835   */\n      swap3\n      swap2\n      pop\n      pop\n      jump\t// out\n        /* \"#utility.yul\":841:958   */\n    tag_199:\n        /* \"#utility.yul\":950:951   */\n      0x00\n        /* \"#utility.yul\":947:948   */\n      dup1\n        /* \"#utility.yul\":940:952   */\n      revert\n        /* \"#utility.yul\":964:1081   */\n    tag_200:\n        /* \"#utility.yul\":1073:1074   */\n      0x00\n        /* \"#utility.yul\":1070:1071   */\n      dup1\n        /* \"#utility.yul\":1063:1075   */\n      revert\n        /* \"#utility.yul\":1087:1189   */\n    tag_201:\n        /* \"#utility.yul\":1128:1134   */\n      0x00\n        /* \"#utility.yul\":1179:1181   */\n      0x1f\n        /* \"#utility.yul\":1175:1182   */\n      not\n        /* \"#utility.yul\":1170:1172   */\n      0x1f\n        /* \"#utility.yul\":1163:1168   */\n      dup4\n        /* \"#utility.yul\":1159:1173   */\n      add\n        /* \"#utility.yul\":1155:1183   */\n      and\n        /* \"#utility.yul\":1145:1183   */\n      swap1\n      pop\n        /* \"#utility.yul\":1087:1189   */\n      swap2\n      swap1\n      pop\n      jump\t// out\n        /* \"#utility.yul\":1195:1375   */\n    tag_202:\n        /* \"#utility.yul\":1243:1320   */\n      0x4e487b7100000000000000000000000000000000000000000000000000000000\n        /* \"#utility.yul\":1240:1241   */\n      0x00\n        /* \"#utility.yul\":1233:1321   */\n      mstore\n        /* \"#utility.yul\":1340:1344   */\n      0x41\n        /* \"#utility.yul\":1337:1338   */\n      0x04\n        /* \"#utility.yul\":1330:1345   */\n      mstore\n        /* \"#utility.yul\":1364:1368   */\n      0x24\n        /* \"#utility.yul\":1361:1362   */\n      0x00\n        /* \"#utility.yul\":1354:1369   */\n      revert\n        /* \"#utility.yul\":1381:1662   */\n    tag_203:\n        /* \"#utility.yul\":1464:1491   */\n      tag_282\n        /* \"#utility.yul\":1486:1490   */\n      dup3\n        /* \"#utility.yul\":1464:1491   */\n      tag_201\n      jump\t// in\n    tag_282:\n        /* \"#utility.yul\":1456:1462   */\n      dup2\n        /* \"#utility.yul\":1452:1492   */\n      add\n        /* \"#utility.yul\":1594:1600   */\n      dup2\n        /* \"#utility.yul\":1582:1592   */\n      dup2\n        /* \"#utility.yul\":1579:1601   */\n      lt\n        /* \"#utility.yul\":1558:1576   */\n      0xffffffffffffffff\n        /* \"#utility.yul\":1546:1556   */\n      dup3\n        /* \"#utility.yul\":1543:1577   */\n      gt\n        /* \"#utility.yul\":1540:1602   */\n      or\n        /* \"#utility.yul\":1537:1625   */\n      iszero\n      tag_283\n      jumpi\n        /* \"#utility.yul\":1605:1623   */\n      tag_284\n      tag_202\n      jump\t// in\n    tag_284:\n        /* \"#utility.yul\":1537:1625   */\n    tag_283:\n        /* \"#utility.yul\":1645:1655   */\n      dup1\n        /* \"#utility.yul\":1641:1643   */\n      0x40\n        /* \"#utility.yul\":1634:1656   */\n      mstore\n        /* \"#utility.yul\":1424:1662   */\n      pop\n        /* \"#utility.yul\":1381:1662   */\n      pop\n      pop\n      jump\t// out\n        /* \"#utility.yul\":1668:1797   */\n    tag_204:\n        /* \"#utility.yul\":1702:1708   */\n      0x00\n        /* \"#utility.yul\":1729:1749   */\n      tag_286\n      tag_192\n      jump\t// in\n    tag_286:\n        /* \"#utility.yul\":1719:1749   */\n      swap1\n      pop\n        /* \"#utility.yul\":1758:1791   */\n      tag_287\n        /* \"#utility.yul\":1786:1790   */\n      dup3\n        /* \"#utility.yul\":1778:1784   */\n      dup3\n        /* \"#utility.yul\":1758:1791   */\n      tag_203\n      jump\t// in\n    tag_287:\n        /* \"#utility.yul\":1668:1797   */\n      swap2\n      swap1\n      pop\n      jump\t// out\n        /* \"#utility.yul\":1803:2111   */\n    tag_205:\n        /* \"#utility.yul\":1865:1869   */\n      0x00\n        /* \"#utility.yul\":1955:1973   */\n      0xffffffffffffffff\n        /* \"#utility.yul\":1947:1953   */\n      dup3\n        /* \"#utility.yul\":1944:1974   */\n      gt\n        /* \"#utility.yul\":1941:1997   */\n      iszero\n      tag_289\n      jumpi\n        /* \"#utility.yul\":1977:1995   */\n      tag_290\n      tag_202\n      jump\t// in\n    tag_290:\n        /* \"#utility.yul\":1941:1997   */\n    tag_289:\n        /* \"#utility.yul\":2015:2044   */\n      tag_291\n        /* \"#utility.yul\":2037:2043   */\n      dup3\n        /* \"#utility.yul\":2015:2044   */\n      tag_201\n      jump\t// in\n    tag_291:\n        /* \"#utility.yul\":2007:2044   */\n      swap1\n      pop\n        /* \"#utility.yul\":2099:2103   */\n      0x20\n        /* \"#utility.yul\":2093:2097   */\n      dup2\n        /* \"#utility.yul\":2089:2104   */\n      add\n        /* \"#utility.yul\":2081:2104   */\n      swap1\n      pop\n        /* \"#utility.yul\":1803:2111   */\n      swap2\n      swap1\n      pop\n      jump\t// out\n        /* \"#utility.yul\":2117:2263   */\n    tag_206:\n        /* \"#utility.yul\":2214:2220   */\n      dup3\n        /* \"#utility.yul\":2209:2212   */\n      dup2\n        /* \"#utility.yul\":2204:2207   */\n      dup4\n        /* \"#utility.yul\":2191:2221   */\n      calldatacopy\n        /* \"#utility.yul\":2255:2256   */\n      0x00\n        /* \"#utility.yul\":2246:2252   */\n      dup4\n        /* \"#utility.yul\":2241:2244   */\n      dup4\n        /* \"#utility.yul\":2237:2253   */\n      add\n        /* \"#utility.yul\":2230:2257   */\n      mstore\n        /* \"#utility.yul\":2117:2263   */\n      pop\n      pop\n      pop\n      jump\t// out\n        /* \"#utility.yul\":2269:2694   */\n    tag_207:\n        /* \"#utility.yul\":2347:2352   */\n      0x00\n        /* \"#utility.yul\":2372:2438   */\n      tag_294\n        /* \"#utility.yul\":2388:2437   */\n      tag_295\n        /* \"#utility.yul\":2430:2436   */\n      dup5\n        /* \"#utility.yul\":2388:2437   */\n      tag_205\n      jump\t// in\n    tag_295:\n        /* \"#utility.yul\":2372:2438   */\n      tag_204\n      jump\t// in\n    tag_294:\n        /* \"#utility.yul\":2363:2438   */\n      swap1\n      pop\n        /* \"#utility.yul\":2461:2467   */\n      dup3\n        /* \"#utility.yul\":2454:2459   */\n      dup2\n        /* \"#utility.yul\":2447:2468   */\n      mstore\n        /* \"#utility.yul\":2499:2503   */\n      0x20\n        /* \"#utility.yul\":2492:2497   */\n      dup2\n        /* \"#utility.yul\":2488:2504   */\n      add\n        /* \"#utility.yul\":2537:2540   */\n      dup5\n        /* \"#utility.yul\":2528:2534   */\n      dup5\n        /* \"#utility.yul\":2523:2526   */\n      dup5\n        /* \"#utility.yul\":2519:2535   */\n      add\n        /* \"#utility.yul\":2516:2541   */\n      gt\n        /* \"#utility.yul\":2513:2625   */\n      iszero\n      tag_296\n      jumpi\n        /* \"#utility.yul\":2544:2623   */\n      tag_297\n      tag_200\n      jump\t// in\n    tag_297:\n        /* \"#utility.yul\":2513:2625   */\n    tag_296:\n        /* \"#utility.yul\":2634:2688   */\n      tag_298\n        /* \"#utility.yul\":2681:2687   */\n      dup5\n        /* \"#utility.yul\":2676:2679   */\n      dup3\n        /* \"#utility.yul\":2671:2674   */\n      dup6\n        /* \"#utility.yul\":2634:2688   */\n      tag_206\n      jump\t// in\n    tag_298:\n        /* \"#utility.yul\":2353:2694   */\n      pop\n        /* \"#utility.yul\":2269:2694   */\n      swap4\n      swap3\n      pop\n      pop\n      pop\n      jump\t// out\n        /* \"#utility.yul\":2714:3054   */\n    tag_208:\n        /* \"#utility.yul\":2770:2775   */\n      0x00\n        /* \"#utility.yul\":2819:2822   */\n      dup3\n        /* \"#utility.yul\":2812:2816   */\n      0x1f\n        /* \"#utility.yul\":2804:2810   */\n      dup4\n        /* \"#utility.yul\":2800:2817   */\n      add\n        /* \"#utility.yul\":2796:2823   */\n      slt\n        /* \"#utility.yul\":2786:2908   */\n      tag_300\n      jumpi\n        /* \"#utility.yul\":2827:2906   */\n      tag_301\n      tag_199\n      jump\t// in\n    tag_301:\n        /* \"#utility.yul\":2786:2908   */\n    tag_300:\n        /* \"#utility.yul\":2944:2950   */\n      dup2\n        /* \"#utility.yul\":2931:2951   */\n      calldataload\n        /* \"#utility.yul\":2969:3048   */\n      tag_302\n        /* \"#utility.yul\":3044:3047   */\n      dup5\n        /* \"#utility.yul\":3036:3042   */\n      dup3\n        /* \"#utility.yul\":3029:3033   */\n      0x20\n        /* \"#utility.yul\":3021:3027   */\n      dup7\n        /* \"#utility.yul\":3017:3034   */\n      add\n        /* \"#utility.yul\":2969:3048   */\n      tag_207\n      jump\t// in\n    tag_302:\n        /* \"#utility.yul\":2960:3048   */\n      swap2\n      pop\n        /* \"#utility.yul\":2776:3054   */\n      pop\n        /* \"#utility.yul\":2714:3054   */\n      swap3\n      swap2\n      pop\n      pop\n      jump\t// out\n        /* \"#utility.yul\":3060:4039   */\n    tag_16:\n        /* \"#utility.yul\":3157:3163   */\n      0x00\n        /* \"#utility.yul\":3165:3171   */\n      dup1\n        /* \"#utility.yul\":3173:3179   */\n      0x00\n        /* \"#utility.yul\":3222:3224   */\n      0x60\n        /* \"#utility.yul\":3210:3219   */\n      dup5\n        /* \"#utility.yul\":3201:3208   */\n      dup7\n        /* \"#utility.yul\":3197:3220   */\n      sub\n        /* \"#utility.yul\":3193:3225   */\n      slt\n        /* \"#utility.yul\":3190:3309   */\n      iszero\n      tag_304\n      jumpi\n        /* \"#utility.yul\":3228:3307   */\n      tag_305\n      tag_193\n      jump\t// in\n    tag_305:\n        /* \"#utility.yul\":3190:3309   */\n    tag_304:\n        /* \"#utility.yul\":3348:3349   */\n      0x00\n        /* \"#utility.yul\":3373:3426   */\n      tag_306\n        /* \"#utility.yul\":3418:3425   */\n      dup7\n        /* \"#utility.yul\":3409:3415   */\n      dup3\n        /* \"#utility.yul\":3398:3407   */\n      dup8\n        /* \"#utility.yul\":3394:3416   */\n      add\n        /* \"#utility.yul\":3373:3426   */\n      tag_198\n      jump\t// in\n    tag_306:\n        /* \"#utility.yul\":3363:3426   */\n      swap4\n      pop\n        /* \"#utility.yul\":3319:3436   */\n      pop\n        /* \"#utility.yul\":3503:3505   */\n      0x20\n        /* \"#utility.yul\":3492:3501   */\n      dup5\n        /* \"#utility.yul\":3488:3506   */\n      add\n        /* \"#utility.yul\":3475:3507   */\n      calldataload\n        /* \"#utility.yul\":3534:3552   */\n      0xffffffffffffffff\n        /* \"#utility.yul\":3526:3532   */\n      dup2\n        /* \"#utility.yul\":3523:3553   */\n      gt\n        /* \"#utility.yul\":3520:3637   */\n      iszero\n      tag_307\n      jumpi\n        /* \"#utility.yul\":3556:3635   */\n      tag_308\n      tag_194\n      jump\t// in\n    tag_308:\n        /* \"#utility.yul\":3520:3637   */\n    tag_307:\n        /* \"#utility.yul\":3661:3724   */\n      tag_309\n        /* \"#utility.yul\":3716:3723   */\n      dup7\n        /* \"#utility.yul\":3707:3713   */\n      dup3\n        /* \"#utility.yul\":3696:3705   */\n      dup8\n        /* \"#utility.yul\":3692:3714   */\n      add\n        /* \"#utility.yul\":3661:3724   */\n      tag_208\n      jump\t// in\n    tag_309:\n        /* \"#utility.yul\":3651:3724   */\n      swap3\n      pop\n        /* \"#utility.yul\":3446:3734   */\n      pop\n        /* \"#utility.yul\":3801:3803   */\n      0x40\n        /* \"#utility.yul\":3790:3799   */\n      dup5\n        /* \"#utility.yul\":3786:3804   */\n      add\n        /* \"#utility.yul\":3773:3805   */\n      calldataload\n        /* \"#utility.yul\":3832:3850   */\n      0xffffffffffffffff\n        /* \"#utility.yul\":3824:3830   */\n      dup2\n        /* \"#utility.yul\":3821:3851   */\n      gt\n        /* \"#utility.yul\":3818:3935   */\n      iszero\n      tag_310\n      jumpi\n        /* \"#utility.yul\":3854:3933   */\n      tag_311\n      tag_194\n      jump\t// in\n    tag_311:\n        /* \"#utility.yul\":3818:3935   */\n    tag_310:\n        /* \"#utility.yul\":3959:4022   */\n      tag_312\n        /* \"#utility.yul\":4014:4021   */\n      dup7\n        /* \"#utility.yul\":4005:4011   */\n      dup3\n        /* \"#utility.yul\":3994:4003   */\n      dup8\n        /* \"#utility.yul\":3990:4012   */\n      add\n        /* \"#utility.yul\":3959:4022   */\n      tag_208\n      jump\t// in\n    tag_312:\n        /* \"#utility.yul\":3949:4022   */\n      swap2\n      pop\n        /* \"#utility.yul\":3744:4032   */\n      pop\n        /* \"#utility.yul\":3060:4039   */\n      swap3\n      pop\n      swap3\n      pop\n      swap3\n      jump\t// out\n        /* \"#utility.yul\":4045:4135   */\n    tag_209:\n        /* \"#utility.yul\":4079:4086   */\n      0x00\n        /* \"#utility.yul\":4122:4127   */\n      dup2\n        /* \"#utility.yul\":4115:4128   */\n      iszero\n        /* \"#utility.yul\":4108:4129   */\n      iszero\n        /* \"#utility.yul\":4097:4129   */\n      swap1\n      pop\n        /* \"#utility.yul\":4045:4135   */\n      swap2\n      swap1\n      pop\n      jump\t// out\n        /* \"#utility.yul\":4141:4250   */\n    tag_210:\n        /* \"#utility.yul\":4222:4243   */\n      tag_315\n        /* \"#utility.yul\":4237:4242   */\n      dup2\n        /* \"#utility.yul\":4222:4243   */\n      tag_209\n      jump\t// in\n    tag_315:\n        /* \"#utility.yul\":4217:4220   */\n      dup3\n        /* \"#utility.yul\":4210:4244   */\n      mstore\n        /* \"#utility.yul\":4141:4250   */\n      pop\n      pop\n      jump\t// out\n        /* \"#utility.yul\":4256:4466   */\n    tag_19:\n        /* \"#utility.yul\":4343:4347   */\n      0x00\n        /* \"#utility.yul\":4381:4383   */\n      0x20\n        /* \"#utility.yul\":4370:4379   */\n      dup3\n        /* \"#utility.yul\":4366:4384   */\n      add\n        /* \"#utility.yul\":4358:4384   */\n      swap1\n      pop\n        /* \"#utility.yul\":4394:4459   */\n      tag_317\n        /* \"#utility.yul\":4456:4457   */\n      0x00\n        /* \"#utility.yul\":4445:4454   */\n      dup4\n        /* \"#utility.yul\":4441:4458   */\n      add\n        /* \"#utility.yul\":4432:4438   */\n      dup5\n        /* \"#utility.yul\":4394:4459   */\n      tag_210\n      jump\t// in\n    tag_317:\n        /* \"#utility.yul\":4256:4466   */\n      swap3\n      swap2\n      pop\n      pop\n      jump\t// out\n        /* \"#utility.yul\":4472:4549   */\n    tag_211:\n        /* \"#utility.yul\":4509:4516   */\n      0x00\n        /* \"#utility.yul\":4538:4543   */\n      dup2\n        /* \"#utility.yul\":4527:4543   */\n      swap1\n      pop\n        /* \"#utility.yul\":4472:4549   */\n      swap2\n      swap1\n      pop\n      jump\t// out\n        /* \"#utility.yul\":4555:4677   */\n    tag_212:\n        /* \"#utility.yul\":4628:4652   */\n      tag_320\n        /* \"#utility.yul\":4646:4651   */\n      dup2\n        /* \"#utility.yul\":4628:4652   */\n      tag_211\n      jump\t// in\n    tag_320:\n        /* \"#utility.yul\":4621:4626   */\n      dup2\n        /* \"#utility.yul\":4618:4653   */\n      eq\n        /* \"#utility.yul\":4608:4671   */\n      tag_321\n      jumpi\n        /* \"#utility.yul\":4667:4668   */\n      0x00\n        /* \"#utility.yul\":4664:4665   */\n      dup1\n        /* \"#utility.yul\":4657:4669   */\n      revert\n        /* \"#utility.yul\":4608:4671   */\n    tag_321:\n        /* \"#utility.yul\":4555:4677   */\n      pop\n      jump\t// out\n        /* \"#utility.yul\":4683:4822   */\n    tag_213:\n        /* \"#utility.yul\":4729:4734   */\n      0x00\n        /* \"#utility.yul\":4767:4773   */\n      dup2\n        /* \"#utility.yul\":4754:4774   */\n      calldataload\n        /* \"#utility.yul\":4745:4774   */\n      swap1\n      pop\n        /* \"#utility.yul\":4783:4816   */\n      tag_323\n        /* \"#utility.yul\":4810:4815   */\n      dup2\n        /* \"#utility.yul\":4783:4816   */\n      tag_212\n      jump\t// in\n    tag_323:\n        /* \"#utility.yul\":4683:4822   */\n      swap3\n      swap2\n      pop\n      pop\n      jump\t// out\n        /* \"#utility.yul\":4828:5302   */\n    tag_22:\n        /* \"#utility.yul\":4896:4902   */\n      0x00\n        /* \"#utility.yul\":4904:4910   */\n      dup1\n        /* \"#utility.yul\":4953:4955   */\n      0x40\n        /* \"#utility.yul\":4941:4950   */\n      dup4\n        /* \"#utility.yul\":4932:4939   */\n      dup6\n        /* \"#utility.yul\":4928:4951   */\n      sub\n        /* \"#utility.yul\":4924:4956   */\n      slt\n        /* \"#utility.yul\":4921:5040   */\n      iszero\n      tag_325\n      jumpi\n        /* \"#utility.yul\":4959:5038   */\n      tag_326\n      tag_193\n      jump\t// in\n    tag_326:\n        /* \"#utility.yul\":4921:5040   */\n    tag_325:\n        /* \"#utility.yul\":5079:5080   */\n      0x00\n        /* \"#utility.yul\":5104:5157   */\n      tag_327\n        /* \"#utility.yul\":5149:5156   */\n      dup6\n        /* \"#utility.yul\":5140:5146   */\n      dup3\n        /* \"#utility.yul\":5129:5138   */\n      dup7\n        /* \"#utility.yul\":5125:5147   */\n      add\n        /* \"#utility.yul\":5104:5157   */\n      tag_198\n      jump\t// in\n    tag_327:\n        /* \"#utility.yul\":5094:5157   */\n      swap3\n      pop\n        /* \"#utility.yul\":5050:5167   */\n      pop\n        /* \"#utility.yul\":5206:5208   */\n      0x20\n        /* \"#utility.yul\":5232:5285   */\n      tag_328\n        /* \"#utility.yul\":5277:5284   */\n      dup6\n        /* \"#utility.yul\":5268:5274   */\n      dup3\n        /* \"#utility.yul\":5257:5266   */\n      dup7\n        /* \"#utility.yul\":5253:5275   */\n      add\n        /* \"#utility.yul\":5232:5285   */\n      tag_213\n      jump\t// in\n    tag_328:\n        /* \"#utility.yul\":5222:5285   */\n      swap2\n      pop\n        /* \"#utility.yul\":5177:5295   */\n      pop\n        /* \"#utility.yul\":4828:5302   */\n      swap3\n      pop\n      swap3\n      swap1\n      pop\n      jump\t// out\n        /* \"#utility.yul\":5308:5426   */\n    tag_214:\n        /* \"#utility.yul\":5395:5419   */\n      tag_330\n        /* \"#utility.yul\":5413:5418   */\n      dup2\n        /* \"#utility.yul\":5395:5419   */\n      tag_211\n      jump\t// in\n    tag_330:\n        /* \"#utility.yul\":5390:5393   */\n      dup3\n        /* \"#utility.yul\":5383:5420   */\n      mstore\n        /* \"#utility.yul\":5308:5426   */\n      pop\n      pop\n      jump\t// out\n        /* \"#utility.yul\":5432:5654   */\n    tag_25:\n        /* \"#utility.yul\":5525:5529   */\n      0x00\n        /* \"#utility.yul\":5563:5565   */\n      0x20\n        /* \"#utility.yul\":5552:5561   */\n      dup3\n        /* \"#utility.yul\":5548:5566   */\n      add\n        /* \"#utility.yul\":5540:5566   */\n      swap1\n      pop\n        /* \"#utility.yul\":5576:5647   */\n      tag_332\n        /* \"#utility.yul\":5644:5645   */\n      0x00\n        /* \"#utility.yul\":5633:5642   */\n      dup4\n        /* \"#utility.yul\":5629:5646   */\n      add\n        /* \"#utility.yul\":5620:5626   */\n      dup5\n        /* \"#utility.yul\":5576:5647   */\n      tag_214\n      jump\t// in\n    tag_332:\n        /* \"#utility.yul\":5432:5654   */\n      swap3\n      swap2\n      pop\n      pop\n      jump\t// out\n        /* \"#utility.yul\":5660:5989   */\n    tag_28:\n        /* \"#utility.yul\":5719:5725   */\n      0x00\n        /* \"#utility.yul\":5768:5770   */\n      0x20\n        /* \"#utility.yul\":5756:5765   */\n      dup3\n        /* \"#utility.yul\":5747:5754   */\n      dup5\n        /* \"#utility.yul\":5743:5766   */\n      sub\n        /* \"#utility.yul\":5739:5771   */\n      slt\n        /* \"#utility.yul\":5736:5855   */\n      iszero\n      tag_334\n      jumpi\n        /* \"#utility.yul\":5774:5853   */\n      tag_335\n      tag_193\n      jump\t// in\n    tag_335:\n        /* \"#utility.yul\":5736:5855   */\n    tag_334:\n        /* \"#utility.yul\":5894:5895   */\n      0x00\n        /* \"#utility.yul\":5919:5972   */\n      tag_336\n        /* \"#utility.yul\":5964:5971   */\n      dup5\n        /* \"#utility.yul\":5955:5961   */\n      dup3\n        /* \"#utility.yul\":5944:5953   */\n      dup6\n        /* \"#utility.yul\":5940:5962   */\n      add\n        /* \"#utility.yul\":5919:5972   */\n      tag_198\n      jump\t// in\n    tag_336:\n        /* \"#utility.yul\":5909:5972   */\n      swap2\n      pop\n        /* \"#utility.yul\":5865:5982   */\n      pop\n        /* \"#utility.yul\":5660:5989   */\n      swap3\n      swap2\n      pop\n      pop\n      jump\t// out\n        /* \"#utility.yul\":5995:6094   */\n    tag_215:\n        /* \"#utility.yul\":6047:6053   */\n      0x00\n        /* \"#utility.yul\":6081:6086   */\n      dup2\n        /* \"#utility.yul\":6075:6087   */\n      mload\n        /* \"#utility.yul\":6065:6087   */\n      swap1\n      pop\n        /* \"#utility.yul\":5995:6094   */\n      swap2\n      swap1\n      pop\n      jump\t// out\n        /* \"#utility.yul\":6100:6269   */\n    tag_216:\n        /* \"#utility.yul\":6184:6195   */\n      0x00\n        /* \"#utility.yul\":6218:6224   */\n      dup3\n        /* \"#utility.yul\":6213:6216   */\n      dup3\n        /* \"#utility.yul\":6206:6225   */\n      mstore\n        /* \"#utility.yul\":6258:6262   */\n      0x20\n        /* \"#utility.yul\":6253:6256   */\n      dup3\n        /* \"#utility.yul\":6249:6263   */\n      add\n        /* \"#utility.yul\":6234:6263   */\n      swap1\n      pop\n        /* \"#utility.yul\":6100:6269   */\n      swap3\n      swap2\n      pop\n      pop\n      jump\t// out\n        /* \"#utility.yul\":6275:6521   */\n    tag_217:\n        /* \"#utility.yul\":6356:6357   */\n      0x00\n        /* \"#utility.yul\":6366:6479   */\n    tag_340:\n        /* \"#utility.yul\":6380:6386   */\n      dup4\n        /* \"#utility.yul\":6377:6378   */\n      dup2\n        /* \"#utility.yul\":6374:6387   */\n      lt\n        /* \"#utility.yul\":6366:6479   */\n      iszero\n      tag_342\n      jumpi\n        /* \"#utility.yul\":6465:6466   */\n      dup1\n        /* \"#utility.yul\":6460:6463   */\n      dup3\n        /* \"#utility.yul\":6456:6467   */\n      add\n        /* \"#utility.yul\":6450:6468   */\n      mload\n        /* \"#utility.yul\":6446:6447   */\n      dup2\n        /* \"#utility.yul\":6441:6444   */\n      dup5\n        /* \"#utility.yul\":6437:6448   */\n      add\n        /* \"#utility.yul\":6430:6469   */\n      mstore\n        /* \"#utility.yul\":6402:6404   */\n      0x20\n        /* \"#utility.yul\":6399:6400   */\n      dup2\n        /* \"#utility.yul\":6395:6405   */\n      add\n        /* \"#utility.yul\":6390:6405   */\n      swap1\n      pop\n        /* \"#utility.yul\":6366:6479   */\n      jump(tag_340)\n    tag_342:\n        /* \"#utility.yul\":6513:6514   */\n      0x00\n        /* \"#utility.yul\":6504:6510   */\n      dup5\n        /* \"#utility.yul\":6499:6502   */\n      dup5\n        /* \"#utility.yul\":6495:6511   */\n      add\n        /* \"#utility.yul\":6488:6515   */\n      mstore\n        /* \"#utility.yul\":6337:6521   */\n      pop\n        /* \"#utility.yul\":6275:6521   */\n      pop\n      pop\n      pop\n      jump\t// out\n        /* \"#utility.yul\":6527:6904   */\n    tag_218:\n        /* \"#utility.yul\":6615:6618   */\n      0x00\n        /* \"#utility.yul\":6643:6682   */\n      tag_344\n        /* \"#utility.yul\":6676:6681   */\n      dup3\n        /* \"#utility.yul\":6643:6682   */\n      tag_215\n      jump\t// in\n    tag_344:\n        /* \"#utility.yul\":6698:6769   */\n      tag_345\n        /* \"#utility.yul\":6762:6768   */\n      dup2\n        /* \"#utility.yul\":6757:6760   */\n      dup6\n        /* \"#utility.yul\":6698:6769   */\n      tag_216\n      jump\t// in\n    tag_345:\n        /* \"#utility.yul\":6691:6769   */\n      swap4\n      pop\n        /* \"#utility.yul\":6778:6843   */\n      tag_346\n        /* \"#utility.yul\":6836:6842   */\n      dup2\n        /* \"#utility.yul\":6831:6834   */\n      dup6\n        /* \"#utility.yul\":6824:6828   */\n      0x20\n        /* \"#utility.yul\":6817:6822   */\n      dup7\n        /* \"#utility.yul\":6813:6829   */\n      add\n        /* \"#utility.yul\":6778:6843   */\n      tag_217\n      jump\t// in\n    tag_346:\n        /* \"#utility.yul\":6868:6897   */\n      tag_347\n        /* \"#utility.yul\":6890:6896   */\n      dup2\n        /* \"#utility.yul\":6868:6897   */\n      tag_201\n      jump\t// in\n    tag_347:\n        /* \"#utility.yul\":6863:6866   */\n      dup5\n        /* \"#utility.yul\":6859:6898   */\n      add\n        /* \"#utility.yul\":6852:6898   */\n      swap2\n      pop\n        /* \"#utility.yul\":6619:6904   */\n      pop\n        /* \"#utility.yul\":6527:6904   */\n      swap3\n      swap2\n      pop\n      pop\n      jump\t// out\n        /* \"#utility.yul\":6910:7223   */\n    tag_35:\n        /* \"#utility.yul\":7023:7027   */\n      0x00\n        /* \"#utility.yul\":7061:7063   */\n      0x20\n        /* \"#utility.yul\":7050:7059   */\n      dup3\n        /* \"#utility.yul\":7046:7064   */\n      add\n        /* \"#utility.yul\":7038:7064   */\n      swap1\n      pop\n        /* \"#utility.yul\":7110:7119   */\n      dup2\n        /* \"#utility.yul\":7104:7108   */\n      dup2\n        /* \"#utility.yul\":7100:7120   */\n      sub\n        /* \"#utility.yul\":7096:7097   */\n      0x00\n        /* \"#utility.yul\":7085:7094   */\n      dup4\n        /* \"#utility.yul\":7081:7098   */\n      add\n        /* \"#utility.yul\":7074:7121   */\n      mstore\n        /* \"#utility.yul\":7138:7216   */\n      tag_349\n        /* \"#utility.yul\":7211:7215   */\n      dup2\n        /* \"#utility.yul\":7202:7208   */\n      dup5\n        /* \"#utility.yul\":7138:7216   */\n      tag_218\n      jump\t// in\n    tag_349:\n        /* \"#utility.yul\":7130:7216   */\n      swap1\n      pop\n        /* \"#utility.yul\":6910:7223   */\n      swap3\n      swap2\n      pop\n      pop\n      jump\t// out\n        /* \"#utility.yul\":7229:8166   */\n    tag_40:\n        /* \"#utility.yul\":7494:7498   */\n      0x00\n        /* \"#utility.yul\":7532:7535   */\n      0xa0\n        /* \"#utility.yul\":7521:7530   */\n      dup3\n        /* \"#utility.yul\":7517:7536   */\n      add\n        /* \"#utility.yul\":7509:7536   */\n      swap1\n      pop\n        /* \"#utility.yul\":7546:7617   */\n      tag_351\n        /* \"#utility.yul\":7614:7615   */\n      0x00\n        /* \"#utility.yul\":7603:7612   */\n      dup4\n        /* \"#utility.yul\":7599:7616   */\n      add\n        /* \"#utility.yul\":7590:7596   */\n      dup9\n        /* \"#utility.yul\":7546:7617   */\n      tag_214\n      jump\t// in\n    tag_351:\n        /* \"#utility.yul\":7664:7673   */\n      dup2\n        /* \"#utility.yul\":7658:7662   */\n      dup2\n        /* \"#utility.yul\":7654:7674   */\n      sub\n        /* \"#utility.yul\":7649:7651   */\n      0x20\n        /* \"#utility.yul\":7638:7647   */\n      dup4\n        /* \"#utility.yul\":7634:7652   */\n      add\n        /* \"#utility.yul\":7627:7675   */\n      mstore\n        /* \"#utility.yul\":7692:7770   */\n      tag_352\n        /* \"#utility.yul\":7765:7769   */\n      dup2\n        /* \"#utility.yul\":7756:7762   */\n      dup8\n        /* \"#utility.yul\":7692:7770   */\n      tag_218\n      jump\t// in\n    tag_352:\n        /* \"#utility.yul\":7684:7770   */\n      swap1\n      pop\n        /* \"#utility.yul\":7817:7826   */\n      dup2\n        /* \"#utility.yul\":7811:7815   */\n      dup2\n        /* \"#utility.yul\":7807:7827   */\n      sub\n        /* \"#utility.yul\":7802:7804   */\n      0x40\n        /* \"#utility.yul\":7791:7800   */\n      dup4\n        /* \"#utility.yul\":7787:7805   */\n      add\n        /* \"#utility.yul\":7780:7828   */\n      mstore\n        /* \"#utility.yul\":7845:7923   */\n      tag_353\n        /* \"#utility.yul\":7918:7922   */\n      dup2\n        /* \"#utility.yul\":7909:7915   */\n      dup7\n        /* \"#utility.yul\":7845:7923   */\n      tag_218\n      jump\t// in\n    tag_353:\n        /* \"#utility.yul\":7837:7923   */\n      swap1\n      pop\n        /* \"#utility.yul\":7970:7979   */\n      dup2\n        /* \"#utility.yul\":7964:7968   */\n      dup2\n        /* \"#utility.yul\":7960:7980   */\n      sub\n        /* \"#utility.yul\":7955:7957   */\n      0x60\n        /* \"#utility.yul\":7944:7953   */\n      dup4\n        /* \"#utility.yul\":7940:7958   */\n      add\n        /* \"#utility.yul\":7933:7981   */\n      mstore\n        /* \"#utility.yul\":7998:8076   */\n      tag_354\n        /* \"#utility.yul\":8071:8075   */\n      dup2\n        /* \"#utility.yul\":8062:8068   */\n      dup6\n        /* \"#utility.yul\":7998:8076   */\n      tag_218\n      jump\t// in\n    tag_354:\n        /* \"#utility.yul\":7990:8076   */\n      swap1\n      pop\n        /* \"#utility.yul\":8086:8159   */\n      tag_355\n        /* \"#utility.yul\":8154:8157   */\n      0x80\n        /* \"#utility.yul\":8143:8152   */\n      dup4\n        /* \"#utility.yul\":8139:8158   */\n      add\n        /* \"#utility.yul\":8130:8136   */\n      dup5\n        /* \"#utility.yul\":8086:8159   */\n      tag_214\n      jump\t// in\n    tag_355:\n        /* \"#utility.yul\":7229:8166   */\n      swap7\n      swap6\n      pop\n      pop\n      pop\n      pop\n      pop\n      pop\n      jump\t// out\n        /* \"#utility.yul\":8172:8791   */\n    tag_43:\n        /* \"#utility.yul\":8249:8255   */\n      0x00\n        /* \"#utility.yul\":8257:8263   */\n      dup1\n        /* \"#utility.yul\":8265:8271   */\n      0x00\n        /* \"#utility.yul\":8314:8316   */\n      0x60\n        /* \"#utility.yul\":8302:8311   */\n      dup5\n        /* \"#utility.yul\":8293:8300   */\n      dup7\n        /* \"#utility.yul\":8289:8312   */\n      sub\n        /* \"#utility.yul\":8285:8317   */\n      slt\n        /* \"#utility.yul\":8282:8401   */\n      iszero\n      tag_357\n      jumpi\n        /* \"#utility.yul\":8320:8399   */\n      tag_358\n      tag_193\n      jump\t// in\n    tag_358:\n        /* \"#utility.yul\":8282:8401   */\n    tag_357:\n        /* \"#utility.yul\":8440:8441   */\n      0x00\n        /* \"#utility.yul\":8465:8518   */\n      tag_359\n        /* \"#utility.yul\":8510:8517   */\n      dup7\n        /* \"#utility.yul\":8501:8507   */\n      dup3\n        /* \"#utility.yul\":8490:8499   */\n      dup8\n        /* \"#utility.yul\":8486:8508   */\n      add\n        /* \"#utility.yul\":8465:8518   */\n      tag_198\n      jump\t// in\n    tag_359:\n        /* \"#utility.yul\":8455:8518   */\n      swap4\n      pop\n        /* \"#utility.yul\":8411:8528   */\n      pop\n        /* \"#utility.yul\":8567:8569   */\n      0x20\n        /* \"#utility.yul\":8593:8646   */\n      tag_360\n        /* \"#utility.yul\":8638:8645   */\n      dup7\n        /* \"#utility.yul\":8629:8635   */\n      dup3\n        /* \"#utility.yul\":8618:8627   */\n      dup8\n        /* \"#utility.yul\":8614:8636   */\n      add\n        /* \"#utility.yul\":8593:8646   */\n      tag_213\n      jump\t// in\n    tag_360:\n        /* \"#utility.yul\":8583:8646   */\n      swap3\n      pop\n        /* \"#utility.yul\":8538:8656   */\n      pop\n        /* \"#utility.yul\":8695:8697   */\n      0x40\n        /* \"#utility.yul\":8721:8774   */\n      tag_361\n        /* \"#utility.yul\":8766:8773   */\n      dup7\n        /* \"#utility.yul\":8757:8763   */\n      dup3\n        /* \"#utility.yul\":8746:8755   */\n      dup8\n        /* \"#utility.yul\":8742:8764   */\n      add\n        /* \"#utility.yul\":8721:8774   */\n      tag_213\n      jump\t// in\n    tag_361:\n        /* \"#utility.yul\":8711:8774   */\n      swap2\n      pop\n        /* \"#utility.yul\":8666:8784   */\n      pop\n        /* \"#utility.yul\":8172:8791   */\n      swap3\n      pop\n      swap3\n      pop\n      swap3\n      jump\t// out\n        /* \"#utility.yul\":8797:10102   */\n    tag_51:\n        /* \"#utility.yul\":8913:8919   */\n      0x00\n        /* \"#utility.yul\":8921:8927   */\n      dup1\n        /* \"#utility.yul\":8929:8935   */\n      0x00\n        /* \"#utility.yul\":8937:8943   */\n      dup1\n        /* \"#utility.yul\":8986:8989   */\n      0x80\n        /* \"#utility.yul\":8974:8983   */\n      dup6\n        /* \"#utility.yul\":8965:8972   */\n      dup8\n        /* \"#utility.yul\":8961:8984   */\n      sub\n        /* \"#utility.yul\":8957:8990   */\n      slt\n        /* \"#utility.yul\":8954:9074   */\n      iszero\n      tag_363\n      jumpi\n        /* \"#utility.yul\":8993:9072   */\n      tag_364\n      tag_193\n      jump\t// in\n    tag_364:\n        /* \"#utility.yul\":8954:9074   */\n    tag_363:\n        /* \"#utility.yul\":9141:9142   */\n      0x00\n        /* \"#utility.yul\":9130:9139   */\n      dup6\n        /* \"#utility.yul\":9126:9143   */\n      add\n        /* \"#utility.yul\":9113:9144   */\n      calldataload\n        /* \"#utility.yul\":9171:9189   */\n      0xffffffffffffffff\n        /* \"#utility.yul\":9163:9169   */\n      dup2\n        /* \"#utility.yul\":9160:9190   */\n      gt\n        /* \"#utility.yul\":9157:9274   */\n      iszero\n      tag_365\n      jumpi\n        /* \"#utility.yul\":9193:9272   */\n      tag_366\n      tag_194\n      jump\t// in\n    tag_366:\n        /* \"#utility.yul\":9157:9274   */\n    tag_365:\n        /* \"#utility.yul\":9298:9361   */\n      tag_367\n        /* \"#utility.yul\":9353:9360   */\n      dup8\n        /* \"#utility.yul\":9344:9350   */\n      dup3\n        /* \"#utility.yul\":9333:9342   */\n      dup9\n        /* \"#utility.yul\":9329:9351   */\n      add\n        /* \"#utility.yul\":9298:9361   */\n      tag_208\n      jump\t// in\n    tag_367:\n        /* \"#utility.yul\":9288:9361   */\n      swap5\n      pop\n        /* \"#utility.yul\":9084:9371   */\n      pop\n        /* \"#utility.yul\":9438:9440   */\n      0x20\n        /* \"#utility.yul\":9427:9436   */\n      dup6\n        /* \"#utility.yul\":9423:9441   */\n      add\n        /* \"#utility.yul\":9410:9442   */\n      calldataload\n        /* \"#utility.yul\":9469:9487   */\n      0xffffffffffffffff\n        /* \"#utility.yul\":9461:9467   */\n      dup2\n        /* \"#utility.yul\":9458:9488   */\n      gt\n        /* \"#utility.yul\":9455:9572   */\n      iszero\n      tag_368\n      jumpi\n        /* \"#utility.yul\":9491:9570   */\n      tag_369\n      tag_194\n      jump\t// in\n    tag_369:\n        /* \"#utility.yul\":9455:9572   */\n    tag_368:\n        /* \"#utility.yul\":9596:9659   */\n      tag_370\n        /* \"#utility.yul\":9651:9658   */\n      dup8\n        /* \"#utility.yul\":9642:9648   */\n      dup3\n        /* \"#utility.yul\":9631:9640   */\n      dup9\n        /* \"#utility.yul\":9627:9649   */\n      add\n        /* \"#utility.yul\":9596:9659   */\n      tag_208\n      jump\t// in\n    tag_370:\n        /* \"#utility.yul\":9586:9659   */\n      swap4\n      pop\n        /* \"#utility.yul\":9381:9669   */\n      pop\n        /* \"#utility.yul\":9736:9738   */\n      0x40\n        /* \"#utility.yul\":9725:9734   */\n      dup6\n        /* \"#utility.yul\":9721:9739   */\n      add\n        /* \"#utility.yul\":9708:9740   */\n      calldataload\n        /* \"#utility.yul\":9767:9785   */\n      0xffffffffffffffff\n        /* \"#utility.yul\":9759:9765   */\n      dup2\n        /* \"#utility.yul\":9756:9786   */\n      gt\n        /* \"#utility.yul\":9753:9870   */\n      iszero\n      tag_371\n      jumpi\n        /* \"#utility.yul\":9789:9868   */\n      tag_372\n      tag_194\n      jump\t// in\n    tag_372:\n        /* \"#utility.yul\":9753:9870   */\n    tag_371:\n        /* \"#utility.yul\":9894:9957   */\n      tag_373\n        /* \"#utility.yul\":9949:9956   */\n      dup8\n        /* \"#utility.yul\":9940:9946   */\n      dup3\n        /* \"#utility.yul\":9929:9938   */\n      dup9\n        /* \"#utility.yul\":9925:9947   */\n      add\n        /* \"#utility.yul\":9894:9957   */\n      tag_208\n      jump\t// in\n    tag_373:\n        /* \"#utility.yul\":9884:9957   */\n      swap3\n      pop\n        /* \"#utility.yul\":9679:9967   */\n      pop\n        /* \"#utility.yul\":10006:10008   */\n      0x60\n        /* \"#utility.yul\":10032:10085   */\n      tag_374\n        /* \"#utility.yul\":10077:10084   */\n      dup8\n        /* \"#utility.yul\":10068:10074   */\n      dup3\n        /* \"#utility.yul\":10057:10066   */\n      dup9\n        /* \"#utility.yul\":10053:10075   */\n      add\n        /* \"#utility.yul\":10032:10085   */\n      tag_198\n      jump\t// in\n    tag_374:\n        /* \"#utility.yul\":10022:10085   */\n      swap2\n      pop\n        /* \"#utility.yul\":9977:10095   */\n      pop\n        /* \"#utility.yul\":8797:10102   */\n      swap3\n      swap6\n      swap2\n      swap5\n      pop\n      swap3\n      pop\n      jump\t// out\n        /* \"#utility.yul\":10108:10256   */\n    tag_219:\n        /* \"#utility.yul\":10210:10221   */\n      0x00\n        /* \"#utility.yul\":10247:10250   */\n      dup2\n        /* \"#utility.yul\":10232:10250   */\n      swap1\n      pop\n        /* \"#utility.yul\":10108:10256   */\n      swap3\n      swap2\n      pop\n      pop\n      jump\t// out\n        /* \"#utility.yul\":10262:10652   */\n    tag_220:\n        /* \"#utility.yul\":10368:10371   */\n      0x00\n        /* \"#utility.yul\":10396:10435   */\n      tag_377\n        /* \"#utility.yul\":10429:10434   */\n      dup3\n        /* \"#utility.yul\":10396:10435   */\n      tag_215\n      jump\t// in\n    tag_377:\n        /* \"#utility.yul\":10451:10540   */\n      tag_378\n        /* \"#utility.yul\":10533:10539   */\n      dup2\n        /* \"#utility.yul\":10528:10531   */\n      dup6\n        /* \"#utility.yul\":10451:10540   */\n      tag_219\n      jump\t// in\n    tag_378:\n        /* \"#utility.yul\":10444:10540   */\n      swap4\n      pop\n        /* \"#utility.yul\":10549:10614   */\n      tag_379\n        /* \"#utility.yul\":10607:10613   */\n      dup2\n        /* \"#utility.yul\":10602:10605   */\n      dup6\n        /* \"#utility.yul\":10595:10599   */\n      0x20\n        /* \"#utility.yul\":10588:10593   */\n      dup7\n        /* \"#utility.yul\":10584:10600   */\n      add\n        /* \"#utility.yul\":10549:10614   */\n      tag_217\n      jump\t// in\n    tag_379:\n        /* \"#utility.yul\":10639:10645   */\n      dup1\n        /* \"#utility.yul\":10634:10637   */\n      dup5\n        /* \"#utility.yul\":10630:10646   */\n      add\n        /* \"#utility.yul\":10623:10646   */\n      swap2\n      pop\n        /* \"#utility.yul\":10372:10652   */\n      pop\n        /* \"#utility.yul\":10262:10652   */\n      swap3\n      swap2\n      pop\n      pop\n      jump\t// out\n        /* \"#utility.yul\":10658:11093   */\n    tag_63:\n        /* \"#utility.yul\":10838:10841   */\n      0x00\n        /* \"#utility.yul\":10860:10955   */\n      tag_381\n        /* \"#utility.yul\":10951:10954   */\n      dup3\n        /* \"#utility.yul\":10942:10948   */\n      dup6\n        /* \"#utility.yul\":10860:10955   */\n      tag_220\n      jump\t// in\n    tag_381:\n        /* \"#utility.yul\":10853:10955   */\n      swap2\n      pop\n        /* \"#utility.yul\":10972:11067   */\n      tag_382\n        /* \"#utility.yul\":11063:11066   */\n      dup3\n        /* \"#utility.yul\":11054:11060   */\n      dup5\n        /* \"#utility.yul\":10972:11067   */\n      tag_220\n      jump\t// in\n    tag_382:\n        /* \"#utility.yul\":10965:11067   */\n      swap2\n      pop\n        /* \"#utility.yul\":11084:11087   */\n      dup2\n        /* \"#utility.yul\":11077:11087   */\n      swap1\n      pop\n        /* \"#utility.yul\":10658:11093   */\n      swap4\n      swap3\n      pop\n      pop\n      pop\n      jump\t// out\n        /* \"#utility.yul\":11099:11279   */\n    tag_221:\n        /* \"#utility.yul\":11147:11224   */\n      0x4e487b7100000000000000000000000000000000000000000000000000000000\n        /* \"#utility.yul\":11144:11145   */\n      0x00\n        /* \"#utility.yul\":11137:11225   */\n      mstore\n        /* \"#utility.yul\":11244:11248   */\n      0x22\n        /* \"#utility.yul\":11241:11242   */\n      0x04\n        /* \"#utility.yul\":11234:11249   */\n      mstore\n        /* \"#utility.yul\":11268:11272   */\n      0x24\n        /* \"#utility.yul\":11265:11266   */\n      0x00\n        /* \"#utility.yul\":11258:11273   */\n      revert\n        /* \"#utility.yul\":11285:11605   */\n    tag_96:\n        /* \"#utility.yul\":11329:11335   */\n      0x00\n        /* \"#utility.yul\":11366:11367   */\n      0x02\n        /* \"#utility.yul\":11360:11364   */\n      dup3\n        /* \"#utility.yul\":11356:11368   */\n      div\n        /* \"#utility.yul\":11346:11368   */\n      swap1\n      pop\n        /* \"#utility.yul\":11413:11414   */\n      0x01\n        /* \"#utility.yul\":11407:11411   */\n      dup3\n        /* \"#utility.yul\":11403:11415   */\n      and\n        /* \"#utility.yul\":11434:11452   */\n      dup1\n        /* \"#utility.yul\":11424:11505   */\n      tag_385\n      jumpi\n        /* \"#utility.yul\":11490:11494   */\n      0x7f\n        /* \"#utility.yul\":11482:11488   */\n      dup3\n        /* \"#utility.yul\":11478:11495   */\n      and\n        /* \"#utility.yul\":11468:11495   */\n      swap2\n      pop\n        /* \"#utility.yul\":11424:11505   */\n    tag_385:\n        /* \"#utility.yul\":11552:11554   */\n      0x20\n        /* \"#utility.yul\":11544:11550   */\n      dup3\n        /* \"#utility.yul\":11541:11555   */\n      lt\n        /* \"#utility.yul\":11521:11539   */\n      dup2\n        /* \"#utility.yul\":11518:11556   */\n      sub\n        /* \"#utility.yul\":11515:11599   */\n      tag_386\n      jumpi\n        /* \"#utility.yul\":11571:11589   */\n      tag_387\n      tag_221\n      jump\t// in\n    tag_387:\n        /* \"#utility.yul\":11515:11599   */\n    tag_386:\n        /* \"#utility.yul\":11336:11605   */\n      pop\n        /* \"#utility.yul\":11285:11605   */\n      swap2\n      swap1\n      pop\n      jump\t// out\n        /* \"#utility.yul\":11611:11752   */\n    tag_222:\n        /* \"#utility.yul\":11660:11664   */\n      0x00\n        /* \"#utility.yul\":11683:11686   */\n      dup2\n        /* \"#utility.yul\":11675:11686   */\n      swap1\n      pop\n        /* \"#utility.yul\":11706:11709   */\n      dup2\n        /* \"#utility.yul\":11703:11704   */\n      0x00\n        /* \"#utility.yul\":11696:11710   */\n      mstore\n        /* \"#utility.yul\":11740:11744   */\n      0x20\n        /* \"#utility.yul\":11737:11738   */\n      0x00\n        /* \"#utility.yul\":11727:11745   */\n      keccak256\n        /* \"#utility.yul\":11719:11745   */\n      swap1\n      pop\n        /* \"#utility.yul\":11611:11752   */\n      swap2\n      swap1\n      pop\n      jump\t// out\n        /* \"#utility.yul\":11782:12656   */\n    tag_223:\n        /* \"#utility.yul\":11885:11888   */\n      0x00\n        /* \"#utility.yul\":11922:11927   */\n      dup2\n        /* \"#utility.yul\":11916:11928   */\n      sload\n        /* \"#utility.yul\":11951:11987   */\n      tag_390\n        /* \"#utility.yul\":11977:11986   */\n      dup2\n        /* \"#utility.yul\":11951:11987   */\n      tag_96\n      jump\t// in\n    tag_390:\n        /* \"#utility.yul\":12003:12092   */\n      tag_391\n        /* \"#utility.yul\":12085:12091   */\n      dup2\n        /* \"#utility.yul\":12080:12083   */\n      dup7\n        /* \"#utility.yul\":12003:12092   */\n      tag_219\n      jump\t// in\n    tag_391:\n        /* \"#utility.yul\":11996:12092   */\n      swap5\n      pop\n        /* \"#utility.yul\":12123:12124   */\n      0x01\n        /* \"#utility.yul\":12112:12121   */\n      dup3\n        /* \"#utility.yul\":12108:12125   */\n      and\n        /* \"#utility.yul\":12139:12140   */\n      0x00\n        /* \"#utility.yul\":12134:12300   */\n      dup2\n      eq\n      tag_393\n      jumpi\n        /* \"#utility.yul\":12314:12315   */\n      0x01\n        /* \"#utility.yul\":12309:12650   */\n      dup2\n      eq\n      tag_394\n      jumpi\n        /* \"#utility.yul\":12101:12650   */\n      jump(tag_392)\n        /* \"#utility.yul\":12134:12300   */\n    tag_393:\n        /* \"#utility.yul\":12218:12222   */\n      0xff\n        /* \"#utility.yul\":12214:12223   */\n      not\n        /* \"#utility.yul\":12203:12212   */\n      dup4\n        /* \"#utility.yul\":12199:12224   */\n      and\n        /* \"#utility.yul\":12194:12197   */\n      dup7\n        /* \"#utility.yul\":12187:12225   */\n      mstore\n        /* \"#utility.yul\":12280:12286   */\n      dup2\n        /* \"#utility.yul\":12273:12287   */\n      iszero\n        /* \"#utility.yul\":12266:12288   */\n      iszero\n        /* \"#utility.yul\":12258:12264   */\n      dup3\n        /* \"#utility.yul\":12254:12289   */\n      mul\n        /* \"#utility.yul\":12249:12252   */\n      dup7\n        /* \"#utility.yul\":12245:12290   */\n      add\n        /* \"#utility.yul\":12238:12290   */\n      swap4\n      pop\n        /* \"#utility.yul\":12134:12300   */\n      jump(tag_392)\n        /* \"#utility.yul\":12309:12650   */\n    tag_394:\n        /* \"#utility.yul\":12376:12414   */\n      tag_395\n        /* \"#utility.yul\":12408:12413   */\n      dup6\n        /* \"#utility.yul\":12376:12414   */\n      tag_222\n      jump\t// in\n    tag_395:\n        /* \"#utility.yul\":12436:12437   */\n      0x00\n        /* \"#utility.yul\":12450:12604   */\n    tag_396:\n        /* \"#utility.yul\":12464:12470   */\n      dup4\n        /* \"#utility.yul\":12461:12462   */\n      dup2\n        /* \"#utility.yul\":12458:12471   */\n      lt\n        /* \"#utility.yul\":12450:12604   */\n      iszero\n      tag_398\n      jumpi\n        /* \"#utility.yul\":12538:12545   */\n      dup2\n        /* \"#utility.yul\":12532:12546   */\n      sload\n        /* \"#utility.yul\":12528:12529   */\n      dup2\n        /* \"#utility.yul\":12523:12526   */\n      dup10\n        /* \"#utility.yul\":12519:12530   */\n      add\n        /* \"#utility.yul\":12512:12547   */\n      mstore\n        /* \"#utility.yul\":12588:12589   */\n      0x01\n        /* \"#utility.yul\":12579:12586   */\n      dup3\n        /* \"#utility.yul\":12575:12590   */\n      add\n        /* \"#utility.yul\":12564:12590   */\n      swap2\n      pop\n        /* \"#utility.yul\":12486:12490   */\n      0x20\n        /* \"#utility.yul\":12483:12484   */\n      dup2\n        /* \"#utility.yul\":12479:12491   */\n      add\n        /* \"#utility.yul\":12474:12491   */\n      swap1\n      pop\n        /* \"#utility.yul\":12450:12604   */\n      jump(tag_396)\n    tag_398:\n        /* \"#utility.yul\":12633:12639   */\n      dup4\n        /* \"#utility.yul\":12628:12631   */\n      dup9\n        /* \"#utility.yul\":12624:12640   */\n      add\n        /* \"#utility.yul\":12617:12640   */\n      swap6\n      pop\n        /* \"#utility.yul\":12316:12650   */\n      pop\n      pop\n        /* \"#utility.yul\":12101:12650   */\n    tag_392:\n      pop\n        /* \"#utility.yul\":11889:12656   */\n      pop\n      pop\n        /* \"#utility.yul\":11782:12656   */\n      swap3\n      swap2\n      pop\n      pop\n      jump\t// out\n        /* \"#utility.yul\":12662:13085   */\n    tag_65:\n        /* \"#utility.yul\":12836:12839   */\n      0x00\n        /* \"#utility.yul\":12858:12950   */\n      tag_400\n        /* \"#utility.yul\":12946:12949   */\n      dup3\n        /* \"#utility.yul\":12937:12943   */\n      dup6\n        /* \"#utility.yul\":12858:12950   */\n      tag_223\n      jump\t// in\n    tag_400:\n        /* \"#utility.yul\":12851:12950   */\n      swap2\n      pop\n        /* \"#utility.yul\":12967:13059   */\n      tag_401\n        /* \"#utility.yul\":13055:13058   */\n      dup3\n        /* \"#utility.yul\":13046:13052   */\n      dup5\n        /* \"#utility.yul\":12967:13059   */\n      tag_223\n      jump\t// in\n    tag_401:\n        /* \"#utility.yul\":12960:13059   */\n      swap2\n      pop\n        /* \"#utility.yul\":13076:13079   */\n      dup2\n        /* \"#utility.yul\":13069:13079   */\n      swap1\n      pop\n        /* \"#utility.yul\":12662:13085   */\n      swap4\n      swap3\n      pop\n      pop\n      pop\n      jump\t// out\n        /* \"#utility.yul\":13091:13209   */\n    tag_224:\n        /* \"#utility.yul\":13178:13202   */\n      tag_403\n        /* \"#utility.yul\":13196:13201   */\n      dup2\n        /* \"#utility.yul\":13178:13202   */\n      tag_196\n      jump\t// in\n    tag_403:\n        /* \"#utility.yul\":13173:13176   */\n      dup3\n        /* \"#utility.yul\":13166:13203   */\n      mstore\n        /* \"#utility.yul\":13091:13209   */\n      pop\n      pop\n      jump\t// out\n        /* \"#utility.yul\":13215:13437   */\n    tag_68:\n        /* \"#utility.yul\":13308:13312   */\n      0x00\n        /* \"#utility.yul\":13346:13348   */\n      0x20\n        /* \"#utility.yul\":13335:13344   */\n      dup3\n        /* \"#utility.yul\":13331:13349   */\n      add\n        /* \"#utility.yul\":13323:13349   */\n      swap1\n      pop\n        /* \"#utility.yul\":13359:13430   */\n      tag_405\n        /* \"#utility.yul\":13427:13428   */\n      0x00\n        /* \"#utility.yul\":13416:13425   */\n      dup4\n        /* \"#utility.yul\":13412:13429   */\n      add\n        /* \"#utility.yul\":13403:13409   */\n      dup5\n        /* \"#utility.yul\":13359:13430   */\n      tag_224\n      jump\t// in\n    tag_405:\n        /* \"#utility.yul\":13215:13437   */\n      swap3\n      swap2\n      pop\n      pop\n      jump\t// out\n        /* \"#utility.yul\":13443:13559   */\n    tag_225:\n        /* \"#utility.yul\":13513:13534   */\n      tag_407\n        /* \"#utility.yul\":13528:13533   */\n      dup2\n        /* \"#utility.yul\":13513:13534   */\n      tag_209\n      jump\t// in\n    tag_407:\n        /* \"#utility.yul\":13506:13511   */\n      dup2\n        /* \"#utility.yul\":13503:13535   */\n      eq\n        /* \"#utility.yul\":13493:13553   */\n      tag_408\n      jumpi\n        /* \"#utility.yul\":13549:13550   */\n      0x00\n        /* \"#utility.yul\":13546:13547   */\n      dup1\n        /* \"#utility.yul\":13539:13551   */\n      revert\n        /* \"#utility.yul\":13493:13553   */\n    tag_408:\n        /* \"#utility.yul\":13443:13559   */\n      pop\n      jump\t// out\n        /* \"#utility.yul\":13565:13702   */\n    tag_226:\n        /* \"#utility.yul\":13619:13624   */\n      0x00\n        /* \"#utility.yul\":13650:13656   */\n      dup2\n        /* \"#utility.yul\":13644:13657   */\n      mload\n        /* \"#utility.yul\":13635:13657   */\n      swap1\n      pop\n        /* \"#utility.yul\":13666:13696   */\n      tag_410\n        /* \"#utility.yul\":13690:13695   */\n      dup2\n        /* \"#utility.yul\":13666:13696   */\n      tag_225\n      jump\t// in\n    tag_410:\n        /* \"#utility.yul\":13565:13702   */\n      swap3\n      swap2\n      pop\n      pop\n      jump\t// out\n        /* \"#utility.yul\":13708:14053   */\n    tag_72:\n        /* \"#utility.yul\":13775:13781   */\n      0x00\n        /* \"#utility.yul\":13824:13826   */\n      0x20\n        /* \"#utility.yul\":13812:13821   */\n      dup3\n        /* \"#utility.yul\":13803:13810   */\n      dup5\n        /* \"#utility.yul\":13799:13822   */\n      sub\n        /* \"#utility.yul\":13795:13827   */\n      slt\n        /* \"#utility.yul\":13792:13911   */\n      iszero\n      tag_412\n      jumpi\n        /* \"#utility.yul\":13830:13909   */\n      tag_413\n      tag_193\n      jump\t// in\n    tag_413:\n        /* \"#utility.yul\":13792:13911   */\n    tag_412:\n        /* \"#utility.yul\":13950:13951   */\n      0x00\n        /* \"#utility.yul\":13975:14036   */\n      tag_414\n        /* \"#utility.yul\":14028:14035   */\n      dup5\n        /* \"#utility.yul\":14019:14025   */\n      dup3\n        /* \"#utility.yul\":14008:14017   */\n      dup6\n        /* \"#utility.yul\":14004:14026   */\n      add\n        /* \"#utility.yul\":13975:14036   */\n      tag_226\n      jump\t// in\n    tag_414:\n        /* \"#utility.yul\":13965:14036   */\n      swap2\n      pop\n        /* \"#utility.yul\":13921:14046   */\n      pop\n        /* \"#utility.yul\":13708:14053   */\n      swap3\n      swap2\n      pop\n      pop\n      jump\t// out\n        /* \"#utility.yul\":14059:14224   */\n    tag_227:\n        /* \"#utility.yul\":14199:14216   */\n      0x55736572204e6f7420466f756e64210000000000000000000000000000000000\n        /* \"#utility.yul\":14195:14196   */\n      0x00\n        /* \"#utility.yul\":14187:14193   */\n      dup3\n        /* \"#utility.yul\":14183:14197   */\n      add\n        /* \"#utility.yul\":14176:14217   */\n      mstore\n        /* \"#utility.yul\":14059:14224   */\n      pop\n      jump\t// out\n        /* \"#utility.yul\":14230:14596   */\n    tag_228:\n        /* \"#utility.yul\":14372:14375   */\n      0x00\n        /* \"#utility.yul\":14393:14460   */\n      tag_417\n        /* \"#utility.yul\":14457:14459   */\n      0x0f\n        /* \"#utility.yul\":14452:14455   */\n      dup4\n        /* \"#utility.yul\":14393:14460   */\n      tag_216\n      jump\t// in\n    tag_417:\n        /* \"#utility.yul\":14386:14460   */\n      swap2\n      pop\n        /* \"#utility.yul\":14469:14562   */\n      tag_418\n        /* \"#utility.yul\":14558:14561   */\n      dup3\n        /* \"#utility.yul\":14469:14562   */\n      tag_227\n      jump\t// in\n    tag_418:\n        /* \"#utility.yul\":14587:14589   */\n      0x20\n        /* \"#utility.yul\":14582:14585   */\n      dup3\n        /* \"#utility.yul\":14578:14590   */\n      add\n        /* \"#utility.yul\":14571:14590   */\n      swap1\n      pop\n        /* \"#utility.yul\":14230:14596   */\n      swap2\n      swap1\n      pop\n      jump\t// out\n        /* \"#utility.yul\":14602:15021   */\n    tag_75:\n        /* \"#utility.yul\":14768:14772   */\n      0x00\n        /* \"#utility.yul\":14806:14808   */\n      0x20\n        /* \"#utility.yul\":14795:14804   */\n      dup3\n        /* \"#utility.yul\":14791:14809   */\n      add\n        /* \"#utility.yul\":14783:14809   */\n      swap1\n      pop\n        /* \"#utility.yul\":14855:14864   */\n      dup2\n        /* \"#utility.yul\":14849:14853   */\n      dup2\n        /* \"#utility.yul\":14845:14865   */\n      sub\n        /* \"#utility.yul\":14841:14842   */\n      0x00\n        /* \"#utility.yul\":14830:14839   */\n      dup4\n        /* \"#utility.yul\":14826:14843   */\n      add\n        /* \"#utility.yul\":14819:14866   */\n      mstore\n        /* \"#utility.yul\":14883:15014   */\n      tag_420\n        /* \"#utility.yul\":15009:15013   */\n      dup2\n        /* \"#utility.yul\":14883:15014   */\n      tag_228\n      jump\t// in\n    tag_420:\n        /* \"#utility.yul\":14875:15014   */\n      swap1\n      pop\n        /* \"#utility.yul\":14602:15021   */\n      swap2\n      swap1\n      pop\n      jump\t// out\n        /* \"#utility.yul\":15027:15194   */\n    tag_229:\n        /* \"#utility.yul\":15167:15186   */\n      0x537472756374206e6f742056616c696421000000000000000000000000000000\n        /* \"#utility.yul\":15163:15164   */\n      0x00\n        /* \"#utility.yul\":15155:15161   */\n      dup3\n        /* \"#utility.yul\":15151:15165   */\n      add\n        /* \"#utility.yul\":15144:15187   */\n      mstore\n        /* \"#utility.yul\":15027:15194   */\n      pop\n      jump\t// out\n        /* \"#utility.yul\":15200:15566   */\n    tag_230:\n        /* \"#utility.yul\":15342:15345   */\n      0x00\n        /* \"#utility.yul\":15363:15430   */\n      tag_423\n        /* \"#utility.yul\":15427:15429   */\n      0x11\n        /* \"#utility.yul\":15422:15425   */\n      dup4\n        /* \"#utility.yul\":15363:15430   */\n      tag_216\n      jump\t// in\n    tag_423:\n        /* \"#utility.yul\":15356:15430   */\n      swap2\n      pop\n        /* \"#utility.yul\":15439:15532   */\n      tag_424\n        /* \"#utility.yul\":15528:15531   */\n      dup3\n        /* \"#utility.yul\":15439:15532   */\n      tag_229\n      jump\t// in\n    tag_424:\n        /* \"#utility.yul\":15557:15559   */\n      0x20\n        /* \"#utility.yul\":15552:15555   */\n      dup3\n        /* \"#utility.yul\":15548:15560   */\n      add\n        /* \"#utility.yul\":15541:15560   */\n      swap1\n      pop\n        /* \"#utility.yul\":15200:15566   */\n      swap2\n      swap1\n      pop\n      jump\t// out\n        /* \"#utility.yul\":15572:15991   */\n    tag_78:\n        /* \"#utility.yul\":15738:15742   */\n      0x00\n        /* \"#utility.yul\":15776:15778   */\n      0x20\n        /* \"#utility.yul\":15765:15774   */\n      dup3\n        /* \"#utility.yul\":15761:15779   */\n      add\n        /* \"#utility.yul\":15753:15779   */\n      swap1\n      pop\n        /* \"#utility.yul\":15825:15834   */\n      dup2\n        /* \"#utility.yul\":15819:15823   */\n      dup2\n        /* \"#utility.yul\":15815:15835   */\n      sub\n        /* \"#utility.yul\":15811:15812   */\n      0x00\n        /* \"#utility.yul\":15800:15809   */\n      dup4\n        /* \"#utility.yul\":15796:15813   */\n      add\n        /* \"#utility.yul\":15789:15836   */\n      mstore\n        /* \"#utility.yul\":15853:15984   */\n      tag_426\n        /* \"#utility.yul\":15979:15983   */\n      dup2\n        /* \"#utility.yul\":15853:15984   */\n      tag_230\n      jump\t// in\n    tag_426:\n        /* \"#utility.yul\":15845:15984   */\n      swap1\n      pop\n        /* \"#utility.yul\":15572:15991   */\n      swap2\n      swap1\n      pop\n      jump\t// out\n        /* \"#utility.yul\":15997:16167   */\n    tag_231:\n        /* \"#utility.yul\":16137:16159   */\n      0x5574656e7465206e6f6e2070726573656e746521000000000000000000000000\n        /* \"#utility.yul\":16133:16134   */\n      0x00\n        /* \"#utility.yul\":16125:16131   */\n      dup3\n        /* \"#utility.yul\":16121:16135   */\n      add\n        /* \"#utility.yul\":16114:16160   */\n      mstore\n        /* \"#utility.yul\":15997:16167   */\n      pop\n      jump\t// out\n        /* \"#utility.yul\":16173:16539   */\n    tag_232:\n        /* \"#utility.yul\":16315:16318   */\n      0x00\n        /* \"#utility.yul\":16336:16403   */\n      tag_429\n        /* \"#utility.yul\":16400:16402   */\n      0x14\n        /* \"#utility.yul\":16395:16398   */\n      dup4\n        /* \"#utility.yul\":16336:16403   */\n      tag_216\n      jump\t// in\n    tag_429:\n        /* \"#utility.yul\":16329:16403   */\n      swap2\n      pop\n        /* \"#utility.yul\":16412:16505   */\n      tag_430\n        /* \"#utility.yul\":16501:16504   */\n      dup3\n        /* \"#utility.yul\":16412:16505   */\n      tag_231\n      jump\t// in\n    tag_430:\n        /* \"#utility.yul\":16530:16532   */\n      0x20\n        /* \"#utility.yul\":16525:16528   */\n      dup3\n        /* \"#utility.yul\":16521:16533   */\n      add\n        /* \"#utility.yul\":16514:16533   */\n      swap1\n      pop\n        /* \"#utility.yul\":16173:16539   */\n      swap2\n      swap1\n      pop\n      jump\t// out\n        /* \"#utility.yul\":16545:16964   */\n    tag_108:\n        /* \"#utility.yul\":16711:16715   */\n      0x00\n        /* \"#utility.yul\":16749:16751   */\n      0x20\n        /* \"#utility.yul\":16738:16747   */\n      dup3\n        /* \"#utility.yul\":16734:16752   */\n      add\n        /* \"#utility.yul\":16726:16752   */\n      swap1\n      pop\n        /* \"#utility.yul\":16798:16807   */\n      dup2\n        /* \"#utility.yul\":16792:16796   */\n      dup2\n        /* \"#utility.yul\":16788:16808   */\n      sub\n        /* \"#utility.yul\":16784:16785   */\n      0x00\n        /* \"#utility.yul\":16773:16782   */\n      dup4\n        /* \"#utility.yul\":16769:16786   */\n      add\n        /* \"#utility.yul\":16762:16809   */\n      mstore\n        /* \"#utility.yul\":16826:16957   */\n      tag_432\n        /* \"#utility.yul\":16952:16956   */\n      dup2\n        /* \"#utility.yul\":16826:16957   */\n      tag_232\n      jump\t// in\n    tag_432:\n        /* \"#utility.yul\":16818:16957   */\n      swap1\n      pop\n        /* \"#utility.yul\":16545:16964   */\n      swap2\n      swap1\n      pop\n      jump\t// out\n        /* \"#utility.yul\":16970:17137   */\n    tag_233:\n        /* \"#utility.yul\":17110:17129   */\n      0x42616c616e6365204e6f742056616c6964000000000000000000000000000000\n        /* \"#utility.yul\":17106:17107   */\n      0x00\n        /* \"#utility.yul\":17098:17104   */\n      dup3\n        /* \"#utility.yul\":17094:17108   */\n      add\n        /* \"#utility.yul\":17087:17130   */\n      mstore\n        /* \"#utility.yul\":16970:17137   */\n      pop\n      jump\t// out\n        /* \"#utility.yul\":17143:17509   */\n    tag_234:\n        /* \"#utility.yul\":17285:17288   */\n      0x00\n        /* \"#utility.yul\":17306:17373   */\n      tag_435\n        /* \"#utility.yul\":17370:17372   */\n      0x11\n        /* \"#utility.yul\":17365:17368   */\n      dup4\n        /* \"#utility.yul\":17306:17373   */\n      tag_216\n      jump\t// in\n    tag_435:\n        /* \"#utility.yul\":17299:17373   */\n      swap2\n      pop\n        /* \"#utility.yul\":17382:17475   */\n      tag_436\n        /* \"#utility.yul\":17471:17474   */\n      dup3\n        /* \"#utility.yul\":17382:17475   */\n      tag_233\n      jump\t// in\n    tag_436:\n        /* \"#utility.yul\":17500:17502   */\n      0x20\n        /* \"#utility.yul\":17495:17498   */\n      dup3\n        /* \"#utility.yul\":17491:17503   */\n      add\n        /* \"#utility.yul\":17484:17503   */\n      swap1\n      pop\n        /* \"#utility.yul\":17143:17509   */\n      swap2\n      swap1\n      pop\n      jump\t// out\n        /* \"#utility.yul\":17515:17934   */\n    tag_127:\n        /* \"#utility.yul\":17681:17685   */\n      0x00\n        /* \"#utility.yul\":17719:17721   */\n      0x20\n        /* \"#utility.yul\":17708:17717   */\n      dup3\n        /* \"#utility.yul\":17704:17722   */\n      add\n        /* \"#utility.yul\":17696:17722   */\n      swap1\n      pop\n        /* \"#utility.yul\":17768:17777   */\n      dup2\n        /* \"#utility.yul\":17762:17766   */\n      dup2\n        /* \"#utility.yul\":17758:17778   */\n      sub\n        /* \"#utility.yul\":17754:17755   */\n      0x00\n        /* \"#utility.yul\":17743:17752   */\n      dup4\n        /* \"#utility.yul\":17739:17756   */\n      add\n        /* \"#utility.yul\":17732:17779   */\n      mstore\n        /* \"#utility.yul\":17796:17927   */\n      tag_438\n        /* \"#utility.yul\":17922:17926   */\n      dup2\n        /* \"#utility.yul\":17796:17927   */\n      tag_234\n      jump\t// in\n    tag_438:\n        /* \"#utility.yul\":17788:17927   */\n      swap1\n      pop\n        /* \"#utility.yul\":17515:17934   */\n      swap2\n      swap1\n      pop\n      jump\t// out\n        /* \"#utility.yul\":17940:18117   */\n    tag_235:\n        /* \"#utility.yul\":18080:18109   */\n      0x41646472657373204d696c6b487562206e6f6e2076616c69646f210000000000\n        /* \"#utility.yul\":18076:18077   */\n      0x00\n        /* \"#utility.yul\":18068:18074   */\n      dup3\n        /* \"#utility.yul\":18064:18078   */\n      add\n        /* \"#utility.yul\":18057:18110   */\n      mstore\n        /* \"#utility.yul\":17940:18117   */\n      pop\n      jump\t// out\n        /* \"#utility.yul\":18123:18489   */\n    tag_236:\n        /* \"#utility.yul\":18265:18268   */\n      0x00\n        /* \"#utility.yul\":18286:18353   */\n      tag_441\n        /* \"#utility.yul\":18350:18352   */\n      0x1b\n        /* \"#utility.yul\":18345:18348   */\n      dup4\n        /* \"#utility.yul\":18286:18353   */\n      tag_216\n      jump\t// in\n    tag_441:\n        /* \"#utility.yul\":18279:18353   */\n      swap2\n      pop\n        /* \"#utility.yul\":18362:18455   */\n      tag_442\n        /* \"#utility.yul\":18451:18454   */\n      dup3\n        /* \"#utility.yul\":18362:18455   */\n      tag_235\n      jump\t// in\n    tag_442:\n        /* \"#utility.yul\":18480:18482   */\n      0x20\n        /* \"#utility.yul\":18475:18478   */\n      dup3\n        /* \"#utility.yul\":18471:18483   */\n      add\n        /* \"#utility.yul\":18464:18483   */\n      swap1\n      pop\n        /* \"#utility.yul\":18123:18489   */\n      swap2\n      swap1\n      pop\n      jump\t// out\n        /* \"#utility.yul\":18495:18914   */\n    tag_139:\n        /* \"#utility.yul\":18661:18665   */\n      0x00\n        /* \"#utility.yul\":18699:18701   */\n      0x20\n        /* \"#utility.yul\":18688:18697   */\n      dup3\n        /* \"#utility.yul\":18684:18702   */\n      add\n        /* \"#utility.yul\":18676:18702   */\n      swap1\n      pop\n        /* \"#utility.yul\":18748:18757   */\n      dup2\n        /* \"#utility.yul\":18742:18746   */\n      dup2\n        /* \"#utility.yul\":18738:18758   */\n      sub\n        /* \"#utility.yul\":18734:18735   */\n      0x00\n        /* \"#utility.yul\":18723:18732   */\n      dup4\n        /* \"#utility.yul\":18719:18736   */\n      add\n        /* \"#utility.yul\":18712:18759   */\n      mstore\n        /* \"#utility.yul\":18776:18907   */\n      tag_444\n        /* \"#utility.yul\":18902:18906   */\n      dup2\n        /* \"#utility.yul\":18776:18907   */\n      tag_236\n      jump\t// in\n    tag_444:\n        /* \"#utility.yul\":18768:18907   */\n      swap1\n      pop\n        /* \"#utility.yul\":18495:18914   */\n      swap2\n      swap1\n      pop\n      jump\t// out\n        /* \"#utility.yul\":18920:19014   */\n    tag_237:\n        /* \"#utility.yul\":18953:18961   */\n      0x00\n        /* \"#utility.yul\":19001:19006   */\n      dup2\n        /* \"#utility.yul\":18997:18999   */\n      0x60\n        /* \"#utility.yul\":18993:19007   */\n      shl\n        /* \"#utility.yul\":18972:19007   */\n      swap1\n      pop\n        /* \"#utility.yul\":18920:19014   */\n      swap2\n      swap1\n      pop\n      jump\t// out\n        /* \"#utility.yul\":19020:19114   */\n    tag_238:\n        /* \"#utility.yul\":19059:19066   */\n      0x00\n        /* \"#utility.yul\":19088:19108   */\n      tag_447\n        /* \"#utility.yul\":19102:19107   */\n      dup3\n        /* \"#utility.yul\":19088:19108   */\n      tag_237\n      jump\t// in\n    tag_447:\n        /* \"#utility.yul\":19077:19108   */\n      swap1\n      pop\n        /* \"#utility.yul\":19020:19114   */\n      swap2\n      swap1\n      pop\n      jump\t// out\n        /* \"#utility.yul\":19120:19220   */\n    tag_239:\n        /* \"#utility.yul\":19159:19166   */\n      0x00\n        /* \"#utility.yul\":19188:19214   */\n      tag_449\n        /* \"#utility.yul\":19208:19213   */\n      dup3\n        /* \"#utility.yul\":19188:19214   */\n      tag_238\n      jump\t// in\n    tag_449:\n        /* \"#utility.yul\":19177:19214   */\n      swap1\n      pop\n        /* \"#utility.yul\":19120:19220   */\n      swap2\n      swap1\n      pop\n      jump\t// out\n        /* \"#utility.yul\":19226:19383   */\n    tag_240:\n        /* \"#utility.yul\":19331:19376   */\n      tag_451\n        /* \"#utility.yul\":19351:19375   */\n      tag_452\n        /* \"#utility.yul\":19369:19374   */\n      dup3\n        /* \"#utility.yul\":19351:19375   */\n      tag_196\n      jump\t// in\n    tag_452:\n        /* \"#utility.yul\":19331:19376   */\n      tag_239\n      jump\t// in\n    tag_451:\n        /* \"#utility.yul\":19326:19329   */\n      dup3\n        /* \"#utility.yul\":19319:19377   */\n      mstore\n        /* \"#utility.yul\":19226:19383   */\n      pop\n      pop\n      jump\t// out\n        /* \"#utility.yul\":19389:20125   */\n    tag_142:\n        /* \"#utility.yul\":19645:19648   */\n      0x00\n        /* \"#utility.yul\":19667:19762   */\n      tag_454\n        /* \"#utility.yul\":19758:19761   */\n      dup3\n        /* \"#utility.yul\":19749:19755   */\n      dup8\n        /* \"#utility.yul\":19667:19762   */\n      tag_220\n      jump\t// in\n    tag_454:\n        /* \"#utility.yul\":19660:19762   */\n      swap2\n      pop\n        /* \"#utility.yul\":19779:19874   */\n      tag_455\n        /* \"#utility.yul\":19870:19873   */\n      dup3\n        /* \"#utility.yul\":19861:19867   */\n      dup7\n        /* \"#utility.yul\":19779:19874   */\n      tag_220\n      jump\t// in\n    tag_455:\n        /* \"#utility.yul\":19772:19874   */\n      swap2\n      pop\n        /* \"#utility.yul\":19891:19986   */\n      tag_456\n        /* \"#utility.yul\":19982:19985   */\n      dup3\n        /* \"#utility.yul\":19973:19979   */\n      dup6\n        /* \"#utility.yul\":19891:19986   */\n      tag_220\n      jump\t// in\n    tag_456:\n        /* \"#utility.yul\":19884:19986   */\n      swap2\n      pop\n        /* \"#utility.yul\":19996:20071   */\n      tag_457\n        /* \"#utility.yul\":20067:20070   */\n      dup3\n        /* \"#utility.yul\":20058:20064   */\n      dup5\n        /* \"#utility.yul\":19996:20071   */\n      tag_240\n      jump\t// in\n    tag_457:\n        /* \"#utility.yul\":20096:20098   */\n      0x14\n        /* \"#utility.yul\":20091:20094   */\n      dup3\n        /* \"#utility.yul\":20087:20099   */\n      add\n        /* \"#utility.yul\":20080:20099   */\n      swap2\n      pop\n        /* \"#utility.yul\":20116:20119   */\n      dup2\n        /* \"#utility.yul\":20109:20119   */\n      swap1\n      pop\n        /* \"#utility.yul\":19389:20125   */\n      swap6\n      swap5\n      pop\n      pop\n      pop\n      pop\n      pop\n      jump\t// out\n        /* \"#utility.yul\":20131:20307   */\n    tag_241:\n        /* \"#utility.yul\":20271:20299   */\n      0x4d696c6b48756220616c72656164792072656769737465726564000000000000\n        /* \"#utility.yul\":20267:20268   */\n      0x00\n        /* \"#utility.yul\":20259:20265   */\n      dup3\n        /* \"#utility.yul\":20255:20269   */\n      add\n        /* \"#utility.yul\":20248:20300   */\n      mstore\n        /* \"#utility.yul\":20131:20307   */\n      pop\n      jump\t// out\n        /* \"#utility.yul\":20313:20679   */\n    tag_242:\n        /* \"#utility.yul\":20455:20458   */\n      0x00\n        /* \"#utility.yul\":20476:20543   */\n      tag_460\n        /* \"#utility.yul\":20540:20542   */\n      0x1a\n        /* \"#utility.yul\":20535:20538   */\n      dup4\n        /* \"#utility.yul\":20476:20543   */\n      tag_216\n      jump\t// in\n    tag_460:\n        /* \"#utility.yul\":20469:20543   */\n      swap2\n      pop\n        /* \"#utility.yul\":20552:20645   */\n      tag_461\n        /* \"#utility.yul\":20641:20644   */\n      dup3\n        /* \"#utility.yul\":20552:20645   */\n      tag_241\n      jump\t// in\n    tag_461:\n        /* \"#utility.yul\":20670:20672   */\n      0x20\n        /* \"#utility.yul\":20665:20668   */\n      dup3\n        /* \"#utility.yul\":20661:20673   */\n      add\n        /* \"#utility.yul\":20654:20673   */\n      swap1\n      pop\n        /* \"#utility.yul\":20313:20679   */\n      swap2\n      swap1\n      pop\n      jump\t// out\n        /* \"#utility.yul\":20685:21104   */\n    tag_145:\n        /* \"#utility.yul\":20851:20855   */\n      0x00\n        /* \"#utility.yul\":20889:20891   */\n      0x20\n        /* \"#utility.yul\":20878:20887   */\n      dup3\n        /* \"#utility.yul\":20874:20892   */\n      add\n        /* \"#utility.yul\":20866:20892   */\n      swap1\n      pop\n        /* \"#utility.yul\":20938:20947   */\n      dup2\n        /* \"#utility.yul\":20932:20936   */\n      dup2\n        /* \"#utility.yul\":20928:20948   */\n      sub\n        /* \"#utility.yul\":20924:20925   */\n      0x00\n        /* \"#utility.yul\":20913:20922   */\n      dup4\n        /* \"#utility.yul\":20909:20926   */\n      add\n        /* \"#utility.yul\":20902:20949   */\n      mstore\n        /* \"#utility.yul\":20966:21097   */\n      tag_463\n        /* \"#utility.yul\":21092:21096   */\n      dup2\n        /* \"#utility.yul\":20966:21097   */\n      tag_242\n      jump\t// in\n    tag_463:\n        /* \"#utility.yul\":20958:21097   */\n      swap1\n      pop\n        /* \"#utility.yul\":20685:21104   */\n      swap2\n      swap1\n      pop\n      jump\t// out\n        /* \"#utility.yul\":21110:21285   */\n    tag_243:\n        /* \"#utility.yul\":21250:21277   */\n      0x46756c6c206e616d652063616e6e6f7420626520656d70747900000000000000\n        /* \"#utility.yul\":21246:21247   */\n      0x00\n        /* \"#utility.yul\":21238:21244   */\n      dup3\n        /* \"#utility.yul\":21234:21248   */\n      add\n        /* \"#utility.yul\":21227:21278   */\n      mstore\n        /* \"#utility.yul\":21110:21285   */\n      pop\n      jump\t// out\n        /* \"#utility.yul\":21291:21657   */\n    tag_244:\n        /* \"#utility.yul\":21433:21436   */\n      0x00\n        /* \"#utility.yul\":21454:21521   */\n      tag_466\n        /* \"#utility.yul\":21518:21520   */\n      0x19\n        /* \"#utility.yul\":21513:21516   */\n      dup4\n        /* \"#utility.yul\":21454:21521   */\n      tag_216\n      jump\t// in\n    tag_466:\n        /* \"#utility.yul\":21447:21521   */\n      swap2\n      pop\n        /* \"#utility.yul\":21530:21623   */\n      tag_467\n        /* \"#utility.yul\":21619:21622   */\n      dup3\n        /* \"#utility.yul\":21530:21623   */\n      tag_243\n      jump\t// in\n    tag_467:\n        /* \"#utility.yul\":21648:21650   */\n      0x20\n        /* \"#utility.yul\":21643:21646   */\n      dup3\n        /* \"#utility.yul\":21639:21651   */\n      add\n        /* \"#utility.yul\":21632:21651   */\n      swap1\n      pop\n        /* \"#utility.yul\":21291:21657   */\n      swap2\n      swap1\n      pop\n      jump\t// out\n        /* \"#utility.yul\":21663:22082   */\n    tag_148:\n        /* \"#utility.yul\":21829:21833   */\n      0x00\n        /* \"#utility.yul\":21867:21869   */\n      0x20\n        /* \"#utility.yul\":21856:21865   */\n      dup3\n        /* \"#utility.yul\":21852:21870   */\n      add\n        /* \"#utility.yul\":21844:21870   */\n      swap1\n      pop\n        /* \"#utility.yul\":21916:21925   */\n      dup2\n        /* \"#utility.yul\":21910:21914   */\n      dup2\n        /* \"#utility.yul\":21906:21926   */\n      sub\n        /* \"#utility.yul\":21902:21903   */\n      0x00\n        /* \"#utility.yul\":21891:21900   */\n      dup4\n        /* \"#utility.yul\":21887:21904   */\n      add\n        /* \"#utility.yul\":21880:21927   */\n      mstore\n        /* \"#utility.yul\":21944:22075   */\n      tag_469\n        /* \"#utility.yul\":22070:22074   */\n      dup2\n        /* \"#utility.yul\":21944:22075   */\n      tag_244\n      jump\t// in\n    tag_469:\n        /* \"#utility.yul\":21936:22075   */\n      swap1\n      pop\n        /* \"#utility.yul\":21663:22082   */\n      swap2\n      swap1\n      pop\n      jump\t// out\n        /* \"#utility.yul\":22088:22262   */\n    tag_245:\n        /* \"#utility.yul\":22228:22254   */\n      0x50617373776f72642063616e6e6f7420626520656d7074790000000000000000\n        /* \"#utility.yul\":22224:22225   */\n      0x00\n        /* \"#utility.yul\":22216:22222   */\n      dup3\n        /* \"#utility.yul\":22212:22226   */\n      add\n        /* \"#utility.yul\":22205:22255   */\n      mstore\n        /* \"#utility.yul\":22088:22262   */\n      pop\n      jump\t// out\n        /* \"#utility.yul\":22268:22634   */\n    tag_246:\n        /* \"#utility.yul\":22410:22413   */\n      0x00\n        /* \"#utility.yul\":22431:22498   */\n      tag_472\n        /* \"#utility.yul\":22495:22497   */\n      0x18\n        /* \"#utility.yul\":22490:22493   */\n      dup4\n        /* \"#utility.yul\":22431:22498   */\n      tag_216\n      jump\t// in\n    tag_472:\n        /* \"#utility.yul\":22424:22498   */\n      swap2\n      pop\n        /* \"#utility.yul\":22507:22600   */\n      tag_473\n        /* \"#utility.yul\":22596:22599   */\n      dup3\n        /* \"#utility.yul\":22507:22600   */\n      tag_245\n      jump\t// in\n    tag_473:\n        /* \"#utility.yul\":22625:22627   */\n      0x20\n        /* \"#utility.yul\":22620:22623   */\n      dup3\n        /* \"#utility.yul\":22616:22628   */\n      add\n        /* \"#utility.yul\":22609:22628   */\n      swap1\n      pop\n        /* \"#utility.yul\":22268:22634   */\n      swap2\n      swap1\n      pop\n      jump\t// out\n        /* \"#utility.yul\":22640:23059   */\n    tag_151:\n        /* \"#utility.yul\":22806:22810   */\n      0x00\n        /* \"#utility.yul\":22844:22846   */\n      0x20\n        /* \"#utility.yul\":22833:22842   */\n      dup3\n        /* \"#utility.yul\":22829:22847   */\n      add\n        /* \"#utility.yul\":22821:22847   */\n      swap1\n      pop\n        /* \"#utility.yul\":22893:22902   */\n      dup2\n        /* \"#utility.yul\":22887:22891   */\n      dup2\n        /* \"#utility.yul\":22883:22903   */\n      sub\n        /* \"#utility.yul\":22879:22880   */\n      0x00\n        /* \"#utility.yul\":22868:22877   */\n      dup4\n        /* \"#utility.yul\":22864:22881   */\n      add\n        /* \"#utility.yul\":22857:22904   */\n      mstore\n        /* \"#utility.yul\":22921:23052   */\n      tag_475\n        /* \"#utility.yul\":23047:23051   */\n      dup2\n        /* \"#utility.yul\":22921:23052   */\n      tag_246\n      jump\t// in\n    tag_475:\n        /* \"#utility.yul\":22913:23052   */\n      swap1\n      pop\n        /* \"#utility.yul\":22640:23059   */\n      swap2\n      swap1\n      pop\n      jump\t// out\n        /* \"#utility.yul\":23065:23236   */\n    tag_247:\n        /* \"#utility.yul\":23205:23228   */\n      0x456d61696c2063616e6e6f7420626520656d7074790000000000000000000000\n        /* \"#utility.yul\":23201:23202   */\n      0x00\n        /* \"#utility.yul\":23193:23199   */\n      dup3\n        /* \"#utility.yul\":23189:23203   */\n      add\n        /* \"#utility.yul\":23182:23229   */\n      mstore\n        /* \"#utility.yul\":23065:23236   */\n      pop\n      jump\t// out\n        /* \"#utility.yul\":23242:23608   */\n    tag_248:\n        /* \"#utility.yul\":23384:23387   */\n      0x00\n        /* \"#utility.yul\":23405:23472   */\n      tag_478\n        /* \"#utility.yul\":23469:23471   */\n      0x15\n        /* \"#utility.yul\":23464:23467   */\n      dup4\n        /* \"#utility.yul\":23405:23472   */\n      tag_216\n      jump\t// in\n    tag_478:\n        /* \"#utility.yul\":23398:23472   */\n      swap2\n      pop\n        /* \"#utility.yul\":23481:23574   */\n      tag_479\n        /* \"#utility.yul\":23570:23573   */\n      dup3\n        /* \"#utility.yul\":23481:23574   */\n      tag_247\n      jump\t// in\n    tag_479:\n        /* \"#utility.yul\":23599:23601   */\n      0x20\n        /* \"#utility.yul\":23594:23597   */\n      dup3\n        /* \"#utility.yul\":23590:23602   */\n      add\n        /* \"#utility.yul\":23583:23602   */\n      swap1\n      pop\n        /* \"#utility.yul\":23242:23608   */\n      swap2\n      swap1\n      pop\n      jump\t// out\n        /* \"#utility.yul\":23614:24033   */\n    tag_154:\n        /* \"#utility.yul\":23780:23784   */\n      0x00\n        /* \"#utility.yul\":23818:23820   */\n      0x20\n        /* \"#utility.yul\":23807:23816   */\n      dup3\n        /* \"#utility.yul\":23803:23821   */\n      add\n        /* \"#utility.yul\":23795:23821   */\n      swap1\n      pop\n        /* \"#utility.yul\":23867:23876   */\n      dup2\n        /* \"#utility.yul\":23861:23865   */\n      dup2\n        /* \"#utility.yul\":23857:23877   */\n      sub\n        /* \"#utility.yul\":23853:23854   */\n      0x00\n        /* \"#utility.yul\":23842:23851   */\n      dup4\n        /* \"#utility.yul\":23838:23855   */\n      add\n        /* \"#utility.yul\":23831:23878   */\n      mstore\n        /* \"#utility.yul\":23895:24026   */\n      tag_481\n        /* \"#utility.yul\":24021:24025   */\n      dup2\n        /* \"#utility.yul\":23895:24026   */\n      tag_248\n      jump\t// in\n    tag_481:\n        /* \"#utility.yul\":23887:24026   */\n      swap1\n      pop\n        /* \"#utility.yul\":23614:24033   */\n      swap2\n      swap1\n      pop\n      jump\t// out\n        /* \"#utility.yul\":24039:24132   */\n    tag_249:\n        /* \"#utility.yul\":24076:24082   */\n      0x00\n        /* \"#utility.yul\":24123:24125   */\n      0x20\n        /* \"#utility.yul\":24118:24120   */\n      0x1f\n        /* \"#utility.yul\":24111:24116   */\n      dup4\n        /* \"#utility.yul\":24107:24121   */\n      add\n        /* \"#utility.yul\":24103:24126   */\n      div\n        /* \"#utility.yul\":24093:24126   */\n      swap1\n      pop\n        /* \"#utility.yul\":24039:24132   */\n      swap2\n      swap1\n      pop\n      jump\t// out\n        /* \"#utility.yul\":24138:24245   */\n    tag_250:\n        /* \"#utility.yul\":24182:24190   */\n      0x00\n        /* \"#utility.yul\":24232:24237   */\n      dup3\n        /* \"#utility.yul\":24226:24230   */\n      dup3\n        /* \"#utility.yul\":24222:24238   */\n      shl\n        /* \"#utility.yul\":24201:24238   */\n      swap1\n      pop\n        /* \"#utility.yul\":24138:24245   */\n      swap3\n      swap2\n      pop\n      pop\n      jump\t// out\n        /* \"#utility.yul\":24251:24644   */\n    tag_251:\n        /* \"#utility.yul\":24320:24326   */\n      0x00\n        /* \"#utility.yul\":24370:24371   */\n      0x08\n        /* \"#utility.yul\":24358:24368   */\n      dup4\n        /* \"#utility.yul\":24354:24372   */\n      mul\n        /* \"#utility.yul\":24393:24490   */\n      tag_485\n        /* \"#utility.yul\":24423:24489   */\n      0xffffffffffffffffffffffffffffffffffffffffffffffffffffffffffffffff\n        /* \"#utility.yul\":24412:24421   */\n      dup3\n        /* \"#utility.yul\":24393:24490   */\n      tag_250\n      jump\t// in\n    tag_485:\n        /* \"#utility.yul\":24511:24550   */\n      tag_486\n        /* \"#utility.yul\":24541:24549   */\n      dup7\n        /* \"#utility.yul\":24530:24539   */\n      dup4\n        /* \"#utility.yul\":24511:24550   */\n      tag_250\n      jump\t// in\n    tag_486:\n        /* \"#utility.yul\":24499:24550   */\n      swap6\n      pop\n        /* \"#utility.yul\":24583:24587   */\n      dup1\n        /* \"#utility.yul\":24579:24588   */\n      not\n        /* \"#utility.yul\":24572:24577   */\n      dup5\n        /* \"#utility.yul\":24568:24589   */\n      and\n        /* \"#utility.yul\":24559:24589   */\n      swap4\n      pop\n        /* \"#utility.yul\":24632:24636   */\n      dup1\n        /* \"#utility.yul\":24622:24630   */\n      dup7\n        /* \"#utility.yul\":24618:24637   */\n      and\n        /* \"#utility.yul\":24611:24616   */\n      dup5\n        /* \"#utility.yul\":24608:24638   */\n      or\n        /* \"#utility.yul\":24598:24638   */\n      swap3\n      pop\n        /* \"#utility.yul\":24327:24644   */\n      pop\n      pop\n        /* \"#utility.yul\":24251:24644   */\n      swap4\n      swap3\n      pop\n      pop\n      pop\n      jump\t// out\n        /* \"#utility.yul\":24650:24710   */\n    tag_252:\n        /* \"#utility.yul\":24678:24681   */\n      0x00\n        /* \"#utility.yul\":24699:24704   */\n      dup2\n        /* \"#utility.yul\":24692:24704   */\n      swap1\n      pop\n        /* \"#utility.yul\":24650:24710   */\n      swap2\n      swap1\n      pop\n      jump\t// out\n        /* \"#utility.yul\":24716:24858   */\n    tag_253:\n        /* \"#utility.yul\":24766:24775   */\n      0x00\n        /* \"#utility.yul\":24799:24852   */\n      tag_489\n        /* \"#utility.yul\":24817:24851   */\n      tag_490\n        /* \"#utility.yul\":24826:24850   */\n      tag_491\n        /* \"#utility.yul\":24844:24849   */\n      dup5\n        /* \"#utility.yul\":24826:24850   */\n      tag_211\n      jump\t// in\n    tag_491:\n        /* \"#utility.yul\":24817:24851   */\n      tag_252\n      jump\t// in\n    tag_490:\n        /* \"#utility.yul\":24799:24852   */\n      tag_211\n      jump\t// in\n    tag_489:\n        /* \"#utility.yul\":24786:24852   */\n      swap1\n      pop\n        /* \"#utility.yul\":24716:24858   */\n      swap2\n      swap1\n      pop\n      jump\t// out\n        /* \"#utility.yul\":24864:24939   */\n    tag_254:\n        /* \"#utility.yul\":24907:24910   */\n      0x00\n        /* \"#utility.yul\":24928:24933   */\n      dup2\n        /* \"#utility.yul\":24921:24933   */\n      swap1\n      pop\n        /* \"#utility.yul\":24864:24939   */\n      swap2\n      swap1\n      pop\n      jump\t// out\n        /* \"#utility.yul\":24945:25214   */\n    tag_255:\n        /* \"#utility.yul\":25055:25094   */\n      tag_494\n        /* \"#utility.yul\":25086:25093   */\n      dup4\n        /* \"#utility.yul\":25055:25094   */\n      tag_253\n      jump\t// in\n    tag_494:\n        /* \"#utility.yul\":25116:25207   */\n      tag_495\n        /* \"#utility.yul\":25165:25206   */\n      tag_496\n        /* \"#utility.yul\":25189:25205   */\n      dup3\n        /* \"#utility.yul\":25165:25206   */\n      tag_254\n      jump\t// in\n    tag_496:\n        /* \"#utility.yul\":25157:25163   */\n      dup5\n        /* \"#utility.yul\":25150:25154   */\n      dup5\n        /* \"#utility.yul\":25144:25155   */\n      sload\n        /* \"#utility.yul\":25116:25207   */\n      tag_251\n      jump\t// in\n    tag_495:\n        /* \"#utility.yul\":25110:25114   */\n      dup3\n        /* \"#utility.yul\":25103:25208   */\n      sstore\n        /* \"#utility.yul\":25021:25214   */\n      pop\n        /* \"#utility.yul\":24945:25214   */\n      pop\n      pop\n      pop\n      jump\t// out\n        /* \"#utility.yul\":25220:25293   */\n    tag_256:\n        /* \"#utility.yul\":25265:25268   */\n      0x00\n        /* \"#utility.yul\":25220:25293   */\n      swap1\n      jump\t// out\n        /* \"#utility.yul\":25299:25488   */\n    tag_257:\n        /* \"#utility.yul\":25376:25408   */\n      tag_499\n      tag_256\n      jump\t// in\n    tag_499:\n        /* \"#utility.yul\":25417:25482   */\n      tag_500\n        /* \"#utility.yul\":25475:25481   */\n      dup2\n        /* \"#utility.yul\":25467:25473   */\n      dup5\n        /* \"#utility.yul\":25461:25465   */\n      dup5\n        /* \"#utility.yul\":25417:25482   */\n      tag_255\n      jump\t// in\n    tag_500:\n        /* \"#utility.yul\":25352:25488   */\n      pop\n        /* \"#utility.yul\":25299:25488   */\n      pop\n      pop\n      jump\t// out\n        /* \"#utility.yul\":25494:25680   */\n    tag_258:\n        /* \"#utility.yul\":25554:25674   */\n    tag_502:\n        /* \"#utility.yul\":25571:25574   */\n      dup2\n        /* \"#utility.yul\":25564:25569   */\n      dup2\n        /* \"#utility.yul\":25561:25575   */\n      lt\n        /* \"#utility.yul\":25554:25674   */\n      iszero\n      tag_504\n      jumpi\n        /* \"#utility.yul\":25625:25664   */\n      tag_505\n        /* \"#utility.yul\":25662:25663   */\n      0x00\n        /* \"#utility.yul\":25655:25660   */\n      dup3\n        /* \"#utility.yul\":25625:25664   */\n      tag_257\n      jump\t// in\n    tag_505:\n        /* \"#utility.yul\":25598:25599   */\n      0x01\n        /* \"#utility.yul\":25591:25596   */\n      dup2\n        /* \"#utility.yul\":25587:25600   */\n      add\n        /* \"#utility.yul\":25578:25600   */\n      swap1\n      pop\n        /* \"#utility.yul\":25554:25674   */\n      jump(tag_502)\n    tag_504:\n        /* \"#utility.yul\":25494:25680   */\n      pop\n      pop\n      jump\t// out\n        /* \"#utility.yul\":25686:26229   */\n    tag_259:\n        /* \"#utility.yul\":25787:25789   */\n      0x1f\n        /* \"#utility.yul\":25782:25785   */\n      dup3\n        /* \"#utility.yul\":25779:25790   */\n      gt\n        /* \"#utility.yul\":25776:26222   */\n      iszero\n      tag_507\n      jumpi\n        /* \"#utility.yul\":25821:25859   */\n      tag_508\n        /* \"#utility.yul\":25853:25858   */\n      dup2\n        /* \"#utility.yul\":25821:25859   */\n      tag_222\n      jump\t// in\n    tag_508:\n        /* \"#utility.yul\":25905:25934   */\n      tag_509\n        /* \"#utility.yul\":25923:25933   */\n      dup5\n        /* \"#utility.yul\":25905:25934   */\n      tag_249\n      jump\t// in\n    tag_509:\n        /* \"#utility.yul\":25895:25903   */\n      dup2\n        /* \"#utility.yul\":25891:25935   */\n      add\n        /* \"#utility.yul\":26088:26090   */\n      0x20\n        /* \"#utility.yul\":26076:26086   */\n      dup6\n        /* \"#utility.yul\":26073:26091   */\n      lt\n        /* \"#utility.yul\":26070:26119   */\n      iszero\n      tag_510\n      jumpi\n        /* \"#utility.yul\":26109:26117   */\n      dup2\n        /* \"#utility.yul\":26094:26117   */\n      swap1\n      pop\n        /* \"#utility.yul\":26070:26119   */\n    tag_510:\n        /* \"#utility.yul\":26132:26212   */\n      tag_511\n        /* \"#utility.yul\":26188:26210   */\n      tag_512\n        /* \"#utility.yul\":26206:26209   */\n      dup6\n        /* \"#utility.yul\":26188:26210   */\n      tag_249\n      jump\t// in\n    tag_512:\n        /* \"#utility.yul\":26178:26186   */\n      dup4\n        /* \"#utility.yul\":26174:26211   */\n      add\n        /* \"#utility.yul\":26161:26172   */\n      dup3\n        /* \"#utility.yul\":26132:26212   */\n      tag_258\n      jump\t// in\n    tag_511:\n        /* \"#utility.yul\":25791:26222   */\n      pop\n      pop\n        /* \"#utility.yul\":25776:26222   */\n    tag_507:\n        /* \"#utility.yul\":25686:26229   */\n      pop\n      pop\n      pop\n      jump\t// out\n        /* \"#utility.yul\":26235:26352   */\n    tag_260:\n        /* \"#utility.yul\":26289:26297   */\n      0x00\n        /* \"#utility.yul\":26339:26344   */\n      dup3\n        /* \"#utility.yul\":26333:26337   */\n      dup3\n        /* \"#utility.yul\":26329:26345   */\n      shr\n        /* \"#utility.yul\":26308:26345   */\n      swap1\n      pop\n        /* \"#utility.yul\":26235:26352   */\n      swap3\n      swap2\n      pop\n      pop\n      jump\t// out\n        /* \"#utility.yul\":26358:26527   */\n    tag_261:\n        /* \"#utility.yul\":26402:26408   */\n      0x00\n        /* \"#utility.yul\":26435:26486   */\n      tag_515\n        /* \"#utility.yul\":26483:26484   */\n      0x00\n        /* \"#utility.yul\":26479:26485   */\n      not\n        /* \"#utility.yul\":26471:26476   */\n      dup5\n        /* \"#utility.yul\":26468:26469   */\n      0x08\n        /* \"#utility.yul\":26464:26477   */\n      mul\n        /* \"#utility.yul\":26435:26486   */\n      tag_260\n      jump\t// in\n    tag_515:\n        /* \"#utility.yul\":26431:26487   */\n      not\n        /* \"#utility.yul\":26516:26520   */\n      dup1\n        /* \"#utility.yul\":26510:26514   */\n      dup4\n        /* \"#utility.yul\":26506:26521   */\n      and\n        /* \"#utility.yul\":26496:26521   */\n      swap2\n      pop\n        /* \"#utility.yul\":26409:26527   */\n      pop\n        /* \"#utility.yul\":26358:26527   */\n      swap3\n      swap2\n      pop\n      pop\n      jump\t// out\n        /* \"#utility.yul\":26532:26827   */\n    tag_262:\n        /* \"#utility.yul\":26608:26612   */\n      0x00\n        /* \"#utility.yul\":26754:26783   */\n      tag_517\n        /* \"#utility.yul\":26779:26782   */\n      dup4\n        /* \"#utility.yul\":26773:26777   */\n      dup4\n        /* \"#utility.yul\":26754:26783   */\n      tag_261\n      jump\t// in\n    tag_517:\n        /* \"#utility.yul\":26746:26783   */\n      swap2\n      pop\n        /* \"#utility.yul\":26816:26819   */\n      dup3\n        /* \"#utility.yul\":26813:26814   */\n      0x02\n        /* \"#utility.yul\":26809:26820   */\n      mul\n        /* \"#utility.yul\":26803:26807   */\n      dup3\n        /* \"#utility.yul\":26800:26821   */\n      or\n        /* \"#utility.yul\":26792:26821   */\n      swap1\n      pop\n        /* \"#utility.yul\":26532:26827   */\n      swap3\n      swap2\n      pop\n      pop\n      jump\t// out\n        /* \"#utility.yul\":26832:28227   */\n    tag_156:\n        /* \"#utility.yul\":26949:26986   */\n      tag_519\n        /* \"#utility.yul\":26982:26985   */\n      dup3\n        /* \"#utility.yul\":26949:26986   */\n      tag_215\n      jump\t// in\n    tag_519:\n        /* \"#utility.yul\":27051:27069   */\n      0xffffffffffffffff\n        /* \"#utility.yul\":27043:27049   */\n      dup2\n        /* \"#utility.yul\":27040:27070   */\n      gt\n        /* \"#utility.yul\":27037:27093   */\n      iszero\n      tag_520\n      jumpi\n        /* \"#utility.yul\":27073:27091   */\n      tag_521\n      tag_202\n      jump\t// in\n    tag_521:\n        /* \"#utility.yul\":27037:27093   */\n    tag_520:\n        /* \"#utility.yul\":27117:27155   */\n      tag_522\n        /* \"#utility.yul\":27149:27153   */\n      dup3\n        /* \"#utility.yul\":27143:27154   */\n      sload\n        /* \"#utility.yul\":27117:27155   */\n      tag_96\n      jump\t// in\n    tag_522:\n        /* \"#utility.yul\":27202:27269   */\n      tag_523\n        /* \"#utility.yul\":27262:27268   */\n      dup3\n        /* \"#utility.yul\":27254:27260   */\n      dup3\n        /* \"#utility.yul\":27248:27252   */\n      dup6\n        /* \"#utility.yul\":27202:27269   */\n      tag_259\n      jump\t// in\n    tag_523:\n        /* \"#utility.yul\":27296:27297   */\n      0x00\n        /* \"#utility.yul\":27320:27324   */\n      0x20\n        /* \"#utility.yul\":27307:27324   */\n      swap1\n      pop\n        /* \"#utility.yul\":27352:27354   */\n      0x1f\n        /* \"#utility.yul\":27344:27350   */\n      dup4\n        /* \"#utility.yul\":27341:27355   */\n      gt\n        /* \"#utility.yul\":27369:27370   */\n      0x01\n        /* \"#utility.yul\":27364:27982   */\n      dup2\n      eq\n      tag_525\n      jumpi\n        /* \"#utility.yul\":28026:28027   */\n      0x00\n        /* \"#utility.yul\":28043:28049   */\n      dup5\n        /* \"#utility.yul\":28040:28117   */\n      iszero\n      tag_526\n      jumpi\n        /* \"#utility.yul\":28092:28101   */\n      dup3\n        /* \"#utility.yul\":28087:28090   */\n      dup8\n        /* \"#utility.yul\":28083:28102   */\n      add\n        /* \"#utility.yul\":28077:28103   */\n      mload\n        /* \"#utility.yul\":28068:28103   */\n      swap1\n      pop\n        /* \"#utility.yul\":28040:28117   */\n    tag_526:\n        /* \"#utility.yul\":28143:28210   */\n      tag_527\n        /* \"#utility.yul\":28203:28209   */\n      dup6\n        /* \"#utility.yul\":28196:28201   */\n      dup3\n        /* \"#utility.yul\":28143:28210   */\n      tag_262\n      jump\t// in\n    tag_527:\n        /* \"#utility.yul\":28137:28141   */\n      dup7\n        /* \"#utility.yul\":28130:28211   */\n      sstore\n        /* \"#utility.yul\":27999:28221   */\n      pop\n        /* \"#utility.yul\":27334:28221   */\n      jump(tag_524)\n        /* \"#utility.yul\":27364:27982   */\n    tag_525:\n        /* \"#utility.yul\":27416:27420   */\n      0x1f\n        /* \"#utility.yul\":27412:27421   */\n      not\n        /* \"#utility.yul\":27404:27410   */\n      dup5\n        /* \"#utility.yul\":27400:27422   */\n      and\n        /* \"#utility.yul\":27450:27487   */\n      tag_528\n        /* \"#utility.yul\":27482:27486   */\n      dup7\n        /* \"#utility.yul\":27450:27487   */\n      tag_222\n      jump\t// in\n    tag_528:\n        /* \"#utility.yul\":27509:27510   */\n      0x00\n        /* \"#utility.yul\":27523:27731   */\n    tag_529:\n        /* \"#utility.yul\":27537:27544   */\n      dup3\n        /* \"#utility.yul\":27534:27535   */\n      dup2\n        /* \"#utility.yul\":27531:27545   */\n      lt\n        /* \"#utility.yul\":27523:27731   */\n      iszero\n      tag_531\n      jumpi\n        /* \"#utility.yul\":27616:27625   */\n      dup5\n        /* \"#utility.yul\":27611:27614   */\n      dup10\n        /* \"#utility.yul\":27607:27626   */\n      add\n        /* \"#utility.yul\":27601:27627   */\n      mload\n        /* \"#utility.yul\":27593:27599   */\n      dup3\n        /* \"#utility.yul\":27586:27628   */\n      sstore\n        /* \"#utility.yul\":27667:27668   */\n      0x01\n        /* \"#utility.yul\":27659:27665   */\n      dup3\n        /* \"#utility.yul\":27655:27669   */\n      add\n        /* \"#utility.yul\":27645:27669   */\n      swap2\n      pop\n        /* \"#utility.yul\":27714:27716   */\n      0x20\n        /* \"#utility.yul\":27703:27712   */\n      dup6\n        /* \"#utility.yul\":27699:27717   */\n      add\n        /* \"#utility.yul\":27686:27717   */\n      swap5\n      pop\n        /* \"#utility.yul\":27560:27564   */\n      0x20\n        /* \"#utility.yul\":27557:27558   */\n      dup2\n        /* \"#utility.yul\":27553:27565   */\n      add\n        /* \"#utility.yul\":27548:27565   */\n      swap1\n      pop\n        /* \"#utility.yul\":27523:27731   */\n      jump(tag_529)\n    tag_531:\n        /* \"#utility.yul\":27759:27765   */\n      dup7\n        /* \"#utility.yul\":27750:27757   */\n      dup4\n        /* \"#utility.yul\":27747:27766   */\n      lt\n        /* \"#utility.yul\":27744:27923   */\n      iszero\n      tag_532\n      jumpi\n        /* \"#utility.yul\":27817:27826   */\n      dup5\n        /* \"#utility.yul\":27812:27815   */\n      dup10\n        /* \"#utility.yul\":27808:27827   */\n      add\n        /* \"#utility.yul\":27802:27828   */\n      mload\n        /* \"#utility.yul\":27860:27908   */\n      tag_533\n        /* \"#utility.yul\":27902:27906   */\n      0x1f\n        /* \"#utility.yul\":27894:27900   */\n      dup10\n        /* \"#utility.yul\":27890:27907   */\n      and\n        /* \"#utility.yul\":27879:27888   */\n      dup3\n        /* \"#utility.yul\":27860:27908   */\n      tag_261\n      jump\t// in\n    tag_533:\n        /* \"#utility.yul\":27852:27858   */\n      dup4\n        /* \"#utility.yul\":27845:27909   */\n      sstore\n        /* \"#utility.yul\":27767:27923   */\n      pop\n        /* \"#utility.yul\":27744:27923   */\n    tag_532:\n        /* \"#utility.yul\":27969:27970   */\n      0x01\n        /* \"#utility.yul\":27965:27966   */\n      0x02\n        /* \"#utility.yul\":27957:27963   */\n      dup9\n        /* \"#utility.yul\":27953:27967   */\n      mul\n        /* \"#utility.yul\":27949:27971   */\n      add\n        /* \"#utility.yul\":27943:27947   */\n      dup9\n        /* \"#utility.yul\":27936:27972   */\n      sstore\n        /* \"#utility.yul\":27371:27982   */\n      pop\n      pop\n      pop\n        /* \"#utility.yul\":27334:28221   */\n    tag_524:\n      pop\n        /* \"#utility.yul\":26924:28227   */\n      pop\n      pop\n      pop\n        /* \"#utility.yul\":26832:28227   */\n      pop\n      pop\n      jump\t// out\n        /* \"#utility.yul\":28233:28951   */\n    tag_175:\n        /* \"#utility.yul\":28480:28483   */\n      0x00\n        /* \"#utility.yul\":28502:28594   */\n      tag_535\n        /* \"#utility.yul\":28590:28593   */\n      dup3\n        /* \"#utility.yul\":28581:28587   */\n      dup8\n        /* \"#utility.yul\":28502:28594   */\n      tag_223\n      jump\t// in\n    tag_535:\n        /* \"#utility.yul\":28495:28594   */\n      swap2\n      pop\n        /* \"#utility.yul\":28611:28703   */\n      tag_536\n        /* \"#utility.yul\":28699:28702   */\n      dup3\n        /* \"#utility.yul\":28690:28696   */\n      dup7\n        /* \"#utility.yul\":28611:28703   */\n      tag_223\n      jump\t// in\n    tag_536:\n        /* \"#utility.yul\":28604:28703   */\n      swap2\n      pop\n        /* \"#utility.yul\":28720:28812   */\n      tag_537\n        /* \"#utility.yul\":28808:28811   */\n      dup3\n        /* \"#utility.yul\":28799:28805   */\n      dup6\n        /* \"#utility.yul\":28720:28812   */\n      tag_223\n      jump\t// in\n    tag_537:\n        /* \"#utility.yul\":28713:28812   */\n      swap2\n      pop\n        /* \"#utility.yul\":28822:28897   */\n      tag_538\n        /* \"#utility.yul\":28893:28896   */\n      dup3\n        /* \"#utility.yul\":28884:28890   */\n      dup5\n        /* \"#utility.yul\":28822:28897   */\n      tag_240\n      jump\t// in\n    tag_538:\n        /* \"#utility.yul\":28922:28924   */\n      0x14\n        /* \"#utility.yul\":28917:28920   */\n      dup3\n        /* \"#utility.yul\":28913:28925   */\n      add\n        /* \"#utility.yul\":28906:28925   */\n      swap2\n      pop\n        /* \"#utility.yul\":28942:28945   */\n      dup2\n        /* \"#utility.yul\":28935:28945   */\n      swap1\n      pop\n        /* \"#utility.yul\":28233:28951   */\n      swap6\n      swap5\n      pop\n      pop\n      pop\n      pop\n      pop\n      jump\t// out\n        /* \"#utility.yul\":28957:29130   */\n    tag_263:\n        /* \"#utility.yul\":29097:29122   */\n      0x5574656e7465206e6f6e204175746f72697a7a61746f21000000000000000000\n        /* \"#utility.yul\":29093:29094   */\n      0x00\n        /* \"#utility.yul\":29085:29091   */\n      dup3\n        /* \"#utility.yul\":29081:29095   */\n      add\n        /* \"#utility.yul\":29074:29123   */\n      mstore\n        /* \"#utility.yul\":28957:29130   */\n      pop\n      jump\t// out\n        /* \"#utility.yul\":29136:29502   */\n    tag_264:\n        /* \"#utility.yul\":29278:29281   */\n      0x00\n        /* \"#utility.yul\":29299:29366   */\n      tag_541\n        /* \"#utility.yul\":29363:29365   */\n      0x17\n        /* \"#utility.yul\":29358:29361   */\n      dup4\n        /* \"#utility.yul\":29299:29366   */\n      tag_216\n      jump\t// in\n    tag_541:\n        /* \"#utility.yul\":29292:29366   */\n      swap2\n      pop\n        /* \"#utility.yul\":29375:29468   */\n      tag_542\n        /* \"#utility.yul\":29464:29467   */\n      dup3\n        /* \"#utility.yul\":29375:29468   */\n      tag_263\n      jump\t// in\n    tag_542:\n        /* \"#utility.yul\":29493:29495   */\n      0x20\n        /* \"#utility.yul\":29488:29491   */\n      dup3\n        /* \"#utility.yul\":29484:29496   */\n      add\n        /* \"#utility.yul\":29477:29496   */\n      swap1\n      pop\n        /* \"#utility.yul\":29136:29502   */\n      swap2\n      swap1\n      pop\n      jump\t// out\n        /* \"#utility.yul\":29508:29927   */\n    tag_178:\n        /* \"#utility.yul\":29674:29678   */\n      0x00\n        /* \"#utility.yul\":29712:29714   */\n      0x20\n        /* \"#utility.yul\":29701:29710   */\n      dup3\n        /* \"#utility.yul\":29697:29715   */\n      add\n        /* \"#utility.yul\":29689:29715   */\n      swap1\n      pop\n        /* \"#utility.yul\":29761:29770   */\n      dup2\n        /* \"#utility.yul\":29755:29759   */\n      dup2\n        /* \"#utility.yul\":29751:29771   */\n      sub\n        /* \"#utility.yul\":29747:29748   */\n      0x00\n        /* \"#utility.yul\":29736:29745   */\n      dup4\n        /* \"#utility.yul\":29732:29749   */\n      add\n        /* \"#utility.yul\":29725:29772   */\n      mstore\n        /* \"#utility.yul\":29789:29920   */\n      tag_544\n        /* \"#utility.yul\":29915:29919   */\n      dup2\n        /* \"#utility.yul\":29789:29920   */\n      tag_264\n      jump\t// in\n    tag_544:\n        /* \"#utility.yul\":29781:29920   */\n      swap1\n      pop\n        /* \"#utility.yul\":29508:29927   */\n      swap2\n      swap1\n      pop\n      jump\t// out\n\n    auxdata: 0xa26469706673582212205dd0c9394fead973dc0774084420f124d0900c6224733c9750ed4ae11fdc983664736f6c63430008160033\n}\n",
				"bytecode": {
					"linkReferences": {},
					"object": "608060405234801561000f575f80fd5b50335f806101000a81548173ffffffffffffffffffffffffffffffffffffffff021916908373ffffffffffffffffffffffffffffffffffffffff1602179055506122318061005c5f395ff3fe608060405234801561000f575f80fd5b506004361061009c575f3560e01c806387d5173d1161006457806387d5173d14610194578063a5578807146101b0578063b48ff0f1146101e0578063ecca4073146101fc578063ed56bac51461022c5761009c565b806306f22b04146100a05780632b04e840146100d057806365f68c89146101005780636e44cd42146101305780636f77926b14610160575b5f80fd5b6100ba60048036038101906100b59190611557565b61025c565b6040516100c791906115f9565b60405180910390f35b6100ea60048036038101906100e59190611645565b610300565b6040516100f79190611692565b60405180910390f35b61011a600480360381019061011591906116ab565b610482565b6040516101279190611692565b60405180910390f35b61014a60048036038101906101459190611645565b610581565b6040516101579190611750565b60405180910390f35b61017a600480360381019061017591906116ab565b61078a565b60405161018b959493929190611770565b60405180910390f35b6101ae60048036038101906101a991906117d6565b610a82565b005b6101ca60048036038101906101c591906116ab565b610c46565b6040516101d791906115f9565b60405180910390f35b6101fa60048036038101906101f59190611826565b610cff565b005b61021660048036038101906102119190611645565b610f48565b6040516102239190611750565b60405180910390f35b61024660048036038101906102419190611645565b611151565b60405161025391906115f9565b60405180910390f35b5f8060015f8673ffffffffffffffffffffffffffffffffffffffff1673ffffffffffffffffffffffffffffffffffffffff1681526020019081526020015f20905083836040516020016102b0929190611918565b6040516020818303038152906040528051906020012081600301826002016040516020016102df929190611a2a565b60405160208183030381529060405280519060200120149150509392505050565b5f3073ffffffffffffffffffffffffffffffffffffffff1663a5578807846040518263ffffffff1660e01b815260040161033a9190611a5c565b602060405180830381865afa158015610355573d5f803e3d5ffd5b505050506040513d601f19601f820116820180604052508101906103799190611a9f565b6103b8576040517f08c379a00000000000000000000000000000000000000000000000000000000081526004016103af90611b14565b60405180910390fd5b8160015f8573ffffffffffffffffffffffffffffffffffffffff1673ffffffffffffffffffffffffffffffffffffffff1681526020019081526020015f205f015414610439576040517f08c379a000000000000000000000000000000000000000000000000000000000815260040161043090611b7c565b60405180910390fd5b60015f8473ffffffffffffffffffffffffffffffffffffffff1673ffffffffffffffffffffffffffffffffffffffff1681526020019081526020015f2060040154905092915050565b5f3073ffffffffffffffffffffffffffffffffffffffff1663a5578807836040518263ffffffff1660e01b81526004016104bc9190611a5c565b602060405180830381865afa1580156104d7573d5f803e3d5ffd5b505050506040513d601f19601f820116820180604052508101906104fb9190611a9f565b61053a576040517f08c379a000000000000000000000000000000000000000000000000000000000815260040161053190611b14565b60405180910390fd5b60015f8373ffffffffffffffffffffffffffffffffffffffff1673ffffffffffffffffffffffffffffffffffffffff1681526020019081526020015f205f01549050919050565b60603073ffffffffffffffffffffffffffffffffffffffff1663a5578807846040518263ffffffff1660e01b81526004016105bc9190611a5c565b602060405180830381865afa1580156105d7573d5f803e3d5ffd5b505050506040513d601f19601f820116820180604052508101906105fb9190611a9f565b61063a576040517f08c379a000000000000000000000000000000000000000000000000000000000815260040161063190611b14565b60405180910390fd5b8160015f8573ffffffffffffffffffffffffffffffffffffffff1673ffffffffffffffffffffffffffffffffffffffff1681526020019081526020015f205f0154146106bb576040517f08c379a00000000000000000000000000000000000000000000000000000000081526004016106b290611b7c565b60405180910390fd5b60015f8473ffffffffffffffffffffffffffffffffffffffff1673ffffffffffffffffffffffffffffffffffffffff1681526020019081526020015f20600101805461070690611968565b80601f016020809104026020016040519081016040528092919081815260200182805461073290611968565b801561077d5780601f106107545761010080835404028352916020019161077d565b820191905f5260205f20905b81548152906001019060200180831161076057829003601f168201915b5050505050905092915050565b5f60608060605f3073ffffffffffffffffffffffffffffffffffffffff1663a5578807876040518263ffffffff1660e01b81526004016107ca9190611a5c565b602060405180830381865afa1580156107e5573d5f803e3d5ffd5b505050506040513d601f19601f820116820180604052508101906108099190611a9f565b610848576040517f08c379a000000000000000000000000000000000000000000000000000000000815260040161083f90611be4565b60405180910390fd5b5f60015f8873ffffffffffffffffffffffffffffffffffffffff1673ffffffffffffffffffffffffffffffffffffffff1681526020019081526020015f206040518060a00160405290815f82015481526020016001820180546108aa90611968565b80601f01602080910402602001604051908101604052809291908181526020018280546108d690611968565b80156109215780601f106108f857610100808354040283529160200191610921565b820191905f5260205f20905b81548152906001019060200180831161090457829003601f168201915b5050505050815260200160028201805461093a90611968565b80601f016020809104026020016040519081016040528092919081815260200182805461096690611968565b80156109b15780601f10610988576101008083540402835291602001916109b1565b820191905f5260205f20905b81548152906001019060200180831161099457829003601f168201915b505050505081526020016003820180546109ca90611968565b80601f01602080910402602001604051908101604052809291908181526020018280546109f690611968565b8015610a415780601f10610a1857610100808354040283529160200191610a41565b820191905f5260205f20905b815481529060010190602001808311610a2457829003601f168201915b505050505081526020016004820154815250509050805f01518160200151826040015183606001518460800151955095509550955095505091939590929450565b5f8111610ac4576040517f08c379a0000000000000000000000000000000000000000000000000000000008152600401610abb90611c4c565b60405180910390fd5b3073ffffffffffffffffffffffffffffffffffffffff1663a5578807846040518263ffffffff1660e01b8152600401610afd9190611a5c565b602060405180830381865afa158015610b18573d5f803e3d5ffd5b505050506040513d601f19601f82011682018060405250810190610b3c9190611a9f565b610b7b576040517f08c379a0000000000000000000000000000000000000000000000000000000008152600401610b7290611b14565b60405180910390fd5b8160015f8573ffffffffffffffffffffffffffffffffffffffff1673ffffffffffffffffffffffffffffffffffffffff1681526020019081526020015f205f015414610bfc576040517f08c379a0000000000000000000000000000000000000000000000000000000008152600401610bf390611b7c565b60405180910390fd5b8060015f8573ffffffffffffffffffffffffffffffffffffffff1673ffffffffffffffffffffffffffffffffffffffff1681526020019081526020015f2060040181905550505050565b5f8073ffffffffffffffffffffffffffffffffffffffff168273ffffffffffffffffffffffffffffffffffffffff1603610cb5576040517f08c379a0000000000000000000000000000000000000000000000000000000008152600401610cac90611cb4565b60405180910390fd5b5f60015f8473ffffffffffffffffffffffffffffffffffffffff1673ffffffffffffffffffffffffffffffffffffffff1681526020019081526020015f205f015414159050919050565b5f84848484604051602001610d179493929190611d17565b6040516020818303038152906040528051906020012090505f815f1c90505f60015f8573ffffffffffffffffffffffffffffffffffffffff1673ffffffffffffffffffffffffffffffffffffffff1681526020019081526020015f205f015414610db6576040517f08c379a0000000000000000000000000000000000000000000000000000000008152600401610dad90611da2565b60405180910390fd5b5f865111610df9576040517f08c379a0000000000000000000000000000000000000000000000000000000008152600401610df090611e0a565b60405180910390fd5b5f855111610e3c576040517f08c379a0000000000000000000000000000000000000000000000000000000008152600401610e3390611e72565b60405180910390fd5b5f845111610e7f576040517f08c379a0000000000000000000000000000000000000000000000000000000008152600401610e7690611eda565b60405180910390fd5b5f6040518060a00160405280838152602001888152602001878152602001868152602001606481525090508060015f8673ffffffffffffffffffffffffffffffffffffffff1673ffffffffffffffffffffffffffffffffffffffff1681526020019081526020015f205f820151815f01556020820151816001019081610f059190612083565b506040820151816002019081610f1b9190612083565b506060820151816003019081610f319190612083565b506080820151816004015590505050505050505050565b60603073ffffffffffffffffffffffffffffffffffffffff1663a5578807846040518263ffffffff1660e01b8152600401610f839190611a5c565b602060405180830381865afa158015610f9e573d5f803e3d5ffd5b505050506040513d601f19601f82011682018060405250810190610fc29190611a9f565b611001576040517f08c379a0000000000000000000000000000000000000000000000000000000008152600401610ff890611b14565b60405180910390fd5b8160015f8573ffffffffffffffffffffffffffffffffffffffff1673ffffffffffffffffffffffffffffffffffffffff1681526020019081526020015f205f015414611082576040517f08c379a000000000000000000000000000000000000000000000000000000000815260040161107990611b7c565b60405180910390fd5b60015f8473ffffffffffffffffffffffffffffffffffffffff1673ffffffffffffffffffffffffffffffffffffffff1681526020019081526020015f2060030180546110cd90611968565b80601f01602080910402602001604051908101604052809291908181526020018280546110f990611968565b80156111445780601f1061111b57610100808354040283529160200191611144565b820191905f5260205f20905b81548152906001019060200180831161112757829003601f168201915b5050505050905092915050565b5f8060015f8573ffffffffffffffffffffffffffffffffffffffff1673ffffffffffffffffffffffffffffffffffffffff1681526020019081526020015f2060010160015f8673ffffffffffffffffffffffffffffffffffffffff1673ffffffffffffffffffffffffffffffffffffffff1681526020019081526020015f2060020160015f8773ffffffffffffffffffffffffffffffffffffffff1673ffffffffffffffffffffffffffffffffffffffff1681526020019081526020015f20600301866040516020016112279493929190612152565b604051602081830303815290604052805190602001205f1c9050828114611283576040517f08c379a000000000000000000000000000000000000000000000000000000000815260040161127a906121dd565b60405180910390fd5b60015f8573ffffffffffffffffffffffffffffffffffffffff1673ffffffffffffffffffffffffffffffffffffffff1681526020019081526020015f205f8082015f9055600182015f6112d69190611358565b600282015f6112e59190611358565b600382015f6112f49190611358565b600482015f905550505f60015f8673ffffffffffffffffffffffffffffffffffffffff1673ffffffffffffffffffffffffffffffffffffffff1681526020019081526020015f205f01540361134d576001915050611352565b5f9150505b92915050565b50805461136490611968565b5f825580601f106113755750611392565b601f0160209004905f5260205f20908101906113919190611395565b5b50565b5b808211156113ac575f815f905550600101611396565b5090565b5f604051905090565b5f80fd5b5f80fd5b5f73ffffffffffffffffffffffffffffffffffffffff82169050919050565b5f6113ea826113c1565b9050919050565b6113fa816113e0565b8114611404575f80fd5b50565b5f81359050611415816113f1565b92915050565b5f80fd5b5f80fd5b5f601f19601f8301169050919050565b7f4e487b71000000000000000000000000000000000000000000000000000000005f52604160045260245ffd5b61146982611423565b810181811067ffffffffffffffff8211171561148857611487611433565b5b80604052505050565b5f61149a6113b0565b90506114a68282611460565b919050565b5f67ffffffffffffffff8211156114c5576114c4611433565b5b6114ce82611423565b9050602081019050919050565b828183375f83830152505050565b5f6114fb6114f6846114ab565b611491565b9050828152602081018484840111156115175761151661141f565b5b6115228482856114db565b509392505050565b5f82601f83011261153e5761153d61141b565b5b813561154e8482602086016114e9565b91505092915050565b5f805f6060848603121561156e5761156d6113b9565b5b5f61157b86828701611407565b935050602084013567ffffffffffffffff81111561159c5761159b6113bd565b5b6115a88682870161152a565b925050604084013567ffffffffffffffff8111156115c9576115c86113bd565b5b6115d58682870161152a565b9150509250925092565b5f8115159050919050565b6115f3816115df565b82525050565b5f60208201905061160c5f8301846115ea565b92915050565b5f819050919050565b61162481611612565b811461162e575f80fd5b50565b5f8135905061163f8161161b565b92915050565b5f806040838503121561165b5761165a6113b9565b5b5f61166885828601611407565b925050602061167985828601611631565b9150509250929050565b61168c81611612565b82525050565b5f6020820190506116a55f830184611683565b92915050565b5f602082840312156116c0576116bf6113b9565b5b5f6116cd84828501611407565b91505092915050565b5f81519050919050565b5f82825260208201905092915050565b5f5b8381101561170d5780820151818401526020810190506116f2565b5f8484015250505050565b5f611722826116d6565b61172c81856116e0565b935061173c8185602086016116f0565b61174581611423565b840191505092915050565b5f6020820190508181035f8301526117688184611718565b905092915050565b5f60a0820190506117835f830188611683565b81810360208301526117958187611718565b905081810360408301526117a98186611718565b905081810360608301526117bd8185611718565b90506117cc6080830184611683565b9695505050505050565b5f805f606084860312156117ed576117ec6113b9565b5b5f6117fa86828701611407565b935050602061180b86828701611631565b925050604061181c86828701611631565b9150509250925092565b5f805f806080858703121561183e5761183d6113b9565b5b5f85013567ffffffffffffffff81111561185b5761185a6113bd565b5b6118678782880161152a565b945050602085013567ffffffffffffffff811115611888576118876113bd565b5b6118948782880161152a565b935050604085013567ffffffffffffffff8111156118b5576118b46113bd565b5b6118c18782880161152a565b92505060606118d287828801611407565b91505092959194509250565b5f81905092915050565b5f6118f2826116d6565b6118fc81856118de565b935061190c8185602086016116f0565b80840191505092915050565b5f61192382856118e8565b915061192f82846118e8565b91508190509392505050565b7f4e487b71000000000000000000000000000000000000000000000000000000005f52602260045260245ffd5b5f600282049050600182168061197f57607f821691505b6020821081036119925761199161193b565b5b50919050565b5f819050815f5260205f209050919050565b5f81546119b681611968565b6119c081866118de565b9450600182165f81146119da57600181146119ef57611a21565b60ff1983168652811515820286019350611a21565b6119f885611998565b5f5b83811015611a19578154818901526001820191506020810190506119fa565b838801955050505b50505092915050565b5f611a3582856119aa565b9150611a4182846119aa565b91508190509392505050565b611a56816113e0565b82525050565b5f602082019050611a6f5f830184611a4d565b92915050565b611a7e816115df565b8114611a88575f80fd5b50565b5f81519050611a9981611a75565b92915050565b5f60208284031215611ab457611ab36113b9565b5b5f611ac184828501611a8b565b91505092915050565b7f55736572204e6f7420466f756e642100000000000000000000000000000000005f82015250565b5f611afe600f836116e0565b9150611b0982611aca565b602082019050919050565b5f6020820190508181035f830152611b2b81611af2565b9050919050565b7f537472756374206e6f742056616c6964210000000000000000000000000000005f82015250565b5f611b666011836116e0565b9150611b7182611b32565b602082019050919050565b5f6020820190508181035f830152611b9381611b5a565b9050919050565b7f5574656e7465206e6f6e2070726573656e7465210000000000000000000000005f82015250565b5f611bce6014836116e0565b9150611bd982611b9a565b602082019050919050565b5f6020820190508181035f830152611bfb81611bc2565b9050919050565b7f42616c616e6365204e6f742056616c69640000000000000000000000000000005f82015250565b5f611c366011836116e0565b9150611c4182611c02565b602082019050919050565b5f6020820190508181035f830152611c6381611c2a565b9050919050565b7f41646472657373204d696c6b487562206e6f6e2076616c69646f2100000000005f82015250565b5f611c9e601b836116e0565b9150611ca982611c6a565b602082019050919050565b5f6020820190508181035f830152611ccb81611c92565b9050919050565b5f8160601b9050919050565b5f611ce882611cd2565b9050919050565b5f611cf982611cde565b9050919050565b611d11611d0c826113e0565b611cef565b82525050565b5f611d2282876118e8565b9150611d2e82866118e8565b9150611d3a82856118e8565b9150611d468284611d00565b60148201915081905095945050505050565b7f4d696c6b48756220616c726561647920726567697374657265640000000000005f82015250565b5f611d8c601a836116e0565b9150611d9782611d58565b602082019050919050565b5f6020820190508181035f830152611db981611d80565b9050919050565b7f46756c6c206e616d652063616e6e6f7420626520656d707479000000000000005f82015250565b5f611df46019836116e0565b9150611dff82611dc0565b602082019050919050565b5f6020820190508181035f830152611e2181611de8565b9050919050565b7f50617373776f72642063616e6e6f7420626520656d70747900000000000000005f82015250565b5f611e5c6018836116e0565b9150611e6782611e28565b602082019050919050565b5f6020820190508181035f830152611e8981611e50565b9050919050565b7f456d61696c2063616e6e6f7420626520656d70747900000000000000000000005f82015250565b5f611ec46015836116e0565b9150611ecf82611e90565b602082019050919050565b5f6020820190508181035f830152611ef181611eb8565b9050919050565b5f6020601f8301049050919050565b5f82821b905092915050565b5f60088302611f427fffffffffffffffffffffffffffffffffffffffffffffffffffffffffffffffff82611f07565b611f4c8683611f07565b95508019841693508086168417925050509392505050565b5f819050919050565b5f611f87611f82611f7d84611612565b611f64565b611612565b9050919050565b5f819050919050565b611fa083611f6d565b611fb4611fac82611f8e565b848454611f13565b825550505050565b5f90565b611fc8611fbc565b611fd3818484611f97565b505050565b5b81811015611ff657611feb5f82611fc0565b600181019050611fd9565b5050565b601f82111561203b5761200c81611998565b61201584611ef8565b81016020851015612024578190505b61203861203085611ef8565b830182611fd8565b50505b505050565b5f82821c905092915050565b5f61205b5f1984600802612040565b1980831691505092915050565b5f612073838361204c565b9150826002028217905092915050565b61208c826116d6565b67ffffffffffffffff8111156120a5576120a4611433565b5b6120af8254611968565b6120ba828285611ffa565b5f60209050601f8311600181146120eb575f84156120d9578287015190505b6120e38582612068565b86555061214a565b601f1984166120f986611998565b5f5b82811015612120578489015182556001820191506020850194506020810190506120fb565b8683101561213d5784890151612139601f89168261204c565b8355505b6001600288020188555050505b505050505050565b5f61215d82876119aa565b915061216982866119aa565b915061217582856119aa565b91506121818284611d00565b60148201915081905095945050505050565b7f5574656e7465206e6f6e204175746f72697a7a61746f210000000000000000005f82015250565b5f6121c76017836116e0565b91506121d282612193565b602082019050919050565b5f6020820190508181035f8301526121f4816121bb565b905091905056fea26469706673582212205dd0c9394fead973dc0774084420f124d0900c6224733c9750ed4ae11fdc983664736f6c63430008160033",
					"opcodes": "PUSH1 0x80 PUSH1 0x40 MSTORE CALLVALUE DUP1 ISZERO PUSH2 0xF JUMPI PUSH0 DUP1 REVERT JUMPDEST POP CALLER PUSH0 DUP1 PUSH2 0x100 EXP DUP2 SLOAD DUP2 PUSH20 0xFFFFFFFFFFFFFFFFFFFFFFFFFFFFFFFFFFFFFFFF MUL NOT AND SWAP1 DUP4 PUSH20 0xFFFFFFFFFFFFFFFFFFFFFFFFFFFFFFFFFFFFFFFF AND MUL OR SWAP1 SSTORE POP PUSH2 0x2231 DUP1 PUSH2 0x5C PUSH0 CODECOPY PUSH0 RETURN INVALID PUSH1 0x80 PUSH1 0x40 MSTORE CALLVALUE DUP1 ISZERO PUSH2 0xF JUMPI PUSH0 DUP1 REVERT JUMPDEST POP PUSH1 0x4 CALLDATASIZE LT PUSH2 0x9C JUMPI PUSH0 CALLDATALOAD PUSH1 0xE0 SHR DUP1 PUSH4 0x87D5173D GT PUSH2 0x64 JUMPI DUP1 PUSH4 0x87D5173D EQ PUSH2 0x194 JUMPI DUP1 PUSH4 0xA5578807 EQ PUSH2 0x1B0 JUMPI DUP1 PUSH4 0xB48FF0F1 EQ PUSH2 0x1E0 JUMPI DUP1 PUSH4 0xECCA4073 EQ PUSH2 0x1FC JUMPI DUP1 PUSH4 0xED56BAC5 EQ PUSH2 0x22C JUMPI PUSH2 0x9C JUMP JUMPDEST DUP1 PUSH4 0x6F22B04 EQ PUSH2 0xA0 JUMPI DUP1 PUSH4 0x2B04E840 EQ PUSH2 0xD0 JUMPI DUP1 PUSH4 0x65F68C89 EQ PUSH2 0x100 JUMPI DUP1 PUSH4 0x6E44CD42 EQ PUSH2 0x130 JUMPI DUP1 PUSH4 0x6F77926B EQ PUSH2 0x160 JUMPI JUMPDEST PUSH0 DUP1 REVERT JUMPDEST PUSH2 0xBA PUSH1 0x4 DUP1 CALLDATASIZE SUB DUP2 ADD SWAP1 PUSH2 0xB5 SWAP2 SWAP1 PUSH2 0x1557 JUMP JUMPDEST PUSH2 0x25C JUMP JUMPDEST PUSH1 0x40 MLOAD PUSH2 0xC7 SWAP2 SWAP1 PUSH2 0x15F9 JUMP JUMPDEST PUSH1 0x40 MLOAD DUP1 SWAP2 SUB SWAP1 RETURN JUMPDEST PUSH2 0xEA PUSH1 0x4 DUP1 CALLDATASIZE SUB DUP2 ADD SWAP1 PUSH2 0xE5 SWAP2 SWAP1 PUSH2 0x1645 JUMP JUMPDEST PUSH2 0x300 JUMP JUMPDEST PUSH1 0x40 MLOAD PUSH2 0xF7 SWAP2 SWAP1 PUSH2 0x1692 JUMP JUMPDEST PUSH1 0x40 MLOAD DUP1 SWAP2 SUB SWAP1 RETURN JUMPDEST PUSH2 0x11A PUSH1 0x4 DUP1 CALLDATASIZE SUB DUP2 ADD SWAP1 PUSH2 0x115 SWAP2 SWAP1 PUSH2 0x16AB JUMP JUMPDEST PUSH2 0x482 JUMP JUMPDEST PUSH1 0x40 MLOAD PUSH2 0x127 SWAP2 SWAP1 PUSH2 0x1692 JUMP JUMPDEST PUSH1 0x40 MLOAD DUP1 SWAP2 SUB SWAP1 RETURN JUMPDEST PUSH2 0x14A PUSH1 0x4 DUP1 CALLDATASIZE SUB DUP2 ADD SWAP1 PUSH2 0x145 SWAP2 SWAP1 PUSH2 0x1645 JUMP JUMPDEST PUSH2 0x581 JUMP JUMPDEST PUSH1 0x40 MLOAD PUSH2 0x157 SWAP2 SWAP1 PUSH2 0x1750 JUMP JUMPDEST PUSH1 0x40 MLOAD DUP1 SWAP2 SUB SWAP1 RETURN JUMPDEST PUSH2 0x17A PUSH1 0x4 DUP1 CALLDATASIZE SUB DUP2 ADD SWAP1 PUSH2 0x175 SWAP2 SWAP1 PUSH2 0x16AB JUMP JUMPDEST PUSH2 0x78A JUMP JUMPDEST PUSH1 0x40 MLOAD PUSH2 0x18B SWAP6 SWAP5 SWAP4 SWAP3 SWAP2 SWAP1 PUSH2 0x1770 JUMP JUMPDEST PUSH1 0x40 MLOAD DUP1 SWAP2 SUB SWAP1 RETURN JUMPDEST PUSH2 0x1AE PUSH1 0x4 DUP1 CALLDATASIZE SUB DUP2 ADD SWAP1 PUSH2 0x1A9 SWAP2 SWAP1 PUSH2 0x17D6 JUMP JUMPDEST PUSH2 0xA82 JUMP JUMPDEST STOP JUMPDEST PUSH2 0x1CA PUSH1 0x4 DUP1 CALLDATASIZE SUB DUP2 ADD SWAP1 PUSH2 0x1C5 SWAP2 SWAP1 PUSH2 0x16AB JUMP JUMPDEST PUSH2 0xC46 JUMP JUMPDEST PUSH1 0x40 MLOAD PUSH2 0x1D7 SWAP2 SWAP1 PUSH2 0x15F9 JUMP JUMPDEST PUSH1 0x40 MLOAD DUP1 SWAP2 SUB SWAP1 RETURN JUMPDEST PUSH2 0x1FA PUSH1 0x4 DUP1 CALLDATASIZE SUB DUP2 ADD SWAP1 PUSH2 0x1F5 SWAP2 SWAP1 PUSH2 0x1826 JUMP JUMPDEST PUSH2 0xCFF JUMP JUMPDEST STOP JUMPDEST PUSH2 0x216 PUSH1 0x4 DUP1 CALLDATASIZE SUB DUP2 ADD SWAP1 PUSH2 0x211 SWAP2 SWAP1 PUSH2 0x1645 JUMP JUMPDEST PUSH2 0xF48 JUMP JUMPDEST PUSH1 0x40 MLOAD PUSH2 0x223 SWAP2 SWAP1 PUSH2 0x1750 JUMP JUMPDEST PUSH1 0x40 MLOAD DUP1 SWAP2 SUB SWAP1 RETURN JUMPDEST PUSH2 0x246 PUSH1 0x4 DUP1 CALLDATASIZE SUB DUP2 ADD SWAP1 PUSH2 0x241 SWAP2 SWAP1 PUSH2 0x1645 JUMP JUMPDEST PUSH2 0x1151 JUMP JUMPDEST PUSH1 0x40 MLOAD PUSH2 0x253 SWAP2 SWAP1 PUSH2 0x15F9 JUMP JUMPDEST PUSH1 0x40 MLOAD DUP1 SWAP2 SUB SWAP1 RETURN JUMPDEST PUSH0 DUP1 PUSH1 0x1 PUSH0 DUP7 PUSH20 0xFFFFFFFFFFFFFFFFFFFFFFFFFFFFFFFFFFFFFFFF AND PUSH20 0xFFFFFFFFFFFFFFFFFFFFFFFFFFFFFFFFFFFFFFFF AND DUP2 MSTORE PUSH1 0x20 ADD SWAP1 DUP2 MSTORE PUSH1 0x20 ADD PUSH0 KECCAK256 SWAP1 POP DUP4 DUP4 PUSH1 0x40 MLOAD PUSH1 0x20 ADD PUSH2 0x2B0 SWAP3 SWAP2 SWAP1 PUSH2 0x1918 JUMP JUMPDEST PUSH1 0x40 MLOAD PUSH1 0x20 DUP2 DUP4 SUB SUB DUP2 MSTORE SWAP1 PUSH1 0x40 MSTORE DUP1 MLOAD SWAP1 PUSH1 0x20 ADD KECCAK256 DUP2 PUSH1 0x3 ADD DUP3 PUSH1 0x2 ADD PUSH1 0x40 MLOAD PUSH1 0x20 ADD PUSH2 0x2DF SWAP3 SWAP2 SWAP1 PUSH2 0x1A2A JUMP JUMPDEST PUSH1 0x40 MLOAD PUSH1 0x20 DUP2 DUP4 SUB SUB DUP2 MSTORE SWAP1 PUSH1 0x40 MSTORE DUP1 MLOAD SWAP1 PUSH1 0x20 ADD KECCAK256 EQ SWAP2 POP POP SWAP4 SWAP3 POP POP POP JUMP JUMPDEST PUSH0 ADDRESS PUSH20 0xFFFFFFFFFFFFFFFFFFFFFFFFFFFFFFFFFFFFFFFF AND PUSH4 0xA5578807 DUP5 PUSH1 0x40 MLOAD DUP3 PUSH4 0xFFFFFFFF AND PUSH1 0xE0 SHL DUP2 MSTORE PUSH1 0x4 ADD PUSH2 0x33A SWAP2 SWAP1 PUSH2 0x1A5C JUMP JUMPDEST PUSH1 0x20 PUSH1 0x40 MLOAD DUP1 DUP4 SUB DUP2 DUP7 GAS STATICCALL ISZERO DUP1 ISZERO PUSH2 0x355 JUMPI RETURNDATASIZE PUSH0 DUP1 RETURNDATACOPY RETURNDATASIZE PUSH0 REVERT JUMPDEST POP POP POP POP PUSH1 0x40 MLOAD RETURNDATASIZE PUSH1 0x1F NOT PUSH1 0x1F DUP3 ADD AND DUP3 ADD DUP1 PUSH1 0x40 MSTORE POP DUP2 ADD SWAP1 PUSH2 0x379 SWAP2 SWAP1 PUSH2 0x1A9F JUMP JUMPDEST PUSH2 0x3B8 JUMPI PUSH1 0x40 MLOAD PUSH32 0x8C379A000000000000000000000000000000000000000000000000000000000 DUP2 MSTORE PUSH1 0x4 ADD PUSH2 0x3AF SWAP1 PUSH2 0x1B14 JUMP JUMPDEST PUSH1 0x40 MLOAD DUP1 SWAP2 SUB SWAP1 REVERT JUMPDEST DUP2 PUSH1 0x1 PUSH0 DUP6 PUSH20 0xFFFFFFFFFFFFFFFFFFFFFFFFFFFFFFFFFFFFFFFF AND PUSH20 0xFFFFFFFFFFFFFFFFFFFFFFFFFFFFFFFFFFFFFFFF AND DUP2 MSTORE PUSH1 0x20 ADD SWAP1 DUP2 MSTORE PUSH1 0x20 ADD PUSH0 KECCAK256 PUSH0 ADD SLOAD EQ PUSH2 0x439 JUMPI PUSH1 0x40 MLOAD PUSH32 0x8C379A000000000000000000000000000000000000000000000000000000000 DUP2 MSTORE PUSH1 0x4 ADD PUSH2 0x430 SWAP1 PUSH2 0x1B7C JUMP JUMPDEST PUSH1 0x40 MLOAD DUP1 SWAP2 SUB SWAP1 REVERT JUMPDEST PUSH1 0x1 PUSH0 DUP5 PUSH20 0xFFFFFFFFFFFFFFFFFFFFFFFFFFFFFFFFFFFFFFFF AND PUSH20 0xFFFFFFFFFFFFFFFFFFFFFFFFFFFFFFFFFFFFFFFF AND DUP2 MSTORE PUSH1 0x20 ADD SWAP1 DUP2 MSTORE PUSH1 0x20 ADD PUSH0 KECCAK256 PUSH1 0x4 ADD SLOAD SWAP1 POP SWAP3 SWAP2 POP POP JUMP JUMPDEST PUSH0 ADDRESS PUSH20 0xFFFFFFFFFFFFFFFFFFFFFFFFFFFFFFFFFFFFFFFF AND PUSH4 0xA5578807 DUP4 PUSH1 0x40 MLOAD DUP3 PUSH4 0xFFFFFFFF AND PUSH1 0xE0 SHL DUP2 MSTORE PUSH1 0x4 ADD PUSH2 0x4BC SWAP2 SWAP1 PUSH2 0x1A5C JUMP JUMPDEST PUSH1 0x20 PUSH1 0x40 MLOAD DUP1 DUP4 SUB DUP2 DUP7 GAS STATICCALL ISZERO DUP1 ISZERO PUSH2 0x4D7 JUMPI RETURNDATASIZE PUSH0 DUP1 RETURNDATACOPY RETURNDATASIZE PUSH0 REVERT JUMPDEST POP POP POP POP PUSH1 0x40 MLOAD RETURNDATASIZE PUSH1 0x1F NOT PUSH1 0x1F DUP3 ADD AND DUP3 ADD DUP1 PUSH1 0x40 MSTORE POP DUP2 ADD SWAP1 PUSH2 0x4FB SWAP2 SWAP1 PUSH2 0x1A9F JUMP JUMPDEST PUSH2 0x53A JUMPI PUSH1 0x40 MLOAD PUSH32 0x8C379A000000000000000000000000000000000000000000000000000000000 DUP2 MSTORE PUSH1 0x4 ADD PUSH2 0x531 SWAP1 PUSH2 0x1B14 JUMP JUMPDEST PUSH1 0x40 MLOAD DUP1 SWAP2 SUB SWAP1 REVERT JUMPDEST PUSH1 0x1 PUSH0 DUP4 PUSH20 0xFFFFFFFFFFFFFFFFFFFFFFFFFFFFFFFFFFFFFFFF AND PUSH20 0xFFFFFFFFFFFFFFFFFFFFFFFFFFFFFFFFFFFFFFFF AND DUP2 MSTORE PUSH1 0x20 ADD SWAP1 DUP2 MSTORE PUSH1 0x20 ADD PUSH0 KECCAK256 PUSH0 ADD SLOAD SWAP1 POP SWAP2 SWAP1 POP JUMP JUMPDEST PUSH1 0x60 ADDRESS PUSH20 0xFFFFFFFFFFFFFFFFFFFFFFFFFFFFFFFFFFFFFFFF AND PUSH4 0xA5578807 DUP5 PUSH1 0x40 MLOAD DUP3 PUSH4 0xFFFFFFFF AND PUSH1 0xE0 SHL DUP2 MSTORE PUSH1 0x4 ADD PUSH2 0x5BC SWAP2 SWAP1 PUSH2 0x1A5C JUMP JUMPDEST PUSH1 0x20 PUSH1 0x40 MLOAD DUP1 DUP4 SUB DUP2 DUP7 GAS STATICCALL ISZERO DUP1 ISZERO PUSH2 0x5D7 JUMPI RETURNDATASIZE PUSH0 DUP1 RETURNDATACOPY RETURNDATASIZE PUSH0 REVERT JUMPDEST POP POP POP POP PUSH1 0x40 MLOAD RETURNDATASIZE PUSH1 0x1F NOT PUSH1 0x1F DUP3 ADD AND DUP3 ADD DUP1 PUSH1 0x40 MSTORE POP DUP2 ADD SWAP1 PUSH2 0x5FB SWAP2 SWAP1 PUSH2 0x1A9F JUMP JUMPDEST PUSH2 0x63A JUMPI PUSH1 0x40 MLOAD PUSH32 0x8C379A000000000000000000000000000000000000000000000000000000000 DUP2 MSTORE PUSH1 0x4 ADD PUSH2 0x631 SWAP1 PUSH2 0x1B14 JUMP JUMPDEST PUSH1 0x40 MLOAD DUP1 SWAP2 SUB SWAP1 REVERT JUMPDEST DUP2 PUSH1 0x1 PUSH0 DUP6 PUSH20 0xFFFFFFFFFFFFFFFFFFFFFFFFFFFFFFFFFFFFFFFF AND PUSH20 0xFFFFFFFFFFFFFFFFFFFFFFFFFFFFFFFFFFFFFFFF AND DUP2 MSTORE PUSH1 0x20 ADD SWAP1 DUP2 MSTORE PUSH1 0x20 ADD PUSH0 KECCAK256 PUSH0 ADD SLOAD EQ PUSH2 0x6BB JUMPI PUSH1 0x40 MLOAD PUSH32 0x8C379A000000000000000000000000000000000000000000000000000000000 DUP2 MSTORE PUSH1 0x4 ADD PUSH2 0x6B2 SWAP1 PUSH2 0x1B7C JUMP JUMPDEST PUSH1 0x40 MLOAD DUP1 SWAP2 SUB SWAP1 REVERT JUMPDEST PUSH1 0x1 PUSH0 DUP5 PUSH20 0xFFFFFFFFFFFFFFFFFFFFFFFFFFFFFFFFFFFFFFFF AND PUSH20 0xFFFFFFFFFFFFFFFFFFFFFFFFFFFFFFFFFFFFFFFF AND DUP2 MSTORE PUSH1 0x20 ADD SWAP1 DUP2 MSTORE PUSH1 0x20 ADD PUSH0 KECCAK256 PUSH1 0x1 ADD DUP1 SLOAD PUSH2 0x706 SWAP1 PUSH2 0x1968 JUMP JUMPDEST DUP1 PUSH1 0x1F ADD PUSH1 0x20 DUP1 SWAP2 DIV MUL PUSH1 0x20 ADD PUSH1 0x40 MLOAD SWAP1 DUP2 ADD PUSH1 0x40 MSTORE DUP1 SWAP3 SWAP2 SWAP1 DUP2 DUP2 MSTORE PUSH1 0x20 ADD DUP3 DUP1 SLOAD PUSH2 0x732 SWAP1 PUSH2 0x1968 JUMP JUMPDEST DUP1 ISZERO PUSH2 0x77D JUMPI DUP1 PUSH1 0x1F LT PUSH2 0x754 JUMPI PUSH2 0x100 DUP1 DUP4 SLOAD DIV MUL DUP4 MSTORE SWAP2 PUSH1 0x20 ADD SWAP2 PUSH2 0x77D JUMP JUMPDEST DUP3 ADD SWAP2 SWAP1 PUSH0 MSTORE PUSH1 0x20 PUSH0 KECCAK256 SWAP1 JUMPDEST DUP2 SLOAD DUP2 MSTORE SWAP1 PUSH1 0x1 ADD SWAP1 PUSH1 0x20 ADD DUP1 DUP4 GT PUSH2 0x760 JUMPI DUP3 SWAP1 SUB PUSH1 0x1F AND DUP3 ADD SWAP2 JUMPDEST POP POP POP POP POP SWAP1 POP SWAP3 SWAP2 POP POP JUMP JUMPDEST PUSH0 PUSH1 0x60 DUP1 PUSH1 0x60 PUSH0 ADDRESS PUSH20 0xFFFFFFFFFFFFFFFFFFFFFFFFFFFFFFFFFFFFFFFF AND PUSH4 0xA5578807 DUP8 PUSH1 0x40 MLOAD DUP3 PUSH4 0xFFFFFFFF AND PUSH1 0xE0 SHL DUP2 MSTORE PUSH1 0x4 ADD PUSH2 0x7CA SWAP2 SWAP1 PUSH2 0x1A5C JUMP JUMPDEST PUSH1 0x20 PUSH1 0x40 MLOAD DUP1 DUP4 SUB DUP2 DUP7 GAS STATICCALL ISZERO DUP1 ISZERO PUSH2 0x7E5 JUMPI RETURNDATASIZE PUSH0 DUP1 RETURNDATACOPY RETURNDATASIZE PUSH0 REVERT JUMPDEST POP POP POP POP PUSH1 0x40 MLOAD RETURNDATASIZE PUSH1 0x1F NOT PUSH1 0x1F DUP3 ADD AND DUP3 ADD DUP1 PUSH1 0x40 MSTORE POP DUP2 ADD SWAP1 PUSH2 0x809 SWAP2 SWAP1 PUSH2 0x1A9F JUMP JUMPDEST PUSH2 0x848 JUMPI PUSH1 0x40 MLOAD PUSH32 0x8C379A000000000000000000000000000000000000000000000000000000000 DUP2 MSTORE PUSH1 0x4 ADD PUSH2 0x83F SWAP1 PUSH2 0x1BE4 JUMP JUMPDEST PUSH1 0x40 MLOAD DUP1 SWAP2 SUB SWAP1 REVERT JUMPDEST PUSH0 PUSH1 0x1 PUSH0 DUP9 PUSH20 0xFFFFFFFFFFFFFFFFFFFFFFFFFFFFFFFFFFFFFFFF AND PUSH20 0xFFFFFFFFFFFFFFFFFFFFFFFFFFFFFFFFFFFFFFFF AND DUP2 MSTORE PUSH1 0x20 ADD SWAP1 DUP2 MSTORE PUSH1 0x20 ADD PUSH0 KECCAK256 PUSH1 0x40 MLOAD DUP1 PUSH1 0xA0 ADD PUSH1 0x40 MSTORE SWAP1 DUP2 PUSH0 DUP3 ADD SLOAD DUP2 MSTORE PUSH1 0x20 ADD PUSH1 0x1 DUP3 ADD DUP1 SLOAD PUSH2 0x8AA SWAP1 PUSH2 0x1968 JUMP JUMPDEST DUP1 PUSH1 0x1F ADD PUSH1 0x20 DUP1 SWAP2 DIV MUL PUSH1 0x20 ADD PUSH1 0x40 MLOAD SWAP1 DUP2 ADD PUSH1 0x40 MSTORE DUP1 SWAP3 SWAP2 SWAP1 DUP2 DUP2 MSTORE PUSH1 0x20 ADD DUP3 DUP1 SLOAD PUSH2 0x8D6 SWAP1 PUSH2 0x1968 JUMP JUMPDEST DUP1 ISZERO PUSH2 0x921 JUMPI DUP1 PUSH1 0x1F LT PUSH2 0x8F8 JUMPI PUSH2 0x100 DUP1 DUP4 SLOAD DIV MUL DUP4 MSTORE SWAP2 PUSH1 0x20 ADD SWAP2 PUSH2 0x921 JUMP JUMPDEST DUP3 ADD SWAP2 SWAP1 PUSH0 MSTORE PUSH1 0x20 PUSH0 KECCAK256 SWAP1 JUMPDEST DUP2 SLOAD DUP2 MSTORE SWAP1 PUSH1 0x1 ADD SWAP1 PUSH1 0x20 ADD DUP1 DUP4 GT PUSH2 0x904 JUMPI DUP3 SWAP1 SUB PUSH1 0x1F AND DUP3 ADD SWAP2 JUMPDEST POP POP POP POP POP DUP2 MSTORE PUSH1 0x20 ADD PUSH1 0x2 DUP3 ADD DUP1 SLOAD PUSH2 0x93A SWAP1 PUSH2 0x1968 JUMP JUMPDEST DUP1 PUSH1 0x1F ADD PUSH1 0x20 DUP1 SWAP2 DIV MUL PUSH1 0x20 ADD PUSH1 0x40 MLOAD SWAP1 DUP2 ADD PUSH1 0x40 MSTORE DUP1 SWAP3 SWAP2 SWAP1 DUP2 DUP2 MSTORE PUSH1 0x20 ADD DUP3 DUP1 SLOAD PUSH2 0x966 SWAP1 PUSH2 0x1968 JUMP JUMPDEST DUP1 ISZERO PUSH2 0x9B1 JUMPI DUP1 PUSH1 0x1F LT PUSH2 0x988 JUMPI PUSH2 0x100 DUP1 DUP4 SLOAD DIV MUL DUP4 MSTORE SWAP2 PUSH1 0x20 ADD SWAP2 PUSH2 0x9B1 JUMP JUMPDEST DUP3 ADD SWAP2 SWAP1 PUSH0 MSTORE PUSH1 0x20 PUSH0 KECCAK256 SWAP1 JUMPDEST DUP2 SLOAD DUP2 MSTORE SWAP1 PUSH1 0x1 ADD SWAP1 PUSH1 0x20 ADD DUP1 DUP4 GT PUSH2 0x994 JUMPI DUP3 SWAP1 SUB PUSH1 0x1F AND DUP3 ADD SWAP2 JUMPDEST POP POP POP POP POP DUP2 MSTORE PUSH1 0x20 ADD PUSH1 0x3 DUP3 ADD DUP1 SLOAD PUSH2 0x9CA SWAP1 PUSH2 0x1968 JUMP JUMPDEST DUP1 PUSH1 0x1F ADD PUSH1 0x20 DUP1 SWAP2 DIV MUL PUSH1 0x20 ADD PUSH1 0x40 MLOAD SWAP1 DUP2 ADD PUSH1 0x40 MSTORE DUP1 SWAP3 SWAP2 SWAP1 DUP2 DUP2 MSTORE PUSH1 0x20 ADD DUP3 DUP1 SLOAD PUSH2 0x9F6 SWAP1 PUSH2 0x1968 JUMP JUMPDEST DUP1 ISZERO PUSH2 0xA41 JUMPI DUP1 PUSH1 0x1F LT PUSH2 0xA18 JUMPI PUSH2 0x100 DUP1 DUP4 SLOAD DIV MUL DUP4 MSTORE SWAP2 PUSH1 0x20 ADD SWAP2 PUSH2 0xA41 JUMP JUMPDEST DUP3 ADD SWAP2 SWAP1 PUSH0 MSTORE PUSH1 0x20 PUSH0 KECCAK256 SWAP1 JUMPDEST DUP2 SLOAD DUP2 MSTORE SWAP1 PUSH1 0x1 ADD SWAP1 PUSH1 0x20 ADD DUP1 DUP4 GT PUSH2 0xA24 JUMPI DUP3 SWAP1 SUB PUSH1 0x1F AND DUP3 ADD SWAP2 JUMPDEST POP POP POP POP POP DUP2 MSTORE PUSH1 0x20 ADD PUSH1 0x4 DUP3 ADD SLOAD DUP2 MSTORE POP POP SWAP1 POP DUP1 PUSH0 ADD MLOAD DUP2 PUSH1 0x20 ADD MLOAD DUP3 PUSH1 0x40 ADD MLOAD DUP4 PUSH1 0x60 ADD MLOAD DUP5 PUSH1 0x80 ADD MLOAD SWAP6 POP SWAP6 POP SWAP6 POP SWAP6 POP SWAP6 POP POP SWAP2 SWAP4 SWAP6 SWAP1 SWAP3 SWAP5 POP JUMP JUMPDEST PUSH0 DUP2 GT PUSH2 0xAC4 JUMPI PUSH1 0x40 MLOAD PUSH32 0x8C379A000000000000000000000000000000000000000000000000000000000 DUP2 MSTORE PUSH1 0x4 ADD PUSH2 0xABB SWAP1 PUSH2 0x1C4C JUMP JUMPDEST PUSH1 0x40 MLOAD DUP1 SWAP2 SUB SWAP1 REVERT JUMPDEST ADDRESS PUSH20 0xFFFFFFFFFFFFFFFFFFFFFFFFFFFFFFFFFFFFFFFF AND PUSH4 0xA5578807 DUP5 PUSH1 0x40 MLOAD DUP3 PUSH4 0xFFFFFFFF AND PUSH1 0xE0 SHL DUP2 MSTORE PUSH1 0x4 ADD PUSH2 0xAFD SWAP2 SWAP1 PUSH2 0x1A5C JUMP JUMPDEST PUSH1 0x20 PUSH1 0x40 MLOAD DUP1 DUP4 SUB DUP2 DUP7 GAS STATICCALL ISZERO DUP1 ISZERO PUSH2 0xB18 JUMPI RETURNDATASIZE PUSH0 DUP1 RETURNDATACOPY RETURNDATASIZE PUSH0 REVERT JUMPDEST POP POP POP POP PUSH1 0x40 MLOAD RETURNDATASIZE PUSH1 0x1F NOT PUSH1 0x1F DUP3 ADD AND DUP3 ADD DUP1 PUSH1 0x40 MSTORE POP DUP2 ADD SWAP1 PUSH2 0xB3C SWAP2 SWAP1 PUSH2 0x1A9F JUMP JUMPDEST PUSH2 0xB7B JUMPI PUSH1 0x40 MLOAD PUSH32 0x8C379A000000000000000000000000000000000000000000000000000000000 DUP2 MSTORE PUSH1 0x4 ADD PUSH2 0xB72 SWAP1 PUSH2 0x1B14 JUMP JUMPDEST PUSH1 0x40 MLOAD DUP1 SWAP2 SUB SWAP1 REVERT JUMPDEST DUP2 PUSH1 0x1 PUSH0 DUP6 PUSH20 0xFFFFFFFFFFFFFFFFFFFFFFFFFFFFFFFFFFFFFFFF AND PUSH20 0xFFFFFFFFFFFFFFFFFFFFFFFFFFFFFFFFFFFFFFFF AND DUP2 MSTORE PUSH1 0x20 ADD SWAP1 DUP2 MSTORE PUSH1 0x20 ADD PUSH0 KECCAK256 PUSH0 ADD SLOAD EQ PUSH2 0xBFC JUMPI PUSH1 0x40 MLOAD PUSH32 0x8C379A000000000000000000000000000000000000000000000000000000000 DUP2 MSTORE PUSH1 0x4 ADD PUSH2 0xBF3 SWAP1 PUSH2 0x1B7C JUMP JUMPDEST PUSH1 0x40 MLOAD DUP1 SWAP2 SUB SWAP1 REVERT JUMPDEST DUP1 PUSH1 0x1 PUSH0 DUP6 PUSH20 0xFFFFFFFFFFFFFFFFFFFFFFFFFFFFFFFFFFFFFFFF AND PUSH20 0xFFFFFFFFFFFFFFFFFFFFFFFFFFFFFFFFFFFFFFFF AND DUP2 MSTORE PUSH1 0x20 ADD SWAP1 DUP2 MSTORE PUSH1 0x20 ADD PUSH0 KECCAK256 PUSH1 0x4 ADD DUP2 SWAP1 SSTORE POP POP POP POP JUMP JUMPDEST PUSH0 DUP1 PUSH20 0xFFFFFFFFFFFFFFFFFFFFFFFFFFFFFFFFFFFFFFFF AND DUP3 PUSH20 0xFFFFFFFFFFFFFFFFFFFFFFFFFFFFFFFFFFFFFFFF AND SUB PUSH2 0xCB5 JUMPI PUSH1 0x40 MLOAD PUSH32 0x8C379A000000000000000000000000000000000000000000000000000000000 DUP2 MSTORE PUSH1 0x4 ADD PUSH2 0xCAC SWAP1 PUSH2 0x1CB4 JUMP JUMPDEST PUSH1 0x40 MLOAD DUP1 SWAP2 SUB SWAP1 REVERT JUMPDEST PUSH0 PUSH1 0x1 PUSH0 DUP5 PUSH20 0xFFFFFFFFFFFFFFFFFFFFFFFFFFFFFFFFFFFFFFFF AND PUSH20 0xFFFFFFFFFFFFFFFFFFFFFFFFFFFFFFFFFFFFFFFF AND DUP2 MSTORE PUSH1 0x20 ADD SWAP1 DUP2 MSTORE PUSH1 0x20 ADD PUSH0 KECCAK256 PUSH0 ADD SLOAD EQ ISZERO SWAP1 POP SWAP2 SWAP1 POP JUMP JUMPDEST PUSH0 DUP5 DUP5 DUP5 DUP5 PUSH1 0x40 MLOAD PUSH1 0x20 ADD PUSH2 0xD17 SWAP5 SWAP4 SWAP3 SWAP2 SWAP1 PUSH2 0x1D17 JUMP JUMPDEST PUSH1 0x40 MLOAD PUSH1 0x20 DUP2 DUP4 SUB SUB DUP2 MSTORE SWAP1 PUSH1 0x40 MSTORE DUP1 MLOAD SWAP1 PUSH1 0x20 ADD KECCAK256 SWAP1 POP PUSH0 DUP2 PUSH0 SHR SWAP1 POP PUSH0 PUSH1 0x1 PUSH0 DUP6 PUSH20 0xFFFFFFFFFFFFFFFFFFFFFFFFFFFFFFFFFFFFFFFF AND PUSH20 0xFFFFFFFFFFFFFFFFFFFFFFFFFFFFFFFFFFFFFFFF AND DUP2 MSTORE PUSH1 0x20 ADD SWAP1 DUP2 MSTORE PUSH1 0x20 ADD PUSH0 KECCAK256 PUSH0 ADD SLOAD EQ PUSH2 0xDB6 JUMPI PUSH1 0x40 MLOAD PUSH32 0x8C379A000000000000000000000000000000000000000000000000000000000 DUP2 MSTORE PUSH1 0x4 ADD PUSH2 0xDAD SWAP1 PUSH2 0x1DA2 JUMP JUMPDEST PUSH1 0x40 MLOAD DUP1 SWAP2 SUB SWAP1 REVERT JUMPDEST PUSH0 DUP7 MLOAD GT PUSH2 0xDF9 JUMPI PUSH1 0x40 MLOAD PUSH32 0x8C379A000000000000000000000000000000000000000000000000000000000 DUP2 MSTORE PUSH1 0x4 ADD PUSH2 0xDF0 SWAP1 PUSH2 0x1E0A JUMP JUMPDEST PUSH1 0x40 MLOAD DUP1 SWAP2 SUB SWAP1 REVERT JUMPDEST PUSH0 DUP6 MLOAD GT PUSH2 0xE3C JUMPI PUSH1 0x40 MLOAD PUSH32 0x8C379A000000000000000000000000000000000000000000000000000000000 DUP2 MSTORE PUSH1 0x4 ADD PUSH2 0xE33 SWAP1 PUSH2 0x1E72 JUMP JUMPDEST PUSH1 0x40 MLOAD DUP1 SWAP2 SUB SWAP1 REVERT JUMPDEST PUSH0 DUP5 MLOAD GT PUSH2 0xE7F JUMPI PUSH1 0x40 MLOAD PUSH32 0x8C379A000000000000000000000000000000000000000000000000000000000 DUP2 MSTORE PUSH1 0x4 ADD PUSH2 0xE76 SWAP1 PUSH2 0x1EDA JUMP JUMPDEST PUSH1 0x40 MLOAD DUP1 SWAP2 SUB SWAP1 REVERT JUMPDEST PUSH0 PUSH1 0x40 MLOAD DUP1 PUSH1 0xA0 ADD PUSH1 0x40 MSTORE DUP1 DUP4 DUP2 MSTORE PUSH1 0x20 ADD DUP9 DUP2 MSTORE PUSH1 0x20 ADD DUP8 DUP2 MSTORE PUSH1 0x20 ADD DUP7 DUP2 MSTORE PUSH1 0x20 ADD PUSH1 0x64 DUP2 MSTORE POP SWAP1 POP DUP1 PUSH1 0x1 PUSH0 DUP7 PUSH20 0xFFFFFFFFFFFFFFFFFFFFFFFFFFFFFFFFFFFFFFFF AND PUSH20 0xFFFFFFFFFFFFFFFFFFFFFFFFFFFFFFFFFFFFFFFF AND DUP2 MSTORE PUSH1 0x20 ADD SWAP1 DUP2 MSTORE PUSH1 0x20 ADD PUSH0 KECCAK256 PUSH0 DUP3 ADD MLOAD DUP2 PUSH0 ADD SSTORE PUSH1 0x20 DUP3 ADD MLOAD DUP2 PUSH1 0x1 ADD SWAP1 DUP2 PUSH2 0xF05 SWAP2 SWAP1 PUSH2 0x2083 JUMP JUMPDEST POP PUSH1 0x40 DUP3 ADD MLOAD DUP2 PUSH1 0x2 ADD SWAP1 DUP2 PUSH2 0xF1B SWAP2 SWAP1 PUSH2 0x2083 JUMP JUMPDEST POP PUSH1 0x60 DUP3 ADD MLOAD DUP2 PUSH1 0x3 ADD SWAP1 DUP2 PUSH2 0xF31 SWAP2 SWAP1 PUSH2 0x2083 JUMP JUMPDEST POP PUSH1 0x80 DUP3 ADD MLOAD DUP2 PUSH1 0x4 ADD SSTORE SWAP1 POP POP POP POP POP POP POP POP POP JUMP JUMPDEST PUSH1 0x60 ADDRESS PUSH20 0xFFFFFFFFFFFFFFFFFFFFFFFFFFFFFFFFFFFFFFFF AND PUSH4 0xA5578807 DUP5 PUSH1 0x40 MLOAD DUP3 PUSH4 0xFFFFFFFF AND PUSH1 0xE0 SHL DUP2 MSTORE PUSH1 0x4 ADD PUSH2 0xF83 SWAP2 SWAP1 PUSH2 0x1A5C JUMP JUMPDEST PUSH1 0x20 PUSH1 0x40 MLOAD DUP1 DUP4 SUB DUP2 DUP7 GAS STATICCALL ISZERO DUP1 ISZERO PUSH2 0xF9E JUMPI RETURNDATASIZE PUSH0 DUP1 RETURNDATACOPY RETURNDATASIZE PUSH0 REVERT JUMPDEST POP POP POP POP PUSH1 0x40 MLOAD RETURNDATASIZE PUSH1 0x1F NOT PUSH1 0x1F DUP3 ADD AND DUP3 ADD DUP1 PUSH1 0x40 MSTORE POP DUP2 ADD SWAP1 PUSH2 0xFC2 SWAP2 SWAP1 PUSH2 0x1A9F JUMP JUMPDEST PUSH2 0x1001 JUMPI PUSH1 0x40 MLOAD PUSH32 0x8C379A000000000000000000000000000000000000000000000000000000000 DUP2 MSTORE PUSH1 0x4 ADD PUSH2 0xFF8 SWAP1 PUSH2 0x1B14 JUMP JUMPDEST PUSH1 0x40 MLOAD DUP1 SWAP2 SUB SWAP1 REVERT JUMPDEST DUP2 PUSH1 0x1 PUSH0 DUP6 PUSH20 0xFFFFFFFFFFFFFFFFFFFFFFFFFFFFFFFFFFFFFFFF AND PUSH20 0xFFFFFFFFFFFFFFFFFFFFFFFFFFFFFFFFFFFFFFFF AND DUP2 MSTORE PUSH1 0x20 ADD SWAP1 DUP2 MSTORE PUSH1 0x20 ADD PUSH0 KECCAK256 PUSH0 ADD SLOAD EQ PUSH2 0x1082 JUMPI PUSH1 0x40 MLOAD PUSH32 0x8C379A000000000000000000000000000000000000000000000000000000000 DUP2 MSTORE PUSH1 0x4 ADD PUSH2 0x1079 SWAP1 PUSH2 0x1B7C JUMP JUMPDEST PUSH1 0x40 MLOAD DUP1 SWAP2 SUB SWAP1 REVERT JUMPDEST PUSH1 0x1 PUSH0 DUP5 PUSH20 0xFFFFFFFFFFFFFFFFFFFFFFFFFFFFFFFFFFFFFFFF AND PUSH20 0xFFFFFFFFFFFFFFFFFFFFFFFFFFFFFFFFFFFFFFFF AND DUP2 MSTORE PUSH1 0x20 ADD SWAP1 DUP2 MSTORE PUSH1 0x20 ADD PUSH0 KECCAK256 PUSH1 0x3 ADD DUP1 SLOAD PUSH2 0x10CD SWAP1 PUSH2 0x1968 JUMP JUMPDEST DUP1 PUSH1 0x1F ADD PUSH1 0x20 DUP1 SWAP2 DIV MUL PUSH1 0x20 ADD PUSH1 0x40 MLOAD SWAP1 DUP2 ADD PUSH1 0x40 MSTORE DUP1 SWAP3 SWAP2 SWAP1 DUP2 DUP2 MSTORE PUSH1 0x20 ADD DUP3 DUP1 SLOAD PUSH2 0x10F9 SWAP1 PUSH2 0x1968 JUMP JUMPDEST DUP1 ISZERO PUSH2 0x1144 JUMPI DUP1 PUSH1 0x1F LT PUSH2 0x111B JUMPI PUSH2 0x100 DUP1 DUP4 SLOAD DIV MUL DUP4 MSTORE SWAP2 PUSH1 0x20 ADD SWAP2 PUSH2 0x1144 JUMP JUMPDEST DUP3 ADD SWAP2 SWAP1 PUSH0 MSTORE PUSH1 0x20 PUSH0 KECCAK256 SWAP1 JUMPDEST DUP2 SLOAD DUP2 MSTORE SWAP1 PUSH1 0x1 ADD SWAP1 PUSH1 0x20 ADD DUP1 DUP4 GT PUSH2 0x1127 JUMPI DUP3 SWAP1 SUB PUSH1 0x1F AND DUP3 ADD SWAP2 JUMPDEST POP POP POP POP POP SWAP1 POP SWAP3 SWAP2 POP POP JUMP JUMPDEST PUSH0 DUP1 PUSH1 0x1 PUSH0 DUP6 PUSH20 0xFFFFFFFFFFFFFFFFFFFFFFFFFFFFFFFFFFFFFFFF AND PUSH20 0xFFFFFFFFFFFFFFFFFFFFFFFFFFFFFFFFFFFFFFFF AND DUP2 MSTORE PUSH1 0x20 ADD SWAP1 DUP2 MSTORE PUSH1 0x20 ADD PUSH0 KECCAK256 PUSH1 0x1 ADD PUSH1 0x1 PUSH0 DUP7 PUSH20 0xFFFFFFFFFFFFFFFFFFFFFFFFFFFFFFFFFFFFFFFF AND PUSH20 0xFFFFFFFFFFFFFFFFFFFFFFFFFFFFFFFFFFFFFFFF AND DUP2 MSTORE PUSH1 0x20 ADD SWAP1 DUP2 MSTORE PUSH1 0x20 ADD PUSH0 KECCAK256 PUSH1 0x2 ADD PUSH1 0x1 PUSH0 DUP8 PUSH20 0xFFFFFFFFFFFFFFFFFFFFFFFFFFFFFFFFFFFFFFFF AND PUSH20 0xFFFFFFFFFFFFFFFFFFFFFFFFFFFFFFFFFFFFFFFF AND DUP2 MSTORE PUSH1 0x20 ADD SWAP1 DUP2 MSTORE PUSH1 0x20 ADD PUSH0 KECCAK256 PUSH1 0x3 ADD DUP7 PUSH1 0x40 MLOAD PUSH1 0x20 ADD PUSH2 0x1227 SWAP5 SWAP4 SWAP3 SWAP2 SWAP1 PUSH2 0x2152 JUMP JUMPDEST PUSH1 0x40 MLOAD PUSH1 0x20 DUP2 DUP4 SUB SUB DUP2 MSTORE SWAP1 PUSH1 0x40 MSTORE DUP1 MLOAD SWAP1 PUSH1 0x20 ADD KECCAK256 PUSH0 SHR SWAP1 POP DUP3 DUP2 EQ PUSH2 0x1283 JUMPI PUSH1 0x40 MLOAD PUSH32 0x8C379A000000000000000000000000000000000000000000000000000000000 DUP2 MSTORE PUSH1 0x4 ADD PUSH2 0x127A SWAP1 PUSH2 0x21DD JUMP JUMPDEST PUSH1 0x40 MLOAD DUP1 SWAP2 SUB SWAP1 REVERT JUMPDEST PUSH1 0x1 PUSH0 DUP6 PUSH20 0xFFFFFFFFFFFFFFFFFFFFFFFFFFFFFFFFFFFFFFFF AND PUSH20 0xFFFFFFFFFFFFFFFFFFFFFFFFFFFFFFFFFFFFFFFF AND DUP2 MSTORE PUSH1 0x20 ADD SWAP1 DUP2 MSTORE PUSH1 0x20 ADD PUSH0 KECCAK256 PUSH0 DUP1 DUP3 ADD PUSH0 SWAP1 SSTORE PUSH1 0x1 DUP3 ADD PUSH0 PUSH2 0x12D6 SWAP2 SWAP1 PUSH2 0x1358 JUMP JUMPDEST PUSH1 0x2 DUP3 ADD PUSH0 PUSH2 0x12E5 SWAP2 SWAP1 PUSH2 0x1358 JUMP JUMPDEST PUSH1 0x3 DUP3 ADD PUSH0 PUSH2 0x12F4 SWAP2 SWAP1 PUSH2 0x1358 JUMP JUMPDEST PUSH1 0x4 DUP3 ADD PUSH0 SWAP1 SSTORE POP POP PUSH0 PUSH1 0x1 PUSH0 DUP7 PUSH20 0xFFFFFFFFFFFFFFFFFFFFFFFFFFFFFFFFFFFFFFFF AND PUSH20 0xFFFFFFFFFFFFFFFFFFFFFFFFFFFFFFFFFFFFFFFF AND DUP2 MSTORE PUSH1 0x20 ADD SWAP1 DUP2 MSTORE PUSH1 0x20 ADD PUSH0 KECCAK256 PUSH0 ADD SLOAD SUB PUSH2 0x134D JUMPI PUSH1 0x1 SWAP2 POP POP PUSH2 0x1352 JUMP JUMPDEST PUSH0 SWAP2 POP POP JUMPDEST SWAP3 SWAP2 POP POP JUMP JUMPDEST POP DUP1 SLOAD PUSH2 0x1364 SWAP1 PUSH2 0x1968 JUMP JUMPDEST PUSH0 DUP3 SSTORE DUP1 PUSH1 0x1F LT PUSH2 0x1375 JUMPI POP PUSH2 0x1392 JUMP JUMPDEST PUSH1 0x1F ADD PUSH1 0x20 SWAP1 DIV SWAP1 PUSH0 MSTORE PUSH1 0x20 PUSH0 KECCAK256 SWAP1 DUP2 ADD SWAP1 PUSH2 0x1391 SWAP2 SWAP1 PUSH2 0x1395 JUMP JUMPDEST JUMPDEST POP JUMP JUMPDEST JUMPDEST DUP1 DUP3 GT ISZERO PUSH2 0x13AC JUMPI PUSH0 DUP2 PUSH0 SWAP1 SSTORE POP PUSH1 0x1 ADD PUSH2 0x1396 JUMP JUMPDEST POP SWAP1 JUMP JUMPDEST PUSH0 PUSH1 0x40 MLOAD SWAP1 POP SWAP1 JUMP JUMPDEST PUSH0 DUP1 REVERT JUMPDEST PUSH0 DUP1 REVERT JUMPDEST PUSH0 PUSH20 0xFFFFFFFFFFFFFFFFFFFFFFFFFFFFFFFFFFFFFFFF DUP3 AND SWAP1 POP SWAP2 SWAP1 POP JUMP JUMPDEST PUSH0 PUSH2 0x13EA DUP3 PUSH2 0x13C1 JUMP JUMPDEST SWAP1 POP SWAP2 SWAP1 POP JUMP JUMPDEST PUSH2 0x13FA DUP2 PUSH2 0x13E0 JUMP JUMPDEST DUP2 EQ PUSH2 0x1404 JUMPI PUSH0 DUP1 REVERT JUMPDEST POP JUMP JUMPDEST PUSH0 DUP2 CALLDATALOAD SWAP1 POP PUSH2 0x1415 DUP2 PUSH2 0x13F1 JUMP JUMPDEST SWAP3 SWAP2 POP POP JUMP JUMPDEST PUSH0 DUP1 REVERT JUMPDEST PUSH0 DUP1 REVERT JUMPDEST PUSH0 PUSH1 0x1F NOT PUSH1 0x1F DUP4 ADD AND SWAP1 POP SWAP2 SWAP1 POP JUMP JUMPDEST PUSH32 0x4E487B7100000000000000000000000000000000000000000000000000000000 PUSH0 MSTORE PUSH1 0x41 PUSH1 0x4 MSTORE PUSH1 0x24 PUSH0 REVERT JUMPDEST PUSH2 0x1469 DUP3 PUSH2 0x1423 JUMP JUMPDEST DUP2 ADD DUP2 DUP2 LT PUSH8 0xFFFFFFFFFFFFFFFF DUP3 GT OR ISZERO PUSH2 0x1488 JUMPI PUSH2 0x1487 PUSH2 0x1433 JUMP JUMPDEST JUMPDEST DUP1 PUSH1 0x40 MSTORE POP POP POP JUMP JUMPDEST PUSH0 PUSH2 0x149A PUSH2 0x13B0 JUMP JUMPDEST SWAP1 POP PUSH2 0x14A6 DUP3 DUP3 PUSH2 0x1460 JUMP JUMPDEST SWAP2 SWAP1 POP JUMP JUMPDEST PUSH0 PUSH8 0xFFFFFFFFFFFFFFFF DUP3 GT ISZERO PUSH2 0x14C5 JUMPI PUSH2 0x14C4 PUSH2 0x1433 JUMP JUMPDEST JUMPDEST PUSH2 0x14CE DUP3 PUSH2 0x1423 JUMP JUMPDEST SWAP1 POP PUSH1 0x20 DUP2 ADD SWAP1 POP SWAP2 SWAP1 POP JUMP JUMPDEST DUP3 DUP2 DUP4 CALLDATACOPY PUSH0 DUP4 DUP4 ADD MSTORE POP POP POP JUMP JUMPDEST PUSH0 PUSH2 0x14FB PUSH2 0x14F6 DUP5 PUSH2 0x14AB JUMP JUMPDEST PUSH2 0x1491 JUMP JUMPDEST SWAP1 POP DUP3 DUP2 MSTORE PUSH1 0x20 DUP2 ADD DUP5 DUP5 DUP5 ADD GT ISZERO PUSH2 0x1517 JUMPI PUSH2 0x1516 PUSH2 0x141F JUMP JUMPDEST JUMPDEST PUSH2 0x1522 DUP5 DUP3 DUP6 PUSH2 0x14DB JUMP JUMPDEST POP SWAP4 SWAP3 POP POP POP JUMP JUMPDEST PUSH0 DUP3 PUSH1 0x1F DUP4 ADD SLT PUSH2 0x153E JUMPI PUSH2 0x153D PUSH2 0x141B JUMP JUMPDEST JUMPDEST DUP2 CALLDATALOAD PUSH2 0x154E DUP5 DUP3 PUSH1 0x20 DUP7 ADD PUSH2 0x14E9 JUMP JUMPDEST SWAP2 POP POP SWAP3 SWAP2 POP POP JUMP JUMPDEST PUSH0 DUP1 PUSH0 PUSH1 0x60 DUP5 DUP7 SUB SLT ISZERO PUSH2 0x156E JUMPI PUSH2 0x156D PUSH2 0x13B9 JUMP JUMPDEST JUMPDEST PUSH0 PUSH2 0x157B DUP7 DUP3 DUP8 ADD PUSH2 0x1407 JUMP JUMPDEST SWAP4 POP POP PUSH1 0x20 DUP5 ADD CALLDATALOAD PUSH8 0xFFFFFFFFFFFFFFFF DUP2 GT ISZERO PUSH2 0x159C JUMPI PUSH2 0x159B PUSH2 0x13BD JUMP JUMPDEST JUMPDEST PUSH2 0x15A8 DUP7 DUP3 DUP8 ADD PUSH2 0x152A JUMP JUMPDEST SWAP3 POP POP PUSH1 0x40 DUP5 ADD CALLDATALOAD PUSH8 0xFFFFFFFFFFFFFFFF DUP2 GT ISZERO PUSH2 0x15C9 JUMPI PUSH2 0x15C8 PUSH2 0x13BD JUMP JUMPDEST JUMPDEST PUSH2 0x15D5 DUP7 DUP3 DUP8 ADD PUSH2 0x152A JUMP JUMPDEST SWAP2 POP POP SWAP3 POP SWAP3 POP SWAP3 JUMP JUMPDEST PUSH0 DUP2 ISZERO ISZERO SWAP1 POP SWAP2 SWAP1 POP JUMP JUMPDEST PUSH2 0x15F3 DUP2 PUSH2 0x15DF JUMP JUMPDEST DUP3 MSTORE POP POP JUMP JUMPDEST PUSH0 PUSH1 0x20 DUP3 ADD SWAP1 POP PUSH2 0x160C PUSH0 DUP4 ADD DUP5 PUSH2 0x15EA JUMP JUMPDEST SWAP3 SWAP2 POP POP JUMP JUMPDEST PUSH0 DUP2 SWAP1 POP SWAP2 SWAP1 POP JUMP JUMPDEST PUSH2 0x1624 DUP2 PUSH2 0x1612 JUMP JUMPDEST DUP2 EQ PUSH2 0x162E JUMPI PUSH0 DUP1 REVERT JUMPDEST POP JUMP JUMPDEST PUSH0 DUP2 CALLDATALOAD SWAP1 POP PUSH2 0x163F DUP2 PUSH2 0x161B JUMP JUMPDEST SWAP3 SWAP2 POP POP JUMP JUMPDEST PUSH0 DUP1 PUSH1 0x40 DUP4 DUP6 SUB SLT ISZERO PUSH2 0x165B JUMPI PUSH2 0x165A PUSH2 0x13B9 JUMP JUMPDEST JUMPDEST PUSH0 PUSH2 0x1668 DUP6 DUP3 DUP7 ADD PUSH2 0x1407 JUMP JUMPDEST SWAP3 POP POP PUSH1 0x20 PUSH2 0x1679 DUP6 DUP3 DUP7 ADD PUSH2 0x1631 JUMP JUMPDEST SWAP2 POP POP SWAP3 POP SWAP3 SWAP1 POP JUMP JUMPDEST PUSH2 0x168C DUP2 PUSH2 0x1612 JUMP JUMPDEST DUP3 MSTORE POP POP JUMP JUMPDEST PUSH0 PUSH1 0x20 DUP3 ADD SWAP1 POP PUSH2 0x16A5 PUSH0 DUP4 ADD DUP5 PUSH2 0x1683 JUMP JUMPDEST SWAP3 SWAP2 POP POP JUMP JUMPDEST PUSH0 PUSH1 0x20 DUP3 DUP5 SUB SLT ISZERO PUSH2 0x16C0 JUMPI PUSH2 0x16BF PUSH2 0x13B9 JUMP JUMPDEST JUMPDEST PUSH0 PUSH2 0x16CD DUP5 DUP3 DUP6 ADD PUSH2 0x1407 JUMP JUMPDEST SWAP2 POP POP SWAP3 SWAP2 POP POP JUMP JUMPDEST PUSH0 DUP2 MLOAD SWAP1 POP SWAP2 SWAP1 POP JUMP JUMPDEST PUSH0 DUP3 DUP3 MSTORE PUSH1 0x20 DUP3 ADD SWAP1 POP SWAP3 SWAP2 POP POP JUMP JUMPDEST PUSH0 JUMPDEST DUP4 DUP2 LT ISZERO PUSH2 0x170D JUMPI DUP1 DUP3 ADD MLOAD DUP2 DUP5 ADD MSTORE PUSH1 0x20 DUP2 ADD SWAP1 POP PUSH2 0x16F2 JUMP JUMPDEST PUSH0 DUP5 DUP5 ADD MSTORE POP POP POP POP JUMP JUMPDEST PUSH0 PUSH2 0x1722 DUP3 PUSH2 0x16D6 JUMP JUMPDEST PUSH2 0x172C DUP2 DUP6 PUSH2 0x16E0 JUMP JUMPDEST SWAP4 POP PUSH2 0x173C DUP2 DUP6 PUSH1 0x20 DUP7 ADD PUSH2 0x16F0 JUMP JUMPDEST PUSH2 0x1745 DUP2 PUSH2 0x1423 JUMP JUMPDEST DUP5 ADD SWAP2 POP POP SWAP3 SWAP2 POP POP JUMP JUMPDEST PUSH0 PUSH1 0x20 DUP3 ADD SWAP1 POP DUP2 DUP2 SUB PUSH0 DUP4 ADD MSTORE PUSH2 0x1768 DUP2 DUP5 PUSH2 0x1718 JUMP JUMPDEST SWAP1 POP SWAP3 SWAP2 POP POP JUMP JUMPDEST PUSH0 PUSH1 0xA0 DUP3 ADD SWAP1 POP PUSH2 0x1783 PUSH0 DUP4 ADD DUP9 PUSH2 0x1683 JUMP JUMPDEST DUP2 DUP2 SUB PUSH1 0x20 DUP4 ADD MSTORE PUSH2 0x1795 DUP2 DUP8 PUSH2 0x1718 JUMP JUMPDEST SWAP1 POP DUP2 DUP2 SUB PUSH1 0x40 DUP4 ADD MSTORE PUSH2 0x17A9 DUP2 DUP7 PUSH2 0x1718 JUMP JUMPDEST SWAP1 POP DUP2 DUP2 SUB PUSH1 0x60 DUP4 ADD MSTORE PUSH2 0x17BD DUP2 DUP6 PUSH2 0x1718 JUMP JUMPDEST SWAP1 POP PUSH2 0x17CC PUSH1 0x80 DUP4 ADD DUP5 PUSH2 0x1683 JUMP JUMPDEST SWAP7 SWAP6 POP POP POP POP POP POP JUMP JUMPDEST PUSH0 DUP1 PUSH0 PUSH1 0x60 DUP5 DUP7 SUB SLT ISZERO PUSH2 0x17ED JUMPI PUSH2 0x17EC PUSH2 0x13B9 JUMP JUMPDEST JUMPDEST PUSH0 PUSH2 0x17FA DUP7 DUP3 DUP8 ADD PUSH2 0x1407 JUMP JUMPDEST SWAP4 POP POP PUSH1 0x20 PUSH2 0x180B DUP7 DUP3 DUP8 ADD PUSH2 0x1631 JUMP JUMPDEST SWAP3 POP POP PUSH1 0x40 PUSH2 0x181C DUP7 DUP3 DUP8 ADD PUSH2 0x1631 JUMP JUMPDEST SWAP2 POP POP SWAP3 POP SWAP3 POP SWAP3 JUMP JUMPDEST PUSH0 DUP1 PUSH0 DUP1 PUSH1 0x80 DUP6 DUP8 SUB SLT ISZERO PUSH2 0x183E JUMPI PUSH2 0x183D PUSH2 0x13B9 JUMP JUMPDEST JUMPDEST PUSH0 DUP6 ADD CALLDATALOAD PUSH8 0xFFFFFFFFFFFFFFFF DUP2 GT ISZERO PUSH2 0x185B JUMPI PUSH2 0x185A PUSH2 0x13BD JUMP JUMPDEST JUMPDEST PUSH2 0x1867 DUP8 DUP3 DUP9 ADD PUSH2 0x152A JUMP JUMPDEST SWAP5 POP POP PUSH1 0x20 DUP6 ADD CALLDATALOAD PUSH8 0xFFFFFFFFFFFFFFFF DUP2 GT ISZERO PUSH2 0x1888 JUMPI PUSH2 0x1887 PUSH2 0x13BD JUMP JUMPDEST JUMPDEST PUSH2 0x1894 DUP8 DUP3 DUP9 ADD PUSH2 0x152A JUMP JUMPDEST SWAP4 POP POP PUSH1 0x40 DUP6 ADD CALLDATALOAD PUSH8 0xFFFFFFFFFFFFFFFF DUP2 GT ISZERO PUSH2 0x18B5 JUMPI PUSH2 0x18B4 PUSH2 0x13BD JUMP JUMPDEST JUMPDEST PUSH2 0x18C1 DUP8 DUP3 DUP9 ADD PUSH2 0x152A JUMP JUMPDEST SWAP3 POP POP PUSH1 0x60 PUSH2 0x18D2 DUP8 DUP3 DUP9 ADD PUSH2 0x1407 JUMP JUMPDEST SWAP2 POP POP SWAP3 SWAP6 SWAP2 SWAP5 POP SWAP3 POP JUMP JUMPDEST PUSH0 DUP2 SWAP1 POP SWAP3 SWAP2 POP POP JUMP JUMPDEST PUSH0 PUSH2 0x18F2 DUP3 PUSH2 0x16D6 JUMP JUMPDEST PUSH2 0x18FC DUP2 DUP6 PUSH2 0x18DE JUMP JUMPDEST SWAP4 POP PUSH2 0x190C DUP2 DUP6 PUSH1 0x20 DUP7 ADD PUSH2 0x16F0 JUMP JUMPDEST DUP1 DUP5 ADD SWAP2 POP POP SWAP3 SWAP2 POP POP JUMP JUMPDEST PUSH0 PUSH2 0x1923 DUP3 DUP6 PUSH2 0x18E8 JUMP JUMPDEST SWAP2 POP PUSH2 0x192F DUP3 DUP5 PUSH2 0x18E8 JUMP JUMPDEST SWAP2 POP DUP2 SWAP1 POP SWAP4 SWAP3 POP POP POP JUMP JUMPDEST PUSH32 0x4E487B7100000000000000000000000000000000000000000000000000000000 PUSH0 MSTORE PUSH1 0x22 PUSH1 0x4 MSTORE PUSH1 0x24 PUSH0 REVERT JUMPDEST PUSH0 PUSH1 0x2 DUP3 DIV SWAP1 POP PUSH1 0x1 DUP3 AND DUP1 PUSH2 0x197F JUMPI PUSH1 0x7F DUP3 AND SWAP2 POP JUMPDEST PUSH1 0x20 DUP3 LT DUP2 SUB PUSH2 0x1992 JUMPI PUSH2 0x1991 PUSH2 0x193B JUMP JUMPDEST JUMPDEST POP SWAP2 SWAP1 POP JUMP JUMPDEST PUSH0 DUP2 SWAP1 POP DUP2 PUSH0 MSTORE PUSH1 0x20 PUSH0 KECCAK256 SWAP1 POP SWAP2 SWAP1 POP JUMP JUMPDEST PUSH0 DUP2 SLOAD PUSH2 0x19B6 DUP2 PUSH2 0x1968 JUMP JUMPDEST PUSH2 0x19C0 DUP2 DUP7 PUSH2 0x18DE JUMP JUMPDEST SWAP5 POP PUSH1 0x1 DUP3 AND PUSH0 DUP2 EQ PUSH2 0x19DA JUMPI PUSH1 0x1 DUP2 EQ PUSH2 0x19EF JUMPI PUSH2 0x1A21 JUMP JUMPDEST PUSH1 0xFF NOT DUP4 AND DUP7 MSTORE DUP2 ISZERO ISZERO DUP3 MUL DUP7 ADD SWAP4 POP PUSH2 0x1A21 JUMP JUMPDEST PUSH2 0x19F8 DUP6 PUSH2 0x1998 JUMP JUMPDEST PUSH0 JUMPDEST DUP4 DUP2 LT ISZERO PUSH2 0x1A19 JUMPI DUP2 SLOAD DUP2 DUP10 ADD MSTORE PUSH1 0x1 DUP3 ADD SWAP2 POP PUSH1 0x20 DUP2 ADD SWAP1 POP PUSH2 0x19FA JUMP JUMPDEST DUP4 DUP9 ADD SWAP6 POP POP POP JUMPDEST POP POP POP SWAP3 SWAP2 POP POP JUMP JUMPDEST PUSH0 PUSH2 0x1A35 DUP3 DUP6 PUSH2 0x19AA JUMP JUMPDEST SWAP2 POP PUSH2 0x1A41 DUP3 DUP5 PUSH2 0x19AA JUMP JUMPDEST SWAP2 POP DUP2 SWAP1 POP SWAP4 SWAP3 POP POP POP JUMP JUMPDEST PUSH2 0x1A56 DUP2 PUSH2 0x13E0 JUMP JUMPDEST DUP3 MSTORE POP POP JUMP JUMPDEST PUSH0 PUSH1 0x20 DUP3 ADD SWAP1 POP PUSH2 0x1A6F PUSH0 DUP4 ADD DUP5 PUSH2 0x1A4D JUMP JUMPDEST SWAP3 SWAP2 POP POP JUMP JUMPDEST PUSH2 0x1A7E DUP2 PUSH2 0x15DF JUMP JUMPDEST DUP2 EQ PUSH2 0x1A88 JUMPI PUSH0 DUP1 REVERT JUMPDEST POP JUMP JUMPDEST PUSH0 DUP2 MLOAD SWAP1 POP PUSH2 0x1A99 DUP2 PUSH2 0x1A75 JUMP JUMPDEST SWAP3 SWAP2 POP POP JUMP JUMPDEST PUSH0 PUSH1 0x20 DUP3 DUP5 SUB SLT ISZERO PUSH2 0x1AB4 JUMPI PUSH2 0x1AB3 PUSH2 0x13B9 JUMP JUMPDEST JUMPDEST PUSH0 PUSH2 0x1AC1 DUP5 DUP3 DUP6 ADD PUSH2 0x1A8B JUMP JUMPDEST SWAP2 POP POP SWAP3 SWAP2 POP POP JUMP JUMPDEST PUSH32 0x55736572204E6F7420466F756E64210000000000000000000000000000000000 PUSH0 DUP3 ADD MSTORE POP JUMP JUMPDEST PUSH0 PUSH2 0x1AFE PUSH1 0xF DUP4 PUSH2 0x16E0 JUMP JUMPDEST SWAP2 POP PUSH2 0x1B09 DUP3 PUSH2 0x1ACA JUMP JUMPDEST PUSH1 0x20 DUP3 ADD SWAP1 POP SWAP2 SWAP1 POP JUMP JUMPDEST PUSH0 PUSH1 0x20 DUP3 ADD SWAP1 POP DUP2 DUP2 SUB PUSH0 DUP4 ADD MSTORE PUSH2 0x1B2B DUP2 PUSH2 0x1AF2 JUMP JUMPDEST SWAP1 POP SWAP2 SWAP1 POP JUMP JUMPDEST PUSH32 0x537472756374206E6F742056616C696421000000000000000000000000000000 PUSH0 DUP3 ADD MSTORE POP JUMP JUMPDEST PUSH0 PUSH2 0x1B66 PUSH1 0x11 DUP4 PUSH2 0x16E0 JUMP JUMPDEST SWAP2 POP PUSH2 0x1B71 DUP3 PUSH2 0x1B32 JUMP JUMPDEST PUSH1 0x20 DUP3 ADD SWAP1 POP SWAP2 SWAP1 POP JUMP JUMPDEST PUSH0 PUSH1 0x20 DUP3 ADD SWAP1 POP DUP2 DUP2 SUB PUSH0 DUP4 ADD MSTORE PUSH2 0x1B93 DUP2 PUSH2 0x1B5A JUMP JUMPDEST SWAP1 POP SWAP2 SWAP1 POP JUMP JUMPDEST PUSH32 0x5574656E7465206E6F6E2070726573656E746521000000000000000000000000 PUSH0 DUP3 ADD MSTORE POP JUMP JUMPDEST PUSH0 PUSH2 0x1BCE PUSH1 0x14 DUP4 PUSH2 0x16E0 JUMP JUMPDEST SWAP2 POP PUSH2 0x1BD9 DUP3 PUSH2 0x1B9A JUMP JUMPDEST PUSH1 0x20 DUP3 ADD SWAP1 POP SWAP2 SWAP1 POP JUMP JUMPDEST PUSH0 PUSH1 0x20 DUP3 ADD SWAP1 POP DUP2 DUP2 SUB PUSH0 DUP4 ADD MSTORE PUSH2 0x1BFB DUP2 PUSH2 0x1BC2 JUMP JUMPDEST SWAP1 POP SWAP2 SWAP1 POP JUMP JUMPDEST PUSH32 0x42616C616E6365204E6F742056616C6964000000000000000000000000000000 PUSH0 DUP3 ADD MSTORE POP JUMP JUMPDEST PUSH0 PUSH2 0x1C36 PUSH1 0x11 DUP4 PUSH2 0x16E0 JUMP JUMPDEST SWAP2 POP PUSH2 0x1C41 DUP3 PUSH2 0x1C02 JUMP JUMPDEST PUSH1 0x20 DUP3 ADD SWAP1 POP SWAP2 SWAP1 POP JUMP JUMPDEST PUSH0 PUSH1 0x20 DUP3 ADD SWAP1 POP DUP2 DUP2 SUB PUSH0 DUP4 ADD MSTORE PUSH2 0x1C63 DUP2 PUSH2 0x1C2A JUMP JUMPDEST SWAP1 POP SWAP2 SWAP1 POP JUMP JUMPDEST PUSH32 0x41646472657373204D696C6B487562206E6F6E2076616C69646F210000000000 PUSH0 DUP3 ADD MSTORE POP JUMP JUMPDEST PUSH0 PUSH2 0x1C9E PUSH1 0x1B DUP4 PUSH2 0x16E0 JUMP JUMPDEST SWAP2 POP PUSH2 0x1CA9 DUP3 PUSH2 0x1C6A JUMP JUMPDEST PUSH1 0x20 DUP3 ADD SWAP1 POP SWAP2 SWAP1 POP JUMP JUMPDEST PUSH0 PUSH1 0x20 DUP3 ADD SWAP1 POP DUP2 DUP2 SUB PUSH0 DUP4 ADD MSTORE PUSH2 0x1CCB DUP2 PUSH2 0x1C92 JUMP JUMPDEST SWAP1 POP SWAP2 SWAP1 POP JUMP JUMPDEST PUSH0 DUP2 PUSH1 0x60 SHL SWAP1 POP SWAP2 SWAP1 POP JUMP JUMPDEST PUSH0 PUSH2 0x1CE8 DUP3 PUSH2 0x1CD2 JUMP JUMPDEST SWAP1 POP SWAP2 SWAP1 POP JUMP JUMPDEST PUSH0 PUSH2 0x1CF9 DUP3 PUSH2 0x1CDE JUMP JUMPDEST SWAP1 POP SWAP2 SWAP1 POP JUMP JUMPDEST PUSH2 0x1D11 PUSH2 0x1D0C DUP3 PUSH2 0x13E0 JUMP JUMPDEST PUSH2 0x1CEF JUMP JUMPDEST DUP3 MSTORE POP POP JUMP JUMPDEST PUSH0 PUSH2 0x1D22 DUP3 DUP8 PUSH2 0x18E8 JUMP JUMPDEST SWAP2 POP PUSH2 0x1D2E DUP3 DUP7 PUSH2 0x18E8 JUMP JUMPDEST SWAP2 POP PUSH2 0x1D3A DUP3 DUP6 PUSH2 0x18E8 JUMP JUMPDEST SWAP2 POP PUSH2 0x1D46 DUP3 DUP5 PUSH2 0x1D00 JUMP JUMPDEST PUSH1 0x14 DUP3 ADD SWAP2 POP DUP2 SWAP1 POP SWAP6 SWAP5 POP POP POP POP POP JUMP JUMPDEST PUSH32 0x4D696C6B48756220616C72656164792072656769737465726564000000000000 PUSH0 DUP3 ADD MSTORE POP JUMP JUMPDEST PUSH0 PUSH2 0x1D8C PUSH1 0x1A DUP4 PUSH2 0x16E0 JUMP JUMPDEST SWAP2 POP PUSH2 0x1D97 DUP3 PUSH2 0x1D58 JUMP JUMPDEST PUSH1 0x20 DUP3 ADD SWAP1 POP SWAP2 SWAP1 POP JUMP JUMPDEST PUSH0 PUSH1 0x20 DUP3 ADD SWAP1 POP DUP2 DUP2 SUB PUSH0 DUP4 ADD MSTORE PUSH2 0x1DB9 DUP2 PUSH2 0x1D80 JUMP JUMPDEST SWAP1 POP SWAP2 SWAP1 POP JUMP JUMPDEST PUSH32 0x46756C6C206E616D652063616E6E6F7420626520656D70747900000000000000 PUSH0 DUP3 ADD MSTORE POP JUMP JUMPDEST PUSH0 PUSH2 0x1DF4 PUSH1 0x19 DUP4 PUSH2 0x16E0 JUMP JUMPDEST SWAP2 POP PUSH2 0x1DFF DUP3 PUSH2 0x1DC0 JUMP JUMPDEST PUSH1 0x20 DUP3 ADD SWAP1 POP SWAP2 SWAP1 POP JUMP JUMPDEST PUSH0 PUSH1 0x20 DUP3 ADD SWAP1 POP DUP2 DUP2 SUB PUSH0 DUP4 ADD MSTORE PUSH2 0x1E21 DUP2 PUSH2 0x1DE8 JUMP JUMPDEST SWAP1 POP SWAP2 SWAP1 POP JUMP JUMPDEST PUSH32 0x50617373776F72642063616E6E6F7420626520656D7074790000000000000000 PUSH0 DUP3 ADD MSTORE POP JUMP JUMPDEST PUSH0 PUSH2 0x1E5C PUSH1 0x18 DUP4 PUSH2 0x16E0 JUMP JUMPDEST SWAP2 POP PUSH2 0x1E67 DUP3 PUSH2 0x1E28 JUMP JUMPDEST PUSH1 0x20 DUP3 ADD SWAP1 POP SWAP2 SWAP1 POP JUMP JUMPDEST PUSH0 PUSH1 0x20 DUP3 ADD SWAP1 POP DUP2 DUP2 SUB PUSH0 DUP4 ADD MSTORE PUSH2 0x1E89 DUP2 PUSH2 0x1E50 JUMP JUMPDEST SWAP1 POP SWAP2 SWAP1 POP JUMP JUMPDEST PUSH32 0x456D61696C2063616E6E6F7420626520656D7074790000000000000000000000 PUSH0 DUP3 ADD MSTORE POP JUMP JUMPDEST PUSH0 PUSH2 0x1EC4 PUSH1 0x15 DUP4 PUSH2 0x16E0 JUMP JUMPDEST SWAP2 POP PUSH2 0x1ECF DUP3 PUSH2 0x1E90 JUMP JUMPDEST PUSH1 0x20 DUP3 ADD SWAP1 POP SWAP2 SWAP1 POP JUMP JUMPDEST PUSH0 PUSH1 0x20 DUP3 ADD SWAP1 POP DUP2 DUP2 SUB PUSH0 DUP4 ADD MSTORE PUSH2 0x1EF1 DUP2 PUSH2 0x1EB8 JUMP JUMPDEST SWAP1 POP SWAP2 SWAP1 POP JUMP JUMPDEST PUSH0 PUSH1 0x20 PUSH1 0x1F DUP4 ADD DIV SWAP1 POP SWAP2 SWAP1 POP JUMP JUMPDEST PUSH0 DUP3 DUP3 SHL SWAP1 POP SWAP3 SWAP2 POP POP JUMP JUMPDEST PUSH0 PUSH1 0x8 DUP4 MUL PUSH2 0x1F42 PUSH32 0xFFFFFFFFFFFFFFFFFFFFFFFFFFFFFFFFFFFFFFFFFFFFFFFFFFFFFFFFFFFFFFFF DUP3 PUSH2 0x1F07 JUMP JUMPDEST PUSH2 0x1F4C DUP7 DUP4 PUSH2 0x1F07 JUMP JUMPDEST SWAP6 POP DUP1 NOT DUP5 AND SWAP4 POP DUP1 DUP7 AND DUP5 OR SWAP3 POP POP POP SWAP4 SWAP3 POP POP POP JUMP JUMPDEST PUSH0 DUP2 SWAP1 POP SWAP2 SWAP1 POP JUMP JUMPDEST PUSH0 PUSH2 0x1F87 PUSH2 0x1F82 PUSH2 0x1F7D DUP5 PUSH2 0x1612 JUMP JUMPDEST PUSH2 0x1F64 JUMP JUMPDEST PUSH2 0x1612 JUMP JUMPDEST SWAP1 POP SWAP2 SWAP1 POP JUMP JUMPDEST PUSH0 DUP2 SWAP1 POP SWAP2 SWAP1 POP JUMP JUMPDEST PUSH2 0x1FA0 DUP4 PUSH2 0x1F6D JUMP JUMPDEST PUSH2 0x1FB4 PUSH2 0x1FAC DUP3 PUSH2 0x1F8E JUMP JUMPDEST DUP5 DUP5 SLOAD PUSH2 0x1F13 JUMP JUMPDEST DUP3 SSTORE POP POP POP POP JUMP JUMPDEST PUSH0 SWAP1 JUMP JUMPDEST PUSH2 0x1FC8 PUSH2 0x1FBC JUMP JUMPDEST PUSH2 0x1FD3 DUP2 DUP5 DUP5 PUSH2 0x1F97 JUMP JUMPDEST POP POP POP JUMP JUMPDEST JUMPDEST DUP2 DUP2 LT ISZERO PUSH2 0x1FF6 JUMPI PUSH2 0x1FEB PUSH0 DUP3 PUSH2 0x1FC0 JUMP JUMPDEST PUSH1 0x1 DUP2 ADD SWAP1 POP PUSH2 0x1FD9 JUMP JUMPDEST POP POP JUMP JUMPDEST PUSH1 0x1F DUP3 GT ISZERO PUSH2 0x203B JUMPI PUSH2 0x200C DUP2 PUSH2 0x1998 JUMP JUMPDEST PUSH2 0x2015 DUP5 PUSH2 0x1EF8 JUMP JUMPDEST DUP2 ADD PUSH1 0x20 DUP6 LT ISZERO PUSH2 0x2024 JUMPI DUP2 SWAP1 POP JUMPDEST PUSH2 0x2038 PUSH2 0x2030 DUP6 PUSH2 0x1EF8 JUMP JUMPDEST DUP4 ADD DUP3 PUSH2 0x1FD8 JUMP JUMPDEST POP POP JUMPDEST POP POP POP JUMP JUMPDEST PUSH0 DUP3 DUP3 SHR SWAP1 POP SWAP3 SWAP2 POP POP JUMP JUMPDEST PUSH0 PUSH2 0x205B PUSH0 NOT DUP5 PUSH1 0x8 MUL PUSH2 0x2040 JUMP JUMPDEST NOT DUP1 DUP4 AND SWAP2 POP POP SWAP3 SWAP2 POP POP JUMP JUMPDEST PUSH0 PUSH2 0x2073 DUP4 DUP4 PUSH2 0x204C JUMP JUMPDEST SWAP2 POP DUP3 PUSH1 0x2 MUL DUP3 OR SWAP1 POP SWAP3 SWAP2 POP POP JUMP JUMPDEST PUSH2 0x208C DUP3 PUSH2 0x16D6 JUMP JUMPDEST PUSH8 0xFFFFFFFFFFFFFFFF DUP2 GT ISZERO PUSH2 0x20A5 JUMPI PUSH2 0x20A4 PUSH2 0x1433 JUMP JUMPDEST JUMPDEST PUSH2 0x20AF DUP3 SLOAD PUSH2 0x1968 JUMP JUMPDEST PUSH2 0x20BA DUP3 DUP3 DUP6 PUSH2 0x1FFA JUMP JUMPDEST PUSH0 PUSH1 0x20 SWAP1 POP PUSH1 0x1F DUP4 GT PUSH1 0x1 DUP2 EQ PUSH2 0x20EB JUMPI PUSH0 DUP5 ISZERO PUSH2 0x20D9 JUMPI DUP3 DUP8 ADD MLOAD SWAP1 POP JUMPDEST PUSH2 0x20E3 DUP6 DUP3 PUSH2 0x2068 JUMP JUMPDEST DUP7 SSTORE POP PUSH2 0x214A JUMP JUMPDEST PUSH1 0x1F NOT DUP5 AND PUSH2 0x20F9 DUP7 PUSH2 0x1998 JUMP JUMPDEST PUSH0 JUMPDEST DUP3 DUP2 LT ISZERO PUSH2 0x2120 JUMPI DUP5 DUP10 ADD MLOAD DUP3 SSTORE PUSH1 0x1 DUP3 ADD SWAP2 POP PUSH1 0x20 DUP6 ADD SWAP5 POP PUSH1 0x20 DUP2 ADD SWAP1 POP PUSH2 0x20FB JUMP JUMPDEST DUP7 DUP4 LT ISZERO PUSH2 0x213D JUMPI DUP5 DUP10 ADD MLOAD PUSH2 0x2139 PUSH1 0x1F DUP10 AND DUP3 PUSH2 0x204C JUMP JUMPDEST DUP4 SSTORE POP JUMPDEST PUSH1 0x1 PUSH1 0x2 DUP9 MUL ADD DUP9 SSTORE POP POP POP JUMPDEST POP POP POP POP POP POP JUMP JUMPDEST PUSH0 PUSH2 0x215D DUP3 DUP8 PUSH2 0x19AA JUMP JUMPDEST SWAP2 POP PUSH2 0x2169 DUP3 DUP7 PUSH2 0x19AA JUMP JUMPDEST SWAP2 POP PUSH2 0x2175 DUP3 DUP6 PUSH2 0x19AA JUMP JUMPDEST SWAP2 POP PUSH2 0x2181 DUP3 DUP5 PUSH2 0x1D00 JUMP JUMPDEST PUSH1 0x14 DUP3 ADD SWAP2 POP DUP2 SWAP1 POP SWAP6 SWAP5 POP POP POP POP POP JUMP JUMPDEST PUSH32 0x5574656E7465206E6F6E204175746F72697A7A61746F21000000000000000000 PUSH0 DUP3 ADD MSTORE POP JUMP JUMPDEST PUSH0 PUSH2 0x21C7 PUSH1 0x17 DUP4 PUSH2 0x16E0 JUMP JUMPDEST SWAP2 POP PUSH2 0x21D2 DUP3 PUSH2 0x2193 JUMP JUMPDEST PUSH1 0x20 DUP3 ADD SWAP1 POP SWAP2 SWAP1 POP JUMP JUMPDEST PUSH0 PUSH1 0x20 DUP3 ADD SWAP1 POP DUP2 DUP2 SUB PUSH0 DUP4 ADD MSTORE PUSH2 0x21F4 DUP2 PUSH2 0x21BB JUMP JUMPDEST SWAP1 POP SWAP2 SWAP1 POP JUMP INVALID LOG2 PUSH5 0x6970667358 0x22 SLT KECCAK256 0x5D 0xD0 0xC9 CODECOPY 0x4F 0xEA 0xD9 PUSH20 0xDC0774084420F124D0900C6224733C9750ED4AE1 0x1F 0xDC SWAP9 CALLDATASIZE PUSH5 0x736F6C6343 STOP ADDMOD AND STOP CALLER "
				},
				"gasEstimates": {
					"creation": {
						"codeDepositCost": "1750600",
						"executionCost": "26104",
						"totalCost": "1776704"
					},
					"external": {
						"addUser(string,string,string,address)": "infinite",
						"deleteUser(address,uint256)": "infinite",
						"getBalance(address,uint256)": "infinite",
						"getEmail(address,uint256)": "infinite",
						"getFullName(address,uint256)": "infinite",
						"getId(address)": "infinite",
						"getUser(address)": "infinite",
						"isUserPresent(address)": "2905",
						"loginUser(address,string,string)": "infinite",
						"updateBalance(address,uint256,uint256)": "infinite"
					}
				},
				"methodIdentifiers": {
					"addUser(string,string,string,address)": "b48ff0f1",
					"deleteUser(address,uint256)": "ed56bac5",
					"getBalance(address,uint256)": "2b04e840",
					"getEmail(address,uint256)": "ecca4073",
					"getFullName(address,uint256)": "6e44cd42",
					"getId(address)": "65f68c89",
					"getUser(address)": "6f77926b",
					"isUserPresent(address)": "a5578807",
					"loginUser(address,string,string)": "06f22b04",
					"updateBalance(address,uint256,uint256)": "87d5173d"
				}
			},
			"storageLayout": {
				"storage": [
					{
						"astId": 44,
						"contract": "contracts/Actor/MilkHub-smart-contract/MilkHubStorage.sol:MilkHubStorage",
						"label": "MilkHubOrg",
						"offset": 0,
						"slot": "0",
						"type": "t_address"
					},
					{
						"astId": 69,
						"contract": "contracts/Actor/MilkHub-smart-contract/MilkHubStorage.sol:MilkHubStorage",
						"label": "milkhubs",
						"offset": 0,
						"slot": "1",
						"type": "t_mapping(t_address,t_struct(MilkHub)64_storage)"
					}
				],
				"types": {
					"t_address": {
						"encoding": "inplace",
						"label": "address",
						"numberOfBytes": "20"
					},
					"t_mapping(t_address,t_struct(MilkHub)64_storage)": {
						"encoding": "mapping",
						"key": "t_address",
						"label": "mapping(address => struct MilkHubStorage.MilkHub)",
						"numberOfBytes": "32",
						"value": "t_struct(MilkHub)64_storage"
					},
					"t_string_storage": {
						"encoding": "bytes",
						"label": "string",
						"numberOfBytes": "32"
					},
					"t_struct(MilkHub)64_storage": {
						"encoding": "inplace",
						"label": "struct MilkHubStorage.MilkHub",
						"members": [
							{
								"astId": 55,
								"contract": "contracts/Actor/MilkHub-smart-contract/MilkHubStorage.sol:MilkHubStorage",
								"label": "id",
								"offset": 0,
								"slot": "0",
								"type": "t_uint256"
							},
							{
								"astId": 57,
								"contract": "contracts/Actor/MilkHub-smart-contract/MilkHubStorage.sol:MilkHubStorage",
								"label": "fullName",
								"offset": 0,
								"slot": "1",
								"type": "t_string_storage"
							},
							{
								"astId": 59,
								"contract": "contracts/Actor/MilkHub-smart-contract/MilkHubStorage.sol:MilkHubStorage",
								"label": "password",
								"offset": 0,
								"slot": "2",
								"type": "t_string_storage"
							},
							{
								"astId": 61,
								"contract": "contracts/Actor/MilkHub-smart-contract/MilkHubStorage.sol:MilkHubStorage",
								"label": "email",
								"offset": 0,
								"slot": "3",
								"type": "t_string_storage"
							},
							{
								"astId": 63,
								"contract": "contracts/Actor/MilkHub-smart-contract/MilkHubStorage.sol:MilkHubStorage",
								"label": "balance",
								"offset": 0,
								"slot": "4",
								"type": "t_uint256"
							}
						],
						"numberOfBytes": "160"
					},
					"t_uint256": {
						"encoding": "inplace",
						"label": "uint256",
						"numberOfBytes": "32"
					}
				}
			},
			"userdoc": {
				"kind": "user",
				"methods": {
					"addUser(string,string,string,address)": {
						"notice": "addUser() effettuiamo la registrazione dell'utente MilkHub "
					},
					"getBalance(address,uint256)": {
						"notice": "- Funzione getBalance() attraverso l'address del MilkHub riusciamo a recuperare il suo Balance"
					},
					"getEmail(address,uint256)": {
						"notice": "- Funzione getEmail() attraverso l'address del MilkHub riusciamo a recuperare la sua Email "
					},
					"getFullName(address,uint256)": {
						"notice": "- Funzione getFullName() attraverso l'address del MilkHub riusciamo a recuperare il suo FullName"
					},
					"getId(address)": {
						"notice": "- Funzione getId() attraverso l'address del MilkHub riusciamo a recuperare il suo ID"
					},
					"getUser(address)": {
						"notice": "getUser(walletMilkHub) :  MilkHub visualizza le sue informazioni principali - email, password , fullName , balance "
					},
					"loginUser(address,string,string)": {
						"notice": "LoginUser() effettua il login dell'utente  La comparazione Hash tra (email e password) di input e quelli salvati return true se la comparazione è vera, La comparazione è falsa se l'hashing non risulta valido"
					}
				},
				"version": 1
			}
		}
	}
}