{
	"data": {
		"bytecode": {
			"linkReferences": {},
			"object": "608060405234801561000f575f80fd5b50335f806101000a81548173ffffffffffffffffffffffffffffffffffffffff021916908373ffffffffffffffffffffffffffffffffffffffff160217905550611dec8061005c5f395ff3fe608060405234801561000f575f80fd5b50600436106100a7575f3560e01c80638b3c04ce1161006f5780638b3c04ce1461018a578063c5d3e11d146101bc578063cc231726146101ec578063cfa41ed01461021c578063f93bd0211461024c578063fedf60921461027c576100a7565b80630803da24146100ab5780631e073fcf146100db578063453ecf041461010b5780636fb82e06146101275780637745770a1461015a575b5f80fd5b6100c560048036038101906100c091906111a9565b6102ac565b6040516100d29190611213565b60405180910390f35b6100f560048036038101906100f0919061122c565b61034f565b6040516101029190611279565b60405180910390f35b610125600480360381019061012091906111a9565b6104ba565b005b610141600480360381019061013c919061122c565b6105a5565b604051610151949392919061132b565b60405180910390f35b610174600480360381019061016f91906111a9565b61072b565b6040516101819190611213565b60405180910390f35b6101a4600480360381019061019f91906114a1565b61085e565b6040516101b393929190611534565b60405180910390f35b6101d660048036038101906101d1919061122c565b610a7c565b6040516101e39190611279565b60405180910390f35b6102066004803603810190610201919061122c565b610ad4565b6040516102139190611570565b60405180910390f35b6102366004803603810190610231919061122c565b610c3f565b6040516102439190611213565b60405180910390f35b6102666004803603810190610261919061122c565b610ce7565b6040516102739190611589565b60405180910390f35b610296600480360381019061029191906115a9565b610e53565b6040516102a39190611768565b60405180910390f35b5f8060015f8673ffffffffffffffffffffffffffffffffffffffff1673ffffffffffffffffffffffffffffffffffffffff1681526020019081526020015f205f8581526020019081526020015f2090508281600401541015610343576040517f08c379a000000000000000000000000000000000000000000000000000000000815260040161033a906117d2565b60405180910390fd5b60019150509392505050565b5f8060015f8573ffffffffffffffffffffffffffffffffffffffff1673ffffffffffffffffffffffffffffffffffffffff1681526020019081526020015f205f8481526020019081526020015f206040518060a00160405290815f820154815260200160018201548152602001600282015f9054906101000a900473ffffffffffffffffffffffffffffffffffffffff1673ffffffffffffffffffffffffffffffffffffffff1673ffffffffffffffffffffffffffffffffffffffff1681526020016003820180546104209061181d565b80601f016020809104026020016040519081016040528092919081815260200182805461044c9061181d565b80156104975780601f1061046e57610100808354040283529160200191610497565b820191905f5260205f20905b81548152906001019060200180831161047a57829003601f168201915b505050505081526020016004820154815250509050806080015191505092915050565b60015f8473ffffffffffffffffffffffffffffffffffffffff1673ffffffffffffffffffffffffffffffffffffffff1681526020019081526020015f205f8381526020019081526020015f206004015481111561054c576040517f08c379a0000000000000000000000000000000000000000000000000000000008152600401610543906118bd565b60405180910390fd5b8060015f8573ffffffffffffffffffffffffffffffffffffffff1673ffffffffffffffffffffffffffffffffffffffff1681526020019081526020015f205f8481526020019081526020015f2060040181905550505050565b5f8060605f8060015f8873ffffffffffffffffffffffffffffffffffffffff1673ffffffffffffffffffffffffffffffffffffffff1681526020019081526020015f205f8781526020019081526020015f206040518060a00160405290815f820154815260200160018201548152602001600282015f9054906101000a900473ffffffffffffffffffffffffffffffffffffffff1673ffffffffffffffffffffffffffffffffffffffff1673ffffffffffffffffffffffffffffffffffffffff16815260200160038201805461067a9061181d565b80601f01602080910402602001604051908101604052809291908181526020018280546106a69061181d565b80156106f15780601f106106c8576101008083540402835291602001916106f1565b820191905f5260205f20905b8154815290600101906020018083116106d457829003601f168201915b505050505081526020016004820154815250509050805f015181604001518260600151836080015194509450945094505092959194509250565b5f8260015f8673ffffffffffffffffffffffffffffffffffffffff1673ffffffffffffffffffffffffffffffffffffffff1681526020019081526020015f205f8581526020019081526020015f205f0154146107bc576040517f08c379a00000000000000000000000000000000000000000000000000000000081526004016107b390611925565b60405180910390fd5b5f60015f8673ffffffffffffffffffffffffffffffffffffffff1673ffffffffffffffffffffffffffffffffffffffff1681526020019081526020015f205f8581526020019081526020015f2090508281600401541015610852576040517f08c379a0000000000000000000000000000000000000000000000000000000008152600401610849906117d2565b60405180910390fd5b60019150509392505050565b5f60605f8084868a8a8a4260405160200161087e969594939291906119e2565b604051602081830303815290604052805190602001205f1c90505f60015f8b73ffffffffffffffffffffffffffffffffffffffff1673ffffffffffffffffffffffffffffffffffffffff1681526020019081526020015f205f8381526020019081526020015f2090505f815f01541461092c576040517f08c379a000000000000000000000000000000000000000000000000000000000815260040161092390611a97565b60405180910390fd5b5f6040518060a001604052808481526020018a81526020018b73ffffffffffffffffffffffffffffffffffffffff1681526020018981526020018881525090508060015f8d73ffffffffffffffffffffffffffffffffffffffff1673ffffffffffffffffffffffffffffffffffffffff1681526020019081526020015f205f8581526020019081526020015f205f820151815f0155602082015181600101556040820151816002015f6101000a81548173ffffffffffffffffffffffffffffffffffffffff021916908373ffffffffffffffffffffffffffffffffffffffff1602179055506060820151816003019081610a269190611c52565b5060808201518160040155905050600283908060018154018082558091505060019003905f5260205f20015f9091909190915055805f015181606001518260800151955095509550505050955095509592505050565b5f60015f8473ffffffffffffffffffffffffffffffffffffffff1673ffffffffffffffffffffffffffffffffffffffff1681526020019081526020015f205f8381526020019081526020015f205f0154905092915050565b5f8060015f8573ffffffffffffffffffffffffffffffffffffffff1673ffffffffffffffffffffffffffffffffffffffff1681526020019081526020015f205f8481526020019081526020015f206040518060a00160405290815f820154815260200160018201548152602001600282015f9054906101000a900473ffffffffffffffffffffffffffffffffffffffff1673ffffffffffffffffffffffffffffffffffffffff1673ffffffffffffffffffffffffffffffffffffffff168152602001600382018054610ba59061181d565b80601f0160208091040260200160405190810160405280929190818152602001828054610bd19061181d565b8015610c1c5780601f10610bf357610100808354040283529160200191610c1c565b820191905f5260205f20905b815481529060010190602001808311610bff57829003601f168201915b505050505081526020016004820154815250509050806040015191505092915050565b5f808214158015610c4f57505f82115b610c8e576040517f08c379a0000000000000000000000000000000000000000000000000000000008152600401610c8590611d6b565b60405180910390fd5b8160015f8573ffffffffffffffffffffffffffffffffffffffff1673ffffffffffffffffffffffffffffffffffffffff1681526020019081526020015f205f8481526020019081526020015f205f015414905092915050565b60605f60015f8573ffffffffffffffffffffffffffffffffffffffff1673ffffffffffffffffffffffffffffffffffffffff1681526020019081526020015f205f8481526020019081526020015f206040518060a00160405290815f820154815260200160018201548152602001600282015f9054906101000a900473ffffffffffffffffffffffffffffffffffffffff1673ffffffffffffffffffffffffffffffffffffffff1673ffffffffffffffffffffffffffffffffffffffff168152602001600382018054610db99061181d565b80601f0160208091040260200160405190810160405280929190818152602001828054610de59061181d565b8015610e305780601f10610e0757610100808354040283529160200191610e30565b820191905f5260205f20905b815481529060010190602001808311610e1357829003601f168201915b505050505081526020016004820154815250509050806060015191505092915050565b60605f60028054905067ffffffffffffffff811115610e7557610e7461137d565b5b604051908082528060200260200182016040528015610eae57816020015b610e9b6110ca565b815260200190600190039081610e935790505b5090505f5b6002805490508110156110c0575f60028281548110610ed557610ed4611d89565b5b905f5260205f20015490505f60015f8773ffffffffffffffffffffffffffffffffffffffff1673ffffffffffffffffffffffffffffffffffffffff1681526020019081526020015f205f8381526020019081526020015f205f0154146110b2575f60015f8773ffffffffffffffffffffffffffffffffffffffff1673ffffffffffffffffffffffffffffffffffffffff1681526020019081526020015f205f8381526020019081526020015f209050806040518060a00160405290815f820154815260200160018201548152602001600282015f9054906101000a900473ffffffffffffffffffffffffffffffffffffffff1673ffffffffffffffffffffffffffffffffffffffff1673ffffffffffffffffffffffffffffffffffffffff1681526020016003820180546110089061181d565b80601f01602080910402602001604051908101604052809291908181526020018280546110349061181d565b801561107f5780601f106110565761010080835404028352916020019161107f565b820191905f5260205f20905b81548152906001019060200180831161106257829003601f168201915b505050505081526020016004820154815250508484815181106110a5576110a4611d89565b5b6020026020010181905250505b508080600101915050610eb3565b5080915050919050565b6040518060a001604052805f81526020015f81526020015f73ffffffffffffffffffffffffffffffffffffffff168152602001606081526020015f81525090565b5f604051905090565b5f80fd5b5f80fd5b5f73ffffffffffffffffffffffffffffffffffffffff82169050919050565b5f6111458261111c565b9050919050565b6111558161113b565b811461115f575f80fd5b50565b5f813590506111708161114c565b92915050565b5f819050919050565b61118881611176565b8114611192575f80fd5b50565b5f813590506111a38161117f565b92915050565b5f805f606084860312156111c0576111bf611114565b5b5f6111cd86828701611162565b93505060206111de86828701611195565b92505060406111ef86828701611195565b9150509250925092565b5f8115159050919050565b61120d816111f9565b82525050565b5f6020820190506112265f830184611204565b92915050565b5f806040838503121561124257611241611114565b5b5f61124f85828601611162565b925050602061126085828601611195565b9150509250929050565b61127381611176565b82525050565b5f60208201905061128c5f83018461126a565b92915050565b61129b8161113b565b82525050565b5f81519050919050565b5f82825260208201905092915050565b5f5b838110156112d85780820151818401526020810190506112bd565b5f8484015250505050565b5f601f19601f8301169050919050565b5f6112fd826112a1565b61130781856112ab565b93506113178185602086016112bb565b611320816112e3565b840191505092915050565b5f60808201905061133e5f83018761126a565b61134b6020830186611292565b818103604083015261135d81856112f3565b905061136c606083018461126a565b95945050505050565b5f80fd5b5f80fd5b7f4e487b71000000000000000000000000000000000000000000000000000000005f52604160045260245ffd5b6113b3826112e3565b810181811067ffffffffffffffff821117156113d2576113d161137d565b5b80604052505050565b5f6113e461110b565b90506113f082826113aa565b919050565b5f67ffffffffffffffff82111561140f5761140e61137d565b5b611418826112e3565b9050602081019050919050565b828183375f83830152505050565b5f611445611440846113f5565b6113db565b90508281526020810184848401111561146157611460611379565b5b61146c848285611425565b509392505050565b5f82601f83011261148857611487611375565b5b8135611498848260208601611433565b91505092915050565b5f805f805f60a086880312156114ba576114b9611114565b5b5f6114c788828901611162565b95505060206114d888828901611162565b94505060406114e988828901611195565b935050606086013567ffffffffffffffff81111561150a57611509611118565b5b61151688828901611474565b925050608061152788828901611195565b9150509295509295909350565b5f6060820190506115475f83018661126a565b818103602083015261155981856112f3565b9050611568604083018461126a565b949350505050565b5f6020820190506115835f830184611292565b92915050565b5f6020820190508181035f8301526115a181846112f3565b905092915050565b5f602082840312156115be576115bd611114565b5b5f6115cb84828501611162565b91505092915050565b5f81519050919050565b5f82825260208201905092915050565b5f819050602082019050919050565b61160681611176565b82525050565b6116158161113b565b82525050565b5f82825260208201905092915050565b5f611635826112a1565b61163f818561161b565b935061164f8185602086016112bb565b611658816112e3565b840191505092915050565b5f60a083015f8301516116785f8601826115fd565b50602083015161168b60208601826115fd565b50604083015161169e604086018261160c565b50606083015184820360608601526116b6828261162b565b91505060808301516116cb60808601826115fd565b508091505092915050565b5f6116e18383611663565b905092915050565b5f602082019050919050565b5f6116ff826115d4565b61170981856115de565b93508360208202850161171b856115ee565b805f5b85811015611756578484038952815161173785826116d6565b9450611742836116e9565b925060208a0199505060018101905061171e565b50829750879550505050505092915050565b5f6020820190508181035f83015261178081846116f5565b905092915050565b7f5175616e74697479206e6f742056616c696421000000000000000000000000005f82015250565b5f6117bc6013836112ab565b91506117c782611788565b602082019050919050565b5f6020820190508181035f8301526117e9816117b0565b9050919050565b7f4e487b71000000000000000000000000000000000000000000000000000000005f52602260045260245ffd5b5f600282049050600182168061183457607f821691505b602082108103611847576118466117f0565b5b50919050565b7f436f6e74726f6c6c6f2064656c6c61205175616e7469746127206461207574695f8201527f6c697a7a617265206e6f6e20616e6461746120612062756f6e2066696e652100602082015250565b5f6118a7603f836112ab565b91506118b28261184d565b604082019050919050565b5f6020820190508181035f8301526118d48161189b565b9050919050565b7f50617274697461206469204c61747465206e6f6e2070726573656e74652100005f82015250565b5f61190f601e836112ab565b915061191a826118db565b602082019050919050565b5f6020820190508181035f83015261193c81611903565b9050919050565b5f819050919050565b61195d61195882611176565b611943565b82525050565b5f81905092915050565b5f611977826112a1565b6119818185611963565b93506119918185602086016112bb565b80840191505092915050565b5f8160601b9050919050565b5f6119b38261199d565b9050919050565b5f6119c4826119a9565b9050919050565b6119dc6119d78261113b565b6119ba565b82525050565b5f6119ed828961194c565b6020820191506119fd828861196d565b9150611a0982876119cb565b601482019150611a1982866119cb565b601482019150611a29828561194c565b602082019150611a39828461194c565b602082019150819050979650505050505050565b7f50617274697461206469204c6174746520676961272070726573656e746521005f82015250565b5f611a81601f836112ab565b9150611a8c82611a4d565b602082019050919050565b5f6020820190508181035f830152611aae81611a75565b9050919050565b5f819050815f5260205f209050919050565b5f6020601f8301049050919050565b5f82821b905092915050565b5f60088302611b117fffffffffffffffffffffffffffffffffffffffffffffffffffffffffffffffff82611ad6565b611b1b8683611ad6565b95508019841693508086168417925050509392505050565b5f819050919050565b5f611b56611b51611b4c84611176565b611b33565b611176565b9050919050565b5f819050919050565b611b6f83611b3c565b611b83611b7b82611b5d565b848454611ae2565b825550505050565b5f90565b611b97611b8b565b611ba2818484611b66565b505050565b5b81811015611bc557611bba5f82611b8f565b600181019050611ba8565b5050565b601f821115611c0a57611bdb81611ab5565b611be484611ac7565b81016020851015611bf3578190505b611c07611bff85611ac7565b830182611ba7565b50505b505050565b5f82821c905092915050565b5f611c2a5f1984600802611c0f565b1980831691505092915050565b5f611c428383611c1b565b9150826002028217905092915050565b611c5b826112a1565b67ffffffffffffffff811115611c7457611c7361137d565b5b611c7e825461181d565b611c89828285611bc9565b5f60209050601f831160018114611cba575f8415611ca8578287015190505b611cb28582611c37565b865550611d19565b601f198416611cc886611ab5565b5f5b82811015611cef57848901518255600182019150602085019450602081019050611cca565b86831015611d0c5784890151611d08601f891682611c1b565b8355505b6001600288020188555050505b505050505050565b7f494420436865657365204e6f742056616c6964210000000000000000000000005f82015250565b5f611d556014836112ab565b9150611d6082611d21565b602082019050919050565b5f6020820190508181035f830152611d8281611d49565b9050919050565b7f4e487b71000000000000000000000000000000000000000000000000000000005f52603260045260245ffdfea26469706673582212204a55db560e2635dda23430d24b0a4eca0a6720bb7b0f2f3afa852500de93020564736f6c63430008160033",
			"opcodes": "PUSH1 0x80 PUSH1 0x40 MSTORE CALLVALUE DUP1 ISZERO PUSH2 0xF JUMPI PUSH0 DUP1 REVERT JUMPDEST POP CALLER PUSH0 DUP1 PUSH2 0x100 EXP DUP2 SLOAD DUP2 PUSH20 0xFFFFFFFFFFFFFFFFFFFFFFFFFFFFFFFFFFFFFFFF MUL NOT AND SWAP1 DUP4 PUSH20 0xFFFFFFFFFFFFFFFFFFFFFFFFFFFFFFFFFFFFFFFF AND MUL OR SWAP1 SSTORE POP PUSH2 0x1DEC DUP1 PUSH2 0x5C PUSH0 CODECOPY PUSH0 RETURN INVALID PUSH1 0x80 PUSH1 0x40 MSTORE CALLVALUE DUP1 ISZERO PUSH2 0xF JUMPI PUSH0 DUP1 REVERT JUMPDEST POP PUSH1 0x4 CALLDATASIZE LT PUSH2 0xA7 JUMPI PUSH0 CALLDATALOAD PUSH1 0xE0 SHR DUP1 PUSH4 0x8B3C04CE GT PUSH2 0x6F JUMPI DUP1 PUSH4 0x8B3C04CE EQ PUSH2 0x18A JUMPI DUP1 PUSH4 0xC5D3E11D EQ PUSH2 0x1BC JUMPI DUP1 PUSH4 0xCC231726 EQ PUSH2 0x1EC JUMPI DUP1 PUSH4 0xCFA41ED0 EQ PUSH2 0x21C JUMPI DUP1 PUSH4 0xF93BD021 EQ PUSH2 0x24C JUMPI DUP1 PUSH4 0xFEDF6092 EQ PUSH2 0x27C JUMPI PUSH2 0xA7 JUMP JUMPDEST DUP1 PUSH4 0x803DA24 EQ PUSH2 0xAB JUMPI DUP1 PUSH4 0x1E073FCF EQ PUSH2 0xDB JUMPI DUP1 PUSH4 0x453ECF04 EQ PUSH2 0x10B JUMPI DUP1 PUSH4 0x6FB82E06 EQ PUSH2 0x127 JUMPI DUP1 PUSH4 0x7745770A EQ PUSH2 0x15A JUMPI JUMPDEST PUSH0 DUP1 REVERT JUMPDEST PUSH2 0xC5 PUSH1 0x4 DUP1 CALLDATASIZE SUB DUP2 ADD SWAP1 PUSH2 0xC0 SWAP2 SWAP1 PUSH2 0x11A9 JUMP JUMPDEST PUSH2 0x2AC JUMP JUMPDEST PUSH1 0x40 MLOAD PUSH2 0xD2 SWAP2 SWAP1 PUSH2 0x1213 JUMP JUMPDEST PUSH1 0x40 MLOAD DUP1 SWAP2 SUB SWAP1 RETURN JUMPDEST PUSH2 0xF5 PUSH1 0x4 DUP1 CALLDATASIZE SUB DUP2 ADD SWAP1 PUSH2 0xF0 SWAP2 SWAP1 PUSH2 0x122C JUMP JUMPDEST PUSH2 0x34F JUMP JUMPDEST PUSH1 0x40 MLOAD PUSH2 0x102 SWAP2 SWAP1 PUSH2 0x1279 JUMP JUMPDEST PUSH1 0x40 MLOAD DUP1 SWAP2 SUB SWAP1 RETURN JUMPDEST PUSH2 0x125 PUSH1 0x4 DUP1 CALLDATASIZE SUB DUP2 ADD SWAP1 PUSH2 0x120 SWAP2 SWAP1 PUSH2 0x11A9 JUMP JUMPDEST PUSH2 0x4BA JUMP JUMPDEST STOP JUMPDEST PUSH2 0x141 PUSH1 0x4 DUP1 CALLDATASIZE SUB DUP2 ADD SWAP1 PUSH2 0x13C SWAP2 SWAP1 PUSH2 0x122C JUMP JUMPDEST PUSH2 0x5A5 JUMP JUMPDEST PUSH1 0x40 MLOAD PUSH2 0x151 SWAP5 SWAP4 SWAP3 SWAP2 SWAP1 PUSH2 0x132B JUMP JUMPDEST PUSH1 0x40 MLOAD DUP1 SWAP2 SUB SWAP1 RETURN JUMPDEST PUSH2 0x174 PUSH1 0x4 DUP1 CALLDATASIZE SUB DUP2 ADD SWAP1 PUSH2 0x16F SWAP2 SWAP1 PUSH2 0x11A9 JUMP JUMPDEST PUSH2 0x72B JUMP JUMPDEST PUSH1 0x40 MLOAD PUSH2 0x181 SWAP2 SWAP1 PUSH2 0x1213 JUMP JUMPDEST PUSH1 0x40 MLOAD DUP1 SWAP2 SUB SWAP1 RETURN JUMPDEST PUSH2 0x1A4 PUSH1 0x4 DUP1 CALLDATASIZE SUB DUP2 ADD SWAP1 PUSH2 0x19F SWAP2 SWAP1 PUSH2 0x14A1 JUMP JUMPDEST PUSH2 0x85E JUMP JUMPDEST PUSH1 0x40 MLOAD PUSH2 0x1B3 SWAP4 SWAP3 SWAP2 SWAP1 PUSH2 0x1534 JUMP JUMPDEST PUSH1 0x40 MLOAD DUP1 SWAP2 SUB SWAP1 RETURN JUMPDEST PUSH2 0x1D6 PUSH1 0x4 DUP1 CALLDATASIZE SUB DUP2 ADD SWAP1 PUSH2 0x1D1 SWAP2 SWAP1 PUSH2 0x122C JUMP JUMPDEST PUSH2 0xA7C JUMP JUMPDEST PUSH1 0x40 MLOAD PUSH2 0x1E3 SWAP2 SWAP1 PUSH2 0x1279 JUMP JUMPDEST PUSH1 0x40 MLOAD DUP1 SWAP2 SUB SWAP1 RETURN JUMPDEST PUSH2 0x206 PUSH1 0x4 DUP1 CALLDATASIZE SUB DUP2 ADD SWAP1 PUSH2 0x201 SWAP2 SWAP1 PUSH2 0x122C JUMP JUMPDEST PUSH2 0xAD4 JUMP JUMPDEST PUSH1 0x40 MLOAD PUSH2 0x213 SWAP2 SWAP1 PUSH2 0x1570 JUMP JUMPDEST PUSH1 0x40 MLOAD DUP1 SWAP2 SUB SWAP1 RETURN JUMPDEST PUSH2 0x236 PUSH1 0x4 DUP1 CALLDATASIZE SUB DUP2 ADD SWAP1 PUSH2 0x231 SWAP2 SWAP1 PUSH2 0x122C JUMP JUMPDEST PUSH2 0xC3F JUMP JUMPDEST PUSH1 0x40 MLOAD PUSH2 0x243 SWAP2 SWAP1 PUSH2 0x1213 JUMP JUMPDEST PUSH1 0x40 MLOAD DUP1 SWAP2 SUB SWAP1 RETURN JUMPDEST PUSH2 0x266 PUSH1 0x4 DUP1 CALLDATASIZE SUB DUP2 ADD SWAP1 PUSH2 0x261 SWAP2 SWAP1 PUSH2 0x122C JUMP JUMPDEST PUSH2 0xCE7 JUMP JUMPDEST PUSH1 0x40 MLOAD PUSH2 0x273 SWAP2 SWAP1 PUSH2 0x1589 JUMP JUMPDEST PUSH1 0x40 MLOAD DUP1 SWAP2 SUB SWAP1 RETURN JUMPDEST PUSH2 0x296 PUSH1 0x4 DUP1 CALLDATASIZE SUB DUP2 ADD SWAP1 PUSH2 0x291 SWAP2 SWAP1 PUSH2 0x15A9 JUMP JUMPDEST PUSH2 0xE53 JUMP JUMPDEST PUSH1 0x40 MLOAD PUSH2 0x2A3 SWAP2 SWAP1 PUSH2 0x1768 JUMP JUMPDEST PUSH1 0x40 MLOAD DUP1 SWAP2 SUB SWAP1 RETURN JUMPDEST PUSH0 DUP1 PUSH1 0x1 PUSH0 DUP7 PUSH20 0xFFFFFFFFFFFFFFFFFFFFFFFFFFFFFFFFFFFFFFFF AND PUSH20 0xFFFFFFFFFFFFFFFFFFFFFFFFFFFFFFFFFFFFFFFF AND DUP2 MSTORE PUSH1 0x20 ADD SWAP1 DUP2 MSTORE PUSH1 0x20 ADD PUSH0 KECCAK256 PUSH0 DUP6 DUP2 MSTORE PUSH1 0x20 ADD SWAP1 DUP2 MSTORE PUSH1 0x20 ADD PUSH0 KECCAK256 SWAP1 POP DUP3 DUP2 PUSH1 0x4 ADD SLOAD LT ISZERO PUSH2 0x343 JUMPI PUSH1 0x40 MLOAD PUSH32 0x8C379A000000000000000000000000000000000000000000000000000000000 DUP2 MSTORE PUSH1 0x4 ADD PUSH2 0x33A SWAP1 PUSH2 0x17D2 JUMP JUMPDEST PUSH1 0x40 MLOAD DUP1 SWAP2 SUB SWAP1 REVERT JUMPDEST PUSH1 0x1 SWAP2 POP POP SWAP4 SWAP3 POP POP POP JUMP JUMPDEST PUSH0 DUP1 PUSH1 0x1 PUSH0 DUP6 PUSH20 0xFFFFFFFFFFFFFFFFFFFFFFFFFFFFFFFFFFFFFFFF AND PUSH20 0xFFFFFFFFFFFFFFFFFFFFFFFFFFFFFFFFFFFFFFFF AND DUP2 MSTORE PUSH1 0x20 ADD SWAP1 DUP2 MSTORE PUSH1 0x20 ADD PUSH0 KECCAK256 PUSH0 DUP5 DUP2 MSTORE PUSH1 0x20 ADD SWAP1 DUP2 MSTORE PUSH1 0x20 ADD PUSH0 KECCAK256 PUSH1 0x40 MLOAD DUP1 PUSH1 0xA0 ADD PUSH1 0x40 MSTORE SWAP1 DUP2 PUSH0 DUP3 ADD SLOAD DUP2 MSTORE PUSH1 0x20 ADD PUSH1 0x1 DUP3 ADD SLOAD DUP2 MSTORE PUSH1 0x20 ADD PUSH1 0x2 DUP3 ADD PUSH0 SWAP1 SLOAD SWAP1 PUSH2 0x100 EXP SWAP1 DIV PUSH20 0xFFFFFFFFFFFFFFFFFFFFFFFFFFFFFFFFFFFFFFFF AND PUSH20 0xFFFFFFFFFFFFFFFFFFFFFFFFFFFFFFFFFFFFFFFF AND PUSH20 0xFFFFFFFFFFFFFFFFFFFFFFFFFFFFFFFFFFFFFFFF AND DUP2 MSTORE PUSH1 0x20 ADD PUSH1 0x3 DUP3 ADD DUP1 SLOAD PUSH2 0x420 SWAP1 PUSH2 0x181D JUMP JUMPDEST DUP1 PUSH1 0x1F ADD PUSH1 0x20 DUP1 SWAP2 DIV MUL PUSH1 0x20 ADD PUSH1 0x40 MLOAD SWAP1 DUP2 ADD PUSH1 0x40 MSTORE DUP1 SWAP3 SWAP2 SWAP1 DUP2 DUP2 MSTORE PUSH1 0x20 ADD DUP3 DUP1 SLOAD PUSH2 0x44C SWAP1 PUSH2 0x181D JUMP JUMPDEST DUP1 ISZERO PUSH2 0x497 JUMPI DUP1 PUSH1 0x1F LT PUSH2 0x46E JUMPI PUSH2 0x100 DUP1 DUP4 SLOAD DIV MUL DUP4 MSTORE SWAP2 PUSH1 0x20 ADD SWAP2 PUSH2 0x497 JUMP JUMPDEST DUP3 ADD SWAP2 SWAP1 PUSH0 MSTORE PUSH1 0x20 PUSH0 KECCAK256 SWAP1 JUMPDEST DUP2 SLOAD DUP2 MSTORE SWAP1 PUSH1 0x1 ADD SWAP1 PUSH1 0x20 ADD DUP1 DUP4 GT PUSH2 0x47A JUMPI DUP3 SWAP1 SUB PUSH1 0x1F AND DUP3 ADD SWAP2 JUMPDEST POP POP POP POP POP DUP2 MSTORE PUSH1 0x20 ADD PUSH1 0x4 DUP3 ADD SLOAD DUP2 MSTORE POP POP SWAP1 POP DUP1 PUSH1 0x80 ADD MLOAD SWAP2 POP POP SWAP3 SWAP2 POP POP JUMP JUMPDEST PUSH1 0x1 PUSH0 DUP5 PUSH20 0xFFFFFFFFFFFFFFFFFFFFFFFFFFFFFFFFFFFFFFFF AND PUSH20 0xFFFFFFFFFFFFFFFFFFFFFFFFFFFFFFFFFFFFFFFF AND DUP2 MSTORE PUSH1 0x20 ADD SWAP1 DUP2 MSTORE PUSH1 0x20 ADD PUSH0 KECCAK256 PUSH0 DUP4 DUP2 MSTORE PUSH1 0x20 ADD SWAP1 DUP2 MSTORE PUSH1 0x20 ADD PUSH0 KECCAK256 PUSH1 0x4 ADD SLOAD DUP2 GT ISZERO PUSH2 0x54C JUMPI PUSH1 0x40 MLOAD PUSH32 0x8C379A000000000000000000000000000000000000000000000000000000000 DUP2 MSTORE PUSH1 0x4 ADD PUSH2 0x543 SWAP1 PUSH2 0x18BD JUMP JUMPDEST PUSH1 0x40 MLOAD DUP1 SWAP2 SUB SWAP1 REVERT JUMPDEST DUP1 PUSH1 0x1 PUSH0 DUP6 PUSH20 0xFFFFFFFFFFFFFFFFFFFFFFFFFFFFFFFFFFFFFFFF AND PUSH20 0xFFFFFFFFFFFFFFFFFFFFFFFFFFFFFFFFFFFFFFFF AND DUP2 MSTORE PUSH1 0x20 ADD SWAP1 DUP2 MSTORE PUSH1 0x20 ADD PUSH0 KECCAK256 PUSH0 DUP5 DUP2 MSTORE PUSH1 0x20 ADD SWAP1 DUP2 MSTORE PUSH1 0x20 ADD PUSH0 KECCAK256 PUSH1 0x4 ADD DUP2 SWAP1 SSTORE POP POP POP POP JUMP JUMPDEST PUSH0 DUP1 PUSH1 0x60 PUSH0 DUP1 PUSH1 0x1 PUSH0 DUP9 PUSH20 0xFFFFFFFFFFFFFFFFFFFFFFFFFFFFFFFFFFFFFFFF AND PUSH20 0xFFFFFFFFFFFFFFFFFFFFFFFFFFFFFFFFFFFFFFFF AND DUP2 MSTORE PUSH1 0x20 ADD SWAP1 DUP2 MSTORE PUSH1 0x20 ADD PUSH0 KECCAK256 PUSH0 DUP8 DUP2 MSTORE PUSH1 0x20 ADD SWAP1 DUP2 MSTORE PUSH1 0x20 ADD PUSH0 KECCAK256 PUSH1 0x40 MLOAD DUP1 PUSH1 0xA0 ADD PUSH1 0x40 MSTORE SWAP1 DUP2 PUSH0 DUP3 ADD SLOAD DUP2 MSTORE PUSH1 0x20 ADD PUSH1 0x1 DUP3 ADD SLOAD DUP2 MSTORE PUSH1 0x20 ADD PUSH1 0x2 DUP3 ADD PUSH0 SWAP1 SLOAD SWAP1 PUSH2 0x100 EXP SWAP1 DIV PUSH20 0xFFFFFFFFFFFFFFFFFFFFFFFFFFFFFFFFFFFFFFFF AND PUSH20 0xFFFFFFFFFFFFFFFFFFFFFFFFFFFFFFFFFFFFFFFF AND PUSH20 0xFFFFFFFFFFFFFFFFFFFFFFFFFFFFFFFFFFFFFFFF AND DUP2 MSTORE PUSH1 0x20 ADD PUSH1 0x3 DUP3 ADD DUP1 SLOAD PUSH2 0x67A SWAP1 PUSH2 0x181D JUMP JUMPDEST DUP1 PUSH1 0x1F ADD PUSH1 0x20 DUP1 SWAP2 DIV MUL PUSH1 0x20 ADD PUSH1 0x40 MLOAD SWAP1 DUP2 ADD PUSH1 0x40 MSTORE DUP1 SWAP3 SWAP2 SWAP1 DUP2 DUP2 MSTORE PUSH1 0x20 ADD DUP3 DUP1 SLOAD PUSH2 0x6A6 SWAP1 PUSH2 0x181D JUMP JUMPDEST DUP1 ISZERO PUSH2 0x6F1 JUMPI DUP1 PUSH1 0x1F LT PUSH2 0x6C8 JUMPI PUSH2 0x100 DUP1 DUP4 SLOAD DIV MUL DUP4 MSTORE SWAP2 PUSH1 0x20 ADD SWAP2 PUSH2 0x6F1 JUMP JUMPDEST DUP3 ADD SWAP2 SWAP1 PUSH0 MSTORE PUSH1 0x20 PUSH0 KECCAK256 SWAP1 JUMPDEST DUP2 SLOAD DUP2 MSTORE SWAP1 PUSH1 0x1 ADD SWAP1 PUSH1 0x20 ADD DUP1 DUP4 GT PUSH2 0x6D4 JUMPI DUP3 SWAP1 SUB PUSH1 0x1F AND DUP3 ADD SWAP2 JUMPDEST POP POP POP POP POP DUP2 MSTORE PUSH1 0x20 ADD PUSH1 0x4 DUP3 ADD SLOAD DUP2 MSTORE POP POP SWAP1 POP DUP1 PUSH0 ADD MLOAD DUP2 PUSH1 0x40 ADD MLOAD DUP3 PUSH1 0x60 ADD MLOAD DUP4 PUSH1 0x80 ADD MLOAD SWAP5 POP SWAP5 POP SWAP5 POP SWAP5 POP POP SWAP3 SWAP6 SWAP2 SWAP5 POP SWAP3 POP JUMP JUMPDEST PUSH0 DUP3 PUSH1 0x1 PUSH0 DUP7 PUSH20 0xFFFFFFFFFFFFFFFFFFFFFFFFFFFFFFFFFFFFFFFF AND PUSH20 0xFFFFFFFFFFFFFFFFFFFFFFFFFFFFFFFFFFFFFFFF AND DUP2 MSTORE PUSH1 0x20 ADD SWAP1 DUP2 MSTORE PUSH1 0x20 ADD PUSH0 KECCAK256 PUSH0 DUP6 DUP2 MSTORE PUSH1 0x20 ADD SWAP1 DUP2 MSTORE PUSH1 0x20 ADD PUSH0 KECCAK256 PUSH0 ADD SLOAD EQ PUSH2 0x7BC JUMPI PUSH1 0x40 MLOAD PUSH32 0x8C379A000000000000000000000000000000000000000000000000000000000 DUP2 MSTORE PUSH1 0x4 ADD PUSH2 0x7B3 SWAP1 PUSH2 0x1925 JUMP JUMPDEST PUSH1 0x40 MLOAD DUP1 SWAP2 SUB SWAP1 REVERT JUMPDEST PUSH0 PUSH1 0x1 PUSH0 DUP7 PUSH20 0xFFFFFFFFFFFFFFFFFFFFFFFFFFFFFFFFFFFFFFFF AND PUSH20 0xFFFFFFFFFFFFFFFFFFFFFFFFFFFFFFFFFFFFFFFF AND DUP2 MSTORE PUSH1 0x20 ADD SWAP1 DUP2 MSTORE PUSH1 0x20 ADD PUSH0 KECCAK256 PUSH0 DUP6 DUP2 MSTORE PUSH1 0x20 ADD SWAP1 DUP2 MSTORE PUSH1 0x20 ADD PUSH0 KECCAK256 SWAP1 POP DUP3 DUP2 PUSH1 0x4 ADD SLOAD LT ISZERO PUSH2 0x852 JUMPI PUSH1 0x40 MLOAD PUSH32 0x8C379A000000000000000000000000000000000000000000000000000000000 DUP2 MSTORE PUSH1 0x4 ADD PUSH2 0x849 SWAP1 PUSH2 0x17D2 JUMP JUMPDEST PUSH1 0x40 MLOAD DUP1 SWAP2 SUB SWAP1 REVERT JUMPDEST PUSH1 0x1 SWAP2 POP POP SWAP4 SWAP3 POP POP POP JUMP JUMPDEST PUSH0 PUSH1 0x60 PUSH0 DUP1 DUP5 DUP7 DUP11 DUP11 DUP11 TIMESTAMP PUSH1 0x40 MLOAD PUSH1 0x20 ADD PUSH2 0x87E SWAP7 SWAP6 SWAP5 SWAP4 SWAP3 SWAP2 SWAP1 PUSH2 0x19E2 JUMP JUMPDEST PUSH1 0x40 MLOAD PUSH1 0x20 DUP2 DUP4 SUB SUB DUP2 MSTORE SWAP1 PUSH1 0x40 MSTORE DUP1 MLOAD SWAP1 PUSH1 0x20 ADD KECCAK256 PUSH0 SHR SWAP1 POP PUSH0 PUSH1 0x1 PUSH0 DUP12 PUSH20 0xFFFFFFFFFFFFFFFFFFFFFFFFFFFFFFFFFFFFFFFF AND PUSH20 0xFFFFFFFFFFFFFFFFFFFFFFFFFFFFFFFFFFFFFFFF AND DUP2 MSTORE PUSH1 0x20 ADD SWAP1 DUP2 MSTORE PUSH1 0x20 ADD PUSH0 KECCAK256 PUSH0 DUP4 DUP2 MSTORE PUSH1 0x20 ADD SWAP1 DUP2 MSTORE PUSH1 0x20 ADD PUSH0 KECCAK256 SWAP1 POP PUSH0 DUP2 PUSH0 ADD SLOAD EQ PUSH2 0x92C JUMPI PUSH1 0x40 MLOAD PUSH32 0x8C379A000000000000000000000000000000000000000000000000000000000 DUP2 MSTORE PUSH1 0x4 ADD PUSH2 0x923 SWAP1 PUSH2 0x1A97 JUMP JUMPDEST PUSH1 0x40 MLOAD DUP1 SWAP2 SUB SWAP1 REVERT JUMPDEST PUSH0 PUSH1 0x40 MLOAD DUP1 PUSH1 0xA0 ADD PUSH1 0x40 MSTORE DUP1 DUP5 DUP2 MSTORE PUSH1 0x20 ADD DUP11 DUP2 MSTORE PUSH1 0x20 ADD DUP12 PUSH20 0xFFFFFFFFFFFFFFFFFFFFFFFFFFFFFFFFFFFFFFFF AND DUP2 MSTORE PUSH1 0x20 ADD DUP10 DUP2 MSTORE PUSH1 0x20 ADD DUP9 DUP2 MSTORE POP SWAP1 POP DUP1 PUSH1 0x1 PUSH0 DUP14 PUSH20 0xFFFFFFFFFFFFFFFFFFFFFFFFFFFFFFFFFFFFFFFF AND PUSH20 0xFFFFFFFFFFFFFFFFFFFFFFFFFFFFFFFFFFFFFFFF AND DUP2 MSTORE PUSH1 0x20 ADD SWAP1 DUP2 MSTORE PUSH1 0x20 ADD PUSH0 KECCAK256 PUSH0 DUP6 DUP2 MSTORE PUSH1 0x20 ADD SWAP1 DUP2 MSTORE PUSH1 0x20 ADD PUSH0 KECCAK256 PUSH0 DUP3 ADD MLOAD DUP2 PUSH0 ADD SSTORE PUSH1 0x20 DUP3 ADD MLOAD DUP2 PUSH1 0x1 ADD SSTORE PUSH1 0x40 DUP3 ADD MLOAD DUP2 PUSH1 0x2 ADD PUSH0 PUSH2 0x100 EXP DUP2 SLOAD DUP2 PUSH20 0xFFFFFFFFFFFFFFFFFFFFFFFFFFFFFFFFFFFFFFFF MUL NOT AND SWAP1 DUP4 PUSH20 0xFFFFFFFFFFFFFFFFFFFFFFFFFFFFFFFFFFFFFFFF AND MUL OR SWAP1 SSTORE POP PUSH1 0x60 DUP3 ADD MLOAD DUP2 PUSH1 0x3 ADD SWAP1 DUP2 PUSH2 0xA26 SWAP2 SWAP1 PUSH2 0x1C52 JUMP JUMPDEST POP PUSH1 0x80 DUP3 ADD MLOAD DUP2 PUSH1 0x4 ADD SSTORE SWAP1 POP POP PUSH1 0x2 DUP4 SWAP1 DUP1 PUSH1 0x1 DUP2 SLOAD ADD DUP1 DUP3 SSTORE DUP1 SWAP2 POP POP PUSH1 0x1 SWAP1 SUB SWAP1 PUSH0 MSTORE PUSH1 0x20 PUSH0 KECCAK256 ADD PUSH0 SWAP1 SWAP2 SWAP1 SWAP2 SWAP1 SWAP2 POP SSTORE DUP1 PUSH0 ADD MLOAD DUP2 PUSH1 0x60 ADD MLOAD DUP3 PUSH1 0x80 ADD MLOAD SWAP6 POP SWAP6 POP SWAP6 POP POP POP POP SWAP6 POP SWAP6 POP SWAP6 SWAP3 POP POP POP JUMP JUMPDEST PUSH0 PUSH1 0x1 PUSH0 DUP5 PUSH20 0xFFFFFFFFFFFFFFFFFFFFFFFFFFFFFFFFFFFFFFFF AND PUSH20 0xFFFFFFFFFFFFFFFFFFFFFFFFFFFFFFFFFFFFFFFF AND DUP2 MSTORE PUSH1 0x20 ADD SWAP1 DUP2 MSTORE PUSH1 0x20 ADD PUSH0 KECCAK256 PUSH0 DUP4 DUP2 MSTORE PUSH1 0x20 ADD SWAP1 DUP2 MSTORE PUSH1 0x20 ADD PUSH0 KECCAK256 PUSH0 ADD SLOAD SWAP1 POP SWAP3 SWAP2 POP POP JUMP JUMPDEST PUSH0 DUP1 PUSH1 0x1 PUSH0 DUP6 PUSH20 0xFFFFFFFFFFFFFFFFFFFFFFFFFFFFFFFFFFFFFFFF AND PUSH20 0xFFFFFFFFFFFFFFFFFFFFFFFFFFFFFFFFFFFFFFFF AND DUP2 MSTORE PUSH1 0x20 ADD SWAP1 DUP2 MSTORE PUSH1 0x20 ADD PUSH0 KECCAK256 PUSH0 DUP5 DUP2 MSTORE PUSH1 0x20 ADD SWAP1 DUP2 MSTORE PUSH1 0x20 ADD PUSH0 KECCAK256 PUSH1 0x40 MLOAD DUP1 PUSH1 0xA0 ADD PUSH1 0x40 MSTORE SWAP1 DUP2 PUSH0 DUP3 ADD SLOAD DUP2 MSTORE PUSH1 0x20 ADD PUSH1 0x1 DUP3 ADD SLOAD DUP2 MSTORE PUSH1 0x20 ADD PUSH1 0x2 DUP3 ADD PUSH0 SWAP1 SLOAD SWAP1 PUSH2 0x100 EXP SWAP1 DIV PUSH20 0xFFFFFFFFFFFFFFFFFFFFFFFFFFFFFFFFFFFFFFFF AND PUSH20 0xFFFFFFFFFFFFFFFFFFFFFFFFFFFFFFFFFFFFFFFF AND PUSH20 0xFFFFFFFFFFFFFFFFFFFFFFFFFFFFFFFFFFFFFFFF AND DUP2 MSTORE PUSH1 0x20 ADD PUSH1 0x3 DUP3 ADD DUP1 SLOAD PUSH2 0xBA5 SWAP1 PUSH2 0x181D JUMP JUMPDEST DUP1 PUSH1 0x1F ADD PUSH1 0x20 DUP1 SWAP2 DIV MUL PUSH1 0x20 ADD PUSH1 0x40 MLOAD SWAP1 DUP2 ADD PUSH1 0x40 MSTORE DUP1 SWAP3 SWAP2 SWAP1 DUP2 DUP2 MSTORE PUSH1 0x20 ADD DUP3 DUP1 SLOAD PUSH2 0xBD1 SWAP1 PUSH2 0x181D JUMP JUMPDEST DUP1 ISZERO PUSH2 0xC1C JUMPI DUP1 PUSH1 0x1F LT PUSH2 0xBF3 JUMPI PUSH2 0x100 DUP1 DUP4 SLOAD DIV MUL DUP4 MSTORE SWAP2 PUSH1 0x20 ADD SWAP2 PUSH2 0xC1C JUMP JUMPDEST DUP3 ADD SWAP2 SWAP1 PUSH0 MSTORE PUSH1 0x20 PUSH0 KECCAK256 SWAP1 JUMPDEST DUP2 SLOAD DUP2 MSTORE SWAP1 PUSH1 0x1 ADD SWAP1 PUSH1 0x20 ADD DUP1 DUP4 GT PUSH2 0xBFF JUMPI DUP3 SWAP1 SUB PUSH1 0x1F AND DUP3 ADD SWAP2 JUMPDEST POP POP POP POP POP DUP2 MSTORE PUSH1 0x20 ADD PUSH1 0x4 DUP3 ADD SLOAD DUP2 MSTORE POP POP SWAP1 POP DUP1 PUSH1 0x40 ADD MLOAD SWAP2 POP POP SWAP3 SWAP2 POP POP JUMP JUMPDEST PUSH0 DUP1 DUP3 EQ ISZERO DUP1 ISZERO PUSH2 0xC4F JUMPI POP PUSH0 DUP3 GT JUMPDEST PUSH2 0xC8E JUMPI PUSH1 0x40 MLOAD PUSH32 0x8C379A000000000000000000000000000000000000000000000000000000000 DUP2 MSTORE PUSH1 0x4 ADD PUSH2 0xC85 SWAP1 PUSH2 0x1D6B JUMP JUMPDEST PUSH1 0x40 MLOAD DUP1 SWAP2 SUB SWAP1 REVERT JUMPDEST DUP2 PUSH1 0x1 PUSH0 DUP6 PUSH20 0xFFFFFFFFFFFFFFFFFFFFFFFFFFFFFFFFFFFFFFFF AND PUSH20 0xFFFFFFFFFFFFFFFFFFFFFFFFFFFFFFFFFFFFFFFF AND DUP2 MSTORE PUSH1 0x20 ADD SWAP1 DUP2 MSTORE PUSH1 0x20 ADD PUSH0 KECCAK256 PUSH0 DUP5 DUP2 MSTORE PUSH1 0x20 ADD SWAP1 DUP2 MSTORE PUSH1 0x20 ADD PUSH0 KECCAK256 PUSH0 ADD SLOAD EQ SWAP1 POP SWAP3 SWAP2 POP POP JUMP JUMPDEST PUSH1 0x60 PUSH0 PUSH1 0x1 PUSH0 DUP6 PUSH20 0xFFFFFFFFFFFFFFFFFFFFFFFFFFFFFFFFFFFFFFFF AND PUSH20 0xFFFFFFFFFFFFFFFFFFFFFFFFFFFFFFFFFFFFFFFF AND DUP2 MSTORE PUSH1 0x20 ADD SWAP1 DUP2 MSTORE PUSH1 0x20 ADD PUSH0 KECCAK256 PUSH0 DUP5 DUP2 MSTORE PUSH1 0x20 ADD SWAP1 DUP2 MSTORE PUSH1 0x20 ADD PUSH0 KECCAK256 PUSH1 0x40 MLOAD DUP1 PUSH1 0xA0 ADD PUSH1 0x40 MSTORE SWAP1 DUP2 PUSH0 DUP3 ADD SLOAD DUP2 MSTORE PUSH1 0x20 ADD PUSH1 0x1 DUP3 ADD SLOAD DUP2 MSTORE PUSH1 0x20 ADD PUSH1 0x2 DUP3 ADD PUSH0 SWAP1 SLOAD SWAP1 PUSH2 0x100 EXP SWAP1 DIV PUSH20 0xFFFFFFFFFFFFFFFFFFFFFFFFFFFFFFFFFFFFFFFF AND PUSH20 0xFFFFFFFFFFFFFFFFFFFFFFFFFFFFFFFFFFFFFFFF AND PUSH20 0xFFFFFFFFFFFFFFFFFFFFFFFFFFFFFFFFFFFFFFFF AND DUP2 MSTORE PUSH1 0x20 ADD PUSH1 0x3 DUP3 ADD DUP1 SLOAD PUSH2 0xDB9 SWAP1 PUSH2 0x181D JUMP JUMPDEST DUP1 PUSH1 0x1F ADD PUSH1 0x20 DUP1 SWAP2 DIV MUL PUSH1 0x20 ADD PUSH1 0x40 MLOAD SWAP1 DUP2 ADD PUSH1 0x40 MSTORE DUP1 SWAP3 SWAP2 SWAP1 DUP2 DUP2 MSTORE PUSH1 0x20 ADD DUP3 DUP1 SLOAD PUSH2 0xDE5 SWAP1 PUSH2 0x181D JUMP JUMPDEST DUP1 ISZERO PUSH2 0xE30 JUMPI DUP1 PUSH1 0x1F LT PUSH2 0xE07 JUMPI PUSH2 0x100 DUP1 DUP4 SLOAD DIV MUL DUP4 MSTORE SWAP2 PUSH1 0x20 ADD SWAP2 PUSH2 0xE30 JUMP JUMPDEST DUP3 ADD SWAP2 SWAP1 PUSH0 MSTORE PUSH1 0x20 PUSH0 KECCAK256 SWAP1 JUMPDEST DUP2 SLOAD DUP2 MSTORE SWAP1 PUSH1 0x1 ADD SWAP1 PUSH1 0x20 ADD DUP1 DUP4 GT PUSH2 0xE13 JUMPI DUP3 SWAP1 SUB PUSH1 0x1F AND DUP3 ADD SWAP2 JUMPDEST POP POP POP POP POP DUP2 MSTORE PUSH1 0x20 ADD PUSH1 0x4 DUP3 ADD SLOAD DUP2 MSTORE POP POP SWAP1 POP DUP1 PUSH1 0x60 ADD MLOAD SWAP2 POP POP SWAP3 SWAP2 POP POP JUMP JUMPDEST PUSH1 0x60 PUSH0 PUSH1 0x2 DUP1 SLOAD SWAP1 POP PUSH8 0xFFFFFFFFFFFFFFFF DUP2 GT ISZERO PUSH2 0xE75 JUMPI PUSH2 0xE74 PUSH2 0x137D JUMP JUMPDEST JUMPDEST PUSH1 0x40 MLOAD SWAP1 DUP1 DUP3 MSTORE DUP1 PUSH1 0x20 MUL PUSH1 0x20 ADD DUP3 ADD PUSH1 0x40 MSTORE DUP1 ISZERO PUSH2 0xEAE JUMPI DUP2 PUSH1 0x20 ADD JUMPDEST PUSH2 0xE9B PUSH2 0x10CA JUMP JUMPDEST DUP2 MSTORE PUSH1 0x20 ADD SWAP1 PUSH1 0x1 SWAP1 SUB SWAP1 DUP2 PUSH2 0xE93 JUMPI SWAP1 POP JUMPDEST POP SWAP1 POP PUSH0 JUMPDEST PUSH1 0x2 DUP1 SLOAD SWAP1 POP DUP2 LT ISZERO PUSH2 0x10C0 JUMPI PUSH0 PUSH1 0x2 DUP3 DUP2 SLOAD DUP2 LT PUSH2 0xED5 JUMPI PUSH2 0xED4 PUSH2 0x1D89 JUMP JUMPDEST JUMPDEST SWAP1 PUSH0 MSTORE PUSH1 0x20 PUSH0 KECCAK256 ADD SLOAD SWAP1 POP PUSH0 PUSH1 0x1 PUSH0 DUP8 PUSH20 0xFFFFFFFFFFFFFFFFFFFFFFFFFFFFFFFFFFFFFFFF AND PUSH20 0xFFFFFFFFFFFFFFFFFFFFFFFFFFFFFFFFFFFFFFFF AND DUP2 MSTORE PUSH1 0x20 ADD SWAP1 DUP2 MSTORE PUSH1 0x20 ADD PUSH0 KECCAK256 PUSH0 DUP4 DUP2 MSTORE PUSH1 0x20 ADD SWAP1 DUP2 MSTORE PUSH1 0x20 ADD PUSH0 KECCAK256 PUSH0 ADD SLOAD EQ PUSH2 0x10B2 JUMPI PUSH0 PUSH1 0x1 PUSH0 DUP8 PUSH20 0xFFFFFFFFFFFFFFFFFFFFFFFFFFFFFFFFFFFFFFFF AND PUSH20 0xFFFFFFFFFFFFFFFFFFFFFFFFFFFFFFFFFFFFFFFF AND DUP2 MSTORE PUSH1 0x20 ADD SWAP1 DUP2 MSTORE PUSH1 0x20 ADD PUSH0 KECCAK256 PUSH0 DUP4 DUP2 MSTORE PUSH1 0x20 ADD SWAP1 DUP2 MSTORE PUSH1 0x20 ADD PUSH0 KECCAK256 SWAP1 POP DUP1 PUSH1 0x40 MLOAD DUP1 PUSH1 0xA0 ADD PUSH1 0x40 MSTORE SWAP1 DUP2 PUSH0 DUP3 ADD SLOAD DUP2 MSTORE PUSH1 0x20 ADD PUSH1 0x1 DUP3 ADD SLOAD DUP2 MSTORE PUSH1 0x20 ADD PUSH1 0x2 DUP3 ADD PUSH0 SWAP1 SLOAD SWAP1 PUSH2 0x100 EXP SWAP1 DIV PUSH20 0xFFFFFFFFFFFFFFFFFFFFFFFFFFFFFFFFFFFFFFFF AND PUSH20 0xFFFFFFFFFFFFFFFFFFFFFFFFFFFFFFFFFFFFFFFF AND PUSH20 0xFFFFFFFFFFFFFFFFFFFFFFFFFFFFFFFFFFFFFFFF AND DUP2 MSTORE PUSH1 0x20 ADD PUSH1 0x3 DUP3 ADD DUP1 SLOAD PUSH2 0x1008 SWAP1 PUSH2 0x181D JUMP JUMPDEST DUP1 PUSH1 0x1F ADD PUSH1 0x20 DUP1 SWAP2 DIV MUL PUSH1 0x20 ADD PUSH1 0x40 MLOAD SWAP1 DUP2 ADD PUSH1 0x40 MSTORE DUP1 SWAP3 SWAP2 SWAP1 DUP2 DUP2 MSTORE PUSH1 0x20 ADD DUP3 DUP1 SLOAD PUSH2 0x1034 SWAP1 PUSH2 0x181D JUMP JUMPDEST DUP1 ISZERO PUSH2 0x107F JUMPI DUP1 PUSH1 0x1F LT PUSH2 0x1056 JUMPI PUSH2 0x100 DUP1 DUP4 SLOAD DIV MUL DUP4 MSTORE SWAP2 PUSH1 0x20 ADD SWAP2 PUSH2 0x107F JUMP JUMPDEST DUP3 ADD SWAP2 SWAP1 PUSH0 MSTORE PUSH1 0x20 PUSH0 KECCAK256 SWAP1 JUMPDEST DUP2 SLOAD DUP2 MSTORE SWAP1 PUSH1 0x1 ADD SWAP1 PUSH1 0x20 ADD DUP1 DUP4 GT PUSH2 0x1062 JUMPI DUP3 SWAP1 SUB PUSH1 0x1F AND DUP3 ADD SWAP2 JUMPDEST POP POP POP POP POP DUP2 MSTORE PUSH1 0x20 ADD PUSH1 0x4 DUP3 ADD SLOAD DUP2 MSTORE POP POP DUP5 DUP5 DUP2 MLOAD DUP2 LT PUSH2 0x10A5 JUMPI PUSH2 0x10A4 PUSH2 0x1D89 JUMP JUMPDEST JUMPDEST PUSH1 0x20 MUL PUSH1 0x20 ADD ADD DUP2 SWAP1 MSTORE POP POP JUMPDEST POP DUP1 DUP1 PUSH1 0x1 ADD SWAP2 POP POP PUSH2 0xEB3 JUMP JUMPDEST POP DUP1 SWAP2 POP POP SWAP2 SWAP1 POP JUMP JUMPDEST PUSH1 0x40 MLOAD DUP1 PUSH1 0xA0 ADD PUSH1 0x40 MSTORE DUP1 PUSH0 DUP2 MSTORE PUSH1 0x20 ADD PUSH0 DUP2 MSTORE PUSH1 0x20 ADD PUSH0 PUSH20 0xFFFFFFFFFFFFFFFFFFFFFFFFFFFFFFFFFFFFFFFF AND DUP2 MSTORE PUSH1 0x20 ADD PUSH1 0x60 DUP2 MSTORE PUSH1 0x20 ADD PUSH0 DUP2 MSTORE POP SWAP1 JUMP JUMPDEST PUSH0 PUSH1 0x40 MLOAD SWAP1 POP SWAP1 JUMP JUMPDEST PUSH0 DUP1 REVERT JUMPDEST PUSH0 DUP1 REVERT JUMPDEST PUSH0 PUSH20 0xFFFFFFFFFFFFFFFFFFFFFFFFFFFFFFFFFFFFFFFF DUP3 AND SWAP1 POP SWAP2 SWAP1 POP JUMP JUMPDEST PUSH0 PUSH2 0x1145 DUP3 PUSH2 0x111C JUMP JUMPDEST SWAP1 POP SWAP2 SWAP1 POP JUMP JUMPDEST PUSH2 0x1155 DUP2 PUSH2 0x113B JUMP JUMPDEST DUP2 EQ PUSH2 0x115F JUMPI PUSH0 DUP1 REVERT JUMPDEST POP JUMP JUMPDEST PUSH0 DUP2 CALLDATALOAD SWAP1 POP PUSH2 0x1170 DUP2 PUSH2 0x114C JUMP JUMPDEST SWAP3 SWAP2 POP POP JUMP JUMPDEST PUSH0 DUP2 SWAP1 POP SWAP2 SWAP1 POP JUMP JUMPDEST PUSH2 0x1188 DUP2 PUSH2 0x1176 JUMP JUMPDEST DUP2 EQ PUSH2 0x1192 JUMPI PUSH0 DUP1 REVERT JUMPDEST POP JUMP JUMPDEST PUSH0 DUP2 CALLDATALOAD SWAP1 POP PUSH2 0x11A3 DUP2 PUSH2 0x117F JUMP JUMPDEST SWAP3 SWAP2 POP POP JUMP JUMPDEST PUSH0 DUP1 PUSH0 PUSH1 0x60 DUP5 DUP7 SUB SLT ISZERO PUSH2 0x11C0 JUMPI PUSH2 0x11BF PUSH2 0x1114 JUMP JUMPDEST JUMPDEST PUSH0 PUSH2 0x11CD DUP7 DUP3 DUP8 ADD PUSH2 0x1162 JUMP JUMPDEST SWAP4 POP POP PUSH1 0x20 PUSH2 0x11DE DUP7 DUP3 DUP8 ADD PUSH2 0x1195 JUMP JUMPDEST SWAP3 POP POP PUSH1 0x40 PUSH2 0x11EF DUP7 DUP3 DUP8 ADD PUSH2 0x1195 JUMP JUMPDEST SWAP2 POP POP SWAP3 POP SWAP3 POP SWAP3 JUMP JUMPDEST PUSH0 DUP2 ISZERO ISZERO SWAP1 POP SWAP2 SWAP1 POP JUMP JUMPDEST PUSH2 0x120D DUP2 PUSH2 0x11F9 JUMP JUMPDEST DUP3 MSTORE POP POP JUMP JUMPDEST PUSH0 PUSH1 0x20 DUP3 ADD SWAP1 POP PUSH2 0x1226 PUSH0 DUP4 ADD DUP5 PUSH2 0x1204 JUMP JUMPDEST SWAP3 SWAP2 POP POP JUMP JUMPDEST PUSH0 DUP1 PUSH1 0x40 DUP4 DUP6 SUB SLT ISZERO PUSH2 0x1242 JUMPI PUSH2 0x1241 PUSH2 0x1114 JUMP JUMPDEST JUMPDEST PUSH0 PUSH2 0x124F DUP6 DUP3 DUP7 ADD PUSH2 0x1162 JUMP JUMPDEST SWAP3 POP POP PUSH1 0x20 PUSH2 0x1260 DUP6 DUP3 DUP7 ADD PUSH2 0x1195 JUMP JUMPDEST SWAP2 POP POP SWAP3 POP SWAP3 SWAP1 POP JUMP JUMPDEST PUSH2 0x1273 DUP2 PUSH2 0x1176 JUMP JUMPDEST DUP3 MSTORE POP POP JUMP JUMPDEST PUSH0 PUSH1 0x20 DUP3 ADD SWAP1 POP PUSH2 0x128C PUSH0 DUP4 ADD DUP5 PUSH2 0x126A JUMP JUMPDEST SWAP3 SWAP2 POP POP JUMP JUMPDEST PUSH2 0x129B DUP2 PUSH2 0x113B JUMP JUMPDEST DUP3 MSTORE POP POP JUMP JUMPDEST PUSH0 DUP2 MLOAD SWAP1 POP SWAP2 SWAP1 POP JUMP JUMPDEST PUSH0 DUP3 DUP3 MSTORE PUSH1 0x20 DUP3 ADD SWAP1 POP SWAP3 SWAP2 POP POP JUMP JUMPDEST PUSH0 JUMPDEST DUP4 DUP2 LT ISZERO PUSH2 0x12D8 JUMPI DUP1 DUP3 ADD MLOAD DUP2 DUP5 ADD MSTORE PUSH1 0x20 DUP2 ADD SWAP1 POP PUSH2 0x12BD JUMP JUMPDEST PUSH0 DUP5 DUP5 ADD MSTORE POP POP POP POP JUMP JUMPDEST PUSH0 PUSH1 0x1F NOT PUSH1 0x1F DUP4 ADD AND SWAP1 POP SWAP2 SWAP1 POP JUMP JUMPDEST PUSH0 PUSH2 0x12FD DUP3 PUSH2 0x12A1 JUMP JUMPDEST PUSH2 0x1307 DUP2 DUP6 PUSH2 0x12AB JUMP JUMPDEST SWAP4 POP PUSH2 0x1317 DUP2 DUP6 PUSH1 0x20 DUP7 ADD PUSH2 0x12BB JUMP JUMPDEST PUSH2 0x1320 DUP2 PUSH2 0x12E3 JUMP JUMPDEST DUP5 ADD SWAP2 POP POP SWAP3 SWAP2 POP POP JUMP JUMPDEST PUSH0 PUSH1 0x80 DUP3 ADD SWAP1 POP PUSH2 0x133E PUSH0 DUP4 ADD DUP8 PUSH2 0x126A JUMP JUMPDEST PUSH2 0x134B PUSH1 0x20 DUP4 ADD DUP7 PUSH2 0x1292 JUMP JUMPDEST DUP2 DUP2 SUB PUSH1 0x40 DUP4 ADD MSTORE PUSH2 0x135D DUP2 DUP6 PUSH2 0x12F3 JUMP JUMPDEST SWAP1 POP PUSH2 0x136C PUSH1 0x60 DUP4 ADD DUP5 PUSH2 0x126A JUMP JUMPDEST SWAP6 SWAP5 POP POP POP POP POP JUMP JUMPDEST PUSH0 DUP1 REVERT JUMPDEST PUSH0 DUP1 REVERT JUMPDEST PUSH32 0x4E487B7100000000000000000000000000000000000000000000000000000000 PUSH0 MSTORE PUSH1 0x41 PUSH1 0x4 MSTORE PUSH1 0x24 PUSH0 REVERT JUMPDEST PUSH2 0x13B3 DUP3 PUSH2 0x12E3 JUMP JUMPDEST DUP2 ADD DUP2 DUP2 LT PUSH8 0xFFFFFFFFFFFFFFFF DUP3 GT OR ISZERO PUSH2 0x13D2 JUMPI PUSH2 0x13D1 PUSH2 0x137D JUMP JUMPDEST JUMPDEST DUP1 PUSH1 0x40 MSTORE POP POP POP JUMP JUMPDEST PUSH0 PUSH2 0x13E4 PUSH2 0x110B JUMP JUMPDEST SWAP1 POP PUSH2 0x13F0 DUP3 DUP3 PUSH2 0x13AA JUMP JUMPDEST SWAP2 SWAP1 POP JUMP JUMPDEST PUSH0 PUSH8 0xFFFFFFFFFFFFFFFF DUP3 GT ISZERO PUSH2 0x140F JUMPI PUSH2 0x140E PUSH2 0x137D JUMP JUMPDEST JUMPDEST PUSH2 0x1418 DUP3 PUSH2 0x12E3 JUMP JUMPDEST SWAP1 POP PUSH1 0x20 DUP2 ADD SWAP1 POP SWAP2 SWAP1 POP JUMP JUMPDEST DUP3 DUP2 DUP4 CALLDATACOPY PUSH0 DUP4 DUP4 ADD MSTORE POP POP POP JUMP JUMPDEST PUSH0 PUSH2 0x1445 PUSH2 0x1440 DUP5 PUSH2 0x13F5 JUMP JUMPDEST PUSH2 0x13DB JUMP JUMPDEST SWAP1 POP DUP3 DUP2 MSTORE PUSH1 0x20 DUP2 ADD DUP5 DUP5 DUP5 ADD GT ISZERO PUSH2 0x1461 JUMPI PUSH2 0x1460 PUSH2 0x1379 JUMP JUMPDEST JUMPDEST PUSH2 0x146C DUP5 DUP3 DUP6 PUSH2 0x1425 JUMP JUMPDEST POP SWAP4 SWAP3 POP POP POP JUMP JUMPDEST PUSH0 DUP3 PUSH1 0x1F DUP4 ADD SLT PUSH2 0x1488 JUMPI PUSH2 0x1487 PUSH2 0x1375 JUMP JUMPDEST JUMPDEST DUP2 CALLDATALOAD PUSH2 0x1498 DUP5 DUP3 PUSH1 0x20 DUP7 ADD PUSH2 0x1433 JUMP JUMPDEST SWAP2 POP POP SWAP3 SWAP2 POP POP JUMP JUMPDEST PUSH0 DUP1 PUSH0 DUP1 PUSH0 PUSH1 0xA0 DUP7 DUP9 SUB SLT ISZERO PUSH2 0x14BA JUMPI PUSH2 0x14B9 PUSH2 0x1114 JUMP JUMPDEST JUMPDEST PUSH0 PUSH2 0x14C7 DUP9 DUP3 DUP10 ADD PUSH2 0x1162 JUMP JUMPDEST SWAP6 POP POP PUSH1 0x20 PUSH2 0x14D8 DUP9 DUP3 DUP10 ADD PUSH2 0x1162 JUMP JUMPDEST SWAP5 POP POP PUSH1 0x40 PUSH2 0x14E9 DUP9 DUP3 DUP10 ADD PUSH2 0x1195 JUMP JUMPDEST SWAP4 POP POP PUSH1 0x60 DUP7 ADD CALLDATALOAD PUSH8 0xFFFFFFFFFFFFFFFF DUP2 GT ISZERO PUSH2 0x150A JUMPI PUSH2 0x1509 PUSH2 0x1118 JUMP JUMPDEST JUMPDEST PUSH2 0x1516 DUP9 DUP3 DUP10 ADD PUSH2 0x1474 JUMP JUMPDEST SWAP3 POP POP PUSH1 0x80 PUSH2 0x1527 DUP9 DUP3 DUP10 ADD PUSH2 0x1195 JUMP JUMPDEST SWAP2 POP POP SWAP3 SWAP6 POP SWAP3 SWAP6 SWAP1 SWAP4 POP JUMP JUMPDEST PUSH0 PUSH1 0x60 DUP3 ADD SWAP1 POP PUSH2 0x1547 PUSH0 DUP4 ADD DUP7 PUSH2 0x126A JUMP JUMPDEST DUP2 DUP2 SUB PUSH1 0x20 DUP4 ADD MSTORE PUSH2 0x1559 DUP2 DUP6 PUSH2 0x12F3 JUMP JUMPDEST SWAP1 POP PUSH2 0x1568 PUSH1 0x40 DUP4 ADD DUP5 PUSH2 0x126A JUMP JUMPDEST SWAP5 SWAP4 POP POP POP POP JUMP JUMPDEST PUSH0 PUSH1 0x20 DUP3 ADD SWAP1 POP PUSH2 0x1583 PUSH0 DUP4 ADD DUP5 PUSH2 0x1292 JUMP JUMPDEST SWAP3 SWAP2 POP POP JUMP JUMPDEST PUSH0 PUSH1 0x20 DUP3 ADD SWAP1 POP DUP2 DUP2 SUB PUSH0 DUP4 ADD MSTORE PUSH2 0x15A1 DUP2 DUP5 PUSH2 0x12F3 JUMP JUMPDEST SWAP1 POP SWAP3 SWAP2 POP POP JUMP JUMPDEST PUSH0 PUSH1 0x20 DUP3 DUP5 SUB SLT ISZERO PUSH2 0x15BE JUMPI PUSH2 0x15BD PUSH2 0x1114 JUMP JUMPDEST JUMPDEST PUSH0 PUSH2 0x15CB DUP5 DUP3 DUP6 ADD PUSH2 0x1162 JUMP JUMPDEST SWAP2 POP POP SWAP3 SWAP2 POP POP JUMP JUMPDEST PUSH0 DUP2 MLOAD SWAP1 POP SWAP2 SWAP1 POP JUMP JUMPDEST PUSH0 DUP3 DUP3 MSTORE PUSH1 0x20 DUP3 ADD SWAP1 POP SWAP3 SWAP2 POP POP JUMP JUMPDEST PUSH0 DUP2 SWAP1 POP PUSH1 0x20 DUP3 ADD SWAP1 POP SWAP2 SWAP1 POP JUMP JUMPDEST PUSH2 0x1606 DUP2 PUSH2 0x1176 JUMP JUMPDEST DUP3 MSTORE POP POP JUMP JUMPDEST PUSH2 0x1615 DUP2 PUSH2 0x113B JUMP JUMPDEST DUP3 MSTORE POP POP JUMP JUMPDEST PUSH0 DUP3 DUP3 MSTORE PUSH1 0x20 DUP3 ADD SWAP1 POP SWAP3 SWAP2 POP POP JUMP JUMPDEST PUSH0 PUSH2 0x1635 DUP3 PUSH2 0x12A1 JUMP JUMPDEST PUSH2 0x163F DUP2 DUP6 PUSH2 0x161B JUMP JUMPDEST SWAP4 POP PUSH2 0x164F DUP2 DUP6 PUSH1 0x20 DUP7 ADD PUSH2 0x12BB JUMP JUMPDEST PUSH2 0x1658 DUP2 PUSH2 0x12E3 JUMP JUMPDEST DUP5 ADD SWAP2 POP POP SWAP3 SWAP2 POP POP JUMP JUMPDEST PUSH0 PUSH1 0xA0 DUP4 ADD PUSH0 DUP4 ADD MLOAD PUSH2 0x1678 PUSH0 DUP7 ADD DUP3 PUSH2 0x15FD JUMP JUMPDEST POP PUSH1 0x20 DUP4 ADD MLOAD PUSH2 0x168B PUSH1 0x20 DUP7 ADD DUP3 PUSH2 0x15FD JUMP JUMPDEST POP PUSH1 0x40 DUP4 ADD MLOAD PUSH2 0x169E PUSH1 0x40 DUP7 ADD DUP3 PUSH2 0x160C JUMP JUMPDEST POP PUSH1 0x60 DUP4 ADD MLOAD DUP5 DUP3 SUB PUSH1 0x60 DUP7 ADD MSTORE PUSH2 0x16B6 DUP3 DUP3 PUSH2 0x162B JUMP JUMPDEST SWAP2 POP POP PUSH1 0x80 DUP4 ADD MLOAD PUSH2 0x16CB PUSH1 0x80 DUP7 ADD DUP3 PUSH2 0x15FD JUMP JUMPDEST POP DUP1 SWAP2 POP POP SWAP3 SWAP2 POP POP JUMP JUMPDEST PUSH0 PUSH2 0x16E1 DUP4 DUP4 PUSH2 0x1663 JUMP JUMPDEST SWAP1 POP SWAP3 SWAP2 POP POP JUMP JUMPDEST PUSH0 PUSH1 0x20 DUP3 ADD SWAP1 POP SWAP2 SWAP1 POP JUMP JUMPDEST PUSH0 PUSH2 0x16FF DUP3 PUSH2 0x15D4 JUMP JUMPDEST PUSH2 0x1709 DUP2 DUP6 PUSH2 0x15DE JUMP JUMPDEST SWAP4 POP DUP4 PUSH1 0x20 DUP3 MUL DUP6 ADD PUSH2 0x171B DUP6 PUSH2 0x15EE JUMP JUMPDEST DUP1 PUSH0 JUMPDEST DUP6 DUP2 LT ISZERO PUSH2 0x1756 JUMPI DUP5 DUP5 SUB DUP10 MSTORE DUP2 MLOAD PUSH2 0x1737 DUP6 DUP3 PUSH2 0x16D6 JUMP JUMPDEST SWAP5 POP PUSH2 0x1742 DUP4 PUSH2 0x16E9 JUMP JUMPDEST SWAP3 POP PUSH1 0x20 DUP11 ADD SWAP10 POP POP PUSH1 0x1 DUP2 ADD SWAP1 POP PUSH2 0x171E JUMP JUMPDEST POP DUP3 SWAP8 POP DUP8 SWAP6 POP POP POP POP POP POP SWAP3 SWAP2 POP POP JUMP JUMPDEST PUSH0 PUSH1 0x20 DUP3 ADD SWAP1 POP DUP2 DUP2 SUB PUSH0 DUP4 ADD MSTORE PUSH2 0x1780 DUP2 DUP5 PUSH2 0x16F5 JUMP JUMPDEST SWAP1 POP SWAP3 SWAP2 POP POP JUMP JUMPDEST PUSH32 0x5175616E74697479206E6F742056616C69642100000000000000000000000000 PUSH0 DUP3 ADD MSTORE POP JUMP JUMPDEST PUSH0 PUSH2 0x17BC PUSH1 0x13 DUP4 PUSH2 0x12AB JUMP JUMPDEST SWAP2 POP PUSH2 0x17C7 DUP3 PUSH2 0x1788 JUMP JUMPDEST PUSH1 0x20 DUP3 ADD SWAP1 POP SWAP2 SWAP1 POP JUMP JUMPDEST PUSH0 PUSH1 0x20 DUP3 ADD SWAP1 POP DUP2 DUP2 SUB PUSH0 DUP4 ADD MSTORE PUSH2 0x17E9 DUP2 PUSH2 0x17B0 JUMP JUMPDEST SWAP1 POP SWAP2 SWAP1 POP JUMP JUMPDEST PUSH32 0x4E487B7100000000000000000000000000000000000000000000000000000000 PUSH0 MSTORE PUSH1 0x22 PUSH1 0x4 MSTORE PUSH1 0x24 PUSH0 REVERT JUMPDEST PUSH0 PUSH1 0x2 DUP3 DIV SWAP1 POP PUSH1 0x1 DUP3 AND DUP1 PUSH2 0x1834 JUMPI PUSH1 0x7F DUP3 AND SWAP2 POP JUMPDEST PUSH1 0x20 DUP3 LT DUP2 SUB PUSH2 0x1847 JUMPI PUSH2 0x1846 PUSH2 0x17F0 JUMP JUMPDEST JUMPDEST POP SWAP2 SWAP1 POP JUMP JUMPDEST PUSH32 0x436F6E74726F6C6C6F2064656C6C61205175616E746974612720646120757469 PUSH0 DUP3 ADD MSTORE PUSH32 0x6C697A7A617265206E6F6E20616E6461746120612062756F6E2066696E652100 PUSH1 0x20 DUP3 ADD MSTORE POP JUMP JUMPDEST PUSH0 PUSH2 0x18A7 PUSH1 0x3F DUP4 PUSH2 0x12AB JUMP JUMPDEST SWAP2 POP PUSH2 0x18B2 DUP3 PUSH2 0x184D JUMP JUMPDEST PUSH1 0x40 DUP3 ADD SWAP1 POP SWAP2 SWAP1 POP JUMP JUMPDEST PUSH0 PUSH1 0x20 DUP3 ADD SWAP1 POP DUP2 DUP2 SUB PUSH0 DUP4 ADD MSTORE PUSH2 0x18D4 DUP2 PUSH2 0x189B JUMP JUMPDEST SWAP1 POP SWAP2 SWAP1 POP JUMP JUMPDEST PUSH32 0x50617274697461206469204C61747465206E6F6E2070726573656E7465210000 PUSH0 DUP3 ADD MSTORE POP JUMP JUMPDEST PUSH0 PUSH2 0x190F PUSH1 0x1E DUP4 PUSH2 0x12AB JUMP JUMPDEST SWAP2 POP PUSH2 0x191A DUP3 PUSH2 0x18DB JUMP JUMPDEST PUSH1 0x20 DUP3 ADD SWAP1 POP SWAP2 SWAP1 POP JUMP JUMPDEST PUSH0 PUSH1 0x20 DUP3 ADD SWAP1 POP DUP2 DUP2 SUB PUSH0 DUP4 ADD MSTORE PUSH2 0x193C DUP2 PUSH2 0x1903 JUMP JUMPDEST SWAP1 POP SWAP2 SWAP1 POP JUMP JUMPDEST PUSH0 DUP2 SWAP1 POP SWAP2 SWAP1 POP JUMP JUMPDEST PUSH2 0x195D PUSH2 0x1958 DUP3 PUSH2 0x1176 JUMP JUMPDEST PUSH2 0x1943 JUMP JUMPDEST DUP3 MSTORE POP POP JUMP JUMPDEST PUSH0 DUP2 SWAP1 POP SWAP3 SWAP2 POP POP JUMP JUMPDEST PUSH0 PUSH2 0x1977 DUP3 PUSH2 0x12A1 JUMP JUMPDEST PUSH2 0x1981 DUP2 DUP6 PUSH2 0x1963 JUMP JUMPDEST SWAP4 POP PUSH2 0x1991 DUP2 DUP6 PUSH1 0x20 DUP7 ADD PUSH2 0x12BB JUMP JUMPDEST DUP1 DUP5 ADD SWAP2 POP POP SWAP3 SWAP2 POP POP JUMP JUMPDEST PUSH0 DUP2 PUSH1 0x60 SHL SWAP1 POP SWAP2 SWAP1 POP JUMP JUMPDEST PUSH0 PUSH2 0x19B3 DUP3 PUSH2 0x199D JUMP JUMPDEST SWAP1 POP SWAP2 SWAP1 POP JUMP JUMPDEST PUSH0 PUSH2 0x19C4 DUP3 PUSH2 0x19A9 JUMP JUMPDEST SWAP1 POP SWAP2 SWAP1 POP JUMP JUMPDEST PUSH2 0x19DC PUSH2 0x19D7 DUP3 PUSH2 0x113B JUMP JUMPDEST PUSH2 0x19BA JUMP JUMPDEST DUP3 MSTORE POP POP JUMP JUMPDEST PUSH0 PUSH2 0x19ED DUP3 DUP10 PUSH2 0x194C JUMP JUMPDEST PUSH1 0x20 DUP3 ADD SWAP2 POP PUSH2 0x19FD DUP3 DUP9 PUSH2 0x196D JUMP JUMPDEST SWAP2 POP PUSH2 0x1A09 DUP3 DUP8 PUSH2 0x19CB JUMP JUMPDEST PUSH1 0x14 DUP3 ADD SWAP2 POP PUSH2 0x1A19 DUP3 DUP7 PUSH2 0x19CB JUMP JUMPDEST PUSH1 0x14 DUP3 ADD SWAP2 POP PUSH2 0x1A29 DUP3 DUP6 PUSH2 0x194C JUMP JUMPDEST PUSH1 0x20 DUP3 ADD SWAP2 POP PUSH2 0x1A39 DUP3 DUP5 PUSH2 0x194C JUMP JUMPDEST PUSH1 0x20 DUP3 ADD SWAP2 POP DUP2 SWAP1 POP SWAP8 SWAP7 POP POP POP POP POP POP POP JUMP JUMPDEST PUSH32 0x50617274697461206469204C6174746520676961272070726573656E74652100 PUSH0 DUP3 ADD MSTORE POP JUMP JUMPDEST PUSH0 PUSH2 0x1A81 PUSH1 0x1F DUP4 PUSH2 0x12AB JUMP JUMPDEST SWAP2 POP PUSH2 0x1A8C DUP3 PUSH2 0x1A4D JUMP JUMPDEST PUSH1 0x20 DUP3 ADD SWAP1 POP SWAP2 SWAP1 POP JUMP JUMPDEST PUSH0 PUSH1 0x20 DUP3 ADD SWAP1 POP DUP2 DUP2 SUB PUSH0 DUP4 ADD MSTORE PUSH2 0x1AAE DUP2 PUSH2 0x1A75 JUMP JUMPDEST SWAP1 POP SWAP2 SWAP1 POP JUMP JUMPDEST PUSH0 DUP2 SWAP1 POP DUP2 PUSH0 MSTORE PUSH1 0x20 PUSH0 KECCAK256 SWAP1 POP SWAP2 SWAP1 POP JUMP JUMPDEST PUSH0 PUSH1 0x20 PUSH1 0x1F DUP4 ADD DIV SWAP1 POP SWAP2 SWAP1 POP JUMP JUMPDEST PUSH0 DUP3 DUP3 SHL SWAP1 POP SWAP3 SWAP2 POP POP JUMP JUMPDEST PUSH0 PUSH1 0x8 DUP4 MUL PUSH2 0x1B11 PUSH32 0xFFFFFFFFFFFFFFFFFFFFFFFFFFFFFFFFFFFFFFFFFFFFFFFFFFFFFFFFFFFFFFFF DUP3 PUSH2 0x1AD6 JUMP JUMPDEST PUSH2 0x1B1B DUP7 DUP4 PUSH2 0x1AD6 JUMP JUMPDEST SWAP6 POP DUP1 NOT DUP5 AND SWAP4 POP DUP1 DUP7 AND DUP5 OR SWAP3 POP POP POP SWAP4 SWAP3 POP POP POP JUMP JUMPDEST PUSH0 DUP2 SWAP1 POP SWAP2 SWAP1 POP JUMP JUMPDEST PUSH0 PUSH2 0x1B56 PUSH2 0x1B51 PUSH2 0x1B4C DUP5 PUSH2 0x1176 JUMP JUMPDEST PUSH2 0x1B33 JUMP JUMPDEST PUSH2 0x1176 JUMP JUMPDEST SWAP1 POP SWAP2 SWAP1 POP JUMP JUMPDEST PUSH0 DUP2 SWAP1 POP SWAP2 SWAP1 POP JUMP JUMPDEST PUSH2 0x1B6F DUP4 PUSH2 0x1B3C JUMP JUMPDEST PUSH2 0x1B83 PUSH2 0x1B7B DUP3 PUSH2 0x1B5D JUMP JUMPDEST DUP5 DUP5 SLOAD PUSH2 0x1AE2 JUMP JUMPDEST DUP3 SSTORE POP POP POP POP JUMP JUMPDEST PUSH0 SWAP1 JUMP JUMPDEST PUSH2 0x1B97 PUSH2 0x1B8B JUMP JUMPDEST PUSH2 0x1BA2 DUP2 DUP5 DUP5 PUSH2 0x1B66 JUMP JUMPDEST POP POP POP JUMP JUMPDEST JUMPDEST DUP2 DUP2 LT ISZERO PUSH2 0x1BC5 JUMPI PUSH2 0x1BBA PUSH0 DUP3 PUSH2 0x1B8F JUMP JUMPDEST PUSH1 0x1 DUP2 ADD SWAP1 POP PUSH2 0x1BA8 JUMP JUMPDEST POP POP JUMP JUMPDEST PUSH1 0x1F DUP3 GT ISZERO PUSH2 0x1C0A JUMPI PUSH2 0x1BDB DUP2 PUSH2 0x1AB5 JUMP JUMPDEST PUSH2 0x1BE4 DUP5 PUSH2 0x1AC7 JUMP JUMPDEST DUP2 ADD PUSH1 0x20 DUP6 LT ISZERO PUSH2 0x1BF3 JUMPI DUP2 SWAP1 POP JUMPDEST PUSH2 0x1C07 PUSH2 0x1BFF DUP6 PUSH2 0x1AC7 JUMP JUMPDEST DUP4 ADD DUP3 PUSH2 0x1BA7 JUMP JUMPDEST POP POP JUMPDEST POP POP POP JUMP JUMPDEST PUSH0 DUP3 DUP3 SHR SWAP1 POP SWAP3 SWAP2 POP POP JUMP JUMPDEST PUSH0 PUSH2 0x1C2A PUSH0 NOT DUP5 PUSH1 0x8 MUL PUSH2 0x1C0F JUMP JUMPDEST NOT DUP1 DUP4 AND SWAP2 POP POP SWAP3 SWAP2 POP POP JUMP JUMPDEST PUSH0 PUSH2 0x1C42 DUP4 DUP4 PUSH2 0x1C1B JUMP JUMPDEST SWAP2 POP DUP3 PUSH1 0x2 MUL DUP3 OR SWAP1 POP SWAP3 SWAP2 POP POP JUMP JUMPDEST PUSH2 0x1C5B DUP3 PUSH2 0x12A1 JUMP JUMPDEST PUSH8 0xFFFFFFFFFFFFFFFF DUP2 GT ISZERO PUSH2 0x1C74 JUMPI PUSH2 0x1C73 PUSH2 0x137D JUMP JUMPDEST JUMPDEST PUSH2 0x1C7E DUP3 SLOAD PUSH2 0x181D JUMP JUMPDEST PUSH2 0x1C89 DUP3 DUP3 DUP6 PUSH2 0x1BC9 JUMP JUMPDEST PUSH0 PUSH1 0x20 SWAP1 POP PUSH1 0x1F DUP4 GT PUSH1 0x1 DUP2 EQ PUSH2 0x1CBA JUMPI PUSH0 DUP5 ISZERO PUSH2 0x1CA8 JUMPI DUP3 DUP8 ADD MLOAD SWAP1 POP JUMPDEST PUSH2 0x1CB2 DUP6 DUP3 PUSH2 0x1C37 JUMP JUMPDEST DUP7 SSTORE POP PUSH2 0x1D19 JUMP JUMPDEST PUSH1 0x1F NOT DUP5 AND PUSH2 0x1CC8 DUP7 PUSH2 0x1AB5 JUMP JUMPDEST PUSH0 JUMPDEST DUP3 DUP2 LT ISZERO PUSH2 0x1CEF JUMPI DUP5 DUP10 ADD MLOAD DUP3 SSTORE PUSH1 0x1 DUP3 ADD SWAP2 POP PUSH1 0x20 DUP6 ADD SWAP5 POP PUSH1 0x20 DUP2 ADD SWAP1 POP PUSH2 0x1CCA JUMP JUMPDEST DUP7 DUP4 LT ISZERO PUSH2 0x1D0C JUMPI DUP5 DUP10 ADD MLOAD PUSH2 0x1D08 PUSH1 0x1F DUP10 AND DUP3 PUSH2 0x1C1B JUMP JUMPDEST DUP4 SSTORE POP JUMPDEST PUSH1 0x1 PUSH1 0x2 DUP9 MUL ADD DUP9 SSTORE POP POP POP JUMPDEST POP POP POP POP POP POP JUMP JUMPDEST PUSH32 0x494420436865657365204E6F742056616C696421000000000000000000000000 PUSH0 DUP3 ADD MSTORE POP JUMP JUMPDEST PUSH0 PUSH2 0x1D55 PUSH1 0x14 DUP4 PUSH2 0x12AB JUMP JUMPDEST SWAP2 POP PUSH2 0x1D60 DUP3 PUSH2 0x1D21 JUMP JUMPDEST PUSH1 0x20 DUP3 ADD SWAP1 POP SWAP2 SWAP1 POP JUMP JUMPDEST PUSH0 PUSH1 0x20 DUP3 ADD SWAP1 POP DUP2 DUP2 SUB PUSH0 DUP4 ADD MSTORE PUSH2 0x1D82 DUP2 PUSH2 0x1D49 JUMP JUMPDEST SWAP1 POP SWAP2 SWAP1 POP JUMP JUMPDEST PUSH32 0x4E487B7100000000000000000000000000000000000000000000000000000000 PUSH0 MSTORE PUSH1 0x32 PUSH1 0x4 MSTORE PUSH1 0x24 PUSH0 REVERT INVALID LOG2 PUSH5 0x6970667358 0x22 SLT KECCAK256 0x4A SSTORE 0xDB JUMP 0xE 0x26 CALLDATALOAD 0xDD LOG2 CALLVALUE ADDRESS 0xD2 0x4B EXP 0x4E 0xCA EXP PUSH8 0x20BB7B0F2F3AFA85 0x25 STOP 0xDE SWAP4 MUL SDIV PUSH5 0x736F6C6343 STOP ADDMOD AND STOP CALLER "
		},
		"gasEstimates": {
			"creation": {
				"codeDepositCost": "1532000",
				"executionCost": "25866",
				"totalCost": "1557866"
			},
			"external": {
				"addCheeseBlock(address,address,uint256,string,uint256)": "infinite",
				"checkCheese(address,uint256,uint256)": "infinite",
				"checkQuantity(address,uint256,uint256)": "infinite",
				"getCheeseBlock(address,uint256)": "infinite",
				"getDop(address,uint256)": "infinite",
				"getId(address,uint256)": "infinite",
				"getPurchasedCheeseBlockByRetailer(address)": "infinite",
				"getQuantity(address,uint256)": "infinite",
				"getWalletCheeseProducer(address,uint256)": "infinite",
				"isCheesePresent(address,uint256)": "3215",
				"updateCheeseQuantity(address,uint256,uint256)": "infinite"
			}
		},
		"methodIdentifiers": {
			"addCheeseBlock(address,address,uint256,string,uint256)": "8b3c04ce",
			"checkCheese(address,uint256,uint256)": "7745770a",
			"checkQuantity(address,uint256,uint256)": "0803da24",
			"getCheeseBlock(address,uint256)": "6fb82e06",
			"getDop(address,uint256)": "f93bd021",
			"getId(address,uint256)": "c5d3e11d",
			"getPurchasedCheeseBlockByRetailer(address)": "fedf6092",
			"getQuantity(address,uint256)": "1e073fcf",
			"getWalletCheeseProducer(address,uint256)": "cc231726",
			"isCheesePresent(address,uint256)": "cfa41ed0",
			"updateCheeseQuantity(address,uint256,uint256)": "453ecf04"
		}
	},
	"abi": [
		{
			"inputs": [],
			"stateMutability": "nonpayable",
			"type": "constructor"
		},
		{
			"inputs": [
				{
					"internalType": "address",
					"name": "_walletRetailer",
					"type": "address"
				},
				{
					"internalType": "address",
					"name": "_walletCheeseProducer",
					"type": "address"
				},
				{
					"internalType": "uint256",
					"name": "_id_CheeseBlock",
					"type": "uint256"
				},
				{
					"internalType": "string",
					"name": "dop",
					"type": "string"
				},
				{
					"internalType": "uint256",
					"name": "_quantity",
					"type": "uint256"
				}
			],
			"name": "addCheeseBlock",
			"outputs": [
				{
					"internalType": "uint256",
					"name": "id_CheeseBlock_Acquistato",
					"type": "uint256"
				},
				{
					"internalType": "string",
					"name": "dopCheese",
					"type": "string"
				},
				{
					"internalType": "uint256",
					"name": "quantityAcquistata",
					"type": "uint256"
				}
			],
			"stateMutability": "nonpayable",
			"type": "function"
		},
		{
			"inputs": [
				{
					"internalType": "address",
					"name": "walletRetailer",
					"type": "address"
				},
				{
					"internalType": "uint256",
					"name": "_id",
					"type": "uint256"
				},
				{
					"internalType": "uint256",
					"name": "_quantityToTransform",
					"type": "uint256"
				}
			],
			"name": "checkCheese",
			"outputs": [
				{
					"internalType": "bool",
					"name": "",
					"type": "bool"
				}
			],
			"stateMutability": "view",
			"type": "function"
		},
		{
			"inputs": [
				{
					"internalType": "address",
					"name": "walletRetailer",
					"type": "address"
				},
				{
					"internalType": "uint256",
					"name": "_id",
					"type": "uint256"
				},
				{
					"internalType": "uint256",
					"name": "_quantityToTransform",
					"type": "uint256"
				}
			],
			"name": "checkQuantity",
			"outputs": [
				{
					"internalType": "bool",
					"name": "",
					"type": "bool"
				}
			],
			"stateMutability": "view",
			"type": "function"
		},
		{
			"inputs": [
				{
					"internalType": "address",
					"name": "walletRetailer",
					"type": "address"
				},
				{
					"internalType": "uint256",
					"name": "_id_CheeseBlockAcquistato",
					"type": "uint256"
				}
			],
			"name": "getCheeseBlock",
			"outputs": [
				{
					"internalType": "uint256",
					"name": "",
					"type": "uint256"
				},
				{
					"internalType": "address",
					"name": "",
					"type": "address"
				},
				{
					"internalType": "string",
					"name": "",
					"type": "string"
				},
				{
					"internalType": "uint256",
					"name": "",
					"type": "uint256"
				}
			],
			"stateMutability": "view",
			"type": "function"
		},
		{
			"inputs": [
				{
					"internalType": "address",
					"name": "walletRetailer",
					"type": "address"
				},
				{
					"internalType": "uint256",
					"name": "_id_cheeseBlockAcquistato",
					"type": "uint256"
				}
			],
			"name": "getDop",
			"outputs": [
				{
					"internalType": "string",
					"name": "",
					"type": "string"
				}
			],
			"stateMutability": "view",
			"type": "function"
		},
		{
			"inputs": [
				{
					"internalType": "address",
					"name": "walletRetailer",
					"type": "address"
				},
				{
					"internalType": "uint256",
					"name": "_id",
					"type": "uint256"
				}
			],
			"name": "getId",
			"outputs": [
				{
					"internalType": "uint256",
					"name": "",
					"type": "uint256"
				}
			],
			"stateMutability": "view",
			"type": "function"
		},
		{
			"inputs": [
				{
					"internalType": "address",
					"name": "walletRetailer",
					"type": "address"
				}
			],
			"name": "getPurchasedCheeseBlockByRetailer",
			"outputs": [
				{
					"components": [
						{
							"internalType": "uint256",
							"name": "id",
							"type": "uint256"
						},
						{
							"internalType": "uint256",
							"name": "id_CheeseBlock",
							"type": "uint256"
						},
						{
							"internalType": "address",
							"name": "walletCheeseProducer",
							"type": "address"
						},
						{
							"internalType": "string",
							"name": "dop",
							"type": "string"
						},
						{
							"internalType": "uint256",
							"name": "quantity",
							"type": "uint256"
						}
					],
					"internalType": "struct RetailerBuyerStorage.Cheese[]",
					"name": "",
					"type": "tuple[]"
				}
			],
			"stateMutability": "view",
			"type": "function"
		},
		{
			"inputs": [
				{
					"internalType": "address",
					"name": "walletRetailer",
					"type": "address"
				},
				{
					"internalType": "uint256",
					"name": "_id",
					"type": "uint256"
				}
			],
			"name": "getQuantity",
			"outputs": [
				{
					"internalType": "uint256",
					"name": "",
					"type": "uint256"
				}
			],
			"stateMutability": "view",
			"type": "function"
		},
		{
			"inputs": [
				{
					"internalType": "address",
					"name": "walletRetailer",
					"type": "address"
				},
				{
					"internalType": "uint256",
					"name": "_id",
					"type": "uint256"
				}
			],
			"name": "getWalletCheeseProducer",
			"outputs": [
				{
					"internalType": "address",
					"name": "",
					"type": "address"
				}
			],
			"stateMutability": "view",
			"type": "function"
		},
		{
			"inputs": [
				{
					"internalType": "address",
					"name": "walletRetailer",
					"type": "address"
				},
				{
					"internalType": "uint256",
					"name": "_id_CheeseBlockAcquistato",
					"type": "uint256"
				}
			],
			"name": "isCheesePresent",
			"outputs": [
				{
					"internalType": "bool",
					"name": "",
					"type": "bool"
				}
			],
			"stateMutability": "view",
			"type": "function"
		},
		{
			"inputs": [
				{
					"internalType": "address",
					"name": "walletRetailer",
					"type": "address"
				},
				{
					"internalType": "uint256",
					"name": "_id",
					"type": "uint256"
				},
				{
					"internalType": "uint256",
					"name": "_newQuantity",
					"type": "uint256"
				}
			],
			"name": "updateCheeseQuantity",
			"outputs": [],
			"stateMutability": "nonpayable",
			"type": "function"
		}
	]
}