{
	"contracts/Actor/Consumer-smart-contract/inventory/ConsumerBuyerInventoryStorage.sol": {
		"ConsumerBuyerInventoryStorage": {
			"abi": [
				{
					"inputs": [],
					"stateMutability": "nonpayable",
					"type": "constructor"
				},
				{
					"inputs": [
						{
							"internalType": "address",
							"name": "_walletConsumerBuyer",
							"type": "address"
						},
						{
							"internalType": "address",
							"name": "_walletRetailer",
							"type": "address"
						},
						{
							"internalType": "uint256",
							"name": "_id",
							"type": "uint256"
						},
						{
							"internalType": "uint256",
							"name": "_price",
							"type": "uint256"
						},
						{
							"internalType": "uint256",
							"name": "_weight",
							"type": "uint256"
						}
					],
					"name": "addCheesePiece",
					"outputs": [
						{
							"internalType": "uint256",
							"name": "id_CheesePiece_Acquistato",
							"type": "uint256"
						},
						{
							"internalType": "uint256",
							"name": "price",
							"type": "uint256"
						},
						{
							"internalType": "uint256",
							"name": "weight",
							"type": "uint256"
						}
					],
					"stateMutability": "nonpayable",
					"type": "function"
				},
				{
					"inputs": [
						{
							"internalType": "address",
							"name": "walletConsumerBuyer",
							"type": "address"
						},
						{
							"internalType": "uint256",
							"name": "_id_CheesePieceAcquistato",
							"type": "uint256"
						}
					],
					"name": "getCheesePiece",
					"outputs": [
						{
							"internalType": "uint256",
							"name": "",
							"type": "uint256"
						},
						{
							"internalType": "address",
							"name": "",
							"type": "address"
						},
						{
							"internalType": "uint256",
							"name": "",
							"type": "uint256"
						},
						{
							"internalType": "uint256",
							"name": "",
							"type": "uint256"
						}
					],
					"stateMutability": "view",
					"type": "function"
				},
				{
					"inputs": [
						{
							"internalType": "address",
							"name": "walletConsumer",
							"type": "address"
						}
					],
					"name": "getListCheesePieseIdPurchasedByConsumer",
					"outputs": [
						{
							"internalType": "uint256[]",
							"name": "",
							"type": "uint256[]"
						}
					],
					"stateMutability": "view",
					"type": "function"
				},
				{
					"inputs": [
						{
							"internalType": "address",
							"name": "walletConsumerBuyer",
							"type": "address"
						},
						{
							"internalType": "uint256",
							"name": "_id",
							"type": "uint256"
						}
					],
					"name": "getPrice",
					"outputs": [
						{
							"internalType": "uint256",
							"name": "",
							"type": "uint256"
						}
					],
					"stateMutability": "view",
					"type": "function"
				},
				{
					"inputs": [
						{
							"internalType": "address",
							"name": "walletConsumerBuyer",
							"type": "address"
						},
						{
							"internalType": "uint256",
							"name": "_id",
							"type": "uint256"
						}
					],
					"name": "getWalletRetailer",
					"outputs": [
						{
							"internalType": "address",
							"name": "",
							"type": "address"
						}
					],
					"stateMutability": "view",
					"type": "function"
				},
				{
					"inputs": [
						{
							"internalType": "address",
							"name": "walletConsumerBuyer",
							"type": "address"
						},
						{
							"internalType": "uint256",
							"name": "_id",
							"type": "uint256"
						}
					],
					"name": "getWeight",
					"outputs": [
						{
							"internalType": "uint256",
							"name": "",
							"type": "uint256"
						}
					],
					"stateMutability": "view",
					"type": "function"
				},
				{
					"inputs": [
						{
							"internalType": "address",
							"name": "walletConsumerBuyer",
							"type": "address"
						},
						{
							"internalType": "uint256",
							"name": "_id_CheesePieceAcquistato",
							"type": "uint256"
						}
					],
					"name": "isCheesePiecePresent",
					"outputs": [
						{
							"internalType": "bool",
							"name": "",
							"type": "bool"
						}
					],
					"stateMutability": "view",
					"type": "function"
				}
			],
			"devdoc": {
				"kind": "dev",
				"methods": {},
				"version": 1
			},
			"evm": {
				"assembly": "    /* \"contracts/Actor/Consumer-smart-contract/inventory/ConsumerBuyerInventoryStorage.sol\":137:3828  contract ConsumerBuyerInventoryStorage {... */\n  mstore(0x40, 0x80)\n    /* \"contracts/Actor/Consumer-smart-contract/inventory/ConsumerBuyerInventoryStorage.sol\":282:344  constructor() {... */\n  callvalue\n  dup1\n  iszero\n  tag_1\n  jumpi\n  0x00\n  dup1\n  revert\ntag_1:\n  pop\n    /* \"contracts/Actor/Consumer-smart-contract/inventory/ConsumerBuyerInventoryStorage.sol\":326:336  msg.sender */\n  caller\n    /* \"contracts/Actor/Consumer-smart-contract/inventory/ConsumerBuyerInventoryStorage.sol\":307:323  consumerBuyerOrg */\n  0x00\n  dup1\n    /* \"contracts/Actor/Consumer-smart-contract/inventory/ConsumerBuyerInventoryStorage.sol\":307:336  consumerBuyerOrg = msg.sender */\n  0x0100\n  exp\n  dup2\n  sload\n  dup2\n  0xffffffffffffffffffffffffffffffffffffffff\n  mul\n  not\n  and\n  swap1\n  dup4\n  0xffffffffffffffffffffffffffffffffffffffff\n  and\n  mul\n  or\n  swap1\n  sstore\n  pop\n    /* \"contracts/Actor/Consumer-smart-contract/inventory/ConsumerBuyerInventoryStorage.sol\":137:3828  contract ConsumerBuyerInventoryStorage {... */\n  dataSize(sub_0)\n  dup1\n  dataOffset(sub_0)\n  0x00\n  codecopy\n  0x00\n  return\nstop\n\nsub_0: assembly {\n        /* \"contracts/Actor/Consumer-smart-contract/inventory/ConsumerBuyerInventoryStorage.sol\":137:3828  contract ConsumerBuyerInventoryStorage {... */\n      mstore(0x40, 0x80)\n      callvalue\n      dup1\n      iszero\n      tag_1\n      jumpi\n      0x00\n      dup1\n      revert\n    tag_1:\n      pop\n      jumpi(tag_2, lt(calldatasize, 0x04))\n      shr(0xe0, calldataload(0x00))\n      dup1\n      0x9bc7c21c\n      gt\n      tag_10\n      jumpi\n      dup1\n      0x9bc7c21c\n      eq\n      tag_6\n      jumpi\n      dup1\n      0xafd47d3e\n      eq\n      tag_7\n      jumpi\n      dup1\n      0xcb76a11f\n      eq\n      tag_8\n      jumpi\n      dup1\n      0xd7f9aee5\n      eq\n      tag_9\n      jumpi\n      jump(tag_2)\n    tag_10:\n      dup1\n      0x0b7aa473\n      eq\n      tag_3\n      jumpi\n      dup1\n      0x210744cf\n      eq\n      tag_4\n      jumpi\n      dup1\n      0x449e815d\n      eq\n      tag_5\n      jumpi\n    tag_2:\n      0x00\n      dup1\n      revert\n        /* \"contracts/Actor/Consumer-smart-contract/inventory/ConsumerBuyerInventoryStorage.sol\":2227:2606  function getCheesePiece(address walletConsumerBuyer, uint256 _id_CheesePieceAcquistato) external view returns (uint256, address, uint256, uint256) {... */\n    tag_3:\n      tag_11\n      0x04\n      dup1\n      calldatasize\n      sub\n      dup2\n      add\n      swap1\n      tag_12\n      swap2\n      swap1\n      tag_13\n      jump\t// in\n    tag_12:\n      tag_14\n      jump\t// in\n    tag_11:\n      mload(0x40)\n      tag_15\n      swap5\n      swap4\n      swap3\n      swap2\n      swap1\n      tag_16\n      jump\t// in\n    tag_15:\n      mload(0x40)\n      dup1\n      swap2\n      sub\n      swap1\n      return\n        /* \"contracts/Actor/Consumer-smart-contract/inventory/ConsumerBuyerInventoryStorage.sol\":970:2219  function addCheesePiece(... */\n    tag_4:\n      tag_17\n      0x04\n      dup1\n      calldatasize\n      sub\n      dup2\n      add\n      swap1\n      tag_18\n      swap2\n      swap1\n      tag_19\n      jump\t// in\n    tag_18:\n      tag_20\n      jump\t// in\n    tag_17:\n      mload(0x40)\n      tag_21\n      swap4\n      swap3\n      swap2\n      swap1\n      tag_22\n      jump\t// in\n    tag_21:\n      mload(0x40)\n      dup1\n      swap2\n      sub\n      swap1\n      return\n        /* \"contracts/Actor/Consumer-smart-contract/inventory/ConsumerBuyerInventoryStorage.sol\":3150:3321  function getPrice(address walletConsumerBuyer, uint256 _id) external view returns (uint256) {... */\n    tag_5:\n      tag_23\n      0x04\n      dup1\n      calldatasize\n      sub\n      dup2\n      add\n      swap1\n      tag_24\n      swap2\n      swap1\n      tag_13\n      jump\t// in\n    tag_24:\n      tag_25\n      jump\t// in\n    tag_23:\n      mload(0x40)\n      tag_26\n      swap2\n      swap1\n      tag_27\n      jump\t// in\n    tag_26:\n      mload(0x40)\n      dup1\n      swap2\n      sub\n      swap1\n      return\n        /* \"contracts/Actor/Consumer-smart-contract/inventory/ConsumerBuyerInventoryStorage.sol\":2614:2961  function isCheesePiecePresent(address walletConsumerBuyer, uint256 _id_CheesePieceAcquistato) external view returns(bool) {... */\n    tag_6:\n      tag_28\n      0x04\n      dup1\n      calldatasize\n      sub\n      dup2\n      add\n      swap1\n      tag_29\n      swap2\n      swap1\n      tag_13\n      jump\t// in\n    tag_29:\n      tag_30\n      jump\t// in\n    tag_28:\n      mload(0x40)\n      tag_31\n      swap2\n      swap1\n      tag_32\n      jump\t// in\n    tag_31:\n      mload(0x40)\n      dup1\n      swap2\n      sub\n      swap1\n      return\n        /* \"contracts/Actor/Consumer-smart-contract/inventory/ConsumerBuyerInventoryStorage.sol\":2969:3142  function getWeight(address walletConsumerBuyer, uint256 _id) external view returns (uint256) {... */\n    tag_7:\n      tag_33\n      0x04\n      dup1\n      calldatasize\n      sub\n      dup2\n      add\n      swap1\n      tag_34\n      swap2\n      swap1\n      tag_13\n      jump\t// in\n    tag_34:\n      tag_35\n      jump\t// in\n    tag_33:\n      mload(0x40)\n      tag_36\n      swap2\n      swap1\n      tag_27\n      jump\t// in\n    tag_36:\n      mload(0x40)\n      dup1\n      swap2\n      sub\n      swap1\n      return\n        /* \"contracts/Actor/Consumer-smart-contract/inventory/ConsumerBuyerInventoryStorage.sol\":3628:3825  function getListCheesePieseIdPurchasedByConsumer(address walletConsumer)external view returns (uint256[] memory){... */\n    tag_8:\n      tag_37\n      0x04\n      dup1\n      calldatasize\n      sub\n      dup2\n      add\n      swap1\n      tag_38\n      swap2\n      swap1\n      tag_39\n      jump\t// in\n    tag_38:\n      tag_40\n      jump\t// in\n    tag_37:\n      mload(0x40)\n      tag_41\n      swap2\n      swap1\n      tag_42\n      jump\t// in\n    tag_41:\n      mload(0x40)\n      dup1\n      swap2\n      sub\n      swap1\n      return\n        /* \"contracts/Actor/Consumer-smart-contract/inventory/ConsumerBuyerInventoryStorage.sol\":3329:3518  function getWalletRetailer(address walletConsumerBuyer, uint256 _id) external view returns (address) {... */\n    tag_9:\n      tag_43\n      0x04\n      dup1\n      calldatasize\n      sub\n      dup2\n      add\n      swap1\n      tag_44\n      swap2\n      swap1\n      tag_13\n      jump\t// in\n    tag_44:\n      tag_45\n      jump\t// in\n    tag_43:\n      mload(0x40)\n      tag_46\n      swap2\n      swap1\n      tag_47\n      jump\t// in\n    tag_46:\n      mload(0x40)\n      dup1\n      swap2\n      sub\n      swap1\n      return\n        /* \"contracts/Actor/Consumer-smart-contract/inventory/ConsumerBuyerInventoryStorage.sol\":2227:2606  function getCheesePiece(address walletConsumerBuyer, uint256 _id_CheesePieceAcquistato) external view returns (uint256, address, uint256, uint256) {... */\n    tag_14:\n        /* \"contracts/Actor/Consumer-smart-contract/inventory/ConsumerBuyerInventoryStorage.sol\":2338:2345  uint256 */\n      0x00\n        /* \"contracts/Actor/Consumer-smart-contract/inventory/ConsumerBuyerInventoryStorage.sol\":2347:2354  address */\n      dup1\n        /* \"contracts/Actor/Consumer-smart-contract/inventory/ConsumerBuyerInventoryStorage.sol\":2356:2363  uint256 */\n      0x00\n        /* \"contracts/Actor/Consumer-smart-contract/inventory/ConsumerBuyerInventoryStorage.sol\":2365:2372  uint256 */\n      dup1\n        /* \"contracts/Actor/Consumer-smart-contract/inventory/ConsumerBuyerInventoryStorage.sol\":2385:2415  CheesePiece memory cheesePiece */\n      0x00\n        /* \"contracts/Actor/Consumer-smart-contract/inventory/ConsumerBuyerInventoryStorage.sol\":2418:2439  purchasedCheesePieces */\n      0x01\n        /* \"contracts/Actor/Consumer-smart-contract/inventory/ConsumerBuyerInventoryStorage.sol\":2418:2460  purchasedCheesePieces[walletConsumerBuyer] */\n      0x00\n        /* \"contracts/Actor/Consumer-smart-contract/inventory/ConsumerBuyerInventoryStorage.sol\":2440:2459  walletConsumerBuyer */\n      dup9\n        /* \"contracts/Actor/Consumer-smart-contract/inventory/ConsumerBuyerInventoryStorage.sol\":2418:2460  purchasedCheesePieces[walletConsumerBuyer] */\n      0xffffffffffffffffffffffffffffffffffffffff\n      and\n      0xffffffffffffffffffffffffffffffffffffffff\n      and\n      dup2\n      mstore\n      0x20\n      add\n      swap1\n      dup2\n      mstore\n      0x20\n      add\n      0x00\n      keccak256\n        /* \"contracts/Actor/Consumer-smart-contract/inventory/ConsumerBuyerInventoryStorage.sol\":2418:2487  purchasedCheesePieces[walletConsumerBuyer][_id_CheesePieceAcquistato] */\n      0x00\n        /* \"contracts/Actor/Consumer-smart-contract/inventory/ConsumerBuyerInventoryStorage.sol\":2461:2486  _id_CheesePieceAcquistato */\n      dup8\n        /* \"contracts/Actor/Consumer-smart-contract/inventory/ConsumerBuyerInventoryStorage.sol\":2418:2487  purchasedCheesePieces[walletConsumerBuyer][_id_CheesePieceAcquistato] */\n      dup2\n      mstore\n      0x20\n      add\n      swap1\n      dup2\n      mstore\n      0x20\n      add\n      0x00\n      keccak256\n        /* \"contracts/Actor/Consumer-smart-contract/inventory/ConsumerBuyerInventoryStorage.sol\":2385:2487  CheesePiece memory cheesePiece = purchasedCheesePieces[walletConsumerBuyer][_id_CheesePieceAcquistato] */\n      mload(0x40)\n      dup1\n      0x80\n      add\n      0x40\n      mstore\n      swap1\n      dup2\n      0x00\n      dup3\n      add\n      sload\n      dup2\n      mstore\n      0x20\n      add\n      0x01\n      dup3\n      add\n      0x00\n      swap1\n      sload\n      swap1\n      0x0100\n      exp\n      swap1\n      div\n      0xffffffffffffffffffffffffffffffffffffffff\n      and\n      0xffffffffffffffffffffffffffffffffffffffff\n      and\n      0xffffffffffffffffffffffffffffffffffffffff\n      and\n      dup2\n      mstore\n      0x20\n      add\n      0x02\n      dup3\n      add\n      sload\n      dup2\n      mstore\n      0x20\n      add\n      0x03\n      dup3\n      add\n      sload\n      dup2\n      mstore\n      pop\n      pop\n      swap1\n      pop\n        /* \"contracts/Actor/Consumer-smart-contract/inventory/ConsumerBuyerInventoryStorage.sol\":2516:2527  cheesePiece */\n      dup1\n        /* \"contracts/Actor/Consumer-smart-contract/inventory/ConsumerBuyerInventoryStorage.sol\":2516:2530  cheesePiece.id */\n      0x00\n      add\n      mload\n        /* \"contracts/Actor/Consumer-smart-contract/inventory/ConsumerBuyerInventoryStorage.sol\":2532:2543  cheesePiece */\n      dup2\n        /* \"contracts/Actor/Consumer-smart-contract/inventory/ConsumerBuyerInventoryStorage.sol\":2532:2558  cheesePiece.walletRetailer */\n      0x20\n      add\n      mload\n        /* \"contracts/Actor/Consumer-smart-contract/inventory/ConsumerBuyerInventoryStorage.sol\":2560:2571  cheesePiece */\n      dup3\n        /* \"contracts/Actor/Consumer-smart-contract/inventory/ConsumerBuyerInventoryStorage.sol\":2560:2577  cheesePiece.price */\n      0x40\n      add\n      mload\n        /* \"contracts/Actor/Consumer-smart-contract/inventory/ConsumerBuyerInventoryStorage.sol\":2579:2590  cheesePiece */\n      dup4\n        /* \"contracts/Actor/Consumer-smart-contract/inventory/ConsumerBuyerInventoryStorage.sol\":2579:2597  cheesePiece.weight */\n      0x60\n      add\n      mload\n        /* \"contracts/Actor/Consumer-smart-contract/inventory/ConsumerBuyerInventoryStorage.sol\":2508:2598  return (cheesePiece.id, cheesePiece.walletRetailer, cheesePiece.price, cheesePiece.weight) */\n      swap5\n      pop\n      swap5\n      pop\n      swap5\n      pop\n      swap5\n      pop\n      pop\n        /* \"contracts/Actor/Consumer-smart-contract/inventory/ConsumerBuyerInventoryStorage.sol\":2227:2606  function getCheesePiece(address walletConsumerBuyer, uint256 _id_CheesePieceAcquistato) external view returns (uint256, address, uint256, uint256) {... */\n      swap3\n      swap6\n      swap2\n      swap5\n      pop\n      swap3\n      pop\n      jump\t// out\n        /* \"contracts/Actor/Consumer-smart-contract/inventory/ConsumerBuyerInventoryStorage.sol\":970:2219  function addCheesePiece(... */\n    tag_20:\n        /* \"contracts/Actor/Consumer-smart-contract/inventory/ConsumerBuyerInventoryStorage.sol\":1203:1236  uint256 id_CheesePiece_Acquistato */\n      0x00\n        /* \"contracts/Actor/Consumer-smart-contract/inventory/ConsumerBuyerInventoryStorage.sol\":1238:1251  uint256 price */\n      dup1\n        /* \"contracts/Actor/Consumer-smart-contract/inventory/ConsumerBuyerInventoryStorage.sol\":1253:1267  uint256 weight */\n      0x00\n        /* \"contracts/Actor/Consumer-smart-contract/inventory/ConsumerBuyerInventoryStorage.sol\":1282:1320  CheesePiece storage cheesePieceControl */\n      dup1\n        /* \"contracts/Actor/Consumer-smart-contract/inventory/ConsumerBuyerInventoryStorage.sol\":1323:1344  purchasedCheesePieces */\n      0x01\n        /* \"contracts/Actor/Consumer-smart-contract/inventory/ConsumerBuyerInventoryStorage.sol\":1323:1366  purchasedCheesePieces[_walletConsumerBuyer] */\n      0x00\n        /* \"contracts/Actor/Consumer-smart-contract/inventory/ConsumerBuyerInventoryStorage.sol\":1345:1365  _walletConsumerBuyer */\n      dup11\n        /* \"contracts/Actor/Consumer-smart-contract/inventory/ConsumerBuyerInventoryStorage.sol\":1323:1366  purchasedCheesePieces[_walletConsumerBuyer] */\n      0xffffffffffffffffffffffffffffffffffffffff\n      and\n      0xffffffffffffffffffffffffffffffffffffffff\n      and\n      dup2\n      mstore\n      0x20\n      add\n      swap1\n      dup2\n      mstore\n      0x20\n      add\n      0x00\n      keccak256\n        /* \"contracts/Actor/Consumer-smart-contract/inventory/ConsumerBuyerInventoryStorage.sol\":1323:1371  purchasedCheesePieces[_walletConsumerBuyer][_id] */\n      0x00\n        /* \"contracts/Actor/Consumer-smart-contract/inventory/ConsumerBuyerInventoryStorage.sol\":1367:1370  _id */\n      dup9\n        /* \"contracts/Actor/Consumer-smart-contract/inventory/ConsumerBuyerInventoryStorage.sol\":1323:1371  purchasedCheesePieces[_walletConsumerBuyer][_id] */\n      dup2\n      mstore\n      0x20\n      add\n      swap1\n      dup2\n      mstore\n      0x20\n      add\n      0x00\n      keccak256\n        /* \"contracts/Actor/Consumer-smart-contract/inventory/ConsumerBuyerInventoryStorage.sol\":1282:1371  CheesePiece storage cheesePieceControl = purchasedCheesePieces[_walletConsumerBuyer][_id] */\n      swap1\n      pop\n        /* \"contracts/Actor/Consumer-smart-contract/inventory/ConsumerBuyerInventoryStorage.sol\":1415:1416  0 */\n      0x00\n        /* \"contracts/Actor/Consumer-smart-contract/inventory/ConsumerBuyerInventoryStorage.sol\":1390:1408  cheesePieceControl */\n      dup2\n        /* \"contracts/Actor/Consumer-smart-contract/inventory/ConsumerBuyerInventoryStorage.sol\":1390:1411  cheesePieceControl.id */\n      0x00\n      add\n      sload\n        /* \"contracts/Actor/Consumer-smart-contract/inventory/ConsumerBuyerInventoryStorage.sol\":1390:1416  cheesePieceControl.id == 0 */\n      eq\n        /* \"contracts/Actor/Consumer-smart-contract/inventory/ConsumerBuyerInventoryStorage.sol\":1382:1447  require(cheesePieceControl.id == 0, \"CheesePiece gia' presente!\") */\n      tag_50\n      jumpi\n      mload(0x40)\n      0x08c379a000000000000000000000000000000000000000000000000000000000\n      dup2\n      mstore\n      0x04\n      add\n      tag_51\n      swap1\n      tag_52\n      jump\t// in\n    tag_51:\n      mload(0x40)\n      dup1\n      swap2\n      sub\n      swap1\n      revert\n    tag_50:\n        /* \"contracts/Actor/Consumer-smart-contract/inventory/ConsumerBuyerInventoryStorage.sol\":1498:1528  CheesePiece memory cheesePiece */\n      0x00\n        /* \"contracts/Actor/Consumer-smart-contract/inventory/ConsumerBuyerInventoryStorage.sol\":1531:1681  CheesePiece({... */\n      mload(0x40)\n      dup1\n      0x80\n      add\n      0x40\n      mstore\n      dup1\n        /* \"contracts/Actor/Consumer-smart-contract/inventory/ConsumerBuyerInventoryStorage.sol\":1562:1565  _id */\n      dup10\n        /* \"contracts/Actor/Consumer-smart-contract/inventory/ConsumerBuyerInventoryStorage.sol\":1531:1681  CheesePiece({... */\n      dup2\n      mstore\n      0x20\n      add\n        /* \"contracts/Actor/Consumer-smart-contract/inventory/ConsumerBuyerInventoryStorage.sol\":1596:1611  _walletRetailer */\n      dup11\n        /* \"contracts/Actor/Consumer-smart-contract/inventory/ConsumerBuyerInventoryStorage.sol\":1531:1681  CheesePiece({... */\n      0xffffffffffffffffffffffffffffffffffffffff\n      and\n      dup2\n      mstore\n      0x20\n      add\n        /* \"contracts/Actor/Consumer-smart-contract/inventory/ConsumerBuyerInventoryStorage.sol\":1633:1639  _price */\n      dup9\n        /* \"contracts/Actor/Consumer-smart-contract/inventory/ConsumerBuyerInventoryStorage.sol\":1531:1681  CheesePiece({... */\n      dup2\n      mstore\n      0x20\n      add\n        /* \"contracts/Actor/Consumer-smart-contract/inventory/ConsumerBuyerInventoryStorage.sol\":1662:1669  _weight */\n      dup8\n        /* \"contracts/Actor/Consumer-smart-contract/inventory/ConsumerBuyerInventoryStorage.sol\":1531:1681  CheesePiece({... */\n      dup2\n      mstore\n      pop\n        /* \"contracts/Actor/Consumer-smart-contract/inventory/ConsumerBuyerInventoryStorage.sol\":1498:1681  CheesePiece memory cheesePiece = CheesePiece({... */\n      swap1\n      pop\n        /* \"contracts/Actor/Consumer-smart-contract/inventory/ConsumerBuyerInventoryStorage.sol\":1822:1833  cheesePiece */\n      dup1\n        /* \"contracts/Actor/Consumer-smart-contract/inventory/ConsumerBuyerInventoryStorage.sol\":1771:1792  purchasedCheesePieces */\n      0x01\n        /* \"contracts/Actor/Consumer-smart-contract/inventory/ConsumerBuyerInventoryStorage.sol\":1771:1814  purchasedCheesePieces[_walletConsumerBuyer] */\n      0x00\n        /* \"contracts/Actor/Consumer-smart-contract/inventory/ConsumerBuyerInventoryStorage.sol\":1793:1813  _walletConsumerBuyer */\n      dup13\n        /* \"contracts/Actor/Consumer-smart-contract/inventory/ConsumerBuyerInventoryStorage.sol\":1771:1814  purchasedCheesePieces[_walletConsumerBuyer] */\n      0xffffffffffffffffffffffffffffffffffffffff\n      and\n      0xffffffffffffffffffffffffffffffffffffffff\n      and\n      dup2\n      mstore\n      0x20\n      add\n      swap1\n      dup2\n      mstore\n      0x20\n      add\n      0x00\n      keccak256\n        /* \"contracts/Actor/Consumer-smart-contract/inventory/ConsumerBuyerInventoryStorage.sol\":1771:1819  purchasedCheesePieces[_walletConsumerBuyer][_id] */\n      0x00\n        /* \"contracts/Actor/Consumer-smart-contract/inventory/ConsumerBuyerInventoryStorage.sol\":1815:1818  _id */\n      dup11\n        /* \"contracts/Actor/Consumer-smart-contract/inventory/ConsumerBuyerInventoryStorage.sol\":1771:1819  purchasedCheesePieces[_walletConsumerBuyer][_id] */\n      dup2\n      mstore\n      0x20\n      add\n      swap1\n      dup2\n      mstore\n      0x20\n      add\n      0x00\n      keccak256\n        /* \"contracts/Actor/Consumer-smart-contract/inventory/ConsumerBuyerInventoryStorage.sol\":1771:1833  purchasedCheesePieces[_walletConsumerBuyer][_id] = cheesePiece */\n      0x00\n      dup3\n      add\n      mload\n      dup2\n      0x00\n      add\n      sstore\n      0x20\n      dup3\n      add\n      mload\n      dup2\n      0x01\n      add\n      exp(0x0100, 0x00)\n      dup2\n      sload\n      dup2\n      0xffffffffffffffffffffffffffffffffffffffff\n      mul\n      not\n      and\n      swap1\n      dup4\n      0xffffffffffffffffffffffffffffffffffffffff\n      and\n      mul\n      or\n      swap1\n      sstore\n      pop\n      0x40\n      dup3\n      add\n      mload\n      dup2\n      0x02\n      add\n      sstore\n      0x60\n      dup3\n      add\n      mload\n      dup2\n      0x03\n      add\n      sstore\n      swap1\n      pop\n      pop\n        /* \"contracts/Actor/Consumer-smart-contract/inventory/ConsumerBuyerInventoryStorage.sol\":1896:1939  purchasedCheesePieceListIdForSingleConsumer */\n      0x02\n        /* \"contracts/Actor/Consumer-smart-contract/inventory/ConsumerBuyerInventoryStorage.sol\":1896:1961  purchasedCheesePieceListIdForSingleConsumer[_walletConsumerBuyer] */\n      0x00\n        /* \"contracts/Actor/Consumer-smart-contract/inventory/ConsumerBuyerInventoryStorage.sol\":1940:1960  _walletConsumerBuyer */\n      dup12\n        /* \"contracts/Actor/Consumer-smart-contract/inventory/ConsumerBuyerInventoryStorage.sol\":1896:1961  purchasedCheesePieceListIdForSingleConsumer[_walletConsumerBuyer] */\n      0xffffffffffffffffffffffffffffffffffffffff\n      and\n      0xffffffffffffffffffffffffffffffffffffffff\n      and\n      dup2\n      mstore\n      0x20\n      add\n      swap1\n      dup2\n      mstore\n      0x20\n      add\n      0x00\n      keccak256\n        /* \"contracts/Actor/Consumer-smart-contract/inventory/ConsumerBuyerInventoryStorage.sol\":1967:1970  _id */\n      dup9\n        /* \"contracts/Actor/Consumer-smart-contract/inventory/ConsumerBuyerInventoryStorage.sol\":1896:1971  purchasedCheesePieceListIdForSingleConsumer[_walletConsumerBuyer].push(_id) */\n      swap1\n      dup1\n      0x01\n      dup2\n      sload\n      add\n      dup1\n      dup3\n      sstore\n      dup1\n      swap2\n      pop\n      pop\n      0x01\n      swap1\n      sub\n      swap1\n      0x00\n      mstore\n      keccak256(0x00, 0x20)\n      add\n      0x00\n      swap1\n      swap2\n      swap1\n      swap2\n      swap1\n      swap2\n      pop\n      sstore\n        /* \"contracts/Actor/Consumer-smart-contract/inventory/ConsumerBuyerInventoryStorage.sol\":2006:2027  purchasedCheesePieces */\n      0x01\n        /* \"contracts/Actor/Consumer-smart-contract/inventory/ConsumerBuyerInventoryStorage.sol\":2006:2049  purchasedCheesePieces[_walletConsumerBuyer] */\n      0x00\n        /* \"contracts/Actor/Consumer-smart-contract/inventory/ConsumerBuyerInventoryStorage.sol\":2028:2048  _walletConsumerBuyer */\n      dup12\n        /* \"contracts/Actor/Consumer-smart-contract/inventory/ConsumerBuyerInventoryStorage.sol\":2006:2049  purchasedCheesePieces[_walletConsumerBuyer] */\n      0xffffffffffffffffffffffffffffffffffffffff\n      and\n      0xffffffffffffffffffffffffffffffffffffffff\n      and\n      dup2\n      mstore\n      0x20\n      add\n      swap1\n      dup2\n      mstore\n      0x20\n      add\n      0x00\n      keccak256\n        /* \"contracts/Actor/Consumer-smart-contract/inventory/ConsumerBuyerInventoryStorage.sol\":2006:2054  purchasedCheesePieces[_walletConsumerBuyer][_id] */\n      0x00\n        /* \"contracts/Actor/Consumer-smart-contract/inventory/ConsumerBuyerInventoryStorage.sol\":2050:2053  _id */\n      dup10\n        /* \"contracts/Actor/Consumer-smart-contract/inventory/ConsumerBuyerInventoryStorage.sol\":2006:2054  purchasedCheesePieces[_walletConsumerBuyer][_id] */\n      dup2\n      mstore\n      0x20\n      add\n      swap1\n      dup2\n      mstore\n      0x20\n      add\n      0x00\n      keccak256\n        /* \"contracts/Actor/Consumer-smart-contract/inventory/ConsumerBuyerInventoryStorage.sol\":2006:2057  purchasedCheesePieces[_walletConsumerBuyer][_id].id */\n      0x00\n      add\n      sload\n        /* \"contracts/Actor/Consumer-smart-contract/inventory/ConsumerBuyerInventoryStorage.sol\":2072:2093  purchasedCheesePieces */\n      0x01\n        /* \"contracts/Actor/Consumer-smart-contract/inventory/ConsumerBuyerInventoryStorage.sol\":2072:2115  purchasedCheesePieces[_walletConsumerBuyer] */\n      0x00\n        /* \"contracts/Actor/Consumer-smart-contract/inventory/ConsumerBuyerInventoryStorage.sol\":2094:2114  _walletConsumerBuyer */\n      dup13\n        /* \"contracts/Actor/Consumer-smart-contract/inventory/ConsumerBuyerInventoryStorage.sol\":2072:2115  purchasedCheesePieces[_walletConsumerBuyer] */\n      0xffffffffffffffffffffffffffffffffffffffff\n      and\n      0xffffffffffffffffffffffffffffffffffffffff\n      and\n      dup2\n      mstore\n      0x20\n      add\n      swap1\n      dup2\n      mstore\n      0x20\n      add\n      0x00\n      keccak256\n        /* \"contracts/Actor/Consumer-smart-contract/inventory/ConsumerBuyerInventoryStorage.sol\":2072:2120  purchasedCheesePieces[_walletConsumerBuyer][_id] */\n      0x00\n        /* \"contracts/Actor/Consumer-smart-contract/inventory/ConsumerBuyerInventoryStorage.sol\":2116:2119  _id */\n      dup11\n        /* \"contracts/Actor/Consumer-smart-contract/inventory/ConsumerBuyerInventoryStorage.sol\":2072:2120  purchasedCheesePieces[_walletConsumerBuyer][_id] */\n      dup2\n      mstore\n      0x20\n      add\n      swap1\n      dup2\n      mstore\n      0x20\n      add\n      0x00\n      keccak256\n        /* \"contracts/Actor/Consumer-smart-contract/inventory/ConsumerBuyerInventoryStorage.sol\":2072:2126  purchasedCheesePieces[_walletConsumerBuyer][_id].price */\n      0x02\n      add\n      sload\n        /* \"contracts/Actor/Consumer-smart-contract/inventory/ConsumerBuyerInventoryStorage.sol\":2141:2162  purchasedCheesePieces */\n      0x01\n        /* \"contracts/Actor/Consumer-smart-contract/inventory/ConsumerBuyerInventoryStorage.sol\":2141:2184  purchasedCheesePieces[_walletConsumerBuyer] */\n      0x00\n        /* \"contracts/Actor/Consumer-smart-contract/inventory/ConsumerBuyerInventoryStorage.sol\":2163:2183  _walletConsumerBuyer */\n      dup14\n        /* \"contracts/Actor/Consumer-smart-contract/inventory/ConsumerBuyerInventoryStorage.sol\":2141:2184  purchasedCheesePieces[_walletConsumerBuyer] */\n      0xffffffffffffffffffffffffffffffffffffffff\n      and\n      0xffffffffffffffffffffffffffffffffffffffff\n      and\n      dup2\n      mstore\n      0x20\n      add\n      swap1\n      dup2\n      mstore\n      0x20\n      add\n      0x00\n      keccak256\n        /* \"contracts/Actor/Consumer-smart-contract/inventory/ConsumerBuyerInventoryStorage.sol\":2141:2189  purchasedCheesePieces[_walletConsumerBuyer][_id] */\n      0x00\n        /* \"contracts/Actor/Consumer-smart-contract/inventory/ConsumerBuyerInventoryStorage.sol\":2185:2188  _id */\n      dup12\n        /* \"contracts/Actor/Consumer-smart-contract/inventory/ConsumerBuyerInventoryStorage.sol\":2141:2189  purchasedCheesePieces[_walletConsumerBuyer][_id] */\n      dup2\n      mstore\n      0x20\n      add\n      swap1\n      dup2\n      mstore\n      0x20\n      add\n      0x00\n      keccak256\n        /* \"contracts/Actor/Consumer-smart-contract/inventory/ConsumerBuyerInventoryStorage.sol\":2141:2196  purchasedCheesePieces[_walletConsumerBuyer][_id].weight */\n      0x03\n      add\n      sload\n        /* \"contracts/Actor/Consumer-smart-contract/inventory/ConsumerBuyerInventoryStorage.sol\":1984:2211  return (... */\n      swap5\n      pop\n      swap5\n      pop\n      swap5\n      pop\n      pop\n      pop\n        /* \"contracts/Actor/Consumer-smart-contract/inventory/ConsumerBuyerInventoryStorage.sol\":970:2219  function addCheesePiece(... */\n      swap6\n      pop\n      swap6\n      pop\n      swap6\n      swap3\n      pop\n      pop\n      pop\n      jump\t// out\n        /* \"contracts/Actor/Consumer-smart-contract/inventory/ConsumerBuyerInventoryStorage.sol\":3150:3321  function getPrice(address walletConsumerBuyer, uint256 _id) external view returns (uint256) {... */\n    tag_25:\n        /* \"contracts/Actor/Consumer-smart-contract/inventory/ConsumerBuyerInventoryStorage.sol\":3233:3240  uint256 */\n      0x00\n        /* \"contracts/Actor/Consumer-smart-contract/inventory/ConsumerBuyerInventoryStorage.sol\":3260:3281  purchasedCheesePieces */\n      0x01\n        /* \"contracts/Actor/Consumer-smart-contract/inventory/ConsumerBuyerInventoryStorage.sol\":3260:3302  purchasedCheesePieces[walletConsumerBuyer] */\n      0x00\n        /* \"contracts/Actor/Consumer-smart-contract/inventory/ConsumerBuyerInventoryStorage.sol\":3282:3301  walletConsumerBuyer */\n      dup5\n        /* \"contracts/Actor/Consumer-smart-contract/inventory/ConsumerBuyerInventoryStorage.sol\":3260:3302  purchasedCheesePieces[walletConsumerBuyer] */\n      0xffffffffffffffffffffffffffffffffffffffff\n      and\n      0xffffffffffffffffffffffffffffffffffffffff\n      and\n      dup2\n      mstore\n      0x20\n      add\n      swap1\n      dup2\n      mstore\n      0x20\n      add\n      0x00\n      keccak256\n        /* \"contracts/Actor/Consumer-smart-contract/inventory/ConsumerBuyerInventoryStorage.sol\":3260:3307  purchasedCheesePieces[walletConsumerBuyer][_id] */\n      0x00\n        /* \"contracts/Actor/Consumer-smart-contract/inventory/ConsumerBuyerInventoryStorage.sol\":3303:3306  _id */\n      dup4\n        /* \"contracts/Actor/Consumer-smart-contract/inventory/ConsumerBuyerInventoryStorage.sol\":3260:3307  purchasedCheesePieces[walletConsumerBuyer][_id] */\n      dup2\n      mstore\n      0x20\n      add\n      swap1\n      dup2\n      mstore\n      0x20\n      add\n      0x00\n      keccak256\n        /* \"contracts/Actor/Consumer-smart-contract/inventory/ConsumerBuyerInventoryStorage.sol\":3260:3313  purchasedCheesePieces[walletConsumerBuyer][_id].price */\n      0x02\n      add\n      sload\n        /* \"contracts/Actor/Consumer-smart-contract/inventory/ConsumerBuyerInventoryStorage.sol\":3253:3313  return purchasedCheesePieces[walletConsumerBuyer][_id].price */\n      swap1\n      pop\n        /* \"contracts/Actor/Consumer-smart-contract/inventory/ConsumerBuyerInventoryStorage.sol\":3150:3321  function getPrice(address walletConsumerBuyer, uint256 _id) external view returns (uint256) {... */\n      swap3\n      swap2\n      pop\n      pop\n      jump\t// out\n        /* \"contracts/Actor/Consumer-smart-contract/inventory/ConsumerBuyerInventoryStorage.sol\":2614:2961  function isCheesePiecePresent(address walletConsumerBuyer, uint256 _id_CheesePieceAcquistato) external view returns(bool) {... */\n    tag_30:\n        /* \"contracts/Actor/Consumer-smart-contract/inventory/ConsumerBuyerInventoryStorage.sol\":2730:2734  bool */\n      0x00\n        /* \"contracts/Actor/Consumer-smart-contract/inventory/ConsumerBuyerInventoryStorage.sol\":2784:2785  0 */\n      dup1\n        /* \"contracts/Actor/Consumer-smart-contract/inventory/ConsumerBuyerInventoryStorage.sol\":2755:2780  _id_CheesePieceAcquistato */\n      dup3\n        /* \"contracts/Actor/Consumer-smart-contract/inventory/ConsumerBuyerInventoryStorage.sol\":2755:2785  _id_CheesePieceAcquistato != 0 */\n      eq\n      iszero\n        /* \"contracts/Actor/Consumer-smart-contract/inventory/ConsumerBuyerInventoryStorage.sol\":2755:2818  _id_CheesePieceAcquistato != 0 && _id_CheesePieceAcquistato > 0 */\n      dup1\n      iszero\n      tag_56\n      jumpi\n      pop\n        /* \"contracts/Actor/Consumer-smart-contract/inventory/ConsumerBuyerInventoryStorage.sol\":2817:2818  0 */\n      0x00\n        /* \"contracts/Actor/Consumer-smart-contract/inventory/ConsumerBuyerInventoryStorage.sol\":2789:2814  _id_CheesePieceAcquistato */\n      dup3\n        /* \"contracts/Actor/Consumer-smart-contract/inventory/ConsumerBuyerInventoryStorage.sol\":2789:2818  _id_CheesePieceAcquistato > 0 */\n      gt\n        /* \"contracts/Actor/Consumer-smart-contract/inventory/ConsumerBuyerInventoryStorage.sol\":2755:2818  _id_CheesePieceAcquistato != 0 && _id_CheesePieceAcquistato > 0 */\n    tag_56:\n        /* \"contracts/Actor/Consumer-smart-contract/inventory/ConsumerBuyerInventoryStorage.sol\":2747:2848  require(_id_CheesePieceAcquistato != 0 && _id_CheesePieceAcquistato > 0, \"ID CheesePiece Not Valid!\") */\n      tag_57\n      jumpi\n      mload(0x40)\n      0x08c379a000000000000000000000000000000000000000000000000000000000\n      dup2\n      mstore\n      0x04\n      add\n      tag_58\n      swap1\n      tag_59\n      jump\t// in\n    tag_58:\n      mload(0x40)\n      dup1\n      swap2\n      sub\n      swap1\n      revert\n    tag_57:\n        /* \"contracts/Actor/Consumer-smart-contract/inventory/ConsumerBuyerInventoryStorage.sol\":2952:2953  0 */\n      0x00\n        /* \"contracts/Actor/Consumer-smart-contract/inventory/ConsumerBuyerInventoryStorage.sol\":2876:2897  purchasedCheesePieces */\n      0x01\n        /* \"contracts/Actor/Consumer-smart-contract/inventory/ConsumerBuyerInventoryStorage.sol\":2876:2918  purchasedCheesePieces[walletConsumerBuyer] */\n      0x00\n        /* \"contracts/Actor/Consumer-smart-contract/inventory/ConsumerBuyerInventoryStorage.sol\":2898:2917  walletConsumerBuyer */\n      dup6\n        /* \"contracts/Actor/Consumer-smart-contract/inventory/ConsumerBuyerInventoryStorage.sol\":2876:2918  purchasedCheesePieces[walletConsumerBuyer] */\n      0xffffffffffffffffffffffffffffffffffffffff\n      and\n      0xffffffffffffffffffffffffffffffffffffffff\n      and\n      dup2\n      mstore\n      0x20\n      add\n      swap1\n      dup2\n      mstore\n      0x20\n      add\n      0x00\n      keccak256\n        /* \"contracts/Actor/Consumer-smart-contract/inventory/ConsumerBuyerInventoryStorage.sol\":2876:2945  purchasedCheesePieces[walletConsumerBuyer][_id_CheesePieceAcquistato] */\n      0x00\n        /* \"contracts/Actor/Consumer-smart-contract/inventory/ConsumerBuyerInventoryStorage.sol\":2919:2944  _id_CheesePieceAcquistato */\n      dup5\n        /* \"contracts/Actor/Consumer-smart-contract/inventory/ConsumerBuyerInventoryStorage.sol\":2876:2945  purchasedCheesePieces[walletConsumerBuyer][_id_CheesePieceAcquistato] */\n      dup2\n      mstore\n      0x20\n      add\n      swap1\n      dup2\n      mstore\n      0x20\n      add\n      0x00\n      keccak256\n        /* \"contracts/Actor/Consumer-smart-contract/inventory/ConsumerBuyerInventoryStorage.sol\":2876:2948  purchasedCheesePieces[walletConsumerBuyer][_id_CheesePieceAcquistato].id */\n      0x00\n      add\n      sload\n        /* \"contracts/Actor/Consumer-smart-contract/inventory/ConsumerBuyerInventoryStorage.sol\":2876:2953  purchasedCheesePieces[walletConsumerBuyer][_id_CheesePieceAcquistato].id != 0 */\n      eq\n      iszero\n        /* \"contracts/Actor/Consumer-smart-contract/inventory/ConsumerBuyerInventoryStorage.sol\":2869:2953  return purchasedCheesePieces[walletConsumerBuyer][_id_CheesePieceAcquistato].id != 0 */\n      swap1\n      pop\n        /* \"contracts/Actor/Consumer-smart-contract/inventory/ConsumerBuyerInventoryStorage.sol\":2614:2961  function isCheesePiecePresent(address walletConsumerBuyer, uint256 _id_CheesePieceAcquistato) external view returns(bool) {... */\n      swap3\n      swap2\n      pop\n      pop\n      jump\t// out\n        /* \"contracts/Actor/Consumer-smart-contract/inventory/ConsumerBuyerInventoryStorage.sol\":2969:3142  function getWeight(address walletConsumerBuyer, uint256 _id) external view returns (uint256) {... */\n    tag_35:\n        /* \"contracts/Actor/Consumer-smart-contract/inventory/ConsumerBuyerInventoryStorage.sol\":3053:3060  uint256 */\n      0x00\n        /* \"contracts/Actor/Consumer-smart-contract/inventory/ConsumerBuyerInventoryStorage.sol\":3080:3101  purchasedCheesePieces */\n      0x01\n        /* \"contracts/Actor/Consumer-smart-contract/inventory/ConsumerBuyerInventoryStorage.sol\":3080:3122  purchasedCheesePieces[walletConsumerBuyer] */\n      0x00\n        /* \"contracts/Actor/Consumer-smart-contract/inventory/ConsumerBuyerInventoryStorage.sol\":3102:3121  walletConsumerBuyer */\n      dup5\n        /* \"contracts/Actor/Consumer-smart-contract/inventory/ConsumerBuyerInventoryStorage.sol\":3080:3122  purchasedCheesePieces[walletConsumerBuyer] */\n      0xffffffffffffffffffffffffffffffffffffffff\n      and\n      0xffffffffffffffffffffffffffffffffffffffff\n      and\n      dup2\n      mstore\n      0x20\n      add\n      swap1\n      dup2\n      mstore\n      0x20\n      add\n      0x00\n      keccak256\n        /* \"contracts/Actor/Consumer-smart-contract/inventory/ConsumerBuyerInventoryStorage.sol\":3080:3127  purchasedCheesePieces[walletConsumerBuyer][_id] */\n      0x00\n        /* \"contracts/Actor/Consumer-smart-contract/inventory/ConsumerBuyerInventoryStorage.sol\":3123:3126  _id */\n      dup4\n        /* \"contracts/Actor/Consumer-smart-contract/inventory/ConsumerBuyerInventoryStorage.sol\":3080:3127  purchasedCheesePieces[walletConsumerBuyer][_id] */\n      dup2\n      mstore\n      0x20\n      add\n      swap1\n      dup2\n      mstore\n      0x20\n      add\n      0x00\n      keccak256\n        /* \"contracts/Actor/Consumer-smart-contract/inventory/ConsumerBuyerInventoryStorage.sol\":3080:3134  purchasedCheesePieces[walletConsumerBuyer][_id].weight */\n      0x03\n      add\n      sload\n        /* \"contracts/Actor/Consumer-smart-contract/inventory/ConsumerBuyerInventoryStorage.sol\":3073:3134  return purchasedCheesePieces[walletConsumerBuyer][_id].weight */\n      swap1\n      pop\n        /* \"contracts/Actor/Consumer-smart-contract/inventory/ConsumerBuyerInventoryStorage.sol\":2969:3142  function getWeight(address walletConsumerBuyer, uint256 _id) external view returns (uint256) {... */\n      swap3\n      swap2\n      pop\n      pop\n      jump\t// out\n        /* \"contracts/Actor/Consumer-smart-contract/inventory/ConsumerBuyerInventoryStorage.sol\":3628:3825  function getListCheesePieseIdPurchasedByConsumer(address walletConsumer)external view returns (uint256[] memory){... */\n    tag_40:\n        /* \"contracts/Actor/Consumer-smart-contract/inventory/ConsumerBuyerInventoryStorage.sol\":3723:3739  uint256[] memory */\n      0x60\n        /* \"contracts/Actor/Consumer-smart-contract/inventory/ConsumerBuyerInventoryStorage.sol\":3758:3801  purchasedCheesePieceListIdForSingleConsumer */\n      0x02\n        /* \"contracts/Actor/Consumer-smart-contract/inventory/ConsumerBuyerInventoryStorage.sol\":3758:3817  purchasedCheesePieceListIdForSingleConsumer[walletConsumer] */\n      0x00\n        /* \"contracts/Actor/Consumer-smart-contract/inventory/ConsumerBuyerInventoryStorage.sol\":3802:3816  walletConsumer */\n      dup4\n        /* \"contracts/Actor/Consumer-smart-contract/inventory/ConsumerBuyerInventoryStorage.sol\":3758:3817  purchasedCheesePieceListIdForSingleConsumer[walletConsumer] */\n      0xffffffffffffffffffffffffffffffffffffffff\n      and\n      0xffffffffffffffffffffffffffffffffffffffff\n      and\n      dup2\n      mstore\n      0x20\n      add\n      swap1\n      dup2\n      mstore\n      0x20\n      add\n      0x00\n      keccak256\n        /* \"contracts/Actor/Consumer-smart-contract/inventory/ConsumerBuyerInventoryStorage.sol\":3751:3817  return purchasedCheesePieceListIdForSingleConsumer[walletConsumer] */\n      dup1\n      sload\n      dup1\n      0x20\n      mul\n      0x20\n      add\n      mload(0x40)\n      swap1\n      dup2\n      add\n      0x40\n      mstore\n      dup1\n      swap3\n      swap2\n      swap1\n      dup2\n      dup2\n      mstore\n      0x20\n      add\n      dup3\n      dup1\n      sload\n      dup1\n      iszero\n      tag_62\n      jumpi\n      0x20\n      mul\n      dup3\n      add\n      swap2\n      swap1\n      0x00\n      mstore\n      keccak256(0x00, 0x20)\n      swap1\n    tag_63:\n      dup2\n      sload\n      dup2\n      mstore\n      0x20\n      add\n      swap1\n      0x01\n      add\n      swap1\n      dup1\n      dup4\n      gt\n      tag_63\n      jumpi\n    tag_62:\n      pop\n      pop\n      pop\n      pop\n      pop\n      swap1\n      pop\n        /* \"contracts/Actor/Consumer-smart-contract/inventory/ConsumerBuyerInventoryStorage.sol\":3628:3825  function getListCheesePieseIdPurchasedByConsumer(address walletConsumer)external view returns (uint256[] memory){... */\n      swap2\n      swap1\n      pop\n      jump\t// out\n        /* \"contracts/Actor/Consumer-smart-contract/inventory/ConsumerBuyerInventoryStorage.sol\":3329:3518  function getWalletRetailer(address walletConsumerBuyer, uint256 _id) external view returns (address) {... */\n    tag_45:\n        /* \"contracts/Actor/Consumer-smart-contract/inventory/ConsumerBuyerInventoryStorage.sol\":3421:3428  address */\n      0x00\n        /* \"contracts/Actor/Consumer-smart-contract/inventory/ConsumerBuyerInventoryStorage.sol\":3448:3469  purchasedCheesePieces */\n      0x01\n        /* \"contracts/Actor/Consumer-smart-contract/inventory/ConsumerBuyerInventoryStorage.sol\":3448:3490  purchasedCheesePieces[walletConsumerBuyer] */\n      0x00\n        /* \"contracts/Actor/Consumer-smart-contract/inventory/ConsumerBuyerInventoryStorage.sol\":3470:3489  walletConsumerBuyer */\n      dup5\n        /* \"contracts/Actor/Consumer-smart-contract/inventory/ConsumerBuyerInventoryStorage.sol\":3448:3490  purchasedCheesePieces[walletConsumerBuyer] */\n      0xffffffffffffffffffffffffffffffffffffffff\n      and\n      0xffffffffffffffffffffffffffffffffffffffff\n      and\n      dup2\n      mstore\n      0x20\n      add\n      swap1\n      dup2\n      mstore\n      0x20\n      add\n      0x00\n      keccak256\n        /* \"contracts/Actor/Consumer-smart-contract/inventory/ConsumerBuyerInventoryStorage.sol\":3448:3495  purchasedCheesePieces[walletConsumerBuyer][_id] */\n      0x00\n        /* \"contracts/Actor/Consumer-smart-contract/inventory/ConsumerBuyerInventoryStorage.sol\":3491:3494  _id */\n      dup4\n        /* \"contracts/Actor/Consumer-smart-contract/inventory/ConsumerBuyerInventoryStorage.sol\":3448:3495  purchasedCheesePieces[walletConsumerBuyer][_id] */\n      dup2\n      mstore\n      0x20\n      add\n      swap1\n      dup2\n      mstore\n      0x20\n      add\n      0x00\n      keccak256\n        /* \"contracts/Actor/Consumer-smart-contract/inventory/ConsumerBuyerInventoryStorage.sol\":3448:3510  purchasedCheesePieces[walletConsumerBuyer][_id].walletRetailer */\n      0x01\n      add\n      0x00\n      swap1\n      sload\n      swap1\n      0x0100\n      exp\n      swap1\n      div\n      0xffffffffffffffffffffffffffffffffffffffff\n      and\n        /* \"contracts/Actor/Consumer-smart-contract/inventory/ConsumerBuyerInventoryStorage.sol\":3441:3510  return purchasedCheesePieces[walletConsumerBuyer][_id].walletRetailer */\n      swap1\n      pop\n        /* \"contracts/Actor/Consumer-smart-contract/inventory/ConsumerBuyerInventoryStorage.sol\":3329:3518  function getWalletRetailer(address walletConsumerBuyer, uint256 _id) external view returns (address) {... */\n      swap3\n      swap2\n      pop\n      pop\n      jump\t// out\n        /* \"#utility.yul\":88:205   */\n    tag_66:\n        /* \"#utility.yul\":197:198   */\n      0x00\n        /* \"#utility.yul\":194:195   */\n      dup1\n        /* \"#utility.yul\":187:199   */\n      revert\n        /* \"#utility.yul\":334:460   */\n    tag_68:\n        /* \"#utility.yul\":371:378   */\n      0x00\n        /* \"#utility.yul\":411:453   */\n      0xffffffffffffffffffffffffffffffffffffffff\n        /* \"#utility.yul\":404:409   */\n      dup3\n        /* \"#utility.yul\":400:454   */\n      and\n        /* \"#utility.yul\":389:454   */\n      swap1\n      pop\n        /* \"#utility.yul\":334:460   */\n      swap2\n      swap1\n      pop\n      jump\t// out\n        /* \"#utility.yul\":466:562   */\n    tag_69:\n        /* \"#utility.yul\":503:510   */\n      0x00\n        /* \"#utility.yul\":532:556   */\n      tag_97\n        /* \"#utility.yul\":550:555   */\n      dup3\n        /* \"#utility.yul\":532:556   */\n      tag_68\n      jump\t// in\n    tag_97:\n        /* \"#utility.yul\":521:556   */\n      swap1\n      pop\n        /* \"#utility.yul\":466:562   */\n      swap2\n      swap1\n      pop\n      jump\t// out\n        /* \"#utility.yul\":568:690   */\n    tag_70:\n        /* \"#utility.yul\":641:665   */\n      tag_99\n        /* \"#utility.yul\":659:664   */\n      dup2\n        /* \"#utility.yul\":641:665   */\n      tag_69\n      jump\t// in\n    tag_99:\n        /* \"#utility.yul\":634:639   */\n      dup2\n        /* \"#utility.yul\":631:666   */\n      eq\n        /* \"#utility.yul\":621:684   */\n      tag_100\n      jumpi\n        /* \"#utility.yul\":680:681   */\n      0x00\n        /* \"#utility.yul\":677:678   */\n      dup1\n        /* \"#utility.yul\":670:682   */\n      revert\n        /* \"#utility.yul\":621:684   */\n    tag_100:\n        /* \"#utility.yul\":568:690   */\n      pop\n      jump\t// out\n        /* \"#utility.yul\":696:835   */\n    tag_71:\n        /* \"#utility.yul\":742:747   */\n      0x00\n        /* \"#utility.yul\":780:786   */\n      dup2\n        /* \"#utility.yul\":767:787   */\n      calldataload\n        /* \"#utility.yul\":758:787   */\n      swap1\n      pop\n        /* \"#utility.yul\":796:829   */\n      tag_102\n        /* \"#utility.yul\":823:828   */\n      dup2\n        /* \"#utility.yul\":796:829   */\n      tag_70\n      jump\t// in\n    tag_102:\n        /* \"#utility.yul\":696:835   */\n      swap3\n      swap2\n      pop\n      pop\n      jump\t// out\n        /* \"#utility.yul\":841:918   */\n    tag_72:\n        /* \"#utility.yul\":878:885   */\n      0x00\n        /* \"#utility.yul\":907:912   */\n      dup2\n        /* \"#utility.yul\":896:912   */\n      swap1\n      pop\n        /* \"#utility.yul\":841:918   */\n      swap2\n      swap1\n      pop\n      jump\t// out\n        /* \"#utility.yul\":924:1046   */\n    tag_73:\n        /* \"#utility.yul\":997:1021   */\n      tag_105\n        /* \"#utility.yul\":1015:1020   */\n      dup2\n        /* \"#utility.yul\":997:1021   */\n      tag_72\n      jump\t// in\n    tag_105:\n        /* \"#utility.yul\":990:995   */\n      dup2\n        /* \"#utility.yul\":987:1022   */\n      eq\n        /* \"#utility.yul\":977:1040   */\n      tag_106\n      jumpi\n        /* \"#utility.yul\":1036:1037   */\n      0x00\n        /* \"#utility.yul\":1033:1034   */\n      dup1\n        /* \"#utility.yul\":1026:1038   */\n      revert\n        /* \"#utility.yul\":977:1040   */\n    tag_106:\n        /* \"#utility.yul\":924:1046   */\n      pop\n      jump\t// out\n        /* \"#utility.yul\":1052:1191   */\n    tag_74:\n        /* \"#utility.yul\":1098:1103   */\n      0x00\n        /* \"#utility.yul\":1136:1142   */\n      dup2\n        /* \"#utility.yul\":1123:1143   */\n      calldataload\n        /* \"#utility.yul\":1114:1143   */\n      swap1\n      pop\n        /* \"#utility.yul\":1152:1185   */\n      tag_108\n        /* \"#utility.yul\":1179:1184   */\n      dup2\n        /* \"#utility.yul\":1152:1185   */\n      tag_73\n      jump\t// in\n    tag_108:\n        /* \"#utility.yul\":1052:1191   */\n      swap3\n      swap2\n      pop\n      pop\n      jump\t// out\n        /* \"#utility.yul\":1197:1671   */\n    tag_13:\n        /* \"#utility.yul\":1265:1271   */\n      0x00\n        /* \"#utility.yul\":1273:1279   */\n      dup1\n        /* \"#utility.yul\":1322:1324   */\n      0x40\n        /* \"#utility.yul\":1310:1319   */\n      dup4\n        /* \"#utility.yul\":1301:1308   */\n      dup6\n        /* \"#utility.yul\":1297:1320   */\n      sub\n        /* \"#utility.yul\":1293:1325   */\n      slt\n        /* \"#utility.yul\":1290:1409   */\n      iszero\n      tag_110\n      jumpi\n        /* \"#utility.yul\":1328:1407   */\n      tag_111\n      tag_66\n      jump\t// in\n    tag_111:\n        /* \"#utility.yul\":1290:1409   */\n    tag_110:\n        /* \"#utility.yul\":1448:1449   */\n      0x00\n        /* \"#utility.yul\":1473:1526   */\n      tag_112\n        /* \"#utility.yul\":1518:1525   */\n      dup6\n        /* \"#utility.yul\":1509:1515   */\n      dup3\n        /* \"#utility.yul\":1498:1507   */\n      dup7\n        /* \"#utility.yul\":1494:1516   */\n      add\n        /* \"#utility.yul\":1473:1526   */\n      tag_71\n      jump\t// in\n    tag_112:\n        /* \"#utility.yul\":1463:1526   */\n      swap3\n      pop\n        /* \"#utility.yul\":1419:1536   */\n      pop\n        /* \"#utility.yul\":1575:1577   */\n      0x20\n        /* \"#utility.yul\":1601:1654   */\n      tag_113\n        /* \"#utility.yul\":1646:1653   */\n      dup6\n        /* \"#utility.yul\":1637:1643   */\n      dup3\n        /* \"#utility.yul\":1626:1635   */\n      dup7\n        /* \"#utility.yul\":1622:1644   */\n      add\n        /* \"#utility.yul\":1601:1654   */\n      tag_74\n      jump\t// in\n    tag_113:\n        /* \"#utility.yul\":1591:1654   */\n      swap2\n      pop\n        /* \"#utility.yul\":1546:1664   */\n      pop\n        /* \"#utility.yul\":1197:1671   */\n      swap3\n      pop\n      swap3\n      swap1\n      pop\n      jump\t// out\n        /* \"#utility.yul\":1677:1795   */\n    tag_75:\n        /* \"#utility.yul\":1764:1788   */\n      tag_115\n        /* \"#utility.yul\":1782:1787   */\n      dup2\n        /* \"#utility.yul\":1764:1788   */\n      tag_72\n      jump\t// in\n    tag_115:\n        /* \"#utility.yul\":1759:1762   */\n      dup3\n        /* \"#utility.yul\":1752:1789   */\n      mstore\n        /* \"#utility.yul\":1677:1795   */\n      pop\n      pop\n      jump\t// out\n        /* \"#utility.yul\":1801:1919   */\n    tag_76:\n        /* \"#utility.yul\":1888:1912   */\n      tag_117\n        /* \"#utility.yul\":1906:1911   */\n      dup2\n        /* \"#utility.yul\":1888:1912   */\n      tag_69\n      jump\t// in\n    tag_117:\n        /* \"#utility.yul\":1883:1886   */\n      dup3\n        /* \"#utility.yul\":1876:1913   */\n      mstore\n        /* \"#utility.yul\":1801:1919   */\n      pop\n      pop\n      jump\t// out\n        /* \"#utility.yul\":1925:2478   */\n    tag_16:\n        /* \"#utility.yul\":2102:2106   */\n      0x00\n        /* \"#utility.yul\":2140:2143   */\n      0x80\n        /* \"#utility.yul\":2129:2138   */\n      dup3\n        /* \"#utility.yul\":2125:2144   */\n      add\n        /* \"#utility.yul\":2117:2144   */\n      swap1\n      pop\n        /* \"#utility.yul\":2154:2225   */\n      tag_119\n        /* \"#utility.yul\":2222:2223   */\n      0x00\n        /* \"#utility.yul\":2211:2220   */\n      dup4\n        /* \"#utility.yul\":2207:2224   */\n      add\n        /* \"#utility.yul\":2198:2204   */\n      dup8\n        /* \"#utility.yul\":2154:2225   */\n      tag_75\n      jump\t// in\n    tag_119:\n        /* \"#utility.yul\":2235:2307   */\n      tag_120\n        /* \"#utility.yul\":2303:2305   */\n      0x20\n        /* \"#utility.yul\":2292:2301   */\n      dup4\n        /* \"#utility.yul\":2288:2306   */\n      add\n        /* \"#utility.yul\":2279:2285   */\n      dup7\n        /* \"#utility.yul\":2235:2307   */\n      tag_76\n      jump\t// in\n    tag_120:\n        /* \"#utility.yul\":2317:2389   */\n      tag_121\n        /* \"#utility.yul\":2385:2387   */\n      0x40\n        /* \"#utility.yul\":2374:2383   */\n      dup4\n        /* \"#utility.yul\":2370:2388   */\n      add\n        /* \"#utility.yul\":2361:2367   */\n      dup6\n        /* \"#utility.yul\":2317:2389   */\n      tag_75\n      jump\t// in\n    tag_121:\n        /* \"#utility.yul\":2399:2471   */\n      tag_122\n        /* \"#utility.yul\":2467:2469   */\n      0x60\n        /* \"#utility.yul\":2456:2465   */\n      dup4\n        /* \"#utility.yul\":2452:2470   */\n      add\n        /* \"#utility.yul\":2443:2449   */\n      dup5\n        /* \"#utility.yul\":2399:2471   */\n      tag_75\n      jump\t// in\n    tag_122:\n        /* \"#utility.yul\":1925:2478   */\n      swap6\n      swap5\n      pop\n      pop\n      pop\n      pop\n      pop\n      jump\t// out\n        /* \"#utility.yul\":2484:3395   */\n    tag_19:\n        /* \"#utility.yul\":2579:2585   */\n      0x00\n        /* \"#utility.yul\":2587:2593   */\n      dup1\n        /* \"#utility.yul\":2595:2601   */\n      0x00\n        /* \"#utility.yul\":2603:2609   */\n      dup1\n        /* \"#utility.yul\":2611:2617   */\n      0x00\n        /* \"#utility.yul\":2660:2663   */\n      0xa0\n        /* \"#utility.yul\":2648:2657   */\n      dup7\n        /* \"#utility.yul\":2639:2646   */\n      dup9\n        /* \"#utility.yul\":2635:2658   */\n      sub\n        /* \"#utility.yul\":2631:2664   */\n      slt\n        /* \"#utility.yul\":2628:2748   */\n      iszero\n      tag_124\n      jumpi\n        /* \"#utility.yul\":2667:2746   */\n      tag_125\n      tag_66\n      jump\t// in\n    tag_125:\n        /* \"#utility.yul\":2628:2748   */\n    tag_124:\n        /* \"#utility.yul\":2787:2788   */\n      0x00\n        /* \"#utility.yul\":2812:2865   */\n      tag_126\n        /* \"#utility.yul\":2857:2864   */\n      dup9\n        /* \"#utility.yul\":2848:2854   */\n      dup3\n        /* \"#utility.yul\":2837:2846   */\n      dup10\n        /* \"#utility.yul\":2833:2855   */\n      add\n        /* \"#utility.yul\":2812:2865   */\n      tag_71\n      jump\t// in\n    tag_126:\n        /* \"#utility.yul\":2802:2865   */\n      swap6\n      pop\n        /* \"#utility.yul\":2758:2875   */\n      pop\n        /* \"#utility.yul\":2914:2916   */\n      0x20\n        /* \"#utility.yul\":2940:2993   */\n      tag_127\n        /* \"#utility.yul\":2985:2992   */\n      dup9\n        /* \"#utility.yul\":2976:2982   */\n      dup3\n        /* \"#utility.yul\":2965:2974   */\n      dup10\n        /* \"#utility.yul\":2961:2983   */\n      add\n        /* \"#utility.yul\":2940:2993   */\n      tag_71\n      jump\t// in\n    tag_127:\n        /* \"#utility.yul\":2930:2993   */\n      swap5\n      pop\n        /* \"#utility.yul\":2885:3003   */\n      pop\n        /* \"#utility.yul\":3042:3044   */\n      0x40\n        /* \"#utility.yul\":3068:3121   */\n      tag_128\n        /* \"#utility.yul\":3113:3120   */\n      dup9\n        /* \"#utility.yul\":3104:3110   */\n      dup3\n        /* \"#utility.yul\":3093:3102   */\n      dup10\n        /* \"#utility.yul\":3089:3111   */\n      add\n        /* \"#utility.yul\":3068:3121   */\n      tag_74\n      jump\t// in\n    tag_128:\n        /* \"#utility.yul\":3058:3121   */\n      swap4\n      pop\n        /* \"#utility.yul\":3013:3131   */\n      pop\n        /* \"#utility.yul\":3170:3172   */\n      0x60\n        /* \"#utility.yul\":3196:3249   */\n      tag_129\n        /* \"#utility.yul\":3241:3248   */\n      dup9\n        /* \"#utility.yul\":3232:3238   */\n      dup3\n        /* \"#utility.yul\":3221:3230   */\n      dup10\n        /* \"#utility.yul\":3217:3239   */\n      add\n        /* \"#utility.yul\":3196:3249   */\n      tag_74\n      jump\t// in\n    tag_129:\n        /* \"#utility.yul\":3186:3249   */\n      swap3\n      pop\n        /* \"#utility.yul\":3141:3259   */\n      pop\n        /* \"#utility.yul\":3298:3301   */\n      0x80\n        /* \"#utility.yul\":3325:3378   */\n      tag_130\n        /* \"#utility.yul\":3370:3377   */\n      dup9\n        /* \"#utility.yul\":3361:3367   */\n      dup3\n        /* \"#utility.yul\":3350:3359   */\n      dup10\n        /* \"#utility.yul\":3346:3368   */\n      add\n        /* \"#utility.yul\":3325:3378   */\n      tag_74\n      jump\t// in\n    tag_130:\n        /* \"#utility.yul\":3315:3378   */\n      swap2\n      pop\n        /* \"#utility.yul\":3269:3388   */\n      pop\n        /* \"#utility.yul\":2484:3395   */\n      swap3\n      swap6\n      pop\n      swap3\n      swap6\n      swap1\n      swap4\n      pop\n      jump\t// out\n        /* \"#utility.yul\":3401:3843   */\n    tag_22:\n        /* \"#utility.yul\":3550:3554   */\n      0x00\n        /* \"#utility.yul\":3588:3590   */\n      0x60\n        /* \"#utility.yul\":3577:3586   */\n      dup3\n        /* \"#utility.yul\":3573:3591   */\n      add\n        /* \"#utility.yul\":3565:3591   */\n      swap1\n      pop\n        /* \"#utility.yul\":3601:3672   */\n      tag_132\n        /* \"#utility.yul\":3669:3670   */\n      0x00\n        /* \"#utility.yul\":3658:3667   */\n      dup4\n        /* \"#utility.yul\":3654:3671   */\n      add\n        /* \"#utility.yul\":3645:3651   */\n      dup7\n        /* \"#utility.yul\":3601:3672   */\n      tag_75\n      jump\t// in\n    tag_132:\n        /* \"#utility.yul\":3682:3754   */\n      tag_133\n        /* \"#utility.yul\":3750:3752   */\n      0x20\n        /* \"#utility.yul\":3739:3748   */\n      dup4\n        /* \"#utility.yul\":3735:3753   */\n      add\n        /* \"#utility.yul\":3726:3732   */\n      dup6\n        /* \"#utility.yul\":3682:3754   */\n      tag_75\n      jump\t// in\n    tag_133:\n        /* \"#utility.yul\":3764:3836   */\n      tag_134\n        /* \"#utility.yul\":3832:3834   */\n      0x40\n        /* \"#utility.yul\":3821:3830   */\n      dup4\n        /* \"#utility.yul\":3817:3835   */\n      add\n        /* \"#utility.yul\":3808:3814   */\n      dup5\n        /* \"#utility.yul\":3764:3836   */\n      tag_75\n      jump\t// in\n    tag_134:\n        /* \"#utility.yul\":3401:3843   */\n      swap5\n      swap4\n      pop\n      pop\n      pop\n      pop\n      jump\t// out\n        /* \"#utility.yul\":3849:4071   */\n    tag_27:\n        /* \"#utility.yul\":3942:3946   */\n      0x00\n        /* \"#utility.yul\":3980:3982   */\n      0x20\n        /* \"#utility.yul\":3969:3978   */\n      dup3\n        /* \"#utility.yul\":3965:3983   */\n      add\n        /* \"#utility.yul\":3957:3983   */\n      swap1\n      pop\n        /* \"#utility.yul\":3993:4064   */\n      tag_136\n        /* \"#utility.yul\":4061:4062   */\n      0x00\n        /* \"#utility.yul\":4050:4059   */\n      dup4\n        /* \"#utility.yul\":4046:4063   */\n      add\n        /* \"#utility.yul\":4037:4043   */\n      dup5\n        /* \"#utility.yul\":3993:4064   */\n      tag_75\n      jump\t// in\n    tag_136:\n        /* \"#utility.yul\":3849:4071   */\n      swap3\n      swap2\n      pop\n      pop\n      jump\t// out\n        /* \"#utility.yul\":4077:4167   */\n    tag_77:\n        /* \"#utility.yul\":4111:4118   */\n      0x00\n        /* \"#utility.yul\":4154:4159   */\n      dup2\n        /* \"#utility.yul\":4147:4160   */\n      iszero\n        /* \"#utility.yul\":4140:4161   */\n      iszero\n        /* \"#utility.yul\":4129:4161   */\n      swap1\n      pop\n        /* \"#utility.yul\":4077:4167   */\n      swap2\n      swap1\n      pop\n      jump\t// out\n        /* \"#utility.yul\":4173:4282   */\n    tag_78:\n        /* \"#utility.yul\":4254:4275   */\n      tag_139\n        /* \"#utility.yul\":4269:4274   */\n      dup2\n        /* \"#utility.yul\":4254:4275   */\n      tag_77\n      jump\t// in\n    tag_139:\n        /* \"#utility.yul\":4249:4252   */\n      dup3\n        /* \"#utility.yul\":4242:4276   */\n      mstore\n        /* \"#utility.yul\":4173:4282   */\n      pop\n      pop\n      jump\t// out\n        /* \"#utility.yul\":4288:4498   */\n    tag_32:\n        /* \"#utility.yul\":4375:4379   */\n      0x00\n        /* \"#utility.yul\":4413:4415   */\n      0x20\n        /* \"#utility.yul\":4402:4411   */\n      dup3\n        /* \"#utility.yul\":4398:4416   */\n      add\n        /* \"#utility.yul\":4390:4416   */\n      swap1\n      pop\n        /* \"#utility.yul\":4426:4491   */\n      tag_141\n        /* \"#utility.yul\":4488:4489   */\n      0x00\n        /* \"#utility.yul\":4477:4486   */\n      dup4\n        /* \"#utility.yul\":4473:4490   */\n      add\n        /* \"#utility.yul\":4464:4470   */\n      dup5\n        /* \"#utility.yul\":4426:4491   */\n      tag_78\n      jump\t// in\n    tag_141:\n        /* \"#utility.yul\":4288:4498   */\n      swap3\n      swap2\n      pop\n      pop\n      jump\t// out\n        /* \"#utility.yul\":4504:4833   */\n    tag_39:\n        /* \"#utility.yul\":4563:4569   */\n      0x00\n        /* \"#utility.yul\":4612:4614   */\n      0x20\n        /* \"#utility.yul\":4600:4609   */\n      dup3\n        /* \"#utility.yul\":4591:4598   */\n      dup5\n        /* \"#utility.yul\":4587:4610   */\n      sub\n        /* \"#utility.yul\":4583:4615   */\n      slt\n        /* \"#utility.yul\":4580:4699   */\n      iszero\n      tag_143\n      jumpi\n        /* \"#utility.yul\":4618:4697   */\n      tag_144\n      tag_66\n      jump\t// in\n    tag_144:\n        /* \"#utility.yul\":4580:4699   */\n    tag_143:\n        /* \"#utility.yul\":4738:4739   */\n      0x00\n        /* \"#utility.yul\":4763:4816   */\n      tag_145\n        /* \"#utility.yul\":4808:4815   */\n      dup5\n        /* \"#utility.yul\":4799:4805   */\n      dup3\n        /* \"#utility.yul\":4788:4797   */\n      dup6\n        /* \"#utility.yul\":4784:4806   */\n      add\n        /* \"#utility.yul\":4763:4816   */\n      tag_71\n      jump\t// in\n    tag_145:\n        /* \"#utility.yul\":4753:4816   */\n      swap2\n      pop\n        /* \"#utility.yul\":4709:4826   */\n      pop\n        /* \"#utility.yul\":4504:4833   */\n      swap3\n      swap2\n      pop\n      pop\n      jump\t// out\n        /* \"#utility.yul\":4839:4953   */\n    tag_79:\n        /* \"#utility.yul\":4906:4912   */\n      0x00\n        /* \"#utility.yul\":4940:4945   */\n      dup2\n        /* \"#utility.yul\":4934:4946   */\n      mload\n        /* \"#utility.yul\":4924:4946   */\n      swap1\n      pop\n        /* \"#utility.yul\":4839:4953   */\n      swap2\n      swap1\n      pop\n      jump\t// out\n        /* \"#utility.yul\":4959:5143   */\n    tag_80:\n        /* \"#utility.yul\":5058:5069   */\n      0x00\n        /* \"#utility.yul\":5092:5098   */\n      dup3\n        /* \"#utility.yul\":5087:5090   */\n      dup3\n        /* \"#utility.yul\":5080:5099   */\n      mstore\n        /* \"#utility.yul\":5132:5136   */\n      0x20\n        /* \"#utility.yul\":5127:5130   */\n      dup3\n        /* \"#utility.yul\":5123:5137   */\n      add\n        /* \"#utility.yul\":5108:5137   */\n      swap1\n      pop\n        /* \"#utility.yul\":4959:5143   */\n      swap3\n      swap2\n      pop\n      pop\n      jump\t// out\n        /* \"#utility.yul\":5149:5281   */\n    tag_81:\n        /* \"#utility.yul\":5216:5220   */\n      0x00\n        /* \"#utility.yul\":5239:5242   */\n      dup2\n        /* \"#utility.yul\":5231:5242   */\n      swap1\n      pop\n        /* \"#utility.yul\":5269:5273   */\n      0x20\n        /* \"#utility.yul\":5264:5267   */\n      dup3\n        /* \"#utility.yul\":5260:5274   */\n      add\n        /* \"#utility.yul\":5252:5274   */\n      swap1\n      pop\n        /* \"#utility.yul\":5149:5281   */\n      swap2\n      swap1\n      pop\n      jump\t// out\n        /* \"#utility.yul\":5287:5395   */\n    tag_82:\n        /* \"#utility.yul\":5364:5388   */\n      tag_150\n        /* \"#utility.yul\":5382:5387   */\n      dup2\n        /* \"#utility.yul\":5364:5388   */\n      tag_72\n      jump\t// in\n    tag_150:\n        /* \"#utility.yul\":5359:5362   */\n      dup3\n        /* \"#utility.yul\":5352:5389   */\n      mstore\n        /* \"#utility.yul\":5287:5395   */\n      pop\n      pop\n      jump\t// out\n        /* \"#utility.yul\":5401:5580   */\n    tag_83:\n        /* \"#utility.yul\":5470:5480   */\n      0x00\n        /* \"#utility.yul\":5491:5537   */\n      tag_152\n        /* \"#utility.yul\":5533:5536   */\n      dup4\n        /* \"#utility.yul\":5525:5531   */\n      dup4\n        /* \"#utility.yul\":5491:5537   */\n      tag_82\n      jump\t// in\n    tag_152:\n        /* \"#utility.yul\":5569:5573   */\n      0x20\n        /* \"#utility.yul\":5564:5567   */\n      dup4\n        /* \"#utility.yul\":5560:5574   */\n      add\n        /* \"#utility.yul\":5546:5574   */\n      swap1\n      pop\n        /* \"#utility.yul\":5401:5580   */\n      swap3\n      swap2\n      pop\n      pop\n      jump\t// out\n        /* \"#utility.yul\":5586:5699   */\n    tag_84:\n        /* \"#utility.yul\":5656:5660   */\n      0x00\n        /* \"#utility.yul\":5688:5692   */\n      0x20\n        /* \"#utility.yul\":5683:5686   */\n      dup3\n        /* \"#utility.yul\":5679:5693   */\n      add\n        /* \"#utility.yul\":5671:5693   */\n      swap1\n      pop\n        /* \"#utility.yul\":5586:5699   */\n      swap2\n      swap1\n      pop\n      jump\t// out\n        /* \"#utility.yul\":5735:6467   */\n    tag_85:\n        /* \"#utility.yul\":5854:5857   */\n      0x00\n        /* \"#utility.yul\":5883:5937   */\n      tag_155\n        /* \"#utility.yul\":5931:5936   */\n      dup3\n        /* \"#utility.yul\":5883:5937   */\n      tag_79\n      jump\t// in\n    tag_155:\n        /* \"#utility.yul\":5953:6039   */\n      tag_156\n        /* \"#utility.yul\":6032:6038   */\n      dup2\n        /* \"#utility.yul\":6027:6030   */\n      dup6\n        /* \"#utility.yul\":5953:6039   */\n      tag_80\n      jump\t// in\n    tag_156:\n        /* \"#utility.yul\":5946:6039   */\n      swap4\n      pop\n        /* \"#utility.yul\":6063:6119   */\n      tag_157\n        /* \"#utility.yul\":6113:6118   */\n      dup4\n        /* \"#utility.yul\":6063:6119   */\n      tag_81\n      jump\t// in\n    tag_157:\n        /* \"#utility.yul\":6142:6149   */\n      dup1\n        /* \"#utility.yul\":6173:6174   */\n      0x00\n        /* \"#utility.yul\":6158:6442   */\n    tag_158:\n        /* \"#utility.yul\":6183:6189   */\n      dup4\n        /* \"#utility.yul\":6180:6181   */\n      dup2\n        /* \"#utility.yul\":6177:6190   */\n      lt\n        /* \"#utility.yul\":6158:6442   */\n      iszero\n      tag_160\n      jumpi\n        /* \"#utility.yul\":6259:6265   */\n      dup2\n        /* \"#utility.yul\":6253:6266   */\n      mload\n        /* \"#utility.yul\":6286:6349   */\n      tag_161\n        /* \"#utility.yul\":6345:6348   */\n      dup9\n        /* \"#utility.yul\":6330:6343   */\n      dup3\n        /* \"#utility.yul\":6286:6349   */\n      tag_83\n      jump\t// in\n    tag_161:\n        /* \"#utility.yul\":6279:6349   */\n      swap8\n      pop\n        /* \"#utility.yul\":6372:6432   */\n      tag_162\n        /* \"#utility.yul\":6425:6431   */\n      dup4\n        /* \"#utility.yul\":6372:6432   */\n      tag_84\n      jump\t// in\n    tag_162:\n        /* \"#utility.yul\":6362:6432   */\n      swap3\n      pop\n        /* \"#utility.yul\":6218:6442   */\n      pop\n        /* \"#utility.yul\":6205:6206   */\n      0x01\n        /* \"#utility.yul\":6202:6203   */\n      dup2\n        /* \"#utility.yul\":6198:6207   */\n      add\n        /* \"#utility.yul\":6193:6207   */\n      swap1\n      pop\n        /* \"#utility.yul\":6158:6442   */\n      jump(tag_158)\n    tag_160:\n        /* \"#utility.yul\":6162:6176   */\n      pop\n        /* \"#utility.yul\":6458:6461   */\n      dup6\n        /* \"#utility.yul\":6451:6461   */\n      swap4\n      pop\n        /* \"#utility.yul\":5859:6467   */\n      pop\n      pop\n      pop\n        /* \"#utility.yul\":5735:6467   */\n      swap3\n      swap2\n      pop\n      pop\n      jump\t// out\n        /* \"#utility.yul\":6473:6846   */\n    tag_42:\n        /* \"#utility.yul\":6616:6620   */\n      0x00\n        /* \"#utility.yul\":6654:6656   */\n      0x20\n        /* \"#utility.yul\":6643:6652   */\n      dup3\n        /* \"#utility.yul\":6639:6657   */\n      add\n        /* \"#utility.yul\":6631:6657   */\n      swap1\n      pop\n        /* \"#utility.yul\":6703:6712   */\n      dup2\n        /* \"#utility.yul\":6697:6701   */\n      dup2\n        /* \"#utility.yul\":6693:6713   */\n      sub\n        /* \"#utility.yul\":6689:6690   */\n      0x00\n        /* \"#utility.yul\":6678:6687   */\n      dup4\n        /* \"#utility.yul\":6674:6691   */\n      add\n        /* \"#utility.yul\":6667:6714   */\n      mstore\n        /* \"#utility.yul\":6731:6839   */\n      tag_164\n        /* \"#utility.yul\":6834:6838   */\n      dup2\n        /* \"#utility.yul\":6825:6831   */\n      dup5\n        /* \"#utility.yul\":6731:6839   */\n      tag_85\n      jump\t// in\n    tag_164:\n        /* \"#utility.yul\":6723:6839   */\n      swap1\n      pop\n        /* \"#utility.yul\":6473:6846   */\n      swap3\n      swap2\n      pop\n      pop\n      jump\t// out\n        /* \"#utility.yul\":6852:7074   */\n    tag_47:\n        /* \"#utility.yul\":6945:6949   */\n      0x00\n        /* \"#utility.yul\":6983:6985   */\n      0x20\n        /* \"#utility.yul\":6972:6981   */\n      dup3\n        /* \"#utility.yul\":6968:6986   */\n      add\n        /* \"#utility.yul\":6960:6986   */\n      swap1\n      pop\n        /* \"#utility.yul\":6996:7067   */\n      tag_166\n        /* \"#utility.yul\":7064:7065   */\n      0x00\n        /* \"#utility.yul\":7053:7062   */\n      dup4\n        /* \"#utility.yul\":7049:7066   */\n      add\n        /* \"#utility.yul\":7040:7046   */\n      dup5\n        /* \"#utility.yul\":6996:7067   */\n      tag_76\n      jump\t// in\n    tag_166:\n        /* \"#utility.yul\":6852:7074   */\n      swap3\n      swap2\n      pop\n      pop\n      jump\t// out\n        /* \"#utility.yul\":7080:7249   */\n    tag_86:\n        /* \"#utility.yul\":7164:7175   */\n      0x00\n        /* \"#utility.yul\":7198:7204   */\n      dup3\n        /* \"#utility.yul\":7193:7196   */\n      dup3\n        /* \"#utility.yul\":7186:7205   */\n      mstore\n        /* \"#utility.yul\":7238:7242   */\n      0x20\n        /* \"#utility.yul\":7233:7236   */\n      dup3\n        /* \"#utility.yul\":7229:7243   */\n      add\n        /* \"#utility.yul\":7214:7243   */\n      swap1\n      pop\n        /* \"#utility.yul\":7080:7249   */\n      swap3\n      swap2\n      pop\n      pop\n      jump\t// out\n        /* \"#utility.yul\":7255:7431   */\n    tag_87:\n        /* \"#utility.yul\":7395:7423   */\n      0x436865657365506965636520676961272070726573656e746521000000000000\n        /* \"#utility.yul\":7391:7392   */\n      0x00\n        /* \"#utility.yul\":7383:7389   */\n      dup3\n        /* \"#utility.yul\":7379:7393   */\n      add\n        /* \"#utility.yul\":7372:7424   */\n      mstore\n        /* \"#utility.yul\":7255:7431   */\n      pop\n      jump\t// out\n        /* \"#utility.yul\":7437:7803   */\n    tag_88:\n        /* \"#utility.yul\":7579:7582   */\n      0x00\n        /* \"#utility.yul\":7600:7667   */\n      tag_170\n        /* \"#utility.yul\":7664:7666   */\n      0x1a\n        /* \"#utility.yul\":7659:7662   */\n      dup4\n        /* \"#utility.yul\":7600:7667   */\n      tag_86\n      jump\t// in\n    tag_170:\n        /* \"#utility.yul\":7593:7667   */\n      swap2\n      pop\n        /* \"#utility.yul\":7676:7769   */\n      tag_171\n        /* \"#utility.yul\":7765:7768   */\n      dup3\n        /* \"#utility.yul\":7676:7769   */\n      tag_87\n      jump\t// in\n    tag_171:\n        /* \"#utility.yul\":7794:7796   */\n      0x20\n        /* \"#utility.yul\":7789:7792   */\n      dup3\n        /* \"#utility.yul\":7785:7797   */\n      add\n        /* \"#utility.yul\":7778:7797   */\n      swap1\n      pop\n        /* \"#utility.yul\":7437:7803   */\n      swap2\n      swap1\n      pop\n      jump\t// out\n        /* \"#utility.yul\":7809:8228   */\n    tag_52:\n        /* \"#utility.yul\":7975:7979   */\n      0x00\n        /* \"#utility.yul\":8013:8015   */\n      0x20\n        /* \"#utility.yul\":8002:8011   */\n      dup3\n        /* \"#utility.yul\":7998:8016   */\n      add\n        /* \"#utility.yul\":7990:8016   */\n      swap1\n      pop\n        /* \"#utility.yul\":8062:8071   */\n      dup2\n        /* \"#utility.yul\":8056:8060   */\n      dup2\n        /* \"#utility.yul\":8052:8072   */\n      sub\n        /* \"#utility.yul\":8048:8049   */\n      0x00\n        /* \"#utility.yul\":8037:8046   */\n      dup4\n        /* \"#utility.yul\":8033:8050   */\n      add\n        /* \"#utility.yul\":8026:8073   */\n      mstore\n        /* \"#utility.yul\":8090:8221   */\n      tag_173\n        /* \"#utility.yul\":8216:8220   */\n      dup2\n        /* \"#utility.yul\":8090:8221   */\n      tag_88\n      jump\t// in\n    tag_173:\n        /* \"#utility.yul\":8082:8221   */\n      swap1\n      pop\n        /* \"#utility.yul\":7809:8228   */\n      swap2\n      swap1\n      pop\n      jump\t// out\n        /* \"#utility.yul\":8234:8409   */\n    tag_89:\n        /* \"#utility.yul\":8374:8401   */\n      0x4944204368656573655069656365204e6f742056616c69642100000000000000\n        /* \"#utility.yul\":8370:8371   */\n      0x00\n        /* \"#utility.yul\":8362:8368   */\n      dup3\n        /* \"#utility.yul\":8358:8372   */\n      add\n        /* \"#utility.yul\":8351:8402   */\n      mstore\n        /* \"#utility.yul\":8234:8409   */\n      pop\n      jump\t// out\n        /* \"#utility.yul\":8415:8781   */\n    tag_90:\n        /* \"#utility.yul\":8557:8560   */\n      0x00\n        /* \"#utility.yul\":8578:8645   */\n      tag_176\n        /* \"#utility.yul\":8642:8644   */\n      0x19\n        /* \"#utility.yul\":8637:8640   */\n      dup4\n        /* \"#utility.yul\":8578:8645   */\n      tag_86\n      jump\t// in\n    tag_176:\n        /* \"#utility.yul\":8571:8645   */\n      swap2\n      pop\n        /* \"#utility.yul\":8654:8747   */\n      tag_177\n        /* \"#utility.yul\":8743:8746   */\n      dup3\n        /* \"#utility.yul\":8654:8747   */\n      tag_89\n      jump\t// in\n    tag_177:\n        /* \"#utility.yul\":8772:8774   */\n      0x20\n        /* \"#utility.yul\":8767:8770   */\n      dup3\n        /* \"#utility.yul\":8763:8775   */\n      add\n        /* \"#utility.yul\":8756:8775   */\n      swap1\n      pop\n        /* \"#utility.yul\":8415:8781   */\n      swap2\n      swap1\n      pop\n      jump\t// out\n        /* \"#utility.yul\":8787:9206   */\n    tag_59:\n        /* \"#utility.yul\":8953:8957   */\n      0x00\n        /* \"#utility.yul\":8991:8993   */\n      0x20\n        /* \"#utility.yul\":8980:8989   */\n      dup3\n        /* \"#utility.yul\":8976:8994   */\n      add\n        /* \"#utility.yul\":8968:8994   */\n      swap1\n      pop\n        /* \"#utility.yul\":9040:9049   */\n      dup2\n        /* \"#utility.yul\":9034:9038   */\n      dup2\n        /* \"#utility.yul\":9030:9050   */\n      sub\n        /* \"#utility.yul\":9026:9027   */\n      0x00\n        /* \"#utility.yul\":9015:9024   */\n      dup4\n        /* \"#utility.yul\":9011:9028   */\n      add\n        /* \"#utility.yul\":9004:9051   */\n      mstore\n        /* \"#utility.yul\":9068:9199   */\n      tag_179\n        /* \"#utility.yul\":9194:9198   */\n      dup2\n        /* \"#utility.yul\":9068:9199   */\n      tag_90\n      jump\t// in\n    tag_179:\n        /* \"#utility.yul\":9060:9199   */\n      swap1\n      pop\n        /* \"#utility.yul\":8787:9206   */\n      swap2\n      swap1\n      pop\n      jump\t// out\n\n    auxdata: 0xa2646970667358221220b2be07acf3ef312cca04976a9f6a9398527e8ead7598ec1f9802700ee274656b64736f6c63430008160033\n}\n",
				"bytecode": {
					"linkReferences": {},
					"object": "608060405234801561000f575f80fd5b50335f806101000a81548173ffffffffffffffffffffffffffffffffffffffff021916908373ffffffffffffffffffffffffffffffffffffffff160217905550610c6e8061005c5f395ff3fe608060405234801561000f575f80fd5b506004361061007b575f3560e01c80639bc7c21c116100595780639bc7c21c14610114578063afd47d3e14610144578063cb76a11f14610174578063d7f9aee5146101a45761007b565b80630b7aa4731461007f578063210744cf146100b2578063449e815d146100e4575b5f80fd5b610099600480360381019061009491906108a6565b6101d4565b6040516100a99493929190610902565b60405180910390f35b6100cc60048036038101906100c79190610945565b6102c9565b6040516100db939291906109bc565b60405180910390f35b6100fe60048036038101906100f991906108a6565b6105af565b60405161010b91906109f1565b60405180910390f35b61012e600480360381019061012991906108a6565b610608565b60405161013b9190610a24565b60405180910390f35b61015e600480360381019061015991906108a6565b6106b1565b60405161016b91906109f1565b60405180910390f35b61018e60048036038101906101899190610a3d565b61070a565b60405161019b9190610b1f565b60405180910390f35b6101be60048036038101906101b991906108a6565b61079d565b6040516101cb9190610b3f565b60405180910390f35b5f805f805f60015f8873ffffffffffffffffffffffffffffffffffffffff1673ffffffffffffffffffffffffffffffffffffffff1681526020019081526020015f205f8781526020019081526020015f206040518060800160405290815f8201548152602001600182015f9054906101000a900473ffffffffffffffffffffffffffffffffffffffff1673ffffffffffffffffffffffffffffffffffffffff1673ffffffffffffffffffffffffffffffffffffffff168152602001600282015481526020016003820154815250509050805f015181602001518260400151836060015194509450945094505092959194509250565b5f805f8060015f8a73ffffffffffffffffffffffffffffffffffffffff1673ffffffffffffffffffffffffffffffffffffffff1681526020019081526020015f205f8881526020019081526020015f2090505f815f015414610360576040517f08c379a000000000000000000000000000000000000000000000000000000000815260040161035790610bb2565b60405180910390fd5b5f60405180608001604052808981526020018a73ffffffffffffffffffffffffffffffffffffffff1681526020018881526020018781525090508060015f8c73ffffffffffffffffffffffffffffffffffffffff1673ffffffffffffffffffffffffffffffffffffffff1681526020019081526020015f205f8a81526020019081526020015f205f820151815f01556020820151816001015f6101000a81548173ffffffffffffffffffffffffffffffffffffffff021916908373ffffffffffffffffffffffffffffffffffffffff160217905550604082015181600201556060820151816003015590505060025f8b73ffffffffffffffffffffffffffffffffffffffff1673ffffffffffffffffffffffffffffffffffffffff1681526020019081526020015f2088908060018154018082558091505060019003905f5260205f20015f909190919091505560015f8b73ffffffffffffffffffffffffffffffffffffffff1673ffffffffffffffffffffffffffffffffffffffff1681526020019081526020015f205f8981526020019081526020015f205f015460015f8c73ffffffffffffffffffffffffffffffffffffffff1673ffffffffffffffffffffffffffffffffffffffff1681526020019081526020015f205f8a81526020019081526020015f206002015460015f8d73ffffffffffffffffffffffffffffffffffffffff1673ffffffffffffffffffffffffffffffffffffffff1681526020019081526020015f205f8b81526020019081526020015f20600301549450945094505050955095509592505050565b5f60015f8473ffffffffffffffffffffffffffffffffffffffff1673ffffffffffffffffffffffffffffffffffffffff1681526020019081526020015f205f8381526020019081526020015f2060020154905092915050565b5f80821415801561061857505f82115b610657576040517f08c379a000000000000000000000000000000000000000000000000000000000815260040161064e90610c1a565b60405180910390fd5b5f60015f8573ffffffffffffffffffffffffffffffffffffffff1673ffffffffffffffffffffffffffffffffffffffff1681526020019081526020015f205f8481526020019081526020015f205f01541415905092915050565b5f60015f8473ffffffffffffffffffffffffffffffffffffffff1673ffffffffffffffffffffffffffffffffffffffff1681526020019081526020015f205f8381526020019081526020015f2060030154905092915050565b606060025f8373ffffffffffffffffffffffffffffffffffffffff1673ffffffffffffffffffffffffffffffffffffffff1681526020019081526020015f2080548060200260200160405190810160405280929190818152602001828054801561079157602002820191905f5260205f20905b81548152602001906001019080831161077d575b50505050509050919050565b5f60015f8473ffffffffffffffffffffffffffffffffffffffff1673ffffffffffffffffffffffffffffffffffffffff1681526020019081526020015f205f8381526020019081526020015f206001015f9054906101000a900473ffffffffffffffffffffffffffffffffffffffff16905092915050565b5f80fd5b5f73ffffffffffffffffffffffffffffffffffffffff82169050919050565b5f61084282610819565b9050919050565b61085281610838565b811461085c575f80fd5b50565b5f8135905061086d81610849565b92915050565b5f819050919050565b61088581610873565b811461088f575f80fd5b50565b5f813590506108a08161087c565b92915050565b5f80604083850312156108bc576108bb610815565b5b5f6108c98582860161085f565b92505060206108da85828601610892565b9150509250929050565b6108ed81610873565b82525050565b6108fc81610838565b82525050565b5f6080820190506109155f8301876108e4565b61092260208301866108f3565b61092f60408301856108e4565b61093c60608301846108e4565b95945050505050565b5f805f805f60a0868803121561095e5761095d610815565b5b5f61096b8882890161085f565b955050602061097c8882890161085f565b945050604061098d88828901610892565b935050606061099e88828901610892565b92505060806109af88828901610892565b9150509295509295909350565b5f6060820190506109cf5f8301866108e4565b6109dc60208301856108e4565b6109e960408301846108e4565b949350505050565b5f602082019050610a045f8301846108e4565b92915050565b5f8115159050919050565b610a1e81610a0a565b82525050565b5f602082019050610a375f830184610a15565b92915050565b5f60208284031215610a5257610a51610815565b5b5f610a5f8482850161085f565b91505092915050565b5f81519050919050565b5f82825260208201905092915050565b5f819050602082019050919050565b610a9a81610873565b82525050565b5f610aab8383610a91565b60208301905092915050565b5f602082019050919050565b5f610acd82610a68565b610ad78185610a72565b9350610ae283610a82565b805f5b83811015610b12578151610af98882610aa0565b9750610b0483610ab7565b925050600181019050610ae5565b5085935050505092915050565b5f6020820190508181035f830152610b378184610ac3565b905092915050565b5f602082019050610b525f8301846108f3565b92915050565b5f82825260208201905092915050565b7f436865657365506965636520676961272070726573656e7465210000000000005f82015250565b5f610b9c601a83610b58565b9150610ba782610b68565b602082019050919050565b5f6020820190508181035f830152610bc981610b90565b9050919050565b7f4944204368656573655069656365204e6f742056616c696421000000000000005f82015250565b5f610c04601983610b58565b9150610c0f82610bd0565b602082019050919050565b5f6020820190508181035f830152610c3181610bf8565b905091905056fea2646970667358221220b2be07acf3ef312cca04976a9f6a9398527e8ead7598ec1f9802700ee274656b64736f6c63430008160033",
					"opcodes": "PUSH1 0x80 PUSH1 0x40 MSTORE CALLVALUE DUP1 ISZERO PUSH2 0xF JUMPI PUSH0 DUP1 REVERT JUMPDEST POP CALLER PUSH0 DUP1 PUSH2 0x100 EXP DUP2 SLOAD DUP2 PUSH20 0xFFFFFFFFFFFFFFFFFFFFFFFFFFFFFFFFFFFFFFFF MUL NOT AND SWAP1 DUP4 PUSH20 0xFFFFFFFFFFFFFFFFFFFFFFFFFFFFFFFFFFFFFFFF AND MUL OR SWAP1 SSTORE POP PUSH2 0xC6E DUP1 PUSH2 0x5C PUSH0 CODECOPY PUSH0 RETURN INVALID PUSH1 0x80 PUSH1 0x40 MSTORE CALLVALUE DUP1 ISZERO PUSH2 0xF JUMPI PUSH0 DUP1 REVERT JUMPDEST POP PUSH1 0x4 CALLDATASIZE LT PUSH2 0x7B JUMPI PUSH0 CALLDATALOAD PUSH1 0xE0 SHR DUP1 PUSH4 0x9BC7C21C GT PUSH2 0x59 JUMPI DUP1 PUSH4 0x9BC7C21C EQ PUSH2 0x114 JUMPI DUP1 PUSH4 0xAFD47D3E EQ PUSH2 0x144 JUMPI DUP1 PUSH4 0xCB76A11F EQ PUSH2 0x174 JUMPI DUP1 PUSH4 0xD7F9AEE5 EQ PUSH2 0x1A4 JUMPI PUSH2 0x7B JUMP JUMPDEST DUP1 PUSH4 0xB7AA473 EQ PUSH2 0x7F JUMPI DUP1 PUSH4 0x210744CF EQ PUSH2 0xB2 JUMPI DUP1 PUSH4 0x449E815D EQ PUSH2 0xE4 JUMPI JUMPDEST PUSH0 DUP1 REVERT JUMPDEST PUSH2 0x99 PUSH1 0x4 DUP1 CALLDATASIZE SUB DUP2 ADD SWAP1 PUSH2 0x94 SWAP2 SWAP1 PUSH2 0x8A6 JUMP JUMPDEST PUSH2 0x1D4 JUMP JUMPDEST PUSH1 0x40 MLOAD PUSH2 0xA9 SWAP5 SWAP4 SWAP3 SWAP2 SWAP1 PUSH2 0x902 JUMP JUMPDEST PUSH1 0x40 MLOAD DUP1 SWAP2 SUB SWAP1 RETURN JUMPDEST PUSH2 0xCC PUSH1 0x4 DUP1 CALLDATASIZE SUB DUP2 ADD SWAP1 PUSH2 0xC7 SWAP2 SWAP1 PUSH2 0x945 JUMP JUMPDEST PUSH2 0x2C9 JUMP JUMPDEST PUSH1 0x40 MLOAD PUSH2 0xDB SWAP4 SWAP3 SWAP2 SWAP1 PUSH2 0x9BC JUMP JUMPDEST PUSH1 0x40 MLOAD DUP1 SWAP2 SUB SWAP1 RETURN JUMPDEST PUSH2 0xFE PUSH1 0x4 DUP1 CALLDATASIZE SUB DUP2 ADD SWAP1 PUSH2 0xF9 SWAP2 SWAP1 PUSH2 0x8A6 JUMP JUMPDEST PUSH2 0x5AF JUMP JUMPDEST PUSH1 0x40 MLOAD PUSH2 0x10B SWAP2 SWAP1 PUSH2 0x9F1 JUMP JUMPDEST PUSH1 0x40 MLOAD DUP1 SWAP2 SUB SWAP1 RETURN JUMPDEST PUSH2 0x12E PUSH1 0x4 DUP1 CALLDATASIZE SUB DUP2 ADD SWAP1 PUSH2 0x129 SWAP2 SWAP1 PUSH2 0x8A6 JUMP JUMPDEST PUSH2 0x608 JUMP JUMPDEST PUSH1 0x40 MLOAD PUSH2 0x13B SWAP2 SWAP1 PUSH2 0xA24 JUMP JUMPDEST PUSH1 0x40 MLOAD DUP1 SWAP2 SUB SWAP1 RETURN JUMPDEST PUSH2 0x15E PUSH1 0x4 DUP1 CALLDATASIZE SUB DUP2 ADD SWAP1 PUSH2 0x159 SWAP2 SWAP1 PUSH2 0x8A6 JUMP JUMPDEST PUSH2 0x6B1 JUMP JUMPDEST PUSH1 0x40 MLOAD PUSH2 0x16B SWAP2 SWAP1 PUSH2 0x9F1 JUMP JUMPDEST PUSH1 0x40 MLOAD DUP1 SWAP2 SUB SWAP1 RETURN JUMPDEST PUSH2 0x18E PUSH1 0x4 DUP1 CALLDATASIZE SUB DUP2 ADD SWAP1 PUSH2 0x189 SWAP2 SWAP1 PUSH2 0xA3D JUMP JUMPDEST PUSH2 0x70A JUMP JUMPDEST PUSH1 0x40 MLOAD PUSH2 0x19B SWAP2 SWAP1 PUSH2 0xB1F JUMP JUMPDEST PUSH1 0x40 MLOAD DUP1 SWAP2 SUB SWAP1 RETURN JUMPDEST PUSH2 0x1BE PUSH1 0x4 DUP1 CALLDATASIZE SUB DUP2 ADD SWAP1 PUSH2 0x1B9 SWAP2 SWAP1 PUSH2 0x8A6 JUMP JUMPDEST PUSH2 0x79D JUMP JUMPDEST PUSH1 0x40 MLOAD PUSH2 0x1CB SWAP2 SWAP1 PUSH2 0xB3F JUMP JUMPDEST PUSH1 0x40 MLOAD DUP1 SWAP2 SUB SWAP1 RETURN JUMPDEST PUSH0 DUP1 PUSH0 DUP1 PUSH0 PUSH1 0x1 PUSH0 DUP9 PUSH20 0xFFFFFFFFFFFFFFFFFFFFFFFFFFFFFFFFFFFFFFFF AND PUSH20 0xFFFFFFFFFFFFFFFFFFFFFFFFFFFFFFFFFFFFFFFF AND DUP2 MSTORE PUSH1 0x20 ADD SWAP1 DUP2 MSTORE PUSH1 0x20 ADD PUSH0 KECCAK256 PUSH0 DUP8 DUP2 MSTORE PUSH1 0x20 ADD SWAP1 DUP2 MSTORE PUSH1 0x20 ADD PUSH0 KECCAK256 PUSH1 0x40 MLOAD DUP1 PUSH1 0x80 ADD PUSH1 0x40 MSTORE SWAP1 DUP2 PUSH0 DUP3 ADD SLOAD DUP2 MSTORE PUSH1 0x20 ADD PUSH1 0x1 DUP3 ADD PUSH0 SWAP1 SLOAD SWAP1 PUSH2 0x100 EXP SWAP1 DIV PUSH20 0xFFFFFFFFFFFFFFFFFFFFFFFFFFFFFFFFFFFFFFFF AND PUSH20 0xFFFFFFFFFFFFFFFFFFFFFFFFFFFFFFFFFFFFFFFF AND PUSH20 0xFFFFFFFFFFFFFFFFFFFFFFFFFFFFFFFFFFFFFFFF AND DUP2 MSTORE PUSH1 0x20 ADD PUSH1 0x2 DUP3 ADD SLOAD DUP2 MSTORE PUSH1 0x20 ADD PUSH1 0x3 DUP3 ADD SLOAD DUP2 MSTORE POP POP SWAP1 POP DUP1 PUSH0 ADD MLOAD DUP2 PUSH1 0x20 ADD MLOAD DUP3 PUSH1 0x40 ADD MLOAD DUP4 PUSH1 0x60 ADD MLOAD SWAP5 POP SWAP5 POP SWAP5 POP SWAP5 POP POP SWAP3 SWAP6 SWAP2 SWAP5 POP SWAP3 POP JUMP JUMPDEST PUSH0 DUP1 PUSH0 DUP1 PUSH1 0x1 PUSH0 DUP11 PUSH20 0xFFFFFFFFFFFFFFFFFFFFFFFFFFFFFFFFFFFFFFFF AND PUSH20 0xFFFFFFFFFFFFFFFFFFFFFFFFFFFFFFFFFFFFFFFF AND DUP2 MSTORE PUSH1 0x20 ADD SWAP1 DUP2 MSTORE PUSH1 0x20 ADD PUSH0 KECCAK256 PUSH0 DUP9 DUP2 MSTORE PUSH1 0x20 ADD SWAP1 DUP2 MSTORE PUSH1 0x20 ADD PUSH0 KECCAK256 SWAP1 POP PUSH0 DUP2 PUSH0 ADD SLOAD EQ PUSH2 0x360 JUMPI PUSH1 0x40 MLOAD PUSH32 0x8C379A000000000000000000000000000000000000000000000000000000000 DUP2 MSTORE PUSH1 0x4 ADD PUSH2 0x357 SWAP1 PUSH2 0xBB2 JUMP JUMPDEST PUSH1 0x40 MLOAD DUP1 SWAP2 SUB SWAP1 REVERT JUMPDEST PUSH0 PUSH1 0x40 MLOAD DUP1 PUSH1 0x80 ADD PUSH1 0x40 MSTORE DUP1 DUP10 DUP2 MSTORE PUSH1 0x20 ADD DUP11 PUSH20 0xFFFFFFFFFFFFFFFFFFFFFFFFFFFFFFFFFFFFFFFF AND DUP2 MSTORE PUSH1 0x20 ADD DUP9 DUP2 MSTORE PUSH1 0x20 ADD DUP8 DUP2 MSTORE POP SWAP1 POP DUP1 PUSH1 0x1 PUSH0 DUP13 PUSH20 0xFFFFFFFFFFFFFFFFFFFFFFFFFFFFFFFFFFFFFFFF AND PUSH20 0xFFFFFFFFFFFFFFFFFFFFFFFFFFFFFFFFFFFFFFFF AND DUP2 MSTORE PUSH1 0x20 ADD SWAP1 DUP2 MSTORE PUSH1 0x20 ADD PUSH0 KECCAK256 PUSH0 DUP11 DUP2 MSTORE PUSH1 0x20 ADD SWAP1 DUP2 MSTORE PUSH1 0x20 ADD PUSH0 KECCAK256 PUSH0 DUP3 ADD MLOAD DUP2 PUSH0 ADD SSTORE PUSH1 0x20 DUP3 ADD MLOAD DUP2 PUSH1 0x1 ADD PUSH0 PUSH2 0x100 EXP DUP2 SLOAD DUP2 PUSH20 0xFFFFFFFFFFFFFFFFFFFFFFFFFFFFFFFFFFFFFFFF MUL NOT AND SWAP1 DUP4 PUSH20 0xFFFFFFFFFFFFFFFFFFFFFFFFFFFFFFFFFFFFFFFF AND MUL OR SWAP1 SSTORE POP PUSH1 0x40 DUP3 ADD MLOAD DUP2 PUSH1 0x2 ADD SSTORE PUSH1 0x60 DUP3 ADD MLOAD DUP2 PUSH1 0x3 ADD SSTORE SWAP1 POP POP PUSH1 0x2 PUSH0 DUP12 PUSH20 0xFFFFFFFFFFFFFFFFFFFFFFFFFFFFFFFFFFFFFFFF AND PUSH20 0xFFFFFFFFFFFFFFFFFFFFFFFFFFFFFFFFFFFFFFFF AND DUP2 MSTORE PUSH1 0x20 ADD SWAP1 DUP2 MSTORE PUSH1 0x20 ADD PUSH0 KECCAK256 DUP9 SWAP1 DUP1 PUSH1 0x1 DUP2 SLOAD ADD DUP1 DUP3 SSTORE DUP1 SWAP2 POP POP PUSH1 0x1 SWAP1 SUB SWAP1 PUSH0 MSTORE PUSH1 0x20 PUSH0 KECCAK256 ADD PUSH0 SWAP1 SWAP2 SWAP1 SWAP2 SWAP1 SWAP2 POP SSTORE PUSH1 0x1 PUSH0 DUP12 PUSH20 0xFFFFFFFFFFFFFFFFFFFFFFFFFFFFFFFFFFFFFFFF AND PUSH20 0xFFFFFFFFFFFFFFFFFFFFFFFFFFFFFFFFFFFFFFFF AND DUP2 MSTORE PUSH1 0x20 ADD SWAP1 DUP2 MSTORE PUSH1 0x20 ADD PUSH0 KECCAK256 PUSH0 DUP10 DUP2 MSTORE PUSH1 0x20 ADD SWAP1 DUP2 MSTORE PUSH1 0x20 ADD PUSH0 KECCAK256 PUSH0 ADD SLOAD PUSH1 0x1 PUSH0 DUP13 PUSH20 0xFFFFFFFFFFFFFFFFFFFFFFFFFFFFFFFFFFFFFFFF AND PUSH20 0xFFFFFFFFFFFFFFFFFFFFFFFFFFFFFFFFFFFFFFFF AND DUP2 MSTORE PUSH1 0x20 ADD SWAP1 DUP2 MSTORE PUSH1 0x20 ADD PUSH0 KECCAK256 PUSH0 DUP11 DUP2 MSTORE PUSH1 0x20 ADD SWAP1 DUP2 MSTORE PUSH1 0x20 ADD PUSH0 KECCAK256 PUSH1 0x2 ADD SLOAD PUSH1 0x1 PUSH0 DUP14 PUSH20 0xFFFFFFFFFFFFFFFFFFFFFFFFFFFFFFFFFFFFFFFF AND PUSH20 0xFFFFFFFFFFFFFFFFFFFFFFFFFFFFFFFFFFFFFFFF AND DUP2 MSTORE PUSH1 0x20 ADD SWAP1 DUP2 MSTORE PUSH1 0x20 ADD PUSH0 KECCAK256 PUSH0 DUP12 DUP2 MSTORE PUSH1 0x20 ADD SWAP1 DUP2 MSTORE PUSH1 0x20 ADD PUSH0 KECCAK256 PUSH1 0x3 ADD SLOAD SWAP5 POP SWAP5 POP SWAP5 POP POP POP SWAP6 POP SWAP6 POP SWAP6 SWAP3 POP POP POP JUMP JUMPDEST PUSH0 PUSH1 0x1 PUSH0 DUP5 PUSH20 0xFFFFFFFFFFFFFFFFFFFFFFFFFFFFFFFFFFFFFFFF AND PUSH20 0xFFFFFFFFFFFFFFFFFFFFFFFFFFFFFFFFFFFFFFFF AND DUP2 MSTORE PUSH1 0x20 ADD SWAP1 DUP2 MSTORE PUSH1 0x20 ADD PUSH0 KECCAK256 PUSH0 DUP4 DUP2 MSTORE PUSH1 0x20 ADD SWAP1 DUP2 MSTORE PUSH1 0x20 ADD PUSH0 KECCAK256 PUSH1 0x2 ADD SLOAD SWAP1 POP SWAP3 SWAP2 POP POP JUMP JUMPDEST PUSH0 DUP1 DUP3 EQ ISZERO DUP1 ISZERO PUSH2 0x618 JUMPI POP PUSH0 DUP3 GT JUMPDEST PUSH2 0x657 JUMPI PUSH1 0x40 MLOAD PUSH32 0x8C379A000000000000000000000000000000000000000000000000000000000 DUP2 MSTORE PUSH1 0x4 ADD PUSH2 0x64E SWAP1 PUSH2 0xC1A JUMP JUMPDEST PUSH1 0x40 MLOAD DUP1 SWAP2 SUB SWAP1 REVERT JUMPDEST PUSH0 PUSH1 0x1 PUSH0 DUP6 PUSH20 0xFFFFFFFFFFFFFFFFFFFFFFFFFFFFFFFFFFFFFFFF AND PUSH20 0xFFFFFFFFFFFFFFFFFFFFFFFFFFFFFFFFFFFFFFFF AND DUP2 MSTORE PUSH1 0x20 ADD SWAP1 DUP2 MSTORE PUSH1 0x20 ADD PUSH0 KECCAK256 PUSH0 DUP5 DUP2 MSTORE PUSH1 0x20 ADD SWAP1 DUP2 MSTORE PUSH1 0x20 ADD PUSH0 KECCAK256 PUSH0 ADD SLOAD EQ ISZERO SWAP1 POP SWAP3 SWAP2 POP POP JUMP JUMPDEST PUSH0 PUSH1 0x1 PUSH0 DUP5 PUSH20 0xFFFFFFFFFFFFFFFFFFFFFFFFFFFFFFFFFFFFFFFF AND PUSH20 0xFFFFFFFFFFFFFFFFFFFFFFFFFFFFFFFFFFFFFFFF AND DUP2 MSTORE PUSH1 0x20 ADD SWAP1 DUP2 MSTORE PUSH1 0x20 ADD PUSH0 KECCAK256 PUSH0 DUP4 DUP2 MSTORE PUSH1 0x20 ADD SWAP1 DUP2 MSTORE PUSH1 0x20 ADD PUSH0 KECCAK256 PUSH1 0x3 ADD SLOAD SWAP1 POP SWAP3 SWAP2 POP POP JUMP JUMPDEST PUSH1 0x60 PUSH1 0x2 PUSH0 DUP4 PUSH20 0xFFFFFFFFFFFFFFFFFFFFFFFFFFFFFFFFFFFFFFFF AND PUSH20 0xFFFFFFFFFFFFFFFFFFFFFFFFFFFFFFFFFFFFFFFF AND DUP2 MSTORE PUSH1 0x20 ADD SWAP1 DUP2 MSTORE PUSH1 0x20 ADD PUSH0 KECCAK256 DUP1 SLOAD DUP1 PUSH1 0x20 MUL PUSH1 0x20 ADD PUSH1 0x40 MLOAD SWAP1 DUP2 ADD PUSH1 0x40 MSTORE DUP1 SWAP3 SWAP2 SWAP1 DUP2 DUP2 MSTORE PUSH1 0x20 ADD DUP3 DUP1 SLOAD DUP1 ISZERO PUSH2 0x791 JUMPI PUSH1 0x20 MUL DUP3 ADD SWAP2 SWAP1 PUSH0 MSTORE PUSH1 0x20 PUSH0 KECCAK256 SWAP1 JUMPDEST DUP2 SLOAD DUP2 MSTORE PUSH1 0x20 ADD SWAP1 PUSH1 0x1 ADD SWAP1 DUP1 DUP4 GT PUSH2 0x77D JUMPI JUMPDEST POP POP POP POP POP SWAP1 POP SWAP2 SWAP1 POP JUMP JUMPDEST PUSH0 PUSH1 0x1 PUSH0 DUP5 PUSH20 0xFFFFFFFFFFFFFFFFFFFFFFFFFFFFFFFFFFFFFFFF AND PUSH20 0xFFFFFFFFFFFFFFFFFFFFFFFFFFFFFFFFFFFFFFFF AND DUP2 MSTORE PUSH1 0x20 ADD SWAP1 DUP2 MSTORE PUSH1 0x20 ADD PUSH0 KECCAK256 PUSH0 DUP4 DUP2 MSTORE PUSH1 0x20 ADD SWAP1 DUP2 MSTORE PUSH1 0x20 ADD PUSH0 KECCAK256 PUSH1 0x1 ADD PUSH0 SWAP1 SLOAD SWAP1 PUSH2 0x100 EXP SWAP1 DIV PUSH20 0xFFFFFFFFFFFFFFFFFFFFFFFFFFFFFFFFFFFFFFFF AND SWAP1 POP SWAP3 SWAP2 POP POP JUMP JUMPDEST PUSH0 DUP1 REVERT JUMPDEST PUSH0 PUSH20 0xFFFFFFFFFFFFFFFFFFFFFFFFFFFFFFFFFFFFFFFF DUP3 AND SWAP1 POP SWAP2 SWAP1 POP JUMP JUMPDEST PUSH0 PUSH2 0x842 DUP3 PUSH2 0x819 JUMP JUMPDEST SWAP1 POP SWAP2 SWAP1 POP JUMP JUMPDEST PUSH2 0x852 DUP2 PUSH2 0x838 JUMP JUMPDEST DUP2 EQ PUSH2 0x85C JUMPI PUSH0 DUP1 REVERT JUMPDEST POP JUMP JUMPDEST PUSH0 DUP2 CALLDATALOAD SWAP1 POP PUSH2 0x86D DUP2 PUSH2 0x849 JUMP JUMPDEST SWAP3 SWAP2 POP POP JUMP JUMPDEST PUSH0 DUP2 SWAP1 POP SWAP2 SWAP1 POP JUMP JUMPDEST PUSH2 0x885 DUP2 PUSH2 0x873 JUMP JUMPDEST DUP2 EQ PUSH2 0x88F JUMPI PUSH0 DUP1 REVERT JUMPDEST POP JUMP JUMPDEST PUSH0 DUP2 CALLDATALOAD SWAP1 POP PUSH2 0x8A0 DUP2 PUSH2 0x87C JUMP JUMPDEST SWAP3 SWAP2 POP POP JUMP JUMPDEST PUSH0 DUP1 PUSH1 0x40 DUP4 DUP6 SUB SLT ISZERO PUSH2 0x8BC JUMPI PUSH2 0x8BB PUSH2 0x815 JUMP JUMPDEST JUMPDEST PUSH0 PUSH2 0x8C9 DUP6 DUP3 DUP7 ADD PUSH2 0x85F JUMP JUMPDEST SWAP3 POP POP PUSH1 0x20 PUSH2 0x8DA DUP6 DUP3 DUP7 ADD PUSH2 0x892 JUMP JUMPDEST SWAP2 POP POP SWAP3 POP SWAP3 SWAP1 POP JUMP JUMPDEST PUSH2 0x8ED DUP2 PUSH2 0x873 JUMP JUMPDEST DUP3 MSTORE POP POP JUMP JUMPDEST PUSH2 0x8FC DUP2 PUSH2 0x838 JUMP JUMPDEST DUP3 MSTORE POP POP JUMP JUMPDEST PUSH0 PUSH1 0x80 DUP3 ADD SWAP1 POP PUSH2 0x915 PUSH0 DUP4 ADD DUP8 PUSH2 0x8E4 JUMP JUMPDEST PUSH2 0x922 PUSH1 0x20 DUP4 ADD DUP7 PUSH2 0x8F3 JUMP JUMPDEST PUSH2 0x92F PUSH1 0x40 DUP4 ADD DUP6 PUSH2 0x8E4 JUMP JUMPDEST PUSH2 0x93C PUSH1 0x60 DUP4 ADD DUP5 PUSH2 0x8E4 JUMP JUMPDEST SWAP6 SWAP5 POP POP POP POP POP JUMP JUMPDEST PUSH0 DUP1 PUSH0 DUP1 PUSH0 PUSH1 0xA0 DUP7 DUP9 SUB SLT ISZERO PUSH2 0x95E JUMPI PUSH2 0x95D PUSH2 0x815 JUMP JUMPDEST JUMPDEST PUSH0 PUSH2 0x96B DUP9 DUP3 DUP10 ADD PUSH2 0x85F JUMP JUMPDEST SWAP6 POP POP PUSH1 0x20 PUSH2 0x97C DUP9 DUP3 DUP10 ADD PUSH2 0x85F JUMP JUMPDEST SWAP5 POP POP PUSH1 0x40 PUSH2 0x98D DUP9 DUP3 DUP10 ADD PUSH2 0x892 JUMP JUMPDEST SWAP4 POP POP PUSH1 0x60 PUSH2 0x99E DUP9 DUP3 DUP10 ADD PUSH2 0x892 JUMP JUMPDEST SWAP3 POP POP PUSH1 0x80 PUSH2 0x9AF DUP9 DUP3 DUP10 ADD PUSH2 0x892 JUMP JUMPDEST SWAP2 POP POP SWAP3 SWAP6 POP SWAP3 SWAP6 SWAP1 SWAP4 POP JUMP JUMPDEST PUSH0 PUSH1 0x60 DUP3 ADD SWAP1 POP PUSH2 0x9CF PUSH0 DUP4 ADD DUP7 PUSH2 0x8E4 JUMP JUMPDEST PUSH2 0x9DC PUSH1 0x20 DUP4 ADD DUP6 PUSH2 0x8E4 JUMP JUMPDEST PUSH2 0x9E9 PUSH1 0x40 DUP4 ADD DUP5 PUSH2 0x8E4 JUMP JUMPDEST SWAP5 SWAP4 POP POP POP POP JUMP JUMPDEST PUSH0 PUSH1 0x20 DUP3 ADD SWAP1 POP PUSH2 0xA04 PUSH0 DUP4 ADD DUP5 PUSH2 0x8E4 JUMP JUMPDEST SWAP3 SWAP2 POP POP JUMP JUMPDEST PUSH0 DUP2 ISZERO ISZERO SWAP1 POP SWAP2 SWAP1 POP JUMP JUMPDEST PUSH2 0xA1E DUP2 PUSH2 0xA0A JUMP JUMPDEST DUP3 MSTORE POP POP JUMP JUMPDEST PUSH0 PUSH1 0x20 DUP3 ADD SWAP1 POP PUSH2 0xA37 PUSH0 DUP4 ADD DUP5 PUSH2 0xA15 JUMP JUMPDEST SWAP3 SWAP2 POP POP JUMP JUMPDEST PUSH0 PUSH1 0x20 DUP3 DUP5 SUB SLT ISZERO PUSH2 0xA52 JUMPI PUSH2 0xA51 PUSH2 0x815 JUMP JUMPDEST JUMPDEST PUSH0 PUSH2 0xA5F DUP5 DUP3 DUP6 ADD PUSH2 0x85F JUMP JUMPDEST SWAP2 POP POP SWAP3 SWAP2 POP POP JUMP JUMPDEST PUSH0 DUP2 MLOAD SWAP1 POP SWAP2 SWAP1 POP JUMP JUMPDEST PUSH0 DUP3 DUP3 MSTORE PUSH1 0x20 DUP3 ADD SWAP1 POP SWAP3 SWAP2 POP POP JUMP JUMPDEST PUSH0 DUP2 SWAP1 POP PUSH1 0x20 DUP3 ADD SWAP1 POP SWAP2 SWAP1 POP JUMP JUMPDEST PUSH2 0xA9A DUP2 PUSH2 0x873 JUMP JUMPDEST DUP3 MSTORE POP POP JUMP JUMPDEST PUSH0 PUSH2 0xAAB DUP4 DUP4 PUSH2 0xA91 JUMP JUMPDEST PUSH1 0x20 DUP4 ADD SWAP1 POP SWAP3 SWAP2 POP POP JUMP JUMPDEST PUSH0 PUSH1 0x20 DUP3 ADD SWAP1 POP SWAP2 SWAP1 POP JUMP JUMPDEST PUSH0 PUSH2 0xACD DUP3 PUSH2 0xA68 JUMP JUMPDEST PUSH2 0xAD7 DUP2 DUP6 PUSH2 0xA72 JUMP JUMPDEST SWAP4 POP PUSH2 0xAE2 DUP4 PUSH2 0xA82 JUMP JUMPDEST DUP1 PUSH0 JUMPDEST DUP4 DUP2 LT ISZERO PUSH2 0xB12 JUMPI DUP2 MLOAD PUSH2 0xAF9 DUP9 DUP3 PUSH2 0xAA0 JUMP JUMPDEST SWAP8 POP PUSH2 0xB04 DUP4 PUSH2 0xAB7 JUMP JUMPDEST SWAP3 POP POP PUSH1 0x1 DUP2 ADD SWAP1 POP PUSH2 0xAE5 JUMP JUMPDEST POP DUP6 SWAP4 POP POP POP POP SWAP3 SWAP2 POP POP JUMP JUMPDEST PUSH0 PUSH1 0x20 DUP3 ADD SWAP1 POP DUP2 DUP2 SUB PUSH0 DUP4 ADD MSTORE PUSH2 0xB37 DUP2 DUP5 PUSH2 0xAC3 JUMP JUMPDEST SWAP1 POP SWAP3 SWAP2 POP POP JUMP JUMPDEST PUSH0 PUSH1 0x20 DUP3 ADD SWAP1 POP PUSH2 0xB52 PUSH0 DUP4 ADD DUP5 PUSH2 0x8F3 JUMP JUMPDEST SWAP3 SWAP2 POP POP JUMP JUMPDEST PUSH0 DUP3 DUP3 MSTORE PUSH1 0x20 DUP3 ADD SWAP1 POP SWAP3 SWAP2 POP POP JUMP JUMPDEST PUSH32 0x436865657365506965636520676961272070726573656E746521000000000000 PUSH0 DUP3 ADD MSTORE POP JUMP JUMPDEST PUSH0 PUSH2 0xB9C PUSH1 0x1A DUP4 PUSH2 0xB58 JUMP JUMPDEST SWAP2 POP PUSH2 0xBA7 DUP3 PUSH2 0xB68 JUMP JUMPDEST PUSH1 0x20 DUP3 ADD SWAP1 POP SWAP2 SWAP1 POP JUMP JUMPDEST PUSH0 PUSH1 0x20 DUP3 ADD SWAP1 POP DUP2 DUP2 SUB PUSH0 DUP4 ADD MSTORE PUSH2 0xBC9 DUP2 PUSH2 0xB90 JUMP JUMPDEST SWAP1 POP SWAP2 SWAP1 POP JUMP JUMPDEST PUSH32 0x4944204368656573655069656365204E6F742056616C69642100000000000000 PUSH0 DUP3 ADD MSTORE POP JUMP JUMPDEST PUSH0 PUSH2 0xC04 PUSH1 0x19 DUP4 PUSH2 0xB58 JUMP JUMPDEST SWAP2 POP PUSH2 0xC0F DUP3 PUSH2 0xBD0 JUMP JUMPDEST PUSH1 0x20 DUP3 ADD SWAP1 POP SWAP2 SWAP1 POP JUMP JUMPDEST PUSH0 PUSH1 0x20 DUP3 ADD SWAP1 POP DUP2 DUP2 SUB PUSH0 DUP4 ADD MSTORE PUSH2 0xC31 DUP2 PUSH2 0xBF8 JUMP JUMPDEST SWAP1 POP SWAP2 SWAP1 POP JUMP INVALID LOG2 PUSH5 0x6970667358 0x22 SLT KECCAK256 0xB2 0xBE SMOD 0xAC RETURN 0xEF BALANCE 0x2C 0xCA DIV SWAP8 PUSH11 0x9F6A9398527E8EAD7598EC 0x1F SWAP9 MUL PUSH17 0xEE274656B64736F6C6343000816003300 "
				},
				"gasEstimates": {
					"creation": {
						"codeDepositCost": "636400",
						"executionCost": "24933",
						"totalCost": "661333"
					},
					"external": {
						"addCheesePiece(address,address,uint256,uint256,uint256)": "infinite",
						"getCheesePiece(address,uint256)": "infinite",
						"getListCheesePieseIdPurchasedByConsumer(address)": "infinite",
						"getPrice(address,uint256)": "infinite",
						"getWalletRetailer(address,uint256)": "infinite",
						"getWeight(address,uint256)": "infinite",
						"isCheesePiecePresent(address,uint256)": "3151"
					}
				},
				"methodIdentifiers": {
					"addCheesePiece(address,address,uint256,uint256,uint256)": "210744cf",
					"getCheesePiece(address,uint256)": "0b7aa473",
					"getListCheesePieseIdPurchasedByConsumer(address)": "cb76a11f",
					"getPrice(address,uint256)": "449e815d",
					"getWalletRetailer(address,uint256)": "d7f9aee5",
					"getWeight(address,uint256)": "afd47d3e",
					"isCheesePiecePresent(address,uint256)": "9bc7c21c"
				}
			},
			"storageLayout": {
				"storage": [
					{
						"astId": 3,
						"contract": "contracts/Actor/Consumer-smart-contract/inventory/ConsumerBuyerInventoryStorage.sol:ConsumerBuyerInventoryStorage",
						"label": "consumerBuyerOrg",
						"offset": 0,
						"slot": "0",
						"type": "t_address"
					},
					{
						"astId": 28,
						"contract": "contracts/Actor/Consumer-smart-contract/inventory/ConsumerBuyerInventoryStorage.sol:ConsumerBuyerInventoryStorage",
						"label": "purchasedCheesePieces",
						"offset": 0,
						"slot": "1",
						"type": "t_mapping(t_address,t_mapping(t_uint256,t_struct(CheesePiece)21_storage))"
					},
					{
						"astId": 33,
						"contract": "contracts/Actor/Consumer-smart-contract/inventory/ConsumerBuyerInventoryStorage.sol:ConsumerBuyerInventoryStorage",
						"label": "purchasedCheesePieceListIdForSingleConsumer",
						"offset": 0,
						"slot": "2",
						"type": "t_mapping(t_address,t_array(t_uint256)dyn_storage)"
					}
				],
				"types": {
					"t_address": {
						"encoding": "inplace",
						"label": "address",
						"numberOfBytes": "20"
					},
					"t_array(t_uint256)dyn_storage": {
						"base": "t_uint256",
						"encoding": "dynamic_array",
						"label": "uint256[]",
						"numberOfBytes": "32"
					},
					"t_mapping(t_address,t_array(t_uint256)dyn_storage)": {
						"encoding": "mapping",
						"key": "t_address",
						"label": "mapping(address => uint256[])",
						"numberOfBytes": "32",
						"value": "t_array(t_uint256)dyn_storage"
					},
					"t_mapping(t_address,t_mapping(t_uint256,t_struct(CheesePiece)21_storage))": {
						"encoding": "mapping",
						"key": "t_address",
						"label": "mapping(address => mapping(uint256 => struct ConsumerBuyerInventoryStorage.CheesePiece))",
						"numberOfBytes": "32",
						"value": "t_mapping(t_uint256,t_struct(CheesePiece)21_storage)"
					},
					"t_mapping(t_uint256,t_struct(CheesePiece)21_storage)": {
						"encoding": "mapping",
						"key": "t_uint256",
						"label": "mapping(uint256 => struct ConsumerBuyerInventoryStorage.CheesePiece)",
						"numberOfBytes": "32",
						"value": "t_struct(CheesePiece)21_storage"
					},
					"t_struct(CheesePiece)21_storage": {
						"encoding": "inplace",
						"label": "struct ConsumerBuyerInventoryStorage.CheesePiece",
						"members": [
							{
								"astId": 14,
								"contract": "contracts/Actor/Consumer-smart-contract/inventory/ConsumerBuyerInventoryStorage.sol:ConsumerBuyerInventoryStorage",
								"label": "id",
								"offset": 0,
								"slot": "0",
								"type": "t_uint256"
							},
							{
								"astId": 16,
								"contract": "contracts/Actor/Consumer-smart-contract/inventory/ConsumerBuyerInventoryStorage.sol:ConsumerBuyerInventoryStorage",
								"label": "walletRetailer",
								"offset": 0,
								"slot": "1",
								"type": "t_address"
							},
							{
								"astId": 18,
								"contract": "contracts/Actor/Consumer-smart-contract/inventory/ConsumerBuyerInventoryStorage.sol:ConsumerBuyerInventoryStorage",
								"label": "price",
								"offset": 0,
								"slot": "2",
								"type": "t_uint256"
							},
							{
								"astId": 20,
								"contract": "contracts/Actor/Consumer-smart-contract/inventory/ConsumerBuyerInventoryStorage.sol:ConsumerBuyerInventoryStorage",
								"label": "weight",
								"offset": 0,
								"slot": "3",
								"type": "t_uint256"
							}
						],
						"numberOfBytes": "128"
					},
					"t_uint256": {
						"encoding": "inplace",
						"label": "uint256",
						"numberOfBytes": "32"
					}
				}
			},
			"userdoc": {
				"kind": "user",
				"methods": {},
				"version": 1
			}
		}
	}
}