{
	"data": {
		"bytecode": {
			"linkReferences": {},
			"object": "608060405234801562000010575f80fd5b5060405162001a8b38038062001a8b833981810160405281019062000036919062000162565b815f806101000a81548173ffffffffffffffffffffffffffffffffffffffff021916908373ffffffffffffffffffffffffffffffffffffffff1602179055508060015f6101000a81548173ffffffffffffffffffffffffffffffffffffffff021916908373ffffffffffffffffffffffffffffffffffffffff1602179055503360025f6101000a81548173ffffffffffffffffffffffffffffffffffffffff021916908373ffffffffffffffffffffffffffffffffffffffff1602179055505050620001a7565b5f80fd5b5f73ffffffffffffffffffffffffffffffffffffffff82169050919050565b5f6200012c8262000101565b9050919050565b6200013e8162000120565b811462000149575f80fd5b50565b5f815190506200015c8162000133565b92915050565b5f80604083850312156200017b576200017a620000fd565b5b5f6200018a858286016200014c565b92505060206200019d858286016200014c565b9150509250929050565b6118d680620001b55f395ff3fe608060405234801561000f575f80fd5b5060043610610060575f3560e01c80631a3b6b3f1461006457806336f9d3f31461008057806358467dbc1461009c578063a08d278e146100cc578063a8d857df14610100578063e0e72ce01461011c575b5f80fd5b61007e60048036038101906100799190610eed565b610138565b005b61009a60048036038101906100959190611054565b610326565b005b6100b660048036038101906100b191906110f8565b6104a7565b6040516100c39190611188565b60405180910390f35b6100e660048036038101906100e19190610eed565b610550565b6040516100f7959493929190611233565b60405180910390f35b61011a60048036038101906101159190610eed565b61081f565b005b61013660048036038101906101319190610eed565b610c95565b005b5f8054906101000a900473ffffffffffffffffffffffffffffffffffffffff1673ffffffffffffffffffffffffffffffffffffffff163373ffffffffffffffffffffffffffffffffffffffff16036101c5576040517f08c379a00000000000000000000000000000000000000000000000000000000081526004016101bc906112e3565b60405180910390fd5b60015f9054906101000a900473ffffffffffffffffffffffffffffffffffffffff1673ffffffffffffffffffffffffffffffffffffffff163373ffffffffffffffffffffffffffffffffffffffff1603610254576040517f08c379a000000000000000000000000000000000000000000000000000000000815260040161024b906112e3565b60405180910390fd5b60025f9054906101000a900473ffffffffffffffffffffffffffffffffffffffff1673ffffffffffffffffffffffffffffffffffffffff163373ffffffffffffffffffffffffffffffffffffffff16146102e3576040517f08c379a00000000000000000000000000000000000000000000000000000000081526004016102da90611371565b60405180910390fd5b8060015f6101000a81548173ffffffffffffffffffffffffffffffffffffffff021916908373ffffffffffffffffffffffffffffffffffffffff16021790555050565b5f3390505f8054906101000a900473ffffffffffffffffffffffffffffffffffffffff1673ffffffffffffffffffffffffffffffffffffffff1663b48ff0f1858585856040518563ffffffff1660e01b8152600401610388949392919061139e565b5f604051808303815f87803b15801561039f575f80fd5b505af11580156103b1573d5f803e3d5ffd5b5050505060015f9054906101000a900473ffffffffffffffffffffffffffffffffffffffff1673ffffffffffffffffffffffffffffffffffffffff1663a9059cbb8260646040518363ffffffff1660e01b8152600401610412929190611438565b6020604051808303815f875af115801561042e573d5f803e3d5ffd5b505050506040513d601f19601f820116820180604052508101906104529190611489565b508073ffffffffffffffffffffffffffffffffffffffff167ff22dc42214bdb40424e8878e8f5adcc3527b2f9492541d5bcd680b89cc51bd268560405161049991906114fe565b60405180910390a250505050565b5f803390505f8054906101000a900473ffffffffffffffffffffffffffffffffffffffff1673ffffffffffffffffffffffffffffffffffffffff166306f22b048286866040518463ffffffff1660e01b815260040161050893929190611531565b602060405180830381865afa158015610523573d5f803e3d5ffd5b505050506040513d601f19601f820116820180604052508101906105479190611489565b91505092915050565b5f60608060605f855f8054906101000a900473ffffffffffffffffffffffffffffffffffffffff1673ffffffffffffffffffffffffffffffffffffffff163373ffffffffffffffffffffffffffffffffffffffff16036105e5576040517f08c379a00000000000000000000000000000000000000000000000000000000081526004016105dc906112e3565b60405180910390fd5b60015f9054906101000a900473ffffffffffffffffffffffffffffffffffffffff1673ffffffffffffffffffffffffffffffffffffffff163373ffffffffffffffffffffffffffffffffffffffff1603610674576040517f08c379a000000000000000000000000000000000000000000000000000000000815260040161066b906112e3565b60405180910390fd5b60025f9054906101000a900473ffffffffffffffffffffffffffffffffffffffff1673ffffffffffffffffffffffffffffffffffffffff163373ffffffffffffffffffffffffffffffffffffffff1603610703576040517f08c379a00000000000000000000000000000000000000000000000000000000081526004016106fa90611371565b60405180910390fd5b8073ffffffffffffffffffffffffffffffffffffffff163373ffffffffffffffffffffffffffffffffffffffff1614610771576040517f08c379a0000000000000000000000000000000000000000000000000000000008152600401610768906115e4565b60405180910390fd5b5f8054906101000a900473ffffffffffffffffffffffffffffffffffffffff1673ffffffffffffffffffffffffffffffffffffffff16636f77926b886040518263ffffffff1660e01b81526004016107c99190611602565b5f60405180830381865afa1580156107e3573d5f803e3d5ffd5b505050506040513d5f823e3d601f19601f8201168201806040525081019061080b91906116b3565b955095509550955095505091939590929450565b805f8054906101000a900473ffffffffffffffffffffffffffffffffffffffff1673ffffffffffffffffffffffffffffffffffffffff163373ffffffffffffffffffffffffffffffffffffffff16036108ad576040517f08c379a00000000000000000000000000000000000000000000000000000000081526004016108a4906112e3565b60405180910390fd5b60015f9054906101000a900473ffffffffffffffffffffffffffffffffffffffff1673ffffffffffffffffffffffffffffffffffffffff163373ffffffffffffffffffffffffffffffffffffffff160361093c576040517f08c379a0000000000000000000000000000000000000000000000000000000008152600401610933906112e3565b60405180910390fd5b60025f9054906101000a900473ffffffffffffffffffffffffffffffffffffffff1673ffffffffffffffffffffffffffffffffffffffff163373ffffffffffffffffffffffffffffffffffffffff16036109cb576040517f08c379a00000000000000000000000000000000000000000000000000000000081526004016109c290611371565b60405180910390fd5b8073ffffffffffffffffffffffffffffffffffffffff163373ffffffffffffffffffffffffffffffffffffffff1614610a39576040517f08c379a0000000000000000000000000000000000000000000000000000000008152600401610a30906115e4565b60405180910390fd5b5f8054906101000a900473ffffffffffffffffffffffffffffffffffffffff1673ffffffffffffffffffffffffffffffffffffffff16635c60f226836040518263ffffffff1660e01b8152600401610a919190611602565b6020604051808303815f875af1158015610aad573d5f803e3d5ffd5b505050506040513d601f19601f82011682018060405250810190610ad19190611489565b610b10576040517f08c379a0000000000000000000000000000000000000000000000000000000008152600401610b07906117c8565b60405180910390fd5b60015f9054906101000a900473ffffffffffffffffffffffffffffffffffffffff1673ffffffffffffffffffffffffffffffffffffffff1663d1df306c8360015f9054906101000a900473ffffffffffffffffffffffffffffffffffffffff1673ffffffffffffffffffffffffffffffffffffffff166370a08231866040518263ffffffff1660e01b8152600401610ba89190611602565b602060405180830381865afa158015610bc3573d5f803e3d5ffd5b505050506040513d601f19601f82011682018060405250810190610be791906117e6565b6040518363ffffffff1660e01b8152600401610c04929190611811565b6020604051808303815f875af1158015610c20573d5f803e3d5ffd5b505050506040513d601f19601f82011682018060405250810190610c449190611489565b508173ffffffffffffffffffffffffffffffffffffffff167fbe682212fb6e5c3bea473d00509a83d114c10125ae72b32e2f83358613f009e0604051610c8990611882565b60405180910390a25050565b5f8054906101000a900473ffffffffffffffffffffffffffffffffffffffff1673ffffffffffffffffffffffffffffffffffffffff163373ffffffffffffffffffffffffffffffffffffffff1603610d22576040517f08c379a0000000000000000000000000000000000000000000000000000000008152600401610d19906112e3565b60405180910390fd5b60015f9054906101000a900473ffffffffffffffffffffffffffffffffffffffff1673ffffffffffffffffffffffffffffffffffffffff163373ffffffffffffffffffffffffffffffffffffffff1603610db1576040517f08c379a0000000000000000000000000000000000000000000000000000000008152600401610da8906112e3565b60405180910390fd5b60025f9054906101000a900473ffffffffffffffffffffffffffffffffffffffff1673ffffffffffffffffffffffffffffffffffffffff163373ffffffffffffffffffffffffffffffffffffffff1614610e40576040517f08c379a0000000000000000000000000000000000000000000000000000000008152600401610e3790611371565b60405180910390fd5b805f806101000a81548173ffffffffffffffffffffffffffffffffffffffff021916908373ffffffffffffffffffffffffffffffffffffffff16021790555050565b5f604051905090565b5f80fd5b5f80fd5b5f73ffffffffffffffffffffffffffffffffffffffff82169050919050565b5f610ebc82610e93565b9050919050565b610ecc81610eb2565b8114610ed6575f80fd5b50565b5f81359050610ee781610ec3565b92915050565b5f60208284031215610f0257610f01610e8b565b5b5f610f0f84828501610ed9565b91505092915050565b5f80fd5b5f80fd5b5f601f19601f8301169050919050565b7f4e487b71000000000000000000000000000000000000000000000000000000005f52604160045260245ffd5b610f6682610f20565b810181811067ffffffffffffffff82111715610f8557610f84610f30565b5b80604052505050565b5f610f97610e82565b9050610fa38282610f5d565b919050565b5f67ffffffffffffffff821115610fc257610fc1610f30565b5b610fcb82610f20565b9050602081019050919050565b828183375f83830152505050565b5f610ff8610ff384610fa8565b610f8e565b90508281526020810184848401111561101457611013610f1c565b5b61101f848285610fd8565b509392505050565b5f82601f83011261103b5761103a610f18565b5b813561104b848260208601610fe6565b91505092915050565b5f805f6060848603121561106b5761106a610e8b565b5b5f84013567ffffffffffffffff81111561108857611087610e8f565b5b61109486828701611027565b935050602084013567ffffffffffffffff8111156110b5576110b4610e8f565b5b6110c186828701611027565b925050604084013567ffffffffffffffff8111156110e2576110e1610e8f565b5b6110ee86828701611027565b9150509250925092565b5f806040838503121561110e5761110d610e8b565b5b5f83013567ffffffffffffffff81111561112b5761112a610e8f565b5b61113785828601611027565b925050602083013567ffffffffffffffff81111561115857611157610e8f565b5b61116485828601611027565b9150509250929050565b5f8115159050919050565b6111828161116e565b82525050565b5f60208201905061119b5f830184611179565b92915050565b5f819050919050565b6111b3816111a1565b82525050565b5f81519050919050565b5f82825260208201905092915050565b5f5b838110156111f05780820151818401526020810190506111d5565b5f8484015250505050565b5f611205826111b9565b61120f81856111c3565b935061121f8185602086016111d3565b61122881610f20565b840191505092915050565b5f60a0820190506112465f8301886111aa565b818103602083015261125881876111fb565b9050818103604083015261126c81866111fb565b9050818103606083015261128081856111fb565b905061128f60808301846111aa565b9695505050505050565b7f41646472657373204e6f742076616c69642100000000000000000000000000005f82015250565b5f6112cd6012836111c3565b91506112d882611299565b602082019050919050565b5f6020820190508181035f8301526112fa816112c1565b9050919050565b7f2041646472657373206e6f742056616c69642c206974206973206f7267616e695f8201527f7a6174696f6e2061646472657373000000000000000000000000000000000000602082015250565b5f61135b602e836111c3565b915061136682611301565b604082019050919050565b5f6020820190508181035f8301526113888161134f565b9050919050565b61139881610eb2565b82525050565b5f6080820190508181035f8301526113b681876111fb565b905081810360208301526113ca81866111fb565b905081810360408301526113de81856111fb565b90506113ed606083018461138f565b95945050505050565b5f819050919050565b5f819050919050565b5f61142261141d611418846113f6565b6113ff565b6111a1565b9050919050565b61143281611408565b82525050565b5f60408201905061144b5f83018561138f565b6114586020830184611429565b9392505050565b6114688161116e565b8114611472575f80fd5b50565b5f815190506114838161145f565b92915050565b5f6020828403121561149e5761149d610e8b565b5b5f6114ab84828501611475565b91505092915050565b7f5573657220686173206265656e207265676973746572656421000000000000005f82015250565b5f6114e86019836111c3565b91506114f3826114b4565b602082019050919050565b5f6040820190508181035f83015261151681846111fb565b90508181036020830152611529816114dc565b905092915050565b5f6060820190506115445f83018661138f565b818103602083015261155681856111fb565b9050818103604083015261156a81846111fb565b9050949350505050565b7f4f6e6c7920746865206163636f756e74206f776e65722063616e20706572666f5f8201527f726d207468697320616374696f6e000000000000000000000000000000000000602082015250565b5f6115ce602e836111c3565b91506115d982611574565b604082019050919050565b5f6020820190508181035f8301526115fb816115c2565b9050919050565b5f6020820190506116155f83018461138f565b92915050565b611624816111a1565b811461162e575f80fd5b50565b5f8151905061163f8161161b565b92915050565b5f61165761165284610fa8565b610f8e565b90508281526020810184848401111561167357611672610f1c565b5b61167e8482856111d3565b509392505050565b5f82601f83011261169a57611699610f18565b5b81516116aa848260208601611645565b91505092915050565b5f805f805f60a086880312156116cc576116cb610e8b565b5b5f6116d988828901611631565b955050602086015167ffffffffffffffff8111156116fa576116f9610e8f565b5b61170688828901611686565b945050604086015167ffffffffffffffff81111561172757611726610e8f565b5b61173388828901611686565b935050606086015167ffffffffffffffff81111561175457611753610e8f565b5b61176088828901611686565b925050608061177188828901611631565b9150509295509295909350565b7f4572726f7220647572696e672064656c6574696f6e00000000000000000000005f82015250565b5f6117b26015836111c3565b91506117bd8261177e565b602082019050919050565b5f6020820190508181035f8301526117df816117a6565b9050919050565b5f602082840312156117fb576117fa610e8b565b5b5f61180884828501611631565b91505092915050565b5f6040820190506118245f83018561138f565b61183160208301846111aa565b9392505050565b7f5573657220686173206265656e2064656c6574656421000000000000000000005f82015250565b5f61186c6016836111c3565b915061187782611838565b602082019050919050565b5f6020820190508181035f83015261189981611860565b905091905056fea2646970667358221220f2977fb0b1a883808e148dd02b88b718cd79f758461fe2074b45fbd6039d53af64736f6c63430008160033",
			"opcodes": "PUSH1 0x80 PUSH1 0x40 MSTORE CALLVALUE DUP1 ISZERO PUSH3 0x10 JUMPI PUSH0 DUP1 REVERT JUMPDEST POP PUSH1 0x40 MLOAD PUSH3 0x1A8B CODESIZE SUB DUP1 PUSH3 0x1A8B DUP4 CODECOPY DUP2 DUP2 ADD PUSH1 0x40 MSTORE DUP2 ADD SWAP1 PUSH3 0x36 SWAP2 SWAP1 PUSH3 0x162 JUMP JUMPDEST DUP2 PUSH0 DUP1 PUSH2 0x100 EXP DUP2 SLOAD DUP2 PUSH20 0xFFFFFFFFFFFFFFFFFFFFFFFFFFFFFFFFFFFFFFFF MUL NOT AND SWAP1 DUP4 PUSH20 0xFFFFFFFFFFFFFFFFFFFFFFFFFFFFFFFFFFFFFFFF AND MUL OR SWAP1 SSTORE POP DUP1 PUSH1 0x1 PUSH0 PUSH2 0x100 EXP DUP2 SLOAD DUP2 PUSH20 0xFFFFFFFFFFFFFFFFFFFFFFFFFFFFFFFFFFFFFFFF MUL NOT AND SWAP1 DUP4 PUSH20 0xFFFFFFFFFFFFFFFFFFFFFFFFFFFFFFFFFFFFFFFF AND MUL OR SWAP1 SSTORE POP CALLER PUSH1 0x2 PUSH0 PUSH2 0x100 EXP DUP2 SLOAD DUP2 PUSH20 0xFFFFFFFFFFFFFFFFFFFFFFFFFFFFFFFFFFFFFFFF MUL NOT AND SWAP1 DUP4 PUSH20 0xFFFFFFFFFFFFFFFFFFFFFFFFFFFFFFFFFFFFFFFF AND MUL OR SWAP1 SSTORE POP POP POP PUSH3 0x1A7 JUMP JUMPDEST PUSH0 DUP1 REVERT JUMPDEST PUSH0 PUSH20 0xFFFFFFFFFFFFFFFFFFFFFFFFFFFFFFFFFFFFFFFF DUP3 AND SWAP1 POP SWAP2 SWAP1 POP JUMP JUMPDEST PUSH0 PUSH3 0x12C DUP3 PUSH3 0x101 JUMP JUMPDEST SWAP1 POP SWAP2 SWAP1 POP JUMP JUMPDEST PUSH3 0x13E DUP2 PUSH3 0x120 JUMP JUMPDEST DUP2 EQ PUSH3 0x149 JUMPI PUSH0 DUP1 REVERT JUMPDEST POP JUMP JUMPDEST PUSH0 DUP2 MLOAD SWAP1 POP PUSH3 0x15C DUP2 PUSH3 0x133 JUMP JUMPDEST SWAP3 SWAP2 POP POP JUMP JUMPDEST PUSH0 DUP1 PUSH1 0x40 DUP4 DUP6 SUB SLT ISZERO PUSH3 0x17B JUMPI PUSH3 0x17A PUSH3 0xFD JUMP JUMPDEST JUMPDEST PUSH0 PUSH3 0x18A DUP6 DUP3 DUP7 ADD PUSH3 0x14C JUMP JUMPDEST SWAP3 POP POP PUSH1 0x20 PUSH3 0x19D DUP6 DUP3 DUP7 ADD PUSH3 0x14C JUMP JUMPDEST SWAP2 POP POP SWAP3 POP SWAP3 SWAP1 POP JUMP JUMPDEST PUSH2 0x18D6 DUP1 PUSH3 0x1B5 PUSH0 CODECOPY PUSH0 RETURN INVALID PUSH1 0x80 PUSH1 0x40 MSTORE CALLVALUE DUP1 ISZERO PUSH2 0xF JUMPI PUSH0 DUP1 REVERT JUMPDEST POP PUSH1 0x4 CALLDATASIZE LT PUSH2 0x60 JUMPI PUSH0 CALLDATALOAD PUSH1 0xE0 SHR DUP1 PUSH4 0x1A3B6B3F EQ PUSH2 0x64 JUMPI DUP1 PUSH4 0x36F9D3F3 EQ PUSH2 0x80 JUMPI DUP1 PUSH4 0x58467DBC EQ PUSH2 0x9C JUMPI DUP1 PUSH4 0xA08D278E EQ PUSH2 0xCC JUMPI DUP1 PUSH4 0xA8D857DF EQ PUSH2 0x100 JUMPI DUP1 PUSH4 0xE0E72CE0 EQ PUSH2 0x11C JUMPI JUMPDEST PUSH0 DUP1 REVERT JUMPDEST PUSH2 0x7E PUSH1 0x4 DUP1 CALLDATASIZE SUB DUP2 ADD SWAP1 PUSH2 0x79 SWAP2 SWAP1 PUSH2 0xEED JUMP JUMPDEST PUSH2 0x138 JUMP JUMPDEST STOP JUMPDEST PUSH2 0x9A PUSH1 0x4 DUP1 CALLDATASIZE SUB DUP2 ADD SWAP1 PUSH2 0x95 SWAP2 SWAP1 PUSH2 0x1054 JUMP JUMPDEST PUSH2 0x326 JUMP JUMPDEST STOP JUMPDEST PUSH2 0xB6 PUSH1 0x4 DUP1 CALLDATASIZE SUB DUP2 ADD SWAP1 PUSH2 0xB1 SWAP2 SWAP1 PUSH2 0x10F8 JUMP JUMPDEST PUSH2 0x4A7 JUMP JUMPDEST PUSH1 0x40 MLOAD PUSH2 0xC3 SWAP2 SWAP1 PUSH2 0x1188 JUMP JUMPDEST PUSH1 0x40 MLOAD DUP1 SWAP2 SUB SWAP1 RETURN JUMPDEST PUSH2 0xE6 PUSH1 0x4 DUP1 CALLDATASIZE SUB DUP2 ADD SWAP1 PUSH2 0xE1 SWAP2 SWAP1 PUSH2 0xEED JUMP JUMPDEST PUSH2 0x550 JUMP JUMPDEST PUSH1 0x40 MLOAD PUSH2 0xF7 SWAP6 SWAP5 SWAP4 SWAP3 SWAP2 SWAP1 PUSH2 0x1233 JUMP JUMPDEST PUSH1 0x40 MLOAD DUP1 SWAP2 SUB SWAP1 RETURN JUMPDEST PUSH2 0x11A PUSH1 0x4 DUP1 CALLDATASIZE SUB DUP2 ADD SWAP1 PUSH2 0x115 SWAP2 SWAP1 PUSH2 0xEED JUMP JUMPDEST PUSH2 0x81F JUMP JUMPDEST STOP JUMPDEST PUSH2 0x136 PUSH1 0x4 DUP1 CALLDATASIZE SUB DUP2 ADD SWAP1 PUSH2 0x131 SWAP2 SWAP1 PUSH2 0xEED JUMP JUMPDEST PUSH2 0xC95 JUMP JUMPDEST STOP JUMPDEST PUSH0 DUP1 SLOAD SWAP1 PUSH2 0x100 EXP SWAP1 DIV PUSH20 0xFFFFFFFFFFFFFFFFFFFFFFFFFFFFFFFFFFFFFFFF AND PUSH20 0xFFFFFFFFFFFFFFFFFFFFFFFFFFFFFFFFFFFFFFFF AND CALLER PUSH20 0xFFFFFFFFFFFFFFFFFFFFFFFFFFFFFFFFFFFFFFFF AND SUB PUSH2 0x1C5 JUMPI PUSH1 0x40 MLOAD PUSH32 0x8C379A000000000000000000000000000000000000000000000000000000000 DUP2 MSTORE PUSH1 0x4 ADD PUSH2 0x1BC SWAP1 PUSH2 0x12E3 JUMP JUMPDEST PUSH1 0x40 MLOAD DUP1 SWAP2 SUB SWAP1 REVERT JUMPDEST PUSH1 0x1 PUSH0 SWAP1 SLOAD SWAP1 PUSH2 0x100 EXP SWAP1 DIV PUSH20 0xFFFFFFFFFFFFFFFFFFFFFFFFFFFFFFFFFFFFFFFF AND PUSH20 0xFFFFFFFFFFFFFFFFFFFFFFFFFFFFFFFFFFFFFFFF AND CALLER PUSH20 0xFFFFFFFFFFFFFFFFFFFFFFFFFFFFFFFFFFFFFFFF AND SUB PUSH2 0x254 JUMPI PUSH1 0x40 MLOAD PUSH32 0x8C379A000000000000000000000000000000000000000000000000000000000 DUP2 MSTORE PUSH1 0x4 ADD PUSH2 0x24B SWAP1 PUSH2 0x12E3 JUMP JUMPDEST PUSH1 0x40 MLOAD DUP1 SWAP2 SUB SWAP1 REVERT JUMPDEST PUSH1 0x2 PUSH0 SWAP1 SLOAD SWAP1 PUSH2 0x100 EXP SWAP1 DIV PUSH20 0xFFFFFFFFFFFFFFFFFFFFFFFFFFFFFFFFFFFFFFFF AND PUSH20 0xFFFFFFFFFFFFFFFFFFFFFFFFFFFFFFFFFFFFFFFF AND CALLER PUSH20 0xFFFFFFFFFFFFFFFFFFFFFFFFFFFFFFFFFFFFFFFF AND EQ PUSH2 0x2E3 JUMPI PUSH1 0x40 MLOAD PUSH32 0x8C379A000000000000000000000000000000000000000000000000000000000 DUP2 MSTORE PUSH1 0x4 ADD PUSH2 0x2DA SWAP1 PUSH2 0x1371 JUMP JUMPDEST PUSH1 0x40 MLOAD DUP1 SWAP2 SUB SWAP1 REVERT JUMPDEST DUP1 PUSH1 0x1 PUSH0 PUSH2 0x100 EXP DUP2 SLOAD DUP2 PUSH20 0xFFFFFFFFFFFFFFFFFFFFFFFFFFFFFFFFFFFFFFFF MUL NOT AND SWAP1 DUP4 PUSH20 0xFFFFFFFFFFFFFFFFFFFFFFFFFFFFFFFFFFFFFFFF AND MUL OR SWAP1 SSTORE POP POP JUMP JUMPDEST PUSH0 CALLER SWAP1 POP PUSH0 DUP1 SLOAD SWAP1 PUSH2 0x100 EXP SWAP1 DIV PUSH20 0xFFFFFFFFFFFFFFFFFFFFFFFFFFFFFFFFFFFFFFFF AND PUSH20 0xFFFFFFFFFFFFFFFFFFFFFFFFFFFFFFFFFFFFFFFF AND PUSH4 0xB48FF0F1 DUP6 DUP6 DUP6 DUP6 PUSH1 0x40 MLOAD DUP6 PUSH4 0xFFFFFFFF AND PUSH1 0xE0 SHL DUP2 MSTORE PUSH1 0x4 ADD PUSH2 0x388 SWAP5 SWAP4 SWAP3 SWAP2 SWAP1 PUSH2 0x139E JUMP JUMPDEST PUSH0 PUSH1 0x40 MLOAD DUP1 DUP4 SUB DUP2 PUSH0 DUP8 DUP1 EXTCODESIZE ISZERO DUP1 ISZERO PUSH2 0x39F JUMPI PUSH0 DUP1 REVERT JUMPDEST POP GAS CALL ISZERO DUP1 ISZERO PUSH2 0x3B1 JUMPI RETURNDATASIZE PUSH0 DUP1 RETURNDATACOPY RETURNDATASIZE PUSH0 REVERT JUMPDEST POP POP POP POP PUSH1 0x1 PUSH0 SWAP1 SLOAD SWAP1 PUSH2 0x100 EXP SWAP1 DIV PUSH20 0xFFFFFFFFFFFFFFFFFFFFFFFFFFFFFFFFFFFFFFFF AND PUSH20 0xFFFFFFFFFFFFFFFFFFFFFFFFFFFFFFFFFFFFFFFF AND PUSH4 0xA9059CBB DUP3 PUSH1 0x64 PUSH1 0x40 MLOAD DUP4 PUSH4 0xFFFFFFFF AND PUSH1 0xE0 SHL DUP2 MSTORE PUSH1 0x4 ADD PUSH2 0x412 SWAP3 SWAP2 SWAP1 PUSH2 0x1438 JUMP JUMPDEST PUSH1 0x20 PUSH1 0x40 MLOAD DUP1 DUP4 SUB DUP2 PUSH0 DUP8 GAS CALL ISZERO DUP1 ISZERO PUSH2 0x42E JUMPI RETURNDATASIZE PUSH0 DUP1 RETURNDATACOPY RETURNDATASIZE PUSH0 REVERT JUMPDEST POP POP POP POP PUSH1 0x40 MLOAD RETURNDATASIZE PUSH1 0x1F NOT PUSH1 0x1F DUP3 ADD AND DUP3 ADD DUP1 PUSH1 0x40 MSTORE POP DUP2 ADD SWAP1 PUSH2 0x452 SWAP2 SWAP1 PUSH2 0x1489 JUMP JUMPDEST POP DUP1 PUSH20 0xFFFFFFFFFFFFFFFFFFFFFFFFFFFFFFFFFFFFFFFF AND PUSH32 0xF22DC42214BDB40424E8878E8F5ADCC3527B2F9492541D5BCD680B89CC51BD26 DUP6 PUSH1 0x40 MLOAD PUSH2 0x499 SWAP2 SWAP1 PUSH2 0x14FE JUMP JUMPDEST PUSH1 0x40 MLOAD DUP1 SWAP2 SUB SWAP1 LOG2 POP POP POP POP JUMP JUMPDEST PUSH0 DUP1 CALLER SWAP1 POP PUSH0 DUP1 SLOAD SWAP1 PUSH2 0x100 EXP SWAP1 DIV PUSH20 0xFFFFFFFFFFFFFFFFFFFFFFFFFFFFFFFFFFFFFFFF AND PUSH20 0xFFFFFFFFFFFFFFFFFFFFFFFFFFFFFFFFFFFFFFFF AND PUSH4 0x6F22B04 DUP3 DUP7 DUP7 PUSH1 0x40 MLOAD DUP5 PUSH4 0xFFFFFFFF AND PUSH1 0xE0 SHL DUP2 MSTORE PUSH1 0x4 ADD PUSH2 0x508 SWAP4 SWAP3 SWAP2 SWAP1 PUSH2 0x1531 JUMP JUMPDEST PUSH1 0x20 PUSH1 0x40 MLOAD DUP1 DUP4 SUB DUP2 DUP7 GAS STATICCALL ISZERO DUP1 ISZERO PUSH2 0x523 JUMPI RETURNDATASIZE PUSH0 DUP1 RETURNDATACOPY RETURNDATASIZE PUSH0 REVERT JUMPDEST POP POP POP POP PUSH1 0x40 MLOAD RETURNDATASIZE PUSH1 0x1F NOT PUSH1 0x1F DUP3 ADD AND DUP3 ADD DUP1 PUSH1 0x40 MSTORE POP DUP2 ADD SWAP1 PUSH2 0x547 SWAP2 SWAP1 PUSH2 0x1489 JUMP JUMPDEST SWAP2 POP POP SWAP3 SWAP2 POP POP JUMP JUMPDEST PUSH0 PUSH1 0x60 DUP1 PUSH1 0x60 PUSH0 DUP6 PUSH0 DUP1 SLOAD SWAP1 PUSH2 0x100 EXP SWAP1 DIV PUSH20 0xFFFFFFFFFFFFFFFFFFFFFFFFFFFFFFFFFFFFFFFF AND PUSH20 0xFFFFFFFFFFFFFFFFFFFFFFFFFFFFFFFFFFFFFFFF AND CALLER PUSH20 0xFFFFFFFFFFFFFFFFFFFFFFFFFFFFFFFFFFFFFFFF AND SUB PUSH2 0x5E5 JUMPI PUSH1 0x40 MLOAD PUSH32 0x8C379A000000000000000000000000000000000000000000000000000000000 DUP2 MSTORE PUSH1 0x4 ADD PUSH2 0x5DC SWAP1 PUSH2 0x12E3 JUMP JUMPDEST PUSH1 0x40 MLOAD DUP1 SWAP2 SUB SWAP1 REVERT JUMPDEST PUSH1 0x1 PUSH0 SWAP1 SLOAD SWAP1 PUSH2 0x100 EXP SWAP1 DIV PUSH20 0xFFFFFFFFFFFFFFFFFFFFFFFFFFFFFFFFFFFFFFFF AND PUSH20 0xFFFFFFFFFFFFFFFFFFFFFFFFFFFFFFFFFFFFFFFF AND CALLER PUSH20 0xFFFFFFFFFFFFFFFFFFFFFFFFFFFFFFFFFFFFFFFF AND SUB PUSH2 0x674 JUMPI PUSH1 0x40 MLOAD PUSH32 0x8C379A000000000000000000000000000000000000000000000000000000000 DUP2 MSTORE PUSH1 0x4 ADD PUSH2 0x66B SWAP1 PUSH2 0x12E3 JUMP JUMPDEST PUSH1 0x40 MLOAD DUP1 SWAP2 SUB SWAP1 REVERT JUMPDEST PUSH1 0x2 PUSH0 SWAP1 SLOAD SWAP1 PUSH2 0x100 EXP SWAP1 DIV PUSH20 0xFFFFFFFFFFFFFFFFFFFFFFFFFFFFFFFFFFFFFFFF AND PUSH20 0xFFFFFFFFFFFFFFFFFFFFFFFFFFFFFFFFFFFFFFFF AND CALLER PUSH20 0xFFFFFFFFFFFFFFFFFFFFFFFFFFFFFFFFFFFFFFFF AND SUB PUSH2 0x703 JUMPI PUSH1 0x40 MLOAD PUSH32 0x8C379A000000000000000000000000000000000000000000000000000000000 DUP2 MSTORE PUSH1 0x4 ADD PUSH2 0x6FA SWAP1 PUSH2 0x1371 JUMP JUMPDEST PUSH1 0x40 MLOAD DUP1 SWAP2 SUB SWAP1 REVERT JUMPDEST DUP1 PUSH20 0xFFFFFFFFFFFFFFFFFFFFFFFFFFFFFFFFFFFFFFFF AND CALLER PUSH20 0xFFFFFFFFFFFFFFFFFFFFFFFFFFFFFFFFFFFFFFFF AND EQ PUSH2 0x771 JUMPI PUSH1 0x40 MLOAD PUSH32 0x8C379A000000000000000000000000000000000000000000000000000000000 DUP2 MSTORE PUSH1 0x4 ADD PUSH2 0x768 SWAP1 PUSH2 0x15E4 JUMP JUMPDEST PUSH1 0x40 MLOAD DUP1 SWAP2 SUB SWAP1 REVERT JUMPDEST PUSH0 DUP1 SLOAD SWAP1 PUSH2 0x100 EXP SWAP1 DIV PUSH20 0xFFFFFFFFFFFFFFFFFFFFFFFFFFFFFFFFFFFFFFFF AND PUSH20 0xFFFFFFFFFFFFFFFFFFFFFFFFFFFFFFFFFFFFFFFF AND PUSH4 0x6F77926B DUP9 PUSH1 0x40 MLOAD DUP3 PUSH4 0xFFFFFFFF AND PUSH1 0xE0 SHL DUP2 MSTORE PUSH1 0x4 ADD PUSH2 0x7C9 SWAP2 SWAP1 PUSH2 0x1602 JUMP JUMPDEST PUSH0 PUSH1 0x40 MLOAD DUP1 DUP4 SUB DUP2 DUP7 GAS STATICCALL ISZERO DUP1 ISZERO PUSH2 0x7E3 JUMPI RETURNDATASIZE PUSH0 DUP1 RETURNDATACOPY RETURNDATASIZE PUSH0 REVERT JUMPDEST POP POP POP POP PUSH1 0x40 MLOAD RETURNDATASIZE PUSH0 DUP3 RETURNDATACOPY RETURNDATASIZE PUSH1 0x1F NOT PUSH1 0x1F DUP3 ADD AND DUP3 ADD DUP1 PUSH1 0x40 MSTORE POP DUP2 ADD SWAP1 PUSH2 0x80B SWAP2 SWAP1 PUSH2 0x16B3 JUMP JUMPDEST SWAP6 POP SWAP6 POP SWAP6 POP SWAP6 POP SWAP6 POP POP SWAP2 SWAP4 SWAP6 SWAP1 SWAP3 SWAP5 POP JUMP JUMPDEST DUP1 PUSH0 DUP1 SLOAD SWAP1 PUSH2 0x100 EXP SWAP1 DIV PUSH20 0xFFFFFFFFFFFFFFFFFFFFFFFFFFFFFFFFFFFFFFFF AND PUSH20 0xFFFFFFFFFFFFFFFFFFFFFFFFFFFFFFFFFFFFFFFF AND CALLER PUSH20 0xFFFFFFFFFFFFFFFFFFFFFFFFFFFFFFFFFFFFFFFF AND SUB PUSH2 0x8AD JUMPI PUSH1 0x40 MLOAD PUSH32 0x8C379A000000000000000000000000000000000000000000000000000000000 DUP2 MSTORE PUSH1 0x4 ADD PUSH2 0x8A4 SWAP1 PUSH2 0x12E3 JUMP JUMPDEST PUSH1 0x40 MLOAD DUP1 SWAP2 SUB SWAP1 REVERT JUMPDEST PUSH1 0x1 PUSH0 SWAP1 SLOAD SWAP1 PUSH2 0x100 EXP SWAP1 DIV PUSH20 0xFFFFFFFFFFFFFFFFFFFFFFFFFFFFFFFFFFFFFFFF AND PUSH20 0xFFFFFFFFFFFFFFFFFFFFFFFFFFFFFFFFFFFFFFFF AND CALLER PUSH20 0xFFFFFFFFFFFFFFFFFFFFFFFFFFFFFFFFFFFFFFFF AND SUB PUSH2 0x93C JUMPI PUSH1 0x40 MLOAD PUSH32 0x8C379A000000000000000000000000000000000000000000000000000000000 DUP2 MSTORE PUSH1 0x4 ADD PUSH2 0x933 SWAP1 PUSH2 0x12E3 JUMP JUMPDEST PUSH1 0x40 MLOAD DUP1 SWAP2 SUB SWAP1 REVERT JUMPDEST PUSH1 0x2 PUSH0 SWAP1 SLOAD SWAP1 PUSH2 0x100 EXP SWAP1 DIV PUSH20 0xFFFFFFFFFFFFFFFFFFFFFFFFFFFFFFFFFFFFFFFF AND PUSH20 0xFFFFFFFFFFFFFFFFFFFFFFFFFFFFFFFFFFFFFFFF AND CALLER PUSH20 0xFFFFFFFFFFFFFFFFFFFFFFFFFFFFFFFFFFFFFFFF AND SUB PUSH2 0x9CB JUMPI PUSH1 0x40 MLOAD PUSH32 0x8C379A000000000000000000000000000000000000000000000000000000000 DUP2 MSTORE PUSH1 0x4 ADD PUSH2 0x9C2 SWAP1 PUSH2 0x1371 JUMP JUMPDEST PUSH1 0x40 MLOAD DUP1 SWAP2 SUB SWAP1 REVERT JUMPDEST DUP1 PUSH20 0xFFFFFFFFFFFFFFFFFFFFFFFFFFFFFFFFFFFFFFFF AND CALLER PUSH20 0xFFFFFFFFFFFFFFFFFFFFFFFFFFFFFFFFFFFFFFFF AND EQ PUSH2 0xA39 JUMPI PUSH1 0x40 MLOAD PUSH32 0x8C379A000000000000000000000000000000000000000000000000000000000 DUP2 MSTORE PUSH1 0x4 ADD PUSH2 0xA30 SWAP1 PUSH2 0x15E4 JUMP JUMPDEST PUSH1 0x40 MLOAD DUP1 SWAP2 SUB SWAP1 REVERT JUMPDEST PUSH0 DUP1 SLOAD SWAP1 PUSH2 0x100 EXP SWAP1 DIV PUSH20 0xFFFFFFFFFFFFFFFFFFFFFFFFFFFFFFFFFFFFFFFF AND PUSH20 0xFFFFFFFFFFFFFFFFFFFFFFFFFFFFFFFFFFFFFFFF AND PUSH4 0x5C60F226 DUP4 PUSH1 0x40 MLOAD DUP3 PUSH4 0xFFFFFFFF AND PUSH1 0xE0 SHL DUP2 MSTORE PUSH1 0x4 ADD PUSH2 0xA91 SWAP2 SWAP1 PUSH2 0x1602 JUMP JUMPDEST PUSH1 0x20 PUSH1 0x40 MLOAD DUP1 DUP4 SUB DUP2 PUSH0 DUP8 GAS CALL ISZERO DUP1 ISZERO PUSH2 0xAAD JUMPI RETURNDATASIZE PUSH0 DUP1 RETURNDATACOPY RETURNDATASIZE PUSH0 REVERT JUMPDEST POP POP POP POP PUSH1 0x40 MLOAD RETURNDATASIZE PUSH1 0x1F NOT PUSH1 0x1F DUP3 ADD AND DUP3 ADD DUP1 PUSH1 0x40 MSTORE POP DUP2 ADD SWAP1 PUSH2 0xAD1 SWAP2 SWAP1 PUSH2 0x1489 JUMP JUMPDEST PUSH2 0xB10 JUMPI PUSH1 0x40 MLOAD PUSH32 0x8C379A000000000000000000000000000000000000000000000000000000000 DUP2 MSTORE PUSH1 0x4 ADD PUSH2 0xB07 SWAP1 PUSH2 0x17C8 JUMP JUMPDEST PUSH1 0x40 MLOAD DUP1 SWAP2 SUB SWAP1 REVERT JUMPDEST PUSH1 0x1 PUSH0 SWAP1 SLOAD SWAP1 PUSH2 0x100 EXP SWAP1 DIV PUSH20 0xFFFFFFFFFFFFFFFFFFFFFFFFFFFFFFFFFFFFFFFF AND PUSH20 0xFFFFFFFFFFFFFFFFFFFFFFFFFFFFFFFFFFFFFFFF AND PUSH4 0xD1DF306C DUP4 PUSH1 0x1 PUSH0 SWAP1 SLOAD SWAP1 PUSH2 0x100 EXP SWAP1 DIV PUSH20 0xFFFFFFFFFFFFFFFFFFFFFFFFFFFFFFFFFFFFFFFF AND PUSH20 0xFFFFFFFFFFFFFFFFFFFFFFFFFFFFFFFFFFFFFFFF AND PUSH4 0x70A08231 DUP7 PUSH1 0x40 MLOAD DUP3 PUSH4 0xFFFFFFFF AND PUSH1 0xE0 SHL DUP2 MSTORE PUSH1 0x4 ADD PUSH2 0xBA8 SWAP2 SWAP1 PUSH2 0x1602 JUMP JUMPDEST PUSH1 0x20 PUSH1 0x40 MLOAD DUP1 DUP4 SUB DUP2 DUP7 GAS STATICCALL ISZERO DUP1 ISZERO PUSH2 0xBC3 JUMPI RETURNDATASIZE PUSH0 DUP1 RETURNDATACOPY RETURNDATASIZE PUSH0 REVERT JUMPDEST POP POP POP POP PUSH1 0x40 MLOAD RETURNDATASIZE PUSH1 0x1F NOT PUSH1 0x1F DUP3 ADD AND DUP3 ADD DUP1 PUSH1 0x40 MSTORE POP DUP2 ADD SWAP1 PUSH2 0xBE7 SWAP2 SWAP1 PUSH2 0x17E6 JUMP JUMPDEST PUSH1 0x40 MLOAD DUP4 PUSH4 0xFFFFFFFF AND PUSH1 0xE0 SHL DUP2 MSTORE PUSH1 0x4 ADD PUSH2 0xC04 SWAP3 SWAP2 SWAP1 PUSH2 0x1811 JUMP JUMPDEST PUSH1 0x20 PUSH1 0x40 MLOAD DUP1 DUP4 SUB DUP2 PUSH0 DUP8 GAS CALL ISZERO DUP1 ISZERO PUSH2 0xC20 JUMPI RETURNDATASIZE PUSH0 DUP1 RETURNDATACOPY RETURNDATASIZE PUSH0 REVERT JUMPDEST POP POP POP POP PUSH1 0x40 MLOAD RETURNDATASIZE PUSH1 0x1F NOT PUSH1 0x1F DUP3 ADD AND DUP3 ADD DUP1 PUSH1 0x40 MSTORE POP DUP2 ADD SWAP1 PUSH2 0xC44 SWAP2 SWAP1 PUSH2 0x1489 JUMP JUMPDEST POP DUP2 PUSH20 0xFFFFFFFFFFFFFFFFFFFFFFFFFFFFFFFFFFFFFFFF AND PUSH32 0xBE682212FB6E5C3BEA473D00509A83D114C10125AE72B32E2F83358613F009E0 PUSH1 0x40 MLOAD PUSH2 0xC89 SWAP1 PUSH2 0x1882 JUMP JUMPDEST PUSH1 0x40 MLOAD DUP1 SWAP2 SUB SWAP1 LOG2 POP POP JUMP JUMPDEST PUSH0 DUP1 SLOAD SWAP1 PUSH2 0x100 EXP SWAP1 DIV PUSH20 0xFFFFFFFFFFFFFFFFFFFFFFFFFFFFFFFFFFFFFFFF AND PUSH20 0xFFFFFFFFFFFFFFFFFFFFFFFFFFFFFFFFFFFFFFFF AND CALLER PUSH20 0xFFFFFFFFFFFFFFFFFFFFFFFFFFFFFFFFFFFFFFFF AND SUB PUSH2 0xD22 JUMPI PUSH1 0x40 MLOAD PUSH32 0x8C379A000000000000000000000000000000000000000000000000000000000 DUP2 MSTORE PUSH1 0x4 ADD PUSH2 0xD19 SWAP1 PUSH2 0x12E3 JUMP JUMPDEST PUSH1 0x40 MLOAD DUP1 SWAP2 SUB SWAP1 REVERT JUMPDEST PUSH1 0x1 PUSH0 SWAP1 SLOAD SWAP1 PUSH2 0x100 EXP SWAP1 DIV PUSH20 0xFFFFFFFFFFFFFFFFFFFFFFFFFFFFFFFFFFFFFFFF AND PUSH20 0xFFFFFFFFFFFFFFFFFFFFFFFFFFFFFFFFFFFFFFFF AND CALLER PUSH20 0xFFFFFFFFFFFFFFFFFFFFFFFFFFFFFFFFFFFFFFFF AND SUB PUSH2 0xDB1 JUMPI PUSH1 0x40 MLOAD PUSH32 0x8C379A000000000000000000000000000000000000000000000000000000000 DUP2 MSTORE PUSH1 0x4 ADD PUSH2 0xDA8 SWAP1 PUSH2 0x12E3 JUMP JUMPDEST PUSH1 0x40 MLOAD DUP1 SWAP2 SUB SWAP1 REVERT JUMPDEST PUSH1 0x2 PUSH0 SWAP1 SLOAD SWAP1 PUSH2 0x100 EXP SWAP1 DIV PUSH20 0xFFFFFFFFFFFFFFFFFFFFFFFFFFFFFFFFFFFFFFFF AND PUSH20 0xFFFFFFFFFFFFFFFFFFFFFFFFFFFFFFFFFFFFFFFF AND CALLER PUSH20 0xFFFFFFFFFFFFFFFFFFFFFFFFFFFFFFFFFFFFFFFF AND EQ PUSH2 0xE40 JUMPI PUSH1 0x40 MLOAD PUSH32 0x8C379A000000000000000000000000000000000000000000000000000000000 DUP2 MSTORE PUSH1 0x4 ADD PUSH2 0xE37 SWAP1 PUSH2 0x1371 JUMP JUMPDEST PUSH1 0x40 MLOAD DUP1 SWAP2 SUB SWAP1 REVERT JUMPDEST DUP1 PUSH0 DUP1 PUSH2 0x100 EXP DUP2 SLOAD DUP2 PUSH20 0xFFFFFFFFFFFFFFFFFFFFFFFFFFFFFFFFFFFFFFFF MUL NOT AND SWAP1 DUP4 PUSH20 0xFFFFFFFFFFFFFFFFFFFFFFFFFFFFFFFFFFFFFFFF AND MUL OR SWAP1 SSTORE POP POP JUMP JUMPDEST PUSH0 PUSH1 0x40 MLOAD SWAP1 POP SWAP1 JUMP JUMPDEST PUSH0 DUP1 REVERT JUMPDEST PUSH0 DUP1 REVERT JUMPDEST PUSH0 PUSH20 0xFFFFFFFFFFFFFFFFFFFFFFFFFFFFFFFFFFFFFFFF DUP3 AND SWAP1 POP SWAP2 SWAP1 POP JUMP JUMPDEST PUSH0 PUSH2 0xEBC DUP3 PUSH2 0xE93 JUMP JUMPDEST SWAP1 POP SWAP2 SWAP1 POP JUMP JUMPDEST PUSH2 0xECC DUP2 PUSH2 0xEB2 JUMP JUMPDEST DUP2 EQ PUSH2 0xED6 JUMPI PUSH0 DUP1 REVERT JUMPDEST POP JUMP JUMPDEST PUSH0 DUP2 CALLDATALOAD SWAP1 POP PUSH2 0xEE7 DUP2 PUSH2 0xEC3 JUMP JUMPDEST SWAP3 SWAP2 POP POP JUMP JUMPDEST PUSH0 PUSH1 0x20 DUP3 DUP5 SUB SLT ISZERO PUSH2 0xF02 JUMPI PUSH2 0xF01 PUSH2 0xE8B JUMP JUMPDEST JUMPDEST PUSH0 PUSH2 0xF0F DUP5 DUP3 DUP6 ADD PUSH2 0xED9 JUMP JUMPDEST SWAP2 POP POP SWAP3 SWAP2 POP POP JUMP JUMPDEST PUSH0 DUP1 REVERT JUMPDEST PUSH0 DUP1 REVERT JUMPDEST PUSH0 PUSH1 0x1F NOT PUSH1 0x1F DUP4 ADD AND SWAP1 POP SWAP2 SWAP1 POP JUMP JUMPDEST PUSH32 0x4E487B7100000000000000000000000000000000000000000000000000000000 PUSH0 MSTORE PUSH1 0x41 PUSH1 0x4 MSTORE PUSH1 0x24 PUSH0 REVERT JUMPDEST PUSH2 0xF66 DUP3 PUSH2 0xF20 JUMP JUMPDEST DUP2 ADD DUP2 DUP2 LT PUSH8 0xFFFFFFFFFFFFFFFF DUP3 GT OR ISZERO PUSH2 0xF85 JUMPI PUSH2 0xF84 PUSH2 0xF30 JUMP JUMPDEST JUMPDEST DUP1 PUSH1 0x40 MSTORE POP POP POP JUMP JUMPDEST PUSH0 PUSH2 0xF97 PUSH2 0xE82 JUMP JUMPDEST SWAP1 POP PUSH2 0xFA3 DUP3 DUP3 PUSH2 0xF5D JUMP JUMPDEST SWAP2 SWAP1 POP JUMP JUMPDEST PUSH0 PUSH8 0xFFFFFFFFFFFFFFFF DUP3 GT ISZERO PUSH2 0xFC2 JUMPI PUSH2 0xFC1 PUSH2 0xF30 JUMP JUMPDEST JUMPDEST PUSH2 0xFCB DUP3 PUSH2 0xF20 JUMP JUMPDEST SWAP1 POP PUSH1 0x20 DUP2 ADD SWAP1 POP SWAP2 SWAP1 POP JUMP JUMPDEST DUP3 DUP2 DUP4 CALLDATACOPY PUSH0 DUP4 DUP4 ADD MSTORE POP POP POP JUMP JUMPDEST PUSH0 PUSH2 0xFF8 PUSH2 0xFF3 DUP5 PUSH2 0xFA8 JUMP JUMPDEST PUSH2 0xF8E JUMP JUMPDEST SWAP1 POP DUP3 DUP2 MSTORE PUSH1 0x20 DUP2 ADD DUP5 DUP5 DUP5 ADD GT ISZERO PUSH2 0x1014 JUMPI PUSH2 0x1013 PUSH2 0xF1C JUMP JUMPDEST JUMPDEST PUSH2 0x101F DUP5 DUP3 DUP6 PUSH2 0xFD8 JUMP JUMPDEST POP SWAP4 SWAP3 POP POP POP JUMP JUMPDEST PUSH0 DUP3 PUSH1 0x1F DUP4 ADD SLT PUSH2 0x103B JUMPI PUSH2 0x103A PUSH2 0xF18 JUMP JUMPDEST JUMPDEST DUP2 CALLDATALOAD PUSH2 0x104B DUP5 DUP3 PUSH1 0x20 DUP7 ADD PUSH2 0xFE6 JUMP JUMPDEST SWAP2 POP POP SWAP3 SWAP2 POP POP JUMP JUMPDEST PUSH0 DUP1 PUSH0 PUSH1 0x60 DUP5 DUP7 SUB SLT ISZERO PUSH2 0x106B JUMPI PUSH2 0x106A PUSH2 0xE8B JUMP JUMPDEST JUMPDEST PUSH0 DUP5 ADD CALLDATALOAD PUSH8 0xFFFFFFFFFFFFFFFF DUP2 GT ISZERO PUSH2 0x1088 JUMPI PUSH2 0x1087 PUSH2 0xE8F JUMP JUMPDEST JUMPDEST PUSH2 0x1094 DUP7 DUP3 DUP8 ADD PUSH2 0x1027 JUMP JUMPDEST SWAP4 POP POP PUSH1 0x20 DUP5 ADD CALLDATALOAD PUSH8 0xFFFFFFFFFFFFFFFF DUP2 GT ISZERO PUSH2 0x10B5 JUMPI PUSH2 0x10B4 PUSH2 0xE8F JUMP JUMPDEST JUMPDEST PUSH2 0x10C1 DUP7 DUP3 DUP8 ADD PUSH2 0x1027 JUMP JUMPDEST SWAP3 POP POP PUSH1 0x40 DUP5 ADD CALLDATALOAD PUSH8 0xFFFFFFFFFFFFFFFF DUP2 GT ISZERO PUSH2 0x10E2 JUMPI PUSH2 0x10E1 PUSH2 0xE8F JUMP JUMPDEST JUMPDEST PUSH2 0x10EE DUP7 DUP3 DUP8 ADD PUSH2 0x1027 JUMP JUMPDEST SWAP2 POP POP SWAP3 POP SWAP3 POP SWAP3 JUMP JUMPDEST PUSH0 DUP1 PUSH1 0x40 DUP4 DUP6 SUB SLT ISZERO PUSH2 0x110E JUMPI PUSH2 0x110D PUSH2 0xE8B JUMP JUMPDEST JUMPDEST PUSH0 DUP4 ADD CALLDATALOAD PUSH8 0xFFFFFFFFFFFFFFFF DUP2 GT ISZERO PUSH2 0x112B JUMPI PUSH2 0x112A PUSH2 0xE8F JUMP JUMPDEST JUMPDEST PUSH2 0x1137 DUP6 DUP3 DUP7 ADD PUSH2 0x1027 JUMP JUMPDEST SWAP3 POP POP PUSH1 0x20 DUP4 ADD CALLDATALOAD PUSH8 0xFFFFFFFFFFFFFFFF DUP2 GT ISZERO PUSH2 0x1158 JUMPI PUSH2 0x1157 PUSH2 0xE8F JUMP JUMPDEST JUMPDEST PUSH2 0x1164 DUP6 DUP3 DUP7 ADD PUSH2 0x1027 JUMP JUMPDEST SWAP2 POP POP SWAP3 POP SWAP3 SWAP1 POP JUMP JUMPDEST PUSH0 DUP2 ISZERO ISZERO SWAP1 POP SWAP2 SWAP1 POP JUMP JUMPDEST PUSH2 0x1182 DUP2 PUSH2 0x116E JUMP JUMPDEST DUP3 MSTORE POP POP JUMP JUMPDEST PUSH0 PUSH1 0x20 DUP3 ADD SWAP1 POP PUSH2 0x119B PUSH0 DUP4 ADD DUP5 PUSH2 0x1179 JUMP JUMPDEST SWAP3 SWAP2 POP POP JUMP JUMPDEST PUSH0 DUP2 SWAP1 POP SWAP2 SWAP1 POP JUMP JUMPDEST PUSH2 0x11B3 DUP2 PUSH2 0x11A1 JUMP JUMPDEST DUP3 MSTORE POP POP JUMP JUMPDEST PUSH0 DUP2 MLOAD SWAP1 POP SWAP2 SWAP1 POP JUMP JUMPDEST PUSH0 DUP3 DUP3 MSTORE PUSH1 0x20 DUP3 ADD SWAP1 POP SWAP3 SWAP2 POP POP JUMP JUMPDEST PUSH0 JUMPDEST DUP4 DUP2 LT ISZERO PUSH2 0x11F0 JUMPI DUP1 DUP3 ADD MLOAD DUP2 DUP5 ADD MSTORE PUSH1 0x20 DUP2 ADD SWAP1 POP PUSH2 0x11D5 JUMP JUMPDEST PUSH0 DUP5 DUP5 ADD MSTORE POP POP POP POP JUMP JUMPDEST PUSH0 PUSH2 0x1205 DUP3 PUSH2 0x11B9 JUMP JUMPDEST PUSH2 0x120F DUP2 DUP6 PUSH2 0x11C3 JUMP JUMPDEST SWAP4 POP PUSH2 0x121F DUP2 DUP6 PUSH1 0x20 DUP7 ADD PUSH2 0x11D3 JUMP JUMPDEST PUSH2 0x1228 DUP2 PUSH2 0xF20 JUMP JUMPDEST DUP5 ADD SWAP2 POP POP SWAP3 SWAP2 POP POP JUMP JUMPDEST PUSH0 PUSH1 0xA0 DUP3 ADD SWAP1 POP PUSH2 0x1246 PUSH0 DUP4 ADD DUP9 PUSH2 0x11AA JUMP JUMPDEST DUP2 DUP2 SUB PUSH1 0x20 DUP4 ADD MSTORE PUSH2 0x1258 DUP2 DUP8 PUSH2 0x11FB JUMP JUMPDEST SWAP1 POP DUP2 DUP2 SUB PUSH1 0x40 DUP4 ADD MSTORE PUSH2 0x126C DUP2 DUP7 PUSH2 0x11FB JUMP JUMPDEST SWAP1 POP DUP2 DUP2 SUB PUSH1 0x60 DUP4 ADD MSTORE PUSH2 0x1280 DUP2 DUP6 PUSH2 0x11FB JUMP JUMPDEST SWAP1 POP PUSH2 0x128F PUSH1 0x80 DUP4 ADD DUP5 PUSH2 0x11AA JUMP JUMPDEST SWAP7 SWAP6 POP POP POP POP POP POP JUMP JUMPDEST PUSH32 0x41646472657373204E6F742076616C6964210000000000000000000000000000 PUSH0 DUP3 ADD MSTORE POP JUMP JUMPDEST PUSH0 PUSH2 0x12CD PUSH1 0x12 DUP4 PUSH2 0x11C3 JUMP JUMPDEST SWAP2 POP PUSH2 0x12D8 DUP3 PUSH2 0x1299 JUMP JUMPDEST PUSH1 0x20 DUP3 ADD SWAP1 POP SWAP2 SWAP1 POP JUMP JUMPDEST PUSH0 PUSH1 0x20 DUP3 ADD SWAP1 POP DUP2 DUP2 SUB PUSH0 DUP4 ADD MSTORE PUSH2 0x12FA DUP2 PUSH2 0x12C1 JUMP JUMPDEST SWAP1 POP SWAP2 SWAP1 POP JUMP JUMPDEST PUSH32 0x2041646472657373206E6F742056616C69642C206974206973206F7267616E69 PUSH0 DUP3 ADD MSTORE PUSH32 0x7A6174696F6E2061646472657373000000000000000000000000000000000000 PUSH1 0x20 DUP3 ADD MSTORE POP JUMP JUMPDEST PUSH0 PUSH2 0x135B PUSH1 0x2E DUP4 PUSH2 0x11C3 JUMP JUMPDEST SWAP2 POP PUSH2 0x1366 DUP3 PUSH2 0x1301 JUMP JUMPDEST PUSH1 0x40 DUP3 ADD SWAP1 POP SWAP2 SWAP1 POP JUMP JUMPDEST PUSH0 PUSH1 0x20 DUP3 ADD SWAP1 POP DUP2 DUP2 SUB PUSH0 DUP4 ADD MSTORE PUSH2 0x1388 DUP2 PUSH2 0x134F JUMP JUMPDEST SWAP1 POP SWAP2 SWAP1 POP JUMP JUMPDEST PUSH2 0x1398 DUP2 PUSH2 0xEB2 JUMP JUMPDEST DUP3 MSTORE POP POP JUMP JUMPDEST PUSH0 PUSH1 0x80 DUP3 ADD SWAP1 POP DUP2 DUP2 SUB PUSH0 DUP4 ADD MSTORE PUSH2 0x13B6 DUP2 DUP8 PUSH2 0x11FB JUMP JUMPDEST SWAP1 POP DUP2 DUP2 SUB PUSH1 0x20 DUP4 ADD MSTORE PUSH2 0x13CA DUP2 DUP7 PUSH2 0x11FB JUMP JUMPDEST SWAP1 POP DUP2 DUP2 SUB PUSH1 0x40 DUP4 ADD MSTORE PUSH2 0x13DE DUP2 DUP6 PUSH2 0x11FB JUMP JUMPDEST SWAP1 POP PUSH2 0x13ED PUSH1 0x60 DUP4 ADD DUP5 PUSH2 0x138F JUMP JUMPDEST SWAP6 SWAP5 POP POP POP POP POP JUMP JUMPDEST PUSH0 DUP2 SWAP1 POP SWAP2 SWAP1 POP JUMP JUMPDEST PUSH0 DUP2 SWAP1 POP SWAP2 SWAP1 POP JUMP JUMPDEST PUSH0 PUSH2 0x1422 PUSH2 0x141D PUSH2 0x1418 DUP5 PUSH2 0x13F6 JUMP JUMPDEST PUSH2 0x13FF JUMP JUMPDEST PUSH2 0x11A1 JUMP JUMPDEST SWAP1 POP SWAP2 SWAP1 POP JUMP JUMPDEST PUSH2 0x1432 DUP2 PUSH2 0x1408 JUMP JUMPDEST DUP3 MSTORE POP POP JUMP JUMPDEST PUSH0 PUSH1 0x40 DUP3 ADD SWAP1 POP PUSH2 0x144B PUSH0 DUP4 ADD DUP6 PUSH2 0x138F JUMP JUMPDEST PUSH2 0x1458 PUSH1 0x20 DUP4 ADD DUP5 PUSH2 0x1429 JUMP JUMPDEST SWAP4 SWAP3 POP POP POP JUMP JUMPDEST PUSH2 0x1468 DUP2 PUSH2 0x116E JUMP JUMPDEST DUP2 EQ PUSH2 0x1472 JUMPI PUSH0 DUP1 REVERT JUMPDEST POP JUMP JUMPDEST PUSH0 DUP2 MLOAD SWAP1 POP PUSH2 0x1483 DUP2 PUSH2 0x145F JUMP JUMPDEST SWAP3 SWAP2 POP POP JUMP JUMPDEST PUSH0 PUSH1 0x20 DUP3 DUP5 SUB SLT ISZERO PUSH2 0x149E JUMPI PUSH2 0x149D PUSH2 0xE8B JUMP JUMPDEST JUMPDEST PUSH0 PUSH2 0x14AB DUP5 DUP3 DUP6 ADD PUSH2 0x1475 JUMP JUMPDEST SWAP2 POP POP SWAP3 SWAP2 POP POP JUMP JUMPDEST PUSH32 0x5573657220686173206265656E20726567697374657265642100000000000000 PUSH0 DUP3 ADD MSTORE POP JUMP JUMPDEST PUSH0 PUSH2 0x14E8 PUSH1 0x19 DUP4 PUSH2 0x11C3 JUMP JUMPDEST SWAP2 POP PUSH2 0x14F3 DUP3 PUSH2 0x14B4 JUMP JUMPDEST PUSH1 0x20 DUP3 ADD SWAP1 POP SWAP2 SWAP1 POP JUMP JUMPDEST PUSH0 PUSH1 0x40 DUP3 ADD SWAP1 POP DUP2 DUP2 SUB PUSH0 DUP4 ADD MSTORE PUSH2 0x1516 DUP2 DUP5 PUSH2 0x11FB JUMP JUMPDEST SWAP1 POP DUP2 DUP2 SUB PUSH1 0x20 DUP4 ADD MSTORE PUSH2 0x1529 DUP2 PUSH2 0x14DC JUMP JUMPDEST SWAP1 POP SWAP3 SWAP2 POP POP JUMP JUMPDEST PUSH0 PUSH1 0x60 DUP3 ADD SWAP1 POP PUSH2 0x1544 PUSH0 DUP4 ADD DUP7 PUSH2 0x138F JUMP JUMPDEST DUP2 DUP2 SUB PUSH1 0x20 DUP4 ADD MSTORE PUSH2 0x1556 DUP2 DUP6 PUSH2 0x11FB JUMP JUMPDEST SWAP1 POP DUP2 DUP2 SUB PUSH1 0x40 DUP4 ADD MSTORE PUSH2 0x156A DUP2 DUP5 PUSH2 0x11FB JUMP JUMPDEST SWAP1 POP SWAP5 SWAP4 POP POP POP POP JUMP JUMPDEST PUSH32 0x4F6E6C7920746865206163636F756E74206F776E65722063616E20706572666F PUSH0 DUP3 ADD MSTORE PUSH32 0x726D207468697320616374696F6E000000000000000000000000000000000000 PUSH1 0x20 DUP3 ADD MSTORE POP JUMP JUMPDEST PUSH0 PUSH2 0x15CE PUSH1 0x2E DUP4 PUSH2 0x11C3 JUMP JUMPDEST SWAP2 POP PUSH2 0x15D9 DUP3 PUSH2 0x1574 JUMP JUMPDEST PUSH1 0x40 DUP3 ADD SWAP1 POP SWAP2 SWAP1 POP JUMP JUMPDEST PUSH0 PUSH1 0x20 DUP3 ADD SWAP1 POP DUP2 DUP2 SUB PUSH0 DUP4 ADD MSTORE PUSH2 0x15FB DUP2 PUSH2 0x15C2 JUMP JUMPDEST SWAP1 POP SWAP2 SWAP1 POP JUMP JUMPDEST PUSH0 PUSH1 0x20 DUP3 ADD SWAP1 POP PUSH2 0x1615 PUSH0 DUP4 ADD DUP5 PUSH2 0x138F JUMP JUMPDEST SWAP3 SWAP2 POP POP JUMP JUMPDEST PUSH2 0x1624 DUP2 PUSH2 0x11A1 JUMP JUMPDEST DUP2 EQ PUSH2 0x162E JUMPI PUSH0 DUP1 REVERT JUMPDEST POP JUMP JUMPDEST PUSH0 DUP2 MLOAD SWAP1 POP PUSH2 0x163F DUP2 PUSH2 0x161B JUMP JUMPDEST SWAP3 SWAP2 POP POP JUMP JUMPDEST PUSH0 PUSH2 0x1657 PUSH2 0x1652 DUP5 PUSH2 0xFA8 JUMP JUMPDEST PUSH2 0xF8E JUMP JUMPDEST SWAP1 POP DUP3 DUP2 MSTORE PUSH1 0x20 DUP2 ADD DUP5 DUP5 DUP5 ADD GT ISZERO PUSH2 0x1673 JUMPI PUSH2 0x1672 PUSH2 0xF1C JUMP JUMPDEST JUMPDEST PUSH2 0x167E DUP5 DUP3 DUP6 PUSH2 0x11D3 JUMP JUMPDEST POP SWAP4 SWAP3 POP POP POP JUMP JUMPDEST PUSH0 DUP3 PUSH1 0x1F DUP4 ADD SLT PUSH2 0x169A JUMPI PUSH2 0x1699 PUSH2 0xF18 JUMP JUMPDEST JUMPDEST DUP2 MLOAD PUSH2 0x16AA DUP5 DUP3 PUSH1 0x20 DUP7 ADD PUSH2 0x1645 JUMP JUMPDEST SWAP2 POP POP SWAP3 SWAP2 POP POP JUMP JUMPDEST PUSH0 DUP1 PUSH0 DUP1 PUSH0 PUSH1 0xA0 DUP7 DUP9 SUB SLT ISZERO PUSH2 0x16CC JUMPI PUSH2 0x16CB PUSH2 0xE8B JUMP JUMPDEST JUMPDEST PUSH0 PUSH2 0x16D9 DUP9 DUP3 DUP10 ADD PUSH2 0x1631 JUMP JUMPDEST SWAP6 POP POP PUSH1 0x20 DUP7 ADD MLOAD PUSH8 0xFFFFFFFFFFFFFFFF DUP2 GT ISZERO PUSH2 0x16FA JUMPI PUSH2 0x16F9 PUSH2 0xE8F JUMP JUMPDEST JUMPDEST PUSH2 0x1706 DUP9 DUP3 DUP10 ADD PUSH2 0x1686 JUMP JUMPDEST SWAP5 POP POP PUSH1 0x40 DUP7 ADD MLOAD PUSH8 0xFFFFFFFFFFFFFFFF DUP2 GT ISZERO PUSH2 0x1727 JUMPI PUSH2 0x1726 PUSH2 0xE8F JUMP JUMPDEST JUMPDEST PUSH2 0x1733 DUP9 DUP3 DUP10 ADD PUSH2 0x1686 JUMP JUMPDEST SWAP4 POP POP PUSH1 0x60 DUP7 ADD MLOAD PUSH8 0xFFFFFFFFFFFFFFFF DUP2 GT ISZERO PUSH2 0x1754 JUMPI PUSH2 0x1753 PUSH2 0xE8F JUMP JUMPDEST JUMPDEST PUSH2 0x1760 DUP9 DUP3 DUP10 ADD PUSH2 0x1686 JUMP JUMPDEST SWAP3 POP POP PUSH1 0x80 PUSH2 0x1771 DUP9 DUP3 DUP10 ADD PUSH2 0x1631 JUMP JUMPDEST SWAP2 POP POP SWAP3 SWAP6 POP SWAP3 SWAP6 SWAP1 SWAP4 POP JUMP JUMPDEST PUSH32 0x4572726F7220647572696E672064656C6574696F6E0000000000000000000000 PUSH0 DUP3 ADD MSTORE POP JUMP JUMPDEST PUSH0 PUSH2 0x17B2 PUSH1 0x15 DUP4 PUSH2 0x11C3 JUMP JUMPDEST SWAP2 POP PUSH2 0x17BD DUP3 PUSH2 0x177E JUMP JUMPDEST PUSH1 0x20 DUP3 ADD SWAP1 POP SWAP2 SWAP1 POP JUMP JUMPDEST PUSH0 PUSH1 0x20 DUP3 ADD SWAP1 POP DUP2 DUP2 SUB PUSH0 DUP4 ADD MSTORE PUSH2 0x17DF DUP2 PUSH2 0x17A6 JUMP JUMPDEST SWAP1 POP SWAP2 SWAP1 POP JUMP JUMPDEST PUSH0 PUSH1 0x20 DUP3 DUP5 SUB SLT ISZERO PUSH2 0x17FB JUMPI PUSH2 0x17FA PUSH2 0xE8B JUMP JUMPDEST JUMPDEST PUSH0 PUSH2 0x1808 DUP5 DUP3 DUP6 ADD PUSH2 0x1631 JUMP JUMPDEST SWAP2 POP POP SWAP3 SWAP2 POP POP JUMP JUMPDEST PUSH0 PUSH1 0x40 DUP3 ADD SWAP1 POP PUSH2 0x1824 PUSH0 DUP4 ADD DUP6 PUSH2 0x138F JUMP JUMPDEST PUSH2 0x1831 PUSH1 0x20 DUP4 ADD DUP5 PUSH2 0x11AA JUMP JUMPDEST SWAP4 SWAP3 POP POP POP JUMP JUMPDEST PUSH32 0x5573657220686173206265656E2064656C657465642100000000000000000000 PUSH0 DUP3 ADD MSTORE POP JUMP JUMPDEST PUSH0 PUSH2 0x186C PUSH1 0x16 DUP4 PUSH2 0x11C3 JUMP JUMPDEST SWAP2 POP PUSH2 0x1877 DUP3 PUSH2 0x1838 JUMP JUMPDEST PUSH1 0x20 DUP3 ADD SWAP1 POP SWAP2 SWAP1 POP JUMP JUMPDEST PUSH0 PUSH1 0x20 DUP3 ADD SWAP1 POP DUP2 DUP2 SUB PUSH0 DUP4 ADD MSTORE PUSH2 0x1899 DUP2 PUSH2 0x1860 JUMP JUMPDEST SWAP1 POP SWAP2 SWAP1 POP JUMP INVALID LOG2 PUSH5 0x6970667358 0x22 SLT KECCAK256 CALLCODE SWAP8 PUSH32 0xB0B1A883808E148DD02B88B718CD79F758461FE2074B45FBD6039D53AF64736F PUSH13 0x63430008160033000000000000 "
		},
		"gasEstimates": {
			"creation": {
				"codeDepositCost": "1271600",
				"executionCost": "infinite",
				"totalCost": "infinite"
			},
			"external": {
				"changeCheeseProducerStorage(address)": "31307",
				"changeFilieraToken(address)": "31197",
				"deleteCheeseProducer(address)": "infinite",
				"getCheeseProducerData(address)": "infinite",
				"login(string,string)": "infinite",
				"registerCheeseProducer(string,string,string)": "infinite"
			}
		},
		"methodIdentifiers": {
			"changeCheeseProducerStorage(address)": "e0e72ce0",
			"changeFilieraToken(address)": "1a3b6b3f",
			"deleteCheeseProducer(address)": "a8d857df",
			"getCheeseProducerData(address)": "a08d278e",
			"login(string,string)": "58467dbc",
			"registerCheeseProducer(string,string,string)": "36f9d3f3"
		}
	},
	"abi": [
		{
			"inputs": [
				{
					"internalType": "address",
					"name": "_cheeseProducerStorage",
					"type": "address"
				},
				{
					"internalType": "address",
					"name": "_filieraToken",
					"type": "address"
				}
			],
			"stateMutability": "nonpayable",
			"type": "constructor"
		},
		{
			"anonymous": false,
			"inputs": [
				{
					"indexed": true,
					"internalType": "address",
					"name": "walletCheeseProducer",
					"type": "address"
				},
				{
					"indexed": false,
					"internalType": "string",
					"name": "message",
					"type": "string"
				}
			],
			"name": "ProducerDeleted",
			"type": "event"
		},
		{
			"anonymous": false,
			"inputs": [
				{
					"indexed": true,
					"internalType": "address",
					"name": "walletCheeseProducer",
					"type": "address"
				},
				{
					"indexed": false,
					"internalType": "string",
					"name": "fullName",
					"type": "string"
				},
				{
					"indexed": false,
					"internalType": "string",
					"name": "message",
					"type": "string"
				}
			],
			"name": "ProducerRegistered",
			"type": "event"
		},
		{
			"inputs": [
				{
					"internalType": "address",
					"name": "_cheeseProducerStorage",
					"type": "address"
				}
			],
			"name": "changeCheeseProducerStorage",
			"outputs": [],
			"stateMutability": "nonpayable",
			"type": "function"
		},
		{
			"inputs": [
				{
					"internalType": "address",
					"name": "_filieraToken",
					"type": "address"
				}
			],
			"name": "changeFilieraToken",
			"outputs": [],
			"stateMutability": "nonpayable",
			"type": "function"
		},
		{
			"inputs": [
				{
					"internalType": "address",
					"name": "walletCheeseProducer",
					"type": "address"
				}
			],
			"name": "deleteCheeseProducer",
			"outputs": [],
			"stateMutability": "nonpayable",
			"type": "function"
		},
		{
			"inputs": [
				{
					"internalType": "address",
					"name": "walletCheeseProducer",
					"type": "address"
				}
			],
			"name": "getCheeseProducerData",
			"outputs": [
				{
					"internalType": "uint256",
					"name": "",
					"type": "uint256"
				},
				{
					"internalType": "string",
					"name": "",
					"type": "string"
				},
				{
					"internalType": "string",
					"name": "",
					"type": "string"
				},
				{
					"internalType": "string",
					"name": "",
					"type": "string"
				},
				{
					"internalType": "uint256",
					"name": "",
					"type": "uint256"
				}
			],
			"stateMutability": "view",
			"type": "function"
		},
		{
			"inputs": [
				{
					"internalType": "string",
					"name": "email",
					"type": "string"
				},
				{
					"internalType": "string",
					"name": "password",
					"type": "string"
				}
			],
			"name": "login",
			"outputs": [
				{
					"internalType": "bool",
					"name": "",
					"type": "bool"
				}
			],
			"stateMutability": "view",
			"type": "function"
		},
		{
			"inputs": [
				{
					"internalType": "string",
					"name": "fullName",
					"type": "string"
				},
				{
					"internalType": "string",
					"name": "password",
					"type": "string"
				},
				{
					"internalType": "string",
					"name": "email",
					"type": "string"
				}
			],
			"name": "registerCheeseProducer",
			"outputs": [],
			"stateMutability": "nonpayable",
			"type": "function"
		}
	]
}