{
	"Filiera-Token-SmartContract/contracts/Actor/Retailer-smart-contract/inventory/RetailerInventoryStorage.sol": {
		"RetailerInventoryStorage": {
			"abi": [
				{
					"inputs": [],
					"stateMutability": "nonpayable",
					"type": "constructor"
				},
				{
					"inputs": [
						{
							"internalType": "address",
							"name": "walletRetailer",
							"type": "address"
						},
						{
							"internalType": "uint256",
							"name": "_id_CheeseBlock",
							"type": "uint256"
						},
						{
							"internalType": "uint256",
							"name": "_price",
							"type": "uint256"
						},
						{
							"internalType": "uint256",
							"name": "_weight",
							"type": "uint256"
						}
					],
					"name": "addCheesePiece",
					"outputs": [
						{
							"internalType": "uint256",
							"name": "",
							"type": "uint256"
						},
						{
							"internalType": "uint256",
							"name": "",
							"type": "uint256"
						},
						{
							"internalType": "uint256",
							"name": "",
							"type": "uint256"
						}
					],
					"stateMutability": "nonpayable",
					"type": "function"
				},
				{
					"inputs": [
						{
							"internalType": "address",
							"name": "walletRetailer",
							"type": "address"
						},
						{
							"internalType": "uint256",
							"name": "_id",
							"type": "uint256"
						}
					],
					"name": "deleteCheesePiece",
					"outputs": [
						{
							"internalType": "bool",
							"name": "value",
							"type": "bool"
						}
					],
					"stateMutability": "nonpayable",
					"type": "function"
				},
				{
					"inputs": [
						{
							"internalType": "address",
							"name": "walletRetailer",
							"type": "address"
						},
						{
							"internalType": "uint256",
							"name": "_id",
							"type": "uint256"
						}
					],
					"name": "getCheesePiece",
					"outputs": [
						{
							"internalType": "uint256",
							"name": "",
							"type": "uint256"
						},
						{
							"internalType": "uint256",
							"name": "",
							"type": "uint256"
						},
						{
							"internalType": "uint256",
							"name": "",
							"type": "uint256"
						}
					],
					"stateMutability": "view",
					"type": "function"
				},
				{
					"inputs": [
						{
							"internalType": "address",
							"name": "walletRetailer",
							"type": "address"
						},
						{
							"internalType": "uint256",
							"name": "_id",
							"type": "uint256"
						}
					],
					"name": "getPrice",
					"outputs": [
						{
							"internalType": "uint256",
							"name": "",
							"type": "uint256"
						}
					],
					"stateMutability": "view",
					"type": "function"
				},
				{
					"inputs": [
						{
							"internalType": "address",
							"name": "walletRetailer",
							"type": "address"
						},
						{
							"internalType": "uint256",
							"name": "_id",
							"type": "uint256"
						}
					],
					"name": "getWeight",
					"outputs": [
						{
							"internalType": "uint256",
							"name": "",
							"type": "uint256"
						}
					],
					"stateMutability": "view",
					"type": "function"
				},
				{
					"inputs": [
						{
							"internalType": "address",
							"name": "walletRetailer",
							"type": "address"
						},
						{
							"internalType": "uint256",
							"name": "_id_CheesePiece",
							"type": "uint256"
						}
					],
					"name": "isCheesePiecePresent",
					"outputs": [
						{
							"internalType": "bool",
							"name": "",
							"type": "bool"
						}
					],
					"stateMutability": "view",
					"type": "function"
				}
			],
			"devdoc": {
				"kind": "dev",
				"methods": {},
				"version": 1
			},
			"evm": {
				"assembly": "    /* \"Filiera-Token-SmartContract/contracts/Actor/Retailer-smart-contract/inventory/RetailerInventoryStorage.sol\":60:3224  contract RetailerInventoryStorage {... */\n  mstore(0x40, 0x80)\n    /* \"Filiera-Token-SmartContract/contracts/Actor/Retailer-smart-contract/inventory/RetailerInventoryStorage.sol\":194:251  constructor() {... */\n  callvalue\n  dup1\n  iszero\n  tag_1\n  jumpi\n  0x00\n  dup1\n  revert\ntag_1:\n  pop\n    /* \"Filiera-Token-SmartContract/contracts/Actor/Retailer-smart-contract/inventory/RetailerInventoryStorage.sol\":233:243  msg.sender */\n  caller\n    /* \"Filiera-Token-SmartContract/contracts/Actor/Retailer-smart-contract/inventory/RetailerInventoryStorage.sol\":219:230  retailerOrg */\n  0x00\n  dup1\n    /* \"Filiera-Token-SmartContract/contracts/Actor/Retailer-smart-contract/inventory/RetailerInventoryStorage.sol\":219:243  retailerOrg = msg.sender */\n  0x0100\n  exp\n  dup2\n  sload\n  dup2\n  0xffffffffffffffffffffffffffffffffffffffff\n  mul\n  not\n  and\n  swap1\n  dup4\n  0xffffffffffffffffffffffffffffffffffffffff\n  and\n  mul\n  or\n  swap1\n  sstore\n  pop\n    /* \"Filiera-Token-SmartContract/contracts/Actor/Retailer-smart-contract/inventory/RetailerInventoryStorage.sol\":60:3224  contract RetailerInventoryStorage {... */\n  dataSize(sub_0)\n  dup1\n  dataOffset(sub_0)\n  0x00\n  codecopy\n  0x00\n  return\nstop\n\nsub_0: assembly {\n        /* \"Filiera-Token-SmartContract/contracts/Actor/Retailer-smart-contract/inventory/RetailerInventoryStorage.sol\":60:3224  contract RetailerInventoryStorage {... */\n      mstore(0x40, 0x80)\n      callvalue\n      dup1\n      iszero\n      tag_1\n      jumpi\n      0x00\n      dup1\n      revert\n    tag_1:\n      pop\n      jumpi(tag_2, lt(calldatasize, 0x04))\n      shr(0xe0, calldataload(0x00))\n      dup1\n      0x0b7aa473\n      eq\n      tag_3\n      jumpi\n      dup1\n      0x348b4c5a\n      eq\n      tag_4\n      jumpi\n      dup1\n      0x449e815d\n      eq\n      tag_5\n      jumpi\n      dup1\n      0x5a52c657\n      eq\n      tag_6\n      jumpi\n      dup1\n      0x9bc7c21c\n      eq\n      tag_7\n      jumpi\n      dup1\n      0xafd47d3e\n      eq\n      tag_8\n      jumpi\n    tag_2:\n      0x00\n      dup1\n      revert\n        /* \"Filiera-Token-SmartContract/contracts/Actor/Retailer-smart-contract/inventory/RetailerInventoryStorage.sol\":1607:1880  function getCheesePiece(address walletRetailer, uint256 _id) external view returns (uint256, uint256, uint256) {... */\n    tag_3:\n      tag_9\n      0x04\n      dup1\n      calldatasize\n      sub\n      dup2\n      add\n      swap1\n      tag_10\n      swap2\n      swap1\n      tag_11\n      jump\t// in\n    tag_10:\n      tag_12\n      jump\t// in\n    tag_9:\n      mload(0x40)\n      tag_13\n      swap4\n      swap3\n      swap2\n      swap1\n      tag_14\n      jump\t// in\n    tag_13:\n      mload(0x40)\n      dup1\n      swap2\n      sub\n      swap1\n      return\n        /* \"Filiera-Token-SmartContract/contracts/Actor/Retailer-smart-contract/inventory/RetailerInventoryStorage.sol\":1920:2261  function deleteCheesePiece(address walletRetailer, uint256 _id) external returns (bool value) {... */\n    tag_4:\n      tag_15\n      0x04\n      dup1\n      calldatasize\n      sub\n      dup2\n      add\n      swap1\n      tag_16\n      swap2\n      swap1\n      tag_11\n      jump\t// in\n    tag_16:\n      tag_17\n      jump\t// in\n    tag_15:\n      mload(0x40)\n      tag_18\n      swap2\n      swap1\n      tag_19\n      jump\t// in\n    tag_18:\n      mload(0x40)\n      dup1\n      swap2\n      sub\n      swap1\n      return\n        /* \"Filiera-Token-SmartContract/contracts/Actor/Retailer-smart-contract/inventory/RetailerInventoryStorage.sol\":2793:3002  function getPrice(address walletRetailer, uint256 _id) external view returns (uint256) {... */\n    tag_5:\n      tag_20\n      0x04\n      dup1\n      calldatasize\n      sub\n      dup2\n      add\n      swap1\n      tag_21\n      swap2\n      swap1\n      tag_11\n      jump\t// in\n    tag_21:\n      tag_22\n      jump\t// in\n    tag_20:\n      mload(0x40)\n      tag_23\n      swap2\n      swap1\n      tag_24\n      jump\t// in\n    tag_23:\n      mload(0x40)\n      dup1\n      swap2\n      sub\n      swap1\n      return\n        /* \"Filiera-Token-SmartContract/contracts/Actor/Retailer-smart-contract/inventory/RetailerInventoryStorage.sol\":634:1599  function addCheesePiece(... */\n    tag_6:\n      tag_25\n      0x04\n      dup1\n      calldatasize\n      sub\n      dup2\n      add\n      swap1\n      tag_26\n      swap2\n      swap1\n      tag_27\n      jump\t// in\n    tag_26:\n      tag_28\n      jump\t// in\n    tag_25:\n      mload(0x40)\n      tag_29\n      swap4\n      swap3\n      swap2\n      swap1\n      tag_14\n      jump\t// in\n    tag_29:\n      mload(0x40)\n      dup1\n      swap2\n      sub\n      swap1\n      return\n        /* \"Filiera-Token-SmartContract/contracts/Actor/Retailer-smart-contract/inventory/RetailerInventoryStorage.sol\":2323:2621  function isCheesePiecePresent(address walletRetailer, uint256 _id_CheesePiece) external view returns (bool) {... */\n    tag_7:\n      tag_30\n      0x04\n      dup1\n      calldatasize\n      sub\n      dup2\n      add\n      swap1\n      tag_31\n      swap2\n      swap1\n      tag_11\n      jump\t// in\n    tag_31:\n      tag_32\n      jump\t// in\n    tag_30:\n      mload(0x40)\n      tag_33\n      swap2\n      swap1\n      tag_19\n      jump\t// in\n    tag_33:\n      mload(0x40)\n      dup1\n      swap2\n      sub\n      swap1\n      return\n        /* \"Filiera-Token-SmartContract/contracts/Actor/Retailer-smart-contract/inventory/RetailerInventoryStorage.sol\":3010:3221  function getWeight(address walletRetailer, uint256 _id) external view returns (uint256) {... */\n    tag_8:\n      tag_34\n      0x04\n      dup1\n      calldatasize\n      sub\n      dup2\n      add\n      swap1\n      tag_35\n      swap2\n      swap1\n      tag_11\n      jump\t// in\n    tag_35:\n      tag_36\n      jump\t// in\n    tag_34:\n      mload(0x40)\n      tag_37\n      swap2\n      swap1\n      tag_24\n      jump\t// in\n    tag_37:\n      mload(0x40)\n      dup1\n      swap2\n      sub\n      swap1\n      return\n        /* \"Filiera-Token-SmartContract/contracts/Actor/Retailer-smart-contract/inventory/RetailerInventoryStorage.sol\":1607:1880  function getCheesePiece(address walletRetailer, uint256 _id) external view returns (uint256, uint256, uint256) {... */\n    tag_12:\n        /* \"Filiera-Token-SmartContract/contracts/Actor/Retailer-smart-contract/inventory/RetailerInventoryStorage.sol\":1691:1698  uint256 */\n      0x00\n        /* \"Filiera-Token-SmartContract/contracts/Actor/Retailer-smart-contract/inventory/RetailerInventoryStorage.sol\":1700:1707  uint256 */\n      dup1\n        /* \"Filiera-Token-SmartContract/contracts/Actor/Retailer-smart-contract/inventory/RetailerInventoryStorage.sol\":1709:1716  uint256 */\n      0x00\n        /* \"Filiera-Token-SmartContract/contracts/Actor/Retailer-smart-contract/inventory/RetailerInventoryStorage.sol\":1731:1761  CheesePiece memory cheesePiece */\n      dup1\n        /* \"Filiera-Token-SmartContract/contracts/Actor/Retailer-smart-contract/inventory/RetailerInventoryStorage.sol\":1764:1776  cheesePieces */\n      0x01\n        /* \"Filiera-Token-SmartContract/contracts/Actor/Retailer-smart-contract/inventory/RetailerInventoryStorage.sol\":1764:1792  cheesePieces[walletRetailer] */\n      0x00\n        /* \"Filiera-Token-SmartContract/contracts/Actor/Retailer-smart-contract/inventory/RetailerInventoryStorage.sol\":1777:1791  walletRetailer */\n      dup8\n        /* \"Filiera-Token-SmartContract/contracts/Actor/Retailer-smart-contract/inventory/RetailerInventoryStorage.sol\":1764:1792  cheesePieces[walletRetailer] */\n      0xffffffffffffffffffffffffffffffffffffffff\n      and\n      0xffffffffffffffffffffffffffffffffffffffff\n      and\n      dup2\n      mstore\n      0x20\n      add\n      swap1\n      dup2\n      mstore\n      0x20\n      add\n      0x00\n      keccak256\n        /* \"Filiera-Token-SmartContract/contracts/Actor/Retailer-smart-contract/inventory/RetailerInventoryStorage.sol\":1764:1797  cheesePieces[walletRetailer][_id] */\n      0x00\n        /* \"Filiera-Token-SmartContract/contracts/Actor/Retailer-smart-contract/inventory/RetailerInventoryStorage.sol\":1793:1796  _id */\n      dup7\n        /* \"Filiera-Token-SmartContract/contracts/Actor/Retailer-smart-contract/inventory/RetailerInventoryStorage.sol\":1764:1797  cheesePieces[walletRetailer][_id] */\n      dup2\n      mstore\n      0x20\n      add\n      swap1\n      dup2\n      mstore\n      0x20\n      add\n      0x00\n      keccak256\n        /* \"Filiera-Token-SmartContract/contracts/Actor/Retailer-smart-contract/inventory/RetailerInventoryStorage.sol\":1731:1797  CheesePiece memory cheesePiece = cheesePieces[walletRetailer][_id] */\n      mload(0x40)\n      dup1\n      0x60\n      add\n      0x40\n      mstore\n      swap1\n      dup2\n      0x00\n      dup3\n      add\n      sload\n      dup2\n      mstore\n      0x20\n      add\n      0x01\n      dup3\n      add\n      sload\n      dup2\n      mstore\n      0x20\n      add\n      0x02\n      dup3\n      add\n      sload\n      dup2\n      mstore\n      pop\n      pop\n      swap1\n      pop\n        /* \"Filiera-Token-SmartContract/contracts/Actor/Retailer-smart-contract/inventory/RetailerInventoryStorage.sol\":1818:1829  cheesePiece */\n      dup1\n        /* \"Filiera-Token-SmartContract/contracts/Actor/Retailer-smart-contract/inventory/RetailerInventoryStorage.sol\":1818:1832  cheesePiece.id */\n      0x00\n      add\n      mload\n        /* \"Filiera-Token-SmartContract/contracts/Actor/Retailer-smart-contract/inventory/RetailerInventoryStorage.sol\":1834:1845  cheesePiece */\n      dup2\n        /* \"Filiera-Token-SmartContract/contracts/Actor/Retailer-smart-contract/inventory/RetailerInventoryStorage.sol\":1834:1851  cheesePiece.price */\n      0x20\n      add\n      mload\n        /* \"Filiera-Token-SmartContract/contracts/Actor/Retailer-smart-contract/inventory/RetailerInventoryStorage.sol\":1853:1864  cheesePiece */\n      dup3\n        /* \"Filiera-Token-SmartContract/contracts/Actor/Retailer-smart-contract/inventory/RetailerInventoryStorage.sol\":1853:1871  cheesePiece.weight */\n      0x40\n      add\n      mload\n        /* \"Filiera-Token-SmartContract/contracts/Actor/Retailer-smart-contract/inventory/RetailerInventoryStorage.sol\":1810:1872  return (cheesePiece.id, cheesePiece.price, cheesePiece.weight) */\n      swap4\n      pop\n      swap4\n      pop\n      swap4\n      pop\n      pop\n        /* \"Filiera-Token-SmartContract/contracts/Actor/Retailer-smart-contract/inventory/RetailerInventoryStorage.sol\":1607:1880  function getCheesePiece(address walletRetailer, uint256 _id) external view returns (uint256, uint256, uint256) {... */\n      swap3\n      pop\n      swap3\n      pop\n      swap3\n      jump\t// out\n        /* \"Filiera-Token-SmartContract/contracts/Actor/Retailer-smart-contract/inventory/RetailerInventoryStorage.sol\":1920:2261  function deleteCheesePiece(address walletRetailer, uint256 _id) external returns (bool value) {... */\n    tag_17:\n        /* \"Filiera-Token-SmartContract/contracts/Actor/Retailer-smart-contract/inventory/RetailerInventoryStorage.sol\":2002:2012  bool value */\n      0x00\n        /* \"Filiera-Token-SmartContract/contracts/Actor/Retailer-smart-contract/inventory/RetailerInventoryStorage.sol\":2034:2046  cheesePieces */\n      0x01\n        /* \"Filiera-Token-SmartContract/contracts/Actor/Retailer-smart-contract/inventory/RetailerInventoryStorage.sol\":2034:2062  cheesePieces[walletRetailer] */\n      0x00\n        /* \"Filiera-Token-SmartContract/contracts/Actor/Retailer-smart-contract/inventory/RetailerInventoryStorage.sol\":2047:2061  walletRetailer */\n      dup5\n        /* \"Filiera-Token-SmartContract/contracts/Actor/Retailer-smart-contract/inventory/RetailerInventoryStorage.sol\":2034:2062  cheesePieces[walletRetailer] */\n      0xffffffffffffffffffffffffffffffffffffffff\n      and\n      0xffffffffffffffffffffffffffffffffffffffff\n      and\n      dup2\n      mstore\n      0x20\n      add\n      swap1\n      dup2\n      mstore\n      0x20\n      add\n      0x00\n      keccak256\n        /* \"Filiera-Token-SmartContract/contracts/Actor/Retailer-smart-contract/inventory/RetailerInventoryStorage.sol\":2034:2067  cheesePieces[walletRetailer][_id] */\n      0x00\n        /* \"Filiera-Token-SmartContract/contracts/Actor/Retailer-smart-contract/inventory/RetailerInventoryStorage.sol\":2063:2066  _id */\n      dup4\n        /* \"Filiera-Token-SmartContract/contracts/Actor/Retailer-smart-contract/inventory/RetailerInventoryStorage.sol\":2034:2067  cheesePieces[walletRetailer][_id] */\n      dup2\n      mstore\n      0x20\n      add\n      swap1\n      dup2\n      mstore\n      0x20\n      add\n      0x00\n      keccak256\n      0x00\n        /* \"Filiera-Token-SmartContract/contracts/Actor/Retailer-smart-contract/inventory/RetailerInventoryStorage.sol\":2027:2067  delete cheesePieces[walletRetailer][_id] */\n      dup1\n      dup3\n      add\n      0x00\n      swap1\n      sstore\n      0x01\n      dup3\n      add\n      0x00\n      swap1\n      sstore\n      0x02\n      dup3\n      add\n      0x00\n      swap1\n      sstore\n      pop\n      pop\n        /* \"Filiera-Token-SmartContract/contracts/Actor/Retailer-smart-contract/inventory/RetailerInventoryStorage.sol\":2168:2169  0 */\n      0x00\n        /* \"Filiera-Token-SmartContract/contracts/Actor/Retailer-smart-contract/inventory/RetailerInventoryStorage.sol\":2128:2140  cheesePieces */\n      0x01\n        /* \"Filiera-Token-SmartContract/contracts/Actor/Retailer-smart-contract/inventory/RetailerInventoryStorage.sol\":2128:2156  cheesePieces[walletRetailer] */\n      0x00\n        /* \"Filiera-Token-SmartContract/contracts/Actor/Retailer-smart-contract/inventory/RetailerInventoryStorage.sol\":2141:2155  walletRetailer */\n      dup6\n        /* \"Filiera-Token-SmartContract/contracts/Actor/Retailer-smart-contract/inventory/RetailerInventoryStorage.sol\":2128:2156  cheesePieces[walletRetailer] */\n      0xffffffffffffffffffffffffffffffffffffffff\n      and\n      0xffffffffffffffffffffffffffffffffffffffff\n      and\n      dup2\n      mstore\n      0x20\n      add\n      swap1\n      dup2\n      mstore\n      0x20\n      add\n      0x00\n      keccak256\n        /* \"Filiera-Token-SmartContract/contracts/Actor/Retailer-smart-contract/inventory/RetailerInventoryStorage.sol\":2128:2161  cheesePieces[walletRetailer][_id] */\n      0x00\n        /* \"Filiera-Token-SmartContract/contracts/Actor/Retailer-smart-contract/inventory/RetailerInventoryStorage.sol\":2157:2160  _id */\n      dup5\n        /* \"Filiera-Token-SmartContract/contracts/Actor/Retailer-smart-contract/inventory/RetailerInventoryStorage.sol\":2128:2161  cheesePieces[walletRetailer][_id] */\n      dup2\n      mstore\n      0x20\n      add\n      swap1\n      dup2\n      mstore\n      0x20\n      add\n      0x00\n      keccak256\n        /* \"Filiera-Token-SmartContract/contracts/Actor/Retailer-smart-contract/inventory/RetailerInventoryStorage.sol\":2128:2164  cheesePieces[walletRetailer][_id].id */\n      0x00\n      add\n      sload\n        /* \"Filiera-Token-SmartContract/contracts/Actor/Retailer-smart-contract/inventory/RetailerInventoryStorage.sol\":2128:2169  cheesePieces[walletRetailer][_id].id == 0 */\n      sub\n        /* \"Filiera-Token-SmartContract/contracts/Actor/Retailer-smart-contract/inventory/RetailerInventoryStorage.sol\":2124:2254  if (cheesePieces[walletRetailer][_id].id == 0) {... */\n      tag_40\n      jumpi\n        /* \"Filiera-Token-SmartContract/contracts/Actor/Retailer-smart-contract/inventory/RetailerInventoryStorage.sol\":2193:2197  true */\n      0x01\n        /* \"Filiera-Token-SmartContract/contracts/Actor/Retailer-smart-contract/inventory/RetailerInventoryStorage.sol\":2186:2197  return true */\n      swap1\n      pop\n      jump(tag_39)\n        /* \"Filiera-Token-SmartContract/contracts/Actor/Retailer-smart-contract/inventory/RetailerInventoryStorage.sol\":2124:2254  if (cheesePieces[walletRetailer][_id].id == 0) {... */\n    tag_40:\n        /* \"Filiera-Token-SmartContract/contracts/Actor/Retailer-smart-contract/inventory/RetailerInventoryStorage.sol\":2237:2242  false */\n      0x00\n        /* \"Filiera-Token-SmartContract/contracts/Actor/Retailer-smart-contract/inventory/RetailerInventoryStorage.sol\":2230:2242  return false */\n      swap1\n      pop\n        /* \"Filiera-Token-SmartContract/contracts/Actor/Retailer-smart-contract/inventory/RetailerInventoryStorage.sol\":1920:2261  function deleteCheesePiece(address walletRetailer, uint256 _id) external returns (bool value) {... */\n    tag_39:\n      swap3\n      swap2\n      pop\n      pop\n      jump\t// out\n        /* \"Filiera-Token-SmartContract/contracts/Actor/Retailer-smart-contract/inventory/RetailerInventoryStorage.sol\":2793:3002  function getPrice(address walletRetailer, uint256 _id) external view returns (uint256) {... */\n    tag_22:\n        /* \"Filiera-Token-SmartContract/contracts/Actor/Retailer-smart-contract/inventory/RetailerInventoryStorage.sol\":2871:2878  uint256 */\n      0x00\n        /* \"Filiera-Token-SmartContract/contracts/Actor/Retailer-smart-contract/inventory/RetailerInventoryStorage.sol\":2893:2923  CheesePiece memory cheesePiece */\n      dup1\n        /* \"Filiera-Token-SmartContract/contracts/Actor/Retailer-smart-contract/inventory/RetailerInventoryStorage.sol\":2926:2938  cheesePieces */\n      0x01\n        /* \"Filiera-Token-SmartContract/contracts/Actor/Retailer-smart-contract/inventory/RetailerInventoryStorage.sol\":2926:2954  cheesePieces[walletRetailer] */\n      0x00\n        /* \"Filiera-Token-SmartContract/contracts/Actor/Retailer-smart-contract/inventory/RetailerInventoryStorage.sol\":2939:2953  walletRetailer */\n      dup6\n        /* \"Filiera-Token-SmartContract/contracts/Actor/Retailer-smart-contract/inventory/RetailerInventoryStorage.sol\":2926:2954  cheesePieces[walletRetailer] */\n      0xffffffffffffffffffffffffffffffffffffffff\n      and\n      0xffffffffffffffffffffffffffffffffffffffff\n      and\n      dup2\n      mstore\n      0x20\n      add\n      swap1\n      dup2\n      mstore\n      0x20\n      add\n      0x00\n      keccak256\n        /* \"Filiera-Token-SmartContract/contracts/Actor/Retailer-smart-contract/inventory/RetailerInventoryStorage.sol\":2926:2959  cheesePieces[walletRetailer][_id] */\n      0x00\n        /* \"Filiera-Token-SmartContract/contracts/Actor/Retailer-smart-contract/inventory/RetailerInventoryStorage.sol\":2955:2958  _id */\n      dup5\n        /* \"Filiera-Token-SmartContract/contracts/Actor/Retailer-smart-contract/inventory/RetailerInventoryStorage.sol\":2926:2959  cheesePieces[walletRetailer][_id] */\n      dup2\n      mstore\n      0x20\n      add\n      swap1\n      dup2\n      mstore\n      0x20\n      add\n      0x00\n      keccak256\n        /* \"Filiera-Token-SmartContract/contracts/Actor/Retailer-smart-contract/inventory/RetailerInventoryStorage.sol\":2893:2959  CheesePiece memory cheesePiece = cheesePieces[walletRetailer][_id] */\n      mload(0x40)\n      dup1\n      0x60\n      add\n      0x40\n      mstore\n      swap1\n      dup2\n      0x00\n      dup3\n      add\n      sload\n      dup2\n      mstore\n      0x20\n      add\n      0x01\n      dup3\n      add\n      sload\n      dup2\n      mstore\n      0x20\n      add\n      0x02\n      dup3\n      add\n      sload\n      dup2\n      mstore\n      pop\n      pop\n      swap1\n      pop\n        /* \"Filiera-Token-SmartContract/contracts/Actor/Retailer-smart-contract/inventory/RetailerInventoryStorage.sol\":2977:2988  cheesePiece */\n      dup1\n        /* \"Filiera-Token-SmartContract/contracts/Actor/Retailer-smart-contract/inventory/RetailerInventoryStorage.sol\":2977:2994  cheesePiece.price */\n      0x20\n      add\n      mload\n        /* \"Filiera-Token-SmartContract/contracts/Actor/Retailer-smart-contract/inventory/RetailerInventoryStorage.sol\":2970:2994  return cheesePiece.price */\n      swap2\n      pop\n      pop\n        /* \"Filiera-Token-SmartContract/contracts/Actor/Retailer-smart-contract/inventory/RetailerInventoryStorage.sol\":2793:3002  function getPrice(address walletRetailer, uint256 _id) external view returns (uint256) {... */\n      swap3\n      swap2\n      pop\n      pop\n      jump\t// out\n        /* \"Filiera-Token-SmartContract/contracts/Actor/Retailer-smart-contract/inventory/RetailerInventoryStorage.sol\":634:1599  function addCheesePiece(... */\n    tag_28:\n        /* \"Filiera-Token-SmartContract/contracts/Actor/Retailer-smart-contract/inventory/RetailerInventoryStorage.sol\":801:808  uint256 */\n      0x00\n        /* \"Filiera-Token-SmartContract/contracts/Actor/Retailer-smart-contract/inventory/RetailerInventoryStorage.sol\":810:817  uint256 */\n      dup1\n        /* \"Filiera-Token-SmartContract/contracts/Actor/Retailer-smart-contract/inventory/RetailerInventoryStorage.sol\":819:826  uint256 */\n      0x00\n        /* \"Filiera-Token-SmartContract/contracts/Actor/Retailer-smart-contract/inventory/RetailerInventoryStorage.sol\":841:852  uint256 _id */\n      dup1\n        /* \"Filiera-Token-SmartContract/contracts/Actor/Retailer-smart-contract/inventory/RetailerInventoryStorage.sol\":904:919  _id_CheeseBlock */\n      dup7\n        /* \"Filiera-Token-SmartContract/contracts/Actor/Retailer-smart-contract/inventory/RetailerInventoryStorage.sol\":934:940  _price */\n      dup7\n        /* \"Filiera-Token-SmartContract/contracts/Actor/Retailer-smart-contract/inventory/RetailerInventoryStorage.sol\":955:962  _weight */\n      dup7\n        /* \"Filiera-Token-SmartContract/contracts/Actor/Retailer-smart-contract/inventory/RetailerInventoryStorage.sol\":977:991  walletRetailer */\n      dup11\n        /* \"Filiera-Token-SmartContract/contracts/Actor/Retailer-smart-contract/inventory/RetailerInventoryStorage.sol\":873:1002  abi.encodePacked(... */\n      add(0x20, mload(0x40))\n      tag_44\n      swap5\n      swap4\n      swap3\n      swap2\n      swap1\n      tag_45\n      jump\t// in\n    tag_44:\n      mload(0x40)\n      0x20\n      dup2\n      dup4\n      sub\n      sub\n      dup2\n      mstore\n      swap1\n      0x40\n      mstore\n        /* \"Filiera-Token-SmartContract/contracts/Actor/Retailer-smart-contract/inventory/RetailerInventoryStorage.sol\":863:1003  keccak256(abi.encodePacked(... */\n      dup1\n      mload\n      swap1\n      0x20\n      add\n      keccak256\n        /* \"Filiera-Token-SmartContract/contracts/Actor/Retailer-smart-contract/inventory/RetailerInventoryStorage.sol\":855:1004  uint256(keccak256(abi.encodePacked(... */\n      0x00\n      shr\n        /* \"Filiera-Token-SmartContract/contracts/Actor/Retailer-smart-contract/inventory/RetailerInventoryStorage.sol\":841:1004  uint256 _id = uint256(keccak256(abi.encodePacked(... */\n      swap1\n      pop\n        /* \"Filiera-Token-SmartContract/contracts/Actor/Retailer-smart-contract/inventory/RetailerInventoryStorage.sol\":1147:1148  0 */\n      0x00\n        /* \"Filiera-Token-SmartContract/contracts/Actor/Retailer-smart-contract/inventory/RetailerInventoryStorage.sol\":1107:1119  cheesePieces */\n      0x01\n        /* \"Filiera-Token-SmartContract/contracts/Actor/Retailer-smart-contract/inventory/RetailerInventoryStorage.sol\":1107:1135  cheesePieces[walletRetailer] */\n      0x00\n        /* \"Filiera-Token-SmartContract/contracts/Actor/Retailer-smart-contract/inventory/RetailerInventoryStorage.sol\":1120:1134  walletRetailer */\n      dup11\n        /* \"Filiera-Token-SmartContract/contracts/Actor/Retailer-smart-contract/inventory/RetailerInventoryStorage.sol\":1107:1135  cheesePieces[walletRetailer] */\n      0xffffffffffffffffffffffffffffffffffffffff\n      and\n      0xffffffffffffffffffffffffffffffffffffffff\n      and\n      dup2\n      mstore\n      0x20\n      add\n      swap1\n      dup2\n      mstore\n      0x20\n      add\n      0x00\n      keccak256\n        /* \"Filiera-Token-SmartContract/contracts/Actor/Retailer-smart-contract/inventory/RetailerInventoryStorage.sol\":1107:1140  cheesePieces[walletRetailer][_id] */\n      0x00\n        /* \"Filiera-Token-SmartContract/contracts/Actor/Retailer-smart-contract/inventory/RetailerInventoryStorage.sol\":1136:1139  _id */\n      dup4\n        /* \"Filiera-Token-SmartContract/contracts/Actor/Retailer-smart-contract/inventory/RetailerInventoryStorage.sol\":1107:1140  cheesePieces[walletRetailer][_id] */\n      dup2\n      mstore\n      0x20\n      add\n      swap1\n      dup2\n      mstore\n      0x20\n      add\n      0x00\n      keccak256\n        /* \"Filiera-Token-SmartContract/contracts/Actor/Retailer-smart-contract/inventory/RetailerInventoryStorage.sol\":1107:1143  cheesePieces[walletRetailer][_id].id */\n      0x00\n      add\n      sload\n        /* \"Filiera-Token-SmartContract/contracts/Actor/Retailer-smart-contract/inventory/RetailerInventoryStorage.sol\":1107:1148  cheesePieces[walletRetailer][_id].id == 0 */\n      eq\n        /* \"Filiera-Token-SmartContract/contracts/Actor/Retailer-smart-contract/inventory/RetailerInventoryStorage.sol\":1099:1186  require(cheesePieces[walletRetailer][_id].id == 0, \"Pezzo di formaggio gia' presente!\") */\n      tag_46\n      jumpi\n      mload(0x40)\n      0x08c379a000000000000000000000000000000000000000000000000000000000\n      dup2\n      mstore\n      0x04\n      add\n      tag_47\n      swap1\n      tag_48\n      jump\t// in\n    tag_47:\n      mload(0x40)\n      dup1\n      swap2\n      sub\n      swap1\n      revert\n    tag_46:\n        /* \"Filiera-Token-SmartContract/contracts/Actor/Retailer-smart-contract/inventory/RetailerInventoryStorage.sol\":1244:1274  CheesePiece memory cheesePiece */\n      0x00\n        /* \"Filiera-Token-SmartContract/contracts/Actor/Retailer-smart-contract/inventory/RetailerInventoryStorage.sol\":1277:1381  CheesePiece({... */\n      mload(0x40)\n      dup1\n      0x60\n      add\n      0x40\n      mstore\n      dup1\n        /* \"Filiera-Token-SmartContract/contracts/Actor/Retailer-smart-contract/inventory/RetailerInventoryStorage.sol\":1308:1311  _id */\n      dup4\n        /* \"Filiera-Token-SmartContract/contracts/Actor/Retailer-smart-contract/inventory/RetailerInventoryStorage.sol\":1277:1381  CheesePiece({... */\n      dup2\n      mstore\n      0x20\n      add\n        /* \"Filiera-Token-SmartContract/contracts/Actor/Retailer-smart-contract/inventory/RetailerInventoryStorage.sol\":1333:1339  _price */\n      dup9\n        /* \"Filiera-Token-SmartContract/contracts/Actor/Retailer-smart-contract/inventory/RetailerInventoryStorage.sol\":1277:1381  CheesePiece({... */\n      dup2\n      mstore\n      0x20\n      add\n        /* \"Filiera-Token-SmartContract/contracts/Actor/Retailer-smart-contract/inventory/RetailerInventoryStorage.sol\":1362:1369  _weight */\n      dup8\n        /* \"Filiera-Token-SmartContract/contracts/Actor/Retailer-smart-contract/inventory/RetailerInventoryStorage.sol\":1277:1381  CheesePiece({... */\n      dup2\n      mstore\n      pop\n        /* \"Filiera-Token-SmartContract/contracts/Actor/Retailer-smart-contract/inventory/RetailerInventoryStorage.sol\":1244:1381  CheesePiece memory cheesePiece = CheesePiece({... */\n      swap1\n      pop\n        /* \"Filiera-Token-SmartContract/contracts/Actor/Retailer-smart-contract/inventory/RetailerInventoryStorage.sol\":1505:1516  cheesePiece */\n      dup1\n        /* \"Filiera-Token-SmartContract/contracts/Actor/Retailer-smart-contract/inventory/RetailerInventoryStorage.sol\":1469:1481  cheesePieces */\n      0x01\n        /* \"Filiera-Token-SmartContract/contracts/Actor/Retailer-smart-contract/inventory/RetailerInventoryStorage.sol\":1469:1497  cheesePieces[walletRetailer] */\n      0x00\n        /* \"Filiera-Token-SmartContract/contracts/Actor/Retailer-smart-contract/inventory/RetailerInventoryStorage.sol\":1482:1496  walletRetailer */\n      dup12\n        /* \"Filiera-Token-SmartContract/contracts/Actor/Retailer-smart-contract/inventory/RetailerInventoryStorage.sol\":1469:1497  cheesePieces[walletRetailer] */\n      0xffffffffffffffffffffffffffffffffffffffff\n      and\n      0xffffffffffffffffffffffffffffffffffffffff\n      and\n      dup2\n      mstore\n      0x20\n      add\n      swap1\n      dup2\n      mstore\n      0x20\n      add\n      0x00\n      keccak256\n        /* \"Filiera-Token-SmartContract/contracts/Actor/Retailer-smart-contract/inventory/RetailerInventoryStorage.sol\":1469:1502  cheesePieces[walletRetailer][_id] */\n      0x00\n        /* \"Filiera-Token-SmartContract/contracts/Actor/Retailer-smart-contract/inventory/RetailerInventoryStorage.sol\":1498:1501  _id */\n      dup5\n        /* \"Filiera-Token-SmartContract/contracts/Actor/Retailer-smart-contract/inventory/RetailerInventoryStorage.sol\":1469:1502  cheesePieces[walletRetailer][_id] */\n      dup2\n      mstore\n      0x20\n      add\n      swap1\n      dup2\n      mstore\n      0x20\n      add\n      0x00\n      keccak256\n        /* \"Filiera-Token-SmartContract/contracts/Actor/Retailer-smart-contract/inventory/RetailerInventoryStorage.sol\":1469:1516  cheesePieces[walletRetailer][_id] = cheesePiece */\n      0x00\n      dup3\n      add\n      mload\n      dup2\n      0x00\n      add\n      sstore\n      0x20\n      dup3\n      add\n      mload\n      dup2\n      0x01\n      add\n      sstore\n      0x40\n      dup3\n      add\n      mload\n      dup2\n      0x02\n      add\n      sstore\n      swap1\n      pop\n      pop\n        /* \"Filiera-Token-SmartContract/contracts/Actor/Retailer-smart-contract/inventory/RetailerInventoryStorage.sol\":1537:1548  cheesePiece */\n      dup1\n        /* \"Filiera-Token-SmartContract/contracts/Actor/Retailer-smart-contract/inventory/RetailerInventoryStorage.sol\":1537:1551  cheesePiece.id */\n      0x00\n      add\n      mload\n        /* \"Filiera-Token-SmartContract/contracts/Actor/Retailer-smart-contract/inventory/RetailerInventoryStorage.sol\":1553:1564  cheesePiece */\n      dup2\n        /* \"Filiera-Token-SmartContract/contracts/Actor/Retailer-smart-contract/inventory/RetailerInventoryStorage.sol\":1553:1570  cheesePiece.price */\n      0x20\n      add\n      mload\n        /* \"Filiera-Token-SmartContract/contracts/Actor/Retailer-smart-contract/inventory/RetailerInventoryStorage.sol\":1572:1583  cheesePiece */\n      dup3\n        /* \"Filiera-Token-SmartContract/contracts/Actor/Retailer-smart-contract/inventory/RetailerInventoryStorage.sol\":1572:1590  cheesePiece.weight */\n      0x40\n      add\n      mload\n        /* \"Filiera-Token-SmartContract/contracts/Actor/Retailer-smart-contract/inventory/RetailerInventoryStorage.sol\":1529:1591  return (cheesePiece.id, cheesePiece.price, cheesePiece.weight) */\n      swap5\n      pop\n      swap5\n      pop\n      swap5\n      pop\n      pop\n      pop\n        /* \"Filiera-Token-SmartContract/contracts/Actor/Retailer-smart-contract/inventory/RetailerInventoryStorage.sol\":634:1599  function addCheesePiece(... */\n      swap5\n      pop\n      swap5\n      pop\n      swap5\n      swap2\n      pop\n      pop\n      jump\t// out\n        /* \"Filiera-Token-SmartContract/contracts/Actor/Retailer-smart-contract/inventory/RetailerInventoryStorage.sol\":2323:2621  function isCheesePiecePresent(address walletRetailer, uint256 _id_CheesePiece) external view returns (bool) {... */\n    tag_32:\n        /* \"Filiera-Token-SmartContract/contracts/Actor/Retailer-smart-contract/inventory/RetailerInventoryStorage.sol\":2425:2429  bool */\n      0x00\n        /* \"Filiera-Token-SmartContract/contracts/Actor/Retailer-smart-contract/inventory/RetailerInventoryStorage.sol\":2471:2472  0 */\n      dup1\n        /* \"Filiera-Token-SmartContract/contracts/Actor/Retailer-smart-contract/inventory/RetailerInventoryStorage.sol\":2452:2467  _id_CheesePiece */\n      dup3\n        /* \"Filiera-Token-SmartContract/contracts/Actor/Retailer-smart-contract/inventory/RetailerInventoryStorage.sol\":2452:2472  _id_CheesePiece != 0 */\n      eq\n      iszero\n        /* \"Filiera-Token-SmartContract/contracts/Actor/Retailer-smart-contract/inventory/RetailerInventoryStorage.sol\":2452:2495  _id_CheesePiece != 0 && _id_CheesePiece > 0 */\n      dup1\n      iszero\n      tag_50\n      jumpi\n      pop\n        /* \"Filiera-Token-SmartContract/contracts/Actor/Retailer-smart-contract/inventory/RetailerInventoryStorage.sol\":2494:2495  0 */\n      0x00\n        /* \"Filiera-Token-SmartContract/contracts/Actor/Retailer-smart-contract/inventory/RetailerInventoryStorage.sol\":2476:2491  _id_CheesePiece */\n      dup3\n        /* \"Filiera-Token-SmartContract/contracts/Actor/Retailer-smart-contract/inventory/RetailerInventoryStorage.sol\":2476:2495  _id_CheesePiece > 0 */\n      gt\n        /* \"Filiera-Token-SmartContract/contracts/Actor/Retailer-smart-contract/inventory/RetailerInventoryStorage.sol\":2452:2495  _id_CheesePiece != 0 && _id_CheesePiece > 0 */\n    tag_50:\n        /* \"Filiera-Token-SmartContract/contracts/Actor/Retailer-smart-contract/inventory/RetailerInventoryStorage.sol\":2444:2526  require(_id_CheesePiece != 0 && _id_CheesePiece > 0, \"ID CheesePiece Non Valido!\") */\n      tag_51\n      jumpi\n      mload(0x40)\n      0x08c379a000000000000000000000000000000000000000000000000000000000\n      dup2\n      mstore\n      0x04\n      add\n      tag_52\n      swap1\n      tag_53\n      jump\t// in\n    tag_52:\n      mload(0x40)\n      dup1\n      swap2\n      sub\n      swap1\n      revert\n    tag_51:\n        /* \"Filiera-Token-SmartContract/contracts/Actor/Retailer-smart-contract/inventory/RetailerInventoryStorage.sol\":2598:2613  _id_CheesePiece */\n      dup2\n        /* \"Filiera-Token-SmartContract/contracts/Actor/Retailer-smart-contract/inventory/RetailerInventoryStorage.sol\":2546:2558  cheesePieces */\n      0x01\n        /* \"Filiera-Token-SmartContract/contracts/Actor/Retailer-smart-contract/inventory/RetailerInventoryStorage.sol\":2546:2574  cheesePieces[walletRetailer] */\n      0x00\n        /* \"Filiera-Token-SmartContract/contracts/Actor/Retailer-smart-contract/inventory/RetailerInventoryStorage.sol\":2559:2573  walletRetailer */\n      dup6\n        /* \"Filiera-Token-SmartContract/contracts/Actor/Retailer-smart-contract/inventory/RetailerInventoryStorage.sol\":2546:2574  cheesePieces[walletRetailer] */\n      0xffffffffffffffffffffffffffffffffffffffff\n      and\n      0xffffffffffffffffffffffffffffffffffffffff\n      and\n      dup2\n      mstore\n      0x20\n      add\n      swap1\n      dup2\n      mstore\n      0x20\n      add\n      0x00\n      keccak256\n        /* \"Filiera-Token-SmartContract/contracts/Actor/Retailer-smart-contract/inventory/RetailerInventoryStorage.sol\":2546:2591  cheesePieces[walletRetailer][_id_CheesePiece] */\n      0x00\n        /* \"Filiera-Token-SmartContract/contracts/Actor/Retailer-smart-contract/inventory/RetailerInventoryStorage.sol\":2575:2590  _id_CheesePiece */\n      dup5\n        /* \"Filiera-Token-SmartContract/contracts/Actor/Retailer-smart-contract/inventory/RetailerInventoryStorage.sol\":2546:2591  cheesePieces[walletRetailer][_id_CheesePiece] */\n      dup2\n      mstore\n      0x20\n      add\n      swap1\n      dup2\n      mstore\n      0x20\n      add\n      0x00\n      keccak256\n        /* \"Filiera-Token-SmartContract/contracts/Actor/Retailer-smart-contract/inventory/RetailerInventoryStorage.sol\":2546:2594  cheesePieces[walletRetailer][_id_CheesePiece].id */\n      0x00\n      add\n      sload\n        /* \"Filiera-Token-SmartContract/contracts/Actor/Retailer-smart-contract/inventory/RetailerInventoryStorage.sol\":2546:2613  cheesePieces[walletRetailer][_id_CheesePiece].id == _id_CheesePiece */\n      eq\n        /* \"Filiera-Token-SmartContract/contracts/Actor/Retailer-smart-contract/inventory/RetailerInventoryStorage.sol\":2539:2613  return cheesePieces[walletRetailer][_id_CheesePiece].id == _id_CheesePiece */\n      swap1\n      pop\n        /* \"Filiera-Token-SmartContract/contracts/Actor/Retailer-smart-contract/inventory/RetailerInventoryStorage.sol\":2323:2621  function isCheesePiecePresent(address walletRetailer, uint256 _id_CheesePiece) external view returns (bool) {... */\n      swap3\n      swap2\n      pop\n      pop\n      jump\t// out\n        /* \"Filiera-Token-SmartContract/contracts/Actor/Retailer-smart-contract/inventory/RetailerInventoryStorage.sol\":3010:3221  function getWeight(address walletRetailer, uint256 _id) external view returns (uint256) {... */\n    tag_36:\n        /* \"Filiera-Token-SmartContract/contracts/Actor/Retailer-smart-contract/inventory/RetailerInventoryStorage.sol\":3089:3096  uint256 */\n      0x00\n        /* \"Filiera-Token-SmartContract/contracts/Actor/Retailer-smart-contract/inventory/RetailerInventoryStorage.sol\":3111:3141  CheesePiece memory cheesePiece */\n      dup1\n        /* \"Filiera-Token-SmartContract/contracts/Actor/Retailer-smart-contract/inventory/RetailerInventoryStorage.sol\":3144:3156  cheesePieces */\n      0x01\n        /* \"Filiera-Token-SmartContract/contracts/Actor/Retailer-smart-contract/inventory/RetailerInventoryStorage.sol\":3144:3172  cheesePieces[walletRetailer] */\n      0x00\n        /* \"Filiera-Token-SmartContract/contracts/Actor/Retailer-smart-contract/inventory/RetailerInventoryStorage.sol\":3157:3171  walletRetailer */\n      dup6\n        /* \"Filiera-Token-SmartContract/contracts/Actor/Retailer-smart-contract/inventory/RetailerInventoryStorage.sol\":3144:3172  cheesePieces[walletRetailer] */\n      0xffffffffffffffffffffffffffffffffffffffff\n      and\n      0xffffffffffffffffffffffffffffffffffffffff\n      and\n      dup2\n      mstore\n      0x20\n      add\n      swap1\n      dup2\n      mstore\n      0x20\n      add\n      0x00\n      keccak256\n        /* \"Filiera-Token-SmartContract/contracts/Actor/Retailer-smart-contract/inventory/RetailerInventoryStorage.sol\":3144:3177  cheesePieces[walletRetailer][_id] */\n      0x00\n        /* \"Filiera-Token-SmartContract/contracts/Actor/Retailer-smart-contract/inventory/RetailerInventoryStorage.sol\":3173:3176  _id */\n      dup5\n        /* \"Filiera-Token-SmartContract/contracts/Actor/Retailer-smart-contract/inventory/RetailerInventoryStorage.sol\":3144:3177  cheesePieces[walletRetailer][_id] */\n      dup2\n      mstore\n      0x20\n      add\n      swap1\n      dup2\n      mstore\n      0x20\n      add\n      0x00\n      keccak256\n        /* \"Filiera-Token-SmartContract/contracts/Actor/Retailer-smart-contract/inventory/RetailerInventoryStorage.sol\":3111:3177  CheesePiece memory cheesePiece = cheesePieces[walletRetailer][_id] */\n      mload(0x40)\n      dup1\n      0x60\n      add\n      0x40\n      mstore\n      swap1\n      dup2\n      0x00\n      dup3\n      add\n      sload\n      dup2\n      mstore\n      0x20\n      add\n      0x01\n      dup3\n      add\n      sload\n      dup2\n      mstore\n      0x20\n      add\n      0x02\n      dup3\n      add\n      sload\n      dup2\n      mstore\n      pop\n      pop\n      swap1\n      pop\n        /* \"Filiera-Token-SmartContract/contracts/Actor/Retailer-smart-contract/inventory/RetailerInventoryStorage.sol\":3195:3206  cheesePiece */\n      dup1\n        /* \"Filiera-Token-SmartContract/contracts/Actor/Retailer-smart-contract/inventory/RetailerInventoryStorage.sol\":3195:3213  cheesePiece.weight */\n      0x40\n      add\n      mload\n        /* \"Filiera-Token-SmartContract/contracts/Actor/Retailer-smart-contract/inventory/RetailerInventoryStorage.sol\":3188:3213  return cheesePiece.weight */\n      swap2\n      pop\n      pop\n        /* \"Filiera-Token-SmartContract/contracts/Actor/Retailer-smart-contract/inventory/RetailerInventoryStorage.sol\":3010:3221  function getWeight(address walletRetailer, uint256 _id) external view returns (uint256) {... */\n      swap3\n      swap2\n      pop\n      pop\n      jump\t// out\n        /* \"#utility.yul\":88:205   */\n    tag_56:\n        /* \"#utility.yul\":197:198   */\n      0x00\n        /* \"#utility.yul\":194:195   */\n      dup1\n        /* \"#utility.yul\":187:199   */\n      revert\n        /* \"#utility.yul\":334:460   */\n    tag_58:\n        /* \"#utility.yul\":371:378   */\n      0x00\n        /* \"#utility.yul\":411:453   */\n      0xffffffffffffffffffffffffffffffffffffffff\n        /* \"#utility.yul\":404:409   */\n      dup3\n        /* \"#utility.yul\":400:454   */\n      and\n        /* \"#utility.yul\":389:454   */\n      swap1\n      pop\n        /* \"#utility.yul\":334:460   */\n      swap2\n      swap1\n      pop\n      jump\t// out\n        /* \"#utility.yul\":466:562   */\n    tag_59:\n        /* \"#utility.yul\":503:510   */\n      0x00\n        /* \"#utility.yul\":532:556   */\n      tag_85\n        /* \"#utility.yul\":550:555   */\n      dup3\n        /* \"#utility.yul\":532:556   */\n      tag_58\n      jump\t// in\n    tag_85:\n        /* \"#utility.yul\":521:556   */\n      swap1\n      pop\n        /* \"#utility.yul\":466:562   */\n      swap2\n      swap1\n      pop\n      jump\t// out\n        /* \"#utility.yul\":568:690   */\n    tag_60:\n        /* \"#utility.yul\":641:665   */\n      tag_87\n        /* \"#utility.yul\":659:664   */\n      dup2\n        /* \"#utility.yul\":641:665   */\n      tag_59\n      jump\t// in\n    tag_87:\n        /* \"#utility.yul\":634:639   */\n      dup2\n        /* \"#utility.yul\":631:666   */\n      eq\n        /* \"#utility.yul\":621:684   */\n      tag_88\n      jumpi\n        /* \"#utility.yul\":680:681   */\n      0x00\n        /* \"#utility.yul\":677:678   */\n      dup1\n        /* \"#utility.yul\":670:682   */\n      revert\n        /* \"#utility.yul\":621:684   */\n    tag_88:\n        /* \"#utility.yul\":568:690   */\n      pop\n      jump\t// out\n        /* \"#utility.yul\":696:835   */\n    tag_61:\n        /* \"#utility.yul\":742:747   */\n      0x00\n        /* \"#utility.yul\":780:786   */\n      dup2\n        /* \"#utility.yul\":767:787   */\n      calldataload\n        /* \"#utility.yul\":758:787   */\n      swap1\n      pop\n        /* \"#utility.yul\":796:829   */\n      tag_90\n        /* \"#utility.yul\":823:828   */\n      dup2\n        /* \"#utility.yul\":796:829   */\n      tag_60\n      jump\t// in\n    tag_90:\n        /* \"#utility.yul\":696:835   */\n      swap3\n      swap2\n      pop\n      pop\n      jump\t// out\n        /* \"#utility.yul\":841:918   */\n    tag_62:\n        /* \"#utility.yul\":878:885   */\n      0x00\n        /* \"#utility.yul\":907:912   */\n      dup2\n        /* \"#utility.yul\":896:912   */\n      swap1\n      pop\n        /* \"#utility.yul\":841:918   */\n      swap2\n      swap1\n      pop\n      jump\t// out\n        /* \"#utility.yul\":924:1046   */\n    tag_63:\n        /* \"#utility.yul\":997:1021   */\n      tag_93\n        /* \"#utility.yul\":1015:1020   */\n      dup2\n        /* \"#utility.yul\":997:1021   */\n      tag_62\n      jump\t// in\n    tag_93:\n        /* \"#utility.yul\":990:995   */\n      dup2\n        /* \"#utility.yul\":987:1022   */\n      eq\n        /* \"#utility.yul\":977:1040   */\n      tag_94\n      jumpi\n        /* \"#utility.yul\":1036:1037   */\n      0x00\n        /* \"#utility.yul\":1033:1034   */\n      dup1\n        /* \"#utility.yul\":1026:1038   */\n      revert\n        /* \"#utility.yul\":977:1040   */\n    tag_94:\n        /* \"#utility.yul\":924:1046   */\n      pop\n      jump\t// out\n        /* \"#utility.yul\":1052:1191   */\n    tag_64:\n        /* \"#utility.yul\":1098:1103   */\n      0x00\n        /* \"#utility.yul\":1136:1142   */\n      dup2\n        /* \"#utility.yul\":1123:1143   */\n      calldataload\n        /* \"#utility.yul\":1114:1143   */\n      swap1\n      pop\n        /* \"#utility.yul\":1152:1185   */\n      tag_96\n        /* \"#utility.yul\":1179:1184   */\n      dup2\n        /* \"#utility.yul\":1152:1185   */\n      tag_63\n      jump\t// in\n    tag_96:\n        /* \"#utility.yul\":1052:1191   */\n      swap3\n      swap2\n      pop\n      pop\n      jump\t// out\n        /* \"#utility.yul\":1197:1671   */\n    tag_11:\n        /* \"#utility.yul\":1265:1271   */\n      0x00\n        /* \"#utility.yul\":1273:1279   */\n      dup1\n        /* \"#utility.yul\":1322:1324   */\n      0x40\n        /* \"#utility.yul\":1310:1319   */\n      dup4\n        /* \"#utility.yul\":1301:1308   */\n      dup6\n        /* \"#utility.yul\":1297:1320   */\n      sub\n        /* \"#utility.yul\":1293:1325   */\n      slt\n        /* \"#utility.yul\":1290:1409   */\n      iszero\n      tag_98\n      jumpi\n        /* \"#utility.yul\":1328:1407   */\n      tag_99\n      tag_56\n      jump\t// in\n    tag_99:\n        /* \"#utility.yul\":1290:1409   */\n    tag_98:\n        /* \"#utility.yul\":1448:1449   */\n      0x00\n        /* \"#utility.yul\":1473:1526   */\n      tag_100\n        /* \"#utility.yul\":1518:1525   */\n      dup6\n        /* \"#utility.yul\":1509:1515   */\n      dup3\n        /* \"#utility.yul\":1498:1507   */\n      dup7\n        /* \"#utility.yul\":1494:1516   */\n      add\n        /* \"#utility.yul\":1473:1526   */\n      tag_61\n      jump\t// in\n    tag_100:\n        /* \"#utility.yul\":1463:1526   */\n      swap3\n      pop\n        /* \"#utility.yul\":1419:1536   */\n      pop\n        /* \"#utility.yul\":1575:1577   */\n      0x20\n        /* \"#utility.yul\":1601:1654   */\n      tag_101\n        /* \"#utility.yul\":1646:1653   */\n      dup6\n        /* \"#utility.yul\":1637:1643   */\n      dup3\n        /* \"#utility.yul\":1626:1635   */\n      dup7\n        /* \"#utility.yul\":1622:1644   */\n      add\n        /* \"#utility.yul\":1601:1654   */\n      tag_64\n      jump\t// in\n    tag_101:\n        /* \"#utility.yul\":1591:1654   */\n      swap2\n      pop\n        /* \"#utility.yul\":1546:1664   */\n      pop\n        /* \"#utility.yul\":1197:1671   */\n      swap3\n      pop\n      swap3\n      swap1\n      pop\n      jump\t// out\n        /* \"#utility.yul\":1677:1795   */\n    tag_65:\n        /* \"#utility.yul\":1764:1788   */\n      tag_103\n        /* \"#utility.yul\":1782:1787   */\n      dup2\n        /* \"#utility.yul\":1764:1788   */\n      tag_62\n      jump\t// in\n    tag_103:\n        /* \"#utility.yul\":1759:1762   */\n      dup3\n        /* \"#utility.yul\":1752:1789   */\n      mstore\n        /* \"#utility.yul\":1677:1795   */\n      pop\n      pop\n      jump\t// out\n        /* \"#utility.yul\":1801:2243   */\n    tag_14:\n        /* \"#utility.yul\":1950:1954   */\n      0x00\n        /* \"#utility.yul\":1988:1990   */\n      0x60\n        /* \"#utility.yul\":1977:1986   */\n      dup3\n        /* \"#utility.yul\":1973:1991   */\n      add\n        /* \"#utility.yul\":1965:1991   */\n      swap1\n      pop\n        /* \"#utility.yul\":2001:2072   */\n      tag_105\n        /* \"#utility.yul\":2069:2070   */\n      0x00\n        /* \"#utility.yul\":2058:2067   */\n      dup4\n        /* \"#utility.yul\":2054:2071   */\n      add\n        /* \"#utility.yul\":2045:2051   */\n      dup7\n        /* \"#utility.yul\":2001:2072   */\n      tag_65\n      jump\t// in\n    tag_105:\n        /* \"#utility.yul\":2082:2154   */\n      tag_106\n        /* \"#utility.yul\":2150:2152   */\n      0x20\n        /* \"#utility.yul\":2139:2148   */\n      dup4\n        /* \"#utility.yul\":2135:2153   */\n      add\n        /* \"#utility.yul\":2126:2132   */\n      dup6\n        /* \"#utility.yul\":2082:2154   */\n      tag_65\n      jump\t// in\n    tag_106:\n        /* \"#utility.yul\":2164:2236   */\n      tag_107\n        /* \"#utility.yul\":2232:2234   */\n      0x40\n        /* \"#utility.yul\":2221:2230   */\n      dup4\n        /* \"#utility.yul\":2217:2235   */\n      add\n        /* \"#utility.yul\":2208:2214   */\n      dup5\n        /* \"#utility.yul\":2164:2236   */\n      tag_65\n      jump\t// in\n    tag_107:\n        /* \"#utility.yul\":1801:2243   */\n      swap5\n      swap4\n      pop\n      pop\n      pop\n      pop\n      jump\t// out\n        /* \"#utility.yul\":2249:2339   */\n    tag_66:\n        /* \"#utility.yul\":2283:2290   */\n      0x00\n        /* \"#utility.yul\":2326:2331   */\n      dup2\n        /* \"#utility.yul\":2319:2332   */\n      iszero\n        /* \"#utility.yul\":2312:2333   */\n      iszero\n        /* \"#utility.yul\":2301:2333   */\n      swap1\n      pop\n        /* \"#utility.yul\":2249:2339   */\n      swap2\n      swap1\n      pop\n      jump\t// out\n        /* \"#utility.yul\":2345:2454   */\n    tag_67:\n        /* \"#utility.yul\":2426:2447   */\n      tag_110\n        /* \"#utility.yul\":2441:2446   */\n      dup2\n        /* \"#utility.yul\":2426:2447   */\n      tag_66\n      jump\t// in\n    tag_110:\n        /* \"#utility.yul\":2421:2424   */\n      dup3\n        /* \"#utility.yul\":2414:2448   */\n      mstore\n        /* \"#utility.yul\":2345:2454   */\n      pop\n      pop\n      jump\t// out\n        /* \"#utility.yul\":2460:2670   */\n    tag_19:\n        /* \"#utility.yul\":2547:2551   */\n      0x00\n        /* \"#utility.yul\":2585:2587   */\n      0x20\n        /* \"#utility.yul\":2574:2583   */\n      dup3\n        /* \"#utility.yul\":2570:2588   */\n      add\n        /* \"#utility.yul\":2562:2588   */\n      swap1\n      pop\n        /* \"#utility.yul\":2598:2663   */\n      tag_112\n        /* \"#utility.yul\":2660:2661   */\n      0x00\n        /* \"#utility.yul\":2649:2658   */\n      dup4\n        /* \"#utility.yul\":2645:2662   */\n      add\n        /* \"#utility.yul\":2636:2642   */\n      dup5\n        /* \"#utility.yul\":2598:2663   */\n      tag_67\n      jump\t// in\n    tag_112:\n        /* \"#utility.yul\":2460:2670   */\n      swap3\n      swap2\n      pop\n      pop\n      jump\t// out\n        /* \"#utility.yul\":2676:2898   */\n    tag_24:\n        /* \"#utility.yul\":2769:2773   */\n      0x00\n        /* \"#utility.yul\":2807:2809   */\n      0x20\n        /* \"#utility.yul\":2796:2805   */\n      dup3\n        /* \"#utility.yul\":2792:2810   */\n      add\n        /* \"#utility.yul\":2784:2810   */\n      swap1\n      pop\n        /* \"#utility.yul\":2820:2891   */\n      tag_114\n        /* \"#utility.yul\":2888:2889   */\n      0x00\n        /* \"#utility.yul\":2877:2886   */\n      dup4\n        /* \"#utility.yul\":2873:2890   */\n      add\n        /* \"#utility.yul\":2864:2870   */\n      dup5\n        /* \"#utility.yul\":2820:2891   */\n      tag_65\n      jump\t// in\n    tag_114:\n        /* \"#utility.yul\":2676:2898   */\n      swap3\n      swap2\n      pop\n      pop\n      jump\t// out\n        /* \"#utility.yul\":2904:3669   */\n    tag_27:\n        /* \"#utility.yul\":2990:2996   */\n      0x00\n        /* \"#utility.yul\":2998:3004   */\n      dup1\n        /* \"#utility.yul\":3006:3012   */\n      0x00\n        /* \"#utility.yul\":3014:3020   */\n      dup1\n        /* \"#utility.yul\":3063:3066   */\n      0x80\n        /* \"#utility.yul\":3051:3060   */\n      dup6\n        /* \"#utility.yul\":3042:3049   */\n      dup8\n        /* \"#utility.yul\":3038:3061   */\n      sub\n        /* \"#utility.yul\":3034:3067   */\n      slt\n        /* \"#utility.yul\":3031:3151   */\n      iszero\n      tag_116\n      jumpi\n        /* \"#utility.yul\":3070:3149   */\n      tag_117\n      tag_56\n      jump\t// in\n    tag_117:\n        /* \"#utility.yul\":3031:3151   */\n    tag_116:\n        /* \"#utility.yul\":3190:3191   */\n      0x00\n        /* \"#utility.yul\":3215:3268   */\n      tag_118\n        /* \"#utility.yul\":3260:3267   */\n      dup8\n        /* \"#utility.yul\":3251:3257   */\n      dup3\n        /* \"#utility.yul\":3240:3249   */\n      dup9\n        /* \"#utility.yul\":3236:3258   */\n      add\n        /* \"#utility.yul\":3215:3268   */\n      tag_61\n      jump\t// in\n    tag_118:\n        /* \"#utility.yul\":3205:3268   */\n      swap5\n      pop\n        /* \"#utility.yul\":3161:3278   */\n      pop\n        /* \"#utility.yul\":3317:3319   */\n      0x20\n        /* \"#utility.yul\":3343:3396   */\n      tag_119\n        /* \"#utility.yul\":3388:3395   */\n      dup8\n        /* \"#utility.yul\":3379:3385   */\n      dup3\n        /* \"#utility.yul\":3368:3377   */\n      dup9\n        /* \"#utility.yul\":3364:3386   */\n      add\n        /* \"#utility.yul\":3343:3396   */\n      tag_64\n      jump\t// in\n    tag_119:\n        /* \"#utility.yul\":3333:3396   */\n      swap4\n      pop\n        /* \"#utility.yul\":3288:3406   */\n      pop\n        /* \"#utility.yul\":3445:3447   */\n      0x40\n        /* \"#utility.yul\":3471:3524   */\n      tag_120\n        /* \"#utility.yul\":3516:3523   */\n      dup8\n        /* \"#utility.yul\":3507:3513   */\n      dup3\n        /* \"#utility.yul\":3496:3505   */\n      dup9\n        /* \"#utility.yul\":3492:3514   */\n      add\n        /* \"#utility.yul\":3471:3524   */\n      tag_64\n      jump\t// in\n    tag_120:\n        /* \"#utility.yul\":3461:3524   */\n      swap3\n      pop\n        /* \"#utility.yul\":3416:3534   */\n      pop\n        /* \"#utility.yul\":3573:3575   */\n      0x60\n        /* \"#utility.yul\":3599:3652   */\n      tag_121\n        /* \"#utility.yul\":3644:3651   */\n      dup8\n        /* \"#utility.yul\":3635:3641   */\n      dup3\n        /* \"#utility.yul\":3624:3633   */\n      dup9\n        /* \"#utility.yul\":3620:3642   */\n      add\n        /* \"#utility.yul\":3599:3652   */\n      tag_64\n      jump\t// in\n    tag_121:\n        /* \"#utility.yul\":3589:3652   */\n      swap2\n      pop\n        /* \"#utility.yul\":3544:3662   */\n      pop\n        /* \"#utility.yul\":2904:3669   */\n      swap3\n      swap6\n      swap2\n      swap5\n      pop\n      swap3\n      pop\n      jump\t// out\n        /* \"#utility.yul\":3675:3754   */\n    tag_68:\n        /* \"#utility.yul\":3714:3721   */\n      0x00\n        /* \"#utility.yul\":3743:3748   */\n      dup2\n        /* \"#utility.yul\":3732:3748   */\n      swap1\n      pop\n        /* \"#utility.yul\":3675:3754   */\n      swap2\n      swap1\n      pop\n      jump\t// out\n        /* \"#utility.yul\":3760:3917   */\n    tag_69:\n        /* \"#utility.yul\":3865:3910   */\n      tag_124\n        /* \"#utility.yul\":3885:3909   */\n      tag_125\n        /* \"#utility.yul\":3903:3908   */\n      dup3\n        /* \"#utility.yul\":3885:3909   */\n      tag_62\n      jump\t// in\n    tag_125:\n        /* \"#utility.yul\":3865:3910   */\n      tag_68\n      jump\t// in\n    tag_124:\n        /* \"#utility.yul\":3860:3863   */\n      dup3\n        /* \"#utility.yul\":3853:3911   */\n      mstore\n        /* \"#utility.yul\":3760:3917   */\n      pop\n      pop\n      jump\t// out\n        /* \"#utility.yul\":3923:4017   */\n    tag_70:\n        /* \"#utility.yul\":3956:3964   */\n      0x00\n        /* \"#utility.yul\":4004:4009   */\n      dup2\n        /* \"#utility.yul\":4000:4002   */\n      0x60\n        /* \"#utility.yul\":3996:4010   */\n      shl\n        /* \"#utility.yul\":3975:4010   */\n      swap1\n      pop\n        /* \"#utility.yul\":3923:4017   */\n      swap2\n      swap1\n      pop\n      jump\t// out\n        /* \"#utility.yul\":4023:4117   */\n    tag_71:\n        /* \"#utility.yul\":4062:4069   */\n      0x00\n        /* \"#utility.yul\":4091:4111   */\n      tag_128\n        /* \"#utility.yul\":4105:4110   */\n      dup3\n        /* \"#utility.yul\":4091:4111   */\n      tag_70\n      jump\t// in\n    tag_128:\n        /* \"#utility.yul\":4080:4111   */\n      swap1\n      pop\n        /* \"#utility.yul\":4023:4117   */\n      swap2\n      swap1\n      pop\n      jump\t// out\n        /* \"#utility.yul\":4123:4223   */\n    tag_72:\n        /* \"#utility.yul\":4162:4169   */\n      0x00\n        /* \"#utility.yul\":4191:4217   */\n      tag_130\n        /* \"#utility.yul\":4211:4216   */\n      dup3\n        /* \"#utility.yul\":4191:4217   */\n      tag_71\n      jump\t// in\n    tag_130:\n        /* \"#utility.yul\":4180:4217   */\n      swap1\n      pop\n        /* \"#utility.yul\":4123:4223   */\n      swap2\n      swap1\n      pop\n      jump\t// out\n        /* \"#utility.yul\":4229:4386   */\n    tag_73:\n        /* \"#utility.yul\":4334:4379   */\n      tag_132\n        /* \"#utility.yul\":4354:4378   */\n      tag_133\n        /* \"#utility.yul\":4372:4377   */\n      dup3\n        /* \"#utility.yul\":4354:4378   */\n      tag_59\n      jump\t// in\n    tag_133:\n        /* \"#utility.yul\":4334:4379   */\n      tag_72\n      jump\t// in\n    tag_132:\n        /* \"#utility.yul\":4329:4332   */\n      dup3\n        /* \"#utility.yul\":4322:4380   */\n      mstore\n        /* \"#utility.yul\":4229:4386   */\n      pop\n      pop\n      jump\t// out\n        /* \"#utility.yul\":4392:5071   */\n    tag_45:\n        /* \"#utility.yul\":4588:4591   */\n      0x00\n        /* \"#utility.yul\":4603:4678   */\n      tag_135\n        /* \"#utility.yul\":4674:4677   */\n      dup3\n        /* \"#utility.yul\":4665:4671   */\n      dup8\n        /* \"#utility.yul\":4603:4678   */\n      tag_69\n      jump\t// in\n    tag_135:\n        /* \"#utility.yul\":4703:4705   */\n      0x20\n        /* \"#utility.yul\":4698:4701   */\n      dup3\n        /* \"#utility.yul\":4694:4706   */\n      add\n        /* \"#utility.yul\":4687:4706   */\n      swap2\n      pop\n        /* \"#utility.yul\":4716:4791   */\n      tag_136\n        /* \"#utility.yul\":4787:4790   */\n      dup3\n        /* \"#utility.yul\":4778:4784   */\n      dup7\n        /* \"#utility.yul\":4716:4791   */\n      tag_69\n      jump\t// in\n    tag_136:\n        /* \"#utility.yul\":4816:4818   */\n      0x20\n        /* \"#utility.yul\":4811:4814   */\n      dup3\n        /* \"#utility.yul\":4807:4819   */\n      add\n        /* \"#utility.yul\":4800:4819   */\n      swap2\n      pop\n        /* \"#utility.yul\":4829:4904   */\n      tag_137\n        /* \"#utility.yul\":4900:4903   */\n      dup3\n        /* \"#utility.yul\":4891:4897   */\n      dup6\n        /* \"#utility.yul\":4829:4904   */\n      tag_69\n      jump\t// in\n    tag_137:\n        /* \"#utility.yul\":4929:4931   */\n      0x20\n        /* \"#utility.yul\":4924:4927   */\n      dup3\n        /* \"#utility.yul\":4920:4932   */\n      add\n        /* \"#utility.yul\":4913:4932   */\n      swap2\n      pop\n        /* \"#utility.yul\":4942:5017   */\n      tag_138\n        /* \"#utility.yul\":5013:5016   */\n      dup3\n        /* \"#utility.yul\":5004:5010   */\n      dup5\n        /* \"#utility.yul\":4942:5017   */\n      tag_73\n      jump\t// in\n    tag_138:\n        /* \"#utility.yul\":5042:5044   */\n      0x14\n        /* \"#utility.yul\":5037:5040   */\n      dup3\n        /* \"#utility.yul\":5033:5045   */\n      add\n        /* \"#utility.yul\":5026:5045   */\n      swap2\n      pop\n        /* \"#utility.yul\":5062:5065   */\n      dup2\n        /* \"#utility.yul\":5055:5065   */\n      swap1\n      pop\n        /* \"#utility.yul\":4392:5071   */\n      swap6\n      swap5\n      pop\n      pop\n      pop\n      pop\n      pop\n      jump\t// out\n        /* \"#utility.yul\":5077:5246   */\n    tag_74:\n        /* \"#utility.yul\":5161:5172   */\n      0x00\n        /* \"#utility.yul\":5195:5201   */\n      dup3\n        /* \"#utility.yul\":5190:5193   */\n      dup3\n        /* \"#utility.yul\":5183:5202   */\n      mstore\n        /* \"#utility.yul\":5235:5239   */\n      0x20\n        /* \"#utility.yul\":5230:5233   */\n      dup3\n        /* \"#utility.yul\":5226:5240   */\n      add\n        /* \"#utility.yul\":5211:5240   */\n      swap1\n      pop\n        /* \"#utility.yul\":5077:5246   */\n      swap3\n      swap2\n      pop\n      pop\n      jump\t// out\n        /* \"#utility.yul\":5252:5472   */\n    tag_75:\n        /* \"#utility.yul\":5392:5426   */\n      0x50657a7a6f20646920666f726d616767696f20676961272070726573656e7465\n        /* \"#utility.yul\":5388:5389   */\n      0x00\n        /* \"#utility.yul\":5380:5386   */\n      dup3\n        /* \"#utility.yul\":5376:5390   */\n      add\n        /* \"#utility.yul\":5369:5427   */\n      mstore\n        /* \"#utility.yul\":5461:5464   */\n      0x2100000000000000000000000000000000000000000000000000000000000000\n        /* \"#utility.yul\":5456:5458   */\n      0x20\n        /* \"#utility.yul\":5448:5454   */\n      dup3\n        /* \"#utility.yul\":5444:5459   */\n      add\n        /* \"#utility.yul\":5437:5465   */\n      mstore\n        /* \"#utility.yul\":5252:5472   */\n      pop\n      jump\t// out\n        /* \"#utility.yul\":5478:5844   */\n    tag_76:\n        /* \"#utility.yul\":5620:5623   */\n      0x00\n        /* \"#utility.yul\":5641:5708   */\n      tag_142\n        /* \"#utility.yul\":5705:5707   */\n      0x21\n        /* \"#utility.yul\":5700:5703   */\n      dup4\n        /* \"#utility.yul\":5641:5708   */\n      tag_74\n      jump\t// in\n    tag_142:\n        /* \"#utility.yul\":5634:5708   */\n      swap2\n      pop\n        /* \"#utility.yul\":5717:5810   */\n      tag_143\n        /* \"#utility.yul\":5806:5809   */\n      dup3\n        /* \"#utility.yul\":5717:5810   */\n      tag_75\n      jump\t// in\n    tag_143:\n        /* \"#utility.yul\":5835:5837   */\n      0x40\n        /* \"#utility.yul\":5830:5833   */\n      dup3\n        /* \"#utility.yul\":5826:5838   */\n      add\n        /* \"#utility.yul\":5819:5838   */\n      swap1\n      pop\n        /* \"#utility.yul\":5478:5844   */\n      swap2\n      swap1\n      pop\n      jump\t// out\n        /* \"#utility.yul\":5850:6269   */\n    tag_48:\n        /* \"#utility.yul\":6016:6020   */\n      0x00\n        /* \"#utility.yul\":6054:6056   */\n      0x20\n        /* \"#utility.yul\":6043:6052   */\n      dup3\n        /* \"#utility.yul\":6039:6057   */\n      add\n        /* \"#utility.yul\":6031:6057   */\n      swap1\n      pop\n        /* \"#utility.yul\":6103:6112   */\n      dup2\n        /* \"#utility.yul\":6097:6101   */\n      dup2\n        /* \"#utility.yul\":6093:6113   */\n      sub\n        /* \"#utility.yul\":6089:6090   */\n      0x00\n        /* \"#utility.yul\":6078:6087   */\n      dup4\n        /* \"#utility.yul\":6074:6091   */\n      add\n        /* \"#utility.yul\":6067:6114   */\n      mstore\n        /* \"#utility.yul\":6131:6262   */\n      tag_145\n        /* \"#utility.yul\":6257:6261   */\n      dup2\n        /* \"#utility.yul\":6131:6262   */\n      tag_76\n      jump\t// in\n    tag_145:\n        /* \"#utility.yul\":6123:6262   */\n      swap1\n      pop\n        /* \"#utility.yul\":5850:6269   */\n      swap2\n      swap1\n      pop\n      jump\t// out\n        /* \"#utility.yul\":6275:6451   */\n    tag_77:\n        /* \"#utility.yul\":6415:6443   */\n      0x4944204368656573655069656365204e6f6e2056616c69646f21000000000000\n        /* \"#utility.yul\":6411:6412   */\n      0x00\n        /* \"#utility.yul\":6403:6409   */\n      dup3\n        /* \"#utility.yul\":6399:6413   */\n      add\n        /* \"#utility.yul\":6392:6444   */\n      mstore\n        /* \"#utility.yul\":6275:6451   */\n      pop\n      jump\t// out\n        /* \"#utility.yul\":6457:6823   */\n    tag_78:\n        /* \"#utility.yul\":6599:6602   */\n      0x00\n        /* \"#utility.yul\":6620:6687   */\n      tag_148\n        /* \"#utility.yul\":6684:6686   */\n      0x1a\n        /* \"#utility.yul\":6679:6682   */\n      dup4\n        /* \"#utility.yul\":6620:6687   */\n      tag_74\n      jump\t// in\n    tag_148:\n        /* \"#utility.yul\":6613:6687   */\n      swap2\n      pop\n        /* \"#utility.yul\":6696:6789   */\n      tag_149\n        /* \"#utility.yul\":6785:6788   */\n      dup3\n        /* \"#utility.yul\":6696:6789   */\n      tag_77\n      jump\t// in\n    tag_149:\n        /* \"#utility.yul\":6814:6816   */\n      0x20\n        /* \"#utility.yul\":6809:6812   */\n      dup3\n        /* \"#utility.yul\":6805:6817   */\n      add\n        /* \"#utility.yul\":6798:6817   */\n      swap1\n      pop\n        /* \"#utility.yul\":6457:6823   */\n      swap2\n      swap1\n      pop\n      jump\t// out\n        /* \"#utility.yul\":6829:7248   */\n    tag_53:\n        /* \"#utility.yul\":6995:6999   */\n      0x00\n        /* \"#utility.yul\":7033:7035   */\n      0x20\n        /* \"#utility.yul\":7022:7031   */\n      dup3\n        /* \"#utility.yul\":7018:7036   */\n      add\n        /* \"#utility.yul\":7010:7036   */\n      swap1\n      pop\n        /* \"#utility.yul\":7082:7091   */\n      dup2\n        /* \"#utility.yul\":7076:7080   */\n      dup2\n        /* \"#utility.yul\":7072:7092   */\n      sub\n        /* \"#utility.yul\":7068:7069   */\n      0x00\n        /* \"#utility.yul\":7057:7066   */\n      dup4\n        /* \"#utility.yul\":7053:7070   */\n      add\n        /* \"#utility.yul\":7046:7093   */\n      mstore\n        /* \"#utility.yul\":7110:7241   */\n      tag_151\n        /* \"#utility.yul\":7236:7240   */\n      dup2\n        /* \"#utility.yul\":7110:7241   */\n      tag_78\n      jump\t// in\n    tag_151:\n        /* \"#utility.yul\":7102:7241   */\n      swap1\n      pop\n        /* \"#utility.yul\":6829:7248   */\n      swap2\n      swap1\n      pop\n      jump\t// out\n\n    auxdata: 0xa2646970667358221220e4eaad27a3086ea21bc8373ef14a90bf2d594976a4936ae3f295a7feb7e880fd64736f6c63430008160033\n}\n",
				"bytecode": {
					"linkReferences": {},
					"object": "608060405234801561000f575f80fd5b50335f806101000a81548173ffffffffffffffffffffffffffffffffffffffff021916908373ffffffffffffffffffffffffffffffffffffffff1602179055506109be8061005c5f395ff3fe608060405234801561000f575f80fd5b5060043610610060575f3560e01c80630b7aa47314610064578063348b4c5a14610096578063449e815d146100c65780635a52c657146100f65780639bc7c21c14610128578063afd47d3e14610158575b5f80fd5b61007e6004803603810190610079919061069e565b610188565b60405161008d939291906106eb565b60405180910390f35b6100b060048036038101906100ab919061069e565b61021e565b6040516100bd919061073a565b60405180910390f35b6100e060048036038101906100db919061069e565b6102ea565b6040516100ed9190610753565b60405180910390f35b610110600480360381019061010b919061076c565b610370565b60405161011f939291906106eb565b60405180910390f35b610142600480360381019061013d919061069e565b6104df565b60405161014f919061073a565b60405180910390f35b610172600480360381019061016d919061069e565b610587565b60405161017f9190610753565b60405180910390f35b5f805f8060015f8773ffffffffffffffffffffffffffffffffffffffff1673ffffffffffffffffffffffffffffffffffffffff1681526020019081526020015f205f8681526020019081526020015f206040518060600160405290815f8201548152602001600182015481526020016002820154815250509050805f015181602001518260400151935093509350509250925092565b5f60015f8473ffffffffffffffffffffffffffffffffffffffff1673ffffffffffffffffffffffffffffffffffffffff1681526020019081526020015f205f8381526020019081526020015f205f8082015f9055600182015f9055600282015f905550505f60015f8573ffffffffffffffffffffffffffffffffffffffff1673ffffffffffffffffffffffffffffffffffffffff1681526020019081526020015f205f8481526020019081526020015f205f0154036102e057600190506102e4565b5f90505b92915050565b5f8060015f8573ffffffffffffffffffffffffffffffffffffffff1673ffffffffffffffffffffffffffffffffffffffff1681526020019081526020015f205f8481526020019081526020015f206040518060600160405290815f8201548152602001600182015481526020016002820154815250509050806020015191505092915050565b5f805f808686868a60405160200161038b9493929190610835565b604051602081830303815290604052805190602001205f1c90505f60015f8a73ffffffffffffffffffffffffffffffffffffffff1673ffffffffffffffffffffffffffffffffffffffff1681526020019081526020015f205f8381526020019081526020015f205f015414610435576040517f08c379a000000000000000000000000000000000000000000000000000000000815260040161042c90610902565b60405180910390fd5b5f60405180606001604052808381526020018881526020018781525090508060015f8b73ffffffffffffffffffffffffffffffffffffffff1673ffffffffffffffffffffffffffffffffffffffff1681526020019081526020015f205f8481526020019081526020015f205f820151815f01556020820151816001015560408201518160020155905050805f01518160200151826040015194509450945050509450945094915050565b5f8082141580156104ef57505f82115b61052e576040517f08c379a00000000000000000000000000000000000000000000000000000000081526004016105259061096a565b60405180910390fd5b8160015f8573ffffffffffffffffffffffffffffffffffffffff1673ffffffffffffffffffffffffffffffffffffffff1681526020019081526020015f205f8481526020019081526020015f205f015414905092915050565b5f8060015f8573ffffffffffffffffffffffffffffffffffffffff1673ffffffffffffffffffffffffffffffffffffffff1681526020019081526020015f205f8481526020019081526020015f206040518060600160405290815f8201548152602001600182015481526020016002820154815250509050806040015191505092915050565b5f80fd5b5f73ffffffffffffffffffffffffffffffffffffffff82169050919050565b5f61063a82610611565b9050919050565b61064a81610630565b8114610654575f80fd5b50565b5f8135905061066581610641565b92915050565b5f819050919050565b61067d8161066b565b8114610687575f80fd5b50565b5f8135905061069881610674565b92915050565b5f80604083850312156106b4576106b361060d565b5b5f6106c185828601610657565b92505060206106d28582860161068a565b9150509250929050565b6106e58161066b565b82525050565b5f6060820190506106fe5f8301866106dc565b61070b60208301856106dc565b61071860408301846106dc565b949350505050565b5f8115159050919050565b61073481610720565b82525050565b5f60208201905061074d5f83018461072b565b92915050565b5f6020820190506107665f8301846106dc565b92915050565b5f805f80608085870312156107845761078361060d565b5b5f61079187828801610657565b94505060206107a28782880161068a565b93505060406107b38782880161068a565b92505060606107c48782880161068a565b91505092959194509250565b5f819050919050565b6107ea6107e58261066b565b6107d0565b82525050565b5f8160601b9050919050565b5f610806826107f0565b9050919050565b5f610817826107fc565b9050919050565b61082f61082a82610630565b61080d565b82525050565b5f61084082876107d9565b60208201915061085082866107d9565b60208201915061086082856107d9565b602082019150610870828461081e565b60148201915081905095945050505050565b5f82825260208201905092915050565b7f50657a7a6f20646920666f726d616767696f20676961272070726573656e74655f8201527f2100000000000000000000000000000000000000000000000000000000000000602082015250565b5f6108ec602183610882565b91506108f782610892565b604082019050919050565b5f6020820190508181035f830152610919816108e0565b9050919050565b7f4944204368656573655069656365204e6f6e2056616c69646f210000000000005f82015250565b5f610954601a83610882565b915061095f82610920565b602082019050919050565b5f6020820190508181035f83015261098181610948565b905091905056fea2646970667358221220e4eaad27a3086ea21bc8373ef14a90bf2d594976a4936ae3f295a7feb7e880fd64736f6c63430008160033",
					"opcodes": "PUSH1 0x80 PUSH1 0x40 MSTORE CALLVALUE DUP1 ISZERO PUSH2 0xF JUMPI PUSH0 DUP1 REVERT JUMPDEST POP CALLER PUSH0 DUP1 PUSH2 0x100 EXP DUP2 SLOAD DUP2 PUSH20 0xFFFFFFFFFFFFFFFFFFFFFFFFFFFFFFFFFFFFFFFF MUL NOT AND SWAP1 DUP4 PUSH20 0xFFFFFFFFFFFFFFFFFFFFFFFFFFFFFFFFFFFFFFFF AND MUL OR SWAP1 SSTORE POP PUSH2 0x9BE DUP1 PUSH2 0x5C PUSH0 CODECOPY PUSH0 RETURN INVALID PUSH1 0x80 PUSH1 0x40 MSTORE CALLVALUE DUP1 ISZERO PUSH2 0xF JUMPI PUSH0 DUP1 REVERT JUMPDEST POP PUSH1 0x4 CALLDATASIZE LT PUSH2 0x60 JUMPI PUSH0 CALLDATALOAD PUSH1 0xE0 SHR DUP1 PUSH4 0xB7AA473 EQ PUSH2 0x64 JUMPI DUP1 PUSH4 0x348B4C5A EQ PUSH2 0x96 JUMPI DUP1 PUSH4 0x449E815D EQ PUSH2 0xC6 JUMPI DUP1 PUSH4 0x5A52C657 EQ PUSH2 0xF6 JUMPI DUP1 PUSH4 0x9BC7C21C EQ PUSH2 0x128 JUMPI DUP1 PUSH4 0xAFD47D3E EQ PUSH2 0x158 JUMPI JUMPDEST PUSH0 DUP1 REVERT JUMPDEST PUSH2 0x7E PUSH1 0x4 DUP1 CALLDATASIZE SUB DUP2 ADD SWAP1 PUSH2 0x79 SWAP2 SWAP1 PUSH2 0x69E JUMP JUMPDEST PUSH2 0x188 JUMP JUMPDEST PUSH1 0x40 MLOAD PUSH2 0x8D SWAP4 SWAP3 SWAP2 SWAP1 PUSH2 0x6EB JUMP JUMPDEST PUSH1 0x40 MLOAD DUP1 SWAP2 SUB SWAP1 RETURN JUMPDEST PUSH2 0xB0 PUSH1 0x4 DUP1 CALLDATASIZE SUB DUP2 ADD SWAP1 PUSH2 0xAB SWAP2 SWAP1 PUSH2 0x69E JUMP JUMPDEST PUSH2 0x21E JUMP JUMPDEST PUSH1 0x40 MLOAD PUSH2 0xBD SWAP2 SWAP1 PUSH2 0x73A JUMP JUMPDEST PUSH1 0x40 MLOAD DUP1 SWAP2 SUB SWAP1 RETURN JUMPDEST PUSH2 0xE0 PUSH1 0x4 DUP1 CALLDATASIZE SUB DUP2 ADD SWAP1 PUSH2 0xDB SWAP2 SWAP1 PUSH2 0x69E JUMP JUMPDEST PUSH2 0x2EA JUMP JUMPDEST PUSH1 0x40 MLOAD PUSH2 0xED SWAP2 SWAP1 PUSH2 0x753 JUMP JUMPDEST PUSH1 0x40 MLOAD DUP1 SWAP2 SUB SWAP1 RETURN JUMPDEST PUSH2 0x110 PUSH1 0x4 DUP1 CALLDATASIZE SUB DUP2 ADD SWAP1 PUSH2 0x10B SWAP2 SWAP1 PUSH2 0x76C JUMP JUMPDEST PUSH2 0x370 JUMP JUMPDEST PUSH1 0x40 MLOAD PUSH2 0x11F SWAP4 SWAP3 SWAP2 SWAP1 PUSH2 0x6EB JUMP JUMPDEST PUSH1 0x40 MLOAD DUP1 SWAP2 SUB SWAP1 RETURN JUMPDEST PUSH2 0x142 PUSH1 0x4 DUP1 CALLDATASIZE SUB DUP2 ADD SWAP1 PUSH2 0x13D SWAP2 SWAP1 PUSH2 0x69E JUMP JUMPDEST PUSH2 0x4DF JUMP JUMPDEST PUSH1 0x40 MLOAD PUSH2 0x14F SWAP2 SWAP1 PUSH2 0x73A JUMP JUMPDEST PUSH1 0x40 MLOAD DUP1 SWAP2 SUB SWAP1 RETURN JUMPDEST PUSH2 0x172 PUSH1 0x4 DUP1 CALLDATASIZE SUB DUP2 ADD SWAP1 PUSH2 0x16D SWAP2 SWAP1 PUSH2 0x69E JUMP JUMPDEST PUSH2 0x587 JUMP JUMPDEST PUSH1 0x40 MLOAD PUSH2 0x17F SWAP2 SWAP1 PUSH2 0x753 JUMP JUMPDEST PUSH1 0x40 MLOAD DUP1 SWAP2 SUB SWAP1 RETURN JUMPDEST PUSH0 DUP1 PUSH0 DUP1 PUSH1 0x1 PUSH0 DUP8 PUSH20 0xFFFFFFFFFFFFFFFFFFFFFFFFFFFFFFFFFFFFFFFF AND PUSH20 0xFFFFFFFFFFFFFFFFFFFFFFFFFFFFFFFFFFFFFFFF AND DUP2 MSTORE PUSH1 0x20 ADD SWAP1 DUP2 MSTORE PUSH1 0x20 ADD PUSH0 KECCAK256 PUSH0 DUP7 DUP2 MSTORE PUSH1 0x20 ADD SWAP1 DUP2 MSTORE PUSH1 0x20 ADD PUSH0 KECCAK256 PUSH1 0x40 MLOAD DUP1 PUSH1 0x60 ADD PUSH1 0x40 MSTORE SWAP1 DUP2 PUSH0 DUP3 ADD SLOAD DUP2 MSTORE PUSH1 0x20 ADD PUSH1 0x1 DUP3 ADD SLOAD DUP2 MSTORE PUSH1 0x20 ADD PUSH1 0x2 DUP3 ADD SLOAD DUP2 MSTORE POP POP SWAP1 POP DUP1 PUSH0 ADD MLOAD DUP2 PUSH1 0x20 ADD MLOAD DUP3 PUSH1 0x40 ADD MLOAD SWAP4 POP SWAP4 POP SWAP4 POP POP SWAP3 POP SWAP3 POP SWAP3 JUMP JUMPDEST PUSH0 PUSH1 0x1 PUSH0 DUP5 PUSH20 0xFFFFFFFFFFFFFFFFFFFFFFFFFFFFFFFFFFFFFFFF AND PUSH20 0xFFFFFFFFFFFFFFFFFFFFFFFFFFFFFFFFFFFFFFFF AND DUP2 MSTORE PUSH1 0x20 ADD SWAP1 DUP2 MSTORE PUSH1 0x20 ADD PUSH0 KECCAK256 PUSH0 DUP4 DUP2 MSTORE PUSH1 0x20 ADD SWAP1 DUP2 MSTORE PUSH1 0x20 ADD PUSH0 KECCAK256 PUSH0 DUP1 DUP3 ADD PUSH0 SWAP1 SSTORE PUSH1 0x1 DUP3 ADD PUSH0 SWAP1 SSTORE PUSH1 0x2 DUP3 ADD PUSH0 SWAP1 SSTORE POP POP PUSH0 PUSH1 0x1 PUSH0 DUP6 PUSH20 0xFFFFFFFFFFFFFFFFFFFFFFFFFFFFFFFFFFFFFFFF AND PUSH20 0xFFFFFFFFFFFFFFFFFFFFFFFFFFFFFFFFFFFFFFFF AND DUP2 MSTORE PUSH1 0x20 ADD SWAP1 DUP2 MSTORE PUSH1 0x20 ADD PUSH0 KECCAK256 PUSH0 DUP5 DUP2 MSTORE PUSH1 0x20 ADD SWAP1 DUP2 MSTORE PUSH1 0x20 ADD PUSH0 KECCAK256 PUSH0 ADD SLOAD SUB PUSH2 0x2E0 JUMPI PUSH1 0x1 SWAP1 POP PUSH2 0x2E4 JUMP JUMPDEST PUSH0 SWAP1 POP JUMPDEST SWAP3 SWAP2 POP POP JUMP JUMPDEST PUSH0 DUP1 PUSH1 0x1 PUSH0 DUP6 PUSH20 0xFFFFFFFFFFFFFFFFFFFFFFFFFFFFFFFFFFFFFFFF AND PUSH20 0xFFFFFFFFFFFFFFFFFFFFFFFFFFFFFFFFFFFFFFFF AND DUP2 MSTORE PUSH1 0x20 ADD SWAP1 DUP2 MSTORE PUSH1 0x20 ADD PUSH0 KECCAK256 PUSH0 DUP5 DUP2 MSTORE PUSH1 0x20 ADD SWAP1 DUP2 MSTORE PUSH1 0x20 ADD PUSH0 KECCAK256 PUSH1 0x40 MLOAD DUP1 PUSH1 0x60 ADD PUSH1 0x40 MSTORE SWAP1 DUP2 PUSH0 DUP3 ADD SLOAD DUP2 MSTORE PUSH1 0x20 ADD PUSH1 0x1 DUP3 ADD SLOAD DUP2 MSTORE PUSH1 0x20 ADD PUSH1 0x2 DUP3 ADD SLOAD DUP2 MSTORE POP POP SWAP1 POP DUP1 PUSH1 0x20 ADD MLOAD SWAP2 POP POP SWAP3 SWAP2 POP POP JUMP JUMPDEST PUSH0 DUP1 PUSH0 DUP1 DUP7 DUP7 DUP7 DUP11 PUSH1 0x40 MLOAD PUSH1 0x20 ADD PUSH2 0x38B SWAP5 SWAP4 SWAP3 SWAP2 SWAP1 PUSH2 0x835 JUMP JUMPDEST PUSH1 0x40 MLOAD PUSH1 0x20 DUP2 DUP4 SUB SUB DUP2 MSTORE SWAP1 PUSH1 0x40 MSTORE DUP1 MLOAD SWAP1 PUSH1 0x20 ADD KECCAK256 PUSH0 SHR SWAP1 POP PUSH0 PUSH1 0x1 PUSH0 DUP11 PUSH20 0xFFFFFFFFFFFFFFFFFFFFFFFFFFFFFFFFFFFFFFFF AND PUSH20 0xFFFFFFFFFFFFFFFFFFFFFFFFFFFFFFFFFFFFFFFF AND DUP2 MSTORE PUSH1 0x20 ADD SWAP1 DUP2 MSTORE PUSH1 0x20 ADD PUSH0 KECCAK256 PUSH0 DUP4 DUP2 MSTORE PUSH1 0x20 ADD SWAP1 DUP2 MSTORE PUSH1 0x20 ADD PUSH0 KECCAK256 PUSH0 ADD SLOAD EQ PUSH2 0x435 JUMPI PUSH1 0x40 MLOAD PUSH32 0x8C379A000000000000000000000000000000000000000000000000000000000 DUP2 MSTORE PUSH1 0x4 ADD PUSH2 0x42C SWAP1 PUSH2 0x902 JUMP JUMPDEST PUSH1 0x40 MLOAD DUP1 SWAP2 SUB SWAP1 REVERT JUMPDEST PUSH0 PUSH1 0x40 MLOAD DUP1 PUSH1 0x60 ADD PUSH1 0x40 MSTORE DUP1 DUP4 DUP2 MSTORE PUSH1 0x20 ADD DUP9 DUP2 MSTORE PUSH1 0x20 ADD DUP8 DUP2 MSTORE POP SWAP1 POP DUP1 PUSH1 0x1 PUSH0 DUP12 PUSH20 0xFFFFFFFFFFFFFFFFFFFFFFFFFFFFFFFFFFFFFFFF AND PUSH20 0xFFFFFFFFFFFFFFFFFFFFFFFFFFFFFFFFFFFFFFFF AND DUP2 MSTORE PUSH1 0x20 ADD SWAP1 DUP2 MSTORE PUSH1 0x20 ADD PUSH0 KECCAK256 PUSH0 DUP5 DUP2 MSTORE PUSH1 0x20 ADD SWAP1 DUP2 MSTORE PUSH1 0x20 ADD PUSH0 KECCAK256 PUSH0 DUP3 ADD MLOAD DUP2 PUSH0 ADD SSTORE PUSH1 0x20 DUP3 ADD MLOAD DUP2 PUSH1 0x1 ADD SSTORE PUSH1 0x40 DUP3 ADD MLOAD DUP2 PUSH1 0x2 ADD SSTORE SWAP1 POP POP DUP1 PUSH0 ADD MLOAD DUP2 PUSH1 0x20 ADD MLOAD DUP3 PUSH1 0x40 ADD MLOAD SWAP5 POP SWAP5 POP SWAP5 POP POP POP SWAP5 POP SWAP5 POP SWAP5 SWAP2 POP POP JUMP JUMPDEST PUSH0 DUP1 DUP3 EQ ISZERO DUP1 ISZERO PUSH2 0x4EF JUMPI POP PUSH0 DUP3 GT JUMPDEST PUSH2 0x52E JUMPI PUSH1 0x40 MLOAD PUSH32 0x8C379A000000000000000000000000000000000000000000000000000000000 DUP2 MSTORE PUSH1 0x4 ADD PUSH2 0x525 SWAP1 PUSH2 0x96A JUMP JUMPDEST PUSH1 0x40 MLOAD DUP1 SWAP2 SUB SWAP1 REVERT JUMPDEST DUP2 PUSH1 0x1 PUSH0 DUP6 PUSH20 0xFFFFFFFFFFFFFFFFFFFFFFFFFFFFFFFFFFFFFFFF AND PUSH20 0xFFFFFFFFFFFFFFFFFFFFFFFFFFFFFFFFFFFFFFFF AND DUP2 MSTORE PUSH1 0x20 ADD SWAP1 DUP2 MSTORE PUSH1 0x20 ADD PUSH0 KECCAK256 PUSH0 DUP5 DUP2 MSTORE PUSH1 0x20 ADD SWAP1 DUP2 MSTORE PUSH1 0x20 ADD PUSH0 KECCAK256 PUSH0 ADD SLOAD EQ SWAP1 POP SWAP3 SWAP2 POP POP JUMP JUMPDEST PUSH0 DUP1 PUSH1 0x1 PUSH0 DUP6 PUSH20 0xFFFFFFFFFFFFFFFFFFFFFFFFFFFFFFFFFFFFFFFF AND PUSH20 0xFFFFFFFFFFFFFFFFFFFFFFFFFFFFFFFFFFFFFFFF AND DUP2 MSTORE PUSH1 0x20 ADD SWAP1 DUP2 MSTORE PUSH1 0x20 ADD PUSH0 KECCAK256 PUSH0 DUP5 DUP2 MSTORE PUSH1 0x20 ADD SWAP1 DUP2 MSTORE PUSH1 0x20 ADD PUSH0 KECCAK256 PUSH1 0x40 MLOAD DUP1 PUSH1 0x60 ADD PUSH1 0x40 MSTORE SWAP1 DUP2 PUSH0 DUP3 ADD SLOAD DUP2 MSTORE PUSH1 0x20 ADD PUSH1 0x1 DUP3 ADD SLOAD DUP2 MSTORE PUSH1 0x20 ADD PUSH1 0x2 DUP3 ADD SLOAD DUP2 MSTORE POP POP SWAP1 POP DUP1 PUSH1 0x40 ADD MLOAD SWAP2 POP POP SWAP3 SWAP2 POP POP JUMP JUMPDEST PUSH0 DUP1 REVERT JUMPDEST PUSH0 PUSH20 0xFFFFFFFFFFFFFFFFFFFFFFFFFFFFFFFFFFFFFFFF DUP3 AND SWAP1 POP SWAP2 SWAP1 POP JUMP JUMPDEST PUSH0 PUSH2 0x63A DUP3 PUSH2 0x611 JUMP JUMPDEST SWAP1 POP SWAP2 SWAP1 POP JUMP JUMPDEST PUSH2 0x64A DUP2 PUSH2 0x630 JUMP JUMPDEST DUP2 EQ PUSH2 0x654 JUMPI PUSH0 DUP1 REVERT JUMPDEST POP JUMP JUMPDEST PUSH0 DUP2 CALLDATALOAD SWAP1 POP PUSH2 0x665 DUP2 PUSH2 0x641 JUMP JUMPDEST SWAP3 SWAP2 POP POP JUMP JUMPDEST PUSH0 DUP2 SWAP1 POP SWAP2 SWAP1 POP JUMP JUMPDEST PUSH2 0x67D DUP2 PUSH2 0x66B JUMP JUMPDEST DUP2 EQ PUSH2 0x687 JUMPI PUSH0 DUP1 REVERT JUMPDEST POP JUMP JUMPDEST PUSH0 DUP2 CALLDATALOAD SWAP1 POP PUSH2 0x698 DUP2 PUSH2 0x674 JUMP JUMPDEST SWAP3 SWAP2 POP POP JUMP JUMPDEST PUSH0 DUP1 PUSH1 0x40 DUP4 DUP6 SUB SLT ISZERO PUSH2 0x6B4 JUMPI PUSH2 0x6B3 PUSH2 0x60D JUMP JUMPDEST JUMPDEST PUSH0 PUSH2 0x6C1 DUP6 DUP3 DUP7 ADD PUSH2 0x657 JUMP JUMPDEST SWAP3 POP POP PUSH1 0x20 PUSH2 0x6D2 DUP6 DUP3 DUP7 ADD PUSH2 0x68A JUMP JUMPDEST SWAP2 POP POP SWAP3 POP SWAP3 SWAP1 POP JUMP JUMPDEST PUSH2 0x6E5 DUP2 PUSH2 0x66B JUMP JUMPDEST DUP3 MSTORE POP POP JUMP JUMPDEST PUSH0 PUSH1 0x60 DUP3 ADD SWAP1 POP PUSH2 0x6FE PUSH0 DUP4 ADD DUP7 PUSH2 0x6DC JUMP JUMPDEST PUSH2 0x70B PUSH1 0x20 DUP4 ADD DUP6 PUSH2 0x6DC JUMP JUMPDEST PUSH2 0x718 PUSH1 0x40 DUP4 ADD DUP5 PUSH2 0x6DC JUMP JUMPDEST SWAP5 SWAP4 POP POP POP POP JUMP JUMPDEST PUSH0 DUP2 ISZERO ISZERO SWAP1 POP SWAP2 SWAP1 POP JUMP JUMPDEST PUSH2 0x734 DUP2 PUSH2 0x720 JUMP JUMPDEST DUP3 MSTORE POP POP JUMP JUMPDEST PUSH0 PUSH1 0x20 DUP3 ADD SWAP1 POP PUSH2 0x74D PUSH0 DUP4 ADD DUP5 PUSH2 0x72B JUMP JUMPDEST SWAP3 SWAP2 POP POP JUMP JUMPDEST PUSH0 PUSH1 0x20 DUP3 ADD SWAP1 POP PUSH2 0x766 PUSH0 DUP4 ADD DUP5 PUSH2 0x6DC JUMP JUMPDEST SWAP3 SWAP2 POP POP JUMP JUMPDEST PUSH0 DUP1 PUSH0 DUP1 PUSH1 0x80 DUP6 DUP8 SUB SLT ISZERO PUSH2 0x784 JUMPI PUSH2 0x783 PUSH2 0x60D JUMP JUMPDEST JUMPDEST PUSH0 PUSH2 0x791 DUP8 DUP3 DUP9 ADD PUSH2 0x657 JUMP JUMPDEST SWAP5 POP POP PUSH1 0x20 PUSH2 0x7A2 DUP8 DUP3 DUP9 ADD PUSH2 0x68A JUMP JUMPDEST SWAP4 POP POP PUSH1 0x40 PUSH2 0x7B3 DUP8 DUP3 DUP9 ADD PUSH2 0x68A JUMP JUMPDEST SWAP3 POP POP PUSH1 0x60 PUSH2 0x7C4 DUP8 DUP3 DUP9 ADD PUSH2 0x68A JUMP JUMPDEST SWAP2 POP POP SWAP3 SWAP6 SWAP2 SWAP5 POP SWAP3 POP JUMP JUMPDEST PUSH0 DUP2 SWAP1 POP SWAP2 SWAP1 POP JUMP JUMPDEST PUSH2 0x7EA PUSH2 0x7E5 DUP3 PUSH2 0x66B JUMP JUMPDEST PUSH2 0x7D0 JUMP JUMPDEST DUP3 MSTORE POP POP JUMP JUMPDEST PUSH0 DUP2 PUSH1 0x60 SHL SWAP1 POP SWAP2 SWAP1 POP JUMP JUMPDEST PUSH0 PUSH2 0x806 DUP3 PUSH2 0x7F0 JUMP JUMPDEST SWAP1 POP SWAP2 SWAP1 POP JUMP JUMPDEST PUSH0 PUSH2 0x817 DUP3 PUSH2 0x7FC JUMP JUMPDEST SWAP1 POP SWAP2 SWAP1 POP JUMP JUMPDEST PUSH2 0x82F PUSH2 0x82A DUP3 PUSH2 0x630 JUMP JUMPDEST PUSH2 0x80D JUMP JUMPDEST DUP3 MSTORE POP POP JUMP JUMPDEST PUSH0 PUSH2 0x840 DUP3 DUP8 PUSH2 0x7D9 JUMP JUMPDEST PUSH1 0x20 DUP3 ADD SWAP2 POP PUSH2 0x850 DUP3 DUP7 PUSH2 0x7D9 JUMP JUMPDEST PUSH1 0x20 DUP3 ADD SWAP2 POP PUSH2 0x860 DUP3 DUP6 PUSH2 0x7D9 JUMP JUMPDEST PUSH1 0x20 DUP3 ADD SWAP2 POP PUSH2 0x870 DUP3 DUP5 PUSH2 0x81E JUMP JUMPDEST PUSH1 0x14 DUP3 ADD SWAP2 POP DUP2 SWAP1 POP SWAP6 SWAP5 POP POP POP POP POP JUMP JUMPDEST PUSH0 DUP3 DUP3 MSTORE PUSH1 0x20 DUP3 ADD SWAP1 POP SWAP3 SWAP2 POP POP JUMP JUMPDEST PUSH32 0x50657A7A6F20646920666F726D616767696F20676961272070726573656E7465 PUSH0 DUP3 ADD MSTORE PUSH32 0x2100000000000000000000000000000000000000000000000000000000000000 PUSH1 0x20 DUP3 ADD MSTORE POP JUMP JUMPDEST PUSH0 PUSH2 0x8EC PUSH1 0x21 DUP4 PUSH2 0x882 JUMP JUMPDEST SWAP2 POP PUSH2 0x8F7 DUP3 PUSH2 0x892 JUMP JUMPDEST PUSH1 0x40 DUP3 ADD SWAP1 POP SWAP2 SWAP1 POP JUMP JUMPDEST PUSH0 PUSH1 0x20 DUP3 ADD SWAP1 POP DUP2 DUP2 SUB PUSH0 DUP4 ADD MSTORE PUSH2 0x919 DUP2 PUSH2 0x8E0 JUMP JUMPDEST SWAP1 POP SWAP2 SWAP1 POP JUMP JUMPDEST PUSH32 0x4944204368656573655069656365204E6F6E2056616C69646F21000000000000 PUSH0 DUP3 ADD MSTORE POP JUMP JUMPDEST PUSH0 PUSH2 0x954 PUSH1 0x1A DUP4 PUSH2 0x882 JUMP JUMPDEST SWAP2 POP PUSH2 0x95F DUP3 PUSH2 0x920 JUMP JUMPDEST PUSH1 0x20 DUP3 ADD SWAP1 POP SWAP2 SWAP1 POP JUMP JUMPDEST PUSH0 PUSH1 0x20 DUP3 ADD SWAP1 POP DUP2 DUP2 SUB PUSH0 DUP4 ADD MSTORE PUSH2 0x981 DUP2 PUSH2 0x948 JUMP JUMPDEST SWAP1 POP SWAP2 SWAP1 POP JUMP INVALID LOG2 PUSH5 0x6970667358 0x22 SLT KECCAK256 0xE4 0xEA 0xAD 0x27 LOG3 ADDMOD PUSH15 0xA21BC8373EF14A90BF2D594976A493 PUSH11 0xE3F295A7FEB7E880FD6473 PUSH16 0x6C634300081600330000000000000000 "
				},
				"gasEstimates": {
					"creation": {
						"codeDepositCost": "498800",
						"executionCost": "24793",
						"totalCost": "523593"
					},
					"external": {
						"addCheesePiece(address,uint256,uint256,uint256)": "infinite",
						"deleteCheesePiece(address,uint256)": "18335",
						"getCheesePiece(address,uint256)": "infinite",
						"getPrice(address,uint256)": "infinite",
						"getWeight(address,uint256)": "infinite",
						"isCheesePiecePresent(address,uint256)": "3215"
					}
				},
				"methodIdentifiers": {
					"addCheesePiece(address,uint256,uint256,uint256)": "5a52c657",
					"deleteCheesePiece(address,uint256)": "348b4c5a",
					"getCheesePiece(address,uint256)": "0b7aa473",
					"getPrice(address,uint256)": "449e815d",
					"getWeight(address,uint256)": "afd47d3e",
					"isCheesePiecePresent(address,uint256)": "9bc7c21c"
				}
			},
			"storageLayout": {
				"storage": [
					{
						"astId": 3,
						"contract": "Filiera-Token-SmartContract/contracts/Actor/Retailer-smart-contract/inventory/RetailerInventoryStorage.sol:RetailerInventoryStorage",
						"label": "retailerOrg",
						"offset": 0,
						"slot": "0",
						"type": "t_address"
					},
					{
						"astId": 26,
						"contract": "Filiera-Token-SmartContract/contracts/Actor/Retailer-smart-contract/inventory/RetailerInventoryStorage.sol:RetailerInventoryStorage",
						"label": "cheesePieces",
						"offset": 0,
						"slot": "1",
						"type": "t_mapping(t_address,t_mapping(t_uint256,t_struct(CheesePiece)19_storage))"
					}
				],
				"types": {
					"t_address": {
						"encoding": "inplace",
						"label": "address",
						"numberOfBytes": "20"
					},
					"t_mapping(t_address,t_mapping(t_uint256,t_struct(CheesePiece)19_storage))": {
						"encoding": "mapping",
						"key": "t_address",
						"label": "mapping(address => mapping(uint256 => struct RetailerInventoryStorage.CheesePiece))",
						"numberOfBytes": "32",
						"value": "t_mapping(t_uint256,t_struct(CheesePiece)19_storage)"
					},
					"t_mapping(t_uint256,t_struct(CheesePiece)19_storage)": {
						"encoding": "mapping",
						"key": "t_uint256",
						"label": "mapping(uint256 => struct RetailerInventoryStorage.CheesePiece)",
						"numberOfBytes": "32",
						"value": "t_struct(CheesePiece)19_storage"
					},
					"t_struct(CheesePiece)19_storage": {
						"encoding": "inplace",
						"label": "struct RetailerInventoryStorage.CheesePiece",
						"members": [
							{
								"astId": 14,
								"contract": "Filiera-Token-SmartContract/contracts/Actor/Retailer-smart-contract/inventory/RetailerInventoryStorage.sol:RetailerInventoryStorage",
								"label": "id",
								"offset": 0,
								"slot": "0",
								"type": "t_uint256"
							},
							{
								"astId": 16,
								"contract": "Filiera-Token-SmartContract/contracts/Actor/Retailer-smart-contract/inventory/RetailerInventoryStorage.sol:RetailerInventoryStorage",
								"label": "price",
								"offset": 0,
								"slot": "1",
								"type": "t_uint256"
							},
							{
								"astId": 18,
								"contract": "Filiera-Token-SmartContract/contracts/Actor/Retailer-smart-contract/inventory/RetailerInventoryStorage.sol:RetailerInventoryStorage",
								"label": "weight",
								"offset": 0,
								"slot": "2",
								"type": "t_uint256"
							}
						],
						"numberOfBytes": "96"
					},
					"t_uint256": {
						"encoding": "inplace",
						"label": "uint256",
						"numberOfBytes": "32"
					}
				}
			},
			"userdoc": {
				"kind": "user",
				"methods": {},
				"version": 1
			}
		}
	}
}