{
	"contracts/Actor/Retailer-smart-contract/inventory/RetailerCheeseBlockStorage.sol": {
		"RetailerCheeseBlockStorage": {
			"abi": [
				{
					"inputs": [],
					"stateMutability": "nonpayable",
					"type": "constructor"
				},
				{
					"inputs": [
						{
							"internalType": "address",
							"name": "_walletRetailer",
							"type": "address"
						},
						{
							"internalType": "address",
							"name": "_walletCheeseProducer",
							"type": "address"
						},
						{
							"internalType": "uint256",
							"name": "_id_CheeseBlock",
							"type": "uint256"
						},
						{
							"internalType": "string",
							"name": "dop",
							"type": "string"
						},
						{
							"internalType": "uint256",
							"name": "_quantity",
							"type": "uint256"
						}
					],
					"name": "addCheeseBlock",
					"outputs": [
						{
							"internalType": "uint256",
							"name": "id_CheeseBlock_Acquistato",
							"type": "uint256"
						},
						{
							"internalType": "string",
							"name": "dopCheese",
							"type": "string"
						},
						{
							"internalType": "uint256",
							"name": "quantityAcquistata",
							"type": "uint256"
						}
					],
					"stateMutability": "nonpayable",
					"type": "function"
				},
				{
					"inputs": [
						{
							"internalType": "address",
							"name": "walletRetailer",
							"type": "address"
						},
						{
							"internalType": "uint256",
							"name": "_id",
							"type": "uint256"
						},
						{
							"internalType": "uint256",
							"name": "_quantityToTransform",
							"type": "uint256"
						}
					],
					"name": "checkCheese",
					"outputs": [
						{
							"internalType": "bool",
							"name": "",
							"type": "bool"
						}
					],
					"stateMutability": "view",
					"type": "function"
				},
				{
					"inputs": [
						{
							"internalType": "address",
							"name": "walletRetailer",
							"type": "address"
						},
						{
							"internalType": "uint256",
							"name": "_id",
							"type": "uint256"
						},
						{
							"internalType": "uint256",
							"name": "_quantityToTransform",
							"type": "uint256"
						}
					],
					"name": "checkQuantity",
					"outputs": [
						{
							"internalType": "bool",
							"name": "",
							"type": "bool"
						}
					],
					"stateMutability": "view",
					"type": "function"
				},
				{
					"inputs": [
						{
							"internalType": "address",
							"name": "walletRetailer",
							"type": "address"
						},
						{
							"internalType": "uint256",
							"name": "_id_CheeseBlockAcquistato",
							"type": "uint256"
						}
					],
					"name": "getCheeseBlock",
					"outputs": [
						{
							"internalType": "uint256",
							"name": "",
							"type": "uint256"
						},
						{
							"internalType": "address",
							"name": "",
							"type": "address"
						},
						{
							"internalType": "string",
							"name": "",
							"type": "string"
						},
						{
							"internalType": "uint256",
							"name": "",
							"type": "uint256"
						}
					],
					"stateMutability": "view",
					"type": "function"
				},
				{
					"inputs": [
						{
							"internalType": "address",
							"name": "walletRetailer",
							"type": "address"
						},
						{
							"internalType": "uint256",
							"name": "_id_cheeseBlockAcquistato",
							"type": "uint256"
						}
					],
					"name": "getDop",
					"outputs": [
						{
							"internalType": "string",
							"name": "",
							"type": "string"
						}
					],
					"stateMutability": "view",
					"type": "function"
				},
				{
					"inputs": [
						{
							"internalType": "address",
							"name": "walletRetailer",
							"type": "address"
						},
						{
							"internalType": "uint256",
							"name": "_id",
							"type": "uint256"
						}
					],
					"name": "getId",
					"outputs": [
						{
							"internalType": "uint256",
							"name": "",
							"type": "uint256"
						}
					],
					"stateMutability": "view",
					"type": "function"
				},
				{
					"inputs": [
						{
							"internalType": "address",
							"name": "walletRetailer",
							"type": "address"
						},
						{
							"internalType": "uint256",
							"name": "_id",
							"type": "uint256"
						}
					],
					"name": "getQuantity",
					"outputs": [
						{
							"internalType": "uint256",
							"name": "",
							"type": "uint256"
						}
					],
					"stateMutability": "view",
					"type": "function"
				},
				{
					"inputs": [
						{
							"internalType": "address",
							"name": "walletRetailer",
							"type": "address"
						},
						{
							"internalType": "uint256",
							"name": "_id",
							"type": "uint256"
						}
					],
					"name": "getWalletCheeseProducer",
					"outputs": [
						{
							"internalType": "address",
							"name": "",
							"type": "address"
						}
					],
					"stateMutability": "view",
					"type": "function"
				},
				{
					"inputs": [
						{
							"internalType": "address",
							"name": "walletRetailer",
							"type": "address"
						},
						{
							"internalType": "uint256",
							"name": "_id_CheeseBlockAcquistato",
							"type": "uint256"
						}
					],
					"name": "isCheesePresent",
					"outputs": [
						{
							"internalType": "bool",
							"name": "",
							"type": "bool"
						}
					],
					"stateMutability": "view",
					"type": "function"
				},
				{
					"inputs": [
						{
							"internalType": "address",
							"name": "walletRetailer",
							"type": "address"
						},
						{
							"internalType": "uint256",
							"name": "_id",
							"type": "uint256"
						},
						{
							"internalType": "uint256",
							"name": "_newQuantity",
							"type": "uint256"
						}
					],
					"name": "updateCheeseQuantity",
					"outputs": [],
					"stateMutability": "nonpayable",
					"type": "function"
				}
			],
			"devdoc": {
				"kind": "dev",
				"methods": {},
				"version": 1
			},
			"evm": {
				"assembly": "    /* \"contracts/Actor/Retailer-smart-contract/inventory/RetailerCheeseBlockStorage.sol\":135:6642  contract RetailerCheeseBlockStorage {... */\n  mstore(0x40, 0x80)\n    /* \"contracts/Actor/Retailer-smart-contract/inventory/RetailerCheeseBlockStorage.sol\":272:329  constructor() {... */\n  callvalue\n  dup1\n  iszero\n  tag_1\n  jumpi\n  0x00\n  dup1\n  revert\ntag_1:\n  pop\n    /* \"contracts/Actor/Retailer-smart-contract/inventory/RetailerCheeseBlockStorage.sol\":311:321  msg.sender */\n  caller\n    /* \"contracts/Actor/Retailer-smart-contract/inventory/RetailerCheeseBlockStorage.sol\":297:308  RetailerOrg */\n  0x00\n  dup1\n    /* \"contracts/Actor/Retailer-smart-contract/inventory/RetailerCheeseBlockStorage.sol\":297:321  RetailerOrg = msg.sender */\n  0x0100\n  exp\n  dup2\n  sload\n  dup2\n  0xffffffffffffffffffffffffffffffffffffffff\n  mul\n  not\n  and\n  swap1\n  dup4\n  0xffffffffffffffffffffffffffffffffffffffff\n  and\n  mul\n  or\n  swap1\n  sstore\n  pop\n    /* \"contracts/Actor/Retailer-smart-contract/inventory/RetailerCheeseBlockStorage.sol\":135:6642  contract RetailerCheeseBlockStorage {... */\n  dataSize(sub_0)\n  dup1\n  dataOffset(sub_0)\n  0x00\n  codecopy\n  0x00\n  return\nstop\n\nsub_0: assembly {\n        /* \"contracts/Actor/Retailer-smart-contract/inventory/RetailerCheeseBlockStorage.sol\":135:6642  contract RetailerCheeseBlockStorage {... */\n      mstore(0x40, 0x80)\n      callvalue\n      dup1\n      iszero\n      tag_1\n      jumpi\n      0x00\n      dup1\n      revert\n    tag_1:\n      pop\n      jumpi(tag_2, lt(calldatasize, 0x04))\n      shr(0xe0, calldataload(0x00))\n      dup1\n      0x8b3c04ce\n      gt\n      tag_13\n      jumpi\n      dup1\n      0x8b3c04ce\n      eq\n      tag_8\n      jumpi\n      dup1\n      0xc5d3e11d\n      eq\n      tag_9\n      jumpi\n      dup1\n      0xcc231726\n      eq\n      tag_10\n      jumpi\n      dup1\n      0xcfa41ed0\n      eq\n      tag_11\n      jumpi\n      dup1\n      0xf93bd021\n      eq\n      tag_12\n      jumpi\n      jump(tag_2)\n    tag_13:\n      dup1\n      0x0803da24\n      eq\n      tag_3\n      jumpi\n      dup1\n      0x1e073fcf\n      eq\n      tag_4\n      jumpi\n      dup1\n      0x453ecf04\n      eq\n      tag_5\n      jumpi\n      dup1\n      0x6fb82e06\n      eq\n      tag_6\n      jumpi\n      dup1\n      0x7745770a\n      eq\n      tag_7\n      jumpi\n    tag_2:\n      0x00\n      dup1\n      revert\n        /* \"contracts/Actor/Retailer-smart-contract/inventory/RetailerCheeseBlockStorage.sol\":6289:6633  function checkQuantity(address walletRetailer,  uint256 _id, uint256 _quantityToTransform ) external view returns(bool){... */\n    tag_3:\n      tag_14\n      0x04\n      dup1\n      calldatasize\n      sub\n      dup2\n      add\n      swap1\n      tag_15\n      swap2\n      swap1\n      tag_16\n      jump\t// in\n    tag_15:\n      tag_17\n      jump\t// in\n    tag_14:\n      mload(0x40)\n      tag_18\n      swap2\n      swap1\n      tag_19\n      jump\t// in\n    tag_18:\n      mload(0x40)\n      dup1\n      swap2\n      sub\n      swap1\n      return\n        /* \"contracts/Actor/Retailer-smart-contract/inventory/RetailerCheeseBlockStorage.sol\":5033:5249  function getQuantity(address walletRetailer, uint256 _id) external view returns(uint256) {... */\n    tag_4:\n      tag_20\n      0x04\n      dup1\n      calldatasize\n      sub\n      dup2\n      add\n      swap1\n      tag_21\n      swap2\n      swap1\n      tag_22\n      jump\t// in\n    tag_21:\n      tag_23\n      jump\t// in\n    tag_20:\n      mload(0x40)\n      tag_24\n      swap2\n      swap1\n      tag_25\n      jump\t// in\n    tag_24:\n      mload(0x40)\n      dup1\n      swap2\n      sub\n      swap1\n      return\n        /* \"contracts/Actor/Retailer-smart-contract/inventory/RetailerCheeseBlockStorage.sol\":4214:4590  function updateCheeseQuantity(address walletRetailer, uint256 _id, uint256 _newQuantity) external  {... */\n    tag_5:\n      tag_26\n      0x04\n      dup1\n      calldatasize\n      sub\n      dup2\n      add\n      swap1\n      tag_27\n      swap2\n      swap1\n      tag_16\n      jump\t// in\n    tag_27:\n      tag_28\n      jump\t// in\n    tag_26:\n      stop\n        /* \"contracts/Actor/Retailer-smart-contract/inventory/RetailerCheeseBlockStorage.sol\":3014:3358  function getCheeseBlock(address walletRetailer, uint256 _id_CheeseBlockAcquistato) external view returns (uint256, address,string memory, uint256) {... */\n    tag_6:\n      tag_29\n      0x04\n      dup1\n      calldatasize\n      sub\n      dup2\n      add\n      swap1\n      tag_30\n      swap2\n      swap1\n      tag_22\n      jump\t// in\n    tag_30:\n      tag_31\n      jump\t// in\n    tag_29:\n      mload(0x40)\n      tag_32\n      swap5\n      swap4\n      swap3\n      swap2\n      swap1\n      tag_33\n      jump\t// in\n    tag_32:\n      mload(0x40)\n      dup1\n      swap2\n      sub\n      swap1\n      return\n        /* \"contracts/Actor/Retailer-smart-contract/inventory/RetailerCheeseBlockStorage.sol\":5842:6279  function checkCheese(address walletRetailer, uint256 _id, uint256 _quantityToTransform) external view returns(bool) {... */\n    tag_7:\n      tag_34\n      0x04\n      dup1\n      calldatasize\n      sub\n      dup2\n      add\n      swap1\n      tag_35\n      swap2\n      swap1\n      tag_16\n      jump\t// in\n    tag_35:\n      tag_36\n      jump\t// in\n    tag_34:\n      mload(0x40)\n      tag_37\n      swap2\n      swap1\n      tag_19\n      jump\t// in\n    tag_37:\n      mload(0x40)\n      dup1\n      swap2\n      sub\n      swap1\n      return\n        /* \"contracts/Actor/Retailer-smart-contract/inventory/RetailerCheeseBlockStorage.sol\":1380:3004  function addCheeseBlock( ... */\n    tag_8:\n      tag_38\n      0x04\n      dup1\n      calldatasize\n      sub\n      dup2\n      add\n      swap1\n      tag_39\n      swap2\n      swap1\n      tag_40\n      jump\t// in\n    tag_39:\n      tag_41\n      jump\t// in\n    tag_38:\n      mload(0x40)\n      tag_42\n      swap4\n      swap3\n      swap2\n      swap1\n      tag_43\n      jump\t// in\n    tag_42:\n      mload(0x40)\n      dup1\n      swap2\n      sub\n      swap1\n      return\n        /* \"contracts/Actor/Retailer-smart-contract/inventory/RetailerCheeseBlockStorage.sol\":5497:5653  function getId(address walletRetailer, uint256 _id) external view returns(uint256) {... */\n    tag_9:\n      tag_44\n      0x04\n      dup1\n      calldatasize\n      sub\n      dup2\n      add\n      swap1\n      tag_45\n      swap2\n      swap1\n      tag_22\n      jump\t// in\n    tag_45:\n      tag_46\n      jump\t// in\n    tag_44:\n      mload(0x40)\n      tag_47\n      swap2\n      swap1\n      tag_25\n      jump\t// in\n    tag_47:\n      mload(0x40)\n      dup1\n      swap2\n      sub\n      swap1\n      return\n        /* \"contracts/Actor/Retailer-smart-contract/inventory/RetailerCheeseBlockStorage.sol\":5257:5489  function getWalletCheeseProducer(address walletRetailer, uint256 _id) external view returns(address) {... */\n    tag_10:\n      tag_48\n      0x04\n      dup1\n      calldatasize\n      sub\n      dup2\n      add\n      swap1\n      tag_49\n      swap2\n      swap1\n      tag_22\n      jump\t// in\n    tag_49:\n      tag_50\n      jump\t// in\n    tag_48:\n      mload(0x40)\n      tag_51\n      swap2\n      swap1\n      tag_52\n      jump\t// in\n    tag_51:\n      mload(0x40)\n      dup1\n      swap2\n      sub\n      swap1\n      return\n        /* \"contracts/Actor/Retailer-smart-contract/inventory/RetailerCheeseBlockStorage.sol\":3613:3951  function isCheesePresent(address walletRetailer, uint256 _id_CheeseBlockAcquistato)external view returns(bool){... */\n    tag_11:\n      tag_53\n      0x04\n      dup1\n      calldatasize\n      sub\n      dup2\n      add\n      swap1\n      tag_54\n      swap2\n      swap1\n      tag_22\n      jump\t// in\n    tag_54:\n      tag_55\n      jump\t// in\n    tag_53:\n      mload(0x40)\n      tag_56\n      swap2\n      swap1\n      tag_19\n      jump\t// in\n    tag_56:\n      mload(0x40)\n      dup1\n      swap2\n      sub\n      swap1\n      return\n        /* \"contracts/Actor/Retailer-smart-contract/inventory/RetailerCheeseBlockStorage.sol\":4775:5023  function getDop(address walletRetailer, uint256 _id_cheeseBlockAcquistato) external view returns(string memory) {... */\n    tag_12:\n      tag_57\n      0x04\n      dup1\n      calldatasize\n      sub\n      dup2\n      add\n      swap1\n      tag_58\n      swap2\n      swap1\n      tag_22\n      jump\t// in\n    tag_58:\n      tag_59\n      jump\t// in\n    tag_57:\n      mload(0x40)\n      tag_60\n      swap2\n      swap1\n      tag_61\n      jump\t// in\n    tag_60:\n      mload(0x40)\n      dup1\n      swap2\n      sub\n      swap1\n      return\n        /* \"contracts/Actor/Retailer-smart-contract/inventory/RetailerCheeseBlockStorage.sol\":6289:6633  function checkQuantity(address walletRetailer,  uint256 _id, uint256 _quantityToTransform ) external view returns(bool){... */\n    tag_17:\n        /* \"contracts/Actor/Retailer-smart-contract/inventory/RetailerCheeseBlockStorage.sol\":6403:6407  bool */\n      0x00\n        /* \"contracts/Actor/Retailer-smart-contract/inventory/RetailerCheeseBlockStorage.sol\":6429:6453  Cheese storage cheeseObj */\n      dup1\n        /* \"contracts/Actor/Retailer-smart-contract/inventory/RetailerCheeseBlockStorage.sol\":6456:6477  purchasedCheeseBlocks */\n      0x01\n        /* \"contracts/Actor/Retailer-smart-contract/inventory/RetailerCheeseBlockStorage.sol\":6456:6493  purchasedCheeseBlocks[walletRetailer] */\n      0x00\n        /* \"contracts/Actor/Retailer-smart-contract/inventory/RetailerCheeseBlockStorage.sol\":6478:6492  walletRetailer */\n      dup7\n        /* \"contracts/Actor/Retailer-smart-contract/inventory/RetailerCheeseBlockStorage.sol\":6456:6493  purchasedCheeseBlocks[walletRetailer] */\n      0xffffffffffffffffffffffffffffffffffffffff\n      and\n      0xffffffffffffffffffffffffffffffffffffffff\n      and\n      dup2\n      mstore\n      0x20\n      add\n      swap1\n      dup2\n      mstore\n      0x20\n      add\n      0x00\n      keccak256\n        /* \"contracts/Actor/Retailer-smart-contract/inventory/RetailerCheeseBlockStorage.sol\":6456:6498  purchasedCheeseBlocks[walletRetailer][_id] */\n      0x00\n        /* \"contracts/Actor/Retailer-smart-contract/inventory/RetailerCheeseBlockStorage.sol\":6494:6497  _id */\n      dup6\n        /* \"contracts/Actor/Retailer-smart-contract/inventory/RetailerCheeseBlockStorage.sol\":6456:6498  purchasedCheeseBlocks[walletRetailer][_id] */\n      dup2\n      mstore\n      0x20\n      add\n      swap1\n      dup2\n      mstore\n      0x20\n      add\n      0x00\n      keccak256\n        /* \"contracts/Actor/Retailer-smart-contract/inventory/RetailerCheeseBlockStorage.sol\":6429:6498  Cheese storage cheeseObj = purchasedCheeseBlocks[walletRetailer][_id] */\n      swap1\n      pop\n        /* \"contracts/Actor/Retailer-smart-contract/inventory/RetailerCheeseBlockStorage.sol\":6553:6573  _quantityToTransform */\n      dup3\n        /* \"contracts/Actor/Retailer-smart-contract/inventory/RetailerCheeseBlockStorage.sol\":6531:6540  cheeseObj */\n      dup2\n        /* \"contracts/Actor/Retailer-smart-contract/inventory/RetailerCheeseBlockStorage.sol\":6531:6549  cheeseObj.quantity */\n      0x04\n      add\n      sload\n        /* \"contracts/Actor/Retailer-smart-contract/inventory/RetailerCheeseBlockStorage.sol\":6531:6573  cheeseObj.quantity >= _quantityToTransform */\n      lt\n      iszero\n        /* \"contracts/Actor/Retailer-smart-contract/inventory/RetailerCheeseBlockStorage.sol\":6523:6597  require(cheeseObj.quantity >= _quantityToTransform, \"Quantity not Valid!\") */\n      tag_63\n      jumpi\n      mload(0x40)\n      0x08c379a000000000000000000000000000000000000000000000000000000000\n      dup2\n      mstore\n      0x04\n      add\n      tag_64\n      swap1\n      tag_65\n      jump\t// in\n    tag_64:\n      mload(0x40)\n      dup1\n      swap2\n      sub\n      swap1\n      revert\n    tag_63:\n        /* \"contracts/Actor/Retailer-smart-contract/inventory/RetailerCheeseBlockStorage.sol\":6617:6621  true */\n      0x01\n        /* \"contracts/Actor/Retailer-smart-contract/inventory/RetailerCheeseBlockStorage.sol\":6610:6621  return true */\n      swap2\n      pop\n      pop\n        /* \"contracts/Actor/Retailer-smart-contract/inventory/RetailerCheeseBlockStorage.sol\":6289:6633  function checkQuantity(address walletRetailer,  uint256 _id, uint256 _quantityToTransform ) external view returns(bool){... */\n      swap4\n      swap3\n      pop\n      pop\n      pop\n      jump\t// out\n        /* \"contracts/Actor/Retailer-smart-contract/inventory/RetailerCheeseBlockStorage.sol\":5033:5249  function getQuantity(address walletRetailer, uint256 _id) external view returns(uint256) {... */\n    tag_23:\n        /* \"contracts/Actor/Retailer-smart-contract/inventory/RetailerCheeseBlockStorage.sol\":5113:5120  uint256 */\n      0x00\n        /* \"contracts/Actor/Retailer-smart-contract/inventory/RetailerCheeseBlockStorage.sol\":5135:5155  Cheese memory cheese */\n      dup1\n        /* \"contracts/Actor/Retailer-smart-contract/inventory/RetailerCheeseBlockStorage.sol\":5158:5179  purchasedCheeseBlocks */\n      0x01\n        /* \"contracts/Actor/Retailer-smart-contract/inventory/RetailerCheeseBlockStorage.sol\":5158:5195  purchasedCheeseBlocks[walletRetailer] */\n      0x00\n        /* \"contracts/Actor/Retailer-smart-contract/inventory/RetailerCheeseBlockStorage.sol\":5180:5194  walletRetailer */\n      dup6\n        /* \"contracts/Actor/Retailer-smart-contract/inventory/RetailerCheeseBlockStorage.sol\":5158:5195  purchasedCheeseBlocks[walletRetailer] */\n      0xffffffffffffffffffffffffffffffffffffffff\n      and\n      0xffffffffffffffffffffffffffffffffffffffff\n      and\n      dup2\n      mstore\n      0x20\n      add\n      swap1\n      dup2\n      mstore\n      0x20\n      add\n      0x00\n      keccak256\n        /* \"contracts/Actor/Retailer-smart-contract/inventory/RetailerCheeseBlockStorage.sol\":5158:5200  purchasedCheeseBlocks[walletRetailer][_id] */\n      0x00\n        /* \"contracts/Actor/Retailer-smart-contract/inventory/RetailerCheeseBlockStorage.sol\":5196:5199  _id */\n      dup5\n        /* \"contracts/Actor/Retailer-smart-contract/inventory/RetailerCheeseBlockStorage.sol\":5158:5200  purchasedCheeseBlocks[walletRetailer][_id] */\n      dup2\n      mstore\n      0x20\n      add\n      swap1\n      dup2\n      mstore\n      0x20\n      add\n      0x00\n      keccak256\n        /* \"contracts/Actor/Retailer-smart-contract/inventory/RetailerCheeseBlockStorage.sol\":5135:5200  Cheese memory cheese = purchasedCheeseBlocks[walletRetailer][_id] */\n      mload(0x40)\n      dup1\n      0xa0\n      add\n      0x40\n      mstore\n      swap1\n      dup2\n      0x00\n      dup3\n      add\n      sload\n      dup2\n      mstore\n      0x20\n      add\n      0x01\n      dup3\n      add\n      sload\n      dup2\n      mstore\n      0x20\n      add\n      0x02\n      dup3\n      add\n      0x00\n      swap1\n      sload\n      swap1\n      0x0100\n      exp\n      swap1\n      div\n      0xffffffffffffffffffffffffffffffffffffffff\n      and\n      0xffffffffffffffffffffffffffffffffffffffff\n      and\n      0xffffffffffffffffffffffffffffffffffffffff\n      and\n      dup2\n      mstore\n      0x20\n      add\n      0x03\n      dup3\n      add\n      dup1\n      sload\n      tag_67\n      swap1\n      tag_68\n      jump\t// in\n    tag_67:\n      dup1\n      0x1f\n      add\n      0x20\n      dup1\n      swap2\n      div\n      mul\n      0x20\n      add\n      mload(0x40)\n      swap1\n      dup2\n      add\n      0x40\n      mstore\n      dup1\n      swap3\n      swap2\n      swap1\n      dup2\n      dup2\n      mstore\n      0x20\n      add\n      dup3\n      dup1\n      sload\n      tag_69\n      swap1\n      tag_68\n      jump\t// in\n    tag_69:\n      dup1\n      iszero\n      tag_70\n      jumpi\n      dup1\n      0x1f\n      lt\n      tag_71\n      jumpi\n      0x0100\n      dup1\n      dup4\n      sload\n      div\n      mul\n      dup4\n      mstore\n      swap2\n      0x20\n      add\n      swap2\n      jump(tag_70)\n    tag_71:\n      dup3\n      add\n      swap2\n      swap1\n      0x00\n      mstore\n      keccak256(0x00, 0x20)\n      swap1\n    tag_72:\n      dup2\n      sload\n      dup2\n      mstore\n      swap1\n      0x01\n      add\n      swap1\n      0x20\n      add\n      dup1\n      dup4\n      gt\n      tag_72\n      jumpi\n      dup3\n      swap1\n      sub\n      0x1f\n      and\n      dup3\n      add\n      swap2\n    tag_70:\n      pop\n      pop\n      pop\n      pop\n      pop\n      dup2\n      mstore\n      0x20\n      add\n      0x04\n      dup3\n      add\n      sload\n      dup2\n      mstore\n      pop\n      pop\n      swap1\n      pop\n        /* \"contracts/Actor/Retailer-smart-contract/inventory/RetailerCheeseBlockStorage.sol\":5218:5224  cheese */\n      dup1\n        /* \"contracts/Actor/Retailer-smart-contract/inventory/RetailerCheeseBlockStorage.sol\":5218:5233  cheese.quantity */\n      0x80\n      add\n      mload\n        /* \"contracts/Actor/Retailer-smart-contract/inventory/RetailerCheeseBlockStorage.sol\":5211:5233  return cheese.quantity */\n      swap2\n      pop\n      pop\n        /* \"contracts/Actor/Retailer-smart-contract/inventory/RetailerCheeseBlockStorage.sol\":5033:5249  function getQuantity(address walletRetailer, uint256 _id) external view returns(uint256) {... */\n      swap3\n      swap2\n      pop\n      pop\n      jump\t// out\n        /* \"contracts/Actor/Retailer-smart-contract/inventory/RetailerCheeseBlockStorage.sol\":4214:4590  function updateCheeseQuantity(address walletRetailer, uint256 _id, uint256 _newQuantity) external  {... */\n    tag_28:\n        /* \"contracts/Actor/Retailer-smart-contract/inventory/RetailerCheeseBlockStorage.sol\":4385:4406  purchasedCheeseBlocks */\n      0x01\n        /* \"contracts/Actor/Retailer-smart-contract/inventory/RetailerCheeseBlockStorage.sol\":4385:4422  purchasedCheeseBlocks[walletRetailer] */\n      0x00\n        /* \"contracts/Actor/Retailer-smart-contract/inventory/RetailerCheeseBlockStorage.sol\":4407:4421  walletRetailer */\n      dup5\n        /* \"contracts/Actor/Retailer-smart-contract/inventory/RetailerCheeseBlockStorage.sol\":4385:4422  purchasedCheeseBlocks[walletRetailer] */\n      0xffffffffffffffffffffffffffffffffffffffff\n      and\n      0xffffffffffffffffffffffffffffffffffffffff\n      and\n      dup2\n      mstore\n      0x20\n      add\n      swap1\n      dup2\n      mstore\n      0x20\n      add\n      0x00\n      keccak256\n        /* \"contracts/Actor/Retailer-smart-contract/inventory/RetailerCheeseBlockStorage.sol\":4385:4427  purchasedCheeseBlocks[walletRetailer][_id] */\n      0x00\n        /* \"contracts/Actor/Retailer-smart-contract/inventory/RetailerCheeseBlockStorage.sol\":4423:4426  _id */\n      dup4\n        /* \"contracts/Actor/Retailer-smart-contract/inventory/RetailerCheeseBlockStorage.sol\":4385:4427  purchasedCheeseBlocks[walletRetailer][_id] */\n      dup2\n      mstore\n      0x20\n      add\n      swap1\n      dup2\n      mstore\n      0x20\n      add\n      0x00\n      keccak256\n        /* \"contracts/Actor/Retailer-smart-contract/inventory/RetailerCheeseBlockStorage.sol\":4385:4436  purchasedCheeseBlocks[walletRetailer][_id].quantity */\n      0x04\n      add\n      sload\n        /* \"contracts/Actor/Retailer-smart-contract/inventory/RetailerCheeseBlockStorage.sol\":4371:4383  _newQuantity */\n      dup2\n        /* \"contracts/Actor/Retailer-smart-contract/inventory/RetailerCheeseBlockStorage.sol\":4371:4436  _newQuantity<=purchasedCheeseBlocks[walletRetailer][_id].quantity */\n      gt\n      iszero\n        /* \"contracts/Actor/Retailer-smart-contract/inventory/RetailerCheeseBlockStorage.sol\":4363:4503  require(_newQuantity<=purchasedCheeseBlocks[walletRetailer][_id].quantity,\"Controllo della Quantita' da utilizzare non andata a buon fine!\") */\n      tag_74\n      jumpi\n      mload(0x40)\n      0x08c379a000000000000000000000000000000000000000000000000000000000\n      dup2\n      mstore\n      0x04\n      add\n      tag_75\n      swap1\n      tag_76\n      jump\t// in\n    tag_75:\n      mload(0x40)\n      dup1\n      swap2\n      sub\n      swap1\n      revert\n    tag_74:\n        /* \"contracts/Actor/Retailer-smart-contract/inventory/RetailerCheeseBlockStorage.sol\":4570:4582  _newQuantity */\n      dup1\n        /* \"contracts/Actor/Retailer-smart-contract/inventory/RetailerCheeseBlockStorage.sol\":4516:4537  purchasedCheeseBlocks */\n      0x01\n        /* \"contracts/Actor/Retailer-smart-contract/inventory/RetailerCheeseBlockStorage.sol\":4516:4553  purchasedCheeseBlocks[walletRetailer] */\n      0x00\n        /* \"contracts/Actor/Retailer-smart-contract/inventory/RetailerCheeseBlockStorage.sol\":4538:4552  walletRetailer */\n      dup6\n        /* \"contracts/Actor/Retailer-smart-contract/inventory/RetailerCheeseBlockStorage.sol\":4516:4553  purchasedCheeseBlocks[walletRetailer] */\n      0xffffffffffffffffffffffffffffffffffffffff\n      and\n      0xffffffffffffffffffffffffffffffffffffffff\n      and\n      dup2\n      mstore\n      0x20\n      add\n      swap1\n      dup2\n      mstore\n      0x20\n      add\n      0x00\n      keccak256\n        /* \"contracts/Actor/Retailer-smart-contract/inventory/RetailerCheeseBlockStorage.sol\":4516:4558  purchasedCheeseBlocks[walletRetailer][_id] */\n      0x00\n        /* \"contracts/Actor/Retailer-smart-contract/inventory/RetailerCheeseBlockStorage.sol\":4554:4557  _id */\n      dup5\n        /* \"contracts/Actor/Retailer-smart-contract/inventory/RetailerCheeseBlockStorage.sol\":4516:4558  purchasedCheeseBlocks[walletRetailer][_id] */\n      dup2\n      mstore\n      0x20\n      add\n      swap1\n      dup2\n      mstore\n      0x20\n      add\n      0x00\n      keccak256\n        /* \"contracts/Actor/Retailer-smart-contract/inventory/RetailerCheeseBlockStorage.sol\":4516:4567  purchasedCheeseBlocks[walletRetailer][_id].quantity */\n      0x04\n      add\n        /* \"contracts/Actor/Retailer-smart-contract/inventory/RetailerCheeseBlockStorage.sol\":4516:4582  purchasedCheeseBlocks[walletRetailer][_id].quantity = _newQuantity */\n      dup2\n      swap1\n      sstore\n      pop\n        /* \"contracts/Actor/Retailer-smart-contract/inventory/RetailerCheeseBlockStorage.sol\":4214:4590  function updateCheeseQuantity(address walletRetailer, uint256 _id, uint256 _newQuantity) external  {... */\n      pop\n      pop\n      pop\n      jump\t// out\n        /* \"contracts/Actor/Retailer-smart-contract/inventory/RetailerCheeseBlockStorage.sol\":3014:3358  function getCheeseBlock(address walletRetailer, uint256 _id_CheeseBlockAcquistato) external view returns (uint256, address,string memory, uint256) {... */\n    tag_31:\n        /* \"contracts/Actor/Retailer-smart-contract/inventory/RetailerCheeseBlockStorage.sol\":3120:3127  uint256 */\n      0x00\n        /* \"contracts/Actor/Retailer-smart-contract/inventory/RetailerCheeseBlockStorage.sol\":3129:3136  address */\n      dup1\n        /* \"contracts/Actor/Retailer-smart-contract/inventory/RetailerCheeseBlockStorage.sol\":3137:3150  string memory */\n      0x60\n        /* \"contracts/Actor/Retailer-smart-contract/inventory/RetailerCheeseBlockStorage.sol\":3152:3159  uint256 */\n      0x00\n        /* \"contracts/Actor/Retailer-smart-contract/inventory/RetailerCheeseBlockStorage.sol\":3174:3194  Cheese memory cheese */\n      dup1\n        /* \"contracts/Actor/Retailer-smart-contract/inventory/RetailerCheeseBlockStorage.sol\":3197:3218  purchasedCheeseBlocks */\n      0x01\n        /* \"contracts/Actor/Retailer-smart-contract/inventory/RetailerCheeseBlockStorage.sol\":3197:3234  purchasedCheeseBlocks[walletRetailer] */\n      0x00\n        /* \"contracts/Actor/Retailer-smart-contract/inventory/RetailerCheeseBlockStorage.sol\":3219:3233  walletRetailer */\n      dup9\n        /* \"contracts/Actor/Retailer-smart-contract/inventory/RetailerCheeseBlockStorage.sol\":3197:3234  purchasedCheeseBlocks[walletRetailer] */\n      0xffffffffffffffffffffffffffffffffffffffff\n      and\n      0xffffffffffffffffffffffffffffffffffffffff\n      and\n      dup2\n      mstore\n      0x20\n      add\n      swap1\n      dup2\n      mstore\n      0x20\n      add\n      0x00\n      keccak256\n        /* \"contracts/Actor/Retailer-smart-contract/inventory/RetailerCheeseBlockStorage.sol\":3197:3261  purchasedCheeseBlocks[walletRetailer][_id_CheeseBlockAcquistato] */\n      0x00\n        /* \"contracts/Actor/Retailer-smart-contract/inventory/RetailerCheeseBlockStorage.sol\":3235:3260  _id_CheeseBlockAcquistato */\n      dup8\n        /* \"contracts/Actor/Retailer-smart-contract/inventory/RetailerCheeseBlockStorage.sol\":3197:3261  purchasedCheeseBlocks[walletRetailer][_id_CheeseBlockAcquistato] */\n      dup2\n      mstore\n      0x20\n      add\n      swap1\n      dup2\n      mstore\n      0x20\n      add\n      0x00\n      keccak256\n        /* \"contracts/Actor/Retailer-smart-contract/inventory/RetailerCheeseBlockStorage.sol\":3174:3261  Cheese memory cheese = purchasedCheeseBlocks[walletRetailer][_id_CheeseBlockAcquistato] */\n      mload(0x40)\n      dup1\n      0xa0\n      add\n      0x40\n      mstore\n      swap1\n      dup2\n      0x00\n      dup3\n      add\n      sload\n      dup2\n      mstore\n      0x20\n      add\n      0x01\n      dup3\n      add\n      sload\n      dup2\n      mstore\n      0x20\n      add\n      0x02\n      dup3\n      add\n      0x00\n      swap1\n      sload\n      swap1\n      0x0100\n      exp\n      swap1\n      div\n      0xffffffffffffffffffffffffffffffffffffffff\n      and\n      0xffffffffffffffffffffffffffffffffffffffff\n      and\n      0xffffffffffffffffffffffffffffffffffffffff\n      and\n      dup2\n      mstore\n      0x20\n      add\n      0x03\n      dup3\n      add\n      dup1\n      sload\n      tag_78\n      swap1\n      tag_68\n      jump\t// in\n    tag_78:\n      dup1\n      0x1f\n      add\n      0x20\n      dup1\n      swap2\n      div\n      mul\n      0x20\n      add\n      mload(0x40)\n      swap1\n      dup2\n      add\n      0x40\n      mstore\n      dup1\n      swap3\n      swap2\n      swap1\n      dup2\n      dup2\n      mstore\n      0x20\n      add\n      dup3\n      dup1\n      sload\n      tag_79\n      swap1\n      tag_68\n      jump\t// in\n    tag_79:\n      dup1\n      iszero\n      tag_80\n      jumpi\n      dup1\n      0x1f\n      lt\n      tag_81\n      jumpi\n      0x0100\n      dup1\n      dup4\n      sload\n      div\n      mul\n      dup4\n      mstore\n      swap2\n      0x20\n      add\n      swap2\n      jump(tag_80)\n    tag_81:\n      dup3\n      add\n      swap2\n      swap1\n      0x00\n      mstore\n      keccak256(0x00, 0x20)\n      swap1\n    tag_82:\n      dup2\n      sload\n      dup2\n      mstore\n      swap1\n      0x01\n      add\n      swap1\n      0x20\n      add\n      dup1\n      dup4\n      gt\n      tag_82\n      jumpi\n      dup3\n      swap1\n      sub\n      0x1f\n      and\n      dup3\n      add\n      swap2\n    tag_80:\n      pop\n      pop\n      pop\n      pop\n      pop\n      dup2\n      mstore\n      0x20\n      add\n      0x04\n      dup3\n      add\n      sload\n      dup2\n      mstore\n      pop\n      pop\n      swap1\n      pop\n        /* \"contracts/Actor/Retailer-smart-contract/inventory/RetailerCheeseBlockStorage.sol\":3282:3288  cheese */\n      dup1\n        /* \"contracts/Actor/Retailer-smart-contract/inventory/RetailerCheeseBlockStorage.sol\":3282:3291  cheese.id */\n      0x00\n      add\n      mload\n        /* \"contracts/Actor/Retailer-smart-contract/inventory/RetailerCheeseBlockStorage.sol\":3293:3299  cheese */\n      dup2\n        /* \"contracts/Actor/Retailer-smart-contract/inventory/RetailerCheeseBlockStorage.sol\":3293:3320  cheese.walletCheeseProducer */\n      0x40\n      add\n      mload\n        /* \"contracts/Actor/Retailer-smart-contract/inventory/RetailerCheeseBlockStorage.sol\":3322:3328  cheese */\n      dup3\n        /* \"contracts/Actor/Retailer-smart-contract/inventory/RetailerCheeseBlockStorage.sol\":3322:3332  cheese.dop */\n      0x60\n      add\n      mload\n        /* \"contracts/Actor/Retailer-smart-contract/inventory/RetailerCheeseBlockStorage.sol\":3334:3340  cheese */\n      dup4\n        /* \"contracts/Actor/Retailer-smart-contract/inventory/RetailerCheeseBlockStorage.sol\":3334:3349  cheese.quantity */\n      0x80\n      add\n      mload\n        /* \"contracts/Actor/Retailer-smart-contract/inventory/RetailerCheeseBlockStorage.sol\":3274:3350  return (cheese.id, cheese.walletCheeseProducer, cheese.dop, cheese.quantity) */\n      swap5\n      pop\n      swap5\n      pop\n      swap5\n      pop\n      swap5\n      pop\n      pop\n        /* \"contracts/Actor/Retailer-smart-contract/inventory/RetailerCheeseBlockStorage.sol\":3014:3358  function getCheeseBlock(address walletRetailer, uint256 _id_CheeseBlockAcquistato) external view returns (uint256, address,string memory, uint256) {... */\n      swap3\n      swap6\n      swap2\n      swap5\n      pop\n      swap3\n      pop\n      jump\t// out\n        /* \"contracts/Actor/Retailer-smart-contract/inventory/RetailerCheeseBlockStorage.sol\":5842:6279  function checkCheese(address walletRetailer, uint256 _id, uint256 _quantityToTransform) external view returns(bool) {... */\n    tag_36:\n        /* \"contracts/Actor/Retailer-smart-contract/inventory/RetailerCheeseBlockStorage.sol\":5952:5956  bool */\n      0x00\n        /* \"contracts/Actor/Retailer-smart-contract/inventory/RetailerCheeseBlockStorage.sol\":6026:6029  _id */\n      dup3\n        /* \"contracts/Actor/Retailer-smart-contract/inventory/RetailerCheeseBlockStorage.sol\":5977:5998  purchasedCheeseBlocks */\n      0x01\n        /* \"contracts/Actor/Retailer-smart-contract/inventory/RetailerCheeseBlockStorage.sol\":5977:6014  purchasedCheeseBlocks[walletRetailer] */\n      0x00\n        /* \"contracts/Actor/Retailer-smart-contract/inventory/RetailerCheeseBlockStorage.sol\":5999:6013  walletRetailer */\n      dup7\n        /* \"contracts/Actor/Retailer-smart-contract/inventory/RetailerCheeseBlockStorage.sol\":5977:6014  purchasedCheeseBlocks[walletRetailer] */\n      0xffffffffffffffffffffffffffffffffffffffff\n      and\n      0xffffffffffffffffffffffffffffffffffffffff\n      and\n      dup2\n      mstore\n      0x20\n      add\n      swap1\n      dup2\n      mstore\n      0x20\n      add\n      0x00\n      keccak256\n        /* \"contracts/Actor/Retailer-smart-contract/inventory/RetailerCheeseBlockStorage.sol\":5977:6019  purchasedCheeseBlocks[walletRetailer][_id] */\n      0x00\n        /* \"contracts/Actor/Retailer-smart-contract/inventory/RetailerCheeseBlockStorage.sol\":6015:6018  _id */\n      dup6\n        /* \"contracts/Actor/Retailer-smart-contract/inventory/RetailerCheeseBlockStorage.sol\":5977:6019  purchasedCheeseBlocks[walletRetailer][_id] */\n      dup2\n      mstore\n      0x20\n      add\n      swap1\n      dup2\n      mstore\n      0x20\n      add\n      0x00\n      keccak256\n        /* \"contracts/Actor/Retailer-smart-contract/inventory/RetailerCheeseBlockStorage.sol\":5977:6022  purchasedCheeseBlocks[walletRetailer][_id].id */\n      0x00\n      add\n      sload\n        /* \"contracts/Actor/Retailer-smart-contract/inventory/RetailerCheeseBlockStorage.sol\":5977:6029  purchasedCheeseBlocks[walletRetailer][_id].id == _id */\n      eq\n        /* \"contracts/Actor/Retailer-smart-contract/inventory/RetailerCheeseBlockStorage.sol\":5969:6064  require(purchasedCheeseBlocks[walletRetailer][_id].id == _id, \"Partita di Latte non presente!\") */\n      tag_84\n      jumpi\n      mload(0x40)\n      0x08c379a000000000000000000000000000000000000000000000000000000000\n      dup2\n      mstore\n      0x04\n      add\n      tag_85\n      swap1\n      tag_86\n      jump\t// in\n    tag_85:\n      mload(0x40)\n      dup1\n      swap2\n      sub\n      swap1\n      revert\n    tag_84:\n        /* \"contracts/Actor/Retailer-smart-contract/inventory/RetailerCheeseBlockStorage.sol\":6077:6101  Cheese storage cheeseObj */\n      0x00\n        /* \"contracts/Actor/Retailer-smart-contract/inventory/RetailerCheeseBlockStorage.sol\":6104:6125  purchasedCheeseBlocks */\n      0x01\n        /* \"contracts/Actor/Retailer-smart-contract/inventory/RetailerCheeseBlockStorage.sol\":6104:6141  purchasedCheeseBlocks[walletRetailer] */\n      0x00\n        /* \"contracts/Actor/Retailer-smart-contract/inventory/RetailerCheeseBlockStorage.sol\":6126:6140  walletRetailer */\n      dup7\n        /* \"contracts/Actor/Retailer-smart-contract/inventory/RetailerCheeseBlockStorage.sol\":6104:6141  purchasedCheeseBlocks[walletRetailer] */\n      0xffffffffffffffffffffffffffffffffffffffff\n      and\n      0xffffffffffffffffffffffffffffffffffffffff\n      and\n      dup2\n      mstore\n      0x20\n      add\n      swap1\n      dup2\n      mstore\n      0x20\n      add\n      0x00\n      keccak256\n        /* \"contracts/Actor/Retailer-smart-contract/inventory/RetailerCheeseBlockStorage.sol\":6104:6146  purchasedCheeseBlocks[walletRetailer][_id] */\n      0x00\n        /* \"contracts/Actor/Retailer-smart-contract/inventory/RetailerCheeseBlockStorage.sol\":6142:6145  _id */\n      dup6\n        /* \"contracts/Actor/Retailer-smart-contract/inventory/RetailerCheeseBlockStorage.sol\":6104:6146  purchasedCheeseBlocks[walletRetailer][_id] */\n      dup2\n      mstore\n      0x20\n      add\n      swap1\n      dup2\n      mstore\n      0x20\n      add\n      0x00\n      keccak256\n        /* \"contracts/Actor/Retailer-smart-contract/inventory/RetailerCheeseBlockStorage.sol\":6077:6146  Cheese storage cheeseObj = purchasedCheeseBlocks[walletRetailer][_id] */\n      swap1\n      pop\n        /* \"contracts/Actor/Retailer-smart-contract/inventory/RetailerCheeseBlockStorage.sol\":6201:6221  _quantityToTransform */\n      dup3\n        /* \"contracts/Actor/Retailer-smart-contract/inventory/RetailerCheeseBlockStorage.sol\":6179:6188  cheeseObj */\n      dup2\n        /* \"contracts/Actor/Retailer-smart-contract/inventory/RetailerCheeseBlockStorage.sol\":6179:6197  cheeseObj.quantity */\n      0x04\n      add\n      sload\n        /* \"contracts/Actor/Retailer-smart-contract/inventory/RetailerCheeseBlockStorage.sol\":6179:6221  cheeseObj.quantity >= _quantityToTransform */\n      lt\n      iszero\n        /* \"contracts/Actor/Retailer-smart-contract/inventory/RetailerCheeseBlockStorage.sol\":6171:6245  require(cheeseObj.quantity >= _quantityToTransform, \"Quantity not Valid!\") */\n      tag_87\n      jumpi\n      mload(0x40)\n      0x08c379a000000000000000000000000000000000000000000000000000000000\n      dup2\n      mstore\n      0x04\n      add\n      tag_88\n      swap1\n      tag_65\n      jump\t// in\n    tag_88:\n      mload(0x40)\n      dup1\n      swap2\n      sub\n      swap1\n      revert\n    tag_87:\n        /* \"contracts/Actor/Retailer-smart-contract/inventory/RetailerCheeseBlockStorage.sol\":6263:6267  true */\n      0x01\n        /* \"contracts/Actor/Retailer-smart-contract/inventory/RetailerCheeseBlockStorage.sol\":6256:6267  return true */\n      swap2\n      pop\n      pop\n        /* \"contracts/Actor/Retailer-smart-contract/inventory/RetailerCheeseBlockStorage.sol\":5842:6279  function checkCheese(address walletRetailer, uint256 _id, uint256 _quantityToTransform) external view returns(bool) {... */\n      swap4\n      swap3\n      pop\n      pop\n      pop\n      jump\t// out\n        /* \"contracts/Actor/Retailer-smart-contract/inventory/RetailerCheeseBlockStorage.sol\":1380:3004  function addCheeseBlock( ... */\n    tag_41:\n        /* \"contracts/Actor/Retailer-smart-contract/inventory/RetailerCheeseBlockStorage.sol\":1779:1812  uint256 id_CheeseBlock_Acquistato */\n      0x00\n        /* \"contracts/Actor/Retailer-smart-contract/inventory/RetailerCheeseBlockStorage.sol\":1827:1850  string memory dopCheese */\n      0x60\n        /* \"contracts/Actor/Retailer-smart-contract/inventory/RetailerCheeseBlockStorage.sol\":1865:1891  uint256 quantityAcquistata */\n      0x00\n        /* \"contracts/Actor/Retailer-smart-contract/inventory/RetailerCheeseBlockStorage.sol\":1916:1927  uint256 _id */\n      dup1\n        /* \"contracts/Actor/Retailer-smart-contract/inventory/RetailerCheeseBlockStorage.sol\":1979:1988  _quantity */\n      dup5\n        /* \"contracts/Actor/Retailer-smart-contract/inventory/RetailerCheeseBlockStorage.sol\":2003:2006  dop */\n      dup7\n        /* \"contracts/Actor/Retailer-smart-contract/inventory/RetailerCheeseBlockStorage.sol\":2021:2036  _walletRetailer */\n      dup11\n        /* \"contracts/Actor/Retailer-smart-contract/inventory/RetailerCheeseBlockStorage.sol\":2051:2072  _walletCheeseProducer */\n      dup11\n        /* \"contracts/Actor/Retailer-smart-contract/inventory/RetailerCheeseBlockStorage.sol\":2087:2102  _id_CheeseBlock */\n      dup11\n        /* \"contracts/Actor/Retailer-smart-contract/inventory/RetailerCheeseBlockStorage.sol\":2117:2132  block.timestamp */\n      timestamp\n        /* \"contracts/Actor/Retailer-smart-contract/inventory/RetailerCheeseBlockStorage.sol\":1948:2334  abi.encodePacked(... */\n      add(0x20, mload(0x40))\n      tag_90\n      swap7\n      swap6\n      swap5\n      swap4\n      swap3\n      swap2\n      swap1\n      tag_91\n      jump\t// in\n    tag_90:\n      mload(0x40)\n      0x20\n      dup2\n      dup4\n      sub\n      sub\n      dup2\n      mstore\n      swap1\n      0x40\n      mstore\n        /* \"contracts/Actor/Retailer-smart-contract/inventory/RetailerCheeseBlockStorage.sol\":1938:2335  keccak256(abi.encodePacked(... */\n      dup1\n      mload\n      swap1\n      0x20\n      add\n      keccak256\n        /* \"contracts/Actor/Retailer-smart-contract/inventory/RetailerCheeseBlockStorage.sol\":1930:2336  uint256(keccak256(abi.encodePacked(... */\n      0x00\n      shr\n        /* \"contracts/Actor/Retailer-smart-contract/inventory/RetailerCheeseBlockStorage.sol\":1916:2336  uint256 _id = uint256(keccak256(abi.encodePacked(... */\n      swap1\n      pop\n        /* \"contracts/Actor/Retailer-smart-contract/inventory/RetailerCheeseBlockStorage.sol\":2351:2379  Cheese storage cheeseControl */\n      0x00\n        /* \"contracts/Actor/Retailer-smart-contract/inventory/RetailerCheeseBlockStorage.sol\":2382:2403  purchasedCheeseBlocks */\n      0x01\n        /* \"contracts/Actor/Retailer-smart-contract/inventory/RetailerCheeseBlockStorage.sol\":2382:2420  purchasedCheeseBlocks[_walletRetailer] */\n      0x00\n        /* \"contracts/Actor/Retailer-smart-contract/inventory/RetailerCheeseBlockStorage.sol\":2404:2419  _walletRetailer */\n      dup12\n        /* \"contracts/Actor/Retailer-smart-contract/inventory/RetailerCheeseBlockStorage.sol\":2382:2420  purchasedCheeseBlocks[_walletRetailer] */\n      0xffffffffffffffffffffffffffffffffffffffff\n      and\n      0xffffffffffffffffffffffffffffffffffffffff\n      and\n      dup2\n      mstore\n      0x20\n      add\n      swap1\n      dup2\n      mstore\n      0x20\n      add\n      0x00\n      keccak256\n        /* \"contracts/Actor/Retailer-smart-contract/inventory/RetailerCheeseBlockStorage.sol\":2382:2425  purchasedCheeseBlocks[_walletRetailer][_id] */\n      0x00\n        /* \"contracts/Actor/Retailer-smart-contract/inventory/RetailerCheeseBlockStorage.sol\":2421:2424  _id */\n      dup4\n        /* \"contracts/Actor/Retailer-smart-contract/inventory/RetailerCheeseBlockStorage.sol\":2382:2425  purchasedCheeseBlocks[_walletRetailer][_id] */\n      dup2\n      mstore\n      0x20\n      add\n      swap1\n      dup2\n      mstore\n      0x20\n      add\n      0x00\n      keccak256\n        /* \"contracts/Actor/Retailer-smart-contract/inventory/RetailerCheeseBlockStorage.sol\":2351:2425  Cheese storage cheeseControl = purchasedCheeseBlocks[_walletRetailer][_id] */\n      swap1\n      pop\n        /* \"contracts/Actor/Retailer-smart-contract/inventory/RetailerCheeseBlockStorage.sol\":2465:2466  0 */\n      0x00\n        /* \"contracts/Actor/Retailer-smart-contract/inventory/RetailerCheeseBlockStorage.sol\":2445:2458  cheeseControl */\n      dup2\n        /* \"contracts/Actor/Retailer-smart-contract/inventory/RetailerCheeseBlockStorage.sol\":2445:2461  cheeseControl.id */\n      0x00\n      add\n      sload\n        /* \"contracts/Actor/Retailer-smart-contract/inventory/RetailerCheeseBlockStorage.sol\":2445:2466  cheeseControl.id == 0 */\n      eq\n        /* \"contracts/Actor/Retailer-smart-contract/inventory/RetailerCheeseBlockStorage.sol\":2436:2502  require( cheeseControl.id == 0, \"Partita di Latte gia' presente!\") */\n      tag_92\n      jumpi\n      mload(0x40)\n      0x08c379a000000000000000000000000000000000000000000000000000000000\n      dup2\n      mstore\n      0x04\n      add\n      tag_93\n      swap1\n      tag_94\n      jump\t// in\n    tag_93:\n      mload(0x40)\n      dup1\n      swap2\n      sub\n      swap1\n      revert\n    tag_92:\n        /* \"contracts/Actor/Retailer-smart-contract/inventory/RetailerCheeseBlockStorage.sol\":2558:2578  Cheese memory cheese */\n      0x00\n        /* \"contracts/Actor/Retailer-smart-contract/inventory/RetailerCheeseBlockStorage.sol\":2581:2782  Cheese({... */\n      mload(0x40)\n      dup1\n      0xa0\n      add\n      0x40\n      mstore\n      dup1\n        /* \"contracts/Actor/Retailer-smart-contract/inventory/RetailerCheeseBlockStorage.sol\":2607:2610  _id */\n      dup5\n        /* \"contracts/Actor/Retailer-smart-contract/inventory/RetailerCheeseBlockStorage.sol\":2581:2782  Cheese({... */\n      dup2\n      mstore\n      0x20\n      add\n        /* \"contracts/Actor/Retailer-smart-contract/inventory/RetailerCheeseBlockStorage.sol\":2663:2678  _id_CheeseBlock */\n      dup11\n        /* \"contracts/Actor/Retailer-smart-contract/inventory/RetailerCheeseBlockStorage.sol\":2581:2782  Cheese({... */\n      dup2\n      mstore\n      0x20\n      add\n        /* \"contracts/Actor/Retailer-smart-contract/inventory/RetailerCheeseBlockStorage.sol\":2715:2736  _walletCheeseProducer */\n      dup12\n        /* \"contracts/Actor/Retailer-smart-contract/inventory/RetailerCheeseBlockStorage.sol\":2581:2782  Cheese({... */\n      0xffffffffffffffffffffffffffffffffffffffff\n      and\n      dup2\n      mstore\n      0x20\n      add\n        /* \"contracts/Actor/Retailer-smart-contract/inventory/RetailerCheeseBlockStorage.sol\":2629:2632  dop */\n      dup10\n        /* \"contracts/Actor/Retailer-smart-contract/inventory/RetailerCheeseBlockStorage.sol\":2581:2782  Cheese({... */\n      dup2\n      mstore\n      0x20\n      add\n        /* \"contracts/Actor/Retailer-smart-contract/inventory/RetailerCheeseBlockStorage.sol\":2761:2770  _quantity */\n      dup9\n        /* \"contracts/Actor/Retailer-smart-contract/inventory/RetailerCheeseBlockStorage.sol\":2581:2782  Cheese({... */\n      dup2\n      mstore\n      pop\n        /* \"contracts/Actor/Retailer-smart-contract/inventory/RetailerCheeseBlockStorage.sol\":2558:2782  Cheese memory cheese = Cheese({... */\n      swap1\n      pop\n        /* \"contracts/Actor/Retailer-smart-contract/inventory/RetailerCheeseBlockStorage.sol\":2928:2934  cheese */\n      dup1\n        /* \"contracts/Actor/Retailer-smart-contract/inventory/RetailerCheeseBlockStorage.sol\":2876:2897  purchasedCheeseBlocks */\n      0x01\n        /* \"contracts/Actor/Retailer-smart-contract/inventory/RetailerCheeseBlockStorage.sol\":2876:2920  purchasedCheeseBlocks[_walletCheeseProducer] */\n      0x00\n        /* \"contracts/Actor/Retailer-smart-contract/inventory/RetailerCheeseBlockStorage.sol\":2898:2919  _walletCheeseProducer */\n      dup13\n        /* \"contracts/Actor/Retailer-smart-contract/inventory/RetailerCheeseBlockStorage.sol\":2876:2920  purchasedCheeseBlocks[_walletCheeseProducer] */\n      0xffffffffffffffffffffffffffffffffffffffff\n      and\n      0xffffffffffffffffffffffffffffffffffffffff\n      and\n      dup2\n      mstore\n      0x20\n      add\n      swap1\n      dup2\n      mstore\n      0x20\n      add\n      0x00\n      keccak256\n        /* \"contracts/Actor/Retailer-smart-contract/inventory/RetailerCheeseBlockStorage.sol\":2876:2925  purchasedCheeseBlocks[_walletCheeseProducer][_id] */\n      0x00\n        /* \"contracts/Actor/Retailer-smart-contract/inventory/RetailerCheeseBlockStorage.sol\":2921:2924  _id */\n      dup6\n        /* \"contracts/Actor/Retailer-smart-contract/inventory/RetailerCheeseBlockStorage.sol\":2876:2925  purchasedCheeseBlocks[_walletCheeseProducer][_id] */\n      dup2\n      mstore\n      0x20\n      add\n      swap1\n      dup2\n      mstore\n      0x20\n      add\n      0x00\n      keccak256\n        /* \"contracts/Actor/Retailer-smart-contract/inventory/RetailerCheeseBlockStorage.sol\":2876:2934  purchasedCheeseBlocks[_walletCheeseProducer][_id] = cheese */\n      0x00\n      dup3\n      add\n      mload\n      dup2\n      0x00\n      add\n      sstore\n      0x20\n      dup3\n      add\n      mload\n      dup2\n      0x01\n      add\n      sstore\n      0x40\n      dup3\n      add\n      mload\n      dup2\n      0x02\n      add\n      exp(0x0100, 0x00)\n      dup2\n      sload\n      dup2\n      0xffffffffffffffffffffffffffffffffffffffff\n      mul\n      not\n      and\n      swap1\n      dup4\n      0xffffffffffffffffffffffffffffffffffffffff\n      and\n      mul\n      or\n      swap1\n      sstore\n      pop\n      0x60\n      dup3\n      add\n      mload\n      dup2\n      0x03\n      add\n      swap1\n      dup2\n      tag_95\n      swap2\n      swap1\n      tag_96\n      jump\t// in\n    tag_95:\n      pop\n      0x80\n      dup3\n      add\n      mload\n      dup2\n      0x04\n      add\n      sstore\n      swap1\n      pop\n      pop\n        /* \"contracts/Actor/Retailer-smart-contract/inventory/RetailerCheeseBlockStorage.sol\":2955:2961  cheese */\n      dup1\n        /* \"contracts/Actor/Retailer-smart-contract/inventory/RetailerCheeseBlockStorage.sol\":2955:2964  cheese.id */\n      0x00\n      add\n      mload\n        /* \"contracts/Actor/Retailer-smart-contract/inventory/RetailerCheeseBlockStorage.sol\":2966:2972  cheese */\n      dup2\n        /* \"contracts/Actor/Retailer-smart-contract/inventory/RetailerCheeseBlockStorage.sol\":2966:2976  cheese.dop */\n      0x60\n      add\n      mload\n        /* \"contracts/Actor/Retailer-smart-contract/inventory/RetailerCheeseBlockStorage.sol\":2978:2984  cheese */\n      dup3\n        /* \"contracts/Actor/Retailer-smart-contract/inventory/RetailerCheeseBlockStorage.sol\":2978:2993  cheese.quantity */\n      0x80\n      add\n      mload\n        /* \"contracts/Actor/Retailer-smart-contract/inventory/RetailerCheeseBlockStorage.sol\":2947:2994  return (cheese.id, cheese.dop, cheese.quantity) */\n      swap6\n      pop\n      swap6\n      pop\n      swap6\n      pop\n      pop\n      pop\n      pop\n        /* \"contracts/Actor/Retailer-smart-contract/inventory/RetailerCheeseBlockStorage.sol\":1380:3004  function addCheeseBlock( ... */\n      swap6\n      pop\n      swap6\n      pop\n      swap6\n      swap3\n      pop\n      pop\n      pop\n      jump\t// out\n        /* \"contracts/Actor/Retailer-smart-contract/inventory/RetailerCheeseBlockStorage.sol\":5497:5653  function getId(address walletRetailer, uint256 _id) external view returns(uint256) {... */\n    tag_46:\n        /* \"contracts/Actor/Retailer-smart-contract/inventory/RetailerCheeseBlockStorage.sol\":5571:5578  uint256 */\n      0x00\n        /* \"contracts/Actor/Retailer-smart-contract/inventory/RetailerCheeseBlockStorage.sol\":5600:5621  purchasedCheeseBlocks */\n      0x01\n        /* \"contracts/Actor/Retailer-smart-contract/inventory/RetailerCheeseBlockStorage.sol\":5600:5637  purchasedCheeseBlocks[walletRetailer] */\n      0x00\n        /* \"contracts/Actor/Retailer-smart-contract/inventory/RetailerCheeseBlockStorage.sol\":5622:5636  walletRetailer */\n      dup5\n        /* \"contracts/Actor/Retailer-smart-contract/inventory/RetailerCheeseBlockStorage.sol\":5600:5637  purchasedCheeseBlocks[walletRetailer] */\n      0xffffffffffffffffffffffffffffffffffffffff\n      and\n      0xffffffffffffffffffffffffffffffffffffffff\n      and\n      dup2\n      mstore\n      0x20\n      add\n      swap1\n      dup2\n      mstore\n      0x20\n      add\n      0x00\n      keccak256\n        /* \"contracts/Actor/Retailer-smart-contract/inventory/RetailerCheeseBlockStorage.sol\":5600:5642  purchasedCheeseBlocks[walletRetailer][_id] */\n      0x00\n        /* \"contracts/Actor/Retailer-smart-contract/inventory/RetailerCheeseBlockStorage.sol\":5638:5641  _id */\n      dup4\n        /* \"contracts/Actor/Retailer-smart-contract/inventory/RetailerCheeseBlockStorage.sol\":5600:5642  purchasedCheeseBlocks[walletRetailer][_id] */\n      dup2\n      mstore\n      0x20\n      add\n      swap1\n      dup2\n      mstore\n      0x20\n      add\n      0x00\n      keccak256\n        /* \"contracts/Actor/Retailer-smart-contract/inventory/RetailerCheeseBlockStorage.sol\":5600:5645  purchasedCheeseBlocks[walletRetailer][_id].id */\n      0x00\n      add\n      sload\n        /* \"contracts/Actor/Retailer-smart-contract/inventory/RetailerCheeseBlockStorage.sol\":5593:5645  return purchasedCheeseBlocks[walletRetailer][_id].id */\n      swap1\n      pop\n        /* \"contracts/Actor/Retailer-smart-contract/inventory/RetailerCheeseBlockStorage.sol\":5497:5653  function getId(address walletRetailer, uint256 _id) external view returns(uint256) {... */\n      swap3\n      swap2\n      pop\n      pop\n      jump\t// out\n        /* \"contracts/Actor/Retailer-smart-contract/inventory/RetailerCheeseBlockStorage.sol\":5257:5489  function getWalletCheeseProducer(address walletRetailer, uint256 _id) external view returns(address) {... */\n    tag_50:\n        /* \"contracts/Actor/Retailer-smart-contract/inventory/RetailerCheeseBlockStorage.sol\":5349:5356  address */\n      0x00\n        /* \"contracts/Actor/Retailer-smart-contract/inventory/RetailerCheeseBlockStorage.sol\":5371:5391  Cheese memory cheese */\n      dup1\n        /* \"contracts/Actor/Retailer-smart-contract/inventory/RetailerCheeseBlockStorage.sol\":5394:5415  purchasedCheeseBlocks */\n      0x01\n        /* \"contracts/Actor/Retailer-smart-contract/inventory/RetailerCheeseBlockStorage.sol\":5394:5431  purchasedCheeseBlocks[walletRetailer] */\n      0x00\n        /* \"contracts/Actor/Retailer-smart-contract/inventory/RetailerCheeseBlockStorage.sol\":5416:5430  walletRetailer */\n      dup6\n        /* \"contracts/Actor/Retailer-smart-contract/inventory/RetailerCheeseBlockStorage.sol\":5394:5431  purchasedCheeseBlocks[walletRetailer] */\n      0xffffffffffffffffffffffffffffffffffffffff\n      and\n      0xffffffffffffffffffffffffffffffffffffffff\n      and\n      dup2\n      mstore\n      0x20\n      add\n      swap1\n      dup2\n      mstore\n      0x20\n      add\n      0x00\n      keccak256\n        /* \"contracts/Actor/Retailer-smart-contract/inventory/RetailerCheeseBlockStorage.sol\":5394:5436  purchasedCheeseBlocks[walletRetailer][_id] */\n      0x00\n        /* \"contracts/Actor/Retailer-smart-contract/inventory/RetailerCheeseBlockStorage.sol\":5432:5435  _id */\n      dup5\n        /* \"contracts/Actor/Retailer-smart-contract/inventory/RetailerCheeseBlockStorage.sol\":5394:5436  purchasedCheeseBlocks[walletRetailer][_id] */\n      dup2\n      mstore\n      0x20\n      add\n      swap1\n      dup2\n      mstore\n      0x20\n      add\n      0x00\n      keccak256\n        /* \"contracts/Actor/Retailer-smart-contract/inventory/RetailerCheeseBlockStorage.sol\":5371:5436  Cheese memory cheese = purchasedCheeseBlocks[walletRetailer][_id] */\n      mload(0x40)\n      dup1\n      0xa0\n      add\n      0x40\n      mstore\n      swap1\n      dup2\n      0x00\n      dup3\n      add\n      sload\n      dup2\n      mstore\n      0x20\n      add\n      0x01\n      dup3\n      add\n      sload\n      dup2\n      mstore\n      0x20\n      add\n      0x02\n      dup3\n      add\n      0x00\n      swap1\n      sload\n      swap1\n      0x0100\n      exp\n      swap1\n      div\n      0xffffffffffffffffffffffffffffffffffffffff\n      and\n      0xffffffffffffffffffffffffffffffffffffffff\n      and\n      0xffffffffffffffffffffffffffffffffffffffff\n      and\n      dup2\n      mstore\n      0x20\n      add\n      0x03\n      dup3\n      add\n      dup1\n      sload\n      tag_99\n      swap1\n      tag_68\n      jump\t// in\n    tag_99:\n      dup1\n      0x1f\n      add\n      0x20\n      dup1\n      swap2\n      div\n      mul\n      0x20\n      add\n      mload(0x40)\n      swap1\n      dup2\n      add\n      0x40\n      mstore\n      dup1\n      swap3\n      swap2\n      swap1\n      dup2\n      dup2\n      mstore\n      0x20\n      add\n      dup3\n      dup1\n      sload\n      tag_100\n      swap1\n      tag_68\n      jump\t// in\n    tag_100:\n      dup1\n      iszero\n      tag_101\n      jumpi\n      dup1\n      0x1f\n      lt\n      tag_102\n      jumpi\n      0x0100\n      dup1\n      dup4\n      sload\n      div\n      mul\n      dup4\n      mstore\n      swap2\n      0x20\n      add\n      swap2\n      jump(tag_101)\n    tag_102:\n      dup3\n      add\n      swap2\n      swap1\n      0x00\n      mstore\n      keccak256(0x00, 0x20)\n      swap1\n    tag_103:\n      dup2\n      sload\n      dup2\n      mstore\n      swap1\n      0x01\n      add\n      swap1\n      0x20\n      add\n      dup1\n      dup4\n      gt\n      tag_103\n      jumpi\n      dup3\n      swap1\n      sub\n      0x1f\n      and\n      dup3\n      add\n      swap2\n    tag_101:\n      pop\n      pop\n      pop\n      pop\n      pop\n      dup2\n      mstore\n      0x20\n      add\n      0x04\n      dup3\n      add\n      sload\n      dup2\n      mstore\n      pop\n      pop\n      swap1\n      pop\n        /* \"contracts/Actor/Retailer-smart-contract/inventory/RetailerCheeseBlockStorage.sol\":5454:5460  cheese */\n      dup1\n        /* \"contracts/Actor/Retailer-smart-contract/inventory/RetailerCheeseBlockStorage.sol\":5454:5481  cheese.walletCheeseProducer */\n      0x40\n      add\n      mload\n        /* \"contracts/Actor/Retailer-smart-contract/inventory/RetailerCheeseBlockStorage.sol\":5447:5481  return cheese.walletCheeseProducer */\n      swap2\n      pop\n      pop\n        /* \"contracts/Actor/Retailer-smart-contract/inventory/RetailerCheeseBlockStorage.sol\":5257:5489  function getWalletCheeseProducer(address walletRetailer, uint256 _id) external view returns(address) {... */\n      swap3\n      swap2\n      pop\n      pop\n      jump\t// out\n        /* \"contracts/Actor/Retailer-smart-contract/inventory/RetailerCheeseBlockStorage.sol\":3613:3951  function isCheesePresent(address walletRetailer, uint256 _id_CheeseBlockAcquistato)external view returns(bool){... */\n    tag_55:\n        /* \"contracts/Actor/Retailer-smart-contract/inventory/RetailerCheeseBlockStorage.sol\":3718:3722  bool */\n      0x00\n        /* \"contracts/Actor/Retailer-smart-contract/inventory/RetailerCheeseBlockStorage.sol\":3771:3772  0 */\n      dup1\n        /* \"contracts/Actor/Retailer-smart-contract/inventory/RetailerCheeseBlockStorage.sol\":3743:3768  _id_CheeseBlockAcquistato */\n      dup3\n        /* \"contracts/Actor/Retailer-smart-contract/inventory/RetailerCheeseBlockStorage.sol\":3743:3772  _id_CheeseBlockAcquistato !=0 */\n      eq\n      iszero\n        /* \"contracts/Actor/Retailer-smart-contract/inventory/RetailerCheeseBlockStorage.sol\":3743:3803  _id_CheeseBlockAcquistato !=0 && _id_CheeseBlockAcquistato>0 */\n      dup1\n      iszero\n      tag_105\n      jumpi\n      pop\n        /* \"contracts/Actor/Retailer-smart-contract/inventory/RetailerCheeseBlockStorage.sol\":3802:3803  0 */\n      0x00\n        /* \"contracts/Actor/Retailer-smart-contract/inventory/RetailerCheeseBlockStorage.sol\":3776:3801  _id_CheeseBlockAcquistato */\n      dup3\n        /* \"contracts/Actor/Retailer-smart-contract/inventory/RetailerCheeseBlockStorage.sol\":3776:3803  _id_CheeseBlockAcquistato>0 */\n      gt\n        /* \"contracts/Actor/Retailer-smart-contract/inventory/RetailerCheeseBlockStorage.sol\":3743:3803  _id_CheeseBlockAcquistato !=0 && _id_CheeseBlockAcquistato>0 */\n    tag_105:\n        /* \"contracts/Actor/Retailer-smart-contract/inventory/RetailerCheeseBlockStorage.sol\":3734:3827  require( _id_CheeseBlockAcquistato !=0 && _id_CheeseBlockAcquistato>0,\"ID Cheese Not Valid!\") */\n      tag_106\n      jumpi\n      mload(0x40)\n      0x08c379a000000000000000000000000000000000000000000000000000000000\n      dup2\n      mstore\n      0x04\n      add\n      tag_107\n      swap1\n      tag_108\n      jump\t// in\n    tag_107:\n      mload(0x40)\n      dup1\n      swap2\n      sub\n      swap1\n      revert\n    tag_106:\n        /* \"contracts/Actor/Retailer-smart-contract/inventory/RetailerCheeseBlockStorage.sol\":3918:3943  _id_CheeseBlockAcquistato */\n      dup2\n        /* \"contracts/Actor/Retailer-smart-contract/inventory/RetailerCheeseBlockStorage.sol\":3847:3868  purchasedCheeseBlocks */\n      0x01\n        /* \"contracts/Actor/Retailer-smart-contract/inventory/RetailerCheeseBlockStorage.sol\":3847:3884  purchasedCheeseBlocks[walletRetailer] */\n      0x00\n        /* \"contracts/Actor/Retailer-smart-contract/inventory/RetailerCheeseBlockStorage.sol\":3869:3883  walletRetailer */\n      dup6\n        /* \"contracts/Actor/Retailer-smart-contract/inventory/RetailerCheeseBlockStorage.sol\":3847:3884  purchasedCheeseBlocks[walletRetailer] */\n      0xffffffffffffffffffffffffffffffffffffffff\n      and\n      0xffffffffffffffffffffffffffffffffffffffff\n      and\n      dup2\n      mstore\n      0x20\n      add\n      swap1\n      dup2\n      mstore\n      0x20\n      add\n      0x00\n      keccak256\n        /* \"contracts/Actor/Retailer-smart-contract/inventory/RetailerCheeseBlockStorage.sol\":3847:3911  purchasedCheeseBlocks[walletRetailer][_id_CheeseBlockAcquistato] */\n      0x00\n        /* \"contracts/Actor/Retailer-smart-contract/inventory/RetailerCheeseBlockStorage.sol\":3885:3910  _id_CheeseBlockAcquistato */\n      dup5\n        /* \"contracts/Actor/Retailer-smart-contract/inventory/RetailerCheeseBlockStorage.sol\":3847:3911  purchasedCheeseBlocks[walletRetailer][_id_CheeseBlockAcquistato] */\n      dup2\n      mstore\n      0x20\n      add\n      swap1\n      dup2\n      mstore\n      0x20\n      add\n      0x00\n      keccak256\n        /* \"contracts/Actor/Retailer-smart-contract/inventory/RetailerCheeseBlockStorage.sol\":3847:3914  purchasedCheeseBlocks[walletRetailer][_id_CheeseBlockAcquistato].id */\n      0x00\n      add\n      sload\n        /* \"contracts/Actor/Retailer-smart-contract/inventory/RetailerCheeseBlockStorage.sol\":3847:3943  purchasedCheeseBlocks[walletRetailer][_id_CheeseBlockAcquistato].id == _id_CheeseBlockAcquistato */\n      eq\n        /* \"contracts/Actor/Retailer-smart-contract/inventory/RetailerCheeseBlockStorage.sol\":3840:3943  return purchasedCheeseBlocks[walletRetailer][_id_CheeseBlockAcquistato].id == _id_CheeseBlockAcquistato */\n      swap1\n      pop\n        /* \"contracts/Actor/Retailer-smart-contract/inventory/RetailerCheeseBlockStorage.sol\":3613:3951  function isCheesePresent(address walletRetailer, uint256 _id_CheeseBlockAcquistato)external view returns(bool){... */\n      swap3\n      swap2\n      pop\n      pop\n      jump\t// out\n        /* \"contracts/Actor/Retailer-smart-contract/inventory/RetailerCheeseBlockStorage.sol\":4775:5023  function getDop(address walletRetailer, uint256 _id_cheeseBlockAcquistato) external view returns(string memory) {... */\n    tag_59:\n        /* \"contracts/Actor/Retailer-smart-contract/inventory/RetailerCheeseBlockStorage.sol\":4872:4885  string memory */\n      0x60\n        /* \"contracts/Actor/Retailer-smart-contract/inventory/RetailerCheeseBlockStorage.sol\":4900:4920  Cheese memory cheese */\n      0x00\n        /* \"contracts/Actor/Retailer-smart-contract/inventory/RetailerCheeseBlockStorage.sol\":4923:4944  purchasedCheeseBlocks */\n      0x01\n        /* \"contracts/Actor/Retailer-smart-contract/inventory/RetailerCheeseBlockStorage.sol\":4923:4960  purchasedCheeseBlocks[walletRetailer] */\n      0x00\n        /* \"contracts/Actor/Retailer-smart-contract/inventory/RetailerCheeseBlockStorage.sol\":4945:4959  walletRetailer */\n      dup6\n        /* \"contracts/Actor/Retailer-smart-contract/inventory/RetailerCheeseBlockStorage.sol\":4923:4960  purchasedCheeseBlocks[walletRetailer] */\n      0xffffffffffffffffffffffffffffffffffffffff\n      and\n      0xffffffffffffffffffffffffffffffffffffffff\n      and\n      dup2\n      mstore\n      0x20\n      add\n      swap1\n      dup2\n      mstore\n      0x20\n      add\n      0x00\n      keccak256\n        /* \"contracts/Actor/Retailer-smart-contract/inventory/RetailerCheeseBlockStorage.sol\":4923:4987  purchasedCheeseBlocks[walletRetailer][_id_cheeseBlockAcquistato] */\n      0x00\n        /* \"contracts/Actor/Retailer-smart-contract/inventory/RetailerCheeseBlockStorage.sol\":4961:4986  _id_cheeseBlockAcquistato */\n      dup5\n        /* \"contracts/Actor/Retailer-smart-contract/inventory/RetailerCheeseBlockStorage.sol\":4923:4987  purchasedCheeseBlocks[walletRetailer][_id_cheeseBlockAcquistato] */\n      dup2\n      mstore\n      0x20\n      add\n      swap1\n      dup2\n      mstore\n      0x20\n      add\n      0x00\n      keccak256\n        /* \"contracts/Actor/Retailer-smart-contract/inventory/RetailerCheeseBlockStorage.sol\":4900:4987  Cheese memory cheese = purchasedCheeseBlocks[walletRetailer][_id_cheeseBlockAcquistato] */\n      mload(0x40)\n      dup1\n      0xa0\n      add\n      0x40\n      mstore\n      swap1\n      dup2\n      0x00\n      dup3\n      add\n      sload\n      dup2\n      mstore\n      0x20\n      add\n      0x01\n      dup3\n      add\n      sload\n      dup2\n      mstore\n      0x20\n      add\n      0x02\n      dup3\n      add\n      0x00\n      swap1\n      sload\n      swap1\n      0x0100\n      exp\n      swap1\n      div\n      0xffffffffffffffffffffffffffffffffffffffff\n      and\n      0xffffffffffffffffffffffffffffffffffffffff\n      and\n      0xffffffffffffffffffffffffffffffffffffffff\n      and\n      dup2\n      mstore\n      0x20\n      add\n      0x03\n      dup3\n      add\n      dup1\n      sload\n      tag_110\n      swap1\n      tag_68\n      jump\t// in\n    tag_110:\n      dup1\n      0x1f\n      add\n      0x20\n      dup1\n      swap2\n      div\n      mul\n      0x20\n      add\n      mload(0x40)\n      swap1\n      dup2\n      add\n      0x40\n      mstore\n      dup1\n      swap3\n      swap2\n      swap1\n      dup2\n      dup2\n      mstore\n      0x20\n      add\n      dup3\n      dup1\n      sload\n      tag_111\n      swap1\n      tag_68\n      jump\t// in\n    tag_111:\n      dup1\n      iszero\n      tag_112\n      jumpi\n      dup1\n      0x1f\n      lt\n      tag_113\n      jumpi\n      0x0100\n      dup1\n      dup4\n      sload\n      div\n      mul\n      dup4\n      mstore\n      swap2\n      0x20\n      add\n      swap2\n      jump(tag_112)\n    tag_113:\n      dup3\n      add\n      swap2\n      swap1\n      0x00\n      mstore\n      keccak256(0x00, 0x20)\n      swap1\n    tag_114:\n      dup2\n      sload\n      dup2\n      mstore\n      swap1\n      0x01\n      add\n      swap1\n      0x20\n      add\n      dup1\n      dup4\n      gt\n      tag_114\n      jumpi\n      dup3\n      swap1\n      sub\n      0x1f\n      and\n      dup3\n      add\n      swap2\n    tag_112:\n      pop\n      pop\n      pop\n      pop\n      pop\n      dup2\n      mstore\n      0x20\n      add\n      0x04\n      dup3\n      add\n      sload\n      dup2\n      mstore\n      pop\n      pop\n      swap1\n      pop\n        /* \"contracts/Actor/Retailer-smart-contract/inventory/RetailerCheeseBlockStorage.sol\":5005:5011  cheese */\n      dup1\n        /* \"contracts/Actor/Retailer-smart-contract/inventory/RetailerCheeseBlockStorage.sol\":5005:5015  cheese.dop */\n      0x60\n      add\n      mload\n        /* \"contracts/Actor/Retailer-smart-contract/inventory/RetailerCheeseBlockStorage.sol\":4998:5015  return cheese.dop */\n      swap2\n      pop\n      pop\n        /* \"contracts/Actor/Retailer-smart-contract/inventory/RetailerCheeseBlockStorage.sol\":4775:5023  function getDop(address walletRetailer, uint256 _id_cheeseBlockAcquistato) external view returns(string memory) {... */\n      swap3\n      swap2\n      pop\n      pop\n      jump\t// out\n        /* \"#utility.yul\":7:82   */\n    tag_115:\n        /* \"#utility.yul\":40:46   */\n      0x00\n        /* \"#utility.yul\":73:75   */\n      0x40\n        /* \"#utility.yul\":67:76   */\n      mload\n        /* \"#utility.yul\":57:76   */\n      swap1\n      pop\n        /* \"#utility.yul\":7:82   */\n      swap1\n      jump\t// out\n        /* \"#utility.yul\":88:205   */\n    tag_116:\n        /* \"#utility.yul\":197:198   */\n      0x00\n        /* \"#utility.yul\":194:195   */\n      dup1\n        /* \"#utility.yul\":187:199   */\n      revert\n        /* \"#utility.yul\":211:328   */\n    tag_117:\n        /* \"#utility.yul\":320:321   */\n      0x00\n        /* \"#utility.yul\":317:318   */\n      dup1\n        /* \"#utility.yul\":310:322   */\n      revert\n        /* \"#utility.yul\":334:460   */\n    tag_118:\n        /* \"#utility.yul\":371:378   */\n      0x00\n        /* \"#utility.yul\":411:453   */\n      0xffffffffffffffffffffffffffffffffffffffff\n        /* \"#utility.yul\":404:409   */\n      dup3\n        /* \"#utility.yul\":400:454   */\n      and\n        /* \"#utility.yul\":389:454   */\n      swap1\n      pop\n        /* \"#utility.yul\":334:460   */\n      swap2\n      swap1\n      pop\n      jump\t// out\n        /* \"#utility.yul\":466:562   */\n    tag_119:\n        /* \"#utility.yul\":503:510   */\n      0x00\n        /* \"#utility.yul\":532:556   */\n      tag_183\n        /* \"#utility.yul\":550:555   */\n      dup3\n        /* \"#utility.yul\":532:556   */\n      tag_118\n      jump\t// in\n    tag_183:\n        /* \"#utility.yul\":521:556   */\n      swap1\n      pop\n        /* \"#utility.yul\":466:562   */\n      swap2\n      swap1\n      pop\n      jump\t// out\n        /* \"#utility.yul\":568:690   */\n    tag_120:\n        /* \"#utility.yul\":641:665   */\n      tag_185\n        /* \"#utility.yul\":659:664   */\n      dup2\n        /* \"#utility.yul\":641:665   */\n      tag_119\n      jump\t// in\n    tag_185:\n        /* \"#utility.yul\":634:639   */\n      dup2\n        /* \"#utility.yul\":631:666   */\n      eq\n        /* \"#utility.yul\":621:684   */\n      tag_186\n      jumpi\n        /* \"#utility.yul\":680:681   */\n      0x00\n        /* \"#utility.yul\":677:678   */\n      dup1\n        /* \"#utility.yul\":670:682   */\n      revert\n        /* \"#utility.yul\":621:684   */\n    tag_186:\n        /* \"#utility.yul\":568:690   */\n      pop\n      jump\t// out\n        /* \"#utility.yul\":696:835   */\n    tag_121:\n        /* \"#utility.yul\":742:747   */\n      0x00\n        /* \"#utility.yul\":780:786   */\n      dup2\n        /* \"#utility.yul\":767:787   */\n      calldataload\n        /* \"#utility.yul\":758:787   */\n      swap1\n      pop\n        /* \"#utility.yul\":796:829   */\n      tag_188\n        /* \"#utility.yul\":823:828   */\n      dup2\n        /* \"#utility.yul\":796:829   */\n      tag_120\n      jump\t// in\n    tag_188:\n        /* \"#utility.yul\":696:835   */\n      swap3\n      swap2\n      pop\n      pop\n      jump\t// out\n        /* \"#utility.yul\":841:918   */\n    tag_122:\n        /* \"#utility.yul\":878:885   */\n      0x00\n        /* \"#utility.yul\":907:912   */\n      dup2\n        /* \"#utility.yul\":896:912   */\n      swap1\n      pop\n        /* \"#utility.yul\":841:918   */\n      swap2\n      swap1\n      pop\n      jump\t// out\n        /* \"#utility.yul\":924:1046   */\n    tag_123:\n        /* \"#utility.yul\":997:1021   */\n      tag_191\n        /* \"#utility.yul\":1015:1020   */\n      dup2\n        /* \"#utility.yul\":997:1021   */\n      tag_122\n      jump\t// in\n    tag_191:\n        /* \"#utility.yul\":990:995   */\n      dup2\n        /* \"#utility.yul\":987:1022   */\n      eq\n        /* \"#utility.yul\":977:1040   */\n      tag_192\n      jumpi\n        /* \"#utility.yul\":1036:1037   */\n      0x00\n        /* \"#utility.yul\":1033:1034   */\n      dup1\n        /* \"#utility.yul\":1026:1038   */\n      revert\n        /* \"#utility.yul\":977:1040   */\n    tag_192:\n        /* \"#utility.yul\":924:1046   */\n      pop\n      jump\t// out\n        /* \"#utility.yul\":1052:1191   */\n    tag_124:\n        /* \"#utility.yul\":1098:1103   */\n      0x00\n        /* \"#utility.yul\":1136:1142   */\n      dup2\n        /* \"#utility.yul\":1123:1143   */\n      calldataload\n        /* \"#utility.yul\":1114:1143   */\n      swap1\n      pop\n        /* \"#utility.yul\":1152:1185   */\n      tag_194\n        /* \"#utility.yul\":1179:1184   */\n      dup2\n        /* \"#utility.yul\":1152:1185   */\n      tag_123\n      jump\t// in\n    tag_194:\n        /* \"#utility.yul\":1052:1191   */\n      swap3\n      swap2\n      pop\n      pop\n      jump\t// out\n        /* \"#utility.yul\":1197:1816   */\n    tag_16:\n        /* \"#utility.yul\":1274:1280   */\n      0x00\n        /* \"#utility.yul\":1282:1288   */\n      dup1\n        /* \"#utility.yul\":1290:1296   */\n      0x00\n        /* \"#utility.yul\":1339:1341   */\n      0x60\n        /* \"#utility.yul\":1327:1336   */\n      dup5\n        /* \"#utility.yul\":1318:1325   */\n      dup7\n        /* \"#utility.yul\":1314:1337   */\n      sub\n        /* \"#utility.yul\":1310:1342   */\n      slt\n        /* \"#utility.yul\":1307:1426   */\n      iszero\n      tag_196\n      jumpi\n        /* \"#utility.yul\":1345:1424   */\n      tag_197\n      tag_116\n      jump\t// in\n    tag_197:\n        /* \"#utility.yul\":1307:1426   */\n    tag_196:\n        /* \"#utility.yul\":1465:1466   */\n      0x00\n        /* \"#utility.yul\":1490:1543   */\n      tag_198\n        /* \"#utility.yul\":1535:1542   */\n      dup7\n        /* \"#utility.yul\":1526:1532   */\n      dup3\n        /* \"#utility.yul\":1515:1524   */\n      dup8\n        /* \"#utility.yul\":1511:1533   */\n      add\n        /* \"#utility.yul\":1490:1543   */\n      tag_121\n      jump\t// in\n    tag_198:\n        /* \"#utility.yul\":1480:1543   */\n      swap4\n      pop\n        /* \"#utility.yul\":1436:1553   */\n      pop\n        /* \"#utility.yul\":1592:1594   */\n      0x20\n        /* \"#utility.yul\":1618:1671   */\n      tag_199\n        /* \"#utility.yul\":1663:1670   */\n      dup7\n        /* \"#utility.yul\":1654:1660   */\n      dup3\n        /* \"#utility.yul\":1643:1652   */\n      dup8\n        /* \"#utility.yul\":1639:1661   */\n      add\n        /* \"#utility.yul\":1618:1671   */\n      tag_124\n      jump\t// in\n    tag_199:\n        /* \"#utility.yul\":1608:1671   */\n      swap3\n      pop\n        /* \"#utility.yul\":1563:1681   */\n      pop\n        /* \"#utility.yul\":1720:1722   */\n      0x40\n        /* \"#utility.yul\":1746:1799   */\n      tag_200\n        /* \"#utility.yul\":1791:1798   */\n      dup7\n        /* \"#utility.yul\":1782:1788   */\n      dup3\n        /* \"#utility.yul\":1771:1780   */\n      dup8\n        /* \"#utility.yul\":1767:1789   */\n      add\n        /* \"#utility.yul\":1746:1799   */\n      tag_124\n      jump\t// in\n    tag_200:\n        /* \"#utility.yul\":1736:1799   */\n      swap2\n      pop\n        /* \"#utility.yul\":1691:1809   */\n      pop\n        /* \"#utility.yul\":1197:1816   */\n      swap3\n      pop\n      swap3\n      pop\n      swap3\n      jump\t// out\n        /* \"#utility.yul\":1822:1912   */\n    tag_125:\n        /* \"#utility.yul\":1856:1863   */\n      0x00\n        /* \"#utility.yul\":1899:1904   */\n      dup2\n        /* \"#utility.yul\":1892:1905   */\n      iszero\n        /* \"#utility.yul\":1885:1906   */\n      iszero\n        /* \"#utility.yul\":1874:1906   */\n      swap1\n      pop\n        /* \"#utility.yul\":1822:1912   */\n      swap2\n      swap1\n      pop\n      jump\t// out\n        /* \"#utility.yul\":1918:2027   */\n    tag_126:\n        /* \"#utility.yul\":1999:2020   */\n      tag_203\n        /* \"#utility.yul\":2014:2019   */\n      dup2\n        /* \"#utility.yul\":1999:2020   */\n      tag_125\n      jump\t// in\n    tag_203:\n        /* \"#utility.yul\":1994:1997   */\n      dup3\n        /* \"#utility.yul\":1987:2021   */\n      mstore\n        /* \"#utility.yul\":1918:2027   */\n      pop\n      pop\n      jump\t// out\n        /* \"#utility.yul\":2033:2243   */\n    tag_19:\n        /* \"#utility.yul\":2120:2124   */\n      0x00\n        /* \"#utility.yul\":2158:2160   */\n      0x20\n        /* \"#utility.yul\":2147:2156   */\n      dup3\n        /* \"#utility.yul\":2143:2161   */\n      add\n        /* \"#utility.yul\":2135:2161   */\n      swap1\n      pop\n        /* \"#utility.yul\":2171:2236   */\n      tag_205\n        /* \"#utility.yul\":2233:2234   */\n      0x00\n        /* \"#utility.yul\":2222:2231   */\n      dup4\n        /* \"#utility.yul\":2218:2235   */\n      add\n        /* \"#utility.yul\":2209:2215   */\n      dup5\n        /* \"#utility.yul\":2171:2236   */\n      tag_126\n      jump\t// in\n    tag_205:\n        /* \"#utility.yul\":2033:2243   */\n      swap3\n      swap2\n      pop\n      pop\n      jump\t// out\n        /* \"#utility.yul\":2249:2723   */\n    tag_22:\n        /* \"#utility.yul\":2317:2323   */\n      0x00\n        /* \"#utility.yul\":2325:2331   */\n      dup1\n        /* \"#utility.yul\":2374:2376   */\n      0x40\n        /* \"#utility.yul\":2362:2371   */\n      dup4\n        /* \"#utility.yul\":2353:2360   */\n      dup6\n        /* \"#utility.yul\":2349:2372   */\n      sub\n        /* \"#utility.yul\":2345:2377   */\n      slt\n        /* \"#utility.yul\":2342:2461   */\n      iszero\n      tag_207\n      jumpi\n        /* \"#utility.yul\":2380:2459   */\n      tag_208\n      tag_116\n      jump\t// in\n    tag_208:\n        /* \"#utility.yul\":2342:2461   */\n    tag_207:\n        /* \"#utility.yul\":2500:2501   */\n      0x00\n        /* \"#utility.yul\":2525:2578   */\n      tag_209\n        /* \"#utility.yul\":2570:2577   */\n      dup6\n        /* \"#utility.yul\":2561:2567   */\n      dup3\n        /* \"#utility.yul\":2550:2559   */\n      dup7\n        /* \"#utility.yul\":2546:2568   */\n      add\n        /* \"#utility.yul\":2525:2578   */\n      tag_121\n      jump\t// in\n    tag_209:\n        /* \"#utility.yul\":2515:2578   */\n      swap3\n      pop\n        /* \"#utility.yul\":2471:2588   */\n      pop\n        /* \"#utility.yul\":2627:2629   */\n      0x20\n        /* \"#utility.yul\":2653:2706   */\n      tag_210\n        /* \"#utility.yul\":2698:2705   */\n      dup6\n        /* \"#utility.yul\":2689:2695   */\n      dup3\n        /* \"#utility.yul\":2678:2687   */\n      dup7\n        /* \"#utility.yul\":2674:2696   */\n      add\n        /* \"#utility.yul\":2653:2706   */\n      tag_124\n      jump\t// in\n    tag_210:\n        /* \"#utility.yul\":2643:2706   */\n      swap2\n      pop\n        /* \"#utility.yul\":2598:2716   */\n      pop\n        /* \"#utility.yul\":2249:2723   */\n      swap3\n      pop\n      swap3\n      swap1\n      pop\n      jump\t// out\n        /* \"#utility.yul\":2729:2847   */\n    tag_127:\n        /* \"#utility.yul\":2816:2840   */\n      tag_212\n        /* \"#utility.yul\":2834:2839   */\n      dup2\n        /* \"#utility.yul\":2816:2840   */\n      tag_122\n      jump\t// in\n    tag_212:\n        /* \"#utility.yul\":2811:2814   */\n      dup3\n        /* \"#utility.yul\":2804:2841   */\n      mstore\n        /* \"#utility.yul\":2729:2847   */\n      pop\n      pop\n      jump\t// out\n        /* \"#utility.yul\":2853:3075   */\n    tag_25:\n        /* \"#utility.yul\":2946:2950   */\n      0x00\n        /* \"#utility.yul\":2984:2986   */\n      0x20\n        /* \"#utility.yul\":2973:2982   */\n      dup3\n        /* \"#utility.yul\":2969:2987   */\n      add\n        /* \"#utility.yul\":2961:2987   */\n      swap1\n      pop\n        /* \"#utility.yul\":2997:3068   */\n      tag_214\n        /* \"#utility.yul\":3065:3066   */\n      0x00\n        /* \"#utility.yul\":3054:3063   */\n      dup4\n        /* \"#utility.yul\":3050:3067   */\n      add\n        /* \"#utility.yul\":3041:3047   */\n      dup5\n        /* \"#utility.yul\":2997:3068   */\n      tag_127\n      jump\t// in\n    tag_214:\n        /* \"#utility.yul\":2853:3075   */\n      swap3\n      swap2\n      pop\n      pop\n      jump\t// out\n        /* \"#utility.yul\":3081:3199   */\n    tag_128:\n        /* \"#utility.yul\":3168:3192   */\n      tag_216\n        /* \"#utility.yul\":3186:3191   */\n      dup2\n        /* \"#utility.yul\":3168:3192   */\n      tag_119\n      jump\t// in\n    tag_216:\n        /* \"#utility.yul\":3163:3166   */\n      dup3\n        /* \"#utility.yul\":3156:3193   */\n      mstore\n        /* \"#utility.yul\":3081:3199   */\n      pop\n      pop\n      jump\t// out\n        /* \"#utility.yul\":3205:3304   */\n    tag_129:\n        /* \"#utility.yul\":3257:3263   */\n      0x00\n        /* \"#utility.yul\":3291:3296   */\n      dup2\n        /* \"#utility.yul\":3285:3297   */\n      mload\n        /* \"#utility.yul\":3275:3297   */\n      swap1\n      pop\n        /* \"#utility.yul\":3205:3304   */\n      swap2\n      swap1\n      pop\n      jump\t// out\n        /* \"#utility.yul\":3310:3479   */\n    tag_130:\n        /* \"#utility.yul\":3394:3405   */\n      0x00\n        /* \"#utility.yul\":3428:3434   */\n      dup3\n        /* \"#utility.yul\":3423:3426   */\n      dup3\n        /* \"#utility.yul\":3416:3435   */\n      mstore\n        /* \"#utility.yul\":3468:3472   */\n      0x20\n        /* \"#utility.yul\":3463:3466   */\n      dup3\n        /* \"#utility.yul\":3459:3473   */\n      add\n        /* \"#utility.yul\":3444:3473   */\n      swap1\n      pop\n        /* \"#utility.yul\":3310:3479   */\n      swap3\n      swap2\n      pop\n      pop\n      jump\t// out\n        /* \"#utility.yul\":3485:3731   */\n    tag_131:\n        /* \"#utility.yul\":3566:3567   */\n      0x00\n        /* \"#utility.yul\":3576:3689   */\n    tag_220:\n        /* \"#utility.yul\":3590:3596   */\n      dup4\n        /* \"#utility.yul\":3587:3588   */\n      dup2\n        /* \"#utility.yul\":3584:3597   */\n      lt\n        /* \"#utility.yul\":3576:3689   */\n      iszero\n      tag_222\n      jumpi\n        /* \"#utility.yul\":3675:3676   */\n      dup1\n        /* \"#utility.yul\":3670:3673   */\n      dup3\n        /* \"#utility.yul\":3666:3677   */\n      add\n        /* \"#utility.yul\":3660:3678   */\n      mload\n        /* \"#utility.yul\":3656:3657   */\n      dup2\n        /* \"#utility.yul\":3651:3654   */\n      dup5\n        /* \"#utility.yul\":3647:3658   */\n      add\n        /* \"#utility.yul\":3640:3679   */\n      mstore\n        /* \"#utility.yul\":3612:3614   */\n      0x20\n        /* \"#utility.yul\":3609:3610   */\n      dup2\n        /* \"#utility.yul\":3605:3615   */\n      add\n        /* \"#utility.yul\":3600:3615   */\n      swap1\n      pop\n        /* \"#utility.yul\":3576:3689   */\n      jump(tag_220)\n    tag_222:\n        /* \"#utility.yul\":3723:3724   */\n      0x00\n        /* \"#utility.yul\":3714:3720   */\n      dup5\n        /* \"#utility.yul\":3709:3712   */\n      dup5\n        /* \"#utility.yul\":3705:3721   */\n      add\n        /* \"#utility.yul\":3698:3725   */\n      mstore\n        /* \"#utility.yul\":3547:3731   */\n      pop\n        /* \"#utility.yul\":3485:3731   */\n      pop\n      pop\n      pop\n      jump\t// out\n        /* \"#utility.yul\":3737:3839   */\n    tag_132:\n        /* \"#utility.yul\":3778:3784   */\n      0x00\n        /* \"#utility.yul\":3829:3831   */\n      0x1f\n        /* \"#utility.yul\":3825:3832   */\n      not\n        /* \"#utility.yul\":3820:3822   */\n      0x1f\n        /* \"#utility.yul\":3813:3818   */\n      dup4\n        /* \"#utility.yul\":3809:3823   */\n      add\n        /* \"#utility.yul\":3805:3833   */\n      and\n        /* \"#utility.yul\":3795:3833   */\n      swap1\n      pop\n        /* \"#utility.yul\":3737:3839   */\n      swap2\n      swap1\n      pop\n      jump\t// out\n        /* \"#utility.yul\":3845:4222   */\n    tag_133:\n        /* \"#utility.yul\":3933:3936   */\n      0x00\n        /* \"#utility.yul\":3961:4000   */\n      tag_225\n        /* \"#utility.yul\":3994:3999   */\n      dup3\n        /* \"#utility.yul\":3961:4000   */\n      tag_129\n      jump\t// in\n    tag_225:\n        /* \"#utility.yul\":4016:4087   */\n      tag_226\n        /* \"#utility.yul\":4080:4086   */\n      dup2\n        /* \"#utility.yul\":4075:4078   */\n      dup6\n        /* \"#utility.yul\":4016:4087   */\n      tag_130\n      jump\t// in\n    tag_226:\n        /* \"#utility.yul\":4009:4087   */\n      swap4\n      pop\n        /* \"#utility.yul\":4096:4161   */\n      tag_227\n        /* \"#utility.yul\":4154:4160   */\n      dup2\n        /* \"#utility.yul\":4149:4152   */\n      dup6\n        /* \"#utility.yul\":4142:4146   */\n      0x20\n        /* \"#utility.yul\":4135:4140   */\n      dup7\n        /* \"#utility.yul\":4131:4147   */\n      add\n        /* \"#utility.yul\":4096:4161   */\n      tag_131\n      jump\t// in\n    tag_227:\n        /* \"#utility.yul\":4186:4215   */\n      tag_228\n        /* \"#utility.yul\":4208:4214   */\n      dup2\n        /* \"#utility.yul\":4186:4215   */\n      tag_132\n      jump\t// in\n    tag_228:\n        /* \"#utility.yul\":4181:4184   */\n      dup5\n        /* \"#utility.yul\":4177:4216   */\n      add\n        /* \"#utility.yul\":4170:4216   */\n      swap2\n      pop\n        /* \"#utility.yul\":3937:4222   */\n      pop\n        /* \"#utility.yul\":3845:4222   */\n      swap3\n      swap2\n      pop\n      pop\n      jump\t// out\n        /* \"#utility.yul\":4228:4872   */\n    tag_33:\n        /* \"#utility.yul\":4425:4429   */\n      0x00\n        /* \"#utility.yul\":4463:4466   */\n      0x80\n        /* \"#utility.yul\":4452:4461   */\n      dup3\n        /* \"#utility.yul\":4448:4467   */\n      add\n        /* \"#utility.yul\":4440:4467   */\n      swap1\n      pop\n        /* \"#utility.yul\":4477:4548   */\n      tag_230\n        /* \"#utility.yul\":4545:4546   */\n      0x00\n        /* \"#utility.yul\":4534:4543   */\n      dup4\n        /* \"#utility.yul\":4530:4547   */\n      add\n        /* \"#utility.yul\":4521:4527   */\n      dup8\n        /* \"#utility.yul\":4477:4548   */\n      tag_127\n      jump\t// in\n    tag_230:\n        /* \"#utility.yul\":4558:4630   */\n      tag_231\n        /* \"#utility.yul\":4626:4628   */\n      0x20\n        /* \"#utility.yul\":4615:4624   */\n      dup4\n        /* \"#utility.yul\":4611:4629   */\n      add\n        /* \"#utility.yul\":4602:4608   */\n      dup7\n        /* \"#utility.yul\":4558:4630   */\n      tag_128\n      jump\t// in\n    tag_231:\n        /* \"#utility.yul\":4677:4686   */\n      dup2\n        /* \"#utility.yul\":4671:4675   */\n      dup2\n        /* \"#utility.yul\":4667:4687   */\n      sub\n        /* \"#utility.yul\":4662:4664   */\n      0x40\n        /* \"#utility.yul\":4651:4660   */\n      dup4\n        /* \"#utility.yul\":4647:4665   */\n      add\n        /* \"#utility.yul\":4640:4688   */\n      mstore\n        /* \"#utility.yul\":4705:4783   */\n      tag_232\n        /* \"#utility.yul\":4778:4782   */\n      dup2\n        /* \"#utility.yul\":4769:4775   */\n      dup6\n        /* \"#utility.yul\":4705:4783   */\n      tag_133\n      jump\t// in\n    tag_232:\n        /* \"#utility.yul\":4697:4783   */\n      swap1\n      pop\n        /* \"#utility.yul\":4793:4865   */\n      tag_233\n        /* \"#utility.yul\":4861:4863   */\n      0x60\n        /* \"#utility.yul\":4850:4859   */\n      dup4\n        /* \"#utility.yul\":4846:4864   */\n      add\n        /* \"#utility.yul\":4837:4843   */\n      dup5\n        /* \"#utility.yul\":4793:4865   */\n      tag_127\n      jump\t// in\n    tag_233:\n        /* \"#utility.yul\":4228:4872   */\n      swap6\n      swap5\n      pop\n      pop\n      pop\n      pop\n      pop\n      jump\t// out\n        /* \"#utility.yul\":4878:4995   */\n    tag_134:\n        /* \"#utility.yul\":4987:4988   */\n      0x00\n        /* \"#utility.yul\":4984:4985   */\n      dup1\n        /* \"#utility.yul\":4977:4989   */\n      revert\n        /* \"#utility.yul\":5001:5118   */\n    tag_135:\n        /* \"#utility.yul\":5110:5111   */\n      0x00\n        /* \"#utility.yul\":5107:5108   */\n      dup1\n        /* \"#utility.yul\":5100:5112   */\n      revert\n        /* \"#utility.yul\":5124:5304   */\n    tag_136:\n        /* \"#utility.yul\":5172:5249   */\n      0x4e487b7100000000000000000000000000000000000000000000000000000000\n        /* \"#utility.yul\":5169:5170   */\n      0x00\n        /* \"#utility.yul\":5162:5250   */\n      mstore\n        /* \"#utility.yul\":5269:5273   */\n      0x41\n        /* \"#utility.yul\":5266:5267   */\n      0x04\n        /* \"#utility.yul\":5259:5274   */\n      mstore\n        /* \"#utility.yul\":5293:5297   */\n      0x24\n        /* \"#utility.yul\":5290:5291   */\n      0x00\n        /* \"#utility.yul\":5283:5298   */\n      revert\n        /* \"#utility.yul\":5310:5591   */\n    tag_137:\n        /* \"#utility.yul\":5393:5420   */\n      tag_238\n        /* \"#utility.yul\":5415:5419   */\n      dup3\n        /* \"#utility.yul\":5393:5420   */\n      tag_132\n      jump\t// in\n    tag_238:\n        /* \"#utility.yul\":5385:5391   */\n      dup2\n        /* \"#utility.yul\":5381:5421   */\n      add\n        /* \"#utility.yul\":5523:5529   */\n      dup2\n        /* \"#utility.yul\":5511:5521   */\n      dup2\n        /* \"#utility.yul\":5508:5530   */\n      lt\n        /* \"#utility.yul\":5487:5505   */\n      0xffffffffffffffff\n        /* \"#utility.yul\":5475:5485   */\n      dup3\n        /* \"#utility.yul\":5472:5506   */\n      gt\n        /* \"#utility.yul\":5469:5531   */\n      or\n        /* \"#utility.yul\":5466:5554   */\n      iszero\n      tag_239\n      jumpi\n        /* \"#utility.yul\":5534:5552   */\n      tag_240\n      tag_136\n      jump\t// in\n    tag_240:\n        /* \"#utility.yul\":5466:5554   */\n    tag_239:\n        /* \"#utility.yul\":5574:5584   */\n      dup1\n        /* \"#utility.yul\":5570:5572   */\n      0x40\n        /* \"#utility.yul\":5563:5585   */\n      mstore\n        /* \"#utility.yul\":5353:5591   */\n      pop\n        /* \"#utility.yul\":5310:5591   */\n      pop\n      pop\n      jump\t// out\n        /* \"#utility.yul\":5597:5726   */\n    tag_138:\n        /* \"#utility.yul\":5631:5637   */\n      0x00\n        /* \"#utility.yul\":5658:5678   */\n      tag_242\n      tag_115\n      jump\t// in\n    tag_242:\n        /* \"#utility.yul\":5648:5678   */\n      swap1\n      pop\n        /* \"#utility.yul\":5687:5720   */\n      tag_243\n        /* \"#utility.yul\":5715:5719   */\n      dup3\n        /* \"#utility.yul\":5707:5713   */\n      dup3\n        /* \"#utility.yul\":5687:5720   */\n      tag_137\n      jump\t// in\n    tag_243:\n        /* \"#utility.yul\":5597:5726   */\n      swap2\n      swap1\n      pop\n      jump\t// out\n        /* \"#utility.yul\":5732:6040   */\n    tag_139:\n        /* \"#utility.yul\":5794:5798   */\n      0x00\n        /* \"#utility.yul\":5884:5902   */\n      0xffffffffffffffff\n        /* \"#utility.yul\":5876:5882   */\n      dup3\n        /* \"#utility.yul\":5873:5903   */\n      gt\n        /* \"#utility.yul\":5870:5926   */\n      iszero\n      tag_245\n      jumpi\n        /* \"#utility.yul\":5906:5924   */\n      tag_246\n      tag_136\n      jump\t// in\n    tag_246:\n        /* \"#utility.yul\":5870:5926   */\n    tag_245:\n        /* \"#utility.yul\":5944:5973   */\n      tag_247\n        /* \"#utility.yul\":5966:5972   */\n      dup3\n        /* \"#utility.yul\":5944:5973   */\n      tag_132\n      jump\t// in\n    tag_247:\n        /* \"#utility.yul\":5936:5973   */\n      swap1\n      pop\n        /* \"#utility.yul\":6028:6032   */\n      0x20\n        /* \"#utility.yul\":6022:6026   */\n      dup2\n        /* \"#utility.yul\":6018:6033   */\n      add\n        /* \"#utility.yul\":6010:6033   */\n      swap1\n      pop\n        /* \"#utility.yul\":5732:6040   */\n      swap2\n      swap1\n      pop\n      jump\t// out\n        /* \"#utility.yul\":6046:6192   */\n    tag_140:\n        /* \"#utility.yul\":6143:6149   */\n      dup3\n        /* \"#utility.yul\":6138:6141   */\n      dup2\n        /* \"#utility.yul\":6133:6136   */\n      dup4\n        /* \"#utility.yul\":6120:6150   */\n      calldatacopy\n        /* \"#utility.yul\":6184:6185   */\n      0x00\n        /* \"#utility.yul\":6175:6181   */\n      dup4\n        /* \"#utility.yul\":6170:6173   */\n      dup4\n        /* \"#utility.yul\":6166:6182   */\n      add\n        /* \"#utility.yul\":6159:6186   */\n      mstore\n        /* \"#utility.yul\":6046:6192   */\n      pop\n      pop\n      pop\n      jump\t// out\n        /* \"#utility.yul\":6198:6623   */\n    tag_141:\n        /* \"#utility.yul\":6276:6281   */\n      0x00\n        /* \"#utility.yul\":6301:6367   */\n      tag_250\n        /* \"#utility.yul\":6317:6366   */\n      tag_251\n        /* \"#utility.yul\":6359:6365   */\n      dup5\n        /* \"#utility.yul\":6317:6366   */\n      tag_139\n      jump\t// in\n    tag_251:\n        /* \"#utility.yul\":6301:6367   */\n      tag_138\n      jump\t// in\n    tag_250:\n        /* \"#utility.yul\":6292:6367   */\n      swap1\n      pop\n        /* \"#utility.yul\":6390:6396   */\n      dup3\n        /* \"#utility.yul\":6383:6388   */\n      dup2\n        /* \"#utility.yul\":6376:6397   */\n      mstore\n        /* \"#utility.yul\":6428:6432   */\n      0x20\n        /* \"#utility.yul\":6421:6426   */\n      dup2\n        /* \"#utility.yul\":6417:6433   */\n      add\n        /* \"#utility.yul\":6466:6469   */\n      dup5\n        /* \"#utility.yul\":6457:6463   */\n      dup5\n        /* \"#utility.yul\":6452:6455   */\n      dup5\n        /* \"#utility.yul\":6448:6464   */\n      add\n        /* \"#utility.yul\":6445:6470   */\n      gt\n        /* \"#utility.yul\":6442:6554   */\n      iszero\n      tag_252\n      jumpi\n        /* \"#utility.yul\":6473:6552   */\n      tag_253\n      tag_135\n      jump\t// in\n    tag_253:\n        /* \"#utility.yul\":6442:6554   */\n    tag_252:\n        /* \"#utility.yul\":6563:6617   */\n      tag_254\n        /* \"#utility.yul\":6610:6616   */\n      dup5\n        /* \"#utility.yul\":6605:6608   */\n      dup3\n        /* \"#utility.yul\":6600:6603   */\n      dup6\n        /* \"#utility.yul\":6563:6617   */\n      tag_140\n      jump\t// in\n    tag_254:\n        /* \"#utility.yul\":6282:6623   */\n      pop\n        /* \"#utility.yul\":6198:6623   */\n      swap4\n      swap3\n      pop\n      pop\n      pop\n      jump\t// out\n        /* \"#utility.yul\":6643:6983   */\n    tag_142:\n        /* \"#utility.yul\":6699:6704   */\n      0x00\n        /* \"#utility.yul\":6748:6751   */\n      dup3\n        /* \"#utility.yul\":6741:6745   */\n      0x1f\n        /* \"#utility.yul\":6733:6739   */\n      dup4\n        /* \"#utility.yul\":6729:6746   */\n      add\n        /* \"#utility.yul\":6725:6752   */\n      slt\n        /* \"#utility.yul\":6715:6837   */\n      tag_256\n      jumpi\n        /* \"#utility.yul\":6756:6835   */\n      tag_257\n      tag_134\n      jump\t// in\n    tag_257:\n        /* \"#utility.yul\":6715:6837   */\n    tag_256:\n        /* \"#utility.yul\":6873:6879   */\n      dup2\n        /* \"#utility.yul\":6860:6880   */\n      calldataload\n        /* \"#utility.yul\":6898:6977   */\n      tag_258\n        /* \"#utility.yul\":6973:6976   */\n      dup5\n        /* \"#utility.yul\":6965:6971   */\n      dup3\n        /* \"#utility.yul\":6958:6962   */\n      0x20\n        /* \"#utility.yul\":6950:6956   */\n      dup7\n        /* \"#utility.yul\":6946:6963   */\n      add\n        /* \"#utility.yul\":6898:6977   */\n      tag_141\n      jump\t// in\n    tag_258:\n        /* \"#utility.yul\":6889:6977   */\n      swap2\n      pop\n        /* \"#utility.yul\":6705:6983   */\n      pop\n        /* \"#utility.yul\":6643:6983   */\n      swap3\n      swap2\n      pop\n      pop\n      jump\t// out\n        /* \"#utility.yul\":6989:8080   */\n    tag_40:\n        /* \"#utility.yul\":7094:7100   */\n      0x00\n        /* \"#utility.yul\":7102:7108   */\n      dup1\n        /* \"#utility.yul\":7110:7116   */\n      0x00\n        /* \"#utility.yul\":7118:7124   */\n      dup1\n        /* \"#utility.yul\":7126:7132   */\n      0x00\n        /* \"#utility.yul\":7175:7178   */\n      0xa0\n        /* \"#utility.yul\":7163:7172   */\n      dup7\n        /* \"#utility.yul\":7154:7161   */\n      dup9\n        /* \"#utility.yul\":7150:7173   */\n      sub\n        /* \"#utility.yul\":7146:7179   */\n      slt\n        /* \"#utility.yul\":7143:7263   */\n      iszero\n      tag_260\n      jumpi\n        /* \"#utility.yul\":7182:7261   */\n      tag_261\n      tag_116\n      jump\t// in\n    tag_261:\n        /* \"#utility.yul\":7143:7263   */\n    tag_260:\n        /* \"#utility.yul\":7302:7303   */\n      0x00\n        /* \"#utility.yul\":7327:7380   */\n      tag_262\n        /* \"#utility.yul\":7372:7379   */\n      dup9\n        /* \"#utility.yul\":7363:7369   */\n      dup3\n        /* \"#utility.yul\":7352:7361   */\n      dup10\n        /* \"#utility.yul\":7348:7370   */\n      add\n        /* \"#utility.yul\":7327:7380   */\n      tag_121\n      jump\t// in\n    tag_262:\n        /* \"#utility.yul\":7317:7380   */\n      swap6\n      pop\n        /* \"#utility.yul\":7273:7390   */\n      pop\n        /* \"#utility.yul\":7429:7431   */\n      0x20\n        /* \"#utility.yul\":7455:7508   */\n      tag_263\n        /* \"#utility.yul\":7500:7507   */\n      dup9\n        /* \"#utility.yul\":7491:7497   */\n      dup3\n        /* \"#utility.yul\":7480:7489   */\n      dup10\n        /* \"#utility.yul\":7476:7498   */\n      add\n        /* \"#utility.yul\":7455:7508   */\n      tag_121\n      jump\t// in\n    tag_263:\n        /* \"#utility.yul\":7445:7508   */\n      swap5\n      pop\n        /* \"#utility.yul\":7400:7518   */\n      pop\n        /* \"#utility.yul\":7557:7559   */\n      0x40\n        /* \"#utility.yul\":7583:7636   */\n      tag_264\n        /* \"#utility.yul\":7628:7635   */\n      dup9\n        /* \"#utility.yul\":7619:7625   */\n      dup3\n        /* \"#utility.yul\":7608:7617   */\n      dup10\n        /* \"#utility.yul\":7604:7626   */\n      add\n        /* \"#utility.yul\":7583:7636   */\n      tag_124\n      jump\t// in\n    tag_264:\n        /* \"#utility.yul\":7573:7636   */\n      swap4\n      pop\n        /* \"#utility.yul\":7528:7646   */\n      pop\n        /* \"#utility.yul\":7713:7715   */\n      0x60\n        /* \"#utility.yul\":7702:7711   */\n      dup7\n        /* \"#utility.yul\":7698:7716   */\n      add\n        /* \"#utility.yul\":7685:7717   */\n      calldataload\n        /* \"#utility.yul\":7744:7762   */\n      0xffffffffffffffff\n        /* \"#utility.yul\":7736:7742   */\n      dup2\n        /* \"#utility.yul\":7733:7763   */\n      gt\n        /* \"#utility.yul\":7730:7847   */\n      iszero\n      tag_265\n      jumpi\n        /* \"#utility.yul\":7766:7845   */\n      tag_266\n      tag_117\n      jump\t// in\n    tag_266:\n        /* \"#utility.yul\":7730:7847   */\n    tag_265:\n        /* \"#utility.yul\":7871:7934   */\n      tag_267\n        /* \"#utility.yul\":7926:7933   */\n      dup9\n        /* \"#utility.yul\":7917:7923   */\n      dup3\n        /* \"#utility.yul\":7906:7915   */\n      dup10\n        /* \"#utility.yul\":7902:7924   */\n      add\n        /* \"#utility.yul\":7871:7934   */\n      tag_142\n      jump\t// in\n    tag_267:\n        /* \"#utility.yul\":7861:7934   */\n      swap3\n      pop\n        /* \"#utility.yul\":7656:7944   */\n      pop\n        /* \"#utility.yul\":7983:7986   */\n      0x80\n        /* \"#utility.yul\":8010:8063   */\n      tag_268\n        /* \"#utility.yul\":8055:8062   */\n      dup9\n        /* \"#utility.yul\":8046:8052   */\n      dup3\n        /* \"#utility.yul\":8035:8044   */\n      dup10\n        /* \"#utility.yul\":8031:8053   */\n      add\n        /* \"#utility.yul\":8010:8063   */\n      tag_124\n      jump\t// in\n    tag_268:\n        /* \"#utility.yul\":8000:8063   */\n      swap2\n      pop\n        /* \"#utility.yul\":7954:8073   */\n      pop\n        /* \"#utility.yul\":6989:8080   */\n      swap3\n      swap6\n      pop\n      swap3\n      swap6\n      swap1\n      swap4\n      pop\n      jump\t// out\n        /* \"#utility.yul\":8086:8619   */\n    tag_43:\n        /* \"#utility.yul\":8255:8259   */\n      0x00\n        /* \"#utility.yul\":8293:8295   */\n      0x60\n        /* \"#utility.yul\":8282:8291   */\n      dup3\n        /* \"#utility.yul\":8278:8296   */\n      add\n        /* \"#utility.yul\":8270:8296   */\n      swap1\n      pop\n        /* \"#utility.yul\":8306:8377   */\n      tag_270\n        /* \"#utility.yul\":8374:8375   */\n      0x00\n        /* \"#utility.yul\":8363:8372   */\n      dup4\n        /* \"#utility.yul\":8359:8376   */\n      add\n        /* \"#utility.yul\":8350:8356   */\n      dup7\n        /* \"#utility.yul\":8306:8377   */\n      tag_127\n      jump\t// in\n    tag_270:\n        /* \"#utility.yul\":8424:8433   */\n      dup2\n        /* \"#utility.yul\":8418:8422   */\n      dup2\n        /* \"#utility.yul\":8414:8434   */\n      sub\n        /* \"#utility.yul\":8409:8411   */\n      0x20\n        /* \"#utility.yul\":8398:8407   */\n      dup4\n        /* \"#utility.yul\":8394:8412   */\n      add\n        /* \"#utility.yul\":8387:8435   */\n      mstore\n        /* \"#utility.yul\":8452:8530   */\n      tag_271\n        /* \"#utility.yul\":8525:8529   */\n      dup2\n        /* \"#utility.yul\":8516:8522   */\n      dup6\n        /* \"#utility.yul\":8452:8530   */\n      tag_133\n      jump\t// in\n    tag_271:\n        /* \"#utility.yul\":8444:8530   */\n      swap1\n      pop\n        /* \"#utility.yul\":8540:8612   */\n      tag_272\n        /* \"#utility.yul\":8608:8610   */\n      0x40\n        /* \"#utility.yul\":8597:8606   */\n      dup4\n        /* \"#utility.yul\":8593:8611   */\n      add\n        /* \"#utility.yul\":8584:8590   */\n      dup5\n        /* \"#utility.yul\":8540:8612   */\n      tag_127\n      jump\t// in\n    tag_272:\n        /* \"#utility.yul\":8086:8619   */\n      swap5\n      swap4\n      pop\n      pop\n      pop\n      pop\n      jump\t// out\n        /* \"#utility.yul\":8625:8847   */\n    tag_52:\n        /* \"#utility.yul\":8718:8722   */\n      0x00\n        /* \"#utility.yul\":8756:8758   */\n      0x20\n        /* \"#utility.yul\":8745:8754   */\n      dup3\n        /* \"#utility.yul\":8741:8759   */\n      add\n        /* \"#utility.yul\":8733:8759   */\n      swap1\n      pop\n        /* \"#utility.yul\":8769:8840   */\n      tag_274\n        /* \"#utility.yul\":8837:8838   */\n      0x00\n        /* \"#utility.yul\":8826:8835   */\n      dup4\n        /* \"#utility.yul\":8822:8839   */\n      add\n        /* \"#utility.yul\":8813:8819   */\n      dup5\n        /* \"#utility.yul\":8769:8840   */\n      tag_128\n      jump\t// in\n    tag_274:\n        /* \"#utility.yul\":8625:8847   */\n      swap3\n      swap2\n      pop\n      pop\n      jump\t// out\n        /* \"#utility.yul\":8853:9166   */\n    tag_61:\n        /* \"#utility.yul\":8966:8970   */\n      0x00\n        /* \"#utility.yul\":9004:9006   */\n      0x20\n        /* \"#utility.yul\":8993:9002   */\n      dup3\n        /* \"#utility.yul\":8989:9007   */\n      add\n        /* \"#utility.yul\":8981:9007   */\n      swap1\n      pop\n        /* \"#utility.yul\":9053:9062   */\n      dup2\n        /* \"#utility.yul\":9047:9051   */\n      dup2\n        /* \"#utility.yul\":9043:9063   */\n      sub\n        /* \"#utility.yul\":9039:9040   */\n      0x00\n        /* \"#utility.yul\":9028:9037   */\n      dup4\n        /* \"#utility.yul\":9024:9041   */\n      add\n        /* \"#utility.yul\":9017:9064   */\n      mstore\n        /* \"#utility.yul\":9081:9159   */\n      tag_276\n        /* \"#utility.yul\":9154:9158   */\n      dup2\n        /* \"#utility.yul\":9145:9151   */\n      dup5\n        /* \"#utility.yul\":9081:9159   */\n      tag_133\n      jump\t// in\n    tag_276:\n        /* \"#utility.yul\":9073:9159   */\n      swap1\n      pop\n        /* \"#utility.yul\":8853:9166   */\n      swap3\n      swap2\n      pop\n      pop\n      jump\t// out\n        /* \"#utility.yul\":9172:9341   */\n    tag_143:\n        /* \"#utility.yul\":9312:9333   */\n      0x5175616e74697479206e6f742056616c69642100000000000000000000000000\n        /* \"#utility.yul\":9308:9309   */\n      0x00\n        /* \"#utility.yul\":9300:9306   */\n      dup3\n        /* \"#utility.yul\":9296:9310   */\n      add\n        /* \"#utility.yul\":9289:9334   */\n      mstore\n        /* \"#utility.yul\":9172:9341   */\n      pop\n      jump\t// out\n        /* \"#utility.yul\":9347:9713   */\n    tag_144:\n        /* \"#utility.yul\":9489:9492   */\n      0x00\n        /* \"#utility.yul\":9510:9577   */\n      tag_279\n        /* \"#utility.yul\":9574:9576   */\n      0x13\n        /* \"#utility.yul\":9569:9572   */\n      dup4\n        /* \"#utility.yul\":9510:9577   */\n      tag_130\n      jump\t// in\n    tag_279:\n        /* \"#utility.yul\":9503:9577   */\n      swap2\n      pop\n        /* \"#utility.yul\":9586:9679   */\n      tag_280\n        /* \"#utility.yul\":9675:9678   */\n      dup3\n        /* \"#utility.yul\":9586:9679   */\n      tag_143\n      jump\t// in\n    tag_280:\n        /* \"#utility.yul\":9704:9706   */\n      0x20\n        /* \"#utility.yul\":9699:9702   */\n      dup3\n        /* \"#utility.yul\":9695:9707   */\n      add\n        /* \"#utility.yul\":9688:9707   */\n      swap1\n      pop\n        /* \"#utility.yul\":9347:9713   */\n      swap2\n      swap1\n      pop\n      jump\t// out\n        /* \"#utility.yul\":9719:10138   */\n    tag_65:\n        /* \"#utility.yul\":9885:9889   */\n      0x00\n        /* \"#utility.yul\":9923:9925   */\n      0x20\n        /* \"#utility.yul\":9912:9921   */\n      dup3\n        /* \"#utility.yul\":9908:9926   */\n      add\n        /* \"#utility.yul\":9900:9926   */\n      swap1\n      pop\n        /* \"#utility.yul\":9972:9981   */\n      dup2\n        /* \"#utility.yul\":9966:9970   */\n      dup2\n        /* \"#utility.yul\":9962:9982   */\n      sub\n        /* \"#utility.yul\":9958:9959   */\n      0x00\n        /* \"#utility.yul\":9947:9956   */\n      dup4\n        /* \"#utility.yul\":9943:9960   */\n      add\n        /* \"#utility.yul\":9936:9983   */\n      mstore\n        /* \"#utility.yul\":10000:10131   */\n      tag_282\n        /* \"#utility.yul\":10126:10130   */\n      dup2\n        /* \"#utility.yul\":10000:10131   */\n      tag_144\n      jump\t// in\n    tag_282:\n        /* \"#utility.yul\":9992:10131   */\n      swap1\n      pop\n        /* \"#utility.yul\":9719:10138   */\n      swap2\n      swap1\n      pop\n      jump\t// out\n        /* \"#utility.yul\":10144:10324   */\n    tag_145:\n        /* \"#utility.yul\":10192:10269   */\n      0x4e487b7100000000000000000000000000000000000000000000000000000000\n        /* \"#utility.yul\":10189:10190   */\n      0x00\n        /* \"#utility.yul\":10182:10270   */\n      mstore\n        /* \"#utility.yul\":10289:10293   */\n      0x22\n        /* \"#utility.yul\":10286:10287   */\n      0x04\n        /* \"#utility.yul\":10279:10294   */\n      mstore\n        /* \"#utility.yul\":10313:10317   */\n      0x24\n        /* \"#utility.yul\":10310:10311   */\n      0x00\n        /* \"#utility.yul\":10303:10318   */\n      revert\n        /* \"#utility.yul\":10330:10650   */\n    tag_68:\n        /* \"#utility.yul\":10374:10380   */\n      0x00\n        /* \"#utility.yul\":10411:10412   */\n      0x02\n        /* \"#utility.yul\":10405:10409   */\n      dup3\n        /* \"#utility.yul\":10401:10413   */\n      div\n        /* \"#utility.yul\":10391:10413   */\n      swap1\n      pop\n        /* \"#utility.yul\":10458:10459   */\n      0x01\n        /* \"#utility.yul\":10452:10456   */\n      dup3\n        /* \"#utility.yul\":10448:10460   */\n      and\n        /* \"#utility.yul\":10479:10497   */\n      dup1\n        /* \"#utility.yul\":10469:10550   */\n      tag_285\n      jumpi\n        /* \"#utility.yul\":10535:10539   */\n      0x7f\n        /* \"#utility.yul\":10527:10533   */\n      dup3\n        /* \"#utility.yul\":10523:10540   */\n      and\n        /* \"#utility.yul\":10513:10540   */\n      swap2\n      pop\n        /* \"#utility.yul\":10469:10550   */\n    tag_285:\n        /* \"#utility.yul\":10597:10599   */\n      0x20\n        /* \"#utility.yul\":10589:10595   */\n      dup3\n        /* \"#utility.yul\":10586:10600   */\n      lt\n        /* \"#utility.yul\":10566:10584   */\n      dup2\n        /* \"#utility.yul\":10563:10601   */\n      sub\n        /* \"#utility.yul\":10560:10644   */\n      tag_286\n      jumpi\n        /* \"#utility.yul\":10616:10634   */\n      tag_287\n      tag_145\n      jump\t// in\n    tag_287:\n        /* \"#utility.yul\":10560:10644   */\n    tag_286:\n        /* \"#utility.yul\":10381:10650   */\n      pop\n        /* \"#utility.yul\":10330:10650   */\n      swap2\n      swap1\n      pop\n      jump\t// out\n        /* \"#utility.yul\":10656:10906   */\n    tag_146:\n        /* \"#utility.yul\":10796:10830   */\n      0x436f6e74726f6c6c6f2064656c6c61205175616e746974612720646120757469\n        /* \"#utility.yul\":10792:10793   */\n      0x00\n        /* \"#utility.yul\":10784:10790   */\n      dup3\n        /* \"#utility.yul\":10780:10794   */\n      add\n        /* \"#utility.yul\":10773:10831   */\n      mstore\n        /* \"#utility.yul\":10865:10898   */\n      0x6c697a7a617265206e6f6e20616e6461746120612062756f6e2066696e652100\n        /* \"#utility.yul\":10860:10862   */\n      0x20\n        /* \"#utility.yul\":10852:10858   */\n      dup3\n        /* \"#utility.yul\":10848:10863   */\n      add\n        /* \"#utility.yul\":10841:10899   */\n      mstore\n        /* \"#utility.yul\":10656:10906   */\n      pop\n      jump\t// out\n        /* \"#utility.yul\":10912:11278   */\n    tag_147:\n        /* \"#utility.yul\":11054:11057   */\n      0x00\n        /* \"#utility.yul\":11075:11142   */\n      tag_290\n        /* \"#utility.yul\":11139:11141   */\n      0x3f\n        /* \"#utility.yul\":11134:11137   */\n      dup4\n        /* \"#utility.yul\":11075:11142   */\n      tag_130\n      jump\t// in\n    tag_290:\n        /* \"#utility.yul\":11068:11142   */\n      swap2\n      pop\n        /* \"#utility.yul\":11151:11244   */\n      tag_291\n        /* \"#utility.yul\":11240:11243   */\n      dup3\n        /* \"#utility.yul\":11151:11244   */\n      tag_146\n      jump\t// in\n    tag_291:\n        /* \"#utility.yul\":11269:11271   */\n      0x40\n        /* \"#utility.yul\":11264:11267   */\n      dup3\n        /* \"#utility.yul\":11260:11272   */\n      add\n        /* \"#utility.yul\":11253:11272   */\n      swap1\n      pop\n        /* \"#utility.yul\":10912:11278   */\n      swap2\n      swap1\n      pop\n      jump\t// out\n        /* \"#utility.yul\":11284:11703   */\n    tag_76:\n        /* \"#utility.yul\":11450:11454   */\n      0x00\n        /* \"#utility.yul\":11488:11490   */\n      0x20\n        /* \"#utility.yul\":11477:11486   */\n      dup3\n        /* \"#utility.yul\":11473:11491   */\n      add\n        /* \"#utility.yul\":11465:11491   */\n      swap1\n      pop\n        /* \"#utility.yul\":11537:11546   */\n      dup2\n        /* \"#utility.yul\":11531:11535   */\n      dup2\n        /* \"#utility.yul\":11527:11547   */\n      sub\n        /* \"#utility.yul\":11523:11524   */\n      0x00\n        /* \"#utility.yul\":11512:11521   */\n      dup4\n        /* \"#utility.yul\":11508:11525   */\n      add\n        /* \"#utility.yul\":11501:11548   */\n      mstore\n        /* \"#utility.yul\":11565:11696   */\n      tag_293\n        /* \"#utility.yul\":11691:11695   */\n      dup2\n        /* \"#utility.yul\":11565:11696   */\n      tag_147\n      jump\t// in\n    tag_293:\n        /* \"#utility.yul\":11557:11696   */\n      swap1\n      pop\n        /* \"#utility.yul\":11284:11703   */\n      swap2\n      swap1\n      pop\n      jump\t// out\n        /* \"#utility.yul\":11709:11889   */\n    tag_148:\n        /* \"#utility.yul\":11849:11881   */\n      0x50617274697461206469204c61747465206e6f6e2070726573656e7465210000\n        /* \"#utility.yul\":11845:11846   */\n      0x00\n        /* \"#utility.yul\":11837:11843   */\n      dup3\n        /* \"#utility.yul\":11833:11847   */\n      add\n        /* \"#utility.yul\":11826:11882   */\n      mstore\n        /* \"#utility.yul\":11709:11889   */\n      pop\n      jump\t// out\n        /* \"#utility.yul\":11895:12261   */\n    tag_149:\n        /* \"#utility.yul\":12037:12040   */\n      0x00\n        /* \"#utility.yul\":12058:12125   */\n      tag_296\n        /* \"#utility.yul\":12122:12124   */\n      0x1e\n        /* \"#utility.yul\":12117:12120   */\n      dup4\n        /* \"#utility.yul\":12058:12125   */\n      tag_130\n      jump\t// in\n    tag_296:\n        /* \"#utility.yul\":12051:12125   */\n      swap2\n      pop\n        /* \"#utility.yul\":12134:12227   */\n      tag_297\n        /* \"#utility.yul\":12223:12226   */\n      dup3\n        /* \"#utility.yul\":12134:12227   */\n      tag_148\n      jump\t// in\n    tag_297:\n        /* \"#utility.yul\":12252:12254   */\n      0x20\n        /* \"#utility.yul\":12247:12250   */\n      dup3\n        /* \"#utility.yul\":12243:12255   */\n      add\n        /* \"#utility.yul\":12236:12255   */\n      swap1\n      pop\n        /* \"#utility.yul\":11895:12261   */\n      swap2\n      swap1\n      pop\n      jump\t// out\n        /* \"#utility.yul\":12267:12686   */\n    tag_86:\n        /* \"#utility.yul\":12433:12437   */\n      0x00\n        /* \"#utility.yul\":12471:12473   */\n      0x20\n        /* \"#utility.yul\":12460:12469   */\n      dup3\n        /* \"#utility.yul\":12456:12474   */\n      add\n        /* \"#utility.yul\":12448:12474   */\n      swap1\n      pop\n        /* \"#utility.yul\":12520:12529   */\n      dup2\n        /* \"#utility.yul\":12514:12518   */\n      dup2\n        /* \"#utility.yul\":12510:12530   */\n      sub\n        /* \"#utility.yul\":12506:12507   */\n      0x00\n        /* \"#utility.yul\":12495:12504   */\n      dup4\n        /* \"#utility.yul\":12491:12508   */\n      add\n        /* \"#utility.yul\":12484:12531   */\n      mstore\n        /* \"#utility.yul\":12548:12679   */\n      tag_299\n        /* \"#utility.yul\":12674:12678   */\n      dup2\n        /* \"#utility.yul\":12548:12679   */\n      tag_149\n      jump\t// in\n    tag_299:\n        /* \"#utility.yul\":12540:12679   */\n      swap1\n      pop\n        /* \"#utility.yul\":12267:12686   */\n      swap2\n      swap1\n      pop\n      jump\t// out\n        /* \"#utility.yul\":12692:12771   */\n    tag_150:\n        /* \"#utility.yul\":12731:12738   */\n      0x00\n        /* \"#utility.yul\":12760:12765   */\n      dup2\n        /* \"#utility.yul\":12749:12765   */\n      swap1\n      pop\n        /* \"#utility.yul\":12692:12771   */\n      swap2\n      swap1\n      pop\n      jump\t// out\n        /* \"#utility.yul\":12777:12934   */\n    tag_151:\n        /* \"#utility.yul\":12882:12927   */\n      tag_302\n        /* \"#utility.yul\":12902:12926   */\n      tag_303\n        /* \"#utility.yul\":12920:12925   */\n      dup3\n        /* \"#utility.yul\":12902:12926   */\n      tag_122\n      jump\t// in\n    tag_303:\n        /* \"#utility.yul\":12882:12927   */\n      tag_150\n      jump\t// in\n    tag_302:\n        /* \"#utility.yul\":12877:12880   */\n      dup3\n        /* \"#utility.yul\":12870:12928   */\n      mstore\n        /* \"#utility.yul\":12777:12934   */\n      pop\n      pop\n      jump\t// out\n        /* \"#utility.yul\":12940:13088   */\n    tag_152:\n        /* \"#utility.yul\":13042:13053   */\n      0x00\n        /* \"#utility.yul\":13079:13082   */\n      dup2\n        /* \"#utility.yul\":13064:13082   */\n      swap1\n      pop\n        /* \"#utility.yul\":12940:13088   */\n      swap3\n      swap2\n      pop\n      pop\n      jump\t// out\n        /* \"#utility.yul\":13094:13484   */\n    tag_153:\n        /* \"#utility.yul\":13200:13203   */\n      0x00\n        /* \"#utility.yul\":13228:13267   */\n      tag_306\n        /* \"#utility.yul\":13261:13266   */\n      dup3\n        /* \"#utility.yul\":13228:13267   */\n      tag_129\n      jump\t// in\n    tag_306:\n        /* \"#utility.yul\":13283:13372   */\n      tag_307\n        /* \"#utility.yul\":13365:13371   */\n      dup2\n        /* \"#utility.yul\":13360:13363   */\n      dup6\n        /* \"#utility.yul\":13283:13372   */\n      tag_152\n      jump\t// in\n    tag_307:\n        /* \"#utility.yul\":13276:13372   */\n      swap4\n      pop\n        /* \"#utility.yul\":13381:13446   */\n      tag_308\n        /* \"#utility.yul\":13439:13445   */\n      dup2\n        /* \"#utility.yul\":13434:13437   */\n      dup6\n        /* \"#utility.yul\":13427:13431   */\n      0x20\n        /* \"#utility.yul\":13420:13425   */\n      dup7\n        /* \"#utility.yul\":13416:13432   */\n      add\n        /* \"#utility.yul\":13381:13446   */\n      tag_131\n      jump\t// in\n    tag_308:\n        /* \"#utility.yul\":13471:13477   */\n      dup1\n        /* \"#utility.yul\":13466:13469   */\n      dup5\n        /* \"#utility.yul\":13462:13478   */\n      add\n        /* \"#utility.yul\":13455:13478   */\n      swap2\n      pop\n        /* \"#utility.yul\":13204:13484   */\n      pop\n        /* \"#utility.yul\":13094:13484   */\n      swap3\n      swap2\n      pop\n      pop\n      jump\t// out\n        /* \"#utility.yul\":13490:13584   */\n    tag_154:\n        /* \"#utility.yul\":13523:13531   */\n      0x00\n        /* \"#utility.yul\":13571:13576   */\n      dup2\n        /* \"#utility.yul\":13567:13569   */\n      0x60\n        /* \"#utility.yul\":13563:13577   */\n      shl\n        /* \"#utility.yul\":13542:13577   */\n      swap1\n      pop\n        /* \"#utility.yul\":13490:13584   */\n      swap2\n      swap1\n      pop\n      jump\t// out\n        /* \"#utility.yul\":13590:13684   */\n    tag_155:\n        /* \"#utility.yul\":13629:13636   */\n      0x00\n        /* \"#utility.yul\":13658:13678   */\n      tag_311\n        /* \"#utility.yul\":13672:13677   */\n      dup3\n        /* \"#utility.yul\":13658:13678   */\n      tag_154\n      jump\t// in\n    tag_311:\n        /* \"#utility.yul\":13647:13678   */\n      swap1\n      pop\n        /* \"#utility.yul\":13590:13684   */\n      swap2\n      swap1\n      pop\n      jump\t// out\n        /* \"#utility.yul\":13690:13790   */\n    tag_156:\n        /* \"#utility.yul\":13729:13736   */\n      0x00\n        /* \"#utility.yul\":13758:13784   */\n      tag_313\n        /* \"#utility.yul\":13778:13783   */\n      dup3\n        /* \"#utility.yul\":13758:13784   */\n      tag_155\n      jump\t// in\n    tag_313:\n        /* \"#utility.yul\":13747:13784   */\n      swap1\n      pop\n        /* \"#utility.yul\":13690:13790   */\n      swap2\n      swap1\n      pop\n      jump\t// out\n        /* \"#utility.yul\":13796:13953   */\n    tag_157:\n        /* \"#utility.yul\":13901:13946   */\n      tag_315\n        /* \"#utility.yul\":13921:13945   */\n      tag_316\n        /* \"#utility.yul\":13939:13944   */\n      dup3\n        /* \"#utility.yul\":13921:13945   */\n      tag_119\n      jump\t// in\n    tag_316:\n        /* \"#utility.yul\":13901:13946   */\n      tag_156\n      jump\t// in\n    tag_315:\n        /* \"#utility.yul\":13896:13899   */\n      dup3\n        /* \"#utility.yul\":13889:13947   */\n      mstore\n        /* \"#utility.yul\":13796:13953   */\n      pop\n      pop\n      jump\t// out\n        /* \"#utility.yul\":13959:14939   */\n    tag_91:\n        /* \"#utility.yul\":14231:14234   */\n      0x00\n        /* \"#utility.yul\":14246:14321   */\n      tag_318\n        /* \"#utility.yul\":14317:14320   */\n      dup3\n        /* \"#utility.yul\":14308:14314   */\n      dup10\n        /* \"#utility.yul\":14246:14321   */\n      tag_151\n      jump\t// in\n    tag_318:\n        /* \"#utility.yul\":14346:14348   */\n      0x20\n        /* \"#utility.yul\":14341:14344   */\n      dup3\n        /* \"#utility.yul\":14337:14349   */\n      add\n        /* \"#utility.yul\":14330:14349   */\n      swap2\n      pop\n        /* \"#utility.yul\":14366:14461   */\n      tag_319\n        /* \"#utility.yul\":14457:14460   */\n      dup3\n        /* \"#utility.yul\":14448:14454   */\n      dup9\n        /* \"#utility.yul\":14366:14461   */\n      tag_153\n      jump\t// in\n    tag_319:\n        /* \"#utility.yul\":14359:14461   */\n      swap2\n      pop\n        /* \"#utility.yul\":14471:14546   */\n      tag_320\n        /* \"#utility.yul\":14542:14545   */\n      dup3\n        /* \"#utility.yul\":14533:14539   */\n      dup8\n        /* \"#utility.yul\":14471:14546   */\n      tag_157\n      jump\t// in\n    tag_320:\n        /* \"#utility.yul\":14571:14573   */\n      0x14\n        /* \"#utility.yul\":14566:14569   */\n      dup3\n        /* \"#utility.yul\":14562:14574   */\n      add\n        /* \"#utility.yul\":14555:14574   */\n      swap2\n      pop\n        /* \"#utility.yul\":14584:14659   */\n      tag_321\n        /* \"#utility.yul\":14655:14658   */\n      dup3\n        /* \"#utility.yul\":14646:14652   */\n      dup7\n        /* \"#utility.yul\":14584:14659   */\n      tag_157\n      jump\t// in\n    tag_321:\n        /* \"#utility.yul\":14684:14686   */\n      0x14\n        /* \"#utility.yul\":14679:14682   */\n      dup3\n        /* \"#utility.yul\":14675:14687   */\n      add\n        /* \"#utility.yul\":14668:14687   */\n      swap2\n      pop\n        /* \"#utility.yul\":14697:14772   */\n      tag_322\n        /* \"#utility.yul\":14768:14771   */\n      dup3\n        /* \"#utility.yul\":14759:14765   */\n      dup6\n        /* \"#utility.yul\":14697:14772   */\n      tag_151\n      jump\t// in\n    tag_322:\n        /* \"#utility.yul\":14797:14799   */\n      0x20\n        /* \"#utility.yul\":14792:14795   */\n      dup3\n        /* \"#utility.yul\":14788:14800   */\n      add\n        /* \"#utility.yul\":14781:14800   */\n      swap2\n      pop\n        /* \"#utility.yul\":14810:14885   */\n      tag_323\n        /* \"#utility.yul\":14881:14884   */\n      dup3\n        /* \"#utility.yul\":14872:14878   */\n      dup5\n        /* \"#utility.yul\":14810:14885   */\n      tag_151\n      jump\t// in\n    tag_323:\n        /* \"#utility.yul\":14910:14912   */\n      0x20\n        /* \"#utility.yul\":14905:14908   */\n      dup3\n        /* \"#utility.yul\":14901:14913   */\n      add\n        /* \"#utility.yul\":14894:14913   */\n      swap2\n      pop\n        /* \"#utility.yul\":14930:14933   */\n      dup2\n        /* \"#utility.yul\":14923:14933   */\n      swap1\n      pop\n        /* \"#utility.yul\":13959:14939   */\n      swap8\n      swap7\n      pop\n      pop\n      pop\n      pop\n      pop\n      pop\n      pop\n      jump\t// out\n        /* \"#utility.yul\":14945:15126   */\n    tag_158:\n        /* \"#utility.yul\":15085:15118   */\n      0x50617274697461206469204c6174746520676961272070726573656e74652100\n        /* \"#utility.yul\":15081:15082   */\n      0x00\n        /* \"#utility.yul\":15073:15079   */\n      dup3\n        /* \"#utility.yul\":15069:15083   */\n      add\n        /* \"#utility.yul\":15062:15119   */\n      mstore\n        /* \"#utility.yul\":14945:15126   */\n      pop\n      jump\t// out\n        /* \"#utility.yul\":15132:15498   */\n    tag_159:\n        /* \"#utility.yul\":15274:15277   */\n      0x00\n        /* \"#utility.yul\":15295:15362   */\n      tag_326\n        /* \"#utility.yul\":15359:15361   */\n      0x1f\n        /* \"#utility.yul\":15354:15357   */\n      dup4\n        /* \"#utility.yul\":15295:15362   */\n      tag_130\n      jump\t// in\n    tag_326:\n        /* \"#utility.yul\":15288:15362   */\n      swap2\n      pop\n        /* \"#utility.yul\":15371:15464   */\n      tag_327\n        /* \"#utility.yul\":15460:15463   */\n      dup3\n        /* \"#utility.yul\":15371:15464   */\n      tag_158\n      jump\t// in\n    tag_327:\n        /* \"#utility.yul\":15489:15491   */\n      0x20\n        /* \"#utility.yul\":15484:15487   */\n      dup3\n        /* \"#utility.yul\":15480:15492   */\n      add\n        /* \"#utility.yul\":15473:15492   */\n      swap1\n      pop\n        /* \"#utility.yul\":15132:15498   */\n      swap2\n      swap1\n      pop\n      jump\t// out\n        /* \"#utility.yul\":15504:15923   */\n    tag_94:\n        /* \"#utility.yul\":15670:15674   */\n      0x00\n        /* \"#utility.yul\":15708:15710   */\n      0x20\n        /* \"#utility.yul\":15697:15706   */\n      dup3\n        /* \"#utility.yul\":15693:15711   */\n      add\n        /* \"#utility.yul\":15685:15711   */\n      swap1\n      pop\n        /* \"#utility.yul\":15757:15766   */\n      dup2\n        /* \"#utility.yul\":15751:15755   */\n      dup2\n        /* \"#utility.yul\":15747:15767   */\n      sub\n        /* \"#utility.yul\":15743:15744   */\n      0x00\n        /* \"#utility.yul\":15732:15741   */\n      dup4\n        /* \"#utility.yul\":15728:15745   */\n      add\n        /* \"#utility.yul\":15721:15768   */\n      mstore\n        /* \"#utility.yul\":15785:15916   */\n      tag_329\n        /* \"#utility.yul\":15911:15915   */\n      dup2\n        /* \"#utility.yul\":15785:15916   */\n      tag_159\n      jump\t// in\n    tag_329:\n        /* \"#utility.yul\":15777:15916   */\n      swap1\n      pop\n        /* \"#utility.yul\":15504:15923   */\n      swap2\n      swap1\n      pop\n      jump\t// out\n        /* \"#utility.yul\":15929:16070   */\n    tag_160:\n        /* \"#utility.yul\":15978:15982   */\n      0x00\n        /* \"#utility.yul\":16001:16004   */\n      dup2\n        /* \"#utility.yul\":15993:16004   */\n      swap1\n      pop\n        /* \"#utility.yul\":16024:16027   */\n      dup2\n        /* \"#utility.yul\":16021:16022   */\n      0x00\n        /* \"#utility.yul\":16014:16028   */\n      mstore\n        /* \"#utility.yul\":16058:16062   */\n      0x20\n        /* \"#utility.yul\":16055:16056   */\n      0x00\n        /* \"#utility.yul\":16045:16063   */\n      keccak256\n        /* \"#utility.yul\":16037:16063   */\n      swap1\n      pop\n        /* \"#utility.yul\":15929:16070   */\n      swap2\n      swap1\n      pop\n      jump\t// out\n        /* \"#utility.yul\":16076:16169   */\n    tag_161:\n        /* \"#utility.yul\":16113:16119   */\n      0x00\n        /* \"#utility.yul\":16160:16162   */\n      0x20\n        /* \"#utility.yul\":16155:16157   */\n      0x1f\n        /* \"#utility.yul\":16148:16153   */\n      dup4\n        /* \"#utility.yul\":16144:16158   */\n      add\n        /* \"#utility.yul\":16140:16163   */\n      div\n        /* \"#utility.yul\":16130:16163   */\n      swap1\n      pop\n        /* \"#utility.yul\":16076:16169   */\n      swap2\n      swap1\n      pop\n      jump\t// out\n        /* \"#utility.yul\":16175:16282   */\n    tag_162:\n        /* \"#utility.yul\":16219:16227   */\n      0x00\n        /* \"#utility.yul\":16269:16274   */\n      dup3\n        /* \"#utility.yul\":16263:16267   */\n      dup3\n        /* \"#utility.yul\":16259:16275   */\n      shl\n        /* \"#utility.yul\":16238:16275   */\n      swap1\n      pop\n        /* \"#utility.yul\":16175:16282   */\n      swap3\n      swap2\n      pop\n      pop\n      jump\t// out\n        /* \"#utility.yul\":16288:16681   */\n    tag_163:\n        /* \"#utility.yul\":16357:16363   */\n      0x00\n        /* \"#utility.yul\":16407:16408   */\n      0x08\n        /* \"#utility.yul\":16395:16405   */\n      dup4\n        /* \"#utility.yul\":16391:16409   */\n      mul\n        /* \"#utility.yul\":16430:16527   */\n      tag_334\n        /* \"#utility.yul\":16460:16526   */\n      0xffffffffffffffffffffffffffffffffffffffffffffffffffffffffffffffff\n        /* \"#utility.yul\":16449:16458   */\n      dup3\n        /* \"#utility.yul\":16430:16527   */\n      tag_162\n      jump\t// in\n    tag_334:\n        /* \"#utility.yul\":16548:16587   */\n      tag_335\n        /* \"#utility.yul\":16578:16586   */\n      dup7\n        /* \"#utility.yul\":16567:16576   */\n      dup4\n        /* \"#utility.yul\":16548:16587   */\n      tag_162\n      jump\t// in\n    tag_335:\n        /* \"#utility.yul\":16536:16587   */\n      swap6\n      pop\n        /* \"#utility.yul\":16620:16624   */\n      dup1\n        /* \"#utility.yul\":16616:16625   */\n      not\n        /* \"#utility.yul\":16609:16614   */\n      dup5\n        /* \"#utility.yul\":16605:16626   */\n      and\n        /* \"#utility.yul\":16596:16626   */\n      swap4\n      pop\n        /* \"#utility.yul\":16669:16673   */\n      dup1\n        /* \"#utility.yul\":16659:16667   */\n      dup7\n        /* \"#utility.yul\":16655:16674   */\n      and\n        /* \"#utility.yul\":16648:16653   */\n      dup5\n        /* \"#utility.yul\":16645:16675   */\n      or\n        /* \"#utility.yul\":16635:16675   */\n      swap3\n      pop\n        /* \"#utility.yul\":16364:16681   */\n      pop\n      pop\n        /* \"#utility.yul\":16288:16681   */\n      swap4\n      swap3\n      pop\n      pop\n      pop\n      jump\t// out\n        /* \"#utility.yul\":16687:16747   */\n    tag_164:\n        /* \"#utility.yul\":16715:16718   */\n      0x00\n        /* \"#utility.yul\":16736:16741   */\n      dup2\n        /* \"#utility.yul\":16729:16741   */\n      swap1\n      pop\n        /* \"#utility.yul\":16687:16747   */\n      swap2\n      swap1\n      pop\n      jump\t// out\n        /* \"#utility.yul\":16753:16895   */\n    tag_165:\n        /* \"#utility.yul\":16803:16812   */\n      0x00\n        /* \"#utility.yul\":16836:16889   */\n      tag_338\n        /* \"#utility.yul\":16854:16888   */\n      tag_339\n        /* \"#utility.yul\":16863:16887   */\n      tag_340\n        /* \"#utility.yul\":16881:16886   */\n      dup5\n        /* \"#utility.yul\":16863:16887   */\n      tag_122\n      jump\t// in\n    tag_340:\n        /* \"#utility.yul\":16854:16888   */\n      tag_164\n      jump\t// in\n    tag_339:\n        /* \"#utility.yul\":16836:16889   */\n      tag_122\n      jump\t// in\n    tag_338:\n        /* \"#utility.yul\":16823:16889   */\n      swap1\n      pop\n        /* \"#utility.yul\":16753:16895   */\n      swap2\n      swap1\n      pop\n      jump\t// out\n        /* \"#utility.yul\":16901:16976   */\n    tag_166:\n        /* \"#utility.yul\":16944:16947   */\n      0x00\n        /* \"#utility.yul\":16965:16970   */\n      dup2\n        /* \"#utility.yul\":16958:16970   */\n      swap1\n      pop\n        /* \"#utility.yul\":16901:16976   */\n      swap2\n      swap1\n      pop\n      jump\t// out\n        /* \"#utility.yul\":16982:17251   */\n    tag_167:\n        /* \"#utility.yul\":17092:17131   */\n      tag_343\n        /* \"#utility.yul\":17123:17130   */\n      dup4\n        /* \"#utility.yul\":17092:17131   */\n      tag_165\n      jump\t// in\n    tag_343:\n        /* \"#utility.yul\":17153:17244   */\n      tag_344\n        /* \"#utility.yul\":17202:17243   */\n      tag_345\n        /* \"#utility.yul\":17226:17242   */\n      dup3\n        /* \"#utility.yul\":17202:17243   */\n      tag_166\n      jump\t// in\n    tag_345:\n        /* \"#utility.yul\":17194:17200   */\n      dup5\n        /* \"#utility.yul\":17187:17191   */\n      dup5\n        /* \"#utility.yul\":17181:17192   */\n      sload\n        /* \"#utility.yul\":17153:17244   */\n      tag_163\n      jump\t// in\n    tag_344:\n        /* \"#utility.yul\":17147:17151   */\n      dup3\n        /* \"#utility.yul\":17140:17245   */\n      sstore\n        /* \"#utility.yul\":17058:17251   */\n      pop\n        /* \"#utility.yul\":16982:17251   */\n      pop\n      pop\n      pop\n      jump\t// out\n        /* \"#utility.yul\":17257:17330   */\n    tag_168:\n        /* \"#utility.yul\":17302:17305   */\n      0x00\n        /* \"#utility.yul\":17257:17330   */\n      swap1\n      jump\t// out\n        /* \"#utility.yul\":17336:17525   */\n    tag_169:\n        /* \"#utility.yul\":17413:17445   */\n      tag_348\n      tag_168\n      jump\t// in\n    tag_348:\n        /* \"#utility.yul\":17454:17519   */\n      tag_349\n        /* \"#utility.yul\":17512:17518   */\n      dup2\n        /* \"#utility.yul\":17504:17510   */\n      dup5\n        /* \"#utility.yul\":17498:17502   */\n      dup5\n        /* \"#utility.yul\":17454:17519   */\n      tag_167\n      jump\t// in\n    tag_349:\n        /* \"#utility.yul\":17389:17525   */\n      pop\n        /* \"#utility.yul\":17336:17525   */\n      pop\n      pop\n      jump\t// out\n        /* \"#utility.yul\":17531:17717   */\n    tag_170:\n        /* \"#utility.yul\":17591:17711   */\n    tag_351:\n        /* \"#utility.yul\":17608:17611   */\n      dup2\n        /* \"#utility.yul\":17601:17606   */\n      dup2\n        /* \"#utility.yul\":17598:17612   */\n      lt\n        /* \"#utility.yul\":17591:17711   */\n      iszero\n      tag_353\n      jumpi\n        /* \"#utility.yul\":17662:17701   */\n      tag_354\n        /* \"#utility.yul\":17699:17700   */\n      0x00\n        /* \"#utility.yul\":17692:17697   */\n      dup3\n        /* \"#utility.yul\":17662:17701   */\n      tag_169\n      jump\t// in\n    tag_354:\n        /* \"#utility.yul\":17635:17636   */\n      0x01\n        /* \"#utility.yul\":17628:17633   */\n      dup2\n        /* \"#utility.yul\":17624:17637   */\n      add\n        /* \"#utility.yul\":17615:17637   */\n      swap1\n      pop\n        /* \"#utility.yul\":17591:17711   */\n      jump(tag_351)\n    tag_353:\n        /* \"#utility.yul\":17531:17717   */\n      pop\n      pop\n      jump\t// out\n        /* \"#utility.yul\":17723:18266   */\n    tag_171:\n        /* \"#utility.yul\":17824:17826   */\n      0x1f\n        /* \"#utility.yul\":17819:17822   */\n      dup3\n        /* \"#utility.yul\":17816:17827   */\n      gt\n        /* \"#utility.yul\":17813:18259   */\n      iszero\n      tag_356\n      jumpi\n        /* \"#utility.yul\":17858:17896   */\n      tag_357\n        /* \"#utility.yul\":17890:17895   */\n      dup2\n        /* \"#utility.yul\":17858:17896   */\n      tag_160\n      jump\t// in\n    tag_357:\n        /* \"#utility.yul\":17942:17971   */\n      tag_358\n        /* \"#utility.yul\":17960:17970   */\n      dup5\n        /* \"#utility.yul\":17942:17971   */\n      tag_161\n      jump\t// in\n    tag_358:\n        /* \"#utility.yul\":17932:17940   */\n      dup2\n        /* \"#utility.yul\":17928:17972   */\n      add\n        /* \"#utility.yul\":18125:18127   */\n      0x20\n        /* \"#utility.yul\":18113:18123   */\n      dup6\n        /* \"#utility.yul\":18110:18128   */\n      lt\n        /* \"#utility.yul\":18107:18156   */\n      iszero\n      tag_359\n      jumpi\n        /* \"#utility.yul\":18146:18154   */\n      dup2\n        /* \"#utility.yul\":18131:18154   */\n      swap1\n      pop\n        /* \"#utility.yul\":18107:18156   */\n    tag_359:\n        /* \"#utility.yul\":18169:18249   */\n      tag_360\n        /* \"#utility.yul\":18225:18247   */\n      tag_361\n        /* \"#utility.yul\":18243:18246   */\n      dup6\n        /* \"#utility.yul\":18225:18247   */\n      tag_161\n      jump\t// in\n    tag_361:\n        /* \"#utility.yul\":18215:18223   */\n      dup4\n        /* \"#utility.yul\":18211:18248   */\n      add\n        /* \"#utility.yul\":18198:18209   */\n      dup3\n        /* \"#utility.yul\":18169:18249   */\n      tag_170\n      jump\t// in\n    tag_360:\n        /* \"#utility.yul\":17828:18259   */\n      pop\n      pop\n        /* \"#utility.yul\":17813:18259   */\n    tag_356:\n        /* \"#utility.yul\":17723:18266   */\n      pop\n      pop\n      pop\n      jump\t// out\n        /* \"#utility.yul\":18272:18389   */\n    tag_172:\n        /* \"#utility.yul\":18326:18334   */\n      0x00\n        /* \"#utility.yul\":18376:18381   */\n      dup3\n        /* \"#utility.yul\":18370:18374   */\n      dup3\n        /* \"#utility.yul\":18366:18382   */\n      shr\n        /* \"#utility.yul\":18345:18382   */\n      swap1\n      pop\n        /* \"#utility.yul\":18272:18389   */\n      swap3\n      swap2\n      pop\n      pop\n      jump\t// out\n        /* \"#utility.yul\":18395:18564   */\n    tag_173:\n        /* \"#utility.yul\":18439:18445   */\n      0x00\n        /* \"#utility.yul\":18472:18523   */\n      tag_364\n        /* \"#utility.yul\":18520:18521   */\n      0x00\n        /* \"#utility.yul\":18516:18522   */\n      not\n        /* \"#utility.yul\":18508:18513   */\n      dup5\n        /* \"#utility.yul\":18505:18506   */\n      0x08\n        /* \"#utility.yul\":18501:18514   */\n      mul\n        /* \"#utility.yul\":18472:18523   */\n      tag_172\n      jump\t// in\n    tag_364:\n        /* \"#utility.yul\":18468:18524   */\n      not\n        /* \"#utility.yul\":18553:18557   */\n      dup1\n        /* \"#utility.yul\":18547:18551   */\n      dup4\n        /* \"#utility.yul\":18543:18558   */\n      and\n        /* \"#utility.yul\":18533:18558   */\n      swap2\n      pop\n        /* \"#utility.yul\":18446:18564   */\n      pop\n        /* \"#utility.yul\":18395:18564   */\n      swap3\n      swap2\n      pop\n      pop\n      jump\t// out\n        /* \"#utility.yul\":18569:18864   */\n    tag_174:\n        /* \"#utility.yul\":18645:18649   */\n      0x00\n        /* \"#utility.yul\":18791:18820   */\n      tag_366\n        /* \"#utility.yul\":18816:18819   */\n      dup4\n        /* \"#utility.yul\":18810:18814   */\n      dup4\n        /* \"#utility.yul\":18791:18820   */\n      tag_173\n      jump\t// in\n    tag_366:\n        /* \"#utility.yul\":18783:18820   */\n      swap2\n      pop\n        /* \"#utility.yul\":18853:18856   */\n      dup3\n        /* \"#utility.yul\":18850:18851   */\n      0x02\n        /* \"#utility.yul\":18846:18857   */\n      mul\n        /* \"#utility.yul\":18840:18844   */\n      dup3\n        /* \"#utility.yul\":18837:18858   */\n      or\n        /* \"#utility.yul\":18829:18858   */\n      swap1\n      pop\n        /* \"#utility.yul\":18569:18864   */\n      swap3\n      swap2\n      pop\n      pop\n      jump\t// out\n        /* \"#utility.yul\":18869:20264   */\n    tag_96:\n        /* \"#utility.yul\":18986:19023   */\n      tag_368\n        /* \"#utility.yul\":19019:19022   */\n      dup3\n        /* \"#utility.yul\":18986:19023   */\n      tag_129\n      jump\t// in\n    tag_368:\n        /* \"#utility.yul\":19088:19106   */\n      0xffffffffffffffff\n        /* \"#utility.yul\":19080:19086   */\n      dup2\n        /* \"#utility.yul\":19077:19107   */\n      gt\n        /* \"#utility.yul\":19074:19130   */\n      iszero\n      tag_369\n      jumpi\n        /* \"#utility.yul\":19110:19128   */\n      tag_370\n      tag_136\n      jump\t// in\n    tag_370:\n        /* \"#utility.yul\":19074:19130   */\n    tag_369:\n        /* \"#utility.yul\":19154:19192   */\n      tag_371\n        /* \"#utility.yul\":19186:19190   */\n      dup3\n        /* \"#utility.yul\":19180:19191   */\n      sload\n        /* \"#utility.yul\":19154:19192   */\n      tag_68\n      jump\t// in\n    tag_371:\n        /* \"#utility.yul\":19239:19306   */\n      tag_372\n        /* \"#utility.yul\":19299:19305   */\n      dup3\n        /* \"#utility.yul\":19291:19297   */\n      dup3\n        /* \"#utility.yul\":19285:19289   */\n      dup6\n        /* \"#utility.yul\":19239:19306   */\n      tag_171\n      jump\t// in\n    tag_372:\n        /* \"#utility.yul\":19333:19334   */\n      0x00\n        /* \"#utility.yul\":19357:19361   */\n      0x20\n        /* \"#utility.yul\":19344:19361   */\n      swap1\n      pop\n        /* \"#utility.yul\":19389:19391   */\n      0x1f\n        /* \"#utility.yul\":19381:19387   */\n      dup4\n        /* \"#utility.yul\":19378:19392   */\n      gt\n        /* \"#utility.yul\":19406:19407   */\n      0x01\n        /* \"#utility.yul\":19401:20019   */\n      dup2\n      eq\n      tag_374\n      jumpi\n        /* \"#utility.yul\":20063:20064   */\n      0x00\n        /* \"#utility.yul\":20080:20086   */\n      dup5\n        /* \"#utility.yul\":20077:20154   */\n      iszero\n      tag_375\n      jumpi\n        /* \"#utility.yul\":20129:20138   */\n      dup3\n        /* \"#utility.yul\":20124:20127   */\n      dup8\n        /* \"#utility.yul\":20120:20139   */\n      add\n        /* \"#utility.yul\":20114:20140   */\n      mload\n        /* \"#utility.yul\":20105:20140   */\n      swap1\n      pop\n        /* \"#utility.yul\":20077:20154   */\n    tag_375:\n        /* \"#utility.yul\":20180:20247   */\n      tag_376\n        /* \"#utility.yul\":20240:20246   */\n      dup6\n        /* \"#utility.yul\":20233:20238   */\n      dup3\n        /* \"#utility.yul\":20180:20247   */\n      tag_174\n      jump\t// in\n    tag_376:\n        /* \"#utility.yul\":20174:20178   */\n      dup7\n        /* \"#utility.yul\":20167:20248   */\n      sstore\n        /* \"#utility.yul\":20036:20258   */\n      pop\n        /* \"#utility.yul\":19371:20258   */\n      jump(tag_373)\n        /* \"#utility.yul\":19401:20019   */\n    tag_374:\n        /* \"#utility.yul\":19453:19457   */\n      0x1f\n        /* \"#utility.yul\":19449:19458   */\n      not\n        /* \"#utility.yul\":19441:19447   */\n      dup5\n        /* \"#utility.yul\":19437:19459   */\n      and\n        /* \"#utility.yul\":19487:19524   */\n      tag_377\n        /* \"#utility.yul\":19519:19523   */\n      dup7\n        /* \"#utility.yul\":19487:19524   */\n      tag_160\n      jump\t// in\n    tag_377:\n        /* \"#utility.yul\":19546:19547   */\n      0x00\n        /* \"#utility.yul\":19560:19768   */\n    tag_378:\n        /* \"#utility.yul\":19574:19581   */\n      dup3\n        /* \"#utility.yul\":19571:19572   */\n      dup2\n        /* \"#utility.yul\":19568:19582   */\n      lt\n        /* \"#utility.yul\":19560:19768   */\n      iszero\n      tag_380\n      jumpi\n        /* \"#utility.yul\":19653:19662   */\n      dup5\n        /* \"#utility.yul\":19648:19651   */\n      dup10\n        /* \"#utility.yul\":19644:19663   */\n      add\n        /* \"#utility.yul\":19638:19664   */\n      mload\n        /* \"#utility.yul\":19630:19636   */\n      dup3\n        /* \"#utility.yul\":19623:19665   */\n      sstore\n        /* \"#utility.yul\":19704:19705   */\n      0x01\n        /* \"#utility.yul\":19696:19702   */\n      dup3\n        /* \"#utility.yul\":19692:19706   */\n      add\n        /* \"#utility.yul\":19682:19706   */\n      swap2\n      pop\n        /* \"#utility.yul\":19751:19753   */\n      0x20\n        /* \"#utility.yul\":19740:19749   */\n      dup6\n        /* \"#utility.yul\":19736:19754   */\n      add\n        /* \"#utility.yul\":19723:19754   */\n      swap5\n      pop\n        /* \"#utility.yul\":19597:19601   */\n      0x20\n        /* \"#utility.yul\":19594:19595   */\n      dup2\n        /* \"#utility.yul\":19590:19602   */\n      add\n        /* \"#utility.yul\":19585:19602   */\n      swap1\n      pop\n        /* \"#utility.yul\":19560:19768   */\n      jump(tag_378)\n    tag_380:\n        /* \"#utility.yul\":19796:19802   */\n      dup7\n        /* \"#utility.yul\":19787:19794   */\n      dup4\n        /* \"#utility.yul\":19784:19803   */\n      lt\n        /* \"#utility.yul\":19781:19960   */\n      iszero\n      tag_381\n      jumpi\n        /* \"#utility.yul\":19854:19863   */\n      dup5\n        /* \"#utility.yul\":19849:19852   */\n      dup10\n        /* \"#utility.yul\":19845:19864   */\n      add\n        /* \"#utility.yul\":19839:19865   */\n      mload\n        /* \"#utility.yul\":19897:19945   */\n      tag_382\n        /* \"#utility.yul\":19939:19943   */\n      0x1f\n        /* \"#utility.yul\":19931:19937   */\n      dup10\n        /* \"#utility.yul\":19927:19944   */\n      and\n        /* \"#utility.yul\":19916:19925   */\n      dup3\n        /* \"#utility.yul\":19897:19945   */\n      tag_173\n      jump\t// in\n    tag_382:\n        /* \"#utility.yul\":19889:19895   */\n      dup4\n        /* \"#utility.yul\":19882:19946   */\n      sstore\n        /* \"#utility.yul\":19804:19960   */\n      pop\n        /* \"#utility.yul\":19781:19960   */\n    tag_381:\n        /* \"#utility.yul\":20006:20007   */\n      0x01\n        /* \"#utility.yul\":20002:20003   */\n      0x02\n        /* \"#utility.yul\":19994:20000   */\n      dup9\n        /* \"#utility.yul\":19990:20004   */\n      mul\n        /* \"#utility.yul\":19986:20008   */\n      add\n        /* \"#utility.yul\":19980:19984   */\n      dup9\n        /* \"#utility.yul\":19973:20009   */\n      sstore\n        /* \"#utility.yul\":19408:20019   */\n      pop\n      pop\n      pop\n        /* \"#utility.yul\":19371:20258   */\n    tag_373:\n      pop\n        /* \"#utility.yul\":18961:20264   */\n      pop\n      pop\n      pop\n        /* \"#utility.yul\":18869:20264   */\n      pop\n      pop\n      jump\t// out\n        /* \"#utility.yul\":20270:20440   */\n    tag_175:\n        /* \"#utility.yul\":20410:20432   */\n      0x494420436865657365204e6f742056616c696421000000000000000000000000\n        /* \"#utility.yul\":20406:20407   */\n      0x00\n        /* \"#utility.yul\":20398:20404   */\n      dup3\n        /* \"#utility.yul\":20394:20408   */\n      add\n        /* \"#utility.yul\":20387:20433   */\n      mstore\n        /* \"#utility.yul\":20270:20440   */\n      pop\n      jump\t// out\n        /* \"#utility.yul\":20446:20812   */\n    tag_176:\n        /* \"#utility.yul\":20588:20591   */\n      0x00\n        /* \"#utility.yul\":20609:20676   */\n      tag_385\n        /* \"#utility.yul\":20673:20675   */\n      0x14\n        /* \"#utility.yul\":20668:20671   */\n      dup4\n        /* \"#utility.yul\":20609:20676   */\n      tag_130\n      jump\t// in\n    tag_385:\n        /* \"#utility.yul\":20602:20676   */\n      swap2\n      pop\n        /* \"#utility.yul\":20685:20778   */\n      tag_386\n        /* \"#utility.yul\":20774:20777   */\n      dup3\n        /* \"#utility.yul\":20685:20778   */\n      tag_175\n      jump\t// in\n    tag_386:\n        /* \"#utility.yul\":20803:20805   */\n      0x20\n        /* \"#utility.yul\":20798:20801   */\n      dup3\n        /* \"#utility.yul\":20794:20806   */\n      add\n        /* \"#utility.yul\":20787:20806   */\n      swap1\n      pop\n        /* \"#utility.yul\":20446:20812   */\n      swap2\n      swap1\n      pop\n      jump\t// out\n        /* \"#utility.yul\":20818:21237   */\n    tag_108:\n        /* \"#utility.yul\":20984:20988   */\n      0x00\n        /* \"#utility.yul\":21022:21024   */\n      0x20\n        /* \"#utility.yul\":21011:21020   */\n      dup3\n        /* \"#utility.yul\":21007:21025   */\n      add\n        /* \"#utility.yul\":20999:21025   */\n      swap1\n      pop\n        /* \"#utility.yul\":21071:21080   */\n      dup2\n        /* \"#utility.yul\":21065:21069   */\n      dup2\n        /* \"#utility.yul\":21061:21081   */\n      sub\n        /* \"#utility.yul\":21057:21058   */\n      0x00\n        /* \"#utility.yul\":21046:21055   */\n      dup4\n        /* \"#utility.yul\":21042:21059   */\n      add\n        /* \"#utility.yul\":21035:21082   */\n      mstore\n        /* \"#utility.yul\":21099:21230   */\n      tag_388\n        /* \"#utility.yul\":21225:21229   */\n      dup2\n        /* \"#utility.yul\":21099:21230   */\n      tag_176\n      jump\t// in\n    tag_388:\n        /* \"#utility.yul\":21091:21230   */\n      swap1\n      pop\n        /* \"#utility.yul\":20818:21237   */\n      swap2\n      swap1\n      pop\n      jump\t// out\n\n    auxdata: 0xa2646970667358221220889d305c45478360c6f775e98337025979047103b019a668aa15d6ef6e6924c164736f6c63430008160033\n}\n",
				"bytecode": {
					"linkReferences": {},
					"object": "608060405234801561000f575f80fd5b50335f806101000a81548173ffffffffffffffffffffffffffffffffffffffff021916908373ffffffffffffffffffffffffffffffffffffffff1602179055506118c78061005c5f395ff3fe608060405234801561000f575f80fd5b506004361061009c575f3560e01c80638b3c04ce116100645780638b3c04ce1461017f578063c5d3e11d146101b1578063cc231726146101e1578063cfa41ed014610211578063f93bd021146102415761009c565b80630803da24146100a05780631e073fcf146100d0578063453ecf04146101005780636fb82e061461011c5780637745770a1461014f575b5f80fd5b6100ba60048036038101906100b59190610e90565b610271565b6040516100c79190610efa565b60405180910390f35b6100ea60048036038101906100e59190610f13565b610314565b6040516100f79190610f60565b60405180910390f35b61011a60048036038101906101159190610e90565b61047f565b005b61013660048036038101906101319190610f13565b61056a565b6040516101469493929190611012565b60405180910390f35b61016960048036038101906101649190610e90565b6106f0565b6040516101769190610efa565b60405180910390f35b61019960048036038101906101949190611188565b610823565b6040516101a89392919061121b565b60405180910390f35b6101cb60048036038101906101c69190610f13565b610a1b565b6040516101d89190610f60565b60405180910390f35b6101fb60048036038101906101f69190610f13565b610a73565b6040516102089190611257565b60405180910390f35b61022b60048036038101906102269190610f13565b610bde565b6040516102389190610efa565b60405180910390f35b61025b60048036038101906102569190610f13565b610c86565b6040516102689190611270565b60405180910390f35b5f8060015f8673ffffffffffffffffffffffffffffffffffffffff1673ffffffffffffffffffffffffffffffffffffffff1681526020019081526020015f205f8581526020019081526020015f2090508281600401541015610308576040517f08c379a00000000000000000000000000000000000000000000000000000000081526004016102ff906112da565b60405180910390fd5b60019150509392505050565b5f8060015f8573ffffffffffffffffffffffffffffffffffffffff1673ffffffffffffffffffffffffffffffffffffffff1681526020019081526020015f205f8481526020019081526020015f206040518060a00160405290815f820154815260200160018201548152602001600282015f9054906101000a900473ffffffffffffffffffffffffffffffffffffffff1673ffffffffffffffffffffffffffffffffffffffff1673ffffffffffffffffffffffffffffffffffffffff1681526020016003820180546103e590611325565b80601f016020809104026020016040519081016040528092919081815260200182805461041190611325565b801561045c5780601f106104335761010080835404028352916020019161045c565b820191905f5260205f20905b81548152906001019060200180831161043f57829003601f168201915b505050505081526020016004820154815250509050806080015191505092915050565b60015f8473ffffffffffffffffffffffffffffffffffffffff1673ffffffffffffffffffffffffffffffffffffffff1681526020019081526020015f205f8381526020019081526020015f2060040154811115610511576040517f08c379a0000000000000000000000000000000000000000000000000000000008152600401610508906113c5565b60405180910390fd5b8060015f8573ffffffffffffffffffffffffffffffffffffffff1673ffffffffffffffffffffffffffffffffffffffff1681526020019081526020015f205f8481526020019081526020015f2060040181905550505050565b5f8060605f8060015f8873ffffffffffffffffffffffffffffffffffffffff1673ffffffffffffffffffffffffffffffffffffffff1681526020019081526020015f205f8781526020019081526020015f206040518060a00160405290815f820154815260200160018201548152602001600282015f9054906101000a900473ffffffffffffffffffffffffffffffffffffffff1673ffffffffffffffffffffffffffffffffffffffff1673ffffffffffffffffffffffffffffffffffffffff16815260200160038201805461063f90611325565b80601f016020809104026020016040519081016040528092919081815260200182805461066b90611325565b80156106b65780601f1061068d576101008083540402835291602001916106b6565b820191905f5260205f20905b81548152906001019060200180831161069957829003601f168201915b505050505081526020016004820154815250509050805f015181604001518260600151836080015194509450945094505092959194509250565b5f8260015f8673ffffffffffffffffffffffffffffffffffffffff1673ffffffffffffffffffffffffffffffffffffffff1681526020019081526020015f205f8581526020019081526020015f205f015414610781576040517f08c379a00000000000000000000000000000000000000000000000000000000081526004016107789061142d565b60405180910390fd5b5f60015f8673ffffffffffffffffffffffffffffffffffffffff1673ffffffffffffffffffffffffffffffffffffffff1681526020019081526020015f205f8581526020019081526020015f2090508281600401541015610817576040517f08c379a000000000000000000000000000000000000000000000000000000000815260040161080e906112da565b60405180910390fd5b60019150509392505050565b5f60605f8084868a8a8a42604051602001610843969594939291906114ea565b604051602081830303815290604052805190602001205f1c90505f60015f8b73ffffffffffffffffffffffffffffffffffffffff1673ffffffffffffffffffffffffffffffffffffffff1681526020019081526020015f205f8381526020019081526020015f2090505f815f0154146108f1576040517f08c379a00000000000000000000000000000000000000000000000000000000081526004016108e89061159f565b60405180910390fd5b5f6040518060a001604052808481526020018a81526020018b73ffffffffffffffffffffffffffffffffffffffff1681526020018981526020018881525090508060015f8c73ffffffffffffffffffffffffffffffffffffffff1673ffffffffffffffffffffffffffffffffffffffff1681526020019081526020015f205f8581526020019081526020015f205f820151815f0155602082015181600101556040820151816002015f6101000a81548173ffffffffffffffffffffffffffffffffffffffff021916908373ffffffffffffffffffffffffffffffffffffffff16021790555060608201518160030190816109eb919061175a565b5060808201518160040155905050805f015181606001518260800151955095509550505050955095509592505050565b5f60015f8473ffffffffffffffffffffffffffffffffffffffff1673ffffffffffffffffffffffffffffffffffffffff1681526020019081526020015f205f8381526020019081526020015f205f0154905092915050565b5f8060015f8573ffffffffffffffffffffffffffffffffffffffff1673ffffffffffffffffffffffffffffffffffffffff1681526020019081526020015f205f8481526020019081526020015f206040518060a00160405290815f820154815260200160018201548152602001600282015f9054906101000a900473ffffffffffffffffffffffffffffffffffffffff1673ffffffffffffffffffffffffffffffffffffffff1673ffffffffffffffffffffffffffffffffffffffff168152602001600382018054610b4490611325565b80601f0160208091040260200160405190810160405280929190818152602001828054610b7090611325565b8015610bbb5780601f10610b9257610100808354040283529160200191610bbb565b820191905f5260205f20905b815481529060010190602001808311610b9e57829003601f168201915b505050505081526020016004820154815250509050806040015191505092915050565b5f808214158015610bee57505f82115b610c2d576040517f08c379a0000000000000000000000000000000000000000000000000000000008152600401610c2490611873565b60405180910390fd5b8160015f8573ffffffffffffffffffffffffffffffffffffffff1673ffffffffffffffffffffffffffffffffffffffff1681526020019081526020015f205f8481526020019081526020015f205f015414905092915050565b60605f60015f8573ffffffffffffffffffffffffffffffffffffffff1673ffffffffffffffffffffffffffffffffffffffff1681526020019081526020015f205f8481526020019081526020015f206040518060a00160405290815f820154815260200160018201548152602001600282015f9054906101000a900473ffffffffffffffffffffffffffffffffffffffff1673ffffffffffffffffffffffffffffffffffffffff1673ffffffffffffffffffffffffffffffffffffffff168152602001600382018054610d5890611325565b80601f0160208091040260200160405190810160405280929190818152602001828054610d8490611325565b8015610dcf5780601f10610da657610100808354040283529160200191610dcf565b820191905f5260205f20905b815481529060010190602001808311610db257829003601f168201915b505050505081526020016004820154815250509050806060015191505092915050565b5f604051905090565b5f80fd5b5f80fd5b5f73ffffffffffffffffffffffffffffffffffffffff82169050919050565b5f610e2c82610e03565b9050919050565b610e3c81610e22565b8114610e46575f80fd5b50565b5f81359050610e5781610e33565b92915050565b5f819050919050565b610e6f81610e5d565b8114610e79575f80fd5b50565b5f81359050610e8a81610e66565b92915050565b5f805f60608486031215610ea757610ea6610dfb565b5b5f610eb486828701610e49565b9350506020610ec586828701610e7c565b9250506040610ed686828701610e7c565b9150509250925092565b5f8115159050919050565b610ef481610ee0565b82525050565b5f602082019050610f0d5f830184610eeb565b92915050565b5f8060408385031215610f2957610f28610dfb565b5b5f610f3685828601610e49565b9250506020610f4785828601610e7c565b9150509250929050565b610f5a81610e5d565b82525050565b5f602082019050610f735f830184610f51565b92915050565b610f8281610e22565b82525050565b5f81519050919050565b5f82825260208201905092915050565b5f5b83811015610fbf578082015181840152602081019050610fa4565b5f8484015250505050565b5f601f19601f8301169050919050565b5f610fe482610f88565b610fee8185610f92565b9350610ffe818560208601610fa2565b61100781610fca565b840191505092915050565b5f6080820190506110255f830187610f51565b6110326020830186610f79565b81810360408301526110448185610fda565b90506110536060830184610f51565b95945050505050565b5f80fd5b5f80fd5b7f4e487b71000000000000000000000000000000000000000000000000000000005f52604160045260245ffd5b61109a82610fca565b810181811067ffffffffffffffff821117156110b9576110b8611064565b5b80604052505050565b5f6110cb610df2565b90506110d78282611091565b919050565b5f67ffffffffffffffff8211156110f6576110f5611064565b5b6110ff82610fca565b9050602081019050919050565b828183375f83830152505050565b5f61112c611127846110dc565b6110c2565b90508281526020810184848401111561114857611147611060565b5b61115384828561110c565b509392505050565b5f82601f83011261116f5761116e61105c565b5b813561117f84826020860161111a565b91505092915050565b5f805f805f60a086880312156111a1576111a0610dfb565b5b5f6111ae88828901610e49565b95505060206111bf88828901610e49565b94505060406111d088828901610e7c565b935050606086013567ffffffffffffffff8111156111f1576111f0610dff565b5b6111fd8882890161115b565b925050608061120e88828901610e7c565b9150509295509295909350565b5f60608201905061122e5f830186610f51565b81810360208301526112408185610fda565b905061124f6040830184610f51565b949350505050565b5f60208201905061126a5f830184610f79565b92915050565b5f6020820190508181035f8301526112888184610fda565b905092915050565b7f5175616e74697479206e6f742056616c696421000000000000000000000000005f82015250565b5f6112c4601383610f92565b91506112cf82611290565b602082019050919050565b5f6020820190508181035f8301526112f1816112b8565b9050919050565b7f4e487b71000000000000000000000000000000000000000000000000000000005f52602260045260245ffd5b5f600282049050600182168061133c57607f821691505b60208210810361134f5761134e6112f8565b5b50919050565b7f436f6e74726f6c6c6f2064656c6c61205175616e7469746127206461207574695f8201527f6c697a7a617265206e6f6e20616e6461746120612062756f6e2066696e652100602082015250565b5f6113af603f83610f92565b91506113ba82611355565b604082019050919050565b5f6020820190508181035f8301526113dc816113a3565b9050919050565b7f50617274697461206469204c61747465206e6f6e2070726573656e74652100005f82015250565b5f611417601e83610f92565b9150611422826113e3565b602082019050919050565b5f6020820190508181035f8301526114448161140b565b9050919050565b5f819050919050565b61146561146082610e5d565b61144b565b82525050565b5f81905092915050565b5f61147f82610f88565b611489818561146b565b9350611499818560208601610fa2565b80840191505092915050565b5f8160601b9050919050565b5f6114bb826114a5565b9050919050565b5f6114cc826114b1565b9050919050565b6114e46114df82610e22565b6114c2565b82525050565b5f6114f58289611454565b6020820191506115058288611475565b915061151182876114d3565b60148201915061152182866114d3565b6014820191506115318285611454565b6020820191506115418284611454565b602082019150819050979650505050505050565b7f50617274697461206469204c6174746520676961272070726573656e746521005f82015250565b5f611589601f83610f92565b915061159482611555565b602082019050919050565b5f6020820190508181035f8301526115b68161157d565b9050919050565b5f819050815f5260205f209050919050565b5f6020601f8301049050919050565b5f82821b905092915050565b5f600883026116197fffffffffffffffffffffffffffffffffffffffffffffffffffffffffffffffff826115de565b61162386836115de565b95508019841693508086168417925050509392505050565b5f819050919050565b5f61165e61165961165484610e5d565b61163b565b610e5d565b9050919050565b5f819050919050565b61167783611644565b61168b61168382611665565b8484546115ea565b825550505050565b5f90565b61169f611693565b6116aa81848461166e565b505050565b5b818110156116cd576116c25f82611697565b6001810190506116b0565b5050565b601f821115611712576116e3816115bd565b6116ec846115cf565b810160208510156116fb578190505b61170f611707856115cf565b8301826116af565b50505b505050565b5f82821c905092915050565b5f6117325f1984600802611717565b1980831691505092915050565b5f61174a8383611723565b9150826002028217905092915050565b61176382610f88565b67ffffffffffffffff81111561177c5761177b611064565b5b6117868254611325565b6117918282856116d1565b5f60209050601f8311600181146117c2575f84156117b0578287015190505b6117ba858261173f565b865550611821565b601f1984166117d0866115bd565b5f5b828110156117f7578489015182556001820191506020850194506020810190506117d2565b868310156118145784890151611810601f891682611723565b8355505b6001600288020188555050505b505050505050565b7f494420436865657365204e6f742056616c6964210000000000000000000000005f82015250565b5f61185d601483610f92565b915061186882611829565b602082019050919050565b5f6020820190508181035f83015261188a81611851565b905091905056fea2646970667358221220889d305c45478360c6f775e98337025979047103b019a668aa15d6ef6e6924c164736f6c63430008160033",
					"opcodes": "PUSH1 0x80 PUSH1 0x40 MSTORE CALLVALUE DUP1 ISZERO PUSH2 0xF JUMPI PUSH0 DUP1 REVERT JUMPDEST POP CALLER PUSH0 DUP1 PUSH2 0x100 EXP DUP2 SLOAD DUP2 PUSH20 0xFFFFFFFFFFFFFFFFFFFFFFFFFFFFFFFFFFFFFFFF MUL NOT AND SWAP1 DUP4 PUSH20 0xFFFFFFFFFFFFFFFFFFFFFFFFFFFFFFFFFFFFFFFF AND MUL OR SWAP1 SSTORE POP PUSH2 0x18C7 DUP1 PUSH2 0x5C PUSH0 CODECOPY PUSH0 RETURN INVALID PUSH1 0x80 PUSH1 0x40 MSTORE CALLVALUE DUP1 ISZERO PUSH2 0xF JUMPI PUSH0 DUP1 REVERT JUMPDEST POP PUSH1 0x4 CALLDATASIZE LT PUSH2 0x9C JUMPI PUSH0 CALLDATALOAD PUSH1 0xE0 SHR DUP1 PUSH4 0x8B3C04CE GT PUSH2 0x64 JUMPI DUP1 PUSH4 0x8B3C04CE EQ PUSH2 0x17F JUMPI DUP1 PUSH4 0xC5D3E11D EQ PUSH2 0x1B1 JUMPI DUP1 PUSH4 0xCC231726 EQ PUSH2 0x1E1 JUMPI DUP1 PUSH4 0xCFA41ED0 EQ PUSH2 0x211 JUMPI DUP1 PUSH4 0xF93BD021 EQ PUSH2 0x241 JUMPI PUSH2 0x9C JUMP JUMPDEST DUP1 PUSH4 0x803DA24 EQ PUSH2 0xA0 JUMPI DUP1 PUSH4 0x1E073FCF EQ PUSH2 0xD0 JUMPI DUP1 PUSH4 0x453ECF04 EQ PUSH2 0x100 JUMPI DUP1 PUSH4 0x6FB82E06 EQ PUSH2 0x11C JUMPI DUP1 PUSH4 0x7745770A EQ PUSH2 0x14F JUMPI JUMPDEST PUSH0 DUP1 REVERT JUMPDEST PUSH2 0xBA PUSH1 0x4 DUP1 CALLDATASIZE SUB DUP2 ADD SWAP1 PUSH2 0xB5 SWAP2 SWAP1 PUSH2 0xE90 JUMP JUMPDEST PUSH2 0x271 JUMP JUMPDEST PUSH1 0x40 MLOAD PUSH2 0xC7 SWAP2 SWAP1 PUSH2 0xEFA JUMP JUMPDEST PUSH1 0x40 MLOAD DUP1 SWAP2 SUB SWAP1 RETURN JUMPDEST PUSH2 0xEA PUSH1 0x4 DUP1 CALLDATASIZE SUB DUP2 ADD SWAP1 PUSH2 0xE5 SWAP2 SWAP1 PUSH2 0xF13 JUMP JUMPDEST PUSH2 0x314 JUMP JUMPDEST PUSH1 0x40 MLOAD PUSH2 0xF7 SWAP2 SWAP1 PUSH2 0xF60 JUMP JUMPDEST PUSH1 0x40 MLOAD DUP1 SWAP2 SUB SWAP1 RETURN JUMPDEST PUSH2 0x11A PUSH1 0x4 DUP1 CALLDATASIZE SUB DUP2 ADD SWAP1 PUSH2 0x115 SWAP2 SWAP1 PUSH2 0xE90 JUMP JUMPDEST PUSH2 0x47F JUMP JUMPDEST STOP JUMPDEST PUSH2 0x136 PUSH1 0x4 DUP1 CALLDATASIZE SUB DUP2 ADD SWAP1 PUSH2 0x131 SWAP2 SWAP1 PUSH2 0xF13 JUMP JUMPDEST PUSH2 0x56A JUMP JUMPDEST PUSH1 0x40 MLOAD PUSH2 0x146 SWAP5 SWAP4 SWAP3 SWAP2 SWAP1 PUSH2 0x1012 JUMP JUMPDEST PUSH1 0x40 MLOAD DUP1 SWAP2 SUB SWAP1 RETURN JUMPDEST PUSH2 0x169 PUSH1 0x4 DUP1 CALLDATASIZE SUB DUP2 ADD SWAP1 PUSH2 0x164 SWAP2 SWAP1 PUSH2 0xE90 JUMP JUMPDEST PUSH2 0x6F0 JUMP JUMPDEST PUSH1 0x40 MLOAD PUSH2 0x176 SWAP2 SWAP1 PUSH2 0xEFA JUMP JUMPDEST PUSH1 0x40 MLOAD DUP1 SWAP2 SUB SWAP1 RETURN JUMPDEST PUSH2 0x199 PUSH1 0x4 DUP1 CALLDATASIZE SUB DUP2 ADD SWAP1 PUSH2 0x194 SWAP2 SWAP1 PUSH2 0x1188 JUMP JUMPDEST PUSH2 0x823 JUMP JUMPDEST PUSH1 0x40 MLOAD PUSH2 0x1A8 SWAP4 SWAP3 SWAP2 SWAP1 PUSH2 0x121B JUMP JUMPDEST PUSH1 0x40 MLOAD DUP1 SWAP2 SUB SWAP1 RETURN JUMPDEST PUSH2 0x1CB PUSH1 0x4 DUP1 CALLDATASIZE SUB DUP2 ADD SWAP1 PUSH2 0x1C6 SWAP2 SWAP1 PUSH2 0xF13 JUMP JUMPDEST PUSH2 0xA1B JUMP JUMPDEST PUSH1 0x40 MLOAD PUSH2 0x1D8 SWAP2 SWAP1 PUSH2 0xF60 JUMP JUMPDEST PUSH1 0x40 MLOAD DUP1 SWAP2 SUB SWAP1 RETURN JUMPDEST PUSH2 0x1FB PUSH1 0x4 DUP1 CALLDATASIZE SUB DUP2 ADD SWAP1 PUSH2 0x1F6 SWAP2 SWAP1 PUSH2 0xF13 JUMP JUMPDEST PUSH2 0xA73 JUMP JUMPDEST PUSH1 0x40 MLOAD PUSH2 0x208 SWAP2 SWAP1 PUSH2 0x1257 JUMP JUMPDEST PUSH1 0x40 MLOAD DUP1 SWAP2 SUB SWAP1 RETURN JUMPDEST PUSH2 0x22B PUSH1 0x4 DUP1 CALLDATASIZE SUB DUP2 ADD SWAP1 PUSH2 0x226 SWAP2 SWAP1 PUSH2 0xF13 JUMP JUMPDEST PUSH2 0xBDE JUMP JUMPDEST PUSH1 0x40 MLOAD PUSH2 0x238 SWAP2 SWAP1 PUSH2 0xEFA JUMP JUMPDEST PUSH1 0x40 MLOAD DUP1 SWAP2 SUB SWAP1 RETURN JUMPDEST PUSH2 0x25B PUSH1 0x4 DUP1 CALLDATASIZE SUB DUP2 ADD SWAP1 PUSH2 0x256 SWAP2 SWAP1 PUSH2 0xF13 JUMP JUMPDEST PUSH2 0xC86 JUMP JUMPDEST PUSH1 0x40 MLOAD PUSH2 0x268 SWAP2 SWAP1 PUSH2 0x1270 JUMP JUMPDEST PUSH1 0x40 MLOAD DUP1 SWAP2 SUB SWAP1 RETURN JUMPDEST PUSH0 DUP1 PUSH1 0x1 PUSH0 DUP7 PUSH20 0xFFFFFFFFFFFFFFFFFFFFFFFFFFFFFFFFFFFFFFFF AND PUSH20 0xFFFFFFFFFFFFFFFFFFFFFFFFFFFFFFFFFFFFFFFF AND DUP2 MSTORE PUSH1 0x20 ADD SWAP1 DUP2 MSTORE PUSH1 0x20 ADD PUSH0 KECCAK256 PUSH0 DUP6 DUP2 MSTORE PUSH1 0x20 ADD SWAP1 DUP2 MSTORE PUSH1 0x20 ADD PUSH0 KECCAK256 SWAP1 POP DUP3 DUP2 PUSH1 0x4 ADD SLOAD LT ISZERO PUSH2 0x308 JUMPI PUSH1 0x40 MLOAD PUSH32 0x8C379A000000000000000000000000000000000000000000000000000000000 DUP2 MSTORE PUSH1 0x4 ADD PUSH2 0x2FF SWAP1 PUSH2 0x12DA JUMP JUMPDEST PUSH1 0x40 MLOAD DUP1 SWAP2 SUB SWAP1 REVERT JUMPDEST PUSH1 0x1 SWAP2 POP POP SWAP4 SWAP3 POP POP POP JUMP JUMPDEST PUSH0 DUP1 PUSH1 0x1 PUSH0 DUP6 PUSH20 0xFFFFFFFFFFFFFFFFFFFFFFFFFFFFFFFFFFFFFFFF AND PUSH20 0xFFFFFFFFFFFFFFFFFFFFFFFFFFFFFFFFFFFFFFFF AND DUP2 MSTORE PUSH1 0x20 ADD SWAP1 DUP2 MSTORE PUSH1 0x20 ADD PUSH0 KECCAK256 PUSH0 DUP5 DUP2 MSTORE PUSH1 0x20 ADD SWAP1 DUP2 MSTORE PUSH1 0x20 ADD PUSH0 KECCAK256 PUSH1 0x40 MLOAD DUP1 PUSH1 0xA0 ADD PUSH1 0x40 MSTORE SWAP1 DUP2 PUSH0 DUP3 ADD SLOAD DUP2 MSTORE PUSH1 0x20 ADD PUSH1 0x1 DUP3 ADD SLOAD DUP2 MSTORE PUSH1 0x20 ADD PUSH1 0x2 DUP3 ADD PUSH0 SWAP1 SLOAD SWAP1 PUSH2 0x100 EXP SWAP1 DIV PUSH20 0xFFFFFFFFFFFFFFFFFFFFFFFFFFFFFFFFFFFFFFFF AND PUSH20 0xFFFFFFFFFFFFFFFFFFFFFFFFFFFFFFFFFFFFFFFF AND PUSH20 0xFFFFFFFFFFFFFFFFFFFFFFFFFFFFFFFFFFFFFFFF AND DUP2 MSTORE PUSH1 0x20 ADD PUSH1 0x3 DUP3 ADD DUP1 SLOAD PUSH2 0x3E5 SWAP1 PUSH2 0x1325 JUMP JUMPDEST DUP1 PUSH1 0x1F ADD PUSH1 0x20 DUP1 SWAP2 DIV MUL PUSH1 0x20 ADD PUSH1 0x40 MLOAD SWAP1 DUP2 ADD PUSH1 0x40 MSTORE DUP1 SWAP3 SWAP2 SWAP1 DUP2 DUP2 MSTORE PUSH1 0x20 ADD DUP3 DUP1 SLOAD PUSH2 0x411 SWAP1 PUSH2 0x1325 JUMP JUMPDEST DUP1 ISZERO PUSH2 0x45C JUMPI DUP1 PUSH1 0x1F LT PUSH2 0x433 JUMPI PUSH2 0x100 DUP1 DUP4 SLOAD DIV MUL DUP4 MSTORE SWAP2 PUSH1 0x20 ADD SWAP2 PUSH2 0x45C JUMP JUMPDEST DUP3 ADD SWAP2 SWAP1 PUSH0 MSTORE PUSH1 0x20 PUSH0 KECCAK256 SWAP1 JUMPDEST DUP2 SLOAD DUP2 MSTORE SWAP1 PUSH1 0x1 ADD SWAP1 PUSH1 0x20 ADD DUP1 DUP4 GT PUSH2 0x43F JUMPI DUP3 SWAP1 SUB PUSH1 0x1F AND DUP3 ADD SWAP2 JUMPDEST POP POP POP POP POP DUP2 MSTORE PUSH1 0x20 ADD PUSH1 0x4 DUP3 ADD SLOAD DUP2 MSTORE POP POP SWAP1 POP DUP1 PUSH1 0x80 ADD MLOAD SWAP2 POP POP SWAP3 SWAP2 POP POP JUMP JUMPDEST PUSH1 0x1 PUSH0 DUP5 PUSH20 0xFFFFFFFFFFFFFFFFFFFFFFFFFFFFFFFFFFFFFFFF AND PUSH20 0xFFFFFFFFFFFFFFFFFFFFFFFFFFFFFFFFFFFFFFFF AND DUP2 MSTORE PUSH1 0x20 ADD SWAP1 DUP2 MSTORE PUSH1 0x20 ADD PUSH0 KECCAK256 PUSH0 DUP4 DUP2 MSTORE PUSH1 0x20 ADD SWAP1 DUP2 MSTORE PUSH1 0x20 ADD PUSH0 KECCAK256 PUSH1 0x4 ADD SLOAD DUP2 GT ISZERO PUSH2 0x511 JUMPI PUSH1 0x40 MLOAD PUSH32 0x8C379A000000000000000000000000000000000000000000000000000000000 DUP2 MSTORE PUSH1 0x4 ADD PUSH2 0x508 SWAP1 PUSH2 0x13C5 JUMP JUMPDEST PUSH1 0x40 MLOAD DUP1 SWAP2 SUB SWAP1 REVERT JUMPDEST DUP1 PUSH1 0x1 PUSH0 DUP6 PUSH20 0xFFFFFFFFFFFFFFFFFFFFFFFFFFFFFFFFFFFFFFFF AND PUSH20 0xFFFFFFFFFFFFFFFFFFFFFFFFFFFFFFFFFFFFFFFF AND DUP2 MSTORE PUSH1 0x20 ADD SWAP1 DUP2 MSTORE PUSH1 0x20 ADD PUSH0 KECCAK256 PUSH0 DUP5 DUP2 MSTORE PUSH1 0x20 ADD SWAP1 DUP2 MSTORE PUSH1 0x20 ADD PUSH0 KECCAK256 PUSH1 0x4 ADD DUP2 SWAP1 SSTORE POP POP POP POP JUMP JUMPDEST PUSH0 DUP1 PUSH1 0x60 PUSH0 DUP1 PUSH1 0x1 PUSH0 DUP9 PUSH20 0xFFFFFFFFFFFFFFFFFFFFFFFFFFFFFFFFFFFFFFFF AND PUSH20 0xFFFFFFFFFFFFFFFFFFFFFFFFFFFFFFFFFFFFFFFF AND DUP2 MSTORE PUSH1 0x20 ADD SWAP1 DUP2 MSTORE PUSH1 0x20 ADD PUSH0 KECCAK256 PUSH0 DUP8 DUP2 MSTORE PUSH1 0x20 ADD SWAP1 DUP2 MSTORE PUSH1 0x20 ADD PUSH0 KECCAK256 PUSH1 0x40 MLOAD DUP1 PUSH1 0xA0 ADD PUSH1 0x40 MSTORE SWAP1 DUP2 PUSH0 DUP3 ADD SLOAD DUP2 MSTORE PUSH1 0x20 ADD PUSH1 0x1 DUP3 ADD SLOAD DUP2 MSTORE PUSH1 0x20 ADD PUSH1 0x2 DUP3 ADD PUSH0 SWAP1 SLOAD SWAP1 PUSH2 0x100 EXP SWAP1 DIV PUSH20 0xFFFFFFFFFFFFFFFFFFFFFFFFFFFFFFFFFFFFFFFF AND PUSH20 0xFFFFFFFFFFFFFFFFFFFFFFFFFFFFFFFFFFFFFFFF AND PUSH20 0xFFFFFFFFFFFFFFFFFFFFFFFFFFFFFFFFFFFFFFFF AND DUP2 MSTORE PUSH1 0x20 ADD PUSH1 0x3 DUP3 ADD DUP1 SLOAD PUSH2 0x63F SWAP1 PUSH2 0x1325 JUMP JUMPDEST DUP1 PUSH1 0x1F ADD PUSH1 0x20 DUP1 SWAP2 DIV MUL PUSH1 0x20 ADD PUSH1 0x40 MLOAD SWAP1 DUP2 ADD PUSH1 0x40 MSTORE DUP1 SWAP3 SWAP2 SWAP1 DUP2 DUP2 MSTORE PUSH1 0x20 ADD DUP3 DUP1 SLOAD PUSH2 0x66B SWAP1 PUSH2 0x1325 JUMP JUMPDEST DUP1 ISZERO PUSH2 0x6B6 JUMPI DUP1 PUSH1 0x1F LT PUSH2 0x68D JUMPI PUSH2 0x100 DUP1 DUP4 SLOAD DIV MUL DUP4 MSTORE SWAP2 PUSH1 0x20 ADD SWAP2 PUSH2 0x6B6 JUMP JUMPDEST DUP3 ADD SWAP2 SWAP1 PUSH0 MSTORE PUSH1 0x20 PUSH0 KECCAK256 SWAP1 JUMPDEST DUP2 SLOAD DUP2 MSTORE SWAP1 PUSH1 0x1 ADD SWAP1 PUSH1 0x20 ADD DUP1 DUP4 GT PUSH2 0x699 JUMPI DUP3 SWAP1 SUB PUSH1 0x1F AND DUP3 ADD SWAP2 JUMPDEST POP POP POP POP POP DUP2 MSTORE PUSH1 0x20 ADD PUSH1 0x4 DUP3 ADD SLOAD DUP2 MSTORE POP POP SWAP1 POP DUP1 PUSH0 ADD MLOAD DUP2 PUSH1 0x40 ADD MLOAD DUP3 PUSH1 0x60 ADD MLOAD DUP4 PUSH1 0x80 ADD MLOAD SWAP5 POP SWAP5 POP SWAP5 POP SWAP5 POP POP SWAP3 SWAP6 SWAP2 SWAP5 POP SWAP3 POP JUMP JUMPDEST PUSH0 DUP3 PUSH1 0x1 PUSH0 DUP7 PUSH20 0xFFFFFFFFFFFFFFFFFFFFFFFFFFFFFFFFFFFFFFFF AND PUSH20 0xFFFFFFFFFFFFFFFFFFFFFFFFFFFFFFFFFFFFFFFF AND DUP2 MSTORE PUSH1 0x20 ADD SWAP1 DUP2 MSTORE PUSH1 0x20 ADD PUSH0 KECCAK256 PUSH0 DUP6 DUP2 MSTORE PUSH1 0x20 ADD SWAP1 DUP2 MSTORE PUSH1 0x20 ADD PUSH0 KECCAK256 PUSH0 ADD SLOAD EQ PUSH2 0x781 JUMPI PUSH1 0x40 MLOAD PUSH32 0x8C379A000000000000000000000000000000000000000000000000000000000 DUP2 MSTORE PUSH1 0x4 ADD PUSH2 0x778 SWAP1 PUSH2 0x142D JUMP JUMPDEST PUSH1 0x40 MLOAD DUP1 SWAP2 SUB SWAP1 REVERT JUMPDEST PUSH0 PUSH1 0x1 PUSH0 DUP7 PUSH20 0xFFFFFFFFFFFFFFFFFFFFFFFFFFFFFFFFFFFFFFFF AND PUSH20 0xFFFFFFFFFFFFFFFFFFFFFFFFFFFFFFFFFFFFFFFF AND DUP2 MSTORE PUSH1 0x20 ADD SWAP1 DUP2 MSTORE PUSH1 0x20 ADD PUSH0 KECCAK256 PUSH0 DUP6 DUP2 MSTORE PUSH1 0x20 ADD SWAP1 DUP2 MSTORE PUSH1 0x20 ADD PUSH0 KECCAK256 SWAP1 POP DUP3 DUP2 PUSH1 0x4 ADD SLOAD LT ISZERO PUSH2 0x817 JUMPI PUSH1 0x40 MLOAD PUSH32 0x8C379A000000000000000000000000000000000000000000000000000000000 DUP2 MSTORE PUSH1 0x4 ADD PUSH2 0x80E SWAP1 PUSH2 0x12DA JUMP JUMPDEST PUSH1 0x40 MLOAD DUP1 SWAP2 SUB SWAP1 REVERT JUMPDEST PUSH1 0x1 SWAP2 POP POP SWAP4 SWAP3 POP POP POP JUMP JUMPDEST PUSH0 PUSH1 0x60 PUSH0 DUP1 DUP5 DUP7 DUP11 DUP11 DUP11 TIMESTAMP PUSH1 0x40 MLOAD PUSH1 0x20 ADD PUSH2 0x843 SWAP7 SWAP6 SWAP5 SWAP4 SWAP3 SWAP2 SWAP1 PUSH2 0x14EA JUMP JUMPDEST PUSH1 0x40 MLOAD PUSH1 0x20 DUP2 DUP4 SUB SUB DUP2 MSTORE SWAP1 PUSH1 0x40 MSTORE DUP1 MLOAD SWAP1 PUSH1 0x20 ADD KECCAK256 PUSH0 SHR SWAP1 POP PUSH0 PUSH1 0x1 PUSH0 DUP12 PUSH20 0xFFFFFFFFFFFFFFFFFFFFFFFFFFFFFFFFFFFFFFFF AND PUSH20 0xFFFFFFFFFFFFFFFFFFFFFFFFFFFFFFFFFFFFFFFF AND DUP2 MSTORE PUSH1 0x20 ADD SWAP1 DUP2 MSTORE PUSH1 0x20 ADD PUSH0 KECCAK256 PUSH0 DUP4 DUP2 MSTORE PUSH1 0x20 ADD SWAP1 DUP2 MSTORE PUSH1 0x20 ADD PUSH0 KECCAK256 SWAP1 POP PUSH0 DUP2 PUSH0 ADD SLOAD EQ PUSH2 0x8F1 JUMPI PUSH1 0x40 MLOAD PUSH32 0x8C379A000000000000000000000000000000000000000000000000000000000 DUP2 MSTORE PUSH1 0x4 ADD PUSH2 0x8E8 SWAP1 PUSH2 0x159F JUMP JUMPDEST PUSH1 0x40 MLOAD DUP1 SWAP2 SUB SWAP1 REVERT JUMPDEST PUSH0 PUSH1 0x40 MLOAD DUP1 PUSH1 0xA0 ADD PUSH1 0x40 MSTORE DUP1 DUP5 DUP2 MSTORE PUSH1 0x20 ADD DUP11 DUP2 MSTORE PUSH1 0x20 ADD DUP12 PUSH20 0xFFFFFFFFFFFFFFFFFFFFFFFFFFFFFFFFFFFFFFFF AND DUP2 MSTORE PUSH1 0x20 ADD DUP10 DUP2 MSTORE PUSH1 0x20 ADD DUP9 DUP2 MSTORE POP SWAP1 POP DUP1 PUSH1 0x1 PUSH0 DUP13 PUSH20 0xFFFFFFFFFFFFFFFFFFFFFFFFFFFFFFFFFFFFFFFF AND PUSH20 0xFFFFFFFFFFFFFFFFFFFFFFFFFFFFFFFFFFFFFFFF AND DUP2 MSTORE PUSH1 0x20 ADD SWAP1 DUP2 MSTORE PUSH1 0x20 ADD PUSH0 KECCAK256 PUSH0 DUP6 DUP2 MSTORE PUSH1 0x20 ADD SWAP1 DUP2 MSTORE PUSH1 0x20 ADD PUSH0 KECCAK256 PUSH0 DUP3 ADD MLOAD DUP2 PUSH0 ADD SSTORE PUSH1 0x20 DUP3 ADD MLOAD DUP2 PUSH1 0x1 ADD SSTORE PUSH1 0x40 DUP3 ADD MLOAD DUP2 PUSH1 0x2 ADD PUSH0 PUSH2 0x100 EXP DUP2 SLOAD DUP2 PUSH20 0xFFFFFFFFFFFFFFFFFFFFFFFFFFFFFFFFFFFFFFFF MUL NOT AND SWAP1 DUP4 PUSH20 0xFFFFFFFFFFFFFFFFFFFFFFFFFFFFFFFFFFFFFFFF AND MUL OR SWAP1 SSTORE POP PUSH1 0x60 DUP3 ADD MLOAD DUP2 PUSH1 0x3 ADD SWAP1 DUP2 PUSH2 0x9EB SWAP2 SWAP1 PUSH2 0x175A JUMP JUMPDEST POP PUSH1 0x80 DUP3 ADD MLOAD DUP2 PUSH1 0x4 ADD SSTORE SWAP1 POP POP DUP1 PUSH0 ADD MLOAD DUP2 PUSH1 0x60 ADD MLOAD DUP3 PUSH1 0x80 ADD MLOAD SWAP6 POP SWAP6 POP SWAP6 POP POP POP POP SWAP6 POP SWAP6 POP SWAP6 SWAP3 POP POP POP JUMP JUMPDEST PUSH0 PUSH1 0x1 PUSH0 DUP5 PUSH20 0xFFFFFFFFFFFFFFFFFFFFFFFFFFFFFFFFFFFFFFFF AND PUSH20 0xFFFFFFFFFFFFFFFFFFFFFFFFFFFFFFFFFFFFFFFF AND DUP2 MSTORE PUSH1 0x20 ADD SWAP1 DUP2 MSTORE PUSH1 0x20 ADD PUSH0 KECCAK256 PUSH0 DUP4 DUP2 MSTORE PUSH1 0x20 ADD SWAP1 DUP2 MSTORE PUSH1 0x20 ADD PUSH0 KECCAK256 PUSH0 ADD SLOAD SWAP1 POP SWAP3 SWAP2 POP POP JUMP JUMPDEST PUSH0 DUP1 PUSH1 0x1 PUSH0 DUP6 PUSH20 0xFFFFFFFFFFFFFFFFFFFFFFFFFFFFFFFFFFFFFFFF AND PUSH20 0xFFFFFFFFFFFFFFFFFFFFFFFFFFFFFFFFFFFFFFFF AND DUP2 MSTORE PUSH1 0x20 ADD SWAP1 DUP2 MSTORE PUSH1 0x20 ADD PUSH0 KECCAK256 PUSH0 DUP5 DUP2 MSTORE PUSH1 0x20 ADD SWAP1 DUP2 MSTORE PUSH1 0x20 ADD PUSH0 KECCAK256 PUSH1 0x40 MLOAD DUP1 PUSH1 0xA0 ADD PUSH1 0x40 MSTORE SWAP1 DUP2 PUSH0 DUP3 ADD SLOAD DUP2 MSTORE PUSH1 0x20 ADD PUSH1 0x1 DUP3 ADD SLOAD DUP2 MSTORE PUSH1 0x20 ADD PUSH1 0x2 DUP3 ADD PUSH0 SWAP1 SLOAD SWAP1 PUSH2 0x100 EXP SWAP1 DIV PUSH20 0xFFFFFFFFFFFFFFFFFFFFFFFFFFFFFFFFFFFFFFFF AND PUSH20 0xFFFFFFFFFFFFFFFFFFFFFFFFFFFFFFFFFFFFFFFF AND PUSH20 0xFFFFFFFFFFFFFFFFFFFFFFFFFFFFFFFFFFFFFFFF AND DUP2 MSTORE PUSH1 0x20 ADD PUSH1 0x3 DUP3 ADD DUP1 SLOAD PUSH2 0xB44 SWAP1 PUSH2 0x1325 JUMP JUMPDEST DUP1 PUSH1 0x1F ADD PUSH1 0x20 DUP1 SWAP2 DIV MUL PUSH1 0x20 ADD PUSH1 0x40 MLOAD SWAP1 DUP2 ADD PUSH1 0x40 MSTORE DUP1 SWAP3 SWAP2 SWAP1 DUP2 DUP2 MSTORE PUSH1 0x20 ADD DUP3 DUP1 SLOAD PUSH2 0xB70 SWAP1 PUSH2 0x1325 JUMP JUMPDEST DUP1 ISZERO PUSH2 0xBBB JUMPI DUP1 PUSH1 0x1F LT PUSH2 0xB92 JUMPI PUSH2 0x100 DUP1 DUP4 SLOAD DIV MUL DUP4 MSTORE SWAP2 PUSH1 0x20 ADD SWAP2 PUSH2 0xBBB JUMP JUMPDEST DUP3 ADD SWAP2 SWAP1 PUSH0 MSTORE PUSH1 0x20 PUSH0 KECCAK256 SWAP1 JUMPDEST DUP2 SLOAD DUP2 MSTORE SWAP1 PUSH1 0x1 ADD SWAP1 PUSH1 0x20 ADD DUP1 DUP4 GT PUSH2 0xB9E JUMPI DUP3 SWAP1 SUB PUSH1 0x1F AND DUP3 ADD SWAP2 JUMPDEST POP POP POP POP POP DUP2 MSTORE PUSH1 0x20 ADD PUSH1 0x4 DUP3 ADD SLOAD DUP2 MSTORE POP POP SWAP1 POP DUP1 PUSH1 0x40 ADD MLOAD SWAP2 POP POP SWAP3 SWAP2 POP POP JUMP JUMPDEST PUSH0 DUP1 DUP3 EQ ISZERO DUP1 ISZERO PUSH2 0xBEE JUMPI POP PUSH0 DUP3 GT JUMPDEST PUSH2 0xC2D JUMPI PUSH1 0x40 MLOAD PUSH32 0x8C379A000000000000000000000000000000000000000000000000000000000 DUP2 MSTORE PUSH1 0x4 ADD PUSH2 0xC24 SWAP1 PUSH2 0x1873 JUMP JUMPDEST PUSH1 0x40 MLOAD DUP1 SWAP2 SUB SWAP1 REVERT JUMPDEST DUP2 PUSH1 0x1 PUSH0 DUP6 PUSH20 0xFFFFFFFFFFFFFFFFFFFFFFFFFFFFFFFFFFFFFFFF AND PUSH20 0xFFFFFFFFFFFFFFFFFFFFFFFFFFFFFFFFFFFFFFFF AND DUP2 MSTORE PUSH1 0x20 ADD SWAP1 DUP2 MSTORE PUSH1 0x20 ADD PUSH0 KECCAK256 PUSH0 DUP5 DUP2 MSTORE PUSH1 0x20 ADD SWAP1 DUP2 MSTORE PUSH1 0x20 ADD PUSH0 KECCAK256 PUSH0 ADD SLOAD EQ SWAP1 POP SWAP3 SWAP2 POP POP JUMP JUMPDEST PUSH1 0x60 PUSH0 PUSH1 0x1 PUSH0 DUP6 PUSH20 0xFFFFFFFFFFFFFFFFFFFFFFFFFFFFFFFFFFFFFFFF AND PUSH20 0xFFFFFFFFFFFFFFFFFFFFFFFFFFFFFFFFFFFFFFFF AND DUP2 MSTORE PUSH1 0x20 ADD SWAP1 DUP2 MSTORE PUSH1 0x20 ADD PUSH0 KECCAK256 PUSH0 DUP5 DUP2 MSTORE PUSH1 0x20 ADD SWAP1 DUP2 MSTORE PUSH1 0x20 ADD PUSH0 KECCAK256 PUSH1 0x40 MLOAD DUP1 PUSH1 0xA0 ADD PUSH1 0x40 MSTORE SWAP1 DUP2 PUSH0 DUP3 ADD SLOAD DUP2 MSTORE PUSH1 0x20 ADD PUSH1 0x1 DUP3 ADD SLOAD DUP2 MSTORE PUSH1 0x20 ADD PUSH1 0x2 DUP3 ADD PUSH0 SWAP1 SLOAD SWAP1 PUSH2 0x100 EXP SWAP1 DIV PUSH20 0xFFFFFFFFFFFFFFFFFFFFFFFFFFFFFFFFFFFFFFFF AND PUSH20 0xFFFFFFFFFFFFFFFFFFFFFFFFFFFFFFFFFFFFFFFF AND PUSH20 0xFFFFFFFFFFFFFFFFFFFFFFFFFFFFFFFFFFFFFFFF AND DUP2 MSTORE PUSH1 0x20 ADD PUSH1 0x3 DUP3 ADD DUP1 SLOAD PUSH2 0xD58 SWAP1 PUSH2 0x1325 JUMP JUMPDEST DUP1 PUSH1 0x1F ADD PUSH1 0x20 DUP1 SWAP2 DIV MUL PUSH1 0x20 ADD PUSH1 0x40 MLOAD SWAP1 DUP2 ADD PUSH1 0x40 MSTORE DUP1 SWAP3 SWAP2 SWAP1 DUP2 DUP2 MSTORE PUSH1 0x20 ADD DUP3 DUP1 SLOAD PUSH2 0xD84 SWAP1 PUSH2 0x1325 JUMP JUMPDEST DUP1 ISZERO PUSH2 0xDCF JUMPI DUP1 PUSH1 0x1F LT PUSH2 0xDA6 JUMPI PUSH2 0x100 DUP1 DUP4 SLOAD DIV MUL DUP4 MSTORE SWAP2 PUSH1 0x20 ADD SWAP2 PUSH2 0xDCF JUMP JUMPDEST DUP3 ADD SWAP2 SWAP1 PUSH0 MSTORE PUSH1 0x20 PUSH0 KECCAK256 SWAP1 JUMPDEST DUP2 SLOAD DUP2 MSTORE SWAP1 PUSH1 0x1 ADD SWAP1 PUSH1 0x20 ADD DUP1 DUP4 GT PUSH2 0xDB2 JUMPI DUP3 SWAP1 SUB PUSH1 0x1F AND DUP3 ADD SWAP2 JUMPDEST POP POP POP POP POP DUP2 MSTORE PUSH1 0x20 ADD PUSH1 0x4 DUP3 ADD SLOAD DUP2 MSTORE POP POP SWAP1 POP DUP1 PUSH1 0x60 ADD MLOAD SWAP2 POP POP SWAP3 SWAP2 POP POP JUMP JUMPDEST PUSH0 PUSH1 0x40 MLOAD SWAP1 POP SWAP1 JUMP JUMPDEST PUSH0 DUP1 REVERT JUMPDEST PUSH0 DUP1 REVERT JUMPDEST PUSH0 PUSH20 0xFFFFFFFFFFFFFFFFFFFFFFFFFFFFFFFFFFFFFFFF DUP3 AND SWAP1 POP SWAP2 SWAP1 POP JUMP JUMPDEST PUSH0 PUSH2 0xE2C DUP3 PUSH2 0xE03 JUMP JUMPDEST SWAP1 POP SWAP2 SWAP1 POP JUMP JUMPDEST PUSH2 0xE3C DUP2 PUSH2 0xE22 JUMP JUMPDEST DUP2 EQ PUSH2 0xE46 JUMPI PUSH0 DUP1 REVERT JUMPDEST POP JUMP JUMPDEST PUSH0 DUP2 CALLDATALOAD SWAP1 POP PUSH2 0xE57 DUP2 PUSH2 0xE33 JUMP JUMPDEST SWAP3 SWAP2 POP POP JUMP JUMPDEST PUSH0 DUP2 SWAP1 POP SWAP2 SWAP1 POP JUMP JUMPDEST PUSH2 0xE6F DUP2 PUSH2 0xE5D JUMP JUMPDEST DUP2 EQ PUSH2 0xE79 JUMPI PUSH0 DUP1 REVERT JUMPDEST POP JUMP JUMPDEST PUSH0 DUP2 CALLDATALOAD SWAP1 POP PUSH2 0xE8A DUP2 PUSH2 0xE66 JUMP JUMPDEST SWAP3 SWAP2 POP POP JUMP JUMPDEST PUSH0 DUP1 PUSH0 PUSH1 0x60 DUP5 DUP7 SUB SLT ISZERO PUSH2 0xEA7 JUMPI PUSH2 0xEA6 PUSH2 0xDFB JUMP JUMPDEST JUMPDEST PUSH0 PUSH2 0xEB4 DUP7 DUP3 DUP8 ADD PUSH2 0xE49 JUMP JUMPDEST SWAP4 POP POP PUSH1 0x20 PUSH2 0xEC5 DUP7 DUP3 DUP8 ADD PUSH2 0xE7C JUMP JUMPDEST SWAP3 POP POP PUSH1 0x40 PUSH2 0xED6 DUP7 DUP3 DUP8 ADD PUSH2 0xE7C JUMP JUMPDEST SWAP2 POP POP SWAP3 POP SWAP3 POP SWAP3 JUMP JUMPDEST PUSH0 DUP2 ISZERO ISZERO SWAP1 POP SWAP2 SWAP1 POP JUMP JUMPDEST PUSH2 0xEF4 DUP2 PUSH2 0xEE0 JUMP JUMPDEST DUP3 MSTORE POP POP JUMP JUMPDEST PUSH0 PUSH1 0x20 DUP3 ADD SWAP1 POP PUSH2 0xF0D PUSH0 DUP4 ADD DUP5 PUSH2 0xEEB JUMP JUMPDEST SWAP3 SWAP2 POP POP JUMP JUMPDEST PUSH0 DUP1 PUSH1 0x40 DUP4 DUP6 SUB SLT ISZERO PUSH2 0xF29 JUMPI PUSH2 0xF28 PUSH2 0xDFB JUMP JUMPDEST JUMPDEST PUSH0 PUSH2 0xF36 DUP6 DUP3 DUP7 ADD PUSH2 0xE49 JUMP JUMPDEST SWAP3 POP POP PUSH1 0x20 PUSH2 0xF47 DUP6 DUP3 DUP7 ADD PUSH2 0xE7C JUMP JUMPDEST SWAP2 POP POP SWAP3 POP SWAP3 SWAP1 POP JUMP JUMPDEST PUSH2 0xF5A DUP2 PUSH2 0xE5D JUMP JUMPDEST DUP3 MSTORE POP POP JUMP JUMPDEST PUSH0 PUSH1 0x20 DUP3 ADD SWAP1 POP PUSH2 0xF73 PUSH0 DUP4 ADD DUP5 PUSH2 0xF51 JUMP JUMPDEST SWAP3 SWAP2 POP POP JUMP JUMPDEST PUSH2 0xF82 DUP2 PUSH2 0xE22 JUMP JUMPDEST DUP3 MSTORE POP POP JUMP JUMPDEST PUSH0 DUP2 MLOAD SWAP1 POP SWAP2 SWAP1 POP JUMP JUMPDEST PUSH0 DUP3 DUP3 MSTORE PUSH1 0x20 DUP3 ADD SWAP1 POP SWAP3 SWAP2 POP POP JUMP JUMPDEST PUSH0 JUMPDEST DUP4 DUP2 LT ISZERO PUSH2 0xFBF JUMPI DUP1 DUP3 ADD MLOAD DUP2 DUP5 ADD MSTORE PUSH1 0x20 DUP2 ADD SWAP1 POP PUSH2 0xFA4 JUMP JUMPDEST PUSH0 DUP5 DUP5 ADD MSTORE POP POP POP POP JUMP JUMPDEST PUSH0 PUSH1 0x1F NOT PUSH1 0x1F DUP4 ADD AND SWAP1 POP SWAP2 SWAP1 POP JUMP JUMPDEST PUSH0 PUSH2 0xFE4 DUP3 PUSH2 0xF88 JUMP JUMPDEST PUSH2 0xFEE DUP2 DUP6 PUSH2 0xF92 JUMP JUMPDEST SWAP4 POP PUSH2 0xFFE DUP2 DUP6 PUSH1 0x20 DUP7 ADD PUSH2 0xFA2 JUMP JUMPDEST PUSH2 0x1007 DUP2 PUSH2 0xFCA JUMP JUMPDEST DUP5 ADD SWAP2 POP POP SWAP3 SWAP2 POP POP JUMP JUMPDEST PUSH0 PUSH1 0x80 DUP3 ADD SWAP1 POP PUSH2 0x1025 PUSH0 DUP4 ADD DUP8 PUSH2 0xF51 JUMP JUMPDEST PUSH2 0x1032 PUSH1 0x20 DUP4 ADD DUP7 PUSH2 0xF79 JUMP JUMPDEST DUP2 DUP2 SUB PUSH1 0x40 DUP4 ADD MSTORE PUSH2 0x1044 DUP2 DUP6 PUSH2 0xFDA JUMP JUMPDEST SWAP1 POP PUSH2 0x1053 PUSH1 0x60 DUP4 ADD DUP5 PUSH2 0xF51 JUMP JUMPDEST SWAP6 SWAP5 POP POP POP POP POP JUMP JUMPDEST PUSH0 DUP1 REVERT JUMPDEST PUSH0 DUP1 REVERT JUMPDEST PUSH32 0x4E487B7100000000000000000000000000000000000000000000000000000000 PUSH0 MSTORE PUSH1 0x41 PUSH1 0x4 MSTORE PUSH1 0x24 PUSH0 REVERT JUMPDEST PUSH2 0x109A DUP3 PUSH2 0xFCA JUMP JUMPDEST DUP2 ADD DUP2 DUP2 LT PUSH8 0xFFFFFFFFFFFFFFFF DUP3 GT OR ISZERO PUSH2 0x10B9 JUMPI PUSH2 0x10B8 PUSH2 0x1064 JUMP JUMPDEST JUMPDEST DUP1 PUSH1 0x40 MSTORE POP POP POP JUMP JUMPDEST PUSH0 PUSH2 0x10CB PUSH2 0xDF2 JUMP JUMPDEST SWAP1 POP PUSH2 0x10D7 DUP3 DUP3 PUSH2 0x1091 JUMP JUMPDEST SWAP2 SWAP1 POP JUMP JUMPDEST PUSH0 PUSH8 0xFFFFFFFFFFFFFFFF DUP3 GT ISZERO PUSH2 0x10F6 JUMPI PUSH2 0x10F5 PUSH2 0x1064 JUMP JUMPDEST JUMPDEST PUSH2 0x10FF DUP3 PUSH2 0xFCA JUMP JUMPDEST SWAP1 POP PUSH1 0x20 DUP2 ADD SWAP1 POP SWAP2 SWAP1 POP JUMP JUMPDEST DUP3 DUP2 DUP4 CALLDATACOPY PUSH0 DUP4 DUP4 ADD MSTORE POP POP POP JUMP JUMPDEST PUSH0 PUSH2 0x112C PUSH2 0x1127 DUP5 PUSH2 0x10DC JUMP JUMPDEST PUSH2 0x10C2 JUMP JUMPDEST SWAP1 POP DUP3 DUP2 MSTORE PUSH1 0x20 DUP2 ADD DUP5 DUP5 DUP5 ADD GT ISZERO PUSH2 0x1148 JUMPI PUSH2 0x1147 PUSH2 0x1060 JUMP JUMPDEST JUMPDEST PUSH2 0x1153 DUP5 DUP3 DUP6 PUSH2 0x110C JUMP JUMPDEST POP SWAP4 SWAP3 POP POP POP JUMP JUMPDEST PUSH0 DUP3 PUSH1 0x1F DUP4 ADD SLT PUSH2 0x116F JUMPI PUSH2 0x116E PUSH2 0x105C JUMP JUMPDEST JUMPDEST DUP2 CALLDATALOAD PUSH2 0x117F DUP5 DUP3 PUSH1 0x20 DUP7 ADD PUSH2 0x111A JUMP JUMPDEST SWAP2 POP POP SWAP3 SWAP2 POP POP JUMP JUMPDEST PUSH0 DUP1 PUSH0 DUP1 PUSH0 PUSH1 0xA0 DUP7 DUP9 SUB SLT ISZERO PUSH2 0x11A1 JUMPI PUSH2 0x11A0 PUSH2 0xDFB JUMP JUMPDEST JUMPDEST PUSH0 PUSH2 0x11AE DUP9 DUP3 DUP10 ADD PUSH2 0xE49 JUMP JUMPDEST SWAP6 POP POP PUSH1 0x20 PUSH2 0x11BF DUP9 DUP3 DUP10 ADD PUSH2 0xE49 JUMP JUMPDEST SWAP5 POP POP PUSH1 0x40 PUSH2 0x11D0 DUP9 DUP3 DUP10 ADD PUSH2 0xE7C JUMP JUMPDEST SWAP4 POP POP PUSH1 0x60 DUP7 ADD CALLDATALOAD PUSH8 0xFFFFFFFFFFFFFFFF DUP2 GT ISZERO PUSH2 0x11F1 JUMPI PUSH2 0x11F0 PUSH2 0xDFF JUMP JUMPDEST JUMPDEST PUSH2 0x11FD DUP9 DUP3 DUP10 ADD PUSH2 0x115B JUMP JUMPDEST SWAP3 POP POP PUSH1 0x80 PUSH2 0x120E DUP9 DUP3 DUP10 ADD PUSH2 0xE7C JUMP JUMPDEST SWAP2 POP POP SWAP3 SWAP6 POP SWAP3 SWAP6 SWAP1 SWAP4 POP JUMP JUMPDEST PUSH0 PUSH1 0x60 DUP3 ADD SWAP1 POP PUSH2 0x122E PUSH0 DUP4 ADD DUP7 PUSH2 0xF51 JUMP JUMPDEST DUP2 DUP2 SUB PUSH1 0x20 DUP4 ADD MSTORE PUSH2 0x1240 DUP2 DUP6 PUSH2 0xFDA JUMP JUMPDEST SWAP1 POP PUSH2 0x124F PUSH1 0x40 DUP4 ADD DUP5 PUSH2 0xF51 JUMP JUMPDEST SWAP5 SWAP4 POP POP POP POP JUMP JUMPDEST PUSH0 PUSH1 0x20 DUP3 ADD SWAP1 POP PUSH2 0x126A PUSH0 DUP4 ADD DUP5 PUSH2 0xF79 JUMP JUMPDEST SWAP3 SWAP2 POP POP JUMP JUMPDEST PUSH0 PUSH1 0x20 DUP3 ADD SWAP1 POP DUP2 DUP2 SUB PUSH0 DUP4 ADD MSTORE PUSH2 0x1288 DUP2 DUP5 PUSH2 0xFDA JUMP JUMPDEST SWAP1 POP SWAP3 SWAP2 POP POP JUMP JUMPDEST PUSH32 0x5175616E74697479206E6F742056616C69642100000000000000000000000000 PUSH0 DUP3 ADD MSTORE POP JUMP JUMPDEST PUSH0 PUSH2 0x12C4 PUSH1 0x13 DUP4 PUSH2 0xF92 JUMP JUMPDEST SWAP2 POP PUSH2 0x12CF DUP3 PUSH2 0x1290 JUMP JUMPDEST PUSH1 0x20 DUP3 ADD SWAP1 POP SWAP2 SWAP1 POP JUMP JUMPDEST PUSH0 PUSH1 0x20 DUP3 ADD SWAP1 POP DUP2 DUP2 SUB PUSH0 DUP4 ADD MSTORE PUSH2 0x12F1 DUP2 PUSH2 0x12B8 JUMP JUMPDEST SWAP1 POP SWAP2 SWAP1 POP JUMP JUMPDEST PUSH32 0x4E487B7100000000000000000000000000000000000000000000000000000000 PUSH0 MSTORE PUSH1 0x22 PUSH1 0x4 MSTORE PUSH1 0x24 PUSH0 REVERT JUMPDEST PUSH0 PUSH1 0x2 DUP3 DIV SWAP1 POP PUSH1 0x1 DUP3 AND DUP1 PUSH2 0x133C JUMPI PUSH1 0x7F DUP3 AND SWAP2 POP JUMPDEST PUSH1 0x20 DUP3 LT DUP2 SUB PUSH2 0x134F JUMPI PUSH2 0x134E PUSH2 0x12F8 JUMP JUMPDEST JUMPDEST POP SWAP2 SWAP1 POP JUMP JUMPDEST PUSH32 0x436F6E74726F6C6C6F2064656C6C61205175616E746974612720646120757469 PUSH0 DUP3 ADD MSTORE PUSH32 0x6C697A7A617265206E6F6E20616E6461746120612062756F6E2066696E652100 PUSH1 0x20 DUP3 ADD MSTORE POP JUMP JUMPDEST PUSH0 PUSH2 0x13AF PUSH1 0x3F DUP4 PUSH2 0xF92 JUMP JUMPDEST SWAP2 POP PUSH2 0x13BA DUP3 PUSH2 0x1355 JUMP JUMPDEST PUSH1 0x40 DUP3 ADD SWAP1 POP SWAP2 SWAP1 POP JUMP JUMPDEST PUSH0 PUSH1 0x20 DUP3 ADD SWAP1 POP DUP2 DUP2 SUB PUSH0 DUP4 ADD MSTORE PUSH2 0x13DC DUP2 PUSH2 0x13A3 JUMP JUMPDEST SWAP1 POP SWAP2 SWAP1 POP JUMP JUMPDEST PUSH32 0x50617274697461206469204C61747465206E6F6E2070726573656E7465210000 PUSH0 DUP3 ADD MSTORE POP JUMP JUMPDEST PUSH0 PUSH2 0x1417 PUSH1 0x1E DUP4 PUSH2 0xF92 JUMP JUMPDEST SWAP2 POP PUSH2 0x1422 DUP3 PUSH2 0x13E3 JUMP JUMPDEST PUSH1 0x20 DUP3 ADD SWAP1 POP SWAP2 SWAP1 POP JUMP JUMPDEST PUSH0 PUSH1 0x20 DUP3 ADD SWAP1 POP DUP2 DUP2 SUB PUSH0 DUP4 ADD MSTORE PUSH2 0x1444 DUP2 PUSH2 0x140B JUMP JUMPDEST SWAP1 POP SWAP2 SWAP1 POP JUMP JUMPDEST PUSH0 DUP2 SWAP1 POP SWAP2 SWAP1 POP JUMP JUMPDEST PUSH2 0x1465 PUSH2 0x1460 DUP3 PUSH2 0xE5D JUMP JUMPDEST PUSH2 0x144B JUMP JUMPDEST DUP3 MSTORE POP POP JUMP JUMPDEST PUSH0 DUP2 SWAP1 POP SWAP3 SWAP2 POP POP JUMP JUMPDEST PUSH0 PUSH2 0x147F DUP3 PUSH2 0xF88 JUMP JUMPDEST PUSH2 0x1489 DUP2 DUP6 PUSH2 0x146B JUMP JUMPDEST SWAP4 POP PUSH2 0x1499 DUP2 DUP6 PUSH1 0x20 DUP7 ADD PUSH2 0xFA2 JUMP JUMPDEST DUP1 DUP5 ADD SWAP2 POP POP SWAP3 SWAP2 POP POP JUMP JUMPDEST PUSH0 DUP2 PUSH1 0x60 SHL SWAP1 POP SWAP2 SWAP1 POP JUMP JUMPDEST PUSH0 PUSH2 0x14BB DUP3 PUSH2 0x14A5 JUMP JUMPDEST SWAP1 POP SWAP2 SWAP1 POP JUMP JUMPDEST PUSH0 PUSH2 0x14CC DUP3 PUSH2 0x14B1 JUMP JUMPDEST SWAP1 POP SWAP2 SWAP1 POP JUMP JUMPDEST PUSH2 0x14E4 PUSH2 0x14DF DUP3 PUSH2 0xE22 JUMP JUMPDEST PUSH2 0x14C2 JUMP JUMPDEST DUP3 MSTORE POP POP JUMP JUMPDEST PUSH0 PUSH2 0x14F5 DUP3 DUP10 PUSH2 0x1454 JUMP JUMPDEST PUSH1 0x20 DUP3 ADD SWAP2 POP PUSH2 0x1505 DUP3 DUP9 PUSH2 0x1475 JUMP JUMPDEST SWAP2 POP PUSH2 0x1511 DUP3 DUP8 PUSH2 0x14D3 JUMP JUMPDEST PUSH1 0x14 DUP3 ADD SWAP2 POP PUSH2 0x1521 DUP3 DUP7 PUSH2 0x14D3 JUMP JUMPDEST PUSH1 0x14 DUP3 ADD SWAP2 POP PUSH2 0x1531 DUP3 DUP6 PUSH2 0x1454 JUMP JUMPDEST PUSH1 0x20 DUP3 ADD SWAP2 POP PUSH2 0x1541 DUP3 DUP5 PUSH2 0x1454 JUMP JUMPDEST PUSH1 0x20 DUP3 ADD SWAP2 POP DUP2 SWAP1 POP SWAP8 SWAP7 POP POP POP POP POP POP POP JUMP JUMPDEST PUSH32 0x50617274697461206469204C6174746520676961272070726573656E74652100 PUSH0 DUP3 ADD MSTORE POP JUMP JUMPDEST PUSH0 PUSH2 0x1589 PUSH1 0x1F DUP4 PUSH2 0xF92 JUMP JUMPDEST SWAP2 POP PUSH2 0x1594 DUP3 PUSH2 0x1555 JUMP JUMPDEST PUSH1 0x20 DUP3 ADD SWAP1 POP SWAP2 SWAP1 POP JUMP JUMPDEST PUSH0 PUSH1 0x20 DUP3 ADD SWAP1 POP DUP2 DUP2 SUB PUSH0 DUP4 ADD MSTORE PUSH2 0x15B6 DUP2 PUSH2 0x157D JUMP JUMPDEST SWAP1 POP SWAP2 SWAP1 POP JUMP JUMPDEST PUSH0 DUP2 SWAP1 POP DUP2 PUSH0 MSTORE PUSH1 0x20 PUSH0 KECCAK256 SWAP1 POP SWAP2 SWAP1 POP JUMP JUMPDEST PUSH0 PUSH1 0x20 PUSH1 0x1F DUP4 ADD DIV SWAP1 POP SWAP2 SWAP1 POP JUMP JUMPDEST PUSH0 DUP3 DUP3 SHL SWAP1 POP SWAP3 SWAP2 POP POP JUMP JUMPDEST PUSH0 PUSH1 0x8 DUP4 MUL PUSH2 0x1619 PUSH32 0xFFFFFFFFFFFFFFFFFFFFFFFFFFFFFFFFFFFFFFFFFFFFFFFFFFFFFFFFFFFFFFFF DUP3 PUSH2 0x15DE JUMP JUMPDEST PUSH2 0x1623 DUP7 DUP4 PUSH2 0x15DE JUMP JUMPDEST SWAP6 POP DUP1 NOT DUP5 AND SWAP4 POP DUP1 DUP7 AND DUP5 OR SWAP3 POP POP POP SWAP4 SWAP3 POP POP POP JUMP JUMPDEST PUSH0 DUP2 SWAP1 POP SWAP2 SWAP1 POP JUMP JUMPDEST PUSH0 PUSH2 0x165E PUSH2 0x1659 PUSH2 0x1654 DUP5 PUSH2 0xE5D JUMP JUMPDEST PUSH2 0x163B JUMP JUMPDEST PUSH2 0xE5D JUMP JUMPDEST SWAP1 POP SWAP2 SWAP1 POP JUMP JUMPDEST PUSH0 DUP2 SWAP1 POP SWAP2 SWAP1 POP JUMP JUMPDEST PUSH2 0x1677 DUP4 PUSH2 0x1644 JUMP JUMPDEST PUSH2 0x168B PUSH2 0x1683 DUP3 PUSH2 0x1665 JUMP JUMPDEST DUP5 DUP5 SLOAD PUSH2 0x15EA JUMP JUMPDEST DUP3 SSTORE POP POP POP POP JUMP JUMPDEST PUSH0 SWAP1 JUMP JUMPDEST PUSH2 0x169F PUSH2 0x1693 JUMP JUMPDEST PUSH2 0x16AA DUP2 DUP5 DUP5 PUSH2 0x166E JUMP JUMPDEST POP POP POP JUMP JUMPDEST JUMPDEST DUP2 DUP2 LT ISZERO PUSH2 0x16CD JUMPI PUSH2 0x16C2 PUSH0 DUP3 PUSH2 0x1697 JUMP JUMPDEST PUSH1 0x1 DUP2 ADD SWAP1 POP PUSH2 0x16B0 JUMP JUMPDEST POP POP JUMP JUMPDEST PUSH1 0x1F DUP3 GT ISZERO PUSH2 0x1712 JUMPI PUSH2 0x16E3 DUP2 PUSH2 0x15BD JUMP JUMPDEST PUSH2 0x16EC DUP5 PUSH2 0x15CF JUMP JUMPDEST DUP2 ADD PUSH1 0x20 DUP6 LT ISZERO PUSH2 0x16FB JUMPI DUP2 SWAP1 POP JUMPDEST PUSH2 0x170F PUSH2 0x1707 DUP6 PUSH2 0x15CF JUMP JUMPDEST DUP4 ADD DUP3 PUSH2 0x16AF JUMP JUMPDEST POP POP JUMPDEST POP POP POP JUMP JUMPDEST PUSH0 DUP3 DUP3 SHR SWAP1 POP SWAP3 SWAP2 POP POP JUMP JUMPDEST PUSH0 PUSH2 0x1732 PUSH0 NOT DUP5 PUSH1 0x8 MUL PUSH2 0x1717 JUMP JUMPDEST NOT DUP1 DUP4 AND SWAP2 POP POP SWAP3 SWAP2 POP POP JUMP JUMPDEST PUSH0 PUSH2 0x174A DUP4 DUP4 PUSH2 0x1723 JUMP JUMPDEST SWAP2 POP DUP3 PUSH1 0x2 MUL DUP3 OR SWAP1 POP SWAP3 SWAP2 POP POP JUMP JUMPDEST PUSH2 0x1763 DUP3 PUSH2 0xF88 JUMP JUMPDEST PUSH8 0xFFFFFFFFFFFFFFFF DUP2 GT ISZERO PUSH2 0x177C JUMPI PUSH2 0x177B PUSH2 0x1064 JUMP JUMPDEST JUMPDEST PUSH2 0x1786 DUP3 SLOAD PUSH2 0x1325 JUMP JUMPDEST PUSH2 0x1791 DUP3 DUP3 DUP6 PUSH2 0x16D1 JUMP JUMPDEST PUSH0 PUSH1 0x20 SWAP1 POP PUSH1 0x1F DUP4 GT PUSH1 0x1 DUP2 EQ PUSH2 0x17C2 JUMPI PUSH0 DUP5 ISZERO PUSH2 0x17B0 JUMPI DUP3 DUP8 ADD MLOAD SWAP1 POP JUMPDEST PUSH2 0x17BA DUP6 DUP3 PUSH2 0x173F JUMP JUMPDEST DUP7 SSTORE POP PUSH2 0x1821 JUMP JUMPDEST PUSH1 0x1F NOT DUP5 AND PUSH2 0x17D0 DUP7 PUSH2 0x15BD JUMP JUMPDEST PUSH0 JUMPDEST DUP3 DUP2 LT ISZERO PUSH2 0x17F7 JUMPI DUP5 DUP10 ADD MLOAD DUP3 SSTORE PUSH1 0x1 DUP3 ADD SWAP2 POP PUSH1 0x20 DUP6 ADD SWAP5 POP PUSH1 0x20 DUP2 ADD SWAP1 POP PUSH2 0x17D2 JUMP JUMPDEST DUP7 DUP4 LT ISZERO PUSH2 0x1814 JUMPI DUP5 DUP10 ADD MLOAD PUSH2 0x1810 PUSH1 0x1F DUP10 AND DUP3 PUSH2 0x1723 JUMP JUMPDEST DUP4 SSTORE POP JUMPDEST PUSH1 0x1 PUSH1 0x2 DUP9 MUL ADD DUP9 SSTORE POP POP POP JUMPDEST POP POP POP POP POP POP JUMP JUMPDEST PUSH32 0x494420436865657365204E6F742056616C696421000000000000000000000000 PUSH0 DUP3 ADD MSTORE POP JUMP JUMPDEST PUSH0 PUSH2 0x185D PUSH1 0x14 DUP4 PUSH2 0xF92 JUMP JUMPDEST SWAP2 POP PUSH2 0x1868 DUP3 PUSH2 0x1829 JUMP JUMPDEST PUSH1 0x20 DUP3 ADD SWAP1 POP SWAP2 SWAP1 POP JUMP JUMPDEST PUSH0 PUSH1 0x20 DUP3 ADD SWAP1 POP DUP2 DUP2 SUB PUSH0 DUP4 ADD MSTORE PUSH2 0x188A DUP2 PUSH2 0x1851 JUMP JUMPDEST SWAP1 POP SWAP2 SWAP1 POP JUMP INVALID LOG2 PUSH5 0x6970667358 0x22 SLT KECCAK256 DUP9 SWAP14 ADDRESS 0x5C GASLIMIT SELFBALANCE DUP4 PUSH1 0xC6 0xF7 PUSH22 0xE98337025979047103B019A668AA15D6EF6E6924C164 PUSH20 0x6F6C634300081600330000000000000000000000 "
				},
				"gasEstimates": {
					"creation": {
						"codeDepositCost": "1268600",
						"executionCost": "25585",
						"totalCost": "1294185"
					},
					"external": {
						"addCheeseBlock(address,address,uint256,string,uint256)": "infinite",
						"checkCheese(address,uint256,uint256)": "infinite",
						"checkQuantity(address,uint256,uint256)": "infinite",
						"getCheeseBlock(address,uint256)": "infinite",
						"getDop(address,uint256)": "infinite",
						"getId(address,uint256)": "infinite",
						"getQuantity(address,uint256)": "infinite",
						"getWalletCheeseProducer(address,uint256)": "infinite",
						"isCheesePresent(address,uint256)": "3215",
						"updateCheeseQuantity(address,uint256,uint256)": "infinite"
					}
				},
				"methodIdentifiers": {
					"addCheeseBlock(address,address,uint256,string,uint256)": "8b3c04ce",
					"checkCheese(address,uint256,uint256)": "7745770a",
					"checkQuantity(address,uint256,uint256)": "0803da24",
					"getCheeseBlock(address,uint256)": "6fb82e06",
					"getDop(address,uint256)": "f93bd021",
					"getId(address,uint256)": "c5d3e11d",
					"getQuantity(address,uint256)": "1e073fcf",
					"getWalletCheeseProducer(address,uint256)": "cc231726",
					"isCheesePresent(address,uint256)": "cfa41ed0",
					"updateCheeseQuantity(address,uint256,uint256)": "453ecf04"
				}
			},
			"storageLayout": {
				"storage": [
					{
						"astId": 3,
						"contract": "contracts/Actor/Retailer-smart-contract/inventory/RetailerCheeseBlockStorage.sol:RetailerCheeseBlockStorage",
						"label": "RetailerOrg",
						"offset": 0,
						"slot": "0",
						"type": "t_address"
					},
					{
						"astId": 30,
						"contract": "contracts/Actor/Retailer-smart-contract/inventory/RetailerCheeseBlockStorage.sol:RetailerCheeseBlockStorage",
						"label": "purchasedCheeseBlocks",
						"offset": 0,
						"slot": "1",
						"type": "t_mapping(t_address,t_mapping(t_uint256,t_struct(Cheese)23_storage))"
					}
				],
				"types": {
					"t_address": {
						"encoding": "inplace",
						"label": "address",
						"numberOfBytes": "20"
					},
					"t_mapping(t_address,t_mapping(t_uint256,t_struct(Cheese)23_storage))": {
						"encoding": "mapping",
						"key": "t_address",
						"label": "mapping(address => mapping(uint256 => struct RetailerCheeseBlockStorage.Cheese))",
						"numberOfBytes": "32",
						"value": "t_mapping(t_uint256,t_struct(Cheese)23_storage)"
					},
					"t_mapping(t_uint256,t_struct(Cheese)23_storage)": {
						"encoding": "mapping",
						"key": "t_uint256",
						"label": "mapping(uint256 => struct RetailerCheeseBlockStorage.Cheese)",
						"numberOfBytes": "32",
						"value": "t_struct(Cheese)23_storage"
					},
					"t_string_storage": {
						"encoding": "bytes",
						"label": "string",
						"numberOfBytes": "32"
					},
					"t_struct(Cheese)23_storage": {
						"encoding": "inplace",
						"label": "struct RetailerCheeseBlockStorage.Cheese",
						"members": [
							{
								"astId": 14,
								"contract": "contracts/Actor/Retailer-smart-contract/inventory/RetailerCheeseBlockStorage.sol:RetailerCheeseBlockStorage",
								"label": "id",
								"offset": 0,
								"slot": "0",
								"type": "t_uint256"
							},
							{
								"astId": 16,
								"contract": "contracts/Actor/Retailer-smart-contract/inventory/RetailerCheeseBlockStorage.sol:RetailerCheeseBlockStorage",
								"label": "id_CheeseBlock",
								"offset": 0,
								"slot": "1",
								"type": "t_uint256"
							},
							{
								"astId": 18,
								"contract": "contracts/Actor/Retailer-smart-contract/inventory/RetailerCheeseBlockStorage.sol:RetailerCheeseBlockStorage",
								"label": "walletCheeseProducer",
								"offset": 0,
								"slot": "2",
								"type": "t_address"
							},
							{
								"astId": 20,
								"contract": "contracts/Actor/Retailer-smart-contract/inventory/RetailerCheeseBlockStorage.sol:RetailerCheeseBlockStorage",
								"label": "dop",
								"offset": 0,
								"slot": "3",
								"type": "t_string_storage"
							},
							{
								"astId": 22,
								"contract": "contracts/Actor/Retailer-smart-contract/inventory/RetailerCheeseBlockStorage.sol:RetailerCheeseBlockStorage",
								"label": "quantity",
								"offset": 0,
								"slot": "4",
								"type": "t_uint256"
							}
						],
						"numberOfBytes": "160"
					},
					"t_uint256": {
						"encoding": "inplace",
						"label": "uint256",
						"numberOfBytes": "32"
					}
				}
			},
			"userdoc": {
				"kind": "user",
				"methods": {
					"addCheeseBlock(address,address,uint256,string,uint256)": {
						"notice": "Funzione addCheese() -> Utilizzata dal Transaction Manager per poter inserire il Cheese Acquistato  Scollego questa logica, ammettendo che il CheeseProducer può testare la logica di conversione  params :  - walletCheeseProducer -> mi serve per il mapping  - walletCheeseProducer -> mi serve per creare il nuovo elemento   - id_cheese -> mi serve per il riferimento all'elemento acquistato"
					},
					"isCheesePresent(address,uint256)": {
						"notice": "Funzione per la verifica dell'esistenza del prodotto Cheese acquistato  - ritorna TRUE se esiste  - ritorna FALSe se non esiste  - effettua il controllo sull'uguaglianza dell'id del Cheese Acquistato"
					}
				},
				"version": 1
			}
		}
	}
}