{
	"contracts/Actor/Retailer-smart-contract/RetailerStorage.sol": {
		"RetailerStorage": {
			"abi": [
				{
					"inputs": [],
					"stateMutability": "nonpayable",
					"type": "constructor"
				},
				{
					"inputs": [
						{
							"internalType": "string",
							"name": "_fullName",
							"type": "string"
						},
						{
							"internalType": "string",
							"name": "_password",
							"type": "string"
						},
						{
							"internalType": "string",
							"name": "_email",
							"type": "string"
						},
						{
							"internalType": "address",
							"name": "walletRetailer",
							"type": "address"
						}
					],
					"name": "addUser",
					"outputs": [],
					"stateMutability": "nonpayable",
					"type": "function"
				},
				{
					"inputs": [
						{
							"internalType": "address",
							"name": "walletRetailer",
							"type": "address"
						}
					],
					"name": "deleteUser",
					"outputs": [
						{
							"internalType": "bool",
							"name": "",
							"type": "bool"
						}
					],
					"stateMutability": "nonpayable",
					"type": "function"
				},
				{
					"inputs": [
						{
							"internalType": "address",
							"name": "walletRetailer",
							"type": "address"
						},
						{
							"internalType": "uint256",
							"name": "_id",
							"type": "uint256"
						}
					],
					"name": "getBalance",
					"outputs": [
						{
							"internalType": "uint256",
							"name": "",
							"type": "uint256"
						}
					],
					"stateMutability": "view",
					"type": "function"
				},
				{
					"inputs": [
						{
							"internalType": "address",
							"name": "walletRetailer",
							"type": "address"
						},
						{
							"internalType": "uint256",
							"name": "_id",
							"type": "uint256"
						}
					],
					"name": "getEmail",
					"outputs": [
						{
							"internalType": "string",
							"name": "",
							"type": "string"
						}
					],
					"stateMutability": "view",
					"type": "function"
				},
				{
					"inputs": [
						{
							"internalType": "address",
							"name": "walletRetailer",
							"type": "address"
						},
						{
							"internalType": "uint256",
							"name": "_id",
							"type": "uint256"
						}
					],
					"name": "getFullName",
					"outputs": [
						{
							"internalType": "string",
							"name": "",
							"type": "string"
						}
					],
					"stateMutability": "view",
					"type": "function"
				},
				{
					"inputs": [
						{
							"internalType": "address",
							"name": "walletRetailer",
							"type": "address"
						}
					],
					"name": "getId",
					"outputs": [
						{
							"internalType": "uint256",
							"name": "",
							"type": "uint256"
						}
					],
					"stateMutability": "view",
					"type": "function"
				},
				{
					"inputs": [
						{
							"internalType": "address",
							"name": "walletRetailer",
							"type": "address"
						}
					],
					"name": "getUser",
					"outputs": [
						{
							"internalType": "uint256",
							"name": "",
							"type": "uint256"
						},
						{
							"internalType": "string",
							"name": "",
							"type": "string"
						},
						{
							"internalType": "string",
							"name": "",
							"type": "string"
						},
						{
							"internalType": "string",
							"name": "",
							"type": "string"
						},
						{
							"internalType": "uint256",
							"name": "",
							"type": "uint256"
						}
					],
					"stateMutability": "view",
					"type": "function"
				},
				{
					"inputs": [
						{
							"internalType": "address",
							"name": "walletRetailer",
							"type": "address"
						}
					],
					"name": "isUserPresent",
					"outputs": [
						{
							"internalType": "bool",
							"name": "",
							"type": "bool"
						}
					],
					"stateMutability": "view",
					"type": "function"
				},
				{
					"inputs": [
						{
							"internalType": "address",
							"name": "walletRetailer",
							"type": "address"
						},
						{
							"internalType": "string",
							"name": "_email",
							"type": "string"
						},
						{
							"internalType": "string",
							"name": "_password",
							"type": "string"
						}
					],
					"name": "loginUser",
					"outputs": [
						{
							"internalType": "bool",
							"name": "",
							"type": "bool"
						}
					],
					"stateMutability": "view",
					"type": "function"
				},
				{
					"inputs": [
						{
							"internalType": "address",
							"name": "walletRetailer",
							"type": "address"
						},
						{
							"internalType": "uint256",
							"name": "balance",
							"type": "uint256"
						}
					],
					"name": "updateBalance",
					"outputs": [],
					"stateMutability": "nonpayable",
					"type": "function"
				}
			],
			"devdoc": {
				"kind": "dev",
				"methods": {},
				"version": 1
			},
			"evm": {
				"assembly": "    /* \"contracts/Actor/Retailer-smart-contract/RetailerStorage.sol\":104:5561  contract RetailerStorage is IUserStorageInterface {... */\n  mstore(0x40, 0x80)\n    /* \"contracts/Actor/Retailer-smart-contract/RetailerStorage.sol\":258:314  constructor(){... */\n  callvalue\n  dup1\n  iszero\n  tag_1\n  jumpi\n  0x00\n  dup1\n  revert\ntag_1:\n  pop\n    /* \"contracts/Actor/Retailer-smart-contract/RetailerStorage.sol\":296:306  msg.sender */\n  caller\n    /* \"contracts/Actor/Retailer-smart-contract/RetailerStorage.sol\":282:293  RetailerOrg */\n  0x00\n  dup1\n    /* \"contracts/Actor/Retailer-smart-contract/RetailerStorage.sol\":282:306  RetailerOrg = msg.sender */\n  0x0100\n  exp\n  dup2\n  sload\n  dup2\n  0xffffffffffffffffffffffffffffffffffffffff\n  mul\n  not\n  and\n  swap1\n  dup4\n  0xffffffffffffffffffffffffffffffffffffffff\n  and\n  mul\n  or\n  swap1\n  sstore\n  pop\n    /* \"contracts/Actor/Retailer-smart-contract/RetailerStorage.sol\":104:5561  contract RetailerStorage is IUserStorageInterface {... */\n  dataSize(sub_0)\n  dup1\n  dataOffset(sub_0)\n  0x00\n  codecopy\n  0x00\n  return\nstop\n\nsub_0: assembly {\n        /* \"contracts/Actor/Retailer-smart-contract/RetailerStorage.sol\":104:5561  contract RetailerStorage is IUserStorageInterface {... */\n      mstore(0x40, 0x80)\n      callvalue\n      dup1\n      iszero\n      tag_1\n      jumpi\n      0x00\n      dup1\n      revert\n    tag_1:\n      pop\n      jumpi(tag_2, lt(calldatasize, 0x04))\n      shr(0xe0, calldataload(0x00))\n      dup1\n      0x6f77926b\n      gt\n      tag_13\n      jumpi\n      dup1\n      0x6f77926b\n      eq\n      tag_8\n      jumpi\n      dup1\n      0xa5578807\n      eq\n      tag_9\n      jumpi\n      dup1\n      0xb48ff0f1\n      eq\n      tag_10\n      jumpi\n      dup1\n      0xe0b1cccb\n      eq\n      tag_11\n      jumpi\n      dup1\n      0xecca4073\n      eq\n      tag_12\n      jumpi\n      jump(tag_2)\n    tag_13:\n      dup1\n      0x06f22b04\n      eq\n      tag_3\n      jumpi\n      dup1\n      0x2b04e840\n      eq\n      tag_4\n      jumpi\n      dup1\n      0x5c60f226\n      eq\n      tag_5\n      jumpi\n      dup1\n      0x65f68c89\n      eq\n      tag_6\n      jumpi\n      dup1\n      0x6e44cd42\n      eq\n      tag_7\n      jumpi\n    tag_2:\n      0x00\n      dup1\n      revert\n        /* \"contracts/Actor/Retailer-smart-contract/RetailerStorage.sol\":2177:2622  function loginUser(address walletRetailer, string memory _email, string memory _password) external view returns(bool){... */\n    tag_3:\n      tag_14\n      0x04\n      dup1\n      calldatasize\n      sub\n      dup2\n      add\n      swap1\n      tag_15\n      swap2\n      swap1\n      tag_16\n      jump\t// in\n    tag_15:\n      tag_17\n      jump\t// in\n    tag_14:\n      mload(0x40)\n      tag_18\n      swap2\n      swap1\n      tag_19\n      jump\t// in\n    tag_18:\n      mload(0x40)\n      dup1\n      swap2\n      sub\n      swap1\n      return\n        /* \"contracts/Actor/Retailer-smart-contract/RetailerStorage.sol\":4497:4761  function getBalance(address walletRetailer, uint256 _id) external view  returns(uint256){... */\n    tag_4:\n      tag_20\n      0x04\n      dup1\n      calldatasize\n      sub\n      dup2\n      add\n      swap1\n      tag_21\n      swap2\n      swap1\n      tag_22\n      jump\t// in\n    tag_21:\n      tag_23\n      jump\t// in\n    tag_20:\n      mload(0x40)\n      tag_24\n      swap2\n      swap1\n      tag_25\n      jump\t// in\n    tag_24:\n      mload(0x40)\n      dup1\n      swap2\n      sub\n      swap1\n      return\n        /* \"contracts/Actor/Retailer-smart-contract/RetailerStorage.sol\":2707:2958  function deleteUser(address walletRetailer) external returns(bool){... */\n    tag_5:\n      tag_26\n      0x04\n      dup1\n      calldatasize\n      sub\n      dup2\n      add\n      swap1\n      tag_27\n      swap2\n      swap1\n      tag_28\n      jump\t// in\n    tag_27:\n      tag_29\n      jump\t// in\n    tag_26:\n      mload(0x40)\n      tag_30\n      swap2\n      swap1\n      tag_19\n      jump\t// in\n    tag_30:\n      mload(0x40)\n      dup1\n      swap2\n      sub\n      swap1\n      return\n        /* \"contracts/Actor/Retailer-smart-contract/RetailerStorage.sol\":3393:3563  function getId(address walletRetailer) external view  returns(uint256){... */\n    tag_6:\n      tag_31\n      0x04\n      dup1\n      calldatasize\n      sub\n      dup2\n      add\n      swap1\n      tag_32\n      swap2\n      swap1\n      tag_28\n      jump\t// in\n    tag_32:\n      tag_33\n      jump\t// in\n    tag_31:\n      mload(0x40)\n      tag_34\n      swap2\n      swap1\n      tag_25\n      jump\t// in\n    tag_34:\n      mload(0x40)\n      dup1\n      swap2\n      sub\n      swap1\n      return\n        /* \"contracts/Actor/Retailer-smart-contract/RetailerStorage.sol\":3695:3976  function getFullName(address walletRetailer, uint256 _id) external view  returns(string memory){... */\n    tag_7:\n      tag_35\n      0x04\n      dup1\n      calldatasize\n      sub\n      dup2\n      add\n      swap1\n      tag_36\n      swap2\n      swap1\n      tag_22\n      jump\t// in\n    tag_36:\n      tag_37\n      jump\t// in\n    tag_35:\n      mload(0x40)\n      tag_38\n      swap2\n      swap1\n      tag_39\n      jump\t// in\n    tag_38:\n      mload(0x40)\n      dup1\n      swap2\n      sub\n      swap1\n      return\n        /* \"contracts/Actor/Retailer-smart-contract/RetailerStorage.sol\":4929:5281  function getUser(address walletRetailer) external view returns (uint256, string memory, string memory, string memory, uint256) {... */\n    tag_8:\n      tag_40\n      0x04\n      dup1\n      calldatasize\n      sub\n      dup2\n      add\n      swap1\n      tag_41\n      swap2\n      swap1\n      tag_28\n      jump\t// in\n    tag_41:\n      tag_42\n      jump\t// in\n    tag_40:\n      mload(0x40)\n      tag_43\n      swap6\n      swap5\n      swap4\n      swap3\n      swap2\n      swap1\n      tag_44\n      jump\t// in\n    tag_43:\n      mload(0x40)\n      dup1\n      swap2\n      sub\n      swap1\n      return\n        /* \"contracts/Actor/Retailer-smart-contract/RetailerStorage.sol\":2999:3132  function isUserPresent(address walletRetailer) external view returns(bool){... */\n    tag_9:\n      tag_45\n      0x04\n      dup1\n      calldatasize\n      sub\n      dup2\n      add\n      swap1\n      tag_46\n      swap2\n      swap1\n      tag_28\n      jump\t// in\n    tag_46:\n      tag_47\n      jump\t// in\n    tag_45:\n      mload(0x40)\n      tag_48\n      swap2\n      swap1\n      tag_19\n      jump\t// in\n    tag_48:\n      mload(0x40)\n      dup1\n      swap2\n      sub\n      swap1\n      return\n        /* \"contracts/Actor/Retailer-smart-contract/RetailerStorage.sol\":841:1917  function addUser(string memory _fullName, string memory _password,string memory _email, address walletRetailer) external {... */\n    tag_10:\n      tag_49\n      0x04\n      dup1\n      calldatasize\n      sub\n      dup2\n      add\n      swap1\n      tag_50\n      swap2\n      swap1\n      tag_51\n      jump\t// in\n    tag_50:\n      tag_52\n      jump\t// in\n    tag_49:\n      stop\n        /* \"contracts/Actor/Retailer-smart-contract/RetailerStorage.sol\":5394:5556  function updateBalance(address walletRetailer, uint256 balance) external{... */\n    tag_11:\n      tag_53\n      0x04\n      dup1\n      calldatasize\n      sub\n      dup2\n      add\n      swap1\n      tag_54\n      swap2\n      swap1\n      tag_22\n      jump\t// in\n    tag_54:\n      tag_55\n      jump\t// in\n    tag_53:\n      stop\n        /* \"contracts/Actor/Retailer-smart-contract/RetailerStorage.sol\":4103:4367  function getEmail(address walletRetailer, uint256 _id) external view  returns(string memory){... */\n    tag_12:\n      tag_56\n      0x04\n      dup1\n      calldatasize\n      sub\n      dup2\n      add\n      swap1\n      tag_57\n      swap2\n      swap1\n      tag_22\n      jump\t// in\n    tag_57:\n      tag_58\n      jump\t// in\n    tag_56:\n      mload(0x40)\n      tag_59\n      swap2\n      swap1\n      tag_39\n      jump\t// in\n    tag_59:\n      mload(0x40)\n      dup1\n      swap2\n      sub\n      swap1\n      return\n        /* \"contracts/Actor/Retailer-smart-contract/RetailerStorage.sol\":2177:2622  function loginUser(address walletRetailer, string memory _email, string memory _password) external view returns(bool){... */\n    tag_17:\n        /* \"contracts/Actor/Retailer-smart-contract/RetailerStorage.sol\":2289:2293  bool */\n      0x00\n        /* \"contracts/Actor/Retailer-smart-contract/RetailerStorage.sol\":2341:2366  Retailer storage retailer */\n      dup1\n        /* \"contracts/Actor/Retailer-smart-contract/RetailerStorage.sol\":2369:2378  retailers */\n      0x01\n        /* \"contracts/Actor/Retailer-smart-contract/RetailerStorage.sol\":2369:2394  retailers[walletRetailer] */\n      0x00\n        /* \"contracts/Actor/Retailer-smart-contract/RetailerStorage.sol\":2379:2393  walletRetailer */\n      dup7\n        /* \"contracts/Actor/Retailer-smart-contract/RetailerStorage.sol\":2369:2394  retailers[walletRetailer] */\n      0xffffffffffffffffffffffffffffffffffffffff\n      and\n      0xffffffffffffffffffffffffffffffffffffffff\n      and\n      dup2\n      mstore\n      0x20\n      add\n      swap1\n      dup2\n      mstore\n      0x20\n      add\n      0x00\n      keccak256\n        /* \"contracts/Actor/Retailer-smart-contract/RetailerStorage.sol\":2341:2394  Retailer storage retailer = retailers[walletRetailer] */\n      swap1\n      pop\n        /* \"contracts/Actor/Retailer-smart-contract/RetailerStorage.sol\":2595:2601  _email */\n      dup4\n        /* \"contracts/Actor/Retailer-smart-contract/RetailerStorage.sol\":2603:2612  _password */\n      dup4\n        /* \"contracts/Actor/Retailer-smart-contract/RetailerStorage.sol\":2578:2613  abi.encodePacked(_email, _password) */\n      add(0x20, mload(0x40))\n      tag_61\n      swap3\n      swap2\n      swap1\n      tag_62\n      jump\t// in\n    tag_61:\n      mload(0x40)\n      0x20\n      dup2\n      dup4\n      sub\n      sub\n      dup2\n      mstore\n      swap1\n      0x40\n      mstore\n        /* \"contracts/Actor/Retailer-smart-contract/RetailerStorage.sol\":2568:2614  keccak256(abi.encodePacked(_email, _password)) */\n      dup1\n      mload\n      swap1\n      0x20\n      add\n      keccak256\n        /* \"contracts/Actor/Retailer-smart-contract/RetailerStorage.sol\":2529:2537  retailer */\n      dup2\n        /* \"contracts/Actor/Retailer-smart-contract/RetailerStorage.sol\":2529:2543  retailer.email */\n      0x03\n      add\n        /* \"contracts/Actor/Retailer-smart-contract/RetailerStorage.sol\":2545:2553  retailer */\n      dup3\n        /* \"contracts/Actor/Retailer-smart-contract/RetailerStorage.sol\":2545:2562  retailer.password */\n      0x02\n      add\n        /* \"contracts/Actor/Retailer-smart-contract/RetailerStorage.sol\":2512:2563  abi.encodePacked(retailer.email, retailer.password) */\n      add(0x20, mload(0x40))\n      tag_63\n      swap3\n      swap2\n      swap1\n      tag_64\n      jump\t// in\n    tag_63:\n      mload(0x40)\n      0x20\n      dup2\n      dup4\n      sub\n      sub\n      dup2\n      mstore\n      swap1\n      0x40\n      mstore\n        /* \"contracts/Actor/Retailer-smart-contract/RetailerStorage.sol\":2502:2564  keccak256(abi.encodePacked(retailer.email, retailer.password)) */\n      dup1\n      mload\n      swap1\n      0x20\n      add\n      keccak256\n        /* \"contracts/Actor/Retailer-smart-contract/RetailerStorage.sol\":2502:2614  keccak256(abi.encodePacked(retailer.email, retailer.password)) == keccak256(abi.encodePacked(_email, _password)) */\n      eq\n        /* \"contracts/Actor/Retailer-smart-contract/RetailerStorage.sol\":2495:2614  return keccak256(abi.encodePacked(retailer.email, retailer.password)) == keccak256(abi.encodePacked(_email, _password)) */\n      swap2\n      pop\n      pop\n        /* \"contracts/Actor/Retailer-smart-contract/RetailerStorage.sol\":2177:2622  function loginUser(address walletRetailer, string memory _email, string memory _password) external view returns(bool){... */\n      swap4\n      swap3\n      pop\n      pop\n      pop\n      jump\t// out\n        /* \"contracts/Actor/Retailer-smart-contract/RetailerStorage.sol\":4497:4761  function getBalance(address walletRetailer, uint256 _id) external view  returns(uint256){... */\n    tag_23:\n        /* \"contracts/Actor/Retailer-smart-contract/RetailerStorage.sol\":4577:4584  uint256 */\n      0x00\n        /* \"contracts/Actor/Retailer-smart-contract/RetailerStorage.sol\":4636:4639  _id */\n      dup2\n        /* \"contracts/Actor/Retailer-smart-contract/RetailerStorage.sol\":4604:4613  retailers */\n      0x01\n        /* \"contracts/Actor/Retailer-smart-contract/RetailerStorage.sol\":4604:4629  retailers[walletRetailer] */\n      0x00\n        /* \"contracts/Actor/Retailer-smart-contract/RetailerStorage.sol\":4614:4628  walletRetailer */\n      dup6\n        /* \"contracts/Actor/Retailer-smart-contract/RetailerStorage.sol\":4604:4629  retailers[walletRetailer] */\n      0xffffffffffffffffffffffffffffffffffffffff\n      and\n      0xffffffffffffffffffffffffffffffffffffffff\n      and\n      dup2\n      mstore\n      0x20\n      add\n      swap1\n      dup2\n      mstore\n      0x20\n      add\n      0x00\n      keccak256\n        /* \"contracts/Actor/Retailer-smart-contract/RetailerStorage.sol\":4604:4632  retailers[walletRetailer].id */\n      0x00\n      add\n      sload\n        /* \"contracts/Actor/Retailer-smart-contract/RetailerStorage.sol\":4604:4639  retailers[walletRetailer].id == _id */\n      eq\n        /* \"contracts/Actor/Retailer-smart-contract/RetailerStorage.sol\":4596:4656  require(retailers[walletRetailer].id == _id,\"ID not Valid!\") */\n      tag_66\n      jumpi\n      mload(0x40)\n      0x08c379a000000000000000000000000000000000000000000000000000000000\n      dup2\n      mstore\n      0x04\n      add\n      tag_67\n      swap1\n      tag_68\n      jump\t// in\n    tag_67:\n      mload(0x40)\n      dup1\n      swap2\n      sub\n      swap1\n      revert\n    tag_66:\n        /* \"contracts/Actor/Retailer-smart-contract/RetailerStorage.sol\":4667:4691  Retailer memory retailer */\n      0x00\n        /* \"contracts/Actor/Retailer-smart-contract/RetailerStorage.sol\":4694:4703  retailers */\n      0x01\n        /* \"contracts/Actor/Retailer-smart-contract/RetailerStorage.sol\":4694:4719  retailers[walletRetailer] */\n      0x00\n        /* \"contracts/Actor/Retailer-smart-contract/RetailerStorage.sol\":4704:4718  walletRetailer */\n      dup6\n        /* \"contracts/Actor/Retailer-smart-contract/RetailerStorage.sol\":4694:4719  retailers[walletRetailer] */\n      0xffffffffffffffffffffffffffffffffffffffff\n      and\n      0xffffffffffffffffffffffffffffffffffffffff\n      and\n      dup2\n      mstore\n      0x20\n      add\n      swap1\n      dup2\n      mstore\n      0x20\n      add\n      0x00\n      keccak256\n        /* \"contracts/Actor/Retailer-smart-contract/RetailerStorage.sol\":4667:4719  Retailer memory retailer = retailers[walletRetailer] */\n      mload(0x40)\n      dup1\n      0xa0\n      add\n      0x40\n      mstore\n      swap1\n      dup2\n      0x00\n      dup3\n      add\n      sload\n      dup2\n      mstore\n      0x20\n      add\n      0x01\n      dup3\n      add\n      dup1\n      sload\n      tag_69\n      swap1\n      tag_70\n      jump\t// in\n    tag_69:\n      dup1\n      0x1f\n      add\n      0x20\n      dup1\n      swap2\n      div\n      mul\n      0x20\n      add\n      mload(0x40)\n      swap1\n      dup2\n      add\n      0x40\n      mstore\n      dup1\n      swap3\n      swap2\n      swap1\n      dup2\n      dup2\n      mstore\n      0x20\n      add\n      dup3\n      dup1\n      sload\n      tag_71\n      swap1\n      tag_70\n      jump\t// in\n    tag_71:\n      dup1\n      iszero\n      tag_72\n      jumpi\n      dup1\n      0x1f\n      lt\n      tag_73\n      jumpi\n      0x0100\n      dup1\n      dup4\n      sload\n      div\n      mul\n      dup4\n      mstore\n      swap2\n      0x20\n      add\n      swap2\n      jump(tag_72)\n    tag_73:\n      dup3\n      add\n      swap2\n      swap1\n      0x00\n      mstore\n      keccak256(0x00, 0x20)\n      swap1\n    tag_74:\n      dup2\n      sload\n      dup2\n      mstore\n      swap1\n      0x01\n      add\n      swap1\n      0x20\n      add\n      dup1\n      dup4\n      gt\n      tag_74\n      jumpi\n      dup3\n      swap1\n      sub\n      0x1f\n      and\n      dup3\n      add\n      swap2\n    tag_72:\n      pop\n      pop\n      pop\n      pop\n      pop\n      dup2\n      mstore\n      0x20\n      add\n      0x02\n      dup3\n      add\n      dup1\n      sload\n      tag_75\n      swap1\n      tag_70\n      jump\t// in\n    tag_75:\n      dup1\n      0x1f\n      add\n      0x20\n      dup1\n      swap2\n      div\n      mul\n      0x20\n      add\n      mload(0x40)\n      swap1\n      dup2\n      add\n      0x40\n      mstore\n      dup1\n      swap3\n      swap2\n      swap1\n      dup2\n      dup2\n      mstore\n      0x20\n      add\n      dup3\n      dup1\n      sload\n      tag_76\n      swap1\n      tag_70\n      jump\t// in\n    tag_76:\n      dup1\n      iszero\n      tag_77\n      jumpi\n      dup1\n      0x1f\n      lt\n      tag_78\n      jumpi\n      0x0100\n      dup1\n      dup4\n      sload\n      div\n      mul\n      dup4\n      mstore\n      swap2\n      0x20\n      add\n      swap2\n      jump(tag_77)\n    tag_78:\n      dup3\n      add\n      swap2\n      swap1\n      0x00\n      mstore\n      keccak256(0x00, 0x20)\n      swap1\n    tag_79:\n      dup2\n      sload\n      dup2\n      mstore\n      swap1\n      0x01\n      add\n      swap1\n      0x20\n      add\n      dup1\n      dup4\n      gt\n      tag_79\n      jumpi\n      dup3\n      swap1\n      sub\n      0x1f\n      and\n      dup3\n      add\n      swap2\n    tag_77:\n      pop\n      pop\n      pop\n      pop\n      pop\n      dup2\n      mstore\n      0x20\n      add\n      0x03\n      dup3\n      add\n      dup1\n      sload\n      tag_80\n      swap1\n      tag_70\n      jump\t// in\n    tag_80:\n      dup1\n      0x1f\n      add\n      0x20\n      dup1\n      swap2\n      div\n      mul\n      0x20\n      add\n      mload(0x40)\n      swap1\n      dup2\n      add\n      0x40\n      mstore\n      dup1\n      swap3\n      swap2\n      swap1\n      dup2\n      dup2\n      mstore\n      0x20\n      add\n      dup3\n      dup1\n      sload\n      tag_81\n      swap1\n      tag_70\n      jump\t// in\n    tag_81:\n      dup1\n      iszero\n      tag_82\n      jumpi\n      dup1\n      0x1f\n      lt\n      tag_83\n      jumpi\n      0x0100\n      dup1\n      dup4\n      sload\n      div\n      mul\n      dup4\n      mstore\n      swap2\n      0x20\n      add\n      swap2\n      jump(tag_82)\n    tag_83:\n      dup3\n      add\n      swap2\n      swap1\n      0x00\n      mstore\n      keccak256(0x00, 0x20)\n      swap1\n    tag_84:\n      dup2\n      sload\n      dup2\n      mstore\n      swap1\n      0x01\n      add\n      swap1\n      0x20\n      add\n      dup1\n      dup4\n      gt\n      tag_84\n      jumpi\n      dup3\n      swap1\n      sub\n      0x1f\n      and\n      dup3\n      add\n      swap2\n    tag_82:\n      pop\n      pop\n      pop\n      pop\n      pop\n      dup2\n      mstore\n      0x20\n      add\n      0x04\n      dup3\n      add\n      sload\n      dup2\n      mstore\n      pop\n      pop\n      swap1\n      pop\n        /* \"contracts/Actor/Retailer-smart-contract/RetailerStorage.sol\":4737:4745  retailer */\n      dup1\n        /* \"contracts/Actor/Retailer-smart-contract/RetailerStorage.sol\":4737:4753  retailer.balance */\n      0x80\n      add\n      mload\n        /* \"contracts/Actor/Retailer-smart-contract/RetailerStorage.sol\":4730:4753  return retailer.balance */\n      swap2\n      pop\n      pop\n        /* \"contracts/Actor/Retailer-smart-contract/RetailerStorage.sol\":4497:4761  function getBalance(address walletRetailer, uint256 _id) external view  returns(uint256){... */\n      swap3\n      swap2\n      pop\n      pop\n      jump\t// out\n        /* \"contracts/Actor/Retailer-smart-contract/RetailerStorage.sol\":2707:2958  function deleteUser(address walletRetailer) external returns(bool){... */\n    tag_29:\n        /* \"contracts/Actor/Retailer-smart-contract/RetailerStorage.sol\":2768:2772  bool */\n      0x00\n        /* \"contracts/Actor/Retailer-smart-contract/RetailerStorage.sol\":2793:2802  retailers */\n      0x01\n        /* \"contracts/Actor/Retailer-smart-contract/RetailerStorage.sol\":2793:2818  retailers[walletRetailer] */\n      0x00\n        /* \"contracts/Actor/Retailer-smart-contract/RetailerStorage.sol\":2803:2817  walletRetailer */\n      dup4\n        /* \"contracts/Actor/Retailer-smart-contract/RetailerStorage.sol\":2793:2818  retailers[walletRetailer] */\n      0xffffffffffffffffffffffffffffffffffffffff\n      and\n      0xffffffffffffffffffffffffffffffffffffffff\n      and\n      dup2\n      mstore\n      0x20\n      add\n      swap1\n      dup2\n      mstore\n      0x20\n      add\n      0x00\n      keccak256\n      0x00\n        /* \"contracts/Actor/Retailer-smart-contract/RetailerStorage.sol\":2786:2818  delete retailers[walletRetailer] */\n      dup1\n      dup3\n      add\n      0x00\n      swap1\n      sstore\n      0x01\n      dup3\n      add\n      0x00\n      tag_86\n      swap2\n      swap1\n      tag_87\n      jump\t// in\n    tag_86:\n      0x02\n      dup3\n      add\n      0x00\n      tag_88\n      swap2\n      swap1\n      tag_87\n      jump\t// in\n    tag_88:\n      0x03\n      dup3\n      add\n      0x00\n      tag_89\n      swap2\n      swap1\n      tag_87\n      jump\t// in\n    tag_89:\n      0x04\n      dup3\n      add\n      0x00\n      swap1\n      sstore\n      pop\n      pop\n        /* \"contracts/Actor/Retailer-smart-contract/RetailerStorage.sol\":2866:2867  0 */\n      0x00\n        /* \"contracts/Actor/Retailer-smart-contract/RetailerStorage.sol\":2834:2843  retailers */\n      0x01\n        /* \"contracts/Actor/Retailer-smart-contract/RetailerStorage.sol\":2834:2859  retailers[walletRetailer] */\n      0x00\n        /* \"contracts/Actor/Retailer-smart-contract/RetailerStorage.sol\":2844:2858  walletRetailer */\n      dup5\n        /* \"contracts/Actor/Retailer-smart-contract/RetailerStorage.sol\":2834:2859  retailers[walletRetailer] */\n      0xffffffffffffffffffffffffffffffffffffffff\n      and\n      0xffffffffffffffffffffffffffffffffffffffff\n      and\n      dup2\n      mstore\n      0x20\n      add\n      swap1\n      dup2\n      mstore\n      0x20\n      add\n      0x00\n      keccak256\n        /* \"contracts/Actor/Retailer-smart-contract/RetailerStorage.sol\":2834:2862  retailers[walletRetailer].id */\n      0x00\n      add\n      sload\n        /* \"contracts/Actor/Retailer-smart-contract/RetailerStorage.sol\":2834:2867  retailers[walletRetailer].id == 0 */\n      sub\n        /* \"contracts/Actor/Retailer-smart-contract/RetailerStorage.sol\":2831:2951  if(retailers[walletRetailer].id == 0 ){... */\n      tag_90\n      jumpi\n        /* \"contracts/Actor/Retailer-smart-contract/RetailerStorage.sol\":2891:2895  true */\n      0x01\n        /* \"contracts/Actor/Retailer-smart-contract/RetailerStorage.sol\":2884:2895  return true */\n      swap1\n      pop\n      jump(tag_85)\n        /* \"contracts/Actor/Retailer-smart-contract/RetailerStorage.sol\":2831:2951  if(retailers[walletRetailer].id == 0 ){... */\n    tag_90:\n        /* \"contracts/Actor/Retailer-smart-contract/RetailerStorage.sol\":2934:2939  false */\n      0x00\n        /* \"contracts/Actor/Retailer-smart-contract/RetailerStorage.sol\":2927:2939  return false */\n      swap1\n      pop\n        /* \"contracts/Actor/Retailer-smart-contract/RetailerStorage.sol\":2707:2958  function deleteUser(address walletRetailer) external returns(bool){... */\n    tag_85:\n      swap2\n      swap1\n      pop\n      jump\t// out\n        /* \"contracts/Actor/Retailer-smart-contract/RetailerStorage.sol\":3393:3563  function getId(address walletRetailer) external view  returns(uint256){... */\n    tag_33:\n        /* \"contracts/Actor/Retailer-smart-contract/RetailerStorage.sol\":3455:3462  uint256 */\n      0x00\n        /* \"contracts/Actor/Retailer-smart-contract/RetailerStorage.sol\":3474:3498  Retailer memory retailer */\n      dup1\n        /* \"contracts/Actor/Retailer-smart-contract/RetailerStorage.sol\":3501:3510  retailers */\n      0x01\n        /* \"contracts/Actor/Retailer-smart-contract/RetailerStorage.sol\":3501:3526  retailers[walletRetailer] */\n      0x00\n        /* \"contracts/Actor/Retailer-smart-contract/RetailerStorage.sol\":3511:3525  walletRetailer */\n      dup5\n        /* \"contracts/Actor/Retailer-smart-contract/RetailerStorage.sol\":3501:3526  retailers[walletRetailer] */\n      0xffffffffffffffffffffffffffffffffffffffff\n      and\n      0xffffffffffffffffffffffffffffffffffffffff\n      and\n      dup2\n      mstore\n      0x20\n      add\n      swap1\n      dup2\n      mstore\n      0x20\n      add\n      0x00\n      keccak256\n        /* \"contracts/Actor/Retailer-smart-contract/RetailerStorage.sol\":3474:3526  Retailer memory retailer = retailers[walletRetailer] */\n      mload(0x40)\n      dup1\n      0xa0\n      add\n      0x40\n      mstore\n      swap1\n      dup2\n      0x00\n      dup3\n      add\n      sload\n      dup2\n      mstore\n      0x20\n      add\n      0x01\n      dup3\n      add\n      dup1\n      sload\n      tag_93\n      swap1\n      tag_70\n      jump\t// in\n    tag_93:\n      dup1\n      0x1f\n      add\n      0x20\n      dup1\n      swap2\n      div\n      mul\n      0x20\n      add\n      mload(0x40)\n      swap1\n      dup2\n      add\n      0x40\n      mstore\n      dup1\n      swap3\n      swap2\n      swap1\n      dup2\n      dup2\n      mstore\n      0x20\n      add\n      dup3\n      dup1\n      sload\n      tag_94\n      swap1\n      tag_70\n      jump\t// in\n    tag_94:\n      dup1\n      iszero\n      tag_95\n      jumpi\n      dup1\n      0x1f\n      lt\n      tag_96\n      jumpi\n      0x0100\n      dup1\n      dup4\n      sload\n      div\n      mul\n      dup4\n      mstore\n      swap2\n      0x20\n      add\n      swap2\n      jump(tag_95)\n    tag_96:\n      dup3\n      add\n      swap2\n      swap1\n      0x00\n      mstore\n      keccak256(0x00, 0x20)\n      swap1\n    tag_97:\n      dup2\n      sload\n      dup2\n      mstore\n      swap1\n      0x01\n      add\n      swap1\n      0x20\n      add\n      dup1\n      dup4\n      gt\n      tag_97\n      jumpi\n      dup3\n      swap1\n      sub\n      0x1f\n      and\n      dup3\n      add\n      swap2\n    tag_95:\n      pop\n      pop\n      pop\n      pop\n      pop\n      dup2\n      mstore\n      0x20\n      add\n      0x02\n      dup3\n      add\n      dup1\n      sload\n      tag_98\n      swap1\n      tag_70\n      jump\t// in\n    tag_98:\n      dup1\n      0x1f\n      add\n      0x20\n      dup1\n      swap2\n      div\n      mul\n      0x20\n      add\n      mload(0x40)\n      swap1\n      dup2\n      add\n      0x40\n      mstore\n      dup1\n      swap3\n      swap2\n      swap1\n      dup2\n      dup2\n      mstore\n      0x20\n      add\n      dup3\n      dup1\n      sload\n      tag_99\n      swap1\n      tag_70\n      jump\t// in\n    tag_99:\n      dup1\n      iszero\n      tag_100\n      jumpi\n      dup1\n      0x1f\n      lt\n      tag_101\n      jumpi\n      0x0100\n      dup1\n      dup4\n      sload\n      div\n      mul\n      dup4\n      mstore\n      swap2\n      0x20\n      add\n      swap2\n      jump(tag_100)\n    tag_101:\n      dup3\n      add\n      swap2\n      swap1\n      0x00\n      mstore\n      keccak256(0x00, 0x20)\n      swap1\n    tag_102:\n      dup2\n      sload\n      dup2\n      mstore\n      swap1\n      0x01\n      add\n      swap1\n      0x20\n      add\n      dup1\n      dup4\n      gt\n      tag_102\n      jumpi\n      dup3\n      swap1\n      sub\n      0x1f\n      and\n      dup3\n      add\n      swap2\n    tag_100:\n      pop\n      pop\n      pop\n      pop\n      pop\n      dup2\n      mstore\n      0x20\n      add\n      0x03\n      dup3\n      add\n      dup1\n      sload\n      tag_103\n      swap1\n      tag_70\n      jump\t// in\n    tag_103:\n      dup1\n      0x1f\n      add\n      0x20\n      dup1\n      swap2\n      div\n      mul\n      0x20\n      add\n      mload(0x40)\n      swap1\n      dup2\n      add\n      0x40\n      mstore\n      dup1\n      swap3\n      swap2\n      swap1\n      dup2\n      dup2\n      mstore\n      0x20\n      add\n      dup3\n      dup1\n      sload\n      tag_104\n      swap1\n      tag_70\n      jump\t// in\n    tag_104:\n      dup1\n      iszero\n      tag_105\n      jumpi\n      dup1\n      0x1f\n      lt\n      tag_106\n      jumpi\n      0x0100\n      dup1\n      dup4\n      sload\n      div\n      mul\n      dup4\n      mstore\n      swap2\n      0x20\n      add\n      swap2\n      jump(tag_105)\n    tag_106:\n      dup3\n      add\n      swap2\n      swap1\n      0x00\n      mstore\n      keccak256(0x00, 0x20)\n      swap1\n    tag_107:\n      dup2\n      sload\n      dup2\n      mstore\n      swap1\n      0x01\n      add\n      swap1\n      0x20\n      add\n      dup1\n      dup4\n      gt\n      tag_107\n      jumpi\n      dup3\n      swap1\n      sub\n      0x1f\n      and\n      dup3\n      add\n      swap2\n    tag_105:\n      pop\n      pop\n      pop\n      pop\n      pop\n      dup2\n      mstore\n      0x20\n      add\n      0x04\n      dup3\n      add\n      sload\n      dup2\n      mstore\n      pop\n      pop\n      swap1\n      pop\n        /* \"contracts/Actor/Retailer-smart-contract/RetailerStorage.sol\":3544:3552  retailer */\n      dup1\n        /* \"contracts/Actor/Retailer-smart-contract/RetailerStorage.sol\":3544:3555  retailer.id */\n      0x00\n      add\n      mload\n        /* \"contracts/Actor/Retailer-smart-contract/RetailerStorage.sol\":3537:3555  return retailer.id */\n      swap2\n      pop\n      pop\n        /* \"contracts/Actor/Retailer-smart-contract/RetailerStorage.sol\":3393:3563  function getId(address walletRetailer) external view  returns(uint256){... */\n      swap2\n      swap1\n      pop\n      jump\t// out\n        /* \"contracts/Actor/Retailer-smart-contract/RetailerStorage.sol\":3695:3976  function getFullName(address walletRetailer, uint256 _id) external view  returns(string memory){... */\n    tag_37:\n        /* \"contracts/Actor/Retailer-smart-contract/RetailerStorage.sol\":3776:3789  string memory */\n      0x60\n        /* \"contracts/Actor/Retailer-smart-contract/RetailerStorage.sol\":3840:3843  _id */\n      dup2\n        /* \"contracts/Actor/Retailer-smart-contract/RetailerStorage.sol\":3809:3818  retailers */\n      0x01\n        /* \"contracts/Actor/Retailer-smart-contract/RetailerStorage.sol\":3809:3834  retailers[walletRetailer] */\n      0x00\n        /* \"contracts/Actor/Retailer-smart-contract/RetailerStorage.sol\":3819:3833  walletRetailer */\n      dup6\n        /* \"contracts/Actor/Retailer-smart-contract/RetailerStorage.sol\":3809:3834  retailers[walletRetailer] */\n      0xffffffffffffffffffffffffffffffffffffffff\n      and\n      0xffffffffffffffffffffffffffffffffffffffff\n      and\n      dup2\n      mstore\n      0x20\n      add\n      swap1\n      dup2\n      mstore\n      0x20\n      add\n      0x00\n      keccak256\n        /* \"contracts/Actor/Retailer-smart-contract/RetailerStorage.sol\":3809:3837  retailers[walletRetailer].id */\n      0x00\n      add\n      sload\n        /* \"contracts/Actor/Retailer-smart-contract/RetailerStorage.sol\":3809:3843  retailers[walletRetailer].id ==_id */\n      eq\n        /* \"contracts/Actor/Retailer-smart-contract/RetailerStorage.sol\":3801:3860  require(retailers[walletRetailer].id ==_id,\"ID not Valid!\") */\n      tag_109\n      jumpi\n      mload(0x40)\n      0x08c379a000000000000000000000000000000000000000000000000000000000\n      dup2\n      mstore\n      0x04\n      add\n      tag_110\n      swap1\n      tag_68\n      jump\t// in\n    tag_110:\n      mload(0x40)\n      dup1\n      swap2\n      sub\n      swap1\n      revert\n    tag_109:\n        /* \"contracts/Actor/Retailer-smart-contract/RetailerStorage.sol\":3881:3905  Retailer memory retailer */\n      0x00\n        /* \"contracts/Actor/Retailer-smart-contract/RetailerStorage.sol\":3908:3917  retailers */\n      0x01\n        /* \"contracts/Actor/Retailer-smart-contract/RetailerStorage.sol\":3908:3933  retailers[walletRetailer] */\n      0x00\n        /* \"contracts/Actor/Retailer-smart-contract/RetailerStorage.sol\":3918:3932  walletRetailer */\n      dup6\n        /* \"contracts/Actor/Retailer-smart-contract/RetailerStorage.sol\":3908:3933  retailers[walletRetailer] */\n      0xffffffffffffffffffffffffffffffffffffffff\n      and\n      0xffffffffffffffffffffffffffffffffffffffff\n      and\n      dup2\n      mstore\n      0x20\n      add\n      swap1\n      dup2\n      mstore\n      0x20\n      add\n      0x00\n      keccak256\n        /* \"contracts/Actor/Retailer-smart-contract/RetailerStorage.sol\":3881:3933  Retailer memory retailer = retailers[walletRetailer] */\n      mload(0x40)\n      dup1\n      0xa0\n      add\n      0x40\n      mstore\n      swap1\n      dup2\n      0x00\n      dup3\n      add\n      sload\n      dup2\n      mstore\n      0x20\n      add\n      0x01\n      dup3\n      add\n      dup1\n      sload\n      tag_111\n      swap1\n      tag_70\n      jump\t// in\n    tag_111:\n      dup1\n      0x1f\n      add\n      0x20\n      dup1\n      swap2\n      div\n      mul\n      0x20\n      add\n      mload(0x40)\n      swap1\n      dup2\n      add\n      0x40\n      mstore\n      dup1\n      swap3\n      swap2\n      swap1\n      dup2\n      dup2\n      mstore\n      0x20\n      add\n      dup3\n      dup1\n      sload\n      tag_112\n      swap1\n      tag_70\n      jump\t// in\n    tag_112:\n      dup1\n      iszero\n      tag_113\n      jumpi\n      dup1\n      0x1f\n      lt\n      tag_114\n      jumpi\n      0x0100\n      dup1\n      dup4\n      sload\n      div\n      mul\n      dup4\n      mstore\n      swap2\n      0x20\n      add\n      swap2\n      jump(tag_113)\n    tag_114:\n      dup3\n      add\n      swap2\n      swap1\n      0x00\n      mstore\n      keccak256(0x00, 0x20)\n      swap1\n    tag_115:\n      dup2\n      sload\n      dup2\n      mstore\n      swap1\n      0x01\n      add\n      swap1\n      0x20\n      add\n      dup1\n      dup4\n      gt\n      tag_115\n      jumpi\n      dup3\n      swap1\n      sub\n      0x1f\n      and\n      dup3\n      add\n      swap2\n    tag_113:\n      pop\n      pop\n      pop\n      pop\n      pop\n      dup2\n      mstore\n      0x20\n      add\n      0x02\n      dup3\n      add\n      dup1\n      sload\n      tag_116\n      swap1\n      tag_70\n      jump\t// in\n    tag_116:\n      dup1\n      0x1f\n      add\n      0x20\n      dup1\n      swap2\n      div\n      mul\n      0x20\n      add\n      mload(0x40)\n      swap1\n      dup2\n      add\n      0x40\n      mstore\n      dup1\n      swap3\n      swap2\n      swap1\n      dup2\n      dup2\n      mstore\n      0x20\n      add\n      dup3\n      dup1\n      sload\n      tag_117\n      swap1\n      tag_70\n      jump\t// in\n    tag_117:\n      dup1\n      iszero\n      tag_118\n      jumpi\n      dup1\n      0x1f\n      lt\n      tag_119\n      jumpi\n      0x0100\n      dup1\n      dup4\n      sload\n      div\n      mul\n      dup4\n      mstore\n      swap2\n      0x20\n      add\n      swap2\n      jump(tag_118)\n    tag_119:\n      dup3\n      add\n      swap2\n      swap1\n      0x00\n      mstore\n      keccak256(0x00, 0x20)\n      swap1\n    tag_120:\n      dup2\n      sload\n      dup2\n      mstore\n      swap1\n      0x01\n      add\n      swap1\n      0x20\n      add\n      dup1\n      dup4\n      gt\n      tag_120\n      jumpi\n      dup3\n      swap1\n      sub\n      0x1f\n      and\n      dup3\n      add\n      swap2\n    tag_118:\n      pop\n      pop\n      pop\n      pop\n      pop\n      dup2\n      mstore\n      0x20\n      add\n      0x03\n      dup3\n      add\n      dup1\n      sload\n      tag_121\n      swap1\n      tag_70\n      jump\t// in\n    tag_121:\n      dup1\n      0x1f\n      add\n      0x20\n      dup1\n      swap2\n      div\n      mul\n      0x20\n      add\n      mload(0x40)\n      swap1\n      dup2\n      add\n      0x40\n      mstore\n      dup1\n      swap3\n      swap2\n      swap1\n      dup2\n      dup2\n      mstore\n      0x20\n      add\n      dup3\n      dup1\n      sload\n      tag_122\n      swap1\n      tag_70\n      jump\t// in\n    tag_122:\n      dup1\n      iszero\n      tag_123\n      jumpi\n      dup1\n      0x1f\n      lt\n      tag_124\n      jumpi\n      0x0100\n      dup1\n      dup4\n      sload\n      div\n      mul\n      dup4\n      mstore\n      swap2\n      0x20\n      add\n      swap2\n      jump(tag_123)\n    tag_124:\n      dup3\n      add\n      swap2\n      swap1\n      0x00\n      mstore\n      keccak256(0x00, 0x20)\n      swap1\n    tag_125:\n      dup2\n      sload\n      dup2\n      mstore\n      swap1\n      0x01\n      add\n      swap1\n      0x20\n      add\n      dup1\n      dup4\n      gt\n      tag_125\n      jumpi\n      dup3\n      swap1\n      sub\n      0x1f\n      and\n      dup3\n      add\n      swap2\n    tag_123:\n      pop\n      pop\n      pop\n      pop\n      pop\n      dup2\n      mstore\n      0x20\n      add\n      0x04\n      dup3\n      add\n      sload\n      dup2\n      mstore\n      pop\n      pop\n      swap1\n      pop\n        /* \"contracts/Actor/Retailer-smart-contract/RetailerStorage.sol\":3951:3959  retailer */\n      dup1\n        /* \"contracts/Actor/Retailer-smart-contract/RetailerStorage.sol\":3951:3968  retailer.fullName */\n      0x20\n      add\n      mload\n        /* \"contracts/Actor/Retailer-smart-contract/RetailerStorage.sol\":3944:3968  return retailer.fullName */\n      swap2\n      pop\n      pop\n        /* \"contracts/Actor/Retailer-smart-contract/RetailerStorage.sol\":3695:3976  function getFullName(address walletRetailer, uint256 _id) external view  returns(string memory){... */\n      swap3\n      swap2\n      pop\n      pop\n      jump\t// out\n        /* \"contracts/Actor/Retailer-smart-contract/RetailerStorage.sol\":4929:5281  function getUser(address walletRetailer) external view returns (uint256, string memory, string memory, string memory, uint256) {... */\n    tag_42:\n        /* \"contracts/Actor/Retailer-smart-contract/RetailerStorage.sol\":4993:5000  uint256 */\n      0x00\n        /* \"contracts/Actor/Retailer-smart-contract/RetailerStorage.sol\":5002:5015  string memory */\n      0x60\n        /* \"contracts/Actor/Retailer-smart-contract/RetailerStorage.sol\":5017:5030  string memory */\n      dup1\n        /* \"contracts/Actor/Retailer-smart-contract/RetailerStorage.sol\":5032:5045  string memory */\n      0x60\n        /* \"contracts/Actor/Retailer-smart-contract/RetailerStorage.sol\":5047:5054  uint256 */\n      0x00\n        /* \"contracts/Actor/Retailer-smart-contract/RetailerStorage.sol\":5069:5093  Retailer memory retailer */\n      dup1\n        /* \"contracts/Actor/Retailer-smart-contract/RetailerStorage.sol\":5096:5105  retailers */\n      0x01\n        /* \"contracts/Actor/Retailer-smart-contract/RetailerStorage.sol\":5096:5121  retailers[walletRetailer] */\n      0x00\n        /* \"contracts/Actor/Retailer-smart-contract/RetailerStorage.sol\":5106:5120  walletRetailer */\n      dup9\n        /* \"contracts/Actor/Retailer-smart-contract/RetailerStorage.sol\":5096:5121  retailers[walletRetailer] */\n      0xffffffffffffffffffffffffffffffffffffffff\n      and\n      0xffffffffffffffffffffffffffffffffffffffff\n      and\n      dup2\n      mstore\n      0x20\n      add\n      swap1\n      dup2\n      mstore\n      0x20\n      add\n      0x00\n      keccak256\n        /* \"contracts/Actor/Retailer-smart-contract/RetailerStorage.sol\":5069:5121  Retailer memory retailer = retailers[walletRetailer] */\n      mload(0x40)\n      dup1\n      0xa0\n      add\n      0x40\n      mstore\n      swap1\n      dup2\n      0x00\n      dup3\n      add\n      sload\n      dup2\n      mstore\n      0x20\n      add\n      0x01\n      dup3\n      add\n      dup1\n      sload\n      tag_127\n      swap1\n      tag_70\n      jump\t// in\n    tag_127:\n      dup1\n      0x1f\n      add\n      0x20\n      dup1\n      swap2\n      div\n      mul\n      0x20\n      add\n      mload(0x40)\n      swap1\n      dup2\n      add\n      0x40\n      mstore\n      dup1\n      swap3\n      swap2\n      swap1\n      dup2\n      dup2\n      mstore\n      0x20\n      add\n      dup3\n      dup1\n      sload\n      tag_128\n      swap1\n      tag_70\n      jump\t// in\n    tag_128:\n      dup1\n      iszero\n      tag_129\n      jumpi\n      dup1\n      0x1f\n      lt\n      tag_130\n      jumpi\n      0x0100\n      dup1\n      dup4\n      sload\n      div\n      mul\n      dup4\n      mstore\n      swap2\n      0x20\n      add\n      swap2\n      jump(tag_129)\n    tag_130:\n      dup3\n      add\n      swap2\n      swap1\n      0x00\n      mstore\n      keccak256(0x00, 0x20)\n      swap1\n    tag_131:\n      dup2\n      sload\n      dup2\n      mstore\n      swap1\n      0x01\n      add\n      swap1\n      0x20\n      add\n      dup1\n      dup4\n      gt\n      tag_131\n      jumpi\n      dup3\n      swap1\n      sub\n      0x1f\n      and\n      dup3\n      add\n      swap2\n    tag_129:\n      pop\n      pop\n      pop\n      pop\n      pop\n      dup2\n      mstore\n      0x20\n      add\n      0x02\n      dup3\n      add\n      dup1\n      sload\n      tag_132\n      swap1\n      tag_70\n      jump\t// in\n    tag_132:\n      dup1\n      0x1f\n      add\n      0x20\n      dup1\n      swap2\n      div\n      mul\n      0x20\n      add\n      mload(0x40)\n      swap1\n      dup2\n      add\n      0x40\n      mstore\n      dup1\n      swap3\n      swap2\n      swap1\n      dup2\n      dup2\n      mstore\n      0x20\n      add\n      dup3\n      dup1\n      sload\n      tag_133\n      swap1\n      tag_70\n      jump\t// in\n    tag_133:\n      dup1\n      iszero\n      tag_134\n      jumpi\n      dup1\n      0x1f\n      lt\n      tag_135\n      jumpi\n      0x0100\n      dup1\n      dup4\n      sload\n      div\n      mul\n      dup4\n      mstore\n      swap2\n      0x20\n      add\n      swap2\n      jump(tag_134)\n    tag_135:\n      dup3\n      add\n      swap2\n      swap1\n      0x00\n      mstore\n      keccak256(0x00, 0x20)\n      swap1\n    tag_136:\n      dup2\n      sload\n      dup2\n      mstore\n      swap1\n      0x01\n      add\n      swap1\n      0x20\n      add\n      dup1\n      dup4\n      gt\n      tag_136\n      jumpi\n      dup3\n      swap1\n      sub\n      0x1f\n      and\n      dup3\n      add\n      swap2\n    tag_134:\n      pop\n      pop\n      pop\n      pop\n      pop\n      dup2\n      mstore\n      0x20\n      add\n      0x03\n      dup3\n      add\n      dup1\n      sload\n      tag_137\n      swap1\n      tag_70\n      jump\t// in\n    tag_137:\n      dup1\n      0x1f\n      add\n      0x20\n      dup1\n      swap2\n      div\n      mul\n      0x20\n      add\n      mload(0x40)\n      swap1\n      dup2\n      add\n      0x40\n      mstore\n      dup1\n      swap3\n      swap2\n      swap1\n      dup2\n      dup2\n      mstore\n      0x20\n      add\n      dup3\n      dup1\n      sload\n      tag_138\n      swap1\n      tag_70\n      jump\t// in\n    tag_138:\n      dup1\n      iszero\n      tag_139\n      jumpi\n      dup1\n      0x1f\n      lt\n      tag_140\n      jumpi\n      0x0100\n      dup1\n      dup4\n      sload\n      div\n      mul\n      dup4\n      mstore\n      swap2\n      0x20\n      add\n      swap2\n      jump(tag_139)\n    tag_140:\n      dup3\n      add\n      swap2\n      swap1\n      0x00\n      mstore\n      keccak256(0x00, 0x20)\n      swap1\n    tag_141:\n      dup2\n      sload\n      dup2\n      mstore\n      swap1\n      0x01\n      add\n      swap1\n      0x20\n      add\n      dup1\n      dup4\n      gt\n      tag_141\n      jumpi\n      dup3\n      swap1\n      sub\n      0x1f\n      and\n      dup3\n      add\n      swap2\n    tag_139:\n      pop\n      pop\n      pop\n      pop\n      pop\n      dup2\n      mstore\n      0x20\n      add\n      0x04\n      dup3\n      add\n      sload\n      dup2\n      mstore\n      pop\n      pop\n      swap1\n      pop\n        /* \"contracts/Actor/Retailer-smart-contract/RetailerStorage.sol\":5189:5197  retailer */\n      dup1\n        /* \"contracts/Actor/Retailer-smart-contract/RetailerStorage.sol\":5189:5200  retailer.id */\n      0x00\n      add\n      mload\n        /* \"contracts/Actor/Retailer-smart-contract/RetailerStorage.sol\":5202:5210  retailer */\n      dup2\n        /* \"contracts/Actor/Retailer-smart-contract/RetailerStorage.sol\":5202:5219  retailer.fullName */\n      0x20\n      add\n      mload\n        /* \"contracts/Actor/Retailer-smart-contract/RetailerStorage.sol\":5221:5229  retailer */\n      dup3\n        /* \"contracts/Actor/Retailer-smart-contract/RetailerStorage.sol\":5221:5238  retailer.password */\n      0x40\n      add\n      mload\n        /* \"contracts/Actor/Retailer-smart-contract/RetailerStorage.sol\":5240:5248  retailer */\n      dup4\n        /* \"contracts/Actor/Retailer-smart-contract/RetailerStorage.sol\":5240:5254  retailer.email */\n      0x60\n      add\n      mload\n        /* \"contracts/Actor/Retailer-smart-contract/RetailerStorage.sol\":5256:5264  retailer */\n      dup5\n        /* \"contracts/Actor/Retailer-smart-contract/RetailerStorage.sol\":5256:5272  retailer.balance */\n      0x80\n      add\n      mload\n        /* \"contracts/Actor/Retailer-smart-contract/RetailerStorage.sol\":5181:5273  return (retailer.id, retailer.fullName, retailer.password, retailer.email, retailer.balance) */\n      swap6\n      pop\n      swap6\n      pop\n      swap6\n      pop\n      swap6\n      pop\n      swap6\n      pop\n      pop\n        /* \"contracts/Actor/Retailer-smart-contract/RetailerStorage.sol\":4929:5281  function getUser(address walletRetailer) external view returns (uint256, string memory, string memory, string memory, uint256) {... */\n      swap2\n      swap4\n      swap6\n      swap1\n      swap3\n      swap5\n      pop\n      jump\t// out\n        /* \"contracts/Actor/Retailer-smart-contract/RetailerStorage.sol\":2999:3132  function isUserPresent(address walletRetailer) external view returns(bool){... */\n    tag_47:\n        /* \"contracts/Actor/Retailer-smart-contract/RetailerStorage.sol\":3068:3072  bool */\n      0x00\n        /* \"contracts/Actor/Retailer-smart-contract/RetailerStorage.sol\":3123:3124  0 */\n      dup1\n        /* \"contracts/Actor/Retailer-smart-contract/RetailerStorage.sol\":3093:3102  retailers */\n      0x01\n        /* \"contracts/Actor/Retailer-smart-contract/RetailerStorage.sol\":3093:3118  retailers[walletRetailer] */\n      0x00\n        /* \"contracts/Actor/Retailer-smart-contract/RetailerStorage.sol\":3103:3117  walletRetailer */\n      dup5\n        /* \"contracts/Actor/Retailer-smart-contract/RetailerStorage.sol\":3093:3118  retailers[walletRetailer] */\n      0xffffffffffffffffffffffffffffffffffffffff\n      and\n      0xffffffffffffffffffffffffffffffffffffffff\n      and\n      dup2\n      mstore\n      0x20\n      add\n      swap1\n      dup2\n      mstore\n      0x20\n      add\n      0x00\n      keccak256\n        /* \"contracts/Actor/Retailer-smart-contract/RetailerStorage.sol\":3093:3121  retailers[walletRetailer].id */\n      0x00\n      add\n      sload\n        /* \"contracts/Actor/Retailer-smart-contract/RetailerStorage.sol\":3093:3124  retailers[walletRetailer].id!=0 */\n      eq\n      iszero\n        /* \"contracts/Actor/Retailer-smart-contract/RetailerStorage.sol\":3086:3124  return retailers[walletRetailer].id!=0 */\n      swap1\n      pop\n        /* \"contracts/Actor/Retailer-smart-contract/RetailerStorage.sol\":2999:3132  function isUserPresent(address walletRetailer) external view returns(bool){... */\n      swap2\n      swap1\n      pop\n      jump\t// out\n        /* \"contracts/Actor/Retailer-smart-contract/RetailerStorage.sol\":841:1917  function addUser(string memory _fullName, string memory _password,string memory _email, address walletRetailer) external {... */\n    tag_52:\n        /* \"contracts/Actor/Retailer-smart-contract/RetailerStorage.sol\":1049:1063  bytes32 idHash */\n      0x00\n        /* \"contracts/Actor/Retailer-smart-contract/RetailerStorage.sol\":1093:1102  _fullName */\n      dup5\n        /* \"contracts/Actor/Retailer-smart-contract/RetailerStorage.sol\":1104:1113  _password */\n      dup5\n        /* \"contracts/Actor/Retailer-smart-contract/RetailerStorage.sol\":1115:1121  _email */\n      dup5\n        /* \"contracts/Actor/Retailer-smart-contract/RetailerStorage.sol\":1123:1137  walletRetailer */\n      dup5\n        /* \"contracts/Actor/Retailer-smart-contract/RetailerStorage.sol\":1076:1138  abi.encodePacked(_fullName, _password, _email, walletRetailer) */\n      add(0x20, mload(0x40))\n      tag_144\n      swap5\n      swap4\n      swap3\n      swap2\n      swap1\n      tag_145\n      jump\t// in\n    tag_144:\n      mload(0x40)\n      0x20\n      dup2\n      dup4\n      sub\n      sub\n      dup2\n      mstore\n      swap1\n      0x40\n      mstore\n        /* \"contracts/Actor/Retailer-smart-contract/RetailerStorage.sol\":1066:1139  keccak256(abi.encodePacked(_fullName, _password, _email, walletRetailer)) */\n      dup1\n      mload\n      swap1\n      0x20\n      add\n      keccak256\n        /* \"contracts/Actor/Retailer-smart-contract/RetailerStorage.sol\":1049:1139  bytes32 idHash = keccak256(abi.encodePacked(_fullName, _password, _email, walletRetailer)) */\n      swap1\n      pop\n        /* \"contracts/Actor/Retailer-smart-contract/RetailerStorage.sol\":1150:1172  uint256 lastIdRetailer */\n      0x00\n        /* \"contracts/Actor/Retailer-smart-contract/RetailerStorage.sol\":1183:1189  idHash */\n      dup2\n        /* \"contracts/Actor/Retailer-smart-contract/RetailerStorage.sol\":1175:1190  uint256(idHash) */\n      0x00\n      shr\n        /* \"contracts/Actor/Retailer-smart-contract/RetailerStorage.sol\":1150:1190  uint256 lastIdRetailer = uint256(idHash) */\n      swap1\n      pop\n        /* \"contracts/Actor/Retailer-smart-contract/RetailerStorage.sol\":1243:1244  0 */\n      0x00\n        /* \"contracts/Actor/Retailer-smart-contract/RetailerStorage.sol\":1211:1220  retailers */\n      0x01\n        /* \"contracts/Actor/Retailer-smart-contract/RetailerStorage.sol\":1211:1236  retailers[walletRetailer] */\n      0x00\n        /* \"contracts/Actor/Retailer-smart-contract/RetailerStorage.sol\":1221:1235  walletRetailer */\n      dup6\n        /* \"contracts/Actor/Retailer-smart-contract/RetailerStorage.sol\":1211:1236  retailers[walletRetailer] */\n      0xffffffffffffffffffffffffffffffffffffffff\n      and\n      0xffffffffffffffffffffffffffffffffffffffff\n      and\n      dup2\n      mstore\n      0x20\n      add\n      swap1\n      dup2\n      mstore\n      0x20\n      add\n      0x00\n      keccak256\n        /* \"contracts/Actor/Retailer-smart-contract/RetailerStorage.sol\":1211:1239  retailers[walletRetailer].id */\n      0x00\n      add\n      sload\n        /* \"contracts/Actor/Retailer-smart-contract/RetailerStorage.sol\":1211:1244  retailers[walletRetailer].id == 0 */\n      eq\n        /* \"contracts/Actor/Retailer-smart-contract/RetailerStorage.sol\":1203:1276  require(retailers[walletRetailer].id == 0, \"Retailer already registered\") */\n      tag_146\n      jumpi\n      mload(0x40)\n      0x08c379a000000000000000000000000000000000000000000000000000000000\n      dup2\n      mstore\n      0x04\n      add\n      tag_147\n      swap1\n      tag_148\n      jump\t// in\n    tag_147:\n      mload(0x40)\n      dup1\n      swap2\n      sub\n      swap1\n      revert\n    tag_146:\n        /* \"contracts/Actor/Retailer-smart-contract/RetailerStorage.sol\":1321:1322  0 */\n      0x00\n        /* \"contracts/Actor/Retailer-smart-contract/RetailerStorage.sol\":1301:1310  _fullName */\n      dup7\n        /* \"contracts/Actor/Retailer-smart-contract/RetailerStorage.sol\":1295:1318  bytes(_fullName).length */\n      mload\n        /* \"contracts/Actor/Retailer-smart-contract/RetailerStorage.sol\":1295:1322  bytes(_fullName).length > 0 */\n      gt\n        /* \"contracts/Actor/Retailer-smart-contract/RetailerStorage.sol\":1287:1352  require(bytes(_fullName).length > 0, \"Full name cannot be empty\") */\n      tag_149\n      jumpi\n      mload(0x40)\n      0x08c379a000000000000000000000000000000000000000000000000000000000\n      dup2\n      mstore\n      0x04\n      add\n      tag_150\n      swap1\n      tag_151\n      jump\t// in\n    tag_150:\n      mload(0x40)\n      dup1\n      swap2\n      sub\n      swap1\n      revert\n    tag_149:\n        /* \"contracts/Actor/Retailer-smart-contract/RetailerStorage.sol\":1397:1398  0 */\n      0x00\n        /* \"contracts/Actor/Retailer-smart-contract/RetailerStorage.sol\":1377:1386  _password */\n      dup6\n        /* \"contracts/Actor/Retailer-smart-contract/RetailerStorage.sol\":1371:1394  bytes(_password).length */\n      mload\n        /* \"contracts/Actor/Retailer-smart-contract/RetailerStorage.sol\":1371:1398  bytes(_password).length > 0 */\n      gt\n        /* \"contracts/Actor/Retailer-smart-contract/RetailerStorage.sol\":1363:1427  require(bytes(_password).length > 0, \"Password cannot be empty\") */\n      tag_152\n      jumpi\n      mload(0x40)\n      0x08c379a000000000000000000000000000000000000000000000000000000000\n      dup2\n      mstore\n      0x04\n      add\n      tag_153\n      swap1\n      tag_154\n      jump\t// in\n    tag_153:\n      mload(0x40)\n      dup1\n      swap2\n      sub\n      swap1\n      revert\n    tag_152:\n        /* \"contracts/Actor/Retailer-smart-contract/RetailerStorage.sol\":1469:1470  0 */\n      0x00\n        /* \"contracts/Actor/Retailer-smart-contract/RetailerStorage.sol\":1452:1458  _email */\n      dup5\n        /* \"contracts/Actor/Retailer-smart-contract/RetailerStorage.sol\":1446:1466  bytes(_email).length */\n      mload\n        /* \"contracts/Actor/Retailer-smart-contract/RetailerStorage.sol\":1446:1470  bytes(_email).length > 0 */\n      gt\n        /* \"contracts/Actor/Retailer-smart-contract/RetailerStorage.sol\":1438:1496  require(bytes(_email).length > 0, \"Email cannot be empty\") */\n      tag_155\n      jumpi\n      mload(0x40)\n      0x08c379a000000000000000000000000000000000000000000000000000000000\n      dup2\n      mstore\n      0x04\n      add\n      tag_156\n      swap1\n      tag_157\n      jump\t// in\n    tag_156:\n      mload(0x40)\n      dup1\n      swap2\n      sub\n      swap1\n      revert\n    tag_155:\n        /* \"contracts/Actor/Retailer-smart-contract/RetailerStorage.sol\":1572:1599  Retailer memory newRetailer */\n      0x00\n        /* \"contracts/Actor/Retailer-smart-contract/RetailerStorage.sol\":1602:1779  Retailer({... */\n      mload(0x40)\n      dup1\n      0xa0\n      add\n      0x40\n      mstore\n      dup1\n        /* \"contracts/Actor/Retailer-smart-contract/RetailerStorage.sol\":1630:1644  lastIdRetailer */\n      dup4\n        /* \"contracts/Actor/Retailer-smart-contract/RetailerStorage.sol\":1602:1779  Retailer({... */\n      dup2\n      mstore\n      0x20\n      add\n        /* \"contracts/Actor/Retailer-smart-contract/RetailerStorage.sol\":1669:1678  _fullName */\n      dup9\n        /* \"contracts/Actor/Retailer-smart-contract/RetailerStorage.sol\":1602:1779  Retailer({... */\n      dup2\n      mstore\n      0x20\n      add\n        /* \"contracts/Actor/Retailer-smart-contract/RetailerStorage.sol\":1703:1712  _password */\n      dup8\n        /* \"contracts/Actor/Retailer-smart-contract/RetailerStorage.sol\":1602:1779  Retailer({... */\n      dup2\n      mstore\n      0x20\n      add\n        /* \"contracts/Actor/Retailer-smart-contract/RetailerStorage.sol\":1734:1740  _email */\n      dup7\n        /* \"contracts/Actor/Retailer-smart-contract/RetailerStorage.sol\":1602:1779  Retailer({... */\n      dup2\n      mstore\n      0x20\n      add\n        /* \"contracts/Actor/Retailer-smart-contract/RetailerStorage.sol\":1764:1767  100 */\n      0x64\n        /* \"contracts/Actor/Retailer-smart-contract/RetailerStorage.sol\":1602:1779  Retailer({... */\n      dup2\n      mstore\n      pop\n        /* \"contracts/Actor/Retailer-smart-contract/RetailerStorage.sol\":1572:1779  Retailer memory newRetailer = Retailer({... */\n      swap1\n      pop\n        /* \"contracts/Actor/Retailer-smart-contract/RetailerStorage.sol\":1898:1909  newRetailer */\n      dup1\n        /* \"contracts/Actor/Retailer-smart-contract/RetailerStorage.sol\":1870:1879  retailers */\n      0x01\n        /* \"contracts/Actor/Retailer-smart-contract/RetailerStorage.sol\":1870:1895  retailers[walletRetailer] */\n      0x00\n        /* \"contracts/Actor/Retailer-smart-contract/RetailerStorage.sol\":1880:1894  walletRetailer */\n      dup7\n        /* \"contracts/Actor/Retailer-smart-contract/RetailerStorage.sol\":1870:1895  retailers[walletRetailer] */\n      0xffffffffffffffffffffffffffffffffffffffff\n      and\n      0xffffffffffffffffffffffffffffffffffffffff\n      and\n      dup2\n      mstore\n      0x20\n      add\n      swap1\n      dup2\n      mstore\n      0x20\n      add\n      0x00\n      keccak256\n        /* \"contracts/Actor/Retailer-smart-contract/RetailerStorage.sol\":1870:1909  retailers[walletRetailer] = newRetailer */\n      0x00\n      dup3\n      add\n      mload\n      dup2\n      0x00\n      add\n      sstore\n      0x20\n      dup3\n      add\n      mload\n      dup2\n      0x01\n      add\n      swap1\n      dup2\n      tag_158\n      swap2\n      swap1\n      tag_159\n      jump\t// in\n    tag_158:\n      pop\n      0x40\n      dup3\n      add\n      mload\n      dup2\n      0x02\n      add\n      swap1\n      dup2\n      tag_160\n      swap2\n      swap1\n      tag_159\n      jump\t// in\n    tag_160:\n      pop\n      0x60\n      dup3\n      add\n      mload\n      dup2\n      0x03\n      add\n      swap1\n      dup2\n      tag_161\n      swap2\n      swap1\n      tag_159\n      jump\t// in\n    tag_161:\n      pop\n      0x80\n      dup3\n      add\n      mload\n      dup2\n      0x04\n      add\n      sstore\n      swap1\n      pop\n      pop\n        /* \"contracts/Actor/Retailer-smart-contract/RetailerStorage.sol\":962:1917  {... */\n      pop\n      pop\n      pop\n        /* \"contracts/Actor/Retailer-smart-contract/RetailerStorage.sol\":841:1917  function addUser(string memory _fullName, string memory _password,string memory _email, address walletRetailer) external {... */\n      pop\n      pop\n      pop\n      pop\n      jump\t// out\n        /* \"contracts/Actor/Retailer-smart-contract/RetailerStorage.sol\":5394:5556  function updateBalance(address walletRetailer, uint256 balance) external{... */\n    tag_55:\n        /* \"contracts/Actor/Retailer-smart-contract/RetailerStorage.sol\":5541:5548  balance */\n      dup1\n        /* \"contracts/Actor/Retailer-smart-contract/RetailerStorage.sol\":5505:5514  retailers */\n      0x01\n        /* \"contracts/Actor/Retailer-smart-contract/RetailerStorage.sol\":5505:5530  retailers[walletRetailer] */\n      0x00\n        /* \"contracts/Actor/Retailer-smart-contract/RetailerStorage.sol\":5515:5529  walletRetailer */\n      dup5\n        /* \"contracts/Actor/Retailer-smart-contract/RetailerStorage.sol\":5505:5530  retailers[walletRetailer] */\n      0xffffffffffffffffffffffffffffffffffffffff\n      and\n      0xffffffffffffffffffffffffffffffffffffffff\n      and\n      dup2\n      mstore\n      0x20\n      add\n      swap1\n      dup2\n      mstore\n      0x20\n      add\n      0x00\n      keccak256\n        /* \"contracts/Actor/Retailer-smart-contract/RetailerStorage.sol\":5505:5538  retailers[walletRetailer].balance */\n      0x04\n      add\n        /* \"contracts/Actor/Retailer-smart-contract/RetailerStorage.sol\":5505:5548  retailers[walletRetailer].balance = balance */\n      dup2\n      swap1\n      sstore\n      pop\n        /* \"contracts/Actor/Retailer-smart-contract/RetailerStorage.sol\":5394:5556  function updateBalance(address walletRetailer, uint256 balance) external{... */\n      pop\n      pop\n      jump\t// out\n        /* \"contracts/Actor/Retailer-smart-contract/RetailerStorage.sol\":4103:4367  function getEmail(address walletRetailer, uint256 _id) external view  returns(string memory){... */\n    tag_58:\n        /* \"contracts/Actor/Retailer-smart-contract/RetailerStorage.sol\":4181:4194  string memory */\n      0x60\n        /* \"contracts/Actor/Retailer-smart-contract/RetailerStorage.sol\":4244:4247  _id */\n      dup2\n        /* \"contracts/Actor/Retailer-smart-contract/RetailerStorage.sol\":4214:4223  retailers */\n      0x01\n        /* \"contracts/Actor/Retailer-smart-contract/RetailerStorage.sol\":4214:4239  retailers[walletRetailer] */\n      0x00\n        /* \"contracts/Actor/Retailer-smart-contract/RetailerStorage.sol\":4224:4238  walletRetailer */\n      dup6\n        /* \"contracts/Actor/Retailer-smart-contract/RetailerStorage.sol\":4214:4239  retailers[walletRetailer] */\n      0xffffffffffffffffffffffffffffffffffffffff\n      and\n      0xffffffffffffffffffffffffffffffffffffffff\n      and\n      dup2\n      mstore\n      0x20\n      add\n      swap1\n      dup2\n      mstore\n      0x20\n      add\n      0x00\n      keccak256\n        /* \"contracts/Actor/Retailer-smart-contract/RetailerStorage.sol\":4214:4242  retailers[walletRetailer].id */\n      0x00\n      add\n      sload\n        /* \"contracts/Actor/Retailer-smart-contract/RetailerStorage.sol\":4214:4247  retailers[walletRetailer].id==_id */\n      eq\n        /* \"contracts/Actor/Retailer-smart-contract/RetailerStorage.sol\":4206:4264  require(retailers[walletRetailer].id==_id,\"ID not Valid!\") */\n      tag_164\n      jumpi\n      mload(0x40)\n      0x08c379a000000000000000000000000000000000000000000000000000000000\n      dup2\n      mstore\n      0x04\n      add\n      tag_165\n      swap1\n      tag_68\n      jump\t// in\n    tag_165:\n      mload(0x40)\n      dup1\n      swap2\n      sub\n      swap1\n      revert\n    tag_164:\n        /* \"contracts/Actor/Retailer-smart-contract/RetailerStorage.sol\":4275:4299  Retailer memory retailer */\n      0x00\n        /* \"contracts/Actor/Retailer-smart-contract/RetailerStorage.sol\":4302:4311  retailers */\n      0x01\n        /* \"contracts/Actor/Retailer-smart-contract/RetailerStorage.sol\":4302:4327  retailers[walletRetailer] */\n      0x00\n        /* \"contracts/Actor/Retailer-smart-contract/RetailerStorage.sol\":4312:4326  walletRetailer */\n      dup6\n        /* \"contracts/Actor/Retailer-smart-contract/RetailerStorage.sol\":4302:4327  retailers[walletRetailer] */\n      0xffffffffffffffffffffffffffffffffffffffff\n      and\n      0xffffffffffffffffffffffffffffffffffffffff\n      and\n      dup2\n      mstore\n      0x20\n      add\n      swap1\n      dup2\n      mstore\n      0x20\n      add\n      0x00\n      keccak256\n        /* \"contracts/Actor/Retailer-smart-contract/RetailerStorage.sol\":4275:4327  Retailer memory retailer = retailers[walletRetailer] */\n      mload(0x40)\n      dup1\n      0xa0\n      add\n      0x40\n      mstore\n      swap1\n      dup2\n      0x00\n      dup3\n      add\n      sload\n      dup2\n      mstore\n      0x20\n      add\n      0x01\n      dup3\n      add\n      dup1\n      sload\n      tag_166\n      swap1\n      tag_70\n      jump\t// in\n    tag_166:\n      dup1\n      0x1f\n      add\n      0x20\n      dup1\n      swap2\n      div\n      mul\n      0x20\n      add\n      mload(0x40)\n      swap1\n      dup2\n      add\n      0x40\n      mstore\n      dup1\n      swap3\n      swap2\n      swap1\n      dup2\n      dup2\n      mstore\n      0x20\n      add\n      dup3\n      dup1\n      sload\n      tag_167\n      swap1\n      tag_70\n      jump\t// in\n    tag_167:\n      dup1\n      iszero\n      tag_168\n      jumpi\n      dup1\n      0x1f\n      lt\n      tag_169\n      jumpi\n      0x0100\n      dup1\n      dup4\n      sload\n      div\n      mul\n      dup4\n      mstore\n      swap2\n      0x20\n      add\n      swap2\n      jump(tag_168)\n    tag_169:\n      dup3\n      add\n      swap2\n      swap1\n      0x00\n      mstore\n      keccak256(0x00, 0x20)\n      swap1\n    tag_170:\n      dup2\n      sload\n      dup2\n      mstore\n      swap1\n      0x01\n      add\n      swap1\n      0x20\n      add\n      dup1\n      dup4\n      gt\n      tag_170\n      jumpi\n      dup3\n      swap1\n      sub\n      0x1f\n      and\n      dup3\n      add\n      swap2\n    tag_168:\n      pop\n      pop\n      pop\n      pop\n      pop\n      dup2\n      mstore\n      0x20\n      add\n      0x02\n      dup3\n      add\n      dup1\n      sload\n      tag_171\n      swap1\n      tag_70\n      jump\t// in\n    tag_171:\n      dup1\n      0x1f\n      add\n      0x20\n      dup1\n      swap2\n      div\n      mul\n      0x20\n      add\n      mload(0x40)\n      swap1\n      dup2\n      add\n      0x40\n      mstore\n      dup1\n      swap3\n      swap2\n      swap1\n      dup2\n      dup2\n      mstore\n      0x20\n      add\n      dup3\n      dup1\n      sload\n      tag_172\n      swap1\n      tag_70\n      jump\t// in\n    tag_172:\n      dup1\n      iszero\n      tag_173\n      jumpi\n      dup1\n      0x1f\n      lt\n      tag_174\n      jumpi\n      0x0100\n      dup1\n      dup4\n      sload\n      div\n      mul\n      dup4\n      mstore\n      swap2\n      0x20\n      add\n      swap2\n      jump(tag_173)\n    tag_174:\n      dup3\n      add\n      swap2\n      swap1\n      0x00\n      mstore\n      keccak256(0x00, 0x20)\n      swap1\n    tag_175:\n      dup2\n      sload\n      dup2\n      mstore\n      swap1\n      0x01\n      add\n      swap1\n      0x20\n      add\n      dup1\n      dup4\n      gt\n      tag_175\n      jumpi\n      dup3\n      swap1\n      sub\n      0x1f\n      and\n      dup3\n      add\n      swap2\n    tag_173:\n      pop\n      pop\n      pop\n      pop\n      pop\n      dup2\n      mstore\n      0x20\n      add\n      0x03\n      dup3\n      add\n      dup1\n      sload\n      tag_176\n      swap1\n      tag_70\n      jump\t// in\n    tag_176:\n      dup1\n      0x1f\n      add\n      0x20\n      dup1\n      swap2\n      div\n      mul\n      0x20\n      add\n      mload(0x40)\n      swap1\n      dup2\n      add\n      0x40\n      mstore\n      dup1\n      swap3\n      swap2\n      swap1\n      dup2\n      dup2\n      mstore\n      0x20\n      add\n      dup3\n      dup1\n      sload\n      tag_177\n      swap1\n      tag_70\n      jump\t// in\n    tag_177:\n      dup1\n      iszero\n      tag_178\n      jumpi\n      dup1\n      0x1f\n      lt\n      tag_179\n      jumpi\n      0x0100\n      dup1\n      dup4\n      sload\n      div\n      mul\n      dup4\n      mstore\n      swap2\n      0x20\n      add\n      swap2\n      jump(tag_178)\n    tag_179:\n      dup3\n      add\n      swap2\n      swap1\n      0x00\n      mstore\n      keccak256(0x00, 0x20)\n      swap1\n    tag_180:\n      dup2\n      sload\n      dup2\n      mstore\n      swap1\n      0x01\n      add\n      swap1\n      0x20\n      add\n      dup1\n      dup4\n      gt\n      tag_180\n      jumpi\n      dup3\n      swap1\n      sub\n      0x1f\n      and\n      dup3\n      add\n      swap2\n    tag_178:\n      pop\n      pop\n      pop\n      pop\n      pop\n      dup2\n      mstore\n      0x20\n      add\n      0x04\n      dup3\n      add\n      sload\n      dup2\n      mstore\n      pop\n      pop\n      swap1\n      pop\n        /* \"contracts/Actor/Retailer-smart-contract/RetailerStorage.sol\":4345:4353  retailer */\n      dup1\n        /* \"contracts/Actor/Retailer-smart-contract/RetailerStorage.sol\":4345:4359  retailer.email */\n      0x60\n      add\n      mload\n        /* \"contracts/Actor/Retailer-smart-contract/RetailerStorage.sol\":4338:4359  return retailer.email */\n      swap2\n      pop\n      pop\n        /* \"contracts/Actor/Retailer-smart-contract/RetailerStorage.sol\":4103:4367  function getEmail(address walletRetailer, uint256 _id) external view  returns(string memory){... */\n      swap3\n      swap2\n      pop\n      pop\n      jump\t// out\n    tag_87:\n      pop\n      dup1\n      sload\n      tag_181\n      swap1\n      tag_70\n      jump\t// in\n    tag_181:\n      0x00\n      dup3\n      sstore\n      dup1\n      0x1f\n      lt\n      tag_183\n      jumpi\n      pop\n      jump(tag_182)\n    tag_183:\n      0x1f\n      add\n      0x20\n      swap1\n      div\n      swap1\n      0x00\n      mstore\n      keccak256(0x00, 0x20)\n      swap1\n      dup2\n      add\n      swap1\n      tag_184\n      swap2\n      swap1\n      tag_185\n      jump\t// in\n    tag_184:\n    tag_182:\n      pop\n      jump\t// out\n    tag_185:\n    tag_186:\n      dup1\n      dup3\n      gt\n      iszero\n      tag_187\n      jumpi\n      0x00\n      dup2\n      0x00\n      swap1\n      sstore\n      pop\n      0x01\n      add\n      jump(tag_186)\n    tag_187:\n      pop\n      swap1\n      jump\t// out\n        /* \"#utility.yul\":7:82   */\n    tag_188:\n        /* \"#utility.yul\":40:46   */\n      0x00\n        /* \"#utility.yul\":73:75   */\n      0x40\n        /* \"#utility.yul\":67:76   */\n      mload\n        /* \"#utility.yul\":57:76   */\n      swap1\n      pop\n        /* \"#utility.yul\":7:82   */\n      swap1\n      jump\t// out\n        /* \"#utility.yul\":88:205   */\n    tag_189:\n        /* \"#utility.yul\":197:198   */\n      0x00\n        /* \"#utility.yul\":194:195   */\n      dup1\n        /* \"#utility.yul\":187:199   */\n      revert\n        /* \"#utility.yul\":211:328   */\n    tag_190:\n        /* \"#utility.yul\":320:321   */\n      0x00\n        /* \"#utility.yul\":317:318   */\n      dup1\n        /* \"#utility.yul\":310:322   */\n      revert\n        /* \"#utility.yul\":334:460   */\n    tag_191:\n        /* \"#utility.yul\":371:378   */\n      0x00\n        /* \"#utility.yul\":411:453   */\n      0xffffffffffffffffffffffffffffffffffffffff\n        /* \"#utility.yul\":404:409   */\n      dup3\n        /* \"#utility.yul\":400:454   */\n      and\n        /* \"#utility.yul\":389:454   */\n      swap1\n      pop\n        /* \"#utility.yul\":334:460   */\n      swap2\n      swap1\n      pop\n      jump\t// out\n        /* \"#utility.yul\":466:562   */\n    tag_192:\n        /* \"#utility.yul\":503:510   */\n      0x00\n        /* \"#utility.yul\":532:556   */\n      tag_254\n        /* \"#utility.yul\":550:555   */\n      dup3\n        /* \"#utility.yul\":532:556   */\n      tag_191\n      jump\t// in\n    tag_254:\n        /* \"#utility.yul\":521:556   */\n      swap1\n      pop\n        /* \"#utility.yul\":466:562   */\n      swap2\n      swap1\n      pop\n      jump\t// out\n        /* \"#utility.yul\":568:690   */\n    tag_193:\n        /* \"#utility.yul\":641:665   */\n      tag_256\n        /* \"#utility.yul\":659:664   */\n      dup2\n        /* \"#utility.yul\":641:665   */\n      tag_192\n      jump\t// in\n    tag_256:\n        /* \"#utility.yul\":634:639   */\n      dup2\n        /* \"#utility.yul\":631:666   */\n      eq\n        /* \"#utility.yul\":621:684   */\n      tag_257\n      jumpi\n        /* \"#utility.yul\":680:681   */\n      0x00\n        /* \"#utility.yul\":677:678   */\n      dup1\n        /* \"#utility.yul\":670:682   */\n      revert\n        /* \"#utility.yul\":621:684   */\n    tag_257:\n        /* \"#utility.yul\":568:690   */\n      pop\n      jump\t// out\n        /* \"#utility.yul\":696:835   */\n    tag_194:\n        /* \"#utility.yul\":742:747   */\n      0x00\n        /* \"#utility.yul\":780:786   */\n      dup2\n        /* \"#utility.yul\":767:787   */\n      calldataload\n        /* \"#utility.yul\":758:787   */\n      swap1\n      pop\n        /* \"#utility.yul\":796:829   */\n      tag_259\n        /* \"#utility.yul\":823:828   */\n      dup2\n        /* \"#utility.yul\":796:829   */\n      tag_193\n      jump\t// in\n    tag_259:\n        /* \"#utility.yul\":696:835   */\n      swap3\n      swap2\n      pop\n      pop\n      jump\t// out\n        /* \"#utility.yul\":841:958   */\n    tag_195:\n        /* \"#utility.yul\":950:951   */\n      0x00\n        /* \"#utility.yul\":947:948   */\n      dup1\n        /* \"#utility.yul\":940:952   */\n      revert\n        /* \"#utility.yul\":964:1081   */\n    tag_196:\n        /* \"#utility.yul\":1073:1074   */\n      0x00\n        /* \"#utility.yul\":1070:1071   */\n      dup1\n        /* \"#utility.yul\":1063:1075   */\n      revert\n        /* \"#utility.yul\":1087:1189   */\n    tag_197:\n        /* \"#utility.yul\":1128:1134   */\n      0x00\n        /* \"#utility.yul\":1179:1181   */\n      0x1f\n        /* \"#utility.yul\":1175:1182   */\n      not\n        /* \"#utility.yul\":1170:1172   */\n      0x1f\n        /* \"#utility.yul\":1163:1168   */\n      dup4\n        /* \"#utility.yul\":1159:1173   */\n      add\n        /* \"#utility.yul\":1155:1183   */\n      and\n        /* \"#utility.yul\":1145:1183   */\n      swap1\n      pop\n        /* \"#utility.yul\":1087:1189   */\n      swap2\n      swap1\n      pop\n      jump\t// out\n        /* \"#utility.yul\":1195:1375   */\n    tag_198:\n        /* \"#utility.yul\":1243:1320   */\n      0x4e487b7100000000000000000000000000000000000000000000000000000000\n        /* \"#utility.yul\":1240:1241   */\n      0x00\n        /* \"#utility.yul\":1233:1321   */\n      mstore\n        /* \"#utility.yul\":1340:1344   */\n      0x41\n        /* \"#utility.yul\":1337:1338   */\n      0x04\n        /* \"#utility.yul\":1330:1345   */\n      mstore\n        /* \"#utility.yul\":1364:1368   */\n      0x24\n        /* \"#utility.yul\":1361:1362   */\n      0x00\n        /* \"#utility.yul\":1354:1369   */\n      revert\n        /* \"#utility.yul\":1381:1662   */\n    tag_199:\n        /* \"#utility.yul\":1464:1491   */\n      tag_265\n        /* \"#utility.yul\":1486:1490   */\n      dup3\n        /* \"#utility.yul\":1464:1491   */\n      tag_197\n      jump\t// in\n    tag_265:\n        /* \"#utility.yul\":1456:1462   */\n      dup2\n        /* \"#utility.yul\":1452:1492   */\n      add\n        /* \"#utility.yul\":1594:1600   */\n      dup2\n        /* \"#utility.yul\":1582:1592   */\n      dup2\n        /* \"#utility.yul\":1579:1601   */\n      lt\n        /* \"#utility.yul\":1558:1576   */\n      0xffffffffffffffff\n        /* \"#utility.yul\":1546:1556   */\n      dup3\n        /* \"#utility.yul\":1543:1577   */\n      gt\n        /* \"#utility.yul\":1540:1602   */\n      or\n        /* \"#utility.yul\":1537:1625   */\n      iszero\n      tag_266\n      jumpi\n        /* \"#utility.yul\":1605:1623   */\n      tag_267\n      tag_198\n      jump\t// in\n    tag_267:\n        /* \"#utility.yul\":1537:1625   */\n    tag_266:\n        /* \"#utility.yul\":1645:1655   */\n      dup1\n        /* \"#utility.yul\":1641:1643   */\n      0x40\n        /* \"#utility.yul\":1634:1656   */\n      mstore\n        /* \"#utility.yul\":1424:1662   */\n      pop\n        /* \"#utility.yul\":1381:1662   */\n      pop\n      pop\n      jump\t// out\n        /* \"#utility.yul\":1668:1797   */\n    tag_200:\n        /* \"#utility.yul\":1702:1708   */\n      0x00\n        /* \"#utility.yul\":1729:1749   */\n      tag_269\n      tag_188\n      jump\t// in\n    tag_269:\n        /* \"#utility.yul\":1719:1749   */\n      swap1\n      pop\n        /* \"#utility.yul\":1758:1791   */\n      tag_270\n        /* \"#utility.yul\":1786:1790   */\n      dup3\n        /* \"#utility.yul\":1778:1784   */\n      dup3\n        /* \"#utility.yul\":1758:1791   */\n      tag_199\n      jump\t// in\n    tag_270:\n        /* \"#utility.yul\":1668:1797   */\n      swap2\n      swap1\n      pop\n      jump\t// out\n        /* \"#utility.yul\":1803:2111   */\n    tag_201:\n        /* \"#utility.yul\":1865:1869   */\n      0x00\n        /* \"#utility.yul\":1955:1973   */\n      0xffffffffffffffff\n        /* \"#utility.yul\":1947:1953   */\n      dup3\n        /* \"#utility.yul\":1944:1974   */\n      gt\n        /* \"#utility.yul\":1941:1997   */\n      iszero\n      tag_272\n      jumpi\n        /* \"#utility.yul\":1977:1995   */\n      tag_273\n      tag_198\n      jump\t// in\n    tag_273:\n        /* \"#utility.yul\":1941:1997   */\n    tag_272:\n        /* \"#utility.yul\":2015:2044   */\n      tag_274\n        /* \"#utility.yul\":2037:2043   */\n      dup3\n        /* \"#utility.yul\":2015:2044   */\n      tag_197\n      jump\t// in\n    tag_274:\n        /* \"#utility.yul\":2007:2044   */\n      swap1\n      pop\n        /* \"#utility.yul\":2099:2103   */\n      0x20\n        /* \"#utility.yul\":2093:2097   */\n      dup2\n        /* \"#utility.yul\":2089:2104   */\n      add\n        /* \"#utility.yul\":2081:2104   */\n      swap1\n      pop\n        /* \"#utility.yul\":1803:2111   */\n      swap2\n      swap1\n      pop\n      jump\t// out\n        /* \"#utility.yul\":2117:2263   */\n    tag_202:\n        /* \"#utility.yul\":2214:2220   */\n      dup3\n        /* \"#utility.yul\":2209:2212   */\n      dup2\n        /* \"#utility.yul\":2204:2207   */\n      dup4\n        /* \"#utility.yul\":2191:2221   */\n      calldatacopy\n        /* \"#utility.yul\":2255:2256   */\n      0x00\n        /* \"#utility.yul\":2246:2252   */\n      dup4\n        /* \"#utility.yul\":2241:2244   */\n      dup4\n        /* \"#utility.yul\":2237:2253   */\n      add\n        /* \"#utility.yul\":2230:2257   */\n      mstore\n        /* \"#utility.yul\":2117:2263   */\n      pop\n      pop\n      pop\n      jump\t// out\n        /* \"#utility.yul\":2269:2694   */\n    tag_203:\n        /* \"#utility.yul\":2347:2352   */\n      0x00\n        /* \"#utility.yul\":2372:2438   */\n      tag_277\n        /* \"#utility.yul\":2388:2437   */\n      tag_278\n        /* \"#utility.yul\":2430:2436   */\n      dup5\n        /* \"#utility.yul\":2388:2437   */\n      tag_201\n      jump\t// in\n    tag_278:\n        /* \"#utility.yul\":2372:2438   */\n      tag_200\n      jump\t// in\n    tag_277:\n        /* \"#utility.yul\":2363:2438   */\n      swap1\n      pop\n        /* \"#utility.yul\":2461:2467   */\n      dup3\n        /* \"#utility.yul\":2454:2459   */\n      dup2\n        /* \"#utility.yul\":2447:2468   */\n      mstore\n        /* \"#utility.yul\":2499:2503   */\n      0x20\n        /* \"#utility.yul\":2492:2497   */\n      dup2\n        /* \"#utility.yul\":2488:2504   */\n      add\n        /* \"#utility.yul\":2537:2540   */\n      dup5\n        /* \"#utility.yul\":2528:2534   */\n      dup5\n        /* \"#utility.yul\":2523:2526   */\n      dup5\n        /* \"#utility.yul\":2519:2535   */\n      add\n        /* \"#utility.yul\":2516:2541   */\n      gt\n        /* \"#utility.yul\":2513:2625   */\n      iszero\n      tag_279\n      jumpi\n        /* \"#utility.yul\":2544:2623   */\n      tag_280\n      tag_196\n      jump\t// in\n    tag_280:\n        /* \"#utility.yul\":2513:2625   */\n    tag_279:\n        /* \"#utility.yul\":2634:2688   */\n      tag_281\n        /* \"#utility.yul\":2681:2687   */\n      dup5\n        /* \"#utility.yul\":2676:2679   */\n      dup3\n        /* \"#utility.yul\":2671:2674   */\n      dup6\n        /* \"#utility.yul\":2634:2688   */\n      tag_202\n      jump\t// in\n    tag_281:\n        /* \"#utility.yul\":2353:2694   */\n      pop\n        /* \"#utility.yul\":2269:2694   */\n      swap4\n      swap3\n      pop\n      pop\n      pop\n      jump\t// out\n        /* \"#utility.yul\":2714:3054   */\n    tag_204:\n        /* \"#utility.yul\":2770:2775   */\n      0x00\n        /* \"#utility.yul\":2819:2822   */\n      dup3\n        /* \"#utility.yul\":2812:2816   */\n      0x1f\n        /* \"#utility.yul\":2804:2810   */\n      dup4\n        /* \"#utility.yul\":2800:2817   */\n      add\n        /* \"#utility.yul\":2796:2823   */\n      slt\n        /* \"#utility.yul\":2786:2908   */\n      tag_283\n      jumpi\n        /* \"#utility.yul\":2827:2906   */\n      tag_284\n      tag_195\n      jump\t// in\n    tag_284:\n        /* \"#utility.yul\":2786:2908   */\n    tag_283:\n        /* \"#utility.yul\":2944:2950   */\n      dup2\n        /* \"#utility.yul\":2931:2951   */\n      calldataload\n        /* \"#utility.yul\":2969:3048   */\n      tag_285\n        /* \"#utility.yul\":3044:3047   */\n      dup5\n        /* \"#utility.yul\":3036:3042   */\n      dup3\n        /* \"#utility.yul\":3029:3033   */\n      0x20\n        /* \"#utility.yul\":3021:3027   */\n      dup7\n        /* \"#utility.yul\":3017:3034   */\n      add\n        /* \"#utility.yul\":2969:3048   */\n      tag_203\n      jump\t// in\n    tag_285:\n        /* \"#utility.yul\":2960:3048   */\n      swap2\n      pop\n        /* \"#utility.yul\":2776:3054   */\n      pop\n        /* \"#utility.yul\":2714:3054   */\n      swap3\n      swap2\n      pop\n      pop\n      jump\t// out\n        /* \"#utility.yul\":3060:4039   */\n    tag_16:\n        /* \"#utility.yul\":3157:3163   */\n      0x00\n        /* \"#utility.yul\":3165:3171   */\n      dup1\n        /* \"#utility.yul\":3173:3179   */\n      0x00\n        /* \"#utility.yul\":3222:3224   */\n      0x60\n        /* \"#utility.yul\":3210:3219   */\n      dup5\n        /* \"#utility.yul\":3201:3208   */\n      dup7\n        /* \"#utility.yul\":3197:3220   */\n      sub\n        /* \"#utility.yul\":3193:3225   */\n      slt\n        /* \"#utility.yul\":3190:3309   */\n      iszero\n      tag_287\n      jumpi\n        /* \"#utility.yul\":3228:3307   */\n      tag_288\n      tag_189\n      jump\t// in\n    tag_288:\n        /* \"#utility.yul\":3190:3309   */\n    tag_287:\n        /* \"#utility.yul\":3348:3349   */\n      0x00\n        /* \"#utility.yul\":3373:3426   */\n      tag_289\n        /* \"#utility.yul\":3418:3425   */\n      dup7\n        /* \"#utility.yul\":3409:3415   */\n      dup3\n        /* \"#utility.yul\":3398:3407   */\n      dup8\n        /* \"#utility.yul\":3394:3416   */\n      add\n        /* \"#utility.yul\":3373:3426   */\n      tag_194\n      jump\t// in\n    tag_289:\n        /* \"#utility.yul\":3363:3426   */\n      swap4\n      pop\n        /* \"#utility.yul\":3319:3436   */\n      pop\n        /* \"#utility.yul\":3503:3505   */\n      0x20\n        /* \"#utility.yul\":3492:3501   */\n      dup5\n        /* \"#utility.yul\":3488:3506   */\n      add\n        /* \"#utility.yul\":3475:3507   */\n      calldataload\n        /* \"#utility.yul\":3534:3552   */\n      0xffffffffffffffff\n        /* \"#utility.yul\":3526:3532   */\n      dup2\n        /* \"#utility.yul\":3523:3553   */\n      gt\n        /* \"#utility.yul\":3520:3637   */\n      iszero\n      tag_290\n      jumpi\n        /* \"#utility.yul\":3556:3635   */\n      tag_291\n      tag_190\n      jump\t// in\n    tag_291:\n        /* \"#utility.yul\":3520:3637   */\n    tag_290:\n        /* \"#utility.yul\":3661:3724   */\n      tag_292\n        /* \"#utility.yul\":3716:3723   */\n      dup7\n        /* \"#utility.yul\":3707:3713   */\n      dup3\n        /* \"#utility.yul\":3696:3705   */\n      dup8\n        /* \"#utility.yul\":3692:3714   */\n      add\n        /* \"#utility.yul\":3661:3724   */\n      tag_204\n      jump\t// in\n    tag_292:\n        /* \"#utility.yul\":3651:3724   */\n      swap3\n      pop\n        /* \"#utility.yul\":3446:3734   */\n      pop\n        /* \"#utility.yul\":3801:3803   */\n      0x40\n        /* \"#utility.yul\":3790:3799   */\n      dup5\n        /* \"#utility.yul\":3786:3804   */\n      add\n        /* \"#utility.yul\":3773:3805   */\n      calldataload\n        /* \"#utility.yul\":3832:3850   */\n      0xffffffffffffffff\n        /* \"#utility.yul\":3824:3830   */\n      dup2\n        /* \"#utility.yul\":3821:3851   */\n      gt\n        /* \"#utility.yul\":3818:3935   */\n      iszero\n      tag_293\n      jumpi\n        /* \"#utility.yul\":3854:3933   */\n      tag_294\n      tag_190\n      jump\t// in\n    tag_294:\n        /* \"#utility.yul\":3818:3935   */\n    tag_293:\n        /* \"#utility.yul\":3959:4022   */\n      tag_295\n        /* \"#utility.yul\":4014:4021   */\n      dup7\n        /* \"#utility.yul\":4005:4011   */\n      dup3\n        /* \"#utility.yul\":3994:4003   */\n      dup8\n        /* \"#utility.yul\":3990:4012   */\n      add\n        /* \"#utility.yul\":3959:4022   */\n      tag_204\n      jump\t// in\n    tag_295:\n        /* \"#utility.yul\":3949:4022   */\n      swap2\n      pop\n        /* \"#utility.yul\":3744:4032   */\n      pop\n        /* \"#utility.yul\":3060:4039   */\n      swap3\n      pop\n      swap3\n      pop\n      swap3\n      jump\t// out\n        /* \"#utility.yul\":4045:4135   */\n    tag_205:\n        /* \"#utility.yul\":4079:4086   */\n      0x00\n        /* \"#utility.yul\":4122:4127   */\n      dup2\n        /* \"#utility.yul\":4115:4128   */\n      iszero\n        /* \"#utility.yul\":4108:4129   */\n      iszero\n        /* \"#utility.yul\":4097:4129   */\n      swap1\n      pop\n        /* \"#utility.yul\":4045:4135   */\n      swap2\n      swap1\n      pop\n      jump\t// out\n        /* \"#utility.yul\":4141:4250   */\n    tag_206:\n        /* \"#utility.yul\":4222:4243   */\n      tag_298\n        /* \"#utility.yul\":4237:4242   */\n      dup2\n        /* \"#utility.yul\":4222:4243   */\n      tag_205\n      jump\t// in\n    tag_298:\n        /* \"#utility.yul\":4217:4220   */\n      dup3\n        /* \"#utility.yul\":4210:4244   */\n      mstore\n        /* \"#utility.yul\":4141:4250   */\n      pop\n      pop\n      jump\t// out\n        /* \"#utility.yul\":4256:4466   */\n    tag_19:\n        /* \"#utility.yul\":4343:4347   */\n      0x00\n        /* \"#utility.yul\":4381:4383   */\n      0x20\n        /* \"#utility.yul\":4370:4379   */\n      dup3\n        /* \"#utility.yul\":4366:4384   */\n      add\n        /* \"#utility.yul\":4358:4384   */\n      swap1\n      pop\n        /* \"#utility.yul\":4394:4459   */\n      tag_300\n        /* \"#utility.yul\":4456:4457   */\n      0x00\n        /* \"#utility.yul\":4445:4454   */\n      dup4\n        /* \"#utility.yul\":4441:4458   */\n      add\n        /* \"#utility.yul\":4432:4438   */\n      dup5\n        /* \"#utility.yul\":4394:4459   */\n      tag_206\n      jump\t// in\n    tag_300:\n        /* \"#utility.yul\":4256:4466   */\n      swap3\n      swap2\n      pop\n      pop\n      jump\t// out\n        /* \"#utility.yul\":4472:4549   */\n    tag_207:\n        /* \"#utility.yul\":4509:4516   */\n      0x00\n        /* \"#utility.yul\":4538:4543   */\n      dup2\n        /* \"#utility.yul\":4527:4543   */\n      swap1\n      pop\n        /* \"#utility.yul\":4472:4549   */\n      swap2\n      swap1\n      pop\n      jump\t// out\n        /* \"#utility.yul\":4555:4677   */\n    tag_208:\n        /* \"#utility.yul\":4628:4652   */\n      tag_303\n        /* \"#utility.yul\":4646:4651   */\n      dup2\n        /* \"#utility.yul\":4628:4652   */\n      tag_207\n      jump\t// in\n    tag_303:\n        /* \"#utility.yul\":4621:4626   */\n      dup2\n        /* \"#utility.yul\":4618:4653   */\n      eq\n        /* \"#utility.yul\":4608:4671   */\n      tag_304\n      jumpi\n        /* \"#utility.yul\":4667:4668   */\n      0x00\n        /* \"#utility.yul\":4664:4665   */\n      dup1\n        /* \"#utility.yul\":4657:4669   */\n      revert\n        /* \"#utility.yul\":4608:4671   */\n    tag_304:\n        /* \"#utility.yul\":4555:4677   */\n      pop\n      jump\t// out\n        /* \"#utility.yul\":4683:4822   */\n    tag_209:\n        /* \"#utility.yul\":4729:4734   */\n      0x00\n        /* \"#utility.yul\":4767:4773   */\n      dup2\n        /* \"#utility.yul\":4754:4774   */\n      calldataload\n        /* \"#utility.yul\":4745:4774   */\n      swap1\n      pop\n        /* \"#utility.yul\":4783:4816   */\n      tag_306\n        /* \"#utility.yul\":4810:4815   */\n      dup2\n        /* \"#utility.yul\":4783:4816   */\n      tag_208\n      jump\t// in\n    tag_306:\n        /* \"#utility.yul\":4683:4822   */\n      swap3\n      swap2\n      pop\n      pop\n      jump\t// out\n        /* \"#utility.yul\":4828:5302   */\n    tag_22:\n        /* \"#utility.yul\":4896:4902   */\n      0x00\n        /* \"#utility.yul\":4904:4910   */\n      dup1\n        /* \"#utility.yul\":4953:4955   */\n      0x40\n        /* \"#utility.yul\":4941:4950   */\n      dup4\n        /* \"#utility.yul\":4932:4939   */\n      dup6\n        /* \"#utility.yul\":4928:4951   */\n      sub\n        /* \"#utility.yul\":4924:4956   */\n      slt\n        /* \"#utility.yul\":4921:5040   */\n      iszero\n      tag_308\n      jumpi\n        /* \"#utility.yul\":4959:5038   */\n      tag_309\n      tag_189\n      jump\t// in\n    tag_309:\n        /* \"#utility.yul\":4921:5040   */\n    tag_308:\n        /* \"#utility.yul\":5079:5080   */\n      0x00\n        /* \"#utility.yul\":5104:5157   */\n      tag_310\n        /* \"#utility.yul\":5149:5156   */\n      dup6\n        /* \"#utility.yul\":5140:5146   */\n      dup3\n        /* \"#utility.yul\":5129:5138   */\n      dup7\n        /* \"#utility.yul\":5125:5147   */\n      add\n        /* \"#utility.yul\":5104:5157   */\n      tag_194\n      jump\t// in\n    tag_310:\n        /* \"#utility.yul\":5094:5157   */\n      swap3\n      pop\n        /* \"#utility.yul\":5050:5167   */\n      pop\n        /* \"#utility.yul\":5206:5208   */\n      0x20\n        /* \"#utility.yul\":5232:5285   */\n      tag_311\n        /* \"#utility.yul\":5277:5284   */\n      dup6\n        /* \"#utility.yul\":5268:5274   */\n      dup3\n        /* \"#utility.yul\":5257:5266   */\n      dup7\n        /* \"#utility.yul\":5253:5275   */\n      add\n        /* \"#utility.yul\":5232:5285   */\n      tag_209\n      jump\t// in\n    tag_311:\n        /* \"#utility.yul\":5222:5285   */\n      swap2\n      pop\n        /* \"#utility.yul\":5177:5295   */\n      pop\n        /* \"#utility.yul\":4828:5302   */\n      swap3\n      pop\n      swap3\n      swap1\n      pop\n      jump\t// out\n        /* \"#utility.yul\":5308:5426   */\n    tag_210:\n        /* \"#utility.yul\":5395:5419   */\n      tag_313\n        /* \"#utility.yul\":5413:5418   */\n      dup2\n        /* \"#utility.yul\":5395:5419   */\n      tag_207\n      jump\t// in\n    tag_313:\n        /* \"#utility.yul\":5390:5393   */\n      dup3\n        /* \"#utility.yul\":5383:5420   */\n      mstore\n        /* \"#utility.yul\":5308:5426   */\n      pop\n      pop\n      jump\t// out\n        /* \"#utility.yul\":5432:5654   */\n    tag_25:\n        /* \"#utility.yul\":5525:5529   */\n      0x00\n        /* \"#utility.yul\":5563:5565   */\n      0x20\n        /* \"#utility.yul\":5552:5561   */\n      dup3\n        /* \"#utility.yul\":5548:5566   */\n      add\n        /* \"#utility.yul\":5540:5566   */\n      swap1\n      pop\n        /* \"#utility.yul\":5576:5647   */\n      tag_315\n        /* \"#utility.yul\":5644:5645   */\n      0x00\n        /* \"#utility.yul\":5633:5642   */\n      dup4\n        /* \"#utility.yul\":5629:5646   */\n      add\n        /* \"#utility.yul\":5620:5626   */\n      dup5\n        /* \"#utility.yul\":5576:5647   */\n      tag_210\n      jump\t// in\n    tag_315:\n        /* \"#utility.yul\":5432:5654   */\n      swap3\n      swap2\n      pop\n      pop\n      jump\t// out\n        /* \"#utility.yul\":5660:5989   */\n    tag_28:\n        /* \"#utility.yul\":5719:5725   */\n      0x00\n        /* \"#utility.yul\":5768:5770   */\n      0x20\n        /* \"#utility.yul\":5756:5765   */\n      dup3\n        /* \"#utility.yul\":5747:5754   */\n      dup5\n        /* \"#utility.yul\":5743:5766   */\n      sub\n        /* \"#utility.yul\":5739:5771   */\n      slt\n        /* \"#utility.yul\":5736:5855   */\n      iszero\n      tag_317\n      jumpi\n        /* \"#utility.yul\":5774:5853   */\n      tag_318\n      tag_189\n      jump\t// in\n    tag_318:\n        /* \"#utility.yul\":5736:5855   */\n    tag_317:\n        /* \"#utility.yul\":5894:5895   */\n      0x00\n        /* \"#utility.yul\":5919:5972   */\n      tag_319\n        /* \"#utility.yul\":5964:5971   */\n      dup5\n        /* \"#utility.yul\":5955:5961   */\n      dup3\n        /* \"#utility.yul\":5944:5953   */\n      dup6\n        /* \"#utility.yul\":5940:5962   */\n      add\n        /* \"#utility.yul\":5919:5972   */\n      tag_194\n      jump\t// in\n    tag_319:\n        /* \"#utility.yul\":5909:5972   */\n      swap2\n      pop\n        /* \"#utility.yul\":5865:5982   */\n      pop\n        /* \"#utility.yul\":5660:5989   */\n      swap3\n      swap2\n      pop\n      pop\n      jump\t// out\n        /* \"#utility.yul\":5995:6094   */\n    tag_211:\n        /* \"#utility.yul\":6047:6053   */\n      0x00\n        /* \"#utility.yul\":6081:6086   */\n      dup2\n        /* \"#utility.yul\":6075:6087   */\n      mload\n        /* \"#utility.yul\":6065:6087   */\n      swap1\n      pop\n        /* \"#utility.yul\":5995:6094   */\n      swap2\n      swap1\n      pop\n      jump\t// out\n        /* \"#utility.yul\":6100:6269   */\n    tag_212:\n        /* \"#utility.yul\":6184:6195   */\n      0x00\n        /* \"#utility.yul\":6218:6224   */\n      dup3\n        /* \"#utility.yul\":6213:6216   */\n      dup3\n        /* \"#utility.yul\":6206:6225   */\n      mstore\n        /* \"#utility.yul\":6258:6262   */\n      0x20\n        /* \"#utility.yul\":6253:6256   */\n      dup3\n        /* \"#utility.yul\":6249:6263   */\n      add\n        /* \"#utility.yul\":6234:6263   */\n      swap1\n      pop\n        /* \"#utility.yul\":6100:6269   */\n      swap3\n      swap2\n      pop\n      pop\n      jump\t// out\n        /* \"#utility.yul\":6275:6521   */\n    tag_213:\n        /* \"#utility.yul\":6356:6357   */\n      0x00\n        /* \"#utility.yul\":6366:6479   */\n    tag_323:\n        /* \"#utility.yul\":6380:6386   */\n      dup4\n        /* \"#utility.yul\":6377:6378   */\n      dup2\n        /* \"#utility.yul\":6374:6387   */\n      lt\n        /* \"#utility.yul\":6366:6479   */\n      iszero\n      tag_325\n      jumpi\n        /* \"#utility.yul\":6465:6466   */\n      dup1\n        /* \"#utility.yul\":6460:6463   */\n      dup3\n        /* \"#utility.yul\":6456:6467   */\n      add\n        /* \"#utility.yul\":6450:6468   */\n      mload\n        /* \"#utility.yul\":6446:6447   */\n      dup2\n        /* \"#utility.yul\":6441:6444   */\n      dup5\n        /* \"#utility.yul\":6437:6448   */\n      add\n        /* \"#utility.yul\":6430:6469   */\n      mstore\n        /* \"#utility.yul\":6402:6404   */\n      0x20\n        /* \"#utility.yul\":6399:6400   */\n      dup2\n        /* \"#utility.yul\":6395:6405   */\n      add\n        /* \"#utility.yul\":6390:6405   */\n      swap1\n      pop\n        /* \"#utility.yul\":6366:6479   */\n      jump(tag_323)\n    tag_325:\n        /* \"#utility.yul\":6513:6514   */\n      0x00\n        /* \"#utility.yul\":6504:6510   */\n      dup5\n        /* \"#utility.yul\":6499:6502   */\n      dup5\n        /* \"#utility.yul\":6495:6511   */\n      add\n        /* \"#utility.yul\":6488:6515   */\n      mstore\n        /* \"#utility.yul\":6337:6521   */\n      pop\n        /* \"#utility.yul\":6275:6521   */\n      pop\n      pop\n      pop\n      jump\t// out\n        /* \"#utility.yul\":6527:6904   */\n    tag_214:\n        /* \"#utility.yul\":6615:6618   */\n      0x00\n        /* \"#utility.yul\":6643:6682   */\n      tag_327\n        /* \"#utility.yul\":6676:6681   */\n      dup3\n        /* \"#utility.yul\":6643:6682   */\n      tag_211\n      jump\t// in\n    tag_327:\n        /* \"#utility.yul\":6698:6769   */\n      tag_328\n        /* \"#utility.yul\":6762:6768   */\n      dup2\n        /* \"#utility.yul\":6757:6760   */\n      dup6\n        /* \"#utility.yul\":6698:6769   */\n      tag_212\n      jump\t// in\n    tag_328:\n        /* \"#utility.yul\":6691:6769   */\n      swap4\n      pop\n        /* \"#utility.yul\":6778:6843   */\n      tag_329\n        /* \"#utility.yul\":6836:6842   */\n      dup2\n        /* \"#utility.yul\":6831:6834   */\n      dup6\n        /* \"#utility.yul\":6824:6828   */\n      0x20\n        /* \"#utility.yul\":6817:6822   */\n      dup7\n        /* \"#utility.yul\":6813:6829   */\n      add\n        /* \"#utility.yul\":6778:6843   */\n      tag_213\n      jump\t// in\n    tag_329:\n        /* \"#utility.yul\":6868:6897   */\n      tag_330\n        /* \"#utility.yul\":6890:6896   */\n      dup2\n        /* \"#utility.yul\":6868:6897   */\n      tag_197\n      jump\t// in\n    tag_330:\n        /* \"#utility.yul\":6863:6866   */\n      dup5\n        /* \"#utility.yul\":6859:6898   */\n      add\n        /* \"#utility.yul\":6852:6898   */\n      swap2\n      pop\n        /* \"#utility.yul\":6619:6904   */\n      pop\n        /* \"#utility.yul\":6527:6904   */\n      swap3\n      swap2\n      pop\n      pop\n      jump\t// out\n        /* \"#utility.yul\":6910:7223   */\n    tag_39:\n        /* \"#utility.yul\":7023:7027   */\n      0x00\n        /* \"#utility.yul\":7061:7063   */\n      0x20\n        /* \"#utility.yul\":7050:7059   */\n      dup3\n        /* \"#utility.yul\":7046:7064   */\n      add\n        /* \"#utility.yul\":7038:7064   */\n      swap1\n      pop\n        /* \"#utility.yul\":7110:7119   */\n      dup2\n        /* \"#utility.yul\":7104:7108   */\n      dup2\n        /* \"#utility.yul\":7100:7120   */\n      sub\n        /* \"#utility.yul\":7096:7097   */\n      0x00\n        /* \"#utility.yul\":7085:7094   */\n      dup4\n        /* \"#utility.yul\":7081:7098   */\n      add\n        /* \"#utility.yul\":7074:7121   */\n      mstore\n        /* \"#utility.yul\":7138:7216   */\n      tag_332\n        /* \"#utility.yul\":7211:7215   */\n      dup2\n        /* \"#utility.yul\":7202:7208   */\n      dup5\n        /* \"#utility.yul\":7138:7216   */\n      tag_214\n      jump\t// in\n    tag_332:\n        /* \"#utility.yul\":7130:7216   */\n      swap1\n      pop\n        /* \"#utility.yul\":6910:7223   */\n      swap3\n      swap2\n      pop\n      pop\n      jump\t// out\n        /* \"#utility.yul\":7229:8166   */\n    tag_44:\n        /* \"#utility.yul\":7494:7498   */\n      0x00\n        /* \"#utility.yul\":7532:7535   */\n      0xa0\n        /* \"#utility.yul\":7521:7530   */\n      dup3\n        /* \"#utility.yul\":7517:7536   */\n      add\n        /* \"#utility.yul\":7509:7536   */\n      swap1\n      pop\n        /* \"#utility.yul\":7546:7617   */\n      tag_334\n        /* \"#utility.yul\":7614:7615   */\n      0x00\n        /* \"#utility.yul\":7603:7612   */\n      dup4\n        /* \"#utility.yul\":7599:7616   */\n      add\n        /* \"#utility.yul\":7590:7596   */\n      dup9\n        /* \"#utility.yul\":7546:7617   */\n      tag_210\n      jump\t// in\n    tag_334:\n        /* \"#utility.yul\":7664:7673   */\n      dup2\n        /* \"#utility.yul\":7658:7662   */\n      dup2\n        /* \"#utility.yul\":7654:7674   */\n      sub\n        /* \"#utility.yul\":7649:7651   */\n      0x20\n        /* \"#utility.yul\":7638:7647   */\n      dup4\n        /* \"#utility.yul\":7634:7652   */\n      add\n        /* \"#utility.yul\":7627:7675   */\n      mstore\n        /* \"#utility.yul\":7692:7770   */\n      tag_335\n        /* \"#utility.yul\":7765:7769   */\n      dup2\n        /* \"#utility.yul\":7756:7762   */\n      dup8\n        /* \"#utility.yul\":7692:7770   */\n      tag_214\n      jump\t// in\n    tag_335:\n        /* \"#utility.yul\":7684:7770   */\n      swap1\n      pop\n        /* \"#utility.yul\":7817:7826   */\n      dup2\n        /* \"#utility.yul\":7811:7815   */\n      dup2\n        /* \"#utility.yul\":7807:7827   */\n      sub\n        /* \"#utility.yul\":7802:7804   */\n      0x40\n        /* \"#utility.yul\":7791:7800   */\n      dup4\n        /* \"#utility.yul\":7787:7805   */\n      add\n        /* \"#utility.yul\":7780:7828   */\n      mstore\n        /* \"#utility.yul\":7845:7923   */\n      tag_336\n        /* \"#utility.yul\":7918:7922   */\n      dup2\n        /* \"#utility.yul\":7909:7915   */\n      dup7\n        /* \"#utility.yul\":7845:7923   */\n      tag_214\n      jump\t// in\n    tag_336:\n        /* \"#utility.yul\":7837:7923   */\n      swap1\n      pop\n        /* \"#utility.yul\":7970:7979   */\n      dup2\n        /* \"#utility.yul\":7964:7968   */\n      dup2\n        /* \"#utility.yul\":7960:7980   */\n      sub\n        /* \"#utility.yul\":7955:7957   */\n      0x60\n        /* \"#utility.yul\":7944:7953   */\n      dup4\n        /* \"#utility.yul\":7940:7958   */\n      add\n        /* \"#utility.yul\":7933:7981   */\n      mstore\n        /* \"#utility.yul\":7998:8076   */\n      tag_337\n        /* \"#utility.yul\":8071:8075   */\n      dup2\n        /* \"#utility.yul\":8062:8068   */\n      dup6\n        /* \"#utility.yul\":7998:8076   */\n      tag_214\n      jump\t// in\n    tag_337:\n        /* \"#utility.yul\":7990:8076   */\n      swap1\n      pop\n        /* \"#utility.yul\":8086:8159   */\n      tag_338\n        /* \"#utility.yul\":8154:8157   */\n      0x80\n        /* \"#utility.yul\":8143:8152   */\n      dup4\n        /* \"#utility.yul\":8139:8158   */\n      add\n        /* \"#utility.yul\":8130:8136   */\n      dup5\n        /* \"#utility.yul\":8086:8159   */\n      tag_210\n      jump\t// in\n    tag_338:\n        /* \"#utility.yul\":7229:8166   */\n      swap7\n      swap6\n      pop\n      pop\n      pop\n      pop\n      pop\n      pop\n      jump\t// out\n        /* \"#utility.yul\":8172:9477   */\n    tag_51:\n        /* \"#utility.yul\":8288:8294   */\n      0x00\n        /* \"#utility.yul\":8296:8302   */\n      dup1\n        /* \"#utility.yul\":8304:8310   */\n      0x00\n        /* \"#utility.yul\":8312:8318   */\n      dup1\n        /* \"#utility.yul\":8361:8364   */\n      0x80\n        /* \"#utility.yul\":8349:8358   */\n      dup6\n        /* \"#utility.yul\":8340:8347   */\n      dup8\n        /* \"#utility.yul\":8336:8359   */\n      sub\n        /* \"#utility.yul\":8332:8365   */\n      slt\n        /* \"#utility.yul\":8329:8449   */\n      iszero\n      tag_340\n      jumpi\n        /* \"#utility.yul\":8368:8447   */\n      tag_341\n      tag_189\n      jump\t// in\n    tag_341:\n        /* \"#utility.yul\":8329:8449   */\n    tag_340:\n        /* \"#utility.yul\":8516:8517   */\n      0x00\n        /* \"#utility.yul\":8505:8514   */\n      dup6\n        /* \"#utility.yul\":8501:8518   */\n      add\n        /* \"#utility.yul\":8488:8519   */\n      calldataload\n        /* \"#utility.yul\":8546:8564   */\n      0xffffffffffffffff\n        /* \"#utility.yul\":8538:8544   */\n      dup2\n        /* \"#utility.yul\":8535:8565   */\n      gt\n        /* \"#utility.yul\":8532:8649   */\n      iszero\n      tag_342\n      jumpi\n        /* \"#utility.yul\":8568:8647   */\n      tag_343\n      tag_190\n      jump\t// in\n    tag_343:\n        /* \"#utility.yul\":8532:8649   */\n    tag_342:\n        /* \"#utility.yul\":8673:8736   */\n      tag_344\n        /* \"#utility.yul\":8728:8735   */\n      dup8\n        /* \"#utility.yul\":8719:8725   */\n      dup3\n        /* \"#utility.yul\":8708:8717   */\n      dup9\n        /* \"#utility.yul\":8704:8726   */\n      add\n        /* \"#utility.yul\":8673:8736   */\n      tag_204\n      jump\t// in\n    tag_344:\n        /* \"#utility.yul\":8663:8736   */\n      swap5\n      pop\n        /* \"#utility.yul\":8459:8746   */\n      pop\n        /* \"#utility.yul\":8813:8815   */\n      0x20\n        /* \"#utility.yul\":8802:8811   */\n      dup6\n        /* \"#utility.yul\":8798:8816   */\n      add\n        /* \"#utility.yul\":8785:8817   */\n      calldataload\n        /* \"#utility.yul\":8844:8862   */\n      0xffffffffffffffff\n        /* \"#utility.yul\":8836:8842   */\n      dup2\n        /* \"#utility.yul\":8833:8863   */\n      gt\n        /* \"#utility.yul\":8830:8947   */\n      iszero\n      tag_345\n      jumpi\n        /* \"#utility.yul\":8866:8945   */\n      tag_346\n      tag_190\n      jump\t// in\n    tag_346:\n        /* \"#utility.yul\":8830:8947   */\n    tag_345:\n        /* \"#utility.yul\":8971:9034   */\n      tag_347\n        /* \"#utility.yul\":9026:9033   */\n      dup8\n        /* \"#utility.yul\":9017:9023   */\n      dup3\n        /* \"#utility.yul\":9006:9015   */\n      dup9\n        /* \"#utility.yul\":9002:9024   */\n      add\n        /* \"#utility.yul\":8971:9034   */\n      tag_204\n      jump\t// in\n    tag_347:\n        /* \"#utility.yul\":8961:9034   */\n      swap4\n      pop\n        /* \"#utility.yul\":8756:9044   */\n      pop\n        /* \"#utility.yul\":9111:9113   */\n      0x40\n        /* \"#utility.yul\":9100:9109   */\n      dup6\n        /* \"#utility.yul\":9096:9114   */\n      add\n        /* \"#utility.yul\":9083:9115   */\n      calldataload\n        /* \"#utility.yul\":9142:9160   */\n      0xffffffffffffffff\n        /* \"#utility.yul\":9134:9140   */\n      dup2\n        /* \"#utility.yul\":9131:9161   */\n      gt\n        /* \"#utility.yul\":9128:9245   */\n      iszero\n      tag_348\n      jumpi\n        /* \"#utility.yul\":9164:9243   */\n      tag_349\n      tag_190\n      jump\t// in\n    tag_349:\n        /* \"#utility.yul\":9128:9245   */\n    tag_348:\n        /* \"#utility.yul\":9269:9332   */\n      tag_350\n        /* \"#utility.yul\":9324:9331   */\n      dup8\n        /* \"#utility.yul\":9315:9321   */\n      dup3\n        /* \"#utility.yul\":9304:9313   */\n      dup9\n        /* \"#utility.yul\":9300:9322   */\n      add\n        /* \"#utility.yul\":9269:9332   */\n      tag_204\n      jump\t// in\n    tag_350:\n        /* \"#utility.yul\":9259:9332   */\n      swap3\n      pop\n        /* \"#utility.yul\":9054:9342   */\n      pop\n        /* \"#utility.yul\":9381:9383   */\n      0x60\n        /* \"#utility.yul\":9407:9460   */\n      tag_351\n        /* \"#utility.yul\":9452:9459   */\n      dup8\n        /* \"#utility.yul\":9443:9449   */\n      dup3\n        /* \"#utility.yul\":9432:9441   */\n      dup9\n        /* \"#utility.yul\":9428:9450   */\n      add\n        /* \"#utility.yul\":9407:9460   */\n      tag_194\n      jump\t// in\n    tag_351:\n        /* \"#utility.yul\":9397:9460   */\n      swap2\n      pop\n        /* \"#utility.yul\":9352:9470   */\n      pop\n        /* \"#utility.yul\":8172:9477   */\n      swap3\n      swap6\n      swap2\n      swap5\n      pop\n      swap3\n      pop\n      jump\t// out\n        /* \"#utility.yul\":9483:9631   */\n    tag_215:\n        /* \"#utility.yul\":9585:9596   */\n      0x00\n        /* \"#utility.yul\":9622:9625   */\n      dup2\n        /* \"#utility.yul\":9607:9625   */\n      swap1\n      pop\n        /* \"#utility.yul\":9483:9631   */\n      swap3\n      swap2\n      pop\n      pop\n      jump\t// out\n        /* \"#utility.yul\":9637:10027   */\n    tag_216:\n        /* \"#utility.yul\":9743:9746   */\n      0x00\n        /* \"#utility.yul\":9771:9810   */\n      tag_354\n        /* \"#utility.yul\":9804:9809   */\n      dup3\n        /* \"#utility.yul\":9771:9810   */\n      tag_211\n      jump\t// in\n    tag_354:\n        /* \"#utility.yul\":9826:9915   */\n      tag_355\n        /* \"#utility.yul\":9908:9914   */\n      dup2\n        /* \"#utility.yul\":9903:9906   */\n      dup6\n        /* \"#utility.yul\":9826:9915   */\n      tag_215\n      jump\t// in\n    tag_355:\n        /* \"#utility.yul\":9819:9915   */\n      swap4\n      pop\n        /* \"#utility.yul\":9924:9989   */\n      tag_356\n        /* \"#utility.yul\":9982:9988   */\n      dup2\n        /* \"#utility.yul\":9977:9980   */\n      dup6\n        /* \"#utility.yul\":9970:9974   */\n      0x20\n        /* \"#utility.yul\":9963:9968   */\n      dup7\n        /* \"#utility.yul\":9959:9975   */\n      add\n        /* \"#utility.yul\":9924:9989   */\n      tag_213\n      jump\t// in\n    tag_356:\n        /* \"#utility.yul\":10014:10020   */\n      dup1\n        /* \"#utility.yul\":10009:10012   */\n      dup5\n        /* \"#utility.yul\":10005:10021   */\n      add\n        /* \"#utility.yul\":9998:10021   */\n      swap2\n      pop\n        /* \"#utility.yul\":9747:10027   */\n      pop\n        /* \"#utility.yul\":9637:10027   */\n      swap3\n      swap2\n      pop\n      pop\n      jump\t// out\n        /* \"#utility.yul\":10033:10468   */\n    tag_62:\n        /* \"#utility.yul\":10213:10216   */\n      0x00\n        /* \"#utility.yul\":10235:10330   */\n      tag_358\n        /* \"#utility.yul\":10326:10329   */\n      dup3\n        /* \"#utility.yul\":10317:10323   */\n      dup6\n        /* \"#utility.yul\":10235:10330   */\n      tag_216\n      jump\t// in\n    tag_358:\n        /* \"#utility.yul\":10228:10330   */\n      swap2\n      pop\n        /* \"#utility.yul\":10347:10442   */\n      tag_359\n        /* \"#utility.yul\":10438:10441   */\n      dup3\n        /* \"#utility.yul\":10429:10435   */\n      dup5\n        /* \"#utility.yul\":10347:10442   */\n      tag_216\n      jump\t// in\n    tag_359:\n        /* \"#utility.yul\":10340:10442   */\n      swap2\n      pop\n        /* \"#utility.yul\":10459:10462   */\n      dup2\n        /* \"#utility.yul\":10452:10462   */\n      swap1\n      pop\n        /* \"#utility.yul\":10033:10468   */\n      swap4\n      swap3\n      pop\n      pop\n      pop\n      jump\t// out\n        /* \"#utility.yul\":10474:10654   */\n    tag_217:\n        /* \"#utility.yul\":10522:10599   */\n      0x4e487b7100000000000000000000000000000000000000000000000000000000\n        /* \"#utility.yul\":10519:10520   */\n      0x00\n        /* \"#utility.yul\":10512:10600   */\n      mstore\n        /* \"#utility.yul\":10619:10623   */\n      0x22\n        /* \"#utility.yul\":10616:10617   */\n      0x04\n        /* \"#utility.yul\":10609:10624   */\n      mstore\n        /* \"#utility.yul\":10643:10647   */\n      0x24\n        /* \"#utility.yul\":10640:10641   */\n      0x00\n        /* \"#utility.yul\":10633:10648   */\n      revert\n        /* \"#utility.yul\":10660:10980   */\n    tag_70:\n        /* \"#utility.yul\":10704:10710   */\n      0x00\n        /* \"#utility.yul\":10741:10742   */\n      0x02\n        /* \"#utility.yul\":10735:10739   */\n      dup3\n        /* \"#utility.yul\":10731:10743   */\n      div\n        /* \"#utility.yul\":10721:10743   */\n      swap1\n      pop\n        /* \"#utility.yul\":10788:10789   */\n      0x01\n        /* \"#utility.yul\":10782:10786   */\n      dup3\n        /* \"#utility.yul\":10778:10790   */\n      and\n        /* \"#utility.yul\":10809:10827   */\n      dup1\n        /* \"#utility.yul\":10799:10880   */\n      tag_362\n      jumpi\n        /* \"#utility.yul\":10865:10869   */\n      0x7f\n        /* \"#utility.yul\":10857:10863   */\n      dup3\n        /* \"#utility.yul\":10853:10870   */\n      and\n        /* \"#utility.yul\":10843:10870   */\n      swap2\n      pop\n        /* \"#utility.yul\":10799:10880   */\n    tag_362:\n        /* \"#utility.yul\":10927:10929   */\n      0x20\n        /* \"#utility.yul\":10919:10925   */\n      dup3\n        /* \"#utility.yul\":10916:10930   */\n      lt\n        /* \"#utility.yul\":10896:10914   */\n      dup2\n        /* \"#utility.yul\":10893:10931   */\n      sub\n        /* \"#utility.yul\":10890:10974   */\n      tag_363\n      jumpi\n        /* \"#utility.yul\":10946:10964   */\n      tag_364\n      tag_217\n      jump\t// in\n    tag_364:\n        /* \"#utility.yul\":10890:10974   */\n    tag_363:\n        /* \"#utility.yul\":10711:10980   */\n      pop\n        /* \"#utility.yul\":10660:10980   */\n      swap2\n      swap1\n      pop\n      jump\t// out\n        /* \"#utility.yul\":10986:11127   */\n    tag_218:\n        /* \"#utility.yul\":11035:11039   */\n      0x00\n        /* \"#utility.yul\":11058:11061   */\n      dup2\n        /* \"#utility.yul\":11050:11061   */\n      swap1\n      pop\n        /* \"#utility.yul\":11081:11084   */\n      dup2\n        /* \"#utility.yul\":11078:11079   */\n      0x00\n        /* \"#utility.yul\":11071:11085   */\n      mstore\n        /* \"#utility.yul\":11115:11119   */\n      0x20\n        /* \"#utility.yul\":11112:11113   */\n      0x00\n        /* \"#utility.yul\":11102:11120   */\n      keccak256\n        /* \"#utility.yul\":11094:11120   */\n      swap1\n      pop\n        /* \"#utility.yul\":10986:11127   */\n      swap2\n      swap1\n      pop\n      jump\t// out\n        /* \"#utility.yul\":11157:12031   */\n    tag_219:\n        /* \"#utility.yul\":11260:11263   */\n      0x00\n        /* \"#utility.yul\":11297:11302   */\n      dup2\n        /* \"#utility.yul\":11291:11303   */\n      sload\n        /* \"#utility.yul\":11326:11362   */\n      tag_367\n        /* \"#utility.yul\":11352:11361   */\n      dup2\n        /* \"#utility.yul\":11326:11362   */\n      tag_70\n      jump\t// in\n    tag_367:\n        /* \"#utility.yul\":11378:11467   */\n      tag_368\n        /* \"#utility.yul\":11460:11466   */\n      dup2\n        /* \"#utility.yul\":11455:11458   */\n      dup7\n        /* \"#utility.yul\":11378:11467   */\n      tag_215\n      jump\t// in\n    tag_368:\n        /* \"#utility.yul\":11371:11467   */\n      swap5\n      pop\n        /* \"#utility.yul\":11498:11499   */\n      0x01\n        /* \"#utility.yul\":11487:11496   */\n      dup3\n        /* \"#utility.yul\":11483:11500   */\n      and\n        /* \"#utility.yul\":11514:11515   */\n      0x00\n        /* \"#utility.yul\":11509:11675   */\n      dup2\n      eq\n      tag_370\n      jumpi\n        /* \"#utility.yul\":11689:11690   */\n      0x01\n        /* \"#utility.yul\":11684:12025   */\n      dup2\n      eq\n      tag_371\n      jumpi\n        /* \"#utility.yul\":11476:12025   */\n      jump(tag_369)\n        /* \"#utility.yul\":11509:11675   */\n    tag_370:\n        /* \"#utility.yul\":11593:11597   */\n      0xff\n        /* \"#utility.yul\":11589:11598   */\n      not\n        /* \"#utility.yul\":11578:11587   */\n      dup4\n        /* \"#utility.yul\":11574:11599   */\n      and\n        /* \"#utility.yul\":11569:11572   */\n      dup7\n        /* \"#utility.yul\":11562:11600   */\n      mstore\n        /* \"#utility.yul\":11655:11661   */\n      dup2\n        /* \"#utility.yul\":11648:11662   */\n      iszero\n        /* \"#utility.yul\":11641:11663   */\n      iszero\n        /* \"#utility.yul\":11633:11639   */\n      dup3\n        /* \"#utility.yul\":11629:11664   */\n      mul\n        /* \"#utility.yul\":11624:11627   */\n      dup7\n        /* \"#utility.yul\":11620:11665   */\n      add\n        /* \"#utility.yul\":11613:11665   */\n      swap4\n      pop\n        /* \"#utility.yul\":11509:11675   */\n      jump(tag_369)\n        /* \"#utility.yul\":11684:12025   */\n    tag_371:\n        /* \"#utility.yul\":11751:11789   */\n      tag_372\n        /* \"#utility.yul\":11783:11788   */\n      dup6\n        /* \"#utility.yul\":11751:11789   */\n      tag_218\n      jump\t// in\n    tag_372:\n        /* \"#utility.yul\":11811:11812   */\n      0x00\n        /* \"#utility.yul\":11825:11979   */\n    tag_373:\n        /* \"#utility.yul\":11839:11845   */\n      dup4\n        /* \"#utility.yul\":11836:11837   */\n      dup2\n        /* \"#utility.yul\":11833:11846   */\n      lt\n        /* \"#utility.yul\":11825:11979   */\n      iszero\n      tag_375\n      jumpi\n        /* \"#utility.yul\":11913:11920   */\n      dup2\n        /* \"#utility.yul\":11907:11921   */\n      sload\n        /* \"#utility.yul\":11903:11904   */\n      dup2\n        /* \"#utility.yul\":11898:11901   */\n      dup10\n        /* \"#utility.yul\":11894:11905   */\n      add\n        /* \"#utility.yul\":11887:11922   */\n      mstore\n        /* \"#utility.yul\":11963:11964   */\n      0x01\n        /* \"#utility.yul\":11954:11961   */\n      dup3\n        /* \"#utility.yul\":11950:11965   */\n      add\n        /* \"#utility.yul\":11939:11965   */\n      swap2\n      pop\n        /* \"#utility.yul\":11861:11865   */\n      0x20\n        /* \"#utility.yul\":11858:11859   */\n      dup2\n        /* \"#utility.yul\":11854:11866   */\n      add\n        /* \"#utility.yul\":11849:11866   */\n      swap1\n      pop\n        /* \"#utility.yul\":11825:11979   */\n      jump(tag_373)\n    tag_375:\n        /* \"#utility.yul\":12008:12014   */\n      dup4\n        /* \"#utility.yul\":12003:12006   */\n      dup9\n        /* \"#utility.yul\":11999:12015   */\n      add\n        /* \"#utility.yul\":11992:12015   */\n      swap6\n      pop\n        /* \"#utility.yul\":11691:12025   */\n      pop\n      pop\n        /* \"#utility.yul\":11476:12025   */\n    tag_369:\n      pop\n        /* \"#utility.yul\":11264:12031   */\n      pop\n      pop\n        /* \"#utility.yul\":11157:12031   */\n      swap3\n      swap2\n      pop\n      pop\n      jump\t// out\n        /* \"#utility.yul\":12037:12460   */\n    tag_64:\n        /* \"#utility.yul\":12211:12214   */\n      0x00\n        /* \"#utility.yul\":12233:12325   */\n      tag_377\n        /* \"#utility.yul\":12321:12324   */\n      dup3\n        /* \"#utility.yul\":12312:12318   */\n      dup6\n        /* \"#utility.yul\":12233:12325   */\n      tag_219\n      jump\t// in\n    tag_377:\n        /* \"#utility.yul\":12226:12325   */\n      swap2\n      pop\n        /* \"#utility.yul\":12342:12434   */\n      tag_378\n        /* \"#utility.yul\":12430:12433   */\n      dup3\n        /* \"#utility.yul\":12421:12427   */\n      dup5\n        /* \"#utility.yul\":12342:12434   */\n      tag_219\n      jump\t// in\n    tag_378:\n        /* \"#utility.yul\":12335:12434   */\n      swap2\n      pop\n        /* \"#utility.yul\":12451:12454   */\n      dup2\n        /* \"#utility.yul\":12444:12454   */\n      swap1\n      pop\n        /* \"#utility.yul\":12037:12460   */\n      swap4\n      swap3\n      pop\n      pop\n      pop\n      jump\t// out\n        /* \"#utility.yul\":12466:12629   */\n    tag_220:\n        /* \"#utility.yul\":12606:12621   */\n      0x4944206e6f742056616c69642100000000000000000000000000000000000000\n        /* \"#utility.yul\":12602:12603   */\n      0x00\n        /* \"#utility.yul\":12594:12600   */\n      dup3\n        /* \"#utility.yul\":12590:12604   */\n      add\n        /* \"#utility.yul\":12583:12622   */\n      mstore\n        /* \"#utility.yul\":12466:12629   */\n      pop\n      jump\t// out\n        /* \"#utility.yul\":12635:13001   */\n    tag_221:\n        /* \"#utility.yul\":12777:12780   */\n      0x00\n        /* \"#utility.yul\":12798:12865   */\n      tag_381\n        /* \"#utility.yul\":12862:12864   */\n      0x0d\n        /* \"#utility.yul\":12857:12860   */\n      dup4\n        /* \"#utility.yul\":12798:12865   */\n      tag_212\n      jump\t// in\n    tag_381:\n        /* \"#utility.yul\":12791:12865   */\n      swap2\n      pop\n        /* \"#utility.yul\":12874:12967   */\n      tag_382\n        /* \"#utility.yul\":12963:12966   */\n      dup3\n        /* \"#utility.yul\":12874:12967   */\n      tag_220\n      jump\t// in\n    tag_382:\n        /* \"#utility.yul\":12992:12994   */\n      0x20\n        /* \"#utility.yul\":12987:12990   */\n      dup3\n        /* \"#utility.yul\":12983:12995   */\n      add\n        /* \"#utility.yul\":12976:12995   */\n      swap1\n      pop\n        /* \"#utility.yul\":12635:13001   */\n      swap2\n      swap1\n      pop\n      jump\t// out\n        /* \"#utility.yul\":13007:13426   */\n    tag_68:\n        /* \"#utility.yul\":13173:13177   */\n      0x00\n        /* \"#utility.yul\":13211:13213   */\n      0x20\n        /* \"#utility.yul\":13200:13209   */\n      dup3\n        /* \"#utility.yul\":13196:13214   */\n      add\n        /* \"#utility.yul\":13188:13214   */\n      swap1\n      pop\n        /* \"#utility.yul\":13260:13269   */\n      dup2\n        /* \"#utility.yul\":13254:13258   */\n      dup2\n        /* \"#utility.yul\":13250:13270   */\n      sub\n        /* \"#utility.yul\":13246:13247   */\n      0x00\n        /* \"#utility.yul\":13235:13244   */\n      dup4\n        /* \"#utility.yul\":13231:13248   */\n      add\n        /* \"#utility.yul\":13224:13271   */\n      mstore\n        /* \"#utility.yul\":13288:13419   */\n      tag_384\n        /* \"#utility.yul\":13414:13418   */\n      dup2\n        /* \"#utility.yul\":13288:13419   */\n      tag_221\n      jump\t// in\n    tag_384:\n        /* \"#utility.yul\":13280:13419   */\n      swap1\n      pop\n        /* \"#utility.yul\":13007:13426   */\n      swap2\n      swap1\n      pop\n      jump\t// out\n        /* \"#utility.yul\":13432:13526   */\n    tag_222:\n        /* \"#utility.yul\":13465:13473   */\n      0x00\n        /* \"#utility.yul\":13513:13518   */\n      dup2\n        /* \"#utility.yul\":13509:13511   */\n      0x60\n        /* \"#utility.yul\":13505:13519   */\n      shl\n        /* \"#utility.yul\":13484:13519   */\n      swap1\n      pop\n        /* \"#utility.yul\":13432:13526   */\n      swap2\n      swap1\n      pop\n      jump\t// out\n        /* \"#utility.yul\":13532:13626   */\n    tag_223:\n        /* \"#utility.yul\":13571:13578   */\n      0x00\n        /* \"#utility.yul\":13600:13620   */\n      tag_387\n        /* \"#utility.yul\":13614:13619   */\n      dup3\n        /* \"#utility.yul\":13600:13620   */\n      tag_222\n      jump\t// in\n    tag_387:\n        /* \"#utility.yul\":13589:13620   */\n      swap1\n      pop\n        /* \"#utility.yul\":13532:13626   */\n      swap2\n      swap1\n      pop\n      jump\t// out\n        /* \"#utility.yul\":13632:13732   */\n    tag_224:\n        /* \"#utility.yul\":13671:13678   */\n      0x00\n        /* \"#utility.yul\":13700:13726   */\n      tag_389\n        /* \"#utility.yul\":13720:13725   */\n      dup3\n        /* \"#utility.yul\":13700:13726   */\n      tag_223\n      jump\t// in\n    tag_389:\n        /* \"#utility.yul\":13689:13726   */\n      swap1\n      pop\n        /* \"#utility.yul\":13632:13732   */\n      swap2\n      swap1\n      pop\n      jump\t// out\n        /* \"#utility.yul\":13738:13895   */\n    tag_225:\n        /* \"#utility.yul\":13843:13888   */\n      tag_391\n        /* \"#utility.yul\":13863:13887   */\n      tag_392\n        /* \"#utility.yul\":13881:13886   */\n      dup3\n        /* \"#utility.yul\":13863:13887   */\n      tag_192\n      jump\t// in\n    tag_392:\n        /* \"#utility.yul\":13843:13888   */\n      tag_224\n      jump\t// in\n    tag_391:\n        /* \"#utility.yul\":13838:13841   */\n      dup3\n        /* \"#utility.yul\":13831:13889   */\n      mstore\n        /* \"#utility.yul\":13738:13895   */\n      pop\n      pop\n      jump\t// out\n        /* \"#utility.yul\":13901:14637   */\n    tag_145:\n        /* \"#utility.yul\":14157:14160   */\n      0x00\n        /* \"#utility.yul\":14179:14274   */\n      tag_394\n        /* \"#utility.yul\":14270:14273   */\n      dup3\n        /* \"#utility.yul\":14261:14267   */\n      dup8\n        /* \"#utility.yul\":14179:14274   */\n      tag_216\n      jump\t// in\n    tag_394:\n        /* \"#utility.yul\":14172:14274   */\n      swap2\n      pop\n        /* \"#utility.yul\":14291:14386   */\n      tag_395\n        /* \"#utility.yul\":14382:14385   */\n      dup3\n        /* \"#utility.yul\":14373:14379   */\n      dup7\n        /* \"#utility.yul\":14291:14386   */\n      tag_216\n      jump\t// in\n    tag_395:\n        /* \"#utility.yul\":14284:14386   */\n      swap2\n      pop\n        /* \"#utility.yul\":14403:14498   */\n      tag_396\n        /* \"#utility.yul\":14494:14497   */\n      dup3\n        /* \"#utility.yul\":14485:14491   */\n      dup6\n        /* \"#utility.yul\":14403:14498   */\n      tag_216\n      jump\t// in\n    tag_396:\n        /* \"#utility.yul\":14396:14498   */\n      swap2\n      pop\n        /* \"#utility.yul\":14508:14583   */\n      tag_397\n        /* \"#utility.yul\":14579:14582   */\n      dup3\n        /* \"#utility.yul\":14570:14576   */\n      dup5\n        /* \"#utility.yul\":14508:14583   */\n      tag_225\n      jump\t// in\n    tag_397:\n        /* \"#utility.yul\":14608:14610   */\n      0x14\n        /* \"#utility.yul\":14603:14606   */\n      dup3\n        /* \"#utility.yul\":14599:14611   */\n      add\n        /* \"#utility.yul\":14592:14611   */\n      swap2\n      pop\n        /* \"#utility.yul\":14628:14631   */\n      dup2\n        /* \"#utility.yul\":14621:14631   */\n      swap1\n      pop\n        /* \"#utility.yul\":13901:14637   */\n      swap6\n      swap5\n      pop\n      pop\n      pop\n      pop\n      pop\n      jump\t// out\n        /* \"#utility.yul\":14643:14820   */\n    tag_226:\n        /* \"#utility.yul\":14783:14812   */\n      0x52657461696c657220616c726561647920726567697374657265640000000000\n        /* \"#utility.yul\":14779:14780   */\n      0x00\n        /* \"#utility.yul\":14771:14777   */\n      dup3\n        /* \"#utility.yul\":14767:14781   */\n      add\n        /* \"#utility.yul\":14760:14813   */\n      mstore\n        /* \"#utility.yul\":14643:14820   */\n      pop\n      jump\t// out\n        /* \"#utility.yul\":14826:15192   */\n    tag_227:\n        /* \"#utility.yul\":14968:14971   */\n      0x00\n        /* \"#utility.yul\":14989:15056   */\n      tag_400\n        /* \"#utility.yul\":15053:15055   */\n      0x1b\n        /* \"#utility.yul\":15048:15051   */\n      dup4\n        /* \"#utility.yul\":14989:15056   */\n      tag_212\n      jump\t// in\n    tag_400:\n        /* \"#utility.yul\":14982:15056   */\n      swap2\n      pop\n        /* \"#utility.yul\":15065:15158   */\n      tag_401\n        /* \"#utility.yul\":15154:15157   */\n      dup3\n        /* \"#utility.yul\":15065:15158   */\n      tag_226\n      jump\t// in\n    tag_401:\n        /* \"#utility.yul\":15183:15185   */\n      0x20\n        /* \"#utility.yul\":15178:15181   */\n      dup3\n        /* \"#utility.yul\":15174:15186   */\n      add\n        /* \"#utility.yul\":15167:15186   */\n      swap1\n      pop\n        /* \"#utility.yul\":14826:15192   */\n      swap2\n      swap1\n      pop\n      jump\t// out\n        /* \"#utility.yul\":15198:15617   */\n    tag_148:\n        /* \"#utility.yul\":15364:15368   */\n      0x00\n        /* \"#utility.yul\":15402:15404   */\n      0x20\n        /* \"#utility.yul\":15391:15400   */\n      dup3\n        /* \"#utility.yul\":15387:15405   */\n      add\n        /* \"#utility.yul\":15379:15405   */\n      swap1\n      pop\n        /* \"#utility.yul\":15451:15460   */\n      dup2\n        /* \"#utility.yul\":15445:15449   */\n      dup2\n        /* \"#utility.yul\":15441:15461   */\n      sub\n        /* \"#utility.yul\":15437:15438   */\n      0x00\n        /* \"#utility.yul\":15426:15435   */\n      dup4\n        /* \"#utility.yul\":15422:15439   */\n      add\n        /* \"#utility.yul\":15415:15462   */\n      mstore\n        /* \"#utility.yul\":15479:15610   */\n      tag_403\n        /* \"#utility.yul\":15605:15609   */\n      dup2\n        /* \"#utility.yul\":15479:15610   */\n      tag_227\n      jump\t// in\n    tag_403:\n        /* \"#utility.yul\":15471:15610   */\n      swap1\n      pop\n        /* \"#utility.yul\":15198:15617   */\n      swap2\n      swap1\n      pop\n      jump\t// out\n        /* \"#utility.yul\":15623:15798   */\n    tag_228:\n        /* \"#utility.yul\":15763:15790   */\n      0x46756c6c206e616d652063616e6e6f7420626520656d70747900000000000000\n        /* \"#utility.yul\":15759:15760   */\n      0x00\n        /* \"#utility.yul\":15751:15757   */\n      dup3\n        /* \"#utility.yul\":15747:15761   */\n      add\n        /* \"#utility.yul\":15740:15791   */\n      mstore\n        /* \"#utility.yul\":15623:15798   */\n      pop\n      jump\t// out\n        /* \"#utility.yul\":15804:16170   */\n    tag_229:\n        /* \"#utility.yul\":15946:15949   */\n      0x00\n        /* \"#utility.yul\":15967:16034   */\n      tag_406\n        /* \"#utility.yul\":16031:16033   */\n      0x19\n        /* \"#utility.yul\":16026:16029   */\n      dup4\n        /* \"#utility.yul\":15967:16034   */\n      tag_212\n      jump\t// in\n    tag_406:\n        /* \"#utility.yul\":15960:16034   */\n      swap2\n      pop\n        /* \"#utility.yul\":16043:16136   */\n      tag_407\n        /* \"#utility.yul\":16132:16135   */\n      dup3\n        /* \"#utility.yul\":16043:16136   */\n      tag_228\n      jump\t// in\n    tag_407:\n        /* \"#utility.yul\":16161:16163   */\n      0x20\n        /* \"#utility.yul\":16156:16159   */\n      dup3\n        /* \"#utility.yul\":16152:16164   */\n      add\n        /* \"#utility.yul\":16145:16164   */\n      swap1\n      pop\n        /* \"#utility.yul\":15804:16170   */\n      swap2\n      swap1\n      pop\n      jump\t// out\n        /* \"#utility.yul\":16176:16595   */\n    tag_151:\n        /* \"#utility.yul\":16342:16346   */\n      0x00\n        /* \"#utility.yul\":16380:16382   */\n      0x20\n        /* \"#utility.yul\":16369:16378   */\n      dup3\n        /* \"#utility.yul\":16365:16383   */\n      add\n        /* \"#utility.yul\":16357:16383   */\n      swap1\n      pop\n        /* \"#utility.yul\":16429:16438   */\n      dup2\n        /* \"#utility.yul\":16423:16427   */\n      dup2\n        /* \"#utility.yul\":16419:16439   */\n      sub\n        /* \"#utility.yul\":16415:16416   */\n      0x00\n        /* \"#utility.yul\":16404:16413   */\n      dup4\n        /* \"#utility.yul\":16400:16417   */\n      add\n        /* \"#utility.yul\":16393:16440   */\n      mstore\n        /* \"#utility.yul\":16457:16588   */\n      tag_409\n        /* \"#utility.yul\":16583:16587   */\n      dup2\n        /* \"#utility.yul\":16457:16588   */\n      tag_229\n      jump\t// in\n    tag_409:\n        /* \"#utility.yul\":16449:16588   */\n      swap1\n      pop\n        /* \"#utility.yul\":16176:16595   */\n      swap2\n      swap1\n      pop\n      jump\t// out\n        /* \"#utility.yul\":16601:16775   */\n    tag_230:\n        /* \"#utility.yul\":16741:16767   */\n      0x50617373776f72642063616e6e6f7420626520656d7074790000000000000000\n        /* \"#utility.yul\":16737:16738   */\n      0x00\n        /* \"#utility.yul\":16729:16735   */\n      dup3\n        /* \"#utility.yul\":16725:16739   */\n      add\n        /* \"#utility.yul\":16718:16768   */\n      mstore\n        /* \"#utility.yul\":16601:16775   */\n      pop\n      jump\t// out\n        /* \"#utility.yul\":16781:17147   */\n    tag_231:\n        /* \"#utility.yul\":16923:16926   */\n      0x00\n        /* \"#utility.yul\":16944:17011   */\n      tag_412\n        /* \"#utility.yul\":17008:17010   */\n      0x18\n        /* \"#utility.yul\":17003:17006   */\n      dup4\n        /* \"#utility.yul\":16944:17011   */\n      tag_212\n      jump\t// in\n    tag_412:\n        /* \"#utility.yul\":16937:17011   */\n      swap2\n      pop\n        /* \"#utility.yul\":17020:17113   */\n      tag_413\n        /* \"#utility.yul\":17109:17112   */\n      dup3\n        /* \"#utility.yul\":17020:17113   */\n      tag_230\n      jump\t// in\n    tag_413:\n        /* \"#utility.yul\":17138:17140   */\n      0x20\n        /* \"#utility.yul\":17133:17136   */\n      dup3\n        /* \"#utility.yul\":17129:17141   */\n      add\n        /* \"#utility.yul\":17122:17141   */\n      swap1\n      pop\n        /* \"#utility.yul\":16781:17147   */\n      swap2\n      swap1\n      pop\n      jump\t// out\n        /* \"#utility.yul\":17153:17572   */\n    tag_154:\n        /* \"#utility.yul\":17319:17323   */\n      0x00\n        /* \"#utility.yul\":17357:17359   */\n      0x20\n        /* \"#utility.yul\":17346:17355   */\n      dup3\n        /* \"#utility.yul\":17342:17360   */\n      add\n        /* \"#utility.yul\":17334:17360   */\n      swap1\n      pop\n        /* \"#utility.yul\":17406:17415   */\n      dup2\n        /* \"#utility.yul\":17400:17404   */\n      dup2\n        /* \"#utility.yul\":17396:17416   */\n      sub\n        /* \"#utility.yul\":17392:17393   */\n      0x00\n        /* \"#utility.yul\":17381:17390   */\n      dup4\n        /* \"#utility.yul\":17377:17394   */\n      add\n        /* \"#utility.yul\":17370:17417   */\n      mstore\n        /* \"#utility.yul\":17434:17565   */\n      tag_415\n        /* \"#utility.yul\":17560:17564   */\n      dup2\n        /* \"#utility.yul\":17434:17565   */\n      tag_231\n      jump\t// in\n    tag_415:\n        /* \"#utility.yul\":17426:17565   */\n      swap1\n      pop\n        /* \"#utility.yul\":17153:17572   */\n      swap2\n      swap1\n      pop\n      jump\t// out\n        /* \"#utility.yul\":17578:17749   */\n    tag_232:\n        /* \"#utility.yul\":17718:17741   */\n      0x456d61696c2063616e6e6f7420626520656d7074790000000000000000000000\n        /* \"#utility.yul\":17714:17715   */\n      0x00\n        /* \"#utility.yul\":17706:17712   */\n      dup3\n        /* \"#utility.yul\":17702:17716   */\n      add\n        /* \"#utility.yul\":17695:17742   */\n      mstore\n        /* \"#utility.yul\":17578:17749   */\n      pop\n      jump\t// out\n        /* \"#utility.yul\":17755:18121   */\n    tag_233:\n        /* \"#utility.yul\":17897:17900   */\n      0x00\n        /* \"#utility.yul\":17918:17985   */\n      tag_418\n        /* \"#utility.yul\":17982:17984   */\n      0x15\n        /* \"#utility.yul\":17977:17980   */\n      dup4\n        /* \"#utility.yul\":17918:17985   */\n      tag_212\n      jump\t// in\n    tag_418:\n        /* \"#utility.yul\":17911:17985   */\n      swap2\n      pop\n        /* \"#utility.yul\":17994:18087   */\n      tag_419\n        /* \"#utility.yul\":18083:18086   */\n      dup3\n        /* \"#utility.yul\":17994:18087   */\n      tag_232\n      jump\t// in\n    tag_419:\n        /* \"#utility.yul\":18112:18114   */\n      0x20\n        /* \"#utility.yul\":18107:18110   */\n      dup3\n        /* \"#utility.yul\":18103:18115   */\n      add\n        /* \"#utility.yul\":18096:18115   */\n      swap1\n      pop\n        /* \"#utility.yul\":17755:18121   */\n      swap2\n      swap1\n      pop\n      jump\t// out\n        /* \"#utility.yul\":18127:18546   */\n    tag_157:\n        /* \"#utility.yul\":18293:18297   */\n      0x00\n        /* \"#utility.yul\":18331:18333   */\n      0x20\n        /* \"#utility.yul\":18320:18329   */\n      dup3\n        /* \"#utility.yul\":18316:18334   */\n      add\n        /* \"#utility.yul\":18308:18334   */\n      swap1\n      pop\n        /* \"#utility.yul\":18380:18389   */\n      dup2\n        /* \"#utility.yul\":18374:18378   */\n      dup2\n        /* \"#utility.yul\":18370:18390   */\n      sub\n        /* \"#utility.yul\":18366:18367   */\n      0x00\n        /* \"#utility.yul\":18355:18364   */\n      dup4\n        /* \"#utility.yul\":18351:18368   */\n      add\n        /* \"#utility.yul\":18344:18391   */\n      mstore\n        /* \"#utility.yul\":18408:18539   */\n      tag_421\n        /* \"#utility.yul\":18534:18538   */\n      dup2\n        /* \"#utility.yul\":18408:18539   */\n      tag_233\n      jump\t// in\n    tag_421:\n        /* \"#utility.yul\":18400:18539   */\n      swap1\n      pop\n        /* \"#utility.yul\":18127:18546   */\n      swap2\n      swap1\n      pop\n      jump\t// out\n        /* \"#utility.yul\":18552:18645   */\n    tag_234:\n        /* \"#utility.yul\":18589:18595   */\n      0x00\n        /* \"#utility.yul\":18636:18638   */\n      0x20\n        /* \"#utility.yul\":18631:18633   */\n      0x1f\n        /* \"#utility.yul\":18624:18629   */\n      dup4\n        /* \"#utility.yul\":18620:18634   */\n      add\n        /* \"#utility.yul\":18616:18639   */\n      div\n        /* \"#utility.yul\":18606:18639   */\n      swap1\n      pop\n        /* \"#utility.yul\":18552:18645   */\n      swap2\n      swap1\n      pop\n      jump\t// out\n        /* \"#utility.yul\":18651:18758   */\n    tag_235:\n        /* \"#utility.yul\":18695:18703   */\n      0x00\n        /* \"#utility.yul\":18745:18750   */\n      dup3\n        /* \"#utility.yul\":18739:18743   */\n      dup3\n        /* \"#utility.yul\":18735:18751   */\n      shl\n        /* \"#utility.yul\":18714:18751   */\n      swap1\n      pop\n        /* \"#utility.yul\":18651:18758   */\n      swap3\n      swap2\n      pop\n      pop\n      jump\t// out\n        /* \"#utility.yul\":18764:19157   */\n    tag_236:\n        /* \"#utility.yul\":18833:18839   */\n      0x00\n        /* \"#utility.yul\":18883:18884   */\n      0x08\n        /* \"#utility.yul\":18871:18881   */\n      dup4\n        /* \"#utility.yul\":18867:18885   */\n      mul\n        /* \"#utility.yul\":18906:19003   */\n      tag_425\n        /* \"#utility.yul\":18936:19002   */\n      0xffffffffffffffffffffffffffffffffffffffffffffffffffffffffffffffff\n        /* \"#utility.yul\":18925:18934   */\n      dup3\n        /* \"#utility.yul\":18906:19003   */\n      tag_235\n      jump\t// in\n    tag_425:\n        /* \"#utility.yul\":19024:19063   */\n      tag_426\n        /* \"#utility.yul\":19054:19062   */\n      dup7\n        /* \"#utility.yul\":19043:19052   */\n      dup4\n        /* \"#utility.yul\":19024:19063   */\n      tag_235\n      jump\t// in\n    tag_426:\n        /* \"#utility.yul\":19012:19063   */\n      swap6\n      pop\n        /* \"#utility.yul\":19096:19100   */\n      dup1\n        /* \"#utility.yul\":19092:19101   */\n      not\n        /* \"#utility.yul\":19085:19090   */\n      dup5\n        /* \"#utility.yul\":19081:19102   */\n      and\n        /* \"#utility.yul\":19072:19102   */\n      swap4\n      pop\n        /* \"#utility.yul\":19145:19149   */\n      dup1\n        /* \"#utility.yul\":19135:19143   */\n      dup7\n        /* \"#utility.yul\":19131:19150   */\n      and\n        /* \"#utility.yul\":19124:19129   */\n      dup5\n        /* \"#utility.yul\":19121:19151   */\n      or\n        /* \"#utility.yul\":19111:19151   */\n      swap3\n      pop\n        /* \"#utility.yul\":18840:19157   */\n      pop\n      pop\n        /* \"#utility.yul\":18764:19157   */\n      swap4\n      swap3\n      pop\n      pop\n      pop\n      jump\t// out\n        /* \"#utility.yul\":19163:19223   */\n    tag_237:\n        /* \"#utility.yul\":19191:19194   */\n      0x00\n        /* \"#utility.yul\":19212:19217   */\n      dup2\n        /* \"#utility.yul\":19205:19217   */\n      swap1\n      pop\n        /* \"#utility.yul\":19163:19223   */\n      swap2\n      swap1\n      pop\n      jump\t// out\n        /* \"#utility.yul\":19229:19371   */\n    tag_238:\n        /* \"#utility.yul\":19279:19288   */\n      0x00\n        /* \"#utility.yul\":19312:19365   */\n      tag_429\n        /* \"#utility.yul\":19330:19364   */\n      tag_430\n        /* \"#utility.yul\":19339:19363   */\n      tag_431\n        /* \"#utility.yul\":19357:19362   */\n      dup5\n        /* \"#utility.yul\":19339:19363   */\n      tag_207\n      jump\t// in\n    tag_431:\n        /* \"#utility.yul\":19330:19364   */\n      tag_237\n      jump\t// in\n    tag_430:\n        /* \"#utility.yul\":19312:19365   */\n      tag_207\n      jump\t// in\n    tag_429:\n        /* \"#utility.yul\":19299:19365   */\n      swap1\n      pop\n        /* \"#utility.yul\":19229:19371   */\n      swap2\n      swap1\n      pop\n      jump\t// out\n        /* \"#utility.yul\":19377:19452   */\n    tag_239:\n        /* \"#utility.yul\":19420:19423   */\n      0x00\n        /* \"#utility.yul\":19441:19446   */\n      dup2\n        /* \"#utility.yul\":19434:19446   */\n      swap1\n      pop\n        /* \"#utility.yul\":19377:19452   */\n      swap2\n      swap1\n      pop\n      jump\t// out\n        /* \"#utility.yul\":19458:19727   */\n    tag_240:\n        /* \"#utility.yul\":19568:19607   */\n      tag_434\n        /* \"#utility.yul\":19599:19606   */\n      dup4\n        /* \"#utility.yul\":19568:19607   */\n      tag_238\n      jump\t// in\n    tag_434:\n        /* \"#utility.yul\":19629:19720   */\n      tag_435\n        /* \"#utility.yul\":19678:19719   */\n      tag_436\n        /* \"#utility.yul\":19702:19718   */\n      dup3\n        /* \"#utility.yul\":19678:19719   */\n      tag_239\n      jump\t// in\n    tag_436:\n        /* \"#utility.yul\":19670:19676   */\n      dup5\n        /* \"#utility.yul\":19663:19667   */\n      dup5\n        /* \"#utility.yul\":19657:19668   */\n      sload\n        /* \"#utility.yul\":19629:19720   */\n      tag_236\n      jump\t// in\n    tag_435:\n        /* \"#utility.yul\":19623:19627   */\n      dup3\n        /* \"#utility.yul\":19616:19721   */\n      sstore\n        /* \"#utility.yul\":19534:19727   */\n      pop\n        /* \"#utility.yul\":19458:19727   */\n      pop\n      pop\n      pop\n      jump\t// out\n        /* \"#utility.yul\":19733:19806   */\n    tag_241:\n        /* \"#utility.yul\":19778:19781   */\n      0x00\n        /* \"#utility.yul\":19733:19806   */\n      swap1\n      jump\t// out\n        /* \"#utility.yul\":19812:20001   */\n    tag_242:\n        /* \"#utility.yul\":19889:19921   */\n      tag_439\n      tag_241\n      jump\t// in\n    tag_439:\n        /* \"#utility.yul\":19930:19995   */\n      tag_440\n        /* \"#utility.yul\":19988:19994   */\n      dup2\n        /* \"#utility.yul\":19980:19986   */\n      dup5\n        /* \"#utility.yul\":19974:19978   */\n      dup5\n        /* \"#utility.yul\":19930:19995   */\n      tag_240\n      jump\t// in\n    tag_440:\n        /* \"#utility.yul\":19865:20001   */\n      pop\n        /* \"#utility.yul\":19812:20001   */\n      pop\n      pop\n      jump\t// out\n        /* \"#utility.yul\":20007:20193   */\n    tag_243:\n        /* \"#utility.yul\":20067:20187   */\n    tag_442:\n        /* \"#utility.yul\":20084:20087   */\n      dup2\n        /* \"#utility.yul\":20077:20082   */\n      dup2\n        /* \"#utility.yul\":20074:20088   */\n      lt\n        /* \"#utility.yul\":20067:20187   */\n      iszero\n      tag_444\n      jumpi\n        /* \"#utility.yul\":20138:20177   */\n      tag_445\n        /* \"#utility.yul\":20175:20176   */\n      0x00\n        /* \"#utility.yul\":20168:20173   */\n      dup3\n        /* \"#utility.yul\":20138:20177   */\n      tag_242\n      jump\t// in\n    tag_445:\n        /* \"#utility.yul\":20111:20112   */\n      0x01\n        /* \"#utility.yul\":20104:20109   */\n      dup2\n        /* \"#utility.yul\":20100:20113   */\n      add\n        /* \"#utility.yul\":20091:20113   */\n      swap1\n      pop\n        /* \"#utility.yul\":20067:20187   */\n      jump(tag_442)\n    tag_444:\n        /* \"#utility.yul\":20007:20193   */\n      pop\n      pop\n      jump\t// out\n        /* \"#utility.yul\":20199:20742   */\n    tag_244:\n        /* \"#utility.yul\":20300:20302   */\n      0x1f\n        /* \"#utility.yul\":20295:20298   */\n      dup3\n        /* \"#utility.yul\":20292:20303   */\n      gt\n        /* \"#utility.yul\":20289:20735   */\n      iszero\n      tag_447\n      jumpi\n        /* \"#utility.yul\":20334:20372   */\n      tag_448\n        /* \"#utility.yul\":20366:20371   */\n      dup2\n        /* \"#utility.yul\":20334:20372   */\n      tag_218\n      jump\t// in\n    tag_448:\n        /* \"#utility.yul\":20418:20447   */\n      tag_449\n        /* \"#utility.yul\":20436:20446   */\n      dup5\n        /* \"#utility.yul\":20418:20447   */\n      tag_234\n      jump\t// in\n    tag_449:\n        /* \"#utility.yul\":20408:20416   */\n      dup2\n        /* \"#utility.yul\":20404:20448   */\n      add\n        /* \"#utility.yul\":20601:20603   */\n      0x20\n        /* \"#utility.yul\":20589:20599   */\n      dup6\n        /* \"#utility.yul\":20586:20604   */\n      lt\n        /* \"#utility.yul\":20583:20632   */\n      iszero\n      tag_450\n      jumpi\n        /* \"#utility.yul\":20622:20630   */\n      dup2\n        /* \"#utility.yul\":20607:20630   */\n      swap1\n      pop\n        /* \"#utility.yul\":20583:20632   */\n    tag_450:\n        /* \"#utility.yul\":20645:20725   */\n      tag_451\n        /* \"#utility.yul\":20701:20723   */\n      tag_452\n        /* \"#utility.yul\":20719:20722   */\n      dup6\n        /* \"#utility.yul\":20701:20723   */\n      tag_234\n      jump\t// in\n    tag_452:\n        /* \"#utility.yul\":20691:20699   */\n      dup4\n        /* \"#utility.yul\":20687:20724   */\n      add\n        /* \"#utility.yul\":20674:20685   */\n      dup3\n        /* \"#utility.yul\":20645:20725   */\n      tag_243\n      jump\t// in\n    tag_451:\n        /* \"#utility.yul\":20304:20735   */\n      pop\n      pop\n        /* \"#utility.yul\":20289:20735   */\n    tag_447:\n        /* \"#utility.yul\":20199:20742   */\n      pop\n      pop\n      pop\n      jump\t// out\n        /* \"#utility.yul\":20748:20865   */\n    tag_245:\n        /* \"#utility.yul\":20802:20810   */\n      0x00\n        /* \"#utility.yul\":20852:20857   */\n      dup3\n        /* \"#utility.yul\":20846:20850   */\n      dup3\n        /* \"#utility.yul\":20842:20858   */\n      shr\n        /* \"#utility.yul\":20821:20858   */\n      swap1\n      pop\n        /* \"#utility.yul\":20748:20865   */\n      swap3\n      swap2\n      pop\n      pop\n      jump\t// out\n        /* \"#utility.yul\":20871:21040   */\n    tag_246:\n        /* \"#utility.yul\":20915:20921   */\n      0x00\n        /* \"#utility.yul\":20948:20999   */\n      tag_455\n        /* \"#utility.yul\":20996:20997   */\n      0x00\n        /* \"#utility.yul\":20992:20998   */\n      not\n        /* \"#utility.yul\":20984:20989   */\n      dup5\n        /* \"#utility.yul\":20981:20982   */\n      0x08\n        /* \"#utility.yul\":20977:20990   */\n      mul\n        /* \"#utility.yul\":20948:20999   */\n      tag_245\n      jump\t// in\n    tag_455:\n        /* \"#utility.yul\":20944:21000   */\n      not\n        /* \"#utility.yul\":21029:21033   */\n      dup1\n        /* \"#utility.yul\":21023:21027   */\n      dup4\n        /* \"#utility.yul\":21019:21034   */\n      and\n        /* \"#utility.yul\":21009:21034   */\n      swap2\n      pop\n        /* \"#utility.yul\":20922:21040   */\n      pop\n        /* \"#utility.yul\":20871:21040   */\n      swap3\n      swap2\n      pop\n      pop\n      jump\t// out\n        /* \"#utility.yul\":21045:21340   */\n    tag_247:\n        /* \"#utility.yul\":21121:21125   */\n      0x00\n        /* \"#utility.yul\":21267:21296   */\n      tag_457\n        /* \"#utility.yul\":21292:21295   */\n      dup4\n        /* \"#utility.yul\":21286:21290   */\n      dup4\n        /* \"#utility.yul\":21267:21296   */\n      tag_246\n      jump\t// in\n    tag_457:\n        /* \"#utility.yul\":21259:21296   */\n      swap2\n      pop\n        /* \"#utility.yul\":21329:21332   */\n      dup3\n        /* \"#utility.yul\":21326:21327   */\n      0x02\n        /* \"#utility.yul\":21322:21333   */\n      mul\n        /* \"#utility.yul\":21316:21320   */\n      dup3\n        /* \"#utility.yul\":21313:21334   */\n      or\n        /* \"#utility.yul\":21305:21334   */\n      swap1\n      pop\n        /* \"#utility.yul\":21045:21340   */\n      swap3\n      swap2\n      pop\n      pop\n      jump\t// out\n        /* \"#utility.yul\":21345:22740   */\n    tag_159:\n        /* \"#utility.yul\":21462:21499   */\n      tag_459\n        /* \"#utility.yul\":21495:21498   */\n      dup3\n        /* \"#utility.yul\":21462:21499   */\n      tag_211\n      jump\t// in\n    tag_459:\n        /* \"#utility.yul\":21564:21582   */\n      0xffffffffffffffff\n        /* \"#utility.yul\":21556:21562   */\n      dup2\n        /* \"#utility.yul\":21553:21583   */\n      gt\n        /* \"#utility.yul\":21550:21606   */\n      iszero\n      tag_460\n      jumpi\n        /* \"#utility.yul\":21586:21604   */\n      tag_461\n      tag_198\n      jump\t// in\n    tag_461:\n        /* \"#utility.yul\":21550:21606   */\n    tag_460:\n        /* \"#utility.yul\":21630:21668   */\n      tag_462\n        /* \"#utility.yul\":21662:21666   */\n      dup3\n        /* \"#utility.yul\":21656:21667   */\n      sload\n        /* \"#utility.yul\":21630:21668   */\n      tag_70\n      jump\t// in\n    tag_462:\n        /* \"#utility.yul\":21715:21782   */\n      tag_463\n        /* \"#utility.yul\":21775:21781   */\n      dup3\n        /* \"#utility.yul\":21767:21773   */\n      dup3\n        /* \"#utility.yul\":21761:21765   */\n      dup6\n        /* \"#utility.yul\":21715:21782   */\n      tag_244\n      jump\t// in\n    tag_463:\n        /* \"#utility.yul\":21809:21810   */\n      0x00\n        /* \"#utility.yul\":21833:21837   */\n      0x20\n        /* \"#utility.yul\":21820:21837   */\n      swap1\n      pop\n        /* \"#utility.yul\":21865:21867   */\n      0x1f\n        /* \"#utility.yul\":21857:21863   */\n      dup4\n        /* \"#utility.yul\":21854:21868   */\n      gt\n        /* \"#utility.yul\":21882:21883   */\n      0x01\n        /* \"#utility.yul\":21877:22495   */\n      dup2\n      eq\n      tag_465\n      jumpi\n        /* \"#utility.yul\":22539:22540   */\n      0x00\n        /* \"#utility.yul\":22556:22562   */\n      dup5\n        /* \"#utility.yul\":22553:22630   */\n      iszero\n      tag_466\n      jumpi\n        /* \"#utility.yul\":22605:22614   */\n      dup3\n        /* \"#utility.yul\":22600:22603   */\n      dup8\n        /* \"#utility.yul\":22596:22615   */\n      add\n        /* \"#utility.yul\":22590:22616   */\n      mload\n        /* \"#utility.yul\":22581:22616   */\n      swap1\n      pop\n        /* \"#utility.yul\":22553:22630   */\n    tag_466:\n        /* \"#utility.yul\":22656:22723   */\n      tag_467\n        /* \"#utility.yul\":22716:22722   */\n      dup6\n        /* \"#utility.yul\":22709:22714   */\n      dup3\n        /* \"#utility.yul\":22656:22723   */\n      tag_247\n      jump\t// in\n    tag_467:\n        /* \"#utility.yul\":22650:22654   */\n      dup7\n        /* \"#utility.yul\":22643:22724   */\n      sstore\n        /* \"#utility.yul\":22512:22734   */\n      pop\n        /* \"#utility.yul\":21847:22734   */\n      jump(tag_464)\n        /* \"#utility.yul\":21877:22495   */\n    tag_465:\n        /* \"#utility.yul\":21929:21933   */\n      0x1f\n        /* \"#utility.yul\":21925:21934   */\n      not\n        /* \"#utility.yul\":21917:21923   */\n      dup5\n        /* \"#utility.yul\":21913:21935   */\n      and\n        /* \"#utility.yul\":21963:22000   */\n      tag_468\n        /* \"#utility.yul\":21995:21999   */\n      dup7\n        /* \"#utility.yul\":21963:22000   */\n      tag_218\n      jump\t// in\n    tag_468:\n        /* \"#utility.yul\":22022:22023   */\n      0x00\n        /* \"#utility.yul\":22036:22244   */\n    tag_469:\n        /* \"#utility.yul\":22050:22057   */\n      dup3\n        /* \"#utility.yul\":22047:22048   */\n      dup2\n        /* \"#utility.yul\":22044:22058   */\n      lt\n        /* \"#utility.yul\":22036:22244   */\n      iszero\n      tag_471\n      jumpi\n        /* \"#utility.yul\":22129:22138   */\n      dup5\n        /* \"#utility.yul\":22124:22127   */\n      dup10\n        /* \"#utility.yul\":22120:22139   */\n      add\n        /* \"#utility.yul\":22114:22140   */\n      mload\n        /* \"#utility.yul\":22106:22112   */\n      dup3\n        /* \"#utility.yul\":22099:22141   */\n      sstore\n        /* \"#utility.yul\":22180:22181   */\n      0x01\n        /* \"#utility.yul\":22172:22178   */\n      dup3\n        /* \"#utility.yul\":22168:22182   */\n      add\n        /* \"#utility.yul\":22158:22182   */\n      swap2\n      pop\n        /* \"#utility.yul\":22227:22229   */\n      0x20\n        /* \"#utility.yul\":22216:22225   */\n      dup6\n        /* \"#utility.yul\":22212:22230   */\n      add\n        /* \"#utility.yul\":22199:22230   */\n      swap5\n      pop\n        /* \"#utility.yul\":22073:22077   */\n      0x20\n        /* \"#utility.yul\":22070:22071   */\n      dup2\n        /* \"#utility.yul\":22066:22078   */\n      add\n        /* \"#utility.yul\":22061:22078   */\n      swap1\n      pop\n        /* \"#utility.yul\":22036:22244   */\n      jump(tag_469)\n    tag_471:\n        /* \"#utility.yul\":22272:22278   */\n      dup7\n        /* \"#utility.yul\":22263:22270   */\n      dup4\n        /* \"#utility.yul\":22260:22279   */\n      lt\n        /* \"#utility.yul\":22257:22436   */\n      iszero\n      tag_472\n      jumpi\n        /* \"#utility.yul\":22330:22339   */\n      dup5\n        /* \"#utility.yul\":22325:22328   */\n      dup10\n        /* \"#utility.yul\":22321:22340   */\n      add\n        /* \"#utility.yul\":22315:22341   */\n      mload\n        /* \"#utility.yul\":22373:22421   */\n      tag_473\n        /* \"#utility.yul\":22415:22419   */\n      0x1f\n        /* \"#utility.yul\":22407:22413   */\n      dup10\n        /* \"#utility.yul\":22403:22420   */\n      and\n        /* \"#utility.yul\":22392:22401   */\n      dup3\n        /* \"#utility.yul\":22373:22421   */\n      tag_246\n      jump\t// in\n    tag_473:\n        /* \"#utility.yul\":22365:22371   */\n      dup4\n        /* \"#utility.yul\":22358:22422   */\n      sstore\n        /* \"#utility.yul\":22280:22436   */\n      pop\n        /* \"#utility.yul\":22257:22436   */\n    tag_472:\n        /* \"#utility.yul\":22482:22483   */\n      0x01\n        /* \"#utility.yul\":22478:22479   */\n      0x02\n        /* \"#utility.yul\":22470:22476   */\n      dup9\n        /* \"#utility.yul\":22466:22480   */\n      mul\n        /* \"#utility.yul\":22462:22484   */\n      add\n        /* \"#utility.yul\":22456:22460   */\n      dup9\n        /* \"#utility.yul\":22449:22485   */\n      sstore\n        /* \"#utility.yul\":21884:22495   */\n      pop\n      pop\n      pop\n        /* \"#utility.yul\":21847:22734   */\n    tag_464:\n      pop\n        /* \"#utility.yul\":21437:22740   */\n      pop\n      pop\n      pop\n        /* \"#utility.yul\":21345:22740   */\n      pop\n      pop\n      jump\t// out\n\n    auxdata: 0xa26469706673582212204ba301d88de7ab5263150d58b974fb4c66a33e825d132bb9417d02475b323c1564736f6c63430008160033\n}\n",
				"bytecode": {
					"linkReferences": {},
					"object": "608060405234801561000f575f80fd5b50335f806101000a81548173ffffffffffffffffffffffffffffffffffffffff021916908373ffffffffffffffffffffffffffffffffffffffff160217905550611eab8061005c5f395ff3fe608060405234801561000f575f80fd5b506004361061009c575f3560e01c80636f77926b116100645780636f77926b14610190578063a5578807146101c4578063b48ff0f1146101f4578063e0b1cccb14610210578063ecca40731461022c5761009c565b806306f22b04146100a05780632b04e840146100d05780635c60f2261461010057806365f68c89146101305780636e44cd4214610160575b5f80fd5b6100ba60048036038101906100b591906114e7565b61025c565b6040516100c79190611589565b60405180910390f35b6100ea60048036038101906100e591906115d5565b610300565b6040516100f79190611622565b60405180910390f35b61011a6004803603810190610115919061163b565b61059e565b6040516101279190611589565b60405180910390f35b61014a6004803603810190610145919061163b565b610671565b6040516101579190611622565b60405180910390f35b61017a600480360381019061017591906115d5565b61088c565b60405161018791906116e0565b60405180910390f35b6101aa60048036038101906101a5919061163b565b610b2b565b6040516101bb959493929190611700565b60405180910390f35b6101de60048036038101906101d9919061163b565b610d6c565b6040516101eb9190611589565b60405180910390f35b61020e60048036038101906102099190611766565b610db7565b005b61022a600480360381019061022591906115d5565b611000565b005b610246600480360381019061024191906115d5565b611049565b60405161025391906116e0565b60405180910390f35b5f8060015f8673ffffffffffffffffffffffffffffffffffffffff1673ffffffffffffffffffffffffffffffffffffffff1681526020019081526020015f20905083836040516020016102b0929190611858565b6040516020818303038152906040528051906020012081600301826002016040516020016102df92919061196a565b60405160208183030381529060405280519060200120149150509392505050565b5f8160015f8573ffffffffffffffffffffffffffffffffffffffff1673ffffffffffffffffffffffffffffffffffffffff1681526020019081526020015f205f015414610382576040517f08c379a0000000000000000000000000000000000000000000000000000000008152600401610379906119d7565b60405180910390fd5b5f60015f8573ffffffffffffffffffffffffffffffffffffffff1673ffffffffffffffffffffffffffffffffffffffff1681526020019081526020015f206040518060a00160405290815f82015481526020016001820180546103e4906118a8565b80601f0160208091040260200160405190810160405280929190818152602001828054610410906118a8565b801561045b5780601f106104325761010080835404028352916020019161045b565b820191905f5260205f20905b81548152906001019060200180831161043e57829003601f168201915b50505050508152602001600282018054610474906118a8565b80601f01602080910402602001604051908101604052809291908181526020018280546104a0906118a8565b80156104eb5780601f106104c2576101008083540402835291602001916104eb565b820191905f5260205f20905b8154815290600101906020018083116104ce57829003601f168201915b50505050508152602001600382018054610504906118a8565b80601f0160208091040260200160405190810160405280929190818152602001828054610530906118a8565b801561057b5780601f106105525761010080835404028352916020019161057b565b820191905f5260205f20905b81548152906001019060200180831161055e57829003601f168201915b505050505081526020016004820154815250509050806080015191505092915050565b5f60015f8373ffffffffffffffffffffffffffffffffffffffff1673ffffffffffffffffffffffffffffffffffffffff1681526020019081526020015f205f8082015f9055600182015f6105f291906112e8565b600282015f61060191906112e8565b600382015f61061091906112e8565b600482015f905550505f60015f8473ffffffffffffffffffffffffffffffffffffffff1673ffffffffffffffffffffffffffffffffffffffff1681526020019081526020015f205f015403610668576001905061066c565b5f90505b919050565b5f8060015f8473ffffffffffffffffffffffffffffffffffffffff1673ffffffffffffffffffffffffffffffffffffffff1681526020019081526020015f206040518060a00160405290815f82015481526020016001820180546106d4906118a8565b80601f0160208091040260200160405190810160405280929190818152602001828054610700906118a8565b801561074b5780601f106107225761010080835404028352916020019161074b565b820191905f5260205f20905b81548152906001019060200180831161072e57829003601f168201915b50505050508152602001600282018054610764906118a8565b80601f0160208091040260200160405190810160405280929190818152602001828054610790906118a8565b80156107db5780601f106107b2576101008083540402835291602001916107db565b820191905f5260205f20905b8154815290600101906020018083116107be57829003601f168201915b505050505081526020016003820180546107f4906118a8565b80601f0160208091040260200160405190810160405280929190818152602001828054610820906118a8565b801561086b5780601f106108425761010080835404028352916020019161086b565b820191905f5260205f20905b81548152906001019060200180831161084e57829003601f168201915b505050505081526020016004820154815250509050805f0151915050919050565b60608160015f8573ffffffffffffffffffffffffffffffffffffffff1673ffffffffffffffffffffffffffffffffffffffff1681526020019081526020015f205f01541461090f576040517f08c379a0000000000000000000000000000000000000000000000000000000008152600401610906906119d7565b60405180910390fd5b5f60015f8573ffffffffffffffffffffffffffffffffffffffff1673ffffffffffffffffffffffffffffffffffffffff1681526020019081526020015f206040518060a00160405290815f8201548152602001600182018054610971906118a8565b80601f016020809104026020016040519081016040528092919081815260200182805461099d906118a8565b80156109e85780601f106109bf576101008083540402835291602001916109e8565b820191905f5260205f20905b8154815290600101906020018083116109cb57829003601f168201915b50505050508152602001600282018054610a01906118a8565b80601f0160208091040260200160405190810160405280929190818152602001828054610a2d906118a8565b8015610a785780601f10610a4f57610100808354040283529160200191610a78565b820191905f5260205f20905b815481529060010190602001808311610a5b57829003601f168201915b50505050508152602001600382018054610a91906118a8565b80601f0160208091040260200160405190810160405280929190818152602001828054610abd906118a8565b8015610b085780601f10610adf57610100808354040283529160200191610b08565b820191905f5260205f20905b815481529060010190602001808311610aeb57829003601f168201915b505050505081526020016004820154815250509050806020015191505092915050565b5f60608060605f8060015f8873ffffffffffffffffffffffffffffffffffffffff1673ffffffffffffffffffffffffffffffffffffffff1681526020019081526020015f206040518060a00160405290815f8201548152602001600182018054610b94906118a8565b80601f0160208091040260200160405190810160405280929190818152602001828054610bc0906118a8565b8015610c0b5780601f10610be257610100808354040283529160200191610c0b565b820191905f5260205f20905b815481529060010190602001808311610bee57829003601f168201915b50505050508152602001600282018054610c24906118a8565b80601f0160208091040260200160405190810160405280929190818152602001828054610c50906118a8565b8015610c9b5780601f10610c7257610100808354040283529160200191610c9b565b820191905f5260205f20905b815481529060010190602001808311610c7e57829003601f168201915b50505050508152602001600382018054610cb4906118a8565b80601f0160208091040260200160405190810160405280929190818152602001828054610ce0906118a8565b8015610d2b5780601f10610d0257610100808354040283529160200191610d2b565b820191905f5260205f20905b815481529060010190602001808311610d0e57829003601f168201915b505050505081526020016004820154815250509050805f01518160200151826040015183606001518460800151955095509550955095505091939590929450565b5f8060015f8473ffffffffffffffffffffffffffffffffffffffff1673ffffffffffffffffffffffffffffffffffffffff1681526020019081526020015f205f015414159050919050565b5f84848484604051602001610dcf9493929190611a3a565b6040516020818303038152906040528051906020012090505f815f1c90505f60015f8573ffffffffffffffffffffffffffffffffffffffff1673ffffffffffffffffffffffffffffffffffffffff1681526020019081526020015f205f015414610e6e576040517f08c379a0000000000000000000000000000000000000000000000000000000008152600401610e6590611ac5565b60405180910390fd5b5f865111610eb1576040517f08c379a0000000000000000000000000000000000000000000000000000000008152600401610ea890611b2d565b60405180910390fd5b5f855111610ef4576040517f08c379a0000000000000000000000000000000000000000000000000000000008152600401610eeb90611b95565b60405180910390fd5b5f845111610f37576040517f08c379a0000000000000000000000000000000000000000000000000000000008152600401610f2e90611bfd565b60405180910390fd5b5f6040518060a00160405280838152602001888152602001878152602001868152602001606481525090508060015f8673ffffffffffffffffffffffffffffffffffffffff1673ffffffffffffffffffffffffffffffffffffffff1681526020019081526020015f205f820151815f01556020820151816001019081610fbd9190611da6565b506040820151816002019081610fd39190611da6565b506060820151816003019081610fe99190611da6565b506080820151816004015590505050505050505050565b8060015f8473ffffffffffffffffffffffffffffffffffffffff1673ffffffffffffffffffffffffffffffffffffffff1681526020019081526020015f20600401819055505050565b60608160015f8573ffffffffffffffffffffffffffffffffffffffff1673ffffffffffffffffffffffffffffffffffffffff1681526020019081526020015f205f0154146110cc576040517f08c379a00000000000000000000000000000000000000000000000000000000081526004016110c3906119d7565b60405180910390fd5b5f60015f8573ffffffffffffffffffffffffffffffffffffffff1673ffffffffffffffffffffffffffffffffffffffff1681526020019081526020015f206040518060a00160405290815f820154815260200160018201805461112e906118a8565b80601f016020809104026020016040519081016040528092919081815260200182805461115a906118a8565b80156111a55780601f1061117c576101008083540402835291602001916111a5565b820191905f5260205f20905b81548152906001019060200180831161118857829003601f168201915b505050505081526020016002820180546111be906118a8565b80601f01602080910402602001604051908101604052809291908181526020018280546111ea906118a8565b80156112355780601f1061120c57610100808354040283529160200191611235565b820191905f5260205f20905b81548152906001019060200180831161121857829003601f168201915b5050505050815260200160038201805461124e906118a8565b80601f016020809104026020016040519081016040528092919081815260200182805461127a906118a8565b80156112c55780601f1061129c576101008083540402835291602001916112c5565b820191905f5260205f20905b8154815290600101906020018083116112a857829003601f168201915b505050505081526020016004820154815250509050806060015191505092915050565b5080546112f4906118a8565b5f825580601f106113055750611322565b601f0160209004905f5260205f20908101906113219190611325565b5b50565b5b8082111561133c575f815f905550600101611326565b5090565b5f604051905090565b5f80fd5b5f80fd5b5f73ffffffffffffffffffffffffffffffffffffffff82169050919050565b5f61137a82611351565b9050919050565b61138a81611370565b8114611394575f80fd5b50565b5f813590506113a581611381565b92915050565b5f80fd5b5f80fd5b5f601f19601f8301169050919050565b7f4e487b71000000000000000000000000000000000000000000000000000000005f52604160045260245ffd5b6113f9826113b3565b810181811067ffffffffffffffff82111715611418576114176113c3565b5b80604052505050565b5f61142a611340565b905061143682826113f0565b919050565b5f67ffffffffffffffff821115611455576114546113c3565b5b61145e826113b3565b9050602081019050919050565b828183375f83830152505050565b5f61148b6114868461143b565b611421565b9050828152602081018484840111156114a7576114a66113af565b5b6114b284828561146b565b509392505050565b5f82601f8301126114ce576114cd6113ab565b5b81356114de848260208601611479565b91505092915050565b5f805f606084860312156114fe576114fd611349565b5b5f61150b86828701611397565b935050602084013567ffffffffffffffff81111561152c5761152b61134d565b5b611538868287016114ba565b925050604084013567ffffffffffffffff8111156115595761155861134d565b5b611565868287016114ba565b9150509250925092565b5f8115159050919050565b6115838161156f565b82525050565b5f60208201905061159c5f83018461157a565b92915050565b5f819050919050565b6115b4816115a2565b81146115be575f80fd5b50565b5f813590506115cf816115ab565b92915050565b5f80604083850312156115eb576115ea611349565b5b5f6115f885828601611397565b9250506020611609858286016115c1565b9150509250929050565b61161c816115a2565b82525050565b5f6020820190506116355f830184611613565b92915050565b5f602082840312156116505761164f611349565b5b5f61165d84828501611397565b91505092915050565b5f81519050919050565b5f82825260208201905092915050565b5f5b8381101561169d578082015181840152602081019050611682565b5f8484015250505050565b5f6116b282611666565b6116bc8185611670565b93506116cc818560208601611680565b6116d5816113b3565b840191505092915050565b5f6020820190508181035f8301526116f881846116a8565b905092915050565b5f60a0820190506117135f830188611613565b818103602083015261172581876116a8565b9050818103604083015261173981866116a8565b9050818103606083015261174d81856116a8565b905061175c6080830184611613565b9695505050505050565b5f805f806080858703121561177e5761177d611349565b5b5f85013567ffffffffffffffff81111561179b5761179a61134d565b5b6117a7878288016114ba565b945050602085013567ffffffffffffffff8111156117c8576117c761134d565b5b6117d4878288016114ba565b935050604085013567ffffffffffffffff8111156117f5576117f461134d565b5b611801878288016114ba565b925050606061181287828801611397565b91505092959194509250565b5f81905092915050565b5f61183282611666565b61183c818561181e565b935061184c818560208601611680565b80840191505092915050565b5f6118638285611828565b915061186f8284611828565b91508190509392505050565b7f4e487b71000000000000000000000000000000000000000000000000000000005f52602260045260245ffd5b5f60028204905060018216806118bf57607f821691505b6020821081036118d2576118d161187b565b5b50919050565b5f819050815f5260205f209050919050565b5f81546118f6816118a8565b611900818661181e565b9450600182165f811461191a576001811461192f57611961565b60ff1983168652811515820286019350611961565b611938856118d8565b5f5b838110156119595781548189015260018201915060208101905061193a565b838801955050505b50505092915050565b5f61197582856118ea565b915061198182846118ea565b91508190509392505050565b7f4944206e6f742056616c696421000000000000000000000000000000000000005f82015250565b5f6119c1600d83611670565b91506119cc8261198d565b602082019050919050565b5f6020820190508181035f8301526119ee816119b5565b9050919050565b5f8160601b9050919050565b5f611a0b826119f5565b9050919050565b5f611a1c82611a01565b9050919050565b611a34611a2f82611370565b611a12565b82525050565b5f611a458287611828565b9150611a518286611828565b9150611a5d8285611828565b9150611a698284611a23565b60148201915081905095945050505050565b7f52657461696c657220616c7265616479207265676973746572656400000000005f82015250565b5f611aaf601b83611670565b9150611aba82611a7b565b602082019050919050565b5f6020820190508181035f830152611adc81611aa3565b9050919050565b7f46756c6c206e616d652063616e6e6f7420626520656d707479000000000000005f82015250565b5f611b17601983611670565b9150611b2282611ae3565b602082019050919050565b5f6020820190508181035f830152611b4481611b0b565b9050919050565b7f50617373776f72642063616e6e6f7420626520656d70747900000000000000005f82015250565b5f611b7f601883611670565b9150611b8a82611b4b565b602082019050919050565b5f6020820190508181035f830152611bac81611b73565b9050919050565b7f456d61696c2063616e6e6f7420626520656d70747900000000000000000000005f82015250565b5f611be7601583611670565b9150611bf282611bb3565b602082019050919050565b5f6020820190508181035f830152611c1481611bdb565b9050919050565b5f6020601f8301049050919050565b5f82821b905092915050565b5f60088302611c657fffffffffffffffffffffffffffffffffffffffffffffffffffffffffffffffff82611c2a565b611c6f8683611c2a565b95508019841693508086168417925050509392505050565b5f819050919050565b5f611caa611ca5611ca0846115a2565b611c87565b6115a2565b9050919050565b5f819050919050565b611cc383611c90565b611cd7611ccf82611cb1565b848454611c36565b825550505050565b5f90565b611ceb611cdf565b611cf6818484611cba565b505050565b5b81811015611d1957611d0e5f82611ce3565b600181019050611cfc565b5050565b601f821115611d5e57611d2f816118d8565b611d3884611c1b565b81016020851015611d47578190505b611d5b611d5385611c1b565b830182611cfb565b50505b505050565b5f82821c905092915050565b5f611d7e5f1984600802611d63565b1980831691505092915050565b5f611d968383611d6f565b9150826002028217905092915050565b611daf82611666565b67ffffffffffffffff811115611dc857611dc76113c3565b5b611dd282546118a8565b611ddd828285611d1d565b5f60209050601f831160018114611e0e575f8415611dfc578287015190505b611e068582611d8b565b865550611e6d565b601f198416611e1c866118d8565b5f5b82811015611e4357848901518255600182019150602085019450602081019050611e1e565b86831015611e605784890151611e5c601f891682611d6f565b8355505b6001600288020188555050505b50505050505056fea26469706673582212204ba301d88de7ab5263150d58b974fb4c66a33e825d132bb9417d02475b323c1564736f6c63430008160033",
					"opcodes": "PUSH1 0x80 PUSH1 0x40 MSTORE CALLVALUE DUP1 ISZERO PUSH2 0xF JUMPI PUSH0 DUP1 REVERT JUMPDEST POP CALLER PUSH0 DUP1 PUSH2 0x100 EXP DUP2 SLOAD DUP2 PUSH20 0xFFFFFFFFFFFFFFFFFFFFFFFFFFFFFFFFFFFFFFFF MUL NOT AND SWAP1 DUP4 PUSH20 0xFFFFFFFFFFFFFFFFFFFFFFFFFFFFFFFFFFFFFFFF AND MUL OR SWAP1 SSTORE POP PUSH2 0x1EAB DUP1 PUSH2 0x5C PUSH0 CODECOPY PUSH0 RETURN INVALID PUSH1 0x80 PUSH1 0x40 MSTORE CALLVALUE DUP1 ISZERO PUSH2 0xF JUMPI PUSH0 DUP1 REVERT JUMPDEST POP PUSH1 0x4 CALLDATASIZE LT PUSH2 0x9C JUMPI PUSH0 CALLDATALOAD PUSH1 0xE0 SHR DUP1 PUSH4 0x6F77926B GT PUSH2 0x64 JUMPI DUP1 PUSH4 0x6F77926B EQ PUSH2 0x190 JUMPI DUP1 PUSH4 0xA5578807 EQ PUSH2 0x1C4 JUMPI DUP1 PUSH4 0xB48FF0F1 EQ PUSH2 0x1F4 JUMPI DUP1 PUSH4 0xE0B1CCCB EQ PUSH2 0x210 JUMPI DUP1 PUSH4 0xECCA4073 EQ PUSH2 0x22C JUMPI PUSH2 0x9C JUMP JUMPDEST DUP1 PUSH4 0x6F22B04 EQ PUSH2 0xA0 JUMPI DUP1 PUSH4 0x2B04E840 EQ PUSH2 0xD0 JUMPI DUP1 PUSH4 0x5C60F226 EQ PUSH2 0x100 JUMPI DUP1 PUSH4 0x65F68C89 EQ PUSH2 0x130 JUMPI DUP1 PUSH4 0x6E44CD42 EQ PUSH2 0x160 JUMPI JUMPDEST PUSH0 DUP1 REVERT JUMPDEST PUSH2 0xBA PUSH1 0x4 DUP1 CALLDATASIZE SUB DUP2 ADD SWAP1 PUSH2 0xB5 SWAP2 SWAP1 PUSH2 0x14E7 JUMP JUMPDEST PUSH2 0x25C JUMP JUMPDEST PUSH1 0x40 MLOAD PUSH2 0xC7 SWAP2 SWAP1 PUSH2 0x1589 JUMP JUMPDEST PUSH1 0x40 MLOAD DUP1 SWAP2 SUB SWAP1 RETURN JUMPDEST PUSH2 0xEA PUSH1 0x4 DUP1 CALLDATASIZE SUB DUP2 ADD SWAP1 PUSH2 0xE5 SWAP2 SWAP1 PUSH2 0x15D5 JUMP JUMPDEST PUSH2 0x300 JUMP JUMPDEST PUSH1 0x40 MLOAD PUSH2 0xF7 SWAP2 SWAP1 PUSH2 0x1622 JUMP JUMPDEST PUSH1 0x40 MLOAD DUP1 SWAP2 SUB SWAP1 RETURN JUMPDEST PUSH2 0x11A PUSH1 0x4 DUP1 CALLDATASIZE SUB DUP2 ADD SWAP1 PUSH2 0x115 SWAP2 SWAP1 PUSH2 0x163B JUMP JUMPDEST PUSH2 0x59E JUMP JUMPDEST PUSH1 0x40 MLOAD PUSH2 0x127 SWAP2 SWAP1 PUSH2 0x1589 JUMP JUMPDEST PUSH1 0x40 MLOAD DUP1 SWAP2 SUB SWAP1 RETURN JUMPDEST PUSH2 0x14A PUSH1 0x4 DUP1 CALLDATASIZE SUB DUP2 ADD SWAP1 PUSH2 0x145 SWAP2 SWAP1 PUSH2 0x163B JUMP JUMPDEST PUSH2 0x671 JUMP JUMPDEST PUSH1 0x40 MLOAD PUSH2 0x157 SWAP2 SWAP1 PUSH2 0x1622 JUMP JUMPDEST PUSH1 0x40 MLOAD DUP1 SWAP2 SUB SWAP1 RETURN JUMPDEST PUSH2 0x17A PUSH1 0x4 DUP1 CALLDATASIZE SUB DUP2 ADD SWAP1 PUSH2 0x175 SWAP2 SWAP1 PUSH2 0x15D5 JUMP JUMPDEST PUSH2 0x88C JUMP JUMPDEST PUSH1 0x40 MLOAD PUSH2 0x187 SWAP2 SWAP1 PUSH2 0x16E0 JUMP JUMPDEST PUSH1 0x40 MLOAD DUP1 SWAP2 SUB SWAP1 RETURN JUMPDEST PUSH2 0x1AA PUSH1 0x4 DUP1 CALLDATASIZE SUB DUP2 ADD SWAP1 PUSH2 0x1A5 SWAP2 SWAP1 PUSH2 0x163B JUMP JUMPDEST PUSH2 0xB2B JUMP JUMPDEST PUSH1 0x40 MLOAD PUSH2 0x1BB SWAP6 SWAP5 SWAP4 SWAP3 SWAP2 SWAP1 PUSH2 0x1700 JUMP JUMPDEST PUSH1 0x40 MLOAD DUP1 SWAP2 SUB SWAP1 RETURN JUMPDEST PUSH2 0x1DE PUSH1 0x4 DUP1 CALLDATASIZE SUB DUP2 ADD SWAP1 PUSH2 0x1D9 SWAP2 SWAP1 PUSH2 0x163B JUMP JUMPDEST PUSH2 0xD6C JUMP JUMPDEST PUSH1 0x40 MLOAD PUSH2 0x1EB SWAP2 SWAP1 PUSH2 0x1589 JUMP JUMPDEST PUSH1 0x40 MLOAD DUP1 SWAP2 SUB SWAP1 RETURN JUMPDEST PUSH2 0x20E PUSH1 0x4 DUP1 CALLDATASIZE SUB DUP2 ADD SWAP1 PUSH2 0x209 SWAP2 SWAP1 PUSH2 0x1766 JUMP JUMPDEST PUSH2 0xDB7 JUMP JUMPDEST STOP JUMPDEST PUSH2 0x22A PUSH1 0x4 DUP1 CALLDATASIZE SUB DUP2 ADD SWAP1 PUSH2 0x225 SWAP2 SWAP1 PUSH2 0x15D5 JUMP JUMPDEST PUSH2 0x1000 JUMP JUMPDEST STOP JUMPDEST PUSH2 0x246 PUSH1 0x4 DUP1 CALLDATASIZE SUB DUP2 ADD SWAP1 PUSH2 0x241 SWAP2 SWAP1 PUSH2 0x15D5 JUMP JUMPDEST PUSH2 0x1049 JUMP JUMPDEST PUSH1 0x40 MLOAD PUSH2 0x253 SWAP2 SWAP1 PUSH2 0x16E0 JUMP JUMPDEST PUSH1 0x40 MLOAD DUP1 SWAP2 SUB SWAP1 RETURN JUMPDEST PUSH0 DUP1 PUSH1 0x1 PUSH0 DUP7 PUSH20 0xFFFFFFFFFFFFFFFFFFFFFFFFFFFFFFFFFFFFFFFF AND PUSH20 0xFFFFFFFFFFFFFFFFFFFFFFFFFFFFFFFFFFFFFFFF AND DUP2 MSTORE PUSH1 0x20 ADD SWAP1 DUP2 MSTORE PUSH1 0x20 ADD PUSH0 KECCAK256 SWAP1 POP DUP4 DUP4 PUSH1 0x40 MLOAD PUSH1 0x20 ADD PUSH2 0x2B0 SWAP3 SWAP2 SWAP1 PUSH2 0x1858 JUMP JUMPDEST PUSH1 0x40 MLOAD PUSH1 0x20 DUP2 DUP4 SUB SUB DUP2 MSTORE SWAP1 PUSH1 0x40 MSTORE DUP1 MLOAD SWAP1 PUSH1 0x20 ADD KECCAK256 DUP2 PUSH1 0x3 ADD DUP3 PUSH1 0x2 ADD PUSH1 0x40 MLOAD PUSH1 0x20 ADD PUSH2 0x2DF SWAP3 SWAP2 SWAP1 PUSH2 0x196A JUMP JUMPDEST PUSH1 0x40 MLOAD PUSH1 0x20 DUP2 DUP4 SUB SUB DUP2 MSTORE SWAP1 PUSH1 0x40 MSTORE DUP1 MLOAD SWAP1 PUSH1 0x20 ADD KECCAK256 EQ SWAP2 POP POP SWAP4 SWAP3 POP POP POP JUMP JUMPDEST PUSH0 DUP2 PUSH1 0x1 PUSH0 DUP6 PUSH20 0xFFFFFFFFFFFFFFFFFFFFFFFFFFFFFFFFFFFFFFFF AND PUSH20 0xFFFFFFFFFFFFFFFFFFFFFFFFFFFFFFFFFFFFFFFF AND DUP2 MSTORE PUSH1 0x20 ADD SWAP1 DUP2 MSTORE PUSH1 0x20 ADD PUSH0 KECCAK256 PUSH0 ADD SLOAD EQ PUSH2 0x382 JUMPI PUSH1 0x40 MLOAD PUSH32 0x8C379A000000000000000000000000000000000000000000000000000000000 DUP2 MSTORE PUSH1 0x4 ADD PUSH2 0x379 SWAP1 PUSH2 0x19D7 JUMP JUMPDEST PUSH1 0x40 MLOAD DUP1 SWAP2 SUB SWAP1 REVERT JUMPDEST PUSH0 PUSH1 0x1 PUSH0 DUP6 PUSH20 0xFFFFFFFFFFFFFFFFFFFFFFFFFFFFFFFFFFFFFFFF AND PUSH20 0xFFFFFFFFFFFFFFFFFFFFFFFFFFFFFFFFFFFFFFFF AND DUP2 MSTORE PUSH1 0x20 ADD SWAP1 DUP2 MSTORE PUSH1 0x20 ADD PUSH0 KECCAK256 PUSH1 0x40 MLOAD DUP1 PUSH1 0xA0 ADD PUSH1 0x40 MSTORE SWAP1 DUP2 PUSH0 DUP3 ADD SLOAD DUP2 MSTORE PUSH1 0x20 ADD PUSH1 0x1 DUP3 ADD DUP1 SLOAD PUSH2 0x3E4 SWAP1 PUSH2 0x18A8 JUMP JUMPDEST DUP1 PUSH1 0x1F ADD PUSH1 0x20 DUP1 SWAP2 DIV MUL PUSH1 0x20 ADD PUSH1 0x40 MLOAD SWAP1 DUP2 ADD PUSH1 0x40 MSTORE DUP1 SWAP3 SWAP2 SWAP1 DUP2 DUP2 MSTORE PUSH1 0x20 ADD DUP3 DUP1 SLOAD PUSH2 0x410 SWAP1 PUSH2 0x18A8 JUMP JUMPDEST DUP1 ISZERO PUSH2 0x45B JUMPI DUP1 PUSH1 0x1F LT PUSH2 0x432 JUMPI PUSH2 0x100 DUP1 DUP4 SLOAD DIV MUL DUP4 MSTORE SWAP2 PUSH1 0x20 ADD SWAP2 PUSH2 0x45B JUMP JUMPDEST DUP3 ADD SWAP2 SWAP1 PUSH0 MSTORE PUSH1 0x20 PUSH0 KECCAK256 SWAP1 JUMPDEST DUP2 SLOAD DUP2 MSTORE SWAP1 PUSH1 0x1 ADD SWAP1 PUSH1 0x20 ADD DUP1 DUP4 GT PUSH2 0x43E JUMPI DUP3 SWAP1 SUB PUSH1 0x1F AND DUP3 ADD SWAP2 JUMPDEST POP POP POP POP POP DUP2 MSTORE PUSH1 0x20 ADD PUSH1 0x2 DUP3 ADD DUP1 SLOAD PUSH2 0x474 SWAP1 PUSH2 0x18A8 JUMP JUMPDEST DUP1 PUSH1 0x1F ADD PUSH1 0x20 DUP1 SWAP2 DIV MUL PUSH1 0x20 ADD PUSH1 0x40 MLOAD SWAP1 DUP2 ADD PUSH1 0x40 MSTORE DUP1 SWAP3 SWAP2 SWAP1 DUP2 DUP2 MSTORE PUSH1 0x20 ADD DUP3 DUP1 SLOAD PUSH2 0x4A0 SWAP1 PUSH2 0x18A8 JUMP JUMPDEST DUP1 ISZERO PUSH2 0x4EB JUMPI DUP1 PUSH1 0x1F LT PUSH2 0x4C2 JUMPI PUSH2 0x100 DUP1 DUP4 SLOAD DIV MUL DUP4 MSTORE SWAP2 PUSH1 0x20 ADD SWAP2 PUSH2 0x4EB JUMP JUMPDEST DUP3 ADD SWAP2 SWAP1 PUSH0 MSTORE PUSH1 0x20 PUSH0 KECCAK256 SWAP1 JUMPDEST DUP2 SLOAD DUP2 MSTORE SWAP1 PUSH1 0x1 ADD SWAP1 PUSH1 0x20 ADD DUP1 DUP4 GT PUSH2 0x4CE JUMPI DUP3 SWAP1 SUB PUSH1 0x1F AND DUP3 ADD SWAP2 JUMPDEST POP POP POP POP POP DUP2 MSTORE PUSH1 0x20 ADD PUSH1 0x3 DUP3 ADD DUP1 SLOAD PUSH2 0x504 SWAP1 PUSH2 0x18A8 JUMP JUMPDEST DUP1 PUSH1 0x1F ADD PUSH1 0x20 DUP1 SWAP2 DIV MUL PUSH1 0x20 ADD PUSH1 0x40 MLOAD SWAP1 DUP2 ADD PUSH1 0x40 MSTORE DUP1 SWAP3 SWAP2 SWAP1 DUP2 DUP2 MSTORE PUSH1 0x20 ADD DUP3 DUP1 SLOAD PUSH2 0x530 SWAP1 PUSH2 0x18A8 JUMP JUMPDEST DUP1 ISZERO PUSH2 0x57B JUMPI DUP1 PUSH1 0x1F LT PUSH2 0x552 JUMPI PUSH2 0x100 DUP1 DUP4 SLOAD DIV MUL DUP4 MSTORE SWAP2 PUSH1 0x20 ADD SWAP2 PUSH2 0x57B JUMP JUMPDEST DUP3 ADD SWAP2 SWAP1 PUSH0 MSTORE PUSH1 0x20 PUSH0 KECCAK256 SWAP1 JUMPDEST DUP2 SLOAD DUP2 MSTORE SWAP1 PUSH1 0x1 ADD SWAP1 PUSH1 0x20 ADD DUP1 DUP4 GT PUSH2 0x55E JUMPI DUP3 SWAP1 SUB PUSH1 0x1F AND DUP3 ADD SWAP2 JUMPDEST POP POP POP POP POP DUP2 MSTORE PUSH1 0x20 ADD PUSH1 0x4 DUP3 ADD SLOAD DUP2 MSTORE POP POP SWAP1 POP DUP1 PUSH1 0x80 ADD MLOAD SWAP2 POP POP SWAP3 SWAP2 POP POP JUMP JUMPDEST PUSH0 PUSH1 0x1 PUSH0 DUP4 PUSH20 0xFFFFFFFFFFFFFFFFFFFFFFFFFFFFFFFFFFFFFFFF AND PUSH20 0xFFFFFFFFFFFFFFFFFFFFFFFFFFFFFFFFFFFFFFFF AND DUP2 MSTORE PUSH1 0x20 ADD SWAP1 DUP2 MSTORE PUSH1 0x20 ADD PUSH0 KECCAK256 PUSH0 DUP1 DUP3 ADD PUSH0 SWAP1 SSTORE PUSH1 0x1 DUP3 ADD PUSH0 PUSH2 0x5F2 SWAP2 SWAP1 PUSH2 0x12E8 JUMP JUMPDEST PUSH1 0x2 DUP3 ADD PUSH0 PUSH2 0x601 SWAP2 SWAP1 PUSH2 0x12E8 JUMP JUMPDEST PUSH1 0x3 DUP3 ADD PUSH0 PUSH2 0x610 SWAP2 SWAP1 PUSH2 0x12E8 JUMP JUMPDEST PUSH1 0x4 DUP3 ADD PUSH0 SWAP1 SSTORE POP POP PUSH0 PUSH1 0x1 PUSH0 DUP5 PUSH20 0xFFFFFFFFFFFFFFFFFFFFFFFFFFFFFFFFFFFFFFFF AND PUSH20 0xFFFFFFFFFFFFFFFFFFFFFFFFFFFFFFFFFFFFFFFF AND DUP2 MSTORE PUSH1 0x20 ADD SWAP1 DUP2 MSTORE PUSH1 0x20 ADD PUSH0 KECCAK256 PUSH0 ADD SLOAD SUB PUSH2 0x668 JUMPI PUSH1 0x1 SWAP1 POP PUSH2 0x66C JUMP JUMPDEST PUSH0 SWAP1 POP JUMPDEST SWAP2 SWAP1 POP JUMP JUMPDEST PUSH0 DUP1 PUSH1 0x1 PUSH0 DUP5 PUSH20 0xFFFFFFFFFFFFFFFFFFFFFFFFFFFFFFFFFFFFFFFF AND PUSH20 0xFFFFFFFFFFFFFFFFFFFFFFFFFFFFFFFFFFFFFFFF AND DUP2 MSTORE PUSH1 0x20 ADD SWAP1 DUP2 MSTORE PUSH1 0x20 ADD PUSH0 KECCAK256 PUSH1 0x40 MLOAD DUP1 PUSH1 0xA0 ADD PUSH1 0x40 MSTORE SWAP1 DUP2 PUSH0 DUP3 ADD SLOAD DUP2 MSTORE PUSH1 0x20 ADD PUSH1 0x1 DUP3 ADD DUP1 SLOAD PUSH2 0x6D4 SWAP1 PUSH2 0x18A8 JUMP JUMPDEST DUP1 PUSH1 0x1F ADD PUSH1 0x20 DUP1 SWAP2 DIV MUL PUSH1 0x20 ADD PUSH1 0x40 MLOAD SWAP1 DUP2 ADD PUSH1 0x40 MSTORE DUP1 SWAP3 SWAP2 SWAP1 DUP2 DUP2 MSTORE PUSH1 0x20 ADD DUP3 DUP1 SLOAD PUSH2 0x700 SWAP1 PUSH2 0x18A8 JUMP JUMPDEST DUP1 ISZERO PUSH2 0x74B JUMPI DUP1 PUSH1 0x1F LT PUSH2 0x722 JUMPI PUSH2 0x100 DUP1 DUP4 SLOAD DIV MUL DUP4 MSTORE SWAP2 PUSH1 0x20 ADD SWAP2 PUSH2 0x74B JUMP JUMPDEST DUP3 ADD SWAP2 SWAP1 PUSH0 MSTORE PUSH1 0x20 PUSH0 KECCAK256 SWAP1 JUMPDEST DUP2 SLOAD DUP2 MSTORE SWAP1 PUSH1 0x1 ADD SWAP1 PUSH1 0x20 ADD DUP1 DUP4 GT PUSH2 0x72E JUMPI DUP3 SWAP1 SUB PUSH1 0x1F AND DUP3 ADD SWAP2 JUMPDEST POP POP POP POP POP DUP2 MSTORE PUSH1 0x20 ADD PUSH1 0x2 DUP3 ADD DUP1 SLOAD PUSH2 0x764 SWAP1 PUSH2 0x18A8 JUMP JUMPDEST DUP1 PUSH1 0x1F ADD PUSH1 0x20 DUP1 SWAP2 DIV MUL PUSH1 0x20 ADD PUSH1 0x40 MLOAD SWAP1 DUP2 ADD PUSH1 0x40 MSTORE DUP1 SWAP3 SWAP2 SWAP1 DUP2 DUP2 MSTORE PUSH1 0x20 ADD DUP3 DUP1 SLOAD PUSH2 0x790 SWAP1 PUSH2 0x18A8 JUMP JUMPDEST DUP1 ISZERO PUSH2 0x7DB JUMPI DUP1 PUSH1 0x1F LT PUSH2 0x7B2 JUMPI PUSH2 0x100 DUP1 DUP4 SLOAD DIV MUL DUP4 MSTORE SWAP2 PUSH1 0x20 ADD SWAP2 PUSH2 0x7DB JUMP JUMPDEST DUP3 ADD SWAP2 SWAP1 PUSH0 MSTORE PUSH1 0x20 PUSH0 KECCAK256 SWAP1 JUMPDEST DUP2 SLOAD DUP2 MSTORE SWAP1 PUSH1 0x1 ADD SWAP1 PUSH1 0x20 ADD DUP1 DUP4 GT PUSH2 0x7BE JUMPI DUP3 SWAP1 SUB PUSH1 0x1F AND DUP3 ADD SWAP2 JUMPDEST POP POP POP POP POP DUP2 MSTORE PUSH1 0x20 ADD PUSH1 0x3 DUP3 ADD DUP1 SLOAD PUSH2 0x7F4 SWAP1 PUSH2 0x18A8 JUMP JUMPDEST DUP1 PUSH1 0x1F ADD PUSH1 0x20 DUP1 SWAP2 DIV MUL PUSH1 0x20 ADD PUSH1 0x40 MLOAD SWAP1 DUP2 ADD PUSH1 0x40 MSTORE DUP1 SWAP3 SWAP2 SWAP1 DUP2 DUP2 MSTORE PUSH1 0x20 ADD DUP3 DUP1 SLOAD PUSH2 0x820 SWAP1 PUSH2 0x18A8 JUMP JUMPDEST DUP1 ISZERO PUSH2 0x86B JUMPI DUP1 PUSH1 0x1F LT PUSH2 0x842 JUMPI PUSH2 0x100 DUP1 DUP4 SLOAD DIV MUL DUP4 MSTORE SWAP2 PUSH1 0x20 ADD SWAP2 PUSH2 0x86B JUMP JUMPDEST DUP3 ADD SWAP2 SWAP1 PUSH0 MSTORE PUSH1 0x20 PUSH0 KECCAK256 SWAP1 JUMPDEST DUP2 SLOAD DUP2 MSTORE SWAP1 PUSH1 0x1 ADD SWAP1 PUSH1 0x20 ADD DUP1 DUP4 GT PUSH2 0x84E JUMPI DUP3 SWAP1 SUB PUSH1 0x1F AND DUP3 ADD SWAP2 JUMPDEST POP POP POP POP POP DUP2 MSTORE PUSH1 0x20 ADD PUSH1 0x4 DUP3 ADD SLOAD DUP2 MSTORE POP POP SWAP1 POP DUP1 PUSH0 ADD MLOAD SWAP2 POP POP SWAP2 SWAP1 POP JUMP JUMPDEST PUSH1 0x60 DUP2 PUSH1 0x1 PUSH0 DUP6 PUSH20 0xFFFFFFFFFFFFFFFFFFFFFFFFFFFFFFFFFFFFFFFF AND PUSH20 0xFFFFFFFFFFFFFFFFFFFFFFFFFFFFFFFFFFFFFFFF AND DUP2 MSTORE PUSH1 0x20 ADD SWAP1 DUP2 MSTORE PUSH1 0x20 ADD PUSH0 KECCAK256 PUSH0 ADD SLOAD EQ PUSH2 0x90F JUMPI PUSH1 0x40 MLOAD PUSH32 0x8C379A000000000000000000000000000000000000000000000000000000000 DUP2 MSTORE PUSH1 0x4 ADD PUSH2 0x906 SWAP1 PUSH2 0x19D7 JUMP JUMPDEST PUSH1 0x40 MLOAD DUP1 SWAP2 SUB SWAP1 REVERT JUMPDEST PUSH0 PUSH1 0x1 PUSH0 DUP6 PUSH20 0xFFFFFFFFFFFFFFFFFFFFFFFFFFFFFFFFFFFFFFFF AND PUSH20 0xFFFFFFFFFFFFFFFFFFFFFFFFFFFFFFFFFFFFFFFF AND DUP2 MSTORE PUSH1 0x20 ADD SWAP1 DUP2 MSTORE PUSH1 0x20 ADD PUSH0 KECCAK256 PUSH1 0x40 MLOAD DUP1 PUSH1 0xA0 ADD PUSH1 0x40 MSTORE SWAP1 DUP2 PUSH0 DUP3 ADD SLOAD DUP2 MSTORE PUSH1 0x20 ADD PUSH1 0x1 DUP3 ADD DUP1 SLOAD PUSH2 0x971 SWAP1 PUSH2 0x18A8 JUMP JUMPDEST DUP1 PUSH1 0x1F ADD PUSH1 0x20 DUP1 SWAP2 DIV MUL PUSH1 0x20 ADD PUSH1 0x40 MLOAD SWAP1 DUP2 ADD PUSH1 0x40 MSTORE DUP1 SWAP3 SWAP2 SWAP1 DUP2 DUP2 MSTORE PUSH1 0x20 ADD DUP3 DUP1 SLOAD PUSH2 0x99D SWAP1 PUSH2 0x18A8 JUMP JUMPDEST DUP1 ISZERO PUSH2 0x9E8 JUMPI DUP1 PUSH1 0x1F LT PUSH2 0x9BF JUMPI PUSH2 0x100 DUP1 DUP4 SLOAD DIV MUL DUP4 MSTORE SWAP2 PUSH1 0x20 ADD SWAP2 PUSH2 0x9E8 JUMP JUMPDEST DUP3 ADD SWAP2 SWAP1 PUSH0 MSTORE PUSH1 0x20 PUSH0 KECCAK256 SWAP1 JUMPDEST DUP2 SLOAD DUP2 MSTORE SWAP1 PUSH1 0x1 ADD SWAP1 PUSH1 0x20 ADD DUP1 DUP4 GT PUSH2 0x9CB JUMPI DUP3 SWAP1 SUB PUSH1 0x1F AND DUP3 ADD SWAP2 JUMPDEST POP POP POP POP POP DUP2 MSTORE PUSH1 0x20 ADD PUSH1 0x2 DUP3 ADD DUP1 SLOAD PUSH2 0xA01 SWAP1 PUSH2 0x18A8 JUMP JUMPDEST DUP1 PUSH1 0x1F ADD PUSH1 0x20 DUP1 SWAP2 DIV MUL PUSH1 0x20 ADD PUSH1 0x40 MLOAD SWAP1 DUP2 ADD PUSH1 0x40 MSTORE DUP1 SWAP3 SWAP2 SWAP1 DUP2 DUP2 MSTORE PUSH1 0x20 ADD DUP3 DUP1 SLOAD PUSH2 0xA2D SWAP1 PUSH2 0x18A8 JUMP JUMPDEST DUP1 ISZERO PUSH2 0xA78 JUMPI DUP1 PUSH1 0x1F LT PUSH2 0xA4F JUMPI PUSH2 0x100 DUP1 DUP4 SLOAD DIV MUL DUP4 MSTORE SWAP2 PUSH1 0x20 ADD SWAP2 PUSH2 0xA78 JUMP JUMPDEST DUP3 ADD SWAP2 SWAP1 PUSH0 MSTORE PUSH1 0x20 PUSH0 KECCAK256 SWAP1 JUMPDEST DUP2 SLOAD DUP2 MSTORE SWAP1 PUSH1 0x1 ADD SWAP1 PUSH1 0x20 ADD DUP1 DUP4 GT PUSH2 0xA5B JUMPI DUP3 SWAP1 SUB PUSH1 0x1F AND DUP3 ADD SWAP2 JUMPDEST POP POP POP POP POP DUP2 MSTORE PUSH1 0x20 ADD PUSH1 0x3 DUP3 ADD DUP1 SLOAD PUSH2 0xA91 SWAP1 PUSH2 0x18A8 JUMP JUMPDEST DUP1 PUSH1 0x1F ADD PUSH1 0x20 DUP1 SWAP2 DIV MUL PUSH1 0x20 ADD PUSH1 0x40 MLOAD SWAP1 DUP2 ADD PUSH1 0x40 MSTORE DUP1 SWAP3 SWAP2 SWAP1 DUP2 DUP2 MSTORE PUSH1 0x20 ADD DUP3 DUP1 SLOAD PUSH2 0xABD SWAP1 PUSH2 0x18A8 JUMP JUMPDEST DUP1 ISZERO PUSH2 0xB08 JUMPI DUP1 PUSH1 0x1F LT PUSH2 0xADF JUMPI PUSH2 0x100 DUP1 DUP4 SLOAD DIV MUL DUP4 MSTORE SWAP2 PUSH1 0x20 ADD SWAP2 PUSH2 0xB08 JUMP JUMPDEST DUP3 ADD SWAP2 SWAP1 PUSH0 MSTORE PUSH1 0x20 PUSH0 KECCAK256 SWAP1 JUMPDEST DUP2 SLOAD DUP2 MSTORE SWAP1 PUSH1 0x1 ADD SWAP1 PUSH1 0x20 ADD DUP1 DUP4 GT PUSH2 0xAEB JUMPI DUP3 SWAP1 SUB PUSH1 0x1F AND DUP3 ADD SWAP2 JUMPDEST POP POP POP POP POP DUP2 MSTORE PUSH1 0x20 ADD PUSH1 0x4 DUP3 ADD SLOAD DUP2 MSTORE POP POP SWAP1 POP DUP1 PUSH1 0x20 ADD MLOAD SWAP2 POP POP SWAP3 SWAP2 POP POP JUMP JUMPDEST PUSH0 PUSH1 0x60 DUP1 PUSH1 0x60 PUSH0 DUP1 PUSH1 0x1 PUSH0 DUP9 PUSH20 0xFFFFFFFFFFFFFFFFFFFFFFFFFFFFFFFFFFFFFFFF AND PUSH20 0xFFFFFFFFFFFFFFFFFFFFFFFFFFFFFFFFFFFFFFFF AND DUP2 MSTORE PUSH1 0x20 ADD SWAP1 DUP2 MSTORE PUSH1 0x20 ADD PUSH0 KECCAK256 PUSH1 0x40 MLOAD DUP1 PUSH1 0xA0 ADD PUSH1 0x40 MSTORE SWAP1 DUP2 PUSH0 DUP3 ADD SLOAD DUP2 MSTORE PUSH1 0x20 ADD PUSH1 0x1 DUP3 ADD DUP1 SLOAD PUSH2 0xB94 SWAP1 PUSH2 0x18A8 JUMP JUMPDEST DUP1 PUSH1 0x1F ADD PUSH1 0x20 DUP1 SWAP2 DIV MUL PUSH1 0x20 ADD PUSH1 0x40 MLOAD SWAP1 DUP2 ADD PUSH1 0x40 MSTORE DUP1 SWAP3 SWAP2 SWAP1 DUP2 DUP2 MSTORE PUSH1 0x20 ADD DUP3 DUP1 SLOAD PUSH2 0xBC0 SWAP1 PUSH2 0x18A8 JUMP JUMPDEST DUP1 ISZERO PUSH2 0xC0B JUMPI DUP1 PUSH1 0x1F LT PUSH2 0xBE2 JUMPI PUSH2 0x100 DUP1 DUP4 SLOAD DIV MUL DUP4 MSTORE SWAP2 PUSH1 0x20 ADD SWAP2 PUSH2 0xC0B JUMP JUMPDEST DUP3 ADD SWAP2 SWAP1 PUSH0 MSTORE PUSH1 0x20 PUSH0 KECCAK256 SWAP1 JUMPDEST DUP2 SLOAD DUP2 MSTORE SWAP1 PUSH1 0x1 ADD SWAP1 PUSH1 0x20 ADD DUP1 DUP4 GT PUSH2 0xBEE JUMPI DUP3 SWAP1 SUB PUSH1 0x1F AND DUP3 ADD SWAP2 JUMPDEST POP POP POP POP POP DUP2 MSTORE PUSH1 0x20 ADD PUSH1 0x2 DUP3 ADD DUP1 SLOAD PUSH2 0xC24 SWAP1 PUSH2 0x18A8 JUMP JUMPDEST DUP1 PUSH1 0x1F ADD PUSH1 0x20 DUP1 SWAP2 DIV MUL PUSH1 0x20 ADD PUSH1 0x40 MLOAD SWAP1 DUP2 ADD PUSH1 0x40 MSTORE DUP1 SWAP3 SWAP2 SWAP1 DUP2 DUP2 MSTORE PUSH1 0x20 ADD DUP3 DUP1 SLOAD PUSH2 0xC50 SWAP1 PUSH2 0x18A8 JUMP JUMPDEST DUP1 ISZERO PUSH2 0xC9B JUMPI DUP1 PUSH1 0x1F LT PUSH2 0xC72 JUMPI PUSH2 0x100 DUP1 DUP4 SLOAD DIV MUL DUP4 MSTORE SWAP2 PUSH1 0x20 ADD SWAP2 PUSH2 0xC9B JUMP JUMPDEST DUP3 ADD SWAP2 SWAP1 PUSH0 MSTORE PUSH1 0x20 PUSH0 KECCAK256 SWAP1 JUMPDEST DUP2 SLOAD DUP2 MSTORE SWAP1 PUSH1 0x1 ADD SWAP1 PUSH1 0x20 ADD DUP1 DUP4 GT PUSH2 0xC7E JUMPI DUP3 SWAP1 SUB PUSH1 0x1F AND DUP3 ADD SWAP2 JUMPDEST POP POP POP POP POP DUP2 MSTORE PUSH1 0x20 ADD PUSH1 0x3 DUP3 ADD DUP1 SLOAD PUSH2 0xCB4 SWAP1 PUSH2 0x18A8 JUMP JUMPDEST DUP1 PUSH1 0x1F ADD PUSH1 0x20 DUP1 SWAP2 DIV MUL PUSH1 0x20 ADD PUSH1 0x40 MLOAD SWAP1 DUP2 ADD PUSH1 0x40 MSTORE DUP1 SWAP3 SWAP2 SWAP1 DUP2 DUP2 MSTORE PUSH1 0x20 ADD DUP3 DUP1 SLOAD PUSH2 0xCE0 SWAP1 PUSH2 0x18A8 JUMP JUMPDEST DUP1 ISZERO PUSH2 0xD2B JUMPI DUP1 PUSH1 0x1F LT PUSH2 0xD02 JUMPI PUSH2 0x100 DUP1 DUP4 SLOAD DIV MUL DUP4 MSTORE SWAP2 PUSH1 0x20 ADD SWAP2 PUSH2 0xD2B JUMP JUMPDEST DUP3 ADD SWAP2 SWAP1 PUSH0 MSTORE PUSH1 0x20 PUSH0 KECCAK256 SWAP1 JUMPDEST DUP2 SLOAD DUP2 MSTORE SWAP1 PUSH1 0x1 ADD SWAP1 PUSH1 0x20 ADD DUP1 DUP4 GT PUSH2 0xD0E JUMPI DUP3 SWAP1 SUB PUSH1 0x1F AND DUP3 ADD SWAP2 JUMPDEST POP POP POP POP POP DUP2 MSTORE PUSH1 0x20 ADD PUSH1 0x4 DUP3 ADD SLOAD DUP2 MSTORE POP POP SWAP1 POP DUP1 PUSH0 ADD MLOAD DUP2 PUSH1 0x20 ADD MLOAD DUP3 PUSH1 0x40 ADD MLOAD DUP4 PUSH1 0x60 ADD MLOAD DUP5 PUSH1 0x80 ADD MLOAD SWAP6 POP SWAP6 POP SWAP6 POP SWAP6 POP SWAP6 POP POP SWAP2 SWAP4 SWAP6 SWAP1 SWAP3 SWAP5 POP JUMP JUMPDEST PUSH0 DUP1 PUSH1 0x1 PUSH0 DUP5 PUSH20 0xFFFFFFFFFFFFFFFFFFFFFFFFFFFFFFFFFFFFFFFF AND PUSH20 0xFFFFFFFFFFFFFFFFFFFFFFFFFFFFFFFFFFFFFFFF AND DUP2 MSTORE PUSH1 0x20 ADD SWAP1 DUP2 MSTORE PUSH1 0x20 ADD PUSH0 KECCAK256 PUSH0 ADD SLOAD EQ ISZERO SWAP1 POP SWAP2 SWAP1 POP JUMP JUMPDEST PUSH0 DUP5 DUP5 DUP5 DUP5 PUSH1 0x40 MLOAD PUSH1 0x20 ADD PUSH2 0xDCF SWAP5 SWAP4 SWAP3 SWAP2 SWAP1 PUSH2 0x1A3A JUMP JUMPDEST PUSH1 0x40 MLOAD PUSH1 0x20 DUP2 DUP4 SUB SUB DUP2 MSTORE SWAP1 PUSH1 0x40 MSTORE DUP1 MLOAD SWAP1 PUSH1 0x20 ADD KECCAK256 SWAP1 POP PUSH0 DUP2 PUSH0 SHR SWAP1 POP PUSH0 PUSH1 0x1 PUSH0 DUP6 PUSH20 0xFFFFFFFFFFFFFFFFFFFFFFFFFFFFFFFFFFFFFFFF AND PUSH20 0xFFFFFFFFFFFFFFFFFFFFFFFFFFFFFFFFFFFFFFFF AND DUP2 MSTORE PUSH1 0x20 ADD SWAP1 DUP2 MSTORE PUSH1 0x20 ADD PUSH0 KECCAK256 PUSH0 ADD SLOAD EQ PUSH2 0xE6E JUMPI PUSH1 0x40 MLOAD PUSH32 0x8C379A000000000000000000000000000000000000000000000000000000000 DUP2 MSTORE PUSH1 0x4 ADD PUSH2 0xE65 SWAP1 PUSH2 0x1AC5 JUMP JUMPDEST PUSH1 0x40 MLOAD DUP1 SWAP2 SUB SWAP1 REVERT JUMPDEST PUSH0 DUP7 MLOAD GT PUSH2 0xEB1 JUMPI PUSH1 0x40 MLOAD PUSH32 0x8C379A000000000000000000000000000000000000000000000000000000000 DUP2 MSTORE PUSH1 0x4 ADD PUSH2 0xEA8 SWAP1 PUSH2 0x1B2D JUMP JUMPDEST PUSH1 0x40 MLOAD DUP1 SWAP2 SUB SWAP1 REVERT JUMPDEST PUSH0 DUP6 MLOAD GT PUSH2 0xEF4 JUMPI PUSH1 0x40 MLOAD PUSH32 0x8C379A000000000000000000000000000000000000000000000000000000000 DUP2 MSTORE PUSH1 0x4 ADD PUSH2 0xEEB SWAP1 PUSH2 0x1B95 JUMP JUMPDEST PUSH1 0x40 MLOAD DUP1 SWAP2 SUB SWAP1 REVERT JUMPDEST PUSH0 DUP5 MLOAD GT PUSH2 0xF37 JUMPI PUSH1 0x40 MLOAD PUSH32 0x8C379A000000000000000000000000000000000000000000000000000000000 DUP2 MSTORE PUSH1 0x4 ADD PUSH2 0xF2E SWAP1 PUSH2 0x1BFD JUMP JUMPDEST PUSH1 0x40 MLOAD DUP1 SWAP2 SUB SWAP1 REVERT JUMPDEST PUSH0 PUSH1 0x40 MLOAD DUP1 PUSH1 0xA0 ADD PUSH1 0x40 MSTORE DUP1 DUP4 DUP2 MSTORE PUSH1 0x20 ADD DUP9 DUP2 MSTORE PUSH1 0x20 ADD DUP8 DUP2 MSTORE PUSH1 0x20 ADD DUP7 DUP2 MSTORE PUSH1 0x20 ADD PUSH1 0x64 DUP2 MSTORE POP SWAP1 POP DUP1 PUSH1 0x1 PUSH0 DUP7 PUSH20 0xFFFFFFFFFFFFFFFFFFFFFFFFFFFFFFFFFFFFFFFF AND PUSH20 0xFFFFFFFFFFFFFFFFFFFFFFFFFFFFFFFFFFFFFFFF AND DUP2 MSTORE PUSH1 0x20 ADD SWAP1 DUP2 MSTORE PUSH1 0x20 ADD PUSH0 KECCAK256 PUSH0 DUP3 ADD MLOAD DUP2 PUSH0 ADD SSTORE PUSH1 0x20 DUP3 ADD MLOAD DUP2 PUSH1 0x1 ADD SWAP1 DUP2 PUSH2 0xFBD SWAP2 SWAP1 PUSH2 0x1DA6 JUMP JUMPDEST POP PUSH1 0x40 DUP3 ADD MLOAD DUP2 PUSH1 0x2 ADD SWAP1 DUP2 PUSH2 0xFD3 SWAP2 SWAP1 PUSH2 0x1DA6 JUMP JUMPDEST POP PUSH1 0x60 DUP3 ADD MLOAD DUP2 PUSH1 0x3 ADD SWAP1 DUP2 PUSH2 0xFE9 SWAP2 SWAP1 PUSH2 0x1DA6 JUMP JUMPDEST POP PUSH1 0x80 DUP3 ADD MLOAD DUP2 PUSH1 0x4 ADD SSTORE SWAP1 POP POP POP POP POP POP POP POP POP JUMP JUMPDEST DUP1 PUSH1 0x1 PUSH0 DUP5 PUSH20 0xFFFFFFFFFFFFFFFFFFFFFFFFFFFFFFFFFFFFFFFF AND PUSH20 0xFFFFFFFFFFFFFFFFFFFFFFFFFFFFFFFFFFFFFFFF AND DUP2 MSTORE PUSH1 0x20 ADD SWAP1 DUP2 MSTORE PUSH1 0x20 ADD PUSH0 KECCAK256 PUSH1 0x4 ADD DUP2 SWAP1 SSTORE POP POP POP JUMP JUMPDEST PUSH1 0x60 DUP2 PUSH1 0x1 PUSH0 DUP6 PUSH20 0xFFFFFFFFFFFFFFFFFFFFFFFFFFFFFFFFFFFFFFFF AND PUSH20 0xFFFFFFFFFFFFFFFFFFFFFFFFFFFFFFFFFFFFFFFF AND DUP2 MSTORE PUSH1 0x20 ADD SWAP1 DUP2 MSTORE PUSH1 0x20 ADD PUSH0 KECCAK256 PUSH0 ADD SLOAD EQ PUSH2 0x10CC JUMPI PUSH1 0x40 MLOAD PUSH32 0x8C379A000000000000000000000000000000000000000000000000000000000 DUP2 MSTORE PUSH1 0x4 ADD PUSH2 0x10C3 SWAP1 PUSH2 0x19D7 JUMP JUMPDEST PUSH1 0x40 MLOAD DUP1 SWAP2 SUB SWAP1 REVERT JUMPDEST PUSH0 PUSH1 0x1 PUSH0 DUP6 PUSH20 0xFFFFFFFFFFFFFFFFFFFFFFFFFFFFFFFFFFFFFFFF AND PUSH20 0xFFFFFFFFFFFFFFFFFFFFFFFFFFFFFFFFFFFFFFFF AND DUP2 MSTORE PUSH1 0x20 ADD SWAP1 DUP2 MSTORE PUSH1 0x20 ADD PUSH0 KECCAK256 PUSH1 0x40 MLOAD DUP1 PUSH1 0xA0 ADD PUSH1 0x40 MSTORE SWAP1 DUP2 PUSH0 DUP3 ADD SLOAD DUP2 MSTORE PUSH1 0x20 ADD PUSH1 0x1 DUP3 ADD DUP1 SLOAD PUSH2 0x112E SWAP1 PUSH2 0x18A8 JUMP JUMPDEST DUP1 PUSH1 0x1F ADD PUSH1 0x20 DUP1 SWAP2 DIV MUL PUSH1 0x20 ADD PUSH1 0x40 MLOAD SWAP1 DUP2 ADD PUSH1 0x40 MSTORE DUP1 SWAP3 SWAP2 SWAP1 DUP2 DUP2 MSTORE PUSH1 0x20 ADD DUP3 DUP1 SLOAD PUSH2 0x115A SWAP1 PUSH2 0x18A8 JUMP JUMPDEST DUP1 ISZERO PUSH2 0x11A5 JUMPI DUP1 PUSH1 0x1F LT PUSH2 0x117C JUMPI PUSH2 0x100 DUP1 DUP4 SLOAD DIV MUL DUP4 MSTORE SWAP2 PUSH1 0x20 ADD SWAP2 PUSH2 0x11A5 JUMP JUMPDEST DUP3 ADD SWAP2 SWAP1 PUSH0 MSTORE PUSH1 0x20 PUSH0 KECCAK256 SWAP1 JUMPDEST DUP2 SLOAD DUP2 MSTORE SWAP1 PUSH1 0x1 ADD SWAP1 PUSH1 0x20 ADD DUP1 DUP4 GT PUSH2 0x1188 JUMPI DUP3 SWAP1 SUB PUSH1 0x1F AND DUP3 ADD SWAP2 JUMPDEST POP POP POP POP POP DUP2 MSTORE PUSH1 0x20 ADD PUSH1 0x2 DUP3 ADD DUP1 SLOAD PUSH2 0x11BE SWAP1 PUSH2 0x18A8 JUMP JUMPDEST DUP1 PUSH1 0x1F ADD PUSH1 0x20 DUP1 SWAP2 DIV MUL PUSH1 0x20 ADD PUSH1 0x40 MLOAD SWAP1 DUP2 ADD PUSH1 0x40 MSTORE DUP1 SWAP3 SWAP2 SWAP1 DUP2 DUP2 MSTORE PUSH1 0x20 ADD DUP3 DUP1 SLOAD PUSH2 0x11EA SWAP1 PUSH2 0x18A8 JUMP JUMPDEST DUP1 ISZERO PUSH2 0x1235 JUMPI DUP1 PUSH1 0x1F LT PUSH2 0x120C JUMPI PUSH2 0x100 DUP1 DUP4 SLOAD DIV MUL DUP4 MSTORE SWAP2 PUSH1 0x20 ADD SWAP2 PUSH2 0x1235 JUMP JUMPDEST DUP3 ADD SWAP2 SWAP1 PUSH0 MSTORE PUSH1 0x20 PUSH0 KECCAK256 SWAP1 JUMPDEST DUP2 SLOAD DUP2 MSTORE SWAP1 PUSH1 0x1 ADD SWAP1 PUSH1 0x20 ADD DUP1 DUP4 GT PUSH2 0x1218 JUMPI DUP3 SWAP1 SUB PUSH1 0x1F AND DUP3 ADD SWAP2 JUMPDEST POP POP POP POP POP DUP2 MSTORE PUSH1 0x20 ADD PUSH1 0x3 DUP3 ADD DUP1 SLOAD PUSH2 0x124E SWAP1 PUSH2 0x18A8 JUMP JUMPDEST DUP1 PUSH1 0x1F ADD PUSH1 0x20 DUP1 SWAP2 DIV MUL PUSH1 0x20 ADD PUSH1 0x40 MLOAD SWAP1 DUP2 ADD PUSH1 0x40 MSTORE DUP1 SWAP3 SWAP2 SWAP1 DUP2 DUP2 MSTORE PUSH1 0x20 ADD DUP3 DUP1 SLOAD PUSH2 0x127A SWAP1 PUSH2 0x18A8 JUMP JUMPDEST DUP1 ISZERO PUSH2 0x12C5 JUMPI DUP1 PUSH1 0x1F LT PUSH2 0x129C JUMPI PUSH2 0x100 DUP1 DUP4 SLOAD DIV MUL DUP4 MSTORE SWAP2 PUSH1 0x20 ADD SWAP2 PUSH2 0x12C5 JUMP JUMPDEST DUP3 ADD SWAP2 SWAP1 PUSH0 MSTORE PUSH1 0x20 PUSH0 KECCAK256 SWAP1 JUMPDEST DUP2 SLOAD DUP2 MSTORE SWAP1 PUSH1 0x1 ADD SWAP1 PUSH1 0x20 ADD DUP1 DUP4 GT PUSH2 0x12A8 JUMPI DUP3 SWAP1 SUB PUSH1 0x1F AND DUP3 ADD SWAP2 JUMPDEST POP POP POP POP POP DUP2 MSTORE PUSH1 0x20 ADD PUSH1 0x4 DUP3 ADD SLOAD DUP2 MSTORE POP POP SWAP1 POP DUP1 PUSH1 0x60 ADD MLOAD SWAP2 POP POP SWAP3 SWAP2 POP POP JUMP JUMPDEST POP DUP1 SLOAD PUSH2 0x12F4 SWAP1 PUSH2 0x18A8 JUMP JUMPDEST PUSH0 DUP3 SSTORE DUP1 PUSH1 0x1F LT PUSH2 0x1305 JUMPI POP PUSH2 0x1322 JUMP JUMPDEST PUSH1 0x1F ADD PUSH1 0x20 SWAP1 DIV SWAP1 PUSH0 MSTORE PUSH1 0x20 PUSH0 KECCAK256 SWAP1 DUP2 ADD SWAP1 PUSH2 0x1321 SWAP2 SWAP1 PUSH2 0x1325 JUMP JUMPDEST JUMPDEST POP JUMP JUMPDEST JUMPDEST DUP1 DUP3 GT ISZERO PUSH2 0x133C JUMPI PUSH0 DUP2 PUSH0 SWAP1 SSTORE POP PUSH1 0x1 ADD PUSH2 0x1326 JUMP JUMPDEST POP SWAP1 JUMP JUMPDEST PUSH0 PUSH1 0x40 MLOAD SWAP1 POP SWAP1 JUMP JUMPDEST PUSH0 DUP1 REVERT JUMPDEST PUSH0 DUP1 REVERT JUMPDEST PUSH0 PUSH20 0xFFFFFFFFFFFFFFFFFFFFFFFFFFFFFFFFFFFFFFFF DUP3 AND SWAP1 POP SWAP2 SWAP1 POP JUMP JUMPDEST PUSH0 PUSH2 0x137A DUP3 PUSH2 0x1351 JUMP JUMPDEST SWAP1 POP SWAP2 SWAP1 POP JUMP JUMPDEST PUSH2 0x138A DUP2 PUSH2 0x1370 JUMP JUMPDEST DUP2 EQ PUSH2 0x1394 JUMPI PUSH0 DUP1 REVERT JUMPDEST POP JUMP JUMPDEST PUSH0 DUP2 CALLDATALOAD SWAP1 POP PUSH2 0x13A5 DUP2 PUSH2 0x1381 JUMP JUMPDEST SWAP3 SWAP2 POP POP JUMP JUMPDEST PUSH0 DUP1 REVERT JUMPDEST PUSH0 DUP1 REVERT JUMPDEST PUSH0 PUSH1 0x1F NOT PUSH1 0x1F DUP4 ADD AND SWAP1 POP SWAP2 SWAP1 POP JUMP JUMPDEST PUSH32 0x4E487B7100000000000000000000000000000000000000000000000000000000 PUSH0 MSTORE PUSH1 0x41 PUSH1 0x4 MSTORE PUSH1 0x24 PUSH0 REVERT JUMPDEST PUSH2 0x13F9 DUP3 PUSH2 0x13B3 JUMP JUMPDEST DUP2 ADD DUP2 DUP2 LT PUSH8 0xFFFFFFFFFFFFFFFF DUP3 GT OR ISZERO PUSH2 0x1418 JUMPI PUSH2 0x1417 PUSH2 0x13C3 JUMP JUMPDEST JUMPDEST DUP1 PUSH1 0x40 MSTORE POP POP POP JUMP JUMPDEST PUSH0 PUSH2 0x142A PUSH2 0x1340 JUMP JUMPDEST SWAP1 POP PUSH2 0x1436 DUP3 DUP3 PUSH2 0x13F0 JUMP JUMPDEST SWAP2 SWAP1 POP JUMP JUMPDEST PUSH0 PUSH8 0xFFFFFFFFFFFFFFFF DUP3 GT ISZERO PUSH2 0x1455 JUMPI PUSH2 0x1454 PUSH2 0x13C3 JUMP JUMPDEST JUMPDEST PUSH2 0x145E DUP3 PUSH2 0x13B3 JUMP JUMPDEST SWAP1 POP PUSH1 0x20 DUP2 ADD SWAP1 POP SWAP2 SWAP1 POP JUMP JUMPDEST DUP3 DUP2 DUP4 CALLDATACOPY PUSH0 DUP4 DUP4 ADD MSTORE POP POP POP JUMP JUMPDEST PUSH0 PUSH2 0x148B PUSH2 0x1486 DUP5 PUSH2 0x143B JUMP JUMPDEST PUSH2 0x1421 JUMP JUMPDEST SWAP1 POP DUP3 DUP2 MSTORE PUSH1 0x20 DUP2 ADD DUP5 DUP5 DUP5 ADD GT ISZERO PUSH2 0x14A7 JUMPI PUSH2 0x14A6 PUSH2 0x13AF JUMP JUMPDEST JUMPDEST PUSH2 0x14B2 DUP5 DUP3 DUP6 PUSH2 0x146B JUMP JUMPDEST POP SWAP4 SWAP3 POP POP POP JUMP JUMPDEST PUSH0 DUP3 PUSH1 0x1F DUP4 ADD SLT PUSH2 0x14CE JUMPI PUSH2 0x14CD PUSH2 0x13AB JUMP JUMPDEST JUMPDEST DUP2 CALLDATALOAD PUSH2 0x14DE DUP5 DUP3 PUSH1 0x20 DUP7 ADD PUSH2 0x1479 JUMP JUMPDEST SWAP2 POP POP SWAP3 SWAP2 POP POP JUMP JUMPDEST PUSH0 DUP1 PUSH0 PUSH1 0x60 DUP5 DUP7 SUB SLT ISZERO PUSH2 0x14FE JUMPI PUSH2 0x14FD PUSH2 0x1349 JUMP JUMPDEST JUMPDEST PUSH0 PUSH2 0x150B DUP7 DUP3 DUP8 ADD PUSH2 0x1397 JUMP JUMPDEST SWAP4 POP POP PUSH1 0x20 DUP5 ADD CALLDATALOAD PUSH8 0xFFFFFFFFFFFFFFFF DUP2 GT ISZERO PUSH2 0x152C JUMPI PUSH2 0x152B PUSH2 0x134D JUMP JUMPDEST JUMPDEST PUSH2 0x1538 DUP7 DUP3 DUP8 ADD PUSH2 0x14BA JUMP JUMPDEST SWAP3 POP POP PUSH1 0x40 DUP5 ADD CALLDATALOAD PUSH8 0xFFFFFFFFFFFFFFFF DUP2 GT ISZERO PUSH2 0x1559 JUMPI PUSH2 0x1558 PUSH2 0x134D JUMP JUMPDEST JUMPDEST PUSH2 0x1565 DUP7 DUP3 DUP8 ADD PUSH2 0x14BA JUMP JUMPDEST SWAP2 POP POP SWAP3 POP SWAP3 POP SWAP3 JUMP JUMPDEST PUSH0 DUP2 ISZERO ISZERO SWAP1 POP SWAP2 SWAP1 POP JUMP JUMPDEST PUSH2 0x1583 DUP2 PUSH2 0x156F JUMP JUMPDEST DUP3 MSTORE POP POP JUMP JUMPDEST PUSH0 PUSH1 0x20 DUP3 ADD SWAP1 POP PUSH2 0x159C PUSH0 DUP4 ADD DUP5 PUSH2 0x157A JUMP JUMPDEST SWAP3 SWAP2 POP POP JUMP JUMPDEST PUSH0 DUP2 SWAP1 POP SWAP2 SWAP1 POP JUMP JUMPDEST PUSH2 0x15B4 DUP2 PUSH2 0x15A2 JUMP JUMPDEST DUP2 EQ PUSH2 0x15BE JUMPI PUSH0 DUP1 REVERT JUMPDEST POP JUMP JUMPDEST PUSH0 DUP2 CALLDATALOAD SWAP1 POP PUSH2 0x15CF DUP2 PUSH2 0x15AB JUMP JUMPDEST SWAP3 SWAP2 POP POP JUMP JUMPDEST PUSH0 DUP1 PUSH1 0x40 DUP4 DUP6 SUB SLT ISZERO PUSH2 0x15EB JUMPI PUSH2 0x15EA PUSH2 0x1349 JUMP JUMPDEST JUMPDEST PUSH0 PUSH2 0x15F8 DUP6 DUP3 DUP7 ADD PUSH2 0x1397 JUMP JUMPDEST SWAP3 POP POP PUSH1 0x20 PUSH2 0x1609 DUP6 DUP3 DUP7 ADD PUSH2 0x15C1 JUMP JUMPDEST SWAP2 POP POP SWAP3 POP SWAP3 SWAP1 POP JUMP JUMPDEST PUSH2 0x161C DUP2 PUSH2 0x15A2 JUMP JUMPDEST DUP3 MSTORE POP POP JUMP JUMPDEST PUSH0 PUSH1 0x20 DUP3 ADD SWAP1 POP PUSH2 0x1635 PUSH0 DUP4 ADD DUP5 PUSH2 0x1613 JUMP JUMPDEST SWAP3 SWAP2 POP POP JUMP JUMPDEST PUSH0 PUSH1 0x20 DUP3 DUP5 SUB SLT ISZERO PUSH2 0x1650 JUMPI PUSH2 0x164F PUSH2 0x1349 JUMP JUMPDEST JUMPDEST PUSH0 PUSH2 0x165D DUP5 DUP3 DUP6 ADD PUSH2 0x1397 JUMP JUMPDEST SWAP2 POP POP SWAP3 SWAP2 POP POP JUMP JUMPDEST PUSH0 DUP2 MLOAD SWAP1 POP SWAP2 SWAP1 POP JUMP JUMPDEST PUSH0 DUP3 DUP3 MSTORE PUSH1 0x20 DUP3 ADD SWAP1 POP SWAP3 SWAP2 POP POP JUMP JUMPDEST PUSH0 JUMPDEST DUP4 DUP2 LT ISZERO PUSH2 0x169D JUMPI DUP1 DUP3 ADD MLOAD DUP2 DUP5 ADD MSTORE PUSH1 0x20 DUP2 ADD SWAP1 POP PUSH2 0x1682 JUMP JUMPDEST PUSH0 DUP5 DUP5 ADD MSTORE POP POP POP POP JUMP JUMPDEST PUSH0 PUSH2 0x16B2 DUP3 PUSH2 0x1666 JUMP JUMPDEST PUSH2 0x16BC DUP2 DUP6 PUSH2 0x1670 JUMP JUMPDEST SWAP4 POP PUSH2 0x16CC DUP2 DUP6 PUSH1 0x20 DUP7 ADD PUSH2 0x1680 JUMP JUMPDEST PUSH2 0x16D5 DUP2 PUSH2 0x13B3 JUMP JUMPDEST DUP5 ADD SWAP2 POP POP SWAP3 SWAP2 POP POP JUMP JUMPDEST PUSH0 PUSH1 0x20 DUP3 ADD SWAP1 POP DUP2 DUP2 SUB PUSH0 DUP4 ADD MSTORE PUSH2 0x16F8 DUP2 DUP5 PUSH2 0x16A8 JUMP JUMPDEST SWAP1 POP SWAP3 SWAP2 POP POP JUMP JUMPDEST PUSH0 PUSH1 0xA0 DUP3 ADD SWAP1 POP PUSH2 0x1713 PUSH0 DUP4 ADD DUP9 PUSH2 0x1613 JUMP JUMPDEST DUP2 DUP2 SUB PUSH1 0x20 DUP4 ADD MSTORE PUSH2 0x1725 DUP2 DUP8 PUSH2 0x16A8 JUMP JUMPDEST SWAP1 POP DUP2 DUP2 SUB PUSH1 0x40 DUP4 ADD MSTORE PUSH2 0x1739 DUP2 DUP7 PUSH2 0x16A8 JUMP JUMPDEST SWAP1 POP DUP2 DUP2 SUB PUSH1 0x60 DUP4 ADD MSTORE PUSH2 0x174D DUP2 DUP6 PUSH2 0x16A8 JUMP JUMPDEST SWAP1 POP PUSH2 0x175C PUSH1 0x80 DUP4 ADD DUP5 PUSH2 0x1613 JUMP JUMPDEST SWAP7 SWAP6 POP POP POP POP POP POP JUMP JUMPDEST PUSH0 DUP1 PUSH0 DUP1 PUSH1 0x80 DUP6 DUP8 SUB SLT ISZERO PUSH2 0x177E JUMPI PUSH2 0x177D PUSH2 0x1349 JUMP JUMPDEST JUMPDEST PUSH0 DUP6 ADD CALLDATALOAD PUSH8 0xFFFFFFFFFFFFFFFF DUP2 GT ISZERO PUSH2 0x179B JUMPI PUSH2 0x179A PUSH2 0x134D JUMP JUMPDEST JUMPDEST PUSH2 0x17A7 DUP8 DUP3 DUP9 ADD PUSH2 0x14BA JUMP JUMPDEST SWAP5 POP POP PUSH1 0x20 DUP6 ADD CALLDATALOAD PUSH8 0xFFFFFFFFFFFFFFFF DUP2 GT ISZERO PUSH2 0x17C8 JUMPI PUSH2 0x17C7 PUSH2 0x134D JUMP JUMPDEST JUMPDEST PUSH2 0x17D4 DUP8 DUP3 DUP9 ADD PUSH2 0x14BA JUMP JUMPDEST SWAP4 POP POP PUSH1 0x40 DUP6 ADD CALLDATALOAD PUSH8 0xFFFFFFFFFFFFFFFF DUP2 GT ISZERO PUSH2 0x17F5 JUMPI PUSH2 0x17F4 PUSH2 0x134D JUMP JUMPDEST JUMPDEST PUSH2 0x1801 DUP8 DUP3 DUP9 ADD PUSH2 0x14BA JUMP JUMPDEST SWAP3 POP POP PUSH1 0x60 PUSH2 0x1812 DUP8 DUP3 DUP9 ADD PUSH2 0x1397 JUMP JUMPDEST SWAP2 POP POP SWAP3 SWAP6 SWAP2 SWAP5 POP SWAP3 POP JUMP JUMPDEST PUSH0 DUP2 SWAP1 POP SWAP3 SWAP2 POP POP JUMP JUMPDEST PUSH0 PUSH2 0x1832 DUP3 PUSH2 0x1666 JUMP JUMPDEST PUSH2 0x183C DUP2 DUP6 PUSH2 0x181E JUMP JUMPDEST SWAP4 POP PUSH2 0x184C DUP2 DUP6 PUSH1 0x20 DUP7 ADD PUSH2 0x1680 JUMP JUMPDEST DUP1 DUP5 ADD SWAP2 POP POP SWAP3 SWAP2 POP POP JUMP JUMPDEST PUSH0 PUSH2 0x1863 DUP3 DUP6 PUSH2 0x1828 JUMP JUMPDEST SWAP2 POP PUSH2 0x186F DUP3 DUP5 PUSH2 0x1828 JUMP JUMPDEST SWAP2 POP DUP2 SWAP1 POP SWAP4 SWAP3 POP POP POP JUMP JUMPDEST PUSH32 0x4E487B7100000000000000000000000000000000000000000000000000000000 PUSH0 MSTORE PUSH1 0x22 PUSH1 0x4 MSTORE PUSH1 0x24 PUSH0 REVERT JUMPDEST PUSH0 PUSH1 0x2 DUP3 DIV SWAP1 POP PUSH1 0x1 DUP3 AND DUP1 PUSH2 0x18BF JUMPI PUSH1 0x7F DUP3 AND SWAP2 POP JUMPDEST PUSH1 0x20 DUP3 LT DUP2 SUB PUSH2 0x18D2 JUMPI PUSH2 0x18D1 PUSH2 0x187B JUMP JUMPDEST JUMPDEST POP SWAP2 SWAP1 POP JUMP JUMPDEST PUSH0 DUP2 SWAP1 POP DUP2 PUSH0 MSTORE PUSH1 0x20 PUSH0 KECCAK256 SWAP1 POP SWAP2 SWAP1 POP JUMP JUMPDEST PUSH0 DUP2 SLOAD PUSH2 0x18F6 DUP2 PUSH2 0x18A8 JUMP JUMPDEST PUSH2 0x1900 DUP2 DUP7 PUSH2 0x181E JUMP JUMPDEST SWAP5 POP PUSH1 0x1 DUP3 AND PUSH0 DUP2 EQ PUSH2 0x191A JUMPI PUSH1 0x1 DUP2 EQ PUSH2 0x192F JUMPI PUSH2 0x1961 JUMP JUMPDEST PUSH1 0xFF NOT DUP4 AND DUP7 MSTORE DUP2 ISZERO ISZERO DUP3 MUL DUP7 ADD SWAP4 POP PUSH2 0x1961 JUMP JUMPDEST PUSH2 0x1938 DUP6 PUSH2 0x18D8 JUMP JUMPDEST PUSH0 JUMPDEST DUP4 DUP2 LT ISZERO PUSH2 0x1959 JUMPI DUP2 SLOAD DUP2 DUP10 ADD MSTORE PUSH1 0x1 DUP3 ADD SWAP2 POP PUSH1 0x20 DUP2 ADD SWAP1 POP PUSH2 0x193A JUMP JUMPDEST DUP4 DUP9 ADD SWAP6 POP POP POP JUMPDEST POP POP POP SWAP3 SWAP2 POP POP JUMP JUMPDEST PUSH0 PUSH2 0x1975 DUP3 DUP6 PUSH2 0x18EA JUMP JUMPDEST SWAP2 POP PUSH2 0x1981 DUP3 DUP5 PUSH2 0x18EA JUMP JUMPDEST SWAP2 POP DUP2 SWAP1 POP SWAP4 SWAP3 POP POP POP JUMP JUMPDEST PUSH32 0x4944206E6F742056616C69642100000000000000000000000000000000000000 PUSH0 DUP3 ADD MSTORE POP JUMP JUMPDEST PUSH0 PUSH2 0x19C1 PUSH1 0xD DUP4 PUSH2 0x1670 JUMP JUMPDEST SWAP2 POP PUSH2 0x19CC DUP3 PUSH2 0x198D JUMP JUMPDEST PUSH1 0x20 DUP3 ADD SWAP1 POP SWAP2 SWAP1 POP JUMP JUMPDEST PUSH0 PUSH1 0x20 DUP3 ADD SWAP1 POP DUP2 DUP2 SUB PUSH0 DUP4 ADD MSTORE PUSH2 0x19EE DUP2 PUSH2 0x19B5 JUMP JUMPDEST SWAP1 POP SWAP2 SWAP1 POP JUMP JUMPDEST PUSH0 DUP2 PUSH1 0x60 SHL SWAP1 POP SWAP2 SWAP1 POP JUMP JUMPDEST PUSH0 PUSH2 0x1A0B DUP3 PUSH2 0x19F5 JUMP JUMPDEST SWAP1 POP SWAP2 SWAP1 POP JUMP JUMPDEST PUSH0 PUSH2 0x1A1C DUP3 PUSH2 0x1A01 JUMP JUMPDEST SWAP1 POP SWAP2 SWAP1 POP JUMP JUMPDEST PUSH2 0x1A34 PUSH2 0x1A2F DUP3 PUSH2 0x1370 JUMP JUMPDEST PUSH2 0x1A12 JUMP JUMPDEST DUP3 MSTORE POP POP JUMP JUMPDEST PUSH0 PUSH2 0x1A45 DUP3 DUP8 PUSH2 0x1828 JUMP JUMPDEST SWAP2 POP PUSH2 0x1A51 DUP3 DUP7 PUSH2 0x1828 JUMP JUMPDEST SWAP2 POP PUSH2 0x1A5D DUP3 DUP6 PUSH2 0x1828 JUMP JUMPDEST SWAP2 POP PUSH2 0x1A69 DUP3 DUP5 PUSH2 0x1A23 JUMP JUMPDEST PUSH1 0x14 DUP3 ADD SWAP2 POP DUP2 SWAP1 POP SWAP6 SWAP5 POP POP POP POP POP JUMP JUMPDEST PUSH32 0x52657461696C657220616C726561647920726567697374657265640000000000 PUSH0 DUP3 ADD MSTORE POP JUMP JUMPDEST PUSH0 PUSH2 0x1AAF PUSH1 0x1B DUP4 PUSH2 0x1670 JUMP JUMPDEST SWAP2 POP PUSH2 0x1ABA DUP3 PUSH2 0x1A7B JUMP JUMPDEST PUSH1 0x20 DUP3 ADD SWAP1 POP SWAP2 SWAP1 POP JUMP JUMPDEST PUSH0 PUSH1 0x20 DUP3 ADD SWAP1 POP DUP2 DUP2 SUB PUSH0 DUP4 ADD MSTORE PUSH2 0x1ADC DUP2 PUSH2 0x1AA3 JUMP JUMPDEST SWAP1 POP SWAP2 SWAP1 POP JUMP JUMPDEST PUSH32 0x46756C6C206E616D652063616E6E6F7420626520656D70747900000000000000 PUSH0 DUP3 ADD MSTORE POP JUMP JUMPDEST PUSH0 PUSH2 0x1B17 PUSH1 0x19 DUP4 PUSH2 0x1670 JUMP JUMPDEST SWAP2 POP PUSH2 0x1B22 DUP3 PUSH2 0x1AE3 JUMP JUMPDEST PUSH1 0x20 DUP3 ADD SWAP1 POP SWAP2 SWAP1 POP JUMP JUMPDEST PUSH0 PUSH1 0x20 DUP3 ADD SWAP1 POP DUP2 DUP2 SUB PUSH0 DUP4 ADD MSTORE PUSH2 0x1B44 DUP2 PUSH2 0x1B0B JUMP JUMPDEST SWAP1 POP SWAP2 SWAP1 POP JUMP JUMPDEST PUSH32 0x50617373776F72642063616E6E6F7420626520656D7074790000000000000000 PUSH0 DUP3 ADD MSTORE POP JUMP JUMPDEST PUSH0 PUSH2 0x1B7F PUSH1 0x18 DUP4 PUSH2 0x1670 JUMP JUMPDEST SWAP2 POP PUSH2 0x1B8A DUP3 PUSH2 0x1B4B JUMP JUMPDEST PUSH1 0x20 DUP3 ADD SWAP1 POP SWAP2 SWAP1 POP JUMP JUMPDEST PUSH0 PUSH1 0x20 DUP3 ADD SWAP1 POP DUP2 DUP2 SUB PUSH0 DUP4 ADD MSTORE PUSH2 0x1BAC DUP2 PUSH2 0x1B73 JUMP JUMPDEST SWAP1 POP SWAP2 SWAP1 POP JUMP JUMPDEST PUSH32 0x456D61696C2063616E6E6F7420626520656D7074790000000000000000000000 PUSH0 DUP3 ADD MSTORE POP JUMP JUMPDEST PUSH0 PUSH2 0x1BE7 PUSH1 0x15 DUP4 PUSH2 0x1670 JUMP JUMPDEST SWAP2 POP PUSH2 0x1BF2 DUP3 PUSH2 0x1BB3 JUMP JUMPDEST PUSH1 0x20 DUP3 ADD SWAP1 POP SWAP2 SWAP1 POP JUMP JUMPDEST PUSH0 PUSH1 0x20 DUP3 ADD SWAP1 POP DUP2 DUP2 SUB PUSH0 DUP4 ADD MSTORE PUSH2 0x1C14 DUP2 PUSH2 0x1BDB JUMP JUMPDEST SWAP1 POP SWAP2 SWAP1 POP JUMP JUMPDEST PUSH0 PUSH1 0x20 PUSH1 0x1F DUP4 ADD DIV SWAP1 POP SWAP2 SWAP1 POP JUMP JUMPDEST PUSH0 DUP3 DUP3 SHL SWAP1 POP SWAP3 SWAP2 POP POP JUMP JUMPDEST PUSH0 PUSH1 0x8 DUP4 MUL PUSH2 0x1C65 PUSH32 0xFFFFFFFFFFFFFFFFFFFFFFFFFFFFFFFFFFFFFFFFFFFFFFFFFFFFFFFFFFFFFFFF DUP3 PUSH2 0x1C2A JUMP JUMPDEST PUSH2 0x1C6F DUP7 DUP4 PUSH2 0x1C2A JUMP JUMPDEST SWAP6 POP DUP1 NOT DUP5 AND SWAP4 POP DUP1 DUP7 AND DUP5 OR SWAP3 POP POP POP SWAP4 SWAP3 POP POP POP JUMP JUMPDEST PUSH0 DUP2 SWAP1 POP SWAP2 SWAP1 POP JUMP JUMPDEST PUSH0 PUSH2 0x1CAA PUSH2 0x1CA5 PUSH2 0x1CA0 DUP5 PUSH2 0x15A2 JUMP JUMPDEST PUSH2 0x1C87 JUMP JUMPDEST PUSH2 0x15A2 JUMP JUMPDEST SWAP1 POP SWAP2 SWAP1 POP JUMP JUMPDEST PUSH0 DUP2 SWAP1 POP SWAP2 SWAP1 POP JUMP JUMPDEST PUSH2 0x1CC3 DUP4 PUSH2 0x1C90 JUMP JUMPDEST PUSH2 0x1CD7 PUSH2 0x1CCF DUP3 PUSH2 0x1CB1 JUMP JUMPDEST DUP5 DUP5 SLOAD PUSH2 0x1C36 JUMP JUMPDEST DUP3 SSTORE POP POP POP POP JUMP JUMPDEST PUSH0 SWAP1 JUMP JUMPDEST PUSH2 0x1CEB PUSH2 0x1CDF JUMP JUMPDEST PUSH2 0x1CF6 DUP2 DUP5 DUP5 PUSH2 0x1CBA JUMP JUMPDEST POP POP POP JUMP JUMPDEST JUMPDEST DUP2 DUP2 LT ISZERO PUSH2 0x1D19 JUMPI PUSH2 0x1D0E PUSH0 DUP3 PUSH2 0x1CE3 JUMP JUMPDEST PUSH1 0x1 DUP2 ADD SWAP1 POP PUSH2 0x1CFC JUMP JUMPDEST POP POP JUMP JUMPDEST PUSH1 0x1F DUP3 GT ISZERO PUSH2 0x1D5E JUMPI PUSH2 0x1D2F DUP2 PUSH2 0x18D8 JUMP JUMPDEST PUSH2 0x1D38 DUP5 PUSH2 0x1C1B JUMP JUMPDEST DUP2 ADD PUSH1 0x20 DUP6 LT ISZERO PUSH2 0x1D47 JUMPI DUP2 SWAP1 POP JUMPDEST PUSH2 0x1D5B PUSH2 0x1D53 DUP6 PUSH2 0x1C1B JUMP JUMPDEST DUP4 ADD DUP3 PUSH2 0x1CFB JUMP JUMPDEST POP POP JUMPDEST POP POP POP JUMP JUMPDEST PUSH0 DUP3 DUP3 SHR SWAP1 POP SWAP3 SWAP2 POP POP JUMP JUMPDEST PUSH0 PUSH2 0x1D7E PUSH0 NOT DUP5 PUSH1 0x8 MUL PUSH2 0x1D63 JUMP JUMPDEST NOT DUP1 DUP4 AND SWAP2 POP POP SWAP3 SWAP2 POP POP JUMP JUMPDEST PUSH0 PUSH2 0x1D96 DUP4 DUP4 PUSH2 0x1D6F JUMP JUMPDEST SWAP2 POP DUP3 PUSH1 0x2 MUL DUP3 OR SWAP1 POP SWAP3 SWAP2 POP POP JUMP JUMPDEST PUSH2 0x1DAF DUP3 PUSH2 0x1666 JUMP JUMPDEST PUSH8 0xFFFFFFFFFFFFFFFF DUP2 GT ISZERO PUSH2 0x1DC8 JUMPI PUSH2 0x1DC7 PUSH2 0x13C3 JUMP JUMPDEST JUMPDEST PUSH2 0x1DD2 DUP3 SLOAD PUSH2 0x18A8 JUMP JUMPDEST PUSH2 0x1DDD DUP3 DUP3 DUP6 PUSH2 0x1D1D JUMP JUMPDEST PUSH0 PUSH1 0x20 SWAP1 POP PUSH1 0x1F DUP4 GT PUSH1 0x1 DUP2 EQ PUSH2 0x1E0E JUMPI PUSH0 DUP5 ISZERO PUSH2 0x1DFC JUMPI DUP3 DUP8 ADD MLOAD SWAP1 POP JUMPDEST PUSH2 0x1E06 DUP6 DUP3 PUSH2 0x1D8B JUMP JUMPDEST DUP7 SSTORE POP PUSH2 0x1E6D JUMP JUMPDEST PUSH1 0x1F NOT DUP5 AND PUSH2 0x1E1C DUP7 PUSH2 0x18D8 JUMP JUMPDEST PUSH0 JUMPDEST DUP3 DUP2 LT ISZERO PUSH2 0x1E43 JUMPI DUP5 DUP10 ADD MLOAD DUP3 SSTORE PUSH1 0x1 DUP3 ADD SWAP2 POP PUSH1 0x20 DUP6 ADD SWAP5 POP PUSH1 0x20 DUP2 ADD SWAP1 POP PUSH2 0x1E1E JUMP JUMPDEST DUP7 DUP4 LT ISZERO PUSH2 0x1E60 JUMPI DUP5 DUP10 ADD MLOAD PUSH2 0x1E5C PUSH1 0x1F DUP10 AND DUP3 PUSH2 0x1D6F JUMP JUMPDEST DUP4 SSTORE POP JUMPDEST PUSH1 0x1 PUSH1 0x2 DUP9 MUL ADD DUP9 SSTORE POP POP POP JUMPDEST POP POP POP POP POP POP JUMP INVALID LOG2 PUSH5 0x6970667358 0x22 SLT KECCAK256 0x4B LOG3 ADD 0xD8 DUP14 0xE7 0xAB MSTORE PUSH4 0x150D58B9 PUSH21 0xFB4C66A33E825D132BB9417D02475B323C1564736F PUSH13 0x63430008160033000000000000 "
				},
				"gasEstimates": {
					"creation": {
						"codeDepositCost": "1570200",
						"executionCost": "25908",
						"totalCost": "1596108"
					},
					"external": {
						"addUser(string,string,string,address)": "infinite",
						"deleteUser(address)": "infinite",
						"getBalance(address,uint256)": "infinite",
						"getEmail(address,uint256)": "infinite",
						"getFullName(address,uint256)": "infinite",
						"getId(address)": "infinite",
						"getUser(address)": "infinite",
						"isUserPresent(address)": "2871",
						"loginUser(address,string,string)": "infinite",
						"updateBalance(address,uint256)": "22894"
					}
				},
				"methodIdentifiers": {
					"addUser(string,string,string,address)": "b48ff0f1",
					"deleteUser(address)": "5c60f226",
					"getBalance(address,uint256)": "2b04e840",
					"getEmail(address,uint256)": "ecca4073",
					"getFullName(address,uint256)": "6e44cd42",
					"getId(address)": "65f68c89",
					"getUser(address)": "6f77926b",
					"isUserPresent(address)": "a5578807",
					"loginUser(address,string,string)": "06f22b04",
					"updateBalance(address,uint256)": "e0b1cccb"
				}
			},
			"storageLayout": {
				"storage": [
					{
						"astId": 42,
						"contract": "contracts/Actor/Retailer-smart-contract/RetailerStorage.sol:RetailerStorage",
						"label": "RetailerOrg",
						"offset": 0,
						"slot": "0",
						"type": "t_address"
					},
					{
						"astId": 67,
						"contract": "contracts/Actor/Retailer-smart-contract/RetailerStorage.sol:RetailerStorage",
						"label": "retailers",
						"offset": 0,
						"slot": "1",
						"type": "t_mapping(t_address,t_struct(Retailer)62_storage)"
					}
				],
				"types": {
					"t_address": {
						"encoding": "inplace",
						"label": "address",
						"numberOfBytes": "20"
					},
					"t_mapping(t_address,t_struct(Retailer)62_storage)": {
						"encoding": "mapping",
						"key": "t_address",
						"label": "mapping(address => struct RetailerStorage.Retailer)",
						"numberOfBytes": "32",
						"value": "t_struct(Retailer)62_storage"
					},
					"t_string_storage": {
						"encoding": "bytes",
						"label": "string",
						"numberOfBytes": "32"
					},
					"t_struct(Retailer)62_storage": {
						"encoding": "inplace",
						"label": "struct RetailerStorage.Retailer",
						"members": [
							{
								"astId": 53,
								"contract": "contracts/Actor/Retailer-smart-contract/RetailerStorage.sol:RetailerStorage",
								"label": "id",
								"offset": 0,
								"slot": "0",
								"type": "t_uint256"
							},
							{
								"astId": 55,
								"contract": "contracts/Actor/Retailer-smart-contract/RetailerStorage.sol:RetailerStorage",
								"label": "fullName",
								"offset": 0,
								"slot": "1",
								"type": "t_string_storage"
							},
							{
								"astId": 57,
								"contract": "contracts/Actor/Retailer-smart-contract/RetailerStorage.sol:RetailerStorage",
								"label": "password",
								"offset": 0,
								"slot": "2",
								"type": "t_string_storage"
							},
							{
								"astId": 59,
								"contract": "contracts/Actor/Retailer-smart-contract/RetailerStorage.sol:RetailerStorage",
								"label": "email",
								"offset": 0,
								"slot": "3",
								"type": "t_string_storage"
							},
							{
								"astId": 61,
								"contract": "contracts/Actor/Retailer-smart-contract/RetailerStorage.sol:RetailerStorage",
								"label": "balance",
								"offset": 0,
								"slot": "4",
								"type": "t_uint256"
							}
						],
						"numberOfBytes": "160"
					},
					"t_uint256": {
						"encoding": "inplace",
						"label": "uint256",
						"numberOfBytes": "32"
					}
				}
			},
			"userdoc": {
				"kind": "user",
				"methods": {
					"addUser(string,string,string,address)": {
						"notice": "addUser() effettuiamo la registrazione dell'utente Retailer "
					},
					"getBalance(address,uint256)": {
						"notice": "- Funzione getBalance() attraverso l'address del Retailer riusciamo a recuperare il suo Balance"
					},
					"getEmail(address,uint256)": {
						"notice": "- Funzione getEmail() attraverso l'address del Retailer riusciamo a recuperare la sua Email "
					},
					"getFullName(address,uint256)": {
						"notice": "- Funzione getFullName() attraverso l'address del Retailer riusciamo a recuperare il suo FullName"
					},
					"getId(address)": {
						"notice": "- Funzione getId() attraverso l'address del Retailer riusciamo a recuperare il suo ID"
					},
					"getUser(address)": {
						"notice": "getUser(walletRetailer) :  Retailer visualizza le sue informazioni principali - email, password , fullName , balance "
					},
					"loginUser(address,string,string)": {
						"notice": "LoginUser() effettua il login dell'utente  La comparazione Hash tra (email e password) di input e quelli salvati return true se la comparazione è vera, La comparazione è falsa se l'hashing non risulta valido"
					}
				},
				"version": 1
			}
		}
	}
}